{
	"compilerInput": "{\"language\":\"Solidity\",\"sources\":{\"PMNoAdmin.sol\":{\"content\":\"// SPDX-License-IDentifier: MIT\\r\\npragma solidity >=0.8.0 <0.9.0;\\r\\n\\r\\nimport \\\"@openzeppelin/contracts/access/Ownable.sol\\\";\\r\\nimport {ERC1155} from '@openzeppelin/contracts/token/ERC1155/ERC1155.sol';\\r\\nimport {PrimitiveTypeUtils} from '@iden3/contracts/lib/PrimitiveTypeUtils.sol';\\r\\nimport {ICircuitValidator} from '@iden3/contracts/interfaces/ICircuitValidator.sol';\\r\\nimport {EmbeddedZKPVerifier} from '@iden3/contracts/verifiers/EmbeddedZKPVerifier.sol';\\r\\nimport {UniversalVerifier} from '@iden3/contracts/verifiers/UniversalVerifier.sol';\\r\\nimport \\\"@openzeppelin/contracts/utils/structs/EnumerableSet.sol\\\";\\r\\nimport { IZKPVerifier } from '@iden3/contracts/interfaces/IZKPVerifier.sol';\\r\\n\\r\\ncontract PMNoAdmin is ERC1155, Ownable {\\r\\n    address[] private admins;\\r\\n\\r\\n    // Getter function for the admins array, only callable by the owner.\\r\\n    function getAdmins() public view onlyOwner returns (address[] memory) {\\r\\n        return admins;\\r\\n    }\\r\\n\\r\\n    // Internal helper function to check if an address is an admin.\\r\\n    function _isAdmin(address _admin) internal view returns (bool) {\\r\\n        for (uint i = 0; i < admins.length; i++) {\\r\\n            if (admins[i] == _admin) {\\r\\n                return true;\\r\\n            }\\r\\n        }\\r\\n        return false;\\r\\n    }\\r\\n\\r\\n    // Function to add an admin address. Only the owner can add.\\r\\n    function addAdmin(address _admin) public onlyOwner {\\r\\n        require(_admin != address(0), \\\"Invalid address\\\");\\r\\n        require(!_isAdmin(_admin), \\\"Address is already an admin\\\");\\r\\n        admins.push(_admin);\\r\\n    }\\r\\n\\r\\n    // Function to remove an admin address. Only the owner can remove.\\r\\n    function removeAdmin(address _admin) public onlyOwner {\\r\\n        uint len = admins.length;\\r\\n        for (uint i = 0; i < len; i++) {\\r\\n            if (admins[i] == _admin) {\\r\\n                admins[i] = admins[len - 1];\\r\\n                admins.pop();\\r\\n                return;\\r\\n            }\\r\\n        }\\r\\n        revert(\\\"Admin not found\\\");\\r\\n    }\\r\\n\\r\\n    // Modifier to restrict functions to only addresses in the admin list.\\r\\n    modifier onlyAdmin() {\\r\\n        require(_isAdmin(msg.sender), \\\"Caller is not an admin\\\");\\r\\n        _;\\r\\n    }\\r\\n\\r\\n    using EnumerableSet for EnumerableSet.UintSet;\\r\\n\\r\\n    // A set of all token IDs that have ever been minted\\r\\n    EnumerableSet.UintSet private _allTokenIDs;\\r\\n\\r\\n    /// @notice Returns the full list of token IDs ever minted\\r\\n    function allTokenIDs() external view returns (uint256[] memory) {\\r\\n        return _allTokenIDs.values();\\r\\n    }\\r\\n\\r\\n    // Mapping from token ID to its name. But the token name and other attributes can be stored as uri \\r\\n    mapping(uint256 => string) public tokenName;\\r\\n\\r\\n\\r\\n    // Mapping from tokenID to request setter address to proof_request_id to prover's role (a string 'sender' or 'receiver').\\r\\n    // tokenID → (setter → (proofRequestID → 'sender' or 'receiver'))\\r\\n    mapping(uint256 => mapping(address => mapping(uint64 => string))) public tokenID_requestSetter_proofRequest_role;\\r\\n\\r\\n    // Struct to represent a spending condition\\r\\n    struct SpendingCondition {\\r\\n        string attribute;\\r\\n        string operatorStr;\\r\\n        string value;\\r\\n    }\\r\\n\\r\\n    // Mapping from tokenID to user address to proofRequestID to spending condition\\r\\n    // tokenID => (moneyOwnerAddress => (proofRequestID => SpendingCondition))\\r\\n    mapping(uint256 => mapping(address => mapping(uint64 => SpendingCondition))) public spendingConditions;\\r\\n\\r\\n    // An array to store proof_request_ids only for iteration.\\r\\n    uint64[] public proofRequestIDs;\\r\\n    \\r\\n    /// @notice Get all spending conditions for a given tokenID and user\\r\\n    function getSpendingConditions(uint256 tokenID, address user) external view returns (uint64[] memory, SpendingCondition[] memory) {\\r\\n        uint64[] memory ids = proofRequestIDs;\\r\\n        uint256 count = 0;\\r\\n        // First, count how many proofRequestIDs are associated with this tokenID for this user\\r\\n        for (uint256 i = 0; i < ids.length; i++) {\\r\\n            if (bytes(spendingConditions[tokenID][user][ids[i]].attribute).length > 0) {\\r\\n                count++;\\r\\n            }\\r\\n        }\\r\\n        // Prepare arrays for output\\r\\n        uint64[] memory filteredIDs = new uint64[](count);\\r\\n        SpendingCondition[] memory conditions = new SpendingCondition[](count);\\r\\n        uint256 idx = 0;\\r\\n        for (uint256 i = 0; i < ids.length; i++) {\\r\\n            if (bytes(spendingConditions[tokenID][user][ids[i]].attribute).length > 0) {\\r\\n                filteredIDs[idx] = ids[i];\\r\\n                conditions[idx] = spendingConditions[tokenID][user][ids[i]];\\r\\n                idx++;\\r\\n            }\\r\\n        }\\r\\n        return (filteredIDs, conditions);\\r\\n    }\\r\\n\\r\\n    // Add a new proof request and the corresponding prover's address.\\r\\n    // The array proofRequestIDs is updated accordingly.\\r\\n    // Add a new proof request and the corresponding role ('sender' or 'receiver').\\r\\n    // The array proofRequestIDs is updated accordingly.\\r\\n    function addProofRequestAndRole(uint256 tokenID, uint64 requestID, string calldata role) private {\\r\\n        require(_allTokenIDs.contains(tokenID), \\\"token id does not exist\\\");\\r\\n        require(bytes(tokenID_requestSetter_proofRequest_role[tokenID][msg.sender][requestID]).length == 0, \\\"Proof request already exists\\\");\\r\\n        require(\\r\\n            keccak256(bytes(role)) == keccak256(bytes(\\\"sender\\\")) ||\\r\\n            keccak256(bytes(role)) == keccak256(bytes(\\\"receiver\\\")),\\r\\n            \\\"Role must be 'sender' or 'receiver'\\\"\\r\\n        );\\r\\n        tokenID_requestSetter_proofRequest_role[tokenID][msg.sender][requestID] = role;\\r\\n        proofRequestIDs.push(requestID);\\r\\n    }\\r\\n    \\r\\n    function addProofRequest_VerifierAndPM(\\r\\n        uint64 requestId,\\r\\n        string calldata metadata,\\r\\n        ICircuitValidator validator,\\r\\n        bytes calldata data,\\r\\n        uint256 tokenID,\\r\\n        string calldata role,\\r\\n        SpendingCondition calldata condition\\r\\n    ) public {\\r\\n        // Only allow if caller owns the tokenID\\r\\n        require(balanceOf(msg.sender, tokenID) > 0, \\\"Only money owner can add spending condition.\\\");\\r\\n        // Build the IZKPVerifier.ZKPRequest struct\\r\\n        IZKPVerifier.ZKPRequest memory req = IZKPVerifier.ZKPRequest({\\r\\n            metadata: metadata,\\r\\n            validator: validator,\\r\\n            data: data\\r\\n        });\\r\\n\\r\\n        verifier.setZKPRequest(requestId, req);\\r\\n        addProofRequestAndRole(tokenID, requestId, role);\\r\\n        // Add the spending condition\\r\\n        spendingConditions[tokenID][msg.sender][requestId] = SpendingCondition({\\r\\n            attribute: condition.attribute,\\r\\n            operatorStr: condition.operatorStr,\\r\\n            value: condition.value\\r\\n        });\\r\\n    }\\r\\n    \\r\\n    // Delete a proof request and the address by ID.\\r\\n    // The array proofRequestIDs is updated accordingly.\\r\\n    function deleteProofRequestAndRole(uint256 tokenID, uint64 requestID) public {\\r\\n        require(_allTokenIDs.contains(tokenID), \\\"token id does not exist\\\");\\r\\n        require(bytes(tokenID_requestSetter_proofRequest_role[tokenID][msg.sender][requestID]).length != 0, \\\"Proof request does not exist\\\");\\r\\n        // Only delete if the spending condition exists for this user\\r\\n        require(bytes(spendingConditions[tokenID][msg.sender][requestID].attribute).length != 0, \\\"No spending condition to delete\\\");\\r\\n        delete tokenID_requestSetter_proofRequest_role[tokenID][msg.sender][requestID];\\r\\n        delete spendingConditions[tokenID][msg.sender][requestID];\\r\\n        // Remove ID from the array (swap-and-pop technique)\\r\\n        for (uint256 i = 0; i < proofRequestIDs.length; i++) {\\r\\n            if (proofRequestIDs[i] == requestID) {\\r\\n                proofRequestIDs[i] = proofRequestIDs[proofRequestIDs.length - 1];\\r\\n                proofRequestIDs.pop();\\r\\n                break;\\r\\n            }\\r\\n        }\\r\\n    }\\r\\n\\r\\n    UniversalVerifier public verifier;\\r\\n\\r\\n    constructor(UniversalVerifier verifier_, address initialOwner, string memory uri_)\\r\\n    ERC1155(uri_)\\r\\n    Ownable(initialOwner)\\r\\n    {\\r\\n        verifier = verifier_;\\r\\n    }\\r\\n\\r\\n    // Custom error declaration (check if token id already taken, when minting new token)\\r\\n    error TokenIDTaken(uint256 tokenID);\\r\\n\\r\\n    // Reverts with TokenIDNotFound if the ID hasn’t been registered yet.\\r\\n    error TokenIDNotFound(uint256 tokenID);\\r\\n\\r\\n    /// @notice Mint a token by name. If the name exists, mint the existing token. \\r\\n    /// If the name does not exist, mint a new token with a random unused ID and assign the name.\\r\\n    /// Anyone can call this function to mint a token, for testing purposes.\\r\\n    /// In production, this function should be restricted to the owner or a specific role.\\r\\n    /// @dev The function no longer requires the ID argument. The name must be non-empty.\\r\\n    function mintToken(address to, uint256 amount, bytes calldata data, string calldata name) external {\\r\\n        require(bytes(name).length > 0, \\\"Name required\\\");\\r\\n        uint256 tokenID = 0;\\r\\n        bool found = false;\\r\\n        uint256[] memory ids = _allTokenIDs.values();\\r\\n        for (uint256 i = 0; i < ids.length; i++) {\\r\\n            if (keccak256(bytes(tokenName[ids[i]])) == keccak256(bytes(name))) {\\r\\n                tokenID = ids[i];\\r\\n                found = true;\\r\\n                break;\\r\\n            }\\r\\n        }\\r\\n        if (found) {\\r\\n            _mint(to, tokenID, amount, data);\\r\\n        } else {\\r\\n            // Generate a random 4-5 digit ID (1000–99999)\\r\\n            uint256 newID;\\r\\n            uint256 attempts = 0;\\r\\n            do {\\r\\n                newID = 1000 + (uint256(keccak256(abi.encodePacked(block.timestamp, block.prevrandao, to, name, attempts))) % 90000);\\r\\n                attempts++;\\r\\n                require(attempts < 100, \\\"Unable to find unique short token ID\\\");\\r\\n            } while (_allTokenIDs.contains(newID));\\r\\n            require(_allTokenIDs.add(newID), \\\"TokenIDTaken\\\");\\r\\n            _mint(to, newID, amount, data);\\r\\n            tokenName[newID] = name;\\r\\n        }\\r\\n    }\\r\\n\\r\\n    function burn(address account, uint256 ID, uint256 amount) external onlyOwner {\\r\\n        _burn(account, ID, amount);\\r\\n    }\\r\\n\\r\\n    // Custom error declaration\\r\\n    error ProofNotVerified(uint64 requestID, address proverAddress);\\r\\n\\r\\n    // @dev Internal helper: revert if any proof for tokenID is still unverified.\\r\\n    // Use this before token transfer.\\r\\n    // Checks sender's and receiver's proofs as required by the prover's role.\\r\\n    function _checkAllProofsVerified(uint256 tokenID, address sender, address receiver) internal view {\\r\\n        uint64[] memory tempRequestIDs = proofRequestIDs;\\r\\n        for (uint256 i = 0; i < tempRequestIDs.length; i++) {\\r\\n            string memory role = tokenID_requestSetter_proofRequest_role[tokenID][sender][tempRequestIDs[i]];\\r\\n            if (bytes(role).length == 0) continue;\\r\\n            if (keccak256(bytes(role)) == keccak256(bytes(\\\"sender\\\"))) {\\r\\n                if (!verifier.getProofStatus(sender, tempRequestIDs[i]).isVerified) {\\r\\n                    revert ProofNotVerified(tempRequestIDs[i], sender);\\r\\n                }\\r\\n            } else if (keccak256(bytes(role)) == keccak256(bytes(\\\"receiver\\\"))) {\\r\\n                if (!verifier.getProofStatus(receiver, tempRequestIDs[i]).isVerified) {\\r\\n                    revert ProofNotVerified(tempRequestIDs[i], receiver);\\r\\n                }\\r\\n            }\\r\\n        }\\r\\n    }\\r\\n\\r\\n    // Override safeTransferFrom and include the onlyValidProofs modifier\\r\\n    function safeTransferFrom(\\r\\n        address from,\\r\\n        address to,\\r\\n        uint256 tokenID,\\r\\n        uint256 amount,\\r\\n        bytes memory data\\r\\n    ) public virtual override {\\r\\n        // Enforce per-token proof checks\\r\\n        _checkAllProofsVerified(tokenID, from, to);\\r\\n\\r\\n        // Optionally add any additional custom logic here\\r\\n        super.safeTransferFrom(from, to, tokenID, amount, data);\\r\\n    }\\r\\n\\r\\n    function safeBatchTransferFrom(\\r\\n        address from,\\r\\n        address to,\\r\\n        uint256[] memory tokenIDs,\\r\\n        uint256[] memory amounts,\\r\\n        bytes memory data\\r\\n    ) public virtual override {\\r\\n        require(tokenIDs.length == amounts.length, \\\"ERC1155: Mismatched array lengths\\\");\\r\\n        require(to != address(0), \\\"ERC1155: transfer to the zero address\\\");\\r\\n        for (uint256 i = 0; i < tokenIDs.length; ++i) {\\r\\n            // Enforce per-token proof checks\\r\\n            _checkAllProofsVerified(tokenIDs[i], from, to);\\r\\n            safeTransferFrom(from, to, tokenIDs[i], amounts[i], data);\\r\\n        }\\r\\n    }\\r\\n}\\r\\n\"},\"@iden3/contracts/interfaces/IZKPVerifier.sol\":{\"content\":\"// SPDX-License-Identifier: GPL-3.0\\n\\npragma solidity 0.8.20;\\n\\nimport {ICircuitValidator} from \\\"./ICircuitValidator.sol\\\";\\n\\ninterface IZKPVerifier {\\n    struct ZKPRequest {\\n        string metadata;\\n        ICircuitValidator validator;\\n        bytes data;\\n    }\\n\\n    struct ProofStatus {\\n        bool isVerified;\\n        string validatorVersion;\\n        uint256 blockNumber;\\n        uint256 blockTimestamp;\\n    }\\n\\n    function submitZKPResponse(\\n        uint64 requestId,\\n        uint256[] memory inputs,\\n        uint256[2] memory a,\\n        uint256[2][2] memory b,\\n        uint256[2] memory c\\n    ) external;\\n\\n    function setZKPRequest(uint64 requestId, ZKPRequest calldata request) external;\\n\\n    function getZKPRequest(uint64 requestId) external view returns (ZKPRequest memory);\\n\\n    function getZKPRequestsCount() external view returns (uint256);\\n\\n    function requestIdExists(uint64 requestId) external view returns (bool);\\n\\n    function getZKPRequests(\\n        uint256 startIndex,\\n        uint256 length\\n    ) external view returns (ZKPRequest[] memory);\\n\\n    function isProofVerified(address sender, uint64 requestId) external view returns (bool);\\n\\n    function getProofStatus(\\n        address sender,\\n        uint64 requestId\\n    ) external view returns (ProofStatus memory);\\n\\n    function getProofStorageField(\\n        address user,\\n        uint64 requestId,\\n        string memory key\\n    ) external view returns (uint256);\\n}\\n\"},\"@openzeppelin/contracts/utils/structs/EnumerableSet.sol\":{\"content\":\"// SPDX-License-Identifier: MIT\\n// OpenZeppelin Contracts (last updated v5.3.0) (utils/structs/EnumerableSet.sol)\\n// This file was procedurally generated from scripts/generate/templates/EnumerableSet.js.\\n\\npragma solidity ^0.8.20;\\n\\nimport {Arrays} from \\\"../Arrays.sol\\\";\\n\\n/**\\n * @dev Library for managing\\n * https://en.wikipedia.org/wiki/Set_(abstract_data_type)[sets] of primitive\\n * types.\\n *\\n * Sets have the following properties:\\n *\\n * - Elements are added, removed, and checked for existence in constant time\\n * (O(1)).\\n * - Elements are enumerated in O(n). No guarantees are made on the ordering.\\n * - Set can be cleared (all elements removed) in O(n).\\n *\\n * ```solidity\\n * contract Example {\\n *     // Add the library methods\\n *     using EnumerableSet for EnumerableSet.AddressSet;\\n *\\n *     // Declare a set state variable\\n *     EnumerableSet.AddressSet private mySet;\\n * }\\n * ```\\n *\\n * As of v3.3.0, sets of type `bytes32` (`Bytes32Set`), `address` (`AddressSet`)\\n * and `uint256` (`UintSet`) are supported.\\n *\\n * [WARNING]\\n * ====\\n * Trying to delete such a structure from storage will likely result in data corruption, rendering the structure\\n * unusable.\\n * See https://github.com/ethereum/solidity/pull/11843[ethereum/solidity#11843] for more info.\\n *\\n * In order to clean an EnumerableSet, you can either remove all elements one by one or create a fresh instance using an\\n * array of EnumerableSet.\\n * ====\\n */\\nlibrary EnumerableSet {\\n    // To implement this library for multiple types with as little code\\n    // repetition as possible, we write it in terms of a generic Set type with\\n    // bytes32 values.\\n    // The Set implementation uses private functions, and user-facing\\n    // implementations (such as AddressSet) are just wrappers around the\\n    // underlying Set.\\n    // This means that we can only create new EnumerableSets for types that fit\\n    // in bytes32.\\n\\n    struct Set {\\n        // Storage of set values\\n        bytes32[] _values;\\n        // Position is the index of the value in the `values` array plus 1.\\n        // Position 0 is used to mean a value is not in the set.\\n        mapping(bytes32 value => uint256) _positions;\\n    }\\n\\n    /**\\n     * @dev Add a value to a set. O(1).\\n     *\\n     * Returns true if the value was added to the set, that is if it was not\\n     * already present.\\n     */\\n    function _add(Set storage set, bytes32 value) private returns (bool) {\\n        if (!_contains(set, value)) {\\n            set._values.push(value);\\n            // The value is stored at length-1, but we add 1 to all indexes\\n            // and use 0 as a sentinel value\\n            set._positions[value] = set._values.length;\\n            return true;\\n        } else {\\n            return false;\\n        }\\n    }\\n\\n    /**\\n     * @dev Removes a value from a set. O(1).\\n     *\\n     * Returns true if the value was removed from the set, that is if it was\\n     * present.\\n     */\\n    function _remove(Set storage set, bytes32 value) private returns (bool) {\\n        // We cache the value's position to prevent multiple reads from the same storage slot\\n        uint256 position = set._positions[value];\\n\\n        if (position != 0) {\\n            // Equivalent to contains(set, value)\\n            // To delete an element from the _values array in O(1), we swap the element to delete with the last one in\\n            // the array, and then remove the last element (sometimes called as 'swap and pop').\\n            // This modifies the order of the array, as noted in {at}.\\n\\n            uint256 valueIndex = position - 1;\\n            uint256 lastIndex = set._values.length - 1;\\n\\n            if (valueIndex != lastIndex) {\\n                bytes32 lastValue = set._values[lastIndex];\\n\\n                // Move the lastValue to the index where the value to delete is\\n                set._values[valueIndex] = lastValue;\\n                // Update the tracked position of the lastValue (that was just moved)\\n                set._positions[lastValue] = position;\\n            }\\n\\n            // Delete the slot where the moved value was stored\\n            set._values.pop();\\n\\n            // Delete the tracked position for the deleted slot\\n            delete set._positions[value];\\n\\n            return true;\\n        } else {\\n            return false;\\n        }\\n    }\\n\\n    /**\\n     * @dev Removes all the values from a set. O(n).\\n     *\\n     * WARNING: Developers should keep in mind that this function has an unbounded cost and using it may render the\\n     * function uncallable if the set grows to the point where clearing it consumes too much gas to fit in a block.\\n     */\\n    function _clear(Set storage set) private {\\n        uint256 len = _length(set);\\n        for (uint256 i = 0; i < len; ++i) {\\n            delete set._positions[set._values[i]];\\n        }\\n        Arrays.unsafeSetLength(set._values, 0);\\n    }\\n\\n    /**\\n     * @dev Returns true if the value is in the set. O(1).\\n     */\\n    function _contains(Set storage set, bytes32 value) private view returns (bool) {\\n        return set._positions[value] != 0;\\n    }\\n\\n    /**\\n     * @dev Returns the number of values on the set. O(1).\\n     */\\n    function _length(Set storage set) private view returns (uint256) {\\n        return set._values.length;\\n    }\\n\\n    /**\\n     * @dev Returns the value stored at position `index` in the set. O(1).\\n     *\\n     * Note that there are no guarantees on the ordering of values inside the\\n     * array, and it may change when more values are added or removed.\\n     *\\n     * Requirements:\\n     *\\n     * - `index` must be strictly less than {length}.\\n     */\\n    function _at(Set storage set, uint256 index) private view returns (bytes32) {\\n        return set._values[index];\\n    }\\n\\n    /**\\n     * @dev Return the entire set in an array\\n     *\\n     * WARNING: This operation will copy the entire storage to memory, which can be quite expensive. This is designed\\n     * to mostly be used by view accessors that are queried without any gas fees. Developers should keep in mind that\\n     * this function has an unbounded cost, and using it as part of a state-changing function may render the function\\n     * uncallable if the set grows to a point where copying to memory consumes too much gas to fit in a block.\\n     */\\n    function _values(Set storage set) private view returns (bytes32[] memory) {\\n        return set._values;\\n    }\\n\\n    // Bytes32Set\\n\\n    struct Bytes32Set {\\n        Set _inner;\\n    }\\n\\n    /**\\n     * @dev Add a value to a set. O(1).\\n     *\\n     * Returns true if the value was added to the set, that is if it was not\\n     * already present.\\n     */\\n    function add(Bytes32Set storage set, bytes32 value) internal returns (bool) {\\n        return _add(set._inner, value);\\n    }\\n\\n    /**\\n     * @dev Removes a value from a set. O(1).\\n     *\\n     * Returns true if the value was removed from the set, that is if it was\\n     * present.\\n     */\\n    function remove(Bytes32Set storage set, bytes32 value) internal returns (bool) {\\n        return _remove(set._inner, value);\\n    }\\n\\n    /**\\n     * @dev Removes all the values from a set. O(n).\\n     *\\n     * WARNING: Developers should keep in mind that this function has an unbounded cost and using it may render the\\n     * function uncallable if the set grows to the point where clearing it consumes too much gas to fit in a block.\\n     */\\n    function clear(Bytes32Set storage set) internal {\\n        _clear(set._inner);\\n    }\\n\\n    /**\\n     * @dev Returns true if the value is in the set. O(1).\\n     */\\n    function contains(Bytes32Set storage set, bytes32 value) internal view returns (bool) {\\n        return _contains(set._inner, value);\\n    }\\n\\n    /**\\n     * @dev Returns the number of values in the set. O(1).\\n     */\\n    function length(Bytes32Set storage set) internal view returns (uint256) {\\n        return _length(set._inner);\\n    }\\n\\n    /**\\n     * @dev Returns the value stored at position `index` in the set. O(1).\\n     *\\n     * Note that there are no guarantees on the ordering of values inside the\\n     * array, and it may change when more values are added or removed.\\n     *\\n     * Requirements:\\n     *\\n     * - `index` must be strictly less than {length}.\\n     */\\n    function at(Bytes32Set storage set, uint256 index) internal view returns (bytes32) {\\n        return _at(set._inner, index);\\n    }\\n\\n    /**\\n     * @dev Return the entire set in an array\\n     *\\n     * WARNING: This operation will copy the entire storage to memory, which can be quite expensive. This is designed\\n     * to mostly be used by view accessors that are queried without any gas fees. Developers should keep in mind that\\n     * this function has an unbounded cost, and using it as part of a state-changing function may render the function\\n     * uncallable if the set grows to a point where copying to memory consumes too much gas to fit in a block.\\n     */\\n    function values(Bytes32Set storage set) internal view returns (bytes32[] memory) {\\n        bytes32[] memory store = _values(set._inner);\\n        bytes32[] memory result;\\n\\n        assembly (\\\"memory-safe\\\") {\\n            result := store\\n        }\\n\\n        return result;\\n    }\\n\\n    // AddressSet\\n\\n    struct AddressSet {\\n        Set _inner;\\n    }\\n\\n    /**\\n     * @dev Add a value to a set. O(1).\\n     *\\n     * Returns true if the value was added to the set, that is if it was not\\n     * already present.\\n     */\\n    function add(AddressSet storage set, address value) internal returns (bool) {\\n        return _add(set._inner, bytes32(uint256(uint160(value))));\\n    }\\n\\n    /**\\n     * @dev Removes a value from a set. O(1).\\n     *\\n     * Returns true if the value was removed from the set, that is if it was\\n     * present.\\n     */\\n    function remove(AddressSet storage set, address value) internal returns (bool) {\\n        return _remove(set._inner, bytes32(uint256(uint160(value))));\\n    }\\n\\n    /**\\n     * @dev Removes all the values from a set. O(n).\\n     *\\n     * WARNING: Developers should keep in mind that this function has an unbounded cost and using it may render the\\n     * function uncallable if the set grows to the point where clearing it consumes too much gas to fit in a block.\\n     */\\n    function clear(AddressSet storage set) internal {\\n        _clear(set._inner);\\n    }\\n\\n    /**\\n     * @dev Returns true if the value is in the set. O(1).\\n     */\\n    function contains(AddressSet storage set, address value) internal view returns (bool) {\\n        return _contains(set._inner, bytes32(uint256(uint160(value))));\\n    }\\n\\n    /**\\n     * @dev Returns the number of values in the set. O(1).\\n     */\\n    function length(AddressSet storage set) internal view returns (uint256) {\\n        return _length(set._inner);\\n    }\\n\\n    /**\\n     * @dev Returns the value stored at position `index` in the set. O(1).\\n     *\\n     * Note that there are no guarantees on the ordering of values inside the\\n     * array, and it may change when more values are added or removed.\\n     *\\n     * Requirements:\\n     *\\n     * - `index` must be strictly less than {length}.\\n     */\\n    function at(AddressSet storage set, uint256 index) internal view returns (address) {\\n        return address(uint160(uint256(_at(set._inner, index))));\\n    }\\n\\n    /**\\n     * @dev Return the entire set in an array\\n     *\\n     * WARNING: This operation will copy the entire storage to memory, which can be quite expensive. This is designed\\n     * to mostly be used by view accessors that are queried without any gas fees. Developers should keep in mind that\\n     * this function has an unbounded cost, and using it as part of a state-changing function may render the function\\n     * uncallable if the set grows to a point where copying to memory consumes too much gas to fit in a block.\\n     */\\n    function values(AddressSet storage set) internal view returns (address[] memory) {\\n        bytes32[] memory store = _values(set._inner);\\n        address[] memory result;\\n\\n        assembly (\\\"memory-safe\\\") {\\n            result := store\\n        }\\n\\n        return result;\\n    }\\n\\n    // UintSet\\n\\n    struct UintSet {\\n        Set _inner;\\n    }\\n\\n    /**\\n     * @dev Add a value to a set. O(1).\\n     *\\n     * Returns true if the value was added to the set, that is if it was not\\n     * already present.\\n     */\\n    function add(UintSet storage set, uint256 value) internal returns (bool) {\\n        return _add(set._inner, bytes32(value));\\n    }\\n\\n    /**\\n     * @dev Removes a value from a set. O(1).\\n     *\\n     * Returns true if the value was removed from the set, that is if it was\\n     * present.\\n     */\\n    function remove(UintSet storage set, uint256 value) internal returns (bool) {\\n        return _remove(set._inner, bytes32(value));\\n    }\\n\\n    /**\\n     * @dev Removes all the values from a set. O(n).\\n     *\\n     * WARNING: Developers should keep in mind that this function has an unbounded cost and using it may render the\\n     * function uncallable if the set grows to the point where clearing it consumes too much gas to fit in a block.\\n     */\\n    function clear(UintSet storage set) internal {\\n        _clear(set._inner);\\n    }\\n\\n    /**\\n     * @dev Returns true if the value is in the set. O(1).\\n     */\\n    function contains(UintSet storage set, uint256 value) internal view returns (bool) {\\n        return _contains(set._inner, bytes32(value));\\n    }\\n\\n    /**\\n     * @dev Returns the number of values in the set. O(1).\\n     */\\n    function length(UintSet storage set) internal view returns (uint256) {\\n        return _length(set._inner);\\n    }\\n\\n    /**\\n     * @dev Returns the value stored at position `index` in the set. O(1).\\n     *\\n     * Note that there are no guarantees on the ordering of values inside the\\n     * array, and it may change when more values are added or removed.\\n     *\\n     * Requirements:\\n     *\\n     * - `index` must be strictly less than {length}.\\n     */\\n    function at(UintSet storage set, uint256 index) internal view returns (uint256) {\\n        return uint256(_at(set._inner, index));\\n    }\\n\\n    /**\\n     * @dev Return the entire set in an array\\n     *\\n     * WARNING: This operation will copy the entire storage to memory, which can be quite expensive. This is designed\\n     * to mostly be used by view accessors that are queried without any gas fees. Developers should keep in mind that\\n     * this function has an unbounded cost, and using it as part of a state-changing function may render the function\\n     * uncallable if the set grows to a point where copying to memory consumes too much gas to fit in a block.\\n     */\\n    function values(UintSet storage set) internal view returns (uint256[] memory) {\\n        bytes32[] memory store = _values(set._inner);\\n        uint256[] memory result;\\n\\n        assembly (\\\"memory-safe\\\") {\\n            result := store\\n        }\\n\\n        return result;\\n    }\\n}\\n\"},\"@iden3/contracts/verifiers/UniversalVerifier.sol\":{\"content\":\"// SPDX-License-Identifier: GPL-3.0\\npragma solidity 0.8.20;\\n\\nimport {Ownable2StepUpgradeable} from \\\"@openzeppelin/contracts-upgradeable/access/Ownable2StepUpgradeable.sol\\\";\\nimport {ICircuitValidator} from \\\"../interfaces/ICircuitValidator.sol\\\";\\nimport {IZKPVerifier} from \\\"../interfaces/IZKPVerifier.sol\\\";\\nimport {RequestOwnership} from \\\"./RequestOwnership.sol\\\";\\nimport {RequestDisableable} from \\\"./RequestDisableable.sol\\\";\\nimport {ValidatorWhitelist} from \\\"./ValidatorWhitelist.sol\\\";\\nimport {ZKPVerifierBase} from \\\"./ZKPVerifierBase.sol\\\";\\nimport {ArrayUtils} from \\\"../lib/ArrayUtils.sol\\\";\\n\\n/// @title Universal Verifier Contract\\n/// @notice A contract to manage ZKP (Zero-Knowledge Proof) requests and proofs.\\ncontract UniversalVerifier is\\n    Ownable2StepUpgradeable,\\n    RequestOwnership,\\n    RequestDisableable,\\n    ValidatorWhitelist\\n{\\n    /**\\n     * @dev Version of contract\\n     */\\n    string public constant VERSION = \\\"1.0.2\\\";\\n\\n    /// @dev Event emitted upon submitting a ZKP request\\n    event ZKPResponseSubmitted(uint64 indexed requestId, address indexed caller);\\n\\n    /// @dev Event emitted upon adding a ZKP request\\n    event ZKPRequestSet(\\n        uint64 indexed requestId,\\n        address indexed requestOwner,\\n        string metadata,\\n        address validator,\\n        bytes data\\n    );\\n\\n    /// @dev Modifier to check if the caller is the contract Owner or ZKP Request Owner\\n    modifier onlyOwnerOrRequestOwner(uint64 requestId) {\\n        address sender = _msgSender();\\n        require(\\n            sender == getRequestOwner(requestId) || sender == owner(),\\n            \\\"Not an owner or request owner\\\"\\n        );\\n        _;\\n    }\\n\\n    /// @dev Initializes the contract\\n    function initialize() public initializer {\\n        __Ownable_init(_msgSender());\\n    }\\n\\n    /// @dev Version of contract getter\\n    function version() public pure returns (string memory) {\\n        return VERSION;\\n    }\\n\\n    /// @dev Sets a ZKP request\\n    /// @param requestId The ID of the ZKP request\\n    /// @param request The ZKP request data\\n    function setZKPRequest(\\n        uint64 requestId,\\n        IZKPVerifier.ZKPRequest calldata request\\n    ) public override(RequestOwnership, ValidatorWhitelist, ZKPVerifierBase) {\\n        super.setZKPRequest(requestId, request);\\n\\n        emit ZKPRequestSet(\\n            requestId,\\n            _msgSender(),\\n            request.metadata,\\n            address(request.validator),\\n            request.data\\n        );\\n    }\\n\\n    /// @dev Submits a ZKP response and updates proof status\\n    /// @param requestId The ID of the ZKP request\\n    /// @param inputs The input data for the proof\\n    /// @param a The first component of the proof\\n    /// @param b The second component of the proof\\n    /// @param c The third component of the proof\\n    function submitZKPResponse(\\n        uint64 requestId,\\n        uint256[] calldata inputs,\\n        uint256[2] calldata a,\\n        uint256[2][2] calldata b,\\n        uint256[2] calldata c\\n    ) public override(RequestDisableable, ValidatorWhitelist, ZKPVerifierBase) {\\n        super.submitZKPResponse(requestId, inputs, a, b, c);\\n        emit ZKPResponseSubmitted(requestId, _msgSender());\\n    }\\n\\n    /// @dev Verifies a ZKP response without updating any proof status\\n    /// @param requestId The ID of the ZKP request\\n    /// @param inputs The public inputs for the proof\\n    /// @param a The first component of the proof\\n    /// @param b The second component of the proof\\n    /// @param c The third component of the proof\\n    /// @param sender The sender on behalf of which the proof is done\\n    function verifyZKPResponse(\\n        uint64 requestId,\\n        uint256[] calldata inputs,\\n        uint256[2] calldata a,\\n        uint256[2][2] calldata b,\\n        uint256[2] calldata c,\\n        address sender\\n    )\\n        public\\n        view\\n        override(RequestDisableable, ValidatorWhitelist, ZKPVerifierBase)\\n        returns (ICircuitValidator.KeyToInputIndex[] memory)\\n    {\\n        return super.verifyZKPResponse(requestId, inputs, a, b, c, sender);\\n    }\\n\\n    /// @dev Sets ZKP Request Owner address\\n    /// @param requestId The ID of the ZKP request\\n    /// @param requestOwner ZKP Request Owner address\\n    function setRequestOwner(\\n        uint64 requestId,\\n        address requestOwner\\n    ) public onlyOwnerOrRequestOwner(requestId) {\\n        _setRequestOwner(requestId, requestOwner);\\n    }\\n\\n    /// @dev Disables ZKP Request\\n    /// @param requestId The ID of the ZKP request\\n    function disableZKPRequest(uint64 requestId) public onlyOwnerOrRequestOwner(requestId) {\\n        _disableZKPRequest(requestId);\\n    }\\n\\n    /// @dev Enables ZKP Request\\n    /// @param requestId The ID of the ZKP request\\n    function enableZKPRequest(uint64 requestId) public onlyOwnerOrRequestOwner(requestId) {\\n        _enableZKPRequest(requestId);\\n    }\\n\\n    /// @dev Add new validator to the whitelist\\n    /// @param validator Validator address\\n    function addValidatorToWhitelist(ICircuitValidator validator) public onlyOwner {\\n        _addValidatorToWhitelist(validator);\\n    }\\n\\n    /// @dev Remove validator from the whitelist\\n    /// @param validator Validator address\\n    function removeValidatorFromWhitelist(ICircuitValidator validator) public onlyOwner {\\n        _removeValidatorFromWhitelist(validator);\\n    }\\n}\\n\"},\"@iden3/contracts/verifiers/EmbeddedZKPVerifier.sol\":{\"content\":\"// SPDX-License-Identifier: GPL-3.0\\npragma solidity 0.8.20;\\n\\nimport {Ownable2StepUpgradeable} from \\\"@openzeppelin/contracts-upgradeable/access/Ownable2StepUpgradeable.sol\\\";\\nimport {GenesisUtils} from \\\"../lib/GenesisUtils.sol\\\";\\nimport {ICircuitValidator} from \\\"../interfaces/ICircuitValidator.sol\\\";\\nimport {IZKPVerifier} from \\\"../interfaces/IZKPVerifier.sol\\\";\\nimport {ZKPVerifierBase} from \\\"./ZKPVerifierBase.sol\\\";\\nimport {ArrayUtils} from \\\"../lib/ArrayUtils.sol\\\";\\n\\nabstract contract EmbeddedZKPVerifier is Ownable2StepUpgradeable, ZKPVerifierBase {\\n    /**\\n     * @dev Sets the value for Owner\\n     */\\n    function __EmbeddedZKPVerifier_init(address initialOwner) internal onlyInitializing {\\n        __Ownable_init(initialOwner);\\n        ___EmbeddedZKPVerifier_init_unchained(initialOwner);\\n    }\\n\\n    function ___EmbeddedZKPVerifier_init_unchained(\\n        address initialOwner\\n    ) internal onlyInitializing {}\\n\\n    /// @dev Sets a ZKP request\\n    /// @param requestId The ID of the ZKP request\\n    /// @param request The ZKP request data\\n    function setZKPRequest(\\n        uint64 requestId,\\n        IZKPVerifier.ZKPRequest calldata request\\n    ) public virtual override onlyOwner {\\n        super.setZKPRequest(requestId, request);\\n    }\\n\\n    /// @dev Submits a ZKP response and updates proof status\\n    /// @param requestId The ID of the ZKP request\\n    /// @param inputs The input data for the proof\\n    /// @param a The first component of the proof\\n    /// @param b The second component of the proof\\n    /// @param c The third component of the proof\\n    function submitZKPResponse(\\n        uint64 requestId,\\n        uint256[] calldata inputs,\\n        uint256[2] calldata a,\\n        uint256[2][2] calldata b,\\n        uint256[2] calldata c\\n    ) public virtual override {\\n        IZKPVerifier.ZKPRequest memory request = getZKPRequest(requestId);\\n        _beforeProofSubmit(requestId, inputs, request.validator);\\n        super.submitZKPResponse(requestId, inputs, a, b, c);\\n        _afterProofSubmit(requestId, inputs, request.validator);\\n    }\\n\\n    /**\\n     * @dev Hook that is called before any proof response submit\\n     */\\n    function _beforeProofSubmit(\\n        uint64 requestId,\\n        uint256[] memory inputs,\\n        ICircuitValidator validator\\n    ) internal virtual {}\\n\\n    /**\\n     * @dev Hook that is called after any proof response submit\\n     */\\n    function _afterProofSubmit(\\n        uint64 requestId,\\n        uint256[] memory inputs,\\n        ICircuitValidator validator\\n    ) internal virtual {}\\n}\\n\"},\"@iden3/contracts/interfaces/ICircuitValidator.sol\":{\"content\":\"// SPDX-License-Identifier: GPL-3.0\\npragma solidity 0.8.20;\\n\\ninterface ICircuitValidator {\\n    struct KeyToInputIndex {\\n        string key;\\n        uint256 inputIndex;\\n    }\\n\\n    function version() external view returns (string memory);\\n\\n    function verify(\\n        uint256[] memory inputs,\\n        uint256[2] memory a,\\n        uint256[2][2] memory b,\\n        uint256[2] memory c,\\n        bytes calldata data,\\n        address sender\\n    ) external view returns (ICircuitValidator.KeyToInputIndex[] memory);\\n\\n    function getSupportedCircuitIds() external view returns (string[] memory ids);\\n\\n    function inputIndexOf(string memory name) external view returns (uint256);\\n}\\n\"},\"@iden3/contracts/lib/PrimitiveTypeUtils.sol\":{\"content\":\"// SPDX-License-Identifier: GPL-3.0\\npragma solidity 0.8.20;\\n\\nimport {BytesLib} from \\\"solidity-bytes-utils/contracts/BytesLib.sol\\\";\\n\\nlibrary PrimitiveTypeUtils {\\n    /**\\n     * @dev uint256ToBytes\\n     */\\n    function uint256ToBytes(uint256 x) internal pure returns (bytes memory b) {\\n        b = new bytes(32);\\n        assembly {\\n            mstore(add(b, 32), x)\\n        }\\n    }\\n\\n    /**\\n     * @dev reverse uint256\\n     */\\n    function reverseUint256(uint256 input) internal pure returns (uint256 v) {\\n        v = input;\\n\\n        // swap bytes\\n        v =\\n            ((v & 0xFF00FF00FF00FF00FF00FF00FF00FF00FF00FF00FF00FF00FF00FF00FF00FF00) >> 8) |\\n            ((v & 0x00FF00FF00FF00FF00FF00FF00FF00FF00FF00FF00FF00FF00FF00FF00FF00FF) << 8);\\n\\n        // swap 2-byte long pairs\\n        v =\\n            ((v & 0xFFFF0000FFFF0000FFFF0000FFFF0000FFFF0000FFFF0000FFFF0000FFFF0000) >> 16) |\\n            ((v & 0x0000FFFF0000FFFF0000FFFF0000FFFF0000FFFF0000FFFF0000FFFF0000FFFF) << 16);\\n\\n        // swap 4-byte long pairs\\n        v =\\n            ((v & 0xFFFFFFFF00000000FFFFFFFF00000000FFFFFFFF00000000FFFFFFFF00000000) >> 32) |\\n            ((v & 0x00000000FFFFFFFF00000000FFFFFFFF00000000FFFFFFFF00000000FFFFFFFF) << 32);\\n\\n        // swap 8-byte long pairs\\n        v =\\n            ((v & 0xFFFFFFFFFFFFFFFF0000000000000000FFFFFFFFFFFFFFFF0000000000000000) >> 64) |\\n            ((v & 0x0000000000000000FFFFFFFFFFFFFFFF0000000000000000FFFFFFFFFFFFFFFF) << 64);\\n\\n        // swap 16-byte long pairs\\n        v = (v >> 128) | (v << 128);\\n    }\\n\\n    /**\\n     * @dev reverse uint16\\n     */\\n    function reverseUint16(uint16 input) internal pure returns (uint16 v) {\\n        v = input;\\n\\n        // swap bytes\\n        v = (v >> 8) | (v << 8);\\n    }\\n\\n    /**\\n     * @dev reverse uint32\\n     */\\n    function reverseUint32(uint32 input) internal pure returns (uint32 v) {\\n        v = input;\\n\\n        // swap bytes\\n        v = ((v & 0xFF00FF00) >> 8) | ((v & 0x00FF00FF) << 8);\\n\\n        // swap 2-byte long pairs\\n        v = (v >> 16) | (v << 16);\\n    }\\n\\n    /**\\n     * @dev compareStrings\\n     */\\n    function compareStrings(string memory a, string memory b) internal pure returns (bool) {\\n        if (bytes(a).length != bytes(b).length) {\\n            return false;\\n        }\\n        return (keccak256(abi.encodePacked((a))) == keccak256(abi.encodePacked((b))));\\n    }\\n\\n    /**\\n     * @dev padRightToUint256 shift left 12 bytes\\n     * @param b, bytes array with max length 32, other bytes are cut. e.g. 0xf39Fd6e51aad88F6F4ce6aB8827279cffFb92266\\n     * @return value e.g 0xf39fd6e51aad88f6f4ce6ab8827279cfffb92266000000000000000000000000\\n     */\\n    function padRightToUint256(bytes memory b) internal pure returns (uint256 value) {\\n        return uint256(bytes32(b));\\n    }\\n\\n    /**\\n     * @dev bytesToAddress\\n     */\\n    function bytesToAddress(bytes memory bys) internal pure returns (address addr) {\\n        assembly {\\n            addr := mload(add(bys, 20))\\n        }\\n    }\\n\\n    /**\\n     * @dev concat\\n     */\\n    function concat(\\n        bytes memory preBytes,\\n        bytes memory postBytes\\n    ) internal pure returns (bytes memory) {\\n        return BytesLib.concat(preBytes, postBytes);\\n    }\\n\\n    /**\\n     * @dev slice\\n     */\\n    function slice(\\n        bytes memory bys,\\n        uint256 start,\\n        uint256 length\\n    ) internal pure returns (bytes memory) {\\n        return BytesLib.slice(bys, start, length);\\n    }\\n\\n    /**\\n     * @dev addressToUint256 converts address to uint256 which lower 20 bytes\\n     * is an address in Big Endian\\n     * @param _addr is ethereum address: eg.0xf39Fd6e51aad88F6F4ce6aB8827279cffFb92266\\n     * which as 0x000000000000000000000000f39fd6e51aad88f6f4ce6ab8827279cfffb92266 converted to uint160\\n     * @return uint256 representation of address 1390849295786071768276380950238675083608645509734\\n     */\\n    function addressToUint256(address _addr) internal pure returns (uint256) {\\n        return uint256(uint160(_addr));\\n    }\\n\\n    /**\\n     * @dev uint256ToAddress converts uint256 which lower 20 bytes\\n     * is an address in Big Endian to address\\n     * @param input uint256 e.g. 1390849295786071768276380950238675083608645509734\\n     * which as 0x000000000000000000000000f39fd6e51aad88f6f4ce6ab8827279cfffb92266 converted to address\\n     * @return address representation of uint256 0xf39Fd6e51aad88F6F4ce6aB8827279cffFb92266\\n     */\\n    function uint256ToAddress(uint256 input) internal pure returns (address) {\\n        require(\\n            input == uint256(uint160(input)),\\n            \\\"given input is not a representation of address, 12 most significant bytes should be zero\\\"\\n        );\\n        return address(uint160(input));\\n    }\\n\\n    /**\\n     * @dev addressToChallenge converts address to uint256 which lower 20 bytes\\n     * are representation of address in LittleEndian\\n     * @param _addr is ethereum address: eg.0xf39Fd6e51aad88F6F4ce6aB8827279cffFb92266\\n     * addressToBytes: 0x000000000000000000000000f39fd6e51aad88f6f4ce6ab8827279cfffb92266\\n     * padRightToUint256: 0xf39fd6e51aad88f6f4ce6ab8827279cfffb92266000000000000000000000000,\\n     * reverseUint256 result: 0x0000000000000000000000006622b9ffcf797282b86acef4f688ad1ae5d69ff3\\n     * @return uint256: 583091486781463398742321306787801699791102451699\\n     */\\n    function addressToUint256LE(address _addr) internal pure returns (uint256) {\\n        return reverseUint256(padRightToUint256(addressToBytes(_addr)));\\n    }\\n\\n    /**\\n     * @dev uint256LEtoAddress - converts uint256 which 20 lower bytes\\n     *      are representation of address in LE to address\\n     * @param input is uint256 which is created from bytes in LittleEndian:\\n     * eg. 583091486781463398742321306787801699791102451699\\n     *  or 0x0000000000000000000000006622b9ffcf797282b86acef4f688ad1ae5d69ff3\\n     * reverseUint256 result: 110194434039389003190498847789203126033799499726478230611233094447786700570624\\n     * uint256ToBytes result: 0xf39fd6e51aad88f6f4ce6ab8827279cfffb92266000000000000000000000000\\n     * @return address - 0xf39Fd6e51aad88F6F4ce6aB8827279cffFb92266\\n     */\\n    function uint256LEToAddress(uint256 input) internal pure returns (address) {\\n        require(\\n            input == uint256(uint160(input)),\\n            \\\"given uint256 is not a representation of an address, 12 most significant bytes should be zero\\\"\\n        );\\n        return bytesToAddress(uint256ToBytes(reverseUint256(input)));\\n    }\\n\\n    function addressToBytes(address a) internal pure returns (bytes memory) {\\n        return abi.encodePacked(a);\\n    }\\n}\\n\"},\"@openzeppelin/contracts/token/ERC1155/ERC1155.sol\":{\"content\":\"// SPDX-License-Identifier: MIT\\n// OpenZeppelin Contracts (last updated v5.1.0) (token/ERC1155/ERC1155.sol)\\n\\npragma solidity ^0.8.20;\\n\\nimport {IERC1155} from \\\"./IERC1155.sol\\\";\\nimport {IERC1155MetadataURI} from \\\"./extensions/IERC1155MetadataURI.sol\\\";\\nimport {ERC1155Utils} from \\\"./utils/ERC1155Utils.sol\\\";\\nimport {Context} from \\\"../../utils/Context.sol\\\";\\nimport {IERC165, ERC165} from \\\"../../utils/introspection/ERC165.sol\\\";\\nimport {Arrays} from \\\"../../utils/Arrays.sol\\\";\\nimport {IERC1155Errors} from \\\"../../interfaces/draft-IERC6093.sol\\\";\\n\\n/**\\n * @dev Implementation of the basic standard multi-token.\\n * See https://eips.ethereum.org/EIPS/eip-1155\\n * Originally based on code by Enjin: https://github.com/enjin/erc-1155\\n */\\nabstract contract ERC1155 is Context, ERC165, IERC1155, IERC1155MetadataURI, IERC1155Errors {\\n    using Arrays for uint256[];\\n    using Arrays for address[];\\n\\n    mapping(uint256 id => mapping(address account => uint256)) private _balances;\\n\\n    mapping(address account => mapping(address operator => bool)) private _operatorApprovals;\\n\\n    // Used as the URI for all token types by relying on ID substitution, e.g. https://token-cdn-domain/{id}.json\\n    string private _uri;\\n\\n    /**\\n     * @dev See {_setURI}.\\n     */\\n    constructor(string memory uri_) {\\n        _setURI(uri_);\\n    }\\n\\n    /**\\n     * @dev See {IERC165-supportsInterface}.\\n     */\\n    function supportsInterface(bytes4 interfaceId) public view virtual override(ERC165, IERC165) returns (bool) {\\n        return\\n            interfaceId == type(IERC1155).interfaceId ||\\n            interfaceId == type(IERC1155MetadataURI).interfaceId ||\\n            super.supportsInterface(interfaceId);\\n    }\\n\\n    /**\\n     * @dev See {IERC1155MetadataURI-uri}.\\n     *\\n     * This implementation returns the same URI for *all* token types. It relies\\n     * on the token type ID substitution mechanism\\n     * https://eips.ethereum.org/EIPS/eip-1155#metadata[defined in the ERC].\\n     *\\n     * Clients calling this function must replace the `\\\\{id\\\\}` substring with the\\n     * actual token type ID.\\n     */\\n    function uri(uint256 /* id */) public view virtual returns (string memory) {\\n        return _uri;\\n    }\\n\\n    /**\\n     * @dev See {IERC1155-balanceOf}.\\n     */\\n    function balanceOf(address account, uint256 id) public view virtual returns (uint256) {\\n        return _balances[id][account];\\n    }\\n\\n    /**\\n     * @dev See {IERC1155-balanceOfBatch}.\\n     *\\n     * Requirements:\\n     *\\n     * - `accounts` and `ids` must have the same length.\\n     */\\n    function balanceOfBatch(\\n        address[] memory accounts,\\n        uint256[] memory ids\\n    ) public view virtual returns (uint256[] memory) {\\n        if (accounts.length != ids.length) {\\n            revert ERC1155InvalidArrayLength(ids.length, accounts.length);\\n        }\\n\\n        uint256[] memory batchBalances = new uint256[](accounts.length);\\n\\n        for (uint256 i = 0; i < accounts.length; ++i) {\\n            batchBalances[i] = balanceOf(accounts.unsafeMemoryAccess(i), ids.unsafeMemoryAccess(i));\\n        }\\n\\n        return batchBalances;\\n    }\\n\\n    /**\\n     * @dev See {IERC1155-setApprovalForAll}.\\n     */\\n    function setApprovalForAll(address operator, bool approved) public virtual {\\n        _setApprovalForAll(_msgSender(), operator, approved);\\n    }\\n\\n    /**\\n     * @dev See {IERC1155-isApprovedForAll}.\\n     */\\n    function isApprovedForAll(address account, address operator) public view virtual returns (bool) {\\n        return _operatorApprovals[account][operator];\\n    }\\n\\n    /**\\n     * @dev See {IERC1155-safeTransferFrom}.\\n     */\\n    function safeTransferFrom(address from, address to, uint256 id, uint256 value, bytes memory data) public virtual {\\n        address sender = _msgSender();\\n        if (from != sender && !isApprovedForAll(from, sender)) {\\n            revert ERC1155MissingApprovalForAll(sender, from);\\n        }\\n        _safeTransferFrom(from, to, id, value, data);\\n    }\\n\\n    /**\\n     * @dev See {IERC1155-safeBatchTransferFrom}.\\n     */\\n    function safeBatchTransferFrom(\\n        address from,\\n        address to,\\n        uint256[] memory ids,\\n        uint256[] memory values,\\n        bytes memory data\\n    ) public virtual {\\n        address sender = _msgSender();\\n        if (from != sender && !isApprovedForAll(from, sender)) {\\n            revert ERC1155MissingApprovalForAll(sender, from);\\n        }\\n        _safeBatchTransferFrom(from, to, ids, values, data);\\n    }\\n\\n    /**\\n     * @dev Transfers a `value` amount of tokens of type `id` from `from` to `to`. Will mint (or burn) if `from`\\n     * (or `to`) is the zero address.\\n     *\\n     * Emits a {TransferSingle} event if the arrays contain one element, and {TransferBatch} otherwise.\\n     *\\n     * Requirements:\\n     *\\n     * - If `to` refers to a smart contract, it must implement either {IERC1155Receiver-onERC1155Received}\\n     *   or {IERC1155Receiver-onERC1155BatchReceived} and return the acceptance magic value.\\n     * - `ids` and `values` must have the same length.\\n     *\\n     * NOTE: The ERC-1155 acceptance check is not performed in this function. See {_updateWithAcceptanceCheck} instead.\\n     */\\n    function _update(address from, address to, uint256[] memory ids, uint256[] memory values) internal virtual {\\n        if (ids.length != values.length) {\\n            revert ERC1155InvalidArrayLength(ids.length, values.length);\\n        }\\n\\n        address operator = _msgSender();\\n\\n        for (uint256 i = 0; i < ids.length; ++i) {\\n            uint256 id = ids.unsafeMemoryAccess(i);\\n            uint256 value = values.unsafeMemoryAccess(i);\\n\\n            if (from != address(0)) {\\n                uint256 fromBalance = _balances[id][from];\\n                if (fromBalance < value) {\\n                    revert ERC1155InsufficientBalance(from, fromBalance, value, id);\\n                }\\n                unchecked {\\n                    // Overflow not possible: value <= fromBalance\\n                    _balances[id][from] = fromBalance - value;\\n                }\\n            }\\n\\n            if (to != address(0)) {\\n                _balances[id][to] += value;\\n            }\\n        }\\n\\n        if (ids.length == 1) {\\n            uint256 id = ids.unsafeMemoryAccess(0);\\n            uint256 value = values.unsafeMemoryAccess(0);\\n            emit TransferSingle(operator, from, to, id, value);\\n        } else {\\n            emit TransferBatch(operator, from, to, ids, values);\\n        }\\n    }\\n\\n    /**\\n     * @dev Version of {_update} that performs the token acceptance check by calling\\n     * {IERC1155Receiver-onERC1155Received} or {IERC1155Receiver-onERC1155BatchReceived} on the receiver address if it\\n     * contains code (eg. is a smart contract at the moment of execution).\\n     *\\n     * IMPORTANT: Overriding this function is discouraged because it poses a reentrancy risk from the receiver. So any\\n     * update to the contract state after this function would break the check-effect-interaction pattern. Consider\\n     * overriding {_update} instead.\\n     */\\n    function _updateWithAcceptanceCheck(\\n        address from,\\n        address to,\\n        uint256[] memory ids,\\n        uint256[] memory values,\\n        bytes memory data\\n    ) internal virtual {\\n        _update(from, to, ids, values);\\n        if (to != address(0)) {\\n            address operator = _msgSender();\\n            if (ids.length == 1) {\\n                uint256 id = ids.unsafeMemoryAccess(0);\\n                uint256 value = values.unsafeMemoryAccess(0);\\n                ERC1155Utils.checkOnERC1155Received(operator, from, to, id, value, data);\\n            } else {\\n                ERC1155Utils.checkOnERC1155BatchReceived(operator, from, to, ids, values, data);\\n            }\\n        }\\n    }\\n\\n    /**\\n     * @dev Transfers a `value` tokens of token type `id` from `from` to `to`.\\n     *\\n     * Emits a {TransferSingle} event.\\n     *\\n     * Requirements:\\n     *\\n     * - `to` cannot be the zero address.\\n     * - `from` must have a balance of tokens of type `id` of at least `value` amount.\\n     * - If `to` refers to a smart contract, it must implement {IERC1155Receiver-onERC1155Received} and return the\\n     * acceptance magic value.\\n     */\\n    function _safeTransferFrom(address from, address to, uint256 id, uint256 value, bytes memory data) internal {\\n        if (to == address(0)) {\\n            revert ERC1155InvalidReceiver(address(0));\\n        }\\n        if (from == address(0)) {\\n            revert ERC1155InvalidSender(address(0));\\n        }\\n        (uint256[] memory ids, uint256[] memory values) = _asSingletonArrays(id, value);\\n        _updateWithAcceptanceCheck(from, to, ids, values, data);\\n    }\\n\\n    /**\\n     * @dev xref:ROOT:erc1155.adoc#batch-operations[Batched] version of {_safeTransferFrom}.\\n     *\\n     * Emits a {TransferBatch} event.\\n     *\\n     * Requirements:\\n     *\\n     * - If `to` refers to a smart contract, it must implement {IERC1155Receiver-onERC1155BatchReceived} and return the\\n     * acceptance magic value.\\n     * - `ids` and `values` must have the same length.\\n     */\\n    function _safeBatchTransferFrom(\\n        address from,\\n        address to,\\n        uint256[] memory ids,\\n        uint256[] memory values,\\n        bytes memory data\\n    ) internal {\\n        if (to == address(0)) {\\n            revert ERC1155InvalidReceiver(address(0));\\n        }\\n        if (from == address(0)) {\\n            revert ERC1155InvalidSender(address(0));\\n        }\\n        _updateWithAcceptanceCheck(from, to, ids, values, data);\\n    }\\n\\n    /**\\n     * @dev Sets a new URI for all token types, by relying on the token type ID\\n     * substitution mechanism\\n     * https://eips.ethereum.org/EIPS/eip-1155#metadata[defined in the ERC].\\n     *\\n     * By this mechanism, any occurrence of the `\\\\{id\\\\}` substring in either the\\n     * URI or any of the values in the JSON file at said URI will be replaced by\\n     * clients with the token type ID.\\n     *\\n     * For example, the `https://token-cdn-domain/\\\\{id\\\\}.json` URI would be\\n     * interpreted by clients as\\n     * `https://token-cdn-domain/000000000000000000000000000000000000000000000000000000000004cce0.json`\\n     * for token type ID 0x4cce0.\\n     *\\n     * See {uri}.\\n     *\\n     * Because these URIs cannot be meaningfully represented by the {URI} event,\\n     * this function emits no events.\\n     */\\n    function _setURI(string memory newuri) internal virtual {\\n        _uri = newuri;\\n    }\\n\\n    /**\\n     * @dev Creates a `value` amount of tokens of type `id`, and assigns them to `to`.\\n     *\\n     * Emits a {TransferSingle} event.\\n     *\\n     * Requirements:\\n     *\\n     * - `to` cannot be the zero address.\\n     * - If `to` refers to a smart contract, it must implement {IERC1155Receiver-onERC1155Received} and return the\\n     * acceptance magic value.\\n     */\\n    function _mint(address to, uint256 id, uint256 value, bytes memory data) internal {\\n        if (to == address(0)) {\\n            revert ERC1155InvalidReceiver(address(0));\\n        }\\n        (uint256[] memory ids, uint256[] memory values) = _asSingletonArrays(id, value);\\n        _updateWithAcceptanceCheck(address(0), to, ids, values, data);\\n    }\\n\\n    /**\\n     * @dev xref:ROOT:erc1155.adoc#batch-operations[Batched] version of {_mint}.\\n     *\\n     * Emits a {TransferBatch} event.\\n     *\\n     * Requirements:\\n     *\\n     * - `ids` and `values` must have the same length.\\n     * - `to` cannot be the zero address.\\n     * - If `to` refers to a smart contract, it must implement {IERC1155Receiver-onERC1155BatchReceived} and return the\\n     * acceptance magic value.\\n     */\\n    function _mintBatch(address to, uint256[] memory ids, uint256[] memory values, bytes memory data) internal {\\n        if (to == address(0)) {\\n            revert ERC1155InvalidReceiver(address(0));\\n        }\\n        _updateWithAcceptanceCheck(address(0), to, ids, values, data);\\n    }\\n\\n    /**\\n     * @dev Destroys a `value` amount of tokens of type `id` from `from`\\n     *\\n     * Emits a {TransferSingle} event.\\n     *\\n     * Requirements:\\n     *\\n     * - `from` cannot be the zero address.\\n     * - `from` must have at least `value` amount of tokens of type `id`.\\n     */\\n    function _burn(address from, uint256 id, uint256 value) internal {\\n        if (from == address(0)) {\\n            revert ERC1155InvalidSender(address(0));\\n        }\\n        (uint256[] memory ids, uint256[] memory values) = _asSingletonArrays(id, value);\\n        _updateWithAcceptanceCheck(from, address(0), ids, values, \\\"\\\");\\n    }\\n\\n    /**\\n     * @dev xref:ROOT:erc1155.adoc#batch-operations[Batched] version of {_burn}.\\n     *\\n     * Emits a {TransferBatch} event.\\n     *\\n     * Requirements:\\n     *\\n     * - `from` cannot be the zero address.\\n     * - `from` must have at least `value` amount of tokens of type `id`.\\n     * - `ids` and `values` must have the same length.\\n     */\\n    function _burnBatch(address from, uint256[] memory ids, uint256[] memory values) internal {\\n        if (from == address(0)) {\\n            revert ERC1155InvalidSender(address(0));\\n        }\\n        _updateWithAcceptanceCheck(from, address(0), ids, values, \\\"\\\");\\n    }\\n\\n    /**\\n     * @dev Approve `operator` to operate on all of `owner` tokens\\n     *\\n     * Emits an {ApprovalForAll} event.\\n     *\\n     * Requirements:\\n     *\\n     * - `operator` cannot be the zero address.\\n     */\\n    function _setApprovalForAll(address owner, address operator, bool approved) internal virtual {\\n        if (operator == address(0)) {\\n            revert ERC1155InvalidOperator(address(0));\\n        }\\n        _operatorApprovals[owner][operator] = approved;\\n        emit ApprovalForAll(owner, operator, approved);\\n    }\\n\\n    /**\\n     * @dev Creates an array in memory with only one value for each of the elements provided.\\n     */\\n    function _asSingletonArrays(\\n        uint256 element1,\\n        uint256 element2\\n    ) private pure returns (uint256[] memory array1, uint256[] memory array2) {\\n        assembly (\\\"memory-safe\\\") {\\n            // Load the free memory pointer\\n            array1 := mload(0x40)\\n            // Set array length to 1\\n            mstore(array1, 1)\\n            // Store the single element at the next word after the length (where content starts)\\n            mstore(add(array1, 0x20), element1)\\n\\n            // Repeat for next array locating it right after the first array\\n            array2 := add(array1, 0x40)\\n            mstore(array2, 1)\\n            mstore(add(array2, 0x20), element2)\\n\\n            // Update the free memory pointer by pointing after the second array\\n            mstore(0x40, add(array2, 0x40))\\n        }\\n    }\\n}\\n\"},\"@openzeppelin/contracts/access/Ownable.sol\":{\"content\":\"// SPDX-License-Identifier: MIT\\n// OpenZeppelin Contracts (last updated v5.0.0) (access/Ownable.sol)\\n\\npragma solidity ^0.8.20;\\n\\nimport {Context} from \\\"../utils/Context.sol\\\";\\n\\n/**\\n * @dev Contract module which provides a basic access control mechanism, where\\n * there is an account (an owner) that can be granted exclusive access to\\n * specific functions.\\n *\\n * The initial owner is set to the address provided by the deployer. This can\\n * later be changed with {transferOwnership}.\\n *\\n * This module is used through inheritance. It will make available the modifier\\n * `onlyOwner`, which can be applied to your functions to restrict their use to\\n * the owner.\\n */\\nabstract contract Ownable is Context {\\n    address private _owner;\\n\\n    /**\\n     * @dev The caller account is not authorized to perform an operation.\\n     */\\n    error OwnableUnauthorizedAccount(address account);\\n\\n    /**\\n     * @dev The owner is not a valid owner account. (eg. `address(0)`)\\n     */\\n    error OwnableInvalidOwner(address owner);\\n\\n    event OwnershipTransferred(address indexed previousOwner, address indexed newOwner);\\n\\n    /**\\n     * @dev Initializes the contract setting the address provided by the deployer as the initial owner.\\n     */\\n    constructor(address initialOwner) {\\n        if (initialOwner == address(0)) {\\n            revert OwnableInvalidOwner(address(0));\\n        }\\n        _transferOwnership(initialOwner);\\n    }\\n\\n    /**\\n     * @dev Throws if called by any account other than the owner.\\n     */\\n    modifier onlyOwner() {\\n        _checkOwner();\\n        _;\\n    }\\n\\n    /**\\n     * @dev Returns the address of the current owner.\\n     */\\n    function owner() public view virtual returns (address) {\\n        return _owner;\\n    }\\n\\n    /**\\n     * @dev Throws if the sender is not the owner.\\n     */\\n    function _checkOwner() internal view virtual {\\n        if (owner() != _msgSender()) {\\n            revert OwnableUnauthorizedAccount(_msgSender());\\n        }\\n    }\\n\\n    /**\\n     * @dev Leaves the contract without owner. It will not be possible to call\\n     * `onlyOwner` functions. Can only be called by the current owner.\\n     *\\n     * NOTE: Renouncing ownership will leave the contract without an owner,\\n     * thereby disabling any functionality that is only available to the owner.\\n     */\\n    function renounceOwnership() public virtual onlyOwner {\\n        _transferOwnership(address(0));\\n    }\\n\\n    /**\\n     * @dev Transfers ownership of the contract to a new account (`newOwner`).\\n     * Can only be called by the current owner.\\n     */\\n    function transferOwnership(address newOwner) public virtual onlyOwner {\\n        if (newOwner == address(0)) {\\n            revert OwnableInvalidOwner(address(0));\\n        }\\n        _transferOwnership(newOwner);\\n    }\\n\\n    /**\\n     * @dev Transfers ownership of the contract to a new account (`newOwner`).\\n     * Internal function without access restriction.\\n     */\\n    function _transferOwnership(address newOwner) internal virtual {\\n        address oldOwner = _owner;\\n        _owner = newOwner;\\n        emit OwnershipTransferred(oldOwner, newOwner);\\n    }\\n}\\n\"},\"@openzeppelin/contracts/utils/Arrays.sol\":{\"content\":\"// SPDX-License-Identifier: MIT\\n// OpenZeppelin Contracts (last updated v5.3.0) (utils/Arrays.sol)\\n// This file was procedurally generated from scripts/generate/templates/Arrays.js.\\n\\npragma solidity ^0.8.20;\\n\\nimport {Comparators} from \\\"./Comparators.sol\\\";\\nimport {SlotDerivation} from \\\"./SlotDerivation.sol\\\";\\nimport {StorageSlot} from \\\"./StorageSlot.sol\\\";\\nimport {Math} from \\\"./math/Math.sol\\\";\\n\\n/**\\n * @dev Collection of functions related to array types.\\n */\\nlibrary Arrays {\\n    using SlotDerivation for bytes32;\\n    using StorageSlot for bytes32;\\n\\n    /**\\n     * @dev Sort an array of uint256 (in memory) following the provided comparator function.\\n     *\\n     * This function does the sorting \\\"in place\\\", meaning that it overrides the input. The object is returned for\\n     * convenience, but that returned value can be discarded safely if the caller has a memory pointer to the array.\\n     *\\n     * NOTE: this function's cost is `O(n · log(n))` in average and `O(n²)` in the worst case, with n the length of the\\n     * array. Using it in view functions that are executed through `eth_call` is safe, but one should be very careful\\n     * when executing this as part of a transaction. If the array being sorted is too large, the sort operation may\\n     * consume more gas than is available in a block, leading to potential DoS.\\n     *\\n     * IMPORTANT: Consider memory side-effects when using custom comparator functions that access memory in an unsafe way.\\n     */\\n    function sort(\\n        uint256[] memory array,\\n        function(uint256, uint256) pure returns (bool) comp\\n    ) internal pure returns (uint256[] memory) {\\n        _quickSort(_begin(array), _end(array), comp);\\n        return array;\\n    }\\n\\n    /**\\n     * @dev Variant of {sort} that sorts an array of uint256 in increasing order.\\n     */\\n    function sort(uint256[] memory array) internal pure returns (uint256[] memory) {\\n        sort(array, Comparators.lt);\\n        return array;\\n    }\\n\\n    /**\\n     * @dev Sort an array of address (in memory) following the provided comparator function.\\n     *\\n     * This function does the sorting \\\"in place\\\", meaning that it overrides the input. The object is returned for\\n     * convenience, but that returned value can be discarded safely if the caller has a memory pointer to the array.\\n     *\\n     * NOTE: this function's cost is `O(n · log(n))` in average and `O(n²)` in the worst case, with n the length of the\\n     * array. Using it in view functions that are executed through `eth_call` is safe, but one should be very careful\\n     * when executing this as part of a transaction. If the array being sorted is too large, the sort operation may\\n     * consume more gas than is available in a block, leading to potential DoS.\\n     *\\n     * IMPORTANT: Consider memory side-effects when using custom comparator functions that access memory in an unsafe way.\\n     */\\n    function sort(\\n        address[] memory array,\\n        function(address, address) pure returns (bool) comp\\n    ) internal pure returns (address[] memory) {\\n        sort(_castToUint256Array(array), _castToUint256Comp(comp));\\n        return array;\\n    }\\n\\n    /**\\n     * @dev Variant of {sort} that sorts an array of address in increasing order.\\n     */\\n    function sort(address[] memory array) internal pure returns (address[] memory) {\\n        sort(_castToUint256Array(array), Comparators.lt);\\n        return array;\\n    }\\n\\n    /**\\n     * @dev Sort an array of bytes32 (in memory) following the provided comparator function.\\n     *\\n     * This function does the sorting \\\"in place\\\", meaning that it overrides the input. The object is returned for\\n     * convenience, but that returned value can be discarded safely if the caller has a memory pointer to the array.\\n     *\\n     * NOTE: this function's cost is `O(n · log(n))` in average and `O(n²)` in the worst case, with n the length of the\\n     * array. Using it in view functions that are executed through `eth_call` is safe, but one should be very careful\\n     * when executing this as part of a transaction. If the array being sorted is too large, the sort operation may\\n     * consume more gas than is available in a block, leading to potential DoS.\\n     *\\n     * IMPORTANT: Consider memory side-effects when using custom comparator functions that access memory in an unsafe way.\\n     */\\n    function sort(\\n        bytes32[] memory array,\\n        function(bytes32, bytes32) pure returns (bool) comp\\n    ) internal pure returns (bytes32[] memory) {\\n        sort(_castToUint256Array(array), _castToUint256Comp(comp));\\n        return array;\\n    }\\n\\n    /**\\n     * @dev Variant of {sort} that sorts an array of bytes32 in increasing order.\\n     */\\n    function sort(bytes32[] memory array) internal pure returns (bytes32[] memory) {\\n        sort(_castToUint256Array(array), Comparators.lt);\\n        return array;\\n    }\\n\\n    /**\\n     * @dev Performs a quick sort of a segment of memory. The segment sorted starts at `begin` (inclusive), and stops\\n     * at end (exclusive). Sorting follows the `comp` comparator.\\n     *\\n     * Invariant: `begin <= end`. This is the case when initially called by {sort} and is preserved in subcalls.\\n     *\\n     * IMPORTANT: Memory locations between `begin` and `end` are not validated/zeroed. This function should\\n     * be used only if the limits are within a memory array.\\n     */\\n    function _quickSort(uint256 begin, uint256 end, function(uint256, uint256) pure returns (bool) comp) private pure {\\n        unchecked {\\n            if (end - begin < 0x40) return;\\n\\n            // Use first element as pivot\\n            uint256 pivot = _mload(begin);\\n            // Position where the pivot should be at the end of the loop\\n            uint256 pos = begin;\\n\\n            for (uint256 it = begin + 0x20; it < end; it += 0x20) {\\n                if (comp(_mload(it), pivot)) {\\n                    // If the value stored at the iterator's position comes before the pivot, we increment the\\n                    // position of the pivot and move the value there.\\n                    pos += 0x20;\\n                    _swap(pos, it);\\n                }\\n            }\\n\\n            _swap(begin, pos); // Swap pivot into place\\n            _quickSort(begin, pos, comp); // Sort the left side of the pivot\\n            _quickSort(pos + 0x20, end, comp); // Sort the right side of the pivot\\n        }\\n    }\\n\\n    /**\\n     * @dev Pointer to the memory location of the first element of `array`.\\n     */\\n    function _begin(uint256[] memory array) private pure returns (uint256 ptr) {\\n        assembly (\\\"memory-safe\\\") {\\n            ptr := add(array, 0x20)\\n        }\\n    }\\n\\n    /**\\n     * @dev Pointer to the memory location of the first memory word (32bytes) after `array`. This is the memory word\\n     * that comes just after the last element of the array.\\n     */\\n    function _end(uint256[] memory array) private pure returns (uint256 ptr) {\\n        unchecked {\\n            return _begin(array) + array.length * 0x20;\\n        }\\n    }\\n\\n    /**\\n     * @dev Load memory word (as a uint256) at location `ptr`.\\n     */\\n    function _mload(uint256 ptr) private pure returns (uint256 value) {\\n        assembly {\\n            value := mload(ptr)\\n        }\\n    }\\n\\n    /**\\n     * @dev Swaps the elements memory location `ptr1` and `ptr2`.\\n     */\\n    function _swap(uint256 ptr1, uint256 ptr2) private pure {\\n        assembly {\\n            let value1 := mload(ptr1)\\n            let value2 := mload(ptr2)\\n            mstore(ptr1, value2)\\n            mstore(ptr2, value1)\\n        }\\n    }\\n\\n    /// @dev Helper: low level cast address memory array to uint256 memory array\\n    function _castToUint256Array(address[] memory input) private pure returns (uint256[] memory output) {\\n        assembly {\\n            output := input\\n        }\\n    }\\n\\n    /// @dev Helper: low level cast bytes32 memory array to uint256 memory array\\n    function _castToUint256Array(bytes32[] memory input) private pure returns (uint256[] memory output) {\\n        assembly {\\n            output := input\\n        }\\n    }\\n\\n    /// @dev Helper: low level cast address comp function to uint256 comp function\\n    function _castToUint256Comp(\\n        function(address, address) pure returns (bool) input\\n    ) private pure returns (function(uint256, uint256) pure returns (bool) output) {\\n        assembly {\\n            output := input\\n        }\\n    }\\n\\n    /// @dev Helper: low level cast bytes32 comp function to uint256 comp function\\n    function _castToUint256Comp(\\n        function(bytes32, bytes32) pure returns (bool) input\\n    ) private pure returns (function(uint256, uint256) pure returns (bool) output) {\\n        assembly {\\n            output := input\\n        }\\n    }\\n\\n    /**\\n     * @dev Searches a sorted `array` and returns the first index that contains\\n     * a value greater or equal to `element`. If no such index exists (i.e. all\\n     * values in the array are strictly less than `element`), the array length is\\n     * returned. Time complexity O(log n).\\n     *\\n     * NOTE: The `array` is expected to be sorted in ascending order, and to\\n     * contain no repeated elements.\\n     *\\n     * IMPORTANT: Deprecated. This implementation behaves as {lowerBound} but lacks\\n     * support for repeated elements in the array. The {lowerBound} function should\\n     * be used instead.\\n     */\\n    function findUpperBound(uint256[] storage array, uint256 element) internal view returns (uint256) {\\n        uint256 low = 0;\\n        uint256 high = array.length;\\n\\n        if (high == 0) {\\n            return 0;\\n        }\\n\\n        while (low < high) {\\n            uint256 mid = Math.average(low, high);\\n\\n            // Note that mid will always be strictly less than high (i.e. it will be a valid array index)\\n            // because Math.average rounds towards zero (it does integer division with truncation).\\n            if (unsafeAccess(array, mid).value > element) {\\n                high = mid;\\n            } else {\\n                low = mid + 1;\\n            }\\n        }\\n\\n        // At this point `low` is the exclusive upper bound. We will return the inclusive upper bound.\\n        if (low > 0 && unsafeAccess(array, low - 1).value == element) {\\n            return low - 1;\\n        } else {\\n            return low;\\n        }\\n    }\\n\\n    /**\\n     * @dev Searches an `array` sorted in ascending order and returns the first\\n     * index that contains a value greater or equal than `element`. If no such index\\n     * exists (i.e. all values in the array are strictly less than `element`), the array\\n     * length is returned. Time complexity O(log n).\\n     *\\n     * See C++'s https://en.cppreference.com/w/cpp/algorithm/lower_bound[lower_bound].\\n     */\\n    function lowerBound(uint256[] storage array, uint256 element) internal view returns (uint256) {\\n        uint256 low = 0;\\n        uint256 high = array.length;\\n\\n        if (high == 0) {\\n            return 0;\\n        }\\n\\n        while (low < high) {\\n            uint256 mid = Math.average(low, high);\\n\\n            // Note that mid will always be strictly less than high (i.e. it will be a valid array index)\\n            // because Math.average rounds towards zero (it does integer division with truncation).\\n            if (unsafeAccess(array, mid).value < element) {\\n                // this cannot overflow because mid < high\\n                unchecked {\\n                    low = mid + 1;\\n                }\\n            } else {\\n                high = mid;\\n            }\\n        }\\n\\n        return low;\\n    }\\n\\n    /**\\n     * @dev Searches an `array` sorted in ascending order and returns the first\\n     * index that contains a value strictly greater than `element`. If no such index\\n     * exists (i.e. all values in the array are strictly less than `element`), the array\\n     * length is returned. Time complexity O(log n).\\n     *\\n     * See C++'s https://en.cppreference.com/w/cpp/algorithm/upper_bound[upper_bound].\\n     */\\n    function upperBound(uint256[] storage array, uint256 element) internal view returns (uint256) {\\n        uint256 low = 0;\\n        uint256 high = array.length;\\n\\n        if (high == 0) {\\n            return 0;\\n        }\\n\\n        while (low < high) {\\n            uint256 mid = Math.average(low, high);\\n\\n            // Note that mid will always be strictly less than high (i.e. it will be a valid array index)\\n            // because Math.average rounds towards zero (it does integer division with truncation).\\n            if (unsafeAccess(array, mid).value > element) {\\n                high = mid;\\n            } else {\\n                // this cannot overflow because mid < high\\n                unchecked {\\n                    low = mid + 1;\\n                }\\n            }\\n        }\\n\\n        return low;\\n    }\\n\\n    /**\\n     * @dev Same as {lowerBound}, but with an array in memory.\\n     */\\n    function lowerBoundMemory(uint256[] memory array, uint256 element) internal pure returns (uint256) {\\n        uint256 low = 0;\\n        uint256 high = array.length;\\n\\n        if (high == 0) {\\n            return 0;\\n        }\\n\\n        while (low < high) {\\n            uint256 mid = Math.average(low, high);\\n\\n            // Note that mid will always be strictly less than high (i.e. it will be a valid array index)\\n            // because Math.average rounds towards zero (it does integer division with truncation).\\n            if (unsafeMemoryAccess(array, mid) < element) {\\n                // this cannot overflow because mid < high\\n                unchecked {\\n                    low = mid + 1;\\n                }\\n            } else {\\n                high = mid;\\n            }\\n        }\\n\\n        return low;\\n    }\\n\\n    /**\\n     * @dev Same as {upperBound}, but with an array in memory.\\n     */\\n    function upperBoundMemory(uint256[] memory array, uint256 element) internal pure returns (uint256) {\\n        uint256 low = 0;\\n        uint256 high = array.length;\\n\\n        if (high == 0) {\\n            return 0;\\n        }\\n\\n        while (low < high) {\\n            uint256 mid = Math.average(low, high);\\n\\n            // Note that mid will always be strictly less than high (i.e. it will be a valid array index)\\n            // because Math.average rounds towards zero (it does integer division with truncation).\\n            if (unsafeMemoryAccess(array, mid) > element) {\\n                high = mid;\\n            } else {\\n                // this cannot overflow because mid < high\\n                unchecked {\\n                    low = mid + 1;\\n                }\\n            }\\n        }\\n\\n        return low;\\n    }\\n\\n    /**\\n     * @dev Access an array in an \\\"unsafe\\\" way. Skips solidity \\\"index-out-of-range\\\" check.\\n     *\\n     * WARNING: Only use if you are certain `pos` is lower than the array length.\\n     */\\n    function unsafeAccess(address[] storage arr, uint256 pos) internal pure returns (StorageSlot.AddressSlot storage) {\\n        bytes32 slot;\\n        assembly (\\\"memory-safe\\\") {\\n            slot := arr.slot\\n        }\\n        return slot.deriveArray().offset(pos).getAddressSlot();\\n    }\\n\\n    /**\\n     * @dev Access an array in an \\\"unsafe\\\" way. Skips solidity \\\"index-out-of-range\\\" check.\\n     *\\n     * WARNING: Only use if you are certain `pos` is lower than the array length.\\n     */\\n    function unsafeAccess(bytes32[] storage arr, uint256 pos) internal pure returns (StorageSlot.Bytes32Slot storage) {\\n        bytes32 slot;\\n        assembly (\\\"memory-safe\\\") {\\n            slot := arr.slot\\n        }\\n        return slot.deriveArray().offset(pos).getBytes32Slot();\\n    }\\n\\n    /**\\n     * @dev Access an array in an \\\"unsafe\\\" way. Skips solidity \\\"index-out-of-range\\\" check.\\n     *\\n     * WARNING: Only use if you are certain `pos` is lower than the array length.\\n     */\\n    function unsafeAccess(uint256[] storage arr, uint256 pos) internal pure returns (StorageSlot.Uint256Slot storage) {\\n        bytes32 slot;\\n        assembly (\\\"memory-safe\\\") {\\n            slot := arr.slot\\n        }\\n        return slot.deriveArray().offset(pos).getUint256Slot();\\n    }\\n\\n    /**\\n     * @dev Access an array in an \\\"unsafe\\\" way. Skips solidity \\\"index-out-of-range\\\" check.\\n     *\\n     * WARNING: Only use if you are certain `pos` is lower than the array length.\\n     */\\n    function unsafeMemoryAccess(address[] memory arr, uint256 pos) internal pure returns (address res) {\\n        assembly {\\n            res := mload(add(add(arr, 0x20), mul(pos, 0x20)))\\n        }\\n    }\\n\\n    /**\\n     * @dev Access an array in an \\\"unsafe\\\" way. Skips solidity \\\"index-out-of-range\\\" check.\\n     *\\n     * WARNING: Only use if you are certain `pos` is lower than the array length.\\n     */\\n    function unsafeMemoryAccess(bytes32[] memory arr, uint256 pos) internal pure returns (bytes32 res) {\\n        assembly {\\n            res := mload(add(add(arr, 0x20), mul(pos, 0x20)))\\n        }\\n    }\\n\\n    /**\\n     * @dev Access an array in an \\\"unsafe\\\" way. Skips solidity \\\"index-out-of-range\\\" check.\\n     *\\n     * WARNING: Only use if you are certain `pos` is lower than the array length.\\n     */\\n    function unsafeMemoryAccess(uint256[] memory arr, uint256 pos) internal pure returns (uint256 res) {\\n        assembly {\\n            res := mload(add(add(arr, 0x20), mul(pos, 0x20)))\\n        }\\n    }\\n\\n    /**\\n     * @dev Helper to set the length of a dynamic array. Directly writing to `.length` is forbidden.\\n     *\\n     * WARNING: this does not clear elements if length is reduced, of initialize elements if length is increased.\\n     */\\n    function unsafeSetLength(address[] storage array, uint256 len) internal {\\n        assembly (\\\"memory-safe\\\") {\\n            sstore(array.slot, len)\\n        }\\n    }\\n\\n    /**\\n     * @dev Helper to set the length of a dynamic array. Directly writing to `.length` is forbidden.\\n     *\\n     * WARNING: this does not clear elements if length is reduced, of initialize elements if length is increased.\\n     */\\n    function unsafeSetLength(bytes32[] storage array, uint256 len) internal {\\n        assembly (\\\"memory-safe\\\") {\\n            sstore(array.slot, len)\\n        }\\n    }\\n\\n    /**\\n     * @dev Helper to set the length of a dynamic array. Directly writing to `.length` is forbidden.\\n     *\\n     * WARNING: this does not clear elements if length is reduced, of initialize elements if length is increased.\\n     */\\n    function unsafeSetLength(uint256[] storage array, uint256 len) internal {\\n        assembly (\\\"memory-safe\\\") {\\n            sstore(array.slot, len)\\n        }\\n    }\\n}\\n\"},\"@openzeppelin/contracts/interfaces/draft-IERC6093.sol\":{\"content\":\"// SPDX-License-Identifier: MIT\\n// OpenZeppelin Contracts (last updated v5.1.0) (interfaces/draft-IERC6093.sol)\\npragma solidity ^0.8.20;\\n\\n/**\\n * @dev Standard ERC-20 Errors\\n * Interface of the https://eips.ethereum.org/EIPS/eip-6093[ERC-6093] custom errors for ERC-20 tokens.\\n */\\ninterface IERC20Errors {\\n    /**\\n     * @dev Indicates an error related to the current `balance` of a `sender`. Used in transfers.\\n     * @param sender Address whose tokens are being transferred.\\n     * @param balance Current balance for the interacting account.\\n     * @param needed Minimum amount required to perform a transfer.\\n     */\\n    error ERC20InsufficientBalance(address sender, uint256 balance, uint256 needed);\\n\\n    /**\\n     * @dev Indicates a failure with the token `sender`. Used in transfers.\\n     * @param sender Address whose tokens are being transferred.\\n     */\\n    error ERC20InvalidSender(address sender);\\n\\n    /**\\n     * @dev Indicates a failure with the token `receiver`. Used in transfers.\\n     * @param receiver Address to which tokens are being transferred.\\n     */\\n    error ERC20InvalidReceiver(address receiver);\\n\\n    /**\\n     * @dev Indicates a failure with the `spender`’s `allowance`. Used in transfers.\\n     * @param spender Address that may be allowed to operate on tokens without being their owner.\\n     * @param allowance Amount of tokens a `spender` is allowed to operate with.\\n     * @param needed Minimum amount required to perform a transfer.\\n     */\\n    error ERC20InsufficientAllowance(address spender, uint256 allowance, uint256 needed);\\n\\n    /**\\n     * @dev Indicates a failure with the `approver` of a token to be approved. Used in approvals.\\n     * @param approver Address initiating an approval operation.\\n     */\\n    error ERC20InvalidApprover(address approver);\\n\\n    /**\\n     * @dev Indicates a failure with the `spender` to be approved. Used in approvals.\\n     * @param spender Address that may be allowed to operate on tokens without being their owner.\\n     */\\n    error ERC20InvalidSpender(address spender);\\n}\\n\\n/**\\n * @dev Standard ERC-721 Errors\\n * Interface of the https://eips.ethereum.org/EIPS/eip-6093[ERC-6093] custom errors for ERC-721 tokens.\\n */\\ninterface IERC721Errors {\\n    /**\\n     * @dev Indicates that an address can't be an owner. For example, `address(0)` is a forbidden owner in ERC-20.\\n     * Used in balance queries.\\n     * @param owner Address of the current owner of a token.\\n     */\\n    error ERC721InvalidOwner(address owner);\\n\\n    /**\\n     * @dev Indicates a `tokenId` whose `owner` is the zero address.\\n     * @param tokenId Identifier number of a token.\\n     */\\n    error ERC721NonexistentToken(uint256 tokenId);\\n\\n    /**\\n     * @dev Indicates an error related to the ownership over a particular token. Used in transfers.\\n     * @param sender Address whose tokens are being transferred.\\n     * @param tokenId Identifier number of a token.\\n     * @param owner Address of the current owner of a token.\\n     */\\n    error ERC721IncorrectOwner(address sender, uint256 tokenId, address owner);\\n\\n    /**\\n     * @dev Indicates a failure with the token `sender`. Used in transfers.\\n     * @param sender Address whose tokens are being transferred.\\n     */\\n    error ERC721InvalidSender(address sender);\\n\\n    /**\\n     * @dev Indicates a failure with the token `receiver`. Used in transfers.\\n     * @param receiver Address to which tokens are being transferred.\\n     */\\n    error ERC721InvalidReceiver(address receiver);\\n\\n    /**\\n     * @dev Indicates a failure with the `operator`’s approval. Used in transfers.\\n     * @param operator Address that may be allowed to operate on tokens without being their owner.\\n     * @param tokenId Identifier number of a token.\\n     */\\n    error ERC721InsufficientApproval(address operator, uint256 tokenId);\\n\\n    /**\\n     * @dev Indicates a failure with the `approver` of a token to be approved. Used in approvals.\\n     * @param approver Address initiating an approval operation.\\n     */\\n    error ERC721InvalidApprover(address approver);\\n\\n    /**\\n     * @dev Indicates a failure with the `operator` to be approved. Used in approvals.\\n     * @param operator Address that may be allowed to operate on tokens without being their owner.\\n     */\\n    error ERC721InvalidOperator(address operator);\\n}\\n\\n/**\\n * @dev Standard ERC-1155 Errors\\n * Interface of the https://eips.ethereum.org/EIPS/eip-6093[ERC-6093] custom errors for ERC-1155 tokens.\\n */\\ninterface IERC1155Errors {\\n    /**\\n     * @dev Indicates an error related to the current `balance` of a `sender`. Used in transfers.\\n     * @param sender Address whose tokens are being transferred.\\n     * @param balance Current balance for the interacting account.\\n     * @param needed Minimum amount required to perform a transfer.\\n     * @param tokenId Identifier number of a token.\\n     */\\n    error ERC1155InsufficientBalance(address sender, uint256 balance, uint256 needed, uint256 tokenId);\\n\\n    /**\\n     * @dev Indicates a failure with the token `sender`. Used in transfers.\\n     * @param sender Address whose tokens are being transferred.\\n     */\\n    error ERC1155InvalidSender(address sender);\\n\\n    /**\\n     * @dev Indicates a failure with the token `receiver`. Used in transfers.\\n     * @param receiver Address to which tokens are being transferred.\\n     */\\n    error ERC1155InvalidReceiver(address receiver);\\n\\n    /**\\n     * @dev Indicates a failure with the `operator`’s approval. Used in transfers.\\n     * @param operator Address that may be allowed to operate on tokens without being their owner.\\n     * @param owner Address of the current owner of a token.\\n     */\\n    error ERC1155MissingApprovalForAll(address operator, address owner);\\n\\n    /**\\n     * @dev Indicates a failure with the `approver` of a token to be approved. Used in approvals.\\n     * @param approver Address initiating an approval operation.\\n     */\\n    error ERC1155InvalidApprover(address approver);\\n\\n    /**\\n     * @dev Indicates a failure with the `operator` to be approved. Used in approvals.\\n     * @param operator Address that may be allowed to operate on tokens without being their owner.\\n     */\\n    error ERC1155InvalidOperator(address operator);\\n\\n    /**\\n     * @dev Indicates an array length mismatch between ids and values in a safeBatchTransferFrom operation.\\n     * Used in batch transfers.\\n     * @param idsLength Length of the array of token identifiers\\n     * @param valuesLength Length of the array of token amounts\\n     */\\n    error ERC1155InvalidArrayLength(uint256 idsLength, uint256 valuesLength);\\n}\\n\"},\"@openzeppelin/contracts/utils/introspection/ERC165.sol\":{\"content\":\"// SPDX-License-Identifier: MIT\\n// OpenZeppelin Contracts (last updated v5.1.0) (utils/introspection/ERC165.sol)\\n\\npragma solidity ^0.8.20;\\n\\nimport {IERC165} from \\\"./IERC165.sol\\\";\\n\\n/**\\n * @dev Implementation of the {IERC165} interface.\\n *\\n * Contracts that want to implement ERC-165 should inherit from this contract and override {supportsInterface} to check\\n * for the additional interface id that will be supported. For example:\\n *\\n * ```solidity\\n * function supportsInterface(bytes4 interfaceId) public view virtual override returns (bool) {\\n *     return interfaceId == type(MyInterface).interfaceId || super.supportsInterface(interfaceId);\\n * }\\n * ```\\n */\\nabstract contract ERC165 is IERC165 {\\n    /**\\n     * @dev See {IERC165-supportsInterface}.\\n     */\\n    function supportsInterface(bytes4 interfaceId) public view virtual returns (bool) {\\n        return interfaceId == type(IERC165).interfaceId;\\n    }\\n}\\n\"},\"@openzeppelin/contracts/utils/Context.sol\":{\"content\":\"// SPDX-License-Identifier: MIT\\n// OpenZeppelin Contracts (last updated v5.0.1) (utils/Context.sol)\\n\\npragma solidity ^0.8.20;\\n\\n/**\\n * @dev Provides information about the current execution context, including the\\n * sender of the transaction and its data. While these are generally available\\n * via msg.sender and msg.data, they should not be accessed in such a direct\\n * manner, since when dealing with meta-transactions the account sending and\\n * paying for execution may not be the actual sender (as far as an application\\n * is concerned).\\n *\\n * This contract is only required for intermediate, library-like contracts.\\n */\\nabstract contract Context {\\n    function _msgSender() internal view virtual returns (address) {\\n        return msg.sender;\\n    }\\n\\n    function _msgData() internal view virtual returns (bytes calldata) {\\n        return msg.data;\\n    }\\n\\n    function _contextSuffixLength() internal view virtual returns (uint256) {\\n        return 0;\\n    }\\n}\\n\"},\"@openzeppelin/contracts/token/ERC1155/utils/ERC1155Utils.sol\":{\"content\":\"// SPDX-License-Identifier: MIT\\n// OpenZeppelin Contracts (last updated v5.3.0) (token/ERC1155/utils/ERC1155Utils.sol)\\n\\npragma solidity ^0.8.20;\\n\\nimport {IERC1155Receiver} from \\\"../IERC1155Receiver.sol\\\";\\nimport {IERC1155Errors} from \\\"../../../interfaces/draft-IERC6093.sol\\\";\\n\\n/**\\n * @dev Library that provide common ERC-1155 utility functions.\\n *\\n * See https://eips.ethereum.org/EIPS/eip-1155[ERC-1155].\\n *\\n * _Available since v5.1._\\n */\\nlibrary ERC1155Utils {\\n    /**\\n     * @dev Performs an acceptance check for the provided `operator` by calling {IERC1155Receiver-onERC1155Received}\\n     * on the `to` address. The `operator` is generally the address that initiated the token transfer (i.e. `msg.sender`).\\n     *\\n     * The acceptance call is not executed and treated as a no-op if the target address doesn't contain code (i.e. an EOA).\\n     * Otherwise, the recipient must implement {IERC1155Receiver-onERC1155Received} and return the acceptance magic value to accept\\n     * the transfer.\\n     */\\n    function checkOnERC1155Received(\\n        address operator,\\n        address from,\\n        address to,\\n        uint256 id,\\n        uint256 value,\\n        bytes memory data\\n    ) internal {\\n        if (to.code.length > 0) {\\n            try IERC1155Receiver(to).onERC1155Received(operator, from, id, value, data) returns (bytes4 response) {\\n                if (response != IERC1155Receiver.onERC1155Received.selector) {\\n                    // Tokens rejected\\n                    revert IERC1155Errors.ERC1155InvalidReceiver(to);\\n                }\\n            } catch (bytes memory reason) {\\n                if (reason.length == 0) {\\n                    // non-IERC1155Receiver implementer\\n                    revert IERC1155Errors.ERC1155InvalidReceiver(to);\\n                } else {\\n                    assembly (\\\"memory-safe\\\") {\\n                        revert(add(32, reason), mload(reason))\\n                    }\\n                }\\n            }\\n        }\\n    }\\n\\n    /**\\n     * @dev Performs a batch acceptance check for the provided `operator` by calling {IERC1155Receiver-onERC1155BatchReceived}\\n     * on the `to` address. The `operator` is generally the address that initiated the token transfer (i.e. `msg.sender`).\\n     *\\n     * The acceptance call is not executed and treated as a no-op if the target address doesn't contain code (i.e. an EOA).\\n     * Otherwise, the recipient must implement {IERC1155Receiver-onERC1155Received} and return the acceptance magic value to accept\\n     * the transfer.\\n     */\\n    function checkOnERC1155BatchReceived(\\n        address operator,\\n        address from,\\n        address to,\\n        uint256[] memory ids,\\n        uint256[] memory values,\\n        bytes memory data\\n    ) internal {\\n        if (to.code.length > 0) {\\n            try IERC1155Receiver(to).onERC1155BatchReceived(operator, from, ids, values, data) returns (\\n                bytes4 response\\n            ) {\\n                if (response != IERC1155Receiver.onERC1155BatchReceived.selector) {\\n                    // Tokens rejected\\n                    revert IERC1155Errors.ERC1155InvalidReceiver(to);\\n                }\\n            } catch (bytes memory reason) {\\n                if (reason.length == 0) {\\n                    // non-IERC1155Receiver implementer\\n                    revert IERC1155Errors.ERC1155InvalidReceiver(to);\\n                } else {\\n                    assembly (\\\"memory-safe\\\") {\\n                        revert(add(32, reason), mload(reason))\\n                    }\\n                }\\n            }\\n        }\\n    }\\n}\\n\"},\"@openzeppelin/contracts/token/ERC1155/extensions/IERC1155MetadataURI.sol\":{\"content\":\"// SPDX-License-Identifier: MIT\\n// OpenZeppelin Contracts (last updated v5.1.0) (token/ERC1155/extensions/IERC1155MetadataURI.sol)\\n\\npragma solidity ^0.8.20;\\n\\nimport {IERC1155} from \\\"../IERC1155.sol\\\";\\n\\n/**\\n * @dev Interface of the optional ERC1155MetadataExtension interface, as defined\\n * in the https://eips.ethereum.org/EIPS/eip-1155#metadata-extensions[ERC].\\n */\\ninterface IERC1155MetadataURI is IERC1155 {\\n    /**\\n     * @dev Returns the URI for token type `id`.\\n     *\\n     * If the `\\\\{id\\\\}` substring is present in the URI, it must be replaced by\\n     * clients with the actual token type ID.\\n     */\\n    function uri(uint256 id) external view returns (string memory);\\n}\\n\"},\"@openzeppelin/contracts/token/ERC1155/IERC1155.sol\":{\"content\":\"// SPDX-License-Identifier: MIT\\n// OpenZeppelin Contracts (last updated v5.3.0) (token/ERC1155/IERC1155.sol)\\n\\npragma solidity ^0.8.20;\\n\\nimport {IERC165} from \\\"../../utils/introspection/IERC165.sol\\\";\\n\\n/**\\n * @dev Required interface of an ERC-1155 compliant contract, as defined in the\\n * https://eips.ethereum.org/EIPS/eip-1155[ERC].\\n */\\ninterface IERC1155 is IERC165 {\\n    /**\\n     * @dev Emitted when `value` amount of tokens of type `id` are transferred from `from` to `to` by `operator`.\\n     */\\n    event TransferSingle(address indexed operator, address indexed from, address indexed to, uint256 id, uint256 value);\\n\\n    /**\\n     * @dev Equivalent to multiple {TransferSingle} events, where `operator`, `from` and `to` are the same for all\\n     * transfers.\\n     */\\n    event TransferBatch(\\n        address indexed operator,\\n        address indexed from,\\n        address indexed to,\\n        uint256[] ids,\\n        uint256[] values\\n    );\\n\\n    /**\\n     * @dev Emitted when `account` grants or revokes permission to `operator` to transfer their tokens, according to\\n     * `approved`.\\n     */\\n    event ApprovalForAll(address indexed account, address indexed operator, bool approved);\\n\\n    /**\\n     * @dev Emitted when the URI for token type `id` changes to `value`, if it is a non-programmatic URI.\\n     *\\n     * If an {URI} event was emitted for `id`, the standard\\n     * https://eips.ethereum.org/EIPS/eip-1155#metadata-extensions[guarantees] that `value` will equal the value\\n     * returned by {IERC1155MetadataURI-uri}.\\n     */\\n    event URI(string value, uint256 indexed id);\\n\\n    /**\\n     * @dev Returns the value of tokens of token type `id` owned by `account`.\\n     */\\n    function balanceOf(address account, uint256 id) external view returns (uint256);\\n\\n    /**\\n     * @dev xref:ROOT:erc1155.adoc#batch-operations[Batched] version of {balanceOf}.\\n     *\\n     * Requirements:\\n     *\\n     * - `accounts` and `ids` must have the same length.\\n     */\\n    function balanceOfBatch(\\n        address[] calldata accounts,\\n        uint256[] calldata ids\\n    ) external view returns (uint256[] memory);\\n\\n    /**\\n     * @dev Grants or revokes permission to `operator` to transfer the caller's tokens, according to `approved`,\\n     *\\n     * Emits an {ApprovalForAll} event.\\n     *\\n     * Requirements:\\n     *\\n     * - `operator` cannot be the zero address.\\n     */\\n    function setApprovalForAll(address operator, bool approved) external;\\n\\n    /**\\n     * @dev Returns true if `operator` is approved to transfer ``account``'s tokens.\\n     *\\n     * See {setApprovalForAll}.\\n     */\\n    function isApprovedForAll(address account, address operator) external view returns (bool);\\n\\n    /**\\n     * @dev Transfers a `value` amount of tokens of type `id` from `from` to `to`.\\n     *\\n     * WARNING: This function can potentially allow a reentrancy attack when transferring tokens\\n     * to an untrusted contract, when invoking {IERC1155Receiver-onERC1155Received} on the receiver.\\n     * Ensure to follow the checks-effects-interactions pattern and consider employing\\n     * reentrancy guards when interacting with untrusted contracts.\\n     *\\n     * Emits a {TransferSingle} event.\\n     *\\n     * Requirements:\\n     *\\n     * - `to` cannot be the zero address.\\n     * - If the caller is not `from`, it must have been approved to spend ``from``'s tokens via {setApprovalForAll}.\\n     * - `from` must have a balance of tokens of type `id` of at least `value` amount.\\n     * - If `to` refers to a smart contract, it must implement {IERC1155Receiver-onERC1155Received} and return the\\n     * acceptance magic value.\\n     */\\n    function safeTransferFrom(address from, address to, uint256 id, uint256 value, bytes calldata data) external;\\n\\n    /**\\n     * @dev xref:ROOT:erc1155.adoc#batch-operations[Batched] version of {safeTransferFrom}.\\n     *\\n     * WARNING: This function can potentially allow a reentrancy attack when transferring tokens\\n     * to an untrusted contract, when invoking {IERC1155Receiver-onERC1155BatchReceived} on the receiver.\\n     * Ensure to follow the checks-effects-interactions pattern and consider employing\\n     * reentrancy guards when interacting with untrusted contracts.\\n     *\\n     * Emits either a {TransferSingle} or a {TransferBatch} event, depending on the length of the array arguments.\\n     *\\n     * Requirements:\\n     *\\n     * - `ids` and `values` must have the same length.\\n     * - If `to` refers to a smart contract, it must implement {IERC1155Receiver-onERC1155BatchReceived} and return the\\n     * acceptance magic value.\\n     */\\n    function safeBatchTransferFrom(\\n        address from,\\n        address to,\\n        uint256[] calldata ids,\\n        uint256[] calldata values,\\n        bytes calldata data\\n    ) external;\\n}\\n\"},\"@iden3/contracts/lib/ArrayUtils.sol\":{\"content\":\"// SPDX-License-Identifier: GPL-3.0\\npragma solidity 0.8.20;\\n\\n/// @title A common functions for arrays.\\nlibrary ArrayUtils {\\n    /**\\n     * @dev Calculates bounds for the slice of the array.\\n     * @param arrLength An array length.\\n     * @param start A start index.\\n     * @param length A length of the slice.\\n     * @param limit A limit for the length.\\n     * @return The bounds for the slice of the array.\\n     */\\n    function calculateBounds(\\n        uint256 arrLength,\\n        uint256 start,\\n        uint256 length,\\n        uint256 limit\\n    ) internal pure returns (uint256, uint256) {\\n        require(length > 0, \\\"Length should be greater than 0\\\");\\n        require(length <= limit, \\\"Length limit exceeded\\\");\\n        require(start < arrLength, \\\"Start index out of bounds\\\");\\n\\n        uint256 end = start + length;\\n        if (end > arrLength) {\\n            end = arrLength;\\n        }\\n\\n        return (start, end);\\n    }\\n}\\n\"},\"@iden3/contracts/verifiers/ZKPVerifierBase.sol\":{\"content\":\"// SPDX-License-Identifier: GPL-3.0\\npragma solidity 0.8.20;\\n\\nimport {IZKPVerifier} from \\\"../interfaces/IZKPVerifier.sol\\\";\\nimport {ICircuitValidator} from \\\"../interfaces/ICircuitValidator.sol\\\";\\nimport {ArrayUtils} from \\\"../lib/ArrayUtils.sol\\\";\\nimport {ContextUpgradeable} from \\\"@openzeppelin/contracts-upgradeable/utils/ContextUpgradeable.sol\\\";\\n\\nabstract contract ZKPVerifierBase is IZKPVerifier, ContextUpgradeable {\\n    /// @dev Struct to store ZKP proof and associated data\\n    struct Proof {\\n        bool isVerified;\\n        mapping(string key => uint256 inputIndex) storageFields;\\n        string validatorVersion;\\n        uint256 blockNumber;\\n        uint256 blockTimestamp;\\n    }\\n\\n    /// @custom:storage-location erc7201:iden3.storage.ZKPVerifier\\n    struct ZKPVerifierStorage {\\n        mapping(address user => mapping(uint64 requestID => Proof)) _proofs;\\n        mapping(uint64 requestID => IZKPVerifier.ZKPRequest) _requests;\\n        uint64[] _requestIds;\\n    }\\n\\n    // keccak256(abi.encode(uint256(keccak256(\\\"iden3.storage.ZKPVerifier\\\")) - 1)) & ~bytes32(uint256(0xff));\\n    bytes32 internal constant ZKPVerifierStorageLocation =\\n        0x512d18c55869273fec77e70d8a8586e3fb133e90f1db24c6bcf4ff3506ef6a00;\\n\\n    /// @dev Get the main storage using assembly to ensure specific storage location\\n    function _getZKPVerifierStorage() private pure returns (ZKPVerifierStorage storage $) {\\n        assembly {\\n            $.slot := ZKPVerifierStorageLocation\\n        }\\n    }\\n\\n    /**\\n     * @dev Max return array length for request queries\\n     */\\n    uint256 public constant REQUESTS_RETURN_LIMIT = 1000;\\n\\n    /// @dev Key to retrieve the linkID from the proof storage\\n    string constant LINKED_PROOF_KEY = \\\"linkID\\\";\\n\\n    /// @dev Linked proof custom error\\n    error LinkedProofError(\\n        string message,\\n        uint64 requestId,\\n        uint256 linkID,\\n        uint64 requestIdToCompare,\\n        uint256 linkIdToCompare\\n    );\\n\\n    /// @dev Modifier to check if the validator is set for the request\\n    modifier checkRequestExistence(uint64 requestId, bool existence) {\\n        if (existence) {\\n            require(requestIdExists(requestId), \\\"request id doesn't exist\\\");\\n        } else {\\n            require(!requestIdExists(requestId), \\\"request id already exists\\\");\\n        }\\n        _;\\n    }\\n\\n    /// @dev Sets a ZKP request\\n    /// @param requestId The ID of the ZKP request\\n    /// @param request The ZKP request data\\n    function setZKPRequest(\\n        uint64 requestId,\\n        IZKPVerifier.ZKPRequest calldata request\\n    ) public virtual checkRequestExistence(requestId, false) {\\n        ZKPVerifierStorage storage s = _getZKPVerifierStorage();\\n        s._requests[requestId] = request;\\n        s._requestIds.push(requestId);\\n    }\\n\\n    /// @notice Submits a ZKP response and updates proof status\\n    /// @param requestId The ID of the ZKP request\\n    /// @param inputs The input data for the proof\\n    /// @param a The first component of the proof\\n    /// @param b The second component of the proof\\n    /// @param c The third component of the proof\\n    function submitZKPResponse(\\n        uint64 requestId,\\n        uint256[] calldata inputs,\\n        uint256[2] calldata a,\\n        uint256[2][2] calldata b,\\n        uint256[2] calldata c\\n    ) public virtual checkRequestExistence(requestId, true) {\\n        address sender = _msgSender();\\n        ICircuitValidator.KeyToInputIndex[] memory pairs = _verifyZKPResponse(\\n            requestId,\\n            inputs,\\n            a,\\n            b,\\n            c,\\n            sender\\n        );\\n\\n        Proof storage proof = _getZKPVerifierStorage()._proofs[sender][requestId];\\n        for (uint256 i = 0; i < pairs.length; i++) {\\n            proof.storageFields[pairs[i].key] = inputs[pairs[i].inputIndex];\\n        }\\n\\n        proof.isVerified = true;\\n        proof.validatorVersion = _getZKPVerifierStorage()._requests[requestId].validator.version();\\n        proof.blockNumber = block.number;\\n        proof.blockTimestamp = block.timestamp;\\n    }\\n\\n    /// @dev Verifies a ZKP response without updating any proof status\\n    /// @param requestId The ID of the ZKP request\\n    /// @param inputs The public inputs for the proof\\n    /// @param a The first component of the proof\\n    /// @param b The second component of the proof\\n    /// @param c The third component of the proof\\n    /// @param sender The sender on behalf of which the proof is done\\n    function verifyZKPResponse(\\n        uint64 requestId,\\n        uint256[] calldata inputs,\\n        uint256[2] calldata a,\\n        uint256[2][2] calldata b,\\n        uint256[2] calldata c,\\n        address sender\\n    )\\n        public\\n        view\\n        virtual\\n        checkRequestExistence(requestId, true)\\n        returns (ICircuitValidator.KeyToInputIndex[] memory)\\n    {\\n        return _verifyZKPResponse(requestId, inputs, a, b, c, sender);\\n    }\\n\\n    /// @dev Gets the list of request IDs and verifies the proofs are linked\\n    /// @param sender the user's address\\n    /// @param requestIds the list of request IDs\\n    /// Throws if the proofs are not linked\\n    function verifyLinkedProofs(address sender, uint64[] calldata requestIds) public view virtual {\\n        require(requestIds.length > 1, \\\"Linked proof verification needs more than 1 request\\\");\\n\\n        uint256 expectedLinkID = getProofStorageField(sender, requestIds[0], LINKED_PROOF_KEY);\\n\\n        if (expectedLinkID == 0) {\\n            revert(\\\"Can't find linkID for given request Ids and user address\\\");\\n        }\\n\\n        for (uint256 i = 1; i < requestIds.length; i++) {\\n            uint256 actualLinkID = getProofStorageField(sender, requestIds[i], LINKED_PROOF_KEY);\\n\\n            if (expectedLinkID != actualLinkID) {\\n                revert LinkedProofError(\\n                    \\\"Proofs are not linked\\\",\\n                    requestIds[0],\\n                    expectedLinkID,\\n                    requestIds[i],\\n                    actualLinkID\\n                );\\n            }\\n        }\\n    }\\n\\n    /// @dev Gets a specific ZKP request by ID\\n    /// @param requestId The ID of the ZKP request\\n    /// @return zkpRequest The ZKP request data\\n    function getZKPRequest(\\n        uint64 requestId\\n    )\\n        public\\n        view\\n        checkRequestExistence(requestId, true)\\n        returns (IZKPVerifier.ZKPRequest memory zkpRequest)\\n    {\\n        return _getZKPVerifierStorage()._requests[requestId];\\n    }\\n\\n    /// @dev Gets the count of ZKP requests\\n    /// @return The count of ZKP requests\\n    function getZKPRequestsCount() public view returns (uint256) {\\n        return _getZKPVerifierStorage()._requestIds.length;\\n    }\\n\\n    /// @dev Checks if a ZKP request ID exists\\n    /// @param requestId The ID of the ZKP request\\n    /// @return Whether the request ID exists\\n    function requestIdExists(uint64 requestId) public view override returns (bool) {\\n        return\\n            _getZKPVerifierStorage()._requests[requestId].validator !=\\n            ICircuitValidator(address(0));\\n    }\\n\\n    /// @dev Gets multiple ZKP requests within a range\\n    /// @param startIndex The starting index of the range\\n    /// @param length The length of the range\\n    /// @return An array of ZKP requests within the specified range\\n    function getZKPRequests(\\n        uint256 startIndex,\\n        uint256 length\\n    ) public view returns (IZKPVerifier.ZKPRequest[] memory) {\\n        ZKPVerifierStorage storage s = _getZKPVerifierStorage();\\n        (uint256 start, uint256 end) = ArrayUtils.calculateBounds(\\n            s._requestIds.length,\\n            startIndex,\\n            length,\\n            REQUESTS_RETURN_LIMIT\\n        );\\n\\n        IZKPVerifier.ZKPRequest[] memory result = new IZKPVerifier.ZKPRequest[](end - start);\\n\\n        for (uint256 i = start; i < end; i++) {\\n            result[i - start] = s._requests[s._requestIds[i]];\\n        }\\n\\n        return result;\\n    }\\n\\n    /// @dev Checks if proof submitted for a given sender and request ID\\n    /// @param sender The sender's address\\n    /// @param requestId The ID of the ZKP request\\n    /// @return true if proof submitted\\n    function isProofVerified(\\n        address sender,\\n        uint64 requestId\\n    ) public view checkRequestExistence(requestId, true) returns (bool) {\\n        return _getZKPVerifierStorage()._proofs[sender][requestId].isVerified;\\n    }\\n\\n    /// @dev Checks the proof status for a given user and request ID\\n    /// @param sender The sender's address\\n    /// @param requestId The ID of the ZKP request\\n    /// @return The proof status structure\\n    function getProofStatus(\\n        address sender,\\n        uint64 requestId\\n    ) public view checkRequestExistence(requestId, true) returns (IZKPVerifier.ProofStatus memory) {\\n        Proof storage proof = _getZKPVerifierStorage()._proofs[sender][requestId];\\n\\n        return\\n            IZKPVerifier.ProofStatus(\\n                proof.isVerified,\\n                proof.validatorVersion,\\n                proof.blockNumber,\\n                proof.blockTimestamp\\n            );\\n    }\\n\\n    /// @dev Gets the proof storage item for a given user, request ID and key\\n    /// @param user The user's address\\n    /// @param requestId The ID of the ZKP request\\n    /// @return The proof\\n    function getProofStorageField(\\n        address user,\\n        uint64 requestId,\\n        string memory key\\n    ) public view checkRequestExistence(requestId, true) returns (uint256) {\\n        return _getZKPVerifierStorage()._proofs[user][requestId].storageFields[key];\\n    }\\n\\n    function _verifyZKPResponse(\\n        uint64 requestId,\\n        uint256[] calldata inputs,\\n        uint256[2] calldata a,\\n        uint256[2][2] calldata b,\\n        uint256[2] calldata c,\\n        address sender\\n    ) private view returns (ICircuitValidator.KeyToInputIndex[] memory) {\\n        IZKPVerifier.ZKPRequest memory request = _getZKPVerifierStorage()._requests[requestId];\\n        ICircuitValidator.KeyToInputIndex[] memory pairs = request.validator.verify(\\n            inputs,\\n            a,\\n            b,\\n            c,\\n            request.data,\\n            sender\\n        );\\n        return pairs;\\n    }\\n}\\n\"},\"@iden3/contracts/verifiers/ValidatorWhitelist.sol\":{\"content\":\"// SPDX-License-Identifier: GPL-3.0\\npragma solidity 0.8.20;\\n\\nimport {IERC165} from \\\"@openzeppelin/contracts/utils/introspection/IERC165.sol\\\";\\nimport {ICircuitValidator} from \\\"../interfaces/ICircuitValidator.sol\\\";\\nimport {ZKPVerifierBase} from \\\"./ZKPVerifierBase.sol\\\";\\nimport {IZKPVerifier} from \\\"../interfaces/IZKPVerifier.sol\\\";\\n\\ncontract ValidatorWhitelist is ZKPVerifierBase {\\n    /// @custom:storage-location erc7201:iden3.storage.ValidatorWhitelist\\n    struct ValidatorWhitelistStorage {\\n        mapping(ICircuitValidator => bool isApproved) _validatorWhitelist;\\n    }\\n\\n    // keccak256(abi.encode(uint256(keccak256(\\\"iden3.storage.ValidatorWhitelist\\\")) - 1)) & ~bytes32(uint256(0xff));\\n    bytes32 private constant ValidatorWhitelistStorageLocation =\\n        0x76aa24e3538905838cc74060b2aa4c054b1e474aacf44741879e1850715e9300;\\n\\n    function _getValidatorWhitelistStorage()\\n        private\\n        pure\\n        returns (ValidatorWhitelistStorage storage $)\\n    {\\n        assembly {\\n            $.slot := ValidatorWhitelistStorageLocation\\n        }\\n    }\\n\\n    /// @dev Modifier to check if the validator is whitelisted\\n    modifier onlyWhitelistedValidator(ICircuitValidator validator) {\\n        require(isWhitelistedValidator(validator), \\\"Validator is not whitelisted\\\");\\n        _;\\n    }\\n\\n    /// @dev Sets a ZKP request\\n    /// @param requestId The ID of the ZKP request\\n    /// @param request The ZKP request data\\n    function setZKPRequest(\\n        uint64 requestId,\\n        IZKPVerifier.ZKPRequest calldata request\\n    ) public virtual override onlyWhitelistedValidator(request.validator) {\\n        super.setZKPRequest(requestId, request);\\n    }\\n\\n    /// @dev Submits a ZKP response and updates proof status\\n    /// @param requestId The ID of the ZKP request\\n    /// @param inputs The input data for the proof\\n    /// @param a The first component of the proof\\n    /// @param b The second component of the proof\\n    /// @param c The third component of the proof\\n    function submitZKPResponse(\\n        uint64 requestId,\\n        uint256[] calldata inputs,\\n        uint256[2] calldata a,\\n        uint256[2][2] calldata b,\\n        uint256[2] calldata c\\n    ) public virtual override {\\n        ICircuitValidator validator = getZKPRequest(requestId).validator;\\n        require(isWhitelistedValidator(validator), \\\"Validator is not whitelisted\\\");\\n        super.submitZKPResponse(requestId, inputs, a, b, c);\\n    }\\n\\n    /// @dev Verifies a ZKP response without updating any proof status\\n    /// @param requestId The ID of the ZKP request\\n    /// @param inputs The public inputs for the proof\\n    /// @param a The first component of the proof\\n    /// @param b The second component of the proof\\n    /// @param c The third component of the proof\\n    /// @param sender The sender on behalf of which the proof is done\\n    function verifyZKPResponse(\\n        uint64 requestId,\\n        uint256[] calldata inputs,\\n        uint256[2] calldata a,\\n        uint256[2][2] calldata b,\\n        uint256[2] calldata c,\\n        address sender\\n    ) public view virtual override returns (ICircuitValidator.KeyToInputIndex[] memory) {\\n        ICircuitValidator validator = getZKPRequest(requestId).validator;\\n        require(isWhitelistedValidator(validator), \\\"Validator is not whitelisted\\\");\\n        return super.verifyZKPResponse(requestId, inputs, a, b, c, sender);\\n    }\\n\\n    /// @dev Checks if validator is whitelisted\\n    /// @param validator The validator address\\n    /// @return True if validator is whitelisted, otherwise returns false\\n    function isWhitelistedValidator(\\n        ICircuitValidator validator\\n    ) public view virtual returns (bool) {\\n        return _getValidatorWhitelistStorage()._validatorWhitelist[validator];\\n    }\\n\\n    function _addValidatorToWhitelist(ICircuitValidator validator) internal {\\n        require(\\n            IERC165(address(validator)).supportsInterface(type(ICircuitValidator).interfaceId),\\n            \\\"Validator doesn't support relevant interface\\\"\\n        );\\n\\n        _getValidatorWhitelistStorage()._validatorWhitelist[validator] = true;\\n    }\\n\\n    function _removeValidatorFromWhitelist(ICircuitValidator validator) internal {\\n        _getValidatorWhitelistStorage()._validatorWhitelist[validator] = false;\\n    }\\n}\\n\"},\"@iden3/contracts/verifiers/RequestDisableable.sol\":{\"content\":\"// SPDX-License-Identifier: GPL-3.0\\npragma solidity 0.8.20;\\n\\nimport {ZKPVerifierBase} from \\\"./ZKPVerifierBase.sol\\\";\\nimport {ICircuitValidator} from \\\"../interfaces/ICircuitValidator.sol\\\";\\n\\ncontract RequestDisableable is ZKPVerifierBase {\\n    /// @custom:storage-location erc7201:iden3.storage.RequestDisableable\\n    struct RequestDisableStorage {\\n        mapping(uint64 requestID => bool isDisabled) _requestDisabling;\\n    }\\n\\n    // keccak256(abi.encode(uint256(keccak256(\\\"iden3.storage.RequestDisableable\\\")) - 1)) & ~bytes32(uint256(0xff));\\n    bytes32 private constant RequestDisableStorageLocation =\\n        0x70325635d67d74932012fa921ccb2f335d3b1d69e3a487f50d001cc65f531600;\\n\\n    function _getRequestDisableStorage() private pure returns (RequestDisableStorage storage $) {\\n        assembly {\\n            $.slot := RequestDisableStorageLocation\\n        }\\n    }\\n\\n    /// @dev Modifier to check if the ZKP request is enabled\\n    modifier onlyEnabledRequest(uint64 requestId) {\\n        require(isZKPRequestEnabled(requestId), \\\"Request is disabled\\\");\\n        _;\\n    }\\n\\n    /// @dev Submits a ZKP response and updates proof status\\n    /// @param requestId The ID of the ZKP request\\n    /// @param inputs The input data for the proof\\n    /// @param a The first component of the proof\\n    /// @param b The second component of the proof\\n    /// @param c The third component of the proof\\n    function submitZKPResponse(\\n        uint64 requestId,\\n        uint256[] calldata inputs,\\n        uint256[2] calldata a,\\n        uint256[2][2] calldata b,\\n        uint256[2] calldata c\\n    ) public virtual override onlyEnabledRequest(requestId) {\\n        super.submitZKPResponse(requestId, inputs, a, b, c);\\n    }\\n\\n    /// @dev Verifies a ZKP response without updating any proof status\\n    /// @param requestId The ID of the ZKP request\\n    /// @param inputs The public inputs for the proof\\n    /// @param a The first component of the proof\\n    /// @param b The second component of the proof\\n    /// @param c The third component of the proof\\n    /// @param sender The sender on behalf of which the proof is done\\n    function verifyZKPResponse(\\n        uint64 requestId,\\n        uint256[] calldata inputs,\\n        uint256[2] calldata a,\\n        uint256[2][2] calldata b,\\n        uint256[2] calldata c,\\n        address sender\\n    )\\n        public\\n        view\\n        virtual\\n        override\\n        onlyEnabledRequest(requestId)\\n        returns (ICircuitValidator.KeyToInputIndex[] memory)\\n    {\\n        return super.verifyZKPResponse(requestId, inputs, a, b, c, sender);\\n    }\\n\\n    /// @dev Checks if ZKP Request is enabled\\n    /// @param requestId The ID of the ZKP request\\n    /// @return True if ZKP Request enabled, otherwise returns false\\n    function isZKPRequestEnabled(\\n        uint64 requestId\\n    ) public view virtual checkRequestExistence(requestId, true) returns (bool) {\\n        return !_getRequestDisableStorage()._requestDisabling[requestId];\\n    }\\n\\n    function _disableZKPRequest(uint64 requestId) internal checkRequestExistence(requestId, true) {\\n        _getRequestDisableStorage()._requestDisabling[requestId] = true;\\n    }\\n\\n    function _enableZKPRequest(uint64 requestId) internal checkRequestExistence(requestId, true) {\\n        _getRequestDisableStorage()._requestDisabling[requestId] = false;\\n    }\\n}\\n\"},\"@iden3/contracts/verifiers/RequestOwnership.sol\":{\"content\":\"// SPDX-License-Identifier: GPL-3.0\\npragma solidity 0.8.20;\\n\\nimport {ZKPVerifierBase} from \\\"./ZKPVerifierBase.sol\\\";\\nimport {IZKPVerifier} from \\\"../interfaces/IZKPVerifier.sol\\\";\\n\\nabstract contract RequestOwnership is ZKPVerifierBase {\\n    /// @custom:storage-location erc7201:iden3.storage.RequestOwnership.sol\\n    struct RequestOwnershipStorage {\\n        mapping(uint64 requestID => address requestOwner) _requestOwners;\\n    }\\n\\n    // keccak256(abi.encode(uint256(keccak256(\\\"iden3.storage.RequestOwnership\\\")) - 1)) & ~bytes32(uint256(0xff));\\n    bytes32 private constant RequestOwnershipStorageLocation =\\n        0x6209bdc3799f5201408f7a7d4d471bb2a0100353e618451674b93f730b006a00;\\n\\n    function _getRequestOwnershipStorage()\\n        private\\n        pure\\n        returns (RequestOwnershipStorage storage $)\\n    {\\n        assembly {\\n            $.slot := RequestOwnershipStorageLocation\\n        }\\n    }\\n\\n    /// @dev Modifier to check if the caller is ZKP Request owner\\n    modifier onlyRequestOwner(uint64 requestId) virtual {\\n        require(getRequestOwner(requestId) == _msgSender(), \\\"Not a request owner\\\");\\n        _;\\n    }\\n\\n    /// @dev Sets a ZKP request\\n    /// @param requestId The ID of the ZKP request\\n    /// @param request The ZKP request data\\n    function setZKPRequest(\\n        uint64 requestId,\\n        IZKPVerifier.ZKPRequest calldata request\\n    ) public virtual override {\\n        super.setZKPRequest(requestId, request);\\n        _setRequestOwner(requestId, _msgSender());\\n    }\\n\\n    /// @dev Get a ZKP Request Owner address\\n    /// @param requestId The ID of a ZKP Request\\n    /// @return The ZKP Request Owner address\\n    function getRequestOwner(\\n        uint64 requestId\\n    ) public view virtual checkRequestExistence(requestId, true) returns (address) {\\n        return _getRequestOwnershipStorage()._requestOwners[requestId];\\n    }\\n\\n    function _setRequestOwner(\\n        uint64 requestId,\\n        address requestOwner\\n    ) internal checkRequestExistence(requestId, true) {\\n        RequestOwnershipStorage storage $ = _getRequestOwnershipStorage();\\n        $._requestOwners[requestId] = requestOwner;\\n    }\\n}\\n\"},\"@openzeppelin/contracts-upgradeable/access/Ownable2StepUpgradeable.sol\":{\"content\":\"// SPDX-License-Identifier: MIT\\n// OpenZeppelin Contracts (last updated v5.1.0) (access/Ownable2Step.sol)\\n\\npragma solidity ^0.8.20;\\n\\nimport {OwnableUpgradeable} from \\\"./OwnableUpgradeable.sol\\\";\\nimport {Initializable} from \\\"../proxy/utils/Initializable.sol\\\";\\n\\n/**\\n * @dev Contract module which provides access control mechanism, where\\n * there is an account (an owner) that can be granted exclusive access to\\n * specific functions.\\n *\\n * This extension of the {Ownable} contract includes a two-step mechanism to transfer\\n * ownership, where the new owner must call {acceptOwnership} in order to replace the\\n * old one. This can help prevent common mistakes, such as transfers of ownership to\\n * incorrect accounts, or to contracts that are unable to interact with the\\n * permission system.\\n *\\n * The initial owner is specified at deployment time in the constructor for `Ownable`. This\\n * can later be changed with {transferOwnership} and {acceptOwnership}.\\n *\\n * This module is used through inheritance. It will make available all functions\\n * from parent (Ownable).\\n */\\nabstract contract Ownable2StepUpgradeable is Initializable, OwnableUpgradeable {\\n    /// @custom:storage-location erc7201:openzeppelin.storage.Ownable2Step\\n    struct Ownable2StepStorage {\\n        address _pendingOwner;\\n    }\\n\\n    // keccak256(abi.encode(uint256(keccak256(\\\"openzeppelin.storage.Ownable2Step\\\")) - 1)) & ~bytes32(uint256(0xff))\\n    bytes32 private constant Ownable2StepStorageLocation = 0x237e158222e3e6968b72b9db0d8043aacf074ad9f650f0d1606b4d82ee432c00;\\n\\n    function _getOwnable2StepStorage() private pure returns (Ownable2StepStorage storage $) {\\n        assembly {\\n            $.slot := Ownable2StepStorageLocation\\n        }\\n    }\\n\\n    event OwnershipTransferStarted(address indexed previousOwner, address indexed newOwner);\\n\\n    function __Ownable2Step_init() internal onlyInitializing {\\n    }\\n\\n    function __Ownable2Step_init_unchained() internal onlyInitializing {\\n    }\\n    /**\\n     * @dev Returns the address of the pending owner.\\n     */\\n    function pendingOwner() public view virtual returns (address) {\\n        Ownable2StepStorage storage $ = _getOwnable2StepStorage();\\n        return $._pendingOwner;\\n    }\\n\\n    /**\\n     * @dev Starts the ownership transfer of the contract to a new account. Replaces the pending transfer if there is one.\\n     * Can only be called by the current owner.\\n     *\\n     * Setting `newOwner` to the zero address is allowed; this can be used to cancel an initiated ownership transfer.\\n     */\\n    function transferOwnership(address newOwner) public virtual override onlyOwner {\\n        Ownable2StepStorage storage $ = _getOwnable2StepStorage();\\n        $._pendingOwner = newOwner;\\n        emit OwnershipTransferStarted(owner(), newOwner);\\n    }\\n\\n    /**\\n     * @dev Transfers ownership of the contract to a new account (`newOwner`) and deletes any pending owner.\\n     * Internal function without access restriction.\\n     */\\n    function _transferOwnership(address newOwner) internal virtual override {\\n        Ownable2StepStorage storage $ = _getOwnable2StepStorage();\\n        delete $._pendingOwner;\\n        super._transferOwnership(newOwner);\\n    }\\n\\n    /**\\n     * @dev The new owner accepts the ownership transfer.\\n     */\\n    function acceptOwnership() public virtual {\\n        address sender = _msgSender();\\n        if (pendingOwner() != sender) {\\n            revert OwnableUnauthorizedAccount(sender);\\n        }\\n        _transferOwnership(sender);\\n    }\\n}\\n\"},\"@iden3/contracts/lib/GenesisUtils.sol\":{\"content\":\"// SPDX-License-Identifier: GPL-3.0\\npragma solidity 0.8.20;\\n\\nimport {PrimitiveTypeUtils} from \\\"./PrimitiveTypeUtils.sol\\\";\\n\\nlibrary GenesisUtils {\\n    /**\\n     *   @dev sum\\n     */\\n    function sum(bytes memory array) internal pure returns (uint16 s) {\\n        require(array.length == 29, \\\"Checksum requires 29 length array\\\");\\n\\n        for (uint256 i = 0; i < array.length; ++i) {\\n            s += uint16(uint8(array[i]));\\n        }\\n    }\\n\\n    /**\\n     * @dev isGenesisState\\n     */\\n    function isGenesisState(uint256 id, uint256 idState) internal pure returns (bool) {\\n        bytes2 idType = bytes2(\\n            PrimitiveTypeUtils.uint256ToBytes(PrimitiveTypeUtils.reverseUint256(id))\\n        );\\n        uint256 computedId = calcIdFromGenesisState(idType, idState);\\n        return id == computedId;\\n    }\\n\\n    /**\\n     * @dev calcIdFromGenesisState\\n     */\\n    function calcIdFromGenesisState(\\n        bytes2 idType,\\n        uint256 idState\\n    ) internal pure returns (uint256) {\\n        bytes memory userStateB1 = PrimitiveTypeUtils.uint256ToBytes(\\n            PrimitiveTypeUtils.reverseUint256(idState)\\n        );\\n\\n        bytes memory cutState = PrimitiveTypeUtils.slice(userStateB1, userStateB1.length - 27, 27);\\n        bytes memory beforeChecksum = PrimitiveTypeUtils.concat(abi.encodePacked(idType), cutState);\\n\\n        uint16 checksum = PrimitiveTypeUtils.reverseUint16(sum(beforeChecksum));\\n        bytes memory checkSumBytes = abi.encodePacked(checksum);\\n\\n        bytes memory idBytes = PrimitiveTypeUtils.concat(beforeChecksum, checkSumBytes);\\n        require(idBytes.length == 31, \\\"idBytes requires 31 length array\\\");\\n\\n        return PrimitiveTypeUtils.reverseUint256(PrimitiveTypeUtils.padRightToUint256(idBytes));\\n    }\\n\\n    /**\\n     * @dev calcIdFromEthAddress\\n     */\\n    function calcIdFromEthAddress(bytes2 idType, address caller) internal pure returns (uint256) {\\n        uint256 addr = PrimitiveTypeUtils.addressToUint256(caller);\\n\\n        return calcIdFromGenesisState(idType, PrimitiveTypeUtils.reverseUint256(addr));\\n    }\\n}\\n\"},\"solidity-bytes-utils/contracts/BytesLib.sol\":{\"content\":\"// SPDX-License-Identifier: Unlicense\\n/*\\n * @title Solidity Bytes Arrays Utils\\n * @author Gonçalo Sá <goncalo.sa@consensys.net>\\n *\\n * @dev Bytes tightly packed arrays utility library for ethereum contracts written in Solidity.\\n *      The library lets you concatenate, slice and type cast bytes arrays both in memory and storage.\\n */\\npragma solidity >=0.8.0 <0.9.0;\\n\\n\\nlibrary BytesLib {\\n    function concat(\\n        bytes memory _preBytes,\\n        bytes memory _postBytes\\n    )\\n        internal\\n        pure\\n        returns (bytes memory)\\n    {\\n        bytes memory tempBytes;\\n\\n        assembly {\\n            // Get a location of some free memory and store it in tempBytes as\\n            // Solidity does for memory variables.\\n            tempBytes := mload(0x40)\\n\\n            // Store the length of the first bytes array at the beginning of\\n            // the memory for tempBytes.\\n            let length := mload(_preBytes)\\n            mstore(tempBytes, length)\\n\\n            // Maintain a memory counter for the current write location in the\\n            // temp bytes array by adding the 32 bytes for the array length to\\n            // the starting location.\\n            let mc := add(tempBytes, 0x20)\\n            // Stop copying when the memory counter reaches the length of the\\n            // first bytes array.\\n            let end := add(mc, length)\\n\\n            for {\\n                // Initialize a copy counter to the start of the _preBytes data,\\n                // 32 bytes into its memory.\\n                let cc := add(_preBytes, 0x20)\\n            } lt(mc, end) {\\n                // Increase both counters by 32 bytes each iteration.\\n                mc := add(mc, 0x20)\\n                cc := add(cc, 0x20)\\n            } {\\n                // Write the _preBytes data into the tempBytes memory 32 bytes\\n                // at a time.\\n                mstore(mc, mload(cc))\\n            }\\n\\n            // Add the length of _postBytes to the current length of tempBytes\\n            // and store it as the new length in the first 32 bytes of the\\n            // tempBytes memory.\\n            length := mload(_postBytes)\\n            mstore(tempBytes, add(length, mload(tempBytes)))\\n\\n            // Move the memory counter back from a multiple of 0x20 to the\\n            // actual end of the _preBytes data.\\n            mc := end\\n            // Stop copying when the memory counter reaches the new combined\\n            // length of the arrays.\\n            end := add(mc, length)\\n\\n            for {\\n                let cc := add(_postBytes, 0x20)\\n            } lt(mc, end) {\\n                mc := add(mc, 0x20)\\n                cc := add(cc, 0x20)\\n            } {\\n                mstore(mc, mload(cc))\\n            }\\n\\n            // Update the free-memory pointer by padding our last write location\\n            // to 32 bytes: add 31 bytes to the end of tempBytes to move to the\\n            // next 32 byte block, then round down to the nearest multiple of\\n            // 32. If the sum of the length of the two arrays is zero then add\\n            // one before rounding down to leave a blank 32 bytes (the length block with 0).\\n            mstore(0x40, and(\\n              add(add(end, iszero(add(length, mload(_preBytes)))), 31),\\n              not(31) // Round down to the nearest 32 bytes.\\n            ))\\n        }\\n\\n        return tempBytes;\\n    }\\n\\n    function concatStorage(bytes storage _preBytes, bytes memory _postBytes) internal {\\n        assembly {\\n            // Read the first 32 bytes of _preBytes storage, which is the length\\n            // of the array. (We don't need to use the offset into the slot\\n            // because arrays use the entire slot.)\\n            let fslot := sload(_preBytes.slot)\\n            // Arrays of 31 bytes or less have an even value in their slot,\\n            // while longer arrays have an odd value. The actual length is\\n            // the slot divided by two for odd values, and the lowest order\\n            // byte divided by two for even values.\\n            // If the slot is even, bitwise and the slot with 255 and divide by\\n            // two to get the length. If the slot is odd, bitwise and the slot\\n            // with -1 and divide by two.\\n            let slength := div(and(fslot, sub(mul(0x100, iszero(and(fslot, 1))), 1)), 2)\\n            let mlength := mload(_postBytes)\\n            let newlength := add(slength, mlength)\\n            // slength can contain both the length and contents of the array\\n            // if length < 32 bytes so let's prepare for that\\n            // v. http://solidity.readthedocs.io/en/latest/miscellaneous.html#layout-of-state-variables-in-storage\\n            switch add(lt(slength, 32), lt(newlength, 32))\\n            case 2 {\\n                // Since the new array still fits in the slot, we just need to\\n                // update the contents of the slot.\\n                // uint256(bytes_storage) = uint256(bytes_storage) + uint256(bytes_memory) + new_length\\n                sstore(\\n                    _preBytes.slot,\\n                    // all the modifications to the slot are inside this\\n                    // next block\\n                    add(\\n                        // we can just add to the slot contents because the\\n                        // bytes we want to change are the LSBs\\n                        fslot,\\n                        add(\\n                            mul(\\n                                div(\\n                                    // load the bytes from memory\\n                                    mload(add(_postBytes, 0x20)),\\n                                    // zero all bytes to the right\\n                                    exp(0x100, sub(32, mlength))\\n                                ),\\n                                // and now shift left the number of bytes to\\n                                // leave space for the length in the slot\\n                                exp(0x100, sub(32, newlength))\\n                            ),\\n                            // increase length by the double of the memory\\n                            // bytes length\\n                            mul(mlength, 2)\\n                        )\\n                    )\\n                )\\n            }\\n            case 1 {\\n                // The stored value fits in the slot, but the combined value\\n                // will exceed it.\\n                // get the keccak hash to get the contents of the array\\n                mstore(0x0, _preBytes.slot)\\n                let sc := add(keccak256(0x0, 0x20), div(slength, 32))\\n\\n                // save new length\\n                sstore(_preBytes.slot, add(mul(newlength, 2), 1))\\n\\n                // The contents of the _postBytes array start 32 bytes into\\n                // the structure. Our first read should obtain the `submod`\\n                // bytes that can fit into the unused space in the last word\\n                // of the stored array. To get this, we read 32 bytes starting\\n                // from `submod`, so the data we read overlaps with the array\\n                // contents by `submod` bytes. Masking the lowest-order\\n                // `submod` bytes allows us to add that value directly to the\\n                // stored value.\\n\\n                let submod := sub(32, slength)\\n                let mc := add(_postBytes, submod)\\n                let end := add(_postBytes, mlength)\\n                let mask := sub(exp(0x100, submod), 1)\\n\\n                sstore(\\n                    sc,\\n                    add(\\n                        and(\\n                            fslot,\\n                            0xffffffffffffffffffffffffffffffffffffffffffffffffffffffffffffff00\\n                        ),\\n                        and(mload(mc), mask)\\n                    )\\n                )\\n\\n                for {\\n                    mc := add(mc, 0x20)\\n                    sc := add(sc, 1)\\n                } lt(mc, end) {\\n                    sc := add(sc, 1)\\n                    mc := add(mc, 0x20)\\n                } {\\n                    sstore(sc, mload(mc))\\n                }\\n\\n                mask := exp(0x100, sub(mc, end))\\n\\n                sstore(sc, mul(div(mload(mc), mask), mask))\\n            }\\n            default {\\n                // get the keccak hash to get the contents of the array\\n                mstore(0x0, _preBytes.slot)\\n                // Start copying to the last used word of the stored array.\\n                let sc := add(keccak256(0x0, 0x20), div(slength, 32))\\n\\n                // save new length\\n                sstore(_preBytes.slot, add(mul(newlength, 2), 1))\\n\\n                // Copy over the first `submod` bytes of the new data as in\\n                // case 1 above.\\n                let slengthmod := mod(slength, 32)\\n                let mlengthmod := mod(mlength, 32)\\n                let submod := sub(32, slengthmod)\\n                let mc := add(_postBytes, submod)\\n                let end := add(_postBytes, mlength)\\n                let mask := sub(exp(0x100, submod), 1)\\n\\n                sstore(sc, add(sload(sc), and(mload(mc), mask)))\\n\\n                for {\\n                    sc := add(sc, 1)\\n                    mc := add(mc, 0x20)\\n                } lt(mc, end) {\\n                    sc := add(sc, 1)\\n                    mc := add(mc, 0x20)\\n                } {\\n                    sstore(sc, mload(mc))\\n                }\\n\\n                mask := exp(0x100, sub(mc, end))\\n\\n                sstore(sc, mul(div(mload(mc), mask), mask))\\n            }\\n        }\\n    }\\n\\n    function slice(\\n        bytes memory _bytes,\\n        uint256 _start,\\n        uint256 _length\\n    )\\n        internal\\n        pure\\n        returns (bytes memory)\\n    {\\n        // We're using the unchecked block below because otherwise execution ends \\n        // with the native overflow error code.\\n        unchecked {\\n            require(_length + 31 >= _length, \\\"slice_overflow\\\");\\n        }\\n        require(_bytes.length >= _start + _length, \\\"slice_outOfBounds\\\");\\n\\n        bytes memory tempBytes;\\n\\n        assembly {\\n            switch iszero(_length)\\n            case 0 {\\n                // Get a location of some free memory and store it in tempBytes as\\n                // Solidity does for memory variables.\\n                tempBytes := mload(0x40)\\n\\n                // The first word of the slice result is potentially a partial\\n                // word read from the original array. To read it, we calculate\\n                // the length of that partial word and start copying that many\\n                // bytes into the array. The first word we copy will start with\\n                // data we don't care about, but the last `lengthmod` bytes will\\n                // land at the beginning of the contents of the new array. When\\n                // we're done copying, we overwrite the full first word with\\n                // the actual length of the slice.\\n                let lengthmod := and(_length, 31)\\n\\n                // The multiplication in the next line is necessary\\n                // because when slicing multiples of 32 bytes (lengthmod == 0)\\n                // the following copy loop was copying the origin's length\\n                // and then ending prematurely not copying everything it should.\\n                let mc := add(add(tempBytes, lengthmod), mul(0x20, iszero(lengthmod)))\\n                let end := add(mc, _length)\\n\\n                for {\\n                    // The multiplication in the next line has the same exact purpose\\n                    // as the one above.\\n                    let cc := add(add(add(_bytes, lengthmod), mul(0x20, iszero(lengthmod))), _start)\\n                } lt(mc, end) {\\n                    mc := add(mc, 0x20)\\n                    cc := add(cc, 0x20)\\n                } {\\n                    mstore(mc, mload(cc))\\n                }\\n\\n                mstore(tempBytes, _length)\\n\\n                //update free-memory pointer\\n                //allocating the array padded to 32 bytes like the compiler does now\\n                mstore(0x40, and(add(mc, 31), not(31)))\\n            }\\n            //if we want a zero-length slice let's just return a zero-length array\\n            default {\\n                tempBytes := mload(0x40)\\n                //zero out the 32 bytes slice we are about to return\\n                //we need to do it because Solidity does not garbage collect\\n                mstore(tempBytes, 0)\\n\\n                mstore(0x40, add(tempBytes, 0x20))\\n            }\\n        }\\n\\n        return tempBytes;\\n    }\\n\\n    function toAddress(bytes memory _bytes, uint256 _start) internal pure returns (address) {\\n        require(_bytes.length >= _start + 20, \\\"toAddress_outOfBounds\\\");\\n        address tempAddress;\\n\\n        assembly {\\n            tempAddress := div(mload(add(add(_bytes, 0x20), _start)), 0x1000000000000000000000000)\\n        }\\n\\n        return tempAddress;\\n    }\\n\\n    function toUint8(bytes memory _bytes, uint256 _start) internal pure returns (uint8) {\\n        require(_bytes.length >= _start + 1 , \\\"toUint8_outOfBounds\\\");\\n        uint8 tempUint;\\n\\n        assembly {\\n            tempUint := mload(add(add(_bytes, 0x1), _start))\\n        }\\n\\n        return tempUint;\\n    }\\n\\n    function toUint16(bytes memory _bytes, uint256 _start) internal pure returns (uint16) {\\n        require(_bytes.length >= _start + 2, \\\"toUint16_outOfBounds\\\");\\n        uint16 tempUint;\\n\\n        assembly {\\n            tempUint := mload(add(add(_bytes, 0x2), _start))\\n        }\\n\\n        return tempUint;\\n    }\\n\\n    function toUint32(bytes memory _bytes, uint256 _start) internal pure returns (uint32) {\\n        require(_bytes.length >= _start + 4, \\\"toUint32_outOfBounds\\\");\\n        uint32 tempUint;\\n\\n        assembly {\\n            tempUint := mload(add(add(_bytes, 0x4), _start))\\n        }\\n\\n        return tempUint;\\n    }\\n\\n    function toUint64(bytes memory _bytes, uint256 _start) internal pure returns (uint64) {\\n        require(_bytes.length >= _start + 8, \\\"toUint64_outOfBounds\\\");\\n        uint64 tempUint;\\n\\n        assembly {\\n            tempUint := mload(add(add(_bytes, 0x8), _start))\\n        }\\n\\n        return tempUint;\\n    }\\n\\n    function toUint96(bytes memory _bytes, uint256 _start) internal pure returns (uint96) {\\n        require(_bytes.length >= _start + 12, \\\"toUint96_outOfBounds\\\");\\n        uint96 tempUint;\\n\\n        assembly {\\n            tempUint := mload(add(add(_bytes, 0xc), _start))\\n        }\\n\\n        return tempUint;\\n    }\\n\\n    function toUint128(bytes memory _bytes, uint256 _start) internal pure returns (uint128) {\\n        require(_bytes.length >= _start + 16, \\\"toUint128_outOfBounds\\\");\\n        uint128 tempUint;\\n\\n        assembly {\\n            tempUint := mload(add(add(_bytes, 0x10), _start))\\n        }\\n\\n        return tempUint;\\n    }\\n\\n    function toUint256(bytes memory _bytes, uint256 _start) internal pure returns (uint256) {\\n        require(_bytes.length >= _start + 32, \\\"toUint256_outOfBounds\\\");\\n        uint256 tempUint;\\n\\n        assembly {\\n            tempUint := mload(add(add(_bytes, 0x20), _start))\\n        }\\n\\n        return tempUint;\\n    }\\n\\n    function toBytes32(bytes memory _bytes, uint256 _start) internal pure returns (bytes32) {\\n        require(_bytes.length >= _start + 32, \\\"toBytes32_outOfBounds\\\");\\n        bytes32 tempBytes32;\\n\\n        assembly {\\n            tempBytes32 := mload(add(add(_bytes, 0x20), _start))\\n        }\\n\\n        return tempBytes32;\\n    }\\n\\n    function equal(bytes memory _preBytes, bytes memory _postBytes) internal pure returns (bool) {\\n        bool success = true;\\n\\n        assembly {\\n            let length := mload(_preBytes)\\n\\n            // if lengths don't match the arrays are not equal\\n            switch eq(length, mload(_postBytes))\\n            case 1 {\\n                // cb is a circuit breaker in the for loop since there's\\n                //  no said feature for inline assembly loops\\n                // cb = 1 - don't breaker\\n                // cb = 0 - break\\n                let cb := 1\\n\\n                let mc := add(_preBytes, 0x20)\\n                let end := add(mc, length)\\n\\n                for {\\n                    let cc := add(_postBytes, 0x20)\\n                // the next line is the loop condition:\\n                // while(uint256(mc < end) + cb == 2)\\n                } eq(add(lt(mc, end), cb), 2) {\\n                    mc := add(mc, 0x20)\\n                    cc := add(cc, 0x20)\\n                } {\\n                    // if any of these checks fails then arrays are not equal\\n                    if iszero(eq(mload(mc), mload(cc))) {\\n                        // unsuccess:\\n                        success := 0\\n                        cb := 0\\n                    }\\n                }\\n            }\\n            default {\\n                // unsuccess:\\n                success := 0\\n            }\\n        }\\n\\n        return success;\\n    }\\n\\n    function equalStorage(\\n        bytes storage _preBytes,\\n        bytes memory _postBytes\\n    )\\n        internal\\n        view\\n        returns (bool)\\n    {\\n        bool success = true;\\n\\n        assembly {\\n            // we know _preBytes_offset is 0\\n            let fslot := sload(_preBytes.slot)\\n            // Decode the length of the stored array like in concatStorage().\\n            let slength := div(and(fslot, sub(mul(0x100, iszero(and(fslot, 1))), 1)), 2)\\n            let mlength := mload(_postBytes)\\n\\n            // if lengths don't match the arrays are not equal\\n            switch eq(slength, mlength)\\n            case 1 {\\n                // slength can contain both the length and contents of the array\\n                // if length < 32 bytes so let's prepare for that\\n                // v. http://solidity.readthedocs.io/en/latest/miscellaneous.html#layout-of-state-variables-in-storage\\n                if iszero(iszero(slength)) {\\n                    switch lt(slength, 32)\\n                    case 1 {\\n                        // blank the last byte which is the length\\n                        fslot := mul(div(fslot, 0x100), 0x100)\\n\\n                        if iszero(eq(fslot, mload(add(_postBytes, 0x20)))) {\\n                            // unsuccess:\\n                            success := 0\\n                        }\\n                    }\\n                    default {\\n                        // cb is a circuit breaker in the for loop since there's\\n                        //  no said feature for inline assembly loops\\n                        // cb = 1 - don't breaker\\n                        // cb = 0 - break\\n                        let cb := 1\\n\\n                        // get the keccak hash to get the contents of the array\\n                        mstore(0x0, _preBytes.slot)\\n                        let sc := keccak256(0x0, 0x20)\\n\\n                        let mc := add(_postBytes, 0x20)\\n                        let end := add(mc, mlength)\\n\\n                        // the next line is the loop condition:\\n                        // while(uint256(mc < end) + cb == 2)\\n                        for {} eq(add(lt(mc, end), cb), 2) {\\n                            sc := add(sc, 1)\\n                            mc := add(mc, 0x20)\\n                        } {\\n                            if iszero(eq(sload(sc), mload(mc))) {\\n                                // unsuccess:\\n                                success := 0\\n                                cb := 0\\n                            }\\n                        }\\n                    }\\n                }\\n            }\\n            default {\\n                // unsuccess:\\n                success := 0\\n            }\\n        }\\n\\n        return success;\\n    }\\n}\\n\"},\"@openzeppelin/contracts/utils/introspection/IERC165.sol\":{\"content\":\"// SPDX-License-Identifier: MIT\\n// OpenZeppelin Contracts (last updated v5.1.0) (utils/introspection/IERC165.sol)\\n\\npragma solidity ^0.8.20;\\n\\n/**\\n * @dev Interface of the ERC-165 standard, as defined in the\\n * https://eips.ethereum.org/EIPS/eip-165[ERC].\\n *\\n * Implementers can declare support of contract interfaces, which can then be\\n * queried by others ({ERC165Checker}).\\n *\\n * For an implementation, see {ERC165}.\\n */\\ninterface IERC165 {\\n    /**\\n     * @dev Returns true if this contract implements the interface defined by\\n     * `interfaceId`. See the corresponding\\n     * https://eips.ethereum.org/EIPS/eip-165#how-interfaces-are-identified[ERC section]\\n     * to learn more about how these ids are created.\\n     *\\n     * This function call must use less than 30 000 gas.\\n     */\\n    function supportsInterface(bytes4 interfaceId) external view returns (bool);\\n}\\n\"},\"@openzeppelin/contracts/utils/math/Math.sol\":{\"content\":\"// SPDX-License-Identifier: MIT\\n// OpenZeppelin Contracts (last updated v5.3.0) (utils/math/Math.sol)\\n\\npragma solidity ^0.8.20;\\n\\nimport {Panic} from \\\"../Panic.sol\\\";\\nimport {SafeCast} from \\\"./SafeCast.sol\\\";\\n\\n/**\\n * @dev Standard math utilities missing in the Solidity language.\\n */\\nlibrary Math {\\n    enum Rounding {\\n        Floor, // Toward negative infinity\\n        Ceil, // Toward positive infinity\\n        Trunc, // Toward zero\\n        Expand // Away from zero\\n    }\\n\\n    /**\\n     * @dev Return the 512-bit addition of two uint256.\\n     *\\n     * The result is stored in two 256 variables such that sum = high * 2²⁵⁶ + low.\\n     */\\n    function add512(uint256 a, uint256 b) internal pure returns (uint256 high, uint256 low) {\\n        assembly (\\\"memory-safe\\\") {\\n            low := add(a, b)\\n            high := lt(low, a)\\n        }\\n    }\\n\\n    /**\\n     * @dev Return the 512-bit multiplication of two uint256.\\n     *\\n     * The result is stored in two 256 variables such that product = high * 2²⁵⁶ + low.\\n     */\\n    function mul512(uint256 a, uint256 b) internal pure returns (uint256 high, uint256 low) {\\n        // 512-bit multiply [high low] = x * y. Compute the product mod 2²⁵⁶ and mod 2²⁵⁶ - 1, then use\\n        // the Chinese Remainder Theorem to reconstruct the 512 bit result. The result is stored in two 256\\n        // variables such that product = high * 2²⁵⁶ + low.\\n        assembly (\\\"memory-safe\\\") {\\n            let mm := mulmod(a, b, not(0))\\n            low := mul(a, b)\\n            high := sub(sub(mm, low), lt(mm, low))\\n        }\\n    }\\n\\n    /**\\n     * @dev Returns the addition of two unsigned integers, with a success flag (no overflow).\\n     */\\n    function tryAdd(uint256 a, uint256 b) internal pure returns (bool success, uint256 result) {\\n        unchecked {\\n            uint256 c = a + b;\\n            success = c >= a;\\n            result = c * SafeCast.toUint(success);\\n        }\\n    }\\n\\n    /**\\n     * @dev Returns the subtraction of two unsigned integers, with a success flag (no overflow).\\n     */\\n    function trySub(uint256 a, uint256 b) internal pure returns (bool success, uint256 result) {\\n        unchecked {\\n            uint256 c = a - b;\\n            success = c <= a;\\n            result = c * SafeCast.toUint(success);\\n        }\\n    }\\n\\n    /**\\n     * @dev Returns the multiplication of two unsigned integers, with a success flag (no overflow).\\n     */\\n    function tryMul(uint256 a, uint256 b) internal pure returns (bool success, uint256 result) {\\n        unchecked {\\n            uint256 c = a * b;\\n            assembly (\\\"memory-safe\\\") {\\n                // Only true when the multiplication doesn't overflow\\n                // (c / a == b) || (a == 0)\\n                success := or(eq(div(c, a), b), iszero(a))\\n            }\\n            // equivalent to: success ? c : 0\\n            result = c * SafeCast.toUint(success);\\n        }\\n    }\\n\\n    /**\\n     * @dev Returns the division of two unsigned integers, with a success flag (no division by zero).\\n     */\\n    function tryDiv(uint256 a, uint256 b) internal pure returns (bool success, uint256 result) {\\n        unchecked {\\n            success = b > 0;\\n            assembly (\\\"memory-safe\\\") {\\n                // The `DIV` opcode returns zero when the denominator is 0.\\n                result := div(a, b)\\n            }\\n        }\\n    }\\n\\n    /**\\n     * @dev Returns the remainder of dividing two unsigned integers, with a success flag (no division by zero).\\n     */\\n    function tryMod(uint256 a, uint256 b) internal pure returns (bool success, uint256 result) {\\n        unchecked {\\n            success = b > 0;\\n            assembly (\\\"memory-safe\\\") {\\n                // The `MOD` opcode returns zero when the denominator is 0.\\n                result := mod(a, b)\\n            }\\n        }\\n    }\\n\\n    /**\\n     * @dev Unsigned saturating addition, bounds to `2²⁵⁶ - 1` instead of overflowing.\\n     */\\n    function saturatingAdd(uint256 a, uint256 b) internal pure returns (uint256) {\\n        (bool success, uint256 result) = tryAdd(a, b);\\n        return ternary(success, result, type(uint256).max);\\n    }\\n\\n    /**\\n     * @dev Unsigned saturating subtraction, bounds to zero instead of overflowing.\\n     */\\n    function saturatingSub(uint256 a, uint256 b) internal pure returns (uint256) {\\n        (, uint256 result) = trySub(a, b);\\n        return result;\\n    }\\n\\n    /**\\n     * @dev Unsigned saturating multiplication, bounds to `2²⁵⁶ - 1` instead of overflowing.\\n     */\\n    function saturatingMul(uint256 a, uint256 b) internal pure returns (uint256) {\\n        (bool success, uint256 result) = tryMul(a, b);\\n        return ternary(success, result, type(uint256).max);\\n    }\\n\\n    /**\\n     * @dev Branchless ternary evaluation for `a ? b : c`. Gas costs are constant.\\n     *\\n     * IMPORTANT: This function may reduce bytecode size and consume less gas when used standalone.\\n     * However, the compiler may optimize Solidity ternary operations (i.e. `a ? b : c`) to only compute\\n     * one branch when needed, making this function more expensive.\\n     */\\n    function ternary(bool condition, uint256 a, uint256 b) internal pure returns (uint256) {\\n        unchecked {\\n            // branchless ternary works because:\\n            // b ^ (a ^ b) == a\\n            // b ^ 0 == b\\n            return b ^ ((a ^ b) * SafeCast.toUint(condition));\\n        }\\n    }\\n\\n    /**\\n     * @dev Returns the largest of two numbers.\\n     */\\n    function max(uint256 a, uint256 b) internal pure returns (uint256) {\\n        return ternary(a > b, a, b);\\n    }\\n\\n    /**\\n     * @dev Returns the smallest of two numbers.\\n     */\\n    function min(uint256 a, uint256 b) internal pure returns (uint256) {\\n        return ternary(a < b, a, b);\\n    }\\n\\n    /**\\n     * @dev Returns the average of two numbers. The result is rounded towards\\n     * zero.\\n     */\\n    function average(uint256 a, uint256 b) internal pure returns (uint256) {\\n        // (a + b) / 2 can overflow.\\n        return (a & b) + (a ^ b) / 2;\\n    }\\n\\n    /**\\n     * @dev Returns the ceiling of the division of two numbers.\\n     *\\n     * This differs from standard division with `/` in that it rounds towards infinity instead\\n     * of rounding towards zero.\\n     */\\n    function ceilDiv(uint256 a, uint256 b) internal pure returns (uint256) {\\n        if (b == 0) {\\n            // Guarantee the same behavior as in a regular Solidity division.\\n            Panic.panic(Panic.DIVISION_BY_ZERO);\\n        }\\n\\n        // The following calculation ensures accurate ceiling division without overflow.\\n        // Since a is non-zero, (a - 1) / b will not overflow.\\n        // The largest possible result occurs when (a - 1) / b is type(uint256).max,\\n        // but the largest value we can obtain is type(uint256).max - 1, which happens\\n        // when a = type(uint256).max and b = 1.\\n        unchecked {\\n            return SafeCast.toUint(a > 0) * ((a - 1) / b + 1);\\n        }\\n    }\\n\\n    /**\\n     * @dev Calculates floor(x * y / denominator) with full precision. Throws if result overflows a uint256 or\\n     * denominator == 0.\\n     *\\n     * Original credit to Remco Bloemen under MIT license (https://xn--2-umb.com/21/muldiv) with further edits by\\n     * Uniswap Labs also under MIT license.\\n     */\\n    function mulDiv(uint256 x, uint256 y, uint256 denominator) internal pure returns (uint256 result) {\\n        unchecked {\\n            (uint256 high, uint256 low) = mul512(x, y);\\n\\n            // Handle non-overflow cases, 256 by 256 division.\\n            if (high == 0) {\\n                // Solidity will revert if denominator == 0, unlike the div opcode on its own.\\n                // The surrounding unchecked block does not change this fact.\\n                // See https://docs.soliditylang.org/en/latest/control-structures.html#checked-or-unchecked-arithmetic.\\n                return low / denominator;\\n            }\\n\\n            // Make sure the result is less than 2²⁵⁶. Also prevents denominator == 0.\\n            if (denominator <= high) {\\n                Panic.panic(ternary(denominator == 0, Panic.DIVISION_BY_ZERO, Panic.UNDER_OVERFLOW));\\n            }\\n\\n            ///////////////////////////////////////////////\\n            // 512 by 256 division.\\n            ///////////////////////////////////////////////\\n\\n            // Make division exact by subtracting the remainder from [high low].\\n            uint256 remainder;\\n            assembly (\\\"memory-safe\\\") {\\n                // Compute remainder using mulmod.\\n                remainder := mulmod(x, y, denominator)\\n\\n                // Subtract 256 bit number from 512 bit number.\\n                high := sub(high, gt(remainder, low))\\n                low := sub(low, remainder)\\n            }\\n\\n            // Factor powers of two out of denominator and compute largest power of two divisor of denominator.\\n            // Always >= 1. See https://cs.stackexchange.com/q/138556/92363.\\n\\n            uint256 twos = denominator & (0 - denominator);\\n            assembly (\\\"memory-safe\\\") {\\n                // Divide denominator by twos.\\n                denominator := div(denominator, twos)\\n\\n                // Divide [high low] by twos.\\n                low := div(low, twos)\\n\\n                // Flip twos such that it is 2²⁵⁶ / twos. If twos is zero, then it becomes one.\\n                twos := add(div(sub(0, twos), twos), 1)\\n            }\\n\\n            // Shift in bits from high into low.\\n            low |= high * twos;\\n\\n            // Invert denominator mod 2²⁵⁶. Now that denominator is an odd number, it has an inverse modulo 2²⁵⁶ such\\n            // that denominator * inv ≡ 1 mod 2²⁵⁶. Compute the inverse by starting with a seed that is correct for\\n            // four bits. That is, denominator * inv ≡ 1 mod 2⁴.\\n            uint256 inverse = (3 * denominator) ^ 2;\\n\\n            // Use the Newton-Raphson iteration to improve the precision. Thanks to Hensel's lifting lemma, this also\\n            // works in modular arithmetic, doubling the correct bits in each step.\\n            inverse *= 2 - denominator * inverse; // inverse mod 2⁸\\n            inverse *= 2 - denominator * inverse; // inverse mod 2¹⁶\\n            inverse *= 2 - denominator * inverse; // inverse mod 2³²\\n            inverse *= 2 - denominator * inverse; // inverse mod 2⁶⁴\\n            inverse *= 2 - denominator * inverse; // inverse mod 2¹²⁸\\n            inverse *= 2 - denominator * inverse; // inverse mod 2²⁵⁶\\n\\n            // Because the division is now exact we can divide by multiplying with the modular inverse of denominator.\\n            // This will give us the correct result modulo 2²⁵⁶. Since the preconditions guarantee that the outcome is\\n            // less than 2²⁵⁶, this is the final result. We don't need to compute the high bits of the result and high\\n            // is no longer required.\\n            result = low * inverse;\\n            return result;\\n        }\\n    }\\n\\n    /**\\n     * @dev Calculates x * y / denominator with full precision, following the selected rounding direction.\\n     */\\n    function mulDiv(uint256 x, uint256 y, uint256 denominator, Rounding rounding) internal pure returns (uint256) {\\n        return mulDiv(x, y, denominator) + SafeCast.toUint(unsignedRoundsUp(rounding) && mulmod(x, y, denominator) > 0);\\n    }\\n\\n    /**\\n     * @dev Calculates floor(x * y >> n) with full precision. Throws if result overflows a uint256.\\n     */\\n    function mulShr(uint256 x, uint256 y, uint8 n) internal pure returns (uint256 result) {\\n        unchecked {\\n            (uint256 high, uint256 low) = mul512(x, y);\\n            if (high >= 1 << n) {\\n                Panic.panic(Panic.UNDER_OVERFLOW);\\n            }\\n            return (high << (256 - n)) | (low >> n);\\n        }\\n    }\\n\\n    /**\\n     * @dev Calculates x * y >> n with full precision, following the selected rounding direction.\\n     */\\n    function mulShr(uint256 x, uint256 y, uint8 n, Rounding rounding) internal pure returns (uint256) {\\n        return mulShr(x, y, n) + SafeCast.toUint(unsignedRoundsUp(rounding) && mulmod(x, y, 1 << n) > 0);\\n    }\\n\\n    /**\\n     * @dev Calculate the modular multiplicative inverse of a number in Z/nZ.\\n     *\\n     * If n is a prime, then Z/nZ is a field. In that case all elements are inversible, except 0.\\n     * If n is not a prime, then Z/nZ is not a field, and some elements might not be inversible.\\n     *\\n     * If the input value is not inversible, 0 is returned.\\n     *\\n     * NOTE: If you know for sure that n is (big) a prime, it may be cheaper to use Fermat's little theorem and get the\\n     * inverse using `Math.modExp(a, n - 2, n)`. See {invModPrime}.\\n     */\\n    function invMod(uint256 a, uint256 n) internal pure returns (uint256) {\\n        unchecked {\\n            if (n == 0) return 0;\\n\\n            // The inverse modulo is calculated using the Extended Euclidean Algorithm (iterative version)\\n            // Used to compute integers x and y such that: ax + ny = gcd(a, n).\\n            // When the gcd is 1, then the inverse of a modulo n exists and it's x.\\n            // ax + ny = 1\\n            // ax = 1 + (-y)n\\n            // ax ≡ 1 (mod n) # x is the inverse of a modulo n\\n\\n            // If the remainder is 0 the gcd is n right away.\\n            uint256 remainder = a % n;\\n            uint256 gcd = n;\\n\\n            // Therefore the initial coefficients are:\\n            // ax + ny = gcd(a, n) = n\\n            // 0a + 1n = n\\n            int256 x = 0;\\n            int256 y = 1;\\n\\n            while (remainder != 0) {\\n                uint256 quotient = gcd / remainder;\\n\\n                (gcd, remainder) = (\\n                    // The old remainder is the next gcd to try.\\n                    remainder,\\n                    // Compute the next remainder.\\n                    // Can't overflow given that (a % gcd) * (gcd // (a % gcd)) <= gcd\\n                    // where gcd is at most n (capped to type(uint256).max)\\n                    gcd - remainder * quotient\\n                );\\n\\n                (x, y) = (\\n                    // Increment the coefficient of a.\\n                    y,\\n                    // Decrement the coefficient of n.\\n                    // Can overflow, but the result is casted to uint256 so that the\\n                    // next value of y is \\\"wrapped around\\\" to a value between 0 and n - 1.\\n                    x - y * int256(quotient)\\n                );\\n            }\\n\\n            if (gcd != 1) return 0; // No inverse exists.\\n            return ternary(x < 0, n - uint256(-x), uint256(x)); // Wrap the result if it's negative.\\n        }\\n    }\\n\\n    /**\\n     * @dev Variant of {invMod}. More efficient, but only works if `p` is known to be a prime greater than `2`.\\n     *\\n     * From https://en.wikipedia.org/wiki/Fermat%27s_little_theorem[Fermat's little theorem], we know that if p is\\n     * prime, then `a**(p-1) ≡ 1 mod p`. As a consequence, we have `a * a**(p-2) ≡ 1 mod p`, which means that\\n     * `a**(p-2)` is the modular multiplicative inverse of a in Fp.\\n     *\\n     * NOTE: this function does NOT check that `p` is a prime greater than `2`.\\n     */\\n    function invModPrime(uint256 a, uint256 p) internal view returns (uint256) {\\n        unchecked {\\n            return Math.modExp(a, p - 2, p);\\n        }\\n    }\\n\\n    /**\\n     * @dev Returns the modular exponentiation of the specified base, exponent and modulus (b ** e % m)\\n     *\\n     * Requirements:\\n     * - modulus can't be zero\\n     * - underlying staticcall to precompile must succeed\\n     *\\n     * IMPORTANT: The result is only valid if the underlying call succeeds. When using this function, make\\n     * sure the chain you're using it on supports the precompiled contract for modular exponentiation\\n     * at address 0x05 as specified in https://eips.ethereum.org/EIPS/eip-198[EIP-198]. Otherwise,\\n     * the underlying function will succeed given the lack of a revert, but the result may be incorrectly\\n     * interpreted as 0.\\n     */\\n    function modExp(uint256 b, uint256 e, uint256 m) internal view returns (uint256) {\\n        (bool success, uint256 result) = tryModExp(b, e, m);\\n        if (!success) {\\n            Panic.panic(Panic.DIVISION_BY_ZERO);\\n        }\\n        return result;\\n    }\\n\\n    /**\\n     * @dev Returns the modular exponentiation of the specified base, exponent and modulus (b ** e % m).\\n     * It includes a success flag indicating if the operation succeeded. Operation will be marked as failed if trying\\n     * to operate modulo 0 or if the underlying precompile reverted.\\n     *\\n     * IMPORTANT: The result is only valid if the success flag is true. When using this function, make sure the chain\\n     * you're using it on supports the precompiled contract for modular exponentiation at address 0x05 as specified in\\n     * https://eips.ethereum.org/EIPS/eip-198[EIP-198]. Otherwise, the underlying function will succeed given the lack\\n     * of a revert, but the result may be incorrectly interpreted as 0.\\n     */\\n    function tryModExp(uint256 b, uint256 e, uint256 m) internal view returns (bool success, uint256 result) {\\n        if (m == 0) return (false, 0);\\n        assembly (\\\"memory-safe\\\") {\\n            let ptr := mload(0x40)\\n            // | Offset    | Content    | Content (Hex)                                                      |\\n            // |-----------|------------|--------------------------------------------------------------------|\\n            // | 0x00:0x1f | size of b  | 0x0000000000000000000000000000000000000000000000000000000000000020 |\\n            // | 0x20:0x3f | size of e  | 0x0000000000000000000000000000000000000000000000000000000000000020 |\\n            // | 0x40:0x5f | size of m  | 0x0000000000000000000000000000000000000000000000000000000000000020 |\\n            // | 0x60:0x7f | value of b | 0x<.............................................................b> |\\n            // | 0x80:0x9f | value of e | 0x<.............................................................e> |\\n            // | 0xa0:0xbf | value of m | 0x<.............................................................m> |\\n            mstore(ptr, 0x20)\\n            mstore(add(ptr, 0x20), 0x20)\\n            mstore(add(ptr, 0x40), 0x20)\\n            mstore(add(ptr, 0x60), b)\\n            mstore(add(ptr, 0x80), e)\\n            mstore(add(ptr, 0xa0), m)\\n\\n            // Given the result < m, it's guaranteed to fit in 32 bytes,\\n            // so we can use the memory scratch space located at offset 0.\\n            success := staticcall(gas(), 0x05, ptr, 0xc0, 0x00, 0x20)\\n            result := mload(0x00)\\n        }\\n    }\\n\\n    /**\\n     * @dev Variant of {modExp} that supports inputs of arbitrary length.\\n     */\\n    function modExp(bytes memory b, bytes memory e, bytes memory m) internal view returns (bytes memory) {\\n        (bool success, bytes memory result) = tryModExp(b, e, m);\\n        if (!success) {\\n            Panic.panic(Panic.DIVISION_BY_ZERO);\\n        }\\n        return result;\\n    }\\n\\n    /**\\n     * @dev Variant of {tryModExp} that supports inputs of arbitrary length.\\n     */\\n    function tryModExp(\\n        bytes memory b,\\n        bytes memory e,\\n        bytes memory m\\n    ) internal view returns (bool success, bytes memory result) {\\n        if (_zeroBytes(m)) return (false, new bytes(0));\\n\\n        uint256 mLen = m.length;\\n\\n        // Encode call args in result and move the free memory pointer\\n        result = abi.encodePacked(b.length, e.length, mLen, b, e, m);\\n\\n        assembly (\\\"memory-safe\\\") {\\n            let dataPtr := add(result, 0x20)\\n            // Write result on top of args to avoid allocating extra memory.\\n            success := staticcall(gas(), 0x05, dataPtr, mload(result), dataPtr, mLen)\\n            // Overwrite the length.\\n            // result.length > returndatasize() is guaranteed because returndatasize() == m.length\\n            mstore(result, mLen)\\n            // Set the memory pointer after the returned data.\\n            mstore(0x40, add(dataPtr, mLen))\\n        }\\n    }\\n\\n    /**\\n     * @dev Returns whether the provided byte array is zero.\\n     */\\n    function _zeroBytes(bytes memory byteArray) private pure returns (bool) {\\n        for (uint256 i = 0; i < byteArray.length; ++i) {\\n            if (byteArray[i] != 0) {\\n                return false;\\n            }\\n        }\\n        return true;\\n    }\\n\\n    /**\\n     * @dev Returns the square root of a number. If the number is not a perfect square, the value is rounded\\n     * towards zero.\\n     *\\n     * This method is based on Newton's method for computing square roots; the algorithm is restricted to only\\n     * using integer operations.\\n     */\\n    function sqrt(uint256 a) internal pure returns (uint256) {\\n        unchecked {\\n            // Take care of easy edge cases when a == 0 or a == 1\\n            if (a <= 1) {\\n                return a;\\n            }\\n\\n            // In this function, we use Newton's method to get a root of `f(x) := x² - a`. It involves building a\\n            // sequence x_n that converges toward sqrt(a). For each iteration x_n, we also define the error between\\n            // the current value as `ε_n = | x_n - sqrt(a) |`.\\n            //\\n            // For our first estimation, we consider `e` the smallest power of 2 which is bigger than the square root\\n            // of the target. (i.e. `2**(e-1) ≤ sqrt(a) < 2**e`). We know that `e ≤ 128` because `(2¹²⁸)² = 2²⁵⁶` is\\n            // bigger than any uint256.\\n            //\\n            // By noticing that\\n            // `2**(e-1) ≤ sqrt(a) < 2**e → (2**(e-1))² ≤ a < (2**e)² → 2**(2*e-2) ≤ a < 2**(2*e)`\\n            // we can deduce that `e - 1` is `log2(a) / 2`. We can thus compute `x_n = 2**(e-1)` using a method similar\\n            // to the msb function.\\n            uint256 aa = a;\\n            uint256 xn = 1;\\n\\n            if (aa >= (1 << 128)) {\\n                aa >>= 128;\\n                xn <<= 64;\\n            }\\n            if (aa >= (1 << 64)) {\\n                aa >>= 64;\\n                xn <<= 32;\\n            }\\n            if (aa >= (1 << 32)) {\\n                aa >>= 32;\\n                xn <<= 16;\\n            }\\n            if (aa >= (1 << 16)) {\\n                aa >>= 16;\\n                xn <<= 8;\\n            }\\n            if (aa >= (1 << 8)) {\\n                aa >>= 8;\\n                xn <<= 4;\\n            }\\n            if (aa >= (1 << 4)) {\\n                aa >>= 4;\\n                xn <<= 2;\\n            }\\n            if (aa >= (1 << 2)) {\\n                xn <<= 1;\\n            }\\n\\n            // We now have x_n such that `x_n = 2**(e-1) ≤ sqrt(a) < 2**e = 2 * x_n`. This implies ε_n ≤ 2**(e-1).\\n            //\\n            // We can refine our estimation by noticing that the middle of that interval minimizes the error.\\n            // If we move x_n to equal 2**(e-1) + 2**(e-2), then we reduce the error to ε_n ≤ 2**(e-2).\\n            // This is going to be our x_0 (and ε_0)\\n            xn = (3 * xn) >> 1; // ε_0 := | x_0 - sqrt(a) | ≤ 2**(e-2)\\n\\n            // From here, Newton's method give us:\\n            // x_{n+1} = (x_n + a / x_n) / 2\\n            //\\n            // One should note that:\\n            // x_{n+1}² - a = ((x_n + a / x_n) / 2)² - a\\n            //              = ((x_n² + a) / (2 * x_n))² - a\\n            //              = (x_n⁴ + 2 * a * x_n² + a²) / (4 * x_n²) - a\\n            //              = (x_n⁴ + 2 * a * x_n² + a² - 4 * a * x_n²) / (4 * x_n²)\\n            //              = (x_n⁴ - 2 * a * x_n² + a²) / (4 * x_n²)\\n            //              = (x_n² - a)² / (2 * x_n)²\\n            //              = ((x_n² - a) / (2 * x_n))²\\n            //              ≥ 0\\n            // Which proves that for all n ≥ 1, sqrt(a) ≤ x_n\\n            //\\n            // This gives us the proof of quadratic convergence of the sequence:\\n            // ε_{n+1} = | x_{n+1} - sqrt(a) |\\n            //         = | (x_n + a / x_n) / 2 - sqrt(a) |\\n            //         = | (x_n² + a - 2*x_n*sqrt(a)) / (2 * x_n) |\\n            //         = | (x_n - sqrt(a))² / (2 * x_n) |\\n            //         = | ε_n² / (2 * x_n) |\\n            //         = ε_n² / | (2 * x_n) |\\n            //\\n            // For the first iteration, we have a special case where x_0 is known:\\n            // ε_1 = ε_0² / | (2 * x_0) |\\n            //     ≤ (2**(e-2))² / (2 * (2**(e-1) + 2**(e-2)))\\n            //     ≤ 2**(2*e-4) / (3 * 2**(e-1))\\n            //     ≤ 2**(e-3) / 3\\n            //     ≤ 2**(e-3-log2(3))\\n            //     ≤ 2**(e-4.5)\\n            //\\n            // For the following iterations, we use the fact that, 2**(e-1) ≤ sqrt(a) ≤ x_n:\\n            // ε_{n+1} = ε_n² / | (2 * x_n) |\\n            //         ≤ (2**(e-k))² / (2 * 2**(e-1))\\n            //         ≤ 2**(2*e-2*k) / 2**e\\n            //         ≤ 2**(e-2*k)\\n            xn = (xn + a / xn) >> 1; // ε_1 := | x_1 - sqrt(a) | ≤ 2**(e-4.5)  -- special case, see above\\n            xn = (xn + a / xn) >> 1; // ε_2 := | x_2 - sqrt(a) | ≤ 2**(e-9)    -- general case with k = 4.5\\n            xn = (xn + a / xn) >> 1; // ε_3 := | x_3 - sqrt(a) | ≤ 2**(e-18)   -- general case with k = 9\\n            xn = (xn + a / xn) >> 1; // ε_4 := | x_4 - sqrt(a) | ≤ 2**(e-36)   -- general case with k = 18\\n            xn = (xn + a / xn) >> 1; // ε_5 := | x_5 - sqrt(a) | ≤ 2**(e-72)   -- general case with k = 36\\n            xn = (xn + a / xn) >> 1; // ε_6 := | x_6 - sqrt(a) | ≤ 2**(e-144)  -- general case with k = 72\\n\\n            // Because e ≤ 128 (as discussed during the first estimation phase), we know have reached a precision\\n            // ε_6 ≤ 2**(e-144) < 1. Given we're operating on integers, then we can ensure that xn is now either\\n            // sqrt(a) or sqrt(a) + 1.\\n            return xn - SafeCast.toUint(xn > a / xn);\\n        }\\n    }\\n\\n    /**\\n     * @dev Calculates sqrt(a), following the selected rounding direction.\\n     */\\n    function sqrt(uint256 a, Rounding rounding) internal pure returns (uint256) {\\n        unchecked {\\n            uint256 result = sqrt(a);\\n            return result + SafeCast.toUint(unsignedRoundsUp(rounding) && result * result < a);\\n        }\\n    }\\n\\n    /**\\n     * @dev Return the log in base 2 of a positive value rounded towards zero.\\n     * Returns 0 if given 0.\\n     */\\n    function log2(uint256 x) internal pure returns (uint256 r) {\\n        // If value has upper 128 bits set, log2 result is at least 128\\n        r = SafeCast.toUint(x > 0xffffffffffffffffffffffffffffffff) << 7;\\n        // If upper 64 bits of 128-bit half set, add 64 to result\\n        r |= SafeCast.toUint((x >> r) > 0xffffffffffffffff) << 6;\\n        // If upper 32 bits of 64-bit half set, add 32 to result\\n        r |= SafeCast.toUint((x >> r) > 0xffffffff) << 5;\\n        // If upper 16 bits of 32-bit half set, add 16 to result\\n        r |= SafeCast.toUint((x >> r) > 0xffff) << 4;\\n        // If upper 8 bits of 16-bit half set, add 8 to result\\n        r |= SafeCast.toUint((x >> r) > 0xff) << 3;\\n        // If upper 4 bits of 8-bit half set, add 4 to result\\n        r |= SafeCast.toUint((x >> r) > 0xf) << 2;\\n\\n        // Shifts value right by the current result and use it as an index into this lookup table:\\n        //\\n        // | x (4 bits) |  index  | table[index] = MSB position |\\n        // |------------|---------|-----------------------------|\\n        // |    0000    |    0    |        table[0] = 0         |\\n        // |    0001    |    1    |        table[1] = 0         |\\n        // |    0010    |    2    |        table[2] = 1         |\\n        // |    0011    |    3    |        table[3] = 1         |\\n        // |    0100    |    4    |        table[4] = 2         |\\n        // |    0101    |    5    |        table[5] = 2         |\\n        // |    0110    |    6    |        table[6] = 2         |\\n        // |    0111    |    7    |        table[7] = 2         |\\n        // |    1000    |    8    |        table[8] = 3         |\\n        // |    1001    |    9    |        table[9] = 3         |\\n        // |    1010    |   10    |        table[10] = 3        |\\n        // |    1011    |   11    |        table[11] = 3        |\\n        // |    1100    |   12    |        table[12] = 3        |\\n        // |    1101    |   13    |        table[13] = 3        |\\n        // |    1110    |   14    |        table[14] = 3        |\\n        // |    1111    |   15    |        table[15] = 3        |\\n        //\\n        // The lookup table is represented as a 32-byte value with the MSB positions for 0-15 in the last 16 bytes.\\n        assembly (\\\"memory-safe\\\") {\\n            r := or(r, byte(shr(r, x), 0x0000010102020202030303030303030300000000000000000000000000000000))\\n        }\\n    }\\n\\n    /**\\n     * @dev Return the log in base 2, following the selected rounding direction, of a positive value.\\n     * Returns 0 if given 0.\\n     */\\n    function log2(uint256 value, Rounding rounding) internal pure returns (uint256) {\\n        unchecked {\\n            uint256 result = log2(value);\\n            return result + SafeCast.toUint(unsignedRoundsUp(rounding) && 1 << result < value);\\n        }\\n    }\\n\\n    /**\\n     * @dev Return the log in base 10 of a positive value rounded towards zero.\\n     * Returns 0 if given 0.\\n     */\\n    function log10(uint256 value) internal pure returns (uint256) {\\n        uint256 result = 0;\\n        unchecked {\\n            if (value >= 10 ** 64) {\\n                value /= 10 ** 64;\\n                result += 64;\\n            }\\n            if (value >= 10 ** 32) {\\n                value /= 10 ** 32;\\n                result += 32;\\n            }\\n            if (value >= 10 ** 16) {\\n                value /= 10 ** 16;\\n                result += 16;\\n            }\\n            if (value >= 10 ** 8) {\\n                value /= 10 ** 8;\\n                result += 8;\\n            }\\n            if (value >= 10 ** 4) {\\n                value /= 10 ** 4;\\n                result += 4;\\n            }\\n            if (value >= 10 ** 2) {\\n                value /= 10 ** 2;\\n                result += 2;\\n            }\\n            if (value >= 10 ** 1) {\\n                result += 1;\\n            }\\n        }\\n        return result;\\n    }\\n\\n    /**\\n     * @dev Return the log in base 10, following the selected rounding direction, of a positive value.\\n     * Returns 0 if given 0.\\n     */\\n    function log10(uint256 value, Rounding rounding) internal pure returns (uint256) {\\n        unchecked {\\n            uint256 result = log10(value);\\n            return result + SafeCast.toUint(unsignedRoundsUp(rounding) && 10 ** result < value);\\n        }\\n    }\\n\\n    /**\\n     * @dev Return the log in base 256 of a positive value rounded towards zero.\\n     * Returns 0 if given 0.\\n     *\\n     * Adding one to the result gives the number of pairs of hex symbols needed to represent `value` as a hex string.\\n     */\\n    function log256(uint256 x) internal pure returns (uint256 r) {\\n        // If value has upper 128 bits set, log2 result is at least 128\\n        r = SafeCast.toUint(x > 0xffffffffffffffffffffffffffffffff) << 7;\\n        // If upper 64 bits of 128-bit half set, add 64 to result\\n        r |= SafeCast.toUint((x >> r) > 0xffffffffffffffff) << 6;\\n        // If upper 32 bits of 64-bit half set, add 32 to result\\n        r |= SafeCast.toUint((x >> r) > 0xffffffff) << 5;\\n        // If upper 16 bits of 32-bit half set, add 16 to result\\n        r |= SafeCast.toUint((x >> r) > 0xffff) << 4;\\n        // Add 1 if upper 8 bits of 16-bit half set, and divide accumulated result by 8\\n        return (r >> 3) | SafeCast.toUint((x >> r) > 0xff);\\n    }\\n\\n    /**\\n     * @dev Return the log in base 256, following the selected rounding direction, of a positive value.\\n     * Returns 0 if given 0.\\n     */\\n    function log256(uint256 value, Rounding rounding) internal pure returns (uint256) {\\n        unchecked {\\n            uint256 result = log256(value);\\n            return result + SafeCast.toUint(unsignedRoundsUp(rounding) && 1 << (result << 3) < value);\\n        }\\n    }\\n\\n    /**\\n     * @dev Returns whether a provided rounding mode is considered rounding up for unsigned integers.\\n     */\\n    function unsignedRoundsUp(Rounding rounding) internal pure returns (bool) {\\n        return uint8(rounding) % 2 == 1;\\n    }\\n}\\n\"},\"@openzeppelin/contracts/utils/StorageSlot.sol\":{\"content\":\"// SPDX-License-Identifier: MIT\\n// OpenZeppelin Contracts (last updated v5.1.0) (utils/StorageSlot.sol)\\n// This file was procedurally generated from scripts/generate/templates/StorageSlot.js.\\n\\npragma solidity ^0.8.20;\\n\\n/**\\n * @dev Library for reading and writing primitive types to specific storage slots.\\n *\\n * Storage slots are often used to avoid storage conflict when dealing with upgradeable contracts.\\n * This library helps with reading and writing to such slots without the need for inline assembly.\\n *\\n * The functions in this library return Slot structs that contain a `value` member that can be used to read or write.\\n *\\n * Example usage to set ERC-1967 implementation slot:\\n * ```solidity\\n * contract ERC1967 {\\n *     // Define the slot. Alternatively, use the SlotDerivation library to derive the slot.\\n *     bytes32 internal constant _IMPLEMENTATION_SLOT = 0x360894a13ba1a3210667c828492db98dca3e2076cc3735a920a3ca505d382bbc;\\n *\\n *     function _getImplementation() internal view returns (address) {\\n *         return StorageSlot.getAddressSlot(_IMPLEMENTATION_SLOT).value;\\n *     }\\n *\\n *     function _setImplementation(address newImplementation) internal {\\n *         require(newImplementation.code.length > 0);\\n *         StorageSlot.getAddressSlot(_IMPLEMENTATION_SLOT).value = newImplementation;\\n *     }\\n * }\\n * ```\\n *\\n * TIP: Consider using this library along with {SlotDerivation}.\\n */\\nlibrary StorageSlot {\\n    struct AddressSlot {\\n        address value;\\n    }\\n\\n    struct BooleanSlot {\\n        bool value;\\n    }\\n\\n    struct Bytes32Slot {\\n        bytes32 value;\\n    }\\n\\n    struct Uint256Slot {\\n        uint256 value;\\n    }\\n\\n    struct Int256Slot {\\n        int256 value;\\n    }\\n\\n    struct StringSlot {\\n        string value;\\n    }\\n\\n    struct BytesSlot {\\n        bytes value;\\n    }\\n\\n    /**\\n     * @dev Returns an `AddressSlot` with member `value` located at `slot`.\\n     */\\n    function getAddressSlot(bytes32 slot) internal pure returns (AddressSlot storage r) {\\n        assembly (\\\"memory-safe\\\") {\\n            r.slot := slot\\n        }\\n    }\\n\\n    /**\\n     * @dev Returns a `BooleanSlot` with member `value` located at `slot`.\\n     */\\n    function getBooleanSlot(bytes32 slot) internal pure returns (BooleanSlot storage r) {\\n        assembly (\\\"memory-safe\\\") {\\n            r.slot := slot\\n        }\\n    }\\n\\n    /**\\n     * @dev Returns a `Bytes32Slot` with member `value` located at `slot`.\\n     */\\n    function getBytes32Slot(bytes32 slot) internal pure returns (Bytes32Slot storage r) {\\n        assembly (\\\"memory-safe\\\") {\\n            r.slot := slot\\n        }\\n    }\\n\\n    /**\\n     * @dev Returns a `Uint256Slot` with member `value` located at `slot`.\\n     */\\n    function getUint256Slot(bytes32 slot) internal pure returns (Uint256Slot storage r) {\\n        assembly (\\\"memory-safe\\\") {\\n            r.slot := slot\\n        }\\n    }\\n\\n    /**\\n     * @dev Returns a `Int256Slot` with member `value` located at `slot`.\\n     */\\n    function getInt256Slot(bytes32 slot) internal pure returns (Int256Slot storage r) {\\n        assembly (\\\"memory-safe\\\") {\\n            r.slot := slot\\n        }\\n    }\\n\\n    /**\\n     * @dev Returns a `StringSlot` with member `value` located at `slot`.\\n     */\\n    function getStringSlot(bytes32 slot) internal pure returns (StringSlot storage r) {\\n        assembly (\\\"memory-safe\\\") {\\n            r.slot := slot\\n        }\\n    }\\n\\n    /**\\n     * @dev Returns an `StringSlot` representation of the string storage pointer `store`.\\n     */\\n    function getStringSlot(string storage store) internal pure returns (StringSlot storage r) {\\n        assembly (\\\"memory-safe\\\") {\\n            r.slot := store.slot\\n        }\\n    }\\n\\n    /**\\n     * @dev Returns a `BytesSlot` with member `value` located at `slot`.\\n     */\\n    function getBytesSlot(bytes32 slot) internal pure returns (BytesSlot storage r) {\\n        assembly (\\\"memory-safe\\\") {\\n            r.slot := slot\\n        }\\n    }\\n\\n    /**\\n     * @dev Returns an `BytesSlot` representation of the bytes storage pointer `store`.\\n     */\\n    function getBytesSlot(bytes storage store) internal pure returns (BytesSlot storage r) {\\n        assembly (\\\"memory-safe\\\") {\\n            r.slot := store.slot\\n        }\\n    }\\n}\\n\"},\"@openzeppelin/contracts/utils/SlotDerivation.sol\":{\"content\":\"// SPDX-License-Identifier: MIT\\n// OpenZeppelin Contracts (last updated v5.3.0) (utils/SlotDerivation.sol)\\n// This file was procedurally generated from scripts/generate/templates/SlotDerivation.js.\\n\\npragma solidity ^0.8.20;\\n\\n/**\\n * @dev Library for computing storage (and transient storage) locations from namespaces and deriving slots\\n * corresponding to standard patterns. The derivation method for array and mapping matches the storage layout used by\\n * the solidity language / compiler.\\n *\\n * See https://docs.soliditylang.org/en/v0.8.20/internals/layout_in_storage.html#mappings-and-dynamic-arrays[Solidity docs for mappings and dynamic arrays.].\\n *\\n * Example usage:\\n * ```solidity\\n * contract Example {\\n *     // Add the library methods\\n *     using StorageSlot for bytes32;\\n *     using SlotDerivation for bytes32;\\n *\\n *     // Declare a namespace\\n *     string private constant _NAMESPACE = \\\"<namespace>\\\"; // eg. OpenZeppelin.Slot\\n *\\n *     function setValueInNamespace(uint256 key, address newValue) internal {\\n *         _NAMESPACE.erc7201Slot().deriveMapping(key).getAddressSlot().value = newValue;\\n *     }\\n *\\n *     function getValueInNamespace(uint256 key) internal view returns (address) {\\n *         return _NAMESPACE.erc7201Slot().deriveMapping(key).getAddressSlot().value;\\n *     }\\n * }\\n * ```\\n *\\n * TIP: Consider using this library along with {StorageSlot}.\\n *\\n * NOTE: This library provides a way to manipulate storage locations in a non-standard way. Tooling for checking\\n * upgrade safety will ignore the slots accessed through this library.\\n *\\n * _Available since v5.1._\\n */\\nlibrary SlotDerivation {\\n    /**\\n     * @dev Derive an ERC-7201 slot from a string (namespace).\\n     */\\n    function erc7201Slot(string memory namespace) internal pure returns (bytes32 slot) {\\n        assembly (\\\"memory-safe\\\") {\\n            mstore(0x00, sub(keccak256(add(namespace, 0x20), mload(namespace)), 1))\\n            slot := and(keccak256(0x00, 0x20), not(0xff))\\n        }\\n    }\\n\\n    /**\\n     * @dev Add an offset to a slot to get the n-th element of a structure or an array.\\n     */\\n    function offset(bytes32 slot, uint256 pos) internal pure returns (bytes32 result) {\\n        unchecked {\\n            return bytes32(uint256(slot) + pos);\\n        }\\n    }\\n\\n    /**\\n     * @dev Derive the location of the first element in an array from the slot where the length is stored.\\n     */\\n    function deriveArray(bytes32 slot) internal pure returns (bytes32 result) {\\n        assembly (\\\"memory-safe\\\") {\\n            mstore(0x00, slot)\\n            result := keccak256(0x00, 0x20)\\n        }\\n    }\\n\\n    /**\\n     * @dev Derive the location of a mapping element from the key.\\n     */\\n    function deriveMapping(bytes32 slot, address key) internal pure returns (bytes32 result) {\\n        assembly (\\\"memory-safe\\\") {\\n            mstore(0x00, and(key, shr(96, not(0))))\\n            mstore(0x20, slot)\\n            result := keccak256(0x00, 0x40)\\n        }\\n    }\\n\\n    /**\\n     * @dev Derive the location of a mapping element from the key.\\n     */\\n    function deriveMapping(bytes32 slot, bool key) internal pure returns (bytes32 result) {\\n        assembly (\\\"memory-safe\\\") {\\n            mstore(0x00, iszero(iszero(key)))\\n            mstore(0x20, slot)\\n            result := keccak256(0x00, 0x40)\\n        }\\n    }\\n\\n    /**\\n     * @dev Derive the location of a mapping element from the key.\\n     */\\n    function deriveMapping(bytes32 slot, bytes32 key) internal pure returns (bytes32 result) {\\n        assembly (\\\"memory-safe\\\") {\\n            mstore(0x00, key)\\n            mstore(0x20, slot)\\n            result := keccak256(0x00, 0x40)\\n        }\\n    }\\n\\n    /**\\n     * @dev Derive the location of a mapping element from the key.\\n     */\\n    function deriveMapping(bytes32 slot, uint256 key) internal pure returns (bytes32 result) {\\n        assembly (\\\"memory-safe\\\") {\\n            mstore(0x00, key)\\n            mstore(0x20, slot)\\n            result := keccak256(0x00, 0x40)\\n        }\\n    }\\n\\n    /**\\n     * @dev Derive the location of a mapping element from the key.\\n     */\\n    function deriveMapping(bytes32 slot, int256 key) internal pure returns (bytes32 result) {\\n        assembly (\\\"memory-safe\\\") {\\n            mstore(0x00, key)\\n            mstore(0x20, slot)\\n            result := keccak256(0x00, 0x40)\\n        }\\n    }\\n\\n    /**\\n     * @dev Derive the location of a mapping element from the key.\\n     */\\n    function deriveMapping(bytes32 slot, string memory key) internal pure returns (bytes32 result) {\\n        assembly (\\\"memory-safe\\\") {\\n            let length := mload(key)\\n            let begin := add(key, 0x20)\\n            let end := add(begin, length)\\n            let cache := mload(end)\\n            mstore(end, slot)\\n            result := keccak256(begin, add(length, 0x20))\\n            mstore(end, cache)\\n        }\\n    }\\n\\n    /**\\n     * @dev Derive the location of a mapping element from the key.\\n     */\\n    function deriveMapping(bytes32 slot, bytes memory key) internal pure returns (bytes32 result) {\\n        assembly (\\\"memory-safe\\\") {\\n            let length := mload(key)\\n            let begin := add(key, 0x20)\\n            let end := add(begin, length)\\n            let cache := mload(end)\\n            mstore(end, slot)\\n            result := keccak256(begin, add(length, 0x20))\\n            mstore(end, cache)\\n        }\\n    }\\n}\\n\"},\"@openzeppelin/contracts/utils/Comparators.sol\":{\"content\":\"// SPDX-License-Identifier: MIT\\n// OpenZeppelin Contracts (last updated v5.1.0) (utils/Comparators.sol)\\n\\npragma solidity ^0.8.20;\\n\\n/**\\n * @dev Provides a set of functions to compare values.\\n *\\n * _Available since v5.1._\\n */\\nlibrary Comparators {\\n    function lt(uint256 a, uint256 b) internal pure returns (bool) {\\n        return a < b;\\n    }\\n\\n    function gt(uint256 a, uint256 b) internal pure returns (bool) {\\n        return a > b;\\n    }\\n}\\n\"},\"@openzeppelin/contracts/token/ERC1155/IERC1155Receiver.sol\":{\"content\":\"// SPDX-License-Identifier: MIT\\n// OpenZeppelin Contracts (last updated v5.1.0) (token/ERC1155/IERC1155Receiver.sol)\\n\\npragma solidity ^0.8.20;\\n\\nimport {IERC165} from \\\"../../utils/introspection/IERC165.sol\\\";\\n\\n/**\\n * @dev Interface that must be implemented by smart contracts in order to receive\\n * ERC-1155 token transfers.\\n */\\ninterface IERC1155Receiver is IERC165 {\\n    /**\\n     * @dev Handles the receipt of a single ERC-1155 token type. This function is\\n     * called at the end of a `safeTransferFrom` after the balance has been updated.\\n     *\\n     * NOTE: To accept the transfer, this must return\\n     * `bytes4(keccak256(\\\"onERC1155Received(address,address,uint256,uint256,bytes)\\\"))`\\n     * (i.e. 0xf23a6e61, or its own function selector).\\n     *\\n     * @param operator The address which initiated the transfer (i.e. msg.sender)\\n     * @param from The address which previously owned the token\\n     * @param id The ID of the token being transferred\\n     * @param value The amount of tokens being transferred\\n     * @param data Additional data with no specified format\\n     * @return `bytes4(keccak256(\\\"onERC1155Received(address,address,uint256,uint256,bytes)\\\"))` if transfer is allowed\\n     */\\n    function onERC1155Received(\\n        address operator,\\n        address from,\\n        uint256 id,\\n        uint256 value,\\n        bytes calldata data\\n    ) external returns (bytes4);\\n\\n    /**\\n     * @dev Handles the receipt of a multiple ERC-1155 token types. This function\\n     * is called at the end of a `safeBatchTransferFrom` after the balances have\\n     * been updated.\\n     *\\n     * NOTE: To accept the transfer(s), this must return\\n     * `bytes4(keccak256(\\\"onERC1155BatchReceived(address,address,uint256[],uint256[],bytes)\\\"))`\\n     * (i.e. 0xbc197c81, or its own function selector).\\n     *\\n     * @param operator The address which initiated the batch transfer (i.e. msg.sender)\\n     * @param from The address which previously owned the token\\n     * @param ids An array containing ids of each token being transferred (order and length must match values array)\\n     * @param values An array containing amounts of each token being transferred (order and length must match ids array)\\n     * @param data Additional data with no specified format\\n     * @return `bytes4(keccak256(\\\"onERC1155BatchReceived(address,address,uint256[],uint256[],bytes)\\\"))` if transfer is allowed\\n     */\\n    function onERC1155BatchReceived(\\n        address operator,\\n        address from,\\n        uint256[] calldata ids,\\n        uint256[] calldata values,\\n        bytes calldata data\\n    ) external returns (bytes4);\\n}\\n\"},\"@openzeppelin/contracts-upgradeable/proxy/utils/Initializable.sol\":{\"content\":\"// SPDX-License-Identifier: MIT\\n// OpenZeppelin Contracts (last updated v5.3.0) (proxy/utils/Initializable.sol)\\n\\npragma solidity ^0.8.20;\\n\\n/**\\n * @dev This is a base contract to aid in writing upgradeable contracts, or any kind of contract that will be deployed\\n * behind a proxy. Since proxied contracts do not make use of a constructor, it's common to move constructor logic to an\\n * external initializer function, usually called `initialize`. It then becomes necessary to protect this initializer\\n * function so it can only be called once. The {initializer} modifier provided by this contract will have this effect.\\n *\\n * The initialization functions use a version number. Once a version number is used, it is consumed and cannot be\\n * reused. This mechanism prevents re-execution of each \\\"step\\\" but allows the creation of new initialization steps in\\n * case an upgrade adds a module that needs to be initialized.\\n *\\n * For example:\\n *\\n * [.hljs-theme-light.nopadding]\\n * ```solidity\\n * contract MyToken is ERC20Upgradeable {\\n *     function initialize() initializer public {\\n *         __ERC20_init(\\\"MyToken\\\", \\\"MTK\\\");\\n *     }\\n * }\\n *\\n * contract MyTokenV2 is MyToken, ERC20PermitUpgradeable {\\n *     function initializeV2() reinitializer(2) public {\\n *         __ERC20Permit_init(\\\"MyToken\\\");\\n *     }\\n * }\\n * ```\\n *\\n * TIP: To avoid leaving the proxy in an uninitialized state, the initializer function should be called as early as\\n * possible by providing the encoded function call as the `_data` argument to {ERC1967Proxy-constructor}.\\n *\\n * CAUTION: When used with inheritance, manual care must be taken to not invoke a parent initializer twice, or to ensure\\n * that all initializers are idempotent. This is not verified automatically as constructors are by Solidity.\\n *\\n * [CAUTION]\\n * ====\\n * Avoid leaving a contract uninitialized.\\n *\\n * An uninitialized contract can be taken over by an attacker. This applies to both a proxy and its implementation\\n * contract, which may impact the proxy. To prevent the implementation contract from being used, you should invoke\\n * the {_disableInitializers} function in the constructor to automatically lock it when it is deployed:\\n *\\n * [.hljs-theme-light.nopadding]\\n * ```\\n * /// @custom:oz-upgrades-unsafe-allow constructor\\n * constructor() {\\n *     _disableInitializers();\\n * }\\n * ```\\n * ====\\n */\\nabstract contract Initializable {\\n    /**\\n     * @dev Storage of the initializable contract.\\n     *\\n     * It's implemented on a custom ERC-7201 namespace to reduce the risk of storage collisions\\n     * when using with upgradeable contracts.\\n     *\\n     * @custom:storage-location erc7201:openzeppelin.storage.Initializable\\n     */\\n    struct InitializableStorage {\\n        /**\\n         * @dev Indicates that the contract has been initialized.\\n         */\\n        uint64 _initialized;\\n        /**\\n         * @dev Indicates that the contract is in the process of being initialized.\\n         */\\n        bool _initializing;\\n    }\\n\\n    // keccak256(abi.encode(uint256(keccak256(\\\"openzeppelin.storage.Initializable\\\")) - 1)) & ~bytes32(uint256(0xff))\\n    bytes32 private constant INITIALIZABLE_STORAGE = 0xf0c57e16840df040f15088dc2f81fe391c3923bec73e23a9662efc9c229c6a00;\\n\\n    /**\\n     * @dev The contract is already initialized.\\n     */\\n    error InvalidInitialization();\\n\\n    /**\\n     * @dev The contract is not initializing.\\n     */\\n    error NotInitializing();\\n\\n    /**\\n     * @dev Triggered when the contract has been initialized or reinitialized.\\n     */\\n    event Initialized(uint64 version);\\n\\n    /**\\n     * @dev A modifier that defines a protected initializer function that can be invoked at most once. In its scope,\\n     * `onlyInitializing` functions can be used to initialize parent contracts.\\n     *\\n     * Similar to `reinitializer(1)`, except that in the context of a constructor an `initializer` may be invoked any\\n     * number of times. This behavior in the constructor can be useful during testing and is not expected to be used in\\n     * production.\\n     *\\n     * Emits an {Initialized} event.\\n     */\\n    modifier initializer() {\\n        // solhint-disable-next-line var-name-mixedcase\\n        InitializableStorage storage $ = _getInitializableStorage();\\n\\n        // Cache values to avoid duplicated sloads\\n        bool isTopLevelCall = !$._initializing;\\n        uint64 initialized = $._initialized;\\n\\n        // Allowed calls:\\n        // - initialSetup: the contract is not in the initializing state and no previous version was\\n        //                 initialized\\n        // - construction: the contract is initialized at version 1 (no reinitialization) and the\\n        //                 current contract is just being deployed\\n        bool initialSetup = initialized == 0 && isTopLevelCall;\\n        bool construction = initialized == 1 && address(this).code.length == 0;\\n\\n        if (!initialSetup && !construction) {\\n            revert InvalidInitialization();\\n        }\\n        $._initialized = 1;\\n        if (isTopLevelCall) {\\n            $._initializing = true;\\n        }\\n        _;\\n        if (isTopLevelCall) {\\n            $._initializing = false;\\n            emit Initialized(1);\\n        }\\n    }\\n\\n    /**\\n     * @dev A modifier that defines a protected reinitializer function that can be invoked at most once, and only if the\\n     * contract hasn't been initialized to a greater version before. In its scope, `onlyInitializing` functions can be\\n     * used to initialize parent contracts.\\n     *\\n     * A reinitializer may be used after the original initialization step. This is essential to configure modules that\\n     * are added through upgrades and that require initialization.\\n     *\\n     * When `version` is 1, this modifier is similar to `initializer`, except that functions marked with `reinitializer`\\n     * cannot be nested. If one is invoked in the context of another, execution will revert.\\n     *\\n     * Note that versions can jump in increments greater than 1; this implies that if multiple reinitializers coexist in\\n     * a contract, executing them in the right order is up to the developer or operator.\\n     *\\n     * WARNING: Setting the version to 2**64 - 1 will prevent any future reinitialization.\\n     *\\n     * Emits an {Initialized} event.\\n     */\\n    modifier reinitializer(uint64 version) {\\n        // solhint-disable-next-line var-name-mixedcase\\n        InitializableStorage storage $ = _getInitializableStorage();\\n\\n        if ($._initializing || $._initialized >= version) {\\n            revert InvalidInitialization();\\n        }\\n        $._initialized = version;\\n        $._initializing = true;\\n        _;\\n        $._initializing = false;\\n        emit Initialized(version);\\n    }\\n\\n    /**\\n     * @dev Modifier to protect an initialization function so that it can only be invoked by functions with the\\n     * {initializer} and {reinitializer} modifiers, directly or indirectly.\\n     */\\n    modifier onlyInitializing() {\\n        _checkInitializing();\\n        _;\\n    }\\n\\n    /**\\n     * @dev Reverts if the contract is not in an initializing state. See {onlyInitializing}.\\n     */\\n    function _checkInitializing() internal view virtual {\\n        if (!_isInitializing()) {\\n            revert NotInitializing();\\n        }\\n    }\\n\\n    /**\\n     * @dev Locks the contract, preventing any future reinitialization. This cannot be part of an initializer call.\\n     * Calling this in the constructor of a contract will prevent that contract from being initialized or reinitialized\\n     * to any version. It is recommended to use this to lock implementation contracts that are designed to be called\\n     * through proxies.\\n     *\\n     * Emits an {Initialized} event the first time it is successfully executed.\\n     */\\n    function _disableInitializers() internal virtual {\\n        // solhint-disable-next-line var-name-mixedcase\\n        InitializableStorage storage $ = _getInitializableStorage();\\n\\n        if ($._initializing) {\\n            revert InvalidInitialization();\\n        }\\n        if ($._initialized != type(uint64).max) {\\n            $._initialized = type(uint64).max;\\n            emit Initialized(type(uint64).max);\\n        }\\n    }\\n\\n    /**\\n     * @dev Returns the highest version that has been initialized. See {reinitializer}.\\n     */\\n    function _getInitializedVersion() internal view returns (uint64) {\\n        return _getInitializableStorage()._initialized;\\n    }\\n\\n    /**\\n     * @dev Returns `true` if the contract is currently initializing. See {onlyInitializing}.\\n     */\\n    function _isInitializing() internal view returns (bool) {\\n        return _getInitializableStorage()._initializing;\\n    }\\n\\n    /**\\n     * @dev Pointer to storage slot. Allows integrators to override it with a custom storage location.\\n     *\\n     * NOTE: Consider following the ERC-7201 formula to derive storage locations.\\n     */\\n    function _initializableStorageSlot() internal pure virtual returns (bytes32) {\\n        return INITIALIZABLE_STORAGE;\\n    }\\n\\n    /**\\n     * @dev Returns a pointer to the storage namespace.\\n     */\\n    // solhint-disable-next-line var-name-mixedcase\\n    function _getInitializableStorage() private pure returns (InitializableStorage storage $) {\\n        bytes32 slot = _initializableStorageSlot();\\n        assembly {\\n            $.slot := slot\\n        }\\n    }\\n}\\n\"},\"@openzeppelin/contracts-upgradeable/access/OwnableUpgradeable.sol\":{\"content\":\"// SPDX-License-Identifier: MIT\\n// OpenZeppelin Contracts (last updated v5.0.0) (access/Ownable.sol)\\n\\npragma solidity ^0.8.20;\\n\\nimport {ContextUpgradeable} from \\\"../utils/ContextUpgradeable.sol\\\";\\nimport {Initializable} from \\\"../proxy/utils/Initializable.sol\\\";\\n\\n/**\\n * @dev Contract module which provides a basic access control mechanism, where\\n * there is an account (an owner) that can be granted exclusive access to\\n * specific functions.\\n *\\n * The initial owner is set to the address provided by the deployer. This can\\n * later be changed with {transferOwnership}.\\n *\\n * This module is used through inheritance. It will make available the modifier\\n * `onlyOwner`, which can be applied to your functions to restrict their use to\\n * the owner.\\n */\\nabstract contract OwnableUpgradeable is Initializable, ContextUpgradeable {\\n    /// @custom:storage-location erc7201:openzeppelin.storage.Ownable\\n    struct OwnableStorage {\\n        address _owner;\\n    }\\n\\n    // keccak256(abi.encode(uint256(keccak256(\\\"openzeppelin.storage.Ownable\\\")) - 1)) & ~bytes32(uint256(0xff))\\n    bytes32 private constant OwnableStorageLocation = 0x9016d09d72d40fdae2fd8ceac6b6234c7706214fd39c1cd1e609a0528c199300;\\n\\n    function _getOwnableStorage() private pure returns (OwnableStorage storage $) {\\n        assembly {\\n            $.slot := OwnableStorageLocation\\n        }\\n    }\\n\\n    /**\\n     * @dev The caller account is not authorized to perform an operation.\\n     */\\n    error OwnableUnauthorizedAccount(address account);\\n\\n    /**\\n     * @dev The owner is not a valid owner account. (eg. `address(0)`)\\n     */\\n    error OwnableInvalidOwner(address owner);\\n\\n    event OwnershipTransferred(address indexed previousOwner, address indexed newOwner);\\n\\n    /**\\n     * @dev Initializes the contract setting the address provided by the deployer as the initial owner.\\n     */\\n    function __Ownable_init(address initialOwner) internal onlyInitializing {\\n        __Ownable_init_unchained(initialOwner);\\n    }\\n\\n    function __Ownable_init_unchained(address initialOwner) internal onlyInitializing {\\n        if (initialOwner == address(0)) {\\n            revert OwnableInvalidOwner(address(0));\\n        }\\n        _transferOwnership(initialOwner);\\n    }\\n\\n    /**\\n     * @dev Throws if called by any account other than the owner.\\n     */\\n    modifier onlyOwner() {\\n        _checkOwner();\\n        _;\\n    }\\n\\n    /**\\n     * @dev Returns the address of the current owner.\\n     */\\n    function owner() public view virtual returns (address) {\\n        OwnableStorage storage $ = _getOwnableStorage();\\n        return $._owner;\\n    }\\n\\n    /**\\n     * @dev Throws if the sender is not the owner.\\n     */\\n    function _checkOwner() internal view virtual {\\n        if (owner() != _msgSender()) {\\n            revert OwnableUnauthorizedAccount(_msgSender());\\n        }\\n    }\\n\\n    /**\\n     * @dev Leaves the contract without owner. It will not be possible to call\\n     * `onlyOwner` functions. Can only be called by the current owner.\\n     *\\n     * NOTE: Renouncing ownership will leave the contract without an owner,\\n     * thereby disabling any functionality that is only available to the owner.\\n     */\\n    function renounceOwnership() public virtual onlyOwner {\\n        _transferOwnership(address(0));\\n    }\\n\\n    /**\\n     * @dev Transfers ownership of the contract to a new account (`newOwner`).\\n     * Can only be called by the current owner.\\n     */\\n    function transferOwnership(address newOwner) public virtual onlyOwner {\\n        if (newOwner == address(0)) {\\n            revert OwnableInvalidOwner(address(0));\\n        }\\n        _transferOwnership(newOwner);\\n    }\\n\\n    /**\\n     * @dev Transfers ownership of the contract to a new account (`newOwner`).\\n     * Internal function without access restriction.\\n     */\\n    function _transferOwnership(address newOwner) internal virtual {\\n        OwnableStorage storage $ = _getOwnableStorage();\\n        address oldOwner = $._owner;\\n        $._owner = newOwner;\\n        emit OwnershipTransferred(oldOwner, newOwner);\\n    }\\n}\\n\"},\"@openzeppelin/contracts-upgradeable/utils/ContextUpgradeable.sol\":{\"content\":\"// SPDX-License-Identifier: MIT\\n// OpenZeppelin Contracts (last updated v5.0.1) (utils/Context.sol)\\n\\npragma solidity ^0.8.20;\\nimport {Initializable} from \\\"../proxy/utils/Initializable.sol\\\";\\n\\n/**\\n * @dev Provides information about the current execution context, including the\\n * sender of the transaction and its data. While these are generally available\\n * via msg.sender and msg.data, they should not be accessed in such a direct\\n * manner, since when dealing with meta-transactions the account sending and\\n * paying for execution may not be the actual sender (as far as an application\\n * is concerned).\\n *\\n * This contract is only required for intermediate, library-like contracts.\\n */\\nabstract contract ContextUpgradeable is Initializable {\\n    function __Context_init() internal onlyInitializing {\\n    }\\n\\n    function __Context_init_unchained() internal onlyInitializing {\\n    }\\n    function _msgSender() internal view virtual returns (address) {\\n        return msg.sender;\\n    }\\n\\n    function _msgData() internal view virtual returns (bytes calldata) {\\n        return msg.data;\\n    }\\n\\n    function _contextSuffixLength() internal view virtual returns (uint256) {\\n        return 0;\\n    }\\n}\\n\"},\"@openzeppelin/contracts/utils/math/SafeCast.sol\":{\"content\":\"// SPDX-License-Identifier: MIT\\n// OpenZeppelin Contracts (last updated v5.1.0) (utils/math/SafeCast.sol)\\n// This file was procedurally generated from scripts/generate/templates/SafeCast.js.\\n\\npragma solidity ^0.8.20;\\n\\n/**\\n * @dev Wrappers over Solidity's uintXX/intXX/bool casting operators with added overflow\\n * checks.\\n *\\n * Downcasting from uint256/int256 in Solidity does not revert on overflow. This can\\n * easily result in undesired exploitation or bugs, since developers usually\\n * assume that overflows raise errors. `SafeCast` restores this intuition by\\n * reverting the transaction when such an operation overflows.\\n *\\n * Using this library instead of the unchecked operations eliminates an entire\\n * class of bugs, so it's recommended to use it always.\\n */\\nlibrary SafeCast {\\n    /**\\n     * @dev Value doesn't fit in an uint of `bits` size.\\n     */\\n    error SafeCastOverflowedUintDowncast(uint8 bits, uint256 value);\\n\\n    /**\\n     * @dev An int value doesn't fit in an uint of `bits` size.\\n     */\\n    error SafeCastOverflowedIntToUint(int256 value);\\n\\n    /**\\n     * @dev Value doesn't fit in an int of `bits` size.\\n     */\\n    error SafeCastOverflowedIntDowncast(uint8 bits, int256 value);\\n\\n    /**\\n     * @dev An uint value doesn't fit in an int of `bits` size.\\n     */\\n    error SafeCastOverflowedUintToInt(uint256 value);\\n\\n    /**\\n     * @dev Returns the downcasted uint248 from uint256, reverting on\\n     * overflow (when the input is greater than largest uint248).\\n     *\\n     * Counterpart to Solidity's `uint248` operator.\\n     *\\n     * Requirements:\\n     *\\n     * - input must fit into 248 bits\\n     */\\n    function toUint248(uint256 value) internal pure returns (uint248) {\\n        if (value > type(uint248).max) {\\n            revert SafeCastOverflowedUintDowncast(248, value);\\n        }\\n        return uint248(value);\\n    }\\n\\n    /**\\n     * @dev Returns the downcasted uint240 from uint256, reverting on\\n     * overflow (when the input is greater than largest uint240).\\n     *\\n     * Counterpart to Solidity's `uint240` operator.\\n     *\\n     * Requirements:\\n     *\\n     * - input must fit into 240 bits\\n     */\\n    function toUint240(uint256 value) internal pure returns (uint240) {\\n        if (value > type(uint240).max) {\\n            revert SafeCastOverflowedUintDowncast(240, value);\\n        }\\n        return uint240(value);\\n    }\\n\\n    /**\\n     * @dev Returns the downcasted uint232 from uint256, reverting on\\n     * overflow (when the input is greater than largest uint232).\\n     *\\n     * Counterpart to Solidity's `uint232` operator.\\n     *\\n     * Requirements:\\n     *\\n     * - input must fit into 232 bits\\n     */\\n    function toUint232(uint256 value) internal pure returns (uint232) {\\n        if (value > type(uint232).max) {\\n            revert SafeCastOverflowedUintDowncast(232, value);\\n        }\\n        return uint232(value);\\n    }\\n\\n    /**\\n     * @dev Returns the downcasted uint224 from uint256, reverting on\\n     * overflow (when the input is greater than largest uint224).\\n     *\\n     * Counterpart to Solidity's `uint224` operator.\\n     *\\n     * Requirements:\\n     *\\n     * - input must fit into 224 bits\\n     */\\n    function toUint224(uint256 value) internal pure returns (uint224) {\\n        if (value > type(uint224).max) {\\n            revert SafeCastOverflowedUintDowncast(224, value);\\n        }\\n        return uint224(value);\\n    }\\n\\n    /**\\n     * @dev Returns the downcasted uint216 from uint256, reverting on\\n     * overflow (when the input is greater than largest uint216).\\n     *\\n     * Counterpart to Solidity's `uint216` operator.\\n     *\\n     * Requirements:\\n     *\\n     * - input must fit into 216 bits\\n     */\\n    function toUint216(uint256 value) internal pure returns (uint216) {\\n        if (value > type(uint216).max) {\\n            revert SafeCastOverflowedUintDowncast(216, value);\\n        }\\n        return uint216(value);\\n    }\\n\\n    /**\\n     * @dev Returns the downcasted uint208 from uint256, reverting on\\n     * overflow (when the input is greater than largest uint208).\\n     *\\n     * Counterpart to Solidity's `uint208` operator.\\n     *\\n     * Requirements:\\n     *\\n     * - input must fit into 208 bits\\n     */\\n    function toUint208(uint256 value) internal pure returns (uint208) {\\n        if (value > type(uint208).max) {\\n            revert SafeCastOverflowedUintDowncast(208, value);\\n        }\\n        return uint208(value);\\n    }\\n\\n    /**\\n     * @dev Returns the downcasted uint200 from uint256, reverting on\\n     * overflow (when the input is greater than largest uint200).\\n     *\\n     * Counterpart to Solidity's `uint200` operator.\\n     *\\n     * Requirements:\\n     *\\n     * - input must fit into 200 bits\\n     */\\n    function toUint200(uint256 value) internal pure returns (uint200) {\\n        if (value > type(uint200).max) {\\n            revert SafeCastOverflowedUintDowncast(200, value);\\n        }\\n        return uint200(value);\\n    }\\n\\n    /**\\n     * @dev Returns the downcasted uint192 from uint256, reverting on\\n     * overflow (when the input is greater than largest uint192).\\n     *\\n     * Counterpart to Solidity's `uint192` operator.\\n     *\\n     * Requirements:\\n     *\\n     * - input must fit into 192 bits\\n     */\\n    function toUint192(uint256 value) internal pure returns (uint192) {\\n        if (value > type(uint192).max) {\\n            revert SafeCastOverflowedUintDowncast(192, value);\\n        }\\n        return uint192(value);\\n    }\\n\\n    /**\\n     * @dev Returns the downcasted uint184 from uint256, reverting on\\n     * overflow (when the input is greater than largest uint184).\\n     *\\n     * Counterpart to Solidity's `uint184` operator.\\n     *\\n     * Requirements:\\n     *\\n     * - input must fit into 184 bits\\n     */\\n    function toUint184(uint256 value) internal pure returns (uint184) {\\n        if (value > type(uint184).max) {\\n            revert SafeCastOverflowedUintDowncast(184, value);\\n        }\\n        return uint184(value);\\n    }\\n\\n    /**\\n     * @dev Returns the downcasted uint176 from uint256, reverting on\\n     * overflow (when the input is greater than largest uint176).\\n     *\\n     * Counterpart to Solidity's `uint176` operator.\\n     *\\n     * Requirements:\\n     *\\n     * - input must fit into 176 bits\\n     */\\n    function toUint176(uint256 value) internal pure returns (uint176) {\\n        if (value > type(uint176).max) {\\n            revert SafeCastOverflowedUintDowncast(176, value);\\n        }\\n        return uint176(value);\\n    }\\n\\n    /**\\n     * @dev Returns the downcasted uint168 from uint256, reverting on\\n     * overflow (when the input is greater than largest uint168).\\n     *\\n     * Counterpart to Solidity's `uint168` operator.\\n     *\\n     * Requirements:\\n     *\\n     * - input must fit into 168 bits\\n     */\\n    function toUint168(uint256 value) internal pure returns (uint168) {\\n        if (value > type(uint168).max) {\\n            revert SafeCastOverflowedUintDowncast(168, value);\\n        }\\n        return uint168(value);\\n    }\\n\\n    /**\\n     * @dev Returns the downcasted uint160 from uint256, reverting on\\n     * overflow (when the input is greater than largest uint160).\\n     *\\n     * Counterpart to Solidity's `uint160` operator.\\n     *\\n     * Requirements:\\n     *\\n     * - input must fit into 160 bits\\n     */\\n    function toUint160(uint256 value) internal pure returns (uint160) {\\n        if (value > type(uint160).max) {\\n            revert SafeCastOverflowedUintDowncast(160, value);\\n        }\\n        return uint160(value);\\n    }\\n\\n    /**\\n     * @dev Returns the downcasted uint152 from uint256, reverting on\\n     * overflow (when the input is greater than largest uint152).\\n     *\\n     * Counterpart to Solidity's `uint152` operator.\\n     *\\n     * Requirements:\\n     *\\n     * - input must fit into 152 bits\\n     */\\n    function toUint152(uint256 value) internal pure returns (uint152) {\\n        if (value > type(uint152).max) {\\n            revert SafeCastOverflowedUintDowncast(152, value);\\n        }\\n        return uint152(value);\\n    }\\n\\n    /**\\n     * @dev Returns the downcasted uint144 from uint256, reverting on\\n     * overflow (when the input is greater than largest uint144).\\n     *\\n     * Counterpart to Solidity's `uint144` operator.\\n     *\\n     * Requirements:\\n     *\\n     * - input must fit into 144 bits\\n     */\\n    function toUint144(uint256 value) internal pure returns (uint144) {\\n        if (value > type(uint144).max) {\\n            revert SafeCastOverflowedUintDowncast(144, value);\\n        }\\n        return uint144(value);\\n    }\\n\\n    /**\\n     * @dev Returns the downcasted uint136 from uint256, reverting on\\n     * overflow (when the input is greater than largest uint136).\\n     *\\n     * Counterpart to Solidity's `uint136` operator.\\n     *\\n     * Requirements:\\n     *\\n     * - input must fit into 136 bits\\n     */\\n    function toUint136(uint256 value) internal pure returns (uint136) {\\n        if (value > type(uint136).max) {\\n            revert SafeCastOverflowedUintDowncast(136, value);\\n        }\\n        return uint136(value);\\n    }\\n\\n    /**\\n     * @dev Returns the downcasted uint128 from uint256, reverting on\\n     * overflow (when the input is greater than largest uint128).\\n     *\\n     * Counterpart to Solidity's `uint128` operator.\\n     *\\n     * Requirements:\\n     *\\n     * - input must fit into 128 bits\\n     */\\n    function toUint128(uint256 value) internal pure returns (uint128) {\\n        if (value > type(uint128).max) {\\n            revert SafeCastOverflowedUintDowncast(128, value);\\n        }\\n        return uint128(value);\\n    }\\n\\n    /**\\n     * @dev Returns the downcasted uint120 from uint256, reverting on\\n     * overflow (when the input is greater than largest uint120).\\n     *\\n     * Counterpart to Solidity's `uint120` operator.\\n     *\\n     * Requirements:\\n     *\\n     * - input must fit into 120 bits\\n     */\\n    function toUint120(uint256 value) internal pure returns (uint120) {\\n        if (value > type(uint120).max) {\\n            revert SafeCastOverflowedUintDowncast(120, value);\\n        }\\n        return uint120(value);\\n    }\\n\\n    /**\\n     * @dev Returns the downcasted uint112 from uint256, reverting on\\n     * overflow (when the input is greater than largest uint112).\\n     *\\n     * Counterpart to Solidity's `uint112` operator.\\n     *\\n     * Requirements:\\n     *\\n     * - input must fit into 112 bits\\n     */\\n    function toUint112(uint256 value) internal pure returns (uint112) {\\n        if (value > type(uint112).max) {\\n            revert SafeCastOverflowedUintDowncast(112, value);\\n        }\\n        return uint112(value);\\n    }\\n\\n    /**\\n     * @dev Returns the downcasted uint104 from uint256, reverting on\\n     * overflow (when the input is greater than largest uint104).\\n     *\\n     * Counterpart to Solidity's `uint104` operator.\\n     *\\n     * Requirements:\\n     *\\n     * - input must fit into 104 bits\\n     */\\n    function toUint104(uint256 value) internal pure returns (uint104) {\\n        if (value > type(uint104).max) {\\n            revert SafeCastOverflowedUintDowncast(104, value);\\n        }\\n        return uint104(value);\\n    }\\n\\n    /**\\n     * @dev Returns the downcasted uint96 from uint256, reverting on\\n     * overflow (when the input is greater than largest uint96).\\n     *\\n     * Counterpart to Solidity's `uint96` operator.\\n     *\\n     * Requirements:\\n     *\\n     * - input must fit into 96 bits\\n     */\\n    function toUint96(uint256 value) internal pure returns (uint96) {\\n        if (value > type(uint96).max) {\\n            revert SafeCastOverflowedUintDowncast(96, value);\\n        }\\n        return uint96(value);\\n    }\\n\\n    /**\\n     * @dev Returns the downcasted uint88 from uint256, reverting on\\n     * overflow (when the input is greater than largest uint88).\\n     *\\n     * Counterpart to Solidity's `uint88` operator.\\n     *\\n     * Requirements:\\n     *\\n     * - input must fit into 88 bits\\n     */\\n    function toUint88(uint256 value) internal pure returns (uint88) {\\n        if (value > type(uint88).max) {\\n            revert SafeCastOverflowedUintDowncast(88, value);\\n        }\\n        return uint88(value);\\n    }\\n\\n    /**\\n     * @dev Returns the downcasted uint80 from uint256, reverting on\\n     * overflow (when the input is greater than largest uint80).\\n     *\\n     * Counterpart to Solidity's `uint80` operator.\\n     *\\n     * Requirements:\\n     *\\n     * - input must fit into 80 bits\\n     */\\n    function toUint80(uint256 value) internal pure returns (uint80) {\\n        if (value > type(uint80).max) {\\n            revert SafeCastOverflowedUintDowncast(80, value);\\n        }\\n        return uint80(value);\\n    }\\n\\n    /**\\n     * @dev Returns the downcasted uint72 from uint256, reverting on\\n     * overflow (when the input is greater than largest uint72).\\n     *\\n     * Counterpart to Solidity's `uint72` operator.\\n     *\\n     * Requirements:\\n     *\\n     * - input must fit into 72 bits\\n     */\\n    function toUint72(uint256 value) internal pure returns (uint72) {\\n        if (value > type(uint72).max) {\\n            revert SafeCastOverflowedUintDowncast(72, value);\\n        }\\n        return uint72(value);\\n    }\\n\\n    /**\\n     * @dev Returns the downcasted uint64 from uint256, reverting on\\n     * overflow (when the input is greater than largest uint64).\\n     *\\n     * Counterpart to Solidity's `uint64` operator.\\n     *\\n     * Requirements:\\n     *\\n     * - input must fit into 64 bits\\n     */\\n    function toUint64(uint256 value) internal pure returns (uint64) {\\n        if (value > type(uint64).max) {\\n            revert SafeCastOverflowedUintDowncast(64, value);\\n        }\\n        return uint64(value);\\n    }\\n\\n    /**\\n     * @dev Returns the downcasted uint56 from uint256, reverting on\\n     * overflow (when the input is greater than largest uint56).\\n     *\\n     * Counterpart to Solidity's `uint56` operator.\\n     *\\n     * Requirements:\\n     *\\n     * - input must fit into 56 bits\\n     */\\n    function toUint56(uint256 value) internal pure returns (uint56) {\\n        if (value > type(uint56).max) {\\n            revert SafeCastOverflowedUintDowncast(56, value);\\n        }\\n        return uint56(value);\\n    }\\n\\n    /**\\n     * @dev Returns the downcasted uint48 from uint256, reverting on\\n     * overflow (when the input is greater than largest uint48).\\n     *\\n     * Counterpart to Solidity's `uint48` operator.\\n     *\\n     * Requirements:\\n     *\\n     * - input must fit into 48 bits\\n     */\\n    function toUint48(uint256 value) internal pure returns (uint48) {\\n        if (value > type(uint48).max) {\\n            revert SafeCastOverflowedUintDowncast(48, value);\\n        }\\n        return uint48(value);\\n    }\\n\\n    /**\\n     * @dev Returns the downcasted uint40 from uint256, reverting on\\n     * overflow (when the input is greater than largest uint40).\\n     *\\n     * Counterpart to Solidity's `uint40` operator.\\n     *\\n     * Requirements:\\n     *\\n     * - input must fit into 40 bits\\n     */\\n    function toUint40(uint256 value) internal pure returns (uint40) {\\n        if (value > type(uint40).max) {\\n            revert SafeCastOverflowedUintDowncast(40, value);\\n        }\\n        return uint40(value);\\n    }\\n\\n    /**\\n     * @dev Returns the downcasted uint32 from uint256, reverting on\\n     * overflow (when the input is greater than largest uint32).\\n     *\\n     * Counterpart to Solidity's `uint32` operator.\\n     *\\n     * Requirements:\\n     *\\n     * - input must fit into 32 bits\\n     */\\n    function toUint32(uint256 value) internal pure returns (uint32) {\\n        if (value > type(uint32).max) {\\n            revert SafeCastOverflowedUintDowncast(32, value);\\n        }\\n        return uint32(value);\\n    }\\n\\n    /**\\n     * @dev Returns the downcasted uint24 from uint256, reverting on\\n     * overflow (when the input is greater than largest uint24).\\n     *\\n     * Counterpart to Solidity's `uint24` operator.\\n     *\\n     * Requirements:\\n     *\\n     * - input must fit into 24 bits\\n     */\\n    function toUint24(uint256 value) internal pure returns (uint24) {\\n        if (value > type(uint24).max) {\\n            revert SafeCastOverflowedUintDowncast(24, value);\\n        }\\n        return uint24(value);\\n    }\\n\\n    /**\\n     * @dev Returns the downcasted uint16 from uint256, reverting on\\n     * overflow (when the input is greater than largest uint16).\\n     *\\n     * Counterpart to Solidity's `uint16` operator.\\n     *\\n     * Requirements:\\n     *\\n     * - input must fit into 16 bits\\n     */\\n    function toUint16(uint256 value) internal pure returns (uint16) {\\n        if (value > type(uint16).max) {\\n            revert SafeCastOverflowedUintDowncast(16, value);\\n        }\\n        return uint16(value);\\n    }\\n\\n    /**\\n     * @dev Returns the downcasted uint8 from uint256, reverting on\\n     * overflow (when the input is greater than largest uint8).\\n     *\\n     * Counterpart to Solidity's `uint8` operator.\\n     *\\n     * Requirements:\\n     *\\n     * - input must fit into 8 bits\\n     */\\n    function toUint8(uint256 value) internal pure returns (uint8) {\\n        if (value > type(uint8).max) {\\n            revert SafeCastOverflowedUintDowncast(8, value);\\n        }\\n        return uint8(value);\\n    }\\n\\n    /**\\n     * @dev Converts a signed int256 into an unsigned uint256.\\n     *\\n     * Requirements:\\n     *\\n     * - input must be greater than or equal to 0.\\n     */\\n    function toUint256(int256 value) internal pure returns (uint256) {\\n        if (value < 0) {\\n            revert SafeCastOverflowedIntToUint(value);\\n        }\\n        return uint256(value);\\n    }\\n\\n    /**\\n     * @dev Returns the downcasted int248 from int256, reverting on\\n     * overflow (when the input is less than smallest int248 or\\n     * greater than largest int248).\\n     *\\n     * Counterpart to Solidity's `int248` operator.\\n     *\\n     * Requirements:\\n     *\\n     * - input must fit into 248 bits\\n     */\\n    function toInt248(int256 value) internal pure returns (int248 downcasted) {\\n        downcasted = int248(value);\\n        if (downcasted != value) {\\n            revert SafeCastOverflowedIntDowncast(248, value);\\n        }\\n    }\\n\\n    /**\\n     * @dev Returns the downcasted int240 from int256, reverting on\\n     * overflow (when the input is less than smallest int240 or\\n     * greater than largest int240).\\n     *\\n     * Counterpart to Solidity's `int240` operator.\\n     *\\n     * Requirements:\\n     *\\n     * - input must fit into 240 bits\\n     */\\n    function toInt240(int256 value) internal pure returns (int240 downcasted) {\\n        downcasted = int240(value);\\n        if (downcasted != value) {\\n            revert SafeCastOverflowedIntDowncast(240, value);\\n        }\\n    }\\n\\n    /**\\n     * @dev Returns the downcasted int232 from int256, reverting on\\n     * overflow (when the input is less than smallest int232 or\\n     * greater than largest int232).\\n     *\\n     * Counterpart to Solidity's `int232` operator.\\n     *\\n     * Requirements:\\n     *\\n     * - input must fit into 232 bits\\n     */\\n    function toInt232(int256 value) internal pure returns (int232 downcasted) {\\n        downcasted = int232(value);\\n        if (downcasted != value) {\\n            revert SafeCastOverflowedIntDowncast(232, value);\\n        }\\n    }\\n\\n    /**\\n     * @dev Returns the downcasted int224 from int256, reverting on\\n     * overflow (when the input is less than smallest int224 or\\n     * greater than largest int224).\\n     *\\n     * Counterpart to Solidity's `int224` operator.\\n     *\\n     * Requirements:\\n     *\\n     * - input must fit into 224 bits\\n     */\\n    function toInt224(int256 value) internal pure returns (int224 downcasted) {\\n        downcasted = int224(value);\\n        if (downcasted != value) {\\n            revert SafeCastOverflowedIntDowncast(224, value);\\n        }\\n    }\\n\\n    /**\\n     * @dev Returns the downcasted int216 from int256, reverting on\\n     * overflow (when the input is less than smallest int216 or\\n     * greater than largest int216).\\n     *\\n     * Counterpart to Solidity's `int216` operator.\\n     *\\n     * Requirements:\\n     *\\n     * - input must fit into 216 bits\\n     */\\n    function toInt216(int256 value) internal pure returns (int216 downcasted) {\\n        downcasted = int216(value);\\n        if (downcasted != value) {\\n            revert SafeCastOverflowedIntDowncast(216, value);\\n        }\\n    }\\n\\n    /**\\n     * @dev Returns the downcasted int208 from int256, reverting on\\n     * overflow (when the input is less than smallest int208 or\\n     * greater than largest int208).\\n     *\\n     * Counterpart to Solidity's `int208` operator.\\n     *\\n     * Requirements:\\n     *\\n     * - input must fit into 208 bits\\n     */\\n    function toInt208(int256 value) internal pure returns (int208 downcasted) {\\n        downcasted = int208(value);\\n        if (downcasted != value) {\\n            revert SafeCastOverflowedIntDowncast(208, value);\\n        }\\n    }\\n\\n    /**\\n     * @dev Returns the downcasted int200 from int256, reverting on\\n     * overflow (when the input is less than smallest int200 or\\n     * greater than largest int200).\\n     *\\n     * Counterpart to Solidity's `int200` operator.\\n     *\\n     * Requirements:\\n     *\\n     * - input must fit into 200 bits\\n     */\\n    function toInt200(int256 value) internal pure returns (int200 downcasted) {\\n        downcasted = int200(value);\\n        if (downcasted != value) {\\n            revert SafeCastOverflowedIntDowncast(200, value);\\n        }\\n    }\\n\\n    /**\\n     * @dev Returns the downcasted int192 from int256, reverting on\\n     * overflow (when the input is less than smallest int192 or\\n     * greater than largest int192).\\n     *\\n     * Counterpart to Solidity's `int192` operator.\\n     *\\n     * Requirements:\\n     *\\n     * - input must fit into 192 bits\\n     */\\n    function toInt192(int256 value) internal pure returns (int192 downcasted) {\\n        downcasted = int192(value);\\n        if (downcasted != value) {\\n            revert SafeCastOverflowedIntDowncast(192, value);\\n        }\\n    }\\n\\n    /**\\n     * @dev Returns the downcasted int184 from int256, reverting on\\n     * overflow (when the input is less than smallest int184 or\\n     * greater than largest int184).\\n     *\\n     * Counterpart to Solidity's `int184` operator.\\n     *\\n     * Requirements:\\n     *\\n     * - input must fit into 184 bits\\n     */\\n    function toInt184(int256 value) internal pure returns (int184 downcasted) {\\n        downcasted = int184(value);\\n        if (downcasted != value) {\\n            revert SafeCastOverflowedIntDowncast(184, value);\\n        }\\n    }\\n\\n    /**\\n     * @dev Returns the downcasted int176 from int256, reverting on\\n     * overflow (when the input is less than smallest int176 or\\n     * greater than largest int176).\\n     *\\n     * Counterpart to Solidity's `int176` operator.\\n     *\\n     * Requirements:\\n     *\\n     * - input must fit into 176 bits\\n     */\\n    function toInt176(int256 value) internal pure returns (int176 downcasted) {\\n        downcasted = int176(value);\\n        if (downcasted != value) {\\n            revert SafeCastOverflowedIntDowncast(176, value);\\n        }\\n    }\\n\\n    /**\\n     * @dev Returns the downcasted int168 from int256, reverting on\\n     * overflow (when the input is less than smallest int168 or\\n     * greater than largest int168).\\n     *\\n     * Counterpart to Solidity's `int168` operator.\\n     *\\n     * Requirements:\\n     *\\n     * - input must fit into 168 bits\\n     */\\n    function toInt168(int256 value) internal pure returns (int168 downcasted) {\\n        downcasted = int168(value);\\n        if (downcasted != value) {\\n            revert SafeCastOverflowedIntDowncast(168, value);\\n        }\\n    }\\n\\n    /**\\n     * @dev Returns the downcasted int160 from int256, reverting on\\n     * overflow (when the input is less than smallest int160 or\\n     * greater than largest int160).\\n     *\\n     * Counterpart to Solidity's `int160` operator.\\n     *\\n     * Requirements:\\n     *\\n     * - input must fit into 160 bits\\n     */\\n    function toInt160(int256 value) internal pure returns (int160 downcasted) {\\n        downcasted = int160(value);\\n        if (downcasted != value) {\\n            revert SafeCastOverflowedIntDowncast(160, value);\\n        }\\n    }\\n\\n    /**\\n     * @dev Returns the downcasted int152 from int256, reverting on\\n     * overflow (when the input is less than smallest int152 or\\n     * greater than largest int152).\\n     *\\n     * Counterpart to Solidity's `int152` operator.\\n     *\\n     * Requirements:\\n     *\\n     * - input must fit into 152 bits\\n     */\\n    function toInt152(int256 value) internal pure returns (int152 downcasted) {\\n        downcasted = int152(value);\\n        if (downcasted != value) {\\n            revert SafeCastOverflowedIntDowncast(152, value);\\n        }\\n    }\\n\\n    /**\\n     * @dev Returns the downcasted int144 from int256, reverting on\\n     * overflow (when the input is less than smallest int144 or\\n     * greater than largest int144).\\n     *\\n     * Counterpart to Solidity's `int144` operator.\\n     *\\n     * Requirements:\\n     *\\n     * - input must fit into 144 bits\\n     */\\n    function toInt144(int256 value) internal pure returns (int144 downcasted) {\\n        downcasted = int144(value);\\n        if (downcasted != value) {\\n            revert SafeCastOverflowedIntDowncast(144, value);\\n        }\\n    }\\n\\n    /**\\n     * @dev Returns the downcasted int136 from int256, reverting on\\n     * overflow (when the input is less than smallest int136 or\\n     * greater than largest int136).\\n     *\\n     * Counterpart to Solidity's `int136` operator.\\n     *\\n     * Requirements:\\n     *\\n     * - input must fit into 136 bits\\n     */\\n    function toInt136(int256 value) internal pure returns (int136 downcasted) {\\n        downcasted = int136(value);\\n        if (downcasted != value) {\\n            revert SafeCastOverflowedIntDowncast(136, value);\\n        }\\n    }\\n\\n    /**\\n     * @dev Returns the downcasted int128 from int256, reverting on\\n     * overflow (when the input is less than smallest int128 or\\n     * greater than largest int128).\\n     *\\n     * Counterpart to Solidity's `int128` operator.\\n     *\\n     * Requirements:\\n     *\\n     * - input must fit into 128 bits\\n     */\\n    function toInt128(int256 value) internal pure returns (int128 downcasted) {\\n        downcasted = int128(value);\\n        if (downcasted != value) {\\n            revert SafeCastOverflowedIntDowncast(128, value);\\n        }\\n    }\\n\\n    /**\\n     * @dev Returns the downcasted int120 from int256, reverting on\\n     * overflow (when the input is less than smallest int120 or\\n     * greater than largest int120).\\n     *\\n     * Counterpart to Solidity's `int120` operator.\\n     *\\n     * Requirements:\\n     *\\n     * - input must fit into 120 bits\\n     */\\n    function toInt120(int256 value) internal pure returns (int120 downcasted) {\\n        downcasted = int120(value);\\n        if (downcasted != value) {\\n            revert SafeCastOverflowedIntDowncast(120, value);\\n        }\\n    }\\n\\n    /**\\n     * @dev Returns the downcasted int112 from int256, reverting on\\n     * overflow (when the input is less than smallest int112 or\\n     * greater than largest int112).\\n     *\\n     * Counterpart to Solidity's `int112` operator.\\n     *\\n     * Requirements:\\n     *\\n     * - input must fit into 112 bits\\n     */\\n    function toInt112(int256 value) internal pure returns (int112 downcasted) {\\n        downcasted = int112(value);\\n        if (downcasted != value) {\\n            revert SafeCastOverflowedIntDowncast(112, value);\\n        }\\n    }\\n\\n    /**\\n     * @dev Returns the downcasted int104 from int256, reverting on\\n     * overflow (when the input is less than smallest int104 or\\n     * greater than largest int104).\\n     *\\n     * Counterpart to Solidity's `int104` operator.\\n     *\\n     * Requirements:\\n     *\\n     * - input must fit into 104 bits\\n     */\\n    function toInt104(int256 value) internal pure returns (int104 downcasted) {\\n        downcasted = int104(value);\\n        if (downcasted != value) {\\n            revert SafeCastOverflowedIntDowncast(104, value);\\n        }\\n    }\\n\\n    /**\\n     * @dev Returns the downcasted int96 from int256, reverting on\\n     * overflow (when the input is less than smallest int96 or\\n     * greater than largest int96).\\n     *\\n     * Counterpart to Solidity's `int96` operator.\\n     *\\n     * Requirements:\\n     *\\n     * - input must fit into 96 bits\\n     */\\n    function toInt96(int256 value) internal pure returns (int96 downcasted) {\\n        downcasted = int96(value);\\n        if (downcasted != value) {\\n            revert SafeCastOverflowedIntDowncast(96, value);\\n        }\\n    }\\n\\n    /**\\n     * @dev Returns the downcasted int88 from int256, reverting on\\n     * overflow (when the input is less than smallest int88 or\\n     * greater than largest int88).\\n     *\\n     * Counterpart to Solidity's `int88` operator.\\n     *\\n     * Requirements:\\n     *\\n     * - input must fit into 88 bits\\n     */\\n    function toInt88(int256 value) internal pure returns (int88 downcasted) {\\n        downcasted = int88(value);\\n        if (downcasted != value) {\\n            revert SafeCastOverflowedIntDowncast(88, value);\\n        }\\n    }\\n\\n    /**\\n     * @dev Returns the downcasted int80 from int256, reverting on\\n     * overflow (when the input is less than smallest int80 or\\n     * greater than largest int80).\\n     *\\n     * Counterpart to Solidity's `int80` operator.\\n     *\\n     * Requirements:\\n     *\\n     * - input must fit into 80 bits\\n     */\\n    function toInt80(int256 value) internal pure returns (int80 downcasted) {\\n        downcasted = int80(value);\\n        if (downcasted != value) {\\n            revert SafeCastOverflowedIntDowncast(80, value);\\n        }\\n    }\\n\\n    /**\\n     * @dev Returns the downcasted int72 from int256, reverting on\\n     * overflow (when the input is less than smallest int72 or\\n     * greater than largest int72).\\n     *\\n     * Counterpart to Solidity's `int72` operator.\\n     *\\n     * Requirements:\\n     *\\n     * - input must fit into 72 bits\\n     */\\n    function toInt72(int256 value) internal pure returns (int72 downcasted) {\\n        downcasted = int72(value);\\n        if (downcasted != value) {\\n            revert SafeCastOverflowedIntDowncast(72, value);\\n        }\\n    }\\n\\n    /**\\n     * @dev Returns the downcasted int64 from int256, reverting on\\n     * overflow (when the input is less than smallest int64 or\\n     * greater than largest int64).\\n     *\\n     * Counterpart to Solidity's `int64` operator.\\n     *\\n     * Requirements:\\n     *\\n     * - input must fit into 64 bits\\n     */\\n    function toInt64(int256 value) internal pure returns (int64 downcasted) {\\n        downcasted = int64(value);\\n        if (downcasted != value) {\\n            revert SafeCastOverflowedIntDowncast(64, value);\\n        }\\n    }\\n\\n    /**\\n     * @dev Returns the downcasted int56 from int256, reverting on\\n     * overflow (when the input is less than smallest int56 or\\n     * greater than largest int56).\\n     *\\n     * Counterpart to Solidity's `int56` operator.\\n     *\\n     * Requirements:\\n     *\\n     * - input must fit into 56 bits\\n     */\\n    function toInt56(int256 value) internal pure returns (int56 downcasted) {\\n        downcasted = int56(value);\\n        if (downcasted != value) {\\n            revert SafeCastOverflowedIntDowncast(56, value);\\n        }\\n    }\\n\\n    /**\\n     * @dev Returns the downcasted int48 from int256, reverting on\\n     * overflow (when the input is less than smallest int48 or\\n     * greater than largest int48).\\n     *\\n     * Counterpart to Solidity's `int48` operator.\\n     *\\n     * Requirements:\\n     *\\n     * - input must fit into 48 bits\\n     */\\n    function toInt48(int256 value) internal pure returns (int48 downcasted) {\\n        downcasted = int48(value);\\n        if (downcasted != value) {\\n            revert SafeCastOverflowedIntDowncast(48, value);\\n        }\\n    }\\n\\n    /**\\n     * @dev Returns the downcasted int40 from int256, reverting on\\n     * overflow (when the input is less than smallest int40 or\\n     * greater than largest int40).\\n     *\\n     * Counterpart to Solidity's `int40` operator.\\n     *\\n     * Requirements:\\n     *\\n     * - input must fit into 40 bits\\n     */\\n    function toInt40(int256 value) internal pure returns (int40 downcasted) {\\n        downcasted = int40(value);\\n        if (downcasted != value) {\\n            revert SafeCastOverflowedIntDowncast(40, value);\\n        }\\n    }\\n\\n    /**\\n     * @dev Returns the downcasted int32 from int256, reverting on\\n     * overflow (when the input is less than smallest int32 or\\n     * greater than largest int32).\\n     *\\n     * Counterpart to Solidity's `int32` operator.\\n     *\\n     * Requirements:\\n     *\\n     * - input must fit into 32 bits\\n     */\\n    function toInt32(int256 value) internal pure returns (int32 downcasted) {\\n        downcasted = int32(value);\\n        if (downcasted != value) {\\n            revert SafeCastOverflowedIntDowncast(32, value);\\n        }\\n    }\\n\\n    /**\\n     * @dev Returns the downcasted int24 from int256, reverting on\\n     * overflow (when the input is less than smallest int24 or\\n     * greater than largest int24).\\n     *\\n     * Counterpart to Solidity's `int24` operator.\\n     *\\n     * Requirements:\\n     *\\n     * - input must fit into 24 bits\\n     */\\n    function toInt24(int256 value) internal pure returns (int24 downcasted) {\\n        downcasted = int24(value);\\n        if (downcasted != value) {\\n            revert SafeCastOverflowedIntDowncast(24, value);\\n        }\\n    }\\n\\n    /**\\n     * @dev Returns the downcasted int16 from int256, reverting on\\n     * overflow (when the input is less than smallest int16 or\\n     * greater than largest int16).\\n     *\\n     * Counterpart to Solidity's `int16` operator.\\n     *\\n     * Requirements:\\n     *\\n     * - input must fit into 16 bits\\n     */\\n    function toInt16(int256 value) internal pure returns (int16 downcasted) {\\n        downcasted = int16(value);\\n        if (downcasted != value) {\\n            revert SafeCastOverflowedIntDowncast(16, value);\\n        }\\n    }\\n\\n    /**\\n     * @dev Returns the downcasted int8 from int256, reverting on\\n     * overflow (when the input is less than smallest int8 or\\n     * greater than largest int8).\\n     *\\n     * Counterpart to Solidity's `int8` operator.\\n     *\\n     * Requirements:\\n     *\\n     * - input must fit into 8 bits\\n     */\\n    function toInt8(int256 value) internal pure returns (int8 downcasted) {\\n        downcasted = int8(value);\\n        if (downcasted != value) {\\n            revert SafeCastOverflowedIntDowncast(8, value);\\n        }\\n    }\\n\\n    /**\\n     * @dev Converts an unsigned uint256 into a signed int256.\\n     *\\n     * Requirements:\\n     *\\n     * - input must be less than or equal to maxInt256.\\n     */\\n    function toInt256(uint256 value) internal pure returns (int256) {\\n        // Note: Unsafe cast below is okay because `type(int256).max` is guaranteed to be positive\\n        if (value > uint256(type(int256).max)) {\\n            revert SafeCastOverflowedUintToInt(value);\\n        }\\n        return int256(value);\\n    }\\n\\n    /**\\n     * @dev Cast a boolean (false or true) to a uint256 (0 or 1) with no jump.\\n     */\\n    function toUint(bool b) internal pure returns (uint256 u) {\\n        assembly (\\\"memory-safe\\\") {\\n            u := iszero(iszero(b))\\n        }\\n    }\\n}\\n\"},\"@openzeppelin/contracts/utils/Panic.sol\":{\"content\":\"// SPDX-License-Identifier: MIT\\n// OpenZeppelin Contracts (last updated v5.1.0) (utils/Panic.sol)\\n\\npragma solidity ^0.8.20;\\n\\n/**\\n * @dev Helper library for emitting standardized panic codes.\\n *\\n * ```solidity\\n * contract Example {\\n *      using Panic for uint256;\\n *\\n *      // Use any of the declared internal constants\\n *      function foo() { Panic.GENERIC.panic(); }\\n *\\n *      // Alternatively\\n *      function foo() { Panic.panic(Panic.GENERIC); }\\n * }\\n * ```\\n *\\n * Follows the list from https://github.com/ethereum/solidity/blob/v0.8.24/libsolutil/ErrorCodes.h[libsolutil].\\n *\\n * _Available since v5.1._\\n */\\n// slither-disable-next-line unused-state\\nlibrary Panic {\\n    /// @dev generic / unspecified error\\n    uint256 internal constant GENERIC = 0x00;\\n    /// @dev used by the assert() builtin\\n    uint256 internal constant ASSERT = 0x01;\\n    /// @dev arithmetic underflow or overflow\\n    uint256 internal constant UNDER_OVERFLOW = 0x11;\\n    /// @dev division or modulo by zero\\n    uint256 internal constant DIVISION_BY_ZERO = 0x12;\\n    /// @dev enum conversion error\\n    uint256 internal constant ENUM_CONVERSION_ERROR = 0x21;\\n    /// @dev invalid encoding in storage\\n    uint256 internal constant STORAGE_ENCODING_ERROR = 0x22;\\n    /// @dev empty array pop\\n    uint256 internal constant EMPTY_ARRAY_POP = 0x31;\\n    /// @dev array out of bounds access\\n    uint256 internal constant ARRAY_OUT_OF_BOUNDS = 0x32;\\n    /// @dev resource error (too large allocation or too large array)\\n    uint256 internal constant RESOURCE_ERROR = 0x41;\\n    /// @dev calling invalid internal function\\n    uint256 internal constant INVALID_INTERNAL_FUNCTION = 0x51;\\n\\n    /// @dev Reverts with a panic code. Recommended to use with\\n    /// the internal constants with predefined codes.\\n    function panic(uint256 code) internal pure {\\n        assembly (\\\"memory-safe\\\") {\\n            mstore(0x00, 0x4e487b71)\\n            mstore(0x20, code)\\n            revert(0x1c, 0x24)\\n        }\\n    }\\n}\\n\"}},\"settings\":{\"optimizer\":{\"enabled\":false,\"runs\":200},\"outputSelection\":{\"*\":{\"\":[\"ast\"],\"*\":[\"abi\",\"metadata\",\"devdoc\",\"userdoc\",\"storageLayout\",\"evm.legacyAssembly\",\"evm.bytecode\",\"evm.deployedBytecode\",\"evm.methodIdentifiers\",\"evm.gasEstimates\",\"evm.assembly\"]}},\"remappings\":[]}}",
	"name": "PMNoAdmin",
	"bytecode": {
		"linkReferences": {},
		"object": "608060405234801562000010575f80fd5b506040516200656e3803806200656e833981810160405281019062000036919062000418565b818162000049816200011860201b60201c565b505f73ffffffffffffffffffffffffffffffffffffffff168173ffffffffffffffffffffffffffffffffffffffff1603620000bd575f6040517f1e4fbdf7000000000000000000000000000000000000000000000000000000008152600401620000b49190620004a1565b60405180910390fd5b620000ce816200012d60201b60201c565b5082600b5f6101000a81548173ffffffffffffffffffffffffffffffffffffffff021916908373ffffffffffffffffffffffffffffffffffffffff160217905550505050620007d7565b8060029081620001299190620006f3565b5050565b5f60035f9054906101000a900473ffffffffffffffffffffffffffffffffffffffff1690508160035f6101000a81548173ffffffffffffffffffffffffffffffffffffffff021916908373ffffffffffffffffffffffffffffffffffffffff1602179055508173ffffffffffffffffffffffffffffffffffffffff168173ffffffffffffffffffffffffffffffffffffffff167f8be0079c531659141344cd1fd0a4f28419497f9722a3daafe3b4186f6b6457e060405160405180910390a35050565b5f604051905090565b5f80fd5b5f80fd5b5f73ffffffffffffffffffffffffffffffffffffffff82169050919050565b5f6200022c8262000201565b9050919050565b5f6200023f8262000220565b9050919050565b620002518162000233565b81146200025c575f80fd5b50565b5f815190506200026f8162000246565b92915050565b620002808162000220565b81146200028b575f80fd5b50565b5f815190506200029e8162000275565b92915050565b5f80fd5b5f80fd5b5f601f19601f8301169050919050565b7f4e487b71000000000000000000000000000000000000000000000000000000005f52604160045260245ffd5b620002f482620002ac565b810181811067ffffffffffffffff82111715620003165762000315620002bc565b5b80604052505050565b5f6200032a620001f0565b9050620003388282620002e9565b919050565b5f67ffffffffffffffff8211156200035a5762000359620002bc565b5b6200036582620002ac565b9050602081019050919050565b5f5b838110156200039157808201518184015260208101905062000374565b5f8484015250505050565b5f620003b2620003ac846200033d565b6200031f565b905082815260208101848484011115620003d157620003d0620002a8565b5b620003de84828562000372565b509392505050565b5f82601f830112620003fd57620003fc620002a4565b5b81516200040f8482602086016200039c565b91505092915050565b5f805f60608486031215620004325762000431620001f9565b5b5f62000441868287016200025f565b935050602062000454868287016200028e565b925050604084015167ffffffffffffffff811115620004785762000477620001fd565b5b6200048686828701620003e6565b9150509250925092565b6200049b8162000220565b82525050565b5f602082019050620004b65f83018462000490565b92915050565b5f81519050919050565b7f4e487b71000000000000000000000000000000000000000000000000000000005f52602260045260245ffd5b5f60028204905060018216806200050b57607f821691505b602082108103620005215762000520620004c6565b5b50919050565b5f819050815f5260205f209050919050565b5f6020601f8301049050919050565b5f82821b905092915050565b5f60088302620005857fffffffffffffffffffffffffffffffffffffffffffffffffffffffffffffffff8262000548565b62000591868362000548565b95508019841693508086168417925050509392505050565b5f819050919050565b5f819050919050565b5f620005db620005d5620005cf84620005a9565b620005b2565b620005a9565b9050919050565b5f819050919050565b620005f683620005bb565b6200060e6200060582620005e2565b84845462000554565b825550505050565b5f90565b6200062462000616565b62000631818484620005eb565b505050565b5b8181101562000658576200064c5f826200061a565b60018101905062000637565b5050565b601f821115620006a757620006718162000527565b6200067c8462000539565b810160208510156200068c578190505b620006a46200069b8562000539565b83018262000636565b50505b505050565b5f82821c905092915050565b5f620006c95f1984600802620006ac565b1980831691505092915050565b5f620006e38383620006b8565b9150826002028217905092915050565b620006fe82620004bc565b67ffffffffffffffff8111156200071a5762000719620002bc565b5b620007268254620004f3565b620007338282856200065c565b5f60209050601f83116001811462000769575f841562000754578287015190505b620007608582620006d6565b865550620007cf565b601f198416620007798662000527565b5f5b82811015620007a2578489015182556001820191506020850194506020810190506200077b565b86831015620007c25784890151620007be601f891682620006b8565b8355505b6001600288020188555050505b505050505050565b615d8980620007e55f395ff3fe608060405234801561000f575f80fd5b5060043610610170575f3560e01c8063715018a6116100dc578063bce68ac311610095578063e985e9c51161006f578063e985e9c51461046d578063f242432a1461049d578063f2fde38b146104b9578063f5298aca146104d557610170565b8063bce68ac3146103dc578063d121cdc01461040d578063e725f8771461043d57610170565b8063715018a61461032e5780637330dd84146103385780637578b248146103545780638da5cb5b1461037257806394ad436d14610390578063a22cb465146103c057610170565b80632eb2c2d61161012e5780632eb2c2d61461025a57806331ae450b146102765780634e1273f41461029457806350fbdb2d146102c45780635f54c999146102e0578063704802751461031257610170565b8062fdd58e1461017457806301ffc9a7146101a45780630e89341c146101d45780631785f53c146102045780632b7ac3f3146102205780632dbff9501461023e575b5f80fd5b61018e60048036038101906101899190613a16565b6104f1565b60405161019b9190613a63565b60405180910390f35b6101be60048036038101906101b99190613ad1565b610546565b6040516101cb9190613b16565b60405180910390f35b6101ee60048036038101906101e99190613b2f565b610627565b6040516101fb9190613be4565b60405180910390f35b61021e60048036038101906102199190613c04565b6106b9565b005b610228610880565b6040516102359190613c8a565b60405180910390f35b61025860048036038101906102539190613d59565b6108a5565b005b610274600480360381019061026f9190613fe4565b610b85565b005b61027e610cc1565b60405161028b9190614166565b60405180910390f35b6102ae60048036038101906102a99190614246565b610d54565b6040516102bb9190614373565b60405180910390f35b6102de60048036038101906102d991906143d0565b610e61565b005b6102fa60048036038101906102f5919061440e565b6112a8565b6040516103099392919061445e565b60405180910390f35b61032c60048036038101906103279190613c04565b611476565b005b610336611598565b005b610352600480360381019061034d9190614505565b6115ab565b005b61035c611911565b6040516103699190614373565b60405180910390f35b61037a611922565b604051610387919061462d565b60405180910390f35b6103aa60048036038101906103a5919061440e565b61194a565b6040516103b79190613be4565b60405180910390f35b6103da60048036038101906103d59190614670565b6119fb565b005b6103f660048036038101906103f191906146ae565b611a11565b604051610404929190614901565b60405180910390f35b61042760048036038101906104229190613b2f565b611f9b565b6040516104349190614945565b60405180910390f35b61045760048036038101906104529190613b2f565b611fd6565b6040516104649190613be4565b60405180910390f35b6104876004803603810190610482919061495e565b612071565b6040516104949190613b16565b60405180910390f35b6104b760048036038101906104b2919061499c565b6120ff565b005b6104d360048036038101906104ce9190613c04565b61211e565b005b6104ef60048036038101906104ea9190614a2f565b6121a2565b005b5f805f8381526020019081526020015f205f8473ffffffffffffffffffffffffffffffffffffffff1673ffffffffffffffffffffffffffffffffffffffff1681526020019081526020015f2054905092915050565b5f7fd9b67a26000000000000000000000000000000000000000000000000000000007bffffffffffffffffffffffffffffffffffffffffffffffffffffffff1916827bffffffffffffffffffffffffffffffffffffffffffffffffffffffff1916148061061057507f0e89341c000000000000000000000000000000000000000000000000000000007bffffffffffffffffffffffffffffffffffffffffffffffffffffffff1916827bffffffffffffffffffffffffffffffffffffffffffffffffffffffff1916145b80610620575061061f826121ba565b5b9050919050565b60606002805461063690614aac565b80601f016020809104026020016040519081016040528092919081815260200182805461066290614aac565b80156106ad5780601f10610684576101008083540402835291602001916106ad565b820191905f5260205f20905b81548152906001019060200180831161069057829003601f168201915b50505050509050919050565b6106c1612223565b5f60048054905090505f5b81811015610841578273ffffffffffffffffffffffffffffffffffffffff16600482815481106106ff576106fe614adc565b5b905f5260205f20015f9054906101000a900473ffffffffffffffffffffffffffffffffffffffff1673ffffffffffffffffffffffffffffffffffffffff160361082e5760046001836107519190614b36565b8154811061076257610761614adc565b5b905f5260205f20015f9054906101000a900473ffffffffffffffffffffffffffffffffffffffff166004828154811061079e5761079d614adc565b5b905f5260205f20015f6101000a81548173ffffffffffffffffffffffffffffffffffffffff021916908373ffffffffffffffffffffffffffffffffffffffff16021790555060048054806107f5576107f4614b69565b5b600190038181905f5260205f20015f6101000a81549073ffffffffffffffffffffffffffffffffffffffff02191690559055505061087d565b808061083990614b96565b9150506106cc565b506040517f08c379a000000000000000000000000000000000000000000000000000000000815260040161087490614c27565b60405180910390fd5b50565b600b5f9054906101000a900473ffffffffffffffffffffffffffffffffffffffff1681565b5f82829050116108ea576040517f08c379a00000000000000000000000000000000000000000000000000000000081526004016108e190614c8f565b60405180910390fd5b5f805f6108f760056122aa565b90505f5b815181101561099a578585604051610914929190614cdb565b604051809103902060075f84848151811061093257610931614adc565b5b602002602001015181526020019081526020015f206040516109549190614d85565b6040518091039020036109875781818151811061097457610973614adc565b5b602002602001015193506001925061099a565b808061099290614b96565b9150506108fb565b5081156109f5576109f089848a8a8a8080601f0160208091040260200160405190810160405280939291908181526020018383808284375f81840152601f19601f820116905080830192505050505050506122c9565b610b7a565b5f805f90505b62015f9042448d8a8a86604051602001610a1a96959493929190614e2e565b604051602081830303815290604052805190602001205f1c610a3c9190614eb7565b6103e8610a499190614ee7565b91508080610a5690614b96565b91505060648110610a9c576040517f08c379a0000000000000000000000000000000000000000000000000000000008152600401610a9390614f8a565b60405180910390fd5b610ab082600561235e90919063ffffffff16565b6109fb57610ac882600561237590919063ffffffff16565b610b07576040517f08c379a0000000000000000000000000000000000000000000000000000000008152600401610afe90614ff2565b60405180910390fd5b610b568b838c8c8c8080601f0160208091040260200160405190810160405280939291908181526020018383808284375f81840152601f19601f820116905080830192505050505050506122c9565b868660075f8581526020019081526020015f209182610b769291906151ae565b5050505b505050505050505050565b8151835114610bc9576040517f08c379a0000000000000000000000000000000000000000000000000000000008152600401610bc0906152eb565b60405180910390fd5b5f73ffffffffffffffffffffffffffffffffffffffff168473ffffffffffffffffffffffffffffffffffffffff1603610c37576040517f08c379a0000000000000000000000000000000000000000000000000000000008152600401610c2e90615379565b60405180910390fd5b5f5b8351811015610cb957610c67848281518110610c5857610c57614adc565b5b6020026020010151878761238c565b610ca88686868481518110610c7f57610c7e614adc565b5b6020026020010151868581518110610c9a57610c99614adc565b5b6020026020010151866120ff565b80610cb290614b96565b9050610c39565b505050505050565b6060610ccb612223565b6004805480602002602001604051908101604052809291908181526020018280548015610d4a57602002820191905f5260205f20905b815f9054906101000a900473ffffffffffffffffffffffffffffffffffffffff1673ffffffffffffffffffffffffffffffffffffffff1681526020019060010190808311610d01575b5050505050905090565b60608151835114610da057815183516040517f5b059991000000000000000000000000000000000000000000000000000000008152600401610d97929190615397565b60405180910390fd5b5f835167ffffffffffffffff811115610dbc57610dbb613dfc565b5b604051908082528060200260200182016040528015610dea5781602001602082028036833780820191505090505b5090505f5b8451811015610e5657610e26610e0e828761282490919063ffffffff16565b610e21838761283790919063ffffffff16565b6104f1565b828281518110610e3957610e38614adc565b5b60200260200101818152505080610e4f90614b96565b9050610def565b508091505092915050565b610e7582600561235e90919063ffffffff16565b610eb4576040517f08c379a0000000000000000000000000000000000000000000000000000000008152600401610eab90615408565b60405180910390fd5b5f60085f8481526020019081526020015f205f3373ffffffffffffffffffffffffffffffffffffffff1673ffffffffffffffffffffffffffffffffffffffff1681526020019081526020015f205f8367ffffffffffffffff1667ffffffffffffffff1681526020019081526020015f208054610f2f90614aac565b905003610f71576040517f08c379a0000000000000000000000000000000000000000000000000000000008152600401610f6890615470565b60405180910390fd5b5f60095f8481526020019081526020015f205f3373ffffffffffffffffffffffffffffffffffffffff1673ffffffffffffffffffffffffffffffffffffffff1681526020019081526020015f205f8367ffffffffffffffff1667ffffffffffffffff1681526020019081526020015f205f018054610fee90614aac565b905003611030576040517f08c379a0000000000000000000000000000000000000000000000000000000008152600401611027906154d8565b60405180910390fd5b60085f8381526020019081526020015f205f3373ffffffffffffffffffffffffffffffffffffffff1673ffffffffffffffffffffffffffffffffffffffff1681526020019081526020015f205f8267ffffffffffffffff1667ffffffffffffffff1681526020019081526020015f205f6110aa91906138ff565b60095f8381526020019081526020015f205f3373ffffffffffffffffffffffffffffffffffffffff1673ffffffffffffffffffffffffffffffffffffffff1681526020019081526020015f205f8267ffffffffffffffff1667ffffffffffffffff1681526020019081526020015f205f8082015f61112891906138ff565b600182015f61113791906138ff565b600282015f61114691906138ff565b50505f5b600a805490508110156112a3578167ffffffffffffffff16600a828154811061117657611175614adc565b5b905f5260205f2090600491828204019190066008029054906101000a900467ffffffffffffffff1667ffffffffffffffff160361129057600a6001600a805490506111c19190614b36565b815481106111d2576111d1614adc565b5b905f5260205f2090600491828204019190066008029054906101000a900467ffffffffffffffff16600a828154811061120e5761120d614adc565b5b905f5260205f2090600491828204019190066008026101000a81548167ffffffffffffffff021916908367ffffffffffffffff160217905550600a80548061125957611258614b69565b5b600190038181905f5260205f2090600491828204019190066008026101000a81549067ffffffffffffffff021916905590556112a3565b808061129b90614b96565b91505061114a565b505050565b6009602052825f5260405f20602052815f5260405f20602052805f5260405f205f925092505050805f0180546112dd90614aac565b80601f016020809104026020016040519081016040528092919081815260200182805461130990614aac565b80156113545780601f1061132b57610100808354040283529160200191611354565b820191905f5260205f20905b81548152906001019060200180831161133757829003601f168201915b50505050509080600101805461136990614aac565b80601f016020809104026020016040519081016040528092919081815260200182805461139590614aac565b80156113e05780601f106113b7576101008083540402835291602001916113e0565b820191905f5260205f20905b8154815290600101906020018083116113c357829003601f168201915b5050505050908060020180546113f590614aac565b80601f016020809104026020016040519081016040528092919081815260200182805461142190614aac565b801561146c5780601f106114435761010080835404028352916020019161146c565b820191905f5260205f20905b81548152906001019060200180831161144f57829003601f168201915b5050505050905083565b61147e612223565b5f73ffffffffffffffffffffffffffffffffffffffff168173ffffffffffffffffffffffffffffffffffffffff16036114ec576040517f08c379a00000000000000000000000000000000000000000000000000000000081526004016114e390615540565b60405180910390fd5b6114f58161284a565b15611535576040517f08c379a000000000000000000000000000000000000000000000000000000000815260040161152c906155a8565b60405180910390fd5b600481908060018154018082558091505060019003905f5260205f20015f9091909190916101000a81548173ffffffffffffffffffffffffffffffffffffffff021916908373ffffffffffffffffffffffffffffffffffffffff16021790555050565b6115a0612223565b6115a95f6128f2565b565b5f6115b633866104f1565b116115f6576040517f08c379a00000000000000000000000000000000000000000000000000000000081526004016115ed90615636565b60405180910390fd5b5f60405180606001604052808b8b8080601f0160208091040260200160405190810160405280939291908181526020018383808284375f81840152601f19601f8201169050808301925050505050505081526020018973ffffffffffffffffffffffffffffffffffffffff16815260200188888080601f0160208091040260200160405190810160405280939291908181526020018383808284375f81840152601f19601f820116905080830192505050505050508152509050600b5f9054906101000a900473ffffffffffffffffffffffffffffffffffffffff1673ffffffffffffffffffffffffffffffffffffffff16639f5223e08c836040518363ffffffff1660e01b815260040161170c92919061571a565b5f604051808303815f87803b158015611723575f80fd5b505af1158015611735573d5f803e3d5ffd5b50505050611745858c86866129b5565b604051806060016040528083805f019061175f9190615754565b8080601f0160208091040260200160405190810160405280939291908181526020018383808284375f81840152601f19601f8201169050808301925050505050505081526020018380602001906117b69190615754565b8080601f0160208091040260200160405190810160405280939291908181526020018383808284375f81840152601f19601f82011690508083019250505050505050815260200183806040019061180d9190615754565b8080601f0160208091040260200160405190810160405280939291908181526020018383808284375f81840152601f19601f8201169050808301925050505050505081525060095f8781526020019081526020015f205f3373ffffffffffffffffffffffffffffffffffffffff1673ffffffffffffffffffffffffffffffffffffffff1681526020019081526020015f205f8d67ffffffffffffffff1667ffffffffffffffff1681526020019081526020015f205f820151815f0190816118d491906157b6565b5060208201518160010190816118ea91906157b6565b50604082015181600201908161190091906157b6565b509050505050505050505050505050565b606061191d60056122aa565b905090565b5f60035f9054906101000a900473ffffffffffffffffffffffffffffffffffffffff16905090565b6008602052825f5260405f20602052815f5260405f20602052805f5260405f205f925092505050805461197c90614aac565b80601f01602080910402602001604051908101604052809291908181526020018280546119a890614aac565b80156119f35780601f106119ca576101008083540402835291602001916119f3565b820191905f5260205f20905b8154815290600101906020018083116119d657829003601f168201915b505050505081565b611a0d611a06612c90565b8383612c97565b5050565b6060805f600a805480602002602001604051908101604052809291908181526020018280548015611a9257602002820191905f5260205f20905f905b82829054906101000a900467ffffffffffffffff1667ffffffffffffffff1681526020019060080190602082600701049283019260010382029150808411611a4d5790505b505050505090505f805b8251811015611b66575f60095f8981526020019081526020015f205f8873ffffffffffffffffffffffffffffffffffffffff1673ffffffffffffffffffffffffffffffffffffffff1681526020019081526020015f205f858481518110611b0657611b05614adc565b5b602002602001015167ffffffffffffffff1667ffffffffffffffff1681526020019081526020015f205f018054611b3c90614aac565b90501115611b53578180611b4f90614b96565b9250505b8080611b5e90614b96565b915050611a9c565b505f8167ffffffffffffffff811115611b8257611b81613dfc565b5b604051908082528060200260200182016040528015611bb05781602001602082028036833780820191505090505b5090505f8267ffffffffffffffff811115611bce57611bcd613dfc565b5b604051908082528060200260200182016040528015611c0757816020015b611bf461393c565b815260200190600190039081611bec5790505b5090505f805b8551811015611f88575f60095f8c81526020019081526020015f205f8b73ffffffffffffffffffffffffffffffffffffffff1673ffffffffffffffffffffffffffffffffffffffff1681526020019081526020015f205f888481518110611c7757611c76614adc565b5b602002602001015167ffffffffffffffff1667ffffffffffffffff1681526020019081526020015f205f018054611cad90614aac565b90501115611f7557858181518110611cc857611cc7614adc565b5b6020026020010151848381518110611ce357611ce2614adc565b5b602002602001019067ffffffffffffffff16908167ffffffffffffffff168152505060095f8b81526020019081526020015f205f8a73ffffffffffffffffffffffffffffffffffffffff1673ffffffffffffffffffffffffffffffffffffffff1681526020019081526020015f205f878381518110611d6557611d64614adc565b5b602002602001015167ffffffffffffffff1667ffffffffffffffff1681526020019081526020015f206040518060600160405290815f82018054611da890614aac565b80601f0160208091040260200160405190810160405280929190818152602001828054611dd490614aac565b8015611e1f5780601f10611df657610100808354040283529160200191611e1f565b820191905f5260205f20905b815481529060010190602001808311611e0257829003601f168201915b50505050508152602001600182018054611e3890614aac565b80601f0160208091040260200160405190810160405280929190818152602001828054611e6490614aac565b8015611eaf5780601f10611e8657610100808354040283529160200191611eaf565b820191905f5260205f20905b815481529060010190602001808311611e9257829003601f168201915b50505050508152602001600282018054611ec890614aac565b80601f0160208091040260200160405190810160405280929190818152602001828054611ef490614aac565b8015611f3f5780601f10611f1657610100808354040283529160200191611f3f565b820191905f5260205f20905b815481529060010190602001808311611f2257829003601f168201915b505050505081525050838381518110611f5b57611f5a614adc565b5b60200260200101819052508180611f7190614b96565b9250505b8080611f8090614b96565b915050611c0d565b5082829650965050505050509250929050565b600a8181548110611faa575f80fd5b905f5260205f209060049182820401919006600802915054906101000a900467ffffffffffffffff1681565b6007602052805f5260405f205f915090508054611ff290614aac565b80601f016020809104026020016040519081016040528092919081815260200182805461201e90614aac565b80156120695780601f1061204057610100808354040283529160200191612069565b820191905f5260205f20905b81548152906001019060200180831161204c57829003601f168201915b505050505081565b5f60015f8473ffffffffffffffffffffffffffffffffffffffff1673ffffffffffffffffffffffffffffffffffffffff1681526020019081526020015f205f8373ffffffffffffffffffffffffffffffffffffffff1673ffffffffffffffffffffffffffffffffffffffff1681526020019081526020015f205f9054906101000a900460ff16905092915050565b61210a83868661238c565b6121178585858585612e00565b5050505050565b612126612223565b5f73ffffffffffffffffffffffffffffffffffffffff168173ffffffffffffffffffffffffffffffffffffffff1603612196575f6040517f1e4fbdf700000000000000000000000000000000000000000000000000000000815260040161218d919061462d565b60405180910390fd5b61219f816128f2565b50565b6121aa612223565b6121b5838383612ea7565b505050565b5f7f01ffc9a7000000000000000000000000000000000000000000000000000000007bffffffffffffffffffffffffffffffffffffffffffffffffffffffff1916827bffffffffffffffffffffffffffffffffffffffffffffffffffffffff1916149050919050565b61222b612c90565b73ffffffffffffffffffffffffffffffffffffffff16612249611922565b73ffffffffffffffffffffffffffffffffffffffff16146122a85761226c612c90565b6040517f118cdaa700000000000000000000000000000000000000000000000000000000815260040161229f919061462d565b60405180910390fd5b565b60605f6122b8835f01612f49565b905060608190508092505050919050565b5f73ffffffffffffffffffffffffffffffffffffffff168473ffffffffffffffffffffffffffffffffffffffff1603612339575f6040517f57f447ce000000000000000000000000000000000000000000000000000000008152600401612330919061462d565b60405180910390fd5b5f806123458585612fa2565b915091506123565f87848487612fd2565b505050505050565b5f61236d835f01835f1b61307e565b905092915050565b5f612384835f01835f1b61309e565b905092915050565b5f600a80548060200260200160405190810160405280929190818152602001828054801561240a57602002820191905f5260205f20905f905b82829054906101000a900467ffffffffffffffff1667ffffffffffffffff16815260200190600801906020826007010492830192600103820291508084116123c55790505b505050505090505f5b815181101561281d575f60085f8781526020019081526020015f205f8673ffffffffffffffffffffffffffffffffffffffff1673ffffffffffffffffffffffffffffffffffffffff1681526020019081526020015f205f84848151811061247d5761247c614adc565b5b602002602001015167ffffffffffffffff1667ffffffffffffffff1681526020019081526020015f2080546124b190614aac565b80601f01602080910402602001604051908101604052809291908181526020018280546124dd90614aac565b80156125285780601f106124ff57610100808354040283529160200191612528565b820191905f5260205f20905b81548152906001019060200180831161250b57829003601f168201915b505050505090505f81510361253d575061280a565b6040518060400160405280600681526020017f73656e6465720000000000000000000000000000000000000000000000000000815250805190602001208180519060200120036126a457600b5f9054906101000a900473ffffffffffffffffffffffffffffffffffffffff1673ffffffffffffffffffffffffffffffffffffffff16638c1da2c9868585815181106125d8576125d7614adc565b5b60200260200101516040518363ffffffff1660e01b81526004016125fd929190615885565b5f60405180830381865afa158015612617573d5f803e3d5ffd5b505050506040513d5f823e3d601f19601f8201168201806040525081019061263f9190615a0b565b5f015161269f5782828151811061265957612658614adc565b5b6020026020010151856040517fa5a4608e000000000000000000000000000000000000000000000000000000008152600401612696929190615a52565b60405180910390fd5b612808565b6040518060400160405280600881526020017f72656365697665720000000000000000000000000000000000000000000000008152508051906020012081805190602001200361280757600b5f9054906101000a900473ffffffffffffffffffffffffffffffffffffffff1673ffffffffffffffffffffffffffffffffffffffff16638c1da2c98585858151811061273f5761273e614adc565b5b60200260200101516040518363ffffffff1660e01b8152600401612764929190615885565b5f60405180830381865afa15801561277e573d5f803e3d5ffd5b505050506040513d5f823e3d601f19601f820116820180604052508101906127a69190615a0b565b5f0151612806578282815181106127c0576127bf614adc565b5b6020026020010151846040517fa5a4608e0000000000000000000000000000000000000000000000000000000081526004016127fd929190615a52565b60405180910390fd5b5b5b505b808061281590614b96565b915050612413565b5050505050565b5f60208202602084010151905092915050565b5f60208202602084010151905092915050565b5f805f90505b6004805490508110156128e8578273ffffffffffffffffffffffffffffffffffffffff166004828154811061288857612887614adc565b5b905f5260205f20015f9054906101000a900473ffffffffffffffffffffffffffffffffffffffff1673ffffffffffffffffffffffffffffffffffffffff16036128d55760019150506128ed565b80806128e090614b96565b915050612850565b505f90505b919050565b5f60035f9054906101000a900473ffffffffffffffffffffffffffffffffffffffff1690508160035f6101000a81548173ffffffffffffffffffffffffffffffffffffffff021916908373ffffffffffffffffffffffffffffffffffffffff1602179055508173ffffffffffffffffffffffffffffffffffffffff168173ffffffffffffffffffffffffffffffffffffffff167f8be0079c531659141344cd1fd0a4f28419497f9722a3daafe3b4186f6b6457e060405160405180910390a35050565b6129c984600561235e90919063ffffffff16565b612a08576040517f08c379a00000000000000000000000000000000000000000000000000000000081526004016129ff90615408565b60405180910390fd5b5f60085f8681526020019081526020015f205f3373ffffffffffffffffffffffffffffffffffffffff1673ffffffffffffffffffffffffffffffffffffffff1681526020019081526020015f205f8567ffffffffffffffff1667ffffffffffffffff1681526020019081526020015f208054612a8390614aac565b905014612ac5576040517f08c379a0000000000000000000000000000000000000000000000000000000008152600401612abc90615ac3565b60405180910390fd5b6040518060400160405280600681526020017f73656e6465720000000000000000000000000000000000000000000000000000815250805190602001208282604051612b12929190614cdb565b60405180910390201480612b7857506040518060400160405280600881526020017f7265636569766572000000000000000000000000000000000000000000000000815250805190602001208282604051612b6e929190614cdb565b6040518091039020145b612bb7576040517f08c379a0000000000000000000000000000000000000000000000000000000008152600401612bae90615b51565b60405180910390fd5b818160085f8781526020019081526020015f205f3373ffffffffffffffffffffffffffffffffffffffff1673ffffffffffffffffffffffffffffffffffffffff1681526020019081526020015f205f8667ffffffffffffffff1667ffffffffffffffff1681526020019081526020015f209182612c359291906151ae565b50600a83908060018154018082558091505060019003905f5260205f2090600491828204019190066008029091909190916101000a81548167ffffffffffffffff021916908367ffffffffffffffff16021790555050505050565b5f33905090565b5f73ffffffffffffffffffffffffffffffffffffffff168273ffffffffffffffffffffffffffffffffffffffff1603612d07575f6040517fced3e100000000000000000000000000000000000000000000000000000000008152600401612cfe919061462d565b60405180910390fd5b8060015f8573ffffffffffffffffffffffffffffffffffffffff1673ffffffffffffffffffffffffffffffffffffffff1681526020019081526020015f205f8473ffffffffffffffffffffffffffffffffffffffff1673ffffffffffffffffffffffffffffffffffffffff1681526020019081526020015f205f6101000a81548160ff0219169083151502179055508173ffffffffffffffffffffffffffffffffffffffff168373ffffffffffffffffffffffffffffffffffffffff167f17307eab39ab6107e8899845ad3d59bd9653f200f220920489ca2b5937696c3183604051612df39190613b16565b60405180910390a3505050565b5f612e09612c90565b90508073ffffffffffffffffffffffffffffffffffffffff168673ffffffffffffffffffffffffffffffffffffffff1614158015612e4e5750612e4c8682612071565b155b15612e925780866040517fe237d922000000000000000000000000000000000000000000000000000000008152600401612e89929190615b6f565b60405180910390fd5b612e9f8686868686613105565b505050505050565b5f73ffffffffffffffffffffffffffffffffffffffff168373ffffffffffffffffffffffffffffffffffffffff1603612f17575f6040517f01a83514000000000000000000000000000000000000000000000000000000008152600401612f0e919061462d565b60405180910390fd5b5f80612f238484612fa2565b91509150612f42855f848460405180602001604052805f815250612fd2565b5050505050565b6060815f01805480602002602001604051908101604052809291908181526020018280548015612f9657602002820191905f5260205f20905b815481526020019060010190808311612f82575b50505050509050919050565b60608060405191506001825283602083015260408201905060018152826020820152604081016040529250929050565b612fde8585858561320b565b5f73ffffffffffffffffffffffffffffffffffffffff168473ffffffffffffffffffffffffffffffffffffffff1614613077575f61301a612c90565b90506001845103613066575f6130395f8661283790919063ffffffff16565b90505f61304f5f8661283790919063ffffffff16565b905061305f8389898585896135a1565b5050613075565b613074818787878787613750565b5b505b5050505050565b5f80836001015f8481526020019081526020015f20541415905092915050565b5f6130a9838361307e565b6130fb57825f0182908060018154018082558091505060019003905f5260205f20015f9091909190915055825f0180549050836001015f8481526020019081526020015f2081905550600190506130ff565b5f90505b92915050565b5f73ffffffffffffffffffffffffffffffffffffffff168473ffffffffffffffffffffffffffffffffffffffff1603613175575f6040517f57f447ce00000000000000000000000000000000000000000000000000000000815260040161316c919061462d565b60405180910390fd5b5f73ffffffffffffffffffffffffffffffffffffffff168573ffffffffffffffffffffffffffffffffffffffff16036131e5575f6040517f01a835140000000000000000000000000000000000000000000000000000000081526004016131dc919061462d565b60405180910390fd5b5f806131f18585612fa2565b915091506132028787848487612fd2565b50505050505050565b805182511461325557815181516040517f5b05999100000000000000000000000000000000000000000000000000000000815260040161324c929190615397565b60405180910390fd5b5f61325e612c90565b90505f5b8351811015613460575f61327f828661283790919063ffffffff16565b90505f613295838661283790919063ffffffff16565b90505f73ffffffffffffffffffffffffffffffffffffffff168873ffffffffffffffffffffffffffffffffffffffff16146133b8575f805f8481526020019081526020015f205f8a73ffffffffffffffffffffffffffffffffffffffff1673ffffffffffffffffffffffffffffffffffffffff1681526020019081526020015f205490508181101561336457888183856040517f03dee4c500000000000000000000000000000000000000000000000000000000815260040161335b9493929190615b96565b60405180910390fd5b8181035f808581526020019081526020015f205f8b73ffffffffffffffffffffffffffffffffffffffff1673ffffffffffffffffffffffffffffffffffffffff1681526020019081526020015f2081905550505b5f73ffffffffffffffffffffffffffffffffffffffff168773ffffffffffffffffffffffffffffffffffffffff161461344d57805f808481526020019081526020015f205f8973ffffffffffffffffffffffffffffffffffffffff1673ffffffffffffffffffffffffffffffffffffffff1681526020019081526020015f205f8282546134459190614ee7565b925050819055505b50508061345990614b96565b9050613262565b50600183510361351b575f61347e5f8561283790919063ffffffff16565b90505f6134945f8561283790919063ffffffff16565b90508573ffffffffffffffffffffffffffffffffffffffff168773ffffffffffffffffffffffffffffffffffffffff168473ffffffffffffffffffffffffffffffffffffffff167fc3d58168c5ae7397731d063d5bbf3d657854427343f4c083240f7aacaa2d0f62858560405161350c929190615397565b60405180910390a4505061359a565b8373ffffffffffffffffffffffffffffffffffffffff168573ffffffffffffffffffffffffffffffffffffffff168273ffffffffffffffffffffffffffffffffffffffff167f4a39dc06d4c0dbc64b70af90fd698a233a518aa5d07e595d983b8c0526c8f7fb8686604051613591929190615bd9565b60405180910390a45b5050505050565b5f8473ffffffffffffffffffffffffffffffffffffffff163b1115613748578373ffffffffffffffffffffffffffffffffffffffff1663f23a6e6187878686866040518663ffffffff1660e01b8152600401613601959493929190615c56565b6020604051808303815f875af192505050801561363c57506040513d601f19601f820116820180604052508101906136399190615cc2565b60015b6136bd573d805f811461366a576040519150601f19603f3d011682016040523d82523d5f602084013e61366f565b606091505b505f8151036136b557846040517f57f447ce0000000000000000000000000000000000000000000000000000000081526004016136ac919061462d565b60405180910390fd5b805181602001fd5b63f23a6e6160e01b7bffffffffffffffffffffffffffffffffffffffffffffffffffffffff1916817bffffffffffffffffffffffffffffffffffffffffffffffffffffffff19161461374657846040517f57f447ce00000000000000000000000000000000000000000000000000000000815260040161373d919061462d565b60405180910390fd5b505b505050505050565b5f8473ffffffffffffffffffffffffffffffffffffffff163b11156138f7578373ffffffffffffffffffffffffffffffffffffffff1663bc197c8187878686866040518663ffffffff1660e01b81526004016137b0959493929190615ced565b6020604051808303815f875af19250505080156137eb57506040513d601f19601f820116820180604052508101906137e89190615cc2565b60015b61386c573d805f8114613819576040519150601f19603f3d011682016040523d82523d5f602084013e61381e565b606091505b505f81510361386457846040517f57f447ce00000000000000000000000000000000000000000000000000000000815260040161385b919061462d565b60405180910390fd5b805181602001fd5b63bc197c8160e01b7bffffffffffffffffffffffffffffffffffffffffffffffffffffffff1916817bffffffffffffffffffffffffffffffffffffffffffffffffffffffff1916146138f557846040517f57f447ce0000000000000000000000000000000000000000000000000000000081526004016138ec919061462d565b60405180910390fd5b505b505050505050565b50805461390b90614aac565b5f825580601f1061391c5750613939565b601f0160209004905f5260205f2090810190613938919061395d565b5b50565b60405180606001604052806060815260200160608152602001606081525090565b5b80821115613974575f815f90555060010161395e565b5090565b5f604051905090565b5f80fd5b5f80fd5b5f73ffffffffffffffffffffffffffffffffffffffff82169050919050565b5f6139b282613989565b9050919050565b6139c2816139a8565b81146139cc575f80fd5b50565b5f813590506139dd816139b9565b92915050565b5f819050919050565b6139f5816139e3565b81146139ff575f80fd5b50565b5f81359050613a10816139ec565b92915050565b5f8060408385031215613a2c57613a2b613981565b5b5f613a39858286016139cf565b9250506020613a4a85828601613a02565b9150509250929050565b613a5d816139e3565b82525050565b5f602082019050613a765f830184613a54565b92915050565b5f7fffffffff0000000000000000000000000000000000000000000000000000000082169050919050565b613ab081613a7c565b8114613aba575f80fd5b50565b5f81359050613acb81613aa7565b92915050565b5f60208284031215613ae657613ae5613981565b5b5f613af384828501613abd565b91505092915050565b5f8115159050919050565b613b1081613afc565b82525050565b5f602082019050613b295f830184613b07565b92915050565b5f60208284031215613b4457613b43613981565b5b5f613b5184828501613a02565b91505092915050565b5f81519050919050565b5f82825260208201905092915050565b5f5b83811015613b91578082015181840152602081019050613b76565b5f8484015250505050565b5f601f19601f8301169050919050565b5f613bb682613b5a565b613bc08185613b64565b9350613bd0818560208601613b74565b613bd981613b9c565b840191505092915050565b5f6020820190508181035f830152613bfc8184613bac565b905092915050565b5f60208284031215613c1957613c18613981565b5b5f613c26848285016139cf565b91505092915050565b5f819050919050565b5f613c52613c4d613c4884613989565b613c2f565b613989565b9050919050565b5f613c6382613c38565b9050919050565b5f613c7482613c59565b9050919050565b613c8481613c6a565b82525050565b5f602082019050613c9d5f830184613c7b565b92915050565b5f80fd5b5f80fd5b5f80fd5b5f8083601f840112613cc457613cc3613ca3565b5b8235905067ffffffffffffffff811115613ce157613ce0613ca7565b5b602083019150836001820283011115613cfd57613cfc613cab565b5b9250929050565b5f8083601f840112613d1957613d18613ca3565b5b8235905067ffffffffffffffff811115613d3657613d35613ca7565b5b602083019150836001820283011115613d5257613d51613cab565b5b9250929050565b5f805f805f8060808789031215613d7357613d72613981565b5b5f613d8089828a016139cf565b9650506020613d9189828a01613a02565b955050604087013567ffffffffffffffff811115613db257613db1613985565b5b613dbe89828a01613caf565b9450945050606087013567ffffffffffffffff811115613de157613de0613985565b5b613ded89828a01613d04565b92509250509295509295509295565b7f4e487b71000000000000000000000000000000000000000000000000000000005f52604160045260245ffd5b613e3282613b9c565b810181811067ffffffffffffffff82111715613e5157613e50613dfc565b5b80604052505050565b5f613e63613978565b9050613e6f8282613e29565b919050565b5f67ffffffffffffffff821115613e8e57613e8d613dfc565b5b602082029050602081019050919050565b5f613eb1613eac84613e74565b613e5a565b90508083825260208201905060208402830185811115613ed457613ed3613cab565b5b835b81811015613efd5780613ee98882613a02565b845260208401935050602081019050613ed6565b5050509392505050565b5f82601f830112613f1b57613f1a613ca3565b5b8135613f2b848260208601613e9f565b91505092915050565b5f80fd5b5f67ffffffffffffffff821115613f5257613f51613dfc565b5b613f5b82613b9c565b9050602081019050919050565b828183375f83830152505050565b5f613f88613f8384613f38565b613e5a565b905082815260208101848484011115613fa457613fa3613f34565b5b613faf848285613f68565b509392505050565b5f82601f830112613fcb57613fca613ca3565b5b8135613fdb848260208601613f76565b91505092915050565b5f805f805f60a08688031215613ffd57613ffc613981565b5b5f61400a888289016139cf565b955050602061401b888289016139cf565b945050604086013567ffffffffffffffff81111561403c5761403b613985565b5b61404888828901613f07565b935050606086013567ffffffffffffffff81111561406957614068613985565b5b61407588828901613f07565b925050608086013567ffffffffffffffff81111561409657614095613985565b5b6140a288828901613fb7565b9150509295509295909350565b5f81519050919050565b5f82825260208201905092915050565b5f819050602082019050919050565b6140e1816139a8565b82525050565b5f6140f283836140d8565b60208301905092915050565b5f602082019050919050565b5f614114826140af565b61411e81856140b9565b9350614129836140c9565b805f5b8381101561415957815161414088826140e7565b975061414b836140fe565b92505060018101905061412c565b5085935050505092915050565b5f6020820190508181035f83015261417e818461410a565b905092915050565b5f67ffffffffffffffff8211156141a05761419f613dfc565b5b602082029050602081019050919050565b5f6141c36141be84614186565b613e5a565b905080838252602082019050602084028301858111156141e6576141e5613cab565b5b835b8181101561420f57806141fb88826139cf565b8452602084019350506020810190506141e8565b5050509392505050565b5f82601f83011261422d5761422c613ca3565b5b813561423d8482602086016141b1565b91505092915050565b5f806040838503121561425c5761425b613981565b5b5f83013567ffffffffffffffff81111561427957614278613985565b5b61428585828601614219565b925050602083013567ffffffffffffffff8111156142a6576142a5613985565b5b6142b285828601613f07565b9150509250929050565b5f81519050919050565b5f82825260208201905092915050565b5f819050602082019050919050565b6142ee816139e3565b82525050565b5f6142ff83836142e5565b60208301905092915050565b5f602082019050919050565b5f614321826142bc565b61432b81856142c6565b9350614336836142d6565b805f5b8381101561436657815161434d88826142f4565b97506143588361430b565b925050600181019050614339565b5085935050505092915050565b5f6020820190508181035f83015261438b8184614317565b905092915050565b5f67ffffffffffffffff82169050919050565b6143af81614393565b81146143b9575f80fd5b50565b5f813590506143ca816143a6565b92915050565b5f80604083850312156143e6576143e5613981565b5b5f6143f385828601613a02565b9250506020614404858286016143bc565b9150509250929050565b5f805f6060848603121561442557614424613981565b5b5f61443286828701613a02565b9350506020614443868287016139cf565b9250506040614454868287016143bc565b9150509250925092565b5f6060820190508181035f8301526144768186613bac565b9050818103602083015261448a8185613bac565b9050818103604083015261449e8184613bac565b9050949350505050565b5f6144b2826139a8565b9050919050565b6144c2816144a8565b81146144cc575f80fd5b50565b5f813590506144dd816144b9565b92915050565b5f80fd5b5f606082840312156144fc576144fb6144e3565b5b81905092915050565b5f805f805f805f805f8060e08b8d03121561452357614522613981565b5b5f6145308d828e016143bc565b9a505060208b013567ffffffffffffffff81111561455157614550613985565b5b61455d8d828e01613d04565b995099505060406145708d828e016144cf565b97505060608b013567ffffffffffffffff81111561459157614590613985565b5b61459d8d828e01613caf565b965096505060806145b08d828e01613a02565b94505060a08b013567ffffffffffffffff8111156145d1576145d0613985565b5b6145dd8d828e01613d04565b935093505060c08b013567ffffffffffffffff811115614600576145ff613985565b5b61460c8d828e016144e7565b9150509295989b9194979a5092959850565b614627816139a8565b82525050565b5f6020820190506146405f83018461461e565b92915050565b61464f81613afc565b8114614659575f80fd5b50565b5f8135905061466a81614646565b92915050565b5f806040838503121561468657614685613981565b5b5f614693858286016139cf565b92505060206146a48582860161465c565b9150509250929050565b5f80604083850312156146c4576146c3613981565b5b5f6146d185828601613a02565b92505060206146e2858286016139cf565b9150509250929050565b5f81519050919050565b5f82825260208201905092915050565b5f819050602082019050919050565b61471e81614393565b82525050565b5f61472f8383614715565b60208301905092915050565b5f602082019050919050565b5f614751826146ec565b61475b81856146f6565b935061476683614706565b805f5b8381101561479657815161477d8882614724565b97506147888361473b565b925050600181019050614769565b5085935050505092915050565b5f81519050919050565b5f82825260208201905092915050565b5f819050602082019050919050565b5f82825260208201905092915050565b5f6147e682613b5a565b6147f081856147cc565b9350614800818560208601613b74565b61480981613b9c565b840191505092915050565b5f606083015f8301518482035f86015261482e82826147dc565b9150506020830151848203602086015261484882826147dc565b9150506040830151848203604086015261486282826147dc565b9150508091505092915050565b5f61487a8383614814565b905092915050565b5f602082019050919050565b5f614898826147a3565b6148a281856147ad565b9350836020820285016148b4856147bd565b805f5b858110156148ef57848403895281516148d0858261486f565b94506148db83614882565b925060208a019950506001810190506148b7565b50829750879550505050505092915050565b5f6040820190508181035f8301526149198185614747565b9050818103602083015261492d818461488e565b90509392505050565b61493f81614393565b82525050565b5f6020820190506149585f830184614936565b92915050565b5f806040838503121561497457614973613981565b5b5f614981858286016139cf565b9250506020614992858286016139cf565b9150509250929050565b5f805f805f60a086880312156149b5576149b4613981565b5b5f6149c2888289016139cf565b95505060206149d3888289016139cf565b94505060406149e488828901613a02565b93505060606149f588828901613a02565b925050608086013567ffffffffffffffff811115614a1657614a15613985565b5b614a2288828901613fb7565b9150509295509295909350565b5f805f60608486031215614a4657614a45613981565b5b5f614a53868287016139cf565b9350506020614a6486828701613a02565b9250506040614a7586828701613a02565b9150509250925092565b7f4e487b71000000000000000000000000000000000000000000000000000000005f52602260045260245ffd5b5f6002820490506001821680614ac357607f821691505b602082108103614ad657614ad5614a7f565b5b50919050565b7f4e487b71000000000000000000000000000000000000000000000000000000005f52603260045260245ffd5b7f4e487b71000000000000000000000000000000000000000000000000000000005f52601160045260245ffd5b5f614b40826139e3565b9150614b4b836139e3565b9250828203905081811115614b6357614b62614b09565b5b92915050565b7f4e487b71000000000000000000000000000000000000000000000000000000005f52603160045260245ffd5b5f614ba0826139e3565b91507fffffffffffffffffffffffffffffffffffffffffffffffffffffffffffffffff8203614bd257614bd1614b09565b5b600182019050919050565b7f41646d696e206e6f7420666f756e6400000000000000000000000000000000005f82015250565b5f614c11600f83613b64565b9150614c1c82614bdd565b602082019050919050565b5f6020820190508181035f830152614c3e81614c05565b9050919050565b7f4e616d65207265717569726564000000000000000000000000000000000000005f82015250565b5f614c79600d83613b64565b9150614c8482614c45565b602082019050919050565b5f6020820190508181035f830152614ca681614c6d565b9050919050565b5f81905092915050565b5f614cc28385614cad565b9350614ccf838584613f68565b82840190509392505050565b5f614ce7828486614cb7565b91508190509392505050565b5f819050815f5260205f209050919050565b5f8154614d1181614aac565b614d1b8186614cad565b9450600182165f8114614d355760018114614d4a57614d7c565b60ff1983168652811515820286019350614d7c565b614d5385614cf3565b5f5b83811015614d7457815481890152600182019150602081019050614d55565b838801955050505b50505092915050565b5f614d908284614d05565b915081905092915050565b5f819050919050565b614db5614db0826139e3565b614d9b565b82525050565b5f8160601b9050919050565b5f614dd182614dbb565b9050919050565b5f614de282614dc7565b9050919050565b614dfa614df5826139a8565b614dd8565b82525050565b5f81905092915050565b5f614e158385614e00565b9350614e22838584613f68565b82840190509392505050565b5f614e398289614da4565b602082019150614e498288614da4565b602082019150614e598287614de9565b601482019150614e6a828587614e0a565b9150614e768284614da4565b602082019150819050979650505050505050565b7f4e487b71000000000000000000000000000000000000000000000000000000005f52601260045260245ffd5b5f614ec1826139e3565b9150614ecc836139e3565b925082614edc57614edb614e8a565b5b828206905092915050565b5f614ef1826139e3565b9150614efc836139e3565b9250828201905080821115614f1457614f13614b09565b5b92915050565b7f556e61626c6520746f2066696e6420756e697175652073686f727420746f6b655f8201527f6e20494400000000000000000000000000000000000000000000000000000000602082015250565b5f614f74602483613b64565b9150614f7f82614f1a565b604082019050919050565b5f6020820190508181035f830152614fa181614f68565b9050919050565b7f546f6b656e494454616b656e00000000000000000000000000000000000000005f82015250565b5f614fdc600c83613b64565b9150614fe782614fa8565b602082019050919050565b5f6020820190508181035f83015261500981614fd0565b9050919050565b5f82905092915050565b5f819050815f5260205f209050919050565b5f6020601f8301049050919050565b5f82821b905092915050565b5f600883026150767fffffffffffffffffffffffffffffffffffffffffffffffffffffffffffffffff8261503b565b615080868361503b565b95508019841693508086168417925050509392505050565b5f6150b26150ad6150a8846139e3565b613c2f565b6139e3565b9050919050565b5f819050919050565b6150cb83615098565b6150df6150d7826150b9565b848454615047565b825550505050565b5f90565b6150f36150e7565b6150fe8184846150c2565b505050565b5b81811015615121576151165f826150eb565b600181019050615104565b5050565b601f821115615166576151378161501a565b6151408461502c565b8101602085101561514f578190505b61516361515b8561502c565b830182615103565b50505b505050565b5f82821c905092915050565b5f6151865f198460080261516b565b1980831691505092915050565b5f61519e8383615177565b9150826002028217905092915050565b6151b88383615010565b67ffffffffffffffff8111156151d1576151d0613dfc565b5b6151db8254614aac565b6151e6828285615125565b5f601f831160018114615213575f8415615201578287013590505b61520b8582615193565b865550615272565b601f1984166152218661501a565b5f5b8281101561524857848901358255600182019150602085019450602081019050615223565b868310156152655784890135615261601f891682615177565b8355505b6001600288020188555050505b50505050505050565b7f455243313135353a204d69736d617463686564206172726179206c656e6774685f8201527f7300000000000000000000000000000000000000000000000000000000000000602082015250565b5f6152d5602183613b64565b91506152e08261527b565b604082019050919050565b5f6020820190508181035f830152615302816152c9565b9050919050565b7f455243313135353a207472616e7366657220746f20746865207a65726f2061645f8201527f6472657373000000000000000000000000000000000000000000000000000000602082015250565b5f615363602583613b64565b915061536e82615309565b604082019050919050565b5f6020820190508181035f83015261539081615357565b9050919050565b5f6040820190506153aa5f830185613a54565b6153b76020830184613a54565b9392505050565b7f746f6b656e20696420646f6573206e6f742065786973740000000000000000005f82015250565b5f6153f2601783613b64565b91506153fd826153be565b602082019050919050565b5f6020820190508181035f83015261541f816153e6565b9050919050565b7f50726f6f66207265717565737420646f6573206e6f74206578697374000000005f82015250565b5f61545a601c83613b64565b915061546582615426565b602082019050919050565b5f6020820190508181035f8301526154878161544e565b9050919050565b7f4e6f207370656e64696e6720636f6e646974696f6e20746f2064656c657465005f82015250565b5f6154c2601f83613b64565b91506154cd8261548e565b602082019050919050565b5f6020820190508181035f8301526154ef816154b6565b9050919050565b7f496e76616c6964206164647265737300000000000000000000000000000000005f82015250565b5f61552a600f83613b64565b9150615535826154f6565b602082019050919050565b5f6020820190508181035f8301526155578161551e565b9050919050565b7f4164647265737320697320616c726561647920616e2061646d696e00000000005f82015250565b5f615592601b83613b64565b915061559d8261555e565b602082019050919050565b5f6020820190508181035f8301526155bf81615586565b9050919050565b7f4f6e6c79206d6f6e6579206f776e65722063616e20616464207370656e64696e5f8201527f6720636f6e646974696f6e2e0000000000000000000000000000000000000000602082015250565b5f615620602c83613b64565b915061562b826155c6565b604082019050919050565b5f6020820190508181035f83015261564d81615614565b9050919050565b5f61565e82613c59565b9050919050565b61566e81615654565b82525050565b5f81519050919050565b5f82825260208201905092915050565b5f61569882615674565b6156a2818561567e565b93506156b2818560208601613b74565b6156bb81613b9c565b840191505092915050565b5f606083015f8301518482035f8601526156e082826147dc565b91505060208301516156f56020860182615665565b506040830151848203604086015261570d828261568e565b9150508091505092915050565b5f60408201905061572d5f830185614936565b818103602083015261573f81846156c6565b90509392505050565b5f80fd5b5f80fd5b5f80fd5b5f80833560016020038436030381126157705761576f615748565b5b80840192508235915067ffffffffffffffff8211156157925761579161574c565b5b6020830192506001820236038313156157ae576157ad615750565b5b509250929050565b6157bf82613b5a565b67ffffffffffffffff8111156157d8576157d7613dfc565b5b6157e28254614aac565b6157ed828285615125565b5f60209050601f83116001811461581e575f841561580c578287015190505b6158168582615193565b86555061587d565b601f19841661582c8661501a565b5f5b828110156158535784890151825560018201915060208501945060208101905061582e565b86831015615870578489015161586c601f891682615177565b8355505b6001600288020188555050505b505050505050565b5f6040820190506158985f83018561461e565b6158a56020830184614936565b9392505050565b5f80fd5b5f80fd5b5f815190506158c281614646565b92915050565b5f67ffffffffffffffff8211156158e2576158e1613dfc565b5b6158eb82613b9c565b9050602081019050919050565b5f61590a615905846158c8565b613e5a565b90508281526020810184848401111561592657615925613f34565b5b615931848285613b74565b509392505050565b5f82601f83011261594d5761594c613ca3565b5b815161595d8482602086016158f8565b91505092915050565b5f81519050615974816139ec565b92915050565b5f6080828403121561598f5761598e6158ac565b5b6159996080613e5a565b90505f6159a8848285016158b4565b5f83015250602082015167ffffffffffffffff8111156159cb576159ca6158b0565b5b6159d784828501615939565b60208301525060406159eb84828501615966565b60408301525060606159ff84828501615966565b60608301525092915050565b5f60208284031215615a2057615a1f613981565b5b5f82015167ffffffffffffffff811115615a3d57615a3c613985565b5b615a498482850161597a565b91505092915050565b5f604082019050615a655f830185614936565b615a72602083018461461e565b9392505050565b7f50726f6f66207265717565737420616c726561647920657869737473000000005f82015250565b5f615aad601c83613b64565b9150615ab882615a79565b602082019050919050565b5f6020820190508181035f830152615ada81615aa1565b9050919050565b7f526f6c65206d757374206265202773656e64657227206f7220277265636569765f8201527f6572270000000000000000000000000000000000000000000000000000000000602082015250565b5f615b3b602383613b64565b9150615b4682615ae1565b604082019050919050565b5f6020820190508181035f830152615b6881615b2f565b9050919050565b5f604082019050615b825f83018561461e565b615b8f602083018461461e565b9392505050565b5f608082019050615ba95f83018761461e565b615bb66020830186613a54565b615bc36040830185613a54565b615bd06060830184613a54565b95945050505050565b5f6040820190508181035f830152615bf18185614317565b90508181036020830152615c058184614317565b90509392505050565b5f82825260208201905092915050565b5f615c2882615674565b615c328185615c0e565b9350615c42818560208601613b74565b615c4b81613b9c565b840191505092915050565b5f60a082019050615c695f83018861461e565b615c76602083018761461e565b615c836040830186613a54565b615c906060830185613a54565b8181036080830152615ca28184615c1e565b90509695505050505050565b5f81519050615cbc81613aa7565b92915050565b5f60208284031215615cd757615cd6613981565b5b5f615ce484828501615cae565b91505092915050565b5f60a082019050615d005f83018861461e565b615d0d602083018761461e565b8181036040830152615d1f8186614317565b90508181036060830152615d338185614317565b90508181036080830152615d478184615c1e565b9050969550505050505056fea2646970667358221220383c5b7d50981ea4280f93c1503e262f50ccb14ca18da4dcfe3d8a816062d70a64736f6c63430008140033",
		"opcodes": "PUSH1 0x80 PUSH1 0x40 MSTORE CALLVALUE DUP1 ISZERO PUSH3 0x10 JUMPI PUSH0 DUP1 REVERT JUMPDEST POP PUSH1 0x40 MLOAD PUSH3 0x656E CODESIZE SUB DUP1 PUSH3 0x656E DUP4 CODECOPY DUP2 DUP2 ADD PUSH1 0x40 MSTORE DUP2 ADD SWAP1 PUSH3 0x36 SWAP2 SWAP1 PUSH3 0x418 JUMP JUMPDEST DUP2 DUP2 PUSH3 0x49 DUP2 PUSH3 0x118 PUSH1 0x20 SHL PUSH1 0x20 SHR JUMP JUMPDEST POP PUSH0 PUSH20 0xFFFFFFFFFFFFFFFFFFFFFFFFFFFFFFFFFFFFFFFF AND DUP2 PUSH20 0xFFFFFFFFFFFFFFFFFFFFFFFFFFFFFFFFFFFFFFFF AND SUB PUSH3 0xBD JUMPI PUSH0 PUSH1 0x40 MLOAD PUSH32 0x1E4FBDF700000000000000000000000000000000000000000000000000000000 DUP2 MSTORE PUSH1 0x4 ADD PUSH3 0xB4 SWAP2 SWAP1 PUSH3 0x4A1 JUMP JUMPDEST PUSH1 0x40 MLOAD DUP1 SWAP2 SUB SWAP1 REVERT JUMPDEST PUSH3 0xCE DUP2 PUSH3 0x12D PUSH1 0x20 SHL PUSH1 0x20 SHR JUMP JUMPDEST POP DUP3 PUSH1 0xB PUSH0 PUSH2 0x100 EXP DUP2 SLOAD DUP2 PUSH20 0xFFFFFFFFFFFFFFFFFFFFFFFFFFFFFFFFFFFFFFFF MUL NOT AND SWAP1 DUP4 PUSH20 0xFFFFFFFFFFFFFFFFFFFFFFFFFFFFFFFFFFFFFFFF AND MUL OR SWAP1 SSTORE POP POP POP POP PUSH3 0x7D7 JUMP JUMPDEST DUP1 PUSH1 0x2 SWAP1 DUP2 PUSH3 0x129 SWAP2 SWAP1 PUSH3 0x6F3 JUMP JUMPDEST POP POP JUMP JUMPDEST PUSH0 PUSH1 0x3 PUSH0 SWAP1 SLOAD SWAP1 PUSH2 0x100 EXP SWAP1 DIV PUSH20 0xFFFFFFFFFFFFFFFFFFFFFFFFFFFFFFFFFFFFFFFF AND SWAP1 POP DUP2 PUSH1 0x3 PUSH0 PUSH2 0x100 EXP DUP2 SLOAD DUP2 PUSH20 0xFFFFFFFFFFFFFFFFFFFFFFFFFFFFFFFFFFFFFFFF MUL NOT AND SWAP1 DUP4 PUSH20 0xFFFFFFFFFFFFFFFFFFFFFFFFFFFFFFFFFFFFFFFF AND MUL OR SWAP1 SSTORE POP DUP2 PUSH20 0xFFFFFFFFFFFFFFFFFFFFFFFFFFFFFFFFFFFFFFFF AND DUP2 PUSH20 0xFFFFFFFFFFFFFFFFFFFFFFFFFFFFFFFFFFFFFFFF AND PUSH32 0x8BE0079C531659141344CD1FD0A4F28419497F9722A3DAAFE3B4186F6B6457E0 PUSH1 0x40 MLOAD PUSH1 0x40 MLOAD DUP1 SWAP2 SUB SWAP1 LOG3 POP POP JUMP JUMPDEST PUSH0 PUSH1 0x40 MLOAD SWAP1 POP SWAP1 JUMP JUMPDEST PUSH0 DUP1 REVERT JUMPDEST PUSH0 DUP1 REVERT JUMPDEST PUSH0 PUSH20 0xFFFFFFFFFFFFFFFFFFFFFFFFFFFFFFFFFFFFFFFF DUP3 AND SWAP1 POP SWAP2 SWAP1 POP JUMP JUMPDEST PUSH0 PUSH3 0x22C DUP3 PUSH3 0x201 JUMP JUMPDEST SWAP1 POP SWAP2 SWAP1 POP JUMP JUMPDEST PUSH0 PUSH3 0x23F DUP3 PUSH3 0x220 JUMP JUMPDEST SWAP1 POP SWAP2 SWAP1 POP JUMP JUMPDEST PUSH3 0x251 DUP2 PUSH3 0x233 JUMP JUMPDEST DUP2 EQ PUSH3 0x25C JUMPI PUSH0 DUP1 REVERT JUMPDEST POP JUMP JUMPDEST PUSH0 DUP2 MLOAD SWAP1 POP PUSH3 0x26F DUP2 PUSH3 0x246 JUMP JUMPDEST SWAP3 SWAP2 POP POP JUMP JUMPDEST PUSH3 0x280 DUP2 PUSH3 0x220 JUMP JUMPDEST DUP2 EQ PUSH3 0x28B JUMPI PUSH0 DUP1 REVERT JUMPDEST POP JUMP JUMPDEST PUSH0 DUP2 MLOAD SWAP1 POP PUSH3 0x29E DUP2 PUSH3 0x275 JUMP JUMPDEST SWAP3 SWAP2 POP POP JUMP JUMPDEST PUSH0 DUP1 REVERT JUMPDEST PUSH0 DUP1 REVERT JUMPDEST PUSH0 PUSH1 0x1F NOT PUSH1 0x1F DUP4 ADD AND SWAP1 POP SWAP2 SWAP1 POP JUMP JUMPDEST PUSH32 0x4E487B7100000000000000000000000000000000000000000000000000000000 PUSH0 MSTORE PUSH1 0x41 PUSH1 0x4 MSTORE PUSH1 0x24 PUSH0 REVERT JUMPDEST PUSH3 0x2F4 DUP3 PUSH3 0x2AC JUMP JUMPDEST DUP2 ADD DUP2 DUP2 LT PUSH8 0xFFFFFFFFFFFFFFFF DUP3 GT OR ISZERO PUSH3 0x316 JUMPI PUSH3 0x315 PUSH3 0x2BC JUMP JUMPDEST JUMPDEST DUP1 PUSH1 0x40 MSTORE POP POP POP JUMP JUMPDEST PUSH0 PUSH3 0x32A PUSH3 0x1F0 JUMP JUMPDEST SWAP1 POP PUSH3 0x338 DUP3 DUP3 PUSH3 0x2E9 JUMP JUMPDEST SWAP2 SWAP1 POP JUMP JUMPDEST PUSH0 PUSH8 0xFFFFFFFFFFFFFFFF DUP3 GT ISZERO PUSH3 0x35A JUMPI PUSH3 0x359 PUSH3 0x2BC JUMP JUMPDEST JUMPDEST PUSH3 0x365 DUP3 PUSH3 0x2AC JUMP JUMPDEST SWAP1 POP PUSH1 0x20 DUP2 ADD SWAP1 POP SWAP2 SWAP1 POP JUMP JUMPDEST PUSH0 JUMPDEST DUP4 DUP2 LT ISZERO PUSH3 0x391 JUMPI DUP1 DUP3 ADD MLOAD DUP2 DUP5 ADD MSTORE PUSH1 0x20 DUP2 ADD SWAP1 POP PUSH3 0x374 JUMP JUMPDEST PUSH0 DUP5 DUP5 ADD MSTORE POP POP POP POP JUMP JUMPDEST PUSH0 PUSH3 0x3B2 PUSH3 0x3AC DUP5 PUSH3 0x33D JUMP JUMPDEST PUSH3 0x31F JUMP JUMPDEST SWAP1 POP DUP3 DUP2 MSTORE PUSH1 0x20 DUP2 ADD DUP5 DUP5 DUP5 ADD GT ISZERO PUSH3 0x3D1 JUMPI PUSH3 0x3D0 PUSH3 0x2A8 JUMP JUMPDEST JUMPDEST PUSH3 0x3DE DUP5 DUP3 DUP6 PUSH3 0x372 JUMP JUMPDEST POP SWAP4 SWAP3 POP POP POP JUMP JUMPDEST PUSH0 DUP3 PUSH1 0x1F DUP4 ADD SLT PUSH3 0x3FD JUMPI PUSH3 0x3FC PUSH3 0x2A4 JUMP JUMPDEST JUMPDEST DUP2 MLOAD PUSH3 0x40F DUP5 DUP3 PUSH1 0x20 DUP7 ADD PUSH3 0x39C JUMP JUMPDEST SWAP2 POP POP SWAP3 SWAP2 POP POP JUMP JUMPDEST PUSH0 DUP1 PUSH0 PUSH1 0x60 DUP5 DUP7 SUB SLT ISZERO PUSH3 0x432 JUMPI PUSH3 0x431 PUSH3 0x1F9 JUMP JUMPDEST JUMPDEST PUSH0 PUSH3 0x441 DUP7 DUP3 DUP8 ADD PUSH3 0x25F JUMP JUMPDEST SWAP4 POP POP PUSH1 0x20 PUSH3 0x454 DUP7 DUP3 DUP8 ADD PUSH3 0x28E JUMP JUMPDEST SWAP3 POP POP PUSH1 0x40 DUP5 ADD MLOAD PUSH8 0xFFFFFFFFFFFFFFFF DUP2 GT ISZERO PUSH3 0x478 JUMPI PUSH3 0x477 PUSH3 0x1FD JUMP JUMPDEST JUMPDEST PUSH3 0x486 DUP7 DUP3 DUP8 ADD PUSH3 0x3E6 JUMP JUMPDEST SWAP2 POP POP SWAP3 POP SWAP3 POP SWAP3 JUMP JUMPDEST PUSH3 0x49B DUP2 PUSH3 0x220 JUMP JUMPDEST DUP3 MSTORE POP POP JUMP JUMPDEST PUSH0 PUSH1 0x20 DUP3 ADD SWAP1 POP PUSH3 0x4B6 PUSH0 DUP4 ADD DUP5 PUSH3 0x490 JUMP JUMPDEST SWAP3 SWAP2 POP POP JUMP JUMPDEST PUSH0 DUP2 MLOAD SWAP1 POP SWAP2 SWAP1 POP JUMP JUMPDEST PUSH32 0x4E487B7100000000000000000000000000000000000000000000000000000000 PUSH0 MSTORE PUSH1 0x22 PUSH1 0x4 MSTORE PUSH1 0x24 PUSH0 REVERT JUMPDEST PUSH0 PUSH1 0x2 DUP3 DIV SWAP1 POP PUSH1 0x1 DUP3 AND DUP1 PUSH3 0x50B JUMPI PUSH1 0x7F DUP3 AND SWAP2 POP JUMPDEST PUSH1 0x20 DUP3 LT DUP2 SUB PUSH3 0x521 JUMPI PUSH3 0x520 PUSH3 0x4C6 JUMP JUMPDEST JUMPDEST POP SWAP2 SWAP1 POP JUMP JUMPDEST PUSH0 DUP2 SWAP1 POP DUP2 PUSH0 MSTORE PUSH1 0x20 PUSH0 KECCAK256 SWAP1 POP SWAP2 SWAP1 POP JUMP JUMPDEST PUSH0 PUSH1 0x20 PUSH1 0x1F DUP4 ADD DIV SWAP1 POP SWAP2 SWAP1 POP JUMP JUMPDEST PUSH0 DUP3 DUP3 SHL SWAP1 POP SWAP3 SWAP2 POP POP JUMP JUMPDEST PUSH0 PUSH1 0x8 DUP4 MUL PUSH3 0x585 PUSH32 0xFFFFFFFFFFFFFFFFFFFFFFFFFFFFFFFFFFFFFFFFFFFFFFFFFFFFFFFFFFFFFFFF DUP3 PUSH3 0x548 JUMP JUMPDEST PUSH3 0x591 DUP7 DUP4 PUSH3 0x548 JUMP JUMPDEST SWAP6 POP DUP1 NOT DUP5 AND SWAP4 POP DUP1 DUP7 AND DUP5 OR SWAP3 POP POP POP SWAP4 SWAP3 POP POP POP JUMP JUMPDEST PUSH0 DUP2 SWAP1 POP SWAP2 SWAP1 POP JUMP JUMPDEST PUSH0 DUP2 SWAP1 POP SWAP2 SWAP1 POP JUMP JUMPDEST PUSH0 PUSH3 0x5DB PUSH3 0x5D5 PUSH3 0x5CF DUP5 PUSH3 0x5A9 JUMP JUMPDEST PUSH3 0x5B2 JUMP JUMPDEST PUSH3 0x5A9 JUMP JUMPDEST SWAP1 POP SWAP2 SWAP1 POP JUMP JUMPDEST PUSH0 DUP2 SWAP1 POP SWAP2 SWAP1 POP JUMP JUMPDEST PUSH3 0x5F6 DUP4 PUSH3 0x5BB JUMP JUMPDEST PUSH3 0x60E PUSH3 0x605 DUP3 PUSH3 0x5E2 JUMP JUMPDEST DUP5 DUP5 SLOAD PUSH3 0x554 JUMP JUMPDEST DUP3 SSTORE POP POP POP POP JUMP JUMPDEST PUSH0 SWAP1 JUMP JUMPDEST PUSH3 0x624 PUSH3 0x616 JUMP JUMPDEST PUSH3 0x631 DUP2 DUP5 DUP5 PUSH3 0x5EB JUMP JUMPDEST POP POP POP JUMP JUMPDEST JUMPDEST DUP2 DUP2 LT ISZERO PUSH3 0x658 JUMPI PUSH3 0x64C PUSH0 DUP3 PUSH3 0x61A JUMP JUMPDEST PUSH1 0x1 DUP2 ADD SWAP1 POP PUSH3 0x637 JUMP JUMPDEST POP POP JUMP JUMPDEST PUSH1 0x1F DUP3 GT ISZERO PUSH3 0x6A7 JUMPI PUSH3 0x671 DUP2 PUSH3 0x527 JUMP JUMPDEST PUSH3 0x67C DUP5 PUSH3 0x539 JUMP JUMPDEST DUP2 ADD PUSH1 0x20 DUP6 LT ISZERO PUSH3 0x68C JUMPI DUP2 SWAP1 POP JUMPDEST PUSH3 0x6A4 PUSH3 0x69B DUP6 PUSH3 0x539 JUMP JUMPDEST DUP4 ADD DUP3 PUSH3 0x636 JUMP JUMPDEST POP POP JUMPDEST POP POP POP JUMP JUMPDEST PUSH0 DUP3 DUP3 SHR SWAP1 POP SWAP3 SWAP2 POP POP JUMP JUMPDEST PUSH0 PUSH3 0x6C9 PUSH0 NOT DUP5 PUSH1 0x8 MUL PUSH3 0x6AC JUMP JUMPDEST NOT DUP1 DUP4 AND SWAP2 POP POP SWAP3 SWAP2 POP POP JUMP JUMPDEST PUSH0 PUSH3 0x6E3 DUP4 DUP4 PUSH3 0x6B8 JUMP JUMPDEST SWAP2 POP DUP3 PUSH1 0x2 MUL DUP3 OR SWAP1 POP SWAP3 SWAP2 POP POP JUMP JUMPDEST PUSH3 0x6FE DUP3 PUSH3 0x4BC JUMP JUMPDEST PUSH8 0xFFFFFFFFFFFFFFFF DUP2 GT ISZERO PUSH3 0x71A JUMPI PUSH3 0x719 PUSH3 0x2BC JUMP JUMPDEST JUMPDEST PUSH3 0x726 DUP3 SLOAD PUSH3 0x4F3 JUMP JUMPDEST PUSH3 0x733 DUP3 DUP3 DUP6 PUSH3 0x65C JUMP JUMPDEST PUSH0 PUSH1 0x20 SWAP1 POP PUSH1 0x1F DUP4 GT PUSH1 0x1 DUP2 EQ PUSH3 0x769 JUMPI PUSH0 DUP5 ISZERO PUSH3 0x754 JUMPI DUP3 DUP8 ADD MLOAD SWAP1 POP JUMPDEST PUSH3 0x760 DUP6 DUP3 PUSH3 0x6D6 JUMP JUMPDEST DUP7 SSTORE POP PUSH3 0x7CF JUMP JUMPDEST PUSH1 0x1F NOT DUP5 AND PUSH3 0x779 DUP7 PUSH3 0x527 JUMP JUMPDEST PUSH0 JUMPDEST DUP3 DUP2 LT ISZERO PUSH3 0x7A2 JUMPI DUP5 DUP10 ADD MLOAD DUP3 SSTORE PUSH1 0x1 DUP3 ADD SWAP2 POP PUSH1 0x20 DUP6 ADD SWAP5 POP PUSH1 0x20 DUP2 ADD SWAP1 POP PUSH3 0x77B JUMP JUMPDEST DUP7 DUP4 LT ISZERO PUSH3 0x7C2 JUMPI DUP5 DUP10 ADD MLOAD PUSH3 0x7BE PUSH1 0x1F DUP10 AND DUP3 PUSH3 0x6B8 JUMP JUMPDEST DUP4 SSTORE POP JUMPDEST PUSH1 0x1 PUSH1 0x2 DUP9 MUL ADD DUP9 SSTORE POP POP POP JUMPDEST POP POP POP POP POP POP JUMP JUMPDEST PUSH2 0x5D89 DUP1 PUSH3 0x7E5 PUSH0 CODECOPY PUSH0 RETURN INVALID PUSH1 0x80 PUSH1 0x40 MSTORE CALLVALUE DUP1 ISZERO PUSH2 0xF JUMPI PUSH0 DUP1 REVERT JUMPDEST POP PUSH1 0x4 CALLDATASIZE LT PUSH2 0x170 JUMPI PUSH0 CALLDATALOAD PUSH1 0xE0 SHR DUP1 PUSH4 0x715018A6 GT PUSH2 0xDC JUMPI DUP1 PUSH4 0xBCE68AC3 GT PUSH2 0x95 JUMPI DUP1 PUSH4 0xE985E9C5 GT PUSH2 0x6F JUMPI DUP1 PUSH4 0xE985E9C5 EQ PUSH2 0x46D JUMPI DUP1 PUSH4 0xF242432A EQ PUSH2 0x49D JUMPI DUP1 PUSH4 0xF2FDE38B EQ PUSH2 0x4B9 JUMPI DUP1 PUSH4 0xF5298ACA EQ PUSH2 0x4D5 JUMPI PUSH2 0x170 JUMP JUMPDEST DUP1 PUSH4 0xBCE68AC3 EQ PUSH2 0x3DC JUMPI DUP1 PUSH4 0xD121CDC0 EQ PUSH2 0x40D JUMPI DUP1 PUSH4 0xE725F877 EQ PUSH2 0x43D JUMPI PUSH2 0x170 JUMP JUMPDEST DUP1 PUSH4 0x715018A6 EQ PUSH2 0x32E JUMPI DUP1 PUSH4 0x7330DD84 EQ PUSH2 0x338 JUMPI DUP1 PUSH4 0x7578B248 EQ PUSH2 0x354 JUMPI DUP1 PUSH4 0x8DA5CB5B EQ PUSH2 0x372 JUMPI DUP1 PUSH4 0x94AD436D EQ PUSH2 0x390 JUMPI DUP1 PUSH4 0xA22CB465 EQ PUSH2 0x3C0 JUMPI PUSH2 0x170 JUMP JUMPDEST DUP1 PUSH4 0x2EB2C2D6 GT PUSH2 0x12E JUMPI DUP1 PUSH4 0x2EB2C2D6 EQ PUSH2 0x25A JUMPI DUP1 PUSH4 0x31AE450B EQ PUSH2 0x276 JUMPI DUP1 PUSH4 0x4E1273F4 EQ PUSH2 0x294 JUMPI DUP1 PUSH4 0x50FBDB2D EQ PUSH2 0x2C4 JUMPI DUP1 PUSH4 0x5F54C999 EQ PUSH2 0x2E0 JUMPI DUP1 PUSH4 0x70480275 EQ PUSH2 0x312 JUMPI PUSH2 0x170 JUMP JUMPDEST DUP1 PUSH3 0xFDD58E EQ PUSH2 0x174 JUMPI DUP1 PUSH4 0x1FFC9A7 EQ PUSH2 0x1A4 JUMPI DUP1 PUSH4 0xE89341C EQ PUSH2 0x1D4 JUMPI DUP1 PUSH4 0x1785F53C EQ PUSH2 0x204 JUMPI DUP1 PUSH4 0x2B7AC3F3 EQ PUSH2 0x220 JUMPI DUP1 PUSH4 0x2DBFF950 EQ PUSH2 0x23E JUMPI JUMPDEST PUSH0 DUP1 REVERT JUMPDEST PUSH2 0x18E PUSH1 0x4 DUP1 CALLDATASIZE SUB DUP2 ADD SWAP1 PUSH2 0x189 SWAP2 SWAP1 PUSH2 0x3A16 JUMP JUMPDEST PUSH2 0x4F1 JUMP JUMPDEST PUSH1 0x40 MLOAD PUSH2 0x19B SWAP2 SWAP1 PUSH2 0x3A63 JUMP JUMPDEST PUSH1 0x40 MLOAD DUP1 SWAP2 SUB SWAP1 RETURN JUMPDEST PUSH2 0x1BE PUSH1 0x4 DUP1 CALLDATASIZE SUB DUP2 ADD SWAP1 PUSH2 0x1B9 SWAP2 SWAP1 PUSH2 0x3AD1 JUMP JUMPDEST PUSH2 0x546 JUMP JUMPDEST PUSH1 0x40 MLOAD PUSH2 0x1CB SWAP2 SWAP1 PUSH2 0x3B16 JUMP JUMPDEST PUSH1 0x40 MLOAD DUP1 SWAP2 SUB SWAP1 RETURN JUMPDEST PUSH2 0x1EE PUSH1 0x4 DUP1 CALLDATASIZE SUB DUP2 ADD SWAP1 PUSH2 0x1E9 SWAP2 SWAP1 PUSH2 0x3B2F JUMP JUMPDEST PUSH2 0x627 JUMP JUMPDEST PUSH1 0x40 MLOAD PUSH2 0x1FB SWAP2 SWAP1 PUSH2 0x3BE4 JUMP JUMPDEST PUSH1 0x40 MLOAD DUP1 SWAP2 SUB SWAP1 RETURN JUMPDEST PUSH2 0x21E PUSH1 0x4 DUP1 CALLDATASIZE SUB DUP2 ADD SWAP1 PUSH2 0x219 SWAP2 SWAP1 PUSH2 0x3C04 JUMP JUMPDEST PUSH2 0x6B9 JUMP JUMPDEST STOP JUMPDEST PUSH2 0x228 PUSH2 0x880 JUMP JUMPDEST PUSH1 0x40 MLOAD PUSH2 0x235 SWAP2 SWAP1 PUSH2 0x3C8A JUMP JUMPDEST PUSH1 0x40 MLOAD DUP1 SWAP2 SUB SWAP1 RETURN JUMPDEST PUSH2 0x258 PUSH1 0x4 DUP1 CALLDATASIZE SUB DUP2 ADD SWAP1 PUSH2 0x253 SWAP2 SWAP1 PUSH2 0x3D59 JUMP JUMPDEST PUSH2 0x8A5 JUMP JUMPDEST STOP JUMPDEST PUSH2 0x274 PUSH1 0x4 DUP1 CALLDATASIZE SUB DUP2 ADD SWAP1 PUSH2 0x26F SWAP2 SWAP1 PUSH2 0x3FE4 JUMP JUMPDEST PUSH2 0xB85 JUMP JUMPDEST STOP JUMPDEST PUSH2 0x27E PUSH2 0xCC1 JUMP JUMPDEST PUSH1 0x40 MLOAD PUSH2 0x28B SWAP2 SWAP1 PUSH2 0x4166 JUMP JUMPDEST PUSH1 0x40 MLOAD DUP1 SWAP2 SUB SWAP1 RETURN JUMPDEST PUSH2 0x2AE PUSH1 0x4 DUP1 CALLDATASIZE SUB DUP2 ADD SWAP1 PUSH2 0x2A9 SWAP2 SWAP1 PUSH2 0x4246 JUMP JUMPDEST PUSH2 0xD54 JUMP JUMPDEST PUSH1 0x40 MLOAD PUSH2 0x2BB SWAP2 SWAP1 PUSH2 0x4373 JUMP JUMPDEST PUSH1 0x40 MLOAD DUP1 SWAP2 SUB SWAP1 RETURN JUMPDEST PUSH2 0x2DE PUSH1 0x4 DUP1 CALLDATASIZE SUB DUP2 ADD SWAP1 PUSH2 0x2D9 SWAP2 SWAP1 PUSH2 0x43D0 JUMP JUMPDEST PUSH2 0xE61 JUMP JUMPDEST STOP JUMPDEST PUSH2 0x2FA PUSH1 0x4 DUP1 CALLDATASIZE SUB DUP2 ADD SWAP1 PUSH2 0x2F5 SWAP2 SWAP1 PUSH2 0x440E JUMP JUMPDEST PUSH2 0x12A8 JUMP JUMPDEST PUSH1 0x40 MLOAD PUSH2 0x309 SWAP4 SWAP3 SWAP2 SWAP1 PUSH2 0x445E JUMP JUMPDEST PUSH1 0x40 MLOAD DUP1 SWAP2 SUB SWAP1 RETURN JUMPDEST PUSH2 0x32C PUSH1 0x4 DUP1 CALLDATASIZE SUB DUP2 ADD SWAP1 PUSH2 0x327 SWAP2 SWAP1 PUSH2 0x3C04 JUMP JUMPDEST PUSH2 0x1476 JUMP JUMPDEST STOP JUMPDEST PUSH2 0x336 PUSH2 0x1598 JUMP JUMPDEST STOP JUMPDEST PUSH2 0x352 PUSH1 0x4 DUP1 CALLDATASIZE SUB DUP2 ADD SWAP1 PUSH2 0x34D SWAP2 SWAP1 PUSH2 0x4505 JUMP JUMPDEST PUSH2 0x15AB JUMP JUMPDEST STOP JUMPDEST PUSH2 0x35C PUSH2 0x1911 JUMP JUMPDEST PUSH1 0x40 MLOAD PUSH2 0x369 SWAP2 SWAP1 PUSH2 0x4373 JUMP JUMPDEST PUSH1 0x40 MLOAD DUP1 SWAP2 SUB SWAP1 RETURN JUMPDEST PUSH2 0x37A PUSH2 0x1922 JUMP JUMPDEST PUSH1 0x40 MLOAD PUSH2 0x387 SWAP2 SWAP1 PUSH2 0x462D JUMP JUMPDEST PUSH1 0x40 MLOAD DUP1 SWAP2 SUB SWAP1 RETURN JUMPDEST PUSH2 0x3AA PUSH1 0x4 DUP1 CALLDATASIZE SUB DUP2 ADD SWAP1 PUSH2 0x3A5 SWAP2 SWAP1 PUSH2 0x440E JUMP JUMPDEST PUSH2 0x194A JUMP JUMPDEST PUSH1 0x40 MLOAD PUSH2 0x3B7 SWAP2 SWAP1 PUSH2 0x3BE4 JUMP JUMPDEST PUSH1 0x40 MLOAD DUP1 SWAP2 SUB SWAP1 RETURN JUMPDEST PUSH2 0x3DA PUSH1 0x4 DUP1 CALLDATASIZE SUB DUP2 ADD SWAP1 PUSH2 0x3D5 SWAP2 SWAP1 PUSH2 0x4670 JUMP JUMPDEST PUSH2 0x19FB JUMP JUMPDEST STOP JUMPDEST PUSH2 0x3F6 PUSH1 0x4 DUP1 CALLDATASIZE SUB DUP2 ADD SWAP1 PUSH2 0x3F1 SWAP2 SWAP1 PUSH2 0x46AE JUMP JUMPDEST PUSH2 0x1A11 JUMP JUMPDEST PUSH1 0x40 MLOAD PUSH2 0x404 SWAP3 SWAP2 SWAP1 PUSH2 0x4901 JUMP JUMPDEST PUSH1 0x40 MLOAD DUP1 SWAP2 SUB SWAP1 RETURN JUMPDEST PUSH2 0x427 PUSH1 0x4 DUP1 CALLDATASIZE SUB DUP2 ADD SWAP1 PUSH2 0x422 SWAP2 SWAP1 PUSH2 0x3B2F JUMP JUMPDEST PUSH2 0x1F9B JUMP JUMPDEST PUSH1 0x40 MLOAD PUSH2 0x434 SWAP2 SWAP1 PUSH2 0x4945 JUMP JUMPDEST PUSH1 0x40 MLOAD DUP1 SWAP2 SUB SWAP1 RETURN JUMPDEST PUSH2 0x457 PUSH1 0x4 DUP1 CALLDATASIZE SUB DUP2 ADD SWAP1 PUSH2 0x452 SWAP2 SWAP1 PUSH2 0x3B2F JUMP JUMPDEST PUSH2 0x1FD6 JUMP JUMPDEST PUSH1 0x40 MLOAD PUSH2 0x464 SWAP2 SWAP1 PUSH2 0x3BE4 JUMP JUMPDEST PUSH1 0x40 MLOAD DUP1 SWAP2 SUB SWAP1 RETURN JUMPDEST PUSH2 0x487 PUSH1 0x4 DUP1 CALLDATASIZE SUB DUP2 ADD SWAP1 PUSH2 0x482 SWAP2 SWAP1 PUSH2 0x495E JUMP JUMPDEST PUSH2 0x2071 JUMP JUMPDEST PUSH1 0x40 MLOAD PUSH2 0x494 SWAP2 SWAP1 PUSH2 0x3B16 JUMP JUMPDEST PUSH1 0x40 MLOAD DUP1 SWAP2 SUB SWAP1 RETURN JUMPDEST PUSH2 0x4B7 PUSH1 0x4 DUP1 CALLDATASIZE SUB DUP2 ADD SWAP1 PUSH2 0x4B2 SWAP2 SWAP1 PUSH2 0x499C JUMP JUMPDEST PUSH2 0x20FF JUMP JUMPDEST STOP JUMPDEST PUSH2 0x4D3 PUSH1 0x4 DUP1 CALLDATASIZE SUB DUP2 ADD SWAP1 PUSH2 0x4CE SWAP2 SWAP1 PUSH2 0x3C04 JUMP JUMPDEST PUSH2 0x211E JUMP JUMPDEST STOP JUMPDEST PUSH2 0x4EF PUSH1 0x4 DUP1 CALLDATASIZE SUB DUP2 ADD SWAP1 PUSH2 0x4EA SWAP2 SWAP1 PUSH2 0x4A2F JUMP JUMPDEST PUSH2 0x21A2 JUMP JUMPDEST STOP JUMPDEST PUSH0 DUP1 PUSH0 DUP4 DUP2 MSTORE PUSH1 0x20 ADD SWAP1 DUP2 MSTORE PUSH1 0x20 ADD PUSH0 KECCAK256 PUSH0 DUP5 PUSH20 0xFFFFFFFFFFFFFFFFFFFFFFFFFFFFFFFFFFFFFFFF AND PUSH20 0xFFFFFFFFFFFFFFFFFFFFFFFFFFFFFFFFFFFFFFFF AND DUP2 MSTORE PUSH1 0x20 ADD SWAP1 DUP2 MSTORE PUSH1 0x20 ADD PUSH0 KECCAK256 SLOAD SWAP1 POP SWAP3 SWAP2 POP POP JUMP JUMPDEST PUSH0 PUSH32 0xD9B67A2600000000000000000000000000000000000000000000000000000000 PUSH28 0xFFFFFFFFFFFFFFFFFFFFFFFFFFFFFFFFFFFFFFFFFFFFFFFFFFFFFFFF NOT AND DUP3 PUSH28 0xFFFFFFFFFFFFFFFFFFFFFFFFFFFFFFFFFFFFFFFFFFFFFFFFFFFFFFFF NOT AND EQ DUP1 PUSH2 0x610 JUMPI POP PUSH32 0xE89341C00000000000000000000000000000000000000000000000000000000 PUSH28 0xFFFFFFFFFFFFFFFFFFFFFFFFFFFFFFFFFFFFFFFFFFFFFFFFFFFFFFFF NOT AND DUP3 PUSH28 0xFFFFFFFFFFFFFFFFFFFFFFFFFFFFFFFFFFFFFFFFFFFFFFFFFFFFFFFF NOT AND EQ JUMPDEST DUP1 PUSH2 0x620 JUMPI POP PUSH2 0x61F DUP3 PUSH2 0x21BA JUMP JUMPDEST JUMPDEST SWAP1 POP SWAP2 SWAP1 POP JUMP JUMPDEST PUSH1 0x60 PUSH1 0x2 DUP1 SLOAD PUSH2 0x636 SWAP1 PUSH2 0x4AAC JUMP JUMPDEST DUP1 PUSH1 0x1F ADD PUSH1 0x20 DUP1 SWAP2 DIV MUL PUSH1 0x20 ADD PUSH1 0x40 MLOAD SWAP1 DUP2 ADD PUSH1 0x40 MSTORE DUP1 SWAP3 SWAP2 SWAP1 DUP2 DUP2 MSTORE PUSH1 0x20 ADD DUP3 DUP1 SLOAD PUSH2 0x662 SWAP1 PUSH2 0x4AAC JUMP JUMPDEST DUP1 ISZERO PUSH2 0x6AD JUMPI DUP1 PUSH1 0x1F LT PUSH2 0x684 JUMPI PUSH2 0x100 DUP1 DUP4 SLOAD DIV MUL DUP4 MSTORE SWAP2 PUSH1 0x20 ADD SWAP2 PUSH2 0x6AD JUMP JUMPDEST DUP3 ADD SWAP2 SWAP1 PUSH0 MSTORE PUSH1 0x20 PUSH0 KECCAK256 SWAP1 JUMPDEST DUP2 SLOAD DUP2 MSTORE SWAP1 PUSH1 0x1 ADD SWAP1 PUSH1 0x20 ADD DUP1 DUP4 GT PUSH2 0x690 JUMPI DUP3 SWAP1 SUB PUSH1 0x1F AND DUP3 ADD SWAP2 JUMPDEST POP POP POP POP POP SWAP1 POP SWAP2 SWAP1 POP JUMP JUMPDEST PUSH2 0x6C1 PUSH2 0x2223 JUMP JUMPDEST PUSH0 PUSH1 0x4 DUP1 SLOAD SWAP1 POP SWAP1 POP PUSH0 JUMPDEST DUP2 DUP2 LT ISZERO PUSH2 0x841 JUMPI DUP3 PUSH20 0xFFFFFFFFFFFFFFFFFFFFFFFFFFFFFFFFFFFFFFFF AND PUSH1 0x4 DUP3 DUP2 SLOAD DUP2 LT PUSH2 0x6FF JUMPI PUSH2 0x6FE PUSH2 0x4ADC JUMP JUMPDEST JUMPDEST SWAP1 PUSH0 MSTORE PUSH1 0x20 PUSH0 KECCAK256 ADD PUSH0 SWAP1 SLOAD SWAP1 PUSH2 0x100 EXP SWAP1 DIV PUSH20 0xFFFFFFFFFFFFFFFFFFFFFFFFFFFFFFFFFFFFFFFF AND PUSH20 0xFFFFFFFFFFFFFFFFFFFFFFFFFFFFFFFFFFFFFFFF AND SUB PUSH2 0x82E JUMPI PUSH1 0x4 PUSH1 0x1 DUP4 PUSH2 0x751 SWAP2 SWAP1 PUSH2 0x4B36 JUMP JUMPDEST DUP2 SLOAD DUP2 LT PUSH2 0x762 JUMPI PUSH2 0x761 PUSH2 0x4ADC JUMP JUMPDEST JUMPDEST SWAP1 PUSH0 MSTORE PUSH1 0x20 PUSH0 KECCAK256 ADD PUSH0 SWAP1 SLOAD SWAP1 PUSH2 0x100 EXP SWAP1 DIV PUSH20 0xFFFFFFFFFFFFFFFFFFFFFFFFFFFFFFFFFFFFFFFF AND PUSH1 0x4 DUP3 DUP2 SLOAD DUP2 LT PUSH2 0x79E JUMPI PUSH2 0x79D PUSH2 0x4ADC JUMP JUMPDEST JUMPDEST SWAP1 PUSH0 MSTORE PUSH1 0x20 PUSH0 KECCAK256 ADD PUSH0 PUSH2 0x100 EXP DUP2 SLOAD DUP2 PUSH20 0xFFFFFFFFFFFFFFFFFFFFFFFFFFFFFFFFFFFFFFFF MUL NOT AND SWAP1 DUP4 PUSH20 0xFFFFFFFFFFFFFFFFFFFFFFFFFFFFFFFFFFFFFFFF AND MUL OR SWAP1 SSTORE POP PUSH1 0x4 DUP1 SLOAD DUP1 PUSH2 0x7F5 JUMPI PUSH2 0x7F4 PUSH2 0x4B69 JUMP JUMPDEST JUMPDEST PUSH1 0x1 SWAP1 SUB DUP2 DUP2 SWAP1 PUSH0 MSTORE PUSH1 0x20 PUSH0 KECCAK256 ADD PUSH0 PUSH2 0x100 EXP DUP2 SLOAD SWAP1 PUSH20 0xFFFFFFFFFFFFFFFFFFFFFFFFFFFFFFFFFFFFFFFF MUL NOT AND SWAP1 SSTORE SWAP1 SSTORE POP POP PUSH2 0x87D JUMP JUMPDEST DUP1 DUP1 PUSH2 0x839 SWAP1 PUSH2 0x4B96 JUMP JUMPDEST SWAP2 POP POP PUSH2 0x6CC JUMP JUMPDEST POP PUSH1 0x40 MLOAD PUSH32 0x8C379A000000000000000000000000000000000000000000000000000000000 DUP2 MSTORE PUSH1 0x4 ADD PUSH2 0x874 SWAP1 PUSH2 0x4C27 JUMP JUMPDEST PUSH1 0x40 MLOAD DUP1 SWAP2 SUB SWAP1 REVERT JUMPDEST POP JUMP JUMPDEST PUSH1 0xB PUSH0 SWAP1 SLOAD SWAP1 PUSH2 0x100 EXP SWAP1 DIV PUSH20 0xFFFFFFFFFFFFFFFFFFFFFFFFFFFFFFFFFFFFFFFF AND DUP2 JUMP JUMPDEST PUSH0 DUP3 DUP3 SWAP1 POP GT PUSH2 0x8EA JUMPI PUSH1 0x40 MLOAD PUSH32 0x8C379A000000000000000000000000000000000000000000000000000000000 DUP2 MSTORE PUSH1 0x4 ADD PUSH2 0x8E1 SWAP1 PUSH2 0x4C8F JUMP JUMPDEST PUSH1 0x40 MLOAD DUP1 SWAP2 SUB SWAP1 REVERT JUMPDEST PUSH0 DUP1 PUSH0 PUSH2 0x8F7 PUSH1 0x5 PUSH2 0x22AA JUMP JUMPDEST SWAP1 POP PUSH0 JUMPDEST DUP2 MLOAD DUP2 LT ISZERO PUSH2 0x99A JUMPI DUP6 DUP6 PUSH1 0x40 MLOAD PUSH2 0x914 SWAP3 SWAP2 SWAP1 PUSH2 0x4CDB JUMP JUMPDEST PUSH1 0x40 MLOAD DUP1 SWAP2 SUB SWAP1 KECCAK256 PUSH1 0x7 PUSH0 DUP5 DUP5 DUP2 MLOAD DUP2 LT PUSH2 0x932 JUMPI PUSH2 0x931 PUSH2 0x4ADC JUMP JUMPDEST JUMPDEST PUSH1 0x20 MUL PUSH1 0x20 ADD ADD MLOAD DUP2 MSTORE PUSH1 0x20 ADD SWAP1 DUP2 MSTORE PUSH1 0x20 ADD PUSH0 KECCAK256 PUSH1 0x40 MLOAD PUSH2 0x954 SWAP2 SWAP1 PUSH2 0x4D85 JUMP JUMPDEST PUSH1 0x40 MLOAD DUP1 SWAP2 SUB SWAP1 KECCAK256 SUB PUSH2 0x987 JUMPI DUP2 DUP2 DUP2 MLOAD DUP2 LT PUSH2 0x974 JUMPI PUSH2 0x973 PUSH2 0x4ADC JUMP JUMPDEST JUMPDEST PUSH1 0x20 MUL PUSH1 0x20 ADD ADD MLOAD SWAP4 POP PUSH1 0x1 SWAP3 POP PUSH2 0x99A JUMP JUMPDEST DUP1 DUP1 PUSH2 0x992 SWAP1 PUSH2 0x4B96 JUMP JUMPDEST SWAP2 POP POP PUSH2 0x8FB JUMP JUMPDEST POP DUP2 ISZERO PUSH2 0x9F5 JUMPI PUSH2 0x9F0 DUP10 DUP5 DUP11 DUP11 DUP11 DUP1 DUP1 PUSH1 0x1F ADD PUSH1 0x20 DUP1 SWAP2 DIV MUL PUSH1 0x20 ADD PUSH1 0x40 MLOAD SWAP1 DUP2 ADD PUSH1 0x40 MSTORE DUP1 SWAP4 SWAP3 SWAP2 SWAP1 DUP2 DUP2 MSTORE PUSH1 0x20 ADD DUP4 DUP4 DUP1 DUP3 DUP5 CALLDATACOPY PUSH0 DUP2 DUP5 ADD MSTORE PUSH1 0x1F NOT PUSH1 0x1F DUP3 ADD AND SWAP1 POP DUP1 DUP4 ADD SWAP3 POP POP POP POP POP POP POP PUSH2 0x22C9 JUMP JUMPDEST PUSH2 0xB7A JUMP JUMPDEST PUSH0 DUP1 PUSH0 SWAP1 POP JUMPDEST PUSH3 0x15F90 TIMESTAMP PREVRANDAO DUP14 DUP11 DUP11 DUP7 PUSH1 0x40 MLOAD PUSH1 0x20 ADD PUSH2 0xA1A SWAP7 SWAP6 SWAP5 SWAP4 SWAP3 SWAP2 SWAP1 PUSH2 0x4E2E JUMP JUMPDEST PUSH1 0x40 MLOAD PUSH1 0x20 DUP2 DUP4 SUB SUB DUP2 MSTORE SWAP1 PUSH1 0x40 MSTORE DUP1 MLOAD SWAP1 PUSH1 0x20 ADD KECCAK256 PUSH0 SHR PUSH2 0xA3C SWAP2 SWAP1 PUSH2 0x4EB7 JUMP JUMPDEST PUSH2 0x3E8 PUSH2 0xA49 SWAP2 SWAP1 PUSH2 0x4EE7 JUMP JUMPDEST SWAP2 POP DUP1 DUP1 PUSH2 0xA56 SWAP1 PUSH2 0x4B96 JUMP JUMPDEST SWAP2 POP POP PUSH1 0x64 DUP2 LT PUSH2 0xA9C JUMPI PUSH1 0x40 MLOAD PUSH32 0x8C379A000000000000000000000000000000000000000000000000000000000 DUP2 MSTORE PUSH1 0x4 ADD PUSH2 0xA93 SWAP1 PUSH2 0x4F8A JUMP JUMPDEST PUSH1 0x40 MLOAD DUP1 SWAP2 SUB SWAP1 REVERT JUMPDEST PUSH2 0xAB0 DUP3 PUSH1 0x5 PUSH2 0x235E SWAP1 SWAP2 SWAP1 PUSH4 0xFFFFFFFF AND JUMP JUMPDEST PUSH2 0x9FB JUMPI PUSH2 0xAC8 DUP3 PUSH1 0x5 PUSH2 0x2375 SWAP1 SWAP2 SWAP1 PUSH4 0xFFFFFFFF AND JUMP JUMPDEST PUSH2 0xB07 JUMPI PUSH1 0x40 MLOAD PUSH32 0x8C379A000000000000000000000000000000000000000000000000000000000 DUP2 MSTORE PUSH1 0x4 ADD PUSH2 0xAFE SWAP1 PUSH2 0x4FF2 JUMP JUMPDEST PUSH1 0x40 MLOAD DUP1 SWAP2 SUB SWAP1 REVERT JUMPDEST PUSH2 0xB56 DUP12 DUP4 DUP13 DUP13 DUP13 DUP1 DUP1 PUSH1 0x1F ADD PUSH1 0x20 DUP1 SWAP2 DIV MUL PUSH1 0x20 ADD PUSH1 0x40 MLOAD SWAP1 DUP2 ADD PUSH1 0x40 MSTORE DUP1 SWAP4 SWAP3 SWAP2 SWAP1 DUP2 DUP2 MSTORE PUSH1 0x20 ADD DUP4 DUP4 DUP1 DUP3 DUP5 CALLDATACOPY PUSH0 DUP2 DUP5 ADD MSTORE PUSH1 0x1F NOT PUSH1 0x1F DUP3 ADD AND SWAP1 POP DUP1 DUP4 ADD SWAP3 POP POP POP POP POP POP POP PUSH2 0x22C9 JUMP JUMPDEST DUP7 DUP7 PUSH1 0x7 PUSH0 DUP6 DUP2 MSTORE PUSH1 0x20 ADD SWAP1 DUP2 MSTORE PUSH1 0x20 ADD PUSH0 KECCAK256 SWAP2 DUP3 PUSH2 0xB76 SWAP3 SWAP2 SWAP1 PUSH2 0x51AE JUMP JUMPDEST POP POP POP JUMPDEST POP POP POP POP POP POP POP POP POP JUMP JUMPDEST DUP2 MLOAD DUP4 MLOAD EQ PUSH2 0xBC9 JUMPI PUSH1 0x40 MLOAD PUSH32 0x8C379A000000000000000000000000000000000000000000000000000000000 DUP2 MSTORE PUSH1 0x4 ADD PUSH2 0xBC0 SWAP1 PUSH2 0x52EB JUMP JUMPDEST PUSH1 0x40 MLOAD DUP1 SWAP2 SUB SWAP1 REVERT JUMPDEST PUSH0 PUSH20 0xFFFFFFFFFFFFFFFFFFFFFFFFFFFFFFFFFFFFFFFF AND DUP5 PUSH20 0xFFFFFFFFFFFFFFFFFFFFFFFFFFFFFFFFFFFFFFFF AND SUB PUSH2 0xC37 JUMPI PUSH1 0x40 MLOAD PUSH32 0x8C379A000000000000000000000000000000000000000000000000000000000 DUP2 MSTORE PUSH1 0x4 ADD PUSH2 0xC2E SWAP1 PUSH2 0x5379 JUMP JUMPDEST PUSH1 0x40 MLOAD DUP1 SWAP2 SUB SWAP1 REVERT JUMPDEST PUSH0 JUMPDEST DUP4 MLOAD DUP2 LT ISZERO PUSH2 0xCB9 JUMPI PUSH2 0xC67 DUP5 DUP3 DUP2 MLOAD DUP2 LT PUSH2 0xC58 JUMPI PUSH2 0xC57 PUSH2 0x4ADC JUMP JUMPDEST JUMPDEST PUSH1 0x20 MUL PUSH1 0x20 ADD ADD MLOAD DUP8 DUP8 PUSH2 0x238C JUMP JUMPDEST PUSH2 0xCA8 DUP7 DUP7 DUP7 DUP5 DUP2 MLOAD DUP2 LT PUSH2 0xC7F JUMPI PUSH2 0xC7E PUSH2 0x4ADC JUMP JUMPDEST JUMPDEST PUSH1 0x20 MUL PUSH1 0x20 ADD ADD MLOAD DUP7 DUP6 DUP2 MLOAD DUP2 LT PUSH2 0xC9A JUMPI PUSH2 0xC99 PUSH2 0x4ADC JUMP JUMPDEST JUMPDEST PUSH1 0x20 MUL PUSH1 0x20 ADD ADD MLOAD DUP7 PUSH2 0x20FF JUMP JUMPDEST DUP1 PUSH2 0xCB2 SWAP1 PUSH2 0x4B96 JUMP JUMPDEST SWAP1 POP PUSH2 0xC39 JUMP JUMPDEST POP POP POP POP POP POP JUMP JUMPDEST PUSH1 0x60 PUSH2 0xCCB PUSH2 0x2223 JUMP JUMPDEST PUSH1 0x4 DUP1 SLOAD DUP1 PUSH1 0x20 MUL PUSH1 0x20 ADD PUSH1 0x40 MLOAD SWAP1 DUP2 ADD PUSH1 0x40 MSTORE DUP1 SWAP3 SWAP2 SWAP1 DUP2 DUP2 MSTORE PUSH1 0x20 ADD DUP3 DUP1 SLOAD DUP1 ISZERO PUSH2 0xD4A JUMPI PUSH1 0x20 MUL DUP3 ADD SWAP2 SWAP1 PUSH0 MSTORE PUSH1 0x20 PUSH0 KECCAK256 SWAP1 JUMPDEST DUP2 PUSH0 SWAP1 SLOAD SWAP1 PUSH2 0x100 EXP SWAP1 DIV PUSH20 0xFFFFFFFFFFFFFFFFFFFFFFFFFFFFFFFFFFFFFFFF AND PUSH20 0xFFFFFFFFFFFFFFFFFFFFFFFFFFFFFFFFFFFFFFFF AND DUP2 MSTORE PUSH1 0x20 ADD SWAP1 PUSH1 0x1 ADD SWAP1 DUP1 DUP4 GT PUSH2 0xD01 JUMPI JUMPDEST POP POP POP POP POP SWAP1 POP SWAP1 JUMP JUMPDEST PUSH1 0x60 DUP2 MLOAD DUP4 MLOAD EQ PUSH2 0xDA0 JUMPI DUP2 MLOAD DUP4 MLOAD PUSH1 0x40 MLOAD PUSH32 0x5B05999100000000000000000000000000000000000000000000000000000000 DUP2 MSTORE PUSH1 0x4 ADD PUSH2 0xD97 SWAP3 SWAP2 SWAP1 PUSH2 0x5397 JUMP JUMPDEST PUSH1 0x40 MLOAD DUP1 SWAP2 SUB SWAP1 REVERT JUMPDEST PUSH0 DUP4 MLOAD PUSH8 0xFFFFFFFFFFFFFFFF DUP2 GT ISZERO PUSH2 0xDBC JUMPI PUSH2 0xDBB PUSH2 0x3DFC JUMP JUMPDEST JUMPDEST PUSH1 0x40 MLOAD SWAP1 DUP1 DUP3 MSTORE DUP1 PUSH1 0x20 MUL PUSH1 0x20 ADD DUP3 ADD PUSH1 0x40 MSTORE DUP1 ISZERO PUSH2 0xDEA JUMPI DUP2 PUSH1 0x20 ADD PUSH1 0x20 DUP3 MUL DUP1 CALLDATASIZE DUP4 CALLDATACOPY DUP1 DUP3 ADD SWAP2 POP POP SWAP1 POP JUMPDEST POP SWAP1 POP PUSH0 JUMPDEST DUP5 MLOAD DUP2 LT ISZERO PUSH2 0xE56 JUMPI PUSH2 0xE26 PUSH2 0xE0E DUP3 DUP8 PUSH2 0x2824 SWAP1 SWAP2 SWAP1 PUSH4 0xFFFFFFFF AND JUMP JUMPDEST PUSH2 0xE21 DUP4 DUP8 PUSH2 0x2837 SWAP1 SWAP2 SWAP1 PUSH4 0xFFFFFFFF AND JUMP JUMPDEST PUSH2 0x4F1 JUMP JUMPDEST DUP3 DUP3 DUP2 MLOAD DUP2 LT PUSH2 0xE39 JUMPI PUSH2 0xE38 PUSH2 0x4ADC JUMP JUMPDEST JUMPDEST PUSH1 0x20 MUL PUSH1 0x20 ADD ADD DUP2 DUP2 MSTORE POP POP DUP1 PUSH2 0xE4F SWAP1 PUSH2 0x4B96 JUMP JUMPDEST SWAP1 POP PUSH2 0xDEF JUMP JUMPDEST POP DUP1 SWAP2 POP POP SWAP3 SWAP2 POP POP JUMP JUMPDEST PUSH2 0xE75 DUP3 PUSH1 0x5 PUSH2 0x235E SWAP1 SWAP2 SWAP1 PUSH4 0xFFFFFFFF AND JUMP JUMPDEST PUSH2 0xEB4 JUMPI PUSH1 0x40 MLOAD PUSH32 0x8C379A000000000000000000000000000000000000000000000000000000000 DUP2 MSTORE PUSH1 0x4 ADD PUSH2 0xEAB SWAP1 PUSH2 0x5408 JUMP JUMPDEST PUSH1 0x40 MLOAD DUP1 SWAP2 SUB SWAP1 REVERT JUMPDEST PUSH0 PUSH1 0x8 PUSH0 DUP5 DUP2 MSTORE PUSH1 0x20 ADD SWAP1 DUP2 MSTORE PUSH1 0x20 ADD PUSH0 KECCAK256 PUSH0 CALLER PUSH20 0xFFFFFFFFFFFFFFFFFFFFFFFFFFFFFFFFFFFFFFFF AND PUSH20 0xFFFFFFFFFFFFFFFFFFFFFFFFFFFFFFFFFFFFFFFF AND DUP2 MSTORE PUSH1 0x20 ADD SWAP1 DUP2 MSTORE PUSH1 0x20 ADD PUSH0 KECCAK256 PUSH0 DUP4 PUSH8 0xFFFFFFFFFFFFFFFF AND PUSH8 0xFFFFFFFFFFFFFFFF AND DUP2 MSTORE PUSH1 0x20 ADD SWAP1 DUP2 MSTORE PUSH1 0x20 ADD PUSH0 KECCAK256 DUP1 SLOAD PUSH2 0xF2F SWAP1 PUSH2 0x4AAC JUMP JUMPDEST SWAP1 POP SUB PUSH2 0xF71 JUMPI PUSH1 0x40 MLOAD PUSH32 0x8C379A000000000000000000000000000000000000000000000000000000000 DUP2 MSTORE PUSH1 0x4 ADD PUSH2 0xF68 SWAP1 PUSH2 0x5470 JUMP JUMPDEST PUSH1 0x40 MLOAD DUP1 SWAP2 SUB SWAP1 REVERT JUMPDEST PUSH0 PUSH1 0x9 PUSH0 DUP5 DUP2 MSTORE PUSH1 0x20 ADD SWAP1 DUP2 MSTORE PUSH1 0x20 ADD PUSH0 KECCAK256 PUSH0 CALLER PUSH20 0xFFFFFFFFFFFFFFFFFFFFFFFFFFFFFFFFFFFFFFFF AND PUSH20 0xFFFFFFFFFFFFFFFFFFFFFFFFFFFFFFFFFFFFFFFF AND DUP2 MSTORE PUSH1 0x20 ADD SWAP1 DUP2 MSTORE PUSH1 0x20 ADD PUSH0 KECCAK256 PUSH0 DUP4 PUSH8 0xFFFFFFFFFFFFFFFF AND PUSH8 0xFFFFFFFFFFFFFFFF AND DUP2 MSTORE PUSH1 0x20 ADD SWAP1 DUP2 MSTORE PUSH1 0x20 ADD PUSH0 KECCAK256 PUSH0 ADD DUP1 SLOAD PUSH2 0xFEE SWAP1 PUSH2 0x4AAC JUMP JUMPDEST SWAP1 POP SUB PUSH2 0x1030 JUMPI PUSH1 0x40 MLOAD PUSH32 0x8C379A000000000000000000000000000000000000000000000000000000000 DUP2 MSTORE PUSH1 0x4 ADD PUSH2 0x1027 SWAP1 PUSH2 0x54D8 JUMP JUMPDEST PUSH1 0x40 MLOAD DUP1 SWAP2 SUB SWAP1 REVERT JUMPDEST PUSH1 0x8 PUSH0 DUP4 DUP2 MSTORE PUSH1 0x20 ADD SWAP1 DUP2 MSTORE PUSH1 0x20 ADD PUSH0 KECCAK256 PUSH0 CALLER PUSH20 0xFFFFFFFFFFFFFFFFFFFFFFFFFFFFFFFFFFFFFFFF AND PUSH20 0xFFFFFFFFFFFFFFFFFFFFFFFFFFFFFFFFFFFFFFFF AND DUP2 MSTORE PUSH1 0x20 ADD SWAP1 DUP2 MSTORE PUSH1 0x20 ADD PUSH0 KECCAK256 PUSH0 DUP3 PUSH8 0xFFFFFFFFFFFFFFFF AND PUSH8 0xFFFFFFFFFFFFFFFF AND DUP2 MSTORE PUSH1 0x20 ADD SWAP1 DUP2 MSTORE PUSH1 0x20 ADD PUSH0 KECCAK256 PUSH0 PUSH2 0x10AA SWAP2 SWAP1 PUSH2 0x38FF JUMP JUMPDEST PUSH1 0x9 PUSH0 DUP4 DUP2 MSTORE PUSH1 0x20 ADD SWAP1 DUP2 MSTORE PUSH1 0x20 ADD PUSH0 KECCAK256 PUSH0 CALLER PUSH20 0xFFFFFFFFFFFFFFFFFFFFFFFFFFFFFFFFFFFFFFFF AND PUSH20 0xFFFFFFFFFFFFFFFFFFFFFFFFFFFFFFFFFFFFFFFF AND DUP2 MSTORE PUSH1 0x20 ADD SWAP1 DUP2 MSTORE PUSH1 0x20 ADD PUSH0 KECCAK256 PUSH0 DUP3 PUSH8 0xFFFFFFFFFFFFFFFF AND PUSH8 0xFFFFFFFFFFFFFFFF AND DUP2 MSTORE PUSH1 0x20 ADD SWAP1 DUP2 MSTORE PUSH1 0x20 ADD PUSH0 KECCAK256 PUSH0 DUP1 DUP3 ADD PUSH0 PUSH2 0x1128 SWAP2 SWAP1 PUSH2 0x38FF JUMP JUMPDEST PUSH1 0x1 DUP3 ADD PUSH0 PUSH2 0x1137 SWAP2 SWAP1 PUSH2 0x38FF JUMP JUMPDEST PUSH1 0x2 DUP3 ADD PUSH0 PUSH2 0x1146 SWAP2 SWAP1 PUSH2 0x38FF JUMP JUMPDEST POP POP PUSH0 JUMPDEST PUSH1 0xA DUP1 SLOAD SWAP1 POP DUP2 LT ISZERO PUSH2 0x12A3 JUMPI DUP2 PUSH8 0xFFFFFFFFFFFFFFFF AND PUSH1 0xA DUP3 DUP2 SLOAD DUP2 LT PUSH2 0x1176 JUMPI PUSH2 0x1175 PUSH2 0x4ADC JUMP JUMPDEST JUMPDEST SWAP1 PUSH0 MSTORE PUSH1 0x20 PUSH0 KECCAK256 SWAP1 PUSH1 0x4 SWAP2 DUP3 DUP3 DIV ADD SWAP2 SWAP1 MOD PUSH1 0x8 MUL SWAP1 SLOAD SWAP1 PUSH2 0x100 EXP SWAP1 DIV PUSH8 0xFFFFFFFFFFFFFFFF AND PUSH8 0xFFFFFFFFFFFFFFFF AND SUB PUSH2 0x1290 JUMPI PUSH1 0xA PUSH1 0x1 PUSH1 0xA DUP1 SLOAD SWAP1 POP PUSH2 0x11C1 SWAP2 SWAP1 PUSH2 0x4B36 JUMP JUMPDEST DUP2 SLOAD DUP2 LT PUSH2 0x11D2 JUMPI PUSH2 0x11D1 PUSH2 0x4ADC JUMP JUMPDEST JUMPDEST SWAP1 PUSH0 MSTORE PUSH1 0x20 PUSH0 KECCAK256 SWAP1 PUSH1 0x4 SWAP2 DUP3 DUP3 DIV ADD SWAP2 SWAP1 MOD PUSH1 0x8 MUL SWAP1 SLOAD SWAP1 PUSH2 0x100 EXP SWAP1 DIV PUSH8 0xFFFFFFFFFFFFFFFF AND PUSH1 0xA DUP3 DUP2 SLOAD DUP2 LT PUSH2 0x120E JUMPI PUSH2 0x120D PUSH2 0x4ADC JUMP JUMPDEST JUMPDEST SWAP1 PUSH0 MSTORE PUSH1 0x20 PUSH0 KECCAK256 SWAP1 PUSH1 0x4 SWAP2 DUP3 DUP3 DIV ADD SWAP2 SWAP1 MOD PUSH1 0x8 MUL PUSH2 0x100 EXP DUP2 SLOAD DUP2 PUSH8 0xFFFFFFFFFFFFFFFF MUL NOT AND SWAP1 DUP4 PUSH8 0xFFFFFFFFFFFFFFFF AND MUL OR SWAP1 SSTORE POP PUSH1 0xA DUP1 SLOAD DUP1 PUSH2 0x1259 JUMPI PUSH2 0x1258 PUSH2 0x4B69 JUMP JUMPDEST JUMPDEST PUSH1 0x1 SWAP1 SUB DUP2 DUP2 SWAP1 PUSH0 MSTORE PUSH1 0x20 PUSH0 KECCAK256 SWAP1 PUSH1 0x4 SWAP2 DUP3 DUP3 DIV ADD SWAP2 SWAP1 MOD PUSH1 0x8 MUL PUSH2 0x100 EXP DUP2 SLOAD SWAP1 PUSH8 0xFFFFFFFFFFFFFFFF MUL NOT AND SWAP1 SSTORE SWAP1 SSTORE PUSH2 0x12A3 JUMP JUMPDEST DUP1 DUP1 PUSH2 0x129B SWAP1 PUSH2 0x4B96 JUMP JUMPDEST SWAP2 POP POP PUSH2 0x114A JUMP JUMPDEST POP POP POP JUMP JUMPDEST PUSH1 0x9 PUSH1 0x20 MSTORE DUP3 PUSH0 MSTORE PUSH1 0x40 PUSH0 KECCAK256 PUSH1 0x20 MSTORE DUP2 PUSH0 MSTORE PUSH1 0x40 PUSH0 KECCAK256 PUSH1 0x20 MSTORE DUP1 PUSH0 MSTORE PUSH1 0x40 PUSH0 KECCAK256 PUSH0 SWAP3 POP SWAP3 POP POP POP DUP1 PUSH0 ADD DUP1 SLOAD PUSH2 0x12DD SWAP1 PUSH2 0x4AAC JUMP JUMPDEST DUP1 PUSH1 0x1F ADD PUSH1 0x20 DUP1 SWAP2 DIV MUL PUSH1 0x20 ADD PUSH1 0x40 MLOAD SWAP1 DUP2 ADD PUSH1 0x40 MSTORE DUP1 SWAP3 SWAP2 SWAP1 DUP2 DUP2 MSTORE PUSH1 0x20 ADD DUP3 DUP1 SLOAD PUSH2 0x1309 SWAP1 PUSH2 0x4AAC JUMP JUMPDEST DUP1 ISZERO PUSH2 0x1354 JUMPI DUP1 PUSH1 0x1F LT PUSH2 0x132B JUMPI PUSH2 0x100 DUP1 DUP4 SLOAD DIV MUL DUP4 MSTORE SWAP2 PUSH1 0x20 ADD SWAP2 PUSH2 0x1354 JUMP JUMPDEST DUP3 ADD SWAP2 SWAP1 PUSH0 MSTORE PUSH1 0x20 PUSH0 KECCAK256 SWAP1 JUMPDEST DUP2 SLOAD DUP2 MSTORE SWAP1 PUSH1 0x1 ADD SWAP1 PUSH1 0x20 ADD DUP1 DUP4 GT PUSH2 0x1337 JUMPI DUP3 SWAP1 SUB PUSH1 0x1F AND DUP3 ADD SWAP2 JUMPDEST POP POP POP POP POP SWAP1 DUP1 PUSH1 0x1 ADD DUP1 SLOAD PUSH2 0x1369 SWAP1 PUSH2 0x4AAC JUMP JUMPDEST DUP1 PUSH1 0x1F ADD PUSH1 0x20 DUP1 SWAP2 DIV MUL PUSH1 0x20 ADD PUSH1 0x40 MLOAD SWAP1 DUP2 ADD PUSH1 0x40 MSTORE DUP1 SWAP3 SWAP2 SWAP1 DUP2 DUP2 MSTORE PUSH1 0x20 ADD DUP3 DUP1 SLOAD PUSH2 0x1395 SWAP1 PUSH2 0x4AAC JUMP JUMPDEST DUP1 ISZERO PUSH2 0x13E0 JUMPI DUP1 PUSH1 0x1F LT PUSH2 0x13B7 JUMPI PUSH2 0x100 DUP1 DUP4 SLOAD DIV MUL DUP4 MSTORE SWAP2 PUSH1 0x20 ADD SWAP2 PUSH2 0x13E0 JUMP JUMPDEST DUP3 ADD SWAP2 SWAP1 PUSH0 MSTORE PUSH1 0x20 PUSH0 KECCAK256 SWAP1 JUMPDEST DUP2 SLOAD DUP2 MSTORE SWAP1 PUSH1 0x1 ADD SWAP1 PUSH1 0x20 ADD DUP1 DUP4 GT PUSH2 0x13C3 JUMPI DUP3 SWAP1 SUB PUSH1 0x1F AND DUP3 ADD SWAP2 JUMPDEST POP POP POP POP POP SWAP1 DUP1 PUSH1 0x2 ADD DUP1 SLOAD PUSH2 0x13F5 SWAP1 PUSH2 0x4AAC JUMP JUMPDEST DUP1 PUSH1 0x1F ADD PUSH1 0x20 DUP1 SWAP2 DIV MUL PUSH1 0x20 ADD PUSH1 0x40 MLOAD SWAP1 DUP2 ADD PUSH1 0x40 MSTORE DUP1 SWAP3 SWAP2 SWAP1 DUP2 DUP2 MSTORE PUSH1 0x20 ADD DUP3 DUP1 SLOAD PUSH2 0x1421 SWAP1 PUSH2 0x4AAC JUMP JUMPDEST DUP1 ISZERO PUSH2 0x146C JUMPI DUP1 PUSH1 0x1F LT PUSH2 0x1443 JUMPI PUSH2 0x100 DUP1 DUP4 SLOAD DIV MUL DUP4 MSTORE SWAP2 PUSH1 0x20 ADD SWAP2 PUSH2 0x146C JUMP JUMPDEST DUP3 ADD SWAP2 SWAP1 PUSH0 MSTORE PUSH1 0x20 PUSH0 KECCAK256 SWAP1 JUMPDEST DUP2 SLOAD DUP2 MSTORE SWAP1 PUSH1 0x1 ADD SWAP1 PUSH1 0x20 ADD DUP1 DUP4 GT PUSH2 0x144F JUMPI DUP3 SWAP1 SUB PUSH1 0x1F AND DUP3 ADD SWAP2 JUMPDEST POP POP POP POP POP SWAP1 POP DUP4 JUMP JUMPDEST PUSH2 0x147E PUSH2 0x2223 JUMP JUMPDEST PUSH0 PUSH20 0xFFFFFFFFFFFFFFFFFFFFFFFFFFFFFFFFFFFFFFFF AND DUP2 PUSH20 0xFFFFFFFFFFFFFFFFFFFFFFFFFFFFFFFFFFFFFFFF AND SUB PUSH2 0x14EC JUMPI PUSH1 0x40 MLOAD PUSH32 0x8C379A000000000000000000000000000000000000000000000000000000000 DUP2 MSTORE PUSH1 0x4 ADD PUSH2 0x14E3 SWAP1 PUSH2 0x5540 JUMP JUMPDEST PUSH1 0x40 MLOAD DUP1 SWAP2 SUB SWAP1 REVERT JUMPDEST PUSH2 0x14F5 DUP2 PUSH2 0x284A JUMP JUMPDEST ISZERO PUSH2 0x1535 JUMPI PUSH1 0x40 MLOAD PUSH32 0x8C379A000000000000000000000000000000000000000000000000000000000 DUP2 MSTORE PUSH1 0x4 ADD PUSH2 0x152C SWAP1 PUSH2 0x55A8 JUMP JUMPDEST PUSH1 0x40 MLOAD DUP1 SWAP2 SUB SWAP1 REVERT JUMPDEST PUSH1 0x4 DUP2 SWAP1 DUP1 PUSH1 0x1 DUP2 SLOAD ADD DUP1 DUP3 SSTORE DUP1 SWAP2 POP POP PUSH1 0x1 SWAP1 SUB SWAP1 PUSH0 MSTORE PUSH1 0x20 PUSH0 KECCAK256 ADD PUSH0 SWAP1 SWAP2 SWAP1 SWAP2 SWAP1 SWAP2 PUSH2 0x100 EXP DUP2 SLOAD DUP2 PUSH20 0xFFFFFFFFFFFFFFFFFFFFFFFFFFFFFFFFFFFFFFFF MUL NOT AND SWAP1 DUP4 PUSH20 0xFFFFFFFFFFFFFFFFFFFFFFFFFFFFFFFFFFFFFFFF AND MUL OR SWAP1 SSTORE POP POP JUMP JUMPDEST PUSH2 0x15A0 PUSH2 0x2223 JUMP JUMPDEST PUSH2 0x15A9 PUSH0 PUSH2 0x28F2 JUMP JUMPDEST JUMP JUMPDEST PUSH0 PUSH2 0x15B6 CALLER DUP7 PUSH2 0x4F1 JUMP JUMPDEST GT PUSH2 0x15F6 JUMPI PUSH1 0x40 MLOAD PUSH32 0x8C379A000000000000000000000000000000000000000000000000000000000 DUP2 MSTORE PUSH1 0x4 ADD PUSH2 0x15ED SWAP1 PUSH2 0x5636 JUMP JUMPDEST PUSH1 0x40 MLOAD DUP1 SWAP2 SUB SWAP1 REVERT JUMPDEST PUSH0 PUSH1 0x40 MLOAD DUP1 PUSH1 0x60 ADD PUSH1 0x40 MSTORE DUP1 DUP12 DUP12 DUP1 DUP1 PUSH1 0x1F ADD PUSH1 0x20 DUP1 SWAP2 DIV MUL PUSH1 0x20 ADD PUSH1 0x40 MLOAD SWAP1 DUP2 ADD PUSH1 0x40 MSTORE DUP1 SWAP4 SWAP3 SWAP2 SWAP1 DUP2 DUP2 MSTORE PUSH1 0x20 ADD DUP4 DUP4 DUP1 DUP3 DUP5 CALLDATACOPY PUSH0 DUP2 DUP5 ADD MSTORE PUSH1 0x1F NOT PUSH1 0x1F DUP3 ADD AND SWAP1 POP DUP1 DUP4 ADD SWAP3 POP POP POP POP POP POP POP DUP2 MSTORE PUSH1 0x20 ADD DUP10 PUSH20 0xFFFFFFFFFFFFFFFFFFFFFFFFFFFFFFFFFFFFFFFF AND DUP2 MSTORE PUSH1 0x20 ADD DUP9 DUP9 DUP1 DUP1 PUSH1 0x1F ADD PUSH1 0x20 DUP1 SWAP2 DIV MUL PUSH1 0x20 ADD PUSH1 0x40 MLOAD SWAP1 DUP2 ADD PUSH1 0x40 MSTORE DUP1 SWAP4 SWAP3 SWAP2 SWAP1 DUP2 DUP2 MSTORE PUSH1 0x20 ADD DUP4 DUP4 DUP1 DUP3 DUP5 CALLDATACOPY PUSH0 DUP2 DUP5 ADD MSTORE PUSH1 0x1F NOT PUSH1 0x1F DUP3 ADD AND SWAP1 POP DUP1 DUP4 ADD SWAP3 POP POP POP POP POP POP POP DUP2 MSTORE POP SWAP1 POP PUSH1 0xB PUSH0 SWAP1 SLOAD SWAP1 PUSH2 0x100 EXP SWAP1 DIV PUSH20 0xFFFFFFFFFFFFFFFFFFFFFFFFFFFFFFFFFFFFFFFF AND PUSH20 0xFFFFFFFFFFFFFFFFFFFFFFFFFFFFFFFFFFFFFFFF AND PUSH4 0x9F5223E0 DUP13 DUP4 PUSH1 0x40 MLOAD DUP4 PUSH4 0xFFFFFFFF AND PUSH1 0xE0 SHL DUP2 MSTORE PUSH1 0x4 ADD PUSH2 0x170C SWAP3 SWAP2 SWAP1 PUSH2 0x571A JUMP JUMPDEST PUSH0 PUSH1 0x40 MLOAD DUP1 DUP4 SUB DUP2 PUSH0 DUP8 DUP1 EXTCODESIZE ISZERO DUP1 ISZERO PUSH2 0x1723 JUMPI PUSH0 DUP1 REVERT JUMPDEST POP GAS CALL ISZERO DUP1 ISZERO PUSH2 0x1735 JUMPI RETURNDATASIZE PUSH0 DUP1 RETURNDATACOPY RETURNDATASIZE PUSH0 REVERT JUMPDEST POP POP POP POP PUSH2 0x1745 DUP6 DUP13 DUP7 DUP7 PUSH2 0x29B5 JUMP JUMPDEST PUSH1 0x40 MLOAD DUP1 PUSH1 0x60 ADD PUSH1 0x40 MSTORE DUP1 DUP4 DUP1 PUSH0 ADD SWAP1 PUSH2 0x175F SWAP2 SWAP1 PUSH2 0x5754 JUMP JUMPDEST DUP1 DUP1 PUSH1 0x1F ADD PUSH1 0x20 DUP1 SWAP2 DIV MUL PUSH1 0x20 ADD PUSH1 0x40 MLOAD SWAP1 DUP2 ADD PUSH1 0x40 MSTORE DUP1 SWAP4 SWAP3 SWAP2 SWAP1 DUP2 DUP2 MSTORE PUSH1 0x20 ADD DUP4 DUP4 DUP1 DUP3 DUP5 CALLDATACOPY PUSH0 DUP2 DUP5 ADD MSTORE PUSH1 0x1F NOT PUSH1 0x1F DUP3 ADD AND SWAP1 POP DUP1 DUP4 ADD SWAP3 POP POP POP POP POP POP POP DUP2 MSTORE PUSH1 0x20 ADD DUP4 DUP1 PUSH1 0x20 ADD SWAP1 PUSH2 0x17B6 SWAP2 SWAP1 PUSH2 0x5754 JUMP JUMPDEST DUP1 DUP1 PUSH1 0x1F ADD PUSH1 0x20 DUP1 SWAP2 DIV MUL PUSH1 0x20 ADD PUSH1 0x40 MLOAD SWAP1 DUP2 ADD PUSH1 0x40 MSTORE DUP1 SWAP4 SWAP3 SWAP2 SWAP1 DUP2 DUP2 MSTORE PUSH1 0x20 ADD DUP4 DUP4 DUP1 DUP3 DUP5 CALLDATACOPY PUSH0 DUP2 DUP5 ADD MSTORE PUSH1 0x1F NOT PUSH1 0x1F DUP3 ADD AND SWAP1 POP DUP1 DUP4 ADD SWAP3 POP POP POP POP POP POP POP DUP2 MSTORE PUSH1 0x20 ADD DUP4 DUP1 PUSH1 0x40 ADD SWAP1 PUSH2 0x180D SWAP2 SWAP1 PUSH2 0x5754 JUMP JUMPDEST DUP1 DUP1 PUSH1 0x1F ADD PUSH1 0x20 DUP1 SWAP2 DIV MUL PUSH1 0x20 ADD PUSH1 0x40 MLOAD SWAP1 DUP2 ADD PUSH1 0x40 MSTORE DUP1 SWAP4 SWAP3 SWAP2 SWAP1 DUP2 DUP2 MSTORE PUSH1 0x20 ADD DUP4 DUP4 DUP1 DUP3 DUP5 CALLDATACOPY PUSH0 DUP2 DUP5 ADD MSTORE PUSH1 0x1F NOT PUSH1 0x1F DUP3 ADD AND SWAP1 POP DUP1 DUP4 ADD SWAP3 POP POP POP POP POP POP POP DUP2 MSTORE POP PUSH1 0x9 PUSH0 DUP8 DUP2 MSTORE PUSH1 0x20 ADD SWAP1 DUP2 MSTORE PUSH1 0x20 ADD PUSH0 KECCAK256 PUSH0 CALLER PUSH20 0xFFFFFFFFFFFFFFFFFFFFFFFFFFFFFFFFFFFFFFFF AND PUSH20 0xFFFFFFFFFFFFFFFFFFFFFFFFFFFFFFFFFFFFFFFF AND DUP2 MSTORE PUSH1 0x20 ADD SWAP1 DUP2 MSTORE PUSH1 0x20 ADD PUSH0 KECCAK256 PUSH0 DUP14 PUSH8 0xFFFFFFFFFFFFFFFF AND PUSH8 0xFFFFFFFFFFFFFFFF AND DUP2 MSTORE PUSH1 0x20 ADD SWAP1 DUP2 MSTORE PUSH1 0x20 ADD PUSH0 KECCAK256 PUSH0 DUP3 ADD MLOAD DUP2 PUSH0 ADD SWAP1 DUP2 PUSH2 0x18D4 SWAP2 SWAP1 PUSH2 0x57B6 JUMP JUMPDEST POP PUSH1 0x20 DUP3 ADD MLOAD DUP2 PUSH1 0x1 ADD SWAP1 DUP2 PUSH2 0x18EA SWAP2 SWAP1 PUSH2 0x57B6 JUMP JUMPDEST POP PUSH1 0x40 DUP3 ADD MLOAD DUP2 PUSH1 0x2 ADD SWAP1 DUP2 PUSH2 0x1900 SWAP2 SWAP1 PUSH2 0x57B6 JUMP JUMPDEST POP SWAP1 POP POP POP POP POP POP POP POP POP POP POP POP POP JUMP JUMPDEST PUSH1 0x60 PUSH2 0x191D PUSH1 0x5 PUSH2 0x22AA JUMP JUMPDEST SWAP1 POP SWAP1 JUMP JUMPDEST PUSH0 PUSH1 0x3 PUSH0 SWAP1 SLOAD SWAP1 PUSH2 0x100 EXP SWAP1 DIV PUSH20 0xFFFFFFFFFFFFFFFFFFFFFFFFFFFFFFFFFFFFFFFF AND SWAP1 POP SWAP1 JUMP JUMPDEST PUSH1 0x8 PUSH1 0x20 MSTORE DUP3 PUSH0 MSTORE PUSH1 0x40 PUSH0 KECCAK256 PUSH1 0x20 MSTORE DUP2 PUSH0 MSTORE PUSH1 0x40 PUSH0 KECCAK256 PUSH1 0x20 MSTORE DUP1 PUSH0 MSTORE PUSH1 0x40 PUSH0 KECCAK256 PUSH0 SWAP3 POP SWAP3 POP POP POP DUP1 SLOAD PUSH2 0x197C SWAP1 PUSH2 0x4AAC JUMP JUMPDEST DUP1 PUSH1 0x1F ADD PUSH1 0x20 DUP1 SWAP2 DIV MUL PUSH1 0x20 ADD PUSH1 0x40 MLOAD SWAP1 DUP2 ADD PUSH1 0x40 MSTORE DUP1 SWAP3 SWAP2 SWAP1 DUP2 DUP2 MSTORE PUSH1 0x20 ADD DUP3 DUP1 SLOAD PUSH2 0x19A8 SWAP1 PUSH2 0x4AAC JUMP JUMPDEST DUP1 ISZERO PUSH2 0x19F3 JUMPI DUP1 PUSH1 0x1F LT PUSH2 0x19CA JUMPI PUSH2 0x100 DUP1 DUP4 SLOAD DIV MUL DUP4 MSTORE SWAP2 PUSH1 0x20 ADD SWAP2 PUSH2 0x19F3 JUMP JUMPDEST DUP3 ADD SWAP2 SWAP1 PUSH0 MSTORE PUSH1 0x20 PUSH0 KECCAK256 SWAP1 JUMPDEST DUP2 SLOAD DUP2 MSTORE SWAP1 PUSH1 0x1 ADD SWAP1 PUSH1 0x20 ADD DUP1 DUP4 GT PUSH2 0x19D6 JUMPI DUP3 SWAP1 SUB PUSH1 0x1F AND DUP3 ADD SWAP2 JUMPDEST POP POP POP POP POP DUP2 JUMP JUMPDEST PUSH2 0x1A0D PUSH2 0x1A06 PUSH2 0x2C90 JUMP JUMPDEST DUP4 DUP4 PUSH2 0x2C97 JUMP JUMPDEST POP POP JUMP JUMPDEST PUSH1 0x60 DUP1 PUSH0 PUSH1 0xA DUP1 SLOAD DUP1 PUSH1 0x20 MUL PUSH1 0x20 ADD PUSH1 0x40 MLOAD SWAP1 DUP2 ADD PUSH1 0x40 MSTORE DUP1 SWAP3 SWAP2 SWAP1 DUP2 DUP2 MSTORE PUSH1 0x20 ADD DUP3 DUP1 SLOAD DUP1 ISZERO PUSH2 0x1A92 JUMPI PUSH1 0x20 MUL DUP3 ADD SWAP2 SWAP1 PUSH0 MSTORE PUSH1 0x20 PUSH0 KECCAK256 SWAP1 PUSH0 SWAP1 JUMPDEST DUP3 DUP3 SWAP1 SLOAD SWAP1 PUSH2 0x100 EXP SWAP1 DIV PUSH8 0xFFFFFFFFFFFFFFFF AND PUSH8 0xFFFFFFFFFFFFFFFF AND DUP2 MSTORE PUSH1 0x20 ADD SWAP1 PUSH1 0x8 ADD SWAP1 PUSH1 0x20 DUP3 PUSH1 0x7 ADD DIV SWAP3 DUP4 ADD SWAP3 PUSH1 0x1 SUB DUP3 MUL SWAP2 POP DUP1 DUP5 GT PUSH2 0x1A4D JUMPI SWAP1 POP JUMPDEST POP POP POP POP POP SWAP1 POP PUSH0 DUP1 JUMPDEST DUP3 MLOAD DUP2 LT ISZERO PUSH2 0x1B66 JUMPI PUSH0 PUSH1 0x9 PUSH0 DUP10 DUP2 MSTORE PUSH1 0x20 ADD SWAP1 DUP2 MSTORE PUSH1 0x20 ADD PUSH0 KECCAK256 PUSH0 DUP9 PUSH20 0xFFFFFFFFFFFFFFFFFFFFFFFFFFFFFFFFFFFFFFFF AND PUSH20 0xFFFFFFFFFFFFFFFFFFFFFFFFFFFFFFFFFFFFFFFF AND DUP2 MSTORE PUSH1 0x20 ADD SWAP1 DUP2 MSTORE PUSH1 0x20 ADD PUSH0 KECCAK256 PUSH0 DUP6 DUP5 DUP2 MLOAD DUP2 LT PUSH2 0x1B06 JUMPI PUSH2 0x1B05 PUSH2 0x4ADC JUMP JUMPDEST JUMPDEST PUSH1 0x20 MUL PUSH1 0x20 ADD ADD MLOAD PUSH8 0xFFFFFFFFFFFFFFFF AND PUSH8 0xFFFFFFFFFFFFFFFF AND DUP2 MSTORE PUSH1 0x20 ADD SWAP1 DUP2 MSTORE PUSH1 0x20 ADD PUSH0 KECCAK256 PUSH0 ADD DUP1 SLOAD PUSH2 0x1B3C SWAP1 PUSH2 0x4AAC JUMP JUMPDEST SWAP1 POP GT ISZERO PUSH2 0x1B53 JUMPI DUP2 DUP1 PUSH2 0x1B4F SWAP1 PUSH2 0x4B96 JUMP JUMPDEST SWAP3 POP POP JUMPDEST DUP1 DUP1 PUSH2 0x1B5E SWAP1 PUSH2 0x4B96 JUMP JUMPDEST SWAP2 POP POP PUSH2 0x1A9C JUMP JUMPDEST POP PUSH0 DUP2 PUSH8 0xFFFFFFFFFFFFFFFF DUP2 GT ISZERO PUSH2 0x1B82 JUMPI PUSH2 0x1B81 PUSH2 0x3DFC JUMP JUMPDEST JUMPDEST PUSH1 0x40 MLOAD SWAP1 DUP1 DUP3 MSTORE DUP1 PUSH1 0x20 MUL PUSH1 0x20 ADD DUP3 ADD PUSH1 0x40 MSTORE DUP1 ISZERO PUSH2 0x1BB0 JUMPI DUP2 PUSH1 0x20 ADD PUSH1 0x20 DUP3 MUL DUP1 CALLDATASIZE DUP4 CALLDATACOPY DUP1 DUP3 ADD SWAP2 POP POP SWAP1 POP JUMPDEST POP SWAP1 POP PUSH0 DUP3 PUSH8 0xFFFFFFFFFFFFFFFF DUP2 GT ISZERO PUSH2 0x1BCE JUMPI PUSH2 0x1BCD PUSH2 0x3DFC JUMP JUMPDEST JUMPDEST PUSH1 0x40 MLOAD SWAP1 DUP1 DUP3 MSTORE DUP1 PUSH1 0x20 MUL PUSH1 0x20 ADD DUP3 ADD PUSH1 0x40 MSTORE DUP1 ISZERO PUSH2 0x1C07 JUMPI DUP2 PUSH1 0x20 ADD JUMPDEST PUSH2 0x1BF4 PUSH2 0x393C JUMP JUMPDEST DUP2 MSTORE PUSH1 0x20 ADD SWAP1 PUSH1 0x1 SWAP1 SUB SWAP1 DUP2 PUSH2 0x1BEC JUMPI SWAP1 POP JUMPDEST POP SWAP1 POP PUSH0 DUP1 JUMPDEST DUP6 MLOAD DUP2 LT ISZERO PUSH2 0x1F88 JUMPI PUSH0 PUSH1 0x9 PUSH0 DUP13 DUP2 MSTORE PUSH1 0x20 ADD SWAP1 DUP2 MSTORE PUSH1 0x20 ADD PUSH0 KECCAK256 PUSH0 DUP12 PUSH20 0xFFFFFFFFFFFFFFFFFFFFFFFFFFFFFFFFFFFFFFFF AND PUSH20 0xFFFFFFFFFFFFFFFFFFFFFFFFFFFFFFFFFFFFFFFF AND DUP2 MSTORE PUSH1 0x20 ADD SWAP1 DUP2 MSTORE PUSH1 0x20 ADD PUSH0 KECCAK256 PUSH0 DUP9 DUP5 DUP2 MLOAD DUP2 LT PUSH2 0x1C77 JUMPI PUSH2 0x1C76 PUSH2 0x4ADC JUMP JUMPDEST JUMPDEST PUSH1 0x20 MUL PUSH1 0x20 ADD ADD MLOAD PUSH8 0xFFFFFFFFFFFFFFFF AND PUSH8 0xFFFFFFFFFFFFFFFF AND DUP2 MSTORE PUSH1 0x20 ADD SWAP1 DUP2 MSTORE PUSH1 0x20 ADD PUSH0 KECCAK256 PUSH0 ADD DUP1 SLOAD PUSH2 0x1CAD SWAP1 PUSH2 0x4AAC JUMP JUMPDEST SWAP1 POP GT ISZERO PUSH2 0x1F75 JUMPI DUP6 DUP2 DUP2 MLOAD DUP2 LT PUSH2 0x1CC8 JUMPI PUSH2 0x1CC7 PUSH2 0x4ADC JUMP JUMPDEST JUMPDEST PUSH1 0x20 MUL PUSH1 0x20 ADD ADD MLOAD DUP5 DUP4 DUP2 MLOAD DUP2 LT PUSH2 0x1CE3 JUMPI PUSH2 0x1CE2 PUSH2 0x4ADC JUMP JUMPDEST JUMPDEST PUSH1 0x20 MUL PUSH1 0x20 ADD ADD SWAP1 PUSH8 0xFFFFFFFFFFFFFFFF AND SWAP1 DUP2 PUSH8 0xFFFFFFFFFFFFFFFF AND DUP2 MSTORE POP POP PUSH1 0x9 PUSH0 DUP12 DUP2 MSTORE PUSH1 0x20 ADD SWAP1 DUP2 MSTORE PUSH1 0x20 ADD PUSH0 KECCAK256 PUSH0 DUP11 PUSH20 0xFFFFFFFFFFFFFFFFFFFFFFFFFFFFFFFFFFFFFFFF AND PUSH20 0xFFFFFFFFFFFFFFFFFFFFFFFFFFFFFFFFFFFFFFFF AND DUP2 MSTORE PUSH1 0x20 ADD SWAP1 DUP2 MSTORE PUSH1 0x20 ADD PUSH0 KECCAK256 PUSH0 DUP8 DUP4 DUP2 MLOAD DUP2 LT PUSH2 0x1D65 JUMPI PUSH2 0x1D64 PUSH2 0x4ADC JUMP JUMPDEST JUMPDEST PUSH1 0x20 MUL PUSH1 0x20 ADD ADD MLOAD PUSH8 0xFFFFFFFFFFFFFFFF AND PUSH8 0xFFFFFFFFFFFFFFFF AND DUP2 MSTORE PUSH1 0x20 ADD SWAP1 DUP2 MSTORE PUSH1 0x20 ADD PUSH0 KECCAK256 PUSH1 0x40 MLOAD DUP1 PUSH1 0x60 ADD PUSH1 0x40 MSTORE SWAP1 DUP2 PUSH0 DUP3 ADD DUP1 SLOAD PUSH2 0x1DA8 SWAP1 PUSH2 0x4AAC JUMP JUMPDEST DUP1 PUSH1 0x1F ADD PUSH1 0x20 DUP1 SWAP2 DIV MUL PUSH1 0x20 ADD PUSH1 0x40 MLOAD SWAP1 DUP2 ADD PUSH1 0x40 MSTORE DUP1 SWAP3 SWAP2 SWAP1 DUP2 DUP2 MSTORE PUSH1 0x20 ADD DUP3 DUP1 SLOAD PUSH2 0x1DD4 SWAP1 PUSH2 0x4AAC JUMP JUMPDEST DUP1 ISZERO PUSH2 0x1E1F JUMPI DUP1 PUSH1 0x1F LT PUSH2 0x1DF6 JUMPI PUSH2 0x100 DUP1 DUP4 SLOAD DIV MUL DUP4 MSTORE SWAP2 PUSH1 0x20 ADD SWAP2 PUSH2 0x1E1F JUMP JUMPDEST DUP3 ADD SWAP2 SWAP1 PUSH0 MSTORE PUSH1 0x20 PUSH0 KECCAK256 SWAP1 JUMPDEST DUP2 SLOAD DUP2 MSTORE SWAP1 PUSH1 0x1 ADD SWAP1 PUSH1 0x20 ADD DUP1 DUP4 GT PUSH2 0x1E02 JUMPI DUP3 SWAP1 SUB PUSH1 0x1F AND DUP3 ADD SWAP2 JUMPDEST POP POP POP POP POP DUP2 MSTORE PUSH1 0x20 ADD PUSH1 0x1 DUP3 ADD DUP1 SLOAD PUSH2 0x1E38 SWAP1 PUSH2 0x4AAC JUMP JUMPDEST DUP1 PUSH1 0x1F ADD PUSH1 0x20 DUP1 SWAP2 DIV MUL PUSH1 0x20 ADD PUSH1 0x40 MLOAD SWAP1 DUP2 ADD PUSH1 0x40 MSTORE DUP1 SWAP3 SWAP2 SWAP1 DUP2 DUP2 MSTORE PUSH1 0x20 ADD DUP3 DUP1 SLOAD PUSH2 0x1E64 SWAP1 PUSH2 0x4AAC JUMP JUMPDEST DUP1 ISZERO PUSH2 0x1EAF JUMPI DUP1 PUSH1 0x1F LT PUSH2 0x1E86 JUMPI PUSH2 0x100 DUP1 DUP4 SLOAD DIV MUL DUP4 MSTORE SWAP2 PUSH1 0x20 ADD SWAP2 PUSH2 0x1EAF JUMP JUMPDEST DUP3 ADD SWAP2 SWAP1 PUSH0 MSTORE PUSH1 0x20 PUSH0 KECCAK256 SWAP1 JUMPDEST DUP2 SLOAD DUP2 MSTORE SWAP1 PUSH1 0x1 ADD SWAP1 PUSH1 0x20 ADD DUP1 DUP4 GT PUSH2 0x1E92 JUMPI DUP3 SWAP1 SUB PUSH1 0x1F AND DUP3 ADD SWAP2 JUMPDEST POP POP POP POP POP DUP2 MSTORE PUSH1 0x20 ADD PUSH1 0x2 DUP3 ADD DUP1 SLOAD PUSH2 0x1EC8 SWAP1 PUSH2 0x4AAC JUMP JUMPDEST DUP1 PUSH1 0x1F ADD PUSH1 0x20 DUP1 SWAP2 DIV MUL PUSH1 0x20 ADD PUSH1 0x40 MLOAD SWAP1 DUP2 ADD PUSH1 0x40 MSTORE DUP1 SWAP3 SWAP2 SWAP1 DUP2 DUP2 MSTORE PUSH1 0x20 ADD DUP3 DUP1 SLOAD PUSH2 0x1EF4 SWAP1 PUSH2 0x4AAC JUMP JUMPDEST DUP1 ISZERO PUSH2 0x1F3F JUMPI DUP1 PUSH1 0x1F LT PUSH2 0x1F16 JUMPI PUSH2 0x100 DUP1 DUP4 SLOAD DIV MUL DUP4 MSTORE SWAP2 PUSH1 0x20 ADD SWAP2 PUSH2 0x1F3F JUMP JUMPDEST DUP3 ADD SWAP2 SWAP1 PUSH0 MSTORE PUSH1 0x20 PUSH0 KECCAK256 SWAP1 JUMPDEST DUP2 SLOAD DUP2 MSTORE SWAP1 PUSH1 0x1 ADD SWAP1 PUSH1 0x20 ADD DUP1 DUP4 GT PUSH2 0x1F22 JUMPI DUP3 SWAP1 SUB PUSH1 0x1F AND DUP3 ADD SWAP2 JUMPDEST POP POP POP POP POP DUP2 MSTORE POP POP DUP4 DUP4 DUP2 MLOAD DUP2 LT PUSH2 0x1F5B JUMPI PUSH2 0x1F5A PUSH2 0x4ADC JUMP JUMPDEST JUMPDEST PUSH1 0x20 MUL PUSH1 0x20 ADD ADD DUP2 SWAP1 MSTORE POP DUP2 DUP1 PUSH2 0x1F71 SWAP1 PUSH2 0x4B96 JUMP JUMPDEST SWAP3 POP POP JUMPDEST DUP1 DUP1 PUSH2 0x1F80 SWAP1 PUSH2 0x4B96 JUMP JUMPDEST SWAP2 POP POP PUSH2 0x1C0D JUMP JUMPDEST POP DUP3 DUP3 SWAP7 POP SWAP7 POP POP POP POP POP POP SWAP3 POP SWAP3 SWAP1 POP JUMP JUMPDEST PUSH1 0xA DUP2 DUP2 SLOAD DUP2 LT PUSH2 0x1FAA JUMPI PUSH0 DUP1 REVERT JUMPDEST SWAP1 PUSH0 MSTORE PUSH1 0x20 PUSH0 KECCAK256 SWAP1 PUSH1 0x4 SWAP2 DUP3 DUP3 DIV ADD SWAP2 SWAP1 MOD PUSH1 0x8 MUL SWAP2 POP SLOAD SWAP1 PUSH2 0x100 EXP SWAP1 DIV PUSH8 0xFFFFFFFFFFFFFFFF AND DUP2 JUMP JUMPDEST PUSH1 0x7 PUSH1 0x20 MSTORE DUP1 PUSH0 MSTORE PUSH1 0x40 PUSH0 KECCAK256 PUSH0 SWAP2 POP SWAP1 POP DUP1 SLOAD PUSH2 0x1FF2 SWAP1 PUSH2 0x4AAC JUMP JUMPDEST DUP1 PUSH1 0x1F ADD PUSH1 0x20 DUP1 SWAP2 DIV MUL PUSH1 0x20 ADD PUSH1 0x40 MLOAD SWAP1 DUP2 ADD PUSH1 0x40 MSTORE DUP1 SWAP3 SWAP2 SWAP1 DUP2 DUP2 MSTORE PUSH1 0x20 ADD DUP3 DUP1 SLOAD PUSH2 0x201E SWAP1 PUSH2 0x4AAC JUMP JUMPDEST DUP1 ISZERO PUSH2 0x2069 JUMPI DUP1 PUSH1 0x1F LT PUSH2 0x2040 JUMPI PUSH2 0x100 DUP1 DUP4 SLOAD DIV MUL DUP4 MSTORE SWAP2 PUSH1 0x20 ADD SWAP2 PUSH2 0x2069 JUMP JUMPDEST DUP3 ADD SWAP2 SWAP1 PUSH0 MSTORE PUSH1 0x20 PUSH0 KECCAK256 SWAP1 JUMPDEST DUP2 SLOAD DUP2 MSTORE SWAP1 PUSH1 0x1 ADD SWAP1 PUSH1 0x20 ADD DUP1 DUP4 GT PUSH2 0x204C JUMPI DUP3 SWAP1 SUB PUSH1 0x1F AND DUP3 ADD SWAP2 JUMPDEST POP POP POP POP POP DUP2 JUMP JUMPDEST PUSH0 PUSH1 0x1 PUSH0 DUP5 PUSH20 0xFFFFFFFFFFFFFFFFFFFFFFFFFFFFFFFFFFFFFFFF AND PUSH20 0xFFFFFFFFFFFFFFFFFFFFFFFFFFFFFFFFFFFFFFFF AND DUP2 MSTORE PUSH1 0x20 ADD SWAP1 DUP2 MSTORE PUSH1 0x20 ADD PUSH0 KECCAK256 PUSH0 DUP4 PUSH20 0xFFFFFFFFFFFFFFFFFFFFFFFFFFFFFFFFFFFFFFFF AND PUSH20 0xFFFFFFFFFFFFFFFFFFFFFFFFFFFFFFFFFFFFFFFF AND DUP2 MSTORE PUSH1 0x20 ADD SWAP1 DUP2 MSTORE PUSH1 0x20 ADD PUSH0 KECCAK256 PUSH0 SWAP1 SLOAD SWAP1 PUSH2 0x100 EXP SWAP1 DIV PUSH1 0xFF AND SWAP1 POP SWAP3 SWAP2 POP POP JUMP JUMPDEST PUSH2 0x210A DUP4 DUP7 DUP7 PUSH2 0x238C JUMP JUMPDEST PUSH2 0x2117 DUP6 DUP6 DUP6 DUP6 DUP6 PUSH2 0x2E00 JUMP JUMPDEST POP POP POP POP POP JUMP JUMPDEST PUSH2 0x2126 PUSH2 0x2223 JUMP JUMPDEST PUSH0 PUSH20 0xFFFFFFFFFFFFFFFFFFFFFFFFFFFFFFFFFFFFFFFF AND DUP2 PUSH20 0xFFFFFFFFFFFFFFFFFFFFFFFFFFFFFFFFFFFFFFFF AND SUB PUSH2 0x2196 JUMPI PUSH0 PUSH1 0x40 MLOAD PUSH32 0x1E4FBDF700000000000000000000000000000000000000000000000000000000 DUP2 MSTORE PUSH1 0x4 ADD PUSH2 0x218D SWAP2 SWAP1 PUSH2 0x462D JUMP JUMPDEST PUSH1 0x40 MLOAD DUP1 SWAP2 SUB SWAP1 REVERT JUMPDEST PUSH2 0x219F DUP2 PUSH2 0x28F2 JUMP JUMPDEST POP JUMP JUMPDEST PUSH2 0x21AA PUSH2 0x2223 JUMP JUMPDEST PUSH2 0x21B5 DUP4 DUP4 DUP4 PUSH2 0x2EA7 JUMP JUMPDEST POP POP POP JUMP JUMPDEST PUSH0 PUSH32 0x1FFC9A700000000000000000000000000000000000000000000000000000000 PUSH28 0xFFFFFFFFFFFFFFFFFFFFFFFFFFFFFFFFFFFFFFFFFFFFFFFFFFFFFFFF NOT AND DUP3 PUSH28 0xFFFFFFFFFFFFFFFFFFFFFFFFFFFFFFFFFFFFFFFFFFFFFFFFFFFFFFFF NOT AND EQ SWAP1 POP SWAP2 SWAP1 POP JUMP JUMPDEST PUSH2 0x222B PUSH2 0x2C90 JUMP JUMPDEST PUSH20 0xFFFFFFFFFFFFFFFFFFFFFFFFFFFFFFFFFFFFFFFF AND PUSH2 0x2249 PUSH2 0x1922 JUMP JUMPDEST PUSH20 0xFFFFFFFFFFFFFFFFFFFFFFFFFFFFFFFFFFFFFFFF AND EQ PUSH2 0x22A8 JUMPI PUSH2 0x226C PUSH2 0x2C90 JUMP JUMPDEST PUSH1 0x40 MLOAD PUSH32 0x118CDAA700000000000000000000000000000000000000000000000000000000 DUP2 MSTORE PUSH1 0x4 ADD PUSH2 0x229F SWAP2 SWAP1 PUSH2 0x462D JUMP JUMPDEST PUSH1 0x40 MLOAD DUP1 SWAP2 SUB SWAP1 REVERT JUMPDEST JUMP JUMPDEST PUSH1 0x60 PUSH0 PUSH2 0x22B8 DUP4 PUSH0 ADD PUSH2 0x2F49 JUMP JUMPDEST SWAP1 POP PUSH1 0x60 DUP2 SWAP1 POP DUP1 SWAP3 POP POP POP SWAP2 SWAP1 POP JUMP JUMPDEST PUSH0 PUSH20 0xFFFFFFFFFFFFFFFFFFFFFFFFFFFFFFFFFFFFFFFF AND DUP5 PUSH20 0xFFFFFFFFFFFFFFFFFFFFFFFFFFFFFFFFFFFFFFFF AND SUB PUSH2 0x2339 JUMPI PUSH0 PUSH1 0x40 MLOAD PUSH32 0x57F447CE00000000000000000000000000000000000000000000000000000000 DUP2 MSTORE PUSH1 0x4 ADD PUSH2 0x2330 SWAP2 SWAP1 PUSH2 0x462D JUMP JUMPDEST PUSH1 0x40 MLOAD DUP1 SWAP2 SUB SWAP1 REVERT JUMPDEST PUSH0 DUP1 PUSH2 0x2345 DUP6 DUP6 PUSH2 0x2FA2 JUMP JUMPDEST SWAP2 POP SWAP2 POP PUSH2 0x2356 PUSH0 DUP8 DUP5 DUP5 DUP8 PUSH2 0x2FD2 JUMP JUMPDEST POP POP POP POP POP POP JUMP JUMPDEST PUSH0 PUSH2 0x236D DUP4 PUSH0 ADD DUP4 PUSH0 SHL PUSH2 0x307E JUMP JUMPDEST SWAP1 POP SWAP3 SWAP2 POP POP JUMP JUMPDEST PUSH0 PUSH2 0x2384 DUP4 PUSH0 ADD DUP4 PUSH0 SHL PUSH2 0x309E JUMP JUMPDEST SWAP1 POP SWAP3 SWAP2 POP POP JUMP JUMPDEST PUSH0 PUSH1 0xA DUP1 SLOAD DUP1 PUSH1 0x20 MUL PUSH1 0x20 ADD PUSH1 0x40 MLOAD SWAP1 DUP2 ADD PUSH1 0x40 MSTORE DUP1 SWAP3 SWAP2 SWAP1 DUP2 DUP2 MSTORE PUSH1 0x20 ADD DUP3 DUP1 SLOAD DUP1 ISZERO PUSH2 0x240A JUMPI PUSH1 0x20 MUL DUP3 ADD SWAP2 SWAP1 PUSH0 MSTORE PUSH1 0x20 PUSH0 KECCAK256 SWAP1 PUSH0 SWAP1 JUMPDEST DUP3 DUP3 SWAP1 SLOAD SWAP1 PUSH2 0x100 EXP SWAP1 DIV PUSH8 0xFFFFFFFFFFFFFFFF AND PUSH8 0xFFFFFFFFFFFFFFFF AND DUP2 MSTORE PUSH1 0x20 ADD SWAP1 PUSH1 0x8 ADD SWAP1 PUSH1 0x20 DUP3 PUSH1 0x7 ADD DIV SWAP3 DUP4 ADD SWAP3 PUSH1 0x1 SUB DUP3 MUL SWAP2 POP DUP1 DUP5 GT PUSH2 0x23C5 JUMPI SWAP1 POP JUMPDEST POP POP POP POP POP SWAP1 POP PUSH0 JUMPDEST DUP2 MLOAD DUP2 LT ISZERO PUSH2 0x281D JUMPI PUSH0 PUSH1 0x8 PUSH0 DUP8 DUP2 MSTORE PUSH1 0x20 ADD SWAP1 DUP2 MSTORE PUSH1 0x20 ADD PUSH0 KECCAK256 PUSH0 DUP7 PUSH20 0xFFFFFFFFFFFFFFFFFFFFFFFFFFFFFFFFFFFFFFFF AND PUSH20 0xFFFFFFFFFFFFFFFFFFFFFFFFFFFFFFFFFFFFFFFF AND DUP2 MSTORE PUSH1 0x20 ADD SWAP1 DUP2 MSTORE PUSH1 0x20 ADD PUSH0 KECCAK256 PUSH0 DUP5 DUP5 DUP2 MLOAD DUP2 LT PUSH2 0x247D JUMPI PUSH2 0x247C PUSH2 0x4ADC JUMP JUMPDEST JUMPDEST PUSH1 0x20 MUL PUSH1 0x20 ADD ADD MLOAD PUSH8 0xFFFFFFFFFFFFFFFF AND PUSH8 0xFFFFFFFFFFFFFFFF AND DUP2 MSTORE PUSH1 0x20 ADD SWAP1 DUP2 MSTORE PUSH1 0x20 ADD PUSH0 KECCAK256 DUP1 SLOAD PUSH2 0x24B1 SWAP1 PUSH2 0x4AAC JUMP JUMPDEST DUP1 PUSH1 0x1F ADD PUSH1 0x20 DUP1 SWAP2 DIV MUL PUSH1 0x20 ADD PUSH1 0x40 MLOAD SWAP1 DUP2 ADD PUSH1 0x40 MSTORE DUP1 SWAP3 SWAP2 SWAP1 DUP2 DUP2 MSTORE PUSH1 0x20 ADD DUP3 DUP1 SLOAD PUSH2 0x24DD SWAP1 PUSH2 0x4AAC JUMP JUMPDEST DUP1 ISZERO PUSH2 0x2528 JUMPI DUP1 PUSH1 0x1F LT PUSH2 0x24FF JUMPI PUSH2 0x100 DUP1 DUP4 SLOAD DIV MUL DUP4 MSTORE SWAP2 PUSH1 0x20 ADD SWAP2 PUSH2 0x2528 JUMP JUMPDEST DUP3 ADD SWAP2 SWAP1 PUSH0 MSTORE PUSH1 0x20 PUSH0 KECCAK256 SWAP1 JUMPDEST DUP2 SLOAD DUP2 MSTORE SWAP1 PUSH1 0x1 ADD SWAP1 PUSH1 0x20 ADD DUP1 DUP4 GT PUSH2 0x250B JUMPI DUP3 SWAP1 SUB PUSH1 0x1F AND DUP3 ADD SWAP2 JUMPDEST POP POP POP POP POP SWAP1 POP PUSH0 DUP2 MLOAD SUB PUSH2 0x253D JUMPI POP PUSH2 0x280A JUMP JUMPDEST PUSH1 0x40 MLOAD DUP1 PUSH1 0x40 ADD PUSH1 0x40 MSTORE DUP1 PUSH1 0x6 DUP2 MSTORE PUSH1 0x20 ADD PUSH32 0x73656E6465720000000000000000000000000000000000000000000000000000 DUP2 MSTORE POP DUP1 MLOAD SWAP1 PUSH1 0x20 ADD KECCAK256 DUP2 DUP1 MLOAD SWAP1 PUSH1 0x20 ADD KECCAK256 SUB PUSH2 0x26A4 JUMPI PUSH1 0xB PUSH0 SWAP1 SLOAD SWAP1 PUSH2 0x100 EXP SWAP1 DIV PUSH20 0xFFFFFFFFFFFFFFFFFFFFFFFFFFFFFFFFFFFFFFFF AND PUSH20 0xFFFFFFFFFFFFFFFFFFFFFFFFFFFFFFFFFFFFFFFF AND PUSH4 0x8C1DA2C9 DUP7 DUP6 DUP6 DUP2 MLOAD DUP2 LT PUSH2 0x25D8 JUMPI PUSH2 0x25D7 PUSH2 0x4ADC JUMP JUMPDEST JUMPDEST PUSH1 0x20 MUL PUSH1 0x20 ADD ADD MLOAD PUSH1 0x40 MLOAD DUP4 PUSH4 0xFFFFFFFF AND PUSH1 0xE0 SHL DUP2 MSTORE PUSH1 0x4 ADD PUSH2 0x25FD SWAP3 SWAP2 SWAP1 PUSH2 0x5885 JUMP JUMPDEST PUSH0 PUSH1 0x40 MLOAD DUP1 DUP4 SUB DUP2 DUP7 GAS STATICCALL ISZERO DUP1 ISZERO PUSH2 0x2617 JUMPI RETURNDATASIZE PUSH0 DUP1 RETURNDATACOPY RETURNDATASIZE PUSH0 REVERT JUMPDEST POP POP POP POP PUSH1 0x40 MLOAD RETURNDATASIZE PUSH0 DUP3 RETURNDATACOPY RETURNDATASIZE PUSH1 0x1F NOT PUSH1 0x1F DUP3 ADD AND DUP3 ADD DUP1 PUSH1 0x40 MSTORE POP DUP2 ADD SWAP1 PUSH2 0x263F SWAP2 SWAP1 PUSH2 0x5A0B JUMP JUMPDEST PUSH0 ADD MLOAD PUSH2 0x269F JUMPI DUP3 DUP3 DUP2 MLOAD DUP2 LT PUSH2 0x2659 JUMPI PUSH2 0x2658 PUSH2 0x4ADC JUMP JUMPDEST JUMPDEST PUSH1 0x20 MUL PUSH1 0x20 ADD ADD MLOAD DUP6 PUSH1 0x40 MLOAD PUSH32 0xA5A4608E00000000000000000000000000000000000000000000000000000000 DUP2 MSTORE PUSH1 0x4 ADD PUSH2 0x2696 SWAP3 SWAP2 SWAP1 PUSH2 0x5A52 JUMP JUMPDEST PUSH1 0x40 MLOAD DUP1 SWAP2 SUB SWAP1 REVERT JUMPDEST PUSH2 0x2808 JUMP JUMPDEST PUSH1 0x40 MLOAD DUP1 PUSH1 0x40 ADD PUSH1 0x40 MSTORE DUP1 PUSH1 0x8 DUP2 MSTORE PUSH1 0x20 ADD PUSH32 0x7265636569766572000000000000000000000000000000000000000000000000 DUP2 MSTORE POP DUP1 MLOAD SWAP1 PUSH1 0x20 ADD KECCAK256 DUP2 DUP1 MLOAD SWAP1 PUSH1 0x20 ADD KECCAK256 SUB PUSH2 0x2807 JUMPI PUSH1 0xB PUSH0 SWAP1 SLOAD SWAP1 PUSH2 0x100 EXP SWAP1 DIV PUSH20 0xFFFFFFFFFFFFFFFFFFFFFFFFFFFFFFFFFFFFFFFF AND PUSH20 0xFFFFFFFFFFFFFFFFFFFFFFFFFFFFFFFFFFFFFFFF AND PUSH4 0x8C1DA2C9 DUP6 DUP6 DUP6 DUP2 MLOAD DUP2 LT PUSH2 0x273F JUMPI PUSH2 0x273E PUSH2 0x4ADC JUMP JUMPDEST JUMPDEST PUSH1 0x20 MUL PUSH1 0x20 ADD ADD MLOAD PUSH1 0x40 MLOAD DUP4 PUSH4 0xFFFFFFFF AND PUSH1 0xE0 SHL DUP2 MSTORE PUSH1 0x4 ADD PUSH2 0x2764 SWAP3 SWAP2 SWAP1 PUSH2 0x5885 JUMP JUMPDEST PUSH0 PUSH1 0x40 MLOAD DUP1 DUP4 SUB DUP2 DUP7 GAS STATICCALL ISZERO DUP1 ISZERO PUSH2 0x277E JUMPI RETURNDATASIZE PUSH0 DUP1 RETURNDATACOPY RETURNDATASIZE PUSH0 REVERT JUMPDEST POP POP POP POP PUSH1 0x40 MLOAD RETURNDATASIZE PUSH0 DUP3 RETURNDATACOPY RETURNDATASIZE PUSH1 0x1F NOT PUSH1 0x1F DUP3 ADD AND DUP3 ADD DUP1 PUSH1 0x40 MSTORE POP DUP2 ADD SWAP1 PUSH2 0x27A6 SWAP2 SWAP1 PUSH2 0x5A0B JUMP JUMPDEST PUSH0 ADD MLOAD PUSH2 0x2806 JUMPI DUP3 DUP3 DUP2 MLOAD DUP2 LT PUSH2 0x27C0 JUMPI PUSH2 0x27BF PUSH2 0x4ADC JUMP JUMPDEST JUMPDEST PUSH1 0x20 MUL PUSH1 0x20 ADD ADD MLOAD DUP5 PUSH1 0x40 MLOAD PUSH32 0xA5A4608E00000000000000000000000000000000000000000000000000000000 DUP2 MSTORE PUSH1 0x4 ADD PUSH2 0x27FD SWAP3 SWAP2 SWAP1 PUSH2 0x5A52 JUMP JUMPDEST PUSH1 0x40 MLOAD DUP1 SWAP2 SUB SWAP1 REVERT JUMPDEST JUMPDEST JUMPDEST POP JUMPDEST DUP1 DUP1 PUSH2 0x2815 SWAP1 PUSH2 0x4B96 JUMP JUMPDEST SWAP2 POP POP PUSH2 0x2413 JUMP JUMPDEST POP POP POP POP POP JUMP JUMPDEST PUSH0 PUSH1 0x20 DUP3 MUL PUSH1 0x20 DUP5 ADD ADD MLOAD SWAP1 POP SWAP3 SWAP2 POP POP JUMP JUMPDEST PUSH0 PUSH1 0x20 DUP3 MUL PUSH1 0x20 DUP5 ADD ADD MLOAD SWAP1 POP SWAP3 SWAP2 POP POP JUMP JUMPDEST PUSH0 DUP1 PUSH0 SWAP1 POP JUMPDEST PUSH1 0x4 DUP1 SLOAD SWAP1 POP DUP2 LT ISZERO PUSH2 0x28E8 JUMPI DUP3 PUSH20 0xFFFFFFFFFFFFFFFFFFFFFFFFFFFFFFFFFFFFFFFF AND PUSH1 0x4 DUP3 DUP2 SLOAD DUP2 LT PUSH2 0x2888 JUMPI PUSH2 0x2887 PUSH2 0x4ADC JUMP JUMPDEST JUMPDEST SWAP1 PUSH0 MSTORE PUSH1 0x20 PUSH0 KECCAK256 ADD PUSH0 SWAP1 SLOAD SWAP1 PUSH2 0x100 EXP SWAP1 DIV PUSH20 0xFFFFFFFFFFFFFFFFFFFFFFFFFFFFFFFFFFFFFFFF AND PUSH20 0xFFFFFFFFFFFFFFFFFFFFFFFFFFFFFFFFFFFFFFFF AND SUB PUSH2 0x28D5 JUMPI PUSH1 0x1 SWAP2 POP POP PUSH2 0x28ED JUMP JUMPDEST DUP1 DUP1 PUSH2 0x28E0 SWAP1 PUSH2 0x4B96 JUMP JUMPDEST SWAP2 POP POP PUSH2 0x2850 JUMP JUMPDEST POP PUSH0 SWAP1 POP JUMPDEST SWAP2 SWAP1 POP JUMP JUMPDEST PUSH0 PUSH1 0x3 PUSH0 SWAP1 SLOAD SWAP1 PUSH2 0x100 EXP SWAP1 DIV PUSH20 0xFFFFFFFFFFFFFFFFFFFFFFFFFFFFFFFFFFFFFFFF AND SWAP1 POP DUP2 PUSH1 0x3 PUSH0 PUSH2 0x100 EXP DUP2 SLOAD DUP2 PUSH20 0xFFFFFFFFFFFFFFFFFFFFFFFFFFFFFFFFFFFFFFFF MUL NOT AND SWAP1 DUP4 PUSH20 0xFFFFFFFFFFFFFFFFFFFFFFFFFFFFFFFFFFFFFFFF AND MUL OR SWAP1 SSTORE POP DUP2 PUSH20 0xFFFFFFFFFFFFFFFFFFFFFFFFFFFFFFFFFFFFFFFF AND DUP2 PUSH20 0xFFFFFFFFFFFFFFFFFFFFFFFFFFFFFFFFFFFFFFFF AND PUSH32 0x8BE0079C531659141344CD1FD0A4F28419497F9722A3DAAFE3B4186F6B6457E0 PUSH1 0x40 MLOAD PUSH1 0x40 MLOAD DUP1 SWAP2 SUB SWAP1 LOG3 POP POP JUMP JUMPDEST PUSH2 0x29C9 DUP5 PUSH1 0x5 PUSH2 0x235E SWAP1 SWAP2 SWAP1 PUSH4 0xFFFFFFFF AND JUMP JUMPDEST PUSH2 0x2A08 JUMPI PUSH1 0x40 MLOAD PUSH32 0x8C379A000000000000000000000000000000000000000000000000000000000 DUP2 MSTORE PUSH1 0x4 ADD PUSH2 0x29FF SWAP1 PUSH2 0x5408 JUMP JUMPDEST PUSH1 0x40 MLOAD DUP1 SWAP2 SUB SWAP1 REVERT JUMPDEST PUSH0 PUSH1 0x8 PUSH0 DUP7 DUP2 MSTORE PUSH1 0x20 ADD SWAP1 DUP2 MSTORE PUSH1 0x20 ADD PUSH0 KECCAK256 PUSH0 CALLER PUSH20 0xFFFFFFFFFFFFFFFFFFFFFFFFFFFFFFFFFFFFFFFF AND PUSH20 0xFFFFFFFFFFFFFFFFFFFFFFFFFFFFFFFFFFFFFFFF AND DUP2 MSTORE PUSH1 0x20 ADD SWAP1 DUP2 MSTORE PUSH1 0x20 ADD PUSH0 KECCAK256 PUSH0 DUP6 PUSH8 0xFFFFFFFFFFFFFFFF AND PUSH8 0xFFFFFFFFFFFFFFFF AND DUP2 MSTORE PUSH1 0x20 ADD SWAP1 DUP2 MSTORE PUSH1 0x20 ADD PUSH0 KECCAK256 DUP1 SLOAD PUSH2 0x2A83 SWAP1 PUSH2 0x4AAC JUMP JUMPDEST SWAP1 POP EQ PUSH2 0x2AC5 JUMPI PUSH1 0x40 MLOAD PUSH32 0x8C379A000000000000000000000000000000000000000000000000000000000 DUP2 MSTORE PUSH1 0x4 ADD PUSH2 0x2ABC SWAP1 PUSH2 0x5AC3 JUMP JUMPDEST PUSH1 0x40 MLOAD DUP1 SWAP2 SUB SWAP1 REVERT JUMPDEST PUSH1 0x40 MLOAD DUP1 PUSH1 0x40 ADD PUSH1 0x40 MSTORE DUP1 PUSH1 0x6 DUP2 MSTORE PUSH1 0x20 ADD PUSH32 0x73656E6465720000000000000000000000000000000000000000000000000000 DUP2 MSTORE POP DUP1 MLOAD SWAP1 PUSH1 0x20 ADD KECCAK256 DUP3 DUP3 PUSH1 0x40 MLOAD PUSH2 0x2B12 SWAP3 SWAP2 SWAP1 PUSH2 0x4CDB JUMP JUMPDEST PUSH1 0x40 MLOAD DUP1 SWAP2 SUB SWAP1 KECCAK256 EQ DUP1 PUSH2 0x2B78 JUMPI POP PUSH1 0x40 MLOAD DUP1 PUSH1 0x40 ADD PUSH1 0x40 MSTORE DUP1 PUSH1 0x8 DUP2 MSTORE PUSH1 0x20 ADD PUSH32 0x7265636569766572000000000000000000000000000000000000000000000000 DUP2 MSTORE POP DUP1 MLOAD SWAP1 PUSH1 0x20 ADD KECCAK256 DUP3 DUP3 PUSH1 0x40 MLOAD PUSH2 0x2B6E SWAP3 SWAP2 SWAP1 PUSH2 0x4CDB JUMP JUMPDEST PUSH1 0x40 MLOAD DUP1 SWAP2 SUB SWAP1 KECCAK256 EQ JUMPDEST PUSH2 0x2BB7 JUMPI PUSH1 0x40 MLOAD PUSH32 0x8C379A000000000000000000000000000000000000000000000000000000000 DUP2 MSTORE PUSH1 0x4 ADD PUSH2 0x2BAE SWAP1 PUSH2 0x5B51 JUMP JUMPDEST PUSH1 0x40 MLOAD DUP1 SWAP2 SUB SWAP1 REVERT JUMPDEST DUP2 DUP2 PUSH1 0x8 PUSH0 DUP8 DUP2 MSTORE PUSH1 0x20 ADD SWAP1 DUP2 MSTORE PUSH1 0x20 ADD PUSH0 KECCAK256 PUSH0 CALLER PUSH20 0xFFFFFFFFFFFFFFFFFFFFFFFFFFFFFFFFFFFFFFFF AND PUSH20 0xFFFFFFFFFFFFFFFFFFFFFFFFFFFFFFFFFFFFFFFF AND DUP2 MSTORE PUSH1 0x20 ADD SWAP1 DUP2 MSTORE PUSH1 0x20 ADD PUSH0 KECCAK256 PUSH0 DUP7 PUSH8 0xFFFFFFFFFFFFFFFF AND PUSH8 0xFFFFFFFFFFFFFFFF AND DUP2 MSTORE PUSH1 0x20 ADD SWAP1 DUP2 MSTORE PUSH1 0x20 ADD PUSH0 KECCAK256 SWAP2 DUP3 PUSH2 0x2C35 SWAP3 SWAP2 SWAP1 PUSH2 0x51AE JUMP JUMPDEST POP PUSH1 0xA DUP4 SWAP1 DUP1 PUSH1 0x1 DUP2 SLOAD ADD DUP1 DUP3 SSTORE DUP1 SWAP2 POP POP PUSH1 0x1 SWAP1 SUB SWAP1 PUSH0 MSTORE PUSH1 0x20 PUSH0 KECCAK256 SWAP1 PUSH1 0x4 SWAP2 DUP3 DUP3 DIV ADD SWAP2 SWAP1 MOD PUSH1 0x8 MUL SWAP1 SWAP2 SWAP1 SWAP2 SWAP1 SWAP2 PUSH2 0x100 EXP DUP2 SLOAD DUP2 PUSH8 0xFFFFFFFFFFFFFFFF MUL NOT AND SWAP1 DUP4 PUSH8 0xFFFFFFFFFFFFFFFF AND MUL OR SWAP1 SSTORE POP POP POP POP POP JUMP JUMPDEST PUSH0 CALLER SWAP1 POP SWAP1 JUMP JUMPDEST PUSH0 PUSH20 0xFFFFFFFFFFFFFFFFFFFFFFFFFFFFFFFFFFFFFFFF AND DUP3 PUSH20 0xFFFFFFFFFFFFFFFFFFFFFFFFFFFFFFFFFFFFFFFF AND SUB PUSH2 0x2D07 JUMPI PUSH0 PUSH1 0x40 MLOAD PUSH32 0xCED3E10000000000000000000000000000000000000000000000000000000000 DUP2 MSTORE PUSH1 0x4 ADD PUSH2 0x2CFE SWAP2 SWAP1 PUSH2 0x462D JUMP JUMPDEST PUSH1 0x40 MLOAD DUP1 SWAP2 SUB SWAP1 REVERT JUMPDEST DUP1 PUSH1 0x1 PUSH0 DUP6 PUSH20 0xFFFFFFFFFFFFFFFFFFFFFFFFFFFFFFFFFFFFFFFF AND PUSH20 0xFFFFFFFFFFFFFFFFFFFFFFFFFFFFFFFFFFFFFFFF AND DUP2 MSTORE PUSH1 0x20 ADD SWAP1 DUP2 MSTORE PUSH1 0x20 ADD PUSH0 KECCAK256 PUSH0 DUP5 PUSH20 0xFFFFFFFFFFFFFFFFFFFFFFFFFFFFFFFFFFFFFFFF AND PUSH20 0xFFFFFFFFFFFFFFFFFFFFFFFFFFFFFFFFFFFFFFFF AND DUP2 MSTORE PUSH1 0x20 ADD SWAP1 DUP2 MSTORE PUSH1 0x20 ADD PUSH0 KECCAK256 PUSH0 PUSH2 0x100 EXP DUP2 SLOAD DUP2 PUSH1 0xFF MUL NOT AND SWAP1 DUP4 ISZERO ISZERO MUL OR SWAP1 SSTORE POP DUP2 PUSH20 0xFFFFFFFFFFFFFFFFFFFFFFFFFFFFFFFFFFFFFFFF AND DUP4 PUSH20 0xFFFFFFFFFFFFFFFFFFFFFFFFFFFFFFFFFFFFFFFF AND PUSH32 0x17307EAB39AB6107E8899845AD3D59BD9653F200F220920489CA2B5937696C31 DUP4 PUSH1 0x40 MLOAD PUSH2 0x2DF3 SWAP2 SWAP1 PUSH2 0x3B16 JUMP JUMPDEST PUSH1 0x40 MLOAD DUP1 SWAP2 SUB SWAP1 LOG3 POP POP POP JUMP JUMPDEST PUSH0 PUSH2 0x2E09 PUSH2 0x2C90 JUMP JUMPDEST SWAP1 POP DUP1 PUSH20 0xFFFFFFFFFFFFFFFFFFFFFFFFFFFFFFFFFFFFFFFF AND DUP7 PUSH20 0xFFFFFFFFFFFFFFFFFFFFFFFFFFFFFFFFFFFFFFFF AND EQ ISZERO DUP1 ISZERO PUSH2 0x2E4E JUMPI POP PUSH2 0x2E4C DUP7 DUP3 PUSH2 0x2071 JUMP JUMPDEST ISZERO JUMPDEST ISZERO PUSH2 0x2E92 JUMPI DUP1 DUP7 PUSH1 0x40 MLOAD PUSH32 0xE237D92200000000000000000000000000000000000000000000000000000000 DUP2 MSTORE PUSH1 0x4 ADD PUSH2 0x2E89 SWAP3 SWAP2 SWAP1 PUSH2 0x5B6F JUMP JUMPDEST PUSH1 0x40 MLOAD DUP1 SWAP2 SUB SWAP1 REVERT JUMPDEST PUSH2 0x2E9F DUP7 DUP7 DUP7 DUP7 DUP7 PUSH2 0x3105 JUMP JUMPDEST POP POP POP POP POP POP JUMP JUMPDEST PUSH0 PUSH20 0xFFFFFFFFFFFFFFFFFFFFFFFFFFFFFFFFFFFFFFFF AND DUP4 PUSH20 0xFFFFFFFFFFFFFFFFFFFFFFFFFFFFFFFFFFFFFFFF AND SUB PUSH2 0x2F17 JUMPI PUSH0 PUSH1 0x40 MLOAD PUSH32 0x1A8351400000000000000000000000000000000000000000000000000000000 DUP2 MSTORE PUSH1 0x4 ADD PUSH2 0x2F0E SWAP2 SWAP1 PUSH2 0x462D JUMP JUMPDEST PUSH1 0x40 MLOAD DUP1 SWAP2 SUB SWAP1 REVERT JUMPDEST PUSH0 DUP1 PUSH2 0x2F23 DUP5 DUP5 PUSH2 0x2FA2 JUMP JUMPDEST SWAP2 POP SWAP2 POP PUSH2 0x2F42 DUP6 PUSH0 DUP5 DUP5 PUSH1 0x40 MLOAD DUP1 PUSH1 0x20 ADD PUSH1 0x40 MSTORE DUP1 PUSH0 DUP2 MSTORE POP PUSH2 0x2FD2 JUMP JUMPDEST POP POP POP POP POP JUMP JUMPDEST PUSH1 0x60 DUP2 PUSH0 ADD DUP1 SLOAD DUP1 PUSH1 0x20 MUL PUSH1 0x20 ADD PUSH1 0x40 MLOAD SWAP1 DUP2 ADD PUSH1 0x40 MSTORE DUP1 SWAP3 SWAP2 SWAP1 DUP2 DUP2 MSTORE PUSH1 0x20 ADD DUP3 DUP1 SLOAD DUP1 ISZERO PUSH2 0x2F96 JUMPI PUSH1 0x20 MUL DUP3 ADD SWAP2 SWAP1 PUSH0 MSTORE PUSH1 0x20 PUSH0 KECCAK256 SWAP1 JUMPDEST DUP2 SLOAD DUP2 MSTORE PUSH1 0x20 ADD SWAP1 PUSH1 0x1 ADD SWAP1 DUP1 DUP4 GT PUSH2 0x2F82 JUMPI JUMPDEST POP POP POP POP POP SWAP1 POP SWAP2 SWAP1 POP JUMP JUMPDEST PUSH1 0x60 DUP1 PUSH1 0x40 MLOAD SWAP2 POP PUSH1 0x1 DUP3 MSTORE DUP4 PUSH1 0x20 DUP4 ADD MSTORE PUSH1 0x40 DUP3 ADD SWAP1 POP PUSH1 0x1 DUP2 MSTORE DUP3 PUSH1 0x20 DUP3 ADD MSTORE PUSH1 0x40 DUP2 ADD PUSH1 0x40 MSTORE SWAP3 POP SWAP3 SWAP1 POP JUMP JUMPDEST PUSH2 0x2FDE DUP6 DUP6 DUP6 DUP6 PUSH2 0x320B JUMP JUMPDEST PUSH0 PUSH20 0xFFFFFFFFFFFFFFFFFFFFFFFFFFFFFFFFFFFFFFFF AND DUP5 PUSH20 0xFFFFFFFFFFFFFFFFFFFFFFFFFFFFFFFFFFFFFFFF AND EQ PUSH2 0x3077 JUMPI PUSH0 PUSH2 0x301A PUSH2 0x2C90 JUMP JUMPDEST SWAP1 POP PUSH1 0x1 DUP5 MLOAD SUB PUSH2 0x3066 JUMPI PUSH0 PUSH2 0x3039 PUSH0 DUP7 PUSH2 0x2837 SWAP1 SWAP2 SWAP1 PUSH4 0xFFFFFFFF AND JUMP JUMPDEST SWAP1 POP PUSH0 PUSH2 0x304F PUSH0 DUP7 PUSH2 0x2837 SWAP1 SWAP2 SWAP1 PUSH4 0xFFFFFFFF AND JUMP JUMPDEST SWAP1 POP PUSH2 0x305F DUP4 DUP10 DUP10 DUP6 DUP6 DUP10 PUSH2 0x35A1 JUMP JUMPDEST POP POP PUSH2 0x3075 JUMP JUMPDEST PUSH2 0x3074 DUP2 DUP8 DUP8 DUP8 DUP8 DUP8 PUSH2 0x3750 JUMP JUMPDEST JUMPDEST POP JUMPDEST POP POP POP POP POP JUMP JUMPDEST PUSH0 DUP1 DUP4 PUSH1 0x1 ADD PUSH0 DUP5 DUP2 MSTORE PUSH1 0x20 ADD SWAP1 DUP2 MSTORE PUSH1 0x20 ADD PUSH0 KECCAK256 SLOAD EQ ISZERO SWAP1 POP SWAP3 SWAP2 POP POP JUMP JUMPDEST PUSH0 PUSH2 0x30A9 DUP4 DUP4 PUSH2 0x307E JUMP JUMPDEST PUSH2 0x30FB JUMPI DUP3 PUSH0 ADD DUP3 SWAP1 DUP1 PUSH1 0x1 DUP2 SLOAD ADD DUP1 DUP3 SSTORE DUP1 SWAP2 POP POP PUSH1 0x1 SWAP1 SUB SWAP1 PUSH0 MSTORE PUSH1 0x20 PUSH0 KECCAK256 ADD PUSH0 SWAP1 SWAP2 SWAP1 SWAP2 SWAP1 SWAP2 POP SSTORE DUP3 PUSH0 ADD DUP1 SLOAD SWAP1 POP DUP4 PUSH1 0x1 ADD PUSH0 DUP5 DUP2 MSTORE PUSH1 0x20 ADD SWAP1 DUP2 MSTORE PUSH1 0x20 ADD PUSH0 KECCAK256 DUP2 SWAP1 SSTORE POP PUSH1 0x1 SWAP1 POP PUSH2 0x30FF JUMP JUMPDEST PUSH0 SWAP1 POP JUMPDEST SWAP3 SWAP2 POP POP JUMP JUMPDEST PUSH0 PUSH20 0xFFFFFFFFFFFFFFFFFFFFFFFFFFFFFFFFFFFFFFFF AND DUP5 PUSH20 0xFFFFFFFFFFFFFFFFFFFFFFFFFFFFFFFFFFFFFFFF AND SUB PUSH2 0x3175 JUMPI PUSH0 PUSH1 0x40 MLOAD PUSH32 0x57F447CE00000000000000000000000000000000000000000000000000000000 DUP2 MSTORE PUSH1 0x4 ADD PUSH2 0x316C SWAP2 SWAP1 PUSH2 0x462D JUMP JUMPDEST PUSH1 0x40 MLOAD DUP1 SWAP2 SUB SWAP1 REVERT JUMPDEST PUSH0 PUSH20 0xFFFFFFFFFFFFFFFFFFFFFFFFFFFFFFFFFFFFFFFF AND DUP6 PUSH20 0xFFFFFFFFFFFFFFFFFFFFFFFFFFFFFFFFFFFFFFFF AND SUB PUSH2 0x31E5 JUMPI PUSH0 PUSH1 0x40 MLOAD PUSH32 0x1A8351400000000000000000000000000000000000000000000000000000000 DUP2 MSTORE PUSH1 0x4 ADD PUSH2 0x31DC SWAP2 SWAP1 PUSH2 0x462D JUMP JUMPDEST PUSH1 0x40 MLOAD DUP1 SWAP2 SUB SWAP1 REVERT JUMPDEST PUSH0 DUP1 PUSH2 0x31F1 DUP6 DUP6 PUSH2 0x2FA2 JUMP JUMPDEST SWAP2 POP SWAP2 POP PUSH2 0x3202 DUP8 DUP8 DUP5 DUP5 DUP8 PUSH2 0x2FD2 JUMP JUMPDEST POP POP POP POP POP POP POP JUMP JUMPDEST DUP1 MLOAD DUP3 MLOAD EQ PUSH2 0x3255 JUMPI DUP2 MLOAD DUP2 MLOAD PUSH1 0x40 MLOAD PUSH32 0x5B05999100000000000000000000000000000000000000000000000000000000 DUP2 MSTORE PUSH1 0x4 ADD PUSH2 0x324C SWAP3 SWAP2 SWAP1 PUSH2 0x5397 JUMP JUMPDEST PUSH1 0x40 MLOAD DUP1 SWAP2 SUB SWAP1 REVERT JUMPDEST PUSH0 PUSH2 0x325E PUSH2 0x2C90 JUMP JUMPDEST SWAP1 POP PUSH0 JUMPDEST DUP4 MLOAD DUP2 LT ISZERO PUSH2 0x3460 JUMPI PUSH0 PUSH2 0x327F DUP3 DUP7 PUSH2 0x2837 SWAP1 SWAP2 SWAP1 PUSH4 0xFFFFFFFF AND JUMP JUMPDEST SWAP1 POP PUSH0 PUSH2 0x3295 DUP4 DUP7 PUSH2 0x2837 SWAP1 SWAP2 SWAP1 PUSH4 0xFFFFFFFF AND JUMP JUMPDEST SWAP1 POP PUSH0 PUSH20 0xFFFFFFFFFFFFFFFFFFFFFFFFFFFFFFFFFFFFFFFF AND DUP9 PUSH20 0xFFFFFFFFFFFFFFFFFFFFFFFFFFFFFFFFFFFFFFFF AND EQ PUSH2 0x33B8 JUMPI PUSH0 DUP1 PUSH0 DUP5 DUP2 MSTORE PUSH1 0x20 ADD SWAP1 DUP2 MSTORE PUSH1 0x20 ADD PUSH0 KECCAK256 PUSH0 DUP11 PUSH20 0xFFFFFFFFFFFFFFFFFFFFFFFFFFFFFFFFFFFFFFFF AND PUSH20 0xFFFFFFFFFFFFFFFFFFFFFFFFFFFFFFFFFFFFFFFF AND DUP2 MSTORE PUSH1 0x20 ADD SWAP1 DUP2 MSTORE PUSH1 0x20 ADD PUSH0 KECCAK256 SLOAD SWAP1 POP DUP2 DUP2 LT ISZERO PUSH2 0x3364 JUMPI DUP9 DUP2 DUP4 DUP6 PUSH1 0x40 MLOAD PUSH32 0x3DEE4C500000000000000000000000000000000000000000000000000000000 DUP2 MSTORE PUSH1 0x4 ADD PUSH2 0x335B SWAP5 SWAP4 SWAP3 SWAP2 SWAP1 PUSH2 0x5B96 JUMP JUMPDEST PUSH1 0x40 MLOAD DUP1 SWAP2 SUB SWAP1 REVERT JUMPDEST DUP2 DUP2 SUB PUSH0 DUP1 DUP6 DUP2 MSTORE PUSH1 0x20 ADD SWAP1 DUP2 MSTORE PUSH1 0x20 ADD PUSH0 KECCAK256 PUSH0 DUP12 PUSH20 0xFFFFFFFFFFFFFFFFFFFFFFFFFFFFFFFFFFFFFFFF AND PUSH20 0xFFFFFFFFFFFFFFFFFFFFFFFFFFFFFFFFFFFFFFFF AND DUP2 MSTORE PUSH1 0x20 ADD SWAP1 DUP2 MSTORE PUSH1 0x20 ADD PUSH0 KECCAK256 DUP2 SWAP1 SSTORE POP POP JUMPDEST PUSH0 PUSH20 0xFFFFFFFFFFFFFFFFFFFFFFFFFFFFFFFFFFFFFFFF AND DUP8 PUSH20 0xFFFFFFFFFFFFFFFFFFFFFFFFFFFFFFFFFFFFFFFF AND EQ PUSH2 0x344D JUMPI DUP1 PUSH0 DUP1 DUP5 DUP2 MSTORE PUSH1 0x20 ADD SWAP1 DUP2 MSTORE PUSH1 0x20 ADD PUSH0 KECCAK256 PUSH0 DUP10 PUSH20 0xFFFFFFFFFFFFFFFFFFFFFFFFFFFFFFFFFFFFFFFF AND PUSH20 0xFFFFFFFFFFFFFFFFFFFFFFFFFFFFFFFFFFFFFFFF AND DUP2 MSTORE PUSH1 0x20 ADD SWAP1 DUP2 MSTORE PUSH1 0x20 ADD PUSH0 KECCAK256 PUSH0 DUP3 DUP3 SLOAD PUSH2 0x3445 SWAP2 SWAP1 PUSH2 0x4EE7 JUMP JUMPDEST SWAP3 POP POP DUP2 SWAP1 SSTORE POP JUMPDEST POP POP DUP1 PUSH2 0x3459 SWAP1 PUSH2 0x4B96 JUMP JUMPDEST SWAP1 POP PUSH2 0x3262 JUMP JUMPDEST POP PUSH1 0x1 DUP4 MLOAD SUB PUSH2 0x351B JUMPI PUSH0 PUSH2 0x347E PUSH0 DUP6 PUSH2 0x2837 SWAP1 SWAP2 SWAP1 PUSH4 0xFFFFFFFF AND JUMP JUMPDEST SWAP1 POP PUSH0 PUSH2 0x3494 PUSH0 DUP6 PUSH2 0x2837 SWAP1 SWAP2 SWAP1 PUSH4 0xFFFFFFFF AND JUMP JUMPDEST SWAP1 POP DUP6 PUSH20 0xFFFFFFFFFFFFFFFFFFFFFFFFFFFFFFFFFFFFFFFF AND DUP8 PUSH20 0xFFFFFFFFFFFFFFFFFFFFFFFFFFFFFFFFFFFFFFFF AND DUP5 PUSH20 0xFFFFFFFFFFFFFFFFFFFFFFFFFFFFFFFFFFFFFFFF AND PUSH32 0xC3D58168C5AE7397731D063D5BBF3D657854427343F4C083240F7AACAA2D0F62 DUP6 DUP6 PUSH1 0x40 MLOAD PUSH2 0x350C SWAP3 SWAP2 SWAP1 PUSH2 0x5397 JUMP JUMPDEST PUSH1 0x40 MLOAD DUP1 SWAP2 SUB SWAP1 LOG4 POP POP PUSH2 0x359A JUMP JUMPDEST DUP4 PUSH20 0xFFFFFFFFFFFFFFFFFFFFFFFFFFFFFFFFFFFFFFFF AND DUP6 PUSH20 0xFFFFFFFFFFFFFFFFFFFFFFFFFFFFFFFFFFFFFFFF AND DUP3 PUSH20 0xFFFFFFFFFFFFFFFFFFFFFFFFFFFFFFFFFFFFFFFF AND PUSH32 0x4A39DC06D4C0DBC64B70AF90FD698A233A518AA5D07E595D983B8C0526C8F7FB DUP7 DUP7 PUSH1 0x40 MLOAD PUSH2 0x3591 SWAP3 SWAP2 SWAP1 PUSH2 0x5BD9 JUMP JUMPDEST PUSH1 0x40 MLOAD DUP1 SWAP2 SUB SWAP1 LOG4 JUMPDEST POP POP POP POP POP JUMP JUMPDEST PUSH0 DUP5 PUSH20 0xFFFFFFFFFFFFFFFFFFFFFFFFFFFFFFFFFFFFFFFF AND EXTCODESIZE GT ISZERO PUSH2 0x3748 JUMPI DUP4 PUSH20 0xFFFFFFFFFFFFFFFFFFFFFFFFFFFFFFFFFFFFFFFF AND PUSH4 0xF23A6E61 DUP8 DUP8 DUP7 DUP7 DUP7 PUSH1 0x40 MLOAD DUP7 PUSH4 0xFFFFFFFF AND PUSH1 0xE0 SHL DUP2 MSTORE PUSH1 0x4 ADD PUSH2 0x3601 SWAP6 SWAP5 SWAP4 SWAP3 SWAP2 SWAP1 PUSH2 0x5C56 JUMP JUMPDEST PUSH1 0x20 PUSH1 0x40 MLOAD DUP1 DUP4 SUB DUP2 PUSH0 DUP8 GAS CALL SWAP3 POP POP POP DUP1 ISZERO PUSH2 0x363C JUMPI POP PUSH1 0x40 MLOAD RETURNDATASIZE PUSH1 0x1F NOT PUSH1 0x1F DUP3 ADD AND DUP3 ADD DUP1 PUSH1 0x40 MSTORE POP DUP2 ADD SWAP1 PUSH2 0x3639 SWAP2 SWAP1 PUSH2 0x5CC2 JUMP JUMPDEST PUSH1 0x1 JUMPDEST PUSH2 0x36BD JUMPI RETURNDATASIZE DUP1 PUSH0 DUP2 EQ PUSH2 0x366A JUMPI PUSH1 0x40 MLOAD SWAP2 POP PUSH1 0x1F NOT PUSH1 0x3F RETURNDATASIZE ADD AND DUP3 ADD PUSH1 0x40 MSTORE RETURNDATASIZE DUP3 MSTORE RETURNDATASIZE PUSH0 PUSH1 0x20 DUP5 ADD RETURNDATACOPY PUSH2 0x366F JUMP JUMPDEST PUSH1 0x60 SWAP2 POP JUMPDEST POP PUSH0 DUP2 MLOAD SUB PUSH2 0x36B5 JUMPI DUP5 PUSH1 0x40 MLOAD PUSH32 0x57F447CE00000000000000000000000000000000000000000000000000000000 DUP2 MSTORE PUSH1 0x4 ADD PUSH2 0x36AC SWAP2 SWAP1 PUSH2 0x462D JUMP JUMPDEST PUSH1 0x40 MLOAD DUP1 SWAP2 SUB SWAP1 REVERT JUMPDEST DUP1 MLOAD DUP2 PUSH1 0x20 ADD REVERT JUMPDEST PUSH4 0xF23A6E61 PUSH1 0xE0 SHL PUSH28 0xFFFFFFFFFFFFFFFFFFFFFFFFFFFFFFFFFFFFFFFFFFFFFFFFFFFFFFFF NOT AND DUP2 PUSH28 0xFFFFFFFFFFFFFFFFFFFFFFFFFFFFFFFFFFFFFFFFFFFFFFFFFFFFFFFF NOT AND EQ PUSH2 0x3746 JUMPI DUP5 PUSH1 0x40 MLOAD PUSH32 0x57F447CE00000000000000000000000000000000000000000000000000000000 DUP2 MSTORE PUSH1 0x4 ADD PUSH2 0x373D SWAP2 SWAP1 PUSH2 0x462D JUMP JUMPDEST PUSH1 0x40 MLOAD DUP1 SWAP2 SUB SWAP1 REVERT JUMPDEST POP JUMPDEST POP POP POP POP POP POP JUMP JUMPDEST PUSH0 DUP5 PUSH20 0xFFFFFFFFFFFFFFFFFFFFFFFFFFFFFFFFFFFFFFFF AND EXTCODESIZE GT ISZERO PUSH2 0x38F7 JUMPI DUP4 PUSH20 0xFFFFFFFFFFFFFFFFFFFFFFFFFFFFFFFFFFFFFFFF AND PUSH4 0xBC197C81 DUP8 DUP8 DUP7 DUP7 DUP7 PUSH1 0x40 MLOAD DUP7 PUSH4 0xFFFFFFFF AND PUSH1 0xE0 SHL DUP2 MSTORE PUSH1 0x4 ADD PUSH2 0x37B0 SWAP6 SWAP5 SWAP4 SWAP3 SWAP2 SWAP1 PUSH2 0x5CED JUMP JUMPDEST PUSH1 0x20 PUSH1 0x40 MLOAD DUP1 DUP4 SUB DUP2 PUSH0 DUP8 GAS CALL SWAP3 POP POP POP DUP1 ISZERO PUSH2 0x37EB JUMPI POP PUSH1 0x40 MLOAD RETURNDATASIZE PUSH1 0x1F NOT PUSH1 0x1F DUP3 ADD AND DUP3 ADD DUP1 PUSH1 0x40 MSTORE POP DUP2 ADD SWAP1 PUSH2 0x37E8 SWAP2 SWAP1 PUSH2 0x5CC2 JUMP JUMPDEST PUSH1 0x1 JUMPDEST PUSH2 0x386C JUMPI RETURNDATASIZE DUP1 PUSH0 DUP2 EQ PUSH2 0x3819 JUMPI PUSH1 0x40 MLOAD SWAP2 POP PUSH1 0x1F NOT PUSH1 0x3F RETURNDATASIZE ADD AND DUP3 ADD PUSH1 0x40 MSTORE RETURNDATASIZE DUP3 MSTORE RETURNDATASIZE PUSH0 PUSH1 0x20 DUP5 ADD RETURNDATACOPY PUSH2 0x381E JUMP JUMPDEST PUSH1 0x60 SWAP2 POP JUMPDEST POP PUSH0 DUP2 MLOAD SUB PUSH2 0x3864 JUMPI DUP5 PUSH1 0x40 MLOAD PUSH32 0x57F447CE00000000000000000000000000000000000000000000000000000000 DUP2 MSTORE PUSH1 0x4 ADD PUSH2 0x385B SWAP2 SWAP1 PUSH2 0x462D JUMP JUMPDEST PUSH1 0x40 MLOAD DUP1 SWAP2 SUB SWAP1 REVERT JUMPDEST DUP1 MLOAD DUP2 PUSH1 0x20 ADD REVERT JUMPDEST PUSH4 0xBC197C81 PUSH1 0xE0 SHL PUSH28 0xFFFFFFFFFFFFFFFFFFFFFFFFFFFFFFFFFFFFFFFFFFFFFFFFFFFFFFFF NOT AND DUP2 PUSH28 0xFFFFFFFFFFFFFFFFFFFFFFFFFFFFFFFFFFFFFFFFFFFFFFFFFFFFFFFF NOT AND EQ PUSH2 0x38F5 JUMPI DUP5 PUSH1 0x40 MLOAD PUSH32 0x57F447CE00000000000000000000000000000000000000000000000000000000 DUP2 MSTORE PUSH1 0x4 ADD PUSH2 0x38EC SWAP2 SWAP1 PUSH2 0x462D JUMP JUMPDEST PUSH1 0x40 MLOAD DUP1 SWAP2 SUB SWAP1 REVERT JUMPDEST POP JUMPDEST POP POP POP POP POP POP JUMP JUMPDEST POP DUP1 SLOAD PUSH2 0x390B SWAP1 PUSH2 0x4AAC JUMP JUMPDEST PUSH0 DUP3 SSTORE DUP1 PUSH1 0x1F LT PUSH2 0x391C JUMPI POP PUSH2 0x3939 JUMP JUMPDEST PUSH1 0x1F ADD PUSH1 0x20 SWAP1 DIV SWAP1 PUSH0 MSTORE PUSH1 0x20 PUSH0 KECCAK256 SWAP1 DUP2 ADD SWAP1 PUSH2 0x3938 SWAP2 SWAP1 PUSH2 0x395D JUMP JUMPDEST JUMPDEST POP JUMP JUMPDEST PUSH1 0x40 MLOAD DUP1 PUSH1 0x60 ADD PUSH1 0x40 MSTORE DUP1 PUSH1 0x60 DUP2 MSTORE PUSH1 0x20 ADD PUSH1 0x60 DUP2 MSTORE PUSH1 0x20 ADD PUSH1 0x60 DUP2 MSTORE POP SWAP1 JUMP JUMPDEST JUMPDEST DUP1 DUP3 GT ISZERO PUSH2 0x3974 JUMPI PUSH0 DUP2 PUSH0 SWAP1 SSTORE POP PUSH1 0x1 ADD PUSH2 0x395E JUMP JUMPDEST POP SWAP1 JUMP JUMPDEST PUSH0 PUSH1 0x40 MLOAD SWAP1 POP SWAP1 JUMP JUMPDEST PUSH0 DUP1 REVERT JUMPDEST PUSH0 DUP1 REVERT JUMPDEST PUSH0 PUSH20 0xFFFFFFFFFFFFFFFFFFFFFFFFFFFFFFFFFFFFFFFF DUP3 AND SWAP1 POP SWAP2 SWAP1 POP JUMP JUMPDEST PUSH0 PUSH2 0x39B2 DUP3 PUSH2 0x3989 JUMP JUMPDEST SWAP1 POP SWAP2 SWAP1 POP JUMP JUMPDEST PUSH2 0x39C2 DUP2 PUSH2 0x39A8 JUMP JUMPDEST DUP2 EQ PUSH2 0x39CC JUMPI PUSH0 DUP1 REVERT JUMPDEST POP JUMP JUMPDEST PUSH0 DUP2 CALLDATALOAD SWAP1 POP PUSH2 0x39DD DUP2 PUSH2 0x39B9 JUMP JUMPDEST SWAP3 SWAP2 POP POP JUMP JUMPDEST PUSH0 DUP2 SWAP1 POP SWAP2 SWAP1 POP JUMP JUMPDEST PUSH2 0x39F5 DUP2 PUSH2 0x39E3 JUMP JUMPDEST DUP2 EQ PUSH2 0x39FF JUMPI PUSH0 DUP1 REVERT JUMPDEST POP JUMP JUMPDEST PUSH0 DUP2 CALLDATALOAD SWAP1 POP PUSH2 0x3A10 DUP2 PUSH2 0x39EC JUMP JUMPDEST SWAP3 SWAP2 POP POP JUMP JUMPDEST PUSH0 DUP1 PUSH1 0x40 DUP4 DUP6 SUB SLT ISZERO PUSH2 0x3A2C JUMPI PUSH2 0x3A2B PUSH2 0x3981 JUMP JUMPDEST JUMPDEST PUSH0 PUSH2 0x3A39 DUP6 DUP3 DUP7 ADD PUSH2 0x39CF JUMP JUMPDEST SWAP3 POP POP PUSH1 0x20 PUSH2 0x3A4A DUP6 DUP3 DUP7 ADD PUSH2 0x3A02 JUMP JUMPDEST SWAP2 POP POP SWAP3 POP SWAP3 SWAP1 POP JUMP JUMPDEST PUSH2 0x3A5D DUP2 PUSH2 0x39E3 JUMP JUMPDEST DUP3 MSTORE POP POP JUMP JUMPDEST PUSH0 PUSH1 0x20 DUP3 ADD SWAP1 POP PUSH2 0x3A76 PUSH0 DUP4 ADD DUP5 PUSH2 0x3A54 JUMP JUMPDEST SWAP3 SWAP2 POP POP JUMP JUMPDEST PUSH0 PUSH32 0xFFFFFFFF00000000000000000000000000000000000000000000000000000000 DUP3 AND SWAP1 POP SWAP2 SWAP1 POP JUMP JUMPDEST PUSH2 0x3AB0 DUP2 PUSH2 0x3A7C JUMP JUMPDEST DUP2 EQ PUSH2 0x3ABA JUMPI PUSH0 DUP1 REVERT JUMPDEST POP JUMP JUMPDEST PUSH0 DUP2 CALLDATALOAD SWAP1 POP PUSH2 0x3ACB DUP2 PUSH2 0x3AA7 JUMP JUMPDEST SWAP3 SWAP2 POP POP JUMP JUMPDEST PUSH0 PUSH1 0x20 DUP3 DUP5 SUB SLT ISZERO PUSH2 0x3AE6 JUMPI PUSH2 0x3AE5 PUSH2 0x3981 JUMP JUMPDEST JUMPDEST PUSH0 PUSH2 0x3AF3 DUP5 DUP3 DUP6 ADD PUSH2 0x3ABD JUMP JUMPDEST SWAP2 POP POP SWAP3 SWAP2 POP POP JUMP JUMPDEST PUSH0 DUP2 ISZERO ISZERO SWAP1 POP SWAP2 SWAP1 POP JUMP JUMPDEST PUSH2 0x3B10 DUP2 PUSH2 0x3AFC JUMP JUMPDEST DUP3 MSTORE POP POP JUMP JUMPDEST PUSH0 PUSH1 0x20 DUP3 ADD SWAP1 POP PUSH2 0x3B29 PUSH0 DUP4 ADD DUP5 PUSH2 0x3B07 JUMP JUMPDEST SWAP3 SWAP2 POP POP JUMP JUMPDEST PUSH0 PUSH1 0x20 DUP3 DUP5 SUB SLT ISZERO PUSH2 0x3B44 JUMPI PUSH2 0x3B43 PUSH2 0x3981 JUMP JUMPDEST JUMPDEST PUSH0 PUSH2 0x3B51 DUP5 DUP3 DUP6 ADD PUSH2 0x3A02 JUMP JUMPDEST SWAP2 POP POP SWAP3 SWAP2 POP POP JUMP JUMPDEST PUSH0 DUP2 MLOAD SWAP1 POP SWAP2 SWAP1 POP JUMP JUMPDEST PUSH0 DUP3 DUP3 MSTORE PUSH1 0x20 DUP3 ADD SWAP1 POP SWAP3 SWAP2 POP POP JUMP JUMPDEST PUSH0 JUMPDEST DUP4 DUP2 LT ISZERO PUSH2 0x3B91 JUMPI DUP1 DUP3 ADD MLOAD DUP2 DUP5 ADD MSTORE PUSH1 0x20 DUP2 ADD SWAP1 POP PUSH2 0x3B76 JUMP JUMPDEST PUSH0 DUP5 DUP5 ADD MSTORE POP POP POP POP JUMP JUMPDEST PUSH0 PUSH1 0x1F NOT PUSH1 0x1F DUP4 ADD AND SWAP1 POP SWAP2 SWAP1 POP JUMP JUMPDEST PUSH0 PUSH2 0x3BB6 DUP3 PUSH2 0x3B5A JUMP JUMPDEST PUSH2 0x3BC0 DUP2 DUP6 PUSH2 0x3B64 JUMP JUMPDEST SWAP4 POP PUSH2 0x3BD0 DUP2 DUP6 PUSH1 0x20 DUP7 ADD PUSH2 0x3B74 JUMP JUMPDEST PUSH2 0x3BD9 DUP2 PUSH2 0x3B9C JUMP JUMPDEST DUP5 ADD SWAP2 POP POP SWAP3 SWAP2 POP POP JUMP JUMPDEST PUSH0 PUSH1 0x20 DUP3 ADD SWAP1 POP DUP2 DUP2 SUB PUSH0 DUP4 ADD MSTORE PUSH2 0x3BFC DUP2 DUP5 PUSH2 0x3BAC JUMP JUMPDEST SWAP1 POP SWAP3 SWAP2 POP POP JUMP JUMPDEST PUSH0 PUSH1 0x20 DUP3 DUP5 SUB SLT ISZERO PUSH2 0x3C19 JUMPI PUSH2 0x3C18 PUSH2 0x3981 JUMP JUMPDEST JUMPDEST PUSH0 PUSH2 0x3C26 DUP5 DUP3 DUP6 ADD PUSH2 0x39CF JUMP JUMPDEST SWAP2 POP POP SWAP3 SWAP2 POP POP JUMP JUMPDEST PUSH0 DUP2 SWAP1 POP SWAP2 SWAP1 POP JUMP JUMPDEST PUSH0 PUSH2 0x3C52 PUSH2 0x3C4D PUSH2 0x3C48 DUP5 PUSH2 0x3989 JUMP JUMPDEST PUSH2 0x3C2F JUMP JUMPDEST PUSH2 0x3989 JUMP JUMPDEST SWAP1 POP SWAP2 SWAP1 POP JUMP JUMPDEST PUSH0 PUSH2 0x3C63 DUP3 PUSH2 0x3C38 JUMP JUMPDEST SWAP1 POP SWAP2 SWAP1 POP JUMP JUMPDEST PUSH0 PUSH2 0x3C74 DUP3 PUSH2 0x3C59 JUMP JUMPDEST SWAP1 POP SWAP2 SWAP1 POP JUMP JUMPDEST PUSH2 0x3C84 DUP2 PUSH2 0x3C6A JUMP JUMPDEST DUP3 MSTORE POP POP JUMP JUMPDEST PUSH0 PUSH1 0x20 DUP3 ADD SWAP1 POP PUSH2 0x3C9D PUSH0 DUP4 ADD DUP5 PUSH2 0x3C7B JUMP JUMPDEST SWAP3 SWAP2 POP POP JUMP JUMPDEST PUSH0 DUP1 REVERT JUMPDEST PUSH0 DUP1 REVERT JUMPDEST PUSH0 DUP1 REVERT JUMPDEST PUSH0 DUP1 DUP4 PUSH1 0x1F DUP5 ADD SLT PUSH2 0x3CC4 JUMPI PUSH2 0x3CC3 PUSH2 0x3CA3 JUMP JUMPDEST JUMPDEST DUP3 CALLDATALOAD SWAP1 POP PUSH8 0xFFFFFFFFFFFFFFFF DUP2 GT ISZERO PUSH2 0x3CE1 JUMPI PUSH2 0x3CE0 PUSH2 0x3CA7 JUMP JUMPDEST JUMPDEST PUSH1 0x20 DUP4 ADD SWAP2 POP DUP4 PUSH1 0x1 DUP3 MUL DUP4 ADD GT ISZERO PUSH2 0x3CFD JUMPI PUSH2 0x3CFC PUSH2 0x3CAB JUMP JUMPDEST JUMPDEST SWAP3 POP SWAP3 SWAP1 POP JUMP JUMPDEST PUSH0 DUP1 DUP4 PUSH1 0x1F DUP5 ADD SLT PUSH2 0x3D19 JUMPI PUSH2 0x3D18 PUSH2 0x3CA3 JUMP JUMPDEST JUMPDEST DUP3 CALLDATALOAD SWAP1 POP PUSH8 0xFFFFFFFFFFFFFFFF DUP2 GT ISZERO PUSH2 0x3D36 JUMPI PUSH2 0x3D35 PUSH2 0x3CA7 JUMP JUMPDEST JUMPDEST PUSH1 0x20 DUP4 ADD SWAP2 POP DUP4 PUSH1 0x1 DUP3 MUL DUP4 ADD GT ISZERO PUSH2 0x3D52 JUMPI PUSH2 0x3D51 PUSH2 0x3CAB JUMP JUMPDEST JUMPDEST SWAP3 POP SWAP3 SWAP1 POP JUMP JUMPDEST PUSH0 DUP1 PUSH0 DUP1 PUSH0 DUP1 PUSH1 0x80 DUP8 DUP10 SUB SLT ISZERO PUSH2 0x3D73 JUMPI PUSH2 0x3D72 PUSH2 0x3981 JUMP JUMPDEST JUMPDEST PUSH0 PUSH2 0x3D80 DUP10 DUP3 DUP11 ADD PUSH2 0x39CF JUMP JUMPDEST SWAP7 POP POP PUSH1 0x20 PUSH2 0x3D91 DUP10 DUP3 DUP11 ADD PUSH2 0x3A02 JUMP JUMPDEST SWAP6 POP POP PUSH1 0x40 DUP8 ADD CALLDATALOAD PUSH8 0xFFFFFFFFFFFFFFFF DUP2 GT ISZERO PUSH2 0x3DB2 JUMPI PUSH2 0x3DB1 PUSH2 0x3985 JUMP JUMPDEST JUMPDEST PUSH2 0x3DBE DUP10 DUP3 DUP11 ADD PUSH2 0x3CAF JUMP JUMPDEST SWAP5 POP SWAP5 POP POP PUSH1 0x60 DUP8 ADD CALLDATALOAD PUSH8 0xFFFFFFFFFFFFFFFF DUP2 GT ISZERO PUSH2 0x3DE1 JUMPI PUSH2 0x3DE0 PUSH2 0x3985 JUMP JUMPDEST JUMPDEST PUSH2 0x3DED DUP10 DUP3 DUP11 ADD PUSH2 0x3D04 JUMP JUMPDEST SWAP3 POP SWAP3 POP POP SWAP3 SWAP6 POP SWAP3 SWAP6 POP SWAP3 SWAP6 JUMP JUMPDEST PUSH32 0x4E487B7100000000000000000000000000000000000000000000000000000000 PUSH0 MSTORE PUSH1 0x41 PUSH1 0x4 MSTORE PUSH1 0x24 PUSH0 REVERT JUMPDEST PUSH2 0x3E32 DUP3 PUSH2 0x3B9C JUMP JUMPDEST DUP2 ADD DUP2 DUP2 LT PUSH8 0xFFFFFFFFFFFFFFFF DUP3 GT OR ISZERO PUSH2 0x3E51 JUMPI PUSH2 0x3E50 PUSH2 0x3DFC JUMP JUMPDEST JUMPDEST DUP1 PUSH1 0x40 MSTORE POP POP POP JUMP JUMPDEST PUSH0 PUSH2 0x3E63 PUSH2 0x3978 JUMP JUMPDEST SWAP1 POP PUSH2 0x3E6F DUP3 DUP3 PUSH2 0x3E29 JUMP JUMPDEST SWAP2 SWAP1 POP JUMP JUMPDEST PUSH0 PUSH8 0xFFFFFFFFFFFFFFFF DUP3 GT ISZERO PUSH2 0x3E8E JUMPI PUSH2 0x3E8D PUSH2 0x3DFC JUMP JUMPDEST JUMPDEST PUSH1 0x20 DUP3 MUL SWAP1 POP PUSH1 0x20 DUP2 ADD SWAP1 POP SWAP2 SWAP1 POP JUMP JUMPDEST PUSH0 PUSH2 0x3EB1 PUSH2 0x3EAC DUP5 PUSH2 0x3E74 JUMP JUMPDEST PUSH2 0x3E5A JUMP JUMPDEST SWAP1 POP DUP1 DUP4 DUP3 MSTORE PUSH1 0x20 DUP3 ADD SWAP1 POP PUSH1 0x20 DUP5 MUL DUP4 ADD DUP6 DUP2 GT ISZERO PUSH2 0x3ED4 JUMPI PUSH2 0x3ED3 PUSH2 0x3CAB JUMP JUMPDEST JUMPDEST DUP4 JUMPDEST DUP2 DUP2 LT ISZERO PUSH2 0x3EFD JUMPI DUP1 PUSH2 0x3EE9 DUP9 DUP3 PUSH2 0x3A02 JUMP JUMPDEST DUP5 MSTORE PUSH1 0x20 DUP5 ADD SWAP4 POP POP PUSH1 0x20 DUP2 ADD SWAP1 POP PUSH2 0x3ED6 JUMP JUMPDEST POP POP POP SWAP4 SWAP3 POP POP POP JUMP JUMPDEST PUSH0 DUP3 PUSH1 0x1F DUP4 ADD SLT PUSH2 0x3F1B JUMPI PUSH2 0x3F1A PUSH2 0x3CA3 JUMP JUMPDEST JUMPDEST DUP2 CALLDATALOAD PUSH2 0x3F2B DUP5 DUP3 PUSH1 0x20 DUP7 ADD PUSH2 0x3E9F JUMP JUMPDEST SWAP2 POP POP SWAP3 SWAP2 POP POP JUMP JUMPDEST PUSH0 DUP1 REVERT JUMPDEST PUSH0 PUSH8 0xFFFFFFFFFFFFFFFF DUP3 GT ISZERO PUSH2 0x3F52 JUMPI PUSH2 0x3F51 PUSH2 0x3DFC JUMP JUMPDEST JUMPDEST PUSH2 0x3F5B DUP3 PUSH2 0x3B9C JUMP JUMPDEST SWAP1 POP PUSH1 0x20 DUP2 ADD SWAP1 POP SWAP2 SWAP1 POP JUMP JUMPDEST DUP3 DUP2 DUP4 CALLDATACOPY PUSH0 DUP4 DUP4 ADD MSTORE POP POP POP JUMP JUMPDEST PUSH0 PUSH2 0x3F88 PUSH2 0x3F83 DUP5 PUSH2 0x3F38 JUMP JUMPDEST PUSH2 0x3E5A JUMP JUMPDEST SWAP1 POP DUP3 DUP2 MSTORE PUSH1 0x20 DUP2 ADD DUP5 DUP5 DUP5 ADD GT ISZERO PUSH2 0x3FA4 JUMPI PUSH2 0x3FA3 PUSH2 0x3F34 JUMP JUMPDEST JUMPDEST PUSH2 0x3FAF DUP5 DUP3 DUP6 PUSH2 0x3F68 JUMP JUMPDEST POP SWAP4 SWAP3 POP POP POP JUMP JUMPDEST PUSH0 DUP3 PUSH1 0x1F DUP4 ADD SLT PUSH2 0x3FCB JUMPI PUSH2 0x3FCA PUSH2 0x3CA3 JUMP JUMPDEST JUMPDEST DUP2 CALLDATALOAD PUSH2 0x3FDB DUP5 DUP3 PUSH1 0x20 DUP7 ADD PUSH2 0x3F76 JUMP JUMPDEST SWAP2 POP POP SWAP3 SWAP2 POP POP JUMP JUMPDEST PUSH0 DUP1 PUSH0 DUP1 PUSH0 PUSH1 0xA0 DUP7 DUP9 SUB SLT ISZERO PUSH2 0x3FFD JUMPI PUSH2 0x3FFC PUSH2 0x3981 JUMP JUMPDEST JUMPDEST PUSH0 PUSH2 0x400A DUP9 DUP3 DUP10 ADD PUSH2 0x39CF JUMP JUMPDEST SWAP6 POP POP PUSH1 0x20 PUSH2 0x401B DUP9 DUP3 DUP10 ADD PUSH2 0x39CF JUMP JUMPDEST SWAP5 POP POP PUSH1 0x40 DUP7 ADD CALLDATALOAD PUSH8 0xFFFFFFFFFFFFFFFF DUP2 GT ISZERO PUSH2 0x403C JUMPI PUSH2 0x403B PUSH2 0x3985 JUMP JUMPDEST JUMPDEST PUSH2 0x4048 DUP9 DUP3 DUP10 ADD PUSH2 0x3F07 JUMP JUMPDEST SWAP4 POP POP PUSH1 0x60 DUP7 ADD CALLDATALOAD PUSH8 0xFFFFFFFFFFFFFFFF DUP2 GT ISZERO PUSH2 0x4069 JUMPI PUSH2 0x4068 PUSH2 0x3985 JUMP JUMPDEST JUMPDEST PUSH2 0x4075 DUP9 DUP3 DUP10 ADD PUSH2 0x3F07 JUMP JUMPDEST SWAP3 POP POP PUSH1 0x80 DUP7 ADD CALLDATALOAD PUSH8 0xFFFFFFFFFFFFFFFF DUP2 GT ISZERO PUSH2 0x4096 JUMPI PUSH2 0x4095 PUSH2 0x3985 JUMP JUMPDEST JUMPDEST PUSH2 0x40A2 DUP9 DUP3 DUP10 ADD PUSH2 0x3FB7 JUMP JUMPDEST SWAP2 POP POP SWAP3 SWAP6 POP SWAP3 SWAP6 SWAP1 SWAP4 POP JUMP JUMPDEST PUSH0 DUP2 MLOAD SWAP1 POP SWAP2 SWAP1 POP JUMP JUMPDEST PUSH0 DUP3 DUP3 MSTORE PUSH1 0x20 DUP3 ADD SWAP1 POP SWAP3 SWAP2 POP POP JUMP JUMPDEST PUSH0 DUP2 SWAP1 POP PUSH1 0x20 DUP3 ADD SWAP1 POP SWAP2 SWAP1 POP JUMP JUMPDEST PUSH2 0x40E1 DUP2 PUSH2 0x39A8 JUMP JUMPDEST DUP3 MSTORE POP POP JUMP JUMPDEST PUSH0 PUSH2 0x40F2 DUP4 DUP4 PUSH2 0x40D8 JUMP JUMPDEST PUSH1 0x20 DUP4 ADD SWAP1 POP SWAP3 SWAP2 POP POP JUMP JUMPDEST PUSH0 PUSH1 0x20 DUP3 ADD SWAP1 POP SWAP2 SWAP1 POP JUMP JUMPDEST PUSH0 PUSH2 0x4114 DUP3 PUSH2 0x40AF JUMP JUMPDEST PUSH2 0x411E DUP2 DUP6 PUSH2 0x40B9 JUMP JUMPDEST SWAP4 POP PUSH2 0x4129 DUP4 PUSH2 0x40C9 JUMP JUMPDEST DUP1 PUSH0 JUMPDEST DUP4 DUP2 LT ISZERO PUSH2 0x4159 JUMPI DUP2 MLOAD PUSH2 0x4140 DUP9 DUP3 PUSH2 0x40E7 JUMP JUMPDEST SWAP8 POP PUSH2 0x414B DUP4 PUSH2 0x40FE JUMP JUMPDEST SWAP3 POP POP PUSH1 0x1 DUP2 ADD SWAP1 POP PUSH2 0x412C JUMP JUMPDEST POP DUP6 SWAP4 POP POP POP POP SWAP3 SWAP2 POP POP JUMP JUMPDEST PUSH0 PUSH1 0x20 DUP3 ADD SWAP1 POP DUP2 DUP2 SUB PUSH0 DUP4 ADD MSTORE PUSH2 0x417E DUP2 DUP5 PUSH2 0x410A JUMP JUMPDEST SWAP1 POP SWAP3 SWAP2 POP POP JUMP JUMPDEST PUSH0 PUSH8 0xFFFFFFFFFFFFFFFF DUP3 GT ISZERO PUSH2 0x41A0 JUMPI PUSH2 0x419F PUSH2 0x3DFC JUMP JUMPDEST JUMPDEST PUSH1 0x20 DUP3 MUL SWAP1 POP PUSH1 0x20 DUP2 ADD SWAP1 POP SWAP2 SWAP1 POP JUMP JUMPDEST PUSH0 PUSH2 0x41C3 PUSH2 0x41BE DUP5 PUSH2 0x4186 JUMP JUMPDEST PUSH2 0x3E5A JUMP JUMPDEST SWAP1 POP DUP1 DUP4 DUP3 MSTORE PUSH1 0x20 DUP3 ADD SWAP1 POP PUSH1 0x20 DUP5 MUL DUP4 ADD DUP6 DUP2 GT ISZERO PUSH2 0x41E6 JUMPI PUSH2 0x41E5 PUSH2 0x3CAB JUMP JUMPDEST JUMPDEST DUP4 JUMPDEST DUP2 DUP2 LT ISZERO PUSH2 0x420F JUMPI DUP1 PUSH2 0x41FB DUP9 DUP3 PUSH2 0x39CF JUMP JUMPDEST DUP5 MSTORE PUSH1 0x20 DUP5 ADD SWAP4 POP POP PUSH1 0x20 DUP2 ADD SWAP1 POP PUSH2 0x41E8 JUMP JUMPDEST POP POP POP SWAP4 SWAP3 POP POP POP JUMP JUMPDEST PUSH0 DUP3 PUSH1 0x1F DUP4 ADD SLT PUSH2 0x422D JUMPI PUSH2 0x422C PUSH2 0x3CA3 JUMP JUMPDEST JUMPDEST DUP2 CALLDATALOAD PUSH2 0x423D DUP5 DUP3 PUSH1 0x20 DUP7 ADD PUSH2 0x41B1 JUMP JUMPDEST SWAP2 POP POP SWAP3 SWAP2 POP POP JUMP JUMPDEST PUSH0 DUP1 PUSH1 0x40 DUP4 DUP6 SUB SLT ISZERO PUSH2 0x425C JUMPI PUSH2 0x425B PUSH2 0x3981 JUMP JUMPDEST JUMPDEST PUSH0 DUP4 ADD CALLDATALOAD PUSH8 0xFFFFFFFFFFFFFFFF DUP2 GT ISZERO PUSH2 0x4279 JUMPI PUSH2 0x4278 PUSH2 0x3985 JUMP JUMPDEST JUMPDEST PUSH2 0x4285 DUP6 DUP3 DUP7 ADD PUSH2 0x4219 JUMP JUMPDEST SWAP3 POP POP PUSH1 0x20 DUP4 ADD CALLDATALOAD PUSH8 0xFFFFFFFFFFFFFFFF DUP2 GT ISZERO PUSH2 0x42A6 JUMPI PUSH2 0x42A5 PUSH2 0x3985 JUMP JUMPDEST JUMPDEST PUSH2 0x42B2 DUP6 DUP3 DUP7 ADD PUSH2 0x3F07 JUMP JUMPDEST SWAP2 POP POP SWAP3 POP SWAP3 SWAP1 POP JUMP JUMPDEST PUSH0 DUP2 MLOAD SWAP1 POP SWAP2 SWAP1 POP JUMP JUMPDEST PUSH0 DUP3 DUP3 MSTORE PUSH1 0x20 DUP3 ADD SWAP1 POP SWAP3 SWAP2 POP POP JUMP JUMPDEST PUSH0 DUP2 SWAP1 POP PUSH1 0x20 DUP3 ADD SWAP1 POP SWAP2 SWAP1 POP JUMP JUMPDEST PUSH2 0x42EE DUP2 PUSH2 0x39E3 JUMP JUMPDEST DUP3 MSTORE POP POP JUMP JUMPDEST PUSH0 PUSH2 0x42FF DUP4 DUP4 PUSH2 0x42E5 JUMP JUMPDEST PUSH1 0x20 DUP4 ADD SWAP1 POP SWAP3 SWAP2 POP POP JUMP JUMPDEST PUSH0 PUSH1 0x20 DUP3 ADD SWAP1 POP SWAP2 SWAP1 POP JUMP JUMPDEST PUSH0 PUSH2 0x4321 DUP3 PUSH2 0x42BC JUMP JUMPDEST PUSH2 0x432B DUP2 DUP6 PUSH2 0x42C6 JUMP JUMPDEST SWAP4 POP PUSH2 0x4336 DUP4 PUSH2 0x42D6 JUMP JUMPDEST DUP1 PUSH0 JUMPDEST DUP4 DUP2 LT ISZERO PUSH2 0x4366 JUMPI DUP2 MLOAD PUSH2 0x434D DUP9 DUP3 PUSH2 0x42F4 JUMP JUMPDEST SWAP8 POP PUSH2 0x4358 DUP4 PUSH2 0x430B JUMP JUMPDEST SWAP3 POP POP PUSH1 0x1 DUP2 ADD SWAP1 POP PUSH2 0x4339 JUMP JUMPDEST POP DUP6 SWAP4 POP POP POP POP SWAP3 SWAP2 POP POP JUMP JUMPDEST PUSH0 PUSH1 0x20 DUP3 ADD SWAP1 POP DUP2 DUP2 SUB PUSH0 DUP4 ADD MSTORE PUSH2 0x438B DUP2 DUP5 PUSH2 0x4317 JUMP JUMPDEST SWAP1 POP SWAP3 SWAP2 POP POP JUMP JUMPDEST PUSH0 PUSH8 0xFFFFFFFFFFFFFFFF DUP3 AND SWAP1 POP SWAP2 SWAP1 POP JUMP JUMPDEST PUSH2 0x43AF DUP2 PUSH2 0x4393 JUMP JUMPDEST DUP2 EQ PUSH2 0x43B9 JUMPI PUSH0 DUP1 REVERT JUMPDEST POP JUMP JUMPDEST PUSH0 DUP2 CALLDATALOAD SWAP1 POP PUSH2 0x43CA DUP2 PUSH2 0x43A6 JUMP JUMPDEST SWAP3 SWAP2 POP POP JUMP JUMPDEST PUSH0 DUP1 PUSH1 0x40 DUP4 DUP6 SUB SLT ISZERO PUSH2 0x43E6 JUMPI PUSH2 0x43E5 PUSH2 0x3981 JUMP JUMPDEST JUMPDEST PUSH0 PUSH2 0x43F3 DUP6 DUP3 DUP7 ADD PUSH2 0x3A02 JUMP JUMPDEST SWAP3 POP POP PUSH1 0x20 PUSH2 0x4404 DUP6 DUP3 DUP7 ADD PUSH2 0x43BC JUMP JUMPDEST SWAP2 POP POP SWAP3 POP SWAP3 SWAP1 POP JUMP JUMPDEST PUSH0 DUP1 PUSH0 PUSH1 0x60 DUP5 DUP7 SUB SLT ISZERO PUSH2 0x4425 JUMPI PUSH2 0x4424 PUSH2 0x3981 JUMP JUMPDEST JUMPDEST PUSH0 PUSH2 0x4432 DUP7 DUP3 DUP8 ADD PUSH2 0x3A02 JUMP JUMPDEST SWAP4 POP POP PUSH1 0x20 PUSH2 0x4443 DUP7 DUP3 DUP8 ADD PUSH2 0x39CF JUMP JUMPDEST SWAP3 POP POP PUSH1 0x40 PUSH2 0x4454 DUP7 DUP3 DUP8 ADD PUSH2 0x43BC JUMP JUMPDEST SWAP2 POP POP SWAP3 POP SWAP3 POP SWAP3 JUMP JUMPDEST PUSH0 PUSH1 0x60 DUP3 ADD SWAP1 POP DUP2 DUP2 SUB PUSH0 DUP4 ADD MSTORE PUSH2 0x4476 DUP2 DUP7 PUSH2 0x3BAC JUMP JUMPDEST SWAP1 POP DUP2 DUP2 SUB PUSH1 0x20 DUP4 ADD MSTORE PUSH2 0x448A DUP2 DUP6 PUSH2 0x3BAC JUMP JUMPDEST SWAP1 POP DUP2 DUP2 SUB PUSH1 0x40 DUP4 ADD MSTORE PUSH2 0x449E DUP2 DUP5 PUSH2 0x3BAC JUMP JUMPDEST SWAP1 POP SWAP5 SWAP4 POP POP POP POP JUMP JUMPDEST PUSH0 PUSH2 0x44B2 DUP3 PUSH2 0x39A8 JUMP JUMPDEST SWAP1 POP SWAP2 SWAP1 POP JUMP JUMPDEST PUSH2 0x44C2 DUP2 PUSH2 0x44A8 JUMP JUMPDEST DUP2 EQ PUSH2 0x44CC JUMPI PUSH0 DUP1 REVERT JUMPDEST POP JUMP JUMPDEST PUSH0 DUP2 CALLDATALOAD SWAP1 POP PUSH2 0x44DD DUP2 PUSH2 0x44B9 JUMP JUMPDEST SWAP3 SWAP2 POP POP JUMP JUMPDEST PUSH0 DUP1 REVERT JUMPDEST PUSH0 PUSH1 0x60 DUP3 DUP5 SUB SLT ISZERO PUSH2 0x44FC JUMPI PUSH2 0x44FB PUSH2 0x44E3 JUMP JUMPDEST JUMPDEST DUP2 SWAP1 POP SWAP3 SWAP2 POP POP JUMP JUMPDEST PUSH0 DUP1 PUSH0 DUP1 PUSH0 DUP1 PUSH0 DUP1 PUSH0 DUP1 PUSH1 0xE0 DUP12 DUP14 SUB SLT ISZERO PUSH2 0x4523 JUMPI PUSH2 0x4522 PUSH2 0x3981 JUMP JUMPDEST JUMPDEST PUSH0 PUSH2 0x4530 DUP14 DUP3 DUP15 ADD PUSH2 0x43BC JUMP JUMPDEST SWAP11 POP POP PUSH1 0x20 DUP12 ADD CALLDATALOAD PUSH8 0xFFFFFFFFFFFFFFFF DUP2 GT ISZERO PUSH2 0x4551 JUMPI PUSH2 0x4550 PUSH2 0x3985 JUMP JUMPDEST JUMPDEST PUSH2 0x455D DUP14 DUP3 DUP15 ADD PUSH2 0x3D04 JUMP JUMPDEST SWAP10 POP SWAP10 POP POP PUSH1 0x40 PUSH2 0x4570 DUP14 DUP3 DUP15 ADD PUSH2 0x44CF JUMP JUMPDEST SWAP8 POP POP PUSH1 0x60 DUP12 ADD CALLDATALOAD PUSH8 0xFFFFFFFFFFFFFFFF DUP2 GT ISZERO PUSH2 0x4591 JUMPI PUSH2 0x4590 PUSH2 0x3985 JUMP JUMPDEST JUMPDEST PUSH2 0x459D DUP14 DUP3 DUP15 ADD PUSH2 0x3CAF JUMP JUMPDEST SWAP7 POP SWAP7 POP POP PUSH1 0x80 PUSH2 0x45B0 DUP14 DUP3 DUP15 ADD PUSH2 0x3A02 JUMP JUMPDEST SWAP5 POP POP PUSH1 0xA0 DUP12 ADD CALLDATALOAD PUSH8 0xFFFFFFFFFFFFFFFF DUP2 GT ISZERO PUSH2 0x45D1 JUMPI PUSH2 0x45D0 PUSH2 0x3985 JUMP JUMPDEST JUMPDEST PUSH2 0x45DD DUP14 DUP3 DUP15 ADD PUSH2 0x3D04 JUMP JUMPDEST SWAP4 POP SWAP4 POP POP PUSH1 0xC0 DUP12 ADD CALLDATALOAD PUSH8 0xFFFFFFFFFFFFFFFF DUP2 GT ISZERO PUSH2 0x4600 JUMPI PUSH2 0x45FF PUSH2 0x3985 JUMP JUMPDEST JUMPDEST PUSH2 0x460C DUP14 DUP3 DUP15 ADD PUSH2 0x44E7 JUMP JUMPDEST SWAP2 POP POP SWAP3 SWAP6 SWAP9 SWAP12 SWAP2 SWAP5 SWAP8 SWAP11 POP SWAP3 SWAP6 SWAP9 POP JUMP JUMPDEST PUSH2 0x4627 DUP2 PUSH2 0x39A8 JUMP JUMPDEST DUP3 MSTORE POP POP JUMP JUMPDEST PUSH0 PUSH1 0x20 DUP3 ADD SWAP1 POP PUSH2 0x4640 PUSH0 DUP4 ADD DUP5 PUSH2 0x461E JUMP JUMPDEST SWAP3 SWAP2 POP POP JUMP JUMPDEST PUSH2 0x464F DUP2 PUSH2 0x3AFC JUMP JUMPDEST DUP2 EQ PUSH2 0x4659 JUMPI PUSH0 DUP1 REVERT JUMPDEST POP JUMP JUMPDEST PUSH0 DUP2 CALLDATALOAD SWAP1 POP PUSH2 0x466A DUP2 PUSH2 0x4646 JUMP JUMPDEST SWAP3 SWAP2 POP POP JUMP JUMPDEST PUSH0 DUP1 PUSH1 0x40 DUP4 DUP6 SUB SLT ISZERO PUSH2 0x4686 JUMPI PUSH2 0x4685 PUSH2 0x3981 JUMP JUMPDEST JUMPDEST PUSH0 PUSH2 0x4693 DUP6 DUP3 DUP7 ADD PUSH2 0x39CF JUMP JUMPDEST SWAP3 POP POP PUSH1 0x20 PUSH2 0x46A4 DUP6 DUP3 DUP7 ADD PUSH2 0x465C JUMP JUMPDEST SWAP2 POP POP SWAP3 POP SWAP3 SWAP1 POP JUMP JUMPDEST PUSH0 DUP1 PUSH1 0x40 DUP4 DUP6 SUB SLT ISZERO PUSH2 0x46C4 JUMPI PUSH2 0x46C3 PUSH2 0x3981 JUMP JUMPDEST JUMPDEST PUSH0 PUSH2 0x46D1 DUP6 DUP3 DUP7 ADD PUSH2 0x3A02 JUMP JUMPDEST SWAP3 POP POP PUSH1 0x20 PUSH2 0x46E2 DUP6 DUP3 DUP7 ADD PUSH2 0x39CF JUMP JUMPDEST SWAP2 POP POP SWAP3 POP SWAP3 SWAP1 POP JUMP JUMPDEST PUSH0 DUP2 MLOAD SWAP1 POP SWAP2 SWAP1 POP JUMP JUMPDEST PUSH0 DUP3 DUP3 MSTORE PUSH1 0x20 DUP3 ADD SWAP1 POP SWAP3 SWAP2 POP POP JUMP JUMPDEST PUSH0 DUP2 SWAP1 POP PUSH1 0x20 DUP3 ADD SWAP1 POP SWAP2 SWAP1 POP JUMP JUMPDEST PUSH2 0x471E DUP2 PUSH2 0x4393 JUMP JUMPDEST DUP3 MSTORE POP POP JUMP JUMPDEST PUSH0 PUSH2 0x472F DUP4 DUP4 PUSH2 0x4715 JUMP JUMPDEST PUSH1 0x20 DUP4 ADD SWAP1 POP SWAP3 SWAP2 POP POP JUMP JUMPDEST PUSH0 PUSH1 0x20 DUP3 ADD SWAP1 POP SWAP2 SWAP1 POP JUMP JUMPDEST PUSH0 PUSH2 0x4751 DUP3 PUSH2 0x46EC JUMP JUMPDEST PUSH2 0x475B DUP2 DUP6 PUSH2 0x46F6 JUMP JUMPDEST SWAP4 POP PUSH2 0x4766 DUP4 PUSH2 0x4706 JUMP JUMPDEST DUP1 PUSH0 JUMPDEST DUP4 DUP2 LT ISZERO PUSH2 0x4796 JUMPI DUP2 MLOAD PUSH2 0x477D DUP9 DUP3 PUSH2 0x4724 JUMP JUMPDEST SWAP8 POP PUSH2 0x4788 DUP4 PUSH2 0x473B JUMP JUMPDEST SWAP3 POP POP PUSH1 0x1 DUP2 ADD SWAP1 POP PUSH2 0x4769 JUMP JUMPDEST POP DUP6 SWAP4 POP POP POP POP SWAP3 SWAP2 POP POP JUMP JUMPDEST PUSH0 DUP2 MLOAD SWAP1 POP SWAP2 SWAP1 POP JUMP JUMPDEST PUSH0 DUP3 DUP3 MSTORE PUSH1 0x20 DUP3 ADD SWAP1 POP SWAP3 SWAP2 POP POP JUMP JUMPDEST PUSH0 DUP2 SWAP1 POP PUSH1 0x20 DUP3 ADD SWAP1 POP SWAP2 SWAP1 POP JUMP JUMPDEST PUSH0 DUP3 DUP3 MSTORE PUSH1 0x20 DUP3 ADD SWAP1 POP SWAP3 SWAP2 POP POP JUMP JUMPDEST PUSH0 PUSH2 0x47E6 DUP3 PUSH2 0x3B5A JUMP JUMPDEST PUSH2 0x47F0 DUP2 DUP6 PUSH2 0x47CC JUMP JUMPDEST SWAP4 POP PUSH2 0x4800 DUP2 DUP6 PUSH1 0x20 DUP7 ADD PUSH2 0x3B74 JUMP JUMPDEST PUSH2 0x4809 DUP2 PUSH2 0x3B9C JUMP JUMPDEST DUP5 ADD SWAP2 POP POP SWAP3 SWAP2 POP POP JUMP JUMPDEST PUSH0 PUSH1 0x60 DUP4 ADD PUSH0 DUP4 ADD MLOAD DUP5 DUP3 SUB PUSH0 DUP7 ADD MSTORE PUSH2 0x482E DUP3 DUP3 PUSH2 0x47DC JUMP JUMPDEST SWAP2 POP POP PUSH1 0x20 DUP4 ADD MLOAD DUP5 DUP3 SUB PUSH1 0x20 DUP7 ADD MSTORE PUSH2 0x4848 DUP3 DUP3 PUSH2 0x47DC JUMP JUMPDEST SWAP2 POP POP PUSH1 0x40 DUP4 ADD MLOAD DUP5 DUP3 SUB PUSH1 0x40 DUP7 ADD MSTORE PUSH2 0x4862 DUP3 DUP3 PUSH2 0x47DC JUMP JUMPDEST SWAP2 POP POP DUP1 SWAP2 POP POP SWAP3 SWAP2 POP POP JUMP JUMPDEST PUSH0 PUSH2 0x487A DUP4 DUP4 PUSH2 0x4814 JUMP JUMPDEST SWAP1 POP SWAP3 SWAP2 POP POP JUMP JUMPDEST PUSH0 PUSH1 0x20 DUP3 ADD SWAP1 POP SWAP2 SWAP1 POP JUMP JUMPDEST PUSH0 PUSH2 0x4898 DUP3 PUSH2 0x47A3 JUMP JUMPDEST PUSH2 0x48A2 DUP2 DUP6 PUSH2 0x47AD JUMP JUMPDEST SWAP4 POP DUP4 PUSH1 0x20 DUP3 MUL DUP6 ADD PUSH2 0x48B4 DUP6 PUSH2 0x47BD JUMP JUMPDEST DUP1 PUSH0 JUMPDEST DUP6 DUP2 LT ISZERO PUSH2 0x48EF JUMPI DUP5 DUP5 SUB DUP10 MSTORE DUP2 MLOAD PUSH2 0x48D0 DUP6 DUP3 PUSH2 0x486F JUMP JUMPDEST SWAP5 POP PUSH2 0x48DB DUP4 PUSH2 0x4882 JUMP JUMPDEST SWAP3 POP PUSH1 0x20 DUP11 ADD SWAP10 POP POP PUSH1 0x1 DUP2 ADD SWAP1 POP PUSH2 0x48B7 JUMP JUMPDEST POP DUP3 SWAP8 POP DUP8 SWAP6 POP POP POP POP POP POP SWAP3 SWAP2 POP POP JUMP JUMPDEST PUSH0 PUSH1 0x40 DUP3 ADD SWAP1 POP DUP2 DUP2 SUB PUSH0 DUP4 ADD MSTORE PUSH2 0x4919 DUP2 DUP6 PUSH2 0x4747 JUMP JUMPDEST SWAP1 POP DUP2 DUP2 SUB PUSH1 0x20 DUP4 ADD MSTORE PUSH2 0x492D DUP2 DUP5 PUSH2 0x488E JUMP JUMPDEST SWAP1 POP SWAP4 SWAP3 POP POP POP JUMP JUMPDEST PUSH2 0x493F DUP2 PUSH2 0x4393 JUMP JUMPDEST DUP3 MSTORE POP POP JUMP JUMPDEST PUSH0 PUSH1 0x20 DUP3 ADD SWAP1 POP PUSH2 0x4958 PUSH0 DUP4 ADD DUP5 PUSH2 0x4936 JUMP JUMPDEST SWAP3 SWAP2 POP POP JUMP JUMPDEST PUSH0 DUP1 PUSH1 0x40 DUP4 DUP6 SUB SLT ISZERO PUSH2 0x4974 JUMPI PUSH2 0x4973 PUSH2 0x3981 JUMP JUMPDEST JUMPDEST PUSH0 PUSH2 0x4981 DUP6 DUP3 DUP7 ADD PUSH2 0x39CF JUMP JUMPDEST SWAP3 POP POP PUSH1 0x20 PUSH2 0x4992 DUP6 DUP3 DUP7 ADD PUSH2 0x39CF JUMP JUMPDEST SWAP2 POP POP SWAP3 POP SWAP3 SWAP1 POP JUMP JUMPDEST PUSH0 DUP1 PUSH0 DUP1 PUSH0 PUSH1 0xA0 DUP7 DUP9 SUB SLT ISZERO PUSH2 0x49B5 JUMPI PUSH2 0x49B4 PUSH2 0x3981 JUMP JUMPDEST JUMPDEST PUSH0 PUSH2 0x49C2 DUP9 DUP3 DUP10 ADD PUSH2 0x39CF JUMP JUMPDEST SWAP6 POP POP PUSH1 0x20 PUSH2 0x49D3 DUP9 DUP3 DUP10 ADD PUSH2 0x39CF JUMP JUMPDEST SWAP5 POP POP PUSH1 0x40 PUSH2 0x49E4 DUP9 DUP3 DUP10 ADD PUSH2 0x3A02 JUMP JUMPDEST SWAP4 POP POP PUSH1 0x60 PUSH2 0x49F5 DUP9 DUP3 DUP10 ADD PUSH2 0x3A02 JUMP JUMPDEST SWAP3 POP POP PUSH1 0x80 DUP7 ADD CALLDATALOAD PUSH8 0xFFFFFFFFFFFFFFFF DUP2 GT ISZERO PUSH2 0x4A16 JUMPI PUSH2 0x4A15 PUSH2 0x3985 JUMP JUMPDEST JUMPDEST PUSH2 0x4A22 DUP9 DUP3 DUP10 ADD PUSH2 0x3FB7 JUMP JUMPDEST SWAP2 POP POP SWAP3 SWAP6 POP SWAP3 SWAP6 SWAP1 SWAP4 POP JUMP JUMPDEST PUSH0 DUP1 PUSH0 PUSH1 0x60 DUP5 DUP7 SUB SLT ISZERO PUSH2 0x4A46 JUMPI PUSH2 0x4A45 PUSH2 0x3981 JUMP JUMPDEST JUMPDEST PUSH0 PUSH2 0x4A53 DUP7 DUP3 DUP8 ADD PUSH2 0x39CF JUMP JUMPDEST SWAP4 POP POP PUSH1 0x20 PUSH2 0x4A64 DUP7 DUP3 DUP8 ADD PUSH2 0x3A02 JUMP JUMPDEST SWAP3 POP POP PUSH1 0x40 PUSH2 0x4A75 DUP7 DUP3 DUP8 ADD PUSH2 0x3A02 JUMP JUMPDEST SWAP2 POP POP SWAP3 POP SWAP3 POP SWAP3 JUMP JUMPDEST PUSH32 0x4E487B7100000000000000000000000000000000000000000000000000000000 PUSH0 MSTORE PUSH1 0x22 PUSH1 0x4 MSTORE PUSH1 0x24 PUSH0 REVERT JUMPDEST PUSH0 PUSH1 0x2 DUP3 DIV SWAP1 POP PUSH1 0x1 DUP3 AND DUP1 PUSH2 0x4AC3 JUMPI PUSH1 0x7F DUP3 AND SWAP2 POP JUMPDEST PUSH1 0x20 DUP3 LT DUP2 SUB PUSH2 0x4AD6 JUMPI PUSH2 0x4AD5 PUSH2 0x4A7F JUMP JUMPDEST JUMPDEST POP SWAP2 SWAP1 POP JUMP JUMPDEST PUSH32 0x4E487B7100000000000000000000000000000000000000000000000000000000 PUSH0 MSTORE PUSH1 0x32 PUSH1 0x4 MSTORE PUSH1 0x24 PUSH0 REVERT JUMPDEST PUSH32 0x4E487B7100000000000000000000000000000000000000000000000000000000 PUSH0 MSTORE PUSH1 0x11 PUSH1 0x4 MSTORE PUSH1 0x24 PUSH0 REVERT JUMPDEST PUSH0 PUSH2 0x4B40 DUP3 PUSH2 0x39E3 JUMP JUMPDEST SWAP2 POP PUSH2 0x4B4B DUP4 PUSH2 0x39E3 JUMP JUMPDEST SWAP3 POP DUP3 DUP3 SUB SWAP1 POP DUP2 DUP2 GT ISZERO PUSH2 0x4B63 JUMPI PUSH2 0x4B62 PUSH2 0x4B09 JUMP JUMPDEST JUMPDEST SWAP3 SWAP2 POP POP JUMP JUMPDEST PUSH32 0x4E487B7100000000000000000000000000000000000000000000000000000000 PUSH0 MSTORE PUSH1 0x31 PUSH1 0x4 MSTORE PUSH1 0x24 PUSH0 REVERT JUMPDEST PUSH0 PUSH2 0x4BA0 DUP3 PUSH2 0x39E3 JUMP JUMPDEST SWAP2 POP PUSH32 0xFFFFFFFFFFFFFFFFFFFFFFFFFFFFFFFFFFFFFFFFFFFFFFFFFFFFFFFFFFFFFFFF DUP3 SUB PUSH2 0x4BD2 JUMPI PUSH2 0x4BD1 PUSH2 0x4B09 JUMP JUMPDEST JUMPDEST PUSH1 0x1 DUP3 ADD SWAP1 POP SWAP2 SWAP1 POP JUMP JUMPDEST PUSH32 0x41646D696E206E6F7420666F756E640000000000000000000000000000000000 PUSH0 DUP3 ADD MSTORE POP JUMP JUMPDEST PUSH0 PUSH2 0x4C11 PUSH1 0xF DUP4 PUSH2 0x3B64 JUMP JUMPDEST SWAP2 POP PUSH2 0x4C1C DUP3 PUSH2 0x4BDD JUMP JUMPDEST PUSH1 0x20 DUP3 ADD SWAP1 POP SWAP2 SWAP1 POP JUMP JUMPDEST PUSH0 PUSH1 0x20 DUP3 ADD SWAP1 POP DUP2 DUP2 SUB PUSH0 DUP4 ADD MSTORE PUSH2 0x4C3E DUP2 PUSH2 0x4C05 JUMP JUMPDEST SWAP1 POP SWAP2 SWAP1 POP JUMP JUMPDEST PUSH32 0x4E616D6520726571756972656400000000000000000000000000000000000000 PUSH0 DUP3 ADD MSTORE POP JUMP JUMPDEST PUSH0 PUSH2 0x4C79 PUSH1 0xD DUP4 PUSH2 0x3B64 JUMP JUMPDEST SWAP2 POP PUSH2 0x4C84 DUP3 PUSH2 0x4C45 JUMP JUMPDEST PUSH1 0x20 DUP3 ADD SWAP1 POP SWAP2 SWAP1 POP JUMP JUMPDEST PUSH0 PUSH1 0x20 DUP3 ADD SWAP1 POP DUP2 DUP2 SUB PUSH0 DUP4 ADD MSTORE PUSH2 0x4CA6 DUP2 PUSH2 0x4C6D JUMP JUMPDEST SWAP1 POP SWAP2 SWAP1 POP JUMP JUMPDEST PUSH0 DUP2 SWAP1 POP SWAP3 SWAP2 POP POP JUMP JUMPDEST PUSH0 PUSH2 0x4CC2 DUP4 DUP6 PUSH2 0x4CAD JUMP JUMPDEST SWAP4 POP PUSH2 0x4CCF DUP4 DUP6 DUP5 PUSH2 0x3F68 JUMP JUMPDEST DUP3 DUP5 ADD SWAP1 POP SWAP4 SWAP3 POP POP POP JUMP JUMPDEST PUSH0 PUSH2 0x4CE7 DUP3 DUP5 DUP7 PUSH2 0x4CB7 JUMP JUMPDEST SWAP2 POP DUP2 SWAP1 POP SWAP4 SWAP3 POP POP POP JUMP JUMPDEST PUSH0 DUP2 SWAP1 POP DUP2 PUSH0 MSTORE PUSH1 0x20 PUSH0 KECCAK256 SWAP1 POP SWAP2 SWAP1 POP JUMP JUMPDEST PUSH0 DUP2 SLOAD PUSH2 0x4D11 DUP2 PUSH2 0x4AAC JUMP JUMPDEST PUSH2 0x4D1B DUP2 DUP7 PUSH2 0x4CAD JUMP JUMPDEST SWAP5 POP PUSH1 0x1 DUP3 AND PUSH0 DUP2 EQ PUSH2 0x4D35 JUMPI PUSH1 0x1 DUP2 EQ PUSH2 0x4D4A JUMPI PUSH2 0x4D7C JUMP JUMPDEST PUSH1 0xFF NOT DUP4 AND DUP7 MSTORE DUP2 ISZERO ISZERO DUP3 MUL DUP7 ADD SWAP4 POP PUSH2 0x4D7C JUMP JUMPDEST PUSH2 0x4D53 DUP6 PUSH2 0x4CF3 JUMP JUMPDEST PUSH0 JUMPDEST DUP4 DUP2 LT ISZERO PUSH2 0x4D74 JUMPI DUP2 SLOAD DUP2 DUP10 ADD MSTORE PUSH1 0x1 DUP3 ADD SWAP2 POP PUSH1 0x20 DUP2 ADD SWAP1 POP PUSH2 0x4D55 JUMP JUMPDEST DUP4 DUP9 ADD SWAP6 POP POP POP JUMPDEST POP POP POP SWAP3 SWAP2 POP POP JUMP JUMPDEST PUSH0 PUSH2 0x4D90 DUP3 DUP5 PUSH2 0x4D05 JUMP JUMPDEST SWAP2 POP DUP2 SWAP1 POP SWAP3 SWAP2 POP POP JUMP JUMPDEST PUSH0 DUP2 SWAP1 POP SWAP2 SWAP1 POP JUMP JUMPDEST PUSH2 0x4DB5 PUSH2 0x4DB0 DUP3 PUSH2 0x39E3 JUMP JUMPDEST PUSH2 0x4D9B JUMP JUMPDEST DUP3 MSTORE POP POP JUMP JUMPDEST PUSH0 DUP2 PUSH1 0x60 SHL SWAP1 POP SWAP2 SWAP1 POP JUMP JUMPDEST PUSH0 PUSH2 0x4DD1 DUP3 PUSH2 0x4DBB JUMP JUMPDEST SWAP1 POP SWAP2 SWAP1 POP JUMP JUMPDEST PUSH0 PUSH2 0x4DE2 DUP3 PUSH2 0x4DC7 JUMP JUMPDEST SWAP1 POP SWAP2 SWAP1 POP JUMP JUMPDEST PUSH2 0x4DFA PUSH2 0x4DF5 DUP3 PUSH2 0x39A8 JUMP JUMPDEST PUSH2 0x4DD8 JUMP JUMPDEST DUP3 MSTORE POP POP JUMP JUMPDEST PUSH0 DUP2 SWAP1 POP SWAP3 SWAP2 POP POP JUMP JUMPDEST PUSH0 PUSH2 0x4E15 DUP4 DUP6 PUSH2 0x4E00 JUMP JUMPDEST SWAP4 POP PUSH2 0x4E22 DUP4 DUP6 DUP5 PUSH2 0x3F68 JUMP JUMPDEST DUP3 DUP5 ADD SWAP1 POP SWAP4 SWAP3 POP POP POP JUMP JUMPDEST PUSH0 PUSH2 0x4E39 DUP3 DUP10 PUSH2 0x4DA4 JUMP JUMPDEST PUSH1 0x20 DUP3 ADD SWAP2 POP PUSH2 0x4E49 DUP3 DUP9 PUSH2 0x4DA4 JUMP JUMPDEST PUSH1 0x20 DUP3 ADD SWAP2 POP PUSH2 0x4E59 DUP3 DUP8 PUSH2 0x4DE9 JUMP JUMPDEST PUSH1 0x14 DUP3 ADD SWAP2 POP PUSH2 0x4E6A DUP3 DUP6 DUP8 PUSH2 0x4E0A JUMP JUMPDEST SWAP2 POP PUSH2 0x4E76 DUP3 DUP5 PUSH2 0x4DA4 JUMP JUMPDEST PUSH1 0x20 DUP3 ADD SWAP2 POP DUP2 SWAP1 POP SWAP8 SWAP7 POP POP POP POP POP POP POP JUMP JUMPDEST PUSH32 0x4E487B7100000000000000000000000000000000000000000000000000000000 PUSH0 MSTORE PUSH1 0x12 PUSH1 0x4 MSTORE PUSH1 0x24 PUSH0 REVERT JUMPDEST PUSH0 PUSH2 0x4EC1 DUP3 PUSH2 0x39E3 JUMP JUMPDEST SWAP2 POP PUSH2 0x4ECC DUP4 PUSH2 0x39E3 JUMP JUMPDEST SWAP3 POP DUP3 PUSH2 0x4EDC JUMPI PUSH2 0x4EDB PUSH2 0x4E8A JUMP JUMPDEST JUMPDEST DUP3 DUP3 MOD SWAP1 POP SWAP3 SWAP2 POP POP JUMP JUMPDEST PUSH0 PUSH2 0x4EF1 DUP3 PUSH2 0x39E3 JUMP JUMPDEST SWAP2 POP PUSH2 0x4EFC DUP4 PUSH2 0x39E3 JUMP JUMPDEST SWAP3 POP DUP3 DUP3 ADD SWAP1 POP DUP1 DUP3 GT ISZERO PUSH2 0x4F14 JUMPI PUSH2 0x4F13 PUSH2 0x4B09 JUMP JUMPDEST JUMPDEST SWAP3 SWAP2 POP POP JUMP JUMPDEST PUSH32 0x556E61626C6520746F2066696E6420756E697175652073686F727420746F6B65 PUSH0 DUP3 ADD MSTORE PUSH32 0x6E20494400000000000000000000000000000000000000000000000000000000 PUSH1 0x20 DUP3 ADD MSTORE POP JUMP JUMPDEST PUSH0 PUSH2 0x4F74 PUSH1 0x24 DUP4 PUSH2 0x3B64 JUMP JUMPDEST SWAP2 POP PUSH2 0x4F7F DUP3 PUSH2 0x4F1A JUMP JUMPDEST PUSH1 0x40 DUP3 ADD SWAP1 POP SWAP2 SWAP1 POP JUMP JUMPDEST PUSH0 PUSH1 0x20 DUP3 ADD SWAP1 POP DUP2 DUP2 SUB PUSH0 DUP4 ADD MSTORE PUSH2 0x4FA1 DUP2 PUSH2 0x4F68 JUMP JUMPDEST SWAP1 POP SWAP2 SWAP1 POP JUMP JUMPDEST PUSH32 0x546F6B656E494454616B656E0000000000000000000000000000000000000000 PUSH0 DUP3 ADD MSTORE POP JUMP JUMPDEST PUSH0 PUSH2 0x4FDC PUSH1 0xC DUP4 PUSH2 0x3B64 JUMP JUMPDEST SWAP2 POP PUSH2 0x4FE7 DUP3 PUSH2 0x4FA8 JUMP JUMPDEST PUSH1 0x20 DUP3 ADD SWAP1 POP SWAP2 SWAP1 POP JUMP JUMPDEST PUSH0 PUSH1 0x20 DUP3 ADD SWAP1 POP DUP2 DUP2 SUB PUSH0 DUP4 ADD MSTORE PUSH2 0x5009 DUP2 PUSH2 0x4FD0 JUMP JUMPDEST SWAP1 POP SWAP2 SWAP1 POP JUMP JUMPDEST PUSH0 DUP3 SWAP1 POP SWAP3 SWAP2 POP POP JUMP JUMPDEST PUSH0 DUP2 SWAP1 POP DUP2 PUSH0 MSTORE PUSH1 0x20 PUSH0 KECCAK256 SWAP1 POP SWAP2 SWAP1 POP JUMP JUMPDEST PUSH0 PUSH1 0x20 PUSH1 0x1F DUP4 ADD DIV SWAP1 POP SWAP2 SWAP1 POP JUMP JUMPDEST PUSH0 DUP3 DUP3 SHL SWAP1 POP SWAP3 SWAP2 POP POP JUMP JUMPDEST PUSH0 PUSH1 0x8 DUP4 MUL PUSH2 0x5076 PUSH32 0xFFFFFFFFFFFFFFFFFFFFFFFFFFFFFFFFFFFFFFFFFFFFFFFFFFFFFFFFFFFFFFFF DUP3 PUSH2 0x503B JUMP JUMPDEST PUSH2 0x5080 DUP7 DUP4 PUSH2 0x503B JUMP JUMPDEST SWAP6 POP DUP1 NOT DUP5 AND SWAP4 POP DUP1 DUP7 AND DUP5 OR SWAP3 POP POP POP SWAP4 SWAP3 POP POP POP JUMP JUMPDEST PUSH0 PUSH2 0x50B2 PUSH2 0x50AD PUSH2 0x50A8 DUP5 PUSH2 0x39E3 JUMP JUMPDEST PUSH2 0x3C2F JUMP JUMPDEST PUSH2 0x39E3 JUMP JUMPDEST SWAP1 POP SWAP2 SWAP1 POP JUMP JUMPDEST PUSH0 DUP2 SWAP1 POP SWAP2 SWAP1 POP JUMP JUMPDEST PUSH2 0x50CB DUP4 PUSH2 0x5098 JUMP JUMPDEST PUSH2 0x50DF PUSH2 0x50D7 DUP3 PUSH2 0x50B9 JUMP JUMPDEST DUP5 DUP5 SLOAD PUSH2 0x5047 JUMP JUMPDEST DUP3 SSTORE POP POP POP POP JUMP JUMPDEST PUSH0 SWAP1 JUMP JUMPDEST PUSH2 0x50F3 PUSH2 0x50E7 JUMP JUMPDEST PUSH2 0x50FE DUP2 DUP5 DUP5 PUSH2 0x50C2 JUMP JUMPDEST POP POP POP JUMP JUMPDEST JUMPDEST DUP2 DUP2 LT ISZERO PUSH2 0x5121 JUMPI PUSH2 0x5116 PUSH0 DUP3 PUSH2 0x50EB JUMP JUMPDEST PUSH1 0x1 DUP2 ADD SWAP1 POP PUSH2 0x5104 JUMP JUMPDEST POP POP JUMP JUMPDEST PUSH1 0x1F DUP3 GT ISZERO PUSH2 0x5166 JUMPI PUSH2 0x5137 DUP2 PUSH2 0x501A JUMP JUMPDEST PUSH2 0x5140 DUP5 PUSH2 0x502C JUMP JUMPDEST DUP2 ADD PUSH1 0x20 DUP6 LT ISZERO PUSH2 0x514F JUMPI DUP2 SWAP1 POP JUMPDEST PUSH2 0x5163 PUSH2 0x515B DUP6 PUSH2 0x502C JUMP JUMPDEST DUP4 ADD DUP3 PUSH2 0x5103 JUMP JUMPDEST POP POP JUMPDEST POP POP POP JUMP JUMPDEST PUSH0 DUP3 DUP3 SHR SWAP1 POP SWAP3 SWAP2 POP POP JUMP JUMPDEST PUSH0 PUSH2 0x5186 PUSH0 NOT DUP5 PUSH1 0x8 MUL PUSH2 0x516B JUMP JUMPDEST NOT DUP1 DUP4 AND SWAP2 POP POP SWAP3 SWAP2 POP POP JUMP JUMPDEST PUSH0 PUSH2 0x519E DUP4 DUP4 PUSH2 0x5177 JUMP JUMPDEST SWAP2 POP DUP3 PUSH1 0x2 MUL DUP3 OR SWAP1 POP SWAP3 SWAP2 POP POP JUMP JUMPDEST PUSH2 0x51B8 DUP4 DUP4 PUSH2 0x5010 JUMP JUMPDEST PUSH8 0xFFFFFFFFFFFFFFFF DUP2 GT ISZERO PUSH2 0x51D1 JUMPI PUSH2 0x51D0 PUSH2 0x3DFC JUMP JUMPDEST JUMPDEST PUSH2 0x51DB DUP3 SLOAD PUSH2 0x4AAC JUMP JUMPDEST PUSH2 0x51E6 DUP3 DUP3 DUP6 PUSH2 0x5125 JUMP JUMPDEST PUSH0 PUSH1 0x1F DUP4 GT PUSH1 0x1 DUP2 EQ PUSH2 0x5213 JUMPI PUSH0 DUP5 ISZERO PUSH2 0x5201 JUMPI DUP3 DUP8 ADD CALLDATALOAD SWAP1 POP JUMPDEST PUSH2 0x520B DUP6 DUP3 PUSH2 0x5193 JUMP JUMPDEST DUP7 SSTORE POP PUSH2 0x5272 JUMP JUMPDEST PUSH1 0x1F NOT DUP5 AND PUSH2 0x5221 DUP7 PUSH2 0x501A JUMP JUMPDEST PUSH0 JUMPDEST DUP3 DUP2 LT ISZERO PUSH2 0x5248 JUMPI DUP5 DUP10 ADD CALLDATALOAD DUP3 SSTORE PUSH1 0x1 DUP3 ADD SWAP2 POP PUSH1 0x20 DUP6 ADD SWAP5 POP PUSH1 0x20 DUP2 ADD SWAP1 POP PUSH2 0x5223 JUMP JUMPDEST DUP7 DUP4 LT ISZERO PUSH2 0x5265 JUMPI DUP5 DUP10 ADD CALLDATALOAD PUSH2 0x5261 PUSH1 0x1F DUP10 AND DUP3 PUSH2 0x5177 JUMP JUMPDEST DUP4 SSTORE POP JUMPDEST PUSH1 0x1 PUSH1 0x2 DUP9 MUL ADD DUP9 SSTORE POP POP POP JUMPDEST POP POP POP POP POP POP POP JUMP JUMPDEST PUSH32 0x455243313135353A204D69736D617463686564206172726179206C656E677468 PUSH0 DUP3 ADD MSTORE PUSH32 0x7300000000000000000000000000000000000000000000000000000000000000 PUSH1 0x20 DUP3 ADD MSTORE POP JUMP JUMPDEST PUSH0 PUSH2 0x52D5 PUSH1 0x21 DUP4 PUSH2 0x3B64 JUMP JUMPDEST SWAP2 POP PUSH2 0x52E0 DUP3 PUSH2 0x527B JUMP JUMPDEST PUSH1 0x40 DUP3 ADD SWAP1 POP SWAP2 SWAP1 POP JUMP JUMPDEST PUSH0 PUSH1 0x20 DUP3 ADD SWAP1 POP DUP2 DUP2 SUB PUSH0 DUP4 ADD MSTORE PUSH2 0x5302 DUP2 PUSH2 0x52C9 JUMP JUMPDEST SWAP1 POP SWAP2 SWAP1 POP JUMP JUMPDEST PUSH32 0x455243313135353A207472616E7366657220746F20746865207A65726F206164 PUSH0 DUP3 ADD MSTORE PUSH32 0x6472657373000000000000000000000000000000000000000000000000000000 PUSH1 0x20 DUP3 ADD MSTORE POP JUMP JUMPDEST PUSH0 PUSH2 0x5363 PUSH1 0x25 DUP4 PUSH2 0x3B64 JUMP JUMPDEST SWAP2 POP PUSH2 0x536E DUP3 PUSH2 0x5309 JUMP JUMPDEST PUSH1 0x40 DUP3 ADD SWAP1 POP SWAP2 SWAP1 POP JUMP JUMPDEST PUSH0 PUSH1 0x20 DUP3 ADD SWAP1 POP DUP2 DUP2 SUB PUSH0 DUP4 ADD MSTORE PUSH2 0x5390 DUP2 PUSH2 0x5357 JUMP JUMPDEST SWAP1 POP SWAP2 SWAP1 POP JUMP JUMPDEST PUSH0 PUSH1 0x40 DUP3 ADD SWAP1 POP PUSH2 0x53AA PUSH0 DUP4 ADD DUP6 PUSH2 0x3A54 JUMP JUMPDEST PUSH2 0x53B7 PUSH1 0x20 DUP4 ADD DUP5 PUSH2 0x3A54 JUMP JUMPDEST SWAP4 SWAP3 POP POP POP JUMP JUMPDEST PUSH32 0x746F6B656E20696420646F6573206E6F74206578697374000000000000000000 PUSH0 DUP3 ADD MSTORE POP JUMP JUMPDEST PUSH0 PUSH2 0x53F2 PUSH1 0x17 DUP4 PUSH2 0x3B64 JUMP JUMPDEST SWAP2 POP PUSH2 0x53FD DUP3 PUSH2 0x53BE JUMP JUMPDEST PUSH1 0x20 DUP3 ADD SWAP1 POP SWAP2 SWAP1 POP JUMP JUMPDEST PUSH0 PUSH1 0x20 DUP3 ADD SWAP1 POP DUP2 DUP2 SUB PUSH0 DUP4 ADD MSTORE PUSH2 0x541F DUP2 PUSH2 0x53E6 JUMP JUMPDEST SWAP1 POP SWAP2 SWAP1 POP JUMP JUMPDEST PUSH32 0x50726F6F66207265717565737420646F6573206E6F7420657869737400000000 PUSH0 DUP3 ADD MSTORE POP JUMP JUMPDEST PUSH0 PUSH2 0x545A PUSH1 0x1C DUP4 PUSH2 0x3B64 JUMP JUMPDEST SWAP2 POP PUSH2 0x5465 DUP3 PUSH2 0x5426 JUMP JUMPDEST PUSH1 0x20 DUP3 ADD SWAP1 POP SWAP2 SWAP1 POP JUMP JUMPDEST PUSH0 PUSH1 0x20 DUP3 ADD SWAP1 POP DUP2 DUP2 SUB PUSH0 DUP4 ADD MSTORE PUSH2 0x5487 DUP2 PUSH2 0x544E JUMP JUMPDEST SWAP1 POP SWAP2 SWAP1 POP JUMP JUMPDEST PUSH32 0x4E6F207370656E64696E6720636F6E646974696F6E20746F2064656C65746500 PUSH0 DUP3 ADD MSTORE POP JUMP JUMPDEST PUSH0 PUSH2 0x54C2 PUSH1 0x1F DUP4 PUSH2 0x3B64 JUMP JUMPDEST SWAP2 POP PUSH2 0x54CD DUP3 PUSH2 0x548E JUMP JUMPDEST PUSH1 0x20 DUP3 ADD SWAP1 POP SWAP2 SWAP1 POP JUMP JUMPDEST PUSH0 PUSH1 0x20 DUP3 ADD SWAP1 POP DUP2 DUP2 SUB PUSH0 DUP4 ADD MSTORE PUSH2 0x54EF DUP2 PUSH2 0x54B6 JUMP JUMPDEST SWAP1 POP SWAP2 SWAP1 POP JUMP JUMPDEST PUSH32 0x496E76616C696420616464726573730000000000000000000000000000000000 PUSH0 DUP3 ADD MSTORE POP JUMP JUMPDEST PUSH0 PUSH2 0x552A PUSH1 0xF DUP4 PUSH2 0x3B64 JUMP JUMPDEST SWAP2 POP PUSH2 0x5535 DUP3 PUSH2 0x54F6 JUMP JUMPDEST PUSH1 0x20 DUP3 ADD SWAP1 POP SWAP2 SWAP1 POP JUMP JUMPDEST PUSH0 PUSH1 0x20 DUP3 ADD SWAP1 POP DUP2 DUP2 SUB PUSH0 DUP4 ADD MSTORE PUSH2 0x5557 DUP2 PUSH2 0x551E JUMP JUMPDEST SWAP1 POP SWAP2 SWAP1 POP JUMP JUMPDEST PUSH32 0x4164647265737320697320616C726561647920616E2061646D696E0000000000 PUSH0 DUP3 ADD MSTORE POP JUMP JUMPDEST PUSH0 PUSH2 0x5592 PUSH1 0x1B DUP4 PUSH2 0x3B64 JUMP JUMPDEST SWAP2 POP PUSH2 0x559D DUP3 PUSH2 0x555E JUMP JUMPDEST PUSH1 0x20 DUP3 ADD SWAP1 POP SWAP2 SWAP1 POP JUMP JUMPDEST PUSH0 PUSH1 0x20 DUP3 ADD SWAP1 POP DUP2 DUP2 SUB PUSH0 DUP4 ADD MSTORE PUSH2 0x55BF DUP2 PUSH2 0x5586 JUMP JUMPDEST SWAP1 POP SWAP2 SWAP1 POP JUMP JUMPDEST PUSH32 0x4F6E6C79206D6F6E6579206F776E65722063616E20616464207370656E64696E PUSH0 DUP3 ADD MSTORE PUSH32 0x6720636F6E646974696F6E2E0000000000000000000000000000000000000000 PUSH1 0x20 DUP3 ADD MSTORE POP JUMP JUMPDEST PUSH0 PUSH2 0x5620 PUSH1 0x2C DUP4 PUSH2 0x3B64 JUMP JUMPDEST SWAP2 POP PUSH2 0x562B DUP3 PUSH2 0x55C6 JUMP JUMPDEST PUSH1 0x40 DUP3 ADD SWAP1 POP SWAP2 SWAP1 POP JUMP JUMPDEST PUSH0 PUSH1 0x20 DUP3 ADD SWAP1 POP DUP2 DUP2 SUB PUSH0 DUP4 ADD MSTORE PUSH2 0x564D DUP2 PUSH2 0x5614 JUMP JUMPDEST SWAP1 POP SWAP2 SWAP1 POP JUMP JUMPDEST PUSH0 PUSH2 0x565E DUP3 PUSH2 0x3C59 JUMP JUMPDEST SWAP1 POP SWAP2 SWAP1 POP JUMP JUMPDEST PUSH2 0x566E DUP2 PUSH2 0x5654 JUMP JUMPDEST DUP3 MSTORE POP POP JUMP JUMPDEST PUSH0 DUP2 MLOAD SWAP1 POP SWAP2 SWAP1 POP JUMP JUMPDEST PUSH0 DUP3 DUP3 MSTORE PUSH1 0x20 DUP3 ADD SWAP1 POP SWAP3 SWAP2 POP POP JUMP JUMPDEST PUSH0 PUSH2 0x5698 DUP3 PUSH2 0x5674 JUMP JUMPDEST PUSH2 0x56A2 DUP2 DUP6 PUSH2 0x567E JUMP JUMPDEST SWAP4 POP PUSH2 0x56B2 DUP2 DUP6 PUSH1 0x20 DUP7 ADD PUSH2 0x3B74 JUMP JUMPDEST PUSH2 0x56BB DUP2 PUSH2 0x3B9C JUMP JUMPDEST DUP5 ADD SWAP2 POP POP SWAP3 SWAP2 POP POP JUMP JUMPDEST PUSH0 PUSH1 0x60 DUP4 ADD PUSH0 DUP4 ADD MLOAD DUP5 DUP3 SUB PUSH0 DUP7 ADD MSTORE PUSH2 0x56E0 DUP3 DUP3 PUSH2 0x47DC JUMP JUMPDEST SWAP2 POP POP PUSH1 0x20 DUP4 ADD MLOAD PUSH2 0x56F5 PUSH1 0x20 DUP7 ADD DUP3 PUSH2 0x5665 JUMP JUMPDEST POP PUSH1 0x40 DUP4 ADD MLOAD DUP5 DUP3 SUB PUSH1 0x40 DUP7 ADD MSTORE PUSH2 0x570D DUP3 DUP3 PUSH2 0x568E JUMP JUMPDEST SWAP2 POP POP DUP1 SWAP2 POP POP SWAP3 SWAP2 POP POP JUMP JUMPDEST PUSH0 PUSH1 0x40 DUP3 ADD SWAP1 POP PUSH2 0x572D PUSH0 DUP4 ADD DUP6 PUSH2 0x4936 JUMP JUMPDEST DUP2 DUP2 SUB PUSH1 0x20 DUP4 ADD MSTORE PUSH2 0x573F DUP2 DUP5 PUSH2 0x56C6 JUMP JUMPDEST SWAP1 POP SWAP4 SWAP3 POP POP POP JUMP JUMPDEST PUSH0 DUP1 REVERT JUMPDEST PUSH0 DUP1 REVERT JUMPDEST PUSH0 DUP1 REVERT JUMPDEST PUSH0 DUP1 DUP4 CALLDATALOAD PUSH1 0x1 PUSH1 0x20 SUB DUP5 CALLDATASIZE SUB SUB DUP2 SLT PUSH2 0x5770 JUMPI PUSH2 0x576F PUSH2 0x5748 JUMP JUMPDEST JUMPDEST DUP1 DUP5 ADD SWAP3 POP DUP3 CALLDATALOAD SWAP2 POP PUSH8 0xFFFFFFFFFFFFFFFF DUP3 GT ISZERO PUSH2 0x5792 JUMPI PUSH2 0x5791 PUSH2 0x574C JUMP JUMPDEST JUMPDEST PUSH1 0x20 DUP4 ADD SWAP3 POP PUSH1 0x1 DUP3 MUL CALLDATASIZE SUB DUP4 SGT ISZERO PUSH2 0x57AE JUMPI PUSH2 0x57AD PUSH2 0x5750 JUMP JUMPDEST JUMPDEST POP SWAP3 POP SWAP3 SWAP1 POP JUMP JUMPDEST PUSH2 0x57BF DUP3 PUSH2 0x3B5A JUMP JUMPDEST PUSH8 0xFFFFFFFFFFFFFFFF DUP2 GT ISZERO PUSH2 0x57D8 JUMPI PUSH2 0x57D7 PUSH2 0x3DFC JUMP JUMPDEST JUMPDEST PUSH2 0x57E2 DUP3 SLOAD PUSH2 0x4AAC JUMP JUMPDEST PUSH2 0x57ED DUP3 DUP3 DUP6 PUSH2 0x5125 JUMP JUMPDEST PUSH0 PUSH1 0x20 SWAP1 POP PUSH1 0x1F DUP4 GT PUSH1 0x1 DUP2 EQ PUSH2 0x581E JUMPI PUSH0 DUP5 ISZERO PUSH2 0x580C JUMPI DUP3 DUP8 ADD MLOAD SWAP1 POP JUMPDEST PUSH2 0x5816 DUP6 DUP3 PUSH2 0x5193 JUMP JUMPDEST DUP7 SSTORE POP PUSH2 0x587D JUMP JUMPDEST PUSH1 0x1F NOT DUP5 AND PUSH2 0x582C DUP7 PUSH2 0x501A JUMP JUMPDEST PUSH0 JUMPDEST DUP3 DUP2 LT ISZERO PUSH2 0x5853 JUMPI DUP5 DUP10 ADD MLOAD DUP3 SSTORE PUSH1 0x1 DUP3 ADD SWAP2 POP PUSH1 0x20 DUP6 ADD SWAP5 POP PUSH1 0x20 DUP2 ADD SWAP1 POP PUSH2 0x582E JUMP JUMPDEST DUP7 DUP4 LT ISZERO PUSH2 0x5870 JUMPI DUP5 DUP10 ADD MLOAD PUSH2 0x586C PUSH1 0x1F DUP10 AND DUP3 PUSH2 0x5177 JUMP JUMPDEST DUP4 SSTORE POP JUMPDEST PUSH1 0x1 PUSH1 0x2 DUP9 MUL ADD DUP9 SSTORE POP POP POP JUMPDEST POP POP POP POP POP POP JUMP JUMPDEST PUSH0 PUSH1 0x40 DUP3 ADD SWAP1 POP PUSH2 0x5898 PUSH0 DUP4 ADD DUP6 PUSH2 0x461E JUMP JUMPDEST PUSH2 0x58A5 PUSH1 0x20 DUP4 ADD DUP5 PUSH2 0x4936 JUMP JUMPDEST SWAP4 SWAP3 POP POP POP JUMP JUMPDEST PUSH0 DUP1 REVERT JUMPDEST PUSH0 DUP1 REVERT JUMPDEST PUSH0 DUP2 MLOAD SWAP1 POP PUSH2 0x58C2 DUP2 PUSH2 0x4646 JUMP JUMPDEST SWAP3 SWAP2 POP POP JUMP JUMPDEST PUSH0 PUSH8 0xFFFFFFFFFFFFFFFF DUP3 GT ISZERO PUSH2 0x58E2 JUMPI PUSH2 0x58E1 PUSH2 0x3DFC JUMP JUMPDEST JUMPDEST PUSH2 0x58EB DUP3 PUSH2 0x3B9C JUMP JUMPDEST SWAP1 POP PUSH1 0x20 DUP2 ADD SWAP1 POP SWAP2 SWAP1 POP JUMP JUMPDEST PUSH0 PUSH2 0x590A PUSH2 0x5905 DUP5 PUSH2 0x58C8 JUMP JUMPDEST PUSH2 0x3E5A JUMP JUMPDEST SWAP1 POP DUP3 DUP2 MSTORE PUSH1 0x20 DUP2 ADD DUP5 DUP5 DUP5 ADD GT ISZERO PUSH2 0x5926 JUMPI PUSH2 0x5925 PUSH2 0x3F34 JUMP JUMPDEST JUMPDEST PUSH2 0x5931 DUP5 DUP3 DUP6 PUSH2 0x3B74 JUMP JUMPDEST POP SWAP4 SWAP3 POP POP POP JUMP JUMPDEST PUSH0 DUP3 PUSH1 0x1F DUP4 ADD SLT PUSH2 0x594D JUMPI PUSH2 0x594C PUSH2 0x3CA3 JUMP JUMPDEST JUMPDEST DUP2 MLOAD PUSH2 0x595D DUP5 DUP3 PUSH1 0x20 DUP7 ADD PUSH2 0x58F8 JUMP JUMPDEST SWAP2 POP POP SWAP3 SWAP2 POP POP JUMP JUMPDEST PUSH0 DUP2 MLOAD SWAP1 POP PUSH2 0x5974 DUP2 PUSH2 0x39EC JUMP JUMPDEST SWAP3 SWAP2 POP POP JUMP JUMPDEST PUSH0 PUSH1 0x80 DUP3 DUP5 SUB SLT ISZERO PUSH2 0x598F JUMPI PUSH2 0x598E PUSH2 0x58AC JUMP JUMPDEST JUMPDEST PUSH2 0x5999 PUSH1 0x80 PUSH2 0x3E5A JUMP JUMPDEST SWAP1 POP PUSH0 PUSH2 0x59A8 DUP5 DUP3 DUP6 ADD PUSH2 0x58B4 JUMP JUMPDEST PUSH0 DUP4 ADD MSTORE POP PUSH1 0x20 DUP3 ADD MLOAD PUSH8 0xFFFFFFFFFFFFFFFF DUP2 GT ISZERO PUSH2 0x59CB JUMPI PUSH2 0x59CA PUSH2 0x58B0 JUMP JUMPDEST JUMPDEST PUSH2 0x59D7 DUP5 DUP3 DUP6 ADD PUSH2 0x5939 JUMP JUMPDEST PUSH1 0x20 DUP4 ADD MSTORE POP PUSH1 0x40 PUSH2 0x59EB DUP5 DUP3 DUP6 ADD PUSH2 0x5966 JUMP JUMPDEST PUSH1 0x40 DUP4 ADD MSTORE POP PUSH1 0x60 PUSH2 0x59FF DUP5 DUP3 DUP6 ADD PUSH2 0x5966 JUMP JUMPDEST PUSH1 0x60 DUP4 ADD MSTORE POP SWAP3 SWAP2 POP POP JUMP JUMPDEST PUSH0 PUSH1 0x20 DUP3 DUP5 SUB SLT ISZERO PUSH2 0x5A20 JUMPI PUSH2 0x5A1F PUSH2 0x3981 JUMP JUMPDEST JUMPDEST PUSH0 DUP3 ADD MLOAD PUSH8 0xFFFFFFFFFFFFFFFF DUP2 GT ISZERO PUSH2 0x5A3D JUMPI PUSH2 0x5A3C PUSH2 0x3985 JUMP JUMPDEST JUMPDEST PUSH2 0x5A49 DUP5 DUP3 DUP6 ADD PUSH2 0x597A JUMP JUMPDEST SWAP2 POP POP SWAP3 SWAP2 POP POP JUMP JUMPDEST PUSH0 PUSH1 0x40 DUP3 ADD SWAP1 POP PUSH2 0x5A65 PUSH0 DUP4 ADD DUP6 PUSH2 0x4936 JUMP JUMPDEST PUSH2 0x5A72 PUSH1 0x20 DUP4 ADD DUP5 PUSH2 0x461E JUMP JUMPDEST SWAP4 SWAP3 POP POP POP JUMP JUMPDEST PUSH32 0x50726F6F66207265717565737420616C72656164792065786973747300000000 PUSH0 DUP3 ADD MSTORE POP JUMP JUMPDEST PUSH0 PUSH2 0x5AAD PUSH1 0x1C DUP4 PUSH2 0x3B64 JUMP JUMPDEST SWAP2 POP PUSH2 0x5AB8 DUP3 PUSH2 0x5A79 JUMP JUMPDEST PUSH1 0x20 DUP3 ADD SWAP1 POP SWAP2 SWAP1 POP JUMP JUMPDEST PUSH0 PUSH1 0x20 DUP3 ADD SWAP1 POP DUP2 DUP2 SUB PUSH0 DUP4 ADD MSTORE PUSH2 0x5ADA DUP2 PUSH2 0x5AA1 JUMP JUMPDEST SWAP1 POP SWAP2 SWAP1 POP JUMP JUMPDEST PUSH32 0x526F6C65206D757374206265202773656E64657227206F722027726563656976 PUSH0 DUP3 ADD MSTORE PUSH32 0x6572270000000000000000000000000000000000000000000000000000000000 PUSH1 0x20 DUP3 ADD MSTORE POP JUMP JUMPDEST PUSH0 PUSH2 0x5B3B PUSH1 0x23 DUP4 PUSH2 0x3B64 JUMP JUMPDEST SWAP2 POP PUSH2 0x5B46 DUP3 PUSH2 0x5AE1 JUMP JUMPDEST PUSH1 0x40 DUP3 ADD SWAP1 POP SWAP2 SWAP1 POP JUMP JUMPDEST PUSH0 PUSH1 0x20 DUP3 ADD SWAP1 POP DUP2 DUP2 SUB PUSH0 DUP4 ADD MSTORE PUSH2 0x5B68 DUP2 PUSH2 0x5B2F JUMP JUMPDEST SWAP1 POP SWAP2 SWAP1 POP JUMP JUMPDEST PUSH0 PUSH1 0x40 DUP3 ADD SWAP1 POP PUSH2 0x5B82 PUSH0 DUP4 ADD DUP6 PUSH2 0x461E JUMP JUMPDEST PUSH2 0x5B8F PUSH1 0x20 DUP4 ADD DUP5 PUSH2 0x461E JUMP JUMPDEST SWAP4 SWAP3 POP POP POP JUMP JUMPDEST PUSH0 PUSH1 0x80 DUP3 ADD SWAP1 POP PUSH2 0x5BA9 PUSH0 DUP4 ADD DUP8 PUSH2 0x461E JUMP JUMPDEST PUSH2 0x5BB6 PUSH1 0x20 DUP4 ADD DUP7 PUSH2 0x3A54 JUMP JUMPDEST PUSH2 0x5BC3 PUSH1 0x40 DUP4 ADD DUP6 PUSH2 0x3A54 JUMP JUMPDEST PUSH2 0x5BD0 PUSH1 0x60 DUP4 ADD DUP5 PUSH2 0x3A54 JUMP JUMPDEST SWAP6 SWAP5 POP POP POP POP POP JUMP JUMPDEST PUSH0 PUSH1 0x40 DUP3 ADD SWAP1 POP DUP2 DUP2 SUB PUSH0 DUP4 ADD MSTORE PUSH2 0x5BF1 DUP2 DUP6 PUSH2 0x4317 JUMP JUMPDEST SWAP1 POP DUP2 DUP2 SUB PUSH1 0x20 DUP4 ADD MSTORE PUSH2 0x5C05 DUP2 DUP5 PUSH2 0x4317 JUMP JUMPDEST SWAP1 POP SWAP4 SWAP3 POP POP POP JUMP JUMPDEST PUSH0 DUP3 DUP3 MSTORE PUSH1 0x20 DUP3 ADD SWAP1 POP SWAP3 SWAP2 POP POP JUMP JUMPDEST PUSH0 PUSH2 0x5C28 DUP3 PUSH2 0x5674 JUMP JUMPDEST PUSH2 0x5C32 DUP2 DUP6 PUSH2 0x5C0E JUMP JUMPDEST SWAP4 POP PUSH2 0x5C42 DUP2 DUP6 PUSH1 0x20 DUP7 ADD PUSH2 0x3B74 JUMP JUMPDEST PUSH2 0x5C4B DUP2 PUSH2 0x3B9C JUMP JUMPDEST DUP5 ADD SWAP2 POP POP SWAP3 SWAP2 POP POP JUMP JUMPDEST PUSH0 PUSH1 0xA0 DUP3 ADD SWAP1 POP PUSH2 0x5C69 PUSH0 DUP4 ADD DUP9 PUSH2 0x461E JUMP JUMPDEST PUSH2 0x5C76 PUSH1 0x20 DUP4 ADD DUP8 PUSH2 0x461E JUMP JUMPDEST PUSH2 0x5C83 PUSH1 0x40 DUP4 ADD DUP7 PUSH2 0x3A54 JUMP JUMPDEST PUSH2 0x5C90 PUSH1 0x60 DUP4 ADD DUP6 PUSH2 0x3A54 JUMP JUMPDEST DUP2 DUP2 SUB PUSH1 0x80 DUP4 ADD MSTORE PUSH2 0x5CA2 DUP2 DUP5 PUSH2 0x5C1E JUMP JUMPDEST SWAP1 POP SWAP7 SWAP6 POP POP POP POP POP POP JUMP JUMPDEST PUSH0 DUP2 MLOAD SWAP1 POP PUSH2 0x5CBC DUP2 PUSH2 0x3AA7 JUMP JUMPDEST SWAP3 SWAP2 POP POP JUMP JUMPDEST PUSH0 PUSH1 0x20 DUP3 DUP5 SUB SLT ISZERO PUSH2 0x5CD7 JUMPI PUSH2 0x5CD6 PUSH2 0x3981 JUMP JUMPDEST JUMPDEST PUSH0 PUSH2 0x5CE4 DUP5 DUP3 DUP6 ADD PUSH2 0x5CAE JUMP JUMPDEST SWAP2 POP POP SWAP3 SWAP2 POP POP JUMP JUMPDEST PUSH0 PUSH1 0xA0 DUP3 ADD SWAP1 POP PUSH2 0x5D00 PUSH0 DUP4 ADD DUP9 PUSH2 0x461E JUMP JUMPDEST PUSH2 0x5D0D PUSH1 0x20 DUP4 ADD DUP8 PUSH2 0x461E JUMP JUMPDEST DUP2 DUP2 SUB PUSH1 0x40 DUP4 ADD MSTORE PUSH2 0x5D1F DUP2 DUP7 PUSH2 0x4317 JUMP JUMPDEST SWAP1 POP DUP2 DUP2 SUB PUSH1 0x60 DUP4 ADD MSTORE PUSH2 0x5D33 DUP2 DUP6 PUSH2 0x4317 JUMP JUMPDEST SWAP1 POP DUP2 DUP2 SUB PUSH1 0x80 DUP4 ADD MSTORE PUSH2 0x5D47 DUP2 DUP5 PUSH2 0x5C1E JUMP JUMPDEST SWAP1 POP SWAP7 SWAP6 POP POP POP POP POP POP JUMP INVALID LOG2 PUSH5 0x6970667358 0x22 SLT KECCAK256 CODESIZE EXTCODECOPY JUMPDEST PUSH30 0x50981EA4280F93C1503E262F50CCB14CA18DA4DCFE3D8A816062D70A6473 PUSH16 0x6C634300081400330000000000000000 "
	},
	"abi": [
		{
			"inputs": [
				{
					"internalType": "address",
					"name": "sender",
					"type": "address"
				},
				{
					"internalType": "uint256",
					"name": "balance",
					"type": "uint256"
				},
				{
					"internalType": "uint256",
					"name": "needed",
					"type": "uint256"
				},
				{
					"internalType": "uint256",
					"name": "tokenId",
					"type": "uint256"
				}
			],
			"name": "ERC1155InsufficientBalance",
			"type": "error"
		},
		{
			"inputs": [
				{
					"internalType": "address",
					"name": "approver",
					"type": "address"
				}
			],
			"name": "ERC1155InvalidApprover",
			"type": "error"
		},
		{
			"inputs": [
				{
					"internalType": "uint256",
					"name": "idsLength",
					"type": "uint256"
				},
				{
					"internalType": "uint256",
					"name": "valuesLength",
					"type": "uint256"
				}
			],
			"name": "ERC1155InvalidArrayLength",
			"type": "error"
		},
		{
			"inputs": [
				{
					"internalType": "address",
					"name": "operator",
					"type": "address"
				}
			],
			"name": "ERC1155InvalidOperator",
			"type": "error"
		},
		{
			"inputs": [
				{
					"internalType": "address",
					"name": "receiver",
					"type": "address"
				}
			],
			"name": "ERC1155InvalidReceiver",
			"type": "error"
		},
		{
			"inputs": [
				{
					"internalType": "address",
					"name": "sender",
					"type": "address"
				}
			],
			"name": "ERC1155InvalidSender",
			"type": "error"
		},
		{
			"inputs": [
				{
					"internalType": "address",
					"name": "operator",
					"type": "address"
				},
				{
					"internalType": "address",
					"name": "owner",
					"type": "address"
				}
			],
			"name": "ERC1155MissingApprovalForAll",
			"type": "error"
		},
		{
			"inputs": [
				{
					"internalType": "address",
					"name": "owner",
					"type": "address"
				}
			],
			"name": "OwnableInvalidOwner",
			"type": "error"
		},
		{
			"inputs": [
				{
					"internalType": "address",
					"name": "account",
					"type": "address"
				}
			],
			"name": "OwnableUnauthorizedAccount",
			"type": "error"
		},
		{
			"inputs": [
				{
					"internalType": "uint64",
					"name": "requestID",
					"type": "uint64"
				},
				{
					"internalType": "address",
					"name": "proverAddress",
					"type": "address"
				}
			],
			"name": "ProofNotVerified",
			"type": "error"
		},
		{
			"inputs": [
				{
					"internalType": "uint256",
					"name": "tokenID",
					"type": "uint256"
				}
			],
			"name": "TokenIDNotFound",
			"type": "error"
		},
		{
			"inputs": [
				{
					"internalType": "uint256",
					"name": "tokenID",
					"type": "uint256"
				}
			],
			"name": "TokenIDTaken",
			"type": "error"
		},
		{
			"anonymous": false,
			"inputs": [
				{
					"indexed": true,
					"internalType": "address",
					"name": "account",
					"type": "address"
				},
				{
					"indexed": true,
					"internalType": "address",
					"name": "operator",
					"type": "address"
				},
				{
					"indexed": false,
					"internalType": "bool",
					"name": "approved",
					"type": "bool"
				}
			],
			"name": "ApprovalForAll",
			"type": "event"
		},
		{
			"anonymous": false,
			"inputs": [
				{
					"indexed": true,
					"internalType": "address",
					"name": "previousOwner",
					"type": "address"
				},
				{
					"indexed": true,
					"internalType": "address",
					"name": "newOwner",
					"type": "address"
				}
			],
			"name": "OwnershipTransferred",
			"type": "event"
		},
		{
			"anonymous": false,
			"inputs": [
				{
					"indexed": true,
					"internalType": "address",
					"name": "operator",
					"type": "address"
				},
				{
					"indexed": true,
					"internalType": "address",
					"name": "from",
					"type": "address"
				},
				{
					"indexed": true,
					"internalType": "address",
					"name": "to",
					"type": "address"
				},
				{
					"indexed": false,
					"internalType": "uint256[]",
					"name": "ids",
					"type": "uint256[]"
				},
				{
					"indexed": false,
					"internalType": "uint256[]",
					"name": "values",
					"type": "uint256[]"
				}
			],
			"name": "TransferBatch",
			"type": "event"
		},
		{
			"anonymous": false,
			"inputs": [
				{
					"indexed": true,
					"internalType": "address",
					"name": "operator",
					"type": "address"
				},
				{
					"indexed": true,
					"internalType": "address",
					"name": "from",
					"type": "address"
				},
				{
					"indexed": true,
					"internalType": "address",
					"name": "to",
					"type": "address"
				},
				{
					"indexed": false,
					"internalType": "uint256",
					"name": "id",
					"type": "uint256"
				},
				{
					"indexed": false,
					"internalType": "uint256",
					"name": "value",
					"type": "uint256"
				}
			],
			"name": "TransferSingle",
			"type": "event"
		},
		{
			"anonymous": false,
			"inputs": [
				{
					"indexed": false,
					"internalType": "string",
					"name": "value",
					"type": "string"
				},
				{
					"indexed": true,
					"internalType": "uint256",
					"name": "id",
					"type": "uint256"
				}
			],
			"name": "URI",
			"type": "event"
		},
		{
			"inputs": [
				{
					"internalType": "address",
					"name": "_admin",
					"type": "address"
				}
			],
			"name": "addAdmin",
			"outputs": [],
			"stateMutability": "nonpayable",
			"type": "function"
		},
		{
			"inputs": [
				{
					"internalType": "uint64",
					"name": "requestId",
					"type": "uint64"
				},
				{
					"internalType": "string",
					"name": "metadata",
					"type": "string"
				},
				{
					"internalType": "contract ICircuitValidator",
					"name": "validator",
					"type": "address"
				},
				{
					"internalType": "bytes",
					"name": "data",
					"type": "bytes"
				},
				{
					"internalType": "uint256",
					"name": "tokenID",
					"type": "uint256"
				},
				{
					"internalType": "string",
					"name": "role",
					"type": "string"
				},
				{
					"components": [
						{
							"internalType": "string",
							"name": "attribute",
							"type": "string"
						},
						{
							"internalType": "string",
							"name": "operatorStr",
							"type": "string"
						},
						{
							"internalType": "string",
							"name": "value",
							"type": "string"
						}
					],
					"internalType": "struct PMNoAdmin.SpendingCondition",
					"name": "condition",
					"type": "tuple"
				}
			],
			"name": "addProofRequest_VerifierAndPM",
			"outputs": [],
			"stateMutability": "nonpayable",
			"type": "function"
		},
		{
			"inputs": [
				{
					"internalType": "address",
					"name": "account",
					"type": "address"
				},
				{
					"internalType": "uint256",
					"name": "ID",
					"type": "uint256"
				},
				{
					"internalType": "uint256",
					"name": "amount",
					"type": "uint256"
				}
			],
			"name": "burn",
			"outputs": [],
			"stateMutability": "nonpayable",
			"type": "function"
		},
		{
			"inputs": [
				{
					"internalType": "uint256",
					"name": "tokenID",
					"type": "uint256"
				},
				{
					"internalType": "uint64",
					"name": "requestID",
					"type": "uint64"
				}
			],
			"name": "deleteProofRequestAndRole",
			"outputs": [],
			"stateMutability": "nonpayable",
			"type": "function"
		},
		{
			"inputs": [
				{
					"internalType": "address",
					"name": "to",
					"type": "address"
				},
				{
					"internalType": "uint256",
					"name": "amount",
					"type": "uint256"
				},
				{
					"internalType": "bytes",
					"name": "data",
					"type": "bytes"
				},
				{
					"internalType": "string",
					"name": "name",
					"type": "string"
				}
			],
			"name": "mintToken",
			"outputs": [],
			"stateMutability": "nonpayable",
			"type": "function"
		},
		{
			"inputs": [
				{
					"internalType": "address",
					"name": "_admin",
					"type": "address"
				}
			],
			"name": "removeAdmin",
			"outputs": [],
			"stateMutability": "nonpayable",
			"type": "function"
		},
		{
			"inputs": [],
			"name": "renounceOwnership",
			"outputs": [],
			"stateMutability": "nonpayable",
			"type": "function"
		},
		{
			"inputs": [
				{
					"internalType": "address",
					"name": "from",
					"type": "address"
				},
				{
					"internalType": "address",
					"name": "to",
					"type": "address"
				},
				{
					"internalType": "uint256[]",
					"name": "tokenIDs",
					"type": "uint256[]"
				},
				{
					"internalType": "uint256[]",
					"name": "amounts",
					"type": "uint256[]"
				},
				{
					"internalType": "bytes",
					"name": "data",
					"type": "bytes"
				}
			],
			"name": "safeBatchTransferFrom",
			"outputs": [],
			"stateMutability": "nonpayable",
			"type": "function"
		},
		{
			"inputs": [
				{
					"internalType": "address",
					"name": "from",
					"type": "address"
				},
				{
					"internalType": "address",
					"name": "to",
					"type": "address"
				},
				{
					"internalType": "uint256",
					"name": "tokenID",
					"type": "uint256"
				},
				{
					"internalType": "uint256",
					"name": "amount",
					"type": "uint256"
				},
				{
					"internalType": "bytes",
					"name": "data",
					"type": "bytes"
				}
			],
			"name": "safeTransferFrom",
			"outputs": [],
			"stateMutability": "nonpayable",
			"type": "function"
		},
		{
			"inputs": [
				{
					"internalType": "address",
					"name": "operator",
					"type": "address"
				},
				{
					"internalType": "bool",
					"name": "approved",
					"type": "bool"
				}
			],
			"name": "setApprovalForAll",
			"outputs": [],
			"stateMutability": "nonpayable",
			"type": "function"
		},
		{
			"inputs": [
				{
					"internalType": "address",
					"name": "newOwner",
					"type": "address"
				}
			],
			"name": "transferOwnership",
			"outputs": [],
			"stateMutability": "nonpayable",
			"type": "function"
		},
		{
			"inputs": [
				{
					"internalType": "contract UniversalVerifier",
					"name": "verifier_",
					"type": "address"
				},
				{
					"internalType": "address",
					"name": "initialOwner",
					"type": "address"
				},
				{
					"internalType": "string",
					"name": "uri_",
					"type": "string"
				}
			],
			"stateMutability": "nonpayable",
			"type": "constructor"
		},
		{
			"inputs": [],
			"name": "allTokenIDs",
			"outputs": [
				{
					"internalType": "uint256[]",
					"name": "",
					"type": "uint256[]"
				}
			],
			"stateMutability": "view",
			"type": "function"
		},
		{
			"inputs": [
				{
					"internalType": "address",
					"name": "account",
					"type": "address"
				},
				{
					"internalType": "uint256",
					"name": "id",
					"type": "uint256"
				}
			],
			"name": "balanceOf",
			"outputs": [
				{
					"internalType": "uint256",
					"name": "",
					"type": "uint256"
				}
			],
			"stateMutability": "view",
			"type": "function"
		},
		{
			"inputs": [
				{
					"internalType": "address[]",
					"name": "accounts",
					"type": "address[]"
				},
				{
					"internalType": "uint256[]",
					"name": "ids",
					"type": "uint256[]"
				}
			],
			"name": "balanceOfBatch",
			"outputs": [
				{
					"internalType": "uint256[]",
					"name": "",
					"type": "uint256[]"
				}
			],
			"stateMutability": "view",
			"type": "function"
		},
		{
			"inputs": [],
			"name": "getAdmins",
			"outputs": [
				{
					"internalType": "address[]",
					"name": "",
					"type": "address[]"
				}
			],
			"stateMutability": "view",
			"type": "function"
		},
		{
			"inputs": [
				{
					"internalType": "uint256",
					"name": "tokenID",
					"type": "uint256"
				},
				{
					"internalType": "address",
					"name": "user",
					"type": "address"
				}
			],
			"name": "getSpendingConditions",
			"outputs": [
				{
					"internalType": "uint64[]",
					"name": "",
					"type": "uint64[]"
				},
				{
					"components": [
						{
							"internalType": "string",
							"name": "attribute",
							"type": "string"
						},
						{
							"internalType": "string",
							"name": "operatorStr",
							"type": "string"
						},
						{
							"internalType": "string",
							"name": "value",
							"type": "string"
						}
					],
					"internalType": "struct PMNoAdmin.SpendingCondition[]",
					"name": "",
					"type": "tuple[]"
				}
			],
			"stateMutability": "view",
			"type": "function"
		},
		{
			"inputs": [
				{
					"internalType": "address",
					"name": "account",
					"type": "address"
				},
				{
					"internalType": "address",
					"name": "operator",
					"type": "address"
				}
			],
			"name": "isApprovedForAll",
			"outputs": [
				{
					"internalType": "bool",
					"name": "",
					"type": "bool"
				}
			],
			"stateMutability": "view",
			"type": "function"
		},
		{
			"inputs": [],
			"name": "owner",
			"outputs": [
				{
					"internalType": "address",
					"name": "",
					"type": "address"
				}
			],
			"stateMutability": "view",
			"type": "function"
		},
		{
			"inputs": [
				{
					"internalType": "uint256",
					"name": "",
					"type": "uint256"
				}
			],
			"name": "proofRequestIDs",
			"outputs": [
				{
					"internalType": "uint64",
					"name": "",
					"type": "uint64"
				}
			],
			"stateMutability": "view",
			"type": "function"
		},
		{
			"inputs": [
				{
					"internalType": "uint256",
					"name": "",
					"type": "uint256"
				},
				{
					"internalType": "address",
					"name": "",
					"type": "address"
				},
				{
					"internalType": "uint64",
					"name": "",
					"type": "uint64"
				}
			],
			"name": "spendingConditions",
			"outputs": [
				{
					"internalType": "string",
					"name": "attribute",
					"type": "string"
				},
				{
					"internalType": "string",
					"name": "operatorStr",
					"type": "string"
				},
				{
					"internalType": "string",
					"name": "value",
					"type": "string"
				}
			],
			"stateMutability": "view",
			"type": "function"
		},
		{
			"inputs": [
				{
					"internalType": "bytes4",
					"name": "interfaceId",
					"type": "bytes4"
				}
			],
			"name": "supportsInterface",
			"outputs": [
				{
					"internalType": "bool",
					"name": "",
					"type": "bool"
				}
			],
			"stateMutability": "view",
			"type": "function"
		},
		{
			"inputs": [
				{
					"internalType": "uint256",
					"name": "",
					"type": "uint256"
				},
				{
					"internalType": "address",
					"name": "",
					"type": "address"
				},
				{
					"internalType": "uint64",
					"name": "",
					"type": "uint64"
				}
			],
			"name": "tokenID_requestSetter_proofRequest_role",
			"outputs": [
				{
					"internalType": "string",
					"name": "",
					"type": "string"
				}
			],
			"stateMutability": "view",
			"type": "function"
		},
		{
			"inputs": [
				{
					"internalType": "uint256",
					"name": "",
					"type": "uint256"
				}
			],
			"name": "tokenName",
			"outputs": [
				{
					"internalType": "string",
					"name": "",
					"type": "string"
				}
			],
			"stateMutability": "view",
			"type": "function"
		},
		{
			"inputs": [
				{
					"internalType": "uint256",
					"name": "",
					"type": "uint256"
				}
			],
			"name": "uri",
			"outputs": [
				{
					"internalType": "string",
					"name": "",
					"type": "string"
				}
			],
			"stateMutability": "view",
			"type": "function"
		},
		{
			"inputs": [],
			"name": "verifier",
			"outputs": [
				{
					"internalType": "contract UniversalVerifier",
					"name": "",
					"type": "address"
				}
			],
			"stateMutability": "view",
			"type": "function"
		}
	],
	"storageLayout": {
		"storage": [
			{
				"astId": 3430,
				"contract": "PMNoAdmin.sol:PMNoAdmin",
				"label": "_balances",
				"offset": 0,
				"slot": "0",
				"type": "t_mapping(t_uint256,t_mapping(t_address,t_uint256))"
			},
			{
				"astId": 3436,
				"contract": "PMNoAdmin.sol:PMNoAdmin",
				"label": "_operatorApprovals",
				"offset": 0,
				"slot": "1",
				"type": "t_mapping(t_address,t_mapping(t_address,t_bool))"
			},
			{
				"astId": 3438,
				"contract": "PMNoAdmin.sol:PMNoAdmin",
				"label": "_uri",
				"offset": 0,
				"slot": "2",
				"type": "t_string_storage"
			},
			{
				"astId": 3112,
				"contract": "PMNoAdmin.sol:PMNoAdmin",
				"label": "_owner",
				"offset": 0,
				"slot": "3",
				"type": "t_address"
			},
			{
				"astId": 10028,
				"contract": "PMNoAdmin.sol:PMNoAdmin",
				"label": "admins",
				"offset": 0,
				"slot": "4",
				"type": "t_array(t_address)dyn_storage"
			},
			{
				"astId": 10174,
				"contract": "PMNoAdmin.sol:PMNoAdmin",
				"label": "_allTokenIDs",
				"offset": 0,
				"slot": "5",
				"type": "t_struct(UintSet)9862_storage"
			},
			{
				"astId": 10190,
				"contract": "PMNoAdmin.sol:PMNoAdmin",
				"label": "tokenName",
				"offset": 0,
				"slot": "7",
				"type": "t_mapping(t_uint256,t_string_storage)"
			},
			{
				"astId": 10198,
				"contract": "PMNoAdmin.sol:PMNoAdmin",
				"label": "tokenID_requestSetter_proofRequest_role",
				"offset": 0,
				"slot": "8",
				"type": "t_mapping(t_uint256,t_mapping(t_address,t_mapping(t_uint64,t_string_storage)))"
			},
			{
				"astId": 10214,
				"contract": "PMNoAdmin.sol:PMNoAdmin",
				"label": "spendingConditions",
				"offset": 0,
				"slot": "9",
				"type": "t_mapping(t_uint256,t_mapping(t_address,t_mapping(t_uint64,t_struct(SpendingCondition)10205_storage)))"
			},
			{
				"astId": 10217,
				"contract": "PMNoAdmin.sol:PMNoAdmin",
				"label": "proofRequestIDs",
				"offset": 0,
				"slot": "10",
				"type": "t_array(t_uint64)dyn_storage"
			},
			{
				"astId": 10636,
				"contract": "PMNoAdmin.sol:PMNoAdmin",
				"label": "verifier",
				"offset": 0,
				"slot": "11",
				"type": "t_contract(UniversalVerifier)1554"
			}
		],
		"types": {
			"t_address": {
				"encoding": "inplace",
				"label": "address",
				"numberOfBytes": "20"
			},
			"t_array(t_address)dyn_storage": {
				"base": "t_address",
				"encoding": "dynamic_array",
				"label": "address[]",
				"numberOfBytes": "32"
			},
			"t_array(t_bytes32)dyn_storage": {
				"base": "t_bytes32",
				"encoding": "dynamic_array",
				"label": "bytes32[]",
				"numberOfBytes": "32"
			},
			"t_array(t_uint64)dyn_storage": {
				"base": "t_uint64",
				"encoding": "dynamic_array",
				"label": "uint64[]",
				"numberOfBytes": "32"
			},
			"t_bool": {
				"encoding": "inplace",
				"label": "bool",
				"numberOfBytes": "1"
			},
			"t_bytes32": {
				"encoding": "inplace",
				"label": "bytes32",
				"numberOfBytes": "32"
			},
			"t_contract(UniversalVerifier)1554": {
				"encoding": "inplace",
				"label": "contract UniversalVerifier",
				"numberOfBytes": "20"
			},
			"t_mapping(t_address,t_bool)": {
				"encoding": "mapping",
				"key": "t_address",
				"label": "mapping(address => bool)",
				"numberOfBytes": "32",
				"value": "t_bool"
			},
			"t_mapping(t_address,t_mapping(t_address,t_bool))": {
				"encoding": "mapping",
				"key": "t_address",
				"label": "mapping(address => mapping(address => bool))",
				"numberOfBytes": "32",
				"value": "t_mapping(t_address,t_bool)"
			},
			"t_mapping(t_address,t_mapping(t_uint64,t_string_storage))": {
				"encoding": "mapping",
				"key": "t_address",
				"label": "mapping(address => mapping(uint64 => string))",
				"numberOfBytes": "32",
				"value": "t_mapping(t_uint64,t_string_storage)"
			},
			"t_mapping(t_address,t_mapping(t_uint64,t_struct(SpendingCondition)10205_storage))": {
				"encoding": "mapping",
				"key": "t_address",
				"label": "mapping(address => mapping(uint64 => struct PMNoAdmin.SpendingCondition))",
				"numberOfBytes": "32",
				"value": "t_mapping(t_uint64,t_struct(SpendingCondition)10205_storage)"
			},
			"t_mapping(t_address,t_uint256)": {
				"encoding": "mapping",
				"key": "t_address",
				"label": "mapping(address => uint256)",
				"numberOfBytes": "32",
				"value": "t_uint256"
			},
			"t_mapping(t_bytes32,t_uint256)": {
				"encoding": "mapping",
				"key": "t_bytes32",
				"label": "mapping(bytes32 => uint256)",
				"numberOfBytes": "32",
				"value": "t_uint256"
			},
			"t_mapping(t_uint256,t_mapping(t_address,t_mapping(t_uint64,t_string_storage)))": {
				"encoding": "mapping",
				"key": "t_uint256",
				"label": "mapping(uint256 => mapping(address => mapping(uint64 => string)))",
				"numberOfBytes": "32",
				"value": "t_mapping(t_address,t_mapping(t_uint64,t_string_storage))"
			},
			"t_mapping(t_uint256,t_mapping(t_address,t_mapping(t_uint64,t_struct(SpendingCondition)10205_storage)))": {
				"encoding": "mapping",
				"key": "t_uint256",
				"label": "mapping(uint256 => mapping(address => mapping(uint64 => struct PMNoAdmin.SpendingCondition)))",
				"numberOfBytes": "32",
				"value": "t_mapping(t_address,t_mapping(t_uint64,t_struct(SpendingCondition)10205_storage))"
			},
			"t_mapping(t_uint256,t_mapping(t_address,t_uint256))": {
				"encoding": "mapping",
				"key": "t_uint256",
				"label": "mapping(uint256 => mapping(address => uint256))",
				"numberOfBytes": "32",
				"value": "t_mapping(t_address,t_uint256)"
			},
			"t_mapping(t_uint256,t_string_storage)": {
				"encoding": "mapping",
				"key": "t_uint256",
				"label": "mapping(uint256 => string)",
				"numberOfBytes": "32",
				"value": "t_string_storage"
			},
			"t_mapping(t_uint64,t_string_storage)": {
				"encoding": "mapping",
				"key": "t_uint64",
				"label": "mapping(uint64 => string)",
				"numberOfBytes": "32",
				"value": "t_string_storage"
			},
			"t_mapping(t_uint64,t_struct(SpendingCondition)10205_storage)": {
				"encoding": "mapping",
				"key": "t_uint64",
				"label": "mapping(uint64 => struct PMNoAdmin.SpendingCondition)",
				"numberOfBytes": "32",
				"value": "t_struct(SpendingCondition)10205_storage"
			},
			"t_string_storage": {
				"encoding": "bytes",
				"label": "string",
				"numberOfBytes": "32"
			},
			"t_struct(Set)9321_storage": {
				"encoding": "inplace",
				"label": "struct EnumerableSet.Set",
				"members": [
					{
						"astId": 9316,
						"contract": "PMNoAdmin.sol:PMNoAdmin",
						"label": "_values",
						"offset": 0,
						"slot": "0",
						"type": "t_array(t_bytes32)dyn_storage"
					},
					{
						"astId": 9320,
						"contract": "PMNoAdmin.sol:PMNoAdmin",
						"label": "_positions",
						"offset": 0,
						"slot": "1",
						"type": "t_mapping(t_bytes32,t_uint256)"
					}
				],
				"numberOfBytes": "64"
			},
			"t_struct(SpendingCondition)10205_storage": {
				"encoding": "inplace",
				"label": "struct PMNoAdmin.SpendingCondition",
				"members": [
					{
						"astId": 10200,
						"contract": "PMNoAdmin.sol:PMNoAdmin",
						"label": "attribute",
						"offset": 0,
						"slot": "0",
						"type": "t_string_storage"
					},
					{
						"astId": 10202,
						"contract": "PMNoAdmin.sol:PMNoAdmin",
						"label": "operatorStr",
						"offset": 0,
						"slot": "1",
						"type": "t_string_storage"
					},
					{
						"astId": 10204,
						"contract": "PMNoAdmin.sol:PMNoAdmin",
						"label": "value",
						"offset": 0,
						"slot": "2",
						"type": "t_string_storage"
					}
				],
				"numberOfBytes": "96"
			},
			"t_struct(UintSet)9862_storage": {
				"encoding": "inplace",
				"label": "struct EnumerableSet.UintSet",
				"members": [
					{
						"astId": 9861,
						"contract": "PMNoAdmin.sol:PMNoAdmin",
						"label": "_inner",
						"offset": 0,
						"slot": "0",
						"type": "t_struct(Set)9321_storage"
					}
				],
				"numberOfBytes": "64"
			},
			"t_uint256": {
				"encoding": "inplace",
				"label": "uint256",
				"numberOfBytes": "32"
			},
			"t_uint64": {
				"encoding": "inplace",
				"label": "uint64",
				"numberOfBytes": "8"
			}
		}
	},
	"web3Deploy": "var verifier_ = /* var of type address here */ ;\nvar initialOwner = /* var of type address here */ ;\nvar uri_ = /* var of type string here */ ;\nvar pmnoadminContract = new web3.eth.Contract([{\"inputs\":[{\"internalType\":\"contract UniversalVerifier\",\"name\":\"verifier_\",\"type\":\"address\"},{\"internalType\":\"address\",\"name\":\"initialOwner\",\"type\":\"address\"},{\"internalType\":\"string\",\"name\":\"uri_\",\"type\":\"string\"}],\"stateMutability\":\"nonpayable\",\"type\":\"constructor\"},{\"inputs\":[{\"internalType\":\"address\",\"name\":\"sender\",\"type\":\"address\"},{\"internalType\":\"uint256\",\"name\":\"balance\",\"type\":\"uint256\"},{\"internalType\":\"uint256\",\"name\":\"needed\",\"type\":\"uint256\"},{\"internalType\":\"uint256\",\"name\":\"tokenId\",\"type\":\"uint256\"}],\"name\":\"ERC1155InsufficientBalance\",\"type\":\"error\"},{\"inputs\":[{\"internalType\":\"address\",\"name\":\"approver\",\"type\":\"address\"}],\"name\":\"ERC1155InvalidApprover\",\"type\":\"error\"},{\"inputs\":[{\"internalType\":\"uint256\",\"name\":\"idsLength\",\"type\":\"uint256\"},{\"internalType\":\"uint256\",\"name\":\"valuesLength\",\"type\":\"uint256\"}],\"name\":\"ERC1155InvalidArrayLength\",\"type\":\"error\"},{\"inputs\":[{\"internalType\":\"address\",\"name\":\"operator\",\"type\":\"address\"}],\"name\":\"ERC1155InvalidOperator\",\"type\":\"error\"},{\"inputs\":[{\"internalType\":\"address\",\"name\":\"receiver\",\"type\":\"address\"}],\"name\":\"ERC1155InvalidReceiver\",\"type\":\"error\"},{\"inputs\":[{\"internalType\":\"address\",\"name\":\"sender\",\"type\":\"address\"}],\"name\":\"ERC1155InvalidSender\",\"type\":\"error\"},{\"inputs\":[{\"internalType\":\"address\",\"name\":\"operator\",\"type\":\"address\"},{\"internalType\":\"address\",\"name\":\"owner\",\"type\":\"address\"}],\"name\":\"ERC1155MissingApprovalForAll\",\"type\":\"error\"},{\"inputs\":[{\"internalType\":\"address\",\"name\":\"owner\",\"type\":\"address\"}],\"name\":\"OwnableInvalidOwner\",\"type\":\"error\"},{\"inputs\":[{\"internalType\":\"address\",\"name\":\"account\",\"type\":\"address\"}],\"name\":\"OwnableUnauthorizedAccount\",\"type\":\"error\"},{\"inputs\":[{\"internalType\":\"uint64\",\"name\":\"requestID\",\"type\":\"uint64\"},{\"internalType\":\"address\",\"name\":\"proverAddress\",\"type\":\"address\"}],\"name\":\"ProofNotVerified\",\"type\":\"error\"},{\"inputs\":[{\"internalType\":\"uint256\",\"name\":\"tokenID\",\"type\":\"uint256\"}],\"name\":\"TokenIDNotFound\",\"type\":\"error\"},{\"inputs\":[{\"internalType\":\"uint256\",\"name\":\"tokenID\",\"type\":\"uint256\"}],\"name\":\"TokenIDTaken\",\"type\":\"error\"},{\"anonymous\":false,\"inputs\":[{\"indexed\":true,\"internalType\":\"address\",\"name\":\"account\",\"type\":\"address\"},{\"indexed\":true,\"internalType\":\"address\",\"name\":\"operator\",\"type\":\"address\"},{\"indexed\":false,\"internalType\":\"bool\",\"name\":\"approved\",\"type\":\"bool\"}],\"name\":\"ApprovalForAll\",\"type\":\"event\"},{\"anonymous\":false,\"inputs\":[{\"indexed\":true,\"internalType\":\"address\",\"name\":\"previousOwner\",\"type\":\"address\"},{\"indexed\":true,\"internalType\":\"address\",\"name\":\"newOwner\",\"type\":\"address\"}],\"name\":\"OwnershipTransferred\",\"type\":\"event\"},{\"anonymous\":false,\"inputs\":[{\"indexed\":true,\"internalType\":\"address\",\"name\":\"operator\",\"type\":\"address\"},{\"indexed\":true,\"internalType\":\"address\",\"name\":\"from\",\"type\":\"address\"},{\"indexed\":true,\"internalType\":\"address\",\"name\":\"to\",\"type\":\"address\"},{\"indexed\":false,\"internalType\":\"uint256[]\",\"name\":\"ids\",\"type\":\"uint256[]\"},{\"indexed\":false,\"internalType\":\"uint256[]\",\"name\":\"values\",\"type\":\"uint256[]\"}],\"name\":\"TransferBatch\",\"type\":\"event\"},{\"anonymous\":false,\"inputs\":[{\"indexed\":true,\"internalType\":\"address\",\"name\":\"operator\",\"type\":\"address\"},{\"indexed\":true,\"internalType\":\"address\",\"name\":\"from\",\"type\":\"address\"},{\"indexed\":true,\"internalType\":\"address\",\"name\":\"to\",\"type\":\"address\"},{\"indexed\":false,\"internalType\":\"uint256\",\"name\":\"id\",\"type\":\"uint256\"},{\"indexed\":false,\"internalType\":\"uint256\",\"name\":\"value\",\"type\":\"uint256\"}],\"name\":\"TransferSingle\",\"type\":\"event\"},{\"anonymous\":false,\"inputs\":[{\"indexed\":false,\"internalType\":\"string\",\"name\":\"value\",\"type\":\"string\"},{\"indexed\":true,\"internalType\":\"uint256\",\"name\":\"id\",\"type\":\"uint256\"}],\"name\":\"URI\",\"type\":\"event\"},{\"inputs\":[{\"internalType\":\"address\",\"name\":\"_admin\",\"type\":\"address\"}],\"name\":\"addAdmin\",\"outputs\":[],\"stateMutability\":\"nonpayable\",\"type\":\"function\"},{\"inputs\":[{\"internalType\":\"uint64\",\"name\":\"requestId\",\"type\":\"uint64\"},{\"internalType\":\"string\",\"name\":\"metadata\",\"type\":\"string\"},{\"internalType\":\"contract ICircuitValidator\",\"name\":\"validator\",\"type\":\"address\"},{\"internalType\":\"bytes\",\"name\":\"data\",\"type\":\"bytes\"},{\"internalType\":\"uint256\",\"name\":\"tokenID\",\"type\":\"uint256\"},{\"internalType\":\"string\",\"name\":\"role\",\"type\":\"string\"},{\"components\":[{\"internalType\":\"string\",\"name\":\"attribute\",\"type\":\"string\"},{\"internalType\":\"string\",\"name\":\"operatorStr\",\"type\":\"string\"},{\"internalType\":\"string\",\"name\":\"value\",\"type\":\"string\"}],\"internalType\":\"struct PMNoAdmin.SpendingCondition\",\"name\":\"condition\",\"type\":\"tuple\"}],\"name\":\"addProofRequest_VerifierAndPM\",\"outputs\":[],\"stateMutability\":\"nonpayable\",\"type\":\"function\"},{\"inputs\":[],\"name\":\"allTokenIDs\",\"outputs\":[{\"internalType\":\"uint256[]\",\"name\":\"\",\"type\":\"uint256[]\"}],\"stateMutability\":\"view\",\"type\":\"function\"},{\"inputs\":[{\"internalType\":\"address\",\"name\":\"account\",\"type\":\"address\"},{\"internalType\":\"uint256\",\"name\":\"id\",\"type\":\"uint256\"}],\"name\":\"balanceOf\",\"outputs\":[{\"internalType\":\"uint256\",\"name\":\"\",\"type\":\"uint256\"}],\"stateMutability\":\"view\",\"type\":\"function\"},{\"inputs\":[{\"internalType\":\"address[]\",\"name\":\"accounts\",\"type\":\"address[]\"},{\"internalType\":\"uint256[]\",\"name\":\"ids\",\"type\":\"uint256[]\"}],\"name\":\"balanceOfBatch\",\"outputs\":[{\"internalType\":\"uint256[]\",\"name\":\"\",\"type\":\"uint256[]\"}],\"stateMutability\":\"view\",\"type\":\"function\"},{\"inputs\":[{\"internalType\":\"address\",\"name\":\"account\",\"type\":\"address\"},{\"internalType\":\"uint256\",\"name\":\"ID\",\"type\":\"uint256\"},{\"internalType\":\"uint256\",\"name\":\"amount\",\"type\":\"uint256\"}],\"name\":\"burn\",\"outputs\":[],\"stateMutability\":\"nonpayable\",\"type\":\"function\"},{\"inputs\":[{\"internalType\":\"uint256\",\"name\":\"tokenID\",\"type\":\"uint256\"},{\"internalType\":\"uint64\",\"name\":\"requestID\",\"type\":\"uint64\"}],\"name\":\"deleteProofRequestAndRole\",\"outputs\":[],\"stateMutability\":\"nonpayable\",\"type\":\"function\"},{\"inputs\":[],\"name\":\"getAdmins\",\"outputs\":[{\"internalType\":\"address[]\",\"name\":\"\",\"type\":\"address[]\"}],\"stateMutability\":\"view\",\"type\":\"function\"},{\"inputs\":[{\"internalType\":\"uint256\",\"name\":\"tokenID\",\"type\":\"uint256\"},{\"internalType\":\"address\",\"name\":\"user\",\"type\":\"address\"}],\"name\":\"getSpendingConditions\",\"outputs\":[{\"internalType\":\"uint64[]\",\"name\":\"\",\"type\":\"uint64[]\"},{\"components\":[{\"internalType\":\"string\",\"name\":\"attribute\",\"type\":\"string\"},{\"internalType\":\"string\",\"name\":\"operatorStr\",\"type\":\"string\"},{\"internalType\":\"string\",\"name\":\"value\",\"type\":\"string\"}],\"internalType\":\"struct PMNoAdmin.SpendingCondition[]\",\"name\":\"\",\"type\":\"tuple[]\"}],\"stateMutability\":\"view\",\"type\":\"function\"},{\"inputs\":[{\"internalType\":\"address\",\"name\":\"account\",\"type\":\"address\"},{\"internalType\":\"address\",\"name\":\"operator\",\"type\":\"address\"}],\"name\":\"isApprovedForAll\",\"outputs\":[{\"internalType\":\"bool\",\"name\":\"\",\"type\":\"bool\"}],\"stateMutability\":\"view\",\"type\":\"function\"},{\"inputs\":[{\"internalType\":\"address\",\"name\":\"to\",\"type\":\"address\"},{\"internalType\":\"uint256\",\"name\":\"amount\",\"type\":\"uint256\"},{\"internalType\":\"bytes\",\"name\":\"data\",\"type\":\"bytes\"},{\"internalType\":\"string\",\"name\":\"name\",\"type\":\"string\"}],\"name\":\"mintToken\",\"outputs\":[],\"stateMutability\":\"nonpayable\",\"type\":\"function\"},{\"inputs\":[],\"name\":\"owner\",\"outputs\":[{\"internalType\":\"address\",\"name\":\"\",\"type\":\"address\"}],\"stateMutability\":\"view\",\"type\":\"function\"},{\"inputs\":[{\"internalType\":\"uint256\",\"name\":\"\",\"type\":\"uint256\"}],\"name\":\"proofRequestIDs\",\"outputs\":[{\"internalType\":\"uint64\",\"name\":\"\",\"type\":\"uint64\"}],\"stateMutability\":\"view\",\"type\":\"function\"},{\"inputs\":[{\"internalType\":\"address\",\"name\":\"_admin\",\"type\":\"address\"}],\"name\":\"removeAdmin\",\"outputs\":[],\"stateMutability\":\"nonpayable\",\"type\":\"function\"},{\"inputs\":[],\"name\":\"renounceOwnership\",\"outputs\":[],\"stateMutability\":\"nonpayable\",\"type\":\"function\"},{\"inputs\":[{\"internalType\":\"address\",\"name\":\"from\",\"type\":\"address\"},{\"internalType\":\"address\",\"name\":\"to\",\"type\":\"address\"},{\"internalType\":\"uint256[]\",\"name\":\"tokenIDs\",\"type\":\"uint256[]\"},{\"internalType\":\"uint256[]\",\"name\":\"amounts\",\"type\":\"uint256[]\"},{\"internalType\":\"bytes\",\"name\":\"data\",\"type\":\"bytes\"}],\"name\":\"safeBatchTransferFrom\",\"outputs\":[],\"stateMutability\":\"nonpayable\",\"type\":\"function\"},{\"inputs\":[{\"internalType\":\"address\",\"name\":\"from\",\"type\":\"address\"},{\"internalType\":\"address\",\"name\":\"to\",\"type\":\"address\"},{\"internalType\":\"uint256\",\"name\":\"tokenID\",\"type\":\"uint256\"},{\"internalType\":\"uint256\",\"name\":\"amount\",\"type\":\"uint256\"},{\"internalType\":\"bytes\",\"name\":\"data\",\"type\":\"bytes\"}],\"name\":\"safeTransferFrom\",\"outputs\":[],\"stateMutability\":\"nonpayable\",\"type\":\"function\"},{\"inputs\":[{\"internalType\":\"address\",\"name\":\"operator\",\"type\":\"address\"},{\"internalType\":\"bool\",\"name\":\"approved\",\"type\":\"bool\"}],\"name\":\"setApprovalForAll\",\"outputs\":[],\"stateMutability\":\"nonpayable\",\"type\":\"function\"},{\"inputs\":[{\"internalType\":\"uint256\",\"name\":\"\",\"type\":\"uint256\"},{\"internalType\":\"address\",\"name\":\"\",\"type\":\"address\"},{\"internalType\":\"uint64\",\"name\":\"\",\"type\":\"uint64\"}],\"name\":\"spendingConditions\",\"outputs\":[{\"internalType\":\"string\",\"name\":\"attribute\",\"type\":\"string\"},{\"internalType\":\"string\",\"name\":\"operatorStr\",\"type\":\"string\"},{\"internalType\":\"string\",\"name\":\"value\",\"type\":\"string\"}],\"stateMutability\":\"view\",\"type\":\"function\"},{\"inputs\":[{\"internalType\":\"bytes4\",\"name\":\"interfaceId\",\"type\":\"bytes4\"}],\"name\":\"supportsInterface\",\"outputs\":[{\"internalType\":\"bool\",\"name\":\"\",\"type\":\"bool\"}],\"stateMutability\":\"view\",\"type\":\"function\"},{\"inputs\":[{\"internalType\":\"uint256\",\"name\":\"\",\"type\":\"uint256\"},{\"internalType\":\"address\",\"name\":\"\",\"type\":\"address\"},{\"internalType\":\"uint64\",\"name\":\"\",\"type\":\"uint64\"}],\"name\":\"tokenID_requestSetter_proofRequest_role\",\"outputs\":[{\"internalType\":\"string\",\"name\":\"\",\"type\":\"string\"}],\"stateMutability\":\"view\",\"type\":\"function\"},{\"inputs\":[{\"internalType\":\"uint256\",\"name\":\"\",\"type\":\"uint256\"}],\"name\":\"tokenName\",\"outputs\":[{\"internalType\":\"string\",\"name\":\"\",\"type\":\"string\"}],\"stateMutability\":\"view\",\"type\":\"function\"},{\"inputs\":[{\"internalType\":\"address\",\"name\":\"newOwner\",\"type\":\"address\"}],\"name\":\"transferOwnership\",\"outputs\":[],\"stateMutability\":\"nonpayable\",\"type\":\"function\"},{\"inputs\":[{\"internalType\":\"uint256\",\"name\":\"\",\"type\":\"uint256\"}],\"name\":\"uri\",\"outputs\":[{\"internalType\":\"string\",\"name\":\"\",\"type\":\"string\"}],\"stateMutability\":\"view\",\"type\":\"function\"},{\"inputs\":[],\"name\":\"verifier\",\"outputs\":[{\"internalType\":\"contract UniversalVerifier\",\"name\":\"\",\"type\":\"address\"}],\"stateMutability\":\"view\",\"type\":\"function\"}]);\nvar pmnoadmin = pmnoadminContract.deploy({\n     data: '0x608060405234801562000010575f80fd5b506040516200656e3803806200656e833981810160405281019062000036919062000418565b818162000049816200011860201b60201c565b505f73ffffffffffffffffffffffffffffffffffffffff168173ffffffffffffffffffffffffffffffffffffffff1603620000bd575f6040517f1e4fbdf7000000000000000000000000000000000000000000000000000000008152600401620000b49190620004a1565b60405180910390fd5b620000ce816200012d60201b60201c565b5082600b5f6101000a81548173ffffffffffffffffffffffffffffffffffffffff021916908373ffffffffffffffffffffffffffffffffffffffff160217905550505050620007d7565b8060029081620001299190620006f3565b5050565b5f60035f9054906101000a900473ffffffffffffffffffffffffffffffffffffffff1690508160035f6101000a81548173ffffffffffffffffffffffffffffffffffffffff021916908373ffffffffffffffffffffffffffffffffffffffff1602179055508173ffffffffffffffffffffffffffffffffffffffff168173ffffffffffffffffffffffffffffffffffffffff167f8be0079c531659141344cd1fd0a4f28419497f9722a3daafe3b4186f6b6457e060405160405180910390a35050565b5f604051905090565b5f80fd5b5f80fd5b5f73ffffffffffffffffffffffffffffffffffffffff82169050919050565b5f6200022c8262000201565b9050919050565b5f6200023f8262000220565b9050919050565b620002518162000233565b81146200025c575f80fd5b50565b5f815190506200026f8162000246565b92915050565b620002808162000220565b81146200028b575f80fd5b50565b5f815190506200029e8162000275565b92915050565b5f80fd5b5f80fd5b5f601f19601f8301169050919050565b7f4e487b71000000000000000000000000000000000000000000000000000000005f52604160045260245ffd5b620002f482620002ac565b810181811067ffffffffffffffff82111715620003165762000315620002bc565b5b80604052505050565b5f6200032a620001f0565b9050620003388282620002e9565b919050565b5f67ffffffffffffffff8211156200035a5762000359620002bc565b5b6200036582620002ac565b9050602081019050919050565b5f5b838110156200039157808201518184015260208101905062000374565b5f8484015250505050565b5f620003b2620003ac846200033d565b6200031f565b905082815260208101848484011115620003d157620003d0620002a8565b5b620003de84828562000372565b509392505050565b5f82601f830112620003fd57620003fc620002a4565b5b81516200040f8482602086016200039c565b91505092915050565b5f805f60608486031215620004325762000431620001f9565b5b5f62000441868287016200025f565b935050602062000454868287016200028e565b925050604084015167ffffffffffffffff811115620004785762000477620001fd565b5b6200048686828701620003e6565b9150509250925092565b6200049b8162000220565b82525050565b5f602082019050620004b65f83018462000490565b92915050565b5f81519050919050565b7f4e487b71000000000000000000000000000000000000000000000000000000005f52602260045260245ffd5b5f60028204905060018216806200050b57607f821691505b602082108103620005215762000520620004c6565b5b50919050565b5f819050815f5260205f209050919050565b5f6020601f8301049050919050565b5f82821b905092915050565b5f60088302620005857fffffffffffffffffffffffffffffffffffffffffffffffffffffffffffffffff8262000548565b62000591868362000548565b95508019841693508086168417925050509392505050565b5f819050919050565b5f819050919050565b5f620005db620005d5620005cf84620005a9565b620005b2565b620005a9565b9050919050565b5f819050919050565b620005f683620005bb565b6200060e6200060582620005e2565b84845462000554565b825550505050565b5f90565b6200062462000616565b62000631818484620005eb565b505050565b5b8181101562000658576200064c5f826200061a565b60018101905062000637565b5050565b601f821115620006a757620006718162000527565b6200067c8462000539565b810160208510156200068c578190505b620006a46200069b8562000539565b83018262000636565b50505b505050565b5f82821c905092915050565b5f620006c95f1984600802620006ac565b1980831691505092915050565b5f620006e38383620006b8565b9150826002028217905092915050565b620006fe82620004bc565b67ffffffffffffffff8111156200071a5762000719620002bc565b5b620007268254620004f3565b620007338282856200065c565b5f60209050601f83116001811462000769575f841562000754578287015190505b620007608582620006d6565b865550620007cf565b601f198416620007798662000527565b5f5b82811015620007a2578489015182556001820191506020850194506020810190506200077b565b86831015620007c25784890151620007be601f891682620006b8565b8355505b6001600288020188555050505b505050505050565b615d8980620007e55f395ff3fe608060405234801561000f575f80fd5b5060043610610170575f3560e01c8063715018a6116100dc578063bce68ac311610095578063e985e9c51161006f578063e985e9c51461046d578063f242432a1461049d578063f2fde38b146104b9578063f5298aca146104d557610170565b8063bce68ac3146103dc578063d121cdc01461040d578063e725f8771461043d57610170565b8063715018a61461032e5780637330dd84146103385780637578b248146103545780638da5cb5b1461037257806394ad436d14610390578063a22cb465146103c057610170565b80632eb2c2d61161012e5780632eb2c2d61461025a57806331ae450b146102765780634e1273f41461029457806350fbdb2d146102c45780635f54c999146102e0578063704802751461031257610170565b8062fdd58e1461017457806301ffc9a7146101a45780630e89341c146101d45780631785f53c146102045780632b7ac3f3146102205780632dbff9501461023e575b5f80fd5b61018e60048036038101906101899190613a16565b6104f1565b60405161019b9190613a63565b60405180910390f35b6101be60048036038101906101b99190613ad1565b610546565b6040516101cb9190613b16565b60405180910390f35b6101ee60048036038101906101e99190613b2f565b610627565b6040516101fb9190613be4565b60405180910390f35b61021e60048036038101906102199190613c04565b6106b9565b005b610228610880565b6040516102359190613c8a565b60405180910390f35b61025860048036038101906102539190613d59565b6108a5565b005b610274600480360381019061026f9190613fe4565b610b85565b005b61027e610cc1565b60405161028b9190614166565b60405180910390f35b6102ae60048036038101906102a99190614246565b610d54565b6040516102bb9190614373565b60405180910390f35b6102de60048036038101906102d991906143d0565b610e61565b005b6102fa60048036038101906102f5919061440e565b6112a8565b6040516103099392919061445e565b60405180910390f35b61032c60048036038101906103279190613c04565b611476565b005b610336611598565b005b610352600480360381019061034d9190614505565b6115ab565b005b61035c611911565b6040516103699190614373565b60405180910390f35b61037a611922565b604051610387919061462d565b60405180910390f35b6103aa60048036038101906103a5919061440e565b61194a565b6040516103b79190613be4565b60405180910390f35b6103da60048036038101906103d59190614670565b6119fb565b005b6103f660048036038101906103f191906146ae565b611a11565b604051610404929190614901565b60405180910390f35b61042760048036038101906104229190613b2f565b611f9b565b6040516104349190614945565b60405180910390f35b61045760048036038101906104529190613b2f565b611fd6565b6040516104649190613be4565b60405180910390f35b6104876004803603810190610482919061495e565b612071565b6040516104949190613b16565b60405180910390f35b6104b760048036038101906104b2919061499c565b6120ff565b005b6104d360048036038101906104ce9190613c04565b61211e565b005b6104ef60048036038101906104ea9190614a2f565b6121a2565b005b5f805f8381526020019081526020015f205f8473ffffffffffffffffffffffffffffffffffffffff1673ffffffffffffffffffffffffffffffffffffffff1681526020019081526020015f2054905092915050565b5f7fd9b67a26000000000000000000000000000000000000000000000000000000007bffffffffffffffffffffffffffffffffffffffffffffffffffffffff1916827bffffffffffffffffffffffffffffffffffffffffffffffffffffffff1916148061061057507f0e89341c000000000000000000000000000000000000000000000000000000007bffffffffffffffffffffffffffffffffffffffffffffffffffffffff1916827bffffffffffffffffffffffffffffffffffffffffffffffffffffffff1916145b80610620575061061f826121ba565b5b9050919050565b60606002805461063690614aac565b80601f016020809104026020016040519081016040528092919081815260200182805461066290614aac565b80156106ad5780601f10610684576101008083540402835291602001916106ad565b820191905f5260205f20905b81548152906001019060200180831161069057829003601f168201915b50505050509050919050565b6106c1612223565b5f60048054905090505f5b81811015610841578273ffffffffffffffffffffffffffffffffffffffff16600482815481106106ff576106fe614adc565b5b905f5260205f20015f9054906101000a900473ffffffffffffffffffffffffffffffffffffffff1673ffffffffffffffffffffffffffffffffffffffff160361082e5760046001836107519190614b36565b8154811061076257610761614adc565b5b905f5260205f20015f9054906101000a900473ffffffffffffffffffffffffffffffffffffffff166004828154811061079e5761079d614adc565b5b905f5260205f20015f6101000a81548173ffffffffffffffffffffffffffffffffffffffff021916908373ffffffffffffffffffffffffffffffffffffffff16021790555060048054806107f5576107f4614b69565b5b600190038181905f5260205f20015f6101000a81549073ffffffffffffffffffffffffffffffffffffffff02191690559055505061087d565b808061083990614b96565b9150506106cc565b506040517f08c379a000000000000000000000000000000000000000000000000000000000815260040161087490614c27565b60405180910390fd5b50565b600b5f9054906101000a900473ffffffffffffffffffffffffffffffffffffffff1681565b5f82829050116108ea576040517f08c379a00000000000000000000000000000000000000000000000000000000081526004016108e190614c8f565b60405180910390fd5b5f805f6108f760056122aa565b90505f5b815181101561099a578585604051610914929190614cdb565b604051809103902060075f84848151811061093257610931614adc565b5b602002602001015181526020019081526020015f206040516109549190614d85565b6040518091039020036109875781818151811061097457610973614adc565b5b602002602001015193506001925061099a565b808061099290614b96565b9150506108fb565b5081156109f5576109f089848a8a8a8080601f0160208091040260200160405190810160405280939291908181526020018383808284375f81840152601f19601f820116905080830192505050505050506122c9565b610b7a565b5f805f90505b62015f9042448d8a8a86604051602001610a1a96959493929190614e2e565b604051602081830303815290604052805190602001205f1c610a3c9190614eb7565b6103e8610a499190614ee7565b91508080610a5690614b96565b91505060648110610a9c576040517f08c379a0000000000000000000000000000000000000000000000000000000008152600401610a9390614f8a565b60405180910390fd5b610ab082600561235e90919063ffffffff16565b6109fb57610ac882600561237590919063ffffffff16565b610b07576040517f08c379a0000000000000000000000000000000000000000000000000000000008152600401610afe90614ff2565b60405180910390fd5b610b568b838c8c8c8080601f0160208091040260200160405190810160405280939291908181526020018383808284375f81840152601f19601f820116905080830192505050505050506122c9565b868660075f8581526020019081526020015f209182610b769291906151ae565b5050505b505050505050505050565b8151835114610bc9576040517f08c379a0000000000000000000000000000000000000000000000000000000008152600401610bc0906152eb565b60405180910390fd5b5f73ffffffffffffffffffffffffffffffffffffffff168473ffffffffffffffffffffffffffffffffffffffff1603610c37576040517f08c379a0000000000000000000000000000000000000000000000000000000008152600401610c2e90615379565b60405180910390fd5b5f5b8351811015610cb957610c67848281518110610c5857610c57614adc565b5b6020026020010151878761238c565b610ca88686868481518110610c7f57610c7e614adc565b5b6020026020010151868581518110610c9a57610c99614adc565b5b6020026020010151866120ff565b80610cb290614b96565b9050610c39565b505050505050565b6060610ccb612223565b6004805480602002602001604051908101604052809291908181526020018280548015610d4a57602002820191905f5260205f20905b815f9054906101000a900473ffffffffffffffffffffffffffffffffffffffff1673ffffffffffffffffffffffffffffffffffffffff1681526020019060010190808311610d01575b5050505050905090565b60608151835114610da057815183516040517f5b059991000000000000000000000000000000000000000000000000000000008152600401610d97929190615397565b60405180910390fd5b5f835167ffffffffffffffff811115610dbc57610dbb613dfc565b5b604051908082528060200260200182016040528015610dea5781602001602082028036833780820191505090505b5090505f5b8451811015610e5657610e26610e0e828761282490919063ffffffff16565b610e21838761283790919063ffffffff16565b6104f1565b828281518110610e3957610e38614adc565b5b60200260200101818152505080610e4f90614b96565b9050610def565b508091505092915050565b610e7582600561235e90919063ffffffff16565b610eb4576040517f08c379a0000000000000000000000000000000000000000000000000000000008152600401610eab90615408565b60405180910390fd5b5f60085f8481526020019081526020015f205f3373ffffffffffffffffffffffffffffffffffffffff1673ffffffffffffffffffffffffffffffffffffffff1681526020019081526020015f205f8367ffffffffffffffff1667ffffffffffffffff1681526020019081526020015f208054610f2f90614aac565b905003610f71576040517f08c379a0000000000000000000000000000000000000000000000000000000008152600401610f6890615470565b60405180910390fd5b5f60095f8481526020019081526020015f205f3373ffffffffffffffffffffffffffffffffffffffff1673ffffffffffffffffffffffffffffffffffffffff1681526020019081526020015f205f8367ffffffffffffffff1667ffffffffffffffff1681526020019081526020015f205f018054610fee90614aac565b905003611030576040517f08c379a0000000000000000000000000000000000000000000000000000000008152600401611027906154d8565b60405180910390fd5b60085f8381526020019081526020015f205f3373ffffffffffffffffffffffffffffffffffffffff1673ffffffffffffffffffffffffffffffffffffffff1681526020019081526020015f205f8267ffffffffffffffff1667ffffffffffffffff1681526020019081526020015f205f6110aa91906138ff565b60095f8381526020019081526020015f205f3373ffffffffffffffffffffffffffffffffffffffff1673ffffffffffffffffffffffffffffffffffffffff1681526020019081526020015f205f8267ffffffffffffffff1667ffffffffffffffff1681526020019081526020015f205f8082015f61112891906138ff565b600182015f61113791906138ff565b600282015f61114691906138ff565b50505f5b600a805490508110156112a3578167ffffffffffffffff16600a828154811061117657611175614adc565b5b905f5260205f2090600491828204019190066008029054906101000a900467ffffffffffffffff1667ffffffffffffffff160361129057600a6001600a805490506111c19190614b36565b815481106111d2576111d1614adc565b5b905f5260205f2090600491828204019190066008029054906101000a900467ffffffffffffffff16600a828154811061120e5761120d614adc565b5b905f5260205f2090600491828204019190066008026101000a81548167ffffffffffffffff021916908367ffffffffffffffff160217905550600a80548061125957611258614b69565b5b600190038181905f5260205f2090600491828204019190066008026101000a81549067ffffffffffffffff021916905590556112a3565b808061129b90614b96565b91505061114a565b505050565b6009602052825f5260405f20602052815f5260405f20602052805f5260405f205f925092505050805f0180546112dd90614aac565b80601f016020809104026020016040519081016040528092919081815260200182805461130990614aac565b80156113545780601f1061132b57610100808354040283529160200191611354565b820191905f5260205f20905b81548152906001019060200180831161133757829003601f168201915b50505050509080600101805461136990614aac565b80601f016020809104026020016040519081016040528092919081815260200182805461139590614aac565b80156113e05780601f106113b7576101008083540402835291602001916113e0565b820191905f5260205f20905b8154815290600101906020018083116113c357829003601f168201915b5050505050908060020180546113f590614aac565b80601f016020809104026020016040519081016040528092919081815260200182805461142190614aac565b801561146c5780601f106114435761010080835404028352916020019161146c565b820191905f5260205f20905b81548152906001019060200180831161144f57829003601f168201915b5050505050905083565b61147e612223565b5f73ffffffffffffffffffffffffffffffffffffffff168173ffffffffffffffffffffffffffffffffffffffff16036114ec576040517f08c379a00000000000000000000000000000000000000000000000000000000081526004016114e390615540565b60405180910390fd5b6114f58161284a565b15611535576040517f08c379a000000000000000000000000000000000000000000000000000000000815260040161152c906155a8565b60405180910390fd5b600481908060018154018082558091505060019003905f5260205f20015f9091909190916101000a81548173ffffffffffffffffffffffffffffffffffffffff021916908373ffffffffffffffffffffffffffffffffffffffff16021790555050565b6115a0612223565b6115a95f6128f2565b565b5f6115b633866104f1565b116115f6576040517f08c379a00000000000000000000000000000000000000000000000000000000081526004016115ed90615636565b60405180910390fd5b5f60405180606001604052808b8b8080601f0160208091040260200160405190810160405280939291908181526020018383808284375f81840152601f19601f8201169050808301925050505050505081526020018973ffffffffffffffffffffffffffffffffffffffff16815260200188888080601f0160208091040260200160405190810160405280939291908181526020018383808284375f81840152601f19601f820116905080830192505050505050508152509050600b5f9054906101000a900473ffffffffffffffffffffffffffffffffffffffff1673ffffffffffffffffffffffffffffffffffffffff16639f5223e08c836040518363ffffffff1660e01b815260040161170c92919061571a565b5f604051808303815f87803b158015611723575f80fd5b505af1158015611735573d5f803e3d5ffd5b50505050611745858c86866129b5565b604051806060016040528083805f019061175f9190615754565b8080601f0160208091040260200160405190810160405280939291908181526020018383808284375f81840152601f19601f8201169050808301925050505050505081526020018380602001906117b69190615754565b8080601f0160208091040260200160405190810160405280939291908181526020018383808284375f81840152601f19601f82011690508083019250505050505050815260200183806040019061180d9190615754565b8080601f0160208091040260200160405190810160405280939291908181526020018383808284375f81840152601f19601f8201169050808301925050505050505081525060095f8781526020019081526020015f205f3373ffffffffffffffffffffffffffffffffffffffff1673ffffffffffffffffffffffffffffffffffffffff1681526020019081526020015f205f8d67ffffffffffffffff1667ffffffffffffffff1681526020019081526020015f205f820151815f0190816118d491906157b6565b5060208201518160010190816118ea91906157b6565b50604082015181600201908161190091906157b6565b509050505050505050505050505050565b606061191d60056122aa565b905090565b5f60035f9054906101000a900473ffffffffffffffffffffffffffffffffffffffff16905090565b6008602052825f5260405f20602052815f5260405f20602052805f5260405f205f925092505050805461197c90614aac565b80601f01602080910402602001604051908101604052809291908181526020018280546119a890614aac565b80156119f35780601f106119ca576101008083540402835291602001916119f3565b820191905f5260205f20905b8154815290600101906020018083116119d657829003601f168201915b505050505081565b611a0d611a06612c90565b8383612c97565b5050565b6060805f600a805480602002602001604051908101604052809291908181526020018280548015611a9257602002820191905f5260205f20905f905b82829054906101000a900467ffffffffffffffff1667ffffffffffffffff1681526020019060080190602082600701049283019260010382029150808411611a4d5790505b505050505090505f805b8251811015611b66575f60095f8981526020019081526020015f205f8873ffffffffffffffffffffffffffffffffffffffff1673ffffffffffffffffffffffffffffffffffffffff1681526020019081526020015f205f858481518110611b0657611b05614adc565b5b602002602001015167ffffffffffffffff1667ffffffffffffffff1681526020019081526020015f205f018054611b3c90614aac565b90501115611b53578180611b4f90614b96565b9250505b8080611b5e90614b96565b915050611a9c565b505f8167ffffffffffffffff811115611b8257611b81613dfc565b5b604051908082528060200260200182016040528015611bb05781602001602082028036833780820191505090505b5090505f8267ffffffffffffffff811115611bce57611bcd613dfc565b5b604051908082528060200260200182016040528015611c0757816020015b611bf461393c565b815260200190600190039081611bec5790505b5090505f805b8551811015611f88575f60095f8c81526020019081526020015f205f8b73ffffffffffffffffffffffffffffffffffffffff1673ffffffffffffffffffffffffffffffffffffffff1681526020019081526020015f205f888481518110611c7757611c76614adc565b5b602002602001015167ffffffffffffffff1667ffffffffffffffff1681526020019081526020015f205f018054611cad90614aac565b90501115611f7557858181518110611cc857611cc7614adc565b5b6020026020010151848381518110611ce357611ce2614adc565b5b602002602001019067ffffffffffffffff16908167ffffffffffffffff168152505060095f8b81526020019081526020015f205f8a73ffffffffffffffffffffffffffffffffffffffff1673ffffffffffffffffffffffffffffffffffffffff1681526020019081526020015f205f878381518110611d6557611d64614adc565b5b602002602001015167ffffffffffffffff1667ffffffffffffffff1681526020019081526020015f206040518060600160405290815f82018054611da890614aac565b80601f0160208091040260200160405190810160405280929190818152602001828054611dd490614aac565b8015611e1f5780601f10611df657610100808354040283529160200191611e1f565b820191905f5260205f20905b815481529060010190602001808311611e0257829003601f168201915b50505050508152602001600182018054611e3890614aac565b80601f0160208091040260200160405190810160405280929190818152602001828054611e6490614aac565b8015611eaf5780601f10611e8657610100808354040283529160200191611eaf565b820191905f5260205f20905b815481529060010190602001808311611e9257829003601f168201915b50505050508152602001600282018054611ec890614aac565b80601f0160208091040260200160405190810160405280929190818152602001828054611ef490614aac565b8015611f3f5780601f10611f1657610100808354040283529160200191611f3f565b820191905f5260205f20905b815481529060010190602001808311611f2257829003601f168201915b505050505081525050838381518110611f5b57611f5a614adc565b5b60200260200101819052508180611f7190614b96565b9250505b8080611f8090614b96565b915050611c0d565b5082829650965050505050509250929050565b600a8181548110611faa575f80fd5b905f5260205f209060049182820401919006600802915054906101000a900467ffffffffffffffff1681565b6007602052805f5260405f205f915090508054611ff290614aac565b80601f016020809104026020016040519081016040528092919081815260200182805461201e90614aac565b80156120695780601f1061204057610100808354040283529160200191612069565b820191905f5260205f20905b81548152906001019060200180831161204c57829003601f168201915b505050505081565b5f60015f8473ffffffffffffffffffffffffffffffffffffffff1673ffffffffffffffffffffffffffffffffffffffff1681526020019081526020015f205f8373ffffffffffffffffffffffffffffffffffffffff1673ffffffffffffffffffffffffffffffffffffffff1681526020019081526020015f205f9054906101000a900460ff16905092915050565b61210a83868661238c565b6121178585858585612e00565b5050505050565b612126612223565b5f73ffffffffffffffffffffffffffffffffffffffff168173ffffffffffffffffffffffffffffffffffffffff1603612196575f6040517f1e4fbdf700000000000000000000000000000000000000000000000000000000815260040161218d919061462d565b60405180910390fd5b61219f816128f2565b50565b6121aa612223565b6121b5838383612ea7565b505050565b5f7f01ffc9a7000000000000000000000000000000000000000000000000000000007bffffffffffffffffffffffffffffffffffffffffffffffffffffffff1916827bffffffffffffffffffffffffffffffffffffffffffffffffffffffff1916149050919050565b61222b612c90565b73ffffffffffffffffffffffffffffffffffffffff16612249611922565b73ffffffffffffffffffffffffffffffffffffffff16146122a85761226c612c90565b6040517f118cdaa700000000000000000000000000000000000000000000000000000000815260040161229f919061462d565b60405180910390fd5b565b60605f6122b8835f01612f49565b905060608190508092505050919050565b5f73ffffffffffffffffffffffffffffffffffffffff168473ffffffffffffffffffffffffffffffffffffffff1603612339575f6040517f57f447ce000000000000000000000000000000000000000000000000000000008152600401612330919061462d565b60405180910390fd5b5f806123458585612fa2565b915091506123565f87848487612fd2565b505050505050565b5f61236d835f01835f1b61307e565b905092915050565b5f612384835f01835f1b61309e565b905092915050565b5f600a80548060200260200160405190810160405280929190818152602001828054801561240a57602002820191905f5260205f20905f905b82829054906101000a900467ffffffffffffffff1667ffffffffffffffff16815260200190600801906020826007010492830192600103820291508084116123c55790505b505050505090505f5b815181101561281d575f60085f8781526020019081526020015f205f8673ffffffffffffffffffffffffffffffffffffffff1673ffffffffffffffffffffffffffffffffffffffff1681526020019081526020015f205f84848151811061247d5761247c614adc565b5b602002602001015167ffffffffffffffff1667ffffffffffffffff1681526020019081526020015f2080546124b190614aac565b80601f01602080910402602001604051908101604052809291908181526020018280546124dd90614aac565b80156125285780601f106124ff57610100808354040283529160200191612528565b820191905f5260205f20905b81548152906001019060200180831161250b57829003601f168201915b505050505090505f81510361253d575061280a565b6040518060400160405280600681526020017f73656e6465720000000000000000000000000000000000000000000000000000815250805190602001208180519060200120036126a457600b5f9054906101000a900473ffffffffffffffffffffffffffffffffffffffff1673ffffffffffffffffffffffffffffffffffffffff16638c1da2c9868585815181106125d8576125d7614adc565b5b60200260200101516040518363ffffffff1660e01b81526004016125fd929190615885565b5f60405180830381865afa158015612617573d5f803e3d5ffd5b505050506040513d5f823e3d601f19601f8201168201806040525081019061263f9190615a0b565b5f015161269f5782828151811061265957612658614adc565b5b6020026020010151856040517fa5a4608e000000000000000000000000000000000000000000000000000000008152600401612696929190615a52565b60405180910390fd5b612808565b6040518060400160405280600881526020017f72656365697665720000000000000000000000000000000000000000000000008152508051906020012081805190602001200361280757600b5f9054906101000a900473ffffffffffffffffffffffffffffffffffffffff1673ffffffffffffffffffffffffffffffffffffffff16638c1da2c98585858151811061273f5761273e614adc565b5b60200260200101516040518363ffffffff1660e01b8152600401612764929190615885565b5f60405180830381865afa15801561277e573d5f803e3d5ffd5b505050506040513d5f823e3d601f19601f820116820180604052508101906127a69190615a0b565b5f0151612806578282815181106127c0576127bf614adc565b5b6020026020010151846040517fa5a4608e0000000000000000000000000000000000000000000000000000000081526004016127fd929190615a52565b60405180910390fd5b5b5b505b808061281590614b96565b915050612413565b5050505050565b5f60208202602084010151905092915050565b5f60208202602084010151905092915050565b5f805f90505b6004805490508110156128e8578273ffffffffffffffffffffffffffffffffffffffff166004828154811061288857612887614adc565b5b905f5260205f20015f9054906101000a900473ffffffffffffffffffffffffffffffffffffffff1673ffffffffffffffffffffffffffffffffffffffff16036128d55760019150506128ed565b80806128e090614b96565b915050612850565b505f90505b919050565b5f60035f9054906101000a900473ffffffffffffffffffffffffffffffffffffffff1690508160035f6101000a81548173ffffffffffffffffffffffffffffffffffffffff021916908373ffffffffffffffffffffffffffffffffffffffff1602179055508173ffffffffffffffffffffffffffffffffffffffff168173ffffffffffffffffffffffffffffffffffffffff167f8be0079c531659141344cd1fd0a4f28419497f9722a3daafe3b4186f6b6457e060405160405180910390a35050565b6129c984600561235e90919063ffffffff16565b612a08576040517f08c379a00000000000000000000000000000000000000000000000000000000081526004016129ff90615408565b60405180910390fd5b5f60085f8681526020019081526020015f205f3373ffffffffffffffffffffffffffffffffffffffff1673ffffffffffffffffffffffffffffffffffffffff1681526020019081526020015f205f8567ffffffffffffffff1667ffffffffffffffff1681526020019081526020015f208054612a8390614aac565b905014612ac5576040517f08c379a0000000000000000000000000000000000000000000000000000000008152600401612abc90615ac3565b60405180910390fd5b6040518060400160405280600681526020017f73656e6465720000000000000000000000000000000000000000000000000000815250805190602001208282604051612b12929190614cdb565b60405180910390201480612b7857506040518060400160405280600881526020017f7265636569766572000000000000000000000000000000000000000000000000815250805190602001208282604051612b6e929190614cdb565b6040518091039020145b612bb7576040517f08c379a0000000000000000000000000000000000000000000000000000000008152600401612bae90615b51565b60405180910390fd5b818160085f8781526020019081526020015f205f3373ffffffffffffffffffffffffffffffffffffffff1673ffffffffffffffffffffffffffffffffffffffff1681526020019081526020015f205f8667ffffffffffffffff1667ffffffffffffffff1681526020019081526020015f209182612c359291906151ae565b50600a83908060018154018082558091505060019003905f5260205f2090600491828204019190066008029091909190916101000a81548167ffffffffffffffff021916908367ffffffffffffffff16021790555050505050565b5f33905090565b5f73ffffffffffffffffffffffffffffffffffffffff168273ffffffffffffffffffffffffffffffffffffffff1603612d07575f6040517fced3e100000000000000000000000000000000000000000000000000000000008152600401612cfe919061462d565b60405180910390fd5b8060015f8573ffffffffffffffffffffffffffffffffffffffff1673ffffffffffffffffffffffffffffffffffffffff1681526020019081526020015f205f8473ffffffffffffffffffffffffffffffffffffffff1673ffffffffffffffffffffffffffffffffffffffff1681526020019081526020015f205f6101000a81548160ff0219169083151502179055508173ffffffffffffffffffffffffffffffffffffffff168373ffffffffffffffffffffffffffffffffffffffff167f17307eab39ab6107e8899845ad3d59bd9653f200f220920489ca2b5937696c3183604051612df39190613b16565b60405180910390a3505050565b5f612e09612c90565b90508073ffffffffffffffffffffffffffffffffffffffff168673ffffffffffffffffffffffffffffffffffffffff1614158015612e4e5750612e4c8682612071565b155b15612e925780866040517fe237d922000000000000000000000000000000000000000000000000000000008152600401612e89929190615b6f565b60405180910390fd5b612e9f8686868686613105565b505050505050565b5f73ffffffffffffffffffffffffffffffffffffffff168373ffffffffffffffffffffffffffffffffffffffff1603612f17575f6040517f01a83514000000000000000000000000000000000000000000000000000000008152600401612f0e919061462d565b60405180910390fd5b5f80612f238484612fa2565b91509150612f42855f848460405180602001604052805f815250612fd2565b5050505050565b6060815f01805480602002602001604051908101604052809291908181526020018280548015612f9657602002820191905f5260205f20905b815481526020019060010190808311612f82575b50505050509050919050565b60608060405191506001825283602083015260408201905060018152826020820152604081016040529250929050565b612fde8585858561320b565b5f73ffffffffffffffffffffffffffffffffffffffff168473ffffffffffffffffffffffffffffffffffffffff1614613077575f61301a612c90565b90506001845103613066575f6130395f8661283790919063ffffffff16565b90505f61304f5f8661283790919063ffffffff16565b905061305f8389898585896135a1565b5050613075565b613074818787878787613750565b5b505b5050505050565b5f80836001015f8481526020019081526020015f20541415905092915050565b5f6130a9838361307e565b6130fb57825f0182908060018154018082558091505060019003905f5260205f20015f9091909190915055825f0180549050836001015f8481526020019081526020015f2081905550600190506130ff565b5f90505b92915050565b5f73ffffffffffffffffffffffffffffffffffffffff168473ffffffffffffffffffffffffffffffffffffffff1603613175575f6040517f57f447ce00000000000000000000000000000000000000000000000000000000815260040161316c919061462d565b60405180910390fd5b5f73ffffffffffffffffffffffffffffffffffffffff168573ffffffffffffffffffffffffffffffffffffffff16036131e5575f6040517f01a835140000000000000000000000000000000000000000000000000000000081526004016131dc919061462d565b60405180910390fd5b5f806131f18585612fa2565b915091506132028787848487612fd2565b50505050505050565b805182511461325557815181516040517f5b05999100000000000000000000000000000000000000000000000000000000815260040161324c929190615397565b60405180910390fd5b5f61325e612c90565b90505f5b8351811015613460575f61327f828661283790919063ffffffff16565b90505f613295838661283790919063ffffffff16565b90505f73ffffffffffffffffffffffffffffffffffffffff168873ffffffffffffffffffffffffffffffffffffffff16146133b8575f805f8481526020019081526020015f205f8a73ffffffffffffffffffffffffffffffffffffffff1673ffffffffffffffffffffffffffffffffffffffff1681526020019081526020015f205490508181101561336457888183856040517f03dee4c500000000000000000000000000000000000000000000000000000000815260040161335b9493929190615b96565b60405180910390fd5b8181035f808581526020019081526020015f205f8b73ffffffffffffffffffffffffffffffffffffffff1673ffffffffffffffffffffffffffffffffffffffff1681526020019081526020015f2081905550505b5f73ffffffffffffffffffffffffffffffffffffffff168773ffffffffffffffffffffffffffffffffffffffff161461344d57805f808481526020019081526020015f205f8973ffffffffffffffffffffffffffffffffffffffff1673ffffffffffffffffffffffffffffffffffffffff1681526020019081526020015f205f8282546134459190614ee7565b925050819055505b50508061345990614b96565b9050613262565b50600183510361351b575f61347e5f8561283790919063ffffffff16565b90505f6134945f8561283790919063ffffffff16565b90508573ffffffffffffffffffffffffffffffffffffffff168773ffffffffffffffffffffffffffffffffffffffff168473ffffffffffffffffffffffffffffffffffffffff167fc3d58168c5ae7397731d063d5bbf3d657854427343f4c083240f7aacaa2d0f62858560405161350c929190615397565b60405180910390a4505061359a565b8373ffffffffffffffffffffffffffffffffffffffff168573ffffffffffffffffffffffffffffffffffffffff168273ffffffffffffffffffffffffffffffffffffffff167f4a39dc06d4c0dbc64b70af90fd698a233a518aa5d07e595d983b8c0526c8f7fb8686604051613591929190615bd9565b60405180910390a45b5050505050565b5f8473ffffffffffffffffffffffffffffffffffffffff163b1115613748578373ffffffffffffffffffffffffffffffffffffffff1663f23a6e6187878686866040518663ffffffff1660e01b8152600401613601959493929190615c56565b6020604051808303815f875af192505050801561363c57506040513d601f19601f820116820180604052508101906136399190615cc2565b60015b6136bd573d805f811461366a576040519150601f19603f3d011682016040523d82523d5f602084013e61366f565b606091505b505f8151036136b557846040517f57f447ce0000000000000000000000000000000000000000000000000000000081526004016136ac919061462d565b60405180910390fd5b805181602001fd5b63f23a6e6160e01b7bffffffffffffffffffffffffffffffffffffffffffffffffffffffff1916817bffffffffffffffffffffffffffffffffffffffffffffffffffffffff19161461374657846040517f57f447ce00000000000000000000000000000000000000000000000000000000815260040161373d919061462d565b60405180910390fd5b505b505050505050565b5f8473ffffffffffffffffffffffffffffffffffffffff163b11156138f7578373ffffffffffffffffffffffffffffffffffffffff1663bc197c8187878686866040518663ffffffff1660e01b81526004016137b0959493929190615ced565b6020604051808303815f875af19250505080156137eb57506040513d601f19601f820116820180604052508101906137e89190615cc2565b60015b61386c573d805f8114613819576040519150601f19603f3d011682016040523d82523d5f602084013e61381e565b606091505b505f81510361386457846040517f57f447ce00000000000000000000000000000000000000000000000000000000815260040161385b919061462d565b60405180910390fd5b805181602001fd5b63bc197c8160e01b7bffffffffffffffffffffffffffffffffffffffffffffffffffffffff1916817bffffffffffffffffffffffffffffffffffffffffffffffffffffffff1916146138f557846040517f57f447ce0000000000000000000000000000000000000000000000000000000081526004016138ec919061462d565b60405180910390fd5b505b505050505050565b50805461390b90614aac565b5f825580601f1061391c5750613939565b601f0160209004905f5260205f2090810190613938919061395d565b5b50565b60405180606001604052806060815260200160608152602001606081525090565b5b80821115613974575f815f90555060010161395e565b5090565b5f604051905090565b5f80fd5b5f80fd5b5f73ffffffffffffffffffffffffffffffffffffffff82169050919050565b5f6139b282613989565b9050919050565b6139c2816139a8565b81146139cc575f80fd5b50565b5f813590506139dd816139b9565b92915050565b5f819050919050565b6139f5816139e3565b81146139ff575f80fd5b50565b5f81359050613a10816139ec565b92915050565b5f8060408385031215613a2c57613a2b613981565b5b5f613a39858286016139cf565b9250506020613a4a85828601613a02565b9150509250929050565b613a5d816139e3565b82525050565b5f602082019050613a765f830184613a54565b92915050565b5f7fffffffff0000000000000000000000000000000000000000000000000000000082169050919050565b613ab081613a7c565b8114613aba575f80fd5b50565b5f81359050613acb81613aa7565b92915050565b5f60208284031215613ae657613ae5613981565b5b5f613af384828501613abd565b91505092915050565b5f8115159050919050565b613b1081613afc565b82525050565b5f602082019050613b295f830184613b07565b92915050565b5f60208284031215613b4457613b43613981565b5b5f613b5184828501613a02565b91505092915050565b5f81519050919050565b5f82825260208201905092915050565b5f5b83811015613b91578082015181840152602081019050613b76565b5f8484015250505050565b5f601f19601f8301169050919050565b5f613bb682613b5a565b613bc08185613b64565b9350613bd0818560208601613b74565b613bd981613b9c565b840191505092915050565b5f6020820190508181035f830152613bfc8184613bac565b905092915050565b5f60208284031215613c1957613c18613981565b5b5f613c26848285016139cf565b91505092915050565b5f819050919050565b5f613c52613c4d613c4884613989565b613c2f565b613989565b9050919050565b5f613c6382613c38565b9050919050565b5f613c7482613c59565b9050919050565b613c8481613c6a565b82525050565b5f602082019050613c9d5f830184613c7b565b92915050565b5f80fd5b5f80fd5b5f80fd5b5f8083601f840112613cc457613cc3613ca3565b5b8235905067ffffffffffffffff811115613ce157613ce0613ca7565b5b602083019150836001820283011115613cfd57613cfc613cab565b5b9250929050565b5f8083601f840112613d1957613d18613ca3565b5b8235905067ffffffffffffffff811115613d3657613d35613ca7565b5b602083019150836001820283011115613d5257613d51613cab565b5b9250929050565b5f805f805f8060808789031215613d7357613d72613981565b5b5f613d8089828a016139cf565b9650506020613d9189828a01613a02565b955050604087013567ffffffffffffffff811115613db257613db1613985565b5b613dbe89828a01613caf565b9450945050606087013567ffffffffffffffff811115613de157613de0613985565b5b613ded89828a01613d04565b92509250509295509295509295565b7f4e487b71000000000000000000000000000000000000000000000000000000005f52604160045260245ffd5b613e3282613b9c565b810181811067ffffffffffffffff82111715613e5157613e50613dfc565b5b80604052505050565b5f613e63613978565b9050613e6f8282613e29565b919050565b5f67ffffffffffffffff821115613e8e57613e8d613dfc565b5b602082029050602081019050919050565b5f613eb1613eac84613e74565b613e5a565b90508083825260208201905060208402830185811115613ed457613ed3613cab565b5b835b81811015613efd5780613ee98882613a02565b845260208401935050602081019050613ed6565b5050509392505050565b5f82601f830112613f1b57613f1a613ca3565b5b8135613f2b848260208601613e9f565b91505092915050565b5f80fd5b5f67ffffffffffffffff821115613f5257613f51613dfc565b5b613f5b82613b9c565b9050602081019050919050565b828183375f83830152505050565b5f613f88613f8384613f38565b613e5a565b905082815260208101848484011115613fa457613fa3613f34565b5b613faf848285613f68565b509392505050565b5f82601f830112613fcb57613fca613ca3565b5b8135613fdb848260208601613f76565b91505092915050565b5f805f805f60a08688031215613ffd57613ffc613981565b5b5f61400a888289016139cf565b955050602061401b888289016139cf565b945050604086013567ffffffffffffffff81111561403c5761403b613985565b5b61404888828901613f07565b935050606086013567ffffffffffffffff81111561406957614068613985565b5b61407588828901613f07565b925050608086013567ffffffffffffffff81111561409657614095613985565b5b6140a288828901613fb7565b9150509295509295909350565b5f81519050919050565b5f82825260208201905092915050565b5f819050602082019050919050565b6140e1816139a8565b82525050565b5f6140f283836140d8565b60208301905092915050565b5f602082019050919050565b5f614114826140af565b61411e81856140b9565b9350614129836140c9565b805f5b8381101561415957815161414088826140e7565b975061414b836140fe565b92505060018101905061412c565b5085935050505092915050565b5f6020820190508181035f83015261417e818461410a565b905092915050565b5f67ffffffffffffffff8211156141a05761419f613dfc565b5b602082029050602081019050919050565b5f6141c36141be84614186565b613e5a565b905080838252602082019050602084028301858111156141e6576141e5613cab565b5b835b8181101561420f57806141fb88826139cf565b8452602084019350506020810190506141e8565b5050509392505050565b5f82601f83011261422d5761422c613ca3565b5b813561423d8482602086016141b1565b91505092915050565b5f806040838503121561425c5761425b613981565b5b5f83013567ffffffffffffffff81111561427957614278613985565b5b61428585828601614219565b925050602083013567ffffffffffffffff8111156142a6576142a5613985565b5b6142b285828601613f07565b9150509250929050565b5f81519050919050565b5f82825260208201905092915050565b5f819050602082019050919050565b6142ee816139e3565b82525050565b5f6142ff83836142e5565b60208301905092915050565b5f602082019050919050565b5f614321826142bc565b61432b81856142c6565b9350614336836142d6565b805f5b8381101561436657815161434d88826142f4565b97506143588361430b565b925050600181019050614339565b5085935050505092915050565b5f6020820190508181035f83015261438b8184614317565b905092915050565b5f67ffffffffffffffff82169050919050565b6143af81614393565b81146143b9575f80fd5b50565b5f813590506143ca816143a6565b92915050565b5f80604083850312156143e6576143e5613981565b5b5f6143f385828601613a02565b9250506020614404858286016143bc565b9150509250929050565b5f805f6060848603121561442557614424613981565b5b5f61443286828701613a02565b9350506020614443868287016139cf565b9250506040614454868287016143bc565b9150509250925092565b5f6060820190508181035f8301526144768186613bac565b9050818103602083015261448a8185613bac565b9050818103604083015261449e8184613bac565b9050949350505050565b5f6144b2826139a8565b9050919050565b6144c2816144a8565b81146144cc575f80fd5b50565b5f813590506144dd816144b9565b92915050565b5f80fd5b5f606082840312156144fc576144fb6144e3565b5b81905092915050565b5f805f805f805f805f8060e08b8d03121561452357614522613981565b5b5f6145308d828e016143bc565b9a505060208b013567ffffffffffffffff81111561455157614550613985565b5b61455d8d828e01613d04565b995099505060406145708d828e016144cf565b97505060608b013567ffffffffffffffff81111561459157614590613985565b5b61459d8d828e01613caf565b965096505060806145b08d828e01613a02565b94505060a08b013567ffffffffffffffff8111156145d1576145d0613985565b5b6145dd8d828e01613d04565b935093505060c08b013567ffffffffffffffff811115614600576145ff613985565b5b61460c8d828e016144e7565b9150509295989b9194979a5092959850565b614627816139a8565b82525050565b5f6020820190506146405f83018461461e565b92915050565b61464f81613afc565b8114614659575f80fd5b50565b5f8135905061466a81614646565b92915050565b5f806040838503121561468657614685613981565b5b5f614693858286016139cf565b92505060206146a48582860161465c565b9150509250929050565b5f80604083850312156146c4576146c3613981565b5b5f6146d185828601613a02565b92505060206146e2858286016139cf565b9150509250929050565b5f81519050919050565b5f82825260208201905092915050565b5f819050602082019050919050565b61471e81614393565b82525050565b5f61472f8383614715565b60208301905092915050565b5f602082019050919050565b5f614751826146ec565b61475b81856146f6565b935061476683614706565b805f5b8381101561479657815161477d8882614724565b97506147888361473b565b925050600181019050614769565b5085935050505092915050565b5f81519050919050565b5f82825260208201905092915050565b5f819050602082019050919050565b5f82825260208201905092915050565b5f6147e682613b5a565b6147f081856147cc565b9350614800818560208601613b74565b61480981613b9c565b840191505092915050565b5f606083015f8301518482035f86015261482e82826147dc565b9150506020830151848203602086015261484882826147dc565b9150506040830151848203604086015261486282826147dc565b9150508091505092915050565b5f61487a8383614814565b905092915050565b5f602082019050919050565b5f614898826147a3565b6148a281856147ad565b9350836020820285016148b4856147bd565b805f5b858110156148ef57848403895281516148d0858261486f565b94506148db83614882565b925060208a019950506001810190506148b7565b50829750879550505050505092915050565b5f6040820190508181035f8301526149198185614747565b9050818103602083015261492d818461488e565b90509392505050565b61493f81614393565b82525050565b5f6020820190506149585f830184614936565b92915050565b5f806040838503121561497457614973613981565b5b5f614981858286016139cf565b9250506020614992858286016139cf565b9150509250929050565b5f805f805f60a086880312156149b5576149b4613981565b5b5f6149c2888289016139cf565b95505060206149d3888289016139cf565b94505060406149e488828901613a02565b93505060606149f588828901613a02565b925050608086013567ffffffffffffffff811115614a1657614a15613985565b5b614a2288828901613fb7565b9150509295509295909350565b5f805f60608486031215614a4657614a45613981565b5b5f614a53868287016139cf565b9350506020614a6486828701613a02565b9250506040614a7586828701613a02565b9150509250925092565b7f4e487b71000000000000000000000000000000000000000000000000000000005f52602260045260245ffd5b5f6002820490506001821680614ac357607f821691505b602082108103614ad657614ad5614a7f565b5b50919050565b7f4e487b71000000000000000000000000000000000000000000000000000000005f52603260045260245ffd5b7f4e487b71000000000000000000000000000000000000000000000000000000005f52601160045260245ffd5b5f614b40826139e3565b9150614b4b836139e3565b9250828203905081811115614b6357614b62614b09565b5b92915050565b7f4e487b71000000000000000000000000000000000000000000000000000000005f52603160045260245ffd5b5f614ba0826139e3565b91507fffffffffffffffffffffffffffffffffffffffffffffffffffffffffffffffff8203614bd257614bd1614b09565b5b600182019050919050565b7f41646d696e206e6f7420666f756e6400000000000000000000000000000000005f82015250565b5f614c11600f83613b64565b9150614c1c82614bdd565b602082019050919050565b5f6020820190508181035f830152614c3e81614c05565b9050919050565b7f4e616d65207265717569726564000000000000000000000000000000000000005f82015250565b5f614c79600d83613b64565b9150614c8482614c45565b602082019050919050565b5f6020820190508181035f830152614ca681614c6d565b9050919050565b5f81905092915050565b5f614cc28385614cad565b9350614ccf838584613f68565b82840190509392505050565b5f614ce7828486614cb7565b91508190509392505050565b5f819050815f5260205f209050919050565b5f8154614d1181614aac565b614d1b8186614cad565b9450600182165f8114614d355760018114614d4a57614d7c565b60ff1983168652811515820286019350614d7c565b614d5385614cf3565b5f5b83811015614d7457815481890152600182019150602081019050614d55565b838801955050505b50505092915050565b5f614d908284614d05565b915081905092915050565b5f819050919050565b614db5614db0826139e3565b614d9b565b82525050565b5f8160601b9050919050565b5f614dd182614dbb565b9050919050565b5f614de282614dc7565b9050919050565b614dfa614df5826139a8565b614dd8565b82525050565b5f81905092915050565b5f614e158385614e00565b9350614e22838584613f68565b82840190509392505050565b5f614e398289614da4565b602082019150614e498288614da4565b602082019150614e598287614de9565b601482019150614e6a828587614e0a565b9150614e768284614da4565b602082019150819050979650505050505050565b7f4e487b71000000000000000000000000000000000000000000000000000000005f52601260045260245ffd5b5f614ec1826139e3565b9150614ecc836139e3565b925082614edc57614edb614e8a565b5b828206905092915050565b5f614ef1826139e3565b9150614efc836139e3565b9250828201905080821115614f1457614f13614b09565b5b92915050565b7f556e61626c6520746f2066696e6420756e697175652073686f727420746f6b655f8201527f6e20494400000000000000000000000000000000000000000000000000000000602082015250565b5f614f74602483613b64565b9150614f7f82614f1a565b604082019050919050565b5f6020820190508181035f830152614fa181614f68565b9050919050565b7f546f6b656e494454616b656e00000000000000000000000000000000000000005f82015250565b5f614fdc600c83613b64565b9150614fe782614fa8565b602082019050919050565b5f6020820190508181035f83015261500981614fd0565b9050919050565b5f82905092915050565b5f819050815f5260205f209050919050565b5f6020601f8301049050919050565b5f82821b905092915050565b5f600883026150767fffffffffffffffffffffffffffffffffffffffffffffffffffffffffffffffff8261503b565b615080868361503b565b95508019841693508086168417925050509392505050565b5f6150b26150ad6150a8846139e3565b613c2f565b6139e3565b9050919050565b5f819050919050565b6150cb83615098565b6150df6150d7826150b9565b848454615047565b825550505050565b5f90565b6150f36150e7565b6150fe8184846150c2565b505050565b5b81811015615121576151165f826150eb565b600181019050615104565b5050565b601f821115615166576151378161501a565b6151408461502c565b8101602085101561514f578190505b61516361515b8561502c565b830182615103565b50505b505050565b5f82821c905092915050565b5f6151865f198460080261516b565b1980831691505092915050565b5f61519e8383615177565b9150826002028217905092915050565b6151b88383615010565b67ffffffffffffffff8111156151d1576151d0613dfc565b5b6151db8254614aac565b6151e6828285615125565b5f601f831160018114615213575f8415615201578287013590505b61520b8582615193565b865550615272565b601f1984166152218661501a565b5f5b8281101561524857848901358255600182019150602085019450602081019050615223565b868310156152655784890135615261601f891682615177565b8355505b6001600288020188555050505b50505050505050565b7f455243313135353a204d69736d617463686564206172726179206c656e6774685f8201527f7300000000000000000000000000000000000000000000000000000000000000602082015250565b5f6152d5602183613b64565b91506152e08261527b565b604082019050919050565b5f6020820190508181035f830152615302816152c9565b9050919050565b7f455243313135353a207472616e7366657220746f20746865207a65726f2061645f8201527f6472657373000000000000000000000000000000000000000000000000000000602082015250565b5f615363602583613b64565b915061536e82615309565b604082019050919050565b5f6020820190508181035f83015261539081615357565b9050919050565b5f6040820190506153aa5f830185613a54565b6153b76020830184613a54565b9392505050565b7f746f6b656e20696420646f6573206e6f742065786973740000000000000000005f82015250565b5f6153f2601783613b64565b91506153fd826153be565b602082019050919050565b5f6020820190508181035f83015261541f816153e6565b9050919050565b7f50726f6f66207265717565737420646f6573206e6f74206578697374000000005f82015250565b5f61545a601c83613b64565b915061546582615426565b602082019050919050565b5f6020820190508181035f8301526154878161544e565b9050919050565b7f4e6f207370656e64696e6720636f6e646974696f6e20746f2064656c657465005f82015250565b5f6154c2601f83613b64565b91506154cd8261548e565b602082019050919050565b5f6020820190508181035f8301526154ef816154b6565b9050919050565b7f496e76616c6964206164647265737300000000000000000000000000000000005f82015250565b5f61552a600f83613b64565b9150615535826154f6565b602082019050919050565b5f6020820190508181035f8301526155578161551e565b9050919050565b7f4164647265737320697320616c726561647920616e2061646d696e00000000005f82015250565b5f615592601b83613b64565b915061559d8261555e565b602082019050919050565b5f6020820190508181035f8301526155bf81615586565b9050919050565b7f4f6e6c79206d6f6e6579206f776e65722063616e20616464207370656e64696e5f8201527f6720636f6e646974696f6e2e0000000000000000000000000000000000000000602082015250565b5f615620602c83613b64565b915061562b826155c6565b604082019050919050565b5f6020820190508181035f83015261564d81615614565b9050919050565b5f61565e82613c59565b9050919050565b61566e81615654565b82525050565b5f81519050919050565b5f82825260208201905092915050565b5f61569882615674565b6156a2818561567e565b93506156b2818560208601613b74565b6156bb81613b9c565b840191505092915050565b5f606083015f8301518482035f8601526156e082826147dc565b91505060208301516156f56020860182615665565b506040830151848203604086015261570d828261568e565b9150508091505092915050565b5f60408201905061572d5f830185614936565b818103602083015261573f81846156c6565b90509392505050565b5f80fd5b5f80fd5b5f80fd5b5f80833560016020038436030381126157705761576f615748565b5b80840192508235915067ffffffffffffffff8211156157925761579161574c565b5b6020830192506001820236038313156157ae576157ad615750565b5b509250929050565b6157bf82613b5a565b67ffffffffffffffff8111156157d8576157d7613dfc565b5b6157e28254614aac565b6157ed828285615125565b5f60209050601f83116001811461581e575f841561580c578287015190505b6158168582615193565b86555061587d565b601f19841661582c8661501a565b5f5b828110156158535784890151825560018201915060208501945060208101905061582e565b86831015615870578489015161586c601f891682615177565b8355505b6001600288020188555050505b505050505050565b5f6040820190506158985f83018561461e565b6158a56020830184614936565b9392505050565b5f80fd5b5f80fd5b5f815190506158c281614646565b92915050565b5f67ffffffffffffffff8211156158e2576158e1613dfc565b5b6158eb82613b9c565b9050602081019050919050565b5f61590a615905846158c8565b613e5a565b90508281526020810184848401111561592657615925613f34565b5b615931848285613b74565b509392505050565b5f82601f83011261594d5761594c613ca3565b5b815161595d8482602086016158f8565b91505092915050565b5f81519050615974816139ec565b92915050565b5f6080828403121561598f5761598e6158ac565b5b6159996080613e5a565b90505f6159a8848285016158b4565b5f83015250602082015167ffffffffffffffff8111156159cb576159ca6158b0565b5b6159d784828501615939565b60208301525060406159eb84828501615966565b60408301525060606159ff84828501615966565b60608301525092915050565b5f60208284031215615a2057615a1f613981565b5b5f82015167ffffffffffffffff811115615a3d57615a3c613985565b5b615a498482850161597a565b91505092915050565b5f604082019050615a655f830185614936565b615a72602083018461461e565b9392505050565b7f50726f6f66207265717565737420616c726561647920657869737473000000005f82015250565b5f615aad601c83613b64565b9150615ab882615a79565b602082019050919050565b5f6020820190508181035f830152615ada81615aa1565b9050919050565b7f526f6c65206d757374206265202773656e64657227206f7220277265636569765f8201527f6572270000000000000000000000000000000000000000000000000000000000602082015250565b5f615b3b602383613b64565b9150615b4682615ae1565b604082019050919050565b5f6020820190508181035f830152615b6881615b2f565b9050919050565b5f604082019050615b825f83018561461e565b615b8f602083018461461e565b9392505050565b5f608082019050615ba95f83018761461e565b615bb66020830186613a54565b615bc36040830185613a54565b615bd06060830184613a54565b95945050505050565b5f6040820190508181035f830152615bf18185614317565b90508181036020830152615c058184614317565b90509392505050565b5f82825260208201905092915050565b5f615c2882615674565b615c328185615c0e565b9350615c42818560208601613b74565b615c4b81613b9c565b840191505092915050565b5f60a082019050615c695f83018861461e565b615c76602083018761461e565b615c836040830186613a54565b615c906060830185613a54565b8181036080830152615ca28184615c1e565b90509695505050505050565b5f81519050615cbc81613aa7565b92915050565b5f60208284031215615cd757615cd6613981565b5b5f615ce484828501615cae565b91505092915050565b5f60a082019050615d005f83018861461e565b615d0d602083018761461e565b8181036040830152615d1f8186614317565b90508181036060830152615d338185614317565b90508181036080830152615d478184615c1e565b9050969550505050505056fea2646970667358221220383c5b7d50981ea4280f93c1503e262f50ccb14ca18da4dcfe3d8a816062d70a64736f6c63430008140033', \n     arguments: [\n          verifier_,\n          initialOwner,\n          uri_,\n     ]\n}).send({\n     from: web3.eth.accounts[0], \n     gas: '4700000'\n   }, function (e, contract){\n    console.log(e, contract);\n    if (typeof contract.address !== 'undefined') {\n         console.log('Contract mined! address: ' + contract.address + ' transactionHash: ' + contract.transactionHash);\n    }\n })",
	"functionHashes": {
		"70480275": "addAdmin(address)",
		"7330dd84": "addProofRequest_VerifierAndPM(uint64,string,address,bytes,uint256,string,(string,string,string))",
		"7578b248": "allTokenIDs()",
		"00fdd58e": "balanceOf(address,uint256)",
		"4e1273f4": "balanceOfBatch(address[],uint256[])",
		"f5298aca": "burn(address,uint256,uint256)",
		"50fbdb2d": "deleteProofRequestAndRole(uint256,uint64)",
		"31ae450b": "getAdmins()",
		"bce68ac3": "getSpendingConditions(uint256,address)",
		"e985e9c5": "isApprovedForAll(address,address)",
		"2dbff950": "mintToken(address,uint256,bytes,string)",
		"8da5cb5b": "owner()",
		"d121cdc0": "proofRequestIDs(uint256)",
		"1785f53c": "removeAdmin(address)",
		"715018a6": "renounceOwnership()",
		"2eb2c2d6": "safeBatchTransferFrom(address,address,uint256[],uint256[],bytes)",
		"f242432a": "safeTransferFrom(address,address,uint256,uint256,bytes)",
		"a22cb465": "setApprovalForAll(address,bool)",
		"5f54c999": "spendingConditions(uint256,address,uint64)",
		"01ffc9a7": "supportsInterface(bytes4)",
		"94ad436d": "tokenID_requestSetter_proofRequest_role(uint256,address,uint64)",
		"e725f877": "tokenName(uint256)",
		"f2fde38b": "transferOwnership(address)",
		"0e89341c": "uri(uint256)",
		"2b7ac3f3": "verifier()"
	},
	"gasEstimates": {
		"Creation": {
			"codeDepositCost": "4789000",
			"executionCost": "infinite",
			"totalCost": "infinite"
		},
		"External": {
			"addAdmin(address)": "infinite",
			"addProofRequest_VerifierAndPM(uint64,string,address,bytes,uint256,string,(string,string,string))": "infinite",
			"allTokenIDs()": "infinite",
			"balanceOf(address,uint256)": "infinite",
			"balanceOfBatch(address[],uint256[])": "infinite",
			"burn(address,uint256,uint256)": "infinite",
			"deleteProofRequestAndRole(uint256,uint64)": "infinite",
			"getAdmins()": "infinite",
			"getSpendingConditions(uint256,address)": "infinite",
			"isApprovedForAll(address,address)": "infinite",
			"mintToken(address,uint256,bytes,string)": "infinite",
			"owner()": "2604",
			"proofRequestIDs(uint256)": "6606",
			"removeAdmin(address)": "infinite",
			"renounceOwnership()": "infinite",
			"safeBatchTransferFrom(address,address,uint256[],uint256[],bytes)": "infinite",
			"safeTransferFrom(address,address,uint256,uint256,bytes)": "infinite",
			"setApprovalForAll(address,bool)": "infinite",
			"spendingConditions(uint256,address,uint64)": "infinite",
			"supportsInterface(bytes4)": "809",
			"tokenID_requestSetter_proofRequest_role(uint256,address,uint64)": "infinite",
			"tokenName(uint256)": "infinite",
			"transferOwnership(address)": "infinite",
			"uri(uint256)": "infinite",
			"verifier()": "infinite"
		},
		"Internal": {
			"_checkAllProofsVerified(uint256,address,address)": "infinite",
			"_isAdmin(address)": "infinite",
			"addProofRequestAndRole(uint256,uint64,string calldata)": "infinite"
		}
	},
	"devdoc": {
		"errors": {
			"ERC1155InsufficientBalance(address,uint256,uint256,uint256)": [
				{
					"details": "Indicates an error related to the current `balance` of a `sender`. Used in transfers.",
					"params": {
						"balance": "Current balance for the interacting account.",
						"needed": "Minimum amount required to perform a transfer.",
						"sender": "Address whose tokens are being transferred.",
						"tokenId": "Identifier number of a token."
					}
				}
			],
			"ERC1155InvalidApprover(address)": [
				{
					"details": "Indicates a failure with the `approver` of a token to be approved. Used in approvals.",
					"params": {
						"approver": "Address initiating an approval operation."
					}
				}
			],
			"ERC1155InvalidArrayLength(uint256,uint256)": [
				{
					"details": "Indicates an array length mismatch between ids and values in a safeBatchTransferFrom operation. Used in batch transfers.",
					"params": {
						"idsLength": "Length of the array of token identifiers",
						"valuesLength": "Length of the array of token amounts"
					}
				}
			],
			"ERC1155InvalidOperator(address)": [
				{
					"details": "Indicates a failure with the `operator` to be approved. Used in approvals.",
					"params": {
						"operator": "Address that may be allowed to operate on tokens without being their owner."
					}
				}
			],
			"ERC1155InvalidReceiver(address)": [
				{
					"details": "Indicates a failure with the token `receiver`. Used in transfers.",
					"params": {
						"receiver": "Address to which tokens are being transferred."
					}
				}
			],
			"ERC1155InvalidSender(address)": [
				{
					"details": "Indicates a failure with the token `sender`. Used in transfers.",
					"params": {
						"sender": "Address whose tokens are being transferred."
					}
				}
			],
			"ERC1155MissingApprovalForAll(address,address)": [
				{
					"details": "Indicates a failure with the `operator`’s approval. Used in transfers.",
					"params": {
						"operator": "Address that may be allowed to operate on tokens without being their owner.",
						"owner": "Address of the current owner of a token."
					}
				}
			],
			"OwnableInvalidOwner(address)": [
				{
					"details": "The owner is not a valid owner account. (eg. `address(0)`)"
				}
			],
			"OwnableUnauthorizedAccount(address)": [
				{
					"details": "The caller account is not authorized to perform an operation."
				}
			]
		},
		"events": {
			"ApprovalForAll(address,address,bool)": {
				"details": "Emitted when `account` grants or revokes permission to `operator` to transfer their tokens, according to `approved`."
			},
			"TransferBatch(address,address,address,uint256[],uint256[])": {
				"details": "Equivalent to multiple {TransferSingle} events, where `operator`, `from` and `to` are the same for all transfers."
			},
			"TransferSingle(address,address,address,uint256,uint256)": {
				"details": "Emitted when `value` amount of tokens of type `id` are transferred from `from` to `to` by `operator`."
			},
			"URI(string,uint256)": {
				"details": "Emitted when the URI for token type `id` changes to `value`, if it is a non-programmatic URI. If an {URI} event was emitted for `id`, the standard https://eips.ethereum.org/EIPS/eip-1155#metadata-extensions[guarantees] that `value` will equal the value returned by {IERC1155MetadataURI-uri}."
			}
		},
		"kind": "dev",
		"methods": {
			"balanceOf(address,uint256)": {
				"details": "See {IERC1155-balanceOf}."
			},
			"balanceOfBatch(address[],uint256[])": {
				"details": "See {IERC1155-balanceOfBatch}. Requirements: - `accounts` and `ids` must have the same length."
			},
			"isApprovedForAll(address,address)": {
				"details": "See {IERC1155-isApprovedForAll}."
			},
			"mintToken(address,uint256,bytes,string)": {
				"details": "The function no longer requires the ID argument. The name must be non-empty."
			},
			"owner()": {
				"details": "Returns the address of the current owner."
			},
			"renounceOwnership()": {
				"details": "Leaves the contract without owner. It will not be possible to call `onlyOwner` functions. Can only be called by the current owner. NOTE: Renouncing ownership will leave the contract without an owner, thereby disabling any functionality that is only available to the owner."
			},
			"setApprovalForAll(address,bool)": {
				"details": "See {IERC1155-setApprovalForAll}."
			},
			"supportsInterface(bytes4)": {
				"details": "See {IERC165-supportsInterface}."
			},
			"transferOwnership(address)": {
				"details": "Transfers ownership of the contract to a new account (`newOwner`). Can only be called by the current owner."
			},
			"uri(uint256)": {
				"details": "See {IERC1155MetadataURI-uri}. This implementation returns the same URI for *all* token types. It relies on the token type ID substitution mechanism https://eips.ethereum.org/EIPS/eip-1155#metadata[defined in the ERC]. Clients calling this function must replace the `\\{id\\}` substring with the actual token type ID."
			}
		},
		"version": 1
	},
	"userdoc": {
		"kind": "user",
		"methods": {
			"allTokenIDs()": {
				"notice": "Returns the full list of token IDs ever minted"
			},
			"getSpendingConditions(uint256,address)": {
				"notice": "Get all spending conditions for a given tokenID and user"
			},
			"mintToken(address,uint256,bytes,string)": {
				"notice": "Mint a token by name. If the name exists, mint the existing token.  If the name does not exist, mint a new token with a random unused ID and assign the name. Anyone can call this function to mint a token, for testing purposes. In production, this function should be restricted to the owner or a specific role."
			}
		},
		"version": 1
	},
	"Runtime Bytecode": {
		"immutableReferences": {},
		"linkReferences": {},
		"object": "608060405234801561000f575f80fd5b5060043610610170575f3560e01c8063715018a6116100dc578063bce68ac311610095578063e985e9c51161006f578063e985e9c51461046d578063f242432a1461049d578063f2fde38b146104b9578063f5298aca146104d557610170565b8063bce68ac3146103dc578063d121cdc01461040d578063e725f8771461043d57610170565b8063715018a61461032e5780637330dd84146103385780637578b248146103545780638da5cb5b1461037257806394ad436d14610390578063a22cb465146103c057610170565b80632eb2c2d61161012e5780632eb2c2d61461025a57806331ae450b146102765780634e1273f41461029457806350fbdb2d146102c45780635f54c999146102e0578063704802751461031257610170565b8062fdd58e1461017457806301ffc9a7146101a45780630e89341c146101d45780631785f53c146102045780632b7ac3f3146102205780632dbff9501461023e575b5f80fd5b61018e60048036038101906101899190613a16565b6104f1565b60405161019b9190613a63565b60405180910390f35b6101be60048036038101906101b99190613ad1565b610546565b6040516101cb9190613b16565b60405180910390f35b6101ee60048036038101906101e99190613b2f565b610627565b6040516101fb9190613be4565b60405180910390f35b61021e60048036038101906102199190613c04565b6106b9565b005b610228610880565b6040516102359190613c8a565b60405180910390f35b61025860048036038101906102539190613d59565b6108a5565b005b610274600480360381019061026f9190613fe4565b610b85565b005b61027e610cc1565b60405161028b9190614166565b60405180910390f35b6102ae60048036038101906102a99190614246565b610d54565b6040516102bb9190614373565b60405180910390f35b6102de60048036038101906102d991906143d0565b610e61565b005b6102fa60048036038101906102f5919061440e565b6112a8565b6040516103099392919061445e565b60405180910390f35b61032c60048036038101906103279190613c04565b611476565b005b610336611598565b005b610352600480360381019061034d9190614505565b6115ab565b005b61035c611911565b6040516103699190614373565b60405180910390f35b61037a611922565b604051610387919061462d565b60405180910390f35b6103aa60048036038101906103a5919061440e565b61194a565b6040516103b79190613be4565b60405180910390f35b6103da60048036038101906103d59190614670565b6119fb565b005b6103f660048036038101906103f191906146ae565b611a11565b604051610404929190614901565b60405180910390f35b61042760048036038101906104229190613b2f565b611f9b565b6040516104349190614945565b60405180910390f35b61045760048036038101906104529190613b2f565b611fd6565b6040516104649190613be4565b60405180910390f35b6104876004803603810190610482919061495e565b612071565b6040516104949190613b16565b60405180910390f35b6104b760048036038101906104b2919061499c565b6120ff565b005b6104d360048036038101906104ce9190613c04565b61211e565b005b6104ef60048036038101906104ea9190614a2f565b6121a2565b005b5f805f8381526020019081526020015f205f8473ffffffffffffffffffffffffffffffffffffffff1673ffffffffffffffffffffffffffffffffffffffff1681526020019081526020015f2054905092915050565b5f7fd9b67a26000000000000000000000000000000000000000000000000000000007bffffffffffffffffffffffffffffffffffffffffffffffffffffffff1916827bffffffffffffffffffffffffffffffffffffffffffffffffffffffff1916148061061057507f0e89341c000000000000000000000000000000000000000000000000000000007bffffffffffffffffffffffffffffffffffffffffffffffffffffffff1916827bffffffffffffffffffffffffffffffffffffffffffffffffffffffff1916145b80610620575061061f826121ba565b5b9050919050565b60606002805461063690614aac565b80601f016020809104026020016040519081016040528092919081815260200182805461066290614aac565b80156106ad5780601f10610684576101008083540402835291602001916106ad565b820191905f5260205f20905b81548152906001019060200180831161069057829003601f168201915b50505050509050919050565b6106c1612223565b5f60048054905090505f5b81811015610841578273ffffffffffffffffffffffffffffffffffffffff16600482815481106106ff576106fe614adc565b5b905f5260205f20015f9054906101000a900473ffffffffffffffffffffffffffffffffffffffff1673ffffffffffffffffffffffffffffffffffffffff160361082e5760046001836107519190614b36565b8154811061076257610761614adc565b5b905f5260205f20015f9054906101000a900473ffffffffffffffffffffffffffffffffffffffff166004828154811061079e5761079d614adc565b5b905f5260205f20015f6101000a81548173ffffffffffffffffffffffffffffffffffffffff021916908373ffffffffffffffffffffffffffffffffffffffff16021790555060048054806107f5576107f4614b69565b5b600190038181905f5260205f20015f6101000a81549073ffffffffffffffffffffffffffffffffffffffff02191690559055505061087d565b808061083990614b96565b9150506106cc565b506040517f08c379a000000000000000000000000000000000000000000000000000000000815260040161087490614c27565b60405180910390fd5b50565b600b5f9054906101000a900473ffffffffffffffffffffffffffffffffffffffff1681565b5f82829050116108ea576040517f08c379a00000000000000000000000000000000000000000000000000000000081526004016108e190614c8f565b60405180910390fd5b5f805f6108f760056122aa565b90505f5b815181101561099a578585604051610914929190614cdb565b604051809103902060075f84848151811061093257610931614adc565b5b602002602001015181526020019081526020015f206040516109549190614d85565b6040518091039020036109875781818151811061097457610973614adc565b5b602002602001015193506001925061099a565b808061099290614b96565b9150506108fb565b5081156109f5576109f089848a8a8a8080601f0160208091040260200160405190810160405280939291908181526020018383808284375f81840152601f19601f820116905080830192505050505050506122c9565b610b7a565b5f805f90505b62015f9042448d8a8a86604051602001610a1a96959493929190614e2e565b604051602081830303815290604052805190602001205f1c610a3c9190614eb7565b6103e8610a499190614ee7565b91508080610a5690614b96565b91505060648110610a9c576040517f08c379a0000000000000000000000000000000000000000000000000000000008152600401610a9390614f8a565b60405180910390fd5b610ab082600561235e90919063ffffffff16565b6109fb57610ac882600561237590919063ffffffff16565b610b07576040517f08c379a0000000000000000000000000000000000000000000000000000000008152600401610afe90614ff2565b60405180910390fd5b610b568b838c8c8c8080601f0160208091040260200160405190810160405280939291908181526020018383808284375f81840152601f19601f820116905080830192505050505050506122c9565b868660075f8581526020019081526020015f209182610b769291906151ae565b5050505b505050505050505050565b8151835114610bc9576040517f08c379a0000000000000000000000000000000000000000000000000000000008152600401610bc0906152eb565b60405180910390fd5b5f73ffffffffffffffffffffffffffffffffffffffff168473ffffffffffffffffffffffffffffffffffffffff1603610c37576040517f08c379a0000000000000000000000000000000000000000000000000000000008152600401610c2e90615379565b60405180910390fd5b5f5b8351811015610cb957610c67848281518110610c5857610c57614adc565b5b6020026020010151878761238c565b610ca88686868481518110610c7f57610c7e614adc565b5b6020026020010151868581518110610c9a57610c99614adc565b5b6020026020010151866120ff565b80610cb290614b96565b9050610c39565b505050505050565b6060610ccb612223565b6004805480602002602001604051908101604052809291908181526020018280548015610d4a57602002820191905f5260205f20905b815f9054906101000a900473ffffffffffffffffffffffffffffffffffffffff1673ffffffffffffffffffffffffffffffffffffffff1681526020019060010190808311610d01575b5050505050905090565b60608151835114610da057815183516040517f5b059991000000000000000000000000000000000000000000000000000000008152600401610d97929190615397565b60405180910390fd5b5f835167ffffffffffffffff811115610dbc57610dbb613dfc565b5b604051908082528060200260200182016040528015610dea5781602001602082028036833780820191505090505b5090505f5b8451811015610e5657610e26610e0e828761282490919063ffffffff16565b610e21838761283790919063ffffffff16565b6104f1565b828281518110610e3957610e38614adc565b5b60200260200101818152505080610e4f90614b96565b9050610def565b508091505092915050565b610e7582600561235e90919063ffffffff16565b610eb4576040517f08c379a0000000000000000000000000000000000000000000000000000000008152600401610eab90615408565b60405180910390fd5b5f60085f8481526020019081526020015f205f3373ffffffffffffffffffffffffffffffffffffffff1673ffffffffffffffffffffffffffffffffffffffff1681526020019081526020015f205f8367ffffffffffffffff1667ffffffffffffffff1681526020019081526020015f208054610f2f90614aac565b905003610f71576040517f08c379a0000000000000000000000000000000000000000000000000000000008152600401610f6890615470565b60405180910390fd5b5f60095f8481526020019081526020015f205f3373ffffffffffffffffffffffffffffffffffffffff1673ffffffffffffffffffffffffffffffffffffffff1681526020019081526020015f205f8367ffffffffffffffff1667ffffffffffffffff1681526020019081526020015f205f018054610fee90614aac565b905003611030576040517f08c379a0000000000000000000000000000000000000000000000000000000008152600401611027906154d8565b60405180910390fd5b60085f8381526020019081526020015f205f3373ffffffffffffffffffffffffffffffffffffffff1673ffffffffffffffffffffffffffffffffffffffff1681526020019081526020015f205f8267ffffffffffffffff1667ffffffffffffffff1681526020019081526020015f205f6110aa91906138ff565b60095f8381526020019081526020015f205f3373ffffffffffffffffffffffffffffffffffffffff1673ffffffffffffffffffffffffffffffffffffffff1681526020019081526020015f205f8267ffffffffffffffff1667ffffffffffffffff1681526020019081526020015f205f8082015f61112891906138ff565b600182015f61113791906138ff565b600282015f61114691906138ff565b50505f5b600a805490508110156112a3578167ffffffffffffffff16600a828154811061117657611175614adc565b5b905f5260205f2090600491828204019190066008029054906101000a900467ffffffffffffffff1667ffffffffffffffff160361129057600a6001600a805490506111c19190614b36565b815481106111d2576111d1614adc565b5b905f5260205f2090600491828204019190066008029054906101000a900467ffffffffffffffff16600a828154811061120e5761120d614adc565b5b905f5260205f2090600491828204019190066008026101000a81548167ffffffffffffffff021916908367ffffffffffffffff160217905550600a80548061125957611258614b69565b5b600190038181905f5260205f2090600491828204019190066008026101000a81549067ffffffffffffffff021916905590556112a3565b808061129b90614b96565b91505061114a565b505050565b6009602052825f5260405f20602052815f5260405f20602052805f5260405f205f925092505050805f0180546112dd90614aac565b80601f016020809104026020016040519081016040528092919081815260200182805461130990614aac565b80156113545780601f1061132b57610100808354040283529160200191611354565b820191905f5260205f20905b81548152906001019060200180831161133757829003601f168201915b50505050509080600101805461136990614aac565b80601f016020809104026020016040519081016040528092919081815260200182805461139590614aac565b80156113e05780601f106113b7576101008083540402835291602001916113e0565b820191905f5260205f20905b8154815290600101906020018083116113c357829003601f168201915b5050505050908060020180546113f590614aac565b80601f016020809104026020016040519081016040528092919081815260200182805461142190614aac565b801561146c5780601f106114435761010080835404028352916020019161146c565b820191905f5260205f20905b81548152906001019060200180831161144f57829003601f168201915b5050505050905083565b61147e612223565b5f73ffffffffffffffffffffffffffffffffffffffff168173ffffffffffffffffffffffffffffffffffffffff16036114ec576040517f08c379a00000000000000000000000000000000000000000000000000000000081526004016114e390615540565b60405180910390fd5b6114f58161284a565b15611535576040517f08c379a000000000000000000000000000000000000000000000000000000000815260040161152c906155a8565b60405180910390fd5b600481908060018154018082558091505060019003905f5260205f20015f9091909190916101000a81548173ffffffffffffffffffffffffffffffffffffffff021916908373ffffffffffffffffffffffffffffffffffffffff16021790555050565b6115a0612223565b6115a95f6128f2565b565b5f6115b633866104f1565b116115f6576040517f08c379a00000000000000000000000000000000000000000000000000000000081526004016115ed90615636565b60405180910390fd5b5f60405180606001604052808b8b8080601f0160208091040260200160405190810160405280939291908181526020018383808284375f81840152601f19601f8201169050808301925050505050505081526020018973ffffffffffffffffffffffffffffffffffffffff16815260200188888080601f0160208091040260200160405190810160405280939291908181526020018383808284375f81840152601f19601f820116905080830192505050505050508152509050600b5f9054906101000a900473ffffffffffffffffffffffffffffffffffffffff1673ffffffffffffffffffffffffffffffffffffffff16639f5223e08c836040518363ffffffff1660e01b815260040161170c92919061571a565b5f604051808303815f87803b158015611723575f80fd5b505af1158015611735573d5f803e3d5ffd5b50505050611745858c86866129b5565b604051806060016040528083805f019061175f9190615754565b8080601f0160208091040260200160405190810160405280939291908181526020018383808284375f81840152601f19601f8201169050808301925050505050505081526020018380602001906117b69190615754565b8080601f0160208091040260200160405190810160405280939291908181526020018383808284375f81840152601f19601f82011690508083019250505050505050815260200183806040019061180d9190615754565b8080601f0160208091040260200160405190810160405280939291908181526020018383808284375f81840152601f19601f8201169050808301925050505050505081525060095f8781526020019081526020015f205f3373ffffffffffffffffffffffffffffffffffffffff1673ffffffffffffffffffffffffffffffffffffffff1681526020019081526020015f205f8d67ffffffffffffffff1667ffffffffffffffff1681526020019081526020015f205f820151815f0190816118d491906157b6565b5060208201518160010190816118ea91906157b6565b50604082015181600201908161190091906157b6565b509050505050505050505050505050565b606061191d60056122aa565b905090565b5f60035f9054906101000a900473ffffffffffffffffffffffffffffffffffffffff16905090565b6008602052825f5260405f20602052815f5260405f20602052805f5260405f205f925092505050805461197c90614aac565b80601f01602080910402602001604051908101604052809291908181526020018280546119a890614aac565b80156119f35780601f106119ca576101008083540402835291602001916119f3565b820191905f5260205f20905b8154815290600101906020018083116119d657829003601f168201915b505050505081565b611a0d611a06612c90565b8383612c97565b5050565b6060805f600a805480602002602001604051908101604052809291908181526020018280548015611a9257602002820191905f5260205f20905f905b82829054906101000a900467ffffffffffffffff1667ffffffffffffffff1681526020019060080190602082600701049283019260010382029150808411611a4d5790505b505050505090505f805b8251811015611b66575f60095f8981526020019081526020015f205f8873ffffffffffffffffffffffffffffffffffffffff1673ffffffffffffffffffffffffffffffffffffffff1681526020019081526020015f205f858481518110611b0657611b05614adc565b5b602002602001015167ffffffffffffffff1667ffffffffffffffff1681526020019081526020015f205f018054611b3c90614aac565b90501115611b53578180611b4f90614b96565b9250505b8080611b5e90614b96565b915050611a9c565b505f8167ffffffffffffffff811115611b8257611b81613dfc565b5b604051908082528060200260200182016040528015611bb05781602001602082028036833780820191505090505b5090505f8267ffffffffffffffff811115611bce57611bcd613dfc565b5b604051908082528060200260200182016040528015611c0757816020015b611bf461393c565b815260200190600190039081611bec5790505b5090505f805b8551811015611f88575f60095f8c81526020019081526020015f205f8b73ffffffffffffffffffffffffffffffffffffffff1673ffffffffffffffffffffffffffffffffffffffff1681526020019081526020015f205f888481518110611c7757611c76614adc565b5b602002602001015167ffffffffffffffff1667ffffffffffffffff1681526020019081526020015f205f018054611cad90614aac565b90501115611f7557858181518110611cc857611cc7614adc565b5b6020026020010151848381518110611ce357611ce2614adc565b5b602002602001019067ffffffffffffffff16908167ffffffffffffffff168152505060095f8b81526020019081526020015f205f8a73ffffffffffffffffffffffffffffffffffffffff1673ffffffffffffffffffffffffffffffffffffffff1681526020019081526020015f205f878381518110611d6557611d64614adc565b5b602002602001015167ffffffffffffffff1667ffffffffffffffff1681526020019081526020015f206040518060600160405290815f82018054611da890614aac565b80601f0160208091040260200160405190810160405280929190818152602001828054611dd490614aac565b8015611e1f5780601f10611df657610100808354040283529160200191611e1f565b820191905f5260205f20905b815481529060010190602001808311611e0257829003601f168201915b50505050508152602001600182018054611e3890614aac565b80601f0160208091040260200160405190810160405280929190818152602001828054611e6490614aac565b8015611eaf5780601f10611e8657610100808354040283529160200191611eaf565b820191905f5260205f20905b815481529060010190602001808311611e9257829003601f168201915b50505050508152602001600282018054611ec890614aac565b80601f0160208091040260200160405190810160405280929190818152602001828054611ef490614aac565b8015611f3f5780601f10611f1657610100808354040283529160200191611f3f565b820191905f5260205f20905b815481529060010190602001808311611f2257829003601f168201915b505050505081525050838381518110611f5b57611f5a614adc565b5b60200260200101819052508180611f7190614b96565b9250505b8080611f8090614b96565b915050611c0d565b5082829650965050505050509250929050565b600a8181548110611faa575f80fd5b905f5260205f209060049182820401919006600802915054906101000a900467ffffffffffffffff1681565b6007602052805f5260405f205f915090508054611ff290614aac565b80601f016020809104026020016040519081016040528092919081815260200182805461201e90614aac565b80156120695780601f1061204057610100808354040283529160200191612069565b820191905f5260205f20905b81548152906001019060200180831161204c57829003601f168201915b505050505081565b5f60015f8473ffffffffffffffffffffffffffffffffffffffff1673ffffffffffffffffffffffffffffffffffffffff1681526020019081526020015f205f8373ffffffffffffffffffffffffffffffffffffffff1673ffffffffffffffffffffffffffffffffffffffff1681526020019081526020015f205f9054906101000a900460ff16905092915050565b61210a83868661238c565b6121178585858585612e00565b5050505050565b612126612223565b5f73ffffffffffffffffffffffffffffffffffffffff168173ffffffffffffffffffffffffffffffffffffffff1603612196575f6040517f1e4fbdf700000000000000000000000000000000000000000000000000000000815260040161218d919061462d565b60405180910390fd5b61219f816128f2565b50565b6121aa612223565b6121b5838383612ea7565b505050565b5f7f01ffc9a7000000000000000000000000000000000000000000000000000000007bffffffffffffffffffffffffffffffffffffffffffffffffffffffff1916827bffffffffffffffffffffffffffffffffffffffffffffffffffffffff1916149050919050565b61222b612c90565b73ffffffffffffffffffffffffffffffffffffffff16612249611922565b73ffffffffffffffffffffffffffffffffffffffff16146122a85761226c612c90565b6040517f118cdaa700000000000000000000000000000000000000000000000000000000815260040161229f919061462d565b60405180910390fd5b565b60605f6122b8835f01612f49565b905060608190508092505050919050565b5f73ffffffffffffffffffffffffffffffffffffffff168473ffffffffffffffffffffffffffffffffffffffff1603612339575f6040517f57f447ce000000000000000000000000000000000000000000000000000000008152600401612330919061462d565b60405180910390fd5b5f806123458585612fa2565b915091506123565f87848487612fd2565b505050505050565b5f61236d835f01835f1b61307e565b905092915050565b5f612384835f01835f1b61309e565b905092915050565b5f600a80548060200260200160405190810160405280929190818152602001828054801561240a57602002820191905f5260205f20905f905b82829054906101000a900467ffffffffffffffff1667ffffffffffffffff16815260200190600801906020826007010492830192600103820291508084116123c55790505b505050505090505f5b815181101561281d575f60085f8781526020019081526020015f205f8673ffffffffffffffffffffffffffffffffffffffff1673ffffffffffffffffffffffffffffffffffffffff1681526020019081526020015f205f84848151811061247d5761247c614adc565b5b602002602001015167ffffffffffffffff1667ffffffffffffffff1681526020019081526020015f2080546124b190614aac565b80601f01602080910402602001604051908101604052809291908181526020018280546124dd90614aac565b80156125285780601f106124ff57610100808354040283529160200191612528565b820191905f5260205f20905b81548152906001019060200180831161250b57829003601f168201915b505050505090505f81510361253d575061280a565b6040518060400160405280600681526020017f73656e6465720000000000000000000000000000000000000000000000000000815250805190602001208180519060200120036126a457600b5f9054906101000a900473ffffffffffffffffffffffffffffffffffffffff1673ffffffffffffffffffffffffffffffffffffffff16638c1da2c9868585815181106125d8576125d7614adc565b5b60200260200101516040518363ffffffff1660e01b81526004016125fd929190615885565b5f60405180830381865afa158015612617573d5f803e3d5ffd5b505050506040513d5f823e3d601f19601f8201168201806040525081019061263f9190615a0b565b5f015161269f5782828151811061265957612658614adc565b5b6020026020010151856040517fa5a4608e000000000000000000000000000000000000000000000000000000008152600401612696929190615a52565b60405180910390fd5b612808565b6040518060400160405280600881526020017f72656365697665720000000000000000000000000000000000000000000000008152508051906020012081805190602001200361280757600b5f9054906101000a900473ffffffffffffffffffffffffffffffffffffffff1673ffffffffffffffffffffffffffffffffffffffff16638c1da2c98585858151811061273f5761273e614adc565b5b60200260200101516040518363ffffffff1660e01b8152600401612764929190615885565b5f60405180830381865afa15801561277e573d5f803e3d5ffd5b505050506040513d5f823e3d601f19601f820116820180604052508101906127a69190615a0b565b5f0151612806578282815181106127c0576127bf614adc565b5b6020026020010151846040517fa5a4608e0000000000000000000000000000000000000000000000000000000081526004016127fd929190615a52565b60405180910390fd5b5b5b505b808061281590614b96565b915050612413565b5050505050565b5f60208202602084010151905092915050565b5f60208202602084010151905092915050565b5f805f90505b6004805490508110156128e8578273ffffffffffffffffffffffffffffffffffffffff166004828154811061288857612887614adc565b5b905f5260205f20015f9054906101000a900473ffffffffffffffffffffffffffffffffffffffff1673ffffffffffffffffffffffffffffffffffffffff16036128d55760019150506128ed565b80806128e090614b96565b915050612850565b505f90505b919050565b5f60035f9054906101000a900473ffffffffffffffffffffffffffffffffffffffff1690508160035f6101000a81548173ffffffffffffffffffffffffffffffffffffffff021916908373ffffffffffffffffffffffffffffffffffffffff1602179055508173ffffffffffffffffffffffffffffffffffffffff168173ffffffffffffffffffffffffffffffffffffffff167f8be0079c531659141344cd1fd0a4f28419497f9722a3daafe3b4186f6b6457e060405160405180910390a35050565b6129c984600561235e90919063ffffffff16565b612a08576040517f08c379a00000000000000000000000000000000000000000000000000000000081526004016129ff90615408565b60405180910390fd5b5f60085f8681526020019081526020015f205f3373ffffffffffffffffffffffffffffffffffffffff1673ffffffffffffffffffffffffffffffffffffffff1681526020019081526020015f205f8567ffffffffffffffff1667ffffffffffffffff1681526020019081526020015f208054612a8390614aac565b905014612ac5576040517f08c379a0000000000000000000000000000000000000000000000000000000008152600401612abc90615ac3565b60405180910390fd5b6040518060400160405280600681526020017f73656e6465720000000000000000000000000000000000000000000000000000815250805190602001208282604051612b12929190614cdb565b60405180910390201480612b7857506040518060400160405280600881526020017f7265636569766572000000000000000000000000000000000000000000000000815250805190602001208282604051612b6e929190614cdb565b6040518091039020145b612bb7576040517f08c379a0000000000000000000000000000000000000000000000000000000008152600401612bae90615b51565b60405180910390fd5b818160085f8781526020019081526020015f205f3373ffffffffffffffffffffffffffffffffffffffff1673ffffffffffffffffffffffffffffffffffffffff1681526020019081526020015f205f8667ffffffffffffffff1667ffffffffffffffff1681526020019081526020015f209182612c359291906151ae565b50600a83908060018154018082558091505060019003905f5260205f2090600491828204019190066008029091909190916101000a81548167ffffffffffffffff021916908367ffffffffffffffff16021790555050505050565b5f33905090565b5f73ffffffffffffffffffffffffffffffffffffffff168273ffffffffffffffffffffffffffffffffffffffff1603612d07575f6040517fced3e100000000000000000000000000000000000000000000000000000000008152600401612cfe919061462d565b60405180910390fd5b8060015f8573ffffffffffffffffffffffffffffffffffffffff1673ffffffffffffffffffffffffffffffffffffffff1681526020019081526020015f205f8473ffffffffffffffffffffffffffffffffffffffff1673ffffffffffffffffffffffffffffffffffffffff1681526020019081526020015f205f6101000a81548160ff0219169083151502179055508173ffffffffffffffffffffffffffffffffffffffff168373ffffffffffffffffffffffffffffffffffffffff167f17307eab39ab6107e8899845ad3d59bd9653f200f220920489ca2b5937696c3183604051612df39190613b16565b60405180910390a3505050565b5f612e09612c90565b90508073ffffffffffffffffffffffffffffffffffffffff168673ffffffffffffffffffffffffffffffffffffffff1614158015612e4e5750612e4c8682612071565b155b15612e925780866040517fe237d922000000000000000000000000000000000000000000000000000000008152600401612e89929190615b6f565b60405180910390fd5b612e9f8686868686613105565b505050505050565b5f73ffffffffffffffffffffffffffffffffffffffff168373ffffffffffffffffffffffffffffffffffffffff1603612f17575f6040517f01a83514000000000000000000000000000000000000000000000000000000008152600401612f0e919061462d565b60405180910390fd5b5f80612f238484612fa2565b91509150612f42855f848460405180602001604052805f815250612fd2565b5050505050565b6060815f01805480602002602001604051908101604052809291908181526020018280548015612f9657602002820191905f5260205f20905b815481526020019060010190808311612f82575b50505050509050919050565b60608060405191506001825283602083015260408201905060018152826020820152604081016040529250929050565b612fde8585858561320b565b5f73ffffffffffffffffffffffffffffffffffffffff168473ffffffffffffffffffffffffffffffffffffffff1614613077575f61301a612c90565b90506001845103613066575f6130395f8661283790919063ffffffff16565b90505f61304f5f8661283790919063ffffffff16565b905061305f8389898585896135a1565b5050613075565b613074818787878787613750565b5b505b5050505050565b5f80836001015f8481526020019081526020015f20541415905092915050565b5f6130a9838361307e565b6130fb57825f0182908060018154018082558091505060019003905f5260205f20015f9091909190915055825f0180549050836001015f8481526020019081526020015f2081905550600190506130ff565b5f90505b92915050565b5f73ffffffffffffffffffffffffffffffffffffffff168473ffffffffffffffffffffffffffffffffffffffff1603613175575f6040517f57f447ce00000000000000000000000000000000000000000000000000000000815260040161316c919061462d565b60405180910390fd5b5f73ffffffffffffffffffffffffffffffffffffffff168573ffffffffffffffffffffffffffffffffffffffff16036131e5575f6040517f01a835140000000000000000000000000000000000000000000000000000000081526004016131dc919061462d565b60405180910390fd5b5f806131f18585612fa2565b915091506132028787848487612fd2565b50505050505050565b805182511461325557815181516040517f5b05999100000000000000000000000000000000000000000000000000000000815260040161324c929190615397565b60405180910390fd5b5f61325e612c90565b90505f5b8351811015613460575f61327f828661283790919063ffffffff16565b90505f613295838661283790919063ffffffff16565b90505f73ffffffffffffffffffffffffffffffffffffffff168873ffffffffffffffffffffffffffffffffffffffff16146133b8575f805f8481526020019081526020015f205f8a73ffffffffffffffffffffffffffffffffffffffff1673ffffffffffffffffffffffffffffffffffffffff1681526020019081526020015f205490508181101561336457888183856040517f03dee4c500000000000000000000000000000000000000000000000000000000815260040161335b9493929190615b96565b60405180910390fd5b8181035f808581526020019081526020015f205f8b73ffffffffffffffffffffffffffffffffffffffff1673ffffffffffffffffffffffffffffffffffffffff1681526020019081526020015f2081905550505b5f73ffffffffffffffffffffffffffffffffffffffff168773ffffffffffffffffffffffffffffffffffffffff161461344d57805f808481526020019081526020015f205f8973ffffffffffffffffffffffffffffffffffffffff1673ffffffffffffffffffffffffffffffffffffffff1681526020019081526020015f205f8282546134459190614ee7565b925050819055505b50508061345990614b96565b9050613262565b50600183510361351b575f61347e5f8561283790919063ffffffff16565b90505f6134945f8561283790919063ffffffff16565b90508573ffffffffffffffffffffffffffffffffffffffff168773ffffffffffffffffffffffffffffffffffffffff168473ffffffffffffffffffffffffffffffffffffffff167fc3d58168c5ae7397731d063d5bbf3d657854427343f4c083240f7aacaa2d0f62858560405161350c929190615397565b60405180910390a4505061359a565b8373ffffffffffffffffffffffffffffffffffffffff168573ffffffffffffffffffffffffffffffffffffffff168273ffffffffffffffffffffffffffffffffffffffff167f4a39dc06d4c0dbc64b70af90fd698a233a518aa5d07e595d983b8c0526c8f7fb8686604051613591929190615bd9565b60405180910390a45b5050505050565b5f8473ffffffffffffffffffffffffffffffffffffffff163b1115613748578373ffffffffffffffffffffffffffffffffffffffff1663f23a6e6187878686866040518663ffffffff1660e01b8152600401613601959493929190615c56565b6020604051808303815f875af192505050801561363c57506040513d601f19601f820116820180604052508101906136399190615cc2565b60015b6136bd573d805f811461366a576040519150601f19603f3d011682016040523d82523d5f602084013e61366f565b606091505b505f8151036136b557846040517f57f447ce0000000000000000000000000000000000000000000000000000000081526004016136ac919061462d565b60405180910390fd5b805181602001fd5b63f23a6e6160e01b7bffffffffffffffffffffffffffffffffffffffffffffffffffffffff1916817bffffffffffffffffffffffffffffffffffffffffffffffffffffffff19161461374657846040517f57f447ce00000000000000000000000000000000000000000000000000000000815260040161373d919061462d565b60405180910390fd5b505b505050505050565b5f8473ffffffffffffffffffffffffffffffffffffffff163b11156138f7578373ffffffffffffffffffffffffffffffffffffffff1663bc197c8187878686866040518663ffffffff1660e01b81526004016137b0959493929190615ced565b6020604051808303815f875af19250505080156137eb57506040513d601f19601f820116820180604052508101906137e89190615cc2565b60015b61386c573d805f8114613819576040519150601f19603f3d011682016040523d82523d5f602084013e61381e565b606091505b505f81510361386457846040517f57f447ce00000000000000000000000000000000000000000000000000000000815260040161385b919061462d565b60405180910390fd5b805181602001fd5b63bc197c8160e01b7bffffffffffffffffffffffffffffffffffffffffffffffffffffffff1916817bffffffffffffffffffffffffffffffffffffffffffffffffffffffff1916146138f557846040517f57f447ce0000000000000000000000000000000000000000000000000000000081526004016138ec919061462d565b60405180910390fd5b505b505050505050565b50805461390b90614aac565b5f825580601f1061391c5750613939565b601f0160209004905f5260205f2090810190613938919061395d565b5b50565b60405180606001604052806060815260200160608152602001606081525090565b5b80821115613974575f815f90555060010161395e565b5090565b5f604051905090565b5f80fd5b5f80fd5b5f73ffffffffffffffffffffffffffffffffffffffff82169050919050565b5f6139b282613989565b9050919050565b6139c2816139a8565b81146139cc575f80fd5b50565b5f813590506139dd816139b9565b92915050565b5f819050919050565b6139f5816139e3565b81146139ff575f80fd5b50565b5f81359050613a10816139ec565b92915050565b5f8060408385031215613a2c57613a2b613981565b5b5f613a39858286016139cf565b9250506020613a4a85828601613a02565b9150509250929050565b613a5d816139e3565b82525050565b5f602082019050613a765f830184613a54565b92915050565b5f7fffffffff0000000000000000000000000000000000000000000000000000000082169050919050565b613ab081613a7c565b8114613aba575f80fd5b50565b5f81359050613acb81613aa7565b92915050565b5f60208284031215613ae657613ae5613981565b5b5f613af384828501613abd565b91505092915050565b5f8115159050919050565b613b1081613afc565b82525050565b5f602082019050613b295f830184613b07565b92915050565b5f60208284031215613b4457613b43613981565b5b5f613b5184828501613a02565b91505092915050565b5f81519050919050565b5f82825260208201905092915050565b5f5b83811015613b91578082015181840152602081019050613b76565b5f8484015250505050565b5f601f19601f8301169050919050565b5f613bb682613b5a565b613bc08185613b64565b9350613bd0818560208601613b74565b613bd981613b9c565b840191505092915050565b5f6020820190508181035f830152613bfc8184613bac565b905092915050565b5f60208284031215613c1957613c18613981565b5b5f613c26848285016139cf565b91505092915050565b5f819050919050565b5f613c52613c4d613c4884613989565b613c2f565b613989565b9050919050565b5f613c6382613c38565b9050919050565b5f613c7482613c59565b9050919050565b613c8481613c6a565b82525050565b5f602082019050613c9d5f830184613c7b565b92915050565b5f80fd5b5f80fd5b5f80fd5b5f8083601f840112613cc457613cc3613ca3565b5b8235905067ffffffffffffffff811115613ce157613ce0613ca7565b5b602083019150836001820283011115613cfd57613cfc613cab565b5b9250929050565b5f8083601f840112613d1957613d18613ca3565b5b8235905067ffffffffffffffff811115613d3657613d35613ca7565b5b602083019150836001820283011115613d5257613d51613cab565b5b9250929050565b5f805f805f8060808789031215613d7357613d72613981565b5b5f613d8089828a016139cf565b9650506020613d9189828a01613a02565b955050604087013567ffffffffffffffff811115613db257613db1613985565b5b613dbe89828a01613caf565b9450945050606087013567ffffffffffffffff811115613de157613de0613985565b5b613ded89828a01613d04565b92509250509295509295509295565b7f4e487b71000000000000000000000000000000000000000000000000000000005f52604160045260245ffd5b613e3282613b9c565b810181811067ffffffffffffffff82111715613e5157613e50613dfc565b5b80604052505050565b5f613e63613978565b9050613e6f8282613e29565b919050565b5f67ffffffffffffffff821115613e8e57613e8d613dfc565b5b602082029050602081019050919050565b5f613eb1613eac84613e74565b613e5a565b90508083825260208201905060208402830185811115613ed457613ed3613cab565b5b835b81811015613efd5780613ee98882613a02565b845260208401935050602081019050613ed6565b5050509392505050565b5f82601f830112613f1b57613f1a613ca3565b5b8135613f2b848260208601613e9f565b91505092915050565b5f80fd5b5f67ffffffffffffffff821115613f5257613f51613dfc565b5b613f5b82613b9c565b9050602081019050919050565b828183375f83830152505050565b5f613f88613f8384613f38565b613e5a565b905082815260208101848484011115613fa457613fa3613f34565b5b613faf848285613f68565b509392505050565b5f82601f830112613fcb57613fca613ca3565b5b8135613fdb848260208601613f76565b91505092915050565b5f805f805f60a08688031215613ffd57613ffc613981565b5b5f61400a888289016139cf565b955050602061401b888289016139cf565b945050604086013567ffffffffffffffff81111561403c5761403b613985565b5b61404888828901613f07565b935050606086013567ffffffffffffffff81111561406957614068613985565b5b61407588828901613f07565b925050608086013567ffffffffffffffff81111561409657614095613985565b5b6140a288828901613fb7565b9150509295509295909350565b5f81519050919050565b5f82825260208201905092915050565b5f819050602082019050919050565b6140e1816139a8565b82525050565b5f6140f283836140d8565b60208301905092915050565b5f602082019050919050565b5f614114826140af565b61411e81856140b9565b9350614129836140c9565b805f5b8381101561415957815161414088826140e7565b975061414b836140fe565b92505060018101905061412c565b5085935050505092915050565b5f6020820190508181035f83015261417e818461410a565b905092915050565b5f67ffffffffffffffff8211156141a05761419f613dfc565b5b602082029050602081019050919050565b5f6141c36141be84614186565b613e5a565b905080838252602082019050602084028301858111156141e6576141e5613cab565b5b835b8181101561420f57806141fb88826139cf565b8452602084019350506020810190506141e8565b5050509392505050565b5f82601f83011261422d5761422c613ca3565b5b813561423d8482602086016141b1565b91505092915050565b5f806040838503121561425c5761425b613981565b5b5f83013567ffffffffffffffff81111561427957614278613985565b5b61428585828601614219565b925050602083013567ffffffffffffffff8111156142a6576142a5613985565b5b6142b285828601613f07565b9150509250929050565b5f81519050919050565b5f82825260208201905092915050565b5f819050602082019050919050565b6142ee816139e3565b82525050565b5f6142ff83836142e5565b60208301905092915050565b5f602082019050919050565b5f614321826142bc565b61432b81856142c6565b9350614336836142d6565b805f5b8381101561436657815161434d88826142f4565b97506143588361430b565b925050600181019050614339565b5085935050505092915050565b5f6020820190508181035f83015261438b8184614317565b905092915050565b5f67ffffffffffffffff82169050919050565b6143af81614393565b81146143b9575f80fd5b50565b5f813590506143ca816143a6565b92915050565b5f80604083850312156143e6576143e5613981565b5b5f6143f385828601613a02565b9250506020614404858286016143bc565b9150509250929050565b5f805f6060848603121561442557614424613981565b5b5f61443286828701613a02565b9350506020614443868287016139cf565b9250506040614454868287016143bc565b9150509250925092565b5f6060820190508181035f8301526144768186613bac565b9050818103602083015261448a8185613bac565b9050818103604083015261449e8184613bac565b9050949350505050565b5f6144b2826139a8565b9050919050565b6144c2816144a8565b81146144cc575f80fd5b50565b5f813590506144dd816144b9565b92915050565b5f80fd5b5f606082840312156144fc576144fb6144e3565b5b81905092915050565b5f805f805f805f805f8060e08b8d03121561452357614522613981565b5b5f6145308d828e016143bc565b9a505060208b013567ffffffffffffffff81111561455157614550613985565b5b61455d8d828e01613d04565b995099505060406145708d828e016144cf565b97505060608b013567ffffffffffffffff81111561459157614590613985565b5b61459d8d828e01613caf565b965096505060806145b08d828e01613a02565b94505060a08b013567ffffffffffffffff8111156145d1576145d0613985565b5b6145dd8d828e01613d04565b935093505060c08b013567ffffffffffffffff811115614600576145ff613985565b5b61460c8d828e016144e7565b9150509295989b9194979a5092959850565b614627816139a8565b82525050565b5f6020820190506146405f83018461461e565b92915050565b61464f81613afc565b8114614659575f80fd5b50565b5f8135905061466a81614646565b92915050565b5f806040838503121561468657614685613981565b5b5f614693858286016139cf565b92505060206146a48582860161465c565b9150509250929050565b5f80604083850312156146c4576146c3613981565b5b5f6146d185828601613a02565b92505060206146e2858286016139cf565b9150509250929050565b5f81519050919050565b5f82825260208201905092915050565b5f819050602082019050919050565b61471e81614393565b82525050565b5f61472f8383614715565b60208301905092915050565b5f602082019050919050565b5f614751826146ec565b61475b81856146f6565b935061476683614706565b805f5b8381101561479657815161477d8882614724565b97506147888361473b565b925050600181019050614769565b5085935050505092915050565b5f81519050919050565b5f82825260208201905092915050565b5f819050602082019050919050565b5f82825260208201905092915050565b5f6147e682613b5a565b6147f081856147cc565b9350614800818560208601613b74565b61480981613b9c565b840191505092915050565b5f606083015f8301518482035f86015261482e82826147dc565b9150506020830151848203602086015261484882826147dc565b9150506040830151848203604086015261486282826147dc565b9150508091505092915050565b5f61487a8383614814565b905092915050565b5f602082019050919050565b5f614898826147a3565b6148a281856147ad565b9350836020820285016148b4856147bd565b805f5b858110156148ef57848403895281516148d0858261486f565b94506148db83614882565b925060208a019950506001810190506148b7565b50829750879550505050505092915050565b5f6040820190508181035f8301526149198185614747565b9050818103602083015261492d818461488e565b90509392505050565b61493f81614393565b82525050565b5f6020820190506149585f830184614936565b92915050565b5f806040838503121561497457614973613981565b5b5f614981858286016139cf565b9250506020614992858286016139cf565b9150509250929050565b5f805f805f60a086880312156149b5576149b4613981565b5b5f6149c2888289016139cf565b95505060206149d3888289016139cf565b94505060406149e488828901613a02565b93505060606149f588828901613a02565b925050608086013567ffffffffffffffff811115614a1657614a15613985565b5b614a2288828901613fb7565b9150509295509295909350565b5f805f60608486031215614a4657614a45613981565b5b5f614a53868287016139cf565b9350506020614a6486828701613a02565b9250506040614a7586828701613a02565b9150509250925092565b7f4e487b71000000000000000000000000000000000000000000000000000000005f52602260045260245ffd5b5f6002820490506001821680614ac357607f821691505b602082108103614ad657614ad5614a7f565b5b50919050565b7f4e487b71000000000000000000000000000000000000000000000000000000005f52603260045260245ffd5b7f4e487b71000000000000000000000000000000000000000000000000000000005f52601160045260245ffd5b5f614b40826139e3565b9150614b4b836139e3565b9250828203905081811115614b6357614b62614b09565b5b92915050565b7f4e487b71000000000000000000000000000000000000000000000000000000005f52603160045260245ffd5b5f614ba0826139e3565b91507fffffffffffffffffffffffffffffffffffffffffffffffffffffffffffffffff8203614bd257614bd1614b09565b5b600182019050919050565b7f41646d696e206e6f7420666f756e6400000000000000000000000000000000005f82015250565b5f614c11600f83613b64565b9150614c1c82614bdd565b602082019050919050565b5f6020820190508181035f830152614c3e81614c05565b9050919050565b7f4e616d65207265717569726564000000000000000000000000000000000000005f82015250565b5f614c79600d83613b64565b9150614c8482614c45565b602082019050919050565b5f6020820190508181035f830152614ca681614c6d565b9050919050565b5f81905092915050565b5f614cc28385614cad565b9350614ccf838584613f68565b82840190509392505050565b5f614ce7828486614cb7565b91508190509392505050565b5f819050815f5260205f209050919050565b5f8154614d1181614aac565b614d1b8186614cad565b9450600182165f8114614d355760018114614d4a57614d7c565b60ff1983168652811515820286019350614d7c565b614d5385614cf3565b5f5b83811015614d7457815481890152600182019150602081019050614d55565b838801955050505b50505092915050565b5f614d908284614d05565b915081905092915050565b5f819050919050565b614db5614db0826139e3565b614d9b565b82525050565b5f8160601b9050919050565b5f614dd182614dbb565b9050919050565b5f614de282614dc7565b9050919050565b614dfa614df5826139a8565b614dd8565b82525050565b5f81905092915050565b5f614e158385614e00565b9350614e22838584613f68565b82840190509392505050565b5f614e398289614da4565b602082019150614e498288614da4565b602082019150614e598287614de9565b601482019150614e6a828587614e0a565b9150614e768284614da4565b602082019150819050979650505050505050565b7f4e487b71000000000000000000000000000000000000000000000000000000005f52601260045260245ffd5b5f614ec1826139e3565b9150614ecc836139e3565b925082614edc57614edb614e8a565b5b828206905092915050565b5f614ef1826139e3565b9150614efc836139e3565b9250828201905080821115614f1457614f13614b09565b5b92915050565b7f556e61626c6520746f2066696e6420756e697175652073686f727420746f6b655f8201527f6e20494400000000000000000000000000000000000000000000000000000000602082015250565b5f614f74602483613b64565b9150614f7f82614f1a565b604082019050919050565b5f6020820190508181035f830152614fa181614f68565b9050919050565b7f546f6b656e494454616b656e00000000000000000000000000000000000000005f82015250565b5f614fdc600c83613b64565b9150614fe782614fa8565b602082019050919050565b5f6020820190508181035f83015261500981614fd0565b9050919050565b5f82905092915050565b5f819050815f5260205f209050919050565b5f6020601f8301049050919050565b5f82821b905092915050565b5f600883026150767fffffffffffffffffffffffffffffffffffffffffffffffffffffffffffffffff8261503b565b615080868361503b565b95508019841693508086168417925050509392505050565b5f6150b26150ad6150a8846139e3565b613c2f565b6139e3565b9050919050565b5f819050919050565b6150cb83615098565b6150df6150d7826150b9565b848454615047565b825550505050565b5f90565b6150f36150e7565b6150fe8184846150c2565b505050565b5b81811015615121576151165f826150eb565b600181019050615104565b5050565b601f821115615166576151378161501a565b6151408461502c565b8101602085101561514f578190505b61516361515b8561502c565b830182615103565b50505b505050565b5f82821c905092915050565b5f6151865f198460080261516b565b1980831691505092915050565b5f61519e8383615177565b9150826002028217905092915050565b6151b88383615010565b67ffffffffffffffff8111156151d1576151d0613dfc565b5b6151db8254614aac565b6151e6828285615125565b5f601f831160018114615213575f8415615201578287013590505b61520b8582615193565b865550615272565b601f1984166152218661501a565b5f5b8281101561524857848901358255600182019150602085019450602081019050615223565b868310156152655784890135615261601f891682615177565b8355505b6001600288020188555050505b50505050505050565b7f455243313135353a204d69736d617463686564206172726179206c656e6774685f8201527f7300000000000000000000000000000000000000000000000000000000000000602082015250565b5f6152d5602183613b64565b91506152e08261527b565b604082019050919050565b5f6020820190508181035f830152615302816152c9565b9050919050565b7f455243313135353a207472616e7366657220746f20746865207a65726f2061645f8201527f6472657373000000000000000000000000000000000000000000000000000000602082015250565b5f615363602583613b64565b915061536e82615309565b604082019050919050565b5f6020820190508181035f83015261539081615357565b9050919050565b5f6040820190506153aa5f830185613a54565b6153b76020830184613a54565b9392505050565b7f746f6b656e20696420646f6573206e6f742065786973740000000000000000005f82015250565b5f6153f2601783613b64565b91506153fd826153be565b602082019050919050565b5f6020820190508181035f83015261541f816153e6565b9050919050565b7f50726f6f66207265717565737420646f6573206e6f74206578697374000000005f82015250565b5f61545a601c83613b64565b915061546582615426565b602082019050919050565b5f6020820190508181035f8301526154878161544e565b9050919050565b7f4e6f207370656e64696e6720636f6e646974696f6e20746f2064656c657465005f82015250565b5f6154c2601f83613b64565b91506154cd8261548e565b602082019050919050565b5f6020820190508181035f8301526154ef816154b6565b9050919050565b7f496e76616c6964206164647265737300000000000000000000000000000000005f82015250565b5f61552a600f83613b64565b9150615535826154f6565b602082019050919050565b5f6020820190508181035f8301526155578161551e565b9050919050565b7f4164647265737320697320616c726561647920616e2061646d696e00000000005f82015250565b5f615592601b83613b64565b915061559d8261555e565b602082019050919050565b5f6020820190508181035f8301526155bf81615586565b9050919050565b7f4f6e6c79206d6f6e6579206f776e65722063616e20616464207370656e64696e5f8201527f6720636f6e646974696f6e2e0000000000000000000000000000000000000000602082015250565b5f615620602c83613b64565b915061562b826155c6565b604082019050919050565b5f6020820190508181035f83015261564d81615614565b9050919050565b5f61565e82613c59565b9050919050565b61566e81615654565b82525050565b5f81519050919050565b5f82825260208201905092915050565b5f61569882615674565b6156a2818561567e565b93506156b2818560208601613b74565b6156bb81613b9c565b840191505092915050565b5f606083015f8301518482035f8601526156e082826147dc565b91505060208301516156f56020860182615665565b506040830151848203604086015261570d828261568e565b9150508091505092915050565b5f60408201905061572d5f830185614936565b818103602083015261573f81846156c6565b90509392505050565b5f80fd5b5f80fd5b5f80fd5b5f80833560016020038436030381126157705761576f615748565b5b80840192508235915067ffffffffffffffff8211156157925761579161574c565b5b6020830192506001820236038313156157ae576157ad615750565b5b509250929050565b6157bf82613b5a565b67ffffffffffffffff8111156157d8576157d7613dfc565b5b6157e28254614aac565b6157ed828285615125565b5f60209050601f83116001811461581e575f841561580c578287015190505b6158168582615193565b86555061587d565b601f19841661582c8661501a565b5f5b828110156158535784890151825560018201915060208501945060208101905061582e565b86831015615870578489015161586c601f891682615177565b8355505b6001600288020188555050505b505050505050565b5f6040820190506158985f83018561461e565b6158a56020830184614936565b9392505050565b5f80fd5b5f80fd5b5f815190506158c281614646565b92915050565b5f67ffffffffffffffff8211156158e2576158e1613dfc565b5b6158eb82613b9c565b9050602081019050919050565b5f61590a615905846158c8565b613e5a565b90508281526020810184848401111561592657615925613f34565b5b615931848285613b74565b509392505050565b5f82601f83011261594d5761594c613ca3565b5b815161595d8482602086016158f8565b91505092915050565b5f81519050615974816139ec565b92915050565b5f6080828403121561598f5761598e6158ac565b5b6159996080613e5a565b90505f6159a8848285016158b4565b5f83015250602082015167ffffffffffffffff8111156159cb576159ca6158b0565b5b6159d784828501615939565b60208301525060406159eb84828501615966565b60408301525060606159ff84828501615966565b60608301525092915050565b5f60208284031215615a2057615a1f613981565b5b5f82015167ffffffffffffffff811115615a3d57615a3c613985565b5b615a498482850161597a565b91505092915050565b5f604082019050615a655f830185614936565b615a72602083018461461e565b9392505050565b7f50726f6f66207265717565737420616c726561647920657869737473000000005f82015250565b5f615aad601c83613b64565b9150615ab882615a79565b602082019050919050565b5f6020820190508181035f830152615ada81615aa1565b9050919050565b7f526f6c65206d757374206265202773656e64657227206f7220277265636569765f8201527f6572270000000000000000000000000000000000000000000000000000000000602082015250565b5f615b3b602383613b64565b9150615b4682615ae1565b604082019050919050565b5f6020820190508181035f830152615b6881615b2f565b9050919050565b5f604082019050615b825f83018561461e565b615b8f602083018461461e565b9392505050565b5f608082019050615ba95f83018761461e565b615bb66020830186613a54565b615bc36040830185613a54565b615bd06060830184613a54565b95945050505050565b5f6040820190508181035f830152615bf18185614317565b90508181036020830152615c058184614317565b90509392505050565b5f82825260208201905092915050565b5f615c2882615674565b615c328185615c0e565b9350615c42818560208601613b74565b615c4b81613b9c565b840191505092915050565b5f60a082019050615c695f83018861461e565b615c76602083018761461e565b615c836040830186613a54565b615c906060830185613a54565b8181036080830152615ca28184615c1e565b90509695505050505050565b5f81519050615cbc81613aa7565b92915050565b5f60208284031215615cd757615cd6613981565b5b5f615ce484828501615cae565b91505092915050565b5f60a082019050615d005f83018861461e565b615d0d602083018761461e565b8181036040830152615d1f8186614317565b90508181036060830152615d338185614317565b90508181036080830152615d478184615c1e565b9050969550505050505056fea2646970667358221220383c5b7d50981ea4280f93c1503e262f50ccb14ca18da4dcfe3d8a816062d70a64736f6c63430008140033",
		"opcodes": "PUSH1 0x80 PUSH1 0x40 MSTORE CALLVALUE DUP1 ISZERO PUSH2 0xF JUMPI PUSH0 DUP1 REVERT JUMPDEST POP PUSH1 0x4 CALLDATASIZE LT PUSH2 0x170 JUMPI PUSH0 CALLDATALOAD PUSH1 0xE0 SHR DUP1 PUSH4 0x715018A6 GT PUSH2 0xDC JUMPI DUP1 PUSH4 0xBCE68AC3 GT PUSH2 0x95 JUMPI DUP1 PUSH4 0xE985E9C5 GT PUSH2 0x6F JUMPI DUP1 PUSH4 0xE985E9C5 EQ PUSH2 0x46D JUMPI DUP1 PUSH4 0xF242432A EQ PUSH2 0x49D JUMPI DUP1 PUSH4 0xF2FDE38B EQ PUSH2 0x4B9 JUMPI DUP1 PUSH4 0xF5298ACA EQ PUSH2 0x4D5 JUMPI PUSH2 0x170 JUMP JUMPDEST DUP1 PUSH4 0xBCE68AC3 EQ PUSH2 0x3DC JUMPI DUP1 PUSH4 0xD121CDC0 EQ PUSH2 0x40D JUMPI DUP1 PUSH4 0xE725F877 EQ PUSH2 0x43D JUMPI PUSH2 0x170 JUMP JUMPDEST DUP1 PUSH4 0x715018A6 EQ PUSH2 0x32E JUMPI DUP1 PUSH4 0x7330DD84 EQ PUSH2 0x338 JUMPI DUP1 PUSH4 0x7578B248 EQ PUSH2 0x354 JUMPI DUP1 PUSH4 0x8DA5CB5B EQ PUSH2 0x372 JUMPI DUP1 PUSH4 0x94AD436D EQ PUSH2 0x390 JUMPI DUP1 PUSH4 0xA22CB465 EQ PUSH2 0x3C0 JUMPI PUSH2 0x170 JUMP JUMPDEST DUP1 PUSH4 0x2EB2C2D6 GT PUSH2 0x12E JUMPI DUP1 PUSH4 0x2EB2C2D6 EQ PUSH2 0x25A JUMPI DUP1 PUSH4 0x31AE450B EQ PUSH2 0x276 JUMPI DUP1 PUSH4 0x4E1273F4 EQ PUSH2 0x294 JUMPI DUP1 PUSH4 0x50FBDB2D EQ PUSH2 0x2C4 JUMPI DUP1 PUSH4 0x5F54C999 EQ PUSH2 0x2E0 JUMPI DUP1 PUSH4 0x70480275 EQ PUSH2 0x312 JUMPI PUSH2 0x170 JUMP JUMPDEST DUP1 PUSH3 0xFDD58E EQ PUSH2 0x174 JUMPI DUP1 PUSH4 0x1FFC9A7 EQ PUSH2 0x1A4 JUMPI DUP1 PUSH4 0xE89341C EQ PUSH2 0x1D4 JUMPI DUP1 PUSH4 0x1785F53C EQ PUSH2 0x204 JUMPI DUP1 PUSH4 0x2B7AC3F3 EQ PUSH2 0x220 JUMPI DUP1 PUSH4 0x2DBFF950 EQ PUSH2 0x23E JUMPI JUMPDEST PUSH0 DUP1 REVERT JUMPDEST PUSH2 0x18E PUSH1 0x4 DUP1 CALLDATASIZE SUB DUP2 ADD SWAP1 PUSH2 0x189 SWAP2 SWAP1 PUSH2 0x3A16 JUMP JUMPDEST PUSH2 0x4F1 JUMP JUMPDEST PUSH1 0x40 MLOAD PUSH2 0x19B SWAP2 SWAP1 PUSH2 0x3A63 JUMP JUMPDEST PUSH1 0x40 MLOAD DUP1 SWAP2 SUB SWAP1 RETURN JUMPDEST PUSH2 0x1BE PUSH1 0x4 DUP1 CALLDATASIZE SUB DUP2 ADD SWAP1 PUSH2 0x1B9 SWAP2 SWAP1 PUSH2 0x3AD1 JUMP JUMPDEST PUSH2 0x546 JUMP JUMPDEST PUSH1 0x40 MLOAD PUSH2 0x1CB SWAP2 SWAP1 PUSH2 0x3B16 JUMP JUMPDEST PUSH1 0x40 MLOAD DUP1 SWAP2 SUB SWAP1 RETURN JUMPDEST PUSH2 0x1EE PUSH1 0x4 DUP1 CALLDATASIZE SUB DUP2 ADD SWAP1 PUSH2 0x1E9 SWAP2 SWAP1 PUSH2 0x3B2F JUMP JUMPDEST PUSH2 0x627 JUMP JUMPDEST PUSH1 0x40 MLOAD PUSH2 0x1FB SWAP2 SWAP1 PUSH2 0x3BE4 JUMP JUMPDEST PUSH1 0x40 MLOAD DUP1 SWAP2 SUB SWAP1 RETURN JUMPDEST PUSH2 0x21E PUSH1 0x4 DUP1 CALLDATASIZE SUB DUP2 ADD SWAP1 PUSH2 0x219 SWAP2 SWAP1 PUSH2 0x3C04 JUMP JUMPDEST PUSH2 0x6B9 JUMP JUMPDEST STOP JUMPDEST PUSH2 0x228 PUSH2 0x880 JUMP JUMPDEST PUSH1 0x40 MLOAD PUSH2 0x235 SWAP2 SWAP1 PUSH2 0x3C8A JUMP JUMPDEST PUSH1 0x40 MLOAD DUP1 SWAP2 SUB SWAP1 RETURN JUMPDEST PUSH2 0x258 PUSH1 0x4 DUP1 CALLDATASIZE SUB DUP2 ADD SWAP1 PUSH2 0x253 SWAP2 SWAP1 PUSH2 0x3D59 JUMP JUMPDEST PUSH2 0x8A5 JUMP JUMPDEST STOP JUMPDEST PUSH2 0x274 PUSH1 0x4 DUP1 CALLDATASIZE SUB DUP2 ADD SWAP1 PUSH2 0x26F SWAP2 SWAP1 PUSH2 0x3FE4 JUMP JUMPDEST PUSH2 0xB85 JUMP JUMPDEST STOP JUMPDEST PUSH2 0x27E PUSH2 0xCC1 JUMP JUMPDEST PUSH1 0x40 MLOAD PUSH2 0x28B SWAP2 SWAP1 PUSH2 0x4166 JUMP JUMPDEST PUSH1 0x40 MLOAD DUP1 SWAP2 SUB SWAP1 RETURN JUMPDEST PUSH2 0x2AE PUSH1 0x4 DUP1 CALLDATASIZE SUB DUP2 ADD SWAP1 PUSH2 0x2A9 SWAP2 SWAP1 PUSH2 0x4246 JUMP JUMPDEST PUSH2 0xD54 JUMP JUMPDEST PUSH1 0x40 MLOAD PUSH2 0x2BB SWAP2 SWAP1 PUSH2 0x4373 JUMP JUMPDEST PUSH1 0x40 MLOAD DUP1 SWAP2 SUB SWAP1 RETURN JUMPDEST PUSH2 0x2DE PUSH1 0x4 DUP1 CALLDATASIZE SUB DUP2 ADD SWAP1 PUSH2 0x2D9 SWAP2 SWAP1 PUSH2 0x43D0 JUMP JUMPDEST PUSH2 0xE61 JUMP JUMPDEST STOP JUMPDEST PUSH2 0x2FA PUSH1 0x4 DUP1 CALLDATASIZE SUB DUP2 ADD SWAP1 PUSH2 0x2F5 SWAP2 SWAP1 PUSH2 0x440E JUMP JUMPDEST PUSH2 0x12A8 JUMP JUMPDEST PUSH1 0x40 MLOAD PUSH2 0x309 SWAP4 SWAP3 SWAP2 SWAP1 PUSH2 0x445E JUMP JUMPDEST PUSH1 0x40 MLOAD DUP1 SWAP2 SUB SWAP1 RETURN JUMPDEST PUSH2 0x32C PUSH1 0x4 DUP1 CALLDATASIZE SUB DUP2 ADD SWAP1 PUSH2 0x327 SWAP2 SWAP1 PUSH2 0x3C04 JUMP JUMPDEST PUSH2 0x1476 JUMP JUMPDEST STOP JUMPDEST PUSH2 0x336 PUSH2 0x1598 JUMP JUMPDEST STOP JUMPDEST PUSH2 0x352 PUSH1 0x4 DUP1 CALLDATASIZE SUB DUP2 ADD SWAP1 PUSH2 0x34D SWAP2 SWAP1 PUSH2 0x4505 JUMP JUMPDEST PUSH2 0x15AB JUMP JUMPDEST STOP JUMPDEST PUSH2 0x35C PUSH2 0x1911 JUMP JUMPDEST PUSH1 0x40 MLOAD PUSH2 0x369 SWAP2 SWAP1 PUSH2 0x4373 JUMP JUMPDEST PUSH1 0x40 MLOAD DUP1 SWAP2 SUB SWAP1 RETURN JUMPDEST PUSH2 0x37A PUSH2 0x1922 JUMP JUMPDEST PUSH1 0x40 MLOAD PUSH2 0x387 SWAP2 SWAP1 PUSH2 0x462D JUMP JUMPDEST PUSH1 0x40 MLOAD DUP1 SWAP2 SUB SWAP1 RETURN JUMPDEST PUSH2 0x3AA PUSH1 0x4 DUP1 CALLDATASIZE SUB DUP2 ADD SWAP1 PUSH2 0x3A5 SWAP2 SWAP1 PUSH2 0x440E JUMP JUMPDEST PUSH2 0x194A JUMP JUMPDEST PUSH1 0x40 MLOAD PUSH2 0x3B7 SWAP2 SWAP1 PUSH2 0x3BE4 JUMP JUMPDEST PUSH1 0x40 MLOAD DUP1 SWAP2 SUB SWAP1 RETURN JUMPDEST PUSH2 0x3DA PUSH1 0x4 DUP1 CALLDATASIZE SUB DUP2 ADD SWAP1 PUSH2 0x3D5 SWAP2 SWAP1 PUSH2 0x4670 JUMP JUMPDEST PUSH2 0x19FB JUMP JUMPDEST STOP JUMPDEST PUSH2 0x3F6 PUSH1 0x4 DUP1 CALLDATASIZE SUB DUP2 ADD SWAP1 PUSH2 0x3F1 SWAP2 SWAP1 PUSH2 0x46AE JUMP JUMPDEST PUSH2 0x1A11 JUMP JUMPDEST PUSH1 0x40 MLOAD PUSH2 0x404 SWAP3 SWAP2 SWAP1 PUSH2 0x4901 JUMP JUMPDEST PUSH1 0x40 MLOAD DUP1 SWAP2 SUB SWAP1 RETURN JUMPDEST PUSH2 0x427 PUSH1 0x4 DUP1 CALLDATASIZE SUB DUP2 ADD SWAP1 PUSH2 0x422 SWAP2 SWAP1 PUSH2 0x3B2F JUMP JUMPDEST PUSH2 0x1F9B JUMP JUMPDEST PUSH1 0x40 MLOAD PUSH2 0x434 SWAP2 SWAP1 PUSH2 0x4945 JUMP JUMPDEST PUSH1 0x40 MLOAD DUP1 SWAP2 SUB SWAP1 RETURN JUMPDEST PUSH2 0x457 PUSH1 0x4 DUP1 CALLDATASIZE SUB DUP2 ADD SWAP1 PUSH2 0x452 SWAP2 SWAP1 PUSH2 0x3B2F JUMP JUMPDEST PUSH2 0x1FD6 JUMP JUMPDEST PUSH1 0x40 MLOAD PUSH2 0x464 SWAP2 SWAP1 PUSH2 0x3BE4 JUMP JUMPDEST PUSH1 0x40 MLOAD DUP1 SWAP2 SUB SWAP1 RETURN JUMPDEST PUSH2 0x487 PUSH1 0x4 DUP1 CALLDATASIZE SUB DUP2 ADD SWAP1 PUSH2 0x482 SWAP2 SWAP1 PUSH2 0x495E JUMP JUMPDEST PUSH2 0x2071 JUMP JUMPDEST PUSH1 0x40 MLOAD PUSH2 0x494 SWAP2 SWAP1 PUSH2 0x3B16 JUMP JUMPDEST PUSH1 0x40 MLOAD DUP1 SWAP2 SUB SWAP1 RETURN JUMPDEST PUSH2 0x4B7 PUSH1 0x4 DUP1 CALLDATASIZE SUB DUP2 ADD SWAP1 PUSH2 0x4B2 SWAP2 SWAP1 PUSH2 0x499C JUMP JUMPDEST PUSH2 0x20FF JUMP JUMPDEST STOP JUMPDEST PUSH2 0x4D3 PUSH1 0x4 DUP1 CALLDATASIZE SUB DUP2 ADD SWAP1 PUSH2 0x4CE SWAP2 SWAP1 PUSH2 0x3C04 JUMP JUMPDEST PUSH2 0x211E JUMP JUMPDEST STOP JUMPDEST PUSH2 0x4EF PUSH1 0x4 DUP1 CALLDATASIZE SUB DUP2 ADD SWAP1 PUSH2 0x4EA SWAP2 SWAP1 PUSH2 0x4A2F JUMP JUMPDEST PUSH2 0x21A2 JUMP JUMPDEST STOP JUMPDEST PUSH0 DUP1 PUSH0 DUP4 DUP2 MSTORE PUSH1 0x20 ADD SWAP1 DUP2 MSTORE PUSH1 0x20 ADD PUSH0 KECCAK256 PUSH0 DUP5 PUSH20 0xFFFFFFFFFFFFFFFFFFFFFFFFFFFFFFFFFFFFFFFF AND PUSH20 0xFFFFFFFFFFFFFFFFFFFFFFFFFFFFFFFFFFFFFFFF AND DUP2 MSTORE PUSH1 0x20 ADD SWAP1 DUP2 MSTORE PUSH1 0x20 ADD PUSH0 KECCAK256 SLOAD SWAP1 POP SWAP3 SWAP2 POP POP JUMP JUMPDEST PUSH0 PUSH32 0xD9B67A2600000000000000000000000000000000000000000000000000000000 PUSH28 0xFFFFFFFFFFFFFFFFFFFFFFFFFFFFFFFFFFFFFFFFFFFFFFFFFFFFFFFF NOT AND DUP3 PUSH28 0xFFFFFFFFFFFFFFFFFFFFFFFFFFFFFFFFFFFFFFFFFFFFFFFFFFFFFFFF NOT AND EQ DUP1 PUSH2 0x610 JUMPI POP PUSH32 0xE89341C00000000000000000000000000000000000000000000000000000000 PUSH28 0xFFFFFFFFFFFFFFFFFFFFFFFFFFFFFFFFFFFFFFFFFFFFFFFFFFFFFFFF NOT AND DUP3 PUSH28 0xFFFFFFFFFFFFFFFFFFFFFFFFFFFFFFFFFFFFFFFFFFFFFFFFFFFFFFFF NOT AND EQ JUMPDEST DUP1 PUSH2 0x620 JUMPI POP PUSH2 0x61F DUP3 PUSH2 0x21BA JUMP JUMPDEST JUMPDEST SWAP1 POP SWAP2 SWAP1 POP JUMP JUMPDEST PUSH1 0x60 PUSH1 0x2 DUP1 SLOAD PUSH2 0x636 SWAP1 PUSH2 0x4AAC JUMP JUMPDEST DUP1 PUSH1 0x1F ADD PUSH1 0x20 DUP1 SWAP2 DIV MUL PUSH1 0x20 ADD PUSH1 0x40 MLOAD SWAP1 DUP2 ADD PUSH1 0x40 MSTORE DUP1 SWAP3 SWAP2 SWAP1 DUP2 DUP2 MSTORE PUSH1 0x20 ADD DUP3 DUP1 SLOAD PUSH2 0x662 SWAP1 PUSH2 0x4AAC JUMP JUMPDEST DUP1 ISZERO PUSH2 0x6AD JUMPI DUP1 PUSH1 0x1F LT PUSH2 0x684 JUMPI PUSH2 0x100 DUP1 DUP4 SLOAD DIV MUL DUP4 MSTORE SWAP2 PUSH1 0x20 ADD SWAP2 PUSH2 0x6AD JUMP JUMPDEST DUP3 ADD SWAP2 SWAP1 PUSH0 MSTORE PUSH1 0x20 PUSH0 KECCAK256 SWAP1 JUMPDEST DUP2 SLOAD DUP2 MSTORE SWAP1 PUSH1 0x1 ADD SWAP1 PUSH1 0x20 ADD DUP1 DUP4 GT PUSH2 0x690 JUMPI DUP3 SWAP1 SUB PUSH1 0x1F AND DUP3 ADD SWAP2 JUMPDEST POP POP POP POP POP SWAP1 POP SWAP2 SWAP1 POP JUMP JUMPDEST PUSH2 0x6C1 PUSH2 0x2223 JUMP JUMPDEST PUSH0 PUSH1 0x4 DUP1 SLOAD SWAP1 POP SWAP1 POP PUSH0 JUMPDEST DUP2 DUP2 LT ISZERO PUSH2 0x841 JUMPI DUP3 PUSH20 0xFFFFFFFFFFFFFFFFFFFFFFFFFFFFFFFFFFFFFFFF AND PUSH1 0x4 DUP3 DUP2 SLOAD DUP2 LT PUSH2 0x6FF JUMPI PUSH2 0x6FE PUSH2 0x4ADC JUMP JUMPDEST JUMPDEST SWAP1 PUSH0 MSTORE PUSH1 0x20 PUSH0 KECCAK256 ADD PUSH0 SWAP1 SLOAD SWAP1 PUSH2 0x100 EXP SWAP1 DIV PUSH20 0xFFFFFFFFFFFFFFFFFFFFFFFFFFFFFFFFFFFFFFFF AND PUSH20 0xFFFFFFFFFFFFFFFFFFFFFFFFFFFFFFFFFFFFFFFF AND SUB PUSH2 0x82E JUMPI PUSH1 0x4 PUSH1 0x1 DUP4 PUSH2 0x751 SWAP2 SWAP1 PUSH2 0x4B36 JUMP JUMPDEST DUP2 SLOAD DUP2 LT PUSH2 0x762 JUMPI PUSH2 0x761 PUSH2 0x4ADC JUMP JUMPDEST JUMPDEST SWAP1 PUSH0 MSTORE PUSH1 0x20 PUSH0 KECCAK256 ADD PUSH0 SWAP1 SLOAD SWAP1 PUSH2 0x100 EXP SWAP1 DIV PUSH20 0xFFFFFFFFFFFFFFFFFFFFFFFFFFFFFFFFFFFFFFFF AND PUSH1 0x4 DUP3 DUP2 SLOAD DUP2 LT PUSH2 0x79E JUMPI PUSH2 0x79D PUSH2 0x4ADC JUMP JUMPDEST JUMPDEST SWAP1 PUSH0 MSTORE PUSH1 0x20 PUSH0 KECCAK256 ADD PUSH0 PUSH2 0x100 EXP DUP2 SLOAD DUP2 PUSH20 0xFFFFFFFFFFFFFFFFFFFFFFFFFFFFFFFFFFFFFFFF MUL NOT AND SWAP1 DUP4 PUSH20 0xFFFFFFFFFFFFFFFFFFFFFFFFFFFFFFFFFFFFFFFF AND MUL OR SWAP1 SSTORE POP PUSH1 0x4 DUP1 SLOAD DUP1 PUSH2 0x7F5 JUMPI PUSH2 0x7F4 PUSH2 0x4B69 JUMP JUMPDEST JUMPDEST PUSH1 0x1 SWAP1 SUB DUP2 DUP2 SWAP1 PUSH0 MSTORE PUSH1 0x20 PUSH0 KECCAK256 ADD PUSH0 PUSH2 0x100 EXP DUP2 SLOAD SWAP1 PUSH20 0xFFFFFFFFFFFFFFFFFFFFFFFFFFFFFFFFFFFFFFFF MUL NOT AND SWAP1 SSTORE SWAP1 SSTORE POP POP PUSH2 0x87D JUMP JUMPDEST DUP1 DUP1 PUSH2 0x839 SWAP1 PUSH2 0x4B96 JUMP JUMPDEST SWAP2 POP POP PUSH2 0x6CC JUMP JUMPDEST POP PUSH1 0x40 MLOAD PUSH32 0x8C379A000000000000000000000000000000000000000000000000000000000 DUP2 MSTORE PUSH1 0x4 ADD PUSH2 0x874 SWAP1 PUSH2 0x4C27 JUMP JUMPDEST PUSH1 0x40 MLOAD DUP1 SWAP2 SUB SWAP1 REVERT JUMPDEST POP JUMP JUMPDEST PUSH1 0xB PUSH0 SWAP1 SLOAD SWAP1 PUSH2 0x100 EXP SWAP1 DIV PUSH20 0xFFFFFFFFFFFFFFFFFFFFFFFFFFFFFFFFFFFFFFFF AND DUP2 JUMP JUMPDEST PUSH0 DUP3 DUP3 SWAP1 POP GT PUSH2 0x8EA JUMPI PUSH1 0x40 MLOAD PUSH32 0x8C379A000000000000000000000000000000000000000000000000000000000 DUP2 MSTORE PUSH1 0x4 ADD PUSH2 0x8E1 SWAP1 PUSH2 0x4C8F JUMP JUMPDEST PUSH1 0x40 MLOAD DUP1 SWAP2 SUB SWAP1 REVERT JUMPDEST PUSH0 DUP1 PUSH0 PUSH2 0x8F7 PUSH1 0x5 PUSH2 0x22AA JUMP JUMPDEST SWAP1 POP PUSH0 JUMPDEST DUP2 MLOAD DUP2 LT ISZERO PUSH2 0x99A JUMPI DUP6 DUP6 PUSH1 0x40 MLOAD PUSH2 0x914 SWAP3 SWAP2 SWAP1 PUSH2 0x4CDB JUMP JUMPDEST PUSH1 0x40 MLOAD DUP1 SWAP2 SUB SWAP1 KECCAK256 PUSH1 0x7 PUSH0 DUP5 DUP5 DUP2 MLOAD DUP2 LT PUSH2 0x932 JUMPI PUSH2 0x931 PUSH2 0x4ADC JUMP JUMPDEST JUMPDEST PUSH1 0x20 MUL PUSH1 0x20 ADD ADD MLOAD DUP2 MSTORE PUSH1 0x20 ADD SWAP1 DUP2 MSTORE PUSH1 0x20 ADD PUSH0 KECCAK256 PUSH1 0x40 MLOAD PUSH2 0x954 SWAP2 SWAP1 PUSH2 0x4D85 JUMP JUMPDEST PUSH1 0x40 MLOAD DUP1 SWAP2 SUB SWAP1 KECCAK256 SUB PUSH2 0x987 JUMPI DUP2 DUP2 DUP2 MLOAD DUP2 LT PUSH2 0x974 JUMPI PUSH2 0x973 PUSH2 0x4ADC JUMP JUMPDEST JUMPDEST PUSH1 0x20 MUL PUSH1 0x20 ADD ADD MLOAD SWAP4 POP PUSH1 0x1 SWAP3 POP PUSH2 0x99A JUMP JUMPDEST DUP1 DUP1 PUSH2 0x992 SWAP1 PUSH2 0x4B96 JUMP JUMPDEST SWAP2 POP POP PUSH2 0x8FB JUMP JUMPDEST POP DUP2 ISZERO PUSH2 0x9F5 JUMPI PUSH2 0x9F0 DUP10 DUP5 DUP11 DUP11 DUP11 DUP1 DUP1 PUSH1 0x1F ADD PUSH1 0x20 DUP1 SWAP2 DIV MUL PUSH1 0x20 ADD PUSH1 0x40 MLOAD SWAP1 DUP2 ADD PUSH1 0x40 MSTORE DUP1 SWAP4 SWAP3 SWAP2 SWAP1 DUP2 DUP2 MSTORE PUSH1 0x20 ADD DUP4 DUP4 DUP1 DUP3 DUP5 CALLDATACOPY PUSH0 DUP2 DUP5 ADD MSTORE PUSH1 0x1F NOT PUSH1 0x1F DUP3 ADD AND SWAP1 POP DUP1 DUP4 ADD SWAP3 POP POP POP POP POP POP POP PUSH2 0x22C9 JUMP JUMPDEST PUSH2 0xB7A JUMP JUMPDEST PUSH0 DUP1 PUSH0 SWAP1 POP JUMPDEST PUSH3 0x15F90 TIMESTAMP PREVRANDAO DUP14 DUP11 DUP11 DUP7 PUSH1 0x40 MLOAD PUSH1 0x20 ADD PUSH2 0xA1A SWAP7 SWAP6 SWAP5 SWAP4 SWAP3 SWAP2 SWAP1 PUSH2 0x4E2E JUMP JUMPDEST PUSH1 0x40 MLOAD PUSH1 0x20 DUP2 DUP4 SUB SUB DUP2 MSTORE SWAP1 PUSH1 0x40 MSTORE DUP1 MLOAD SWAP1 PUSH1 0x20 ADD KECCAK256 PUSH0 SHR PUSH2 0xA3C SWAP2 SWAP1 PUSH2 0x4EB7 JUMP JUMPDEST PUSH2 0x3E8 PUSH2 0xA49 SWAP2 SWAP1 PUSH2 0x4EE7 JUMP JUMPDEST SWAP2 POP DUP1 DUP1 PUSH2 0xA56 SWAP1 PUSH2 0x4B96 JUMP JUMPDEST SWAP2 POP POP PUSH1 0x64 DUP2 LT PUSH2 0xA9C JUMPI PUSH1 0x40 MLOAD PUSH32 0x8C379A000000000000000000000000000000000000000000000000000000000 DUP2 MSTORE PUSH1 0x4 ADD PUSH2 0xA93 SWAP1 PUSH2 0x4F8A JUMP JUMPDEST PUSH1 0x40 MLOAD DUP1 SWAP2 SUB SWAP1 REVERT JUMPDEST PUSH2 0xAB0 DUP3 PUSH1 0x5 PUSH2 0x235E SWAP1 SWAP2 SWAP1 PUSH4 0xFFFFFFFF AND JUMP JUMPDEST PUSH2 0x9FB JUMPI PUSH2 0xAC8 DUP3 PUSH1 0x5 PUSH2 0x2375 SWAP1 SWAP2 SWAP1 PUSH4 0xFFFFFFFF AND JUMP JUMPDEST PUSH2 0xB07 JUMPI PUSH1 0x40 MLOAD PUSH32 0x8C379A000000000000000000000000000000000000000000000000000000000 DUP2 MSTORE PUSH1 0x4 ADD PUSH2 0xAFE SWAP1 PUSH2 0x4FF2 JUMP JUMPDEST PUSH1 0x40 MLOAD DUP1 SWAP2 SUB SWAP1 REVERT JUMPDEST PUSH2 0xB56 DUP12 DUP4 DUP13 DUP13 DUP13 DUP1 DUP1 PUSH1 0x1F ADD PUSH1 0x20 DUP1 SWAP2 DIV MUL PUSH1 0x20 ADD PUSH1 0x40 MLOAD SWAP1 DUP2 ADD PUSH1 0x40 MSTORE DUP1 SWAP4 SWAP3 SWAP2 SWAP1 DUP2 DUP2 MSTORE PUSH1 0x20 ADD DUP4 DUP4 DUP1 DUP3 DUP5 CALLDATACOPY PUSH0 DUP2 DUP5 ADD MSTORE PUSH1 0x1F NOT PUSH1 0x1F DUP3 ADD AND SWAP1 POP DUP1 DUP4 ADD SWAP3 POP POP POP POP POP POP POP PUSH2 0x22C9 JUMP JUMPDEST DUP7 DUP7 PUSH1 0x7 PUSH0 DUP6 DUP2 MSTORE PUSH1 0x20 ADD SWAP1 DUP2 MSTORE PUSH1 0x20 ADD PUSH0 KECCAK256 SWAP2 DUP3 PUSH2 0xB76 SWAP3 SWAP2 SWAP1 PUSH2 0x51AE JUMP JUMPDEST POP POP POP JUMPDEST POP POP POP POP POP POP POP POP POP JUMP JUMPDEST DUP2 MLOAD DUP4 MLOAD EQ PUSH2 0xBC9 JUMPI PUSH1 0x40 MLOAD PUSH32 0x8C379A000000000000000000000000000000000000000000000000000000000 DUP2 MSTORE PUSH1 0x4 ADD PUSH2 0xBC0 SWAP1 PUSH2 0x52EB JUMP JUMPDEST PUSH1 0x40 MLOAD DUP1 SWAP2 SUB SWAP1 REVERT JUMPDEST PUSH0 PUSH20 0xFFFFFFFFFFFFFFFFFFFFFFFFFFFFFFFFFFFFFFFF AND DUP5 PUSH20 0xFFFFFFFFFFFFFFFFFFFFFFFFFFFFFFFFFFFFFFFF AND SUB PUSH2 0xC37 JUMPI PUSH1 0x40 MLOAD PUSH32 0x8C379A000000000000000000000000000000000000000000000000000000000 DUP2 MSTORE PUSH1 0x4 ADD PUSH2 0xC2E SWAP1 PUSH2 0x5379 JUMP JUMPDEST PUSH1 0x40 MLOAD DUP1 SWAP2 SUB SWAP1 REVERT JUMPDEST PUSH0 JUMPDEST DUP4 MLOAD DUP2 LT ISZERO PUSH2 0xCB9 JUMPI PUSH2 0xC67 DUP5 DUP3 DUP2 MLOAD DUP2 LT PUSH2 0xC58 JUMPI PUSH2 0xC57 PUSH2 0x4ADC JUMP JUMPDEST JUMPDEST PUSH1 0x20 MUL PUSH1 0x20 ADD ADD MLOAD DUP8 DUP8 PUSH2 0x238C JUMP JUMPDEST PUSH2 0xCA8 DUP7 DUP7 DUP7 DUP5 DUP2 MLOAD DUP2 LT PUSH2 0xC7F JUMPI PUSH2 0xC7E PUSH2 0x4ADC JUMP JUMPDEST JUMPDEST PUSH1 0x20 MUL PUSH1 0x20 ADD ADD MLOAD DUP7 DUP6 DUP2 MLOAD DUP2 LT PUSH2 0xC9A JUMPI PUSH2 0xC99 PUSH2 0x4ADC JUMP JUMPDEST JUMPDEST PUSH1 0x20 MUL PUSH1 0x20 ADD ADD MLOAD DUP7 PUSH2 0x20FF JUMP JUMPDEST DUP1 PUSH2 0xCB2 SWAP1 PUSH2 0x4B96 JUMP JUMPDEST SWAP1 POP PUSH2 0xC39 JUMP JUMPDEST POP POP POP POP POP POP JUMP JUMPDEST PUSH1 0x60 PUSH2 0xCCB PUSH2 0x2223 JUMP JUMPDEST PUSH1 0x4 DUP1 SLOAD DUP1 PUSH1 0x20 MUL PUSH1 0x20 ADD PUSH1 0x40 MLOAD SWAP1 DUP2 ADD PUSH1 0x40 MSTORE DUP1 SWAP3 SWAP2 SWAP1 DUP2 DUP2 MSTORE PUSH1 0x20 ADD DUP3 DUP1 SLOAD DUP1 ISZERO PUSH2 0xD4A JUMPI PUSH1 0x20 MUL DUP3 ADD SWAP2 SWAP1 PUSH0 MSTORE PUSH1 0x20 PUSH0 KECCAK256 SWAP1 JUMPDEST DUP2 PUSH0 SWAP1 SLOAD SWAP1 PUSH2 0x100 EXP SWAP1 DIV PUSH20 0xFFFFFFFFFFFFFFFFFFFFFFFFFFFFFFFFFFFFFFFF AND PUSH20 0xFFFFFFFFFFFFFFFFFFFFFFFFFFFFFFFFFFFFFFFF AND DUP2 MSTORE PUSH1 0x20 ADD SWAP1 PUSH1 0x1 ADD SWAP1 DUP1 DUP4 GT PUSH2 0xD01 JUMPI JUMPDEST POP POP POP POP POP SWAP1 POP SWAP1 JUMP JUMPDEST PUSH1 0x60 DUP2 MLOAD DUP4 MLOAD EQ PUSH2 0xDA0 JUMPI DUP2 MLOAD DUP4 MLOAD PUSH1 0x40 MLOAD PUSH32 0x5B05999100000000000000000000000000000000000000000000000000000000 DUP2 MSTORE PUSH1 0x4 ADD PUSH2 0xD97 SWAP3 SWAP2 SWAP1 PUSH2 0x5397 JUMP JUMPDEST PUSH1 0x40 MLOAD DUP1 SWAP2 SUB SWAP1 REVERT JUMPDEST PUSH0 DUP4 MLOAD PUSH8 0xFFFFFFFFFFFFFFFF DUP2 GT ISZERO PUSH2 0xDBC JUMPI PUSH2 0xDBB PUSH2 0x3DFC JUMP JUMPDEST JUMPDEST PUSH1 0x40 MLOAD SWAP1 DUP1 DUP3 MSTORE DUP1 PUSH1 0x20 MUL PUSH1 0x20 ADD DUP3 ADD PUSH1 0x40 MSTORE DUP1 ISZERO PUSH2 0xDEA JUMPI DUP2 PUSH1 0x20 ADD PUSH1 0x20 DUP3 MUL DUP1 CALLDATASIZE DUP4 CALLDATACOPY DUP1 DUP3 ADD SWAP2 POP POP SWAP1 POP JUMPDEST POP SWAP1 POP PUSH0 JUMPDEST DUP5 MLOAD DUP2 LT ISZERO PUSH2 0xE56 JUMPI PUSH2 0xE26 PUSH2 0xE0E DUP3 DUP8 PUSH2 0x2824 SWAP1 SWAP2 SWAP1 PUSH4 0xFFFFFFFF AND JUMP JUMPDEST PUSH2 0xE21 DUP4 DUP8 PUSH2 0x2837 SWAP1 SWAP2 SWAP1 PUSH4 0xFFFFFFFF AND JUMP JUMPDEST PUSH2 0x4F1 JUMP JUMPDEST DUP3 DUP3 DUP2 MLOAD DUP2 LT PUSH2 0xE39 JUMPI PUSH2 0xE38 PUSH2 0x4ADC JUMP JUMPDEST JUMPDEST PUSH1 0x20 MUL PUSH1 0x20 ADD ADD DUP2 DUP2 MSTORE POP POP DUP1 PUSH2 0xE4F SWAP1 PUSH2 0x4B96 JUMP JUMPDEST SWAP1 POP PUSH2 0xDEF JUMP JUMPDEST POP DUP1 SWAP2 POP POP SWAP3 SWAP2 POP POP JUMP JUMPDEST PUSH2 0xE75 DUP3 PUSH1 0x5 PUSH2 0x235E SWAP1 SWAP2 SWAP1 PUSH4 0xFFFFFFFF AND JUMP JUMPDEST PUSH2 0xEB4 JUMPI PUSH1 0x40 MLOAD PUSH32 0x8C379A000000000000000000000000000000000000000000000000000000000 DUP2 MSTORE PUSH1 0x4 ADD PUSH2 0xEAB SWAP1 PUSH2 0x5408 JUMP JUMPDEST PUSH1 0x40 MLOAD DUP1 SWAP2 SUB SWAP1 REVERT JUMPDEST PUSH0 PUSH1 0x8 PUSH0 DUP5 DUP2 MSTORE PUSH1 0x20 ADD SWAP1 DUP2 MSTORE PUSH1 0x20 ADD PUSH0 KECCAK256 PUSH0 CALLER PUSH20 0xFFFFFFFFFFFFFFFFFFFFFFFFFFFFFFFFFFFFFFFF AND PUSH20 0xFFFFFFFFFFFFFFFFFFFFFFFFFFFFFFFFFFFFFFFF AND DUP2 MSTORE PUSH1 0x20 ADD SWAP1 DUP2 MSTORE PUSH1 0x20 ADD PUSH0 KECCAK256 PUSH0 DUP4 PUSH8 0xFFFFFFFFFFFFFFFF AND PUSH8 0xFFFFFFFFFFFFFFFF AND DUP2 MSTORE PUSH1 0x20 ADD SWAP1 DUP2 MSTORE PUSH1 0x20 ADD PUSH0 KECCAK256 DUP1 SLOAD PUSH2 0xF2F SWAP1 PUSH2 0x4AAC JUMP JUMPDEST SWAP1 POP SUB PUSH2 0xF71 JUMPI PUSH1 0x40 MLOAD PUSH32 0x8C379A000000000000000000000000000000000000000000000000000000000 DUP2 MSTORE PUSH1 0x4 ADD PUSH2 0xF68 SWAP1 PUSH2 0x5470 JUMP JUMPDEST PUSH1 0x40 MLOAD DUP1 SWAP2 SUB SWAP1 REVERT JUMPDEST PUSH0 PUSH1 0x9 PUSH0 DUP5 DUP2 MSTORE PUSH1 0x20 ADD SWAP1 DUP2 MSTORE PUSH1 0x20 ADD PUSH0 KECCAK256 PUSH0 CALLER PUSH20 0xFFFFFFFFFFFFFFFFFFFFFFFFFFFFFFFFFFFFFFFF AND PUSH20 0xFFFFFFFFFFFFFFFFFFFFFFFFFFFFFFFFFFFFFFFF AND DUP2 MSTORE PUSH1 0x20 ADD SWAP1 DUP2 MSTORE PUSH1 0x20 ADD PUSH0 KECCAK256 PUSH0 DUP4 PUSH8 0xFFFFFFFFFFFFFFFF AND PUSH8 0xFFFFFFFFFFFFFFFF AND DUP2 MSTORE PUSH1 0x20 ADD SWAP1 DUP2 MSTORE PUSH1 0x20 ADD PUSH0 KECCAK256 PUSH0 ADD DUP1 SLOAD PUSH2 0xFEE SWAP1 PUSH2 0x4AAC JUMP JUMPDEST SWAP1 POP SUB PUSH2 0x1030 JUMPI PUSH1 0x40 MLOAD PUSH32 0x8C379A000000000000000000000000000000000000000000000000000000000 DUP2 MSTORE PUSH1 0x4 ADD PUSH2 0x1027 SWAP1 PUSH2 0x54D8 JUMP JUMPDEST PUSH1 0x40 MLOAD DUP1 SWAP2 SUB SWAP1 REVERT JUMPDEST PUSH1 0x8 PUSH0 DUP4 DUP2 MSTORE PUSH1 0x20 ADD SWAP1 DUP2 MSTORE PUSH1 0x20 ADD PUSH0 KECCAK256 PUSH0 CALLER PUSH20 0xFFFFFFFFFFFFFFFFFFFFFFFFFFFFFFFFFFFFFFFF AND PUSH20 0xFFFFFFFFFFFFFFFFFFFFFFFFFFFFFFFFFFFFFFFF AND DUP2 MSTORE PUSH1 0x20 ADD SWAP1 DUP2 MSTORE PUSH1 0x20 ADD PUSH0 KECCAK256 PUSH0 DUP3 PUSH8 0xFFFFFFFFFFFFFFFF AND PUSH8 0xFFFFFFFFFFFFFFFF AND DUP2 MSTORE PUSH1 0x20 ADD SWAP1 DUP2 MSTORE PUSH1 0x20 ADD PUSH0 KECCAK256 PUSH0 PUSH2 0x10AA SWAP2 SWAP1 PUSH2 0x38FF JUMP JUMPDEST PUSH1 0x9 PUSH0 DUP4 DUP2 MSTORE PUSH1 0x20 ADD SWAP1 DUP2 MSTORE PUSH1 0x20 ADD PUSH0 KECCAK256 PUSH0 CALLER PUSH20 0xFFFFFFFFFFFFFFFFFFFFFFFFFFFFFFFFFFFFFFFF AND PUSH20 0xFFFFFFFFFFFFFFFFFFFFFFFFFFFFFFFFFFFFFFFF AND DUP2 MSTORE PUSH1 0x20 ADD SWAP1 DUP2 MSTORE PUSH1 0x20 ADD PUSH0 KECCAK256 PUSH0 DUP3 PUSH8 0xFFFFFFFFFFFFFFFF AND PUSH8 0xFFFFFFFFFFFFFFFF AND DUP2 MSTORE PUSH1 0x20 ADD SWAP1 DUP2 MSTORE PUSH1 0x20 ADD PUSH0 KECCAK256 PUSH0 DUP1 DUP3 ADD PUSH0 PUSH2 0x1128 SWAP2 SWAP1 PUSH2 0x38FF JUMP JUMPDEST PUSH1 0x1 DUP3 ADD PUSH0 PUSH2 0x1137 SWAP2 SWAP1 PUSH2 0x38FF JUMP JUMPDEST PUSH1 0x2 DUP3 ADD PUSH0 PUSH2 0x1146 SWAP2 SWAP1 PUSH2 0x38FF JUMP JUMPDEST POP POP PUSH0 JUMPDEST PUSH1 0xA DUP1 SLOAD SWAP1 POP DUP2 LT ISZERO PUSH2 0x12A3 JUMPI DUP2 PUSH8 0xFFFFFFFFFFFFFFFF AND PUSH1 0xA DUP3 DUP2 SLOAD DUP2 LT PUSH2 0x1176 JUMPI PUSH2 0x1175 PUSH2 0x4ADC JUMP JUMPDEST JUMPDEST SWAP1 PUSH0 MSTORE PUSH1 0x20 PUSH0 KECCAK256 SWAP1 PUSH1 0x4 SWAP2 DUP3 DUP3 DIV ADD SWAP2 SWAP1 MOD PUSH1 0x8 MUL SWAP1 SLOAD SWAP1 PUSH2 0x100 EXP SWAP1 DIV PUSH8 0xFFFFFFFFFFFFFFFF AND PUSH8 0xFFFFFFFFFFFFFFFF AND SUB PUSH2 0x1290 JUMPI PUSH1 0xA PUSH1 0x1 PUSH1 0xA DUP1 SLOAD SWAP1 POP PUSH2 0x11C1 SWAP2 SWAP1 PUSH2 0x4B36 JUMP JUMPDEST DUP2 SLOAD DUP2 LT PUSH2 0x11D2 JUMPI PUSH2 0x11D1 PUSH2 0x4ADC JUMP JUMPDEST JUMPDEST SWAP1 PUSH0 MSTORE PUSH1 0x20 PUSH0 KECCAK256 SWAP1 PUSH1 0x4 SWAP2 DUP3 DUP3 DIV ADD SWAP2 SWAP1 MOD PUSH1 0x8 MUL SWAP1 SLOAD SWAP1 PUSH2 0x100 EXP SWAP1 DIV PUSH8 0xFFFFFFFFFFFFFFFF AND PUSH1 0xA DUP3 DUP2 SLOAD DUP2 LT PUSH2 0x120E JUMPI PUSH2 0x120D PUSH2 0x4ADC JUMP JUMPDEST JUMPDEST SWAP1 PUSH0 MSTORE PUSH1 0x20 PUSH0 KECCAK256 SWAP1 PUSH1 0x4 SWAP2 DUP3 DUP3 DIV ADD SWAP2 SWAP1 MOD PUSH1 0x8 MUL PUSH2 0x100 EXP DUP2 SLOAD DUP2 PUSH8 0xFFFFFFFFFFFFFFFF MUL NOT AND SWAP1 DUP4 PUSH8 0xFFFFFFFFFFFFFFFF AND MUL OR SWAP1 SSTORE POP PUSH1 0xA DUP1 SLOAD DUP1 PUSH2 0x1259 JUMPI PUSH2 0x1258 PUSH2 0x4B69 JUMP JUMPDEST JUMPDEST PUSH1 0x1 SWAP1 SUB DUP2 DUP2 SWAP1 PUSH0 MSTORE PUSH1 0x20 PUSH0 KECCAK256 SWAP1 PUSH1 0x4 SWAP2 DUP3 DUP3 DIV ADD SWAP2 SWAP1 MOD PUSH1 0x8 MUL PUSH2 0x100 EXP DUP2 SLOAD SWAP1 PUSH8 0xFFFFFFFFFFFFFFFF MUL NOT AND SWAP1 SSTORE SWAP1 SSTORE PUSH2 0x12A3 JUMP JUMPDEST DUP1 DUP1 PUSH2 0x129B SWAP1 PUSH2 0x4B96 JUMP JUMPDEST SWAP2 POP POP PUSH2 0x114A JUMP JUMPDEST POP POP POP JUMP JUMPDEST PUSH1 0x9 PUSH1 0x20 MSTORE DUP3 PUSH0 MSTORE PUSH1 0x40 PUSH0 KECCAK256 PUSH1 0x20 MSTORE DUP2 PUSH0 MSTORE PUSH1 0x40 PUSH0 KECCAK256 PUSH1 0x20 MSTORE DUP1 PUSH0 MSTORE PUSH1 0x40 PUSH0 KECCAK256 PUSH0 SWAP3 POP SWAP3 POP POP POP DUP1 PUSH0 ADD DUP1 SLOAD PUSH2 0x12DD SWAP1 PUSH2 0x4AAC JUMP JUMPDEST DUP1 PUSH1 0x1F ADD PUSH1 0x20 DUP1 SWAP2 DIV MUL PUSH1 0x20 ADD PUSH1 0x40 MLOAD SWAP1 DUP2 ADD PUSH1 0x40 MSTORE DUP1 SWAP3 SWAP2 SWAP1 DUP2 DUP2 MSTORE PUSH1 0x20 ADD DUP3 DUP1 SLOAD PUSH2 0x1309 SWAP1 PUSH2 0x4AAC JUMP JUMPDEST DUP1 ISZERO PUSH2 0x1354 JUMPI DUP1 PUSH1 0x1F LT PUSH2 0x132B JUMPI PUSH2 0x100 DUP1 DUP4 SLOAD DIV MUL DUP4 MSTORE SWAP2 PUSH1 0x20 ADD SWAP2 PUSH2 0x1354 JUMP JUMPDEST DUP3 ADD SWAP2 SWAP1 PUSH0 MSTORE PUSH1 0x20 PUSH0 KECCAK256 SWAP1 JUMPDEST DUP2 SLOAD DUP2 MSTORE SWAP1 PUSH1 0x1 ADD SWAP1 PUSH1 0x20 ADD DUP1 DUP4 GT PUSH2 0x1337 JUMPI DUP3 SWAP1 SUB PUSH1 0x1F AND DUP3 ADD SWAP2 JUMPDEST POP POP POP POP POP SWAP1 DUP1 PUSH1 0x1 ADD DUP1 SLOAD PUSH2 0x1369 SWAP1 PUSH2 0x4AAC JUMP JUMPDEST DUP1 PUSH1 0x1F ADD PUSH1 0x20 DUP1 SWAP2 DIV MUL PUSH1 0x20 ADD PUSH1 0x40 MLOAD SWAP1 DUP2 ADD PUSH1 0x40 MSTORE DUP1 SWAP3 SWAP2 SWAP1 DUP2 DUP2 MSTORE PUSH1 0x20 ADD DUP3 DUP1 SLOAD PUSH2 0x1395 SWAP1 PUSH2 0x4AAC JUMP JUMPDEST DUP1 ISZERO PUSH2 0x13E0 JUMPI DUP1 PUSH1 0x1F LT PUSH2 0x13B7 JUMPI PUSH2 0x100 DUP1 DUP4 SLOAD DIV MUL DUP4 MSTORE SWAP2 PUSH1 0x20 ADD SWAP2 PUSH2 0x13E0 JUMP JUMPDEST DUP3 ADD SWAP2 SWAP1 PUSH0 MSTORE PUSH1 0x20 PUSH0 KECCAK256 SWAP1 JUMPDEST DUP2 SLOAD DUP2 MSTORE SWAP1 PUSH1 0x1 ADD SWAP1 PUSH1 0x20 ADD DUP1 DUP4 GT PUSH2 0x13C3 JUMPI DUP3 SWAP1 SUB PUSH1 0x1F AND DUP3 ADD SWAP2 JUMPDEST POP POP POP POP POP SWAP1 DUP1 PUSH1 0x2 ADD DUP1 SLOAD PUSH2 0x13F5 SWAP1 PUSH2 0x4AAC JUMP JUMPDEST DUP1 PUSH1 0x1F ADD PUSH1 0x20 DUP1 SWAP2 DIV MUL PUSH1 0x20 ADD PUSH1 0x40 MLOAD SWAP1 DUP2 ADD PUSH1 0x40 MSTORE DUP1 SWAP3 SWAP2 SWAP1 DUP2 DUP2 MSTORE PUSH1 0x20 ADD DUP3 DUP1 SLOAD PUSH2 0x1421 SWAP1 PUSH2 0x4AAC JUMP JUMPDEST DUP1 ISZERO PUSH2 0x146C JUMPI DUP1 PUSH1 0x1F LT PUSH2 0x1443 JUMPI PUSH2 0x100 DUP1 DUP4 SLOAD DIV MUL DUP4 MSTORE SWAP2 PUSH1 0x20 ADD SWAP2 PUSH2 0x146C JUMP JUMPDEST DUP3 ADD SWAP2 SWAP1 PUSH0 MSTORE PUSH1 0x20 PUSH0 KECCAK256 SWAP1 JUMPDEST DUP2 SLOAD DUP2 MSTORE SWAP1 PUSH1 0x1 ADD SWAP1 PUSH1 0x20 ADD DUP1 DUP4 GT PUSH2 0x144F JUMPI DUP3 SWAP1 SUB PUSH1 0x1F AND DUP3 ADD SWAP2 JUMPDEST POP POP POP POP POP SWAP1 POP DUP4 JUMP JUMPDEST PUSH2 0x147E PUSH2 0x2223 JUMP JUMPDEST PUSH0 PUSH20 0xFFFFFFFFFFFFFFFFFFFFFFFFFFFFFFFFFFFFFFFF AND DUP2 PUSH20 0xFFFFFFFFFFFFFFFFFFFFFFFFFFFFFFFFFFFFFFFF AND SUB PUSH2 0x14EC JUMPI PUSH1 0x40 MLOAD PUSH32 0x8C379A000000000000000000000000000000000000000000000000000000000 DUP2 MSTORE PUSH1 0x4 ADD PUSH2 0x14E3 SWAP1 PUSH2 0x5540 JUMP JUMPDEST PUSH1 0x40 MLOAD DUP1 SWAP2 SUB SWAP1 REVERT JUMPDEST PUSH2 0x14F5 DUP2 PUSH2 0x284A JUMP JUMPDEST ISZERO PUSH2 0x1535 JUMPI PUSH1 0x40 MLOAD PUSH32 0x8C379A000000000000000000000000000000000000000000000000000000000 DUP2 MSTORE PUSH1 0x4 ADD PUSH2 0x152C SWAP1 PUSH2 0x55A8 JUMP JUMPDEST PUSH1 0x40 MLOAD DUP1 SWAP2 SUB SWAP1 REVERT JUMPDEST PUSH1 0x4 DUP2 SWAP1 DUP1 PUSH1 0x1 DUP2 SLOAD ADD DUP1 DUP3 SSTORE DUP1 SWAP2 POP POP PUSH1 0x1 SWAP1 SUB SWAP1 PUSH0 MSTORE PUSH1 0x20 PUSH0 KECCAK256 ADD PUSH0 SWAP1 SWAP2 SWAP1 SWAP2 SWAP1 SWAP2 PUSH2 0x100 EXP DUP2 SLOAD DUP2 PUSH20 0xFFFFFFFFFFFFFFFFFFFFFFFFFFFFFFFFFFFFFFFF MUL NOT AND SWAP1 DUP4 PUSH20 0xFFFFFFFFFFFFFFFFFFFFFFFFFFFFFFFFFFFFFFFF AND MUL OR SWAP1 SSTORE POP POP JUMP JUMPDEST PUSH2 0x15A0 PUSH2 0x2223 JUMP JUMPDEST PUSH2 0x15A9 PUSH0 PUSH2 0x28F2 JUMP JUMPDEST JUMP JUMPDEST PUSH0 PUSH2 0x15B6 CALLER DUP7 PUSH2 0x4F1 JUMP JUMPDEST GT PUSH2 0x15F6 JUMPI PUSH1 0x40 MLOAD PUSH32 0x8C379A000000000000000000000000000000000000000000000000000000000 DUP2 MSTORE PUSH1 0x4 ADD PUSH2 0x15ED SWAP1 PUSH2 0x5636 JUMP JUMPDEST PUSH1 0x40 MLOAD DUP1 SWAP2 SUB SWAP1 REVERT JUMPDEST PUSH0 PUSH1 0x40 MLOAD DUP1 PUSH1 0x60 ADD PUSH1 0x40 MSTORE DUP1 DUP12 DUP12 DUP1 DUP1 PUSH1 0x1F ADD PUSH1 0x20 DUP1 SWAP2 DIV MUL PUSH1 0x20 ADD PUSH1 0x40 MLOAD SWAP1 DUP2 ADD PUSH1 0x40 MSTORE DUP1 SWAP4 SWAP3 SWAP2 SWAP1 DUP2 DUP2 MSTORE PUSH1 0x20 ADD DUP4 DUP4 DUP1 DUP3 DUP5 CALLDATACOPY PUSH0 DUP2 DUP5 ADD MSTORE PUSH1 0x1F NOT PUSH1 0x1F DUP3 ADD AND SWAP1 POP DUP1 DUP4 ADD SWAP3 POP POP POP POP POP POP POP DUP2 MSTORE PUSH1 0x20 ADD DUP10 PUSH20 0xFFFFFFFFFFFFFFFFFFFFFFFFFFFFFFFFFFFFFFFF AND DUP2 MSTORE PUSH1 0x20 ADD DUP9 DUP9 DUP1 DUP1 PUSH1 0x1F ADD PUSH1 0x20 DUP1 SWAP2 DIV MUL PUSH1 0x20 ADD PUSH1 0x40 MLOAD SWAP1 DUP2 ADD PUSH1 0x40 MSTORE DUP1 SWAP4 SWAP3 SWAP2 SWAP1 DUP2 DUP2 MSTORE PUSH1 0x20 ADD DUP4 DUP4 DUP1 DUP3 DUP5 CALLDATACOPY PUSH0 DUP2 DUP5 ADD MSTORE PUSH1 0x1F NOT PUSH1 0x1F DUP3 ADD AND SWAP1 POP DUP1 DUP4 ADD SWAP3 POP POP POP POP POP POP POP DUP2 MSTORE POP SWAP1 POP PUSH1 0xB PUSH0 SWAP1 SLOAD SWAP1 PUSH2 0x100 EXP SWAP1 DIV PUSH20 0xFFFFFFFFFFFFFFFFFFFFFFFFFFFFFFFFFFFFFFFF AND PUSH20 0xFFFFFFFFFFFFFFFFFFFFFFFFFFFFFFFFFFFFFFFF AND PUSH4 0x9F5223E0 DUP13 DUP4 PUSH1 0x40 MLOAD DUP4 PUSH4 0xFFFFFFFF AND PUSH1 0xE0 SHL DUP2 MSTORE PUSH1 0x4 ADD PUSH2 0x170C SWAP3 SWAP2 SWAP1 PUSH2 0x571A JUMP JUMPDEST PUSH0 PUSH1 0x40 MLOAD DUP1 DUP4 SUB DUP2 PUSH0 DUP8 DUP1 EXTCODESIZE ISZERO DUP1 ISZERO PUSH2 0x1723 JUMPI PUSH0 DUP1 REVERT JUMPDEST POP GAS CALL ISZERO DUP1 ISZERO PUSH2 0x1735 JUMPI RETURNDATASIZE PUSH0 DUP1 RETURNDATACOPY RETURNDATASIZE PUSH0 REVERT JUMPDEST POP POP POP POP PUSH2 0x1745 DUP6 DUP13 DUP7 DUP7 PUSH2 0x29B5 JUMP JUMPDEST PUSH1 0x40 MLOAD DUP1 PUSH1 0x60 ADD PUSH1 0x40 MSTORE DUP1 DUP4 DUP1 PUSH0 ADD SWAP1 PUSH2 0x175F SWAP2 SWAP1 PUSH2 0x5754 JUMP JUMPDEST DUP1 DUP1 PUSH1 0x1F ADD PUSH1 0x20 DUP1 SWAP2 DIV MUL PUSH1 0x20 ADD PUSH1 0x40 MLOAD SWAP1 DUP2 ADD PUSH1 0x40 MSTORE DUP1 SWAP4 SWAP3 SWAP2 SWAP1 DUP2 DUP2 MSTORE PUSH1 0x20 ADD DUP4 DUP4 DUP1 DUP3 DUP5 CALLDATACOPY PUSH0 DUP2 DUP5 ADD MSTORE PUSH1 0x1F NOT PUSH1 0x1F DUP3 ADD AND SWAP1 POP DUP1 DUP4 ADD SWAP3 POP POP POP POP POP POP POP DUP2 MSTORE PUSH1 0x20 ADD DUP4 DUP1 PUSH1 0x20 ADD SWAP1 PUSH2 0x17B6 SWAP2 SWAP1 PUSH2 0x5754 JUMP JUMPDEST DUP1 DUP1 PUSH1 0x1F ADD PUSH1 0x20 DUP1 SWAP2 DIV MUL PUSH1 0x20 ADD PUSH1 0x40 MLOAD SWAP1 DUP2 ADD PUSH1 0x40 MSTORE DUP1 SWAP4 SWAP3 SWAP2 SWAP1 DUP2 DUP2 MSTORE PUSH1 0x20 ADD DUP4 DUP4 DUP1 DUP3 DUP5 CALLDATACOPY PUSH0 DUP2 DUP5 ADD MSTORE PUSH1 0x1F NOT PUSH1 0x1F DUP3 ADD AND SWAP1 POP DUP1 DUP4 ADD SWAP3 POP POP POP POP POP POP POP DUP2 MSTORE PUSH1 0x20 ADD DUP4 DUP1 PUSH1 0x40 ADD SWAP1 PUSH2 0x180D SWAP2 SWAP1 PUSH2 0x5754 JUMP JUMPDEST DUP1 DUP1 PUSH1 0x1F ADD PUSH1 0x20 DUP1 SWAP2 DIV MUL PUSH1 0x20 ADD PUSH1 0x40 MLOAD SWAP1 DUP2 ADD PUSH1 0x40 MSTORE DUP1 SWAP4 SWAP3 SWAP2 SWAP1 DUP2 DUP2 MSTORE PUSH1 0x20 ADD DUP4 DUP4 DUP1 DUP3 DUP5 CALLDATACOPY PUSH0 DUP2 DUP5 ADD MSTORE PUSH1 0x1F NOT PUSH1 0x1F DUP3 ADD AND SWAP1 POP DUP1 DUP4 ADD SWAP3 POP POP POP POP POP POP POP DUP2 MSTORE POP PUSH1 0x9 PUSH0 DUP8 DUP2 MSTORE PUSH1 0x20 ADD SWAP1 DUP2 MSTORE PUSH1 0x20 ADD PUSH0 KECCAK256 PUSH0 CALLER PUSH20 0xFFFFFFFFFFFFFFFFFFFFFFFFFFFFFFFFFFFFFFFF AND PUSH20 0xFFFFFFFFFFFFFFFFFFFFFFFFFFFFFFFFFFFFFFFF AND DUP2 MSTORE PUSH1 0x20 ADD SWAP1 DUP2 MSTORE PUSH1 0x20 ADD PUSH0 KECCAK256 PUSH0 DUP14 PUSH8 0xFFFFFFFFFFFFFFFF AND PUSH8 0xFFFFFFFFFFFFFFFF AND DUP2 MSTORE PUSH1 0x20 ADD SWAP1 DUP2 MSTORE PUSH1 0x20 ADD PUSH0 KECCAK256 PUSH0 DUP3 ADD MLOAD DUP2 PUSH0 ADD SWAP1 DUP2 PUSH2 0x18D4 SWAP2 SWAP1 PUSH2 0x57B6 JUMP JUMPDEST POP PUSH1 0x20 DUP3 ADD MLOAD DUP2 PUSH1 0x1 ADD SWAP1 DUP2 PUSH2 0x18EA SWAP2 SWAP1 PUSH2 0x57B6 JUMP JUMPDEST POP PUSH1 0x40 DUP3 ADD MLOAD DUP2 PUSH1 0x2 ADD SWAP1 DUP2 PUSH2 0x1900 SWAP2 SWAP1 PUSH2 0x57B6 JUMP JUMPDEST POP SWAP1 POP POP POP POP POP POP POP POP POP POP POP POP POP JUMP JUMPDEST PUSH1 0x60 PUSH2 0x191D PUSH1 0x5 PUSH2 0x22AA JUMP JUMPDEST SWAP1 POP SWAP1 JUMP JUMPDEST PUSH0 PUSH1 0x3 PUSH0 SWAP1 SLOAD SWAP1 PUSH2 0x100 EXP SWAP1 DIV PUSH20 0xFFFFFFFFFFFFFFFFFFFFFFFFFFFFFFFFFFFFFFFF AND SWAP1 POP SWAP1 JUMP JUMPDEST PUSH1 0x8 PUSH1 0x20 MSTORE DUP3 PUSH0 MSTORE PUSH1 0x40 PUSH0 KECCAK256 PUSH1 0x20 MSTORE DUP2 PUSH0 MSTORE PUSH1 0x40 PUSH0 KECCAK256 PUSH1 0x20 MSTORE DUP1 PUSH0 MSTORE PUSH1 0x40 PUSH0 KECCAK256 PUSH0 SWAP3 POP SWAP3 POP POP POP DUP1 SLOAD PUSH2 0x197C SWAP1 PUSH2 0x4AAC JUMP JUMPDEST DUP1 PUSH1 0x1F ADD PUSH1 0x20 DUP1 SWAP2 DIV MUL PUSH1 0x20 ADD PUSH1 0x40 MLOAD SWAP1 DUP2 ADD PUSH1 0x40 MSTORE DUP1 SWAP3 SWAP2 SWAP1 DUP2 DUP2 MSTORE PUSH1 0x20 ADD DUP3 DUP1 SLOAD PUSH2 0x19A8 SWAP1 PUSH2 0x4AAC JUMP JUMPDEST DUP1 ISZERO PUSH2 0x19F3 JUMPI DUP1 PUSH1 0x1F LT PUSH2 0x19CA JUMPI PUSH2 0x100 DUP1 DUP4 SLOAD DIV MUL DUP4 MSTORE SWAP2 PUSH1 0x20 ADD SWAP2 PUSH2 0x19F3 JUMP JUMPDEST DUP3 ADD SWAP2 SWAP1 PUSH0 MSTORE PUSH1 0x20 PUSH0 KECCAK256 SWAP1 JUMPDEST DUP2 SLOAD DUP2 MSTORE SWAP1 PUSH1 0x1 ADD SWAP1 PUSH1 0x20 ADD DUP1 DUP4 GT PUSH2 0x19D6 JUMPI DUP3 SWAP1 SUB PUSH1 0x1F AND DUP3 ADD SWAP2 JUMPDEST POP POP POP POP POP DUP2 JUMP JUMPDEST PUSH2 0x1A0D PUSH2 0x1A06 PUSH2 0x2C90 JUMP JUMPDEST DUP4 DUP4 PUSH2 0x2C97 JUMP JUMPDEST POP POP JUMP JUMPDEST PUSH1 0x60 DUP1 PUSH0 PUSH1 0xA DUP1 SLOAD DUP1 PUSH1 0x20 MUL PUSH1 0x20 ADD PUSH1 0x40 MLOAD SWAP1 DUP2 ADD PUSH1 0x40 MSTORE DUP1 SWAP3 SWAP2 SWAP1 DUP2 DUP2 MSTORE PUSH1 0x20 ADD DUP3 DUP1 SLOAD DUP1 ISZERO PUSH2 0x1A92 JUMPI PUSH1 0x20 MUL DUP3 ADD SWAP2 SWAP1 PUSH0 MSTORE PUSH1 0x20 PUSH0 KECCAK256 SWAP1 PUSH0 SWAP1 JUMPDEST DUP3 DUP3 SWAP1 SLOAD SWAP1 PUSH2 0x100 EXP SWAP1 DIV PUSH8 0xFFFFFFFFFFFFFFFF AND PUSH8 0xFFFFFFFFFFFFFFFF AND DUP2 MSTORE PUSH1 0x20 ADD SWAP1 PUSH1 0x8 ADD SWAP1 PUSH1 0x20 DUP3 PUSH1 0x7 ADD DIV SWAP3 DUP4 ADD SWAP3 PUSH1 0x1 SUB DUP3 MUL SWAP2 POP DUP1 DUP5 GT PUSH2 0x1A4D JUMPI SWAP1 POP JUMPDEST POP POP POP POP POP SWAP1 POP PUSH0 DUP1 JUMPDEST DUP3 MLOAD DUP2 LT ISZERO PUSH2 0x1B66 JUMPI PUSH0 PUSH1 0x9 PUSH0 DUP10 DUP2 MSTORE PUSH1 0x20 ADD SWAP1 DUP2 MSTORE PUSH1 0x20 ADD PUSH0 KECCAK256 PUSH0 DUP9 PUSH20 0xFFFFFFFFFFFFFFFFFFFFFFFFFFFFFFFFFFFFFFFF AND PUSH20 0xFFFFFFFFFFFFFFFFFFFFFFFFFFFFFFFFFFFFFFFF AND DUP2 MSTORE PUSH1 0x20 ADD SWAP1 DUP2 MSTORE PUSH1 0x20 ADD PUSH0 KECCAK256 PUSH0 DUP6 DUP5 DUP2 MLOAD DUP2 LT PUSH2 0x1B06 JUMPI PUSH2 0x1B05 PUSH2 0x4ADC JUMP JUMPDEST JUMPDEST PUSH1 0x20 MUL PUSH1 0x20 ADD ADD MLOAD PUSH8 0xFFFFFFFFFFFFFFFF AND PUSH8 0xFFFFFFFFFFFFFFFF AND DUP2 MSTORE PUSH1 0x20 ADD SWAP1 DUP2 MSTORE PUSH1 0x20 ADD PUSH0 KECCAK256 PUSH0 ADD DUP1 SLOAD PUSH2 0x1B3C SWAP1 PUSH2 0x4AAC JUMP JUMPDEST SWAP1 POP GT ISZERO PUSH2 0x1B53 JUMPI DUP2 DUP1 PUSH2 0x1B4F SWAP1 PUSH2 0x4B96 JUMP JUMPDEST SWAP3 POP POP JUMPDEST DUP1 DUP1 PUSH2 0x1B5E SWAP1 PUSH2 0x4B96 JUMP JUMPDEST SWAP2 POP POP PUSH2 0x1A9C JUMP JUMPDEST POP PUSH0 DUP2 PUSH8 0xFFFFFFFFFFFFFFFF DUP2 GT ISZERO PUSH2 0x1B82 JUMPI PUSH2 0x1B81 PUSH2 0x3DFC JUMP JUMPDEST JUMPDEST PUSH1 0x40 MLOAD SWAP1 DUP1 DUP3 MSTORE DUP1 PUSH1 0x20 MUL PUSH1 0x20 ADD DUP3 ADD PUSH1 0x40 MSTORE DUP1 ISZERO PUSH2 0x1BB0 JUMPI DUP2 PUSH1 0x20 ADD PUSH1 0x20 DUP3 MUL DUP1 CALLDATASIZE DUP4 CALLDATACOPY DUP1 DUP3 ADD SWAP2 POP POP SWAP1 POP JUMPDEST POP SWAP1 POP PUSH0 DUP3 PUSH8 0xFFFFFFFFFFFFFFFF DUP2 GT ISZERO PUSH2 0x1BCE JUMPI PUSH2 0x1BCD PUSH2 0x3DFC JUMP JUMPDEST JUMPDEST PUSH1 0x40 MLOAD SWAP1 DUP1 DUP3 MSTORE DUP1 PUSH1 0x20 MUL PUSH1 0x20 ADD DUP3 ADD PUSH1 0x40 MSTORE DUP1 ISZERO PUSH2 0x1C07 JUMPI DUP2 PUSH1 0x20 ADD JUMPDEST PUSH2 0x1BF4 PUSH2 0x393C JUMP JUMPDEST DUP2 MSTORE PUSH1 0x20 ADD SWAP1 PUSH1 0x1 SWAP1 SUB SWAP1 DUP2 PUSH2 0x1BEC JUMPI SWAP1 POP JUMPDEST POP SWAP1 POP PUSH0 DUP1 JUMPDEST DUP6 MLOAD DUP2 LT ISZERO PUSH2 0x1F88 JUMPI PUSH0 PUSH1 0x9 PUSH0 DUP13 DUP2 MSTORE PUSH1 0x20 ADD SWAP1 DUP2 MSTORE PUSH1 0x20 ADD PUSH0 KECCAK256 PUSH0 DUP12 PUSH20 0xFFFFFFFFFFFFFFFFFFFFFFFFFFFFFFFFFFFFFFFF AND PUSH20 0xFFFFFFFFFFFFFFFFFFFFFFFFFFFFFFFFFFFFFFFF AND DUP2 MSTORE PUSH1 0x20 ADD SWAP1 DUP2 MSTORE PUSH1 0x20 ADD PUSH0 KECCAK256 PUSH0 DUP9 DUP5 DUP2 MLOAD DUP2 LT PUSH2 0x1C77 JUMPI PUSH2 0x1C76 PUSH2 0x4ADC JUMP JUMPDEST JUMPDEST PUSH1 0x20 MUL PUSH1 0x20 ADD ADD MLOAD PUSH8 0xFFFFFFFFFFFFFFFF AND PUSH8 0xFFFFFFFFFFFFFFFF AND DUP2 MSTORE PUSH1 0x20 ADD SWAP1 DUP2 MSTORE PUSH1 0x20 ADD PUSH0 KECCAK256 PUSH0 ADD DUP1 SLOAD PUSH2 0x1CAD SWAP1 PUSH2 0x4AAC JUMP JUMPDEST SWAP1 POP GT ISZERO PUSH2 0x1F75 JUMPI DUP6 DUP2 DUP2 MLOAD DUP2 LT PUSH2 0x1CC8 JUMPI PUSH2 0x1CC7 PUSH2 0x4ADC JUMP JUMPDEST JUMPDEST PUSH1 0x20 MUL PUSH1 0x20 ADD ADD MLOAD DUP5 DUP4 DUP2 MLOAD DUP2 LT PUSH2 0x1CE3 JUMPI PUSH2 0x1CE2 PUSH2 0x4ADC JUMP JUMPDEST JUMPDEST PUSH1 0x20 MUL PUSH1 0x20 ADD ADD SWAP1 PUSH8 0xFFFFFFFFFFFFFFFF AND SWAP1 DUP2 PUSH8 0xFFFFFFFFFFFFFFFF AND DUP2 MSTORE POP POP PUSH1 0x9 PUSH0 DUP12 DUP2 MSTORE PUSH1 0x20 ADD SWAP1 DUP2 MSTORE PUSH1 0x20 ADD PUSH0 KECCAK256 PUSH0 DUP11 PUSH20 0xFFFFFFFFFFFFFFFFFFFFFFFFFFFFFFFFFFFFFFFF AND PUSH20 0xFFFFFFFFFFFFFFFFFFFFFFFFFFFFFFFFFFFFFFFF AND DUP2 MSTORE PUSH1 0x20 ADD SWAP1 DUP2 MSTORE PUSH1 0x20 ADD PUSH0 KECCAK256 PUSH0 DUP8 DUP4 DUP2 MLOAD DUP2 LT PUSH2 0x1D65 JUMPI PUSH2 0x1D64 PUSH2 0x4ADC JUMP JUMPDEST JUMPDEST PUSH1 0x20 MUL PUSH1 0x20 ADD ADD MLOAD PUSH8 0xFFFFFFFFFFFFFFFF AND PUSH8 0xFFFFFFFFFFFFFFFF AND DUP2 MSTORE PUSH1 0x20 ADD SWAP1 DUP2 MSTORE PUSH1 0x20 ADD PUSH0 KECCAK256 PUSH1 0x40 MLOAD DUP1 PUSH1 0x60 ADD PUSH1 0x40 MSTORE SWAP1 DUP2 PUSH0 DUP3 ADD DUP1 SLOAD PUSH2 0x1DA8 SWAP1 PUSH2 0x4AAC JUMP JUMPDEST DUP1 PUSH1 0x1F ADD PUSH1 0x20 DUP1 SWAP2 DIV MUL PUSH1 0x20 ADD PUSH1 0x40 MLOAD SWAP1 DUP2 ADD PUSH1 0x40 MSTORE DUP1 SWAP3 SWAP2 SWAP1 DUP2 DUP2 MSTORE PUSH1 0x20 ADD DUP3 DUP1 SLOAD PUSH2 0x1DD4 SWAP1 PUSH2 0x4AAC JUMP JUMPDEST DUP1 ISZERO PUSH2 0x1E1F JUMPI DUP1 PUSH1 0x1F LT PUSH2 0x1DF6 JUMPI PUSH2 0x100 DUP1 DUP4 SLOAD DIV MUL DUP4 MSTORE SWAP2 PUSH1 0x20 ADD SWAP2 PUSH2 0x1E1F JUMP JUMPDEST DUP3 ADD SWAP2 SWAP1 PUSH0 MSTORE PUSH1 0x20 PUSH0 KECCAK256 SWAP1 JUMPDEST DUP2 SLOAD DUP2 MSTORE SWAP1 PUSH1 0x1 ADD SWAP1 PUSH1 0x20 ADD DUP1 DUP4 GT PUSH2 0x1E02 JUMPI DUP3 SWAP1 SUB PUSH1 0x1F AND DUP3 ADD SWAP2 JUMPDEST POP POP POP POP POP DUP2 MSTORE PUSH1 0x20 ADD PUSH1 0x1 DUP3 ADD DUP1 SLOAD PUSH2 0x1E38 SWAP1 PUSH2 0x4AAC JUMP JUMPDEST DUP1 PUSH1 0x1F ADD PUSH1 0x20 DUP1 SWAP2 DIV MUL PUSH1 0x20 ADD PUSH1 0x40 MLOAD SWAP1 DUP2 ADD PUSH1 0x40 MSTORE DUP1 SWAP3 SWAP2 SWAP1 DUP2 DUP2 MSTORE PUSH1 0x20 ADD DUP3 DUP1 SLOAD PUSH2 0x1E64 SWAP1 PUSH2 0x4AAC JUMP JUMPDEST DUP1 ISZERO PUSH2 0x1EAF JUMPI DUP1 PUSH1 0x1F LT PUSH2 0x1E86 JUMPI PUSH2 0x100 DUP1 DUP4 SLOAD DIV MUL DUP4 MSTORE SWAP2 PUSH1 0x20 ADD SWAP2 PUSH2 0x1EAF JUMP JUMPDEST DUP3 ADD SWAP2 SWAP1 PUSH0 MSTORE PUSH1 0x20 PUSH0 KECCAK256 SWAP1 JUMPDEST DUP2 SLOAD DUP2 MSTORE SWAP1 PUSH1 0x1 ADD SWAP1 PUSH1 0x20 ADD DUP1 DUP4 GT PUSH2 0x1E92 JUMPI DUP3 SWAP1 SUB PUSH1 0x1F AND DUP3 ADD SWAP2 JUMPDEST POP POP POP POP POP DUP2 MSTORE PUSH1 0x20 ADD PUSH1 0x2 DUP3 ADD DUP1 SLOAD PUSH2 0x1EC8 SWAP1 PUSH2 0x4AAC JUMP JUMPDEST DUP1 PUSH1 0x1F ADD PUSH1 0x20 DUP1 SWAP2 DIV MUL PUSH1 0x20 ADD PUSH1 0x40 MLOAD SWAP1 DUP2 ADD PUSH1 0x40 MSTORE DUP1 SWAP3 SWAP2 SWAP1 DUP2 DUP2 MSTORE PUSH1 0x20 ADD DUP3 DUP1 SLOAD PUSH2 0x1EF4 SWAP1 PUSH2 0x4AAC JUMP JUMPDEST DUP1 ISZERO PUSH2 0x1F3F JUMPI DUP1 PUSH1 0x1F LT PUSH2 0x1F16 JUMPI PUSH2 0x100 DUP1 DUP4 SLOAD DIV MUL DUP4 MSTORE SWAP2 PUSH1 0x20 ADD SWAP2 PUSH2 0x1F3F JUMP JUMPDEST DUP3 ADD SWAP2 SWAP1 PUSH0 MSTORE PUSH1 0x20 PUSH0 KECCAK256 SWAP1 JUMPDEST DUP2 SLOAD DUP2 MSTORE SWAP1 PUSH1 0x1 ADD SWAP1 PUSH1 0x20 ADD DUP1 DUP4 GT PUSH2 0x1F22 JUMPI DUP3 SWAP1 SUB PUSH1 0x1F AND DUP3 ADD SWAP2 JUMPDEST POP POP POP POP POP DUP2 MSTORE POP POP DUP4 DUP4 DUP2 MLOAD DUP2 LT PUSH2 0x1F5B JUMPI PUSH2 0x1F5A PUSH2 0x4ADC JUMP JUMPDEST JUMPDEST PUSH1 0x20 MUL PUSH1 0x20 ADD ADD DUP2 SWAP1 MSTORE POP DUP2 DUP1 PUSH2 0x1F71 SWAP1 PUSH2 0x4B96 JUMP JUMPDEST SWAP3 POP POP JUMPDEST DUP1 DUP1 PUSH2 0x1F80 SWAP1 PUSH2 0x4B96 JUMP JUMPDEST SWAP2 POP POP PUSH2 0x1C0D JUMP JUMPDEST POP DUP3 DUP3 SWAP7 POP SWAP7 POP POP POP POP POP POP SWAP3 POP SWAP3 SWAP1 POP JUMP JUMPDEST PUSH1 0xA DUP2 DUP2 SLOAD DUP2 LT PUSH2 0x1FAA JUMPI PUSH0 DUP1 REVERT JUMPDEST SWAP1 PUSH0 MSTORE PUSH1 0x20 PUSH0 KECCAK256 SWAP1 PUSH1 0x4 SWAP2 DUP3 DUP3 DIV ADD SWAP2 SWAP1 MOD PUSH1 0x8 MUL SWAP2 POP SLOAD SWAP1 PUSH2 0x100 EXP SWAP1 DIV PUSH8 0xFFFFFFFFFFFFFFFF AND DUP2 JUMP JUMPDEST PUSH1 0x7 PUSH1 0x20 MSTORE DUP1 PUSH0 MSTORE PUSH1 0x40 PUSH0 KECCAK256 PUSH0 SWAP2 POP SWAP1 POP DUP1 SLOAD PUSH2 0x1FF2 SWAP1 PUSH2 0x4AAC JUMP JUMPDEST DUP1 PUSH1 0x1F ADD PUSH1 0x20 DUP1 SWAP2 DIV MUL PUSH1 0x20 ADD PUSH1 0x40 MLOAD SWAP1 DUP2 ADD PUSH1 0x40 MSTORE DUP1 SWAP3 SWAP2 SWAP1 DUP2 DUP2 MSTORE PUSH1 0x20 ADD DUP3 DUP1 SLOAD PUSH2 0x201E SWAP1 PUSH2 0x4AAC JUMP JUMPDEST DUP1 ISZERO PUSH2 0x2069 JUMPI DUP1 PUSH1 0x1F LT PUSH2 0x2040 JUMPI PUSH2 0x100 DUP1 DUP4 SLOAD DIV MUL DUP4 MSTORE SWAP2 PUSH1 0x20 ADD SWAP2 PUSH2 0x2069 JUMP JUMPDEST DUP3 ADD SWAP2 SWAP1 PUSH0 MSTORE PUSH1 0x20 PUSH0 KECCAK256 SWAP1 JUMPDEST DUP2 SLOAD DUP2 MSTORE SWAP1 PUSH1 0x1 ADD SWAP1 PUSH1 0x20 ADD DUP1 DUP4 GT PUSH2 0x204C JUMPI DUP3 SWAP1 SUB PUSH1 0x1F AND DUP3 ADD SWAP2 JUMPDEST POP POP POP POP POP DUP2 JUMP JUMPDEST PUSH0 PUSH1 0x1 PUSH0 DUP5 PUSH20 0xFFFFFFFFFFFFFFFFFFFFFFFFFFFFFFFFFFFFFFFF AND PUSH20 0xFFFFFFFFFFFFFFFFFFFFFFFFFFFFFFFFFFFFFFFF AND DUP2 MSTORE PUSH1 0x20 ADD SWAP1 DUP2 MSTORE PUSH1 0x20 ADD PUSH0 KECCAK256 PUSH0 DUP4 PUSH20 0xFFFFFFFFFFFFFFFFFFFFFFFFFFFFFFFFFFFFFFFF AND PUSH20 0xFFFFFFFFFFFFFFFFFFFFFFFFFFFFFFFFFFFFFFFF AND DUP2 MSTORE PUSH1 0x20 ADD SWAP1 DUP2 MSTORE PUSH1 0x20 ADD PUSH0 KECCAK256 PUSH0 SWAP1 SLOAD SWAP1 PUSH2 0x100 EXP SWAP1 DIV PUSH1 0xFF AND SWAP1 POP SWAP3 SWAP2 POP POP JUMP JUMPDEST PUSH2 0x210A DUP4 DUP7 DUP7 PUSH2 0x238C JUMP JUMPDEST PUSH2 0x2117 DUP6 DUP6 DUP6 DUP6 DUP6 PUSH2 0x2E00 JUMP JUMPDEST POP POP POP POP POP JUMP JUMPDEST PUSH2 0x2126 PUSH2 0x2223 JUMP JUMPDEST PUSH0 PUSH20 0xFFFFFFFFFFFFFFFFFFFFFFFFFFFFFFFFFFFFFFFF AND DUP2 PUSH20 0xFFFFFFFFFFFFFFFFFFFFFFFFFFFFFFFFFFFFFFFF AND SUB PUSH2 0x2196 JUMPI PUSH0 PUSH1 0x40 MLOAD PUSH32 0x1E4FBDF700000000000000000000000000000000000000000000000000000000 DUP2 MSTORE PUSH1 0x4 ADD PUSH2 0x218D SWAP2 SWAP1 PUSH2 0x462D JUMP JUMPDEST PUSH1 0x40 MLOAD DUP1 SWAP2 SUB SWAP1 REVERT JUMPDEST PUSH2 0x219F DUP2 PUSH2 0x28F2 JUMP JUMPDEST POP JUMP JUMPDEST PUSH2 0x21AA PUSH2 0x2223 JUMP JUMPDEST PUSH2 0x21B5 DUP4 DUP4 DUP4 PUSH2 0x2EA7 JUMP JUMPDEST POP POP POP JUMP JUMPDEST PUSH0 PUSH32 0x1FFC9A700000000000000000000000000000000000000000000000000000000 PUSH28 0xFFFFFFFFFFFFFFFFFFFFFFFFFFFFFFFFFFFFFFFFFFFFFFFFFFFFFFFF NOT AND DUP3 PUSH28 0xFFFFFFFFFFFFFFFFFFFFFFFFFFFFFFFFFFFFFFFFFFFFFFFFFFFFFFFF NOT AND EQ SWAP1 POP SWAP2 SWAP1 POP JUMP JUMPDEST PUSH2 0x222B PUSH2 0x2C90 JUMP JUMPDEST PUSH20 0xFFFFFFFFFFFFFFFFFFFFFFFFFFFFFFFFFFFFFFFF AND PUSH2 0x2249 PUSH2 0x1922 JUMP JUMPDEST PUSH20 0xFFFFFFFFFFFFFFFFFFFFFFFFFFFFFFFFFFFFFFFF AND EQ PUSH2 0x22A8 JUMPI PUSH2 0x226C PUSH2 0x2C90 JUMP JUMPDEST PUSH1 0x40 MLOAD PUSH32 0x118CDAA700000000000000000000000000000000000000000000000000000000 DUP2 MSTORE PUSH1 0x4 ADD PUSH2 0x229F SWAP2 SWAP1 PUSH2 0x462D JUMP JUMPDEST PUSH1 0x40 MLOAD DUP1 SWAP2 SUB SWAP1 REVERT JUMPDEST JUMP JUMPDEST PUSH1 0x60 PUSH0 PUSH2 0x22B8 DUP4 PUSH0 ADD PUSH2 0x2F49 JUMP JUMPDEST SWAP1 POP PUSH1 0x60 DUP2 SWAP1 POP DUP1 SWAP3 POP POP POP SWAP2 SWAP1 POP JUMP JUMPDEST PUSH0 PUSH20 0xFFFFFFFFFFFFFFFFFFFFFFFFFFFFFFFFFFFFFFFF AND DUP5 PUSH20 0xFFFFFFFFFFFFFFFFFFFFFFFFFFFFFFFFFFFFFFFF AND SUB PUSH2 0x2339 JUMPI PUSH0 PUSH1 0x40 MLOAD PUSH32 0x57F447CE00000000000000000000000000000000000000000000000000000000 DUP2 MSTORE PUSH1 0x4 ADD PUSH2 0x2330 SWAP2 SWAP1 PUSH2 0x462D JUMP JUMPDEST PUSH1 0x40 MLOAD DUP1 SWAP2 SUB SWAP1 REVERT JUMPDEST PUSH0 DUP1 PUSH2 0x2345 DUP6 DUP6 PUSH2 0x2FA2 JUMP JUMPDEST SWAP2 POP SWAP2 POP PUSH2 0x2356 PUSH0 DUP8 DUP5 DUP5 DUP8 PUSH2 0x2FD2 JUMP JUMPDEST POP POP POP POP POP POP JUMP JUMPDEST PUSH0 PUSH2 0x236D DUP4 PUSH0 ADD DUP4 PUSH0 SHL PUSH2 0x307E JUMP JUMPDEST SWAP1 POP SWAP3 SWAP2 POP POP JUMP JUMPDEST PUSH0 PUSH2 0x2384 DUP4 PUSH0 ADD DUP4 PUSH0 SHL PUSH2 0x309E JUMP JUMPDEST SWAP1 POP SWAP3 SWAP2 POP POP JUMP JUMPDEST PUSH0 PUSH1 0xA DUP1 SLOAD DUP1 PUSH1 0x20 MUL PUSH1 0x20 ADD PUSH1 0x40 MLOAD SWAP1 DUP2 ADD PUSH1 0x40 MSTORE DUP1 SWAP3 SWAP2 SWAP1 DUP2 DUP2 MSTORE PUSH1 0x20 ADD DUP3 DUP1 SLOAD DUP1 ISZERO PUSH2 0x240A JUMPI PUSH1 0x20 MUL DUP3 ADD SWAP2 SWAP1 PUSH0 MSTORE PUSH1 0x20 PUSH0 KECCAK256 SWAP1 PUSH0 SWAP1 JUMPDEST DUP3 DUP3 SWAP1 SLOAD SWAP1 PUSH2 0x100 EXP SWAP1 DIV PUSH8 0xFFFFFFFFFFFFFFFF AND PUSH8 0xFFFFFFFFFFFFFFFF AND DUP2 MSTORE PUSH1 0x20 ADD SWAP1 PUSH1 0x8 ADD SWAP1 PUSH1 0x20 DUP3 PUSH1 0x7 ADD DIV SWAP3 DUP4 ADD SWAP3 PUSH1 0x1 SUB DUP3 MUL SWAP2 POP DUP1 DUP5 GT PUSH2 0x23C5 JUMPI SWAP1 POP JUMPDEST POP POP POP POP POP SWAP1 POP PUSH0 JUMPDEST DUP2 MLOAD DUP2 LT ISZERO PUSH2 0x281D JUMPI PUSH0 PUSH1 0x8 PUSH0 DUP8 DUP2 MSTORE PUSH1 0x20 ADD SWAP1 DUP2 MSTORE PUSH1 0x20 ADD PUSH0 KECCAK256 PUSH0 DUP7 PUSH20 0xFFFFFFFFFFFFFFFFFFFFFFFFFFFFFFFFFFFFFFFF AND PUSH20 0xFFFFFFFFFFFFFFFFFFFFFFFFFFFFFFFFFFFFFFFF AND DUP2 MSTORE PUSH1 0x20 ADD SWAP1 DUP2 MSTORE PUSH1 0x20 ADD PUSH0 KECCAK256 PUSH0 DUP5 DUP5 DUP2 MLOAD DUP2 LT PUSH2 0x247D JUMPI PUSH2 0x247C PUSH2 0x4ADC JUMP JUMPDEST JUMPDEST PUSH1 0x20 MUL PUSH1 0x20 ADD ADD MLOAD PUSH8 0xFFFFFFFFFFFFFFFF AND PUSH8 0xFFFFFFFFFFFFFFFF AND DUP2 MSTORE PUSH1 0x20 ADD SWAP1 DUP2 MSTORE PUSH1 0x20 ADD PUSH0 KECCAK256 DUP1 SLOAD PUSH2 0x24B1 SWAP1 PUSH2 0x4AAC JUMP JUMPDEST DUP1 PUSH1 0x1F ADD PUSH1 0x20 DUP1 SWAP2 DIV MUL PUSH1 0x20 ADD PUSH1 0x40 MLOAD SWAP1 DUP2 ADD PUSH1 0x40 MSTORE DUP1 SWAP3 SWAP2 SWAP1 DUP2 DUP2 MSTORE PUSH1 0x20 ADD DUP3 DUP1 SLOAD PUSH2 0x24DD SWAP1 PUSH2 0x4AAC JUMP JUMPDEST DUP1 ISZERO PUSH2 0x2528 JUMPI DUP1 PUSH1 0x1F LT PUSH2 0x24FF JUMPI PUSH2 0x100 DUP1 DUP4 SLOAD DIV MUL DUP4 MSTORE SWAP2 PUSH1 0x20 ADD SWAP2 PUSH2 0x2528 JUMP JUMPDEST DUP3 ADD SWAP2 SWAP1 PUSH0 MSTORE PUSH1 0x20 PUSH0 KECCAK256 SWAP1 JUMPDEST DUP2 SLOAD DUP2 MSTORE SWAP1 PUSH1 0x1 ADD SWAP1 PUSH1 0x20 ADD DUP1 DUP4 GT PUSH2 0x250B JUMPI DUP3 SWAP1 SUB PUSH1 0x1F AND DUP3 ADD SWAP2 JUMPDEST POP POP POP POP POP SWAP1 POP PUSH0 DUP2 MLOAD SUB PUSH2 0x253D JUMPI POP PUSH2 0x280A JUMP JUMPDEST PUSH1 0x40 MLOAD DUP1 PUSH1 0x40 ADD PUSH1 0x40 MSTORE DUP1 PUSH1 0x6 DUP2 MSTORE PUSH1 0x20 ADD PUSH32 0x73656E6465720000000000000000000000000000000000000000000000000000 DUP2 MSTORE POP DUP1 MLOAD SWAP1 PUSH1 0x20 ADD KECCAK256 DUP2 DUP1 MLOAD SWAP1 PUSH1 0x20 ADD KECCAK256 SUB PUSH2 0x26A4 JUMPI PUSH1 0xB PUSH0 SWAP1 SLOAD SWAP1 PUSH2 0x100 EXP SWAP1 DIV PUSH20 0xFFFFFFFFFFFFFFFFFFFFFFFFFFFFFFFFFFFFFFFF AND PUSH20 0xFFFFFFFFFFFFFFFFFFFFFFFFFFFFFFFFFFFFFFFF AND PUSH4 0x8C1DA2C9 DUP7 DUP6 DUP6 DUP2 MLOAD DUP2 LT PUSH2 0x25D8 JUMPI PUSH2 0x25D7 PUSH2 0x4ADC JUMP JUMPDEST JUMPDEST PUSH1 0x20 MUL PUSH1 0x20 ADD ADD MLOAD PUSH1 0x40 MLOAD DUP4 PUSH4 0xFFFFFFFF AND PUSH1 0xE0 SHL DUP2 MSTORE PUSH1 0x4 ADD PUSH2 0x25FD SWAP3 SWAP2 SWAP1 PUSH2 0x5885 JUMP JUMPDEST PUSH0 PUSH1 0x40 MLOAD DUP1 DUP4 SUB DUP2 DUP7 GAS STATICCALL ISZERO DUP1 ISZERO PUSH2 0x2617 JUMPI RETURNDATASIZE PUSH0 DUP1 RETURNDATACOPY RETURNDATASIZE PUSH0 REVERT JUMPDEST POP POP POP POP PUSH1 0x40 MLOAD RETURNDATASIZE PUSH0 DUP3 RETURNDATACOPY RETURNDATASIZE PUSH1 0x1F NOT PUSH1 0x1F DUP3 ADD AND DUP3 ADD DUP1 PUSH1 0x40 MSTORE POP DUP2 ADD SWAP1 PUSH2 0x263F SWAP2 SWAP1 PUSH2 0x5A0B JUMP JUMPDEST PUSH0 ADD MLOAD PUSH2 0x269F JUMPI DUP3 DUP3 DUP2 MLOAD DUP2 LT PUSH2 0x2659 JUMPI PUSH2 0x2658 PUSH2 0x4ADC JUMP JUMPDEST JUMPDEST PUSH1 0x20 MUL PUSH1 0x20 ADD ADD MLOAD DUP6 PUSH1 0x40 MLOAD PUSH32 0xA5A4608E00000000000000000000000000000000000000000000000000000000 DUP2 MSTORE PUSH1 0x4 ADD PUSH2 0x2696 SWAP3 SWAP2 SWAP1 PUSH2 0x5A52 JUMP JUMPDEST PUSH1 0x40 MLOAD DUP1 SWAP2 SUB SWAP1 REVERT JUMPDEST PUSH2 0x2808 JUMP JUMPDEST PUSH1 0x40 MLOAD DUP1 PUSH1 0x40 ADD PUSH1 0x40 MSTORE DUP1 PUSH1 0x8 DUP2 MSTORE PUSH1 0x20 ADD PUSH32 0x7265636569766572000000000000000000000000000000000000000000000000 DUP2 MSTORE POP DUP1 MLOAD SWAP1 PUSH1 0x20 ADD KECCAK256 DUP2 DUP1 MLOAD SWAP1 PUSH1 0x20 ADD KECCAK256 SUB PUSH2 0x2807 JUMPI PUSH1 0xB PUSH0 SWAP1 SLOAD SWAP1 PUSH2 0x100 EXP SWAP1 DIV PUSH20 0xFFFFFFFFFFFFFFFFFFFFFFFFFFFFFFFFFFFFFFFF AND PUSH20 0xFFFFFFFFFFFFFFFFFFFFFFFFFFFFFFFFFFFFFFFF AND PUSH4 0x8C1DA2C9 DUP6 DUP6 DUP6 DUP2 MLOAD DUP2 LT PUSH2 0x273F JUMPI PUSH2 0x273E PUSH2 0x4ADC JUMP JUMPDEST JUMPDEST PUSH1 0x20 MUL PUSH1 0x20 ADD ADD MLOAD PUSH1 0x40 MLOAD DUP4 PUSH4 0xFFFFFFFF AND PUSH1 0xE0 SHL DUP2 MSTORE PUSH1 0x4 ADD PUSH2 0x2764 SWAP3 SWAP2 SWAP1 PUSH2 0x5885 JUMP JUMPDEST PUSH0 PUSH1 0x40 MLOAD DUP1 DUP4 SUB DUP2 DUP7 GAS STATICCALL ISZERO DUP1 ISZERO PUSH2 0x277E JUMPI RETURNDATASIZE PUSH0 DUP1 RETURNDATACOPY RETURNDATASIZE PUSH0 REVERT JUMPDEST POP POP POP POP PUSH1 0x40 MLOAD RETURNDATASIZE PUSH0 DUP3 RETURNDATACOPY RETURNDATASIZE PUSH1 0x1F NOT PUSH1 0x1F DUP3 ADD AND DUP3 ADD DUP1 PUSH1 0x40 MSTORE POP DUP2 ADD SWAP1 PUSH2 0x27A6 SWAP2 SWAP1 PUSH2 0x5A0B JUMP JUMPDEST PUSH0 ADD MLOAD PUSH2 0x2806 JUMPI DUP3 DUP3 DUP2 MLOAD DUP2 LT PUSH2 0x27C0 JUMPI PUSH2 0x27BF PUSH2 0x4ADC JUMP JUMPDEST JUMPDEST PUSH1 0x20 MUL PUSH1 0x20 ADD ADD MLOAD DUP5 PUSH1 0x40 MLOAD PUSH32 0xA5A4608E00000000000000000000000000000000000000000000000000000000 DUP2 MSTORE PUSH1 0x4 ADD PUSH2 0x27FD SWAP3 SWAP2 SWAP1 PUSH2 0x5A52 JUMP JUMPDEST PUSH1 0x40 MLOAD DUP1 SWAP2 SUB SWAP1 REVERT JUMPDEST JUMPDEST JUMPDEST POP JUMPDEST DUP1 DUP1 PUSH2 0x2815 SWAP1 PUSH2 0x4B96 JUMP JUMPDEST SWAP2 POP POP PUSH2 0x2413 JUMP JUMPDEST POP POP POP POP POP JUMP JUMPDEST PUSH0 PUSH1 0x20 DUP3 MUL PUSH1 0x20 DUP5 ADD ADD MLOAD SWAP1 POP SWAP3 SWAP2 POP POP JUMP JUMPDEST PUSH0 PUSH1 0x20 DUP3 MUL PUSH1 0x20 DUP5 ADD ADD MLOAD SWAP1 POP SWAP3 SWAP2 POP POP JUMP JUMPDEST PUSH0 DUP1 PUSH0 SWAP1 POP JUMPDEST PUSH1 0x4 DUP1 SLOAD SWAP1 POP DUP2 LT ISZERO PUSH2 0x28E8 JUMPI DUP3 PUSH20 0xFFFFFFFFFFFFFFFFFFFFFFFFFFFFFFFFFFFFFFFF AND PUSH1 0x4 DUP3 DUP2 SLOAD DUP2 LT PUSH2 0x2888 JUMPI PUSH2 0x2887 PUSH2 0x4ADC JUMP JUMPDEST JUMPDEST SWAP1 PUSH0 MSTORE PUSH1 0x20 PUSH0 KECCAK256 ADD PUSH0 SWAP1 SLOAD SWAP1 PUSH2 0x100 EXP SWAP1 DIV PUSH20 0xFFFFFFFFFFFFFFFFFFFFFFFFFFFFFFFFFFFFFFFF AND PUSH20 0xFFFFFFFFFFFFFFFFFFFFFFFFFFFFFFFFFFFFFFFF AND SUB PUSH2 0x28D5 JUMPI PUSH1 0x1 SWAP2 POP POP PUSH2 0x28ED JUMP JUMPDEST DUP1 DUP1 PUSH2 0x28E0 SWAP1 PUSH2 0x4B96 JUMP JUMPDEST SWAP2 POP POP PUSH2 0x2850 JUMP JUMPDEST POP PUSH0 SWAP1 POP JUMPDEST SWAP2 SWAP1 POP JUMP JUMPDEST PUSH0 PUSH1 0x3 PUSH0 SWAP1 SLOAD SWAP1 PUSH2 0x100 EXP SWAP1 DIV PUSH20 0xFFFFFFFFFFFFFFFFFFFFFFFFFFFFFFFFFFFFFFFF AND SWAP1 POP DUP2 PUSH1 0x3 PUSH0 PUSH2 0x100 EXP DUP2 SLOAD DUP2 PUSH20 0xFFFFFFFFFFFFFFFFFFFFFFFFFFFFFFFFFFFFFFFF MUL NOT AND SWAP1 DUP4 PUSH20 0xFFFFFFFFFFFFFFFFFFFFFFFFFFFFFFFFFFFFFFFF AND MUL OR SWAP1 SSTORE POP DUP2 PUSH20 0xFFFFFFFFFFFFFFFFFFFFFFFFFFFFFFFFFFFFFFFF AND DUP2 PUSH20 0xFFFFFFFFFFFFFFFFFFFFFFFFFFFFFFFFFFFFFFFF AND PUSH32 0x8BE0079C531659141344CD1FD0A4F28419497F9722A3DAAFE3B4186F6B6457E0 PUSH1 0x40 MLOAD PUSH1 0x40 MLOAD DUP1 SWAP2 SUB SWAP1 LOG3 POP POP JUMP JUMPDEST PUSH2 0x29C9 DUP5 PUSH1 0x5 PUSH2 0x235E SWAP1 SWAP2 SWAP1 PUSH4 0xFFFFFFFF AND JUMP JUMPDEST PUSH2 0x2A08 JUMPI PUSH1 0x40 MLOAD PUSH32 0x8C379A000000000000000000000000000000000000000000000000000000000 DUP2 MSTORE PUSH1 0x4 ADD PUSH2 0x29FF SWAP1 PUSH2 0x5408 JUMP JUMPDEST PUSH1 0x40 MLOAD DUP1 SWAP2 SUB SWAP1 REVERT JUMPDEST PUSH0 PUSH1 0x8 PUSH0 DUP7 DUP2 MSTORE PUSH1 0x20 ADD SWAP1 DUP2 MSTORE PUSH1 0x20 ADD PUSH0 KECCAK256 PUSH0 CALLER PUSH20 0xFFFFFFFFFFFFFFFFFFFFFFFFFFFFFFFFFFFFFFFF AND PUSH20 0xFFFFFFFFFFFFFFFFFFFFFFFFFFFFFFFFFFFFFFFF AND DUP2 MSTORE PUSH1 0x20 ADD SWAP1 DUP2 MSTORE PUSH1 0x20 ADD PUSH0 KECCAK256 PUSH0 DUP6 PUSH8 0xFFFFFFFFFFFFFFFF AND PUSH8 0xFFFFFFFFFFFFFFFF AND DUP2 MSTORE PUSH1 0x20 ADD SWAP1 DUP2 MSTORE PUSH1 0x20 ADD PUSH0 KECCAK256 DUP1 SLOAD PUSH2 0x2A83 SWAP1 PUSH2 0x4AAC JUMP JUMPDEST SWAP1 POP EQ PUSH2 0x2AC5 JUMPI PUSH1 0x40 MLOAD PUSH32 0x8C379A000000000000000000000000000000000000000000000000000000000 DUP2 MSTORE PUSH1 0x4 ADD PUSH2 0x2ABC SWAP1 PUSH2 0x5AC3 JUMP JUMPDEST PUSH1 0x40 MLOAD DUP1 SWAP2 SUB SWAP1 REVERT JUMPDEST PUSH1 0x40 MLOAD DUP1 PUSH1 0x40 ADD PUSH1 0x40 MSTORE DUP1 PUSH1 0x6 DUP2 MSTORE PUSH1 0x20 ADD PUSH32 0x73656E6465720000000000000000000000000000000000000000000000000000 DUP2 MSTORE POP DUP1 MLOAD SWAP1 PUSH1 0x20 ADD KECCAK256 DUP3 DUP3 PUSH1 0x40 MLOAD PUSH2 0x2B12 SWAP3 SWAP2 SWAP1 PUSH2 0x4CDB JUMP JUMPDEST PUSH1 0x40 MLOAD DUP1 SWAP2 SUB SWAP1 KECCAK256 EQ DUP1 PUSH2 0x2B78 JUMPI POP PUSH1 0x40 MLOAD DUP1 PUSH1 0x40 ADD PUSH1 0x40 MSTORE DUP1 PUSH1 0x8 DUP2 MSTORE PUSH1 0x20 ADD PUSH32 0x7265636569766572000000000000000000000000000000000000000000000000 DUP2 MSTORE POP DUP1 MLOAD SWAP1 PUSH1 0x20 ADD KECCAK256 DUP3 DUP3 PUSH1 0x40 MLOAD PUSH2 0x2B6E SWAP3 SWAP2 SWAP1 PUSH2 0x4CDB JUMP JUMPDEST PUSH1 0x40 MLOAD DUP1 SWAP2 SUB SWAP1 KECCAK256 EQ JUMPDEST PUSH2 0x2BB7 JUMPI PUSH1 0x40 MLOAD PUSH32 0x8C379A000000000000000000000000000000000000000000000000000000000 DUP2 MSTORE PUSH1 0x4 ADD PUSH2 0x2BAE SWAP1 PUSH2 0x5B51 JUMP JUMPDEST PUSH1 0x40 MLOAD DUP1 SWAP2 SUB SWAP1 REVERT JUMPDEST DUP2 DUP2 PUSH1 0x8 PUSH0 DUP8 DUP2 MSTORE PUSH1 0x20 ADD SWAP1 DUP2 MSTORE PUSH1 0x20 ADD PUSH0 KECCAK256 PUSH0 CALLER PUSH20 0xFFFFFFFFFFFFFFFFFFFFFFFFFFFFFFFFFFFFFFFF AND PUSH20 0xFFFFFFFFFFFFFFFFFFFFFFFFFFFFFFFFFFFFFFFF AND DUP2 MSTORE PUSH1 0x20 ADD SWAP1 DUP2 MSTORE PUSH1 0x20 ADD PUSH0 KECCAK256 PUSH0 DUP7 PUSH8 0xFFFFFFFFFFFFFFFF AND PUSH8 0xFFFFFFFFFFFFFFFF AND DUP2 MSTORE PUSH1 0x20 ADD SWAP1 DUP2 MSTORE PUSH1 0x20 ADD PUSH0 KECCAK256 SWAP2 DUP3 PUSH2 0x2C35 SWAP3 SWAP2 SWAP1 PUSH2 0x51AE JUMP JUMPDEST POP PUSH1 0xA DUP4 SWAP1 DUP1 PUSH1 0x1 DUP2 SLOAD ADD DUP1 DUP3 SSTORE DUP1 SWAP2 POP POP PUSH1 0x1 SWAP1 SUB SWAP1 PUSH0 MSTORE PUSH1 0x20 PUSH0 KECCAK256 SWAP1 PUSH1 0x4 SWAP2 DUP3 DUP3 DIV ADD SWAP2 SWAP1 MOD PUSH1 0x8 MUL SWAP1 SWAP2 SWAP1 SWAP2 SWAP1 SWAP2 PUSH2 0x100 EXP DUP2 SLOAD DUP2 PUSH8 0xFFFFFFFFFFFFFFFF MUL NOT AND SWAP1 DUP4 PUSH8 0xFFFFFFFFFFFFFFFF AND MUL OR SWAP1 SSTORE POP POP POP POP POP JUMP JUMPDEST PUSH0 CALLER SWAP1 POP SWAP1 JUMP JUMPDEST PUSH0 PUSH20 0xFFFFFFFFFFFFFFFFFFFFFFFFFFFFFFFFFFFFFFFF AND DUP3 PUSH20 0xFFFFFFFFFFFFFFFFFFFFFFFFFFFFFFFFFFFFFFFF AND SUB PUSH2 0x2D07 JUMPI PUSH0 PUSH1 0x40 MLOAD PUSH32 0xCED3E10000000000000000000000000000000000000000000000000000000000 DUP2 MSTORE PUSH1 0x4 ADD PUSH2 0x2CFE SWAP2 SWAP1 PUSH2 0x462D JUMP JUMPDEST PUSH1 0x40 MLOAD DUP1 SWAP2 SUB SWAP1 REVERT JUMPDEST DUP1 PUSH1 0x1 PUSH0 DUP6 PUSH20 0xFFFFFFFFFFFFFFFFFFFFFFFFFFFFFFFFFFFFFFFF AND PUSH20 0xFFFFFFFFFFFFFFFFFFFFFFFFFFFFFFFFFFFFFFFF AND DUP2 MSTORE PUSH1 0x20 ADD SWAP1 DUP2 MSTORE PUSH1 0x20 ADD PUSH0 KECCAK256 PUSH0 DUP5 PUSH20 0xFFFFFFFFFFFFFFFFFFFFFFFFFFFFFFFFFFFFFFFF AND PUSH20 0xFFFFFFFFFFFFFFFFFFFFFFFFFFFFFFFFFFFFFFFF AND DUP2 MSTORE PUSH1 0x20 ADD SWAP1 DUP2 MSTORE PUSH1 0x20 ADD PUSH0 KECCAK256 PUSH0 PUSH2 0x100 EXP DUP2 SLOAD DUP2 PUSH1 0xFF MUL NOT AND SWAP1 DUP4 ISZERO ISZERO MUL OR SWAP1 SSTORE POP DUP2 PUSH20 0xFFFFFFFFFFFFFFFFFFFFFFFFFFFFFFFFFFFFFFFF AND DUP4 PUSH20 0xFFFFFFFFFFFFFFFFFFFFFFFFFFFFFFFFFFFFFFFF AND PUSH32 0x17307EAB39AB6107E8899845AD3D59BD9653F200F220920489CA2B5937696C31 DUP4 PUSH1 0x40 MLOAD PUSH2 0x2DF3 SWAP2 SWAP1 PUSH2 0x3B16 JUMP JUMPDEST PUSH1 0x40 MLOAD DUP1 SWAP2 SUB SWAP1 LOG3 POP POP POP JUMP JUMPDEST PUSH0 PUSH2 0x2E09 PUSH2 0x2C90 JUMP JUMPDEST SWAP1 POP DUP1 PUSH20 0xFFFFFFFFFFFFFFFFFFFFFFFFFFFFFFFFFFFFFFFF AND DUP7 PUSH20 0xFFFFFFFFFFFFFFFFFFFFFFFFFFFFFFFFFFFFFFFF AND EQ ISZERO DUP1 ISZERO PUSH2 0x2E4E JUMPI POP PUSH2 0x2E4C DUP7 DUP3 PUSH2 0x2071 JUMP JUMPDEST ISZERO JUMPDEST ISZERO PUSH2 0x2E92 JUMPI DUP1 DUP7 PUSH1 0x40 MLOAD PUSH32 0xE237D92200000000000000000000000000000000000000000000000000000000 DUP2 MSTORE PUSH1 0x4 ADD PUSH2 0x2E89 SWAP3 SWAP2 SWAP1 PUSH2 0x5B6F JUMP JUMPDEST PUSH1 0x40 MLOAD DUP1 SWAP2 SUB SWAP1 REVERT JUMPDEST PUSH2 0x2E9F DUP7 DUP7 DUP7 DUP7 DUP7 PUSH2 0x3105 JUMP JUMPDEST POP POP POP POP POP POP JUMP JUMPDEST PUSH0 PUSH20 0xFFFFFFFFFFFFFFFFFFFFFFFFFFFFFFFFFFFFFFFF AND DUP4 PUSH20 0xFFFFFFFFFFFFFFFFFFFFFFFFFFFFFFFFFFFFFFFF AND SUB PUSH2 0x2F17 JUMPI PUSH0 PUSH1 0x40 MLOAD PUSH32 0x1A8351400000000000000000000000000000000000000000000000000000000 DUP2 MSTORE PUSH1 0x4 ADD PUSH2 0x2F0E SWAP2 SWAP1 PUSH2 0x462D JUMP JUMPDEST PUSH1 0x40 MLOAD DUP1 SWAP2 SUB SWAP1 REVERT JUMPDEST PUSH0 DUP1 PUSH2 0x2F23 DUP5 DUP5 PUSH2 0x2FA2 JUMP JUMPDEST SWAP2 POP SWAP2 POP PUSH2 0x2F42 DUP6 PUSH0 DUP5 DUP5 PUSH1 0x40 MLOAD DUP1 PUSH1 0x20 ADD PUSH1 0x40 MSTORE DUP1 PUSH0 DUP2 MSTORE POP PUSH2 0x2FD2 JUMP JUMPDEST POP POP POP POP POP JUMP JUMPDEST PUSH1 0x60 DUP2 PUSH0 ADD DUP1 SLOAD DUP1 PUSH1 0x20 MUL PUSH1 0x20 ADD PUSH1 0x40 MLOAD SWAP1 DUP2 ADD PUSH1 0x40 MSTORE DUP1 SWAP3 SWAP2 SWAP1 DUP2 DUP2 MSTORE PUSH1 0x20 ADD DUP3 DUP1 SLOAD DUP1 ISZERO PUSH2 0x2F96 JUMPI PUSH1 0x20 MUL DUP3 ADD SWAP2 SWAP1 PUSH0 MSTORE PUSH1 0x20 PUSH0 KECCAK256 SWAP1 JUMPDEST DUP2 SLOAD DUP2 MSTORE PUSH1 0x20 ADD SWAP1 PUSH1 0x1 ADD SWAP1 DUP1 DUP4 GT PUSH2 0x2F82 JUMPI JUMPDEST POP POP POP POP POP SWAP1 POP SWAP2 SWAP1 POP JUMP JUMPDEST PUSH1 0x60 DUP1 PUSH1 0x40 MLOAD SWAP2 POP PUSH1 0x1 DUP3 MSTORE DUP4 PUSH1 0x20 DUP4 ADD MSTORE PUSH1 0x40 DUP3 ADD SWAP1 POP PUSH1 0x1 DUP2 MSTORE DUP3 PUSH1 0x20 DUP3 ADD MSTORE PUSH1 0x40 DUP2 ADD PUSH1 0x40 MSTORE SWAP3 POP SWAP3 SWAP1 POP JUMP JUMPDEST PUSH2 0x2FDE DUP6 DUP6 DUP6 DUP6 PUSH2 0x320B JUMP JUMPDEST PUSH0 PUSH20 0xFFFFFFFFFFFFFFFFFFFFFFFFFFFFFFFFFFFFFFFF AND DUP5 PUSH20 0xFFFFFFFFFFFFFFFFFFFFFFFFFFFFFFFFFFFFFFFF AND EQ PUSH2 0x3077 JUMPI PUSH0 PUSH2 0x301A PUSH2 0x2C90 JUMP JUMPDEST SWAP1 POP PUSH1 0x1 DUP5 MLOAD SUB PUSH2 0x3066 JUMPI PUSH0 PUSH2 0x3039 PUSH0 DUP7 PUSH2 0x2837 SWAP1 SWAP2 SWAP1 PUSH4 0xFFFFFFFF AND JUMP JUMPDEST SWAP1 POP PUSH0 PUSH2 0x304F PUSH0 DUP7 PUSH2 0x2837 SWAP1 SWAP2 SWAP1 PUSH4 0xFFFFFFFF AND JUMP JUMPDEST SWAP1 POP PUSH2 0x305F DUP4 DUP10 DUP10 DUP6 DUP6 DUP10 PUSH2 0x35A1 JUMP JUMPDEST POP POP PUSH2 0x3075 JUMP JUMPDEST PUSH2 0x3074 DUP2 DUP8 DUP8 DUP8 DUP8 DUP8 PUSH2 0x3750 JUMP JUMPDEST JUMPDEST POP JUMPDEST POP POP POP POP POP JUMP JUMPDEST PUSH0 DUP1 DUP4 PUSH1 0x1 ADD PUSH0 DUP5 DUP2 MSTORE PUSH1 0x20 ADD SWAP1 DUP2 MSTORE PUSH1 0x20 ADD PUSH0 KECCAK256 SLOAD EQ ISZERO SWAP1 POP SWAP3 SWAP2 POP POP JUMP JUMPDEST PUSH0 PUSH2 0x30A9 DUP4 DUP4 PUSH2 0x307E JUMP JUMPDEST PUSH2 0x30FB JUMPI DUP3 PUSH0 ADD DUP3 SWAP1 DUP1 PUSH1 0x1 DUP2 SLOAD ADD DUP1 DUP3 SSTORE DUP1 SWAP2 POP POP PUSH1 0x1 SWAP1 SUB SWAP1 PUSH0 MSTORE PUSH1 0x20 PUSH0 KECCAK256 ADD PUSH0 SWAP1 SWAP2 SWAP1 SWAP2 SWAP1 SWAP2 POP SSTORE DUP3 PUSH0 ADD DUP1 SLOAD SWAP1 POP DUP4 PUSH1 0x1 ADD PUSH0 DUP5 DUP2 MSTORE PUSH1 0x20 ADD SWAP1 DUP2 MSTORE PUSH1 0x20 ADD PUSH0 KECCAK256 DUP2 SWAP1 SSTORE POP PUSH1 0x1 SWAP1 POP PUSH2 0x30FF JUMP JUMPDEST PUSH0 SWAP1 POP JUMPDEST SWAP3 SWAP2 POP POP JUMP JUMPDEST PUSH0 PUSH20 0xFFFFFFFFFFFFFFFFFFFFFFFFFFFFFFFFFFFFFFFF AND DUP5 PUSH20 0xFFFFFFFFFFFFFFFFFFFFFFFFFFFFFFFFFFFFFFFF AND SUB PUSH2 0x3175 JUMPI PUSH0 PUSH1 0x40 MLOAD PUSH32 0x57F447CE00000000000000000000000000000000000000000000000000000000 DUP2 MSTORE PUSH1 0x4 ADD PUSH2 0x316C SWAP2 SWAP1 PUSH2 0x462D JUMP JUMPDEST PUSH1 0x40 MLOAD DUP1 SWAP2 SUB SWAP1 REVERT JUMPDEST PUSH0 PUSH20 0xFFFFFFFFFFFFFFFFFFFFFFFFFFFFFFFFFFFFFFFF AND DUP6 PUSH20 0xFFFFFFFFFFFFFFFFFFFFFFFFFFFFFFFFFFFFFFFF AND SUB PUSH2 0x31E5 JUMPI PUSH0 PUSH1 0x40 MLOAD PUSH32 0x1A8351400000000000000000000000000000000000000000000000000000000 DUP2 MSTORE PUSH1 0x4 ADD PUSH2 0x31DC SWAP2 SWAP1 PUSH2 0x462D JUMP JUMPDEST PUSH1 0x40 MLOAD DUP1 SWAP2 SUB SWAP1 REVERT JUMPDEST PUSH0 DUP1 PUSH2 0x31F1 DUP6 DUP6 PUSH2 0x2FA2 JUMP JUMPDEST SWAP2 POP SWAP2 POP PUSH2 0x3202 DUP8 DUP8 DUP5 DUP5 DUP8 PUSH2 0x2FD2 JUMP JUMPDEST POP POP POP POP POP POP POP JUMP JUMPDEST DUP1 MLOAD DUP3 MLOAD EQ PUSH2 0x3255 JUMPI DUP2 MLOAD DUP2 MLOAD PUSH1 0x40 MLOAD PUSH32 0x5B05999100000000000000000000000000000000000000000000000000000000 DUP2 MSTORE PUSH1 0x4 ADD PUSH2 0x324C SWAP3 SWAP2 SWAP1 PUSH2 0x5397 JUMP JUMPDEST PUSH1 0x40 MLOAD DUP1 SWAP2 SUB SWAP1 REVERT JUMPDEST PUSH0 PUSH2 0x325E PUSH2 0x2C90 JUMP JUMPDEST SWAP1 POP PUSH0 JUMPDEST DUP4 MLOAD DUP2 LT ISZERO PUSH2 0x3460 JUMPI PUSH0 PUSH2 0x327F DUP3 DUP7 PUSH2 0x2837 SWAP1 SWAP2 SWAP1 PUSH4 0xFFFFFFFF AND JUMP JUMPDEST SWAP1 POP PUSH0 PUSH2 0x3295 DUP4 DUP7 PUSH2 0x2837 SWAP1 SWAP2 SWAP1 PUSH4 0xFFFFFFFF AND JUMP JUMPDEST SWAP1 POP PUSH0 PUSH20 0xFFFFFFFFFFFFFFFFFFFFFFFFFFFFFFFFFFFFFFFF AND DUP9 PUSH20 0xFFFFFFFFFFFFFFFFFFFFFFFFFFFFFFFFFFFFFFFF AND EQ PUSH2 0x33B8 JUMPI PUSH0 DUP1 PUSH0 DUP5 DUP2 MSTORE PUSH1 0x20 ADD SWAP1 DUP2 MSTORE PUSH1 0x20 ADD PUSH0 KECCAK256 PUSH0 DUP11 PUSH20 0xFFFFFFFFFFFFFFFFFFFFFFFFFFFFFFFFFFFFFFFF AND PUSH20 0xFFFFFFFFFFFFFFFFFFFFFFFFFFFFFFFFFFFFFFFF AND DUP2 MSTORE PUSH1 0x20 ADD SWAP1 DUP2 MSTORE PUSH1 0x20 ADD PUSH0 KECCAK256 SLOAD SWAP1 POP DUP2 DUP2 LT ISZERO PUSH2 0x3364 JUMPI DUP9 DUP2 DUP4 DUP6 PUSH1 0x40 MLOAD PUSH32 0x3DEE4C500000000000000000000000000000000000000000000000000000000 DUP2 MSTORE PUSH1 0x4 ADD PUSH2 0x335B SWAP5 SWAP4 SWAP3 SWAP2 SWAP1 PUSH2 0x5B96 JUMP JUMPDEST PUSH1 0x40 MLOAD DUP1 SWAP2 SUB SWAP1 REVERT JUMPDEST DUP2 DUP2 SUB PUSH0 DUP1 DUP6 DUP2 MSTORE PUSH1 0x20 ADD SWAP1 DUP2 MSTORE PUSH1 0x20 ADD PUSH0 KECCAK256 PUSH0 DUP12 PUSH20 0xFFFFFFFFFFFFFFFFFFFFFFFFFFFFFFFFFFFFFFFF AND PUSH20 0xFFFFFFFFFFFFFFFFFFFFFFFFFFFFFFFFFFFFFFFF AND DUP2 MSTORE PUSH1 0x20 ADD SWAP1 DUP2 MSTORE PUSH1 0x20 ADD PUSH0 KECCAK256 DUP2 SWAP1 SSTORE POP POP JUMPDEST PUSH0 PUSH20 0xFFFFFFFFFFFFFFFFFFFFFFFFFFFFFFFFFFFFFFFF AND DUP8 PUSH20 0xFFFFFFFFFFFFFFFFFFFFFFFFFFFFFFFFFFFFFFFF AND EQ PUSH2 0x344D JUMPI DUP1 PUSH0 DUP1 DUP5 DUP2 MSTORE PUSH1 0x20 ADD SWAP1 DUP2 MSTORE PUSH1 0x20 ADD PUSH0 KECCAK256 PUSH0 DUP10 PUSH20 0xFFFFFFFFFFFFFFFFFFFFFFFFFFFFFFFFFFFFFFFF AND PUSH20 0xFFFFFFFFFFFFFFFFFFFFFFFFFFFFFFFFFFFFFFFF AND DUP2 MSTORE PUSH1 0x20 ADD SWAP1 DUP2 MSTORE PUSH1 0x20 ADD PUSH0 KECCAK256 PUSH0 DUP3 DUP3 SLOAD PUSH2 0x3445 SWAP2 SWAP1 PUSH2 0x4EE7 JUMP JUMPDEST SWAP3 POP POP DUP2 SWAP1 SSTORE POP JUMPDEST POP POP DUP1 PUSH2 0x3459 SWAP1 PUSH2 0x4B96 JUMP JUMPDEST SWAP1 POP PUSH2 0x3262 JUMP JUMPDEST POP PUSH1 0x1 DUP4 MLOAD SUB PUSH2 0x351B JUMPI PUSH0 PUSH2 0x347E PUSH0 DUP6 PUSH2 0x2837 SWAP1 SWAP2 SWAP1 PUSH4 0xFFFFFFFF AND JUMP JUMPDEST SWAP1 POP PUSH0 PUSH2 0x3494 PUSH0 DUP6 PUSH2 0x2837 SWAP1 SWAP2 SWAP1 PUSH4 0xFFFFFFFF AND JUMP JUMPDEST SWAP1 POP DUP6 PUSH20 0xFFFFFFFFFFFFFFFFFFFFFFFFFFFFFFFFFFFFFFFF AND DUP8 PUSH20 0xFFFFFFFFFFFFFFFFFFFFFFFFFFFFFFFFFFFFFFFF AND DUP5 PUSH20 0xFFFFFFFFFFFFFFFFFFFFFFFFFFFFFFFFFFFFFFFF AND PUSH32 0xC3D58168C5AE7397731D063D5BBF3D657854427343F4C083240F7AACAA2D0F62 DUP6 DUP6 PUSH1 0x40 MLOAD PUSH2 0x350C SWAP3 SWAP2 SWAP1 PUSH2 0x5397 JUMP JUMPDEST PUSH1 0x40 MLOAD DUP1 SWAP2 SUB SWAP1 LOG4 POP POP PUSH2 0x359A JUMP JUMPDEST DUP4 PUSH20 0xFFFFFFFFFFFFFFFFFFFFFFFFFFFFFFFFFFFFFFFF AND DUP6 PUSH20 0xFFFFFFFFFFFFFFFFFFFFFFFFFFFFFFFFFFFFFFFF AND DUP3 PUSH20 0xFFFFFFFFFFFFFFFFFFFFFFFFFFFFFFFFFFFFFFFF AND PUSH32 0x4A39DC06D4C0DBC64B70AF90FD698A233A518AA5D07E595D983B8C0526C8F7FB DUP7 DUP7 PUSH1 0x40 MLOAD PUSH2 0x3591 SWAP3 SWAP2 SWAP1 PUSH2 0x5BD9 JUMP JUMPDEST PUSH1 0x40 MLOAD DUP1 SWAP2 SUB SWAP1 LOG4 JUMPDEST POP POP POP POP POP JUMP JUMPDEST PUSH0 DUP5 PUSH20 0xFFFFFFFFFFFFFFFFFFFFFFFFFFFFFFFFFFFFFFFF AND EXTCODESIZE GT ISZERO PUSH2 0x3748 JUMPI DUP4 PUSH20 0xFFFFFFFFFFFFFFFFFFFFFFFFFFFFFFFFFFFFFFFF AND PUSH4 0xF23A6E61 DUP8 DUP8 DUP7 DUP7 DUP7 PUSH1 0x40 MLOAD DUP7 PUSH4 0xFFFFFFFF AND PUSH1 0xE0 SHL DUP2 MSTORE PUSH1 0x4 ADD PUSH2 0x3601 SWAP6 SWAP5 SWAP4 SWAP3 SWAP2 SWAP1 PUSH2 0x5C56 JUMP JUMPDEST PUSH1 0x20 PUSH1 0x40 MLOAD DUP1 DUP4 SUB DUP2 PUSH0 DUP8 GAS CALL SWAP3 POP POP POP DUP1 ISZERO PUSH2 0x363C JUMPI POP PUSH1 0x40 MLOAD RETURNDATASIZE PUSH1 0x1F NOT PUSH1 0x1F DUP3 ADD AND DUP3 ADD DUP1 PUSH1 0x40 MSTORE POP DUP2 ADD SWAP1 PUSH2 0x3639 SWAP2 SWAP1 PUSH2 0x5CC2 JUMP JUMPDEST PUSH1 0x1 JUMPDEST PUSH2 0x36BD JUMPI RETURNDATASIZE DUP1 PUSH0 DUP2 EQ PUSH2 0x366A JUMPI PUSH1 0x40 MLOAD SWAP2 POP PUSH1 0x1F NOT PUSH1 0x3F RETURNDATASIZE ADD AND DUP3 ADD PUSH1 0x40 MSTORE RETURNDATASIZE DUP3 MSTORE RETURNDATASIZE PUSH0 PUSH1 0x20 DUP5 ADD RETURNDATACOPY PUSH2 0x366F JUMP JUMPDEST PUSH1 0x60 SWAP2 POP JUMPDEST POP PUSH0 DUP2 MLOAD SUB PUSH2 0x36B5 JUMPI DUP5 PUSH1 0x40 MLOAD PUSH32 0x57F447CE00000000000000000000000000000000000000000000000000000000 DUP2 MSTORE PUSH1 0x4 ADD PUSH2 0x36AC SWAP2 SWAP1 PUSH2 0x462D JUMP JUMPDEST PUSH1 0x40 MLOAD DUP1 SWAP2 SUB SWAP1 REVERT JUMPDEST DUP1 MLOAD DUP2 PUSH1 0x20 ADD REVERT JUMPDEST PUSH4 0xF23A6E61 PUSH1 0xE0 SHL PUSH28 0xFFFFFFFFFFFFFFFFFFFFFFFFFFFFFFFFFFFFFFFFFFFFFFFFFFFFFFFF NOT AND DUP2 PUSH28 0xFFFFFFFFFFFFFFFFFFFFFFFFFFFFFFFFFFFFFFFFFFFFFFFFFFFFFFFF NOT AND EQ PUSH2 0x3746 JUMPI DUP5 PUSH1 0x40 MLOAD PUSH32 0x57F447CE00000000000000000000000000000000000000000000000000000000 DUP2 MSTORE PUSH1 0x4 ADD PUSH2 0x373D SWAP2 SWAP1 PUSH2 0x462D JUMP JUMPDEST PUSH1 0x40 MLOAD DUP1 SWAP2 SUB SWAP1 REVERT JUMPDEST POP JUMPDEST POP POP POP POP POP POP JUMP JUMPDEST PUSH0 DUP5 PUSH20 0xFFFFFFFFFFFFFFFFFFFFFFFFFFFFFFFFFFFFFFFF AND EXTCODESIZE GT ISZERO PUSH2 0x38F7 JUMPI DUP4 PUSH20 0xFFFFFFFFFFFFFFFFFFFFFFFFFFFFFFFFFFFFFFFF AND PUSH4 0xBC197C81 DUP8 DUP8 DUP7 DUP7 DUP7 PUSH1 0x40 MLOAD DUP7 PUSH4 0xFFFFFFFF AND PUSH1 0xE0 SHL DUP2 MSTORE PUSH1 0x4 ADD PUSH2 0x37B0 SWAP6 SWAP5 SWAP4 SWAP3 SWAP2 SWAP1 PUSH2 0x5CED JUMP JUMPDEST PUSH1 0x20 PUSH1 0x40 MLOAD DUP1 DUP4 SUB DUP2 PUSH0 DUP8 GAS CALL SWAP3 POP POP POP DUP1 ISZERO PUSH2 0x37EB JUMPI POP PUSH1 0x40 MLOAD RETURNDATASIZE PUSH1 0x1F NOT PUSH1 0x1F DUP3 ADD AND DUP3 ADD DUP1 PUSH1 0x40 MSTORE POP DUP2 ADD SWAP1 PUSH2 0x37E8 SWAP2 SWAP1 PUSH2 0x5CC2 JUMP JUMPDEST PUSH1 0x1 JUMPDEST PUSH2 0x386C JUMPI RETURNDATASIZE DUP1 PUSH0 DUP2 EQ PUSH2 0x3819 JUMPI PUSH1 0x40 MLOAD SWAP2 POP PUSH1 0x1F NOT PUSH1 0x3F RETURNDATASIZE ADD AND DUP3 ADD PUSH1 0x40 MSTORE RETURNDATASIZE DUP3 MSTORE RETURNDATASIZE PUSH0 PUSH1 0x20 DUP5 ADD RETURNDATACOPY PUSH2 0x381E JUMP JUMPDEST PUSH1 0x60 SWAP2 POP JUMPDEST POP PUSH0 DUP2 MLOAD SUB PUSH2 0x3864 JUMPI DUP5 PUSH1 0x40 MLOAD PUSH32 0x57F447CE00000000000000000000000000000000000000000000000000000000 DUP2 MSTORE PUSH1 0x4 ADD PUSH2 0x385B SWAP2 SWAP1 PUSH2 0x462D JUMP JUMPDEST PUSH1 0x40 MLOAD DUP1 SWAP2 SUB SWAP1 REVERT JUMPDEST DUP1 MLOAD DUP2 PUSH1 0x20 ADD REVERT JUMPDEST PUSH4 0xBC197C81 PUSH1 0xE0 SHL PUSH28 0xFFFFFFFFFFFFFFFFFFFFFFFFFFFFFFFFFFFFFFFFFFFFFFFFFFFFFFFF NOT AND DUP2 PUSH28 0xFFFFFFFFFFFFFFFFFFFFFFFFFFFFFFFFFFFFFFFFFFFFFFFFFFFFFFFF NOT AND EQ PUSH2 0x38F5 JUMPI DUP5 PUSH1 0x40 MLOAD PUSH32 0x57F447CE00000000000000000000000000000000000000000000000000000000 DUP2 MSTORE PUSH1 0x4 ADD PUSH2 0x38EC SWAP2 SWAP1 PUSH2 0x462D JUMP JUMPDEST PUSH1 0x40 MLOAD DUP1 SWAP2 SUB SWAP1 REVERT JUMPDEST POP JUMPDEST POP POP POP POP POP POP JUMP JUMPDEST POP DUP1 SLOAD PUSH2 0x390B SWAP1 PUSH2 0x4AAC JUMP JUMPDEST PUSH0 DUP3 SSTORE DUP1 PUSH1 0x1F LT PUSH2 0x391C JUMPI POP PUSH2 0x3939 JUMP JUMPDEST PUSH1 0x1F ADD PUSH1 0x20 SWAP1 DIV SWAP1 PUSH0 MSTORE PUSH1 0x20 PUSH0 KECCAK256 SWAP1 DUP2 ADD SWAP1 PUSH2 0x3938 SWAP2 SWAP1 PUSH2 0x395D JUMP JUMPDEST JUMPDEST POP JUMP JUMPDEST PUSH1 0x40 MLOAD DUP1 PUSH1 0x60 ADD PUSH1 0x40 MSTORE DUP1 PUSH1 0x60 DUP2 MSTORE PUSH1 0x20 ADD PUSH1 0x60 DUP2 MSTORE PUSH1 0x20 ADD PUSH1 0x60 DUP2 MSTORE POP SWAP1 JUMP JUMPDEST JUMPDEST DUP1 DUP3 GT ISZERO PUSH2 0x3974 JUMPI PUSH0 DUP2 PUSH0 SWAP1 SSTORE POP PUSH1 0x1 ADD PUSH2 0x395E JUMP JUMPDEST POP SWAP1 JUMP JUMPDEST PUSH0 PUSH1 0x40 MLOAD SWAP1 POP SWAP1 JUMP JUMPDEST PUSH0 DUP1 REVERT JUMPDEST PUSH0 DUP1 REVERT JUMPDEST PUSH0 PUSH20 0xFFFFFFFFFFFFFFFFFFFFFFFFFFFFFFFFFFFFFFFF DUP3 AND SWAP1 POP SWAP2 SWAP1 POP JUMP JUMPDEST PUSH0 PUSH2 0x39B2 DUP3 PUSH2 0x3989 JUMP JUMPDEST SWAP1 POP SWAP2 SWAP1 POP JUMP JUMPDEST PUSH2 0x39C2 DUP2 PUSH2 0x39A8 JUMP JUMPDEST DUP2 EQ PUSH2 0x39CC JUMPI PUSH0 DUP1 REVERT JUMPDEST POP JUMP JUMPDEST PUSH0 DUP2 CALLDATALOAD SWAP1 POP PUSH2 0x39DD DUP2 PUSH2 0x39B9 JUMP JUMPDEST SWAP3 SWAP2 POP POP JUMP JUMPDEST PUSH0 DUP2 SWAP1 POP SWAP2 SWAP1 POP JUMP JUMPDEST PUSH2 0x39F5 DUP2 PUSH2 0x39E3 JUMP JUMPDEST DUP2 EQ PUSH2 0x39FF JUMPI PUSH0 DUP1 REVERT JUMPDEST POP JUMP JUMPDEST PUSH0 DUP2 CALLDATALOAD SWAP1 POP PUSH2 0x3A10 DUP2 PUSH2 0x39EC JUMP JUMPDEST SWAP3 SWAP2 POP POP JUMP JUMPDEST PUSH0 DUP1 PUSH1 0x40 DUP4 DUP6 SUB SLT ISZERO PUSH2 0x3A2C JUMPI PUSH2 0x3A2B PUSH2 0x3981 JUMP JUMPDEST JUMPDEST PUSH0 PUSH2 0x3A39 DUP6 DUP3 DUP7 ADD PUSH2 0x39CF JUMP JUMPDEST SWAP3 POP POP PUSH1 0x20 PUSH2 0x3A4A DUP6 DUP3 DUP7 ADD PUSH2 0x3A02 JUMP JUMPDEST SWAP2 POP POP SWAP3 POP SWAP3 SWAP1 POP JUMP JUMPDEST PUSH2 0x3A5D DUP2 PUSH2 0x39E3 JUMP JUMPDEST DUP3 MSTORE POP POP JUMP JUMPDEST PUSH0 PUSH1 0x20 DUP3 ADD SWAP1 POP PUSH2 0x3A76 PUSH0 DUP4 ADD DUP5 PUSH2 0x3A54 JUMP JUMPDEST SWAP3 SWAP2 POP POP JUMP JUMPDEST PUSH0 PUSH32 0xFFFFFFFF00000000000000000000000000000000000000000000000000000000 DUP3 AND SWAP1 POP SWAP2 SWAP1 POP JUMP JUMPDEST PUSH2 0x3AB0 DUP2 PUSH2 0x3A7C JUMP JUMPDEST DUP2 EQ PUSH2 0x3ABA JUMPI PUSH0 DUP1 REVERT JUMPDEST POP JUMP JUMPDEST PUSH0 DUP2 CALLDATALOAD SWAP1 POP PUSH2 0x3ACB DUP2 PUSH2 0x3AA7 JUMP JUMPDEST SWAP3 SWAP2 POP POP JUMP JUMPDEST PUSH0 PUSH1 0x20 DUP3 DUP5 SUB SLT ISZERO PUSH2 0x3AE6 JUMPI PUSH2 0x3AE5 PUSH2 0x3981 JUMP JUMPDEST JUMPDEST PUSH0 PUSH2 0x3AF3 DUP5 DUP3 DUP6 ADD PUSH2 0x3ABD JUMP JUMPDEST SWAP2 POP POP SWAP3 SWAP2 POP POP JUMP JUMPDEST PUSH0 DUP2 ISZERO ISZERO SWAP1 POP SWAP2 SWAP1 POP JUMP JUMPDEST PUSH2 0x3B10 DUP2 PUSH2 0x3AFC JUMP JUMPDEST DUP3 MSTORE POP POP JUMP JUMPDEST PUSH0 PUSH1 0x20 DUP3 ADD SWAP1 POP PUSH2 0x3B29 PUSH0 DUP4 ADD DUP5 PUSH2 0x3B07 JUMP JUMPDEST SWAP3 SWAP2 POP POP JUMP JUMPDEST PUSH0 PUSH1 0x20 DUP3 DUP5 SUB SLT ISZERO PUSH2 0x3B44 JUMPI PUSH2 0x3B43 PUSH2 0x3981 JUMP JUMPDEST JUMPDEST PUSH0 PUSH2 0x3B51 DUP5 DUP3 DUP6 ADD PUSH2 0x3A02 JUMP JUMPDEST SWAP2 POP POP SWAP3 SWAP2 POP POP JUMP JUMPDEST PUSH0 DUP2 MLOAD SWAP1 POP SWAP2 SWAP1 POP JUMP JUMPDEST PUSH0 DUP3 DUP3 MSTORE PUSH1 0x20 DUP3 ADD SWAP1 POP SWAP3 SWAP2 POP POP JUMP JUMPDEST PUSH0 JUMPDEST DUP4 DUP2 LT ISZERO PUSH2 0x3B91 JUMPI DUP1 DUP3 ADD MLOAD DUP2 DUP5 ADD MSTORE PUSH1 0x20 DUP2 ADD SWAP1 POP PUSH2 0x3B76 JUMP JUMPDEST PUSH0 DUP5 DUP5 ADD MSTORE POP POP POP POP JUMP JUMPDEST PUSH0 PUSH1 0x1F NOT PUSH1 0x1F DUP4 ADD AND SWAP1 POP SWAP2 SWAP1 POP JUMP JUMPDEST PUSH0 PUSH2 0x3BB6 DUP3 PUSH2 0x3B5A JUMP JUMPDEST PUSH2 0x3BC0 DUP2 DUP6 PUSH2 0x3B64 JUMP JUMPDEST SWAP4 POP PUSH2 0x3BD0 DUP2 DUP6 PUSH1 0x20 DUP7 ADD PUSH2 0x3B74 JUMP JUMPDEST PUSH2 0x3BD9 DUP2 PUSH2 0x3B9C JUMP JUMPDEST DUP5 ADD SWAP2 POP POP SWAP3 SWAP2 POP POP JUMP JUMPDEST PUSH0 PUSH1 0x20 DUP3 ADD SWAP1 POP DUP2 DUP2 SUB PUSH0 DUP4 ADD MSTORE PUSH2 0x3BFC DUP2 DUP5 PUSH2 0x3BAC JUMP JUMPDEST SWAP1 POP SWAP3 SWAP2 POP POP JUMP JUMPDEST PUSH0 PUSH1 0x20 DUP3 DUP5 SUB SLT ISZERO PUSH2 0x3C19 JUMPI PUSH2 0x3C18 PUSH2 0x3981 JUMP JUMPDEST JUMPDEST PUSH0 PUSH2 0x3C26 DUP5 DUP3 DUP6 ADD PUSH2 0x39CF JUMP JUMPDEST SWAP2 POP POP SWAP3 SWAP2 POP POP JUMP JUMPDEST PUSH0 DUP2 SWAP1 POP SWAP2 SWAP1 POP JUMP JUMPDEST PUSH0 PUSH2 0x3C52 PUSH2 0x3C4D PUSH2 0x3C48 DUP5 PUSH2 0x3989 JUMP JUMPDEST PUSH2 0x3C2F JUMP JUMPDEST PUSH2 0x3989 JUMP JUMPDEST SWAP1 POP SWAP2 SWAP1 POP JUMP JUMPDEST PUSH0 PUSH2 0x3C63 DUP3 PUSH2 0x3C38 JUMP JUMPDEST SWAP1 POP SWAP2 SWAP1 POP JUMP JUMPDEST PUSH0 PUSH2 0x3C74 DUP3 PUSH2 0x3C59 JUMP JUMPDEST SWAP1 POP SWAP2 SWAP1 POP JUMP JUMPDEST PUSH2 0x3C84 DUP2 PUSH2 0x3C6A JUMP JUMPDEST DUP3 MSTORE POP POP JUMP JUMPDEST PUSH0 PUSH1 0x20 DUP3 ADD SWAP1 POP PUSH2 0x3C9D PUSH0 DUP4 ADD DUP5 PUSH2 0x3C7B JUMP JUMPDEST SWAP3 SWAP2 POP POP JUMP JUMPDEST PUSH0 DUP1 REVERT JUMPDEST PUSH0 DUP1 REVERT JUMPDEST PUSH0 DUP1 REVERT JUMPDEST PUSH0 DUP1 DUP4 PUSH1 0x1F DUP5 ADD SLT PUSH2 0x3CC4 JUMPI PUSH2 0x3CC3 PUSH2 0x3CA3 JUMP JUMPDEST JUMPDEST DUP3 CALLDATALOAD SWAP1 POP PUSH8 0xFFFFFFFFFFFFFFFF DUP2 GT ISZERO PUSH2 0x3CE1 JUMPI PUSH2 0x3CE0 PUSH2 0x3CA7 JUMP JUMPDEST JUMPDEST PUSH1 0x20 DUP4 ADD SWAP2 POP DUP4 PUSH1 0x1 DUP3 MUL DUP4 ADD GT ISZERO PUSH2 0x3CFD JUMPI PUSH2 0x3CFC PUSH2 0x3CAB JUMP JUMPDEST JUMPDEST SWAP3 POP SWAP3 SWAP1 POP JUMP JUMPDEST PUSH0 DUP1 DUP4 PUSH1 0x1F DUP5 ADD SLT PUSH2 0x3D19 JUMPI PUSH2 0x3D18 PUSH2 0x3CA3 JUMP JUMPDEST JUMPDEST DUP3 CALLDATALOAD SWAP1 POP PUSH8 0xFFFFFFFFFFFFFFFF DUP2 GT ISZERO PUSH2 0x3D36 JUMPI PUSH2 0x3D35 PUSH2 0x3CA7 JUMP JUMPDEST JUMPDEST PUSH1 0x20 DUP4 ADD SWAP2 POP DUP4 PUSH1 0x1 DUP3 MUL DUP4 ADD GT ISZERO PUSH2 0x3D52 JUMPI PUSH2 0x3D51 PUSH2 0x3CAB JUMP JUMPDEST JUMPDEST SWAP3 POP SWAP3 SWAP1 POP JUMP JUMPDEST PUSH0 DUP1 PUSH0 DUP1 PUSH0 DUP1 PUSH1 0x80 DUP8 DUP10 SUB SLT ISZERO PUSH2 0x3D73 JUMPI PUSH2 0x3D72 PUSH2 0x3981 JUMP JUMPDEST JUMPDEST PUSH0 PUSH2 0x3D80 DUP10 DUP3 DUP11 ADD PUSH2 0x39CF JUMP JUMPDEST SWAP7 POP POP PUSH1 0x20 PUSH2 0x3D91 DUP10 DUP3 DUP11 ADD PUSH2 0x3A02 JUMP JUMPDEST SWAP6 POP POP PUSH1 0x40 DUP8 ADD CALLDATALOAD PUSH8 0xFFFFFFFFFFFFFFFF DUP2 GT ISZERO PUSH2 0x3DB2 JUMPI PUSH2 0x3DB1 PUSH2 0x3985 JUMP JUMPDEST JUMPDEST PUSH2 0x3DBE DUP10 DUP3 DUP11 ADD PUSH2 0x3CAF JUMP JUMPDEST SWAP5 POP SWAP5 POP POP PUSH1 0x60 DUP8 ADD CALLDATALOAD PUSH8 0xFFFFFFFFFFFFFFFF DUP2 GT ISZERO PUSH2 0x3DE1 JUMPI PUSH2 0x3DE0 PUSH2 0x3985 JUMP JUMPDEST JUMPDEST PUSH2 0x3DED DUP10 DUP3 DUP11 ADD PUSH2 0x3D04 JUMP JUMPDEST SWAP3 POP SWAP3 POP POP SWAP3 SWAP6 POP SWAP3 SWAP6 POP SWAP3 SWAP6 JUMP JUMPDEST PUSH32 0x4E487B7100000000000000000000000000000000000000000000000000000000 PUSH0 MSTORE PUSH1 0x41 PUSH1 0x4 MSTORE PUSH1 0x24 PUSH0 REVERT JUMPDEST PUSH2 0x3E32 DUP3 PUSH2 0x3B9C JUMP JUMPDEST DUP2 ADD DUP2 DUP2 LT PUSH8 0xFFFFFFFFFFFFFFFF DUP3 GT OR ISZERO PUSH2 0x3E51 JUMPI PUSH2 0x3E50 PUSH2 0x3DFC JUMP JUMPDEST JUMPDEST DUP1 PUSH1 0x40 MSTORE POP POP POP JUMP JUMPDEST PUSH0 PUSH2 0x3E63 PUSH2 0x3978 JUMP JUMPDEST SWAP1 POP PUSH2 0x3E6F DUP3 DUP3 PUSH2 0x3E29 JUMP JUMPDEST SWAP2 SWAP1 POP JUMP JUMPDEST PUSH0 PUSH8 0xFFFFFFFFFFFFFFFF DUP3 GT ISZERO PUSH2 0x3E8E JUMPI PUSH2 0x3E8D PUSH2 0x3DFC JUMP JUMPDEST JUMPDEST PUSH1 0x20 DUP3 MUL SWAP1 POP PUSH1 0x20 DUP2 ADD SWAP1 POP SWAP2 SWAP1 POP JUMP JUMPDEST PUSH0 PUSH2 0x3EB1 PUSH2 0x3EAC DUP5 PUSH2 0x3E74 JUMP JUMPDEST PUSH2 0x3E5A JUMP JUMPDEST SWAP1 POP DUP1 DUP4 DUP3 MSTORE PUSH1 0x20 DUP3 ADD SWAP1 POP PUSH1 0x20 DUP5 MUL DUP4 ADD DUP6 DUP2 GT ISZERO PUSH2 0x3ED4 JUMPI PUSH2 0x3ED3 PUSH2 0x3CAB JUMP JUMPDEST JUMPDEST DUP4 JUMPDEST DUP2 DUP2 LT ISZERO PUSH2 0x3EFD JUMPI DUP1 PUSH2 0x3EE9 DUP9 DUP3 PUSH2 0x3A02 JUMP JUMPDEST DUP5 MSTORE PUSH1 0x20 DUP5 ADD SWAP4 POP POP PUSH1 0x20 DUP2 ADD SWAP1 POP PUSH2 0x3ED6 JUMP JUMPDEST POP POP POP SWAP4 SWAP3 POP POP POP JUMP JUMPDEST PUSH0 DUP3 PUSH1 0x1F DUP4 ADD SLT PUSH2 0x3F1B JUMPI PUSH2 0x3F1A PUSH2 0x3CA3 JUMP JUMPDEST JUMPDEST DUP2 CALLDATALOAD PUSH2 0x3F2B DUP5 DUP3 PUSH1 0x20 DUP7 ADD PUSH2 0x3E9F JUMP JUMPDEST SWAP2 POP POP SWAP3 SWAP2 POP POP JUMP JUMPDEST PUSH0 DUP1 REVERT JUMPDEST PUSH0 PUSH8 0xFFFFFFFFFFFFFFFF DUP3 GT ISZERO PUSH2 0x3F52 JUMPI PUSH2 0x3F51 PUSH2 0x3DFC JUMP JUMPDEST JUMPDEST PUSH2 0x3F5B DUP3 PUSH2 0x3B9C JUMP JUMPDEST SWAP1 POP PUSH1 0x20 DUP2 ADD SWAP1 POP SWAP2 SWAP1 POP JUMP JUMPDEST DUP3 DUP2 DUP4 CALLDATACOPY PUSH0 DUP4 DUP4 ADD MSTORE POP POP POP JUMP JUMPDEST PUSH0 PUSH2 0x3F88 PUSH2 0x3F83 DUP5 PUSH2 0x3F38 JUMP JUMPDEST PUSH2 0x3E5A JUMP JUMPDEST SWAP1 POP DUP3 DUP2 MSTORE PUSH1 0x20 DUP2 ADD DUP5 DUP5 DUP5 ADD GT ISZERO PUSH2 0x3FA4 JUMPI PUSH2 0x3FA3 PUSH2 0x3F34 JUMP JUMPDEST JUMPDEST PUSH2 0x3FAF DUP5 DUP3 DUP6 PUSH2 0x3F68 JUMP JUMPDEST POP SWAP4 SWAP3 POP POP POP JUMP JUMPDEST PUSH0 DUP3 PUSH1 0x1F DUP4 ADD SLT PUSH2 0x3FCB JUMPI PUSH2 0x3FCA PUSH2 0x3CA3 JUMP JUMPDEST JUMPDEST DUP2 CALLDATALOAD PUSH2 0x3FDB DUP5 DUP3 PUSH1 0x20 DUP7 ADD PUSH2 0x3F76 JUMP JUMPDEST SWAP2 POP POP SWAP3 SWAP2 POP POP JUMP JUMPDEST PUSH0 DUP1 PUSH0 DUP1 PUSH0 PUSH1 0xA0 DUP7 DUP9 SUB SLT ISZERO PUSH2 0x3FFD JUMPI PUSH2 0x3FFC PUSH2 0x3981 JUMP JUMPDEST JUMPDEST PUSH0 PUSH2 0x400A DUP9 DUP3 DUP10 ADD PUSH2 0x39CF JUMP JUMPDEST SWAP6 POP POP PUSH1 0x20 PUSH2 0x401B DUP9 DUP3 DUP10 ADD PUSH2 0x39CF JUMP JUMPDEST SWAP5 POP POP PUSH1 0x40 DUP7 ADD CALLDATALOAD PUSH8 0xFFFFFFFFFFFFFFFF DUP2 GT ISZERO PUSH2 0x403C JUMPI PUSH2 0x403B PUSH2 0x3985 JUMP JUMPDEST JUMPDEST PUSH2 0x4048 DUP9 DUP3 DUP10 ADD PUSH2 0x3F07 JUMP JUMPDEST SWAP4 POP POP PUSH1 0x60 DUP7 ADD CALLDATALOAD PUSH8 0xFFFFFFFFFFFFFFFF DUP2 GT ISZERO PUSH2 0x4069 JUMPI PUSH2 0x4068 PUSH2 0x3985 JUMP JUMPDEST JUMPDEST PUSH2 0x4075 DUP9 DUP3 DUP10 ADD PUSH2 0x3F07 JUMP JUMPDEST SWAP3 POP POP PUSH1 0x80 DUP7 ADD CALLDATALOAD PUSH8 0xFFFFFFFFFFFFFFFF DUP2 GT ISZERO PUSH2 0x4096 JUMPI PUSH2 0x4095 PUSH2 0x3985 JUMP JUMPDEST JUMPDEST PUSH2 0x40A2 DUP9 DUP3 DUP10 ADD PUSH2 0x3FB7 JUMP JUMPDEST SWAP2 POP POP SWAP3 SWAP6 POP SWAP3 SWAP6 SWAP1 SWAP4 POP JUMP JUMPDEST PUSH0 DUP2 MLOAD SWAP1 POP SWAP2 SWAP1 POP JUMP JUMPDEST PUSH0 DUP3 DUP3 MSTORE PUSH1 0x20 DUP3 ADD SWAP1 POP SWAP3 SWAP2 POP POP JUMP JUMPDEST PUSH0 DUP2 SWAP1 POP PUSH1 0x20 DUP3 ADD SWAP1 POP SWAP2 SWAP1 POP JUMP JUMPDEST PUSH2 0x40E1 DUP2 PUSH2 0x39A8 JUMP JUMPDEST DUP3 MSTORE POP POP JUMP JUMPDEST PUSH0 PUSH2 0x40F2 DUP4 DUP4 PUSH2 0x40D8 JUMP JUMPDEST PUSH1 0x20 DUP4 ADD SWAP1 POP SWAP3 SWAP2 POP POP JUMP JUMPDEST PUSH0 PUSH1 0x20 DUP3 ADD SWAP1 POP SWAP2 SWAP1 POP JUMP JUMPDEST PUSH0 PUSH2 0x4114 DUP3 PUSH2 0x40AF JUMP JUMPDEST PUSH2 0x411E DUP2 DUP6 PUSH2 0x40B9 JUMP JUMPDEST SWAP4 POP PUSH2 0x4129 DUP4 PUSH2 0x40C9 JUMP JUMPDEST DUP1 PUSH0 JUMPDEST DUP4 DUP2 LT ISZERO PUSH2 0x4159 JUMPI DUP2 MLOAD PUSH2 0x4140 DUP9 DUP3 PUSH2 0x40E7 JUMP JUMPDEST SWAP8 POP PUSH2 0x414B DUP4 PUSH2 0x40FE JUMP JUMPDEST SWAP3 POP POP PUSH1 0x1 DUP2 ADD SWAP1 POP PUSH2 0x412C JUMP JUMPDEST POP DUP6 SWAP4 POP POP POP POP SWAP3 SWAP2 POP POP JUMP JUMPDEST PUSH0 PUSH1 0x20 DUP3 ADD SWAP1 POP DUP2 DUP2 SUB PUSH0 DUP4 ADD MSTORE PUSH2 0x417E DUP2 DUP5 PUSH2 0x410A JUMP JUMPDEST SWAP1 POP SWAP3 SWAP2 POP POP JUMP JUMPDEST PUSH0 PUSH8 0xFFFFFFFFFFFFFFFF DUP3 GT ISZERO PUSH2 0x41A0 JUMPI PUSH2 0x419F PUSH2 0x3DFC JUMP JUMPDEST JUMPDEST PUSH1 0x20 DUP3 MUL SWAP1 POP PUSH1 0x20 DUP2 ADD SWAP1 POP SWAP2 SWAP1 POP JUMP JUMPDEST PUSH0 PUSH2 0x41C3 PUSH2 0x41BE DUP5 PUSH2 0x4186 JUMP JUMPDEST PUSH2 0x3E5A JUMP JUMPDEST SWAP1 POP DUP1 DUP4 DUP3 MSTORE PUSH1 0x20 DUP3 ADD SWAP1 POP PUSH1 0x20 DUP5 MUL DUP4 ADD DUP6 DUP2 GT ISZERO PUSH2 0x41E6 JUMPI PUSH2 0x41E5 PUSH2 0x3CAB JUMP JUMPDEST JUMPDEST DUP4 JUMPDEST DUP2 DUP2 LT ISZERO PUSH2 0x420F JUMPI DUP1 PUSH2 0x41FB DUP9 DUP3 PUSH2 0x39CF JUMP JUMPDEST DUP5 MSTORE PUSH1 0x20 DUP5 ADD SWAP4 POP POP PUSH1 0x20 DUP2 ADD SWAP1 POP PUSH2 0x41E8 JUMP JUMPDEST POP POP POP SWAP4 SWAP3 POP POP POP JUMP JUMPDEST PUSH0 DUP3 PUSH1 0x1F DUP4 ADD SLT PUSH2 0x422D JUMPI PUSH2 0x422C PUSH2 0x3CA3 JUMP JUMPDEST JUMPDEST DUP2 CALLDATALOAD PUSH2 0x423D DUP5 DUP3 PUSH1 0x20 DUP7 ADD PUSH2 0x41B1 JUMP JUMPDEST SWAP2 POP POP SWAP3 SWAP2 POP POP JUMP JUMPDEST PUSH0 DUP1 PUSH1 0x40 DUP4 DUP6 SUB SLT ISZERO PUSH2 0x425C JUMPI PUSH2 0x425B PUSH2 0x3981 JUMP JUMPDEST JUMPDEST PUSH0 DUP4 ADD CALLDATALOAD PUSH8 0xFFFFFFFFFFFFFFFF DUP2 GT ISZERO PUSH2 0x4279 JUMPI PUSH2 0x4278 PUSH2 0x3985 JUMP JUMPDEST JUMPDEST PUSH2 0x4285 DUP6 DUP3 DUP7 ADD PUSH2 0x4219 JUMP JUMPDEST SWAP3 POP POP PUSH1 0x20 DUP4 ADD CALLDATALOAD PUSH8 0xFFFFFFFFFFFFFFFF DUP2 GT ISZERO PUSH2 0x42A6 JUMPI PUSH2 0x42A5 PUSH2 0x3985 JUMP JUMPDEST JUMPDEST PUSH2 0x42B2 DUP6 DUP3 DUP7 ADD PUSH2 0x3F07 JUMP JUMPDEST SWAP2 POP POP SWAP3 POP SWAP3 SWAP1 POP JUMP JUMPDEST PUSH0 DUP2 MLOAD SWAP1 POP SWAP2 SWAP1 POP JUMP JUMPDEST PUSH0 DUP3 DUP3 MSTORE PUSH1 0x20 DUP3 ADD SWAP1 POP SWAP3 SWAP2 POP POP JUMP JUMPDEST PUSH0 DUP2 SWAP1 POP PUSH1 0x20 DUP3 ADD SWAP1 POP SWAP2 SWAP1 POP JUMP JUMPDEST PUSH2 0x42EE DUP2 PUSH2 0x39E3 JUMP JUMPDEST DUP3 MSTORE POP POP JUMP JUMPDEST PUSH0 PUSH2 0x42FF DUP4 DUP4 PUSH2 0x42E5 JUMP JUMPDEST PUSH1 0x20 DUP4 ADD SWAP1 POP SWAP3 SWAP2 POP POP JUMP JUMPDEST PUSH0 PUSH1 0x20 DUP3 ADD SWAP1 POP SWAP2 SWAP1 POP JUMP JUMPDEST PUSH0 PUSH2 0x4321 DUP3 PUSH2 0x42BC JUMP JUMPDEST PUSH2 0x432B DUP2 DUP6 PUSH2 0x42C6 JUMP JUMPDEST SWAP4 POP PUSH2 0x4336 DUP4 PUSH2 0x42D6 JUMP JUMPDEST DUP1 PUSH0 JUMPDEST DUP4 DUP2 LT ISZERO PUSH2 0x4366 JUMPI DUP2 MLOAD PUSH2 0x434D DUP9 DUP3 PUSH2 0x42F4 JUMP JUMPDEST SWAP8 POP PUSH2 0x4358 DUP4 PUSH2 0x430B JUMP JUMPDEST SWAP3 POP POP PUSH1 0x1 DUP2 ADD SWAP1 POP PUSH2 0x4339 JUMP JUMPDEST POP DUP6 SWAP4 POP POP POP POP SWAP3 SWAP2 POP POP JUMP JUMPDEST PUSH0 PUSH1 0x20 DUP3 ADD SWAP1 POP DUP2 DUP2 SUB PUSH0 DUP4 ADD MSTORE PUSH2 0x438B DUP2 DUP5 PUSH2 0x4317 JUMP JUMPDEST SWAP1 POP SWAP3 SWAP2 POP POP JUMP JUMPDEST PUSH0 PUSH8 0xFFFFFFFFFFFFFFFF DUP3 AND SWAP1 POP SWAP2 SWAP1 POP JUMP JUMPDEST PUSH2 0x43AF DUP2 PUSH2 0x4393 JUMP JUMPDEST DUP2 EQ PUSH2 0x43B9 JUMPI PUSH0 DUP1 REVERT JUMPDEST POP JUMP JUMPDEST PUSH0 DUP2 CALLDATALOAD SWAP1 POP PUSH2 0x43CA DUP2 PUSH2 0x43A6 JUMP JUMPDEST SWAP3 SWAP2 POP POP JUMP JUMPDEST PUSH0 DUP1 PUSH1 0x40 DUP4 DUP6 SUB SLT ISZERO PUSH2 0x43E6 JUMPI PUSH2 0x43E5 PUSH2 0x3981 JUMP JUMPDEST JUMPDEST PUSH0 PUSH2 0x43F3 DUP6 DUP3 DUP7 ADD PUSH2 0x3A02 JUMP JUMPDEST SWAP3 POP POP PUSH1 0x20 PUSH2 0x4404 DUP6 DUP3 DUP7 ADD PUSH2 0x43BC JUMP JUMPDEST SWAP2 POP POP SWAP3 POP SWAP3 SWAP1 POP JUMP JUMPDEST PUSH0 DUP1 PUSH0 PUSH1 0x60 DUP5 DUP7 SUB SLT ISZERO PUSH2 0x4425 JUMPI PUSH2 0x4424 PUSH2 0x3981 JUMP JUMPDEST JUMPDEST PUSH0 PUSH2 0x4432 DUP7 DUP3 DUP8 ADD PUSH2 0x3A02 JUMP JUMPDEST SWAP4 POP POP PUSH1 0x20 PUSH2 0x4443 DUP7 DUP3 DUP8 ADD PUSH2 0x39CF JUMP JUMPDEST SWAP3 POP POP PUSH1 0x40 PUSH2 0x4454 DUP7 DUP3 DUP8 ADD PUSH2 0x43BC JUMP JUMPDEST SWAP2 POP POP SWAP3 POP SWAP3 POP SWAP3 JUMP JUMPDEST PUSH0 PUSH1 0x60 DUP3 ADD SWAP1 POP DUP2 DUP2 SUB PUSH0 DUP4 ADD MSTORE PUSH2 0x4476 DUP2 DUP7 PUSH2 0x3BAC JUMP JUMPDEST SWAP1 POP DUP2 DUP2 SUB PUSH1 0x20 DUP4 ADD MSTORE PUSH2 0x448A DUP2 DUP6 PUSH2 0x3BAC JUMP JUMPDEST SWAP1 POP DUP2 DUP2 SUB PUSH1 0x40 DUP4 ADD MSTORE PUSH2 0x449E DUP2 DUP5 PUSH2 0x3BAC JUMP JUMPDEST SWAP1 POP SWAP5 SWAP4 POP POP POP POP JUMP JUMPDEST PUSH0 PUSH2 0x44B2 DUP3 PUSH2 0x39A8 JUMP JUMPDEST SWAP1 POP SWAP2 SWAP1 POP JUMP JUMPDEST PUSH2 0x44C2 DUP2 PUSH2 0x44A8 JUMP JUMPDEST DUP2 EQ PUSH2 0x44CC JUMPI PUSH0 DUP1 REVERT JUMPDEST POP JUMP JUMPDEST PUSH0 DUP2 CALLDATALOAD SWAP1 POP PUSH2 0x44DD DUP2 PUSH2 0x44B9 JUMP JUMPDEST SWAP3 SWAP2 POP POP JUMP JUMPDEST PUSH0 DUP1 REVERT JUMPDEST PUSH0 PUSH1 0x60 DUP3 DUP5 SUB SLT ISZERO PUSH2 0x44FC JUMPI PUSH2 0x44FB PUSH2 0x44E3 JUMP JUMPDEST JUMPDEST DUP2 SWAP1 POP SWAP3 SWAP2 POP POP JUMP JUMPDEST PUSH0 DUP1 PUSH0 DUP1 PUSH0 DUP1 PUSH0 DUP1 PUSH0 DUP1 PUSH1 0xE0 DUP12 DUP14 SUB SLT ISZERO PUSH2 0x4523 JUMPI PUSH2 0x4522 PUSH2 0x3981 JUMP JUMPDEST JUMPDEST PUSH0 PUSH2 0x4530 DUP14 DUP3 DUP15 ADD PUSH2 0x43BC JUMP JUMPDEST SWAP11 POP POP PUSH1 0x20 DUP12 ADD CALLDATALOAD PUSH8 0xFFFFFFFFFFFFFFFF DUP2 GT ISZERO PUSH2 0x4551 JUMPI PUSH2 0x4550 PUSH2 0x3985 JUMP JUMPDEST JUMPDEST PUSH2 0x455D DUP14 DUP3 DUP15 ADD PUSH2 0x3D04 JUMP JUMPDEST SWAP10 POP SWAP10 POP POP PUSH1 0x40 PUSH2 0x4570 DUP14 DUP3 DUP15 ADD PUSH2 0x44CF JUMP JUMPDEST SWAP8 POP POP PUSH1 0x60 DUP12 ADD CALLDATALOAD PUSH8 0xFFFFFFFFFFFFFFFF DUP2 GT ISZERO PUSH2 0x4591 JUMPI PUSH2 0x4590 PUSH2 0x3985 JUMP JUMPDEST JUMPDEST PUSH2 0x459D DUP14 DUP3 DUP15 ADD PUSH2 0x3CAF JUMP JUMPDEST SWAP7 POP SWAP7 POP POP PUSH1 0x80 PUSH2 0x45B0 DUP14 DUP3 DUP15 ADD PUSH2 0x3A02 JUMP JUMPDEST SWAP5 POP POP PUSH1 0xA0 DUP12 ADD CALLDATALOAD PUSH8 0xFFFFFFFFFFFFFFFF DUP2 GT ISZERO PUSH2 0x45D1 JUMPI PUSH2 0x45D0 PUSH2 0x3985 JUMP JUMPDEST JUMPDEST PUSH2 0x45DD DUP14 DUP3 DUP15 ADD PUSH2 0x3D04 JUMP JUMPDEST SWAP4 POP SWAP4 POP POP PUSH1 0xC0 DUP12 ADD CALLDATALOAD PUSH8 0xFFFFFFFFFFFFFFFF DUP2 GT ISZERO PUSH2 0x4600 JUMPI PUSH2 0x45FF PUSH2 0x3985 JUMP JUMPDEST JUMPDEST PUSH2 0x460C DUP14 DUP3 DUP15 ADD PUSH2 0x44E7 JUMP JUMPDEST SWAP2 POP POP SWAP3 SWAP6 SWAP9 SWAP12 SWAP2 SWAP5 SWAP8 SWAP11 POP SWAP3 SWAP6 SWAP9 POP JUMP JUMPDEST PUSH2 0x4627 DUP2 PUSH2 0x39A8 JUMP JUMPDEST DUP3 MSTORE POP POP JUMP JUMPDEST PUSH0 PUSH1 0x20 DUP3 ADD SWAP1 POP PUSH2 0x4640 PUSH0 DUP4 ADD DUP5 PUSH2 0x461E JUMP JUMPDEST SWAP3 SWAP2 POP POP JUMP JUMPDEST PUSH2 0x464F DUP2 PUSH2 0x3AFC JUMP JUMPDEST DUP2 EQ PUSH2 0x4659 JUMPI PUSH0 DUP1 REVERT JUMPDEST POP JUMP JUMPDEST PUSH0 DUP2 CALLDATALOAD SWAP1 POP PUSH2 0x466A DUP2 PUSH2 0x4646 JUMP JUMPDEST SWAP3 SWAP2 POP POP JUMP JUMPDEST PUSH0 DUP1 PUSH1 0x40 DUP4 DUP6 SUB SLT ISZERO PUSH2 0x4686 JUMPI PUSH2 0x4685 PUSH2 0x3981 JUMP JUMPDEST JUMPDEST PUSH0 PUSH2 0x4693 DUP6 DUP3 DUP7 ADD PUSH2 0x39CF JUMP JUMPDEST SWAP3 POP POP PUSH1 0x20 PUSH2 0x46A4 DUP6 DUP3 DUP7 ADD PUSH2 0x465C JUMP JUMPDEST SWAP2 POP POP SWAP3 POP SWAP3 SWAP1 POP JUMP JUMPDEST PUSH0 DUP1 PUSH1 0x40 DUP4 DUP6 SUB SLT ISZERO PUSH2 0x46C4 JUMPI PUSH2 0x46C3 PUSH2 0x3981 JUMP JUMPDEST JUMPDEST PUSH0 PUSH2 0x46D1 DUP6 DUP3 DUP7 ADD PUSH2 0x3A02 JUMP JUMPDEST SWAP3 POP POP PUSH1 0x20 PUSH2 0x46E2 DUP6 DUP3 DUP7 ADD PUSH2 0x39CF JUMP JUMPDEST SWAP2 POP POP SWAP3 POP SWAP3 SWAP1 POP JUMP JUMPDEST PUSH0 DUP2 MLOAD SWAP1 POP SWAP2 SWAP1 POP JUMP JUMPDEST PUSH0 DUP3 DUP3 MSTORE PUSH1 0x20 DUP3 ADD SWAP1 POP SWAP3 SWAP2 POP POP JUMP JUMPDEST PUSH0 DUP2 SWAP1 POP PUSH1 0x20 DUP3 ADD SWAP1 POP SWAP2 SWAP1 POP JUMP JUMPDEST PUSH2 0x471E DUP2 PUSH2 0x4393 JUMP JUMPDEST DUP3 MSTORE POP POP JUMP JUMPDEST PUSH0 PUSH2 0x472F DUP4 DUP4 PUSH2 0x4715 JUMP JUMPDEST PUSH1 0x20 DUP4 ADD SWAP1 POP SWAP3 SWAP2 POP POP JUMP JUMPDEST PUSH0 PUSH1 0x20 DUP3 ADD SWAP1 POP SWAP2 SWAP1 POP JUMP JUMPDEST PUSH0 PUSH2 0x4751 DUP3 PUSH2 0x46EC JUMP JUMPDEST PUSH2 0x475B DUP2 DUP6 PUSH2 0x46F6 JUMP JUMPDEST SWAP4 POP PUSH2 0x4766 DUP4 PUSH2 0x4706 JUMP JUMPDEST DUP1 PUSH0 JUMPDEST DUP4 DUP2 LT ISZERO PUSH2 0x4796 JUMPI DUP2 MLOAD PUSH2 0x477D DUP9 DUP3 PUSH2 0x4724 JUMP JUMPDEST SWAP8 POP PUSH2 0x4788 DUP4 PUSH2 0x473B JUMP JUMPDEST SWAP3 POP POP PUSH1 0x1 DUP2 ADD SWAP1 POP PUSH2 0x4769 JUMP JUMPDEST POP DUP6 SWAP4 POP POP POP POP SWAP3 SWAP2 POP POP JUMP JUMPDEST PUSH0 DUP2 MLOAD SWAP1 POP SWAP2 SWAP1 POP JUMP JUMPDEST PUSH0 DUP3 DUP3 MSTORE PUSH1 0x20 DUP3 ADD SWAP1 POP SWAP3 SWAP2 POP POP JUMP JUMPDEST PUSH0 DUP2 SWAP1 POP PUSH1 0x20 DUP3 ADD SWAP1 POP SWAP2 SWAP1 POP JUMP JUMPDEST PUSH0 DUP3 DUP3 MSTORE PUSH1 0x20 DUP3 ADD SWAP1 POP SWAP3 SWAP2 POP POP JUMP JUMPDEST PUSH0 PUSH2 0x47E6 DUP3 PUSH2 0x3B5A JUMP JUMPDEST PUSH2 0x47F0 DUP2 DUP6 PUSH2 0x47CC JUMP JUMPDEST SWAP4 POP PUSH2 0x4800 DUP2 DUP6 PUSH1 0x20 DUP7 ADD PUSH2 0x3B74 JUMP JUMPDEST PUSH2 0x4809 DUP2 PUSH2 0x3B9C JUMP JUMPDEST DUP5 ADD SWAP2 POP POP SWAP3 SWAP2 POP POP JUMP JUMPDEST PUSH0 PUSH1 0x60 DUP4 ADD PUSH0 DUP4 ADD MLOAD DUP5 DUP3 SUB PUSH0 DUP7 ADD MSTORE PUSH2 0x482E DUP3 DUP3 PUSH2 0x47DC JUMP JUMPDEST SWAP2 POP POP PUSH1 0x20 DUP4 ADD MLOAD DUP5 DUP3 SUB PUSH1 0x20 DUP7 ADD MSTORE PUSH2 0x4848 DUP3 DUP3 PUSH2 0x47DC JUMP JUMPDEST SWAP2 POP POP PUSH1 0x40 DUP4 ADD MLOAD DUP5 DUP3 SUB PUSH1 0x40 DUP7 ADD MSTORE PUSH2 0x4862 DUP3 DUP3 PUSH2 0x47DC JUMP JUMPDEST SWAP2 POP POP DUP1 SWAP2 POP POP SWAP3 SWAP2 POP POP JUMP JUMPDEST PUSH0 PUSH2 0x487A DUP4 DUP4 PUSH2 0x4814 JUMP JUMPDEST SWAP1 POP SWAP3 SWAP2 POP POP JUMP JUMPDEST PUSH0 PUSH1 0x20 DUP3 ADD SWAP1 POP SWAP2 SWAP1 POP JUMP JUMPDEST PUSH0 PUSH2 0x4898 DUP3 PUSH2 0x47A3 JUMP JUMPDEST PUSH2 0x48A2 DUP2 DUP6 PUSH2 0x47AD JUMP JUMPDEST SWAP4 POP DUP4 PUSH1 0x20 DUP3 MUL DUP6 ADD PUSH2 0x48B4 DUP6 PUSH2 0x47BD JUMP JUMPDEST DUP1 PUSH0 JUMPDEST DUP6 DUP2 LT ISZERO PUSH2 0x48EF JUMPI DUP5 DUP5 SUB DUP10 MSTORE DUP2 MLOAD PUSH2 0x48D0 DUP6 DUP3 PUSH2 0x486F JUMP JUMPDEST SWAP5 POP PUSH2 0x48DB DUP4 PUSH2 0x4882 JUMP JUMPDEST SWAP3 POP PUSH1 0x20 DUP11 ADD SWAP10 POP POP PUSH1 0x1 DUP2 ADD SWAP1 POP PUSH2 0x48B7 JUMP JUMPDEST POP DUP3 SWAP8 POP DUP8 SWAP6 POP POP POP POP POP POP SWAP3 SWAP2 POP POP JUMP JUMPDEST PUSH0 PUSH1 0x40 DUP3 ADD SWAP1 POP DUP2 DUP2 SUB PUSH0 DUP4 ADD MSTORE PUSH2 0x4919 DUP2 DUP6 PUSH2 0x4747 JUMP JUMPDEST SWAP1 POP DUP2 DUP2 SUB PUSH1 0x20 DUP4 ADD MSTORE PUSH2 0x492D DUP2 DUP5 PUSH2 0x488E JUMP JUMPDEST SWAP1 POP SWAP4 SWAP3 POP POP POP JUMP JUMPDEST PUSH2 0x493F DUP2 PUSH2 0x4393 JUMP JUMPDEST DUP3 MSTORE POP POP JUMP JUMPDEST PUSH0 PUSH1 0x20 DUP3 ADD SWAP1 POP PUSH2 0x4958 PUSH0 DUP4 ADD DUP5 PUSH2 0x4936 JUMP JUMPDEST SWAP3 SWAP2 POP POP JUMP JUMPDEST PUSH0 DUP1 PUSH1 0x40 DUP4 DUP6 SUB SLT ISZERO PUSH2 0x4974 JUMPI PUSH2 0x4973 PUSH2 0x3981 JUMP JUMPDEST JUMPDEST PUSH0 PUSH2 0x4981 DUP6 DUP3 DUP7 ADD PUSH2 0x39CF JUMP JUMPDEST SWAP3 POP POP PUSH1 0x20 PUSH2 0x4992 DUP6 DUP3 DUP7 ADD PUSH2 0x39CF JUMP JUMPDEST SWAP2 POP POP SWAP3 POP SWAP3 SWAP1 POP JUMP JUMPDEST PUSH0 DUP1 PUSH0 DUP1 PUSH0 PUSH1 0xA0 DUP7 DUP9 SUB SLT ISZERO PUSH2 0x49B5 JUMPI PUSH2 0x49B4 PUSH2 0x3981 JUMP JUMPDEST JUMPDEST PUSH0 PUSH2 0x49C2 DUP9 DUP3 DUP10 ADD PUSH2 0x39CF JUMP JUMPDEST SWAP6 POP POP PUSH1 0x20 PUSH2 0x49D3 DUP9 DUP3 DUP10 ADD PUSH2 0x39CF JUMP JUMPDEST SWAP5 POP POP PUSH1 0x40 PUSH2 0x49E4 DUP9 DUP3 DUP10 ADD PUSH2 0x3A02 JUMP JUMPDEST SWAP4 POP POP PUSH1 0x60 PUSH2 0x49F5 DUP9 DUP3 DUP10 ADD PUSH2 0x3A02 JUMP JUMPDEST SWAP3 POP POP PUSH1 0x80 DUP7 ADD CALLDATALOAD PUSH8 0xFFFFFFFFFFFFFFFF DUP2 GT ISZERO PUSH2 0x4A16 JUMPI PUSH2 0x4A15 PUSH2 0x3985 JUMP JUMPDEST JUMPDEST PUSH2 0x4A22 DUP9 DUP3 DUP10 ADD PUSH2 0x3FB7 JUMP JUMPDEST SWAP2 POP POP SWAP3 SWAP6 POP SWAP3 SWAP6 SWAP1 SWAP4 POP JUMP JUMPDEST PUSH0 DUP1 PUSH0 PUSH1 0x60 DUP5 DUP7 SUB SLT ISZERO PUSH2 0x4A46 JUMPI PUSH2 0x4A45 PUSH2 0x3981 JUMP JUMPDEST JUMPDEST PUSH0 PUSH2 0x4A53 DUP7 DUP3 DUP8 ADD PUSH2 0x39CF JUMP JUMPDEST SWAP4 POP POP PUSH1 0x20 PUSH2 0x4A64 DUP7 DUP3 DUP8 ADD PUSH2 0x3A02 JUMP JUMPDEST SWAP3 POP POP PUSH1 0x40 PUSH2 0x4A75 DUP7 DUP3 DUP8 ADD PUSH2 0x3A02 JUMP JUMPDEST SWAP2 POP POP SWAP3 POP SWAP3 POP SWAP3 JUMP JUMPDEST PUSH32 0x4E487B7100000000000000000000000000000000000000000000000000000000 PUSH0 MSTORE PUSH1 0x22 PUSH1 0x4 MSTORE PUSH1 0x24 PUSH0 REVERT JUMPDEST PUSH0 PUSH1 0x2 DUP3 DIV SWAP1 POP PUSH1 0x1 DUP3 AND DUP1 PUSH2 0x4AC3 JUMPI PUSH1 0x7F DUP3 AND SWAP2 POP JUMPDEST PUSH1 0x20 DUP3 LT DUP2 SUB PUSH2 0x4AD6 JUMPI PUSH2 0x4AD5 PUSH2 0x4A7F JUMP JUMPDEST JUMPDEST POP SWAP2 SWAP1 POP JUMP JUMPDEST PUSH32 0x4E487B7100000000000000000000000000000000000000000000000000000000 PUSH0 MSTORE PUSH1 0x32 PUSH1 0x4 MSTORE PUSH1 0x24 PUSH0 REVERT JUMPDEST PUSH32 0x4E487B7100000000000000000000000000000000000000000000000000000000 PUSH0 MSTORE PUSH1 0x11 PUSH1 0x4 MSTORE PUSH1 0x24 PUSH0 REVERT JUMPDEST PUSH0 PUSH2 0x4B40 DUP3 PUSH2 0x39E3 JUMP JUMPDEST SWAP2 POP PUSH2 0x4B4B DUP4 PUSH2 0x39E3 JUMP JUMPDEST SWAP3 POP DUP3 DUP3 SUB SWAP1 POP DUP2 DUP2 GT ISZERO PUSH2 0x4B63 JUMPI PUSH2 0x4B62 PUSH2 0x4B09 JUMP JUMPDEST JUMPDEST SWAP3 SWAP2 POP POP JUMP JUMPDEST PUSH32 0x4E487B7100000000000000000000000000000000000000000000000000000000 PUSH0 MSTORE PUSH1 0x31 PUSH1 0x4 MSTORE PUSH1 0x24 PUSH0 REVERT JUMPDEST PUSH0 PUSH2 0x4BA0 DUP3 PUSH2 0x39E3 JUMP JUMPDEST SWAP2 POP PUSH32 0xFFFFFFFFFFFFFFFFFFFFFFFFFFFFFFFFFFFFFFFFFFFFFFFFFFFFFFFFFFFFFFFF DUP3 SUB PUSH2 0x4BD2 JUMPI PUSH2 0x4BD1 PUSH2 0x4B09 JUMP JUMPDEST JUMPDEST PUSH1 0x1 DUP3 ADD SWAP1 POP SWAP2 SWAP1 POP JUMP JUMPDEST PUSH32 0x41646D696E206E6F7420666F756E640000000000000000000000000000000000 PUSH0 DUP3 ADD MSTORE POP JUMP JUMPDEST PUSH0 PUSH2 0x4C11 PUSH1 0xF DUP4 PUSH2 0x3B64 JUMP JUMPDEST SWAP2 POP PUSH2 0x4C1C DUP3 PUSH2 0x4BDD JUMP JUMPDEST PUSH1 0x20 DUP3 ADD SWAP1 POP SWAP2 SWAP1 POP JUMP JUMPDEST PUSH0 PUSH1 0x20 DUP3 ADD SWAP1 POP DUP2 DUP2 SUB PUSH0 DUP4 ADD MSTORE PUSH2 0x4C3E DUP2 PUSH2 0x4C05 JUMP JUMPDEST SWAP1 POP SWAP2 SWAP1 POP JUMP JUMPDEST PUSH32 0x4E616D6520726571756972656400000000000000000000000000000000000000 PUSH0 DUP3 ADD MSTORE POP JUMP JUMPDEST PUSH0 PUSH2 0x4C79 PUSH1 0xD DUP4 PUSH2 0x3B64 JUMP JUMPDEST SWAP2 POP PUSH2 0x4C84 DUP3 PUSH2 0x4C45 JUMP JUMPDEST PUSH1 0x20 DUP3 ADD SWAP1 POP SWAP2 SWAP1 POP JUMP JUMPDEST PUSH0 PUSH1 0x20 DUP3 ADD SWAP1 POP DUP2 DUP2 SUB PUSH0 DUP4 ADD MSTORE PUSH2 0x4CA6 DUP2 PUSH2 0x4C6D JUMP JUMPDEST SWAP1 POP SWAP2 SWAP1 POP JUMP JUMPDEST PUSH0 DUP2 SWAP1 POP SWAP3 SWAP2 POP POP JUMP JUMPDEST PUSH0 PUSH2 0x4CC2 DUP4 DUP6 PUSH2 0x4CAD JUMP JUMPDEST SWAP4 POP PUSH2 0x4CCF DUP4 DUP6 DUP5 PUSH2 0x3F68 JUMP JUMPDEST DUP3 DUP5 ADD SWAP1 POP SWAP4 SWAP3 POP POP POP JUMP JUMPDEST PUSH0 PUSH2 0x4CE7 DUP3 DUP5 DUP7 PUSH2 0x4CB7 JUMP JUMPDEST SWAP2 POP DUP2 SWAP1 POP SWAP4 SWAP3 POP POP POP JUMP JUMPDEST PUSH0 DUP2 SWAP1 POP DUP2 PUSH0 MSTORE PUSH1 0x20 PUSH0 KECCAK256 SWAP1 POP SWAP2 SWAP1 POP JUMP JUMPDEST PUSH0 DUP2 SLOAD PUSH2 0x4D11 DUP2 PUSH2 0x4AAC JUMP JUMPDEST PUSH2 0x4D1B DUP2 DUP7 PUSH2 0x4CAD JUMP JUMPDEST SWAP5 POP PUSH1 0x1 DUP3 AND PUSH0 DUP2 EQ PUSH2 0x4D35 JUMPI PUSH1 0x1 DUP2 EQ PUSH2 0x4D4A JUMPI PUSH2 0x4D7C JUMP JUMPDEST PUSH1 0xFF NOT DUP4 AND DUP7 MSTORE DUP2 ISZERO ISZERO DUP3 MUL DUP7 ADD SWAP4 POP PUSH2 0x4D7C JUMP JUMPDEST PUSH2 0x4D53 DUP6 PUSH2 0x4CF3 JUMP JUMPDEST PUSH0 JUMPDEST DUP4 DUP2 LT ISZERO PUSH2 0x4D74 JUMPI DUP2 SLOAD DUP2 DUP10 ADD MSTORE PUSH1 0x1 DUP3 ADD SWAP2 POP PUSH1 0x20 DUP2 ADD SWAP1 POP PUSH2 0x4D55 JUMP JUMPDEST DUP4 DUP9 ADD SWAP6 POP POP POP JUMPDEST POP POP POP SWAP3 SWAP2 POP POP JUMP JUMPDEST PUSH0 PUSH2 0x4D90 DUP3 DUP5 PUSH2 0x4D05 JUMP JUMPDEST SWAP2 POP DUP2 SWAP1 POP SWAP3 SWAP2 POP POP JUMP JUMPDEST PUSH0 DUP2 SWAP1 POP SWAP2 SWAP1 POP JUMP JUMPDEST PUSH2 0x4DB5 PUSH2 0x4DB0 DUP3 PUSH2 0x39E3 JUMP JUMPDEST PUSH2 0x4D9B JUMP JUMPDEST DUP3 MSTORE POP POP JUMP JUMPDEST PUSH0 DUP2 PUSH1 0x60 SHL SWAP1 POP SWAP2 SWAP1 POP JUMP JUMPDEST PUSH0 PUSH2 0x4DD1 DUP3 PUSH2 0x4DBB JUMP JUMPDEST SWAP1 POP SWAP2 SWAP1 POP JUMP JUMPDEST PUSH0 PUSH2 0x4DE2 DUP3 PUSH2 0x4DC7 JUMP JUMPDEST SWAP1 POP SWAP2 SWAP1 POP JUMP JUMPDEST PUSH2 0x4DFA PUSH2 0x4DF5 DUP3 PUSH2 0x39A8 JUMP JUMPDEST PUSH2 0x4DD8 JUMP JUMPDEST DUP3 MSTORE POP POP JUMP JUMPDEST PUSH0 DUP2 SWAP1 POP SWAP3 SWAP2 POP POP JUMP JUMPDEST PUSH0 PUSH2 0x4E15 DUP4 DUP6 PUSH2 0x4E00 JUMP JUMPDEST SWAP4 POP PUSH2 0x4E22 DUP4 DUP6 DUP5 PUSH2 0x3F68 JUMP JUMPDEST DUP3 DUP5 ADD SWAP1 POP SWAP4 SWAP3 POP POP POP JUMP JUMPDEST PUSH0 PUSH2 0x4E39 DUP3 DUP10 PUSH2 0x4DA4 JUMP JUMPDEST PUSH1 0x20 DUP3 ADD SWAP2 POP PUSH2 0x4E49 DUP3 DUP9 PUSH2 0x4DA4 JUMP JUMPDEST PUSH1 0x20 DUP3 ADD SWAP2 POP PUSH2 0x4E59 DUP3 DUP8 PUSH2 0x4DE9 JUMP JUMPDEST PUSH1 0x14 DUP3 ADD SWAP2 POP PUSH2 0x4E6A DUP3 DUP6 DUP8 PUSH2 0x4E0A JUMP JUMPDEST SWAP2 POP PUSH2 0x4E76 DUP3 DUP5 PUSH2 0x4DA4 JUMP JUMPDEST PUSH1 0x20 DUP3 ADD SWAP2 POP DUP2 SWAP1 POP SWAP8 SWAP7 POP POP POP POP POP POP POP JUMP JUMPDEST PUSH32 0x4E487B7100000000000000000000000000000000000000000000000000000000 PUSH0 MSTORE PUSH1 0x12 PUSH1 0x4 MSTORE PUSH1 0x24 PUSH0 REVERT JUMPDEST PUSH0 PUSH2 0x4EC1 DUP3 PUSH2 0x39E3 JUMP JUMPDEST SWAP2 POP PUSH2 0x4ECC DUP4 PUSH2 0x39E3 JUMP JUMPDEST SWAP3 POP DUP3 PUSH2 0x4EDC JUMPI PUSH2 0x4EDB PUSH2 0x4E8A JUMP JUMPDEST JUMPDEST DUP3 DUP3 MOD SWAP1 POP SWAP3 SWAP2 POP POP JUMP JUMPDEST PUSH0 PUSH2 0x4EF1 DUP3 PUSH2 0x39E3 JUMP JUMPDEST SWAP2 POP PUSH2 0x4EFC DUP4 PUSH2 0x39E3 JUMP JUMPDEST SWAP3 POP DUP3 DUP3 ADD SWAP1 POP DUP1 DUP3 GT ISZERO PUSH2 0x4F14 JUMPI PUSH2 0x4F13 PUSH2 0x4B09 JUMP JUMPDEST JUMPDEST SWAP3 SWAP2 POP POP JUMP JUMPDEST PUSH32 0x556E61626C6520746F2066696E6420756E697175652073686F727420746F6B65 PUSH0 DUP3 ADD MSTORE PUSH32 0x6E20494400000000000000000000000000000000000000000000000000000000 PUSH1 0x20 DUP3 ADD MSTORE POP JUMP JUMPDEST PUSH0 PUSH2 0x4F74 PUSH1 0x24 DUP4 PUSH2 0x3B64 JUMP JUMPDEST SWAP2 POP PUSH2 0x4F7F DUP3 PUSH2 0x4F1A JUMP JUMPDEST PUSH1 0x40 DUP3 ADD SWAP1 POP SWAP2 SWAP1 POP JUMP JUMPDEST PUSH0 PUSH1 0x20 DUP3 ADD SWAP1 POP DUP2 DUP2 SUB PUSH0 DUP4 ADD MSTORE PUSH2 0x4FA1 DUP2 PUSH2 0x4F68 JUMP JUMPDEST SWAP1 POP SWAP2 SWAP1 POP JUMP JUMPDEST PUSH32 0x546F6B656E494454616B656E0000000000000000000000000000000000000000 PUSH0 DUP3 ADD MSTORE POP JUMP JUMPDEST PUSH0 PUSH2 0x4FDC PUSH1 0xC DUP4 PUSH2 0x3B64 JUMP JUMPDEST SWAP2 POP PUSH2 0x4FE7 DUP3 PUSH2 0x4FA8 JUMP JUMPDEST PUSH1 0x20 DUP3 ADD SWAP1 POP SWAP2 SWAP1 POP JUMP JUMPDEST PUSH0 PUSH1 0x20 DUP3 ADD SWAP1 POP DUP2 DUP2 SUB PUSH0 DUP4 ADD MSTORE PUSH2 0x5009 DUP2 PUSH2 0x4FD0 JUMP JUMPDEST SWAP1 POP SWAP2 SWAP1 POP JUMP JUMPDEST PUSH0 DUP3 SWAP1 POP SWAP3 SWAP2 POP POP JUMP JUMPDEST PUSH0 DUP2 SWAP1 POP DUP2 PUSH0 MSTORE PUSH1 0x20 PUSH0 KECCAK256 SWAP1 POP SWAP2 SWAP1 POP JUMP JUMPDEST PUSH0 PUSH1 0x20 PUSH1 0x1F DUP4 ADD DIV SWAP1 POP SWAP2 SWAP1 POP JUMP JUMPDEST PUSH0 DUP3 DUP3 SHL SWAP1 POP SWAP3 SWAP2 POP POP JUMP JUMPDEST PUSH0 PUSH1 0x8 DUP4 MUL PUSH2 0x5076 PUSH32 0xFFFFFFFFFFFFFFFFFFFFFFFFFFFFFFFFFFFFFFFFFFFFFFFFFFFFFFFFFFFFFFFF DUP3 PUSH2 0x503B JUMP JUMPDEST PUSH2 0x5080 DUP7 DUP4 PUSH2 0x503B JUMP JUMPDEST SWAP6 POP DUP1 NOT DUP5 AND SWAP4 POP DUP1 DUP7 AND DUP5 OR SWAP3 POP POP POP SWAP4 SWAP3 POP POP POP JUMP JUMPDEST PUSH0 PUSH2 0x50B2 PUSH2 0x50AD PUSH2 0x50A8 DUP5 PUSH2 0x39E3 JUMP JUMPDEST PUSH2 0x3C2F JUMP JUMPDEST PUSH2 0x39E3 JUMP JUMPDEST SWAP1 POP SWAP2 SWAP1 POP JUMP JUMPDEST PUSH0 DUP2 SWAP1 POP SWAP2 SWAP1 POP JUMP JUMPDEST PUSH2 0x50CB DUP4 PUSH2 0x5098 JUMP JUMPDEST PUSH2 0x50DF PUSH2 0x50D7 DUP3 PUSH2 0x50B9 JUMP JUMPDEST DUP5 DUP5 SLOAD PUSH2 0x5047 JUMP JUMPDEST DUP3 SSTORE POP POP POP POP JUMP JUMPDEST PUSH0 SWAP1 JUMP JUMPDEST PUSH2 0x50F3 PUSH2 0x50E7 JUMP JUMPDEST PUSH2 0x50FE DUP2 DUP5 DUP5 PUSH2 0x50C2 JUMP JUMPDEST POP POP POP JUMP JUMPDEST JUMPDEST DUP2 DUP2 LT ISZERO PUSH2 0x5121 JUMPI PUSH2 0x5116 PUSH0 DUP3 PUSH2 0x50EB JUMP JUMPDEST PUSH1 0x1 DUP2 ADD SWAP1 POP PUSH2 0x5104 JUMP JUMPDEST POP POP JUMP JUMPDEST PUSH1 0x1F DUP3 GT ISZERO PUSH2 0x5166 JUMPI PUSH2 0x5137 DUP2 PUSH2 0x501A JUMP JUMPDEST PUSH2 0x5140 DUP5 PUSH2 0x502C JUMP JUMPDEST DUP2 ADD PUSH1 0x20 DUP6 LT ISZERO PUSH2 0x514F JUMPI DUP2 SWAP1 POP JUMPDEST PUSH2 0x5163 PUSH2 0x515B DUP6 PUSH2 0x502C JUMP JUMPDEST DUP4 ADD DUP3 PUSH2 0x5103 JUMP JUMPDEST POP POP JUMPDEST POP POP POP JUMP JUMPDEST PUSH0 DUP3 DUP3 SHR SWAP1 POP SWAP3 SWAP2 POP POP JUMP JUMPDEST PUSH0 PUSH2 0x5186 PUSH0 NOT DUP5 PUSH1 0x8 MUL PUSH2 0x516B JUMP JUMPDEST NOT DUP1 DUP4 AND SWAP2 POP POP SWAP3 SWAP2 POP POP JUMP JUMPDEST PUSH0 PUSH2 0x519E DUP4 DUP4 PUSH2 0x5177 JUMP JUMPDEST SWAP2 POP DUP3 PUSH1 0x2 MUL DUP3 OR SWAP1 POP SWAP3 SWAP2 POP POP JUMP JUMPDEST PUSH2 0x51B8 DUP4 DUP4 PUSH2 0x5010 JUMP JUMPDEST PUSH8 0xFFFFFFFFFFFFFFFF DUP2 GT ISZERO PUSH2 0x51D1 JUMPI PUSH2 0x51D0 PUSH2 0x3DFC JUMP JUMPDEST JUMPDEST PUSH2 0x51DB DUP3 SLOAD PUSH2 0x4AAC JUMP JUMPDEST PUSH2 0x51E6 DUP3 DUP3 DUP6 PUSH2 0x5125 JUMP JUMPDEST PUSH0 PUSH1 0x1F DUP4 GT PUSH1 0x1 DUP2 EQ PUSH2 0x5213 JUMPI PUSH0 DUP5 ISZERO PUSH2 0x5201 JUMPI DUP3 DUP8 ADD CALLDATALOAD SWAP1 POP JUMPDEST PUSH2 0x520B DUP6 DUP3 PUSH2 0x5193 JUMP JUMPDEST DUP7 SSTORE POP PUSH2 0x5272 JUMP JUMPDEST PUSH1 0x1F NOT DUP5 AND PUSH2 0x5221 DUP7 PUSH2 0x501A JUMP JUMPDEST PUSH0 JUMPDEST DUP3 DUP2 LT ISZERO PUSH2 0x5248 JUMPI DUP5 DUP10 ADD CALLDATALOAD DUP3 SSTORE PUSH1 0x1 DUP3 ADD SWAP2 POP PUSH1 0x20 DUP6 ADD SWAP5 POP PUSH1 0x20 DUP2 ADD SWAP1 POP PUSH2 0x5223 JUMP JUMPDEST DUP7 DUP4 LT ISZERO PUSH2 0x5265 JUMPI DUP5 DUP10 ADD CALLDATALOAD PUSH2 0x5261 PUSH1 0x1F DUP10 AND DUP3 PUSH2 0x5177 JUMP JUMPDEST DUP4 SSTORE POP JUMPDEST PUSH1 0x1 PUSH1 0x2 DUP9 MUL ADD DUP9 SSTORE POP POP POP JUMPDEST POP POP POP POP POP POP POP JUMP JUMPDEST PUSH32 0x455243313135353A204D69736D617463686564206172726179206C656E677468 PUSH0 DUP3 ADD MSTORE PUSH32 0x7300000000000000000000000000000000000000000000000000000000000000 PUSH1 0x20 DUP3 ADD MSTORE POP JUMP JUMPDEST PUSH0 PUSH2 0x52D5 PUSH1 0x21 DUP4 PUSH2 0x3B64 JUMP JUMPDEST SWAP2 POP PUSH2 0x52E0 DUP3 PUSH2 0x527B JUMP JUMPDEST PUSH1 0x40 DUP3 ADD SWAP1 POP SWAP2 SWAP1 POP JUMP JUMPDEST PUSH0 PUSH1 0x20 DUP3 ADD SWAP1 POP DUP2 DUP2 SUB PUSH0 DUP4 ADD MSTORE PUSH2 0x5302 DUP2 PUSH2 0x52C9 JUMP JUMPDEST SWAP1 POP SWAP2 SWAP1 POP JUMP JUMPDEST PUSH32 0x455243313135353A207472616E7366657220746F20746865207A65726F206164 PUSH0 DUP3 ADD MSTORE PUSH32 0x6472657373000000000000000000000000000000000000000000000000000000 PUSH1 0x20 DUP3 ADD MSTORE POP JUMP JUMPDEST PUSH0 PUSH2 0x5363 PUSH1 0x25 DUP4 PUSH2 0x3B64 JUMP JUMPDEST SWAP2 POP PUSH2 0x536E DUP3 PUSH2 0x5309 JUMP JUMPDEST PUSH1 0x40 DUP3 ADD SWAP1 POP SWAP2 SWAP1 POP JUMP JUMPDEST PUSH0 PUSH1 0x20 DUP3 ADD SWAP1 POP DUP2 DUP2 SUB PUSH0 DUP4 ADD MSTORE PUSH2 0x5390 DUP2 PUSH2 0x5357 JUMP JUMPDEST SWAP1 POP SWAP2 SWAP1 POP JUMP JUMPDEST PUSH0 PUSH1 0x40 DUP3 ADD SWAP1 POP PUSH2 0x53AA PUSH0 DUP4 ADD DUP6 PUSH2 0x3A54 JUMP JUMPDEST PUSH2 0x53B7 PUSH1 0x20 DUP4 ADD DUP5 PUSH2 0x3A54 JUMP JUMPDEST SWAP4 SWAP3 POP POP POP JUMP JUMPDEST PUSH32 0x746F6B656E20696420646F6573206E6F74206578697374000000000000000000 PUSH0 DUP3 ADD MSTORE POP JUMP JUMPDEST PUSH0 PUSH2 0x53F2 PUSH1 0x17 DUP4 PUSH2 0x3B64 JUMP JUMPDEST SWAP2 POP PUSH2 0x53FD DUP3 PUSH2 0x53BE JUMP JUMPDEST PUSH1 0x20 DUP3 ADD SWAP1 POP SWAP2 SWAP1 POP JUMP JUMPDEST PUSH0 PUSH1 0x20 DUP3 ADD SWAP1 POP DUP2 DUP2 SUB PUSH0 DUP4 ADD MSTORE PUSH2 0x541F DUP2 PUSH2 0x53E6 JUMP JUMPDEST SWAP1 POP SWAP2 SWAP1 POP JUMP JUMPDEST PUSH32 0x50726F6F66207265717565737420646F6573206E6F7420657869737400000000 PUSH0 DUP3 ADD MSTORE POP JUMP JUMPDEST PUSH0 PUSH2 0x545A PUSH1 0x1C DUP4 PUSH2 0x3B64 JUMP JUMPDEST SWAP2 POP PUSH2 0x5465 DUP3 PUSH2 0x5426 JUMP JUMPDEST PUSH1 0x20 DUP3 ADD SWAP1 POP SWAP2 SWAP1 POP JUMP JUMPDEST PUSH0 PUSH1 0x20 DUP3 ADD SWAP1 POP DUP2 DUP2 SUB PUSH0 DUP4 ADD MSTORE PUSH2 0x5487 DUP2 PUSH2 0x544E JUMP JUMPDEST SWAP1 POP SWAP2 SWAP1 POP JUMP JUMPDEST PUSH32 0x4E6F207370656E64696E6720636F6E646974696F6E20746F2064656C65746500 PUSH0 DUP3 ADD MSTORE POP JUMP JUMPDEST PUSH0 PUSH2 0x54C2 PUSH1 0x1F DUP4 PUSH2 0x3B64 JUMP JUMPDEST SWAP2 POP PUSH2 0x54CD DUP3 PUSH2 0x548E JUMP JUMPDEST PUSH1 0x20 DUP3 ADD SWAP1 POP SWAP2 SWAP1 POP JUMP JUMPDEST PUSH0 PUSH1 0x20 DUP3 ADD SWAP1 POP DUP2 DUP2 SUB PUSH0 DUP4 ADD MSTORE PUSH2 0x54EF DUP2 PUSH2 0x54B6 JUMP JUMPDEST SWAP1 POP SWAP2 SWAP1 POP JUMP JUMPDEST PUSH32 0x496E76616C696420616464726573730000000000000000000000000000000000 PUSH0 DUP3 ADD MSTORE POP JUMP JUMPDEST PUSH0 PUSH2 0x552A PUSH1 0xF DUP4 PUSH2 0x3B64 JUMP JUMPDEST SWAP2 POP PUSH2 0x5535 DUP3 PUSH2 0x54F6 JUMP JUMPDEST PUSH1 0x20 DUP3 ADD SWAP1 POP SWAP2 SWAP1 POP JUMP JUMPDEST PUSH0 PUSH1 0x20 DUP3 ADD SWAP1 POP DUP2 DUP2 SUB PUSH0 DUP4 ADD MSTORE PUSH2 0x5557 DUP2 PUSH2 0x551E JUMP JUMPDEST SWAP1 POP SWAP2 SWAP1 POP JUMP JUMPDEST PUSH32 0x4164647265737320697320616C726561647920616E2061646D696E0000000000 PUSH0 DUP3 ADD MSTORE POP JUMP JUMPDEST PUSH0 PUSH2 0x5592 PUSH1 0x1B DUP4 PUSH2 0x3B64 JUMP JUMPDEST SWAP2 POP PUSH2 0x559D DUP3 PUSH2 0x555E JUMP JUMPDEST PUSH1 0x20 DUP3 ADD SWAP1 POP SWAP2 SWAP1 POP JUMP JUMPDEST PUSH0 PUSH1 0x20 DUP3 ADD SWAP1 POP DUP2 DUP2 SUB PUSH0 DUP4 ADD MSTORE PUSH2 0x55BF DUP2 PUSH2 0x5586 JUMP JUMPDEST SWAP1 POP SWAP2 SWAP1 POP JUMP JUMPDEST PUSH32 0x4F6E6C79206D6F6E6579206F776E65722063616E20616464207370656E64696E PUSH0 DUP3 ADD MSTORE PUSH32 0x6720636F6E646974696F6E2E0000000000000000000000000000000000000000 PUSH1 0x20 DUP3 ADD MSTORE POP JUMP JUMPDEST PUSH0 PUSH2 0x5620 PUSH1 0x2C DUP4 PUSH2 0x3B64 JUMP JUMPDEST SWAP2 POP PUSH2 0x562B DUP3 PUSH2 0x55C6 JUMP JUMPDEST PUSH1 0x40 DUP3 ADD SWAP1 POP SWAP2 SWAP1 POP JUMP JUMPDEST PUSH0 PUSH1 0x20 DUP3 ADD SWAP1 POP DUP2 DUP2 SUB PUSH0 DUP4 ADD MSTORE PUSH2 0x564D DUP2 PUSH2 0x5614 JUMP JUMPDEST SWAP1 POP SWAP2 SWAP1 POP JUMP JUMPDEST PUSH0 PUSH2 0x565E DUP3 PUSH2 0x3C59 JUMP JUMPDEST SWAP1 POP SWAP2 SWAP1 POP JUMP JUMPDEST PUSH2 0x566E DUP2 PUSH2 0x5654 JUMP JUMPDEST DUP3 MSTORE POP POP JUMP JUMPDEST PUSH0 DUP2 MLOAD SWAP1 POP SWAP2 SWAP1 POP JUMP JUMPDEST PUSH0 DUP3 DUP3 MSTORE PUSH1 0x20 DUP3 ADD SWAP1 POP SWAP3 SWAP2 POP POP JUMP JUMPDEST PUSH0 PUSH2 0x5698 DUP3 PUSH2 0x5674 JUMP JUMPDEST PUSH2 0x56A2 DUP2 DUP6 PUSH2 0x567E JUMP JUMPDEST SWAP4 POP PUSH2 0x56B2 DUP2 DUP6 PUSH1 0x20 DUP7 ADD PUSH2 0x3B74 JUMP JUMPDEST PUSH2 0x56BB DUP2 PUSH2 0x3B9C JUMP JUMPDEST DUP5 ADD SWAP2 POP POP SWAP3 SWAP2 POP POP JUMP JUMPDEST PUSH0 PUSH1 0x60 DUP4 ADD PUSH0 DUP4 ADD MLOAD DUP5 DUP3 SUB PUSH0 DUP7 ADD MSTORE PUSH2 0x56E0 DUP3 DUP3 PUSH2 0x47DC JUMP JUMPDEST SWAP2 POP POP PUSH1 0x20 DUP4 ADD MLOAD PUSH2 0x56F5 PUSH1 0x20 DUP7 ADD DUP3 PUSH2 0x5665 JUMP JUMPDEST POP PUSH1 0x40 DUP4 ADD MLOAD DUP5 DUP3 SUB PUSH1 0x40 DUP7 ADD MSTORE PUSH2 0x570D DUP3 DUP3 PUSH2 0x568E JUMP JUMPDEST SWAP2 POP POP DUP1 SWAP2 POP POP SWAP3 SWAP2 POP POP JUMP JUMPDEST PUSH0 PUSH1 0x40 DUP3 ADD SWAP1 POP PUSH2 0x572D PUSH0 DUP4 ADD DUP6 PUSH2 0x4936 JUMP JUMPDEST DUP2 DUP2 SUB PUSH1 0x20 DUP4 ADD MSTORE PUSH2 0x573F DUP2 DUP5 PUSH2 0x56C6 JUMP JUMPDEST SWAP1 POP SWAP4 SWAP3 POP POP POP JUMP JUMPDEST PUSH0 DUP1 REVERT JUMPDEST PUSH0 DUP1 REVERT JUMPDEST PUSH0 DUP1 REVERT JUMPDEST PUSH0 DUP1 DUP4 CALLDATALOAD PUSH1 0x1 PUSH1 0x20 SUB DUP5 CALLDATASIZE SUB SUB DUP2 SLT PUSH2 0x5770 JUMPI PUSH2 0x576F PUSH2 0x5748 JUMP JUMPDEST JUMPDEST DUP1 DUP5 ADD SWAP3 POP DUP3 CALLDATALOAD SWAP2 POP PUSH8 0xFFFFFFFFFFFFFFFF DUP3 GT ISZERO PUSH2 0x5792 JUMPI PUSH2 0x5791 PUSH2 0x574C JUMP JUMPDEST JUMPDEST PUSH1 0x20 DUP4 ADD SWAP3 POP PUSH1 0x1 DUP3 MUL CALLDATASIZE SUB DUP4 SGT ISZERO PUSH2 0x57AE JUMPI PUSH2 0x57AD PUSH2 0x5750 JUMP JUMPDEST JUMPDEST POP SWAP3 POP SWAP3 SWAP1 POP JUMP JUMPDEST PUSH2 0x57BF DUP3 PUSH2 0x3B5A JUMP JUMPDEST PUSH8 0xFFFFFFFFFFFFFFFF DUP2 GT ISZERO PUSH2 0x57D8 JUMPI PUSH2 0x57D7 PUSH2 0x3DFC JUMP JUMPDEST JUMPDEST PUSH2 0x57E2 DUP3 SLOAD PUSH2 0x4AAC JUMP JUMPDEST PUSH2 0x57ED DUP3 DUP3 DUP6 PUSH2 0x5125 JUMP JUMPDEST PUSH0 PUSH1 0x20 SWAP1 POP PUSH1 0x1F DUP4 GT PUSH1 0x1 DUP2 EQ PUSH2 0x581E JUMPI PUSH0 DUP5 ISZERO PUSH2 0x580C JUMPI DUP3 DUP8 ADD MLOAD SWAP1 POP JUMPDEST PUSH2 0x5816 DUP6 DUP3 PUSH2 0x5193 JUMP JUMPDEST DUP7 SSTORE POP PUSH2 0x587D JUMP JUMPDEST PUSH1 0x1F NOT DUP5 AND PUSH2 0x582C DUP7 PUSH2 0x501A JUMP JUMPDEST PUSH0 JUMPDEST DUP3 DUP2 LT ISZERO PUSH2 0x5853 JUMPI DUP5 DUP10 ADD MLOAD DUP3 SSTORE PUSH1 0x1 DUP3 ADD SWAP2 POP PUSH1 0x20 DUP6 ADD SWAP5 POP PUSH1 0x20 DUP2 ADD SWAP1 POP PUSH2 0x582E JUMP JUMPDEST DUP7 DUP4 LT ISZERO PUSH2 0x5870 JUMPI DUP5 DUP10 ADD MLOAD PUSH2 0x586C PUSH1 0x1F DUP10 AND DUP3 PUSH2 0x5177 JUMP JUMPDEST DUP4 SSTORE POP JUMPDEST PUSH1 0x1 PUSH1 0x2 DUP9 MUL ADD DUP9 SSTORE POP POP POP JUMPDEST POP POP POP POP POP POP JUMP JUMPDEST PUSH0 PUSH1 0x40 DUP3 ADD SWAP1 POP PUSH2 0x5898 PUSH0 DUP4 ADD DUP6 PUSH2 0x461E JUMP JUMPDEST PUSH2 0x58A5 PUSH1 0x20 DUP4 ADD DUP5 PUSH2 0x4936 JUMP JUMPDEST SWAP4 SWAP3 POP POP POP JUMP JUMPDEST PUSH0 DUP1 REVERT JUMPDEST PUSH0 DUP1 REVERT JUMPDEST PUSH0 DUP2 MLOAD SWAP1 POP PUSH2 0x58C2 DUP2 PUSH2 0x4646 JUMP JUMPDEST SWAP3 SWAP2 POP POP JUMP JUMPDEST PUSH0 PUSH8 0xFFFFFFFFFFFFFFFF DUP3 GT ISZERO PUSH2 0x58E2 JUMPI PUSH2 0x58E1 PUSH2 0x3DFC JUMP JUMPDEST JUMPDEST PUSH2 0x58EB DUP3 PUSH2 0x3B9C JUMP JUMPDEST SWAP1 POP PUSH1 0x20 DUP2 ADD SWAP1 POP SWAP2 SWAP1 POP JUMP JUMPDEST PUSH0 PUSH2 0x590A PUSH2 0x5905 DUP5 PUSH2 0x58C8 JUMP JUMPDEST PUSH2 0x3E5A JUMP JUMPDEST SWAP1 POP DUP3 DUP2 MSTORE PUSH1 0x20 DUP2 ADD DUP5 DUP5 DUP5 ADD GT ISZERO PUSH2 0x5926 JUMPI PUSH2 0x5925 PUSH2 0x3F34 JUMP JUMPDEST JUMPDEST PUSH2 0x5931 DUP5 DUP3 DUP6 PUSH2 0x3B74 JUMP JUMPDEST POP SWAP4 SWAP3 POP POP POP JUMP JUMPDEST PUSH0 DUP3 PUSH1 0x1F DUP4 ADD SLT PUSH2 0x594D JUMPI PUSH2 0x594C PUSH2 0x3CA3 JUMP JUMPDEST JUMPDEST DUP2 MLOAD PUSH2 0x595D DUP5 DUP3 PUSH1 0x20 DUP7 ADD PUSH2 0x58F8 JUMP JUMPDEST SWAP2 POP POP SWAP3 SWAP2 POP POP JUMP JUMPDEST PUSH0 DUP2 MLOAD SWAP1 POP PUSH2 0x5974 DUP2 PUSH2 0x39EC JUMP JUMPDEST SWAP3 SWAP2 POP POP JUMP JUMPDEST PUSH0 PUSH1 0x80 DUP3 DUP5 SUB SLT ISZERO PUSH2 0x598F JUMPI PUSH2 0x598E PUSH2 0x58AC JUMP JUMPDEST JUMPDEST PUSH2 0x5999 PUSH1 0x80 PUSH2 0x3E5A JUMP JUMPDEST SWAP1 POP PUSH0 PUSH2 0x59A8 DUP5 DUP3 DUP6 ADD PUSH2 0x58B4 JUMP JUMPDEST PUSH0 DUP4 ADD MSTORE POP PUSH1 0x20 DUP3 ADD MLOAD PUSH8 0xFFFFFFFFFFFFFFFF DUP2 GT ISZERO PUSH2 0x59CB JUMPI PUSH2 0x59CA PUSH2 0x58B0 JUMP JUMPDEST JUMPDEST PUSH2 0x59D7 DUP5 DUP3 DUP6 ADD PUSH2 0x5939 JUMP JUMPDEST PUSH1 0x20 DUP4 ADD MSTORE POP PUSH1 0x40 PUSH2 0x59EB DUP5 DUP3 DUP6 ADD PUSH2 0x5966 JUMP JUMPDEST PUSH1 0x40 DUP4 ADD MSTORE POP PUSH1 0x60 PUSH2 0x59FF DUP5 DUP3 DUP6 ADD PUSH2 0x5966 JUMP JUMPDEST PUSH1 0x60 DUP4 ADD MSTORE POP SWAP3 SWAP2 POP POP JUMP JUMPDEST PUSH0 PUSH1 0x20 DUP3 DUP5 SUB SLT ISZERO PUSH2 0x5A20 JUMPI PUSH2 0x5A1F PUSH2 0x3981 JUMP JUMPDEST JUMPDEST PUSH0 DUP3 ADD MLOAD PUSH8 0xFFFFFFFFFFFFFFFF DUP2 GT ISZERO PUSH2 0x5A3D JUMPI PUSH2 0x5A3C PUSH2 0x3985 JUMP JUMPDEST JUMPDEST PUSH2 0x5A49 DUP5 DUP3 DUP6 ADD PUSH2 0x597A JUMP JUMPDEST SWAP2 POP POP SWAP3 SWAP2 POP POP JUMP JUMPDEST PUSH0 PUSH1 0x40 DUP3 ADD SWAP1 POP PUSH2 0x5A65 PUSH0 DUP4 ADD DUP6 PUSH2 0x4936 JUMP JUMPDEST PUSH2 0x5A72 PUSH1 0x20 DUP4 ADD DUP5 PUSH2 0x461E JUMP JUMPDEST SWAP4 SWAP3 POP POP POP JUMP JUMPDEST PUSH32 0x50726F6F66207265717565737420616C72656164792065786973747300000000 PUSH0 DUP3 ADD MSTORE POP JUMP JUMPDEST PUSH0 PUSH2 0x5AAD PUSH1 0x1C DUP4 PUSH2 0x3B64 JUMP JUMPDEST SWAP2 POP PUSH2 0x5AB8 DUP3 PUSH2 0x5A79 JUMP JUMPDEST PUSH1 0x20 DUP3 ADD SWAP1 POP SWAP2 SWAP1 POP JUMP JUMPDEST PUSH0 PUSH1 0x20 DUP3 ADD SWAP1 POP DUP2 DUP2 SUB PUSH0 DUP4 ADD MSTORE PUSH2 0x5ADA DUP2 PUSH2 0x5AA1 JUMP JUMPDEST SWAP1 POP SWAP2 SWAP1 POP JUMP JUMPDEST PUSH32 0x526F6C65206D757374206265202773656E64657227206F722027726563656976 PUSH0 DUP3 ADD MSTORE PUSH32 0x6572270000000000000000000000000000000000000000000000000000000000 PUSH1 0x20 DUP3 ADD MSTORE POP JUMP JUMPDEST PUSH0 PUSH2 0x5B3B PUSH1 0x23 DUP4 PUSH2 0x3B64 JUMP JUMPDEST SWAP2 POP PUSH2 0x5B46 DUP3 PUSH2 0x5AE1 JUMP JUMPDEST PUSH1 0x40 DUP3 ADD SWAP1 POP SWAP2 SWAP1 POP JUMP JUMPDEST PUSH0 PUSH1 0x20 DUP3 ADD SWAP1 POP DUP2 DUP2 SUB PUSH0 DUP4 ADD MSTORE PUSH2 0x5B68 DUP2 PUSH2 0x5B2F JUMP JUMPDEST SWAP1 POP SWAP2 SWAP1 POP JUMP JUMPDEST PUSH0 PUSH1 0x40 DUP3 ADD SWAP1 POP PUSH2 0x5B82 PUSH0 DUP4 ADD DUP6 PUSH2 0x461E JUMP JUMPDEST PUSH2 0x5B8F PUSH1 0x20 DUP4 ADD DUP5 PUSH2 0x461E JUMP JUMPDEST SWAP4 SWAP3 POP POP POP JUMP JUMPDEST PUSH0 PUSH1 0x80 DUP3 ADD SWAP1 POP PUSH2 0x5BA9 PUSH0 DUP4 ADD DUP8 PUSH2 0x461E JUMP JUMPDEST PUSH2 0x5BB6 PUSH1 0x20 DUP4 ADD DUP7 PUSH2 0x3A54 JUMP JUMPDEST PUSH2 0x5BC3 PUSH1 0x40 DUP4 ADD DUP6 PUSH2 0x3A54 JUMP JUMPDEST PUSH2 0x5BD0 PUSH1 0x60 DUP4 ADD DUP5 PUSH2 0x3A54 JUMP JUMPDEST SWAP6 SWAP5 POP POP POP POP POP JUMP JUMPDEST PUSH0 PUSH1 0x40 DUP3 ADD SWAP1 POP DUP2 DUP2 SUB PUSH0 DUP4 ADD MSTORE PUSH2 0x5BF1 DUP2 DUP6 PUSH2 0x4317 JUMP JUMPDEST SWAP1 POP DUP2 DUP2 SUB PUSH1 0x20 DUP4 ADD MSTORE PUSH2 0x5C05 DUP2 DUP5 PUSH2 0x4317 JUMP JUMPDEST SWAP1 POP SWAP4 SWAP3 POP POP POP JUMP JUMPDEST PUSH0 DUP3 DUP3 MSTORE PUSH1 0x20 DUP3 ADD SWAP1 POP SWAP3 SWAP2 POP POP JUMP JUMPDEST PUSH0 PUSH2 0x5C28 DUP3 PUSH2 0x5674 JUMP JUMPDEST PUSH2 0x5C32 DUP2 DUP6 PUSH2 0x5C0E JUMP JUMPDEST SWAP4 POP PUSH2 0x5C42 DUP2 DUP6 PUSH1 0x20 DUP7 ADD PUSH2 0x3B74 JUMP JUMPDEST PUSH2 0x5C4B DUP2 PUSH2 0x3B9C JUMP JUMPDEST DUP5 ADD SWAP2 POP POP SWAP3 SWAP2 POP POP JUMP JUMPDEST PUSH0 PUSH1 0xA0 DUP3 ADD SWAP1 POP PUSH2 0x5C69 PUSH0 DUP4 ADD DUP9 PUSH2 0x461E JUMP JUMPDEST PUSH2 0x5C76 PUSH1 0x20 DUP4 ADD DUP8 PUSH2 0x461E JUMP JUMPDEST PUSH2 0x5C83 PUSH1 0x40 DUP4 ADD DUP7 PUSH2 0x3A54 JUMP JUMPDEST PUSH2 0x5C90 PUSH1 0x60 DUP4 ADD DUP6 PUSH2 0x3A54 JUMP JUMPDEST DUP2 DUP2 SUB PUSH1 0x80 DUP4 ADD MSTORE PUSH2 0x5CA2 DUP2 DUP5 PUSH2 0x5C1E JUMP JUMPDEST SWAP1 POP SWAP7 SWAP6 POP POP POP POP POP POP JUMP JUMPDEST PUSH0 DUP2 MLOAD SWAP1 POP PUSH2 0x5CBC DUP2 PUSH2 0x3AA7 JUMP JUMPDEST SWAP3 SWAP2 POP POP JUMP JUMPDEST PUSH0 PUSH1 0x20 DUP3 DUP5 SUB SLT ISZERO PUSH2 0x5CD7 JUMPI PUSH2 0x5CD6 PUSH2 0x3981 JUMP JUMPDEST JUMPDEST PUSH0 PUSH2 0x5CE4 DUP5 DUP3 DUP6 ADD PUSH2 0x5CAE JUMP JUMPDEST SWAP2 POP POP SWAP3 SWAP2 POP POP JUMP JUMPDEST PUSH0 PUSH1 0xA0 DUP3 ADD SWAP1 POP PUSH2 0x5D00 PUSH0 DUP4 ADD DUP9 PUSH2 0x461E JUMP JUMPDEST PUSH2 0x5D0D PUSH1 0x20 DUP4 ADD DUP8 PUSH2 0x461E JUMP JUMPDEST DUP2 DUP2 SUB PUSH1 0x40 DUP4 ADD MSTORE PUSH2 0x5D1F DUP2 DUP7 PUSH2 0x4317 JUMP JUMPDEST SWAP1 POP DUP2 DUP2 SUB PUSH1 0x60 DUP4 ADD MSTORE PUSH2 0x5D33 DUP2 DUP6 PUSH2 0x4317 JUMP JUMPDEST SWAP1 POP DUP2 DUP2 SUB PUSH1 0x80 DUP4 ADD MSTORE PUSH2 0x5D47 DUP2 DUP5 PUSH2 0x5C1E JUMP JUMPDEST SWAP1 POP SWAP7 SWAP6 POP POP POP POP POP POP JUMP INVALID LOG2 PUSH5 0x6970667358 0x22 SLT KECCAK256 CODESIZE EXTCODECOPY JUMPDEST PUSH30 0x50981EA4280F93C1503E262F50CCB14CA18DA4DCFE3D8A816062D70A6473 PUSH16 0x6C634300081400330000000000000000 "
	},
	"Assembly": ".code\n  PUSH 80\t\t\tcontract PMNoAdmin is ERC1155,...\n  PUSH 40\t\t\tcontract PMNoAdmin is ERC1155,...\n  MSTORE \t\t\tcontract PMNoAdmin is ERC1155,...\n  CALLVALUE \t\t\tuctor(UniversalVerifier verifi...\n  DUP1 \t\t\tuctor(UniversalVerifier verifi...\n  ISZERO \t\t\tuctor(UniversalVerifier verifi...\n  PUSH [tag] 1\t\t\tuctor(UniversalVerifier verifi...\n  JUMPI \t\t\tuctor(UniversalVerifier verifi...\n  PUSH 0\t\t\tuctor(UniversalVerifier verifi...\n  DUP1 \t\t\tuctor(UniversalVerifier verifi...\n  REVERT \t\t\tuctor(UniversalVerifier verifi...\ntag 1\t\t\tuctor(UniversalVerifier verifi...\n  JUMPDEST \t\t\tuctor(UniversalVerifier verifi...\n  POP \t\t\tuctor(UniversalVerifier verifi...\n  PUSH 40\t\t\tuctor(UniversalVerifier verifi...\n  MLOAD \t\t\tuctor(UniversalVerifier verifi...\n  PUSHSIZE \t\t\tuctor(UniversalVerifier verifi...\n  CODESIZE \t\t\tuctor(UniversalVerifier verifi...\n  SUB \t\t\tuctor(UniversalVerifier verifi...\n  DUP1 \t\t\tuctor(UniversalVerifier verifi...\n  PUSHSIZE \t\t\tuctor(UniversalVerifier verifi...\n  DUP4 \t\t\tuctor(UniversalVerifier verifi...\n  CODECOPY \t\t\tuctor(UniversalVerifier verifi...\n  DUP2 \t\t\tuctor(UniversalVerifier verifi...\n  DUP2 \t\t\tuctor(UniversalVerifier verifi...\n  ADD \t\t\tuctor(UniversalVerifier verifi...\n  PUSH 40\t\t\tuctor(UniversalVerifier verifi...\n  MSTORE \t\t\tuctor(UniversalVerifier verifi...\n  DUP2 \t\t\tuctor(UniversalVerifier verifi...\n  ADD \t\t\tuctor(UniversalVerifier verifi...\n  SWAP1 \t\t\tuctor(UniversalVerifier verifi...\n  PUSH [tag] 2\t\t\tuctor(UniversalVerifier verifi...\n  SWAP2 \t\t\tuctor(UniversalVerifier verifi...\n  SWAP1 \t\t\tuctor(UniversalVerifier verifi...\n  PUSH [tag] 3\t\t\tuctor(UniversalVerifier verifi...\n  JUMP \t\t\tuctor(UniversalVerifier verifi...\ntag 2\t\t\tuctor(UniversalVerifier verifi...\n  JUMPDEST \t\t\tuctor(UniversalVerifier verifi...\n  DUP2 \t\t\tlOwner)\\r\\n   \n  DUP2 \t\t\t\\n   \n  PUSH [tag] 8\t\t\tdmin address.\n  DUP2 \t\t\tress\n  PUSH [tag] 9\t\t\tdmin ad\n  PUSH 20\t\t\tdmin ad\n  SHL \t\t\tdmin ad\n  PUSH 20\t\t\tdmin address.\n  SHR \t\t\tdmin address.\n  JUMP \t\t\tdmin address.\ntag 8\t\t\tdmin address.\n  JUMPDEST \t\t\tdmin address.\n  POP \t\t\tlse;\\r\\n    }\\r\\n\\r\\n    // Fu...\n  PUSH 0\t\t\td\n  PUSH FFFFFFFFFFFFFFFFFFFFFFFFFFFFFFFFFFFFFFFF\t\t\tnction to add an admin add\n  AND \t\t\tnction to add an admin add\n  DUP2 \t\t\tnction to ad\n  PUSH FFFFFFFFFFFFFFFFFFFFFFFFFFFFFFFFFFFFFFFF\t\t\tnction to add an admin add\n  AND \t\t\tnction to add an admin add\n  SUB \t\t\tnction to add an admin add\n  PUSH [tag] 11\t\t\t/ Function to add an admin add...\n  JUMPI \t\t\t/ Function to add an admin add...\n  PUSH 0\t\t\tn\n  PUSH 40\t\t\tn add.\\r\\n    function addAdmi...\n  MLOAD \t\t\tn add.\\r\\n    function addAdmi...\n  PUSH 1E4FBDF700000000000000000000000000000000000000000000000000000000\t\t\tn add.\\r\\n    function addAdmi...\n  DUP2 \t\t\tn add.\\r\\n    function addAdmi...\n  MSTORE \t\t\tn add.\\r\\n    function addAdmi...\n  PUSH 4\t\t\tn add.\\r\\n    function addAdmi...\n  ADD \t\t\tn add.\\r\\n    function addAdmi...\n  PUSH [tag] 12\t\t\tn add.\\r\\n    function addAdmi...\n  SWAP2 \t\t\tn add.\\r\\n    function addAdmi...\n  SWAP1 \t\t\tn add.\\r\\n    function addAdmi...\n  PUSH [tag] 13\t\t\tn add.\\r\\n    function addAdmi...\n  JUMP \t\t\tn add.\\r\\n    function addAdmi...\ntag 12\t\t\tn add.\\r\\n    function addAdmi...\n  JUMPDEST \t\t\tn add.\\r\\n    function addAdmi...\n  PUSH 40\t\t\tn add.\\r\\n    function addAdmi...\n  MLOAD \t\t\tn add.\\r\\n    function addAdmi...\n  DUP1 \t\t\tn add.\\r\\n    function addAdmi...\n  SWAP2 \t\t\tn add.\\r\\n    function addAdmi...\n  SUB \t\t\tn add.\\r\\n    function addAdmi...\n  SWAP1 \t\t\tn add.\\r\\n    function addAdmi...\n  REVERT \t\t\tn add.\\r\\n    function addAdmi...\ntag 11\t\t\t/ Function to add an admin add...\n  JUMPDEST \t\t\t/ Function to add an admin add...\n  PUSH [tag] 14\t\t\tc onlyOwner {\\r\\n        requi...\n  DUP2 \t\t\t    require(\n  PUSH [tag] 15\t\t\tc onlyOwner {\\r\\n   \n  PUSH 20\t\t\tc onlyOwner {\\r\\n   \n  SHL \t\t\tc onlyOwner {\\r\\n   \n  PUSH 20\t\t\tc onlyOwner {\\r\\n        requi...\n  SHR \t\t\tc onlyOwner {\\r\\n        requi...\n  JUMP \t\t\tc onlyOwner {\\r\\n        requi...\ntag 14\t\t\tc onlyOwner {\\r\\n        requi...\n  JUMPDEST \t\t\tc onlyOwner {\\r\\n        requi...\n  POP \t\t\t    }\\r\\n        return false;...\n  DUP3 \t\t\ter_;\\r\\n   \n  PUSH B\t\t\ter = ver\n  PUSH 0\t\t\ter = ver\n  PUSH 100\t\t\ter = verifier_;\\r\\n   \n  EXP \t\t\ter = verifier_;\\r\\n   \n  DUP2 \t\t\ter = verifier_;\\r\\n   \n  SLOAD \t\t\ter = verifier_;\\r\\n   \n  DUP2 \t\t\ter = verifier_;\\r\\n   \n  PUSH FFFFFFFFFFFFFFFFFFFFFFFFFFFFFFFFFFFFFFFF\t\t\ter = verifier_;\\r\\n   \n  MUL \t\t\ter = verifier_;\\r\\n   \n  NOT \t\t\ter = verifier_;\\r\\n   \n  AND \t\t\ter = verifier_;\\r\\n   \n  SWAP1 \t\t\ter = verifier_;\\r\\n   \n  DUP4 \t\t\ter = verifier_;\\r\\n   \n  PUSH FFFFFFFFFFFFFFFFFFFFFFFFFFFFFFFFFFFFFFFF\t\t\ter = verifier_;\\r\\n   \n  AND \t\t\ter = verifier_;\\r\\n   \n  MUL \t\t\ter = verifier_;\\r\\n   \n  OR \t\t\ter = verifier_;\\r\\n   \n  SWAP1 \t\t\ter = verifier_;\\r\\n   \n  SSTORE \t\t\ter = verifier_;\\r\\n   \n  POP \t\t\ter = verifier_;\\r\\n   \n  POP \t\t\tuctor(UniversalVerifier verifi...\n  POP \t\t\tuctor(UniversalVerifier verifi...\n  POP \t\t\tuctor(UniversalVerifier verifi...\n  PUSH [tag] 17\t\t\tcontract PMNoAdmin is ERC1155,...\n  JUMP \t\t\tcontract PMNoAdmin is ERC1155,...\ntag 9\t\t\tokenID is still unverified.\\r\\...\n  JUMPDEST \t\t\tokenID is still unverified.\\r\\...\n  DUP1 \t\t\t// Che\n  PUSH 2\t\t\t.\\r\\n \n  SWAP1 \t\t\t.\\r\\n    // Che\n  DUP2 \t\t\t.\\r\\n    // Che\n  PUSH [tag] 19\t\t\t.\\r\\n    // Che\n  SWAP2 \t\t\t.\\r\\n    // Che\n  SWAP1 \t\t\t.\\r\\n    // Che\n  PUSH [tag] 20\t\t\t.\\r\\n    // Che\n  JUMP \t\t\t.\\r\\n    // Che\ntag 19\t\t\t.\\r\\n    // Che\n  JUMPDEST \t\t\t.\\r\\n    // Che\n  POP \t\t\t.\\r\\n    // Che\n  POP \t\t\tokenID is still unverified.\\r\\...\n  JUMP \t\t\tokenID is still unverified.\\r\\...\ntag 15\t\t\t mapping(uint64 => string))) p...\n  JUMPDEST \t\t\t mapping(uint64 => string))) p...\n  PUSH 0\t\t\tle;\\r\\n\\r\\n    // St\n  PUSH 3\t\t\tt to r\n  PUSH 0\t\t\tt to r\n  SWAP1 \t\t\tt to r\n  SLOAD \t\t\tt to r\n  SWAP1 \t\t\tt to r\n  PUSH 100\t\t\tt to r\n  EXP \t\t\tt to r\n  SWAP1 \t\t\tt to r\n  DIV \t\t\tt to r\n  PUSH FFFFFFFFFFFFFFFFFFFFFFFFFFFFFFFFFFFFFFFF\t\t\tt to r\n  AND \t\t\tt to r\n  SWAP1 \t\t\tle;\\r\\n\\r\\n    // Struct to r\n  POP \t\t\tle;\\r\\n\\r\\n    // Struct to r\n  DUP2 \t\t\t conditi\n  PUSH 3\t\t\t spend\n  PUSH 0\t\t\t spend\n  PUSH 100\t\t\t spending conditi\n  EXP \t\t\t spending conditi\n  DUP2 \t\t\t spending conditi\n  SLOAD \t\t\t spending conditi\n  DUP2 \t\t\t spending conditi\n  PUSH FFFFFFFFFFFFFFFFFFFFFFFFFFFFFFFFFFFFFFFF\t\t\t spending conditi\n  MUL \t\t\t spending conditi\n  NOT \t\t\t spending conditi\n  AND \t\t\t spending conditi\n  SWAP1 \t\t\t spending conditi\n  DUP4 \t\t\t spending conditi\n  PUSH FFFFFFFFFFFFFFFFFFFFFFFFFFFFFFFFFFFFFFFF\t\t\t spending conditi\n  AND \t\t\t spending conditi\n  MUL \t\t\t spending conditi\n  OR \t\t\t spending conditi\n  SWAP1 \t\t\t spending conditi\n  SSTORE \t\t\t spending conditi\n  POP \t\t\t spending conditi\n  DUP2 \t\t\tring att\n  PUSH FFFFFFFFFFFFFFFFFFFFFFFFFFFFFFFFFFFFFFFF\t\t\tSpendingCondition {\\r\\n       ...\n  AND \t\t\tSpendingCondition {\\r\\n       ...\n  DUP2 \t\t\t        \n  PUSH FFFFFFFFFFFFFFFFFFFFFFFFFFFFFFFFFFFFFFFF\t\t\tSpendingCondition {\\r\\n       ...\n  AND \t\t\tSpendingCondition {\\r\\n       ...\n  PUSH 8BE0079C531659141344CD1FD0A4F28419497F9722A3DAAFE3B4186F6B6457E0\t\t\tSpendingCondition {\\r\\n       ...\n  PUSH 40\t\t\tSpendingCondition {\\r\\n       ...\n  MLOAD \t\t\tSpendingCondition {\\r\\n       ...\n  PUSH 40\t\t\tSpendingCondition {\\r\\n       ...\n  MLOAD \t\t\tSpendingCondition {\\r\\n       ...\n  DUP1 \t\t\tSpendingCondition {\\r\\n       ...\n  SWAP2 \t\t\tSpendingCondition {\\r\\n       ...\n  SUB \t\t\tSpendingCondition {\\r\\n       ...\n  SWAP1 \t\t\tSpendingCondition {\\r\\n       ...\n  LOG3 \t\t\tSpendingCondition {\\r\\n       ...\n  POP \t\t\tRequest_role;\\r\\n\\r\\n    // St...\n  POP \t\t\t mapping(uint64 => string))) p...\n  JUMP \t\t\t mapping(uint64 => string))) p...\ntag 22\t\t\t-License-IDentifier: MIT\\r\\npr...\n  JUMPDEST \t\t\t-License-IDentifier: MIT\\r\\npr...\n  PUSH 0\t\t\tsolidi\n  PUSH 40\t\t\tt \n  MLOAD \t\t\t\\nimport \"\n  SWAP1 \t\t\t<0.9.0;\\r\\n\\r\\nimport \"\n  POP \t\t\t<0.9.0;\\r\\n\\r\\nimport \"\n  SWAP1 \t\t\t-License-IDentifier: MIT\\r\\npr...\n  JUMP \t\t\t-License-IDentifier: MIT\\r\\npr...\ntag 23\t\t\tn/contracts/access/Ownable.sol...\n  JUMPDEST \t\t\tn/contracts/access/Ownable.sol...\n  PUSH 0\t\t\t\\n\n  DUP1 \t\t\t'\n  REVERT \t\t\t155.sol';\\r\\ni\ntag 24\t\t\ttiveTypeUtils} from '@iden3/co...\n  JUMPDEST \t\t\ttiveTypeUtils} from '@iden3/co...\n  PUSH 0\t\t\to\n  DUP1 \t\t\t3\n  REVERT \t\t\t '@iden3/con\ntag 25\t\t\tfaces/ICircuitValidator.sol';\\...\n  JUMPDEST \t\t\tfaces/ICircuitValidator.sol';\\...\n  PUSH 0\t\t\t {Embed\n  PUSH FFFFFFFFFFFFFFFFFFFFFFFFFFFFFFFFFFFFFFFF\t\t\tracts/verifiers/EmbeddedZKPVer...\n  DUP3 \t\t\tn3/co\n  AND \t\t\t@iden3/contracts/verifiers/Emb...\n  SWAP1 \t\t\tier} from '@iden3/contracts/ve...\n  POP \t\t\tier} from '@iden3/contracts/ve...\n  SWAP2 \t\t\tfaces/ICircuitValidator.sol';\\...\n  SWAP1 \t\t\tfaces/ICircuitValidator.sol';\\...\n  POP \t\t\tfaces/ICircuitValidator.sol';\\...\n  JUMP \t\t\tfaces/ICircuitValidator.sol';\\...\ntag 26\t\t\tersalVerifier} from '@iden3/co...\n  JUMPDEST \t\t\tersalVerifier} from '@iden3/co...\n  PUSH 0\t\t\t/verifi\n  PUSH [tag] 68\t\t\tsol';\\r\\nimport \"@openzepp\n  DUP3 \t\t\tenzep\n  PUSH [tag] 25\t\t\tsol';\\r\\nimport \"@openzepp\n  JUMP \t\t\tsol';\\r\\nimport \"@openzepp\ntag 68\t\t\tsol';\\r\\nimport \"@openzepp\n  JUMPDEST \t\t\tsol';\\r\\nimport \"@openzepp\n  SWAP1 \t\t\talVerifier.sol';\\r\\nimport \"@o...\n  POP \t\t\talVerifier.sol';\\r\\nimport \"@o...\n  SWAP2 \t\t\tersalVerifier} from '@iden3/co...\n  SWAP1 \t\t\tersalVerifier} from '@iden3/co...\n  POP \t\t\tersalVerifier} from '@iden3/co...\n  JUMP \t\t\tersalVerifier} from '@iden3/co...\ntag 27\t\t\tts/utils/structs/EnumerableSet...\n  JUMPDEST \t\t\tts/utils/structs/EnumerableSet...\n  PUSH 0\t\t\trom '@i\n  PUSH [tag] 70\t\t\tces/IZKPVerifier.sol';\\r\\n\n  DUP3 \t\t\tol';\\r\n  PUSH [tag] 26\t\t\tces/IZKPVerifier.sol';\\r\\n\n  JUMP \t\t\tces/IZKPVerifier.sol';\\r\\n\ntag 70\t\t\tces/IZKPVerifier.sol';\\r\\n\n  JUMPDEST \t\t\tces/IZKPVerifier.sol';\\r\\n\n  SWAP1 \t\t\tcts/interfaces/IZKPVerifier.so...\n  POP \t\t\tcts/interfaces/IZKPVerifier.so...\n  SWAP2 \t\t\tts/utils/structs/EnumerableSet...\n  SWAP1 \t\t\tts/utils/structs/EnumerableSet...\n  POP \t\t\tts/utils/structs/EnumerableSet...\n  JUMP \t\t\tts/utils/structs/EnumerableSet...\ntag 28\t\t\tMNoAdmin is ERC1155, Ownable {...\n  JUMPDEST \t\t\tMNoAdmin is ERC1155, Ownable {...\n  PUSH [tag] 72\t\t\tins array, only callable by th...\n  DUP2 \t\t\tfunct\n  PUSH [tag] 27\t\t\tins array, only callable by th...\n  JUMP \t\t\tins array, only callable by th...\ntag 72\t\t\tins array, only callable by th...\n  JUMPDEST \t\t\tins array, only callable by th...\n  DUP2 \t\t\tthe a\n  EQ \t\t\tor the admins array, only call...\n  PUSH [tag] 73\t\t\tfunction for the admins array,...\n  JUMPI \t\t\tfunction for the admins array,...\n  PUSH 0\t\t\tp\n  DUP1 \t\t\t(\n  REVERT \t\t\ttAdmins() pu\ntag 73\t\t\tfunction for the admins array,...\n  JUMPDEST \t\t\tfunction for the admins array,...\n  POP \t\t\tMNoAdmin is ERC1155, Ownable {...\n  JUMP \t\t\tMNoAdmin is ERC1155, Ownable {...\ntag 29\t\t\tOwner returns (address[] memor...\n  JUMPDEST \t\t\tOwner returns (address[] memor...\n  PUSH 0\t\t\tl hel\n  DUP2 \t\t\tn addr\n  MLOAD \t\t\tk if an addre\n  SWAP1 \t\t\tn to check if an addre\n  POP \t\t\tn to check if an addre\n  PUSH [tag] 75\t\t\tadmin.\\r\\n    function _isAdmi...\n  DUP2 \t\t\tl vie\n  PUSH [tag] 28\t\t\tadmin.\\r\\n    function _isAdmi...\n  JUMP \t\t\tadmin.\\r\\n    function _isAdmi...\ntag 75\t\t\tadmin.\\r\\n    function _isAdmi...\n  JUMPDEST \t\t\tadmin.\\r\\n    function _isAdmi...\n  SWAP3 \t\t\tOwner returns (address[] memor...\n  SWAP2 \t\t\tOwner returns (address[] memor...\n  POP \t\t\tOwner returns (address[] memor...\n  POP \t\t\tOwner returns (address[] memor...\n  JUMP \t\t\tOwner returns (address[] memor...\ntag 30\t\t\tol) {\\r\\n        for (uint i =...\n  JUMPDEST \t\t\tol) {\\r\\n        for (uint i =...\n  PUSH [tag] 77\t\t\t (admins[i] == _admin) {\n  DUP2 \t\t\tmin) \n  PUSH [tag] 26\t\t\t (admins[i] == _admin) {\n  JUMP \t\t\t (admins[i] == _admin) {\ntag 77\t\t\t (admins[i] == _admin) {\n  JUMPDEST \t\t\t (admins[i] == _admin) {\n  DUP2 \t\t\t     \n  EQ \t\t\t        if (admins[i] == _admi...\n  PUSH [tag] 78\t\t\t+) {\\r\\n            if (admins...\n  JUMPI \t\t\t+) {\\r\\n            if (admins...\n  PUSH 0\t\t\t \n  DUP1 \t\t\t \n  REVERT \t\t\t            \ntag 78\t\t\t+) {\\r\\n            if (admins...\n  JUMPDEST \t\t\t+) {\\r\\n            if (admins...\n  POP \t\t\tol) {\\r\\n        for (uint i =...\n  JUMP \t\t\tol) {\\r\\n        for (uint i =...\ntag 31\t\t\t\\n            }\\r\\n        }\\r...\n  JUMPDEST \t\t\t\\n            }\\r\\n        }\\r...\n  PUSH 0\t\t\t\\r\\n   \n  DUP2 \t\t\tin add\n  MLOAD \t\t\tan admin addr\n  SWAP1 \t\t\tn to add an admin addr\n  POP \t\t\tn to add an admin addr\n  PUSH [tag] 80\t\t\t the owner can add.\\r\\n    fun...\n  DUP2 \t\t\tnctio\n  PUSH [tag] 30\t\t\t the owner can add.\\r\\n    fun...\n  JUMP \t\t\t the owner can add.\\r\\n    fun...\ntag 80\t\t\t the owner can add.\\r\\n    fun...\n  JUMPDEST \t\t\t the owner can add.\\r\\n    fun...\n  SWAP3 \t\t\t\\n            }\\r\\n        }\\r...\n  SWAP2 \t\t\t\\n            }\\r\\n        }\\r...\n  POP \t\t\t\\n            }\\r\\n        }\\r...\n  POP \t\t\t\\n            }\\r\\n        }\\r...\n  JUMP \t\t\t\\n            }\\r\\n        }\\r...\ntag 32\t\t\tdress _admin) public onlyOwner...\n  JUMPDEST \t\t\tdress _admin) public onlyOwner...\n  PUSH 0\t\t\t!\n  DUP1 \t\t\tr\n  REVERT \t\t\t  require(!_\ntag 33\t\t\tin), \"Address is already an ad...\n  JUMPDEST \t\t\tin), \"Address is already an ad...\n  PUSH 0\t\t\ti\n  DUP1 \t\t\ta\n  REVERT \t\t\tove an admin\ntag 34\t\t\tly the owner can remove.\\r\\n  ...\n  JUMPDEST \t\t\tly the owner can remove.\\r\\n  ...\n  PUSH 0\t\t\tmoveAd\n  PUSH 1F\t\t\t  \n  NOT \t\t\t       \n  PUSH 1F\t\t\t {\n  DUP4 \t\t\tlyOwn\n  ADD \t\t\tc onlyOwner {\\r\n  AND \t\t\tublic onlyOwner {\\r\\n        u\n  SWAP1 \t\t\t _admin) public onlyOwner {\\r\\...\n  POP \t\t\t _admin) public onlyOwner {\\r\\...\n  SWAP2 \t\t\tly the owner can remove.\\r\\n  ...\n  SWAP1 \t\t\tly the owner can remove.\\r\\n  ...\n  POP \t\t\tly the owner can remove.\\r\\n  ...\n  JUMP \t\t\tly the owner can remove.\\r\\n  ...\ntag 35\t\t\tmins.length;\\r\\n        for (u...\n  JUMPDEST \t\t\tmins.length;\\r\\n        for (u...\n  PUSH 4E487B7100000000000000000000000000000000000000000000000000000000\t\t\ti++) {\\r\\n            if (admi...\n  PUSH 0\t\t\tn\n  MSTORE \t\t\t i < len; i++) {\\r\\n          ...\n  PUSH 41\t\t\t    \n  PUSH 4\t\t\t \n  MSTORE \t\t\t- 1];\\r\\n        \n  PUSH 24\t\t\t);\\r\\n\n  PUSH 0\t\t\to\n  REVERT \t\t\tdmins.pop();\\r\\n \ntag 36\t\t\t   return;\\r\\n            }\\r\\...\n  JUMPDEST \t\t\t   return;\\r\\n            }\\r\\...\n  PUSH [tag] 86\t\t\t    // Modifier to restrict\n  DUP3 \t\t\ttric\n  PUSH [tag] 34\t\t\t    // Modifier to restrict\n  JUMP \t\t\t    // Modifier to restrict\ntag 86\t\t\t    // Modifier to restrict\n  JUMPDEST \t\t\t    // Modifier to restrict\n  DUP2 \t\t\t   }\\r\\n\n  ADD \t\t\t;\\r\\n    }\\r\\n\\r\\n    // Modif...\n  DUP2 \t\t\tsg.sen\n  DUP2 \t\t\te(_isAdmin\n  LT \t\t\tuire(_isAdmin(msg.send\n  PUSH FFFFFFFFFFFFFFFF\t\t\tdmin() {\\r\\n        \n  DUP3 \t\t\tdifier onl\n  GT \t\t\t modifier onlyAdmin() {\\r\\n   ...\n  OR \t\t\t    modifier onlyAdmin() {\\r\\n...\n  ISZERO \t\t\t.\\r\\n    modifier onlyAdmin() ...\n  PUSH [tag] 87\t\t\t.\\r\\n    modifier onlyAdmin() ...\n  JUMPI \t\t\t.\\r\\n    modifier onlyAdmin() ...\n  PUSH [tag] 88\t\t\t \"Caller is not an\n  PUSH [tag] 35\t\t\t \"Caller is not an\n  JUMP \t\t\t \"Caller is not an\ntag 88\t\t\t \"Caller is not an\n  JUMPDEST \t\t\t \"Caller is not an\ntag 87\t\t\t.\\r\\n    modifier onlyAdmin() ...\n  JUMPDEST \t\t\t.\\r\\n    modifier onlyAdmin() ...\n  DUP1 \t\t\t\\n    }\\r\\n\\r\\n\n  PUSH 40\t\t\t _\n  MSTORE \t\t\t        _;\\r\\n    }\\r\\n\\r\\n \n  POP \t\t\t   revert(\"Admin not found\");\\...\n  POP \t\t\t   return;\\r\\n            }\\r\\...\n  POP \t\t\t   return;\\r\\n            }\\r\\...\n  JUMP \t\t\t   return;\\r\\n            }\\r\\...\ntag 37\t\t\tmerableSet for EnumerableSet.U...\n  JUMPDEST \t\t\tmerableSet for EnumerableSet.U...\n  PUSH 0\t\t\tet;\\r\\n\\r\n  PUSH [tag] 90\t\t\ttoken IDs that have \n  PUSH [tag] 22\t\t\ttoken IDs that have \n  JUMP \t\t\ttoken IDs that have \ntag 90\t\t\ttoken IDs that have \n  JUMPDEST \t\t\ttoken IDs that have \n  SWAP1 \t\t\tet of all token IDs that have \n  POP \t\t\tet of all token IDs that have \n  PUSH [tag] 91\t\t\t minted\\r\\n    EnumerableSet.U...\n  DUP3 \t\t\tintS\n  DUP3 \t\t\tbleSet\n  PUSH [tag] 36\t\t\t minted\\r\\n    EnumerableSet.U...\n  JUMP \t\t\t minted\\r\\n    EnumerableSet.U...\ntag 91\t\t\t minted\\r\\n    EnumerableSet.U...\n  JUMPDEST \t\t\t minted\\r\\n    EnumerableSet.U...\n  SWAP2 \t\t\tmerableSet for EnumerableSet.U...\n  SWAP1 \t\t\tmerableSet for EnumerableSet.U...\n  POP \t\t\tmerableSet for EnumerableSet.U...\n  JUMP \t\t\tmerableSet for EnumerableSet.U...\ntag 38\t\t\tllTokenIDs;\\r\\n\\r\\n    /// @no...\n  JUMPDEST \t\t\tllTokenIDs;\\r\\n\\r\\n    /// @no...\n  PUSH 0\t\t\tIDs \n  PUSH FFFFFFFFFFFFFFFF\t\t\t      return _allT\n  DUP3 \t\t\ty) {\\r\\n\n  GT \t\t\tmory) {\\r\\n        return _all...\n  ISZERO \t\t\t memory) {\\r\\n        return _...\n  PUSH [tag] 93\t\t\t memory) {\\r\\n        return _...\n  JUMPI \t\t\t memory) {\\r\\n        return _...\n  PUSH [tag] 94\t\t\tIDs.values();\\r\\n   \n  PUSH [tag] 35\t\t\tIDs.values();\\r\\n   \n  JUMP \t\t\tIDs.values();\\r\\n   \ntag 94\t\t\tIDs.values();\\r\\n   \n  JUMPDEST \t\t\tIDs.values();\\r\\n   \ntag 93\t\t\t memory) {\\r\\n        return _...\n  JUMPDEST \t\t\t memory) {\\r\\n        return _...\n  PUSH [tag] 95\t\t\t from token ID to its name. B\n  DUP3 \t\t\tname. \n  PUSH [tag] 34\t\t\t from token ID to its name. B\n  JUMP \t\t\t from token ID to its name. B\ntag 95\t\t\t from token ID to its name. B\n  JUMPDEST \t\t\t from token ID to its name. B\n  SWAP1 \t\t\t Mapping from token ID to its ...\n  POP \t\t\t Mapping from token ID to its ...\n  PUSH 20\t\t\t uri\n  DUP2 \t\t\tred \n  ADD \t\t\t stored as uri \n  SWAP1 \t\t\ts can be stored as uri \n  POP \t\t\ts can be stored as uri \n  SWAP2 \t\t\tllTokenIDs;\\r\\n\\r\\n    /// @no...\n  SWAP1 \t\t\tllTokenIDs;\\r\\n\\r\\n    /// @no...\n  POP \t\t\tllTokenIDs;\\r\\n\\r\\n    /// @no...\n  JUMP \t\t\tllTokenIDs;\\r\\n\\r\\n    /// @no...\ntag 39\t\t\t(uint256 => string) public tok...\n  JUMPDEST \t\t\t(uint256 => string) public tok...\n  PUSH 0\t\t\t \ntag 97\t\t\tdress to proof_request_id to p...\n  JUMPDEST \t\t\tdress to proof_request_id to p...\n  DUP4 \t\t\t_reque\n  DUP2 \t\t\to\n  LT \t\t\t proof_reques\n  ISZERO \t\t\tdress to proof_request_id to p...\n  PUSH [tag] 99\t\t\tdress to proof_request_id to p...\n  JUMPI \t\t\tdress to proof_request_id to p...\n  DUP1 \t\t\tt\n  DUP3 \t\t\t→ (\n  ADD \t\t\tnID → (sett\n  MLOAD \t\t\t/ tokenID → (sette\n  DUP2 \t\t\t \n  DUP5 \t\t\t).\\r\n  ADD \t\t\tver').\\r\\n   \n  MSTORE \t\t\t 'receiver').\\r\\n    // tokenI...\n  PUSH 20\t\t\ts \n  DUP2 \t\t\te\n  ADD \t\t\tprover's r\n  SWAP1 \t\t\td to prover's r\n  POP \t\t\td to prover's r\n  PUSH [tag] 97\t\t\tdress to proof_request_id to p...\n  JUMP \t\t\tdress to proof_request_id to p...\ntag 99\t\t\tdress to proof_request_id to p...\n  JUMPDEST \t\t\tdress to proof_request_id to p...\n  PUSH 0\t\t\t)\n  DUP5 \t\t\teceive\n  DUP5 \t\t\tor \n  ADD \t\t\ter' or 'receiver\n  MSTORE \t\t\t→ 'sender' or 'receiver'))\\r\n  POP \t\t\t tokenID to request setter add...\n  POP \t\t\t(uint256 => string) public tok...\n  POP \t\t\t(uint256 => string) public tok...\n  POP \t\t\t(uint256 => string) public tok...\n  JUMP \t\t\t(uint256 => string) public tok...\ntag 40\t\t\t(uint256 => mapping(address =>...\n  JUMPDEST \t\t\t(uint256 => mapping(address =>...\n  PUSH 0\t\t\troofR\n  PUSH [tag] 101\t\t\t// Struct to represent a spend...\n  PUSH [tag] 102\t\t\tresent a spending condition\\r\\...\n  DUP5 \t\t\tending\n  PUSH [tag] 38\t\t\tresent a spending condition\\r\\...\n  JUMP \t\t\tresent a spending condition\\r\\...\ntag 102\t\t\tresent a spending condition\\r\\...\n  JUMPDEST \t\t\tresent a spending condition\\r\\...\n  PUSH [tag] 37\t\t\t// Struct to represent a spend...\n  JUMP \t\t\t// Struct to represent a spend...\ntag 101\t\t\t// Struct to represent a spend...\n  JUMPDEST \t\t\t// Struct to represent a spend...\n  SWAP1 \t\t\t;\\r\\n\\r\\n    // Struct to repr...\n  POP \t\t\t;\\r\\n\\r\\n    // Struct to repr...\n  DUP3 \t\t\tng att\n  DUP2 \t\t\t   st\n  MSTORE \t\t\t\\r\\n        string attr\n  PUSH 20\t\t\tStr;\n  DUP2 \t\t\tperat\n  ADD \t\t\tng operatorStr;\\r\n  DUP5 \t\t\t   \n  DUP5 \t\t\t    }\\r\n  DUP5 \t\t\tue;\n  ADD \t\t\t value;\\r\\n    }\\r\\n\n  GT \t\t\ting value;\\r\\n    }\\r\\n\\r\\n   ...\n  ISZERO \t\t\tstring value;\\r\\n    }\\r\\n\\r\\n...\n  PUSH [tag] 103\t\t\tstring value;\\r\\n    }\\r\\n\\r\\n...\n  JUMPI \t\t\tstring value;\\r\\n    }\\r\\n\\r\\n...\n  PUSH [tag] 104\t\t\tMapping from tokenID to user a...\n  PUSH [tag] 33\t\t\tMapping from tokenID to user a...\n  JUMP \t\t\tMapping from tokenID to user a...\ntag 104\t\t\tMapping from tokenID to user a...\n  JUMPDEST \t\t\tMapping from tokenID to user a...\ntag 103\t\t\tstring value;\\r\\n    }\\r\\n\\r\\n...\n  JUMPDEST \t\t\tstring value;\\r\\n    }\\r\\n\\r\\n...\n  PUSH [tag] 105\t\t\tID => (moneyOwnerAddress => (p...\n  DUP5 \t\t\t> Spen\n  DUP3 \t\t\ttID\n  DUP6 \t\t\tequ\n  PUSH [tag] 39\t\t\tID => (moneyOwnerAddress => (p...\n  JUMP \t\t\tID => (moneyOwnerAddress => (p...\ntag 105\t\t\tID => (moneyOwnerAddress => (p...\n  JUMPDEST \t\t\tID => (moneyOwnerAddress => (p...\n  POP \t\t\tquest_role;\\r\\n\\r\\n    // Stru...\n  SWAP4 \t\t\t(uint256 => mapping(address =>...\n  SWAP3 \t\t\t(uint256 => mapping(address =>...\n  POP \t\t\t(uint256 => mapping(address =>...\n  POP \t\t\t(uint256 => mapping(address =>...\n  POP \t\t\t(uint256 => mapping(address =>...\n  JUMP \t\t\t(uint256 => mapping(address =>...\ntag 41\t\t\tg(uint256 => mapping(address =...\n  JUMPDEST \t\t\tg(uint256 => mapping(address =...\n  PUSH 0\t\t\t))) p\n  DUP3 \t\t\t to\n  PUSH 1F\t\t\tn ar\n  DUP4 \t\t\t    //\n  ADD \t\t\t\\r\\n\\r\\n    // An arr\n  SLT \t\t\tons;\\r\\n\\r\\n    // An array to...\n  PUSH [tag] 107\t\t\tingConditions;\\r\\n\\r\\n    // A...\n  JUMPI \t\t\tingConditions;\\r\\n\\r\\n    // A...\n  PUSH [tag] 108\t\t\te proof_request_ids only for i...\n  PUSH [tag] 32\t\t\te proof_request_ids only for i...\n  JUMP \t\t\te proof_request_ids only for i...\ntag 108\t\t\te proof_request_ids only for i...\n  JUMPDEST \t\t\te proof_request_ids only for i...\ntag 107\t\t\tingConditions;\\r\\n\\r\\n    // A...\n  JUMPDEST \t\t\tingConditions;\\r\\n\\r\\n    // A...\n  DUP2 \t\t\tpendin\n  MLOAD \t\t\t all spending\n  PUSH [tag] 109\t\t\tgiven tokenID and user\\r\\n    ...\n  DUP5 \t\t\ter)\n  DUP3 \t\t\tdress \n  PUSH 20\t\t\tnID,\n  DUP7 \t\t\t256 to\n  ADD \t\t\tuint256 tokenID, \n  PUSH [tag] 40\t\t\tgiven tokenID and user\\r\\n    ...\n  JUMP \t\t\tgiven tokenID and user\\r\\n    ...\ntag 109\t\t\tgiven tokenID and user\\r\\n    ...\n  JUMPDEST \t\t\tgiven tokenID and user\\r\\n    ...\n  SWAP2 \t\t\tns for a given tokenID and use...\n  POP \t\t\tns for a given tokenID and use...\n  POP \t\t\tblic spendingConditions;\\r\\n\\r...\n  SWAP3 \t\t\tg(uint256 => mapping(address =...\n  SWAP2 \t\t\tg(uint256 => mapping(address =...\n  POP \t\t\tg(uint256 => mapping(address =...\n  POP \t\t\tg(uint256 => mapping(address =...\n  JUMP \t\t\tg(uint256 => mapping(address =...\ntag 3\t\t\tw returns (uint64[] memory, Sp...\n  JUMPDEST \t\t\tw returns (uint64[] memory, Sp...\n  PUSH 0\t\t\tount =\n  DUP1 \t\t\t;\\r\\n   \n  PUSH 0\t\t\t   // \n  PUSH 60\t\t\tss\n  DUP5 \t\t\testIDs ar\n  DUP7 \t\t\tproofRe\n  SUB \t\t\tany proofRequestIDs are\n  SLT \t\t\tow many proofRequestIDs are as...\n  ISZERO \t\t\tt how many proofRequestIDs are...\n  PUSH [tag] 111\t\t\tt how many proofRequestIDs are...\n  JUMPI \t\t\tt how many proofRequestIDs are...\n  PUSH [tag] 112\t\t\tted with this tokenID for this...\n  PUSH [tag] 23\t\t\tted with this tokenID for this...\n  JUMP \t\t\tted with this tokenID for this...\ntag 112\t\t\tted with this tokenID for this...\n  JUMPDEST \t\t\tted with this tokenID for this...\ntag 111\t\t\tt how many proofRequestIDs are...\n  JUMPDEST \t\t\tt how many proofRequestIDs are...\n  PUSH 0\t\t\to\n  PUSH [tag] 113\t\t\tids[i]].attribute).length > 0)...\n  DUP7 \t\t\t }\\r\\n   \n  DUP3 \t\t\t\\r\\n    \n  DUP8 \t\t\t         \n  ADD \t\t\t\\r\\n            }\\r\\n     \n  PUSH [tag] 29\t\t\tids[i]].attribute).length > 0)...\n  JUMP \t\t\tids[i]].attribute).length > 0)...\ntag 113\t\t\tids[i]].attribute).length > 0)...\n  JUMPDEST \t\t\tids[i]].attribute).length > 0)...\n  SWAP4 \t\t\tID][user][ids[i]].attribute).l...\n  POP \t\t\tID][user][ids[i]].attribute).l...\n  POP \t\t\t          if (bytes(spendingCo...\n  PUSH 20\t\t\t] \n  PUSH [tag] 114\t\t\t uint64[](count);\\r\\n        S...\n  DUP7 \t\t\tndition\n  DUP3 \t\t\tmemory\n  DUP8 \t\t\tondition[\n  ADD \t\t\tingCondition[] memory \n  PUSH [tag] 31\t\t\t uint64[](count);\\r\\n        S...\n  JUMP \t\t\t uint64[](count);\\r\\n        S...\ntag 114\t\t\t uint64[](count);\\r\\n        S...\n  JUMPDEST \t\t\t uint64[](count);\\r\\n        S...\n  SWAP3 \t\t\tdIDs = new uint64[](count);\\r\\...\n  POP \t\t\tdIDs = new uint64[](count);\\r\\...\n  POP \t\t\ts for output\\r\\n        uint64...\n  PUSH 40\t\t\tfo\n  DUP5 \t\t\t;\\r\\n      \n  ADD \t\t\t = 0;\\r\\n        for\n  MLOAD \t\t\t56 idx = 0;\\r\\n        for \n  PUSH FFFFFFFFFFFFFFFF\t\t\tgth; i++) {\\r\\n     \n  DUP2 \t\t\t ids.l\n  GT \t\t\ti < ids.length; i++) {\\r\\n    ...\n  ISZERO \t\t\t0; i < ids.length; i++) {\\r\\n ...\n  PUSH [tag] 115\t\t\t0; i < ids.length; i++) {\\r\\n ...\n  JUMPI \t\t\t0; i < ids.length; i++) {\\r\\n ...\n  PUSH [tag] 116\t\t\t   if (bytes(spendingCondition...\n  PUSH [tag] 24\t\t\t   if (bytes(spendingCondition...\n  JUMP \t\t\t   if (bytes(spendingCondition...\ntag 116\t\t\t   if (bytes(spendingCondition...\n  JUMPDEST \t\t\t   if (bytes(spendingCondition...\ntag 115\t\t\t0; i < ids.length; i++) {\\r\\n ...\n  JUMPDEST \t\t\t0; i < ids.length; i++) {\\r\\n ...\n  PUSH [tag] 117\t\t\tIDs[idx] = ids[i];\\r\\n        ...\n  DUP7 \t\t\titions[\n  DUP3 \t\t\tndingC\n  DUP8 \t\t\t[idx] = s\n  ADD \t\t\tions[idx] = spendingCo\n  PUSH [tag] 41\t\t\tIDs[idx] = ids[i];\\r\\n        ...\n  JUMP \t\t\tIDs[idx] = ids[i];\\r\\n        ...\ntag 117\t\t\tIDs[idx] = ids[i];\\r\\n        ...\n  JUMPDEST \t\t\tIDs[idx] = ids[i];\\r\\n        ...\n  SWAP2 \t\t\t  filteredIDs[idx] = ids[i];\\r...\n  POP \t\t\t  filteredIDs[idx] = ids[i];\\r...\n  POP \t\t\ttion[](count);\\r\\n        uint...\n  SWAP3 \t\t\tw returns (uint64[] memory, Sp...\n  POP \t\t\tw returns (uint64[] memory, Sp...\n  SWAP3 \t\t\tw returns (uint64[] memory, Sp...\n  POP \t\t\tw returns (uint64[] memory, Sp...\n  SWAP3 \t\t\tw returns (uint64[] memory, Sp...\n  JUMP \t\t\tw returns (uint64[] memory, Sp...\ntag 42\t\t\t\\n                idx++;\\r\\n  ...\n  JUMPDEST \t\t\t\\n                idx++;\\r\\n  ...\n  PUSH [tag] 119\t\t\tons);\\r\\n    }\\r\\n\\r\\n    // A\n  DUP2 \t\t\t  // \n  PUSH [tag] 26\t\t\tons);\\r\\n    }\\r\\n\\r\\n    // A\n  JUMP \t\t\tons);\\r\\n    }\\r\\n\\r\\n    // A\ntag 119\t\t\tons);\\r\\n    }\\r\\n\\r\\n    // A\n  JUMPDEST \t\t\tons);\\r\\n    }\\r\\n\\r\\n    // A\n  DUP3 \t\t\tndi\n  MSTORE \t\t\tIDs, conditions);\\r\\n    }\\r\\n...\n  POP \t\t\t\\n                idx++;\\r\\n  ...\n  POP \t\t\t\\n                idx++;\\r\\n  ...\n  JUMP \t\t\t\\n                idx++;\\r\\n  ...\ntag 13\t\t\tf request and the correspondin...\n  JUMPDEST \t\t\tf request and the correspondin...\n  PUSH 0\t\t\td ac\n  PUSH 20\t\t\t r\n  DUP3 \t\t\ta new pro\n  ADD \t\t\tAdd a new proof re\n  SWAP1 \t\t\t\\n    // Add a new proof re\n  POP \t\t\t\\n    // Add a new proof re\n  PUSH [tag] 121\t\t\tthe corresponding role ('sende...\n  PUSH 0\t\t\tr\n  DUP4 \t\t\tThe array\n  ADD \t\t\t // The array pro\n  DUP5 \t\t\tr').\\r\\n\n  PUSH [tag] 42\t\t\tthe corresponding role ('sende...\n  JUMP \t\t\tthe corresponding role ('sende...\ntag 121\t\t\tthe corresponding role ('sende...\n  JUMPDEST \t\t\tthe corresponding role ('sende...\n  SWAP3 \t\t\tf request and the correspondin...\n  SWAP2 \t\t\tf request and the correspondin...\n  POP \t\t\tf request and the correspondin...\n  POP \t\t\tf request and the correspondin...\n  JUMP \t\t\tf request and the correspondin...\ntag 43\t\t\ts updated accordingly.\\r\\n    ...\n  JUMPDEST \t\t\ts updated accordingly.\\r\\n    ...\n  PUSH 0\t\t\tAndRol\n  DUP2 \t\t\tquest\n  MLOAD \t\t\tt64 requestI\n  SWAP1 \t\t\tkenID, uint64 requestI\n  POP \t\t\tkenID, uint64 requestI\n  SWAP2 \t\t\ts updated accordingly.\\r\\n    ...\n  SWAP1 \t\t\ts updated accordingly.\\r\\n    ...\n  POP \t\t\ts updated accordingly.\\r\\n    ...\n  JUMP \t\t\ts updated accordingly.\\r\\n    ...\ntag 44\t\t\tldata role) private {\\r\\n     ...\n  JUMPDEST \t\t\tldata role) private {\\r\\n     ...\n  PUSH 4E487B7100000000000000000000000000000000000000000000000000000000\t\t\tIDs.contains(tokenID), \"token ...\n  PUSH 0\t\t\tk\n  MSTORE \t\t\t(_allTokenIDs.contains(tokenID...\n  PUSH 22\t\t\troof\n  PUSH 4\t\t\tr\n  MSTORE \t\t\tstSetter_proofR\n  PUSH 24\t\t\t][ms\n  PUSH 0\t\t\tn\n  REVERT \t\t\tle[tokenID][msg\ntag 45\t\t\tuestID]).length == 0, \"Proof r...\n  JUMPDEST \t\t\tuestID]).length == 0, \"Proof r...\n  PUSH 0\t\t\t exist\n  PUSH 2\t\t\t \n  DUP3 \t\t\t    \n  DIV \t\t\t(\\r\\n         \n  SWAP1 \t\t\t   require(\\r\\n         \n  POP \t\t\t   require(\\r\\n         \n  PUSH 1\t\t\t\"\n  DUP3 \t\t\tbyte\n  AND \t\t\t256(bytes(\"s\n  DUP1 \t\t\t      keccak256(by\n  PUSH [tag] 125\t\t\t||\\r\\n            keccak256(by...\n  JUMPI \t\t\t||\\r\\n            keccak256(by...\n  PUSH 7F\t\t\tr\"))\n  DUP3 \t\t\t\"recei\n  AND \t\t\ttes(\"receiver\")),\n  SWAP2 \t\t\tccak256(bytes(\"receiver\")),\n  POP \t\t\tccak256(bytes(\"receiver\")),\ntag 125\t\t\t||\\r\\n            keccak256(by...\n  JUMPDEST \t\t\t||\\r\\n            keccak256(by...\n  PUSH 20\t\t\t  \n  DUP3 \t\t\t'\"\\r\\n  \n  LT \t\t\tver'\"\\r\\n       \n  DUP2 \t\t\te 'sender' or 'rec\n  SUB \t\t\tt be 'sender' or 'receiver'\"\\r...\n  PUSH [tag] 126\t\t\tmust be 'sender' or 'receiver'...\n  JUMPI \t\t\tmust be 'sender' or 'receiver'...\n  PUSH [tag] 127\t\t\tenID_requestSetter\n  PUSH [tag] 44\t\t\tenID_requestSetter\n  JUMP \t\t\tenID_requestSetter\ntag 127\t\t\tenID_requestSetter\n  JUMPDEST \t\t\tenID_requestSetter\ntag 126\t\t\tmust be 'sender' or 'receiver'...\n  JUMPDEST \t\t\tmust be 'sender' or 'receiver'...\n  POP \t\t\t\");\\r\\n        require(\\r\\n   ...\n  SWAP2 \t\t\tuestID]).length == 0, \"Proof r...\n  SWAP1 \t\t\tuestID]).length == 0, \"Proof r...\n  POP \t\t\tuestID]).length == 0, \"Proof r...\n  JUMP \t\t\tuestID]).length == 0, \"Proof r...\ntag 46\t\t\tenID][msg.sender][requestID] =...\n  JUMPDEST \t\t\tenID][msg.sender][requestID] =...\n  PUSH 0\t\t\tofRe\n  DUP2 \t\t\tstI\n  SWAP1 \t\t\tsh(requestI\n  POP \t\t\tsh(requestI\n  DUP2 \t\t\t  f\n  PUSH 0\t\t\t\\n\n  MSTORE \t\t\t\\r\\n    \\r\\n    fu\n  PUSH 20\t\t\trAnd\n  PUSH 0\t\t\tf\n  KECCAK256 \t\t\tquest_VerifierAndP\n  SWAP1 \t\t\tdProofRequest_VerifierAndP\n  POP \t\t\tdProofRequest_VerifierAndP\n  SWAP2 \t\t\tenID][msg.sender][requestID] =...\n  SWAP1 \t\t\tenID][msg.sender][requestID] =...\n  POP \t\t\tenID][msg.sender][requestID] =...\n  JUMP \t\t\tenID][msg.sender][requestID] =...\ntag 47\t\t\tint64 requestId,\\r\\n        st...\n  JUMPDEST \t\t\tint64 requestId,\\r\\n        st...\n  PUSH 0\t\t\tdata m\n  PUSH 20\t\t\tat\n  PUSH 1F\t\t\tva\n  DUP4 \t\t\tidato\n  ADD \t\t\ttValidator val\n  DIV \t\t\trcuitValidator validato\n  SWAP1 \t\t\t       ICircuitValidator valid...\n  POP \t\t\t       ICircuitValidator valid...\n  SWAP2 \t\t\tint64 requestId,\\r\\n        st...\n  SWAP1 \t\t\tint64 requestId,\\r\\n        st...\n  POP \t\t\tint64 requestId,\\r\\n        st...\n  JUMP \t\t\tint64 requestId,\\r\\n        st...\ntag 48\t\t\tbytes calldata data,\\r\\n      ...\n  JUMPDEST \t\t\tbytes calldata data,\\r\\n      ...\n  PUSH 0\t\t\tD,\\r\\n    \n  DUP3 \t\t\tgCond\n  DUP3 \t\t\tpend\n  SHL \t\t\t   SpendingCondi\n  SWAP1 \t\t\tcalldata role,\\r\\n        Spen...\n  POP \t\t\tcalldata role,\\r\\n        Spen...\n  SWAP3 \t\t\tbytes calldata data,\\r\\n      ...\n  SWAP2 \t\t\tbytes calldata data,\\r\\n      ...\n  POP \t\t\tbytes calldata data,\\r\\n      ...\n  POP \t\t\tbytes calldata data,\\r\\n      ...\n  JUMP \t\t\tbytes calldata data,\\r\\n      ...\ntag 49\t\t\t condition\\r\\n    ) public {\\r...\n  JUMPDEST \t\t\t condition\\r\\n    ) public {\\r...\n  PUSH 0\t\t\ttokenI\n  PUSH 8\t\t\te\n  DUP4 \t\t\t.sender, t\n  MUL \t\t\t(msg.sender, token\n  PUSH [tag] 132\t\t\towner can add spending conditi...\n  PUSH FFFFFFFFFFFFFFFFFFFFFFFFFFFFFFFFFFFFFFFFFFFFFFFFFFFFFFFFFFFFFFFF\t\t\ton.\");\\r\\n        // Build the...\n  DUP3 \t\t\ting condi\n  PUSH [tag] 48\t\t\towner can add spending conditi...\n  JUMP \t\t\towner can add spending conditi...\ntag 132\t\t\towner can add spending conditi...\n  JUMPDEST \t\t\towner can add spending conditi...\n  PUSH [tag] 133\t\t\tuest memory req = IZKPVerifier...\n  DUP7 \t\t\t.ZKPRequ\n  DUP4 \t\t\tZKPVerifi\n  PUSH [tag] 48\t\t\tuest memory req = IZKPVerifier...\n  JUMP \t\t\tuest memory req = IZKPVerifier...\ntag 133\t\t\tuest memory req = IZKPVerifier...\n  JUMPDEST \t\t\tuest memory req = IZKPVerifier...\n  SWAP6 \t\t\tifier.ZKPRequest memory req = ...\n  POP \t\t\tifier.ZKPRequest memory req = ...\n  DUP1 \t\t\tata,\n  NOT \t\t\tetadata,\\r\n  DUP5 \t\t\tdata:\n  AND \t\t\tmetadata: metadata,\\r\\n\n  SWAP4 \t\t\t         metadata: metadata,\\r...\n  POP \t\t\t         metadata: metadata,\\r...\n  DUP1 \t\t\t    \n  DUP7 \t\t\t\\r\\n      \n  AND \t\t\ttor,\\r\\n            d\n  DUP5 \t\t\t vali\n  OR \t\t\tor: validator,\\r\\n            ...\n  SWAP3 \t\t\t   validator: validator,\\r\\n  ...\n  POP \t\t\t   validator: validator,\\r\\n  ...\n  POP \t\t\t\\r\\n        require(balanceOf(...\n  POP \t\t\t\\r\\n        require(balanceOf(...\n  SWAP4 \t\t\t condition\\r\\n    ) public {\\r...\n  SWAP3 \t\t\t condition\\r\\n    ) public {\\r...\n  POP \t\t\t condition\\r\\n    ) public {\\r...\n  POP \t\t\t condition\\r\\n    ) public {\\r...\n  POP \t\t\t condition\\r\\n    ) public {\\r...\n  JUMP \t\t\t condition\\r\\n    ) public {\\r...\ntag 50\t\t\t      });\\r\\n\\r\\n        verif...\n  JUMPDEST \t\t\t      });\\r\\n\\r\\n        verif...\n  PUSH 0\t\t\tequest(\n  DUP2 \t\t\t    a\n  SWAP1 \t\t\treq);\\r\\n        a\n  POP \t\t\treq);\\r\\n        a\n  SWAP2 \t\t\t      });\\r\\n\\r\\n        verif...\n  SWAP1 \t\t\t      });\\r\\n\\r\\n        verif...\n  POP \t\t\t      });\\r\\n\\r\\n        verif...\n  JUMP \t\t\t      });\\r\\n\\r\\n        verif...\ntag 51\t\t\tstAndRole(tokenID, requestId, ...\n  JUMPDEST \t\t\tstAndRole(tokenID, requestId, ...\n  PUSH 0\t\t\t, r\n  DUP2 \t\t\tAdd t\n  SWAP1 \t\t\t    // Add t\n  POP \t\t\t    // Add t\n  SWAP2 \t\t\tstAndRole(tokenID, requestId, ...\n  SWAP1 \t\t\tstAndRole(tokenID, requestId, ...\n  POP \t\t\tstAndRole(tokenID, requestId, ...\n  JUMP \t\t\tstAndRole(tokenID, requestId, ...\ntag 52\t\t\tcondition\\r\\n        spendingC...\n  JUMPDEST \t\t\tcondition\\r\\n        spendingC...\n  PUSH 0\t\t\t.sender][\n  PUSH [tag] 137\t\t\tdition({\\r\\n            attrib...\n  PUSH [tag] 138\t\t\t    attribute: condition.attri...\n  PUSH [tag] 139\t\t\tbute: condition.attribut\n  DUP5 \t\t\ttribu\n  PUSH [tag] 50\t\t\tbute: condition.attribut\n  JUMP \t\t\tbute: condition.attribut\ntag 139\t\t\tbute: condition.attribut\n  JUMPDEST \t\t\tbute: condition.attribut\n  PUSH [tag] 51\t\t\t    attribute: condition.attri...\n  JUMP \t\t\t    attribute: condition.attri...\ntag 138\t\t\t    attribute: condition.attri...\n  JUMPDEST \t\t\t    attribute: condition.attri...\n  PUSH [tag] 50\t\t\tdition({\\r\\n            attrib...\n  JUMP \t\t\tdition({\\r\\n            attrib...\ntag 137\t\t\tdition({\\r\\n            attrib...\n  JUMPDEST \t\t\tdition({\\r\\n            attrib...\n  SWAP1 \t\t\t= SpendingCondition({\\r\\n     ...\n  POP \t\t\t= SpendingCondition({\\r\\n     ...\n  SWAP2 \t\t\tcondition\\r\\n        spendingC...\n  SWAP1 \t\t\tcondition\\r\\n        spendingC...\n  POP \t\t\tcondition\\r\\n        spendingC...\n  JUMP \t\t\tcondition\\r\\n        spendingC...\ntag 53\t\t\t  operatorStr: condition.opera...\n  JUMPDEST \t\t\t  operatorStr: condition.opera...\n  PUSH 0\t\t\t   \n  DUP2 \t\t\tion.v\n  SWAP1 \t\t\t condition.v\n  POP \t\t\t condition.v\n  SWAP2 \t\t\t  operatorStr: condition.opera...\n  SWAP1 \t\t\t  operatorStr: condition.opera...\n  POP \t\t\t  operatorStr: condition.opera...\n  JUMP \t\t\t  operatorStr: condition.opera...\ntag 54\t\t\t  });\\r\\n    }\\r\\n    \\r\\n    ...\n  JUMPDEST \t\t\t  });\\r\\n    }\\r\\n    \\r\\n    ...\n  PUSH [tag] 142\t\t\tupdated accordingly.\\r\\n    fu...\n  DUP4 \t\t\tion del\n  PUSH [tag] 52\t\t\tupdated accordingly.\\r\\n    fu...\n  JUMP \t\t\tupdated accordingly.\\r\\n    fu...\ntag 142\t\t\tupdated accordingly.\\r\\n    fu...\n  JUMPDEST \t\t\tupdated accordingly.\\r\\n    fu...\n  PUSH [tag] 143\t\t\tuint256 tokenID, uint64 reques...\n  PUSH [tag] 144\t\t\t    require(_allTokenIDs.conta...\n  DUP3 \t\t\t.contains(tokenI\n  PUSH [tag] 53\t\t\t    require(_allTokenIDs.conta...\n  JUMP \t\t\t    require(_allTokenIDs.conta...\ntag 144\t\t\t    require(_allTokenIDs.conta...\n  JUMPDEST \t\t\t    require(_allTokenIDs.conta...\n  DUP5 \t\t\t {\\r\\n  \n  DUP5 \t\t\t pub\n  SLOAD \t\t\testID) publ\n  PUSH [tag] 49\t\t\tuint256 tokenID, uint64 reques...\n  JUMP \t\t\tuint256 tokenID, uint64 reques...\ntag 143\t\t\tuint256 tokenID, uint64 reques...\n  JUMPDEST \t\t\tuint256 tokenID, uint64 reques...\n  DUP3 \t\t\tdRol\n  SSTORE \t\t\tquestAndRole(uint256 tokenID, ...\n  POP \t\t\t  // The array proofRequestIDs...\n  POP \t\t\t  });\\r\\n    }\\r\\n    \\r\\n    ...\n  POP \t\t\t  });\\r\\n    }\\r\\n    \\r\\n    ...\n  POP \t\t\t  });\\r\\n    }\\r\\n    \\r\\n    ...\n  JUMP \t\t\t  });\\r\\n    }\\r\\n    \\r\\n    ...\ntag 55\t\t\toes not exist\");\\r\\n        re...\n  JUMPDEST \t\t\toes not exist\");\\r\\n        re...\n  PUSH 0\t\t\tID_\n  SWAP1 \t\t\toes not exist\");\\r\\n        re...\n  JUMP \t\t\toes not exist\");\\r\\n        re...\ntag 56\t\t\t[tokenID][msg.sender][requestI...\n  JUMPDEST \t\t\t[tokenID][msg.sender][requestI...\n  PUSH [tag] 147\t\t\t);\\r\\n        // Only delete i...\n  PUSH [tag] 55\t\t\t);\\r\\n        // Only delete i...\n  JUMP \t\t\t);\\r\\n        // Only delete i...\ntag 147\t\t\t);\\r\\n        // Only delete i...\n  JUMPDEST \t\t\t);\\r\\n        // Only delete i...\n  PUSH [tag] 148\t\t\tg condition exists for this us...\n  DUP2 \t\t\tending\n  DUP5 \t\t\tbytes(\n  DUP5 \t\t\tquir\n  PUSH [tag] 54\t\t\tg condition exists for this us...\n  JUMP \t\t\tg condition exists for this us...\ntag 148\t\t\tg condition exists for this us...\n  JUMPDEST \t\t\tg condition exists for this us...\n  POP \t\t\t request does not exist\");\\r\\n...\n  POP \t\t\t[tokenID][msg.sender][requestI...\n  POP \t\t\t[tokenID][msg.sender][requestI...\n  JUMP \t\t\t[tokenID][msg.sender][requestI...\ntag 57\t\t\tkenID][msg.sender][requestID]....\n  JUMPDEST \t\t\tkenID][msg.sender][requestID]....\ntag 150\t\t\tending condition to delete\");\\...\n  JUMPDEST \t\t\tending condition to delete\");\\...\n  DUP2 \t\t\tto \n  DUP2 \t\t\tditio\n  LT \t\t\tcondition to d\n  ISZERO \t\t\tending condition to delete\");\\...\n  PUSH [tag] 152\t\t\tending condition to delete\");\\...\n  JUMPI \t\t\tending condition to delete\");\\...\n  PUSH [tag] 153\t\t\tofRequest_role[tokenID][msg.se...\n  PUSH 0\t\t\te\n  DUP3 \t\t\tnder]\n  PUSH [tag] 56\t\t\tofRequest_role[tokenID][msg.se...\n  JUMP \t\t\tofRequest_role[tokenID][msg.se...\ntag 153\t\t\tofRequest_role[tokenID][msg.se...\n  JUMPDEST \t\t\tofRequest_role[tokenID][msg.se...\n  PUSH 1\t\t\te\n  DUP2 \t\t\t  del\n  ADD \t\t\t      delete \n  SWAP1 \t\t\tte\");\\r\\n        delete \n  POP \t\t\tte\");\\r\\n        delete \n  PUSH [tag] 150\t\t\tending condition to delete\");\\...\n  JUMP \t\t\tending condition to delete\");\\...\ntag 152\t\t\tending condition to delete\");\\...\n  JUMPDEST \t\t\tending condition to delete\");\\...\n  POP \t\t\tkenID][msg.sender][requestID]....\n  POP \t\t\tkenID][msg.sender][requestID]....\n  JUMP \t\t\tkenID][msg.sender][requestID]....\ntag 58\t\t\tte spendingConditions[tokenID]...\n  JUMPDEST \t\t\tte spendingConditions[tokenID]...\n  PUSH 1F\t\t\t-p\n  DUP3 \t\t\tp-a\n  GT \t\t\tswap-and-po\n  ISZERO \t\t\ty (swap-and-pop technique)\\r\\n...\n  PUSH [tag] 155\t\t\ty (swap-and-pop technique)\\r\\n...\n  JUMPI \t\t\ty (swap-and-pop technique)\\r\\n...\n  PUSH [tag] 156\t\t\t256 i = 0; i < proofRequestIDs...\n  DUP2 \t\t\tength\n  PUSH [tag] 46\t\t\t256 i = 0; i < proofRequestIDs...\n  JUMP \t\t\t256 i = 0; i < proofRequestIDs...\ntag 156\t\t\t256 i = 0; i < proofRequestIDs...\n  JUMPDEST \t\t\t256 i = 0; i < proofRequestIDs...\n  PUSH [tag] 157\t\t\t requestID) {\\r\\n             ...\n  DUP5 \t\t\t          \n  PUSH [tag] 47\t\t\t requestID) {\\r\\n             ...\n  JUMP \t\t\t requestID) {\\r\\n             ...\ntag 157\t\t\t requestID) {\\r\\n             ...\n  JUMPDEST \t\t\t requestID) {\\r\\n             ...\n  DUP2 \t\t\ttIDs[i] \n  ADD \t\t\tquestIDs[i] == requestID) {\\r\\...\n  PUSH 20\t\t\t  \n  DUP6 \t\t\t   }\\r\\n    \n  LT \t\t\t      }\\r\\n        }\n  ISZERO \t\t\t         }\\r\\n        }\\r\\n   ...\n  PUSH [tag] 158\t\t\t         }\\r\\n        }\\r\\n   ...\n  JUMPI \t\t\t         }\\r\\n        }\\r\\n   ...\n  DUP2 \t\t\tversalVe\n  SWAP1 \t\t\t   }\\r\\n\\r\\n    UniversalVe\n  POP \t\t\t   }\\r\\n\\r\\n    UniversalVe\ntag 158\t\t\t         }\\r\\n        }\\r\\n   ...\n  JUMPDEST \t\t\t         }\\r\\n        }\\r\\n   ...\n  PUSH [tag] 159\t\t\terifier;\\r\\n\\r\\n    constructo...\n  PUSH [tag] 160\t\t\t address initialOwner,\n  DUP6 \t\t\tner\n  PUSH [tag] 47\t\t\t address initialOwner,\n  JUMP \t\t\t address initialOwner,\ntag 160\t\t\t address initialOwner,\n  JUMPDEST \t\t\t address initialOwner,\n  DUP4 \t\t\tverifier\n  ADD \t\t\tier verifier_, address initial...\n  DUP3 \t\t\tniversalVer\n  PUSH [tag] 57\t\t\terifier;\\r\\n\\r\\n    constructo...\n  JUMP \t\t\terifier;\\r\\n\\r\\n    constructo...\ntag 159\t\t\terifier;\\r\\n\\r\\n    constructo...\n  JUMPDEST \t\t\terifier;\\r\\n\\r\\n    constructo...\n  POP \t\t\t technique)\\r\\n        for (ui...\n  POP \t\t\t technique)\\r\\n        for (ui...\ntag 155\t\t\ty (swap-and-pop technique)\\r\\n...\n  JUMPDEST \t\t\ty (swap-and-pop technique)\\r\\n...\n  POP \t\t\tte spendingConditions[tokenID]...\n  POP \t\t\tte spendingConditions[tokenID]...\n  POP \t\t\tte spendingConditions[tokenID]...\n  JUMP \t\t\tte spendingConditions[tokenID]...\ntag 59\t\t\t ERC1155(uri_)\\r\\n    Ownable(...\n  JUMPDEST \t\t\t ERC1155(uri_)\\r\\n    Ownable(...\n  PUSH 0\t\t\t    veri\n  DUP3 \t\t\terror\n  DUP3 \t\t\tusto\n  SHR \t\t\t// Custom error \n  SWAP1 \t\t\tfier_;\\r\\n    }\\r\\n\\r\\n    // ...\n  POP \t\t\tfier_;\\r\\n    }\\r\\n\\r\\n    // ...\n  SWAP3 \t\t\t ERC1155(uri_)\\r\\n    Ownable(...\n  SWAP2 \t\t\t ERC1155(uri_)\\r\\n    Ownable(...\n  POP \t\t\t ERC1155(uri_)\\r\\n    Ownable(...\n  POP \t\t\t ERC1155(uri_)\\r\\n    Ownable(...\n  JUMP \t\t\t ERC1155(uri_)\\r\\n    Ownable(...\ntag 60\t\t\tcheck if token id already take...\n  JUMPDEST \t\t\tcheck if token id already take...\n  PUSH 0\t\t\tg new \n  PUSH [tag] 163\t\t\tken(uint256 tokenID);\\r\\n\\r\\n ...\n  PUSH 0\t\t\te\n  NOT \t\t\t Token\n  DUP5 \t\t\trts w\n  PUSH 8\t\t\te\n  MUL \t\t\t// Reverts wi\n  PUSH [tag] 59\t\t\tken(uint256 tokenID);\\r\\n\\r\\n ...\n  JUMP \t\t\tken(uint256 tokenID);\\r\\n\\r\\n ...\ntag 163\t\t\tken(uint256 tokenID);\\r\\n\\r\\n ...\n  JUMPDEST \t\t\tken(uint256 tokenID);\\r\\n\\r\\n ...\n  NOT \t\t\tIDTaken(uint256 tokenID);\\r\\n\\...\n  DUP1 \t\t\tn re\n  DUP4 \t\t\t’t b\n  AND \t\t\thasn’t been reg\n  SWAP2 \t\t\tif the ID hasn’t been reg\n  POP \t\t\tif the ID hasn’t been reg\n  POP \t\t\token)\\r\\n    error TokenIDTake...\n  SWAP3 \t\t\tcheck if token id already take...\n  SWAP2 \t\t\tcheck if token id already take...\n  POP \t\t\tcheck if token id already take...\n  POP \t\t\tcheck if token id already take...\n  JUMP \t\t\tcheck if token id already take...\ntag 61\t\t\t.\\r\\n    error TokenIDNotFound...\n  JUMPDEST \t\t\t.\\r\\n    error TokenIDNotFound...\n  PUSH 0\t\t\ten b\n  PUSH [tag] 165\t\t\t the name.\\r\\n    /// Anyone c...\n  DUP4 \t\t\te c\n  DUP4 \t\t\t Any\n  PUSH [tag] 60\t\t\t the name.\\r\\n    /// Anyone c...\n  JUMP \t\t\t the name.\\r\\n    /// Anyone c...\ntag 165\t\t\t the name.\\r\\n    /// Anyone c...\n  JUMPDEST \t\t\t the name.\\r\\n    /// Anyone c...\n  SWAP2 \t\t\td assign the name.\\r\\n    /// ...\n  POP \t\t\td assign the name.\\r\\n    /// ...\n  DUP3 \t\t\tken\n  PUSH 2\t\t\t \n  MUL \t\t\tnt a token,\n  DUP3 \t\t\t to \n  OR \t\t\tion to mint a token, \n  SWAP1 \t\t\tis function to mint a token, \n  POP \t\t\tis function to mint a token, \n  SWAP3 \t\t\t.\\r\\n    error TokenIDNotFound...\n  SWAP2 \t\t\t.\\r\\n    error TokenIDNotFound...\n  POP \t\t\t.\\r\\n    error TokenIDNotFound...\n  POP \t\t\t.\\r\\n    error TokenIDNotFound...\n  JUMP \t\t\t.\\r\\n    error TokenIDNotFound...\ntag 20\t\t\t purposes.\\r\\n    /// In produ...\n  JUMPDEST \t\t\t purposes.\\r\\n    /// In produ...\n  PUSH [tag] 167\t\t\tThe function no longer require...\n  DUP3 \t\t\the \n  PUSH [tag] 43\t\t\tThe function no longer require...\n  JUMP \t\t\tThe function no longer require...\ntag 167\t\t\tThe function no longer require...\n  JUMPDEST \t\t\tThe function no longer require...\n  PUSH FFFFFFFFFFFFFFFF\t\t\tddress to, uint256\n  DUP2 \t\t\ttToken\n  GT \t\t\tmintToken(address to, uint256 \n  ISZERO \t\t\ton mintToken(address to, uint2...\n  PUSH [tag] 168\t\t\ton mintToken(address to, uint2...\n  JUMPI \t\t\ton mintToken(address to, uint2...\n  PUSH [tag] 169\t\t\tunt, bytes calldat\n  PUSH [tag] 35\t\t\tunt, bytes calldat\n  JUMP \t\t\tunt, bytes calldat\ntag 169\t\t\tunt, bytes calldat\n  JUMPDEST \t\t\tunt, bytes calldat\ntag 168\t\t\ton mintToken(address to, uint2...\n  JUMPDEST \t\t\ton mintToken(address to, uint2...\n  PUSH [tag] 170\t\t\tme) external {\\r\\n        requ...\n  DUP3 \t\t\tbyte\n  SLOAD \t\t\tquire(bytes\n  PUSH [tag] 45\t\t\tme) external {\\r\\n        requ...\n  JUMP \t\t\tme) external {\\r\\n        requ...\ntag 170\t\t\tme) external {\\r\\n        requ...\n  JUMPDEST \t\t\tme) external {\\r\\n        requ...\n  PUSH [tag] 171\t\t\tnt256 tokenID = 0;\\r\\n        ...\n  DUP3 \t\t\tt256[]\n  DUP3 \t\t\t     u\n  DUP6 \t\t\t;\\r\\n \n  PUSH [tag] 58\t\t\tnt256 tokenID = 0;\\r\\n        ...\n  JUMP \t\t\tnt256 tokenID = 0;\\r\\n        ...\ntag 171\t\t\tnt256 tokenID = 0;\\r\\n        ...\n  JUMPDEST \t\t\tnt256 tokenID = 0;\\r\\n        ...\n  PUSH 0\t\t\ta\n  PUSH 20\t\t\tint2\n  SWAP1 \t\t\t       for (uint2\n  POP \t\t\t       for (uint2\n  PUSH 1F\t\t\t+)\n  DUP4 \t\t\tngth; \n  GT \t\t\t.length; i++) \n  PUSH 1\t\t\t \n  DUP2 \t\t\t      if (keccak256(bytes(toke...\n  EQ \t\t\t      if (keccak256(bytes(toke...\n  PUSH [tag] 173\t\t\t      if (keccak256(bytes(toke...\n  JUMPI \t\t\t      if (keccak256(bytes(toke...\n  PUSH 0\t\t\t)\n  DUP5 \t\t\t while\n  ISZERO \t\t\t  } while (_allTokenIDs.contai...\n  PUSH [tag] 174\t\t\t  } while (_allTokenIDs.contai...\n  JUMPI \t\t\t  } while (_allTokenIDs.contai...\n  DUP3 \t\t\t   requir\n  DUP8 \t\t\t   \n  ADD \t\t\t            require\n  MLOAD \t\t\tD));\\r\\n            require(\n  SWAP1 \t\t\tains(newID));\\r\\n            r...\n  POP \t\t\tains(newID));\\r\\n            r...\ntag 174\t\t\t  } while (_allTokenIDs.contai...\n  JUMPDEST \t\t\t  } while (_allTokenIDs.contai...\n  PUSH [tag] 175\t\t\t;\\r\\n            _mint(to, new...\n  DUP6 \t\t\ttokenN\n  DUP3 \t\t\t     \n  PUSH [tag] 61\t\t\t;\\r\\n            _mint(to, new...\n  JUMP \t\t\t;\\r\\n            _mint(to, new...\ntag 175\t\t\t;\\r\\n            _mint(to, new...\n  JUMPDEST \t\t\t;\\r\\n            _mint(to, new...\n  DUP7 \t\t\taken\n  SSTORE \t\t\tokenIDTaken\");\\r\\n            ...\n  POP \t\t\tfind unique short token ID\");\\...\n  PUSH [tag] 172\t\t\ti < ids.length; i++) {\\r\\n    ...\n  JUMP \t\t\ti < ids.length; i++) {\\r\\n    ...\ntag 173\t\t\t      if (keccak256(bytes(toke...\n  JUMPDEST \t\t\t      if (keccak256(bytes(toke...\n  PUSH 1F\t\t\tcak2\n  NOT \t\t\t keccak25\n  DUP5 \t\t\ti]])) \n  AND \t\t\tids[i]])) == keccak256\n  PUSH [tag] 176\t\t\t      tokenID = ids[i];\\r\\n   ...\n  DUP7 \t\t\t    \n  PUSH [tag] 46\t\t\t      tokenID = ids[i];\\r\\n   ...\n  JUMP \t\t\t      tokenID = ids[i];\\r\\n   ...\ntag 176\t\t\t      tokenID = ids[i];\\r\\n   ...\n  JUMPDEST \t\t\t      tokenID = ids[i];\\r\\n   ...\n  PUSH 0\t\t\t \ntag 177\t\t\treak;\\r\\n            }\\r\\n    ...\n  JUMPDEST \t\t\treak;\\r\\n            }\\r\\n    ...\n  DUP3 \t\t\t     }\\r\n  DUP2 \t\t\t \n  LT \t\t\t           }\\r\\n\n  ISZERO \t\t\treak;\\r\\n            }\\r\\n    ...\n  PUSH [tag] 179\t\t\treak;\\r\\n            }\\r\\n    ...\n  JUMPI \t\t\treak;\\r\\n            }\\r\\n    ...\n  DUP5 \t\t\t data);\\r\\n\n  DUP10 \t\t\toun\n  ADD \t\t\t, amount, data);\\r\\n \n  MLOAD \t\t\tokenID, amount, data);\\r\\n  \n  DUP3 \t\t\tnt(to,\n  SSTORE \t\t\t    _mint(to, tokenID, amount,...\n  PUSH 1\t\t\ta\n  DUP3 \t\t\tenerat\n  ADD \t\t\t// Generate a \n  SWAP2 \t\t\t          // Generate a \n  POP \t\t\t          // Generate a \n  PUSH 20\t\t\t u\n  DUP6 \t\t\t         \n  ADD \t\t\t9)\\r\\n            ui\n  SWAP5 \t\t\tID (1000–99999)\\r\\n           ...\n  POP \t\t\tID (1000–99999)\\r\\n           ...\n  PUSH 20\t\t\t    \n  DUP2 \t\t\t \n  ADD \t\t\t}\\r\\n        i\n  SWAP1 \t\t\t     }\\r\\n        i\n  POP \t\t\t     }\\r\\n        i\n  PUSH [tag] 177\t\t\treak;\\r\\n            }\\r\\n    ...\n  JUMP \t\t\treak;\\r\\n            }\\r\\n    ...\ntag 179\t\t\treak;\\r\\n            }\\r\\n    ...\n  JUMPDEST \t\t\treak;\\r\\n            }\\r\\n    ...\n  DUP7 \t\t\t = 0;\\r\n  DUP4 \t\t\t attemp\n  LT \t\t\t256 attempts = 0;\\r\\n\n  ISZERO \t\t\tint256 attempts = 0;\\r\\n      ...\n  PUSH [tag] 180\t\t\tint256 attempts = 0;\\r\\n      ...\n  JUMPI \t\t\tint256 attempts = 0;\\r\\n      ...\n  DUP5 \t\t\tint256(ke\n  DUP10 \t\t\t + \n  ADD \t\t\t1000 + (uint256(kec\n  MLOAD \t\t\twID = 1000 + (uint256(kecc\n  PUSH [tag] 181\t\t\testamp, block.prevrandao, to, ...\n  PUSH 1F\t\t\tts))\n  DUP10 \t\t\t, atte\n  AND \t\t\tname, attempts)))\n  DUP3 \t\t\tandao, to\n  PUSH [tag] 60\t\t\testamp, block.prevrandao, to, ...\n  JUMP \t\t\testamp, block.prevrandao, to, ...\ntag 181\t\t\testamp, block.prevrandao, to, ...\n  JUMPDEST \t\t\testamp, block.prevrandao, to, ...\n  DUP4 \t\t\tlock.t\n  SSTORE \t\t\tacked(block.timestamp, block.p...\n  POP \t\t\t           do {\\r\\n           ...\ntag 180\t\t\tint256 attempts = 0;\\r\\n      ...\n  JUMPDEST \t\t\tint256 attempts = 0;\\r\\n      ...\n  PUSH 1\t\t\tr\n  PUSH 2\t\t\te\n  DUP9 \t\t\t      \n  MUL \t\t\t           req\n  ADD \t\t\t               require\n  DUP9 \t\t\t++;\\r\n  SSTORE \t\t\tttempts++;\\r\\n                ...\n  POP \t\t\tf (keccak256(bytes(tokenName[i...\n  POP \t\t\tf (keccak256(bytes(tokenName[i...\n  POP \t\t\tf (keccak256(bytes(tokenName[i...\ntag 172\t\t\ti < ids.length; i++) {\\r\\n    ...\n  JUMPDEST \t\t\ti < ids.length; i++) {\\r\\n    ...\n  POP \t\t\ti < ids.length; i++) {\\r\\n    ...\n  POP \t\t\tific role.\\r\\n    /// @dev The...\n  POP \t\t\tific role.\\r\\n    /// @dev The...\n  POP \t\t\tific role.\\r\\n    /// @dev The...\n  POP \t\t\t purposes.\\r\\n    /// In produ...\n  POP \t\t\t purposes.\\r\\n    /// In produ...\n  JUMP \t\t\t purposes.\\r\\n    /// In produ...\ntag 17\t\t\tcontract PMNoAdmin is ERC1155,...\n  JUMPDEST \t\t\tcontract PMNoAdmin is ERC1155,...\n  PUSH #[$] 0000000000000000000000000000000000000000000000000000000000000000\t\t\tcontract PMNoAdmin is ERC1155,...\n  DUP1 \t\t\tcontract PMNoAdmin is ERC1155,...\n  PUSH [$] 0000000000000000000000000000000000000000000000000000000000000000\t\t\tcontract PMNoAdmin is ERC1155,...\n  PUSH 0\t\t\tcontract PMNoAdmin is ERC1155,...\n  CODECOPY \t\t\tcontract PMNoAdmin is ERC1155,...\n  PUSH 0\t\t\tcontract PMNoAdmin is ERC1155,...\n  RETURN \t\t\tcontract PMNoAdmin is ERC1155,...\n.data\n  0:\n    .code\n      PUSH 80\t\t\tcontract PMNoAdmin is ERC1155,...\n      PUSH 40\t\t\tcontract PMNoAdmin is ERC1155,...\n      MSTORE \t\t\tcontract PMNoAdmin is ERC1155,...\n      CALLVALUE \t\t\tcontract PMNoAdmin is ERC1155,...\n      DUP1 \t\t\tcontract PMNoAdmin is ERC1155,...\n      ISZERO \t\t\tcontract PMNoAdmin is ERC1155,...\n      PUSH [tag] 1\t\t\tcontract PMNoAdmin is ERC1155,...\n      JUMPI \t\t\tcontract PMNoAdmin is ERC1155,...\n      PUSH 0\t\t\tcontract PMNoAdmin is ERC1155,...\n      DUP1 \t\t\tcontract PMNoAdmin is ERC1155,...\n      REVERT \t\t\tcontract PMNoAdmin is ERC1155,...\n    tag 1\t\t\tcontract PMNoAdmin is ERC1155,...\n      JUMPDEST \t\t\tcontract PMNoAdmin is ERC1155,...\n      POP \t\t\tcontract PMNoAdmin is ERC1155,...\n      PUSH 4\t\t\tcontract PMNoAdmin is ERC1155,...\n      CALLDATASIZE \t\t\tcontract PMNoAdmin is ERC1155,...\n      LT \t\t\tcontract PMNoAdmin is ERC1155,...\n      PUSH [tag] 2\t\t\tcontract PMNoAdmin is ERC1155,...\n      JUMPI \t\t\tcontract PMNoAdmin is ERC1155,...\n      PUSH 0\t\t\tcontract PMNoAdmin is ERC1155,...\n      CALLDATALOAD \t\t\tcontract PMNoAdmin is ERC1155,...\n      PUSH E0\t\t\tcontract PMNoAdmin is ERC1155,...\n      SHR \t\t\tcontract PMNoAdmin is ERC1155,...\n      DUP1 \t\t\tcontract PMNoAdmin is ERC1155,...\n      PUSH 715018A6\t\t\tcontract PMNoAdmin is ERC1155,...\n      GT \t\t\tcontract PMNoAdmin is ERC1155,...\n      PUSH [tag] 28\t\t\tcontract PMNoAdmin is ERC1155,...\n      JUMPI \t\t\tcontract PMNoAdmin is ERC1155,...\n      DUP1 \t\t\tcontract PMNoAdmin is ERC1155,...\n      PUSH BCE68AC3\t\t\tcontract PMNoAdmin is ERC1155,...\n      GT \t\t\tcontract PMNoAdmin is ERC1155,...\n      PUSH [tag] 29\t\t\tcontract PMNoAdmin is ERC1155,...\n      JUMPI \t\t\tcontract PMNoAdmin is ERC1155,...\n      DUP1 \t\t\tcontract PMNoAdmin is ERC1155,...\n      PUSH E985E9C5\t\t\tcontract PMNoAdmin is ERC1155,...\n      GT \t\t\tcontract PMNoAdmin is ERC1155,...\n      PUSH [tag] 30\t\t\tcontract PMNoAdmin is ERC1155,...\n      JUMPI \t\t\tcontract PMNoAdmin is ERC1155,...\n      DUP1 \t\t\tcontract PMNoAdmin is ERC1155,...\n      PUSH E985E9C5\t\t\tcontract PMNoAdmin is ERC1155,...\n      EQ \t\t\tcontract PMNoAdmin is ERC1155,...\n      PUSH [tag] 24\t\t\tcontract PMNoAdmin is ERC1155,...\n      JUMPI \t\t\tcontract PMNoAdmin is ERC1155,...\n      DUP1 \t\t\tcontract PMNoAdmin is ERC1155,...\n      PUSH F242432A\t\t\tcontract PMNoAdmin is ERC1155,...\n      EQ \t\t\tcontract PMNoAdmin is ERC1155,...\n      PUSH [tag] 25\t\t\tcontract PMNoAdmin is ERC1155,...\n      JUMPI \t\t\tcontract PMNoAdmin is ERC1155,...\n      DUP1 \t\t\tcontract PMNoAdmin is ERC1155,...\n      PUSH F2FDE38B\t\t\tcontract PMNoAdmin is ERC1155,...\n      EQ \t\t\tcontract PMNoAdmin is ERC1155,...\n      PUSH [tag] 26\t\t\tcontract PMNoAdmin is ERC1155,...\n      JUMPI \t\t\tcontract PMNoAdmin is ERC1155,...\n      DUP1 \t\t\tcontract PMNoAdmin is ERC1155,...\n      PUSH F5298ACA\t\t\tcontract PMNoAdmin is ERC1155,...\n      EQ \t\t\tcontract PMNoAdmin is ERC1155,...\n      PUSH [tag] 27\t\t\tcontract PMNoAdmin is ERC1155,...\n      JUMPI \t\t\tcontract PMNoAdmin is ERC1155,...\n      PUSH [tag] 2\t\t\tcontract PMNoAdmin is ERC1155,...\n      JUMP \t\t\tcontract PMNoAdmin is ERC1155,...\n    tag 30\t\t\tcontract PMNoAdmin is ERC1155,...\n      JUMPDEST \t\t\tcontract PMNoAdmin is ERC1155,...\n      DUP1 \t\t\tcontract PMNoAdmin is ERC1155,...\n      PUSH BCE68AC3\t\t\tcontract PMNoAdmin is ERC1155,...\n      EQ \t\t\tcontract PMNoAdmin is ERC1155,...\n      PUSH [tag] 21\t\t\tcontract PMNoAdmin is ERC1155,...\n      JUMPI \t\t\tcontract PMNoAdmin is ERC1155,...\n      DUP1 \t\t\tcontract PMNoAdmin is ERC1155,...\n      PUSH D121CDC0\t\t\tcontract PMNoAdmin is ERC1155,...\n      EQ \t\t\tcontract PMNoAdmin is ERC1155,...\n      PUSH [tag] 22\t\t\tcontract PMNoAdmin is ERC1155,...\n      JUMPI \t\t\tcontract PMNoAdmin is ERC1155,...\n      DUP1 \t\t\tcontract PMNoAdmin is ERC1155,...\n      PUSH E725F877\t\t\tcontract PMNoAdmin is ERC1155,...\n      EQ \t\t\tcontract PMNoAdmin is ERC1155,...\n      PUSH [tag] 23\t\t\tcontract PMNoAdmin is ERC1155,...\n      JUMPI \t\t\tcontract PMNoAdmin is ERC1155,...\n      PUSH [tag] 2\t\t\tcontract PMNoAdmin is ERC1155,...\n      JUMP \t\t\tcontract PMNoAdmin is ERC1155,...\n    tag 29\t\t\tcontract PMNoAdmin is ERC1155,...\n      JUMPDEST \t\t\tcontract PMNoAdmin is ERC1155,...\n      DUP1 \t\t\tcontract PMNoAdmin is ERC1155,...\n      PUSH 715018A6\t\t\tcontract PMNoAdmin is ERC1155,...\n      EQ \t\t\tcontract PMNoAdmin is ERC1155,...\n      PUSH [tag] 15\t\t\tcontract PMNoAdmin is ERC1155,...\n      JUMPI \t\t\tcontract PMNoAdmin is ERC1155,...\n      DUP1 \t\t\tcontract PMNoAdmin is ERC1155,...\n      PUSH 7330DD84\t\t\tcontract PMNoAdmin is ERC1155,...\n      EQ \t\t\tcontract PMNoAdmin is ERC1155,...\n      PUSH [tag] 16\t\t\tcontract PMNoAdmin is ERC1155,...\n      JUMPI \t\t\tcontract PMNoAdmin is ERC1155,...\n      DUP1 \t\t\tcontract PMNoAdmin is ERC1155,...\n      PUSH 7578B248\t\t\tcontract PMNoAdmin is ERC1155,...\n      EQ \t\t\tcontract PMNoAdmin is ERC1155,...\n      PUSH [tag] 17\t\t\tcontract PMNoAdmin is ERC1155,...\n      JUMPI \t\t\tcontract PMNoAdmin is ERC1155,...\n      DUP1 \t\t\tcontract PMNoAdmin is ERC1155,...\n      PUSH 8DA5CB5B\t\t\tcontract PMNoAdmin is ERC1155,...\n      EQ \t\t\tcontract PMNoAdmin is ERC1155,...\n      PUSH [tag] 18\t\t\tcontract PMNoAdmin is ERC1155,...\n      JUMPI \t\t\tcontract PMNoAdmin is ERC1155,...\n      DUP1 \t\t\tcontract PMNoAdmin is ERC1155,...\n      PUSH 94AD436D\t\t\tcontract PMNoAdmin is ERC1155,...\n      EQ \t\t\tcontract PMNoAdmin is ERC1155,...\n      PUSH [tag] 19\t\t\tcontract PMNoAdmin is ERC1155,...\n      JUMPI \t\t\tcontract PMNoAdmin is ERC1155,...\n      DUP1 \t\t\tcontract PMNoAdmin is ERC1155,...\n      PUSH A22CB465\t\t\tcontract PMNoAdmin is ERC1155,...\n      EQ \t\t\tcontract PMNoAdmin is ERC1155,...\n      PUSH [tag] 20\t\t\tcontract PMNoAdmin is ERC1155,...\n      JUMPI \t\t\tcontract PMNoAdmin is ERC1155,...\n      PUSH [tag] 2\t\t\tcontract PMNoAdmin is ERC1155,...\n      JUMP \t\t\tcontract PMNoAdmin is ERC1155,...\n    tag 28\t\t\tcontract PMNoAdmin is ERC1155,...\n      JUMPDEST \t\t\tcontract PMNoAdmin is ERC1155,...\n      DUP1 \t\t\tcontract PMNoAdmin is ERC1155,...\n      PUSH 2EB2C2D6\t\t\tcontract PMNoAdmin is ERC1155,...\n      GT \t\t\tcontract PMNoAdmin is ERC1155,...\n      PUSH [tag] 31\t\t\tcontract PMNoAdmin is ERC1155,...\n      JUMPI \t\t\tcontract PMNoAdmin is ERC1155,...\n      DUP1 \t\t\tcontract PMNoAdmin is ERC1155,...\n      PUSH 2EB2C2D6\t\t\tcontract PMNoAdmin is ERC1155,...\n      EQ \t\t\tcontract PMNoAdmin is ERC1155,...\n      PUSH [tag] 9\t\t\tcontract PMNoAdmin is ERC1155,...\n      JUMPI \t\t\tcontract PMNoAdmin is ERC1155,...\n      DUP1 \t\t\tcontract PMNoAdmin is ERC1155,...\n      PUSH 31AE450B\t\t\tcontract PMNoAdmin is ERC1155,...\n      EQ \t\t\tcontract PMNoAdmin is ERC1155,...\n      PUSH [tag] 10\t\t\tcontract PMNoAdmin is ERC1155,...\n      JUMPI \t\t\tcontract PMNoAdmin is ERC1155,...\n      DUP1 \t\t\tcontract PMNoAdmin is ERC1155,...\n      PUSH 4E1273F4\t\t\tcontract PMNoAdmin is ERC1155,...\n      EQ \t\t\tcontract PMNoAdmin is ERC1155,...\n      PUSH [tag] 11\t\t\tcontract PMNoAdmin is ERC1155,...\n      JUMPI \t\t\tcontract PMNoAdmin is ERC1155,...\n      DUP1 \t\t\tcontract PMNoAdmin is ERC1155,...\n      PUSH 50FBDB2D\t\t\tcontract PMNoAdmin is ERC1155,...\n      EQ \t\t\tcontract PMNoAdmin is ERC1155,...\n      PUSH [tag] 12\t\t\tcontract PMNoAdmin is ERC1155,...\n      JUMPI \t\t\tcontract PMNoAdmin is ERC1155,...\n      DUP1 \t\t\tcontract PMNoAdmin is ERC1155,...\n      PUSH 5F54C999\t\t\tcontract PMNoAdmin is ERC1155,...\n      EQ \t\t\tcontract PMNoAdmin is ERC1155,...\n      PUSH [tag] 13\t\t\tcontract PMNoAdmin is ERC1155,...\n      JUMPI \t\t\tcontract PMNoAdmin is ERC1155,...\n      DUP1 \t\t\tcontract PMNoAdmin is ERC1155,...\n      PUSH 70480275\t\t\tcontract PMNoAdmin is ERC1155,...\n      EQ \t\t\tcontract PMNoAdmin is ERC1155,...\n      PUSH [tag] 14\t\t\tcontract PMNoAdmin is ERC1155,...\n      JUMPI \t\t\tcontract PMNoAdmin is ERC1155,...\n      PUSH [tag] 2\t\t\tcontract PMNoAdmin is ERC1155,...\n      JUMP \t\t\tcontract PMNoAdmin is ERC1155,...\n    tag 31\t\t\tcontract PMNoAdmin is ERC1155,...\n      JUMPDEST \t\t\tcontract PMNoAdmin is ERC1155,...\n      DUP1 \t\t\tcontract PMNoAdmin is ERC1155,...\n      PUSH FDD58E\t\t\tcontract PMNoAdmin is ERC1155,...\n      EQ \t\t\tcontract PMNoAdmin is ERC1155,...\n      PUSH [tag] 3\t\t\tcontract PMNoAdmin is ERC1155,...\n      JUMPI \t\t\tcontract PMNoAdmin is ERC1155,...\n      DUP1 \t\t\tcontract PMNoAdmin is ERC1155,...\n      PUSH 1FFC9A7\t\t\tcontract PMNoAdmin is ERC1155,...\n      EQ \t\t\tcontract PMNoAdmin is ERC1155,...\n      PUSH [tag] 4\t\t\tcontract PMNoAdmin is ERC1155,...\n      JUMPI \t\t\tcontract PMNoAdmin is ERC1155,...\n      DUP1 \t\t\tcontract PMNoAdmin is ERC1155,...\n      PUSH E89341C\t\t\tcontract PMNoAdmin is ERC1155,...\n      EQ \t\t\tcontract PMNoAdmin is ERC1155,...\n      PUSH [tag] 5\t\t\tcontract PMNoAdmin is ERC1155,...\n      JUMPI \t\t\tcontract PMNoAdmin is ERC1155,...\n      DUP1 \t\t\tcontract PMNoAdmin is ERC1155,...\n      PUSH 1785F53C\t\t\tcontract PMNoAdmin is ERC1155,...\n      EQ \t\t\tcontract PMNoAdmin is ERC1155,...\n      PUSH [tag] 6\t\t\tcontract PMNoAdmin is ERC1155,...\n      JUMPI \t\t\tcontract PMNoAdmin is ERC1155,...\n      DUP1 \t\t\tcontract PMNoAdmin is ERC1155,...\n      PUSH 2B7AC3F3\t\t\tcontract PMNoAdmin is ERC1155,...\n      EQ \t\t\tcontract PMNoAdmin is ERC1155,...\n      PUSH [tag] 7\t\t\tcontract PMNoAdmin is ERC1155,...\n      JUMPI \t\t\tcontract PMNoAdmin is ERC1155,...\n      DUP1 \t\t\tcontract PMNoAdmin is ERC1155,...\n      PUSH 2DBFF950\t\t\tcontract PMNoAdmin is ERC1155,...\n      EQ \t\t\tcontract PMNoAdmin is ERC1155,...\n      PUSH [tag] 8\t\t\tcontract PMNoAdmin is ERC1155,...\n      JUMPI \t\t\tcontract PMNoAdmin is ERC1155,...\n    tag 2\t\t\tcontract PMNoAdmin is ERC1155,...\n      JUMPDEST \t\t\tcontract PMNoAdmin is ERC1155,...\n      PUSH 0\t\t\tcontract PMNoAdmin is ERC1155,...\n      DUP1 \t\t\tcontract PMNoAdmin is ERC1155,...\n      REVERT \t\t\tcontract PMNoAdmin is ERC1155,...\n    tag 3\t\t\ten IDs that have ever been min...\n      JUMPDEST \t\t\ten IDs that have ever been min...\n      PUSH [tag] 32\t\t\ten IDs that have ever been min...\n      PUSH 4\t\t\ten IDs that have ever been min...\n      DUP1 \t\t\ten IDs that have ever been min...\n      CALLDATASIZE \t\t\ten IDs that have ever been min...\n      SUB \t\t\ten IDs that have ever been min...\n      DUP2 \t\t\ten IDs that have ever been min...\n      ADD \t\t\ten IDs that have ever been min...\n      SWAP1 \t\t\ten IDs that have ever been min...\n      PUSH [tag] 33\t\t\ten IDs that have ever been min...\n      SWAP2 \t\t\ten IDs that have ever been min...\n      SWAP1 \t\t\ten IDs that have ever been min...\n      PUSH [tag] 34\t\t\ten IDs that have ever been min...\n      JUMP \t\t\ten IDs that have ever been min...\n    tag 33\t\t\ten IDs that have ever been min...\n      JUMPDEST \t\t\ten IDs that have ever been min...\n      PUSH [tag] 35\t\t\ten IDs that have ever been min...\n      JUMP \t\t\ten IDs that have ever been min...\n    tag 32\t\t\ten IDs that have ever been min...\n      JUMPDEST \t\t\ten IDs that have ever been min...\n      PUSH 40\t\t\ten IDs that have ever been min...\n      MLOAD \t\t\ten IDs that have ever been min...\n      PUSH [tag] 36\t\t\ten IDs that have ever been min...\n      SWAP2 \t\t\ten IDs that have ever been min...\n      SWAP1 \t\t\ten IDs that have ever been min...\n      PUSH [tag] 37\t\t\ten IDs that have ever been min...\n      JUMP \t\t\ten IDs that have ever been min...\n    tag 36\t\t\ten IDs that have ever been min...\n      JUMPDEST \t\t\ten IDs that have ever been min...\n      PUSH 40\t\t\ten IDs that have ever been min...\n      MLOAD \t\t\ten IDs that have ever been min...\n      DUP1 \t\t\ten IDs that have ever been min...\n      SWAP2 \t\t\ten IDs that have ever been min...\n      SUB \t\t\ten IDs that have ever been min...\n      SWAP1 \t\t\ten IDs that have ever been min...\n      RETURN \t\t\ten IDs that have ever been min...\n    tag 4\t\t\tyOwner {\\r\\n        require(_a...\n      JUMPDEST \t\t\tyOwner {\\r\\n        require(_a...\n      PUSH [tag] 38\t\t\tyOwner {\\r\\n        require(_a...\n      PUSH 4\t\t\tyOwner {\\r\\n        require(_a...\n      DUP1 \t\t\tyOwner {\\r\\n        require(_a...\n      CALLDATASIZE \t\t\tyOwner {\\r\\n        require(_a...\n      SUB \t\t\tyOwner {\\r\\n        require(_a...\n      DUP2 \t\t\tyOwner {\\r\\n        require(_a...\n      ADD \t\t\tyOwner {\\r\\n        require(_a...\n      SWAP1 \t\t\tyOwner {\\r\\n        require(_a...\n      PUSH [tag] 39\t\t\tyOwner {\\r\\n        require(_a...\n      SWAP2 \t\t\tyOwner {\\r\\n        require(_a...\n      SWAP1 \t\t\tyOwner {\\r\\n        require(_a...\n      PUSH [tag] 40\t\t\tyOwner {\\r\\n        require(_a...\n      JUMP \t\t\tyOwner {\\r\\n        require(_a...\n    tag 39\t\t\tyOwner {\\r\\n        require(_a...\n      JUMPDEST \t\t\tyOwner {\\r\\n        require(_a...\n      PUSH [tag] 41\t\t\tyOwner {\\r\\n        require(_a...\n      JUMP \t\t\tyOwner {\\r\\n        require(_a...\n    tag 38\t\t\tyOwner {\\r\\n        require(_a...\n      JUMPDEST \t\t\tyOwner {\\r\\n        require(_a...\n      PUSH 40\t\t\tyOwner {\\r\\n        require(_a...\n      MLOAD \t\t\tyOwner {\\r\\n        require(_a...\n      PUSH [tag] 42\t\t\tyOwner {\\r\\n        require(_a...\n      SWAP2 \t\t\tyOwner {\\r\\n        require(_a...\n      SWAP1 \t\t\tyOwner {\\r\\n        require(_a...\n      PUSH [tag] 43\t\t\tyOwner {\\r\\n        require(_a...\n      JUMP \t\t\tyOwner {\\r\\n        require(_a...\n    tag 42\t\t\tyOwner {\\r\\n        require(_a...\n      JUMPDEST \t\t\tyOwner {\\r\\n        require(_a...\n      PUSH 40\t\t\tyOwner {\\r\\n        require(_a...\n      MLOAD \t\t\tyOwner {\\r\\n        require(_a...\n      DUP1 \t\t\tyOwner {\\r\\n        require(_a...\n      SWAP2 \t\t\tyOwner {\\r\\n        require(_a...\n      SUB \t\t\tyOwner {\\r\\n        require(_a...\n      SWAP1 \t\t\tyOwner {\\r\\n        require(_a...\n      RETURN \t\t\tyOwner {\\r\\n        require(_a...\n    tag 5\t\t\t       require(_isAdmin(msg.se...\n      JUMPDEST \t\t\t       require(_isAdmin(msg.se...\n      PUSH [tag] 44\t\t\t       require(_isAdmin(msg.se...\n      PUSH 4\t\t\t       require(_isAdmin(msg.se...\n      DUP1 \t\t\t       require(_isAdmin(msg.se...\n      CALLDATASIZE \t\t\t       require(_isAdmin(msg.se...\n      SUB \t\t\t       require(_isAdmin(msg.se...\n      DUP2 \t\t\t       require(_isAdmin(msg.se...\n      ADD \t\t\t       require(_isAdmin(msg.se...\n      SWAP1 \t\t\t       require(_isAdmin(msg.se...\n      PUSH [tag] 45\t\t\t       require(_isAdmin(msg.se...\n      SWAP2 \t\t\t       require(_isAdmin(msg.se...\n      SWAP1 \t\t\t       require(_isAdmin(msg.se...\n      PUSH [tag] 46\t\t\t       require(_isAdmin(msg.se...\n      JUMP \t\t\t       require(_isAdmin(msg.se...\n    tag 45\t\t\t       require(_isAdmin(msg.se...\n      JUMPDEST \t\t\t       require(_isAdmin(msg.se...\n      PUSH [tag] 47\t\t\t       require(_isAdmin(msg.se...\n      JUMP \t\t\t       require(_isAdmin(msg.se...\n    tag 44\t\t\t       require(_isAdmin(msg.se...\n      JUMPDEST \t\t\t       require(_isAdmin(msg.se...\n      PUSH 40\t\t\t       require(_isAdmin(msg.se...\n      MLOAD \t\t\t       require(_isAdmin(msg.se...\n      PUSH [tag] 48\t\t\t       require(_isAdmin(msg.se...\n      SWAP2 \t\t\t       require(_isAdmin(msg.se...\n      SWAP1 \t\t\t       require(_isAdmin(msg.se...\n      PUSH [tag] 49\t\t\t       require(_isAdmin(msg.se...\n      JUMP \t\t\t       require(_isAdmin(msg.se...\n    tag 48\t\t\t       require(_isAdmin(msg.se...\n      JUMPDEST \t\t\t       require(_isAdmin(msg.se...\n      PUSH 40\t\t\t       require(_isAdmin(msg.se...\n      MLOAD \t\t\t       require(_isAdmin(msg.se...\n      DUP1 \t\t\t       require(_isAdmin(msg.se...\n      SWAP2 \t\t\t       require(_isAdmin(msg.se...\n      SUB \t\t\t       require(_isAdmin(msg.se...\n      SWAP1 \t\t\t       require(_isAdmin(msg.se...\n      RETURN \t\t\t       require(_isAdmin(msg.se...\n    tag 6\t\t\tfunction removeAdmin(address _...\n      JUMPDEST \t\t\tfunction removeAdmin(address _...\n      PUSH [tag] 50\t\t\tfunction removeAdmin(address _...\n      PUSH 4\t\t\tfunction removeAdmin(address _...\n      DUP1 \t\t\tfunction removeAdmin(address _...\n      CALLDATASIZE \t\t\tfunction removeAdmin(address _...\n      SUB \t\t\tfunction removeAdmin(address _...\n      DUP2 \t\t\tfunction removeAdmin(address _...\n      ADD \t\t\tfunction removeAdmin(address _...\n      SWAP1 \t\t\tfunction removeAdmin(address _...\n      PUSH [tag] 51\t\t\tfunction removeAdmin(address _...\n      SWAP2 \t\t\tfunction removeAdmin(address _...\n      SWAP1 \t\t\tfunction removeAdmin(address _...\n      PUSH [tag] 52\t\t\tfunction removeAdmin(address _...\n      JUMP \t\t\tfunction removeAdmin(address _...\n    tag 51\t\t\tfunction removeAdmin(address _...\n      JUMPDEST \t\t\tfunction removeAdmin(address _...\n      PUSH [tag] 53\t\t\tfunction removeAdmin(address _...\n      JUMP \t\t\tfunction removeAdmin(address _...\n    tag 50\t\t\tfunction removeAdmin(address _...\n      JUMPDEST \t\t\tfunction removeAdmin(address _...\n      STOP \t\t\tfunction removeAdmin(address _...\n    tag 7\t\t\tsalVerifier public verifier;\\r...\n      JUMPDEST \t\t\tsalVerifier public verifier;\\r...\n      PUSH [tag] 54\t\t\tsalVerifier public verifier;\\r...\n      PUSH [tag] 55\t\t\tsalVerifier public verifier;\\r...\n      JUMP \t\t\tsalVerifier public verifier;\\r...\n    tag 54\t\t\tsalVerifier public verifier;\\r...\n      JUMPDEST \t\t\tsalVerifier public verifier;\\r...\n      PUSH 40\t\t\tsalVerifier public verifier;\\r...\n      MLOAD \t\t\tsalVerifier public verifier;\\r...\n      PUSH [tag] 56\t\t\tsalVerifier public verifier;\\r...\n      SWAP2 \t\t\tsalVerifier public verifier;\\r...\n      SWAP1 \t\t\tsalVerifier public verifier;\\r...\n      PUSH [tag] 57\t\t\tsalVerifier public verifier;\\r...\n      JUMP \t\t\tsalVerifier public verifier;\\r...\n    tag 56\t\t\tsalVerifier public verifier;\\r...\n      JUMPDEST \t\t\tsalVerifier public verifier;\\r...\n      PUSH 40\t\t\tsalVerifier public verifier;\\r...\n      MLOAD \t\t\tsalVerifier public verifier;\\r...\n      DUP1 \t\t\tsalVerifier public verifier;\\r...\n      SWAP2 \t\t\tsalVerifier public verifier;\\r...\n      SUB \t\t\tsalVerifier public verifier;\\r...\n      SWAP1 \t\t\tsalVerifier public verifier;\\r...\n      RETURN \t\t\tsalVerifier public verifier;\\r...\n    tag 8\t\t\t mintToken(address to, uint256...\n      JUMPDEST \t\t\t mintToken(address to, uint256...\n      PUSH [tag] 58\t\t\t mintToken(address to, uint256...\n      PUSH 4\t\t\t mintToken(address to, uint256...\n      DUP1 \t\t\t mintToken(address to, uint256...\n      CALLDATASIZE \t\t\t mintToken(address to, uint256...\n      SUB \t\t\t mintToken(address to, uint256...\n      DUP2 \t\t\t mintToken(address to, uint256...\n      ADD \t\t\t mintToken(address to, uint256...\n      SWAP1 \t\t\t mintToken(address to, uint256...\n      PUSH [tag] 59\t\t\t mintToken(address to, uint256...\n      SWAP2 \t\t\t mintToken(address to, uint256...\n      SWAP1 \t\t\t mintToken(address to, uint256...\n      PUSH [tag] 60\t\t\t mintToken(address to, uint256...\n      JUMP \t\t\t mintToken(address to, uint256...\n    tag 59\t\t\t mintToken(address to, uint256...\n      JUMPDEST \t\t\t mintToken(address to, uint256...\n      PUSH [tag] 61\t\t\t mintToken(address to, uint256...\n      JUMP \t\t\t mintToken(address to, uint256...\n    tag 58\t\t\t mintToken(address to, uint256...\n      JUMPDEST \t\t\t mintToken(address to, uint256...\n      STOP \t\t\t mintToken(address to, uint256...\n    tag 9\t\t\tafeBatchTransferFrom(\\r\\n     ...\n      JUMPDEST \t\t\tafeBatchTransferFrom(\\r\\n     ...\n      PUSH [tag] 62\t\t\tafeBatchTransferFrom(\\r\\n     ...\n      PUSH 4\t\t\tafeBatchTransferFrom(\\r\\n     ...\n      DUP1 \t\t\tafeBatchTransferFrom(\\r\\n     ...\n      CALLDATASIZE \t\t\tafeBatchTransferFrom(\\r\\n     ...\n      SUB \t\t\tafeBatchTransferFrom(\\r\\n     ...\n      DUP2 \t\t\tafeBatchTransferFrom(\\r\\n     ...\n      ADD \t\t\tafeBatchTransferFrom(\\r\\n     ...\n      SWAP1 \t\t\tafeBatchTransferFrom(\\r\\n     ...\n      PUSH [tag] 63\t\t\tafeBatchTransferFrom(\\r\\n     ...\n      SWAP2 \t\t\tafeBatchTransferFrom(\\r\\n     ...\n      SWAP1 \t\t\tafeBatchTransferFrom(\\r\\n     ...\n      PUSH [tag] 64\t\t\tafeBatchTransferFrom(\\r\\n     ...\n      JUMP \t\t\tafeBatchTransferFrom(\\r\\n     ...\n    tag 63\t\t\tafeBatchTransferFrom(\\r\\n     ...\n      JUMPDEST \t\t\tafeBatchTransferFrom(\\r\\n     ...\n      PUSH [tag] 65\t\t\tafeBatchTransferFrom(\\r\\n     ...\n      JUMP \t\t\tafeBatchTransferFrom(\\r\\n     ...\n    tag 62\t\t\tafeBatchTransferFrom(\\r\\n     ...\n      JUMPDEST \t\t\tafeBatchTransferFrom(\\r\\n     ...\n      STOP \t\t\tafeBatchTransferFrom(\\r\\n     ...\n    tag 10\t\t\tfunction getAdmins() public vi...\n      JUMPDEST \t\t\tfunction getAdmins() public vi...\n      PUSH [tag] 66\t\t\tfunction getAdmins() public vi...\n      PUSH [tag] 67\t\t\tfunction getAdmins() public vi...\n      JUMP \t\t\tfunction getAdmins() public vi...\n    tag 66\t\t\tfunction getAdmins() public vi...\n      JUMPDEST \t\t\tfunction getAdmins() public vi...\n      PUSH 40\t\t\tfunction getAdmins() public vi...\n      MLOAD \t\t\tfunction getAdmins() public vi...\n      PUSH [tag] 68\t\t\tfunction getAdmins() public vi...\n      SWAP2 \t\t\tfunction getAdmins() public vi...\n      SWAP1 \t\t\tfunction getAdmins() public vi...\n      PUSH [tag] 69\t\t\tfunction getAdmins() public vi...\n      JUMP \t\t\tfunction getAdmins() public vi...\n    tag 68\t\t\tfunction getAdmins() public vi...\n      JUMPDEST \t\t\tfunction getAdmins() public vi...\n      PUSH 40\t\t\tfunction getAdmins() public vi...\n      MLOAD \t\t\tfunction getAdmins() public vi...\n      DUP1 \t\t\tfunction getAdmins() public vi...\n      SWAP2 \t\t\tfunction getAdmins() public vi...\n      SUB \t\t\tfunction getAdmins() public vi...\n      SWAP1 \t\t\tfunction getAdmins() public vi...\n      RETURN \t\t\tfunction getAdmins() public vi...\n    tag 11\t\t\ttoken ID to its name. But the ...\n      JUMPDEST \t\t\ttoken ID to its name. But the ...\n      PUSH [tag] 70\t\t\ttoken ID to its name. But the ...\n      PUSH 4\t\t\ttoken ID to its name. But the ...\n      DUP1 \t\t\ttoken ID to its name. But the ...\n      CALLDATASIZE \t\t\ttoken ID to its name. But the ...\n      SUB \t\t\ttoken ID to its name. But the ...\n      DUP2 \t\t\ttoken ID to its name. But the ...\n      ADD \t\t\ttoken ID to its name. But the ...\n      SWAP1 \t\t\ttoken ID to its name. But the ...\n      PUSH [tag] 71\t\t\ttoken ID to its name. But the ...\n      SWAP2 \t\t\ttoken ID to its name. But the ...\n      SWAP1 \t\t\ttoken ID to its name. But the ...\n      PUSH [tag] 72\t\t\ttoken ID to its name. But the ...\n      JUMP \t\t\ttoken ID to its name. But the ...\n    tag 71\t\t\ttoken ID to its name. But the ...\n      JUMPDEST \t\t\ttoken ID to its name. But the ...\n      PUSH [tag] 73\t\t\ttoken ID to its name. But the ...\n      JUMP \t\t\ttoken ID to its name. But the ...\n    tag 70\t\t\ttoken ID to its name. But the ...\n      JUMPDEST \t\t\ttoken ID to its name. But the ...\n      PUSH 40\t\t\ttoken ID to its name. But the ...\n      MLOAD \t\t\ttoken ID to its name. But the ...\n      PUSH [tag] 74\t\t\ttoken ID to its name. But the ...\n      SWAP2 \t\t\ttoken ID to its name. But the ...\n      SWAP1 \t\t\ttoken ID to its name. But the ...\n      PUSH [tag] 75\t\t\ttoken ID to its name. But the ...\n      JUMP \t\t\ttoken ID to its name. But the ...\n    tag 74\t\t\ttoken ID to its name. But the ...\n      JUMPDEST \t\t\ttoken ID to its name. But the ...\n      PUSH 40\t\t\ttoken ID to its name. But the ...\n      MLOAD \t\t\ttoken ID to its name. But the ...\n      DUP1 \t\t\ttoken ID to its name. But the ...\n      SWAP2 \t\t\ttoken ID to its name. But the ...\n      SUB \t\t\ttoken ID to its name. But the ...\n      SWAP1 \t\t\ttoken ID to its name. But the ...\n      RETURN \t\t\ttoken ID to its name. But the ...\n    tag 12\t\t\ton deleteProofRequestAndRole(u...\n      JUMPDEST \t\t\ton deleteProofRequestAndRole(u...\n      PUSH [tag] 76\t\t\ton deleteProofRequestAndRole(u...\n      PUSH 4\t\t\ton deleteProofRequestAndRole(u...\n      DUP1 \t\t\ton deleteProofRequestAndRole(u...\n      CALLDATASIZE \t\t\ton deleteProofRequestAndRole(u...\n      SUB \t\t\ton deleteProofRequestAndRole(u...\n      DUP2 \t\t\ton deleteProofRequestAndRole(u...\n      ADD \t\t\ton deleteProofRequestAndRole(u...\n      SWAP1 \t\t\ton deleteProofRequestAndRole(u...\n      PUSH [tag] 77\t\t\ton deleteProofRequestAndRole(u...\n      SWAP2 \t\t\ton deleteProofRequestAndRole(u...\n      SWAP1 \t\t\ton deleteProofRequestAndRole(u...\n      PUSH [tag] 78\t\t\ton deleteProofRequestAndRole(u...\n      JUMP \t\t\ton deleteProofRequestAndRole(u...\n    tag 77\t\t\ton deleteProofRequestAndRole(u...\n      JUMPDEST \t\t\ton deleteProofRequestAndRole(u...\n      PUSH [tag] 79\t\t\ton deleteProofRequestAndRole(u...\n      JUMP \t\t\ton deleteProofRequestAndRole(u...\n    tag 76\t\t\ton deleteProofRequestAndRole(u...\n      JUMPDEST \t\t\ton deleteProofRequestAndRole(u...\n      STOP \t\t\ton deleteProofRequestAndRole(u...\n    tag 13\t\t\tg(uint256 => mapping(address =...\n      JUMPDEST \t\t\tg(uint256 => mapping(address =...\n      PUSH [tag] 80\t\t\tg(uint256 => mapping(address =...\n      PUSH 4\t\t\tg(uint256 => mapping(address =...\n      DUP1 \t\t\tg(uint256 => mapping(address =...\n      CALLDATASIZE \t\t\tg(uint256 => mapping(address =...\n      SUB \t\t\tg(uint256 => mapping(address =...\n      DUP2 \t\t\tg(uint256 => mapping(address =...\n      ADD \t\t\tg(uint256 => mapping(address =...\n      SWAP1 \t\t\tg(uint256 => mapping(address =...\n      PUSH [tag] 81\t\t\tg(uint256 => mapping(address =...\n      SWAP2 \t\t\tg(uint256 => mapping(address =...\n      SWAP1 \t\t\tg(uint256 => mapping(address =...\n      PUSH [tag] 82\t\t\tg(uint256 => mapping(address =...\n      JUMP \t\t\tg(uint256 => mapping(address =...\n    tag 81\t\t\tg(uint256 => mapping(address =...\n      JUMPDEST \t\t\tg(uint256 => mapping(address =...\n      PUSH [tag] 83\t\t\tg(uint256 => mapping(address =...\n      JUMP \t\t\tg(uint256 => mapping(address =...\n    tag 80\t\t\tg(uint256 => mapping(address =...\n      JUMPDEST \t\t\tg(uint256 => mapping(address =...\n      PUSH 40\t\t\tg(uint256 => mapping(address =...\n      MLOAD \t\t\tg(uint256 => mapping(address =...\n      PUSH [tag] 84\t\t\tg(uint256 => mapping(address =...\n      SWAP4 \t\t\tg(uint256 => mapping(address =...\n      SWAP3 \t\t\tg(uint256 => mapping(address =...\n      SWAP2 \t\t\tg(uint256 => mapping(address =...\n      SWAP1 \t\t\tg(uint256 => mapping(address =...\n      PUSH [tag] 85\t\t\tg(uint256 => mapping(address =...\n      JUMP \t\t\tg(uint256 => mapping(address =...\n    tag 84\t\t\tg(uint256 => mapping(address =...\n      JUMPDEST \t\t\tg(uint256 => mapping(address =...\n      PUSH 40\t\t\tg(uint256 => mapping(address =...\n      MLOAD \t\t\tg(uint256 => mapping(address =...\n      DUP1 \t\t\tg(uint256 => mapping(address =...\n      SWAP2 \t\t\tg(uint256 => mapping(address =...\n      SUB \t\t\tg(uint256 => mapping(address =...\n      SWAP1 \t\t\tg(uint256 => mapping(address =...\n      RETURN \t\t\tg(uint256 => mapping(address =...\n    tag 14\t\t\tfunction addAdmin(address _adm...\n      JUMPDEST \t\t\tfunction addAdmin(address _adm...\n      PUSH [tag] 86\t\t\tfunction addAdmin(address _adm...\n      PUSH 4\t\t\tfunction addAdmin(address _adm...\n      DUP1 \t\t\tfunction addAdmin(address _adm...\n      CALLDATASIZE \t\t\tfunction addAdmin(address _adm...\n      SUB \t\t\tfunction addAdmin(address _adm...\n      DUP2 \t\t\tfunction addAdmin(address _adm...\n      ADD \t\t\tfunction addAdmin(address _adm...\n      SWAP1 \t\t\tfunction addAdmin(address _adm...\n      PUSH [tag] 87\t\t\tfunction addAdmin(address _adm...\n      SWAP2 \t\t\tfunction addAdmin(address _adm...\n      SWAP1 \t\t\tfunction addAdmin(address _adm...\n      PUSH [tag] 52\t\t\tfunction addAdmin(address _adm...\n      JUMP \t\t\tfunction addAdmin(address _adm...\n    tag 87\t\t\tfunction addAdmin(address _adm...\n      JUMPDEST \t\t\tfunction addAdmin(address _adm...\n      PUSH [tag] 88\t\t\tfunction addAdmin(address _adm...\n      JUMP \t\t\tfunction addAdmin(address _adm...\n    tag 86\t\t\tfunction addAdmin(address _adm...\n      JUMPDEST \t\t\tfunction addAdmin(address _adm...\n      STOP \t\t\tfunction addAdmin(address _adm...\n    tag 15\t\t\teSet.UintSet private _allToken...\n      JUMPDEST \t\t\teSet.UintSet private _allToken...\n      PUSH [tag] 89\t\t\teSet.UintSet private _allToken...\n      PUSH [tag] 90\t\t\teSet.UintSet private _allToken...\n      JUMP \t\t\teSet.UintSet private _allToken...\n    tag 89\t\t\teSet.UintSet private _allToken...\n      JUMPDEST \t\t\teSet.UintSet private _allToken...\n      STOP \t\t\teSet.UintSet private _allToken...\n    tag 16\t\t\ton addProofRequest_VerifierAnd...\n      JUMPDEST \t\t\ton addProofRequest_VerifierAnd...\n      PUSH [tag] 91\t\t\ton addProofRequest_VerifierAnd...\n      PUSH 4\t\t\ton addProofRequest_VerifierAnd...\n      DUP1 \t\t\ton addProofRequest_VerifierAnd...\n      CALLDATASIZE \t\t\ton addProofRequest_VerifierAnd...\n      SUB \t\t\ton addProofRequest_VerifierAnd...\n      DUP2 \t\t\ton addProofRequest_VerifierAnd...\n      ADD \t\t\ton addProofRequest_VerifierAnd...\n      SWAP1 \t\t\ton addProofRequest_VerifierAnd...\n      PUSH [tag] 92\t\t\ton addProofRequest_VerifierAnd...\n      SWAP2 \t\t\ton addProofRequest_VerifierAnd...\n      SWAP1 \t\t\ton addProofRequest_VerifierAnd...\n      PUSH [tag] 93\t\t\ton addProofRequest_VerifierAnd...\n      JUMP \t\t\ton addProofRequest_VerifierAnd...\n    tag 92\t\t\ton addProofRequest_VerifierAnd...\n      JUMPDEST \t\t\ton addProofRequest_VerifierAnd...\n      PUSH [tag] 94\t\t\ton addProofRequest_VerifierAnd...\n      JUMP \t\t\ton addProofRequest_VerifierAnd...\n    tag 91\t\t\ton addProofRequest_VerifierAnd...\n      JUMPDEST \t\t\ton addProofRequest_VerifierAnd...\n      STOP \t\t\ton addProofRequest_VerifierAnd...\n    tag 17\t\t\tfunction allTokenIDs() externa...\n      JUMPDEST \t\t\tfunction allTokenIDs() externa...\n      PUSH [tag] 95\t\t\tfunction allTokenIDs() externa...\n      PUSH [tag] 96\t\t\tfunction allTokenIDs() externa...\n      JUMP \t\t\tfunction allTokenIDs() externa...\n    tag 95\t\t\tfunction allTokenIDs() externa...\n      JUMPDEST \t\t\tfunction allTokenIDs() externa...\n      PUSH 40\t\t\tfunction allTokenIDs() externa...\n      MLOAD \t\t\tfunction allTokenIDs() externa...\n      PUSH [tag] 97\t\t\tfunction allTokenIDs() externa...\n      SWAP2 \t\t\tfunction allTokenIDs() externa...\n      SWAP1 \t\t\tfunction allTokenIDs() externa...\n      PUSH [tag] 75\t\t\tfunction allTokenIDs() externa...\n      JUMP \t\t\tfunction allTokenIDs() externa...\n    tag 97\t\t\tfunction allTokenIDs() externa...\n      JUMPDEST \t\t\tfunction allTokenIDs() externa...\n      PUSH 40\t\t\tfunction allTokenIDs() externa...\n      MLOAD \t\t\tfunction allTokenIDs() externa...\n      DUP1 \t\t\tfunction allTokenIDs() externa...\n      SWAP2 \t\t\tfunction allTokenIDs() externa...\n      SUB \t\t\tfunction allTokenIDs() externa...\n      SWAP1 \t\t\tfunction allTokenIDs() externa...\n      RETURN \t\t\tfunction allTokenIDs() externa...\n    tag 18\t\t\t removeAdmin(address _admin) p...\n      JUMPDEST \t\t\t removeAdmin(address _admin) p...\n      PUSH [tag] 98\t\t\t removeAdmin(address _admin) p...\n      PUSH [tag] 99\t\t\t removeAdmin(address _admin) p...\n      JUMP \t\t\t removeAdmin(address _admin) p...\n    tag 98\t\t\t removeAdmin(address _admin) p...\n      JUMPDEST \t\t\t removeAdmin(address _admin) p...\n      PUSH 40\t\t\t removeAdmin(address _admin) p...\n      MLOAD \t\t\t removeAdmin(address _admin) p...\n      PUSH [tag] 100\t\t\t removeAdmin(address _admin) p...\n      SWAP2 \t\t\t removeAdmin(address _admin) p...\n      SWAP1 \t\t\t removeAdmin(address _admin) p...\n      PUSH [tag] 101\t\t\t removeAdmin(address _admin) p...\n      JUMP \t\t\t removeAdmin(address _admin) p...\n    tag 100\t\t\t removeAdmin(address _admin) p...\n      JUMPDEST \t\t\t removeAdmin(address _admin) p...\n      PUSH 40\t\t\t removeAdmin(address _admin) p...\n      MLOAD \t\t\t removeAdmin(address _admin) p...\n      DUP1 \t\t\t removeAdmin(address _admin) p...\n      SWAP2 \t\t\t removeAdmin(address _admin) p...\n      SUB \t\t\t removeAdmin(address _admin) p...\n      SWAP1 \t\t\t removeAdmin(address _admin) p...\n      RETURN \t\t\t removeAdmin(address _admin) p...\n    tag 19\t\t\tg(uint256 => mapping(address =...\n      JUMPDEST \t\t\tg(uint256 => mapping(address =...\n      PUSH [tag] 102\t\t\tg(uint256 => mapping(address =...\n      PUSH 4\t\t\tg(uint256 => mapping(address =...\n      DUP1 \t\t\tg(uint256 => mapping(address =...\n      CALLDATASIZE \t\t\tg(uint256 => mapping(address =...\n      SUB \t\t\tg(uint256 => mapping(address =...\n      DUP2 \t\t\tg(uint256 => mapping(address =...\n      ADD \t\t\tg(uint256 => mapping(address =...\n      SWAP1 \t\t\tg(uint256 => mapping(address =...\n      PUSH [tag] 103\t\t\tg(uint256 => mapping(address =...\n      SWAP2 \t\t\tg(uint256 => mapping(address =...\n      SWAP1 \t\t\tg(uint256 => mapping(address =...\n      PUSH [tag] 82\t\t\tg(uint256 => mapping(address =...\n      JUMP \t\t\tg(uint256 => mapping(address =...\n    tag 103\t\t\tg(uint256 => mapping(address =...\n      JUMPDEST \t\t\tg(uint256 => mapping(address =...\n      PUSH [tag] 104\t\t\tg(uint256 => mapping(address =...\n      JUMP \t\t\tg(uint256 => mapping(address =...\n    tag 102\t\t\tg(uint256 => mapping(address =...\n      JUMPDEST \t\t\tg(uint256 => mapping(address =...\n      PUSH 40\t\t\tg(uint256 => mapping(address =...\n      MLOAD \t\t\tg(uint256 => mapping(address =...\n      PUSH [tag] 105\t\t\tg(uint256 => mapping(address =...\n      SWAP2 \t\t\tg(uint256 => mapping(address =...\n      SWAP1 \t\t\tg(uint256 => mapping(address =...\n      PUSH [tag] 49\t\t\tg(uint256 => mapping(address =...\n      JUMP \t\t\tg(uint256 => mapping(address =...\n    tag 105\t\t\tg(uint256 => mapping(address =...\n      JUMPDEST \t\t\tg(uint256 => mapping(address =...\n      PUSH 40\t\t\tg(uint256 => mapping(address =...\n      MLOAD \t\t\tg(uint256 => mapping(address =...\n      DUP1 \t\t\tg(uint256 => mapping(address =...\n      SWAP2 \t\t\tg(uint256 => mapping(address =...\n      SUB \t\t\tg(uint256 => mapping(address =...\n      SWAP1 \t\t\tg(uint256 => mapping(address =...\n      RETURN \t\t\tg(uint256 => mapping(address =...\n    tag 20\t\t\t  }\\r\\n\\r\\n    // Mapping from...\n      JUMPDEST \t\t\t  }\\r\\n\\r\\n    // Mapping from...\n      PUSH [tag] 106\t\t\t  }\\r\\n\\r\\n    // Mapping from...\n      PUSH 4\t\t\t  }\\r\\n\\r\\n    // Mapping from...\n      DUP1 \t\t\t  }\\r\\n\\r\\n    // Mapping from...\n      CALLDATASIZE \t\t\t  }\\r\\n\\r\\n    // Mapping from...\n      SUB \t\t\t  }\\r\\n\\r\\n    // Mapping from...\n      DUP2 \t\t\t  }\\r\\n\\r\\n    // Mapping from...\n      ADD \t\t\t  }\\r\\n\\r\\n    // Mapping from...\n      SWAP1 \t\t\t  }\\r\\n\\r\\n    // Mapping from...\n      PUSH [tag] 107\t\t\t  }\\r\\n\\r\\n    // Mapping from...\n      SWAP2 \t\t\t  }\\r\\n\\r\\n    // Mapping from...\n      SWAP1 \t\t\t  }\\r\\n\\r\\n    // Mapping from...\n      PUSH [tag] 108\t\t\t  }\\r\\n\\r\\n    // Mapping from...\n      JUMP \t\t\t  }\\r\\n\\r\\n    // Mapping from...\n    tag 107\t\t\t  }\\r\\n\\r\\n    // Mapping from...\n      JUMPDEST \t\t\t  }\\r\\n\\r\\n    // Mapping from...\n      PUSH [tag] 109\t\t\t  }\\r\\n\\r\\n    // Mapping from...\n      JUMP \t\t\t  }\\r\\n\\r\\n    // Mapping from...\n    tag 106\t\t\t  }\\r\\n\\r\\n    // Mapping from...\n      JUMPDEST \t\t\t  }\\r\\n\\r\\n    // Mapping from...\n      STOP \t\t\t  }\\r\\n\\r\\n    // Mapping from...\n    tag 21\t\t\ton getSpendingConditions(uint2...\n      JUMPDEST \t\t\ton getSpendingConditions(uint2...\n      PUSH [tag] 110\t\t\ton getSpendingConditions(uint2...\n      PUSH 4\t\t\ton getSpendingConditions(uint2...\n      DUP1 \t\t\ton getSpendingConditions(uint2...\n      CALLDATASIZE \t\t\ton getSpendingConditions(uint2...\n      SUB \t\t\ton getSpendingConditions(uint2...\n      DUP2 \t\t\ton getSpendingConditions(uint2...\n      ADD \t\t\ton getSpendingConditions(uint2...\n      SWAP1 \t\t\ton getSpendingConditions(uint2...\n      PUSH [tag] 111\t\t\ton getSpendingConditions(uint2...\n      SWAP2 \t\t\ton getSpendingConditions(uint2...\n      SWAP1 \t\t\ton getSpendingConditions(uint2...\n      PUSH [tag] 112\t\t\ton getSpendingConditions(uint2...\n      JUMP \t\t\ton getSpendingConditions(uint2...\n    tag 111\t\t\ton getSpendingConditions(uint2...\n      JUMPDEST \t\t\ton getSpendingConditions(uint2...\n      PUSH [tag] 113\t\t\ton getSpendingConditions(uint2...\n      JUMP \t\t\ton getSpendingConditions(uint2...\n    tag 110\t\t\ton getSpendingConditions(uint2...\n      JUMPDEST \t\t\ton getSpendingConditions(uint2...\n      PUSH 40\t\t\ton getSpendingConditions(uint2...\n      MLOAD \t\t\ton getSpendingConditions(uint2...\n      PUSH [tag] 114\t\t\ton getSpendingConditions(uint2...\n      SWAP3 \t\t\ton getSpendingConditions(uint2...\n      SWAP2 \t\t\ton getSpendingConditions(uint2...\n      SWAP1 \t\t\ton getSpendingConditions(uint2...\n      PUSH [tag] 115\t\t\ton getSpendingConditions(uint2...\n      JUMP \t\t\ton getSpendingConditions(uint2...\n    tag 114\t\t\ton getSpendingConditions(uint2...\n      JUMPDEST \t\t\ton getSpendingConditions(uint2...\n      PUSH 40\t\t\ton getSpendingConditions(uint2...\n      MLOAD \t\t\ton getSpendingConditions(uint2...\n      DUP1 \t\t\ton getSpendingConditions(uint2...\n      SWAP2 \t\t\ton getSpendingConditions(uint2...\n      SUB \t\t\ton getSpendingConditions(uint2...\n      SWAP1 \t\t\ton getSpendingConditions(uint2...\n      RETURN \t\t\ton getSpendingConditions(uint2...\n    tag 22\t\t\t[] public proofRequestIDs;\\r\\n...\n      JUMPDEST \t\t\t[] public proofRequestIDs;\\r\\n...\n      PUSH [tag] 116\t\t\t[] public proofRequestIDs;\\r\\n...\n      PUSH 4\t\t\t[] public proofRequestIDs;\\r\\n...\n      DUP1 \t\t\t[] public proofRequestIDs;\\r\\n...\n      CALLDATASIZE \t\t\t[] public proofRequestIDs;\\r\\n...\n      SUB \t\t\t[] public proofRequestIDs;\\r\\n...\n      DUP2 \t\t\t[] public proofRequestIDs;\\r\\n...\n      ADD \t\t\t[] public proofRequestIDs;\\r\\n...\n      SWAP1 \t\t\t[] public proofRequestIDs;\\r\\n...\n      PUSH [tag] 117\t\t\t[] public proofRequestIDs;\\r\\n...\n      SWAP2 \t\t\t[] public proofRequestIDs;\\r\\n...\n      SWAP1 \t\t\t[] public proofRequestIDs;\\r\\n...\n      PUSH [tag] 46\t\t\t[] public proofRequestIDs;\\r\\n...\n      JUMP \t\t\t[] public proofRequestIDs;\\r\\n...\n    tag 117\t\t\t[] public proofRequestIDs;\\r\\n...\n      JUMPDEST \t\t\t[] public proofRequestIDs;\\r\\n...\n      PUSH [tag] 118\t\t\t[] public proofRequestIDs;\\r\\n...\n      JUMP \t\t\t[] public proofRequestIDs;\\r\\n...\n    tag 116\t\t\t[] public proofRequestIDs;\\r\\n...\n      JUMPDEST \t\t\t[] public proofRequestIDs;\\r\\n...\n      PUSH 40\t\t\t[] public proofRequestIDs;\\r\\n...\n      MLOAD \t\t\t[] public proofRequestIDs;\\r\\n...\n      PUSH [tag] 119\t\t\t[] public proofRequestIDs;\\r\\n...\n      SWAP2 \t\t\t[] public proofRequestIDs;\\r\\n...\n      SWAP1 \t\t\t[] public proofRequestIDs;\\r\\n...\n      PUSH [tag] 120\t\t\t[] public proofRequestIDs;\\r\\n...\n      JUMP \t\t\t[] public proofRequestIDs;\\r\\n...\n    tag 119\t\t\t[] public proofRequestIDs;\\r\\n...\n      JUMPDEST \t\t\t[] public proofRequestIDs;\\r\\n...\n      PUSH 40\t\t\t[] public proofRequestIDs;\\r\\n...\n      MLOAD \t\t\t[] public proofRequestIDs;\\r\\n...\n      DUP1 \t\t\t[] public proofRequestIDs;\\r\\n...\n      SWAP2 \t\t\t[] public proofRequestIDs;\\r\\n...\n      SUB \t\t\t[] public proofRequestIDs;\\r\\n...\n      SWAP1 \t\t\t[] public proofRequestIDs;\\r\\n...\n      RETURN \t\t\t[] public proofRequestIDs;\\r\\n...\n    tag 23\t\t\tmapping(uint256 => string) pub...\n      JUMPDEST \t\t\tmapping(uint256 => string) pub...\n      PUSH [tag] 121\t\t\tmapping(uint256 => string) pub...\n      PUSH 4\t\t\tmapping(uint256 => string) pub...\n      DUP1 \t\t\tmapping(uint256 => string) pub...\n      CALLDATASIZE \t\t\tmapping(uint256 => string) pub...\n      SUB \t\t\tmapping(uint256 => string) pub...\n      DUP2 \t\t\tmapping(uint256 => string) pub...\n      ADD \t\t\tmapping(uint256 => string) pub...\n      SWAP1 \t\t\tmapping(uint256 => string) pub...\n      PUSH [tag] 122\t\t\tmapping(uint256 => string) pub...\n      SWAP2 \t\t\tmapping(uint256 => string) pub...\n      SWAP1 \t\t\tmapping(uint256 => string) pub...\n      PUSH [tag] 46\t\t\tmapping(uint256 => string) pub...\n      JUMP \t\t\tmapping(uint256 => string) pub...\n    tag 122\t\t\tmapping(uint256 => string) pub...\n      JUMPDEST \t\t\tmapping(uint256 => string) pub...\n      PUSH [tag] 123\t\t\tmapping(uint256 => string) pub...\n      JUMP \t\t\tmapping(uint256 => string) pub...\n    tag 121\t\t\tmapping(uint256 => string) pub...\n      JUMPDEST \t\t\tmapping(uint256 => string) pub...\n      PUSH 40\t\t\tmapping(uint256 => string) pub...\n      MLOAD \t\t\tmapping(uint256 => string) pub...\n      PUSH [tag] 124\t\t\tmapping(uint256 => string) pub...\n      SWAP2 \t\t\tmapping(uint256 => string) pub...\n      SWAP1 \t\t\tmapping(uint256 => string) pub...\n      PUSH [tag] 49\t\t\tmapping(uint256 => string) pub...\n      JUMP \t\t\tmapping(uint256 => string) pub...\n    tag 124\t\t\tmapping(uint256 => string) pub...\n      JUMPDEST \t\t\tmapping(uint256 => string) pub...\n      PUSH 40\t\t\tmapping(uint256 => string) pub...\n      MLOAD \t\t\tmapping(uint256 => string) pub...\n      DUP1 \t\t\tmapping(uint256 => string) pub...\n      SWAP2 \t\t\tmapping(uint256 => string) pub...\n      SUB \t\t\tmapping(uint256 => string) pub...\n      SWAP1 \t\t\tmapping(uint256 => string) pub...\n      RETURN \t\t\tmapping(uint256 => string) pub...\n    tag 24\t\t\t=> mapping(uint64 => SpendingC...\n      JUMPDEST \t\t\t=> mapping(uint64 => SpendingC...\n      PUSH [tag] 125\t\t\t=> mapping(uint64 => SpendingC...\n      PUSH 4\t\t\t=> mapping(uint64 => SpendingC...\n      DUP1 \t\t\t=> mapping(uint64 => SpendingC...\n      CALLDATASIZE \t\t\t=> mapping(uint64 => SpendingC...\n      SUB \t\t\t=> mapping(uint64 => SpendingC...\n      DUP2 \t\t\t=> mapping(uint64 => SpendingC...\n      ADD \t\t\t=> mapping(uint64 => SpendingC...\n      SWAP1 \t\t\t=> mapping(uint64 => SpendingC...\n      PUSH [tag] 126\t\t\t=> mapping(uint64 => SpendingC...\n      SWAP2 \t\t\t=> mapping(uint64 => SpendingC...\n      SWAP1 \t\t\t=> mapping(uint64 => SpendingC...\n      PUSH [tag] 127\t\t\t=> mapping(uint64 => SpendingC...\n      JUMP \t\t\t=> mapping(uint64 => SpendingC...\n    tag 126\t\t\t=> mapping(uint64 => SpendingC...\n      JUMPDEST \t\t\t=> mapping(uint64 => SpendingC...\n      PUSH [tag] 128\t\t\t=> mapping(uint64 => SpendingC...\n      JUMP \t\t\t=> mapping(uint64 => SpendingC...\n    tag 125\t\t\t=> mapping(uint64 => SpendingC...\n      JUMPDEST \t\t\t=> mapping(uint64 => SpendingC...\n      PUSH 40\t\t\t=> mapping(uint64 => SpendingC...\n      MLOAD \t\t\t=> mapping(uint64 => SpendingC...\n      PUSH [tag] 129\t\t\t=> mapping(uint64 => SpendingC...\n      SWAP2 \t\t\t=> mapping(uint64 => SpendingC...\n      SWAP1 \t\t\t=> mapping(uint64 => SpendingC...\n      PUSH [tag] 43\t\t\t=> mapping(uint64 => SpendingC...\n      JUMP \t\t\t=> mapping(uint64 => SpendingC...\n    tag 129\t\t\t=> mapping(uint64 => SpendingC...\n      JUMPDEST \t\t\t=> mapping(uint64 => SpendingC...\n      PUSH 40\t\t\t=> mapping(uint64 => SpendingC...\n      MLOAD \t\t\t=> mapping(uint64 => SpendingC...\n      DUP1 \t\t\t=> mapping(uint64 => SpendingC...\n      SWAP2 \t\t\t=> mapping(uint64 => SpendingC...\n      SUB \t\t\t=> mapping(uint64 => SpendingC...\n      SWAP1 \t\t\t=> mapping(uint64 => SpendingC...\n      RETURN \t\t\t=> mapping(uint64 => SpendingC...\n    tag 25\t\t\tafeTransferFrom(\\r\\n        ad...\n      JUMPDEST \t\t\tafeTransferFrom(\\r\\n        ad...\n      PUSH [tag] 130\t\t\tafeTransferFrom(\\r\\n        ad...\n      PUSH 4\t\t\tafeTransferFrom(\\r\\n        ad...\n      DUP1 \t\t\tafeTransferFrom(\\r\\n        ad...\n      CALLDATASIZE \t\t\tafeTransferFrom(\\r\\n        ad...\n      SUB \t\t\tafeTransferFrom(\\r\\n        ad...\n      DUP2 \t\t\tafeTransferFrom(\\r\\n        ad...\n      ADD \t\t\tafeTransferFrom(\\r\\n        ad...\n      SWAP1 \t\t\tafeTransferFrom(\\r\\n        ad...\n      PUSH [tag] 131\t\t\tafeTransferFrom(\\r\\n        ad...\n      SWAP2 \t\t\tafeTransferFrom(\\r\\n        ad...\n      SWAP1 \t\t\tafeTransferFrom(\\r\\n        ad...\n      PUSH [tag] 132\t\t\tafeTransferFrom(\\r\\n        ad...\n      JUMP \t\t\tafeTransferFrom(\\r\\n        ad...\n    tag 131\t\t\tafeTransferFrom(\\r\\n        ad...\n      JUMPDEST \t\t\tafeTransferFrom(\\r\\n        ad...\n      PUSH [tag] 133\t\t\tafeTransferFrom(\\r\\n        ad...\n      JUMP \t\t\tafeTransferFrom(\\r\\n        ad...\n    tag 130\t\t\tafeTransferFrom(\\r\\n        ad...\n      JUMPDEST \t\t\tafeTransferFrom(\\r\\n        ad...\n      STOP \t\t\tafeTransferFrom(\\r\\n        ad...\n    tag 26\t\t\tto its name. But the token nam...\n      JUMPDEST \t\t\tto its name. But the token nam...\n      PUSH [tag] 134\t\t\tto its name. But the token nam...\n      PUSH 4\t\t\tto its name. But the token nam...\n      DUP1 \t\t\tto its name. But the token nam...\n      CALLDATASIZE \t\t\tto its name. But the token nam...\n      SUB \t\t\tto its name. But the token nam...\n      DUP2 \t\t\tto its name. But the token nam...\n      ADD \t\t\tto its name. But the token nam...\n      SWAP1 \t\t\tto its name. But the token nam...\n      PUSH [tag] 135\t\t\tto its name. But the token nam...\n      SWAP2 \t\t\tto its name. But the token nam...\n      SWAP1 \t\t\tto its name. But the token nam...\n      PUSH [tag] 52\t\t\tto its name. But the token nam...\n      JUMP \t\t\tto its name. But the token nam...\n    tag 135\t\t\tto its name. But the token nam...\n      JUMPDEST \t\t\tto its name. But the token nam...\n      PUSH [tag] 136\t\t\tto its name. But the token nam...\n      JUMP \t\t\tto its name. But the token nam...\n    tag 134\t\t\tto its name. But the token nam...\n      JUMPDEST \t\t\tto its name. But the token nam...\n      STOP \t\t\tto its name. But the token nam...\n    tag 27\t\t\turn(address account, uint256 I...\n      JUMPDEST \t\t\turn(address account, uint256 I...\n      PUSH [tag] 137\t\t\turn(address account, uint256 I...\n      PUSH 4\t\t\turn(address account, uint256 I...\n      DUP1 \t\t\turn(address account, uint256 I...\n      CALLDATASIZE \t\t\turn(address account, uint256 I...\n      SUB \t\t\turn(address account, uint256 I...\n      DUP2 \t\t\turn(address account, uint256 I...\n      ADD \t\t\turn(address account, uint256 I...\n      SWAP1 \t\t\turn(address account, uint256 I...\n      PUSH [tag] 138\t\t\turn(address account, uint256 I...\n      SWAP2 \t\t\turn(address account, uint256 I...\n      SWAP1 \t\t\turn(address account, uint256 I...\n      PUSH [tag] 139\t\t\turn(address account, uint256 I...\n      JUMP \t\t\turn(address account, uint256 I...\n    tag 138\t\t\turn(address account, uint256 I...\n      JUMPDEST \t\t\turn(address account, uint256 I...\n      PUSH [tag] 140\t\t\turn(address account, uint256 I...\n      JUMP \t\t\turn(address account, uint256 I...\n    tag 137\t\t\turn(address account, uint256 I...\n      JUMPDEST \t\t\turn(address account, uint256 I...\n      STOP \t\t\turn(address account, uint256 I...\n    tag 35\t\t\ten IDs that have ever been min...\n      JUMPDEST \t\t\ten IDs that have ever been min...\n      PUSH 0\t\t\tnIDs;\\r\\n\n      DUP1 \t\t\teturns th\n      PUSH 0\t\t\teturns the fu\n      DUP4 \t\t\t f\n      DUP2 \t\t\teturns the fu\n      MSTORE \t\t\teturns the fu\n      PUSH 20\t\t\teturns the fu\n      ADD \t\t\teturns the fu\n      SWAP1 \t\t\teturns the fu\n      DUP2 \t\t\teturns the fu\n      MSTORE \t\t\teturns the fu\n      PUSH 20\t\t\teturns the fu\n      ADD \t\t\teturns the fu\n      PUSH 0\t\t\teturns the fu\n      KECCAK256 \t\t\teturns the fu\n      PUSH 0\t\t\teturns the full list o\n      DUP5 \t\t\tl list \n      PUSH FFFFFFFFFFFFFFFFFFFFFFFFFFFFFFFFFFFFFFFF\t\t\teturns the full list o\n      AND \t\t\teturns the full list o\n      PUSH FFFFFFFFFFFFFFFFFFFFFFFFFFFFFFFFFFFFFFFF\t\t\teturns the full list o\n      AND \t\t\teturns the full list o\n      DUP2 \t\t\teturns the full list o\n      MSTORE \t\t\teturns the full list o\n      PUSH 20\t\t\teturns the full list o\n      ADD \t\t\teturns the full list o\n      SWAP1 \t\t\teturns the full list o\n      DUP2 \t\t\teturns the full list o\n      MSTORE \t\t\teturns the full list o\n      PUSH 20\t\t\teturns the full list o\n      ADD \t\t\teturns the full list o\n      PUSH 0\t\t\teturns the full list o\n      KECCAK256 \t\t\teturns the full list o\n      SLOAD \t\t\teturns the full list o\n      SWAP1 \t\t\totice Returns the full list o\n      POP \t\t\totice Returns the full list o\n      SWAP3 \t\t\ten IDs that have ever been min...\n      SWAP2 \t\t\ten IDs that have ever been min...\n      POP \t\t\ten IDs that have ever been min...\n      POP \t\t\ten IDs that have ever been min...\n      JUMP \t\t\ten IDs that have ever been min...\n    tag 41\t\t\tyOwner {\\r\\n        require(_a...\n      JUMPDEST \t\t\tyOwner {\\r\\n        require(_a...\n      PUSH 0\t\t\t, \"A\n      PUSH D9B67A2600000000000000000000000000000000000000000000000000000000\t\t\tpush(_admin);\\r\\n    }\\r\\n\\r\\n...\n      PUSH FFFFFFFFFFFFFFFFFFFFFFFFFFFFFFFFFFFFFFFFFFFFFFFFFFFFFFFF\t\t\t        admins.push(_admin);\\r...\n      NOT \t\t\t        admins.push(_admin);\\r...\n      AND \t\t\t        admins.push(_admin);\\r...\n      DUP3 \t\t\t        adm\n      PUSH FFFFFFFFFFFFFFFFFFFFFFFFFFFFFFFFFFFFFFFFFFFFFFFFFFFFFFFF\t\t\t        admins.push(_admin);\\r...\n      NOT \t\t\t        admins.push(_admin);\\r...\n      AND \t\t\t        admins.push(_admin);\\r...\n      EQ \t\t\t        admins.push(_admin);\\r...\n      DUP1 \t\t\t        admins.push(_admin);\\r...\n      PUSH [tag] 143\t\t\t        admins.push(_admin);\\r...\n      JUMPI \t\t\t        admins.push(_admin);\\r...\n      POP \t\t\t        admins.push(_admin);\\r...\n      PUSH E89341C00000000000000000000000000000000000000000000000000000000\t\t\tn address. Only the owner can ...\n      PUSH FFFFFFFFFFFFFFFFFFFFFFFFFFFFFFFFFFFFFFFFFFFFFFFFFFFFFFFF\t\t\t remove an admin address. Only...\n      NOT \t\t\t remove an admin address. Only...\n      AND \t\t\t remove an admin address. Only...\n      DUP3 \t\t\t remove an \n      PUSH FFFFFFFFFFFFFFFFFFFFFFFFFFFFFFFFFFFFFFFFFFFFFFFFFFFFFFFF\t\t\t remove an admin address. Only...\n      NOT \t\t\t remove an admin address. Only...\n      AND \t\t\t remove an admin address. Only...\n      EQ \t\t\t remove an admin address. Only...\n    tag 143\t\t\t        admins.push(_admin);\\r...\n      JUMPDEST \t\t\t        admins.push(_admin);\\r...\n      DUP1 \t\t\t        admins.push(_admin);\\r...\n      PUSH [tag] 144\t\t\t        admins.push(_admin);\\r...\n      JUMPI \t\t\t        admins.push(_admin);\\r...\n      POP \t\t\t        admins.push(_admin);\\r...\n      PUSH [tag] 145\t\t\temoveAdmin(address _admin) pub...\n      DUP3 \t\t\tn) public o\n      PUSH [tag] 146\t\t\temoveAdmin(address _adm\n      JUMP \t\t\temoveAdmin(address _admin) pub...\n    tag 145\t\t\temoveAdmin(address _admin) pub...\n      JUMPDEST \t\t\temoveAdmin(address _admin) pub...\n    tag 144\t\t\t        admins.push(_admin);\\r...\n      JUMPDEST \t\t\t        admins.push(_admin);\\r...\n      SWAP1 \t\t\tready an admin\");\\r\\n        a...\n      POP \t\t\tready an admin\");\\r\\n        a...\n      SWAP2 \t\t\tyOwner {\\r\\n        require(_a...\n      SWAP1 \t\t\tyOwner {\\r\\n        require(_a...\n      POP \t\t\tyOwner {\\r\\n        require(_a...\n      JUMP \t\t\tyOwner {\\r\\n        require(_a...\n    tag 47\t\t\t       require(_isAdmin(msg.se...\n      JUMPDEST \t\t\t       require(_isAdmin(msg.se...\n      PUSH 60\t\t\t\");\\r\\n        \n      PUSH 2\t\t\ting \n      DUP1 \t\t\t\\n    using \n      SLOAD \t\t\t\\n    using \n      PUSH [tag] 148\t\t\t\\n    using \n      SWAP1 \t\t\t\\n    using \n      PUSH [tag] 149\t\t\t\\n    using \n      JUMP \t\t\t\\n    using \n    tag 148\t\t\t\\n    using \n      JUMPDEST \t\t\t\\n    using \n      DUP1 \t\t\t\\n    using \n      PUSH 1F\t\t\t\\n    using \n      ADD \t\t\t\\n    using \n      PUSH 20\t\t\t\\n    using \n      DUP1 \t\t\t\\n    using \n      SWAP2 \t\t\t\\n    using \n      DIV \t\t\t\\n    using \n      MUL \t\t\t\\n    using \n      PUSH 20\t\t\t\\n    using \n      ADD \t\t\t\\n    using \n      PUSH 40\t\t\t\\n    using \n      MLOAD \t\t\t\\n    using \n      SWAP1 \t\t\t\\n    using \n      DUP2 \t\t\t\\n    using \n      ADD \t\t\t\\n    using \n      PUSH 40\t\t\t\\n    using \n      MSTORE \t\t\t\\n    using \n      DUP1 \t\t\t\\n    using \n      SWAP3 \t\t\t\\n    using \n      SWAP2 \t\t\t\\n    using \n      SWAP1 \t\t\t\\n    using \n      DUP2 \t\t\t\\n    using \n      DUP2 \t\t\t\\n    using \n      MSTORE \t\t\t\\n    using \n      PUSH 20\t\t\t\\n    using \n      ADD \t\t\t\\n    using \n      DUP3 \t\t\t\\n    using \n      DUP1 \t\t\t\\n    using \n      SLOAD \t\t\t\\n    using \n      PUSH [tag] 150\t\t\t\\n    using \n      SWAP1 \t\t\t\\n    using \n      PUSH [tag] 149\t\t\t\\n    using \n      JUMP \t\t\t\\n    using \n    tag 150\t\t\t\\n    using \n      JUMPDEST \t\t\t\\n    using \n      DUP1 \t\t\t\\n    using \n      ISZERO \t\t\t\\n    using \n      PUSH [tag] 151\t\t\t\\n    using \n      JUMPI \t\t\t\\n    using \n      DUP1 \t\t\t\\n    using \n      PUSH 1F\t\t\t\\n    using \n      LT \t\t\t\\n    using \n      PUSH [tag] 152\t\t\t\\n    using \n      JUMPI \t\t\t\\n    using \n      PUSH 100\t\t\t\\n    using \n      DUP1 \t\t\t\\n    using \n      DUP4 \t\t\t\\n    using \n      SLOAD \t\t\t\\n    using \n      DIV \t\t\t\\n    using \n      MUL \t\t\t\\n    using \n      DUP4 \t\t\t\\n    using \n      MSTORE \t\t\t\\n    using \n      SWAP2 \t\t\t\\n    using \n      PUSH 20\t\t\t\\n    using \n      ADD \t\t\t\\n    using \n      SWAP2 \t\t\t\\n    using \n      PUSH [tag] 151\t\t\t\\n    using \n      JUMP \t\t\t\\n    using \n    tag 152\t\t\t\\n    using \n      JUMPDEST \t\t\t\\n    using \n      DUP3 \t\t\t\\n    using \n      ADD \t\t\t\\n    using \n      SWAP2 \t\t\t\\n    using \n      SWAP1 \t\t\t\\n    using \n      PUSH 0\t\t\t\\n    using \n      MSTORE \t\t\t\\n    using \n      PUSH 20\t\t\t\\n    using \n      PUSH 0\t\t\t\\n    using \n      KECCAK256 \t\t\t\\n    using \n      SWAP1 \t\t\t\\n    using \n    tag 153\t\t\t\\n    using \n      JUMPDEST \t\t\t\\n    using \n      DUP2 \t\t\t\\n    using \n      SLOAD \t\t\t\\n    using \n      DUP2 \t\t\t\\n    using \n      MSTORE \t\t\t\\n    using \n      SWAP1 \t\t\t\\n    using \n      PUSH 1\t\t\t\\n    using \n      ADD \t\t\t\\n    using \n      SWAP1 \t\t\t\\n    using \n      PUSH 20\t\t\t\\n    using \n      ADD \t\t\t\\n    using \n      DUP1 \t\t\t\\n    using \n      DUP4 \t\t\t\\n    using \n      GT \t\t\t\\n    using \n      PUSH [tag] 153\t\t\t\\n    using \n      JUMPI \t\t\t\\n    using \n      DUP3 \t\t\t\\n    using \n      SWAP1 \t\t\t\\n    using \n      SUB \t\t\t\\n    using \n      PUSH 1F\t\t\t\\n    using \n      AND \t\t\t\\n    using \n      DUP3 \t\t\t\\n    using \n      ADD \t\t\t\\n    using \n      SWAP2 \t\t\t\\n    using \n    tag 151\t\t\t\\n    using \n      JUMPDEST \t\t\t\\n    using \n      POP \t\t\t\\n    using \n      POP \t\t\t\\n    using \n      POP \t\t\t\\n    using \n      POP \t\t\t\\n    using \n      POP \t\t\t\\n    using \n      SWAP1 \t\t\t\\n    using \n      POP \t\t\t\\n    using \n      SWAP2 \t\t\t       require(_isAdmin(msg.se...\n      SWAP1 \t\t\t       require(_isAdmin(msg.se...\n      POP \t\t\t       require(_isAdmin(msg.se...\n      JUMP \t\t\t       require(_isAdmin(msg.se...\n    tag 53\t\t\tfunction removeAdmin(address _...\n      JUMPDEST \t\t\tfunction removeAdmin(address _...\n      PUSH [tag] 155\t\t\tush(_admin);\\r\n      PUSH [tag] 156\t\t\tush(_admin)\n      JUMP \t\t\tush(_admin);\\r\n    tag 155\t\t\tush(_admin);\\r\n      JUMPDEST \t\t\tush(_admin);\\r\n      PUSH 0\t\t\tuint len\n      PUSH 4\t\t\tadmins\n      DUP1 \t\t\tadmins.length\n      SLOAD \t\t\tadmins.length\n      SWAP1 \t\t\tadmins.length\n      POP \t\t\tadmins.length\n      SWAP1 \t\t\tuint len = admins.length\n      POP \t\t\tuint len = admins.length\n      PUSH 0\t\t\tuint i\n    tag 158\t\t\tfor (uint i = 0; i < len; i++)...\n      JUMPDEST \t\t\tfor (uint i = 0; i < len; i++)...\n      DUP2 \t\t\tlen\n      DUP2 \t\t\ti\n      LT \t\t\ti < len\n      ISZERO \t\t\tfor (uint i = 0; i < len; i++)...\n      PUSH [tag] 159\t\t\tfor (uint i = 0; i < len; i++)...\n      JUMPI \t\t\tfor (uint i = 0; i < len; i++)...\n      DUP3 \t\t\t_admin\n      PUSH FFFFFFFFFFFFFFFFFFFFFFFFFFFFFFFFFFFFFFFF\t\t\tadmins[i] == _admin\n      AND \t\t\tadmins[i] == _admin\n      PUSH 4\t\t\tadmins\n      DUP3 \t\t\ti\n      DUP2 \t\t\tadmins[i]\n      SLOAD \t\t\tadmins[i]\n      DUP2 \t\t\tadmins[i]\n      LT \t\t\tadmins[i]\n      PUSH [tag] 161\t\t\tadmins[i]\n      JUMPI \t\t\tadmins[i]\n      PUSH [tag] 162\t\t\tadmins[i]\n      PUSH [tag] 163\t\t\tadmins[i]\n      JUMP \t\t\tadmins[i]\n    tag 162\t\t\tadmins[i]\n      JUMPDEST \t\t\tadmins[i]\n    tag 161\t\t\tadmins[i]\n      JUMPDEST \t\t\tadmins[i]\n      SWAP1 \t\t\tadmins[i]\n      PUSH 0\t\t\tadmins[i]\n      MSTORE \t\t\tadmins[i]\n      PUSH 20\t\t\tadmins[i]\n      PUSH 0\t\t\tadmins[i]\n      KECCAK256 \t\t\tadmins[i]\n      ADD \t\t\tadmins[i]\n      PUSH 0\t\t\tadmins[i]\n      SWAP1 \t\t\tadmins[i]\n      SLOAD \t\t\tadmins[i]\n      SWAP1 \t\t\tadmins[i]\n      PUSH 100\t\t\tadmins[i]\n      EXP \t\t\tadmins[i]\n      SWAP1 \t\t\tadmins[i]\n      DIV \t\t\tadmins[i]\n      PUSH FFFFFFFFFFFFFFFFFFFFFFFFFFFFFFFFFFFFFFFF\t\t\tadmins[i]\n      AND \t\t\tadmins[i]\n      PUSH FFFFFFFFFFFFFFFFFFFFFFFFFFFFFFFFFFFFFFFF\t\t\tadmins[i] == _admin\n      AND \t\t\tadmins[i] == _admin\n      SUB \t\t\tadmins[i] == _admin\n      PUSH [tag] 165\t\t\tif (admins[i] == _admin) {\\r\\n...\n      JUMPI \t\t\tif (admins[i] == _admin) {\\r\\n...\n      PUSH 4\t\t\tadmins\n      PUSH 1\t\t\t1\n      DUP4 \t\t\tlen\n      PUSH [tag] 166\t\t\tlen - 1\n      SWAP2 \t\t\tlen - 1\n      SWAP1 \t\t\tlen - 1\n      PUSH [tag] 167\t\t\tlen - 1\n      JUMP \t\t\tlen - 1\n    tag 166\t\t\tlen - 1\n      JUMPDEST \t\t\tlen - 1\n      DUP2 \t\t\tadmins[len - 1]\n      SLOAD \t\t\tadmins[len - 1]\n      DUP2 \t\t\tadmins[len - 1]\n      LT \t\t\tadmins[len - 1]\n      PUSH [tag] 168\t\t\tadmins[len - 1]\n      JUMPI \t\t\tadmins[len - 1]\n      PUSH [tag] 169\t\t\tadmins[len - 1]\n      PUSH [tag] 163\t\t\tadmins[len - 1]\n      JUMP \t\t\tadmins[len - 1]\n    tag 169\t\t\tadmins[len - 1]\n      JUMPDEST \t\t\tadmins[len - 1]\n    tag 168\t\t\tadmins[len - 1]\n      JUMPDEST \t\t\tadmins[len - 1]\n      SWAP1 \t\t\tadmins[len - 1]\n      PUSH 0\t\t\tadmins[len - 1]\n      MSTORE \t\t\tadmins[len - 1]\n      PUSH 20\t\t\tadmins[len - 1]\n      PUSH 0\t\t\tadmins[len - 1]\n      KECCAK256 \t\t\tadmins[len - 1]\n      ADD \t\t\tadmins[len - 1]\n      PUSH 0\t\t\tadmins[len - 1]\n      SWAP1 \t\t\tadmins[len - 1]\n      SLOAD \t\t\tadmins[len - 1]\n      SWAP1 \t\t\tadmins[len - 1]\n      PUSH 100\t\t\tadmins[len - 1]\n      EXP \t\t\tadmins[len - 1]\n      SWAP1 \t\t\tadmins[len - 1]\n      DIV \t\t\tadmins[len - 1]\n      PUSH FFFFFFFFFFFFFFFFFFFFFFFFFFFFFFFFFFFFFFFF\t\t\tadmins[len - 1]\n      AND \t\t\tadmins[len - 1]\n      PUSH 4\t\t\tadmins\n      DUP3 \t\t\ti\n      DUP2 \t\t\tadmins[i]\n      SLOAD \t\t\tadmins[i]\n      DUP2 \t\t\tadmins[i]\n      LT \t\t\tadmins[i]\n      PUSH [tag] 171\t\t\tadmins[i]\n      JUMPI \t\t\tadmins[i]\n      PUSH [tag] 172\t\t\tadmins[i]\n      PUSH [tag] 163\t\t\tadmins[i]\n      JUMP \t\t\tadmins[i]\n    tag 172\t\t\tadmins[i]\n      JUMPDEST \t\t\tadmins[i]\n    tag 171\t\t\tadmins[i]\n      JUMPDEST \t\t\tadmins[i]\n      SWAP1 \t\t\tadmins[i]\n      PUSH 0\t\t\tadmins[i]\n      MSTORE \t\t\tadmins[i]\n      PUSH 20\t\t\tadmins[i]\n      PUSH 0\t\t\tadmins[i]\n      KECCAK256 \t\t\tadmins[i]\n      ADD \t\t\tadmins[i]\n      PUSH 0\t\t\tadmins[i]\n      PUSH 100\t\t\tadmins[i] = admins[len - 1]\n      EXP \t\t\tadmins[i] = admins[len - 1]\n      DUP2 \t\t\tadmins[i] = admins[len - 1]\n      SLOAD \t\t\tadmins[i] = admins[len - 1]\n      DUP2 \t\t\tadmins[i] = admins[len - 1]\n      PUSH FFFFFFFFFFFFFFFFFFFFFFFFFFFFFFFFFFFFFFFF\t\t\tadmins[i] = admins[len - 1]\n      MUL \t\t\tadmins[i] = admins[len - 1]\n      NOT \t\t\tadmins[i] = admins[len - 1]\n      AND \t\t\tadmins[i] = admins[len - 1]\n      SWAP1 \t\t\tadmins[i] = admins[len - 1]\n      DUP4 \t\t\tadmins[i] = admins[len - 1]\n      PUSH FFFFFFFFFFFFFFFFFFFFFFFFFFFFFFFFFFFFFFFF\t\t\tadmins[i] = admins[len - 1]\n      AND \t\t\tadmins[i] = admins[len - 1]\n      MUL \t\t\tadmins[i] = admins[len - 1]\n      OR \t\t\tadmins[i] = admins[len - 1]\n      SWAP1 \t\t\tadmins[i] = admins[len - 1]\n      SSTORE \t\t\tadmins[i] = admins[len - 1]\n      POP \t\t\tadmins[i] = admins[len - 1]\n      PUSH 4\t\t\tadmins\n      DUP1 \t\t\tadmins.pop()\n      SLOAD \t\t\tadmins.pop()\n      DUP1 \t\t\tadmins.pop()\n      PUSH [tag] 174\t\t\tadmins.pop()\n      JUMPI \t\t\tadmins.pop()\n      PUSH [tag] 175\t\t\tadmins.pop()\n      PUSH [tag] 176\t\t\tadmins.pop()\n      JUMP \t\t\tadmins.pop()\n    tag 175\t\t\tadmins.pop()\n      JUMPDEST \t\t\tadmins.pop()\n    tag 174\t\t\tadmins.pop()\n      JUMPDEST \t\t\tadmins.pop()\n      PUSH 1\t\t\tadmins.pop()\n      SWAP1 \t\t\tadmins.pop()\n      SUB \t\t\tadmins.pop()\n      DUP2 \t\t\tadmins.pop()\n      DUP2 \t\t\tadmins.pop()\n      SWAP1 \t\t\tadmins.pop()\n      PUSH 0\t\t\tadmins.pop()\n      MSTORE \t\t\tadmins.pop()\n      PUSH 20\t\t\tadmins.pop()\n      PUSH 0\t\t\tadmins.pop()\n      KECCAK256 \t\t\tadmins.pop()\n      ADD \t\t\tadmins.pop()\n      PUSH 0\t\t\tadmins.pop()\n      PUSH 100\t\t\tadmins.pop()\n      EXP \t\t\tadmins.pop()\n      DUP2 \t\t\tadmins.pop()\n      SLOAD \t\t\tadmins.pop()\n      SWAP1 \t\t\tadmins.pop()\n      PUSH FFFFFFFFFFFFFFFFFFFFFFFFFFFFFFFFFFFFFFFF\t\t\tadmins.pop()\n      MUL \t\t\tadmins.pop()\n      NOT \t\t\tadmins.pop()\n      AND \t\t\tadmins.pop()\n      SWAP1 \t\t\tadmins.pop()\n      SSTORE \t\t\tadmins.pop()\n      SWAP1 \t\t\tadmins.pop()\n      SSTORE \t\t\tadmins.pop()\n      POP \t\t\treturn;\n      POP \t\t\treturn;\n      PUSH [tag] 157\t\t\treturn;\n      JUMP \t\t\treturn;\n    tag 165\t\t\tif (admins[i] == _admin) {\\r\\n...\n      JUMPDEST \t\t\tif (admins[i] == _admin) {\\r\\n...\n      DUP1 \t\t\ti++\n      DUP1 \t\t\ti++\n      PUSH [tag] 178\t\t\ti++\n      SWAP1 \t\t\ti++\n      PUSH [tag] 179\t\t\ti++\n      JUMP \t\t\ti++\n    tag 178\t\t\ti++\n      JUMPDEST \t\t\ti++\n      SWAP2 \t\t\ti++\n      POP \t\t\ti++\n      POP \t\t\ti++\n      PUSH [tag] 158\t\t\tfor (uint i = 0; i < len; i++)...\n      JUMP \t\t\tfor (uint i = 0; i < len; i++)...\n    tag 159\t\t\tfor (uint i = 0; i < len; i++)...\n      JUMPDEST \t\t\tfor (uint i = 0; i < len; i++)...\n      POP \t\t\tfor (uint i = 0; i < len; i++)...\n      PUSH 40\t\t\trevert(\"Admin not found\")\n      MLOAD \t\t\trevert(\"Admin not found\")\n      PUSH 8C379A000000000000000000000000000000000000000000000000000000000\t\t\trevert(\"Admin not found\")\n      DUP2 \t\t\trevert(\"Admin not found\")\n      MSTORE \t\t\trevert(\"Admin not found\")\n      PUSH 4\t\t\trevert(\"Admin not found\")\n      ADD \t\t\trevert(\"Admin not found\")\n      PUSH [tag] 180\t\t\trevert(\"Admin not found\")\n      SWAP1 \t\t\trevert(\"Admin not found\")\n      PUSH [tag] 181\t\t\trevert(\"Admin not found\")\n      JUMP \t\t\trevert(\"Admin not found\")\n    tag 180\t\t\trevert(\"Admin not found\")\n      JUMPDEST \t\t\trevert(\"Admin not found\")\n      PUSH 40\t\t\trevert(\"Admin not found\")\n      MLOAD \t\t\trevert(\"Admin not found\")\n      DUP1 \t\t\trevert(\"Admin not found\")\n      SWAP2 \t\t\trevert(\"Admin not found\")\n      SUB \t\t\trevert(\"Admin not found\")\n      SWAP1 \t\t\trevert(\"Admin not found\")\n      REVERT \t\t\trevert(\"Admin not found\")\n    tag 157\t\t\t \n      JUMPDEST \t\t\t \n      POP \t\t\tfunction removeAdmin(address _...\n      JUMP \t\t\tfunction removeAdmin(address _...\n    tag 55\t\t\tsalVerifier public verifier;\\r...\n      JUMPDEST \t\t\tsalVerifier public verifier;\\r...\n      PUSH B\t\t\tsalVerifier public verifier;\\r...\n      PUSH 0\t\t\tsalVerifier public verifier;\\r...\n      SWAP1 \t\t\tsalVerifier public verifier;\\r...\n      SLOAD \t\t\tsalVerifier public verifier;\\r...\n      SWAP1 \t\t\tsalVerifier public verifier;\\r...\n      PUSH 100\t\t\tsalVerifier public verifier;\\r...\n      EXP \t\t\tsalVerifier public verifier;\\r...\n      SWAP1 \t\t\tsalVerifier public verifier;\\r...\n      DIV \t\t\tsalVerifier public verifier;\\r...\n      PUSH FFFFFFFFFFFFFFFFFFFFFFFFFFFFFFFFFFFFFFFF\t\t\tsalVerifier public verifier;\\r...\n      AND \t\t\tsalVerifier public verifier;\\r...\n      DUP2 \t\t\tsalVerifier public verifier;\\r...\n      JUMP \t\t\tsalVerifier public verifier;\\r...\n    tag 61\t\t\t mintToken(address to, uint256...\n      JUMPDEST \t\t\t mintToken(address to, uint256...\n      PUSH 0\t\t\t \n      DUP3 \t\t\tngth\n      DUP3 \t\t\tngth\n      SWAP1 \t\t\tme).length > 0, \"N\n      POP \t\t\tme).length > 0, \"N\n      GT \t\t\tme).length > 0, \"Name \n      PUSH [tag] 183\t\t\tbytes(name).length > 0, \"Name ...\n      JUMPI \t\t\tbytes(name).length > 0, \"Name ...\n      PUSH 40\t\t\tbytes(name).length > 0, \"Name ...\n      MLOAD \t\t\tbytes(name).length > 0, \"Name ...\n      PUSH 8C379A000000000000000000000000000000000000000000000000000000000\t\t\tbytes(name).length > 0, \"Name ...\n      DUP2 \t\t\tbytes(name).length > 0, \"Name ...\n      MSTORE \t\t\tbytes(name).length > 0, \"Name ...\n      PUSH 4\t\t\tbytes(name).length > 0, \"Name ...\n      ADD \t\t\tbytes(name).length > 0, \"Name ...\n      PUSH [tag] 184\t\t\tbytes(name).length > 0, \"Name ...\n      SWAP1 \t\t\tbytes(name).length > 0, \"Name ...\n      PUSH [tag] 185\t\t\tbytes(name).length > 0, \"Name ...\n      JUMP \t\t\tbytes(name).length > 0, \"Name ...\n    tag 184\t\t\tbytes(name).length > 0, \"Name ...\n      JUMPDEST \t\t\tbytes(name).length > 0, \"Name ...\n      PUSH 40\t\t\tbytes(name).length > 0, \"Name ...\n      MLOAD \t\t\tbytes(name).length > 0, \"Name ...\n      DUP1 \t\t\tbytes(name).length > 0, \"Name ...\n      SWAP2 \t\t\tbytes(name).length > 0, \"Name ...\n      SUB \t\t\tbytes(name).length > 0, \"Name ...\n      SWAP1 \t\t\tbytes(name).length > 0, \"Name ...\n      REVERT \t\t\tbytes(name).length > 0, \"Name ...\n    tag 183\t\t\tbytes(name).length > 0, \"Name ...\n      JUMPDEST \t\t\tbytes(name).length > 0, \"Name ...\n      PUSH 0\t\t\ttokenID = 0;\\r\\n \n      DUP1 \t\t\tnd = false\n      PUSH 0\t\t\t] memory ids = _allT\n      PUSH [tag] 186\t\t\tnIDs.values();\\r\\n     \n      PUSH 5\t\t\tnIDs.values(\n      PUSH [tag] 187\t\t\tnIDs.values();\\r\\n   \n      JUMP \t\t\tnIDs.values();\\r\\n     \n    tag 186\t\t\tnIDs.values();\\r\\n     \n      JUMPDEST \t\t\tnIDs.values();\\r\\n     \n      SWAP1 \t\t\t] memory ids = _allTokenIDs.va...\n      POP \t\t\t] memory ids = _allTokenIDs.va...\n      PUSH 0\t\t\ti = 0; i \n    tag 188\t\t\tt256 i = 0; i < ids.length; i+...\n      JUMPDEST \t\t\tt256 i = 0; i < ids.length; i+...\n      DUP2 \t\t\tth;\n      MLOAD \t\t\tth; i++) {\n      DUP2 \t\t\tl\n      LT \t\t\tlength; i++) {\n      ISZERO \t\t\tt256 i = 0; i < ids.length; i+...\n      PUSH [tag] 189\t\t\tt256 i = 0; i < ids.length; i+...\n      JUMPI \t\t\tt256 i = 0; i < ids.length; i+...\n      DUP6 \t\t\t{\\r\\n \n      DUP6 \t\t\t{\\r\\n \n      PUSH 40\t\t\t6(bytes(name))) {\\r\\n   \n      MLOAD \t\t\t6(bytes(name))) {\\r\\n   \n      PUSH [tag] 191\t\t\t6(bytes(name))) {\\r\\n   \n      SWAP3 \t\t\t6(bytes(name))) {\\r\\n   \n      SWAP2 \t\t\t6(bytes(name))) {\\r\\n   \n      SWAP1 \t\t\t6(bytes(name))) {\\r\\n   \n      PUSH [tag] 192\t\t\t6(bytes(name))) {\\r\\n   \n      JUMP \t\t\t6(bytes(name))) {\\r\\n   \n    tag 191\t\t\t6(bytes(name))) {\\r\\n   \n      JUMPDEST \t\t\t6(bytes(name))) {\\r\\n   \n      PUSH 40\t\t\t6(bytes(name))) {\\r\\n   \n      MLOAD \t\t\t6(bytes(name))) {\\r\\n   \n      DUP1 \t\t\t6(bytes(name))) {\\r\\n   \n      SWAP2 \t\t\t6(bytes(name))) {\\r\\n   \n      SUB \t\t\t6(bytes(name))) {\\r\\n   \n      SWAP1 \t\t\t6(bytes(name))) {\\r\\n   \n      KECCAK256 \t\t\t6(bytes(name))) {\\r\\n   \n      PUSH 7\t\t\te[ids[i]]\n      PUSH 0\t\t\te[ids[i]])) == ke\n      DUP5 \t\t\t) =\n      DUP5 \t\t\t \n      DUP2 \t\t\t) == k\n      MLOAD \t\t\t) == k\n      DUP2 \t\t\t) == k\n      LT \t\t\t) == k\n      PUSH [tag] 193\t\t\t) == k\n      JUMPI \t\t\t) == k\n      PUSH [tag] 194\t\t\t) == k\n      PUSH [tag] 163\t\t\t) == k\n      JUMP \t\t\t) == k\n    tag 194\t\t\t) == k\n      JUMPDEST \t\t\t) == k\n    tag 193\t\t\t) == k\n      JUMPDEST \t\t\t) == k\n      PUSH 20\t\t\t) == k\n      MUL \t\t\t) == k\n      PUSH 20\t\t\t) == k\n      ADD \t\t\t) == k\n      ADD \t\t\t) == k\n      MLOAD \t\t\t) == k\n      DUP2 \t\t\te[ids[i]])) == ke\n      MSTORE \t\t\te[ids[i]])) == ke\n      PUSH 20\t\t\te[ids[i]])) == ke\n      ADD \t\t\te[ids[i]])) == ke\n      SWAP1 \t\t\te[ids[i]])) == ke\n      DUP2 \t\t\te[ids[i]])) == ke\n      MSTORE \t\t\te[ids[i]])) == ke\n      PUSH 20\t\t\te[ids[i]])) == ke\n      ADD \t\t\te[ids[i]])) == ke\n      PUSH 0\t\t\te[ids[i]])) == ke\n      KECCAK256 \t\t\te[ids[i]])) == ke\n      PUSH 40\t\t\t6(bytes(tokenName[ids[i]])) ==...\n      MLOAD \t\t\t6(bytes(tokenName[ids[i]])) ==...\n      PUSH [tag] 195\t\t\t6(bytes(tokenName[ids[i]])) ==...\n      SWAP2 \t\t\t6(bytes(tokenName[ids[i]])) ==...\n      SWAP1 \t\t\t6(bytes(tokenName[ids[i]])) ==...\n      PUSH [tag] 196\t\t\t6(bytes(tokenName[ids[i]])) ==...\n      JUMP \t\t\t6(bytes(tokenName[ids[i]])) ==...\n    tag 195\t\t\t6(bytes(tokenName[ids[i]])) ==...\n      JUMPDEST \t\t\t6(bytes(tokenName[ids[i]])) ==...\n      PUSH 40\t\t\t6(bytes(tokenName[ids[i]])) ==...\n      MLOAD \t\t\t6(bytes(tokenName[ids[i]])) ==...\n      DUP1 \t\t\t6(bytes(tokenName[ids[i]])) ==...\n      SWAP2 \t\t\t6(bytes(tokenName[ids[i]])) ==...\n      SUB \t\t\t6(bytes(tokenName[ids[i]])) ==...\n      SWAP1 \t\t\t6(bytes(tokenName[ids[i]])) ==...\n      KECCAK256 \t\t\t6(bytes(tokenName[ids[i]])) ==...\n      SUB \t\t\t6(bytes(tokenName[ids[i]])) ==...\n      PUSH [tag] 197\t\t\tak256(bytes(tokenName[ids[i]])...\n      JUMPI \t\t\tak256(bytes(tokenName[ids[i]])...\n      DUP2 \t\t\t\\n  \n      DUP2 \t\t\t \n      DUP2 \t\t\t\\n     \n      MLOAD \t\t\t\\n     \n      DUP2 \t\t\t\\n     \n      LT \t\t\t\\n     \n      PUSH [tag] 198\t\t\t\\n     \n      JUMPI \t\t\t\\n     \n      PUSH [tag] 199\t\t\t\\n     \n      PUSH [tag] 163\t\t\t\\n     \n      JUMP \t\t\t\\n     \n    tag 199\t\t\t\\n     \n      JUMPDEST \t\t\t\\n     \n    tag 198\t\t\t\\n     \n      JUMPDEST \t\t\t\\n     \n      PUSH 20\t\t\t\\n     \n      MUL \t\t\t\\n     \n      PUSH 20\t\t\t\\n     \n      ADD \t\t\t\\n     \n      ADD \t\t\t\\n     \n      MLOAD \t\t\t\\n     \n      SWAP4 \t\t\t= ids[i];\\r\\n     \n      POP \t\t\t= ids[i];\\r\\n     \n      PUSH 1\t\t\t    \n      SWAP3 \t\t\ttrue;\\r\\n     \n      POP \t\t\ttrue;\\r\\n     \n      PUSH [tag] 189\t\t\t     \n      JUMP \t\t\t     \n    tag 197\t\t\tak256(bytes(tokenName[ids[i]])...\n      JUMPDEST \t\t\tak256(bytes(tokenName[ids[i]])...\n      DUP1 \t\t\t   \n      DUP1 \t\t\t   \n      PUSH [tag] 200\t\t\t   \n      SWAP1 \t\t\t   \n      PUSH [tag] 179\t\t\t   \n      JUMP \t\t\t   \n    tag 200\t\t\t   \n      JUMPDEST \t\t\t   \n      SWAP2 \t\t\t   \n      POP \t\t\t   \n      POP \t\t\t   \n      PUSH [tag] 188\t\t\tt256 i = 0; i < ids.length; i+...\n      JUMP \t\t\tt256 i = 0; i < ids.length; i+...\n    tag 189\t\t\tt256 i = 0; i < ids.length; i+...\n      JUMPDEST \t\t\tt256 i = 0; i < ids.length; i+...\n      POP \t\t\tt256 i = 0; i < ids.length; i+...\n      DUP2 \t\t\t\\r\\n   \n      ISZERO \t\t\td) {\\r\\n            _mint(to, ...\n      PUSH [tag] 201\t\t\td) {\\r\\n            _mint(to, ...\n      JUMPI \t\t\td) {\\r\\n            _mint(to, ...\n      PUSH [tag] 202\t\t\t, tokenID, amount, data);\\r\\n ...\n      DUP10 \t\t\tnI\n      DUP5 \t\t\t amount\n      DUP11 \t\t\tdata);\n      DUP11 \t\t\t    \n      DUP11 \t\t\t    \n      DUP1 \t\t\t, tokenID, amount, data);\\r\\n ...\n      DUP1 \t\t\t, tokenID, amount, data);\\r\\n ...\n      PUSH 1F\t\t\t, tokenID, amount, data);\\r\\n ...\n      ADD \t\t\t, tokenID, amount, data);\\r\\n ...\n      PUSH 20\t\t\t, tokenID, amount, data);\\r\\n ...\n      DUP1 \t\t\t, tokenID, amount, data);\\r\\n ...\n      SWAP2 \t\t\t, tokenID, amount, data);\\r\\n ...\n      DIV \t\t\t, tokenID, amount, data);\\r\\n ...\n      MUL \t\t\t, tokenID, amount, data);\\r\\n ...\n      PUSH 20\t\t\t, tokenID, amount, data);\\r\\n ...\n      ADD \t\t\t, tokenID, amount, data);\\r\\n ...\n      PUSH 40\t\t\t, tokenID, amount, data);\\r\\n ...\n      MLOAD \t\t\t, tokenID, amount, data);\\r\\n ...\n      SWAP1 \t\t\t, tokenID, amount, data);\\r\\n ...\n      DUP2 \t\t\t, tokenID, amount, data);\\r\\n ...\n      ADD \t\t\t, tokenID, amount, data);\\r\\n ...\n      PUSH 40\t\t\t, tokenID, amount, data);\\r\\n ...\n      MSTORE \t\t\t, tokenID, amount, data);\\r\\n ...\n      DUP1 \t\t\t, tokenID, amount, data);\\r\\n ...\n      SWAP4 \t\t\t, tokenID, amount, data);\\r\\n ...\n      SWAP3 \t\t\t, tokenID, amount, data);\\r\\n ...\n      SWAP2 \t\t\t, tokenID, amount, data);\\r\\n ...\n      SWAP1 \t\t\t, tokenID, amount, data);\\r\\n ...\n      DUP2 \t\t\t, tokenID, amount, data);\\r\\n ...\n      DUP2 \t\t\t, tokenID, amount, data);\\r\\n ...\n      MSTORE \t\t\t, tokenID, amount, data);\\r\\n ...\n      PUSH 20\t\t\t, tokenID, amount, data);\\r\\n ...\n      ADD \t\t\t, tokenID, amount, data);\\r\\n ...\n      DUP4 \t\t\t, tokenID, amount, data);\\r\\n ...\n      DUP4 \t\t\t, tokenID, amount, data);\\r\\n ...\n      DUP1 \t\t\t, tokenID, amount, data);\\r\\n ...\n      DUP3 \t\t\t, tokenID, amount, data);\\r\\n ...\n      DUP5 \t\t\t, tokenID, amount, data);\\r\\n ...\n      CALLDATACOPY \t\t\t, tokenID, amount, data);\\r\\n ...\n      PUSH 0\t\t\t, tokenID, amount, data);\\r\\n ...\n      DUP2 \t\t\t, tokenID, amount, data);\\r\\n ...\n      DUP5 \t\t\t, tokenID, amount, data);\\r\\n ...\n      ADD \t\t\t, tokenID, amount, data);\\r\\n ...\n      MSTORE \t\t\t, tokenID, amount, data);\\r\\n ...\n      PUSH 1F\t\t\t, tokenID, amount, data);\\r\\n ...\n      NOT \t\t\t, tokenID, amount, data);\\r\\n ...\n      PUSH 1F\t\t\t, tokenID, amount, data);\\r\\n ...\n      DUP3 \t\t\t, tokenID, amount, data);\\r\\n ...\n      ADD \t\t\t, tokenID, amount, data);\\r\\n ...\n      AND \t\t\t, tokenID, amount, data);\\r\\n ...\n      SWAP1 \t\t\t, tokenID, amount, data);\\r\\n ...\n      POP \t\t\t, tokenID, amount, data);\\r\\n ...\n      DUP1 \t\t\t, tokenID, amount, data);\\r\\n ...\n      DUP4 \t\t\t, tokenID, amount, data);\\r\\n ...\n      ADD \t\t\t, tokenID, amount, data);\\r\\n ...\n      SWAP3 \t\t\t, tokenID, amount, data);\\r\\n ...\n      POP \t\t\t, tokenID, amount, data);\\r\\n ...\n      POP \t\t\t, tokenID, amount, data);\\r\\n ...\n      POP \t\t\t, tokenID, amount, data);\\r\\n ...\n      POP \t\t\t, tokenID, amount, data);\\r\\n ...\n      POP \t\t\t, tokenID, amount, data);\\r\\n ...\n      POP \t\t\t, tokenID, amount, data);\\r\\n ...\n      POP \t\t\t, tokenID, amount, data);\\r\\n ...\n      PUSH [tag] 203\t\t\t, tok\n      JUMP \t\t\t, tokenID, amount, data);\\r\\n ...\n    tag 202\t\t\t, tokenID, amount, data);\\r\\n ...\n      JUMPDEST \t\t\t, tokenID, amount, data);\\r\\n ...\n      PUSH [tag] 204\t\t\td) {\\r\\n            _mint(to, ...\n      JUMP \t\t\td) {\\r\\n            _mint(to, ...\n    tag 201\t\t\td) {\\r\\n            _mint(to, ...\n      JUMPDEST \t\t\td) {\\r\\n            _mint(to, ...\n      PUSH 0\t\t\twID;\\r\\n       \n      DUP1 \t\t\ttempts = 0;\\r\\n   \n      PUSH 0\t\t\t \n      SWAP1 \t\t\ttempts = 0;\\r\\n       \n      POP \t\t\ttempts = 0;\\r\\n       \n    tag 205\t\t\t            newID = 1000 + (ui...\n      JUMPDEST \t\t\t            newID = 1000 + (ui...\n      PUSH 15F90\t\t\t     \n      TIMESTAMP \t\t\tstamp, block.pr\n      PREVRANDAO \t\t\trandao, to, name\n      DUP14 \t\t\tat\n      DUP11 \t\t\tmpts\n      DUP11 \t\t\tmpts\n      DUP7 \t\t\t) % 9000\n      PUSH 40\t\t\tPacked(block.timestamp, block....\n      MLOAD \t\t\tPacked(block.timestamp, block....\n      PUSH 20\t\t\tPacked(block.timestamp, block....\n      ADD \t\t\tPacked(block.timestamp, block....\n      PUSH [tag] 208\t\t\tPacked(block.timestamp, block....\n      SWAP7 \t\t\tPacked(block.timestamp, block....\n      SWAP6 \t\t\tPacked(block.timestamp, block....\n      SWAP5 \t\t\tPacked(block.timestamp, block....\n      SWAP4 \t\t\tPacked(block.timestamp, block....\n      SWAP3 \t\t\tPacked(block.timestamp, block....\n      SWAP2 \t\t\tPacked(block.timestamp, block....\n      SWAP1 \t\t\tPacked(block.timestamp, block....\n      PUSH [tag] 209\t\t\tPacked(block.timestamp, block....\n      JUMP \t\t\tPacked(block.timestamp, block....\n    tag 208\t\t\tPacked(block.timestamp, block....\n      JUMPDEST \t\t\tPacked(block.timestamp, block....\n      PUSH 40\t\t\tPacked(block.timestamp, block....\n      MLOAD \t\t\tPacked(block.timestamp, block....\n      PUSH 20\t\t\tPacked(block.timestamp, block....\n      DUP2 \t\t\tPacked(block.timestamp, block....\n      DUP4 \t\t\tPacked(block.timestamp, block....\n      SUB \t\t\tPacked(block.timestamp, block....\n      SUB \t\t\tPacked(block.timestamp, block....\n      DUP2 \t\t\tPacked(block.timestamp, block....\n      MSTORE \t\t\tPacked(block.timestamp, block....\n      SWAP1 \t\t\tPacked(block.timestamp, block....\n      PUSH 40\t\t\tPacked(block.timestamp, block....\n      MSTORE \t\t\tPacked(block.timestamp, block....\n      DUP1 \t\t\tabi.encodePacked(block.timesta...\n      MLOAD \t\t\tabi.encodePacked(block.timesta...\n      SWAP1 \t\t\tabi.encodePacked(block.timesta...\n      PUSH 20\t\t\tabi.encodePacked(block.timesta...\n      ADD \t\t\tabi.encodePacked(block.timesta...\n      KECCAK256 \t\t\tabi.encodePacked(block.timesta...\n      PUSH 0\t\t\tccak256(abi.encodePacked(block...\n      SHR \t\t\tccak256(abi.encodePacked(block...\n      PUSH [tag] 210\t\t\tccak256(abi.encodePacked(block...\n      SWAP2 \t\t\tccak256(abi.encodePacked(block...\n      SWAP1 \t\t\tccak256(abi.encodePacked(block...\n      PUSH [tag] 211\t\t\tccak256(abi.encodePacked(block...\n      JUMP \t\t\tccak256(abi.encodePacked(block...\n    tag 210\t\t\tccak256(abi.encodePacked(block...\n      JUMPDEST \t\t\tccak256(abi.encodePacked(block...\n      PUSH 3E8\t\t\tnt25\n      PUSH [tag] 212\t\t\tnt256(keccak256(abi.encodePack...\n      SWAP2 \t\t\tnt256(keccak256(abi.encodePack...\n      SWAP1 \t\t\tnt256(keccak256(abi.encodePack...\n      PUSH [tag] 213\t\t\tnt256(keccak256(abi.encodePack...\n      JUMP \t\t\tnt256(keccak256(abi.encodePack...\n    tag 212\t\t\tnt256(keccak256(abi.encodePack...\n      JUMPDEST \t\t\tnt256(keccak256(abi.encodePack...\n      SWAP2 \t\t\t00 + (uint256(keccak256(abi.en...\n      POP \t\t\t00 + (uint256(keccak256(abi.en...\n      DUP1 \t\t\t;\\r\\n       \n      DUP1 \t\t\t;\\r\\n       \n      PUSH [tag] 214\t\t\t;\\r\\n       \n      SWAP1 \t\t\t;\\r\\n       \n      PUSH [tag] 179\t\t\t;\\r\\n       \n      JUMP \t\t\t;\\r\\n       \n    tag 214\t\t\t;\\r\\n       \n      JUMPDEST \t\t\t;\\r\\n       \n      SWAP2 \t\t\t;\\r\\n       \n      POP \t\t\t;\\r\\n       \n      POP \t\t\t;\\r\\n       \n      PUSH 64\t\t\tle \n      DUP2 \t\t\t 100, \"U\n      LT \t\t\t 100, \"Unable \n      PUSH [tag] 215\t\t\ttempts < 100, \"Unable to find ...\n      JUMPI \t\t\ttempts < 100, \"Unable to find ...\n      PUSH 40\t\t\ttempts < 100, \"Unable to find ...\n      MLOAD \t\t\ttempts < 100, \"Unable to find ...\n      PUSH 8C379A000000000000000000000000000000000000000000000000000000000\t\t\ttempts < 100, \"Unable to find ...\n      DUP2 \t\t\ttempts < 100, \"Unable to find ...\n      MSTORE \t\t\ttempts < 100, \"Unable to find ...\n      PUSH 4\t\t\ttempts < 100, \"Unable to find ...\n      ADD \t\t\ttempts < 100, \"Unable to find ...\n      PUSH [tag] 216\t\t\ttempts < 100, \"Unable to find ...\n      SWAP1 \t\t\ttempts < 100, \"Unable to find ...\n      PUSH [tag] 217\t\t\ttempts < 100, \"Unable to find ...\n      JUMP \t\t\ttempts < 100, \"Unable to find ...\n    tag 216\t\t\ttempts < 100, \"Unable to find ...\n      JUMPDEST \t\t\ttempts < 100, \"Unable to find ...\n      PUSH 40\t\t\ttempts < 100, \"Unable to find ...\n      MLOAD \t\t\ttempts < 100, \"Unable to find ...\n      DUP1 \t\t\ttempts < 100, \"Unable to find ...\n      SWAP2 \t\t\ttempts < 100, \"Unable to find ...\n      SUB \t\t\ttempts < 100, \"Unable to find ...\n      SWAP1 \t\t\ttempts < 100, \"Unable to find ...\n      REVERT \t\t\ttempts < 100, \"Unable to find ...\n    tag 215\t\t\ttempts < 100, \"Unable to find ...\n      JUMPDEST \t\t\ttempts < 100, \"Unable to find ...\n      PUSH [tag] 218\t\t\tDs.contains(newID));\\r\\n      \n      DUP3 \t\t\t     \n      PUSH 5\t\t\tDs.contains(\n      PUSH [tag] 219\t\t\tDs.contains(newID));\\r\n      SWAP1 \t\t\tDs.contains(newID));\\r\n      SWAP2 \t\t\tDs.contains(newID));\\r\\n      \n      SWAP1 \t\t\tDs.contains(newID));\\r\\n      \n      PUSH FFFFFFFF\t\t\tDs.contains(newID));\\r\\n      \n      AND \t\t\tDs.contains(newID));\\r\\n      \n      JUMP \t\t\tDs.contains(newID));\\r\\n      \n    tag 218\t\t\tDs.contains(newID));\\r\\n      \n      JUMPDEST \t\t\tDs.contains(newID));\\r\\n      \n      PUSH [tag] 205\t\t\t            newID = 1000 + (ui...\n      JUMPI \t\t\t            newID = 1000 + (ui...\n      PUSH [tag] 220\t\t\tDs.add(newID), \"TokenID\n      DUP3 \t\t\tokenI\n      PUSH 5\t\t\tDs.add(newID\n      PUSH [tag] 221\t\t\tDs.add(newID), \"\n      SWAP1 \t\t\tDs.add(newID), \"\n      SWAP2 \t\t\tDs.add(newID), \"TokenID\n      SWAP1 \t\t\tDs.add(newID), \"TokenID\n      PUSH FFFFFFFF\t\t\tDs.add(newID), \"TokenID\n      AND \t\t\tDs.add(newID), \"TokenID\n      JUMP \t\t\tDs.add(newID), \"TokenID\n    tag 220\t\t\tDs.add(newID), \"TokenID\n      JUMPDEST \t\t\tDs.add(newID), \"TokenID\n      PUSH [tag] 222\t\t\tllTokenIDs.add(newID), \"TokenI...\n      JUMPI \t\t\tllTokenIDs.add(newID), \"TokenI...\n      PUSH 40\t\t\tllTokenIDs.add(newID), \"TokenI...\n      MLOAD \t\t\tllTokenIDs.add(newID), \"TokenI...\n      PUSH 8C379A000000000000000000000000000000000000000000000000000000000\t\t\tllTokenIDs.add(newID), \"TokenI...\n      DUP2 \t\t\tllTokenIDs.add(newID), \"TokenI...\n      MSTORE \t\t\tllTokenIDs.add(newID), \"TokenI...\n      PUSH 4\t\t\tllTokenIDs.add(newID), \"TokenI...\n      ADD \t\t\tllTokenIDs.add(newID), \"TokenI...\n      PUSH [tag] 223\t\t\tllTokenIDs.add(newID), \"TokenI...\n      SWAP1 \t\t\tllTokenIDs.add(newID), \"TokenI...\n      PUSH [tag] 224\t\t\tllTokenIDs.add(newID), \"TokenI...\n      JUMP \t\t\tllTokenIDs.add(newID), \"TokenI...\n    tag 223\t\t\tllTokenIDs.add(newID), \"TokenI...\n      JUMPDEST \t\t\tllTokenIDs.add(newID), \"TokenI...\n      PUSH 40\t\t\tllTokenIDs.add(newID), \"TokenI...\n      MLOAD \t\t\tllTokenIDs.add(newID), \"TokenI...\n      DUP1 \t\t\tllTokenIDs.add(newID), \"TokenI...\n      SWAP2 \t\t\tllTokenIDs.add(newID), \"TokenI...\n      SUB \t\t\tllTokenIDs.add(newID), \"TokenI...\n      SWAP1 \t\t\tllTokenIDs.add(newID), \"TokenI...\n      REVERT \t\t\tllTokenIDs.add(newID), \"TokenI...\n    tag 222\t\t\tllTokenIDs.add(newID), \"TokenI...\n      JUMPDEST \t\t\tllTokenIDs.add(newID), \"TokenI...\n      PUSH [tag] 225\t\t\tnewID, amount, data);\\r\\n     ...\n      DUP12 \t\t\t a\n      DUP4 \t\t\tunt, \n      DUP13 \t\t\tta);\\r\\n\n      DUP13 \t\t\t    \n      DUP13 \t\t\t    \n      DUP1 \t\t\tnewID, amount, data);\\r\\n     ...\n      DUP1 \t\t\tnewID, amount, data);\\r\\n     ...\n      PUSH 1F\t\t\tnewID, amount, data);\\r\\n     ...\n      ADD \t\t\tnewID, amount, data);\\r\\n     ...\n      PUSH 20\t\t\tnewID, amount, data);\\r\\n     ...\n      DUP1 \t\t\tnewID, amount, data);\\r\\n     ...\n      SWAP2 \t\t\tnewID, amount, data);\\r\\n     ...\n      DIV \t\t\tnewID, amount, data);\\r\\n     ...\n      MUL \t\t\tnewID, amount, data);\\r\\n     ...\n      PUSH 20\t\t\tnewID, amount, data);\\r\\n     ...\n      ADD \t\t\tnewID, amount, data);\\r\\n     ...\n      PUSH 40\t\t\tnewID, amount, data);\\r\\n     ...\n      MLOAD \t\t\tnewID, amount, data);\\r\\n     ...\n      SWAP1 \t\t\tnewID, amount, data);\\r\\n     ...\n      DUP2 \t\t\tnewID, amount, data);\\r\\n     ...\n      ADD \t\t\tnewID, amount, data);\\r\\n     ...\n      PUSH 40\t\t\tnewID, amount, data);\\r\\n     ...\n      MSTORE \t\t\tnewID, amount, data);\\r\\n     ...\n      DUP1 \t\t\tnewID, amount, data);\\r\\n     ...\n      SWAP4 \t\t\tnewID, amount, data);\\r\\n     ...\n      SWAP3 \t\t\tnewID, amount, data);\\r\\n     ...\n      SWAP2 \t\t\tnewID, amount, data);\\r\\n     ...\n      SWAP1 \t\t\tnewID, amount, data);\\r\\n     ...\n      DUP2 \t\t\tnewID, amount, data);\\r\\n     ...\n      DUP2 \t\t\tnewID, amount, data);\\r\\n     ...\n      MSTORE \t\t\tnewID, amount, data);\\r\\n     ...\n      PUSH 20\t\t\tnewID, amount, data);\\r\\n     ...\n      ADD \t\t\tnewID, amount, data);\\r\\n     ...\n      DUP4 \t\t\tnewID, amount, data);\\r\\n     ...\n      DUP4 \t\t\tnewID, amount, data);\\r\\n     ...\n      DUP1 \t\t\tnewID, amount, data);\\r\\n     ...\n      DUP3 \t\t\tnewID, amount, data);\\r\\n     ...\n      DUP5 \t\t\tnewID, amount, data);\\r\\n     ...\n      CALLDATACOPY \t\t\tnewID, amount, data);\\r\\n     ...\n      PUSH 0\t\t\tnewID, amount, data);\\r\\n     ...\n      DUP2 \t\t\tnewID, amount, data);\\r\\n     ...\n      DUP5 \t\t\tnewID, amount, data);\\r\\n     ...\n      ADD \t\t\tnewID, amount, data);\\r\\n     ...\n      MSTORE \t\t\tnewID, amount, data);\\r\\n     ...\n      PUSH 1F\t\t\tnewID, amount, data);\\r\\n     ...\n      NOT \t\t\tnewID, amount, data);\\r\\n     ...\n      PUSH 1F\t\t\tnewID, amount, data);\\r\\n     ...\n      DUP3 \t\t\tnewID, amount, data);\\r\\n     ...\n      ADD \t\t\tnewID, amount, data);\\r\\n     ...\n      AND \t\t\tnewID, amount, data);\\r\\n     ...\n      SWAP1 \t\t\tnewID, amount, data);\\r\\n     ...\n      POP \t\t\tnewID, amount, data);\\r\\n     ...\n      DUP1 \t\t\tnewID, amount, data);\\r\\n     ...\n      DUP4 \t\t\tnewID, amount, data);\\r\\n     ...\n      ADD \t\t\tnewID, amount, data);\\r\\n     ...\n      SWAP3 \t\t\tnewID, amount, data);\\r\\n     ...\n      POP \t\t\tnewID, amount, data);\\r\\n     ...\n      POP \t\t\tnewID, amount, data);\\r\\n     ...\n      POP \t\t\tnewID, amount, data);\\r\\n     ...\n      POP \t\t\tnewID, amount, data);\\r\\n     ...\n      POP \t\t\tnewID, amount, data);\\r\\n     ...\n      POP \t\t\tnewID, amount, data);\\r\\n     ...\n      POP \t\t\tnewID, amount, data);\\r\\n     ...\n      PUSH [tag] 203\t\t\tnewID\n      JUMP \t\t\tnewID, amount, data);\\r\\n     ...\n    tag 225\t\t\tnewID, amount, data);\\r\\n     ...\n      JUMPDEST \t\t\tnewID, amount, data);\\r\\n     ...\n      DUP7 \t\t\t    \n      DUP7 \t\t\t    \n      PUSH 7\t\t\tnewID] = \n      PUSH 0\t\t\tnewID] = name;\\r\\n\n      DUP6 \t\t\tame;\\r\n      DUP2 \t\t\tnewID] = name;\\r\\n\n      MSTORE \t\t\tnewID] = name;\\r\\n\n      PUSH 20\t\t\tnewID] = name;\\r\\n\n      ADD \t\t\tnewID] = name;\\r\\n\n      SWAP1 \t\t\tnewID] = name;\\r\\n\n      DUP2 \t\t\tnewID] = name;\\r\\n\n      MSTORE \t\t\tnewID] = name;\\r\\n\n      PUSH 20\t\t\tnewID] = name;\\r\\n\n      ADD \t\t\tnewID] = name;\\r\\n\n      PUSH 0\t\t\tnewID] = name;\\r\\n\n      KECCAK256 \t\t\tnewID] = name;\\r\\n\n      SWAP2 \t\t\tnewID] = name;\\r\\n       \n      DUP3 \t\t\tnewID] = name;\\r\\n       \n      PUSH [tag] 226\t\t\tnewID] = name;\\r\\n       \n      SWAP3 \t\t\tnewID] = name;\\r\\n       \n      SWAP2 \t\t\tnewID] = name;\\r\\n       \n      SWAP1 \t\t\tnewID] = name;\\r\\n       \n      PUSH [tag] 227\t\t\tnewID] = name;\\r\\n       \n      JUMP \t\t\tnewID] = name;\\r\\n       \n    tag 226\t\t\tnewID] = name;\\r\\n       \n      JUMPDEST \t\t\tnewID] = name;\\r\\n       \n      POP \t\t\tnewID] = name;\\r\\n       \n      POP \t\t\t       // Generate a random 4-...\n      POP \t\t\t       // Generate a random 4-...\n    tag 204\t\t\td) {\\r\\n            _mint(to, ...\n      JUMPDEST \t\t\td) {\\r\\n            _mint(to, ...\n      POP \t\t\t   require(bytes(name).length ...\n      POP \t\t\t   require(bytes(name).length ...\n      POP \t\t\t   require(bytes(name).length ...\n      POP \t\t\t mintToken(address to, uint256...\n      POP \t\t\t mintToken(address to, uint256...\n      POP \t\t\t mintToken(address to, uint256...\n      POP \t\t\t mintToken(address to, uint256...\n      POP \t\t\t mintToken(address to, uint256...\n      POP \t\t\t mintToken(address to, uint256...\n      JUMP \t\t\t mintToken(address to, uint256...\n    tag 65\t\t\tafeBatchTransferFrom(\\r\\n     ...\n      JUMPDEST \t\t\tafeBatchTransferFrom(\\r\\n     ...\n      DUP2 \t\t\tngth, \"\n      MLOAD \t\t\tngth, \"ERC1155\n      DUP4 \t\t\tength ==\n      MLOAD \t\t\tength == amount\n      EQ \t\t\tength == amounts.length, \"ERC1...\n      PUSH [tag] 229\t\t\tkenIDs.length == amounts.lengt...\n      JUMPI \t\t\tkenIDs.length == amounts.lengt...\n      PUSH 40\t\t\tkenIDs.length == amounts.lengt...\n      MLOAD \t\t\tkenIDs.length == amounts.lengt...\n      PUSH 8C379A000000000000000000000000000000000000000000000000000000000\t\t\tkenIDs.length == amounts.lengt...\n      DUP2 \t\t\tkenIDs.length == amounts.lengt...\n      MSTORE \t\t\tkenIDs.length == amounts.lengt...\n      PUSH 4\t\t\tkenIDs.length == amounts.lengt...\n      ADD \t\t\tkenIDs.length == amounts.lengt...\n      PUSH [tag] 230\t\t\tkenIDs.length == amounts.lengt...\n      SWAP1 \t\t\tkenIDs.length == amounts.lengt...\n      PUSH [tag] 231\t\t\tkenIDs.length == amounts.lengt...\n      JUMP \t\t\tkenIDs.length == amounts.lengt...\n    tag 230\t\t\tkenIDs.length == amounts.lengt...\n      JUMPDEST \t\t\tkenIDs.length == amounts.lengt...\n      PUSH 40\t\t\tkenIDs.length == amounts.lengt...\n      MLOAD \t\t\tkenIDs.length == amounts.lengt...\n      DUP1 \t\t\tkenIDs.length == amounts.lengt...\n      SWAP2 \t\t\tkenIDs.length == amounts.lengt...\n      SUB \t\t\tkenIDs.length == amounts.lengt...\n      SWAP1 \t\t\tkenIDs.length == amounts.lengt...\n      REVERT \t\t\tkenIDs.length == amounts.lengt...\n    tag 229\t\t\tkenIDs.length == amounts.lengt...\n      JUMPDEST \t\t\tkenIDs.length == amounts.lengt...\n      PUSH 0\t\t\t5\n      PUSH FFFFFFFFFFFFFFFFFFFFFFFFFFFFFFFFFFFFFFFF\t\t\tess(0), \"ERC1155\n      AND \t\t\tess(0), \"ERC1155\n      DUP5 \t\t\tes\n      PUSH FFFFFFFFFFFFFFFFFFFFFFFFFFFFFFFFFFFFFFFF\t\t\tess(0), \"ERC1155\n      AND \t\t\tess(0), \"ERC1155\n      SUB \t\t\tess(0), \"ERC1155\n      PUSH [tag] 232\t\t\t != address(0), \"ERC1155: tran...\n      JUMPI \t\t\t != address(0), \"ERC1155: tran...\n      PUSH 40\t\t\t != address(0), \"ERC1155: tran...\n      MLOAD \t\t\t != address(0), \"ERC1155: tran...\n      PUSH 8C379A000000000000000000000000000000000000000000000000000000000\t\t\t != address(0), \"ERC1155: tran...\n      DUP2 \t\t\t != address(0), \"ERC1155: tran...\n      MSTORE \t\t\t != address(0), \"ERC1155: tran...\n      PUSH 4\t\t\t != address(0), \"ERC1155: tran...\n      ADD \t\t\t != address(0), \"ERC1155: tran...\n      PUSH [tag] 233\t\t\t != address(0), \"ERC1155: tran...\n      SWAP1 \t\t\t != address(0), \"ERC1155: tran...\n      PUSH [tag] 234\t\t\t != address(0), \"ERC1155: tran...\n      JUMP \t\t\t != address(0), \"ERC1155: tran...\n    tag 233\t\t\t != address(0), \"ERC1155: tran...\n      JUMPDEST \t\t\t != address(0), \"ERC1155: tran...\n      PUSH 40\t\t\t != address(0), \"ERC1155: tran...\n      MLOAD \t\t\t != address(0), \"ERC1155: tran...\n      DUP1 \t\t\t != address(0), \"ERC1155: tran...\n      SWAP2 \t\t\t != address(0), \"ERC1155: tran...\n      SUB \t\t\t != address(0), \"ERC1155: tran...\n      SWAP1 \t\t\t != address(0), \"ERC1155: tran...\n      REVERT \t\t\t != address(0), \"ERC1155: tran...\n    tag 232\t\t\t != address(0), \"ERC1155: tran...\n      JUMPDEST \t\t\t != address(0), \"ERC1155: tran...\n      PUSH 0\t\t\t= 0; i < \n    tag 235\t\t\t56 i = 0; i < tokenIDs.length;...\n      JUMPDEST \t\t\t56 i = 0; i < tokenIDs.length;...\n      DUP4 \t\t\tength; +\n      MLOAD \t\t\tength; ++i) {\\r\\n\n      DUP2 \t\t\tD\n      LT \t\t\tDs.length; ++i) {\\r\\n\n      ISZERO \t\t\t56 i = 0; i < tokenIDs.length;...\n      PUSH [tag] 236\t\t\t56 i = 0; i < tokenIDs.length;...\n      JUMPI \t\t\t56 i = 0; i < tokenIDs.length;...\n      PUSH [tag] 238\t\t\troofsVerified(tokenIDs[i], fro...\n      DUP5 \t\t\t], from,\n      DUP3 \t\t\tt\n      DUP2 \t\t\t], from, to\n      MLOAD \t\t\t], from, to\n      DUP2 \t\t\t], from, to\n      LT \t\t\t], from, to\n      PUSH [tag] 239\t\t\t], from, to\n      JUMPI \t\t\t], from, to\n      PUSH [tag] 240\t\t\t], from, to\n      PUSH [tag] 163\t\t\t], from, to\n      JUMP \t\t\t], from, to\n    tag 240\t\t\t], from, to\n      JUMPDEST \t\t\t], from, to\n    tag 239\t\t\t], from, to\n      JUMPDEST \t\t\t], from, to\n      PUSH 20\t\t\t], from, to\n      MUL \t\t\t], from, to\n      PUSH 20\t\t\t], from, to\n      ADD \t\t\t], from, to\n      ADD \t\t\t], from, to\n      MLOAD \t\t\t], from, to\n      DUP8 \t\t\t\\r\\n  \n      DUP8 \t\t\t  \n      PUSH [tag] 241\t\t\troofsVerified(tokenIDs[\n      JUMP \t\t\troofsVerified(tokenIDs[i], fro...\n    tag 238\t\t\troofsVerified(tokenIDs[i], fro...\n      JUMPDEST \t\t\troofsVerified(tokenIDs[i], fro...\n      PUSH [tag] 242\t\t\terFrom(from, to, tokenIDs[i], ...\n      DUP7 \t\t\ttoke\n      DUP7 \t\t\tDs\n      DUP7 \t\t\t], amoun\n      DUP5 \t\t\ts\n      DUP2 \t\t\t], amounts[\n      MLOAD \t\t\t], amounts[\n      DUP2 \t\t\t], amounts[\n      LT \t\t\t], amounts[\n      PUSH [tag] 243\t\t\t], amounts[\n      JUMPI \t\t\t], amounts[\n      PUSH [tag] 244\t\t\t], amounts[\n      PUSH [tag] 163\t\t\t], amounts[\n      JUMP \t\t\t], amounts[\n    tag 244\t\t\t], amounts[\n      JUMPDEST \t\t\t], amounts[\n    tag 243\t\t\t], amounts[\n      JUMPDEST \t\t\t], amounts[\n      PUSH 20\t\t\t], amounts[\n      MUL \t\t\t], amounts[\n      PUSH 20\t\t\t], amounts[\n      ADD \t\t\t], amounts[\n      ADD \t\t\t], amounts[\n      MLOAD \t\t\t], amounts[\n      DUP7 \t\t\t, data)\n      DUP6 \t\t\t\\r\n      DUP2 \t\t\t, data);\\r\\n\n      MLOAD \t\t\t, data);\\r\\n\n      DUP2 \t\t\t, data);\\r\\n\n      LT \t\t\t, data);\\r\\n\n      PUSH [tag] 245\t\t\t, data);\\r\\n\n      JUMPI \t\t\t, data);\\r\\n\n      PUSH [tag] 246\t\t\t, data);\\r\\n\n      PUSH [tag] 163\t\t\t, data);\\r\\n\n      JUMP \t\t\t, data);\\r\\n\n    tag 246\t\t\t, data);\\r\\n\n      JUMPDEST \t\t\t, data);\\r\\n\n    tag 245\t\t\t, data);\\r\\n\n      JUMPDEST \t\t\t, data);\\r\\n\n      PUSH 20\t\t\t, data);\\r\\n\n      MUL \t\t\t, data);\\r\\n\n      PUSH 20\t\t\t, data);\\r\\n\n      ADD \t\t\t, data);\\r\\n\n      ADD \t\t\t, data);\\r\\n\n      MLOAD \t\t\t, data);\\r\\n\n      DUP7 \t\t\t    \n      PUSH [tag] 133\t\t\terFrom(from, to,\n      JUMP \t\t\terFrom(from, to, tokenIDs[i], ...\n    tag 242\t\t\terFrom(from, to, tokenIDs[i], ...\n      JUMPDEST \t\t\terFrom(from, to, tokenIDs[i], ...\n      DUP1 \t\t\t   \n      PUSH [tag] 247\t\t\t   \n      SWAP1 \t\t\t   \n      PUSH [tag] 179\t\t\t   \n      JUMP \t\t\t   \n    tag 247\t\t\t   \n      JUMPDEST \t\t\t   \n      SWAP1 \t\t\t   \n      POP \t\t\t   \n      PUSH [tag] 235\t\t\t56 i = 0; i < tokenIDs.length;...\n      JUMP \t\t\t56 i = 0; i < tokenIDs.length;...\n    tag 236\t\t\t56 i = 0; i < tokenIDs.length;...\n      JUMPDEST \t\t\t56 i = 0; i < tokenIDs.length;...\n      POP \t\t\t56 i = 0; i < tokenIDs.length;...\n      POP \t\t\tafeBatchTransferFrom(\\r\\n     ...\n      POP \t\t\tafeBatchTransferFrom(\\r\\n     ...\n      POP \t\t\tafeBatchTransferFrom(\\r\\n     ...\n      POP \t\t\tafeBatchTransferFrom(\\r\\n     ...\n      POP \t\t\tafeBatchTransferFrom(\\r\\n     ...\n      JUMP \t\t\tafeBatchTransferFrom(\\r\\n     ...\n    tag 67\t\t\tfunction getAdmins() public vi...\n      JUMPDEST \t\t\tfunction getAdmins() public vi...\n      PUSH 60\t\t\taddress[] memory\n      PUSH [tag] 249\t\t\tush(_admin);\\r\n      PUSH [tag] 156\t\t\tush(_admin)\n      JUMP \t\t\tush(_admin);\\r\n    tag 249\t\t\tush(_admin);\\r\n      JUMPDEST \t\t\tush(_admin);\\r\n      PUSH 4\t\t\tadmins\n      DUP1 \t\t\treturn admins\n      SLOAD \t\t\treturn admins\n      DUP1 \t\t\treturn admins\n      PUSH 20\t\t\treturn admins\n      MUL \t\t\treturn admins\n      PUSH 20\t\t\treturn admins\n      ADD \t\t\treturn admins\n      PUSH 40\t\t\treturn admins\n      MLOAD \t\t\treturn admins\n      SWAP1 \t\t\treturn admins\n      DUP2 \t\t\treturn admins\n      ADD \t\t\treturn admins\n      PUSH 40\t\t\treturn admins\n      MSTORE \t\t\treturn admins\n      DUP1 \t\t\treturn admins\n      SWAP3 \t\t\treturn admins\n      SWAP2 \t\t\treturn admins\n      SWAP1 \t\t\treturn admins\n      DUP2 \t\t\treturn admins\n      DUP2 \t\t\treturn admins\n      MSTORE \t\t\treturn admins\n      PUSH 20\t\t\treturn admins\n      ADD \t\t\treturn admins\n      DUP3 \t\t\treturn admins\n      DUP1 \t\t\treturn admins\n      SLOAD \t\t\treturn admins\n      DUP1 \t\t\treturn admins\n      ISZERO \t\t\treturn admins\n      PUSH [tag] 251\t\t\treturn admins\n      JUMPI \t\t\treturn admins\n      PUSH 20\t\t\treturn admins\n      MUL \t\t\treturn admins\n      DUP3 \t\t\treturn admins\n      ADD \t\t\treturn admins\n      SWAP2 \t\t\treturn admins\n      SWAP1 \t\t\treturn admins\n      PUSH 0\t\t\treturn admins\n      MSTORE \t\t\treturn admins\n      PUSH 20\t\t\treturn admins\n      PUSH 0\t\t\treturn admins\n      KECCAK256 \t\t\treturn admins\n      SWAP1 \t\t\treturn admins\n    tag 252\t\t\treturn admins\n      JUMPDEST \t\t\treturn admins\n      DUP2 \t\t\treturn admins\n      PUSH 0\t\t\treturn admins\n      SWAP1 \t\t\treturn admins\n      SLOAD \t\t\treturn admins\n      SWAP1 \t\t\treturn admins\n      PUSH 100\t\t\treturn admins\n      EXP \t\t\treturn admins\n      SWAP1 \t\t\treturn admins\n      DIV \t\t\treturn admins\n      PUSH FFFFFFFFFFFFFFFFFFFFFFFFFFFFFFFFFFFFFFFF\t\t\treturn admins\n      AND \t\t\treturn admins\n      PUSH FFFFFFFFFFFFFFFFFFFFFFFFFFFFFFFFFFFFFFFF\t\t\treturn admins\n      AND \t\t\treturn admins\n      DUP2 \t\t\treturn admins\n      MSTORE \t\t\treturn admins\n      PUSH 20\t\t\treturn admins\n      ADD \t\t\treturn admins\n      SWAP1 \t\t\treturn admins\n      PUSH 1\t\t\treturn admins\n      ADD \t\t\treturn admins\n      SWAP1 \t\t\treturn admins\n      DUP1 \t\t\treturn admins\n      DUP4 \t\t\treturn admins\n      GT \t\t\treturn admins\n      PUSH [tag] 252\t\t\treturn admins\n      JUMPI \t\t\treturn admins\n    tag 251\t\t\treturn admins\n      JUMPDEST \t\t\treturn admins\n      POP \t\t\treturn admins\n      POP \t\t\treturn admins\n      POP \t\t\treturn admins\n      POP \t\t\treturn admins\n      POP \t\t\treturn admins\n      SWAP1 \t\t\treturn admins\n      POP \t\t\treturn admins\n      SWAP1 \t\t\tfunction getAdmins() public vi...\n      JUMP \t\t\tfunction getAdmins() public vi...\n    tag 73\t\t\ttoken ID to its name. But the ...\n      JUMPDEST \t\t\ttoken ID to its name. But the ...\n      PUSH 60\t\t\tokenName;\\r\\n\\r\\n\\r\\n \n      DUP2 \t\t\tst \n      MLOAD \t\t\tst setter \n      DUP4 \t\t\tom token\n      MLOAD \t\t\tom tokenID to r\n      EQ \t\t\tom tokenID to request setter \n      PUSH [tag] 254\t\t\tg from tokenID to request sett...\n      JUMPI \t\t\tg from tokenID to request sett...\n      DUP2 \t\t\ttri\n      MLOAD \t\t\ttring 'sen\n      DUP4 \t\t\tr' or 'r\n      MLOAD \t\t\tr' or 'receiver\n      PUSH 40\t\t\tt_id to prover's role (a strin...\n      MLOAD \t\t\tt_id to prover's role (a strin...\n      PUSH 5B05999100000000000000000000000000000000000000000000000000000000\t\t\tt_id to prover's role (a strin...\n      DUP2 \t\t\tt_id to prover's role (a strin...\n      MSTORE \t\t\tt_id to prover's role (a strin...\n      PUSH 4\t\t\tt_id to prover's role (a strin...\n      ADD \t\t\tt_id to prover's role (a strin...\n      PUSH [tag] 255\t\t\tt_id to prover's role (a strin...\n      SWAP3 \t\t\tt_id to prover's role (a strin...\n      SWAP2 \t\t\tt_id to prover's role (a strin...\n      SWAP1 \t\t\tt_id to prover's role (a strin...\n      PUSH [tag] 256\t\t\tt_id to prover's role (a strin...\n      JUMP \t\t\tt_id to prover's role (a strin...\n    tag 255\t\t\tt_id to prover's role (a strin...\n      JUMPDEST \t\t\tt_id to prover's role (a strin...\n      PUSH 40\t\t\tt_id to prover's role (a strin...\n      MLOAD \t\t\tt_id to prover's role (a strin...\n      DUP1 \t\t\tt_id to prover's role (a strin...\n      SWAP2 \t\t\tt_id to prover's role (a strin...\n      SUB \t\t\tt_id to prover's role (a strin...\n      SWAP1 \t\t\tt_id to prover's role (a strin...\n      REVERT \t\t\tt_id to prover's role (a strin...\n    tag 254\t\t\tg from tokenID to request sett...\n      JUMPDEST \t\t\tg from tokenID to request sett...\n      PUSH 0\t\t\t(setter → (proofRequestID → 's\n      DUP4 \t\t\ter'))\\r\\n \n      MLOAD \t\t\ter'))\\r\\n    mapp\n      PUSH FFFFFFFFFFFFFFFF\t\t\ter' or 'receiver'))\\r\\n    map...\n      DUP2 \t\t\ter' or 'receiver'))\\r\\n    map...\n      GT \t\t\ter' or 'receiver'))\\r\\n    map...\n      ISZERO \t\t\ter' or 'receiver'))\\r\\n    map...\n      PUSH [tag] 257\t\t\ter' or 'receiver'))\\r\\n    map...\n      JUMPI \t\t\ter' or 'receiver'))\\r\\n    map...\n      PUSH [tag] 258\t\t\ter' or 'receiver'))\\r\\n    map...\n      PUSH [tag] 259\t\t\ter' or 'receiver'))\\r\\n    map...\n      JUMP \t\t\ter' or 'receiver'))\\r\\n    map...\n    tag 258\t\t\ter' or 'receiver'))\\r\\n    map...\n      JUMPDEST \t\t\ter' or 'receiver'))\\r\\n    map...\n    tag 257\t\t\ter' or 'receiver'))\\r\\n    map...\n      JUMPDEST \t\t\ter' or 'receiver'))\\r\\n    map...\n      PUSH 40\t\t\ter' or 'receiver'))\\r\\n    map...\n      MLOAD \t\t\ter' or 'receiver'))\\r\\n    map...\n      SWAP1 \t\t\ter' or 'receiver'))\\r\\n    map...\n      DUP1 \t\t\ter' or 'receiver'))\\r\\n    map...\n      DUP3 \t\t\ter' or 'receiver'))\\r\\n    map...\n      MSTORE \t\t\ter' or 'receiver'))\\r\\n    map...\n      DUP1 \t\t\ter' or 'receiver'))\\r\\n    map...\n      PUSH 20\t\t\ter' or 'receiver'))\\r\\n    map...\n      MUL \t\t\ter' or 'receiver'))\\r\\n    map...\n      PUSH 20\t\t\ter' or 'receiver'))\\r\\n    map...\n      ADD \t\t\ter' or 'receiver'))\\r\\n    map...\n      DUP3 \t\t\ter' or 'receiver'))\\r\\n    map...\n      ADD \t\t\ter' or 'receiver'))\\r\\n    map...\n      PUSH 40\t\t\ter' or 'receiver'))\\r\\n    map...\n      MSTORE \t\t\ter' or 'receiver'))\\r\\n    map...\n      DUP1 \t\t\ter' or 'receiver'))\\r\\n    map...\n      ISZERO \t\t\ter' or 'receiver'))\\r\\n    map...\n      PUSH [tag] 260\t\t\ter' or 'receiver'))\\r\\n    map...\n      JUMPI \t\t\ter' or 'receiver'))\\r\\n    map...\n      DUP2 \t\t\ter' or 'receiver'))\\r\\n    map...\n      PUSH 20\t\t\ter' or 'receiver'))\\r\\n    map...\n      ADD \t\t\ter' or 'receiver'))\\r\\n    map...\n      PUSH 20\t\t\ter' or 'receiver'))\\r\\n    map...\n      DUP3 \t\t\ter' or 'receiver'))\\r\\n    map...\n      MUL \t\t\ter' or 'receiver'))\\r\\n    map...\n      DUP1 \t\t\ter' or 'receiver'))\\r\\n    map...\n      CALLDATASIZE \t\t\ter' or 'receiver'))\\r\\n    map...\n      DUP4 \t\t\ter' or 'receiver'))\\r\\n    map...\n      CALLDATACOPY \t\t\ter' or 'receiver'))\\r\\n    map...\n      DUP1 \t\t\ter' or 'receiver'))\\r\\n    map...\n      DUP3 \t\t\ter' or 'receiver'))\\r\\n    map...\n      ADD \t\t\ter' or 'receiver'))\\r\\n    map...\n      SWAP2 \t\t\ter' or 'receiver'))\\r\\n    map...\n      POP \t\t\ter' or 'receiver'))\\r\\n    map...\n      POP \t\t\ter' or 'receiver'))\\r\\n    map...\n      SWAP1 \t\t\ter' or 'receiver'))\\r\\n    map...\n      POP \t\t\ter' or 'receiver'))\\r\\n    map...\n    tag 260\t\t\ter' or 'receiver'))\\r\\n    map...\n      JUMPDEST \t\t\ter' or 'receiver'))\\r\\n    map...\n      POP \t\t\ter' or 'receiver'))\\r\\n    map...\n      SWAP1 \t\t\t(setter → (proofRequestID → 's...\n      POP \t\t\t(setter → (proofRequestID → 's...\n      PUSH 0\t\t\tpping(add\n    tag 261\t\t\t=> mapping(address => mapping(...\n      JUMPDEST \t\t\t=> mapping(address => mapping(...\n      DUP5 \t\t\tpping(ui\n      MLOAD \t\t\tpping(uint64 =>\n      DUP2 \t\t\t>\n      LT \t\t\t> mapping(uint64 =>\n      ISZERO \t\t\t=> mapping(address => mapping(...\n      PUSH [tag] 262\t\t\t=> mapping(address => mapping(...\n      JUMPI \t\t\t=> mapping(address => mapping(...\n      PUSH [tag] 264\t\t\tproofRequest_role;\\r\\n\\r\\n    ...\n      PUSH [tag] 265\t\t\tst_role;\\r\\n\\r\\n    // Struct ...\n      DUP3 \t\t\t \n      DUP8 \t\t\tst_role;\n      PUSH [tag] 266\t\t\tst_role;\\r\\n\\r\\n    // Struct ...\n      SWAP1 \t\t\tst_role;\\r\\n\\r\\n    // Struct ...\n      SWAP2 \t\t\tst_role;\\r\\n\\r\\n    // Struct ...\n      SWAP1 \t\t\tst_role;\\r\\n\\r\\n    // Struct ...\n      PUSH FFFFFFFF\t\t\tst_role;\\r\\n\\r\\n    // Struct ...\n      AND \t\t\tst_role;\\r\\n\\r\\n    // Struct ...\n      JUMP \t\t\tst_role;\\r\\n\\r\\n    // Struct ...\n    tag 265\t\t\tst_role;\\r\\n\\r\\n    // Struct ...\n      JUMPDEST \t\t\tst_role;\\r\\n\\r\\n    // Struct ...\n      PUSH [tag] 267\t\t\tresent a spending conditi\n      DUP4 \t\t\tt\n      DUP8 \t\t\tres\n      PUSH [tag] 268\t\t\tresent a spending cond\n      SWAP1 \t\t\tresent a spending cond\n      SWAP2 \t\t\tresent a spending conditi\n      SWAP1 \t\t\tresent a spending conditi\n      PUSH FFFFFFFF\t\t\tresent a spending conditi\n      AND \t\t\tresent a spending conditi\n      JUMP \t\t\tresent a spending conditi\n    tag 267\t\t\tresent a spending conditi\n      JUMPDEST \t\t\tresent a spending conditi\n      PUSH [tag] 35\t\t\tproofRequ\n      JUMP \t\t\tproofRequest_role;\\r\\n\\r\\n    ...\n    tag 264\t\t\tproofRequest_role;\\r\\n\\r\\n    ...\n      JUMPDEST \t\t\tproofRequest_role;\\r\\n\\r\\n    ...\n      DUP3 \t\t\tenID_requestS\n      DUP3 \t\t\tt\n      DUP2 \t\t\tenID_requestSett\n      MLOAD \t\t\tenID_requestSett\n      DUP2 \t\t\tenID_requestSett\n      LT \t\t\tenID_requestSett\n      PUSH [tag] 269\t\t\tenID_requestSett\n      JUMPI \t\t\tenID_requestSett\n      PUSH [tag] 270\t\t\tenID_requestSett\n      PUSH [tag] 163\t\t\tenID_requestSett\n      JUMP \t\t\tenID_requestSett\n    tag 270\t\t\tenID_requestSett\n      JUMPDEST \t\t\tenID_requestSett\n    tag 269\t\t\tenID_requestSett\n      JUMPDEST \t\t\tenID_requestSett\n      PUSH 20\t\t\tenID_requestSett\n      MUL \t\t\tenID_requestSett\n      PUSH 20\t\t\tenID_requestSett\n      ADD \t\t\tenID_requestSett\n      ADD \t\t\tenID_requestSett\n      DUP2 \t\t\tenID_requestSetter_proofReques...\n      DUP2 \t\t\tenID_requestSetter_proofReques...\n      MSTORE \t\t\tenID_requestSetter_proofReques...\n      POP \t\t\tenID_requestSetter_proofReques...\n      POP \t\t\tenID_requestSetter_proofReques...\n      DUP1 \t\t\ttri\n      PUSH [tag] 271\t\t\ttri\n      SWAP1 \t\t\ttri\n      PUSH [tag] 179\t\t\ttri\n      JUMP \t\t\ttri\n    tag 271\t\t\ttri\n      JUMPDEST \t\t\ttri\n      SWAP1 \t\t\ttri\n      POP \t\t\ttri\n      PUSH [tag] 261\t\t\t=> mapping(address => mapping(...\n      JUMP \t\t\t=> mapping(address => mapping(...\n    tag 262\t\t\t=> mapping(address => mapping(...\n      JUMPDEST \t\t\t=> mapping(address => mapping(...\n      POP \t\t\t=> mapping(address => mapping(...\n      DUP1 \t\t\tion {\\r\\n      \n      SWAP2 \t\t\tgCondition {\\r\\n      \n      POP \t\t\tgCondition {\\r\\n      \n      POP \t\t\tgCondition {\\r\\n      \n      SWAP3 \t\t\ttoken ID to its name. But the ...\n      SWAP2 \t\t\ttoken ID to its name. But the ...\n      POP \t\t\ttoken ID to its name. But the ...\n      POP \t\t\ttoken ID to its name. But the ...\n      JUMP \t\t\ttoken ID to its name. But the ...\n    tag 79\t\t\ton deleteProofRequestAndRole(u...\n      JUMPDEST \t\t\ton deleteProofRequestAndRole(u...\n      PUSH [tag] 273\t\t\tkenIDs.contains(tokenID), \"tok\n      DUP3 \t\t\tD), \"to\n      PUSH 5\t\t\tkenIDs.conta\n      PUSH [tag] 219\t\t\tkenIDs.contains(token\n      SWAP1 \t\t\tkenIDs.contains(token\n      SWAP2 \t\t\tkenIDs.contains(tokenID), \"tok\n      SWAP1 \t\t\tkenIDs.contains(tokenID), \"tok\n      PUSH FFFFFFFF\t\t\tkenIDs.contains(tokenID), \"tok\n      AND \t\t\tkenIDs.contains(tokenID), \"tok\n      JUMP \t\t\tkenIDs.contains(tokenID), \"tok\n    tag 273\t\t\tkenIDs.contains(tokenID), \"tok\n      JUMPDEST \t\t\tkenIDs.contains(tokenID), \"tok\n      PUSH [tag] 274\t\t\te(_allTokenIDs.contains(tokenI...\n      JUMPI \t\t\te(_allTokenIDs.contains(tokenI...\n      PUSH 40\t\t\te(_allTokenIDs.contains(tokenI...\n      MLOAD \t\t\te(_allTokenIDs.contains(tokenI...\n      PUSH 8C379A000000000000000000000000000000000000000000000000000000000\t\t\te(_allTokenIDs.contains(tokenI...\n      DUP2 \t\t\te(_allTokenIDs.contains(tokenI...\n      MSTORE \t\t\te(_allTokenIDs.contains(tokenI...\n      PUSH 4\t\t\te(_allTokenIDs.contains(tokenI...\n      ADD \t\t\te(_allTokenIDs.contains(tokenI...\n      PUSH [tag] 275\t\t\te(_allTokenIDs.contains(tokenI...\n      SWAP1 \t\t\te(_allTokenIDs.contains(tokenI...\n      PUSH [tag] 276\t\t\te(_allTokenIDs.contains(tokenI...\n      JUMP \t\t\te(_allTokenIDs.contains(tokenI...\n    tag 275\t\t\te(_allTokenIDs.contains(tokenI...\n      JUMPDEST \t\t\te(_allTokenIDs.contains(tokenI...\n      PUSH 40\t\t\te(_allTokenIDs.contains(tokenI...\n      MLOAD \t\t\te(_allTokenIDs.contains(tokenI...\n      DUP1 \t\t\te(_allTokenIDs.contains(tokenI...\n      SWAP2 \t\t\te(_allTokenIDs.contains(tokenI...\n      SUB \t\t\te(_allTokenIDs.contains(tokenI...\n      SWAP1 \t\t\te(_allTokenIDs.contains(tokenI...\n      REVERT \t\t\te(_allTokenIDs.contains(tokenI...\n    tag 274\t\t\te(_allTokenIDs.contains(tokenI...\n      JUMPDEST \t\t\te(_allTokenIDs.contains(tokenI...\n      PUSH 0\t\t\to\n      PUSH 8\t\t\tD_requestSetter_proofRequest_r...\n      PUSH 0\t\t\tD_requestSetter_proofRequest_r...\n      DUP5 \t\t\tD][msg.\n      DUP2 \t\t\tD_requestSetter_proofRequest_r...\n      MSTORE \t\t\tD_requestSetter_proofRequest_r...\n      PUSH 20\t\t\tD_requestSetter_proofRequest_r...\n      ADD \t\t\tD_requestSetter_proofRequest_r...\n      SWAP1 \t\t\tD_requestSetter_proofRequest_r...\n      DUP2 \t\t\tD_requestSetter_proofRequest_r...\n      MSTORE \t\t\tD_requestSetter_proofRequest_r...\n      PUSH 20\t\t\tD_requestSetter_proofRequest_r...\n      ADD \t\t\tD_requestSetter_proofRequest_r...\n      PUSH 0\t\t\tD_requestSetter_proofRequest_r...\n      KECCAK256 \t\t\tD_requestSetter_proofRequest_r...\n      PUSH 0\t\t\tD_requestSetter_proofRequest_r...\n      CALLER \t\t\tnder][requ\n      PUSH FFFFFFFFFFFFFFFFFFFFFFFFFFFFFFFFFFFFFFFF\t\t\tD_requestSetter_proofRequest_r...\n      AND \t\t\tD_requestSetter_proofRequest_r...\n      PUSH FFFFFFFFFFFFFFFFFFFFFFFFFFFFFFFFFFFFFFFF\t\t\tD_requestSetter_proofRequest_r...\n      AND \t\t\tD_requestSetter_proofRequest_r...\n      DUP2 \t\t\tD_requestSetter_proofRequest_r...\n      MSTORE \t\t\tD_requestSetter_proofRequest_r...\n      PUSH 20\t\t\tD_requestSetter_proofRequest_r...\n      ADD \t\t\tD_requestSetter_proofRequest_r...\n      SWAP1 \t\t\tD_requestSetter_proofRequest_r...\n      DUP2 \t\t\tD_requestSetter_proofRequest_r...\n      MSTORE \t\t\tD_requestSetter_proofRequest_r...\n      PUSH 20\t\t\tD_requestSetter_proofRequest_r...\n      ADD \t\t\tD_requestSetter_proofRequest_r...\n      PUSH 0\t\t\tD_requestSetter_proofRequest_r...\n      KECCAK256 \t\t\tD_requestSetter_proofRequest_r...\n      PUSH 0\t\t\tD_requestSetter_proofRequest_r...\n      DUP4 \t\t\ttID]).len\n      PUSH FFFFFFFFFFFFFFFF\t\t\tD_requestSetter_proofRequest_r...\n      AND \t\t\tD_requestSetter_proofRequest_r...\n      PUSH FFFFFFFFFFFFFFFF\t\t\tD_requestSetter_proofRequest_r...\n      AND \t\t\tD_requestSetter_proofRequest_r...\n      DUP2 \t\t\tD_requestSetter_proofRequest_r...\n      MSTORE \t\t\tD_requestSetter_proofRequest_r...\n      PUSH 20\t\t\tD_requestSetter_proofRequest_r...\n      ADD \t\t\tD_requestSetter_proofRequest_r...\n      SWAP1 \t\t\tD_requestSetter_proofRequest_r...\n      DUP2 \t\t\tD_requestSetter_proofRequest_r...\n      MSTORE \t\t\tD_requestSetter_proofRequest_r...\n      PUSH 20\t\t\tD_requestSetter_proofRequest_r...\n      ADD \t\t\tD_requestSetter_proofRequest_r...\n      PUSH 0\t\t\tD_requestSetter_proofRequest_r...\n      KECCAK256 \t\t\tD_requestSetter_proofRequest_r...\n      DUP1 \t\t\ttokenID_requestSetter_proofReq...\n      SLOAD \t\t\ttokenID_requestSetter_proofReq...\n      PUSH [tag] 277\t\t\ttokenID_requestSetter_proofReq...\n      SWAP1 \t\t\ttokenID_requestSetter_proofReq...\n      PUSH [tag] 149\t\t\ttokenID_requestSetter_proofReq...\n      JUMP \t\t\ttokenID_requestSetter_proofReq...\n    tag 277\t\t\ttokenID_requestSetter_proofReq...\n      JUMPDEST \t\t\ttokenID_requestSetter_proofReq...\n      SWAP1 \t\t\ttokenID_requestSetter_proofReq...\n      POP \t\t\ttokenID_requestSetter_proofReq...\n      SUB \t\t\ttokenID_requestSetter_proofReq...\n      PUSH [tag] 278\t\t\te(bytes(tokenID_requestSetter_...\n      JUMPI \t\t\te(bytes(tokenID_requestSetter_...\n      PUSH 40\t\t\te(bytes(tokenID_requestSetter_...\n      MLOAD \t\t\te(bytes(tokenID_requestSetter_...\n      PUSH 8C379A000000000000000000000000000000000000000000000000000000000\t\t\te(bytes(tokenID_requestSetter_...\n      DUP2 \t\t\te(bytes(tokenID_requestSetter_...\n      MSTORE \t\t\te(bytes(tokenID_requestSetter_...\n      PUSH 4\t\t\te(bytes(tokenID_requestSetter_...\n      ADD \t\t\te(bytes(tokenID_requestSetter_...\n      PUSH [tag] 279\t\t\te(bytes(tokenID_requestSetter_...\n      SWAP1 \t\t\te(bytes(tokenID_requestSetter_...\n      PUSH [tag] 280\t\t\te(bytes(tokenID_requestSetter_...\n      JUMP \t\t\te(bytes(tokenID_requestSetter_...\n    tag 279\t\t\te(bytes(tokenID_requestSetter_...\n      JUMPDEST \t\t\te(bytes(tokenID_requestSetter_...\n      PUSH 40\t\t\te(bytes(tokenID_requestSetter_...\n      MLOAD \t\t\te(bytes(tokenID_requestSetter_...\n      DUP1 \t\t\te(bytes(tokenID_requestSetter_...\n      SWAP2 \t\t\te(bytes(tokenID_requestSetter_...\n      SUB \t\t\te(bytes(tokenID_requestSetter_...\n      SWAP1 \t\t\te(bytes(tokenID_requestSetter_...\n      REVERT \t\t\te(bytes(tokenID_requestSetter_...\n    tag 278\t\t\te(bytes(tokenID_requestSetter_...\n      JUMPDEST \t\t\te(bytes(tokenID_requestSetter_...\n      PUSH 0\t\t\t \n      PUSH 9\t\t\tngConditions[token\n      PUSH 0\t\t\tngConditions[tokenID][msg.s\n      DUP5 \t\t\tD][msg.\n      DUP2 \t\t\tngConditions[tokenID][msg.s\n      MSTORE \t\t\tngConditions[tokenID][msg.s\n      PUSH 20\t\t\tngConditions[tokenID][msg.s\n      ADD \t\t\tngConditions[tokenID][msg.s\n      SWAP1 \t\t\tngConditions[tokenID][msg.s\n      DUP2 \t\t\tngConditions[tokenID][msg.s\n      MSTORE \t\t\tngConditions[tokenID][msg.s\n      PUSH 20\t\t\tngConditions[tokenID][msg.s\n      ADD \t\t\tngConditions[tokenID][msg.s\n      PUSH 0\t\t\tngConditions[tokenID][msg.s\n      KECCAK256 \t\t\tngConditions[tokenID][msg.s\n      PUSH 0\t\t\tngConditions[tokenID][msg.send...\n      CALLER \t\t\tnder][requ\n      PUSH FFFFFFFFFFFFFFFFFFFFFFFFFFFFFFFFFFFFFFFF\t\t\tngConditions[tokenID][msg.send...\n      AND \t\t\tngConditions[tokenID][msg.send...\n      PUSH FFFFFFFFFFFFFFFFFFFFFFFFFFFFFFFFFFFFFFFF\t\t\tngConditions[tokenID][msg.send...\n      AND \t\t\tngConditions[tokenID][msg.send...\n      DUP2 \t\t\tngConditions[tokenID][msg.send...\n      MSTORE \t\t\tngConditions[tokenID][msg.send...\n      PUSH 20\t\t\tngConditions[tokenID][msg.send...\n      ADD \t\t\tngConditions[tokenID][msg.send...\n      SWAP1 \t\t\tngConditions[tokenID][msg.send...\n      DUP2 \t\t\tngConditions[tokenID][msg.send...\n      MSTORE \t\t\tngConditions[tokenID][msg.send...\n      PUSH 20\t\t\tngConditions[tokenID][msg.send...\n      ADD \t\t\tngConditions[tokenID][msg.send...\n      PUSH 0\t\t\tngConditions[tokenID][msg.send...\n      KECCAK256 \t\t\tngConditions[tokenID][msg.send...\n      PUSH 0\t\t\tngConditions[tokenID][msg.send...\n      DUP4 \t\t\ttID].attr\n      PUSH FFFFFFFFFFFFFFFF\t\t\tngConditions[tokenID][msg.send...\n      AND \t\t\tngConditions[tokenID][msg.send...\n      PUSH FFFFFFFFFFFFFFFF\t\t\tngConditions[tokenID][msg.send...\n      AND \t\t\tngConditions[tokenID][msg.send...\n      DUP2 \t\t\tngConditions[tokenID][msg.send...\n      MSTORE \t\t\tngConditions[tokenID][msg.send...\n      PUSH 20\t\t\tngConditions[tokenID][msg.send...\n      ADD \t\t\tngConditions[tokenID][msg.send...\n      SWAP1 \t\t\tngConditions[tokenID][msg.send...\n      DUP2 \t\t\tngConditions[tokenID][msg.send...\n      MSTORE \t\t\tngConditions[tokenID][msg.send...\n      PUSH 20\t\t\tngConditions[tokenID][msg.send...\n      ADD \t\t\tngConditions[tokenID][msg.send...\n      PUSH 0\t\t\tngConditions[tokenID][msg.send...\n      KECCAK256 \t\t\tngConditions[tokenID][msg.send...\n      PUSH 0\t\t\tngConditions[tokenID][msg.send...\n      ADD \t\t\tngConditions[tokenID][msg.send...\n      DUP1 \t\t\tspendingConditions[tokenID][ms...\n      SLOAD \t\t\tspendingConditions[tokenID][ms...\n      PUSH [tag] 281\t\t\tspendingConditions[tokenID][ms...\n      SWAP1 \t\t\tspendingConditions[tokenID][ms...\n      PUSH [tag] 149\t\t\tspendingConditions[tokenID][ms...\n      JUMP \t\t\tspendingConditions[tokenID][ms...\n    tag 281\t\t\tspendingConditions[tokenID][ms...\n      JUMPDEST \t\t\tspendingConditions[tokenID][ms...\n      SWAP1 \t\t\tspendingConditions[tokenID][ms...\n      POP \t\t\tspendingConditions[tokenID][ms...\n      SUB \t\t\tspendingConditions[tokenID][ms...\n      PUSH [tag] 282\t\t\te(bytes(spendingConditions[tok...\n      JUMPI \t\t\te(bytes(spendingConditions[tok...\n      PUSH 40\t\t\te(bytes(spendingConditions[tok...\n      MLOAD \t\t\te(bytes(spendingConditions[tok...\n      PUSH 8C379A000000000000000000000000000000000000000000000000000000000\t\t\te(bytes(spendingConditions[tok...\n      DUP2 \t\t\te(bytes(spendingConditions[tok...\n      MSTORE \t\t\te(bytes(spendingConditions[tok...\n      PUSH 4\t\t\te(bytes(spendingConditions[tok...\n      ADD \t\t\te(bytes(spendingConditions[tok...\n      PUSH [tag] 283\t\t\te(bytes(spendingConditions[tok...\n      SWAP1 \t\t\te(bytes(spendingConditions[tok...\n      PUSH [tag] 284\t\t\te(bytes(spendingConditions[tok...\n      JUMP \t\t\te(bytes(spendingConditions[tok...\n    tag 283\t\t\te(bytes(spendingConditions[tok...\n      JUMPDEST \t\t\te(bytes(spendingConditions[tok...\n      PUSH 40\t\t\te(bytes(spendingConditions[tok...\n      MLOAD \t\t\te(bytes(spendingConditions[tok...\n      DUP1 \t\t\te(bytes(spendingConditions[tok...\n      SWAP2 \t\t\te(bytes(spendingConditions[tok...\n      SUB \t\t\te(bytes(spendingConditions[tok...\n      SWAP1 \t\t\te(bytes(spendingConditions[tok...\n      REVERT \t\t\te(bytes(spendingConditions[tok...\n    tag 282\t\t\te(bytes(spendingConditions[tok...\n      JUMPDEST \t\t\te(bytes(spendingConditions[tok...\n      PUSH 8\t\t\tD_requestSetter_proofRequest_r...\n      PUSH 0\t\t\tD_requestSetter_proofRequest_r...\n      DUP4 \t\t\tD][msg.\n      DUP2 \t\t\tD_requestSetter_proofRequest_r...\n      MSTORE \t\t\tD_requestSetter_proofRequest_r...\n      PUSH 20\t\t\tD_requestSetter_proofRequest_r...\n      ADD \t\t\tD_requestSetter_proofRequest_r...\n      SWAP1 \t\t\tD_requestSetter_proofRequest_r...\n      DUP2 \t\t\tD_requestSetter_proofRequest_r...\n      MSTORE \t\t\tD_requestSetter_proofRequest_r...\n      PUSH 20\t\t\tD_requestSetter_proofRequest_r...\n      ADD \t\t\tD_requestSetter_proofRequest_r...\n      PUSH 0\t\t\tD_requestSetter_proofRequest_r...\n      KECCAK256 \t\t\tD_requestSetter_proofRequest_r...\n      PUSH 0\t\t\tD_requestSetter_proofRequest_r...\n      CALLER \t\t\tnder][requ\n      PUSH FFFFFFFFFFFFFFFFFFFFFFFFFFFFFFFFFFFFFFFF\t\t\tD_requestSetter_proofRequest_r...\n      AND \t\t\tD_requestSetter_proofRequest_r...\n      PUSH FFFFFFFFFFFFFFFFFFFFFFFFFFFFFFFFFFFFFFFF\t\t\tD_requestSetter_proofRequest_r...\n      AND \t\t\tD_requestSetter_proofRequest_r...\n      DUP2 \t\t\tD_requestSetter_proofRequest_r...\n      MSTORE \t\t\tD_requestSetter_proofRequest_r...\n      PUSH 20\t\t\tD_requestSetter_proofRequest_r...\n      ADD \t\t\tD_requestSetter_proofRequest_r...\n      SWAP1 \t\t\tD_requestSetter_proofRequest_r...\n      DUP2 \t\t\tD_requestSetter_proofRequest_r...\n      MSTORE \t\t\tD_requestSetter_proofRequest_r...\n      PUSH 20\t\t\tD_requestSetter_proofRequest_r...\n      ADD \t\t\tD_requestSetter_proofRequest_r...\n      PUSH 0\t\t\tD_requestSetter_proofRequest_r...\n      KECCAK256 \t\t\tD_requestSetter_proofRequest_r...\n      PUSH 0\t\t\tD_requestSetter_proofRequest_r...\n      DUP3 \t\t\ttID];\\r\\n  \n      PUSH FFFFFFFFFFFFFFFF\t\t\tD_requestSetter_proofRequest_r...\n      AND \t\t\tD_requestSetter_proofRequest_r...\n      PUSH FFFFFFFFFFFFFFFF\t\t\tD_requestSetter_proofRequest_r...\n      AND \t\t\tD_requestSetter_proofRequest_r...\n      DUP2 \t\t\tD_requestSetter_proofRequest_r...\n      MSTORE \t\t\tD_requestSetter_proofRequest_r...\n      PUSH 20\t\t\tD_requestSetter_proofRequest_r...\n      ADD \t\t\tD_requestSetter_proofRequest_r...\n      SWAP1 \t\t\tD_requestSetter_proofRequest_r...\n      DUP2 \t\t\tD_requestSetter_proofRequest_r...\n      MSTORE \t\t\tD_requestSetter_proofRequest_r...\n      PUSH 20\t\t\tD_requestSetter_proofRequest_r...\n      ADD \t\t\tD_requestSetter_proofRequest_r...\n      PUSH 0\t\t\tD_requestSetter_proofRequest_r...\n      KECCAK256 \t\t\tD_requestSetter_proofRequest_r...\n      PUSH 0\t\t\tD_requestSetter_proofRequest_r...\n      PUSH [tag] 285\t\t\t tokenID_requestSetter_proofRe...\n      SWAP2 \t\t\t tokenID_requestSetter_proofRe...\n      SWAP1 \t\t\t tokenID_requestSetter_proofRe...\n      PUSH [tag] 286\t\t\t tokenID_requestSetter_proofRe...\n      JUMP \t\t\t tokenID_requestSetter_proofRe...\n    tag 285\t\t\t tokenID_requestSetter_proofRe...\n      JUMPDEST \t\t\t tokenID_requestSetter_proofRe...\n      PUSH 9\t\t\tngConditions[token\n      PUSH 0\t\t\tngConditions[tokenID][msg.s\n      DUP4 \t\t\tD][msg.\n      DUP2 \t\t\tngConditions[tokenID][msg.s\n      MSTORE \t\t\tngConditions[tokenID][msg.s\n      PUSH 20\t\t\tngConditions[tokenID][msg.s\n      ADD \t\t\tngConditions[tokenID][msg.s\n      SWAP1 \t\t\tngConditions[tokenID][msg.s\n      DUP2 \t\t\tngConditions[tokenID][msg.s\n      MSTORE \t\t\tngConditions[tokenID][msg.s\n      PUSH 20\t\t\tngConditions[tokenID][msg.s\n      ADD \t\t\tngConditions[tokenID][msg.s\n      PUSH 0\t\t\tngConditions[tokenID][msg.s\n      KECCAK256 \t\t\tngConditions[tokenID][msg.s\n      PUSH 0\t\t\tngConditions[tokenID][msg.send...\n      CALLER \t\t\tnder][requ\n      PUSH FFFFFFFFFFFFFFFFFFFFFFFFFFFFFFFFFFFFFFFF\t\t\tngConditions[tokenID][msg.send...\n      AND \t\t\tngConditions[tokenID][msg.send...\n      PUSH FFFFFFFFFFFFFFFFFFFFFFFFFFFFFFFFFFFFFFFF\t\t\tngConditions[tokenID][msg.send...\n      AND \t\t\tngConditions[tokenID][msg.send...\n      DUP2 \t\t\tngConditions[tokenID][msg.send...\n      MSTORE \t\t\tngConditions[tokenID][msg.send...\n      PUSH 20\t\t\tngConditions[tokenID][msg.send...\n      ADD \t\t\tngConditions[tokenID][msg.send...\n      SWAP1 \t\t\tngConditions[tokenID][msg.send...\n      DUP2 \t\t\tngConditions[tokenID][msg.send...\n      MSTORE \t\t\tngConditions[tokenID][msg.send...\n      PUSH 20\t\t\tngConditions[tokenID][msg.send...\n      ADD \t\t\tngConditions[tokenID][msg.send...\n      PUSH 0\t\t\tngConditions[tokenID][msg.send...\n      KECCAK256 \t\t\tngConditions[tokenID][msg.send...\n      PUSH 0\t\t\tngConditions[tokenID][msg.send...\n      DUP3 \t\t\ttID];\\r\\n  \n      PUSH FFFFFFFFFFFFFFFF\t\t\tngConditions[tokenID][msg.send...\n      AND \t\t\tngConditions[tokenID][msg.send...\n      PUSH FFFFFFFFFFFFFFFF\t\t\tngConditions[tokenID][msg.send...\n      AND \t\t\tngConditions[tokenID][msg.send...\n      DUP2 \t\t\tngConditions[tokenID][msg.send...\n      MSTORE \t\t\tngConditions[tokenID][msg.send...\n      PUSH 20\t\t\tngConditions[tokenID][msg.send...\n      ADD \t\t\tngConditions[tokenID][msg.send...\n      SWAP1 \t\t\tngConditions[tokenID][msg.send...\n      DUP2 \t\t\tngConditions[tokenID][msg.send...\n      MSTORE \t\t\tngConditions[tokenID][msg.send...\n      PUSH 20\t\t\tngConditions[tokenID][msg.send...\n      ADD \t\t\tngConditions[tokenID][msg.send...\n      PUSH 0\t\t\tngConditions[tokenID][msg.send...\n      KECCAK256 \t\t\tngConditions[tokenID][msg.send...\n      PUSH 0\t\t\tngConditions[tokenID][msg.send...\n      DUP1 \t\t\t spendingConditions[tokenID][m...\n      DUP3 \t\t\t spendingConditions[tokenID][m...\n      ADD \t\t\t spendingConditions[tokenID][m...\n      PUSH 0\t\t\t spendingConditions[tokenID][m...\n      PUSH [tag] 287\t\t\t spendingConditions[tokenID][m...\n      SWAP2 \t\t\t spendingConditions[tokenID][m...\n      SWAP1 \t\t\t spendingConditions[tokenID][m...\n      PUSH [tag] 286\t\t\t spendingConditions[tokenID][m...\n      JUMP \t\t\t spendingConditions[tokenID][m...\n    tag 287\t\t\t spendingConditions[tokenID][m...\n      JUMPDEST \t\t\t spendingConditions[tokenID][m...\n      PUSH 1\t\t\t spendingConditions[tokenID][m...\n      DUP3 \t\t\t spendingConditions[tokenID][m...\n      ADD \t\t\t spendingConditions[tokenID][m...\n      PUSH 0\t\t\t spendingConditions[tokenID][m...\n      PUSH [tag] 288\t\t\t spendingConditions[tokenID][m...\n      SWAP2 \t\t\t spendingConditions[tokenID][m...\n      SWAP1 \t\t\t spendingConditions[tokenID][m...\n      PUSH [tag] 286\t\t\t spendingConditions[tokenID][m...\n      JUMP \t\t\t spendingConditions[tokenID][m...\n    tag 288\t\t\t spendingConditions[tokenID][m...\n      JUMPDEST \t\t\t spendingConditions[tokenID][m...\n      PUSH 2\t\t\t spendingConditions[tokenID][m...\n      DUP3 \t\t\t spendingConditions[tokenID][m...\n      ADD \t\t\t spendingConditions[tokenID][m...\n      PUSH 0\t\t\t spendingConditions[tokenID][m...\n      PUSH [tag] 289\t\t\t spendingConditions[tokenID][m...\n      SWAP2 \t\t\t spendingConditions[tokenID][m...\n      SWAP1 \t\t\t spendingConditions[tokenID][m...\n      PUSH [tag] 286\t\t\t spendingConditions[tokenID][m...\n      JUMP \t\t\t spendingConditions[tokenID][m...\n    tag 289\t\t\t spendingConditions[tokenID][m...\n      JUMPDEST \t\t\t spendingConditions[tokenID][m...\n      POP \t\t\t spendingConditions[tokenID][m...\n      POP \t\t\t spendingConditions[tokenID][m...\n      PUSH 0\t\t\t6 i = 0; \n    tag 290\t\t\tint256 i = 0; i < proofRequest...\n      JUMPDEST \t\t\tint256 i = 0; i < proofRequest...\n      PUSH A\t\t\tequestIDs.lengt\n      DUP1 \t\t\tequestIDs.length; i++)\n      SLOAD \t\t\tequestIDs.length; i++)\n      SWAP1 \t\t\tequestIDs.length; i++)\n      POP \t\t\tequestIDs.length; i++)\n      DUP2 \t\t\to\n      LT \t\t\toofRequestIDs.length; i++)\n      ISZERO \t\t\tint256 i = 0; i < proofRequest...\n      PUSH [tag] 291\t\t\tint256 i = 0; i < proofRequest...\n      JUMPI \t\t\tint256 i = 0; i < proofRequest...\n      DUP2 \t\t\ttID) {\\r\\n \n      PUSH FFFFFFFFFFFFFFFF\t\t\tequestIDs[i] == requestID) {\\r...\n      AND \t\t\tequestIDs[i] == requestID) {\\r...\n      PUSH A\t\t\tequestIDs[i] ==\n      DUP3 \t\t\tr\n      DUP2 \t\t\tequestIDs[i] == re\n      SLOAD \t\t\tequestIDs[i] == re\n      DUP2 \t\t\tequestIDs[i] == re\n      LT \t\t\tequestIDs[i] == re\n      PUSH [tag] 293\t\t\tequestIDs[i] == re\n      JUMPI \t\t\tequestIDs[i] == re\n      PUSH [tag] 294\t\t\tequestIDs[i] == re\n      PUSH [tag] 163\t\t\tequestIDs[i] == re\n      JUMP \t\t\tequestIDs[i] == re\n    tag 294\t\t\tequestIDs[i] == re\n      JUMPDEST \t\t\tequestIDs[i] == re\n    tag 293\t\t\tequestIDs[i] == re\n      JUMPDEST \t\t\tequestIDs[i] == re\n      SWAP1 \t\t\tequestIDs[i] == re\n      PUSH 0\t\t\tequestIDs[i] == re\n      MSTORE \t\t\tequestIDs[i] == re\n      PUSH 20\t\t\tequestIDs[i] == re\n      PUSH 0\t\t\tequestIDs[i] == re\n      KECCAK256 \t\t\tequestIDs[i] == re\n      SWAP1 \t\t\tequestIDs[i] == re\n      PUSH 4\t\t\tequestIDs[i] == re\n      SWAP2 \t\t\tequestIDs[i] == re\n      DUP3 \t\t\tequestIDs[i] == re\n      DUP3 \t\t\tequestIDs[i] == re\n      DIV \t\t\tequestIDs[i] == re\n      ADD \t\t\tequestIDs[i] == re\n      SWAP2 \t\t\tequestIDs[i] == re\n      SWAP1 \t\t\tequestIDs[i] == re\n      MOD \t\t\tequestIDs[i] == re\n      PUSH 8\t\t\tequestIDs[i] == re\n      MUL \t\t\tequestIDs[i] == re\n      SWAP1 \t\t\tequestIDs[i] == re\n      SLOAD \t\t\tequestIDs[i] == re\n      SWAP1 \t\t\tequestIDs[i] == re\n      PUSH 100\t\t\tequestIDs[i] == re\n      EXP \t\t\tequestIDs[i] == re\n      SWAP1 \t\t\tequestIDs[i] == re\n      DIV \t\t\tequestIDs[i] == re\n      PUSH FFFFFFFFFFFFFFFF\t\t\tequestIDs[i] == re\n      AND \t\t\tequestIDs[i] == re\n      PUSH FFFFFFFFFFFFFFFF\t\t\tequestIDs[i] == requestID) {\\r...\n      AND \t\t\tequestIDs[i] == requestID) {\\r...\n      SUB \t\t\tequestIDs[i] == requestID) {\\r...\n      PUSH [tag] 296\t\t\toofRequestIDs[i] == requestID)...\n      JUMPI \t\t\toofRequestIDs[i] == requestID)...\n      PUSH A\t\t\tequestIDs[proof\n      PUSH 1\t\t\t \n      PUSH A\t\t\tequestIDs.lengt\n      DUP1 \t\t\tequestIDs.length - 1];\n      SLOAD \t\t\tequestIDs.length - 1];\n      SWAP1 \t\t\tequestIDs.length - 1];\n      POP \t\t\tequestIDs.length - 1];\n      PUSH [tag] 297\t\t\tequestIDs.length - 1];\\r\\n  \n      SWAP2 \t\t\tequestIDs.length - 1];\\r\\n  \n      SWAP1 \t\t\tequestIDs.length - 1];\\r\\n  \n      PUSH [tag] 167\t\t\tequestIDs.length - 1];\\r\\n  \n      JUMP \t\t\tequestIDs.length - 1];\\r\\n  \n    tag 297\t\t\tequestIDs.length - 1];\\r\\n  \n      JUMPDEST \t\t\tequestIDs.length - 1];\\r\\n  \n      DUP2 \t\t\tequestIDs[proofRequestIDs.leng...\n      SLOAD \t\t\tequestIDs[proofRequestIDs.leng...\n      DUP2 \t\t\tequestIDs[proofRequestIDs.leng...\n      LT \t\t\tequestIDs[proofRequestIDs.leng...\n      PUSH [tag] 298\t\t\tequestIDs[proofRequestIDs.leng...\n      JUMPI \t\t\tequestIDs[proofRequestIDs.leng...\n      PUSH [tag] 299\t\t\tequestIDs[proofRequestIDs.leng...\n      PUSH [tag] 163\t\t\tequestIDs[proofRequestIDs.leng...\n      JUMP \t\t\tequestIDs[proofRequestIDs.leng...\n    tag 299\t\t\tequestIDs[proofRequestIDs.leng...\n      JUMPDEST \t\t\tequestIDs[proofRequestIDs.leng...\n    tag 298\t\t\tequestIDs[proofRequestIDs.leng...\n      JUMPDEST \t\t\tequestIDs[proofRequestIDs.leng...\n      SWAP1 \t\t\tequestIDs[proofRequestIDs.leng...\n      PUSH 0\t\t\tequestIDs[proofRequestIDs.leng...\n      MSTORE \t\t\tequestIDs[proofRequestIDs.leng...\n      PUSH 20\t\t\tequestIDs[proofRequestIDs.leng...\n      PUSH 0\t\t\tequestIDs[proofRequestIDs.leng...\n      KECCAK256 \t\t\tequestIDs[proofRequestIDs.leng...\n      SWAP1 \t\t\tequestIDs[proofRequestIDs.leng...\n      PUSH 4\t\t\tequestIDs[proofRequestIDs.leng...\n      SWAP2 \t\t\tequestIDs[proofRequestIDs.leng...\n      DUP3 \t\t\tequestIDs[proofRequestIDs.leng...\n      DUP3 \t\t\tequestIDs[proofRequestIDs.leng...\n      DIV \t\t\tequestIDs[proofRequestIDs.leng...\n      ADD \t\t\tequestIDs[proofRequestIDs.leng...\n      SWAP2 \t\t\tequestIDs[proofRequestIDs.leng...\n      SWAP1 \t\t\tequestIDs[proofRequestIDs.leng...\n      MOD \t\t\tequestIDs[proofRequestIDs.leng...\n      PUSH 8\t\t\tequestIDs[proofRequestIDs.leng...\n      MUL \t\t\tequestIDs[proofRequestIDs.leng...\n      SWAP1 \t\t\tequestIDs[proofRequestIDs.leng...\n      SLOAD \t\t\tequestIDs[proofRequestIDs.leng...\n      SWAP1 \t\t\tequestIDs[proofRequestIDs.leng...\n      PUSH 100\t\t\tequestIDs[proofRequestIDs.leng...\n      EXP \t\t\tequestIDs[proofRequestIDs.leng...\n      SWAP1 \t\t\tequestIDs[proofRequestIDs.leng...\n      DIV \t\t\tequestIDs[proofRequestIDs.leng...\n      PUSH FFFFFFFFFFFFFFFF\t\t\tequestIDs[proofRequestIDs.leng...\n      AND \t\t\tequestIDs[proofRequestIDs.leng...\n      PUSH A\t\t\tequestIDs[i] = \n      DUP3 \t\t\tr\n      DUP2 \t\t\tequestIDs[i] = pro\n      SLOAD \t\t\tequestIDs[i] = pro\n      DUP2 \t\t\tequestIDs[i] = pro\n      LT \t\t\tequestIDs[i] = pro\n      PUSH [tag] 301\t\t\tequestIDs[i] = pro\n      JUMPI \t\t\tequestIDs[i] = pro\n      PUSH [tag] 302\t\t\tequestIDs[i] = pro\n      PUSH [tag] 163\t\t\tequestIDs[i] = pro\n      JUMP \t\t\tequestIDs[i] = pro\n    tag 302\t\t\tequestIDs[i] = pro\n      JUMPDEST \t\t\tequestIDs[i] = pro\n    tag 301\t\t\tequestIDs[i] = pro\n      JUMPDEST \t\t\tequestIDs[i] = pro\n      SWAP1 \t\t\tequestIDs[i] = pro\n      PUSH 0\t\t\tequestIDs[i] = pro\n      MSTORE \t\t\tequestIDs[i] = pro\n      PUSH 20\t\t\tequestIDs[i] = pro\n      PUSH 0\t\t\tequestIDs[i] = pro\n      KECCAK256 \t\t\tequestIDs[i] = pro\n      SWAP1 \t\t\tequestIDs[i] = pro\n      PUSH 4\t\t\tequestIDs[i] = pro\n      SWAP2 \t\t\tequestIDs[i] = pro\n      DUP3 \t\t\tequestIDs[i] = pro\n      DUP3 \t\t\tequestIDs[i] = pro\n      DIV \t\t\tequestIDs[i] = pro\n      ADD \t\t\tequestIDs[i] = pro\n      SWAP2 \t\t\tequestIDs[i] = pro\n      SWAP1 \t\t\tequestIDs[i] = pro\n      MOD \t\t\tequestIDs[i] = pro\n      PUSH 8\t\t\tequestIDs[i] = pro\n      MUL \t\t\tequestIDs[i] = pro\n      PUSH 100\t\t\tequestIDs[i] = proofRequestIDs...\n      EXP \t\t\tequestIDs[i] = proofRequestIDs...\n      DUP2 \t\t\tequestIDs[i] = proofRequestIDs...\n      SLOAD \t\t\tequestIDs[i] = proofRequestIDs...\n      DUP2 \t\t\tequestIDs[i] = proofRequestIDs...\n      PUSH FFFFFFFFFFFFFFFF\t\t\tequestIDs[i] = proofRequestIDs...\n      MUL \t\t\tequestIDs[i] = proofRequestIDs...\n      NOT \t\t\tequestIDs[i] = proofRequestIDs...\n      AND \t\t\tequestIDs[i] = proofRequestIDs...\n      SWAP1 \t\t\tequestIDs[i] = proofRequestIDs...\n      DUP4 \t\t\tequestIDs[i] = proofRequestIDs...\n      PUSH FFFFFFFFFFFFFFFF\t\t\tequestIDs[i] = proofRequestIDs...\n      AND \t\t\tequestIDs[i] = proofRequestIDs...\n      MUL \t\t\tequestIDs[i] = proofRequestIDs...\n      OR \t\t\tequestIDs[i] = proofRequestIDs...\n      SWAP1 \t\t\tequestIDs[i] = proofRequestIDs...\n      SSTORE \t\t\tequestIDs[i] = proofRequestIDs...\n      POP \t\t\tequestIDs[i] = proofRequestIDs...\n      PUSH A\t\t\tequestIDs.pop()\n      DUP1 \t\t\tequestIDs.pop();\\r\\n   \n      SLOAD \t\t\tequestIDs.pop();\\r\\n   \n      DUP1 \t\t\tequestIDs.pop();\\r\\n   \n      PUSH [tag] 304\t\t\tequestIDs.pop();\\r\\n   \n      JUMPI \t\t\tequestIDs.pop();\\r\\n   \n      PUSH [tag] 305\t\t\tequestIDs.pop();\\r\\n   \n      PUSH [tag] 176\t\t\tequestIDs.pop();\\r\\n   \n      JUMP \t\t\tequestIDs.pop();\\r\\n   \n    tag 305\t\t\tequestIDs.pop();\\r\\n   \n      JUMPDEST \t\t\tequestIDs.pop();\\r\\n   \n    tag 304\t\t\tequestIDs.pop();\\r\\n   \n      JUMPDEST \t\t\tequestIDs.pop();\\r\\n   \n      PUSH 1\t\t\tequestIDs.pop();\\r\\n   \n      SWAP1 \t\t\tequestIDs.pop();\\r\\n   \n      SUB \t\t\tequestIDs.pop();\\r\\n   \n      DUP2 \t\t\tequestIDs.pop();\\r\\n   \n      DUP2 \t\t\tequestIDs.pop();\\r\\n   \n      SWAP1 \t\t\tequestIDs.pop();\\r\\n   \n      PUSH 0\t\t\tequestIDs.pop();\\r\\n   \n      MSTORE \t\t\tequestIDs.pop();\\r\\n   \n      PUSH 20\t\t\tequestIDs.pop();\\r\\n   \n      PUSH 0\t\t\tequestIDs.pop();\\r\\n   \n      KECCAK256 \t\t\tequestIDs.pop();\\r\\n   \n      SWAP1 \t\t\tequestIDs.pop();\\r\\n   \n      PUSH 4\t\t\tequestIDs.pop();\\r\\n   \n      SWAP2 \t\t\tequestIDs.pop();\\r\\n   \n      DUP3 \t\t\tequestIDs.pop();\\r\\n   \n      DUP3 \t\t\tequestIDs.pop();\\r\\n   \n      DIV \t\t\tequestIDs.pop();\\r\\n   \n      ADD \t\t\tequestIDs.pop();\\r\\n   \n      SWAP2 \t\t\tequestIDs.pop();\\r\\n   \n      SWAP1 \t\t\tequestIDs.pop();\\r\\n   \n      MOD \t\t\tequestIDs.pop();\\r\\n   \n      PUSH 8\t\t\tequestIDs.pop();\\r\\n   \n      MUL \t\t\tequestIDs.pop();\\r\\n   \n      PUSH 100\t\t\tequestIDs.pop();\\r\\n   \n      EXP \t\t\tequestIDs.pop();\\r\\n   \n      DUP2 \t\t\tequestIDs.pop();\\r\\n   \n      SLOAD \t\t\tequestIDs.pop();\\r\\n   \n      SWAP1 \t\t\tequestIDs.pop();\\r\\n   \n      PUSH FFFFFFFFFFFFFFFF\t\t\tequestIDs.pop();\\r\\n   \n      MUL \t\t\tequestIDs.pop();\\r\\n   \n      NOT \t\t\tequestIDs.pop();\\r\\n   \n      AND \t\t\tequestIDs.pop();\\r\\n   \n      SWAP1 \t\t\tequestIDs.pop();\\r\\n   \n      SSTORE \t\t\tequestIDs.pop();\\r\\n   \n      SWAP1 \t\t\tequestIDs.pop();\\r\\n   \n      SSTORE \t\t\tequestIDs.pop();\\r\\n   \n      PUSH [tag] 291\t\t\t\\r\\n   \n      JUMP \t\t\t\\r\\n   \n    tag 296\t\t\toofRequestIDs[i] == requestID)...\n      JUMPDEST \t\t\toofRequestIDs[i] == requestID)...\n      DUP1 \t\t\t\\r\\n \n      DUP1 \t\t\t\\r\\n \n      PUSH [tag] 307\t\t\t\\r\\n \n      SWAP1 \t\t\t\\r\\n \n      PUSH [tag] 179\t\t\t\\r\\n \n      JUMP \t\t\t\\r\\n \n    tag 307\t\t\t\\r\\n \n      JUMPDEST \t\t\t\\r\\n \n      SWAP2 \t\t\t\\r\\n \n      POP \t\t\t\\r\\n \n      POP \t\t\t\\r\\n \n      PUSH [tag] 290\t\t\tint256 i = 0; i < proofRequest...\n      JUMP \t\t\tint256 i = 0; i < proofRequest...\n    tag 291\t\t\tint256 i = 0; i < proofRequest...\n      JUMPDEST \t\t\tint256 i = 0; i < proofRequest...\n      POP \t\t\tint256 i = 0; i < proofRequest...\n      POP \t\t\ton deleteProofRequestAndRole(u...\n      POP \t\t\ton deleteProofRequestAndRole(u...\n      JUMP \t\t\ton deleteProofRequestAndRole(u...\n    tag 83\t\t\tg(uint256 => mapping(address =...\n      JUMPDEST \t\t\tg(uint256 => mapping(address =...\n      PUSH 9\t\t\tg(uint256 => mapping(address =...\n      PUSH 20\t\t\tg(uint256 => mapping(address =...\n      MSTORE \t\t\tg(uint256 => mapping(address =...\n      DUP3 \t\t\tg(uint256 => mapping(address =...\n      PUSH 0\t\t\tg(uint256 => mapping(address =...\n      MSTORE \t\t\tg(uint256 => mapping(address =...\n      PUSH 40\t\t\tg(uint256 => mapping(address =...\n      PUSH 0\t\t\tg(uint256 => mapping(address =...\n      KECCAK256 \t\t\tg(uint256 => mapping(address =...\n      PUSH 20\t\t\tg(uint256 => mapping(address =...\n      MSTORE \t\t\tg(uint256 => mapping(address =...\n      DUP2 \t\t\tg(uint256 => mapping(address =...\n      PUSH 0\t\t\tg(uint256 => mapping(address =...\n      MSTORE \t\t\tg(uint256 => mapping(address =...\n      PUSH 40\t\t\tg(uint256 => mapping(address =...\n      PUSH 0\t\t\tg(uint256 => mapping(address =...\n      KECCAK256 \t\t\tg(uint256 => mapping(address =...\n      PUSH 20\t\t\tg(uint256 => mapping(address =...\n      MSTORE \t\t\tg(uint256 => mapping(address =...\n      DUP1 \t\t\tg(uint256 => mapping(address =...\n      PUSH 0\t\t\tg(uint256 => mapping(address =...\n      MSTORE \t\t\tg(uint256 => mapping(address =...\n      PUSH 40\t\t\tg(uint256 => mapping(address =...\n      PUSH 0\t\t\tg(uint256 => mapping(address =...\n      KECCAK256 \t\t\tg(uint256 => mapping(address =...\n      PUSH 0\t\t\tg(uint256 => mapping(address =...\n      SWAP3 \t\t\tg(uint256 => mapping(address =...\n      POP \t\t\tg(uint256 => mapping(address =...\n      SWAP3 \t\t\tg(uint256 => mapping(address =...\n      POP \t\t\tg(uint256 => mapping(address =...\n      POP \t\t\tg(uint256 => mapping(address =...\n      POP \t\t\tg(uint256 => mapping(address =...\n      DUP1 \t\t\tg(uint256 => mapping(address =...\n      PUSH 0\t\t\tg(uint256 => mapping(address =...\n      ADD \t\t\tg(uint256 => mapping(address =...\n      DUP1 \t\t\tg(uint256 => mapping(address =...\n      SLOAD \t\t\tg(uint256 => mapping(address =...\n      PUSH [tag] 308\t\t\tg(uint256 => mapping(address =...\n      SWAP1 \t\t\tg(uint256 => mapping(address =...\n      PUSH [tag] 149\t\t\tg(uint256 => mapping(address =...\n      JUMP \t\t\tg(uint256 => mapping(address =...\n    tag 308\t\t\tg(uint256 => mapping(address =...\n      JUMPDEST \t\t\tg(uint256 => mapping(address =...\n      DUP1 \t\t\tg(uint256 => mapping(address =...\n      PUSH 1F\t\t\tg(uint256 => mapping(address =...\n      ADD \t\t\tg(uint256 => mapping(address =...\n      PUSH 20\t\t\tg(uint256 => mapping(address =...\n      DUP1 \t\t\tg(uint256 => mapping(address =...\n      SWAP2 \t\t\tg(uint256 => mapping(address =...\n      DIV \t\t\tg(uint256 => mapping(address =...\n      MUL \t\t\tg(uint256 => mapping(address =...\n      PUSH 20\t\t\tg(uint256 => mapping(address =...\n      ADD \t\t\tg(uint256 => mapping(address =...\n      PUSH 40\t\t\tg(uint256 => mapping(address =...\n      MLOAD \t\t\tg(uint256 => mapping(address =...\n      SWAP1 \t\t\tg(uint256 => mapping(address =...\n      DUP2 \t\t\tg(uint256 => mapping(address =...\n      ADD \t\t\tg(uint256 => mapping(address =...\n      PUSH 40\t\t\tg(uint256 => mapping(address =...\n      MSTORE \t\t\tg(uint256 => mapping(address =...\n      DUP1 \t\t\tg(uint256 => mapping(address =...\n      SWAP3 \t\t\tg(uint256 => mapping(address =...\n      SWAP2 \t\t\tg(uint256 => mapping(address =...\n      SWAP1 \t\t\tg(uint256 => mapping(address =...\n      DUP2 \t\t\tg(uint256 => mapping(address =...\n      DUP2 \t\t\tg(uint256 => mapping(address =...\n      MSTORE \t\t\tg(uint256 => mapping(address =...\n      PUSH 20\t\t\tg(uint256 => mapping(address =...\n      ADD \t\t\tg(uint256 => mapping(address =...\n      DUP3 \t\t\tg(uint256 => mapping(address =...\n      DUP1 \t\t\tg(uint256 => mapping(address =...\n      SLOAD \t\t\tg(uint256 => mapping(address =...\n      PUSH [tag] 309\t\t\tg(uint256 => mapping(address =...\n      SWAP1 \t\t\tg(uint256 => mapping(address =...\n      PUSH [tag] 149\t\t\tg(uint256 => mapping(address =...\n      JUMP \t\t\tg(uint256 => mapping(address =...\n    tag 309\t\t\tg(uint256 => mapping(address =...\n      JUMPDEST \t\t\tg(uint256 => mapping(address =...\n      DUP1 \t\t\tg(uint256 => mapping(address =...\n      ISZERO \t\t\tg(uint256 => mapping(address =...\n      PUSH [tag] 310\t\t\tg(uint256 => mapping(address =...\n      JUMPI \t\t\tg(uint256 => mapping(address =...\n      DUP1 \t\t\tg(uint256 => mapping(address =...\n      PUSH 1F\t\t\tg(uint256 => mapping(address =...\n      LT \t\t\tg(uint256 => mapping(address =...\n      PUSH [tag] 311\t\t\tg(uint256 => mapping(address =...\n      JUMPI \t\t\tg(uint256 => mapping(address =...\n      PUSH 100\t\t\tg(uint256 => mapping(address =...\n      DUP1 \t\t\tg(uint256 => mapping(address =...\n      DUP4 \t\t\tg(uint256 => mapping(address =...\n      SLOAD \t\t\tg(uint256 => mapping(address =...\n      DIV \t\t\tg(uint256 => mapping(address =...\n      MUL \t\t\tg(uint256 => mapping(address =...\n      DUP4 \t\t\tg(uint256 => mapping(address =...\n      MSTORE \t\t\tg(uint256 => mapping(address =...\n      SWAP2 \t\t\tg(uint256 => mapping(address =...\n      PUSH 20\t\t\tg(uint256 => mapping(address =...\n      ADD \t\t\tg(uint256 => mapping(address =...\n      SWAP2 \t\t\tg(uint256 => mapping(address =...\n      PUSH [tag] 310\t\t\tg(uint256 => mapping(address =...\n      JUMP \t\t\tg(uint256 => mapping(address =...\n    tag 311\t\t\tg(uint256 => mapping(address =...\n      JUMPDEST \t\t\tg(uint256 => mapping(address =...\n      DUP3 \t\t\tg(uint256 => mapping(address =...\n      ADD \t\t\tg(uint256 => mapping(address =...\n      SWAP2 \t\t\tg(uint256 => mapping(address =...\n      SWAP1 \t\t\tg(uint256 => mapping(address =...\n      PUSH 0\t\t\tg(uint256 => mapping(address =...\n      MSTORE \t\t\tg(uint256 => mapping(address =...\n      PUSH 20\t\t\tg(uint256 => mapping(address =...\n      PUSH 0\t\t\tg(uint256 => mapping(address =...\n      KECCAK256 \t\t\tg(uint256 => mapping(address =...\n      SWAP1 \t\t\tg(uint256 => mapping(address =...\n    tag 312\t\t\tg(uint256 => mapping(address =...\n      JUMPDEST \t\t\tg(uint256 => mapping(address =...\n      DUP2 \t\t\tg(uint256 => mapping(address =...\n      SLOAD \t\t\tg(uint256 => mapping(address =...\n      DUP2 \t\t\tg(uint256 => mapping(address =...\n      MSTORE \t\t\tg(uint256 => mapping(address =...\n      SWAP1 \t\t\tg(uint256 => mapping(address =...\n      PUSH 1\t\t\tg(uint256 => mapping(address =...\n      ADD \t\t\tg(uint256 => mapping(address =...\n      SWAP1 \t\t\tg(uint256 => mapping(address =...\n      PUSH 20\t\t\tg(uint256 => mapping(address =...\n      ADD \t\t\tg(uint256 => mapping(address =...\n      DUP1 \t\t\tg(uint256 => mapping(address =...\n      DUP4 \t\t\tg(uint256 => mapping(address =...\n      GT \t\t\tg(uint256 => mapping(address =...\n      PUSH [tag] 312\t\t\tg(uint256 => mapping(address =...\n      JUMPI \t\t\tg(uint256 => mapping(address =...\n      DUP3 \t\t\tg(uint256 => mapping(address =...\n      SWAP1 \t\t\tg(uint256 => mapping(address =...\n      SUB \t\t\tg(uint256 => mapping(address =...\n      PUSH 1F\t\t\tg(uint256 => mapping(address =...\n      AND \t\t\tg(uint256 => mapping(address =...\n      DUP3 \t\t\tg(uint256 => mapping(address =...\n      ADD \t\t\tg(uint256 => mapping(address =...\n      SWAP2 \t\t\tg(uint256 => mapping(address =...\n    tag 310\t\t\tg(uint256 => mapping(address =...\n      JUMPDEST \t\t\tg(uint256 => mapping(address =...\n      POP \t\t\tg(uint256 => mapping(address =...\n      POP \t\t\tg(uint256 => mapping(address =...\n      POP \t\t\tg(uint256 => mapping(address =...\n      POP \t\t\tg(uint256 => mapping(address =...\n      POP \t\t\tg(uint256 => mapping(address =...\n      SWAP1 \t\t\tg(uint256 => mapping(address =...\n      DUP1 \t\t\tg(uint256 => mapping(address =...\n      PUSH 1\t\t\tg(uint256 => mapping(address =...\n      ADD \t\t\tg(uint256 => mapping(address =...\n      DUP1 \t\t\tg(uint256 => mapping(address =...\n      SLOAD \t\t\tg(uint256 => mapping(address =...\n      PUSH [tag] 313\t\t\tg(uint256 => mapping(address =...\n      SWAP1 \t\t\tg(uint256 => mapping(address =...\n      PUSH [tag] 149\t\t\tg(uint256 => mapping(address =...\n      JUMP \t\t\tg(uint256 => mapping(address =...\n    tag 313\t\t\tg(uint256 => mapping(address =...\n      JUMPDEST \t\t\tg(uint256 => mapping(address =...\n      DUP1 \t\t\tg(uint256 => mapping(address =...\n      PUSH 1F\t\t\tg(uint256 => mapping(address =...\n      ADD \t\t\tg(uint256 => mapping(address =...\n      PUSH 20\t\t\tg(uint256 => mapping(address =...\n      DUP1 \t\t\tg(uint256 => mapping(address =...\n      SWAP2 \t\t\tg(uint256 => mapping(address =...\n      DIV \t\t\tg(uint256 => mapping(address =...\n      MUL \t\t\tg(uint256 => mapping(address =...\n      PUSH 20\t\t\tg(uint256 => mapping(address =...\n      ADD \t\t\tg(uint256 => mapping(address =...\n      PUSH 40\t\t\tg(uint256 => mapping(address =...\n      MLOAD \t\t\tg(uint256 => mapping(address =...\n      SWAP1 \t\t\tg(uint256 => mapping(address =...\n      DUP2 \t\t\tg(uint256 => mapping(address =...\n      ADD \t\t\tg(uint256 => mapping(address =...\n      PUSH 40\t\t\tg(uint256 => mapping(address =...\n      MSTORE \t\t\tg(uint256 => mapping(address =...\n      DUP1 \t\t\tg(uint256 => mapping(address =...\n      SWAP3 \t\t\tg(uint256 => mapping(address =...\n      SWAP2 \t\t\tg(uint256 => mapping(address =...\n      SWAP1 \t\t\tg(uint256 => mapping(address =...\n      DUP2 \t\t\tg(uint256 => mapping(address =...\n      DUP2 \t\t\tg(uint256 => mapping(address =...\n      MSTORE \t\t\tg(uint256 => mapping(address =...\n      PUSH 20\t\t\tg(uint256 => mapping(address =...\n      ADD \t\t\tg(uint256 => mapping(address =...\n      DUP3 \t\t\tg(uint256 => mapping(address =...\n      DUP1 \t\t\tg(uint256 => mapping(address =...\n      SLOAD \t\t\tg(uint256 => mapping(address =...\n      PUSH [tag] 314\t\t\tg(uint256 => mapping(address =...\n      SWAP1 \t\t\tg(uint256 => mapping(address =...\n      PUSH [tag] 149\t\t\tg(uint256 => mapping(address =...\n      JUMP \t\t\tg(uint256 => mapping(address =...\n    tag 314\t\t\tg(uint256 => mapping(address =...\n      JUMPDEST \t\t\tg(uint256 => mapping(address =...\n      DUP1 \t\t\tg(uint256 => mapping(address =...\n      ISZERO \t\t\tg(uint256 => mapping(address =...\n      PUSH [tag] 315\t\t\tg(uint256 => mapping(address =...\n      JUMPI \t\t\tg(uint256 => mapping(address =...\n      DUP1 \t\t\tg(uint256 => mapping(address =...\n      PUSH 1F\t\t\tg(uint256 => mapping(address =...\n      LT \t\t\tg(uint256 => mapping(address =...\n      PUSH [tag] 316\t\t\tg(uint256 => mapping(address =...\n      JUMPI \t\t\tg(uint256 => mapping(address =...\n      PUSH 100\t\t\tg(uint256 => mapping(address =...\n      DUP1 \t\t\tg(uint256 => mapping(address =...\n      DUP4 \t\t\tg(uint256 => mapping(address =...\n      SLOAD \t\t\tg(uint256 => mapping(address =...\n      DIV \t\t\tg(uint256 => mapping(address =...\n      MUL \t\t\tg(uint256 => mapping(address =...\n      DUP4 \t\t\tg(uint256 => mapping(address =...\n      MSTORE \t\t\tg(uint256 => mapping(address =...\n      SWAP2 \t\t\tg(uint256 => mapping(address =...\n      PUSH 20\t\t\tg(uint256 => mapping(address =...\n      ADD \t\t\tg(uint256 => mapping(address =...\n      SWAP2 \t\t\tg(uint256 => mapping(address =...\n      PUSH [tag] 315\t\t\tg(uint256 => mapping(address =...\n      JUMP \t\t\tg(uint256 => mapping(address =...\n    tag 316\t\t\tg(uint256 => mapping(address =...\n      JUMPDEST \t\t\tg(uint256 => mapping(address =...\n      DUP3 \t\t\tg(uint256 => mapping(address =...\n      ADD \t\t\tg(uint256 => mapping(address =...\n      SWAP2 \t\t\tg(uint256 => mapping(address =...\n      SWAP1 \t\t\tg(uint256 => mapping(address =...\n      PUSH 0\t\t\tg(uint256 => mapping(address =...\n      MSTORE \t\t\tg(uint256 => mapping(address =...\n      PUSH 20\t\t\tg(uint256 => mapping(address =...\n      PUSH 0\t\t\tg(uint256 => mapping(address =...\n      KECCAK256 \t\t\tg(uint256 => mapping(address =...\n      SWAP1 \t\t\tg(uint256 => mapping(address =...\n    tag 317\t\t\tg(uint256 => mapping(address =...\n      JUMPDEST \t\t\tg(uint256 => mapping(address =...\n      DUP2 \t\t\tg(uint256 => mapping(address =...\n      SLOAD \t\t\tg(uint256 => mapping(address =...\n      DUP2 \t\t\tg(uint256 => mapping(address =...\n      MSTORE \t\t\tg(uint256 => mapping(address =...\n      SWAP1 \t\t\tg(uint256 => mapping(address =...\n      PUSH 1\t\t\tg(uint256 => mapping(address =...\n      ADD \t\t\tg(uint256 => mapping(address =...\n      SWAP1 \t\t\tg(uint256 => mapping(address =...\n      PUSH 20\t\t\tg(uint256 => mapping(address =...\n      ADD \t\t\tg(uint256 => mapping(address =...\n      DUP1 \t\t\tg(uint256 => mapping(address =...\n      DUP4 \t\t\tg(uint256 => mapping(address =...\n      GT \t\t\tg(uint256 => mapping(address =...\n      PUSH [tag] 317\t\t\tg(uint256 => mapping(address =...\n      JUMPI \t\t\tg(uint256 => mapping(address =...\n      DUP3 \t\t\tg(uint256 => mapping(address =...\n      SWAP1 \t\t\tg(uint256 => mapping(address =...\n      SUB \t\t\tg(uint256 => mapping(address =...\n      PUSH 1F\t\t\tg(uint256 => mapping(address =...\n      AND \t\t\tg(uint256 => mapping(address =...\n      DUP3 \t\t\tg(uint256 => mapping(address =...\n      ADD \t\t\tg(uint256 => mapping(address =...\n      SWAP2 \t\t\tg(uint256 => mapping(address =...\n    tag 315\t\t\tg(uint256 => mapping(address =...\n      JUMPDEST \t\t\tg(uint256 => mapping(address =...\n      POP \t\t\tg(uint256 => mapping(address =...\n      POP \t\t\tg(uint256 => mapping(address =...\n      POP \t\t\tg(uint256 => mapping(address =...\n      POP \t\t\tg(uint256 => mapping(address =...\n      POP \t\t\tg(uint256 => mapping(address =...\n      SWAP1 \t\t\tg(uint256 => mapping(address =...\n      DUP1 \t\t\tg(uint256 => mapping(address =...\n      PUSH 2\t\t\tg(uint256 => mapping(address =...\n      ADD \t\t\tg(uint256 => mapping(address =...\n      DUP1 \t\t\tg(uint256 => mapping(address =...\n      SLOAD \t\t\tg(uint256 => mapping(address =...\n      PUSH [tag] 318\t\t\tg(uint256 => mapping(address =...\n      SWAP1 \t\t\tg(uint256 => mapping(address =...\n      PUSH [tag] 149\t\t\tg(uint256 => mapping(address =...\n      JUMP \t\t\tg(uint256 => mapping(address =...\n    tag 318\t\t\tg(uint256 => mapping(address =...\n      JUMPDEST \t\t\tg(uint256 => mapping(address =...\n      DUP1 \t\t\tg(uint256 => mapping(address =...\n      PUSH 1F\t\t\tg(uint256 => mapping(address =...\n      ADD \t\t\tg(uint256 => mapping(address =...\n      PUSH 20\t\t\tg(uint256 => mapping(address =...\n      DUP1 \t\t\tg(uint256 => mapping(address =...\n      SWAP2 \t\t\tg(uint256 => mapping(address =...\n      DIV \t\t\tg(uint256 => mapping(address =...\n      MUL \t\t\tg(uint256 => mapping(address =...\n      PUSH 20\t\t\tg(uint256 => mapping(address =...\n      ADD \t\t\tg(uint256 => mapping(address =...\n      PUSH 40\t\t\tg(uint256 => mapping(address =...\n      MLOAD \t\t\tg(uint256 => mapping(address =...\n      SWAP1 \t\t\tg(uint256 => mapping(address =...\n      DUP2 \t\t\tg(uint256 => mapping(address =...\n      ADD \t\t\tg(uint256 => mapping(address =...\n      PUSH 40\t\t\tg(uint256 => mapping(address =...\n      MSTORE \t\t\tg(uint256 => mapping(address =...\n      DUP1 \t\t\tg(uint256 => mapping(address =...\n      SWAP3 \t\t\tg(uint256 => mapping(address =...\n      SWAP2 \t\t\tg(uint256 => mapping(address =...\n      SWAP1 \t\t\tg(uint256 => mapping(address =...\n      DUP2 \t\t\tg(uint256 => mapping(address =...\n      DUP2 \t\t\tg(uint256 => mapping(address =...\n      MSTORE \t\t\tg(uint256 => mapping(address =...\n      PUSH 20\t\t\tg(uint256 => mapping(address =...\n      ADD \t\t\tg(uint256 => mapping(address =...\n      DUP3 \t\t\tg(uint256 => mapping(address =...\n      DUP1 \t\t\tg(uint256 => mapping(address =...\n      SLOAD \t\t\tg(uint256 => mapping(address =...\n      PUSH [tag] 319\t\t\tg(uint256 => mapping(address =...\n      SWAP1 \t\t\tg(uint256 => mapping(address =...\n      PUSH [tag] 149\t\t\tg(uint256 => mapping(address =...\n      JUMP \t\t\tg(uint256 => mapping(address =...\n    tag 319\t\t\tg(uint256 => mapping(address =...\n      JUMPDEST \t\t\tg(uint256 => mapping(address =...\n      DUP1 \t\t\tg(uint256 => mapping(address =...\n      ISZERO \t\t\tg(uint256 => mapping(address =...\n      PUSH [tag] 320\t\t\tg(uint256 => mapping(address =...\n      JUMPI \t\t\tg(uint256 => mapping(address =...\n      DUP1 \t\t\tg(uint256 => mapping(address =...\n      PUSH 1F\t\t\tg(uint256 => mapping(address =...\n      LT \t\t\tg(uint256 => mapping(address =...\n      PUSH [tag] 321\t\t\tg(uint256 => mapping(address =...\n      JUMPI \t\t\tg(uint256 => mapping(address =...\n      PUSH 100\t\t\tg(uint256 => mapping(address =...\n      DUP1 \t\t\tg(uint256 => mapping(address =...\n      DUP4 \t\t\tg(uint256 => mapping(address =...\n      SLOAD \t\t\tg(uint256 => mapping(address =...\n      DIV \t\t\tg(uint256 => mapping(address =...\n      MUL \t\t\tg(uint256 => mapping(address =...\n      DUP4 \t\t\tg(uint256 => mapping(address =...\n      MSTORE \t\t\tg(uint256 => mapping(address =...\n      SWAP2 \t\t\tg(uint256 => mapping(address =...\n      PUSH 20\t\t\tg(uint256 => mapping(address =...\n      ADD \t\t\tg(uint256 => mapping(address =...\n      SWAP2 \t\t\tg(uint256 => mapping(address =...\n      PUSH [tag] 320\t\t\tg(uint256 => mapping(address =...\n      JUMP \t\t\tg(uint256 => mapping(address =...\n    tag 321\t\t\tg(uint256 => mapping(address =...\n      JUMPDEST \t\t\tg(uint256 => mapping(address =...\n      DUP3 \t\t\tg(uint256 => mapping(address =...\n      ADD \t\t\tg(uint256 => mapping(address =...\n      SWAP2 \t\t\tg(uint256 => mapping(address =...\n      SWAP1 \t\t\tg(uint256 => mapping(address =...\n      PUSH 0\t\t\tg(uint256 => mapping(address =...\n      MSTORE \t\t\tg(uint256 => mapping(address =...\n      PUSH 20\t\t\tg(uint256 => mapping(address =...\n      PUSH 0\t\t\tg(uint256 => mapping(address =...\n      KECCAK256 \t\t\tg(uint256 => mapping(address =...\n      SWAP1 \t\t\tg(uint256 => mapping(address =...\n    tag 322\t\t\tg(uint256 => mapping(address =...\n      JUMPDEST \t\t\tg(uint256 => mapping(address =...\n      DUP2 \t\t\tg(uint256 => mapping(address =...\n      SLOAD \t\t\tg(uint256 => mapping(address =...\n      DUP2 \t\t\tg(uint256 => mapping(address =...\n      MSTORE \t\t\tg(uint256 => mapping(address =...\n      SWAP1 \t\t\tg(uint256 => mapping(address =...\n      PUSH 1\t\t\tg(uint256 => mapping(address =...\n      ADD \t\t\tg(uint256 => mapping(address =...\n      SWAP1 \t\t\tg(uint256 => mapping(address =...\n      PUSH 20\t\t\tg(uint256 => mapping(address =...\n      ADD \t\t\tg(uint256 => mapping(address =...\n      DUP1 \t\t\tg(uint256 => mapping(address =...\n      DUP4 \t\t\tg(uint256 => mapping(address =...\n      GT \t\t\tg(uint256 => mapping(address =...\n      PUSH [tag] 322\t\t\tg(uint256 => mapping(address =...\n      JUMPI \t\t\tg(uint256 => mapping(address =...\n      DUP3 \t\t\tg(uint256 => mapping(address =...\n      SWAP1 \t\t\tg(uint256 => mapping(address =...\n      SUB \t\t\tg(uint256 => mapping(address =...\n      PUSH 1F\t\t\tg(uint256 => mapping(address =...\n      AND \t\t\tg(uint256 => mapping(address =...\n      DUP3 \t\t\tg(uint256 => mapping(address =...\n      ADD \t\t\tg(uint256 => mapping(address =...\n      SWAP2 \t\t\tg(uint256 => mapping(address =...\n    tag 320\t\t\tg(uint256 => mapping(address =...\n      JUMPDEST \t\t\tg(uint256 => mapping(address =...\n      POP \t\t\tg(uint256 => mapping(address =...\n      POP \t\t\tg(uint256 => mapping(address =...\n      POP \t\t\tg(uint256 => mapping(address =...\n      POP \t\t\tg(uint256 => mapping(address =...\n      POP \t\t\tg(uint256 => mapping(address =...\n      SWAP1 \t\t\tg(uint256 => mapping(address =...\n      POP \t\t\tg(uint256 => mapping(address =...\n      DUP4 \t\t\tg(uint256 => mapping(address =...\n      JUMP \t\t\tg(uint256 => mapping(address =...\n    tag 88\t\t\tfunction addAdmin(address _adm...\n      JUMPDEST \t\t\tfunction addAdmin(address _adm...\n      PUSH [tag] 324\t\t\tush(_admin);\\r\n      PUSH [tag] 156\t\t\tush(_admin)\n      JUMP \t\t\tush(_admin);\\r\n    tag 324\t\t\tush(_admin);\\r\n      JUMPDEST \t\t\tush(_admin);\\r\n      PUSH 0\t\t\t0\n      PUSH FFFFFFFFFFFFFFFFFFFFFFFFFFFFFFFFFFFFFFFF\t\t\t_admin != address(0)\n      AND \t\t\t_admin != address(0)\n      DUP2 \t\t\t_admin\n      PUSH FFFFFFFFFFFFFFFFFFFFFFFFFFFFFFFFFFFFFFFF\t\t\t_admin != address(0)\n      AND \t\t\t_admin != address(0)\n      SUB \t\t\t_admin != address(0)\n      PUSH [tag] 326\t\t\trequire(_admin != address(0), ...\n      JUMPI \t\t\trequire(_admin != address(0), ...\n      PUSH 40\t\t\trequire(_admin != address(0), ...\n      MLOAD \t\t\trequire(_admin != address(0), ...\n      PUSH 8C379A000000000000000000000000000000000000000000000000000000000\t\t\trequire(_admin != address(0), ...\n      DUP2 \t\t\trequire(_admin != address(0), ...\n      MSTORE \t\t\trequire(_admin != address(0), ...\n      PUSH 4\t\t\trequire(_admin != address(0), ...\n      ADD \t\t\trequire(_admin != address(0), ...\n      PUSH [tag] 327\t\t\trequire(_admin != address(0), ...\n      SWAP1 \t\t\trequire(_admin != address(0), ...\n      PUSH [tag] 328\t\t\trequire(_admin != address(0), ...\n      JUMP \t\t\trequire(_admin != address(0), ...\n    tag 327\t\t\trequire(_admin != address(0), ...\n      JUMPDEST \t\t\trequire(_admin != address(0), ...\n      PUSH 40\t\t\trequire(_admin != address(0), ...\n      MLOAD \t\t\trequire(_admin != address(0), ...\n      DUP1 \t\t\trequire(_admin != address(0), ...\n      SWAP2 \t\t\trequire(_admin != address(0), ...\n      SUB \t\t\trequire(_admin != address(0), ...\n      SWAP1 \t\t\trequire(_admin != address(0), ...\n      REVERT \t\t\trequire(_admin != address(0), ...\n    tag 326\t\t\trequire(_admin != address(0), ...\n      JUMPDEST \t\t\trequire(_admin != address(0), ...\n      PUSH [tag] 329\t\t\t_isAdmin(_admin)\n      DUP2 \t\t\t_admin\n      PUSH [tag] 330\t\t\t_isAdmin\n      JUMP \t\t\t_isAdmin(_admin)\n    tag 329\t\t\t_isAdmin(_admin)\n      JUMPDEST \t\t\t_isAdmin(_admin)\n      ISZERO \t\t\t!_isAdmin(_admin)\n      PUSH [tag] 331\t\t\trequire(!_isAdmin(_admin), \"Ad...\n      JUMPI \t\t\trequire(!_isAdmin(_admin), \"Ad...\n      PUSH 40\t\t\trequire(!_isAdmin(_admin), \"Ad...\n      MLOAD \t\t\trequire(!_isAdmin(_admin), \"Ad...\n      PUSH 8C379A000000000000000000000000000000000000000000000000000000000\t\t\trequire(!_isAdmin(_admin), \"Ad...\n      DUP2 \t\t\trequire(!_isAdmin(_admin), \"Ad...\n      MSTORE \t\t\trequire(!_isAdmin(_admin), \"Ad...\n      PUSH 4\t\t\trequire(!_isAdmin(_admin), \"Ad...\n      ADD \t\t\trequire(!_isAdmin(_admin), \"Ad...\n      PUSH [tag] 332\t\t\trequire(!_isAdmin(_admin), \"Ad...\n      SWAP1 \t\t\trequire(!_isAdmin(_admin), \"Ad...\n      PUSH [tag] 333\t\t\trequire(!_isAdmin(_admin), \"Ad...\n      JUMP \t\t\trequire(!_isAdmin(_admin), \"Ad...\n    tag 332\t\t\trequire(!_isAdmin(_admin), \"Ad...\n      JUMPDEST \t\t\trequire(!_isAdmin(_admin), \"Ad...\n      PUSH 40\t\t\trequire(!_isAdmin(_admin), \"Ad...\n      MLOAD \t\t\trequire(!_isAdmin(_admin), \"Ad...\n      DUP1 \t\t\trequire(!_isAdmin(_admin), \"Ad...\n      SWAP2 \t\t\trequire(!_isAdmin(_admin), \"Ad...\n      SUB \t\t\trequire(!_isAdmin(_admin), \"Ad...\n      SWAP1 \t\t\trequire(!_isAdmin(_admin), \"Ad...\n      REVERT \t\t\trequire(!_isAdmin(_admin), \"Ad...\n    tag 331\t\t\trequire(!_isAdmin(_admin), \"Ad...\n      JUMPDEST \t\t\trequire(!_isAdmin(_admin), \"Ad...\n      PUSH 4\t\t\tadmins\n      DUP2 \t\t\t_admin\n      SWAP1 \t\t\tadmins.push(_admin)\n      DUP1 \t\t\tadmins.push(_admin)\n      PUSH 1\t\t\tadmins.push(_admin)\n      DUP2 \t\t\tadmins.push(_admin)\n      SLOAD \t\t\tadmins.push(_admin)\n      ADD \t\t\tadmins.push(_admin)\n      DUP1 \t\t\tadmins.push(_admin)\n      DUP3 \t\t\tadmins.push(_admin)\n      SSTORE \t\t\tadmins.push(_admin)\n      DUP1 \t\t\tadmins.push(_admin)\n      SWAP2 \t\t\tadmins.push(_admin)\n      POP \t\t\tadmins.push(_admin)\n      POP \t\t\tadmins.push(_admin)\n      PUSH 1\t\t\tadmins.push(_admin)\n      SWAP1 \t\t\tadmins.push(_admin)\n      SUB \t\t\tadmins.push(_admin)\n      SWAP1 \t\t\tadmins.push(_admin)\n      PUSH 0\t\t\tadmins.push(_admin)\n      MSTORE \t\t\tadmins.push(_admin)\n      PUSH 20\t\t\tadmins.push(_admin)\n      PUSH 0\t\t\tadmins.push(_admin)\n      KECCAK256 \t\t\tadmins.push(_admin)\n      ADD \t\t\tadmins.push(_admin)\n      PUSH 0\t\t\tadmins.push(_admin)\n      SWAP1 \t\t\tadmins.push(_admin)\n      SWAP2 \t\t\tadmins.push(_admin)\n      SWAP1 \t\t\tadmins.push(_admin)\n      SWAP2 \t\t\tadmins.push(_admin)\n      SWAP1 \t\t\tadmins.push(_admin)\n      SWAP2 \t\t\tadmins.push(_admin)\n      PUSH 100\t\t\tadmins.push(_admin)\n      EXP \t\t\tadmins.push(_admin)\n      DUP2 \t\t\tadmins.push(_admin)\n      SLOAD \t\t\tadmins.push(_admin)\n      DUP2 \t\t\tadmins.push(_admin)\n      PUSH FFFFFFFFFFFFFFFFFFFFFFFFFFFFFFFFFFFFFFFF\t\t\tadmins.push(_admin)\n      MUL \t\t\tadmins.push(_admin)\n      NOT \t\t\tadmins.push(_admin)\n      AND \t\t\tadmins.push(_admin)\n      SWAP1 \t\t\tadmins.push(_admin)\n      DUP4 \t\t\tadmins.push(_admin)\n      PUSH FFFFFFFFFFFFFFFFFFFFFFFFFFFFFFFFFFFFFFFF\t\t\tadmins.push(_admin)\n      AND \t\t\tadmins.push(_admin)\n      MUL \t\t\tadmins.push(_admin)\n      OR \t\t\tadmins.push(_admin)\n      SWAP1 \t\t\tadmins.push(_admin)\n      SSTORE \t\t\tadmins.push(_admin)\n      POP \t\t\tadmins.push(_admin)\n      POP \t\t\tfunction addAdmin(address _adm...\n      JUMP \t\t\tfunction addAdmin(address _adm...\n    tag 90\t\t\teSet.UintSet private _allToken...\n      JUMPDEST \t\t\teSet.UintSet private _allToken...\n      PUSH [tag] 336\t\t\tush(_admin);\\r\n      PUSH [tag] 156\t\t\tush(_admin)\n      JUMP \t\t\tush(_admin);\\r\n    tag 336\t\t\tush(_admin);\\r\n      JUMPDEST \t\t\tush(_admin);\\r\n      PUSH [tag] 338\t\t\te full list of token IDs ever \n      PUSH 0\t\t\te\n      PUSH [tag] 339\t\t\te full list of tok\n      JUMP \t\t\te full list of token IDs ever \n    tag 338\t\t\te full list of token IDs ever \n      JUMPDEST \t\t\te full list of token IDs ever \n      JUMP \t\t\teSet.UintSet private _allToken...\n    tag 94\t\t\ton addProofRequest_VerifierAnd...\n      JUMPDEST \t\t\ton addProofRequest_VerifierAnd...\n      PUSH 0\t\t\tl\n      PUSH [tag] 341\t\t\teOf(msg.sender, tokenID) > 0, \n      CALLER \t\t\tnder, toke\n      DUP7 \t\t\tD) > 0,\n      PUSH [tag] 35\t\t\teOf(msg.s\n      JUMP \t\t\teOf(msg.sender, tokenID) > 0, \n    tag 341\t\t\teOf(msg.sender, tokenID) > 0, \n      JUMPDEST \t\t\teOf(msg.sender, tokenID) > 0, \n      GT \t\t\teOf(msg.sender, tokenID) > 0, ...\n      PUSH [tag] 342\t\t\te(balanceOf(msg.sender, tokenI...\n      JUMPI \t\t\te(balanceOf(msg.sender, tokenI...\n      PUSH 40\t\t\te(balanceOf(msg.sender, tokenI...\n      MLOAD \t\t\te(balanceOf(msg.sender, tokenI...\n      PUSH 8C379A000000000000000000000000000000000000000000000000000000000\t\t\te(balanceOf(msg.sender, tokenI...\n      DUP2 \t\t\te(balanceOf(msg.sender, tokenI...\n      MSTORE \t\t\te(balanceOf(msg.sender, tokenI...\n      PUSH 4\t\t\te(balanceOf(msg.sender, tokenI...\n      ADD \t\t\te(balanceOf(msg.sender, tokenI...\n      PUSH [tag] 343\t\t\te(balanceOf(msg.sender, tokenI...\n      SWAP1 \t\t\te(balanceOf(msg.sender, tokenI...\n      PUSH [tag] 344\t\t\te(balanceOf(msg.sender, tokenI...\n      JUMP \t\t\te(balanceOf(msg.sender, tokenI...\n    tag 343\t\t\te(balanceOf(msg.sender, tokenI...\n      JUMPDEST \t\t\te(balanceOf(msg.sender, tokenI...\n      PUSH 40\t\t\te(balanceOf(msg.sender, tokenI...\n      MLOAD \t\t\te(balanceOf(msg.sender, tokenI...\n      DUP1 \t\t\te(balanceOf(msg.sender, tokenI...\n      SWAP2 \t\t\te(balanceOf(msg.sender, tokenI...\n      SUB \t\t\te(balanceOf(msg.sender, tokenI...\n      SWAP1 \t\t\te(balanceOf(msg.sender, tokenI...\n      REVERT \t\t\te(balanceOf(msg.sender, tokenI...\n    tag 342\t\t\te(balanceOf(msg.sender, tokenI...\n      JUMPDEST \t\t\te(balanceOf(msg.sender, tokenI...\n      PUSH 0\t\t\trifier.ZKPRequest memory req =...\n      PUSH 40\t\t\trifier.ZKPRequest({\\r\\n       ...\n      MLOAD \t\t\trifier.ZKPRequest({\\r\\n       ...\n      DUP1 \t\t\trifier.ZKPRequest({\\r\\n       ...\n      PUSH 60\t\t\trifier.ZKPRequest({\\r\\n       ...\n      ADD \t\t\trifier.ZKPRequest({\\r\\n       ...\n      PUSH 40\t\t\trifier.ZKPRequest({\\r\\n       ...\n      MSTORE \t\t\trifier.ZKPRequest({\\r\\n       ...\n      DUP1 \t\t\trifier.ZKPRequest({\\r\\n       ...\n      DUP12 \t\t\tta,\\r\\n   \n      DUP12 \t\t\tta,\\r\\n   \n      DUP1 \t\t\trifier.ZKPRequest({\\r\\n       ...\n      DUP1 \t\t\trifier.ZKPRequest({\\r\\n       ...\n      PUSH 1F\t\t\trifier.ZKPRequest({\\r\\n       ...\n      ADD \t\t\trifier.ZKPRequest({\\r\\n       ...\n      PUSH 20\t\t\trifier.ZKPRequest({\\r\\n       ...\n      DUP1 \t\t\trifier.ZKPRequest({\\r\\n       ...\n      SWAP2 \t\t\trifier.ZKPRequest({\\r\\n       ...\n      DIV \t\t\trifier.ZKPRequest({\\r\\n       ...\n      MUL \t\t\trifier.ZKPRequest({\\r\\n       ...\n      PUSH 20\t\t\trifier.ZKPRequest({\\r\\n       ...\n      ADD \t\t\trifier.ZKPRequest({\\r\\n       ...\n      PUSH 40\t\t\trifier.ZKPRequest({\\r\\n       ...\n      MLOAD \t\t\trifier.ZKPRequest({\\r\\n       ...\n      SWAP1 \t\t\trifier.ZKPRequest({\\r\\n       ...\n      DUP2 \t\t\trifier.ZKPRequest({\\r\\n       ...\n      ADD \t\t\trifier.ZKPRequest({\\r\\n       ...\n      PUSH 40\t\t\trifier.ZKPRequest({\\r\\n       ...\n      MSTORE \t\t\trifier.ZKPRequest({\\r\\n       ...\n      DUP1 \t\t\trifier.ZKPRequest({\\r\\n       ...\n      SWAP4 \t\t\trifier.ZKPRequest({\\r\\n       ...\n      SWAP3 \t\t\trifier.ZKPRequest({\\r\\n       ...\n      SWAP2 \t\t\trifier.ZKPRequest({\\r\\n       ...\n      SWAP1 \t\t\trifier.ZKPRequest({\\r\\n       ...\n      DUP2 \t\t\trifier.ZKPRequest({\\r\\n       ...\n      DUP2 \t\t\trifier.ZKPRequest({\\r\\n       ...\n      MSTORE \t\t\trifier.ZKPRequest({\\r\\n       ...\n      PUSH 20\t\t\trifier.ZKPRequest({\\r\\n       ...\n      ADD \t\t\trifier.ZKPRequest({\\r\\n       ...\n      DUP4 \t\t\trifier.ZKPRequest({\\r\\n       ...\n      DUP4 \t\t\trifier.ZKPRequest({\\r\\n       ...\n      DUP1 \t\t\trifier.ZKPRequest({\\r\\n       ...\n      DUP3 \t\t\trifier.ZKPRequest({\\r\\n       ...\n      DUP5 \t\t\trifier.ZKPRequest({\\r\\n       ...\n      CALLDATACOPY \t\t\trifier.ZKPRequest({\\r\\n       ...\n      PUSH 0\t\t\trifier.ZKPRequest({\\r\\n       ...\n      DUP2 \t\t\trifier.ZKPRequest({\\r\\n       ...\n      DUP5 \t\t\trifier.ZKPRequest({\\r\\n       ...\n      ADD \t\t\trifier.ZKPRequest({\\r\\n       ...\n      MSTORE \t\t\trifier.ZKPRequest({\\r\\n       ...\n      PUSH 1F\t\t\trifier.ZKPRequest({\\r\\n       ...\n      NOT \t\t\trifier.ZKPRequest({\\r\\n       ...\n      PUSH 1F\t\t\trifier.ZKPRequest({\\r\\n       ...\n      DUP3 \t\t\trifier.ZKPRequest({\\r\\n       ...\n      ADD \t\t\trifier.ZKPRequest({\\r\\n       ...\n      AND \t\t\trifier.ZKPRequest({\\r\\n       ...\n      SWAP1 \t\t\trifier.ZKPRequest({\\r\\n       ...\n      POP \t\t\trifier.ZKPRequest({\\r\\n       ...\n      DUP1 \t\t\trifier.ZKPRequest({\\r\\n       ...\n      DUP4 \t\t\trifier.ZKPRequest({\\r\\n       ...\n      ADD \t\t\trifier.ZKPRequest({\\r\\n       ...\n      SWAP3 \t\t\trifier.ZKPRequest({\\r\\n       ...\n      POP \t\t\trifier.ZKPRequest({\\r\\n       ...\n      POP \t\t\trifier.ZKPRequest({\\r\\n       ...\n      POP \t\t\trifier.ZKPRequest({\\r\\n       ...\n      POP \t\t\trifier.ZKPRequest({\\r\\n       ...\n      POP \t\t\trifier.ZKPRequest({\\r\\n       ...\n      POP \t\t\trifier.ZKPRequest({\\r\\n       ...\n      POP \t\t\trifier.ZKPRequest({\\r\\n       ...\n      DUP2 \t\t\trifier.ZKPRequest({\\r\\n       ...\n      MSTORE \t\t\trifier.ZKPRequest({\\r\\n       ...\n      PUSH 20\t\t\trifier.ZKPRequest({\\r\\n       ...\n      ADD \t\t\trifier.ZKPRequest({\\r\\n       ...\n      DUP10 \t\t\ttor,\\r\\n   \n      PUSH FFFFFFFFFFFFFFFFFFFFFFFFFFFFFFFFFFFFFFFF\t\t\trifier.ZKPRequest({\\r\\n       ...\n      AND \t\t\trifier.ZKPRequest({\\r\\n       ...\n      DUP2 \t\t\trifier.ZKPRequest({\\r\\n       ...\n      MSTORE \t\t\trifier.ZKPRequest({\\r\\n       ...\n      PUSH 20\t\t\trifier.ZKPRequest({\\r\\n       ...\n      ADD \t\t\trifier.ZKPRequest({\\r\\n       ...\n      DUP9 \t\t\t    \n      DUP9 \t\t\t    \n      DUP1 \t\t\trifier.ZKPRequest({\\r\\n       ...\n      DUP1 \t\t\trifier.ZKPRequest({\\r\\n       ...\n      PUSH 1F\t\t\trifier.ZKPRequest({\\r\\n       ...\n      ADD \t\t\trifier.ZKPRequest({\\r\\n       ...\n      PUSH 20\t\t\trifier.ZKPRequest({\\r\\n       ...\n      DUP1 \t\t\trifier.ZKPRequest({\\r\\n       ...\n      SWAP2 \t\t\trifier.ZKPRequest({\\r\\n       ...\n      DIV \t\t\trifier.ZKPRequest({\\r\\n       ...\n      MUL \t\t\trifier.ZKPRequest({\\r\\n       ...\n      PUSH 20\t\t\trifier.ZKPRequest({\\r\\n       ...\n      ADD \t\t\trifier.ZKPRequest({\\r\\n       ...\n      PUSH 40\t\t\trifier.ZKPRequest({\\r\\n       ...\n      MLOAD \t\t\trifier.ZKPRequest({\\r\\n       ...\n      SWAP1 \t\t\trifier.ZKPRequest({\\r\\n       ...\n      DUP2 \t\t\trifier.ZKPRequest({\\r\\n       ...\n      ADD \t\t\trifier.ZKPRequest({\\r\\n       ...\n      PUSH 40\t\t\trifier.ZKPRequest({\\r\\n       ...\n      MSTORE \t\t\trifier.ZKPRequest({\\r\\n       ...\n      DUP1 \t\t\trifier.ZKPRequest({\\r\\n       ...\n      SWAP4 \t\t\trifier.ZKPRequest({\\r\\n       ...\n      SWAP3 \t\t\trifier.ZKPRequest({\\r\\n       ...\n      SWAP2 \t\t\trifier.ZKPRequest({\\r\\n       ...\n      SWAP1 \t\t\trifier.ZKPRequest({\\r\\n       ...\n      DUP2 \t\t\trifier.ZKPRequest({\\r\\n       ...\n      DUP2 \t\t\trifier.ZKPRequest({\\r\\n       ...\n      MSTORE \t\t\trifier.ZKPRequest({\\r\\n       ...\n      PUSH 20\t\t\trifier.ZKPRequest({\\r\\n       ...\n      ADD \t\t\trifier.ZKPRequest({\\r\\n       ...\n      DUP4 \t\t\trifier.ZKPRequest({\\r\\n       ...\n      DUP4 \t\t\trifier.ZKPRequest({\\r\\n       ...\n      DUP1 \t\t\trifier.ZKPRequest({\\r\\n       ...\n      DUP3 \t\t\trifier.ZKPRequest({\\r\\n       ...\n      DUP5 \t\t\trifier.ZKPRequest({\\r\\n       ...\n      CALLDATACOPY \t\t\trifier.ZKPRequest({\\r\\n       ...\n      PUSH 0\t\t\trifier.ZKPRequest({\\r\\n       ...\n      DUP2 \t\t\trifier.ZKPRequest({\\r\\n       ...\n      DUP5 \t\t\trifier.ZKPRequest({\\r\\n       ...\n      ADD \t\t\trifier.ZKPRequest({\\r\\n       ...\n      MSTORE \t\t\trifier.ZKPRequest({\\r\\n       ...\n      PUSH 1F\t\t\trifier.ZKPRequest({\\r\\n       ...\n      NOT \t\t\trifier.ZKPRequest({\\r\\n       ...\n      PUSH 1F\t\t\trifier.ZKPRequest({\\r\\n       ...\n      DUP3 \t\t\trifier.ZKPRequest({\\r\\n       ...\n      ADD \t\t\trifier.ZKPRequest({\\r\\n       ...\n      AND \t\t\trifier.ZKPRequest({\\r\\n       ...\n      SWAP1 \t\t\trifier.ZKPRequest({\\r\\n       ...\n      POP \t\t\trifier.ZKPRequest({\\r\\n       ...\n      DUP1 \t\t\trifier.ZKPRequest({\\r\\n       ...\n      DUP4 \t\t\trifier.ZKPRequest({\\r\\n       ...\n      ADD \t\t\trifier.ZKPRequest({\\r\\n       ...\n      SWAP3 \t\t\trifier.ZKPRequest({\\r\\n       ...\n      POP \t\t\trifier.ZKPRequest({\\r\\n       ...\n      POP \t\t\trifier.ZKPRequest({\\r\\n       ...\n      POP \t\t\trifier.ZKPRequest({\\r\\n       ...\n      POP \t\t\trifier.ZKPRequest({\\r\\n       ...\n      POP \t\t\trifier.ZKPRequest({\\r\\n       ...\n      POP \t\t\trifier.ZKPRequest({\\r\\n       ...\n      POP \t\t\trifier.ZKPRequest({\\r\\n       ...\n      DUP2 \t\t\trifier.ZKPRequest({\\r\\n       ...\n      MSTORE \t\t\trifier.ZKPRequest({\\r\\n       ...\n      POP \t\t\trifier.ZKPRequest({\\r\\n       ...\n      SWAP1 \t\t\trifier.ZKPRequest memory req =...\n      POP \t\t\trifier.ZKPRequest memory req =...\n      PUSH B\t\t\ter.setZK\n      PUSH 0\t\t\ter.setZK\n      SWAP1 \t\t\ter.setZK\n      SLOAD \t\t\ter.setZK\n      SWAP1 \t\t\ter.setZK\n      PUSH 100\t\t\ter.setZK\n      EXP \t\t\ter.setZK\n      SWAP1 \t\t\ter.setZK\n      DIV \t\t\ter.setZK\n      PUSH FFFFFFFFFFFFFFFFFFFFFFFFFFFFFFFFFFFFFFFF\t\t\ter.setZK\n      AND \t\t\ter.setZK\n      PUSH FFFFFFFFFFFFFFFFFFFFFFFFFFFFFFFFFFFFFFFF\t\t\ter.setZKPRequest(reque\n      AND \t\t\ter.setZKPRequest(reque\n      PUSH 9F5223E0\t\t\ter.setZKPRequest(reque\n      DUP13 \t\t\ttId, req)\n      DUP4 \t\t\t\\n  \n      PUSH 40\t\t\ter.setZKPRequest(requestId, re...\n      MLOAD \t\t\ter.setZKPRequest(requestId, re...\n      DUP4 \t\t\ter.setZKPRequest(requestId, re...\n      PUSH FFFFFFFF\t\t\ter.setZKPRequest(requestId, re...\n      AND \t\t\ter.setZKPRequest(requestId, re...\n      PUSH E0\t\t\ter.setZKPRequest(requestId, re...\n      SHL \t\t\ter.setZKPRequest(requestId, re...\n      DUP2 \t\t\ter.setZKPRequest(requestId, re...\n      MSTORE \t\t\ter.setZKPRequest(requestId, re...\n      PUSH 4\t\t\ter.setZKPRequest(requestId, re...\n      ADD \t\t\ter.setZKPRequest(requestId, re...\n      PUSH [tag] 345\t\t\ter.setZKPRequest(requestId, re...\n      SWAP3 \t\t\ter.setZKPRequest(requestId, re...\n      SWAP2 \t\t\ter.setZKPRequest(requestId, re...\n      SWAP1 \t\t\ter.setZKPRequest(requestId, re...\n      PUSH [tag] 346\t\t\ter.setZKPRequest(requestId, re...\n      JUMP \t\t\ter.setZKPRequest(requestId, re...\n    tag 345\t\t\ter.setZKPRequest(requestId, re...\n      JUMPDEST \t\t\ter.setZKPRequest(requestId, re...\n      PUSH 0\t\t\ter.setZKPRequest(requestId, re...\n      PUSH 40\t\t\ter.setZKPRequest(requestId, re...\n      MLOAD \t\t\ter.setZKPRequest(requestId, re...\n      DUP1 \t\t\ter.setZKPRequest(requestId, re...\n      DUP4 \t\t\ter.setZKPRequest(requestId, re...\n      SUB \t\t\ter.setZKPRequest(requestId, re...\n      DUP2 \t\t\ter.setZKPRequest(requestId, re...\n      PUSH 0\t\t\ter.setZKPRequest(requestId, re...\n      DUP8 \t\t\ter.setZKPRequest(requestId, re...\n      DUP1 \t\t\ter.setZKPRequest(requestId, re...\n      EXTCODESIZE \t\t\ter.setZKPRequest(requestId, re...\n      ISZERO \t\t\ter.setZKPRequest(requestId, re...\n      DUP1 \t\t\ter.setZKPRequest(requestId, re...\n      ISZERO \t\t\ter.setZKPRequest(requestId, re...\n      PUSH [tag] 347\t\t\ter.setZKPRequest(requestId, re...\n      JUMPI \t\t\ter.setZKPRequest(requestId, re...\n      PUSH 0\t\t\ter.setZKPRequest(requestId, re...\n      DUP1 \t\t\ter.setZKPRequest(requestId, re...\n      REVERT \t\t\ter.setZKPRequest(requestId, re...\n    tag 347\t\t\ter.setZKPRequest(requestId, re...\n      JUMPDEST \t\t\ter.setZKPRequest(requestId, re...\n      POP \t\t\ter.setZKPRequest(requestId, re...\n      GAS \t\t\ter.setZKPRequest(requestId, re...\n      CALL \t\t\ter.setZKPRequest(requestId, re...\n      ISZERO \t\t\ter.setZKPRequest(requestId, re...\n      DUP1 \t\t\ter.setZKPRequest(requestId, re...\n      ISZERO \t\t\ter.setZKPRequest(requestId, re...\n      PUSH [tag] 349\t\t\ter.setZKPRequest(requestId, re...\n      JUMPI \t\t\ter.setZKPRequest(requestId, re...\n      RETURNDATASIZE \t\t\ter.setZKPRequest(requestId, re...\n      PUSH 0\t\t\ter.setZKPRequest(requestId, re...\n      DUP1 \t\t\ter.setZKPRequest(requestId, re...\n      RETURNDATACOPY \t\t\ter.setZKPRequest(requestId, re...\n      RETURNDATASIZE \t\t\ter.setZKPRequest(requestId, re...\n      PUSH 0\t\t\ter.setZKPRequest(requestId, re...\n      REVERT \t\t\ter.setZKPRequest(requestId, re...\n    tag 349\t\t\ter.setZKPRequest(requestId, re...\n      JUMPDEST \t\t\ter.setZKPRequest(requestId, re...\n      POP \t\t\ter.setZKPRequest(requestId, re...\n      POP \t\t\ter.setZKPRequest(requestId, re...\n      POP \t\t\ter.setZKPRequest(requestId, re...\n      POP \t\t\ter.setZKPRequest(requestId, re...\n      PUSH [tag] 350\t\t\tofRequestAndRole(tokenID, requ...\n      DUP6 \t\t\tD, requ\n      DUP13 \t\t\ttId, role\n      DUP7 \t\t\t\\r\\n  \n      DUP7 \t\t\t\\r\\n  \n      PUSH [tag] 351\t\t\tofRequestAndRole(token\n      JUMP \t\t\tofRequestAndRole(tokenID, requ...\n    tag 350\t\t\tofRequestAndRole(tokenID, requ...\n      JUMPDEST \t\t\tofRequestAndRole(tokenID, requ...\n      PUSH 40\t\t\tngCondition({\\r\\n            a...\n      MLOAD \t\t\tngCondition({\\r\\n            a...\n      DUP1 \t\t\tngCondition({\\r\\n            a...\n      PUSH 60\t\t\tngCondition({\\r\\n            a...\n      ADD \t\t\tngCondition({\\r\\n            a...\n      PUSH 40\t\t\tngCondition({\\r\\n            a...\n      MSTORE \t\t\tngCondition({\\r\\n            a...\n      DUP1 \t\t\tngCondition({\\r\\n            a...\n      DUP4 \t\t\tion.attri\n      DUP1 \t\t\tion.attribute,\\r\\n   \n      PUSH 0\t\t\tion.attribute,\\r\\n   \n      ADD \t\t\tion.attribute,\\r\\n   \n      SWAP1 \t\t\tion.attribute,\\r\\n   \n      PUSH [tag] 352\t\t\tion.attribute,\\r\\n   \n      SWAP2 \t\t\tion.attribute,\\r\\n   \n      SWAP1 \t\t\tion.attribute,\\r\\n   \n      PUSH [tag] 353\t\t\tion.attribute,\\r\\n   \n      JUMP \t\t\tion.attribute,\\r\\n   \n    tag 352\t\t\tion.attribute,\\r\\n   \n      JUMPDEST \t\t\tion.attribute,\\r\\n   \n      DUP1 \t\t\tngCondition({\\r\\n            a...\n      DUP1 \t\t\tngCondition({\\r\\n            a...\n      PUSH 1F\t\t\tngCondition({\\r\\n            a...\n      ADD \t\t\tngCondition({\\r\\n            a...\n      PUSH 20\t\t\tngCondition({\\r\\n            a...\n      DUP1 \t\t\tngCondition({\\r\\n            a...\n      SWAP2 \t\t\tngCondition({\\r\\n            a...\n      DIV \t\t\tngCondition({\\r\\n            a...\n      MUL \t\t\tngCondition({\\r\\n            a...\n      PUSH 20\t\t\tngCondition({\\r\\n            a...\n      ADD \t\t\tngCondition({\\r\\n            a...\n      PUSH 40\t\t\tngCondition({\\r\\n            a...\n      MLOAD \t\t\tngCondition({\\r\\n            a...\n      SWAP1 \t\t\tngCondition({\\r\\n            a...\n      DUP2 \t\t\tngCondition({\\r\\n            a...\n      ADD \t\t\tngCondition({\\r\\n            a...\n      PUSH 40\t\t\tngCondition({\\r\\n            a...\n      MSTORE \t\t\tngCondition({\\r\\n            a...\n      DUP1 \t\t\tngCondition({\\r\\n            a...\n      SWAP4 \t\t\tngCondition({\\r\\n            a...\n      SWAP3 \t\t\tngCondition({\\r\\n            a...\n      SWAP2 \t\t\tngCondition({\\r\\n            a...\n      SWAP1 \t\t\tngCondition({\\r\\n            a...\n      DUP2 \t\t\tngCondition({\\r\\n            a...\n      DUP2 \t\t\tngCondition({\\r\\n            a...\n      MSTORE \t\t\tngCondition({\\r\\n            a...\n      PUSH 20\t\t\tngCondition({\\r\\n            a...\n      ADD \t\t\tngCondition({\\r\\n            a...\n      DUP4 \t\t\tngCondition({\\r\\n            a...\n      DUP4 \t\t\tngCondition({\\r\\n            a...\n      DUP1 \t\t\tngCondition({\\r\\n            a...\n      DUP3 \t\t\tngCondition({\\r\\n            a...\n      DUP5 \t\t\tngCondition({\\r\\n            a...\n      CALLDATACOPY \t\t\tngCondition({\\r\\n            a...\n      PUSH 0\t\t\tngCondition({\\r\\n            a...\n      DUP2 \t\t\tngCondition({\\r\\n            a...\n      DUP5 \t\t\tngCondition({\\r\\n            a...\n      ADD \t\t\tngCondition({\\r\\n            a...\n      MSTORE \t\t\tngCondition({\\r\\n            a...\n      PUSH 1F\t\t\tngCondition({\\r\\n            a...\n      NOT \t\t\tngCondition({\\r\\n            a...\n      PUSH 1F\t\t\tngCondition({\\r\\n            a...\n      DUP3 \t\t\tngCondition({\\r\\n            a...\n      ADD \t\t\tngCondition({\\r\\n            a...\n      AND \t\t\tngCondition({\\r\\n            a...\n      SWAP1 \t\t\tngCondition({\\r\\n            a...\n      POP \t\t\tngCondition({\\r\\n            a...\n      DUP1 \t\t\tngCondition({\\r\\n            a...\n      DUP4 \t\t\tngCondition({\\r\\n            a...\n      ADD \t\t\tngCondition({\\r\\n            a...\n      SWAP3 \t\t\tngCondition({\\r\\n            a...\n      POP \t\t\tngCondition({\\r\\n            a...\n      POP \t\t\tngCondition({\\r\\n            a...\n      POP \t\t\tngCondition({\\r\\n            a...\n      POP \t\t\tngCondition({\\r\\n            a...\n      POP \t\t\tngCondition({\\r\\n            a...\n      POP \t\t\tngCondition({\\r\\n            a...\n      POP \t\t\tngCondition({\\r\\n            a...\n      DUP2 \t\t\tngCondition({\\r\\n            a...\n      MSTORE \t\t\tngCondition({\\r\\n            a...\n      PUSH 20\t\t\tngCondition({\\r\\n            a...\n      ADD \t\t\tngCondition({\\r\\n            a...\n      DUP4 \t\t\tion.opera\n      DUP1 \t\t\tion.operatorStr,\\r\\n   \n      PUSH 20\t\t\tion.operatorStr,\\r\\n   \n      ADD \t\t\tion.operatorStr,\\r\\n   \n      SWAP1 \t\t\tion.operatorStr,\\r\\n   \n      PUSH [tag] 354\t\t\tion.operatorStr,\\r\\n   \n      SWAP2 \t\t\tion.operatorStr,\\r\\n   \n      SWAP1 \t\t\tion.operatorStr,\\r\\n   \n      PUSH [tag] 353\t\t\tion.operatorStr,\\r\\n   \n      JUMP \t\t\tion.operatorStr,\\r\\n   \n    tag 354\t\t\tion.operatorStr,\\r\\n   \n      JUMPDEST \t\t\tion.operatorStr,\\r\\n   \n      DUP1 \t\t\tngCondition({\\r\\n            a...\n      DUP1 \t\t\tngCondition({\\r\\n            a...\n      PUSH 1F\t\t\tngCondition({\\r\\n            a...\n      ADD \t\t\tngCondition({\\r\\n            a...\n      PUSH 20\t\t\tngCondition({\\r\\n            a...\n      DUP1 \t\t\tngCondition({\\r\\n            a...\n      SWAP2 \t\t\tngCondition({\\r\\n            a...\n      DIV \t\t\tngCondition({\\r\\n            a...\n      MUL \t\t\tngCondition({\\r\\n            a...\n      PUSH 20\t\t\tngCondition({\\r\\n            a...\n      ADD \t\t\tngCondition({\\r\\n            a...\n      PUSH 40\t\t\tngCondition({\\r\\n            a...\n      MLOAD \t\t\tngCondition({\\r\\n            a...\n      SWAP1 \t\t\tngCondition({\\r\\n            a...\n      DUP2 \t\t\tngCondition({\\r\\n            a...\n      ADD \t\t\tngCondition({\\r\\n            a...\n      PUSH 40\t\t\tngCondition({\\r\\n            a...\n      MSTORE \t\t\tngCondition({\\r\\n            a...\n      DUP1 \t\t\tngCondition({\\r\\n            a...\n      SWAP4 \t\t\tngCondition({\\r\\n            a...\n      SWAP3 \t\t\tngCondition({\\r\\n            a...\n      SWAP2 \t\t\tngCondition({\\r\\n            a...\n      SWAP1 \t\t\tngCondition({\\r\\n            a...\n      DUP2 \t\t\tngCondition({\\r\\n            a...\n      DUP2 \t\t\tngCondition({\\r\\n            a...\n      MSTORE \t\t\tngCondition({\\r\\n            a...\n      PUSH 20\t\t\tngCondition({\\r\\n            a...\n      ADD \t\t\tngCondition({\\r\\n            a...\n      DUP4 \t\t\tngCondition({\\r\\n            a...\n      DUP4 \t\t\tngCondition({\\r\\n            a...\n      DUP1 \t\t\tngCondition({\\r\\n            a...\n      DUP3 \t\t\tngCondition({\\r\\n            a...\n      DUP5 \t\t\tngCondition({\\r\\n            a...\n      CALLDATACOPY \t\t\tngCondition({\\r\\n            a...\n      PUSH 0\t\t\tngCondition({\\r\\n            a...\n      DUP2 \t\t\tngCondition({\\r\\n            a...\n      DUP5 \t\t\tngCondition({\\r\\n            a...\n      ADD \t\t\tngCondition({\\r\\n            a...\n      MSTORE \t\t\tngCondition({\\r\\n            a...\n      PUSH 1F\t\t\tngCondition({\\r\\n            a...\n      NOT \t\t\tngCondition({\\r\\n            a...\n      PUSH 1F\t\t\tngCondition({\\r\\n            a...\n      DUP3 \t\t\tngCondition({\\r\\n            a...\n      ADD \t\t\tngCondition({\\r\\n            a...\n      AND \t\t\tngCondition({\\r\\n            a...\n      SWAP1 \t\t\tngCondition({\\r\\n            a...\n      POP \t\t\tngCondition({\\r\\n            a...\n      DUP1 \t\t\tngCondition({\\r\\n            a...\n      DUP4 \t\t\tngCondition({\\r\\n            a...\n      ADD \t\t\tngCondition({\\r\\n            a...\n      SWAP3 \t\t\tngCondition({\\r\\n            a...\n      POP \t\t\tngCondition({\\r\\n            a...\n      POP \t\t\tngCondition({\\r\\n            a...\n      POP \t\t\tngCondition({\\r\\n            a...\n      POP \t\t\tngCondition({\\r\\n            a...\n      POP \t\t\tngCondition({\\r\\n            a...\n      POP \t\t\tngCondition({\\r\\n            a...\n      POP \t\t\tngCondition({\\r\\n            a...\n      DUP2 \t\t\tngCondition({\\r\\n            a...\n      MSTORE \t\t\tngCondition({\\r\\n            a...\n      PUSH 20\t\t\tngCondition({\\r\\n            a...\n      ADD \t\t\tngCondition({\\r\\n            a...\n      DUP4 \t\t\tion.value\n      DUP1 \t\t\tion.value\\r\\n    \n      PUSH 40\t\t\tion.value\\r\\n    \n      ADD \t\t\tion.value\\r\\n    \n      SWAP1 \t\t\tion.value\\r\\n    \n      PUSH [tag] 355\t\t\tion.value\\r\\n    \n      SWAP2 \t\t\tion.value\\r\\n    \n      SWAP1 \t\t\tion.value\\r\\n    \n      PUSH [tag] 353\t\t\tion.value\\r\\n    \n      JUMP \t\t\tion.value\\r\\n    \n    tag 355\t\t\tion.value\\r\\n    \n      JUMPDEST \t\t\tion.value\\r\\n    \n      DUP1 \t\t\tngCondition({\\r\\n            a...\n      DUP1 \t\t\tngCondition({\\r\\n            a...\n      PUSH 1F\t\t\tngCondition({\\r\\n            a...\n      ADD \t\t\tngCondition({\\r\\n            a...\n      PUSH 20\t\t\tngCondition({\\r\\n            a...\n      DUP1 \t\t\tngCondition({\\r\\n            a...\n      SWAP2 \t\t\tngCondition({\\r\\n            a...\n      DIV \t\t\tngCondition({\\r\\n            a...\n      MUL \t\t\tngCondition({\\r\\n            a...\n      PUSH 20\t\t\tngCondition({\\r\\n            a...\n      ADD \t\t\tngCondition({\\r\\n            a...\n      PUSH 40\t\t\tngCondition({\\r\\n            a...\n      MLOAD \t\t\tngCondition({\\r\\n            a...\n      SWAP1 \t\t\tngCondition({\\r\\n            a...\n      DUP2 \t\t\tngCondition({\\r\\n            a...\n      ADD \t\t\tngCondition({\\r\\n            a...\n      PUSH 40\t\t\tngCondition({\\r\\n            a...\n      MSTORE \t\t\tngCondition({\\r\\n            a...\n      DUP1 \t\t\tngCondition({\\r\\n            a...\n      SWAP4 \t\t\tngCondition({\\r\\n            a...\n      SWAP3 \t\t\tngCondition({\\r\\n            a...\n      SWAP2 \t\t\tngCondition({\\r\\n            a...\n      SWAP1 \t\t\tngCondition({\\r\\n            a...\n      DUP2 \t\t\tngCondition({\\r\\n            a...\n      DUP2 \t\t\tngCondition({\\r\\n            a...\n      MSTORE \t\t\tngCondition({\\r\\n            a...\n      PUSH 20\t\t\tngCondition({\\r\\n            a...\n      ADD \t\t\tngCondition({\\r\\n            a...\n      DUP4 \t\t\tngCondition({\\r\\n            a...\n      DUP4 \t\t\tngCondition({\\r\\n            a...\n      DUP1 \t\t\tngCondition({\\r\\n            a...\n      DUP3 \t\t\tngCondition({\\r\\n            a...\n      DUP5 \t\t\tngCondition({\\r\\n            a...\n      CALLDATACOPY \t\t\tngCondition({\\r\\n            a...\n      PUSH 0\t\t\tngCondition({\\r\\n            a...\n      DUP2 \t\t\tngCondition({\\r\\n            a...\n      DUP5 \t\t\tngCondition({\\r\\n            a...\n      ADD \t\t\tngCondition({\\r\\n            a...\n      MSTORE \t\t\tngCondition({\\r\\n            a...\n      PUSH 1F\t\t\tngCondition({\\r\\n            a...\n      NOT \t\t\tngCondition({\\r\\n            a...\n      PUSH 1F\t\t\tngCondition({\\r\\n            a...\n      DUP3 \t\t\tngCondition({\\r\\n            a...\n      ADD \t\t\tngCondition({\\r\\n            a...\n      AND \t\t\tngCondition({\\r\\n            a...\n      SWAP1 \t\t\tngCondition({\\r\\n            a...\n      POP \t\t\tngCondition({\\r\\n            a...\n      DUP1 \t\t\tngCondition({\\r\\n            a...\n      DUP4 \t\t\tngCondition({\\r\\n            a...\n      ADD \t\t\tngCondition({\\r\\n            a...\n      SWAP3 \t\t\tngCondition({\\r\\n            a...\n      POP \t\t\tngCondition({\\r\\n            a...\n      POP \t\t\tngCondition({\\r\\n            a...\n      POP \t\t\tngCondition({\\r\\n            a...\n      POP \t\t\tngCondition({\\r\\n            a...\n      POP \t\t\tngCondition({\\r\\n            a...\n      POP \t\t\tngCondition({\\r\\n            a...\n      POP \t\t\tngCondition({\\r\\n            a...\n      DUP2 \t\t\tngCondition({\\r\\n            a...\n      MSTORE \t\t\tngCondition({\\r\\n            a...\n      POP \t\t\tngCondition({\\r\\n            a...\n      PUSH 9\t\t\tngConditions[token\n      PUSH 0\t\t\tngConditions[tokenID][msg.s\n      DUP8 \t\t\tD][msg.\n      DUP2 \t\t\tngConditions[tokenID][msg.s\n      MSTORE \t\t\tngConditions[tokenID][msg.s\n      PUSH 20\t\t\tngConditions[tokenID][msg.s\n      ADD \t\t\tngConditions[tokenID][msg.s\n      SWAP1 \t\t\tngConditions[tokenID][msg.s\n      DUP2 \t\t\tngConditions[tokenID][msg.s\n      MSTORE \t\t\tngConditions[tokenID][msg.s\n      PUSH 20\t\t\tngConditions[tokenID][msg.s\n      ADD \t\t\tngConditions[tokenID][msg.s\n      PUSH 0\t\t\tngConditions[tokenID][msg.s\n      KECCAK256 \t\t\tngConditions[tokenID][msg.s\n      PUSH 0\t\t\tngConditions[tokenID][msg.send...\n      CALLER \t\t\tnder][requ\n      PUSH FFFFFFFFFFFFFFFFFFFFFFFFFFFFFFFFFFFFFFFF\t\t\tngConditions[tokenID][msg.send...\n      AND \t\t\tngConditions[tokenID][msg.send...\n      PUSH FFFFFFFFFFFFFFFFFFFFFFFFFFFFFFFFFFFFFFFF\t\t\tngConditions[tokenID][msg.send...\n      AND \t\t\tngConditions[tokenID][msg.send...\n      DUP2 \t\t\tngConditions[tokenID][msg.send...\n      MSTORE \t\t\tngConditions[tokenID][msg.send...\n      PUSH 20\t\t\tngConditions[tokenID][msg.send...\n      ADD \t\t\tngConditions[tokenID][msg.send...\n      SWAP1 \t\t\tngConditions[tokenID][msg.send...\n      DUP2 \t\t\tngConditions[tokenID][msg.send...\n      MSTORE \t\t\tngConditions[tokenID][msg.send...\n      PUSH 20\t\t\tngConditions[tokenID][msg.send...\n      ADD \t\t\tngConditions[tokenID][msg.send...\n      PUSH 0\t\t\tngConditions[tokenID][msg.send...\n      KECCAK256 \t\t\tngConditions[tokenID][msg.send...\n      PUSH 0\t\t\tngConditions[tokenID][msg.send...\n      DUP14 \t\t\ttId] = Sp\n      PUSH FFFFFFFFFFFFFFFF\t\t\tngConditions[tokenID][msg.send...\n      AND \t\t\tngConditions[tokenID][msg.send...\n      PUSH FFFFFFFFFFFFFFFF\t\t\tngConditions[tokenID][msg.send...\n      AND \t\t\tngConditions[tokenID][msg.send...\n      DUP2 \t\t\tngConditions[tokenID][msg.send...\n      MSTORE \t\t\tngConditions[tokenID][msg.send...\n      PUSH 20\t\t\tngConditions[tokenID][msg.send...\n      ADD \t\t\tngConditions[tokenID][msg.send...\n      SWAP1 \t\t\tngConditions[tokenID][msg.send...\n      DUP2 \t\t\tngConditions[tokenID][msg.send...\n      MSTORE \t\t\tngConditions[tokenID][msg.send...\n      PUSH 20\t\t\tngConditions[tokenID][msg.send...\n      ADD \t\t\tngConditions[tokenID][msg.send...\n      PUSH 0\t\t\tngConditions[tokenID][msg.send...\n      KECCAK256 \t\t\tngConditions[tokenID][msg.send...\n      PUSH 0\t\t\tngConditions[tokenID][msg.send...\n      DUP3 \t\t\tngConditions[tokenID][msg.send...\n      ADD \t\t\tngConditions[tokenID][msg.send...\n      MLOAD \t\t\tngConditions[tokenID][msg.send...\n      DUP2 \t\t\tngConditions[tokenID][msg.send...\n      PUSH 0\t\t\tngConditions[tokenID][msg.send...\n      ADD \t\t\tngConditions[tokenID][msg.send...\n      SWAP1 \t\t\tngConditions[tokenID][msg.send...\n      DUP2 \t\t\tngConditions[tokenID][msg.send...\n      PUSH [tag] 356\t\t\tngConditions[tokenID][msg.send...\n      SWAP2 \t\t\tngConditions[tokenID][msg.send...\n      SWAP1 \t\t\tngConditions[tokenID][msg.send...\n      PUSH [tag] 357\t\t\tngConditions[tokenID][msg.send...\n      JUMP \t\t\tngConditions[tokenID][msg.send...\n    tag 356\t\t\tngConditions[tokenID][msg.send...\n      JUMPDEST \t\t\tngConditions[tokenID][msg.send...\n      POP \t\t\tngConditions[tokenID][msg.send...\n      PUSH 20\t\t\tngConditions[tokenID][msg.send...\n      DUP3 \t\t\tngConditions[tokenID][msg.send...\n      ADD \t\t\tngConditions[tokenID][msg.send...\n      MLOAD \t\t\tngConditions[tokenID][msg.send...\n      DUP2 \t\t\tngConditions[tokenID][msg.send...\n      PUSH 1\t\t\tngConditions[tokenID][msg.send...\n      ADD \t\t\tngConditions[tokenID][msg.send...\n      SWAP1 \t\t\tngConditions[tokenID][msg.send...\n      DUP2 \t\t\tngConditions[tokenID][msg.send...\n      PUSH [tag] 358\t\t\tngConditions[tokenID][msg.send...\n      SWAP2 \t\t\tngConditions[tokenID][msg.send...\n      SWAP1 \t\t\tngConditions[tokenID][msg.send...\n      PUSH [tag] 357\t\t\tngConditions[tokenID][msg.send...\n      JUMP \t\t\tngConditions[tokenID][msg.send...\n    tag 358\t\t\tngConditions[tokenID][msg.send...\n      JUMPDEST \t\t\tngConditions[tokenID][msg.send...\n      POP \t\t\tngConditions[tokenID][msg.send...\n      PUSH 40\t\t\tngConditions[tokenID][msg.send...\n      DUP3 \t\t\tngConditions[tokenID][msg.send...\n      ADD \t\t\tngConditions[tokenID][msg.send...\n      MLOAD \t\t\tngConditions[tokenID][msg.send...\n      DUP2 \t\t\tngConditions[tokenID][msg.send...\n      PUSH 2\t\t\tngConditions[tokenID][msg.send...\n      ADD \t\t\tngConditions[tokenID][msg.send...\n      SWAP1 \t\t\tngConditions[tokenID][msg.send...\n      DUP2 \t\t\tngConditions[tokenID][msg.send...\n      PUSH [tag] 359\t\t\tngConditions[tokenID][msg.send...\n      SWAP2 \t\t\tngConditions[tokenID][msg.send...\n      SWAP1 \t\t\tngConditions[tokenID][msg.send...\n      PUSH [tag] 357\t\t\tngConditions[tokenID][msg.send...\n      JUMP \t\t\tngConditions[tokenID][msg.send...\n    tag 359\t\t\tngConditions[tokenID][msg.send...\n      JUMPDEST \t\t\tngConditions[tokenID][msg.send...\n      POP \t\t\tngConditions[tokenID][msg.send...\n      SWAP1 \t\t\tngConditions[tokenID][msg.send...\n      POP \t\t\tngConditions[tokenID][msg.send...\n      POP \t\t\tngConditions[tokenID][msg.send...\n      POP \t\t\t     // Only allow if caller o...\n      POP \t\t\ton addProofRequest_VerifierAnd...\n      POP \t\t\ton addProofRequest_VerifierAnd...\n      POP \t\t\ton addProofRequest_VerifierAnd...\n      POP \t\t\ton addProofRequest_VerifierAnd...\n      POP \t\t\ton addProofRequest_VerifierAnd...\n      POP \t\t\ton addProofRequest_VerifierAnd...\n      POP \t\t\ton addProofRequest_VerifierAnd...\n      POP \t\t\ton addProofRequest_VerifierAnd...\n      POP \t\t\ton addProofRequest_VerifierAnd...\n      POP \t\t\ton addProofRequest_VerifierAnd...\n      JUMP \t\t\ton addProofRequest_VerifierAnd...\n    tag 96\t\t\tfunction allTokenIDs() externa...\n      JUMPDEST \t\t\tfunction allTokenIDs() externa...\n      PUSH 60\t\t\tuint256[] memory\n      PUSH [tag] 361\t\t\t_allTokenIDs.values()\n      PUSH 5\t\t\t_allTokenIDs\n      PUSH [tag] 187\t\t\t_allTokenIDs.values\n      JUMP \t\t\t_allTokenIDs.values()\n    tag 361\t\t\t_allTokenIDs.values()\n      JUMPDEST \t\t\t_allTokenIDs.values()\n      SWAP1 \t\t\treturn _allTokenIDs.values()\n      POP \t\t\treturn _allTokenIDs.values()\n      SWAP1 \t\t\tfunction allTokenIDs() externa...\n      JUMP \t\t\tfunction allTokenIDs() externa...\n    tag 99\t\t\t removeAdmin(address _admin) p...\n      JUMPDEST \t\t\t removeAdmin(address _admin) p...\n      PUSH 0\t\t\t{\\r\\n    \n      PUSH 3\t\t\tns.len\n      PUSH 0\t\t\tns.len\n      SWAP1 \t\t\tns.len\n      SLOAD \t\t\tns.len\n      SWAP1 \t\t\tns.len\n      PUSH 100\t\t\tns.len\n      EXP \t\t\tns.len\n      SWAP1 \t\t\tns.len\n      DIV \t\t\tns.len\n      PUSH FFFFFFFFFFFFFFFFFFFFFFFFFFFFFFFFFFFFFFFF\t\t\tns.len\n      AND \t\t\tns.len\n      SWAP1 \t\t\t = admins.len\n      POP \t\t\t = admins.len\n      SWAP1 \t\t\t removeAdmin(address _admin) p...\n      JUMP \t\t\t removeAdmin(address _admin) p...\n    tag 104\t\t\tg(uint256 => mapping(address =...\n      JUMPDEST \t\t\tg(uint256 => mapping(address =...\n      PUSH 8\t\t\tg(uint256 => mapping(address =...\n      PUSH 20\t\t\tg(uint256 => mapping(address =...\n      MSTORE \t\t\tg(uint256 => mapping(address =...\n      DUP3 \t\t\tg(uint256 => mapping(address =...\n      PUSH 0\t\t\tg(uint256 => mapping(address =...\n      MSTORE \t\t\tg(uint256 => mapping(address =...\n      PUSH 40\t\t\tg(uint256 => mapping(address =...\n      PUSH 0\t\t\tg(uint256 => mapping(address =...\n      KECCAK256 \t\t\tg(uint256 => mapping(address =...\n      PUSH 20\t\t\tg(uint256 => mapping(address =...\n      MSTORE \t\t\tg(uint256 => mapping(address =...\n      DUP2 \t\t\tg(uint256 => mapping(address =...\n      PUSH 0\t\t\tg(uint256 => mapping(address =...\n      MSTORE \t\t\tg(uint256 => mapping(address =...\n      PUSH 40\t\t\tg(uint256 => mapping(address =...\n      PUSH 0\t\t\tg(uint256 => mapping(address =...\n      KECCAK256 \t\t\tg(uint256 => mapping(address =...\n      PUSH 20\t\t\tg(uint256 => mapping(address =...\n      MSTORE \t\t\tg(uint256 => mapping(address =...\n      DUP1 \t\t\tg(uint256 => mapping(address =...\n      PUSH 0\t\t\tg(uint256 => mapping(address =...\n      MSTORE \t\t\tg(uint256 => mapping(address =...\n      PUSH 40\t\t\tg(uint256 => mapping(address =...\n      PUSH 0\t\t\tg(uint256 => mapping(address =...\n      KECCAK256 \t\t\tg(uint256 => mapping(address =...\n      PUSH 0\t\t\tg(uint256 => mapping(address =...\n      SWAP3 \t\t\tg(uint256 => mapping(address =...\n      POP \t\t\tg(uint256 => mapping(address =...\n      SWAP3 \t\t\tg(uint256 => mapping(address =...\n      POP \t\t\tg(uint256 => mapping(address =...\n      POP \t\t\tg(uint256 => mapping(address =...\n      POP \t\t\tg(uint256 => mapping(address =...\n      DUP1 \t\t\tg(uint256 => mapping(address =...\n      SLOAD \t\t\tg(uint256 => mapping(address =...\n      PUSH [tag] 363\t\t\tg(uint256 => mapping(address =...\n      SWAP1 \t\t\tg(uint256 => mapping(address =...\n      PUSH [tag] 149\t\t\tg(uint256 => mapping(address =...\n      JUMP \t\t\tg(uint256 => mapping(address =...\n    tag 363\t\t\tg(uint256 => mapping(address =...\n      JUMPDEST \t\t\tg(uint256 => mapping(address =...\n      DUP1 \t\t\tg(uint256 => mapping(address =...\n      PUSH 1F\t\t\tg(uint256 => mapping(address =...\n      ADD \t\t\tg(uint256 => mapping(address =...\n      PUSH 20\t\t\tg(uint256 => mapping(address =...\n      DUP1 \t\t\tg(uint256 => mapping(address =...\n      SWAP2 \t\t\tg(uint256 => mapping(address =...\n      DIV \t\t\tg(uint256 => mapping(address =...\n      MUL \t\t\tg(uint256 => mapping(address =...\n      PUSH 20\t\t\tg(uint256 => mapping(address =...\n      ADD \t\t\tg(uint256 => mapping(address =...\n      PUSH 40\t\t\tg(uint256 => mapping(address =...\n      MLOAD \t\t\tg(uint256 => mapping(address =...\n      SWAP1 \t\t\tg(uint256 => mapping(address =...\n      DUP2 \t\t\tg(uint256 => mapping(address =...\n      ADD \t\t\tg(uint256 => mapping(address =...\n      PUSH 40\t\t\tg(uint256 => mapping(address =...\n      MSTORE \t\t\tg(uint256 => mapping(address =...\n      DUP1 \t\t\tg(uint256 => mapping(address =...\n      SWAP3 \t\t\tg(uint256 => mapping(address =...\n      SWAP2 \t\t\tg(uint256 => mapping(address =...\n      SWAP1 \t\t\tg(uint256 => mapping(address =...\n      DUP2 \t\t\tg(uint256 => mapping(address =...\n      DUP2 \t\t\tg(uint256 => mapping(address =...\n      MSTORE \t\t\tg(uint256 => mapping(address =...\n      PUSH 20\t\t\tg(uint256 => mapping(address =...\n      ADD \t\t\tg(uint256 => mapping(address =...\n      DUP3 \t\t\tg(uint256 => mapping(address =...\n      DUP1 \t\t\tg(uint256 => mapping(address =...\n      SLOAD \t\t\tg(uint256 => mapping(address =...\n      PUSH [tag] 364\t\t\tg(uint256 => mapping(address =...\n      SWAP1 \t\t\tg(uint256 => mapping(address =...\n      PUSH [tag] 149\t\t\tg(uint256 => mapping(address =...\n      JUMP \t\t\tg(uint256 => mapping(address =...\n    tag 364\t\t\tg(uint256 => mapping(address =...\n      JUMPDEST \t\t\tg(uint256 => mapping(address =...\n      DUP1 \t\t\tg(uint256 => mapping(address =...\n      ISZERO \t\t\tg(uint256 => mapping(address =...\n      PUSH [tag] 365\t\t\tg(uint256 => mapping(address =...\n      JUMPI \t\t\tg(uint256 => mapping(address =...\n      DUP1 \t\t\tg(uint256 => mapping(address =...\n      PUSH 1F\t\t\tg(uint256 => mapping(address =...\n      LT \t\t\tg(uint256 => mapping(address =...\n      PUSH [tag] 366\t\t\tg(uint256 => mapping(address =...\n      JUMPI \t\t\tg(uint256 => mapping(address =...\n      PUSH 100\t\t\tg(uint256 => mapping(address =...\n      DUP1 \t\t\tg(uint256 => mapping(address =...\n      DUP4 \t\t\tg(uint256 => mapping(address =...\n      SLOAD \t\t\tg(uint256 => mapping(address =...\n      DIV \t\t\tg(uint256 => mapping(address =...\n      MUL \t\t\tg(uint256 => mapping(address =...\n      DUP4 \t\t\tg(uint256 => mapping(address =...\n      MSTORE \t\t\tg(uint256 => mapping(address =...\n      SWAP2 \t\t\tg(uint256 => mapping(address =...\n      PUSH 20\t\t\tg(uint256 => mapping(address =...\n      ADD \t\t\tg(uint256 => mapping(address =...\n      SWAP2 \t\t\tg(uint256 => mapping(address =...\n      PUSH [tag] 365\t\t\tg(uint256 => mapping(address =...\n      JUMP \t\t\tg(uint256 => mapping(address =...\n    tag 366\t\t\tg(uint256 => mapping(address =...\n      JUMPDEST \t\t\tg(uint256 => mapping(address =...\n      DUP3 \t\t\tg(uint256 => mapping(address =...\n      ADD \t\t\tg(uint256 => mapping(address =...\n      SWAP2 \t\t\tg(uint256 => mapping(address =...\n      SWAP1 \t\t\tg(uint256 => mapping(address =...\n      PUSH 0\t\t\tg(uint256 => mapping(address =...\n      MSTORE \t\t\tg(uint256 => mapping(address =...\n      PUSH 20\t\t\tg(uint256 => mapping(address =...\n      PUSH 0\t\t\tg(uint256 => mapping(address =...\n      KECCAK256 \t\t\tg(uint256 => mapping(address =...\n      SWAP1 \t\t\tg(uint256 => mapping(address =...\n    tag 367\t\t\tg(uint256 => mapping(address =...\n      JUMPDEST \t\t\tg(uint256 => mapping(address =...\n      DUP2 \t\t\tg(uint256 => mapping(address =...\n      SLOAD \t\t\tg(uint256 => mapping(address =...\n      DUP2 \t\t\tg(uint256 => mapping(address =...\n      MSTORE \t\t\tg(uint256 => mapping(address =...\n      SWAP1 \t\t\tg(uint256 => mapping(address =...\n      PUSH 1\t\t\tg(uint256 => mapping(address =...\n      ADD \t\t\tg(uint256 => mapping(address =...\n      SWAP1 \t\t\tg(uint256 => mapping(address =...\n      PUSH 20\t\t\tg(uint256 => mapping(address =...\n      ADD \t\t\tg(uint256 => mapping(address =...\n      DUP1 \t\t\tg(uint256 => mapping(address =...\n      DUP4 \t\t\tg(uint256 => mapping(address =...\n      GT \t\t\tg(uint256 => mapping(address =...\n      PUSH [tag] 367\t\t\tg(uint256 => mapping(address =...\n      JUMPI \t\t\tg(uint256 => mapping(address =...\n      DUP3 \t\t\tg(uint256 => mapping(address =...\n      SWAP1 \t\t\tg(uint256 => mapping(address =...\n      SUB \t\t\tg(uint256 => mapping(address =...\n      PUSH 1F\t\t\tg(uint256 => mapping(address =...\n      AND \t\t\tg(uint256 => mapping(address =...\n      DUP3 \t\t\tg(uint256 => mapping(address =...\n      ADD \t\t\tg(uint256 => mapping(address =...\n      SWAP2 \t\t\tg(uint256 => mapping(address =...\n    tag 365\t\t\tg(uint256 => mapping(address =...\n      JUMPDEST \t\t\tg(uint256 => mapping(address =...\n      POP \t\t\tg(uint256 => mapping(address =...\n      POP \t\t\tg(uint256 => mapping(address =...\n      POP \t\t\tg(uint256 => mapping(address =...\n      POP \t\t\tg(uint256 => mapping(address =...\n      POP \t\t\tg(uint256 => mapping(address =...\n      DUP2 \t\t\tg(uint256 => mapping(address =...\n      JUMP \t\t\tg(uint256 => mapping(address =...\n    tag 109\t\t\t  }\\r\\n\\r\\n    // Mapping from...\n      JUMPDEST \t\t\t  }\\r\\n\\r\\n    // Mapping from...\n      PUSH [tag] 369\t\t\tition\\r\\n    // tokenID => (mo...\n      PUSH [tag] 370\t\t\tID => (money\n      PUSH [tag] 371\t\t\tID => (mon\n      JUMP \t\t\tID => (money\n    tag 370\t\t\tID => (money\n      JUMPDEST \t\t\tID => (money\n      DUP4 \t\t\tnerAddre\n      DUP4 \t\t\t => (pro\n      PUSH [tag] 372\t\t\tition\\r\\n    // toke\n      JUMP \t\t\tition\\r\\n    // tokenID => (mo...\n    tag 369\t\t\tition\\r\\n    // tokenID => (mo...\n      JUMPDEST \t\t\tition\\r\\n    // tokenID => (mo...\n      POP \t\t\t  }\\r\\n\\r\\n    // Mapping from...\n      POP \t\t\t  }\\r\\n\\r\\n    // Mapping from...\n      JUMP \t\t\t  }\\r\\n\\r\\n    // Mapping from...\n    tag 113\t\t\ton getSpendingConditions(uint2...\n      JUMPDEST \t\t\ton getSpendingConditions(uint2...\n      PUSH 60\t\t\t[] memory, Spen\n      DUP1 \t\t\tngCondition[] memory) {\\r\\n \n      PUSH 0\t\t\t[] memory ids = pro\n      PUSH A\t\t\tequestIDs;\\r\\n   \n      DUP1 \t\t\t[] memory ids = proofRequestID...\n      SLOAD \t\t\t[] memory ids = proofRequestID...\n      DUP1 \t\t\t[] memory ids = proofRequestID...\n      PUSH 20\t\t\t[] memory ids = proofRequestID...\n      MUL \t\t\t[] memory ids = proofRequestID...\n      PUSH 20\t\t\t[] memory ids = proofRequestID...\n      ADD \t\t\t[] memory ids = proofRequestID...\n      PUSH 40\t\t\t[] memory ids = proofRequestID...\n      MLOAD \t\t\t[] memory ids = proofRequestID...\n      SWAP1 \t\t\t[] memory ids = proofRequestID...\n      DUP2 \t\t\t[] memory ids = proofRequestID...\n      ADD \t\t\t[] memory ids = proofRequestID...\n      PUSH 40\t\t\t[] memory ids = proofRequestID...\n      MSTORE \t\t\t[] memory ids = proofRequestID...\n      DUP1 \t\t\t[] memory ids = proofRequestID...\n      SWAP3 \t\t\t[] memory ids = proofRequestID...\n      SWAP2 \t\t\t[] memory ids = proofRequestID...\n      SWAP1 \t\t\t[] memory ids = proofRequestID...\n      DUP2 \t\t\t[] memory ids = proofRequestID...\n      DUP2 \t\t\t[] memory ids = proofRequestID...\n      MSTORE \t\t\t[] memory ids = proofRequestID...\n      PUSH 20\t\t\t[] memory ids = proofRequestID...\n      ADD \t\t\t[] memory ids = proofRequestID...\n      DUP3 \t\t\t[] memory ids = proofRequestID...\n      DUP1 \t\t\t[] memory ids = proofRequestID...\n      SLOAD \t\t\t[] memory ids = proofRequestID...\n      DUP1 \t\t\t[] memory ids = proofRequestID...\n      ISZERO \t\t\t[] memory ids = proofRequestID...\n      PUSH [tag] 374\t\t\t[] memory ids = proofRequestID...\n      JUMPI \t\t\t[] memory ids = proofRequestID...\n      PUSH 20\t\t\t[] memory ids = proofRequestID...\n      MUL \t\t\t[] memory ids = proofRequestID...\n      DUP3 \t\t\t[] memory ids = proofRequestID...\n      ADD \t\t\t[] memory ids = proofRequestID...\n      SWAP2 \t\t\t[] memory ids = proofRequestID...\n      SWAP1 \t\t\t[] memory ids = proofRequestID...\n      PUSH 0\t\t\t[] memory ids = proofRequestID...\n      MSTORE \t\t\t[] memory ids = proofRequestID...\n      PUSH 20\t\t\t[] memory ids = proofRequestID...\n      PUSH 0\t\t\t[] memory ids = proofRequestID...\n      KECCAK256 \t\t\t[] memory ids = proofRequestID...\n      SWAP1 \t\t\t[] memory ids = proofRequestID...\n      PUSH 0\t\t\t[] memory ids = proofRequestID...\n      SWAP1 \t\t\t[] memory ids = proofRequestID...\n    tag 375\t\t\t[] memory ids = proofRequestID...\n      JUMPDEST \t\t\t[] memory ids = proofRequestID...\n      DUP3 \t\t\t[] memory ids = proofRequestID...\n      DUP3 \t\t\t[] memory ids = proofRequestID...\n      SWAP1 \t\t\t[] memory ids = proofRequestID...\n      SLOAD \t\t\t[] memory ids = proofRequestID...\n      SWAP1 \t\t\t[] memory ids = proofRequestID...\n      PUSH 100\t\t\t[] memory ids = proofRequestID...\n      EXP \t\t\t[] memory ids = proofRequestID...\n      SWAP1 \t\t\t[] memory ids = proofRequestID...\n      DIV \t\t\t[] memory ids = proofRequestID...\n      PUSH FFFFFFFFFFFFFFFF\t\t\t[] memory ids = proofRequestID...\n      AND \t\t\t[] memory ids = proofRequestID...\n      PUSH FFFFFFFFFFFFFFFF\t\t\t[] memory ids = proofRequestID...\n      AND \t\t\t[] memory ids = proofRequestID...\n      DUP2 \t\t\t[] memory ids = proofRequestID...\n      MSTORE \t\t\t[] memory ids = proofRequestID...\n      PUSH 20\t\t\t[] memory ids = proofRequestID...\n      ADD \t\t\t[] memory ids = proofRequestID...\n      SWAP1 \t\t\t[] memory ids = proofRequestID...\n      PUSH 8\t\t\t[] memory ids = proofRequestID...\n      ADD \t\t\t[] memory ids = proofRequestID...\n      SWAP1 \t\t\t[] memory ids = proofRequestID...\n      PUSH 20\t\t\t[] memory ids = proofRequestID...\n      DUP3 \t\t\t[] memory ids = proofRequestID...\n      PUSH 7\t\t\t[] memory ids = proofRequestID...\n      ADD \t\t\t[] memory ids = proofRequestID...\n      DIV \t\t\t[] memory ids = proofRequestID...\n      SWAP3 \t\t\t[] memory ids = proofRequestID...\n      DUP4 \t\t\t[] memory ids = proofRequestID...\n      ADD \t\t\t[] memory ids = proofRequestID...\n      SWAP3 \t\t\t[] memory ids = proofRequestID...\n      PUSH 1\t\t\t[] memory ids = proofRequestID...\n      SUB \t\t\t[] memory ids = proofRequestID...\n      DUP3 \t\t\t[] memory ids = proofRequestID...\n      MUL \t\t\t[] memory ids = proofRequestID...\n      SWAP2 \t\t\t[] memory ids = proofRequestID...\n      POP \t\t\t[] memory ids = proofRequestID...\n      DUP1 \t\t\t[] memory ids = proofRequestID...\n      DUP5 \t\t\t[] memory ids = proofRequestID...\n      GT \t\t\t[] memory ids = proofRequestID...\n      PUSH [tag] 375\t\t\t[] memory ids = proofRequestID...\n      JUMPI \t\t\t[] memory ids = proofRequestID...\n      SWAP1 \t\t\t[] memory ids = proofRequestID...\n      POP \t\t\t[] memory ids = proofRequestID...\n    tag 374\t\t\t[] memory ids = proofRequestID...\n      JUMPDEST \t\t\t[] memory ids = proofRequestID...\n      POP \t\t\t[] memory ids = proofRequestID...\n      POP \t\t\t[] memory ids = proofRequestID...\n      POP \t\t\t[] memory ids = proofRequestID...\n      POP \t\t\t[] memory ids = proofRequestID...\n      POP \t\t\t[] memory ids = proofRequestID...\n      SWAP1 \t\t\t[] memory ids = proofRequestID...\n      POP \t\t\t[] memory ids = proofRequestID...\n      PUSH 0\t\t\t6 count = 0;\\r\n      DUP1 \t\t\t6 i = 0; \n    tag 376\t\t\tint256 i = 0; i < ids.length; ...\n      JUMPDEST \t\t\tint256 i = 0; i < ids.length; ...\n      DUP3 \t\t\tngt\n      MLOAD \t\t\tngth; i++)\n      DUP2 \t\t\ts\n      LT \t\t\ts.length; i++)\n      ISZERO \t\t\tint256 i = 0; i < ids.length; ...\n      PUSH [tag] 377\t\t\tint256 i = 0; i < ids.length; ...\n      JUMPI \t\t\tint256 i = 0; i < ids.length; ...\n      PUSH 0\t\t\t \n      PUSH 9\t\t\tngConditions[token\n      PUSH 0\t\t\tngConditions[tokenID][user]\n      DUP10 \t\t\tD][user\n      DUP2 \t\t\tngConditions[tokenID][user]\n      MSTORE \t\t\tngConditions[tokenID][user]\n      PUSH 20\t\t\tngConditions[tokenID][user]\n      ADD \t\t\tngConditions[tokenID][user]\n      SWAP1 \t\t\tngConditions[tokenID][user]\n      DUP2 \t\t\tngConditions[tokenID][user]\n      MSTORE \t\t\tngConditions[tokenID][user]\n      PUSH 20\t\t\tngConditions[tokenID][user]\n      ADD \t\t\tngConditions[tokenID][user]\n      PUSH 0\t\t\tngConditions[tokenID][user]\n      KECCAK256 \t\t\tngConditions[tokenID][user]\n      PUSH 0\t\t\tngConditions[tokenID][user][id...\n      DUP9 \t\t\tids[\n      PUSH FFFFFFFFFFFFFFFFFFFFFFFFFFFFFFFFFFFFFFFF\t\t\tngConditions[tokenID][user][id...\n      AND \t\t\tngConditions[tokenID][user][id...\n      PUSH FFFFFFFFFFFFFFFFFFFFFFFFFFFFFFFFFFFFFFFF\t\t\tngConditions[tokenID][user][id...\n      AND \t\t\tngConditions[tokenID][user][id...\n      DUP2 \t\t\tngConditions[tokenID][user][id...\n      MSTORE \t\t\tngConditions[tokenID][user][id...\n      PUSH 20\t\t\tngConditions[tokenID][user][id...\n      ADD \t\t\tngConditions[tokenID][user][id...\n      SWAP1 \t\t\tngConditions[tokenID][user][id...\n      DUP2 \t\t\tngConditions[tokenID][user][id...\n      MSTORE \t\t\tngConditions[tokenID][user][id...\n      PUSH 20\t\t\tngConditions[tokenID][user][id...\n      ADD \t\t\tngConditions[tokenID][user][id...\n      PUSH 0\t\t\tngConditions[tokenID][user][id...\n      KECCAK256 \t\t\tngConditions[tokenID][user][id...\n      PUSH 0\t\t\tngConditions[tokenID][user][id...\n      DUP6 \t\t\t].a\n      DUP5 \t\t\tt\n      DUP2 \t\t\t].attr\n      MLOAD \t\t\t].attr\n      DUP2 \t\t\t].attr\n      LT \t\t\t].attr\n      PUSH [tag] 379\t\t\t].attr\n      JUMPI \t\t\t].attr\n      PUSH [tag] 380\t\t\t].attr\n      PUSH [tag] 163\t\t\t].attr\n      JUMP \t\t\t].attr\n    tag 380\t\t\t].attr\n      JUMPDEST \t\t\t].attr\n    tag 379\t\t\t].attr\n      JUMPDEST \t\t\t].attr\n      PUSH 20\t\t\t].attr\n      MUL \t\t\t].attr\n      PUSH 20\t\t\t].attr\n      ADD \t\t\t].attr\n      ADD \t\t\t].attr\n      MLOAD \t\t\t].attr\n      PUSH FFFFFFFFFFFFFFFF\t\t\tngConditions[tokenID][user][id...\n      AND \t\t\tngConditions[tokenID][user][id...\n      PUSH FFFFFFFFFFFFFFFF\t\t\tngConditions[tokenID][user][id...\n      AND \t\t\tngConditions[tokenID][user][id...\n      DUP2 \t\t\tngConditions[tokenID][user][id...\n      MSTORE \t\t\tngConditions[tokenID][user][id...\n      PUSH 20\t\t\tngConditions[tokenID][user][id...\n      ADD \t\t\tngConditions[tokenID][user][id...\n      SWAP1 \t\t\tngConditions[tokenID][user][id...\n      DUP2 \t\t\tngConditions[tokenID][user][id...\n      MSTORE \t\t\tngConditions[tokenID][user][id...\n      PUSH 20\t\t\tngConditions[tokenID][user][id...\n      ADD \t\t\tngConditions[tokenID][user][id...\n      PUSH 0\t\t\tngConditions[tokenID][user][id...\n      KECCAK256 \t\t\tngConditions[tokenID][user][id...\n      PUSH 0\t\t\tngConditions[tokenID][user][id...\n      ADD \t\t\tngConditions[tokenID][user][id...\n      DUP1 \t\t\tspendingConditions[tokenID][us...\n      SLOAD \t\t\tspendingConditions[tokenID][us...\n      PUSH [tag] 381\t\t\tspendingConditions[tokenID][us...\n      SWAP1 \t\t\tspendingConditions[tokenID][us...\n      PUSH [tag] 149\t\t\tspendingConditions[tokenID][us...\n      JUMP \t\t\tspendingConditions[tokenID][us...\n    tag 381\t\t\tspendingConditions[tokenID][us...\n      JUMPDEST \t\t\tspendingConditions[tokenID][us...\n      SWAP1 \t\t\tspendingConditions[tokenID][us...\n      POP \t\t\tspendingConditions[tokenID][us...\n      GT \t\t\tspendingConditions[tokenID][us...\n      ISZERO \t\t\ttes(spendingConditions[tokenID...\n      PUSH [tag] 382\t\t\ttes(spendingConditions[tokenID...\n      JUMPI \t\t\ttes(spendingConditions[tokenID...\n      DUP2 \t\t\t+;\\r\\n   \n      DUP1 \t\t\t+;\\r\\n   \n      PUSH [tag] 383\t\t\t+;\\r\\n   \n      SWAP1 \t\t\t+;\\r\\n   \n      PUSH [tag] 179\t\t\t+;\\r\\n   \n      JUMP \t\t\t+;\\r\\n   \n    tag 383\t\t\t+;\\r\\n   \n      JUMPDEST \t\t\t+;\\r\\n   \n      SWAP3 \t\t\t+;\\r\\n   \n      POP \t\t\t+;\\r\\n   \n      POP \t\t\t+;\\r\\n   \n    tag 382\t\t\ttes(spendingConditions[tokenID...\n      JUMPDEST \t\t\ttes(spendingConditions[tokenID...\n      DUP1 \t\t\t\\r\\n \n      DUP1 \t\t\t\\r\\n \n      PUSH [tag] 384\t\t\t\\r\\n \n      SWAP1 \t\t\t\\r\\n \n      PUSH [tag] 179\t\t\t\\r\\n \n      JUMP \t\t\t\\r\\n \n    tag 384\t\t\t\\r\\n \n      JUMPDEST \t\t\t\\r\\n \n      SWAP2 \t\t\t\\r\\n \n      POP \t\t\t\\r\\n \n      POP \t\t\t\\r\\n \n      PUSH [tag] 376\t\t\tint256 i = 0; i < ids.length; ...\n      JUMP \t\t\tint256 i = 0; i < ids.length; ...\n    tag 377\t\t\tint256 i = 0; i < ids.length; ...\n      JUMPDEST \t\t\tint256 i = 0; i < ids.length; ...\n      POP \t\t\tint256 i = 0; i < ids.length; ...\n      PUSH 0\t\t\t[] memory filteredIDs = new\n      DUP2 \t\t\t;\\r\\n  \n      PUSH FFFFFFFFFFFFFFFF\t\t\tnt64[](count);\\r\\n   \n      DUP2 \t\t\tnt64[](count);\\r\\n   \n      GT \t\t\tnt64[](count);\\r\\n   \n      ISZERO \t\t\tnt64[](count);\\r\\n   \n      PUSH [tag] 385\t\t\tnt64[](count);\\r\\n   \n      JUMPI \t\t\tnt64[](count);\\r\\n   \n      PUSH [tag] 386\t\t\tnt64[](count);\\r\\n   \n      PUSH [tag] 259\t\t\tnt64[](count);\\r\\n   \n      JUMP \t\t\tnt64[](count);\\r\\n   \n    tag 386\t\t\tnt64[](count);\\r\\n   \n      JUMPDEST \t\t\tnt64[](count);\\r\\n   \n    tag 385\t\t\tnt64[](count);\\r\\n   \n      JUMPDEST \t\t\tnt64[](count);\\r\\n   \n      PUSH 40\t\t\tnt64[](count);\\r\\n   \n      MLOAD \t\t\tnt64[](count);\\r\\n   \n      SWAP1 \t\t\tnt64[](count);\\r\\n   \n      DUP1 \t\t\tnt64[](count);\\r\\n   \n      DUP3 \t\t\tnt64[](count);\\r\\n   \n      MSTORE \t\t\tnt64[](count);\\r\\n   \n      DUP1 \t\t\tnt64[](count);\\r\\n   \n      PUSH 20\t\t\tnt64[](count);\\r\\n   \n      MUL \t\t\tnt64[](count);\\r\\n   \n      PUSH 20\t\t\tnt64[](count);\\r\\n   \n      ADD \t\t\tnt64[](count);\\r\\n   \n      DUP3 \t\t\tnt64[](count);\\r\\n   \n      ADD \t\t\tnt64[](count);\\r\\n   \n      PUSH 40\t\t\tnt64[](count);\\r\\n   \n      MSTORE \t\t\tnt64[](count);\\r\\n   \n      DUP1 \t\t\tnt64[](count);\\r\\n   \n      ISZERO \t\t\tnt64[](count);\\r\\n   \n      PUSH [tag] 387\t\t\tnt64[](count);\\r\\n   \n      JUMPI \t\t\tnt64[](count);\\r\\n   \n      DUP2 \t\t\tnt64[](count);\\r\\n   \n      PUSH 20\t\t\tnt64[](count);\\r\\n   \n      ADD \t\t\tnt64[](count);\\r\\n   \n      PUSH 20\t\t\tnt64[](count);\\r\\n   \n      DUP3 \t\t\tnt64[](count);\\r\\n   \n      MUL \t\t\tnt64[](count);\\r\\n   \n      DUP1 \t\t\tnt64[](count);\\r\\n   \n      CALLDATASIZE \t\t\tnt64[](count);\\r\\n   \n      DUP4 \t\t\tnt64[](count);\\r\\n   \n      CALLDATACOPY \t\t\tnt64[](count);\\r\\n   \n      DUP1 \t\t\tnt64[](count);\\r\\n   \n      DUP3 \t\t\tnt64[](count);\\r\\n   \n      ADD \t\t\tnt64[](count);\\r\\n   \n      SWAP2 \t\t\tnt64[](count);\\r\\n   \n      POP \t\t\tnt64[](count);\\r\\n   \n      POP \t\t\tnt64[](count);\\r\\n   \n      SWAP1 \t\t\tnt64[](count);\\r\\n   \n      POP \t\t\tnt64[](count);\\r\\n   \n    tag 387\t\t\tnt64[](count);\\r\\n   \n      JUMPDEST \t\t\tnt64[](count);\\r\\n   \n      POP \t\t\tnt64[](count);\\r\\n   \n      SWAP1 \t\t\t[] memory filteredIDs = new ui...\n      POP \t\t\t[] memory filteredIDs = new ui...\n      PUSH 0\t\t\tngCondition[] memory condition...\n      DUP3 \t\t\t;\\r\\n  \n      PUSH FFFFFFFFFFFFFFFF\t\t\tendingCondition[](count);\\r\\n ...\n      DUP2 \t\t\tendingCondition[](count);\\r\\n ...\n      GT \t\t\tendingCondition[](count);\\r\\n ...\n      ISZERO \t\t\tendingCondition[](count);\\r\\n ...\n      PUSH [tag] 388\t\t\tendingCondition[](count);\\r\\n ...\n      JUMPI \t\t\tendingCondition[](count);\\r\\n ...\n      PUSH [tag] 389\t\t\tendingCondition[](count);\\r\\n ...\n      PUSH [tag] 259\t\t\tendingCondition[](count);\\r\\n ...\n      JUMP \t\t\tendingCondition[](count);\\r\\n ...\n    tag 389\t\t\tendingCondition[](count);\\r\\n ...\n      JUMPDEST \t\t\tendingCondition[](count);\\r\\n ...\n    tag 388\t\t\tendingCondition[](count);\\r\\n ...\n      JUMPDEST \t\t\tendingCondition[](count);\\r\\n ...\n      PUSH 40\t\t\tendingCondition[](count);\\r\\n ...\n      MLOAD \t\t\tendingCondition[](count);\\r\\n ...\n      SWAP1 \t\t\tendingCondition[](count);\\r\\n ...\n      DUP1 \t\t\tendingCondition[](count);\\r\\n ...\n      DUP3 \t\t\tendingCondition[](count);\\r\\n ...\n      MSTORE \t\t\tendingCondition[](count);\\r\\n ...\n      DUP1 \t\t\tendingCondition[](count);\\r\\n ...\n      PUSH 20\t\t\tendingCondition[](count);\\r\\n ...\n      MUL \t\t\tendingCondition[](count);\\r\\n ...\n      PUSH 20\t\t\tendingCondition[](count);\\r\\n ...\n      ADD \t\t\tendingCondition[](count);\\r\\n ...\n      DUP3 \t\t\tendingCondition[](count);\\r\\n ...\n      ADD \t\t\tendingCondition[](count);\\r\\n ...\n      PUSH 40\t\t\tendingCondition[](count);\\r\\n ...\n      MSTORE \t\t\tendingCondition[](count);\\r\\n ...\n      DUP1 \t\t\tendingCondition[](count);\\r\\n ...\n      ISZERO \t\t\tendingCondition[](count);\\r\\n ...\n      PUSH [tag] 390\t\t\tendingCondition[](count);\\r\\n ...\n      JUMPI \t\t\tendingCondition[](count);\\r\\n ...\n      DUP2 \t\t\tendingCondition[](count);\\r\\n ...\n      PUSH 20\t\t\tendingCondition[](count);\\r\\n ...\n      ADD \t\t\tendingCondition[](count);\\r\\n ...\n    tag 391\t\t\tendingCondition[](count);\\r\\n ...\n      JUMPDEST \t\t\tendingCondition[](count);\\r\\n ...\n      PUSH [tag] 392\t\t\tendingCondition[](count);\\r\\n ...\n      PUSH [tag] 393\t\t\tendingCondition[](count);\\r\\n ...\n      JUMP \t\t\tendingCondition[](count);\\r\\n ...\n    tag 392\t\t\tendingCondition[](count);\\r\\n ...\n      JUMPDEST \t\t\tendingCondition[](count);\\r\\n ...\n      DUP2 \t\t\tendingCondition[](count);\\r\\n ...\n      MSTORE \t\t\tendingCondition[](count);\\r\\n ...\n      PUSH 20\t\t\tendingCondition[](count);\\r\\n ...\n      ADD \t\t\tendingCondition[](count);\\r\\n ...\n      SWAP1 \t\t\tendingCondition[](count);\\r\\n ...\n      PUSH 1\t\t\tendingCondition[](count);\\r\\n ...\n      SWAP1 \t\t\tendingCondition[](count);\\r\\n ...\n      SUB \t\t\tendingCondition[](count);\\r\\n ...\n      SWAP1 \t\t\tendingCondition[](count);\\r\\n ...\n      DUP2 \t\t\tendingCondition[](count);\\r\\n ...\n      PUSH [tag] 391\t\t\tendingCondition[](count);\\r\\n ...\n      JUMPI \t\t\tendingCondition[](count);\\r\\n ...\n      SWAP1 \t\t\tendingCondition[](count);\\r\\n ...\n      POP \t\t\tendingCondition[](count);\\r\\n ...\n    tag 390\t\t\tendingCondition[](count);\\r\\n ...\n      JUMPDEST \t\t\tendingCondition[](count);\\r\\n ...\n      POP \t\t\tendingCondition[](count);\\r\\n ...\n      SWAP1 \t\t\tngCondition[] memory condition...\n      POP \t\t\tngCondition[] memory condition...\n      PUSH 0\t\t\t6 idx = 0;\\r\n      DUP1 \t\t\t6 i = 0; \n    tag 394\t\t\tint256 i = 0; i < ids.length; ...\n      JUMPDEST \t\t\tint256 i = 0; i < ids.length; ...\n      DUP6 \t\t\tngt\n      MLOAD \t\t\tngth; i++)\n      DUP2 \t\t\ts\n      LT \t\t\ts.length; i++)\n      ISZERO \t\t\tint256 i = 0; i < ids.length; ...\n      PUSH [tag] 395\t\t\tint256 i = 0; i < ids.length; ...\n      JUMPI \t\t\tint256 i = 0; i < ids.length; ...\n      PUSH 0\t\t\t \n      PUSH 9\t\t\tngConditions[token\n      PUSH 0\t\t\tngConditions[tokenID][user]\n      DUP13 \t\t\tD][user\n      DUP2 \t\t\tngConditions[tokenID][user]\n      MSTORE \t\t\tngConditions[tokenID][user]\n      PUSH 20\t\t\tngConditions[tokenID][user]\n      ADD \t\t\tngConditions[tokenID][user]\n      SWAP1 \t\t\tngConditions[tokenID][user]\n      DUP2 \t\t\tngConditions[tokenID][user]\n      MSTORE \t\t\tngConditions[tokenID][user]\n      PUSH 20\t\t\tngConditions[tokenID][user]\n      ADD \t\t\tngConditions[tokenID][user]\n      PUSH 0\t\t\tngConditions[tokenID][user]\n      KECCAK256 \t\t\tngConditions[tokenID][user]\n      PUSH 0\t\t\tngConditions[tokenID][user][id...\n      DUP12 \t\t\tids[\n      PUSH FFFFFFFFFFFFFFFFFFFFFFFFFFFFFFFFFFFFFFFF\t\t\tngConditions[tokenID][user][id...\n      AND \t\t\tngConditions[tokenID][user][id...\n      PUSH FFFFFFFFFFFFFFFFFFFFFFFFFFFFFFFFFFFFFFFF\t\t\tngConditions[tokenID][user][id...\n      AND \t\t\tngConditions[tokenID][user][id...\n      DUP2 \t\t\tngConditions[tokenID][user][id...\n      MSTORE \t\t\tngConditions[tokenID][user][id...\n      PUSH 20\t\t\tngConditions[tokenID][user][id...\n      ADD \t\t\tngConditions[tokenID][user][id...\n      SWAP1 \t\t\tngConditions[tokenID][user][id...\n      DUP2 \t\t\tngConditions[tokenID][user][id...\n      MSTORE \t\t\tngConditions[tokenID][user][id...\n      PUSH 20\t\t\tngConditions[tokenID][user][id...\n      ADD \t\t\tngConditions[tokenID][user][id...\n      PUSH 0\t\t\tngConditions[tokenID][user][id...\n      KECCAK256 \t\t\tngConditions[tokenID][user][id...\n      PUSH 0\t\t\tngConditions[tokenID][user][id...\n      DUP9 \t\t\t].a\n      DUP5 \t\t\tt\n      DUP2 \t\t\t].attr\n      MLOAD \t\t\t].attr\n      DUP2 \t\t\t].attr\n      LT \t\t\t].attr\n      PUSH [tag] 397\t\t\t].attr\n      JUMPI \t\t\t].attr\n      PUSH [tag] 398\t\t\t].attr\n      PUSH [tag] 163\t\t\t].attr\n      JUMP \t\t\t].attr\n    tag 398\t\t\t].attr\n      JUMPDEST \t\t\t].attr\n    tag 397\t\t\t].attr\n      JUMPDEST \t\t\t].attr\n      PUSH 20\t\t\t].attr\n      MUL \t\t\t].attr\n      PUSH 20\t\t\t].attr\n      ADD \t\t\t].attr\n      ADD \t\t\t].attr\n      MLOAD \t\t\t].attr\n      PUSH FFFFFFFFFFFFFFFF\t\t\tngConditions[tokenID][user][id...\n      AND \t\t\tngConditions[tokenID][user][id...\n      PUSH FFFFFFFFFFFFFFFF\t\t\tngConditions[tokenID][user][id...\n      AND \t\t\tngConditions[tokenID][user][id...\n      DUP2 \t\t\tngConditions[tokenID][user][id...\n      MSTORE \t\t\tngConditions[tokenID][user][id...\n      PUSH 20\t\t\tngConditions[tokenID][user][id...\n      ADD \t\t\tngConditions[tokenID][user][id...\n      SWAP1 \t\t\tngConditions[tokenID][user][id...\n      DUP2 \t\t\tngConditions[tokenID][user][id...\n      MSTORE \t\t\tngConditions[tokenID][user][id...\n      PUSH 20\t\t\tngConditions[tokenID][user][id...\n      ADD \t\t\tngConditions[tokenID][user][id...\n      PUSH 0\t\t\tngConditions[tokenID][user][id...\n      KECCAK256 \t\t\tngConditions[tokenID][user][id...\n      PUSH 0\t\t\tngConditions[tokenID][user][id...\n      ADD \t\t\tngConditions[tokenID][user][id...\n      DUP1 \t\t\tspendingConditions[tokenID][us...\n      SLOAD \t\t\tspendingConditions[tokenID][us...\n      PUSH [tag] 399\t\t\tspendingConditions[tokenID][us...\n      SWAP1 \t\t\tspendingConditions[tokenID][us...\n      PUSH [tag] 149\t\t\tspendingConditions[tokenID][us...\n      JUMP \t\t\tspendingConditions[tokenID][us...\n    tag 399\t\t\tspendingConditions[tokenID][us...\n      JUMPDEST \t\t\tspendingConditions[tokenID][us...\n      SWAP1 \t\t\tspendingConditions[tokenID][us...\n      POP \t\t\tspendingConditions[tokenID][us...\n      GT \t\t\tspendingConditions[tokenID][us...\n      ISZERO \t\t\ttes(spendingConditions[tokenID...\n      PUSH [tag] 400\t\t\ttes(spendingConditions[tokenID...\n      JUMPI \t\t\ttes(spendingConditions[tokenID...\n      DUP6 \t\t\t;\\r\\n\n      DUP2 \t\t\t \n      DUP2 \t\t\t;\\r\\n   \n      MLOAD \t\t\t;\\r\\n   \n      DUP2 \t\t\t;\\r\\n   \n      LT \t\t\t;\\r\\n   \n      PUSH [tag] 401\t\t\t;\\r\\n   \n      JUMPI \t\t\t;\\r\\n   \n      PUSH [tag] 402\t\t\t;\\r\\n   \n      PUSH [tag] 163\t\t\t;\\r\\n   \n      JUMP \t\t\t;\\r\\n   \n    tag 402\t\t\t;\\r\\n   \n      JUMPDEST \t\t\t;\\r\\n   \n    tag 401\t\t\t;\\r\\n   \n      JUMPDEST \t\t\t;\\r\\n   \n      PUSH 20\t\t\t;\\r\\n   \n      MUL \t\t\t;\\r\\n   \n      PUSH 20\t\t\t;\\r\\n   \n      ADD \t\t\t;\\r\\n   \n      ADD \t\t\t;\\r\\n   \n      MLOAD \t\t\t;\\r\\n   \n      DUP5 \t\t\tedIDs[idx] \n      DUP4 \t\t\t id\n      DUP2 \t\t\tedIDs[idx] = ids\n      MLOAD \t\t\tedIDs[idx] = ids\n      DUP2 \t\t\tedIDs[idx] = ids\n      LT \t\t\tedIDs[idx] = ids\n      PUSH [tag] 403\t\t\tedIDs[idx] = ids\n      JUMPI \t\t\tedIDs[idx] = ids\n      PUSH [tag] 404\t\t\tedIDs[idx] = ids\n      PUSH [tag] 163\t\t\tedIDs[idx] = ids\n      JUMP \t\t\tedIDs[idx] = ids\n    tag 404\t\t\tedIDs[idx] = ids\n      JUMPDEST \t\t\tedIDs[idx] = ids\n    tag 403\t\t\tedIDs[idx] = ids\n      JUMPDEST \t\t\tedIDs[idx] = ids\n      PUSH 20\t\t\tedIDs[idx] = ids\n      MUL \t\t\tedIDs[idx] = ids\n      PUSH 20\t\t\tedIDs[idx] = ids\n      ADD \t\t\tedIDs[idx] = ids\n      ADD \t\t\tedIDs[idx] = ids\n      SWAP1 \t\t\tedIDs[idx] = ids[i];\\r\\n   \n      PUSH FFFFFFFFFFFFFFFF\t\t\tedIDs[idx] = ids[i];\\r\\n   \n      AND \t\t\tedIDs[idx] = ids[i];\\r\\n   \n      SWAP1 \t\t\tedIDs[idx] = ids[i];\\r\\n   \n      DUP2 \t\t\tedIDs[idx] = ids[i];\\r\\n   \n      PUSH FFFFFFFFFFFFFFFF\t\t\tedIDs[idx] = ids[i];\\r\\n   \n      AND \t\t\tedIDs[idx] = ids[i];\\r\\n   \n      DUP2 \t\t\tedIDs[idx] = ids[i];\\r\\n   \n      MSTORE \t\t\tedIDs[idx] = ids[i];\\r\\n   \n      POP \t\t\tedIDs[idx] = ids[i];\\r\\n   \n      POP \t\t\tedIDs[idx] = ids[i];\\r\\n   \n      PUSH 9\t\t\tngConditions[token\n      PUSH 0\t\t\tngConditions[tokenID][user]\n      DUP12 \t\t\tD][user\n      DUP2 \t\t\tngConditions[tokenID][user]\n      MSTORE \t\t\tngConditions[tokenID][user]\n      PUSH 20\t\t\tngConditions[tokenID][user]\n      ADD \t\t\tngConditions[tokenID][user]\n      SWAP1 \t\t\tngConditions[tokenID][user]\n      DUP2 \t\t\tngConditions[tokenID][user]\n      MSTORE \t\t\tngConditions[tokenID][user]\n      PUSH 20\t\t\tngConditions[tokenID][user]\n      ADD \t\t\tngConditions[tokenID][user]\n      PUSH 0\t\t\tngConditions[tokenID][user]\n      KECCAK256 \t\t\tngConditions[tokenID][user]\n      PUSH 0\t\t\tngConditions[tokenID][user][id...\n      DUP11 \t\t\tids[\n      PUSH FFFFFFFFFFFFFFFFFFFFFFFFFFFFFFFFFFFFFFFF\t\t\tngConditions[tokenID][user][id...\n      AND \t\t\tngConditions[tokenID][user][id...\n      PUSH FFFFFFFFFFFFFFFFFFFFFFFFFFFFFFFFFFFFFFFF\t\t\tngConditions[tokenID][user][id...\n      AND \t\t\tngConditions[tokenID][user][id...\n      DUP2 \t\t\tngConditions[tokenID][user][id...\n      MSTORE \t\t\tngConditions[tokenID][user][id...\n      PUSH 20\t\t\tngConditions[tokenID][user][id...\n      ADD \t\t\tngConditions[tokenID][user][id...\n      SWAP1 \t\t\tngConditions[tokenID][user][id...\n      DUP2 \t\t\tngConditions[tokenID][user][id...\n      MSTORE \t\t\tngConditions[tokenID][user][id...\n      PUSH 20\t\t\tngConditions[tokenID][user][id...\n      ADD \t\t\tngConditions[tokenID][user][id...\n      PUSH 0\t\t\tngConditions[tokenID][user][id...\n      KECCAK256 \t\t\tngConditions[tokenID][user][id...\n      PUSH 0\t\t\tngConditions[tokenID][user][id...\n      DUP8 \t\t\t];\\r\n      DUP4 \t\t\t \n      DUP2 \t\t\t];\\r\\n  \n      MLOAD \t\t\t];\\r\\n  \n      DUP2 \t\t\t];\\r\\n  \n      LT \t\t\t];\\r\\n  \n      PUSH [tag] 405\t\t\t];\\r\\n  \n      JUMPI \t\t\t];\\r\\n  \n      PUSH [tag] 406\t\t\t];\\r\\n  \n      PUSH [tag] 163\t\t\t];\\r\\n  \n      JUMP \t\t\t];\\r\\n  \n    tag 406\t\t\t];\\r\\n  \n      JUMPDEST \t\t\t];\\r\\n  \n    tag 405\t\t\t];\\r\\n  \n      JUMPDEST \t\t\t];\\r\\n  \n      PUSH 20\t\t\t];\\r\\n  \n      MUL \t\t\t];\\r\\n  \n      PUSH 20\t\t\t];\\r\\n  \n      ADD \t\t\t];\\r\\n  \n      ADD \t\t\t];\\r\\n  \n      MLOAD \t\t\t];\\r\\n  \n      PUSH FFFFFFFFFFFFFFFF\t\t\tngConditions[tokenID][user][id...\n      AND \t\t\tngConditions[tokenID][user][id...\n      PUSH FFFFFFFFFFFFFFFF\t\t\tngConditions[tokenID][user][id...\n      AND \t\t\tngConditions[tokenID][user][id...\n      DUP2 \t\t\tngConditions[tokenID][user][id...\n      MSTORE \t\t\tngConditions[tokenID][user][id...\n      PUSH 20\t\t\tngConditions[tokenID][user][id...\n      ADD \t\t\tngConditions[tokenID][user][id...\n      SWAP1 \t\t\tngConditions[tokenID][user][id...\n      DUP2 \t\t\tngConditions[tokenID][user][id...\n      MSTORE \t\t\tngConditions[tokenID][user][id...\n      PUSH 20\t\t\tngConditions[tokenID][user][id...\n      ADD \t\t\tngConditions[tokenID][user][id...\n      PUSH 0\t\t\tngConditions[tokenID][user][id...\n      KECCAK256 \t\t\tngConditions[tokenID][user][id...\n      PUSH 40\t\t\tions[idx] = spendingConditions...\n      MLOAD \t\t\tions[idx] = spendingConditions...\n      DUP1 \t\t\tions[idx] = spendingConditions...\n      PUSH 60\t\t\tions[idx] = spendingConditions...\n      ADD \t\t\tions[idx] = spendingConditions...\n      PUSH 40\t\t\tions[idx] = spendingConditions...\n      MSTORE \t\t\tions[idx] = spendingConditions...\n      SWAP1 \t\t\tions[idx] = spendingConditions...\n      DUP2 \t\t\tions[idx] = spendingConditions...\n      PUSH 0\t\t\tions[idx] = spendingConditions...\n      DUP3 \t\t\tions[idx] = spendingConditions...\n      ADD \t\t\tions[idx] = spendingConditions...\n      DUP1 \t\t\tions[idx] = spendingConditions...\n      SLOAD \t\t\tions[idx] = spendingConditions...\n      PUSH [tag] 407\t\t\tions[idx] = spendingConditions...\n      SWAP1 \t\t\tions[idx] = spendingConditions...\n      PUSH [tag] 149\t\t\tions[idx] = spendingConditions...\n      JUMP \t\t\tions[idx] = spendingConditions...\n    tag 407\t\t\tions[idx] = spendingConditions...\n      JUMPDEST \t\t\tions[idx] = spendingConditions...\n      DUP1 \t\t\tions[idx] = spendingConditions...\n      PUSH 1F\t\t\tions[idx] = spendingConditions...\n      ADD \t\t\tions[idx] = spendingConditions...\n      PUSH 20\t\t\tions[idx] = spendingConditions...\n      DUP1 \t\t\tions[idx] = spendingConditions...\n      SWAP2 \t\t\tions[idx] = spendingConditions...\n      DIV \t\t\tions[idx] = spendingConditions...\n      MUL \t\t\tions[idx] = spendingConditions...\n      PUSH 20\t\t\tions[idx] = spendingConditions...\n      ADD \t\t\tions[idx] = spendingConditions...\n      PUSH 40\t\t\tions[idx] = spendingConditions...\n      MLOAD \t\t\tions[idx] = spendingConditions...\n      SWAP1 \t\t\tions[idx] = spendingConditions...\n      DUP2 \t\t\tions[idx] = spendingConditions...\n      ADD \t\t\tions[idx] = spendingConditions...\n      PUSH 40\t\t\tions[idx] = spendingConditions...\n      MSTORE \t\t\tions[idx] = spendingConditions...\n      DUP1 \t\t\tions[idx] = spendingConditions...\n      SWAP3 \t\t\tions[idx] = spendingConditions...\n      SWAP2 \t\t\tions[idx] = spendingConditions...\n      SWAP1 \t\t\tions[idx] = spendingConditions...\n      DUP2 \t\t\tions[idx] = spendingConditions...\n      DUP2 \t\t\tions[idx] = spendingConditions...\n      MSTORE \t\t\tions[idx] = spendingConditions...\n      PUSH 20\t\t\tions[idx] = spendingConditions...\n      ADD \t\t\tions[idx] = spendingConditions...\n      DUP3 \t\t\tions[idx] = spendingConditions...\n      DUP1 \t\t\tions[idx] = spendingConditions...\n      SLOAD \t\t\tions[idx] = spendingConditions...\n      PUSH [tag] 408\t\t\tions[idx] = spendingConditions...\n      SWAP1 \t\t\tions[idx] = spendingConditions...\n      PUSH [tag] 149\t\t\tions[idx] = spendingConditions...\n      JUMP \t\t\tions[idx] = spendingConditions...\n    tag 408\t\t\tions[idx] = spendingConditions...\n      JUMPDEST \t\t\tions[idx] = spendingConditions...\n      DUP1 \t\t\tions[idx] = spendingConditions...\n      ISZERO \t\t\tions[idx] = spendingConditions...\n      PUSH [tag] 409\t\t\tions[idx] = spendingConditions...\n      JUMPI \t\t\tions[idx] = spendingConditions...\n      DUP1 \t\t\tions[idx] = spendingConditions...\n      PUSH 1F\t\t\tions[idx] = spendingConditions...\n      LT \t\t\tions[idx] = spendingConditions...\n      PUSH [tag] 410\t\t\tions[idx] = spendingConditions...\n      JUMPI \t\t\tions[idx] = spendingConditions...\n      PUSH 100\t\t\tions[idx] = spendingConditions...\n      DUP1 \t\t\tions[idx] = spendingConditions...\n      DUP4 \t\t\tions[idx] = spendingConditions...\n      SLOAD \t\t\tions[idx] = spendingConditions...\n      DIV \t\t\tions[idx] = spendingConditions...\n      MUL \t\t\tions[idx] = spendingConditions...\n      DUP4 \t\t\tions[idx] = spendingConditions...\n      MSTORE \t\t\tions[idx] = spendingConditions...\n      SWAP2 \t\t\tions[idx] = spendingConditions...\n      PUSH 20\t\t\tions[idx] = spendingConditions...\n      ADD \t\t\tions[idx] = spendingConditions...\n      SWAP2 \t\t\tions[idx] = spendingConditions...\n      PUSH [tag] 409\t\t\tions[idx] = spendingConditions...\n      JUMP \t\t\tions[idx] = spendingConditions...\n    tag 410\t\t\tions[idx] = spendingConditions...\n      JUMPDEST \t\t\tions[idx] = spendingConditions...\n      DUP3 \t\t\tions[idx] = spendingConditions...\n      ADD \t\t\tions[idx] = spendingConditions...\n      SWAP2 \t\t\tions[idx] = spendingConditions...\n      SWAP1 \t\t\tions[idx] = spendingConditions...\n      PUSH 0\t\t\tions[idx] = spendingConditions...\n      MSTORE \t\t\tions[idx] = spendingConditions...\n      PUSH 20\t\t\tions[idx] = spendingConditions...\n      PUSH 0\t\t\tions[idx] = spendingConditions...\n      KECCAK256 \t\t\tions[idx] = spendingConditions...\n      SWAP1 \t\t\tions[idx] = spendingConditions...\n    tag 411\t\t\tions[idx] = spendingConditions...\n      JUMPDEST \t\t\tions[idx] = spendingConditions...\n      DUP2 \t\t\tions[idx] = spendingConditions...\n      SLOAD \t\t\tions[idx] = spendingConditions...\n      DUP2 \t\t\tions[idx] = spendingConditions...\n      MSTORE \t\t\tions[idx] = spendingConditions...\n      SWAP1 \t\t\tions[idx] = spendingConditions...\n      PUSH 1\t\t\tions[idx] = spendingConditions...\n      ADD \t\t\tions[idx] = spendingConditions...\n      SWAP1 \t\t\tions[idx] = spendingConditions...\n      PUSH 20\t\t\tions[idx] = spendingConditions...\n      ADD \t\t\tions[idx] = spendingConditions...\n      DUP1 \t\t\tions[idx] = spendingConditions...\n      DUP4 \t\t\tions[idx] = spendingConditions...\n      GT \t\t\tions[idx] = spendingConditions...\n      PUSH [tag] 411\t\t\tions[idx] = spendingConditions...\n      JUMPI \t\t\tions[idx] = spendingConditions...\n      DUP3 \t\t\tions[idx] = spendingConditions...\n      SWAP1 \t\t\tions[idx] = spendingConditions...\n      SUB \t\t\tions[idx] = spendingConditions...\n      PUSH 1F\t\t\tions[idx] = spendingConditions...\n      AND \t\t\tions[idx] = spendingConditions...\n      DUP3 \t\t\tions[idx] = spendingConditions...\n      ADD \t\t\tions[idx] = spendingConditions...\n      SWAP2 \t\t\tions[idx] = spendingConditions...\n    tag 409\t\t\tions[idx] = spendingConditions...\n      JUMPDEST \t\t\tions[idx] = spendingConditions...\n      POP \t\t\tions[idx] = spendingConditions...\n      POP \t\t\tions[idx] = spendingConditions...\n      POP \t\t\tions[idx] = spendingConditions...\n      POP \t\t\tions[idx] = spendingConditions...\n      POP \t\t\tions[idx] = spendingConditions...\n      DUP2 \t\t\tions[idx] = spendingConditions...\n      MSTORE \t\t\tions[idx] = spendingConditions...\n      PUSH 20\t\t\tions[idx] = spendingConditions...\n      ADD \t\t\tions[idx] = spendingConditions...\n      PUSH 1\t\t\tions[idx] = spendingConditions...\n      DUP3 \t\t\tions[idx] = spendingConditions...\n      ADD \t\t\tions[idx] = spendingConditions...\n      DUP1 \t\t\tions[idx] = spendingConditions...\n      SLOAD \t\t\tions[idx] = spendingConditions...\n      PUSH [tag] 412\t\t\tions[idx] = spendingConditions...\n      SWAP1 \t\t\tions[idx] = spendingConditions...\n      PUSH [tag] 149\t\t\tions[idx] = spendingConditions...\n      JUMP \t\t\tions[idx] = spendingConditions...\n    tag 412\t\t\tions[idx] = spendingConditions...\n      JUMPDEST \t\t\tions[idx] = spendingConditions...\n      DUP1 \t\t\tions[idx] = spendingConditions...\n      PUSH 1F\t\t\tions[idx] = spendingConditions...\n      ADD \t\t\tions[idx] = spendingConditions...\n      PUSH 20\t\t\tions[idx] = spendingConditions...\n      DUP1 \t\t\tions[idx] = spendingConditions...\n      SWAP2 \t\t\tions[idx] = spendingConditions...\n      DIV \t\t\tions[idx] = spendingConditions...\n      MUL \t\t\tions[idx] = spendingConditions...\n      PUSH 20\t\t\tions[idx] = spendingConditions...\n      ADD \t\t\tions[idx] = spendingConditions...\n      PUSH 40\t\t\tions[idx] = spendingConditions...\n      MLOAD \t\t\tions[idx] = spendingConditions...\n      SWAP1 \t\t\tions[idx] = spendingConditions...\n      DUP2 \t\t\tions[idx] = spendingConditions...\n      ADD \t\t\tions[idx] = spendingConditions...\n      PUSH 40\t\t\tions[idx] = spendingConditions...\n      MSTORE \t\t\tions[idx] = spendingConditions...\n      DUP1 \t\t\tions[idx] = spendingConditions...\n      SWAP3 \t\t\tions[idx] = spendingConditions...\n      SWAP2 \t\t\tions[idx] = spendingConditions...\n      SWAP1 \t\t\tions[idx] = spendingConditions...\n      DUP2 \t\t\tions[idx] = spendingConditions...\n      DUP2 \t\t\tions[idx] = spendingConditions...\n      MSTORE \t\t\tions[idx] = spendingConditions...\n      PUSH 20\t\t\tions[idx] = spendingConditions...\n      ADD \t\t\tions[idx] = spendingConditions...\n      DUP3 \t\t\tions[idx] = spendingConditions...\n      DUP1 \t\t\tions[idx] = spendingConditions...\n      SLOAD \t\t\tions[idx] = spendingConditions...\n      PUSH [tag] 413\t\t\tions[idx] = spendingConditions...\n      SWAP1 \t\t\tions[idx] = spendingConditions...\n      PUSH [tag] 149\t\t\tions[idx] = spendingConditions...\n      JUMP \t\t\tions[idx] = spendingConditions...\n    tag 413\t\t\tions[idx] = spendingConditions...\n      JUMPDEST \t\t\tions[idx] = spendingConditions...\n      DUP1 \t\t\tions[idx] = spendingConditions...\n      ISZERO \t\t\tions[idx] = spendingConditions...\n      PUSH [tag] 414\t\t\tions[idx] = spendingConditions...\n      JUMPI \t\t\tions[idx] = spendingConditions...\n      DUP1 \t\t\tions[idx] = spendingConditions...\n      PUSH 1F\t\t\tions[idx] = spendingConditions...\n      LT \t\t\tions[idx] = spendingConditions...\n      PUSH [tag] 415\t\t\tions[idx] = spendingConditions...\n      JUMPI \t\t\tions[idx] = spendingConditions...\n      PUSH 100\t\t\tions[idx] = spendingConditions...\n      DUP1 \t\t\tions[idx] = spendingConditions...\n      DUP4 \t\t\tions[idx] = spendingConditions...\n      SLOAD \t\t\tions[idx] = spendingConditions...\n      DIV \t\t\tions[idx] = spendingConditions...\n      MUL \t\t\tions[idx] = spendingConditions...\n      DUP4 \t\t\tions[idx] = spendingConditions...\n      MSTORE \t\t\tions[idx] = spendingConditions...\n      SWAP2 \t\t\tions[idx] = spendingConditions...\n      PUSH 20\t\t\tions[idx] = spendingConditions...\n      ADD \t\t\tions[idx] = spendingConditions...\n      SWAP2 \t\t\tions[idx] = spendingConditions...\n      PUSH [tag] 414\t\t\tions[idx] = spendingConditions...\n      JUMP \t\t\tions[idx] = spendingConditions...\n    tag 415\t\t\tions[idx] = spendingConditions...\n      JUMPDEST \t\t\tions[idx] = spendingConditions...\n      DUP3 \t\t\tions[idx] = spendingConditions...\n      ADD \t\t\tions[idx] = spendingConditions...\n      SWAP2 \t\t\tions[idx] = spendingConditions...\n      SWAP1 \t\t\tions[idx] = spendingConditions...\n      PUSH 0\t\t\tions[idx] = spendingConditions...\n      MSTORE \t\t\tions[idx] = spendingConditions...\n      PUSH 20\t\t\tions[idx] = spendingConditions...\n      PUSH 0\t\t\tions[idx] = spendingConditions...\n      KECCAK256 \t\t\tions[idx] = spendingConditions...\n      SWAP1 \t\t\tions[idx] = spendingConditions...\n    tag 416\t\t\tions[idx] = spendingConditions...\n      JUMPDEST \t\t\tions[idx] = spendingConditions...\n      DUP2 \t\t\tions[idx] = spendingConditions...\n      SLOAD \t\t\tions[idx] = spendingConditions...\n      DUP2 \t\t\tions[idx] = spendingConditions...\n      MSTORE \t\t\tions[idx] = spendingConditions...\n      SWAP1 \t\t\tions[idx] = spendingConditions...\n      PUSH 1\t\t\tions[idx] = spendingConditions...\n      ADD \t\t\tions[idx] = spendingConditions...\n      SWAP1 \t\t\tions[idx] = spendingConditions...\n      PUSH 20\t\t\tions[idx] = spendingConditions...\n      ADD \t\t\tions[idx] = spendingConditions...\n      DUP1 \t\t\tions[idx] = spendingConditions...\n      DUP4 \t\t\tions[idx] = spendingConditions...\n      GT \t\t\tions[idx] = spendingConditions...\n      PUSH [tag] 416\t\t\tions[idx] = spendingConditions...\n      JUMPI \t\t\tions[idx] = spendingConditions...\n      DUP3 \t\t\tions[idx] = spendingConditions...\n      SWAP1 \t\t\tions[idx] = spendingConditions...\n      SUB \t\t\tions[idx] = spendingConditions...\n      PUSH 1F\t\t\tions[idx] = spendingConditions...\n      AND \t\t\tions[idx] = spendingConditions...\n      DUP3 \t\t\tions[idx] = spendingConditions...\n      ADD \t\t\tions[idx] = spendingConditions...\n      SWAP2 \t\t\tions[idx] = spendingConditions...\n    tag 414\t\t\tions[idx] = spendingConditions...\n      JUMPDEST \t\t\tions[idx] = spendingConditions...\n      POP \t\t\tions[idx] = spendingConditions...\n      POP \t\t\tions[idx] = spendingConditions...\n      POP \t\t\tions[idx] = spendingConditions...\n      POP \t\t\tions[idx] = spendingConditions...\n      POP \t\t\tions[idx] = spendingConditions...\n      DUP2 \t\t\tions[idx] = spendingConditions...\n      MSTORE \t\t\tions[idx] = spendingConditions...\n      PUSH 20\t\t\tions[idx] = spendingConditions...\n      ADD \t\t\tions[idx] = spendingConditions...\n      PUSH 2\t\t\tions[idx] = spendingConditions...\n      DUP3 \t\t\tions[idx] = spendingConditions...\n      ADD \t\t\tions[idx] = spendingConditions...\n      DUP1 \t\t\tions[idx] = spendingConditions...\n      SLOAD \t\t\tions[idx] = spendingConditions...\n      PUSH [tag] 417\t\t\tions[idx] = spendingConditions...\n      SWAP1 \t\t\tions[idx] = spendingConditions...\n      PUSH [tag] 149\t\t\tions[idx] = spendingConditions...\n      JUMP \t\t\tions[idx] = spendingConditions...\n    tag 417\t\t\tions[idx] = spendingConditions...\n      JUMPDEST \t\t\tions[idx] = spendingConditions...\n      DUP1 \t\t\tions[idx] = spendingConditions...\n      PUSH 1F\t\t\tions[idx] = spendingConditions...\n      ADD \t\t\tions[idx] = spendingConditions...\n      PUSH 20\t\t\tions[idx] = spendingConditions...\n      DUP1 \t\t\tions[idx] = spendingConditions...\n      SWAP2 \t\t\tions[idx] = spendingConditions...\n      DIV \t\t\tions[idx] = spendingConditions...\n      MUL \t\t\tions[idx] = spendingConditions...\n      PUSH 20\t\t\tions[idx] = spendingConditions...\n      ADD \t\t\tions[idx] = spendingConditions...\n      PUSH 40\t\t\tions[idx] = spendingConditions...\n      MLOAD \t\t\tions[idx] = spendingConditions...\n      SWAP1 \t\t\tions[idx] = spendingConditions...\n      DUP2 \t\t\tions[idx] = spendingConditions...\n      ADD \t\t\tions[idx] = spendingConditions...\n      PUSH 40\t\t\tions[idx] = spendingConditions...\n      MSTORE \t\t\tions[idx] = spendingConditions...\n      DUP1 \t\t\tions[idx] = spendingConditions...\n      SWAP3 \t\t\tions[idx] = spendingConditions...\n      SWAP2 \t\t\tions[idx] = spendingConditions...\n      SWAP1 \t\t\tions[idx] = spendingConditions...\n      DUP2 \t\t\tions[idx] = spendingConditions...\n      DUP2 \t\t\tions[idx] = spendingConditions...\n      MSTORE \t\t\tions[idx] = spendingConditions...\n      PUSH 20\t\t\tions[idx] = spendingConditions...\n      ADD \t\t\tions[idx] = spendingConditions...\n      DUP3 \t\t\tions[idx] = spendingConditions...\n      DUP1 \t\t\tions[idx] = spendingConditions...\n      SLOAD \t\t\tions[idx] = spendingConditions...\n      PUSH [tag] 418\t\t\tions[idx] = spendingConditions...\n      SWAP1 \t\t\tions[idx] = spendingConditions...\n      PUSH [tag] 149\t\t\tions[idx] = spendingConditions...\n      JUMP \t\t\tions[idx] = spendingConditions...\n    tag 418\t\t\tions[idx] = spendingConditions...\n      JUMPDEST \t\t\tions[idx] = spendingConditions...\n      DUP1 \t\t\tions[idx] = spendingConditions...\n      ISZERO \t\t\tions[idx] = spendingConditions...\n      PUSH [tag] 419\t\t\tions[idx] = spendingConditions...\n      JUMPI \t\t\tions[idx] = spendingConditions...\n      DUP1 \t\t\tions[idx] = spendingConditions...\n      PUSH 1F\t\t\tions[idx] = spendingConditions...\n      LT \t\t\tions[idx] = spendingConditions...\n      PUSH [tag] 420\t\t\tions[idx] = spendingConditions...\n      JUMPI \t\t\tions[idx] = spendingConditions...\n      PUSH 100\t\t\tions[idx] = spendingConditions...\n      DUP1 \t\t\tions[idx] = spendingConditions...\n      DUP4 \t\t\tions[idx] = spendingConditions...\n      SLOAD \t\t\tions[idx] = spendingConditions...\n      DIV \t\t\tions[idx] = spendingConditions...\n      MUL \t\t\tions[idx] = spendingConditions...\n      DUP4 \t\t\tions[idx] = spendingConditions...\n      MSTORE \t\t\tions[idx] = spendingConditions...\n      SWAP2 \t\t\tions[idx] = spendingConditions...\n      PUSH 20\t\t\tions[idx] = spendingConditions...\n      ADD \t\t\tions[idx] = spendingConditions...\n      SWAP2 \t\t\tions[idx] = spendingConditions...\n      PUSH [tag] 419\t\t\tions[idx] = spendingConditions...\n      JUMP \t\t\tions[idx] = spendingConditions...\n    tag 420\t\t\tions[idx] = spendingConditions...\n      JUMPDEST \t\t\tions[idx] = spendingConditions...\n      DUP3 \t\t\tions[idx] = spendingConditions...\n      ADD \t\t\tions[idx] = spendingConditions...\n      SWAP2 \t\t\tions[idx] = spendingConditions...\n      SWAP1 \t\t\tions[idx] = spendingConditions...\n      PUSH 0\t\t\tions[idx] = spendingConditions...\n      MSTORE \t\t\tions[idx] = spendingConditions...\n      PUSH 20\t\t\tions[idx] = spendingConditions...\n      PUSH 0\t\t\tions[idx] = spendingConditions...\n      KECCAK256 \t\t\tions[idx] = spendingConditions...\n      SWAP1 \t\t\tions[idx] = spendingConditions...\n    tag 421\t\t\tions[idx] = spendingConditions...\n      JUMPDEST \t\t\tions[idx] = spendingConditions...\n      DUP2 \t\t\tions[idx] = spendingConditions...\n      SLOAD \t\t\tions[idx] = spendingConditions...\n      DUP2 \t\t\tions[idx] = spendingConditions...\n      MSTORE \t\t\tions[idx] = spendingConditions...\n      SWAP1 \t\t\tions[idx] = spendingConditions...\n      PUSH 1\t\t\tions[idx] = spendingConditions...\n      ADD \t\t\tions[idx] = spendingConditions...\n      SWAP1 \t\t\tions[idx] = spendingConditions...\n      PUSH 20\t\t\tions[idx] = spendingConditions...\n      ADD \t\t\tions[idx] = spendingConditions...\n      DUP1 \t\t\tions[idx] = spendingConditions...\n      DUP4 \t\t\tions[idx] = spendingConditions...\n      GT \t\t\tions[idx] = spendingConditions...\n      PUSH [tag] 421\t\t\tions[idx] = spendingConditions...\n      JUMPI \t\t\tions[idx] = spendingConditions...\n      DUP3 \t\t\tions[idx] = spendingConditions...\n      SWAP1 \t\t\tions[idx] = spendingConditions...\n      SUB \t\t\tions[idx] = spendingConditions...\n      PUSH 1F\t\t\tions[idx] = spendingConditions...\n      AND \t\t\tions[idx] = spendingConditions...\n      DUP3 \t\t\tions[idx] = spendingConditions...\n      ADD \t\t\tions[idx] = spendingConditions...\n      SWAP2 \t\t\tions[idx] = spendingConditions...\n    tag 419\t\t\tions[idx] = spendingConditions...\n      JUMPDEST \t\t\tions[idx] = spendingConditions...\n      POP \t\t\tions[idx] = spendingConditions...\n      POP \t\t\tions[idx] = spendingConditions...\n      POP \t\t\tions[idx] = spendingConditions...\n      POP \t\t\tions[idx] = spendingConditions...\n      POP \t\t\tions[idx] = spendingConditions...\n      DUP2 \t\t\tions[idx] = spendingConditions...\n      MSTORE \t\t\tions[idx] = spendingConditions...\n      POP \t\t\tions[idx] = spendingConditions...\n      POP \t\t\tions[idx] = spendingConditions...\n      DUP4 \t\t\tions[idx] \n      DUP4 \t\t\t sp\n      DUP2 \t\t\tions[idx] = spe\n      MLOAD \t\t\tions[idx] = spe\n      DUP2 \t\t\tions[idx] = spe\n      LT \t\t\tions[idx] = spe\n      PUSH [tag] 422\t\t\tions[idx] = spe\n      JUMPI \t\t\tions[idx] = spe\n      PUSH [tag] 423\t\t\tions[idx] = spe\n      PUSH [tag] 163\t\t\tions[idx] = spe\n      JUMP \t\t\tions[idx] = spe\n    tag 423\t\t\tions[idx] = spe\n      JUMPDEST \t\t\tions[idx] = spe\n    tag 422\t\t\tions[idx] = spe\n      JUMPDEST \t\t\tions[idx] = spe\n      PUSH 20\t\t\tions[idx] = spe\n      MUL \t\t\tions[idx] = spe\n      PUSH 20\t\t\tions[idx] = spe\n      ADD \t\t\tions[idx] = spe\n      ADD \t\t\tions[idx] = spe\n      DUP2 \t\t\tions[idx] = spendingConditions...\n      SWAP1 \t\t\tions[idx] = spendingConditions...\n      MSTORE \t\t\tions[idx] = spendingConditions...\n      POP \t\t\tions[idx] = spendingConditions...\n      DUP2 \t\t\t\\r\\n   \n      DUP1 \t\t\t\\r\\n   \n      PUSH [tag] 424\t\t\t\\r\\n   \n      SWAP1 \t\t\t\\r\\n   \n      PUSH [tag] 179\t\t\t\\r\\n   \n      JUMP \t\t\t\\r\\n   \n    tag 424\t\t\t\\r\\n   \n      JUMPDEST \t\t\t\\r\\n   \n      SWAP3 \t\t\t\\r\\n   \n      POP \t\t\t\\r\\n   \n      POP \t\t\t\\r\\n   \n    tag 400\t\t\ttes(spendingConditions[tokenID...\n      JUMPDEST \t\t\ttes(spendingConditions[tokenID...\n      DUP1 \t\t\t\\r\\n \n      DUP1 \t\t\t\\r\\n \n      PUSH [tag] 425\t\t\t\\r\\n \n      SWAP1 \t\t\t\\r\\n \n      PUSH [tag] 179\t\t\t\\r\\n \n      JUMP \t\t\t\\r\\n \n    tag 425\t\t\t\\r\\n \n      JUMPDEST \t\t\t\\r\\n \n      SWAP2 \t\t\t\\r\\n \n      POP \t\t\t\\r\\n \n      POP \t\t\t\\r\\n \n      PUSH [tag] 394\t\t\tint256 i = 0; i < ids.length; ...\n      JUMP \t\t\tint256 i = 0; i < ids.length; ...\n    tag 395\t\t\tint256 i = 0; i < ids.length; ...\n      JUMPDEST \t\t\tint256 i = 0; i < ids.length; ...\n      POP \t\t\tint256 i = 0; i < ids.length; ...\n      DUP3 \t\t\tedIDs, cond\n      DUP3 \t\t\tions);\\r\\n  \n      SWAP7 \t\t\t (filteredIDs, conditions);\\r\\...\n      POP \t\t\t (filteredIDs, conditions);\\r\\...\n      SWAP7 \t\t\t (filteredIDs, conditions);\\r\\...\n      POP \t\t\t (filteredIDs, conditions);\\r\\...\n      POP \t\t\t (filteredIDs, conditions);\\r\\...\n      POP \t\t\t (filteredIDs, conditions);\\r\\...\n      POP \t\t\t (filteredIDs, conditions);\\r\\...\n      POP \t\t\t (filteredIDs, conditions);\\r\\...\n      POP \t\t\t (filteredIDs, conditions);\\r\\...\n      SWAP3 \t\t\ton getSpendingConditions(uint2...\n      POP \t\t\ton getSpendingConditions(uint2...\n      SWAP3 \t\t\ton getSpendingConditions(uint2...\n      SWAP1 \t\t\ton getSpendingConditions(uint2...\n      POP \t\t\ton getSpendingConditions(uint2...\n      JUMP \t\t\ton getSpendingConditions(uint2...\n    tag 118\t\t\t[] public proofRequestIDs;\\r\\n...\n      JUMPDEST \t\t\t[] public proofRequestIDs;\\r\\n...\n      PUSH A\t\t\t[] public proofRequestIDs;\\r\\n...\n      DUP2 \t\t\t[] public proofRequestIDs;\\r\\n...\n      DUP2 \t\t\t[] public proofRequestIDs;\\r\\n...\n      SLOAD \t\t\t[] public proofRequestIDs;\\r\\n...\n      DUP2 \t\t\t[] public proofRequestIDs;\\r\\n...\n      LT \t\t\t[] public proofRequestIDs;\\r\\n...\n      PUSH [tag] 426\t\t\t[] public proofRequestIDs;\\r\\n...\n      JUMPI \t\t\t[] public proofRequestIDs;\\r\\n...\n      PUSH 0\t\t\t[] public proofRequestIDs;\\r\\n...\n      DUP1 \t\t\t[] public proofRequestIDs;\\r\\n...\n      REVERT \t\t\t[] public proofRequestIDs;\\r\\n...\n    tag 426\t\t\t[] public proofRequestIDs;\\r\\n...\n      JUMPDEST \t\t\t[] public proofRequestIDs;\\r\\n...\n      SWAP1 \t\t\t[] public proofRequestIDs;\\r\\n...\n      PUSH 0\t\t\t[] public proofRequestIDs;\\r\\n...\n      MSTORE \t\t\t[] public proofRequestIDs;\\r\\n...\n      PUSH 20\t\t\t[] public proofRequestIDs;\\r\\n...\n      PUSH 0\t\t\t[] public proofRequestIDs;\\r\\n...\n      KECCAK256 \t\t\t[] public proofRequestIDs;\\r\\n...\n      SWAP1 \t\t\t[] public proofRequestIDs;\\r\\n...\n      PUSH 4\t\t\t[] public proofRequestIDs;\\r\\n...\n      SWAP2 \t\t\t[] public proofRequestIDs;\\r\\n...\n      DUP3 \t\t\t[] public proofRequestIDs;\\r\\n...\n      DUP3 \t\t\t[] public proofRequestIDs;\\r\\n...\n      DIV \t\t\t[] public proofRequestIDs;\\r\\n...\n      ADD \t\t\t[] public proofRequestIDs;\\r\\n...\n      SWAP2 \t\t\t[] public proofRequestIDs;\\r\\n...\n      SWAP1 \t\t\t[] public proofRequestIDs;\\r\\n...\n      MOD \t\t\t[] public proofRequestIDs;\\r\\n...\n      PUSH 8\t\t\t[] public proofRequestIDs;\\r\\n...\n      MUL \t\t\t[] public proofRequestIDs;\\r\\n...\n      SWAP2 \t\t\t[] public proofRequestIDs;\\r\\n...\n      POP \t\t\t[] public proofRequestIDs;\\r\\n...\n      SLOAD \t\t\t[] public proofRequestIDs;\\r\\n...\n      SWAP1 \t\t\t[] public proofRequestIDs;\\r\\n...\n      PUSH 100\t\t\t[] public proofRequestIDs;\\r\\n...\n      EXP \t\t\t[] public proofRequestIDs;\\r\\n...\n      SWAP1 \t\t\t[] public proofRequestIDs;\\r\\n...\n      DIV \t\t\t[] public proofRequestIDs;\\r\\n...\n      PUSH FFFFFFFFFFFFFFFF\t\t\t[] public proofRequestIDs;\\r\\n...\n      AND \t\t\t[] public proofRequestIDs;\\r\\n...\n      DUP2 \t\t\t[] public proofRequestIDs;\\r\\n...\n      JUMP \t\t\t[] public proofRequestIDs;\\r\\n...\n    tag 123\t\t\tmapping(uint256 => string) pub...\n      JUMPDEST \t\t\tmapping(uint256 => string) pub...\n      PUSH 7\t\t\tmapping(uint256 => string) pub...\n      PUSH 20\t\t\tmapping(uint256 => string) pub...\n      MSTORE \t\t\tmapping(uint256 => string) pub...\n      DUP1 \t\t\tmapping(uint256 => string) pub...\n      PUSH 0\t\t\tmapping(uint256 => string) pub...\n      MSTORE \t\t\tmapping(uint256 => string) pub...\n      PUSH 40\t\t\tmapping(uint256 => string) pub...\n      PUSH 0\t\t\tmapping(uint256 => string) pub...\n      KECCAK256 \t\t\tmapping(uint256 => string) pub...\n      PUSH 0\t\t\tmapping(uint256 => string) pub...\n      SWAP2 \t\t\tmapping(uint256 => string) pub...\n      POP \t\t\tmapping(uint256 => string) pub...\n      SWAP1 \t\t\tmapping(uint256 => string) pub...\n      POP \t\t\tmapping(uint256 => string) pub...\n      DUP1 \t\t\tmapping(uint256 => string) pub...\n      SLOAD \t\t\tmapping(uint256 => string) pub...\n      PUSH [tag] 428\t\t\tmapping(uint256 => string) pub...\n      SWAP1 \t\t\tmapping(uint256 => string) pub...\n      PUSH [tag] 149\t\t\tmapping(uint256 => string) pub...\n      JUMP \t\t\tmapping(uint256 => string) pub...\n    tag 428\t\t\tmapping(uint256 => string) pub...\n      JUMPDEST \t\t\tmapping(uint256 => string) pub...\n      DUP1 \t\t\tmapping(uint256 => string) pub...\n      PUSH 1F\t\t\tmapping(uint256 => string) pub...\n      ADD \t\t\tmapping(uint256 => string) pub...\n      PUSH 20\t\t\tmapping(uint256 => string) pub...\n      DUP1 \t\t\tmapping(uint256 => string) pub...\n      SWAP2 \t\t\tmapping(uint256 => string) pub...\n      DIV \t\t\tmapping(uint256 => string) pub...\n      MUL \t\t\tmapping(uint256 => string) pub...\n      PUSH 20\t\t\tmapping(uint256 => string) pub...\n      ADD \t\t\tmapping(uint256 => string) pub...\n      PUSH 40\t\t\tmapping(uint256 => string) pub...\n      MLOAD \t\t\tmapping(uint256 => string) pub...\n      SWAP1 \t\t\tmapping(uint256 => string) pub...\n      DUP2 \t\t\tmapping(uint256 => string) pub...\n      ADD \t\t\tmapping(uint256 => string) pub...\n      PUSH 40\t\t\tmapping(uint256 => string) pub...\n      MSTORE \t\t\tmapping(uint256 => string) pub...\n      DUP1 \t\t\tmapping(uint256 => string) pub...\n      SWAP3 \t\t\tmapping(uint256 => string) pub...\n      SWAP2 \t\t\tmapping(uint256 => string) pub...\n      SWAP1 \t\t\tmapping(uint256 => string) pub...\n      DUP2 \t\t\tmapping(uint256 => string) pub...\n      DUP2 \t\t\tmapping(uint256 => string) pub...\n      MSTORE \t\t\tmapping(uint256 => string) pub...\n      PUSH 20\t\t\tmapping(uint256 => string) pub...\n      ADD \t\t\tmapping(uint256 => string) pub...\n      DUP3 \t\t\tmapping(uint256 => string) pub...\n      DUP1 \t\t\tmapping(uint256 => string) pub...\n      SLOAD \t\t\tmapping(uint256 => string) pub...\n      PUSH [tag] 429\t\t\tmapping(uint256 => string) pub...\n      SWAP1 \t\t\tmapping(uint256 => string) pub...\n      PUSH [tag] 149\t\t\tmapping(uint256 => string) pub...\n      JUMP \t\t\tmapping(uint256 => string) pub...\n    tag 429\t\t\tmapping(uint256 => string) pub...\n      JUMPDEST \t\t\tmapping(uint256 => string) pub...\n      DUP1 \t\t\tmapping(uint256 => string) pub...\n      ISZERO \t\t\tmapping(uint256 => string) pub...\n      PUSH [tag] 430\t\t\tmapping(uint256 => string) pub...\n      JUMPI \t\t\tmapping(uint256 => string) pub...\n      DUP1 \t\t\tmapping(uint256 => string) pub...\n      PUSH 1F\t\t\tmapping(uint256 => string) pub...\n      LT \t\t\tmapping(uint256 => string) pub...\n      PUSH [tag] 431\t\t\tmapping(uint256 => string) pub...\n      JUMPI \t\t\tmapping(uint256 => string) pub...\n      PUSH 100\t\t\tmapping(uint256 => string) pub...\n      DUP1 \t\t\tmapping(uint256 => string) pub...\n      DUP4 \t\t\tmapping(uint256 => string) pub...\n      SLOAD \t\t\tmapping(uint256 => string) pub...\n      DIV \t\t\tmapping(uint256 => string) pub...\n      MUL \t\t\tmapping(uint256 => string) pub...\n      DUP4 \t\t\tmapping(uint256 => string) pub...\n      MSTORE \t\t\tmapping(uint256 => string) pub...\n      SWAP2 \t\t\tmapping(uint256 => string) pub...\n      PUSH 20\t\t\tmapping(uint256 => string) pub...\n      ADD \t\t\tmapping(uint256 => string) pub...\n      SWAP2 \t\t\tmapping(uint256 => string) pub...\n      PUSH [tag] 430\t\t\tmapping(uint256 => string) pub...\n      JUMP \t\t\tmapping(uint256 => string) pub...\n    tag 431\t\t\tmapping(uint256 => string) pub...\n      JUMPDEST \t\t\tmapping(uint256 => string) pub...\n      DUP3 \t\t\tmapping(uint256 => string) pub...\n      ADD \t\t\tmapping(uint256 => string) pub...\n      SWAP2 \t\t\tmapping(uint256 => string) pub...\n      SWAP1 \t\t\tmapping(uint256 => string) pub...\n      PUSH 0\t\t\tmapping(uint256 => string) pub...\n      MSTORE \t\t\tmapping(uint256 => string) pub...\n      PUSH 20\t\t\tmapping(uint256 => string) pub...\n      PUSH 0\t\t\tmapping(uint256 => string) pub...\n      KECCAK256 \t\t\tmapping(uint256 => string) pub...\n      SWAP1 \t\t\tmapping(uint256 => string) pub...\n    tag 432\t\t\tmapping(uint256 => string) pub...\n      JUMPDEST \t\t\tmapping(uint256 => string) pub...\n      DUP2 \t\t\tmapping(uint256 => string) pub...\n      SLOAD \t\t\tmapping(uint256 => string) pub...\n      DUP2 \t\t\tmapping(uint256 => string) pub...\n      MSTORE \t\t\tmapping(uint256 => string) pub...\n      SWAP1 \t\t\tmapping(uint256 => string) pub...\n      PUSH 1\t\t\tmapping(uint256 => string) pub...\n      ADD \t\t\tmapping(uint256 => string) pub...\n      SWAP1 \t\t\tmapping(uint256 => string) pub...\n      PUSH 20\t\t\tmapping(uint256 => string) pub...\n      ADD \t\t\tmapping(uint256 => string) pub...\n      DUP1 \t\t\tmapping(uint256 => string) pub...\n      DUP4 \t\t\tmapping(uint256 => string) pub...\n      GT \t\t\tmapping(uint256 => string) pub...\n      PUSH [tag] 432\t\t\tmapping(uint256 => string) pub...\n      JUMPI \t\t\tmapping(uint256 => string) pub...\n      DUP3 \t\t\tmapping(uint256 => string) pub...\n      SWAP1 \t\t\tmapping(uint256 => string) pub...\n      SUB \t\t\tmapping(uint256 => string) pub...\n      PUSH 1F\t\t\tmapping(uint256 => string) pub...\n      AND \t\t\tmapping(uint256 => string) pub...\n      DUP3 \t\t\tmapping(uint256 => string) pub...\n      ADD \t\t\tmapping(uint256 => string) pub...\n      SWAP2 \t\t\tmapping(uint256 => string) pub...\n    tag 430\t\t\tmapping(uint256 => string) pub...\n      JUMPDEST \t\t\tmapping(uint256 => string) pub...\n      POP \t\t\tmapping(uint256 => string) pub...\n      POP \t\t\tmapping(uint256 => string) pub...\n      POP \t\t\tmapping(uint256 => string) pub...\n      POP \t\t\tmapping(uint256 => string) pub...\n      POP \t\t\tmapping(uint256 => string) pub...\n      DUP2 \t\t\tmapping(uint256 => string) pub...\n      JUMP \t\t\tmapping(uint256 => string) pub...\n    tag 128\t\t\t=> mapping(uint64 => SpendingC...\n      JUMPDEST \t\t\t=> mapping(uint64 => SpendingC...\n      PUSH 0\t\t\t sto\n      PUSH 1\t\t\ts only for iterati\n      PUSH 0\t\t\ts only for iteration.\\r\\n    \n      DUP5 \t\t\tn.\\r\\n   \n      PUSH FFFFFFFFFFFFFFFFFFFFFFFFFFFFFFFFFFFFFFFF\t\t\ts only for iteration.\\r\\n    \n      AND \t\t\ts only for iteration.\\r\\n    \n      PUSH FFFFFFFFFFFFFFFFFFFFFFFFFFFFFFFFFFFFFFFF\t\t\ts only for iteration.\\r\\n    \n      AND \t\t\ts only for iteration.\\r\\n    \n      DUP2 \t\t\ts only for iteration.\\r\\n    \n      MSTORE \t\t\ts only for iteration.\\r\\n    \n      PUSH 20\t\t\ts only for iteration.\\r\\n    \n      ADD \t\t\ts only for iteration.\\r\\n    \n      SWAP1 \t\t\ts only for iteration.\\r\\n    \n      DUP2 \t\t\ts only for iteration.\\r\\n    \n      MSTORE \t\t\ts only for iteration.\\r\\n    \n      PUSH 20\t\t\ts only for iteration.\\r\\n    \n      ADD \t\t\ts only for iteration.\\r\\n    \n      PUSH 0\t\t\ts only for iteration.\\r\\n    \n      KECCAK256 \t\t\ts only for iteration.\\r\\n    \n      PUSH 0\t\t\ts only for iteration.\\r\\n    u...\n      DUP4 \t\t\tint64[] \n      PUSH FFFFFFFFFFFFFFFFFFFFFFFFFFFFFFFFFFFFFFFF\t\t\ts only for iteration.\\r\\n    u...\n      AND \t\t\ts only for iteration.\\r\\n    u...\n      PUSH FFFFFFFFFFFFFFFFFFFFFFFFFFFFFFFFFFFFFFFF\t\t\ts only for iteration.\\r\\n    u...\n      AND \t\t\ts only for iteration.\\r\\n    u...\n      DUP2 \t\t\ts only for iteration.\\r\\n    u...\n      MSTORE \t\t\ts only for iteration.\\r\\n    u...\n      PUSH 20\t\t\ts only for iteration.\\r\\n    u...\n      ADD \t\t\ts only for iteration.\\r\\n    u...\n      SWAP1 \t\t\ts only for iteration.\\r\\n    u...\n      DUP2 \t\t\ts only for iteration.\\r\\n    u...\n      MSTORE \t\t\ts only for iteration.\\r\\n    u...\n      PUSH 20\t\t\ts only for iteration.\\r\\n    u...\n      ADD \t\t\ts only for iteration.\\r\\n    u...\n      PUSH 0\t\t\ts only for iteration.\\r\\n    u...\n      KECCAK256 \t\t\ts only for iteration.\\r\\n    u...\n      PUSH 0\t\t\ts only for iteration.\\r\\n    u...\n      SWAP1 \t\t\ts only for iteration.\\r\\n    u...\n      SLOAD \t\t\ts only for iteration.\\r\\n    u...\n      SWAP1 \t\t\ts only for iteration.\\r\\n    u...\n      PUSH 100\t\t\ts only for iteration.\\r\\n    u...\n      EXP \t\t\ts only for iteration.\\r\\n    u...\n      SWAP1 \t\t\ts only for iteration.\\r\\n    u...\n      DIV \t\t\ts only for iteration.\\r\\n    u...\n      PUSH FF\t\t\ts only for iteration.\\r\\n    u...\n      AND \t\t\ts only for iteration.\\r\\n    u...\n      SWAP1 \t\t\tuest_ids only for iteration.\\r...\n      POP \t\t\tuest_ids only for iteration.\\r...\n      SWAP3 \t\t\t=> mapping(uint64 => SpendingC...\n      SWAP2 \t\t\t=> mapping(uint64 => SpendingC...\n      POP \t\t\t=> mapping(uint64 => SpendingC...\n      POP \t\t\t=> mapping(uint64 => SpendingC...\n      JUMP \t\t\t=> mapping(uint64 => SpendingC...\n    tag 133\t\t\tafeTransferFrom(\\r\\n        ad...\n      JUMPDEST \t\t\tafeTransferFrom(\\r\\n        ad...\n      PUSH [tag] 435\t\t\troofsVerified(tokenID, from, t...\n      DUP4 \t\t\trom, to\n      DUP7 \t\t\t\\r\\n\\r\\n\n      DUP7 \t\t\t  \n      PUSH [tag] 241\t\t\troofsVerified(tokenID, \n      JUMP \t\t\troofsVerified(tokenID, from, t...\n    tag 435\t\t\troofsVerified(tokenID, from, t...\n      JUMPDEST \t\t\troofsVerified(tokenID, from, t...\n      PUSH [tag] 436\t\t\tTransferFrom(from, to, tokenID...\n      DUP6 \t\t\ttoke\n      DUP6 \t\t\tD,\n      DUP6 \t\t\tmount, \n      DUP6 \t\t\tta);\\r\\n\n      DUP6 \t\t\t  }\\r\n      PUSH [tag] 437\t\t\tTransferFrom(from, to,\n      JUMP \t\t\tTransferFrom(from, to, tokenID...\n    tag 436\t\t\tTransferFrom(from, to, tokenID...\n      JUMPDEST \t\t\tTransferFrom(from, to, tokenID...\n      POP \t\t\tafeTransferFrom(\\r\\n        ad...\n      POP \t\t\tafeTransferFrom(\\r\\n        ad...\n      POP \t\t\tafeTransferFrom(\\r\\n        ad...\n      POP \t\t\tafeTransferFrom(\\r\\n        ad...\n      POP \t\t\tafeTransferFrom(\\r\\n        ad...\n      JUMP \t\t\tafeTransferFrom(\\r\\n        ad...\n    tag 136\t\t\tto its name. But the token nam...\n      JUMPDEST \t\t\tto its name. But the token nam...\n      PUSH [tag] 439\t\t\tush(_admin);\\r\n      PUSH [tag] 156\t\t\tush(_admin)\n      JUMP \t\t\tush(_admin);\\r\n    tag 439\t\t\tush(_admin);\\r\n      JUMPDEST \t\t\tush(_admin);\\r\n      PUSH 0\t\t\tg\n      PUSH FFFFFFFFFFFFFFFFFFFFFFFFFFFFFFFFFFFFFFFF\t\t\ting(uint256 => string)\n      AND \t\t\ting(uint256 => string)\n      DUP2 \t\t\ting(uint\n      PUSH FFFFFFFFFFFFFFFFFFFFFFFFFFFFFFFFFFFFFFFF\t\t\ting(uint256 => string)\n      AND \t\t\ting(uint256 => string)\n      SUB \t\t\ting(uint256 => string)\n      PUSH [tag] 441\t\t\tmapping(uint256 => string) pub...\n      JUMPI \t\t\tmapping(uint256 => string) pub...\n      PUSH 0\t\t\t \n      PUSH 40\t\t\t\\n    // Mapping from tokenID ...\n      MLOAD \t\t\t\\n    // Mapping from tokenID ...\n      PUSH 1E4FBDF700000000000000000000000000000000000000000000000000000000\t\t\t\\n    // Mapping from tokenID ...\n      DUP2 \t\t\t\\n    // Mapping from tokenID ...\n      MSTORE \t\t\t\\n    // Mapping from tokenID ...\n      PUSH 4\t\t\t\\n    // Mapping from tokenID ...\n      ADD \t\t\t\\n    // Mapping from tokenID ...\n      PUSH [tag] 442\t\t\t\\n    // Mapping from tokenID ...\n      SWAP2 \t\t\t\\n    // Mapping from tokenID ...\n      SWAP1 \t\t\t\\n    // Mapping from tokenID ...\n      PUSH [tag] 101\t\t\t\\n    // Mapping from tokenID ...\n      JUMP \t\t\t\\n    // Mapping from tokenID ...\n    tag 442\t\t\t\\n    // Mapping from tokenID ...\n      JUMPDEST \t\t\t\\n    // Mapping from tokenID ...\n      PUSH 40\t\t\t\\n    // Mapping from tokenID ...\n      MLOAD \t\t\t\\n    // Mapping from tokenID ...\n      DUP1 \t\t\t\\n    // Mapping from tokenID ...\n      SWAP2 \t\t\t\\n    // Mapping from tokenID ...\n      SUB \t\t\t\\n    // Mapping from tokenID ...\n      SWAP1 \t\t\t\\n    // Mapping from tokenID ...\n      REVERT \t\t\t\\n    // Mapping from tokenID ...\n    tag 441\t\t\tmapping(uint256 => string) pub...\n      JUMPDEST \t\t\tmapping(uint256 => string) pub...\n      PUSH [tag] 443\t\t\tess to proof_request_id to p\n      DUP2 \t\t\tt_id to \n      PUSH [tag] 339\t\t\tess to proof_reque\n      JUMP \t\t\tess to proof_request_id to p\n    tag 443\t\t\tess to proof_request_id to p\n      JUMPDEST \t\t\tess to proof_request_id to p\n      POP \t\t\tto its name. But the token nam...\n      JUMP \t\t\tto its name. But the token nam...\n    tag 140\t\t\turn(address account, uint256 I...\n      JUMPDEST \t\t\turn(address account, uint256 I...\n      PUSH [tag] 445\t\t\tush(_admin);\\r\n      PUSH [tag] 156\t\t\tush(_admin)\n      JUMP \t\t\tush(_admin);\\r\n    tag 445\t\t\tush(_admin);\\r\n      JUMPDEST \t\t\tush(_admin);\\r\n      PUSH [tag] 447\t\t\tunt, ID, amount);\\r\\n    }\\r\\n\n      DUP4 \t\t\tD, amou\n      DUP4 \t\t\t);\n      DUP4 \t\t\t    }\\r\n      PUSH [tag] 448\t\t\tunt, \n      JUMP \t\t\tunt, ID, amount);\\r\\n    }\\r\\n\n    tag 447\t\t\tunt, ID, amount);\\r\\n    }\\r\\n\n      JUMPDEST \t\t\tunt, ID, amount);\\r\\n    }\\r\\n\n      POP \t\t\turn(address account, uint256 I...\n      POP \t\t\turn(address account, uint256 I...\n      POP \t\t\turn(address account, uint256 I...\n      JUMP \t\t\turn(address account, uint256 I...\n    tag 146\t\t\t  // Getter function for the a...\n      JUMPDEST \t\t\t  // Getter function for the a...\n      PUSH 0\t\t\tfunc\n      PUSH 1FFC9A700000000000000000000000000000000000000000000000000000000\t\t\twner returns (address[] m\n      PUSH FFFFFFFFFFFFFFFFFFFFFFFFFFFFFFFFFFFFFFFFFFFFFFFFFFFFFFFF\t\t\tblic view onlyOwner returns (a...\n      NOT \t\t\tblic view onlyOwner returns (a...\n      AND \t\t\tblic view onlyOwner returns (a...\n      DUP3 \t\t\tblic view o\n      PUSH FFFFFFFFFFFFFFFFFFFFFFFFFFFFFFFFFFFFFFFFFFFFFFFFFFFFFFFF\t\t\tblic view onlyOwner returns (a...\n      NOT \t\t\tblic view onlyOwner returns (a...\n      AND \t\t\tblic view onlyOwner returns (a...\n      EQ \t\t\tblic view onlyOwner returns (a...\n      SWAP1 \t\t\tns() public view onlyOwner ret...\n      POP \t\t\tns() public view onlyOwner ret...\n      SWAP2 \t\t\t  // Getter function for the a...\n      SWAP1 \t\t\t  // Getter function for the a...\n      POP \t\t\t  // Getter function for the a...\n      JUMP \t\t\t  // Getter function for the a...\n    tag 156\t\t\tmin) {\\r\\n                admi...\n      JUMPDEST \t\t\tmin) {\\r\\n                admi...\n      PUSH [tag] 451\t\t\tadmins.pop()\n      PUSH [tag] 371\t\t\tadmins.pop\n      JUMP \t\t\tadmins.pop()\n    tag 451\t\t\tadmins.pop()\n      JUMPDEST \t\t\tadmins.pop()\n      PUSH FFFFFFFFFFFFFFFFFFFFFFFFFFFFFFFFFFFFFFFF\t\t\t           admins.pop()\n      AND \t\t\t           admins.pop()\n      PUSH [tag] 452\t\t\t       \n      PUSH [tag] 99\t\t\t     \n      JUMP \t\t\t       \n    tag 452\t\t\t       \n      JUMPDEST \t\t\t       \n      PUSH FFFFFFFFFFFFFFFFFFFFFFFFFFFFFFFFFFFFFFFF\t\t\t           admins.pop()\n      AND \t\t\t           admins.pop()\n      EQ \t\t\t           admins.pop()\n      PUSH [tag] 453\t\t\t               admins.pop();\\r...\n      JUMPI \t\t\t               admins.pop();\\r...\n      PUSH [tag] 454\t\t\t }\\r\\n        \n      PUSH [tag] 371\t\t\t }\\r\\n      \n      JUMP \t\t\t }\\r\\n        \n    tag 454\t\t\t }\\r\\n        \n      JUMPDEST \t\t\t }\\r\\n        \n      PUSH 40\t\t\trn;\\r\\n            }\\r\\n      ...\n      MLOAD \t\t\trn;\\r\\n            }\\r\\n      ...\n      PUSH 118CDAA700000000000000000000000000000000000000000000000000000000\t\t\trn;\\r\\n            }\\r\\n      ...\n      DUP2 \t\t\trn;\\r\\n            }\\r\\n      ...\n      MSTORE \t\t\trn;\\r\\n            }\\r\\n      ...\n      PUSH 4\t\t\trn;\\r\\n            }\\r\\n      ...\n      ADD \t\t\trn;\\r\\n            }\\r\\n      ...\n      PUSH [tag] 455\t\t\trn;\\r\\n            }\\r\\n      ...\n      SWAP2 \t\t\trn;\\r\\n            }\\r\\n      ...\n      SWAP1 \t\t\trn;\\r\\n            }\\r\\n      ...\n      PUSH [tag] 101\t\t\trn;\\r\\n            }\\r\\n      ...\n      JUMP \t\t\trn;\\r\\n            }\\r\\n      ...\n    tag 455\t\t\trn;\\r\\n            }\\r\\n      ...\n      JUMPDEST \t\t\trn;\\r\\n            }\\r\\n      ...\n      PUSH 40\t\t\trn;\\r\\n            }\\r\\n      ...\n      MLOAD \t\t\trn;\\r\\n            }\\r\\n      ...\n      DUP1 \t\t\trn;\\r\\n            }\\r\\n      ...\n      SWAP2 \t\t\trn;\\r\\n            }\\r\\n      ...\n      SUB \t\t\trn;\\r\\n            }\\r\\n      ...\n      SWAP1 \t\t\trn;\\r\\n            }\\r\\n      ...\n      REVERT \t\t\trn;\\r\\n            }\\r\\n      ...\n    tag 453\t\t\t               admins.pop();\\r...\n      JUMPDEST \t\t\t               admins.pop();\\r...\n      JUMP \t\t\tmin) {\\r\\n                admi...\n    tag 187\t\t\t\n      JUMPDEST \t\t\t\n      PUSH 60\t\t\t\n      PUSH 0\t\t\t\n      PUSH [tag] 457\t\t\t\n      DUP4 \t\t\t\n      PUSH 0\t\t\t\n      ADD \t\t\t\n      PUSH [tag] 458\t\t\t\n      JUMP \t\t\t\n    tag 457\t\t\t\n      JUMPDEST \t\t\t\n      SWAP1 \t\t\t\n      POP \t\t\t\n      PUSH 60\t\t\t\n      DUP2 \t\t\t\n      SWAP1 \t\t\t\n      POP \t\t\t\n      DUP1 \t\t\t\n      SWAP3 \t\t\t\n      POP \t\t\t\n      POP \t\t\t\n      POP \t\t\t\n      SWAP2 \t\t\t\n      SWAP1 \t\t\t\n      POP \t\t\t\n      JUMP \t\t\t\n    tag 203\t\t\t][tempRequestIDs[i]];\\r\\n     ...\n      JUMPDEST \t\t\t][tempRequestIDs[i]];\\r\\n     ...\n      PUSH 0\t\t\te\n      PUSH FFFFFFFFFFFFFFFFFFFFFFFFFFFFFFFFFFFFFFFF\t\t\tk256(bytes(role)\n      AND \t\t\tk256(bytes(role)\n      DUP5 \t\t\tk2\n      PUSH FFFFFFFFFFFFFFFFFFFFFFFFFFFFFFFFFFFFFFFF\t\t\tk256(bytes(role)\n      AND \t\t\tk256(bytes(role)\n      SUB \t\t\tk256(bytes(role)\n      PUSH [tag] 460\t\t\teccak256(bytes(role)) == kecca...\n      JUMPI \t\t\teccak256(bytes(role)) == kecca...\n      PUSH 0\t\t\t \n      PUSH 40\t\t\tender\"))) {\\r\\n               ...\n      MLOAD \t\t\tender\"))) {\\r\\n               ...\n      PUSH 57F447CE00000000000000000000000000000000000000000000000000000000\t\t\tender\"))) {\\r\\n               ...\n      DUP2 \t\t\tender\"))) {\\r\\n               ...\n      MSTORE \t\t\tender\"))) {\\r\\n               ...\n      PUSH 4\t\t\tender\"))) {\\r\\n               ...\n      ADD \t\t\tender\"))) {\\r\\n               ...\n      PUSH [tag] 461\t\t\tender\"))) {\\r\\n               ...\n      SWAP2 \t\t\tender\"))) {\\r\\n               ...\n      SWAP1 \t\t\tender\"))) {\\r\\n               ...\n      PUSH [tag] 101\t\t\tender\"))) {\\r\\n               ...\n      JUMP \t\t\tender\"))) {\\r\\n               ...\n    tag 461\t\t\tender\"))) {\\r\\n               ...\n      JUMPDEST \t\t\tender\"))) {\\r\\n               ...\n      PUSH 40\t\t\tender\"))) {\\r\\n               ...\n      MLOAD \t\t\tender\"))) {\\r\\n               ...\n      DUP1 \t\t\tender\"))) {\\r\\n               ...\n      SWAP2 \t\t\tender\"))) {\\r\\n               ...\n      SUB \t\t\tender\"))) {\\r\\n               ...\n      SWAP1 \t\t\tender\"))) {\\r\\n               ...\n      REVERT \t\t\tender\"))) {\\r\\n               ...\n    tag 460\t\t\teccak256(bytes(role)) == kecca...\n      JUMPDEST \t\t\teccak256(bytes(role)) == kecca...\n      PUSH 0\t\t\tus(sender, tempReque\n      DUP1 \t\t\tIDs[i]).isVerified) {\\r\\n\n      PUSH [tag] 462\t\t\t                revert ProofN\n      DUP6 \t\t\ter\n      DUP6 \t\t\tProof\n      PUSH [tag] 463\t\t\t                re\n      JUMP \t\t\t                revert ProofN\n    tag 462\t\t\t                revert ProofN\n      JUMPDEST \t\t\t                revert ProofN\n      SWAP2 \t\t\ttus(sender, tempRequestIDs[i])...\n      POP \t\t\ttus(sender, tempRequestIDs[i])...\n      SWAP2 \t\t\ttus(sender, tempRequestIDs[i])...\n      POP \t\t\ttus(sender, tempRequestIDs[i])...\n      PUSH [tag] 464\t\t\t(tempRequestIDs[i], sender);\\r...\n      PUSH 0\t\t\t \n      DUP8 \t\t\t  \n      DUP5 \t\t\t   \n      DUP5 \t\t\t\\n     \n      DUP8 \t\t\t    \n      PUSH [tag] 465\t\t\t(tempRequestIDs[i], sender\n      JUMP \t\t\t(tempRequestIDs[i], sender);\\r...\n    tag 464\t\t\t(tempRequestIDs[i], sender);\\r...\n      JUMPDEST \t\t\t(tempRequestIDs[i], sender);\\r...\n      POP \t\t\t     if (keccak256(bytes(role)...\n      POP \t\t\t     if (keccak256(bytes(role)...\n      POP \t\t\t][tempRequestIDs[i]];\\r\\n     ...\n      POP \t\t\t][tempRequestIDs[i]];\\r\\n     ...\n      POP \t\t\t][tempRequestIDs[i]];\\r\\n     ...\n      POP \t\t\t][tempRequestIDs[i]];\\r\\n     ...\n      JUMP \t\t\t][tempRequestIDs[i]];\\r\\n     ...\n    tag 219\t\t\t\n      JUMPDEST \t\t\t\n      PUSH 0\t\t\t\n      PUSH [tag] 467\t\t\t\n      DUP4 \t\t\t\n      PUSH 0\t\t\t\n      ADD \t\t\t\n      DUP4 \t\t\t\n      PUSH 0\t\t\t\n      SHL \t\t\t\n      PUSH [tag] 468\t\t\t\n      JUMP \t\t\t\n    tag 467\t\t\t\n      JUMPDEST \t\t\t\n      SWAP1 \t\t\t\n      POP \t\t\t\n      SWAP3 \t\t\t\n      SWAP2 \t\t\t\n      POP \t\t\t\n      POP \t\t\t\n      JUMP \t\t\t\n    tag 221\t\t\tire(to != address(0), \"ERC1155...\n      JUMPDEST \t\t\tire(to != address(0), \"ERC1155...\n      PUSH 0\t\t\t    \n      PUSH [tag] 470\t\t\t0; i < tokenIDs.length; ++i) {...\n      DUP4 \t\t\t< t\n      PUSH 0\t\t\t< tokenIDs\n      ADD \t\t\t< tokenIDs\n      DUP4 \t\t\t+i) {\n      PUSH 0\t\t\tength; ++i) {\\r\n      SHL \t\t\tength; ++i) {\\r\n      PUSH [tag] 471\t\t\t0; i\n      JUMP \t\t\t0; i < tokenIDs.length; ++i) {...\n    tag 470\t\t\t0; i < tokenIDs.length; ++i) {...\n      JUMPDEST \t\t\t0; i < tokenIDs.length; ++i) {...\n      SWAP1 \t\t\t56 i = 0; i < tokenIDs.length;...\n      POP \t\t\t56 i = 0; i < tokenIDs.length;...\n      SWAP3 \t\t\tire(to != address(0), \"ERC1155...\n      SWAP2 \t\t\tire(to != address(0), \"ERC1155...\n      POP \t\t\tire(to != address(0), \"ERC1155...\n      POP \t\t\tire(to != address(0), \"ERC1155...\n      JUMP \t\t\tire(to != address(0), \"ERC1155...\n    tag 241\t\t\tcheckAllProofsVerified(uint256...\n      JUMPDEST \t\t\tcheckAllProofsVerified(uint256...\n      PUSH 0\t\t\temory tempRequestIDs = proofRe\n      PUSH A\t\t\tstIDs;\\r\\n       \n      DUP1 \t\t\temory tempRequestIDs = proofRe...\n      SLOAD \t\t\temory tempRequestIDs = proofRe...\n      DUP1 \t\t\temory tempRequestIDs = proofRe...\n      PUSH 20\t\t\temory tempRequestIDs = proofRe...\n      MUL \t\t\temory tempRequestIDs = proofRe...\n      PUSH 20\t\t\temory tempRequestIDs = proofRe...\n      ADD \t\t\temory tempRequestIDs = proofRe...\n      PUSH 40\t\t\temory tempRequestIDs = proofRe...\n      MLOAD \t\t\temory tempRequestIDs = proofRe...\n      SWAP1 \t\t\temory tempRequestIDs = proofRe...\n      DUP2 \t\t\temory tempRequestIDs = proofRe...\n      ADD \t\t\temory tempRequestIDs = proofRe...\n      PUSH 40\t\t\temory tempRequestIDs = proofRe...\n      MSTORE \t\t\temory tempRequestIDs = proofRe...\n      DUP1 \t\t\temory tempRequestIDs = proofRe...\n      SWAP3 \t\t\temory tempRequestIDs = proofRe...\n      SWAP2 \t\t\temory tempRequestIDs = proofRe...\n      SWAP1 \t\t\temory tempRequestIDs = proofRe...\n      DUP2 \t\t\temory tempRequestIDs = proofRe...\n      DUP2 \t\t\temory tempRequestIDs = proofRe...\n      MSTORE \t\t\temory tempRequestIDs = proofRe...\n      PUSH 20\t\t\temory tempRequestIDs = proofRe...\n      ADD \t\t\temory tempRequestIDs = proofRe...\n      DUP3 \t\t\temory tempRequestIDs = proofRe...\n      DUP1 \t\t\temory tempRequestIDs = proofRe...\n      SLOAD \t\t\temory tempRequestIDs = proofRe...\n      DUP1 \t\t\temory tempRequestIDs = proofRe...\n      ISZERO \t\t\temory tempRequestIDs = proofRe...\n      PUSH [tag] 473\t\t\temory tempRequestIDs = proofRe...\n      JUMPI \t\t\temory tempRequestIDs = proofRe...\n      PUSH 20\t\t\temory tempRequestIDs = proofRe...\n      MUL \t\t\temory tempRequestIDs = proofRe...\n      DUP3 \t\t\temory tempRequestIDs = proofRe...\n      ADD \t\t\temory tempRequestIDs = proofRe...\n      SWAP2 \t\t\temory tempRequestIDs = proofRe...\n      SWAP1 \t\t\temory tempRequestIDs = proofRe...\n      PUSH 0\t\t\temory tempRequestIDs = proofRe...\n      MSTORE \t\t\temory tempRequestIDs = proofRe...\n      PUSH 20\t\t\temory tempRequestIDs = proofRe...\n      PUSH 0\t\t\temory tempRequestIDs = proofRe...\n      KECCAK256 \t\t\temory tempRequestIDs = proofRe...\n      SWAP1 \t\t\temory tempRequestIDs = proofRe...\n      PUSH 0\t\t\temory tempRequestIDs = proofRe...\n      SWAP1 \t\t\temory tempRequestIDs = proofRe...\n    tag 474\t\t\temory tempRequestIDs = proofRe...\n      JUMPDEST \t\t\temory tempRequestIDs = proofRe...\n      DUP3 \t\t\temory tempRequestIDs = proofRe...\n      DUP3 \t\t\temory tempRequestIDs = proofRe...\n      SWAP1 \t\t\temory tempRequestIDs = proofRe...\n      SLOAD \t\t\temory tempRequestIDs = proofRe...\n      SWAP1 \t\t\temory tempRequestIDs = proofRe...\n      PUSH 100\t\t\temory tempRequestIDs = proofRe...\n      EXP \t\t\temory tempRequestIDs = proofRe...\n      SWAP1 \t\t\temory tempRequestIDs = proofRe...\n      DIV \t\t\temory tempRequestIDs = proofRe...\n      PUSH FFFFFFFFFFFFFFFF\t\t\temory tempRequestIDs = proofRe...\n      AND \t\t\temory tempRequestIDs = proofRe...\n      PUSH FFFFFFFFFFFFFFFF\t\t\temory tempRequestIDs = proofRe...\n      AND \t\t\temory tempRequestIDs = proofRe...\n      DUP2 \t\t\temory tempRequestIDs = proofRe...\n      MSTORE \t\t\temory tempRequestIDs = proofRe...\n      PUSH 20\t\t\temory tempRequestIDs = proofRe...\n      ADD \t\t\temory tempRequestIDs = proofRe...\n      SWAP1 \t\t\temory tempRequestIDs = proofRe...\n      PUSH 8\t\t\temory tempRequestIDs = proofRe...\n      ADD \t\t\temory tempRequestIDs = proofRe...\n      SWAP1 \t\t\temory tempRequestIDs = proofRe...\n      PUSH 20\t\t\temory tempRequestIDs = proofRe...\n      DUP3 \t\t\temory tempRequestIDs = proofRe...\n      PUSH 7\t\t\temory tempRequestIDs = proofRe...\n      ADD \t\t\temory tempRequestIDs = proofRe...\n      DIV \t\t\temory tempRequestIDs = proofRe...\n      SWAP3 \t\t\temory tempRequestIDs = proofRe...\n      DUP4 \t\t\temory tempRequestIDs = proofRe...\n      ADD \t\t\temory tempRequestIDs = proofRe...\n      SWAP3 \t\t\temory tempRequestIDs = proofRe...\n      PUSH 1\t\t\temory tempRequestIDs = proofRe...\n      SUB \t\t\temory tempRequestIDs = proofRe...\n      DUP3 \t\t\temory tempRequestIDs = proofRe...\n      MUL \t\t\temory tempRequestIDs = proofRe...\n      SWAP2 \t\t\temory tempRequestIDs = proofRe...\n      POP \t\t\temory tempRequestIDs = proofRe...\n      DUP1 \t\t\temory tempRequestIDs = proofRe...\n      DUP5 \t\t\temory tempRequestIDs = proofRe...\n      GT \t\t\temory tempRequestIDs = proofRe...\n      PUSH [tag] 474\t\t\temory tempRequestIDs = proofRe...\n      JUMPI \t\t\temory tempRequestIDs = proofRe...\n      SWAP1 \t\t\temory tempRequestIDs = proofRe...\n      POP \t\t\temory tempRequestIDs = proofRe...\n    tag 473\t\t\temory tempRequestIDs = proofRe...\n      JUMPDEST \t\t\temory tempRequestIDs = proofRe...\n      POP \t\t\temory tempRequestIDs = proofRe...\n      POP \t\t\temory tempRequestIDs = proofRe...\n      POP \t\t\temory tempRequestIDs = proofRe...\n      POP \t\t\temory tempRequestIDs = proofRe...\n      POP \t\t\temory tempRequestIDs = proofRe...\n      SWAP1 \t\t\temory tempRequestIDs = proofRe...\n      POP \t\t\temory tempRequestIDs = proofRe...\n      PUSH 0\t\t\t= 0; i < \n    tag 475\t\t\t56 i = 0; i < tempRequestIDs.l...\n      JUMPDEST \t\t\t56 i = 0; i < tempRequestIDs.l...\n      DUP2 \t\t\ttIDs.length; i\n      MLOAD \t\t\ttIDs.length; i++) {\\r\\n\n      DUP2 \t\t\tq\n      LT \t\t\tquestIDs.length; i++) {\\r\\n\n      ISZERO \t\t\t56 i = 0; i < tempRequestIDs.l...\n      PUSH [tag] 476\t\t\t56 i = 0; i < tempRequestIDs.l...\n      JUMPI \t\t\t56 i = 0; i < tempRequestIDs.l...\n      PUSH 0\t\t\tory role = tokenID\n      PUSH 8\t\t\tquestSetter_proofRequest_role[...\n      PUSH 0\t\t\tquestSetter_proofRequest_role[...\n      DUP8 \t\t\tender][\n      DUP2 \t\t\tquestSetter_proofRequest_role[...\n      MSTORE \t\t\tquestSetter_proofRequest_role[...\n      PUSH 20\t\t\tquestSetter_proofRequest_role[...\n      ADD \t\t\tquestSetter_proofRequest_role[...\n      SWAP1 \t\t\tquestSetter_proofRequest_role[...\n      DUP2 \t\t\tquestSetter_proofRequest_role[...\n      MSTORE \t\t\tquestSetter_proofRequest_role[...\n      PUSH 20\t\t\tquestSetter_proofRequest_role[...\n      ADD \t\t\tquestSetter_proofRequest_role[...\n      PUSH 0\t\t\tquestSetter_proofRequest_role[...\n      KECCAK256 \t\t\tquestSetter_proofRequest_role[...\n      PUSH 0\t\t\tquestSetter_proofRequest_role[...\n      DUP7 \t\t\tmpRequ\n      PUSH FFFFFFFFFFFFFFFFFFFFFFFFFFFFFFFFFFFFFFFF\t\t\tquestSetter_proofRequest_role[...\n      AND \t\t\tquestSetter_proofRequest_role[...\n      PUSH FFFFFFFFFFFFFFFFFFFFFFFFFFFFFFFFFFFFFFFF\t\t\tquestSetter_proofRequest_role[...\n      AND \t\t\tquestSetter_proofRequest_role[...\n      DUP2 \t\t\tquestSetter_proofRequest_role[...\n      MSTORE \t\t\tquestSetter_proofRequest_role[...\n      PUSH 20\t\t\tquestSetter_proofRequest_role[...\n      ADD \t\t\tquestSetter_proofRequest_role[...\n      SWAP1 \t\t\tquestSetter_proofRequest_role[...\n      DUP2 \t\t\tquestSetter_proofRequest_role[...\n      MSTORE \t\t\tquestSetter_proofRequest_role[...\n      PUSH 20\t\t\tquestSetter_proofRequest_role[...\n      ADD \t\t\tquestSetter_proofRequest_role[...\n      PUSH 0\t\t\tquestSetter_proofRequest_role[...\n      KECCAK256 \t\t\tquestSetter_proofRequest_role[...\n      PUSH 0\t\t\tquestSetter_proofRequest_role[...\n      DUP5 \t\t\ttIDs[i]];\\r\\n   \n      DUP5 \t\t\t \n      DUP2 \t\t\ttIDs[i]];\\r\\n      \n      MLOAD \t\t\ttIDs[i]];\\r\\n      \n      DUP2 \t\t\ttIDs[i]];\\r\\n      \n      LT \t\t\ttIDs[i]];\\r\\n      \n      PUSH [tag] 478\t\t\ttIDs[i]];\\r\\n      \n      JUMPI \t\t\ttIDs[i]];\\r\\n      \n      PUSH [tag] 479\t\t\ttIDs[i]];\\r\\n      \n      PUSH [tag] 163\t\t\ttIDs[i]];\\r\\n      \n      JUMP \t\t\ttIDs[i]];\\r\\n      \n    tag 479\t\t\ttIDs[i]];\\r\\n      \n      JUMPDEST \t\t\ttIDs[i]];\\r\\n      \n    tag 478\t\t\ttIDs[i]];\\r\\n      \n      JUMPDEST \t\t\ttIDs[i]];\\r\\n      \n      PUSH 20\t\t\ttIDs[i]];\\r\\n      \n      MUL \t\t\ttIDs[i]];\\r\\n      \n      PUSH 20\t\t\ttIDs[i]];\\r\\n      \n      ADD \t\t\ttIDs[i]];\\r\\n      \n      ADD \t\t\ttIDs[i]];\\r\\n      \n      MLOAD \t\t\ttIDs[i]];\\r\\n      \n      PUSH FFFFFFFFFFFFFFFF\t\t\tquestSetter_proofRequest_role[...\n      AND \t\t\tquestSetter_proofRequest_role[...\n      PUSH FFFFFFFFFFFFFFFF\t\t\tquestSetter_proofRequest_role[...\n      AND \t\t\tquestSetter_proofRequest_role[...\n      DUP2 \t\t\tquestSetter_proofRequest_role[...\n      MSTORE \t\t\tquestSetter_proofRequest_role[...\n      PUSH 20\t\t\tquestSetter_proofRequest_role[...\n      ADD \t\t\tquestSetter_proofRequest_role[...\n      SWAP1 \t\t\tquestSetter_proofRequest_role[...\n      DUP2 \t\t\tquestSetter_proofRequest_role[...\n      MSTORE \t\t\tquestSetter_proofRequest_role[...\n      PUSH 20\t\t\tquestSetter_proofRequest_role[...\n      ADD \t\t\tquestSetter_proofRequest_role[...\n      PUSH 0\t\t\tquestSetter_proofRequest_role[...\n      KECCAK256 \t\t\tquestSetter_proofRequest_role[...\n      DUP1 \t\t\tory role = tokenID_requestSett...\n      SLOAD \t\t\tory role = tokenID_requestSett...\n      PUSH [tag] 480\t\t\tory role = tokenID_requestSett...\n      SWAP1 \t\t\tory role = tokenID_requestSett...\n      PUSH [tag] 149\t\t\tory role = tokenID_requestSett...\n      JUMP \t\t\tory role = tokenID_requestSett...\n    tag 480\t\t\tory role = tokenID_requestSett...\n      JUMPDEST \t\t\tory role = tokenID_requestSett...\n      DUP1 \t\t\tory role = tokenID_requestSett...\n      PUSH 1F\t\t\tory role = tokenID_requestSett...\n      ADD \t\t\tory role = tokenID_requestSett...\n      PUSH 20\t\t\tory role = tokenID_requestSett...\n      DUP1 \t\t\tory role = tokenID_requestSett...\n      SWAP2 \t\t\tory role = tokenID_requestSett...\n      DIV \t\t\tory role = tokenID_requestSett...\n      MUL \t\t\tory role = tokenID_requestSett...\n      PUSH 20\t\t\tory role = tokenID_requestSett...\n      ADD \t\t\tory role = tokenID_requestSett...\n      PUSH 40\t\t\tory role = tokenID_requestSett...\n      MLOAD \t\t\tory role = tokenID_requestSett...\n      SWAP1 \t\t\tory role = tokenID_requestSett...\n      DUP2 \t\t\tory role = tokenID_requestSett...\n      ADD \t\t\tory role = tokenID_requestSett...\n      PUSH 40\t\t\tory role = tokenID_requestSett...\n      MSTORE \t\t\tory role = tokenID_requestSett...\n      DUP1 \t\t\tory role = tokenID_requestSett...\n      SWAP3 \t\t\tory role = tokenID_requestSett...\n      SWAP2 \t\t\tory role = tokenID_requestSett...\n      SWAP1 \t\t\tory role = tokenID_requestSett...\n      DUP2 \t\t\tory role = tokenID_requestSett...\n      DUP2 \t\t\tory role = tokenID_requestSett...\n      MSTORE \t\t\tory role = tokenID_requestSett...\n      PUSH 20\t\t\tory role = tokenID_requestSett...\n      ADD \t\t\tory role = tokenID_requestSett...\n      DUP3 \t\t\tory role = tokenID_requestSett...\n      DUP1 \t\t\tory role = tokenID_requestSett...\n      SLOAD \t\t\tory role = tokenID_requestSett...\n      PUSH [tag] 481\t\t\tory role = tokenID_requestSett...\n      SWAP1 \t\t\tory role = tokenID_requestSett...\n      PUSH [tag] 149\t\t\tory role = tokenID_requestSett...\n      JUMP \t\t\tory role = tokenID_requestSett...\n    tag 481\t\t\tory role = tokenID_requestSett...\n      JUMPDEST \t\t\tory role = tokenID_requestSett...\n      DUP1 \t\t\tory role = tokenID_requestSett...\n      ISZERO \t\t\tory role = tokenID_requestSett...\n      PUSH [tag] 482\t\t\tory role = tokenID_requestSett...\n      JUMPI \t\t\tory role = tokenID_requestSett...\n      DUP1 \t\t\tory role = tokenID_requestSett...\n      PUSH 1F\t\t\tory role = tokenID_requestSett...\n      LT \t\t\tory role = tokenID_requestSett...\n      PUSH [tag] 483\t\t\tory role = tokenID_requestSett...\n      JUMPI \t\t\tory role = tokenID_requestSett...\n      PUSH 100\t\t\tory role = tokenID_requestSett...\n      DUP1 \t\t\tory role = tokenID_requestSett...\n      DUP4 \t\t\tory role = tokenID_requestSett...\n      SLOAD \t\t\tory role = tokenID_requestSett...\n      DIV \t\t\tory role = tokenID_requestSett...\n      MUL \t\t\tory role = tokenID_requestSett...\n      DUP4 \t\t\tory role = tokenID_requestSett...\n      MSTORE \t\t\tory role = tokenID_requestSett...\n      SWAP2 \t\t\tory role = tokenID_requestSett...\n      PUSH 20\t\t\tory role = tokenID_requestSett...\n      ADD \t\t\tory role = tokenID_requestSett...\n      SWAP2 \t\t\tory role = tokenID_requestSett...\n      PUSH [tag] 482\t\t\tory role = tokenID_requestSett...\n      JUMP \t\t\tory role = tokenID_requestSett...\n    tag 483\t\t\tory role = tokenID_requestSett...\n      JUMPDEST \t\t\tory role = tokenID_requestSett...\n      DUP3 \t\t\tory role = tokenID_requestSett...\n      ADD \t\t\tory role = tokenID_requestSett...\n      SWAP2 \t\t\tory role = tokenID_requestSett...\n      SWAP1 \t\t\tory role = tokenID_requestSett...\n      PUSH 0\t\t\tory role = tokenID_requestSett...\n      MSTORE \t\t\tory role = tokenID_requestSett...\n      PUSH 20\t\t\tory role = tokenID_requestSett...\n      PUSH 0\t\t\tory role = tokenID_requestSett...\n      KECCAK256 \t\t\tory role = tokenID_requestSett...\n      SWAP1 \t\t\tory role = tokenID_requestSett...\n    tag 484\t\t\tory role = tokenID_requestSett...\n      JUMPDEST \t\t\tory role = tokenID_requestSett...\n      DUP2 \t\t\tory role = tokenID_requestSett...\n      SLOAD \t\t\tory role = tokenID_requestSett...\n      DUP2 \t\t\tory role = tokenID_requestSett...\n      MSTORE \t\t\tory role = tokenID_requestSett...\n      SWAP1 \t\t\tory role = tokenID_requestSett...\n      PUSH 1\t\t\tory role = tokenID_requestSett...\n      ADD \t\t\tory role = tokenID_requestSett...\n      SWAP1 \t\t\tory role = tokenID_requestSett...\n      PUSH 20\t\t\tory role = tokenID_requestSett...\n      ADD \t\t\tory role = tokenID_requestSett...\n      DUP1 \t\t\tory role = tokenID_requestSett...\n      DUP4 \t\t\tory role = tokenID_requestSett...\n      GT \t\t\tory role = tokenID_requestSett...\n      PUSH [tag] 484\t\t\tory role = tokenID_requestSett...\n      JUMPI \t\t\tory role = tokenID_requestSett...\n      DUP3 \t\t\tory role = tokenID_requestSett...\n      SWAP1 \t\t\tory role = tokenID_requestSett...\n      SUB \t\t\tory role = tokenID_requestSett...\n      PUSH 1F\t\t\tory role = tokenID_requestSett...\n      AND \t\t\tory role = tokenID_requestSett...\n      DUP3 \t\t\tory role = tokenID_requestSett...\n      ADD \t\t\tory role = tokenID_requestSett...\n      SWAP2 \t\t\tory role = tokenID_requestSett...\n    tag 482\t\t\tory role = tokenID_requestSett...\n      JUMPDEST \t\t\tory role = tokenID_requestSett...\n      POP \t\t\tory role = tokenID_requestSett...\n      POP \t\t\tory role = tokenID_requestSett...\n      POP \t\t\tory role = tokenID_requestSett...\n      POP \t\t\tory role = tokenID_requestSett...\n      POP \t\t\tory role = tokenID_requestSett...\n      SWAP1 \t\t\tory role = tokenID_requestSett...\n      POP \t\t\tory role = tokenID_requestSett...\n      PUSH 0\t\t\te\n      DUP2 \t\t\tth =\n      MLOAD \t\t\t).length == 0) con\n      SUB \t\t\t).length == 0) continue\n      PUSH [tag] 485\t\t\trole).length == 0) continue;\\r...\n      JUMPI \t\t\trole).length == 0) continue;\\r...\n      POP \t\t\t\\n       \n      PUSH [tag] 477\t\t\t\\n       \n      JUMP \t\t\t\\n       \n    tag 485\t\t\trole).length == 0) continue;\\r...\n      JUMPDEST \t\t\trole).length == 0) continue;\\r...\n      PUSH 40\t\t\tder\"))) {\\r\\n    \n      MLOAD \t\t\tder\"))) {\\r\\n    \n      DUP1 \t\t\tder\"))) {\\r\\n    \n      PUSH 40\t\t\tder\"))) {\\r\\n    \n      ADD \t\t\tder\"))) {\\r\\n    \n      PUSH 40\t\t\tder\"))) {\\r\\n    \n      MSTORE \t\t\tder\"))) {\\r\\n    \n      DUP1 \t\t\tder\"))) {\\r\\n    \n      PUSH 6\t\t\tder\"))) {\\r\\n    \n      DUP2 \t\t\tder\"))) {\\r\\n    \n      MSTORE \t\t\tder\"))) {\\r\\n    \n      PUSH 20\t\t\tder\"))) {\\r\\n    \n      ADD \t\t\tder\"))) {\\r\\n    \n      PUSH 73656E6465720000000000000000000000000000000000000000000000000000\t\t\tder\"))) {\\r\\n    \n      DUP2 \t\t\tder\"))) {\\r\\n    \n      MSTORE \t\t\tder\"))) {\\r\\n    \n      POP \t\t\tder\"))) {\\r\\n    \n      DUP1 \t\t\tbytes(\"sender\"))) {\\r\\n     \n      MLOAD \t\t\tbytes(\"sender\"))) {\\r\\n     \n      SWAP1 \t\t\tbytes(\"sender\"))) {\\r\\n     \n      PUSH 20\t\t\tbytes(\"sender\"))) {\\r\\n     \n      ADD \t\t\tbytes(\"sender\"))) {\\r\\n     \n      KECCAK256 \t\t\tbytes(\"sender\"))) {\\r\\n     \n      DUP2 \t\t\tkecc\n      DUP1 \t\t\tbytes(role)) == keccak\n      MLOAD \t\t\tbytes(role)) == keccak\n      SWAP1 \t\t\tbytes(role)) == keccak\n      PUSH 20\t\t\tbytes(role)) == keccak\n      ADD \t\t\tbytes(role)) == keccak\n      KECCAK256 \t\t\tbytes(role)) == keccak\n      SUB \t\t\tbytes(role)) == keccak256(byte...\n      PUSH [tag] 486\t\t\t256(bytes(role)) == keccak256(...\n      JUMPI \t\t\t256(bytes(role)) == keccak256(...\n      PUSH B\t\t\tetProofS\n      PUSH 0\t\t\tetProofS\n      SWAP1 \t\t\tetProofS\n      SLOAD \t\t\tetProofS\n      SWAP1 \t\t\tetProofS\n      PUSH 100\t\t\tetProofS\n      EXP \t\t\tetProofS\n      SWAP1 \t\t\tetProofS\n      DIV \t\t\tetProofS\n      PUSH FFFFFFFFFFFFFFFFFFFFFFFFFFFFFFFFFFFFFFFF\t\t\tetProofS\n      AND \t\t\tetProofS\n      PUSH FFFFFFFFFFFFFFFFFFFFFFFFFFFFFFFFFFFFFFFF\t\t\tetProofStatus(sender, t\n      AND \t\t\tetProofStatus(sender, t\n      PUSH 8C1DA2C9\t\t\tetProofStatus(sender, t\n      DUP7 \t\t\tmpRequ\n      DUP6 \t\t\ttIDs[i]).isVer\n      DUP6 \t\t\tf\n      DUP2 \t\t\ttIDs[i]).isVerifi\n      MLOAD \t\t\ttIDs[i]).isVerifi\n      DUP2 \t\t\ttIDs[i]).isVerifi\n      LT \t\t\ttIDs[i]).isVerifi\n      PUSH [tag] 487\t\t\ttIDs[i]).isVerifi\n      JUMPI \t\t\ttIDs[i]).isVerifi\n      PUSH [tag] 488\t\t\ttIDs[i]).isVerifi\n      PUSH [tag] 163\t\t\ttIDs[i]).isVerifi\n      JUMP \t\t\ttIDs[i]).isVerifi\n    tag 488\t\t\ttIDs[i]).isVerifi\n      JUMPDEST \t\t\ttIDs[i]).isVerifi\n    tag 487\t\t\ttIDs[i]).isVerifi\n      JUMPDEST \t\t\ttIDs[i]).isVerifi\n      PUSH 20\t\t\ttIDs[i]).isVerifi\n      MUL \t\t\ttIDs[i]).isVerifi\n      PUSH 20\t\t\ttIDs[i]).isVerifi\n      ADD \t\t\ttIDs[i]).isVerifi\n      ADD \t\t\ttIDs[i]).isVerifi\n      MLOAD \t\t\ttIDs[i]).isVerifi\n      PUSH 40\t\t\tetProofStatus(sender, tempRequ...\n      MLOAD \t\t\tetProofStatus(sender, tempRequ...\n      DUP4 \t\t\tetProofStatus(sender, tempRequ...\n      PUSH FFFFFFFF\t\t\tetProofStatus(sender, tempRequ...\n      AND \t\t\tetProofStatus(sender, tempRequ...\n      PUSH E0\t\t\tetProofStatus(sender, tempRequ...\n      SHL \t\t\tetProofStatus(sender, tempRequ...\n      DUP2 \t\t\tetProofStatus(sender, tempRequ...\n      MSTORE \t\t\tetProofStatus(sender, tempRequ...\n      PUSH 4\t\t\tetProofStatus(sender, tempRequ...\n      ADD \t\t\tetProofStatus(sender, tempRequ...\n      PUSH [tag] 489\t\t\tetProofStatus(sender, tempRequ...\n      SWAP3 \t\t\tetProofStatus(sender, tempRequ...\n      SWAP2 \t\t\tetProofStatus(sender, tempRequ...\n      SWAP1 \t\t\tetProofStatus(sender, tempRequ...\n      PUSH [tag] 490\t\t\tetProofStatus(sender, tempRequ...\n      JUMP \t\t\tetProofStatus(sender, tempRequ...\n    tag 489\t\t\tetProofStatus(sender, tempRequ...\n      JUMPDEST \t\t\tetProofStatus(sender, tempRequ...\n      PUSH 0\t\t\tetProofStatus(sender, tempRequ...\n      PUSH 40\t\t\tetProofStatus(sender, tempRequ...\n      MLOAD \t\t\tetProofStatus(sender, tempRequ...\n      DUP1 \t\t\tetProofStatus(sender, tempRequ...\n      DUP4 \t\t\tetProofStatus(sender, tempRequ...\n      SUB \t\t\tetProofStatus(sender, tempRequ...\n      DUP2 \t\t\tetProofStatus(sender, tempRequ...\n      DUP7 \t\t\tetProofStatus(sender, tempRequ...\n      GAS \t\t\tetProofStatus(sender, tempRequ...\n      STATICCALL \t\t\tetProofStatus(sender, tempRequ...\n      ISZERO \t\t\tetProofStatus(sender, tempRequ...\n      DUP1 \t\t\tetProofStatus(sender, tempRequ...\n      ISZERO \t\t\tetProofStatus(sender, tempRequ...\n      PUSH [tag] 492\t\t\tetProofStatus(sender, tempRequ...\n      JUMPI \t\t\tetProofStatus(sender, tempRequ...\n      RETURNDATASIZE \t\t\tetProofStatus(sender, tempRequ...\n      PUSH 0\t\t\tetProofStatus(sender, tempRequ...\n      DUP1 \t\t\tetProofStatus(sender, tempRequ...\n      RETURNDATACOPY \t\t\tetProofStatus(sender, tempRequ...\n      RETURNDATASIZE \t\t\tetProofStatus(sender, tempRequ...\n      PUSH 0\t\t\tetProofStatus(sender, tempRequ...\n      REVERT \t\t\tetProofStatus(sender, tempRequ...\n    tag 492\t\t\tetProofStatus(sender, tempRequ...\n      JUMPDEST \t\t\tetProofStatus(sender, tempRequ...\n      POP \t\t\tetProofStatus(sender, tempRequ...\n      POP \t\t\tetProofStatus(sender, tempRequ...\n      POP \t\t\tetProofStatus(sender, tempRequ...\n      POP \t\t\tetProofStatus(sender, tempRequ...\n      PUSH 40\t\t\tetProofStatus(sender, tempRequ...\n      MLOAD \t\t\tetProofStatus(sender, tempRequ...\n      RETURNDATASIZE \t\t\tetProofStatus(sender, tempRequ...\n      PUSH 0\t\t\tetProofStatus(sender, tempRequ...\n      DUP3 \t\t\tetProofStatus(sender, tempRequ...\n      RETURNDATACOPY \t\t\tetProofStatus(sender, tempRequ...\n      RETURNDATASIZE \t\t\tetProofStatus(sender, tempRequ...\n      PUSH 1F\t\t\tetProofStatus(sender, tempRequ...\n      NOT \t\t\tetProofStatus(sender, tempRequ...\n      PUSH 1F\t\t\tetProofStatus(sender, tempRequ...\n      DUP3 \t\t\tetProofStatus(sender, tempRequ...\n      ADD \t\t\tetProofStatus(sender, tempRequ...\n      AND \t\t\tetProofStatus(sender, tempRequ...\n      DUP3 \t\t\tetProofStatus(sender, tempRequ...\n      ADD \t\t\tetProofStatus(sender, tempRequ...\n      DUP1 \t\t\tetProofStatus(sender, tempRequ...\n      PUSH 40\t\t\tetProofStatus(sender, tempRequ...\n      MSTORE \t\t\tetProofStatus(sender, tempRequ...\n      POP \t\t\tetProofStatus(sender, tempRequ...\n      DUP2 \t\t\tetProofStatus(sender, tempRequ...\n      ADD \t\t\tetProofStatus(sender, tempRequ...\n      SWAP1 \t\t\tetProofStatus(sender, tempRequ...\n      PUSH [tag] 493\t\t\tetProofStatus(sender, tempRequ...\n      SWAP2 \t\t\tetProofStatus(sender, tempRequ...\n      SWAP1 \t\t\tetProofStatus(sender, tempRequ...\n      PUSH [tag] 494\t\t\tetProofStatus(sender, tempRequ...\n      JUMP \t\t\tetProofStatus(sender, tempRequ...\n    tag 493\t\t\tetProofStatus(sender, tempRequ...\n      JUMPDEST \t\t\tetProofStatus(sender, tempRequ...\n      PUSH 0\t\t\tetProofStatus(sender, tempRequ...\n      ADD \t\t\tetProofStatus(sender, tempRequ...\n      MLOAD \t\t\tetProofStatus(sender, tempRequ...\n      PUSH [tag] 495\t\t\tier.getProofStatus(sender, tem...\n      JUMPI \t\t\tier.getProofStatus(sender, tem...\n      DUP3 \t\t\ttIDs[i], sende\n      DUP3 \t\t\t)\n      DUP2 \t\t\ttIDs[i], sender);\n      MLOAD \t\t\ttIDs[i], sender);\n      DUP2 \t\t\ttIDs[i], sender);\n      LT \t\t\ttIDs[i], sender);\n      PUSH [tag] 496\t\t\ttIDs[i], sender);\n      JUMPI \t\t\ttIDs[i], sender);\n      PUSH [tag] 497\t\t\ttIDs[i], sender);\n      PUSH [tag] 163\t\t\ttIDs[i], sender);\n      JUMP \t\t\ttIDs[i], sender);\n    tag 497\t\t\ttIDs[i], sender);\n      JUMPDEST \t\t\ttIDs[i], sender);\n    tag 496\t\t\ttIDs[i], sender);\n      JUMPDEST \t\t\ttIDs[i], sender);\n      PUSH 20\t\t\ttIDs[i], sender);\n      MUL \t\t\ttIDs[i], sender);\n      PUSH 20\t\t\ttIDs[i], sender);\n      ADD \t\t\ttIDs[i], sender);\n      ADD \t\t\ttIDs[i], sender);\n      MLOAD \t\t\ttIDs[i], sender);\n      DUP6 \t\t\t      \n      PUSH 40\t\t\trified(tempRequestIDs[i], send...\n      MLOAD \t\t\trified(tempRequestIDs[i], send...\n      PUSH A5A4608E00000000000000000000000000000000000000000000000000000000\t\t\trified(tempRequestIDs[i], send...\n      DUP2 \t\t\trified(tempRequestIDs[i], send...\n      MSTORE \t\t\trified(tempRequestIDs[i], send...\n      PUSH 4\t\t\trified(tempRequestIDs[i], send...\n      ADD \t\t\trified(tempRequestIDs[i], send...\n      PUSH [tag] 498\t\t\trified(tempRequestIDs[i], send...\n      SWAP3 \t\t\trified(tempRequestIDs[i], send...\n      SWAP2 \t\t\trified(tempRequestIDs[i], send...\n      SWAP1 \t\t\trified(tempRequestIDs[i], send...\n      PUSH [tag] 499\t\t\trified(tempRequestIDs[i], send...\n      JUMP \t\t\trified(tempRequestIDs[i], send...\n    tag 498\t\t\trified(tempRequestIDs[i], send...\n      JUMPDEST \t\t\trified(tempRequestIDs[i], send...\n      PUSH 40\t\t\trified(tempRequestIDs[i], send...\n      MLOAD \t\t\trified(tempRequestIDs[i], send...\n      DUP1 \t\t\trified(tempRequestIDs[i], send...\n      SWAP2 \t\t\trified(tempRequestIDs[i], send...\n      SUB \t\t\trified(tempRequestIDs[i], send...\n      SWAP1 \t\t\trified(tempRequestIDs[i], send...\n      REVERT \t\t\trified(tempRequestIDs[i], send...\n    tag 495\t\t\tier.getProofStatus(sender, tem...\n      JUMPDEST \t\t\tier.getProofStatus(sender, tem...\n      PUSH [tag] 500\t\t\t256(bytes(role)) == keccak256(...\n      JUMP \t\t\t256(bytes(role)) == keccak256(...\n    tag 486\t\t\t256(bytes(role)) == keccak256(...\n      JUMPDEST \t\t\t256(bytes(role)) == keccak256(...\n      PUSH 40\t\t\teiver\"))) {\\r\\n    \n      MLOAD \t\t\teiver\"))) {\\r\\n    \n      DUP1 \t\t\teiver\"))) {\\r\\n    \n      PUSH 40\t\t\teiver\"))) {\\r\\n    \n      ADD \t\t\teiver\"))) {\\r\\n    \n      PUSH 40\t\t\teiver\"))) {\\r\\n    \n      MSTORE \t\t\teiver\"))) {\\r\\n    \n      DUP1 \t\t\teiver\"))) {\\r\\n    \n      PUSH 8\t\t\teiver\"))) {\\r\\n    \n      DUP2 \t\t\teiver\"))) {\\r\\n    \n      MSTORE \t\t\teiver\"))) {\\r\\n    \n      PUSH 20\t\t\teiver\"))) {\\r\\n    \n      ADD \t\t\teiver\"))) {\\r\\n    \n      PUSH 7265636569766572000000000000000000000000000000000000000000000000\t\t\teiver\"))) {\\r\\n    \n      DUP2 \t\t\teiver\"))) {\\r\\n    \n      MSTORE \t\t\teiver\"))) {\\r\\n    \n      POP \t\t\teiver\"))) {\\r\\n    \n      DUP1 \t\t\tbytes(\"receiver\"))) {\\r\\n     \n      MLOAD \t\t\tbytes(\"receiver\"))) {\\r\\n     \n      SWAP1 \t\t\tbytes(\"receiver\"))) {\\r\\n     \n      PUSH 20\t\t\tbytes(\"receiver\"))) {\\r\\n     \n      ADD \t\t\tbytes(\"receiver\"))) {\\r\\n     \n      KECCAK256 \t\t\tbytes(\"receiver\"))) {\\r\\n     \n      DUP2 \t\t\tkecc\n      DUP1 \t\t\tbytes(role)) == keccak\n      MLOAD \t\t\tbytes(role)) == keccak\n      SWAP1 \t\t\tbytes(role)) == keccak\n      PUSH 20\t\t\tbytes(role)) == keccak\n      ADD \t\t\tbytes(role)) == keccak\n      KECCAK256 \t\t\tbytes(role)) == keccak\n      SUB \t\t\tbytes(role)) == keccak256(byte...\n      PUSH [tag] 501\t\t\t256(bytes(role)) == keccak256(...\n      JUMPI \t\t\t256(bytes(role)) == keccak256(...\n      PUSH B\t\t\tetProofS\n      PUSH 0\t\t\tetProofS\n      SWAP1 \t\t\tetProofS\n      SLOAD \t\t\tetProofS\n      SWAP1 \t\t\tetProofS\n      PUSH 100\t\t\tetProofS\n      EXP \t\t\tetProofS\n      SWAP1 \t\t\tetProofS\n      DIV \t\t\tetProofS\n      PUSH FFFFFFFFFFFFFFFFFFFFFFFFFFFFFFFFFFFFFFFF\t\t\tetProofS\n      AND \t\t\tetProofS\n      PUSH FFFFFFFFFFFFFFFFFFFFFFFFFFFFFFFFFFFFFFFF\t\t\tetProofStatus(receiver,\n      AND \t\t\tetProofStatus(receiver,\n      PUSH 8C1DA2C9\t\t\tetProofStatus(receiver,\n      DUP6 \t\t\ttempRequ\n      DUP6 \t\t\ttIDs[i]).isVer\n      DUP6 \t\t\tf\n      DUP2 \t\t\ttIDs[i]).isVerifi\n      MLOAD \t\t\ttIDs[i]).isVerifi\n      DUP2 \t\t\ttIDs[i]).isVerifi\n      LT \t\t\ttIDs[i]).isVerifi\n      PUSH [tag] 502\t\t\ttIDs[i]).isVerifi\n      JUMPI \t\t\ttIDs[i]).isVerifi\n      PUSH [tag] 503\t\t\ttIDs[i]).isVerifi\n      PUSH [tag] 163\t\t\ttIDs[i]).isVerifi\n      JUMP \t\t\ttIDs[i]).isVerifi\n    tag 503\t\t\ttIDs[i]).isVerifi\n      JUMPDEST \t\t\ttIDs[i]).isVerifi\n    tag 502\t\t\ttIDs[i]).isVerifi\n      JUMPDEST \t\t\ttIDs[i]).isVerifi\n      PUSH 20\t\t\ttIDs[i]).isVerifi\n      MUL \t\t\ttIDs[i]).isVerifi\n      PUSH 20\t\t\ttIDs[i]).isVerifi\n      ADD \t\t\ttIDs[i]).isVerifi\n      ADD \t\t\ttIDs[i]).isVerifi\n      MLOAD \t\t\ttIDs[i]).isVerifi\n      PUSH 40\t\t\tetProofStatus(receiver, tempRe...\n      MLOAD \t\t\tetProofStatus(receiver, tempRe...\n      DUP4 \t\t\tetProofStatus(receiver, tempRe...\n      PUSH FFFFFFFF\t\t\tetProofStatus(receiver, tempRe...\n      AND \t\t\tetProofStatus(receiver, tempRe...\n      PUSH E0\t\t\tetProofStatus(receiver, tempRe...\n      SHL \t\t\tetProofStatus(receiver, tempRe...\n      DUP2 \t\t\tetProofStatus(receiver, tempRe...\n      MSTORE \t\t\tetProofStatus(receiver, tempRe...\n      PUSH 4\t\t\tetProofStatus(receiver, tempRe...\n      ADD \t\t\tetProofStatus(receiver, tempRe...\n      PUSH [tag] 504\t\t\tetProofStatus(receiver, tempRe...\n      SWAP3 \t\t\tetProofStatus(receiver, tempRe...\n      SWAP2 \t\t\tetProofStatus(receiver, tempRe...\n      SWAP1 \t\t\tetProofStatus(receiver, tempRe...\n      PUSH [tag] 490\t\t\tetProofStatus(receiver, tempRe...\n      JUMP \t\t\tetProofStatus(receiver, tempRe...\n    tag 504\t\t\tetProofStatus(receiver, tempRe...\n      JUMPDEST \t\t\tetProofStatus(receiver, tempRe...\n      PUSH 0\t\t\tetProofStatus(receiver, tempRe...\n      PUSH 40\t\t\tetProofStatus(receiver, tempRe...\n      MLOAD \t\t\tetProofStatus(receiver, tempRe...\n      DUP1 \t\t\tetProofStatus(receiver, tempRe...\n      DUP4 \t\t\tetProofStatus(receiver, tempRe...\n      SUB \t\t\tetProofStatus(receiver, tempRe...\n      DUP2 \t\t\tetProofStatus(receiver, tempRe...\n      DUP7 \t\t\tetProofStatus(receiver, tempRe...\n      GAS \t\t\tetProofStatus(receiver, tempRe...\n      STATICCALL \t\t\tetProofStatus(receiver, tempRe...\n      ISZERO \t\t\tetProofStatus(receiver, tempRe...\n      DUP1 \t\t\tetProofStatus(receiver, tempRe...\n      ISZERO \t\t\tetProofStatus(receiver, tempRe...\n      PUSH [tag] 506\t\t\tetProofStatus(receiver, tempRe...\n      JUMPI \t\t\tetProofStatus(receiver, tempRe...\n      RETURNDATASIZE \t\t\tetProofStatus(receiver, tempRe...\n      PUSH 0\t\t\tetProofStatus(receiver, tempRe...\n      DUP1 \t\t\tetProofStatus(receiver, tempRe...\n      RETURNDATACOPY \t\t\tetProofStatus(receiver, tempRe...\n      RETURNDATASIZE \t\t\tetProofStatus(receiver, tempRe...\n      PUSH 0\t\t\tetProofStatus(receiver, tempRe...\n      REVERT \t\t\tetProofStatus(receiver, tempRe...\n    tag 506\t\t\tetProofStatus(receiver, tempRe...\n      JUMPDEST \t\t\tetProofStatus(receiver, tempRe...\n      POP \t\t\tetProofStatus(receiver, tempRe...\n      POP \t\t\tetProofStatus(receiver, tempRe...\n      POP \t\t\tetProofStatus(receiver, tempRe...\n      POP \t\t\tetProofStatus(receiver, tempRe...\n      PUSH 40\t\t\tetProofStatus(receiver, tempRe...\n      MLOAD \t\t\tetProofStatus(receiver, tempRe...\n      RETURNDATASIZE \t\t\tetProofStatus(receiver, tempRe...\n      PUSH 0\t\t\tetProofStatus(receiver, tempRe...\n      DUP3 \t\t\tetProofStatus(receiver, tempRe...\n      RETURNDATACOPY \t\t\tetProofStatus(receiver, tempRe...\n      RETURNDATASIZE \t\t\tetProofStatus(receiver, tempRe...\n      PUSH 1F\t\t\tetProofStatus(receiver, tempRe...\n      NOT \t\t\tetProofStatus(receiver, tempRe...\n      PUSH 1F\t\t\tetProofStatus(receiver, tempRe...\n      DUP3 \t\t\tetProofStatus(receiver, tempRe...\n      ADD \t\t\tetProofStatus(receiver, tempRe...\n      AND \t\t\tetProofStatus(receiver, tempRe...\n      DUP3 \t\t\tetProofStatus(receiver, tempRe...\n      ADD \t\t\tetProofStatus(receiver, tempRe...\n      DUP1 \t\t\tetProofStatus(receiver, tempRe...\n      PUSH 40\t\t\tetProofStatus(receiver, tempRe...\n      MSTORE \t\t\tetProofStatus(receiver, tempRe...\n      POP \t\t\tetProofStatus(receiver, tempRe...\n      DUP2 \t\t\tetProofStatus(receiver, tempRe...\n      ADD \t\t\tetProofStatus(receiver, tempRe...\n      SWAP1 \t\t\tetProofStatus(receiver, tempRe...\n      PUSH [tag] 507\t\t\tetProofStatus(receiver, tempRe...\n      SWAP2 \t\t\tetProofStatus(receiver, tempRe...\n      SWAP1 \t\t\tetProofStatus(receiver, tempRe...\n      PUSH [tag] 494\t\t\tetProofStatus(receiver, tempRe...\n      JUMP \t\t\tetProofStatus(receiver, tempRe...\n    tag 507\t\t\tetProofStatus(receiver, tempRe...\n      JUMPDEST \t\t\tetProofStatus(receiver, tempRe...\n      PUSH 0\t\t\tetProofStatus(receiver, tempRe...\n      ADD \t\t\tetProofStatus(receiver, tempRe...\n      MLOAD \t\t\tetProofStatus(receiver, tempRe...\n      PUSH [tag] 508\t\t\tier.getProofStatus(receiver, t...\n      JUMPI \t\t\tier.getProofStatus(receiver, t...\n      DUP3 \t\t\ttIDs[i], recei\n      DUP3 \t\t\te\n      DUP2 \t\t\ttIDs[i], receiver\n      MLOAD \t\t\ttIDs[i], receiver\n      DUP2 \t\t\ttIDs[i], receiver\n      LT \t\t\ttIDs[i], receiver\n      PUSH [tag] 509\t\t\ttIDs[i], receiver\n      JUMPI \t\t\ttIDs[i], receiver\n      PUSH [tag] 510\t\t\ttIDs[i], receiver\n      PUSH [tag] 163\t\t\ttIDs[i], receiver\n      JUMP \t\t\ttIDs[i], receiver\n    tag 510\t\t\ttIDs[i], receiver\n      JUMPDEST \t\t\ttIDs[i], receiver\n    tag 509\t\t\ttIDs[i], receiver\n      JUMPDEST \t\t\ttIDs[i], receiver\n      PUSH 20\t\t\ttIDs[i], receiver\n      MUL \t\t\ttIDs[i], receiver\n      PUSH 20\t\t\ttIDs[i], receiver\n      ADD \t\t\ttIDs[i], receiver\n      ADD \t\t\ttIDs[i], receiver\n      MLOAD \t\t\ttIDs[i], receiver\n      DUP5 \t\t\t\\r\\n      \n      PUSH 40\t\t\trified(tempRequestIDs[i], rece...\n      MLOAD \t\t\trified(tempRequestIDs[i], rece...\n      PUSH A5A4608E00000000000000000000000000000000000000000000000000000000\t\t\trified(tempRequestIDs[i], rece...\n      DUP2 \t\t\trified(tempRequestIDs[i], rece...\n      MSTORE \t\t\trified(tempRequestIDs[i], rece...\n      PUSH 4\t\t\trified(tempRequestIDs[i], rece...\n      ADD \t\t\trified(tempRequestIDs[i], rece...\n      PUSH [tag] 511\t\t\trified(tempRequestIDs[i], rece...\n      SWAP3 \t\t\trified(tempRequestIDs[i], rece...\n      SWAP2 \t\t\trified(tempRequestIDs[i], rece...\n      SWAP1 \t\t\trified(tempRequestIDs[i], rece...\n      PUSH [tag] 499\t\t\trified(tempRequestIDs[i], rece...\n      JUMP \t\t\trified(tempRequestIDs[i], rece...\n    tag 511\t\t\trified(tempRequestIDs[i], rece...\n      JUMPDEST \t\t\trified(tempRequestIDs[i], rece...\n      PUSH 40\t\t\trified(tempRequestIDs[i], rece...\n      MLOAD \t\t\trified(tempRequestIDs[i], rece...\n      DUP1 \t\t\trified(tempRequestIDs[i], rece...\n      SWAP2 \t\t\trified(tempRequestIDs[i], rece...\n      SUB \t\t\trified(tempRequestIDs[i], rece...\n      SWAP1 \t\t\trified(tempRequestIDs[i], rece...\n      REVERT \t\t\trified(tempRequestIDs[i], rece...\n    tag 508\t\t\tier.getProofStatus(receiver, t...\n      JUMPDEST \t\t\tier.getProofStatus(receiver, t...\n    tag 501\t\t\t256(bytes(role)) == keccak256(...\n      JUMPDEST \t\t\t256(bytes(role)) == keccak256(...\n    tag 500\t\t\t256(bytes(role)) == keccak256(...\n      JUMPDEST \t\t\t256(bytes(role)) == keccak256(...\n      POP \t\t\t     string memory role = toke...\n    tag 477\t\t\t56 i = 0; i < tempRequestIDs.l...\n      JUMPDEST \t\t\t56 i = 0; i < tempRequestIDs.l...\n      DUP1 \t\t\t   \n      DUP1 \t\t\t   \n      PUSH [tag] 512\t\t\t   \n      SWAP1 \t\t\t   \n      PUSH [tag] 179\t\t\t   \n      JUMP \t\t\t   \n    tag 512\t\t\t   \n      JUMPDEST \t\t\t   \n      SWAP2 \t\t\t   \n      POP \t\t\t   \n      POP \t\t\t   \n      PUSH [tag] 475\t\t\t56 i = 0; i < tempRequestIDs.l...\n      JUMP \t\t\t56 i = 0; i < tempRequestIDs.l...\n    tag 476\t\t\t56 i = 0; i < tempRequestIDs.l...\n      JUMPDEST \t\t\t56 i = 0; i < tempRequestIDs.l...\n      POP \t\t\t56 i = 0; i < tempRequestIDs.l...\n      POP \t\t\t uint64[] memory tempRequestID...\n      POP \t\t\tcheckAllProofsVerified(uint256...\n      POP \t\t\tcheckAllProofsVerified(uint256...\n      POP \t\t\tcheckAllProofsVerified(uint256...\n      JUMP \t\t\tcheckAllProofsVerified(uint256...\n    tag 266\t\t\t\n      JUMPDEST \t\t\t\n      PUSH 0\t\t\t\n      PUSH 20\t\t\t\n      DUP3 \t\t\t\n      MUL \t\t\t\n      PUSH 20\t\t\t\n      DUP5 \t\t\t\n      ADD \t\t\t\n      ADD \t\t\t\n      MLOAD \t\t\t\n      SWAP1 \t\t\t\n      POP \t\t\t\n      SWAP3 \t\t\t\n      SWAP2 \t\t\t\n      POP \t\t\t\n      POP \t\t\t\n      JUMP \t\t\t\n    tag 268\t\t\t\n      JUMPDEST \t\t\t\n      PUSH 0\t\t\t\n      PUSH 20\t\t\t\n      DUP3 \t\t\t\n      MUL \t\t\t\n      PUSH 20\t\t\t\n      DUP5 \t\t\t\n      ADD \t\t\t\n      ADD \t\t\t\n      MLOAD \t\t\t\n      SWAP1 \t\t\t\n      POP \t\t\t\n      SWAP3 \t\t\t\n      SWAP2 \t\t\t\n      POP \t\t\t\n      POP \t\t\t\n      JUMP \t\t\t\n    tag 330\t\t\tfunction _isAdmin(address _adm...\n      JUMPDEST \t\t\tfunction _isAdmin(address _adm...\n      PUSH 0\t\t\tbool\n      DUP1 \t\t\tuint i\n      PUSH 0\t\t\t0\n      SWAP1 \t\t\tuint i = 0\n      POP \t\t\tuint i = 0\n    tag 516\t\t\tfor (uint i = 0; i < admins.le...\n      JUMPDEST \t\t\tfor (uint i = 0; i < admins.le...\n      PUSH 4\t\t\tadmins\n      DUP1 \t\t\tadmins.length\n      SLOAD \t\t\tadmins.length\n      SWAP1 \t\t\tadmins.length\n      POP \t\t\tadmins.length\n      DUP2 \t\t\ti\n      LT \t\t\ti < admins.length\n      ISZERO \t\t\tfor (uint i = 0; i < admins.le...\n      PUSH [tag] 517\t\t\tfor (uint i = 0; i < admins.le...\n      JUMPI \t\t\tfor (uint i = 0; i < admins.le...\n      DUP3 \t\t\t_admin\n      PUSH FFFFFFFFFFFFFFFFFFFFFFFFFFFFFFFFFFFFFFFF\t\t\tadmins[i] == _admin\n      AND \t\t\tadmins[i] == _admin\n      PUSH 4\t\t\tadmins\n      DUP3 \t\t\ti\n      DUP2 \t\t\tadmins[i]\n      SLOAD \t\t\tadmins[i]\n      DUP2 \t\t\tadmins[i]\n      LT \t\t\tadmins[i]\n      PUSH [tag] 519\t\t\tadmins[i]\n      JUMPI \t\t\tadmins[i]\n      PUSH [tag] 520\t\t\tadmins[i]\n      PUSH [tag] 163\t\t\tadmins[i]\n      JUMP \t\t\tadmins[i]\n    tag 520\t\t\tadmins[i]\n      JUMPDEST \t\t\tadmins[i]\n    tag 519\t\t\tadmins[i]\n      JUMPDEST \t\t\tadmins[i]\n      SWAP1 \t\t\tadmins[i]\n      PUSH 0\t\t\tadmins[i]\n      MSTORE \t\t\tadmins[i]\n      PUSH 20\t\t\tadmins[i]\n      PUSH 0\t\t\tadmins[i]\n      KECCAK256 \t\t\tadmins[i]\n      ADD \t\t\tadmins[i]\n      PUSH 0\t\t\tadmins[i]\n      SWAP1 \t\t\tadmins[i]\n      SLOAD \t\t\tadmins[i]\n      SWAP1 \t\t\tadmins[i]\n      PUSH 100\t\t\tadmins[i]\n      EXP \t\t\tadmins[i]\n      SWAP1 \t\t\tadmins[i]\n      DIV \t\t\tadmins[i]\n      PUSH FFFFFFFFFFFFFFFFFFFFFFFFFFFFFFFFFFFFFFFF\t\t\tadmins[i]\n      AND \t\t\tadmins[i]\n      PUSH FFFFFFFFFFFFFFFFFFFFFFFFFFFFFFFFFFFFFFFF\t\t\tadmins[i] == _admin\n      AND \t\t\tadmins[i] == _admin\n      SUB \t\t\tadmins[i] == _admin\n      PUSH [tag] 522\t\t\tif (admins[i] == _admin) {\\r\\n...\n      JUMPI \t\t\tif (admins[i] == _admin) {\\r\\n...\n      PUSH 1\t\t\ttrue\n      SWAP2 \t\t\treturn true\n      POP \t\t\treturn true\n      POP \t\t\treturn true\n      PUSH [tag] 515\t\t\treturn true\n      JUMP \t\t\treturn true\n    tag 522\t\t\tif (admins[i] == _admin) {\\r\\n...\n      JUMPDEST \t\t\tif (admins[i] == _admin) {\\r\\n...\n      DUP1 \t\t\ti++\n      DUP1 \t\t\ti++\n      PUSH [tag] 523\t\t\ti++\n      SWAP1 \t\t\ti++\n      PUSH [tag] 179\t\t\ti++\n      JUMP \t\t\ti++\n    tag 523\t\t\ti++\n      JUMPDEST \t\t\ti++\n      SWAP2 \t\t\ti++\n      POP \t\t\ti++\n      POP \t\t\ti++\n      PUSH [tag] 516\t\t\tfor (uint i = 0; i < admins.le...\n      JUMP \t\t\tfor (uint i = 0; i < admins.le...\n    tag 517\t\t\tfor (uint i = 0; i < admins.le...\n      JUMPDEST \t\t\tfor (uint i = 0; i < admins.le...\n      POP \t\t\tfor (uint i = 0; i < admins.le...\n      PUSH 0\t\t\tfalse\n      SWAP1 \t\t\treturn false\n      POP \t\t\treturn false\n    tag 515\t\t\tfunction _isAdmin(address _adm...\n      JUMPDEST \t\t\tfunction _isAdmin(address _adm...\n      SWAP2 \t\t\tfunction _isAdmin(address _adm...\n      SWAP1 \t\t\tfunction _isAdmin(address _adm...\n      POP \t\t\tfunction _isAdmin(address _adm...\n      JUMP \t\t\tfunction _isAdmin(address _adm...\n    tag 339\t\t\t mapping(uint64 => string))) p...\n      JUMPDEST \t\t\t mapping(uint64 => string))) p...\n      PUSH 0\t\t\tle;\\r\\n\\r\\n    // St\n      PUSH 3\t\t\tt to r\n      PUSH 0\t\t\tt to r\n      SWAP1 \t\t\tt to r\n      SLOAD \t\t\tt to r\n      SWAP1 \t\t\tt to r\n      PUSH 100\t\t\tt to r\n      EXP \t\t\tt to r\n      SWAP1 \t\t\tt to r\n      DIV \t\t\tt to r\n      PUSH FFFFFFFFFFFFFFFFFFFFFFFFFFFFFFFFFFFFFFFF\t\t\tt to r\n      AND \t\t\tt to r\n      SWAP1 \t\t\tle;\\r\\n\\r\\n    // Struct to r\n      POP \t\t\tle;\\r\\n\\r\\n    // Struct to r\n      DUP2 \t\t\t conditi\n      PUSH 3\t\t\t spend\n      PUSH 0\t\t\t spend\n      PUSH 100\t\t\t spending conditi\n      EXP \t\t\t spending conditi\n      DUP2 \t\t\t spending conditi\n      SLOAD \t\t\t spending conditi\n      DUP2 \t\t\t spending conditi\n      PUSH FFFFFFFFFFFFFFFFFFFFFFFFFFFFFFFFFFFFFFFF\t\t\t spending conditi\n      MUL \t\t\t spending conditi\n      NOT \t\t\t spending conditi\n      AND \t\t\t spending conditi\n      SWAP1 \t\t\t spending conditi\n      DUP4 \t\t\t spending conditi\n      PUSH FFFFFFFFFFFFFFFFFFFFFFFFFFFFFFFFFFFFFFFF\t\t\t spending conditi\n      AND \t\t\t spending conditi\n      MUL \t\t\t spending conditi\n      OR \t\t\t spending conditi\n      SWAP1 \t\t\t spending conditi\n      SSTORE \t\t\t spending conditi\n      POP \t\t\t spending conditi\n      DUP2 \t\t\tring att\n      PUSH FFFFFFFFFFFFFFFFFFFFFFFFFFFFFFFFFFFFFFFF\t\t\tSpendingCondition {\\r\\n       ...\n      AND \t\t\tSpendingCondition {\\r\\n       ...\n      DUP2 \t\t\t        \n      PUSH FFFFFFFFFFFFFFFFFFFFFFFFFFFFFFFFFFFFFFFF\t\t\tSpendingCondition {\\r\\n       ...\n      AND \t\t\tSpendingCondition {\\r\\n       ...\n      PUSH 8BE0079C531659141344CD1FD0A4F28419497F9722A3DAAFE3B4186F6B6457E0\t\t\tSpendingCondition {\\r\\n       ...\n      PUSH 40\t\t\tSpendingCondition {\\r\\n       ...\n      MLOAD \t\t\tSpendingCondition {\\r\\n       ...\n      PUSH 40\t\t\tSpendingCondition {\\r\\n       ...\n      MLOAD \t\t\tSpendingCondition {\\r\\n       ...\n      DUP1 \t\t\tSpendingCondition {\\r\\n       ...\n      SWAP2 \t\t\tSpendingCondition {\\r\\n       ...\n      SUB \t\t\tSpendingCondition {\\r\\n       ...\n      SWAP1 \t\t\tSpendingCondition {\\r\\n       ...\n      LOG3 \t\t\tSpendingCondition {\\r\\n       ...\n      POP \t\t\tRequest_role;\\r\\n\\r\\n    // St...\n      POP \t\t\t mapping(uint64 => string))) p...\n      JUMP \t\t\t mapping(uint64 => string))) p...\n    tag 351\t\t\ton addProofRequestAndRole(uint...\n      JUMPDEST \t\t\ton addProofRequestAndRole(uint...\n      PUSH [tag] 526\t\t\tkenIDs.contains(tokenID), \"tok\n      DUP5 \t\t\tD), \"to\n      PUSH 5\t\t\tkenIDs.conta\n      PUSH [tag] 219\t\t\tkenIDs.contains(token\n      SWAP1 \t\t\tkenIDs.contains(token\n      SWAP2 \t\t\tkenIDs.contains(tokenID), \"tok\n      SWAP1 \t\t\tkenIDs.contains(tokenID), \"tok\n      PUSH FFFFFFFF\t\t\tkenIDs.contains(tokenID), \"tok\n      AND \t\t\tkenIDs.contains(tokenID), \"tok\n      JUMP \t\t\tkenIDs.contains(tokenID), \"tok\n    tag 526\t\t\tkenIDs.contains(tokenID), \"tok\n      JUMPDEST \t\t\tkenIDs.contains(tokenID), \"tok\n      PUSH [tag] 527\t\t\te(_allTokenIDs.contains(tokenI...\n      JUMPI \t\t\te(_allTokenIDs.contains(tokenI...\n      PUSH 40\t\t\te(_allTokenIDs.contains(tokenI...\n      MLOAD \t\t\te(_allTokenIDs.contains(tokenI...\n      PUSH 8C379A000000000000000000000000000000000000000000000000000000000\t\t\te(_allTokenIDs.contains(tokenI...\n      DUP2 \t\t\te(_allTokenIDs.contains(tokenI...\n      MSTORE \t\t\te(_allTokenIDs.contains(tokenI...\n      PUSH 4\t\t\te(_allTokenIDs.contains(tokenI...\n      ADD \t\t\te(_allTokenIDs.contains(tokenI...\n      PUSH [tag] 528\t\t\te(_allTokenIDs.contains(tokenI...\n      SWAP1 \t\t\te(_allTokenIDs.contains(tokenI...\n      PUSH [tag] 276\t\t\te(_allTokenIDs.contains(tokenI...\n      JUMP \t\t\te(_allTokenIDs.contains(tokenI...\n    tag 528\t\t\te(_allTokenIDs.contains(tokenI...\n      JUMPDEST \t\t\te(_allTokenIDs.contains(tokenI...\n      PUSH 40\t\t\te(_allTokenIDs.contains(tokenI...\n      MLOAD \t\t\te(_allTokenIDs.contains(tokenI...\n      DUP1 \t\t\te(_allTokenIDs.contains(tokenI...\n      SWAP2 \t\t\te(_allTokenIDs.contains(tokenI...\n      SUB \t\t\te(_allTokenIDs.contains(tokenI...\n      SWAP1 \t\t\te(_allTokenIDs.contains(tokenI...\n      REVERT \t\t\te(_allTokenIDs.contains(tokenI...\n    tag 527\t\t\te(_allTokenIDs.contains(tokenI...\n      JUMPDEST \t\t\te(_allTokenIDs.contains(tokenI...\n      PUSH 0\t\t\to\n      PUSH 8\t\t\tD_requestSetter_proofRequest_r...\n      PUSH 0\t\t\tD_requestSetter_proofRequest_r...\n      DUP7 \t\t\tD][msg.\n      DUP2 \t\t\tD_requestSetter_proofRequest_r...\n      MSTORE \t\t\tD_requestSetter_proofRequest_r...\n      PUSH 20\t\t\tD_requestSetter_proofRequest_r...\n      ADD \t\t\tD_requestSetter_proofRequest_r...\n      SWAP1 \t\t\tD_requestSetter_proofRequest_r...\n      DUP2 \t\t\tD_requestSetter_proofRequest_r...\n      MSTORE \t\t\tD_requestSetter_proofRequest_r...\n      PUSH 20\t\t\tD_requestSetter_proofRequest_r...\n      ADD \t\t\tD_requestSetter_proofRequest_r...\n      PUSH 0\t\t\tD_requestSetter_proofRequest_r...\n      KECCAK256 \t\t\tD_requestSetter_proofRequest_r...\n      PUSH 0\t\t\tD_requestSetter_proofRequest_r...\n      CALLER \t\t\tnder][requ\n      PUSH FFFFFFFFFFFFFFFFFFFFFFFFFFFFFFFFFFFFFFFF\t\t\tD_requestSetter_proofRequest_r...\n      AND \t\t\tD_requestSetter_proofRequest_r...\n      PUSH FFFFFFFFFFFFFFFFFFFFFFFFFFFFFFFFFFFFFFFF\t\t\tD_requestSetter_proofRequest_r...\n      AND \t\t\tD_requestSetter_proofRequest_r...\n      DUP2 \t\t\tD_requestSetter_proofRequest_r...\n      MSTORE \t\t\tD_requestSetter_proofRequest_r...\n      PUSH 20\t\t\tD_requestSetter_proofRequest_r...\n      ADD \t\t\tD_requestSetter_proofRequest_r...\n      SWAP1 \t\t\tD_requestSetter_proofRequest_r...\n      DUP2 \t\t\tD_requestSetter_proofRequest_r...\n      MSTORE \t\t\tD_requestSetter_proofRequest_r...\n      PUSH 20\t\t\tD_requestSetter_proofRequest_r...\n      ADD \t\t\tD_requestSetter_proofRequest_r...\n      PUSH 0\t\t\tD_requestSetter_proofRequest_r...\n      KECCAK256 \t\t\tD_requestSetter_proofRequest_r...\n      PUSH 0\t\t\tD_requestSetter_proofRequest_r...\n      DUP6 \t\t\ttID]).len\n      PUSH FFFFFFFFFFFFFFFF\t\t\tD_requestSetter_proofRequest_r...\n      AND \t\t\tD_requestSetter_proofRequest_r...\n      PUSH FFFFFFFFFFFFFFFF\t\t\tD_requestSetter_proofRequest_r...\n      AND \t\t\tD_requestSetter_proofRequest_r...\n      DUP2 \t\t\tD_requestSetter_proofRequest_r...\n      MSTORE \t\t\tD_requestSetter_proofRequest_r...\n      PUSH 20\t\t\tD_requestSetter_proofRequest_r...\n      ADD \t\t\tD_requestSetter_proofRequest_r...\n      SWAP1 \t\t\tD_requestSetter_proofRequest_r...\n      DUP2 \t\t\tD_requestSetter_proofRequest_r...\n      MSTORE \t\t\tD_requestSetter_proofRequest_r...\n      PUSH 20\t\t\tD_requestSetter_proofRequest_r...\n      ADD \t\t\tD_requestSetter_proofRequest_r...\n      PUSH 0\t\t\tD_requestSetter_proofRequest_r...\n      KECCAK256 \t\t\tD_requestSetter_proofRequest_r...\n      DUP1 \t\t\ttokenID_requestSetter_proofReq...\n      SLOAD \t\t\ttokenID_requestSetter_proofReq...\n      PUSH [tag] 529\t\t\ttokenID_requestSetter_proofReq...\n      SWAP1 \t\t\ttokenID_requestSetter_proofReq...\n      PUSH [tag] 149\t\t\ttokenID_requestSetter_proofReq...\n      JUMP \t\t\ttokenID_requestSetter_proofReq...\n    tag 529\t\t\ttokenID_requestSetter_proofReq...\n      JUMPDEST \t\t\ttokenID_requestSetter_proofReq...\n      SWAP1 \t\t\ttokenID_requestSetter_proofReq...\n      POP \t\t\ttokenID_requestSetter_proofReq...\n      EQ \t\t\ttokenID_requestSetter_proofReq...\n      PUSH [tag] 530\t\t\te(bytes(tokenID_requestSetter_...\n      JUMPI \t\t\te(bytes(tokenID_requestSetter_...\n      PUSH 40\t\t\te(bytes(tokenID_requestSetter_...\n      MLOAD \t\t\te(bytes(tokenID_requestSetter_...\n      PUSH 8C379A000000000000000000000000000000000000000000000000000000000\t\t\te(bytes(tokenID_requestSetter_...\n      DUP2 \t\t\te(bytes(tokenID_requestSetter_...\n      MSTORE \t\t\te(bytes(tokenID_requestSetter_...\n      PUSH 4\t\t\te(bytes(tokenID_requestSetter_...\n      ADD \t\t\te(bytes(tokenID_requestSetter_...\n      PUSH [tag] 531\t\t\te(bytes(tokenID_requestSetter_...\n      SWAP1 \t\t\te(bytes(tokenID_requestSetter_...\n      PUSH [tag] 532\t\t\te(bytes(tokenID_requestSetter_...\n      JUMP \t\t\te(bytes(tokenID_requestSetter_...\n    tag 531\t\t\te(bytes(tokenID_requestSetter_...\n      JUMPDEST \t\t\te(bytes(tokenID_requestSetter_...\n      PUSH 40\t\t\te(bytes(tokenID_requestSetter_...\n      MLOAD \t\t\te(bytes(tokenID_requestSetter_...\n      DUP1 \t\t\te(bytes(tokenID_requestSetter_...\n      SWAP2 \t\t\te(bytes(tokenID_requestSetter_...\n      SUB \t\t\te(bytes(tokenID_requestSetter_...\n      SWAP1 \t\t\te(bytes(tokenID_requestSetter_...\n      REVERT \t\t\te(bytes(tokenID_requestSetter_...\n    tag 530\t\t\te(bytes(tokenID_requestSetter_...\n      JUMPDEST \t\t\te(bytes(tokenID_requestSetter_...\n      PUSH 40\t\t\t\"sender\")) ||\\r\\n\n      MLOAD \t\t\t\"sender\")) ||\\r\\n\n      DUP1 \t\t\t\"sender\")) ||\\r\\n\n      PUSH 40\t\t\t\"sender\")) ||\\r\\n\n      ADD \t\t\t\"sender\")) ||\\r\\n\n      PUSH 40\t\t\t\"sender\")) ||\\r\\n\n      MSTORE \t\t\t\"sender\")) ||\\r\\n\n      DUP1 \t\t\t\"sender\")) ||\\r\\n\n      PUSH 6\t\t\t\"sender\")) ||\\r\\n\n      DUP2 \t\t\t\"sender\")) ||\\r\\n\n      MSTORE \t\t\t\"sender\")) ||\\r\\n\n      PUSH 20\t\t\t\"sender\")) ||\\r\\n\n      ADD \t\t\t\"sender\")) ||\\r\\n\n      PUSH 73656E6465720000000000000000000000000000000000000000000000000000\t\t\t\"sender\")) ||\\r\\n\n      DUP2 \t\t\t\"sender\")) ||\\r\\n\n      MSTORE \t\t\t\"sender\")) ||\\r\\n\n      POP \t\t\t\"sender\")) ||\\r\\n\n      DUP1 \t\t\t256(bytes(\"sender\")) ||\\r\\n \n      MLOAD \t\t\t256(bytes(\"sender\")) ||\\r\\n \n      SWAP1 \t\t\t256(bytes(\"sender\")) ||\\r\\n \n      PUSH 20\t\t\t256(bytes(\"sender\")) ||\\r\\n \n      ADD \t\t\t256(bytes(\"sender\")) ||\\r\\n \n      KECCAK256 \t\t\t256(bytes(\"sender\")) ||\\r\\n \n      DUP3 \t\t\t == \n      DUP3 \t\t\t == \n      PUSH 40\t\t\t256(bytes(role)) == ke\n      MLOAD \t\t\t256(bytes(role)) == ke\n      PUSH [tag] 533\t\t\t256(bytes(role)) == ke\n      SWAP3 \t\t\t256(bytes(role)) == ke\n      SWAP2 \t\t\t256(bytes(role)) == ke\n      SWAP1 \t\t\t256(bytes(role)) == ke\n      PUSH [tag] 192\t\t\t256(bytes(role)) == ke\n      JUMP \t\t\t256(bytes(role)) == ke\n    tag 533\t\t\t256(bytes(role)) == ke\n      JUMPDEST \t\t\t256(bytes(role)) == ke\n      PUSH 40\t\t\t256(bytes(role)) == ke\n      MLOAD \t\t\t256(bytes(role)) == ke\n      DUP1 \t\t\t256(bytes(role)) == ke\n      SWAP2 \t\t\t256(bytes(role)) == ke\n      SUB \t\t\t256(bytes(role)) == ke\n      SWAP1 \t\t\t256(bytes(role)) == ke\n      KECCAK256 \t\t\t256(bytes(role)) == ke\n      EQ \t\t\t256(bytes(role)) == keccak256(...\n      DUP1 \t\t\t256(bytes(role)) == keccak256(...\n      PUSH [tag] 534\t\t\t256(bytes(role)) == keccak256(...\n      JUMPI \t\t\t256(bytes(role)) == keccak256(...\n      POP \t\t\t256(bytes(role)) == keccak256(...\n      PUSH 40\t\t\t\"receiver\")),\\r\\n  \n      MLOAD \t\t\t\"receiver\")),\\r\\n  \n      DUP1 \t\t\t\"receiver\")),\\r\\n  \n      PUSH 40\t\t\t\"receiver\")),\\r\\n  \n      ADD \t\t\t\"receiver\")),\\r\\n  \n      PUSH 40\t\t\t\"receiver\")),\\r\\n  \n      MSTORE \t\t\t\"receiver\")),\\r\\n  \n      DUP1 \t\t\t\"receiver\")),\\r\\n  \n      PUSH 8\t\t\t\"receiver\")),\\r\\n  \n      DUP2 \t\t\t\"receiver\")),\\r\\n  \n      MSTORE \t\t\t\"receiver\")),\\r\\n  \n      PUSH 20\t\t\t\"receiver\")),\\r\\n  \n      ADD \t\t\t\"receiver\")),\\r\\n  \n      PUSH 7265636569766572000000000000000000000000000000000000000000000000\t\t\t\"receiver\")),\\r\\n  \n      DUP2 \t\t\t\"receiver\")),\\r\\n  \n      MSTORE \t\t\t\"receiver\")),\\r\\n  \n      POP \t\t\t\"receiver\")),\\r\\n  \n      DUP1 \t\t\t256(bytes(\"receiver\")),\\r\\n   \n      MLOAD \t\t\t256(bytes(\"receiver\")),\\r\\n   \n      SWAP1 \t\t\t256(bytes(\"receiver\")),\\r\\n   \n      PUSH 20\t\t\t256(bytes(\"receiver\")),\\r\\n   \n      ADD \t\t\t256(bytes(\"receiver\")),\\r\\n   \n      KECCAK256 \t\t\t256(bytes(\"receiver\")),\\r\\n   \n      DUP3 \t\t\t == \n      DUP3 \t\t\t == \n      PUSH 40\t\t\t256(bytes(role)) == ke\n      MLOAD \t\t\t256(bytes(role)) == ke\n      PUSH [tag] 535\t\t\t256(bytes(role)) == ke\n      SWAP3 \t\t\t256(bytes(role)) == ke\n      SWAP2 \t\t\t256(bytes(role)) == ke\n      SWAP1 \t\t\t256(bytes(role)) == ke\n      PUSH [tag] 192\t\t\t256(bytes(role)) == ke\n      JUMP \t\t\t256(bytes(role)) == ke\n    tag 535\t\t\t256(bytes(role)) == ke\n      JUMPDEST \t\t\t256(bytes(role)) == ke\n      PUSH 40\t\t\t256(bytes(role)) == ke\n      MLOAD \t\t\t256(bytes(role)) == ke\n      DUP1 \t\t\t256(bytes(role)) == ke\n      SWAP2 \t\t\t256(bytes(role)) == ke\n      SUB \t\t\t256(bytes(role)) == ke\n      SWAP1 \t\t\t256(bytes(role)) == ke\n      KECCAK256 \t\t\t256(bytes(role)) == ke\n      EQ \t\t\t256(bytes(role)) == keccak256(...\n    tag 534\t\t\t256(bytes(role)) == keccak256(...\n      JUMPDEST \t\t\t256(bytes(role)) == keccak256(...\n      PUSH [tag] 536\t\t\te(\\r\\n            keccak256(by...\n      JUMPI \t\t\te(\\r\\n            keccak256(by...\n      PUSH 40\t\t\te(\\r\\n            keccak256(by...\n      MLOAD \t\t\te(\\r\\n            keccak256(by...\n      PUSH 8C379A000000000000000000000000000000000000000000000000000000000\t\t\te(\\r\\n            keccak256(by...\n      DUP2 \t\t\te(\\r\\n            keccak256(by...\n      MSTORE \t\t\te(\\r\\n            keccak256(by...\n      PUSH 4\t\t\te(\\r\\n            keccak256(by...\n      ADD \t\t\te(\\r\\n            keccak256(by...\n      PUSH [tag] 537\t\t\te(\\r\\n            keccak256(by...\n      SWAP1 \t\t\te(\\r\\n            keccak256(by...\n      PUSH [tag] 538\t\t\te(\\r\\n            keccak256(by...\n      JUMP \t\t\te(\\r\\n            keccak256(by...\n    tag 537\t\t\te(\\r\\n            keccak256(by...\n      JUMPDEST \t\t\te(\\r\\n            keccak256(by...\n      PUSH 40\t\t\te(\\r\\n            keccak256(by...\n      MLOAD \t\t\te(\\r\\n            keccak256(by...\n      DUP1 \t\t\te(\\r\\n            keccak256(by...\n      SWAP2 \t\t\te(\\r\\n            keccak256(by...\n      SUB \t\t\te(\\r\\n            keccak256(by...\n      SWAP1 \t\t\te(\\r\\n            keccak256(by...\n      REVERT \t\t\te(\\r\\n            keccak256(by...\n    tag 536\t\t\te(\\r\\n            keccak256(by...\n      JUMPDEST \t\t\te(\\r\\n            keccak256(by...\n      DUP2 \t\t\t\\n   \n      DUP2 \t\t\t\\n   \n      PUSH 8\t\t\tD_requestSetter_proofRequest_r...\n      PUSH 0\t\t\tD_requestSetter_proofRequest_r...\n      DUP8 \t\t\tD][msg.\n      DUP2 \t\t\tD_requestSetter_proofRequest_r...\n      MSTORE \t\t\tD_requestSetter_proofRequest_r...\n      PUSH 20\t\t\tD_requestSetter_proofRequest_r...\n      ADD \t\t\tD_requestSetter_proofRequest_r...\n      SWAP1 \t\t\tD_requestSetter_proofRequest_r...\n      DUP2 \t\t\tD_requestSetter_proofRequest_r...\n      MSTORE \t\t\tD_requestSetter_proofRequest_r...\n      PUSH 20\t\t\tD_requestSetter_proofRequest_r...\n      ADD \t\t\tD_requestSetter_proofRequest_r...\n      PUSH 0\t\t\tD_requestSetter_proofRequest_r...\n      KECCAK256 \t\t\tD_requestSetter_proofRequest_r...\n      PUSH 0\t\t\tD_requestSetter_proofRequest_r...\n      CALLER \t\t\tnder][requ\n      PUSH FFFFFFFFFFFFFFFFFFFFFFFFFFFFFFFFFFFFFFFF\t\t\tD_requestSetter_proofRequest_r...\n      AND \t\t\tD_requestSetter_proofRequest_r...\n      PUSH FFFFFFFFFFFFFFFFFFFFFFFFFFFFFFFFFFFFFFFF\t\t\tD_requestSetter_proofRequest_r...\n      AND \t\t\tD_requestSetter_proofRequest_r...\n      DUP2 \t\t\tD_requestSetter_proofRequest_r...\n      MSTORE \t\t\tD_requestSetter_proofRequest_r...\n      PUSH 20\t\t\tD_requestSetter_proofRequest_r...\n      ADD \t\t\tD_requestSetter_proofRequest_r...\n      SWAP1 \t\t\tD_requestSetter_proofRequest_r...\n      DUP2 \t\t\tD_requestSetter_proofRequest_r...\n      MSTORE \t\t\tD_requestSetter_proofRequest_r...\n      PUSH 20\t\t\tD_requestSetter_proofRequest_r...\n      ADD \t\t\tD_requestSetter_proofRequest_r...\n      PUSH 0\t\t\tD_requestSetter_proofRequest_r...\n      KECCAK256 \t\t\tD_requestSetter_proofRequest_r...\n      PUSH 0\t\t\tD_requestSetter_proofRequest_r...\n      DUP7 \t\t\ttID] = ro\n      PUSH FFFFFFFFFFFFFFFF\t\t\tD_requestSetter_proofRequest_r...\n      AND \t\t\tD_requestSetter_proofRequest_r...\n      PUSH FFFFFFFFFFFFFFFF\t\t\tD_requestSetter_proofRequest_r...\n      AND \t\t\tD_requestSetter_proofRequest_r...\n      DUP2 \t\t\tD_requestSetter_proofRequest_r...\n      MSTORE \t\t\tD_requestSetter_proofRequest_r...\n      PUSH 20\t\t\tD_requestSetter_proofRequest_r...\n      ADD \t\t\tD_requestSetter_proofRequest_r...\n      SWAP1 \t\t\tD_requestSetter_proofRequest_r...\n      DUP2 \t\t\tD_requestSetter_proofRequest_r...\n      MSTORE \t\t\tD_requestSetter_proofRequest_r...\n      PUSH 20\t\t\tD_requestSetter_proofRequest_r...\n      ADD \t\t\tD_requestSetter_proofRequest_r...\n      PUSH 0\t\t\tD_requestSetter_proofRequest_r...\n      KECCAK256 \t\t\tD_requestSetter_proofRequest_r...\n      SWAP2 \t\t\tD_requestSetter_proofRequest_r...\n      DUP3 \t\t\tD_requestSetter_proofRequest_r...\n      PUSH [tag] 539\t\t\tD_requestSetter_proofRequest_r...\n      SWAP3 \t\t\tD_requestSetter_proofRequest_r...\n      SWAP2 \t\t\tD_requestSetter_proofRequest_r...\n      SWAP1 \t\t\tD_requestSetter_proofRequest_r...\n      PUSH [tag] 227\t\t\tD_requestSetter_proofRequest_r...\n      JUMP \t\t\tD_requestSetter_proofRequest_r...\n    tag 539\t\t\tD_requestSetter_proofRequest_r...\n      JUMPDEST \t\t\tD_requestSetter_proofRequest_r...\n      POP \t\t\tD_requestSetter_proofRequest_r...\n      PUSH A\t\t\tequestIDs.push(\n      DUP4 \t\t\ttID);\\r\\n  \n      SWAP1 \t\t\tequestIDs.push(requestID);\\r\\n...\n      DUP1 \t\t\tequestIDs.push(requestID);\\r\\n...\n      PUSH 1\t\t\tequestIDs.push(requestID);\\r\\n...\n      DUP2 \t\t\tequestIDs.push(requestID);\\r\\n...\n      SLOAD \t\t\tequestIDs.push(requestID);\\r\\n...\n      ADD \t\t\tequestIDs.push(requestID);\\r\\n...\n      DUP1 \t\t\tequestIDs.push(requestID);\\r\\n...\n      DUP3 \t\t\tequestIDs.push(requestID);\\r\\n...\n      SSTORE \t\t\tequestIDs.push(requestID);\\r\\n...\n      DUP1 \t\t\tequestIDs.push(requestID);\\r\\n...\n      SWAP2 \t\t\tequestIDs.push(requestID);\\r\\n...\n      POP \t\t\tequestIDs.push(requestID);\\r\\n...\n      POP \t\t\tequestIDs.push(requestID);\\r\\n...\n      PUSH 1\t\t\tequestIDs.push(requestID);\\r\\n...\n      SWAP1 \t\t\tequestIDs.push(requestID);\\r\\n...\n      SUB \t\t\tequestIDs.push(requestID);\\r\\n...\n      SWAP1 \t\t\tequestIDs.push(requestID);\\r\\n...\n      PUSH 0\t\t\tequestIDs.push(requestID);\\r\\n...\n      MSTORE \t\t\tequestIDs.push(requestID);\\r\\n...\n      PUSH 20\t\t\tequestIDs.push(requestID);\\r\\n...\n      PUSH 0\t\t\tequestIDs.push(requestID);\\r\\n...\n      KECCAK256 \t\t\tequestIDs.push(requestID);\\r\\n...\n      SWAP1 \t\t\tequestIDs.push(requestID);\\r\\n...\n      PUSH 4\t\t\tequestIDs.push(requestID);\\r\\n...\n      SWAP2 \t\t\tequestIDs.push(requestID);\\r\\n...\n      DUP3 \t\t\tequestIDs.push(requestID);\\r\\n...\n      DUP3 \t\t\tequestIDs.push(requestID);\\r\\n...\n      DIV \t\t\tequestIDs.push(requestID);\\r\\n...\n      ADD \t\t\tequestIDs.push(requestID);\\r\\n...\n      SWAP2 \t\t\tequestIDs.push(requestID);\\r\\n...\n      SWAP1 \t\t\tequestIDs.push(requestID);\\r\\n...\n      MOD \t\t\tequestIDs.push(requestID);\\r\\n...\n      PUSH 8\t\t\tequestIDs.push(requestID);\\r\\n...\n      MUL \t\t\tequestIDs.push(requestID);\\r\\n...\n      SWAP1 \t\t\tequestIDs.push(requestID);\\r\\n...\n      SWAP2 \t\t\tequestIDs.push(requestID);\\r\\n...\n      SWAP1 \t\t\tequestIDs.push(requestID);\\r\\n...\n      SWAP2 \t\t\tequestIDs.push(requestID);\\r\\n...\n      SWAP1 \t\t\tequestIDs.push(requestID);\\r\\n...\n      SWAP2 \t\t\tequestIDs.push(requestID);\\r\\n...\n      PUSH 100\t\t\tequestIDs.push(requestID);\\r\\n...\n      EXP \t\t\tequestIDs.push(requestID);\\r\\n...\n      DUP2 \t\t\tequestIDs.push(requestID);\\r\\n...\n      SLOAD \t\t\tequestIDs.push(requestID);\\r\\n...\n      DUP2 \t\t\tequestIDs.push(requestID);\\r\\n...\n      PUSH FFFFFFFFFFFFFFFF\t\t\tequestIDs.push(requestID);\\r\\n...\n      MUL \t\t\tequestIDs.push(requestID);\\r\\n...\n      NOT \t\t\tequestIDs.push(requestID);\\r\\n...\n      AND \t\t\tequestIDs.push(requestID);\\r\\n...\n      SWAP1 \t\t\tequestIDs.push(requestID);\\r\\n...\n      DUP4 \t\t\tequestIDs.push(requestID);\\r\\n...\n      PUSH FFFFFFFFFFFFFFFF\t\t\tequestIDs.push(requestID);\\r\\n...\n      AND \t\t\tequestIDs.push(requestID);\\r\\n...\n      MUL \t\t\tequestIDs.push(requestID);\\r\\n...\n      OR \t\t\tequestIDs.push(requestID);\\r\\n...\n      SWAP1 \t\t\tequestIDs.push(requestID);\\r\\n...\n      SSTORE \t\t\tequestIDs.push(requestID);\\r\\n...\n      POP \t\t\tequestIDs.push(requestID);\\r\\n...\n      POP \t\t\ton addProofRequestAndRole(uint...\n      POP \t\t\ton addProofRequestAndRole(uint...\n      POP \t\t\ton addProofRequestAndRole(uint...\n      POP \t\t\ton addProofRequestAndRole(uint...\n      JUMP \t\t\ton addProofRequestAndRole(uint...\n    tag 371\t\t\terfaces/IZKPVerifier.sol';\\r\\n...\n      JUMPDEST \t\t\terfaces/IZKPVerifier.sol';\\r\\n...\n      PUSH 0\t\t\tRC1155,\n      CALLER \t\t\tress[] pri\n      SWAP1 \t\t\t    address[] pri\n      POP \t\t\t    address[] pri\n      SWAP1 \t\t\terfaces/IZKPVerifier.sol';\\r\\n...\n      JUMP \t\t\terfaces/IZKPVerifier.sol';\\r\\n...\n    tag 372\t\t\t\n      JUMPDEST \t\t\t\n      PUSH 0\t\t\t\n      PUSH FFFFFFFFFFFFFFFFFFFFFFFFFFFFFFFFFFFFFFFF\t\t\t\n      AND \t\t\t\n      DUP3 \t\t\t\n      PUSH FFFFFFFFFFFFFFFFFFFFFFFFFFFFFFFFFFFFFFFF\t\t\t\n      AND \t\t\t\n      SUB \t\t\t\n      PUSH [tag] 543\t\t\t\n      JUMPI \t\t\t\n      PUSH 0\t\t\t\n      PUSH 40\t\t\t\n      MLOAD \t\t\t\n      PUSH CED3E10000000000000000000000000000000000000000000000000000000000\t\t\t\n      DUP2 \t\t\t\n      MSTORE \t\t\t\n      PUSH 4\t\t\t\n      ADD \t\t\t\n      PUSH [tag] 544\t\t\t\n      SWAP2 \t\t\t\n      SWAP1 \t\t\t\n      PUSH [tag] 101\t\t\t\n      JUMP \t\t\t\n    tag 544\t\t\t\n      JUMPDEST \t\t\t\n      PUSH 40\t\t\t\n      MLOAD \t\t\t\n      DUP1 \t\t\t\n      SWAP2 \t\t\t\n      SUB \t\t\t\n      SWAP1 \t\t\t\n      REVERT \t\t\t\n    tag 543\t\t\t\n      JUMPDEST \t\t\t\n      DUP1 \t\t\t\n      PUSH 1\t\t\t\n      PUSH 0\t\t\t\n      DUP6 \t\t\t\n      PUSH FFFFFFFFFFFFFFFFFFFFFFFFFFFFFFFFFFFFFFFF\t\t\t\n      AND \t\t\t\n      PUSH FFFFFFFFFFFFFFFFFFFFFFFFFFFFFFFFFFFFFFFF\t\t\t\n      AND \t\t\t\n      DUP2 \t\t\t\n      MSTORE \t\t\t\n      PUSH 20\t\t\t\n      ADD \t\t\t\n      SWAP1 \t\t\t\n      DUP2 \t\t\t\n      MSTORE \t\t\t\n      PUSH 20\t\t\t\n      ADD \t\t\t\n      PUSH 0\t\t\t\n      KECCAK256 \t\t\t\n      PUSH 0\t\t\t\n      DUP5 \t\t\t\n      PUSH FFFFFFFFFFFFFFFFFFFFFFFFFFFFFFFFFFFFFFFF\t\t\t\n      AND \t\t\t\n      PUSH FFFFFFFFFFFFFFFFFFFFFFFFFFFFFFFFFFFFFFFF\t\t\t\n      AND \t\t\t\n      DUP2 \t\t\t\n      MSTORE \t\t\t\n      PUSH 20\t\t\t\n      ADD \t\t\t\n      SWAP1 \t\t\t\n      DUP2 \t\t\t\n      MSTORE \t\t\t\n      PUSH 20\t\t\t\n      ADD \t\t\t\n      PUSH 0\t\t\t\n      KECCAK256 \t\t\t\n      PUSH 0\t\t\t\n      PUSH 100\t\t\t\n      EXP \t\t\t\n      DUP2 \t\t\t\n      SLOAD \t\t\t\n      DUP2 \t\t\t\n      PUSH FF\t\t\t\n      MUL \t\t\t\n      NOT \t\t\t\n      AND \t\t\t\n      SWAP1 \t\t\t\n      DUP4 \t\t\t\n      ISZERO \t\t\t\n      ISZERO \t\t\t\n      MUL \t\t\t\n      OR \t\t\t\n      SWAP1 \t\t\t\n      SSTORE \t\t\t\n      POP \t\t\t\n      DUP2 \t\t\t\n      PUSH FFFFFFFFFFFFFFFFFFFFFFFFFFFFFFFFFFFFFFFF\t\t\t\n      AND \t\t\t\n      DUP4 \t\t\t\n      PUSH FFFFFFFFFFFFFFFFFFFFFFFFFFFFFFFFFFFFFFFF\t\t\t\n      AND \t\t\t\n      PUSH 17307EAB39AB6107E8899845AD3D59BD9653F200F220920489CA2B5937696C31\t\t\t\n      DUP4 \t\t\t\n      PUSH 40\t\t\t\n      MLOAD \t\t\t\n      PUSH [tag] 545\t\t\t\n      SWAP2 \t\t\t\n      SWAP1 \t\t\t\n      PUSH [tag] 43\t\t\t\n      JUMP \t\t\t\n    tag 545\t\t\t\n      JUMPDEST \t\t\t\n      PUSH 40\t\t\t\n      MLOAD \t\t\t\n      DUP1 \t\t\t\n      SWAP2 \t\t\t\n      SUB \t\t\t\n      SWAP1 \t\t\t\n      LOG3 \t\t\t\n      POP \t\t\t\n      POP \t\t\t\n      POP \t\t\t\n      JUMP \t\t\t\n    tag 437\t\t\tfor a given tokenID and user\\r...\n      JUMPDEST \t\t\tfor a given tokenID and user\\r...\n      PUSH 0\t\t\t64[] memory, S\n      PUSH [tag] 547\t\t\tdingConditio\n      PUSH [tag] 371\t\t\tdingCondit\n      JUMP \t\t\tdingConditio\n    tag 547\t\t\tdingConditio\n      JUMPDEST \t\t\tdingConditio\n      SWAP1 \t\t\t64[] memory, SpendingConditio\n      POP \t\t\t64[] memory, SpendingConditio\n      DUP1 \t\t\t uint6\n      PUSH FFFFFFFFFFFFFFFFFFFFFFFFFFFFFFFFFFFFFFFF\t\t\t\\n        uint6\n      AND \t\t\t\\n        uint6\n      DUP7 \t\t\t\\n   \n      PUSH FFFFFFFFFFFFFFFFFFFFFFFFFFFFFFFFFFFFFFFF\t\t\t\\n        uint6\n      AND \t\t\t\\n        uint6\n      EQ \t\t\t\\n        uint6\n      ISZERO \t\t\t\\n        uint6\n      DUP1 \t\t\t\\n        uint64[] memory ids ...\n      ISZERO \t\t\t\\n        uint64[] memory ids ...\n      PUSH [tag] 548\t\t\t\\n        uint64[] memory ids ...\n      JUMPI \t\t\t\\n        uint64[] memory ids ...\n      POP \t\t\t\\n        uint64[] memory ids ...\n      PUSH [tag] 549\t\t\temory ids = proofRequestIDs;\\r...\n      DUP7 \t\t\tRequ\n      DUP3 \t\t\ttIDs;\\r\n      PUSH [tag] 128\t\t\temory ids = proo\n      JUMP \t\t\temory ids = proofRequestIDs;\\r...\n    tag 549\t\t\temory ids = proofRequestIDs;\\r...\n      JUMPDEST \t\t\temory ids = proofRequestIDs;\\r...\n      ISZERO \t\t\tmemory ids = proofRequestIDs;\\...\n    tag 548\t\t\t\\n        uint64[] memory ids ...\n      JUMPDEST \t\t\t\\n        uint64[] memory ids ...\n      ISZERO \t\t\t) {\\r\\n        uint64[] memory...\n      PUSH [tag] 550\t\t\t) {\\r\\n        uint64[] memory...\n      JUMPI \t\t\t) {\\r\\n        uint64[] memory...\n      DUP1 \t\t\thow ma\n      DUP7 \t\t\t pro\n      PUSH 40\t\t\t 0;\\r\\n        // First, count...\n      MLOAD \t\t\t 0;\\r\\n        // First, count...\n      PUSH E237D92200000000000000000000000000000000000000000000000000000000\t\t\t 0;\\r\\n        // First, count...\n      DUP2 \t\t\t 0;\\r\\n        // First, count...\n      MSTORE \t\t\t 0;\\r\\n        // First, count...\n      PUSH 4\t\t\t 0;\\r\\n        // First, count...\n      ADD \t\t\t 0;\\r\\n        // First, count...\n      PUSH [tag] 551\t\t\t 0;\\r\\n        // First, count...\n      SWAP3 \t\t\t 0;\\r\\n        // First, count...\n      SWAP2 \t\t\t 0;\\r\\n        // First, count...\n      SWAP1 \t\t\t 0;\\r\\n        // First, count...\n      PUSH [tag] 552\t\t\t 0;\\r\\n        // First, count...\n      JUMP \t\t\t 0;\\r\\n        // First, count...\n    tag 551\t\t\t 0;\\r\\n        // First, count...\n      JUMPDEST \t\t\t 0;\\r\\n        // First, count...\n      PUSH 40\t\t\t 0;\\r\\n        // First, count...\n      MLOAD \t\t\t 0;\\r\\n        // First, count...\n      DUP1 \t\t\t 0;\\r\\n        // First, count...\n      SWAP2 \t\t\t 0;\\r\\n        // First, count...\n      SUB \t\t\t 0;\\r\\n        // First, count...\n      SWAP1 \t\t\t 0;\\r\\n        // First, count...\n      REVERT \t\t\t 0;\\r\\n        // First, count...\n    tag 550\t\t\t) {\\r\\n        uint64[] memory...\n      JUMPDEST \t\t\t) {\\r\\n        uint64[] memory...\n      PUSH [tag] 553\t\t\tciated with this tokenID for t...\n      DUP7 \t\t\token\n      DUP7 \t\t\t f\n      DUP7 \t\t\t t\n      DUP7 \t\t\ts use\n      DUP7 \t\t\t\\n   \n      PUSH [tag] 554\t\t\tciated with this \n      JUMP \t\t\tciated with this tokenID for t...\n    tag 553\t\t\tciated with this tokenID for t...\n      JUMPDEST \t\t\tciated with this tokenID for t...\n      POP \t\t\turns (uint64[] memory, Spendin...\n      POP \t\t\tfor a given tokenID and user\\r...\n      POP \t\t\tfor a given tokenID and user\\r...\n      POP \t\t\tfor a given tokenID and user\\r...\n      POP \t\t\tfor a given tokenID and user\\r...\n      POP \t\t\tfor a given tokenID and user\\r...\n      JUMP \t\t\tfor a given tokenID and user\\r...\n    tag 448\t\t\tenIDs.length == amounts.length...\n      JUMPDEST \t\t\tenIDs.length == amounts.length...\n      PUSH 0\t\t\td\n      PUSH FFFFFFFFFFFFFFFFFFFFFFFFFFFFFFFFFFFFFFFF\t\t\trequire(to != addr\n      AND \t\t\trequire(to != addr\n      DUP4 \t\t\trequ\n      PUSH FFFFFFFFFFFFFFFFFFFFFFFFFFFFFFFFFFFFFFFF\t\t\trequire(to != addr\n      AND \t\t\trequire(to != addr\n      SUB \t\t\trequire(to != addr\n      PUSH [tag] 556\t\t\t    require(to != address(0), ...\n      JUMPI \t\t\t    require(to != address(0), ...\n      PUSH 0\t\t\t \n      PUSH 40\t\t\tfer to the zero address\");\\r\\n...\n      MLOAD \t\t\tfer to the zero address\");\\r\\n...\n      PUSH 1A8351400000000000000000000000000000000000000000000000000000000\t\t\tfer to the zero address\");\\r\\n...\n      DUP2 \t\t\tfer to the zero address\");\\r\\n...\n      MSTORE \t\t\tfer to the zero address\");\\r\\n...\n      PUSH 4\t\t\tfer to the zero address\");\\r\\n...\n      ADD \t\t\tfer to the zero address\");\\r\\n...\n      PUSH [tag] 557\t\t\tfer to the zero address\");\\r\\n...\n      SWAP2 \t\t\tfer to the zero address\");\\r\\n...\n      SWAP1 \t\t\tfer to the zero address\");\\r\\n...\n      PUSH [tag] 101\t\t\tfer to the zero address\");\\r\\n...\n      JUMP \t\t\tfer to the zero address\");\\r\\n...\n    tag 557\t\t\tfer to the zero address\");\\r\\n...\n      JUMPDEST \t\t\tfer to the zero address\");\\r\\n...\n      PUSH 40\t\t\tfer to the zero address\");\\r\\n...\n      MLOAD \t\t\tfer to the zero address\");\\r\\n...\n      DUP1 \t\t\tfer to the zero address\");\\r\\n...\n      SWAP2 \t\t\tfer to the zero address\");\\r\\n...\n      SUB \t\t\tfer to the zero address\");\\r\\n...\n      SWAP1 \t\t\tfer to the zero address\");\\r\\n...\n      REVERT \t\t\tfer to the zero address\");\\r\\n...\n    tag 556\t\t\t    require(to != address(0), ...\n      JUMPDEST \t\t\t    require(to != address(0), ...\n      PUSH 0\t\t\t0; i < tokenIDs.leng\n      DUP1 \t\t\t; ++i) {\\r\\n            /\n      PUSH [tag] 558\t\t\tforce per-token proof checks\\r\n      DUP5 \t\t\tof\n      DUP5 \t\t\thecks\n      PUSH [tag] 463\t\t\tforce per-token pr\n      JUMP \t\t\tforce per-token proof checks\\r\n    tag 558\t\t\tforce per-token proof checks\\r\n      JUMPDEST \t\t\tforce per-token proof checks\\r\n      SWAP2 \t\t\t 0; i < tokenIDs.length; ++i) ...\n      POP \t\t\t 0; i < tokenIDs.length; ++i) ...\n      SWAP2 \t\t\t 0; i < tokenIDs.length; ++i) ...\n      POP \t\t\t 0; i < tokenIDs.length; ++i) ...\n      PUSH [tag] 559\t\t\t   _checkAllProofsVerified(tok...\n      DUP6 \t\t\ttoke\n      PUSH 0\t\t\tr\n      DUP5 \t\t\t to\n      DUP5 \t\t\t\\r\\n    \n      PUSH 40\t\t\t   _checkAllProofsVerified(tok...\n      MLOAD \t\t\t   _checkAllProofsVerified(tok...\n      DUP1 \t\t\t   _checkAllProofsVerified(tok...\n      PUSH 20\t\t\t   _checkAllProofsVerified(tok...\n      ADD \t\t\t   _checkAllProofsVerified(tok...\n      PUSH 40\t\t\t   _checkAllProofsVerified(tok...\n      MSTORE \t\t\t   _checkAllProofsVerified(tok...\n      DUP1 \t\t\t   _checkAllProofsVerified(tok...\n      PUSH 0\t\t\t   _checkAllProofsVerified(tok...\n      DUP2 \t\t\t   _checkAllProofsVerified(tok...\n      MSTORE \t\t\t   _checkAllProofsVerified(tok...\n      POP \t\t\t   _checkAllProofsVerified(tok...\n      PUSH [tag] 465\t\t\t   _checkAllProofsVerified\n      JUMP \t\t\t   _checkAllProofsVerified(tok...\n    tag 559\t\t\t   _checkAllProofsVerified(tok...\n      JUMPDEST \t\t\t   _checkAllProofsVerified(tok...\n      POP \t\t\ts\");\\r\\n        require(to != ...\n      POP \t\t\ts\");\\r\\n        require(to != ...\n      POP \t\t\tenIDs.length == amounts.length...\n      POP \t\t\tenIDs.length == amounts.length...\n      POP \t\t\tenIDs.length == amounts.length...\n      JUMP \t\t\tenIDs.length == amounts.length...\n    tag 458\t\t\t         metadata: metadata,\\r...\n      JUMPDEST \t\t\t         metadata: metadata,\\r...\n      PUSH 60\t\t\tidator,\\r\\n       \n      DUP2 \t\t\t   \n      PUSH 0\t\t\t      });\\r\\n\n      ADD \t\t\t      });\\r\\n\n      DUP1 \t\t\tata\\r\\n        });\\r\\n\n      SLOAD \t\t\tata\\r\\n        });\\r\\n\n      DUP1 \t\t\tata\\r\\n        });\\r\\n\n      PUSH 20\t\t\tata\\r\\n        });\\r\\n\n      MUL \t\t\tata\\r\\n        });\\r\\n\n      PUSH 20\t\t\tata\\r\\n        });\\r\\n\n      ADD \t\t\tata\\r\\n        });\\r\\n\n      PUSH 40\t\t\tata\\r\\n        });\\r\\n\n      MLOAD \t\t\tata\\r\\n        });\\r\\n\n      SWAP1 \t\t\tata\\r\\n        });\\r\\n\n      DUP2 \t\t\tata\\r\\n        });\\r\\n\n      ADD \t\t\tata\\r\\n        });\\r\\n\n      PUSH 40\t\t\tata\\r\\n        });\\r\\n\n      MSTORE \t\t\tata\\r\\n        });\\r\\n\n      DUP1 \t\t\tata\\r\\n        });\\r\\n\n      SWAP3 \t\t\tata\\r\\n        });\\r\\n\n      SWAP2 \t\t\tata\\r\\n        });\\r\\n\n      SWAP1 \t\t\tata\\r\\n        });\\r\\n\n      DUP2 \t\t\tata\\r\\n        });\\r\\n\n      DUP2 \t\t\tata\\r\\n        });\\r\\n\n      MSTORE \t\t\tata\\r\\n        });\\r\\n\n      PUSH 20\t\t\tata\\r\\n        });\\r\\n\n      ADD \t\t\tata\\r\\n        });\\r\\n\n      DUP3 \t\t\tata\\r\\n        });\\r\\n\n      DUP1 \t\t\tata\\r\\n        });\\r\\n\n      SLOAD \t\t\tata\\r\\n        });\\r\\n\n      DUP1 \t\t\tata\\r\\n        });\\r\\n\n      ISZERO \t\t\tata\\r\\n        });\\r\\n\n      PUSH [tag] 561\t\t\tata\\r\\n        });\\r\\n\n      JUMPI \t\t\tata\\r\\n        });\\r\\n\n      PUSH 20\t\t\tata\\r\\n        });\\r\\n\n      MUL \t\t\tata\\r\\n        });\\r\\n\n      DUP3 \t\t\tata\\r\\n        });\\r\\n\n      ADD \t\t\tata\\r\\n        });\\r\\n\n      SWAP2 \t\t\tata\\r\\n        });\\r\\n\n      SWAP1 \t\t\tata\\r\\n        });\\r\\n\n      PUSH 0\t\t\tata\\r\\n        });\\r\\n\n      MSTORE \t\t\tata\\r\\n        });\\r\\n\n      PUSH 20\t\t\tata\\r\\n        });\\r\\n\n      PUSH 0\t\t\tata\\r\\n        });\\r\\n\n      KECCAK256 \t\t\tata\\r\\n        });\\r\\n\n      SWAP1 \t\t\tata\\r\\n        });\\r\\n\n    tag 562\t\t\tata\\r\\n        });\\r\\n\n      JUMPDEST \t\t\tata\\r\\n        });\\r\\n\n      DUP2 \t\t\tata\\r\\n        });\\r\\n\n      SLOAD \t\t\tata\\r\\n        });\\r\\n\n      DUP2 \t\t\tata\\r\\n        });\\r\\n\n      MSTORE \t\t\tata\\r\\n        });\\r\\n\n      PUSH 20\t\t\tata\\r\\n        });\\r\\n\n      ADD \t\t\tata\\r\\n        });\\r\\n\n      SWAP1 \t\t\tata\\r\\n        });\\r\\n\n      PUSH 1\t\t\tata\\r\\n        });\\r\\n\n      ADD \t\t\tata\\r\\n        });\\r\\n\n      SWAP1 \t\t\tata\\r\\n        });\\r\\n\n      DUP1 \t\t\tata\\r\\n        });\\r\\n\n      DUP4 \t\t\tata\\r\\n        });\\r\\n\n      GT \t\t\tata\\r\\n        });\\r\\n\n      PUSH [tag] 562\t\t\tata\\r\\n        });\\r\\n\n      JUMPI \t\t\tata\\r\\n        });\\r\\n\n    tag 561\t\t\tata\\r\\n        });\\r\\n\n      JUMPDEST \t\t\tata\\r\\n        });\\r\\n\n      POP \t\t\tata\\r\\n        });\\r\\n\n      POP \t\t\tata\\r\\n        });\\r\\n\n      POP \t\t\tata\\r\\n        });\\r\\n\n      POP \t\t\tata\\r\\n        });\\r\\n\n      POP \t\t\tata\\r\\n        });\\r\\n\n      SWAP1 \t\t\tata\\r\\n        });\\r\\n\n      POP \t\t\tata\\r\\n        });\\r\\n\n      SWAP2 \t\t\t         metadata: metadata,\\r...\n      SWAP1 \t\t\t         metadata: metadata,\\r...\n      POP \t\t\t         metadata: metadata,\\r...\n      JUMP \t\t\t         metadata: metadata,\\r...\n    tag 463\t\t\t\n      JUMPDEST \t\t\t\n      PUSH 60\t\t\t\n      DUP1 \t\t\t\n      PUSH 40\t\t\t\n      MLOAD \t\t\t\n      SWAP2 \t\t\t\n      POP \t\t\t\n      PUSH 1\t\t\t\n      DUP3 \t\t\t\n      MSTORE \t\t\t\n      DUP4 \t\t\t\n      PUSH 20\t\t\t\n      DUP4 \t\t\t\n      ADD \t\t\t\n      MSTORE \t\t\t\n      PUSH 40\t\t\t\n      DUP3 \t\t\t\n      ADD \t\t\t\n      SWAP1 \t\t\t\n      POP \t\t\t\n      PUSH 1\t\t\t\n      DUP2 \t\t\t\n      MSTORE \t\t\t\n      DUP3 \t\t\t\n      PUSH 20\t\t\t\n      DUP3 \t\t\t\n      ADD \t\t\t\n      MSTORE \t\t\t\n      PUSH 40\t\t\t\n      DUP2 \t\t\t\n      ADD \t\t\t\n      PUSH 40\t\t\t\n      MSTORE \t\t\t\n      SWAP3 \t\t\t\n      POP \t\t\t\n      SWAP3 \t\t\t\n      SWAP1 \t\t\t\n      POP \t\t\t\n      JUMP \t\t\t\n    tag 465\t\t\tre(bytes(tokenID_requestSetter...\n      JUMPDEST \t\t\tre(bytes(tokenID_requestSetter...\n      PUSH [tag] 565\t\t\t       require(bytes(spendingC\n      DUP6 \t\t\tequi\n      DUP6 \t\t\t(b\n      DUP6 \t\t\tes(\n      DUP6 \t\t\tending\n      PUSH [tag] 566\t\t\t       \n      JUMP \t\t\t       require(bytes(spendingC\n    tag 565\t\t\t       require(bytes(spendingC\n      JUMPDEST \t\t\t       require(bytes(spendingC\n      PUSH 0\t\t\tr\n      PUSH FFFFFFFFFFFFFFFFFFFFFFFFFFFFFFFFFFFFFFFF\t\t\tnID][msg.sender]\n      AND \t\t\tnID][msg.sender]\n      DUP5 \t\t\tnI\n      PUSH FFFFFFFFFFFFFFFFFFFFFFFFFFFFFFFFFFFFFFFF\t\t\tnID][msg.sender]\n      AND \t\t\tnID][msg.sender]\n      EQ \t\t\tnID][msg.sender]\n      PUSH [tag] 567\t\t\ttokenID][msg.sender][requestID...\n      JUMPI \t\t\ttokenID][msg.sender][requestID...\n      PUSH 0\t\t\tibute).length !=\n      PUSH [tag] 568\t\t\t \"No spendin\n      PUSH [tag] 371\t\t\t \"No spend\n      JUMP \t\t\t \"No spendin\n    tag 568\t\t\t \"No spendin\n      JUMPDEST \t\t\t \"No spendin\n      SWAP1 \t\t\tibute).length != 0, \"No spendi...\n      POP \t\t\tibute).length != 0, \"No spendi...\n      PUSH 1\t\t\t \n      DUP5 \t\t\tete\n      MLOAD \t\t\tete\");\\r\\n  \n      SUB \t\t\tete\");\\r\\n       \n      PUSH [tag] 569\t\t\t delete\");\\r\\n        delete t...\n      JUMPI \t\t\t delete\");\\r\\n        delete t...\n      PUSH 0\t\t\testSetter_\n      PUSH [tag] 570\t\t\tofRequest_role[tokenID][m\n      PUSH 0\t\t\t[\n      DUP7 \t\t\tofR\n      PUSH [tag] 268\t\t\tofRequest_role[tokenID\n      SWAP1 \t\t\tofRequest_role[tokenID\n      SWAP2 \t\t\tofRequest_role[tokenID][m\n      SWAP1 \t\t\tofRequest_role[tokenID][m\n      PUSH FFFFFFFF\t\t\tofRequest_role[tokenID][m\n      AND \t\t\tofRequest_role[tokenID][m\n      JUMP \t\t\tofRequest_role[tokenID][m\n    tag 570\t\t\tofRequest_role[tokenID][m\n      JUMPDEST \t\t\tofRequest_role[tokenID][m\n      SWAP1 \t\t\testSetter_proofRequest_role[to...\n      POP \t\t\testSetter_proofRequest_role[to...\n      PUSH 0\t\t\tID];\\r\\n       \n      PUSH [tag] 571\t\t\tlete spendingConditions[toke\n      PUSH 0\t\t\tk\n      DUP7 \t\t\tlete s\n      PUSH [tag] 268\t\t\tlete spendingConditions[t\n      SWAP1 \t\t\tlete spendingConditions[t\n      SWAP2 \t\t\tlete spendingConditions[toke\n      SWAP1 \t\t\tlete spendingConditions[toke\n      PUSH FFFFFFFF\t\t\tlete spendingConditions[toke\n      AND \t\t\tlete spendingConditions[toke\n      JUMP \t\t\tlete spendingConditions[toke\n    tag 571\t\t\tlete spendingConditions[toke\n      JUMPDEST \t\t\tlete spendingConditions[toke\n      SWAP1 \t\t\tID];\\r\\n        delete spendin...\n      POP \t\t\tID];\\r\\n        delete spendin...\n      PUSH [tag] 572\t\t\tequestID];\\r\\n        // Remov...\n      DUP4 \t\t\tm the ar\n      DUP10 \t\t\ty (s\n      DUP10 \t\t\tp-\n      DUP6 \t\t\td-\n      DUP6 \t\t\tp tec\n      DUP10 \t\t\tique\n      PUSH [tag] 573\t\t\tequestID];\\r\\n        // Remov...\n      JUMP \t\t\tequestID];\\r\\n        // Remov...\n    tag 572\t\t\tequestID];\\r\\n        // Remov...\n      JUMPDEST \t\t\tequestID];\\r\\n        // Remov...\n      POP \t\t\telete tokenID_requestSetter_pr...\n      POP \t\t\telete tokenID_requestSetter_pr...\n      PUSH [tag] 574\t\t\t delete\");\\r\\n        delete t...\n      JUMP \t\t\t delete\");\\r\\n        delete t...\n    tag 569\t\t\t delete\");\\r\\n        delete t...\n      JUMPDEST \t\t\t delete\");\\r\\n        delete t...\n      PUSH [tag] 575\t\t\tRequestIDs.length; i++) {\\r\\n ...\n      DUP2 \t\t\t (proofR\n      DUP8 \t\t\tuest\n      DUP8 \t\t\ts[\n      DUP8 \t\t\t ==\n      DUP8 \t\t\tequest\n      DUP8 \t\t\t) {\\r\n      PUSH [tag] 576\t\t\tRequestIDs.length; i++) {\\r\\n ...\n      JUMP \t\t\tRequestIDs.length; i++) {\\r\\n ...\n    tag 575\t\t\tRequestIDs.length; i++) {\\r\\n ...\n      JUMPDEST \t\t\tRequestIDs.length; i++) {\\r\\n ...\n    tag 574\t\t\t delete\");\\r\\n        delete t...\n      JUMPDEST \t\t\t delete\");\\r\\n        delete t...\n      POP \t\t\tequestID].attribute).length !=...\n    tag 567\t\t\ttokenID][msg.sender][requestID...\n      JUMPDEST \t\t\ttokenID][msg.sender][requestID...\n      POP \t\t\tre(bytes(tokenID_requestSetter...\n      POP \t\t\tre(bytes(tokenID_requestSetter...\n      POP \t\t\tre(bytes(tokenID_requestSetter...\n      POP \t\t\tre(bytes(tokenID_requestSetter...\n      POP \t\t\tre(bytes(tokenID_requestSetter...\n      JUMP \t\t\tre(bytes(tokenID_requestSetter...\n    tag 468\t\t\t   // The array proofRequestID...\n      JUMPDEST \t\t\t   // The array proofRequestID...\n      PUSH 0\t\t\tProo\n      DUP1 \t\t\te\n      DUP4 \t\t\tt25\n      PUSH 1\t\t\tt256 tokenID, \n      ADD \t\t\tt256 tokenID, \n      PUSH 0\t\t\tt256 tokenID, uint64 \n      DUP5 \t\t\tint64\n      DUP2 \t\t\tt256 tokenID, uint64 \n      MSTORE \t\t\tt256 tokenID, uint64 \n      PUSH 20\t\t\tt256 tokenID, uint64 \n      ADD \t\t\tt256 tokenID, uint64 \n      SWAP1 \t\t\tt256 tokenID, uint64 \n      DUP2 \t\t\tt256 tokenID, uint64 \n      MSTORE \t\t\tt256 tokenID, uint64 \n      PUSH 20\t\t\tt256 tokenID, uint64 \n      ADD \t\t\tt256 tokenID, uint64 \n      PUSH 0\t\t\tt256 tokenID, uint64 \n      KECCAK256 \t\t\tt256 tokenID, uint64 \n      SLOAD \t\t\tt256 tokenID, uint64 \n      EQ \t\t\tt256 tokenID, uint64 reque\n      ISZERO \t\t\tt256 tokenID, uint64 reque\n      SWAP1 \t\t\tole(uint256 tokenID, uint64 re...\n      POP \t\t\tole(uint256 tokenID, uint64 re...\n      SWAP3 \t\t\t   // The array proofRequestID...\n      SWAP2 \t\t\t   // The array proofRequestID...\n      POP \t\t\t   // The array proofRequestID...\n      POP \t\t\t   // The array proofRequestID...\n      JUMP \t\t\t   // The array proofRequestID...\n    tag 471\t\t\t// @notice Returns the full li...\n      JUMPDEST \t\t\t// @notice Returns the full li...\n      PUSH 0\t\t\tfunc\n      PUSH [tag] 579\t\t\t) external view retur\n      DUP4 \t\t\t vi\n      DUP4 \t\t\t retu\n      PUSH [tag] 468\t\t\t) externa\n      JUMP \t\t\t) external view retur\n    tag 579\t\t\t) external view retur\n      JUMPDEST \t\t\t) external view retur\n      PUSH [tag] 580\t\t\tnIDs() external view returns (...\n      JUMPI \t\t\tnIDs() external view returns (...\n      DUP3 \t\t\tmor\n      PUSH 0\t\t\tmory) {\\r\\n  \n      ADD \t\t\tmory) {\\r\\n  \n      DUP3 \t\t\tretur\n      SWAP1 \t\t\tmory) {\\r\\n        return\n      DUP1 \t\t\tmory) {\\r\\n        return\n      PUSH 1\t\t\tmory) {\\r\\n        return\n      DUP2 \t\t\tmory) {\\r\\n        return\n      SLOAD \t\t\tmory) {\\r\\n        return\n      ADD \t\t\tmory) {\\r\\n        return\n      DUP1 \t\t\tmory) {\\r\\n        return\n      DUP3 \t\t\tmory) {\\r\\n        return\n      SSTORE \t\t\tmory) {\\r\\n        return\n      DUP1 \t\t\tmory) {\\r\\n        return\n      SWAP2 \t\t\tmory) {\\r\\n        return\n      POP \t\t\tmory) {\\r\\n        return\n      POP \t\t\tmory) {\\r\\n        return\n      PUSH 1\t\t\tmory) {\\r\\n        return\n      SWAP1 \t\t\tmory) {\\r\\n        return\n      SUB \t\t\tmory) {\\r\\n        return\n      SWAP1 \t\t\tmory) {\\r\\n        return\n      PUSH 0\t\t\tmory) {\\r\\n        return\n      MSTORE \t\t\tmory) {\\r\\n        return\n      PUSH 20\t\t\tmory) {\\r\\n        return\n      PUSH 0\t\t\tmory) {\\r\\n        return\n      KECCAK256 \t\t\tmory) {\\r\\n        return\n      ADD \t\t\tmory) {\\r\\n        return\n      PUSH 0\t\t\tmory) {\\r\\n        return\n      SWAP1 \t\t\tmory) {\\r\\n        return\n      SWAP2 \t\t\tmory) {\\r\\n        return\n      SWAP1 \t\t\tmory) {\\r\\n        return\n      SWAP2 \t\t\tmory) {\\r\\n        return\n      SWAP1 \t\t\tmory) {\\r\\n        return\n      SWAP2 \t\t\tmory) {\\r\\n        return\n      POP \t\t\tmory) {\\r\\n        return\n      SSTORE \t\t\tmory) {\\r\\n        return\n      DUP3 \t\t\t=> \n      PUSH 0\t\t\t=> string) \n      ADD \t\t\t=> string) \n      DUP1 \t\t\t=> string) public \n      SLOAD \t\t\t=> string) public \n      SWAP1 \t\t\t=> string) public \n      POP \t\t\t=> string) public \n      DUP4 \t\t\ti \\r\n      PUSH 1\t\t\ti \\r\\n    mappin\n      ADD \t\t\ti \\r\\n    mappin\n      PUSH 0\t\t\ti \\r\\n    mapping(uint2\n      DUP5 \t\t\t(uint\n      DUP2 \t\t\ti \\r\\n    mapping(uint2\n      MSTORE \t\t\ti \\r\\n    mapping(uint2\n      PUSH 20\t\t\ti \\r\\n    mapping(uint2\n      ADD \t\t\ti \\r\\n    mapping(uint2\n      SWAP1 \t\t\ti \\r\\n    mapping(uint2\n      DUP2 \t\t\ti \\r\\n    mapping(uint2\n      MSTORE \t\t\ti \\r\\n    mapping(uint2\n      PUSH 20\t\t\ti \\r\\n    mapping(uint2\n      ADD \t\t\ti \\r\\n    mapping(uint2\n      PUSH 0\t\t\ti \\r\\n    mapping(uint2\n      KECCAK256 \t\t\ti \\r\\n    mapping(uint2\n      DUP2 \t\t\ti \\r\\n    mapping(uint256 => s...\n      SWAP1 \t\t\ti \\r\\n    mapping(uint256 => s...\n      SSTORE \t\t\ti \\r\\n    mapping(uint256 => s...\n      POP \t\t\ti \\r\\n    mapping(uint256 => s...\n      PUSH 1\t\t\t/ Ma\n      SWAP1 \t\t\t\\r\\n    // Ma\n      POP \t\t\t\\r\\n    // Ma\n      PUSH [tag] 578\t\t\t\\r\\n    // Ma\n      JUMP \t\t\t\\r\\n    // Ma\n    tag 580\t\t\tnIDs() external view returns (...\n      JUMPDEST \t\t\tnIDs() external view returns (...\n      PUSH 0\t\t\tddres\n      SWAP1 \t\t\tetter addres\n      POP \t\t\tetter addres\n    tag 578\t\t\t// @notice Returns the full li...\n      JUMPDEST \t\t\t// @notice Returns the full li...\n      SWAP3 \t\t\t// @notice Returns the full li...\n      SWAP2 \t\t\t// @notice Returns the full li...\n      POP \t\t\t// @notice Returns the full li...\n      POP \t\t\t// @notice Returns the full li...\n      JUMP \t\t\t// @notice Returns the full li...\n    tag 554\t\t\ttoken)\\r\\n    error TokenIDTak...\n      JUMPDEST \t\t\ttoken)\\r\\n    error TokenIDTak...\n      PUSH 0\t\t\t \n      PUSH FFFFFFFFFFFFFFFFFFFFFFFFFFFFFFFFFFFFFFFF\t\t\tet.\\r\\n    error T\n      AND \t\t\tet.\\r\\n    error T\n      DUP5 \t\t\tet\n      PUSH FFFFFFFFFFFFFFFFFFFFFFFFFFFFFFFFFFFFFFFF\t\t\tet.\\r\\n    error T\n      AND \t\t\tet.\\r\\n    error T\n      SUB \t\t\tet.\\r\\n    error T\n      PUSH [tag] 584\t\t\ted yet.\\r\\n    error TokenIDNo...\n      JUMPI \t\t\ted yet.\\r\\n    error TokenIDNo...\n      PUSH 0\t\t\tn\n      PUSH 40\t\t\ttokenID);\\r\\n\\r\\n    /// @noti...\n      MLOAD \t\t\ttokenID);\\r\\n\\r\\n    /// @noti...\n      PUSH 57F447CE00000000000000000000000000000000000000000000000000000000\t\t\ttokenID);\\r\\n\\r\\n    /// @noti...\n      DUP2 \t\t\ttokenID);\\r\\n\\r\\n    /// @noti...\n      MSTORE \t\t\ttokenID);\\r\\n\\r\\n    /// @noti...\n      PUSH 4\t\t\ttokenID);\\r\\n\\r\\n    /// @noti...\n      ADD \t\t\ttokenID);\\r\\n\\r\\n    /// @noti...\n      PUSH [tag] 585\t\t\ttokenID);\\r\\n\\r\\n    /// @noti...\n      SWAP2 \t\t\ttokenID);\\r\\n\\r\\n    /// @noti...\n      SWAP1 \t\t\ttokenID);\\r\\n\\r\\n    /// @noti...\n      PUSH [tag] 101\t\t\ttokenID);\\r\\n\\r\\n    /// @noti...\n      JUMP \t\t\ttokenID);\\r\\n\\r\\n    /// @noti...\n    tag 585\t\t\ttokenID);\\r\\n\\r\\n    /// @noti...\n      JUMPDEST \t\t\ttokenID);\\r\\n\\r\\n    /// @noti...\n      PUSH 40\t\t\ttokenID);\\r\\n\\r\\n    /// @noti...\n      MLOAD \t\t\ttokenID);\\r\\n\\r\\n    /// @noti...\n      DUP1 \t\t\ttokenID);\\r\\n\\r\\n    /// @noti...\n      SWAP2 \t\t\ttokenID);\\r\\n\\r\\n    /// @noti...\n      SUB \t\t\ttokenID);\\r\\n\\r\\n    /// @noti...\n      SWAP1 \t\t\ttokenID);\\r\\n\\r\\n    /// @noti...\n      REVERT \t\t\ttokenID);\\r\\n\\r\\n    /// @noti...\n    tag 584\t\t\ted yet.\\r\\n    error TokenIDNo...\n      JUMPDEST \t\t\ted yet.\\r\\n    error TokenIDNo...\n      PUSH 0\t\t\tt\n      PUSH FFFFFFFFFFFFFFFFFFFFFFFFFFFFFFFFFFFFFFFF\t\t\tname exists, mint \n      AND \t\t\tname exists, mint \n      DUP6 \t\t\tname\n      PUSH FFFFFFFFFFFFFFFFFFFFFFFFFFFFFFFFFFFFFFFF\t\t\tname exists, mint \n      AND \t\t\tname exists, mint \n      SUB \t\t\tname exists, mint \n      PUSH [tag] 586\t\t\tthe name exists, mint the exis...\n      JUMPI \t\t\tthe name exists, mint the exis...\n      PUSH 0\t\t\tx\n      PUSH 40\t\t\t   /// If the name does not ex...\n      MLOAD \t\t\t   /// If the name does not ex...\n      PUSH 1A8351400000000000000000000000000000000000000000000000000000000\t\t\t   /// If the name does not ex...\n      DUP2 \t\t\t   /// If the name does not ex...\n      MSTORE \t\t\t   /// If the name does not ex...\n      PUSH 4\t\t\t   /// If the name does not ex...\n      ADD \t\t\t   /// If the name does not ex...\n      PUSH [tag] 587\t\t\t   /// If the name does not ex...\n      SWAP2 \t\t\t   /// If the name does not ex...\n      SWAP1 \t\t\t   /// If the name does not ex...\n      PUSH [tag] 101\t\t\t   /// If the name does not ex...\n      JUMP \t\t\t   /// If the name does not ex...\n    tag 587\t\t\t   /// If the name does not ex...\n      JUMPDEST \t\t\t   /// If the name does not ex...\n      PUSH 40\t\t\t   /// If the name does not ex...\n      MLOAD \t\t\t   /// If the name does not ex...\n      DUP1 \t\t\t   /// If the name does not ex...\n      SWAP2 \t\t\t   /// If the name does not ex...\n      SUB \t\t\t   /// If the name does not ex...\n      SWAP1 \t\t\t   /// If the name does not ex...\n      REVERT \t\t\t   /// If the name does not ex...\n    tag 586\t\t\tthe name exists, mint the exis...\n      JUMPDEST \t\t\tthe name exists, mint the exis...\n      PUSH 0\t\t\tith a random unused \n      DUP1 \t\t\t and assign the name.\\r\\n\n      PUSH [tag] 588\t\t\t/// Anyone can call this func\n      DUP6 \t\t\t t\n      DUP6 \t\t\ts fun\n      PUSH [tag] 463\t\t\t/// Anyone can cal\n      JUMP \t\t\t/// Anyone can call this func\n    tag 588\t\t\t/// Anyone can call this func\n      JUMPDEST \t\t\t/// Anyone can call this func\n      SWAP2 \t\t\twith a random unused ID and as...\n      POP \t\t\twith a random unused ID and as...\n      SWAP2 \t\t\twith a random unused ID and as...\n      POP \t\t\twith a random unused ID and as...\n      PUSH [tag] 589\t\t\tnt a token, for testing purpos...\n      DUP8 \t\t\tpose\n      DUP8 \t\t\t\\r\\n\n      DUP5 \t\t\t  /\n      DUP5 \t\t\t In pr\n      DUP8 \t\t\tucti\n      PUSH [tag] 465\t\t\tnt a token, for testing pu\n      JUMP \t\t\tnt a token, for testing purpos...\n    tag 589\t\t\tnt a token, for testing purpos...\n      JUMPDEST \t\t\tnt a token, for testing purpos...\n      POP \t\t\tn registered yet.\\r\\n    error...\n      POP \t\t\tn registered yet.\\r\\n    error...\n      POP \t\t\ttoken)\\r\\n    error TokenIDTak...\n      POP \t\t\ttoken)\\r\\n    error TokenIDTak...\n      POP \t\t\ttoken)\\r\\n    error TokenIDTak...\n      POP \t\t\ttoken)\\r\\n    error TokenIDTak...\n      POP \t\t\ttoken)\\r\\n    error TokenIDTak...\n      JUMP \t\t\ttoken)\\r\\n    error TokenIDTak...\n    tag 566\t\t\tt\");\\r\\n        require(bytes(...\n      JUMPDEST \t\t\tt\");\\r\\n        require(bytes(...\n      DUP1 \t\t\ty exis\n      MLOAD \t\t\ty exists\");\\r\\n\n      DUP3 \t\t\treq\n      MLOAD \t\t\trequest al\n      EQ \t\t\trequest already exists\");\\r\\n\n      PUSH [tag] 591\t\t\toof request already exists\");\\...\n      JUMPI \t\t\toof request already exists\");\\...\n      DUP2 \t\t\te))\n      MLOAD \t\t\te)) == kec\n      DUP2 \t\t\tk256(b\n      MLOAD \t\t\tk256(bytes(\"s\n      PUSH 40\t\t\t       keccak256(bytes(role)) ...\n      MLOAD \t\t\t       keccak256(bytes(role)) ...\n      PUSH 5B05999100000000000000000000000000000000000000000000000000000000\t\t\t       keccak256(bytes(role)) ...\n      DUP2 \t\t\t       keccak256(bytes(role)) ...\n      MSTORE \t\t\t       keccak256(bytes(role)) ...\n      PUSH 4\t\t\t       keccak256(bytes(role)) ...\n      ADD \t\t\t       keccak256(bytes(role)) ...\n      PUSH [tag] 592\t\t\t       keccak256(bytes(role)) ...\n      SWAP3 \t\t\t       keccak256(bytes(role)) ...\n      SWAP2 \t\t\t       keccak256(bytes(role)) ...\n      SWAP1 \t\t\t       keccak256(bytes(role)) ...\n      PUSH [tag] 256\t\t\t       keccak256(bytes(role)) ...\n      JUMP \t\t\t       keccak256(bytes(role)) ...\n    tag 592\t\t\t       keccak256(bytes(role)) ...\n      JUMPDEST \t\t\t       keccak256(bytes(role)) ...\n      PUSH 40\t\t\t       keccak256(bytes(role)) ...\n      MLOAD \t\t\t       keccak256(bytes(role)) ...\n      DUP1 \t\t\t       keccak256(bytes(role)) ...\n      SWAP2 \t\t\t       keccak256(bytes(role)) ...\n      SUB \t\t\t       keccak256(bytes(role)) ...\n      SWAP1 \t\t\t       keccak256(bytes(role)) ...\n      REVERT \t\t\t       keccak256(bytes(role)) ...\n    tag 591\t\t\toof request already exists\");\\...\n      JUMPDEST \t\t\toof request already exists\");\\...\n      PUSH 0\t\t\t   keccak256(byt\n      PUSH [tag] 593\t\t\trole)) == ke\n      PUSH [tag] 371\t\t\trole)) == \n      JUMP \t\t\trole)) == ke\n    tag 593\t\t\trole)) == ke\n      JUMPDEST \t\t\trole)) == ke\n      SWAP1 \t\t\t   keccak256(bytes(role)) == k...\n      POP \t\t\t   keccak256(bytes(role)) == k...\n      PUSH 0\t\t\teceiver\")\n    tag 594\t\t\tes(\"receiver\")),\\r\\n          ...\n      JUMPDEST \t\t\tes(\"receiver\")),\\r\\n          ...\n      DUP4 \t\t\t   \n      MLOAD \t\t\t      \"Rol\n      DUP2 \t\t\t \n      LT \t\t\t          \"Rol\n      ISZERO \t\t\tes(\"receiver\")),\\r\\n          ...\n      PUSH [tag] 595\t\t\tes(\"receiver\")),\\r\\n          ...\n      JUMPI \t\t\tes(\"receiver\")),\\r\\n          ...\n      PUSH 0\t\t\t 'receiver\n      PUSH [tag] 597\t\t\t\\n        );\\r\\n        toke\n      DUP3 \t\t\tk\n      DUP7 \t\t\t\\n  \n      PUSH [tag] 268\t\t\t\\n        );\\r\\n        t\n      SWAP1 \t\t\t\\n        );\\r\\n        t\n      SWAP2 \t\t\t\\n        );\\r\\n        toke\n      SWAP1 \t\t\t\\n        );\\r\\n        toke\n      PUSH FFFFFFFF\t\t\t\\n        );\\r\\n        toke\n      AND \t\t\t\\n        );\\r\\n        toke\n      JUMP \t\t\t\\n        );\\r\\n        toke\n    tag 597\t\t\t\\n        );\\r\\n        toke\n      JUMPDEST \t\t\t\\n        );\\r\\n        toke\n      SWAP1 \t\t\t 'receiver'\"\\r\\n        );\\r\\n...\n      POP \t\t\t 'receiver'\"\\r\\n        );\\r\\n...\n      PUSH 0\t\t\tter_proofRequ\n      PUSH [tag] 598\t\t\t_role[tokenID][msg.sender][r\n      DUP4 \t\t\t[\n      DUP7 \t\t\t_role[\n      PUSH [tag] 268\t\t\t_role[tokenID][msg.sender\n      SWAP1 \t\t\t_role[tokenID][msg.sender\n      SWAP2 \t\t\t_role[tokenID][msg.sender][r\n      SWAP1 \t\t\t_role[tokenID][msg.sender][r\n      PUSH FFFFFFFF\t\t\t_role[tokenID][msg.sender][r\n      AND \t\t\t_role[tokenID][msg.sender][r\n      JUMP \t\t\t_role[tokenID][msg.sender][r\n    tag 598\t\t\t_role[tokenID][msg.sender][r\n      JUMPDEST \t\t\t_role[tokenID][msg.sender][r\n      SWAP1 \t\t\tter_proofRequest_role[tokenID]...\n      POP \t\t\tter_proofRequest_role[tokenID]...\n      PUSH 0\t\t\tu\n      PUSH FFFFFFFFFFFFFFFFFFFFFFFFFFFFFFFFFFFFFFFF\t\t\t        proofReque\n      AND \t\t\t        proofReque\n      DUP9 \t\t\t    \n      PUSH FFFFFFFFFFFFFFFFFFFFFFFFFFFFFFFFFFFFFFFF\t\t\t        proofReque\n      AND \t\t\t        proofReque\n      EQ \t\t\t        proofReque\n      PUSH [tag] 599\t\t\te;\\r\\n        proofRequestIDs....\n      JUMPI \t\t\te;\\r\\n        proofRequestIDs....\n      PUSH 0\t\t\t);\\r\\n    }\\r\\n    \\r\\n  \n      DUP1 \t\t\tunction a\n      PUSH 0\t\t\tunction addPr\n      DUP5 \t\t\tdP\n      DUP2 \t\t\tunction addPr\n      MSTORE \t\t\tunction addPr\n      PUSH 20\t\t\tunction addPr\n      ADD \t\t\tunction addPr\n      SWAP1 \t\t\tunction addPr\n      DUP2 \t\t\tunction addPr\n      MSTORE \t\t\tunction addPr\n      PUSH 20\t\t\tunction addPr\n      ADD \t\t\tunction addPr\n      PUSH 0\t\t\tunction addPr\n      KECCAK256 \t\t\tunction addPr\n      PUSH 0\t\t\tunction addProofReq\n      DUP11 \t\t\tofRe\n      PUSH FFFFFFFFFFFFFFFFFFFFFFFFFFFFFFFFFFFFFFFF\t\t\tunction addProofReq\n      AND \t\t\tunction addProofReq\n      PUSH FFFFFFFFFFFFFFFFFFFFFFFFFFFFFFFFFFFFFFFF\t\t\tunction addProofReq\n      AND \t\t\tunction addProofReq\n      DUP2 \t\t\tunction addProofReq\n      MSTORE \t\t\tunction addProofReq\n      PUSH 20\t\t\tunction addProofReq\n      ADD \t\t\tunction addProofReq\n      SWAP1 \t\t\tunction addProofReq\n      DUP2 \t\t\tunction addProofReq\n      MSTORE \t\t\tunction addProofReq\n      PUSH 20\t\t\tunction addProofReq\n      ADD \t\t\tunction addProofReq\n      PUSH 0\t\t\tunction addProofReq\n      KECCAK256 \t\t\tunction addProofReq\n      SLOAD \t\t\tunction addProofReq\n      SWAP1 \t\t\t);\\r\\n    }\\r\\n    \\r\\n    fun...\n      POP \t\t\t);\\r\\n    }\\r\\n    \\r\\n    fun...\n      DUP2 \t\t\treque\n      DUP2 \t\t\t       uint\n      LT \t\t\t       uint64 reque\n      ISZERO \t\t\t(\\r\\n        uint64 requestId,...\n      PUSH [tag] 600\t\t\t(\\r\\n        uint64 requestId,...\n      JUMPI \t\t\t(\\r\\n        uint64 requestId,...\n      DUP9 \t\t\tVali\n      DUP2 \t\t\ttor validat\n      DUP4 \t\t\t,\\r\\n  \n      DUP6 \t\t\t  \n      PUSH 40\t\t\tmetadata,\\r\\n        ICircuitV...\n      MLOAD \t\t\tmetadata,\\r\\n        ICircuitV...\n      PUSH 3DEE4C500000000000000000000000000000000000000000000000000000000\t\t\tmetadata,\\r\\n        ICircuitV...\n      DUP2 \t\t\tmetadata,\\r\\n        ICircuitV...\n      MSTORE \t\t\tmetadata,\\r\\n        ICircuitV...\n      PUSH 4\t\t\tmetadata,\\r\\n        ICircuitV...\n      ADD \t\t\tmetadata,\\r\\n        ICircuitV...\n      PUSH [tag] 601\t\t\tmetadata,\\r\\n        ICircuitV...\n      SWAP5 \t\t\tmetadata,\\r\\n        ICircuitV...\n      SWAP4 \t\t\tmetadata,\\r\\n        ICircuitV...\n      SWAP3 \t\t\tmetadata,\\r\\n        ICircuitV...\n      SWAP2 \t\t\tmetadata,\\r\\n        ICircuitV...\n      SWAP1 \t\t\tmetadata,\\r\\n        ICircuitV...\n      PUSH [tag] 602\t\t\tmetadata,\\r\\n        ICircuitV...\n      JUMP \t\t\tmetadata,\\r\\n        ICircuitV...\n    tag 601\t\t\tmetadata,\\r\\n        ICircuitV...\n      JUMPDEST \t\t\tmetadata,\\r\\n        ICircuitV...\n      PUSH 40\t\t\tmetadata,\\r\\n        ICircuitV...\n      MLOAD \t\t\tmetadata,\\r\\n        ICircuitV...\n      DUP1 \t\t\tmetadata,\\r\\n        ICircuitV...\n      SWAP2 \t\t\tmetadata,\\r\\n        ICircuitV...\n      SUB \t\t\tmetadata,\\r\\n        ICircuitV...\n      SWAP1 \t\t\tmetadata,\\r\\n        ICircuitV...\n      REVERT \t\t\tmetadata,\\r\\n        ICircuitV...\n    tag 600\t\t\t(\\r\\n        uint64 requestId,...\n      JUMPDEST \t\t\t(\\r\\n        uint64 requestId,...\n      DUP2 \t\t\ter ow\n      DUP2 \t\t\t allow if c\n      SUB \t\t\t allow if caller ow\n      PUSH 0\t\t\tlic {\\r\\n  \n      DUP1 \t\t\tlic {\\r\\n      \n      DUP6 \t\t\t  \n      DUP2 \t\t\tlic {\\r\\n      \n      MSTORE \t\t\tlic {\\r\\n      \n      PUSH 20\t\t\tlic {\\r\\n      \n      ADD \t\t\tlic {\\r\\n      \n      SWAP1 \t\t\tlic {\\r\\n      \n      DUP2 \t\t\tlic {\\r\\n      \n      MSTORE \t\t\tlic {\\r\\n      \n      PUSH 20\t\t\tlic {\\r\\n      \n      ADD \t\t\tlic {\\r\\n      \n      PUSH 0\t\t\tlic {\\r\\n      \n      KECCAK256 \t\t\tlic {\\r\\n      \n      PUSH 0\t\t\tlic {\\r\\n        // O\n      DUP12 \t\t\t // \n      PUSH FFFFFFFFFFFFFFFFFFFFFFFFFFFFFFFFFFFFFFFF\t\t\tlic {\\r\\n        // O\n      AND \t\t\tlic {\\r\\n        // O\n      PUSH FFFFFFFFFFFFFFFFFFFFFFFFFFFFFFFFFFFFFFFF\t\t\tlic {\\r\\n        // O\n      AND \t\t\tlic {\\r\\n        // O\n      DUP2 \t\t\tlic {\\r\\n        // O\n      MSTORE \t\t\tlic {\\r\\n        // O\n      PUSH 20\t\t\tlic {\\r\\n        // O\n      ADD \t\t\tlic {\\r\\n        // O\n      SWAP1 \t\t\tlic {\\r\\n        // O\n      DUP2 \t\t\tlic {\\r\\n        // O\n      MSTORE \t\t\tlic {\\r\\n        // O\n      PUSH 20\t\t\tlic {\\r\\n        // O\n      ADD \t\t\tlic {\\r\\n        // O\n      PUSH 0\t\t\tlic {\\r\\n        // O\n      KECCAK256 \t\t\tlic {\\r\\n        // O\n      DUP2 \t\t\tlic {\\r\\n        // Only allow...\n      SWAP1 \t\t\tlic {\\r\\n        // Only allow...\n      SSTORE \t\t\tlic {\\r\\n        // Only allow...\n      POP \t\t\tlic {\\r\\n        // Only allow...\n      POP \t\t\tIDs.push(requestID);\\r\\n    }\\...\n    tag 599\t\t\te;\\r\\n        proofRequestIDs....\n      JUMPDEST \t\t\te;\\r\\n        proofRequestIDs....\n      PUSH 0\t\t\t0\n      PUSH FFFFFFFFFFFFFFFFFFFFFFFFFFFFFFFFFFFFFFFF\t\t\tr, tokenID) > 0,\n      AND \t\t\tr, tokenID) > 0,\n      DUP8 \t\t\tr,\n      PUSH FFFFFFFFFFFFFFFFFFFFFFFFFFFFFFFFFFFFFFFF\t\t\tr, tokenID) > 0,\n      AND \t\t\tr, tokenID) > 0,\n      EQ \t\t\tr, tokenID) > 0,\n      PUSH [tag] 603\t\t\tender, tokenID) > 0, \"Only mon...\n      JUMPI \t\t\tender, tokenID) > 0, \"Only mon...\n      DUP1 \t\t\ttion.\n      PUSH 0\t\t\tan add sp\n      DUP1 \t\t\tan add spendi\n      DUP5 \t\t\tnd\n      DUP2 \t\t\tan add spendi\n      MSTORE \t\t\tan add spendi\n      PUSH 20\t\t\tan add spendi\n      ADD \t\t\tan add spendi\n      SWAP1 \t\t\tan add spendi\n      DUP2 \t\t\tan add spendi\n      MSTORE \t\t\tan add spendi\n      PUSH 20\t\t\tan add spendi\n      ADD \t\t\tan add spendi\n      PUSH 0\t\t\tan add spendi\n      KECCAK256 \t\t\tan add spendi\n      PUSH 0\t\t\tan add spending c\n      DUP10 \t\t\tg \n      PUSH FFFFFFFFFFFFFFFFFFFFFFFFFFFFFFFFFFFFFFFF\t\t\tan add spending c\n      AND \t\t\tan add spending c\n      PUSH FFFFFFFFFFFFFFFFFFFFFFFFFFFFFFFFFFFFFFFF\t\t\tan add spending c\n      AND \t\t\tan add spending c\n      DUP2 \t\t\tan add spending c\n      MSTORE \t\t\tan add spending c\n      PUSH 20\t\t\tan add spending c\n      ADD \t\t\tan add spending c\n      SWAP1 \t\t\tan add spending c\n      DUP2 \t\t\tan add spending c\n      MSTORE \t\t\tan add spending c\n      PUSH 20\t\t\tan add spending c\n      ADD \t\t\tan add spending c\n      PUSH 0\t\t\tan add spending c\n      KECCAK256 \t\t\tan add spending c\n      PUSH 0\t\t\tan add spending c\n      DUP3 \t\t\tan add spending condition.\n      DUP3 \t\t\tan add spending condition.\n      SLOAD \t\t\tan add spending condition.\n      PUSH [tag] 604\t\t\tan add spending condition.\n      SWAP2 \t\t\tan add spending condition.\n      SWAP1 \t\t\tan add spending condition.\n      PUSH [tag] 213\t\t\tan add spending condition.\n      JUMP \t\t\tan add spending condition.\n    tag 604\t\t\tan add spending condition.\n      JUMPDEST \t\t\tan add spending condition.\n      SWAP3 \t\t\tan add spending condition.\n      POP \t\t\tan add spending condition.\n      POP \t\t\tan add spending condition.\n      DUP2 \t\t\tan add spending condition.\n      SWAP1 \t\t\tan add spending condition.\n      SSTORE \t\t\tan add spending condition.\n      POP \t\t\tan add spending condition.\n    tag 603\t\t\tender, tokenID) > 0, \"Only mon...\n      JUMPDEST \t\t\tender, tokenID) > 0, \"Only mon...\n      POP \t\t\tbe 'sender' or 'receiver'\"\\r\\n...\n      POP \t\t\tbe 'sender' or 'receiver'\"\\r\\n...\n      DUP1 \t\t\tmus\n      PUSH [tag] 605\t\t\tmus\n      SWAP1 \t\t\tmus\n      PUSH [tag] 179\t\t\tmus\n      JUMP \t\t\tmus\n    tag 605\t\t\tmus\n      JUMPDEST \t\t\tmus\n      SWAP1 \t\t\tmus\n      POP \t\t\tmus\n      PUSH [tag] 594\t\t\tes(\"receiver\")),\\r\\n          ...\n      JUMP \t\t\tes(\"receiver\")),\\r\\n          ...\n    tag 595\t\t\tes(\"receiver\")),\\r\\n          ...\n      JUMPDEST \t\t\tes(\"receiver\")),\\r\\n          ...\n      POP \t\t\tes(\"receiver\")),\\r\\n          ...\n      PUSH 1\t\t\tu\n      DUP4 \t\t\tZKP\n      MLOAD \t\t\tZKPRequest\n      SUB \t\t\tZKPRequest stru\n      PUSH [tag] 606\t\t\tier.ZKPRequest struct\\r\\n     ...\n      JUMPI \t\t\tier.ZKPRequest struct\\r\\n     ...\n      PUSH 0\t\t\tVerifier.Z\n      PUSH [tag] 607\t\t\tequest memory req = IZKPV\n      PUSH 0\t\t\tP\n      DUP6 \t\t\tequ\n      PUSH [tag] 268\t\t\tequest memory req = IZ\n      SWAP1 \t\t\tequest memory req = IZ\n      SWAP2 \t\t\tequest memory req = IZKPV\n      SWAP1 \t\t\tequest memory req = IZKPV\n      PUSH FFFFFFFF\t\t\tequest memory req = IZKPV\n      AND \t\t\tequest memory req = IZKPV\n      JUMP \t\t\tequest memory req = IZKPV\n    tag 607\t\t\tequest memory req = IZKPV\n      JUMPDEST \t\t\tequest memory req = IZKPV\n      SWAP1 \t\t\tVerifier.ZKPRequest memory req...\n      POP \t\t\tVerifier.ZKPRequest memory req...\n      PUSH 0\t\t\tuest({\\r\\n     \n      PUSH [tag] 608\t\t\t    metadata: metadata,\\r\\n   \n      PUSH 0\t\t\t \n      DUP6 \t\t\t    me\n      PUSH [tag] 268\t\t\t    metadata: metadata,\\r\\n\n      SWAP1 \t\t\t    metadata: metadata,\\r\\n\n      SWAP2 \t\t\t    metadata: metadata,\\r\\n   \n      SWAP1 \t\t\t    metadata: metadata,\\r\\n   \n      PUSH FFFFFFFF\t\t\t    metadata: metadata,\\r\\n   \n      AND \t\t\t    metadata: metadata,\\r\\n   \n      JUMP \t\t\t    metadata: metadata,\\r\\n   \n    tag 608\t\t\t    metadata: metadata,\\r\\n   \n      JUMPDEST \t\t\t    metadata: metadata,\\r\\n   \n      SWAP1 \t\t\tuest({\\r\\n            metadata...\n      POP \t\t\tuest({\\r\\n            metadata...\n      DUP6 \t\t\tda\n      PUSH FFFFFFFFFFFFFFFFFFFFFFFFFFFFFFFFFFFFFFFF\t\t\t validator,\\r\\n            dat...\n      AND \t\t\t validator,\\r\\n            dat...\n      DUP8 \t\t\tdata\n      PUSH FFFFFFFFFFFFFFFFFFFFFFFFFFFFFFFFFFFFFFFF\t\t\t validator,\\r\\n            dat...\n      AND \t\t\t validator,\\r\\n            dat...\n      DUP5 \t\t\t        \n      PUSH FFFFFFFFFFFFFFFFFFFFFFFFFFFFFFFFFFFFFFFF\t\t\t validator,\\r\\n            dat...\n      AND \t\t\t validator,\\r\\n            dat...\n      PUSH C3D58168C5AE7397731D063D5BBF3D657854427343F4C083240F7AACAA2D0F62\t\t\t validator,\\r\\n            dat...\n      DUP6 \t\t\t\\r\\n\n      DUP6 \t\t\t     \n      PUSH 40\t\t\t validator,\\r\\n            dat...\n      MLOAD \t\t\t validator,\\r\\n            dat...\n      PUSH [tag] 609\t\t\t validator,\\r\\n            dat...\n      SWAP3 \t\t\t validator,\\r\\n            dat...\n      SWAP2 \t\t\t validator,\\r\\n            dat...\n      SWAP1 \t\t\t validator,\\r\\n            dat...\n      PUSH [tag] 256\t\t\t validator,\\r\\n            dat...\n      JUMP \t\t\t validator,\\r\\n            dat...\n    tag 609\t\t\t validator,\\r\\n            dat...\n      JUMPDEST \t\t\t validator,\\r\\n            dat...\n      PUSH 40\t\t\t validator,\\r\\n            dat...\n      MLOAD \t\t\t validator,\\r\\n            dat...\n      DUP1 \t\t\t validator,\\r\\n            dat...\n      SWAP2 \t\t\t validator,\\r\\n            dat...\n      SUB \t\t\t validator,\\r\\n            dat...\n      SWAP1 \t\t\t validator,\\r\\n            dat...\n      LOG4 \t\t\t validator,\\r\\n            dat...\n      POP \t\t\t\\r\\n        IZKPVerifier.ZKPRe...\n      POP \t\t\t\\r\\n        IZKPVerifier.ZKPRe...\n      PUSH [tag] 610\t\t\tier.ZKPRequest struct\\r\\n     ...\n      JUMP \t\t\tier.ZKPRequest struct\\r\\n     ...\n    tag 606\t\t\tier.ZKPRequest struct\\r\\n     ...\n      JUMPDEST \t\t\tier.ZKPRequest struct\\r\\n     ...\n      DUP4 \t\t\tdP\n      PUSH FFFFFFFFFFFFFFFFFFFFFFFFFFFFFFFFFFFFFFFF\t\t\tt(requestId, req);\\r\\n        ...\n      AND \t\t\tt(requestId, req);\\r\\n        ...\n      DUP6 \t\t\t    \n      PUSH FFFFFFFFFFFFFFFFFFFFFFFFFFFFFFFFFFFFFFFF\t\t\tt(requestId, req);\\r\\n        ...\n      AND \t\t\tt(requestId, req);\\r\\n        ...\n      DUP3 \t\t\teq);\\r\\n  \n      PUSH FFFFFFFFFFFFFFFFFFFFFFFFFFFFFFFFFFFFFFFF\t\t\tt(requestId, req);\\r\\n        ...\n      AND \t\t\tt(requestId, req);\\r\\n        ...\n      PUSH 4A39DC06D4C0DBC64B70AF90FD698A233A518AA5D07E595D983B8C0526C8F7FB\t\t\tt(requestId, req);\\r\\n        ...\n      DUP7 \t\t\tofR\n      DUP7 \t\t\tuestAn\n      PUSH 40\t\t\tt(requestId, req);\\r\\n        ...\n      MLOAD \t\t\tt(requestId, req);\\r\\n        ...\n      PUSH [tag] 611\t\t\tt(requestId, req);\\r\\n        ...\n      SWAP3 \t\t\tt(requestId, req);\\r\\n        ...\n      SWAP2 \t\t\tt(requestId, req);\\r\\n        ...\n      SWAP1 \t\t\tt(requestId, req);\\r\\n        ...\n      PUSH [tag] 612\t\t\tt(requestId, req);\\r\\n        ...\n      JUMP \t\t\tt(requestId, req);\\r\\n        ...\n    tag 611\t\t\tt(requestId, req);\\r\\n        ...\n      JUMPDEST \t\t\tt(requestId, req);\\r\\n        ...\n      PUSH 40\t\t\tt(requestId, req);\\r\\n        ...\n      MLOAD \t\t\tt(requestId, req);\\r\\n        ...\n      DUP1 \t\t\tt(requestId, req);\\r\\n        ...\n      SWAP2 \t\t\tt(requestId, req);\\r\\n        ...\n      SUB \t\t\tt(requestId, req);\\r\\n        ...\n      SWAP1 \t\t\tt(requestId, req);\\r\\n        ...\n      LOG4 \t\t\tt(requestId, req);\\r\\n        ...\n    tag 610\t\t\tier.ZKPRequest struct\\r\\n     ...\n      JUMPDEST \t\t\tier.ZKPRequest struct\\r\\n     ...\n      POP \t\t\t == 0, \"Proof request already ...\n      POP \t\t\tt\");\\r\\n        require(bytes(...\n      POP \t\t\tt\");\\r\\n        require(bytes(...\n      POP \t\t\tt\");\\r\\n        require(bytes(...\n      POP \t\t\tt\");\\r\\n        require(bytes(...\n      JUMP \t\t\tt\");\\r\\n        require(bytes(...\n    tag 573\t\t\tadmin.\\r\\n    function _isAdmi...\n      JUMPDEST \t\t\tadmin.\\r\\n    function _isAdmi...\n      PUSH 0\t\t\t \n      DUP5 \t\t\t\\n \n      PUSH FFFFFFFFFFFFFFFFFFFFFFFFFFFFFFFFFFFFFFFF\t\t\t\\n            }\n      AND \t\t\t\\n            }\n      EXTCODESIZE \t\t\t\\n            }\n      GT \t\t\t\\n            }\\r\\n  \n      ISZERO \t\t\tue;\\r\\n            }\\r\\n      ...\n      PUSH [tag] 614\t\t\tue;\\r\\n            }\\r\\n      ...\n      JUMPI \t\t\tue;\\r\\n            }\\r\\n      ...\n      DUP4 \t\t\t\\r\\n\n      PUSH FFFFFFFFFFFFFFFFFFFFFFFFFFFFFFFFFFFFFFFF\t\t\turn false;\\r\\n    }\\r\\n\\r\\n   ...\n      AND \t\t\turn false;\\r\\n    }\\r\\n\\r\\n   ...\n      PUSH F23A6E61\t\t\turn false;\\r\\n    }\\r\\n\\r\\n   ...\n      DUP8 \t\t\t add an \n      DUP8 \t\t\tmin \n      DUP7 \t\t\tdr\n      DUP7 \t\t\ts. On\n      DUP7 \t\t\t the\n      PUSH 40\t\t\turn false;\\r\\n    }\\r\\n\\r\\n   ...\n      MLOAD \t\t\turn false;\\r\\n    }\\r\\n\\r\\n   ...\n      DUP7 \t\t\turn false;\\r\\n    }\\r\\n\\r\\n   ...\n      PUSH FFFFFFFF\t\t\turn false;\\r\\n    }\\r\\n\\r\\n   ...\n      AND \t\t\turn false;\\r\\n    }\\r\\n\\r\\n   ...\n      PUSH E0\t\t\turn false;\\r\\n    }\\r\\n\\r\\n   ...\n      SHL \t\t\turn false;\\r\\n    }\\r\\n\\r\\n   ...\n      DUP2 \t\t\turn false;\\r\\n    }\\r\\n\\r\\n   ...\n      MSTORE \t\t\turn false;\\r\\n    }\\r\\n\\r\\n   ...\n      PUSH 4\t\t\turn false;\\r\\n    }\\r\\n\\r\\n   ...\n      ADD \t\t\turn false;\\r\\n    }\\r\\n\\r\\n   ...\n      PUSH [tag] 615\t\t\turn false;\\r\\n    }\\r\\n\\r\\n   ...\n      SWAP6 \t\t\turn false;\\r\\n    }\\r\\n\\r\\n   ...\n      SWAP5 \t\t\turn false;\\r\\n    }\\r\\n\\r\\n   ...\n      SWAP4 \t\t\turn false;\\r\\n    }\\r\\n\\r\\n   ...\n      SWAP3 \t\t\turn false;\\r\\n    }\\r\\n\\r\\n   ...\n      SWAP2 \t\t\turn false;\\r\\n    }\\r\\n\\r\\n   ...\n      SWAP1 \t\t\turn false;\\r\\n    }\\r\\n\\r\\n   ...\n      PUSH [tag] 616\t\t\turn false;\\r\\n    }\\r\\n\\r\\n   ...\n      JUMP \t\t\turn false;\\r\\n    }\\r\\n\\r\\n   ...\n    tag 615\t\t\turn false;\\r\\n    }\\r\\n\\r\\n   ...\n      JUMPDEST \t\t\turn false;\\r\\n    }\\r\\n\\r\\n   ...\n      PUSH 20\t\t\turn false;\\r\\n    }\\r\\n\\r\\n   ...\n      PUSH 40\t\t\turn false;\\r\\n    }\\r\\n\\r\\n   ...\n      MLOAD \t\t\turn false;\\r\\n    }\\r\\n\\r\\n   ...\n      DUP1 \t\t\turn false;\\r\\n    }\\r\\n\\r\\n   ...\n      DUP4 \t\t\turn false;\\r\\n    }\\r\\n\\r\\n   ...\n      SUB \t\t\turn false;\\r\\n    }\\r\\n\\r\\n   ...\n      DUP2 \t\t\turn false;\\r\\n    }\\r\\n\\r\\n   ...\n      PUSH 0\t\t\turn false;\\r\\n    }\\r\\n\\r\\n   ...\n      DUP8 \t\t\turn false;\\r\\n    }\\r\\n\\r\\n   ...\n      GAS \t\t\turn false;\\r\\n    }\\r\\n\\r\\n   ...\n      CALL \t\t\turn false;\\r\\n    }\\r\\n\\r\\n   ...\n      SWAP3 \t\t\turn false;\\r\\n    }\\r\\n\\r\\n   ...\n      POP \t\t\turn false;\\r\\n    }\\r\\n\\r\\n   ...\n      POP \t\t\turn false;\\r\\n    }\\r\\n\\r\\n   ...\n      POP \t\t\turn false;\\r\\n    }\\r\\n\\r\\n   ...\n      DUP1 \t\t\turn false;\\r\\n    }\\r\\n\\r\\n   ...\n      ISZERO \t\t\turn false;\\r\\n    }\\r\\n\\r\\n   ...\n      PUSH [tag] 617\t\t\turn false;\\r\\n    }\\r\\n\\r\\n   ...\n      JUMPI \t\t\turn false;\\r\\n    }\\r\\n\\r\\n   ...\n      POP \t\t\turn false;\\r\\n    }\\r\\n\\r\\n   ...\n      PUSH 40\t\t\turn false;\\r\\n    }\\r\\n\\r\\n   ...\n      MLOAD \t\t\turn false;\\r\\n    }\\r\\n\\r\\n   ...\n      RETURNDATASIZE \t\t\turn false;\\r\\n    }\\r\\n\\r\\n   ...\n      PUSH 1F\t\t\turn false;\\r\\n    }\\r\\n\\r\\n   ...\n      NOT \t\t\turn false;\\r\\n    }\\r\\n\\r\\n   ...\n      PUSH 1F\t\t\turn false;\\r\\n    }\\r\\n\\r\\n   ...\n      DUP3 \t\t\turn false;\\r\\n    }\\r\\n\\r\\n   ...\n      ADD \t\t\turn false;\\r\\n    }\\r\\n\\r\\n   ...\n      AND \t\t\turn false;\\r\\n    }\\r\\n\\r\\n   ...\n      DUP3 \t\t\turn false;\\r\\n    }\\r\\n\\r\\n   ...\n      ADD \t\t\turn false;\\r\\n    }\\r\\n\\r\\n   ...\n      DUP1 \t\t\turn false;\\r\\n    }\\r\\n\\r\\n   ...\n      PUSH 40\t\t\turn false;\\r\\n    }\\r\\n\\r\\n   ...\n      MSTORE \t\t\turn false;\\r\\n    }\\r\\n\\r\\n   ...\n      POP \t\t\turn false;\\r\\n    }\\r\\n\\r\\n   ...\n      DUP2 \t\t\turn false;\\r\\n    }\\r\\n\\r\\n   ...\n      ADD \t\t\turn false;\\r\\n    }\\r\\n\\r\\n   ...\n      SWAP1 \t\t\turn false;\\r\\n    }\\r\\n\\r\\n   ...\n      PUSH [tag] 618\t\t\turn false;\\r\\n    }\\r\\n\\r\\n   ...\n      SWAP2 \t\t\turn false;\\r\\n    }\\r\\n\\r\\n   ...\n      SWAP1 \t\t\turn false;\\r\\n    }\\r\\n\\r\\n   ...\n      PUSH [tag] 619\t\t\turn false;\\r\\n    }\\r\\n\\r\\n   ...\n      JUMP \t\t\turn false;\\r\\n    }\\r\\n\\r\\n   ...\n    tag 618\t\t\turn false;\\r\\n    }\\r\\n\\r\\n   ...\n      JUMPDEST \t\t\turn false;\\r\\n    }\\r\\n\\r\\n   ...\n      PUSH 1\t\t\turn false;\\r\\n    }\\r\\n\\r\\n   ...\n    tag 617\t\t\turn false;\\r\\n    }\\r\\n\\r\\n   ...\n      JUMPDEST \t\t\turn false;\\r\\n    }\\r\\n\\r\\n   ...\n      PUSH [tag] 620\t\t\t return false;\\r\\n    }\\r\\n\\r\\...\n      JUMPI \t\t\t return false;\\r\\n    }\\r\\n\\r\\...\n      RETURNDATASIZE \t\t\t return false;\\r\\n    }\\r\\n\\r\\...\n      DUP1 \t\t\t return false;\\r\\n    }\\r\\n\\r\\...\n      PUSH 0\t\t\t return false;\\r\\n    }\\r\\n\\r\\...\n      DUP2 \t\t\t return false;\\r\\n    }\\r\\n\\r\\...\n      EQ \t\t\t return false;\\r\\n    }\\r\\n\\r\\...\n      PUSH [tag] 625\t\t\t return false;\\r\\n    }\\r\\n\\r\\...\n      JUMPI \t\t\t return false;\\r\\n    }\\r\\n\\r\\...\n      PUSH 40\t\t\t return false;\\r\\n    }\\r\\n\\r\\...\n      MLOAD \t\t\t return false;\\r\\n    }\\r\\n\\r\\...\n      SWAP2 \t\t\t return false;\\r\\n    }\\r\\n\\r\\...\n      POP \t\t\t return false;\\r\\n    }\\r\\n\\r\\...\n      PUSH 1F\t\t\t return false;\\r\\n    }\\r\\n\\r\\...\n      NOT \t\t\t return false;\\r\\n    }\\r\\n\\r\\...\n      PUSH 3F\t\t\t return false;\\r\\n    }\\r\\n\\r\\...\n      RETURNDATASIZE \t\t\t return false;\\r\\n    }\\r\\n\\r\\...\n      ADD \t\t\t return false;\\r\\n    }\\r\\n\\r\\...\n      AND \t\t\t return false;\\r\\n    }\\r\\n\\r\\...\n      DUP3 \t\t\t return false;\\r\\n    }\\r\\n\\r\\...\n      ADD \t\t\t return false;\\r\\n    }\\r\\n\\r\\...\n      PUSH 40\t\t\t return false;\\r\\n    }\\r\\n\\r\\...\n      MSTORE \t\t\t return false;\\r\\n    }\\r\\n\\r\\...\n      RETURNDATASIZE \t\t\t return false;\\r\\n    }\\r\\n\\r\\...\n      DUP3 \t\t\t return false;\\r\\n    }\\r\\n\\r\\...\n      MSTORE \t\t\t return false;\\r\\n    }\\r\\n\\r\\...\n      RETURNDATASIZE \t\t\t return false;\\r\\n    }\\r\\n\\r\\...\n      PUSH 0\t\t\t return false;\\r\\n    }\\r\\n\\r\\...\n      PUSH 20\t\t\t return false;\\r\\n    }\\r\\n\\r\\...\n      DUP5 \t\t\t return false;\\r\\n    }\\r\\n\\r\\...\n      ADD \t\t\t return false;\\r\\n    }\\r\\n\\r\\...\n      RETURNDATACOPY \t\t\t return false;\\r\\n    }\\r\\n\\r\\...\n      PUSH [tag] 624\t\t\t return false;\\r\\n    }\\r\\n\\r\\...\n      JUMP \t\t\t return false;\\r\\n    }\\r\\n\\r\\...\n    tag 625\t\t\t return false;\\r\\n    }\\r\\n\\r\\...\n      JUMPDEST \t\t\t return false;\\r\\n    }\\r\\n\\r\\...\n      PUSH 60\t\t\t return false;\\r\\n    }\\r\\n\\r\\...\n      SWAP2 \t\t\t return false;\\r\\n    }\\r\\n\\r\\...\n      POP \t\t\t return false;\\r\\n    }\\r\\n\\r\\...\n    tag 624\t\t\t return false;\\r\\n    }\\r\\n\\r\\...\n      JUMPDEST \t\t\t return false;\\r\\n    }\\r\\n\\r\\...\n      POP \t\t\t return false;\\r\\n    }\\r\\n\\r\\...\n      PUSH 0\t\t\tf\n      DUP2 \t\t\tcan re\n      MLOAD \t\t\tcan remove.\\r\\n\n      SUB \t\t\tcan remove.\\r\\n    f\n      PUSH [tag] 626\t\t\tner can remove.\\r\\n    functio...\n      JUMPI \t\t\tner can remove.\\r\\n    functio...\n      DUP5 \t\t\ti+\n      PUSH 40\t\t\th;\\r\\n        for (uint i = 0;...\n      MLOAD \t\t\th;\\r\\n        for (uint i = 0;...\n      PUSH 57F447CE00000000000000000000000000000000000000000000000000000000\t\t\th;\\r\\n        for (uint i = 0;...\n      DUP2 \t\t\th;\\r\\n        for (uint i = 0;...\n      MSTORE \t\t\th;\\r\\n        for (uint i = 0;...\n      PUSH 4\t\t\th;\\r\\n        for (uint i = 0;...\n      ADD \t\t\th;\\r\\n        for (uint i = 0;...\n      PUSH [tag] 627\t\t\th;\\r\\n        for (uint i = 0;...\n      SWAP2 \t\t\th;\\r\\n        for (uint i = 0;...\n      SWAP1 \t\t\th;\\r\\n        for (uint i = 0;...\n      PUSH [tag] 101\t\t\th;\\r\\n        for (uint i = 0;...\n      JUMP \t\t\th;\\r\\n        for (uint i = 0;...\n    tag 627\t\t\th;\\r\\n        for (uint i = 0;...\n      JUMPDEST \t\t\th;\\r\\n        for (uint i = 0;...\n      PUSH 40\t\t\th;\\r\\n        for (uint i = 0;...\n      MLOAD \t\t\th;\\r\\n        for (uint i = 0;...\n      DUP1 \t\t\th;\\r\\n        for (uint i = 0;...\n      SWAP2 \t\t\th;\\r\\n        for (uint i = 0;...\n      SUB \t\t\th;\\r\\n        for (uint i = 0;...\n      SWAP1 \t\t\th;\\r\\n        for (uint i = 0;...\n      REVERT \t\t\th;\\r\\n        for (uint i = 0;...\n    tag 626\t\t\tner can remove.\\r\\n    functio...\n      JUMPDEST \t\t\tner can remove.\\r\\n    functio...\n      DUP1 \t\t\t      \n      MLOAD \t\t\t             \n      DUP2 \t\t\t.pop()\n      PUSH 20\t\t\tmi\n      ADD \t\t\t  admins.pop();\n      REVERT \t\t\t         admins.pop();\\r\\n    ...\n    tag 620\t\t\t return false;\\r\\n    }\\r\\n\\r\\...\n      JUMPDEST \t\t\t return false;\\r\\n    }\\r\\n\\r\\...\n      PUSH F23A6E61\t\t\tonlyOwner {\\r\\n        require...\n      PUSH E0\t\t\tonlyOwner {\\r\\n        require...\n      SHL \t\t\tonlyOwner {\\r\\n        require...\n      PUSH FFFFFFFFFFFFFFFFFFFFFFFFFFFFFFFFFFFFFFFFFFFFFFFFFFFFFFFF\t\t\tmin) public onlyOwner {\\r\\n   ...\n      NOT \t\t\tmin) public onlyOwner {\\r\\n   ...\n      AND \t\t\tmin) public onlyOwner {\\r\\n   ...\n      DUP2 \t\t\tmin) pub\n      PUSH FFFFFFFFFFFFFFFFFFFFFFFFFFFFFFFFFFFFFFFFFFFFFFFFFFFFFFFF\t\t\tmin) public onlyOwner {\\r\\n   ...\n      NOT \t\t\tmin) public onlyOwner {\\r\\n   ...\n      AND \t\t\tmin) public onlyOwner {\\r\\n   ...\n      EQ \t\t\tmin) public onlyOwner {\\r\\n   ...\n      PUSH [tag] 630\t\t\t _admin) public onlyOwner {\\r\\...\n      JUMPI \t\t\t _admin) public onlyOwner {\\r\\...\n      DUP5 \t\t\tin\n      PUSH 40\t\t\tss is already an admin\");\\r\\n ...\n      MLOAD \t\t\tss is already an admin\");\\r\\n ...\n      PUSH 57F447CE00000000000000000000000000000000000000000000000000000000\t\t\tss is already an admin\");\\r\\n ...\n      DUP2 \t\t\tss is already an admin\");\\r\\n ...\n      MSTORE \t\t\tss is already an admin\");\\r\\n ...\n      PUSH 4\t\t\tss is already an admin\");\\r\\n ...\n      ADD \t\t\tss is already an admin\");\\r\\n ...\n      PUSH [tag] 631\t\t\tss is already an admin\");\\r\\n ...\n      SWAP2 \t\t\tss is already an admin\");\\r\\n ...\n      SWAP1 \t\t\tss is already an admin\");\\r\\n ...\n      PUSH [tag] 101\t\t\tss is already an admin\");\\r\\n ...\n      JUMP \t\t\tss is already an admin\");\\r\\n ...\n    tag 631\t\t\tss is already an admin\");\\r\\n ...\n      JUMPDEST \t\t\tss is already an admin\");\\r\\n ...\n      PUSH 40\t\t\tss is already an admin\");\\r\\n ...\n      MLOAD \t\t\tss is already an admin\");\\r\\n ...\n      DUP1 \t\t\tss is already an admin\");\\r\\n ...\n      SWAP2 \t\t\tss is already an admin\");\\r\\n ...\n      SUB \t\t\tss is already an admin\");\\r\\n ...\n      SWAP1 \t\t\tss is already an admin\");\\r\\n ...\n      REVERT \t\t\tss is already an admin\");\\r\\n ...\n    tag 630\t\t\t _admin) public onlyOwner {\\r\\...\n      JUMPDEST \t\t\t _admin) public onlyOwner {\\r\\...\n      POP \t\t\twner can add.\\r\\n    function ...\n    tag 614\t\t\tue;\\r\\n            }\\r\\n      ...\n      JUMPDEST \t\t\tue;\\r\\n            }\\r\\n      ...\n      POP \t\t\tadmin.\\r\\n    function _isAdmi...\n      POP \t\t\tadmin.\\r\\n    function _isAdmi...\n      POP \t\t\tadmin.\\r\\n    function _isAdmi...\n      POP \t\t\tadmin.\\r\\n    function _isAdmi...\n      POP \t\t\tadmin.\\r\\n    function _isAdmi...\n      POP \t\t\tadmin.\\r\\n    function _isAdmi...\n      JUMP \t\t\tadmin.\\r\\n    function _isAdmi...\n    tag 576\t\t\tMapping from token ID to its n...\n      JUMPDEST \t\t\tMapping from token ID to its n...\n      PUSH 0\t\t\te\n      DUP5 \t\t\td \n      PUSH FFFFFFFFFFFFFFFFFFFFFFFFFFFFFFFFFFFFFFFF\t\t\td to prover's \n      AND \t\t\td to prover's \n      EXTCODESIZE \t\t\td to prover's \n      GT \t\t\td to prover's role\n      ISZERO \t\t\tst_id to prover's role (a stri...\n      PUSH [tag] 633\t\t\tst_id to prover's role (a stri...\n      JUMPI \t\t\tst_id to prover's role (a stri...\n      DUP4 \t\t\t  \n      PUSH FFFFFFFFFFFFFFFFFFFFFFFFFFFFFFFFFFFFFFFF\t\t\tor 'receiver').\\r\\n    // toke...\n      AND \t\t\tor 'receiver').\\r\\n    // toke...\n      PUSH BC197C81\t\t\tor 'receiver').\\r\\n    // toke...\n      DUP8 \t\t\t(proofRe\n      DUP8 \t\t\testI\n      DUP7 \t\t\t→ '\n      DUP7 \t\t\tnder' \n      DUP7 \t\t\t 're\n      PUSH 40\t\t\tor 'receiver').\\r\\n    // toke...\n      MLOAD \t\t\tor 'receiver').\\r\\n    // toke...\n      DUP7 \t\t\tor 'receiver').\\r\\n    // toke...\n      PUSH FFFFFFFF\t\t\tor 'receiver').\\r\\n    // toke...\n      AND \t\t\tor 'receiver').\\r\\n    // toke...\n      PUSH E0\t\t\tor 'receiver').\\r\\n    // toke...\n      SHL \t\t\tor 'receiver').\\r\\n    // toke...\n      DUP2 \t\t\tor 'receiver').\\r\\n    // toke...\n      MSTORE \t\t\tor 'receiver').\\r\\n    // toke...\n      PUSH 4\t\t\tor 'receiver').\\r\\n    // toke...\n      ADD \t\t\tor 'receiver').\\r\\n    // toke...\n      PUSH [tag] 634\t\t\tor 'receiver').\\r\\n    // toke...\n      SWAP6 \t\t\tor 'receiver').\\r\\n    // toke...\n      SWAP5 \t\t\tor 'receiver').\\r\\n    // toke...\n      SWAP4 \t\t\tor 'receiver').\\r\\n    // toke...\n      SWAP3 \t\t\tor 'receiver').\\r\\n    // toke...\n      SWAP2 \t\t\tor 'receiver').\\r\\n    // toke...\n      SWAP1 \t\t\tor 'receiver').\\r\\n    // toke...\n      PUSH [tag] 635\t\t\tor 'receiver').\\r\\n    // toke...\n      JUMP \t\t\tor 'receiver').\\r\\n    // toke...\n    tag 634\t\t\tor 'receiver').\\r\\n    // toke...\n      JUMPDEST \t\t\tor 'receiver').\\r\\n    // toke...\n      PUSH 20\t\t\tor 'receiver').\\r\\n    // toke...\n      PUSH 40\t\t\tor 'receiver').\\r\\n    // toke...\n      MLOAD \t\t\tor 'receiver').\\r\\n    // toke...\n      DUP1 \t\t\tor 'receiver').\\r\\n    // toke...\n      DUP4 \t\t\tor 'receiver').\\r\\n    // toke...\n      SUB \t\t\tor 'receiver').\\r\\n    // toke...\n      DUP2 \t\t\tor 'receiver').\\r\\n    // toke...\n      PUSH 0\t\t\tor 'receiver').\\r\\n    // toke...\n      DUP8 \t\t\tor 'receiver').\\r\\n    // toke...\n      GAS \t\t\tor 'receiver').\\r\\n    // toke...\n      CALL \t\t\tor 'receiver').\\r\\n    // toke...\n      SWAP3 \t\t\tor 'receiver').\\r\\n    // toke...\n      POP \t\t\tor 'receiver').\\r\\n    // toke...\n      POP \t\t\tor 'receiver').\\r\\n    // toke...\n      POP \t\t\tor 'receiver').\\r\\n    // toke...\n      DUP1 \t\t\tor 'receiver').\\r\\n    // toke...\n      ISZERO \t\t\tor 'receiver').\\r\\n    // toke...\n      PUSH [tag] 636\t\t\tor 'receiver').\\r\\n    // toke...\n      JUMPI \t\t\tor 'receiver').\\r\\n    // toke...\n      POP \t\t\tor 'receiver').\\r\\n    // toke...\n      PUSH 40\t\t\tor 'receiver').\\r\\n    // toke...\n      MLOAD \t\t\tor 'receiver').\\r\\n    // toke...\n      RETURNDATASIZE \t\t\tor 'receiver').\\r\\n    // toke...\n      PUSH 1F\t\t\tor 'receiver').\\r\\n    // toke...\n      NOT \t\t\tor 'receiver').\\r\\n    // toke...\n      PUSH 1F\t\t\tor 'receiver').\\r\\n    // toke...\n      DUP3 \t\t\tor 'receiver').\\r\\n    // toke...\n      ADD \t\t\tor 'receiver').\\r\\n    // toke...\n      AND \t\t\tor 'receiver').\\r\\n    // toke...\n      DUP3 \t\t\tor 'receiver').\\r\\n    // toke...\n      ADD \t\t\tor 'receiver').\\r\\n    // toke...\n      DUP1 \t\t\tor 'receiver').\\r\\n    // toke...\n      PUSH 40\t\t\tor 'receiver').\\r\\n    // toke...\n      MSTORE \t\t\tor 'receiver').\\r\\n    // toke...\n      POP \t\t\tor 'receiver').\\r\\n    // toke...\n      DUP2 \t\t\tor 'receiver').\\r\\n    // toke...\n      ADD \t\t\tor 'receiver').\\r\\n    // toke...\n      SWAP1 \t\t\tor 'receiver').\\r\\n    // toke...\n      PUSH [tag] 637\t\t\tor 'receiver').\\r\\n    // toke...\n      SWAP2 \t\t\tor 'receiver').\\r\\n    // toke...\n      SWAP1 \t\t\tor 'receiver').\\r\\n    // toke...\n      PUSH [tag] 619\t\t\tor 'receiver').\\r\\n    // toke...\n      JUMP \t\t\tor 'receiver').\\r\\n    // toke...\n    tag 637\t\t\tor 'receiver').\\r\\n    // toke...\n      JUMPDEST \t\t\tor 'receiver').\\r\\n    // toke...\n      PUSH 1\t\t\tor 'receiver').\\r\\n    // toke...\n    tag 636\t\t\tor 'receiver').\\r\\n    // toke...\n      JUMPDEST \t\t\tor 'receiver').\\r\\n    // toke...\n      PUSH [tag] 638\t\t\ter' or 'receiver').\\r\\n    // ...\n      JUMPI \t\t\ter' or 'receiver').\\r\\n    // ...\n      RETURNDATASIZE \t\t\ter' or 'receiver').\\r\\n    // ...\n      DUP1 \t\t\ter' or 'receiver').\\r\\n    // ...\n      PUSH 0\t\t\ter' or 'receiver').\\r\\n    // ...\n      DUP2 \t\t\ter' or 'receiver').\\r\\n    // ...\n      EQ \t\t\ter' or 'receiver').\\r\\n    // ...\n      PUSH [tag] 643\t\t\ter' or 'receiver').\\r\\n    // ...\n      JUMPI \t\t\ter' or 'receiver').\\r\\n    // ...\n      PUSH 40\t\t\ter' or 'receiver').\\r\\n    // ...\n      MLOAD \t\t\ter' or 'receiver').\\r\\n    // ...\n      SWAP2 \t\t\ter' or 'receiver').\\r\\n    // ...\n      POP \t\t\ter' or 'receiver').\\r\\n    // ...\n      PUSH 1F\t\t\ter' or 'receiver').\\r\\n    // ...\n      NOT \t\t\ter' or 'receiver').\\r\\n    // ...\n      PUSH 3F\t\t\ter' or 'receiver').\\r\\n    // ...\n      RETURNDATASIZE \t\t\ter' or 'receiver').\\r\\n    // ...\n      ADD \t\t\ter' or 'receiver').\\r\\n    // ...\n      AND \t\t\ter' or 'receiver').\\r\\n    // ...\n      DUP3 \t\t\ter' or 'receiver').\\r\\n    // ...\n      ADD \t\t\ter' or 'receiver').\\r\\n    // ...\n      PUSH 40\t\t\ter' or 'receiver').\\r\\n    // ...\n      MSTORE \t\t\ter' or 'receiver').\\r\\n    // ...\n      RETURNDATASIZE \t\t\ter' or 'receiver').\\r\\n    // ...\n      DUP3 \t\t\ter' or 'receiver').\\r\\n    // ...\n      MSTORE \t\t\ter' or 'receiver').\\r\\n    // ...\n      RETURNDATASIZE \t\t\ter' or 'receiver').\\r\\n    // ...\n      PUSH 0\t\t\ter' or 'receiver').\\r\\n    // ...\n      PUSH 20\t\t\ter' or 'receiver').\\r\\n    // ...\n      DUP5 \t\t\ter' or 'receiver').\\r\\n    // ...\n      ADD \t\t\ter' or 'receiver').\\r\\n    // ...\n      RETURNDATACOPY \t\t\ter' or 'receiver').\\r\\n    // ...\n      PUSH [tag] 642\t\t\ter' or 'receiver').\\r\\n    // ...\n      JUMP \t\t\ter' or 'receiver').\\r\\n    // ...\n    tag 643\t\t\ter' or 'receiver').\\r\\n    // ...\n      JUMPDEST \t\t\ter' or 'receiver').\\r\\n    // ...\n      PUSH 60\t\t\ter' or 'receiver').\\r\\n    // ...\n      SWAP2 \t\t\ter' or 'receiver').\\r\\n    // ...\n      POP \t\t\ter' or 'receiver').\\r\\n    // ...\n    tag 642\t\t\ter' or 'receiver').\\r\\n    // ...\n      JUMPDEST \t\t\ter' or 'receiver').\\r\\n    // ...\n      POP \t\t\ter' or 'receiver').\\r\\n    // ...\n      PUSH 0\t\t\tf\n      DUP2 \t\t\tr addr\n      MLOAD \t\t\tr address to \n      SUB \t\t\tr address to proof\n      PUSH [tag] 644\t\t\t user address to proofRequestI...\n      JUMPI \t\t\t user address to proofRequestI...\n      DUP5 \t\t\tui\n      PUSH 40\t\t\tD => SpendingCondition))\\r\\n  ...\n      MLOAD \t\t\tD => SpendingCondition))\\r\\n  ...\n      PUSH 57F447CE00000000000000000000000000000000000000000000000000000000\t\t\tD => SpendingCondition))\\r\\n  ...\n      DUP2 \t\t\tD => SpendingCondition))\\r\\n  ...\n      MSTORE \t\t\tD => SpendingCondition))\\r\\n  ...\n      PUSH 4\t\t\tD => SpendingCondition))\\r\\n  ...\n      ADD \t\t\tD => SpendingCondition))\\r\\n  ...\n      PUSH [tag] 645\t\t\tD => SpendingCondition))\\r\\n  ...\n      SWAP2 \t\t\tD => SpendingCondition))\\r\\n  ...\n      SWAP1 \t\t\tD => SpendingCondition))\\r\\n  ...\n      PUSH [tag] 101\t\t\tD => SpendingCondition))\\r\\n  ...\n      JUMP \t\t\tD => SpendingCondition))\\r\\n  ...\n    tag 645\t\t\tD => SpendingCondition))\\r\\n  ...\n      JUMPDEST \t\t\tD => SpendingCondition))\\r\\n  ...\n      PUSH 40\t\t\tD => SpendingCondition))\\r\\n  ...\n      MLOAD \t\t\tD => SpendingCondition))\\r\\n  ...\n      DUP1 \t\t\tD => SpendingCondition))\\r\\n  ...\n      SWAP2 \t\t\tD => SpendingCondition))\\r\\n  ...\n      SUB \t\t\tD => SpendingCondition))\\r\\n  ...\n      SWAP1 \t\t\tD => SpendingCondition))\\r\\n  ...\n      REVERT \t\t\tD => SpendingCondition))\\r\\n  ...\n    tag 644\t\t\t user address to proofRequestI...\n      JUMPDEST \t\t\t user address to proofRequestI...\n      DUP1 \t\t\tequest\n      MLOAD \t\t\troof_request_\n      DUP2 \t\t\to stor\n      PUSH 20\t\t\tay\n      ADD \t\t\t array to store\n      REVERT \t\t\t  // An array to store proof_r...\n    tag 638\t\t\ter' or 'receiver').\\r\\n    // ...\n      JUMPDEST \t\t\ter' or 'receiver').\\r\\n    // ...\n      PUSH BC197C81\t\t\tnID_requestSetter_proofRequest...\n      PUSH E0\t\t\tnID_requestSetter_proofRequest...\n      SHL \t\t\tnID_requestSetter_proofRequest...\n      PUSH FFFFFFFFFFFFFFFFFFFFFFFFFFFFFFFFFFFFFFFFFFFFFFFFFFFFFFFF\t\t\t public tokenID_requestSetter_...\n      NOT \t\t\t public tokenID_requestSetter_...\n      AND \t\t\t public tokenID_requestSetter_...\n      DUP2 \t\t\t public \n      PUSH FFFFFFFFFFFFFFFFFFFFFFFFFFFFFFFFFFFFFFFFFFFFFFFFFFFFFFFF\t\t\t public tokenID_requestSetter_...\n      NOT \t\t\t public tokenID_requestSetter_...\n      AND \t\t\t public tokenID_requestSetter_...\n      EQ \t\t\t public tokenID_requestSetter_...\n      PUSH [tag] 648\t\t\tg))) public tokenID_requestSet...\n      JUMPI \t\t\tg))) public tokenID_requestSet...\n      DUP5 \t\t\tst\n      PUSH 40\t\t\t{\\r\\n        string attribute;...\n      MLOAD \t\t\t{\\r\\n        string attribute;...\n      PUSH 57F447CE00000000000000000000000000000000000000000000000000000000\t\t\t{\\r\\n        string attribute;...\n      DUP2 \t\t\t{\\r\\n        string attribute;...\n      MSTORE \t\t\t{\\r\\n        string attribute;...\n      PUSH 4\t\t\t{\\r\\n        string attribute;...\n      ADD \t\t\t{\\r\\n        string attribute;...\n      PUSH [tag] 649\t\t\t{\\r\\n        string attribute;...\n      SWAP2 \t\t\t{\\r\\n        string attribute;...\n      SWAP1 \t\t\t{\\r\\n        string attribute;...\n      PUSH [tag] 101\t\t\t{\\r\\n        string attribute;...\n      JUMP \t\t\t{\\r\\n        string attribute;...\n    tag 649\t\t\t{\\r\\n        string attribute;...\n      JUMPDEST \t\t\t{\\r\\n        string attribute;...\n      PUSH 40\t\t\t{\\r\\n        string attribute;...\n      MLOAD \t\t\t{\\r\\n        string attribute;...\n      DUP1 \t\t\t{\\r\\n        string attribute;...\n      SWAP2 \t\t\t{\\r\\n        string attribute;...\n      SUB \t\t\t{\\r\\n        string attribute;...\n      SWAP1 \t\t\t{\\r\\n        string attribute;...\n      REVERT \t\t\t{\\r\\n        string attribute;...\n    tag 648\t\t\tg))) public tokenID_requestSet...\n      JUMPDEST \t\t\tg))) public tokenID_requestSet...\n      POP \t\t\tiver'))\\r\\n    mapping(uint256...\n    tag 633\t\t\tst_id to prover's role (a stri...\n      JUMPDEST \t\t\tst_id to prover's role (a stri...\n      POP \t\t\tMapping from token ID to its n...\n      POP \t\t\tMapping from token ID to its n...\n      POP \t\t\tMapping from token ID to its n...\n      POP \t\t\tMapping from token ID to its n...\n      POP \t\t\tMapping from token ID to its n...\n      POP \t\t\tMapping from token ID to its n...\n      JUMP \t\t\tMapping from token ID to its n...\n    tag 286\t\t\t\n      JUMPDEST \t\t\t\n      POP \t\t\t\n      DUP1 \t\t\t\n      SLOAD \t\t\t\n      PUSH [tag] 650\t\t\t\n      SWAP1 \t\t\t\n      PUSH [tag] 149\t\t\t\n      JUMP \t\t\t\n    tag 650\t\t\t\n      JUMPDEST \t\t\t\n      PUSH 0\t\t\t\n      DUP3 \t\t\t\n      SSTORE \t\t\t\n      DUP1 \t\t\t\n      PUSH 1F\t\t\t\n      LT \t\t\t\n      PUSH [tag] 652\t\t\t\n      JUMPI \t\t\t\n      POP \t\t\t\n      PUSH [tag] 651\t\t\t\n      JUMP \t\t\t\n    tag 652\t\t\t\n      JUMPDEST \t\t\t\n      PUSH 1F\t\t\t\n      ADD \t\t\t\n      PUSH 20\t\t\t\n      SWAP1 \t\t\t\n      DIV \t\t\t\n      SWAP1 \t\t\t\n      PUSH 0\t\t\t\n      MSTORE \t\t\t\n      PUSH 20\t\t\t\n      PUSH 0\t\t\t\n      KECCAK256 \t\t\t\n      SWAP1 \t\t\t\n      DUP2 \t\t\t\n      ADD \t\t\t\n      SWAP1 \t\t\t\n      PUSH [tag] 653\t\t\t\n      SWAP2 \t\t\t\n      SWAP1 \t\t\t\n      PUSH [tag] 654\t\t\t\n      JUMP \t\t\t\n    tag 653\t\t\t\n      JUMPDEST \t\t\t\n    tag 651\t\t\t\n      JUMPDEST \t\t\t\n      POP \t\t\t\n      JUMP \t\t\t\n    tag 393\t\t\t\n      JUMPDEST \t\t\t\n      PUSH 40\t\t\t\n      MLOAD \t\t\t\n      DUP1 \t\t\t\n      PUSH 60\t\t\t\n      ADD \t\t\t\n      PUSH 40\t\t\t\n      MSTORE \t\t\t\n      DUP1 \t\t\t\n      PUSH 60\t\t\t\n      DUP2 \t\t\t\n      MSTORE \t\t\t\n      PUSH 20\t\t\t\n      ADD \t\t\t\n      PUSH 60\t\t\t\n      DUP2 \t\t\t\n      MSTORE \t\t\t\n      PUSH 20\t\t\t\n      ADD \t\t\t\n      PUSH 60\t\t\t\n      DUP2 \t\t\t\n      MSTORE \t\t\t\n      POP \t\t\t\n      SWAP1 \t\t\t\n      JUMP \t\t\t\n    tag 654\t\t\t\n      JUMPDEST \t\t\t\n    tag 655\t\t\t\n      JUMPDEST \t\t\t\n      DUP1 \t\t\t\n      DUP3 \t\t\t\n      GT \t\t\t\n      ISZERO \t\t\t\n      PUSH [tag] 656\t\t\t\n      JUMPI \t\t\t\n      PUSH 0\t\t\t\n      DUP2 \t\t\t\n      PUSH 0\t\t\t\n      SWAP1 \t\t\t\n      SSTORE \t\t\t\n      POP \t\t\t\n      PUSH 1\t\t\t\n      ADD \t\t\t\n      PUSH [tag] 655\t\t\t\n      JUMP \t\t\t\n    tag 656\t\t\t\n      JUMPDEST \t\t\t\n      POP \t\t\t\n      SWAP1 \t\t\t\n      JUMP \t\t\t\n    tag 657\t\t\t-License-IDentifier: MIT\\r\\npr...\n      JUMPDEST \t\t\t-License-IDentifier: MIT\\r\\npr...\n      PUSH 0\t\t\tsolidi\n      PUSH 40\t\t\tt \n      MLOAD \t\t\t\\nimport \"\n      SWAP1 \t\t\t<0.9.0;\\r\\n\\r\\nimport \"\n      POP \t\t\t<0.9.0;\\r\\n\\r\\nimport \"\n      SWAP1 \t\t\t-License-IDentifier: MIT\\r\\npr...\n      JUMP \t\t\t-License-IDentifier: MIT\\r\\npr...\n    tag 658\t\t\tn/contracts/access/Ownable.sol...\n      JUMPDEST \t\t\tn/contracts/access/Ownable.sol...\n      PUSH 0\t\t\t\\n\n      DUP1 \t\t\t'\n      REVERT \t\t\t155.sol';\\r\\ni\n    tag 659\t\t\ttiveTypeUtils} from '@iden3/co...\n      JUMPDEST \t\t\ttiveTypeUtils} from '@iden3/co...\n      PUSH 0\t\t\to\n      DUP1 \t\t\t3\n      REVERT \t\t\t '@iden3/con\n    tag 660\t\t\tfaces/ICircuitValidator.sol';\\...\n      JUMPDEST \t\t\tfaces/ICircuitValidator.sol';\\...\n      PUSH 0\t\t\t {Embed\n      PUSH FFFFFFFFFFFFFFFFFFFFFFFFFFFFFFFFFFFFFFFF\t\t\tracts/verifiers/EmbeddedZKPVer...\n      DUP3 \t\t\tn3/co\n      AND \t\t\t@iden3/contracts/verifiers/Emb...\n      SWAP1 \t\t\tier} from '@iden3/contracts/ve...\n      POP \t\t\tier} from '@iden3/contracts/ve...\n      SWAP2 \t\t\tfaces/ICircuitValidator.sol';\\...\n      SWAP1 \t\t\tfaces/ICircuitValidator.sol';\\...\n      POP \t\t\tfaces/ICircuitValidator.sol';\\...\n      JUMP \t\t\tfaces/ICircuitValidator.sol';\\...\n    tag 661\t\t\tersalVerifier} from '@iden3/co...\n      JUMPDEST \t\t\tersalVerifier} from '@iden3/co...\n      PUSH 0\t\t\t/verifi\n      PUSH [tag] 827\t\t\tsol';\\r\\nimport \"@openzepp\n      DUP3 \t\t\tenzep\n      PUSH [tag] 660\t\t\tsol';\\r\\nimport \"@openzepp\n      JUMP \t\t\tsol';\\r\\nimport \"@openzepp\n    tag 827\t\t\tsol';\\r\\nimport \"@openzepp\n      JUMPDEST \t\t\tsol';\\r\\nimport \"@openzepp\n      SWAP1 \t\t\talVerifier.sol';\\r\\nimport \"@o...\n      POP \t\t\talVerifier.sol';\\r\\nimport \"@o...\n      SWAP2 \t\t\tersalVerifier} from '@iden3/co...\n      SWAP1 \t\t\tersalVerifier} from '@iden3/co...\n      POP \t\t\tersalVerifier} from '@iden3/co...\n      JUMP \t\t\tersalVerifier} from '@iden3/co...\n    tag 662\t\t\tts/utils/structs/EnumerableSet...\n      JUMPDEST \t\t\tts/utils/structs/EnumerableSet...\n      PUSH [tag] 829\t\t\t3/contracts/interfaces/I\n      DUP2 \t\t\taces/\n      PUSH [tag] 661\t\t\t3/contracts/interfaces/I\n      JUMP \t\t\t3/contracts/interfaces/I\n    tag 829\t\t\t3/contracts/interfaces/I\n      JUMPDEST \t\t\t3/contracts/interfaces/I\n      DUP2 \t\t\t '@id\n      EQ \t\t\trom '@iden3/contracts/interfac...\n      PUSH [tag] 830\t\t\trifier } from '@iden3/contract...\n      JUMPI \t\t\trifier } from '@iden3/contract...\n      PUSH 0\t\t\t'\n      DUP1 \t\t\ts\n      REVERT \t\t\trifier.sol';\n    tag 830\t\t\trifier } from '@iden3/contract...\n      JUMPDEST \t\t\trifier } from '@iden3/contract...\n      POP \t\t\tts/utils/structs/EnumerableSet...\n      JUMP \t\t\tts/utils/structs/EnumerableSet...\n    tag 663\t\t\tMNoAdmin is ERC1155, Ownable {...\n      JUMPDEST \t\t\tMNoAdmin is ERC1155, Ownable {...\n      PUSH 0\t\t\tpriva\n      DUP2 \t\t\tion fo\n      CALLDATALOAD \t\t\t Getter function for\n      SWAP1 \t\t\t\\n\\r\\n    // Getter function f...\n      POP \t\t\t\\n\\r\\n    // Getter function f...\n      PUSH [tag] 832\t\t\tns array, only callable by the...\n      DUP2 \t\t\tthe o\n      PUSH [tag] 662\t\t\tns array, only callable by the...\n      JUMP \t\t\tns array, only callable by the...\n    tag 832\t\t\tns array, only callable by the...\n      JUMPDEST \t\t\tns array, only callable by the...\n      SWAP3 \t\t\tMNoAdmin is ERC1155, Ownable {...\n      SWAP2 \t\t\tMNoAdmin is ERC1155, Ownable {...\n      POP \t\t\tMNoAdmin is ERC1155, Ownable {...\n      POP \t\t\tMNoAdmin is ERC1155, Ownable {...\n      JUMP \t\t\tMNoAdmin is ERC1155, Ownable {...\n    tag 664\t\t\tnction getAdmins() public view...\n      JUMPDEST \t\t\tnction getAdmins() public view...\n      PUSH 0\t\t\tner ret\n      DUP2 \t\t\t) {\\r\\n\n      SWAP1 \t\t\tss[] memory) {\\r\\n\n      POP \t\t\tss[] memory) {\\r\\n\n      SWAP2 \t\t\tnction getAdmins() public view...\n      SWAP1 \t\t\tnction getAdmins() public view...\n      POP \t\t\tnction getAdmins() public view...\n      JUMP \t\t\tnction getAdmins() public view...\n    tag 665\t\t\trn admins;\\r\\n    }\\r\\n\\r\\n   ...\n      JUMPDEST \t\t\trn admins;\\r\\n    }\\r\\n\\r\\n   ...\n      PUSH [tag] 835\t\t\tss is an admin.\\r\\n    fun\n      DUP2 \t\t\t   fu\n      PUSH [tag] 664\t\t\tss is an admin.\\r\\n    fun\n      JUMP \t\t\tss is an admin.\\r\\n    fun\n    tag 835\t\t\tss is an admin.\\r\\n    fun\n      JUMPDEST \t\t\tss is an admin.\\r\\n    fun\n      DUP2 \t\t\tn add\n      EQ \t\t\tf an address is an admin.\\r\\n ...\n      PUSH [tag] 836\t\t\tto check if an address is an a...\n      JUMPI \t\t\tto check if an address is an a...\n      PUSH 0\t\t\ta\n      DUP1 \t\t\ti\n      REVERT \t\t\t _isAdmin(ad\n    tag 836\t\t\tto check if an address is an a...\n      JUMPDEST \t\t\tto check if an address is an a...\n      POP \t\t\trn admins;\\r\\n    }\\r\\n\\r\\n   ...\n      JUMP \t\t\trn admins;\\r\\n    }\\r\\n\\r\\n   ...\n    tag 666\t\t\tinternal view returns (bool) {...\n      JUMPDEST \t\t\tinternal view returns (bool) {...\n      PUSH 0\t\t\tint i\n      DUP2 \t\t\t      \n      CALLDATALOAD \t\t\tgth; i++) {\\r\\n       \n      SWAP1 \t\t\tdmins.length; i++) {\\r\\n      ...\n      POP \t\t\tdmins.length; i++) {\\r\\n      ...\n      PUSH [tag] 838\t\t\tadmins[i] == _admin) {\\r\\n    ...\n      DUP2 \t\t\t     \n      PUSH [tag] 665\t\t\tadmins[i] == _admin) {\\r\\n    ...\n      JUMP \t\t\tadmins[i] == _admin) {\\r\\n    ...\n    tag 838\t\t\tadmins[i] == _admin) {\\r\\n    ...\n      JUMPDEST \t\t\tadmins[i] == _admin) {\\r\\n    ...\n      SWAP3 \t\t\tinternal view returns (bool) {...\n      SWAP2 \t\t\tinternal view returns (bool) {...\n      POP \t\t\tinternal view returns (bool) {...\n      POP \t\t\tinternal view returns (bool) {...\n      JUMP \t\t\tinternal view returns (bool) {...\n    tag 34\t\t\tn true;\\r\\n            }\\r\\n  ...\n      JUMPDEST \t\t\tn true;\\r\\n            }\\r\\n  ...\n      PUSH 0\t\t\t   // \n      DUP1 \t\t\tnction\n      PUSH 40\t\t\tn \n      DUP4 \t\t\tthe owner\n      DUP6 \t\t\tss. Onl\n      SUB \t\t\tddress. Only the owner \n      SLT \t\t\tin address. Only the owner can...\n      ISZERO \t\t\tadmin address. Only the owner ...\n      PUSH [tag] 840\t\t\tadmin address. Only the owner ...\n      JUMPI \t\t\tadmin address. Only the owner ...\n      PUSH [tag] 841\t\t\t\\r\\n    function addAdmin(addr...\n      PUSH [tag] 658\t\t\t\\r\\n    function addAdmin(addr...\n      JUMP \t\t\t\\r\\n    function addAdmin(addr...\n    tag 841\t\t\t\\r\\n    function addAdmin(addr...\n      JUMPDEST \t\t\t\\r\\n    function addAdmin(addr...\n    tag 840\t\t\tadmin address. Only the owner ...\n      JUMPDEST \t\t\tadmin address. Only the owner ...\n      PUSH 0\t\t\t \n      PUSH [tag] 842\t\t\t_admin), \"Address is already a...\n      DUP6 \t\t\t     ad\n      DUP3 \t\t\tn\");\\r\\n\n      DUP7 \t\t\tady an ad\n      ADD \t\t\talready an admin\");\\r\\n \n      PUSH [tag] 663\t\t\t_admin), \"Address is already a...\n      JUMP \t\t\t_admin), \"Address is already a...\n    tag 842\t\t\t_admin), \"Address is already a...\n      JUMPDEST \t\t\t_admin), \"Address is already a...\n      SWAP3 \t\t\t!_isAdmin(_admin), \"Address is...\n      POP \t\t\t!_isAdmin(_admin), \"Address is...\n      POP \t\t\tss(0), \"Invalid address\");\\r\\n...\n      PUSH 20\t\t\tmo\n      PUSH [tag] 843\t\t\ty the owner can remove.\\r\\n   ...\n      DUP6 \t\t\tdmin(ad\n      DUP3 \t\t\tn remo\n      DUP7 \t\t\t    funct\n      ADD \t\t\te.\\r\\n    function remov\n      PUSH [tag] 666\t\t\ty the owner can remove.\\r\\n   ...\n      JUMP \t\t\ty the owner can remove.\\r\\n   ...\n    tag 843\t\t\ty the owner can remove.\\r\\n   ...\n      JUMPDEST \t\t\ty the owner can remove.\\r\\n   ...\n      SWAP2 \t\t\tdress. Only the owner can remo...\n      POP \t\t\tdress. Only the owner can remo...\n      POP \t\t\t   }\\r\\n\\r\\n    // Function to...\n      SWAP3 \t\t\tn true;\\r\\n            }\\r\\n  ...\n      POP \t\t\tn true;\\r\\n            }\\r\\n  ...\n      SWAP3 \t\t\tn true;\\r\\n            }\\r\\n  ...\n      SWAP1 \t\t\tn true;\\r\\n            }\\r\\n  ...\n      POP \t\t\tn true;\\r\\n            }\\r\\n  ...\n      JUMP \t\t\tn true;\\r\\n            }\\r\\n  ...\n    tag 667\t\t\tyOwner {\\r\\n        uint len =...\n      JUMPDEST \t\t\tyOwner {\\r\\n        uint len =...\n      PUSH [tag] 845\t\t\t            if (admins[i\n      DUP2 \t\t\tmins[\n      PUSH [tag] 664\t\t\t            if (admins[i\n      JUMP \t\t\t            if (admins[i\n    tag 845\t\t\t            if (admins[i\n      JUMPDEST \t\t\t            if (admins[i\n      DUP3 \t\t\t) {\n      MSTORE \t\t\ten; i++) {\\r\\n            if (...\n      POP \t\t\tyOwner {\\r\\n        uint len =...\n      POP \t\t\tyOwner {\\r\\n        uint len =...\n      JUMP \t\t\tyOwner {\\r\\n        uint len =...\n    tag 37\t\t\t{\\r\\n                admins[i]...\n      JUMPDEST \t\t\t{\\r\\n                admins[i]...\n      PUSH 0\t\t\t   r\n      PUSH 20\t\t\t  \n      DUP3 \t\t\t        }\n      ADD \t\t\t }\\r\\n        }\\r\\n   \n      SWAP1 \t\t\t         }\\r\\n        }\\r\\n   \n      POP \t\t\t         }\\r\\n        }\\r\\n   \n      PUSH [tag] 847\t\t\tt(\"Admin not found\");\\r\\n    }...\n      PUSH 0\t\t\ts\n      DUP4 \t\t\tct functi\n      ADD \t\t\tstrict functions \n      DUP5 \t\t\tier to\n      PUSH [tag] 667\t\t\tt(\"Admin not found\");\\r\\n    }...\n      JUMP \t\t\tt(\"Admin not found\");\\r\\n    }...\n    tag 847\t\t\tt(\"Admin not found\");\\r\\n    }...\n      JUMPDEST \t\t\tt(\"Admin not found\");\\r\\n    }...\n      SWAP3 \t\t\t{\\r\\n                admins[i]...\n      SWAP2 \t\t\t{\\r\\n                admins[i]...\n      POP \t\t\t{\\r\\n                admins[i]...\n      POP \t\t\t{\\r\\n                admins[i]...\n      JUMP \t\t\t{\\r\\n                admins[i]...\n    tag 668\t\t\tses in the admin list.\\r\\n    ...\n      JUMPDEST \t\t\tses in the admin list.\\r\\n    ...\n      PUSH 0\t\t\t onlyAd\n      PUSH FFFFFFFF00000000000000000000000000000000000000000000000000000000\t\t\t(msg.sender), \"Caller is not a...\n      DUP3 \t\t\tisAdm\n      AND \t\t\tre(_isAdmin(msg.sender), \"Call...\n      SWAP1 \t\t\t      require(_isAdmin(msg.sen...\n      POP \t\t\t      require(_isAdmin(msg.sen...\n      SWAP2 \t\t\tses in the admin list.\\r\\n    ...\n      SWAP1 \t\t\tses in the admin list.\\r\\n    ...\n      POP \t\t\tses in the admin list.\\r\\n    ...\n      JUMP \t\t\tses in the admin list.\\r\\n    ...\n    tag 669\t\t\tableSet for EnumerableSet.Uint...\n      JUMPDEST \t\t\tableSet for EnumerableSet.Uint...\n      PUSH [tag] 850\t\t\t have ever been minted\\r\n      DUP2 \t\t\tinted\n      PUSH [tag] 668\t\t\t have ever been minted\\r\n      JUMP \t\t\t have ever been minted\\r\n    tag 850\t\t\t have ever been minted\\r\n      JUMPDEST \t\t\t have ever been minted\\r\n      DUP2 \t\t\tDs th\n      EQ \t\t\tn IDs that have ever been mint...\n      PUSH [tag] 851\t\t\tf all token IDs that have ever...\n      JUMPI \t\t\tf all token IDs that have ever...\n      PUSH 0\t\t\tS\n      DUP1 \t\t\tb\n      REVERT \t\t\tEnumerableSe\n    tag 851\t\t\tf all token IDs that have ever...\n      JUMPDEST \t\t\tf all token IDs that have ever...\n      POP \t\t\tableSet for EnumerableSet.Uint...\n      JUMP \t\t\tableSet for EnumerableSet.Uint...\n    tag 670\t\t\tate _allTokenIDs;\\r\\n\\r\\n    /...\n      JUMPDEST \t\t\tate _allTokenIDs;\\r\\n\\r\\n    /...\n      PUSH 0\t\t\tthe f\n      DUP2 \t\t\t\\r\\n    \n      CALLDATALOAD \t\t\ts ever minted\\r\\n    f\n      SWAP1 \t\t\t token IDs ever minted\\r\\n    ...\n      POP \t\t\t token IDs ever minted\\r\\n    ...\n      PUSH [tag] 853\t\t\tllTokenIDs() external view ret...\n      DUP2 \t\t\t retu\n      PUSH [tag] 669\t\t\tllTokenIDs() external view ret...\n      JUMP \t\t\tllTokenIDs() external view ret...\n    tag 853\t\t\tllTokenIDs() external view ret...\n      JUMPDEST \t\t\tllTokenIDs() external view ret...\n      SWAP3 \t\t\tate _allTokenIDs;\\r\\n\\r\\n    /...\n      SWAP2 \t\t\tate _allTokenIDs;\\r\\n\\r\\n    /...\n      POP \t\t\tate _allTokenIDs;\\r\\n\\r\\n    /...\n      POP \t\t\tate _allTokenIDs;\\r\\n\\r\\n    /...\n      JUMP \t\t\tate _allTokenIDs;\\r\\n\\r\\n    /...\n    tag 40\t\t\t] memory) {\\r\\n        return ...\n      JUMPDEST \t\t\t] memory) {\\r\\n        return ...\n      PUSH 0\t\t\t\\n\\r\\n   \n      PUSH 20\t\t\tth\n      DUP3 \t\t\ts name. B\n      DUP5 \t\t\t ID to \n      SUB \t\t\token ID to its name. Bu\n      SLT \t\t\tom token ID to its name. But t...\n      ISZERO \t\t\t from token ID to its name. Bu...\n      PUSH [tag] 855\t\t\t from token ID to its name. Bu...\n      JUMPI \t\t\t from token ID to its name. Bu...\n      PUSH [tag] 856\t\t\tken name and other attributes ...\n      PUSH [tag] 658\t\t\tken name and other attributes ...\n      JUMP \t\t\tken name and other attributes ...\n    tag 856\t\t\tken name and other attributes ...\n      JUMPDEST \t\t\tken name and other attributes ...\n    tag 855\t\t\t from token ID to its name. Bu...\n      JUMPDEST \t\t\t from token ID to its name. Bu...\n      PUSH 0\t\t\tg\n      PUSH [tag] 857\t\t\t setter address to proof_reque...\n      DUP5 \t\t\tr's rol\n      DUP3 \t\t\t to pr\n      DUP6 \t\t\t_request_\n      ADD \t\t\troof_request_id to pro\n      PUSH [tag] 670\t\t\t setter address to proof_reque...\n      JUMP \t\t\t setter address to proof_reque...\n    tag 857\t\t\t setter address to proof_reque...\n      JUMPDEST \t\t\t setter address to proof_reque...\n      SWAP2 \t\t\tto request setter address to p...\n      POP \t\t\tto request setter address to p...\n      POP \t\t\ttokenName;\\r\\n\\r\\n\\r\\n    // M...\n      SWAP3 \t\t\t] memory) {\\r\\n        return ...\n      SWAP2 \t\t\t] memory) {\\r\\n        return ...\n      POP \t\t\t] memory) {\\r\\n        return ...\n      POP \t\t\t] memory) {\\r\\n        return ...\n      JUMP \t\t\t] memory) {\\r\\n        return ...\n    tag 671\t\t\t'receiver').\\r\\n    // tokenID...\n      JUMPDEST \t\t\t'receiver').\\r\\n    // tokenID...\n      PUSH 0\t\t\ttter → \n      DUP2 \t\t\tver')\n      ISZERO \t\t\t 'receiver'))\n      ISZERO \t\t\tder' or 'receiver'))\\r\n      SWAP1 \t\t\tstID → 'sender' or 'receiver')...\n      POP \t\t\tstID → 'sender' or 'receiver')...\n      SWAP2 \t\t\t'receiver').\\r\\n    // tokenID...\n      SWAP1 \t\t\t'receiver').\\r\\n    // tokenID...\n      POP \t\t\t'receiver').\\r\\n    // tokenID...\n      JUMP \t\t\t'receiver').\\r\\n    // tokenID...\n    tag 672\t\t\t(uint256 => mapping(address =>...\n      JUMPDEST \t\t\t(uint256 => mapping(address =>...\n      PUSH [tag] 860\t\t\tSetter_proofRequest_r\n      DUP2 \t\t\tuest_\n      PUSH [tag] 671\t\t\tSetter_proofRequest_r\n      JUMP \t\t\tSetter_proofRequest_r\n    tag 860\t\t\tSetter_proofRequest_r\n      JUMPDEST \t\t\tSetter_proofRequest_r\n      DUP3 \t\t\tque\n      MSTORE \t\t\tenID_requestSetter_proofReques...\n      POP \t\t\t(uint256 => mapping(address =>...\n      POP \t\t\t(uint256 => mapping(address =>...\n      JUMP \t\t\t(uint256 => mapping(address =>...\n    tag 43\t\t\t/ Struct to represent a spendi...\n      JUMPDEST \t\t\t/ Struct to represent a spendi...\n      PUSH 0\t\t\ting \n      PUSH 20\t\t\trS\n      DUP3 \t\t\ting opera\n      ADD \t\t\t string operatorSt\n      SWAP1 \t\t\t\\n        string operatorSt\n      POP \t\t\t\\n        string operatorSt\n      PUSH [tag] 862\t\t\t  string value;\\r\\n    }\\r\\n\\r...\n      PUSH 0\t\t\ta\n      DUP4 \t\t\tID to use\n      ADD \t\t\tokenID to user ad\n      DUP5 \t\t\tng fro\n      PUSH [tag] 672\t\t\t  string value;\\r\\n    }\\r\\n\\r...\n      JUMP \t\t\t  string value;\\r\\n    }\\r\\n\\r...\n    tag 862\t\t\t  string value;\\r\\n    }\\r\\n\\r...\n      JUMPDEST \t\t\t  string value;\\r\\n    }\\r\\n\\r...\n      SWAP3 \t\t\t/ Struct to represent a spendi...\n      SWAP2 \t\t\t/ Struct to represent a spendi...\n      POP \t\t\t/ Struct to represent a spendi...\n      POP \t\t\t/ Struct to represent a spendi...\n      JUMP \t\t\t/ Struct to represent a spendi...\n    tag 46\t\t\tRequestID to spending conditio...\n      JUMPDEST \t\t\tRequestID to spending conditio...\n      PUSH 0\t\t\tnerAdd\n      PUSH 20\t\t\tn)\n      DUP3 \t\t\tdingCondi\n      DUP5 \t\t\tD => Sp\n      SUB \t\t\testID => SpendingCondit\n      SLT \t\t\tRequestID => SpendingCondition...\n      ISZERO \t\t\toofRequestID => SpendingCondit...\n      PUSH [tag] 864\t\t\toofRequestID => SpendingCondit...\n      JUMPI \t\t\toofRequestID => SpendingCondit...\n      PUSH [tag] 865\t\t\t   mapping(uint256 => mapping(...\n      PUSH [tag] 658\t\t\t   mapping(uint256 => mapping(...\n      JUMP \t\t\t   mapping(uint256 => mapping(...\n    tag 865\t\t\t   mapping(uint256 => mapping(...\n      JUMPDEST \t\t\t   mapping(uint256 => mapping(...\n    tag 864\t\t\toofRequestID => SpendingCondit...\n      JUMPDEST \t\t\toofRequestID => SpendingCondit...\n      PUSH 0\t\t\ta\n      PUSH [tag] 866\t\t\test_ids only for iteration.\\r\\...\n      DUP5 \t\t\tlic pro\n      DUP3 \t\t\tt64[] \n      DUP6 \t\t\tn.\\r\\n    u\n      ADD \t\t\tation.\\r\\n    uint64[] p\n      PUSH [tag] 666\t\t\test_ids only for iteration.\\r\\...\n      JUMP \t\t\test_ids only for iteration.\\r\\...\n    tag 866\t\t\test_ids only for iteration.\\r\\...\n      JUMPDEST \t\t\test_ids only for iteration.\\r\\...\n      SWAP2 \t\t\tproof_request_ids only for ite...\n      POP \t\t\tproof_request_ids only for ite...\n      POP \t\t\tdingConditions;\\r\\n\\r\\n    // ...\n      SWAP3 \t\t\tRequestID to spending conditio...\n      SWAP2 \t\t\tRequestID to spending conditio...\n      POP \t\t\tRequestID to spending conditio...\n      POP \t\t\tRequestID to spending conditio...\n      JUMP \t\t\tRequestID to spending conditio...\n    tag 673\t\t\t /// @notice Get all spending ...\n      JUMPDEST \t\t\t /// @notice Get all spending ...\n      PUSH 0\t\t\t token\n      DUP2 \t\t\ttSpen\n      MLOAD \t\t\tion getSpend\n      SWAP1 \t\t\t\\n    function getSpend\n      POP \t\t\t\\n    function getSpend\n      SWAP2 \t\t\t /// @notice Get all spending ...\n      SWAP1 \t\t\t /// @notice Get all spending ...\n      POP \t\t\t /// @notice Get all spending ...\n      JUMP \t\t\t /// @notice Get all spending ...\n    tag 674\t\t\t(uint256 tokenID, address user...\n      JUMPDEST \t\t\t(uint256 tokenID, address user...\n      PUSH 0\t\t\tition[] mem\n      DUP3 \t\t\t] memo\n      DUP3 \t\t\tnt6\n      MSTORE \t\t\t     uint64[] memor\n      PUSH 20\t\t\t uin\n      DUP3 \t\t\t   \n      ADD \t\t\t\\r\\n        uint\n      SWAP1 \t\t\troofRequestIDs;\\r\\n        uin...\n      POP \t\t\troofRequestIDs;\\r\\n        uin...\n      SWAP3 \t\t\t(uint256 tokenID, address user...\n      SWAP2 \t\t\t(uint256 tokenID, address user...\n      POP \t\t\t(uint256 tokenID, address user...\n      POP \t\t\t(uint256 tokenID, address user...\n      JUMP \t\t\t(uint256 tokenID, address user...\n    tag 675\t\t\t0;\\r\\n        // First, count ...\n      JUMPDEST \t\t\t0;\\r\\n        // First, count ...\n      PUSH 0\t\t\te\n    tag 870\t\t\this user\\r\\n        for (uint2...\n      JUMPDEST \t\t\this user\\r\\n        for (uint2...\n      DUP4 \t\t\t    fo\n      DUP2 \t\t\t \n      LT \t\t\t\\r\\n        for\n      ISZERO \t\t\this user\\r\\n        for (uint2...\n      PUSH [tag] 872\t\t\this user\\r\\n        for (uint2...\n      JUMPI \t\t\this user\\r\\n        for (uint2...\n      DUP1 \t\t\to\n      DUP3 \t\t\tndi\n      ADD \t\t\tngCondition\n      MLOAD \t\t\tspendingConditions\n      DUP2 \t\t\tt\n      DUP5 \t\t\tf (\n      ADD \t\t\t   if (byte\n      MSTORE \t\t\t          if (bytes(spendingCo...\n      PUSH 20\t\t\t; \n      DUP2 \t\t\t=\n      ADD \t\t\t6 i = 0; i\n      SWAP1 \t\t\tint256 i = 0; i\n      POP \t\t\tint256 i = 0; i\n      PUSH [tag] 870\t\t\this user\\r\\n        for (uint2...\n      JUMP \t\t\this user\\r\\n        for (uint2...\n    tag 872\t\t\this user\\r\\n        for (uint2...\n      JUMPDEST \t\t\this user\\r\\n        for (uint2...\n      PUSH 0\t\t\t)\n      DUP5 \t\t\tength \n      DUP5 \t\t\tte)\n      ADD \t\t\tribute).length >\n      MSTORE \t\t\ti]].attribute).length > 0) \n      POP \t\t\tiated with this tokenID for th...\n      POP \t\t\t0;\\r\\n        // First, count ...\n      POP \t\t\t0;\\r\\n        // First, count ...\n      POP \t\t\t0;\\r\\n        // First, count ...\n      JUMP \t\t\t0;\\r\\n        // First, count ...\n    tag 676\t\t\t       count++;\\r\\n           ...\n      JUMPDEST \t\t\t       count++;\\r\\n           ...\n      PUSH 0\t\t\t\\r\\n    \n      PUSH 1F\t\t\tt6\n      NOT \t\t\t uint64\n      PUSH 1F\t\t\t  \n      DUP4 \t\t\tput\\r\\n\n      ADD \t\t\t output\\r\\n     \n      AND \t\t\t for output\\r\\n        uint64[\n      SWAP1 \t\t\tare arrays for output\\r\\n     ...\n      POP \t\t\tare arrays for output\\r\\n     ...\n      SWAP2 \t\t\t       count++;\\r\\n           ...\n      SWAP1 \t\t\t       count++;\\r\\n           ...\n      POP \t\t\t       count++;\\r\\n           ...\n      JUMP \t\t\t       count++;\\r\\n           ...\n    tag 677\t\t\tteredIDs = new uint64[](count)...\n      JUMPDEST \t\t\tteredIDs = new uint64[](count)...\n      PUSH 0\t\t\tndi\n      PUSH [tag] 875\t\t\t      uint256 idx = 0;\\r\\n    ...\n      DUP3 \t\t\tor (u\n      PUSH [tag] 673\t\t\t      uint256 idx = 0;\\r\\n    ...\n      JUMP \t\t\t      uint256 idx = 0;\\r\\n    ...\n    tag 875\t\t\t      uint256 idx = 0;\\r\\n    ...\n      JUMPDEST \t\t\t      uint256 idx = 0;\\r\\n    ...\n      PUSH [tag] 876\t\t\t ids.length; i++) {\\r\\n       ...\n      DUP2 \t\t\tkenID]\n      DUP6 \t\t\tns[\n      PUSH [tag] 674\t\t\t ids.length; i++) {\\r\\n       ...\n      JUMP \t\t\t ids.length; i++) {\\r\\n       ...\n    tag 876\t\t\t ids.length; i++) {\\r\\n       ...\n      JUMPDEST \t\t\t ids.length; i++) {\\r\\n       ...\n      SWAP4 \t\t\t 0; i < ids.length; i++) {\\r\\n...\n      POP \t\t\t 0; i < ids.length; i++) {\\r\\n...\n      PUSH [tag] 877\t\t\t[i]].attribute).length > 0) {\\...\n      DUP2 \t\t\t[idx] \n      DUP6 \t\t\tedI\n      PUSH 20\t\t\t fil\n      DUP7 \t\t\t     \n      ADD \t\t\t            filt\n      PUSH [tag] 675\t\t\t[i]].attribute).length > 0) {\\...\n      JUMP \t\t\t[i]].attribute).length > 0) {\\...\n    tag 877\t\t\t[i]].attribute).length > 0) {\\...\n      JUMPDEST \t\t\t[i]].attribute).length > 0) {\\...\n      PUSH [tag] 878\t\t\t conditions[idx] = spendingCo\n      DUP2 \t\t\tndingC\n      PUSH [tag] 676\t\t\t conditions[idx] = spendingCo\n      JUMP \t\t\t conditions[idx] = spendingCo\n    tag 878\t\t\t conditions[idx] = spendingCo\n      JUMPDEST \t\t\t conditions[idx] = spendingCo\n      DUP5 \t\t\t   \n      ADD \t\t\t          conditions[idx] = sp...\n      SWAP2 \t\t\t\\n                conditions[i...\n      POP \t\t\t\\n                conditions[i...\n      POP \t\t\tgCondition[](count);\\r\\n      ...\n      SWAP3 \t\t\tteredIDs = new uint64[](count)...\n      SWAP2 \t\t\tteredIDs = new uint64[](count)...\n      POP \t\t\tteredIDs = new uint64[](count)...\n      POP \t\t\tteredIDs = new uint64[](count)...\n      JUMP \t\t\tteredIDs = new uint64[](count)...\n    tag 49\t\t\tnID][user][ids[i]];\\r\\n       ...\n      JUMPDEST \t\t\tnID][user][ids[i]];\\r\\n       ...\n      PUSH 0\t\t\t\\n   \n      PUSH 20\t\t\tst\n      DUP3 \t\t\tproof req\n      ADD \t\t\tnew proof request \n      SWAP1 \t\t\t/ Add a new proof request \n      POP \t\t\t/ Add a new proof request \n      DUP2 \t\t\t/ The arr\n      DUP2 \t\t\t\\n   \n      SUB \t\t\tss.\\r\\n    // The arra\n      PUSH 0\t\t\td\n      DUP4 \t\t\t prover's\n      ADD \t\t\tding prover's add\n      MSTORE \t\t\trresponding prover's address.\\...\n      PUSH [tag] 880\t\t\tis updated accordingly.\\r\\n   ...\n      DUP2 \t\t\tding\n      DUP5 \t\t\tcorres\n      PUSH [tag] 677\t\t\tis updated accordingly.\\r\\n   ...\n      JUMP \t\t\tis updated accordingly.\\r\\n   ...\n    tag 880\t\t\tis updated accordingly.\\r\\n   ...\n      JUMPDEST \t\t\tis updated accordingly.\\r\\n   ...\n      SWAP1 \t\t\tuestIDs is updated accordingly...\n      POP \t\t\tuestIDs is updated accordingly...\n      SWAP3 \t\t\tnID][user][ids[i]];\\r\\n       ...\n      SWAP2 \t\t\tnID][user][ids[i]];\\r\\n       ...\n      POP \t\t\tnID][user][ids[i]];\\r\\n       ...\n      POP \t\t\tnID][user][ids[i]];\\r\\n       ...\n      JUMP \t\t\tnID][user][ids[i]];\\r\\n       ...\n    tag 52\t\t\t' or 'receiver').\\r\\n    // Th...\n      JUMPDEST \t\t\t' or 'receiver').\\r\\n    // Th...\n      PUSH 0\t\t\tted ac\n      PUSH 20\t\t\tRo\n      DUP3 \t\t\tofRequest\n      DUP5 \t\t\ton addP\n      SUB \t\t\tnction addProofRequestA\n      SLT \t\t\t  function addProofRequestAndR...\n      ISZERO \t\t\t\\n    function addProofRequest...\n      PUSH [tag] 882\t\t\t\\n    function addProofRequest...\n      JUMPI \t\t\t\\n    function addProofRequest...\n      PUSH [tag] 883\t\t\tint256 tokenID, uint64 request...\n      PUSH [tag] 658\t\t\tint256 tokenID, uint64 request...\n      JUMP \t\t\tint256 tokenID, uint64 request...\n    tag 883\t\t\tint256 tokenID, uint64 request...\n      JUMPDEST \t\t\tint256 tokenID, uint64 request...\n    tag 882\t\t\t\\n    function addProofRequest...\n      JUMPDEST \t\t\t\\n    function addProofRequest...\n      PUSH 0\t\t\tn\n      PUSH [tag] 884\t\t\t       require(bytes(tokenID_r...\n      DUP5 \t\t\toofRequ\n      DUP3 \t\t\tSetter\n      DUP6 \t\t\tnID_reque\n      ADD \t\t\ttokenID_requestSetter_\n      PUSH [tag] 663\t\t\t       require(bytes(tokenID_r...\n      JUMP \t\t\t       require(bytes(tokenID_r...\n    tag 884\t\t\t       require(bytes(tokenID_r...\n      JUMPDEST \t\t\t       require(bytes(tokenID_r...\n      SWAP2 \t\t\txist\");\\r\\n        require(byt...\n      POP \t\t\txist\");\\r\\n        require(byt...\n      POP \t\t\tnIDs.contains(tokenID), \"token...\n      SWAP3 \t\t\t' or 'receiver').\\r\\n    // Th...\n      SWAP2 \t\t\t' or 'receiver').\\r\\n    // Th...\n      POP \t\t\t' or 'receiver').\\r\\n    // Th...\n      POP \t\t\t' or 'receiver').\\r\\n    // Th...\n      JUMP \t\t\t' or 'receiver').\\r\\n    // Th...\n    tag 678\t\t\tnder][requestID]).length == 0,...\n      JUMPDEST \t\t\tnder][requestID]).length == 0,...\n      PUSH 0\t\t\t0, \n      DUP2 \t\t\teady \n      SWAP1 \t\t\test already \n      POP \t\t\test already \n      SWAP2 \t\t\tnder][requestID]).length == 0,...\n      SWAP1 \t\t\tnder][requestID]).length == 0,...\n      POP \t\t\tnder][requestID]).length == 0,...\n      JUMP \t\t\tnder][requestID]).length == 0,...\n    tag 679\t\t\t       require(\\r\\n           ...\n      JUMPDEST \t\t\t       require(\\r\\n           ...\n      PUSH 0\t\t\t) == kecc\n      PUSH [tag] 887\t\t\t|\\r\\n            keccak256(byt...\n      PUSH [tag] 888\t\t\tcak256(bytes(role)) == keccak2...\n      PUSH [tag] 889\t\t\ttes(role)) == keccak256(\n      DUP5 \t\t\tak256\n      PUSH [tag] 660\t\t\ttes(role)) == keccak256(\n      JUMP \t\t\ttes(role)) == keccak256(\n    tag 889\t\t\ttes(role)) == keccak256(\n      JUMPDEST \t\t\ttes(role)) == keccak256(\n      PUSH [tag] 678\t\t\tcak256(bytes(role)) == keccak2...\n      JUMP \t\t\tcak256(bytes(role)) == keccak2...\n    tag 888\t\t\tcak256(bytes(role)) == keccak2...\n      JUMPDEST \t\t\tcak256(bytes(role)) == keccak2...\n      PUSH [tag] 660\t\t\t|\\r\\n            keccak256(byt...\n      JUMP \t\t\t|\\r\\n            keccak256(byt...\n    tag 887\t\t\t|\\r\\n            keccak256(byt...\n      JUMPDEST \t\t\t|\\r\\n            keccak256(byt...\n      SWAP1 \t\t\t(\"sender\")) ||\\r\\n            ...\n      POP \t\t\t(\"sender\")) ||\\r\\n            ...\n      SWAP2 \t\t\t       require(\\r\\n           ...\n      SWAP1 \t\t\t       require(\\r\\n           ...\n      POP \t\t\t       require(\\r\\n           ...\n      JUMP \t\t\t       require(\\r\\n           ...\n    tag 680\t\t\tr\")),\\r\\n            \"Role mus...\n      JUMPDEST \t\t\tr\")),\\r\\n            \"Role mus...\n      PUSH 0\t\t\tiver'\"\\r\\n \n      PUSH [tag] 891\t\t\tID_requestSetter_proofRequest_...\n      DUP3 \t\t\tole[t\n      PUSH [tag] 679\t\t\tID_requestSetter_proofRequest_...\n      JUMP \t\t\tID_requestSetter_proofRequest_...\n    tag 891\t\t\tID_requestSetter_proofRequest_...\n      JUMPDEST \t\t\tID_requestSetter_proofRequest_...\n      SWAP1 \t\t\t        tokenID_requestSetter_...\n      POP \t\t\t        tokenID_requestSetter_...\n      SWAP2 \t\t\tr\")),\\r\\n            \"Role mus...\n      SWAP1 \t\t\tr\")),\\r\\n            \"Role mus...\n      POP \t\t\tr\")),\\r\\n            \"Role mus...\n      JUMP \t\t\tr\")),\\r\\n            \"Role mus...\n    tag 681\t\t\tender][requestID] = role;\\r\\n ...\n      JUMPDEST \t\t\tender][requestID] = role;\\r\\n ...\n      PUSH 0\t\t\t    \\r\\n   \n      PUSH [tag] 893\t\t\tt_VerifierAndPM(\\r\\n        ui...\n      DUP3 \t\t\t4 req\n      PUSH [tag] 680\t\t\tt_VerifierAndPM(\\r\\n        ui...\n      JUMP \t\t\tt_VerifierAndPM(\\r\\n        ui...\n    tag 893\t\t\tt_VerifierAndPM(\\r\\n        ui...\n      JUMPDEST \t\t\tt_VerifierAndPM(\\r\\n        ui...\n      SWAP1 \t\t\tddProofRequest_VerifierAndPM(\\...\n      POP \t\t\tddProofRequest_VerifierAndPM(\\...\n      SWAP2 \t\t\tender][requestID] = role;\\r\\n ...\n      SWAP1 \t\t\tender][requestID] = role;\\r\\n ...\n      POP \t\t\tender][requestID] = role;\\r\\n ...\n      JUMP \t\t\tender][requestID] = role;\\r\\n ...\n    tag 682\t\t\t    string calldata metadata,\\...\n      JUMPDEST \t\t\t    string calldata metadata,\\...\n      PUSH [tag] 895\t\t\t6 tokenID,\\r\\n        string c...\n      DUP2 \t\t\tngCon\n      PUSH [tag] 681\t\t\t6 tokenID,\\r\\n        string c...\n      JUMP \t\t\t6 tokenID,\\r\\n        string c...\n    tag 895\t\t\t6 tokenID,\\r\\n        string c...\n      JUMPDEST \t\t\t6 tokenID,\\r\\n        string c...\n      DUP3 \t\t\tint\n      MSTORE \t\t\t      uint256 tokenID,\\r\\n    ...\n      POP \t\t\t    string calldata metadata,\\...\n      POP \t\t\t    string calldata metadata,\\...\n      JUMP \t\t\t    string calldata metadata,\\...\n    tag 57\t\t\ta condition\\r\\n    ) public {\\...\n      JUMPDEST \t\t\ta condition\\r\\n    ) public {\\...\n      PUSH 0\t\t\tkenI\n      PUSH 20\t\t\tsp\n      DUP3 \t\t\ter can ad\n      ADD \t\t\t owner can add spe\n      SWAP1 \t\t\tly money owner can add spe\n      POP \t\t\tly money owner can add spe\n      PUSH [tag] 897\t\t\tition.\");\\r\\n        // Build ...\n      PUSH 0\t\t\tt\n      DUP4 \t\t\tr.ZKPRequ\n      ADD \t\t\tifier.ZKPRequest \n      DUP5 \t\t\t  IZKP\n      PUSH [tag] 682\t\t\tition.\");\\r\\n        // Build ...\n      JUMP \t\t\tition.\");\\r\\n        // Build ...\n    tag 897\t\t\tition.\");\\r\\n        // Build ...\n      JUMPDEST \t\t\tition.\");\\r\\n        // Build ...\n      SWAP3 \t\t\ta condition\\r\\n    ) public {\\...\n      SWAP2 \t\t\ta condition\\r\\n    ) public {\\...\n      POP \t\t\ta condition\\r\\n    ) public {\\...\n      POP \t\t\ta condition\\r\\n    ) public {\\...\n      JUMP \t\t\ta condition\\r\\n    ) public {\\...\n    tag 683\t\t\tZKPVerifier.ZKPRequest({\\r\\n  ...\n      JUMPDEST \t\t\tZKPVerifier.ZKPRequest({\\r\\n  ...\n      PUSH 0\t\t\ta\n      DUP1 \t\t\td\n      REVERT \t\t\t       data:\n    tag 684\t\t\t   });\\r\\n\\r\\n        verifier...\n      JUMPDEST \t\t\t   });\\r\\n\\r\\n        verifier...\n      PUSH 0\t\t\t \n      DUP1 \t\t\tI\n      REVERT \t\t\trequestId, r\n    tag 685\t\t\t   // Add the spending conditi...\n      JUMPDEST \t\t\t   // Add the spending conditi...\n      PUSH 0\t\t\ti\n      DUP1 \t\t\td\n      REVERT \t\t\tdingConditio\n    tag 686\t\t\te: condition.attribute,\\r\\n   ...\n      JUMPDEST \t\t\te: condition.attribute,\\r\\n   ...\n      PUSH 0\t\t\ton.opera\n      DUP1 \t\t\trStr,\\r\n      DUP4 \t\t\t })\n      PUSH 1F\t\t\t    \n      DUP5 \t\t\t.value\n      ADD \t\t\ttion.value\\r\\n     \n      SLT \t\t\tondition.value\\r\\n        });\n      PUSH [tag] 902\t\t\t  value: condition.value\\r\\n  ...\n      JUMPI \t\t\t  value: condition.value\\r\\n  ...\n      PUSH [tag] 903\t\t\t  }\\r\\n    \\r\\n    // Delete a...\n      PUSH [tag] 683\t\t\t  }\\r\\n    \\r\\n    // Delete a...\n      JUMP \t\t\t  }\\r\\n    \\r\\n    // Delete a...\n    tag 903\t\t\t  }\\r\\n    \\r\\n    // Delete a...\n      JUMPDEST \t\t\t  }\\r\\n    \\r\\n    // Delete a...\n    tag 902\t\t\t  value: condition.value\\r\\n  ...\n      JUMPDEST \t\t\t  value: condition.value\\r\\n  ...\n      DUP3 \t\t\trdingl\n      CALLDATALOAD \t\t\t updated accordingly\n      SWAP1 \t\t\tuestIDs is updated accordingly\n      POP \t\t\tuestIDs is updated accordingly\n      PUSH FFFFFFFFFFFFFFFF\t\t\troofRequestAndRole\n      DUP2 \t\t\t delet\n      GT \t\t\tion deleteProofRequestAndRole(\n      ISZERO \t\t\tnction deleteProofRequestAndRo...\n      PUSH [tag] 904\t\t\tnction deleteProofRequestAndRo...\n      JUMPI \t\t\tnction deleteProofRequestAndRo...\n      PUSH [tag] 905\t\t\tt256 tokenID, uint64 requestID...\n      PUSH [tag] 684\t\t\tt256 tokenID, uint64 requestID...\n      JUMP \t\t\tt256 tokenID, uint64 requestID...\n    tag 905\t\t\tt256 tokenID, uint64 requestID...\n      JUMPDEST \t\t\tt256 tokenID, uint64 requestID...\n    tag 904\t\t\tnction deleteProofRequestAndRo...\n      JUMPDEST \t\t\tnction deleteProofRequestAndRo...\n      PUSH 20\t\t\t\");\\r\n      DUP4 \t\t\tot exi\n      ADD \t\t\tes not exist\");\\r\\n\n      SWAP2 \t\t\t\"token id does not exist\");\\r\\...\n      POP \t\t\t\"token id does not exist\");\\r\\...\n      DUP4 \t\t\tReq\n      PUSH 1\t\t\ter_p\n      DUP3 \t\t\tuestSe\n      MUL \t\t\t_requestSetter_pr\n      DUP4 \t\t\tes(token\n      ADD \t\t\t(bytes(tokenID_requestSetter_p...\n      GT \t\t\tire(bytes(tokenID_requestSette...\n      ISZERO \t\t\tequire(bytes(tokenID_requestSe...\n      PUSH [tag] 906\t\t\tequire(bytes(tokenID_requestSe...\n      JUMPI \t\t\tequire(bytes(tokenID_requestSe...\n      PUSH [tag] 907\t\t\t_role[tokenID][msg.sender][req...\n      PUSH [tag] 685\t\t\t_role[tokenID][msg.sender][req...\n      JUMP \t\t\t_role[tokenID][msg.sender][req...\n    tag 907\t\t\t_role[tokenID][msg.sender][req...\n      JUMPDEST \t\t\t_role[tokenID][msg.sender][req...\n    tag 906\t\t\tequire(bytes(tokenID_requestSe...\n      JUMPDEST \t\t\tequire(bytes(tokenID_requestSe...\n      SWAP3 \t\t\te: condition.attribute,\\r\\n   ...\n      POP \t\t\te: condition.attribute,\\r\\n   ...\n      SWAP3 \t\t\te: condition.attribute,\\r\\n   ...\n      SWAP1 \t\t\te: condition.attribute,\\r\\n   ...\n      POP \t\t\te: condition.attribute,\\r\\n   ...\n      JUMP \t\t\te: condition.attribute,\\r\\n   ...\n    tag 687\t\t\te if the spending condition ex...\n      JUMPDEST \t\t\te if the spending condition ex...\n      PUSH 0\t\t\trequire(\n      DUP1 \t\t\ttes(sp\n      DUP4 \t\t\ttID\n      PUSH 1F\t\t\t[req\n      DUP5 \t\t\t.sende\n      ADD \t\t\t[msg.sender][requ\n      SLT \t\t\tnID][msg.sender][requestID]\n      PUSH [tag] 909\t\t\ttions[tokenID][msg.sender][req...\n      JUMPI \t\t\ttions[tokenID][msg.sender][req...\n      PUSH [tag] 910\t\t\tribute).length != 0, \"No spend...\n      PUSH [tag] 683\t\t\tribute).length != 0, \"No spend...\n      JUMP \t\t\tribute).length != 0, \"No spend...\n    tag 910\t\t\tribute).length != 0, \"No spend...\n      JUMPDEST \t\t\tribute).length != 0, \"No spend...\n    tag 909\t\t\ttions[tokenID][msg.sender][req...\n      JUMPDEST \t\t\ttions[tokenID][msg.sender][req...\n      DUP3 \t\t\ttokenI\n      CALLDATALOAD \t\t\tRequest_role[tokenID\n      SWAP1 \t\t\ttter_proofRequest_role[tokenID\n      POP \t\t\ttter_proofRequest_role[tokenID\n      PUSH FFFFFFFFFFFFFFFF\t\t\t];\\r\\n        delete\n      DUP2 \t\t\tequest\n      GT \t\t\t][requestID];\\r\\n        delet...\n      ISZERO \t\t\tder][requestID];\\r\\n        de...\n      PUSH [tag] 911\t\t\tder][requestID];\\r\\n        de...\n      JUMPI \t\t\tder][requestID];\\r\\n        de...\n      PUSH [tag] 912\t\t\tndingConditions[tokenID][msg.s...\n      PUSH [tag] 684\t\t\tndingConditions[tokenID][msg.s...\n      JUMP \t\t\tndingConditions[tokenID][msg.s...\n    tag 912\t\t\tndingConditions[tokenID][msg.s...\n      JUMPDEST \t\t\tndingConditions[tokenID][msg.s...\n    tag 911\t\t\tder][requestID];\\r\\n        de...\n      JUMPDEST \t\t\tder][requestID];\\r\\n        de...\n      PUSH 20\t\t\t    \n      DUP4 \t\t\tque)\\r\\n\n      ADD \t\t\tchnique)\\r\\n       \n      SWAP2 \t\t\tp-and-pop technique)\\r\\n      ...\n      POP \t\t\tp-and-pop technique)\\r\\n      ...\n      DUP4 \t\t\ti++\n      PUSH 1\t\t\tleng\n      DUP3 \t\t\tuestID\n      MUL \t\t\tfRequestIDs.lengt\n      DUP4 \t\t\t; i < pr\n      ADD \t\t\t = 0; i < proofRequestIDs.leng...\n      GT \t\t\t6 i = 0; i < proofRequestIDs.l...\n      ISZERO \t\t\tt256 i = 0; i < proofRequestID...\n      PUSH [tag] 913\t\t\tt256 i = 0; i < proofRequestID...\n      JUMPI \t\t\tt256 i = 0; i < proofRequestID...\n      PUSH [tag] 914\t\t\t\\n            if (proofRequest...\n      PUSH [tag] 685\t\t\t\\n            if (proofRequest...\n      JUMP \t\t\t\\n            if (proofRequest...\n    tag 914\t\t\t\\n            if (proofRequest...\n      JUMPDEST \t\t\t\\n            if (proofRequest...\n    tag 913\t\t\tt256 i = 0; i < proofRequestID...\n      JUMPDEST \t\t\tt256 i = 0; i < proofRequestID...\n      SWAP3 \t\t\te if the spending condition ex...\n      POP \t\t\te if the spending condition ex...\n      SWAP3 \t\t\te if the spending condition ex...\n      SWAP1 \t\t\te if the spending condition ex...\n      POP \t\t\te if the spending condition ex...\n      JUMP \t\t\te if the spending condition ex...\n    tag 60\t\t\tofRequestIDs[proofRequestIDs.l...\n      JUMPDEST \t\t\tofRequestIDs[proofRequestIDs.l...\n      PUSH 0\t\t\t      \n      DUP1 \t\t\t  }\\r\\n \n      PUSH 0\t\t\t     }\n      DUP1 \t\t\t    }\\r\n      PUSH 0\t\t\t\\n    U\n      DUP1 \t\t\tversal\n      PUSH 80\t\t\tr(U\n      DUP8 \t\t\t  constru\n      DUP10 \t\t\ter;\\r\\n\\r\\n\n      SUB \t\t\trifier;\\r\\n\\r\\n    construc\n      SLT \t\t\tc verifier;\\r\\n\\r\\n    constru...\n      ISZERO \t\t\tblic verifier;\\r\\n\\r\\n    cons...\n      PUSH [tag] 916\t\t\tblic verifier;\\r\\n\\r\\n    cons...\n      JUMPI \t\t\tblic verifier;\\r\\n\\r\\n    cons...\n      PUSH [tag] 917\t\t\trsalVerifier verifier_, addres...\n      PUSH [tag] 658\t\t\trsalVerifier verifier_, addres...\n      JUMP \t\t\trsalVerifier verifier_, addres...\n    tag 917\t\t\trsalVerifier verifier_, addres...\n      JUMPDEST \t\t\trsalVerifier verifier_, addres...\n    tag 916\t\t\tblic verifier;\\r\\n\\r\\n    cons...\n      JUMPDEST \t\t\tblic verifier;\\r\\n\\r\\n    cons...\n      PUSH 0\t\t\t \n      PUSH [tag] 918\t\t\ter_;\\r\\n    }\\r\\n\\r\\n    // Cu...\n      DUP10 \t\t\tn (chec\n      DUP3 \t\t\teclara\n      DUP11 \t\t\ttom error\n      ADD \t\t\t Custom error declarat\n      PUSH [tag] 663\t\t\ter_;\\r\\n    }\\r\\n\\r\\n    // Cu...\n      JUMP \t\t\ter_;\\r\\n    }\\r\\n\\r\\n    // Cu...\n    tag 918\t\t\ter_;\\r\\n    }\\r\\n\\r\\n    // Cu...\n      JUMPDEST \t\t\ter_;\\r\\n    }\\r\\n\\r\\n    // Cu...\n      SWAP7 \t\t\tr = verifier_;\\r\\n    }\\r\\n\\r\\...\n      POP \t\t\tr = verifier_;\\r\\n    }\\r\\n\\r\\...\n      POP \t\t\twnable(initialOwner)\\r\\n    {\\...\n      PUSH 20\t\t\tn)\n      PUSH [tag] 919\t\t\t(uint256 tokenID);\\r\\n\\r\\n    ...\n      DUP10 \t\t\tenIDNot\n      DUP3 \t\t\t with \n      DUP11 \t\t\t // Rever\n      ADD \t\t\t\\n    // Reverts with T\n      PUSH [tag] 666\t\t\t(uint256 tokenID);\\r\\n\\r\\n    ...\n      JUMP \t\t\t(uint256 tokenID);\\r\\n\\r\\n    ...\n    tag 919\t\t\t(uint256 tokenID);\\r\\n\\r\\n    ...\n      JUMPDEST \t\t\t(uint256 tokenID);\\r\\n\\r\\n    ...\n      SWAP6 \t\t\tkenIDTaken(uint256 tokenID);\\r...\n      POP \t\t\tkenIDTaken(uint256 tokenID);\\r...\n      POP \t\t\t taken, when minting new token...\n      PUSH 40\t\t\t t\n      DUP8 \t\t\tund(uint2\n      ADD \t\t\totFound(uint256 to\n      CALLDATALOAD \t\t\trror TokenIDNotFound(uint256 t...\n      PUSH FFFFFFFFFFFFFFFF\t\t\tint a token by nam\n      DUP2 \t\t\tnotice\n      GT \t\t\t/ @notice Mint a token by name\n      ISZERO \t\t\t /// @notice Mint a token by n...\n      PUSH [tag] 920\t\t\t /// @notice Mint a token by n...\n      JUMPI \t\t\t /// @notice Mint a token by n...\n      PUSH [tag] 921\t\t\tf the name exists, mint the ex...\n      PUSH [tag] 659\t\t\tf the name exists, mint the ex...\n      JUMP \t\t\tf the name exists, mint the ex...\n    tag 921\t\t\tf the name exists, mint the ex...\n      JUMPDEST \t\t\tf the name exists, mint the ex...\n    tag 920\t\t\t /// @notice Mint a token by n...\n      JUMPDEST \t\t\t /// @notice Mint a token by n...\n      PUSH [tag] 922\t\t\tunused ID and assign the name....\n      DUP10 \t\t\tthis fu\n      DUP3 \t\t\tcan ca\n      DUP11 \t\t\t/// Anyon\n      ADD \t\t\t    /// Anyone can cal\n      PUSH [tag] 686\t\t\tunused ID and assign the name....\n      JUMP \t\t\tunused ID and assign the name....\n    tag 922\t\t\tunused ID and assign the name....\n      JUMPDEST \t\t\tunused ID and assign the name....\n      SWAP5 \t\t\tken with a random unused ID an...\n      POP \t\t\tken with a random unused ID an...\n      SWAP5 \t\t\tken with a random unused ID an...\n      POP \t\t\tken with a random unused ID an...\n      POP \t\t\tt been registered yet.\\r\\n    ...\n      PUSH 60\t\t\tct\n      DUP8 \t\t\tn, this f\n      ADD \t\t\tction, this functi\n      CALLDATALOAD \t\t\t /// In production, this funct...\n      PUSH FFFFFFFFFFFFFFFF\t\t\the owner or a spec\n      DUP2 \t\t\tted to\n      GT \t\t\tricted to the owner or a speci\n      ISZERO \t\t\testricted to the owner or a sp...\n      PUSH [tag] 923\t\t\testricted to the owner or a sp...\n      JUMPI \t\t\testricted to the owner or a sp...\n      PUSH [tag] 924\t\t\t role.\\r\\n    /// @dev The fun...\n      PUSH [tag] 659\t\t\t role.\\r\\n    /// @dev The fun...\n      JUMP \t\t\t role.\\r\\n    /// @dev The fun...\n    tag 924\t\t\t role.\\r\\n    /// @dev The fun...\n      JUMPDEST \t\t\t role.\\r\\n    /// @dev The fun...\n    tag 923\t\t\testricted to the owner or a sp...\n      JUMPDEST \t\t\testricted to the owner or a sp...\n      PUSH [tag] 925\t\t\tintToken(address to, uint256 a...\n      DUP10 \t\t\t string\n      DUP3 \t\t\tata da\n      DUP11 \t\t\tbytes cal\n      ADD \t\t\tnt, bytes calldata dat\n      PUSH [tag] 687\t\t\tintToken(address to, uint256 a...\n      JUMP \t\t\tintToken(address to, uint256 a...\n    tag 925\t\t\tintToken(address to, uint256 a...\n      JUMPDEST \t\t\tintToken(address to, uint256 a...\n      SWAP3 \t\t\ty.\\r\\n    function mintToken(a...\n      POP \t\t\ty.\\r\\n    function mintToken(a...\n      SWAP3 \t\t\ty.\\r\\n    function mintToken(a...\n      POP \t\t\ty.\\r\\n    function mintToken(a...\n      POP \t\t\tn, for testing purposes.\\r\\n  ...\n      SWAP3 \t\t\tofRequestIDs[proofRequestIDs.l...\n      SWAP6 \t\t\tofRequestIDs[proofRequestIDs.l...\n      POP \t\t\tofRequestIDs[proofRequestIDs.l...\n      SWAP3 \t\t\tofRequestIDs[proofRequestIDs.l...\n      SWAP6 \t\t\tofRequestIDs[proofRequestIDs.l...\n      POP \t\t\tofRequestIDs[proofRequestIDs.l...\n      SWAP3 \t\t\tofRequestIDs[proofRequestIDs.l...\n      SWAP6 \t\t\tofRequestIDs[proofRequestIDs.l...\n      JUMP \t\t\tofRequestIDs[proofRequestIDs.l...\n    tag 259\t\t\t {\\r\\n        require(bytes(na...\n      JUMPDEST \t\t\t {\\r\\n        require(bytes(na...\n      PUSH 4E487B7100000000000000000000000000000000000000000000000000000000\t\t\te required\");\\r\\n        uint2...\n      PUSH 0\t\t\tN\n      MSTORE \t\t\t > 0, \"Name required\");\\r\\n   ...\n      PUSH 41\t\t\ty id\n      PUSH 4\t\t\tm\n      MSTORE \t\t\t56[] memory ids\n      PUSH 24\t\t\tues(\n      PUSH 0\t\t\tv\n      REVERT \t\t\tkenIDs.values()\n    tag 688\t\t\tor (uint256 i = 0; i < ids.len...\n      JUMPDEST \t\t\tor (uint256 i = 0; i < ids.len...\n      PUSH [tag] 928\t\t\te[ids[i]])) == keccak256(by\n      DUP3 \t\t\t56(b\n      PUSH [tag] 676\t\t\te[ids[i]])) == keccak256(by\n      JUMP \t\t\te[ids[i]])) == keccak256(by\n    tag 928\t\t\te[ids[i]])) == keccak256(by\n      JUMPDEST \t\t\te[ids[i]])) == keccak256(by\n      DUP2 \t\t\ttokenN\n      ADD \t\t\ttes(tokenName[ids[i]])) == kec...\n      DUP2 \t\t\t\\r\\n    \n      DUP2 \t\t\t      brea\n      LT \t\t\t         break;\\r\\n     \n      PUSH FFFFFFFFFFFFFFFF\t\t\tound = true;\\r\\n    \n      DUP3 \t\t\t          \n      GT \t\t\t              found = true;\\r\\...\n      OR \t\t\t\\n                found = true...\n      ISZERO \t\t\t];\\r\\n                found = ...\n      PUSH [tag] 929\t\t\t];\\r\\n                found = ...\n      JUMPI \t\t\t];\\r\\n                found = ...\n      PUSH [tag] 930\t\t\t   }\\r\\n        }\\r\\n \n      PUSH [tag] 259\t\t\t   }\\r\\n        }\\r\\n \n      JUMP \t\t\t   }\\r\\n        }\\r\\n \n    tag 930\t\t\t   }\\r\\n        }\\r\\n \n      JUMPDEST \t\t\t   }\\r\\n        }\\r\\n \n    tag 929\t\t\t];\\r\\n                found = ...\n      JUMPDEST \t\t\t];\\r\\n                found = ...\n      DUP1 \t\t\t          \n      PUSH 40\t\t\t{\\r\n      MSTORE \t\t\tfound) {\\r\\n            \n      POP \t\t\t            if (keccak256(byte...\n      POP \t\t\tor (uint256 i = 0; i < ids.len...\n      POP \t\t\tor (uint256 i = 0; i < ids.len...\n      JUMP \t\t\tor (uint256 i = 0; i < ids.len...\n    tag 689\t\t\tkenID, amount, data);\\r\\n     ...\n      JUMPDEST \t\t\tkenID, amount, data);\\r\\n     ...\n      PUSH 0\t\t\tlse {\\r\n      PUSH [tag] 932\t\t\tate a random 4-5 dig\n      PUSH [tag] 657\t\t\tate a random 4-5 dig\n      JUMP \t\t\tate a random 4-5 dig\n    tag 932\t\t\tate a random 4-5 dig\n      JUMPDEST \t\t\tate a random 4-5 dig\n      SWAP1 \t\t\t  // Generate a random 4-5 dig\n      POP \t\t\t  // Generate a random 4-5 dig\n      PUSH [tag] 933\t\t\t00–99999)\\r\\n            uint2...\n      DUP3 \t\t\t56 n\n      DUP3 \t\t\t   uin\n      PUSH [tag] 688\t\t\t00–99999)\\r\\n            uint2...\n      JUMP \t\t\t00–99999)\\r\\n            uint2...\n    tag 933\t\t\t00–99999)\\r\\n            uint2...\n      JUMPDEST \t\t\t00–99999)\\r\\n            uint2...\n      SWAP2 \t\t\tkenID, amount, data);\\r\\n     ...\n      SWAP1 \t\t\tkenID, amount, data);\\r\\n     ...\n      POP \t\t\tkenID, amount, data);\\r\\n     ...\n      JUMP \t\t\tkenID, amount, data);\\r\\n     ...\n    tag 690\t\t\t      uint256 attempts = 0;\\r\\...\n      JUMPDEST \t\t\t      uint256 attempts = 0;\\r\\...\n      PUSH 0\t\t\t (ui\n      PUSH FFFFFFFFFFFFFFFF\t\t\t))) % 90000);\\r\\n   \n      DUP3 \t\t\tattemp\n      GT \t\t\te, attempts))) % 90000);\\r\\n  ...\n      ISZERO \t\t\tname, attempts))) % 90000);\\r\\...\n      PUSH [tag] 935\t\t\tname, attempts))) % 90000);\\r\\...\n      JUMPI \t\t\tname, attempts))) % 90000);\\r\\...\n      PUSH [tag] 936\t\t\t         attempts+\n      PUSH [tag] 259\t\t\t         attempts+\n      JUMP \t\t\t         attempts+\n    tag 936\t\t\t         attempts+\n      JUMPDEST \t\t\t         attempts+\n    tag 935\t\t\tname, attempts))) % 90000);\\r\\...\n      JUMPDEST \t\t\tname, attempts))) % 90000);\\r\\...\n      PUSH 20\t\t\tmpts\n      DUP3 \t\t\tire(at\n      MUL \t\t\trequire(attempts \n      SWAP1 \t\t\t        require(attempts \n      POP \t\t\t        require(attempts \n      PUSH 20\t\t\t    \n      DUP2 \t\t\t    \n      ADD \t\t\t);\\r\\n           \n      SWAP1 \t\t\token ID\");\\r\\n           \n      POP \t\t\token ID\");\\r\\n           \n      SWAP2 \t\t\t      uint256 attempts = 0;\\r\\...\n      SWAP1 \t\t\t      uint256 attempts = 0;\\r\\...\n      POP \t\t\t      uint256 attempts = 0;\\r\\...\n      JUMP \t\t\t      uint256 attempts = 0;\\r\\...\n    tag 691\t\t\ts(newID));\\r\\n            requ...\n      JUMPDEST \t\t\ts(newID));\\r\\n            requ...\n      PUSH 0\t\t\t newI\n      PUSH [tag] 938\t\t\t           tokenName[newID] = ...\n      PUSH [tag] 939\t\t\tName[newID] = name;\\r\\n       ...\n      DUP5 \t\t\tn(addr\n      PUSH [tag] 690\t\t\tName[newID] = name;\\r\\n       ...\n      JUMP \t\t\tName[newID] = name;\\r\\n       ...\n    tag 939\t\t\tName[newID] = name;\\r\\n       ...\n      JUMPDEST \t\t\tName[newID] = name;\\r\\n       ...\n      PUSH [tag] 689\t\t\t           tokenName[newID] = ...\n      JUMP \t\t\t           tokenName[newID] = ...\n    tag 938\t\t\t           tokenName[newID] = ...\n      JUMPDEST \t\t\t           tokenName[newID] = ...\n      SWAP1 \t\t\tdata);\\r\\n            tokenNam...\n      POP \t\t\tdata);\\r\\n            tokenNam...\n      DUP1 \t\t\tD, ui\n      DUP4 \t\t\tnlyOwn\n      DUP3 \t\t\ternal\n      MSTORE \t\t\tnt) external onlyOwne\n      PUSH 20\t\t\t ID,\n      DUP3 \t\t\tccoun\n      ADD \t\t\trn(account, ID, \n      SWAP1 \t\t\t    _burn(account, ID, \n      POP \t\t\t    _burn(account, ID, \n      PUSH 20\t\t\ton\\r\\n\n      DUP5 \t\t\teclara\n      MUL \t\t\tor declaration\\r\\n \n      DUP4 \t\t\tstom e\n      ADD \t\t\t/ Custom error declaration\\r\\n...\n      DUP6 \t\t\td(u\n      DUP2 \t\t\ttVerif\n      GT \t\t\tfNotVerified(ui\n      ISZERO \t\t\troofNotVerified(uint64 request...\n      PUSH [tag] 940\t\t\troofNotVerified(uint64 request...\n      JUMPI \t\t\troofNotVerified(uint64 request...\n      PUSH [tag] 941\t\t\t address proverAddress);\\r\\n\\r...\n      PUSH [tag] 685\t\t\t address proverAddress);\\r\\n\\r...\n      JUMP \t\t\t address proverAddress);\\r\\n\\r...\n    tag 941\t\t\t address proverAddress);\\r\\n\\r...\n      JUMPDEST \t\t\t address proverAddress);\\r\\n\\r...\n    tag 940\t\t\troofNotVerified(uint64 request...\n      JUMPDEST \t\t\troofNotVerified(uint64 request...\n      DUP4 \t\t\t// Use\n    tag 942\t\t\tunverified.\\r\\n    // Use this...\n      JUMPDEST \t\t\tunverified.\\r\\n    // Use this...\n      DUP2 \t\t\te toke\n      DUP2 \t\t\tbef\n      LT \t\t\tis before token\n      ISZERO \t\t\tunverified.\\r\\n    // Use this...\n      PUSH [tag] 944\t\t\tunverified.\\r\\n    // Use this...\n      JUMPI \t\t\tunverified.\\r\\n    // Use this...\n      DUP1 \t\t\t by\n      PUSH [tag] 945\t\t\tunction _checkAllProofsVerifie...\n      DUP9 \t\t\tint\n      DUP3 \t\t\tfsVerified\n      PUSH [tag] 666\t\t\tunction _checkAllProofsVerifie...\n      JUMP \t\t\tunction _checkAllProofsVerifie...\n    tag 945\t\t\tunction _checkAllProofsVerifie...\n      JUMPDEST \t\t\tunction _checkAllProofsVerifie...\n      DUP5 \t\t\t   \n      MSTORE \t\t\trole.\\r\\n    function _checkAl...\n      PUSH 20\t\t\tdres\n      DUP5 \t\t\tr, \n      ADD \t\t\tender, address\n      SWAP4 \t\t\tdress sender, address\n      POP \t\t\tdress sender, address\n      POP \t\t\tand receiver's proofs as requi...\n      PUSH 20\t\t\tChec\n      DUP2 \t\t\t  /\n      ADD \t\t\t\\r\\n    // Check\n      SWAP1 \t\t\tansfer.\\r\\n    // Check\n      POP \t\t\tansfer.\\r\\n    // Check\n      PUSH [tag] 942\t\t\tunverified.\\r\\n    // Use this...\n      JUMP \t\t\tunverified.\\r\\n    // Use this...\n    tag 944\t\t\tunverified.\\r\\n    // Use this...\n      JUMPDEST \t\t\tunverified.\\r\\n    // Use this...\n      POP \t\t\trified.\\r\\n    // Use t\n      POP \t\t\t, amount, data);\\r\\n          ...\n      POP \t\t\t, amount, data);\\r\\n          ...\n      SWAP4 \t\t\ts(newID));\\r\\n            requ...\n      SWAP3 \t\t\ts(newID));\\r\\n            requ...\n      POP \t\t\ts(newID));\\r\\n            requ...\n      POP \t\t\ts(newID));\\r\\n            requ...\n      POP \t\t\ts(newID));\\r\\n            requ...\n      JUMP \t\t\ts(newID));\\r\\n            requ...\n    tag 692\t\t\tt64[] memory tempRequestIDs = ...\n      JUMPDEST \t\t\tt64[] memory tempRequestIDs = ...\n      PUSH 0\t\t\t= 0; \n      DUP3 \t\t\t   \n      PUSH 1F\t\t\t    \n      DUP4 \t\t\t+) {\\r\\n\n      ADD \t\t\t; i++) {\\r\\n       \n      SLT \t\t\tngth; i++) {\\r\\n            s\n      PUSH [tag] 947\t\t\tuestIDs.length; i++) {\\r\\n    ...\n      JUMPI \t\t\tuestIDs.length; i++) {\\r\\n    ...\n      PUSH [tag] 948\t\t\tg memory role = tokenID_reques...\n      PUSH [tag] 683\t\t\tg memory role = tokenID_reques...\n      JUMP \t\t\tg memory role = tokenID_reques...\n    tag 948\t\t\tg memory role = tokenID_reques...\n      JUMPDEST \t\t\tg memory role = tokenID_reques...\n    tag 947\t\t\tuestIDs.length; i++) {\\r\\n    ...\n      JUMPDEST \t\t\tuestIDs.length; i++) {\\r\\n    ...\n      DUP2 \t\t\tole).l\n      CALLDATALOAD \t\t\t  if (bytes(role).le\n      PUSH [tag] 949\t\t\te;\\r\\n            if (keccak25...\n      DUP5 \t\t\t   \n      DUP3 \t\t\t      \n      PUSH 20\t\t\t\\r\\n  \n      DUP7 \t\t\ter\")))\n      ADD \t\t\tsender\"))) {\\r\\n   \n      PUSH [tag] 691\t\t\te;\\r\\n            if (keccak25...\n      JUMP \t\t\te;\\r\\n            if (keccak25...\n    tag 949\t\t\te;\\r\\n            if (keccak25...\n      JUMPDEST \t\t\te;\\r\\n            if (keccak25...\n      SWAP2 \t\t\t) continue;\\r\\n            if ...\n      POP \t\t\t) continue;\\r\\n            if ...\n      POP \t\t\t < tempRequestIDs.length; i++)...\n      SWAP3 \t\t\tt64[] memory tempRequestIDs = ...\n      SWAP2 \t\t\tt64[] memory tempRequestIDs = ...\n      POP \t\t\tt64[] memory tempRequestIDs = ...\n      POP \t\t\tt64[] memory tempRequestIDs = ...\n      JUMP \t\t\tt64[] memory tempRequestIDs = ...\n    tag 693\t\t\t.getProofStatus(sender, tempRe...\n      JUMPDEST \t\t\t.getProofStatus(sender, tempRe...\n      PUSH 0\t\t\tu\n      DUP1 \t\t\tR\n      REVERT \t\t\ted(tempReque\n    tag 694\t\t\tnder);\\r\\n                }\\r\\...\n      JUMPDEST \t\t\tnder);\\r\\n                }\\r\\...\n      PUSH 0\t\t\tytes\n      PUSH FFFFFFFFFFFFFFFF\t\t\tus(receiver, tempR\n      DUP3 \t\t\troofSt\n      GT \t\t\tetProofStatus(receiver, tempRe\n      ISZERO \t\t\tr.getProofStatus(receiver, tem...\n      PUSH [tag] 952\t\t\tr.getProofStatus(receiver, tem...\n      JUMPI \t\t\tr.getProofStatus(receiver, tem...\n      PUSH [tag] 953\t\t\tstIDs[i]).isVerifi\n      PUSH [tag] 259\t\t\tstIDs[i]).isVerifi\n      JUMP \t\t\tstIDs[i]).isVerifi\n    tag 953\t\t\tstIDs[i]).isVerifi\n      JUMPDEST \t\t\tstIDs[i]).isVerifi\n    tag 952\t\t\tr.getProofStatus(receiver, tem...\n      JUMPDEST \t\t\tr.getProofStatus(receiver, tem...\n      PUSH [tag] 954\t\t\t       revert ProofNotVerifie\n      DUP3 \t\t\tVerifi\n      PUSH [tag] 676\t\t\t       revert ProofNotVerifie\n      JUMP \t\t\t       revert ProofNotVerifie\n    tag 954\t\t\t       revert ProofNotVerifie\n      JUMPDEST \t\t\t       revert ProofNotVerifie\n      SWAP1 \t\t\t               revert ProofNot...\n      POP \t\t\t               revert ProofNot...\n      PUSH 20\t\t\t    \n      DUP2 \t\t\t}\\r\\n \n      ADD \t\t\t    }\\r\\n        \n      SWAP1 \t\t\t            }\\r\\n        \n      POP \t\t\t            }\\r\\n        \n      SWAP2 \t\t\tnder);\\r\\n                }\\r\\...\n      SWAP1 \t\t\tnder);\\r\\n                }\\r\\...\n      POP \t\t\tnder);\\r\\n                }\\r\\...\n      JUMP \t\t\tnder);\\r\\n                }\\r\\...\n    tag 695\t\t\t  }\\r\\n    }\\r\\n\\r\\n    // Ove...\n      JUMPDEST \t\t\t  }\\r\\n    }\\r\\n\\r\\n    // Ove...\n      DUP3 \t\t\ttion s\n      DUP2 \t\t\t fu\n      DUP4 \t\t\t\\r\\n \n      CALLDATACOPY \t\t\toofs modifier\\r\\n    function ...\n      PUSH 0\t\t\tr\n      DUP4 \t\t\taddres\n      DUP4 \t\t\t   \n      ADD \t\t\t\\n        address\n      MSTORE \t\t\trFrom(\\r\\n        address fro\n      POP \t\t\t  }\\r\\n    }\\r\\n\\r\\n    // Ove...\n      POP \t\t\t  }\\r\\n    }\\r\\n\\r\\n    // Ove...\n      POP \t\t\t  }\\r\\n    }\\r\\n\\r\\n    // Ove...\n      JUMP \t\t\t  }\\r\\n    }\\r\\n\\r\\n    // Ove...\n    tag 696\t\t\taddress to,\\r\\n        uint256...\n      JUMPDEST \t\t\taddress to,\\r\\n        uint256...\n      PUSH 0\t\t\t memo\n      PUSH [tag] 957\t\t\tc virtual override {\\r\\n      ...\n      PUSH [tag] 958\t\t\tde {\\r\\n        // Enforce per...\n      DUP5 \t\t\tchecks\n      PUSH [tag] 694\t\t\tde {\\r\\n        // Enforce per...\n      JUMP \t\t\tde {\\r\\n        // Enforce per...\n    tag 958\t\t\tde {\\r\\n        // Enforce per...\n      JUMPDEST \t\t\tde {\\r\\n        // Enforce per...\n      PUSH [tag] 689\t\t\tc virtual override {\\r\\n      ...\n      JUMP \t\t\tc virtual override {\\r\\n      ...\n    tag 957\t\t\tc virtual override {\\r\\n      ...\n      JUMPDEST \t\t\tc virtual override {\\r\\n      ...\n      SWAP1 \t\t\t  ) public virtual override {\\...\n      POP \t\t\t  ) public virtual override {\\...\n      DUP3 \t\t\tVerifi\n      DUP2 \t\t\tlProo\n      MSTORE \t\t\tcheckAllProofsVerifie\n      PUSH 20\t\t\t  //\n      DUP2 \t\t\t\\n    \n      ADD \t\t\t;\\r\\n\\r\\n        // \n      DUP5 \t\t\ttom\n      DUP5 \t\t\tional \n      DUP5 \t\t\tadd\n      ADD \t\t\tany additional c\n      GT \t\t\tdd any additional custom \n      ISZERO \t\t\ty add any additional custom lo...\n      PUSH [tag] 959\t\t\ty add any additional custom lo...\n      JUMPI \t\t\ty add any additional custom lo...\n      PUSH [tag] 960\t\t\tic here\\r\\n        super.safeT...\n      PUSH [tag] 693\t\t\tic here\\r\\n        super.safeT...\n      JUMP \t\t\tic here\\r\\n        super.safeT...\n    tag 960\t\t\tic here\\r\\n        super.safeT...\n      JUMPDEST \t\t\tic here\\r\\n        super.safeT...\n    tag 959\t\t\ty add any additional custom lo...\n      JUMPDEST \t\t\ty add any additional custom lo...\n      PUSH [tag] 961\t\t\tnction safeBatchTransferFrom(\\...\n      DUP5 \t\t\tfrom,\\r\n      DUP3 \t\t\tres\n      DUP6 \t\t\t  a\n      PUSH [tag] 695\t\t\tnction safeBatchTransferFrom(\\...\n      JUMP \t\t\tnction safeBatchTransferFrom(\\...\n    tag 961\t\t\tnction safeBatchTransferFrom(\\...\n      JUMPDEST \t\t\tnction safeBatchTransferFrom(\\...\n      POP \t\t\ty data\\r\\n    ) public virtual...\n      SWAP4 \t\t\taddress to,\\r\\n        uint256...\n      SWAP3 \t\t\taddress to,\\r\\n        uint256...\n      POP \t\t\taddress to,\\r\\n        uint256...\n      POP \t\t\taddress to,\\r\\n        uint256...\n      POP \t\t\taddress to,\\r\\n        uint256...\n      JUMP \t\t\taddress to,\\r\\n        uint256...\n    tag 697\t\t\t    uint256[] memory tokenIDs,...\n      JUMPDEST \t\t\t    uint256[] memory tokenIDs,...\n      PUSH 0\t\t\ty amo\n      DUP3 \t\t\tic \n      PUSH 1F\t\t\t ) p\n      DUP4 \t\t\tata\\r\\n \n      ADD \t\t\try data\\r\\n    ) pu\n      SLT \t\t\tmemory data\\r\\n    ) public v\n      PUSH [tag] 963\t\t\t    bytes memory data\\r\\n    )...\n      JUMPI \t\t\t    bytes memory data\\r\\n    )...\n      PUSH [tag] 964\t\t\tal override {\\r\\n        requi...\n      PUSH [tag] 683\t\t\tal override {\\r\\n        requi...\n      JUMP \t\t\tal override {\\r\\n        requi...\n    tag 964\t\t\tal override {\\r\\n        requi...\n      JUMPDEST \t\t\tal override {\\r\\n        requi...\n    tag 963\t\t\t    bytes memory data\\r\\n    )...\n      JUMPDEST \t\t\t    bytes memory data\\r\\n    )...\n      DUP2 \t\t\tire(to\n      CALLDATALOAD \t\t\t\\n        require(to \n      PUSH [tag] 965\t\t\tC1155: transfer to the zero ad...\n      DUP5 \t\t\tken\n      DUP3 \t\t\t; i < \n      PUSH 20\t\t\t6 i \n      DUP7 \t\t\t (uint\n      ADD \t\t\t for (uint256 i =\n      PUSH [tag] 696\t\t\tC1155: transfer to the zero ad...\n      JUMP \t\t\tC1155: transfer to the zero ad...\n    tag 965\t\t\tC1155: transfer to the zero ad...\n      JUMPDEST \t\t\tC1155: transfer to the zero ad...\n      SWAP2 \t\t\ts(0), \"ERC1155: transfer to th...\n      POP \t\t\ts(0), \"ERC1155: transfer to th...\n      POP \t\t\tnts,\\r\\n        bytes memory d...\n      SWAP3 \t\t\t    uint256[] memory tokenIDs,...\n      SWAP2 \t\t\t    uint256[] memory tokenIDs,...\n      POP \t\t\t    uint256[] memory tokenIDs,...\n      POP \t\t\t    uint256[] memory tokenIDs,...\n      JUMP \t\t\t    uint256[] memory tokenIDs,...\n    tag 64\t\t\t+i) {\\r\\n            // Enforc...\n      JUMPDEST \t\t\t+i) {\\r\\n            // Enforc...\n      PUSH 0\t\t\ttokenI\n      DUP1 \t\t\t[i], a\n      PUSH 0\t\t\tunts[i\n      DUP1 \t\t\t data)\n      PUSH 0\t\t\t\\n     \n      PUSH A0\t\t\t\n      DUP7 \t\t\t\n      DUP9 \t\t\t\n      SUB \t\t\t\n      SLT \t\t\t\\r\\n\n      ISZERO \t\t\t\\r\\n}\\r\\n\n      PUSH [tag] 967\t\t\t\\r\\n}\\r\\n\n      JUMPI \t\t\t\\r\\n}\\r\\n\n      PUSH [tag] 968\t\t\t\n      PUSH [tag] 658\t\t\t\n      JUMP \t\t\t\n    tag 968\t\t\t\n      JUMPDEST \t\t\t\n    tag 967\t\t\t\\r\\n}\\r\\n\n      JUMPDEST \t\t\t\\r\\n}\\r\\n\n      PUSH 0\t\t\t\n      PUSH [tag] 969\t\t\t\n      DUP9 \t\t\t\n      DUP3 \t\t\t\n      DUP10 \t\t\t\n      ADD \t\t\t\n      PUSH [tag] 663\t\t\t\n      JUMP \t\t\t\n    tag 969\t\t\t\n      JUMPDEST \t\t\t\n      SWAP6 \t\t\t\n      POP \t\t\t\n      POP \t\t\t\n      PUSH 20\t\t\t\n      PUSH [tag] 970\t\t\t\n      DUP9 \t\t\t\n      DUP3 \t\t\t\n      DUP10 \t\t\t\n      ADD \t\t\t\n      PUSH [tag] 663\t\t\t\n      JUMP \t\t\t\n    tag 970\t\t\t\n      JUMPDEST \t\t\t\n      SWAP5 \t\t\t\n      POP \t\t\t\n      POP \t\t\t\n      PUSH 40\t\t\t\n      DUP7 \t\t\t\n      ADD \t\t\t\n      CALLDATALOAD \t\t\t\n      PUSH FFFFFFFFFFFFFFFF\t\t\t\n      DUP2 \t\t\t\n      GT \t\t\t\n      ISZERO \t\t\t\n      PUSH [tag] 971\t\t\t\n      JUMPI \t\t\t\n      PUSH [tag] 972\t\t\t\n      PUSH [tag] 659\t\t\t\n      JUMP \t\t\t\n    tag 972\t\t\t\n      JUMPDEST \t\t\t\n    tag 971\t\t\t\n      JUMPDEST \t\t\t\n      PUSH [tag] 973\t\t\t\n      DUP9 \t\t\t\n      DUP3 \t\t\t\n      DUP10 \t\t\t\n      ADD \t\t\t\n      PUSH [tag] 692\t\t\t\n      JUMP \t\t\t\n    tag 973\t\t\t\n      JUMPDEST \t\t\t\n      SWAP4 \t\t\t\n      POP \t\t\t\n      POP \t\t\t\n      PUSH 60\t\t\t\n      DUP7 \t\t\t\n      ADD \t\t\t\n      CALLDATALOAD \t\t\t\n      PUSH FFFFFFFFFFFFFFFF\t\t\t\n      DUP2 \t\t\t\n      GT \t\t\t\n      ISZERO \t\t\t\n      PUSH [tag] 974\t\t\t\n      JUMPI \t\t\t\n      PUSH [tag] 975\t\t\t\n      PUSH [tag] 659\t\t\t\n      JUMP \t\t\t\n    tag 975\t\t\t\n      JUMPDEST \t\t\t\n    tag 974\t\t\t\n      JUMPDEST \t\t\t\n      PUSH [tag] 976\t\t\t\n      DUP9 \t\t\t\n      DUP3 \t\t\t\n      DUP10 \t\t\t\n      ADD \t\t\t\n      PUSH [tag] 692\t\t\t\n      JUMP \t\t\t\n    tag 976\t\t\t\n      JUMPDEST \t\t\t\n      SWAP3 \t\t\t\n      POP \t\t\t\n      POP \t\t\t\n      PUSH 80\t\t\t\n      DUP7 \t\t\t\n      ADD \t\t\t\n      CALLDATALOAD \t\t\t\n      PUSH FFFFFFFFFFFFFFFF\t\t\t\n      DUP2 \t\t\t\n      GT \t\t\t\n      ISZERO \t\t\t\n      PUSH [tag] 977\t\t\t\n      JUMPI \t\t\t\n      PUSH [tag] 978\t\t\t\n      PUSH [tag] 659\t\t\t\n      JUMP \t\t\t\n    tag 978\t\t\t\n      JUMPDEST \t\t\t\n    tag 977\t\t\t\n      JUMPDEST \t\t\t\n      PUSH [tag] 979\t\t\t\n      DUP9 \t\t\t\n      DUP3 \t\t\t\n      DUP10 \t\t\t\n      ADD \t\t\t\n      PUSH [tag] 697\t\t\t\n      JUMP \t\t\t\n    tag 979\t\t\t\n      JUMPDEST \t\t\t\n      SWAP2 \t\t\t\n      POP \t\t\t\n      POP \t\t\t\n      SWAP3 \t\t\t+i) {\\r\\n            // Enforc...\n      SWAP6 \t\t\t+i) {\\r\\n            // Enforc...\n      POP \t\t\t+i) {\\r\\n            // Enforc...\n      SWAP3 \t\t\t+i) {\\r\\n            // Enforc...\n      SWAP6 \t\t\t+i) {\\r\\n            // Enforc...\n      SWAP1 \t\t\t+i) {\\r\\n            // Enforc...\n      SWAP4 \t\t\t+i) {\\r\\n            // Enforc...\n      POP \t\t\t+i) {\\r\\n            // Enforc...\n      JUMP \t\t\t+i) {\\r\\n            // Enforc...\n    tag 698\t\t\t\n      JUMPDEST \t\t\t\n      PUSH 0\t\t\t\n      DUP2 \t\t\t\n      MLOAD \t\t\t\n      SWAP1 \t\t\t\n      POP \t\t\t\n      SWAP2 \t\t\t\n      SWAP1 \t\t\t\n      POP \t\t\t\n      JUMP \t\t\t\n    tag 699\t\t\t\n      JUMPDEST \t\t\t\n      PUSH 0\t\t\t\n      DUP3 \t\t\t\n      DUP3 \t\t\t\n      MSTORE \t\t\t\n      PUSH 20\t\t\t\n      DUP3 \t\t\t\n      ADD \t\t\t\n      SWAP1 \t\t\t\n      POP \t\t\t\n      SWAP3 \t\t\t\n      SWAP2 \t\t\t\n      POP \t\t\t\n      POP \t\t\t\n      JUMP \t\t\t\n    tag 700\t\t\t\n      JUMPDEST \t\t\t\n      PUSH 0\t\t\t\n      DUP2 \t\t\t\n      SWAP1 \t\t\t\n      POP \t\t\t\n      PUSH 20\t\t\t\n      DUP3 \t\t\t\n      ADD \t\t\t\n      SWAP1 \t\t\t\n      POP \t\t\t\n      SWAP2 \t\t\t\n      SWAP1 \t\t\t\n      POP \t\t\t\n      JUMP \t\t\t\n    tag 701\t\t\t\n      JUMPDEST \t\t\t\n      PUSH [tag] 984\t\t\t\n      DUP2 \t\t\t\n      PUSH [tag] 661\t\t\t\n      JUMP \t\t\t\n    tag 984\t\t\t\n      JUMPDEST \t\t\t\n      DUP3 \t\t\t\n      MSTORE \t\t\t\n      POP \t\t\t\n      POP \t\t\t\n      JUMP \t\t\t\n    tag 702\t\t\t\n      JUMPDEST \t\t\t\n      PUSH 0\t\t\t\n      PUSH [tag] 986\t\t\t\n      DUP4 \t\t\t\n      DUP4 \t\t\t\n      PUSH [tag] 701\t\t\t\n      JUMP \t\t\t\n    tag 986\t\t\t\n      JUMPDEST \t\t\t\n      PUSH 20\t\t\t\n      DUP4 \t\t\t\n      ADD \t\t\t\n      SWAP1 \t\t\t\n      POP \t\t\t\n      SWAP3 \t\t\t\n      SWAP2 \t\t\t\n      POP \t\t\t\n      POP \t\t\t\n      JUMP \t\t\t\n    tag 703\t\t\t\n      JUMPDEST \t\t\t\n      PUSH 0\t\t\t\n      PUSH 20\t\t\t\n      DUP3 \t\t\t\n      ADD \t\t\t\n      SWAP1 \t\t\t\n      POP \t\t\t\n      SWAP2 \t\t\t\n      SWAP1 \t\t\t\n      POP \t\t\t\n      JUMP \t\t\t\n    tag 704\t\t\t\n      JUMPDEST \t\t\t\n      PUSH 0\t\t\t\n      PUSH [tag] 989\t\t\t\n      DUP3 \t\t\t\n      PUSH [tag] 698\t\t\t\n      JUMP \t\t\t\n    tag 989\t\t\t\n      JUMPDEST \t\t\t\n      PUSH [tag] 990\t\t\t\n      DUP2 \t\t\t\n      DUP6 \t\t\t\n      PUSH [tag] 699\t\t\t\n      JUMP \t\t\t\n    tag 990\t\t\t\n      JUMPDEST \t\t\t\n      SWAP4 \t\t\t\n      POP \t\t\t\n      PUSH [tag] 991\t\t\t\n      DUP4 \t\t\t\n      PUSH [tag] 700\t\t\t\n      JUMP \t\t\t\n    tag 991\t\t\t\n      JUMPDEST \t\t\t\n      DUP1 \t\t\t\n      PUSH 0\t\t\t\n    tag 992\t\t\t\n      JUMPDEST \t\t\t\n      DUP4 \t\t\t\n      DUP2 \t\t\t\n      LT \t\t\t\n      ISZERO \t\t\t\n      PUSH [tag] 994\t\t\t\n      JUMPI \t\t\t\n      DUP2 \t\t\t\n      MLOAD \t\t\t\n      PUSH [tag] 995\t\t\t\n      DUP9 \t\t\t\n      DUP3 \t\t\t\n      PUSH [tag] 702\t\t\t\n      JUMP \t\t\t\n    tag 995\t\t\t\n      JUMPDEST \t\t\t\n      SWAP8 \t\t\t\n      POP \t\t\t\n      PUSH [tag] 996\t\t\t\n      DUP4 \t\t\t\n      PUSH [tag] 703\t\t\t\n      JUMP \t\t\t\n    tag 996\t\t\t\n      JUMPDEST \t\t\t\n      SWAP3 \t\t\t\n      POP \t\t\t\n      POP \t\t\t\n      PUSH 1\t\t\t\n      DUP2 \t\t\t\n      ADD \t\t\t\n      SWAP1 \t\t\t\n      POP \t\t\t\n      PUSH [tag] 992\t\t\t\n      JUMP \t\t\t\n    tag 994\t\t\t\n      JUMPDEST \t\t\t\n      POP \t\t\t\n      DUP6 \t\t\t\n      SWAP4 \t\t\t\n      POP \t\t\t\n      POP \t\t\t\n      POP \t\t\t\n      POP \t\t\t\n      SWAP3 \t\t\t\n      SWAP2 \t\t\t\n      POP \t\t\t\n      POP \t\t\t\n      JUMP \t\t\t\n    tag 69\t\t\t\n      JUMPDEST \t\t\t\n      PUSH 0\t\t\t\n      PUSH 20\t\t\t\n      DUP3 \t\t\t\n      ADD \t\t\t\n      SWAP1 \t\t\t\n      POP \t\t\t\n      DUP2 \t\t\t\n      DUP2 \t\t\t\n      SUB \t\t\t\n      PUSH 0\t\t\t\n      DUP4 \t\t\t\n      ADD \t\t\t\n      MSTORE \t\t\t\n      PUSH [tag] 998\t\t\t\n      DUP2 \t\t\t\n      DUP5 \t\t\t\n      PUSH [tag] 704\t\t\t\n      JUMP \t\t\t\n    tag 998\t\t\t\n      JUMPDEST \t\t\t\n      SWAP1 \t\t\t\n      POP \t\t\t\n      SWAP3 \t\t\t\n      SWAP2 \t\t\t\n      POP \t\t\t\n      POP \t\t\t\n      JUMP \t\t\t\n    tag 705\t\t\t\n      JUMPDEST \t\t\t\n      PUSH 0\t\t\t\n      PUSH FFFFFFFFFFFFFFFF\t\t\t\n      DUP3 \t\t\t\n      GT \t\t\t\n      ISZERO \t\t\t\n      PUSH [tag] 1000\t\t\t\n      JUMPI \t\t\t\n      PUSH [tag] 1001\t\t\t\n      PUSH [tag] 259\t\t\t\n      JUMP \t\t\t\n    tag 1001\t\t\t\n      JUMPDEST \t\t\t\n    tag 1000\t\t\t\n      JUMPDEST \t\t\t\n      PUSH 20\t\t\t\n      DUP3 \t\t\t\n      MUL \t\t\t\n      SWAP1 \t\t\t\n      POP \t\t\t\n      PUSH 20\t\t\t\n      DUP2 \t\t\t\n      ADD \t\t\t\n      SWAP1 \t\t\t\n      POP \t\t\t\n      SWAP2 \t\t\t\n      SWAP1 \t\t\t\n      POP \t\t\t\n      JUMP \t\t\t\n    tag 706\t\t\t\n      JUMPDEST \t\t\t\n      PUSH 0\t\t\t\n      PUSH [tag] 1003\t\t\t\n      PUSH [tag] 1004\t\t\t\n      DUP5 \t\t\t\n      PUSH [tag] 705\t\t\t\n      JUMP \t\t\t\n    tag 1004\t\t\t\n      JUMPDEST \t\t\t\n      PUSH [tag] 689\t\t\t\n      JUMP \t\t\t\n    tag 1003\t\t\t\n      JUMPDEST \t\t\t\n      SWAP1 \t\t\t\n      POP \t\t\t\n      DUP1 \t\t\t\n      DUP4 \t\t\t\n      DUP3 \t\t\t\n      MSTORE \t\t\t\n      PUSH 20\t\t\t\n      DUP3 \t\t\t\n      ADD \t\t\t\n      SWAP1 \t\t\t\n      POP \t\t\t\n      PUSH 20\t\t\t\n      DUP5 \t\t\t\n      MUL \t\t\t\n      DUP4 \t\t\t\n      ADD \t\t\t\n      DUP6 \t\t\t\n      DUP2 \t\t\t\n      GT \t\t\t\n      ISZERO \t\t\t\n      PUSH [tag] 1005\t\t\t\n      JUMPI \t\t\t\n      PUSH [tag] 1006\t\t\t\n      PUSH [tag] 685\t\t\t\n      JUMP \t\t\t\n    tag 1006\t\t\t\n      JUMPDEST \t\t\t\n    tag 1005\t\t\t\n      JUMPDEST \t\t\t\n      DUP4 \t\t\t\n    tag 1007\t\t\t\n      JUMPDEST \t\t\t\n      DUP2 \t\t\t\n      DUP2 \t\t\t\n      LT \t\t\t\n      ISZERO \t\t\t\n      PUSH [tag] 1009\t\t\t\n      JUMPI \t\t\t\n      DUP1 \t\t\t\n      PUSH [tag] 1010\t\t\t\n      DUP9 \t\t\t\n      DUP3 \t\t\t\n      PUSH [tag] 663\t\t\t\n      JUMP \t\t\t\n    tag 1010\t\t\t\n      JUMPDEST \t\t\t\n      DUP5 \t\t\t\n      MSTORE \t\t\t\n      PUSH 20\t\t\t\n      DUP5 \t\t\t\n      ADD \t\t\t\n      SWAP4 \t\t\t\n      POP \t\t\t\n      POP \t\t\t\n      PUSH 20\t\t\t\n      DUP2 \t\t\t\n      ADD \t\t\t\n      SWAP1 \t\t\t\n      POP \t\t\t\n      PUSH [tag] 1007\t\t\t\n      JUMP \t\t\t\n    tag 1009\t\t\t\n      JUMPDEST \t\t\t\n      POP \t\t\t\n      POP \t\t\t\n      POP \t\t\t\n      SWAP4 \t\t\t\n      SWAP3 \t\t\t\n      POP \t\t\t\n      POP \t\t\t\n      POP \t\t\t\n      JUMP \t\t\t\n    tag 707\t\t\t\n      JUMPDEST \t\t\t\n      PUSH 0\t\t\t\n      DUP3 \t\t\t\n      PUSH 1F\t\t\t\n      DUP4 \t\t\t\n      ADD \t\t\t\n      SLT \t\t\t\n      PUSH [tag] 1012\t\t\t\n      JUMPI \t\t\t\n      PUSH [tag] 1013\t\t\t\n      PUSH [tag] 683\t\t\t\n      JUMP \t\t\t\n    tag 1013\t\t\t\n      JUMPDEST \t\t\t\n    tag 1012\t\t\t\n      JUMPDEST \t\t\t\n      DUP2 \t\t\t\n      CALLDATALOAD \t\t\t\n      PUSH [tag] 1014\t\t\t\n      DUP5 \t\t\t\n      DUP3 \t\t\t\n      PUSH 20\t\t\t\n      DUP7 \t\t\t\n      ADD \t\t\t\n      PUSH [tag] 706\t\t\t\n      JUMP \t\t\t\n    tag 1014\t\t\t\n      JUMPDEST \t\t\t\n      SWAP2 \t\t\t\n      POP \t\t\t\n      POP \t\t\t\n      SWAP3 \t\t\t\n      SWAP2 \t\t\t\n      POP \t\t\t\n      POP \t\t\t\n      JUMP \t\t\t\n    tag 72\t\t\t\n      JUMPDEST \t\t\t\n      PUSH 0\t\t\t\n      DUP1 \t\t\t\n      PUSH 40\t\t\t\n      DUP4 \t\t\t\n      DUP6 \t\t\t\n      SUB \t\t\t\n      SLT \t\t\t\n      ISZERO \t\t\t\n      PUSH [tag] 1016\t\t\t\n      JUMPI \t\t\t\n      PUSH [tag] 1017\t\t\t\n      PUSH [tag] 658\t\t\t\n      JUMP \t\t\t\n    tag 1017\t\t\t\n      JUMPDEST \t\t\t\n    tag 1016\t\t\t\n      JUMPDEST \t\t\t\n      PUSH 0\t\t\t\n      DUP4 \t\t\t\n      ADD \t\t\t\n      CALLDATALOAD \t\t\t\n      PUSH FFFFFFFFFFFFFFFF\t\t\t\n      DUP2 \t\t\t\n      GT \t\t\t\n      ISZERO \t\t\t\n      PUSH [tag] 1018\t\t\t\n      JUMPI \t\t\t\n      PUSH [tag] 1019\t\t\t\n      PUSH [tag] 659\t\t\t\n      JUMP \t\t\t\n    tag 1019\t\t\t\n      JUMPDEST \t\t\t\n    tag 1018\t\t\t\n      JUMPDEST \t\t\t\n      PUSH [tag] 1020\t\t\t\n      DUP6 \t\t\t\n      DUP3 \t\t\t\n      DUP7 \t\t\t\n      ADD \t\t\t\n      PUSH [tag] 707\t\t\t\n      JUMP \t\t\t\n    tag 1020\t\t\t\n      JUMPDEST \t\t\t\n      SWAP3 \t\t\t\n      POP \t\t\t\n      POP \t\t\t\n      PUSH 20\t\t\t\n      DUP4 \t\t\t\n      ADD \t\t\t\n      CALLDATALOAD \t\t\t\n      PUSH FFFFFFFFFFFFFFFF\t\t\t\n      DUP2 \t\t\t\n      GT \t\t\t\n      ISZERO \t\t\t\n      PUSH [tag] 1021\t\t\t\n      JUMPI \t\t\t\n      PUSH [tag] 1022\t\t\t\n      PUSH [tag] 659\t\t\t\n      JUMP \t\t\t\n    tag 1022\t\t\t\n      JUMPDEST \t\t\t\n    tag 1021\t\t\t\n      JUMPDEST \t\t\t\n      PUSH [tag] 1023\t\t\t\n      DUP6 \t\t\t\n      DUP3 \t\t\t\n      DUP7 \t\t\t\n      ADD \t\t\t\n      PUSH [tag] 692\t\t\t\n      JUMP \t\t\t\n    tag 1023\t\t\t\n      JUMPDEST \t\t\t\n      SWAP2 \t\t\t\n      POP \t\t\t\n      POP \t\t\t\n      SWAP3 \t\t\t\n      POP \t\t\t\n      SWAP3 \t\t\t\n      SWAP1 \t\t\t\n      POP \t\t\t\n      JUMP \t\t\t\n    tag 708\t\t\t\n      JUMPDEST \t\t\t\n      PUSH 0\t\t\t\n      DUP2 \t\t\t\n      MLOAD \t\t\t\n      SWAP1 \t\t\t\n      POP \t\t\t\n      SWAP2 \t\t\t\n      SWAP1 \t\t\t\n      POP \t\t\t\n      JUMP \t\t\t\n    tag 709\t\t\t\n      JUMPDEST \t\t\t\n      PUSH 0\t\t\t\n      DUP3 \t\t\t\n      DUP3 \t\t\t\n      MSTORE \t\t\t\n      PUSH 20\t\t\t\n      DUP3 \t\t\t\n      ADD \t\t\t\n      SWAP1 \t\t\t\n      POP \t\t\t\n      SWAP3 \t\t\t\n      SWAP2 \t\t\t\n      POP \t\t\t\n      POP \t\t\t\n      JUMP \t\t\t\n    tag 710\t\t\t\n      JUMPDEST \t\t\t\n      PUSH 0\t\t\t\n      DUP2 \t\t\t\n      SWAP1 \t\t\t\n      POP \t\t\t\n      PUSH 20\t\t\t\n      DUP3 \t\t\t\n      ADD \t\t\t\n      SWAP1 \t\t\t\n      POP \t\t\t\n      SWAP2 \t\t\t\n      SWAP1 \t\t\t\n      POP \t\t\t\n      JUMP \t\t\t\n    tag 711\t\t\t\n      JUMPDEST \t\t\t\n      PUSH [tag] 1028\t\t\t\n      DUP2 \t\t\t\n      PUSH [tag] 664\t\t\t\n      JUMP \t\t\t\n    tag 1028\t\t\t\n      JUMPDEST \t\t\t\n      DUP3 \t\t\t\n      MSTORE \t\t\t\n      POP \t\t\t\n      POP \t\t\t\n      JUMP \t\t\t\n    tag 712\t\t\t\n      JUMPDEST \t\t\t\n      PUSH 0\t\t\t\n      PUSH [tag] 1030\t\t\t\n      DUP4 \t\t\t\n      DUP4 \t\t\t\n      PUSH [tag] 711\t\t\t\n      JUMP \t\t\t\n    tag 1030\t\t\t\n      JUMPDEST \t\t\t\n      PUSH 20\t\t\t\n      DUP4 \t\t\t\n      ADD \t\t\t\n      SWAP1 \t\t\t\n      POP \t\t\t\n      SWAP3 \t\t\t\n      SWAP2 \t\t\t\n      POP \t\t\t\n      POP \t\t\t\n      JUMP \t\t\t\n    tag 713\t\t\t\n      JUMPDEST \t\t\t\n      PUSH 0\t\t\t\n      PUSH 20\t\t\t\n      DUP3 \t\t\t\n      ADD \t\t\t\n      SWAP1 \t\t\t\n      POP \t\t\t\n      SWAP2 \t\t\t\n      SWAP1 \t\t\t\n      POP \t\t\t\n      JUMP \t\t\t\n    tag 714\t\t\t\n      JUMPDEST \t\t\t\n      PUSH 0\t\t\t\n      PUSH [tag] 1033\t\t\t\n      DUP3 \t\t\t\n      PUSH [tag] 708\t\t\t\n      JUMP \t\t\t\n    tag 1033\t\t\t\n      JUMPDEST \t\t\t\n      PUSH [tag] 1034\t\t\t\n      DUP2 \t\t\t\n      DUP6 \t\t\t\n      PUSH [tag] 709\t\t\t\n      JUMP \t\t\t\n    tag 1034\t\t\t\n      JUMPDEST \t\t\t\n      SWAP4 \t\t\t\n      POP \t\t\t\n      PUSH [tag] 1035\t\t\t\n      DUP4 \t\t\t\n      PUSH [tag] 710\t\t\t\n      JUMP \t\t\t\n    tag 1035\t\t\t\n      JUMPDEST \t\t\t\n      DUP1 \t\t\t\n      PUSH 0\t\t\t\n    tag 1036\t\t\t\n      JUMPDEST \t\t\t\n      DUP4 \t\t\t\n      DUP2 \t\t\t\n      LT \t\t\t\n      ISZERO \t\t\t\n      PUSH [tag] 1038\t\t\t\n      JUMPI \t\t\t\n      DUP2 \t\t\t\n      MLOAD \t\t\t\n      PUSH [tag] 1039\t\t\t\n      DUP9 \t\t\t\n      DUP3 \t\t\t\n      PUSH [tag] 712\t\t\t\n      JUMP \t\t\t\n    tag 1039\t\t\t\n      JUMPDEST \t\t\t\n      SWAP8 \t\t\t\n      POP \t\t\t\n      PUSH [tag] 1040\t\t\t\n      DUP4 \t\t\t\n      PUSH [tag] 713\t\t\t\n      JUMP \t\t\t\n    tag 1040\t\t\t\n      JUMPDEST \t\t\t\n      SWAP3 \t\t\t\n      POP \t\t\t\n      POP \t\t\t\n      PUSH 1\t\t\t\n      DUP2 \t\t\t\n      ADD \t\t\t\n      SWAP1 \t\t\t\n      POP \t\t\t\n      PUSH [tag] 1036\t\t\t\n      JUMP \t\t\t\n    tag 1038\t\t\t\n      JUMPDEST \t\t\t\n      POP \t\t\t\n      DUP6 \t\t\t\n      SWAP4 \t\t\t\n      POP \t\t\t\n      POP \t\t\t\n      POP \t\t\t\n      POP \t\t\t\n      SWAP3 \t\t\t\n      SWAP2 \t\t\t\n      POP \t\t\t\n      POP \t\t\t\n      JUMP \t\t\t\n    tag 75\t\t\t\n      JUMPDEST \t\t\t\n      PUSH 0\t\t\t\n      PUSH 20\t\t\t\n      DUP3 \t\t\t\n      ADD \t\t\t\n      SWAP1 \t\t\t\n      POP \t\t\t\n      DUP2 \t\t\t\n      DUP2 \t\t\t\n      SUB \t\t\t\n      PUSH 0\t\t\t\n      DUP4 \t\t\t\n      ADD \t\t\t\n      MSTORE \t\t\t\n      PUSH [tag] 1042\t\t\t\n      DUP2 \t\t\t\n      DUP5 \t\t\t\n      PUSH [tag] 714\t\t\t\n      JUMP \t\t\t\n    tag 1042\t\t\t\n      JUMPDEST \t\t\t\n      SWAP1 \t\t\t\n      POP \t\t\t\n      SWAP3 \t\t\t\n      SWAP2 \t\t\t\n      POP \t\t\t\n      POP \t\t\t\n      JUMP \t\t\t\n    tag 715\t\t\t\n      JUMPDEST \t\t\t\n      PUSH 0\t\t\t\n      PUSH FFFFFFFFFFFFFFFF\t\t\t\n      DUP3 \t\t\t\n      AND \t\t\t\n      SWAP1 \t\t\t\n      POP \t\t\t\n      SWAP2 \t\t\t\n      SWAP1 \t\t\t\n      POP \t\t\t\n      JUMP \t\t\t\n    tag 716\t\t\t\n      JUMPDEST \t\t\t\n      PUSH [tag] 1045\t\t\t\n      DUP2 \t\t\t\n      PUSH [tag] 715\t\t\t\n      JUMP \t\t\t\n    tag 1045\t\t\t\n      JUMPDEST \t\t\t\n      DUP2 \t\t\t\n      EQ \t\t\t\n      PUSH [tag] 1046\t\t\t\n      JUMPI \t\t\t\n      PUSH 0\t\t\t\n      DUP1 \t\t\t\n      REVERT \t\t\t\n    tag 1046\t\t\t\n      JUMPDEST \t\t\t\n      POP \t\t\t\n      JUMP \t\t\t\n    tag 717\t\t\t\n      JUMPDEST \t\t\t\n      PUSH 0\t\t\t\n      DUP2 \t\t\t\n      CALLDATALOAD \t\t\t\n      SWAP1 \t\t\t\n      POP \t\t\t\n      PUSH [tag] 1048\t\t\t\n      DUP2 \t\t\t\n      PUSH [tag] 716\t\t\t\n      JUMP \t\t\t\n    tag 1048\t\t\t\n      JUMPDEST \t\t\t\n      SWAP3 \t\t\t\n      SWAP2 \t\t\t\n      POP \t\t\t\n      POP \t\t\t\n      JUMP \t\t\t\n    tag 78\t\t\t\n      JUMPDEST \t\t\t\n      PUSH 0\t\t\t\n      DUP1 \t\t\t\n      PUSH 40\t\t\t\n      DUP4 \t\t\t\n      DUP6 \t\t\t\n      SUB \t\t\t\n      SLT \t\t\t\n      ISZERO \t\t\t\n      PUSH [tag] 1050\t\t\t\n      JUMPI \t\t\t\n      PUSH [tag] 1051\t\t\t\n      PUSH [tag] 658\t\t\t\n      JUMP \t\t\t\n    tag 1051\t\t\t\n      JUMPDEST \t\t\t\n    tag 1050\t\t\t\n      JUMPDEST \t\t\t\n      PUSH 0\t\t\t\n      PUSH [tag] 1052\t\t\t\n      DUP6 \t\t\t\n      DUP3 \t\t\t\n      DUP7 \t\t\t\n      ADD \t\t\t\n      PUSH [tag] 666\t\t\t\n      JUMP \t\t\t\n    tag 1052\t\t\t\n      JUMPDEST \t\t\t\n      SWAP3 \t\t\t\n      POP \t\t\t\n      POP \t\t\t\n      PUSH 20\t\t\t\n      PUSH [tag] 1053\t\t\t\n      DUP6 \t\t\t\n      DUP3 \t\t\t\n      DUP7 \t\t\t\n      ADD \t\t\t\n      PUSH [tag] 717\t\t\t\n      JUMP \t\t\t\n    tag 1053\t\t\t\n      JUMPDEST \t\t\t\n      SWAP2 \t\t\t\n      POP \t\t\t\n      POP \t\t\t\n      SWAP3 \t\t\t\n      POP \t\t\t\n      SWAP3 \t\t\t\n      SWAP1 \t\t\t\n      POP \t\t\t\n      JUMP \t\t\t\n    tag 82\t\t\t\n      JUMPDEST \t\t\t\n      PUSH 0\t\t\t\n      DUP1 \t\t\t\n      PUSH 0\t\t\t\n      PUSH 60\t\t\t\n      DUP5 \t\t\t\n      DUP7 \t\t\t\n      SUB \t\t\t\n      SLT \t\t\t\n      ISZERO \t\t\t\n      PUSH [tag] 1055\t\t\t\n      JUMPI \t\t\t\n      PUSH [tag] 1056\t\t\t\n      PUSH [tag] 658\t\t\t\n      JUMP \t\t\t\n    tag 1056\t\t\t\n      JUMPDEST \t\t\t\n    tag 1055\t\t\t\n      JUMPDEST \t\t\t\n      PUSH 0\t\t\t\n      PUSH [tag] 1057\t\t\t\n      DUP7 \t\t\t\n      DUP3 \t\t\t\n      DUP8 \t\t\t\n      ADD \t\t\t\n      PUSH [tag] 666\t\t\t\n      JUMP \t\t\t\n    tag 1057\t\t\t\n      JUMPDEST \t\t\t\n      SWAP4 \t\t\t\n      POP \t\t\t\n      POP \t\t\t\n      PUSH 20\t\t\t\n      PUSH [tag] 1058\t\t\t\n      DUP7 \t\t\t\n      DUP3 \t\t\t\n      DUP8 \t\t\t\n      ADD \t\t\t\n      PUSH [tag] 663\t\t\t\n      JUMP \t\t\t\n    tag 1058\t\t\t\n      JUMPDEST \t\t\t\n      SWAP3 \t\t\t\n      POP \t\t\t\n      POP \t\t\t\n      PUSH 40\t\t\t\n      PUSH [tag] 1059\t\t\t\n      DUP7 \t\t\t\n      DUP3 \t\t\t\n      DUP8 \t\t\t\n      ADD \t\t\t\n      PUSH [tag] 717\t\t\t\n      JUMP \t\t\t\n    tag 1059\t\t\t\n      JUMPDEST \t\t\t\n      SWAP2 \t\t\t\n      POP \t\t\t\n      POP \t\t\t\n      SWAP3 \t\t\t\n      POP \t\t\t\n      SWAP3 \t\t\t\n      POP \t\t\t\n      SWAP3 \t\t\t\n      JUMP \t\t\t\n    tag 85\t\t\t\n      JUMPDEST \t\t\t\n      PUSH 0\t\t\t\n      PUSH 60\t\t\t\n      DUP3 \t\t\t\n      ADD \t\t\t\n      SWAP1 \t\t\t\n      POP \t\t\t\n      DUP2 \t\t\t\n      DUP2 \t\t\t\n      SUB \t\t\t\n      PUSH 0\t\t\t\n      DUP4 \t\t\t\n      ADD \t\t\t\n      MSTORE \t\t\t\n      PUSH [tag] 1061\t\t\t\n      DUP2 \t\t\t\n      DUP7 \t\t\t\n      PUSH [tag] 677\t\t\t\n      JUMP \t\t\t\n    tag 1061\t\t\t\n      JUMPDEST \t\t\t\n      SWAP1 \t\t\t\n      POP \t\t\t\n      DUP2 \t\t\t\n      DUP2 \t\t\t\n      SUB \t\t\t\n      PUSH 20\t\t\t\n      DUP4 \t\t\t\n      ADD \t\t\t\n      MSTORE \t\t\t\n      PUSH [tag] 1062\t\t\t\n      DUP2 \t\t\t\n      DUP6 \t\t\t\n      PUSH [tag] 677\t\t\t\n      JUMP \t\t\t\n    tag 1062\t\t\t\n      JUMPDEST \t\t\t\n      SWAP1 \t\t\t\n      POP \t\t\t\n      DUP2 \t\t\t\n      DUP2 \t\t\t\n      SUB \t\t\t\n      PUSH 40\t\t\t\n      DUP4 \t\t\t\n      ADD \t\t\t\n      MSTORE \t\t\t\n      PUSH [tag] 1063\t\t\t\n      DUP2 \t\t\t\n      DUP5 \t\t\t\n      PUSH [tag] 677\t\t\t\n      JUMP \t\t\t\n    tag 1063\t\t\t\n      JUMPDEST \t\t\t\n      SWAP1 \t\t\t\n      POP \t\t\t\n      SWAP5 \t\t\t\n      SWAP4 \t\t\t\n      POP \t\t\t\n      POP \t\t\t\n      POP \t\t\t\n      POP \t\t\t\n      JUMP \t\t\t\n    tag 718\t\t\t\n      JUMPDEST \t\t\t\n      PUSH 0\t\t\t\n      PUSH [tag] 1065\t\t\t\n      DUP3 \t\t\t\n      PUSH [tag] 661\t\t\t\n      JUMP \t\t\t\n    tag 1065\t\t\t\n      JUMPDEST \t\t\t\n      SWAP1 \t\t\t\n      POP \t\t\t\n      SWAP2 \t\t\t\n      SWAP1 \t\t\t\n      POP \t\t\t\n      JUMP \t\t\t\n    tag 719\t\t\t\n      JUMPDEST \t\t\t\n      PUSH [tag] 1067\t\t\t\n      DUP2 \t\t\t\n      PUSH [tag] 718\t\t\t\n      JUMP \t\t\t\n    tag 1067\t\t\t\n      JUMPDEST \t\t\t\n      DUP2 \t\t\t\n      EQ \t\t\t\n      PUSH [tag] 1068\t\t\t\n      JUMPI \t\t\t\n      PUSH 0\t\t\t\n      DUP1 \t\t\t\n      REVERT \t\t\t\n    tag 1068\t\t\t\n      JUMPDEST \t\t\t\n      POP \t\t\t\n      JUMP \t\t\t\n    tag 720\t\t\t\n      JUMPDEST \t\t\t\n      PUSH 0\t\t\t\n      DUP2 \t\t\t\n      CALLDATALOAD \t\t\t\n      SWAP1 \t\t\t\n      POP \t\t\t\n      PUSH [tag] 1070\t\t\t\n      DUP2 \t\t\t\n      PUSH [tag] 719\t\t\t\n      JUMP \t\t\t\n    tag 1070\t\t\t\n      JUMPDEST \t\t\t\n      SWAP3 \t\t\t\n      SWAP2 \t\t\t\n      POP \t\t\t\n      POP \t\t\t\n      JUMP \t\t\t\n    tag 721\t\t\t\n      JUMPDEST \t\t\t\n      PUSH 0\t\t\t\n      DUP1 \t\t\t\n      REVERT \t\t\t\n    tag 722\t\t\t\n      JUMPDEST \t\t\t\n      PUSH 0\t\t\t\n      PUSH 60\t\t\t\n      DUP3 \t\t\t\n      DUP5 \t\t\t\n      SUB \t\t\t\n      SLT \t\t\t\n      ISZERO \t\t\t\n      PUSH [tag] 1073\t\t\t\n      JUMPI \t\t\t\n      PUSH [tag] 1074\t\t\t\n      PUSH [tag] 721\t\t\t\n      JUMP \t\t\t\n    tag 1074\t\t\t\n      JUMPDEST \t\t\t\n    tag 1073\t\t\t\n      JUMPDEST \t\t\t\n      DUP2 \t\t\t\n      SWAP1 \t\t\t\n      POP \t\t\t\n      SWAP3 \t\t\t\n      SWAP2 \t\t\t\n      POP \t\t\t\n      POP \t\t\t\n      JUMP \t\t\t\n    tag 93\t\t\t\n      JUMPDEST \t\t\t\n      PUSH 0\t\t\t\n      DUP1 \t\t\t\n      PUSH 0\t\t\t\n      DUP1 \t\t\t\n      PUSH 0\t\t\t\n      DUP1 \t\t\t\n      PUSH 0\t\t\t\n      DUP1 \t\t\t\n      PUSH 0\t\t\t\n      DUP1 \t\t\t\n      PUSH E0\t\t\t\n      DUP12 \t\t\t\n      DUP14 \t\t\t\n      SUB \t\t\t\n      SLT \t\t\t\n      ISZERO \t\t\t\n      PUSH [tag] 1076\t\t\t\n      JUMPI \t\t\t\n      PUSH [tag] 1077\t\t\t\n      PUSH [tag] 658\t\t\t\n      JUMP \t\t\t\n    tag 1077\t\t\t\n      JUMPDEST \t\t\t\n    tag 1076\t\t\t\n      JUMPDEST \t\t\t\n      PUSH 0\t\t\t\n      PUSH [tag] 1078\t\t\t\n      DUP14 \t\t\t\n      DUP3 \t\t\t\n      DUP15 \t\t\t\n      ADD \t\t\t\n      PUSH [tag] 717\t\t\t\n      JUMP \t\t\t\n    tag 1078\t\t\t\n      JUMPDEST \t\t\t\n      SWAP11 \t\t\t\n      POP \t\t\t\n      POP \t\t\t\n      PUSH 20\t\t\t\n      DUP12 \t\t\t\n      ADD \t\t\t\n      CALLDATALOAD \t\t\t\n      PUSH FFFFFFFFFFFFFFFF\t\t\t\n      DUP2 \t\t\t\n      GT \t\t\t\n      ISZERO \t\t\t\n      PUSH [tag] 1079\t\t\t\n      JUMPI \t\t\t\n      PUSH [tag] 1080\t\t\t\n      PUSH [tag] 659\t\t\t\n      JUMP \t\t\t\n    tag 1080\t\t\t\n      JUMPDEST \t\t\t\n    tag 1079\t\t\t\n      JUMPDEST \t\t\t\n      PUSH [tag] 1081\t\t\t\n      DUP14 \t\t\t\n      DUP3 \t\t\t\n      DUP15 \t\t\t\n      ADD \t\t\t\n      PUSH [tag] 687\t\t\t\n      JUMP \t\t\t\n    tag 1081\t\t\t\n      JUMPDEST \t\t\t\n      SWAP10 \t\t\t\n      POP \t\t\t\n      SWAP10 \t\t\t\n      POP \t\t\t\n      POP \t\t\t\n      PUSH 40\t\t\t\n      PUSH [tag] 1082\t\t\t\n      DUP14 \t\t\t\n      DUP3 \t\t\t\n      DUP15 \t\t\t\n      ADD \t\t\t\n      PUSH [tag] 720\t\t\t\n      JUMP \t\t\t\n    tag 1082\t\t\t\n      JUMPDEST \t\t\t\n      SWAP8 \t\t\t\n      POP \t\t\t\n      POP \t\t\t\n      PUSH 60\t\t\t\n      DUP12 \t\t\t\n      ADD \t\t\t\n      CALLDATALOAD \t\t\t\n      PUSH FFFFFFFFFFFFFFFF\t\t\t\n      DUP2 \t\t\t\n      GT \t\t\t\n      ISZERO \t\t\t\n      PUSH [tag] 1083\t\t\t\n      JUMPI \t\t\t\n      PUSH [tag] 1084\t\t\t\n      PUSH [tag] 659\t\t\t\n      JUMP \t\t\t\n    tag 1084\t\t\t\n      JUMPDEST \t\t\t\n    tag 1083\t\t\t\n      JUMPDEST \t\t\t\n      PUSH [tag] 1085\t\t\t\n      DUP14 \t\t\t\n      DUP3 \t\t\t\n      DUP15 \t\t\t\n      ADD \t\t\t\n      PUSH [tag] 686\t\t\t\n      JUMP \t\t\t\n    tag 1085\t\t\t\n      JUMPDEST \t\t\t\n      SWAP7 \t\t\t\n      POP \t\t\t\n      SWAP7 \t\t\t\n      POP \t\t\t\n      POP \t\t\t\n      PUSH 80\t\t\t\n      PUSH [tag] 1086\t\t\t\n      DUP14 \t\t\t\n      DUP3 \t\t\t\n      DUP15 \t\t\t\n      ADD \t\t\t\n      PUSH [tag] 666\t\t\t\n      JUMP \t\t\t\n    tag 1086\t\t\t\n      JUMPDEST \t\t\t\n      SWAP5 \t\t\t\n      POP \t\t\t\n      POP \t\t\t\n      PUSH A0\t\t\t\n      DUP12 \t\t\t\n      ADD \t\t\t\n      CALLDATALOAD \t\t\t\n      PUSH FFFFFFFFFFFFFFFF\t\t\t\n      DUP2 \t\t\t\n      GT \t\t\t\n      ISZERO \t\t\t\n      PUSH [tag] 1087\t\t\t\n      JUMPI \t\t\t\n      PUSH [tag] 1088\t\t\t\n      PUSH [tag] 659\t\t\t\n      JUMP \t\t\t\n    tag 1088\t\t\t\n      JUMPDEST \t\t\t\n    tag 1087\t\t\t\n      JUMPDEST \t\t\t\n      PUSH [tag] 1089\t\t\t\n      DUP14 \t\t\t\n      DUP3 \t\t\t\n      DUP15 \t\t\t\n      ADD \t\t\t\n      PUSH [tag] 687\t\t\t\n      JUMP \t\t\t\n    tag 1089\t\t\t\n      JUMPDEST \t\t\t\n      SWAP4 \t\t\t\n      POP \t\t\t\n      SWAP4 \t\t\t\n      POP \t\t\t\n      POP \t\t\t\n      PUSH C0\t\t\t\n      DUP12 \t\t\t\n      ADD \t\t\t\n      CALLDATALOAD \t\t\t\n      PUSH FFFFFFFFFFFFFFFF\t\t\t\n      DUP2 \t\t\t\n      GT \t\t\t\n      ISZERO \t\t\t\n      PUSH [tag] 1090\t\t\t\n      JUMPI \t\t\t\n      PUSH [tag] 1091\t\t\t\n      PUSH [tag] 659\t\t\t\n      JUMP \t\t\t\n    tag 1091\t\t\t\n      JUMPDEST \t\t\t\n    tag 1090\t\t\t\n      JUMPDEST \t\t\t\n      PUSH [tag] 1092\t\t\t\n      DUP14 \t\t\t\n      DUP3 \t\t\t\n      DUP15 \t\t\t\n      ADD \t\t\t\n      PUSH [tag] 722\t\t\t\n      JUMP \t\t\t\n    tag 1092\t\t\t\n      JUMPDEST \t\t\t\n      SWAP2 \t\t\t\n      POP \t\t\t\n      POP \t\t\t\n      SWAP3 \t\t\t\n      SWAP6 \t\t\t\n      SWAP9 \t\t\t\n      SWAP12 \t\t\t\n      SWAP2 \t\t\t\n      SWAP5 \t\t\t\n      SWAP8 \t\t\t\n      SWAP11 \t\t\t\n      POP \t\t\t\n      SWAP3 \t\t\t\n      SWAP6 \t\t\t\n      SWAP9 \t\t\t\n      POP \t\t\t\n      JUMP \t\t\t\n    tag 723\t\t\t\n      JUMPDEST \t\t\t\n      PUSH [tag] 1094\t\t\t\n      DUP2 \t\t\t\n      PUSH [tag] 661\t\t\t\n      JUMP \t\t\t\n    tag 1094\t\t\t\n      JUMPDEST \t\t\t\n      DUP3 \t\t\t\n      MSTORE \t\t\t\n      POP \t\t\t\n      POP \t\t\t\n      JUMP \t\t\t\n    tag 101\t\t\t\n      JUMPDEST \t\t\t\n      PUSH 0\t\t\t\n      PUSH 20\t\t\t\n      DUP3 \t\t\t\n      ADD \t\t\t\n      SWAP1 \t\t\t\n      POP \t\t\t\n      PUSH [tag] 1096\t\t\t\n      PUSH 0\t\t\t\n      DUP4 \t\t\t\n      ADD \t\t\t\n      DUP5 \t\t\t\n      PUSH [tag] 723\t\t\t\n      JUMP \t\t\t\n    tag 1096\t\t\t\n      JUMPDEST \t\t\t\n      SWAP3 \t\t\t\n      SWAP2 \t\t\t\n      POP \t\t\t\n      POP \t\t\t\n      JUMP \t\t\t\n    tag 724\t\t\t\n      JUMPDEST \t\t\t\n      PUSH [tag] 1098\t\t\t\n      DUP2 \t\t\t\n      PUSH [tag] 671\t\t\t\n      JUMP \t\t\t\n    tag 1098\t\t\t\n      JUMPDEST \t\t\t\n      DUP2 \t\t\t\n      EQ \t\t\t\n      PUSH [tag] 1099\t\t\t\n      JUMPI \t\t\t\n      PUSH 0\t\t\t\n      DUP1 \t\t\t\n      REVERT \t\t\t\n    tag 1099\t\t\t\n      JUMPDEST \t\t\t\n      POP \t\t\t\n      JUMP \t\t\t\n    tag 725\t\t\t\n      JUMPDEST \t\t\t\n      PUSH 0\t\t\t\n      DUP2 \t\t\t\n      CALLDATALOAD \t\t\t\n      SWAP1 \t\t\t\n      POP \t\t\t\n      PUSH [tag] 1101\t\t\t\n      DUP2 \t\t\t\n      PUSH [tag] 724\t\t\t\n      JUMP \t\t\t\n    tag 1101\t\t\t\n      JUMPDEST \t\t\t\n      SWAP3 \t\t\t\n      SWAP2 \t\t\t\n      POP \t\t\t\n      POP \t\t\t\n      JUMP \t\t\t\n    tag 108\t\t\t\n      JUMPDEST \t\t\t\n      PUSH 0\t\t\t\n      DUP1 \t\t\t\n      PUSH 40\t\t\t\n      DUP4 \t\t\t\n      DUP6 \t\t\t\n      SUB \t\t\t\n      SLT \t\t\t\n      ISZERO \t\t\t\n      PUSH [tag] 1103\t\t\t\n      JUMPI \t\t\t\n      PUSH [tag] 1104\t\t\t\n      PUSH [tag] 658\t\t\t\n      JUMP \t\t\t\n    tag 1104\t\t\t\n      JUMPDEST \t\t\t\n    tag 1103\t\t\t\n      JUMPDEST \t\t\t\n      PUSH 0\t\t\t\n      PUSH [tag] 1105\t\t\t\n      DUP6 \t\t\t\n      DUP3 \t\t\t\n      DUP7 \t\t\t\n      ADD \t\t\t\n      PUSH [tag] 663\t\t\t\n      JUMP \t\t\t\n    tag 1105\t\t\t\n      JUMPDEST \t\t\t\n      SWAP3 \t\t\t\n      POP \t\t\t\n      POP \t\t\t\n      PUSH 20\t\t\t\n      PUSH [tag] 1106\t\t\t\n      DUP6 \t\t\t\n      DUP3 \t\t\t\n      DUP7 \t\t\t\n      ADD \t\t\t\n      PUSH [tag] 725\t\t\t\n      JUMP \t\t\t\n    tag 1106\t\t\t\n      JUMPDEST \t\t\t\n      SWAP2 \t\t\t\n      POP \t\t\t\n      POP \t\t\t\n      SWAP3 \t\t\t\n      POP \t\t\t\n      SWAP3 \t\t\t\n      SWAP1 \t\t\t\n      POP \t\t\t\n      JUMP \t\t\t\n    tag 112\t\t\t\n      JUMPDEST \t\t\t\n      PUSH 0\t\t\t\n      DUP1 \t\t\t\n      PUSH 40\t\t\t\n      DUP4 \t\t\t\n      DUP6 \t\t\t\n      SUB \t\t\t\n      SLT \t\t\t\n      ISZERO \t\t\t\n      PUSH [tag] 1108\t\t\t\n      JUMPI \t\t\t\n      PUSH [tag] 1109\t\t\t\n      PUSH [tag] 658\t\t\t\n      JUMP \t\t\t\n    tag 1109\t\t\t\n      JUMPDEST \t\t\t\n    tag 1108\t\t\t\n      JUMPDEST \t\t\t\n      PUSH 0\t\t\t\n      PUSH [tag] 1110\t\t\t\n      DUP6 \t\t\t\n      DUP3 \t\t\t\n      DUP7 \t\t\t\n      ADD \t\t\t\n      PUSH [tag] 666\t\t\t\n      JUMP \t\t\t\n    tag 1110\t\t\t\n      JUMPDEST \t\t\t\n      SWAP3 \t\t\t\n      POP \t\t\t\n      POP \t\t\t\n      PUSH 20\t\t\t\n      PUSH [tag] 1111\t\t\t\n      DUP6 \t\t\t\n      DUP3 \t\t\t\n      DUP7 \t\t\t\n      ADD \t\t\t\n      PUSH [tag] 663\t\t\t\n      JUMP \t\t\t\n    tag 1111\t\t\t\n      JUMPDEST \t\t\t\n      SWAP2 \t\t\t\n      POP \t\t\t\n      POP \t\t\t\n      SWAP3 \t\t\t\n      POP \t\t\t\n      SWAP3 \t\t\t\n      SWAP1 \t\t\t\n      POP \t\t\t\n      JUMP \t\t\t\n    tag 726\t\t\t\n      JUMPDEST \t\t\t\n      PUSH 0\t\t\t\n      DUP2 \t\t\t\n      MLOAD \t\t\t\n      SWAP1 \t\t\t\n      POP \t\t\t\n      SWAP2 \t\t\t\n      SWAP1 \t\t\t\n      POP \t\t\t\n      JUMP \t\t\t\n    tag 727\t\t\t\n      JUMPDEST \t\t\t\n      PUSH 0\t\t\t\n      DUP3 \t\t\t\n      DUP3 \t\t\t\n      MSTORE \t\t\t\n      PUSH 20\t\t\t\n      DUP3 \t\t\t\n      ADD \t\t\t\n      SWAP1 \t\t\t\n      POP \t\t\t\n      SWAP3 \t\t\t\n      SWAP2 \t\t\t\n      POP \t\t\t\n      POP \t\t\t\n      JUMP \t\t\t\n    tag 728\t\t\t\n      JUMPDEST \t\t\t\n      PUSH 0\t\t\t\n      DUP2 \t\t\t\n      SWAP1 \t\t\t\n      POP \t\t\t\n      PUSH 20\t\t\t\n      DUP3 \t\t\t\n      ADD \t\t\t\n      SWAP1 \t\t\t\n      POP \t\t\t\n      SWAP2 \t\t\t\n      SWAP1 \t\t\t\n      POP \t\t\t\n      JUMP \t\t\t\n    tag 729\t\t\t\n      JUMPDEST \t\t\t\n      PUSH [tag] 1116\t\t\t\n      DUP2 \t\t\t\n      PUSH [tag] 715\t\t\t\n      JUMP \t\t\t\n    tag 1116\t\t\t\n      JUMPDEST \t\t\t\n      DUP3 \t\t\t\n      MSTORE \t\t\t\n      POP \t\t\t\n      POP \t\t\t\n      JUMP \t\t\t\n    tag 730\t\t\t\n      JUMPDEST \t\t\t\n      PUSH 0\t\t\t\n      PUSH [tag] 1118\t\t\t\n      DUP4 \t\t\t\n      DUP4 \t\t\t\n      PUSH [tag] 729\t\t\t\n      JUMP \t\t\t\n    tag 1118\t\t\t\n      JUMPDEST \t\t\t\n      PUSH 20\t\t\t\n      DUP4 \t\t\t\n      ADD \t\t\t\n      SWAP1 \t\t\t\n      POP \t\t\t\n      SWAP3 \t\t\t\n      SWAP2 \t\t\t\n      POP \t\t\t\n      POP \t\t\t\n      JUMP \t\t\t\n    tag 731\t\t\t\n      JUMPDEST \t\t\t\n      PUSH 0\t\t\t\n      PUSH 20\t\t\t\n      DUP3 \t\t\t\n      ADD \t\t\t\n      SWAP1 \t\t\t\n      POP \t\t\t\n      SWAP2 \t\t\t\n      SWAP1 \t\t\t\n      POP \t\t\t\n      JUMP \t\t\t\n    tag 732\t\t\t\n      JUMPDEST \t\t\t\n      PUSH 0\t\t\t\n      PUSH [tag] 1121\t\t\t\n      DUP3 \t\t\t\n      PUSH [tag] 726\t\t\t\n      JUMP \t\t\t\n    tag 1121\t\t\t\n      JUMPDEST \t\t\t\n      PUSH [tag] 1122\t\t\t\n      DUP2 \t\t\t\n      DUP6 \t\t\t\n      PUSH [tag] 727\t\t\t\n      JUMP \t\t\t\n    tag 1122\t\t\t\n      JUMPDEST \t\t\t\n      SWAP4 \t\t\t\n      POP \t\t\t\n      PUSH [tag] 1123\t\t\t\n      DUP4 \t\t\t\n      PUSH [tag] 728\t\t\t\n      JUMP \t\t\t\n    tag 1123\t\t\t\n      JUMPDEST \t\t\t\n      DUP1 \t\t\t\n      PUSH 0\t\t\t\n    tag 1124\t\t\t\n      JUMPDEST \t\t\t\n      DUP4 \t\t\t\n      DUP2 \t\t\t\n      LT \t\t\t\n      ISZERO \t\t\t\n      PUSH [tag] 1126\t\t\t\n      JUMPI \t\t\t\n      DUP2 \t\t\t\n      MLOAD \t\t\t\n      PUSH [tag] 1127\t\t\t\n      DUP9 \t\t\t\n      DUP3 \t\t\t\n      PUSH [tag] 730\t\t\t\n      JUMP \t\t\t\n    tag 1127\t\t\t\n      JUMPDEST \t\t\t\n      SWAP8 \t\t\t\n      POP \t\t\t\n      PUSH [tag] 1128\t\t\t\n      DUP4 \t\t\t\n      PUSH [tag] 731\t\t\t\n      JUMP \t\t\t\n    tag 1128\t\t\t\n      JUMPDEST \t\t\t\n      SWAP3 \t\t\t\n      POP \t\t\t\n      POP \t\t\t\n      PUSH 1\t\t\t\n      DUP2 \t\t\t\n      ADD \t\t\t\n      SWAP1 \t\t\t\n      POP \t\t\t\n      PUSH [tag] 1124\t\t\t\n      JUMP \t\t\t\n    tag 1126\t\t\t\n      JUMPDEST \t\t\t\n      POP \t\t\t\n      DUP6 \t\t\t\n      SWAP4 \t\t\t\n      POP \t\t\t\n      POP \t\t\t\n      POP \t\t\t\n      POP \t\t\t\n      SWAP3 \t\t\t\n      SWAP2 \t\t\t\n      POP \t\t\t\n      POP \t\t\t\n      JUMP \t\t\t\n    tag 733\t\t\t\n      JUMPDEST \t\t\t\n      PUSH 0\t\t\t\n      DUP2 \t\t\t\n      MLOAD \t\t\t\n      SWAP1 \t\t\t\n      POP \t\t\t\n      SWAP2 \t\t\t\n      SWAP1 \t\t\t\n      POP \t\t\t\n      JUMP \t\t\t\n    tag 734\t\t\t\n      JUMPDEST \t\t\t\n      PUSH 0\t\t\t\n      DUP3 \t\t\t\n      DUP3 \t\t\t\n      MSTORE \t\t\t\n      PUSH 20\t\t\t\n      DUP3 \t\t\t\n      ADD \t\t\t\n      SWAP1 \t\t\t\n      POP \t\t\t\n      SWAP3 \t\t\t\n      SWAP2 \t\t\t\n      POP \t\t\t\n      POP \t\t\t\n      JUMP \t\t\t\n    tag 735\t\t\t\n      JUMPDEST \t\t\t\n      PUSH 0\t\t\t\n      DUP2 \t\t\t\n      SWAP1 \t\t\t\n      POP \t\t\t\n      PUSH 20\t\t\t\n      DUP3 \t\t\t\n      ADD \t\t\t\n      SWAP1 \t\t\t\n      POP \t\t\t\n      SWAP2 \t\t\t\n      SWAP1 \t\t\t\n      POP \t\t\t\n      JUMP \t\t\t\n    tag 736\t\t\t\n      JUMPDEST \t\t\t\n      PUSH 0\t\t\t\n      DUP3 \t\t\t\n      DUP3 \t\t\t\n      MSTORE \t\t\t\n      PUSH 20\t\t\t\n      DUP3 \t\t\t\n      ADD \t\t\t\n      SWAP1 \t\t\t\n      POP \t\t\t\n      SWAP3 \t\t\t\n      SWAP2 \t\t\t\n      POP \t\t\t\n      POP \t\t\t\n      JUMP \t\t\t\n    tag 737\t\t\t\n      JUMPDEST \t\t\t\n      PUSH 0\t\t\t\n      PUSH [tag] 1134\t\t\t\n      DUP3 \t\t\t\n      PUSH [tag] 673\t\t\t\n      JUMP \t\t\t\n    tag 1134\t\t\t\n      JUMPDEST \t\t\t\n      PUSH [tag] 1135\t\t\t\n      DUP2 \t\t\t\n      DUP6 \t\t\t\n      PUSH [tag] 736\t\t\t\n      JUMP \t\t\t\n    tag 1135\t\t\t\n      JUMPDEST \t\t\t\n      SWAP4 \t\t\t\n      POP \t\t\t\n      PUSH [tag] 1136\t\t\t\n      DUP2 \t\t\t\n      DUP6 \t\t\t\n      PUSH 20\t\t\t\n      DUP7 \t\t\t\n      ADD \t\t\t\n      PUSH [tag] 675\t\t\t\n      JUMP \t\t\t\n    tag 1136\t\t\t\n      JUMPDEST \t\t\t\n      PUSH [tag] 1137\t\t\t\n      DUP2 \t\t\t\n      PUSH [tag] 676\t\t\t\n      JUMP \t\t\t\n    tag 1137\t\t\t\n      JUMPDEST \t\t\t\n      DUP5 \t\t\t\n      ADD \t\t\t\n      SWAP2 \t\t\t\n      POP \t\t\t\n      POP \t\t\t\n      SWAP3 \t\t\t\n      SWAP2 \t\t\t\n      POP \t\t\t\n      POP \t\t\t\n      JUMP \t\t\t\n    tag 738\t\t\t\n      JUMPDEST \t\t\t\n      PUSH 0\t\t\t\n      PUSH 60\t\t\t\n      DUP4 \t\t\t\n      ADD \t\t\t\n      PUSH 0\t\t\t\n      DUP4 \t\t\t\n      ADD \t\t\t\n      MLOAD \t\t\t\n      DUP5 \t\t\t\n      DUP3 \t\t\t\n      SUB \t\t\t\n      PUSH 0\t\t\t\n      DUP7 \t\t\t\n      ADD \t\t\t\n      MSTORE \t\t\t\n      PUSH [tag] 1139\t\t\t\n      DUP3 \t\t\t\n      DUP3 \t\t\t\n      PUSH [tag] 737\t\t\t\n      JUMP \t\t\t\n    tag 1139\t\t\t\n      JUMPDEST \t\t\t\n      SWAP2 \t\t\t\n      POP \t\t\t\n      POP \t\t\t\n      PUSH 20\t\t\t\n      DUP4 \t\t\t\n      ADD \t\t\t\n      MLOAD \t\t\t\n      DUP5 \t\t\t\n      DUP3 \t\t\t\n      SUB \t\t\t\n      PUSH 20\t\t\t\n      DUP7 \t\t\t\n      ADD \t\t\t\n      MSTORE \t\t\t\n      PUSH [tag] 1140\t\t\t\n      DUP3 \t\t\t\n      DUP3 \t\t\t\n      PUSH [tag] 737\t\t\t\n      JUMP \t\t\t\n    tag 1140\t\t\t\n      JUMPDEST \t\t\t\n      SWAP2 \t\t\t\n      POP \t\t\t\n      POP \t\t\t\n      PUSH 40\t\t\t\n      DUP4 \t\t\t\n      ADD \t\t\t\n      MLOAD \t\t\t\n      DUP5 \t\t\t\n      DUP3 \t\t\t\n      SUB \t\t\t\n      PUSH 40\t\t\t\n      DUP7 \t\t\t\n      ADD \t\t\t\n      MSTORE \t\t\t\n      PUSH [tag] 1141\t\t\t\n      DUP3 \t\t\t\n      DUP3 \t\t\t\n      PUSH [tag] 737\t\t\t\n      JUMP \t\t\t\n    tag 1141\t\t\t\n      JUMPDEST \t\t\t\n      SWAP2 \t\t\t\n      POP \t\t\t\n      POP \t\t\t\n      DUP1 \t\t\t\n      SWAP2 \t\t\t\n      POP \t\t\t\n      POP \t\t\t\n      SWAP3 \t\t\t\n      SWAP2 \t\t\t\n      POP \t\t\t\n      POP \t\t\t\n      JUMP \t\t\t\n    tag 739\t\t\t\n      JUMPDEST \t\t\t\n      PUSH 0\t\t\t\n      PUSH [tag] 1143\t\t\t\n      DUP4 \t\t\t\n      DUP4 \t\t\t\n      PUSH [tag] 738\t\t\t\n      JUMP \t\t\t\n    tag 1143\t\t\t\n      JUMPDEST \t\t\t\n      SWAP1 \t\t\t\n      POP \t\t\t\n      SWAP3 \t\t\t\n      SWAP2 \t\t\t\n      POP \t\t\t\n      POP \t\t\t\n      JUMP \t\t\t\n    tag 740\t\t\t\n      JUMPDEST \t\t\t\n      PUSH 0\t\t\t\n      PUSH 20\t\t\t\n      DUP3 \t\t\t\n      ADD \t\t\t\n      SWAP1 \t\t\t\n      POP \t\t\t\n      SWAP2 \t\t\t\n      SWAP1 \t\t\t\n      POP \t\t\t\n      JUMP \t\t\t\n    tag 741\t\t\t\n      JUMPDEST \t\t\t\n      PUSH 0\t\t\t\n      PUSH [tag] 1146\t\t\t\n      DUP3 \t\t\t\n      PUSH [tag] 733\t\t\t\n      JUMP \t\t\t\n    tag 1146\t\t\t\n      JUMPDEST \t\t\t\n      PUSH [tag] 1147\t\t\t\n      DUP2 \t\t\t\n      DUP6 \t\t\t\n      PUSH [tag] 734\t\t\t\n      JUMP \t\t\t\n    tag 1147\t\t\t\n      JUMPDEST \t\t\t\n      SWAP4 \t\t\t\n      POP \t\t\t\n      DUP4 \t\t\t\n      PUSH 20\t\t\t\n      DUP3 \t\t\t\n      MUL \t\t\t\n      DUP6 \t\t\t\n      ADD \t\t\t\n      PUSH [tag] 1148\t\t\t\n      DUP6 \t\t\t\n      PUSH [tag] 735\t\t\t\n      JUMP \t\t\t\n    tag 1148\t\t\t\n      JUMPDEST \t\t\t\n      DUP1 \t\t\t\n      PUSH 0\t\t\t\n    tag 1149\t\t\t\n      JUMPDEST \t\t\t\n      DUP6 \t\t\t\n      DUP2 \t\t\t\n      LT \t\t\t\n      ISZERO \t\t\t\n      PUSH [tag] 1151\t\t\t\n      JUMPI \t\t\t\n      DUP5 \t\t\t\n      DUP5 \t\t\t\n      SUB \t\t\t\n      DUP10 \t\t\t\n      MSTORE \t\t\t\n      DUP2 \t\t\t\n      MLOAD \t\t\t\n      PUSH [tag] 1152\t\t\t\n      DUP6 \t\t\t\n      DUP3 \t\t\t\n      PUSH [tag] 739\t\t\t\n      JUMP \t\t\t\n    tag 1152\t\t\t\n      JUMPDEST \t\t\t\n      SWAP5 \t\t\t\n      POP \t\t\t\n      PUSH [tag] 1153\t\t\t\n      DUP4 \t\t\t\n      PUSH [tag] 740\t\t\t\n      JUMP \t\t\t\n    tag 1153\t\t\t\n      JUMPDEST \t\t\t\n      SWAP3 \t\t\t\n      POP \t\t\t\n      PUSH 20\t\t\t\n      DUP11 \t\t\t\n      ADD \t\t\t\n      SWAP10 \t\t\t\n      POP \t\t\t\n      POP \t\t\t\n      PUSH 1\t\t\t\n      DUP2 \t\t\t\n      ADD \t\t\t\n      SWAP1 \t\t\t\n      POP \t\t\t\n      PUSH [tag] 1149\t\t\t\n      JUMP \t\t\t\n    tag 1151\t\t\t\n      JUMPDEST \t\t\t\n      POP \t\t\t\n      DUP3 \t\t\t\n      SWAP8 \t\t\t\n      POP \t\t\t\n      DUP8 \t\t\t\n      SWAP6 \t\t\t\n      POP \t\t\t\n      POP \t\t\t\n      POP \t\t\t\n      POP \t\t\t\n      POP \t\t\t\n      POP \t\t\t\n      SWAP3 \t\t\t\n      SWAP2 \t\t\t\n      POP \t\t\t\n      POP \t\t\t\n      JUMP \t\t\t\n    tag 115\t\t\t\n      JUMPDEST \t\t\t\n      PUSH 0\t\t\t\n      PUSH 40\t\t\t\n      DUP3 \t\t\t\n      ADD \t\t\t\n      SWAP1 \t\t\t\n      POP \t\t\t\n      DUP2 \t\t\t\n      DUP2 \t\t\t\n      SUB \t\t\t\n      PUSH 0\t\t\t\n      DUP4 \t\t\t\n      ADD \t\t\t\n      MSTORE \t\t\t\n      PUSH [tag] 1155\t\t\t\n      DUP2 \t\t\t\n      DUP6 \t\t\t\n      PUSH [tag] 732\t\t\t\n      JUMP \t\t\t\n    tag 1155\t\t\t\n      JUMPDEST \t\t\t\n      SWAP1 \t\t\t\n      POP \t\t\t\n      DUP2 \t\t\t\n      DUP2 \t\t\t\n      SUB \t\t\t\n      PUSH 20\t\t\t\n      DUP4 \t\t\t\n      ADD \t\t\t\n      MSTORE \t\t\t\n      PUSH [tag] 1156\t\t\t\n      DUP2 \t\t\t\n      DUP5 \t\t\t\n      PUSH [tag] 741\t\t\t\n      JUMP \t\t\t\n    tag 1156\t\t\t\n      JUMPDEST \t\t\t\n      SWAP1 \t\t\t\n      POP \t\t\t\n      SWAP4 \t\t\t\n      SWAP3 \t\t\t\n      POP \t\t\t\n      POP \t\t\t\n      POP \t\t\t\n      JUMP \t\t\t\n    tag 742\t\t\t\n      JUMPDEST \t\t\t\n      PUSH [tag] 1158\t\t\t\n      DUP2 \t\t\t\n      PUSH [tag] 715\t\t\t\n      JUMP \t\t\t\n    tag 1158\t\t\t\n      JUMPDEST \t\t\t\n      DUP3 \t\t\t\n      MSTORE \t\t\t\n      POP \t\t\t\n      POP \t\t\t\n      JUMP \t\t\t\n    tag 120\t\t\t\n      JUMPDEST \t\t\t\n      PUSH 0\t\t\t\n      PUSH 20\t\t\t\n      DUP3 \t\t\t\n      ADD \t\t\t\n      SWAP1 \t\t\t\n      POP \t\t\t\n      PUSH [tag] 1160\t\t\t\n      PUSH 0\t\t\t\n      DUP4 \t\t\t\n      ADD \t\t\t\n      DUP5 \t\t\t\n      PUSH [tag] 742\t\t\t\n      JUMP \t\t\t\n    tag 1160\t\t\t\n      JUMPDEST \t\t\t\n      SWAP3 \t\t\t\n      SWAP2 \t\t\t\n      POP \t\t\t\n      POP \t\t\t\n      JUMP \t\t\t\n    tag 127\t\t\t\n      JUMPDEST \t\t\t\n      PUSH 0\t\t\t\n      DUP1 \t\t\t\n      PUSH 40\t\t\t\n      DUP4 \t\t\t\n      DUP6 \t\t\t\n      SUB \t\t\t\n      SLT \t\t\t\n      ISZERO \t\t\t\n      PUSH [tag] 1162\t\t\t\n      JUMPI \t\t\t\n      PUSH [tag] 1163\t\t\t\n      PUSH [tag] 658\t\t\t\n      JUMP \t\t\t\n    tag 1163\t\t\t\n      JUMPDEST \t\t\t\n    tag 1162\t\t\t\n      JUMPDEST \t\t\t\n      PUSH 0\t\t\t\n      PUSH [tag] 1164\t\t\t\n      DUP6 \t\t\t\n      DUP3 \t\t\t\n      DUP7 \t\t\t\n      ADD \t\t\t\n      PUSH [tag] 663\t\t\t\n      JUMP \t\t\t\n    tag 1164\t\t\t\n      JUMPDEST \t\t\t\n      SWAP3 \t\t\t\n      POP \t\t\t\n      POP \t\t\t\n      PUSH 20\t\t\t\n      PUSH [tag] 1165\t\t\t\n      DUP6 \t\t\t\n      DUP3 \t\t\t\n      DUP7 \t\t\t\n      ADD \t\t\t\n      PUSH [tag] 663\t\t\t\n      JUMP \t\t\t\n    tag 1165\t\t\t\n      JUMPDEST \t\t\t\n      SWAP2 \t\t\t\n      POP \t\t\t\n      POP \t\t\t\n      SWAP3 \t\t\t\n      POP \t\t\t\n      SWAP3 \t\t\t\n      SWAP1 \t\t\t\n      POP \t\t\t\n      JUMP \t\t\t\n    tag 132\t\t\t\n      JUMPDEST \t\t\t\n      PUSH 0\t\t\t\n      DUP1 \t\t\t\n      PUSH 0\t\t\t\n      DUP1 \t\t\t\n      PUSH 0\t\t\t\n      PUSH A0\t\t\t\n      DUP7 \t\t\t\n      DUP9 \t\t\t\n      SUB \t\t\t\n      SLT \t\t\t\n      ISZERO \t\t\t\n      PUSH [tag] 1167\t\t\t\n      JUMPI \t\t\t\n      PUSH [tag] 1168\t\t\t\n      PUSH [tag] 658\t\t\t\n      JUMP \t\t\t\n    tag 1168\t\t\t\n      JUMPDEST \t\t\t\n    tag 1167\t\t\t\n      JUMPDEST \t\t\t\n      PUSH 0\t\t\t\n      PUSH [tag] 1169\t\t\t\n      DUP9 \t\t\t\n      DUP3 \t\t\t\n      DUP10 \t\t\t\n      ADD \t\t\t\n      PUSH [tag] 663\t\t\t\n      JUMP \t\t\t\n    tag 1169\t\t\t\n      JUMPDEST \t\t\t\n      SWAP6 \t\t\t\n      POP \t\t\t\n      POP \t\t\t\n      PUSH 20\t\t\t\n      PUSH [tag] 1170\t\t\t\n      DUP9 \t\t\t\n      DUP3 \t\t\t\n      DUP10 \t\t\t\n      ADD \t\t\t\n      PUSH [tag] 663\t\t\t\n      JUMP \t\t\t\n    tag 1170\t\t\t\n      JUMPDEST \t\t\t\n      SWAP5 \t\t\t\n      POP \t\t\t\n      POP \t\t\t\n      PUSH 40\t\t\t\n      PUSH [tag] 1171\t\t\t\n      DUP9 \t\t\t\n      DUP3 \t\t\t\n      DUP10 \t\t\t\n      ADD \t\t\t\n      PUSH [tag] 666\t\t\t\n      JUMP \t\t\t\n    tag 1171\t\t\t\n      JUMPDEST \t\t\t\n      SWAP4 \t\t\t\n      POP \t\t\t\n      POP \t\t\t\n      PUSH 60\t\t\t\n      PUSH [tag] 1172\t\t\t\n      DUP9 \t\t\t\n      DUP3 \t\t\t\n      DUP10 \t\t\t\n      ADD \t\t\t\n      PUSH [tag] 666\t\t\t\n      JUMP \t\t\t\n    tag 1172\t\t\t\n      JUMPDEST \t\t\t\n      SWAP3 \t\t\t\n      POP \t\t\t\n      POP \t\t\t\n      PUSH 80\t\t\t\n      DUP7 \t\t\t\n      ADD \t\t\t\n      CALLDATALOAD \t\t\t\n      PUSH FFFFFFFFFFFFFFFF\t\t\t\n      DUP2 \t\t\t\n      GT \t\t\t\n      ISZERO \t\t\t\n      PUSH [tag] 1173\t\t\t\n      JUMPI \t\t\t\n      PUSH [tag] 1174\t\t\t\n      PUSH [tag] 659\t\t\t\n      JUMP \t\t\t\n    tag 1174\t\t\t\n      JUMPDEST \t\t\t\n    tag 1173\t\t\t\n      JUMPDEST \t\t\t\n      PUSH [tag] 1175\t\t\t\n      DUP9 \t\t\t\n      DUP3 \t\t\t\n      DUP10 \t\t\t\n      ADD \t\t\t\n      PUSH [tag] 697\t\t\t\n      JUMP \t\t\t\n    tag 1175\t\t\t\n      JUMPDEST \t\t\t\n      SWAP2 \t\t\t\n      POP \t\t\t\n      POP \t\t\t\n      SWAP3 \t\t\t\n      SWAP6 \t\t\t\n      POP \t\t\t\n      SWAP3 \t\t\t\n      SWAP6 \t\t\t\n      SWAP1 \t\t\t\n      SWAP4 \t\t\t\n      POP \t\t\t\n      JUMP \t\t\t\n    tag 139\t\t\t\n      JUMPDEST \t\t\t\n      PUSH 0\t\t\t\n      DUP1 \t\t\t\n      PUSH 0\t\t\t\n      PUSH 60\t\t\t\n      DUP5 \t\t\t\n      DUP7 \t\t\t\n      SUB \t\t\t\n      SLT \t\t\t\n      ISZERO \t\t\t\n      PUSH [tag] 1177\t\t\t\n      JUMPI \t\t\t\n      PUSH [tag] 1178\t\t\t\n      PUSH [tag] 658\t\t\t\n      JUMP \t\t\t\n    tag 1178\t\t\t\n      JUMPDEST \t\t\t\n    tag 1177\t\t\t\n      JUMPDEST \t\t\t\n      PUSH 0\t\t\t\n      PUSH [tag] 1179\t\t\t\n      DUP7 \t\t\t\n      DUP3 \t\t\t\n      DUP8 \t\t\t\n      ADD \t\t\t\n      PUSH [tag] 663\t\t\t\n      JUMP \t\t\t\n    tag 1179\t\t\t\n      JUMPDEST \t\t\t\n      SWAP4 \t\t\t\n      POP \t\t\t\n      POP \t\t\t\n      PUSH 20\t\t\t\n      PUSH [tag] 1180\t\t\t\n      DUP7 \t\t\t\n      DUP3 \t\t\t\n      DUP8 \t\t\t\n      ADD \t\t\t\n      PUSH [tag] 666\t\t\t\n      JUMP \t\t\t\n    tag 1180\t\t\t\n      JUMPDEST \t\t\t\n      SWAP3 \t\t\t\n      POP \t\t\t\n      POP \t\t\t\n      PUSH 40\t\t\t\n      PUSH [tag] 1181\t\t\t\n      DUP7 \t\t\t\n      DUP3 \t\t\t\n      DUP8 \t\t\t\n      ADD \t\t\t\n      PUSH [tag] 666\t\t\t\n      JUMP \t\t\t\n    tag 1181\t\t\t\n      JUMPDEST \t\t\t\n      SWAP2 \t\t\t\n      POP \t\t\t\n      POP \t\t\t\n      SWAP3 \t\t\t\n      POP \t\t\t\n      SWAP3 \t\t\t\n      POP \t\t\t\n      SWAP3 \t\t\t\n      JUMP \t\t\t\n    tag 743\t\t\t\n      JUMPDEST \t\t\t\n      PUSH 4E487B7100000000000000000000000000000000000000000000000000000000\t\t\t\n      PUSH 0\t\t\t\n      MSTORE \t\t\t\n      PUSH 22\t\t\t\n      PUSH 4\t\t\t\n      MSTORE \t\t\t\n      PUSH 24\t\t\t\n      PUSH 0\t\t\t\n      REVERT \t\t\t\n    tag 149\t\t\t\n      JUMPDEST \t\t\t\n      PUSH 0\t\t\t\n      PUSH 2\t\t\t\n      DUP3 \t\t\t\n      DIV \t\t\t\n      SWAP1 \t\t\t\n      POP \t\t\t\n      PUSH 1\t\t\t\n      DUP3 \t\t\t\n      AND \t\t\t\n      DUP1 \t\t\t\n      PUSH [tag] 1184\t\t\t\n      JUMPI \t\t\t\n      PUSH 7F\t\t\t\n      DUP3 \t\t\t\n      AND \t\t\t\n      SWAP2 \t\t\t\n      POP \t\t\t\n    tag 1184\t\t\t\n      JUMPDEST \t\t\t\n      PUSH 20\t\t\t\n      DUP3 \t\t\t\n      LT \t\t\t\n      DUP2 \t\t\t\n      SUB \t\t\t\n      PUSH [tag] 1185\t\t\t\n      JUMPI \t\t\t\n      PUSH [tag] 1186\t\t\t\n      PUSH [tag] 743\t\t\t\n      JUMP \t\t\t\n    tag 1186\t\t\t\n      JUMPDEST \t\t\t\n    tag 1185\t\t\t\n      JUMPDEST \t\t\t\n      POP \t\t\t\n      SWAP2 \t\t\t\n      SWAP1 \t\t\t\n      POP \t\t\t\n      JUMP \t\t\t\n    tag 163\t\t\t\n      JUMPDEST \t\t\t\n      PUSH 4E487B7100000000000000000000000000000000000000000000000000000000\t\t\t\n      PUSH 0\t\t\t\n      MSTORE \t\t\t\n      PUSH 32\t\t\t\n      PUSH 4\t\t\t\n      MSTORE \t\t\t\n      PUSH 24\t\t\t\n      PUSH 0\t\t\t\n      REVERT \t\t\t\n    tag 744\t\t\t\n      JUMPDEST \t\t\t\n      PUSH 4E487B7100000000000000000000000000000000000000000000000000000000\t\t\t\n      PUSH 0\t\t\t\n      MSTORE \t\t\t\n      PUSH 11\t\t\t\n      PUSH 4\t\t\t\n      MSTORE \t\t\t\n      PUSH 24\t\t\t\n      PUSH 0\t\t\t\n      REVERT \t\t\t\n    tag 167\t\t\t\n      JUMPDEST \t\t\t\n      PUSH 0\t\t\t\n      PUSH [tag] 1190\t\t\t\n      DUP3 \t\t\t\n      PUSH [tag] 664\t\t\t\n      JUMP \t\t\t\n    tag 1190\t\t\t\n      JUMPDEST \t\t\t\n      SWAP2 \t\t\t\n      POP \t\t\t\n      PUSH [tag] 1191\t\t\t\n      DUP4 \t\t\t\n      PUSH [tag] 664\t\t\t\n      JUMP \t\t\t\n    tag 1191\t\t\t\n      JUMPDEST \t\t\t\n      SWAP3 \t\t\t\n      POP \t\t\t\n      DUP3 \t\t\t\n      DUP3 \t\t\t\n      SUB \t\t\t\n      SWAP1 \t\t\t\n      POP \t\t\t\n      DUP2 \t\t\t\n      DUP2 \t\t\t\n      GT \t\t\t\n      ISZERO \t\t\t\n      PUSH [tag] 1192\t\t\t\n      JUMPI \t\t\t\n      PUSH [tag] 1193\t\t\t\n      PUSH [tag] 744\t\t\t\n      JUMP \t\t\t\n    tag 1193\t\t\t\n      JUMPDEST \t\t\t\n    tag 1192\t\t\t\n      JUMPDEST \t\t\t\n      SWAP3 \t\t\t\n      SWAP2 \t\t\t\n      POP \t\t\t\n      POP \t\t\t\n      JUMP \t\t\t\n    tag 176\t\t\t\n      JUMPDEST \t\t\t\n      PUSH 4E487B7100000000000000000000000000000000000000000000000000000000\t\t\t\n      PUSH 0\t\t\t\n      MSTORE \t\t\t\n      PUSH 31\t\t\t\n      PUSH 4\t\t\t\n      MSTORE \t\t\t\n      PUSH 24\t\t\t\n      PUSH 0\t\t\t\n      REVERT \t\t\t\n    tag 179\t\t\t\n      JUMPDEST \t\t\t\n      PUSH 0\t\t\t\n      PUSH [tag] 1196\t\t\t\n      DUP3 \t\t\t\n      PUSH [tag] 664\t\t\t\n      JUMP \t\t\t\n    tag 1196\t\t\t\n      JUMPDEST \t\t\t\n      SWAP2 \t\t\t\n      POP \t\t\t\n      PUSH FFFFFFFFFFFFFFFFFFFFFFFFFFFFFFFFFFFFFFFFFFFFFFFFFFFFFFFFFFFFFFFF\t\t\t\n      DUP3 \t\t\t\n      SUB \t\t\t\n      PUSH [tag] 1197\t\t\t\n      JUMPI \t\t\t\n      PUSH [tag] 1198\t\t\t\n      PUSH [tag] 744\t\t\t\n      JUMP \t\t\t\n    tag 1198\t\t\t\n      JUMPDEST \t\t\t\n    tag 1197\t\t\t\n      JUMPDEST \t\t\t\n      PUSH 1\t\t\t\n      DUP3 \t\t\t\n      ADD \t\t\t\n      SWAP1 \t\t\t\n      POP \t\t\t\n      SWAP2 \t\t\t\n      SWAP1 \t\t\t\n      POP \t\t\t\n      JUMP \t\t\t\n    tag 745\t\t\t\n      JUMPDEST \t\t\t\n      PUSH 41646D696E206E6F7420666F756E640000000000000000000000000000000000\t\t\t\n      PUSH 0\t\t\t\n      DUP3 \t\t\t\n      ADD \t\t\t\n      MSTORE \t\t\t\n      POP \t\t\t\n      JUMP \t\t\t\n    tag 746\t\t\t\n      JUMPDEST \t\t\t\n      PUSH 0\t\t\t\n      PUSH [tag] 1201\t\t\t\n      PUSH F\t\t\t\n      DUP4 \t\t\t\n      PUSH [tag] 674\t\t\t\n      JUMP \t\t\t\n    tag 1201\t\t\t\n      JUMPDEST \t\t\t\n      SWAP2 \t\t\t\n      POP \t\t\t\n      PUSH [tag] 1202\t\t\t\n      DUP3 \t\t\t\n      PUSH [tag] 745\t\t\t\n      JUMP \t\t\t\n    tag 1202\t\t\t\n      JUMPDEST \t\t\t\n      PUSH 20\t\t\t\n      DUP3 \t\t\t\n      ADD \t\t\t\n      SWAP1 \t\t\t\n      POP \t\t\t\n      SWAP2 \t\t\t\n      SWAP1 \t\t\t\n      POP \t\t\t\n      JUMP \t\t\t\n    tag 181\t\t\t\n      JUMPDEST \t\t\t\n      PUSH 0\t\t\t\n      PUSH 20\t\t\t\n      DUP3 \t\t\t\n      ADD \t\t\t\n      SWAP1 \t\t\t\n      POP \t\t\t\n      DUP2 \t\t\t\n      DUP2 \t\t\t\n      SUB \t\t\t\n      PUSH 0\t\t\t\n      DUP4 \t\t\t\n      ADD \t\t\t\n      MSTORE \t\t\t\n      PUSH [tag] 1204\t\t\t\n      DUP2 \t\t\t\n      PUSH [tag] 746\t\t\t\n      JUMP \t\t\t\n    tag 1204\t\t\t\n      JUMPDEST \t\t\t\n      SWAP1 \t\t\t\n      POP \t\t\t\n      SWAP2 \t\t\t\n      SWAP1 \t\t\t\n      POP \t\t\t\n      JUMP \t\t\t\n    tag 747\t\t\t\n      JUMPDEST \t\t\t\n      PUSH 4E616D6520726571756972656400000000000000000000000000000000000000\t\t\t\n      PUSH 0\t\t\t\n      DUP3 \t\t\t\n      ADD \t\t\t\n      MSTORE \t\t\t\n      POP \t\t\t\n      JUMP \t\t\t\n    tag 748\t\t\t\n      JUMPDEST \t\t\t\n      PUSH 0\t\t\t\n      PUSH [tag] 1207\t\t\t\n      PUSH D\t\t\t\n      DUP4 \t\t\t\n      PUSH [tag] 674\t\t\t\n      JUMP \t\t\t\n    tag 1207\t\t\t\n      JUMPDEST \t\t\t\n      SWAP2 \t\t\t\n      POP \t\t\t\n      PUSH [tag] 1208\t\t\t\n      DUP3 \t\t\t\n      PUSH [tag] 747\t\t\t\n      JUMP \t\t\t\n    tag 1208\t\t\t\n      JUMPDEST \t\t\t\n      PUSH 20\t\t\t\n      DUP3 \t\t\t\n      ADD \t\t\t\n      SWAP1 \t\t\t\n      POP \t\t\t\n      SWAP2 \t\t\t\n      SWAP1 \t\t\t\n      POP \t\t\t\n      JUMP \t\t\t\n    tag 185\t\t\t\n      JUMPDEST \t\t\t\n      PUSH 0\t\t\t\n      PUSH 20\t\t\t\n      DUP3 \t\t\t\n      ADD \t\t\t\n      SWAP1 \t\t\t\n      POP \t\t\t\n      DUP2 \t\t\t\n      DUP2 \t\t\t\n      SUB \t\t\t\n      PUSH 0\t\t\t\n      DUP4 \t\t\t\n      ADD \t\t\t\n      MSTORE \t\t\t\n      PUSH [tag] 1210\t\t\t\n      DUP2 \t\t\t\n      PUSH [tag] 748\t\t\t\n      JUMP \t\t\t\n    tag 1210\t\t\t\n      JUMPDEST \t\t\t\n      SWAP1 \t\t\t\n      POP \t\t\t\n      SWAP2 \t\t\t\n      SWAP1 \t\t\t\n      POP \t\t\t\n      JUMP \t\t\t\n    tag 749\t\t\t\n      JUMPDEST \t\t\t\n      PUSH 0\t\t\t\n      DUP2 \t\t\t\n      SWAP1 \t\t\t\n      POP \t\t\t\n      SWAP3 \t\t\t\n      SWAP2 \t\t\t\n      POP \t\t\t\n      POP \t\t\t\n      JUMP \t\t\t\n    tag 750\t\t\t\n      JUMPDEST \t\t\t\n      PUSH 0\t\t\t\n      PUSH [tag] 1213\t\t\t\n      DUP4 \t\t\t\n      DUP6 \t\t\t\n      PUSH [tag] 749\t\t\t\n      JUMP \t\t\t\n    tag 1213\t\t\t\n      JUMPDEST \t\t\t\n      SWAP4 \t\t\t\n      POP \t\t\t\n      PUSH [tag] 1214\t\t\t\n      DUP4 \t\t\t\n      DUP6 \t\t\t\n      DUP5 \t\t\t\n      PUSH [tag] 695\t\t\t\n      JUMP \t\t\t\n    tag 1214\t\t\t\n      JUMPDEST \t\t\t\n      DUP3 \t\t\t\n      DUP5 \t\t\t\n      ADD \t\t\t\n      SWAP1 \t\t\t\n      POP \t\t\t\n      SWAP4 \t\t\t\n      SWAP3 \t\t\t\n      POP \t\t\t\n      POP \t\t\t\n      POP \t\t\t\n      JUMP \t\t\t\n    tag 192\t\t\t\n      JUMPDEST \t\t\t\n      PUSH 0\t\t\t\n      PUSH [tag] 1216\t\t\t\n      DUP3 \t\t\t\n      DUP5 \t\t\t\n      DUP7 \t\t\t\n      PUSH [tag] 750\t\t\t\n      JUMP \t\t\t\n    tag 1216\t\t\t\n      JUMPDEST \t\t\t\n      SWAP2 \t\t\t\n      POP \t\t\t\n      DUP2 \t\t\t\n      SWAP1 \t\t\t\n      POP \t\t\t\n      SWAP4 \t\t\t\n      SWAP3 \t\t\t\n      POP \t\t\t\n      POP \t\t\t\n      POP \t\t\t\n      JUMP \t\t\t\n    tag 751\t\t\t\n      JUMPDEST \t\t\t\n      PUSH 0\t\t\t\n      DUP2 \t\t\t\n      SWAP1 \t\t\t\n      POP \t\t\t\n      DUP2 \t\t\t\n      PUSH 0\t\t\t\n      MSTORE \t\t\t\n      PUSH 20\t\t\t\n      PUSH 0\t\t\t\n      KECCAK256 \t\t\t\n      SWAP1 \t\t\t\n      POP \t\t\t\n      SWAP2 \t\t\t\n      SWAP1 \t\t\t\n      POP \t\t\t\n      JUMP \t\t\t\n    tag 752\t\t\t\n      JUMPDEST \t\t\t\n      PUSH 0\t\t\t\n      DUP2 \t\t\t\n      SLOAD \t\t\t\n      PUSH [tag] 1219\t\t\t\n      DUP2 \t\t\t\n      PUSH [tag] 149\t\t\t\n      JUMP \t\t\t\n    tag 1219\t\t\t\n      JUMPDEST \t\t\t\n      PUSH [tag] 1220\t\t\t\n      DUP2 \t\t\t\n      DUP7 \t\t\t\n      PUSH [tag] 749\t\t\t\n      JUMP \t\t\t\n    tag 1220\t\t\t\n      JUMPDEST \t\t\t\n      SWAP5 \t\t\t\n      POP \t\t\t\n      PUSH 1\t\t\t\n      DUP3 \t\t\t\n      AND \t\t\t\n      PUSH 0\t\t\t\n      DUP2 \t\t\t\n      EQ \t\t\t\n      PUSH [tag] 1222\t\t\t\n      JUMPI \t\t\t\n      PUSH 1\t\t\t\n      DUP2 \t\t\t\n      EQ \t\t\t\n      PUSH [tag] 1223\t\t\t\n      JUMPI \t\t\t\n      PUSH [tag] 1221\t\t\t\n      JUMP \t\t\t\n    tag 1222\t\t\t\n      JUMPDEST \t\t\t\n      PUSH FF\t\t\t\n      NOT \t\t\t\n      DUP4 \t\t\t\n      AND \t\t\t\n      DUP7 \t\t\t\n      MSTORE \t\t\t\n      DUP2 \t\t\t\n      ISZERO \t\t\t\n      ISZERO \t\t\t\n      DUP3 \t\t\t\n      MUL \t\t\t\n      DUP7 \t\t\t\n      ADD \t\t\t\n      SWAP4 \t\t\t\n      POP \t\t\t\n      PUSH [tag] 1221\t\t\t\n      JUMP \t\t\t\n    tag 1223\t\t\t\n      JUMPDEST \t\t\t\n      PUSH [tag] 1224\t\t\t\n      DUP6 \t\t\t\n      PUSH [tag] 751\t\t\t\n      JUMP \t\t\t\n    tag 1224\t\t\t\n      JUMPDEST \t\t\t\n      PUSH 0\t\t\t\n    tag 1225\t\t\t\n      JUMPDEST \t\t\t\n      DUP4 \t\t\t\n      DUP2 \t\t\t\n      LT \t\t\t\n      ISZERO \t\t\t\n      PUSH [tag] 1227\t\t\t\n      JUMPI \t\t\t\n      DUP2 \t\t\t\n      SLOAD \t\t\t\n      DUP2 \t\t\t\n      DUP10 \t\t\t\n      ADD \t\t\t\n      MSTORE \t\t\t\n      PUSH 1\t\t\t\n      DUP3 \t\t\t\n      ADD \t\t\t\n      SWAP2 \t\t\t\n      POP \t\t\t\n      PUSH 20\t\t\t\n      DUP2 \t\t\t\n      ADD \t\t\t\n      SWAP1 \t\t\t\n      POP \t\t\t\n      PUSH [tag] 1225\t\t\t\n      JUMP \t\t\t\n    tag 1227\t\t\t\n      JUMPDEST \t\t\t\n      DUP4 \t\t\t\n      DUP9 \t\t\t\n      ADD \t\t\t\n      SWAP6 \t\t\t\n      POP \t\t\t\n      POP \t\t\t\n      POP \t\t\t\n    tag 1221\t\t\t\n      JUMPDEST \t\t\t\n      POP \t\t\t\n      POP \t\t\t\n      POP \t\t\t\n      SWAP3 \t\t\t\n      SWAP2 \t\t\t\n      POP \t\t\t\n      POP \t\t\t\n      JUMP \t\t\t\n    tag 196\t\t\t\n      JUMPDEST \t\t\t\n      PUSH 0\t\t\t\n      PUSH [tag] 1229\t\t\t\n      DUP3 \t\t\t\n      DUP5 \t\t\t\n      PUSH [tag] 752\t\t\t\n      JUMP \t\t\t\n    tag 1229\t\t\t\n      JUMPDEST \t\t\t\n      SWAP2 \t\t\t\n      POP \t\t\t\n      DUP2 \t\t\t\n      SWAP1 \t\t\t\n      POP \t\t\t\n      SWAP3 \t\t\t\n      SWAP2 \t\t\t\n      POP \t\t\t\n      POP \t\t\t\n      JUMP \t\t\t\n    tag 753\t\t\t\n      JUMPDEST \t\t\t\n      PUSH 0\t\t\t\n      DUP2 \t\t\t\n      SWAP1 \t\t\t\n      POP \t\t\t\n      SWAP2 \t\t\t\n      SWAP1 \t\t\t\n      POP \t\t\t\n      JUMP \t\t\t\n    tag 754\t\t\t\n      JUMPDEST \t\t\t\n      PUSH [tag] 1232\t\t\t\n      PUSH [tag] 1233\t\t\t\n      DUP3 \t\t\t\n      PUSH [tag] 664\t\t\t\n      JUMP \t\t\t\n    tag 1233\t\t\t\n      JUMPDEST \t\t\t\n      PUSH [tag] 753\t\t\t\n      JUMP \t\t\t\n    tag 1232\t\t\t\n      JUMPDEST \t\t\t\n      DUP3 \t\t\t\n      MSTORE \t\t\t\n      POP \t\t\t\n      POP \t\t\t\n      JUMP \t\t\t\n    tag 755\t\t\t\n      JUMPDEST \t\t\t\n      PUSH 0\t\t\t\n      DUP2 \t\t\t\n      PUSH 60\t\t\t\n      SHL \t\t\t\n      SWAP1 \t\t\t\n      POP \t\t\t\n      SWAP2 \t\t\t\n      SWAP1 \t\t\t\n      POP \t\t\t\n      JUMP \t\t\t\n    tag 756\t\t\t\n      JUMPDEST \t\t\t\n      PUSH 0\t\t\t\n      PUSH [tag] 1236\t\t\t\n      DUP3 \t\t\t\n      PUSH [tag] 755\t\t\t\n      JUMP \t\t\t\n    tag 1236\t\t\t\n      JUMPDEST \t\t\t\n      SWAP1 \t\t\t\n      POP \t\t\t\n      SWAP2 \t\t\t\n      SWAP1 \t\t\t\n      POP \t\t\t\n      JUMP \t\t\t\n    tag 757\t\t\t\n      JUMPDEST \t\t\t\n      PUSH 0\t\t\t\n      PUSH [tag] 1238\t\t\t\n      DUP3 \t\t\t\n      PUSH [tag] 756\t\t\t\n      JUMP \t\t\t\n    tag 1238\t\t\t\n      JUMPDEST \t\t\t\n      SWAP1 \t\t\t\n      POP \t\t\t\n      SWAP2 \t\t\t\n      SWAP1 \t\t\t\n      POP \t\t\t\n      JUMP \t\t\t\n    tag 758\t\t\t\n      JUMPDEST \t\t\t\n      PUSH [tag] 1240\t\t\t\n      PUSH [tag] 1241\t\t\t\n      DUP3 \t\t\t\n      PUSH [tag] 661\t\t\t\n      JUMP \t\t\t\n    tag 1241\t\t\t\n      JUMPDEST \t\t\t\n      PUSH [tag] 757\t\t\t\n      JUMP \t\t\t\n    tag 1240\t\t\t\n      JUMPDEST \t\t\t\n      DUP3 \t\t\t\n      MSTORE \t\t\t\n      POP \t\t\t\n      POP \t\t\t\n      JUMP \t\t\t\n    tag 759\t\t\t\n      JUMPDEST \t\t\t\n      PUSH 0\t\t\t\n      DUP2 \t\t\t\n      SWAP1 \t\t\t\n      POP \t\t\t\n      SWAP3 \t\t\t\n      SWAP2 \t\t\t\n      POP \t\t\t\n      POP \t\t\t\n      JUMP \t\t\t\n    tag 760\t\t\t\n      JUMPDEST \t\t\t\n      PUSH 0\t\t\t\n      PUSH [tag] 1244\t\t\t\n      DUP4 \t\t\t\n      DUP6 \t\t\t\n      PUSH [tag] 759\t\t\t\n      JUMP \t\t\t\n    tag 1244\t\t\t\n      JUMPDEST \t\t\t\n      SWAP4 \t\t\t\n      POP \t\t\t\n      PUSH [tag] 1245\t\t\t\n      DUP4 \t\t\t\n      DUP6 \t\t\t\n      DUP5 \t\t\t\n      PUSH [tag] 695\t\t\t\n      JUMP \t\t\t\n    tag 1245\t\t\t\n      JUMPDEST \t\t\t\n      DUP3 \t\t\t\n      DUP5 \t\t\t\n      ADD \t\t\t\n      SWAP1 \t\t\t\n      POP \t\t\t\n      SWAP4 \t\t\t\n      SWAP3 \t\t\t\n      POP \t\t\t\n      POP \t\t\t\n      POP \t\t\t\n      JUMP \t\t\t\n    tag 209\t\t\t\n      JUMPDEST \t\t\t\n      PUSH 0\t\t\t\n      PUSH [tag] 1247\t\t\t\n      DUP3 \t\t\t\n      DUP10 \t\t\t\n      PUSH [tag] 754\t\t\t\n      JUMP \t\t\t\n    tag 1247\t\t\t\n      JUMPDEST \t\t\t\n      PUSH 20\t\t\t\n      DUP3 \t\t\t\n      ADD \t\t\t\n      SWAP2 \t\t\t\n      POP \t\t\t\n      PUSH [tag] 1248\t\t\t\n      DUP3 \t\t\t\n      DUP9 \t\t\t\n      PUSH [tag] 754\t\t\t\n      JUMP \t\t\t\n    tag 1248\t\t\t\n      JUMPDEST \t\t\t\n      PUSH 20\t\t\t\n      DUP3 \t\t\t\n      ADD \t\t\t\n      SWAP2 \t\t\t\n      POP \t\t\t\n      PUSH [tag] 1249\t\t\t\n      DUP3 \t\t\t\n      DUP8 \t\t\t\n      PUSH [tag] 758\t\t\t\n      JUMP \t\t\t\n    tag 1249\t\t\t\n      JUMPDEST \t\t\t\n      PUSH 14\t\t\t\n      DUP3 \t\t\t\n      ADD \t\t\t\n      SWAP2 \t\t\t\n      POP \t\t\t\n      PUSH [tag] 1250\t\t\t\n      DUP3 \t\t\t\n      DUP6 \t\t\t\n      DUP8 \t\t\t\n      PUSH [tag] 760\t\t\t\n      JUMP \t\t\t\n    tag 1250\t\t\t\n      JUMPDEST \t\t\t\n      SWAP2 \t\t\t\n      POP \t\t\t\n      PUSH [tag] 1251\t\t\t\n      DUP3 \t\t\t\n      DUP5 \t\t\t\n      PUSH [tag] 754\t\t\t\n      JUMP \t\t\t\n    tag 1251\t\t\t\n      JUMPDEST \t\t\t\n      PUSH 20\t\t\t\n      DUP3 \t\t\t\n      ADD \t\t\t\n      SWAP2 \t\t\t\n      POP \t\t\t\n      DUP2 \t\t\t\n      SWAP1 \t\t\t\n      POP \t\t\t\n      SWAP8 \t\t\t\n      SWAP7 \t\t\t\n      POP \t\t\t\n      POP \t\t\t\n      POP \t\t\t\n      POP \t\t\t\n      POP \t\t\t\n      POP \t\t\t\n      POP \t\t\t\n      JUMP \t\t\t\n    tag 761\t\t\t\n      JUMPDEST \t\t\t\n      PUSH 4E487B7100000000000000000000000000000000000000000000000000000000\t\t\t\n      PUSH 0\t\t\t\n      MSTORE \t\t\t\n      PUSH 12\t\t\t\n      PUSH 4\t\t\t\n      MSTORE \t\t\t\n      PUSH 24\t\t\t\n      PUSH 0\t\t\t\n      REVERT \t\t\t\n    tag 211\t\t\t\n      JUMPDEST \t\t\t\n      PUSH 0\t\t\t\n      PUSH [tag] 1254\t\t\t\n      DUP3 \t\t\t\n      PUSH [tag] 664\t\t\t\n      JUMP \t\t\t\n    tag 1254\t\t\t\n      JUMPDEST \t\t\t\n      SWAP2 \t\t\t\n      POP \t\t\t\n      PUSH [tag] 1255\t\t\t\n      DUP4 \t\t\t\n      PUSH [tag] 664\t\t\t\n      JUMP \t\t\t\n    tag 1255\t\t\t\n      JUMPDEST \t\t\t\n      SWAP3 \t\t\t\n      POP \t\t\t\n      DUP3 \t\t\t\n      PUSH [tag] 1256\t\t\t\n      JUMPI \t\t\t\n      PUSH [tag] 1257\t\t\t\n      PUSH [tag] 761\t\t\t\n      JUMP \t\t\t\n    tag 1257\t\t\t\n      JUMPDEST \t\t\t\n    tag 1256\t\t\t\n      JUMPDEST \t\t\t\n      DUP3 \t\t\t\n      DUP3 \t\t\t\n      MOD \t\t\t\n      SWAP1 \t\t\t\n      POP \t\t\t\n      SWAP3 \t\t\t\n      SWAP2 \t\t\t\n      POP \t\t\t\n      POP \t\t\t\n      JUMP \t\t\t\n    tag 213\t\t\t\n      JUMPDEST \t\t\t\n      PUSH 0\t\t\t\n      PUSH [tag] 1259\t\t\t\n      DUP3 \t\t\t\n      PUSH [tag] 664\t\t\t\n      JUMP \t\t\t\n    tag 1259\t\t\t\n      JUMPDEST \t\t\t\n      SWAP2 \t\t\t\n      POP \t\t\t\n      PUSH [tag] 1260\t\t\t\n      DUP4 \t\t\t\n      PUSH [tag] 664\t\t\t\n      JUMP \t\t\t\n    tag 1260\t\t\t\n      JUMPDEST \t\t\t\n      SWAP3 \t\t\t\n      POP \t\t\t\n      DUP3 \t\t\t\n      DUP3 \t\t\t\n      ADD \t\t\t\n      SWAP1 \t\t\t\n      POP \t\t\t\n      DUP1 \t\t\t\n      DUP3 \t\t\t\n      GT \t\t\t\n      ISZERO \t\t\t\n      PUSH [tag] 1261\t\t\t\n      JUMPI \t\t\t\n      PUSH [tag] 1262\t\t\t\n      PUSH [tag] 744\t\t\t\n      JUMP \t\t\t\n    tag 1262\t\t\t\n      JUMPDEST \t\t\t\n    tag 1261\t\t\t\n      JUMPDEST \t\t\t\n      SWAP3 \t\t\t\n      SWAP2 \t\t\t\n      POP \t\t\t\n      POP \t\t\t\n      JUMP \t\t\t\n    tag 762\t\t\t\n      JUMPDEST \t\t\t\n      PUSH 556E61626C6520746F2066696E6420756E697175652073686F727420746F6B65\t\t\t\n      PUSH 0\t\t\t\n      DUP3 \t\t\t\n      ADD \t\t\t\n      MSTORE \t\t\t\n      PUSH 6E20494400000000000000000000000000000000000000000000000000000000\t\t\t\n      PUSH 20\t\t\t\n      DUP3 \t\t\t\n      ADD \t\t\t\n      MSTORE \t\t\t\n      POP \t\t\t\n      JUMP \t\t\t\n    tag 763\t\t\t\n      JUMPDEST \t\t\t\n      PUSH 0\t\t\t\n      PUSH [tag] 1265\t\t\t\n      PUSH 24\t\t\t\n      DUP4 \t\t\t\n      PUSH [tag] 674\t\t\t\n      JUMP \t\t\t\n    tag 1265\t\t\t\n      JUMPDEST \t\t\t\n      SWAP2 \t\t\t\n      POP \t\t\t\n      PUSH [tag] 1266\t\t\t\n      DUP3 \t\t\t\n      PUSH [tag] 762\t\t\t\n      JUMP \t\t\t\n    tag 1266\t\t\t\n      JUMPDEST \t\t\t\n      PUSH 40\t\t\t\n      DUP3 \t\t\t\n      ADD \t\t\t\n      SWAP1 \t\t\t\n      POP \t\t\t\n      SWAP2 \t\t\t\n      SWAP1 \t\t\t\n      POP \t\t\t\n      JUMP \t\t\t\n    tag 217\t\t\t\n      JUMPDEST \t\t\t\n      PUSH 0\t\t\t\n      PUSH 20\t\t\t\n      DUP3 \t\t\t\n      ADD \t\t\t\n      SWAP1 \t\t\t\n      POP \t\t\t\n      DUP2 \t\t\t\n      DUP2 \t\t\t\n      SUB \t\t\t\n      PUSH 0\t\t\t\n      DUP4 \t\t\t\n      ADD \t\t\t\n      MSTORE \t\t\t\n      PUSH [tag] 1268\t\t\t\n      DUP2 \t\t\t\n      PUSH [tag] 763\t\t\t\n      JUMP \t\t\t\n    tag 1268\t\t\t\n      JUMPDEST \t\t\t\n      SWAP1 \t\t\t\n      POP \t\t\t\n      SWAP2 \t\t\t\n      SWAP1 \t\t\t\n      POP \t\t\t\n      JUMP \t\t\t\n    tag 764\t\t\t\n      JUMPDEST \t\t\t\n      PUSH 546F6B656E494454616B656E0000000000000000000000000000000000000000\t\t\t\n      PUSH 0\t\t\t\n      DUP3 \t\t\t\n      ADD \t\t\t\n      MSTORE \t\t\t\n      POP \t\t\t\n      JUMP \t\t\t\n    tag 765\t\t\t\n      JUMPDEST \t\t\t\n      PUSH 0\t\t\t\n      PUSH [tag] 1271\t\t\t\n      PUSH C\t\t\t\n      DUP4 \t\t\t\n      PUSH [tag] 674\t\t\t\n      JUMP \t\t\t\n    tag 1271\t\t\t\n      JUMPDEST \t\t\t\n      SWAP2 \t\t\t\n      POP \t\t\t\n      PUSH [tag] 1272\t\t\t\n      DUP3 \t\t\t\n      PUSH [tag] 764\t\t\t\n      JUMP \t\t\t\n    tag 1272\t\t\t\n      JUMPDEST \t\t\t\n      PUSH 20\t\t\t\n      DUP3 \t\t\t\n      ADD \t\t\t\n      SWAP1 \t\t\t\n      POP \t\t\t\n      SWAP2 \t\t\t\n      SWAP1 \t\t\t\n      POP \t\t\t\n      JUMP \t\t\t\n    tag 224\t\t\t\n      JUMPDEST \t\t\t\n      PUSH 0\t\t\t\n      PUSH 20\t\t\t\n      DUP3 \t\t\t\n      ADD \t\t\t\n      SWAP1 \t\t\t\n      POP \t\t\t\n      DUP2 \t\t\t\n      DUP2 \t\t\t\n      SUB \t\t\t\n      PUSH 0\t\t\t\n      DUP4 \t\t\t\n      ADD \t\t\t\n      MSTORE \t\t\t\n      PUSH [tag] 1274\t\t\t\n      DUP2 \t\t\t\n      PUSH [tag] 765\t\t\t\n      JUMP \t\t\t\n    tag 1274\t\t\t\n      JUMPDEST \t\t\t\n      SWAP1 \t\t\t\n      POP \t\t\t\n      SWAP2 \t\t\t\n      SWAP1 \t\t\t\n      POP \t\t\t\n      JUMP \t\t\t\n    tag 766\t\t\t\n      JUMPDEST \t\t\t\n      PUSH 0\t\t\t\n      DUP3 \t\t\t\n      SWAP1 \t\t\t\n      POP \t\t\t\n      SWAP3 \t\t\t\n      SWAP2 \t\t\t\n      POP \t\t\t\n      POP \t\t\t\n      JUMP \t\t\t\n    tag 767\t\t\t\n      JUMPDEST \t\t\t\n      PUSH 0\t\t\t\n      DUP2 \t\t\t\n      SWAP1 \t\t\t\n      POP \t\t\t\n      DUP2 \t\t\t\n      PUSH 0\t\t\t\n      MSTORE \t\t\t\n      PUSH 20\t\t\t\n      PUSH 0\t\t\t\n      KECCAK256 \t\t\t\n      SWAP1 \t\t\t\n      POP \t\t\t\n      SWAP2 \t\t\t\n      SWAP1 \t\t\t\n      POP \t\t\t\n      JUMP \t\t\t\n    tag 768\t\t\t\n      JUMPDEST \t\t\t\n      PUSH 0\t\t\t\n      PUSH 20\t\t\t\n      PUSH 1F\t\t\t\n      DUP4 \t\t\t\n      ADD \t\t\t\n      DIV \t\t\t\n      SWAP1 \t\t\t\n      POP \t\t\t\n      SWAP2 \t\t\t\n      SWAP1 \t\t\t\n      POP \t\t\t\n      JUMP \t\t\t\n    tag 769\t\t\t\n      JUMPDEST \t\t\t\n      PUSH 0\t\t\t\n      DUP3 \t\t\t\n      DUP3 \t\t\t\n      SHL \t\t\t\n      SWAP1 \t\t\t\n      POP \t\t\t\n      SWAP3 \t\t\t\n      SWAP2 \t\t\t\n      POP \t\t\t\n      POP \t\t\t\n      JUMP \t\t\t\n    tag 770\t\t\t\n      JUMPDEST \t\t\t\n      PUSH 0\t\t\t\n      PUSH 8\t\t\t\n      DUP4 \t\t\t\n      MUL \t\t\t\n      PUSH [tag] 1280\t\t\t\n      PUSH FFFFFFFFFFFFFFFFFFFFFFFFFFFFFFFFFFFFFFFFFFFFFFFFFFFFFFFFFFFFFFFF\t\t\t\n      DUP3 \t\t\t\n      PUSH [tag] 769\t\t\t\n      JUMP \t\t\t\n    tag 1280\t\t\t\n      JUMPDEST \t\t\t\n      PUSH [tag] 1281\t\t\t\n      DUP7 \t\t\t\n      DUP4 \t\t\t\n      PUSH [tag] 769\t\t\t\n      JUMP \t\t\t\n    tag 1281\t\t\t\n      JUMPDEST \t\t\t\n      SWAP6 \t\t\t\n      POP \t\t\t\n      DUP1 \t\t\t\n      NOT \t\t\t\n      DUP5 \t\t\t\n      AND \t\t\t\n      SWAP4 \t\t\t\n      POP \t\t\t\n      DUP1 \t\t\t\n      DUP7 \t\t\t\n      AND \t\t\t\n      DUP5 \t\t\t\n      OR \t\t\t\n      SWAP3 \t\t\t\n      POP \t\t\t\n      POP \t\t\t\n      POP \t\t\t\n      SWAP4 \t\t\t\n      SWAP3 \t\t\t\n      POP \t\t\t\n      POP \t\t\t\n      POP \t\t\t\n      JUMP \t\t\t\n    tag 771\t\t\t\n      JUMPDEST \t\t\t\n      PUSH 0\t\t\t\n      PUSH [tag] 1283\t\t\t\n      PUSH [tag] 1284\t\t\t\n      PUSH [tag] 1285\t\t\t\n      DUP5 \t\t\t\n      PUSH [tag] 664\t\t\t\n      JUMP \t\t\t\n    tag 1285\t\t\t\n      JUMPDEST \t\t\t\n      PUSH [tag] 678\t\t\t\n      JUMP \t\t\t\n    tag 1284\t\t\t\n      JUMPDEST \t\t\t\n      PUSH [tag] 664\t\t\t\n      JUMP \t\t\t\n    tag 1283\t\t\t\n      JUMPDEST \t\t\t\n      SWAP1 \t\t\t\n      POP \t\t\t\n      SWAP2 \t\t\t\n      SWAP1 \t\t\t\n      POP \t\t\t\n      JUMP \t\t\t\n    tag 772\t\t\t\n      JUMPDEST \t\t\t\n      PUSH 0\t\t\t\n      DUP2 \t\t\t\n      SWAP1 \t\t\t\n      POP \t\t\t\n      SWAP2 \t\t\t\n      SWAP1 \t\t\t\n      POP \t\t\t\n      JUMP \t\t\t\n    tag 773\t\t\t\n      JUMPDEST \t\t\t\n      PUSH [tag] 1288\t\t\t\n      DUP4 \t\t\t\n      PUSH [tag] 771\t\t\t\n      JUMP \t\t\t\n    tag 1288\t\t\t\n      JUMPDEST \t\t\t\n      PUSH [tag] 1289\t\t\t\n      PUSH [tag] 1290\t\t\t\n      DUP3 \t\t\t\n      PUSH [tag] 772\t\t\t\n      JUMP \t\t\t\n    tag 1290\t\t\t\n      JUMPDEST \t\t\t\n      DUP5 \t\t\t\n      DUP5 \t\t\t\n      SLOAD \t\t\t\n      PUSH [tag] 770\t\t\t\n      JUMP \t\t\t\n    tag 1289\t\t\t\n      JUMPDEST \t\t\t\n      DUP3 \t\t\t\n      SSTORE \t\t\t\n      POP \t\t\t\n      POP \t\t\t\n      POP \t\t\t\n      POP \t\t\t\n      JUMP \t\t\t\n    tag 774\t\t\t\n      JUMPDEST \t\t\t\n      PUSH 0\t\t\t\n      SWAP1 \t\t\t\n      JUMP \t\t\t\n    tag 775\t\t\t\n      JUMPDEST \t\t\t\n      PUSH [tag] 1293\t\t\t\n      PUSH [tag] 774\t\t\t\n      JUMP \t\t\t\n    tag 1293\t\t\t\n      JUMPDEST \t\t\t\n      PUSH [tag] 1294\t\t\t\n      DUP2 \t\t\t\n      DUP5 \t\t\t\n      DUP5 \t\t\t\n      PUSH [tag] 773\t\t\t\n      JUMP \t\t\t\n    tag 1294\t\t\t\n      JUMPDEST \t\t\t\n      POP \t\t\t\n      POP \t\t\t\n      POP \t\t\t\n      JUMP \t\t\t\n    tag 776\t\t\t\n      JUMPDEST \t\t\t\n    tag 1296\t\t\t\n      JUMPDEST \t\t\t\n      DUP2 \t\t\t\n      DUP2 \t\t\t\n      LT \t\t\t\n      ISZERO \t\t\t\n      PUSH [tag] 1298\t\t\t\n      JUMPI \t\t\t\n      PUSH [tag] 1299\t\t\t\n      PUSH 0\t\t\t\n      DUP3 \t\t\t\n      PUSH [tag] 775\t\t\t\n      JUMP \t\t\t\n    tag 1299\t\t\t\n      JUMPDEST \t\t\t\n      PUSH 1\t\t\t\n      DUP2 \t\t\t\n      ADD \t\t\t\n      SWAP1 \t\t\t\n      POP \t\t\t\n      PUSH [tag] 1296\t\t\t\n      JUMP \t\t\t\n    tag 1298\t\t\t\n      JUMPDEST \t\t\t\n      POP \t\t\t\n      POP \t\t\t\n      JUMP \t\t\t\n    tag 777\t\t\t\n      JUMPDEST \t\t\t\n      PUSH 1F\t\t\t\n      DUP3 \t\t\t\n      GT \t\t\t\n      ISZERO \t\t\t\n      PUSH [tag] 1301\t\t\t\n      JUMPI \t\t\t\n      PUSH [tag] 1302\t\t\t\n      DUP2 \t\t\t\n      PUSH [tag] 767\t\t\t\n      JUMP \t\t\t\n    tag 1302\t\t\t\n      JUMPDEST \t\t\t\n      PUSH [tag] 1303\t\t\t\n      DUP5 \t\t\t\n      PUSH [tag] 768\t\t\t\n      JUMP \t\t\t\n    tag 1303\t\t\t\n      JUMPDEST \t\t\t\n      DUP2 \t\t\t\n      ADD \t\t\t\n      PUSH 20\t\t\t\n      DUP6 \t\t\t\n      LT \t\t\t\n      ISZERO \t\t\t\n      PUSH [tag] 1304\t\t\t\n      JUMPI \t\t\t\n      DUP2 \t\t\t\n      SWAP1 \t\t\t\n      POP \t\t\t\n    tag 1304\t\t\t\n      JUMPDEST \t\t\t\n      PUSH [tag] 1305\t\t\t\n      PUSH [tag] 1306\t\t\t\n      DUP6 \t\t\t\n      PUSH [tag] 768\t\t\t\n      JUMP \t\t\t\n    tag 1306\t\t\t\n      JUMPDEST \t\t\t\n      DUP4 \t\t\t\n      ADD \t\t\t\n      DUP3 \t\t\t\n      PUSH [tag] 776\t\t\t\n      JUMP \t\t\t\n    tag 1305\t\t\t\n      JUMPDEST \t\t\t\n      POP \t\t\t\n      POP \t\t\t\n    tag 1301\t\t\t\n      JUMPDEST \t\t\t\n      POP \t\t\t\n      POP \t\t\t\n      POP \t\t\t\n      JUMP \t\t\t\n    tag 778\t\t\t\n      JUMPDEST \t\t\t\n      PUSH 0\t\t\t\n      DUP3 \t\t\t\n      DUP3 \t\t\t\n      SHR \t\t\t\n      SWAP1 \t\t\t\n      POP \t\t\t\n      SWAP3 \t\t\t\n      SWAP2 \t\t\t\n      POP \t\t\t\n      POP \t\t\t\n      JUMP \t\t\t\n    tag 779\t\t\t\n      JUMPDEST \t\t\t\n      PUSH 0\t\t\t\n      PUSH [tag] 1309\t\t\t\n      PUSH 0\t\t\t\n      NOT \t\t\t\n      DUP5 \t\t\t\n      PUSH 8\t\t\t\n      MUL \t\t\t\n      PUSH [tag] 778\t\t\t\n      JUMP \t\t\t\n    tag 1309\t\t\t\n      JUMPDEST \t\t\t\n      NOT \t\t\t\n      DUP1 \t\t\t\n      DUP4 \t\t\t\n      AND \t\t\t\n      SWAP2 \t\t\t\n      POP \t\t\t\n      POP \t\t\t\n      SWAP3 \t\t\t\n      SWAP2 \t\t\t\n      POP \t\t\t\n      POP \t\t\t\n      JUMP \t\t\t\n    tag 780\t\t\t\n      JUMPDEST \t\t\t\n      PUSH 0\t\t\t\n      PUSH [tag] 1311\t\t\t\n      DUP4 \t\t\t\n      DUP4 \t\t\t\n      PUSH [tag] 779\t\t\t\n      JUMP \t\t\t\n    tag 1311\t\t\t\n      JUMPDEST \t\t\t\n      SWAP2 \t\t\t\n      POP \t\t\t\n      DUP3 \t\t\t\n      PUSH 2\t\t\t\n      MUL \t\t\t\n      DUP3 \t\t\t\n      OR \t\t\t\n      SWAP1 \t\t\t\n      POP \t\t\t\n      SWAP3 \t\t\t\n      SWAP2 \t\t\t\n      POP \t\t\t\n      POP \t\t\t\n      JUMP \t\t\t\n    tag 227\t\t\t\n      JUMPDEST \t\t\t\n      PUSH [tag] 1313\t\t\t\n      DUP4 \t\t\t\n      DUP4 \t\t\t\n      PUSH [tag] 766\t\t\t\n      JUMP \t\t\t\n    tag 1313\t\t\t\n      JUMPDEST \t\t\t\n      PUSH FFFFFFFFFFFFFFFF\t\t\t\n      DUP2 \t\t\t\n      GT \t\t\t\n      ISZERO \t\t\t\n      PUSH [tag] 1314\t\t\t\n      JUMPI \t\t\t\n      PUSH [tag] 1315\t\t\t\n      PUSH [tag] 259\t\t\t\n      JUMP \t\t\t\n    tag 1315\t\t\t\n      JUMPDEST \t\t\t\n    tag 1314\t\t\t\n      JUMPDEST \t\t\t\n      PUSH [tag] 1316\t\t\t\n      DUP3 \t\t\t\n      SLOAD \t\t\t\n      PUSH [tag] 149\t\t\t\n      JUMP \t\t\t\n    tag 1316\t\t\t\n      JUMPDEST \t\t\t\n      PUSH [tag] 1317\t\t\t\n      DUP3 \t\t\t\n      DUP3 \t\t\t\n      DUP6 \t\t\t\n      PUSH [tag] 777\t\t\t\n      JUMP \t\t\t\n    tag 1317\t\t\t\n      JUMPDEST \t\t\t\n      PUSH 0\t\t\t\n      PUSH 1F\t\t\t\n      DUP4 \t\t\t\n      GT \t\t\t\n      PUSH 1\t\t\t\n      DUP2 \t\t\t\n      EQ \t\t\t\n      PUSH [tag] 1319\t\t\t\n      JUMPI \t\t\t\n      PUSH 0\t\t\t\n      DUP5 \t\t\t\n      ISZERO \t\t\t\n      PUSH [tag] 1320\t\t\t\n      JUMPI \t\t\t\n      DUP3 \t\t\t\n      DUP8 \t\t\t\n      ADD \t\t\t\n      CALLDATALOAD \t\t\t\n      SWAP1 \t\t\t\n      POP \t\t\t\n    tag 1320\t\t\t\n      JUMPDEST \t\t\t\n      PUSH [tag] 1321\t\t\t\n      DUP6 \t\t\t\n      DUP3 \t\t\t\n      PUSH [tag] 780\t\t\t\n      JUMP \t\t\t\n    tag 1321\t\t\t\n      JUMPDEST \t\t\t\n      DUP7 \t\t\t\n      SSTORE \t\t\t\n      POP \t\t\t\n      PUSH [tag] 1318\t\t\t\n      JUMP \t\t\t\n    tag 1319\t\t\t\n      JUMPDEST \t\t\t\n      PUSH 1F\t\t\t\n      NOT \t\t\t\n      DUP5 \t\t\t\n      AND \t\t\t\n      PUSH [tag] 1322\t\t\t\n      DUP7 \t\t\t\n      PUSH [tag] 767\t\t\t\n      JUMP \t\t\t\n    tag 1322\t\t\t\n      JUMPDEST \t\t\t\n      PUSH 0\t\t\t\n    tag 1323\t\t\t\n      JUMPDEST \t\t\t\n      DUP3 \t\t\t\n      DUP2 \t\t\t\n      LT \t\t\t\n      ISZERO \t\t\t\n      PUSH [tag] 1325\t\t\t\n      JUMPI \t\t\t\n      DUP5 \t\t\t\n      DUP10 \t\t\t\n      ADD \t\t\t\n      CALLDATALOAD \t\t\t\n      DUP3 \t\t\t\n      SSTORE \t\t\t\n      PUSH 1\t\t\t\n      DUP3 \t\t\t\n      ADD \t\t\t\n      SWAP2 \t\t\t\n      POP \t\t\t\n      PUSH 20\t\t\t\n      DUP6 \t\t\t\n      ADD \t\t\t\n      SWAP5 \t\t\t\n      POP \t\t\t\n      PUSH 20\t\t\t\n      DUP2 \t\t\t\n      ADD \t\t\t\n      SWAP1 \t\t\t\n      POP \t\t\t\n      PUSH [tag] 1323\t\t\t\n      JUMP \t\t\t\n    tag 1325\t\t\t\n      JUMPDEST \t\t\t\n      DUP7 \t\t\t\n      DUP4 \t\t\t\n      LT \t\t\t\n      ISZERO \t\t\t\n      PUSH [tag] 1326\t\t\t\n      JUMPI \t\t\t\n      DUP5 \t\t\t\n      DUP10 \t\t\t\n      ADD \t\t\t\n      CALLDATALOAD \t\t\t\n      PUSH [tag] 1327\t\t\t\n      PUSH 1F\t\t\t\n      DUP10 \t\t\t\n      AND \t\t\t\n      DUP3 \t\t\t\n      PUSH [tag] 779\t\t\t\n      JUMP \t\t\t\n    tag 1327\t\t\t\n      JUMPDEST \t\t\t\n      DUP4 \t\t\t\n      SSTORE \t\t\t\n      POP \t\t\t\n    tag 1326\t\t\t\n      JUMPDEST \t\t\t\n      PUSH 1\t\t\t\n      PUSH 2\t\t\t\n      DUP9 \t\t\t\n      MUL \t\t\t\n      ADD \t\t\t\n      DUP9 \t\t\t\n      SSTORE \t\t\t\n      POP \t\t\t\n      POP \t\t\t\n      POP \t\t\t\n    tag 1318\t\t\t\n      JUMPDEST \t\t\t\n      POP \t\t\t\n      POP \t\t\t\n      POP \t\t\t\n      POP \t\t\t\n      POP \t\t\t\n      POP \t\t\t\n      POP \t\t\t\n      JUMP \t\t\t\n    tag 781\t\t\t\n      JUMPDEST \t\t\t\n      PUSH 455243313135353A204D69736D617463686564206172726179206C656E677468\t\t\t\n      PUSH 0\t\t\t\n      DUP3 \t\t\t\n      ADD \t\t\t\n      MSTORE \t\t\t\n      PUSH 7300000000000000000000000000000000000000000000000000000000000000\t\t\t\n      PUSH 20\t\t\t\n      DUP3 \t\t\t\n      ADD \t\t\t\n      MSTORE \t\t\t\n      POP \t\t\t\n      JUMP \t\t\t\n    tag 782\t\t\t\n      JUMPDEST \t\t\t\n      PUSH 0\t\t\t\n      PUSH [tag] 1330\t\t\t\n      PUSH 21\t\t\t\n      DUP4 \t\t\t\n      PUSH [tag] 674\t\t\t\n      JUMP \t\t\t\n    tag 1330\t\t\t\n      JUMPDEST \t\t\t\n      SWAP2 \t\t\t\n      POP \t\t\t\n      PUSH [tag] 1331\t\t\t\n      DUP3 \t\t\t\n      PUSH [tag] 781\t\t\t\n      JUMP \t\t\t\n    tag 1331\t\t\t\n      JUMPDEST \t\t\t\n      PUSH 40\t\t\t\n      DUP3 \t\t\t\n      ADD \t\t\t\n      SWAP1 \t\t\t\n      POP \t\t\t\n      SWAP2 \t\t\t\n      SWAP1 \t\t\t\n      POP \t\t\t\n      JUMP \t\t\t\n    tag 231\t\t\t\n      JUMPDEST \t\t\t\n      PUSH 0\t\t\t\n      PUSH 20\t\t\t\n      DUP3 \t\t\t\n      ADD \t\t\t\n      SWAP1 \t\t\t\n      POP \t\t\t\n      DUP2 \t\t\t\n      DUP2 \t\t\t\n      SUB \t\t\t\n      PUSH 0\t\t\t\n      DUP4 \t\t\t\n      ADD \t\t\t\n      MSTORE \t\t\t\n      PUSH [tag] 1333\t\t\t\n      DUP2 \t\t\t\n      PUSH [tag] 782\t\t\t\n      JUMP \t\t\t\n    tag 1333\t\t\t\n      JUMPDEST \t\t\t\n      SWAP1 \t\t\t\n      POP \t\t\t\n      SWAP2 \t\t\t\n      SWAP1 \t\t\t\n      POP \t\t\t\n      JUMP \t\t\t\n    tag 783\t\t\t\n      JUMPDEST \t\t\t\n      PUSH 455243313135353A207472616E7366657220746F20746865207A65726F206164\t\t\t\n      PUSH 0\t\t\t\n      DUP3 \t\t\t\n      ADD \t\t\t\n      MSTORE \t\t\t\n      PUSH 6472657373000000000000000000000000000000000000000000000000000000\t\t\t\n      PUSH 20\t\t\t\n      DUP3 \t\t\t\n      ADD \t\t\t\n      MSTORE \t\t\t\n      POP \t\t\t\n      JUMP \t\t\t\n    tag 784\t\t\t\n      JUMPDEST \t\t\t\n      PUSH 0\t\t\t\n      PUSH [tag] 1336\t\t\t\n      PUSH 25\t\t\t\n      DUP4 \t\t\t\n      PUSH [tag] 674\t\t\t\n      JUMP \t\t\t\n    tag 1336\t\t\t\n      JUMPDEST \t\t\t\n      SWAP2 \t\t\t\n      POP \t\t\t\n      PUSH [tag] 1337\t\t\t\n      DUP3 \t\t\t\n      PUSH [tag] 783\t\t\t\n      JUMP \t\t\t\n    tag 1337\t\t\t\n      JUMPDEST \t\t\t\n      PUSH 40\t\t\t\n      DUP3 \t\t\t\n      ADD \t\t\t\n      SWAP1 \t\t\t\n      POP \t\t\t\n      SWAP2 \t\t\t\n      SWAP1 \t\t\t\n      POP \t\t\t\n      JUMP \t\t\t\n    tag 234\t\t\t\n      JUMPDEST \t\t\t\n      PUSH 0\t\t\t\n      PUSH 20\t\t\t\n      DUP3 \t\t\t\n      ADD \t\t\t\n      SWAP1 \t\t\t\n      POP \t\t\t\n      DUP2 \t\t\t\n      DUP2 \t\t\t\n      SUB \t\t\t\n      PUSH 0\t\t\t\n      DUP4 \t\t\t\n      ADD \t\t\t\n      MSTORE \t\t\t\n      PUSH [tag] 1339\t\t\t\n      DUP2 \t\t\t\n      PUSH [tag] 784\t\t\t\n      JUMP \t\t\t\n    tag 1339\t\t\t\n      JUMPDEST \t\t\t\n      SWAP1 \t\t\t\n      POP \t\t\t\n      SWAP2 \t\t\t\n      SWAP1 \t\t\t\n      POP \t\t\t\n      JUMP \t\t\t\n    tag 256\t\t\t\n      JUMPDEST \t\t\t\n      PUSH 0\t\t\t\n      PUSH 40\t\t\t\n      DUP3 \t\t\t\n      ADD \t\t\t\n      SWAP1 \t\t\t\n      POP \t\t\t\n      PUSH [tag] 1341\t\t\t\n      PUSH 0\t\t\t\n      DUP4 \t\t\t\n      ADD \t\t\t\n      DUP6 \t\t\t\n      PUSH [tag] 667\t\t\t\n      JUMP \t\t\t\n    tag 1341\t\t\t\n      JUMPDEST \t\t\t\n      PUSH [tag] 1342\t\t\t\n      PUSH 20\t\t\t\n      DUP4 \t\t\t\n      ADD \t\t\t\n      DUP5 \t\t\t\n      PUSH [tag] 667\t\t\t\n      JUMP \t\t\t\n    tag 1342\t\t\t\n      JUMPDEST \t\t\t\n      SWAP4 \t\t\t\n      SWAP3 \t\t\t\n      POP \t\t\t\n      POP \t\t\t\n      POP \t\t\t\n      JUMP \t\t\t\n    tag 785\t\t\t\n      JUMPDEST \t\t\t\n      PUSH 746F6B656E20696420646F6573206E6F74206578697374000000000000000000\t\t\t\n      PUSH 0\t\t\t\n      DUP3 \t\t\t\n      ADD \t\t\t\n      MSTORE \t\t\t\n      POP \t\t\t\n      JUMP \t\t\t\n    tag 786\t\t\t\n      JUMPDEST \t\t\t\n      PUSH 0\t\t\t\n      PUSH [tag] 1345\t\t\t\n      PUSH 17\t\t\t\n      DUP4 \t\t\t\n      PUSH [tag] 674\t\t\t\n      JUMP \t\t\t\n    tag 1345\t\t\t\n      JUMPDEST \t\t\t\n      SWAP2 \t\t\t\n      POP \t\t\t\n      PUSH [tag] 1346\t\t\t\n      DUP3 \t\t\t\n      PUSH [tag] 785\t\t\t\n      JUMP \t\t\t\n    tag 1346\t\t\t\n      JUMPDEST \t\t\t\n      PUSH 20\t\t\t\n      DUP3 \t\t\t\n      ADD \t\t\t\n      SWAP1 \t\t\t\n      POP \t\t\t\n      SWAP2 \t\t\t\n      SWAP1 \t\t\t\n      POP \t\t\t\n      JUMP \t\t\t\n    tag 276\t\t\t\n      JUMPDEST \t\t\t\n      PUSH 0\t\t\t\n      PUSH 20\t\t\t\n      DUP3 \t\t\t\n      ADD \t\t\t\n      SWAP1 \t\t\t\n      POP \t\t\t\n      DUP2 \t\t\t\n      DUP2 \t\t\t\n      SUB \t\t\t\n      PUSH 0\t\t\t\n      DUP4 \t\t\t\n      ADD \t\t\t\n      MSTORE \t\t\t\n      PUSH [tag] 1348\t\t\t\n      DUP2 \t\t\t\n      PUSH [tag] 786\t\t\t\n      JUMP \t\t\t\n    tag 1348\t\t\t\n      JUMPDEST \t\t\t\n      SWAP1 \t\t\t\n      POP \t\t\t\n      SWAP2 \t\t\t\n      SWAP1 \t\t\t\n      POP \t\t\t\n      JUMP \t\t\t\n    tag 787\t\t\t\n      JUMPDEST \t\t\t\n      PUSH 50726F6F66207265717565737420646F6573206E6F7420657869737400000000\t\t\t\n      PUSH 0\t\t\t\n      DUP3 \t\t\t\n      ADD \t\t\t\n      MSTORE \t\t\t\n      POP \t\t\t\n      JUMP \t\t\t\n    tag 788\t\t\t\n      JUMPDEST \t\t\t\n      PUSH 0\t\t\t\n      PUSH [tag] 1351\t\t\t\n      PUSH 1C\t\t\t\n      DUP4 \t\t\t\n      PUSH [tag] 674\t\t\t\n      JUMP \t\t\t\n    tag 1351\t\t\t\n      JUMPDEST \t\t\t\n      SWAP2 \t\t\t\n      POP \t\t\t\n      PUSH [tag] 1352\t\t\t\n      DUP3 \t\t\t\n      PUSH [tag] 787\t\t\t\n      JUMP \t\t\t\n    tag 1352\t\t\t\n      JUMPDEST \t\t\t\n      PUSH 20\t\t\t\n      DUP3 \t\t\t\n      ADD \t\t\t\n      SWAP1 \t\t\t\n      POP \t\t\t\n      SWAP2 \t\t\t\n      SWAP1 \t\t\t\n      POP \t\t\t\n      JUMP \t\t\t\n    tag 280\t\t\t\n      JUMPDEST \t\t\t\n      PUSH 0\t\t\t\n      PUSH 20\t\t\t\n      DUP3 \t\t\t\n      ADD \t\t\t\n      SWAP1 \t\t\t\n      POP \t\t\t\n      DUP2 \t\t\t\n      DUP2 \t\t\t\n      SUB \t\t\t\n      PUSH 0\t\t\t\n      DUP4 \t\t\t\n      ADD \t\t\t\n      MSTORE \t\t\t\n      PUSH [tag] 1354\t\t\t\n      DUP2 \t\t\t\n      PUSH [tag] 788\t\t\t\n      JUMP \t\t\t\n    tag 1354\t\t\t\n      JUMPDEST \t\t\t\n      SWAP1 \t\t\t\n      POP \t\t\t\n      SWAP2 \t\t\t\n      SWAP1 \t\t\t\n      POP \t\t\t\n      JUMP \t\t\t\n    tag 789\t\t\t\n      JUMPDEST \t\t\t\n      PUSH 4E6F207370656E64696E6720636F6E646974696F6E20746F2064656C65746500\t\t\t\n      PUSH 0\t\t\t\n      DUP3 \t\t\t\n      ADD \t\t\t\n      MSTORE \t\t\t\n      POP \t\t\t\n      JUMP \t\t\t\n    tag 790\t\t\t\n      JUMPDEST \t\t\t\n      PUSH 0\t\t\t\n      PUSH [tag] 1357\t\t\t\n      PUSH 1F\t\t\t\n      DUP4 \t\t\t\n      PUSH [tag] 674\t\t\t\n      JUMP \t\t\t\n    tag 1357\t\t\t\n      JUMPDEST \t\t\t\n      SWAP2 \t\t\t\n      POP \t\t\t\n      PUSH [tag] 1358\t\t\t\n      DUP3 \t\t\t\n      PUSH [tag] 789\t\t\t\n      JUMP \t\t\t\n    tag 1358\t\t\t\n      JUMPDEST \t\t\t\n      PUSH 20\t\t\t\n      DUP3 \t\t\t\n      ADD \t\t\t\n      SWAP1 \t\t\t\n      POP \t\t\t\n      SWAP2 \t\t\t\n      SWAP1 \t\t\t\n      POP \t\t\t\n      JUMP \t\t\t\n    tag 284\t\t\t\n      JUMPDEST \t\t\t\n      PUSH 0\t\t\t\n      PUSH 20\t\t\t\n      DUP3 \t\t\t\n      ADD \t\t\t\n      SWAP1 \t\t\t\n      POP \t\t\t\n      DUP2 \t\t\t\n      DUP2 \t\t\t\n      SUB \t\t\t\n      PUSH 0\t\t\t\n      DUP4 \t\t\t\n      ADD \t\t\t\n      MSTORE \t\t\t\n      PUSH [tag] 1360\t\t\t\n      DUP2 \t\t\t\n      PUSH [tag] 790\t\t\t\n      JUMP \t\t\t\n    tag 1360\t\t\t\n      JUMPDEST \t\t\t\n      SWAP1 \t\t\t\n      POP \t\t\t\n      SWAP2 \t\t\t\n      SWAP1 \t\t\t\n      POP \t\t\t\n      JUMP \t\t\t\n    tag 791\t\t\t\n      JUMPDEST \t\t\t\n      PUSH 496E76616C696420616464726573730000000000000000000000000000000000\t\t\t\n      PUSH 0\t\t\t\n      DUP3 \t\t\t\n      ADD \t\t\t\n      MSTORE \t\t\t\n      POP \t\t\t\n      JUMP \t\t\t\n    tag 792\t\t\t\n      JUMPDEST \t\t\t\n      PUSH 0\t\t\t\n      PUSH [tag] 1363\t\t\t\n      PUSH F\t\t\t\n      DUP4 \t\t\t\n      PUSH [tag] 674\t\t\t\n      JUMP \t\t\t\n    tag 1363\t\t\t\n      JUMPDEST \t\t\t\n      SWAP2 \t\t\t\n      POP \t\t\t\n      PUSH [tag] 1364\t\t\t\n      DUP3 \t\t\t\n      PUSH [tag] 791\t\t\t\n      JUMP \t\t\t\n    tag 1364\t\t\t\n      JUMPDEST \t\t\t\n      PUSH 20\t\t\t\n      DUP3 \t\t\t\n      ADD \t\t\t\n      SWAP1 \t\t\t\n      POP \t\t\t\n      SWAP2 \t\t\t\n      SWAP1 \t\t\t\n      POP \t\t\t\n      JUMP \t\t\t\n    tag 328\t\t\t\n      JUMPDEST \t\t\t\n      PUSH 0\t\t\t\n      PUSH 20\t\t\t\n      DUP3 \t\t\t\n      ADD \t\t\t\n      SWAP1 \t\t\t\n      POP \t\t\t\n      DUP2 \t\t\t\n      DUP2 \t\t\t\n      SUB \t\t\t\n      PUSH 0\t\t\t\n      DUP4 \t\t\t\n      ADD \t\t\t\n      MSTORE \t\t\t\n      PUSH [tag] 1366\t\t\t\n      DUP2 \t\t\t\n      PUSH [tag] 792\t\t\t\n      JUMP \t\t\t\n    tag 1366\t\t\t\n      JUMPDEST \t\t\t\n      SWAP1 \t\t\t\n      POP \t\t\t\n      SWAP2 \t\t\t\n      SWAP1 \t\t\t\n      POP \t\t\t\n      JUMP \t\t\t\n    tag 793\t\t\t\n      JUMPDEST \t\t\t\n      PUSH 4164647265737320697320616C726561647920616E2061646D696E0000000000\t\t\t\n      PUSH 0\t\t\t\n      DUP3 \t\t\t\n      ADD \t\t\t\n      MSTORE \t\t\t\n      POP \t\t\t\n      JUMP \t\t\t\n    tag 794\t\t\t\n      JUMPDEST \t\t\t\n      PUSH 0\t\t\t\n      PUSH [tag] 1369\t\t\t\n      PUSH 1B\t\t\t\n      DUP4 \t\t\t\n      PUSH [tag] 674\t\t\t\n      JUMP \t\t\t\n    tag 1369\t\t\t\n      JUMPDEST \t\t\t\n      SWAP2 \t\t\t\n      POP \t\t\t\n      PUSH [tag] 1370\t\t\t\n      DUP3 \t\t\t\n      PUSH [tag] 793\t\t\t\n      JUMP \t\t\t\n    tag 1370\t\t\t\n      JUMPDEST \t\t\t\n      PUSH 20\t\t\t\n      DUP3 \t\t\t\n      ADD \t\t\t\n      SWAP1 \t\t\t\n      POP \t\t\t\n      SWAP2 \t\t\t\n      SWAP1 \t\t\t\n      POP \t\t\t\n      JUMP \t\t\t\n    tag 333\t\t\t\n      JUMPDEST \t\t\t\n      PUSH 0\t\t\t\n      PUSH 20\t\t\t\n      DUP3 \t\t\t\n      ADD \t\t\t\n      SWAP1 \t\t\t\n      POP \t\t\t\n      DUP2 \t\t\t\n      DUP2 \t\t\t\n      SUB \t\t\t\n      PUSH 0\t\t\t\n      DUP4 \t\t\t\n      ADD \t\t\t\n      MSTORE \t\t\t\n      PUSH [tag] 1372\t\t\t\n      DUP2 \t\t\t\n      PUSH [tag] 794\t\t\t\n      JUMP \t\t\t\n    tag 1372\t\t\t\n      JUMPDEST \t\t\t\n      SWAP1 \t\t\t\n      POP \t\t\t\n      SWAP2 \t\t\t\n      SWAP1 \t\t\t\n      POP \t\t\t\n      JUMP \t\t\t\n    tag 795\t\t\t\n      JUMPDEST \t\t\t\n      PUSH 4F6E6C79206D6F6E6579206F776E65722063616E20616464207370656E64696E\t\t\t\n      PUSH 0\t\t\t\n      DUP3 \t\t\t\n      ADD \t\t\t\n      MSTORE \t\t\t\n      PUSH 6720636F6E646974696F6E2E0000000000000000000000000000000000000000\t\t\t\n      PUSH 20\t\t\t\n      DUP3 \t\t\t\n      ADD \t\t\t\n      MSTORE \t\t\t\n      POP \t\t\t\n      JUMP \t\t\t\n    tag 796\t\t\t\n      JUMPDEST \t\t\t\n      PUSH 0\t\t\t\n      PUSH [tag] 1375\t\t\t\n      PUSH 2C\t\t\t\n      DUP4 \t\t\t\n      PUSH [tag] 674\t\t\t\n      JUMP \t\t\t\n    tag 1375\t\t\t\n      JUMPDEST \t\t\t\n      SWAP2 \t\t\t\n      POP \t\t\t\n      PUSH [tag] 1376\t\t\t\n      DUP3 \t\t\t\n      PUSH [tag] 795\t\t\t\n      JUMP \t\t\t\n    tag 1376\t\t\t\n      JUMPDEST \t\t\t\n      PUSH 40\t\t\t\n      DUP3 \t\t\t\n      ADD \t\t\t\n      SWAP1 \t\t\t\n      POP \t\t\t\n      SWAP2 \t\t\t\n      SWAP1 \t\t\t\n      POP \t\t\t\n      JUMP \t\t\t\n    tag 344\t\t\t\n      JUMPDEST \t\t\t\n      PUSH 0\t\t\t\n      PUSH 20\t\t\t\n      DUP3 \t\t\t\n      ADD \t\t\t\n      SWAP1 \t\t\t\n      POP \t\t\t\n      DUP2 \t\t\t\n      DUP2 \t\t\t\n      SUB \t\t\t\n      PUSH 0\t\t\t\n      DUP4 \t\t\t\n      ADD \t\t\t\n      MSTORE \t\t\t\n      PUSH [tag] 1378\t\t\t\n      DUP2 \t\t\t\n      PUSH [tag] 796\t\t\t\n      JUMP \t\t\t\n    tag 1378\t\t\t\n      JUMPDEST \t\t\t\n      SWAP1 \t\t\t\n      POP \t\t\t\n      SWAP2 \t\t\t\n      SWAP1 \t\t\t\n      POP \t\t\t\n      JUMP \t\t\t\n    tag 797\t\t\t\n      JUMPDEST \t\t\t\n      PUSH 0\t\t\t\n      PUSH [tag] 1380\t\t\t\n      DUP3 \t\t\t\n      PUSH [tag] 680\t\t\t\n      JUMP \t\t\t\n    tag 1380\t\t\t\n      JUMPDEST \t\t\t\n      SWAP1 \t\t\t\n      POP \t\t\t\n      SWAP2 \t\t\t\n      SWAP1 \t\t\t\n      POP \t\t\t\n      JUMP \t\t\t\n    tag 798\t\t\t\n      JUMPDEST \t\t\t\n      PUSH [tag] 1382\t\t\t\n      DUP2 \t\t\t\n      PUSH [tag] 797\t\t\t\n      JUMP \t\t\t\n    tag 1382\t\t\t\n      JUMPDEST \t\t\t\n      DUP3 \t\t\t\n      MSTORE \t\t\t\n      POP \t\t\t\n      POP \t\t\t\n      JUMP \t\t\t\n    tag 799\t\t\t\n      JUMPDEST \t\t\t\n      PUSH 0\t\t\t\n      DUP2 \t\t\t\n      MLOAD \t\t\t\n      SWAP1 \t\t\t\n      POP \t\t\t\n      SWAP2 \t\t\t\n      SWAP1 \t\t\t\n      POP \t\t\t\n      JUMP \t\t\t\n    tag 800\t\t\t\n      JUMPDEST \t\t\t\n      PUSH 0\t\t\t\n      DUP3 \t\t\t\n      DUP3 \t\t\t\n      MSTORE \t\t\t\n      PUSH 20\t\t\t\n      DUP3 \t\t\t\n      ADD \t\t\t\n      SWAP1 \t\t\t\n      POP \t\t\t\n      SWAP3 \t\t\t\n      SWAP2 \t\t\t\n      POP \t\t\t\n      POP \t\t\t\n      JUMP \t\t\t\n    tag 801\t\t\t\n      JUMPDEST \t\t\t\n      PUSH 0\t\t\t\n      PUSH [tag] 1386\t\t\t\n      DUP3 \t\t\t\n      PUSH [tag] 799\t\t\t\n      JUMP \t\t\t\n    tag 1386\t\t\t\n      JUMPDEST \t\t\t\n      PUSH [tag] 1387\t\t\t\n      DUP2 \t\t\t\n      DUP6 \t\t\t\n      PUSH [tag] 800\t\t\t\n      JUMP \t\t\t\n    tag 1387\t\t\t\n      JUMPDEST \t\t\t\n      SWAP4 \t\t\t\n      POP \t\t\t\n      PUSH [tag] 1388\t\t\t\n      DUP2 \t\t\t\n      DUP6 \t\t\t\n      PUSH 20\t\t\t\n      DUP7 \t\t\t\n      ADD \t\t\t\n      PUSH [tag] 675\t\t\t\n      JUMP \t\t\t\n    tag 1388\t\t\t\n      JUMPDEST \t\t\t\n      PUSH [tag] 1389\t\t\t\n      DUP2 \t\t\t\n      PUSH [tag] 676\t\t\t\n      JUMP \t\t\t\n    tag 1389\t\t\t\n      JUMPDEST \t\t\t\n      DUP5 \t\t\t\n      ADD \t\t\t\n      SWAP2 \t\t\t\n      POP \t\t\t\n      POP \t\t\t\n      SWAP3 \t\t\t\n      SWAP2 \t\t\t\n      POP \t\t\t\n      POP \t\t\t\n      JUMP \t\t\t\n    tag 802\t\t\t\n      JUMPDEST \t\t\t\n      PUSH 0\t\t\t\n      PUSH 60\t\t\t\n      DUP4 \t\t\t\n      ADD \t\t\t\n      PUSH 0\t\t\t\n      DUP4 \t\t\t\n      ADD \t\t\t\n      MLOAD \t\t\t\n      DUP5 \t\t\t\n      DUP3 \t\t\t\n      SUB \t\t\t\n      PUSH 0\t\t\t\n      DUP7 \t\t\t\n      ADD \t\t\t\n      MSTORE \t\t\t\n      PUSH [tag] 1391\t\t\t\n      DUP3 \t\t\t\n      DUP3 \t\t\t\n      PUSH [tag] 737\t\t\t\n      JUMP \t\t\t\n    tag 1391\t\t\t\n      JUMPDEST \t\t\t\n      SWAP2 \t\t\t\n      POP \t\t\t\n      POP \t\t\t\n      PUSH 20\t\t\t\n      DUP4 \t\t\t\n      ADD \t\t\t\n      MLOAD \t\t\t\n      PUSH [tag] 1392\t\t\t\n      PUSH 20\t\t\t\n      DUP7 \t\t\t\n      ADD \t\t\t\n      DUP3 \t\t\t\n      PUSH [tag] 798\t\t\t\n      JUMP \t\t\t\n    tag 1392\t\t\t\n      JUMPDEST \t\t\t\n      POP \t\t\t\n      PUSH 40\t\t\t\n      DUP4 \t\t\t\n      ADD \t\t\t\n      MLOAD \t\t\t\n      DUP5 \t\t\t\n      DUP3 \t\t\t\n      SUB \t\t\t\n      PUSH 40\t\t\t\n      DUP7 \t\t\t\n      ADD \t\t\t\n      MSTORE \t\t\t\n      PUSH [tag] 1393\t\t\t\n      DUP3 \t\t\t\n      DUP3 \t\t\t\n      PUSH [tag] 801\t\t\t\n      JUMP \t\t\t\n    tag 1393\t\t\t\n      JUMPDEST \t\t\t\n      SWAP2 \t\t\t\n      POP \t\t\t\n      POP \t\t\t\n      DUP1 \t\t\t\n      SWAP2 \t\t\t\n      POP \t\t\t\n      POP \t\t\t\n      SWAP3 \t\t\t\n      SWAP2 \t\t\t\n      POP \t\t\t\n      POP \t\t\t\n      JUMP \t\t\t\n    tag 346\t\t\t\n      JUMPDEST \t\t\t\n      PUSH 0\t\t\t\n      PUSH 40\t\t\t\n      DUP3 \t\t\t\n      ADD \t\t\t\n      SWAP1 \t\t\t\n      POP \t\t\t\n      PUSH [tag] 1395\t\t\t\n      PUSH 0\t\t\t\n      DUP4 \t\t\t\n      ADD \t\t\t\n      DUP6 \t\t\t\n      PUSH [tag] 742\t\t\t\n      JUMP \t\t\t\n    tag 1395\t\t\t\n      JUMPDEST \t\t\t\n      DUP2 \t\t\t\n      DUP2 \t\t\t\n      SUB \t\t\t\n      PUSH 20\t\t\t\n      DUP4 \t\t\t\n      ADD \t\t\t\n      MSTORE \t\t\t\n      PUSH [tag] 1396\t\t\t\n      DUP2 \t\t\t\n      DUP5 \t\t\t\n      PUSH [tag] 802\t\t\t\n      JUMP \t\t\t\n    tag 1396\t\t\t\n      JUMPDEST \t\t\t\n      SWAP1 \t\t\t\n      POP \t\t\t\n      SWAP4 \t\t\t\n      SWAP3 \t\t\t\n      POP \t\t\t\n      POP \t\t\t\n      POP \t\t\t\n      JUMP \t\t\t\n    tag 803\t\t\t\n      JUMPDEST \t\t\t\n      PUSH 0\t\t\t\n      DUP1 \t\t\t\n      REVERT \t\t\t\n    tag 804\t\t\t\n      JUMPDEST \t\t\t\n      PUSH 0\t\t\t\n      DUP1 \t\t\t\n      REVERT \t\t\t\n    tag 805\t\t\t\n      JUMPDEST \t\t\t\n      PUSH 0\t\t\t\n      DUP1 \t\t\t\n      REVERT \t\t\t\n    tag 353\t\t\t\n      JUMPDEST \t\t\t\n      PUSH 0\t\t\t\n      DUP1 \t\t\t\n      DUP4 \t\t\t\n      CALLDATALOAD \t\t\t\n      PUSH 1\t\t\t\n      PUSH 20\t\t\t\n      SUB \t\t\t\n      DUP5 \t\t\t\n      CALLDATASIZE \t\t\t\n      SUB \t\t\t\n      SUB \t\t\t\n      DUP2 \t\t\t\n      SLT \t\t\t\n      PUSH [tag] 1401\t\t\t\n      JUMPI \t\t\t\n      PUSH [tag] 1402\t\t\t\n      PUSH [tag] 803\t\t\t\n      JUMP \t\t\t\n    tag 1402\t\t\t\n      JUMPDEST \t\t\t\n    tag 1401\t\t\t\n      JUMPDEST \t\t\t\n      DUP1 \t\t\t\n      DUP5 \t\t\t\n      ADD \t\t\t\n      SWAP3 \t\t\t\n      POP \t\t\t\n      DUP3 \t\t\t\n      CALLDATALOAD \t\t\t\n      SWAP2 \t\t\t\n      POP \t\t\t\n      PUSH FFFFFFFFFFFFFFFF\t\t\t\n      DUP3 \t\t\t\n      GT \t\t\t\n      ISZERO \t\t\t\n      PUSH [tag] 1403\t\t\t\n      JUMPI \t\t\t\n      PUSH [tag] 1404\t\t\t\n      PUSH [tag] 804\t\t\t\n      JUMP \t\t\t\n    tag 1404\t\t\t\n      JUMPDEST \t\t\t\n    tag 1403\t\t\t\n      JUMPDEST \t\t\t\n      PUSH 20\t\t\t\n      DUP4 \t\t\t\n      ADD \t\t\t\n      SWAP3 \t\t\t\n      POP \t\t\t\n      PUSH 1\t\t\t\n      DUP3 \t\t\t\n      MUL \t\t\t\n      CALLDATASIZE \t\t\t\n      SUB \t\t\t\n      DUP4 \t\t\t\n      SGT \t\t\t\n      ISZERO \t\t\t\n      PUSH [tag] 1405\t\t\t\n      JUMPI \t\t\t\n      PUSH [tag] 1406\t\t\t\n      PUSH [tag] 805\t\t\t\n      JUMP \t\t\t\n    tag 1406\t\t\t\n      JUMPDEST \t\t\t\n    tag 1405\t\t\t\n      JUMPDEST \t\t\t\n      POP \t\t\t\n      SWAP3 \t\t\t\n      POP \t\t\t\n      SWAP3 \t\t\t\n      SWAP1 \t\t\t\n      POP \t\t\t\n      JUMP \t\t\t\n    tag 357\t\t\t\n      JUMPDEST \t\t\t\n      PUSH [tag] 1408\t\t\t\n      DUP3 \t\t\t\n      PUSH [tag] 673\t\t\t\n      JUMP \t\t\t\n    tag 1408\t\t\t\n      JUMPDEST \t\t\t\n      PUSH FFFFFFFFFFFFFFFF\t\t\t\n      DUP2 \t\t\t\n      GT \t\t\t\n      ISZERO \t\t\t\n      PUSH [tag] 1409\t\t\t\n      JUMPI \t\t\t\n      PUSH [tag] 1410\t\t\t\n      PUSH [tag] 259\t\t\t\n      JUMP \t\t\t\n    tag 1410\t\t\t\n      JUMPDEST \t\t\t\n    tag 1409\t\t\t\n      JUMPDEST \t\t\t\n      PUSH [tag] 1411\t\t\t\n      DUP3 \t\t\t\n      SLOAD \t\t\t\n      PUSH [tag] 149\t\t\t\n      JUMP \t\t\t\n    tag 1411\t\t\t\n      JUMPDEST \t\t\t\n      PUSH [tag] 1412\t\t\t\n      DUP3 \t\t\t\n      DUP3 \t\t\t\n      DUP6 \t\t\t\n      PUSH [tag] 777\t\t\t\n      JUMP \t\t\t\n    tag 1412\t\t\t\n      JUMPDEST \t\t\t\n      PUSH 0\t\t\t\n      PUSH 20\t\t\t\n      SWAP1 \t\t\t\n      POP \t\t\t\n      PUSH 1F\t\t\t\n      DUP4 \t\t\t\n      GT \t\t\t\n      PUSH 1\t\t\t\n      DUP2 \t\t\t\n      EQ \t\t\t\n      PUSH [tag] 1414\t\t\t\n      JUMPI \t\t\t\n      PUSH 0\t\t\t\n      DUP5 \t\t\t\n      ISZERO \t\t\t\n      PUSH [tag] 1415\t\t\t\n      JUMPI \t\t\t\n      DUP3 \t\t\t\n      DUP8 \t\t\t\n      ADD \t\t\t\n      MLOAD \t\t\t\n      SWAP1 \t\t\t\n      POP \t\t\t\n    tag 1415\t\t\t\n      JUMPDEST \t\t\t\n      PUSH [tag] 1416\t\t\t\n      DUP6 \t\t\t\n      DUP3 \t\t\t\n      PUSH [tag] 780\t\t\t\n      JUMP \t\t\t\n    tag 1416\t\t\t\n      JUMPDEST \t\t\t\n      DUP7 \t\t\t\n      SSTORE \t\t\t\n      POP \t\t\t\n      PUSH [tag] 1413\t\t\t\n      JUMP \t\t\t\n    tag 1414\t\t\t\n      JUMPDEST \t\t\t\n      PUSH 1F\t\t\t\n      NOT \t\t\t\n      DUP5 \t\t\t\n      AND \t\t\t\n      PUSH [tag] 1417\t\t\t\n      DUP7 \t\t\t\n      PUSH [tag] 767\t\t\t\n      JUMP \t\t\t\n    tag 1417\t\t\t\n      JUMPDEST \t\t\t\n      PUSH 0\t\t\t\n    tag 1418\t\t\t\n      JUMPDEST \t\t\t\n      DUP3 \t\t\t\n      DUP2 \t\t\t\n      LT \t\t\t\n      ISZERO \t\t\t\n      PUSH [tag] 1420\t\t\t\n      JUMPI \t\t\t\n      DUP5 \t\t\t\n      DUP10 \t\t\t\n      ADD \t\t\t\n      MLOAD \t\t\t\n      DUP3 \t\t\t\n      SSTORE \t\t\t\n      PUSH 1\t\t\t\n      DUP3 \t\t\t\n      ADD \t\t\t\n      SWAP2 \t\t\t\n      POP \t\t\t\n      PUSH 20\t\t\t\n      DUP6 \t\t\t\n      ADD \t\t\t\n      SWAP5 \t\t\t\n      POP \t\t\t\n      PUSH 20\t\t\t\n      DUP2 \t\t\t\n      ADD \t\t\t\n      SWAP1 \t\t\t\n      POP \t\t\t\n      PUSH [tag] 1418\t\t\t\n      JUMP \t\t\t\n    tag 1420\t\t\t\n      JUMPDEST \t\t\t\n      DUP7 \t\t\t\n      DUP4 \t\t\t\n      LT \t\t\t\n      ISZERO \t\t\t\n      PUSH [tag] 1421\t\t\t\n      JUMPI \t\t\t\n      DUP5 \t\t\t\n      DUP10 \t\t\t\n      ADD \t\t\t\n      MLOAD \t\t\t\n      PUSH [tag] 1422\t\t\t\n      PUSH 1F\t\t\t\n      DUP10 \t\t\t\n      AND \t\t\t\n      DUP3 \t\t\t\n      PUSH [tag] 779\t\t\t\n      JUMP \t\t\t\n    tag 1422\t\t\t\n      JUMPDEST \t\t\t\n      DUP4 \t\t\t\n      SSTORE \t\t\t\n      POP \t\t\t\n    tag 1421\t\t\t\n      JUMPDEST \t\t\t\n      PUSH 1\t\t\t\n      PUSH 2\t\t\t\n      DUP9 \t\t\t\n      MUL \t\t\t\n      ADD \t\t\t\n      DUP9 \t\t\t\n      SSTORE \t\t\t\n      POP \t\t\t\n      POP \t\t\t\n      POP \t\t\t\n    tag 1413\t\t\t\n      JUMPDEST \t\t\t\n      POP \t\t\t\n      POP \t\t\t\n      POP \t\t\t\n      POP \t\t\t\n      POP \t\t\t\n      POP \t\t\t\n      JUMP \t\t\t\n    tag 490\t\t\t\n      JUMPDEST \t\t\t\n      PUSH 0\t\t\t\n      PUSH 40\t\t\t\n      DUP3 \t\t\t\n      ADD \t\t\t\n      SWAP1 \t\t\t\n      POP \t\t\t\n      PUSH [tag] 1424\t\t\t\n      PUSH 0\t\t\t\n      DUP4 \t\t\t\n      ADD \t\t\t\n      DUP6 \t\t\t\n      PUSH [tag] 723\t\t\t\n      JUMP \t\t\t\n    tag 1424\t\t\t\n      JUMPDEST \t\t\t\n      PUSH [tag] 1425\t\t\t\n      PUSH 20\t\t\t\n      DUP4 \t\t\t\n      ADD \t\t\t\n      DUP5 \t\t\t\n      PUSH [tag] 742\t\t\t\n      JUMP \t\t\t\n    tag 1425\t\t\t\n      JUMPDEST \t\t\t\n      SWAP4 \t\t\t\n      SWAP3 \t\t\t\n      POP \t\t\t\n      POP \t\t\t\n      POP \t\t\t\n      JUMP \t\t\t\n    tag 806\t\t\t\n      JUMPDEST \t\t\t\n      PUSH 0\t\t\t\n      DUP1 \t\t\t\n      REVERT \t\t\t\n    tag 807\t\t\t\n      JUMPDEST \t\t\t\n      PUSH 0\t\t\t\n      DUP1 \t\t\t\n      REVERT \t\t\t\n    tag 808\t\t\t\n      JUMPDEST \t\t\t\n      PUSH 0\t\t\t\n      DUP2 \t\t\t\n      MLOAD \t\t\t\n      SWAP1 \t\t\t\n      POP \t\t\t\n      PUSH [tag] 1429\t\t\t\n      DUP2 \t\t\t\n      PUSH [tag] 724\t\t\t\n      JUMP \t\t\t\n    tag 1429\t\t\t\n      JUMPDEST \t\t\t\n      SWAP3 \t\t\t\n      SWAP2 \t\t\t\n      POP \t\t\t\n      POP \t\t\t\n      JUMP \t\t\t\n    tag 809\t\t\t\n      JUMPDEST \t\t\t\n      PUSH 0\t\t\t\n      PUSH FFFFFFFFFFFFFFFF\t\t\t\n      DUP3 \t\t\t\n      GT \t\t\t\n      ISZERO \t\t\t\n      PUSH [tag] 1431\t\t\t\n      JUMPI \t\t\t\n      PUSH [tag] 1432\t\t\t\n      PUSH [tag] 259\t\t\t\n      JUMP \t\t\t\n    tag 1432\t\t\t\n      JUMPDEST \t\t\t\n    tag 1431\t\t\t\n      JUMPDEST \t\t\t\n      PUSH [tag] 1433\t\t\t\n      DUP3 \t\t\t\n      PUSH [tag] 676\t\t\t\n      JUMP \t\t\t\n    tag 1433\t\t\t\n      JUMPDEST \t\t\t\n      SWAP1 \t\t\t\n      POP \t\t\t\n      PUSH 20\t\t\t\n      DUP2 \t\t\t\n      ADD \t\t\t\n      SWAP1 \t\t\t\n      POP \t\t\t\n      SWAP2 \t\t\t\n      SWAP1 \t\t\t\n      POP \t\t\t\n      JUMP \t\t\t\n    tag 810\t\t\t\n      JUMPDEST \t\t\t\n      PUSH 0\t\t\t\n      PUSH [tag] 1435\t\t\t\n      PUSH [tag] 1436\t\t\t\n      DUP5 \t\t\t\n      PUSH [tag] 809\t\t\t\n      JUMP \t\t\t\n    tag 1436\t\t\t\n      JUMPDEST \t\t\t\n      PUSH [tag] 689\t\t\t\n      JUMP \t\t\t\n    tag 1435\t\t\t\n      JUMPDEST \t\t\t\n      SWAP1 \t\t\t\n      POP \t\t\t\n      DUP3 \t\t\t\n      DUP2 \t\t\t\n      MSTORE \t\t\t\n      PUSH 20\t\t\t\n      DUP2 \t\t\t\n      ADD \t\t\t\n      DUP5 \t\t\t\n      DUP5 \t\t\t\n      DUP5 \t\t\t\n      ADD \t\t\t\n      GT \t\t\t\n      ISZERO \t\t\t\n      PUSH [tag] 1437\t\t\t\n      JUMPI \t\t\t\n      PUSH [tag] 1438\t\t\t\n      PUSH [tag] 693\t\t\t\n      JUMP \t\t\t\n    tag 1438\t\t\t\n      JUMPDEST \t\t\t\n    tag 1437\t\t\t\n      JUMPDEST \t\t\t\n      PUSH [tag] 1439\t\t\t\n      DUP5 \t\t\t\n      DUP3 \t\t\t\n      DUP6 \t\t\t\n      PUSH [tag] 675\t\t\t\n      JUMP \t\t\t\n    tag 1439\t\t\t\n      JUMPDEST \t\t\t\n      POP \t\t\t\n      SWAP4 \t\t\t\n      SWAP3 \t\t\t\n      POP \t\t\t\n      POP \t\t\t\n      POP \t\t\t\n      JUMP \t\t\t\n    tag 811\t\t\t\n      JUMPDEST \t\t\t\n      PUSH 0\t\t\t\n      DUP3 \t\t\t\n      PUSH 1F\t\t\t\n      DUP4 \t\t\t\n      ADD \t\t\t\n      SLT \t\t\t\n      PUSH [tag] 1441\t\t\t\n      JUMPI \t\t\t\n      PUSH [tag] 1442\t\t\t\n      PUSH [tag] 683\t\t\t\n      JUMP \t\t\t\n    tag 1442\t\t\t\n      JUMPDEST \t\t\t\n    tag 1441\t\t\t\n      JUMPDEST \t\t\t\n      DUP2 \t\t\t\n      MLOAD \t\t\t\n      PUSH [tag] 1443\t\t\t\n      DUP5 \t\t\t\n      DUP3 \t\t\t\n      PUSH 20\t\t\t\n      DUP7 \t\t\t\n      ADD \t\t\t\n      PUSH [tag] 810\t\t\t\n      JUMP \t\t\t\n    tag 1443\t\t\t\n      JUMPDEST \t\t\t\n      SWAP2 \t\t\t\n      POP \t\t\t\n      POP \t\t\t\n      SWAP3 \t\t\t\n      SWAP2 \t\t\t\n      POP \t\t\t\n      POP \t\t\t\n      JUMP \t\t\t\n    tag 812\t\t\t\n      JUMPDEST \t\t\t\n      PUSH 0\t\t\t\n      DUP2 \t\t\t\n      MLOAD \t\t\t\n      SWAP1 \t\t\t\n      POP \t\t\t\n      PUSH [tag] 1445\t\t\t\n      DUP2 \t\t\t\n      PUSH [tag] 665\t\t\t\n      JUMP \t\t\t\n    tag 1445\t\t\t\n      JUMPDEST \t\t\t\n      SWAP3 \t\t\t\n      SWAP2 \t\t\t\n      POP \t\t\t\n      POP \t\t\t\n      JUMP \t\t\t\n    tag 813\t\t\t\n      JUMPDEST \t\t\t\n      PUSH 0\t\t\t\n      PUSH 80\t\t\t\n      DUP3 \t\t\t\n      DUP5 \t\t\t\n      SUB \t\t\t\n      SLT \t\t\t\n      ISZERO \t\t\t\n      PUSH [tag] 1447\t\t\t\n      JUMPI \t\t\t\n      PUSH [tag] 1448\t\t\t\n      PUSH [tag] 806\t\t\t\n      JUMP \t\t\t\n    tag 1448\t\t\t\n      JUMPDEST \t\t\t\n    tag 1447\t\t\t\n      JUMPDEST \t\t\t\n      PUSH [tag] 1449\t\t\t\n      PUSH 80\t\t\t\n      PUSH [tag] 689\t\t\t\n      JUMP \t\t\t\n    tag 1449\t\t\t\n      JUMPDEST \t\t\t\n      SWAP1 \t\t\t\n      POP \t\t\t\n      PUSH 0\t\t\t\n      PUSH [tag] 1450\t\t\t\n      DUP5 \t\t\t\n      DUP3 \t\t\t\n      DUP6 \t\t\t\n      ADD \t\t\t\n      PUSH [tag] 808\t\t\t\n      JUMP \t\t\t\n    tag 1450\t\t\t\n      JUMPDEST \t\t\t\n      PUSH 0\t\t\t\n      DUP4 \t\t\t\n      ADD \t\t\t\n      MSTORE \t\t\t\n      POP \t\t\t\n      PUSH 20\t\t\t\n      DUP3 \t\t\t\n      ADD \t\t\t\n      MLOAD \t\t\t\n      PUSH FFFFFFFFFFFFFFFF\t\t\t\n      DUP2 \t\t\t\n      GT \t\t\t\n      ISZERO \t\t\t\n      PUSH [tag] 1451\t\t\t\n      JUMPI \t\t\t\n      PUSH [tag] 1452\t\t\t\n      PUSH [tag] 807\t\t\t\n      JUMP \t\t\t\n    tag 1452\t\t\t\n      JUMPDEST \t\t\t\n    tag 1451\t\t\t\n      JUMPDEST \t\t\t\n      PUSH [tag] 1453\t\t\t\n      DUP5 \t\t\t\n      DUP3 \t\t\t\n      DUP6 \t\t\t\n      ADD \t\t\t\n      PUSH [tag] 811\t\t\t\n      JUMP \t\t\t\n    tag 1453\t\t\t\n      JUMPDEST \t\t\t\n      PUSH 20\t\t\t\n      DUP4 \t\t\t\n      ADD \t\t\t\n      MSTORE \t\t\t\n      POP \t\t\t\n      PUSH 40\t\t\t\n      PUSH [tag] 1454\t\t\t\n      DUP5 \t\t\t\n      DUP3 \t\t\t\n      DUP6 \t\t\t\n      ADD \t\t\t\n      PUSH [tag] 812\t\t\t\n      JUMP \t\t\t\n    tag 1454\t\t\t\n      JUMPDEST \t\t\t\n      PUSH 40\t\t\t\n      DUP4 \t\t\t\n      ADD \t\t\t\n      MSTORE \t\t\t\n      POP \t\t\t\n      PUSH 60\t\t\t\n      PUSH [tag] 1455\t\t\t\n      DUP5 \t\t\t\n      DUP3 \t\t\t\n      DUP6 \t\t\t\n      ADD \t\t\t\n      PUSH [tag] 812\t\t\t\n      JUMP \t\t\t\n    tag 1455\t\t\t\n      JUMPDEST \t\t\t\n      PUSH 60\t\t\t\n      DUP4 \t\t\t\n      ADD \t\t\t\n      MSTORE \t\t\t\n      POP \t\t\t\n      SWAP3 \t\t\t\n      SWAP2 \t\t\t\n      POP \t\t\t\n      POP \t\t\t\n      JUMP \t\t\t\n    tag 494\t\t\t\n      JUMPDEST \t\t\t\n      PUSH 0\t\t\t\n      PUSH 20\t\t\t\n      DUP3 \t\t\t\n      DUP5 \t\t\t\n      SUB \t\t\t\n      SLT \t\t\t\n      ISZERO \t\t\t\n      PUSH [tag] 1457\t\t\t\n      JUMPI \t\t\t\n      PUSH [tag] 1458\t\t\t\n      PUSH [tag] 658\t\t\t\n      JUMP \t\t\t\n    tag 1458\t\t\t\n      JUMPDEST \t\t\t\n    tag 1457\t\t\t\n      JUMPDEST \t\t\t\n      PUSH 0\t\t\t\n      DUP3 \t\t\t\n      ADD \t\t\t\n      MLOAD \t\t\t\n      PUSH FFFFFFFFFFFFFFFF\t\t\t\n      DUP2 \t\t\t\n      GT \t\t\t\n      ISZERO \t\t\t\n      PUSH [tag] 1459\t\t\t\n      JUMPI \t\t\t\n      PUSH [tag] 1460\t\t\t\n      PUSH [tag] 659\t\t\t\n      JUMP \t\t\t\n    tag 1460\t\t\t\n      JUMPDEST \t\t\t\n    tag 1459\t\t\t\n      JUMPDEST \t\t\t\n      PUSH [tag] 1461\t\t\t\n      DUP5 \t\t\t\n      DUP3 \t\t\t\n      DUP6 \t\t\t\n      ADD \t\t\t\n      PUSH [tag] 813\t\t\t\n      JUMP \t\t\t\n    tag 1461\t\t\t\n      JUMPDEST \t\t\t\n      SWAP2 \t\t\t\n      POP \t\t\t\n      POP \t\t\t\n      SWAP3 \t\t\t\n      SWAP2 \t\t\t\n      POP \t\t\t\n      POP \t\t\t\n      JUMP \t\t\t\n    tag 499\t\t\t\n      JUMPDEST \t\t\t\n      PUSH 0\t\t\t\n      PUSH 40\t\t\t\n      DUP3 \t\t\t\n      ADD \t\t\t\n      SWAP1 \t\t\t\n      POP \t\t\t\n      PUSH [tag] 1463\t\t\t\n      PUSH 0\t\t\t\n      DUP4 \t\t\t\n      ADD \t\t\t\n      DUP6 \t\t\t\n      PUSH [tag] 742\t\t\t\n      JUMP \t\t\t\n    tag 1463\t\t\t\n      JUMPDEST \t\t\t\n      PUSH [tag] 1464\t\t\t\n      PUSH 20\t\t\t\n      DUP4 \t\t\t\n      ADD \t\t\t\n      DUP5 \t\t\t\n      PUSH [tag] 723\t\t\t\n      JUMP \t\t\t\n    tag 1464\t\t\t\n      JUMPDEST \t\t\t\n      SWAP4 \t\t\t\n      SWAP3 \t\t\t\n      POP \t\t\t\n      POP \t\t\t\n      POP \t\t\t\n      JUMP \t\t\t\n    tag 814\t\t\t\n      JUMPDEST \t\t\t\n      PUSH 50726F6F66207265717565737420616C72656164792065786973747300000000\t\t\t\n      PUSH 0\t\t\t\n      DUP3 \t\t\t\n      ADD \t\t\t\n      MSTORE \t\t\t\n      POP \t\t\t\n      JUMP \t\t\t\n    tag 815\t\t\t\n      JUMPDEST \t\t\t\n      PUSH 0\t\t\t\n      PUSH [tag] 1467\t\t\t\n      PUSH 1C\t\t\t\n      DUP4 \t\t\t\n      PUSH [tag] 674\t\t\t\n      JUMP \t\t\t\n    tag 1467\t\t\t\n      JUMPDEST \t\t\t\n      SWAP2 \t\t\t\n      POP \t\t\t\n      PUSH [tag] 1468\t\t\t\n      DUP3 \t\t\t\n      PUSH [tag] 814\t\t\t\n      JUMP \t\t\t\n    tag 1468\t\t\t\n      JUMPDEST \t\t\t\n      PUSH 20\t\t\t\n      DUP3 \t\t\t\n      ADD \t\t\t\n      SWAP1 \t\t\t\n      POP \t\t\t\n      SWAP2 \t\t\t\n      SWAP1 \t\t\t\n      POP \t\t\t\n      JUMP \t\t\t\n    tag 532\t\t\t\n      JUMPDEST \t\t\t\n      PUSH 0\t\t\t\n      PUSH 20\t\t\t\n      DUP3 \t\t\t\n      ADD \t\t\t\n      SWAP1 \t\t\t\n      POP \t\t\t\n      DUP2 \t\t\t\n      DUP2 \t\t\t\n      SUB \t\t\t\n      PUSH 0\t\t\t\n      DUP4 \t\t\t\n      ADD \t\t\t\n      MSTORE \t\t\t\n      PUSH [tag] 1470\t\t\t\n      DUP2 \t\t\t\n      PUSH [tag] 815\t\t\t\n      JUMP \t\t\t\n    tag 1470\t\t\t\n      JUMPDEST \t\t\t\n      SWAP1 \t\t\t\n      POP \t\t\t\n      SWAP2 \t\t\t\n      SWAP1 \t\t\t\n      POP \t\t\t\n      JUMP \t\t\t\n    tag 816\t\t\t\n      JUMPDEST \t\t\t\n      PUSH 526F6C65206D757374206265202773656E64657227206F722027726563656976\t\t\t\n      PUSH 0\t\t\t\n      DUP3 \t\t\t\n      ADD \t\t\t\n      MSTORE \t\t\t\n      PUSH 6572270000000000000000000000000000000000000000000000000000000000\t\t\t\n      PUSH 20\t\t\t\n      DUP3 \t\t\t\n      ADD \t\t\t\n      MSTORE \t\t\t\n      POP \t\t\t\n      JUMP \t\t\t\n    tag 817\t\t\t\n      JUMPDEST \t\t\t\n      PUSH 0\t\t\t\n      PUSH [tag] 1473\t\t\t\n      PUSH 23\t\t\t\n      DUP4 \t\t\t\n      PUSH [tag] 674\t\t\t\n      JUMP \t\t\t\n    tag 1473\t\t\t\n      JUMPDEST \t\t\t\n      SWAP2 \t\t\t\n      POP \t\t\t\n      PUSH [tag] 1474\t\t\t\n      DUP3 \t\t\t\n      PUSH [tag] 816\t\t\t\n      JUMP \t\t\t\n    tag 1474\t\t\t\n      JUMPDEST \t\t\t\n      PUSH 40\t\t\t\n      DUP3 \t\t\t\n      ADD \t\t\t\n      SWAP1 \t\t\t\n      POP \t\t\t\n      SWAP2 \t\t\t\n      SWAP1 \t\t\t\n      POP \t\t\t\n      JUMP \t\t\t\n    tag 538\t\t\t\n      JUMPDEST \t\t\t\n      PUSH 0\t\t\t\n      PUSH 20\t\t\t\n      DUP3 \t\t\t\n      ADD \t\t\t\n      SWAP1 \t\t\t\n      POP \t\t\t\n      DUP2 \t\t\t\n      DUP2 \t\t\t\n      SUB \t\t\t\n      PUSH 0\t\t\t\n      DUP4 \t\t\t\n      ADD \t\t\t\n      MSTORE \t\t\t\n      PUSH [tag] 1476\t\t\t\n      DUP2 \t\t\t\n      PUSH [tag] 817\t\t\t\n      JUMP \t\t\t\n    tag 1476\t\t\t\n      JUMPDEST \t\t\t\n      SWAP1 \t\t\t\n      POP \t\t\t\n      SWAP2 \t\t\t\n      SWAP1 \t\t\t\n      POP \t\t\t\n      JUMP \t\t\t\n    tag 552\t\t\t\n      JUMPDEST \t\t\t\n      PUSH 0\t\t\t\n      PUSH 40\t\t\t\n      DUP3 \t\t\t\n      ADD \t\t\t\n      SWAP1 \t\t\t\n      POP \t\t\t\n      PUSH [tag] 1478\t\t\t\n      PUSH 0\t\t\t\n      DUP4 \t\t\t\n      ADD \t\t\t\n      DUP6 \t\t\t\n      PUSH [tag] 723\t\t\t\n      JUMP \t\t\t\n    tag 1478\t\t\t\n      JUMPDEST \t\t\t\n      PUSH [tag] 1479\t\t\t\n      PUSH 20\t\t\t\n      DUP4 \t\t\t\n      ADD \t\t\t\n      DUP5 \t\t\t\n      PUSH [tag] 723\t\t\t\n      JUMP \t\t\t\n    tag 1479\t\t\t\n      JUMPDEST \t\t\t\n      SWAP4 \t\t\t\n      SWAP3 \t\t\t\n      POP \t\t\t\n      POP \t\t\t\n      POP \t\t\t\n      JUMP \t\t\t\n    tag 602\t\t\t\n      JUMPDEST \t\t\t\n      PUSH 0\t\t\t\n      PUSH 80\t\t\t\n      DUP3 \t\t\t\n      ADD \t\t\t\n      SWAP1 \t\t\t\n      POP \t\t\t\n      PUSH [tag] 1481\t\t\t\n      PUSH 0\t\t\t\n      DUP4 \t\t\t\n      ADD \t\t\t\n      DUP8 \t\t\t\n      PUSH [tag] 723\t\t\t\n      JUMP \t\t\t\n    tag 1481\t\t\t\n      JUMPDEST \t\t\t\n      PUSH [tag] 1482\t\t\t\n      PUSH 20\t\t\t\n      DUP4 \t\t\t\n      ADD \t\t\t\n      DUP7 \t\t\t\n      PUSH [tag] 667\t\t\t\n      JUMP \t\t\t\n    tag 1482\t\t\t\n      JUMPDEST \t\t\t\n      PUSH [tag] 1483\t\t\t\n      PUSH 40\t\t\t\n      DUP4 \t\t\t\n      ADD \t\t\t\n      DUP6 \t\t\t\n      PUSH [tag] 667\t\t\t\n      JUMP \t\t\t\n    tag 1483\t\t\t\n      JUMPDEST \t\t\t\n      PUSH [tag] 1484\t\t\t\n      PUSH 60\t\t\t\n      DUP4 \t\t\t\n      ADD \t\t\t\n      DUP5 \t\t\t\n      PUSH [tag] 667\t\t\t\n      JUMP \t\t\t\n    tag 1484\t\t\t\n      JUMPDEST \t\t\t\n      SWAP6 \t\t\t\n      SWAP5 \t\t\t\n      POP \t\t\t\n      POP \t\t\t\n      POP \t\t\t\n      POP \t\t\t\n      POP \t\t\t\n      JUMP \t\t\t\n    tag 612\t\t\t\n      JUMPDEST \t\t\t\n      PUSH 0\t\t\t\n      PUSH 40\t\t\t\n      DUP3 \t\t\t\n      ADD \t\t\t\n      SWAP1 \t\t\t\n      POP \t\t\t\n      DUP2 \t\t\t\n      DUP2 \t\t\t\n      SUB \t\t\t\n      PUSH 0\t\t\t\n      DUP4 \t\t\t\n      ADD \t\t\t\n      MSTORE \t\t\t\n      PUSH [tag] 1486\t\t\t\n      DUP2 \t\t\t\n      DUP6 \t\t\t\n      PUSH [tag] 714\t\t\t\n      JUMP \t\t\t\n    tag 1486\t\t\t\n      JUMPDEST \t\t\t\n      SWAP1 \t\t\t\n      POP \t\t\t\n      DUP2 \t\t\t\n      DUP2 \t\t\t\n      SUB \t\t\t\n      PUSH 20\t\t\t\n      DUP4 \t\t\t\n      ADD \t\t\t\n      MSTORE \t\t\t\n      PUSH [tag] 1487\t\t\t\n      DUP2 \t\t\t\n      DUP5 \t\t\t\n      PUSH [tag] 714\t\t\t\n      JUMP \t\t\t\n    tag 1487\t\t\t\n      JUMPDEST \t\t\t\n      SWAP1 \t\t\t\n      POP \t\t\t\n      SWAP4 \t\t\t\n      SWAP3 \t\t\t\n      POP \t\t\t\n      POP \t\t\t\n      POP \t\t\t\n      JUMP \t\t\t\n    tag 818\t\t\t\n      JUMPDEST \t\t\t\n      PUSH 0\t\t\t\n      DUP3 \t\t\t\n      DUP3 \t\t\t\n      MSTORE \t\t\t\n      PUSH 20\t\t\t\n      DUP3 \t\t\t\n      ADD \t\t\t\n      SWAP1 \t\t\t\n      POP \t\t\t\n      SWAP3 \t\t\t\n      SWAP2 \t\t\t\n      POP \t\t\t\n      POP \t\t\t\n      JUMP \t\t\t\n    tag 819\t\t\t\n      JUMPDEST \t\t\t\n      PUSH 0\t\t\t\n      PUSH [tag] 1490\t\t\t\n      DUP3 \t\t\t\n      PUSH [tag] 799\t\t\t\n      JUMP \t\t\t\n    tag 1490\t\t\t\n      JUMPDEST \t\t\t\n      PUSH [tag] 1491\t\t\t\n      DUP2 \t\t\t\n      DUP6 \t\t\t\n      PUSH [tag] 818\t\t\t\n      JUMP \t\t\t\n    tag 1491\t\t\t\n      JUMPDEST \t\t\t\n      SWAP4 \t\t\t\n      POP \t\t\t\n      PUSH [tag] 1492\t\t\t\n      DUP2 \t\t\t\n      DUP6 \t\t\t\n      PUSH 20\t\t\t\n      DUP7 \t\t\t\n      ADD \t\t\t\n      PUSH [tag] 675\t\t\t\n      JUMP \t\t\t\n    tag 1492\t\t\t\n      JUMPDEST \t\t\t\n      PUSH [tag] 1493\t\t\t\n      DUP2 \t\t\t\n      PUSH [tag] 676\t\t\t\n      JUMP \t\t\t\n    tag 1493\t\t\t\n      JUMPDEST \t\t\t\n      DUP5 \t\t\t\n      ADD \t\t\t\n      SWAP2 \t\t\t\n      POP \t\t\t\n      POP \t\t\t\n      SWAP3 \t\t\t\n      SWAP2 \t\t\t\n      POP \t\t\t\n      POP \t\t\t\n      JUMP \t\t\t\n    tag 616\t\t\t\n      JUMPDEST \t\t\t\n      PUSH 0\t\t\t\n      PUSH A0\t\t\t\n      DUP3 \t\t\t\n      ADD \t\t\t\n      SWAP1 \t\t\t\n      POP \t\t\t\n      PUSH [tag] 1495\t\t\t\n      PUSH 0\t\t\t\n      DUP4 \t\t\t\n      ADD \t\t\t\n      DUP9 \t\t\t\n      PUSH [tag] 723\t\t\t\n      JUMP \t\t\t\n    tag 1495\t\t\t\n      JUMPDEST \t\t\t\n      PUSH [tag] 1496\t\t\t\n      PUSH 20\t\t\t\n      DUP4 \t\t\t\n      ADD \t\t\t\n      DUP8 \t\t\t\n      PUSH [tag] 723\t\t\t\n      JUMP \t\t\t\n    tag 1496\t\t\t\n      JUMPDEST \t\t\t\n      PUSH [tag] 1497\t\t\t\n      PUSH 40\t\t\t\n      DUP4 \t\t\t\n      ADD \t\t\t\n      DUP7 \t\t\t\n      PUSH [tag] 667\t\t\t\n      JUMP \t\t\t\n    tag 1497\t\t\t\n      JUMPDEST \t\t\t\n      PUSH [tag] 1498\t\t\t\n      PUSH 60\t\t\t\n      DUP4 \t\t\t\n      ADD \t\t\t\n      DUP6 \t\t\t\n      PUSH [tag] 667\t\t\t\n      JUMP \t\t\t\n    tag 1498\t\t\t\n      JUMPDEST \t\t\t\n      DUP2 \t\t\t\n      DUP2 \t\t\t\n      SUB \t\t\t\n      PUSH 80\t\t\t\n      DUP4 \t\t\t\n      ADD \t\t\t\n      MSTORE \t\t\t\n      PUSH [tag] 1499\t\t\t\n      DUP2 \t\t\t\n      DUP5 \t\t\t\n      PUSH [tag] 819\t\t\t\n      JUMP \t\t\t\n    tag 1499\t\t\t\n      JUMPDEST \t\t\t\n      SWAP1 \t\t\t\n      POP \t\t\t\n      SWAP7 \t\t\t\n      SWAP6 \t\t\t\n      POP \t\t\t\n      POP \t\t\t\n      POP \t\t\t\n      POP \t\t\t\n      POP \t\t\t\n      POP \t\t\t\n      JUMP \t\t\t\n    tag 820\t\t\t\n      JUMPDEST \t\t\t\n      PUSH 0\t\t\t\n      DUP2 \t\t\t\n      MLOAD \t\t\t\n      SWAP1 \t\t\t\n      POP \t\t\t\n      PUSH [tag] 1501\t\t\t\n      DUP2 \t\t\t\n      PUSH [tag] 669\t\t\t\n      JUMP \t\t\t\n    tag 1501\t\t\t\n      JUMPDEST \t\t\t\n      SWAP3 \t\t\t\n      SWAP2 \t\t\t\n      POP \t\t\t\n      POP \t\t\t\n      JUMP \t\t\t\n    tag 619\t\t\t\n      JUMPDEST \t\t\t\n      PUSH 0\t\t\t\n      PUSH 20\t\t\t\n      DUP3 \t\t\t\n      DUP5 \t\t\t\n      SUB \t\t\t\n      SLT \t\t\t\n      ISZERO \t\t\t\n      PUSH [tag] 1503\t\t\t\n      JUMPI \t\t\t\n      PUSH [tag] 1504\t\t\t\n      PUSH [tag] 658\t\t\t\n      JUMP \t\t\t\n    tag 1504\t\t\t\n      JUMPDEST \t\t\t\n    tag 1503\t\t\t\n      JUMPDEST \t\t\t\n      PUSH 0\t\t\t\n      PUSH [tag] 1505\t\t\t\n      DUP5 \t\t\t\n      DUP3 \t\t\t\n      DUP6 \t\t\t\n      ADD \t\t\t\n      PUSH [tag] 820\t\t\t\n      JUMP \t\t\t\n    tag 1505\t\t\t\n      JUMPDEST \t\t\t\n      SWAP2 \t\t\t\n      POP \t\t\t\n      POP \t\t\t\n      SWAP3 \t\t\t\n      SWAP2 \t\t\t\n      POP \t\t\t\n      POP \t\t\t\n      JUMP \t\t\t\n    tag 635\t\t\t\n      JUMPDEST \t\t\t\n      PUSH 0\t\t\t\n      PUSH A0\t\t\t\n      DUP3 \t\t\t\n      ADD \t\t\t\n      SWAP1 \t\t\t\n      POP \t\t\t\n      PUSH [tag] 1507\t\t\t\n      PUSH 0\t\t\t\n      DUP4 \t\t\t\n      ADD \t\t\t\n      DUP9 \t\t\t\n      PUSH [tag] 723\t\t\t\n      JUMP \t\t\t\n    tag 1507\t\t\t\n      JUMPDEST \t\t\t\n      PUSH [tag] 1508\t\t\t\n      PUSH 20\t\t\t\n      DUP4 \t\t\t\n      ADD \t\t\t\n      DUP8 \t\t\t\n      PUSH [tag] 723\t\t\t\n      JUMP \t\t\t\n    tag 1508\t\t\t\n      JUMPDEST \t\t\t\n      DUP2 \t\t\t\n      DUP2 \t\t\t\n      SUB \t\t\t\n      PUSH 40\t\t\t\n      DUP4 \t\t\t\n      ADD \t\t\t\n      MSTORE \t\t\t\n      PUSH [tag] 1509\t\t\t\n      DUP2 \t\t\t\n      DUP7 \t\t\t\n      PUSH [tag] 714\t\t\t\n      JUMP \t\t\t\n    tag 1509\t\t\t\n      JUMPDEST \t\t\t\n      SWAP1 \t\t\t\n      POP \t\t\t\n      DUP2 \t\t\t\n      DUP2 \t\t\t\n      SUB \t\t\t\n      PUSH 60\t\t\t\n      DUP4 \t\t\t\n      ADD \t\t\t\n      MSTORE \t\t\t\n      PUSH [tag] 1510\t\t\t\n      DUP2 \t\t\t\n      DUP6 \t\t\t\n      PUSH [tag] 714\t\t\t\n      JUMP \t\t\t\n    tag 1510\t\t\t\n      JUMPDEST \t\t\t\n      SWAP1 \t\t\t\n      POP \t\t\t\n      DUP2 \t\t\t\n      DUP2 \t\t\t\n      SUB \t\t\t\n      PUSH 80\t\t\t\n      DUP4 \t\t\t\n      ADD \t\t\t\n      MSTORE \t\t\t\n      PUSH [tag] 1511\t\t\t\n      DUP2 \t\t\t\n      DUP5 \t\t\t\n      PUSH [tag] 819\t\t\t\n      JUMP \t\t\t\n    tag 1511\t\t\t\n      JUMPDEST \t\t\t\n      SWAP1 \t\t\t\n      POP \t\t\t\n      SWAP7 \t\t\t\n      SWAP6 \t\t\t\n      POP \t\t\t\n      POP \t\t\t\n      POP \t\t\t\n      POP \t\t\t\n      POP \t\t\t\n      POP \t\t\t\n      JUMP \t\t\t\n    .data\n"
}