{
	"compilerInput": "{\"language\":\"Solidity\",\"sources\":{\"PMUniversalVerifier.sol\":{\"content\":\"// SPDX-License-IDentifier: MIT\\r\\npragma solidity >=0.8.0 <0.9.0;\\r\\n\\r\\nimport \\\"@openzeppelin/contracts/access/Ownable.sol\\\";\\r\\nimport {ERC1155} from '@openzeppelin/contracts/token/ERC1155/ERC1155.sol';\\r\\nimport {PrimitiveTypeUtils} from '@iden3/contracts/lib/PrimitiveTypeUtils.sol';\\r\\nimport {ICircuitValidator} from '@iden3/contracts/interfaces/ICircuitValidator.sol';\\r\\nimport {EmbeddedZKPVerifier} from '@iden3/contracts/verifiers/EmbeddedZKPVerifier.sol';\\r\\nimport {UniversalVerifier} from '@iden3/contracts/verifiers/UniversalVerifier.sol';\\r\\nimport \\\"@openzeppelin/contracts/utils/structs/EnumerableSet.sol\\\";\\r\\nimport { IZKPVerifier } from '@iden3/contracts/interfaces/IZKPVerifier.sol';\\r\\n\\r\\ncontract PMUniversalVerifier is ERC1155, Ownable {\\r\\n    address[] private admins;\\r\\n\\r\\n    // Getter function for the admins array, only callable by the owner.\\r\\n    function getAdmins() public view onlyOwner returns (address[] memory) {\\r\\n        return admins;\\r\\n    }\\r\\n\\r\\n    // Internal helper function to check if an address is an admin.\\r\\n    function _isAdmin(address _admin) internal view returns (bool) {\\r\\n        for (uint i = 0; i < admins.length; i++) {\\r\\n            if (admins[i] == _admin) {\\r\\n                return true;\\r\\n            }\\r\\n        }\\r\\n        return false;\\r\\n    }\\r\\n\\r\\n    // Function to add an admin address. Only the owner can add.\\r\\n    function addAdmin(address _admin) public onlyOwner {\\r\\n        require(_admin != address(0), \\\"Invalid address\\\");\\r\\n        require(!_isAdmin(_admin), \\\"Address is already an admin\\\");\\r\\n        admins.push(_admin);\\r\\n    }\\r\\n\\r\\n    // Function to remove an admin address. Only the owner can remove.\\r\\n    function removeAdmin(address _admin) public onlyOwner {\\r\\n        uint len = admins.length;\\r\\n        for (uint i = 0; i < len; i++) {\\r\\n            if (admins[i] == _admin) {\\r\\n                admins[i] = admins[len - 1];\\r\\n                admins.pop();\\r\\n                return;\\r\\n            }\\r\\n        }\\r\\n        revert(\\\"Admin not found\\\");\\r\\n    }\\r\\n\\r\\n    // Modifier to restrict functions to only addresses in the admin list.\\r\\n    modifier onlyAdmin() {\\r\\n        require(_isAdmin(msg.sender), \\\"Caller is not an admin\\\");\\r\\n        _;\\r\\n    }\\r\\n\\r\\n    using EnumerableSet for EnumerableSet.UintSet;\\r\\n\\r\\n    // A set of all token IDs that have ever been minted\\r\\n    EnumerableSet.UintSet private _allTokenIDs;\\r\\n\\r\\n    /// @notice Returns the full list of token IDs ever minted\\r\\n    function allTokenIDs() external view returns (uint256[] memory) {\\r\\n        return _allTokenIDs.values();\\r\\n    }\\r\\n\\r\\n    // Mapping from token ID to its name. But the token name and other attributes can be stored as uri \\r\\n    mapping(uint256 => string) public tokenName;\\r\\n\\r\\n\\r\\n    // Mapping from tokenID to proof_request_id to prover's role (a string 'sender' or 'receiver').\\r\\n    // tokenID → (proofRequestID → 'sender' or 'receiver')\\r\\n    mapping(uint256 => mapping(uint64 => string)) public tokenID_proofRequest_role;\\r\\n\\r\\n    // Struct to represent a spending condition\\r\\n    struct SpendingCondition {\\r\\n        string attribute;\\r\\n        string operatorStr;\\r\\n        string value;\\r\\n    }\\r\\n\\r\\n    // Mapping from tokenID to proofRequestID to spending condition\\r\\n    // tokenID => (proofRequestID => SpendingCondition)\\r\\n    mapping(uint256 => mapping(uint64 => SpendingCondition)) public spendingConditions;\\r\\n\\r\\n    // An array to store proof_request_ids only for iteration.\\r\\n    uint64[] public proofRequestIDs;\\r\\n    \\r\\n    /// @notice Get all spending conditions for a given tokenID\\r\\n    function getSpendingConditions(uint256 tokenID) external view returns (uint64[] memory, SpendingCondition[] memory) {\\r\\n        uint64[] memory ids = proofRequestIDs;\\r\\n        uint256 count = 0;\\r\\n        // First, count how many proofRequestIDs are associated with this tokenID\\r\\n        for (uint256 i = 0; i < ids.length; i++) {\\r\\n            if (bytes(spendingConditions[tokenID][ids[i]].attribute).length > 0) {\\r\\n                count++;\\r\\n            }\\r\\n        }\\r\\n        // Prepare arrays for output\\r\\n        uint64[] memory filteredIDs = new uint64[](count);\\r\\n        SpendingCondition[] memory conditions = new SpendingCondition[](count);\\r\\n        uint256 idx = 0;\\r\\n        for (uint256 i = 0; i < ids.length; i++) {\\r\\n            if (bytes(spendingConditions[tokenID][ids[i]].attribute).length > 0) {\\r\\n                filteredIDs[idx] = ids[i];\\r\\n                conditions[idx] = spendingConditions[tokenID][ids[i]];\\r\\n                idx++;\\r\\n            }\\r\\n        }\\r\\n        return (filteredIDs, conditions);\\r\\n    }\\r\\n\\r\\n    // Add a new proof request and the corresponding prover's address.\\r\\n    // The array proofRequestIDs is updated accordingly.\\r\\n    // Add a new proof request and the corresponding role ('sender' or 'receiver').\\r\\n    // The array proofRequestIDs is updated accordingly.\\r\\n    function addProofRequestAndRole(uint256 tokenID, uint64 requestID, string calldata role) public onlyAdmin {\\r\\n        require(_allTokenIDs.contains(tokenID), \\\"token id does not exist\\\");\\r\\n        require(bytes(tokenID_proofRequest_role[tokenID][requestID]).length == 0, \\\"Proof request already exists\\\");\\r\\n        require(\\r\\n            keccak256(bytes(role)) == keccak256(bytes(\\\"sender\\\")) ||\\r\\n            keccak256(bytes(role)) == keccak256(bytes(\\\"receiver\\\")),\\r\\n            \\\"Role must be 'sender' or 'receiver'\\\"\\r\\n        );\\r\\n        tokenID_proofRequest_role[tokenID][requestID] = role;\\r\\n        proofRequestIDs.push(requestID);\\r\\n    }\\r\\n    \\r\\n    function addProofRequest_VerifierAndPM(\\r\\n        uint64 requestId,\\r\\n        string calldata metadata,\\r\\n        ICircuitValidator validator,\\r\\n        bytes calldata data,\\r\\n        uint256 tokenID,\\r\\n        string calldata role,\\r\\n        SpendingCondition calldata condition\\r\\n    ) public {\\r\\n        // Build the IZKPVerifier.ZKPRequest struct\\r\\n        IZKPVerifier.ZKPRequest memory req = IZKPVerifier.ZKPRequest({\\r\\n            metadata: metadata,\\r\\n            validator: validator,\\r\\n            data: data\\r\\n        });\\r\\n\\r\\n        verifier.setZKPRequest(requestId, req);\\r\\n        addProofRequestAndRole(tokenID, requestId, role);\\r\\n        // Add the spending condition\\r\\n        spendingConditions[tokenID][requestId] = SpendingCondition({\\r\\n            attribute: condition.attribute,\\r\\n            operatorStr: condition.operatorStr,\\r\\n            value: condition.value\\r\\n        });\\r\\n    }\\r\\n    \\r\\n    // Delete a proof request and the address by ID.\\r\\n    // The array proofRequestIDs is updated accordingly.\\r\\n    function deleteProofRequestAndRole(uint256 tokenID, uint64 requestID) public onlyAdmin {\\r\\n        require(_allTokenIDs.contains(tokenID), \\\"token id does not exist\\\");\\r\\n        require(bytes(tokenID_proofRequest_role[tokenID][requestID]).length != 0, \\\"Proof request does not exist\\\");\\r\\n        delete tokenID_proofRequest_role[tokenID][requestID];\\r\\n        // Remove ID from the array (swap-and-pop technique)\\r\\n        for (uint256 i = 0; i < proofRequestIDs.length; i++) {\\r\\n            if (proofRequestIDs[i] == requestID) {\\r\\n                proofRequestIDs[i] = proofRequestIDs[proofRequestIDs.length - 1];\\r\\n                proofRequestIDs.pop();\\r\\n                break;\\r\\n            }\\r\\n        }\\r\\n    }\\r\\n\\r\\n    uint256 public constant fungible_token = 1;\\r\\n    uint256 public constant non_fungible_token = 2;\\r\\n\\r\\n    UniversalVerifier public verifier;\\r\\n\\r\\n    constructor(UniversalVerifier verifier_, address initialOwner, string memory uri_)\\r\\n    ERC1155(uri_)\\r\\n    Ownable(initialOwner)\\r\\n    {\\r\\n        verifier = verifier_;\\r\\n    }\\r\\n\\r\\n    // Custom error declaration (check if token id already taken, when minting new token)\\r\\n    error TokenIDTaken(uint256 tokenID);\\r\\n\\r\\n\\r\\n    // Reverts with TokenIDNotFound if the ID hasn’t been registered yet.\\r\\n    error TokenIDNotFound(uint256 tokenID);\\r\\n\\r\\n    /// @notice Mint a token by name. If the name exists, mint the existing token. If the name does not exist, mint a new token with a random unused ID and assign the name.\\r\\n    /// @dev The function no longer requires the ID argument. The name must be non-empty.\\r\\n    function mintToken(address to, uint256 amount, bytes calldata data, string calldata name) external onlyOwner {\\r\\n        require(bytes(name).length > 0, \\\"Name required\\\");\\r\\n        uint256 tokenID = 0;\\r\\n        bool found = false;\\r\\n        uint256[] memory ids = _allTokenIDs.values();\\r\\n        for (uint256 i = 0; i < ids.length; i++) {\\r\\n            if (keccak256(bytes(tokenName[ids[i]])) == keccak256(bytes(name))) {\\r\\n                tokenID = ids[i];\\r\\n                found = true;\\r\\n                break;\\r\\n            }\\r\\n        }\\r\\n        if (found) {\\r\\n            _mint(to, tokenID, amount, data);\\r\\n        } else {\\r\\n            // Generate a random 4-5 digit ID (1000–99999)\\r\\n            uint256 newID;\\r\\n            uint256 attempts = 0;\\r\\n            do {\\r\\n                newID = 1000 + (uint256(keccak256(abi.encodePacked(block.timestamp, block.prevrandao, to, name, attempts))) % 90000);\\r\\n                attempts++;\\r\\n                require(attempts < 100, \\\"Unable to find unique short token ID\\\");\\r\\n            } while (_allTokenIDs.contains(newID));\\r\\n            require(_allTokenIDs.add(newID), \\\"TokenIDTaken\\\");\\r\\n            _mint(to, newID, amount, data);\\r\\n            tokenName[newID] = name;\\r\\n        }\\r\\n    }\\r\\n\\r\\n    function burn(address account, uint256 ID, uint256 amount) external onlyOwner {\\r\\n        _burn(account, ID, amount);\\r\\n    }\\r\\n\\r\\n    // Custom error declaration\\r\\n    error ProofNotVerified(uint64 requestID, address proverAddress);\\r\\n\\r\\n    // @dev Internal helper: revert if any proof for tokenID is still unverified.\\r\\n    // Use this before token transfer.\\r\\n    // Checks sender's and receiver's proofs as required by the prover's role.\\r\\n    function _checkAllProofsVerified(uint256 tokenID, address sender, address receiver) internal view {\\r\\n        uint64[] memory tempRequestIDs = proofRequestIDs;\\r\\n        for (uint256 i = 0; i < tempRequestIDs.length; i++) {\\r\\n            string memory role = tokenID_proofRequest_role[tokenID][tempRequestIDs[i]];\\r\\n            if (bytes(role).length == 0) continue;\\r\\n            if (keccak256(bytes(role)) == keccak256(bytes(\\\"sender\\\"))) {\\r\\n                if (!verifier.getProofStatus(sender, tempRequestIDs[i]).isVerified) {\\r\\n                    revert ProofNotVerified(tempRequestIDs[i], sender);\\r\\n                }\\r\\n            } else if (keccak256(bytes(role)) == keccak256(bytes(\\\"receiver\\\"))) {\\r\\n                if (!verifier.getProofStatus(receiver, tempRequestIDs[i]).isVerified) {\\r\\n                    revert ProofNotVerified(tempRequestIDs[i], receiver);\\r\\n                }\\r\\n            }\\r\\n        }\\r\\n    }\\r\\n\\r\\n    // Override safeTransferFrom and include the onlyValidProofs modifier\\r\\n    function safeTransferFrom(\\r\\n        address from,\\r\\n        address to,\\r\\n        uint256 tokenID,\\r\\n        uint256 amount,\\r\\n        bytes memory data\\r\\n    ) public virtual override {\\r\\n        // Enforce per-token proof checks\\r\\n        _checkAllProofsVerified(tokenID, from, to);\\r\\n\\r\\n        // Optionally add any additional custom logic here\\r\\n        super.safeTransferFrom(from, to, tokenID, amount, data);\\r\\n    }\\r\\n\\r\\n    function safeBatchTransferFrom(\\r\\n        address from,\\r\\n        address to,\\r\\n        uint256[] memory tokenIDs,\\r\\n        uint256[] memory amounts,\\r\\n        bytes memory data\\r\\n    ) public virtual override {\\r\\n        require(tokenIDs.length == amounts.length, \\\"ERC1155: Mismatched array lengths\\\");\\r\\n        require(to != address(0), \\\"ERC1155: transfer to the zero address\\\");\\r\\n        for (uint256 i = 0; i < tokenIDs.length; ++i) {\\r\\n            // Enforce per-token proof checks\\r\\n            _checkAllProofsVerified(tokenIDs[i], from, to);\\r\\n            safeTransferFrom(from, to, tokenIDs[i], amounts[i], data);\\r\\n        }\\r\\n    }\\r\\n}\\r\\n\"},\"@iden3/contracts/interfaces/IZKPVerifier.sol\":{\"content\":\"// SPDX-License-Identifier: GPL-3.0\\n\\npragma solidity 0.8.20;\\n\\nimport {ICircuitValidator} from \\\"./ICircuitValidator.sol\\\";\\n\\ninterface IZKPVerifier {\\n    struct ZKPRequest {\\n        string metadata;\\n        ICircuitValidator validator;\\n        bytes data;\\n    }\\n\\n    struct ProofStatus {\\n        bool isVerified;\\n        string validatorVersion;\\n        uint256 blockNumber;\\n        uint256 blockTimestamp;\\n    }\\n\\n    function submitZKPResponse(\\n        uint64 requestId,\\n        uint256[] memory inputs,\\n        uint256[2] memory a,\\n        uint256[2][2] memory b,\\n        uint256[2] memory c\\n    ) external;\\n\\n    function setZKPRequest(uint64 requestId, ZKPRequest calldata request) external;\\n\\n    function getZKPRequest(uint64 requestId) external view returns (ZKPRequest memory);\\n\\n    function getZKPRequestsCount() external view returns (uint256);\\n\\n    function requestIdExists(uint64 requestId) external view returns (bool);\\n\\n    function getZKPRequests(\\n        uint256 startIndex,\\n        uint256 length\\n    ) external view returns (ZKPRequest[] memory);\\n\\n    function isProofVerified(address sender, uint64 requestId) external view returns (bool);\\n\\n    function getProofStatus(\\n        address sender,\\n        uint64 requestId\\n    ) external view returns (ProofStatus memory);\\n\\n    function getProofStorageField(\\n        address user,\\n        uint64 requestId,\\n        string memory key\\n    ) external view returns (uint256);\\n}\\n\"},\"@openzeppelin/contracts/utils/structs/EnumerableSet.sol\":{\"content\":\"// SPDX-License-Identifier: MIT\\n// OpenZeppelin Contracts (last updated v5.3.0) (utils/structs/EnumerableSet.sol)\\n// This file was procedurally generated from scripts/generate/templates/EnumerableSet.js.\\n\\npragma solidity ^0.8.20;\\n\\nimport {Arrays} from \\\"../Arrays.sol\\\";\\n\\n/**\\n * @dev Library for managing\\n * https://en.wikipedia.org/wiki/Set_(abstract_data_type)[sets] of primitive\\n * types.\\n *\\n * Sets have the following properties:\\n *\\n * - Elements are added, removed, and checked for existence in constant time\\n * (O(1)).\\n * - Elements are enumerated in O(n). No guarantees are made on the ordering.\\n * - Set can be cleared (all elements removed) in O(n).\\n *\\n * ```solidity\\n * contract Example {\\n *     // Add the library methods\\n *     using EnumerableSet for EnumerableSet.AddressSet;\\n *\\n *     // Declare a set state variable\\n *     EnumerableSet.AddressSet private mySet;\\n * }\\n * ```\\n *\\n * As of v3.3.0, sets of type `bytes32` (`Bytes32Set`), `address` (`AddressSet`)\\n * and `uint256` (`UintSet`) are supported.\\n *\\n * [WARNING]\\n * ====\\n * Trying to delete such a structure from storage will likely result in data corruption, rendering the structure\\n * unusable.\\n * See https://github.com/ethereum/solidity/pull/11843[ethereum/solidity#11843] for more info.\\n *\\n * In order to clean an EnumerableSet, you can either remove all elements one by one or create a fresh instance using an\\n * array of EnumerableSet.\\n * ====\\n */\\nlibrary EnumerableSet {\\n    // To implement this library for multiple types with as little code\\n    // repetition as possible, we write it in terms of a generic Set type with\\n    // bytes32 values.\\n    // The Set implementation uses private functions, and user-facing\\n    // implementations (such as AddressSet) are just wrappers around the\\n    // underlying Set.\\n    // This means that we can only create new EnumerableSets for types that fit\\n    // in bytes32.\\n\\n    struct Set {\\n        // Storage of set values\\n        bytes32[] _values;\\n        // Position is the index of the value in the `values` array plus 1.\\n        // Position 0 is used to mean a value is not in the set.\\n        mapping(bytes32 value => uint256) _positions;\\n    }\\n\\n    /**\\n     * @dev Add a value to a set. O(1).\\n     *\\n     * Returns true if the value was added to the set, that is if it was not\\n     * already present.\\n     */\\n    function _add(Set storage set, bytes32 value) private returns (bool) {\\n        if (!_contains(set, value)) {\\n            set._values.push(value);\\n            // The value is stored at length-1, but we add 1 to all indexes\\n            // and use 0 as a sentinel value\\n            set._positions[value] = set._values.length;\\n            return true;\\n        } else {\\n            return false;\\n        }\\n    }\\n\\n    /**\\n     * @dev Removes a value from a set. O(1).\\n     *\\n     * Returns true if the value was removed from the set, that is if it was\\n     * present.\\n     */\\n    function _remove(Set storage set, bytes32 value) private returns (bool) {\\n        // We cache the value's position to prevent multiple reads from the same storage slot\\n        uint256 position = set._positions[value];\\n\\n        if (position != 0) {\\n            // Equivalent to contains(set, value)\\n            // To delete an element from the _values array in O(1), we swap the element to delete with the last one in\\n            // the array, and then remove the last element (sometimes called as 'swap and pop').\\n            // This modifies the order of the array, as noted in {at}.\\n\\n            uint256 valueIndex = position - 1;\\n            uint256 lastIndex = set._values.length - 1;\\n\\n            if (valueIndex != lastIndex) {\\n                bytes32 lastValue = set._values[lastIndex];\\n\\n                // Move the lastValue to the index where the value to delete is\\n                set._values[valueIndex] = lastValue;\\n                // Update the tracked position of the lastValue (that was just moved)\\n                set._positions[lastValue] = position;\\n            }\\n\\n            // Delete the slot where the moved value was stored\\n            set._values.pop();\\n\\n            // Delete the tracked position for the deleted slot\\n            delete set._positions[value];\\n\\n            return true;\\n        } else {\\n            return false;\\n        }\\n    }\\n\\n    /**\\n     * @dev Removes all the values from a set. O(n).\\n     *\\n     * WARNING: Developers should keep in mind that this function has an unbounded cost and using it may render the\\n     * function uncallable if the set grows to the point where clearing it consumes too much gas to fit in a block.\\n     */\\n    function _clear(Set storage set) private {\\n        uint256 len = _length(set);\\n        for (uint256 i = 0; i < len; ++i) {\\n            delete set._positions[set._values[i]];\\n        }\\n        Arrays.unsafeSetLength(set._values, 0);\\n    }\\n\\n    /**\\n     * @dev Returns true if the value is in the set. O(1).\\n     */\\n    function _contains(Set storage set, bytes32 value) private view returns (bool) {\\n        return set._positions[value] != 0;\\n    }\\n\\n    /**\\n     * @dev Returns the number of values on the set. O(1).\\n     */\\n    function _length(Set storage set) private view returns (uint256) {\\n        return set._values.length;\\n    }\\n\\n    /**\\n     * @dev Returns the value stored at position `index` in the set. O(1).\\n     *\\n     * Note that there are no guarantees on the ordering of values inside the\\n     * array, and it may change when more values are added or removed.\\n     *\\n     * Requirements:\\n     *\\n     * - `index` must be strictly less than {length}.\\n     */\\n    function _at(Set storage set, uint256 index) private view returns (bytes32) {\\n        return set._values[index];\\n    }\\n\\n    /**\\n     * @dev Return the entire set in an array\\n     *\\n     * WARNING: This operation will copy the entire storage to memory, which can be quite expensive. This is designed\\n     * to mostly be used by view accessors that are queried without any gas fees. Developers should keep in mind that\\n     * this function has an unbounded cost, and using it as part of a state-changing function may render the function\\n     * uncallable if the set grows to a point where copying to memory consumes too much gas to fit in a block.\\n     */\\n    function _values(Set storage set) private view returns (bytes32[] memory) {\\n        return set._values;\\n    }\\n\\n    // Bytes32Set\\n\\n    struct Bytes32Set {\\n        Set _inner;\\n    }\\n\\n    /**\\n     * @dev Add a value to a set. O(1).\\n     *\\n     * Returns true if the value was added to the set, that is if it was not\\n     * already present.\\n     */\\n    function add(Bytes32Set storage set, bytes32 value) internal returns (bool) {\\n        return _add(set._inner, value);\\n    }\\n\\n    /**\\n     * @dev Removes a value from a set. O(1).\\n     *\\n     * Returns true if the value was removed from the set, that is if it was\\n     * present.\\n     */\\n    function remove(Bytes32Set storage set, bytes32 value) internal returns (bool) {\\n        return _remove(set._inner, value);\\n    }\\n\\n    /**\\n     * @dev Removes all the values from a set. O(n).\\n     *\\n     * WARNING: Developers should keep in mind that this function has an unbounded cost and using it may render the\\n     * function uncallable if the set grows to the point where clearing it consumes too much gas to fit in a block.\\n     */\\n    function clear(Bytes32Set storage set) internal {\\n        _clear(set._inner);\\n    }\\n\\n    /**\\n     * @dev Returns true if the value is in the set. O(1).\\n     */\\n    function contains(Bytes32Set storage set, bytes32 value) internal view returns (bool) {\\n        return _contains(set._inner, value);\\n    }\\n\\n    /**\\n     * @dev Returns the number of values in the set. O(1).\\n     */\\n    function length(Bytes32Set storage set) internal view returns (uint256) {\\n        return _length(set._inner);\\n    }\\n\\n    /**\\n     * @dev Returns the value stored at position `index` in the set. O(1).\\n     *\\n     * Note that there are no guarantees on the ordering of values inside the\\n     * array, and it may change when more values are added or removed.\\n     *\\n     * Requirements:\\n     *\\n     * - `index` must be strictly less than {length}.\\n     */\\n    function at(Bytes32Set storage set, uint256 index) internal view returns (bytes32) {\\n        return _at(set._inner, index);\\n    }\\n\\n    /**\\n     * @dev Return the entire set in an array\\n     *\\n     * WARNING: This operation will copy the entire storage to memory, which can be quite expensive. This is designed\\n     * to mostly be used by view accessors that are queried without any gas fees. Developers should keep in mind that\\n     * this function has an unbounded cost, and using it as part of a state-changing function may render the function\\n     * uncallable if the set grows to a point where copying to memory consumes too much gas to fit in a block.\\n     */\\n    function values(Bytes32Set storage set) internal view returns (bytes32[] memory) {\\n        bytes32[] memory store = _values(set._inner);\\n        bytes32[] memory result;\\n\\n        assembly (\\\"memory-safe\\\") {\\n            result := store\\n        }\\n\\n        return result;\\n    }\\n\\n    // AddressSet\\n\\n    struct AddressSet {\\n        Set _inner;\\n    }\\n\\n    /**\\n     * @dev Add a value to a set. O(1).\\n     *\\n     * Returns true if the value was added to the set, that is if it was not\\n     * already present.\\n     */\\n    function add(AddressSet storage set, address value) internal returns (bool) {\\n        return _add(set._inner, bytes32(uint256(uint160(value))));\\n    }\\n\\n    /**\\n     * @dev Removes a value from a set. O(1).\\n     *\\n     * Returns true if the value was removed from the set, that is if it was\\n     * present.\\n     */\\n    function remove(AddressSet storage set, address value) internal returns (bool) {\\n        return _remove(set._inner, bytes32(uint256(uint160(value))));\\n    }\\n\\n    /**\\n     * @dev Removes all the values from a set. O(n).\\n     *\\n     * WARNING: Developers should keep in mind that this function has an unbounded cost and using it may render the\\n     * function uncallable if the set grows to the point where clearing it consumes too much gas to fit in a block.\\n     */\\n    function clear(AddressSet storage set) internal {\\n        _clear(set._inner);\\n    }\\n\\n    /**\\n     * @dev Returns true if the value is in the set. O(1).\\n     */\\n    function contains(AddressSet storage set, address value) internal view returns (bool) {\\n        return _contains(set._inner, bytes32(uint256(uint160(value))));\\n    }\\n\\n    /**\\n     * @dev Returns the number of values in the set. O(1).\\n     */\\n    function length(AddressSet storage set) internal view returns (uint256) {\\n        return _length(set._inner);\\n    }\\n\\n    /**\\n     * @dev Returns the value stored at position `index` in the set. O(1).\\n     *\\n     * Note that there are no guarantees on the ordering of values inside the\\n     * array, and it may change when more values are added or removed.\\n     *\\n     * Requirements:\\n     *\\n     * - `index` must be strictly less than {length}.\\n     */\\n    function at(AddressSet storage set, uint256 index) internal view returns (address) {\\n        return address(uint160(uint256(_at(set._inner, index))));\\n    }\\n\\n    /**\\n     * @dev Return the entire set in an array\\n     *\\n     * WARNING: This operation will copy the entire storage to memory, which can be quite expensive. This is designed\\n     * to mostly be used by view accessors that are queried without any gas fees. Developers should keep in mind that\\n     * this function has an unbounded cost, and using it as part of a state-changing function may render the function\\n     * uncallable if the set grows to a point where copying to memory consumes too much gas to fit in a block.\\n     */\\n    function values(AddressSet storage set) internal view returns (address[] memory) {\\n        bytes32[] memory store = _values(set._inner);\\n        address[] memory result;\\n\\n        assembly (\\\"memory-safe\\\") {\\n            result := store\\n        }\\n\\n        return result;\\n    }\\n\\n    // UintSet\\n\\n    struct UintSet {\\n        Set _inner;\\n    }\\n\\n    /**\\n     * @dev Add a value to a set. O(1).\\n     *\\n     * Returns true if the value was added to the set, that is if it was not\\n     * already present.\\n     */\\n    function add(UintSet storage set, uint256 value) internal returns (bool) {\\n        return _add(set._inner, bytes32(value));\\n    }\\n\\n    /**\\n     * @dev Removes a value from a set. O(1).\\n     *\\n     * Returns true if the value was removed from the set, that is if it was\\n     * present.\\n     */\\n    function remove(UintSet storage set, uint256 value) internal returns (bool) {\\n        return _remove(set._inner, bytes32(value));\\n    }\\n\\n    /**\\n     * @dev Removes all the values from a set. O(n).\\n     *\\n     * WARNING: Developers should keep in mind that this function has an unbounded cost and using it may render the\\n     * function uncallable if the set grows to the point where clearing it consumes too much gas to fit in a block.\\n     */\\n    function clear(UintSet storage set) internal {\\n        _clear(set._inner);\\n    }\\n\\n    /**\\n     * @dev Returns true if the value is in the set. O(1).\\n     */\\n    function contains(UintSet storage set, uint256 value) internal view returns (bool) {\\n        return _contains(set._inner, bytes32(value));\\n    }\\n\\n    /**\\n     * @dev Returns the number of values in the set. O(1).\\n     */\\n    function length(UintSet storage set) internal view returns (uint256) {\\n        return _length(set._inner);\\n    }\\n\\n    /**\\n     * @dev Returns the value stored at position `index` in the set. O(1).\\n     *\\n     * Note that there are no guarantees on the ordering of values inside the\\n     * array, and it may change when more values are added or removed.\\n     *\\n     * Requirements:\\n     *\\n     * - `index` must be strictly less than {length}.\\n     */\\n    function at(UintSet storage set, uint256 index) internal view returns (uint256) {\\n        return uint256(_at(set._inner, index));\\n    }\\n\\n    /**\\n     * @dev Return the entire set in an array\\n     *\\n     * WARNING: This operation will copy the entire storage to memory, which can be quite expensive. This is designed\\n     * to mostly be used by view accessors that are queried without any gas fees. Developers should keep in mind that\\n     * this function has an unbounded cost, and using it as part of a state-changing function may render the function\\n     * uncallable if the set grows to a point where copying to memory consumes too much gas to fit in a block.\\n     */\\n    function values(UintSet storage set) internal view returns (uint256[] memory) {\\n        bytes32[] memory store = _values(set._inner);\\n        uint256[] memory result;\\n\\n        assembly (\\\"memory-safe\\\") {\\n            result := store\\n        }\\n\\n        return result;\\n    }\\n}\\n\"},\"@iden3/contracts/verifiers/UniversalVerifier.sol\":{\"content\":\"// SPDX-License-Identifier: GPL-3.0\\npragma solidity 0.8.20;\\n\\nimport {Ownable2StepUpgradeable} from \\\"@openzeppelin/contracts-upgradeable/access/Ownable2StepUpgradeable.sol\\\";\\nimport {ICircuitValidator} from \\\"../interfaces/ICircuitValidator.sol\\\";\\nimport {IZKPVerifier} from \\\"../interfaces/IZKPVerifier.sol\\\";\\nimport {RequestOwnership} from \\\"./RequestOwnership.sol\\\";\\nimport {RequestDisableable} from \\\"./RequestDisableable.sol\\\";\\nimport {ValidatorWhitelist} from \\\"./ValidatorWhitelist.sol\\\";\\nimport {ZKPVerifierBase} from \\\"./ZKPVerifierBase.sol\\\";\\nimport {ArrayUtils} from \\\"../lib/ArrayUtils.sol\\\";\\n\\n/// @title Universal Verifier Contract\\n/// @notice A contract to manage ZKP (Zero-Knowledge Proof) requests and proofs.\\ncontract UniversalVerifier is\\n    Ownable2StepUpgradeable,\\n    RequestOwnership,\\n    RequestDisableable,\\n    ValidatorWhitelist\\n{\\n    /**\\n     * @dev Version of contract\\n     */\\n    string public constant VERSION = \\\"1.0.2\\\";\\n\\n    /// @dev Event emitted upon submitting a ZKP request\\n    event ZKPResponseSubmitted(uint64 indexed requestId, address indexed caller);\\n\\n    /// @dev Event emitted upon adding a ZKP request\\n    event ZKPRequestSet(\\n        uint64 indexed requestId,\\n        address indexed requestOwner,\\n        string metadata,\\n        address validator,\\n        bytes data\\n    );\\n\\n    /// @dev Modifier to check if the caller is the contract Owner or ZKP Request Owner\\n    modifier onlyOwnerOrRequestOwner(uint64 requestId) {\\n        address sender = _msgSender();\\n        require(\\n            sender == getRequestOwner(requestId) || sender == owner(),\\n            \\\"Not an owner or request owner\\\"\\n        );\\n        _;\\n    }\\n\\n    /// @dev Initializes the contract\\n    function initialize() public initializer {\\n        __Ownable_init(_msgSender());\\n    }\\n\\n    /// @dev Version of contract getter\\n    function version() public pure returns (string memory) {\\n        return VERSION;\\n    }\\n\\n    /// @dev Sets a ZKP request\\n    /// @param requestId The ID of the ZKP request\\n    /// @param request The ZKP request data\\n    function setZKPRequest(\\n        uint64 requestId,\\n        IZKPVerifier.ZKPRequest calldata request\\n    ) public override(RequestOwnership, ValidatorWhitelist, ZKPVerifierBase) {\\n        super.setZKPRequest(requestId, request);\\n\\n        emit ZKPRequestSet(\\n            requestId,\\n            _msgSender(),\\n            request.metadata,\\n            address(request.validator),\\n            request.data\\n        );\\n    }\\n\\n    /// @dev Submits a ZKP response and updates proof status\\n    /// @param requestId The ID of the ZKP request\\n    /// @param inputs The input data for the proof\\n    /// @param a The first component of the proof\\n    /// @param b The second component of the proof\\n    /// @param c The third component of the proof\\n    function submitZKPResponse(\\n        uint64 requestId,\\n        uint256[] calldata inputs,\\n        uint256[2] calldata a,\\n        uint256[2][2] calldata b,\\n        uint256[2] calldata c\\n    ) public override(RequestDisableable, ValidatorWhitelist, ZKPVerifierBase) {\\n        super.submitZKPResponse(requestId, inputs, a, b, c);\\n        emit ZKPResponseSubmitted(requestId, _msgSender());\\n    }\\n\\n    /// @dev Verifies a ZKP response without updating any proof status\\n    /// @param requestId The ID of the ZKP request\\n    /// @param inputs The public inputs for the proof\\n    /// @param a The first component of the proof\\n    /// @param b The second component of the proof\\n    /// @param c The third component of the proof\\n    /// @param sender The sender on behalf of which the proof is done\\n    function verifyZKPResponse(\\n        uint64 requestId,\\n        uint256[] calldata inputs,\\n        uint256[2] calldata a,\\n        uint256[2][2] calldata b,\\n        uint256[2] calldata c,\\n        address sender\\n    )\\n        public\\n        view\\n        override(RequestDisableable, ValidatorWhitelist, ZKPVerifierBase)\\n        returns (ICircuitValidator.KeyToInputIndex[] memory)\\n    {\\n        return super.verifyZKPResponse(requestId, inputs, a, b, c, sender);\\n    }\\n\\n    /// @dev Sets ZKP Request Owner address\\n    /// @param requestId The ID of the ZKP request\\n    /// @param requestOwner ZKP Request Owner address\\n    function setRequestOwner(\\n        uint64 requestId,\\n        address requestOwner\\n    ) public onlyOwnerOrRequestOwner(requestId) {\\n        _setRequestOwner(requestId, requestOwner);\\n    }\\n\\n    /// @dev Disables ZKP Request\\n    /// @param requestId The ID of the ZKP request\\n    function disableZKPRequest(uint64 requestId) public onlyOwnerOrRequestOwner(requestId) {\\n        _disableZKPRequest(requestId);\\n    }\\n\\n    /// @dev Enables ZKP Request\\n    /// @param requestId The ID of the ZKP request\\n    function enableZKPRequest(uint64 requestId) public onlyOwnerOrRequestOwner(requestId) {\\n        _enableZKPRequest(requestId);\\n    }\\n\\n    /// @dev Add new validator to the whitelist\\n    /// @param validator Validator address\\n    function addValidatorToWhitelist(ICircuitValidator validator) public onlyOwner {\\n        _addValidatorToWhitelist(validator);\\n    }\\n\\n    /// @dev Remove validator from the whitelist\\n    /// @param validator Validator address\\n    function removeValidatorFromWhitelist(ICircuitValidator validator) public onlyOwner {\\n        _removeValidatorFromWhitelist(validator);\\n    }\\n}\\n\"},\"@iden3/contracts/verifiers/EmbeddedZKPVerifier.sol\":{\"content\":\"// SPDX-License-Identifier: GPL-3.0\\npragma solidity 0.8.20;\\n\\nimport {Ownable2StepUpgradeable} from \\\"@openzeppelin/contracts-upgradeable/access/Ownable2StepUpgradeable.sol\\\";\\nimport {GenesisUtils} from \\\"../lib/GenesisUtils.sol\\\";\\nimport {ICircuitValidator} from \\\"../interfaces/ICircuitValidator.sol\\\";\\nimport {IZKPVerifier} from \\\"../interfaces/IZKPVerifier.sol\\\";\\nimport {ZKPVerifierBase} from \\\"./ZKPVerifierBase.sol\\\";\\nimport {ArrayUtils} from \\\"../lib/ArrayUtils.sol\\\";\\n\\nabstract contract EmbeddedZKPVerifier is Ownable2StepUpgradeable, ZKPVerifierBase {\\n    /**\\n     * @dev Sets the value for Owner\\n     */\\n    function __EmbeddedZKPVerifier_init(address initialOwner) internal onlyInitializing {\\n        __Ownable_init(initialOwner);\\n        ___EmbeddedZKPVerifier_init_unchained(initialOwner);\\n    }\\n\\n    function ___EmbeddedZKPVerifier_init_unchained(\\n        address initialOwner\\n    ) internal onlyInitializing {}\\n\\n    /// @dev Sets a ZKP request\\n    /// @param requestId The ID of the ZKP request\\n    /// @param request The ZKP request data\\n    function setZKPRequest(\\n        uint64 requestId,\\n        IZKPVerifier.ZKPRequest calldata request\\n    ) public virtual override onlyOwner {\\n        super.setZKPRequest(requestId, request);\\n    }\\n\\n    /// @dev Submits a ZKP response and updates proof status\\n    /// @param requestId The ID of the ZKP request\\n    /// @param inputs The input data for the proof\\n    /// @param a The first component of the proof\\n    /// @param b The second component of the proof\\n    /// @param c The third component of the proof\\n    function submitZKPResponse(\\n        uint64 requestId,\\n        uint256[] calldata inputs,\\n        uint256[2] calldata a,\\n        uint256[2][2] calldata b,\\n        uint256[2] calldata c\\n    ) public virtual override {\\n        IZKPVerifier.ZKPRequest memory request = getZKPRequest(requestId);\\n        _beforeProofSubmit(requestId, inputs, request.validator);\\n        super.submitZKPResponse(requestId, inputs, a, b, c);\\n        _afterProofSubmit(requestId, inputs, request.validator);\\n    }\\n\\n    /**\\n     * @dev Hook that is called before any proof response submit\\n     */\\n    function _beforeProofSubmit(\\n        uint64 requestId,\\n        uint256[] memory inputs,\\n        ICircuitValidator validator\\n    ) internal virtual {}\\n\\n    /**\\n     * @dev Hook that is called after any proof response submit\\n     */\\n    function _afterProofSubmit(\\n        uint64 requestId,\\n        uint256[] memory inputs,\\n        ICircuitValidator validator\\n    ) internal virtual {}\\n}\\n\"},\"@iden3/contracts/interfaces/ICircuitValidator.sol\":{\"content\":\"// SPDX-License-Identifier: GPL-3.0\\npragma solidity 0.8.20;\\n\\ninterface ICircuitValidator {\\n    struct KeyToInputIndex {\\n        string key;\\n        uint256 inputIndex;\\n    }\\n\\n    function version() external view returns (string memory);\\n\\n    function verify(\\n        uint256[] memory inputs,\\n        uint256[2] memory a,\\n        uint256[2][2] memory b,\\n        uint256[2] memory c,\\n        bytes calldata data,\\n        address sender\\n    ) external view returns (ICircuitValidator.KeyToInputIndex[] memory);\\n\\n    function getSupportedCircuitIds() external view returns (string[] memory ids);\\n\\n    function inputIndexOf(string memory name) external view returns (uint256);\\n}\\n\"},\"@iden3/contracts/lib/PrimitiveTypeUtils.sol\":{\"content\":\"// SPDX-License-Identifier: GPL-3.0\\npragma solidity 0.8.20;\\n\\nimport {BytesLib} from \\\"solidity-bytes-utils/contracts/BytesLib.sol\\\";\\n\\nlibrary PrimitiveTypeUtils {\\n    /**\\n     * @dev uint256ToBytes\\n     */\\n    function uint256ToBytes(uint256 x) internal pure returns (bytes memory b) {\\n        b = new bytes(32);\\n        assembly {\\n            mstore(add(b, 32), x)\\n        }\\n    }\\n\\n    /**\\n     * @dev reverse uint256\\n     */\\n    function reverseUint256(uint256 input) internal pure returns (uint256 v) {\\n        v = input;\\n\\n        // swap bytes\\n        v =\\n            ((v & 0xFF00FF00FF00FF00FF00FF00FF00FF00FF00FF00FF00FF00FF00FF00FF00FF00) >> 8) |\\n            ((v & 0x00FF00FF00FF00FF00FF00FF00FF00FF00FF00FF00FF00FF00FF00FF00FF00FF) << 8);\\n\\n        // swap 2-byte long pairs\\n        v =\\n            ((v & 0xFFFF0000FFFF0000FFFF0000FFFF0000FFFF0000FFFF0000FFFF0000FFFF0000) >> 16) |\\n            ((v & 0x0000FFFF0000FFFF0000FFFF0000FFFF0000FFFF0000FFFF0000FFFF0000FFFF) << 16);\\n\\n        // swap 4-byte long pairs\\n        v =\\n            ((v & 0xFFFFFFFF00000000FFFFFFFF00000000FFFFFFFF00000000FFFFFFFF00000000) >> 32) |\\n            ((v & 0x00000000FFFFFFFF00000000FFFFFFFF00000000FFFFFFFF00000000FFFFFFFF) << 32);\\n\\n        // swap 8-byte long pairs\\n        v =\\n            ((v & 0xFFFFFFFFFFFFFFFF0000000000000000FFFFFFFFFFFFFFFF0000000000000000) >> 64) |\\n            ((v & 0x0000000000000000FFFFFFFFFFFFFFFF0000000000000000FFFFFFFFFFFFFFFF) << 64);\\n\\n        // swap 16-byte long pairs\\n        v = (v >> 128) | (v << 128);\\n    }\\n\\n    /**\\n     * @dev reverse uint16\\n     */\\n    function reverseUint16(uint16 input) internal pure returns (uint16 v) {\\n        v = input;\\n\\n        // swap bytes\\n        v = (v >> 8) | (v << 8);\\n    }\\n\\n    /**\\n     * @dev reverse uint32\\n     */\\n    function reverseUint32(uint32 input) internal pure returns (uint32 v) {\\n        v = input;\\n\\n        // swap bytes\\n        v = ((v & 0xFF00FF00) >> 8) | ((v & 0x00FF00FF) << 8);\\n\\n        // swap 2-byte long pairs\\n        v = (v >> 16) | (v << 16);\\n    }\\n\\n    /**\\n     * @dev compareStrings\\n     */\\n    function compareStrings(string memory a, string memory b) internal pure returns (bool) {\\n        if (bytes(a).length != bytes(b).length) {\\n            return false;\\n        }\\n        return (keccak256(abi.encodePacked((a))) == keccak256(abi.encodePacked((b))));\\n    }\\n\\n    /**\\n     * @dev padRightToUint256 shift left 12 bytes\\n     * @param b, bytes array with max length 32, other bytes are cut. e.g. 0xf39Fd6e51aad88F6F4ce6aB8827279cffFb92266\\n     * @return value e.g 0xf39fd6e51aad88f6f4ce6ab8827279cfffb92266000000000000000000000000\\n     */\\n    function padRightToUint256(bytes memory b) internal pure returns (uint256 value) {\\n        return uint256(bytes32(b));\\n    }\\n\\n    /**\\n     * @dev bytesToAddress\\n     */\\n    function bytesToAddress(bytes memory bys) internal pure returns (address addr) {\\n        assembly {\\n            addr := mload(add(bys, 20))\\n        }\\n    }\\n\\n    /**\\n     * @dev concat\\n     */\\n    function concat(\\n        bytes memory preBytes,\\n        bytes memory postBytes\\n    ) internal pure returns (bytes memory) {\\n        return BytesLib.concat(preBytes, postBytes);\\n    }\\n\\n    /**\\n     * @dev slice\\n     */\\n    function slice(\\n        bytes memory bys,\\n        uint256 start,\\n        uint256 length\\n    ) internal pure returns (bytes memory) {\\n        return BytesLib.slice(bys, start, length);\\n    }\\n\\n    /**\\n     * @dev addressToUint256 converts address to uint256 which lower 20 bytes\\n     * is an address in Big Endian\\n     * @param _addr is ethereum address: eg.0xf39Fd6e51aad88F6F4ce6aB8827279cffFb92266\\n     * which as 0x000000000000000000000000f39fd6e51aad88f6f4ce6ab8827279cfffb92266 converted to uint160\\n     * @return uint256 representation of address 1390849295786071768276380950238675083608645509734\\n     */\\n    function addressToUint256(address _addr) internal pure returns (uint256) {\\n        return uint256(uint160(_addr));\\n    }\\n\\n    /**\\n     * @dev uint256ToAddress converts uint256 which lower 20 bytes\\n     * is an address in Big Endian to address\\n     * @param input uint256 e.g. 1390849295786071768276380950238675083608645509734\\n     * which as 0x000000000000000000000000f39fd6e51aad88f6f4ce6ab8827279cfffb92266 converted to address\\n     * @return address representation of uint256 0xf39Fd6e51aad88F6F4ce6aB8827279cffFb92266\\n     */\\n    function uint256ToAddress(uint256 input) internal pure returns (address) {\\n        require(\\n            input == uint256(uint160(input)),\\n            \\\"given input is not a representation of address, 12 most significant bytes should be zero\\\"\\n        );\\n        return address(uint160(input));\\n    }\\n\\n    /**\\n     * @dev addressToChallenge converts address to uint256 which lower 20 bytes\\n     * are representation of address in LittleEndian\\n     * @param _addr is ethereum address: eg.0xf39Fd6e51aad88F6F4ce6aB8827279cffFb92266\\n     * addressToBytes: 0x000000000000000000000000f39fd6e51aad88f6f4ce6ab8827279cfffb92266\\n     * padRightToUint256: 0xf39fd6e51aad88f6f4ce6ab8827279cfffb92266000000000000000000000000,\\n     * reverseUint256 result: 0x0000000000000000000000006622b9ffcf797282b86acef4f688ad1ae5d69ff3\\n     * @return uint256: 583091486781463398742321306787801699791102451699\\n     */\\n    function addressToUint256LE(address _addr) internal pure returns (uint256) {\\n        return reverseUint256(padRightToUint256(addressToBytes(_addr)));\\n    }\\n\\n    /**\\n     * @dev uint256LEtoAddress - converts uint256 which 20 lower bytes\\n     *      are representation of address in LE to address\\n     * @param input is uint256 which is created from bytes in LittleEndian:\\n     * eg. 583091486781463398742321306787801699791102451699\\n     *  or 0x0000000000000000000000006622b9ffcf797282b86acef4f688ad1ae5d69ff3\\n     * reverseUint256 result: 110194434039389003190498847789203126033799499726478230611233094447786700570624\\n     * uint256ToBytes result: 0xf39fd6e51aad88f6f4ce6ab8827279cfffb92266000000000000000000000000\\n     * @return address - 0xf39Fd6e51aad88F6F4ce6aB8827279cffFb92266\\n     */\\n    function uint256LEToAddress(uint256 input) internal pure returns (address) {\\n        require(\\n            input == uint256(uint160(input)),\\n            \\\"given uint256 is not a representation of an address, 12 most significant bytes should be zero\\\"\\n        );\\n        return bytesToAddress(uint256ToBytes(reverseUint256(input)));\\n    }\\n\\n    function addressToBytes(address a) internal pure returns (bytes memory) {\\n        return abi.encodePacked(a);\\n    }\\n}\\n\"},\"@openzeppelin/contracts/token/ERC1155/ERC1155.sol\":{\"content\":\"// SPDX-License-Identifier: MIT\\n// OpenZeppelin Contracts (last updated v5.1.0) (token/ERC1155/ERC1155.sol)\\n\\npragma solidity ^0.8.20;\\n\\nimport {IERC1155} from \\\"./IERC1155.sol\\\";\\nimport {IERC1155MetadataURI} from \\\"./extensions/IERC1155MetadataURI.sol\\\";\\nimport {ERC1155Utils} from \\\"./utils/ERC1155Utils.sol\\\";\\nimport {Context} from \\\"../../utils/Context.sol\\\";\\nimport {IERC165, ERC165} from \\\"../../utils/introspection/ERC165.sol\\\";\\nimport {Arrays} from \\\"../../utils/Arrays.sol\\\";\\nimport {IERC1155Errors} from \\\"../../interfaces/draft-IERC6093.sol\\\";\\n\\n/**\\n * @dev Implementation of the basic standard multi-token.\\n * See https://eips.ethereum.org/EIPS/eip-1155\\n * Originally based on code by Enjin: https://github.com/enjin/erc-1155\\n */\\nabstract contract ERC1155 is Context, ERC165, IERC1155, IERC1155MetadataURI, IERC1155Errors {\\n    using Arrays for uint256[];\\n    using Arrays for address[];\\n\\n    mapping(uint256 id => mapping(address account => uint256)) private _balances;\\n\\n    mapping(address account => mapping(address operator => bool)) private _operatorApprovals;\\n\\n    // Used as the URI for all token types by relying on ID substitution, e.g. https://token-cdn-domain/{id}.json\\n    string private _uri;\\n\\n    /**\\n     * @dev See {_setURI}.\\n     */\\n    constructor(string memory uri_) {\\n        _setURI(uri_);\\n    }\\n\\n    /**\\n     * @dev See {IERC165-supportsInterface}.\\n     */\\n    function supportsInterface(bytes4 interfaceId) public view virtual override(ERC165, IERC165) returns (bool) {\\n        return\\n            interfaceId == type(IERC1155).interfaceId ||\\n            interfaceId == type(IERC1155MetadataURI).interfaceId ||\\n            super.supportsInterface(interfaceId);\\n    }\\n\\n    /**\\n     * @dev See {IERC1155MetadataURI-uri}.\\n     *\\n     * This implementation returns the same URI for *all* token types. It relies\\n     * on the token type ID substitution mechanism\\n     * https://eips.ethereum.org/EIPS/eip-1155#metadata[defined in the ERC].\\n     *\\n     * Clients calling this function must replace the `\\\\{id\\\\}` substring with the\\n     * actual token type ID.\\n     */\\n    function uri(uint256 /* id */) public view virtual returns (string memory) {\\n        return _uri;\\n    }\\n\\n    /**\\n     * @dev See {IERC1155-balanceOf}.\\n     */\\n    function balanceOf(address account, uint256 id) public view virtual returns (uint256) {\\n        return _balances[id][account];\\n    }\\n\\n    /**\\n     * @dev See {IERC1155-balanceOfBatch}.\\n     *\\n     * Requirements:\\n     *\\n     * - `accounts` and `ids` must have the same length.\\n     */\\n    function balanceOfBatch(\\n        address[] memory accounts,\\n        uint256[] memory ids\\n    ) public view virtual returns (uint256[] memory) {\\n        if (accounts.length != ids.length) {\\n            revert ERC1155InvalidArrayLength(ids.length, accounts.length);\\n        }\\n\\n        uint256[] memory batchBalances = new uint256[](accounts.length);\\n\\n        for (uint256 i = 0; i < accounts.length; ++i) {\\n            batchBalances[i] = balanceOf(accounts.unsafeMemoryAccess(i), ids.unsafeMemoryAccess(i));\\n        }\\n\\n        return batchBalances;\\n    }\\n\\n    /**\\n     * @dev See {IERC1155-setApprovalForAll}.\\n     */\\n    function setApprovalForAll(address operator, bool approved) public virtual {\\n        _setApprovalForAll(_msgSender(), operator, approved);\\n    }\\n\\n    /**\\n     * @dev See {IERC1155-isApprovedForAll}.\\n     */\\n    function isApprovedForAll(address account, address operator) public view virtual returns (bool) {\\n        return _operatorApprovals[account][operator];\\n    }\\n\\n    /**\\n     * @dev See {IERC1155-safeTransferFrom}.\\n     */\\n    function safeTransferFrom(address from, address to, uint256 id, uint256 value, bytes memory data) public virtual {\\n        address sender = _msgSender();\\n        if (from != sender && !isApprovedForAll(from, sender)) {\\n            revert ERC1155MissingApprovalForAll(sender, from);\\n        }\\n        _safeTransferFrom(from, to, id, value, data);\\n    }\\n\\n    /**\\n     * @dev See {IERC1155-safeBatchTransferFrom}.\\n     */\\n    function safeBatchTransferFrom(\\n        address from,\\n        address to,\\n        uint256[] memory ids,\\n        uint256[] memory values,\\n        bytes memory data\\n    ) public virtual {\\n        address sender = _msgSender();\\n        if (from != sender && !isApprovedForAll(from, sender)) {\\n            revert ERC1155MissingApprovalForAll(sender, from);\\n        }\\n        _safeBatchTransferFrom(from, to, ids, values, data);\\n    }\\n\\n    /**\\n     * @dev Transfers a `value` amount of tokens of type `id` from `from` to `to`. Will mint (or burn) if `from`\\n     * (or `to`) is the zero address.\\n     *\\n     * Emits a {TransferSingle} event if the arrays contain one element, and {TransferBatch} otherwise.\\n     *\\n     * Requirements:\\n     *\\n     * - If `to` refers to a smart contract, it must implement either {IERC1155Receiver-onERC1155Received}\\n     *   or {IERC1155Receiver-onERC1155BatchReceived} and return the acceptance magic value.\\n     * - `ids` and `values` must have the same length.\\n     *\\n     * NOTE: The ERC-1155 acceptance check is not performed in this function. See {_updateWithAcceptanceCheck} instead.\\n     */\\n    function _update(address from, address to, uint256[] memory ids, uint256[] memory values) internal virtual {\\n        if (ids.length != values.length) {\\n            revert ERC1155InvalidArrayLength(ids.length, values.length);\\n        }\\n\\n        address operator = _msgSender();\\n\\n        for (uint256 i = 0; i < ids.length; ++i) {\\n            uint256 id = ids.unsafeMemoryAccess(i);\\n            uint256 value = values.unsafeMemoryAccess(i);\\n\\n            if (from != address(0)) {\\n                uint256 fromBalance = _balances[id][from];\\n                if (fromBalance < value) {\\n                    revert ERC1155InsufficientBalance(from, fromBalance, value, id);\\n                }\\n                unchecked {\\n                    // Overflow not possible: value <= fromBalance\\n                    _balances[id][from] = fromBalance - value;\\n                }\\n            }\\n\\n            if (to != address(0)) {\\n                _balances[id][to] += value;\\n            }\\n        }\\n\\n        if (ids.length == 1) {\\n            uint256 id = ids.unsafeMemoryAccess(0);\\n            uint256 value = values.unsafeMemoryAccess(0);\\n            emit TransferSingle(operator, from, to, id, value);\\n        } else {\\n            emit TransferBatch(operator, from, to, ids, values);\\n        }\\n    }\\n\\n    /**\\n     * @dev Version of {_update} that performs the token acceptance check by calling\\n     * {IERC1155Receiver-onERC1155Received} or {IERC1155Receiver-onERC1155BatchReceived} on the receiver address if it\\n     * contains code (eg. is a smart contract at the moment of execution).\\n     *\\n     * IMPORTANT: Overriding this function is discouraged because it poses a reentrancy risk from the receiver. So any\\n     * update to the contract state after this function would break the check-effect-interaction pattern. Consider\\n     * overriding {_update} instead.\\n     */\\n    function _updateWithAcceptanceCheck(\\n        address from,\\n        address to,\\n        uint256[] memory ids,\\n        uint256[] memory values,\\n        bytes memory data\\n    ) internal virtual {\\n        _update(from, to, ids, values);\\n        if (to != address(0)) {\\n            address operator = _msgSender();\\n            if (ids.length == 1) {\\n                uint256 id = ids.unsafeMemoryAccess(0);\\n                uint256 value = values.unsafeMemoryAccess(0);\\n                ERC1155Utils.checkOnERC1155Received(operator, from, to, id, value, data);\\n            } else {\\n                ERC1155Utils.checkOnERC1155BatchReceived(operator, from, to, ids, values, data);\\n            }\\n        }\\n    }\\n\\n    /**\\n     * @dev Transfers a `value` tokens of token type `id` from `from` to `to`.\\n     *\\n     * Emits a {TransferSingle} event.\\n     *\\n     * Requirements:\\n     *\\n     * - `to` cannot be the zero address.\\n     * - `from` must have a balance of tokens of type `id` of at least `value` amount.\\n     * - If `to` refers to a smart contract, it must implement {IERC1155Receiver-onERC1155Received} and return the\\n     * acceptance magic value.\\n     */\\n    function _safeTransferFrom(address from, address to, uint256 id, uint256 value, bytes memory data) internal {\\n        if (to == address(0)) {\\n            revert ERC1155InvalidReceiver(address(0));\\n        }\\n        if (from == address(0)) {\\n            revert ERC1155InvalidSender(address(0));\\n        }\\n        (uint256[] memory ids, uint256[] memory values) = _asSingletonArrays(id, value);\\n        _updateWithAcceptanceCheck(from, to, ids, values, data);\\n    }\\n\\n    /**\\n     * @dev xref:ROOT:erc1155.adoc#batch-operations[Batched] version of {_safeTransferFrom}.\\n     *\\n     * Emits a {TransferBatch} event.\\n     *\\n     * Requirements:\\n     *\\n     * - If `to` refers to a smart contract, it must implement {IERC1155Receiver-onERC1155BatchReceived} and return the\\n     * acceptance magic value.\\n     * - `ids` and `values` must have the same length.\\n     */\\n    function _safeBatchTransferFrom(\\n        address from,\\n        address to,\\n        uint256[] memory ids,\\n        uint256[] memory values,\\n        bytes memory data\\n    ) internal {\\n        if (to == address(0)) {\\n            revert ERC1155InvalidReceiver(address(0));\\n        }\\n        if (from == address(0)) {\\n            revert ERC1155InvalidSender(address(0));\\n        }\\n        _updateWithAcceptanceCheck(from, to, ids, values, data);\\n    }\\n\\n    /**\\n     * @dev Sets a new URI for all token types, by relying on the token type ID\\n     * substitution mechanism\\n     * https://eips.ethereum.org/EIPS/eip-1155#metadata[defined in the ERC].\\n     *\\n     * By this mechanism, any occurrence of the `\\\\{id\\\\}` substring in either the\\n     * URI or any of the values in the JSON file at said URI will be replaced by\\n     * clients with the token type ID.\\n     *\\n     * For example, the `https://token-cdn-domain/\\\\{id\\\\}.json` URI would be\\n     * interpreted by clients as\\n     * `https://token-cdn-domain/000000000000000000000000000000000000000000000000000000000004cce0.json`\\n     * for token type ID 0x4cce0.\\n     *\\n     * See {uri}.\\n     *\\n     * Because these URIs cannot be meaningfully represented by the {URI} event,\\n     * this function emits no events.\\n     */\\n    function _setURI(string memory newuri) internal virtual {\\n        _uri = newuri;\\n    }\\n\\n    /**\\n     * @dev Creates a `value` amount of tokens of type `id`, and assigns them to `to`.\\n     *\\n     * Emits a {TransferSingle} event.\\n     *\\n     * Requirements:\\n     *\\n     * - `to` cannot be the zero address.\\n     * - If `to` refers to a smart contract, it must implement {IERC1155Receiver-onERC1155Received} and return the\\n     * acceptance magic value.\\n     */\\n    function _mint(address to, uint256 id, uint256 value, bytes memory data) internal {\\n        if (to == address(0)) {\\n            revert ERC1155InvalidReceiver(address(0));\\n        }\\n        (uint256[] memory ids, uint256[] memory values) = _asSingletonArrays(id, value);\\n        _updateWithAcceptanceCheck(address(0), to, ids, values, data);\\n    }\\n\\n    /**\\n     * @dev xref:ROOT:erc1155.adoc#batch-operations[Batched] version of {_mint}.\\n     *\\n     * Emits a {TransferBatch} event.\\n     *\\n     * Requirements:\\n     *\\n     * - `ids` and `values` must have the same length.\\n     * - `to` cannot be the zero address.\\n     * - If `to` refers to a smart contract, it must implement {IERC1155Receiver-onERC1155BatchReceived} and return the\\n     * acceptance magic value.\\n     */\\n    function _mintBatch(address to, uint256[] memory ids, uint256[] memory values, bytes memory data) internal {\\n        if (to == address(0)) {\\n            revert ERC1155InvalidReceiver(address(0));\\n        }\\n        _updateWithAcceptanceCheck(address(0), to, ids, values, data);\\n    }\\n\\n    /**\\n     * @dev Destroys a `value` amount of tokens of type `id` from `from`\\n     *\\n     * Emits a {TransferSingle} event.\\n     *\\n     * Requirements:\\n     *\\n     * - `from` cannot be the zero address.\\n     * - `from` must have at least `value` amount of tokens of type `id`.\\n     */\\n    function _burn(address from, uint256 id, uint256 value) internal {\\n        if (from == address(0)) {\\n            revert ERC1155InvalidSender(address(0));\\n        }\\n        (uint256[] memory ids, uint256[] memory values) = _asSingletonArrays(id, value);\\n        _updateWithAcceptanceCheck(from, address(0), ids, values, \\\"\\\");\\n    }\\n\\n    /**\\n     * @dev xref:ROOT:erc1155.adoc#batch-operations[Batched] version of {_burn}.\\n     *\\n     * Emits a {TransferBatch} event.\\n     *\\n     * Requirements:\\n     *\\n     * - `from` cannot be the zero address.\\n     * - `from` must have at least `value` amount of tokens of type `id`.\\n     * - `ids` and `values` must have the same length.\\n     */\\n    function _burnBatch(address from, uint256[] memory ids, uint256[] memory values) internal {\\n        if (from == address(0)) {\\n            revert ERC1155InvalidSender(address(0));\\n        }\\n        _updateWithAcceptanceCheck(from, address(0), ids, values, \\\"\\\");\\n    }\\n\\n    /**\\n     * @dev Approve `operator` to operate on all of `owner` tokens\\n     *\\n     * Emits an {ApprovalForAll} event.\\n     *\\n     * Requirements:\\n     *\\n     * - `operator` cannot be the zero address.\\n     */\\n    function _setApprovalForAll(address owner, address operator, bool approved) internal virtual {\\n        if (operator == address(0)) {\\n            revert ERC1155InvalidOperator(address(0));\\n        }\\n        _operatorApprovals[owner][operator] = approved;\\n        emit ApprovalForAll(owner, operator, approved);\\n    }\\n\\n    /**\\n     * @dev Creates an array in memory with only one value for each of the elements provided.\\n     */\\n    function _asSingletonArrays(\\n        uint256 element1,\\n        uint256 element2\\n    ) private pure returns (uint256[] memory array1, uint256[] memory array2) {\\n        assembly (\\\"memory-safe\\\") {\\n            // Load the free memory pointer\\n            array1 := mload(0x40)\\n            // Set array length to 1\\n            mstore(array1, 1)\\n            // Store the single element at the next word after the length (where content starts)\\n            mstore(add(array1, 0x20), element1)\\n\\n            // Repeat for next array locating it right after the first array\\n            array2 := add(array1, 0x40)\\n            mstore(array2, 1)\\n            mstore(add(array2, 0x20), element2)\\n\\n            // Update the free memory pointer by pointing after the second array\\n            mstore(0x40, add(array2, 0x40))\\n        }\\n    }\\n}\\n\"},\"@openzeppelin/contracts/access/Ownable.sol\":{\"content\":\"// SPDX-License-Identifier: MIT\\n// OpenZeppelin Contracts (last updated v5.0.0) (access/Ownable.sol)\\n\\npragma solidity ^0.8.20;\\n\\nimport {Context} from \\\"../utils/Context.sol\\\";\\n\\n/**\\n * @dev Contract module which provides a basic access control mechanism, where\\n * there is an account (an owner) that can be granted exclusive access to\\n * specific functions.\\n *\\n * The initial owner is set to the address provided by the deployer. This can\\n * later be changed with {transferOwnership}.\\n *\\n * This module is used through inheritance. It will make available the modifier\\n * `onlyOwner`, which can be applied to your functions to restrict their use to\\n * the owner.\\n */\\nabstract contract Ownable is Context {\\n    address private _owner;\\n\\n    /**\\n     * @dev The caller account is not authorized to perform an operation.\\n     */\\n    error OwnableUnauthorizedAccount(address account);\\n\\n    /**\\n     * @dev The owner is not a valid owner account. (eg. `address(0)`)\\n     */\\n    error OwnableInvalidOwner(address owner);\\n\\n    event OwnershipTransferred(address indexed previousOwner, address indexed newOwner);\\n\\n    /**\\n     * @dev Initializes the contract setting the address provided by the deployer as the initial owner.\\n     */\\n    constructor(address initialOwner) {\\n        if (initialOwner == address(0)) {\\n            revert OwnableInvalidOwner(address(0));\\n        }\\n        _transferOwnership(initialOwner);\\n    }\\n\\n    /**\\n     * @dev Throws if called by any account other than the owner.\\n     */\\n    modifier onlyOwner() {\\n        _checkOwner();\\n        _;\\n    }\\n\\n    /**\\n     * @dev Returns the address of the current owner.\\n     */\\n    function owner() public view virtual returns (address) {\\n        return _owner;\\n    }\\n\\n    /**\\n     * @dev Throws if the sender is not the owner.\\n     */\\n    function _checkOwner() internal view virtual {\\n        if (owner() != _msgSender()) {\\n            revert OwnableUnauthorizedAccount(_msgSender());\\n        }\\n    }\\n\\n    /**\\n     * @dev Leaves the contract without owner. It will not be possible to call\\n     * `onlyOwner` functions. Can only be called by the current owner.\\n     *\\n     * NOTE: Renouncing ownership will leave the contract without an owner,\\n     * thereby disabling any functionality that is only available to the owner.\\n     */\\n    function renounceOwnership() public virtual onlyOwner {\\n        _transferOwnership(address(0));\\n    }\\n\\n    /**\\n     * @dev Transfers ownership of the contract to a new account (`newOwner`).\\n     * Can only be called by the current owner.\\n     */\\n    function transferOwnership(address newOwner) public virtual onlyOwner {\\n        if (newOwner == address(0)) {\\n            revert OwnableInvalidOwner(address(0));\\n        }\\n        _transferOwnership(newOwner);\\n    }\\n\\n    /**\\n     * @dev Transfers ownership of the contract to a new account (`newOwner`).\\n     * Internal function without access restriction.\\n     */\\n    function _transferOwnership(address newOwner) internal virtual {\\n        address oldOwner = _owner;\\n        _owner = newOwner;\\n        emit OwnershipTransferred(oldOwner, newOwner);\\n    }\\n}\\n\"},\"@openzeppelin/contracts/utils/Arrays.sol\":{\"content\":\"// SPDX-License-Identifier: MIT\\n// OpenZeppelin Contracts (last updated v5.3.0) (utils/Arrays.sol)\\n// This file was procedurally generated from scripts/generate/templates/Arrays.js.\\n\\npragma solidity ^0.8.20;\\n\\nimport {Comparators} from \\\"./Comparators.sol\\\";\\nimport {SlotDerivation} from \\\"./SlotDerivation.sol\\\";\\nimport {StorageSlot} from \\\"./StorageSlot.sol\\\";\\nimport {Math} from \\\"./math/Math.sol\\\";\\n\\n/**\\n * @dev Collection of functions related to array types.\\n */\\nlibrary Arrays {\\n    using SlotDerivation for bytes32;\\n    using StorageSlot for bytes32;\\n\\n    /**\\n     * @dev Sort an array of uint256 (in memory) following the provided comparator function.\\n     *\\n     * This function does the sorting \\\"in place\\\", meaning that it overrides the input. The object is returned for\\n     * convenience, but that returned value can be discarded safely if the caller has a memory pointer to the array.\\n     *\\n     * NOTE: this function's cost is `O(n · log(n))` in average and `O(n²)` in the worst case, with n the length of the\\n     * array. Using it in view functions that are executed through `eth_call` is safe, but one should be very careful\\n     * when executing this as part of a transaction. If the array being sorted is too large, the sort operation may\\n     * consume more gas than is available in a block, leading to potential DoS.\\n     *\\n     * IMPORTANT: Consider memory side-effects when using custom comparator functions that access memory in an unsafe way.\\n     */\\n    function sort(\\n        uint256[] memory array,\\n        function(uint256, uint256) pure returns (bool) comp\\n    ) internal pure returns (uint256[] memory) {\\n        _quickSort(_begin(array), _end(array), comp);\\n        return array;\\n    }\\n\\n    /**\\n     * @dev Variant of {sort} that sorts an array of uint256 in increasing order.\\n     */\\n    function sort(uint256[] memory array) internal pure returns (uint256[] memory) {\\n        sort(array, Comparators.lt);\\n        return array;\\n    }\\n\\n    /**\\n     * @dev Sort an array of address (in memory) following the provided comparator function.\\n     *\\n     * This function does the sorting \\\"in place\\\", meaning that it overrides the input. The object is returned for\\n     * convenience, but that returned value can be discarded safely if the caller has a memory pointer to the array.\\n     *\\n     * NOTE: this function's cost is `O(n · log(n))` in average and `O(n²)` in the worst case, with n the length of the\\n     * array. Using it in view functions that are executed through `eth_call` is safe, but one should be very careful\\n     * when executing this as part of a transaction. If the array being sorted is too large, the sort operation may\\n     * consume more gas than is available in a block, leading to potential DoS.\\n     *\\n     * IMPORTANT: Consider memory side-effects when using custom comparator functions that access memory in an unsafe way.\\n     */\\n    function sort(\\n        address[] memory array,\\n        function(address, address) pure returns (bool) comp\\n    ) internal pure returns (address[] memory) {\\n        sort(_castToUint256Array(array), _castToUint256Comp(comp));\\n        return array;\\n    }\\n\\n    /**\\n     * @dev Variant of {sort} that sorts an array of address in increasing order.\\n     */\\n    function sort(address[] memory array) internal pure returns (address[] memory) {\\n        sort(_castToUint256Array(array), Comparators.lt);\\n        return array;\\n    }\\n\\n    /**\\n     * @dev Sort an array of bytes32 (in memory) following the provided comparator function.\\n     *\\n     * This function does the sorting \\\"in place\\\", meaning that it overrides the input. The object is returned for\\n     * convenience, but that returned value can be discarded safely if the caller has a memory pointer to the array.\\n     *\\n     * NOTE: this function's cost is `O(n · log(n))` in average and `O(n²)` in the worst case, with n the length of the\\n     * array. Using it in view functions that are executed through `eth_call` is safe, but one should be very careful\\n     * when executing this as part of a transaction. If the array being sorted is too large, the sort operation may\\n     * consume more gas than is available in a block, leading to potential DoS.\\n     *\\n     * IMPORTANT: Consider memory side-effects when using custom comparator functions that access memory in an unsafe way.\\n     */\\n    function sort(\\n        bytes32[] memory array,\\n        function(bytes32, bytes32) pure returns (bool) comp\\n    ) internal pure returns (bytes32[] memory) {\\n        sort(_castToUint256Array(array), _castToUint256Comp(comp));\\n        return array;\\n    }\\n\\n    /**\\n     * @dev Variant of {sort} that sorts an array of bytes32 in increasing order.\\n     */\\n    function sort(bytes32[] memory array) internal pure returns (bytes32[] memory) {\\n        sort(_castToUint256Array(array), Comparators.lt);\\n        return array;\\n    }\\n\\n    /**\\n     * @dev Performs a quick sort of a segment of memory. The segment sorted starts at `begin` (inclusive), and stops\\n     * at end (exclusive). Sorting follows the `comp` comparator.\\n     *\\n     * Invariant: `begin <= end`. This is the case when initially called by {sort} and is preserved in subcalls.\\n     *\\n     * IMPORTANT: Memory locations between `begin` and `end` are not validated/zeroed. This function should\\n     * be used only if the limits are within a memory array.\\n     */\\n    function _quickSort(uint256 begin, uint256 end, function(uint256, uint256) pure returns (bool) comp) private pure {\\n        unchecked {\\n            if (end - begin < 0x40) return;\\n\\n            // Use first element as pivot\\n            uint256 pivot = _mload(begin);\\n            // Position where the pivot should be at the end of the loop\\n            uint256 pos = begin;\\n\\n            for (uint256 it = begin + 0x20; it < end; it += 0x20) {\\n                if (comp(_mload(it), pivot)) {\\n                    // If the value stored at the iterator's position comes before the pivot, we increment the\\n                    // position of the pivot and move the value there.\\n                    pos += 0x20;\\n                    _swap(pos, it);\\n                }\\n            }\\n\\n            _swap(begin, pos); // Swap pivot into place\\n            _quickSort(begin, pos, comp); // Sort the left side of the pivot\\n            _quickSort(pos + 0x20, end, comp); // Sort the right side of the pivot\\n        }\\n    }\\n\\n    /**\\n     * @dev Pointer to the memory location of the first element of `array`.\\n     */\\n    function _begin(uint256[] memory array) private pure returns (uint256 ptr) {\\n        assembly (\\\"memory-safe\\\") {\\n            ptr := add(array, 0x20)\\n        }\\n    }\\n\\n    /**\\n     * @dev Pointer to the memory location of the first memory word (32bytes) after `array`. This is the memory word\\n     * that comes just after the last element of the array.\\n     */\\n    function _end(uint256[] memory array) private pure returns (uint256 ptr) {\\n        unchecked {\\n            return _begin(array) + array.length * 0x20;\\n        }\\n    }\\n\\n    /**\\n     * @dev Load memory word (as a uint256) at location `ptr`.\\n     */\\n    function _mload(uint256 ptr) private pure returns (uint256 value) {\\n        assembly {\\n            value := mload(ptr)\\n        }\\n    }\\n\\n    /**\\n     * @dev Swaps the elements memory location `ptr1` and `ptr2`.\\n     */\\n    function _swap(uint256 ptr1, uint256 ptr2) private pure {\\n        assembly {\\n            let value1 := mload(ptr1)\\n            let value2 := mload(ptr2)\\n            mstore(ptr1, value2)\\n            mstore(ptr2, value1)\\n        }\\n    }\\n\\n    /// @dev Helper: low level cast address memory array to uint256 memory array\\n    function _castToUint256Array(address[] memory input) private pure returns (uint256[] memory output) {\\n        assembly {\\n            output := input\\n        }\\n    }\\n\\n    /// @dev Helper: low level cast bytes32 memory array to uint256 memory array\\n    function _castToUint256Array(bytes32[] memory input) private pure returns (uint256[] memory output) {\\n        assembly {\\n            output := input\\n        }\\n    }\\n\\n    /// @dev Helper: low level cast address comp function to uint256 comp function\\n    function _castToUint256Comp(\\n        function(address, address) pure returns (bool) input\\n    ) private pure returns (function(uint256, uint256) pure returns (bool) output) {\\n        assembly {\\n            output := input\\n        }\\n    }\\n\\n    /// @dev Helper: low level cast bytes32 comp function to uint256 comp function\\n    function _castToUint256Comp(\\n        function(bytes32, bytes32) pure returns (bool) input\\n    ) private pure returns (function(uint256, uint256) pure returns (bool) output) {\\n        assembly {\\n            output := input\\n        }\\n    }\\n\\n    /**\\n     * @dev Searches a sorted `array` and returns the first index that contains\\n     * a value greater or equal to `element`. If no such index exists (i.e. all\\n     * values in the array are strictly less than `element`), the array length is\\n     * returned. Time complexity O(log n).\\n     *\\n     * NOTE: The `array` is expected to be sorted in ascending order, and to\\n     * contain no repeated elements.\\n     *\\n     * IMPORTANT: Deprecated. This implementation behaves as {lowerBound} but lacks\\n     * support for repeated elements in the array. The {lowerBound} function should\\n     * be used instead.\\n     */\\n    function findUpperBound(uint256[] storage array, uint256 element) internal view returns (uint256) {\\n        uint256 low = 0;\\n        uint256 high = array.length;\\n\\n        if (high == 0) {\\n            return 0;\\n        }\\n\\n        while (low < high) {\\n            uint256 mid = Math.average(low, high);\\n\\n            // Note that mid will always be strictly less than high (i.e. it will be a valid array index)\\n            // because Math.average rounds towards zero (it does integer division with truncation).\\n            if (unsafeAccess(array, mid).value > element) {\\n                high = mid;\\n            } else {\\n                low = mid + 1;\\n            }\\n        }\\n\\n        // At this point `low` is the exclusive upper bound. We will return the inclusive upper bound.\\n        if (low > 0 && unsafeAccess(array, low - 1).value == element) {\\n            return low - 1;\\n        } else {\\n            return low;\\n        }\\n    }\\n\\n    /**\\n     * @dev Searches an `array` sorted in ascending order and returns the first\\n     * index that contains a value greater or equal than `element`. If no such index\\n     * exists (i.e. all values in the array are strictly less than `element`), the array\\n     * length is returned. Time complexity O(log n).\\n     *\\n     * See C++'s https://en.cppreference.com/w/cpp/algorithm/lower_bound[lower_bound].\\n     */\\n    function lowerBound(uint256[] storage array, uint256 element) internal view returns (uint256) {\\n        uint256 low = 0;\\n        uint256 high = array.length;\\n\\n        if (high == 0) {\\n            return 0;\\n        }\\n\\n        while (low < high) {\\n            uint256 mid = Math.average(low, high);\\n\\n            // Note that mid will always be strictly less than high (i.e. it will be a valid array index)\\n            // because Math.average rounds towards zero (it does integer division with truncation).\\n            if (unsafeAccess(array, mid).value < element) {\\n                // this cannot overflow because mid < high\\n                unchecked {\\n                    low = mid + 1;\\n                }\\n            } else {\\n                high = mid;\\n            }\\n        }\\n\\n        return low;\\n    }\\n\\n    /**\\n     * @dev Searches an `array` sorted in ascending order and returns the first\\n     * index that contains a value strictly greater than `element`. If no such index\\n     * exists (i.e. all values in the array are strictly less than `element`), the array\\n     * length is returned. Time complexity O(log n).\\n     *\\n     * See C++'s https://en.cppreference.com/w/cpp/algorithm/upper_bound[upper_bound].\\n     */\\n    function upperBound(uint256[] storage array, uint256 element) internal view returns (uint256) {\\n        uint256 low = 0;\\n        uint256 high = array.length;\\n\\n        if (high == 0) {\\n            return 0;\\n        }\\n\\n        while (low < high) {\\n            uint256 mid = Math.average(low, high);\\n\\n            // Note that mid will always be strictly less than high (i.e. it will be a valid array index)\\n            // because Math.average rounds towards zero (it does integer division with truncation).\\n            if (unsafeAccess(array, mid).value > element) {\\n                high = mid;\\n            } else {\\n                // this cannot overflow because mid < high\\n                unchecked {\\n                    low = mid + 1;\\n                }\\n            }\\n        }\\n\\n        return low;\\n    }\\n\\n    /**\\n     * @dev Same as {lowerBound}, but with an array in memory.\\n     */\\n    function lowerBoundMemory(uint256[] memory array, uint256 element) internal pure returns (uint256) {\\n        uint256 low = 0;\\n        uint256 high = array.length;\\n\\n        if (high == 0) {\\n            return 0;\\n        }\\n\\n        while (low < high) {\\n            uint256 mid = Math.average(low, high);\\n\\n            // Note that mid will always be strictly less than high (i.e. it will be a valid array index)\\n            // because Math.average rounds towards zero (it does integer division with truncation).\\n            if (unsafeMemoryAccess(array, mid) < element) {\\n                // this cannot overflow because mid < high\\n                unchecked {\\n                    low = mid + 1;\\n                }\\n            } else {\\n                high = mid;\\n            }\\n        }\\n\\n        return low;\\n    }\\n\\n    /**\\n     * @dev Same as {upperBound}, but with an array in memory.\\n     */\\n    function upperBoundMemory(uint256[] memory array, uint256 element) internal pure returns (uint256) {\\n        uint256 low = 0;\\n        uint256 high = array.length;\\n\\n        if (high == 0) {\\n            return 0;\\n        }\\n\\n        while (low < high) {\\n            uint256 mid = Math.average(low, high);\\n\\n            // Note that mid will always be strictly less than high (i.e. it will be a valid array index)\\n            // because Math.average rounds towards zero (it does integer division with truncation).\\n            if (unsafeMemoryAccess(array, mid) > element) {\\n                high = mid;\\n            } else {\\n                // this cannot overflow because mid < high\\n                unchecked {\\n                    low = mid + 1;\\n                }\\n            }\\n        }\\n\\n        return low;\\n    }\\n\\n    /**\\n     * @dev Access an array in an \\\"unsafe\\\" way. Skips solidity \\\"index-out-of-range\\\" check.\\n     *\\n     * WARNING: Only use if you are certain `pos` is lower than the array length.\\n     */\\n    function unsafeAccess(address[] storage arr, uint256 pos) internal pure returns (StorageSlot.AddressSlot storage) {\\n        bytes32 slot;\\n        assembly (\\\"memory-safe\\\") {\\n            slot := arr.slot\\n        }\\n        return slot.deriveArray().offset(pos).getAddressSlot();\\n    }\\n\\n    /**\\n     * @dev Access an array in an \\\"unsafe\\\" way. Skips solidity \\\"index-out-of-range\\\" check.\\n     *\\n     * WARNING: Only use if you are certain `pos` is lower than the array length.\\n     */\\n    function unsafeAccess(bytes32[] storage arr, uint256 pos) internal pure returns (StorageSlot.Bytes32Slot storage) {\\n        bytes32 slot;\\n        assembly (\\\"memory-safe\\\") {\\n            slot := arr.slot\\n        }\\n        return slot.deriveArray().offset(pos).getBytes32Slot();\\n    }\\n\\n    /**\\n     * @dev Access an array in an \\\"unsafe\\\" way. Skips solidity \\\"index-out-of-range\\\" check.\\n     *\\n     * WARNING: Only use if you are certain `pos` is lower than the array length.\\n     */\\n    function unsafeAccess(uint256[] storage arr, uint256 pos) internal pure returns (StorageSlot.Uint256Slot storage) {\\n        bytes32 slot;\\n        assembly (\\\"memory-safe\\\") {\\n            slot := arr.slot\\n        }\\n        return slot.deriveArray().offset(pos).getUint256Slot();\\n    }\\n\\n    /**\\n     * @dev Access an array in an \\\"unsafe\\\" way. Skips solidity \\\"index-out-of-range\\\" check.\\n     *\\n     * WARNING: Only use if you are certain `pos` is lower than the array length.\\n     */\\n    function unsafeMemoryAccess(address[] memory arr, uint256 pos) internal pure returns (address res) {\\n        assembly {\\n            res := mload(add(add(arr, 0x20), mul(pos, 0x20)))\\n        }\\n    }\\n\\n    /**\\n     * @dev Access an array in an \\\"unsafe\\\" way. Skips solidity \\\"index-out-of-range\\\" check.\\n     *\\n     * WARNING: Only use if you are certain `pos` is lower than the array length.\\n     */\\n    function unsafeMemoryAccess(bytes32[] memory arr, uint256 pos) internal pure returns (bytes32 res) {\\n        assembly {\\n            res := mload(add(add(arr, 0x20), mul(pos, 0x20)))\\n        }\\n    }\\n\\n    /**\\n     * @dev Access an array in an \\\"unsafe\\\" way. Skips solidity \\\"index-out-of-range\\\" check.\\n     *\\n     * WARNING: Only use if you are certain `pos` is lower than the array length.\\n     */\\n    function unsafeMemoryAccess(uint256[] memory arr, uint256 pos) internal pure returns (uint256 res) {\\n        assembly {\\n            res := mload(add(add(arr, 0x20), mul(pos, 0x20)))\\n        }\\n    }\\n\\n    /**\\n     * @dev Helper to set the length of a dynamic array. Directly writing to `.length` is forbidden.\\n     *\\n     * WARNING: this does not clear elements if length is reduced, of initialize elements if length is increased.\\n     */\\n    function unsafeSetLength(address[] storage array, uint256 len) internal {\\n        assembly (\\\"memory-safe\\\") {\\n            sstore(array.slot, len)\\n        }\\n    }\\n\\n    /**\\n     * @dev Helper to set the length of a dynamic array. Directly writing to `.length` is forbidden.\\n     *\\n     * WARNING: this does not clear elements if length is reduced, of initialize elements if length is increased.\\n     */\\n    function unsafeSetLength(bytes32[] storage array, uint256 len) internal {\\n        assembly (\\\"memory-safe\\\") {\\n            sstore(array.slot, len)\\n        }\\n    }\\n\\n    /**\\n     * @dev Helper to set the length of a dynamic array. Directly writing to `.length` is forbidden.\\n     *\\n     * WARNING: this does not clear elements if length is reduced, of initialize elements if length is increased.\\n     */\\n    function unsafeSetLength(uint256[] storage array, uint256 len) internal {\\n        assembly (\\\"memory-safe\\\") {\\n            sstore(array.slot, len)\\n        }\\n    }\\n}\\n\"},\"@openzeppelin/contracts/interfaces/draft-IERC6093.sol\":{\"content\":\"// SPDX-License-Identifier: MIT\\n// OpenZeppelin Contracts (last updated v5.1.0) (interfaces/draft-IERC6093.sol)\\npragma solidity ^0.8.20;\\n\\n/**\\n * @dev Standard ERC-20 Errors\\n * Interface of the https://eips.ethereum.org/EIPS/eip-6093[ERC-6093] custom errors for ERC-20 tokens.\\n */\\ninterface IERC20Errors {\\n    /**\\n     * @dev Indicates an error related to the current `balance` of a `sender`. Used in transfers.\\n     * @param sender Address whose tokens are being transferred.\\n     * @param balance Current balance for the interacting account.\\n     * @param needed Minimum amount required to perform a transfer.\\n     */\\n    error ERC20InsufficientBalance(address sender, uint256 balance, uint256 needed);\\n\\n    /**\\n     * @dev Indicates a failure with the token `sender`. Used in transfers.\\n     * @param sender Address whose tokens are being transferred.\\n     */\\n    error ERC20InvalidSender(address sender);\\n\\n    /**\\n     * @dev Indicates a failure with the token `receiver`. Used in transfers.\\n     * @param receiver Address to which tokens are being transferred.\\n     */\\n    error ERC20InvalidReceiver(address receiver);\\n\\n    /**\\n     * @dev Indicates a failure with the `spender`’s `allowance`. Used in transfers.\\n     * @param spender Address that may be allowed to operate on tokens without being their owner.\\n     * @param allowance Amount of tokens a `spender` is allowed to operate with.\\n     * @param needed Minimum amount required to perform a transfer.\\n     */\\n    error ERC20InsufficientAllowance(address spender, uint256 allowance, uint256 needed);\\n\\n    /**\\n     * @dev Indicates a failure with the `approver` of a token to be approved. Used in approvals.\\n     * @param approver Address initiating an approval operation.\\n     */\\n    error ERC20InvalidApprover(address approver);\\n\\n    /**\\n     * @dev Indicates a failure with the `spender` to be approved. Used in approvals.\\n     * @param spender Address that may be allowed to operate on tokens without being their owner.\\n     */\\n    error ERC20InvalidSpender(address spender);\\n}\\n\\n/**\\n * @dev Standard ERC-721 Errors\\n * Interface of the https://eips.ethereum.org/EIPS/eip-6093[ERC-6093] custom errors for ERC-721 tokens.\\n */\\ninterface IERC721Errors {\\n    /**\\n     * @dev Indicates that an address can't be an owner. For example, `address(0)` is a forbidden owner in ERC-20.\\n     * Used in balance queries.\\n     * @param owner Address of the current owner of a token.\\n     */\\n    error ERC721InvalidOwner(address owner);\\n\\n    /**\\n     * @dev Indicates a `tokenId` whose `owner` is the zero address.\\n     * @param tokenId Identifier number of a token.\\n     */\\n    error ERC721NonexistentToken(uint256 tokenId);\\n\\n    /**\\n     * @dev Indicates an error related to the ownership over a particular token. Used in transfers.\\n     * @param sender Address whose tokens are being transferred.\\n     * @param tokenId Identifier number of a token.\\n     * @param owner Address of the current owner of a token.\\n     */\\n    error ERC721IncorrectOwner(address sender, uint256 tokenId, address owner);\\n\\n    /**\\n     * @dev Indicates a failure with the token `sender`. Used in transfers.\\n     * @param sender Address whose tokens are being transferred.\\n     */\\n    error ERC721InvalidSender(address sender);\\n\\n    /**\\n     * @dev Indicates a failure with the token `receiver`. Used in transfers.\\n     * @param receiver Address to which tokens are being transferred.\\n     */\\n    error ERC721InvalidReceiver(address receiver);\\n\\n    /**\\n     * @dev Indicates a failure with the `operator`’s approval. Used in transfers.\\n     * @param operator Address that may be allowed to operate on tokens without being their owner.\\n     * @param tokenId Identifier number of a token.\\n     */\\n    error ERC721InsufficientApproval(address operator, uint256 tokenId);\\n\\n    /**\\n     * @dev Indicates a failure with the `approver` of a token to be approved. Used in approvals.\\n     * @param approver Address initiating an approval operation.\\n     */\\n    error ERC721InvalidApprover(address approver);\\n\\n    /**\\n     * @dev Indicates a failure with the `operator` to be approved. Used in approvals.\\n     * @param operator Address that may be allowed to operate on tokens without being their owner.\\n     */\\n    error ERC721InvalidOperator(address operator);\\n}\\n\\n/**\\n * @dev Standard ERC-1155 Errors\\n * Interface of the https://eips.ethereum.org/EIPS/eip-6093[ERC-6093] custom errors for ERC-1155 tokens.\\n */\\ninterface IERC1155Errors {\\n    /**\\n     * @dev Indicates an error related to the current `balance` of a `sender`. Used in transfers.\\n     * @param sender Address whose tokens are being transferred.\\n     * @param balance Current balance for the interacting account.\\n     * @param needed Minimum amount required to perform a transfer.\\n     * @param tokenId Identifier number of a token.\\n     */\\n    error ERC1155InsufficientBalance(address sender, uint256 balance, uint256 needed, uint256 tokenId);\\n\\n    /**\\n     * @dev Indicates a failure with the token `sender`. Used in transfers.\\n     * @param sender Address whose tokens are being transferred.\\n     */\\n    error ERC1155InvalidSender(address sender);\\n\\n    /**\\n     * @dev Indicates a failure with the token `receiver`. Used in transfers.\\n     * @param receiver Address to which tokens are being transferred.\\n     */\\n    error ERC1155InvalidReceiver(address receiver);\\n\\n    /**\\n     * @dev Indicates a failure with the `operator`’s approval. Used in transfers.\\n     * @param operator Address that may be allowed to operate on tokens without being their owner.\\n     * @param owner Address of the current owner of a token.\\n     */\\n    error ERC1155MissingApprovalForAll(address operator, address owner);\\n\\n    /**\\n     * @dev Indicates a failure with the `approver` of a token to be approved. Used in approvals.\\n     * @param approver Address initiating an approval operation.\\n     */\\n    error ERC1155InvalidApprover(address approver);\\n\\n    /**\\n     * @dev Indicates a failure with the `operator` to be approved. Used in approvals.\\n     * @param operator Address that may be allowed to operate on tokens without being their owner.\\n     */\\n    error ERC1155InvalidOperator(address operator);\\n\\n    /**\\n     * @dev Indicates an array length mismatch between ids and values in a safeBatchTransferFrom operation.\\n     * Used in batch transfers.\\n     * @param idsLength Length of the array of token identifiers\\n     * @param valuesLength Length of the array of token amounts\\n     */\\n    error ERC1155InvalidArrayLength(uint256 idsLength, uint256 valuesLength);\\n}\\n\"},\"@openzeppelin/contracts/utils/introspection/ERC165.sol\":{\"content\":\"// SPDX-License-Identifier: MIT\\n// OpenZeppelin Contracts (last updated v5.1.0) (utils/introspection/ERC165.sol)\\n\\npragma solidity ^0.8.20;\\n\\nimport {IERC165} from \\\"./IERC165.sol\\\";\\n\\n/**\\n * @dev Implementation of the {IERC165} interface.\\n *\\n * Contracts that want to implement ERC-165 should inherit from this contract and override {supportsInterface} to check\\n * for the additional interface id that will be supported. For example:\\n *\\n * ```solidity\\n * function supportsInterface(bytes4 interfaceId) public view virtual override returns (bool) {\\n *     return interfaceId == type(MyInterface).interfaceId || super.supportsInterface(interfaceId);\\n * }\\n * ```\\n */\\nabstract contract ERC165 is IERC165 {\\n    /**\\n     * @dev See {IERC165-supportsInterface}.\\n     */\\n    function supportsInterface(bytes4 interfaceId) public view virtual returns (bool) {\\n        return interfaceId == type(IERC165).interfaceId;\\n    }\\n}\\n\"},\"@openzeppelin/contracts/utils/Context.sol\":{\"content\":\"// SPDX-License-Identifier: MIT\\n// OpenZeppelin Contracts (last updated v5.0.1) (utils/Context.sol)\\n\\npragma solidity ^0.8.20;\\n\\n/**\\n * @dev Provides information about the current execution context, including the\\n * sender of the transaction and its data. While these are generally available\\n * via msg.sender and msg.data, they should not be accessed in such a direct\\n * manner, since when dealing with meta-transactions the account sending and\\n * paying for execution may not be the actual sender (as far as an application\\n * is concerned).\\n *\\n * This contract is only required for intermediate, library-like contracts.\\n */\\nabstract contract Context {\\n    function _msgSender() internal view virtual returns (address) {\\n        return msg.sender;\\n    }\\n\\n    function _msgData() internal view virtual returns (bytes calldata) {\\n        return msg.data;\\n    }\\n\\n    function _contextSuffixLength() internal view virtual returns (uint256) {\\n        return 0;\\n    }\\n}\\n\"},\"@openzeppelin/contracts/token/ERC1155/utils/ERC1155Utils.sol\":{\"content\":\"// SPDX-License-Identifier: MIT\\n// OpenZeppelin Contracts (last updated v5.3.0) (token/ERC1155/utils/ERC1155Utils.sol)\\n\\npragma solidity ^0.8.20;\\n\\nimport {IERC1155Receiver} from \\\"../IERC1155Receiver.sol\\\";\\nimport {IERC1155Errors} from \\\"../../../interfaces/draft-IERC6093.sol\\\";\\n\\n/**\\n * @dev Library that provide common ERC-1155 utility functions.\\n *\\n * See https://eips.ethereum.org/EIPS/eip-1155[ERC-1155].\\n *\\n * _Available since v5.1._\\n */\\nlibrary ERC1155Utils {\\n    /**\\n     * @dev Performs an acceptance check for the provided `operator` by calling {IERC1155Receiver-onERC1155Received}\\n     * on the `to` address. The `operator` is generally the address that initiated the token transfer (i.e. `msg.sender`).\\n     *\\n     * The acceptance call is not executed and treated as a no-op if the target address doesn't contain code (i.e. an EOA).\\n     * Otherwise, the recipient must implement {IERC1155Receiver-onERC1155Received} and return the acceptance magic value to accept\\n     * the transfer.\\n     */\\n    function checkOnERC1155Received(\\n        address operator,\\n        address from,\\n        address to,\\n        uint256 id,\\n        uint256 value,\\n        bytes memory data\\n    ) internal {\\n        if (to.code.length > 0) {\\n            try IERC1155Receiver(to).onERC1155Received(operator, from, id, value, data) returns (bytes4 response) {\\n                if (response != IERC1155Receiver.onERC1155Received.selector) {\\n                    // Tokens rejected\\n                    revert IERC1155Errors.ERC1155InvalidReceiver(to);\\n                }\\n            } catch (bytes memory reason) {\\n                if (reason.length == 0) {\\n                    // non-IERC1155Receiver implementer\\n                    revert IERC1155Errors.ERC1155InvalidReceiver(to);\\n                } else {\\n                    assembly (\\\"memory-safe\\\") {\\n                        revert(add(32, reason), mload(reason))\\n                    }\\n                }\\n            }\\n        }\\n    }\\n\\n    /**\\n     * @dev Performs a batch acceptance check for the provided `operator` by calling {IERC1155Receiver-onERC1155BatchReceived}\\n     * on the `to` address. The `operator` is generally the address that initiated the token transfer (i.e. `msg.sender`).\\n     *\\n     * The acceptance call is not executed and treated as a no-op if the target address doesn't contain code (i.e. an EOA).\\n     * Otherwise, the recipient must implement {IERC1155Receiver-onERC1155Received} and return the acceptance magic value to accept\\n     * the transfer.\\n     */\\n    function checkOnERC1155BatchReceived(\\n        address operator,\\n        address from,\\n        address to,\\n        uint256[] memory ids,\\n        uint256[] memory values,\\n        bytes memory data\\n    ) internal {\\n        if (to.code.length > 0) {\\n            try IERC1155Receiver(to).onERC1155BatchReceived(operator, from, ids, values, data) returns (\\n                bytes4 response\\n            ) {\\n                if (response != IERC1155Receiver.onERC1155BatchReceived.selector) {\\n                    // Tokens rejected\\n                    revert IERC1155Errors.ERC1155InvalidReceiver(to);\\n                }\\n            } catch (bytes memory reason) {\\n                if (reason.length == 0) {\\n                    // non-IERC1155Receiver implementer\\n                    revert IERC1155Errors.ERC1155InvalidReceiver(to);\\n                } else {\\n                    assembly (\\\"memory-safe\\\") {\\n                        revert(add(32, reason), mload(reason))\\n                    }\\n                }\\n            }\\n        }\\n    }\\n}\\n\"},\"@openzeppelin/contracts/token/ERC1155/extensions/IERC1155MetadataURI.sol\":{\"content\":\"// SPDX-License-Identifier: MIT\\n// OpenZeppelin Contracts (last updated v5.1.0) (token/ERC1155/extensions/IERC1155MetadataURI.sol)\\n\\npragma solidity ^0.8.20;\\n\\nimport {IERC1155} from \\\"../IERC1155.sol\\\";\\n\\n/**\\n * @dev Interface of the optional ERC1155MetadataExtension interface, as defined\\n * in the https://eips.ethereum.org/EIPS/eip-1155#metadata-extensions[ERC].\\n */\\ninterface IERC1155MetadataURI is IERC1155 {\\n    /**\\n     * @dev Returns the URI for token type `id`.\\n     *\\n     * If the `\\\\{id\\\\}` substring is present in the URI, it must be replaced by\\n     * clients with the actual token type ID.\\n     */\\n    function uri(uint256 id) external view returns (string memory);\\n}\\n\"},\"@openzeppelin/contracts/token/ERC1155/IERC1155.sol\":{\"content\":\"// SPDX-License-Identifier: MIT\\n// OpenZeppelin Contracts (last updated v5.3.0) (token/ERC1155/IERC1155.sol)\\n\\npragma solidity ^0.8.20;\\n\\nimport {IERC165} from \\\"../../utils/introspection/IERC165.sol\\\";\\n\\n/**\\n * @dev Required interface of an ERC-1155 compliant contract, as defined in the\\n * https://eips.ethereum.org/EIPS/eip-1155[ERC].\\n */\\ninterface IERC1155 is IERC165 {\\n    /**\\n     * @dev Emitted when `value` amount of tokens of type `id` are transferred from `from` to `to` by `operator`.\\n     */\\n    event TransferSingle(address indexed operator, address indexed from, address indexed to, uint256 id, uint256 value);\\n\\n    /**\\n     * @dev Equivalent to multiple {TransferSingle} events, where `operator`, `from` and `to` are the same for all\\n     * transfers.\\n     */\\n    event TransferBatch(\\n        address indexed operator,\\n        address indexed from,\\n        address indexed to,\\n        uint256[] ids,\\n        uint256[] values\\n    );\\n\\n    /**\\n     * @dev Emitted when `account` grants or revokes permission to `operator` to transfer their tokens, according to\\n     * `approved`.\\n     */\\n    event ApprovalForAll(address indexed account, address indexed operator, bool approved);\\n\\n    /**\\n     * @dev Emitted when the URI for token type `id` changes to `value`, if it is a non-programmatic URI.\\n     *\\n     * If an {URI} event was emitted for `id`, the standard\\n     * https://eips.ethereum.org/EIPS/eip-1155#metadata-extensions[guarantees] that `value` will equal the value\\n     * returned by {IERC1155MetadataURI-uri}.\\n     */\\n    event URI(string value, uint256 indexed id);\\n\\n    /**\\n     * @dev Returns the value of tokens of token type `id` owned by `account`.\\n     */\\n    function balanceOf(address account, uint256 id) external view returns (uint256);\\n\\n    /**\\n     * @dev xref:ROOT:erc1155.adoc#batch-operations[Batched] version of {balanceOf}.\\n     *\\n     * Requirements:\\n     *\\n     * - `accounts` and `ids` must have the same length.\\n     */\\n    function balanceOfBatch(\\n        address[] calldata accounts,\\n        uint256[] calldata ids\\n    ) external view returns (uint256[] memory);\\n\\n    /**\\n     * @dev Grants or revokes permission to `operator` to transfer the caller's tokens, according to `approved`,\\n     *\\n     * Emits an {ApprovalForAll} event.\\n     *\\n     * Requirements:\\n     *\\n     * - `operator` cannot be the zero address.\\n     */\\n    function setApprovalForAll(address operator, bool approved) external;\\n\\n    /**\\n     * @dev Returns true if `operator` is approved to transfer ``account``'s tokens.\\n     *\\n     * See {setApprovalForAll}.\\n     */\\n    function isApprovedForAll(address account, address operator) external view returns (bool);\\n\\n    /**\\n     * @dev Transfers a `value` amount of tokens of type `id` from `from` to `to`.\\n     *\\n     * WARNING: This function can potentially allow a reentrancy attack when transferring tokens\\n     * to an untrusted contract, when invoking {IERC1155Receiver-onERC1155Received} on the receiver.\\n     * Ensure to follow the checks-effects-interactions pattern and consider employing\\n     * reentrancy guards when interacting with untrusted contracts.\\n     *\\n     * Emits a {TransferSingle} event.\\n     *\\n     * Requirements:\\n     *\\n     * - `to` cannot be the zero address.\\n     * - If the caller is not `from`, it must have been approved to spend ``from``'s tokens via {setApprovalForAll}.\\n     * - `from` must have a balance of tokens of type `id` of at least `value` amount.\\n     * - If `to` refers to a smart contract, it must implement {IERC1155Receiver-onERC1155Received} and return the\\n     * acceptance magic value.\\n     */\\n    function safeTransferFrom(address from, address to, uint256 id, uint256 value, bytes calldata data) external;\\n\\n    /**\\n     * @dev xref:ROOT:erc1155.adoc#batch-operations[Batched] version of {safeTransferFrom}.\\n     *\\n     * WARNING: This function can potentially allow a reentrancy attack when transferring tokens\\n     * to an untrusted contract, when invoking {IERC1155Receiver-onERC1155BatchReceived} on the receiver.\\n     * Ensure to follow the checks-effects-interactions pattern and consider employing\\n     * reentrancy guards when interacting with untrusted contracts.\\n     *\\n     * Emits either a {TransferSingle} or a {TransferBatch} event, depending on the length of the array arguments.\\n     *\\n     * Requirements:\\n     *\\n     * - `ids` and `values` must have the same length.\\n     * - If `to` refers to a smart contract, it must implement {IERC1155Receiver-onERC1155BatchReceived} and return the\\n     * acceptance magic value.\\n     */\\n    function safeBatchTransferFrom(\\n        address from,\\n        address to,\\n        uint256[] calldata ids,\\n        uint256[] calldata values,\\n        bytes calldata data\\n    ) external;\\n}\\n\"},\"@iden3/contracts/lib/ArrayUtils.sol\":{\"content\":\"// SPDX-License-Identifier: GPL-3.0\\npragma solidity 0.8.20;\\n\\n/// @title A common functions for arrays.\\nlibrary ArrayUtils {\\n    /**\\n     * @dev Calculates bounds for the slice of the array.\\n     * @param arrLength An array length.\\n     * @param start A start index.\\n     * @param length A length of the slice.\\n     * @param limit A limit for the length.\\n     * @return The bounds for the slice of the array.\\n     */\\n    function calculateBounds(\\n        uint256 arrLength,\\n        uint256 start,\\n        uint256 length,\\n        uint256 limit\\n    ) internal pure returns (uint256, uint256) {\\n        require(length > 0, \\\"Length should be greater than 0\\\");\\n        require(length <= limit, \\\"Length limit exceeded\\\");\\n        require(start < arrLength, \\\"Start index out of bounds\\\");\\n\\n        uint256 end = start + length;\\n        if (end > arrLength) {\\n            end = arrLength;\\n        }\\n\\n        return (start, end);\\n    }\\n}\\n\"},\"@iden3/contracts/verifiers/ZKPVerifierBase.sol\":{\"content\":\"// SPDX-License-Identifier: GPL-3.0\\npragma solidity 0.8.20;\\n\\nimport {IZKPVerifier} from \\\"../interfaces/IZKPVerifier.sol\\\";\\nimport {ICircuitValidator} from \\\"../interfaces/ICircuitValidator.sol\\\";\\nimport {ArrayUtils} from \\\"../lib/ArrayUtils.sol\\\";\\nimport {ContextUpgradeable} from \\\"@openzeppelin/contracts-upgradeable/utils/ContextUpgradeable.sol\\\";\\n\\nabstract contract ZKPVerifierBase is IZKPVerifier, ContextUpgradeable {\\n    /// @dev Struct to store ZKP proof and associated data\\n    struct Proof {\\n        bool isVerified;\\n        mapping(string key => uint256 inputIndex) storageFields;\\n        string validatorVersion;\\n        uint256 blockNumber;\\n        uint256 blockTimestamp;\\n    }\\n\\n    /// @custom:storage-location erc7201:iden3.storage.ZKPVerifier\\n    struct ZKPVerifierStorage {\\n        mapping(address user => mapping(uint64 requestID => Proof)) _proofs;\\n        mapping(uint64 requestID => IZKPVerifier.ZKPRequest) _requests;\\n        uint64[] _requestIds;\\n    }\\n\\n    // keccak256(abi.encode(uint256(keccak256(\\\"iden3.storage.ZKPVerifier\\\")) - 1)) & ~bytes32(uint256(0xff));\\n    bytes32 internal constant ZKPVerifierStorageLocation =\\n        0x512d18c55869273fec77e70d8a8586e3fb133e90f1db24c6bcf4ff3506ef6a00;\\n\\n    /// @dev Get the main storage using assembly to ensure specific storage location\\n    function _getZKPVerifierStorage() private pure returns (ZKPVerifierStorage storage $) {\\n        assembly {\\n            $.slot := ZKPVerifierStorageLocation\\n        }\\n    }\\n\\n    /**\\n     * @dev Max return array length for request queries\\n     */\\n    uint256 public constant REQUESTS_RETURN_LIMIT = 1000;\\n\\n    /// @dev Key to retrieve the linkID from the proof storage\\n    string constant LINKED_PROOF_KEY = \\\"linkID\\\";\\n\\n    /// @dev Linked proof custom error\\n    error LinkedProofError(\\n        string message,\\n        uint64 requestId,\\n        uint256 linkID,\\n        uint64 requestIdToCompare,\\n        uint256 linkIdToCompare\\n    );\\n\\n    /// @dev Modifier to check if the validator is set for the request\\n    modifier checkRequestExistence(uint64 requestId, bool existence) {\\n        if (existence) {\\n            require(requestIdExists(requestId), \\\"request id doesn't exist\\\");\\n        } else {\\n            require(!requestIdExists(requestId), \\\"request id already exists\\\");\\n        }\\n        _;\\n    }\\n\\n    /// @dev Sets a ZKP request\\n    /// @param requestId The ID of the ZKP request\\n    /// @param request The ZKP request data\\n    function setZKPRequest(\\n        uint64 requestId,\\n        IZKPVerifier.ZKPRequest calldata request\\n    ) public virtual checkRequestExistence(requestId, false) {\\n        ZKPVerifierStorage storage s = _getZKPVerifierStorage();\\n        s._requests[requestId] = request;\\n        s._requestIds.push(requestId);\\n    }\\n\\n    /// @notice Submits a ZKP response and updates proof status\\n    /// @param requestId The ID of the ZKP request\\n    /// @param inputs The input data for the proof\\n    /// @param a The first component of the proof\\n    /// @param b The second component of the proof\\n    /// @param c The third component of the proof\\n    function submitZKPResponse(\\n        uint64 requestId,\\n        uint256[] calldata inputs,\\n        uint256[2] calldata a,\\n        uint256[2][2] calldata b,\\n        uint256[2] calldata c\\n    ) public virtual checkRequestExistence(requestId, true) {\\n        address sender = _msgSender();\\n        ICircuitValidator.KeyToInputIndex[] memory pairs = _verifyZKPResponse(\\n            requestId,\\n            inputs,\\n            a,\\n            b,\\n            c,\\n            sender\\n        );\\n\\n        Proof storage proof = _getZKPVerifierStorage()._proofs[sender][requestId];\\n        for (uint256 i = 0; i < pairs.length; i++) {\\n            proof.storageFields[pairs[i].key] = inputs[pairs[i].inputIndex];\\n        }\\n\\n        proof.isVerified = true;\\n        proof.validatorVersion = _getZKPVerifierStorage()._requests[requestId].validator.version();\\n        proof.blockNumber = block.number;\\n        proof.blockTimestamp = block.timestamp;\\n    }\\n\\n    /// @dev Verifies a ZKP response without updating any proof status\\n    /// @param requestId The ID of the ZKP request\\n    /// @param inputs The public inputs for the proof\\n    /// @param a The first component of the proof\\n    /// @param b The second component of the proof\\n    /// @param c The third component of the proof\\n    /// @param sender The sender on behalf of which the proof is done\\n    function verifyZKPResponse(\\n        uint64 requestId,\\n        uint256[] calldata inputs,\\n        uint256[2] calldata a,\\n        uint256[2][2] calldata b,\\n        uint256[2] calldata c,\\n        address sender\\n    )\\n        public\\n        view\\n        virtual\\n        checkRequestExistence(requestId, true)\\n        returns (ICircuitValidator.KeyToInputIndex[] memory)\\n    {\\n        return _verifyZKPResponse(requestId, inputs, a, b, c, sender);\\n    }\\n\\n    /// @dev Gets the list of request IDs and verifies the proofs are linked\\n    /// @param sender the user's address\\n    /// @param requestIds the list of request IDs\\n    /// Throws if the proofs are not linked\\n    function verifyLinkedProofs(address sender, uint64[] calldata requestIds) public view virtual {\\n        require(requestIds.length > 1, \\\"Linked proof verification needs more than 1 request\\\");\\n\\n        uint256 expectedLinkID = getProofStorageField(sender, requestIds[0], LINKED_PROOF_KEY);\\n\\n        if (expectedLinkID == 0) {\\n            revert(\\\"Can't find linkID for given request Ids and user address\\\");\\n        }\\n\\n        for (uint256 i = 1; i < requestIds.length; i++) {\\n            uint256 actualLinkID = getProofStorageField(sender, requestIds[i], LINKED_PROOF_KEY);\\n\\n            if (expectedLinkID != actualLinkID) {\\n                revert LinkedProofError(\\n                    \\\"Proofs are not linked\\\",\\n                    requestIds[0],\\n                    expectedLinkID,\\n                    requestIds[i],\\n                    actualLinkID\\n                );\\n            }\\n        }\\n    }\\n\\n    /// @dev Gets a specific ZKP request by ID\\n    /// @param requestId The ID of the ZKP request\\n    /// @return zkpRequest The ZKP request data\\n    function getZKPRequest(\\n        uint64 requestId\\n    )\\n        public\\n        view\\n        checkRequestExistence(requestId, true)\\n        returns (IZKPVerifier.ZKPRequest memory zkpRequest)\\n    {\\n        return _getZKPVerifierStorage()._requests[requestId];\\n    }\\n\\n    /// @dev Gets the count of ZKP requests\\n    /// @return The count of ZKP requests\\n    function getZKPRequestsCount() public view returns (uint256) {\\n        return _getZKPVerifierStorage()._requestIds.length;\\n    }\\n\\n    /// @dev Checks if a ZKP request ID exists\\n    /// @param requestId The ID of the ZKP request\\n    /// @return Whether the request ID exists\\n    function requestIdExists(uint64 requestId) public view override returns (bool) {\\n        return\\n            _getZKPVerifierStorage()._requests[requestId].validator !=\\n            ICircuitValidator(address(0));\\n    }\\n\\n    /// @dev Gets multiple ZKP requests within a range\\n    /// @param startIndex The starting index of the range\\n    /// @param length The length of the range\\n    /// @return An array of ZKP requests within the specified range\\n    function getZKPRequests(\\n        uint256 startIndex,\\n        uint256 length\\n    ) public view returns (IZKPVerifier.ZKPRequest[] memory) {\\n        ZKPVerifierStorage storage s = _getZKPVerifierStorage();\\n        (uint256 start, uint256 end) = ArrayUtils.calculateBounds(\\n            s._requestIds.length,\\n            startIndex,\\n            length,\\n            REQUESTS_RETURN_LIMIT\\n        );\\n\\n        IZKPVerifier.ZKPRequest[] memory result = new IZKPVerifier.ZKPRequest[](end - start);\\n\\n        for (uint256 i = start; i < end; i++) {\\n            result[i - start] = s._requests[s._requestIds[i]];\\n        }\\n\\n        return result;\\n    }\\n\\n    /// @dev Checks if proof submitted for a given sender and request ID\\n    /// @param sender The sender's address\\n    /// @param requestId The ID of the ZKP request\\n    /// @return true if proof submitted\\n    function isProofVerified(\\n        address sender,\\n        uint64 requestId\\n    ) public view checkRequestExistence(requestId, true) returns (bool) {\\n        return _getZKPVerifierStorage()._proofs[sender][requestId].isVerified;\\n    }\\n\\n    /// @dev Checks the proof status for a given user and request ID\\n    /// @param sender The sender's address\\n    /// @param requestId The ID of the ZKP request\\n    /// @return The proof status structure\\n    function getProofStatus(\\n        address sender,\\n        uint64 requestId\\n    ) public view checkRequestExistence(requestId, true) returns (IZKPVerifier.ProofStatus memory) {\\n        Proof storage proof = _getZKPVerifierStorage()._proofs[sender][requestId];\\n\\n        return\\n            IZKPVerifier.ProofStatus(\\n                proof.isVerified,\\n                proof.validatorVersion,\\n                proof.blockNumber,\\n                proof.blockTimestamp\\n            );\\n    }\\n\\n    /// @dev Gets the proof storage item for a given user, request ID and key\\n    /// @param user The user's address\\n    /// @param requestId The ID of the ZKP request\\n    /// @return The proof\\n    function getProofStorageField(\\n        address user,\\n        uint64 requestId,\\n        string memory key\\n    ) public view checkRequestExistence(requestId, true) returns (uint256) {\\n        return _getZKPVerifierStorage()._proofs[user][requestId].storageFields[key];\\n    }\\n\\n    function _verifyZKPResponse(\\n        uint64 requestId,\\n        uint256[] calldata inputs,\\n        uint256[2] calldata a,\\n        uint256[2][2] calldata b,\\n        uint256[2] calldata c,\\n        address sender\\n    ) private view returns (ICircuitValidator.KeyToInputIndex[] memory) {\\n        IZKPVerifier.ZKPRequest memory request = _getZKPVerifierStorage()._requests[requestId];\\n        ICircuitValidator.KeyToInputIndex[] memory pairs = request.validator.verify(\\n            inputs,\\n            a,\\n            b,\\n            c,\\n            request.data,\\n            sender\\n        );\\n        return pairs;\\n    }\\n}\\n\"},\"@iden3/contracts/verifiers/ValidatorWhitelist.sol\":{\"content\":\"// SPDX-License-Identifier: GPL-3.0\\npragma solidity 0.8.20;\\n\\nimport {IERC165} from \\\"@openzeppelin/contracts/utils/introspection/IERC165.sol\\\";\\nimport {ICircuitValidator} from \\\"../interfaces/ICircuitValidator.sol\\\";\\nimport {ZKPVerifierBase} from \\\"./ZKPVerifierBase.sol\\\";\\nimport {IZKPVerifier} from \\\"../interfaces/IZKPVerifier.sol\\\";\\n\\ncontract ValidatorWhitelist is ZKPVerifierBase {\\n    /// @custom:storage-location erc7201:iden3.storage.ValidatorWhitelist\\n    struct ValidatorWhitelistStorage {\\n        mapping(ICircuitValidator => bool isApproved) _validatorWhitelist;\\n    }\\n\\n    // keccak256(abi.encode(uint256(keccak256(\\\"iden3.storage.ValidatorWhitelist\\\")) - 1)) & ~bytes32(uint256(0xff));\\n    bytes32 private constant ValidatorWhitelistStorageLocation =\\n        0x76aa24e3538905838cc74060b2aa4c054b1e474aacf44741879e1850715e9300;\\n\\n    function _getValidatorWhitelistStorage()\\n        private\\n        pure\\n        returns (ValidatorWhitelistStorage storage $)\\n    {\\n        assembly {\\n            $.slot := ValidatorWhitelistStorageLocation\\n        }\\n    }\\n\\n    /// @dev Modifier to check if the validator is whitelisted\\n    modifier onlyWhitelistedValidator(ICircuitValidator validator) {\\n        require(isWhitelistedValidator(validator), \\\"Validator is not whitelisted\\\");\\n        _;\\n    }\\n\\n    /// @dev Sets a ZKP request\\n    /// @param requestId The ID of the ZKP request\\n    /// @param request The ZKP request data\\n    function setZKPRequest(\\n        uint64 requestId,\\n        IZKPVerifier.ZKPRequest calldata request\\n    ) public virtual override onlyWhitelistedValidator(request.validator) {\\n        super.setZKPRequest(requestId, request);\\n    }\\n\\n    /// @dev Submits a ZKP response and updates proof status\\n    /// @param requestId The ID of the ZKP request\\n    /// @param inputs The input data for the proof\\n    /// @param a The first component of the proof\\n    /// @param b The second component of the proof\\n    /// @param c The third component of the proof\\n    function submitZKPResponse(\\n        uint64 requestId,\\n        uint256[] calldata inputs,\\n        uint256[2] calldata a,\\n        uint256[2][2] calldata b,\\n        uint256[2] calldata c\\n    ) public virtual override {\\n        ICircuitValidator validator = getZKPRequest(requestId).validator;\\n        require(isWhitelistedValidator(validator), \\\"Validator is not whitelisted\\\");\\n        super.submitZKPResponse(requestId, inputs, a, b, c);\\n    }\\n\\n    /// @dev Verifies a ZKP response without updating any proof status\\n    /// @param requestId The ID of the ZKP request\\n    /// @param inputs The public inputs for the proof\\n    /// @param a The first component of the proof\\n    /// @param b The second component of the proof\\n    /// @param c The third component of the proof\\n    /// @param sender The sender on behalf of which the proof is done\\n    function verifyZKPResponse(\\n        uint64 requestId,\\n        uint256[] calldata inputs,\\n        uint256[2] calldata a,\\n        uint256[2][2] calldata b,\\n        uint256[2] calldata c,\\n        address sender\\n    ) public view virtual override returns (ICircuitValidator.KeyToInputIndex[] memory) {\\n        ICircuitValidator validator = getZKPRequest(requestId).validator;\\n        require(isWhitelistedValidator(validator), \\\"Validator is not whitelisted\\\");\\n        return super.verifyZKPResponse(requestId, inputs, a, b, c, sender);\\n    }\\n\\n    /// @dev Checks if validator is whitelisted\\n    /// @param validator The validator address\\n    /// @return True if validator is whitelisted, otherwise returns false\\n    function isWhitelistedValidator(\\n        ICircuitValidator validator\\n    ) public view virtual returns (bool) {\\n        return _getValidatorWhitelistStorage()._validatorWhitelist[validator];\\n    }\\n\\n    function _addValidatorToWhitelist(ICircuitValidator validator) internal {\\n        require(\\n            IERC165(address(validator)).supportsInterface(type(ICircuitValidator).interfaceId),\\n            \\\"Validator doesn't support relevant interface\\\"\\n        );\\n\\n        _getValidatorWhitelistStorage()._validatorWhitelist[validator] = true;\\n    }\\n\\n    function _removeValidatorFromWhitelist(ICircuitValidator validator) internal {\\n        _getValidatorWhitelistStorage()._validatorWhitelist[validator] = false;\\n    }\\n}\\n\"},\"@iden3/contracts/verifiers/RequestDisableable.sol\":{\"content\":\"// SPDX-License-Identifier: GPL-3.0\\npragma solidity 0.8.20;\\n\\nimport {ZKPVerifierBase} from \\\"./ZKPVerifierBase.sol\\\";\\nimport {ICircuitValidator} from \\\"../interfaces/ICircuitValidator.sol\\\";\\n\\ncontract RequestDisableable is ZKPVerifierBase {\\n    /// @custom:storage-location erc7201:iden3.storage.RequestDisableable\\n    struct RequestDisableStorage {\\n        mapping(uint64 requestID => bool isDisabled) _requestDisabling;\\n    }\\n\\n    // keccak256(abi.encode(uint256(keccak256(\\\"iden3.storage.RequestDisableable\\\")) - 1)) & ~bytes32(uint256(0xff));\\n    bytes32 private constant RequestDisableStorageLocation =\\n        0x70325635d67d74932012fa921ccb2f335d3b1d69e3a487f50d001cc65f531600;\\n\\n    function _getRequestDisableStorage() private pure returns (RequestDisableStorage storage $) {\\n        assembly {\\n            $.slot := RequestDisableStorageLocation\\n        }\\n    }\\n\\n    /// @dev Modifier to check if the ZKP request is enabled\\n    modifier onlyEnabledRequest(uint64 requestId) {\\n        require(isZKPRequestEnabled(requestId), \\\"Request is disabled\\\");\\n        _;\\n    }\\n\\n    /// @dev Submits a ZKP response and updates proof status\\n    /// @param requestId The ID of the ZKP request\\n    /// @param inputs The input data for the proof\\n    /// @param a The first component of the proof\\n    /// @param b The second component of the proof\\n    /// @param c The third component of the proof\\n    function submitZKPResponse(\\n        uint64 requestId,\\n        uint256[] calldata inputs,\\n        uint256[2] calldata a,\\n        uint256[2][2] calldata b,\\n        uint256[2] calldata c\\n    ) public virtual override onlyEnabledRequest(requestId) {\\n        super.submitZKPResponse(requestId, inputs, a, b, c);\\n    }\\n\\n    /// @dev Verifies a ZKP response without updating any proof status\\n    /// @param requestId The ID of the ZKP request\\n    /// @param inputs The public inputs for the proof\\n    /// @param a The first component of the proof\\n    /// @param b The second component of the proof\\n    /// @param c The third component of the proof\\n    /// @param sender The sender on behalf of which the proof is done\\n    function verifyZKPResponse(\\n        uint64 requestId,\\n        uint256[] calldata inputs,\\n        uint256[2] calldata a,\\n        uint256[2][2] calldata b,\\n        uint256[2] calldata c,\\n        address sender\\n    )\\n        public\\n        view\\n        virtual\\n        override\\n        onlyEnabledRequest(requestId)\\n        returns (ICircuitValidator.KeyToInputIndex[] memory)\\n    {\\n        return super.verifyZKPResponse(requestId, inputs, a, b, c, sender);\\n    }\\n\\n    /// @dev Checks if ZKP Request is enabled\\n    /// @param requestId The ID of the ZKP request\\n    /// @return True if ZKP Request enabled, otherwise returns false\\n    function isZKPRequestEnabled(\\n        uint64 requestId\\n    ) public view virtual checkRequestExistence(requestId, true) returns (bool) {\\n        return !_getRequestDisableStorage()._requestDisabling[requestId];\\n    }\\n\\n    function _disableZKPRequest(uint64 requestId) internal checkRequestExistence(requestId, true) {\\n        _getRequestDisableStorage()._requestDisabling[requestId] = true;\\n    }\\n\\n    function _enableZKPRequest(uint64 requestId) internal checkRequestExistence(requestId, true) {\\n        _getRequestDisableStorage()._requestDisabling[requestId] = false;\\n    }\\n}\\n\"},\"@iden3/contracts/verifiers/RequestOwnership.sol\":{\"content\":\"// SPDX-License-Identifier: GPL-3.0\\npragma solidity 0.8.20;\\n\\nimport {ZKPVerifierBase} from \\\"./ZKPVerifierBase.sol\\\";\\nimport {IZKPVerifier} from \\\"../interfaces/IZKPVerifier.sol\\\";\\n\\nabstract contract RequestOwnership is ZKPVerifierBase {\\n    /// @custom:storage-location erc7201:iden3.storage.RequestOwnership.sol\\n    struct RequestOwnershipStorage {\\n        mapping(uint64 requestID => address requestOwner) _requestOwners;\\n    }\\n\\n    // keccak256(abi.encode(uint256(keccak256(\\\"iden3.storage.RequestOwnership\\\")) - 1)) & ~bytes32(uint256(0xff));\\n    bytes32 private constant RequestOwnershipStorageLocation =\\n        0x6209bdc3799f5201408f7a7d4d471bb2a0100353e618451674b93f730b006a00;\\n\\n    function _getRequestOwnershipStorage()\\n        private\\n        pure\\n        returns (RequestOwnershipStorage storage $)\\n    {\\n        assembly {\\n            $.slot := RequestOwnershipStorageLocation\\n        }\\n    }\\n\\n    /// @dev Modifier to check if the caller is ZKP Request owner\\n    modifier onlyRequestOwner(uint64 requestId) virtual {\\n        require(getRequestOwner(requestId) == _msgSender(), \\\"Not a request owner\\\");\\n        _;\\n    }\\n\\n    /// @dev Sets a ZKP request\\n    /// @param requestId The ID of the ZKP request\\n    /// @param request The ZKP request data\\n    function setZKPRequest(\\n        uint64 requestId,\\n        IZKPVerifier.ZKPRequest calldata request\\n    ) public virtual override {\\n        super.setZKPRequest(requestId, request);\\n        _setRequestOwner(requestId, _msgSender());\\n    }\\n\\n    /// @dev Get a ZKP Request Owner address\\n    /// @param requestId The ID of a ZKP Request\\n    /// @return The ZKP Request Owner address\\n    function getRequestOwner(\\n        uint64 requestId\\n    ) public view virtual checkRequestExistence(requestId, true) returns (address) {\\n        return _getRequestOwnershipStorage()._requestOwners[requestId];\\n    }\\n\\n    function _setRequestOwner(\\n        uint64 requestId,\\n        address requestOwner\\n    ) internal checkRequestExistence(requestId, true) {\\n        RequestOwnershipStorage storage $ = _getRequestOwnershipStorage();\\n        $._requestOwners[requestId] = requestOwner;\\n    }\\n}\\n\"},\"@openzeppelin/contracts-upgradeable/access/Ownable2StepUpgradeable.sol\":{\"content\":\"// SPDX-License-Identifier: MIT\\n// OpenZeppelin Contracts (last updated v5.1.0) (access/Ownable2Step.sol)\\n\\npragma solidity ^0.8.20;\\n\\nimport {OwnableUpgradeable} from \\\"./OwnableUpgradeable.sol\\\";\\nimport {Initializable} from \\\"../proxy/utils/Initializable.sol\\\";\\n\\n/**\\n * @dev Contract module which provides access control mechanism, where\\n * there is an account (an owner) that can be granted exclusive access to\\n * specific functions.\\n *\\n * This extension of the {Ownable} contract includes a two-step mechanism to transfer\\n * ownership, where the new owner must call {acceptOwnership} in order to replace the\\n * old one. This can help prevent common mistakes, such as transfers of ownership to\\n * incorrect accounts, or to contracts that are unable to interact with the\\n * permission system.\\n *\\n * The initial owner is specified at deployment time in the constructor for `Ownable`. This\\n * can later be changed with {transferOwnership} and {acceptOwnership}.\\n *\\n * This module is used through inheritance. It will make available all functions\\n * from parent (Ownable).\\n */\\nabstract contract Ownable2StepUpgradeable is Initializable, OwnableUpgradeable {\\n    /// @custom:storage-location erc7201:openzeppelin.storage.Ownable2Step\\n    struct Ownable2StepStorage {\\n        address _pendingOwner;\\n    }\\n\\n    // keccak256(abi.encode(uint256(keccak256(\\\"openzeppelin.storage.Ownable2Step\\\")) - 1)) & ~bytes32(uint256(0xff))\\n    bytes32 private constant Ownable2StepStorageLocation = 0x237e158222e3e6968b72b9db0d8043aacf074ad9f650f0d1606b4d82ee432c00;\\n\\n    function _getOwnable2StepStorage() private pure returns (Ownable2StepStorage storage $) {\\n        assembly {\\n            $.slot := Ownable2StepStorageLocation\\n        }\\n    }\\n\\n    event OwnershipTransferStarted(address indexed previousOwner, address indexed newOwner);\\n\\n    function __Ownable2Step_init() internal onlyInitializing {\\n    }\\n\\n    function __Ownable2Step_init_unchained() internal onlyInitializing {\\n    }\\n    /**\\n     * @dev Returns the address of the pending owner.\\n     */\\n    function pendingOwner() public view virtual returns (address) {\\n        Ownable2StepStorage storage $ = _getOwnable2StepStorage();\\n        return $._pendingOwner;\\n    }\\n\\n    /**\\n     * @dev Starts the ownership transfer of the contract to a new account. Replaces the pending transfer if there is one.\\n     * Can only be called by the current owner.\\n     *\\n     * Setting `newOwner` to the zero address is allowed; this can be used to cancel an initiated ownership transfer.\\n     */\\n    function transferOwnership(address newOwner) public virtual override onlyOwner {\\n        Ownable2StepStorage storage $ = _getOwnable2StepStorage();\\n        $._pendingOwner = newOwner;\\n        emit OwnershipTransferStarted(owner(), newOwner);\\n    }\\n\\n    /**\\n     * @dev Transfers ownership of the contract to a new account (`newOwner`) and deletes any pending owner.\\n     * Internal function without access restriction.\\n     */\\n    function _transferOwnership(address newOwner) internal virtual override {\\n        Ownable2StepStorage storage $ = _getOwnable2StepStorage();\\n        delete $._pendingOwner;\\n        super._transferOwnership(newOwner);\\n    }\\n\\n    /**\\n     * @dev The new owner accepts the ownership transfer.\\n     */\\n    function acceptOwnership() public virtual {\\n        address sender = _msgSender();\\n        if (pendingOwner() != sender) {\\n            revert OwnableUnauthorizedAccount(sender);\\n        }\\n        _transferOwnership(sender);\\n    }\\n}\\n\"},\"@iden3/contracts/lib/GenesisUtils.sol\":{\"content\":\"// SPDX-License-Identifier: GPL-3.0\\npragma solidity 0.8.20;\\n\\nimport {PrimitiveTypeUtils} from \\\"./PrimitiveTypeUtils.sol\\\";\\n\\nlibrary GenesisUtils {\\n    /**\\n     *   @dev sum\\n     */\\n    function sum(bytes memory array) internal pure returns (uint16 s) {\\n        require(array.length == 29, \\\"Checksum requires 29 length array\\\");\\n\\n        for (uint256 i = 0; i < array.length; ++i) {\\n            s += uint16(uint8(array[i]));\\n        }\\n    }\\n\\n    /**\\n     * @dev isGenesisState\\n     */\\n    function isGenesisState(uint256 id, uint256 idState) internal pure returns (bool) {\\n        bytes2 idType = bytes2(\\n            PrimitiveTypeUtils.uint256ToBytes(PrimitiveTypeUtils.reverseUint256(id))\\n        );\\n        uint256 computedId = calcIdFromGenesisState(idType, idState);\\n        return id == computedId;\\n    }\\n\\n    /**\\n     * @dev calcIdFromGenesisState\\n     */\\n    function calcIdFromGenesisState(\\n        bytes2 idType,\\n        uint256 idState\\n    ) internal pure returns (uint256) {\\n        bytes memory userStateB1 = PrimitiveTypeUtils.uint256ToBytes(\\n            PrimitiveTypeUtils.reverseUint256(idState)\\n        );\\n\\n        bytes memory cutState = PrimitiveTypeUtils.slice(userStateB1, userStateB1.length - 27, 27);\\n        bytes memory beforeChecksum = PrimitiveTypeUtils.concat(abi.encodePacked(idType), cutState);\\n\\n        uint16 checksum = PrimitiveTypeUtils.reverseUint16(sum(beforeChecksum));\\n        bytes memory checkSumBytes = abi.encodePacked(checksum);\\n\\n        bytes memory idBytes = PrimitiveTypeUtils.concat(beforeChecksum, checkSumBytes);\\n        require(idBytes.length == 31, \\\"idBytes requires 31 length array\\\");\\n\\n        return PrimitiveTypeUtils.reverseUint256(PrimitiveTypeUtils.padRightToUint256(idBytes));\\n    }\\n\\n    /**\\n     * @dev calcIdFromEthAddress\\n     */\\n    function calcIdFromEthAddress(bytes2 idType, address caller) internal pure returns (uint256) {\\n        uint256 addr = PrimitiveTypeUtils.addressToUint256(caller);\\n\\n        return calcIdFromGenesisState(idType, PrimitiveTypeUtils.reverseUint256(addr));\\n    }\\n}\\n\"},\"solidity-bytes-utils/contracts/BytesLib.sol\":{\"content\":\"// SPDX-License-Identifier: Unlicense\\n/*\\n * @title Solidity Bytes Arrays Utils\\n * @author Gonçalo Sá <goncalo.sa@consensys.net>\\n *\\n * @dev Bytes tightly packed arrays utility library for ethereum contracts written in Solidity.\\n *      The library lets you concatenate, slice and type cast bytes arrays both in memory and storage.\\n */\\npragma solidity >=0.8.0 <0.9.0;\\n\\n\\nlibrary BytesLib {\\n    function concat(\\n        bytes memory _preBytes,\\n        bytes memory _postBytes\\n    )\\n        internal\\n        pure\\n        returns (bytes memory)\\n    {\\n        bytes memory tempBytes;\\n\\n        assembly {\\n            // Get a location of some free memory and store it in tempBytes as\\n            // Solidity does for memory variables.\\n            tempBytes := mload(0x40)\\n\\n            // Store the length of the first bytes array at the beginning of\\n            // the memory for tempBytes.\\n            let length := mload(_preBytes)\\n            mstore(tempBytes, length)\\n\\n            // Maintain a memory counter for the current write location in the\\n            // temp bytes array by adding the 32 bytes for the array length to\\n            // the starting location.\\n            let mc := add(tempBytes, 0x20)\\n            // Stop copying when the memory counter reaches the length of the\\n            // first bytes array.\\n            let end := add(mc, length)\\n\\n            for {\\n                // Initialize a copy counter to the start of the _preBytes data,\\n                // 32 bytes into its memory.\\n                let cc := add(_preBytes, 0x20)\\n            } lt(mc, end) {\\n                // Increase both counters by 32 bytes each iteration.\\n                mc := add(mc, 0x20)\\n                cc := add(cc, 0x20)\\n            } {\\n                // Write the _preBytes data into the tempBytes memory 32 bytes\\n                // at a time.\\n                mstore(mc, mload(cc))\\n            }\\n\\n            // Add the length of _postBytes to the current length of tempBytes\\n            // and store it as the new length in the first 32 bytes of the\\n            // tempBytes memory.\\n            length := mload(_postBytes)\\n            mstore(tempBytes, add(length, mload(tempBytes)))\\n\\n            // Move the memory counter back from a multiple of 0x20 to the\\n            // actual end of the _preBytes data.\\n            mc := end\\n            // Stop copying when the memory counter reaches the new combined\\n            // length of the arrays.\\n            end := add(mc, length)\\n\\n            for {\\n                let cc := add(_postBytes, 0x20)\\n            } lt(mc, end) {\\n                mc := add(mc, 0x20)\\n                cc := add(cc, 0x20)\\n            } {\\n                mstore(mc, mload(cc))\\n            }\\n\\n            // Update the free-memory pointer by padding our last write location\\n            // to 32 bytes: add 31 bytes to the end of tempBytes to move to the\\n            // next 32 byte block, then round down to the nearest multiple of\\n            // 32. If the sum of the length of the two arrays is zero then add\\n            // one before rounding down to leave a blank 32 bytes (the length block with 0).\\n            mstore(0x40, and(\\n              add(add(end, iszero(add(length, mload(_preBytes)))), 31),\\n              not(31) // Round down to the nearest 32 bytes.\\n            ))\\n        }\\n\\n        return tempBytes;\\n    }\\n\\n    function concatStorage(bytes storage _preBytes, bytes memory _postBytes) internal {\\n        assembly {\\n            // Read the first 32 bytes of _preBytes storage, which is the length\\n            // of the array. (We don't need to use the offset into the slot\\n            // because arrays use the entire slot.)\\n            let fslot := sload(_preBytes.slot)\\n            // Arrays of 31 bytes or less have an even value in their slot,\\n            // while longer arrays have an odd value. The actual length is\\n            // the slot divided by two for odd values, and the lowest order\\n            // byte divided by two for even values.\\n            // If the slot is even, bitwise and the slot with 255 and divide by\\n            // two to get the length. If the slot is odd, bitwise and the slot\\n            // with -1 and divide by two.\\n            let slength := div(and(fslot, sub(mul(0x100, iszero(and(fslot, 1))), 1)), 2)\\n            let mlength := mload(_postBytes)\\n            let newlength := add(slength, mlength)\\n            // slength can contain both the length and contents of the array\\n            // if length < 32 bytes so let's prepare for that\\n            // v. http://solidity.readthedocs.io/en/latest/miscellaneous.html#layout-of-state-variables-in-storage\\n            switch add(lt(slength, 32), lt(newlength, 32))\\n            case 2 {\\n                // Since the new array still fits in the slot, we just need to\\n                // update the contents of the slot.\\n                // uint256(bytes_storage) = uint256(bytes_storage) + uint256(bytes_memory) + new_length\\n                sstore(\\n                    _preBytes.slot,\\n                    // all the modifications to the slot are inside this\\n                    // next block\\n                    add(\\n                        // we can just add to the slot contents because the\\n                        // bytes we want to change are the LSBs\\n                        fslot,\\n                        add(\\n                            mul(\\n                                div(\\n                                    // load the bytes from memory\\n                                    mload(add(_postBytes, 0x20)),\\n                                    // zero all bytes to the right\\n                                    exp(0x100, sub(32, mlength))\\n                                ),\\n                                // and now shift left the number of bytes to\\n                                // leave space for the length in the slot\\n                                exp(0x100, sub(32, newlength))\\n                            ),\\n                            // increase length by the double of the memory\\n                            // bytes length\\n                            mul(mlength, 2)\\n                        )\\n                    )\\n                )\\n            }\\n            case 1 {\\n                // The stored value fits in the slot, but the combined value\\n                // will exceed it.\\n                // get the keccak hash to get the contents of the array\\n                mstore(0x0, _preBytes.slot)\\n                let sc := add(keccak256(0x0, 0x20), div(slength, 32))\\n\\n                // save new length\\n                sstore(_preBytes.slot, add(mul(newlength, 2), 1))\\n\\n                // The contents of the _postBytes array start 32 bytes into\\n                // the structure. Our first read should obtain the `submod`\\n                // bytes that can fit into the unused space in the last word\\n                // of the stored array. To get this, we read 32 bytes starting\\n                // from `submod`, so the data we read overlaps with the array\\n                // contents by `submod` bytes. Masking the lowest-order\\n                // `submod` bytes allows us to add that value directly to the\\n                // stored value.\\n\\n                let submod := sub(32, slength)\\n                let mc := add(_postBytes, submod)\\n                let end := add(_postBytes, mlength)\\n                let mask := sub(exp(0x100, submod), 1)\\n\\n                sstore(\\n                    sc,\\n                    add(\\n                        and(\\n                            fslot,\\n                            0xffffffffffffffffffffffffffffffffffffffffffffffffffffffffffffff00\\n                        ),\\n                        and(mload(mc), mask)\\n                    )\\n                )\\n\\n                for {\\n                    mc := add(mc, 0x20)\\n                    sc := add(sc, 1)\\n                } lt(mc, end) {\\n                    sc := add(sc, 1)\\n                    mc := add(mc, 0x20)\\n                } {\\n                    sstore(sc, mload(mc))\\n                }\\n\\n                mask := exp(0x100, sub(mc, end))\\n\\n                sstore(sc, mul(div(mload(mc), mask), mask))\\n            }\\n            default {\\n                // get the keccak hash to get the contents of the array\\n                mstore(0x0, _preBytes.slot)\\n                // Start copying to the last used word of the stored array.\\n                let sc := add(keccak256(0x0, 0x20), div(slength, 32))\\n\\n                // save new length\\n                sstore(_preBytes.slot, add(mul(newlength, 2), 1))\\n\\n                // Copy over the first `submod` bytes of the new data as in\\n                // case 1 above.\\n                let slengthmod := mod(slength, 32)\\n                let mlengthmod := mod(mlength, 32)\\n                let submod := sub(32, slengthmod)\\n                let mc := add(_postBytes, submod)\\n                let end := add(_postBytes, mlength)\\n                let mask := sub(exp(0x100, submod), 1)\\n\\n                sstore(sc, add(sload(sc), and(mload(mc), mask)))\\n\\n                for {\\n                    sc := add(sc, 1)\\n                    mc := add(mc, 0x20)\\n                } lt(mc, end) {\\n                    sc := add(sc, 1)\\n                    mc := add(mc, 0x20)\\n                } {\\n                    sstore(sc, mload(mc))\\n                }\\n\\n                mask := exp(0x100, sub(mc, end))\\n\\n                sstore(sc, mul(div(mload(mc), mask), mask))\\n            }\\n        }\\n    }\\n\\n    function slice(\\n        bytes memory _bytes,\\n        uint256 _start,\\n        uint256 _length\\n    )\\n        internal\\n        pure\\n        returns (bytes memory)\\n    {\\n        // We're using the unchecked block below because otherwise execution ends \\n        // with the native overflow error code.\\n        unchecked {\\n            require(_length + 31 >= _length, \\\"slice_overflow\\\");\\n        }\\n        require(_bytes.length >= _start + _length, \\\"slice_outOfBounds\\\");\\n\\n        bytes memory tempBytes;\\n\\n        assembly {\\n            switch iszero(_length)\\n            case 0 {\\n                // Get a location of some free memory and store it in tempBytes as\\n                // Solidity does for memory variables.\\n                tempBytes := mload(0x40)\\n\\n                // The first word of the slice result is potentially a partial\\n                // word read from the original array. To read it, we calculate\\n                // the length of that partial word and start copying that many\\n                // bytes into the array. The first word we copy will start with\\n                // data we don't care about, but the last `lengthmod` bytes will\\n                // land at the beginning of the contents of the new array. When\\n                // we're done copying, we overwrite the full first word with\\n                // the actual length of the slice.\\n                let lengthmod := and(_length, 31)\\n\\n                // The multiplication in the next line is necessary\\n                // because when slicing multiples of 32 bytes (lengthmod == 0)\\n                // the following copy loop was copying the origin's length\\n                // and then ending prematurely not copying everything it should.\\n                let mc := add(add(tempBytes, lengthmod), mul(0x20, iszero(lengthmod)))\\n                let end := add(mc, _length)\\n\\n                for {\\n                    // The multiplication in the next line has the same exact purpose\\n                    // as the one above.\\n                    let cc := add(add(add(_bytes, lengthmod), mul(0x20, iszero(lengthmod))), _start)\\n                } lt(mc, end) {\\n                    mc := add(mc, 0x20)\\n                    cc := add(cc, 0x20)\\n                } {\\n                    mstore(mc, mload(cc))\\n                }\\n\\n                mstore(tempBytes, _length)\\n\\n                //update free-memory pointer\\n                //allocating the array padded to 32 bytes like the compiler does now\\n                mstore(0x40, and(add(mc, 31), not(31)))\\n            }\\n            //if we want a zero-length slice let's just return a zero-length array\\n            default {\\n                tempBytes := mload(0x40)\\n                //zero out the 32 bytes slice we are about to return\\n                //we need to do it because Solidity does not garbage collect\\n                mstore(tempBytes, 0)\\n\\n                mstore(0x40, add(tempBytes, 0x20))\\n            }\\n        }\\n\\n        return tempBytes;\\n    }\\n\\n    function toAddress(bytes memory _bytes, uint256 _start) internal pure returns (address) {\\n        require(_bytes.length >= _start + 20, \\\"toAddress_outOfBounds\\\");\\n        address tempAddress;\\n\\n        assembly {\\n            tempAddress := div(mload(add(add(_bytes, 0x20), _start)), 0x1000000000000000000000000)\\n        }\\n\\n        return tempAddress;\\n    }\\n\\n    function toUint8(bytes memory _bytes, uint256 _start) internal pure returns (uint8) {\\n        require(_bytes.length >= _start + 1 , \\\"toUint8_outOfBounds\\\");\\n        uint8 tempUint;\\n\\n        assembly {\\n            tempUint := mload(add(add(_bytes, 0x1), _start))\\n        }\\n\\n        return tempUint;\\n    }\\n\\n    function toUint16(bytes memory _bytes, uint256 _start) internal pure returns (uint16) {\\n        require(_bytes.length >= _start + 2, \\\"toUint16_outOfBounds\\\");\\n        uint16 tempUint;\\n\\n        assembly {\\n            tempUint := mload(add(add(_bytes, 0x2), _start))\\n        }\\n\\n        return tempUint;\\n    }\\n\\n    function toUint32(bytes memory _bytes, uint256 _start) internal pure returns (uint32) {\\n        require(_bytes.length >= _start + 4, \\\"toUint32_outOfBounds\\\");\\n        uint32 tempUint;\\n\\n        assembly {\\n            tempUint := mload(add(add(_bytes, 0x4), _start))\\n        }\\n\\n        return tempUint;\\n    }\\n\\n    function toUint64(bytes memory _bytes, uint256 _start) internal pure returns (uint64) {\\n        require(_bytes.length >= _start + 8, \\\"toUint64_outOfBounds\\\");\\n        uint64 tempUint;\\n\\n        assembly {\\n            tempUint := mload(add(add(_bytes, 0x8), _start))\\n        }\\n\\n        return tempUint;\\n    }\\n\\n    function toUint96(bytes memory _bytes, uint256 _start) internal pure returns (uint96) {\\n        require(_bytes.length >= _start + 12, \\\"toUint96_outOfBounds\\\");\\n        uint96 tempUint;\\n\\n        assembly {\\n            tempUint := mload(add(add(_bytes, 0xc), _start))\\n        }\\n\\n        return tempUint;\\n    }\\n\\n    function toUint128(bytes memory _bytes, uint256 _start) internal pure returns (uint128) {\\n        require(_bytes.length >= _start + 16, \\\"toUint128_outOfBounds\\\");\\n        uint128 tempUint;\\n\\n        assembly {\\n            tempUint := mload(add(add(_bytes, 0x10), _start))\\n        }\\n\\n        return tempUint;\\n    }\\n\\n    function toUint256(bytes memory _bytes, uint256 _start) internal pure returns (uint256) {\\n        require(_bytes.length >= _start + 32, \\\"toUint256_outOfBounds\\\");\\n        uint256 tempUint;\\n\\n        assembly {\\n            tempUint := mload(add(add(_bytes, 0x20), _start))\\n        }\\n\\n        return tempUint;\\n    }\\n\\n    function toBytes32(bytes memory _bytes, uint256 _start) internal pure returns (bytes32) {\\n        require(_bytes.length >= _start + 32, \\\"toBytes32_outOfBounds\\\");\\n        bytes32 tempBytes32;\\n\\n        assembly {\\n            tempBytes32 := mload(add(add(_bytes, 0x20), _start))\\n        }\\n\\n        return tempBytes32;\\n    }\\n\\n    function equal(bytes memory _preBytes, bytes memory _postBytes) internal pure returns (bool) {\\n        bool success = true;\\n\\n        assembly {\\n            let length := mload(_preBytes)\\n\\n            // if lengths don't match the arrays are not equal\\n            switch eq(length, mload(_postBytes))\\n            case 1 {\\n                // cb is a circuit breaker in the for loop since there's\\n                //  no said feature for inline assembly loops\\n                // cb = 1 - don't breaker\\n                // cb = 0 - break\\n                let cb := 1\\n\\n                let mc := add(_preBytes, 0x20)\\n                let end := add(mc, length)\\n\\n                for {\\n                    let cc := add(_postBytes, 0x20)\\n                // the next line is the loop condition:\\n                // while(uint256(mc < end) + cb == 2)\\n                } eq(add(lt(mc, end), cb), 2) {\\n                    mc := add(mc, 0x20)\\n                    cc := add(cc, 0x20)\\n                } {\\n                    // if any of these checks fails then arrays are not equal\\n                    if iszero(eq(mload(mc), mload(cc))) {\\n                        // unsuccess:\\n                        success := 0\\n                        cb := 0\\n                    }\\n                }\\n            }\\n            default {\\n                // unsuccess:\\n                success := 0\\n            }\\n        }\\n\\n        return success;\\n    }\\n\\n    function equalStorage(\\n        bytes storage _preBytes,\\n        bytes memory _postBytes\\n    )\\n        internal\\n        view\\n        returns (bool)\\n    {\\n        bool success = true;\\n\\n        assembly {\\n            // we know _preBytes_offset is 0\\n            let fslot := sload(_preBytes.slot)\\n            // Decode the length of the stored array like in concatStorage().\\n            let slength := div(and(fslot, sub(mul(0x100, iszero(and(fslot, 1))), 1)), 2)\\n            let mlength := mload(_postBytes)\\n\\n            // if lengths don't match the arrays are not equal\\n            switch eq(slength, mlength)\\n            case 1 {\\n                // slength can contain both the length and contents of the array\\n                // if length < 32 bytes so let's prepare for that\\n                // v. http://solidity.readthedocs.io/en/latest/miscellaneous.html#layout-of-state-variables-in-storage\\n                if iszero(iszero(slength)) {\\n                    switch lt(slength, 32)\\n                    case 1 {\\n                        // blank the last byte which is the length\\n                        fslot := mul(div(fslot, 0x100), 0x100)\\n\\n                        if iszero(eq(fslot, mload(add(_postBytes, 0x20)))) {\\n                            // unsuccess:\\n                            success := 0\\n                        }\\n                    }\\n                    default {\\n                        // cb is a circuit breaker in the for loop since there's\\n                        //  no said feature for inline assembly loops\\n                        // cb = 1 - don't breaker\\n                        // cb = 0 - break\\n                        let cb := 1\\n\\n                        // get the keccak hash to get the contents of the array\\n                        mstore(0x0, _preBytes.slot)\\n                        let sc := keccak256(0x0, 0x20)\\n\\n                        let mc := add(_postBytes, 0x20)\\n                        let end := add(mc, mlength)\\n\\n                        // the next line is the loop condition:\\n                        // while(uint256(mc < end) + cb == 2)\\n                        for {} eq(add(lt(mc, end), cb), 2) {\\n                            sc := add(sc, 1)\\n                            mc := add(mc, 0x20)\\n                        } {\\n                            if iszero(eq(sload(sc), mload(mc))) {\\n                                // unsuccess:\\n                                success := 0\\n                                cb := 0\\n                            }\\n                        }\\n                    }\\n                }\\n            }\\n            default {\\n                // unsuccess:\\n                success := 0\\n            }\\n        }\\n\\n        return success;\\n    }\\n}\\n\"},\"@openzeppelin/contracts/utils/introspection/IERC165.sol\":{\"content\":\"// SPDX-License-Identifier: MIT\\n// OpenZeppelin Contracts (last updated v5.1.0) (utils/introspection/IERC165.sol)\\n\\npragma solidity ^0.8.20;\\n\\n/**\\n * @dev Interface of the ERC-165 standard, as defined in the\\n * https://eips.ethereum.org/EIPS/eip-165[ERC].\\n *\\n * Implementers can declare support of contract interfaces, which can then be\\n * queried by others ({ERC165Checker}).\\n *\\n * For an implementation, see {ERC165}.\\n */\\ninterface IERC165 {\\n    /**\\n     * @dev Returns true if this contract implements the interface defined by\\n     * `interfaceId`. See the corresponding\\n     * https://eips.ethereum.org/EIPS/eip-165#how-interfaces-are-identified[ERC section]\\n     * to learn more about how these ids are created.\\n     *\\n     * This function call must use less than 30 000 gas.\\n     */\\n    function supportsInterface(bytes4 interfaceId) external view returns (bool);\\n}\\n\"},\"@openzeppelin/contracts/utils/math/Math.sol\":{\"content\":\"// SPDX-License-Identifier: MIT\\n// OpenZeppelin Contracts (last updated v5.3.0) (utils/math/Math.sol)\\n\\npragma solidity ^0.8.20;\\n\\nimport {Panic} from \\\"../Panic.sol\\\";\\nimport {SafeCast} from \\\"./SafeCast.sol\\\";\\n\\n/**\\n * @dev Standard math utilities missing in the Solidity language.\\n */\\nlibrary Math {\\n    enum Rounding {\\n        Floor, // Toward negative infinity\\n        Ceil, // Toward positive infinity\\n        Trunc, // Toward zero\\n        Expand // Away from zero\\n    }\\n\\n    /**\\n     * @dev Return the 512-bit addition of two uint256.\\n     *\\n     * The result is stored in two 256 variables such that sum = high * 2²⁵⁶ + low.\\n     */\\n    function add512(uint256 a, uint256 b) internal pure returns (uint256 high, uint256 low) {\\n        assembly (\\\"memory-safe\\\") {\\n            low := add(a, b)\\n            high := lt(low, a)\\n        }\\n    }\\n\\n    /**\\n     * @dev Return the 512-bit multiplication of two uint256.\\n     *\\n     * The result is stored in two 256 variables such that product = high * 2²⁵⁶ + low.\\n     */\\n    function mul512(uint256 a, uint256 b) internal pure returns (uint256 high, uint256 low) {\\n        // 512-bit multiply [high low] = x * y. Compute the product mod 2²⁵⁶ and mod 2²⁵⁶ - 1, then use\\n        // the Chinese Remainder Theorem to reconstruct the 512 bit result. The result is stored in two 256\\n        // variables such that product = high * 2²⁵⁶ + low.\\n        assembly (\\\"memory-safe\\\") {\\n            let mm := mulmod(a, b, not(0))\\n            low := mul(a, b)\\n            high := sub(sub(mm, low), lt(mm, low))\\n        }\\n    }\\n\\n    /**\\n     * @dev Returns the addition of two unsigned integers, with a success flag (no overflow).\\n     */\\n    function tryAdd(uint256 a, uint256 b) internal pure returns (bool success, uint256 result) {\\n        unchecked {\\n            uint256 c = a + b;\\n            success = c >= a;\\n            result = c * SafeCast.toUint(success);\\n        }\\n    }\\n\\n    /**\\n     * @dev Returns the subtraction of two unsigned integers, with a success flag (no overflow).\\n     */\\n    function trySub(uint256 a, uint256 b) internal pure returns (bool success, uint256 result) {\\n        unchecked {\\n            uint256 c = a - b;\\n            success = c <= a;\\n            result = c * SafeCast.toUint(success);\\n        }\\n    }\\n\\n    /**\\n     * @dev Returns the multiplication of two unsigned integers, with a success flag (no overflow).\\n     */\\n    function tryMul(uint256 a, uint256 b) internal pure returns (bool success, uint256 result) {\\n        unchecked {\\n            uint256 c = a * b;\\n            assembly (\\\"memory-safe\\\") {\\n                // Only true when the multiplication doesn't overflow\\n                // (c / a == b) || (a == 0)\\n                success := or(eq(div(c, a), b), iszero(a))\\n            }\\n            // equivalent to: success ? c : 0\\n            result = c * SafeCast.toUint(success);\\n        }\\n    }\\n\\n    /**\\n     * @dev Returns the division of two unsigned integers, with a success flag (no division by zero).\\n     */\\n    function tryDiv(uint256 a, uint256 b) internal pure returns (bool success, uint256 result) {\\n        unchecked {\\n            success = b > 0;\\n            assembly (\\\"memory-safe\\\") {\\n                // The `DIV` opcode returns zero when the denominator is 0.\\n                result := div(a, b)\\n            }\\n        }\\n    }\\n\\n    /**\\n     * @dev Returns the remainder of dividing two unsigned integers, with a success flag (no division by zero).\\n     */\\n    function tryMod(uint256 a, uint256 b) internal pure returns (bool success, uint256 result) {\\n        unchecked {\\n            success = b > 0;\\n            assembly (\\\"memory-safe\\\") {\\n                // The `MOD` opcode returns zero when the denominator is 0.\\n                result := mod(a, b)\\n            }\\n        }\\n    }\\n\\n    /**\\n     * @dev Unsigned saturating addition, bounds to `2²⁵⁶ - 1` instead of overflowing.\\n     */\\n    function saturatingAdd(uint256 a, uint256 b) internal pure returns (uint256) {\\n        (bool success, uint256 result) = tryAdd(a, b);\\n        return ternary(success, result, type(uint256).max);\\n    }\\n\\n    /**\\n     * @dev Unsigned saturating subtraction, bounds to zero instead of overflowing.\\n     */\\n    function saturatingSub(uint256 a, uint256 b) internal pure returns (uint256) {\\n        (, uint256 result) = trySub(a, b);\\n        return result;\\n    }\\n\\n    /**\\n     * @dev Unsigned saturating multiplication, bounds to `2²⁵⁶ - 1` instead of overflowing.\\n     */\\n    function saturatingMul(uint256 a, uint256 b) internal pure returns (uint256) {\\n        (bool success, uint256 result) = tryMul(a, b);\\n        return ternary(success, result, type(uint256).max);\\n    }\\n\\n    /**\\n     * @dev Branchless ternary evaluation for `a ? b : c`. Gas costs are constant.\\n     *\\n     * IMPORTANT: This function may reduce bytecode size and consume less gas when used standalone.\\n     * However, the compiler may optimize Solidity ternary operations (i.e. `a ? b : c`) to only compute\\n     * one branch when needed, making this function more expensive.\\n     */\\n    function ternary(bool condition, uint256 a, uint256 b) internal pure returns (uint256) {\\n        unchecked {\\n            // branchless ternary works because:\\n            // b ^ (a ^ b) == a\\n            // b ^ 0 == b\\n            return b ^ ((a ^ b) * SafeCast.toUint(condition));\\n        }\\n    }\\n\\n    /**\\n     * @dev Returns the largest of two numbers.\\n     */\\n    function max(uint256 a, uint256 b) internal pure returns (uint256) {\\n        return ternary(a > b, a, b);\\n    }\\n\\n    /**\\n     * @dev Returns the smallest of two numbers.\\n     */\\n    function min(uint256 a, uint256 b) internal pure returns (uint256) {\\n        return ternary(a < b, a, b);\\n    }\\n\\n    /**\\n     * @dev Returns the average of two numbers. The result is rounded towards\\n     * zero.\\n     */\\n    function average(uint256 a, uint256 b) internal pure returns (uint256) {\\n        // (a + b) / 2 can overflow.\\n        return (a & b) + (a ^ b) / 2;\\n    }\\n\\n    /**\\n     * @dev Returns the ceiling of the division of two numbers.\\n     *\\n     * This differs from standard division with `/` in that it rounds towards infinity instead\\n     * of rounding towards zero.\\n     */\\n    function ceilDiv(uint256 a, uint256 b) internal pure returns (uint256) {\\n        if (b == 0) {\\n            // Guarantee the same behavior as in a regular Solidity division.\\n            Panic.panic(Panic.DIVISION_BY_ZERO);\\n        }\\n\\n        // The following calculation ensures accurate ceiling division without overflow.\\n        // Since a is non-zero, (a - 1) / b will not overflow.\\n        // The largest possible result occurs when (a - 1) / b is type(uint256).max,\\n        // but the largest value we can obtain is type(uint256).max - 1, which happens\\n        // when a = type(uint256).max and b = 1.\\n        unchecked {\\n            return SafeCast.toUint(a > 0) * ((a - 1) / b + 1);\\n        }\\n    }\\n\\n    /**\\n     * @dev Calculates floor(x * y / denominator) with full precision. Throws if result overflows a uint256 or\\n     * denominator == 0.\\n     *\\n     * Original credit to Remco Bloemen under MIT license (https://xn--2-umb.com/21/muldiv) with further edits by\\n     * Uniswap Labs also under MIT license.\\n     */\\n    function mulDiv(uint256 x, uint256 y, uint256 denominator) internal pure returns (uint256 result) {\\n        unchecked {\\n            (uint256 high, uint256 low) = mul512(x, y);\\n\\n            // Handle non-overflow cases, 256 by 256 division.\\n            if (high == 0) {\\n                // Solidity will revert if denominator == 0, unlike the div opcode on its own.\\n                // The surrounding unchecked block does not change this fact.\\n                // See https://docs.soliditylang.org/en/latest/control-structures.html#checked-or-unchecked-arithmetic.\\n                return low / denominator;\\n            }\\n\\n            // Make sure the result is less than 2²⁵⁶. Also prevents denominator == 0.\\n            if (denominator <= high) {\\n                Panic.panic(ternary(denominator == 0, Panic.DIVISION_BY_ZERO, Panic.UNDER_OVERFLOW));\\n            }\\n\\n            ///////////////////////////////////////////////\\n            // 512 by 256 division.\\n            ///////////////////////////////////////////////\\n\\n            // Make division exact by subtracting the remainder from [high low].\\n            uint256 remainder;\\n            assembly (\\\"memory-safe\\\") {\\n                // Compute remainder using mulmod.\\n                remainder := mulmod(x, y, denominator)\\n\\n                // Subtract 256 bit number from 512 bit number.\\n                high := sub(high, gt(remainder, low))\\n                low := sub(low, remainder)\\n            }\\n\\n            // Factor powers of two out of denominator and compute largest power of two divisor of denominator.\\n            // Always >= 1. See https://cs.stackexchange.com/q/138556/92363.\\n\\n            uint256 twos = denominator & (0 - denominator);\\n            assembly (\\\"memory-safe\\\") {\\n                // Divide denominator by twos.\\n                denominator := div(denominator, twos)\\n\\n                // Divide [high low] by twos.\\n                low := div(low, twos)\\n\\n                // Flip twos such that it is 2²⁵⁶ / twos. If twos is zero, then it becomes one.\\n                twos := add(div(sub(0, twos), twos), 1)\\n            }\\n\\n            // Shift in bits from high into low.\\n            low |= high * twos;\\n\\n            // Invert denominator mod 2²⁵⁶. Now that denominator is an odd number, it has an inverse modulo 2²⁵⁶ such\\n            // that denominator * inv ≡ 1 mod 2²⁵⁶. Compute the inverse by starting with a seed that is correct for\\n            // four bits. That is, denominator * inv ≡ 1 mod 2⁴.\\n            uint256 inverse = (3 * denominator) ^ 2;\\n\\n            // Use the Newton-Raphson iteration to improve the precision. Thanks to Hensel's lifting lemma, this also\\n            // works in modular arithmetic, doubling the correct bits in each step.\\n            inverse *= 2 - denominator * inverse; // inverse mod 2⁸\\n            inverse *= 2 - denominator * inverse; // inverse mod 2¹⁶\\n            inverse *= 2 - denominator * inverse; // inverse mod 2³²\\n            inverse *= 2 - denominator * inverse; // inverse mod 2⁶⁴\\n            inverse *= 2 - denominator * inverse; // inverse mod 2¹²⁸\\n            inverse *= 2 - denominator * inverse; // inverse mod 2²⁵⁶\\n\\n            // Because the division is now exact we can divide by multiplying with the modular inverse of denominator.\\n            // This will give us the correct result modulo 2²⁵⁶. Since the preconditions guarantee that the outcome is\\n            // less than 2²⁵⁶, this is the final result. We don't need to compute the high bits of the result and high\\n            // is no longer required.\\n            result = low * inverse;\\n            return result;\\n        }\\n    }\\n\\n    /**\\n     * @dev Calculates x * y / denominator with full precision, following the selected rounding direction.\\n     */\\n    function mulDiv(uint256 x, uint256 y, uint256 denominator, Rounding rounding) internal pure returns (uint256) {\\n        return mulDiv(x, y, denominator) + SafeCast.toUint(unsignedRoundsUp(rounding) && mulmod(x, y, denominator) > 0);\\n    }\\n\\n    /**\\n     * @dev Calculates floor(x * y >> n) with full precision. Throws if result overflows a uint256.\\n     */\\n    function mulShr(uint256 x, uint256 y, uint8 n) internal pure returns (uint256 result) {\\n        unchecked {\\n            (uint256 high, uint256 low) = mul512(x, y);\\n            if (high >= 1 << n) {\\n                Panic.panic(Panic.UNDER_OVERFLOW);\\n            }\\n            return (high << (256 - n)) | (low >> n);\\n        }\\n    }\\n\\n    /**\\n     * @dev Calculates x * y >> n with full precision, following the selected rounding direction.\\n     */\\n    function mulShr(uint256 x, uint256 y, uint8 n, Rounding rounding) internal pure returns (uint256) {\\n        return mulShr(x, y, n) + SafeCast.toUint(unsignedRoundsUp(rounding) && mulmod(x, y, 1 << n) > 0);\\n    }\\n\\n    /**\\n     * @dev Calculate the modular multiplicative inverse of a number in Z/nZ.\\n     *\\n     * If n is a prime, then Z/nZ is a field. In that case all elements are inversible, except 0.\\n     * If n is not a prime, then Z/nZ is not a field, and some elements might not be inversible.\\n     *\\n     * If the input value is not inversible, 0 is returned.\\n     *\\n     * NOTE: If you know for sure that n is (big) a prime, it may be cheaper to use Fermat's little theorem and get the\\n     * inverse using `Math.modExp(a, n - 2, n)`. See {invModPrime}.\\n     */\\n    function invMod(uint256 a, uint256 n) internal pure returns (uint256) {\\n        unchecked {\\n            if (n == 0) return 0;\\n\\n            // The inverse modulo is calculated using the Extended Euclidean Algorithm (iterative version)\\n            // Used to compute integers x and y such that: ax + ny = gcd(a, n).\\n            // When the gcd is 1, then the inverse of a modulo n exists and it's x.\\n            // ax + ny = 1\\n            // ax = 1 + (-y)n\\n            // ax ≡ 1 (mod n) # x is the inverse of a modulo n\\n\\n            // If the remainder is 0 the gcd is n right away.\\n            uint256 remainder = a % n;\\n            uint256 gcd = n;\\n\\n            // Therefore the initial coefficients are:\\n            // ax + ny = gcd(a, n) = n\\n            // 0a + 1n = n\\n            int256 x = 0;\\n            int256 y = 1;\\n\\n            while (remainder != 0) {\\n                uint256 quotient = gcd / remainder;\\n\\n                (gcd, remainder) = (\\n                    // The old remainder is the next gcd to try.\\n                    remainder,\\n                    // Compute the next remainder.\\n                    // Can't overflow given that (a % gcd) * (gcd // (a % gcd)) <= gcd\\n                    // where gcd is at most n (capped to type(uint256).max)\\n                    gcd - remainder * quotient\\n                );\\n\\n                (x, y) = (\\n                    // Increment the coefficient of a.\\n                    y,\\n                    // Decrement the coefficient of n.\\n                    // Can overflow, but the result is casted to uint256 so that the\\n                    // next value of y is \\\"wrapped around\\\" to a value between 0 and n - 1.\\n                    x - y * int256(quotient)\\n                );\\n            }\\n\\n            if (gcd != 1) return 0; // No inverse exists.\\n            return ternary(x < 0, n - uint256(-x), uint256(x)); // Wrap the result if it's negative.\\n        }\\n    }\\n\\n    /**\\n     * @dev Variant of {invMod}. More efficient, but only works if `p` is known to be a prime greater than `2`.\\n     *\\n     * From https://en.wikipedia.org/wiki/Fermat%27s_little_theorem[Fermat's little theorem], we know that if p is\\n     * prime, then `a**(p-1) ≡ 1 mod p`. As a consequence, we have `a * a**(p-2) ≡ 1 mod p`, which means that\\n     * `a**(p-2)` is the modular multiplicative inverse of a in Fp.\\n     *\\n     * NOTE: this function does NOT check that `p` is a prime greater than `2`.\\n     */\\n    function invModPrime(uint256 a, uint256 p) internal view returns (uint256) {\\n        unchecked {\\n            return Math.modExp(a, p - 2, p);\\n        }\\n    }\\n\\n    /**\\n     * @dev Returns the modular exponentiation of the specified base, exponent and modulus (b ** e % m)\\n     *\\n     * Requirements:\\n     * - modulus can't be zero\\n     * - underlying staticcall to precompile must succeed\\n     *\\n     * IMPORTANT: The result is only valid if the underlying call succeeds. When using this function, make\\n     * sure the chain you're using it on supports the precompiled contract for modular exponentiation\\n     * at address 0x05 as specified in https://eips.ethereum.org/EIPS/eip-198[EIP-198]. Otherwise,\\n     * the underlying function will succeed given the lack of a revert, but the result may be incorrectly\\n     * interpreted as 0.\\n     */\\n    function modExp(uint256 b, uint256 e, uint256 m) internal view returns (uint256) {\\n        (bool success, uint256 result) = tryModExp(b, e, m);\\n        if (!success) {\\n            Panic.panic(Panic.DIVISION_BY_ZERO);\\n        }\\n        return result;\\n    }\\n\\n    /**\\n     * @dev Returns the modular exponentiation of the specified base, exponent and modulus (b ** e % m).\\n     * It includes a success flag indicating if the operation succeeded. Operation will be marked as failed if trying\\n     * to operate modulo 0 or if the underlying precompile reverted.\\n     *\\n     * IMPORTANT: The result is only valid if the success flag is true. When using this function, make sure the chain\\n     * you're using it on supports the precompiled contract for modular exponentiation at address 0x05 as specified in\\n     * https://eips.ethereum.org/EIPS/eip-198[EIP-198]. Otherwise, the underlying function will succeed given the lack\\n     * of a revert, but the result may be incorrectly interpreted as 0.\\n     */\\n    function tryModExp(uint256 b, uint256 e, uint256 m) internal view returns (bool success, uint256 result) {\\n        if (m == 0) return (false, 0);\\n        assembly (\\\"memory-safe\\\") {\\n            let ptr := mload(0x40)\\n            // | Offset    | Content    | Content (Hex)                                                      |\\n            // |-----------|------------|--------------------------------------------------------------------|\\n            // | 0x00:0x1f | size of b  | 0x0000000000000000000000000000000000000000000000000000000000000020 |\\n            // | 0x20:0x3f | size of e  | 0x0000000000000000000000000000000000000000000000000000000000000020 |\\n            // | 0x40:0x5f | size of m  | 0x0000000000000000000000000000000000000000000000000000000000000020 |\\n            // | 0x60:0x7f | value of b | 0x<.............................................................b> |\\n            // | 0x80:0x9f | value of e | 0x<.............................................................e> |\\n            // | 0xa0:0xbf | value of m | 0x<.............................................................m> |\\n            mstore(ptr, 0x20)\\n            mstore(add(ptr, 0x20), 0x20)\\n            mstore(add(ptr, 0x40), 0x20)\\n            mstore(add(ptr, 0x60), b)\\n            mstore(add(ptr, 0x80), e)\\n            mstore(add(ptr, 0xa0), m)\\n\\n            // Given the result < m, it's guaranteed to fit in 32 bytes,\\n            // so we can use the memory scratch space located at offset 0.\\n            success := staticcall(gas(), 0x05, ptr, 0xc0, 0x00, 0x20)\\n            result := mload(0x00)\\n        }\\n    }\\n\\n    /**\\n     * @dev Variant of {modExp} that supports inputs of arbitrary length.\\n     */\\n    function modExp(bytes memory b, bytes memory e, bytes memory m) internal view returns (bytes memory) {\\n        (bool success, bytes memory result) = tryModExp(b, e, m);\\n        if (!success) {\\n            Panic.panic(Panic.DIVISION_BY_ZERO);\\n        }\\n        return result;\\n    }\\n\\n    /**\\n     * @dev Variant of {tryModExp} that supports inputs of arbitrary length.\\n     */\\n    function tryModExp(\\n        bytes memory b,\\n        bytes memory e,\\n        bytes memory m\\n    ) internal view returns (bool success, bytes memory result) {\\n        if (_zeroBytes(m)) return (false, new bytes(0));\\n\\n        uint256 mLen = m.length;\\n\\n        // Encode call args in result and move the free memory pointer\\n        result = abi.encodePacked(b.length, e.length, mLen, b, e, m);\\n\\n        assembly (\\\"memory-safe\\\") {\\n            let dataPtr := add(result, 0x20)\\n            // Write result on top of args to avoid allocating extra memory.\\n            success := staticcall(gas(), 0x05, dataPtr, mload(result), dataPtr, mLen)\\n            // Overwrite the length.\\n            // result.length > returndatasize() is guaranteed because returndatasize() == m.length\\n            mstore(result, mLen)\\n            // Set the memory pointer after the returned data.\\n            mstore(0x40, add(dataPtr, mLen))\\n        }\\n    }\\n\\n    /**\\n     * @dev Returns whether the provided byte array is zero.\\n     */\\n    function _zeroBytes(bytes memory byteArray) private pure returns (bool) {\\n        for (uint256 i = 0; i < byteArray.length; ++i) {\\n            if (byteArray[i] != 0) {\\n                return false;\\n            }\\n        }\\n        return true;\\n    }\\n\\n    /**\\n     * @dev Returns the square root of a number. If the number is not a perfect square, the value is rounded\\n     * towards zero.\\n     *\\n     * This method is based on Newton's method for computing square roots; the algorithm is restricted to only\\n     * using integer operations.\\n     */\\n    function sqrt(uint256 a) internal pure returns (uint256) {\\n        unchecked {\\n            // Take care of easy edge cases when a == 0 or a == 1\\n            if (a <= 1) {\\n                return a;\\n            }\\n\\n            // In this function, we use Newton's method to get a root of `f(x) := x² - a`. It involves building a\\n            // sequence x_n that converges toward sqrt(a). For each iteration x_n, we also define the error between\\n            // the current value as `ε_n = | x_n - sqrt(a) |`.\\n            //\\n            // For our first estimation, we consider `e` the smallest power of 2 which is bigger than the square root\\n            // of the target. (i.e. `2**(e-1) ≤ sqrt(a) < 2**e`). We know that `e ≤ 128` because `(2¹²⁸)² = 2²⁵⁶` is\\n            // bigger than any uint256.\\n            //\\n            // By noticing that\\n            // `2**(e-1) ≤ sqrt(a) < 2**e → (2**(e-1))² ≤ a < (2**e)² → 2**(2*e-2) ≤ a < 2**(2*e)`\\n            // we can deduce that `e - 1` is `log2(a) / 2`. We can thus compute `x_n = 2**(e-1)` using a method similar\\n            // to the msb function.\\n            uint256 aa = a;\\n            uint256 xn = 1;\\n\\n            if (aa >= (1 << 128)) {\\n                aa >>= 128;\\n                xn <<= 64;\\n            }\\n            if (aa >= (1 << 64)) {\\n                aa >>= 64;\\n                xn <<= 32;\\n            }\\n            if (aa >= (1 << 32)) {\\n                aa >>= 32;\\n                xn <<= 16;\\n            }\\n            if (aa >= (1 << 16)) {\\n                aa >>= 16;\\n                xn <<= 8;\\n            }\\n            if (aa >= (1 << 8)) {\\n                aa >>= 8;\\n                xn <<= 4;\\n            }\\n            if (aa >= (1 << 4)) {\\n                aa >>= 4;\\n                xn <<= 2;\\n            }\\n            if (aa >= (1 << 2)) {\\n                xn <<= 1;\\n            }\\n\\n            // We now have x_n such that `x_n = 2**(e-1) ≤ sqrt(a) < 2**e = 2 * x_n`. This implies ε_n ≤ 2**(e-1).\\n            //\\n            // We can refine our estimation by noticing that the middle of that interval minimizes the error.\\n            // If we move x_n to equal 2**(e-1) + 2**(e-2), then we reduce the error to ε_n ≤ 2**(e-2).\\n            // This is going to be our x_0 (and ε_0)\\n            xn = (3 * xn) >> 1; // ε_0 := | x_0 - sqrt(a) | ≤ 2**(e-2)\\n\\n            // From here, Newton's method give us:\\n            // x_{n+1} = (x_n + a / x_n) / 2\\n            //\\n            // One should note that:\\n            // x_{n+1}² - a = ((x_n + a / x_n) / 2)² - a\\n            //              = ((x_n² + a) / (2 * x_n))² - a\\n            //              = (x_n⁴ + 2 * a * x_n² + a²) / (4 * x_n²) - a\\n            //              = (x_n⁴ + 2 * a * x_n² + a² - 4 * a * x_n²) / (4 * x_n²)\\n            //              = (x_n⁴ - 2 * a * x_n² + a²) / (4 * x_n²)\\n            //              = (x_n² - a)² / (2 * x_n)²\\n            //              = ((x_n² - a) / (2 * x_n))²\\n            //              ≥ 0\\n            // Which proves that for all n ≥ 1, sqrt(a) ≤ x_n\\n            //\\n            // This gives us the proof of quadratic convergence of the sequence:\\n            // ε_{n+1} = | x_{n+1} - sqrt(a) |\\n            //         = | (x_n + a / x_n) / 2 - sqrt(a) |\\n            //         = | (x_n² + a - 2*x_n*sqrt(a)) / (2 * x_n) |\\n            //         = | (x_n - sqrt(a))² / (2 * x_n) |\\n            //         = | ε_n² / (2 * x_n) |\\n            //         = ε_n² / | (2 * x_n) |\\n            //\\n            // For the first iteration, we have a special case where x_0 is known:\\n            // ε_1 = ε_0² / | (2 * x_0) |\\n            //     ≤ (2**(e-2))² / (2 * (2**(e-1) + 2**(e-2)))\\n            //     ≤ 2**(2*e-4) / (3 * 2**(e-1))\\n            //     ≤ 2**(e-3) / 3\\n            //     ≤ 2**(e-3-log2(3))\\n            //     ≤ 2**(e-4.5)\\n            //\\n            // For the following iterations, we use the fact that, 2**(e-1) ≤ sqrt(a) ≤ x_n:\\n            // ε_{n+1} = ε_n² / | (2 * x_n) |\\n            //         ≤ (2**(e-k))² / (2 * 2**(e-1))\\n            //         ≤ 2**(2*e-2*k) / 2**e\\n            //         ≤ 2**(e-2*k)\\n            xn = (xn + a / xn) >> 1; // ε_1 := | x_1 - sqrt(a) | ≤ 2**(e-4.5)  -- special case, see above\\n            xn = (xn + a / xn) >> 1; // ε_2 := | x_2 - sqrt(a) | ≤ 2**(e-9)    -- general case with k = 4.5\\n            xn = (xn + a / xn) >> 1; // ε_3 := | x_3 - sqrt(a) | ≤ 2**(e-18)   -- general case with k = 9\\n            xn = (xn + a / xn) >> 1; // ε_4 := | x_4 - sqrt(a) | ≤ 2**(e-36)   -- general case with k = 18\\n            xn = (xn + a / xn) >> 1; // ε_5 := | x_5 - sqrt(a) | ≤ 2**(e-72)   -- general case with k = 36\\n            xn = (xn + a / xn) >> 1; // ε_6 := | x_6 - sqrt(a) | ≤ 2**(e-144)  -- general case with k = 72\\n\\n            // Because e ≤ 128 (as discussed during the first estimation phase), we know have reached a precision\\n            // ε_6 ≤ 2**(e-144) < 1. Given we're operating on integers, then we can ensure that xn is now either\\n            // sqrt(a) or sqrt(a) + 1.\\n            return xn - SafeCast.toUint(xn > a / xn);\\n        }\\n    }\\n\\n    /**\\n     * @dev Calculates sqrt(a), following the selected rounding direction.\\n     */\\n    function sqrt(uint256 a, Rounding rounding) internal pure returns (uint256) {\\n        unchecked {\\n            uint256 result = sqrt(a);\\n            return result + SafeCast.toUint(unsignedRoundsUp(rounding) && result * result < a);\\n        }\\n    }\\n\\n    /**\\n     * @dev Return the log in base 2 of a positive value rounded towards zero.\\n     * Returns 0 if given 0.\\n     */\\n    function log2(uint256 x) internal pure returns (uint256 r) {\\n        // If value has upper 128 bits set, log2 result is at least 128\\n        r = SafeCast.toUint(x > 0xffffffffffffffffffffffffffffffff) << 7;\\n        // If upper 64 bits of 128-bit half set, add 64 to result\\n        r |= SafeCast.toUint((x >> r) > 0xffffffffffffffff) << 6;\\n        // If upper 32 bits of 64-bit half set, add 32 to result\\n        r |= SafeCast.toUint((x >> r) > 0xffffffff) << 5;\\n        // If upper 16 bits of 32-bit half set, add 16 to result\\n        r |= SafeCast.toUint((x >> r) > 0xffff) << 4;\\n        // If upper 8 bits of 16-bit half set, add 8 to result\\n        r |= SafeCast.toUint((x >> r) > 0xff) << 3;\\n        // If upper 4 bits of 8-bit half set, add 4 to result\\n        r |= SafeCast.toUint((x >> r) > 0xf) << 2;\\n\\n        // Shifts value right by the current result and use it as an index into this lookup table:\\n        //\\n        // | x (4 bits) |  index  | table[index] = MSB position |\\n        // |------------|---------|-----------------------------|\\n        // |    0000    |    0    |        table[0] = 0         |\\n        // |    0001    |    1    |        table[1] = 0         |\\n        // |    0010    |    2    |        table[2] = 1         |\\n        // |    0011    |    3    |        table[3] = 1         |\\n        // |    0100    |    4    |        table[4] = 2         |\\n        // |    0101    |    5    |        table[5] = 2         |\\n        // |    0110    |    6    |        table[6] = 2         |\\n        // |    0111    |    7    |        table[7] = 2         |\\n        // |    1000    |    8    |        table[8] = 3         |\\n        // |    1001    |    9    |        table[9] = 3         |\\n        // |    1010    |   10    |        table[10] = 3        |\\n        // |    1011    |   11    |        table[11] = 3        |\\n        // |    1100    |   12    |        table[12] = 3        |\\n        // |    1101    |   13    |        table[13] = 3        |\\n        // |    1110    |   14    |        table[14] = 3        |\\n        // |    1111    |   15    |        table[15] = 3        |\\n        //\\n        // The lookup table is represented as a 32-byte value with the MSB positions for 0-15 in the last 16 bytes.\\n        assembly (\\\"memory-safe\\\") {\\n            r := or(r, byte(shr(r, x), 0x0000010102020202030303030303030300000000000000000000000000000000))\\n        }\\n    }\\n\\n    /**\\n     * @dev Return the log in base 2, following the selected rounding direction, of a positive value.\\n     * Returns 0 if given 0.\\n     */\\n    function log2(uint256 value, Rounding rounding) internal pure returns (uint256) {\\n        unchecked {\\n            uint256 result = log2(value);\\n            return result + SafeCast.toUint(unsignedRoundsUp(rounding) && 1 << result < value);\\n        }\\n    }\\n\\n    /**\\n     * @dev Return the log in base 10 of a positive value rounded towards zero.\\n     * Returns 0 if given 0.\\n     */\\n    function log10(uint256 value) internal pure returns (uint256) {\\n        uint256 result = 0;\\n        unchecked {\\n            if (value >= 10 ** 64) {\\n                value /= 10 ** 64;\\n                result += 64;\\n            }\\n            if (value >= 10 ** 32) {\\n                value /= 10 ** 32;\\n                result += 32;\\n            }\\n            if (value >= 10 ** 16) {\\n                value /= 10 ** 16;\\n                result += 16;\\n            }\\n            if (value >= 10 ** 8) {\\n                value /= 10 ** 8;\\n                result += 8;\\n            }\\n            if (value >= 10 ** 4) {\\n                value /= 10 ** 4;\\n                result += 4;\\n            }\\n            if (value >= 10 ** 2) {\\n                value /= 10 ** 2;\\n                result += 2;\\n            }\\n            if (value >= 10 ** 1) {\\n                result += 1;\\n            }\\n        }\\n        return result;\\n    }\\n\\n    /**\\n     * @dev Return the log in base 10, following the selected rounding direction, of a positive value.\\n     * Returns 0 if given 0.\\n     */\\n    function log10(uint256 value, Rounding rounding) internal pure returns (uint256) {\\n        unchecked {\\n            uint256 result = log10(value);\\n            return result + SafeCast.toUint(unsignedRoundsUp(rounding) && 10 ** result < value);\\n        }\\n    }\\n\\n    /**\\n     * @dev Return the log in base 256 of a positive value rounded towards zero.\\n     * Returns 0 if given 0.\\n     *\\n     * Adding one to the result gives the number of pairs of hex symbols needed to represent `value` as a hex string.\\n     */\\n    function log256(uint256 x) internal pure returns (uint256 r) {\\n        // If value has upper 128 bits set, log2 result is at least 128\\n        r = SafeCast.toUint(x > 0xffffffffffffffffffffffffffffffff) << 7;\\n        // If upper 64 bits of 128-bit half set, add 64 to result\\n        r |= SafeCast.toUint((x >> r) > 0xffffffffffffffff) << 6;\\n        // If upper 32 bits of 64-bit half set, add 32 to result\\n        r |= SafeCast.toUint((x >> r) > 0xffffffff) << 5;\\n        // If upper 16 bits of 32-bit half set, add 16 to result\\n        r |= SafeCast.toUint((x >> r) > 0xffff) << 4;\\n        // Add 1 if upper 8 bits of 16-bit half set, and divide accumulated result by 8\\n        return (r >> 3) | SafeCast.toUint((x >> r) > 0xff);\\n    }\\n\\n    /**\\n     * @dev Return the log in base 256, following the selected rounding direction, of a positive value.\\n     * Returns 0 if given 0.\\n     */\\n    function log256(uint256 value, Rounding rounding) internal pure returns (uint256) {\\n        unchecked {\\n            uint256 result = log256(value);\\n            return result + SafeCast.toUint(unsignedRoundsUp(rounding) && 1 << (result << 3) < value);\\n        }\\n    }\\n\\n    /**\\n     * @dev Returns whether a provided rounding mode is considered rounding up for unsigned integers.\\n     */\\n    function unsignedRoundsUp(Rounding rounding) internal pure returns (bool) {\\n        return uint8(rounding) % 2 == 1;\\n    }\\n}\\n\"},\"@openzeppelin/contracts/utils/StorageSlot.sol\":{\"content\":\"// SPDX-License-Identifier: MIT\\n// OpenZeppelin Contracts (last updated v5.1.0) (utils/StorageSlot.sol)\\n// This file was procedurally generated from scripts/generate/templates/StorageSlot.js.\\n\\npragma solidity ^0.8.20;\\n\\n/**\\n * @dev Library for reading and writing primitive types to specific storage slots.\\n *\\n * Storage slots are often used to avoid storage conflict when dealing with upgradeable contracts.\\n * This library helps with reading and writing to such slots without the need for inline assembly.\\n *\\n * The functions in this library return Slot structs that contain a `value` member that can be used to read or write.\\n *\\n * Example usage to set ERC-1967 implementation slot:\\n * ```solidity\\n * contract ERC1967 {\\n *     // Define the slot. Alternatively, use the SlotDerivation library to derive the slot.\\n *     bytes32 internal constant _IMPLEMENTATION_SLOT = 0x360894a13ba1a3210667c828492db98dca3e2076cc3735a920a3ca505d382bbc;\\n *\\n *     function _getImplementation() internal view returns (address) {\\n *         return StorageSlot.getAddressSlot(_IMPLEMENTATION_SLOT).value;\\n *     }\\n *\\n *     function _setImplementation(address newImplementation) internal {\\n *         require(newImplementation.code.length > 0);\\n *         StorageSlot.getAddressSlot(_IMPLEMENTATION_SLOT).value = newImplementation;\\n *     }\\n * }\\n * ```\\n *\\n * TIP: Consider using this library along with {SlotDerivation}.\\n */\\nlibrary StorageSlot {\\n    struct AddressSlot {\\n        address value;\\n    }\\n\\n    struct BooleanSlot {\\n        bool value;\\n    }\\n\\n    struct Bytes32Slot {\\n        bytes32 value;\\n    }\\n\\n    struct Uint256Slot {\\n        uint256 value;\\n    }\\n\\n    struct Int256Slot {\\n        int256 value;\\n    }\\n\\n    struct StringSlot {\\n        string value;\\n    }\\n\\n    struct BytesSlot {\\n        bytes value;\\n    }\\n\\n    /**\\n     * @dev Returns an `AddressSlot` with member `value` located at `slot`.\\n     */\\n    function getAddressSlot(bytes32 slot) internal pure returns (AddressSlot storage r) {\\n        assembly (\\\"memory-safe\\\") {\\n            r.slot := slot\\n        }\\n    }\\n\\n    /**\\n     * @dev Returns a `BooleanSlot` with member `value` located at `slot`.\\n     */\\n    function getBooleanSlot(bytes32 slot) internal pure returns (BooleanSlot storage r) {\\n        assembly (\\\"memory-safe\\\") {\\n            r.slot := slot\\n        }\\n    }\\n\\n    /**\\n     * @dev Returns a `Bytes32Slot` with member `value` located at `slot`.\\n     */\\n    function getBytes32Slot(bytes32 slot) internal pure returns (Bytes32Slot storage r) {\\n        assembly (\\\"memory-safe\\\") {\\n            r.slot := slot\\n        }\\n    }\\n\\n    /**\\n     * @dev Returns a `Uint256Slot` with member `value` located at `slot`.\\n     */\\n    function getUint256Slot(bytes32 slot) internal pure returns (Uint256Slot storage r) {\\n        assembly (\\\"memory-safe\\\") {\\n            r.slot := slot\\n        }\\n    }\\n\\n    /**\\n     * @dev Returns a `Int256Slot` with member `value` located at `slot`.\\n     */\\n    function getInt256Slot(bytes32 slot) internal pure returns (Int256Slot storage r) {\\n        assembly (\\\"memory-safe\\\") {\\n            r.slot := slot\\n        }\\n    }\\n\\n    /**\\n     * @dev Returns a `StringSlot` with member `value` located at `slot`.\\n     */\\n    function getStringSlot(bytes32 slot) internal pure returns (StringSlot storage r) {\\n        assembly (\\\"memory-safe\\\") {\\n            r.slot := slot\\n        }\\n    }\\n\\n    /**\\n     * @dev Returns an `StringSlot` representation of the string storage pointer `store`.\\n     */\\n    function getStringSlot(string storage store) internal pure returns (StringSlot storage r) {\\n        assembly (\\\"memory-safe\\\") {\\n            r.slot := store.slot\\n        }\\n    }\\n\\n    /**\\n     * @dev Returns a `BytesSlot` with member `value` located at `slot`.\\n     */\\n    function getBytesSlot(bytes32 slot) internal pure returns (BytesSlot storage r) {\\n        assembly (\\\"memory-safe\\\") {\\n            r.slot := slot\\n        }\\n    }\\n\\n    /**\\n     * @dev Returns an `BytesSlot` representation of the bytes storage pointer `store`.\\n     */\\n    function getBytesSlot(bytes storage store) internal pure returns (BytesSlot storage r) {\\n        assembly (\\\"memory-safe\\\") {\\n            r.slot := store.slot\\n        }\\n    }\\n}\\n\"},\"@openzeppelin/contracts/utils/SlotDerivation.sol\":{\"content\":\"// SPDX-License-Identifier: MIT\\n// OpenZeppelin Contracts (last updated v5.3.0) (utils/SlotDerivation.sol)\\n// This file was procedurally generated from scripts/generate/templates/SlotDerivation.js.\\n\\npragma solidity ^0.8.20;\\n\\n/**\\n * @dev Library for computing storage (and transient storage) locations from namespaces and deriving slots\\n * corresponding to standard patterns. The derivation method for array and mapping matches the storage layout used by\\n * the solidity language / compiler.\\n *\\n * See https://docs.soliditylang.org/en/v0.8.20/internals/layout_in_storage.html#mappings-and-dynamic-arrays[Solidity docs for mappings and dynamic arrays.].\\n *\\n * Example usage:\\n * ```solidity\\n * contract Example {\\n *     // Add the library methods\\n *     using StorageSlot for bytes32;\\n *     using SlotDerivation for bytes32;\\n *\\n *     // Declare a namespace\\n *     string private constant _NAMESPACE = \\\"<namespace>\\\"; // eg. OpenZeppelin.Slot\\n *\\n *     function setValueInNamespace(uint256 key, address newValue) internal {\\n *         _NAMESPACE.erc7201Slot().deriveMapping(key).getAddressSlot().value = newValue;\\n *     }\\n *\\n *     function getValueInNamespace(uint256 key) internal view returns (address) {\\n *         return _NAMESPACE.erc7201Slot().deriveMapping(key).getAddressSlot().value;\\n *     }\\n * }\\n * ```\\n *\\n * TIP: Consider using this library along with {StorageSlot}.\\n *\\n * NOTE: This library provides a way to manipulate storage locations in a non-standard way. Tooling for checking\\n * upgrade safety will ignore the slots accessed through this library.\\n *\\n * _Available since v5.1._\\n */\\nlibrary SlotDerivation {\\n    /**\\n     * @dev Derive an ERC-7201 slot from a string (namespace).\\n     */\\n    function erc7201Slot(string memory namespace) internal pure returns (bytes32 slot) {\\n        assembly (\\\"memory-safe\\\") {\\n            mstore(0x00, sub(keccak256(add(namespace, 0x20), mload(namespace)), 1))\\n            slot := and(keccak256(0x00, 0x20), not(0xff))\\n        }\\n    }\\n\\n    /**\\n     * @dev Add an offset to a slot to get the n-th element of a structure or an array.\\n     */\\n    function offset(bytes32 slot, uint256 pos) internal pure returns (bytes32 result) {\\n        unchecked {\\n            return bytes32(uint256(slot) + pos);\\n        }\\n    }\\n\\n    /**\\n     * @dev Derive the location of the first element in an array from the slot where the length is stored.\\n     */\\n    function deriveArray(bytes32 slot) internal pure returns (bytes32 result) {\\n        assembly (\\\"memory-safe\\\") {\\n            mstore(0x00, slot)\\n            result := keccak256(0x00, 0x20)\\n        }\\n    }\\n\\n    /**\\n     * @dev Derive the location of a mapping element from the key.\\n     */\\n    function deriveMapping(bytes32 slot, address key) internal pure returns (bytes32 result) {\\n        assembly (\\\"memory-safe\\\") {\\n            mstore(0x00, and(key, shr(96, not(0))))\\n            mstore(0x20, slot)\\n            result := keccak256(0x00, 0x40)\\n        }\\n    }\\n\\n    /**\\n     * @dev Derive the location of a mapping element from the key.\\n     */\\n    function deriveMapping(bytes32 slot, bool key) internal pure returns (bytes32 result) {\\n        assembly (\\\"memory-safe\\\") {\\n            mstore(0x00, iszero(iszero(key)))\\n            mstore(0x20, slot)\\n            result := keccak256(0x00, 0x40)\\n        }\\n    }\\n\\n    /**\\n     * @dev Derive the location of a mapping element from the key.\\n     */\\n    function deriveMapping(bytes32 slot, bytes32 key) internal pure returns (bytes32 result) {\\n        assembly (\\\"memory-safe\\\") {\\n            mstore(0x00, key)\\n            mstore(0x20, slot)\\n            result := keccak256(0x00, 0x40)\\n        }\\n    }\\n\\n    /**\\n     * @dev Derive the location of a mapping element from the key.\\n     */\\n    function deriveMapping(bytes32 slot, uint256 key) internal pure returns (bytes32 result) {\\n        assembly (\\\"memory-safe\\\") {\\n            mstore(0x00, key)\\n            mstore(0x20, slot)\\n            result := keccak256(0x00, 0x40)\\n        }\\n    }\\n\\n    /**\\n     * @dev Derive the location of a mapping element from the key.\\n     */\\n    function deriveMapping(bytes32 slot, int256 key) internal pure returns (bytes32 result) {\\n        assembly (\\\"memory-safe\\\") {\\n            mstore(0x00, key)\\n            mstore(0x20, slot)\\n            result := keccak256(0x00, 0x40)\\n        }\\n    }\\n\\n    /**\\n     * @dev Derive the location of a mapping element from the key.\\n     */\\n    function deriveMapping(bytes32 slot, string memory key) internal pure returns (bytes32 result) {\\n        assembly (\\\"memory-safe\\\") {\\n            let length := mload(key)\\n            let begin := add(key, 0x20)\\n            let end := add(begin, length)\\n            let cache := mload(end)\\n            mstore(end, slot)\\n            result := keccak256(begin, add(length, 0x20))\\n            mstore(end, cache)\\n        }\\n    }\\n\\n    /**\\n     * @dev Derive the location of a mapping element from the key.\\n     */\\n    function deriveMapping(bytes32 slot, bytes memory key) internal pure returns (bytes32 result) {\\n        assembly (\\\"memory-safe\\\") {\\n            let length := mload(key)\\n            let begin := add(key, 0x20)\\n            let end := add(begin, length)\\n            let cache := mload(end)\\n            mstore(end, slot)\\n            result := keccak256(begin, add(length, 0x20))\\n            mstore(end, cache)\\n        }\\n    }\\n}\\n\"},\"@openzeppelin/contracts/utils/Comparators.sol\":{\"content\":\"// SPDX-License-Identifier: MIT\\n// OpenZeppelin Contracts (last updated v5.1.0) (utils/Comparators.sol)\\n\\npragma solidity ^0.8.20;\\n\\n/**\\n * @dev Provides a set of functions to compare values.\\n *\\n * _Available since v5.1._\\n */\\nlibrary Comparators {\\n    function lt(uint256 a, uint256 b) internal pure returns (bool) {\\n        return a < b;\\n    }\\n\\n    function gt(uint256 a, uint256 b) internal pure returns (bool) {\\n        return a > b;\\n    }\\n}\\n\"},\"@openzeppelin/contracts/token/ERC1155/IERC1155Receiver.sol\":{\"content\":\"// SPDX-License-Identifier: MIT\\n// OpenZeppelin Contracts (last updated v5.1.0) (token/ERC1155/IERC1155Receiver.sol)\\n\\npragma solidity ^0.8.20;\\n\\nimport {IERC165} from \\\"../../utils/introspection/IERC165.sol\\\";\\n\\n/**\\n * @dev Interface that must be implemented by smart contracts in order to receive\\n * ERC-1155 token transfers.\\n */\\ninterface IERC1155Receiver is IERC165 {\\n    /**\\n     * @dev Handles the receipt of a single ERC-1155 token type. This function is\\n     * called at the end of a `safeTransferFrom` after the balance has been updated.\\n     *\\n     * NOTE: To accept the transfer, this must return\\n     * `bytes4(keccak256(\\\"onERC1155Received(address,address,uint256,uint256,bytes)\\\"))`\\n     * (i.e. 0xf23a6e61, or its own function selector).\\n     *\\n     * @param operator The address which initiated the transfer (i.e. msg.sender)\\n     * @param from The address which previously owned the token\\n     * @param id The ID of the token being transferred\\n     * @param value The amount of tokens being transferred\\n     * @param data Additional data with no specified format\\n     * @return `bytes4(keccak256(\\\"onERC1155Received(address,address,uint256,uint256,bytes)\\\"))` if transfer is allowed\\n     */\\n    function onERC1155Received(\\n        address operator,\\n        address from,\\n        uint256 id,\\n        uint256 value,\\n        bytes calldata data\\n    ) external returns (bytes4);\\n\\n    /**\\n     * @dev Handles the receipt of a multiple ERC-1155 token types. This function\\n     * is called at the end of a `safeBatchTransferFrom` after the balances have\\n     * been updated.\\n     *\\n     * NOTE: To accept the transfer(s), this must return\\n     * `bytes4(keccak256(\\\"onERC1155BatchReceived(address,address,uint256[],uint256[],bytes)\\\"))`\\n     * (i.e. 0xbc197c81, or its own function selector).\\n     *\\n     * @param operator The address which initiated the batch transfer (i.e. msg.sender)\\n     * @param from The address which previously owned the token\\n     * @param ids An array containing ids of each token being transferred (order and length must match values array)\\n     * @param values An array containing amounts of each token being transferred (order and length must match ids array)\\n     * @param data Additional data with no specified format\\n     * @return `bytes4(keccak256(\\\"onERC1155BatchReceived(address,address,uint256[],uint256[],bytes)\\\"))` if transfer is allowed\\n     */\\n    function onERC1155BatchReceived(\\n        address operator,\\n        address from,\\n        uint256[] calldata ids,\\n        uint256[] calldata values,\\n        bytes calldata data\\n    ) external returns (bytes4);\\n}\\n\"},\"@openzeppelin/contracts-upgradeable/proxy/utils/Initializable.sol\":{\"content\":\"// SPDX-License-Identifier: MIT\\n// OpenZeppelin Contracts (last updated v5.3.0) (proxy/utils/Initializable.sol)\\n\\npragma solidity ^0.8.20;\\n\\n/**\\n * @dev This is a base contract to aid in writing upgradeable contracts, or any kind of contract that will be deployed\\n * behind a proxy. Since proxied contracts do not make use of a constructor, it's common to move constructor logic to an\\n * external initializer function, usually called `initialize`. It then becomes necessary to protect this initializer\\n * function so it can only be called once. The {initializer} modifier provided by this contract will have this effect.\\n *\\n * The initialization functions use a version number. Once a version number is used, it is consumed and cannot be\\n * reused. This mechanism prevents re-execution of each \\\"step\\\" but allows the creation of new initialization steps in\\n * case an upgrade adds a module that needs to be initialized.\\n *\\n * For example:\\n *\\n * [.hljs-theme-light.nopadding]\\n * ```solidity\\n * contract MyToken is ERC20Upgradeable {\\n *     function initialize() initializer public {\\n *         __ERC20_init(\\\"MyToken\\\", \\\"MTK\\\");\\n *     }\\n * }\\n *\\n * contract MyTokenV2 is MyToken, ERC20PermitUpgradeable {\\n *     function initializeV2() reinitializer(2) public {\\n *         __ERC20Permit_init(\\\"MyToken\\\");\\n *     }\\n * }\\n * ```\\n *\\n * TIP: To avoid leaving the proxy in an uninitialized state, the initializer function should be called as early as\\n * possible by providing the encoded function call as the `_data` argument to {ERC1967Proxy-constructor}.\\n *\\n * CAUTION: When used with inheritance, manual care must be taken to not invoke a parent initializer twice, or to ensure\\n * that all initializers are idempotent. This is not verified automatically as constructors are by Solidity.\\n *\\n * [CAUTION]\\n * ====\\n * Avoid leaving a contract uninitialized.\\n *\\n * An uninitialized contract can be taken over by an attacker. This applies to both a proxy and its implementation\\n * contract, which may impact the proxy. To prevent the implementation contract from being used, you should invoke\\n * the {_disableInitializers} function in the constructor to automatically lock it when it is deployed:\\n *\\n * [.hljs-theme-light.nopadding]\\n * ```\\n * /// @custom:oz-upgrades-unsafe-allow constructor\\n * constructor() {\\n *     _disableInitializers();\\n * }\\n * ```\\n * ====\\n */\\nabstract contract Initializable {\\n    /**\\n     * @dev Storage of the initializable contract.\\n     *\\n     * It's implemented on a custom ERC-7201 namespace to reduce the risk of storage collisions\\n     * when using with upgradeable contracts.\\n     *\\n     * @custom:storage-location erc7201:openzeppelin.storage.Initializable\\n     */\\n    struct InitializableStorage {\\n        /**\\n         * @dev Indicates that the contract has been initialized.\\n         */\\n        uint64 _initialized;\\n        /**\\n         * @dev Indicates that the contract is in the process of being initialized.\\n         */\\n        bool _initializing;\\n    }\\n\\n    // keccak256(abi.encode(uint256(keccak256(\\\"openzeppelin.storage.Initializable\\\")) - 1)) & ~bytes32(uint256(0xff))\\n    bytes32 private constant INITIALIZABLE_STORAGE = 0xf0c57e16840df040f15088dc2f81fe391c3923bec73e23a9662efc9c229c6a00;\\n\\n    /**\\n     * @dev The contract is already initialized.\\n     */\\n    error InvalidInitialization();\\n\\n    /**\\n     * @dev The contract is not initializing.\\n     */\\n    error NotInitializing();\\n\\n    /**\\n     * @dev Triggered when the contract has been initialized or reinitialized.\\n     */\\n    event Initialized(uint64 version);\\n\\n    /**\\n     * @dev A modifier that defines a protected initializer function that can be invoked at most once. In its scope,\\n     * `onlyInitializing` functions can be used to initialize parent contracts.\\n     *\\n     * Similar to `reinitializer(1)`, except that in the context of a constructor an `initializer` may be invoked any\\n     * number of times. This behavior in the constructor can be useful during testing and is not expected to be used in\\n     * production.\\n     *\\n     * Emits an {Initialized} event.\\n     */\\n    modifier initializer() {\\n        // solhint-disable-next-line var-name-mixedcase\\n        InitializableStorage storage $ = _getInitializableStorage();\\n\\n        // Cache values to avoid duplicated sloads\\n        bool isTopLevelCall = !$._initializing;\\n        uint64 initialized = $._initialized;\\n\\n        // Allowed calls:\\n        // - initialSetup: the contract is not in the initializing state and no previous version was\\n        //                 initialized\\n        // - construction: the contract is initialized at version 1 (no reinitialization) and the\\n        //                 current contract is just being deployed\\n        bool initialSetup = initialized == 0 && isTopLevelCall;\\n        bool construction = initialized == 1 && address(this).code.length == 0;\\n\\n        if (!initialSetup && !construction) {\\n            revert InvalidInitialization();\\n        }\\n        $._initialized = 1;\\n        if (isTopLevelCall) {\\n            $._initializing = true;\\n        }\\n        _;\\n        if (isTopLevelCall) {\\n            $._initializing = false;\\n            emit Initialized(1);\\n        }\\n    }\\n\\n    /**\\n     * @dev A modifier that defines a protected reinitializer function that can be invoked at most once, and only if the\\n     * contract hasn't been initialized to a greater version before. In its scope, `onlyInitializing` functions can be\\n     * used to initialize parent contracts.\\n     *\\n     * A reinitializer may be used after the original initialization step. This is essential to configure modules that\\n     * are added through upgrades and that require initialization.\\n     *\\n     * When `version` is 1, this modifier is similar to `initializer`, except that functions marked with `reinitializer`\\n     * cannot be nested. If one is invoked in the context of another, execution will revert.\\n     *\\n     * Note that versions can jump in increments greater than 1; this implies that if multiple reinitializers coexist in\\n     * a contract, executing them in the right order is up to the developer or operator.\\n     *\\n     * WARNING: Setting the version to 2**64 - 1 will prevent any future reinitialization.\\n     *\\n     * Emits an {Initialized} event.\\n     */\\n    modifier reinitializer(uint64 version) {\\n        // solhint-disable-next-line var-name-mixedcase\\n        InitializableStorage storage $ = _getInitializableStorage();\\n\\n        if ($._initializing || $._initialized >= version) {\\n            revert InvalidInitialization();\\n        }\\n        $._initialized = version;\\n        $._initializing = true;\\n        _;\\n        $._initializing = false;\\n        emit Initialized(version);\\n    }\\n\\n    /**\\n     * @dev Modifier to protect an initialization function so that it can only be invoked by functions with the\\n     * {initializer} and {reinitializer} modifiers, directly or indirectly.\\n     */\\n    modifier onlyInitializing() {\\n        _checkInitializing();\\n        _;\\n    }\\n\\n    /**\\n     * @dev Reverts if the contract is not in an initializing state. See {onlyInitializing}.\\n     */\\n    function _checkInitializing() internal view virtual {\\n        if (!_isInitializing()) {\\n            revert NotInitializing();\\n        }\\n    }\\n\\n    /**\\n     * @dev Locks the contract, preventing any future reinitialization. This cannot be part of an initializer call.\\n     * Calling this in the constructor of a contract will prevent that contract from being initialized or reinitialized\\n     * to any version. It is recommended to use this to lock implementation contracts that are designed to be called\\n     * through proxies.\\n     *\\n     * Emits an {Initialized} event the first time it is successfully executed.\\n     */\\n    function _disableInitializers() internal virtual {\\n        // solhint-disable-next-line var-name-mixedcase\\n        InitializableStorage storage $ = _getInitializableStorage();\\n\\n        if ($._initializing) {\\n            revert InvalidInitialization();\\n        }\\n        if ($._initialized != type(uint64).max) {\\n            $._initialized = type(uint64).max;\\n            emit Initialized(type(uint64).max);\\n        }\\n    }\\n\\n    /**\\n     * @dev Returns the highest version that has been initialized. See {reinitializer}.\\n     */\\n    function _getInitializedVersion() internal view returns (uint64) {\\n        return _getInitializableStorage()._initialized;\\n    }\\n\\n    /**\\n     * @dev Returns `true` if the contract is currently initializing. See {onlyInitializing}.\\n     */\\n    function _isInitializing() internal view returns (bool) {\\n        return _getInitializableStorage()._initializing;\\n    }\\n\\n    /**\\n     * @dev Pointer to storage slot. Allows integrators to override it with a custom storage location.\\n     *\\n     * NOTE: Consider following the ERC-7201 formula to derive storage locations.\\n     */\\n    function _initializableStorageSlot() internal pure virtual returns (bytes32) {\\n        return INITIALIZABLE_STORAGE;\\n    }\\n\\n    /**\\n     * @dev Returns a pointer to the storage namespace.\\n     */\\n    // solhint-disable-next-line var-name-mixedcase\\n    function _getInitializableStorage() private pure returns (InitializableStorage storage $) {\\n        bytes32 slot = _initializableStorageSlot();\\n        assembly {\\n            $.slot := slot\\n        }\\n    }\\n}\\n\"},\"@openzeppelin/contracts-upgradeable/access/OwnableUpgradeable.sol\":{\"content\":\"// SPDX-License-Identifier: MIT\\n// OpenZeppelin Contracts (last updated v5.0.0) (access/Ownable.sol)\\n\\npragma solidity ^0.8.20;\\n\\nimport {ContextUpgradeable} from \\\"../utils/ContextUpgradeable.sol\\\";\\nimport {Initializable} from \\\"../proxy/utils/Initializable.sol\\\";\\n\\n/**\\n * @dev Contract module which provides a basic access control mechanism, where\\n * there is an account (an owner) that can be granted exclusive access to\\n * specific functions.\\n *\\n * The initial owner is set to the address provided by the deployer. This can\\n * later be changed with {transferOwnership}.\\n *\\n * This module is used through inheritance. It will make available the modifier\\n * `onlyOwner`, which can be applied to your functions to restrict their use to\\n * the owner.\\n */\\nabstract contract OwnableUpgradeable is Initializable, ContextUpgradeable {\\n    /// @custom:storage-location erc7201:openzeppelin.storage.Ownable\\n    struct OwnableStorage {\\n        address _owner;\\n    }\\n\\n    // keccak256(abi.encode(uint256(keccak256(\\\"openzeppelin.storage.Ownable\\\")) - 1)) & ~bytes32(uint256(0xff))\\n    bytes32 private constant OwnableStorageLocation = 0x9016d09d72d40fdae2fd8ceac6b6234c7706214fd39c1cd1e609a0528c199300;\\n\\n    function _getOwnableStorage() private pure returns (OwnableStorage storage $) {\\n        assembly {\\n            $.slot := OwnableStorageLocation\\n        }\\n    }\\n\\n    /**\\n     * @dev The caller account is not authorized to perform an operation.\\n     */\\n    error OwnableUnauthorizedAccount(address account);\\n\\n    /**\\n     * @dev The owner is not a valid owner account. (eg. `address(0)`)\\n     */\\n    error OwnableInvalidOwner(address owner);\\n\\n    event OwnershipTransferred(address indexed previousOwner, address indexed newOwner);\\n\\n    /**\\n     * @dev Initializes the contract setting the address provided by the deployer as the initial owner.\\n     */\\n    function __Ownable_init(address initialOwner) internal onlyInitializing {\\n        __Ownable_init_unchained(initialOwner);\\n    }\\n\\n    function __Ownable_init_unchained(address initialOwner) internal onlyInitializing {\\n        if (initialOwner == address(0)) {\\n            revert OwnableInvalidOwner(address(0));\\n        }\\n        _transferOwnership(initialOwner);\\n    }\\n\\n    /**\\n     * @dev Throws if called by any account other than the owner.\\n     */\\n    modifier onlyOwner() {\\n        _checkOwner();\\n        _;\\n    }\\n\\n    /**\\n     * @dev Returns the address of the current owner.\\n     */\\n    function owner() public view virtual returns (address) {\\n        OwnableStorage storage $ = _getOwnableStorage();\\n        return $._owner;\\n    }\\n\\n    /**\\n     * @dev Throws if the sender is not the owner.\\n     */\\n    function _checkOwner() internal view virtual {\\n        if (owner() != _msgSender()) {\\n            revert OwnableUnauthorizedAccount(_msgSender());\\n        }\\n    }\\n\\n    /**\\n     * @dev Leaves the contract without owner. It will not be possible to call\\n     * `onlyOwner` functions. Can only be called by the current owner.\\n     *\\n     * NOTE: Renouncing ownership will leave the contract without an owner,\\n     * thereby disabling any functionality that is only available to the owner.\\n     */\\n    function renounceOwnership() public virtual onlyOwner {\\n        _transferOwnership(address(0));\\n    }\\n\\n    /**\\n     * @dev Transfers ownership of the contract to a new account (`newOwner`).\\n     * Can only be called by the current owner.\\n     */\\n    function transferOwnership(address newOwner) public virtual onlyOwner {\\n        if (newOwner == address(0)) {\\n            revert OwnableInvalidOwner(address(0));\\n        }\\n        _transferOwnership(newOwner);\\n    }\\n\\n    /**\\n     * @dev Transfers ownership of the contract to a new account (`newOwner`).\\n     * Internal function without access restriction.\\n     */\\n    function _transferOwnership(address newOwner) internal virtual {\\n        OwnableStorage storage $ = _getOwnableStorage();\\n        address oldOwner = $._owner;\\n        $._owner = newOwner;\\n        emit OwnershipTransferred(oldOwner, newOwner);\\n    }\\n}\\n\"},\"@openzeppelin/contracts-upgradeable/utils/ContextUpgradeable.sol\":{\"content\":\"// SPDX-License-Identifier: MIT\\n// OpenZeppelin Contracts (last updated v5.0.1) (utils/Context.sol)\\n\\npragma solidity ^0.8.20;\\nimport {Initializable} from \\\"../proxy/utils/Initializable.sol\\\";\\n\\n/**\\n * @dev Provides information about the current execution context, including the\\n * sender of the transaction and its data. While these are generally available\\n * via msg.sender and msg.data, they should not be accessed in such a direct\\n * manner, since when dealing with meta-transactions the account sending and\\n * paying for execution may not be the actual sender (as far as an application\\n * is concerned).\\n *\\n * This contract is only required for intermediate, library-like contracts.\\n */\\nabstract contract ContextUpgradeable is Initializable {\\n    function __Context_init() internal onlyInitializing {\\n    }\\n\\n    function __Context_init_unchained() internal onlyInitializing {\\n    }\\n    function _msgSender() internal view virtual returns (address) {\\n        return msg.sender;\\n    }\\n\\n    function _msgData() internal view virtual returns (bytes calldata) {\\n        return msg.data;\\n    }\\n\\n    function _contextSuffixLength() internal view virtual returns (uint256) {\\n        return 0;\\n    }\\n}\\n\"},\"@openzeppelin/contracts/utils/math/SafeCast.sol\":{\"content\":\"// SPDX-License-Identifier: MIT\\n// OpenZeppelin Contracts (last updated v5.1.0) (utils/math/SafeCast.sol)\\n// This file was procedurally generated from scripts/generate/templates/SafeCast.js.\\n\\npragma solidity ^0.8.20;\\n\\n/**\\n * @dev Wrappers over Solidity's uintXX/intXX/bool casting operators with added overflow\\n * checks.\\n *\\n * Downcasting from uint256/int256 in Solidity does not revert on overflow. This can\\n * easily result in undesired exploitation or bugs, since developers usually\\n * assume that overflows raise errors. `SafeCast` restores this intuition by\\n * reverting the transaction when such an operation overflows.\\n *\\n * Using this library instead of the unchecked operations eliminates an entire\\n * class of bugs, so it's recommended to use it always.\\n */\\nlibrary SafeCast {\\n    /**\\n     * @dev Value doesn't fit in an uint of `bits` size.\\n     */\\n    error SafeCastOverflowedUintDowncast(uint8 bits, uint256 value);\\n\\n    /**\\n     * @dev An int value doesn't fit in an uint of `bits` size.\\n     */\\n    error SafeCastOverflowedIntToUint(int256 value);\\n\\n    /**\\n     * @dev Value doesn't fit in an int of `bits` size.\\n     */\\n    error SafeCastOverflowedIntDowncast(uint8 bits, int256 value);\\n\\n    /**\\n     * @dev An uint value doesn't fit in an int of `bits` size.\\n     */\\n    error SafeCastOverflowedUintToInt(uint256 value);\\n\\n    /**\\n     * @dev Returns the downcasted uint248 from uint256, reverting on\\n     * overflow (when the input is greater than largest uint248).\\n     *\\n     * Counterpart to Solidity's `uint248` operator.\\n     *\\n     * Requirements:\\n     *\\n     * - input must fit into 248 bits\\n     */\\n    function toUint248(uint256 value) internal pure returns (uint248) {\\n        if (value > type(uint248).max) {\\n            revert SafeCastOverflowedUintDowncast(248, value);\\n        }\\n        return uint248(value);\\n    }\\n\\n    /**\\n     * @dev Returns the downcasted uint240 from uint256, reverting on\\n     * overflow (when the input is greater than largest uint240).\\n     *\\n     * Counterpart to Solidity's `uint240` operator.\\n     *\\n     * Requirements:\\n     *\\n     * - input must fit into 240 bits\\n     */\\n    function toUint240(uint256 value) internal pure returns (uint240) {\\n        if (value > type(uint240).max) {\\n            revert SafeCastOverflowedUintDowncast(240, value);\\n        }\\n        return uint240(value);\\n    }\\n\\n    /**\\n     * @dev Returns the downcasted uint232 from uint256, reverting on\\n     * overflow (when the input is greater than largest uint232).\\n     *\\n     * Counterpart to Solidity's `uint232` operator.\\n     *\\n     * Requirements:\\n     *\\n     * - input must fit into 232 bits\\n     */\\n    function toUint232(uint256 value) internal pure returns (uint232) {\\n        if (value > type(uint232).max) {\\n            revert SafeCastOverflowedUintDowncast(232, value);\\n        }\\n        return uint232(value);\\n    }\\n\\n    /**\\n     * @dev Returns the downcasted uint224 from uint256, reverting on\\n     * overflow (when the input is greater than largest uint224).\\n     *\\n     * Counterpart to Solidity's `uint224` operator.\\n     *\\n     * Requirements:\\n     *\\n     * - input must fit into 224 bits\\n     */\\n    function toUint224(uint256 value) internal pure returns (uint224) {\\n        if (value > type(uint224).max) {\\n            revert SafeCastOverflowedUintDowncast(224, value);\\n        }\\n        return uint224(value);\\n    }\\n\\n    /**\\n     * @dev Returns the downcasted uint216 from uint256, reverting on\\n     * overflow (when the input is greater than largest uint216).\\n     *\\n     * Counterpart to Solidity's `uint216` operator.\\n     *\\n     * Requirements:\\n     *\\n     * - input must fit into 216 bits\\n     */\\n    function toUint216(uint256 value) internal pure returns (uint216) {\\n        if (value > type(uint216).max) {\\n            revert SafeCastOverflowedUintDowncast(216, value);\\n        }\\n        return uint216(value);\\n    }\\n\\n    /**\\n     * @dev Returns the downcasted uint208 from uint256, reverting on\\n     * overflow (when the input is greater than largest uint208).\\n     *\\n     * Counterpart to Solidity's `uint208` operator.\\n     *\\n     * Requirements:\\n     *\\n     * - input must fit into 208 bits\\n     */\\n    function toUint208(uint256 value) internal pure returns (uint208) {\\n        if (value > type(uint208).max) {\\n            revert SafeCastOverflowedUintDowncast(208, value);\\n        }\\n        return uint208(value);\\n    }\\n\\n    /**\\n     * @dev Returns the downcasted uint200 from uint256, reverting on\\n     * overflow (when the input is greater than largest uint200).\\n     *\\n     * Counterpart to Solidity's `uint200` operator.\\n     *\\n     * Requirements:\\n     *\\n     * - input must fit into 200 bits\\n     */\\n    function toUint200(uint256 value) internal pure returns (uint200) {\\n        if (value > type(uint200).max) {\\n            revert SafeCastOverflowedUintDowncast(200, value);\\n        }\\n        return uint200(value);\\n    }\\n\\n    /**\\n     * @dev Returns the downcasted uint192 from uint256, reverting on\\n     * overflow (when the input is greater than largest uint192).\\n     *\\n     * Counterpart to Solidity's `uint192` operator.\\n     *\\n     * Requirements:\\n     *\\n     * - input must fit into 192 bits\\n     */\\n    function toUint192(uint256 value) internal pure returns (uint192) {\\n        if (value > type(uint192).max) {\\n            revert SafeCastOverflowedUintDowncast(192, value);\\n        }\\n        return uint192(value);\\n    }\\n\\n    /**\\n     * @dev Returns the downcasted uint184 from uint256, reverting on\\n     * overflow (when the input is greater than largest uint184).\\n     *\\n     * Counterpart to Solidity's `uint184` operator.\\n     *\\n     * Requirements:\\n     *\\n     * - input must fit into 184 bits\\n     */\\n    function toUint184(uint256 value) internal pure returns (uint184) {\\n        if (value > type(uint184).max) {\\n            revert SafeCastOverflowedUintDowncast(184, value);\\n        }\\n        return uint184(value);\\n    }\\n\\n    /**\\n     * @dev Returns the downcasted uint176 from uint256, reverting on\\n     * overflow (when the input is greater than largest uint176).\\n     *\\n     * Counterpart to Solidity's `uint176` operator.\\n     *\\n     * Requirements:\\n     *\\n     * - input must fit into 176 bits\\n     */\\n    function toUint176(uint256 value) internal pure returns (uint176) {\\n        if (value > type(uint176).max) {\\n            revert SafeCastOverflowedUintDowncast(176, value);\\n        }\\n        return uint176(value);\\n    }\\n\\n    /**\\n     * @dev Returns the downcasted uint168 from uint256, reverting on\\n     * overflow (when the input is greater than largest uint168).\\n     *\\n     * Counterpart to Solidity's `uint168` operator.\\n     *\\n     * Requirements:\\n     *\\n     * - input must fit into 168 bits\\n     */\\n    function toUint168(uint256 value) internal pure returns (uint168) {\\n        if (value > type(uint168).max) {\\n            revert SafeCastOverflowedUintDowncast(168, value);\\n        }\\n        return uint168(value);\\n    }\\n\\n    /**\\n     * @dev Returns the downcasted uint160 from uint256, reverting on\\n     * overflow (when the input is greater than largest uint160).\\n     *\\n     * Counterpart to Solidity's `uint160` operator.\\n     *\\n     * Requirements:\\n     *\\n     * - input must fit into 160 bits\\n     */\\n    function toUint160(uint256 value) internal pure returns (uint160) {\\n        if (value > type(uint160).max) {\\n            revert SafeCastOverflowedUintDowncast(160, value);\\n        }\\n        return uint160(value);\\n    }\\n\\n    /**\\n     * @dev Returns the downcasted uint152 from uint256, reverting on\\n     * overflow (when the input is greater than largest uint152).\\n     *\\n     * Counterpart to Solidity's `uint152` operator.\\n     *\\n     * Requirements:\\n     *\\n     * - input must fit into 152 bits\\n     */\\n    function toUint152(uint256 value) internal pure returns (uint152) {\\n        if (value > type(uint152).max) {\\n            revert SafeCastOverflowedUintDowncast(152, value);\\n        }\\n        return uint152(value);\\n    }\\n\\n    /**\\n     * @dev Returns the downcasted uint144 from uint256, reverting on\\n     * overflow (when the input is greater than largest uint144).\\n     *\\n     * Counterpart to Solidity's `uint144` operator.\\n     *\\n     * Requirements:\\n     *\\n     * - input must fit into 144 bits\\n     */\\n    function toUint144(uint256 value) internal pure returns (uint144) {\\n        if (value > type(uint144).max) {\\n            revert SafeCastOverflowedUintDowncast(144, value);\\n        }\\n        return uint144(value);\\n    }\\n\\n    /**\\n     * @dev Returns the downcasted uint136 from uint256, reverting on\\n     * overflow (when the input is greater than largest uint136).\\n     *\\n     * Counterpart to Solidity's `uint136` operator.\\n     *\\n     * Requirements:\\n     *\\n     * - input must fit into 136 bits\\n     */\\n    function toUint136(uint256 value) internal pure returns (uint136) {\\n        if (value > type(uint136).max) {\\n            revert SafeCastOverflowedUintDowncast(136, value);\\n        }\\n        return uint136(value);\\n    }\\n\\n    /**\\n     * @dev Returns the downcasted uint128 from uint256, reverting on\\n     * overflow (when the input is greater than largest uint128).\\n     *\\n     * Counterpart to Solidity's `uint128` operator.\\n     *\\n     * Requirements:\\n     *\\n     * - input must fit into 128 bits\\n     */\\n    function toUint128(uint256 value) internal pure returns (uint128) {\\n        if (value > type(uint128).max) {\\n            revert SafeCastOverflowedUintDowncast(128, value);\\n        }\\n        return uint128(value);\\n    }\\n\\n    /**\\n     * @dev Returns the downcasted uint120 from uint256, reverting on\\n     * overflow (when the input is greater than largest uint120).\\n     *\\n     * Counterpart to Solidity's `uint120` operator.\\n     *\\n     * Requirements:\\n     *\\n     * - input must fit into 120 bits\\n     */\\n    function toUint120(uint256 value) internal pure returns (uint120) {\\n        if (value > type(uint120).max) {\\n            revert SafeCastOverflowedUintDowncast(120, value);\\n        }\\n        return uint120(value);\\n    }\\n\\n    /**\\n     * @dev Returns the downcasted uint112 from uint256, reverting on\\n     * overflow (when the input is greater than largest uint112).\\n     *\\n     * Counterpart to Solidity's `uint112` operator.\\n     *\\n     * Requirements:\\n     *\\n     * - input must fit into 112 bits\\n     */\\n    function toUint112(uint256 value) internal pure returns (uint112) {\\n        if (value > type(uint112).max) {\\n            revert SafeCastOverflowedUintDowncast(112, value);\\n        }\\n        return uint112(value);\\n    }\\n\\n    /**\\n     * @dev Returns the downcasted uint104 from uint256, reverting on\\n     * overflow (when the input is greater than largest uint104).\\n     *\\n     * Counterpart to Solidity's `uint104` operator.\\n     *\\n     * Requirements:\\n     *\\n     * - input must fit into 104 bits\\n     */\\n    function toUint104(uint256 value) internal pure returns (uint104) {\\n        if (value > type(uint104).max) {\\n            revert SafeCastOverflowedUintDowncast(104, value);\\n        }\\n        return uint104(value);\\n    }\\n\\n    /**\\n     * @dev Returns the downcasted uint96 from uint256, reverting on\\n     * overflow (when the input is greater than largest uint96).\\n     *\\n     * Counterpart to Solidity's `uint96` operator.\\n     *\\n     * Requirements:\\n     *\\n     * - input must fit into 96 bits\\n     */\\n    function toUint96(uint256 value) internal pure returns (uint96) {\\n        if (value > type(uint96).max) {\\n            revert SafeCastOverflowedUintDowncast(96, value);\\n        }\\n        return uint96(value);\\n    }\\n\\n    /**\\n     * @dev Returns the downcasted uint88 from uint256, reverting on\\n     * overflow (when the input is greater than largest uint88).\\n     *\\n     * Counterpart to Solidity's `uint88` operator.\\n     *\\n     * Requirements:\\n     *\\n     * - input must fit into 88 bits\\n     */\\n    function toUint88(uint256 value) internal pure returns (uint88) {\\n        if (value > type(uint88).max) {\\n            revert SafeCastOverflowedUintDowncast(88, value);\\n        }\\n        return uint88(value);\\n    }\\n\\n    /**\\n     * @dev Returns the downcasted uint80 from uint256, reverting on\\n     * overflow (when the input is greater than largest uint80).\\n     *\\n     * Counterpart to Solidity's `uint80` operator.\\n     *\\n     * Requirements:\\n     *\\n     * - input must fit into 80 bits\\n     */\\n    function toUint80(uint256 value) internal pure returns (uint80) {\\n        if (value > type(uint80).max) {\\n            revert SafeCastOverflowedUintDowncast(80, value);\\n        }\\n        return uint80(value);\\n    }\\n\\n    /**\\n     * @dev Returns the downcasted uint72 from uint256, reverting on\\n     * overflow (when the input is greater than largest uint72).\\n     *\\n     * Counterpart to Solidity's `uint72` operator.\\n     *\\n     * Requirements:\\n     *\\n     * - input must fit into 72 bits\\n     */\\n    function toUint72(uint256 value) internal pure returns (uint72) {\\n        if (value > type(uint72).max) {\\n            revert SafeCastOverflowedUintDowncast(72, value);\\n        }\\n        return uint72(value);\\n    }\\n\\n    /**\\n     * @dev Returns the downcasted uint64 from uint256, reverting on\\n     * overflow (when the input is greater than largest uint64).\\n     *\\n     * Counterpart to Solidity's `uint64` operator.\\n     *\\n     * Requirements:\\n     *\\n     * - input must fit into 64 bits\\n     */\\n    function toUint64(uint256 value) internal pure returns (uint64) {\\n        if (value > type(uint64).max) {\\n            revert SafeCastOverflowedUintDowncast(64, value);\\n        }\\n        return uint64(value);\\n    }\\n\\n    /**\\n     * @dev Returns the downcasted uint56 from uint256, reverting on\\n     * overflow (when the input is greater than largest uint56).\\n     *\\n     * Counterpart to Solidity's `uint56` operator.\\n     *\\n     * Requirements:\\n     *\\n     * - input must fit into 56 bits\\n     */\\n    function toUint56(uint256 value) internal pure returns (uint56) {\\n        if (value > type(uint56).max) {\\n            revert SafeCastOverflowedUintDowncast(56, value);\\n        }\\n        return uint56(value);\\n    }\\n\\n    /**\\n     * @dev Returns the downcasted uint48 from uint256, reverting on\\n     * overflow (when the input is greater than largest uint48).\\n     *\\n     * Counterpart to Solidity's `uint48` operator.\\n     *\\n     * Requirements:\\n     *\\n     * - input must fit into 48 bits\\n     */\\n    function toUint48(uint256 value) internal pure returns (uint48) {\\n        if (value > type(uint48).max) {\\n            revert SafeCastOverflowedUintDowncast(48, value);\\n        }\\n        return uint48(value);\\n    }\\n\\n    /**\\n     * @dev Returns the downcasted uint40 from uint256, reverting on\\n     * overflow (when the input is greater than largest uint40).\\n     *\\n     * Counterpart to Solidity's `uint40` operator.\\n     *\\n     * Requirements:\\n     *\\n     * - input must fit into 40 bits\\n     */\\n    function toUint40(uint256 value) internal pure returns (uint40) {\\n        if (value > type(uint40).max) {\\n            revert SafeCastOverflowedUintDowncast(40, value);\\n        }\\n        return uint40(value);\\n    }\\n\\n    /**\\n     * @dev Returns the downcasted uint32 from uint256, reverting on\\n     * overflow (when the input is greater than largest uint32).\\n     *\\n     * Counterpart to Solidity's `uint32` operator.\\n     *\\n     * Requirements:\\n     *\\n     * - input must fit into 32 bits\\n     */\\n    function toUint32(uint256 value) internal pure returns (uint32) {\\n        if (value > type(uint32).max) {\\n            revert SafeCastOverflowedUintDowncast(32, value);\\n        }\\n        return uint32(value);\\n    }\\n\\n    /**\\n     * @dev Returns the downcasted uint24 from uint256, reverting on\\n     * overflow (when the input is greater than largest uint24).\\n     *\\n     * Counterpart to Solidity's `uint24` operator.\\n     *\\n     * Requirements:\\n     *\\n     * - input must fit into 24 bits\\n     */\\n    function toUint24(uint256 value) internal pure returns (uint24) {\\n        if (value > type(uint24).max) {\\n            revert SafeCastOverflowedUintDowncast(24, value);\\n        }\\n        return uint24(value);\\n    }\\n\\n    /**\\n     * @dev Returns the downcasted uint16 from uint256, reverting on\\n     * overflow (when the input is greater than largest uint16).\\n     *\\n     * Counterpart to Solidity's `uint16` operator.\\n     *\\n     * Requirements:\\n     *\\n     * - input must fit into 16 bits\\n     */\\n    function toUint16(uint256 value) internal pure returns (uint16) {\\n        if (value > type(uint16).max) {\\n            revert SafeCastOverflowedUintDowncast(16, value);\\n        }\\n        return uint16(value);\\n    }\\n\\n    /**\\n     * @dev Returns the downcasted uint8 from uint256, reverting on\\n     * overflow (when the input is greater than largest uint8).\\n     *\\n     * Counterpart to Solidity's `uint8` operator.\\n     *\\n     * Requirements:\\n     *\\n     * - input must fit into 8 bits\\n     */\\n    function toUint8(uint256 value) internal pure returns (uint8) {\\n        if (value > type(uint8).max) {\\n            revert SafeCastOverflowedUintDowncast(8, value);\\n        }\\n        return uint8(value);\\n    }\\n\\n    /**\\n     * @dev Converts a signed int256 into an unsigned uint256.\\n     *\\n     * Requirements:\\n     *\\n     * - input must be greater than or equal to 0.\\n     */\\n    function toUint256(int256 value) internal pure returns (uint256) {\\n        if (value < 0) {\\n            revert SafeCastOverflowedIntToUint(value);\\n        }\\n        return uint256(value);\\n    }\\n\\n    /**\\n     * @dev Returns the downcasted int248 from int256, reverting on\\n     * overflow (when the input is less than smallest int248 or\\n     * greater than largest int248).\\n     *\\n     * Counterpart to Solidity's `int248` operator.\\n     *\\n     * Requirements:\\n     *\\n     * - input must fit into 248 bits\\n     */\\n    function toInt248(int256 value) internal pure returns (int248 downcasted) {\\n        downcasted = int248(value);\\n        if (downcasted != value) {\\n            revert SafeCastOverflowedIntDowncast(248, value);\\n        }\\n    }\\n\\n    /**\\n     * @dev Returns the downcasted int240 from int256, reverting on\\n     * overflow (when the input is less than smallest int240 or\\n     * greater than largest int240).\\n     *\\n     * Counterpart to Solidity's `int240` operator.\\n     *\\n     * Requirements:\\n     *\\n     * - input must fit into 240 bits\\n     */\\n    function toInt240(int256 value) internal pure returns (int240 downcasted) {\\n        downcasted = int240(value);\\n        if (downcasted != value) {\\n            revert SafeCastOverflowedIntDowncast(240, value);\\n        }\\n    }\\n\\n    /**\\n     * @dev Returns the downcasted int232 from int256, reverting on\\n     * overflow (when the input is less than smallest int232 or\\n     * greater than largest int232).\\n     *\\n     * Counterpart to Solidity's `int232` operator.\\n     *\\n     * Requirements:\\n     *\\n     * - input must fit into 232 bits\\n     */\\n    function toInt232(int256 value) internal pure returns (int232 downcasted) {\\n        downcasted = int232(value);\\n        if (downcasted != value) {\\n            revert SafeCastOverflowedIntDowncast(232, value);\\n        }\\n    }\\n\\n    /**\\n     * @dev Returns the downcasted int224 from int256, reverting on\\n     * overflow (when the input is less than smallest int224 or\\n     * greater than largest int224).\\n     *\\n     * Counterpart to Solidity's `int224` operator.\\n     *\\n     * Requirements:\\n     *\\n     * - input must fit into 224 bits\\n     */\\n    function toInt224(int256 value) internal pure returns (int224 downcasted) {\\n        downcasted = int224(value);\\n        if (downcasted != value) {\\n            revert SafeCastOverflowedIntDowncast(224, value);\\n        }\\n    }\\n\\n    /**\\n     * @dev Returns the downcasted int216 from int256, reverting on\\n     * overflow (when the input is less than smallest int216 or\\n     * greater than largest int216).\\n     *\\n     * Counterpart to Solidity's `int216` operator.\\n     *\\n     * Requirements:\\n     *\\n     * - input must fit into 216 bits\\n     */\\n    function toInt216(int256 value) internal pure returns (int216 downcasted) {\\n        downcasted = int216(value);\\n        if (downcasted != value) {\\n            revert SafeCastOverflowedIntDowncast(216, value);\\n        }\\n    }\\n\\n    /**\\n     * @dev Returns the downcasted int208 from int256, reverting on\\n     * overflow (when the input is less than smallest int208 or\\n     * greater than largest int208).\\n     *\\n     * Counterpart to Solidity's `int208` operator.\\n     *\\n     * Requirements:\\n     *\\n     * - input must fit into 208 bits\\n     */\\n    function toInt208(int256 value) internal pure returns (int208 downcasted) {\\n        downcasted = int208(value);\\n        if (downcasted != value) {\\n            revert SafeCastOverflowedIntDowncast(208, value);\\n        }\\n    }\\n\\n    /**\\n     * @dev Returns the downcasted int200 from int256, reverting on\\n     * overflow (when the input is less than smallest int200 or\\n     * greater than largest int200).\\n     *\\n     * Counterpart to Solidity's `int200` operator.\\n     *\\n     * Requirements:\\n     *\\n     * - input must fit into 200 bits\\n     */\\n    function toInt200(int256 value) internal pure returns (int200 downcasted) {\\n        downcasted = int200(value);\\n        if (downcasted != value) {\\n            revert SafeCastOverflowedIntDowncast(200, value);\\n        }\\n    }\\n\\n    /**\\n     * @dev Returns the downcasted int192 from int256, reverting on\\n     * overflow (when the input is less than smallest int192 or\\n     * greater than largest int192).\\n     *\\n     * Counterpart to Solidity's `int192` operator.\\n     *\\n     * Requirements:\\n     *\\n     * - input must fit into 192 bits\\n     */\\n    function toInt192(int256 value) internal pure returns (int192 downcasted) {\\n        downcasted = int192(value);\\n        if (downcasted != value) {\\n            revert SafeCastOverflowedIntDowncast(192, value);\\n        }\\n    }\\n\\n    /**\\n     * @dev Returns the downcasted int184 from int256, reverting on\\n     * overflow (when the input is less than smallest int184 or\\n     * greater than largest int184).\\n     *\\n     * Counterpart to Solidity's `int184` operator.\\n     *\\n     * Requirements:\\n     *\\n     * - input must fit into 184 bits\\n     */\\n    function toInt184(int256 value) internal pure returns (int184 downcasted) {\\n        downcasted = int184(value);\\n        if (downcasted != value) {\\n            revert SafeCastOverflowedIntDowncast(184, value);\\n        }\\n    }\\n\\n    /**\\n     * @dev Returns the downcasted int176 from int256, reverting on\\n     * overflow (when the input is less than smallest int176 or\\n     * greater than largest int176).\\n     *\\n     * Counterpart to Solidity's `int176` operator.\\n     *\\n     * Requirements:\\n     *\\n     * - input must fit into 176 bits\\n     */\\n    function toInt176(int256 value) internal pure returns (int176 downcasted) {\\n        downcasted = int176(value);\\n        if (downcasted != value) {\\n            revert SafeCastOverflowedIntDowncast(176, value);\\n        }\\n    }\\n\\n    /**\\n     * @dev Returns the downcasted int168 from int256, reverting on\\n     * overflow (when the input is less than smallest int168 or\\n     * greater than largest int168).\\n     *\\n     * Counterpart to Solidity's `int168` operator.\\n     *\\n     * Requirements:\\n     *\\n     * - input must fit into 168 bits\\n     */\\n    function toInt168(int256 value) internal pure returns (int168 downcasted) {\\n        downcasted = int168(value);\\n        if (downcasted != value) {\\n            revert SafeCastOverflowedIntDowncast(168, value);\\n        }\\n    }\\n\\n    /**\\n     * @dev Returns the downcasted int160 from int256, reverting on\\n     * overflow (when the input is less than smallest int160 or\\n     * greater than largest int160).\\n     *\\n     * Counterpart to Solidity's `int160` operator.\\n     *\\n     * Requirements:\\n     *\\n     * - input must fit into 160 bits\\n     */\\n    function toInt160(int256 value) internal pure returns (int160 downcasted) {\\n        downcasted = int160(value);\\n        if (downcasted != value) {\\n            revert SafeCastOverflowedIntDowncast(160, value);\\n        }\\n    }\\n\\n    /**\\n     * @dev Returns the downcasted int152 from int256, reverting on\\n     * overflow (when the input is less than smallest int152 or\\n     * greater than largest int152).\\n     *\\n     * Counterpart to Solidity's `int152` operator.\\n     *\\n     * Requirements:\\n     *\\n     * - input must fit into 152 bits\\n     */\\n    function toInt152(int256 value) internal pure returns (int152 downcasted) {\\n        downcasted = int152(value);\\n        if (downcasted != value) {\\n            revert SafeCastOverflowedIntDowncast(152, value);\\n        }\\n    }\\n\\n    /**\\n     * @dev Returns the downcasted int144 from int256, reverting on\\n     * overflow (when the input is less than smallest int144 or\\n     * greater than largest int144).\\n     *\\n     * Counterpart to Solidity's `int144` operator.\\n     *\\n     * Requirements:\\n     *\\n     * - input must fit into 144 bits\\n     */\\n    function toInt144(int256 value) internal pure returns (int144 downcasted) {\\n        downcasted = int144(value);\\n        if (downcasted != value) {\\n            revert SafeCastOverflowedIntDowncast(144, value);\\n        }\\n    }\\n\\n    /**\\n     * @dev Returns the downcasted int136 from int256, reverting on\\n     * overflow (when the input is less than smallest int136 or\\n     * greater than largest int136).\\n     *\\n     * Counterpart to Solidity's `int136` operator.\\n     *\\n     * Requirements:\\n     *\\n     * - input must fit into 136 bits\\n     */\\n    function toInt136(int256 value) internal pure returns (int136 downcasted) {\\n        downcasted = int136(value);\\n        if (downcasted != value) {\\n            revert SafeCastOverflowedIntDowncast(136, value);\\n        }\\n    }\\n\\n    /**\\n     * @dev Returns the downcasted int128 from int256, reverting on\\n     * overflow (when the input is less than smallest int128 or\\n     * greater than largest int128).\\n     *\\n     * Counterpart to Solidity's `int128` operator.\\n     *\\n     * Requirements:\\n     *\\n     * - input must fit into 128 bits\\n     */\\n    function toInt128(int256 value) internal pure returns (int128 downcasted) {\\n        downcasted = int128(value);\\n        if (downcasted != value) {\\n            revert SafeCastOverflowedIntDowncast(128, value);\\n        }\\n    }\\n\\n    /**\\n     * @dev Returns the downcasted int120 from int256, reverting on\\n     * overflow (when the input is less than smallest int120 or\\n     * greater than largest int120).\\n     *\\n     * Counterpart to Solidity's `int120` operator.\\n     *\\n     * Requirements:\\n     *\\n     * - input must fit into 120 bits\\n     */\\n    function toInt120(int256 value) internal pure returns (int120 downcasted) {\\n        downcasted = int120(value);\\n        if (downcasted != value) {\\n            revert SafeCastOverflowedIntDowncast(120, value);\\n        }\\n    }\\n\\n    /**\\n     * @dev Returns the downcasted int112 from int256, reverting on\\n     * overflow (when the input is less than smallest int112 or\\n     * greater than largest int112).\\n     *\\n     * Counterpart to Solidity's `int112` operator.\\n     *\\n     * Requirements:\\n     *\\n     * - input must fit into 112 bits\\n     */\\n    function toInt112(int256 value) internal pure returns (int112 downcasted) {\\n        downcasted = int112(value);\\n        if (downcasted != value) {\\n            revert SafeCastOverflowedIntDowncast(112, value);\\n        }\\n    }\\n\\n    /**\\n     * @dev Returns the downcasted int104 from int256, reverting on\\n     * overflow (when the input is less than smallest int104 or\\n     * greater than largest int104).\\n     *\\n     * Counterpart to Solidity's `int104` operator.\\n     *\\n     * Requirements:\\n     *\\n     * - input must fit into 104 bits\\n     */\\n    function toInt104(int256 value) internal pure returns (int104 downcasted) {\\n        downcasted = int104(value);\\n        if (downcasted != value) {\\n            revert SafeCastOverflowedIntDowncast(104, value);\\n        }\\n    }\\n\\n    /**\\n     * @dev Returns the downcasted int96 from int256, reverting on\\n     * overflow (when the input is less than smallest int96 or\\n     * greater than largest int96).\\n     *\\n     * Counterpart to Solidity's `int96` operator.\\n     *\\n     * Requirements:\\n     *\\n     * - input must fit into 96 bits\\n     */\\n    function toInt96(int256 value) internal pure returns (int96 downcasted) {\\n        downcasted = int96(value);\\n        if (downcasted != value) {\\n            revert SafeCastOverflowedIntDowncast(96, value);\\n        }\\n    }\\n\\n    /**\\n     * @dev Returns the downcasted int88 from int256, reverting on\\n     * overflow (when the input is less than smallest int88 or\\n     * greater than largest int88).\\n     *\\n     * Counterpart to Solidity's `int88` operator.\\n     *\\n     * Requirements:\\n     *\\n     * - input must fit into 88 bits\\n     */\\n    function toInt88(int256 value) internal pure returns (int88 downcasted) {\\n        downcasted = int88(value);\\n        if (downcasted != value) {\\n            revert SafeCastOverflowedIntDowncast(88, value);\\n        }\\n    }\\n\\n    /**\\n     * @dev Returns the downcasted int80 from int256, reverting on\\n     * overflow (when the input is less than smallest int80 or\\n     * greater than largest int80).\\n     *\\n     * Counterpart to Solidity's `int80` operator.\\n     *\\n     * Requirements:\\n     *\\n     * - input must fit into 80 bits\\n     */\\n    function toInt80(int256 value) internal pure returns (int80 downcasted) {\\n        downcasted = int80(value);\\n        if (downcasted != value) {\\n            revert SafeCastOverflowedIntDowncast(80, value);\\n        }\\n    }\\n\\n    /**\\n     * @dev Returns the downcasted int72 from int256, reverting on\\n     * overflow (when the input is less than smallest int72 or\\n     * greater than largest int72).\\n     *\\n     * Counterpart to Solidity's `int72` operator.\\n     *\\n     * Requirements:\\n     *\\n     * - input must fit into 72 bits\\n     */\\n    function toInt72(int256 value) internal pure returns (int72 downcasted) {\\n        downcasted = int72(value);\\n        if (downcasted != value) {\\n            revert SafeCastOverflowedIntDowncast(72, value);\\n        }\\n    }\\n\\n    /**\\n     * @dev Returns the downcasted int64 from int256, reverting on\\n     * overflow (when the input is less than smallest int64 or\\n     * greater than largest int64).\\n     *\\n     * Counterpart to Solidity's `int64` operator.\\n     *\\n     * Requirements:\\n     *\\n     * - input must fit into 64 bits\\n     */\\n    function toInt64(int256 value) internal pure returns (int64 downcasted) {\\n        downcasted = int64(value);\\n        if (downcasted != value) {\\n            revert SafeCastOverflowedIntDowncast(64, value);\\n        }\\n    }\\n\\n    /**\\n     * @dev Returns the downcasted int56 from int256, reverting on\\n     * overflow (when the input is less than smallest int56 or\\n     * greater than largest int56).\\n     *\\n     * Counterpart to Solidity's `int56` operator.\\n     *\\n     * Requirements:\\n     *\\n     * - input must fit into 56 bits\\n     */\\n    function toInt56(int256 value) internal pure returns (int56 downcasted) {\\n        downcasted = int56(value);\\n        if (downcasted != value) {\\n            revert SafeCastOverflowedIntDowncast(56, value);\\n        }\\n    }\\n\\n    /**\\n     * @dev Returns the downcasted int48 from int256, reverting on\\n     * overflow (when the input is less than smallest int48 or\\n     * greater than largest int48).\\n     *\\n     * Counterpart to Solidity's `int48` operator.\\n     *\\n     * Requirements:\\n     *\\n     * - input must fit into 48 bits\\n     */\\n    function toInt48(int256 value) internal pure returns (int48 downcasted) {\\n        downcasted = int48(value);\\n        if (downcasted != value) {\\n            revert SafeCastOverflowedIntDowncast(48, value);\\n        }\\n    }\\n\\n    /**\\n     * @dev Returns the downcasted int40 from int256, reverting on\\n     * overflow (when the input is less than smallest int40 or\\n     * greater than largest int40).\\n     *\\n     * Counterpart to Solidity's `int40` operator.\\n     *\\n     * Requirements:\\n     *\\n     * - input must fit into 40 bits\\n     */\\n    function toInt40(int256 value) internal pure returns (int40 downcasted) {\\n        downcasted = int40(value);\\n        if (downcasted != value) {\\n            revert SafeCastOverflowedIntDowncast(40, value);\\n        }\\n    }\\n\\n    /**\\n     * @dev Returns the downcasted int32 from int256, reverting on\\n     * overflow (when the input is less than smallest int32 or\\n     * greater than largest int32).\\n     *\\n     * Counterpart to Solidity's `int32` operator.\\n     *\\n     * Requirements:\\n     *\\n     * - input must fit into 32 bits\\n     */\\n    function toInt32(int256 value) internal pure returns (int32 downcasted) {\\n        downcasted = int32(value);\\n        if (downcasted != value) {\\n            revert SafeCastOverflowedIntDowncast(32, value);\\n        }\\n    }\\n\\n    /**\\n     * @dev Returns the downcasted int24 from int256, reverting on\\n     * overflow (when the input is less than smallest int24 or\\n     * greater than largest int24).\\n     *\\n     * Counterpart to Solidity's `int24` operator.\\n     *\\n     * Requirements:\\n     *\\n     * - input must fit into 24 bits\\n     */\\n    function toInt24(int256 value) internal pure returns (int24 downcasted) {\\n        downcasted = int24(value);\\n        if (downcasted != value) {\\n            revert SafeCastOverflowedIntDowncast(24, value);\\n        }\\n    }\\n\\n    /**\\n     * @dev Returns the downcasted int16 from int256, reverting on\\n     * overflow (when the input is less than smallest int16 or\\n     * greater than largest int16).\\n     *\\n     * Counterpart to Solidity's `int16` operator.\\n     *\\n     * Requirements:\\n     *\\n     * - input must fit into 16 bits\\n     */\\n    function toInt16(int256 value) internal pure returns (int16 downcasted) {\\n        downcasted = int16(value);\\n        if (downcasted != value) {\\n            revert SafeCastOverflowedIntDowncast(16, value);\\n        }\\n    }\\n\\n    /**\\n     * @dev Returns the downcasted int8 from int256, reverting on\\n     * overflow (when the input is less than smallest int8 or\\n     * greater than largest int8).\\n     *\\n     * Counterpart to Solidity's `int8` operator.\\n     *\\n     * Requirements:\\n     *\\n     * - input must fit into 8 bits\\n     */\\n    function toInt8(int256 value) internal pure returns (int8 downcasted) {\\n        downcasted = int8(value);\\n        if (downcasted != value) {\\n            revert SafeCastOverflowedIntDowncast(8, value);\\n        }\\n    }\\n\\n    /**\\n     * @dev Converts an unsigned uint256 into a signed int256.\\n     *\\n     * Requirements:\\n     *\\n     * - input must be less than or equal to maxInt256.\\n     */\\n    function toInt256(uint256 value) internal pure returns (int256) {\\n        // Note: Unsafe cast below is okay because `type(int256).max` is guaranteed to be positive\\n        if (value > uint256(type(int256).max)) {\\n            revert SafeCastOverflowedUintToInt(value);\\n        }\\n        return int256(value);\\n    }\\n\\n    /**\\n     * @dev Cast a boolean (false or true) to a uint256 (0 or 1) with no jump.\\n     */\\n    function toUint(bool b) internal pure returns (uint256 u) {\\n        assembly (\\\"memory-safe\\\") {\\n            u := iszero(iszero(b))\\n        }\\n    }\\n}\\n\"},\"@openzeppelin/contracts/utils/Panic.sol\":{\"content\":\"// SPDX-License-Identifier: MIT\\n// OpenZeppelin Contracts (last updated v5.1.0) (utils/Panic.sol)\\n\\npragma solidity ^0.8.20;\\n\\n/**\\n * @dev Helper library for emitting standardized panic codes.\\n *\\n * ```solidity\\n * contract Example {\\n *      using Panic for uint256;\\n *\\n *      // Use any of the declared internal constants\\n *      function foo() { Panic.GENERIC.panic(); }\\n *\\n *      // Alternatively\\n *      function foo() { Panic.panic(Panic.GENERIC); }\\n * }\\n * ```\\n *\\n * Follows the list from https://github.com/ethereum/solidity/blob/v0.8.24/libsolutil/ErrorCodes.h[libsolutil].\\n *\\n * _Available since v5.1._\\n */\\n// slither-disable-next-line unused-state\\nlibrary Panic {\\n    /// @dev generic / unspecified error\\n    uint256 internal constant GENERIC = 0x00;\\n    /// @dev used by the assert() builtin\\n    uint256 internal constant ASSERT = 0x01;\\n    /// @dev arithmetic underflow or overflow\\n    uint256 internal constant UNDER_OVERFLOW = 0x11;\\n    /// @dev division or modulo by zero\\n    uint256 internal constant DIVISION_BY_ZERO = 0x12;\\n    /// @dev enum conversion error\\n    uint256 internal constant ENUM_CONVERSION_ERROR = 0x21;\\n    /// @dev invalid encoding in storage\\n    uint256 internal constant STORAGE_ENCODING_ERROR = 0x22;\\n    /// @dev empty array pop\\n    uint256 internal constant EMPTY_ARRAY_POP = 0x31;\\n    /// @dev array out of bounds access\\n    uint256 internal constant ARRAY_OUT_OF_BOUNDS = 0x32;\\n    /// @dev resource error (too large allocation or too large array)\\n    uint256 internal constant RESOURCE_ERROR = 0x41;\\n    /// @dev calling invalid internal function\\n    uint256 internal constant INVALID_INTERNAL_FUNCTION = 0x51;\\n\\n    /// @dev Reverts with a panic code. Recommended to use with\\n    /// the internal constants with predefined codes.\\n    function panic(uint256 code) internal pure {\\n        assembly (\\\"memory-safe\\\") {\\n            mstore(0x00, 0x4e487b71)\\n            mstore(0x20, code)\\n            revert(0x1c, 0x24)\\n        }\\n    }\\n}\\n\"}},\"settings\":{\"optimizer\":{\"enabled\":true,\"runs\":200},\"outputSelection\":{\"*\":{\"\":[\"ast\"],\"*\":[\"abi\",\"metadata\",\"devdoc\",\"userdoc\",\"storageLayout\",\"evm.legacyAssembly\",\"evm.bytecode\",\"evm.deployedBytecode\",\"evm.methodIdentifiers\",\"evm.gasEstimates\",\"evm.assembly\"]}},\"remappings\":[]}}",
	"name": "PMUniversalVerifier",
	"bytecode": {
		"linkReferences": {},
		"object": "608060405234801562000010575f80fd5b5060405162003bd138038062003bd1833981016040819052620000339162000133565b81816200004081620000a4565b506001600160a01b0381166200006f57604051631e4fbdf760e01b81525f600482015260240160405180910390fd5b6200007a81620000b6565b5050600b80546001600160a01b0319166001600160a01b039390931692909217909155506200037f565b6002620000b28282620002b7565b5050565b600380546001600160a01b038381166001600160a01b0319831681179093556040519116919082907f8be0079c531659141344cd1fd0a4f28419497f9722a3daafe3b4186f6b6457e0905f90a35050565b6001600160a01b03811681146200011c575f80fd5b50565b634e487b7160e01b5f52604160045260245ffd5b5f805f6060848603121562000146575f80fd5b8351620001538162000107565b80935050602080850151620001688162000107565b60408601519093506001600160401b038082111562000185575f80fd5b818701915087601f83011262000199575f80fd5b815181811115620001ae57620001ae6200011f565b604051601f8201601f19908116603f01168101908382118183101715620001d957620001d96200011f565b816040528281528a86848701011115620001f1575f80fd5b5f93505b82841015620002145784840186015181850187015292850192620001f5565b5f8684830101528096505050505050509250925092565b600181811c908216806200024057607f821691505b6020821081036200025f57634e487b7160e01b5f52602260045260245ffd5b50919050565b601f821115620002b2575f81815260208120601f850160051c810160208610156200028d5750805b601f850160051c820191505b81811015620002ae5782815560010162000299565b5050505b505050565b81516001600160401b03811115620002d357620002d36200011f565b620002eb81620002e484546200022b565b8462000265565b602080601f83116001811462000321575f8415620003095750858301515b5f19600386901b1c1916600185901b178555620002ae565b5f85815260208120601f198616915b82811015620003515788860151825594840194600190910190840162000330565b50858210156200036f57878501515f19600388901b60f8161c191681555b5050505050600190811b01905550565b613844806200038d5f395ff3fe608060405234801561000f575f80fd5b50600436106101ba575f3560e01c80637330dd84116100f3578063cf5219ad11610093578063e985e9c51161006e578063e985e9c5146103e6578063f242432a14610421578063f2fde38b14610434578063f5298aca14610447575f80fd5b8063cf5219ad146103a0578063d121cdc0146103a8578063e725f877146103d3575f80fd5b80638da5cb5b116100ce5780638da5cb5b146103475780638ed46cfd14610358578063a22cb4651461037a578063c1f959131461038d575f80fd5b80637330dd84146103245780637578b24814610337578063784008ce1461033f575f80fd5b80632eb2c2d61161015e5780634e1273f4116101395780634e1273f4146102d657806350fbdb2d146102f65780637048027514610309578063715018a61461031c575f80fd5b80632eb2c2d61461029b5780632f4955f6146102ae57806331ae450b146102c1575f80fd5b80630e89341c116101995780630e89341c146102285780631785f53c146102485780632b7ac3f31461025d5780632dbff95014610288575f80fd5b8062fdd58e146101be57806301843a14146101e457806301ffc9a714610205575b5f80fd5b6101d16101cc3660046129a9565b61045a565b6040519081526020015b60405180910390f35b6101f76101f23660046129d3565b610481565b6040516101db929190612a37565b610218610213366004612b2a565b610951565b60405190151581526020016101db565b61023b6102363660046129d3565b6109a0565b6040516101db9190612b45565b61025b610256366004612b57565b610a32565b005b600b54610270906001600160a01b031681565b6040516001600160a01b0390911681526020016101db565b61025b610296366004612bb6565b610b7e565b61025b6102a9366004612da4565b610e35565b61023b6102bc366004612e65565b610f7a565b6102c961101c565b6040516101db9190612e8f565b6102e96102e4366004612edb565b611084565b6040516101db9190612fcf565b61025b610304366004612e65565b611156565b61025b610317366004612b57565b6113dc565b61025b6114d3565b61025b610332366004613002565b6114e6565b6102e9611741565b6101d1600181565b6003546001600160a01b0316610270565b61036b610366366004612e65565b611752565b6040516101db939291906130e2565b61025b610388366004613131565b611910565b61025b61039b366004613168565b61191f565b6101d1600281565b6103bb6103b63660046129d3565b611bd9565b6040516001600160401b0390911681526020016101db565b61023b6103e13660046129d3565b611c13565b6102186103f43660046131bd565b6001600160a01b039182165f90815260016020908152604080832093909416825291909152205460ff1690565b61025b61042f3660046131e9565b611c2b565b61025b610442366004612b57565b611c4a565b61025b61045536600461324c565b611c84565b5f818152602081815260408083206001600160a01b03861684529091529020545b92915050565b6060805f600a80548060200260200160405190810160405280929190818152602001828054801561050057602002820191905f5260205f20905f905b82829054906101000a90046001600160401b03166001600160401b0316815260200190600801906020826007010492830192600103820291508084116104bd5790505b505050505090505f805b8251811015610592575f868152600960205260408120845182908690859081106105365761053661327e565b60200260200101516001600160401b03166001600160401b031681526020019081526020015f205f01805461056a90613292565b90501115610580578161057c816132d8565b9250505b8061058a816132d8565b91505061050a565b505f816001600160401b038111156105ac576105ac612c3b565b6040519080825280602002602001820160405280156105d5578160200160208202803683370190505b5090505f826001600160401b038111156105f1576105f1612c3b565b60405190808252806020026020018201604052801561064657816020015b61063360405180606001604052806060815260200160608152602001606081525090565b81526020019060019003908161060f5790505b5090505f805b8551811015610943575f898152600960205260408120875182908990859081106106785761067861327e565b60200260200101516001600160401b03166001600160401b031681526020019081526020015f205f0180546106ac90613292565b90501115610931578581815181106106c6576106c661327e565b60200260200101518483815181106106e0576106e061327e565b60200260200101906001600160401b031690816001600160401b03168152505060095f8a81526020019081526020015f205f8783815181106107245761072461327e565b60200260200101516001600160401b03166001600160401b031681526020019081526020015f206040518060600160405290815f8201805461076590613292565b80601f016020809104026020016040519081016040528092919081815260200182805461079190613292565b80156107dc5780601f106107b3576101008083540402835291602001916107dc565b820191905f5260205f20905b8154815290600101906020018083116107bf57829003601f168201915b505050505081526020016001820180546107f590613292565b80601f016020809104026020016040519081016040528092919081815260200182805461082190613292565b801561086c5780601f106108435761010080835404028352916020019161086c565b820191905f5260205f20905b81548152906001019060200180831161084f57829003601f168201915b5050505050815260200160028201805461088590613292565b80601f01602080910402602001604051908101604052809291908181526020018280546108b190613292565b80156108fc5780601f106108d3576101008083540402835291602001916108fc565b820191905f5260205f20905b8154815290600101906020018083116108df57829003601f168201915b5050505050815250508383815181106109175761091761327e565b6020026020010181905250818061092d906132d8565b9250505b8061093b816132d8565b91505061064c565b509197909650945050505050565b5f6001600160e01b03198216636cdb3d1360e11b148061098157506001600160e01b031982166303a24d0760e21b145b8061047b57506301ffc9a760e01b6001600160e01b031983161461047b565b6060600280546109af90613292565b80601f01602080910402602001604051908101604052809291908181526020018280546109db90613292565b8015610a265780601f106109fd57610100808354040283529160200191610a26565b820191905f5260205f20905b815481529060010190602001808311610a0957829003601f168201915b50505050509050919050565b610a3a611c97565b6004545f5b81811015610b3b57826001600160a01b031660048281548110610a6457610a6461327e565b5f918252602090912001546001600160a01b031603610b29576004610a8a6001846132f0565b81548110610a9a57610a9a61327e565b5f91825260209091200154600480546001600160a01b039092169183908110610ac557610ac561327e565b905f5260205f20015f6101000a8154816001600160a01b0302191690836001600160a01b031602179055506004805480610b0157610b01613303565b5f8281526020902081015f1990810180546001600160a01b031916905501905550610b7b9050565b80610b33816132d8565b915050610a3f565b5060405162461bcd60e51b815260206004820152600f60248201526e10591b5a5b881b9bdd08199bdd5b99608a1b60448201526064015b60405180910390fd5b50565b610b86611c97565b80610bc35760405162461bcd60e51b815260206004820152600d60248201526c13985b59481c995c5d5a5c9959609a1b6044820152606401610b72565b5f805f610bd06005611cc4565b90505f5b8151811015610c70578585604051610bed929190613317565b604051809103902060075f848481518110610c0a57610c0a61327e565b602002602001015181526020019081526020015f20604051610c2c9190613326565b604051809103902003610c5e57818181518110610c4b57610c4b61327e565b6020026020010151935060019250610c70565b80610c68816132d8565b915050610bd4565b508115610cbd57610cb889848a8a8a8080601f0160208091040260200160405190810160405280939291908181526020018383808284375f92019190915250611cd792505050565b610e2a565b5f805b62015f9042448d8a8a86604051602001610cdf96959493929190613398565b604051602081830303815290604052805190602001205f1c610d0191906133d3565b610d0d906103e86133f2565b915080610d19816132d8565b91505060648110610d785760405162461bcd60e51b8152602060048201526024808201527f556e61626c6520746f2066696e6420756e697175652073686f727420746f6b656044820152631b88125160e21b6064820152608401610b72565b610d83600583611d32565b610cc057610d92600583611d49565b610dcd5760405162461bcd60e51b815260206004820152600c60248201526b2a37b5b2b724a22a30b5b2b760a11b6044820152606401610b72565b610e0e8b838c8c8c8080601f0160208091040260200160405190810160405280939291908181526020018383808284375f92019190915250611cd792505050565b5f828152600760205260409020610e2687898361344a565b5050505b505050505050505050565b8151835114610e905760405162461bcd60e51b815260206004820152602160248201527f455243313135353a204d69736d617463686564206172726179206c656e6774686044820152607360f81b6064820152608401610b72565b6001600160a01b038416610ef45760405162461bcd60e51b815260206004820152602560248201527f455243313135353a207472616e7366657220746f20746865207a65726f206164604482015264647265737360d81b6064820152608401610b72565b5f5b8351811015610f7257610f23848281518110610f1457610f1461327e565b60200260200101518787611d54565b610f628686868481518110610f3a57610f3a61327e565b6020026020010151868581518110610f5457610f5461327e565b602002602001015186611c2b565b610f6b816132d8565b9050610ef6565b505050505050565b600860209081525f928352604080842090915290825290208054610f9d90613292565b80601f0160208091040260200160405190810160405280929190818152602001828054610fc990613292565b80156110145780601f10610feb57610100808354040283529160200191611014565b820191905f5260205f20905b815481529060010190602001808311610ff757829003601f168201915b505050505081565b6060611026611c97565b600480548060200260200160405190810160405280929190818152602001828054801561107a57602002820191905f5260205f20905b81546001600160a01b0316815260019091019060200180831161105c575b5050505050905090565b606081518351146110b55781518351604051635b05999160e01b815260048101929092526024820152604401610b72565b5f83516001600160401b038111156110cf576110cf612c3b565b6040519080825280602002602001820160405280156110f8578160200160208202803683370190505b5090505f5b845181101561114e576020808202860101516111219060208084028701015161045a565b8282815181106111335761113361327e565b6020908102919091010152611147816132d8565b90506110fd565b509392505050565b61115f3361217a565b6111a45760405162461bcd60e51b815260206004820152601660248201527521b0b63632b91034b9903737ba1030b71030b236b4b760511b6044820152606401610b72565b6111af600583611d32565b6111f55760405162461bcd60e51b81526020600482015260176024820152761d1bdad95b881a5908191bd95cc81b9bdd08195e1a5cdd604a1b6044820152606401610b72565b5f8281526008602090815260408083206001600160401b03851684529091529020805461122190613292565b90505f036112715760405162461bcd60e51b815260206004820152601c60248201527f50726f6f66207265717565737420646f6573206e6f74206578697374000000006044820152606401610b72565b5f8281526008602090815260408083206001600160401b0385168452909152812061129b9161294b565b5f5b600a548110156113d757816001600160401b0316600a82815481106112c4576112c461327e565b5f918252602090912060048204015460039091166008026101000a90046001600160401b0316036113c557600a80546112ff906001906132f0565b8154811061130f5761130f61327e565b905f5260205f2090600491828204019190066008029054906101000a90046001600160401b0316600a82815481106113495761134961327e565b905f5260205f2090600491828204019190066008026101000a8154816001600160401b0302191690836001600160401b03160217905550600a80548061139157611391613303565b5f8281526020902060045f199092019182040180546001600160401b03600860038516026101000a02191690559055505050565b806113cf816132d8565b91505061129d565b505050565b6113e4611c97565b6001600160a01b03811661142c5760405162461bcd60e51b815260206004820152600f60248201526e496e76616c6964206164647265737360881b6044820152606401610b72565b6114358161217a565b156114825760405162461bcd60e51b815260206004820152601b60248201527f4164647265737320697320616c726561647920616e2061646d696e00000000006044820152606401610b72565b600480546001810182555f919091527f8a35acfbc15ff81a39ae7d344fd709f28e8600b4aa8c65c6b64bfe7fe36bd19b0180546001600160a01b0319166001600160a01b0392909216919091179055565b6114db611c97565b6114e45f6121e0565b565b6040805160806020601f8c018190040282018101909252606081018a81525f928291908d908d90819085018382808284375f920191909152505050908252506001600160a01b038a1660208083019190915260408051601f8b0183900483028101830182528a8152920191908a908a90819084018382808284375f920191909152505050915250600b546040516304fa911f60e51b81529192506001600160a01b031690639f5223e0906115a0908e908590600401613504565b5f604051808303815f87803b1580156115b7575f80fd5b505af11580156115c9573d5f803e3d5ffd5b505050506115d9858c868661191f565b6040805160608101909152806115ef848061355f565b8080601f0160208091040260200160405190810160405280939291908181526020018383808284375f920191909152505050908252506020908101906116379085018561355f565b8080601f0160208091040260200160405190810160405280939291908181526020018383808284375f9201919091525050509082525060200161167d604085018561355f565b8080601f0160208091040260200160405190810160405280939291908181526020018383808284375f81840152601f19601f8201169050808301925050505050505081525060095f8781526020019081526020015f205f8d6001600160401b03166001600160401b031681526020019081526020015f205f820151815f01908161170791906135a1565b506020820151600182019061171c90826135a1565b506040820151600282019061173190826135a1565b5050505050505050505050505050565b606061174d6005611cc4565b905090565b600960209081525f928352604080842090915290825290208054819061177790613292565b80601f01602080910402602001604051908101604052809291908181526020018280546117a390613292565b80156117ee5780601f106117c5576101008083540402835291602001916117ee565b820191905f5260205f20905b8154815290600101906020018083116117d157829003601f168201915b50505050509080600101805461180390613292565b80601f016020809104026020016040519081016040528092919081815260200182805461182f90613292565b801561187a5780601f106118515761010080835404028352916020019161187a565b820191905f5260205f20905b81548152906001019060200180831161185d57829003601f168201915b50505050509080600201805461188f90613292565b80601f01602080910402602001604051908101604052809291908181526020018280546118bb90613292565b80156119065780601f106118dd57610100808354040283529160200191611906565b820191905f5260205f20905b8154815290600101906020018083116118e957829003601f168201915b5050505050905083565b61191b338383612231565b5050565b6119283361217a565b61196d5760405162461bcd60e51b815260206004820152601660248201527521b0b63632b91034b9903737ba1030b71030b236b4b760511b6044820152606401610b72565b611978600585611d32565b6119be5760405162461bcd60e51b81526020600482015260176024820152761d1bdad95b881a5908191bd95cc81b9bdd08195e1a5cdd604a1b6044820152606401610b72565b5f8481526008602090815260408083206001600160401b0387168452909152902080546119ea90613292565b159050611a395760405162461bcd60e51b815260206004820152601c60248201527f50726f6f66207265717565737420616c726561647920657869737473000000006044820152606401610b72565b604080518082018252600681526539b2b73232b960d11b602090910152517f168e92ce035ba45e59a0314b0ed9a9e619b284aed8f6e5ab0a596efd5c9f5cf990611a869084908490613317565b60405180910390201480611aee575060408051808201825260088152673932b1b2b4bb32b960c11b602090910152517f5e784e45feb63c375016d4ce5c52a57b0a48b8a170bc2e31463be0d03d1c4db690611ae49084908490613317565b6040518091039020145b611b465760405162461bcd60e51b815260206004820152602360248201527f526f6c65206d757374206265202773656e64657227206f72202772656365697660448201526265722760e81b6064820152608401610b72565b5f8481526008602090815260408083206001600160401b03871684529091529020611b7282848361344a565b5050600a80546001810182555f919091527fc65a7bb8d6351c1cf70c95a316cc6a92839c986682d98bc35f958f4883f9d2a86004820401805460039092166008026101000a6001600160401b03818102199093169490921691909102929092179091555050565b600a8181548110611be8575f80fd5b905f5260205f209060049182820401919006600802915054906101000a90046001600160401b031681565b60076020525f908152604090208054610f9d90613292565b611c36838686611d54565b611c4385858585856122c5565b5050505050565b611c52611c97565b6001600160a01b038116611c7b57604051631e4fbdf760e01b81525f6004820152602401610b72565b610b7b816121e0565b611c8c611c97565b6113d7838383612342565b6003546001600160a01b031633146114e45760405163118cdaa760e01b8152336004820152602401610b72565b60605f611cd0836123a8565b9392505050565b6001600160a01b038416611d0057604051632bfa23e760e11b81525f6004820152602401610b72565b60408051600180825260208201869052818301908152606082018590526080820190925290610f725f87848487612400565b5f8181526001830160205260408120541515611cd0565b5f611cd08383612453565b5f600a805480602002602001604051908101604052809291908181526020018280548015611dd057602002820191905f5260205f20905f905b82829054906101000a90046001600160401b03166001600160401b031681526020019060080190602082600701049283019260010382029150808411611d8d5790505b505050505090505f5b8151811015611c43575f85815260086020526040812083518290859085908110611e0557611e0561327e565b60200260200101516001600160401b03166001600160401b031681526020019081526020015f208054611e3790613292565b80601f0160208091040260200160405190810160405280929190818152602001828054611e6390613292565b8015611eae5780601f10611e8557610100808354040283529160200191611eae565b820191905f5260205f20905b815481529060010190602001808311611e9157829003601f168201915b5050505050905080515f03611ec35750612168565b60408051808201909152600681526539b2b73232b960d11b6020918201528151908201207fe9716d31fca45ba1a65fceb4f1265619e64d7b5127091a54f5a69102a360a3070161201657600b5483516001600160a01b0390911690638c1da2c9908790869086908110611f3857611f3861327e565b60200260200101516040518363ffffffff1660e01b8152600401611f7a9291906001600160a01b039290921682526001600160401b0316602082015260400190565b5f60405180830381865afa158015611f94573d5f803e3d5ffd5b505050506040513d5f823e601f3d908101601f19168201604052611fbb919081019061365c565b5161201157828281518110611fd257611fd261327e565b60209081029190910101516040516352d2304760e11b81526001600160401b0390911660048201526001600160a01b0386166024820152604401610b72565b612166565b6040805180820190915260088152673932b1b2b4bb32b960c11b6020918201528151908201207fa187b1ba0149c3c8afe92b31a3ad5a84f5b7475e8f43d1ceb9c41f2fc2e3b24a0161216657600b5483516001600160a01b0390911690638c1da2c990869086908690811061208d5761208d61327e565b60200260200101516040518363ffffffff1660e01b81526004016120cf9291906001600160a01b039290921682526001600160401b0316602082015260400190565b5f60405180830381865afa1580156120e9573d5f803e3d5ffd5b505050506040513d5f823e601f3d908101601f19168201604052612110919081019061365c565b51612166578282815181106121275761212761327e565b60209081029190910101516040516352d2304760e11b81526001600160401b0390911660048201526001600160a01b0385166024820152604401610b72565b505b80612172816132d8565b915050611dd9565b5f805b6004548110156121d857826001600160a01b0316600482815481106121a4576121a461327e565b5f918252602090912001546001600160a01b0316036121c65750600192915050565b806121d0816132d8565b91505061217d565b505f92915050565b600380546001600160a01b038381166001600160a01b0319831681179093556040519116919082907f8be0079c531659141344cd1fd0a4f28419497f9722a3daafe3b4186f6b6457e0905f90a35050565b6001600160a01b0382166122595760405162ced3e160e81b81525f6004820152602401610b72565b6001600160a01b038381165f81815260016020908152604080832094871680845294825291829020805460ff191686151590811790915591519182527f17307eab39ab6107e8899845ad3d59bd9653f200f220920489ca2b5937696c31910160405180910390a3505050565b336001600160a01b038616811480159061230457506001600160a01b038087165f9081526001602090815260408083209385168352929052205460ff16155b156123355760405163711bec9160e11b81526001600160a01b03808316600483015287166024820152604401610b72565b610f72868686868661249f565b6001600160a01b03831661236a57604051626a0d4560e21b81525f6004820152602401610b72565b604080516001808252602082018590528183019081526060820184905260a082019092525f60808201818152919291611c4391879185908590612400565b6060815f01805480602002602001604051908101604052809291908181526020018280548015610a2657602002820191905f5260205f20905b8154815260200190600101908083116123e15750505050509050919050565b61240c8585858561252b565b6001600160a01b03841615611c435782513390600103612445576020848101519084015161243e838989858589612743565b5050610f72565b610f72818787878787612864565b5f81815260018301602052604081205461249857508154600181810184555f84815260208082209093018490558454848252828601909352604090209190915561047b565b505f61047b565b6001600160a01b0384166124c857604051632bfa23e760e11b81525f6004820152602401610b72565b6001600160a01b0385166124f057604051626a0d4560e21b81525f6004820152602401610b72565b604080516001808252602082018690528183019081526060820185905260808201909252906125228787848487612400565b50505050505050565b805182511461255a5781518151604051635b05999160e01b815260048101929092526024820152604401610b72565b335f5b8351811015612665576020818102858101820151908501909101516001600160a01b0388161561260e575f828152602081815260408083206001600160a01b038c168452909152902054818110156125e8576040516303dee4c560e01b81526001600160a01b038a166004820152602481018290526044810183905260648101849052608401610b72565b5f838152602081815260408083206001600160a01b038d16845290915290209082900390555b6001600160a01b03871615612652575f828152602081815260408083206001600160a01b038b1684529091528120805483929061264c9084906133f2565b90915550505b50508061265e906132d8565b905061255d565b5082516001036126e55760208301515f906020840151909150856001600160a01b0316876001600160a01b0316846001600160a01b03167fc3d58168c5ae7397731d063d5bbf3d657854427343f4c083240f7aacaa2d0f6285856040516126d6929190918252602082015260400190565b60405180910390a45050611c43565b836001600160a01b0316856001600160a01b0316826001600160a01b03167f4a39dc06d4c0dbc64b70af90fd698a233a518aa5d07e595d983b8c0526c8f7fb8686604051612734929190613725565b60405180910390a45050505050565b6001600160a01b0384163b15610f725760405163f23a6e6160e01b81526001600160a01b0385169063f23a6e61906127879089908990889088908890600401613752565b6020604051808303815f875af19250505080156127c1575060408051601f3d908101601f191682019092526127be91810190613796565b60015b612828573d8080156127ee576040519150601f19603f3d011682016040523d82523d5f602084013e6127f3565b606091505b5080515f0361282057604051632bfa23e760e11b81526001600160a01b0386166004820152602401610b72565b805181602001fd5b6001600160e01b0319811663f23a6e6160e01b1461252257604051632bfa23e760e11b81526001600160a01b0386166004820152602401610b72565b6001600160a01b0384163b15610f725760405163bc197c8160e01b81526001600160a01b0385169063bc197c81906128a890899089908890889088906004016137b1565b6020604051808303815f875af19250505080156128e2575060408051601f3d908101601f191682019092526128df91810190613796565b60015b61290f573d8080156127ee576040519150601f19603f3d011682016040523d82523d5f602084013e6127f3565b6001600160e01b0319811663bc197c8160e01b1461252257604051632bfa23e760e11b81526001600160a01b0386166004820152602401610b72565b50805461295790613292565b5f825580601f10612966575050565b601f0160209004905f5260205f2090810190610b7b91905b80821115612991575f815560010161297e565b5090565b6001600160a01b0381168114610b7b575f80fd5b5f80604083850312156129ba575f80fd5b82356129c581612995565b946020939093013593505050565b5f602082840312156129e3575f80fd5b5035919050565b5f5b83811015612a045781810151838201526020016129ec565b50505f910152565b5f8151808452612a238160208601602086016129ea565b601f01601f19169290920160200192915050565b604080825283518282018190525f9190606090818501906020808901865b83811015612a7a5781516001600160401b031685529382019390820190600101612a55565b50508683038188015287518084528184019250600581901b840182018983015f5b83811015612b0457868303601f1901865281518051898552612abf8a860182612a0c565b90508682015185820388870152612ad68282612a0c565b9150508a82015191508481038b860152612af08183612a0c565b978701979450505090840190600101612a9b565b50909b9a5050505050505050505050565b6001600160e01b031981168114610b7b575f80fd5b5f60208284031215612b3a575f80fd5b8135611cd081612b15565b602081525f611cd06020830184612a0c565b5f60208284031215612b67575f80fd5b8135611cd081612995565b5f8083601f840112612b82575f80fd5b5081356001600160401b03811115612b98575f80fd5b602083019150836020828501011115612baf575f80fd5b9250929050565b5f805f805f8060808789031215612bcb575f80fd5b8635612bd681612995565b95506020870135945060408701356001600160401b0380821115612bf8575f80fd5b612c048a838b01612b72565b90965094506060890135915080821115612c1c575f80fd5b50612c2989828a01612b72565b979a9699509497509295939492505050565b634e487b7160e01b5f52604160045260245ffd5b604051608081016001600160401b0381118282101715612c7157612c71612c3b565b60405290565b604051601f8201601f191681016001600160401b0381118282101715612c9f57612c9f612c3b565b604052919050565b5f6001600160401b03821115612cbf57612cbf612c3b565b5060051b60200190565b5f82601f830112612cd8575f80fd5b81356020612ced612ce883612ca7565b612c77565b82815260059290921b84018101918181019086841115612d0b575f80fd5b8286015b84811015612d265780358352918301918301612d0f565b509695505050505050565b5f6001600160401b03821115612d4957612d49612c3b565b50601f01601f191660200190565b5f82601f830112612d66575f80fd5b8135612d74612ce882612d31565b818152846020838601011115612d88575f80fd5b816020850160208301375f918101602001919091529392505050565b5f805f805f60a08688031215612db8575f80fd5b8535612dc381612995565b94506020860135612dd381612995565b935060408601356001600160401b0380821115612dee575f80fd5b612dfa89838a01612cc9565b94506060880135915080821115612e0f575f80fd5b612e1b89838a01612cc9565b93506080880135915080821115612e30575f80fd5b50612e3d88828901612d57565b9150509295509295909350565b80356001600160401b0381168114612e60575f80fd5b919050565b5f8060408385031215612e76575f80fd5b82359150612e8660208401612e4a565b90509250929050565b602080825282518282018190525f9190848201906040850190845b81811015612ecf5783516001600160a01b031683529284019291840191600101612eaa565b50909695505050505050565b5f8060408385031215612eec575f80fd5b82356001600160401b0380821115612f02575f80fd5b818501915085601f830112612f15575f80fd5b81356020612f25612ce883612ca7565b82815260059290921b84018101918181019089841115612f43575f80fd5b948201945b83861015612f6a578535612f5b81612995565b82529482019490820190612f48565b96505086013592505080821115612f7f575f80fd5b50612f8c85828601612cc9565b9150509250929050565b5f8151808452602080850194508084015f5b83811015612fc457815187529582019590820190600101612fa8565b509495945050505050565b602081525f611cd06020830184612f96565b8035612e6081612995565b5f60608284031215612ffc575f80fd5b50919050565b5f805f805f805f805f8060e08b8d03121561301b575f80fd5b6130248b612e4a565b995060208b01356001600160401b038082111561303f575f80fd5b61304b8e838f01612b72565b909b50995089915061305f60408e01612fe1565b985060608d0135915080821115613074575f80fd5b6130808e838f01612b72565b909850965060808d0135955060a08d013591508082111561309f575f80fd5b6130ab8e838f01612b72565b909550935060c08d01359150808211156130c3575f80fd5b506130d08d828e01612fec565b9150509295989b9194979a5092959850565b606081525f6130f46060830186612a0c565b82810360208401526131068186612a0c565b9050828103604084015261311a8185612a0c565b9695505050505050565b8015158114610b7b575f80fd5b5f8060408385031215613142575f80fd5b823561314d81612995565b9150602083013561315d81613124565b809150509250929050565b5f805f806060858703121561317b575f80fd5b8435935061318b60208601612e4a565b925060408501356001600160401b038111156131a5575f80fd5b6131b187828801612b72565b95989497509550505050565b5f80604083850312156131ce575f80fd5b82356131d981612995565b9150602083013561315d81612995565b5f805f805f60a086880312156131fd575f80fd5b853561320881612995565b9450602086013561321881612995565b9350604086013592506060860135915060808601356001600160401b03811115613240575f80fd5b612e3d88828901612d57565b5f805f6060848603121561325e575f80fd5b833561326981612995565b95602085013595506040909401359392505050565b634e487b7160e01b5f52603260045260245ffd5b600181811c908216806132a657607f821691505b602082108103612ffc57634e487b7160e01b5f52602260045260245ffd5b634e487b7160e01b5f52601160045260245ffd5b5f600182016132e9576132e96132c4565b5060010190565b8181038181111561047b5761047b6132c4565b634e487b7160e01b5f52603160045260245ffd5b818382375f9101908152919050565b5f80835461333381613292565b6001828116801561334b57600181146133605761338c565b60ff198416875282151583028701945061338c565b875f526020805f205f5b858110156133835781548a82015290840190820161336a565b50505082870194505b50929695505050505050565b8681528560208201526bffffffffffffffffffffffff198560601b166040820152828460548301376054920191820152607401949350505050565b5f826133ed57634e487b7160e01b5f52601260045260245ffd5b500690565b8082018082111561047b5761047b6132c4565b601f8211156113d7575f81815260208120601f850160051c8101602086101561342b5750805b601f850160051c820191505b81811015610f7257828155600101613437565b6001600160401b0383111561346157613461612c3b565b6134758361346f8354613292565b83613405565b5f601f8411600181146134a6575f851561348f5750838201355b5f19600387901b1c1916600186901b178355611c43565b5f83815260209020601f19861690835b828110156134d657868501358255602094850194600190920191016134b6565b50868210156134f2575f1960f88860031b161c19848701351681555b505060018560011b0183555050505050565b6001600160401b0383168152604060208201525f82516060604084015261352e60a0840182612a0c565b60208501516001600160a01b031660608501526040850151848203603f1901608086015290915061311a8282612a0c565b5f808335601e19843603018112613574575f80fd5b8301803591506001600160401b0382111561358d575f80fd5b602001915036819003821315612baf575f80fd5b81516001600160401b038111156135ba576135ba612c3b565b6135ce816135c88454613292565b84613405565b602080601f831160018114613601575f84156135ea5750858301515b5f19600386901b1c1916600185901b178555610f72565b5f85815260208120601f198616915b8281101561362f57888601518255948401946001909101908401613610565b508582101561364c57878501515f19600388901b60f8161c191681555b5050505050600190811b01905550565b5f602080838503121561366d575f80fd5b82516001600160401b0380821115613683575f80fd5b9084019060808287031215613696575f80fd5b61369e612c4f565b82516136a981613124565b815282840151828111156136bb575f80fd5b83019150601f820187136136cd575f80fd5b81516136db612ce882612d31565b81815288868386010111156136ee575f80fd5b6136fd828783018887016129ea565b8086840152505060408301516040820152606083015160608201528094505050505092915050565b604081525f6137376040830185612f96565b82810360208401526137498185612f96565b95945050505050565b6001600160a01b03868116825285166020820152604081018490526060810183905260a0608082018190525f9061378b90830184612a0c565b979650505050505050565b5f602082840312156137a6575f80fd5b8151611cd081612b15565b6001600160a01b0386811682528516602082015260a0604082018190525f906137dc90830186612f96565b82810360608401526137ee8186612f96565b905082810360808401526138028185612a0c565b9897505050505050505056fea26469706673582212200618696caeff1a1584a201d54edd0ade5e2800f644c2bb68779a91cd3914169c64736f6c63430008140033",
		"opcodes": "PUSH1 0x80 PUSH1 0x40 MSTORE CALLVALUE DUP1 ISZERO PUSH3 0x10 JUMPI PUSH0 DUP1 REVERT JUMPDEST POP PUSH1 0x40 MLOAD PUSH3 0x3BD1 CODESIZE SUB DUP1 PUSH3 0x3BD1 DUP4 CODECOPY DUP2 ADD PUSH1 0x40 DUP2 SWAP1 MSTORE PUSH3 0x33 SWAP2 PUSH3 0x133 JUMP JUMPDEST DUP2 DUP2 PUSH3 0x40 DUP2 PUSH3 0xA4 JUMP JUMPDEST POP PUSH1 0x1 PUSH1 0x1 PUSH1 0xA0 SHL SUB DUP2 AND PUSH3 0x6F JUMPI PUSH1 0x40 MLOAD PUSH4 0x1E4FBDF7 PUSH1 0xE0 SHL DUP2 MSTORE PUSH0 PUSH1 0x4 DUP3 ADD MSTORE PUSH1 0x24 ADD PUSH1 0x40 MLOAD DUP1 SWAP2 SUB SWAP1 REVERT JUMPDEST PUSH3 0x7A DUP2 PUSH3 0xB6 JUMP JUMPDEST POP POP PUSH1 0xB DUP1 SLOAD PUSH1 0x1 PUSH1 0x1 PUSH1 0xA0 SHL SUB NOT AND PUSH1 0x1 PUSH1 0x1 PUSH1 0xA0 SHL SUB SWAP4 SWAP1 SWAP4 AND SWAP3 SWAP1 SWAP3 OR SWAP1 SWAP2 SSTORE POP PUSH3 0x37F JUMP JUMPDEST PUSH1 0x2 PUSH3 0xB2 DUP3 DUP3 PUSH3 0x2B7 JUMP JUMPDEST POP POP JUMP JUMPDEST PUSH1 0x3 DUP1 SLOAD PUSH1 0x1 PUSH1 0x1 PUSH1 0xA0 SHL SUB DUP4 DUP2 AND PUSH1 0x1 PUSH1 0x1 PUSH1 0xA0 SHL SUB NOT DUP4 AND DUP2 OR SWAP1 SWAP4 SSTORE PUSH1 0x40 MLOAD SWAP2 AND SWAP2 SWAP1 DUP3 SWAP1 PUSH32 0x8BE0079C531659141344CD1FD0A4F28419497F9722A3DAAFE3B4186F6B6457E0 SWAP1 PUSH0 SWAP1 LOG3 POP POP JUMP JUMPDEST PUSH1 0x1 PUSH1 0x1 PUSH1 0xA0 SHL SUB DUP2 AND DUP2 EQ PUSH3 0x11C JUMPI PUSH0 DUP1 REVERT JUMPDEST POP JUMP JUMPDEST PUSH4 0x4E487B71 PUSH1 0xE0 SHL PUSH0 MSTORE PUSH1 0x41 PUSH1 0x4 MSTORE PUSH1 0x24 PUSH0 REVERT JUMPDEST PUSH0 DUP1 PUSH0 PUSH1 0x60 DUP5 DUP7 SUB SLT ISZERO PUSH3 0x146 JUMPI PUSH0 DUP1 REVERT JUMPDEST DUP4 MLOAD PUSH3 0x153 DUP2 PUSH3 0x107 JUMP JUMPDEST DUP1 SWAP4 POP POP PUSH1 0x20 DUP1 DUP6 ADD MLOAD PUSH3 0x168 DUP2 PUSH3 0x107 JUMP JUMPDEST PUSH1 0x40 DUP7 ADD MLOAD SWAP1 SWAP4 POP PUSH1 0x1 PUSH1 0x1 PUSH1 0x40 SHL SUB DUP1 DUP3 GT ISZERO PUSH3 0x185 JUMPI PUSH0 DUP1 REVERT JUMPDEST DUP2 DUP8 ADD SWAP2 POP DUP8 PUSH1 0x1F DUP4 ADD SLT PUSH3 0x199 JUMPI PUSH0 DUP1 REVERT JUMPDEST DUP2 MLOAD DUP2 DUP2 GT ISZERO PUSH3 0x1AE JUMPI PUSH3 0x1AE PUSH3 0x11F JUMP JUMPDEST PUSH1 0x40 MLOAD PUSH1 0x1F DUP3 ADD PUSH1 0x1F NOT SWAP1 DUP2 AND PUSH1 0x3F ADD AND DUP2 ADD SWAP1 DUP4 DUP3 GT DUP2 DUP4 LT OR ISZERO PUSH3 0x1D9 JUMPI PUSH3 0x1D9 PUSH3 0x11F JUMP JUMPDEST DUP2 PUSH1 0x40 MSTORE DUP3 DUP2 MSTORE DUP11 DUP7 DUP5 DUP8 ADD ADD GT ISZERO PUSH3 0x1F1 JUMPI PUSH0 DUP1 REVERT JUMPDEST PUSH0 SWAP4 POP JUMPDEST DUP3 DUP5 LT ISZERO PUSH3 0x214 JUMPI DUP5 DUP5 ADD DUP7 ADD MLOAD DUP2 DUP6 ADD DUP8 ADD MSTORE SWAP3 DUP6 ADD SWAP3 PUSH3 0x1F5 JUMP JUMPDEST PUSH0 DUP7 DUP5 DUP4 ADD ADD MSTORE DUP1 SWAP7 POP POP POP POP POP POP POP SWAP3 POP SWAP3 POP SWAP3 JUMP JUMPDEST PUSH1 0x1 DUP2 DUP2 SHR SWAP1 DUP3 AND DUP1 PUSH3 0x240 JUMPI PUSH1 0x7F DUP3 AND SWAP2 POP JUMPDEST PUSH1 0x20 DUP3 LT DUP2 SUB PUSH3 0x25F JUMPI PUSH4 0x4E487B71 PUSH1 0xE0 SHL PUSH0 MSTORE PUSH1 0x22 PUSH1 0x4 MSTORE PUSH1 0x24 PUSH0 REVERT JUMPDEST POP SWAP2 SWAP1 POP JUMP JUMPDEST PUSH1 0x1F DUP3 GT ISZERO PUSH3 0x2B2 JUMPI PUSH0 DUP2 DUP2 MSTORE PUSH1 0x20 DUP2 KECCAK256 PUSH1 0x1F DUP6 ADD PUSH1 0x5 SHR DUP2 ADD PUSH1 0x20 DUP7 LT ISZERO PUSH3 0x28D JUMPI POP DUP1 JUMPDEST PUSH1 0x1F DUP6 ADD PUSH1 0x5 SHR DUP3 ADD SWAP2 POP JUMPDEST DUP2 DUP2 LT ISZERO PUSH3 0x2AE JUMPI DUP3 DUP2 SSTORE PUSH1 0x1 ADD PUSH3 0x299 JUMP JUMPDEST POP POP POP JUMPDEST POP POP POP JUMP JUMPDEST DUP2 MLOAD PUSH1 0x1 PUSH1 0x1 PUSH1 0x40 SHL SUB DUP2 GT ISZERO PUSH3 0x2D3 JUMPI PUSH3 0x2D3 PUSH3 0x11F JUMP JUMPDEST PUSH3 0x2EB DUP2 PUSH3 0x2E4 DUP5 SLOAD PUSH3 0x22B JUMP JUMPDEST DUP5 PUSH3 0x265 JUMP JUMPDEST PUSH1 0x20 DUP1 PUSH1 0x1F DUP4 GT PUSH1 0x1 DUP2 EQ PUSH3 0x321 JUMPI PUSH0 DUP5 ISZERO PUSH3 0x309 JUMPI POP DUP6 DUP4 ADD MLOAD JUMPDEST PUSH0 NOT PUSH1 0x3 DUP7 SWAP1 SHL SHR NOT AND PUSH1 0x1 DUP6 SWAP1 SHL OR DUP6 SSTORE PUSH3 0x2AE JUMP JUMPDEST PUSH0 DUP6 DUP2 MSTORE PUSH1 0x20 DUP2 KECCAK256 PUSH1 0x1F NOT DUP7 AND SWAP2 JUMPDEST DUP3 DUP2 LT ISZERO PUSH3 0x351 JUMPI DUP9 DUP7 ADD MLOAD DUP3 SSTORE SWAP5 DUP5 ADD SWAP5 PUSH1 0x1 SWAP1 SWAP2 ADD SWAP1 DUP5 ADD PUSH3 0x330 JUMP JUMPDEST POP DUP6 DUP3 LT ISZERO PUSH3 0x36F JUMPI DUP8 DUP6 ADD MLOAD PUSH0 NOT PUSH1 0x3 DUP9 SWAP1 SHL PUSH1 0xF8 AND SHR NOT AND DUP2 SSTORE JUMPDEST POP POP POP POP POP PUSH1 0x1 SWAP1 DUP2 SHL ADD SWAP1 SSTORE POP JUMP JUMPDEST PUSH2 0x3844 DUP1 PUSH3 0x38D PUSH0 CODECOPY PUSH0 RETURN INVALID PUSH1 0x80 PUSH1 0x40 MSTORE CALLVALUE DUP1 ISZERO PUSH2 0xF JUMPI PUSH0 DUP1 REVERT JUMPDEST POP PUSH1 0x4 CALLDATASIZE LT PUSH2 0x1BA JUMPI PUSH0 CALLDATALOAD PUSH1 0xE0 SHR DUP1 PUSH4 0x7330DD84 GT PUSH2 0xF3 JUMPI DUP1 PUSH4 0xCF5219AD GT PUSH2 0x93 JUMPI DUP1 PUSH4 0xE985E9C5 GT PUSH2 0x6E JUMPI DUP1 PUSH4 0xE985E9C5 EQ PUSH2 0x3E6 JUMPI DUP1 PUSH4 0xF242432A EQ PUSH2 0x421 JUMPI DUP1 PUSH4 0xF2FDE38B EQ PUSH2 0x434 JUMPI DUP1 PUSH4 0xF5298ACA EQ PUSH2 0x447 JUMPI PUSH0 DUP1 REVERT JUMPDEST DUP1 PUSH4 0xCF5219AD EQ PUSH2 0x3A0 JUMPI DUP1 PUSH4 0xD121CDC0 EQ PUSH2 0x3A8 JUMPI DUP1 PUSH4 0xE725F877 EQ PUSH2 0x3D3 JUMPI PUSH0 DUP1 REVERT JUMPDEST DUP1 PUSH4 0x8DA5CB5B GT PUSH2 0xCE JUMPI DUP1 PUSH4 0x8DA5CB5B EQ PUSH2 0x347 JUMPI DUP1 PUSH4 0x8ED46CFD EQ PUSH2 0x358 JUMPI DUP1 PUSH4 0xA22CB465 EQ PUSH2 0x37A JUMPI DUP1 PUSH4 0xC1F95913 EQ PUSH2 0x38D JUMPI PUSH0 DUP1 REVERT JUMPDEST DUP1 PUSH4 0x7330DD84 EQ PUSH2 0x324 JUMPI DUP1 PUSH4 0x7578B248 EQ PUSH2 0x337 JUMPI DUP1 PUSH4 0x784008CE EQ PUSH2 0x33F JUMPI PUSH0 DUP1 REVERT JUMPDEST DUP1 PUSH4 0x2EB2C2D6 GT PUSH2 0x15E JUMPI DUP1 PUSH4 0x4E1273F4 GT PUSH2 0x139 JUMPI DUP1 PUSH4 0x4E1273F4 EQ PUSH2 0x2D6 JUMPI DUP1 PUSH4 0x50FBDB2D EQ PUSH2 0x2F6 JUMPI DUP1 PUSH4 0x70480275 EQ PUSH2 0x309 JUMPI DUP1 PUSH4 0x715018A6 EQ PUSH2 0x31C JUMPI PUSH0 DUP1 REVERT JUMPDEST DUP1 PUSH4 0x2EB2C2D6 EQ PUSH2 0x29B JUMPI DUP1 PUSH4 0x2F4955F6 EQ PUSH2 0x2AE JUMPI DUP1 PUSH4 0x31AE450B EQ PUSH2 0x2C1 JUMPI PUSH0 DUP1 REVERT JUMPDEST DUP1 PUSH4 0xE89341C GT PUSH2 0x199 JUMPI DUP1 PUSH4 0xE89341C EQ PUSH2 0x228 JUMPI DUP1 PUSH4 0x1785F53C EQ PUSH2 0x248 JUMPI DUP1 PUSH4 0x2B7AC3F3 EQ PUSH2 0x25D JUMPI DUP1 PUSH4 0x2DBFF950 EQ PUSH2 0x288 JUMPI PUSH0 DUP1 REVERT JUMPDEST DUP1 PUSH3 0xFDD58E EQ PUSH2 0x1BE JUMPI DUP1 PUSH4 0x1843A14 EQ PUSH2 0x1E4 JUMPI DUP1 PUSH4 0x1FFC9A7 EQ PUSH2 0x205 JUMPI JUMPDEST PUSH0 DUP1 REVERT JUMPDEST PUSH2 0x1D1 PUSH2 0x1CC CALLDATASIZE PUSH1 0x4 PUSH2 0x29A9 JUMP JUMPDEST PUSH2 0x45A JUMP JUMPDEST PUSH1 0x40 MLOAD SWAP1 DUP2 MSTORE PUSH1 0x20 ADD JUMPDEST PUSH1 0x40 MLOAD DUP1 SWAP2 SUB SWAP1 RETURN JUMPDEST PUSH2 0x1F7 PUSH2 0x1F2 CALLDATASIZE PUSH1 0x4 PUSH2 0x29D3 JUMP JUMPDEST PUSH2 0x481 JUMP JUMPDEST PUSH1 0x40 MLOAD PUSH2 0x1DB SWAP3 SWAP2 SWAP1 PUSH2 0x2A37 JUMP JUMPDEST PUSH2 0x218 PUSH2 0x213 CALLDATASIZE PUSH1 0x4 PUSH2 0x2B2A JUMP JUMPDEST PUSH2 0x951 JUMP JUMPDEST PUSH1 0x40 MLOAD SWAP1 ISZERO ISZERO DUP2 MSTORE PUSH1 0x20 ADD PUSH2 0x1DB JUMP JUMPDEST PUSH2 0x23B PUSH2 0x236 CALLDATASIZE PUSH1 0x4 PUSH2 0x29D3 JUMP JUMPDEST PUSH2 0x9A0 JUMP JUMPDEST PUSH1 0x40 MLOAD PUSH2 0x1DB SWAP2 SWAP1 PUSH2 0x2B45 JUMP JUMPDEST PUSH2 0x25B PUSH2 0x256 CALLDATASIZE PUSH1 0x4 PUSH2 0x2B57 JUMP JUMPDEST PUSH2 0xA32 JUMP JUMPDEST STOP JUMPDEST PUSH1 0xB SLOAD PUSH2 0x270 SWAP1 PUSH1 0x1 PUSH1 0x1 PUSH1 0xA0 SHL SUB AND DUP2 JUMP JUMPDEST PUSH1 0x40 MLOAD PUSH1 0x1 PUSH1 0x1 PUSH1 0xA0 SHL SUB SWAP1 SWAP2 AND DUP2 MSTORE PUSH1 0x20 ADD PUSH2 0x1DB JUMP JUMPDEST PUSH2 0x25B PUSH2 0x296 CALLDATASIZE PUSH1 0x4 PUSH2 0x2BB6 JUMP JUMPDEST PUSH2 0xB7E JUMP JUMPDEST PUSH2 0x25B PUSH2 0x2A9 CALLDATASIZE PUSH1 0x4 PUSH2 0x2DA4 JUMP JUMPDEST PUSH2 0xE35 JUMP JUMPDEST PUSH2 0x23B PUSH2 0x2BC CALLDATASIZE PUSH1 0x4 PUSH2 0x2E65 JUMP JUMPDEST PUSH2 0xF7A JUMP JUMPDEST PUSH2 0x2C9 PUSH2 0x101C JUMP JUMPDEST PUSH1 0x40 MLOAD PUSH2 0x1DB SWAP2 SWAP1 PUSH2 0x2E8F JUMP JUMPDEST PUSH2 0x2E9 PUSH2 0x2E4 CALLDATASIZE PUSH1 0x4 PUSH2 0x2EDB JUMP JUMPDEST PUSH2 0x1084 JUMP JUMPDEST PUSH1 0x40 MLOAD PUSH2 0x1DB SWAP2 SWAP1 PUSH2 0x2FCF JUMP JUMPDEST PUSH2 0x25B PUSH2 0x304 CALLDATASIZE PUSH1 0x4 PUSH2 0x2E65 JUMP JUMPDEST PUSH2 0x1156 JUMP JUMPDEST PUSH2 0x25B PUSH2 0x317 CALLDATASIZE PUSH1 0x4 PUSH2 0x2B57 JUMP JUMPDEST PUSH2 0x13DC JUMP JUMPDEST PUSH2 0x25B PUSH2 0x14D3 JUMP JUMPDEST PUSH2 0x25B PUSH2 0x332 CALLDATASIZE PUSH1 0x4 PUSH2 0x3002 JUMP JUMPDEST PUSH2 0x14E6 JUMP JUMPDEST PUSH2 0x2E9 PUSH2 0x1741 JUMP JUMPDEST PUSH2 0x1D1 PUSH1 0x1 DUP2 JUMP JUMPDEST PUSH1 0x3 SLOAD PUSH1 0x1 PUSH1 0x1 PUSH1 0xA0 SHL SUB AND PUSH2 0x270 JUMP JUMPDEST PUSH2 0x36B PUSH2 0x366 CALLDATASIZE PUSH1 0x4 PUSH2 0x2E65 JUMP JUMPDEST PUSH2 0x1752 JUMP JUMPDEST PUSH1 0x40 MLOAD PUSH2 0x1DB SWAP4 SWAP3 SWAP2 SWAP1 PUSH2 0x30E2 JUMP JUMPDEST PUSH2 0x25B PUSH2 0x388 CALLDATASIZE PUSH1 0x4 PUSH2 0x3131 JUMP JUMPDEST PUSH2 0x1910 JUMP JUMPDEST PUSH2 0x25B PUSH2 0x39B CALLDATASIZE PUSH1 0x4 PUSH2 0x3168 JUMP JUMPDEST PUSH2 0x191F JUMP JUMPDEST PUSH2 0x1D1 PUSH1 0x2 DUP2 JUMP JUMPDEST PUSH2 0x3BB PUSH2 0x3B6 CALLDATASIZE PUSH1 0x4 PUSH2 0x29D3 JUMP JUMPDEST PUSH2 0x1BD9 JUMP JUMPDEST PUSH1 0x40 MLOAD PUSH1 0x1 PUSH1 0x1 PUSH1 0x40 SHL SUB SWAP1 SWAP2 AND DUP2 MSTORE PUSH1 0x20 ADD PUSH2 0x1DB JUMP JUMPDEST PUSH2 0x23B PUSH2 0x3E1 CALLDATASIZE PUSH1 0x4 PUSH2 0x29D3 JUMP JUMPDEST PUSH2 0x1C13 JUMP JUMPDEST PUSH2 0x218 PUSH2 0x3F4 CALLDATASIZE PUSH1 0x4 PUSH2 0x31BD JUMP JUMPDEST PUSH1 0x1 PUSH1 0x1 PUSH1 0xA0 SHL SUB SWAP2 DUP3 AND PUSH0 SWAP1 DUP2 MSTORE PUSH1 0x1 PUSH1 0x20 SWAP1 DUP2 MSTORE PUSH1 0x40 DUP1 DUP4 KECCAK256 SWAP4 SWAP1 SWAP5 AND DUP3 MSTORE SWAP2 SWAP1 SWAP2 MSTORE KECCAK256 SLOAD PUSH1 0xFF AND SWAP1 JUMP JUMPDEST PUSH2 0x25B PUSH2 0x42F CALLDATASIZE PUSH1 0x4 PUSH2 0x31E9 JUMP JUMPDEST PUSH2 0x1C2B JUMP JUMPDEST PUSH2 0x25B PUSH2 0x442 CALLDATASIZE PUSH1 0x4 PUSH2 0x2B57 JUMP JUMPDEST PUSH2 0x1C4A JUMP JUMPDEST PUSH2 0x25B PUSH2 0x455 CALLDATASIZE PUSH1 0x4 PUSH2 0x324C JUMP JUMPDEST PUSH2 0x1C84 JUMP JUMPDEST PUSH0 DUP2 DUP2 MSTORE PUSH1 0x20 DUP2 DUP2 MSTORE PUSH1 0x40 DUP1 DUP4 KECCAK256 PUSH1 0x1 PUSH1 0x1 PUSH1 0xA0 SHL SUB DUP7 AND DUP5 MSTORE SWAP1 SWAP2 MSTORE SWAP1 KECCAK256 SLOAD JUMPDEST SWAP3 SWAP2 POP POP JUMP JUMPDEST PUSH1 0x60 DUP1 PUSH0 PUSH1 0xA DUP1 SLOAD DUP1 PUSH1 0x20 MUL PUSH1 0x20 ADD PUSH1 0x40 MLOAD SWAP1 DUP2 ADD PUSH1 0x40 MSTORE DUP1 SWAP3 SWAP2 SWAP1 DUP2 DUP2 MSTORE PUSH1 0x20 ADD DUP3 DUP1 SLOAD DUP1 ISZERO PUSH2 0x500 JUMPI PUSH1 0x20 MUL DUP3 ADD SWAP2 SWAP1 PUSH0 MSTORE PUSH1 0x20 PUSH0 KECCAK256 SWAP1 PUSH0 SWAP1 JUMPDEST DUP3 DUP3 SWAP1 SLOAD SWAP1 PUSH2 0x100 EXP SWAP1 DIV PUSH1 0x1 PUSH1 0x1 PUSH1 0x40 SHL SUB AND PUSH1 0x1 PUSH1 0x1 PUSH1 0x40 SHL SUB AND DUP2 MSTORE PUSH1 0x20 ADD SWAP1 PUSH1 0x8 ADD SWAP1 PUSH1 0x20 DUP3 PUSH1 0x7 ADD DIV SWAP3 DUP4 ADD SWAP3 PUSH1 0x1 SUB DUP3 MUL SWAP2 POP DUP1 DUP5 GT PUSH2 0x4BD JUMPI SWAP1 POP JUMPDEST POP POP POP POP POP SWAP1 POP PUSH0 DUP1 JUMPDEST DUP3 MLOAD DUP2 LT ISZERO PUSH2 0x592 JUMPI PUSH0 DUP7 DUP2 MSTORE PUSH1 0x9 PUSH1 0x20 MSTORE PUSH1 0x40 DUP2 KECCAK256 DUP5 MLOAD DUP3 SWAP1 DUP7 SWAP1 DUP6 SWAP1 DUP2 LT PUSH2 0x536 JUMPI PUSH2 0x536 PUSH2 0x327E JUMP JUMPDEST PUSH1 0x20 MUL PUSH1 0x20 ADD ADD MLOAD PUSH1 0x1 PUSH1 0x1 PUSH1 0x40 SHL SUB AND PUSH1 0x1 PUSH1 0x1 PUSH1 0x40 SHL SUB AND DUP2 MSTORE PUSH1 0x20 ADD SWAP1 DUP2 MSTORE PUSH1 0x20 ADD PUSH0 KECCAK256 PUSH0 ADD DUP1 SLOAD PUSH2 0x56A SWAP1 PUSH2 0x3292 JUMP JUMPDEST SWAP1 POP GT ISZERO PUSH2 0x580 JUMPI DUP2 PUSH2 0x57C DUP2 PUSH2 0x32D8 JUMP JUMPDEST SWAP3 POP POP JUMPDEST DUP1 PUSH2 0x58A DUP2 PUSH2 0x32D8 JUMP JUMPDEST SWAP2 POP POP PUSH2 0x50A JUMP JUMPDEST POP PUSH0 DUP2 PUSH1 0x1 PUSH1 0x1 PUSH1 0x40 SHL SUB DUP2 GT ISZERO PUSH2 0x5AC JUMPI PUSH2 0x5AC PUSH2 0x2C3B JUMP JUMPDEST PUSH1 0x40 MLOAD SWAP1 DUP1 DUP3 MSTORE DUP1 PUSH1 0x20 MUL PUSH1 0x20 ADD DUP3 ADD PUSH1 0x40 MSTORE DUP1 ISZERO PUSH2 0x5D5 JUMPI DUP2 PUSH1 0x20 ADD PUSH1 0x20 DUP3 MUL DUP1 CALLDATASIZE DUP4 CALLDATACOPY ADD SWAP1 POP JUMPDEST POP SWAP1 POP PUSH0 DUP3 PUSH1 0x1 PUSH1 0x1 PUSH1 0x40 SHL SUB DUP2 GT ISZERO PUSH2 0x5F1 JUMPI PUSH2 0x5F1 PUSH2 0x2C3B JUMP JUMPDEST PUSH1 0x40 MLOAD SWAP1 DUP1 DUP3 MSTORE DUP1 PUSH1 0x20 MUL PUSH1 0x20 ADD DUP3 ADD PUSH1 0x40 MSTORE DUP1 ISZERO PUSH2 0x646 JUMPI DUP2 PUSH1 0x20 ADD JUMPDEST PUSH2 0x633 PUSH1 0x40 MLOAD DUP1 PUSH1 0x60 ADD PUSH1 0x40 MSTORE DUP1 PUSH1 0x60 DUP2 MSTORE PUSH1 0x20 ADD PUSH1 0x60 DUP2 MSTORE PUSH1 0x20 ADD PUSH1 0x60 DUP2 MSTORE POP SWAP1 JUMP JUMPDEST DUP2 MSTORE PUSH1 0x20 ADD SWAP1 PUSH1 0x1 SWAP1 SUB SWAP1 DUP2 PUSH2 0x60F JUMPI SWAP1 POP JUMPDEST POP SWAP1 POP PUSH0 DUP1 JUMPDEST DUP6 MLOAD DUP2 LT ISZERO PUSH2 0x943 JUMPI PUSH0 DUP10 DUP2 MSTORE PUSH1 0x9 PUSH1 0x20 MSTORE PUSH1 0x40 DUP2 KECCAK256 DUP8 MLOAD DUP3 SWAP1 DUP10 SWAP1 DUP6 SWAP1 DUP2 LT PUSH2 0x678 JUMPI PUSH2 0x678 PUSH2 0x327E JUMP JUMPDEST PUSH1 0x20 MUL PUSH1 0x20 ADD ADD MLOAD PUSH1 0x1 PUSH1 0x1 PUSH1 0x40 SHL SUB AND PUSH1 0x1 PUSH1 0x1 PUSH1 0x40 SHL SUB AND DUP2 MSTORE PUSH1 0x20 ADD SWAP1 DUP2 MSTORE PUSH1 0x20 ADD PUSH0 KECCAK256 PUSH0 ADD DUP1 SLOAD PUSH2 0x6AC SWAP1 PUSH2 0x3292 JUMP JUMPDEST SWAP1 POP GT ISZERO PUSH2 0x931 JUMPI DUP6 DUP2 DUP2 MLOAD DUP2 LT PUSH2 0x6C6 JUMPI PUSH2 0x6C6 PUSH2 0x327E JUMP JUMPDEST PUSH1 0x20 MUL PUSH1 0x20 ADD ADD MLOAD DUP5 DUP4 DUP2 MLOAD DUP2 LT PUSH2 0x6E0 JUMPI PUSH2 0x6E0 PUSH2 0x327E JUMP JUMPDEST PUSH1 0x20 MUL PUSH1 0x20 ADD ADD SWAP1 PUSH1 0x1 PUSH1 0x1 PUSH1 0x40 SHL SUB AND SWAP1 DUP2 PUSH1 0x1 PUSH1 0x1 PUSH1 0x40 SHL SUB AND DUP2 MSTORE POP POP PUSH1 0x9 PUSH0 DUP11 DUP2 MSTORE PUSH1 0x20 ADD SWAP1 DUP2 MSTORE PUSH1 0x20 ADD PUSH0 KECCAK256 PUSH0 DUP8 DUP4 DUP2 MLOAD DUP2 LT PUSH2 0x724 JUMPI PUSH2 0x724 PUSH2 0x327E JUMP JUMPDEST PUSH1 0x20 MUL PUSH1 0x20 ADD ADD MLOAD PUSH1 0x1 PUSH1 0x1 PUSH1 0x40 SHL SUB AND PUSH1 0x1 PUSH1 0x1 PUSH1 0x40 SHL SUB AND DUP2 MSTORE PUSH1 0x20 ADD SWAP1 DUP2 MSTORE PUSH1 0x20 ADD PUSH0 KECCAK256 PUSH1 0x40 MLOAD DUP1 PUSH1 0x60 ADD PUSH1 0x40 MSTORE SWAP1 DUP2 PUSH0 DUP3 ADD DUP1 SLOAD PUSH2 0x765 SWAP1 PUSH2 0x3292 JUMP JUMPDEST DUP1 PUSH1 0x1F ADD PUSH1 0x20 DUP1 SWAP2 DIV MUL PUSH1 0x20 ADD PUSH1 0x40 MLOAD SWAP1 DUP2 ADD PUSH1 0x40 MSTORE DUP1 SWAP3 SWAP2 SWAP1 DUP2 DUP2 MSTORE PUSH1 0x20 ADD DUP3 DUP1 SLOAD PUSH2 0x791 SWAP1 PUSH2 0x3292 JUMP JUMPDEST DUP1 ISZERO PUSH2 0x7DC JUMPI DUP1 PUSH1 0x1F LT PUSH2 0x7B3 JUMPI PUSH2 0x100 DUP1 DUP4 SLOAD DIV MUL DUP4 MSTORE SWAP2 PUSH1 0x20 ADD SWAP2 PUSH2 0x7DC JUMP JUMPDEST DUP3 ADD SWAP2 SWAP1 PUSH0 MSTORE PUSH1 0x20 PUSH0 KECCAK256 SWAP1 JUMPDEST DUP2 SLOAD DUP2 MSTORE SWAP1 PUSH1 0x1 ADD SWAP1 PUSH1 0x20 ADD DUP1 DUP4 GT PUSH2 0x7BF JUMPI DUP3 SWAP1 SUB PUSH1 0x1F AND DUP3 ADD SWAP2 JUMPDEST POP POP POP POP POP DUP2 MSTORE PUSH1 0x20 ADD PUSH1 0x1 DUP3 ADD DUP1 SLOAD PUSH2 0x7F5 SWAP1 PUSH2 0x3292 JUMP JUMPDEST DUP1 PUSH1 0x1F ADD PUSH1 0x20 DUP1 SWAP2 DIV MUL PUSH1 0x20 ADD PUSH1 0x40 MLOAD SWAP1 DUP2 ADD PUSH1 0x40 MSTORE DUP1 SWAP3 SWAP2 SWAP1 DUP2 DUP2 MSTORE PUSH1 0x20 ADD DUP3 DUP1 SLOAD PUSH2 0x821 SWAP1 PUSH2 0x3292 JUMP JUMPDEST DUP1 ISZERO PUSH2 0x86C JUMPI DUP1 PUSH1 0x1F LT PUSH2 0x843 JUMPI PUSH2 0x100 DUP1 DUP4 SLOAD DIV MUL DUP4 MSTORE SWAP2 PUSH1 0x20 ADD SWAP2 PUSH2 0x86C JUMP JUMPDEST DUP3 ADD SWAP2 SWAP1 PUSH0 MSTORE PUSH1 0x20 PUSH0 KECCAK256 SWAP1 JUMPDEST DUP2 SLOAD DUP2 MSTORE SWAP1 PUSH1 0x1 ADD SWAP1 PUSH1 0x20 ADD DUP1 DUP4 GT PUSH2 0x84F JUMPI DUP3 SWAP1 SUB PUSH1 0x1F AND DUP3 ADD SWAP2 JUMPDEST POP POP POP POP POP DUP2 MSTORE PUSH1 0x20 ADD PUSH1 0x2 DUP3 ADD DUP1 SLOAD PUSH2 0x885 SWAP1 PUSH2 0x3292 JUMP JUMPDEST DUP1 PUSH1 0x1F ADD PUSH1 0x20 DUP1 SWAP2 DIV MUL PUSH1 0x20 ADD PUSH1 0x40 MLOAD SWAP1 DUP2 ADD PUSH1 0x40 MSTORE DUP1 SWAP3 SWAP2 SWAP1 DUP2 DUP2 MSTORE PUSH1 0x20 ADD DUP3 DUP1 SLOAD PUSH2 0x8B1 SWAP1 PUSH2 0x3292 JUMP JUMPDEST DUP1 ISZERO PUSH2 0x8FC JUMPI DUP1 PUSH1 0x1F LT PUSH2 0x8D3 JUMPI PUSH2 0x100 DUP1 DUP4 SLOAD DIV MUL DUP4 MSTORE SWAP2 PUSH1 0x20 ADD SWAP2 PUSH2 0x8FC JUMP JUMPDEST DUP3 ADD SWAP2 SWAP1 PUSH0 MSTORE PUSH1 0x20 PUSH0 KECCAK256 SWAP1 JUMPDEST DUP2 SLOAD DUP2 MSTORE SWAP1 PUSH1 0x1 ADD SWAP1 PUSH1 0x20 ADD DUP1 DUP4 GT PUSH2 0x8DF JUMPI DUP3 SWAP1 SUB PUSH1 0x1F AND DUP3 ADD SWAP2 JUMPDEST POP POP POP POP POP DUP2 MSTORE POP POP DUP4 DUP4 DUP2 MLOAD DUP2 LT PUSH2 0x917 JUMPI PUSH2 0x917 PUSH2 0x327E JUMP JUMPDEST PUSH1 0x20 MUL PUSH1 0x20 ADD ADD DUP2 SWAP1 MSTORE POP DUP2 DUP1 PUSH2 0x92D SWAP1 PUSH2 0x32D8 JUMP JUMPDEST SWAP3 POP POP JUMPDEST DUP1 PUSH2 0x93B DUP2 PUSH2 0x32D8 JUMP JUMPDEST SWAP2 POP POP PUSH2 0x64C JUMP JUMPDEST POP SWAP2 SWAP8 SWAP1 SWAP7 POP SWAP5 POP POP POP POP POP JUMP JUMPDEST PUSH0 PUSH1 0x1 PUSH1 0x1 PUSH1 0xE0 SHL SUB NOT DUP3 AND PUSH4 0x6CDB3D13 PUSH1 0xE1 SHL EQ DUP1 PUSH2 0x981 JUMPI POP PUSH1 0x1 PUSH1 0x1 PUSH1 0xE0 SHL SUB NOT DUP3 AND PUSH4 0x3A24D07 PUSH1 0xE2 SHL EQ JUMPDEST DUP1 PUSH2 0x47B JUMPI POP PUSH4 0x1FFC9A7 PUSH1 0xE0 SHL PUSH1 0x1 PUSH1 0x1 PUSH1 0xE0 SHL SUB NOT DUP4 AND EQ PUSH2 0x47B JUMP JUMPDEST PUSH1 0x60 PUSH1 0x2 DUP1 SLOAD PUSH2 0x9AF SWAP1 PUSH2 0x3292 JUMP JUMPDEST DUP1 PUSH1 0x1F ADD PUSH1 0x20 DUP1 SWAP2 DIV MUL PUSH1 0x20 ADD PUSH1 0x40 MLOAD SWAP1 DUP2 ADD PUSH1 0x40 MSTORE DUP1 SWAP3 SWAP2 SWAP1 DUP2 DUP2 MSTORE PUSH1 0x20 ADD DUP3 DUP1 SLOAD PUSH2 0x9DB SWAP1 PUSH2 0x3292 JUMP JUMPDEST DUP1 ISZERO PUSH2 0xA26 JUMPI DUP1 PUSH1 0x1F LT PUSH2 0x9FD JUMPI PUSH2 0x100 DUP1 DUP4 SLOAD DIV MUL DUP4 MSTORE SWAP2 PUSH1 0x20 ADD SWAP2 PUSH2 0xA26 JUMP JUMPDEST DUP3 ADD SWAP2 SWAP1 PUSH0 MSTORE PUSH1 0x20 PUSH0 KECCAK256 SWAP1 JUMPDEST DUP2 SLOAD DUP2 MSTORE SWAP1 PUSH1 0x1 ADD SWAP1 PUSH1 0x20 ADD DUP1 DUP4 GT PUSH2 0xA09 JUMPI DUP3 SWAP1 SUB PUSH1 0x1F AND DUP3 ADD SWAP2 JUMPDEST POP POP POP POP POP SWAP1 POP SWAP2 SWAP1 POP JUMP JUMPDEST PUSH2 0xA3A PUSH2 0x1C97 JUMP JUMPDEST PUSH1 0x4 SLOAD PUSH0 JUMPDEST DUP2 DUP2 LT ISZERO PUSH2 0xB3B JUMPI DUP3 PUSH1 0x1 PUSH1 0x1 PUSH1 0xA0 SHL SUB AND PUSH1 0x4 DUP3 DUP2 SLOAD DUP2 LT PUSH2 0xA64 JUMPI PUSH2 0xA64 PUSH2 0x327E JUMP JUMPDEST PUSH0 SWAP2 DUP3 MSTORE PUSH1 0x20 SWAP1 SWAP2 KECCAK256 ADD SLOAD PUSH1 0x1 PUSH1 0x1 PUSH1 0xA0 SHL SUB AND SUB PUSH2 0xB29 JUMPI PUSH1 0x4 PUSH2 0xA8A PUSH1 0x1 DUP5 PUSH2 0x32F0 JUMP JUMPDEST DUP2 SLOAD DUP2 LT PUSH2 0xA9A JUMPI PUSH2 0xA9A PUSH2 0x327E JUMP JUMPDEST PUSH0 SWAP2 DUP3 MSTORE PUSH1 0x20 SWAP1 SWAP2 KECCAK256 ADD SLOAD PUSH1 0x4 DUP1 SLOAD PUSH1 0x1 PUSH1 0x1 PUSH1 0xA0 SHL SUB SWAP1 SWAP3 AND SWAP2 DUP4 SWAP1 DUP2 LT PUSH2 0xAC5 JUMPI PUSH2 0xAC5 PUSH2 0x327E JUMP JUMPDEST SWAP1 PUSH0 MSTORE PUSH1 0x20 PUSH0 KECCAK256 ADD PUSH0 PUSH2 0x100 EXP DUP2 SLOAD DUP2 PUSH1 0x1 PUSH1 0x1 PUSH1 0xA0 SHL SUB MUL NOT AND SWAP1 DUP4 PUSH1 0x1 PUSH1 0x1 PUSH1 0xA0 SHL SUB AND MUL OR SWAP1 SSTORE POP PUSH1 0x4 DUP1 SLOAD DUP1 PUSH2 0xB01 JUMPI PUSH2 0xB01 PUSH2 0x3303 JUMP JUMPDEST PUSH0 DUP3 DUP2 MSTORE PUSH1 0x20 SWAP1 KECCAK256 DUP2 ADD PUSH0 NOT SWAP1 DUP2 ADD DUP1 SLOAD PUSH1 0x1 PUSH1 0x1 PUSH1 0xA0 SHL SUB NOT AND SWAP1 SSTORE ADD SWAP1 SSTORE POP PUSH2 0xB7B SWAP1 POP JUMP JUMPDEST DUP1 PUSH2 0xB33 DUP2 PUSH2 0x32D8 JUMP JUMPDEST SWAP2 POP POP PUSH2 0xA3F JUMP JUMPDEST POP PUSH1 0x40 MLOAD PUSH3 0x461BCD PUSH1 0xE5 SHL DUP2 MSTORE PUSH1 0x20 PUSH1 0x4 DUP3 ADD MSTORE PUSH1 0xF PUSH1 0x24 DUP3 ADD MSTORE PUSH15 0x10591B5A5B881B9BDD08199BDD5B99 PUSH1 0x8A SHL PUSH1 0x44 DUP3 ADD MSTORE PUSH1 0x64 ADD JUMPDEST PUSH1 0x40 MLOAD DUP1 SWAP2 SUB SWAP1 REVERT JUMPDEST POP JUMP JUMPDEST PUSH2 0xB86 PUSH2 0x1C97 JUMP JUMPDEST DUP1 PUSH2 0xBC3 JUMPI PUSH1 0x40 MLOAD PUSH3 0x461BCD PUSH1 0xE5 SHL DUP2 MSTORE PUSH1 0x20 PUSH1 0x4 DUP3 ADD MSTORE PUSH1 0xD PUSH1 0x24 DUP3 ADD MSTORE PUSH13 0x13985B59481C995C5D5A5C9959 PUSH1 0x9A SHL PUSH1 0x44 DUP3 ADD MSTORE PUSH1 0x64 ADD PUSH2 0xB72 JUMP JUMPDEST PUSH0 DUP1 PUSH0 PUSH2 0xBD0 PUSH1 0x5 PUSH2 0x1CC4 JUMP JUMPDEST SWAP1 POP PUSH0 JUMPDEST DUP2 MLOAD DUP2 LT ISZERO PUSH2 0xC70 JUMPI DUP6 DUP6 PUSH1 0x40 MLOAD PUSH2 0xBED SWAP3 SWAP2 SWAP1 PUSH2 0x3317 JUMP JUMPDEST PUSH1 0x40 MLOAD DUP1 SWAP2 SUB SWAP1 KECCAK256 PUSH1 0x7 PUSH0 DUP5 DUP5 DUP2 MLOAD DUP2 LT PUSH2 0xC0A JUMPI PUSH2 0xC0A PUSH2 0x327E JUMP JUMPDEST PUSH1 0x20 MUL PUSH1 0x20 ADD ADD MLOAD DUP2 MSTORE PUSH1 0x20 ADD SWAP1 DUP2 MSTORE PUSH1 0x20 ADD PUSH0 KECCAK256 PUSH1 0x40 MLOAD PUSH2 0xC2C SWAP2 SWAP1 PUSH2 0x3326 JUMP JUMPDEST PUSH1 0x40 MLOAD DUP1 SWAP2 SUB SWAP1 KECCAK256 SUB PUSH2 0xC5E JUMPI DUP2 DUP2 DUP2 MLOAD DUP2 LT PUSH2 0xC4B JUMPI PUSH2 0xC4B PUSH2 0x327E JUMP JUMPDEST PUSH1 0x20 MUL PUSH1 0x20 ADD ADD MLOAD SWAP4 POP PUSH1 0x1 SWAP3 POP PUSH2 0xC70 JUMP JUMPDEST DUP1 PUSH2 0xC68 DUP2 PUSH2 0x32D8 JUMP JUMPDEST SWAP2 POP POP PUSH2 0xBD4 JUMP JUMPDEST POP DUP2 ISZERO PUSH2 0xCBD JUMPI PUSH2 0xCB8 DUP10 DUP5 DUP11 DUP11 DUP11 DUP1 DUP1 PUSH1 0x1F ADD PUSH1 0x20 DUP1 SWAP2 DIV MUL PUSH1 0x20 ADD PUSH1 0x40 MLOAD SWAP1 DUP2 ADD PUSH1 0x40 MSTORE DUP1 SWAP4 SWAP3 SWAP2 SWAP1 DUP2 DUP2 MSTORE PUSH1 0x20 ADD DUP4 DUP4 DUP1 DUP3 DUP5 CALLDATACOPY PUSH0 SWAP3 ADD SWAP2 SWAP1 SWAP2 MSTORE POP PUSH2 0x1CD7 SWAP3 POP POP POP JUMP JUMPDEST PUSH2 0xE2A JUMP JUMPDEST PUSH0 DUP1 JUMPDEST PUSH3 0x15F90 TIMESTAMP PREVRANDAO DUP14 DUP11 DUP11 DUP7 PUSH1 0x40 MLOAD PUSH1 0x20 ADD PUSH2 0xCDF SWAP7 SWAP6 SWAP5 SWAP4 SWAP3 SWAP2 SWAP1 PUSH2 0x3398 JUMP JUMPDEST PUSH1 0x40 MLOAD PUSH1 0x20 DUP2 DUP4 SUB SUB DUP2 MSTORE SWAP1 PUSH1 0x40 MSTORE DUP1 MLOAD SWAP1 PUSH1 0x20 ADD KECCAK256 PUSH0 SHR PUSH2 0xD01 SWAP2 SWAP1 PUSH2 0x33D3 JUMP JUMPDEST PUSH2 0xD0D SWAP1 PUSH2 0x3E8 PUSH2 0x33F2 JUMP JUMPDEST SWAP2 POP DUP1 PUSH2 0xD19 DUP2 PUSH2 0x32D8 JUMP JUMPDEST SWAP2 POP POP PUSH1 0x64 DUP2 LT PUSH2 0xD78 JUMPI PUSH1 0x40 MLOAD PUSH3 0x461BCD PUSH1 0xE5 SHL DUP2 MSTORE PUSH1 0x20 PUSH1 0x4 DUP3 ADD MSTORE PUSH1 0x24 DUP1 DUP3 ADD MSTORE PUSH32 0x556E61626C6520746F2066696E6420756E697175652073686F727420746F6B65 PUSH1 0x44 DUP3 ADD MSTORE PUSH4 0x1B881251 PUSH1 0xE2 SHL PUSH1 0x64 DUP3 ADD MSTORE PUSH1 0x84 ADD PUSH2 0xB72 JUMP JUMPDEST PUSH2 0xD83 PUSH1 0x5 DUP4 PUSH2 0x1D32 JUMP JUMPDEST PUSH2 0xCC0 JUMPI PUSH2 0xD92 PUSH1 0x5 DUP4 PUSH2 0x1D49 JUMP JUMPDEST PUSH2 0xDCD JUMPI PUSH1 0x40 MLOAD PUSH3 0x461BCD PUSH1 0xE5 SHL DUP2 MSTORE PUSH1 0x20 PUSH1 0x4 DUP3 ADD MSTORE PUSH1 0xC PUSH1 0x24 DUP3 ADD MSTORE PUSH12 0x2A37B5B2B724A22A30B5B2B7 PUSH1 0xA1 SHL PUSH1 0x44 DUP3 ADD MSTORE PUSH1 0x64 ADD PUSH2 0xB72 JUMP JUMPDEST PUSH2 0xE0E DUP12 DUP4 DUP13 DUP13 DUP13 DUP1 DUP1 PUSH1 0x1F ADD PUSH1 0x20 DUP1 SWAP2 DIV MUL PUSH1 0x20 ADD PUSH1 0x40 MLOAD SWAP1 DUP2 ADD PUSH1 0x40 MSTORE DUP1 SWAP4 SWAP3 SWAP2 SWAP1 DUP2 DUP2 MSTORE PUSH1 0x20 ADD DUP4 DUP4 DUP1 DUP3 DUP5 CALLDATACOPY PUSH0 SWAP3 ADD SWAP2 SWAP1 SWAP2 MSTORE POP PUSH2 0x1CD7 SWAP3 POP POP POP JUMP JUMPDEST PUSH0 DUP3 DUP2 MSTORE PUSH1 0x7 PUSH1 0x20 MSTORE PUSH1 0x40 SWAP1 KECCAK256 PUSH2 0xE26 DUP8 DUP10 DUP4 PUSH2 0x344A JUMP JUMPDEST POP POP POP JUMPDEST POP POP POP POP POP POP POP POP POP JUMP JUMPDEST DUP2 MLOAD DUP4 MLOAD EQ PUSH2 0xE90 JUMPI PUSH1 0x40 MLOAD PUSH3 0x461BCD PUSH1 0xE5 SHL DUP2 MSTORE PUSH1 0x20 PUSH1 0x4 DUP3 ADD MSTORE PUSH1 0x21 PUSH1 0x24 DUP3 ADD MSTORE PUSH32 0x455243313135353A204D69736D617463686564206172726179206C656E677468 PUSH1 0x44 DUP3 ADD MSTORE PUSH1 0x73 PUSH1 0xF8 SHL PUSH1 0x64 DUP3 ADD MSTORE PUSH1 0x84 ADD PUSH2 0xB72 JUMP JUMPDEST PUSH1 0x1 PUSH1 0x1 PUSH1 0xA0 SHL SUB DUP5 AND PUSH2 0xEF4 JUMPI PUSH1 0x40 MLOAD PUSH3 0x461BCD PUSH1 0xE5 SHL DUP2 MSTORE PUSH1 0x20 PUSH1 0x4 DUP3 ADD MSTORE PUSH1 0x25 PUSH1 0x24 DUP3 ADD MSTORE PUSH32 0x455243313135353A207472616E7366657220746F20746865207A65726F206164 PUSH1 0x44 DUP3 ADD MSTORE PUSH5 0x6472657373 PUSH1 0xD8 SHL PUSH1 0x64 DUP3 ADD MSTORE PUSH1 0x84 ADD PUSH2 0xB72 JUMP JUMPDEST PUSH0 JUMPDEST DUP4 MLOAD DUP2 LT ISZERO PUSH2 0xF72 JUMPI PUSH2 0xF23 DUP5 DUP3 DUP2 MLOAD DUP2 LT PUSH2 0xF14 JUMPI PUSH2 0xF14 PUSH2 0x327E JUMP JUMPDEST PUSH1 0x20 MUL PUSH1 0x20 ADD ADD MLOAD DUP8 DUP8 PUSH2 0x1D54 JUMP JUMPDEST PUSH2 0xF62 DUP7 DUP7 DUP7 DUP5 DUP2 MLOAD DUP2 LT PUSH2 0xF3A JUMPI PUSH2 0xF3A PUSH2 0x327E JUMP JUMPDEST PUSH1 0x20 MUL PUSH1 0x20 ADD ADD MLOAD DUP7 DUP6 DUP2 MLOAD DUP2 LT PUSH2 0xF54 JUMPI PUSH2 0xF54 PUSH2 0x327E JUMP JUMPDEST PUSH1 0x20 MUL PUSH1 0x20 ADD ADD MLOAD DUP7 PUSH2 0x1C2B JUMP JUMPDEST PUSH2 0xF6B DUP2 PUSH2 0x32D8 JUMP JUMPDEST SWAP1 POP PUSH2 0xEF6 JUMP JUMPDEST POP POP POP POP POP POP JUMP JUMPDEST PUSH1 0x8 PUSH1 0x20 SWAP1 DUP2 MSTORE PUSH0 SWAP3 DUP4 MSTORE PUSH1 0x40 DUP1 DUP5 KECCAK256 SWAP1 SWAP2 MSTORE SWAP1 DUP3 MSTORE SWAP1 KECCAK256 DUP1 SLOAD PUSH2 0xF9D SWAP1 PUSH2 0x3292 JUMP JUMPDEST DUP1 PUSH1 0x1F ADD PUSH1 0x20 DUP1 SWAP2 DIV MUL PUSH1 0x20 ADD PUSH1 0x40 MLOAD SWAP1 DUP2 ADD PUSH1 0x40 MSTORE DUP1 SWAP3 SWAP2 SWAP1 DUP2 DUP2 MSTORE PUSH1 0x20 ADD DUP3 DUP1 SLOAD PUSH2 0xFC9 SWAP1 PUSH2 0x3292 JUMP JUMPDEST DUP1 ISZERO PUSH2 0x1014 JUMPI DUP1 PUSH1 0x1F LT PUSH2 0xFEB JUMPI PUSH2 0x100 DUP1 DUP4 SLOAD DIV MUL DUP4 MSTORE SWAP2 PUSH1 0x20 ADD SWAP2 PUSH2 0x1014 JUMP JUMPDEST DUP3 ADD SWAP2 SWAP1 PUSH0 MSTORE PUSH1 0x20 PUSH0 KECCAK256 SWAP1 JUMPDEST DUP2 SLOAD DUP2 MSTORE SWAP1 PUSH1 0x1 ADD SWAP1 PUSH1 0x20 ADD DUP1 DUP4 GT PUSH2 0xFF7 JUMPI DUP3 SWAP1 SUB PUSH1 0x1F AND DUP3 ADD SWAP2 JUMPDEST POP POP POP POP POP DUP2 JUMP JUMPDEST PUSH1 0x60 PUSH2 0x1026 PUSH2 0x1C97 JUMP JUMPDEST PUSH1 0x4 DUP1 SLOAD DUP1 PUSH1 0x20 MUL PUSH1 0x20 ADD PUSH1 0x40 MLOAD SWAP1 DUP2 ADD PUSH1 0x40 MSTORE DUP1 SWAP3 SWAP2 SWAP1 DUP2 DUP2 MSTORE PUSH1 0x20 ADD DUP3 DUP1 SLOAD DUP1 ISZERO PUSH2 0x107A JUMPI PUSH1 0x20 MUL DUP3 ADD SWAP2 SWAP1 PUSH0 MSTORE PUSH1 0x20 PUSH0 KECCAK256 SWAP1 JUMPDEST DUP2 SLOAD PUSH1 0x1 PUSH1 0x1 PUSH1 0xA0 SHL SUB AND DUP2 MSTORE PUSH1 0x1 SWAP1 SWAP2 ADD SWAP1 PUSH1 0x20 ADD DUP1 DUP4 GT PUSH2 0x105C JUMPI JUMPDEST POP POP POP POP POP SWAP1 POP SWAP1 JUMP JUMPDEST PUSH1 0x60 DUP2 MLOAD DUP4 MLOAD EQ PUSH2 0x10B5 JUMPI DUP2 MLOAD DUP4 MLOAD PUSH1 0x40 MLOAD PUSH4 0x5B059991 PUSH1 0xE0 SHL DUP2 MSTORE PUSH1 0x4 DUP2 ADD SWAP3 SWAP1 SWAP3 MSTORE PUSH1 0x24 DUP3 ADD MSTORE PUSH1 0x44 ADD PUSH2 0xB72 JUMP JUMPDEST PUSH0 DUP4 MLOAD PUSH1 0x1 PUSH1 0x1 PUSH1 0x40 SHL SUB DUP2 GT ISZERO PUSH2 0x10CF JUMPI PUSH2 0x10CF PUSH2 0x2C3B JUMP JUMPDEST PUSH1 0x40 MLOAD SWAP1 DUP1 DUP3 MSTORE DUP1 PUSH1 0x20 MUL PUSH1 0x20 ADD DUP3 ADD PUSH1 0x40 MSTORE DUP1 ISZERO PUSH2 0x10F8 JUMPI DUP2 PUSH1 0x20 ADD PUSH1 0x20 DUP3 MUL DUP1 CALLDATASIZE DUP4 CALLDATACOPY ADD SWAP1 POP JUMPDEST POP SWAP1 POP PUSH0 JUMPDEST DUP5 MLOAD DUP2 LT ISZERO PUSH2 0x114E JUMPI PUSH1 0x20 DUP1 DUP3 MUL DUP7 ADD ADD MLOAD PUSH2 0x1121 SWAP1 PUSH1 0x20 DUP1 DUP5 MUL DUP8 ADD ADD MLOAD PUSH2 0x45A JUMP JUMPDEST DUP3 DUP3 DUP2 MLOAD DUP2 LT PUSH2 0x1133 JUMPI PUSH2 0x1133 PUSH2 0x327E JUMP JUMPDEST PUSH1 0x20 SWAP1 DUP2 MUL SWAP2 SWAP1 SWAP2 ADD ADD MSTORE PUSH2 0x1147 DUP2 PUSH2 0x32D8 JUMP JUMPDEST SWAP1 POP PUSH2 0x10FD JUMP JUMPDEST POP SWAP4 SWAP3 POP POP POP JUMP JUMPDEST PUSH2 0x115F CALLER PUSH2 0x217A JUMP JUMPDEST PUSH2 0x11A4 JUMPI PUSH1 0x40 MLOAD PUSH3 0x461BCD PUSH1 0xE5 SHL DUP2 MSTORE PUSH1 0x20 PUSH1 0x4 DUP3 ADD MSTORE PUSH1 0x16 PUSH1 0x24 DUP3 ADD MSTORE PUSH22 0x21B0B63632B91034B9903737BA1030B71030B236B4B7 PUSH1 0x51 SHL PUSH1 0x44 DUP3 ADD MSTORE PUSH1 0x64 ADD PUSH2 0xB72 JUMP JUMPDEST PUSH2 0x11AF PUSH1 0x5 DUP4 PUSH2 0x1D32 JUMP JUMPDEST PUSH2 0x11F5 JUMPI PUSH1 0x40 MLOAD PUSH3 0x461BCD PUSH1 0xE5 SHL DUP2 MSTORE PUSH1 0x20 PUSH1 0x4 DUP3 ADD MSTORE PUSH1 0x17 PUSH1 0x24 DUP3 ADD MSTORE PUSH23 0x1D1BDAD95B881A5908191BD95CC81B9BDD08195E1A5CDD PUSH1 0x4A SHL PUSH1 0x44 DUP3 ADD MSTORE PUSH1 0x64 ADD PUSH2 0xB72 JUMP JUMPDEST PUSH0 DUP3 DUP2 MSTORE PUSH1 0x8 PUSH1 0x20 SWAP1 DUP2 MSTORE PUSH1 0x40 DUP1 DUP4 KECCAK256 PUSH1 0x1 PUSH1 0x1 PUSH1 0x40 SHL SUB DUP6 AND DUP5 MSTORE SWAP1 SWAP2 MSTORE SWAP1 KECCAK256 DUP1 SLOAD PUSH2 0x1221 SWAP1 PUSH2 0x3292 JUMP JUMPDEST SWAP1 POP PUSH0 SUB PUSH2 0x1271 JUMPI PUSH1 0x40 MLOAD PUSH3 0x461BCD PUSH1 0xE5 SHL DUP2 MSTORE PUSH1 0x20 PUSH1 0x4 DUP3 ADD MSTORE PUSH1 0x1C PUSH1 0x24 DUP3 ADD MSTORE PUSH32 0x50726F6F66207265717565737420646F6573206E6F7420657869737400000000 PUSH1 0x44 DUP3 ADD MSTORE PUSH1 0x64 ADD PUSH2 0xB72 JUMP JUMPDEST PUSH0 DUP3 DUP2 MSTORE PUSH1 0x8 PUSH1 0x20 SWAP1 DUP2 MSTORE PUSH1 0x40 DUP1 DUP4 KECCAK256 PUSH1 0x1 PUSH1 0x1 PUSH1 0x40 SHL SUB DUP6 AND DUP5 MSTORE SWAP1 SWAP2 MSTORE DUP2 KECCAK256 PUSH2 0x129B SWAP2 PUSH2 0x294B JUMP JUMPDEST PUSH0 JUMPDEST PUSH1 0xA SLOAD DUP2 LT ISZERO PUSH2 0x13D7 JUMPI DUP2 PUSH1 0x1 PUSH1 0x1 PUSH1 0x40 SHL SUB AND PUSH1 0xA DUP3 DUP2 SLOAD DUP2 LT PUSH2 0x12C4 JUMPI PUSH2 0x12C4 PUSH2 0x327E JUMP JUMPDEST PUSH0 SWAP2 DUP3 MSTORE PUSH1 0x20 SWAP1 SWAP2 KECCAK256 PUSH1 0x4 DUP3 DIV ADD SLOAD PUSH1 0x3 SWAP1 SWAP2 AND PUSH1 0x8 MUL PUSH2 0x100 EXP SWAP1 DIV PUSH1 0x1 PUSH1 0x1 PUSH1 0x40 SHL SUB AND SUB PUSH2 0x13C5 JUMPI PUSH1 0xA DUP1 SLOAD PUSH2 0x12FF SWAP1 PUSH1 0x1 SWAP1 PUSH2 0x32F0 JUMP JUMPDEST DUP2 SLOAD DUP2 LT PUSH2 0x130F JUMPI PUSH2 0x130F PUSH2 0x327E JUMP JUMPDEST SWAP1 PUSH0 MSTORE PUSH1 0x20 PUSH0 KECCAK256 SWAP1 PUSH1 0x4 SWAP2 DUP3 DUP3 DIV ADD SWAP2 SWAP1 MOD PUSH1 0x8 MUL SWAP1 SLOAD SWAP1 PUSH2 0x100 EXP SWAP1 DIV PUSH1 0x1 PUSH1 0x1 PUSH1 0x40 SHL SUB AND PUSH1 0xA DUP3 DUP2 SLOAD DUP2 LT PUSH2 0x1349 JUMPI PUSH2 0x1349 PUSH2 0x327E JUMP JUMPDEST SWAP1 PUSH0 MSTORE PUSH1 0x20 PUSH0 KECCAK256 SWAP1 PUSH1 0x4 SWAP2 DUP3 DUP3 DIV ADD SWAP2 SWAP1 MOD PUSH1 0x8 MUL PUSH2 0x100 EXP DUP2 SLOAD DUP2 PUSH1 0x1 PUSH1 0x1 PUSH1 0x40 SHL SUB MUL NOT AND SWAP1 DUP4 PUSH1 0x1 PUSH1 0x1 PUSH1 0x40 SHL SUB AND MUL OR SWAP1 SSTORE POP PUSH1 0xA DUP1 SLOAD DUP1 PUSH2 0x1391 JUMPI PUSH2 0x1391 PUSH2 0x3303 JUMP JUMPDEST PUSH0 DUP3 DUP2 MSTORE PUSH1 0x20 SWAP1 KECCAK256 PUSH1 0x4 PUSH0 NOT SWAP1 SWAP3 ADD SWAP2 DUP3 DIV ADD DUP1 SLOAD PUSH1 0x1 PUSH1 0x1 PUSH1 0x40 SHL SUB PUSH1 0x8 PUSH1 0x3 DUP6 AND MUL PUSH2 0x100 EXP MUL NOT AND SWAP1 SSTORE SWAP1 SSTORE POP POP POP JUMP JUMPDEST DUP1 PUSH2 0x13CF DUP2 PUSH2 0x32D8 JUMP JUMPDEST SWAP2 POP POP PUSH2 0x129D JUMP JUMPDEST POP POP POP JUMP JUMPDEST PUSH2 0x13E4 PUSH2 0x1C97 JUMP JUMPDEST PUSH1 0x1 PUSH1 0x1 PUSH1 0xA0 SHL SUB DUP2 AND PUSH2 0x142C JUMPI PUSH1 0x40 MLOAD PUSH3 0x461BCD PUSH1 0xE5 SHL DUP2 MSTORE PUSH1 0x20 PUSH1 0x4 DUP3 ADD MSTORE PUSH1 0xF PUSH1 0x24 DUP3 ADD MSTORE PUSH15 0x496E76616C69642061646472657373 PUSH1 0x88 SHL PUSH1 0x44 DUP3 ADD MSTORE PUSH1 0x64 ADD PUSH2 0xB72 JUMP JUMPDEST PUSH2 0x1435 DUP2 PUSH2 0x217A JUMP JUMPDEST ISZERO PUSH2 0x1482 JUMPI PUSH1 0x40 MLOAD PUSH3 0x461BCD PUSH1 0xE5 SHL DUP2 MSTORE PUSH1 0x20 PUSH1 0x4 DUP3 ADD MSTORE PUSH1 0x1B PUSH1 0x24 DUP3 ADD MSTORE PUSH32 0x4164647265737320697320616C726561647920616E2061646D696E0000000000 PUSH1 0x44 DUP3 ADD MSTORE PUSH1 0x64 ADD PUSH2 0xB72 JUMP JUMPDEST PUSH1 0x4 DUP1 SLOAD PUSH1 0x1 DUP2 ADD DUP3 SSTORE PUSH0 SWAP2 SWAP1 SWAP2 MSTORE PUSH32 0x8A35ACFBC15FF81A39AE7D344FD709F28E8600B4AA8C65C6B64BFE7FE36BD19B ADD DUP1 SLOAD PUSH1 0x1 PUSH1 0x1 PUSH1 0xA0 SHL SUB NOT AND PUSH1 0x1 PUSH1 0x1 PUSH1 0xA0 SHL SUB SWAP3 SWAP1 SWAP3 AND SWAP2 SWAP1 SWAP2 OR SWAP1 SSTORE JUMP JUMPDEST PUSH2 0x14DB PUSH2 0x1C97 JUMP JUMPDEST PUSH2 0x14E4 PUSH0 PUSH2 0x21E0 JUMP JUMPDEST JUMP JUMPDEST PUSH1 0x40 DUP1 MLOAD PUSH1 0x80 PUSH1 0x20 PUSH1 0x1F DUP13 ADD DUP2 SWAP1 DIV MUL DUP3 ADD DUP2 ADD SWAP1 SWAP3 MSTORE PUSH1 0x60 DUP2 ADD DUP11 DUP2 MSTORE PUSH0 SWAP3 DUP3 SWAP2 SWAP1 DUP14 SWAP1 DUP14 SWAP1 DUP2 SWAP1 DUP6 ADD DUP4 DUP3 DUP1 DUP3 DUP5 CALLDATACOPY PUSH0 SWAP3 ADD SWAP2 SWAP1 SWAP2 MSTORE POP POP POP SWAP1 DUP3 MSTORE POP PUSH1 0x1 PUSH1 0x1 PUSH1 0xA0 SHL SUB DUP11 AND PUSH1 0x20 DUP1 DUP4 ADD SWAP2 SWAP1 SWAP2 MSTORE PUSH1 0x40 DUP1 MLOAD PUSH1 0x1F DUP12 ADD DUP4 SWAP1 DIV DUP4 MUL DUP2 ADD DUP4 ADD DUP3 MSTORE DUP11 DUP2 MSTORE SWAP3 ADD SWAP2 SWAP1 DUP11 SWAP1 DUP11 SWAP1 DUP2 SWAP1 DUP5 ADD DUP4 DUP3 DUP1 DUP3 DUP5 CALLDATACOPY PUSH0 SWAP3 ADD SWAP2 SWAP1 SWAP2 MSTORE POP POP POP SWAP2 MSTORE POP PUSH1 0xB SLOAD PUSH1 0x40 MLOAD PUSH4 0x4FA911F PUSH1 0xE5 SHL DUP2 MSTORE SWAP2 SWAP3 POP PUSH1 0x1 PUSH1 0x1 PUSH1 0xA0 SHL SUB AND SWAP1 PUSH4 0x9F5223E0 SWAP1 PUSH2 0x15A0 SWAP1 DUP15 SWAP1 DUP6 SWAP1 PUSH1 0x4 ADD PUSH2 0x3504 JUMP JUMPDEST PUSH0 PUSH1 0x40 MLOAD DUP1 DUP4 SUB DUP2 PUSH0 DUP8 DUP1 EXTCODESIZE ISZERO DUP1 ISZERO PUSH2 0x15B7 JUMPI PUSH0 DUP1 REVERT JUMPDEST POP GAS CALL ISZERO DUP1 ISZERO PUSH2 0x15C9 JUMPI RETURNDATASIZE PUSH0 DUP1 RETURNDATACOPY RETURNDATASIZE PUSH0 REVERT JUMPDEST POP POP POP POP PUSH2 0x15D9 DUP6 DUP13 DUP7 DUP7 PUSH2 0x191F JUMP JUMPDEST PUSH1 0x40 DUP1 MLOAD PUSH1 0x60 DUP2 ADD SWAP1 SWAP2 MSTORE DUP1 PUSH2 0x15EF DUP5 DUP1 PUSH2 0x355F JUMP JUMPDEST DUP1 DUP1 PUSH1 0x1F ADD PUSH1 0x20 DUP1 SWAP2 DIV MUL PUSH1 0x20 ADD PUSH1 0x40 MLOAD SWAP1 DUP2 ADD PUSH1 0x40 MSTORE DUP1 SWAP4 SWAP3 SWAP2 SWAP1 DUP2 DUP2 MSTORE PUSH1 0x20 ADD DUP4 DUP4 DUP1 DUP3 DUP5 CALLDATACOPY PUSH0 SWAP3 ADD SWAP2 SWAP1 SWAP2 MSTORE POP POP POP SWAP1 DUP3 MSTORE POP PUSH1 0x20 SWAP1 DUP2 ADD SWAP1 PUSH2 0x1637 SWAP1 DUP6 ADD DUP6 PUSH2 0x355F JUMP JUMPDEST DUP1 DUP1 PUSH1 0x1F ADD PUSH1 0x20 DUP1 SWAP2 DIV MUL PUSH1 0x20 ADD PUSH1 0x40 MLOAD SWAP1 DUP2 ADD PUSH1 0x40 MSTORE DUP1 SWAP4 SWAP3 SWAP2 SWAP1 DUP2 DUP2 MSTORE PUSH1 0x20 ADD DUP4 DUP4 DUP1 DUP3 DUP5 CALLDATACOPY PUSH0 SWAP3 ADD SWAP2 SWAP1 SWAP2 MSTORE POP POP POP SWAP1 DUP3 MSTORE POP PUSH1 0x20 ADD PUSH2 0x167D PUSH1 0x40 DUP6 ADD DUP6 PUSH2 0x355F JUMP JUMPDEST DUP1 DUP1 PUSH1 0x1F ADD PUSH1 0x20 DUP1 SWAP2 DIV MUL PUSH1 0x20 ADD PUSH1 0x40 MLOAD SWAP1 DUP2 ADD PUSH1 0x40 MSTORE DUP1 SWAP4 SWAP3 SWAP2 SWAP1 DUP2 DUP2 MSTORE PUSH1 0x20 ADD DUP4 DUP4 DUP1 DUP3 DUP5 CALLDATACOPY PUSH0 DUP2 DUP5 ADD MSTORE PUSH1 0x1F NOT PUSH1 0x1F DUP3 ADD AND SWAP1 POP DUP1 DUP4 ADD SWAP3 POP POP POP POP POP POP POP DUP2 MSTORE POP PUSH1 0x9 PUSH0 DUP8 DUP2 MSTORE PUSH1 0x20 ADD SWAP1 DUP2 MSTORE PUSH1 0x20 ADD PUSH0 KECCAK256 PUSH0 DUP14 PUSH1 0x1 PUSH1 0x1 PUSH1 0x40 SHL SUB AND PUSH1 0x1 PUSH1 0x1 PUSH1 0x40 SHL SUB AND DUP2 MSTORE PUSH1 0x20 ADD SWAP1 DUP2 MSTORE PUSH1 0x20 ADD PUSH0 KECCAK256 PUSH0 DUP3 ADD MLOAD DUP2 PUSH0 ADD SWAP1 DUP2 PUSH2 0x1707 SWAP2 SWAP1 PUSH2 0x35A1 JUMP JUMPDEST POP PUSH1 0x20 DUP3 ADD MLOAD PUSH1 0x1 DUP3 ADD SWAP1 PUSH2 0x171C SWAP1 DUP3 PUSH2 0x35A1 JUMP JUMPDEST POP PUSH1 0x40 DUP3 ADD MLOAD PUSH1 0x2 DUP3 ADD SWAP1 PUSH2 0x1731 SWAP1 DUP3 PUSH2 0x35A1 JUMP JUMPDEST POP POP POP POP POP POP POP POP POP POP POP POP POP POP JUMP JUMPDEST PUSH1 0x60 PUSH2 0x174D PUSH1 0x5 PUSH2 0x1CC4 JUMP JUMPDEST SWAP1 POP SWAP1 JUMP JUMPDEST PUSH1 0x9 PUSH1 0x20 SWAP1 DUP2 MSTORE PUSH0 SWAP3 DUP4 MSTORE PUSH1 0x40 DUP1 DUP5 KECCAK256 SWAP1 SWAP2 MSTORE SWAP1 DUP3 MSTORE SWAP1 KECCAK256 DUP1 SLOAD DUP2 SWAP1 PUSH2 0x1777 SWAP1 PUSH2 0x3292 JUMP JUMPDEST DUP1 PUSH1 0x1F ADD PUSH1 0x20 DUP1 SWAP2 DIV MUL PUSH1 0x20 ADD PUSH1 0x40 MLOAD SWAP1 DUP2 ADD PUSH1 0x40 MSTORE DUP1 SWAP3 SWAP2 SWAP1 DUP2 DUP2 MSTORE PUSH1 0x20 ADD DUP3 DUP1 SLOAD PUSH2 0x17A3 SWAP1 PUSH2 0x3292 JUMP JUMPDEST DUP1 ISZERO PUSH2 0x17EE JUMPI DUP1 PUSH1 0x1F LT PUSH2 0x17C5 JUMPI PUSH2 0x100 DUP1 DUP4 SLOAD DIV MUL DUP4 MSTORE SWAP2 PUSH1 0x20 ADD SWAP2 PUSH2 0x17EE JUMP JUMPDEST DUP3 ADD SWAP2 SWAP1 PUSH0 MSTORE PUSH1 0x20 PUSH0 KECCAK256 SWAP1 JUMPDEST DUP2 SLOAD DUP2 MSTORE SWAP1 PUSH1 0x1 ADD SWAP1 PUSH1 0x20 ADD DUP1 DUP4 GT PUSH2 0x17D1 JUMPI DUP3 SWAP1 SUB PUSH1 0x1F AND DUP3 ADD SWAP2 JUMPDEST POP POP POP POP POP SWAP1 DUP1 PUSH1 0x1 ADD DUP1 SLOAD PUSH2 0x1803 SWAP1 PUSH2 0x3292 JUMP JUMPDEST DUP1 PUSH1 0x1F ADD PUSH1 0x20 DUP1 SWAP2 DIV MUL PUSH1 0x20 ADD PUSH1 0x40 MLOAD SWAP1 DUP2 ADD PUSH1 0x40 MSTORE DUP1 SWAP3 SWAP2 SWAP1 DUP2 DUP2 MSTORE PUSH1 0x20 ADD DUP3 DUP1 SLOAD PUSH2 0x182F SWAP1 PUSH2 0x3292 JUMP JUMPDEST DUP1 ISZERO PUSH2 0x187A JUMPI DUP1 PUSH1 0x1F LT PUSH2 0x1851 JUMPI PUSH2 0x100 DUP1 DUP4 SLOAD DIV MUL DUP4 MSTORE SWAP2 PUSH1 0x20 ADD SWAP2 PUSH2 0x187A JUMP JUMPDEST DUP3 ADD SWAP2 SWAP1 PUSH0 MSTORE PUSH1 0x20 PUSH0 KECCAK256 SWAP1 JUMPDEST DUP2 SLOAD DUP2 MSTORE SWAP1 PUSH1 0x1 ADD SWAP1 PUSH1 0x20 ADD DUP1 DUP4 GT PUSH2 0x185D JUMPI DUP3 SWAP1 SUB PUSH1 0x1F AND DUP3 ADD SWAP2 JUMPDEST POP POP POP POP POP SWAP1 DUP1 PUSH1 0x2 ADD DUP1 SLOAD PUSH2 0x188F SWAP1 PUSH2 0x3292 JUMP JUMPDEST DUP1 PUSH1 0x1F ADD PUSH1 0x20 DUP1 SWAP2 DIV MUL PUSH1 0x20 ADD PUSH1 0x40 MLOAD SWAP1 DUP2 ADD PUSH1 0x40 MSTORE DUP1 SWAP3 SWAP2 SWAP1 DUP2 DUP2 MSTORE PUSH1 0x20 ADD DUP3 DUP1 SLOAD PUSH2 0x18BB SWAP1 PUSH2 0x3292 JUMP JUMPDEST DUP1 ISZERO PUSH2 0x1906 JUMPI DUP1 PUSH1 0x1F LT PUSH2 0x18DD JUMPI PUSH2 0x100 DUP1 DUP4 SLOAD DIV MUL DUP4 MSTORE SWAP2 PUSH1 0x20 ADD SWAP2 PUSH2 0x1906 JUMP JUMPDEST DUP3 ADD SWAP2 SWAP1 PUSH0 MSTORE PUSH1 0x20 PUSH0 KECCAK256 SWAP1 JUMPDEST DUP2 SLOAD DUP2 MSTORE SWAP1 PUSH1 0x1 ADD SWAP1 PUSH1 0x20 ADD DUP1 DUP4 GT PUSH2 0x18E9 JUMPI DUP3 SWAP1 SUB PUSH1 0x1F AND DUP3 ADD SWAP2 JUMPDEST POP POP POP POP POP SWAP1 POP DUP4 JUMP JUMPDEST PUSH2 0x191B CALLER DUP4 DUP4 PUSH2 0x2231 JUMP JUMPDEST POP POP JUMP JUMPDEST PUSH2 0x1928 CALLER PUSH2 0x217A JUMP JUMPDEST PUSH2 0x196D JUMPI PUSH1 0x40 MLOAD PUSH3 0x461BCD PUSH1 0xE5 SHL DUP2 MSTORE PUSH1 0x20 PUSH1 0x4 DUP3 ADD MSTORE PUSH1 0x16 PUSH1 0x24 DUP3 ADD MSTORE PUSH22 0x21B0B63632B91034B9903737BA1030B71030B236B4B7 PUSH1 0x51 SHL PUSH1 0x44 DUP3 ADD MSTORE PUSH1 0x64 ADD PUSH2 0xB72 JUMP JUMPDEST PUSH2 0x1978 PUSH1 0x5 DUP6 PUSH2 0x1D32 JUMP JUMPDEST PUSH2 0x19BE JUMPI PUSH1 0x40 MLOAD PUSH3 0x461BCD PUSH1 0xE5 SHL DUP2 MSTORE PUSH1 0x20 PUSH1 0x4 DUP3 ADD MSTORE PUSH1 0x17 PUSH1 0x24 DUP3 ADD MSTORE PUSH23 0x1D1BDAD95B881A5908191BD95CC81B9BDD08195E1A5CDD PUSH1 0x4A SHL PUSH1 0x44 DUP3 ADD MSTORE PUSH1 0x64 ADD PUSH2 0xB72 JUMP JUMPDEST PUSH0 DUP5 DUP2 MSTORE PUSH1 0x8 PUSH1 0x20 SWAP1 DUP2 MSTORE PUSH1 0x40 DUP1 DUP4 KECCAK256 PUSH1 0x1 PUSH1 0x1 PUSH1 0x40 SHL SUB DUP8 AND DUP5 MSTORE SWAP1 SWAP2 MSTORE SWAP1 KECCAK256 DUP1 SLOAD PUSH2 0x19EA SWAP1 PUSH2 0x3292 JUMP JUMPDEST ISZERO SWAP1 POP PUSH2 0x1A39 JUMPI PUSH1 0x40 MLOAD PUSH3 0x461BCD PUSH1 0xE5 SHL DUP2 MSTORE PUSH1 0x20 PUSH1 0x4 DUP3 ADD MSTORE PUSH1 0x1C PUSH1 0x24 DUP3 ADD MSTORE PUSH32 0x50726F6F66207265717565737420616C72656164792065786973747300000000 PUSH1 0x44 DUP3 ADD MSTORE PUSH1 0x64 ADD PUSH2 0xB72 JUMP JUMPDEST PUSH1 0x40 DUP1 MLOAD DUP1 DUP3 ADD DUP3 MSTORE PUSH1 0x6 DUP2 MSTORE PUSH6 0x39B2B73232B9 PUSH1 0xD1 SHL PUSH1 0x20 SWAP1 SWAP2 ADD MSTORE MLOAD PUSH32 0x168E92CE035BA45E59A0314B0ED9A9E619B284AED8F6E5AB0A596EFD5C9F5CF9 SWAP1 PUSH2 0x1A86 SWAP1 DUP5 SWAP1 DUP5 SWAP1 PUSH2 0x3317 JUMP JUMPDEST PUSH1 0x40 MLOAD DUP1 SWAP2 SUB SWAP1 KECCAK256 EQ DUP1 PUSH2 0x1AEE JUMPI POP PUSH1 0x40 DUP1 MLOAD DUP1 DUP3 ADD DUP3 MSTORE PUSH1 0x8 DUP2 MSTORE PUSH8 0x3932B1B2B4BB32B9 PUSH1 0xC1 SHL PUSH1 0x20 SWAP1 SWAP2 ADD MSTORE MLOAD PUSH32 0x5E784E45FEB63C375016D4CE5C52A57B0A48B8A170BC2E31463BE0D03D1C4DB6 SWAP1 PUSH2 0x1AE4 SWAP1 DUP5 SWAP1 DUP5 SWAP1 PUSH2 0x3317 JUMP JUMPDEST PUSH1 0x40 MLOAD DUP1 SWAP2 SUB SWAP1 KECCAK256 EQ JUMPDEST PUSH2 0x1B46 JUMPI PUSH1 0x40 MLOAD PUSH3 0x461BCD PUSH1 0xE5 SHL DUP2 MSTORE PUSH1 0x20 PUSH1 0x4 DUP3 ADD MSTORE PUSH1 0x23 PUSH1 0x24 DUP3 ADD MSTORE PUSH32 0x526F6C65206D757374206265202773656E64657227206F722027726563656976 PUSH1 0x44 DUP3 ADD MSTORE PUSH3 0x657227 PUSH1 0xE8 SHL PUSH1 0x64 DUP3 ADD MSTORE PUSH1 0x84 ADD PUSH2 0xB72 JUMP JUMPDEST PUSH0 DUP5 DUP2 MSTORE PUSH1 0x8 PUSH1 0x20 SWAP1 DUP2 MSTORE PUSH1 0x40 DUP1 DUP4 KECCAK256 PUSH1 0x1 PUSH1 0x1 PUSH1 0x40 SHL SUB DUP8 AND DUP5 MSTORE SWAP1 SWAP2 MSTORE SWAP1 KECCAK256 PUSH2 0x1B72 DUP3 DUP5 DUP4 PUSH2 0x344A JUMP JUMPDEST POP POP PUSH1 0xA DUP1 SLOAD PUSH1 0x1 DUP2 ADD DUP3 SSTORE PUSH0 SWAP2 SWAP1 SWAP2 MSTORE PUSH32 0xC65A7BB8D6351C1CF70C95A316CC6A92839C986682D98BC35F958F4883F9D2A8 PUSH1 0x4 DUP3 DIV ADD DUP1 SLOAD PUSH1 0x3 SWAP1 SWAP3 AND PUSH1 0x8 MUL PUSH2 0x100 EXP PUSH1 0x1 PUSH1 0x1 PUSH1 0x40 SHL SUB DUP2 DUP2 MUL NOT SWAP1 SWAP4 AND SWAP5 SWAP1 SWAP3 AND SWAP2 SWAP1 SWAP2 MUL SWAP3 SWAP1 SWAP3 OR SWAP1 SWAP2 SSTORE POP POP JUMP JUMPDEST PUSH1 0xA DUP2 DUP2 SLOAD DUP2 LT PUSH2 0x1BE8 JUMPI PUSH0 DUP1 REVERT JUMPDEST SWAP1 PUSH0 MSTORE PUSH1 0x20 PUSH0 KECCAK256 SWAP1 PUSH1 0x4 SWAP2 DUP3 DUP3 DIV ADD SWAP2 SWAP1 MOD PUSH1 0x8 MUL SWAP2 POP SLOAD SWAP1 PUSH2 0x100 EXP SWAP1 DIV PUSH1 0x1 PUSH1 0x1 PUSH1 0x40 SHL SUB AND DUP2 JUMP JUMPDEST PUSH1 0x7 PUSH1 0x20 MSTORE PUSH0 SWAP1 DUP2 MSTORE PUSH1 0x40 SWAP1 KECCAK256 DUP1 SLOAD PUSH2 0xF9D SWAP1 PUSH2 0x3292 JUMP JUMPDEST PUSH2 0x1C36 DUP4 DUP7 DUP7 PUSH2 0x1D54 JUMP JUMPDEST PUSH2 0x1C43 DUP6 DUP6 DUP6 DUP6 DUP6 PUSH2 0x22C5 JUMP JUMPDEST POP POP POP POP POP JUMP JUMPDEST PUSH2 0x1C52 PUSH2 0x1C97 JUMP JUMPDEST PUSH1 0x1 PUSH1 0x1 PUSH1 0xA0 SHL SUB DUP2 AND PUSH2 0x1C7B JUMPI PUSH1 0x40 MLOAD PUSH4 0x1E4FBDF7 PUSH1 0xE0 SHL DUP2 MSTORE PUSH0 PUSH1 0x4 DUP3 ADD MSTORE PUSH1 0x24 ADD PUSH2 0xB72 JUMP JUMPDEST PUSH2 0xB7B DUP2 PUSH2 0x21E0 JUMP JUMPDEST PUSH2 0x1C8C PUSH2 0x1C97 JUMP JUMPDEST PUSH2 0x13D7 DUP4 DUP4 DUP4 PUSH2 0x2342 JUMP JUMPDEST PUSH1 0x3 SLOAD PUSH1 0x1 PUSH1 0x1 PUSH1 0xA0 SHL SUB AND CALLER EQ PUSH2 0x14E4 JUMPI PUSH1 0x40 MLOAD PUSH4 0x118CDAA7 PUSH1 0xE0 SHL DUP2 MSTORE CALLER PUSH1 0x4 DUP3 ADD MSTORE PUSH1 0x24 ADD PUSH2 0xB72 JUMP JUMPDEST PUSH1 0x60 PUSH0 PUSH2 0x1CD0 DUP4 PUSH2 0x23A8 JUMP JUMPDEST SWAP4 SWAP3 POP POP POP JUMP JUMPDEST PUSH1 0x1 PUSH1 0x1 PUSH1 0xA0 SHL SUB DUP5 AND PUSH2 0x1D00 JUMPI PUSH1 0x40 MLOAD PUSH4 0x2BFA23E7 PUSH1 0xE1 SHL DUP2 MSTORE PUSH0 PUSH1 0x4 DUP3 ADD MSTORE PUSH1 0x24 ADD PUSH2 0xB72 JUMP JUMPDEST PUSH1 0x40 DUP1 MLOAD PUSH1 0x1 DUP1 DUP3 MSTORE PUSH1 0x20 DUP3 ADD DUP7 SWAP1 MSTORE DUP2 DUP4 ADD SWAP1 DUP2 MSTORE PUSH1 0x60 DUP3 ADD DUP6 SWAP1 MSTORE PUSH1 0x80 DUP3 ADD SWAP1 SWAP3 MSTORE SWAP1 PUSH2 0xF72 PUSH0 DUP8 DUP5 DUP5 DUP8 PUSH2 0x2400 JUMP JUMPDEST PUSH0 DUP2 DUP2 MSTORE PUSH1 0x1 DUP4 ADD PUSH1 0x20 MSTORE PUSH1 0x40 DUP2 KECCAK256 SLOAD ISZERO ISZERO PUSH2 0x1CD0 JUMP JUMPDEST PUSH0 PUSH2 0x1CD0 DUP4 DUP4 PUSH2 0x2453 JUMP JUMPDEST PUSH0 PUSH1 0xA DUP1 SLOAD DUP1 PUSH1 0x20 MUL PUSH1 0x20 ADD PUSH1 0x40 MLOAD SWAP1 DUP2 ADD PUSH1 0x40 MSTORE DUP1 SWAP3 SWAP2 SWAP1 DUP2 DUP2 MSTORE PUSH1 0x20 ADD DUP3 DUP1 SLOAD DUP1 ISZERO PUSH2 0x1DD0 JUMPI PUSH1 0x20 MUL DUP3 ADD SWAP2 SWAP1 PUSH0 MSTORE PUSH1 0x20 PUSH0 KECCAK256 SWAP1 PUSH0 SWAP1 JUMPDEST DUP3 DUP3 SWAP1 SLOAD SWAP1 PUSH2 0x100 EXP SWAP1 DIV PUSH1 0x1 PUSH1 0x1 PUSH1 0x40 SHL SUB AND PUSH1 0x1 PUSH1 0x1 PUSH1 0x40 SHL SUB AND DUP2 MSTORE PUSH1 0x20 ADD SWAP1 PUSH1 0x8 ADD SWAP1 PUSH1 0x20 DUP3 PUSH1 0x7 ADD DIV SWAP3 DUP4 ADD SWAP3 PUSH1 0x1 SUB DUP3 MUL SWAP2 POP DUP1 DUP5 GT PUSH2 0x1D8D JUMPI SWAP1 POP JUMPDEST POP POP POP POP POP SWAP1 POP PUSH0 JUMPDEST DUP2 MLOAD DUP2 LT ISZERO PUSH2 0x1C43 JUMPI PUSH0 DUP6 DUP2 MSTORE PUSH1 0x8 PUSH1 0x20 MSTORE PUSH1 0x40 DUP2 KECCAK256 DUP4 MLOAD DUP3 SWAP1 DUP6 SWAP1 DUP6 SWAP1 DUP2 LT PUSH2 0x1E05 JUMPI PUSH2 0x1E05 PUSH2 0x327E JUMP JUMPDEST PUSH1 0x20 MUL PUSH1 0x20 ADD ADD MLOAD PUSH1 0x1 PUSH1 0x1 PUSH1 0x40 SHL SUB AND PUSH1 0x1 PUSH1 0x1 PUSH1 0x40 SHL SUB AND DUP2 MSTORE PUSH1 0x20 ADD SWAP1 DUP2 MSTORE PUSH1 0x20 ADD PUSH0 KECCAK256 DUP1 SLOAD PUSH2 0x1E37 SWAP1 PUSH2 0x3292 JUMP JUMPDEST DUP1 PUSH1 0x1F ADD PUSH1 0x20 DUP1 SWAP2 DIV MUL PUSH1 0x20 ADD PUSH1 0x40 MLOAD SWAP1 DUP2 ADD PUSH1 0x40 MSTORE DUP1 SWAP3 SWAP2 SWAP1 DUP2 DUP2 MSTORE PUSH1 0x20 ADD DUP3 DUP1 SLOAD PUSH2 0x1E63 SWAP1 PUSH2 0x3292 JUMP JUMPDEST DUP1 ISZERO PUSH2 0x1EAE JUMPI DUP1 PUSH1 0x1F LT PUSH2 0x1E85 JUMPI PUSH2 0x100 DUP1 DUP4 SLOAD DIV MUL DUP4 MSTORE SWAP2 PUSH1 0x20 ADD SWAP2 PUSH2 0x1EAE JUMP JUMPDEST DUP3 ADD SWAP2 SWAP1 PUSH0 MSTORE PUSH1 0x20 PUSH0 KECCAK256 SWAP1 JUMPDEST DUP2 SLOAD DUP2 MSTORE SWAP1 PUSH1 0x1 ADD SWAP1 PUSH1 0x20 ADD DUP1 DUP4 GT PUSH2 0x1E91 JUMPI DUP3 SWAP1 SUB PUSH1 0x1F AND DUP3 ADD SWAP2 JUMPDEST POP POP POP POP POP SWAP1 POP DUP1 MLOAD PUSH0 SUB PUSH2 0x1EC3 JUMPI POP PUSH2 0x2168 JUMP JUMPDEST PUSH1 0x40 DUP1 MLOAD DUP1 DUP3 ADD SWAP1 SWAP2 MSTORE PUSH1 0x6 DUP2 MSTORE PUSH6 0x39B2B73232B9 PUSH1 0xD1 SHL PUSH1 0x20 SWAP2 DUP3 ADD MSTORE DUP2 MLOAD SWAP1 DUP3 ADD KECCAK256 PUSH32 0xE9716D31FCA45BA1A65FCEB4F1265619E64D7B5127091A54F5A69102A360A307 ADD PUSH2 0x2016 JUMPI PUSH1 0xB SLOAD DUP4 MLOAD PUSH1 0x1 PUSH1 0x1 PUSH1 0xA0 SHL SUB SWAP1 SWAP2 AND SWAP1 PUSH4 0x8C1DA2C9 SWAP1 DUP8 SWAP1 DUP7 SWAP1 DUP7 SWAP1 DUP2 LT PUSH2 0x1F38 JUMPI PUSH2 0x1F38 PUSH2 0x327E JUMP JUMPDEST PUSH1 0x20 MUL PUSH1 0x20 ADD ADD MLOAD PUSH1 0x40 MLOAD DUP4 PUSH4 0xFFFFFFFF AND PUSH1 0xE0 SHL DUP2 MSTORE PUSH1 0x4 ADD PUSH2 0x1F7A SWAP3 SWAP2 SWAP1 PUSH1 0x1 PUSH1 0x1 PUSH1 0xA0 SHL SUB SWAP3 SWAP1 SWAP3 AND DUP3 MSTORE PUSH1 0x1 PUSH1 0x1 PUSH1 0x40 SHL SUB AND PUSH1 0x20 DUP3 ADD MSTORE PUSH1 0x40 ADD SWAP1 JUMP JUMPDEST PUSH0 PUSH1 0x40 MLOAD DUP1 DUP4 SUB DUP2 DUP7 GAS STATICCALL ISZERO DUP1 ISZERO PUSH2 0x1F94 JUMPI RETURNDATASIZE PUSH0 DUP1 RETURNDATACOPY RETURNDATASIZE PUSH0 REVERT JUMPDEST POP POP POP POP PUSH1 0x40 MLOAD RETURNDATASIZE PUSH0 DUP3 RETURNDATACOPY PUSH1 0x1F RETURNDATASIZE SWAP1 DUP2 ADD PUSH1 0x1F NOT AND DUP3 ADD PUSH1 0x40 MSTORE PUSH2 0x1FBB SWAP2 SWAP1 DUP2 ADD SWAP1 PUSH2 0x365C JUMP JUMPDEST MLOAD PUSH2 0x2011 JUMPI DUP3 DUP3 DUP2 MLOAD DUP2 LT PUSH2 0x1FD2 JUMPI PUSH2 0x1FD2 PUSH2 0x327E JUMP JUMPDEST PUSH1 0x20 SWAP1 DUP2 MUL SWAP2 SWAP1 SWAP2 ADD ADD MLOAD PUSH1 0x40 MLOAD PUSH4 0x52D23047 PUSH1 0xE1 SHL DUP2 MSTORE PUSH1 0x1 PUSH1 0x1 PUSH1 0x40 SHL SUB SWAP1 SWAP2 AND PUSH1 0x4 DUP3 ADD MSTORE PUSH1 0x1 PUSH1 0x1 PUSH1 0xA0 SHL SUB DUP7 AND PUSH1 0x24 DUP3 ADD MSTORE PUSH1 0x44 ADD PUSH2 0xB72 JUMP JUMPDEST PUSH2 0x2166 JUMP JUMPDEST PUSH1 0x40 DUP1 MLOAD DUP1 DUP3 ADD SWAP1 SWAP2 MSTORE PUSH1 0x8 DUP2 MSTORE PUSH8 0x3932B1B2B4BB32B9 PUSH1 0xC1 SHL PUSH1 0x20 SWAP2 DUP3 ADD MSTORE DUP2 MLOAD SWAP1 DUP3 ADD KECCAK256 PUSH32 0xA187B1BA0149C3C8AFE92B31A3AD5A84F5B7475E8F43D1CEB9C41F2FC2E3B24A ADD PUSH2 0x2166 JUMPI PUSH1 0xB SLOAD DUP4 MLOAD PUSH1 0x1 PUSH1 0x1 PUSH1 0xA0 SHL SUB SWAP1 SWAP2 AND SWAP1 PUSH4 0x8C1DA2C9 SWAP1 DUP7 SWAP1 DUP7 SWAP1 DUP7 SWAP1 DUP2 LT PUSH2 0x208D JUMPI PUSH2 0x208D PUSH2 0x327E JUMP JUMPDEST PUSH1 0x20 MUL PUSH1 0x20 ADD ADD MLOAD PUSH1 0x40 MLOAD DUP4 PUSH4 0xFFFFFFFF AND PUSH1 0xE0 SHL DUP2 MSTORE PUSH1 0x4 ADD PUSH2 0x20CF SWAP3 SWAP2 SWAP1 PUSH1 0x1 PUSH1 0x1 PUSH1 0xA0 SHL SUB SWAP3 SWAP1 SWAP3 AND DUP3 MSTORE PUSH1 0x1 PUSH1 0x1 PUSH1 0x40 SHL SUB AND PUSH1 0x20 DUP3 ADD MSTORE PUSH1 0x40 ADD SWAP1 JUMP JUMPDEST PUSH0 PUSH1 0x40 MLOAD DUP1 DUP4 SUB DUP2 DUP7 GAS STATICCALL ISZERO DUP1 ISZERO PUSH2 0x20E9 JUMPI RETURNDATASIZE PUSH0 DUP1 RETURNDATACOPY RETURNDATASIZE PUSH0 REVERT JUMPDEST POP POP POP POP PUSH1 0x40 MLOAD RETURNDATASIZE PUSH0 DUP3 RETURNDATACOPY PUSH1 0x1F RETURNDATASIZE SWAP1 DUP2 ADD PUSH1 0x1F NOT AND DUP3 ADD PUSH1 0x40 MSTORE PUSH2 0x2110 SWAP2 SWAP1 DUP2 ADD SWAP1 PUSH2 0x365C JUMP JUMPDEST MLOAD PUSH2 0x2166 JUMPI DUP3 DUP3 DUP2 MLOAD DUP2 LT PUSH2 0x2127 JUMPI PUSH2 0x2127 PUSH2 0x327E JUMP JUMPDEST PUSH1 0x20 SWAP1 DUP2 MUL SWAP2 SWAP1 SWAP2 ADD ADD MLOAD PUSH1 0x40 MLOAD PUSH4 0x52D23047 PUSH1 0xE1 SHL DUP2 MSTORE PUSH1 0x1 PUSH1 0x1 PUSH1 0x40 SHL SUB SWAP1 SWAP2 AND PUSH1 0x4 DUP3 ADD MSTORE PUSH1 0x1 PUSH1 0x1 PUSH1 0xA0 SHL SUB DUP6 AND PUSH1 0x24 DUP3 ADD MSTORE PUSH1 0x44 ADD PUSH2 0xB72 JUMP JUMPDEST POP JUMPDEST DUP1 PUSH2 0x2172 DUP2 PUSH2 0x32D8 JUMP JUMPDEST SWAP2 POP POP PUSH2 0x1DD9 JUMP JUMPDEST PUSH0 DUP1 JUMPDEST PUSH1 0x4 SLOAD DUP2 LT ISZERO PUSH2 0x21D8 JUMPI DUP3 PUSH1 0x1 PUSH1 0x1 PUSH1 0xA0 SHL SUB AND PUSH1 0x4 DUP3 DUP2 SLOAD DUP2 LT PUSH2 0x21A4 JUMPI PUSH2 0x21A4 PUSH2 0x327E JUMP JUMPDEST PUSH0 SWAP2 DUP3 MSTORE PUSH1 0x20 SWAP1 SWAP2 KECCAK256 ADD SLOAD PUSH1 0x1 PUSH1 0x1 PUSH1 0xA0 SHL SUB AND SUB PUSH2 0x21C6 JUMPI POP PUSH1 0x1 SWAP3 SWAP2 POP POP JUMP JUMPDEST DUP1 PUSH2 0x21D0 DUP2 PUSH2 0x32D8 JUMP JUMPDEST SWAP2 POP POP PUSH2 0x217D JUMP JUMPDEST POP PUSH0 SWAP3 SWAP2 POP POP JUMP JUMPDEST PUSH1 0x3 DUP1 SLOAD PUSH1 0x1 PUSH1 0x1 PUSH1 0xA0 SHL SUB DUP4 DUP2 AND PUSH1 0x1 PUSH1 0x1 PUSH1 0xA0 SHL SUB NOT DUP4 AND DUP2 OR SWAP1 SWAP4 SSTORE PUSH1 0x40 MLOAD SWAP2 AND SWAP2 SWAP1 DUP3 SWAP1 PUSH32 0x8BE0079C531659141344CD1FD0A4F28419497F9722A3DAAFE3B4186F6B6457E0 SWAP1 PUSH0 SWAP1 LOG3 POP POP JUMP JUMPDEST PUSH1 0x1 PUSH1 0x1 PUSH1 0xA0 SHL SUB DUP3 AND PUSH2 0x2259 JUMPI PUSH1 0x40 MLOAD PUSH3 0xCED3E1 PUSH1 0xE8 SHL DUP2 MSTORE PUSH0 PUSH1 0x4 DUP3 ADD MSTORE PUSH1 0x24 ADD PUSH2 0xB72 JUMP JUMPDEST PUSH1 0x1 PUSH1 0x1 PUSH1 0xA0 SHL SUB DUP4 DUP2 AND PUSH0 DUP2 DUP2 MSTORE PUSH1 0x1 PUSH1 0x20 SWAP1 DUP2 MSTORE PUSH1 0x40 DUP1 DUP4 KECCAK256 SWAP5 DUP8 AND DUP1 DUP5 MSTORE SWAP5 DUP3 MSTORE SWAP2 DUP3 SWAP1 KECCAK256 DUP1 SLOAD PUSH1 0xFF NOT AND DUP7 ISZERO ISZERO SWAP1 DUP2 OR SWAP1 SWAP2 SSTORE SWAP2 MLOAD SWAP2 DUP3 MSTORE PUSH32 0x17307EAB39AB6107E8899845AD3D59BD9653F200F220920489CA2B5937696C31 SWAP2 ADD PUSH1 0x40 MLOAD DUP1 SWAP2 SUB SWAP1 LOG3 POP POP POP JUMP JUMPDEST CALLER PUSH1 0x1 PUSH1 0x1 PUSH1 0xA0 SHL SUB DUP7 AND DUP2 EQ DUP1 ISZERO SWAP1 PUSH2 0x2304 JUMPI POP PUSH1 0x1 PUSH1 0x1 PUSH1 0xA0 SHL SUB DUP1 DUP8 AND PUSH0 SWAP1 DUP2 MSTORE PUSH1 0x1 PUSH1 0x20 SWAP1 DUP2 MSTORE PUSH1 0x40 DUP1 DUP4 KECCAK256 SWAP4 DUP6 AND DUP4 MSTORE SWAP3 SWAP1 MSTORE KECCAK256 SLOAD PUSH1 0xFF AND ISZERO JUMPDEST ISZERO PUSH2 0x2335 JUMPI PUSH1 0x40 MLOAD PUSH4 0x711BEC91 PUSH1 0xE1 SHL DUP2 MSTORE PUSH1 0x1 PUSH1 0x1 PUSH1 0xA0 SHL SUB DUP1 DUP4 AND PUSH1 0x4 DUP4 ADD MSTORE DUP8 AND PUSH1 0x24 DUP3 ADD MSTORE PUSH1 0x44 ADD PUSH2 0xB72 JUMP JUMPDEST PUSH2 0xF72 DUP7 DUP7 DUP7 DUP7 DUP7 PUSH2 0x249F JUMP JUMPDEST PUSH1 0x1 PUSH1 0x1 PUSH1 0xA0 SHL SUB DUP4 AND PUSH2 0x236A JUMPI PUSH1 0x40 MLOAD PUSH3 0x6A0D45 PUSH1 0xE2 SHL DUP2 MSTORE PUSH0 PUSH1 0x4 DUP3 ADD MSTORE PUSH1 0x24 ADD PUSH2 0xB72 JUMP JUMPDEST PUSH1 0x40 DUP1 MLOAD PUSH1 0x1 DUP1 DUP3 MSTORE PUSH1 0x20 DUP3 ADD DUP6 SWAP1 MSTORE DUP2 DUP4 ADD SWAP1 DUP2 MSTORE PUSH1 0x60 DUP3 ADD DUP5 SWAP1 MSTORE PUSH1 0xA0 DUP3 ADD SWAP1 SWAP3 MSTORE PUSH0 PUSH1 0x80 DUP3 ADD DUP2 DUP2 MSTORE SWAP2 SWAP3 SWAP2 PUSH2 0x1C43 SWAP2 DUP8 SWAP2 DUP6 SWAP1 DUP6 SWAP1 PUSH2 0x2400 JUMP JUMPDEST PUSH1 0x60 DUP2 PUSH0 ADD DUP1 SLOAD DUP1 PUSH1 0x20 MUL PUSH1 0x20 ADD PUSH1 0x40 MLOAD SWAP1 DUP2 ADD PUSH1 0x40 MSTORE DUP1 SWAP3 SWAP2 SWAP1 DUP2 DUP2 MSTORE PUSH1 0x20 ADD DUP3 DUP1 SLOAD DUP1 ISZERO PUSH2 0xA26 JUMPI PUSH1 0x20 MUL DUP3 ADD SWAP2 SWAP1 PUSH0 MSTORE PUSH1 0x20 PUSH0 KECCAK256 SWAP1 JUMPDEST DUP2 SLOAD DUP2 MSTORE PUSH1 0x20 ADD SWAP1 PUSH1 0x1 ADD SWAP1 DUP1 DUP4 GT PUSH2 0x23E1 JUMPI POP POP POP POP POP SWAP1 POP SWAP2 SWAP1 POP JUMP JUMPDEST PUSH2 0x240C DUP6 DUP6 DUP6 DUP6 PUSH2 0x252B JUMP JUMPDEST PUSH1 0x1 PUSH1 0x1 PUSH1 0xA0 SHL SUB DUP5 AND ISZERO PUSH2 0x1C43 JUMPI DUP3 MLOAD CALLER SWAP1 PUSH1 0x1 SUB PUSH2 0x2445 JUMPI PUSH1 0x20 DUP5 DUP2 ADD MLOAD SWAP1 DUP5 ADD MLOAD PUSH2 0x243E DUP4 DUP10 DUP10 DUP6 DUP6 DUP10 PUSH2 0x2743 JUMP JUMPDEST POP POP PUSH2 0xF72 JUMP JUMPDEST PUSH2 0xF72 DUP2 DUP8 DUP8 DUP8 DUP8 DUP8 PUSH2 0x2864 JUMP JUMPDEST PUSH0 DUP2 DUP2 MSTORE PUSH1 0x1 DUP4 ADD PUSH1 0x20 MSTORE PUSH1 0x40 DUP2 KECCAK256 SLOAD PUSH2 0x2498 JUMPI POP DUP2 SLOAD PUSH1 0x1 DUP2 DUP2 ADD DUP5 SSTORE PUSH0 DUP5 DUP2 MSTORE PUSH1 0x20 DUP1 DUP3 KECCAK256 SWAP1 SWAP4 ADD DUP5 SWAP1 SSTORE DUP5 SLOAD DUP5 DUP3 MSTORE DUP3 DUP7 ADD SWAP1 SWAP4 MSTORE PUSH1 0x40 SWAP1 KECCAK256 SWAP2 SWAP1 SWAP2 SSTORE PUSH2 0x47B JUMP JUMPDEST POP PUSH0 PUSH2 0x47B JUMP JUMPDEST PUSH1 0x1 PUSH1 0x1 PUSH1 0xA0 SHL SUB DUP5 AND PUSH2 0x24C8 JUMPI PUSH1 0x40 MLOAD PUSH4 0x2BFA23E7 PUSH1 0xE1 SHL DUP2 MSTORE PUSH0 PUSH1 0x4 DUP3 ADD MSTORE PUSH1 0x24 ADD PUSH2 0xB72 JUMP JUMPDEST PUSH1 0x1 PUSH1 0x1 PUSH1 0xA0 SHL SUB DUP6 AND PUSH2 0x24F0 JUMPI PUSH1 0x40 MLOAD PUSH3 0x6A0D45 PUSH1 0xE2 SHL DUP2 MSTORE PUSH0 PUSH1 0x4 DUP3 ADD MSTORE PUSH1 0x24 ADD PUSH2 0xB72 JUMP JUMPDEST PUSH1 0x40 DUP1 MLOAD PUSH1 0x1 DUP1 DUP3 MSTORE PUSH1 0x20 DUP3 ADD DUP7 SWAP1 MSTORE DUP2 DUP4 ADD SWAP1 DUP2 MSTORE PUSH1 0x60 DUP3 ADD DUP6 SWAP1 MSTORE PUSH1 0x80 DUP3 ADD SWAP1 SWAP3 MSTORE SWAP1 PUSH2 0x2522 DUP8 DUP8 DUP5 DUP5 DUP8 PUSH2 0x2400 JUMP JUMPDEST POP POP POP POP POP POP POP JUMP JUMPDEST DUP1 MLOAD DUP3 MLOAD EQ PUSH2 0x255A JUMPI DUP2 MLOAD DUP2 MLOAD PUSH1 0x40 MLOAD PUSH4 0x5B059991 PUSH1 0xE0 SHL DUP2 MSTORE PUSH1 0x4 DUP2 ADD SWAP3 SWAP1 SWAP3 MSTORE PUSH1 0x24 DUP3 ADD MSTORE PUSH1 0x44 ADD PUSH2 0xB72 JUMP JUMPDEST CALLER PUSH0 JUMPDEST DUP4 MLOAD DUP2 LT ISZERO PUSH2 0x2665 JUMPI PUSH1 0x20 DUP2 DUP2 MUL DUP6 DUP2 ADD DUP3 ADD MLOAD SWAP1 DUP6 ADD SWAP1 SWAP2 ADD MLOAD PUSH1 0x1 PUSH1 0x1 PUSH1 0xA0 SHL SUB DUP9 AND ISZERO PUSH2 0x260E JUMPI PUSH0 DUP3 DUP2 MSTORE PUSH1 0x20 DUP2 DUP2 MSTORE PUSH1 0x40 DUP1 DUP4 KECCAK256 PUSH1 0x1 PUSH1 0x1 PUSH1 0xA0 SHL SUB DUP13 AND DUP5 MSTORE SWAP1 SWAP2 MSTORE SWAP1 KECCAK256 SLOAD DUP2 DUP2 LT ISZERO PUSH2 0x25E8 JUMPI PUSH1 0x40 MLOAD PUSH4 0x3DEE4C5 PUSH1 0xE0 SHL DUP2 MSTORE PUSH1 0x1 PUSH1 0x1 PUSH1 0xA0 SHL SUB DUP11 AND PUSH1 0x4 DUP3 ADD MSTORE PUSH1 0x24 DUP2 ADD DUP3 SWAP1 MSTORE PUSH1 0x44 DUP2 ADD DUP4 SWAP1 MSTORE PUSH1 0x64 DUP2 ADD DUP5 SWAP1 MSTORE PUSH1 0x84 ADD PUSH2 0xB72 JUMP JUMPDEST PUSH0 DUP4 DUP2 MSTORE PUSH1 0x20 DUP2 DUP2 MSTORE PUSH1 0x40 DUP1 DUP4 KECCAK256 PUSH1 0x1 PUSH1 0x1 PUSH1 0xA0 SHL SUB DUP14 AND DUP5 MSTORE SWAP1 SWAP2 MSTORE SWAP1 KECCAK256 SWAP1 DUP3 SWAP1 SUB SWAP1 SSTORE JUMPDEST PUSH1 0x1 PUSH1 0x1 PUSH1 0xA0 SHL SUB DUP8 AND ISZERO PUSH2 0x2652 JUMPI PUSH0 DUP3 DUP2 MSTORE PUSH1 0x20 DUP2 DUP2 MSTORE PUSH1 0x40 DUP1 DUP4 KECCAK256 PUSH1 0x1 PUSH1 0x1 PUSH1 0xA0 SHL SUB DUP12 AND DUP5 MSTORE SWAP1 SWAP2 MSTORE DUP2 KECCAK256 DUP1 SLOAD DUP4 SWAP3 SWAP1 PUSH2 0x264C SWAP1 DUP5 SWAP1 PUSH2 0x33F2 JUMP JUMPDEST SWAP1 SWAP2 SSTORE POP POP JUMPDEST POP POP DUP1 PUSH2 0x265E SWAP1 PUSH2 0x32D8 JUMP JUMPDEST SWAP1 POP PUSH2 0x255D JUMP JUMPDEST POP DUP3 MLOAD PUSH1 0x1 SUB PUSH2 0x26E5 JUMPI PUSH1 0x20 DUP4 ADD MLOAD PUSH0 SWAP1 PUSH1 0x20 DUP5 ADD MLOAD SWAP1 SWAP2 POP DUP6 PUSH1 0x1 PUSH1 0x1 PUSH1 0xA0 SHL SUB AND DUP8 PUSH1 0x1 PUSH1 0x1 PUSH1 0xA0 SHL SUB AND DUP5 PUSH1 0x1 PUSH1 0x1 PUSH1 0xA0 SHL SUB AND PUSH32 0xC3D58168C5AE7397731D063D5BBF3D657854427343F4C083240F7AACAA2D0F62 DUP6 DUP6 PUSH1 0x40 MLOAD PUSH2 0x26D6 SWAP3 SWAP2 SWAP1 SWAP2 DUP3 MSTORE PUSH1 0x20 DUP3 ADD MSTORE PUSH1 0x40 ADD SWAP1 JUMP JUMPDEST PUSH1 0x40 MLOAD DUP1 SWAP2 SUB SWAP1 LOG4 POP POP PUSH2 0x1C43 JUMP JUMPDEST DUP4 PUSH1 0x1 PUSH1 0x1 PUSH1 0xA0 SHL SUB AND DUP6 PUSH1 0x1 PUSH1 0x1 PUSH1 0xA0 SHL SUB AND DUP3 PUSH1 0x1 PUSH1 0x1 PUSH1 0xA0 SHL SUB AND PUSH32 0x4A39DC06D4C0DBC64B70AF90FD698A233A518AA5D07E595D983B8C0526C8F7FB DUP7 DUP7 PUSH1 0x40 MLOAD PUSH2 0x2734 SWAP3 SWAP2 SWAP1 PUSH2 0x3725 JUMP JUMPDEST PUSH1 0x40 MLOAD DUP1 SWAP2 SUB SWAP1 LOG4 POP POP POP POP POP JUMP JUMPDEST PUSH1 0x1 PUSH1 0x1 PUSH1 0xA0 SHL SUB DUP5 AND EXTCODESIZE ISZERO PUSH2 0xF72 JUMPI PUSH1 0x40 MLOAD PUSH4 0xF23A6E61 PUSH1 0xE0 SHL DUP2 MSTORE PUSH1 0x1 PUSH1 0x1 PUSH1 0xA0 SHL SUB DUP6 AND SWAP1 PUSH4 0xF23A6E61 SWAP1 PUSH2 0x2787 SWAP1 DUP10 SWAP1 DUP10 SWAP1 DUP9 SWAP1 DUP9 SWAP1 DUP9 SWAP1 PUSH1 0x4 ADD PUSH2 0x3752 JUMP JUMPDEST PUSH1 0x20 PUSH1 0x40 MLOAD DUP1 DUP4 SUB DUP2 PUSH0 DUP8 GAS CALL SWAP3 POP POP POP DUP1 ISZERO PUSH2 0x27C1 JUMPI POP PUSH1 0x40 DUP1 MLOAD PUSH1 0x1F RETURNDATASIZE SWAP1 DUP2 ADD PUSH1 0x1F NOT AND DUP3 ADD SWAP1 SWAP3 MSTORE PUSH2 0x27BE SWAP2 DUP2 ADD SWAP1 PUSH2 0x3796 JUMP JUMPDEST PUSH1 0x1 JUMPDEST PUSH2 0x2828 JUMPI RETURNDATASIZE DUP1 DUP1 ISZERO PUSH2 0x27EE JUMPI PUSH1 0x40 MLOAD SWAP2 POP PUSH1 0x1F NOT PUSH1 0x3F RETURNDATASIZE ADD AND DUP3 ADD PUSH1 0x40 MSTORE RETURNDATASIZE DUP3 MSTORE RETURNDATASIZE PUSH0 PUSH1 0x20 DUP5 ADD RETURNDATACOPY PUSH2 0x27F3 JUMP JUMPDEST PUSH1 0x60 SWAP2 POP JUMPDEST POP DUP1 MLOAD PUSH0 SUB PUSH2 0x2820 JUMPI PUSH1 0x40 MLOAD PUSH4 0x2BFA23E7 PUSH1 0xE1 SHL DUP2 MSTORE PUSH1 0x1 PUSH1 0x1 PUSH1 0xA0 SHL SUB DUP7 AND PUSH1 0x4 DUP3 ADD MSTORE PUSH1 0x24 ADD PUSH2 0xB72 JUMP JUMPDEST DUP1 MLOAD DUP2 PUSH1 0x20 ADD REVERT JUMPDEST PUSH1 0x1 PUSH1 0x1 PUSH1 0xE0 SHL SUB NOT DUP2 AND PUSH4 0xF23A6E61 PUSH1 0xE0 SHL EQ PUSH2 0x2522 JUMPI PUSH1 0x40 MLOAD PUSH4 0x2BFA23E7 PUSH1 0xE1 SHL DUP2 MSTORE PUSH1 0x1 PUSH1 0x1 PUSH1 0xA0 SHL SUB DUP7 AND PUSH1 0x4 DUP3 ADD MSTORE PUSH1 0x24 ADD PUSH2 0xB72 JUMP JUMPDEST PUSH1 0x1 PUSH1 0x1 PUSH1 0xA0 SHL SUB DUP5 AND EXTCODESIZE ISZERO PUSH2 0xF72 JUMPI PUSH1 0x40 MLOAD PUSH4 0xBC197C81 PUSH1 0xE0 SHL DUP2 MSTORE PUSH1 0x1 PUSH1 0x1 PUSH1 0xA0 SHL SUB DUP6 AND SWAP1 PUSH4 0xBC197C81 SWAP1 PUSH2 0x28A8 SWAP1 DUP10 SWAP1 DUP10 SWAP1 DUP9 SWAP1 DUP9 SWAP1 DUP9 SWAP1 PUSH1 0x4 ADD PUSH2 0x37B1 JUMP JUMPDEST PUSH1 0x20 PUSH1 0x40 MLOAD DUP1 DUP4 SUB DUP2 PUSH0 DUP8 GAS CALL SWAP3 POP POP POP DUP1 ISZERO PUSH2 0x28E2 JUMPI POP PUSH1 0x40 DUP1 MLOAD PUSH1 0x1F RETURNDATASIZE SWAP1 DUP2 ADD PUSH1 0x1F NOT AND DUP3 ADD SWAP1 SWAP3 MSTORE PUSH2 0x28DF SWAP2 DUP2 ADD SWAP1 PUSH2 0x3796 JUMP JUMPDEST PUSH1 0x1 JUMPDEST PUSH2 0x290F JUMPI RETURNDATASIZE DUP1 DUP1 ISZERO PUSH2 0x27EE JUMPI PUSH1 0x40 MLOAD SWAP2 POP PUSH1 0x1F NOT PUSH1 0x3F RETURNDATASIZE ADD AND DUP3 ADD PUSH1 0x40 MSTORE RETURNDATASIZE DUP3 MSTORE RETURNDATASIZE PUSH0 PUSH1 0x20 DUP5 ADD RETURNDATACOPY PUSH2 0x27F3 JUMP JUMPDEST PUSH1 0x1 PUSH1 0x1 PUSH1 0xE0 SHL SUB NOT DUP2 AND PUSH4 0xBC197C81 PUSH1 0xE0 SHL EQ PUSH2 0x2522 JUMPI PUSH1 0x40 MLOAD PUSH4 0x2BFA23E7 PUSH1 0xE1 SHL DUP2 MSTORE PUSH1 0x1 PUSH1 0x1 PUSH1 0xA0 SHL SUB DUP7 AND PUSH1 0x4 DUP3 ADD MSTORE PUSH1 0x24 ADD PUSH2 0xB72 JUMP JUMPDEST POP DUP1 SLOAD PUSH2 0x2957 SWAP1 PUSH2 0x3292 JUMP JUMPDEST PUSH0 DUP3 SSTORE DUP1 PUSH1 0x1F LT PUSH2 0x2966 JUMPI POP POP JUMP JUMPDEST PUSH1 0x1F ADD PUSH1 0x20 SWAP1 DIV SWAP1 PUSH0 MSTORE PUSH1 0x20 PUSH0 KECCAK256 SWAP1 DUP2 ADD SWAP1 PUSH2 0xB7B SWAP2 SWAP1 JUMPDEST DUP1 DUP3 GT ISZERO PUSH2 0x2991 JUMPI PUSH0 DUP2 SSTORE PUSH1 0x1 ADD PUSH2 0x297E JUMP JUMPDEST POP SWAP1 JUMP JUMPDEST PUSH1 0x1 PUSH1 0x1 PUSH1 0xA0 SHL SUB DUP2 AND DUP2 EQ PUSH2 0xB7B JUMPI PUSH0 DUP1 REVERT JUMPDEST PUSH0 DUP1 PUSH1 0x40 DUP4 DUP6 SUB SLT ISZERO PUSH2 0x29BA JUMPI PUSH0 DUP1 REVERT JUMPDEST DUP3 CALLDATALOAD PUSH2 0x29C5 DUP2 PUSH2 0x2995 JUMP JUMPDEST SWAP5 PUSH1 0x20 SWAP4 SWAP1 SWAP4 ADD CALLDATALOAD SWAP4 POP POP POP JUMP JUMPDEST PUSH0 PUSH1 0x20 DUP3 DUP5 SUB SLT ISZERO PUSH2 0x29E3 JUMPI PUSH0 DUP1 REVERT JUMPDEST POP CALLDATALOAD SWAP2 SWAP1 POP JUMP JUMPDEST PUSH0 JUMPDEST DUP4 DUP2 LT ISZERO PUSH2 0x2A04 JUMPI DUP2 DUP2 ADD MLOAD DUP4 DUP3 ADD MSTORE PUSH1 0x20 ADD PUSH2 0x29EC JUMP JUMPDEST POP POP PUSH0 SWAP2 ADD MSTORE JUMP JUMPDEST PUSH0 DUP2 MLOAD DUP1 DUP5 MSTORE PUSH2 0x2A23 DUP2 PUSH1 0x20 DUP7 ADD PUSH1 0x20 DUP7 ADD PUSH2 0x29EA JUMP JUMPDEST PUSH1 0x1F ADD PUSH1 0x1F NOT AND SWAP3 SWAP1 SWAP3 ADD PUSH1 0x20 ADD SWAP3 SWAP2 POP POP JUMP JUMPDEST PUSH1 0x40 DUP1 DUP3 MSTORE DUP4 MLOAD DUP3 DUP3 ADD DUP2 SWAP1 MSTORE PUSH0 SWAP2 SWAP1 PUSH1 0x60 SWAP1 DUP2 DUP6 ADD SWAP1 PUSH1 0x20 DUP1 DUP10 ADD DUP7 JUMPDEST DUP4 DUP2 LT ISZERO PUSH2 0x2A7A JUMPI DUP2 MLOAD PUSH1 0x1 PUSH1 0x1 PUSH1 0x40 SHL SUB AND DUP6 MSTORE SWAP4 DUP3 ADD SWAP4 SWAP1 DUP3 ADD SWAP1 PUSH1 0x1 ADD PUSH2 0x2A55 JUMP JUMPDEST POP POP DUP7 DUP4 SUB DUP2 DUP9 ADD MSTORE DUP8 MLOAD DUP1 DUP5 MSTORE DUP2 DUP5 ADD SWAP3 POP PUSH1 0x5 DUP2 SWAP1 SHL DUP5 ADD DUP3 ADD DUP10 DUP4 ADD PUSH0 JUMPDEST DUP4 DUP2 LT ISZERO PUSH2 0x2B04 JUMPI DUP7 DUP4 SUB PUSH1 0x1F NOT ADD DUP7 MSTORE DUP2 MLOAD DUP1 MLOAD DUP10 DUP6 MSTORE PUSH2 0x2ABF DUP11 DUP7 ADD DUP3 PUSH2 0x2A0C JUMP JUMPDEST SWAP1 POP DUP7 DUP3 ADD MLOAD DUP6 DUP3 SUB DUP9 DUP8 ADD MSTORE PUSH2 0x2AD6 DUP3 DUP3 PUSH2 0x2A0C JUMP JUMPDEST SWAP2 POP POP DUP11 DUP3 ADD MLOAD SWAP2 POP DUP5 DUP2 SUB DUP12 DUP7 ADD MSTORE PUSH2 0x2AF0 DUP2 DUP4 PUSH2 0x2A0C JUMP JUMPDEST SWAP8 DUP8 ADD SWAP8 SWAP5 POP POP POP SWAP1 DUP5 ADD SWAP1 PUSH1 0x1 ADD PUSH2 0x2A9B JUMP JUMPDEST POP SWAP1 SWAP12 SWAP11 POP POP POP POP POP POP POP POP POP POP POP JUMP JUMPDEST PUSH1 0x1 PUSH1 0x1 PUSH1 0xE0 SHL SUB NOT DUP2 AND DUP2 EQ PUSH2 0xB7B JUMPI PUSH0 DUP1 REVERT JUMPDEST PUSH0 PUSH1 0x20 DUP3 DUP5 SUB SLT ISZERO PUSH2 0x2B3A JUMPI PUSH0 DUP1 REVERT JUMPDEST DUP2 CALLDATALOAD PUSH2 0x1CD0 DUP2 PUSH2 0x2B15 JUMP JUMPDEST PUSH1 0x20 DUP2 MSTORE PUSH0 PUSH2 0x1CD0 PUSH1 0x20 DUP4 ADD DUP5 PUSH2 0x2A0C JUMP JUMPDEST PUSH0 PUSH1 0x20 DUP3 DUP5 SUB SLT ISZERO PUSH2 0x2B67 JUMPI PUSH0 DUP1 REVERT JUMPDEST DUP2 CALLDATALOAD PUSH2 0x1CD0 DUP2 PUSH2 0x2995 JUMP JUMPDEST PUSH0 DUP1 DUP4 PUSH1 0x1F DUP5 ADD SLT PUSH2 0x2B82 JUMPI PUSH0 DUP1 REVERT JUMPDEST POP DUP2 CALLDATALOAD PUSH1 0x1 PUSH1 0x1 PUSH1 0x40 SHL SUB DUP2 GT ISZERO PUSH2 0x2B98 JUMPI PUSH0 DUP1 REVERT JUMPDEST PUSH1 0x20 DUP4 ADD SWAP2 POP DUP4 PUSH1 0x20 DUP3 DUP6 ADD ADD GT ISZERO PUSH2 0x2BAF JUMPI PUSH0 DUP1 REVERT JUMPDEST SWAP3 POP SWAP3 SWAP1 POP JUMP JUMPDEST PUSH0 DUP1 PUSH0 DUP1 PUSH0 DUP1 PUSH1 0x80 DUP8 DUP10 SUB SLT ISZERO PUSH2 0x2BCB JUMPI PUSH0 DUP1 REVERT JUMPDEST DUP7 CALLDATALOAD PUSH2 0x2BD6 DUP2 PUSH2 0x2995 JUMP JUMPDEST SWAP6 POP PUSH1 0x20 DUP8 ADD CALLDATALOAD SWAP5 POP PUSH1 0x40 DUP8 ADD CALLDATALOAD PUSH1 0x1 PUSH1 0x1 PUSH1 0x40 SHL SUB DUP1 DUP3 GT ISZERO PUSH2 0x2BF8 JUMPI PUSH0 DUP1 REVERT JUMPDEST PUSH2 0x2C04 DUP11 DUP4 DUP12 ADD PUSH2 0x2B72 JUMP JUMPDEST SWAP1 SWAP7 POP SWAP5 POP PUSH1 0x60 DUP10 ADD CALLDATALOAD SWAP2 POP DUP1 DUP3 GT ISZERO PUSH2 0x2C1C JUMPI PUSH0 DUP1 REVERT JUMPDEST POP PUSH2 0x2C29 DUP10 DUP3 DUP11 ADD PUSH2 0x2B72 JUMP JUMPDEST SWAP8 SWAP11 SWAP7 SWAP10 POP SWAP5 SWAP8 POP SWAP3 SWAP6 SWAP4 SWAP5 SWAP3 POP POP POP JUMP JUMPDEST PUSH4 0x4E487B71 PUSH1 0xE0 SHL PUSH0 MSTORE PUSH1 0x41 PUSH1 0x4 MSTORE PUSH1 0x24 PUSH0 REVERT JUMPDEST PUSH1 0x40 MLOAD PUSH1 0x80 DUP2 ADD PUSH1 0x1 PUSH1 0x1 PUSH1 0x40 SHL SUB DUP2 GT DUP3 DUP3 LT OR ISZERO PUSH2 0x2C71 JUMPI PUSH2 0x2C71 PUSH2 0x2C3B JUMP JUMPDEST PUSH1 0x40 MSTORE SWAP1 JUMP JUMPDEST PUSH1 0x40 MLOAD PUSH1 0x1F DUP3 ADD PUSH1 0x1F NOT AND DUP2 ADD PUSH1 0x1 PUSH1 0x1 PUSH1 0x40 SHL SUB DUP2 GT DUP3 DUP3 LT OR ISZERO PUSH2 0x2C9F JUMPI PUSH2 0x2C9F PUSH2 0x2C3B JUMP JUMPDEST PUSH1 0x40 MSTORE SWAP2 SWAP1 POP JUMP JUMPDEST PUSH0 PUSH1 0x1 PUSH1 0x1 PUSH1 0x40 SHL SUB DUP3 GT ISZERO PUSH2 0x2CBF JUMPI PUSH2 0x2CBF PUSH2 0x2C3B JUMP JUMPDEST POP PUSH1 0x5 SHL PUSH1 0x20 ADD SWAP1 JUMP JUMPDEST PUSH0 DUP3 PUSH1 0x1F DUP4 ADD SLT PUSH2 0x2CD8 JUMPI PUSH0 DUP1 REVERT JUMPDEST DUP2 CALLDATALOAD PUSH1 0x20 PUSH2 0x2CED PUSH2 0x2CE8 DUP4 PUSH2 0x2CA7 JUMP JUMPDEST PUSH2 0x2C77 JUMP JUMPDEST DUP3 DUP2 MSTORE PUSH1 0x5 SWAP3 SWAP1 SWAP3 SHL DUP5 ADD DUP2 ADD SWAP2 DUP2 DUP2 ADD SWAP1 DUP7 DUP5 GT ISZERO PUSH2 0x2D0B JUMPI PUSH0 DUP1 REVERT JUMPDEST DUP3 DUP7 ADD JUMPDEST DUP5 DUP2 LT ISZERO PUSH2 0x2D26 JUMPI DUP1 CALLDATALOAD DUP4 MSTORE SWAP2 DUP4 ADD SWAP2 DUP4 ADD PUSH2 0x2D0F JUMP JUMPDEST POP SWAP7 SWAP6 POP POP POP POP POP POP JUMP JUMPDEST PUSH0 PUSH1 0x1 PUSH1 0x1 PUSH1 0x40 SHL SUB DUP3 GT ISZERO PUSH2 0x2D49 JUMPI PUSH2 0x2D49 PUSH2 0x2C3B JUMP JUMPDEST POP PUSH1 0x1F ADD PUSH1 0x1F NOT AND PUSH1 0x20 ADD SWAP1 JUMP JUMPDEST PUSH0 DUP3 PUSH1 0x1F DUP4 ADD SLT PUSH2 0x2D66 JUMPI PUSH0 DUP1 REVERT JUMPDEST DUP2 CALLDATALOAD PUSH2 0x2D74 PUSH2 0x2CE8 DUP3 PUSH2 0x2D31 JUMP JUMPDEST DUP2 DUP2 MSTORE DUP5 PUSH1 0x20 DUP4 DUP7 ADD ADD GT ISZERO PUSH2 0x2D88 JUMPI PUSH0 DUP1 REVERT JUMPDEST DUP2 PUSH1 0x20 DUP6 ADD PUSH1 0x20 DUP4 ADD CALLDATACOPY PUSH0 SWAP2 DUP2 ADD PUSH1 0x20 ADD SWAP2 SWAP1 SWAP2 MSTORE SWAP4 SWAP3 POP POP POP JUMP JUMPDEST PUSH0 DUP1 PUSH0 DUP1 PUSH0 PUSH1 0xA0 DUP7 DUP9 SUB SLT ISZERO PUSH2 0x2DB8 JUMPI PUSH0 DUP1 REVERT JUMPDEST DUP6 CALLDATALOAD PUSH2 0x2DC3 DUP2 PUSH2 0x2995 JUMP JUMPDEST SWAP5 POP PUSH1 0x20 DUP7 ADD CALLDATALOAD PUSH2 0x2DD3 DUP2 PUSH2 0x2995 JUMP JUMPDEST SWAP4 POP PUSH1 0x40 DUP7 ADD CALLDATALOAD PUSH1 0x1 PUSH1 0x1 PUSH1 0x40 SHL SUB DUP1 DUP3 GT ISZERO PUSH2 0x2DEE JUMPI PUSH0 DUP1 REVERT JUMPDEST PUSH2 0x2DFA DUP10 DUP4 DUP11 ADD PUSH2 0x2CC9 JUMP JUMPDEST SWAP5 POP PUSH1 0x60 DUP9 ADD CALLDATALOAD SWAP2 POP DUP1 DUP3 GT ISZERO PUSH2 0x2E0F JUMPI PUSH0 DUP1 REVERT JUMPDEST PUSH2 0x2E1B DUP10 DUP4 DUP11 ADD PUSH2 0x2CC9 JUMP JUMPDEST SWAP4 POP PUSH1 0x80 DUP9 ADD CALLDATALOAD SWAP2 POP DUP1 DUP3 GT ISZERO PUSH2 0x2E30 JUMPI PUSH0 DUP1 REVERT JUMPDEST POP PUSH2 0x2E3D DUP9 DUP3 DUP10 ADD PUSH2 0x2D57 JUMP JUMPDEST SWAP2 POP POP SWAP3 SWAP6 POP SWAP3 SWAP6 SWAP1 SWAP4 POP JUMP JUMPDEST DUP1 CALLDATALOAD PUSH1 0x1 PUSH1 0x1 PUSH1 0x40 SHL SUB DUP2 AND DUP2 EQ PUSH2 0x2E60 JUMPI PUSH0 DUP1 REVERT JUMPDEST SWAP2 SWAP1 POP JUMP JUMPDEST PUSH0 DUP1 PUSH1 0x40 DUP4 DUP6 SUB SLT ISZERO PUSH2 0x2E76 JUMPI PUSH0 DUP1 REVERT JUMPDEST DUP3 CALLDATALOAD SWAP2 POP PUSH2 0x2E86 PUSH1 0x20 DUP5 ADD PUSH2 0x2E4A JUMP JUMPDEST SWAP1 POP SWAP3 POP SWAP3 SWAP1 POP JUMP JUMPDEST PUSH1 0x20 DUP1 DUP3 MSTORE DUP3 MLOAD DUP3 DUP3 ADD DUP2 SWAP1 MSTORE PUSH0 SWAP2 SWAP1 DUP5 DUP3 ADD SWAP1 PUSH1 0x40 DUP6 ADD SWAP1 DUP5 JUMPDEST DUP2 DUP2 LT ISZERO PUSH2 0x2ECF JUMPI DUP4 MLOAD PUSH1 0x1 PUSH1 0x1 PUSH1 0xA0 SHL SUB AND DUP4 MSTORE SWAP3 DUP5 ADD SWAP3 SWAP2 DUP5 ADD SWAP2 PUSH1 0x1 ADD PUSH2 0x2EAA JUMP JUMPDEST POP SWAP1 SWAP7 SWAP6 POP POP POP POP POP POP JUMP JUMPDEST PUSH0 DUP1 PUSH1 0x40 DUP4 DUP6 SUB SLT ISZERO PUSH2 0x2EEC JUMPI PUSH0 DUP1 REVERT JUMPDEST DUP3 CALLDATALOAD PUSH1 0x1 PUSH1 0x1 PUSH1 0x40 SHL SUB DUP1 DUP3 GT ISZERO PUSH2 0x2F02 JUMPI PUSH0 DUP1 REVERT JUMPDEST DUP2 DUP6 ADD SWAP2 POP DUP6 PUSH1 0x1F DUP4 ADD SLT PUSH2 0x2F15 JUMPI PUSH0 DUP1 REVERT JUMPDEST DUP2 CALLDATALOAD PUSH1 0x20 PUSH2 0x2F25 PUSH2 0x2CE8 DUP4 PUSH2 0x2CA7 JUMP JUMPDEST DUP3 DUP2 MSTORE PUSH1 0x5 SWAP3 SWAP1 SWAP3 SHL DUP5 ADD DUP2 ADD SWAP2 DUP2 DUP2 ADD SWAP1 DUP10 DUP5 GT ISZERO PUSH2 0x2F43 JUMPI PUSH0 DUP1 REVERT JUMPDEST SWAP5 DUP3 ADD SWAP5 JUMPDEST DUP4 DUP7 LT ISZERO PUSH2 0x2F6A JUMPI DUP6 CALLDATALOAD PUSH2 0x2F5B DUP2 PUSH2 0x2995 JUMP JUMPDEST DUP3 MSTORE SWAP5 DUP3 ADD SWAP5 SWAP1 DUP3 ADD SWAP1 PUSH2 0x2F48 JUMP JUMPDEST SWAP7 POP POP DUP7 ADD CALLDATALOAD SWAP3 POP POP DUP1 DUP3 GT ISZERO PUSH2 0x2F7F JUMPI PUSH0 DUP1 REVERT JUMPDEST POP PUSH2 0x2F8C DUP6 DUP3 DUP7 ADD PUSH2 0x2CC9 JUMP JUMPDEST SWAP2 POP POP SWAP3 POP SWAP3 SWAP1 POP JUMP JUMPDEST PUSH0 DUP2 MLOAD DUP1 DUP5 MSTORE PUSH1 0x20 DUP1 DUP6 ADD SWAP5 POP DUP1 DUP5 ADD PUSH0 JUMPDEST DUP4 DUP2 LT ISZERO PUSH2 0x2FC4 JUMPI DUP2 MLOAD DUP8 MSTORE SWAP6 DUP3 ADD SWAP6 SWAP1 DUP3 ADD SWAP1 PUSH1 0x1 ADD PUSH2 0x2FA8 JUMP JUMPDEST POP SWAP5 SWAP6 SWAP5 POP POP POP POP POP JUMP JUMPDEST PUSH1 0x20 DUP2 MSTORE PUSH0 PUSH2 0x1CD0 PUSH1 0x20 DUP4 ADD DUP5 PUSH2 0x2F96 JUMP JUMPDEST DUP1 CALLDATALOAD PUSH2 0x2E60 DUP2 PUSH2 0x2995 JUMP JUMPDEST PUSH0 PUSH1 0x60 DUP3 DUP5 SUB SLT ISZERO PUSH2 0x2FFC JUMPI PUSH0 DUP1 REVERT JUMPDEST POP SWAP2 SWAP1 POP JUMP JUMPDEST PUSH0 DUP1 PUSH0 DUP1 PUSH0 DUP1 PUSH0 DUP1 PUSH0 DUP1 PUSH1 0xE0 DUP12 DUP14 SUB SLT ISZERO PUSH2 0x301B JUMPI PUSH0 DUP1 REVERT JUMPDEST PUSH2 0x3024 DUP12 PUSH2 0x2E4A JUMP JUMPDEST SWAP10 POP PUSH1 0x20 DUP12 ADD CALLDATALOAD PUSH1 0x1 PUSH1 0x1 PUSH1 0x40 SHL SUB DUP1 DUP3 GT ISZERO PUSH2 0x303F JUMPI PUSH0 DUP1 REVERT JUMPDEST PUSH2 0x304B DUP15 DUP4 DUP16 ADD PUSH2 0x2B72 JUMP JUMPDEST SWAP1 SWAP12 POP SWAP10 POP DUP10 SWAP2 POP PUSH2 0x305F PUSH1 0x40 DUP15 ADD PUSH2 0x2FE1 JUMP JUMPDEST SWAP9 POP PUSH1 0x60 DUP14 ADD CALLDATALOAD SWAP2 POP DUP1 DUP3 GT ISZERO PUSH2 0x3074 JUMPI PUSH0 DUP1 REVERT JUMPDEST PUSH2 0x3080 DUP15 DUP4 DUP16 ADD PUSH2 0x2B72 JUMP JUMPDEST SWAP1 SWAP9 POP SWAP7 POP PUSH1 0x80 DUP14 ADD CALLDATALOAD SWAP6 POP PUSH1 0xA0 DUP14 ADD CALLDATALOAD SWAP2 POP DUP1 DUP3 GT ISZERO PUSH2 0x309F JUMPI PUSH0 DUP1 REVERT JUMPDEST PUSH2 0x30AB DUP15 DUP4 DUP16 ADD PUSH2 0x2B72 JUMP JUMPDEST SWAP1 SWAP6 POP SWAP4 POP PUSH1 0xC0 DUP14 ADD CALLDATALOAD SWAP2 POP DUP1 DUP3 GT ISZERO PUSH2 0x30C3 JUMPI PUSH0 DUP1 REVERT JUMPDEST POP PUSH2 0x30D0 DUP14 DUP3 DUP15 ADD PUSH2 0x2FEC JUMP JUMPDEST SWAP2 POP POP SWAP3 SWAP6 SWAP9 SWAP12 SWAP2 SWAP5 SWAP8 SWAP11 POP SWAP3 SWAP6 SWAP9 POP JUMP JUMPDEST PUSH1 0x60 DUP2 MSTORE PUSH0 PUSH2 0x30F4 PUSH1 0x60 DUP4 ADD DUP7 PUSH2 0x2A0C JUMP JUMPDEST DUP3 DUP2 SUB PUSH1 0x20 DUP5 ADD MSTORE PUSH2 0x3106 DUP2 DUP7 PUSH2 0x2A0C JUMP JUMPDEST SWAP1 POP DUP3 DUP2 SUB PUSH1 0x40 DUP5 ADD MSTORE PUSH2 0x311A DUP2 DUP6 PUSH2 0x2A0C JUMP JUMPDEST SWAP7 SWAP6 POP POP POP POP POP POP JUMP JUMPDEST DUP1 ISZERO ISZERO DUP2 EQ PUSH2 0xB7B JUMPI PUSH0 DUP1 REVERT JUMPDEST PUSH0 DUP1 PUSH1 0x40 DUP4 DUP6 SUB SLT ISZERO PUSH2 0x3142 JUMPI PUSH0 DUP1 REVERT JUMPDEST DUP3 CALLDATALOAD PUSH2 0x314D DUP2 PUSH2 0x2995 JUMP JUMPDEST SWAP2 POP PUSH1 0x20 DUP4 ADD CALLDATALOAD PUSH2 0x315D DUP2 PUSH2 0x3124 JUMP JUMPDEST DUP1 SWAP2 POP POP SWAP3 POP SWAP3 SWAP1 POP JUMP JUMPDEST PUSH0 DUP1 PUSH0 DUP1 PUSH1 0x60 DUP6 DUP8 SUB SLT ISZERO PUSH2 0x317B JUMPI PUSH0 DUP1 REVERT JUMPDEST DUP5 CALLDATALOAD SWAP4 POP PUSH2 0x318B PUSH1 0x20 DUP7 ADD PUSH2 0x2E4A JUMP JUMPDEST SWAP3 POP PUSH1 0x40 DUP6 ADD CALLDATALOAD PUSH1 0x1 PUSH1 0x1 PUSH1 0x40 SHL SUB DUP2 GT ISZERO PUSH2 0x31A5 JUMPI PUSH0 DUP1 REVERT JUMPDEST PUSH2 0x31B1 DUP8 DUP3 DUP9 ADD PUSH2 0x2B72 JUMP JUMPDEST SWAP6 SWAP9 SWAP5 SWAP8 POP SWAP6 POP POP POP POP JUMP JUMPDEST PUSH0 DUP1 PUSH1 0x40 DUP4 DUP6 SUB SLT ISZERO PUSH2 0x31CE JUMPI PUSH0 DUP1 REVERT JUMPDEST DUP3 CALLDATALOAD PUSH2 0x31D9 DUP2 PUSH2 0x2995 JUMP JUMPDEST SWAP2 POP PUSH1 0x20 DUP4 ADD CALLDATALOAD PUSH2 0x315D DUP2 PUSH2 0x2995 JUMP JUMPDEST PUSH0 DUP1 PUSH0 DUP1 PUSH0 PUSH1 0xA0 DUP7 DUP9 SUB SLT ISZERO PUSH2 0x31FD JUMPI PUSH0 DUP1 REVERT JUMPDEST DUP6 CALLDATALOAD PUSH2 0x3208 DUP2 PUSH2 0x2995 JUMP JUMPDEST SWAP5 POP PUSH1 0x20 DUP7 ADD CALLDATALOAD PUSH2 0x3218 DUP2 PUSH2 0x2995 JUMP JUMPDEST SWAP4 POP PUSH1 0x40 DUP7 ADD CALLDATALOAD SWAP3 POP PUSH1 0x60 DUP7 ADD CALLDATALOAD SWAP2 POP PUSH1 0x80 DUP7 ADD CALLDATALOAD PUSH1 0x1 PUSH1 0x1 PUSH1 0x40 SHL SUB DUP2 GT ISZERO PUSH2 0x3240 JUMPI PUSH0 DUP1 REVERT JUMPDEST PUSH2 0x2E3D DUP9 DUP3 DUP10 ADD PUSH2 0x2D57 JUMP JUMPDEST PUSH0 DUP1 PUSH0 PUSH1 0x60 DUP5 DUP7 SUB SLT ISZERO PUSH2 0x325E JUMPI PUSH0 DUP1 REVERT JUMPDEST DUP4 CALLDATALOAD PUSH2 0x3269 DUP2 PUSH2 0x2995 JUMP JUMPDEST SWAP6 PUSH1 0x20 DUP6 ADD CALLDATALOAD SWAP6 POP PUSH1 0x40 SWAP1 SWAP5 ADD CALLDATALOAD SWAP4 SWAP3 POP POP POP JUMP JUMPDEST PUSH4 0x4E487B71 PUSH1 0xE0 SHL PUSH0 MSTORE PUSH1 0x32 PUSH1 0x4 MSTORE PUSH1 0x24 PUSH0 REVERT JUMPDEST PUSH1 0x1 DUP2 DUP2 SHR SWAP1 DUP3 AND DUP1 PUSH2 0x32A6 JUMPI PUSH1 0x7F DUP3 AND SWAP2 POP JUMPDEST PUSH1 0x20 DUP3 LT DUP2 SUB PUSH2 0x2FFC JUMPI PUSH4 0x4E487B71 PUSH1 0xE0 SHL PUSH0 MSTORE PUSH1 0x22 PUSH1 0x4 MSTORE PUSH1 0x24 PUSH0 REVERT JUMPDEST PUSH4 0x4E487B71 PUSH1 0xE0 SHL PUSH0 MSTORE PUSH1 0x11 PUSH1 0x4 MSTORE PUSH1 0x24 PUSH0 REVERT JUMPDEST PUSH0 PUSH1 0x1 DUP3 ADD PUSH2 0x32E9 JUMPI PUSH2 0x32E9 PUSH2 0x32C4 JUMP JUMPDEST POP PUSH1 0x1 ADD SWAP1 JUMP JUMPDEST DUP2 DUP2 SUB DUP2 DUP2 GT ISZERO PUSH2 0x47B JUMPI PUSH2 0x47B PUSH2 0x32C4 JUMP JUMPDEST PUSH4 0x4E487B71 PUSH1 0xE0 SHL PUSH0 MSTORE PUSH1 0x31 PUSH1 0x4 MSTORE PUSH1 0x24 PUSH0 REVERT JUMPDEST DUP2 DUP4 DUP3 CALLDATACOPY PUSH0 SWAP2 ADD SWAP1 DUP2 MSTORE SWAP2 SWAP1 POP JUMP JUMPDEST PUSH0 DUP1 DUP4 SLOAD PUSH2 0x3333 DUP2 PUSH2 0x3292 JUMP JUMPDEST PUSH1 0x1 DUP3 DUP2 AND DUP1 ISZERO PUSH2 0x334B JUMPI PUSH1 0x1 DUP2 EQ PUSH2 0x3360 JUMPI PUSH2 0x338C JUMP JUMPDEST PUSH1 0xFF NOT DUP5 AND DUP8 MSTORE DUP3 ISZERO ISZERO DUP4 MUL DUP8 ADD SWAP5 POP PUSH2 0x338C JUMP JUMPDEST DUP8 PUSH0 MSTORE PUSH1 0x20 DUP1 PUSH0 KECCAK256 PUSH0 JUMPDEST DUP6 DUP2 LT ISZERO PUSH2 0x3383 JUMPI DUP2 SLOAD DUP11 DUP3 ADD MSTORE SWAP1 DUP5 ADD SWAP1 DUP3 ADD PUSH2 0x336A JUMP JUMPDEST POP POP POP DUP3 DUP8 ADD SWAP5 POP JUMPDEST POP SWAP3 SWAP7 SWAP6 POP POP POP POP POP POP JUMP JUMPDEST DUP7 DUP2 MSTORE DUP6 PUSH1 0x20 DUP3 ADD MSTORE PUSH12 0xFFFFFFFFFFFFFFFFFFFFFFFF NOT DUP6 PUSH1 0x60 SHL AND PUSH1 0x40 DUP3 ADD MSTORE DUP3 DUP5 PUSH1 0x54 DUP4 ADD CALLDATACOPY PUSH1 0x54 SWAP3 ADD SWAP2 DUP3 ADD MSTORE PUSH1 0x74 ADD SWAP5 SWAP4 POP POP POP POP JUMP JUMPDEST PUSH0 DUP3 PUSH2 0x33ED JUMPI PUSH4 0x4E487B71 PUSH1 0xE0 SHL PUSH0 MSTORE PUSH1 0x12 PUSH1 0x4 MSTORE PUSH1 0x24 PUSH0 REVERT JUMPDEST POP MOD SWAP1 JUMP JUMPDEST DUP1 DUP3 ADD DUP1 DUP3 GT ISZERO PUSH2 0x47B JUMPI PUSH2 0x47B PUSH2 0x32C4 JUMP JUMPDEST PUSH1 0x1F DUP3 GT ISZERO PUSH2 0x13D7 JUMPI PUSH0 DUP2 DUP2 MSTORE PUSH1 0x20 DUP2 KECCAK256 PUSH1 0x1F DUP6 ADD PUSH1 0x5 SHR DUP2 ADD PUSH1 0x20 DUP7 LT ISZERO PUSH2 0x342B JUMPI POP DUP1 JUMPDEST PUSH1 0x1F DUP6 ADD PUSH1 0x5 SHR DUP3 ADD SWAP2 POP JUMPDEST DUP2 DUP2 LT ISZERO PUSH2 0xF72 JUMPI DUP3 DUP2 SSTORE PUSH1 0x1 ADD PUSH2 0x3437 JUMP JUMPDEST PUSH1 0x1 PUSH1 0x1 PUSH1 0x40 SHL SUB DUP4 GT ISZERO PUSH2 0x3461 JUMPI PUSH2 0x3461 PUSH2 0x2C3B JUMP JUMPDEST PUSH2 0x3475 DUP4 PUSH2 0x346F DUP4 SLOAD PUSH2 0x3292 JUMP JUMPDEST DUP4 PUSH2 0x3405 JUMP JUMPDEST PUSH0 PUSH1 0x1F DUP5 GT PUSH1 0x1 DUP2 EQ PUSH2 0x34A6 JUMPI PUSH0 DUP6 ISZERO PUSH2 0x348F JUMPI POP DUP4 DUP3 ADD CALLDATALOAD JUMPDEST PUSH0 NOT PUSH1 0x3 DUP8 SWAP1 SHL SHR NOT AND PUSH1 0x1 DUP7 SWAP1 SHL OR DUP4 SSTORE PUSH2 0x1C43 JUMP JUMPDEST PUSH0 DUP4 DUP2 MSTORE PUSH1 0x20 SWAP1 KECCAK256 PUSH1 0x1F NOT DUP7 AND SWAP1 DUP4 JUMPDEST DUP3 DUP2 LT ISZERO PUSH2 0x34D6 JUMPI DUP7 DUP6 ADD CALLDATALOAD DUP3 SSTORE PUSH1 0x20 SWAP5 DUP6 ADD SWAP5 PUSH1 0x1 SWAP1 SWAP3 ADD SWAP2 ADD PUSH2 0x34B6 JUMP JUMPDEST POP DUP7 DUP3 LT ISZERO PUSH2 0x34F2 JUMPI PUSH0 NOT PUSH1 0xF8 DUP9 PUSH1 0x3 SHL AND SHR NOT DUP5 DUP8 ADD CALLDATALOAD AND DUP2 SSTORE JUMPDEST POP POP PUSH1 0x1 DUP6 PUSH1 0x1 SHL ADD DUP4 SSTORE POP POP POP POP POP JUMP JUMPDEST PUSH1 0x1 PUSH1 0x1 PUSH1 0x40 SHL SUB DUP4 AND DUP2 MSTORE PUSH1 0x40 PUSH1 0x20 DUP3 ADD MSTORE PUSH0 DUP3 MLOAD PUSH1 0x60 PUSH1 0x40 DUP5 ADD MSTORE PUSH2 0x352E PUSH1 0xA0 DUP5 ADD DUP3 PUSH2 0x2A0C JUMP JUMPDEST PUSH1 0x20 DUP6 ADD MLOAD PUSH1 0x1 PUSH1 0x1 PUSH1 0xA0 SHL SUB AND PUSH1 0x60 DUP6 ADD MSTORE PUSH1 0x40 DUP6 ADD MLOAD DUP5 DUP3 SUB PUSH1 0x3F NOT ADD PUSH1 0x80 DUP7 ADD MSTORE SWAP1 SWAP2 POP PUSH2 0x311A DUP3 DUP3 PUSH2 0x2A0C JUMP JUMPDEST PUSH0 DUP1 DUP4 CALLDATALOAD PUSH1 0x1E NOT DUP5 CALLDATASIZE SUB ADD DUP2 SLT PUSH2 0x3574 JUMPI PUSH0 DUP1 REVERT JUMPDEST DUP4 ADD DUP1 CALLDATALOAD SWAP2 POP PUSH1 0x1 PUSH1 0x1 PUSH1 0x40 SHL SUB DUP3 GT ISZERO PUSH2 0x358D JUMPI PUSH0 DUP1 REVERT JUMPDEST PUSH1 0x20 ADD SWAP2 POP CALLDATASIZE DUP2 SWAP1 SUB DUP3 SGT ISZERO PUSH2 0x2BAF JUMPI PUSH0 DUP1 REVERT JUMPDEST DUP2 MLOAD PUSH1 0x1 PUSH1 0x1 PUSH1 0x40 SHL SUB DUP2 GT ISZERO PUSH2 0x35BA JUMPI PUSH2 0x35BA PUSH2 0x2C3B JUMP JUMPDEST PUSH2 0x35CE DUP2 PUSH2 0x35C8 DUP5 SLOAD PUSH2 0x3292 JUMP JUMPDEST DUP5 PUSH2 0x3405 JUMP JUMPDEST PUSH1 0x20 DUP1 PUSH1 0x1F DUP4 GT PUSH1 0x1 DUP2 EQ PUSH2 0x3601 JUMPI PUSH0 DUP5 ISZERO PUSH2 0x35EA JUMPI POP DUP6 DUP4 ADD MLOAD JUMPDEST PUSH0 NOT PUSH1 0x3 DUP7 SWAP1 SHL SHR NOT AND PUSH1 0x1 DUP6 SWAP1 SHL OR DUP6 SSTORE PUSH2 0xF72 JUMP JUMPDEST PUSH0 DUP6 DUP2 MSTORE PUSH1 0x20 DUP2 KECCAK256 PUSH1 0x1F NOT DUP7 AND SWAP2 JUMPDEST DUP3 DUP2 LT ISZERO PUSH2 0x362F JUMPI DUP9 DUP7 ADD MLOAD DUP3 SSTORE SWAP5 DUP5 ADD SWAP5 PUSH1 0x1 SWAP1 SWAP2 ADD SWAP1 DUP5 ADD PUSH2 0x3610 JUMP JUMPDEST POP DUP6 DUP3 LT ISZERO PUSH2 0x364C JUMPI DUP8 DUP6 ADD MLOAD PUSH0 NOT PUSH1 0x3 DUP9 SWAP1 SHL PUSH1 0xF8 AND SHR NOT AND DUP2 SSTORE JUMPDEST POP POP POP POP POP PUSH1 0x1 SWAP1 DUP2 SHL ADD SWAP1 SSTORE POP JUMP JUMPDEST PUSH0 PUSH1 0x20 DUP1 DUP4 DUP6 SUB SLT ISZERO PUSH2 0x366D JUMPI PUSH0 DUP1 REVERT JUMPDEST DUP3 MLOAD PUSH1 0x1 PUSH1 0x1 PUSH1 0x40 SHL SUB DUP1 DUP3 GT ISZERO PUSH2 0x3683 JUMPI PUSH0 DUP1 REVERT JUMPDEST SWAP1 DUP5 ADD SWAP1 PUSH1 0x80 DUP3 DUP8 SUB SLT ISZERO PUSH2 0x3696 JUMPI PUSH0 DUP1 REVERT JUMPDEST PUSH2 0x369E PUSH2 0x2C4F JUMP JUMPDEST DUP3 MLOAD PUSH2 0x36A9 DUP2 PUSH2 0x3124 JUMP JUMPDEST DUP2 MSTORE DUP3 DUP5 ADD MLOAD DUP3 DUP2 GT ISZERO PUSH2 0x36BB JUMPI PUSH0 DUP1 REVERT JUMPDEST DUP4 ADD SWAP2 POP PUSH1 0x1F DUP3 ADD DUP8 SGT PUSH2 0x36CD JUMPI PUSH0 DUP1 REVERT JUMPDEST DUP2 MLOAD PUSH2 0x36DB PUSH2 0x2CE8 DUP3 PUSH2 0x2D31 JUMP JUMPDEST DUP2 DUP2 MSTORE DUP9 DUP7 DUP4 DUP7 ADD ADD GT ISZERO PUSH2 0x36EE JUMPI PUSH0 DUP1 REVERT JUMPDEST PUSH2 0x36FD DUP3 DUP8 DUP4 ADD DUP9 DUP8 ADD PUSH2 0x29EA JUMP JUMPDEST DUP1 DUP7 DUP5 ADD MSTORE POP POP PUSH1 0x40 DUP4 ADD MLOAD PUSH1 0x40 DUP3 ADD MSTORE PUSH1 0x60 DUP4 ADD MLOAD PUSH1 0x60 DUP3 ADD MSTORE DUP1 SWAP5 POP POP POP POP POP SWAP3 SWAP2 POP POP JUMP JUMPDEST PUSH1 0x40 DUP2 MSTORE PUSH0 PUSH2 0x3737 PUSH1 0x40 DUP4 ADD DUP6 PUSH2 0x2F96 JUMP JUMPDEST DUP3 DUP2 SUB PUSH1 0x20 DUP5 ADD MSTORE PUSH2 0x3749 DUP2 DUP6 PUSH2 0x2F96 JUMP JUMPDEST SWAP6 SWAP5 POP POP POP POP POP JUMP JUMPDEST PUSH1 0x1 PUSH1 0x1 PUSH1 0xA0 SHL SUB DUP7 DUP2 AND DUP3 MSTORE DUP6 AND PUSH1 0x20 DUP3 ADD MSTORE PUSH1 0x40 DUP2 ADD DUP5 SWAP1 MSTORE PUSH1 0x60 DUP2 ADD DUP4 SWAP1 MSTORE PUSH1 0xA0 PUSH1 0x80 DUP3 ADD DUP2 SWAP1 MSTORE PUSH0 SWAP1 PUSH2 0x378B SWAP1 DUP4 ADD DUP5 PUSH2 0x2A0C JUMP JUMPDEST SWAP8 SWAP7 POP POP POP POP POP POP POP JUMP JUMPDEST PUSH0 PUSH1 0x20 DUP3 DUP5 SUB SLT ISZERO PUSH2 0x37A6 JUMPI PUSH0 DUP1 REVERT JUMPDEST DUP2 MLOAD PUSH2 0x1CD0 DUP2 PUSH2 0x2B15 JUMP JUMPDEST PUSH1 0x1 PUSH1 0x1 PUSH1 0xA0 SHL SUB DUP7 DUP2 AND DUP3 MSTORE DUP6 AND PUSH1 0x20 DUP3 ADD MSTORE PUSH1 0xA0 PUSH1 0x40 DUP3 ADD DUP2 SWAP1 MSTORE PUSH0 SWAP1 PUSH2 0x37DC SWAP1 DUP4 ADD DUP7 PUSH2 0x2F96 JUMP JUMPDEST DUP3 DUP2 SUB PUSH1 0x60 DUP5 ADD MSTORE PUSH2 0x37EE DUP2 DUP7 PUSH2 0x2F96 JUMP JUMPDEST SWAP1 POP DUP3 DUP2 SUB PUSH1 0x80 DUP5 ADD MSTORE PUSH2 0x3802 DUP2 DUP6 PUSH2 0x2A0C JUMP JUMPDEST SWAP9 SWAP8 POP POP POP POP POP POP POP POP JUMP INVALID LOG2 PUSH5 0x6970667358 0x22 SLT KECCAK256 MOD XOR PUSH10 0x6CAEFF1A1584A201D54E 0xDD EXP 0xDE 0x5E 0x28 STOP 0xF6 PREVRANDAO 0xC2 0xBB PUSH9 0x779A91CD3914169C64 PUSH20 0x6F6C634300081400330000000000000000000000 "
	},
	"abi": [
		{
			"inputs": [
				{
					"internalType": "address",
					"name": "sender",
					"type": "address"
				},
				{
					"internalType": "uint256",
					"name": "balance",
					"type": "uint256"
				},
				{
					"internalType": "uint256",
					"name": "needed",
					"type": "uint256"
				},
				{
					"internalType": "uint256",
					"name": "tokenId",
					"type": "uint256"
				}
			],
			"name": "ERC1155InsufficientBalance",
			"type": "error"
		},
		{
			"inputs": [
				{
					"internalType": "address",
					"name": "approver",
					"type": "address"
				}
			],
			"name": "ERC1155InvalidApprover",
			"type": "error"
		},
		{
			"inputs": [
				{
					"internalType": "uint256",
					"name": "idsLength",
					"type": "uint256"
				},
				{
					"internalType": "uint256",
					"name": "valuesLength",
					"type": "uint256"
				}
			],
			"name": "ERC1155InvalidArrayLength",
			"type": "error"
		},
		{
			"inputs": [
				{
					"internalType": "address",
					"name": "operator",
					"type": "address"
				}
			],
			"name": "ERC1155InvalidOperator",
			"type": "error"
		},
		{
			"inputs": [
				{
					"internalType": "address",
					"name": "receiver",
					"type": "address"
				}
			],
			"name": "ERC1155InvalidReceiver",
			"type": "error"
		},
		{
			"inputs": [
				{
					"internalType": "address",
					"name": "sender",
					"type": "address"
				}
			],
			"name": "ERC1155InvalidSender",
			"type": "error"
		},
		{
			"inputs": [
				{
					"internalType": "address",
					"name": "operator",
					"type": "address"
				},
				{
					"internalType": "address",
					"name": "owner",
					"type": "address"
				}
			],
			"name": "ERC1155MissingApprovalForAll",
			"type": "error"
		},
		{
			"inputs": [
				{
					"internalType": "address",
					"name": "owner",
					"type": "address"
				}
			],
			"name": "OwnableInvalidOwner",
			"type": "error"
		},
		{
			"inputs": [
				{
					"internalType": "address",
					"name": "account",
					"type": "address"
				}
			],
			"name": "OwnableUnauthorizedAccount",
			"type": "error"
		},
		{
			"inputs": [
				{
					"internalType": "uint64",
					"name": "requestID",
					"type": "uint64"
				},
				{
					"internalType": "address",
					"name": "proverAddress",
					"type": "address"
				}
			],
			"name": "ProofNotVerified",
			"type": "error"
		},
		{
			"inputs": [
				{
					"internalType": "uint256",
					"name": "tokenID",
					"type": "uint256"
				}
			],
			"name": "TokenIDNotFound",
			"type": "error"
		},
		{
			"inputs": [
				{
					"internalType": "uint256",
					"name": "tokenID",
					"type": "uint256"
				}
			],
			"name": "TokenIDTaken",
			"type": "error"
		},
		{
			"anonymous": false,
			"inputs": [
				{
					"indexed": true,
					"internalType": "address",
					"name": "account",
					"type": "address"
				},
				{
					"indexed": true,
					"internalType": "address",
					"name": "operator",
					"type": "address"
				},
				{
					"indexed": false,
					"internalType": "bool",
					"name": "approved",
					"type": "bool"
				}
			],
			"name": "ApprovalForAll",
			"type": "event"
		},
		{
			"anonymous": false,
			"inputs": [
				{
					"indexed": true,
					"internalType": "address",
					"name": "previousOwner",
					"type": "address"
				},
				{
					"indexed": true,
					"internalType": "address",
					"name": "newOwner",
					"type": "address"
				}
			],
			"name": "OwnershipTransferred",
			"type": "event"
		},
		{
			"anonymous": false,
			"inputs": [
				{
					"indexed": true,
					"internalType": "address",
					"name": "operator",
					"type": "address"
				},
				{
					"indexed": true,
					"internalType": "address",
					"name": "from",
					"type": "address"
				},
				{
					"indexed": true,
					"internalType": "address",
					"name": "to",
					"type": "address"
				},
				{
					"indexed": false,
					"internalType": "uint256[]",
					"name": "ids",
					"type": "uint256[]"
				},
				{
					"indexed": false,
					"internalType": "uint256[]",
					"name": "values",
					"type": "uint256[]"
				}
			],
			"name": "TransferBatch",
			"type": "event"
		},
		{
			"anonymous": false,
			"inputs": [
				{
					"indexed": true,
					"internalType": "address",
					"name": "operator",
					"type": "address"
				},
				{
					"indexed": true,
					"internalType": "address",
					"name": "from",
					"type": "address"
				},
				{
					"indexed": true,
					"internalType": "address",
					"name": "to",
					"type": "address"
				},
				{
					"indexed": false,
					"internalType": "uint256",
					"name": "id",
					"type": "uint256"
				},
				{
					"indexed": false,
					"internalType": "uint256",
					"name": "value",
					"type": "uint256"
				}
			],
			"name": "TransferSingle",
			"type": "event"
		},
		{
			"anonymous": false,
			"inputs": [
				{
					"indexed": false,
					"internalType": "string",
					"name": "value",
					"type": "string"
				},
				{
					"indexed": true,
					"internalType": "uint256",
					"name": "id",
					"type": "uint256"
				}
			],
			"name": "URI",
			"type": "event"
		},
		{
			"inputs": [
				{
					"internalType": "address",
					"name": "_admin",
					"type": "address"
				}
			],
			"name": "addAdmin",
			"outputs": [],
			"stateMutability": "nonpayable",
			"type": "function"
		},
		{
			"inputs": [
				{
					"internalType": "uint64",
					"name": "requestId",
					"type": "uint64"
				},
				{
					"internalType": "string",
					"name": "metadata",
					"type": "string"
				},
				{
					"internalType": "contract ICircuitValidator",
					"name": "validator",
					"type": "address"
				},
				{
					"internalType": "bytes",
					"name": "data",
					"type": "bytes"
				},
				{
					"internalType": "uint256",
					"name": "tokenID",
					"type": "uint256"
				},
				{
					"internalType": "string",
					"name": "role",
					"type": "string"
				},
				{
					"components": [
						{
							"internalType": "string",
							"name": "attribute",
							"type": "string"
						},
						{
							"internalType": "string",
							"name": "operatorStr",
							"type": "string"
						},
						{
							"internalType": "string",
							"name": "value",
							"type": "string"
						}
					],
					"internalType": "struct PMUniversalVerifier.SpendingCondition",
					"name": "condition",
					"type": "tuple"
				}
			],
			"name": "addProofRequest_VerifierAndPM",
			"outputs": [],
			"stateMutability": "nonpayable",
			"type": "function"
		},
		{
			"inputs": [
				{
					"internalType": "uint256",
					"name": "tokenID",
					"type": "uint256"
				},
				{
					"internalType": "uint64",
					"name": "requestID",
					"type": "uint64"
				},
				{
					"internalType": "string",
					"name": "role",
					"type": "string"
				}
			],
			"name": "addProofRequestAndRole",
			"outputs": [],
			"stateMutability": "nonpayable",
			"type": "function"
		},
		{
			"inputs": [
				{
					"internalType": "address",
					"name": "account",
					"type": "address"
				},
				{
					"internalType": "uint256",
					"name": "ID",
					"type": "uint256"
				},
				{
					"internalType": "uint256",
					"name": "amount",
					"type": "uint256"
				}
			],
			"name": "burn",
			"outputs": [],
			"stateMutability": "nonpayable",
			"type": "function"
		},
		{
			"inputs": [
				{
					"internalType": "uint256",
					"name": "tokenID",
					"type": "uint256"
				},
				{
					"internalType": "uint64",
					"name": "requestID",
					"type": "uint64"
				}
			],
			"name": "deleteProofRequestAndRole",
			"outputs": [],
			"stateMutability": "nonpayable",
			"type": "function"
		},
		{
			"inputs": [
				{
					"internalType": "address",
					"name": "to",
					"type": "address"
				},
				{
					"internalType": "uint256",
					"name": "amount",
					"type": "uint256"
				},
				{
					"internalType": "bytes",
					"name": "data",
					"type": "bytes"
				},
				{
					"internalType": "string",
					"name": "name",
					"type": "string"
				}
			],
			"name": "mintToken",
			"outputs": [],
			"stateMutability": "nonpayable",
			"type": "function"
		},
		{
			"inputs": [
				{
					"internalType": "address",
					"name": "_admin",
					"type": "address"
				}
			],
			"name": "removeAdmin",
			"outputs": [],
			"stateMutability": "nonpayable",
			"type": "function"
		},
		{
			"inputs": [],
			"name": "renounceOwnership",
			"outputs": [],
			"stateMutability": "nonpayable",
			"type": "function"
		},
		{
			"inputs": [
				{
					"internalType": "address",
					"name": "from",
					"type": "address"
				},
				{
					"internalType": "address",
					"name": "to",
					"type": "address"
				},
				{
					"internalType": "uint256[]",
					"name": "tokenIDs",
					"type": "uint256[]"
				},
				{
					"internalType": "uint256[]",
					"name": "amounts",
					"type": "uint256[]"
				},
				{
					"internalType": "bytes",
					"name": "data",
					"type": "bytes"
				}
			],
			"name": "safeBatchTransferFrom",
			"outputs": [],
			"stateMutability": "nonpayable",
			"type": "function"
		},
		{
			"inputs": [
				{
					"internalType": "address",
					"name": "from",
					"type": "address"
				},
				{
					"internalType": "address",
					"name": "to",
					"type": "address"
				},
				{
					"internalType": "uint256",
					"name": "tokenID",
					"type": "uint256"
				},
				{
					"internalType": "uint256",
					"name": "amount",
					"type": "uint256"
				},
				{
					"internalType": "bytes",
					"name": "data",
					"type": "bytes"
				}
			],
			"name": "safeTransferFrom",
			"outputs": [],
			"stateMutability": "nonpayable",
			"type": "function"
		},
		{
			"inputs": [
				{
					"internalType": "address",
					"name": "operator",
					"type": "address"
				},
				{
					"internalType": "bool",
					"name": "approved",
					"type": "bool"
				}
			],
			"name": "setApprovalForAll",
			"outputs": [],
			"stateMutability": "nonpayable",
			"type": "function"
		},
		{
			"inputs": [
				{
					"internalType": "address",
					"name": "newOwner",
					"type": "address"
				}
			],
			"name": "transferOwnership",
			"outputs": [],
			"stateMutability": "nonpayable",
			"type": "function"
		},
		{
			"inputs": [
				{
					"internalType": "contract UniversalVerifier",
					"name": "verifier_",
					"type": "address"
				},
				{
					"internalType": "address",
					"name": "initialOwner",
					"type": "address"
				},
				{
					"internalType": "string",
					"name": "uri_",
					"type": "string"
				}
			],
			"stateMutability": "nonpayable",
			"type": "constructor"
		},
		{
			"inputs": [],
			"name": "allTokenIDs",
			"outputs": [
				{
					"internalType": "uint256[]",
					"name": "",
					"type": "uint256[]"
				}
			],
			"stateMutability": "view",
			"type": "function"
		},
		{
			"inputs": [
				{
					"internalType": "address",
					"name": "account",
					"type": "address"
				},
				{
					"internalType": "uint256",
					"name": "id",
					"type": "uint256"
				}
			],
			"name": "balanceOf",
			"outputs": [
				{
					"internalType": "uint256",
					"name": "",
					"type": "uint256"
				}
			],
			"stateMutability": "view",
			"type": "function"
		},
		{
			"inputs": [
				{
					"internalType": "address[]",
					"name": "accounts",
					"type": "address[]"
				},
				{
					"internalType": "uint256[]",
					"name": "ids",
					"type": "uint256[]"
				}
			],
			"name": "balanceOfBatch",
			"outputs": [
				{
					"internalType": "uint256[]",
					"name": "",
					"type": "uint256[]"
				}
			],
			"stateMutability": "view",
			"type": "function"
		},
		{
			"inputs": [],
			"name": "fungible_token",
			"outputs": [
				{
					"internalType": "uint256",
					"name": "",
					"type": "uint256"
				}
			],
			"stateMutability": "view",
			"type": "function"
		},
		{
			"inputs": [],
			"name": "getAdmins",
			"outputs": [
				{
					"internalType": "address[]",
					"name": "",
					"type": "address[]"
				}
			],
			"stateMutability": "view",
			"type": "function"
		},
		{
			"inputs": [
				{
					"internalType": "uint256",
					"name": "tokenID",
					"type": "uint256"
				}
			],
			"name": "getSpendingConditions",
			"outputs": [
				{
					"internalType": "uint64[]",
					"name": "",
					"type": "uint64[]"
				},
				{
					"components": [
						{
							"internalType": "string",
							"name": "attribute",
							"type": "string"
						},
						{
							"internalType": "string",
							"name": "operatorStr",
							"type": "string"
						},
						{
							"internalType": "string",
							"name": "value",
							"type": "string"
						}
					],
					"internalType": "struct PMUniversalVerifier.SpendingCondition[]",
					"name": "",
					"type": "tuple[]"
				}
			],
			"stateMutability": "view",
			"type": "function"
		},
		{
			"inputs": [
				{
					"internalType": "address",
					"name": "account",
					"type": "address"
				},
				{
					"internalType": "address",
					"name": "operator",
					"type": "address"
				}
			],
			"name": "isApprovedForAll",
			"outputs": [
				{
					"internalType": "bool",
					"name": "",
					"type": "bool"
				}
			],
			"stateMutability": "view",
			"type": "function"
		},
		{
			"inputs": [],
			"name": "non_fungible_token",
			"outputs": [
				{
					"internalType": "uint256",
					"name": "",
					"type": "uint256"
				}
			],
			"stateMutability": "view",
			"type": "function"
		},
		{
			"inputs": [],
			"name": "owner",
			"outputs": [
				{
					"internalType": "address",
					"name": "",
					"type": "address"
				}
			],
			"stateMutability": "view",
			"type": "function"
		},
		{
			"inputs": [
				{
					"internalType": "uint256",
					"name": "",
					"type": "uint256"
				}
			],
			"name": "proofRequestIDs",
			"outputs": [
				{
					"internalType": "uint64",
					"name": "",
					"type": "uint64"
				}
			],
			"stateMutability": "view",
			"type": "function"
		},
		{
			"inputs": [
				{
					"internalType": "uint256",
					"name": "",
					"type": "uint256"
				},
				{
					"internalType": "uint64",
					"name": "",
					"type": "uint64"
				}
			],
			"name": "spendingConditions",
			"outputs": [
				{
					"internalType": "string",
					"name": "attribute",
					"type": "string"
				},
				{
					"internalType": "string",
					"name": "operatorStr",
					"type": "string"
				},
				{
					"internalType": "string",
					"name": "value",
					"type": "string"
				}
			],
			"stateMutability": "view",
			"type": "function"
		},
		{
			"inputs": [
				{
					"internalType": "bytes4",
					"name": "interfaceId",
					"type": "bytes4"
				}
			],
			"name": "supportsInterface",
			"outputs": [
				{
					"internalType": "bool",
					"name": "",
					"type": "bool"
				}
			],
			"stateMutability": "view",
			"type": "function"
		},
		{
			"inputs": [
				{
					"internalType": "uint256",
					"name": "",
					"type": "uint256"
				},
				{
					"internalType": "uint64",
					"name": "",
					"type": "uint64"
				}
			],
			"name": "tokenID_proofRequest_role",
			"outputs": [
				{
					"internalType": "string",
					"name": "",
					"type": "string"
				}
			],
			"stateMutability": "view",
			"type": "function"
		},
		{
			"inputs": [
				{
					"internalType": "uint256",
					"name": "",
					"type": "uint256"
				}
			],
			"name": "tokenName",
			"outputs": [
				{
					"internalType": "string",
					"name": "",
					"type": "string"
				}
			],
			"stateMutability": "view",
			"type": "function"
		},
		{
			"inputs": [
				{
					"internalType": "uint256",
					"name": "",
					"type": "uint256"
				}
			],
			"name": "uri",
			"outputs": [
				{
					"internalType": "string",
					"name": "",
					"type": "string"
				}
			],
			"stateMutability": "view",
			"type": "function"
		},
		{
			"inputs": [],
			"name": "verifier",
			"outputs": [
				{
					"internalType": "contract UniversalVerifier",
					"name": "",
					"type": "address"
				}
			],
			"stateMutability": "view",
			"type": "function"
		}
	],
	"storageLayout": {
		"storage": [
			{
				"astId": 3430,
				"contract": "PMUniversalVerifier.sol:PMUniversalVerifier",
				"label": "_balances",
				"offset": 0,
				"slot": "0",
				"type": "t_mapping(t_uint256,t_mapping(t_address,t_uint256))"
			},
			{
				"astId": 3436,
				"contract": "PMUniversalVerifier.sol:PMUniversalVerifier",
				"label": "_operatorApprovals",
				"offset": 0,
				"slot": "1",
				"type": "t_mapping(t_address,t_mapping(t_address,t_bool))"
			},
			{
				"astId": 3438,
				"contract": "PMUniversalVerifier.sol:PMUniversalVerifier",
				"label": "_uri",
				"offset": 0,
				"slot": "2",
				"type": "t_string_storage"
			},
			{
				"astId": 3112,
				"contract": "PMUniversalVerifier.sol:PMUniversalVerifier",
				"label": "_owner",
				"offset": 0,
				"slot": "3",
				"type": "t_address"
			},
			{
				"astId": 10028,
				"contract": "PMUniversalVerifier.sol:PMUniversalVerifier",
				"label": "admins",
				"offset": 0,
				"slot": "4",
				"type": "t_array(t_address)dyn_storage"
			},
			{
				"astId": 10174,
				"contract": "PMUniversalVerifier.sol:PMUniversalVerifier",
				"label": "_allTokenIDs",
				"offset": 0,
				"slot": "5",
				"type": "t_struct(UintSet)9862_storage"
			},
			{
				"astId": 10190,
				"contract": "PMUniversalVerifier.sol:PMUniversalVerifier",
				"label": "tokenName",
				"offset": 0,
				"slot": "7",
				"type": "t_mapping(t_uint256,t_string_storage)"
			},
			{
				"astId": 10196,
				"contract": "PMUniversalVerifier.sol:PMUniversalVerifier",
				"label": "tokenID_proofRequest_role",
				"offset": 0,
				"slot": "8",
				"type": "t_mapping(t_uint256,t_mapping(t_uint64,t_string_storage))"
			},
			{
				"astId": 10210,
				"contract": "PMUniversalVerifier.sol:PMUniversalVerifier",
				"label": "spendingConditions",
				"offset": 0,
				"slot": "9",
				"type": "t_mapping(t_uint256,t_mapping(t_uint64,t_struct(SpendingCondition)10203_storage))"
			},
			{
				"astId": 10213,
				"contract": "PMUniversalVerifier.sol:PMUniversalVerifier",
				"label": "proofRequestIDs",
				"offset": 0,
				"slot": "10",
				"type": "t_array(t_uint64)dyn_storage"
			},
			{
				"astId": 10579,
				"contract": "PMUniversalVerifier.sol:PMUniversalVerifier",
				"label": "verifier",
				"offset": 0,
				"slot": "11",
				"type": "t_contract(UniversalVerifier)1554"
			}
		],
		"types": {
			"t_address": {
				"encoding": "inplace",
				"label": "address",
				"numberOfBytes": "20"
			},
			"t_array(t_address)dyn_storage": {
				"base": "t_address",
				"encoding": "dynamic_array",
				"label": "address[]",
				"numberOfBytes": "32"
			},
			"t_array(t_bytes32)dyn_storage": {
				"base": "t_bytes32",
				"encoding": "dynamic_array",
				"label": "bytes32[]",
				"numberOfBytes": "32"
			},
			"t_array(t_uint64)dyn_storage": {
				"base": "t_uint64",
				"encoding": "dynamic_array",
				"label": "uint64[]",
				"numberOfBytes": "32"
			},
			"t_bool": {
				"encoding": "inplace",
				"label": "bool",
				"numberOfBytes": "1"
			},
			"t_bytes32": {
				"encoding": "inplace",
				"label": "bytes32",
				"numberOfBytes": "32"
			},
			"t_contract(UniversalVerifier)1554": {
				"encoding": "inplace",
				"label": "contract UniversalVerifier",
				"numberOfBytes": "20"
			},
			"t_mapping(t_address,t_bool)": {
				"encoding": "mapping",
				"key": "t_address",
				"label": "mapping(address => bool)",
				"numberOfBytes": "32",
				"value": "t_bool"
			},
			"t_mapping(t_address,t_mapping(t_address,t_bool))": {
				"encoding": "mapping",
				"key": "t_address",
				"label": "mapping(address => mapping(address => bool))",
				"numberOfBytes": "32",
				"value": "t_mapping(t_address,t_bool)"
			},
			"t_mapping(t_address,t_uint256)": {
				"encoding": "mapping",
				"key": "t_address",
				"label": "mapping(address => uint256)",
				"numberOfBytes": "32",
				"value": "t_uint256"
			},
			"t_mapping(t_bytes32,t_uint256)": {
				"encoding": "mapping",
				"key": "t_bytes32",
				"label": "mapping(bytes32 => uint256)",
				"numberOfBytes": "32",
				"value": "t_uint256"
			},
			"t_mapping(t_uint256,t_mapping(t_address,t_uint256))": {
				"encoding": "mapping",
				"key": "t_uint256",
				"label": "mapping(uint256 => mapping(address => uint256))",
				"numberOfBytes": "32",
				"value": "t_mapping(t_address,t_uint256)"
			},
			"t_mapping(t_uint256,t_mapping(t_uint64,t_string_storage))": {
				"encoding": "mapping",
				"key": "t_uint256",
				"label": "mapping(uint256 => mapping(uint64 => string))",
				"numberOfBytes": "32",
				"value": "t_mapping(t_uint64,t_string_storage)"
			},
			"t_mapping(t_uint256,t_mapping(t_uint64,t_struct(SpendingCondition)10203_storage))": {
				"encoding": "mapping",
				"key": "t_uint256",
				"label": "mapping(uint256 => mapping(uint64 => struct PMUniversalVerifier.SpendingCondition))",
				"numberOfBytes": "32",
				"value": "t_mapping(t_uint64,t_struct(SpendingCondition)10203_storage)"
			},
			"t_mapping(t_uint256,t_string_storage)": {
				"encoding": "mapping",
				"key": "t_uint256",
				"label": "mapping(uint256 => string)",
				"numberOfBytes": "32",
				"value": "t_string_storage"
			},
			"t_mapping(t_uint64,t_string_storage)": {
				"encoding": "mapping",
				"key": "t_uint64",
				"label": "mapping(uint64 => string)",
				"numberOfBytes": "32",
				"value": "t_string_storage"
			},
			"t_mapping(t_uint64,t_struct(SpendingCondition)10203_storage)": {
				"encoding": "mapping",
				"key": "t_uint64",
				"label": "mapping(uint64 => struct PMUniversalVerifier.SpendingCondition)",
				"numberOfBytes": "32",
				"value": "t_struct(SpendingCondition)10203_storage"
			},
			"t_string_storage": {
				"encoding": "bytes",
				"label": "string",
				"numberOfBytes": "32"
			},
			"t_struct(Set)9321_storage": {
				"encoding": "inplace",
				"label": "struct EnumerableSet.Set",
				"members": [
					{
						"astId": 9316,
						"contract": "PMUniversalVerifier.sol:PMUniversalVerifier",
						"label": "_values",
						"offset": 0,
						"slot": "0",
						"type": "t_array(t_bytes32)dyn_storage"
					},
					{
						"astId": 9320,
						"contract": "PMUniversalVerifier.sol:PMUniversalVerifier",
						"label": "_positions",
						"offset": 0,
						"slot": "1",
						"type": "t_mapping(t_bytes32,t_uint256)"
					}
				],
				"numberOfBytes": "64"
			},
			"t_struct(SpendingCondition)10203_storage": {
				"encoding": "inplace",
				"label": "struct PMUniversalVerifier.SpendingCondition",
				"members": [
					{
						"astId": 10198,
						"contract": "PMUniversalVerifier.sol:PMUniversalVerifier",
						"label": "attribute",
						"offset": 0,
						"slot": "0",
						"type": "t_string_storage"
					},
					{
						"astId": 10200,
						"contract": "PMUniversalVerifier.sol:PMUniversalVerifier",
						"label": "operatorStr",
						"offset": 0,
						"slot": "1",
						"type": "t_string_storage"
					},
					{
						"astId": 10202,
						"contract": "PMUniversalVerifier.sol:PMUniversalVerifier",
						"label": "value",
						"offset": 0,
						"slot": "2",
						"type": "t_string_storage"
					}
				],
				"numberOfBytes": "96"
			},
			"t_struct(UintSet)9862_storage": {
				"encoding": "inplace",
				"label": "struct EnumerableSet.UintSet",
				"members": [
					{
						"astId": 9861,
						"contract": "PMUniversalVerifier.sol:PMUniversalVerifier",
						"label": "_inner",
						"offset": 0,
						"slot": "0",
						"type": "t_struct(Set)9321_storage"
					}
				],
				"numberOfBytes": "64"
			},
			"t_uint256": {
				"encoding": "inplace",
				"label": "uint256",
				"numberOfBytes": "32"
			},
			"t_uint64": {
				"encoding": "inplace",
				"label": "uint64",
				"numberOfBytes": "8"
			}
		}
	},
	"web3Deploy": "var verifier_ = /* var of type address here */ ;\nvar initialOwner = /* var of type address here */ ;\nvar uri_ = /* var of type string here */ ;\nvar pmuniversalverifierContract = new web3.eth.Contract([{\"inputs\":[{\"internalType\":\"contract UniversalVerifier\",\"name\":\"verifier_\",\"type\":\"address\"},{\"internalType\":\"address\",\"name\":\"initialOwner\",\"type\":\"address\"},{\"internalType\":\"string\",\"name\":\"uri_\",\"type\":\"string\"}],\"stateMutability\":\"nonpayable\",\"type\":\"constructor\"},{\"inputs\":[{\"internalType\":\"address\",\"name\":\"sender\",\"type\":\"address\"},{\"internalType\":\"uint256\",\"name\":\"balance\",\"type\":\"uint256\"},{\"internalType\":\"uint256\",\"name\":\"needed\",\"type\":\"uint256\"},{\"internalType\":\"uint256\",\"name\":\"tokenId\",\"type\":\"uint256\"}],\"name\":\"ERC1155InsufficientBalance\",\"type\":\"error\"},{\"inputs\":[{\"internalType\":\"address\",\"name\":\"approver\",\"type\":\"address\"}],\"name\":\"ERC1155InvalidApprover\",\"type\":\"error\"},{\"inputs\":[{\"internalType\":\"uint256\",\"name\":\"idsLength\",\"type\":\"uint256\"},{\"internalType\":\"uint256\",\"name\":\"valuesLength\",\"type\":\"uint256\"}],\"name\":\"ERC1155InvalidArrayLength\",\"type\":\"error\"},{\"inputs\":[{\"internalType\":\"address\",\"name\":\"operator\",\"type\":\"address\"}],\"name\":\"ERC1155InvalidOperator\",\"type\":\"error\"},{\"inputs\":[{\"internalType\":\"address\",\"name\":\"receiver\",\"type\":\"address\"}],\"name\":\"ERC1155InvalidReceiver\",\"type\":\"error\"},{\"inputs\":[{\"internalType\":\"address\",\"name\":\"sender\",\"type\":\"address\"}],\"name\":\"ERC1155InvalidSender\",\"type\":\"error\"},{\"inputs\":[{\"internalType\":\"address\",\"name\":\"operator\",\"type\":\"address\"},{\"internalType\":\"address\",\"name\":\"owner\",\"type\":\"address\"}],\"name\":\"ERC1155MissingApprovalForAll\",\"type\":\"error\"},{\"inputs\":[{\"internalType\":\"address\",\"name\":\"owner\",\"type\":\"address\"}],\"name\":\"OwnableInvalidOwner\",\"type\":\"error\"},{\"inputs\":[{\"internalType\":\"address\",\"name\":\"account\",\"type\":\"address\"}],\"name\":\"OwnableUnauthorizedAccount\",\"type\":\"error\"},{\"inputs\":[{\"internalType\":\"uint64\",\"name\":\"requestID\",\"type\":\"uint64\"},{\"internalType\":\"address\",\"name\":\"proverAddress\",\"type\":\"address\"}],\"name\":\"ProofNotVerified\",\"type\":\"error\"},{\"inputs\":[{\"internalType\":\"uint256\",\"name\":\"tokenID\",\"type\":\"uint256\"}],\"name\":\"TokenIDNotFound\",\"type\":\"error\"},{\"inputs\":[{\"internalType\":\"uint256\",\"name\":\"tokenID\",\"type\":\"uint256\"}],\"name\":\"TokenIDTaken\",\"type\":\"error\"},{\"anonymous\":false,\"inputs\":[{\"indexed\":true,\"internalType\":\"address\",\"name\":\"account\",\"type\":\"address\"},{\"indexed\":true,\"internalType\":\"address\",\"name\":\"operator\",\"type\":\"address\"},{\"indexed\":false,\"internalType\":\"bool\",\"name\":\"approved\",\"type\":\"bool\"}],\"name\":\"ApprovalForAll\",\"type\":\"event\"},{\"anonymous\":false,\"inputs\":[{\"indexed\":true,\"internalType\":\"address\",\"name\":\"previousOwner\",\"type\":\"address\"},{\"indexed\":true,\"internalType\":\"address\",\"name\":\"newOwner\",\"type\":\"address\"}],\"name\":\"OwnershipTransferred\",\"type\":\"event\"},{\"anonymous\":false,\"inputs\":[{\"indexed\":true,\"internalType\":\"address\",\"name\":\"operator\",\"type\":\"address\"},{\"indexed\":true,\"internalType\":\"address\",\"name\":\"from\",\"type\":\"address\"},{\"indexed\":true,\"internalType\":\"address\",\"name\":\"to\",\"type\":\"address\"},{\"indexed\":false,\"internalType\":\"uint256[]\",\"name\":\"ids\",\"type\":\"uint256[]\"},{\"indexed\":false,\"internalType\":\"uint256[]\",\"name\":\"values\",\"type\":\"uint256[]\"}],\"name\":\"TransferBatch\",\"type\":\"event\"},{\"anonymous\":false,\"inputs\":[{\"indexed\":true,\"internalType\":\"address\",\"name\":\"operator\",\"type\":\"address\"},{\"indexed\":true,\"internalType\":\"address\",\"name\":\"from\",\"type\":\"address\"},{\"indexed\":true,\"internalType\":\"address\",\"name\":\"to\",\"type\":\"address\"},{\"indexed\":false,\"internalType\":\"uint256\",\"name\":\"id\",\"type\":\"uint256\"},{\"indexed\":false,\"internalType\":\"uint256\",\"name\":\"value\",\"type\":\"uint256\"}],\"name\":\"TransferSingle\",\"type\":\"event\"},{\"anonymous\":false,\"inputs\":[{\"indexed\":false,\"internalType\":\"string\",\"name\":\"value\",\"type\":\"string\"},{\"indexed\":true,\"internalType\":\"uint256\",\"name\":\"id\",\"type\":\"uint256\"}],\"name\":\"URI\",\"type\":\"event\"},{\"inputs\":[{\"internalType\":\"address\",\"name\":\"_admin\",\"type\":\"address\"}],\"name\":\"addAdmin\",\"outputs\":[],\"stateMutability\":\"nonpayable\",\"type\":\"function\"},{\"inputs\":[{\"internalType\":\"uint256\",\"name\":\"tokenID\",\"type\":\"uint256\"},{\"internalType\":\"uint64\",\"name\":\"requestID\",\"type\":\"uint64\"},{\"internalType\":\"string\",\"name\":\"role\",\"type\":\"string\"}],\"name\":\"addProofRequestAndRole\",\"outputs\":[],\"stateMutability\":\"nonpayable\",\"type\":\"function\"},{\"inputs\":[{\"internalType\":\"uint64\",\"name\":\"requestId\",\"type\":\"uint64\"},{\"internalType\":\"string\",\"name\":\"metadata\",\"type\":\"string\"},{\"internalType\":\"contract ICircuitValidator\",\"name\":\"validator\",\"type\":\"address\"},{\"internalType\":\"bytes\",\"name\":\"data\",\"type\":\"bytes\"},{\"internalType\":\"uint256\",\"name\":\"tokenID\",\"type\":\"uint256\"},{\"internalType\":\"string\",\"name\":\"role\",\"type\":\"string\"},{\"components\":[{\"internalType\":\"string\",\"name\":\"attribute\",\"type\":\"string\"},{\"internalType\":\"string\",\"name\":\"operatorStr\",\"type\":\"string\"},{\"internalType\":\"string\",\"name\":\"value\",\"type\":\"string\"}],\"internalType\":\"struct PMUniversalVerifier.SpendingCondition\",\"name\":\"condition\",\"type\":\"tuple\"}],\"name\":\"addProofRequest_VerifierAndPM\",\"outputs\":[],\"stateMutability\":\"nonpayable\",\"type\":\"function\"},{\"inputs\":[],\"name\":\"allTokenIDs\",\"outputs\":[{\"internalType\":\"uint256[]\",\"name\":\"\",\"type\":\"uint256[]\"}],\"stateMutability\":\"view\",\"type\":\"function\"},{\"inputs\":[{\"internalType\":\"address\",\"name\":\"account\",\"type\":\"address\"},{\"internalType\":\"uint256\",\"name\":\"id\",\"type\":\"uint256\"}],\"name\":\"balanceOf\",\"outputs\":[{\"internalType\":\"uint256\",\"name\":\"\",\"type\":\"uint256\"}],\"stateMutability\":\"view\",\"type\":\"function\"},{\"inputs\":[{\"internalType\":\"address[]\",\"name\":\"accounts\",\"type\":\"address[]\"},{\"internalType\":\"uint256[]\",\"name\":\"ids\",\"type\":\"uint256[]\"}],\"name\":\"balanceOfBatch\",\"outputs\":[{\"internalType\":\"uint256[]\",\"name\":\"\",\"type\":\"uint256[]\"}],\"stateMutability\":\"view\",\"type\":\"function\"},{\"inputs\":[{\"internalType\":\"address\",\"name\":\"account\",\"type\":\"address\"},{\"internalType\":\"uint256\",\"name\":\"ID\",\"type\":\"uint256\"},{\"internalType\":\"uint256\",\"name\":\"amount\",\"type\":\"uint256\"}],\"name\":\"burn\",\"outputs\":[],\"stateMutability\":\"nonpayable\",\"type\":\"function\"},{\"inputs\":[{\"internalType\":\"uint256\",\"name\":\"tokenID\",\"type\":\"uint256\"},{\"internalType\":\"uint64\",\"name\":\"requestID\",\"type\":\"uint64\"}],\"name\":\"deleteProofRequestAndRole\",\"outputs\":[],\"stateMutability\":\"nonpayable\",\"type\":\"function\"},{\"inputs\":[],\"name\":\"fungible_token\",\"outputs\":[{\"internalType\":\"uint256\",\"name\":\"\",\"type\":\"uint256\"}],\"stateMutability\":\"view\",\"type\":\"function\"},{\"inputs\":[],\"name\":\"getAdmins\",\"outputs\":[{\"internalType\":\"address[]\",\"name\":\"\",\"type\":\"address[]\"}],\"stateMutability\":\"view\",\"type\":\"function\"},{\"inputs\":[{\"internalType\":\"uint256\",\"name\":\"tokenID\",\"type\":\"uint256\"}],\"name\":\"getSpendingConditions\",\"outputs\":[{\"internalType\":\"uint64[]\",\"name\":\"\",\"type\":\"uint64[]\"},{\"components\":[{\"internalType\":\"string\",\"name\":\"attribute\",\"type\":\"string\"},{\"internalType\":\"string\",\"name\":\"operatorStr\",\"type\":\"string\"},{\"internalType\":\"string\",\"name\":\"value\",\"type\":\"string\"}],\"internalType\":\"struct PMUniversalVerifier.SpendingCondition[]\",\"name\":\"\",\"type\":\"tuple[]\"}],\"stateMutability\":\"view\",\"type\":\"function\"},{\"inputs\":[{\"internalType\":\"address\",\"name\":\"account\",\"type\":\"address\"},{\"internalType\":\"address\",\"name\":\"operator\",\"type\":\"address\"}],\"name\":\"isApprovedForAll\",\"outputs\":[{\"internalType\":\"bool\",\"name\":\"\",\"type\":\"bool\"}],\"stateMutability\":\"view\",\"type\":\"function\"},{\"inputs\":[{\"internalType\":\"address\",\"name\":\"to\",\"type\":\"address\"},{\"internalType\":\"uint256\",\"name\":\"amount\",\"type\":\"uint256\"},{\"internalType\":\"bytes\",\"name\":\"data\",\"type\":\"bytes\"},{\"internalType\":\"string\",\"name\":\"name\",\"type\":\"string\"}],\"name\":\"mintToken\",\"outputs\":[],\"stateMutability\":\"nonpayable\",\"type\":\"function\"},{\"inputs\":[],\"name\":\"non_fungible_token\",\"outputs\":[{\"internalType\":\"uint256\",\"name\":\"\",\"type\":\"uint256\"}],\"stateMutability\":\"view\",\"type\":\"function\"},{\"inputs\":[],\"name\":\"owner\",\"outputs\":[{\"internalType\":\"address\",\"name\":\"\",\"type\":\"address\"}],\"stateMutability\":\"view\",\"type\":\"function\"},{\"inputs\":[{\"internalType\":\"uint256\",\"name\":\"\",\"type\":\"uint256\"}],\"name\":\"proofRequestIDs\",\"outputs\":[{\"internalType\":\"uint64\",\"name\":\"\",\"type\":\"uint64\"}],\"stateMutability\":\"view\",\"type\":\"function\"},{\"inputs\":[{\"internalType\":\"address\",\"name\":\"_admin\",\"type\":\"address\"}],\"name\":\"removeAdmin\",\"outputs\":[],\"stateMutability\":\"nonpayable\",\"type\":\"function\"},{\"inputs\":[],\"name\":\"renounceOwnership\",\"outputs\":[],\"stateMutability\":\"nonpayable\",\"type\":\"function\"},{\"inputs\":[{\"internalType\":\"address\",\"name\":\"from\",\"type\":\"address\"},{\"internalType\":\"address\",\"name\":\"to\",\"type\":\"address\"},{\"internalType\":\"uint256[]\",\"name\":\"tokenIDs\",\"type\":\"uint256[]\"},{\"internalType\":\"uint256[]\",\"name\":\"amounts\",\"type\":\"uint256[]\"},{\"internalType\":\"bytes\",\"name\":\"data\",\"type\":\"bytes\"}],\"name\":\"safeBatchTransferFrom\",\"outputs\":[],\"stateMutability\":\"nonpayable\",\"type\":\"function\"},{\"inputs\":[{\"internalType\":\"address\",\"name\":\"from\",\"type\":\"address\"},{\"internalType\":\"address\",\"name\":\"to\",\"type\":\"address\"},{\"internalType\":\"uint256\",\"name\":\"tokenID\",\"type\":\"uint256\"},{\"internalType\":\"uint256\",\"name\":\"amount\",\"type\":\"uint256\"},{\"internalType\":\"bytes\",\"name\":\"data\",\"type\":\"bytes\"}],\"name\":\"safeTransferFrom\",\"outputs\":[],\"stateMutability\":\"nonpayable\",\"type\":\"function\"},{\"inputs\":[{\"internalType\":\"address\",\"name\":\"operator\",\"type\":\"address\"},{\"internalType\":\"bool\",\"name\":\"approved\",\"type\":\"bool\"}],\"name\":\"setApprovalForAll\",\"outputs\":[],\"stateMutability\":\"nonpayable\",\"type\":\"function\"},{\"inputs\":[{\"internalType\":\"uint256\",\"name\":\"\",\"type\":\"uint256\"},{\"internalType\":\"uint64\",\"name\":\"\",\"type\":\"uint64\"}],\"name\":\"spendingConditions\",\"outputs\":[{\"internalType\":\"string\",\"name\":\"attribute\",\"type\":\"string\"},{\"internalType\":\"string\",\"name\":\"operatorStr\",\"type\":\"string\"},{\"internalType\":\"string\",\"name\":\"value\",\"type\":\"string\"}],\"stateMutability\":\"view\",\"type\":\"function\"},{\"inputs\":[{\"internalType\":\"bytes4\",\"name\":\"interfaceId\",\"type\":\"bytes4\"}],\"name\":\"supportsInterface\",\"outputs\":[{\"internalType\":\"bool\",\"name\":\"\",\"type\":\"bool\"}],\"stateMutability\":\"view\",\"type\":\"function\"},{\"inputs\":[{\"internalType\":\"uint256\",\"name\":\"\",\"type\":\"uint256\"},{\"internalType\":\"uint64\",\"name\":\"\",\"type\":\"uint64\"}],\"name\":\"tokenID_proofRequest_role\",\"outputs\":[{\"internalType\":\"string\",\"name\":\"\",\"type\":\"string\"}],\"stateMutability\":\"view\",\"type\":\"function\"},{\"inputs\":[{\"internalType\":\"uint256\",\"name\":\"\",\"type\":\"uint256\"}],\"name\":\"tokenName\",\"outputs\":[{\"internalType\":\"string\",\"name\":\"\",\"type\":\"string\"}],\"stateMutability\":\"view\",\"type\":\"function\"},{\"inputs\":[{\"internalType\":\"address\",\"name\":\"newOwner\",\"type\":\"address\"}],\"name\":\"transferOwnership\",\"outputs\":[],\"stateMutability\":\"nonpayable\",\"type\":\"function\"},{\"inputs\":[{\"internalType\":\"uint256\",\"name\":\"\",\"type\":\"uint256\"}],\"name\":\"uri\",\"outputs\":[{\"internalType\":\"string\",\"name\":\"\",\"type\":\"string\"}],\"stateMutability\":\"view\",\"type\":\"function\"},{\"inputs\":[],\"name\":\"verifier\",\"outputs\":[{\"internalType\":\"contract UniversalVerifier\",\"name\":\"\",\"type\":\"address\"}],\"stateMutability\":\"view\",\"type\":\"function\"}]);\nvar pmuniversalverifier = pmuniversalverifierContract.deploy({\n     data: '0x608060405234801562000010575f80fd5b5060405162003bd138038062003bd1833981016040819052620000339162000133565b81816200004081620000a4565b506001600160a01b0381166200006f57604051631e4fbdf760e01b81525f600482015260240160405180910390fd5b6200007a81620000b6565b5050600b80546001600160a01b0319166001600160a01b039390931692909217909155506200037f565b6002620000b28282620002b7565b5050565b600380546001600160a01b038381166001600160a01b0319831681179093556040519116919082907f8be0079c531659141344cd1fd0a4f28419497f9722a3daafe3b4186f6b6457e0905f90a35050565b6001600160a01b03811681146200011c575f80fd5b50565b634e487b7160e01b5f52604160045260245ffd5b5f805f6060848603121562000146575f80fd5b8351620001538162000107565b80935050602080850151620001688162000107565b60408601519093506001600160401b038082111562000185575f80fd5b818701915087601f83011262000199575f80fd5b815181811115620001ae57620001ae6200011f565b604051601f8201601f19908116603f01168101908382118183101715620001d957620001d96200011f565b816040528281528a86848701011115620001f1575f80fd5b5f93505b82841015620002145784840186015181850187015292850192620001f5565b5f8684830101528096505050505050509250925092565b600181811c908216806200024057607f821691505b6020821081036200025f57634e487b7160e01b5f52602260045260245ffd5b50919050565b601f821115620002b2575f81815260208120601f850160051c810160208610156200028d5750805b601f850160051c820191505b81811015620002ae5782815560010162000299565b5050505b505050565b81516001600160401b03811115620002d357620002d36200011f565b620002eb81620002e484546200022b565b8462000265565b602080601f83116001811462000321575f8415620003095750858301515b5f19600386901b1c1916600185901b178555620002ae565b5f85815260208120601f198616915b82811015620003515788860151825594840194600190910190840162000330565b50858210156200036f57878501515f19600388901b60f8161c191681555b5050505050600190811b01905550565b613844806200038d5f395ff3fe608060405234801561000f575f80fd5b50600436106101ba575f3560e01c80637330dd84116100f3578063cf5219ad11610093578063e985e9c51161006e578063e985e9c5146103e6578063f242432a14610421578063f2fde38b14610434578063f5298aca14610447575f80fd5b8063cf5219ad146103a0578063d121cdc0146103a8578063e725f877146103d3575f80fd5b80638da5cb5b116100ce5780638da5cb5b146103475780638ed46cfd14610358578063a22cb4651461037a578063c1f959131461038d575f80fd5b80637330dd84146103245780637578b24814610337578063784008ce1461033f575f80fd5b80632eb2c2d61161015e5780634e1273f4116101395780634e1273f4146102d657806350fbdb2d146102f65780637048027514610309578063715018a61461031c575f80fd5b80632eb2c2d61461029b5780632f4955f6146102ae57806331ae450b146102c1575f80fd5b80630e89341c116101995780630e89341c146102285780631785f53c146102485780632b7ac3f31461025d5780632dbff95014610288575f80fd5b8062fdd58e146101be57806301843a14146101e457806301ffc9a714610205575b5f80fd5b6101d16101cc3660046129a9565b61045a565b6040519081526020015b60405180910390f35b6101f76101f23660046129d3565b610481565b6040516101db929190612a37565b610218610213366004612b2a565b610951565b60405190151581526020016101db565b61023b6102363660046129d3565b6109a0565b6040516101db9190612b45565b61025b610256366004612b57565b610a32565b005b600b54610270906001600160a01b031681565b6040516001600160a01b0390911681526020016101db565b61025b610296366004612bb6565b610b7e565b61025b6102a9366004612da4565b610e35565b61023b6102bc366004612e65565b610f7a565b6102c961101c565b6040516101db9190612e8f565b6102e96102e4366004612edb565b611084565b6040516101db9190612fcf565b61025b610304366004612e65565b611156565b61025b610317366004612b57565b6113dc565b61025b6114d3565b61025b610332366004613002565b6114e6565b6102e9611741565b6101d1600181565b6003546001600160a01b0316610270565b61036b610366366004612e65565b611752565b6040516101db939291906130e2565b61025b610388366004613131565b611910565b61025b61039b366004613168565b61191f565b6101d1600281565b6103bb6103b63660046129d3565b611bd9565b6040516001600160401b0390911681526020016101db565b61023b6103e13660046129d3565b611c13565b6102186103f43660046131bd565b6001600160a01b039182165f90815260016020908152604080832093909416825291909152205460ff1690565b61025b61042f3660046131e9565b611c2b565b61025b610442366004612b57565b611c4a565b61025b61045536600461324c565b611c84565b5f818152602081815260408083206001600160a01b03861684529091529020545b92915050565b6060805f600a80548060200260200160405190810160405280929190818152602001828054801561050057602002820191905f5260205f20905f905b82829054906101000a90046001600160401b03166001600160401b0316815260200190600801906020826007010492830192600103820291508084116104bd5790505b505050505090505f805b8251811015610592575f868152600960205260408120845182908690859081106105365761053661327e565b60200260200101516001600160401b03166001600160401b031681526020019081526020015f205f01805461056a90613292565b90501115610580578161057c816132d8565b9250505b8061058a816132d8565b91505061050a565b505f816001600160401b038111156105ac576105ac612c3b565b6040519080825280602002602001820160405280156105d5578160200160208202803683370190505b5090505f826001600160401b038111156105f1576105f1612c3b565b60405190808252806020026020018201604052801561064657816020015b61063360405180606001604052806060815260200160608152602001606081525090565b81526020019060019003908161060f5790505b5090505f805b8551811015610943575f898152600960205260408120875182908990859081106106785761067861327e565b60200260200101516001600160401b03166001600160401b031681526020019081526020015f205f0180546106ac90613292565b90501115610931578581815181106106c6576106c661327e565b60200260200101518483815181106106e0576106e061327e565b60200260200101906001600160401b031690816001600160401b03168152505060095f8a81526020019081526020015f205f8783815181106107245761072461327e565b60200260200101516001600160401b03166001600160401b031681526020019081526020015f206040518060600160405290815f8201805461076590613292565b80601f016020809104026020016040519081016040528092919081815260200182805461079190613292565b80156107dc5780601f106107b3576101008083540402835291602001916107dc565b820191905f5260205f20905b8154815290600101906020018083116107bf57829003601f168201915b505050505081526020016001820180546107f590613292565b80601f016020809104026020016040519081016040528092919081815260200182805461082190613292565b801561086c5780601f106108435761010080835404028352916020019161086c565b820191905f5260205f20905b81548152906001019060200180831161084f57829003601f168201915b5050505050815260200160028201805461088590613292565b80601f01602080910402602001604051908101604052809291908181526020018280546108b190613292565b80156108fc5780601f106108d3576101008083540402835291602001916108fc565b820191905f5260205f20905b8154815290600101906020018083116108df57829003601f168201915b5050505050815250508383815181106109175761091761327e565b6020026020010181905250818061092d906132d8565b9250505b8061093b816132d8565b91505061064c565b509197909650945050505050565b5f6001600160e01b03198216636cdb3d1360e11b148061098157506001600160e01b031982166303a24d0760e21b145b8061047b57506301ffc9a760e01b6001600160e01b031983161461047b565b6060600280546109af90613292565b80601f01602080910402602001604051908101604052809291908181526020018280546109db90613292565b8015610a265780601f106109fd57610100808354040283529160200191610a26565b820191905f5260205f20905b815481529060010190602001808311610a0957829003601f168201915b50505050509050919050565b610a3a611c97565b6004545f5b81811015610b3b57826001600160a01b031660048281548110610a6457610a6461327e565b5f918252602090912001546001600160a01b031603610b29576004610a8a6001846132f0565b81548110610a9a57610a9a61327e565b5f91825260209091200154600480546001600160a01b039092169183908110610ac557610ac561327e565b905f5260205f20015f6101000a8154816001600160a01b0302191690836001600160a01b031602179055506004805480610b0157610b01613303565b5f8281526020902081015f1990810180546001600160a01b031916905501905550610b7b9050565b80610b33816132d8565b915050610a3f565b5060405162461bcd60e51b815260206004820152600f60248201526e10591b5a5b881b9bdd08199bdd5b99608a1b60448201526064015b60405180910390fd5b50565b610b86611c97565b80610bc35760405162461bcd60e51b815260206004820152600d60248201526c13985b59481c995c5d5a5c9959609a1b6044820152606401610b72565b5f805f610bd06005611cc4565b90505f5b8151811015610c70578585604051610bed929190613317565b604051809103902060075f848481518110610c0a57610c0a61327e565b602002602001015181526020019081526020015f20604051610c2c9190613326565b604051809103902003610c5e57818181518110610c4b57610c4b61327e565b6020026020010151935060019250610c70565b80610c68816132d8565b915050610bd4565b508115610cbd57610cb889848a8a8a8080601f0160208091040260200160405190810160405280939291908181526020018383808284375f92019190915250611cd792505050565b610e2a565b5f805b62015f9042448d8a8a86604051602001610cdf96959493929190613398565b604051602081830303815290604052805190602001205f1c610d0191906133d3565b610d0d906103e86133f2565b915080610d19816132d8565b91505060648110610d785760405162461bcd60e51b8152602060048201526024808201527f556e61626c6520746f2066696e6420756e697175652073686f727420746f6b656044820152631b88125160e21b6064820152608401610b72565b610d83600583611d32565b610cc057610d92600583611d49565b610dcd5760405162461bcd60e51b815260206004820152600c60248201526b2a37b5b2b724a22a30b5b2b760a11b6044820152606401610b72565b610e0e8b838c8c8c8080601f0160208091040260200160405190810160405280939291908181526020018383808284375f92019190915250611cd792505050565b5f828152600760205260409020610e2687898361344a565b5050505b505050505050505050565b8151835114610e905760405162461bcd60e51b815260206004820152602160248201527f455243313135353a204d69736d617463686564206172726179206c656e6774686044820152607360f81b6064820152608401610b72565b6001600160a01b038416610ef45760405162461bcd60e51b815260206004820152602560248201527f455243313135353a207472616e7366657220746f20746865207a65726f206164604482015264647265737360d81b6064820152608401610b72565b5f5b8351811015610f7257610f23848281518110610f1457610f1461327e565b60200260200101518787611d54565b610f628686868481518110610f3a57610f3a61327e565b6020026020010151868581518110610f5457610f5461327e565b602002602001015186611c2b565b610f6b816132d8565b9050610ef6565b505050505050565b600860209081525f928352604080842090915290825290208054610f9d90613292565b80601f0160208091040260200160405190810160405280929190818152602001828054610fc990613292565b80156110145780601f10610feb57610100808354040283529160200191611014565b820191905f5260205f20905b815481529060010190602001808311610ff757829003601f168201915b505050505081565b6060611026611c97565b600480548060200260200160405190810160405280929190818152602001828054801561107a57602002820191905f5260205f20905b81546001600160a01b0316815260019091019060200180831161105c575b5050505050905090565b606081518351146110b55781518351604051635b05999160e01b815260048101929092526024820152604401610b72565b5f83516001600160401b038111156110cf576110cf612c3b565b6040519080825280602002602001820160405280156110f8578160200160208202803683370190505b5090505f5b845181101561114e576020808202860101516111219060208084028701015161045a565b8282815181106111335761113361327e565b6020908102919091010152611147816132d8565b90506110fd565b509392505050565b61115f3361217a565b6111a45760405162461bcd60e51b815260206004820152601660248201527521b0b63632b91034b9903737ba1030b71030b236b4b760511b6044820152606401610b72565b6111af600583611d32565b6111f55760405162461bcd60e51b81526020600482015260176024820152761d1bdad95b881a5908191bd95cc81b9bdd08195e1a5cdd604a1b6044820152606401610b72565b5f8281526008602090815260408083206001600160401b03851684529091529020805461122190613292565b90505f036112715760405162461bcd60e51b815260206004820152601c60248201527f50726f6f66207265717565737420646f6573206e6f74206578697374000000006044820152606401610b72565b5f8281526008602090815260408083206001600160401b0385168452909152812061129b9161294b565b5f5b600a548110156113d757816001600160401b0316600a82815481106112c4576112c461327e565b5f918252602090912060048204015460039091166008026101000a90046001600160401b0316036113c557600a80546112ff906001906132f0565b8154811061130f5761130f61327e565b905f5260205f2090600491828204019190066008029054906101000a90046001600160401b0316600a82815481106113495761134961327e565b905f5260205f2090600491828204019190066008026101000a8154816001600160401b0302191690836001600160401b03160217905550600a80548061139157611391613303565b5f8281526020902060045f199092019182040180546001600160401b03600860038516026101000a02191690559055505050565b806113cf816132d8565b91505061129d565b505050565b6113e4611c97565b6001600160a01b03811661142c5760405162461bcd60e51b815260206004820152600f60248201526e496e76616c6964206164647265737360881b6044820152606401610b72565b6114358161217a565b156114825760405162461bcd60e51b815260206004820152601b60248201527f4164647265737320697320616c726561647920616e2061646d696e00000000006044820152606401610b72565b600480546001810182555f919091527f8a35acfbc15ff81a39ae7d344fd709f28e8600b4aa8c65c6b64bfe7fe36bd19b0180546001600160a01b0319166001600160a01b0392909216919091179055565b6114db611c97565b6114e45f6121e0565b565b6040805160806020601f8c018190040282018101909252606081018a81525f928291908d908d90819085018382808284375f920191909152505050908252506001600160a01b038a1660208083019190915260408051601f8b0183900483028101830182528a8152920191908a908a90819084018382808284375f920191909152505050915250600b546040516304fa911f60e51b81529192506001600160a01b031690639f5223e0906115a0908e908590600401613504565b5f604051808303815f87803b1580156115b7575f80fd5b505af11580156115c9573d5f803e3d5ffd5b505050506115d9858c868661191f565b6040805160608101909152806115ef848061355f565b8080601f0160208091040260200160405190810160405280939291908181526020018383808284375f920191909152505050908252506020908101906116379085018561355f565b8080601f0160208091040260200160405190810160405280939291908181526020018383808284375f9201919091525050509082525060200161167d604085018561355f565b8080601f0160208091040260200160405190810160405280939291908181526020018383808284375f81840152601f19601f8201169050808301925050505050505081525060095f8781526020019081526020015f205f8d6001600160401b03166001600160401b031681526020019081526020015f205f820151815f01908161170791906135a1565b506020820151600182019061171c90826135a1565b506040820151600282019061173190826135a1565b5050505050505050505050505050565b606061174d6005611cc4565b905090565b600960209081525f928352604080842090915290825290208054819061177790613292565b80601f01602080910402602001604051908101604052809291908181526020018280546117a390613292565b80156117ee5780601f106117c5576101008083540402835291602001916117ee565b820191905f5260205f20905b8154815290600101906020018083116117d157829003601f168201915b50505050509080600101805461180390613292565b80601f016020809104026020016040519081016040528092919081815260200182805461182f90613292565b801561187a5780601f106118515761010080835404028352916020019161187a565b820191905f5260205f20905b81548152906001019060200180831161185d57829003601f168201915b50505050509080600201805461188f90613292565b80601f01602080910402602001604051908101604052809291908181526020018280546118bb90613292565b80156119065780601f106118dd57610100808354040283529160200191611906565b820191905f5260205f20905b8154815290600101906020018083116118e957829003601f168201915b5050505050905083565b61191b338383612231565b5050565b6119283361217a565b61196d5760405162461bcd60e51b815260206004820152601660248201527521b0b63632b91034b9903737ba1030b71030b236b4b760511b6044820152606401610b72565b611978600585611d32565b6119be5760405162461bcd60e51b81526020600482015260176024820152761d1bdad95b881a5908191bd95cc81b9bdd08195e1a5cdd604a1b6044820152606401610b72565b5f8481526008602090815260408083206001600160401b0387168452909152902080546119ea90613292565b159050611a395760405162461bcd60e51b815260206004820152601c60248201527f50726f6f66207265717565737420616c726561647920657869737473000000006044820152606401610b72565b604080518082018252600681526539b2b73232b960d11b602090910152517f168e92ce035ba45e59a0314b0ed9a9e619b284aed8f6e5ab0a596efd5c9f5cf990611a869084908490613317565b60405180910390201480611aee575060408051808201825260088152673932b1b2b4bb32b960c11b602090910152517f5e784e45feb63c375016d4ce5c52a57b0a48b8a170bc2e31463be0d03d1c4db690611ae49084908490613317565b6040518091039020145b611b465760405162461bcd60e51b815260206004820152602360248201527f526f6c65206d757374206265202773656e64657227206f72202772656365697660448201526265722760e81b6064820152608401610b72565b5f8481526008602090815260408083206001600160401b03871684529091529020611b7282848361344a565b5050600a80546001810182555f919091527fc65a7bb8d6351c1cf70c95a316cc6a92839c986682d98bc35f958f4883f9d2a86004820401805460039092166008026101000a6001600160401b03818102199093169490921691909102929092179091555050565b600a8181548110611be8575f80fd5b905f5260205f209060049182820401919006600802915054906101000a90046001600160401b031681565b60076020525f908152604090208054610f9d90613292565b611c36838686611d54565b611c4385858585856122c5565b5050505050565b611c52611c97565b6001600160a01b038116611c7b57604051631e4fbdf760e01b81525f6004820152602401610b72565b610b7b816121e0565b611c8c611c97565b6113d7838383612342565b6003546001600160a01b031633146114e45760405163118cdaa760e01b8152336004820152602401610b72565b60605f611cd0836123a8565b9392505050565b6001600160a01b038416611d0057604051632bfa23e760e11b81525f6004820152602401610b72565b60408051600180825260208201869052818301908152606082018590526080820190925290610f725f87848487612400565b5f8181526001830160205260408120541515611cd0565b5f611cd08383612453565b5f600a805480602002602001604051908101604052809291908181526020018280548015611dd057602002820191905f5260205f20905f905b82829054906101000a90046001600160401b03166001600160401b031681526020019060080190602082600701049283019260010382029150808411611d8d5790505b505050505090505f5b8151811015611c43575f85815260086020526040812083518290859085908110611e0557611e0561327e565b60200260200101516001600160401b03166001600160401b031681526020019081526020015f208054611e3790613292565b80601f0160208091040260200160405190810160405280929190818152602001828054611e6390613292565b8015611eae5780601f10611e8557610100808354040283529160200191611eae565b820191905f5260205f20905b815481529060010190602001808311611e9157829003601f168201915b5050505050905080515f03611ec35750612168565b60408051808201909152600681526539b2b73232b960d11b6020918201528151908201207fe9716d31fca45ba1a65fceb4f1265619e64d7b5127091a54f5a69102a360a3070161201657600b5483516001600160a01b0390911690638c1da2c9908790869086908110611f3857611f3861327e565b60200260200101516040518363ffffffff1660e01b8152600401611f7a9291906001600160a01b039290921682526001600160401b0316602082015260400190565b5f60405180830381865afa158015611f94573d5f803e3d5ffd5b505050506040513d5f823e601f3d908101601f19168201604052611fbb919081019061365c565b5161201157828281518110611fd257611fd261327e565b60209081029190910101516040516352d2304760e11b81526001600160401b0390911660048201526001600160a01b0386166024820152604401610b72565b612166565b6040805180820190915260088152673932b1b2b4bb32b960c11b6020918201528151908201207fa187b1ba0149c3c8afe92b31a3ad5a84f5b7475e8f43d1ceb9c41f2fc2e3b24a0161216657600b5483516001600160a01b0390911690638c1da2c990869086908690811061208d5761208d61327e565b60200260200101516040518363ffffffff1660e01b81526004016120cf9291906001600160a01b039290921682526001600160401b0316602082015260400190565b5f60405180830381865afa1580156120e9573d5f803e3d5ffd5b505050506040513d5f823e601f3d908101601f19168201604052612110919081019061365c565b51612166578282815181106121275761212761327e565b60209081029190910101516040516352d2304760e11b81526001600160401b0390911660048201526001600160a01b0385166024820152604401610b72565b505b80612172816132d8565b915050611dd9565b5f805b6004548110156121d857826001600160a01b0316600482815481106121a4576121a461327e565b5f918252602090912001546001600160a01b0316036121c65750600192915050565b806121d0816132d8565b91505061217d565b505f92915050565b600380546001600160a01b038381166001600160a01b0319831681179093556040519116919082907f8be0079c531659141344cd1fd0a4f28419497f9722a3daafe3b4186f6b6457e0905f90a35050565b6001600160a01b0382166122595760405162ced3e160e81b81525f6004820152602401610b72565b6001600160a01b038381165f81815260016020908152604080832094871680845294825291829020805460ff191686151590811790915591519182527f17307eab39ab6107e8899845ad3d59bd9653f200f220920489ca2b5937696c31910160405180910390a3505050565b336001600160a01b038616811480159061230457506001600160a01b038087165f9081526001602090815260408083209385168352929052205460ff16155b156123355760405163711bec9160e11b81526001600160a01b03808316600483015287166024820152604401610b72565b610f72868686868661249f565b6001600160a01b03831661236a57604051626a0d4560e21b81525f6004820152602401610b72565b604080516001808252602082018590528183019081526060820184905260a082019092525f60808201818152919291611c4391879185908590612400565b6060815f01805480602002602001604051908101604052809291908181526020018280548015610a2657602002820191905f5260205f20905b8154815260200190600101908083116123e15750505050509050919050565b61240c8585858561252b565b6001600160a01b03841615611c435782513390600103612445576020848101519084015161243e838989858589612743565b5050610f72565b610f72818787878787612864565b5f81815260018301602052604081205461249857508154600181810184555f84815260208082209093018490558454848252828601909352604090209190915561047b565b505f61047b565b6001600160a01b0384166124c857604051632bfa23e760e11b81525f6004820152602401610b72565b6001600160a01b0385166124f057604051626a0d4560e21b81525f6004820152602401610b72565b604080516001808252602082018690528183019081526060820185905260808201909252906125228787848487612400565b50505050505050565b805182511461255a5781518151604051635b05999160e01b815260048101929092526024820152604401610b72565b335f5b8351811015612665576020818102858101820151908501909101516001600160a01b0388161561260e575f828152602081815260408083206001600160a01b038c168452909152902054818110156125e8576040516303dee4c560e01b81526001600160a01b038a166004820152602481018290526044810183905260648101849052608401610b72565b5f838152602081815260408083206001600160a01b038d16845290915290209082900390555b6001600160a01b03871615612652575f828152602081815260408083206001600160a01b038b1684529091528120805483929061264c9084906133f2565b90915550505b50508061265e906132d8565b905061255d565b5082516001036126e55760208301515f906020840151909150856001600160a01b0316876001600160a01b0316846001600160a01b03167fc3d58168c5ae7397731d063d5bbf3d657854427343f4c083240f7aacaa2d0f6285856040516126d6929190918252602082015260400190565b60405180910390a45050611c43565b836001600160a01b0316856001600160a01b0316826001600160a01b03167f4a39dc06d4c0dbc64b70af90fd698a233a518aa5d07e595d983b8c0526c8f7fb8686604051612734929190613725565b60405180910390a45050505050565b6001600160a01b0384163b15610f725760405163f23a6e6160e01b81526001600160a01b0385169063f23a6e61906127879089908990889088908890600401613752565b6020604051808303815f875af19250505080156127c1575060408051601f3d908101601f191682019092526127be91810190613796565b60015b612828573d8080156127ee576040519150601f19603f3d011682016040523d82523d5f602084013e6127f3565b606091505b5080515f0361282057604051632bfa23e760e11b81526001600160a01b0386166004820152602401610b72565b805181602001fd5b6001600160e01b0319811663f23a6e6160e01b1461252257604051632bfa23e760e11b81526001600160a01b0386166004820152602401610b72565b6001600160a01b0384163b15610f725760405163bc197c8160e01b81526001600160a01b0385169063bc197c81906128a890899089908890889088906004016137b1565b6020604051808303815f875af19250505080156128e2575060408051601f3d908101601f191682019092526128df91810190613796565b60015b61290f573d8080156127ee576040519150601f19603f3d011682016040523d82523d5f602084013e6127f3565b6001600160e01b0319811663bc197c8160e01b1461252257604051632bfa23e760e11b81526001600160a01b0386166004820152602401610b72565b50805461295790613292565b5f825580601f10612966575050565b601f0160209004905f5260205f2090810190610b7b91905b80821115612991575f815560010161297e565b5090565b6001600160a01b0381168114610b7b575f80fd5b5f80604083850312156129ba575f80fd5b82356129c581612995565b946020939093013593505050565b5f602082840312156129e3575f80fd5b5035919050565b5f5b83811015612a045781810151838201526020016129ec565b50505f910152565b5f8151808452612a238160208601602086016129ea565b601f01601f19169290920160200192915050565b604080825283518282018190525f9190606090818501906020808901865b83811015612a7a5781516001600160401b031685529382019390820190600101612a55565b50508683038188015287518084528184019250600581901b840182018983015f5b83811015612b0457868303601f1901865281518051898552612abf8a860182612a0c565b90508682015185820388870152612ad68282612a0c565b9150508a82015191508481038b860152612af08183612a0c565b978701979450505090840190600101612a9b565b50909b9a5050505050505050505050565b6001600160e01b031981168114610b7b575f80fd5b5f60208284031215612b3a575f80fd5b8135611cd081612b15565b602081525f611cd06020830184612a0c565b5f60208284031215612b67575f80fd5b8135611cd081612995565b5f8083601f840112612b82575f80fd5b5081356001600160401b03811115612b98575f80fd5b602083019150836020828501011115612baf575f80fd5b9250929050565b5f805f805f8060808789031215612bcb575f80fd5b8635612bd681612995565b95506020870135945060408701356001600160401b0380821115612bf8575f80fd5b612c048a838b01612b72565b90965094506060890135915080821115612c1c575f80fd5b50612c2989828a01612b72565b979a9699509497509295939492505050565b634e487b7160e01b5f52604160045260245ffd5b604051608081016001600160401b0381118282101715612c7157612c71612c3b565b60405290565b604051601f8201601f191681016001600160401b0381118282101715612c9f57612c9f612c3b565b604052919050565b5f6001600160401b03821115612cbf57612cbf612c3b565b5060051b60200190565b5f82601f830112612cd8575f80fd5b81356020612ced612ce883612ca7565b612c77565b82815260059290921b84018101918181019086841115612d0b575f80fd5b8286015b84811015612d265780358352918301918301612d0f565b509695505050505050565b5f6001600160401b03821115612d4957612d49612c3b565b50601f01601f191660200190565b5f82601f830112612d66575f80fd5b8135612d74612ce882612d31565b818152846020838601011115612d88575f80fd5b816020850160208301375f918101602001919091529392505050565b5f805f805f60a08688031215612db8575f80fd5b8535612dc381612995565b94506020860135612dd381612995565b935060408601356001600160401b0380821115612dee575f80fd5b612dfa89838a01612cc9565b94506060880135915080821115612e0f575f80fd5b612e1b89838a01612cc9565b93506080880135915080821115612e30575f80fd5b50612e3d88828901612d57565b9150509295509295909350565b80356001600160401b0381168114612e60575f80fd5b919050565b5f8060408385031215612e76575f80fd5b82359150612e8660208401612e4a565b90509250929050565b602080825282518282018190525f9190848201906040850190845b81811015612ecf5783516001600160a01b031683529284019291840191600101612eaa565b50909695505050505050565b5f8060408385031215612eec575f80fd5b82356001600160401b0380821115612f02575f80fd5b818501915085601f830112612f15575f80fd5b81356020612f25612ce883612ca7565b82815260059290921b84018101918181019089841115612f43575f80fd5b948201945b83861015612f6a578535612f5b81612995565b82529482019490820190612f48565b96505086013592505080821115612f7f575f80fd5b50612f8c85828601612cc9565b9150509250929050565b5f8151808452602080850194508084015f5b83811015612fc457815187529582019590820190600101612fa8565b509495945050505050565b602081525f611cd06020830184612f96565b8035612e6081612995565b5f60608284031215612ffc575f80fd5b50919050565b5f805f805f805f805f8060e08b8d03121561301b575f80fd5b6130248b612e4a565b995060208b01356001600160401b038082111561303f575f80fd5b61304b8e838f01612b72565b909b50995089915061305f60408e01612fe1565b985060608d0135915080821115613074575f80fd5b6130808e838f01612b72565b909850965060808d0135955060a08d013591508082111561309f575f80fd5b6130ab8e838f01612b72565b909550935060c08d01359150808211156130c3575f80fd5b506130d08d828e01612fec565b9150509295989b9194979a5092959850565b606081525f6130f46060830186612a0c565b82810360208401526131068186612a0c565b9050828103604084015261311a8185612a0c565b9695505050505050565b8015158114610b7b575f80fd5b5f8060408385031215613142575f80fd5b823561314d81612995565b9150602083013561315d81613124565b809150509250929050565b5f805f806060858703121561317b575f80fd5b8435935061318b60208601612e4a565b925060408501356001600160401b038111156131a5575f80fd5b6131b187828801612b72565b95989497509550505050565b5f80604083850312156131ce575f80fd5b82356131d981612995565b9150602083013561315d81612995565b5f805f805f60a086880312156131fd575f80fd5b853561320881612995565b9450602086013561321881612995565b9350604086013592506060860135915060808601356001600160401b03811115613240575f80fd5b612e3d88828901612d57565b5f805f6060848603121561325e575f80fd5b833561326981612995565b95602085013595506040909401359392505050565b634e487b7160e01b5f52603260045260245ffd5b600181811c908216806132a657607f821691505b602082108103612ffc57634e487b7160e01b5f52602260045260245ffd5b634e487b7160e01b5f52601160045260245ffd5b5f600182016132e9576132e96132c4565b5060010190565b8181038181111561047b5761047b6132c4565b634e487b7160e01b5f52603160045260245ffd5b818382375f9101908152919050565b5f80835461333381613292565b6001828116801561334b57600181146133605761338c565b60ff198416875282151583028701945061338c565b875f526020805f205f5b858110156133835781548a82015290840190820161336a565b50505082870194505b50929695505050505050565b8681528560208201526bffffffffffffffffffffffff198560601b166040820152828460548301376054920191820152607401949350505050565b5f826133ed57634e487b7160e01b5f52601260045260245ffd5b500690565b8082018082111561047b5761047b6132c4565b601f8211156113d7575f81815260208120601f850160051c8101602086101561342b5750805b601f850160051c820191505b81811015610f7257828155600101613437565b6001600160401b0383111561346157613461612c3b565b6134758361346f8354613292565b83613405565b5f601f8411600181146134a6575f851561348f5750838201355b5f19600387901b1c1916600186901b178355611c43565b5f83815260209020601f19861690835b828110156134d657868501358255602094850194600190920191016134b6565b50868210156134f2575f1960f88860031b161c19848701351681555b505060018560011b0183555050505050565b6001600160401b0383168152604060208201525f82516060604084015261352e60a0840182612a0c565b60208501516001600160a01b031660608501526040850151848203603f1901608086015290915061311a8282612a0c565b5f808335601e19843603018112613574575f80fd5b8301803591506001600160401b0382111561358d575f80fd5b602001915036819003821315612baf575f80fd5b81516001600160401b038111156135ba576135ba612c3b565b6135ce816135c88454613292565b84613405565b602080601f831160018114613601575f84156135ea5750858301515b5f19600386901b1c1916600185901b178555610f72565b5f85815260208120601f198616915b8281101561362f57888601518255948401946001909101908401613610565b508582101561364c57878501515f19600388901b60f8161c191681555b5050505050600190811b01905550565b5f602080838503121561366d575f80fd5b82516001600160401b0380821115613683575f80fd5b9084019060808287031215613696575f80fd5b61369e612c4f565b82516136a981613124565b815282840151828111156136bb575f80fd5b83019150601f820187136136cd575f80fd5b81516136db612ce882612d31565b81815288868386010111156136ee575f80fd5b6136fd828783018887016129ea565b8086840152505060408301516040820152606083015160608201528094505050505092915050565b604081525f6137376040830185612f96565b82810360208401526137498185612f96565b95945050505050565b6001600160a01b03868116825285166020820152604081018490526060810183905260a0608082018190525f9061378b90830184612a0c565b979650505050505050565b5f602082840312156137a6575f80fd5b8151611cd081612b15565b6001600160a01b0386811682528516602082015260a0604082018190525f906137dc90830186612f96565b82810360608401526137ee8186612f96565b905082810360808401526138028185612a0c565b9897505050505050505056fea26469706673582212200618696caeff1a1584a201d54edd0ade5e2800f644c2bb68779a91cd3914169c64736f6c63430008140033', \n     arguments: [\n          verifier_,\n          initialOwner,\n          uri_,\n     ]\n}).send({\n     from: web3.eth.accounts[0], \n     gas: '4700000'\n   }, function (e, contract){\n    console.log(e, contract);\n    if (typeof contract.address !== 'undefined') {\n         console.log('Contract mined! address: ' + contract.address + ' transactionHash: ' + contract.transactionHash);\n    }\n })",
	"functionHashes": {
		"70480275": "addAdmin(address)",
		"c1f95913": "addProofRequestAndRole(uint256,uint64,string)",
		"7330dd84": "addProofRequest_VerifierAndPM(uint64,string,address,bytes,uint256,string,(string,string,string))",
		"7578b248": "allTokenIDs()",
		"00fdd58e": "balanceOf(address,uint256)",
		"4e1273f4": "balanceOfBatch(address[],uint256[])",
		"f5298aca": "burn(address,uint256,uint256)",
		"50fbdb2d": "deleteProofRequestAndRole(uint256,uint64)",
		"784008ce": "fungible_token()",
		"31ae450b": "getAdmins()",
		"01843a14": "getSpendingConditions(uint256)",
		"e985e9c5": "isApprovedForAll(address,address)",
		"2dbff950": "mintToken(address,uint256,bytes,string)",
		"cf5219ad": "non_fungible_token()",
		"8da5cb5b": "owner()",
		"d121cdc0": "proofRequestIDs(uint256)",
		"1785f53c": "removeAdmin(address)",
		"715018a6": "renounceOwnership()",
		"2eb2c2d6": "safeBatchTransferFrom(address,address,uint256[],uint256[],bytes)",
		"f242432a": "safeTransferFrom(address,address,uint256,uint256,bytes)",
		"a22cb465": "setApprovalForAll(address,bool)",
		"8ed46cfd": "spendingConditions(uint256,uint64)",
		"01ffc9a7": "supportsInterface(bytes4)",
		"2f4955f6": "tokenID_proofRequest_role(uint256,uint64)",
		"e725f877": "tokenName(uint256)",
		"f2fde38b": "transferOwnership(address)",
		"0e89341c": "uri(uint256)",
		"2b7ac3f3": "verifier()"
	},
	"gasEstimates": {
		"Creation": {
			"codeDepositCost": "2880800",
			"executionCost": "infinite",
			"totalCost": "infinite"
		},
		"External": {
			"addAdmin(address)": "infinite",
			"addProofRequestAndRole(uint256,uint64,string)": "infinite",
			"addProofRequest_VerifierAndPM(uint64,string,address,bytes,uint256,string,(string,string,string))": "infinite",
			"allTokenIDs()": "infinite",
			"balanceOf(address,uint256)": "2674",
			"balanceOfBatch(address[],uint256[])": "infinite",
			"burn(address,uint256,uint256)": "infinite",
			"deleteProofRequestAndRole(uint256,uint64)": "infinite",
			"fungible_token()": "273",
			"getAdmins()": "infinite",
			"getSpendingConditions(uint256)": "infinite",
			"isApprovedForAll(address,address)": "infinite",
			"mintToken(address,uint256,bytes,string)": "infinite",
			"non_fungible_token()": "228",
			"owner()": "2375",
			"proofRequestIDs(uint256)": "6334",
			"removeAdmin(address)": "infinite",
			"renounceOwnership()": "infinite",
			"safeBatchTransferFrom(address,address,uint256[],uint256[],bytes)": "infinite",
			"safeTransferFrom(address,address,uint256,uint256,bytes)": "infinite",
			"setApprovalForAll(address,bool)": "infinite",
			"spendingConditions(uint256,uint64)": "infinite",
			"supportsInterface(bytes4)": "620",
			"tokenID_proofRequest_role(uint256,uint64)": "infinite",
			"tokenName(uint256)": "infinite",
			"transferOwnership(address)": "infinite",
			"uri(uint256)": "infinite",
			"verifier()": "2426"
		},
		"Internal": {
			"_checkAllProofsVerified(uint256,address,address)": "infinite",
			"_isAdmin(address)": "infinite"
		}
	},
	"devdoc": {
		"errors": {
			"ERC1155InsufficientBalance(address,uint256,uint256,uint256)": [
				{
					"details": "Indicates an error related to the current `balance` of a `sender`. Used in transfers.",
					"params": {
						"balance": "Current balance for the interacting account.",
						"needed": "Minimum amount required to perform a transfer.",
						"sender": "Address whose tokens are being transferred.",
						"tokenId": "Identifier number of a token."
					}
				}
			],
			"ERC1155InvalidApprover(address)": [
				{
					"details": "Indicates a failure with the `approver` of a token to be approved. Used in approvals.",
					"params": {
						"approver": "Address initiating an approval operation."
					}
				}
			],
			"ERC1155InvalidArrayLength(uint256,uint256)": [
				{
					"details": "Indicates an array length mismatch between ids and values in a safeBatchTransferFrom operation. Used in batch transfers.",
					"params": {
						"idsLength": "Length of the array of token identifiers",
						"valuesLength": "Length of the array of token amounts"
					}
				}
			],
			"ERC1155InvalidOperator(address)": [
				{
					"details": "Indicates a failure with the `operator` to be approved. Used in approvals.",
					"params": {
						"operator": "Address that may be allowed to operate on tokens without being their owner."
					}
				}
			],
			"ERC1155InvalidReceiver(address)": [
				{
					"details": "Indicates a failure with the token `receiver`. Used in transfers.",
					"params": {
						"receiver": "Address to which tokens are being transferred."
					}
				}
			],
			"ERC1155InvalidSender(address)": [
				{
					"details": "Indicates a failure with the token `sender`. Used in transfers.",
					"params": {
						"sender": "Address whose tokens are being transferred."
					}
				}
			],
			"ERC1155MissingApprovalForAll(address,address)": [
				{
					"details": "Indicates a failure with the `operator`’s approval. Used in transfers.",
					"params": {
						"operator": "Address that may be allowed to operate on tokens without being their owner.",
						"owner": "Address of the current owner of a token."
					}
				}
			],
			"OwnableInvalidOwner(address)": [
				{
					"details": "The owner is not a valid owner account. (eg. `address(0)`)"
				}
			],
			"OwnableUnauthorizedAccount(address)": [
				{
					"details": "The caller account is not authorized to perform an operation."
				}
			]
		},
		"events": {
			"ApprovalForAll(address,address,bool)": {
				"details": "Emitted when `account` grants or revokes permission to `operator` to transfer their tokens, according to `approved`."
			},
			"TransferBatch(address,address,address,uint256[],uint256[])": {
				"details": "Equivalent to multiple {TransferSingle} events, where `operator`, `from` and `to` are the same for all transfers."
			},
			"TransferSingle(address,address,address,uint256,uint256)": {
				"details": "Emitted when `value` amount of tokens of type `id` are transferred from `from` to `to` by `operator`."
			},
			"URI(string,uint256)": {
				"details": "Emitted when the URI for token type `id` changes to `value`, if it is a non-programmatic URI. If an {URI} event was emitted for `id`, the standard https://eips.ethereum.org/EIPS/eip-1155#metadata-extensions[guarantees] that `value` will equal the value returned by {IERC1155MetadataURI-uri}."
			}
		},
		"kind": "dev",
		"methods": {
			"balanceOf(address,uint256)": {
				"details": "See {IERC1155-balanceOf}."
			},
			"balanceOfBatch(address[],uint256[])": {
				"details": "See {IERC1155-balanceOfBatch}. Requirements: - `accounts` and `ids` must have the same length."
			},
			"isApprovedForAll(address,address)": {
				"details": "See {IERC1155-isApprovedForAll}."
			},
			"mintToken(address,uint256,bytes,string)": {
				"details": "The function no longer requires the ID argument. The name must be non-empty."
			},
			"owner()": {
				"details": "Returns the address of the current owner."
			},
			"renounceOwnership()": {
				"details": "Leaves the contract without owner. It will not be possible to call `onlyOwner` functions. Can only be called by the current owner. NOTE: Renouncing ownership will leave the contract without an owner, thereby disabling any functionality that is only available to the owner."
			},
			"setApprovalForAll(address,bool)": {
				"details": "See {IERC1155-setApprovalForAll}."
			},
			"supportsInterface(bytes4)": {
				"details": "See {IERC165-supportsInterface}."
			},
			"transferOwnership(address)": {
				"details": "Transfers ownership of the contract to a new account (`newOwner`). Can only be called by the current owner."
			},
			"uri(uint256)": {
				"details": "See {IERC1155MetadataURI-uri}. This implementation returns the same URI for *all* token types. It relies on the token type ID substitution mechanism https://eips.ethereum.org/EIPS/eip-1155#metadata[defined in the ERC]. Clients calling this function must replace the `\\{id\\}` substring with the actual token type ID."
			}
		},
		"version": 1
	},
	"userdoc": {
		"kind": "user",
		"methods": {
			"allTokenIDs()": {
				"notice": "Returns the full list of token IDs ever minted"
			},
			"getSpendingConditions(uint256)": {
				"notice": "Get all spending conditions for a given tokenID"
			},
			"mintToken(address,uint256,bytes,string)": {
				"notice": "Mint a token by name. If the name exists, mint the existing token. If the name does not exist, mint a new token with a random unused ID and assign the name."
			}
		},
		"version": 1
	},
	"Runtime Bytecode": {
		"immutableReferences": {},
		"linkReferences": {},
		"object": "608060405234801561000f575f80fd5b50600436106101ba575f3560e01c80637330dd84116100f3578063cf5219ad11610093578063e985e9c51161006e578063e985e9c5146103e6578063f242432a14610421578063f2fde38b14610434578063f5298aca14610447575f80fd5b8063cf5219ad146103a0578063d121cdc0146103a8578063e725f877146103d3575f80fd5b80638da5cb5b116100ce5780638da5cb5b146103475780638ed46cfd14610358578063a22cb4651461037a578063c1f959131461038d575f80fd5b80637330dd84146103245780637578b24814610337578063784008ce1461033f575f80fd5b80632eb2c2d61161015e5780634e1273f4116101395780634e1273f4146102d657806350fbdb2d146102f65780637048027514610309578063715018a61461031c575f80fd5b80632eb2c2d61461029b5780632f4955f6146102ae57806331ae450b146102c1575f80fd5b80630e89341c116101995780630e89341c146102285780631785f53c146102485780632b7ac3f31461025d5780632dbff95014610288575f80fd5b8062fdd58e146101be57806301843a14146101e457806301ffc9a714610205575b5f80fd5b6101d16101cc3660046129a9565b61045a565b6040519081526020015b60405180910390f35b6101f76101f23660046129d3565b610481565b6040516101db929190612a37565b610218610213366004612b2a565b610951565b60405190151581526020016101db565b61023b6102363660046129d3565b6109a0565b6040516101db9190612b45565b61025b610256366004612b57565b610a32565b005b600b54610270906001600160a01b031681565b6040516001600160a01b0390911681526020016101db565b61025b610296366004612bb6565b610b7e565b61025b6102a9366004612da4565b610e35565b61023b6102bc366004612e65565b610f7a565b6102c961101c565b6040516101db9190612e8f565b6102e96102e4366004612edb565b611084565b6040516101db9190612fcf565b61025b610304366004612e65565b611156565b61025b610317366004612b57565b6113dc565b61025b6114d3565b61025b610332366004613002565b6114e6565b6102e9611741565b6101d1600181565b6003546001600160a01b0316610270565b61036b610366366004612e65565b611752565b6040516101db939291906130e2565b61025b610388366004613131565b611910565b61025b61039b366004613168565b61191f565b6101d1600281565b6103bb6103b63660046129d3565b611bd9565b6040516001600160401b0390911681526020016101db565b61023b6103e13660046129d3565b611c13565b6102186103f43660046131bd565b6001600160a01b039182165f90815260016020908152604080832093909416825291909152205460ff1690565b61025b61042f3660046131e9565b611c2b565b61025b610442366004612b57565b611c4a565b61025b61045536600461324c565b611c84565b5f818152602081815260408083206001600160a01b03861684529091529020545b92915050565b6060805f600a80548060200260200160405190810160405280929190818152602001828054801561050057602002820191905f5260205f20905f905b82829054906101000a90046001600160401b03166001600160401b0316815260200190600801906020826007010492830192600103820291508084116104bd5790505b505050505090505f805b8251811015610592575f868152600960205260408120845182908690859081106105365761053661327e565b60200260200101516001600160401b03166001600160401b031681526020019081526020015f205f01805461056a90613292565b90501115610580578161057c816132d8565b9250505b8061058a816132d8565b91505061050a565b505f816001600160401b038111156105ac576105ac612c3b565b6040519080825280602002602001820160405280156105d5578160200160208202803683370190505b5090505f826001600160401b038111156105f1576105f1612c3b565b60405190808252806020026020018201604052801561064657816020015b61063360405180606001604052806060815260200160608152602001606081525090565b81526020019060019003908161060f5790505b5090505f805b8551811015610943575f898152600960205260408120875182908990859081106106785761067861327e565b60200260200101516001600160401b03166001600160401b031681526020019081526020015f205f0180546106ac90613292565b90501115610931578581815181106106c6576106c661327e565b60200260200101518483815181106106e0576106e061327e565b60200260200101906001600160401b031690816001600160401b03168152505060095f8a81526020019081526020015f205f8783815181106107245761072461327e565b60200260200101516001600160401b03166001600160401b031681526020019081526020015f206040518060600160405290815f8201805461076590613292565b80601f016020809104026020016040519081016040528092919081815260200182805461079190613292565b80156107dc5780601f106107b3576101008083540402835291602001916107dc565b820191905f5260205f20905b8154815290600101906020018083116107bf57829003601f168201915b505050505081526020016001820180546107f590613292565b80601f016020809104026020016040519081016040528092919081815260200182805461082190613292565b801561086c5780601f106108435761010080835404028352916020019161086c565b820191905f5260205f20905b81548152906001019060200180831161084f57829003601f168201915b5050505050815260200160028201805461088590613292565b80601f01602080910402602001604051908101604052809291908181526020018280546108b190613292565b80156108fc5780601f106108d3576101008083540402835291602001916108fc565b820191905f5260205f20905b8154815290600101906020018083116108df57829003601f168201915b5050505050815250508383815181106109175761091761327e565b6020026020010181905250818061092d906132d8565b9250505b8061093b816132d8565b91505061064c565b509197909650945050505050565b5f6001600160e01b03198216636cdb3d1360e11b148061098157506001600160e01b031982166303a24d0760e21b145b8061047b57506301ffc9a760e01b6001600160e01b031983161461047b565b6060600280546109af90613292565b80601f01602080910402602001604051908101604052809291908181526020018280546109db90613292565b8015610a265780601f106109fd57610100808354040283529160200191610a26565b820191905f5260205f20905b815481529060010190602001808311610a0957829003601f168201915b50505050509050919050565b610a3a611c97565b6004545f5b81811015610b3b57826001600160a01b031660048281548110610a6457610a6461327e565b5f918252602090912001546001600160a01b031603610b29576004610a8a6001846132f0565b81548110610a9a57610a9a61327e565b5f91825260209091200154600480546001600160a01b039092169183908110610ac557610ac561327e565b905f5260205f20015f6101000a8154816001600160a01b0302191690836001600160a01b031602179055506004805480610b0157610b01613303565b5f8281526020902081015f1990810180546001600160a01b031916905501905550610b7b9050565b80610b33816132d8565b915050610a3f565b5060405162461bcd60e51b815260206004820152600f60248201526e10591b5a5b881b9bdd08199bdd5b99608a1b60448201526064015b60405180910390fd5b50565b610b86611c97565b80610bc35760405162461bcd60e51b815260206004820152600d60248201526c13985b59481c995c5d5a5c9959609a1b6044820152606401610b72565b5f805f610bd06005611cc4565b90505f5b8151811015610c70578585604051610bed929190613317565b604051809103902060075f848481518110610c0a57610c0a61327e565b602002602001015181526020019081526020015f20604051610c2c9190613326565b604051809103902003610c5e57818181518110610c4b57610c4b61327e565b6020026020010151935060019250610c70565b80610c68816132d8565b915050610bd4565b508115610cbd57610cb889848a8a8a8080601f0160208091040260200160405190810160405280939291908181526020018383808284375f92019190915250611cd792505050565b610e2a565b5f805b62015f9042448d8a8a86604051602001610cdf96959493929190613398565b604051602081830303815290604052805190602001205f1c610d0191906133d3565b610d0d906103e86133f2565b915080610d19816132d8565b91505060648110610d785760405162461bcd60e51b8152602060048201526024808201527f556e61626c6520746f2066696e6420756e697175652073686f727420746f6b656044820152631b88125160e21b6064820152608401610b72565b610d83600583611d32565b610cc057610d92600583611d49565b610dcd5760405162461bcd60e51b815260206004820152600c60248201526b2a37b5b2b724a22a30b5b2b760a11b6044820152606401610b72565b610e0e8b838c8c8c8080601f0160208091040260200160405190810160405280939291908181526020018383808284375f92019190915250611cd792505050565b5f828152600760205260409020610e2687898361344a565b5050505b505050505050505050565b8151835114610e905760405162461bcd60e51b815260206004820152602160248201527f455243313135353a204d69736d617463686564206172726179206c656e6774686044820152607360f81b6064820152608401610b72565b6001600160a01b038416610ef45760405162461bcd60e51b815260206004820152602560248201527f455243313135353a207472616e7366657220746f20746865207a65726f206164604482015264647265737360d81b6064820152608401610b72565b5f5b8351811015610f7257610f23848281518110610f1457610f1461327e565b60200260200101518787611d54565b610f628686868481518110610f3a57610f3a61327e565b6020026020010151868581518110610f5457610f5461327e565b602002602001015186611c2b565b610f6b816132d8565b9050610ef6565b505050505050565b600860209081525f928352604080842090915290825290208054610f9d90613292565b80601f0160208091040260200160405190810160405280929190818152602001828054610fc990613292565b80156110145780601f10610feb57610100808354040283529160200191611014565b820191905f5260205f20905b815481529060010190602001808311610ff757829003601f168201915b505050505081565b6060611026611c97565b600480548060200260200160405190810160405280929190818152602001828054801561107a57602002820191905f5260205f20905b81546001600160a01b0316815260019091019060200180831161105c575b5050505050905090565b606081518351146110b55781518351604051635b05999160e01b815260048101929092526024820152604401610b72565b5f83516001600160401b038111156110cf576110cf612c3b565b6040519080825280602002602001820160405280156110f8578160200160208202803683370190505b5090505f5b845181101561114e576020808202860101516111219060208084028701015161045a565b8282815181106111335761113361327e565b6020908102919091010152611147816132d8565b90506110fd565b509392505050565b61115f3361217a565b6111a45760405162461bcd60e51b815260206004820152601660248201527521b0b63632b91034b9903737ba1030b71030b236b4b760511b6044820152606401610b72565b6111af600583611d32565b6111f55760405162461bcd60e51b81526020600482015260176024820152761d1bdad95b881a5908191bd95cc81b9bdd08195e1a5cdd604a1b6044820152606401610b72565b5f8281526008602090815260408083206001600160401b03851684529091529020805461122190613292565b90505f036112715760405162461bcd60e51b815260206004820152601c60248201527f50726f6f66207265717565737420646f6573206e6f74206578697374000000006044820152606401610b72565b5f8281526008602090815260408083206001600160401b0385168452909152812061129b9161294b565b5f5b600a548110156113d757816001600160401b0316600a82815481106112c4576112c461327e565b5f918252602090912060048204015460039091166008026101000a90046001600160401b0316036113c557600a80546112ff906001906132f0565b8154811061130f5761130f61327e565b905f5260205f2090600491828204019190066008029054906101000a90046001600160401b0316600a82815481106113495761134961327e565b905f5260205f2090600491828204019190066008026101000a8154816001600160401b0302191690836001600160401b03160217905550600a80548061139157611391613303565b5f8281526020902060045f199092019182040180546001600160401b03600860038516026101000a02191690559055505050565b806113cf816132d8565b91505061129d565b505050565b6113e4611c97565b6001600160a01b03811661142c5760405162461bcd60e51b815260206004820152600f60248201526e496e76616c6964206164647265737360881b6044820152606401610b72565b6114358161217a565b156114825760405162461bcd60e51b815260206004820152601b60248201527f4164647265737320697320616c726561647920616e2061646d696e00000000006044820152606401610b72565b600480546001810182555f919091527f8a35acfbc15ff81a39ae7d344fd709f28e8600b4aa8c65c6b64bfe7fe36bd19b0180546001600160a01b0319166001600160a01b0392909216919091179055565b6114db611c97565b6114e45f6121e0565b565b6040805160806020601f8c018190040282018101909252606081018a81525f928291908d908d90819085018382808284375f920191909152505050908252506001600160a01b038a1660208083019190915260408051601f8b0183900483028101830182528a8152920191908a908a90819084018382808284375f920191909152505050915250600b546040516304fa911f60e51b81529192506001600160a01b031690639f5223e0906115a0908e908590600401613504565b5f604051808303815f87803b1580156115b7575f80fd5b505af11580156115c9573d5f803e3d5ffd5b505050506115d9858c868661191f565b6040805160608101909152806115ef848061355f565b8080601f0160208091040260200160405190810160405280939291908181526020018383808284375f920191909152505050908252506020908101906116379085018561355f565b8080601f0160208091040260200160405190810160405280939291908181526020018383808284375f9201919091525050509082525060200161167d604085018561355f565b8080601f0160208091040260200160405190810160405280939291908181526020018383808284375f81840152601f19601f8201169050808301925050505050505081525060095f8781526020019081526020015f205f8d6001600160401b03166001600160401b031681526020019081526020015f205f820151815f01908161170791906135a1565b506020820151600182019061171c90826135a1565b506040820151600282019061173190826135a1565b5050505050505050505050505050565b606061174d6005611cc4565b905090565b600960209081525f928352604080842090915290825290208054819061177790613292565b80601f01602080910402602001604051908101604052809291908181526020018280546117a390613292565b80156117ee5780601f106117c5576101008083540402835291602001916117ee565b820191905f5260205f20905b8154815290600101906020018083116117d157829003601f168201915b50505050509080600101805461180390613292565b80601f016020809104026020016040519081016040528092919081815260200182805461182f90613292565b801561187a5780601f106118515761010080835404028352916020019161187a565b820191905f5260205f20905b81548152906001019060200180831161185d57829003601f168201915b50505050509080600201805461188f90613292565b80601f01602080910402602001604051908101604052809291908181526020018280546118bb90613292565b80156119065780601f106118dd57610100808354040283529160200191611906565b820191905f5260205f20905b8154815290600101906020018083116118e957829003601f168201915b5050505050905083565b61191b338383612231565b5050565b6119283361217a565b61196d5760405162461bcd60e51b815260206004820152601660248201527521b0b63632b91034b9903737ba1030b71030b236b4b760511b6044820152606401610b72565b611978600585611d32565b6119be5760405162461bcd60e51b81526020600482015260176024820152761d1bdad95b881a5908191bd95cc81b9bdd08195e1a5cdd604a1b6044820152606401610b72565b5f8481526008602090815260408083206001600160401b0387168452909152902080546119ea90613292565b159050611a395760405162461bcd60e51b815260206004820152601c60248201527f50726f6f66207265717565737420616c726561647920657869737473000000006044820152606401610b72565b604080518082018252600681526539b2b73232b960d11b602090910152517f168e92ce035ba45e59a0314b0ed9a9e619b284aed8f6e5ab0a596efd5c9f5cf990611a869084908490613317565b60405180910390201480611aee575060408051808201825260088152673932b1b2b4bb32b960c11b602090910152517f5e784e45feb63c375016d4ce5c52a57b0a48b8a170bc2e31463be0d03d1c4db690611ae49084908490613317565b6040518091039020145b611b465760405162461bcd60e51b815260206004820152602360248201527f526f6c65206d757374206265202773656e64657227206f72202772656365697660448201526265722760e81b6064820152608401610b72565b5f8481526008602090815260408083206001600160401b03871684529091529020611b7282848361344a565b5050600a80546001810182555f919091527fc65a7bb8d6351c1cf70c95a316cc6a92839c986682d98bc35f958f4883f9d2a86004820401805460039092166008026101000a6001600160401b03818102199093169490921691909102929092179091555050565b600a8181548110611be8575f80fd5b905f5260205f209060049182820401919006600802915054906101000a90046001600160401b031681565b60076020525f908152604090208054610f9d90613292565b611c36838686611d54565b611c4385858585856122c5565b5050505050565b611c52611c97565b6001600160a01b038116611c7b57604051631e4fbdf760e01b81525f6004820152602401610b72565b610b7b816121e0565b611c8c611c97565b6113d7838383612342565b6003546001600160a01b031633146114e45760405163118cdaa760e01b8152336004820152602401610b72565b60605f611cd0836123a8565b9392505050565b6001600160a01b038416611d0057604051632bfa23e760e11b81525f6004820152602401610b72565b60408051600180825260208201869052818301908152606082018590526080820190925290610f725f87848487612400565b5f8181526001830160205260408120541515611cd0565b5f611cd08383612453565b5f600a805480602002602001604051908101604052809291908181526020018280548015611dd057602002820191905f5260205f20905f905b82829054906101000a90046001600160401b03166001600160401b031681526020019060080190602082600701049283019260010382029150808411611d8d5790505b505050505090505f5b8151811015611c43575f85815260086020526040812083518290859085908110611e0557611e0561327e565b60200260200101516001600160401b03166001600160401b031681526020019081526020015f208054611e3790613292565b80601f0160208091040260200160405190810160405280929190818152602001828054611e6390613292565b8015611eae5780601f10611e8557610100808354040283529160200191611eae565b820191905f5260205f20905b815481529060010190602001808311611e9157829003601f168201915b5050505050905080515f03611ec35750612168565b60408051808201909152600681526539b2b73232b960d11b6020918201528151908201207fe9716d31fca45ba1a65fceb4f1265619e64d7b5127091a54f5a69102a360a3070161201657600b5483516001600160a01b0390911690638c1da2c9908790869086908110611f3857611f3861327e565b60200260200101516040518363ffffffff1660e01b8152600401611f7a9291906001600160a01b039290921682526001600160401b0316602082015260400190565b5f60405180830381865afa158015611f94573d5f803e3d5ffd5b505050506040513d5f823e601f3d908101601f19168201604052611fbb919081019061365c565b5161201157828281518110611fd257611fd261327e565b60209081029190910101516040516352d2304760e11b81526001600160401b0390911660048201526001600160a01b0386166024820152604401610b72565b612166565b6040805180820190915260088152673932b1b2b4bb32b960c11b6020918201528151908201207fa187b1ba0149c3c8afe92b31a3ad5a84f5b7475e8f43d1ceb9c41f2fc2e3b24a0161216657600b5483516001600160a01b0390911690638c1da2c990869086908690811061208d5761208d61327e565b60200260200101516040518363ffffffff1660e01b81526004016120cf9291906001600160a01b039290921682526001600160401b0316602082015260400190565b5f60405180830381865afa1580156120e9573d5f803e3d5ffd5b505050506040513d5f823e601f3d908101601f19168201604052612110919081019061365c565b51612166578282815181106121275761212761327e565b60209081029190910101516040516352d2304760e11b81526001600160401b0390911660048201526001600160a01b0385166024820152604401610b72565b505b80612172816132d8565b915050611dd9565b5f805b6004548110156121d857826001600160a01b0316600482815481106121a4576121a461327e565b5f918252602090912001546001600160a01b0316036121c65750600192915050565b806121d0816132d8565b91505061217d565b505f92915050565b600380546001600160a01b038381166001600160a01b0319831681179093556040519116919082907f8be0079c531659141344cd1fd0a4f28419497f9722a3daafe3b4186f6b6457e0905f90a35050565b6001600160a01b0382166122595760405162ced3e160e81b81525f6004820152602401610b72565b6001600160a01b038381165f81815260016020908152604080832094871680845294825291829020805460ff191686151590811790915591519182527f17307eab39ab6107e8899845ad3d59bd9653f200f220920489ca2b5937696c31910160405180910390a3505050565b336001600160a01b038616811480159061230457506001600160a01b038087165f9081526001602090815260408083209385168352929052205460ff16155b156123355760405163711bec9160e11b81526001600160a01b03808316600483015287166024820152604401610b72565b610f72868686868661249f565b6001600160a01b03831661236a57604051626a0d4560e21b81525f6004820152602401610b72565b604080516001808252602082018590528183019081526060820184905260a082019092525f60808201818152919291611c4391879185908590612400565b6060815f01805480602002602001604051908101604052809291908181526020018280548015610a2657602002820191905f5260205f20905b8154815260200190600101908083116123e15750505050509050919050565b61240c8585858561252b565b6001600160a01b03841615611c435782513390600103612445576020848101519084015161243e838989858589612743565b5050610f72565b610f72818787878787612864565b5f81815260018301602052604081205461249857508154600181810184555f84815260208082209093018490558454848252828601909352604090209190915561047b565b505f61047b565b6001600160a01b0384166124c857604051632bfa23e760e11b81525f6004820152602401610b72565b6001600160a01b0385166124f057604051626a0d4560e21b81525f6004820152602401610b72565b604080516001808252602082018690528183019081526060820185905260808201909252906125228787848487612400565b50505050505050565b805182511461255a5781518151604051635b05999160e01b815260048101929092526024820152604401610b72565b335f5b8351811015612665576020818102858101820151908501909101516001600160a01b0388161561260e575f828152602081815260408083206001600160a01b038c168452909152902054818110156125e8576040516303dee4c560e01b81526001600160a01b038a166004820152602481018290526044810183905260648101849052608401610b72565b5f838152602081815260408083206001600160a01b038d16845290915290209082900390555b6001600160a01b03871615612652575f828152602081815260408083206001600160a01b038b1684529091528120805483929061264c9084906133f2565b90915550505b50508061265e906132d8565b905061255d565b5082516001036126e55760208301515f906020840151909150856001600160a01b0316876001600160a01b0316846001600160a01b03167fc3d58168c5ae7397731d063d5bbf3d657854427343f4c083240f7aacaa2d0f6285856040516126d6929190918252602082015260400190565b60405180910390a45050611c43565b836001600160a01b0316856001600160a01b0316826001600160a01b03167f4a39dc06d4c0dbc64b70af90fd698a233a518aa5d07e595d983b8c0526c8f7fb8686604051612734929190613725565b60405180910390a45050505050565b6001600160a01b0384163b15610f725760405163f23a6e6160e01b81526001600160a01b0385169063f23a6e61906127879089908990889088908890600401613752565b6020604051808303815f875af19250505080156127c1575060408051601f3d908101601f191682019092526127be91810190613796565b60015b612828573d8080156127ee576040519150601f19603f3d011682016040523d82523d5f602084013e6127f3565b606091505b5080515f0361282057604051632bfa23e760e11b81526001600160a01b0386166004820152602401610b72565b805181602001fd5b6001600160e01b0319811663f23a6e6160e01b1461252257604051632bfa23e760e11b81526001600160a01b0386166004820152602401610b72565b6001600160a01b0384163b15610f725760405163bc197c8160e01b81526001600160a01b0385169063bc197c81906128a890899089908890889088906004016137b1565b6020604051808303815f875af19250505080156128e2575060408051601f3d908101601f191682019092526128df91810190613796565b60015b61290f573d8080156127ee576040519150601f19603f3d011682016040523d82523d5f602084013e6127f3565b6001600160e01b0319811663bc197c8160e01b1461252257604051632bfa23e760e11b81526001600160a01b0386166004820152602401610b72565b50805461295790613292565b5f825580601f10612966575050565b601f0160209004905f5260205f2090810190610b7b91905b80821115612991575f815560010161297e565b5090565b6001600160a01b0381168114610b7b575f80fd5b5f80604083850312156129ba575f80fd5b82356129c581612995565b946020939093013593505050565b5f602082840312156129e3575f80fd5b5035919050565b5f5b83811015612a045781810151838201526020016129ec565b50505f910152565b5f8151808452612a238160208601602086016129ea565b601f01601f19169290920160200192915050565b604080825283518282018190525f9190606090818501906020808901865b83811015612a7a5781516001600160401b031685529382019390820190600101612a55565b50508683038188015287518084528184019250600581901b840182018983015f5b83811015612b0457868303601f1901865281518051898552612abf8a860182612a0c565b90508682015185820388870152612ad68282612a0c565b9150508a82015191508481038b860152612af08183612a0c565b978701979450505090840190600101612a9b565b50909b9a5050505050505050505050565b6001600160e01b031981168114610b7b575f80fd5b5f60208284031215612b3a575f80fd5b8135611cd081612b15565b602081525f611cd06020830184612a0c565b5f60208284031215612b67575f80fd5b8135611cd081612995565b5f8083601f840112612b82575f80fd5b5081356001600160401b03811115612b98575f80fd5b602083019150836020828501011115612baf575f80fd5b9250929050565b5f805f805f8060808789031215612bcb575f80fd5b8635612bd681612995565b95506020870135945060408701356001600160401b0380821115612bf8575f80fd5b612c048a838b01612b72565b90965094506060890135915080821115612c1c575f80fd5b50612c2989828a01612b72565b979a9699509497509295939492505050565b634e487b7160e01b5f52604160045260245ffd5b604051608081016001600160401b0381118282101715612c7157612c71612c3b565b60405290565b604051601f8201601f191681016001600160401b0381118282101715612c9f57612c9f612c3b565b604052919050565b5f6001600160401b03821115612cbf57612cbf612c3b565b5060051b60200190565b5f82601f830112612cd8575f80fd5b81356020612ced612ce883612ca7565b612c77565b82815260059290921b84018101918181019086841115612d0b575f80fd5b8286015b84811015612d265780358352918301918301612d0f565b509695505050505050565b5f6001600160401b03821115612d4957612d49612c3b565b50601f01601f191660200190565b5f82601f830112612d66575f80fd5b8135612d74612ce882612d31565b818152846020838601011115612d88575f80fd5b816020850160208301375f918101602001919091529392505050565b5f805f805f60a08688031215612db8575f80fd5b8535612dc381612995565b94506020860135612dd381612995565b935060408601356001600160401b0380821115612dee575f80fd5b612dfa89838a01612cc9565b94506060880135915080821115612e0f575f80fd5b612e1b89838a01612cc9565b93506080880135915080821115612e30575f80fd5b50612e3d88828901612d57565b9150509295509295909350565b80356001600160401b0381168114612e60575f80fd5b919050565b5f8060408385031215612e76575f80fd5b82359150612e8660208401612e4a565b90509250929050565b602080825282518282018190525f9190848201906040850190845b81811015612ecf5783516001600160a01b031683529284019291840191600101612eaa565b50909695505050505050565b5f8060408385031215612eec575f80fd5b82356001600160401b0380821115612f02575f80fd5b818501915085601f830112612f15575f80fd5b81356020612f25612ce883612ca7565b82815260059290921b84018101918181019089841115612f43575f80fd5b948201945b83861015612f6a578535612f5b81612995565b82529482019490820190612f48565b96505086013592505080821115612f7f575f80fd5b50612f8c85828601612cc9565b9150509250929050565b5f8151808452602080850194508084015f5b83811015612fc457815187529582019590820190600101612fa8565b509495945050505050565b602081525f611cd06020830184612f96565b8035612e6081612995565b5f60608284031215612ffc575f80fd5b50919050565b5f805f805f805f805f8060e08b8d03121561301b575f80fd5b6130248b612e4a565b995060208b01356001600160401b038082111561303f575f80fd5b61304b8e838f01612b72565b909b50995089915061305f60408e01612fe1565b985060608d0135915080821115613074575f80fd5b6130808e838f01612b72565b909850965060808d0135955060a08d013591508082111561309f575f80fd5b6130ab8e838f01612b72565b909550935060c08d01359150808211156130c3575f80fd5b506130d08d828e01612fec565b9150509295989b9194979a5092959850565b606081525f6130f46060830186612a0c565b82810360208401526131068186612a0c565b9050828103604084015261311a8185612a0c565b9695505050505050565b8015158114610b7b575f80fd5b5f8060408385031215613142575f80fd5b823561314d81612995565b9150602083013561315d81613124565b809150509250929050565b5f805f806060858703121561317b575f80fd5b8435935061318b60208601612e4a565b925060408501356001600160401b038111156131a5575f80fd5b6131b187828801612b72565b95989497509550505050565b5f80604083850312156131ce575f80fd5b82356131d981612995565b9150602083013561315d81612995565b5f805f805f60a086880312156131fd575f80fd5b853561320881612995565b9450602086013561321881612995565b9350604086013592506060860135915060808601356001600160401b03811115613240575f80fd5b612e3d88828901612d57565b5f805f6060848603121561325e575f80fd5b833561326981612995565b95602085013595506040909401359392505050565b634e487b7160e01b5f52603260045260245ffd5b600181811c908216806132a657607f821691505b602082108103612ffc57634e487b7160e01b5f52602260045260245ffd5b634e487b7160e01b5f52601160045260245ffd5b5f600182016132e9576132e96132c4565b5060010190565b8181038181111561047b5761047b6132c4565b634e487b7160e01b5f52603160045260245ffd5b818382375f9101908152919050565b5f80835461333381613292565b6001828116801561334b57600181146133605761338c565b60ff198416875282151583028701945061338c565b875f526020805f205f5b858110156133835781548a82015290840190820161336a565b50505082870194505b50929695505050505050565b8681528560208201526bffffffffffffffffffffffff198560601b166040820152828460548301376054920191820152607401949350505050565b5f826133ed57634e487b7160e01b5f52601260045260245ffd5b500690565b8082018082111561047b5761047b6132c4565b601f8211156113d7575f81815260208120601f850160051c8101602086101561342b5750805b601f850160051c820191505b81811015610f7257828155600101613437565b6001600160401b0383111561346157613461612c3b565b6134758361346f8354613292565b83613405565b5f601f8411600181146134a6575f851561348f5750838201355b5f19600387901b1c1916600186901b178355611c43565b5f83815260209020601f19861690835b828110156134d657868501358255602094850194600190920191016134b6565b50868210156134f2575f1960f88860031b161c19848701351681555b505060018560011b0183555050505050565b6001600160401b0383168152604060208201525f82516060604084015261352e60a0840182612a0c565b60208501516001600160a01b031660608501526040850151848203603f1901608086015290915061311a8282612a0c565b5f808335601e19843603018112613574575f80fd5b8301803591506001600160401b0382111561358d575f80fd5b602001915036819003821315612baf575f80fd5b81516001600160401b038111156135ba576135ba612c3b565b6135ce816135c88454613292565b84613405565b602080601f831160018114613601575f84156135ea5750858301515b5f19600386901b1c1916600185901b178555610f72565b5f85815260208120601f198616915b8281101561362f57888601518255948401946001909101908401613610565b508582101561364c57878501515f19600388901b60f8161c191681555b5050505050600190811b01905550565b5f602080838503121561366d575f80fd5b82516001600160401b0380821115613683575f80fd5b9084019060808287031215613696575f80fd5b61369e612c4f565b82516136a981613124565b815282840151828111156136bb575f80fd5b83019150601f820187136136cd575f80fd5b81516136db612ce882612d31565b81815288868386010111156136ee575f80fd5b6136fd828783018887016129ea565b8086840152505060408301516040820152606083015160608201528094505050505092915050565b604081525f6137376040830185612f96565b82810360208401526137498185612f96565b95945050505050565b6001600160a01b03868116825285166020820152604081018490526060810183905260a0608082018190525f9061378b90830184612a0c565b979650505050505050565b5f602082840312156137a6575f80fd5b8151611cd081612b15565b6001600160a01b0386811682528516602082015260a0604082018190525f906137dc90830186612f96565b82810360608401526137ee8186612f96565b905082810360808401526138028185612a0c565b9897505050505050505056fea26469706673582212200618696caeff1a1584a201d54edd0ade5e2800f644c2bb68779a91cd3914169c64736f6c63430008140033",
		"opcodes": "PUSH1 0x80 PUSH1 0x40 MSTORE CALLVALUE DUP1 ISZERO PUSH2 0xF JUMPI PUSH0 DUP1 REVERT JUMPDEST POP PUSH1 0x4 CALLDATASIZE LT PUSH2 0x1BA JUMPI PUSH0 CALLDATALOAD PUSH1 0xE0 SHR DUP1 PUSH4 0x7330DD84 GT PUSH2 0xF3 JUMPI DUP1 PUSH4 0xCF5219AD GT PUSH2 0x93 JUMPI DUP1 PUSH4 0xE985E9C5 GT PUSH2 0x6E JUMPI DUP1 PUSH4 0xE985E9C5 EQ PUSH2 0x3E6 JUMPI DUP1 PUSH4 0xF242432A EQ PUSH2 0x421 JUMPI DUP1 PUSH4 0xF2FDE38B EQ PUSH2 0x434 JUMPI DUP1 PUSH4 0xF5298ACA EQ PUSH2 0x447 JUMPI PUSH0 DUP1 REVERT JUMPDEST DUP1 PUSH4 0xCF5219AD EQ PUSH2 0x3A0 JUMPI DUP1 PUSH4 0xD121CDC0 EQ PUSH2 0x3A8 JUMPI DUP1 PUSH4 0xE725F877 EQ PUSH2 0x3D3 JUMPI PUSH0 DUP1 REVERT JUMPDEST DUP1 PUSH4 0x8DA5CB5B GT PUSH2 0xCE JUMPI DUP1 PUSH4 0x8DA5CB5B EQ PUSH2 0x347 JUMPI DUP1 PUSH4 0x8ED46CFD EQ PUSH2 0x358 JUMPI DUP1 PUSH4 0xA22CB465 EQ PUSH2 0x37A JUMPI DUP1 PUSH4 0xC1F95913 EQ PUSH2 0x38D JUMPI PUSH0 DUP1 REVERT JUMPDEST DUP1 PUSH4 0x7330DD84 EQ PUSH2 0x324 JUMPI DUP1 PUSH4 0x7578B248 EQ PUSH2 0x337 JUMPI DUP1 PUSH4 0x784008CE EQ PUSH2 0x33F JUMPI PUSH0 DUP1 REVERT JUMPDEST DUP1 PUSH4 0x2EB2C2D6 GT PUSH2 0x15E JUMPI DUP1 PUSH4 0x4E1273F4 GT PUSH2 0x139 JUMPI DUP1 PUSH4 0x4E1273F4 EQ PUSH2 0x2D6 JUMPI DUP1 PUSH4 0x50FBDB2D EQ PUSH2 0x2F6 JUMPI DUP1 PUSH4 0x70480275 EQ PUSH2 0x309 JUMPI DUP1 PUSH4 0x715018A6 EQ PUSH2 0x31C JUMPI PUSH0 DUP1 REVERT JUMPDEST DUP1 PUSH4 0x2EB2C2D6 EQ PUSH2 0x29B JUMPI DUP1 PUSH4 0x2F4955F6 EQ PUSH2 0x2AE JUMPI DUP1 PUSH4 0x31AE450B EQ PUSH2 0x2C1 JUMPI PUSH0 DUP1 REVERT JUMPDEST DUP1 PUSH4 0xE89341C GT PUSH2 0x199 JUMPI DUP1 PUSH4 0xE89341C EQ PUSH2 0x228 JUMPI DUP1 PUSH4 0x1785F53C EQ PUSH2 0x248 JUMPI DUP1 PUSH4 0x2B7AC3F3 EQ PUSH2 0x25D JUMPI DUP1 PUSH4 0x2DBFF950 EQ PUSH2 0x288 JUMPI PUSH0 DUP1 REVERT JUMPDEST DUP1 PUSH3 0xFDD58E EQ PUSH2 0x1BE JUMPI DUP1 PUSH4 0x1843A14 EQ PUSH2 0x1E4 JUMPI DUP1 PUSH4 0x1FFC9A7 EQ PUSH2 0x205 JUMPI JUMPDEST PUSH0 DUP1 REVERT JUMPDEST PUSH2 0x1D1 PUSH2 0x1CC CALLDATASIZE PUSH1 0x4 PUSH2 0x29A9 JUMP JUMPDEST PUSH2 0x45A JUMP JUMPDEST PUSH1 0x40 MLOAD SWAP1 DUP2 MSTORE PUSH1 0x20 ADD JUMPDEST PUSH1 0x40 MLOAD DUP1 SWAP2 SUB SWAP1 RETURN JUMPDEST PUSH2 0x1F7 PUSH2 0x1F2 CALLDATASIZE PUSH1 0x4 PUSH2 0x29D3 JUMP JUMPDEST PUSH2 0x481 JUMP JUMPDEST PUSH1 0x40 MLOAD PUSH2 0x1DB SWAP3 SWAP2 SWAP1 PUSH2 0x2A37 JUMP JUMPDEST PUSH2 0x218 PUSH2 0x213 CALLDATASIZE PUSH1 0x4 PUSH2 0x2B2A JUMP JUMPDEST PUSH2 0x951 JUMP JUMPDEST PUSH1 0x40 MLOAD SWAP1 ISZERO ISZERO DUP2 MSTORE PUSH1 0x20 ADD PUSH2 0x1DB JUMP JUMPDEST PUSH2 0x23B PUSH2 0x236 CALLDATASIZE PUSH1 0x4 PUSH2 0x29D3 JUMP JUMPDEST PUSH2 0x9A0 JUMP JUMPDEST PUSH1 0x40 MLOAD PUSH2 0x1DB SWAP2 SWAP1 PUSH2 0x2B45 JUMP JUMPDEST PUSH2 0x25B PUSH2 0x256 CALLDATASIZE PUSH1 0x4 PUSH2 0x2B57 JUMP JUMPDEST PUSH2 0xA32 JUMP JUMPDEST STOP JUMPDEST PUSH1 0xB SLOAD PUSH2 0x270 SWAP1 PUSH1 0x1 PUSH1 0x1 PUSH1 0xA0 SHL SUB AND DUP2 JUMP JUMPDEST PUSH1 0x40 MLOAD PUSH1 0x1 PUSH1 0x1 PUSH1 0xA0 SHL SUB SWAP1 SWAP2 AND DUP2 MSTORE PUSH1 0x20 ADD PUSH2 0x1DB JUMP JUMPDEST PUSH2 0x25B PUSH2 0x296 CALLDATASIZE PUSH1 0x4 PUSH2 0x2BB6 JUMP JUMPDEST PUSH2 0xB7E JUMP JUMPDEST PUSH2 0x25B PUSH2 0x2A9 CALLDATASIZE PUSH1 0x4 PUSH2 0x2DA4 JUMP JUMPDEST PUSH2 0xE35 JUMP JUMPDEST PUSH2 0x23B PUSH2 0x2BC CALLDATASIZE PUSH1 0x4 PUSH2 0x2E65 JUMP JUMPDEST PUSH2 0xF7A JUMP JUMPDEST PUSH2 0x2C9 PUSH2 0x101C JUMP JUMPDEST PUSH1 0x40 MLOAD PUSH2 0x1DB SWAP2 SWAP1 PUSH2 0x2E8F JUMP JUMPDEST PUSH2 0x2E9 PUSH2 0x2E4 CALLDATASIZE PUSH1 0x4 PUSH2 0x2EDB JUMP JUMPDEST PUSH2 0x1084 JUMP JUMPDEST PUSH1 0x40 MLOAD PUSH2 0x1DB SWAP2 SWAP1 PUSH2 0x2FCF JUMP JUMPDEST PUSH2 0x25B PUSH2 0x304 CALLDATASIZE PUSH1 0x4 PUSH2 0x2E65 JUMP JUMPDEST PUSH2 0x1156 JUMP JUMPDEST PUSH2 0x25B PUSH2 0x317 CALLDATASIZE PUSH1 0x4 PUSH2 0x2B57 JUMP JUMPDEST PUSH2 0x13DC JUMP JUMPDEST PUSH2 0x25B PUSH2 0x14D3 JUMP JUMPDEST PUSH2 0x25B PUSH2 0x332 CALLDATASIZE PUSH1 0x4 PUSH2 0x3002 JUMP JUMPDEST PUSH2 0x14E6 JUMP JUMPDEST PUSH2 0x2E9 PUSH2 0x1741 JUMP JUMPDEST PUSH2 0x1D1 PUSH1 0x1 DUP2 JUMP JUMPDEST PUSH1 0x3 SLOAD PUSH1 0x1 PUSH1 0x1 PUSH1 0xA0 SHL SUB AND PUSH2 0x270 JUMP JUMPDEST PUSH2 0x36B PUSH2 0x366 CALLDATASIZE PUSH1 0x4 PUSH2 0x2E65 JUMP JUMPDEST PUSH2 0x1752 JUMP JUMPDEST PUSH1 0x40 MLOAD PUSH2 0x1DB SWAP4 SWAP3 SWAP2 SWAP1 PUSH2 0x30E2 JUMP JUMPDEST PUSH2 0x25B PUSH2 0x388 CALLDATASIZE PUSH1 0x4 PUSH2 0x3131 JUMP JUMPDEST PUSH2 0x1910 JUMP JUMPDEST PUSH2 0x25B PUSH2 0x39B CALLDATASIZE PUSH1 0x4 PUSH2 0x3168 JUMP JUMPDEST PUSH2 0x191F JUMP JUMPDEST PUSH2 0x1D1 PUSH1 0x2 DUP2 JUMP JUMPDEST PUSH2 0x3BB PUSH2 0x3B6 CALLDATASIZE PUSH1 0x4 PUSH2 0x29D3 JUMP JUMPDEST PUSH2 0x1BD9 JUMP JUMPDEST PUSH1 0x40 MLOAD PUSH1 0x1 PUSH1 0x1 PUSH1 0x40 SHL SUB SWAP1 SWAP2 AND DUP2 MSTORE PUSH1 0x20 ADD PUSH2 0x1DB JUMP JUMPDEST PUSH2 0x23B PUSH2 0x3E1 CALLDATASIZE PUSH1 0x4 PUSH2 0x29D3 JUMP JUMPDEST PUSH2 0x1C13 JUMP JUMPDEST PUSH2 0x218 PUSH2 0x3F4 CALLDATASIZE PUSH1 0x4 PUSH2 0x31BD JUMP JUMPDEST PUSH1 0x1 PUSH1 0x1 PUSH1 0xA0 SHL SUB SWAP2 DUP3 AND PUSH0 SWAP1 DUP2 MSTORE PUSH1 0x1 PUSH1 0x20 SWAP1 DUP2 MSTORE PUSH1 0x40 DUP1 DUP4 KECCAK256 SWAP4 SWAP1 SWAP5 AND DUP3 MSTORE SWAP2 SWAP1 SWAP2 MSTORE KECCAK256 SLOAD PUSH1 0xFF AND SWAP1 JUMP JUMPDEST PUSH2 0x25B PUSH2 0x42F CALLDATASIZE PUSH1 0x4 PUSH2 0x31E9 JUMP JUMPDEST PUSH2 0x1C2B JUMP JUMPDEST PUSH2 0x25B PUSH2 0x442 CALLDATASIZE PUSH1 0x4 PUSH2 0x2B57 JUMP JUMPDEST PUSH2 0x1C4A JUMP JUMPDEST PUSH2 0x25B PUSH2 0x455 CALLDATASIZE PUSH1 0x4 PUSH2 0x324C JUMP JUMPDEST PUSH2 0x1C84 JUMP JUMPDEST PUSH0 DUP2 DUP2 MSTORE PUSH1 0x20 DUP2 DUP2 MSTORE PUSH1 0x40 DUP1 DUP4 KECCAK256 PUSH1 0x1 PUSH1 0x1 PUSH1 0xA0 SHL SUB DUP7 AND DUP5 MSTORE SWAP1 SWAP2 MSTORE SWAP1 KECCAK256 SLOAD JUMPDEST SWAP3 SWAP2 POP POP JUMP JUMPDEST PUSH1 0x60 DUP1 PUSH0 PUSH1 0xA DUP1 SLOAD DUP1 PUSH1 0x20 MUL PUSH1 0x20 ADD PUSH1 0x40 MLOAD SWAP1 DUP2 ADD PUSH1 0x40 MSTORE DUP1 SWAP3 SWAP2 SWAP1 DUP2 DUP2 MSTORE PUSH1 0x20 ADD DUP3 DUP1 SLOAD DUP1 ISZERO PUSH2 0x500 JUMPI PUSH1 0x20 MUL DUP3 ADD SWAP2 SWAP1 PUSH0 MSTORE PUSH1 0x20 PUSH0 KECCAK256 SWAP1 PUSH0 SWAP1 JUMPDEST DUP3 DUP3 SWAP1 SLOAD SWAP1 PUSH2 0x100 EXP SWAP1 DIV PUSH1 0x1 PUSH1 0x1 PUSH1 0x40 SHL SUB AND PUSH1 0x1 PUSH1 0x1 PUSH1 0x40 SHL SUB AND DUP2 MSTORE PUSH1 0x20 ADD SWAP1 PUSH1 0x8 ADD SWAP1 PUSH1 0x20 DUP3 PUSH1 0x7 ADD DIV SWAP3 DUP4 ADD SWAP3 PUSH1 0x1 SUB DUP3 MUL SWAP2 POP DUP1 DUP5 GT PUSH2 0x4BD JUMPI SWAP1 POP JUMPDEST POP POP POP POP POP SWAP1 POP PUSH0 DUP1 JUMPDEST DUP3 MLOAD DUP2 LT ISZERO PUSH2 0x592 JUMPI PUSH0 DUP7 DUP2 MSTORE PUSH1 0x9 PUSH1 0x20 MSTORE PUSH1 0x40 DUP2 KECCAK256 DUP5 MLOAD DUP3 SWAP1 DUP7 SWAP1 DUP6 SWAP1 DUP2 LT PUSH2 0x536 JUMPI PUSH2 0x536 PUSH2 0x327E JUMP JUMPDEST PUSH1 0x20 MUL PUSH1 0x20 ADD ADD MLOAD PUSH1 0x1 PUSH1 0x1 PUSH1 0x40 SHL SUB AND PUSH1 0x1 PUSH1 0x1 PUSH1 0x40 SHL SUB AND DUP2 MSTORE PUSH1 0x20 ADD SWAP1 DUP2 MSTORE PUSH1 0x20 ADD PUSH0 KECCAK256 PUSH0 ADD DUP1 SLOAD PUSH2 0x56A SWAP1 PUSH2 0x3292 JUMP JUMPDEST SWAP1 POP GT ISZERO PUSH2 0x580 JUMPI DUP2 PUSH2 0x57C DUP2 PUSH2 0x32D8 JUMP JUMPDEST SWAP3 POP POP JUMPDEST DUP1 PUSH2 0x58A DUP2 PUSH2 0x32D8 JUMP JUMPDEST SWAP2 POP POP PUSH2 0x50A JUMP JUMPDEST POP PUSH0 DUP2 PUSH1 0x1 PUSH1 0x1 PUSH1 0x40 SHL SUB DUP2 GT ISZERO PUSH2 0x5AC JUMPI PUSH2 0x5AC PUSH2 0x2C3B JUMP JUMPDEST PUSH1 0x40 MLOAD SWAP1 DUP1 DUP3 MSTORE DUP1 PUSH1 0x20 MUL PUSH1 0x20 ADD DUP3 ADD PUSH1 0x40 MSTORE DUP1 ISZERO PUSH2 0x5D5 JUMPI DUP2 PUSH1 0x20 ADD PUSH1 0x20 DUP3 MUL DUP1 CALLDATASIZE DUP4 CALLDATACOPY ADD SWAP1 POP JUMPDEST POP SWAP1 POP PUSH0 DUP3 PUSH1 0x1 PUSH1 0x1 PUSH1 0x40 SHL SUB DUP2 GT ISZERO PUSH2 0x5F1 JUMPI PUSH2 0x5F1 PUSH2 0x2C3B JUMP JUMPDEST PUSH1 0x40 MLOAD SWAP1 DUP1 DUP3 MSTORE DUP1 PUSH1 0x20 MUL PUSH1 0x20 ADD DUP3 ADD PUSH1 0x40 MSTORE DUP1 ISZERO PUSH2 0x646 JUMPI DUP2 PUSH1 0x20 ADD JUMPDEST PUSH2 0x633 PUSH1 0x40 MLOAD DUP1 PUSH1 0x60 ADD PUSH1 0x40 MSTORE DUP1 PUSH1 0x60 DUP2 MSTORE PUSH1 0x20 ADD PUSH1 0x60 DUP2 MSTORE PUSH1 0x20 ADD PUSH1 0x60 DUP2 MSTORE POP SWAP1 JUMP JUMPDEST DUP2 MSTORE PUSH1 0x20 ADD SWAP1 PUSH1 0x1 SWAP1 SUB SWAP1 DUP2 PUSH2 0x60F JUMPI SWAP1 POP JUMPDEST POP SWAP1 POP PUSH0 DUP1 JUMPDEST DUP6 MLOAD DUP2 LT ISZERO PUSH2 0x943 JUMPI PUSH0 DUP10 DUP2 MSTORE PUSH1 0x9 PUSH1 0x20 MSTORE PUSH1 0x40 DUP2 KECCAK256 DUP8 MLOAD DUP3 SWAP1 DUP10 SWAP1 DUP6 SWAP1 DUP2 LT PUSH2 0x678 JUMPI PUSH2 0x678 PUSH2 0x327E JUMP JUMPDEST PUSH1 0x20 MUL PUSH1 0x20 ADD ADD MLOAD PUSH1 0x1 PUSH1 0x1 PUSH1 0x40 SHL SUB AND PUSH1 0x1 PUSH1 0x1 PUSH1 0x40 SHL SUB AND DUP2 MSTORE PUSH1 0x20 ADD SWAP1 DUP2 MSTORE PUSH1 0x20 ADD PUSH0 KECCAK256 PUSH0 ADD DUP1 SLOAD PUSH2 0x6AC SWAP1 PUSH2 0x3292 JUMP JUMPDEST SWAP1 POP GT ISZERO PUSH2 0x931 JUMPI DUP6 DUP2 DUP2 MLOAD DUP2 LT PUSH2 0x6C6 JUMPI PUSH2 0x6C6 PUSH2 0x327E JUMP JUMPDEST PUSH1 0x20 MUL PUSH1 0x20 ADD ADD MLOAD DUP5 DUP4 DUP2 MLOAD DUP2 LT PUSH2 0x6E0 JUMPI PUSH2 0x6E0 PUSH2 0x327E JUMP JUMPDEST PUSH1 0x20 MUL PUSH1 0x20 ADD ADD SWAP1 PUSH1 0x1 PUSH1 0x1 PUSH1 0x40 SHL SUB AND SWAP1 DUP2 PUSH1 0x1 PUSH1 0x1 PUSH1 0x40 SHL SUB AND DUP2 MSTORE POP POP PUSH1 0x9 PUSH0 DUP11 DUP2 MSTORE PUSH1 0x20 ADD SWAP1 DUP2 MSTORE PUSH1 0x20 ADD PUSH0 KECCAK256 PUSH0 DUP8 DUP4 DUP2 MLOAD DUP2 LT PUSH2 0x724 JUMPI PUSH2 0x724 PUSH2 0x327E JUMP JUMPDEST PUSH1 0x20 MUL PUSH1 0x20 ADD ADD MLOAD PUSH1 0x1 PUSH1 0x1 PUSH1 0x40 SHL SUB AND PUSH1 0x1 PUSH1 0x1 PUSH1 0x40 SHL SUB AND DUP2 MSTORE PUSH1 0x20 ADD SWAP1 DUP2 MSTORE PUSH1 0x20 ADD PUSH0 KECCAK256 PUSH1 0x40 MLOAD DUP1 PUSH1 0x60 ADD PUSH1 0x40 MSTORE SWAP1 DUP2 PUSH0 DUP3 ADD DUP1 SLOAD PUSH2 0x765 SWAP1 PUSH2 0x3292 JUMP JUMPDEST DUP1 PUSH1 0x1F ADD PUSH1 0x20 DUP1 SWAP2 DIV MUL PUSH1 0x20 ADD PUSH1 0x40 MLOAD SWAP1 DUP2 ADD PUSH1 0x40 MSTORE DUP1 SWAP3 SWAP2 SWAP1 DUP2 DUP2 MSTORE PUSH1 0x20 ADD DUP3 DUP1 SLOAD PUSH2 0x791 SWAP1 PUSH2 0x3292 JUMP JUMPDEST DUP1 ISZERO PUSH2 0x7DC JUMPI DUP1 PUSH1 0x1F LT PUSH2 0x7B3 JUMPI PUSH2 0x100 DUP1 DUP4 SLOAD DIV MUL DUP4 MSTORE SWAP2 PUSH1 0x20 ADD SWAP2 PUSH2 0x7DC JUMP JUMPDEST DUP3 ADD SWAP2 SWAP1 PUSH0 MSTORE PUSH1 0x20 PUSH0 KECCAK256 SWAP1 JUMPDEST DUP2 SLOAD DUP2 MSTORE SWAP1 PUSH1 0x1 ADD SWAP1 PUSH1 0x20 ADD DUP1 DUP4 GT PUSH2 0x7BF JUMPI DUP3 SWAP1 SUB PUSH1 0x1F AND DUP3 ADD SWAP2 JUMPDEST POP POP POP POP POP DUP2 MSTORE PUSH1 0x20 ADD PUSH1 0x1 DUP3 ADD DUP1 SLOAD PUSH2 0x7F5 SWAP1 PUSH2 0x3292 JUMP JUMPDEST DUP1 PUSH1 0x1F ADD PUSH1 0x20 DUP1 SWAP2 DIV MUL PUSH1 0x20 ADD PUSH1 0x40 MLOAD SWAP1 DUP2 ADD PUSH1 0x40 MSTORE DUP1 SWAP3 SWAP2 SWAP1 DUP2 DUP2 MSTORE PUSH1 0x20 ADD DUP3 DUP1 SLOAD PUSH2 0x821 SWAP1 PUSH2 0x3292 JUMP JUMPDEST DUP1 ISZERO PUSH2 0x86C JUMPI DUP1 PUSH1 0x1F LT PUSH2 0x843 JUMPI PUSH2 0x100 DUP1 DUP4 SLOAD DIV MUL DUP4 MSTORE SWAP2 PUSH1 0x20 ADD SWAP2 PUSH2 0x86C JUMP JUMPDEST DUP3 ADD SWAP2 SWAP1 PUSH0 MSTORE PUSH1 0x20 PUSH0 KECCAK256 SWAP1 JUMPDEST DUP2 SLOAD DUP2 MSTORE SWAP1 PUSH1 0x1 ADD SWAP1 PUSH1 0x20 ADD DUP1 DUP4 GT PUSH2 0x84F JUMPI DUP3 SWAP1 SUB PUSH1 0x1F AND DUP3 ADD SWAP2 JUMPDEST POP POP POP POP POP DUP2 MSTORE PUSH1 0x20 ADD PUSH1 0x2 DUP3 ADD DUP1 SLOAD PUSH2 0x885 SWAP1 PUSH2 0x3292 JUMP JUMPDEST DUP1 PUSH1 0x1F ADD PUSH1 0x20 DUP1 SWAP2 DIV MUL PUSH1 0x20 ADD PUSH1 0x40 MLOAD SWAP1 DUP2 ADD PUSH1 0x40 MSTORE DUP1 SWAP3 SWAP2 SWAP1 DUP2 DUP2 MSTORE PUSH1 0x20 ADD DUP3 DUP1 SLOAD PUSH2 0x8B1 SWAP1 PUSH2 0x3292 JUMP JUMPDEST DUP1 ISZERO PUSH2 0x8FC JUMPI DUP1 PUSH1 0x1F LT PUSH2 0x8D3 JUMPI PUSH2 0x100 DUP1 DUP4 SLOAD DIV MUL DUP4 MSTORE SWAP2 PUSH1 0x20 ADD SWAP2 PUSH2 0x8FC JUMP JUMPDEST DUP3 ADD SWAP2 SWAP1 PUSH0 MSTORE PUSH1 0x20 PUSH0 KECCAK256 SWAP1 JUMPDEST DUP2 SLOAD DUP2 MSTORE SWAP1 PUSH1 0x1 ADD SWAP1 PUSH1 0x20 ADD DUP1 DUP4 GT PUSH2 0x8DF JUMPI DUP3 SWAP1 SUB PUSH1 0x1F AND DUP3 ADD SWAP2 JUMPDEST POP POP POP POP POP DUP2 MSTORE POP POP DUP4 DUP4 DUP2 MLOAD DUP2 LT PUSH2 0x917 JUMPI PUSH2 0x917 PUSH2 0x327E JUMP JUMPDEST PUSH1 0x20 MUL PUSH1 0x20 ADD ADD DUP2 SWAP1 MSTORE POP DUP2 DUP1 PUSH2 0x92D SWAP1 PUSH2 0x32D8 JUMP JUMPDEST SWAP3 POP POP JUMPDEST DUP1 PUSH2 0x93B DUP2 PUSH2 0x32D8 JUMP JUMPDEST SWAP2 POP POP PUSH2 0x64C JUMP JUMPDEST POP SWAP2 SWAP8 SWAP1 SWAP7 POP SWAP5 POP POP POP POP POP JUMP JUMPDEST PUSH0 PUSH1 0x1 PUSH1 0x1 PUSH1 0xE0 SHL SUB NOT DUP3 AND PUSH4 0x6CDB3D13 PUSH1 0xE1 SHL EQ DUP1 PUSH2 0x981 JUMPI POP PUSH1 0x1 PUSH1 0x1 PUSH1 0xE0 SHL SUB NOT DUP3 AND PUSH4 0x3A24D07 PUSH1 0xE2 SHL EQ JUMPDEST DUP1 PUSH2 0x47B JUMPI POP PUSH4 0x1FFC9A7 PUSH1 0xE0 SHL PUSH1 0x1 PUSH1 0x1 PUSH1 0xE0 SHL SUB NOT DUP4 AND EQ PUSH2 0x47B JUMP JUMPDEST PUSH1 0x60 PUSH1 0x2 DUP1 SLOAD PUSH2 0x9AF SWAP1 PUSH2 0x3292 JUMP JUMPDEST DUP1 PUSH1 0x1F ADD PUSH1 0x20 DUP1 SWAP2 DIV MUL PUSH1 0x20 ADD PUSH1 0x40 MLOAD SWAP1 DUP2 ADD PUSH1 0x40 MSTORE DUP1 SWAP3 SWAP2 SWAP1 DUP2 DUP2 MSTORE PUSH1 0x20 ADD DUP3 DUP1 SLOAD PUSH2 0x9DB SWAP1 PUSH2 0x3292 JUMP JUMPDEST DUP1 ISZERO PUSH2 0xA26 JUMPI DUP1 PUSH1 0x1F LT PUSH2 0x9FD JUMPI PUSH2 0x100 DUP1 DUP4 SLOAD DIV MUL DUP4 MSTORE SWAP2 PUSH1 0x20 ADD SWAP2 PUSH2 0xA26 JUMP JUMPDEST DUP3 ADD SWAP2 SWAP1 PUSH0 MSTORE PUSH1 0x20 PUSH0 KECCAK256 SWAP1 JUMPDEST DUP2 SLOAD DUP2 MSTORE SWAP1 PUSH1 0x1 ADD SWAP1 PUSH1 0x20 ADD DUP1 DUP4 GT PUSH2 0xA09 JUMPI DUP3 SWAP1 SUB PUSH1 0x1F AND DUP3 ADD SWAP2 JUMPDEST POP POP POP POP POP SWAP1 POP SWAP2 SWAP1 POP JUMP JUMPDEST PUSH2 0xA3A PUSH2 0x1C97 JUMP JUMPDEST PUSH1 0x4 SLOAD PUSH0 JUMPDEST DUP2 DUP2 LT ISZERO PUSH2 0xB3B JUMPI DUP3 PUSH1 0x1 PUSH1 0x1 PUSH1 0xA0 SHL SUB AND PUSH1 0x4 DUP3 DUP2 SLOAD DUP2 LT PUSH2 0xA64 JUMPI PUSH2 0xA64 PUSH2 0x327E JUMP JUMPDEST PUSH0 SWAP2 DUP3 MSTORE PUSH1 0x20 SWAP1 SWAP2 KECCAK256 ADD SLOAD PUSH1 0x1 PUSH1 0x1 PUSH1 0xA0 SHL SUB AND SUB PUSH2 0xB29 JUMPI PUSH1 0x4 PUSH2 0xA8A PUSH1 0x1 DUP5 PUSH2 0x32F0 JUMP JUMPDEST DUP2 SLOAD DUP2 LT PUSH2 0xA9A JUMPI PUSH2 0xA9A PUSH2 0x327E JUMP JUMPDEST PUSH0 SWAP2 DUP3 MSTORE PUSH1 0x20 SWAP1 SWAP2 KECCAK256 ADD SLOAD PUSH1 0x4 DUP1 SLOAD PUSH1 0x1 PUSH1 0x1 PUSH1 0xA0 SHL SUB SWAP1 SWAP3 AND SWAP2 DUP4 SWAP1 DUP2 LT PUSH2 0xAC5 JUMPI PUSH2 0xAC5 PUSH2 0x327E JUMP JUMPDEST SWAP1 PUSH0 MSTORE PUSH1 0x20 PUSH0 KECCAK256 ADD PUSH0 PUSH2 0x100 EXP DUP2 SLOAD DUP2 PUSH1 0x1 PUSH1 0x1 PUSH1 0xA0 SHL SUB MUL NOT AND SWAP1 DUP4 PUSH1 0x1 PUSH1 0x1 PUSH1 0xA0 SHL SUB AND MUL OR SWAP1 SSTORE POP PUSH1 0x4 DUP1 SLOAD DUP1 PUSH2 0xB01 JUMPI PUSH2 0xB01 PUSH2 0x3303 JUMP JUMPDEST PUSH0 DUP3 DUP2 MSTORE PUSH1 0x20 SWAP1 KECCAK256 DUP2 ADD PUSH0 NOT SWAP1 DUP2 ADD DUP1 SLOAD PUSH1 0x1 PUSH1 0x1 PUSH1 0xA0 SHL SUB NOT AND SWAP1 SSTORE ADD SWAP1 SSTORE POP PUSH2 0xB7B SWAP1 POP JUMP JUMPDEST DUP1 PUSH2 0xB33 DUP2 PUSH2 0x32D8 JUMP JUMPDEST SWAP2 POP POP PUSH2 0xA3F JUMP JUMPDEST POP PUSH1 0x40 MLOAD PUSH3 0x461BCD PUSH1 0xE5 SHL DUP2 MSTORE PUSH1 0x20 PUSH1 0x4 DUP3 ADD MSTORE PUSH1 0xF PUSH1 0x24 DUP3 ADD MSTORE PUSH15 0x10591B5A5B881B9BDD08199BDD5B99 PUSH1 0x8A SHL PUSH1 0x44 DUP3 ADD MSTORE PUSH1 0x64 ADD JUMPDEST PUSH1 0x40 MLOAD DUP1 SWAP2 SUB SWAP1 REVERT JUMPDEST POP JUMP JUMPDEST PUSH2 0xB86 PUSH2 0x1C97 JUMP JUMPDEST DUP1 PUSH2 0xBC3 JUMPI PUSH1 0x40 MLOAD PUSH3 0x461BCD PUSH1 0xE5 SHL DUP2 MSTORE PUSH1 0x20 PUSH1 0x4 DUP3 ADD MSTORE PUSH1 0xD PUSH1 0x24 DUP3 ADD MSTORE PUSH13 0x13985B59481C995C5D5A5C9959 PUSH1 0x9A SHL PUSH1 0x44 DUP3 ADD MSTORE PUSH1 0x64 ADD PUSH2 0xB72 JUMP JUMPDEST PUSH0 DUP1 PUSH0 PUSH2 0xBD0 PUSH1 0x5 PUSH2 0x1CC4 JUMP JUMPDEST SWAP1 POP PUSH0 JUMPDEST DUP2 MLOAD DUP2 LT ISZERO PUSH2 0xC70 JUMPI DUP6 DUP6 PUSH1 0x40 MLOAD PUSH2 0xBED SWAP3 SWAP2 SWAP1 PUSH2 0x3317 JUMP JUMPDEST PUSH1 0x40 MLOAD DUP1 SWAP2 SUB SWAP1 KECCAK256 PUSH1 0x7 PUSH0 DUP5 DUP5 DUP2 MLOAD DUP2 LT PUSH2 0xC0A JUMPI PUSH2 0xC0A PUSH2 0x327E JUMP JUMPDEST PUSH1 0x20 MUL PUSH1 0x20 ADD ADD MLOAD DUP2 MSTORE PUSH1 0x20 ADD SWAP1 DUP2 MSTORE PUSH1 0x20 ADD PUSH0 KECCAK256 PUSH1 0x40 MLOAD PUSH2 0xC2C SWAP2 SWAP1 PUSH2 0x3326 JUMP JUMPDEST PUSH1 0x40 MLOAD DUP1 SWAP2 SUB SWAP1 KECCAK256 SUB PUSH2 0xC5E JUMPI DUP2 DUP2 DUP2 MLOAD DUP2 LT PUSH2 0xC4B JUMPI PUSH2 0xC4B PUSH2 0x327E JUMP JUMPDEST PUSH1 0x20 MUL PUSH1 0x20 ADD ADD MLOAD SWAP4 POP PUSH1 0x1 SWAP3 POP PUSH2 0xC70 JUMP JUMPDEST DUP1 PUSH2 0xC68 DUP2 PUSH2 0x32D8 JUMP JUMPDEST SWAP2 POP POP PUSH2 0xBD4 JUMP JUMPDEST POP DUP2 ISZERO PUSH2 0xCBD JUMPI PUSH2 0xCB8 DUP10 DUP5 DUP11 DUP11 DUP11 DUP1 DUP1 PUSH1 0x1F ADD PUSH1 0x20 DUP1 SWAP2 DIV MUL PUSH1 0x20 ADD PUSH1 0x40 MLOAD SWAP1 DUP2 ADD PUSH1 0x40 MSTORE DUP1 SWAP4 SWAP3 SWAP2 SWAP1 DUP2 DUP2 MSTORE PUSH1 0x20 ADD DUP4 DUP4 DUP1 DUP3 DUP5 CALLDATACOPY PUSH0 SWAP3 ADD SWAP2 SWAP1 SWAP2 MSTORE POP PUSH2 0x1CD7 SWAP3 POP POP POP JUMP JUMPDEST PUSH2 0xE2A JUMP JUMPDEST PUSH0 DUP1 JUMPDEST PUSH3 0x15F90 TIMESTAMP PREVRANDAO DUP14 DUP11 DUP11 DUP7 PUSH1 0x40 MLOAD PUSH1 0x20 ADD PUSH2 0xCDF SWAP7 SWAP6 SWAP5 SWAP4 SWAP3 SWAP2 SWAP1 PUSH2 0x3398 JUMP JUMPDEST PUSH1 0x40 MLOAD PUSH1 0x20 DUP2 DUP4 SUB SUB DUP2 MSTORE SWAP1 PUSH1 0x40 MSTORE DUP1 MLOAD SWAP1 PUSH1 0x20 ADD KECCAK256 PUSH0 SHR PUSH2 0xD01 SWAP2 SWAP1 PUSH2 0x33D3 JUMP JUMPDEST PUSH2 0xD0D SWAP1 PUSH2 0x3E8 PUSH2 0x33F2 JUMP JUMPDEST SWAP2 POP DUP1 PUSH2 0xD19 DUP2 PUSH2 0x32D8 JUMP JUMPDEST SWAP2 POP POP PUSH1 0x64 DUP2 LT PUSH2 0xD78 JUMPI PUSH1 0x40 MLOAD PUSH3 0x461BCD PUSH1 0xE5 SHL DUP2 MSTORE PUSH1 0x20 PUSH1 0x4 DUP3 ADD MSTORE PUSH1 0x24 DUP1 DUP3 ADD MSTORE PUSH32 0x556E61626C6520746F2066696E6420756E697175652073686F727420746F6B65 PUSH1 0x44 DUP3 ADD MSTORE PUSH4 0x1B881251 PUSH1 0xE2 SHL PUSH1 0x64 DUP3 ADD MSTORE PUSH1 0x84 ADD PUSH2 0xB72 JUMP JUMPDEST PUSH2 0xD83 PUSH1 0x5 DUP4 PUSH2 0x1D32 JUMP JUMPDEST PUSH2 0xCC0 JUMPI PUSH2 0xD92 PUSH1 0x5 DUP4 PUSH2 0x1D49 JUMP JUMPDEST PUSH2 0xDCD JUMPI PUSH1 0x40 MLOAD PUSH3 0x461BCD PUSH1 0xE5 SHL DUP2 MSTORE PUSH1 0x20 PUSH1 0x4 DUP3 ADD MSTORE PUSH1 0xC PUSH1 0x24 DUP3 ADD MSTORE PUSH12 0x2A37B5B2B724A22A30B5B2B7 PUSH1 0xA1 SHL PUSH1 0x44 DUP3 ADD MSTORE PUSH1 0x64 ADD PUSH2 0xB72 JUMP JUMPDEST PUSH2 0xE0E DUP12 DUP4 DUP13 DUP13 DUP13 DUP1 DUP1 PUSH1 0x1F ADD PUSH1 0x20 DUP1 SWAP2 DIV MUL PUSH1 0x20 ADD PUSH1 0x40 MLOAD SWAP1 DUP2 ADD PUSH1 0x40 MSTORE DUP1 SWAP4 SWAP3 SWAP2 SWAP1 DUP2 DUP2 MSTORE PUSH1 0x20 ADD DUP4 DUP4 DUP1 DUP3 DUP5 CALLDATACOPY PUSH0 SWAP3 ADD SWAP2 SWAP1 SWAP2 MSTORE POP PUSH2 0x1CD7 SWAP3 POP POP POP JUMP JUMPDEST PUSH0 DUP3 DUP2 MSTORE PUSH1 0x7 PUSH1 0x20 MSTORE PUSH1 0x40 SWAP1 KECCAK256 PUSH2 0xE26 DUP8 DUP10 DUP4 PUSH2 0x344A JUMP JUMPDEST POP POP POP JUMPDEST POP POP POP POP POP POP POP POP POP JUMP JUMPDEST DUP2 MLOAD DUP4 MLOAD EQ PUSH2 0xE90 JUMPI PUSH1 0x40 MLOAD PUSH3 0x461BCD PUSH1 0xE5 SHL DUP2 MSTORE PUSH1 0x20 PUSH1 0x4 DUP3 ADD MSTORE PUSH1 0x21 PUSH1 0x24 DUP3 ADD MSTORE PUSH32 0x455243313135353A204D69736D617463686564206172726179206C656E677468 PUSH1 0x44 DUP3 ADD MSTORE PUSH1 0x73 PUSH1 0xF8 SHL PUSH1 0x64 DUP3 ADD MSTORE PUSH1 0x84 ADD PUSH2 0xB72 JUMP JUMPDEST PUSH1 0x1 PUSH1 0x1 PUSH1 0xA0 SHL SUB DUP5 AND PUSH2 0xEF4 JUMPI PUSH1 0x40 MLOAD PUSH3 0x461BCD PUSH1 0xE5 SHL DUP2 MSTORE PUSH1 0x20 PUSH1 0x4 DUP3 ADD MSTORE PUSH1 0x25 PUSH1 0x24 DUP3 ADD MSTORE PUSH32 0x455243313135353A207472616E7366657220746F20746865207A65726F206164 PUSH1 0x44 DUP3 ADD MSTORE PUSH5 0x6472657373 PUSH1 0xD8 SHL PUSH1 0x64 DUP3 ADD MSTORE PUSH1 0x84 ADD PUSH2 0xB72 JUMP JUMPDEST PUSH0 JUMPDEST DUP4 MLOAD DUP2 LT ISZERO PUSH2 0xF72 JUMPI PUSH2 0xF23 DUP5 DUP3 DUP2 MLOAD DUP2 LT PUSH2 0xF14 JUMPI PUSH2 0xF14 PUSH2 0x327E JUMP JUMPDEST PUSH1 0x20 MUL PUSH1 0x20 ADD ADD MLOAD DUP8 DUP8 PUSH2 0x1D54 JUMP JUMPDEST PUSH2 0xF62 DUP7 DUP7 DUP7 DUP5 DUP2 MLOAD DUP2 LT PUSH2 0xF3A JUMPI PUSH2 0xF3A PUSH2 0x327E JUMP JUMPDEST PUSH1 0x20 MUL PUSH1 0x20 ADD ADD MLOAD DUP7 DUP6 DUP2 MLOAD DUP2 LT PUSH2 0xF54 JUMPI PUSH2 0xF54 PUSH2 0x327E JUMP JUMPDEST PUSH1 0x20 MUL PUSH1 0x20 ADD ADD MLOAD DUP7 PUSH2 0x1C2B JUMP JUMPDEST PUSH2 0xF6B DUP2 PUSH2 0x32D8 JUMP JUMPDEST SWAP1 POP PUSH2 0xEF6 JUMP JUMPDEST POP POP POP POP POP POP JUMP JUMPDEST PUSH1 0x8 PUSH1 0x20 SWAP1 DUP2 MSTORE PUSH0 SWAP3 DUP4 MSTORE PUSH1 0x40 DUP1 DUP5 KECCAK256 SWAP1 SWAP2 MSTORE SWAP1 DUP3 MSTORE SWAP1 KECCAK256 DUP1 SLOAD PUSH2 0xF9D SWAP1 PUSH2 0x3292 JUMP JUMPDEST DUP1 PUSH1 0x1F ADD PUSH1 0x20 DUP1 SWAP2 DIV MUL PUSH1 0x20 ADD PUSH1 0x40 MLOAD SWAP1 DUP2 ADD PUSH1 0x40 MSTORE DUP1 SWAP3 SWAP2 SWAP1 DUP2 DUP2 MSTORE PUSH1 0x20 ADD DUP3 DUP1 SLOAD PUSH2 0xFC9 SWAP1 PUSH2 0x3292 JUMP JUMPDEST DUP1 ISZERO PUSH2 0x1014 JUMPI DUP1 PUSH1 0x1F LT PUSH2 0xFEB JUMPI PUSH2 0x100 DUP1 DUP4 SLOAD DIV MUL DUP4 MSTORE SWAP2 PUSH1 0x20 ADD SWAP2 PUSH2 0x1014 JUMP JUMPDEST DUP3 ADD SWAP2 SWAP1 PUSH0 MSTORE PUSH1 0x20 PUSH0 KECCAK256 SWAP1 JUMPDEST DUP2 SLOAD DUP2 MSTORE SWAP1 PUSH1 0x1 ADD SWAP1 PUSH1 0x20 ADD DUP1 DUP4 GT PUSH2 0xFF7 JUMPI DUP3 SWAP1 SUB PUSH1 0x1F AND DUP3 ADD SWAP2 JUMPDEST POP POP POP POP POP DUP2 JUMP JUMPDEST PUSH1 0x60 PUSH2 0x1026 PUSH2 0x1C97 JUMP JUMPDEST PUSH1 0x4 DUP1 SLOAD DUP1 PUSH1 0x20 MUL PUSH1 0x20 ADD PUSH1 0x40 MLOAD SWAP1 DUP2 ADD PUSH1 0x40 MSTORE DUP1 SWAP3 SWAP2 SWAP1 DUP2 DUP2 MSTORE PUSH1 0x20 ADD DUP3 DUP1 SLOAD DUP1 ISZERO PUSH2 0x107A JUMPI PUSH1 0x20 MUL DUP3 ADD SWAP2 SWAP1 PUSH0 MSTORE PUSH1 0x20 PUSH0 KECCAK256 SWAP1 JUMPDEST DUP2 SLOAD PUSH1 0x1 PUSH1 0x1 PUSH1 0xA0 SHL SUB AND DUP2 MSTORE PUSH1 0x1 SWAP1 SWAP2 ADD SWAP1 PUSH1 0x20 ADD DUP1 DUP4 GT PUSH2 0x105C JUMPI JUMPDEST POP POP POP POP POP SWAP1 POP SWAP1 JUMP JUMPDEST PUSH1 0x60 DUP2 MLOAD DUP4 MLOAD EQ PUSH2 0x10B5 JUMPI DUP2 MLOAD DUP4 MLOAD PUSH1 0x40 MLOAD PUSH4 0x5B059991 PUSH1 0xE0 SHL DUP2 MSTORE PUSH1 0x4 DUP2 ADD SWAP3 SWAP1 SWAP3 MSTORE PUSH1 0x24 DUP3 ADD MSTORE PUSH1 0x44 ADD PUSH2 0xB72 JUMP JUMPDEST PUSH0 DUP4 MLOAD PUSH1 0x1 PUSH1 0x1 PUSH1 0x40 SHL SUB DUP2 GT ISZERO PUSH2 0x10CF JUMPI PUSH2 0x10CF PUSH2 0x2C3B JUMP JUMPDEST PUSH1 0x40 MLOAD SWAP1 DUP1 DUP3 MSTORE DUP1 PUSH1 0x20 MUL PUSH1 0x20 ADD DUP3 ADD PUSH1 0x40 MSTORE DUP1 ISZERO PUSH2 0x10F8 JUMPI DUP2 PUSH1 0x20 ADD PUSH1 0x20 DUP3 MUL DUP1 CALLDATASIZE DUP4 CALLDATACOPY ADD SWAP1 POP JUMPDEST POP SWAP1 POP PUSH0 JUMPDEST DUP5 MLOAD DUP2 LT ISZERO PUSH2 0x114E JUMPI PUSH1 0x20 DUP1 DUP3 MUL DUP7 ADD ADD MLOAD PUSH2 0x1121 SWAP1 PUSH1 0x20 DUP1 DUP5 MUL DUP8 ADD ADD MLOAD PUSH2 0x45A JUMP JUMPDEST DUP3 DUP3 DUP2 MLOAD DUP2 LT PUSH2 0x1133 JUMPI PUSH2 0x1133 PUSH2 0x327E JUMP JUMPDEST PUSH1 0x20 SWAP1 DUP2 MUL SWAP2 SWAP1 SWAP2 ADD ADD MSTORE PUSH2 0x1147 DUP2 PUSH2 0x32D8 JUMP JUMPDEST SWAP1 POP PUSH2 0x10FD JUMP JUMPDEST POP SWAP4 SWAP3 POP POP POP JUMP JUMPDEST PUSH2 0x115F CALLER PUSH2 0x217A JUMP JUMPDEST PUSH2 0x11A4 JUMPI PUSH1 0x40 MLOAD PUSH3 0x461BCD PUSH1 0xE5 SHL DUP2 MSTORE PUSH1 0x20 PUSH1 0x4 DUP3 ADD MSTORE PUSH1 0x16 PUSH1 0x24 DUP3 ADD MSTORE PUSH22 0x21B0B63632B91034B9903737BA1030B71030B236B4B7 PUSH1 0x51 SHL PUSH1 0x44 DUP3 ADD MSTORE PUSH1 0x64 ADD PUSH2 0xB72 JUMP JUMPDEST PUSH2 0x11AF PUSH1 0x5 DUP4 PUSH2 0x1D32 JUMP JUMPDEST PUSH2 0x11F5 JUMPI PUSH1 0x40 MLOAD PUSH3 0x461BCD PUSH1 0xE5 SHL DUP2 MSTORE PUSH1 0x20 PUSH1 0x4 DUP3 ADD MSTORE PUSH1 0x17 PUSH1 0x24 DUP3 ADD MSTORE PUSH23 0x1D1BDAD95B881A5908191BD95CC81B9BDD08195E1A5CDD PUSH1 0x4A SHL PUSH1 0x44 DUP3 ADD MSTORE PUSH1 0x64 ADD PUSH2 0xB72 JUMP JUMPDEST PUSH0 DUP3 DUP2 MSTORE PUSH1 0x8 PUSH1 0x20 SWAP1 DUP2 MSTORE PUSH1 0x40 DUP1 DUP4 KECCAK256 PUSH1 0x1 PUSH1 0x1 PUSH1 0x40 SHL SUB DUP6 AND DUP5 MSTORE SWAP1 SWAP2 MSTORE SWAP1 KECCAK256 DUP1 SLOAD PUSH2 0x1221 SWAP1 PUSH2 0x3292 JUMP JUMPDEST SWAP1 POP PUSH0 SUB PUSH2 0x1271 JUMPI PUSH1 0x40 MLOAD PUSH3 0x461BCD PUSH1 0xE5 SHL DUP2 MSTORE PUSH1 0x20 PUSH1 0x4 DUP3 ADD MSTORE PUSH1 0x1C PUSH1 0x24 DUP3 ADD MSTORE PUSH32 0x50726F6F66207265717565737420646F6573206E6F7420657869737400000000 PUSH1 0x44 DUP3 ADD MSTORE PUSH1 0x64 ADD PUSH2 0xB72 JUMP JUMPDEST PUSH0 DUP3 DUP2 MSTORE PUSH1 0x8 PUSH1 0x20 SWAP1 DUP2 MSTORE PUSH1 0x40 DUP1 DUP4 KECCAK256 PUSH1 0x1 PUSH1 0x1 PUSH1 0x40 SHL SUB DUP6 AND DUP5 MSTORE SWAP1 SWAP2 MSTORE DUP2 KECCAK256 PUSH2 0x129B SWAP2 PUSH2 0x294B JUMP JUMPDEST PUSH0 JUMPDEST PUSH1 0xA SLOAD DUP2 LT ISZERO PUSH2 0x13D7 JUMPI DUP2 PUSH1 0x1 PUSH1 0x1 PUSH1 0x40 SHL SUB AND PUSH1 0xA DUP3 DUP2 SLOAD DUP2 LT PUSH2 0x12C4 JUMPI PUSH2 0x12C4 PUSH2 0x327E JUMP JUMPDEST PUSH0 SWAP2 DUP3 MSTORE PUSH1 0x20 SWAP1 SWAP2 KECCAK256 PUSH1 0x4 DUP3 DIV ADD SLOAD PUSH1 0x3 SWAP1 SWAP2 AND PUSH1 0x8 MUL PUSH2 0x100 EXP SWAP1 DIV PUSH1 0x1 PUSH1 0x1 PUSH1 0x40 SHL SUB AND SUB PUSH2 0x13C5 JUMPI PUSH1 0xA DUP1 SLOAD PUSH2 0x12FF SWAP1 PUSH1 0x1 SWAP1 PUSH2 0x32F0 JUMP JUMPDEST DUP2 SLOAD DUP2 LT PUSH2 0x130F JUMPI PUSH2 0x130F PUSH2 0x327E JUMP JUMPDEST SWAP1 PUSH0 MSTORE PUSH1 0x20 PUSH0 KECCAK256 SWAP1 PUSH1 0x4 SWAP2 DUP3 DUP3 DIV ADD SWAP2 SWAP1 MOD PUSH1 0x8 MUL SWAP1 SLOAD SWAP1 PUSH2 0x100 EXP SWAP1 DIV PUSH1 0x1 PUSH1 0x1 PUSH1 0x40 SHL SUB AND PUSH1 0xA DUP3 DUP2 SLOAD DUP2 LT PUSH2 0x1349 JUMPI PUSH2 0x1349 PUSH2 0x327E JUMP JUMPDEST SWAP1 PUSH0 MSTORE PUSH1 0x20 PUSH0 KECCAK256 SWAP1 PUSH1 0x4 SWAP2 DUP3 DUP3 DIV ADD SWAP2 SWAP1 MOD PUSH1 0x8 MUL PUSH2 0x100 EXP DUP2 SLOAD DUP2 PUSH1 0x1 PUSH1 0x1 PUSH1 0x40 SHL SUB MUL NOT AND SWAP1 DUP4 PUSH1 0x1 PUSH1 0x1 PUSH1 0x40 SHL SUB AND MUL OR SWAP1 SSTORE POP PUSH1 0xA DUP1 SLOAD DUP1 PUSH2 0x1391 JUMPI PUSH2 0x1391 PUSH2 0x3303 JUMP JUMPDEST PUSH0 DUP3 DUP2 MSTORE PUSH1 0x20 SWAP1 KECCAK256 PUSH1 0x4 PUSH0 NOT SWAP1 SWAP3 ADD SWAP2 DUP3 DIV ADD DUP1 SLOAD PUSH1 0x1 PUSH1 0x1 PUSH1 0x40 SHL SUB PUSH1 0x8 PUSH1 0x3 DUP6 AND MUL PUSH2 0x100 EXP MUL NOT AND SWAP1 SSTORE SWAP1 SSTORE POP POP POP JUMP JUMPDEST DUP1 PUSH2 0x13CF DUP2 PUSH2 0x32D8 JUMP JUMPDEST SWAP2 POP POP PUSH2 0x129D JUMP JUMPDEST POP POP POP JUMP JUMPDEST PUSH2 0x13E4 PUSH2 0x1C97 JUMP JUMPDEST PUSH1 0x1 PUSH1 0x1 PUSH1 0xA0 SHL SUB DUP2 AND PUSH2 0x142C JUMPI PUSH1 0x40 MLOAD PUSH3 0x461BCD PUSH1 0xE5 SHL DUP2 MSTORE PUSH1 0x20 PUSH1 0x4 DUP3 ADD MSTORE PUSH1 0xF PUSH1 0x24 DUP3 ADD MSTORE PUSH15 0x496E76616C69642061646472657373 PUSH1 0x88 SHL PUSH1 0x44 DUP3 ADD MSTORE PUSH1 0x64 ADD PUSH2 0xB72 JUMP JUMPDEST PUSH2 0x1435 DUP2 PUSH2 0x217A JUMP JUMPDEST ISZERO PUSH2 0x1482 JUMPI PUSH1 0x40 MLOAD PUSH3 0x461BCD PUSH1 0xE5 SHL DUP2 MSTORE PUSH1 0x20 PUSH1 0x4 DUP3 ADD MSTORE PUSH1 0x1B PUSH1 0x24 DUP3 ADD MSTORE PUSH32 0x4164647265737320697320616C726561647920616E2061646D696E0000000000 PUSH1 0x44 DUP3 ADD MSTORE PUSH1 0x64 ADD PUSH2 0xB72 JUMP JUMPDEST PUSH1 0x4 DUP1 SLOAD PUSH1 0x1 DUP2 ADD DUP3 SSTORE PUSH0 SWAP2 SWAP1 SWAP2 MSTORE PUSH32 0x8A35ACFBC15FF81A39AE7D344FD709F28E8600B4AA8C65C6B64BFE7FE36BD19B ADD DUP1 SLOAD PUSH1 0x1 PUSH1 0x1 PUSH1 0xA0 SHL SUB NOT AND PUSH1 0x1 PUSH1 0x1 PUSH1 0xA0 SHL SUB SWAP3 SWAP1 SWAP3 AND SWAP2 SWAP1 SWAP2 OR SWAP1 SSTORE JUMP JUMPDEST PUSH2 0x14DB PUSH2 0x1C97 JUMP JUMPDEST PUSH2 0x14E4 PUSH0 PUSH2 0x21E0 JUMP JUMPDEST JUMP JUMPDEST PUSH1 0x40 DUP1 MLOAD PUSH1 0x80 PUSH1 0x20 PUSH1 0x1F DUP13 ADD DUP2 SWAP1 DIV MUL DUP3 ADD DUP2 ADD SWAP1 SWAP3 MSTORE PUSH1 0x60 DUP2 ADD DUP11 DUP2 MSTORE PUSH0 SWAP3 DUP3 SWAP2 SWAP1 DUP14 SWAP1 DUP14 SWAP1 DUP2 SWAP1 DUP6 ADD DUP4 DUP3 DUP1 DUP3 DUP5 CALLDATACOPY PUSH0 SWAP3 ADD SWAP2 SWAP1 SWAP2 MSTORE POP POP POP SWAP1 DUP3 MSTORE POP PUSH1 0x1 PUSH1 0x1 PUSH1 0xA0 SHL SUB DUP11 AND PUSH1 0x20 DUP1 DUP4 ADD SWAP2 SWAP1 SWAP2 MSTORE PUSH1 0x40 DUP1 MLOAD PUSH1 0x1F DUP12 ADD DUP4 SWAP1 DIV DUP4 MUL DUP2 ADD DUP4 ADD DUP3 MSTORE DUP11 DUP2 MSTORE SWAP3 ADD SWAP2 SWAP1 DUP11 SWAP1 DUP11 SWAP1 DUP2 SWAP1 DUP5 ADD DUP4 DUP3 DUP1 DUP3 DUP5 CALLDATACOPY PUSH0 SWAP3 ADD SWAP2 SWAP1 SWAP2 MSTORE POP POP POP SWAP2 MSTORE POP PUSH1 0xB SLOAD PUSH1 0x40 MLOAD PUSH4 0x4FA911F PUSH1 0xE5 SHL DUP2 MSTORE SWAP2 SWAP3 POP PUSH1 0x1 PUSH1 0x1 PUSH1 0xA0 SHL SUB AND SWAP1 PUSH4 0x9F5223E0 SWAP1 PUSH2 0x15A0 SWAP1 DUP15 SWAP1 DUP6 SWAP1 PUSH1 0x4 ADD PUSH2 0x3504 JUMP JUMPDEST PUSH0 PUSH1 0x40 MLOAD DUP1 DUP4 SUB DUP2 PUSH0 DUP8 DUP1 EXTCODESIZE ISZERO DUP1 ISZERO PUSH2 0x15B7 JUMPI PUSH0 DUP1 REVERT JUMPDEST POP GAS CALL ISZERO DUP1 ISZERO PUSH2 0x15C9 JUMPI RETURNDATASIZE PUSH0 DUP1 RETURNDATACOPY RETURNDATASIZE PUSH0 REVERT JUMPDEST POP POP POP POP PUSH2 0x15D9 DUP6 DUP13 DUP7 DUP7 PUSH2 0x191F JUMP JUMPDEST PUSH1 0x40 DUP1 MLOAD PUSH1 0x60 DUP2 ADD SWAP1 SWAP2 MSTORE DUP1 PUSH2 0x15EF DUP5 DUP1 PUSH2 0x355F JUMP JUMPDEST DUP1 DUP1 PUSH1 0x1F ADD PUSH1 0x20 DUP1 SWAP2 DIV MUL PUSH1 0x20 ADD PUSH1 0x40 MLOAD SWAP1 DUP2 ADD PUSH1 0x40 MSTORE DUP1 SWAP4 SWAP3 SWAP2 SWAP1 DUP2 DUP2 MSTORE PUSH1 0x20 ADD DUP4 DUP4 DUP1 DUP3 DUP5 CALLDATACOPY PUSH0 SWAP3 ADD SWAP2 SWAP1 SWAP2 MSTORE POP POP POP SWAP1 DUP3 MSTORE POP PUSH1 0x20 SWAP1 DUP2 ADD SWAP1 PUSH2 0x1637 SWAP1 DUP6 ADD DUP6 PUSH2 0x355F JUMP JUMPDEST DUP1 DUP1 PUSH1 0x1F ADD PUSH1 0x20 DUP1 SWAP2 DIV MUL PUSH1 0x20 ADD PUSH1 0x40 MLOAD SWAP1 DUP2 ADD PUSH1 0x40 MSTORE DUP1 SWAP4 SWAP3 SWAP2 SWAP1 DUP2 DUP2 MSTORE PUSH1 0x20 ADD DUP4 DUP4 DUP1 DUP3 DUP5 CALLDATACOPY PUSH0 SWAP3 ADD SWAP2 SWAP1 SWAP2 MSTORE POP POP POP SWAP1 DUP3 MSTORE POP PUSH1 0x20 ADD PUSH2 0x167D PUSH1 0x40 DUP6 ADD DUP6 PUSH2 0x355F JUMP JUMPDEST DUP1 DUP1 PUSH1 0x1F ADD PUSH1 0x20 DUP1 SWAP2 DIV MUL PUSH1 0x20 ADD PUSH1 0x40 MLOAD SWAP1 DUP2 ADD PUSH1 0x40 MSTORE DUP1 SWAP4 SWAP3 SWAP2 SWAP1 DUP2 DUP2 MSTORE PUSH1 0x20 ADD DUP4 DUP4 DUP1 DUP3 DUP5 CALLDATACOPY PUSH0 DUP2 DUP5 ADD MSTORE PUSH1 0x1F NOT PUSH1 0x1F DUP3 ADD AND SWAP1 POP DUP1 DUP4 ADD SWAP3 POP POP POP POP POP POP POP DUP2 MSTORE POP PUSH1 0x9 PUSH0 DUP8 DUP2 MSTORE PUSH1 0x20 ADD SWAP1 DUP2 MSTORE PUSH1 0x20 ADD PUSH0 KECCAK256 PUSH0 DUP14 PUSH1 0x1 PUSH1 0x1 PUSH1 0x40 SHL SUB AND PUSH1 0x1 PUSH1 0x1 PUSH1 0x40 SHL SUB AND DUP2 MSTORE PUSH1 0x20 ADD SWAP1 DUP2 MSTORE PUSH1 0x20 ADD PUSH0 KECCAK256 PUSH0 DUP3 ADD MLOAD DUP2 PUSH0 ADD SWAP1 DUP2 PUSH2 0x1707 SWAP2 SWAP1 PUSH2 0x35A1 JUMP JUMPDEST POP PUSH1 0x20 DUP3 ADD MLOAD PUSH1 0x1 DUP3 ADD SWAP1 PUSH2 0x171C SWAP1 DUP3 PUSH2 0x35A1 JUMP JUMPDEST POP PUSH1 0x40 DUP3 ADD MLOAD PUSH1 0x2 DUP3 ADD SWAP1 PUSH2 0x1731 SWAP1 DUP3 PUSH2 0x35A1 JUMP JUMPDEST POP POP POP POP POP POP POP POP POP POP POP POP POP POP JUMP JUMPDEST PUSH1 0x60 PUSH2 0x174D PUSH1 0x5 PUSH2 0x1CC4 JUMP JUMPDEST SWAP1 POP SWAP1 JUMP JUMPDEST PUSH1 0x9 PUSH1 0x20 SWAP1 DUP2 MSTORE PUSH0 SWAP3 DUP4 MSTORE PUSH1 0x40 DUP1 DUP5 KECCAK256 SWAP1 SWAP2 MSTORE SWAP1 DUP3 MSTORE SWAP1 KECCAK256 DUP1 SLOAD DUP2 SWAP1 PUSH2 0x1777 SWAP1 PUSH2 0x3292 JUMP JUMPDEST DUP1 PUSH1 0x1F ADD PUSH1 0x20 DUP1 SWAP2 DIV MUL PUSH1 0x20 ADD PUSH1 0x40 MLOAD SWAP1 DUP2 ADD PUSH1 0x40 MSTORE DUP1 SWAP3 SWAP2 SWAP1 DUP2 DUP2 MSTORE PUSH1 0x20 ADD DUP3 DUP1 SLOAD PUSH2 0x17A3 SWAP1 PUSH2 0x3292 JUMP JUMPDEST DUP1 ISZERO PUSH2 0x17EE JUMPI DUP1 PUSH1 0x1F LT PUSH2 0x17C5 JUMPI PUSH2 0x100 DUP1 DUP4 SLOAD DIV MUL DUP4 MSTORE SWAP2 PUSH1 0x20 ADD SWAP2 PUSH2 0x17EE JUMP JUMPDEST DUP3 ADD SWAP2 SWAP1 PUSH0 MSTORE PUSH1 0x20 PUSH0 KECCAK256 SWAP1 JUMPDEST DUP2 SLOAD DUP2 MSTORE SWAP1 PUSH1 0x1 ADD SWAP1 PUSH1 0x20 ADD DUP1 DUP4 GT PUSH2 0x17D1 JUMPI DUP3 SWAP1 SUB PUSH1 0x1F AND DUP3 ADD SWAP2 JUMPDEST POP POP POP POP POP SWAP1 DUP1 PUSH1 0x1 ADD DUP1 SLOAD PUSH2 0x1803 SWAP1 PUSH2 0x3292 JUMP JUMPDEST DUP1 PUSH1 0x1F ADD PUSH1 0x20 DUP1 SWAP2 DIV MUL PUSH1 0x20 ADD PUSH1 0x40 MLOAD SWAP1 DUP2 ADD PUSH1 0x40 MSTORE DUP1 SWAP3 SWAP2 SWAP1 DUP2 DUP2 MSTORE PUSH1 0x20 ADD DUP3 DUP1 SLOAD PUSH2 0x182F SWAP1 PUSH2 0x3292 JUMP JUMPDEST DUP1 ISZERO PUSH2 0x187A JUMPI DUP1 PUSH1 0x1F LT PUSH2 0x1851 JUMPI PUSH2 0x100 DUP1 DUP4 SLOAD DIV MUL DUP4 MSTORE SWAP2 PUSH1 0x20 ADD SWAP2 PUSH2 0x187A JUMP JUMPDEST DUP3 ADD SWAP2 SWAP1 PUSH0 MSTORE PUSH1 0x20 PUSH0 KECCAK256 SWAP1 JUMPDEST DUP2 SLOAD DUP2 MSTORE SWAP1 PUSH1 0x1 ADD SWAP1 PUSH1 0x20 ADD DUP1 DUP4 GT PUSH2 0x185D JUMPI DUP3 SWAP1 SUB PUSH1 0x1F AND DUP3 ADD SWAP2 JUMPDEST POP POP POP POP POP SWAP1 DUP1 PUSH1 0x2 ADD DUP1 SLOAD PUSH2 0x188F SWAP1 PUSH2 0x3292 JUMP JUMPDEST DUP1 PUSH1 0x1F ADD PUSH1 0x20 DUP1 SWAP2 DIV MUL PUSH1 0x20 ADD PUSH1 0x40 MLOAD SWAP1 DUP2 ADD PUSH1 0x40 MSTORE DUP1 SWAP3 SWAP2 SWAP1 DUP2 DUP2 MSTORE PUSH1 0x20 ADD DUP3 DUP1 SLOAD PUSH2 0x18BB SWAP1 PUSH2 0x3292 JUMP JUMPDEST DUP1 ISZERO PUSH2 0x1906 JUMPI DUP1 PUSH1 0x1F LT PUSH2 0x18DD JUMPI PUSH2 0x100 DUP1 DUP4 SLOAD DIV MUL DUP4 MSTORE SWAP2 PUSH1 0x20 ADD SWAP2 PUSH2 0x1906 JUMP JUMPDEST DUP3 ADD SWAP2 SWAP1 PUSH0 MSTORE PUSH1 0x20 PUSH0 KECCAK256 SWAP1 JUMPDEST DUP2 SLOAD DUP2 MSTORE SWAP1 PUSH1 0x1 ADD SWAP1 PUSH1 0x20 ADD DUP1 DUP4 GT PUSH2 0x18E9 JUMPI DUP3 SWAP1 SUB PUSH1 0x1F AND DUP3 ADD SWAP2 JUMPDEST POP POP POP POP POP SWAP1 POP DUP4 JUMP JUMPDEST PUSH2 0x191B CALLER DUP4 DUP4 PUSH2 0x2231 JUMP JUMPDEST POP POP JUMP JUMPDEST PUSH2 0x1928 CALLER PUSH2 0x217A JUMP JUMPDEST PUSH2 0x196D JUMPI PUSH1 0x40 MLOAD PUSH3 0x461BCD PUSH1 0xE5 SHL DUP2 MSTORE PUSH1 0x20 PUSH1 0x4 DUP3 ADD MSTORE PUSH1 0x16 PUSH1 0x24 DUP3 ADD MSTORE PUSH22 0x21B0B63632B91034B9903737BA1030B71030B236B4B7 PUSH1 0x51 SHL PUSH1 0x44 DUP3 ADD MSTORE PUSH1 0x64 ADD PUSH2 0xB72 JUMP JUMPDEST PUSH2 0x1978 PUSH1 0x5 DUP6 PUSH2 0x1D32 JUMP JUMPDEST PUSH2 0x19BE JUMPI PUSH1 0x40 MLOAD PUSH3 0x461BCD PUSH1 0xE5 SHL DUP2 MSTORE PUSH1 0x20 PUSH1 0x4 DUP3 ADD MSTORE PUSH1 0x17 PUSH1 0x24 DUP3 ADD MSTORE PUSH23 0x1D1BDAD95B881A5908191BD95CC81B9BDD08195E1A5CDD PUSH1 0x4A SHL PUSH1 0x44 DUP3 ADD MSTORE PUSH1 0x64 ADD PUSH2 0xB72 JUMP JUMPDEST PUSH0 DUP5 DUP2 MSTORE PUSH1 0x8 PUSH1 0x20 SWAP1 DUP2 MSTORE PUSH1 0x40 DUP1 DUP4 KECCAK256 PUSH1 0x1 PUSH1 0x1 PUSH1 0x40 SHL SUB DUP8 AND DUP5 MSTORE SWAP1 SWAP2 MSTORE SWAP1 KECCAK256 DUP1 SLOAD PUSH2 0x19EA SWAP1 PUSH2 0x3292 JUMP JUMPDEST ISZERO SWAP1 POP PUSH2 0x1A39 JUMPI PUSH1 0x40 MLOAD PUSH3 0x461BCD PUSH1 0xE5 SHL DUP2 MSTORE PUSH1 0x20 PUSH1 0x4 DUP3 ADD MSTORE PUSH1 0x1C PUSH1 0x24 DUP3 ADD MSTORE PUSH32 0x50726F6F66207265717565737420616C72656164792065786973747300000000 PUSH1 0x44 DUP3 ADD MSTORE PUSH1 0x64 ADD PUSH2 0xB72 JUMP JUMPDEST PUSH1 0x40 DUP1 MLOAD DUP1 DUP3 ADD DUP3 MSTORE PUSH1 0x6 DUP2 MSTORE PUSH6 0x39B2B73232B9 PUSH1 0xD1 SHL PUSH1 0x20 SWAP1 SWAP2 ADD MSTORE MLOAD PUSH32 0x168E92CE035BA45E59A0314B0ED9A9E619B284AED8F6E5AB0A596EFD5C9F5CF9 SWAP1 PUSH2 0x1A86 SWAP1 DUP5 SWAP1 DUP5 SWAP1 PUSH2 0x3317 JUMP JUMPDEST PUSH1 0x40 MLOAD DUP1 SWAP2 SUB SWAP1 KECCAK256 EQ DUP1 PUSH2 0x1AEE JUMPI POP PUSH1 0x40 DUP1 MLOAD DUP1 DUP3 ADD DUP3 MSTORE PUSH1 0x8 DUP2 MSTORE PUSH8 0x3932B1B2B4BB32B9 PUSH1 0xC1 SHL PUSH1 0x20 SWAP1 SWAP2 ADD MSTORE MLOAD PUSH32 0x5E784E45FEB63C375016D4CE5C52A57B0A48B8A170BC2E31463BE0D03D1C4DB6 SWAP1 PUSH2 0x1AE4 SWAP1 DUP5 SWAP1 DUP5 SWAP1 PUSH2 0x3317 JUMP JUMPDEST PUSH1 0x40 MLOAD DUP1 SWAP2 SUB SWAP1 KECCAK256 EQ JUMPDEST PUSH2 0x1B46 JUMPI PUSH1 0x40 MLOAD PUSH3 0x461BCD PUSH1 0xE5 SHL DUP2 MSTORE PUSH1 0x20 PUSH1 0x4 DUP3 ADD MSTORE PUSH1 0x23 PUSH1 0x24 DUP3 ADD MSTORE PUSH32 0x526F6C65206D757374206265202773656E64657227206F722027726563656976 PUSH1 0x44 DUP3 ADD MSTORE PUSH3 0x657227 PUSH1 0xE8 SHL PUSH1 0x64 DUP3 ADD MSTORE PUSH1 0x84 ADD PUSH2 0xB72 JUMP JUMPDEST PUSH0 DUP5 DUP2 MSTORE PUSH1 0x8 PUSH1 0x20 SWAP1 DUP2 MSTORE PUSH1 0x40 DUP1 DUP4 KECCAK256 PUSH1 0x1 PUSH1 0x1 PUSH1 0x40 SHL SUB DUP8 AND DUP5 MSTORE SWAP1 SWAP2 MSTORE SWAP1 KECCAK256 PUSH2 0x1B72 DUP3 DUP5 DUP4 PUSH2 0x344A JUMP JUMPDEST POP POP PUSH1 0xA DUP1 SLOAD PUSH1 0x1 DUP2 ADD DUP3 SSTORE PUSH0 SWAP2 SWAP1 SWAP2 MSTORE PUSH32 0xC65A7BB8D6351C1CF70C95A316CC6A92839C986682D98BC35F958F4883F9D2A8 PUSH1 0x4 DUP3 DIV ADD DUP1 SLOAD PUSH1 0x3 SWAP1 SWAP3 AND PUSH1 0x8 MUL PUSH2 0x100 EXP PUSH1 0x1 PUSH1 0x1 PUSH1 0x40 SHL SUB DUP2 DUP2 MUL NOT SWAP1 SWAP4 AND SWAP5 SWAP1 SWAP3 AND SWAP2 SWAP1 SWAP2 MUL SWAP3 SWAP1 SWAP3 OR SWAP1 SWAP2 SSTORE POP POP JUMP JUMPDEST PUSH1 0xA DUP2 DUP2 SLOAD DUP2 LT PUSH2 0x1BE8 JUMPI PUSH0 DUP1 REVERT JUMPDEST SWAP1 PUSH0 MSTORE PUSH1 0x20 PUSH0 KECCAK256 SWAP1 PUSH1 0x4 SWAP2 DUP3 DUP3 DIV ADD SWAP2 SWAP1 MOD PUSH1 0x8 MUL SWAP2 POP SLOAD SWAP1 PUSH2 0x100 EXP SWAP1 DIV PUSH1 0x1 PUSH1 0x1 PUSH1 0x40 SHL SUB AND DUP2 JUMP JUMPDEST PUSH1 0x7 PUSH1 0x20 MSTORE PUSH0 SWAP1 DUP2 MSTORE PUSH1 0x40 SWAP1 KECCAK256 DUP1 SLOAD PUSH2 0xF9D SWAP1 PUSH2 0x3292 JUMP JUMPDEST PUSH2 0x1C36 DUP4 DUP7 DUP7 PUSH2 0x1D54 JUMP JUMPDEST PUSH2 0x1C43 DUP6 DUP6 DUP6 DUP6 DUP6 PUSH2 0x22C5 JUMP JUMPDEST POP POP POP POP POP JUMP JUMPDEST PUSH2 0x1C52 PUSH2 0x1C97 JUMP JUMPDEST PUSH1 0x1 PUSH1 0x1 PUSH1 0xA0 SHL SUB DUP2 AND PUSH2 0x1C7B JUMPI PUSH1 0x40 MLOAD PUSH4 0x1E4FBDF7 PUSH1 0xE0 SHL DUP2 MSTORE PUSH0 PUSH1 0x4 DUP3 ADD MSTORE PUSH1 0x24 ADD PUSH2 0xB72 JUMP JUMPDEST PUSH2 0xB7B DUP2 PUSH2 0x21E0 JUMP JUMPDEST PUSH2 0x1C8C PUSH2 0x1C97 JUMP JUMPDEST PUSH2 0x13D7 DUP4 DUP4 DUP4 PUSH2 0x2342 JUMP JUMPDEST PUSH1 0x3 SLOAD PUSH1 0x1 PUSH1 0x1 PUSH1 0xA0 SHL SUB AND CALLER EQ PUSH2 0x14E4 JUMPI PUSH1 0x40 MLOAD PUSH4 0x118CDAA7 PUSH1 0xE0 SHL DUP2 MSTORE CALLER PUSH1 0x4 DUP3 ADD MSTORE PUSH1 0x24 ADD PUSH2 0xB72 JUMP JUMPDEST PUSH1 0x60 PUSH0 PUSH2 0x1CD0 DUP4 PUSH2 0x23A8 JUMP JUMPDEST SWAP4 SWAP3 POP POP POP JUMP JUMPDEST PUSH1 0x1 PUSH1 0x1 PUSH1 0xA0 SHL SUB DUP5 AND PUSH2 0x1D00 JUMPI PUSH1 0x40 MLOAD PUSH4 0x2BFA23E7 PUSH1 0xE1 SHL DUP2 MSTORE PUSH0 PUSH1 0x4 DUP3 ADD MSTORE PUSH1 0x24 ADD PUSH2 0xB72 JUMP JUMPDEST PUSH1 0x40 DUP1 MLOAD PUSH1 0x1 DUP1 DUP3 MSTORE PUSH1 0x20 DUP3 ADD DUP7 SWAP1 MSTORE DUP2 DUP4 ADD SWAP1 DUP2 MSTORE PUSH1 0x60 DUP3 ADD DUP6 SWAP1 MSTORE PUSH1 0x80 DUP3 ADD SWAP1 SWAP3 MSTORE SWAP1 PUSH2 0xF72 PUSH0 DUP8 DUP5 DUP5 DUP8 PUSH2 0x2400 JUMP JUMPDEST PUSH0 DUP2 DUP2 MSTORE PUSH1 0x1 DUP4 ADD PUSH1 0x20 MSTORE PUSH1 0x40 DUP2 KECCAK256 SLOAD ISZERO ISZERO PUSH2 0x1CD0 JUMP JUMPDEST PUSH0 PUSH2 0x1CD0 DUP4 DUP4 PUSH2 0x2453 JUMP JUMPDEST PUSH0 PUSH1 0xA DUP1 SLOAD DUP1 PUSH1 0x20 MUL PUSH1 0x20 ADD PUSH1 0x40 MLOAD SWAP1 DUP2 ADD PUSH1 0x40 MSTORE DUP1 SWAP3 SWAP2 SWAP1 DUP2 DUP2 MSTORE PUSH1 0x20 ADD DUP3 DUP1 SLOAD DUP1 ISZERO PUSH2 0x1DD0 JUMPI PUSH1 0x20 MUL DUP3 ADD SWAP2 SWAP1 PUSH0 MSTORE PUSH1 0x20 PUSH0 KECCAK256 SWAP1 PUSH0 SWAP1 JUMPDEST DUP3 DUP3 SWAP1 SLOAD SWAP1 PUSH2 0x100 EXP SWAP1 DIV PUSH1 0x1 PUSH1 0x1 PUSH1 0x40 SHL SUB AND PUSH1 0x1 PUSH1 0x1 PUSH1 0x40 SHL SUB AND DUP2 MSTORE PUSH1 0x20 ADD SWAP1 PUSH1 0x8 ADD SWAP1 PUSH1 0x20 DUP3 PUSH1 0x7 ADD DIV SWAP3 DUP4 ADD SWAP3 PUSH1 0x1 SUB DUP3 MUL SWAP2 POP DUP1 DUP5 GT PUSH2 0x1D8D JUMPI SWAP1 POP JUMPDEST POP POP POP POP POP SWAP1 POP PUSH0 JUMPDEST DUP2 MLOAD DUP2 LT ISZERO PUSH2 0x1C43 JUMPI PUSH0 DUP6 DUP2 MSTORE PUSH1 0x8 PUSH1 0x20 MSTORE PUSH1 0x40 DUP2 KECCAK256 DUP4 MLOAD DUP3 SWAP1 DUP6 SWAP1 DUP6 SWAP1 DUP2 LT PUSH2 0x1E05 JUMPI PUSH2 0x1E05 PUSH2 0x327E JUMP JUMPDEST PUSH1 0x20 MUL PUSH1 0x20 ADD ADD MLOAD PUSH1 0x1 PUSH1 0x1 PUSH1 0x40 SHL SUB AND PUSH1 0x1 PUSH1 0x1 PUSH1 0x40 SHL SUB AND DUP2 MSTORE PUSH1 0x20 ADD SWAP1 DUP2 MSTORE PUSH1 0x20 ADD PUSH0 KECCAK256 DUP1 SLOAD PUSH2 0x1E37 SWAP1 PUSH2 0x3292 JUMP JUMPDEST DUP1 PUSH1 0x1F ADD PUSH1 0x20 DUP1 SWAP2 DIV MUL PUSH1 0x20 ADD PUSH1 0x40 MLOAD SWAP1 DUP2 ADD PUSH1 0x40 MSTORE DUP1 SWAP3 SWAP2 SWAP1 DUP2 DUP2 MSTORE PUSH1 0x20 ADD DUP3 DUP1 SLOAD PUSH2 0x1E63 SWAP1 PUSH2 0x3292 JUMP JUMPDEST DUP1 ISZERO PUSH2 0x1EAE JUMPI DUP1 PUSH1 0x1F LT PUSH2 0x1E85 JUMPI PUSH2 0x100 DUP1 DUP4 SLOAD DIV MUL DUP4 MSTORE SWAP2 PUSH1 0x20 ADD SWAP2 PUSH2 0x1EAE JUMP JUMPDEST DUP3 ADD SWAP2 SWAP1 PUSH0 MSTORE PUSH1 0x20 PUSH0 KECCAK256 SWAP1 JUMPDEST DUP2 SLOAD DUP2 MSTORE SWAP1 PUSH1 0x1 ADD SWAP1 PUSH1 0x20 ADD DUP1 DUP4 GT PUSH2 0x1E91 JUMPI DUP3 SWAP1 SUB PUSH1 0x1F AND DUP3 ADD SWAP2 JUMPDEST POP POP POP POP POP SWAP1 POP DUP1 MLOAD PUSH0 SUB PUSH2 0x1EC3 JUMPI POP PUSH2 0x2168 JUMP JUMPDEST PUSH1 0x40 DUP1 MLOAD DUP1 DUP3 ADD SWAP1 SWAP2 MSTORE PUSH1 0x6 DUP2 MSTORE PUSH6 0x39B2B73232B9 PUSH1 0xD1 SHL PUSH1 0x20 SWAP2 DUP3 ADD MSTORE DUP2 MLOAD SWAP1 DUP3 ADD KECCAK256 PUSH32 0xE9716D31FCA45BA1A65FCEB4F1265619E64D7B5127091A54F5A69102A360A307 ADD PUSH2 0x2016 JUMPI PUSH1 0xB SLOAD DUP4 MLOAD PUSH1 0x1 PUSH1 0x1 PUSH1 0xA0 SHL SUB SWAP1 SWAP2 AND SWAP1 PUSH4 0x8C1DA2C9 SWAP1 DUP8 SWAP1 DUP7 SWAP1 DUP7 SWAP1 DUP2 LT PUSH2 0x1F38 JUMPI PUSH2 0x1F38 PUSH2 0x327E JUMP JUMPDEST PUSH1 0x20 MUL PUSH1 0x20 ADD ADD MLOAD PUSH1 0x40 MLOAD DUP4 PUSH4 0xFFFFFFFF AND PUSH1 0xE0 SHL DUP2 MSTORE PUSH1 0x4 ADD PUSH2 0x1F7A SWAP3 SWAP2 SWAP1 PUSH1 0x1 PUSH1 0x1 PUSH1 0xA0 SHL SUB SWAP3 SWAP1 SWAP3 AND DUP3 MSTORE PUSH1 0x1 PUSH1 0x1 PUSH1 0x40 SHL SUB AND PUSH1 0x20 DUP3 ADD MSTORE PUSH1 0x40 ADD SWAP1 JUMP JUMPDEST PUSH0 PUSH1 0x40 MLOAD DUP1 DUP4 SUB DUP2 DUP7 GAS STATICCALL ISZERO DUP1 ISZERO PUSH2 0x1F94 JUMPI RETURNDATASIZE PUSH0 DUP1 RETURNDATACOPY RETURNDATASIZE PUSH0 REVERT JUMPDEST POP POP POP POP PUSH1 0x40 MLOAD RETURNDATASIZE PUSH0 DUP3 RETURNDATACOPY PUSH1 0x1F RETURNDATASIZE SWAP1 DUP2 ADD PUSH1 0x1F NOT AND DUP3 ADD PUSH1 0x40 MSTORE PUSH2 0x1FBB SWAP2 SWAP1 DUP2 ADD SWAP1 PUSH2 0x365C JUMP JUMPDEST MLOAD PUSH2 0x2011 JUMPI DUP3 DUP3 DUP2 MLOAD DUP2 LT PUSH2 0x1FD2 JUMPI PUSH2 0x1FD2 PUSH2 0x327E JUMP JUMPDEST PUSH1 0x20 SWAP1 DUP2 MUL SWAP2 SWAP1 SWAP2 ADD ADD MLOAD PUSH1 0x40 MLOAD PUSH4 0x52D23047 PUSH1 0xE1 SHL DUP2 MSTORE PUSH1 0x1 PUSH1 0x1 PUSH1 0x40 SHL SUB SWAP1 SWAP2 AND PUSH1 0x4 DUP3 ADD MSTORE PUSH1 0x1 PUSH1 0x1 PUSH1 0xA0 SHL SUB DUP7 AND PUSH1 0x24 DUP3 ADD MSTORE PUSH1 0x44 ADD PUSH2 0xB72 JUMP JUMPDEST PUSH2 0x2166 JUMP JUMPDEST PUSH1 0x40 DUP1 MLOAD DUP1 DUP3 ADD SWAP1 SWAP2 MSTORE PUSH1 0x8 DUP2 MSTORE PUSH8 0x3932B1B2B4BB32B9 PUSH1 0xC1 SHL PUSH1 0x20 SWAP2 DUP3 ADD MSTORE DUP2 MLOAD SWAP1 DUP3 ADD KECCAK256 PUSH32 0xA187B1BA0149C3C8AFE92B31A3AD5A84F5B7475E8F43D1CEB9C41F2FC2E3B24A ADD PUSH2 0x2166 JUMPI PUSH1 0xB SLOAD DUP4 MLOAD PUSH1 0x1 PUSH1 0x1 PUSH1 0xA0 SHL SUB SWAP1 SWAP2 AND SWAP1 PUSH4 0x8C1DA2C9 SWAP1 DUP7 SWAP1 DUP7 SWAP1 DUP7 SWAP1 DUP2 LT PUSH2 0x208D JUMPI PUSH2 0x208D PUSH2 0x327E JUMP JUMPDEST PUSH1 0x20 MUL PUSH1 0x20 ADD ADD MLOAD PUSH1 0x40 MLOAD DUP4 PUSH4 0xFFFFFFFF AND PUSH1 0xE0 SHL DUP2 MSTORE PUSH1 0x4 ADD PUSH2 0x20CF SWAP3 SWAP2 SWAP1 PUSH1 0x1 PUSH1 0x1 PUSH1 0xA0 SHL SUB SWAP3 SWAP1 SWAP3 AND DUP3 MSTORE PUSH1 0x1 PUSH1 0x1 PUSH1 0x40 SHL SUB AND PUSH1 0x20 DUP3 ADD MSTORE PUSH1 0x40 ADD SWAP1 JUMP JUMPDEST PUSH0 PUSH1 0x40 MLOAD DUP1 DUP4 SUB DUP2 DUP7 GAS STATICCALL ISZERO DUP1 ISZERO PUSH2 0x20E9 JUMPI RETURNDATASIZE PUSH0 DUP1 RETURNDATACOPY RETURNDATASIZE PUSH0 REVERT JUMPDEST POP POP POP POP PUSH1 0x40 MLOAD RETURNDATASIZE PUSH0 DUP3 RETURNDATACOPY PUSH1 0x1F RETURNDATASIZE SWAP1 DUP2 ADD PUSH1 0x1F NOT AND DUP3 ADD PUSH1 0x40 MSTORE PUSH2 0x2110 SWAP2 SWAP1 DUP2 ADD SWAP1 PUSH2 0x365C JUMP JUMPDEST MLOAD PUSH2 0x2166 JUMPI DUP3 DUP3 DUP2 MLOAD DUP2 LT PUSH2 0x2127 JUMPI PUSH2 0x2127 PUSH2 0x327E JUMP JUMPDEST PUSH1 0x20 SWAP1 DUP2 MUL SWAP2 SWAP1 SWAP2 ADD ADD MLOAD PUSH1 0x40 MLOAD PUSH4 0x52D23047 PUSH1 0xE1 SHL DUP2 MSTORE PUSH1 0x1 PUSH1 0x1 PUSH1 0x40 SHL SUB SWAP1 SWAP2 AND PUSH1 0x4 DUP3 ADD MSTORE PUSH1 0x1 PUSH1 0x1 PUSH1 0xA0 SHL SUB DUP6 AND PUSH1 0x24 DUP3 ADD MSTORE PUSH1 0x44 ADD PUSH2 0xB72 JUMP JUMPDEST POP JUMPDEST DUP1 PUSH2 0x2172 DUP2 PUSH2 0x32D8 JUMP JUMPDEST SWAP2 POP POP PUSH2 0x1DD9 JUMP JUMPDEST PUSH0 DUP1 JUMPDEST PUSH1 0x4 SLOAD DUP2 LT ISZERO PUSH2 0x21D8 JUMPI DUP3 PUSH1 0x1 PUSH1 0x1 PUSH1 0xA0 SHL SUB AND PUSH1 0x4 DUP3 DUP2 SLOAD DUP2 LT PUSH2 0x21A4 JUMPI PUSH2 0x21A4 PUSH2 0x327E JUMP JUMPDEST PUSH0 SWAP2 DUP3 MSTORE PUSH1 0x20 SWAP1 SWAP2 KECCAK256 ADD SLOAD PUSH1 0x1 PUSH1 0x1 PUSH1 0xA0 SHL SUB AND SUB PUSH2 0x21C6 JUMPI POP PUSH1 0x1 SWAP3 SWAP2 POP POP JUMP JUMPDEST DUP1 PUSH2 0x21D0 DUP2 PUSH2 0x32D8 JUMP JUMPDEST SWAP2 POP POP PUSH2 0x217D JUMP JUMPDEST POP PUSH0 SWAP3 SWAP2 POP POP JUMP JUMPDEST PUSH1 0x3 DUP1 SLOAD PUSH1 0x1 PUSH1 0x1 PUSH1 0xA0 SHL SUB DUP4 DUP2 AND PUSH1 0x1 PUSH1 0x1 PUSH1 0xA0 SHL SUB NOT DUP4 AND DUP2 OR SWAP1 SWAP4 SSTORE PUSH1 0x40 MLOAD SWAP2 AND SWAP2 SWAP1 DUP3 SWAP1 PUSH32 0x8BE0079C531659141344CD1FD0A4F28419497F9722A3DAAFE3B4186F6B6457E0 SWAP1 PUSH0 SWAP1 LOG3 POP POP JUMP JUMPDEST PUSH1 0x1 PUSH1 0x1 PUSH1 0xA0 SHL SUB DUP3 AND PUSH2 0x2259 JUMPI PUSH1 0x40 MLOAD PUSH3 0xCED3E1 PUSH1 0xE8 SHL DUP2 MSTORE PUSH0 PUSH1 0x4 DUP3 ADD MSTORE PUSH1 0x24 ADD PUSH2 0xB72 JUMP JUMPDEST PUSH1 0x1 PUSH1 0x1 PUSH1 0xA0 SHL SUB DUP4 DUP2 AND PUSH0 DUP2 DUP2 MSTORE PUSH1 0x1 PUSH1 0x20 SWAP1 DUP2 MSTORE PUSH1 0x40 DUP1 DUP4 KECCAK256 SWAP5 DUP8 AND DUP1 DUP5 MSTORE SWAP5 DUP3 MSTORE SWAP2 DUP3 SWAP1 KECCAK256 DUP1 SLOAD PUSH1 0xFF NOT AND DUP7 ISZERO ISZERO SWAP1 DUP2 OR SWAP1 SWAP2 SSTORE SWAP2 MLOAD SWAP2 DUP3 MSTORE PUSH32 0x17307EAB39AB6107E8899845AD3D59BD9653F200F220920489CA2B5937696C31 SWAP2 ADD PUSH1 0x40 MLOAD DUP1 SWAP2 SUB SWAP1 LOG3 POP POP POP JUMP JUMPDEST CALLER PUSH1 0x1 PUSH1 0x1 PUSH1 0xA0 SHL SUB DUP7 AND DUP2 EQ DUP1 ISZERO SWAP1 PUSH2 0x2304 JUMPI POP PUSH1 0x1 PUSH1 0x1 PUSH1 0xA0 SHL SUB DUP1 DUP8 AND PUSH0 SWAP1 DUP2 MSTORE PUSH1 0x1 PUSH1 0x20 SWAP1 DUP2 MSTORE PUSH1 0x40 DUP1 DUP4 KECCAK256 SWAP4 DUP6 AND DUP4 MSTORE SWAP3 SWAP1 MSTORE KECCAK256 SLOAD PUSH1 0xFF AND ISZERO JUMPDEST ISZERO PUSH2 0x2335 JUMPI PUSH1 0x40 MLOAD PUSH4 0x711BEC91 PUSH1 0xE1 SHL DUP2 MSTORE PUSH1 0x1 PUSH1 0x1 PUSH1 0xA0 SHL SUB DUP1 DUP4 AND PUSH1 0x4 DUP4 ADD MSTORE DUP8 AND PUSH1 0x24 DUP3 ADD MSTORE PUSH1 0x44 ADD PUSH2 0xB72 JUMP JUMPDEST PUSH2 0xF72 DUP7 DUP7 DUP7 DUP7 DUP7 PUSH2 0x249F JUMP JUMPDEST PUSH1 0x1 PUSH1 0x1 PUSH1 0xA0 SHL SUB DUP4 AND PUSH2 0x236A JUMPI PUSH1 0x40 MLOAD PUSH3 0x6A0D45 PUSH1 0xE2 SHL DUP2 MSTORE PUSH0 PUSH1 0x4 DUP3 ADD MSTORE PUSH1 0x24 ADD PUSH2 0xB72 JUMP JUMPDEST PUSH1 0x40 DUP1 MLOAD PUSH1 0x1 DUP1 DUP3 MSTORE PUSH1 0x20 DUP3 ADD DUP6 SWAP1 MSTORE DUP2 DUP4 ADD SWAP1 DUP2 MSTORE PUSH1 0x60 DUP3 ADD DUP5 SWAP1 MSTORE PUSH1 0xA0 DUP3 ADD SWAP1 SWAP3 MSTORE PUSH0 PUSH1 0x80 DUP3 ADD DUP2 DUP2 MSTORE SWAP2 SWAP3 SWAP2 PUSH2 0x1C43 SWAP2 DUP8 SWAP2 DUP6 SWAP1 DUP6 SWAP1 PUSH2 0x2400 JUMP JUMPDEST PUSH1 0x60 DUP2 PUSH0 ADD DUP1 SLOAD DUP1 PUSH1 0x20 MUL PUSH1 0x20 ADD PUSH1 0x40 MLOAD SWAP1 DUP2 ADD PUSH1 0x40 MSTORE DUP1 SWAP3 SWAP2 SWAP1 DUP2 DUP2 MSTORE PUSH1 0x20 ADD DUP3 DUP1 SLOAD DUP1 ISZERO PUSH2 0xA26 JUMPI PUSH1 0x20 MUL DUP3 ADD SWAP2 SWAP1 PUSH0 MSTORE PUSH1 0x20 PUSH0 KECCAK256 SWAP1 JUMPDEST DUP2 SLOAD DUP2 MSTORE PUSH1 0x20 ADD SWAP1 PUSH1 0x1 ADD SWAP1 DUP1 DUP4 GT PUSH2 0x23E1 JUMPI POP POP POP POP POP SWAP1 POP SWAP2 SWAP1 POP JUMP JUMPDEST PUSH2 0x240C DUP6 DUP6 DUP6 DUP6 PUSH2 0x252B JUMP JUMPDEST PUSH1 0x1 PUSH1 0x1 PUSH1 0xA0 SHL SUB DUP5 AND ISZERO PUSH2 0x1C43 JUMPI DUP3 MLOAD CALLER SWAP1 PUSH1 0x1 SUB PUSH2 0x2445 JUMPI PUSH1 0x20 DUP5 DUP2 ADD MLOAD SWAP1 DUP5 ADD MLOAD PUSH2 0x243E DUP4 DUP10 DUP10 DUP6 DUP6 DUP10 PUSH2 0x2743 JUMP JUMPDEST POP POP PUSH2 0xF72 JUMP JUMPDEST PUSH2 0xF72 DUP2 DUP8 DUP8 DUP8 DUP8 DUP8 PUSH2 0x2864 JUMP JUMPDEST PUSH0 DUP2 DUP2 MSTORE PUSH1 0x1 DUP4 ADD PUSH1 0x20 MSTORE PUSH1 0x40 DUP2 KECCAK256 SLOAD PUSH2 0x2498 JUMPI POP DUP2 SLOAD PUSH1 0x1 DUP2 DUP2 ADD DUP5 SSTORE PUSH0 DUP5 DUP2 MSTORE PUSH1 0x20 DUP1 DUP3 KECCAK256 SWAP1 SWAP4 ADD DUP5 SWAP1 SSTORE DUP5 SLOAD DUP5 DUP3 MSTORE DUP3 DUP7 ADD SWAP1 SWAP4 MSTORE PUSH1 0x40 SWAP1 KECCAK256 SWAP2 SWAP1 SWAP2 SSTORE PUSH2 0x47B JUMP JUMPDEST POP PUSH0 PUSH2 0x47B JUMP JUMPDEST PUSH1 0x1 PUSH1 0x1 PUSH1 0xA0 SHL SUB DUP5 AND PUSH2 0x24C8 JUMPI PUSH1 0x40 MLOAD PUSH4 0x2BFA23E7 PUSH1 0xE1 SHL DUP2 MSTORE PUSH0 PUSH1 0x4 DUP3 ADD MSTORE PUSH1 0x24 ADD PUSH2 0xB72 JUMP JUMPDEST PUSH1 0x1 PUSH1 0x1 PUSH1 0xA0 SHL SUB DUP6 AND PUSH2 0x24F0 JUMPI PUSH1 0x40 MLOAD PUSH3 0x6A0D45 PUSH1 0xE2 SHL DUP2 MSTORE PUSH0 PUSH1 0x4 DUP3 ADD MSTORE PUSH1 0x24 ADD PUSH2 0xB72 JUMP JUMPDEST PUSH1 0x40 DUP1 MLOAD PUSH1 0x1 DUP1 DUP3 MSTORE PUSH1 0x20 DUP3 ADD DUP7 SWAP1 MSTORE DUP2 DUP4 ADD SWAP1 DUP2 MSTORE PUSH1 0x60 DUP3 ADD DUP6 SWAP1 MSTORE PUSH1 0x80 DUP3 ADD SWAP1 SWAP3 MSTORE SWAP1 PUSH2 0x2522 DUP8 DUP8 DUP5 DUP5 DUP8 PUSH2 0x2400 JUMP JUMPDEST POP POP POP POP POP POP POP JUMP JUMPDEST DUP1 MLOAD DUP3 MLOAD EQ PUSH2 0x255A JUMPI DUP2 MLOAD DUP2 MLOAD PUSH1 0x40 MLOAD PUSH4 0x5B059991 PUSH1 0xE0 SHL DUP2 MSTORE PUSH1 0x4 DUP2 ADD SWAP3 SWAP1 SWAP3 MSTORE PUSH1 0x24 DUP3 ADD MSTORE PUSH1 0x44 ADD PUSH2 0xB72 JUMP JUMPDEST CALLER PUSH0 JUMPDEST DUP4 MLOAD DUP2 LT ISZERO PUSH2 0x2665 JUMPI PUSH1 0x20 DUP2 DUP2 MUL DUP6 DUP2 ADD DUP3 ADD MLOAD SWAP1 DUP6 ADD SWAP1 SWAP2 ADD MLOAD PUSH1 0x1 PUSH1 0x1 PUSH1 0xA0 SHL SUB DUP9 AND ISZERO PUSH2 0x260E JUMPI PUSH0 DUP3 DUP2 MSTORE PUSH1 0x20 DUP2 DUP2 MSTORE PUSH1 0x40 DUP1 DUP4 KECCAK256 PUSH1 0x1 PUSH1 0x1 PUSH1 0xA0 SHL SUB DUP13 AND DUP5 MSTORE SWAP1 SWAP2 MSTORE SWAP1 KECCAK256 SLOAD DUP2 DUP2 LT ISZERO PUSH2 0x25E8 JUMPI PUSH1 0x40 MLOAD PUSH4 0x3DEE4C5 PUSH1 0xE0 SHL DUP2 MSTORE PUSH1 0x1 PUSH1 0x1 PUSH1 0xA0 SHL SUB DUP11 AND PUSH1 0x4 DUP3 ADD MSTORE PUSH1 0x24 DUP2 ADD DUP3 SWAP1 MSTORE PUSH1 0x44 DUP2 ADD DUP4 SWAP1 MSTORE PUSH1 0x64 DUP2 ADD DUP5 SWAP1 MSTORE PUSH1 0x84 ADD PUSH2 0xB72 JUMP JUMPDEST PUSH0 DUP4 DUP2 MSTORE PUSH1 0x20 DUP2 DUP2 MSTORE PUSH1 0x40 DUP1 DUP4 KECCAK256 PUSH1 0x1 PUSH1 0x1 PUSH1 0xA0 SHL SUB DUP14 AND DUP5 MSTORE SWAP1 SWAP2 MSTORE SWAP1 KECCAK256 SWAP1 DUP3 SWAP1 SUB SWAP1 SSTORE JUMPDEST PUSH1 0x1 PUSH1 0x1 PUSH1 0xA0 SHL SUB DUP8 AND ISZERO PUSH2 0x2652 JUMPI PUSH0 DUP3 DUP2 MSTORE PUSH1 0x20 DUP2 DUP2 MSTORE PUSH1 0x40 DUP1 DUP4 KECCAK256 PUSH1 0x1 PUSH1 0x1 PUSH1 0xA0 SHL SUB DUP12 AND DUP5 MSTORE SWAP1 SWAP2 MSTORE DUP2 KECCAK256 DUP1 SLOAD DUP4 SWAP3 SWAP1 PUSH2 0x264C SWAP1 DUP5 SWAP1 PUSH2 0x33F2 JUMP JUMPDEST SWAP1 SWAP2 SSTORE POP POP JUMPDEST POP POP DUP1 PUSH2 0x265E SWAP1 PUSH2 0x32D8 JUMP JUMPDEST SWAP1 POP PUSH2 0x255D JUMP JUMPDEST POP DUP3 MLOAD PUSH1 0x1 SUB PUSH2 0x26E5 JUMPI PUSH1 0x20 DUP4 ADD MLOAD PUSH0 SWAP1 PUSH1 0x20 DUP5 ADD MLOAD SWAP1 SWAP2 POP DUP6 PUSH1 0x1 PUSH1 0x1 PUSH1 0xA0 SHL SUB AND DUP8 PUSH1 0x1 PUSH1 0x1 PUSH1 0xA0 SHL SUB AND DUP5 PUSH1 0x1 PUSH1 0x1 PUSH1 0xA0 SHL SUB AND PUSH32 0xC3D58168C5AE7397731D063D5BBF3D657854427343F4C083240F7AACAA2D0F62 DUP6 DUP6 PUSH1 0x40 MLOAD PUSH2 0x26D6 SWAP3 SWAP2 SWAP1 SWAP2 DUP3 MSTORE PUSH1 0x20 DUP3 ADD MSTORE PUSH1 0x40 ADD SWAP1 JUMP JUMPDEST PUSH1 0x40 MLOAD DUP1 SWAP2 SUB SWAP1 LOG4 POP POP PUSH2 0x1C43 JUMP JUMPDEST DUP4 PUSH1 0x1 PUSH1 0x1 PUSH1 0xA0 SHL SUB AND DUP6 PUSH1 0x1 PUSH1 0x1 PUSH1 0xA0 SHL SUB AND DUP3 PUSH1 0x1 PUSH1 0x1 PUSH1 0xA0 SHL SUB AND PUSH32 0x4A39DC06D4C0DBC64B70AF90FD698A233A518AA5D07E595D983B8C0526C8F7FB DUP7 DUP7 PUSH1 0x40 MLOAD PUSH2 0x2734 SWAP3 SWAP2 SWAP1 PUSH2 0x3725 JUMP JUMPDEST PUSH1 0x40 MLOAD DUP1 SWAP2 SUB SWAP1 LOG4 POP POP POP POP POP JUMP JUMPDEST PUSH1 0x1 PUSH1 0x1 PUSH1 0xA0 SHL SUB DUP5 AND EXTCODESIZE ISZERO PUSH2 0xF72 JUMPI PUSH1 0x40 MLOAD PUSH4 0xF23A6E61 PUSH1 0xE0 SHL DUP2 MSTORE PUSH1 0x1 PUSH1 0x1 PUSH1 0xA0 SHL SUB DUP6 AND SWAP1 PUSH4 0xF23A6E61 SWAP1 PUSH2 0x2787 SWAP1 DUP10 SWAP1 DUP10 SWAP1 DUP9 SWAP1 DUP9 SWAP1 DUP9 SWAP1 PUSH1 0x4 ADD PUSH2 0x3752 JUMP JUMPDEST PUSH1 0x20 PUSH1 0x40 MLOAD DUP1 DUP4 SUB DUP2 PUSH0 DUP8 GAS CALL SWAP3 POP POP POP DUP1 ISZERO PUSH2 0x27C1 JUMPI POP PUSH1 0x40 DUP1 MLOAD PUSH1 0x1F RETURNDATASIZE SWAP1 DUP2 ADD PUSH1 0x1F NOT AND DUP3 ADD SWAP1 SWAP3 MSTORE PUSH2 0x27BE SWAP2 DUP2 ADD SWAP1 PUSH2 0x3796 JUMP JUMPDEST PUSH1 0x1 JUMPDEST PUSH2 0x2828 JUMPI RETURNDATASIZE DUP1 DUP1 ISZERO PUSH2 0x27EE JUMPI PUSH1 0x40 MLOAD SWAP2 POP PUSH1 0x1F NOT PUSH1 0x3F RETURNDATASIZE ADD AND DUP3 ADD PUSH1 0x40 MSTORE RETURNDATASIZE DUP3 MSTORE RETURNDATASIZE PUSH0 PUSH1 0x20 DUP5 ADD RETURNDATACOPY PUSH2 0x27F3 JUMP JUMPDEST PUSH1 0x60 SWAP2 POP JUMPDEST POP DUP1 MLOAD PUSH0 SUB PUSH2 0x2820 JUMPI PUSH1 0x40 MLOAD PUSH4 0x2BFA23E7 PUSH1 0xE1 SHL DUP2 MSTORE PUSH1 0x1 PUSH1 0x1 PUSH1 0xA0 SHL SUB DUP7 AND PUSH1 0x4 DUP3 ADD MSTORE PUSH1 0x24 ADD PUSH2 0xB72 JUMP JUMPDEST DUP1 MLOAD DUP2 PUSH1 0x20 ADD REVERT JUMPDEST PUSH1 0x1 PUSH1 0x1 PUSH1 0xE0 SHL SUB NOT DUP2 AND PUSH4 0xF23A6E61 PUSH1 0xE0 SHL EQ PUSH2 0x2522 JUMPI PUSH1 0x40 MLOAD PUSH4 0x2BFA23E7 PUSH1 0xE1 SHL DUP2 MSTORE PUSH1 0x1 PUSH1 0x1 PUSH1 0xA0 SHL SUB DUP7 AND PUSH1 0x4 DUP3 ADD MSTORE PUSH1 0x24 ADD PUSH2 0xB72 JUMP JUMPDEST PUSH1 0x1 PUSH1 0x1 PUSH1 0xA0 SHL SUB DUP5 AND EXTCODESIZE ISZERO PUSH2 0xF72 JUMPI PUSH1 0x40 MLOAD PUSH4 0xBC197C81 PUSH1 0xE0 SHL DUP2 MSTORE PUSH1 0x1 PUSH1 0x1 PUSH1 0xA0 SHL SUB DUP6 AND SWAP1 PUSH4 0xBC197C81 SWAP1 PUSH2 0x28A8 SWAP1 DUP10 SWAP1 DUP10 SWAP1 DUP9 SWAP1 DUP9 SWAP1 DUP9 SWAP1 PUSH1 0x4 ADD PUSH2 0x37B1 JUMP JUMPDEST PUSH1 0x20 PUSH1 0x40 MLOAD DUP1 DUP4 SUB DUP2 PUSH0 DUP8 GAS CALL SWAP3 POP POP POP DUP1 ISZERO PUSH2 0x28E2 JUMPI POP PUSH1 0x40 DUP1 MLOAD PUSH1 0x1F RETURNDATASIZE SWAP1 DUP2 ADD PUSH1 0x1F NOT AND DUP3 ADD SWAP1 SWAP3 MSTORE PUSH2 0x28DF SWAP2 DUP2 ADD SWAP1 PUSH2 0x3796 JUMP JUMPDEST PUSH1 0x1 JUMPDEST PUSH2 0x290F JUMPI RETURNDATASIZE DUP1 DUP1 ISZERO PUSH2 0x27EE JUMPI PUSH1 0x40 MLOAD SWAP2 POP PUSH1 0x1F NOT PUSH1 0x3F RETURNDATASIZE ADD AND DUP3 ADD PUSH1 0x40 MSTORE RETURNDATASIZE DUP3 MSTORE RETURNDATASIZE PUSH0 PUSH1 0x20 DUP5 ADD RETURNDATACOPY PUSH2 0x27F3 JUMP JUMPDEST PUSH1 0x1 PUSH1 0x1 PUSH1 0xE0 SHL SUB NOT DUP2 AND PUSH4 0xBC197C81 PUSH1 0xE0 SHL EQ PUSH2 0x2522 JUMPI PUSH1 0x40 MLOAD PUSH4 0x2BFA23E7 PUSH1 0xE1 SHL DUP2 MSTORE PUSH1 0x1 PUSH1 0x1 PUSH1 0xA0 SHL SUB DUP7 AND PUSH1 0x4 DUP3 ADD MSTORE PUSH1 0x24 ADD PUSH2 0xB72 JUMP JUMPDEST POP DUP1 SLOAD PUSH2 0x2957 SWAP1 PUSH2 0x3292 JUMP JUMPDEST PUSH0 DUP3 SSTORE DUP1 PUSH1 0x1F LT PUSH2 0x2966 JUMPI POP POP JUMP JUMPDEST PUSH1 0x1F ADD PUSH1 0x20 SWAP1 DIV SWAP1 PUSH0 MSTORE PUSH1 0x20 PUSH0 KECCAK256 SWAP1 DUP2 ADD SWAP1 PUSH2 0xB7B SWAP2 SWAP1 JUMPDEST DUP1 DUP3 GT ISZERO PUSH2 0x2991 JUMPI PUSH0 DUP2 SSTORE PUSH1 0x1 ADD PUSH2 0x297E JUMP JUMPDEST POP SWAP1 JUMP JUMPDEST PUSH1 0x1 PUSH1 0x1 PUSH1 0xA0 SHL SUB DUP2 AND DUP2 EQ PUSH2 0xB7B JUMPI PUSH0 DUP1 REVERT JUMPDEST PUSH0 DUP1 PUSH1 0x40 DUP4 DUP6 SUB SLT ISZERO PUSH2 0x29BA JUMPI PUSH0 DUP1 REVERT JUMPDEST DUP3 CALLDATALOAD PUSH2 0x29C5 DUP2 PUSH2 0x2995 JUMP JUMPDEST SWAP5 PUSH1 0x20 SWAP4 SWAP1 SWAP4 ADD CALLDATALOAD SWAP4 POP POP POP JUMP JUMPDEST PUSH0 PUSH1 0x20 DUP3 DUP5 SUB SLT ISZERO PUSH2 0x29E3 JUMPI PUSH0 DUP1 REVERT JUMPDEST POP CALLDATALOAD SWAP2 SWAP1 POP JUMP JUMPDEST PUSH0 JUMPDEST DUP4 DUP2 LT ISZERO PUSH2 0x2A04 JUMPI DUP2 DUP2 ADD MLOAD DUP4 DUP3 ADD MSTORE PUSH1 0x20 ADD PUSH2 0x29EC JUMP JUMPDEST POP POP PUSH0 SWAP2 ADD MSTORE JUMP JUMPDEST PUSH0 DUP2 MLOAD DUP1 DUP5 MSTORE PUSH2 0x2A23 DUP2 PUSH1 0x20 DUP7 ADD PUSH1 0x20 DUP7 ADD PUSH2 0x29EA JUMP JUMPDEST PUSH1 0x1F ADD PUSH1 0x1F NOT AND SWAP3 SWAP1 SWAP3 ADD PUSH1 0x20 ADD SWAP3 SWAP2 POP POP JUMP JUMPDEST PUSH1 0x40 DUP1 DUP3 MSTORE DUP4 MLOAD DUP3 DUP3 ADD DUP2 SWAP1 MSTORE PUSH0 SWAP2 SWAP1 PUSH1 0x60 SWAP1 DUP2 DUP6 ADD SWAP1 PUSH1 0x20 DUP1 DUP10 ADD DUP7 JUMPDEST DUP4 DUP2 LT ISZERO PUSH2 0x2A7A JUMPI DUP2 MLOAD PUSH1 0x1 PUSH1 0x1 PUSH1 0x40 SHL SUB AND DUP6 MSTORE SWAP4 DUP3 ADD SWAP4 SWAP1 DUP3 ADD SWAP1 PUSH1 0x1 ADD PUSH2 0x2A55 JUMP JUMPDEST POP POP DUP7 DUP4 SUB DUP2 DUP9 ADD MSTORE DUP8 MLOAD DUP1 DUP5 MSTORE DUP2 DUP5 ADD SWAP3 POP PUSH1 0x5 DUP2 SWAP1 SHL DUP5 ADD DUP3 ADD DUP10 DUP4 ADD PUSH0 JUMPDEST DUP4 DUP2 LT ISZERO PUSH2 0x2B04 JUMPI DUP7 DUP4 SUB PUSH1 0x1F NOT ADD DUP7 MSTORE DUP2 MLOAD DUP1 MLOAD DUP10 DUP6 MSTORE PUSH2 0x2ABF DUP11 DUP7 ADD DUP3 PUSH2 0x2A0C JUMP JUMPDEST SWAP1 POP DUP7 DUP3 ADD MLOAD DUP6 DUP3 SUB DUP9 DUP8 ADD MSTORE PUSH2 0x2AD6 DUP3 DUP3 PUSH2 0x2A0C JUMP JUMPDEST SWAP2 POP POP DUP11 DUP3 ADD MLOAD SWAP2 POP DUP5 DUP2 SUB DUP12 DUP7 ADD MSTORE PUSH2 0x2AF0 DUP2 DUP4 PUSH2 0x2A0C JUMP JUMPDEST SWAP8 DUP8 ADD SWAP8 SWAP5 POP POP POP SWAP1 DUP5 ADD SWAP1 PUSH1 0x1 ADD PUSH2 0x2A9B JUMP JUMPDEST POP SWAP1 SWAP12 SWAP11 POP POP POP POP POP POP POP POP POP POP POP JUMP JUMPDEST PUSH1 0x1 PUSH1 0x1 PUSH1 0xE0 SHL SUB NOT DUP2 AND DUP2 EQ PUSH2 0xB7B JUMPI PUSH0 DUP1 REVERT JUMPDEST PUSH0 PUSH1 0x20 DUP3 DUP5 SUB SLT ISZERO PUSH2 0x2B3A JUMPI PUSH0 DUP1 REVERT JUMPDEST DUP2 CALLDATALOAD PUSH2 0x1CD0 DUP2 PUSH2 0x2B15 JUMP JUMPDEST PUSH1 0x20 DUP2 MSTORE PUSH0 PUSH2 0x1CD0 PUSH1 0x20 DUP4 ADD DUP5 PUSH2 0x2A0C JUMP JUMPDEST PUSH0 PUSH1 0x20 DUP3 DUP5 SUB SLT ISZERO PUSH2 0x2B67 JUMPI PUSH0 DUP1 REVERT JUMPDEST DUP2 CALLDATALOAD PUSH2 0x1CD0 DUP2 PUSH2 0x2995 JUMP JUMPDEST PUSH0 DUP1 DUP4 PUSH1 0x1F DUP5 ADD SLT PUSH2 0x2B82 JUMPI PUSH0 DUP1 REVERT JUMPDEST POP DUP2 CALLDATALOAD PUSH1 0x1 PUSH1 0x1 PUSH1 0x40 SHL SUB DUP2 GT ISZERO PUSH2 0x2B98 JUMPI PUSH0 DUP1 REVERT JUMPDEST PUSH1 0x20 DUP4 ADD SWAP2 POP DUP4 PUSH1 0x20 DUP3 DUP6 ADD ADD GT ISZERO PUSH2 0x2BAF JUMPI PUSH0 DUP1 REVERT JUMPDEST SWAP3 POP SWAP3 SWAP1 POP JUMP JUMPDEST PUSH0 DUP1 PUSH0 DUP1 PUSH0 DUP1 PUSH1 0x80 DUP8 DUP10 SUB SLT ISZERO PUSH2 0x2BCB JUMPI PUSH0 DUP1 REVERT JUMPDEST DUP7 CALLDATALOAD PUSH2 0x2BD6 DUP2 PUSH2 0x2995 JUMP JUMPDEST SWAP6 POP PUSH1 0x20 DUP8 ADD CALLDATALOAD SWAP5 POP PUSH1 0x40 DUP8 ADD CALLDATALOAD PUSH1 0x1 PUSH1 0x1 PUSH1 0x40 SHL SUB DUP1 DUP3 GT ISZERO PUSH2 0x2BF8 JUMPI PUSH0 DUP1 REVERT JUMPDEST PUSH2 0x2C04 DUP11 DUP4 DUP12 ADD PUSH2 0x2B72 JUMP JUMPDEST SWAP1 SWAP7 POP SWAP5 POP PUSH1 0x60 DUP10 ADD CALLDATALOAD SWAP2 POP DUP1 DUP3 GT ISZERO PUSH2 0x2C1C JUMPI PUSH0 DUP1 REVERT JUMPDEST POP PUSH2 0x2C29 DUP10 DUP3 DUP11 ADD PUSH2 0x2B72 JUMP JUMPDEST SWAP8 SWAP11 SWAP7 SWAP10 POP SWAP5 SWAP8 POP SWAP3 SWAP6 SWAP4 SWAP5 SWAP3 POP POP POP JUMP JUMPDEST PUSH4 0x4E487B71 PUSH1 0xE0 SHL PUSH0 MSTORE PUSH1 0x41 PUSH1 0x4 MSTORE PUSH1 0x24 PUSH0 REVERT JUMPDEST PUSH1 0x40 MLOAD PUSH1 0x80 DUP2 ADD PUSH1 0x1 PUSH1 0x1 PUSH1 0x40 SHL SUB DUP2 GT DUP3 DUP3 LT OR ISZERO PUSH2 0x2C71 JUMPI PUSH2 0x2C71 PUSH2 0x2C3B JUMP JUMPDEST PUSH1 0x40 MSTORE SWAP1 JUMP JUMPDEST PUSH1 0x40 MLOAD PUSH1 0x1F DUP3 ADD PUSH1 0x1F NOT AND DUP2 ADD PUSH1 0x1 PUSH1 0x1 PUSH1 0x40 SHL SUB DUP2 GT DUP3 DUP3 LT OR ISZERO PUSH2 0x2C9F JUMPI PUSH2 0x2C9F PUSH2 0x2C3B JUMP JUMPDEST PUSH1 0x40 MSTORE SWAP2 SWAP1 POP JUMP JUMPDEST PUSH0 PUSH1 0x1 PUSH1 0x1 PUSH1 0x40 SHL SUB DUP3 GT ISZERO PUSH2 0x2CBF JUMPI PUSH2 0x2CBF PUSH2 0x2C3B JUMP JUMPDEST POP PUSH1 0x5 SHL PUSH1 0x20 ADD SWAP1 JUMP JUMPDEST PUSH0 DUP3 PUSH1 0x1F DUP4 ADD SLT PUSH2 0x2CD8 JUMPI PUSH0 DUP1 REVERT JUMPDEST DUP2 CALLDATALOAD PUSH1 0x20 PUSH2 0x2CED PUSH2 0x2CE8 DUP4 PUSH2 0x2CA7 JUMP JUMPDEST PUSH2 0x2C77 JUMP JUMPDEST DUP3 DUP2 MSTORE PUSH1 0x5 SWAP3 SWAP1 SWAP3 SHL DUP5 ADD DUP2 ADD SWAP2 DUP2 DUP2 ADD SWAP1 DUP7 DUP5 GT ISZERO PUSH2 0x2D0B JUMPI PUSH0 DUP1 REVERT JUMPDEST DUP3 DUP7 ADD JUMPDEST DUP5 DUP2 LT ISZERO PUSH2 0x2D26 JUMPI DUP1 CALLDATALOAD DUP4 MSTORE SWAP2 DUP4 ADD SWAP2 DUP4 ADD PUSH2 0x2D0F JUMP JUMPDEST POP SWAP7 SWAP6 POP POP POP POP POP POP JUMP JUMPDEST PUSH0 PUSH1 0x1 PUSH1 0x1 PUSH1 0x40 SHL SUB DUP3 GT ISZERO PUSH2 0x2D49 JUMPI PUSH2 0x2D49 PUSH2 0x2C3B JUMP JUMPDEST POP PUSH1 0x1F ADD PUSH1 0x1F NOT AND PUSH1 0x20 ADD SWAP1 JUMP JUMPDEST PUSH0 DUP3 PUSH1 0x1F DUP4 ADD SLT PUSH2 0x2D66 JUMPI PUSH0 DUP1 REVERT JUMPDEST DUP2 CALLDATALOAD PUSH2 0x2D74 PUSH2 0x2CE8 DUP3 PUSH2 0x2D31 JUMP JUMPDEST DUP2 DUP2 MSTORE DUP5 PUSH1 0x20 DUP4 DUP7 ADD ADD GT ISZERO PUSH2 0x2D88 JUMPI PUSH0 DUP1 REVERT JUMPDEST DUP2 PUSH1 0x20 DUP6 ADD PUSH1 0x20 DUP4 ADD CALLDATACOPY PUSH0 SWAP2 DUP2 ADD PUSH1 0x20 ADD SWAP2 SWAP1 SWAP2 MSTORE SWAP4 SWAP3 POP POP POP JUMP JUMPDEST PUSH0 DUP1 PUSH0 DUP1 PUSH0 PUSH1 0xA0 DUP7 DUP9 SUB SLT ISZERO PUSH2 0x2DB8 JUMPI PUSH0 DUP1 REVERT JUMPDEST DUP6 CALLDATALOAD PUSH2 0x2DC3 DUP2 PUSH2 0x2995 JUMP JUMPDEST SWAP5 POP PUSH1 0x20 DUP7 ADD CALLDATALOAD PUSH2 0x2DD3 DUP2 PUSH2 0x2995 JUMP JUMPDEST SWAP4 POP PUSH1 0x40 DUP7 ADD CALLDATALOAD PUSH1 0x1 PUSH1 0x1 PUSH1 0x40 SHL SUB DUP1 DUP3 GT ISZERO PUSH2 0x2DEE JUMPI PUSH0 DUP1 REVERT JUMPDEST PUSH2 0x2DFA DUP10 DUP4 DUP11 ADD PUSH2 0x2CC9 JUMP JUMPDEST SWAP5 POP PUSH1 0x60 DUP9 ADD CALLDATALOAD SWAP2 POP DUP1 DUP3 GT ISZERO PUSH2 0x2E0F JUMPI PUSH0 DUP1 REVERT JUMPDEST PUSH2 0x2E1B DUP10 DUP4 DUP11 ADD PUSH2 0x2CC9 JUMP JUMPDEST SWAP4 POP PUSH1 0x80 DUP9 ADD CALLDATALOAD SWAP2 POP DUP1 DUP3 GT ISZERO PUSH2 0x2E30 JUMPI PUSH0 DUP1 REVERT JUMPDEST POP PUSH2 0x2E3D DUP9 DUP3 DUP10 ADD PUSH2 0x2D57 JUMP JUMPDEST SWAP2 POP POP SWAP3 SWAP6 POP SWAP3 SWAP6 SWAP1 SWAP4 POP JUMP JUMPDEST DUP1 CALLDATALOAD PUSH1 0x1 PUSH1 0x1 PUSH1 0x40 SHL SUB DUP2 AND DUP2 EQ PUSH2 0x2E60 JUMPI PUSH0 DUP1 REVERT JUMPDEST SWAP2 SWAP1 POP JUMP JUMPDEST PUSH0 DUP1 PUSH1 0x40 DUP4 DUP6 SUB SLT ISZERO PUSH2 0x2E76 JUMPI PUSH0 DUP1 REVERT JUMPDEST DUP3 CALLDATALOAD SWAP2 POP PUSH2 0x2E86 PUSH1 0x20 DUP5 ADD PUSH2 0x2E4A JUMP JUMPDEST SWAP1 POP SWAP3 POP SWAP3 SWAP1 POP JUMP JUMPDEST PUSH1 0x20 DUP1 DUP3 MSTORE DUP3 MLOAD DUP3 DUP3 ADD DUP2 SWAP1 MSTORE PUSH0 SWAP2 SWAP1 DUP5 DUP3 ADD SWAP1 PUSH1 0x40 DUP6 ADD SWAP1 DUP5 JUMPDEST DUP2 DUP2 LT ISZERO PUSH2 0x2ECF JUMPI DUP4 MLOAD PUSH1 0x1 PUSH1 0x1 PUSH1 0xA0 SHL SUB AND DUP4 MSTORE SWAP3 DUP5 ADD SWAP3 SWAP2 DUP5 ADD SWAP2 PUSH1 0x1 ADD PUSH2 0x2EAA JUMP JUMPDEST POP SWAP1 SWAP7 SWAP6 POP POP POP POP POP POP JUMP JUMPDEST PUSH0 DUP1 PUSH1 0x40 DUP4 DUP6 SUB SLT ISZERO PUSH2 0x2EEC JUMPI PUSH0 DUP1 REVERT JUMPDEST DUP3 CALLDATALOAD PUSH1 0x1 PUSH1 0x1 PUSH1 0x40 SHL SUB DUP1 DUP3 GT ISZERO PUSH2 0x2F02 JUMPI PUSH0 DUP1 REVERT JUMPDEST DUP2 DUP6 ADD SWAP2 POP DUP6 PUSH1 0x1F DUP4 ADD SLT PUSH2 0x2F15 JUMPI PUSH0 DUP1 REVERT JUMPDEST DUP2 CALLDATALOAD PUSH1 0x20 PUSH2 0x2F25 PUSH2 0x2CE8 DUP4 PUSH2 0x2CA7 JUMP JUMPDEST DUP3 DUP2 MSTORE PUSH1 0x5 SWAP3 SWAP1 SWAP3 SHL DUP5 ADD DUP2 ADD SWAP2 DUP2 DUP2 ADD SWAP1 DUP10 DUP5 GT ISZERO PUSH2 0x2F43 JUMPI PUSH0 DUP1 REVERT JUMPDEST SWAP5 DUP3 ADD SWAP5 JUMPDEST DUP4 DUP7 LT ISZERO PUSH2 0x2F6A JUMPI DUP6 CALLDATALOAD PUSH2 0x2F5B DUP2 PUSH2 0x2995 JUMP JUMPDEST DUP3 MSTORE SWAP5 DUP3 ADD SWAP5 SWAP1 DUP3 ADD SWAP1 PUSH2 0x2F48 JUMP JUMPDEST SWAP7 POP POP DUP7 ADD CALLDATALOAD SWAP3 POP POP DUP1 DUP3 GT ISZERO PUSH2 0x2F7F JUMPI PUSH0 DUP1 REVERT JUMPDEST POP PUSH2 0x2F8C DUP6 DUP3 DUP7 ADD PUSH2 0x2CC9 JUMP JUMPDEST SWAP2 POP POP SWAP3 POP SWAP3 SWAP1 POP JUMP JUMPDEST PUSH0 DUP2 MLOAD DUP1 DUP5 MSTORE PUSH1 0x20 DUP1 DUP6 ADD SWAP5 POP DUP1 DUP5 ADD PUSH0 JUMPDEST DUP4 DUP2 LT ISZERO PUSH2 0x2FC4 JUMPI DUP2 MLOAD DUP8 MSTORE SWAP6 DUP3 ADD SWAP6 SWAP1 DUP3 ADD SWAP1 PUSH1 0x1 ADD PUSH2 0x2FA8 JUMP JUMPDEST POP SWAP5 SWAP6 SWAP5 POP POP POP POP POP JUMP JUMPDEST PUSH1 0x20 DUP2 MSTORE PUSH0 PUSH2 0x1CD0 PUSH1 0x20 DUP4 ADD DUP5 PUSH2 0x2F96 JUMP JUMPDEST DUP1 CALLDATALOAD PUSH2 0x2E60 DUP2 PUSH2 0x2995 JUMP JUMPDEST PUSH0 PUSH1 0x60 DUP3 DUP5 SUB SLT ISZERO PUSH2 0x2FFC JUMPI PUSH0 DUP1 REVERT JUMPDEST POP SWAP2 SWAP1 POP JUMP JUMPDEST PUSH0 DUP1 PUSH0 DUP1 PUSH0 DUP1 PUSH0 DUP1 PUSH0 DUP1 PUSH1 0xE0 DUP12 DUP14 SUB SLT ISZERO PUSH2 0x301B JUMPI PUSH0 DUP1 REVERT JUMPDEST PUSH2 0x3024 DUP12 PUSH2 0x2E4A JUMP JUMPDEST SWAP10 POP PUSH1 0x20 DUP12 ADD CALLDATALOAD PUSH1 0x1 PUSH1 0x1 PUSH1 0x40 SHL SUB DUP1 DUP3 GT ISZERO PUSH2 0x303F JUMPI PUSH0 DUP1 REVERT JUMPDEST PUSH2 0x304B DUP15 DUP4 DUP16 ADD PUSH2 0x2B72 JUMP JUMPDEST SWAP1 SWAP12 POP SWAP10 POP DUP10 SWAP2 POP PUSH2 0x305F PUSH1 0x40 DUP15 ADD PUSH2 0x2FE1 JUMP JUMPDEST SWAP9 POP PUSH1 0x60 DUP14 ADD CALLDATALOAD SWAP2 POP DUP1 DUP3 GT ISZERO PUSH2 0x3074 JUMPI PUSH0 DUP1 REVERT JUMPDEST PUSH2 0x3080 DUP15 DUP4 DUP16 ADD PUSH2 0x2B72 JUMP JUMPDEST SWAP1 SWAP9 POP SWAP7 POP PUSH1 0x80 DUP14 ADD CALLDATALOAD SWAP6 POP PUSH1 0xA0 DUP14 ADD CALLDATALOAD SWAP2 POP DUP1 DUP3 GT ISZERO PUSH2 0x309F JUMPI PUSH0 DUP1 REVERT JUMPDEST PUSH2 0x30AB DUP15 DUP4 DUP16 ADD PUSH2 0x2B72 JUMP JUMPDEST SWAP1 SWAP6 POP SWAP4 POP PUSH1 0xC0 DUP14 ADD CALLDATALOAD SWAP2 POP DUP1 DUP3 GT ISZERO PUSH2 0x30C3 JUMPI PUSH0 DUP1 REVERT JUMPDEST POP PUSH2 0x30D0 DUP14 DUP3 DUP15 ADD PUSH2 0x2FEC JUMP JUMPDEST SWAP2 POP POP SWAP3 SWAP6 SWAP9 SWAP12 SWAP2 SWAP5 SWAP8 SWAP11 POP SWAP3 SWAP6 SWAP9 POP JUMP JUMPDEST PUSH1 0x60 DUP2 MSTORE PUSH0 PUSH2 0x30F4 PUSH1 0x60 DUP4 ADD DUP7 PUSH2 0x2A0C JUMP JUMPDEST DUP3 DUP2 SUB PUSH1 0x20 DUP5 ADD MSTORE PUSH2 0x3106 DUP2 DUP7 PUSH2 0x2A0C JUMP JUMPDEST SWAP1 POP DUP3 DUP2 SUB PUSH1 0x40 DUP5 ADD MSTORE PUSH2 0x311A DUP2 DUP6 PUSH2 0x2A0C JUMP JUMPDEST SWAP7 SWAP6 POP POP POP POP POP POP JUMP JUMPDEST DUP1 ISZERO ISZERO DUP2 EQ PUSH2 0xB7B JUMPI PUSH0 DUP1 REVERT JUMPDEST PUSH0 DUP1 PUSH1 0x40 DUP4 DUP6 SUB SLT ISZERO PUSH2 0x3142 JUMPI PUSH0 DUP1 REVERT JUMPDEST DUP3 CALLDATALOAD PUSH2 0x314D DUP2 PUSH2 0x2995 JUMP JUMPDEST SWAP2 POP PUSH1 0x20 DUP4 ADD CALLDATALOAD PUSH2 0x315D DUP2 PUSH2 0x3124 JUMP JUMPDEST DUP1 SWAP2 POP POP SWAP3 POP SWAP3 SWAP1 POP JUMP JUMPDEST PUSH0 DUP1 PUSH0 DUP1 PUSH1 0x60 DUP6 DUP8 SUB SLT ISZERO PUSH2 0x317B JUMPI PUSH0 DUP1 REVERT JUMPDEST DUP5 CALLDATALOAD SWAP4 POP PUSH2 0x318B PUSH1 0x20 DUP7 ADD PUSH2 0x2E4A JUMP JUMPDEST SWAP3 POP PUSH1 0x40 DUP6 ADD CALLDATALOAD PUSH1 0x1 PUSH1 0x1 PUSH1 0x40 SHL SUB DUP2 GT ISZERO PUSH2 0x31A5 JUMPI PUSH0 DUP1 REVERT JUMPDEST PUSH2 0x31B1 DUP8 DUP3 DUP9 ADD PUSH2 0x2B72 JUMP JUMPDEST SWAP6 SWAP9 SWAP5 SWAP8 POP SWAP6 POP POP POP POP JUMP JUMPDEST PUSH0 DUP1 PUSH1 0x40 DUP4 DUP6 SUB SLT ISZERO PUSH2 0x31CE JUMPI PUSH0 DUP1 REVERT JUMPDEST DUP3 CALLDATALOAD PUSH2 0x31D9 DUP2 PUSH2 0x2995 JUMP JUMPDEST SWAP2 POP PUSH1 0x20 DUP4 ADD CALLDATALOAD PUSH2 0x315D DUP2 PUSH2 0x2995 JUMP JUMPDEST PUSH0 DUP1 PUSH0 DUP1 PUSH0 PUSH1 0xA0 DUP7 DUP9 SUB SLT ISZERO PUSH2 0x31FD JUMPI PUSH0 DUP1 REVERT JUMPDEST DUP6 CALLDATALOAD PUSH2 0x3208 DUP2 PUSH2 0x2995 JUMP JUMPDEST SWAP5 POP PUSH1 0x20 DUP7 ADD CALLDATALOAD PUSH2 0x3218 DUP2 PUSH2 0x2995 JUMP JUMPDEST SWAP4 POP PUSH1 0x40 DUP7 ADD CALLDATALOAD SWAP3 POP PUSH1 0x60 DUP7 ADD CALLDATALOAD SWAP2 POP PUSH1 0x80 DUP7 ADD CALLDATALOAD PUSH1 0x1 PUSH1 0x1 PUSH1 0x40 SHL SUB DUP2 GT ISZERO PUSH2 0x3240 JUMPI PUSH0 DUP1 REVERT JUMPDEST PUSH2 0x2E3D DUP9 DUP3 DUP10 ADD PUSH2 0x2D57 JUMP JUMPDEST PUSH0 DUP1 PUSH0 PUSH1 0x60 DUP5 DUP7 SUB SLT ISZERO PUSH2 0x325E JUMPI PUSH0 DUP1 REVERT JUMPDEST DUP4 CALLDATALOAD PUSH2 0x3269 DUP2 PUSH2 0x2995 JUMP JUMPDEST SWAP6 PUSH1 0x20 DUP6 ADD CALLDATALOAD SWAP6 POP PUSH1 0x40 SWAP1 SWAP5 ADD CALLDATALOAD SWAP4 SWAP3 POP POP POP JUMP JUMPDEST PUSH4 0x4E487B71 PUSH1 0xE0 SHL PUSH0 MSTORE PUSH1 0x32 PUSH1 0x4 MSTORE PUSH1 0x24 PUSH0 REVERT JUMPDEST PUSH1 0x1 DUP2 DUP2 SHR SWAP1 DUP3 AND DUP1 PUSH2 0x32A6 JUMPI PUSH1 0x7F DUP3 AND SWAP2 POP JUMPDEST PUSH1 0x20 DUP3 LT DUP2 SUB PUSH2 0x2FFC JUMPI PUSH4 0x4E487B71 PUSH1 0xE0 SHL PUSH0 MSTORE PUSH1 0x22 PUSH1 0x4 MSTORE PUSH1 0x24 PUSH0 REVERT JUMPDEST PUSH4 0x4E487B71 PUSH1 0xE0 SHL PUSH0 MSTORE PUSH1 0x11 PUSH1 0x4 MSTORE PUSH1 0x24 PUSH0 REVERT JUMPDEST PUSH0 PUSH1 0x1 DUP3 ADD PUSH2 0x32E9 JUMPI PUSH2 0x32E9 PUSH2 0x32C4 JUMP JUMPDEST POP PUSH1 0x1 ADD SWAP1 JUMP JUMPDEST DUP2 DUP2 SUB DUP2 DUP2 GT ISZERO PUSH2 0x47B JUMPI PUSH2 0x47B PUSH2 0x32C4 JUMP JUMPDEST PUSH4 0x4E487B71 PUSH1 0xE0 SHL PUSH0 MSTORE PUSH1 0x31 PUSH1 0x4 MSTORE PUSH1 0x24 PUSH0 REVERT JUMPDEST DUP2 DUP4 DUP3 CALLDATACOPY PUSH0 SWAP2 ADD SWAP1 DUP2 MSTORE SWAP2 SWAP1 POP JUMP JUMPDEST PUSH0 DUP1 DUP4 SLOAD PUSH2 0x3333 DUP2 PUSH2 0x3292 JUMP JUMPDEST PUSH1 0x1 DUP3 DUP2 AND DUP1 ISZERO PUSH2 0x334B JUMPI PUSH1 0x1 DUP2 EQ PUSH2 0x3360 JUMPI PUSH2 0x338C JUMP JUMPDEST PUSH1 0xFF NOT DUP5 AND DUP8 MSTORE DUP3 ISZERO ISZERO DUP4 MUL DUP8 ADD SWAP5 POP PUSH2 0x338C JUMP JUMPDEST DUP8 PUSH0 MSTORE PUSH1 0x20 DUP1 PUSH0 KECCAK256 PUSH0 JUMPDEST DUP6 DUP2 LT ISZERO PUSH2 0x3383 JUMPI DUP2 SLOAD DUP11 DUP3 ADD MSTORE SWAP1 DUP5 ADD SWAP1 DUP3 ADD PUSH2 0x336A JUMP JUMPDEST POP POP POP DUP3 DUP8 ADD SWAP5 POP JUMPDEST POP SWAP3 SWAP7 SWAP6 POP POP POP POP POP POP JUMP JUMPDEST DUP7 DUP2 MSTORE DUP6 PUSH1 0x20 DUP3 ADD MSTORE PUSH12 0xFFFFFFFFFFFFFFFFFFFFFFFF NOT DUP6 PUSH1 0x60 SHL AND PUSH1 0x40 DUP3 ADD MSTORE DUP3 DUP5 PUSH1 0x54 DUP4 ADD CALLDATACOPY PUSH1 0x54 SWAP3 ADD SWAP2 DUP3 ADD MSTORE PUSH1 0x74 ADD SWAP5 SWAP4 POP POP POP POP JUMP JUMPDEST PUSH0 DUP3 PUSH2 0x33ED JUMPI PUSH4 0x4E487B71 PUSH1 0xE0 SHL PUSH0 MSTORE PUSH1 0x12 PUSH1 0x4 MSTORE PUSH1 0x24 PUSH0 REVERT JUMPDEST POP MOD SWAP1 JUMP JUMPDEST DUP1 DUP3 ADD DUP1 DUP3 GT ISZERO PUSH2 0x47B JUMPI PUSH2 0x47B PUSH2 0x32C4 JUMP JUMPDEST PUSH1 0x1F DUP3 GT ISZERO PUSH2 0x13D7 JUMPI PUSH0 DUP2 DUP2 MSTORE PUSH1 0x20 DUP2 KECCAK256 PUSH1 0x1F DUP6 ADD PUSH1 0x5 SHR DUP2 ADD PUSH1 0x20 DUP7 LT ISZERO PUSH2 0x342B JUMPI POP DUP1 JUMPDEST PUSH1 0x1F DUP6 ADD PUSH1 0x5 SHR DUP3 ADD SWAP2 POP JUMPDEST DUP2 DUP2 LT ISZERO PUSH2 0xF72 JUMPI DUP3 DUP2 SSTORE PUSH1 0x1 ADD PUSH2 0x3437 JUMP JUMPDEST PUSH1 0x1 PUSH1 0x1 PUSH1 0x40 SHL SUB DUP4 GT ISZERO PUSH2 0x3461 JUMPI PUSH2 0x3461 PUSH2 0x2C3B JUMP JUMPDEST PUSH2 0x3475 DUP4 PUSH2 0x346F DUP4 SLOAD PUSH2 0x3292 JUMP JUMPDEST DUP4 PUSH2 0x3405 JUMP JUMPDEST PUSH0 PUSH1 0x1F DUP5 GT PUSH1 0x1 DUP2 EQ PUSH2 0x34A6 JUMPI PUSH0 DUP6 ISZERO PUSH2 0x348F JUMPI POP DUP4 DUP3 ADD CALLDATALOAD JUMPDEST PUSH0 NOT PUSH1 0x3 DUP8 SWAP1 SHL SHR NOT AND PUSH1 0x1 DUP7 SWAP1 SHL OR DUP4 SSTORE PUSH2 0x1C43 JUMP JUMPDEST PUSH0 DUP4 DUP2 MSTORE PUSH1 0x20 SWAP1 KECCAK256 PUSH1 0x1F NOT DUP7 AND SWAP1 DUP4 JUMPDEST DUP3 DUP2 LT ISZERO PUSH2 0x34D6 JUMPI DUP7 DUP6 ADD CALLDATALOAD DUP3 SSTORE PUSH1 0x20 SWAP5 DUP6 ADD SWAP5 PUSH1 0x1 SWAP1 SWAP3 ADD SWAP2 ADD PUSH2 0x34B6 JUMP JUMPDEST POP DUP7 DUP3 LT ISZERO PUSH2 0x34F2 JUMPI PUSH0 NOT PUSH1 0xF8 DUP9 PUSH1 0x3 SHL AND SHR NOT DUP5 DUP8 ADD CALLDATALOAD AND DUP2 SSTORE JUMPDEST POP POP PUSH1 0x1 DUP6 PUSH1 0x1 SHL ADD DUP4 SSTORE POP POP POP POP POP JUMP JUMPDEST PUSH1 0x1 PUSH1 0x1 PUSH1 0x40 SHL SUB DUP4 AND DUP2 MSTORE PUSH1 0x40 PUSH1 0x20 DUP3 ADD MSTORE PUSH0 DUP3 MLOAD PUSH1 0x60 PUSH1 0x40 DUP5 ADD MSTORE PUSH2 0x352E PUSH1 0xA0 DUP5 ADD DUP3 PUSH2 0x2A0C JUMP JUMPDEST PUSH1 0x20 DUP6 ADD MLOAD PUSH1 0x1 PUSH1 0x1 PUSH1 0xA0 SHL SUB AND PUSH1 0x60 DUP6 ADD MSTORE PUSH1 0x40 DUP6 ADD MLOAD DUP5 DUP3 SUB PUSH1 0x3F NOT ADD PUSH1 0x80 DUP7 ADD MSTORE SWAP1 SWAP2 POP PUSH2 0x311A DUP3 DUP3 PUSH2 0x2A0C JUMP JUMPDEST PUSH0 DUP1 DUP4 CALLDATALOAD PUSH1 0x1E NOT DUP5 CALLDATASIZE SUB ADD DUP2 SLT PUSH2 0x3574 JUMPI PUSH0 DUP1 REVERT JUMPDEST DUP4 ADD DUP1 CALLDATALOAD SWAP2 POP PUSH1 0x1 PUSH1 0x1 PUSH1 0x40 SHL SUB DUP3 GT ISZERO PUSH2 0x358D JUMPI PUSH0 DUP1 REVERT JUMPDEST PUSH1 0x20 ADD SWAP2 POP CALLDATASIZE DUP2 SWAP1 SUB DUP3 SGT ISZERO PUSH2 0x2BAF JUMPI PUSH0 DUP1 REVERT JUMPDEST DUP2 MLOAD PUSH1 0x1 PUSH1 0x1 PUSH1 0x40 SHL SUB DUP2 GT ISZERO PUSH2 0x35BA JUMPI PUSH2 0x35BA PUSH2 0x2C3B JUMP JUMPDEST PUSH2 0x35CE DUP2 PUSH2 0x35C8 DUP5 SLOAD PUSH2 0x3292 JUMP JUMPDEST DUP5 PUSH2 0x3405 JUMP JUMPDEST PUSH1 0x20 DUP1 PUSH1 0x1F DUP4 GT PUSH1 0x1 DUP2 EQ PUSH2 0x3601 JUMPI PUSH0 DUP5 ISZERO PUSH2 0x35EA JUMPI POP DUP6 DUP4 ADD MLOAD JUMPDEST PUSH0 NOT PUSH1 0x3 DUP7 SWAP1 SHL SHR NOT AND PUSH1 0x1 DUP6 SWAP1 SHL OR DUP6 SSTORE PUSH2 0xF72 JUMP JUMPDEST PUSH0 DUP6 DUP2 MSTORE PUSH1 0x20 DUP2 KECCAK256 PUSH1 0x1F NOT DUP7 AND SWAP2 JUMPDEST DUP3 DUP2 LT ISZERO PUSH2 0x362F JUMPI DUP9 DUP7 ADD MLOAD DUP3 SSTORE SWAP5 DUP5 ADD SWAP5 PUSH1 0x1 SWAP1 SWAP2 ADD SWAP1 DUP5 ADD PUSH2 0x3610 JUMP JUMPDEST POP DUP6 DUP3 LT ISZERO PUSH2 0x364C JUMPI DUP8 DUP6 ADD MLOAD PUSH0 NOT PUSH1 0x3 DUP9 SWAP1 SHL PUSH1 0xF8 AND SHR NOT AND DUP2 SSTORE JUMPDEST POP POP POP POP POP PUSH1 0x1 SWAP1 DUP2 SHL ADD SWAP1 SSTORE POP JUMP JUMPDEST PUSH0 PUSH1 0x20 DUP1 DUP4 DUP6 SUB SLT ISZERO PUSH2 0x366D JUMPI PUSH0 DUP1 REVERT JUMPDEST DUP3 MLOAD PUSH1 0x1 PUSH1 0x1 PUSH1 0x40 SHL SUB DUP1 DUP3 GT ISZERO PUSH2 0x3683 JUMPI PUSH0 DUP1 REVERT JUMPDEST SWAP1 DUP5 ADD SWAP1 PUSH1 0x80 DUP3 DUP8 SUB SLT ISZERO PUSH2 0x3696 JUMPI PUSH0 DUP1 REVERT JUMPDEST PUSH2 0x369E PUSH2 0x2C4F JUMP JUMPDEST DUP3 MLOAD PUSH2 0x36A9 DUP2 PUSH2 0x3124 JUMP JUMPDEST DUP2 MSTORE DUP3 DUP5 ADD MLOAD DUP3 DUP2 GT ISZERO PUSH2 0x36BB JUMPI PUSH0 DUP1 REVERT JUMPDEST DUP4 ADD SWAP2 POP PUSH1 0x1F DUP3 ADD DUP8 SGT PUSH2 0x36CD JUMPI PUSH0 DUP1 REVERT JUMPDEST DUP2 MLOAD PUSH2 0x36DB PUSH2 0x2CE8 DUP3 PUSH2 0x2D31 JUMP JUMPDEST DUP2 DUP2 MSTORE DUP9 DUP7 DUP4 DUP7 ADD ADD GT ISZERO PUSH2 0x36EE JUMPI PUSH0 DUP1 REVERT JUMPDEST PUSH2 0x36FD DUP3 DUP8 DUP4 ADD DUP9 DUP8 ADD PUSH2 0x29EA JUMP JUMPDEST DUP1 DUP7 DUP5 ADD MSTORE POP POP PUSH1 0x40 DUP4 ADD MLOAD PUSH1 0x40 DUP3 ADD MSTORE PUSH1 0x60 DUP4 ADD MLOAD PUSH1 0x60 DUP3 ADD MSTORE DUP1 SWAP5 POP POP POP POP POP SWAP3 SWAP2 POP POP JUMP JUMPDEST PUSH1 0x40 DUP2 MSTORE PUSH0 PUSH2 0x3737 PUSH1 0x40 DUP4 ADD DUP6 PUSH2 0x2F96 JUMP JUMPDEST DUP3 DUP2 SUB PUSH1 0x20 DUP5 ADD MSTORE PUSH2 0x3749 DUP2 DUP6 PUSH2 0x2F96 JUMP JUMPDEST SWAP6 SWAP5 POP POP POP POP POP JUMP JUMPDEST PUSH1 0x1 PUSH1 0x1 PUSH1 0xA0 SHL SUB DUP7 DUP2 AND DUP3 MSTORE DUP6 AND PUSH1 0x20 DUP3 ADD MSTORE PUSH1 0x40 DUP2 ADD DUP5 SWAP1 MSTORE PUSH1 0x60 DUP2 ADD DUP4 SWAP1 MSTORE PUSH1 0xA0 PUSH1 0x80 DUP3 ADD DUP2 SWAP1 MSTORE PUSH0 SWAP1 PUSH2 0x378B SWAP1 DUP4 ADD DUP5 PUSH2 0x2A0C JUMP JUMPDEST SWAP8 SWAP7 POP POP POP POP POP POP POP JUMP JUMPDEST PUSH0 PUSH1 0x20 DUP3 DUP5 SUB SLT ISZERO PUSH2 0x37A6 JUMPI PUSH0 DUP1 REVERT JUMPDEST DUP2 MLOAD PUSH2 0x1CD0 DUP2 PUSH2 0x2B15 JUMP JUMPDEST PUSH1 0x1 PUSH1 0x1 PUSH1 0xA0 SHL SUB DUP7 DUP2 AND DUP3 MSTORE DUP6 AND PUSH1 0x20 DUP3 ADD MSTORE PUSH1 0xA0 PUSH1 0x40 DUP3 ADD DUP2 SWAP1 MSTORE PUSH0 SWAP1 PUSH2 0x37DC SWAP1 DUP4 ADD DUP7 PUSH2 0x2F96 JUMP JUMPDEST DUP3 DUP2 SUB PUSH1 0x60 DUP5 ADD MSTORE PUSH2 0x37EE DUP2 DUP7 PUSH2 0x2F96 JUMP JUMPDEST SWAP1 POP DUP3 DUP2 SUB PUSH1 0x80 DUP5 ADD MSTORE PUSH2 0x3802 DUP2 DUP6 PUSH2 0x2A0C JUMP JUMPDEST SWAP9 SWAP8 POP POP POP POP POP POP POP POP JUMP INVALID LOG2 PUSH5 0x6970667358 0x22 SLT KECCAK256 MOD XOR PUSH10 0x6CAEFF1A1584A201D54E 0xDD EXP 0xDE 0x5E 0x28 STOP 0xF6 PREVRANDAO 0xC2 0xBB PUSH9 0x779A91CD3914169C64 PUSH20 0x6F6C634300081400330000000000000000000000 "
	},
	"Assembly": ".code\n  PUSH 80\t\t\tcontract PMUniversalVerifier i...\n  PUSH 40\t\t\tcontract PMUniversalVerifier i...\n  MSTORE \t\t\tcontract PMUniversalVerifier i...\n  CALLVALUE \t\t\ttructor(UniversalVerifier veri...\n  DUP1 \t\t\ttructor(UniversalVerifier veri...\n  ISZERO \t\t\ttructor(UniversalVerifier veri...\n  PUSH [tag] 1\t\t\ttructor(UniversalVerifier veri...\n  JUMPI \t\t\ttructor(UniversalVerifier veri...\n  PUSH 0\t\t\ttructor(UniversalVerifier veri...\n  DUP1 \t\t\ttructor(UniversalVerifier veri...\n  REVERT \t\t\ttructor(UniversalVerifier veri...\ntag 1\t\t\ttructor(UniversalVerifier veri...\n  JUMPDEST \t\t\ttructor(UniversalVerifier veri...\n  POP \t\t\ttructor(UniversalVerifier veri...\n  PUSH 40\t\t\ttructor(UniversalVerifier veri...\n  MLOAD \t\t\ttructor(UniversalVerifier veri...\n  PUSHSIZE \t\t\ttructor(UniversalVerifier veri...\n  CODESIZE \t\t\ttructor(UniversalVerifier veri...\n  SUB \t\t\ttructor(UniversalVerifier veri...\n  DUP1 \t\t\ttructor(UniversalVerifier veri...\n  PUSHSIZE \t\t\ttructor(UniversalVerifier veri...\n  DUP4 \t\t\ttructor(UniversalVerifier veri...\n  CODECOPY \t\t\ttructor(UniversalVerifier veri...\n  DUP2 \t\t\ttructor(UniversalVerifier veri...\n  ADD \t\t\ttructor(UniversalVerifier veri...\n  PUSH 40\t\t\ttructor(UniversalVerifier veri...\n  DUP2 \t\t\ttructor(UniversalVerifier veri...\n  SWAP1 \t\t\ttructor(UniversalVerifier veri...\n  MSTORE \t\t\ttructor(UniversalVerifier veri...\n  PUSH [tag] 2\t\t\ttructor(UniversalVerifier veri...\n  SWAP2 \t\t\ttructor(UniversalVerifier veri...\n  PUSH [tag] 3\t\t\ttructor(UniversalVerifier veri...\n  JUMP \t\t\ttructor(UniversalVerifier veri...\ntag 2\t\t\ttructor(UniversalVerifier veri...\n  JUMPDEST \t\t\ttructor(UniversalVerifier veri...\n  DUP2 \t\t\tialOwner)\\r\\n \n  DUP2 \t\t\t)\\r\\n \n  PUSH [tag] 8\t\t\to add an admi\n  DUP2 \t\t\t)\\r\\n \n  PUSH [tag] 9\t\t\to add a\n  JUMP \t\t\to add an admi\ntag 8\t\t\to add an admi\n  JUMPDEST \t\t\to add an admi\n  POP \t\t\t\n  PUSH 1\t\t\t\n  PUSH 1\t\t\t\n  PUSH A0\t\t\t\n  SHL \t\t\t\n  SUB \t\t\t\n  DUP2 \t\t\t\\n    // Function to add an\n  AND \t\t\t\\n    // Function to add an\n  PUSH [tag] 11\t\t\t}\\r\\n\\r\\n    // Function to ad...\n  JUMPI \t\t\t}\\r\\n\\r\\n    // Function to ad...\n  PUSH 40\t\t\te owner can add.\\r\\n    functi...\n  MLOAD \t\t\te owner can add.\\r\\n    functi...\n  PUSH 1E4FBDF7\t\t\t\n  PUSH E0\t\t\t\n  SHL \t\t\t\n  DUP2 \t\t\te owner can add.\\r\\n    functi...\n  MSTORE \t\t\te owner can add.\\r\\n    functi...\n  PUSH 0\t\t\to\n  PUSH 4\t\t\te owner can add.\\r\\n    functi...\n  DUP3 \t\t\te owner can add.\\r\\n    functi...\n  ADD \t\t\te owner can add.\\r\\n    functi...\n  MSTORE \t\t\t          admins[i] = admins[l...\n  PUSH 24\t\t\tins[i] == _admin) \n  ADD \t\t\tins[i] == _admin) \n  PUSH 40\t\t\te owner can add.\\r\\n    functi...\n  MLOAD \t\t\te owner can add.\\r\\n    functi...\n  DUP1 \t\t\te owner can add.\\r\\n    functi...\n  SWAP2 \t\t\te owner can add.\\r\\n    functi...\n  SUB \t\t\te owner can add.\\r\\n    functi...\n  SWAP1 \t\t\te owner can add.\\r\\n    functi...\n  REVERT \t\t\te owner can add.\\r\\n    functi...\ntag 11\t\t\t}\\r\\n\\r\\n    // Function to ad...\n  JUMPDEST \t\t\t}\\r\\n\\r\\n    // Function to ad...\n  PUSH [tag] 14\t\t\tmin) public onlyOwner {\\r\\n   ...\n  DUP2 \t\t\ter {\\r\\n      \n  PUSH [tag] 15\t\t\tmin) public onlyOw\n  JUMP \t\t\tmin) public onlyOwner {\\r\\n   ...\ntag 14\t\t\tmin) public onlyOwner {\\r\\n   ...\n  JUMPDEST \t\t\tmin) public onlyOwner {\\r\\n   ...\n  POP \t\t\t\n  POP \t\t\t\n  PUSH B\t\t\tfier = v\n  DUP1 \t\t\tfier = verifier_;\\r\\n \n  SLOAD \t\t\tfier = verifier_;\\r\\n \n  PUSH 1\t\t\t\n  PUSH 1\t\t\t\n  PUSH A0\t\t\t\n  SHL \t\t\t\n  SUB \t\t\t\n  NOT \t\t\t\n  AND \t\t\tfier = verifier_;\\r\\n \n  PUSH 1\t\t\t\n  PUSH 1\t\t\t\n  PUSH A0\t\t\t\n  SHL \t\t\t\n  SUB \t\t\t\n  SWAP4 \t\t\tfier = verifier_;\\r\\n \n  SWAP1 \t\t\tfier = verifier_;\\r\\n \n  SWAP4 \t\t\tfier = verifier_;\\r\\n \n  AND \t\t\tfier = verifier_;\\r\\n \n  SWAP3 \t\t\tfier = verifier_;\\r\\n \n  SWAP1 \t\t\tfier = verifier_;\\r\\n \n  SWAP3 \t\t\tfier = verifier_;\\r\\n \n  OR \t\t\tfier = verifier_;\\r\\n \n  SWAP1 \t\t\tfier = verifier_;\\r\\n \n  SWAP2 \t\t\tfier = verifier_;\\r\\n \n  SSTORE \t\t\tfier = verifier_;\\r\\n \n  POP \t\t\t\n  PUSH [tag] 28\t\t\tcontract PMUniversalVerifier i...\n  JUMP \t\t\tcontract PMUniversalVerifier i...\ntag 9\t\t\t     }\\r\\n            } else i...\n  JUMPDEST \t\t\t     }\\r\\n            } else i...\n  PUSH 2\t\t\t(byt\n  PUSH [tag] 19\t\t\t(bytes(\"recei\n  DUP3 \t\t\t\"recei\n  DUP3 \t\t\t(byt\n  PUSH [tag] 20\t\t\t(bytes(\"recei\n  JUMP \t\t\t(bytes(\"recei\ntag 19\t\t\t(bytes(\"recei\n  JUMPDEST \t\t\t(bytes(\"recei\n  POP \t\t\t(bytes(\"recei\n  POP \t\t\t     }\\r\\n            } else i...\n  JUMP \t\t\t     }\\r\\n            } else i...\ntag 15\t\t\tofRequest_role;\\r\\n\\r\\n    // ...\n  JUMPDEST \t\t\tofRequest_role;\\r\\n\\r\\n    // ...\n  PUSH 3\t\t\ttion {\n  DUP1 \t\t\ttion {\n  SLOAD \t\t\ttion {\n  PUSH 1\t\t\t\n  PUSH 1\t\t\t\n  PUSH A0\t\t\t\n  SHL \t\t\t\n  SUB \t\t\t\n  DUP4 \t\t\tstring attribute;\n  DUP2 \t\t\tstring attribute;\n  AND \t\t\tstring attribute;\n  PUSH 1\t\t\t\n  PUSH 1\t\t\t\n  PUSH A0\t\t\t\n  SHL \t\t\t\n  SUB \t\t\t\n  NOT \t\t\t\n  DUP4 \t\t\tstring attribute;\n  AND \t\t\tstring attribute;\n  DUP2 \t\t\tstring attribute;\n  OR \t\t\tstring attribute;\n  SWAP1 \t\t\tstring attribute;\n  SWAP4 \t\t\tstring attribute;\n  SSTORE \t\t\tstring attribute;\n  PUSH 40\t\t\tg operatorStr;\\r\\n        stri...\n  MLOAD \t\t\tg operatorStr;\\r\\n        stri...\n  SWAP2 \t\t\ttion {\n  AND \t\t\ttion {\n  SWAP2 \t\t\ttion {\n  SWAP1 \t\t\tstring attribute;\n  DUP3 \t\t\ttion {\n  SWAP1 \t\t\ttion {\n  PUSH 8BE0079C531659141344CD1FD0A4F28419497F9722A3DAAFE3B4186F6B6457E0\t\t\tg operatorStr;\\r\\n        stri...\n  SWAP1 \t\t\tg operatorStr;\\r\\n        stri...\n  PUSH 0\t\t\ttruct SpendingCo\n  SWAP1 \t\t\ttruct SpendingCo\n  LOG3 \t\t\tg operatorStr;\\r\\n        stri...\n  POP \t\t\tion\\r\\n    struct SpendingCond...\n  POP \t\t\tofRequest_role;\\r\\n\\r\\n    // ...\n  JUMP \t\t\tofRequest_role;\\r\\n\\r\\n    // ...\ntag 22\t\t\te-IDentifier: MIT\\r\\npragma so...\n  JUMPDEST \t\t\te-IDentifier: MIT\\r\\npragma so...\n  PUSH 1\t\t\t\n  PUSH 1\t\t\t\n  PUSH A0\t\t\t\n  SHL \t\t\t\n  SUB \t\t\t\n  DUP2 \t\t\twnable.sol\";\\r\\nimport {ERC115...\n  AND \t\t\twnable.sol\";\\r\\nimport {ERC115...\n  DUP2 \t\t\ts/access/Ownable.sol\";\\r\\nimpo...\n  EQ \t\t\ts/access/Ownable.sol\";\\r\\nimpo...\n  PUSH [tag] 30\t\t\tn/contracts/access/Ownable.sol...\n  JUMPI \t\t\tn/contracts/access/Ownable.sol...\n  PUSH 0\t\t\te\n  DUP1 \t\t\te\n  REVERT \t\t\t'@openzeppel\ntag 30\t\t\tn/contracts/access/Ownable.sol...\n  JUMPDEST \t\t\tn/contracts/access/Ownable.sol...\n  POP \t\t\te-IDentifier: MIT\\r\\npragma so...\n  JUMP \t\t\te-IDentifier: MIT\\r\\npragma so...\ntag 23\t\t\ttoken/ERC1155/ERC1155.sol';\\r\\...\n  JUMPDEST \t\t\ttoken/ERC1155/ERC1155.sol';\\r\\...\n  PUSH 4E487B71\t\t\t '@iden3/c\n  PUSH E0\t\t\t fr\n  SHL \t\t\tils} from '@iden3/co\n  PUSH 0\t\t\te\n  MSTORE \t\t\ttiveTypeUtils} from '@iden3/co...\n  PUSH 41\t\t\teTyp\n  PUSH 4\t\t\tt\n  MSTORE \t\t\tb/PrimitiveType\n  PUSH 24\t\t\t {IC\n  PUSH 0\t\t\to\n  REVERT \t\t\t';\\r\\nimport {ICi\ntag 3\t\t\ttor} from '@iden3/contracts/in...\n  JUMPDEST \t\t\ttor} from '@iden3/contracts/in...\n  PUSH 0\t\t\ts/Embe\n  DUP1 \t\t\tedZKPV\n  PUSH 0\t\t\tifier.\n  PUSH 60\t\t\tco\n  DUP5 \t\t\trom '@ide\n  DUP7 \t\t\trifier}\n  SUB \t\t\talVerifier} from '@iden\n  SLT \t\t\tversalVerifier} from '@iden3/c...\n  ISZERO \t\t\tUniversalVerifier} from '@iden...\n  PUSH [tag] 33\t\t\tUniversalVerifier} from '@iden...\n  JUMPI \t\t\tUniversalVerifier} from '@iden...\n  PUSH 0\t\t\te\n  DUP1 \t\t\ti\n  REVERT \t\t\tcts/verifier\ntag 33\t\t\tUniversalVerifier} from '@iden...\n  JUMPDEST \t\t\tUniversalVerifier} from '@iden...\n  DUP4 \t\t\tort \"@ope\n  MLOAD \t\t\t;\\r\\nimport \"@open\n  PUSH [tag] 34\t\t\tcontracts/utils/structs/Enumer...\n  DUP2 \t\t\t\\nimpo\n  PUSH [tag] 22\t\t\tcontracts/utils/structs/Enumer...\n  JUMP \t\t\tcontracts/utils/structs/Enumer...\ntag 34\t\t\tcontracts/utils/structs/Enumer...\n  JUMPDEST \t\t\tcontracts/utils/structs/Enumer...\n  DUP1 \t\t\tfrom \n  SWAP4 \t\t\terifier } from \n  POP \t\t\terifier } from \n  POP \t\t\terifier } from \n  PUSH 20\t\t\tnt\n  DUP1 \t\t\ter\n  DUP6 \t\t\tract PMUn\n  ADD \t\t\tcontract PMUnivers\n  MLOAD \t\t\t';\\r\\n\\r\\ncontract PMUniversa\n  PUSH [tag] 35\t\t\t is ERC1155, Ownable {\\r\\n    ...\n  DUP2 \t\t\te admin\n  PUSH [tag] 22\t\t\t is ERC1155, Ownable {\\r\\n    ...\n  JUMP \t\t\t is ERC1155, Ownable {\\r\\n    ...\ntag 35\t\t\t is ERC1155, Ownable {\\r\\n    ...\n  JUMPDEST \t\t\t is ERC1155, Ownable {\\r\\n    ...\n  PUSH 40\t\t\t o\n  DUP7 \t\t\tcallable by the ow\n  ADD \t\t\tcallable by the ow\n  MLOAD \t\t\t only callable by the own\n  SWAP1 \t\t\tfunctio\n  SWAP4 \t\t\tfunctio\n  POP \t\t\t\n  PUSH 1\t\t\t\n  PUSH 1\t\t\t\n  PUSH 40\t\t\t\n  SHL \t\t\t\n  SUB \t\t\t\n  DUP1 \t\t\ter returns (ad\n  DUP3 \t\t\ter returns (ad\n  GT \t\t\ter returns (ad\n  ISZERO \t\t\tOwner returns (address[] memor...\n  PUSH [tag] 36\t\t\tOwner returns (address[] memor...\n  JUMPI \t\t\tOwner returns (address[] memor...\n  PUSH 0\t\t\ty\n  DUP1 \t\t\tm\n  REVERT \t\t\tss[] memory)\ntag 36\t\t\tOwner returns (address[] memor...\n  JUMPDEST \t\t\tOwner returns (address[] memor...\n  DUP2 \t\t\t\\n    /\n  DUP8 \t\t\t;\\r\\n    }\\r\n  ADD \t\t\tmins;\\r\\n    }\\r\\n\\r\\n    //\n  SWAP2 \t\t\t return admins;\\r\\n    }\\r\\n\\r...\n  POP \t\t\t return admins;\\r\\n    }\\r\\n\\r...\n  DUP8 \t\t\tan addr\n  PUSH 1F\t\t\teck \n  DUP4 \t\t\to \n  ADD \t\t\ton to check i\n  SLT \t\t\tnction to check if an addre\n  PUSH [tag] 37\t\t\t helper function to check if a...\n  JUMPI \t\t\t helper function to check if a...\n  PUSH 0\t\t\t.\n  DUP1 \t\t\tm\n  REVERT \t\t\ts an admin.\\r\ntag 37\t\t\t helper function to check if a...\n  JUMPDEST \t\t\t helper function to check if a...\n  DUP2 \t\t\tes\n  MLOAD \t\t\tn(address\n  DUP2 \t\t\tie\n  DUP2 \t\t\tal\n  GT \t\t\ternal view\n  ISZERO \t\t\tinternal view returns (bool) {...\n  PUSH [tag] 39\t\t\tinternal view returns (bool) {...\n  JUMPI \t\t\tinternal view returns (bool) {...\n  PUSH [tag] 39\t\t\tturns (bool) {\\r\\n  \n  PUSH [tag] 23\t\t\tturns (bool) {\\r\\n  \n  JUMP \t\t\tturns (bool) {\\r\\n  \ntag 39\t\t\tturns (bool) {\\r\\n  \n  JUMPDEST \t\t\tturns (bool) {\\r\\n  \n  PUSH 40\t\t\t  \n  MLOAD \t\t\t         \n  PUSH 1F\t\t\t< \n  DUP3 \t\t\tn true;\\r\\n    \n  ADD \t\t\tn true;\\r\\n    \n  PUSH 1F\t\t\t\n  NOT \t\t\t\n  SWAP1 \t\t\teturn true;\\r\\n         \n  DUP2 \t\t\teturn true;\\r\\n         \n  AND \t\t\teturn true;\\r\\n         \n  PUSH 3F\t\t\t }\n  ADD \t\t\t   return true;\\r\\n           ...\n  AND \t\t\t       return true;\\r\\n       ...\n  DUP2 \t\t\t{\\r\\n                return tr...\n  ADD \t\t\t{\\r\\n                return tr...\n  SWAP1 \t\t\t{\\r\\n                return tr...\n  DUP4 \t\t\teturn false;\\r\\n    \n  DUP3 \t\t\teturn false;\\r\\n    \n  GT \t\t\teturn false;\\r\\n    \n  DUP2 \t\t\t\\n\\r\\n    // Function to \n  DUP4 \t\t\t\\n\\r\\n    // Function to \n  LT \t\t\t\\n\\r\\n    // Function to \n  OR \t\t\t  return false;\\r\\n    }\\r\\n\\r...\n  ISZERO \t\t\t     return false;\\r\\n    }\\r\\...\n  PUSH [tag] 41\t\t\t     return false;\\r\\n    }\\r\\...\n  JUMPI \t\t\t     return false;\\r\\n    }\\r\\...\n  PUSH [tag] 41\t\t\tan admin address. \n  PUSH [tag] 23\t\t\tan admin address. \n  JUMP \t\t\tan admin address. \ntag 41\t\t\tan admin address. \n  JUMPDEST \t\t\tan admin address. \n  DUP2 \t\t\t.\\r\\n    fun\n  PUSH 40\t\t\t a\n  MSTORE \t\t\tner can add.\\r\\n    func\n  DUP3 \t\t\tdm\n  DUP2 \t\t\tdress \n  MSTORE \t\t\tdmin(address _admi\n  DUP11 \t\t\te(_admi\n  DUP7 \t\t\teq\n  DUP5 \t\t\t  \n  DUP8 \t\t\t  \n  ADD \t\t\t {\\r\\n       \n  ADD \t\t\twner {\\r\\n        requ\n  GT \t\t\tlyOwner {\\r\\n        require(_...\n  ISZERO \t\t\t onlyOwner {\\r\\n        requir...\n  PUSH [tag] 42\t\t\t onlyOwner {\\r\\n        requir...\n  JUMPI \t\t\t onlyOwner {\\r\\n        requir...\n  PUSH 0\t\t\t)\n  DUP1 \t\t\ts\n  REVERT \t\t\t address(0),\ntag 42\t\t\t onlyOwner {\\r\\n        requir...\n  JUMPDEST \t\t\t onlyOwner {\\r\\n        requir...\n  PUSH 0\t\t\t\\r\n  SWAP4 \t\t\tddress\");\\r\n  POP \t\t\tddress\");\\r\ntag 43\t\t\trequire(!_isAdmin(_admin), \"Ad...\n  JUMPDEST \t\t\trequire(!_isAdmin(_admin), \"Ad...\n  DUP3 \t\t\tmi\n  DUP5 \t\t\ts\n  LT \t\t\t!_isAdmin\n  ISZERO \t\t\trequire(!_isAdmin(_admin), \"Ad...\n  PUSH [tag] 45\t\t\trequire(!_isAdmin(_admin), \"Ad...\n  JUMPI \t\t\trequire(!_isAdmin(_admin), \"Ad...\n  DUP5 \t\t\t // Functi\n  DUP5 \t\t\t // Functi\n  ADD \t\t\t // Functi\n  DUP7 \t\t\t\\n    // Function to\n  ADD \t\t\t\\n    // Function to\n  MLOAD \t\t\t  }\\r\\n\\r\\n    // Function to \n  DUP2 \t\t\tins.push(_admi\n  DUP6 \t\t\tins.push(_admi\n  ADD \t\t\tins.push(_admi\n  DUP8 \t\t\t admins.push(_admin);\\r\\n\n  ADD \t\t\t admins.push(_admin);\\r\\n\n  MSTORE \t\t\t        admins.push(_admin);\\r...\n  SWAP3 \t\t\t, \"Address\n  DUP6 \t\t\t, \"Address\n  ADD \t\t\t, \"Address\n  SWAP3 \t\t\t, \"Address\n  PUSH [tag] 43\t\t\trequire(!_isAdmin(_admin), \"Ad...\n  JUMP \t\t\trequire(!_isAdmin(_admin), \"Ad...\ntag 45\t\t\trequire(!_isAdmin(_admin), \"Ad...\n  JUMPDEST \t\t\trequire(!_isAdmin(_admin), \"Ad...\n  PUSH 0\t\t\t \n  DUP7 \t\t\tve\n  DUP5 \t\t\t r\n  DUP4 \t\t\twner c\n  ADD \t\t\the owner can re\n  ADD \t\t\tly the owner can remove.\n  MSTORE \t\t\tess. Only the owner can remove...\n  DUP1 \t\t\tmin(ad\n  SWAP7 \t\t\tn removeAdmin(ad\n  POP \t\t\tn removeAdmin(ad\n  POP \t\t\tn removeAdmin(ad\n  POP \t\t\tn removeAdmin(ad\n  POP \t\t\tn removeAdmin(ad\n  POP \t\t\tn removeAdmin(ad\n  POP \t\t\tn removeAdmin(ad\n  POP \t\t\tn removeAdmin(ad\n  SWAP3 \t\t\ttor} from '@iden3/contracts/in...\n  POP \t\t\ttor} from '@iden3/contracts/in...\n  SWAP3 \t\t\ttor} from '@iden3/contracts/in...\n  POP \t\t\ttor} from '@iden3/contracts/in...\n  SWAP3 \t\t\ttor} from '@iden3/contracts/in...\n  JUMP \t\t\ttor} from '@iden3/contracts/in...\ntag 24\t\t\t.pop();\\r\\n                ret...\n  JUMPDEST \t\t\t.pop();\\r\\n                ret...\n  PUSH 1\t\t\ti\n  DUP2 \t\t\t\"Admin not f\n  DUP2 \t\t\t\"Admin not f\n  SHR \t\t\t\"Admin not f\n  SWAP1 \t\t\t\"Admin not f\n  DUP3 \t\t\to restrict f\n  AND \t\t\to restrict f\n  DUP1 \t\t\to restrict f\n  PUSH [tag] 48\t\t\tto only addresses in the admin...\n  JUMPI \t\t\tto only addresses in the admin...\n  PUSH 7F\t\t\tyAdm\n  DUP3 \t\t\tfier o\n  AND \t\t\tmodifier onlyAdmi\n  SWAP2 \t\t\tist.\\r\\n    modifier onlyAdmi\n  POP \t\t\tist.\\r\\n    modifier onlyAdmi\ntag 48\t\t\tto only addresses in the admin...\n  JUMPDEST \t\t\tto only addresses in the admin...\n  PUSH 20\t\t\tll\n  DUP3 \t\t\ter), \"\n  LT \t\t\tender), \"Calle\n  DUP2 \t\t\tquire(_isAdmin(msg\n  SUB \t\t\t require(_isAdmin(msg.sender),...\n  PUSH [tag] 49\t\t\t    require(_isAdmin(msg.sende...\n  JUMPI \t\t\t    require(_isAdmin(msg.sende...\n  PUSH 4E487B71\t\t\t    using \n  PUSH E0\t\t\t}\\r\\n\n  SHL \t\t\t    }\\r\\n\\r\\n    using E\n  PUSH 0\t\t\t;\n  MSTORE \t\t\t      _;\\r\\n    }\\r\\n\\r\\n    u...\n  PUSH 22\t\t\tbleS\n  PUSH 4\t\t\te\n  MSTORE \t\t\tor EnumerableSe\n  PUSH 24\t\t\tset \n  PUSH 0\t\t\t \n  REVERT \t\t\t\\n    // A set o\ntag 49\t\t\t    require(_isAdmin(msg.sende...\n  JUMPDEST \t\t\t    require(_isAdmin(msg.sende...\n  POP \t\t\t    require(_isAdmin(msg.sende...\n  SWAP2 \t\t\t.pop();\\r\\n                ret...\n  SWAP1 \t\t\t.pop();\\r\\n                ret...\n  POP \t\t\t.pop();\\r\\n                ret...\n  JUMP \t\t\t.pop();\\r\\n                ret...\ntag 26\t\t\tver minted\\r\\n    function all...\n  JUMPDEST \t\t\tver minted\\r\\n    function all...\n  PUSH 1F\t\t\tTo\n  DUP3 \t\t\t _a\n  GT \t\t\turn _allTok\n  ISZERO \t\t\treturn _allTokenIDs.values();\\...\n  PUSH [tag] 52\t\t\treturn _allTokenIDs.values();\\...\n  JUMPI \t\t\treturn _allTokenIDs.values();\\...\n  PUSH 0\t\t\tM\n  DUP2 \t\t\tits n\n  DUP2 \t\t\t t\n  MSTORE \t\t\token ID to its na\n  PUSH 20\t\t\tutes\n  DUP2 \t\t\ttr\n  KECCAK256 \t\t\td other attributes \n  PUSH 1F\t\t\tnN\n  DUP6 \t\t\t public to\n  ADD \t\t\ting) public tokenNa\n  PUSH 5\t\t\ts\n  SHR \t\t\t => string) public tokenNam\n  DUP2 \t\t\tint2\n  ADD \t\t\tng(uint256 => string) public t...\n  PUSH 20\t\t\tnID \n  DUP7 \t\t\tng from to\n  LT \t\t\tpping from tokenID t\n  ISZERO \t\t\t Mapping from tokenID to proof...\n  PUSH [tag] 53\t\t\t Mapping from tokenID to proof...\n  JUMPI \t\t\t Mapping from tokenID to proof...\n  POP \t\t\t\n  DUP1 \t\t\t to \ntag 53\t\t\t Mapping from tokenID to proof...\n  JUMPDEST \t\t\t Mapping from tokenID to proof...\n  PUSH 1F\t\t\t  \n  DUP6 \t\t\t).\\r\n  ADD \t\t\tver').\\r\\n    \n  PUSH 5\t\t\tc\n  SHR \t\t\t 'receiver').\\r\\n    /\n  DUP3 \t\t\ter' \n  ADD \t\t\tsender' or 'receiver').\\r\\n   ...\n  SWAP2 \t\t\ta string 'sender' or 'receiver...\n  POP \t\t\ta string 'sender' or 'receiver...\ntag 54\t\t\t')\\r\\n    mapping(uint256 => m...\n  JUMPDEST \t\t\t')\\r\\n    mapping(uint256 => m...\n  DUP2 \t\t\tnt\n  DUP2 \t\t\tping(\n  LT \t\t\tmapping(uint2\n  ISZERO \t\t\t')\\r\\n    mapping(uint256 => m...\n  PUSH [tag] 56\t\t\t')\\r\\n    mapping(uint256 => m...\n  JUMPI \t\t\t')\\r\\n    mapping(uint256 => m...\n  DUP3 \t\t\tkenID_proofReques\n  DUP2 \t\t\tkenID_proofReques\n  SSTORE \t\t\tkenID_proofReques\n  PUSH 1\t\t\t \n  ADD \t\t\tg(uint64 => s\n  PUSH [tag] 54\t\t\t')\\r\\n    mapping(uint256 => m...\n  JUMP \t\t\t')\\r\\n    mapping(uint256 => m...\ntag 56\t\t\t')\\r\\n    mapping(uint256 => m...\n  JUMPDEST \t\t\t')\\r\\n    mapping(uint256 => m...\n  POP \t\t\t   \n  POP \t\t\t   \n  POP \t\t\t   \ntag 52\t\t\treturn _allTokenIDs.values();\\...\n  JUMPDEST \t\t\treturn _allTokenIDs.values();\\...\n  POP \t\t\tver minted\\r\\n    function all...\n  POP \t\t\tver minted\\r\\n    function all...\n  POP \t\t\tver minted\\r\\n    function all...\n  JUMP \t\t\tver minted\\r\\n    function all...\ntag 20\t\t\t from tokenID to proofRequestI...\n  JUMPDEST \t\t\t from tokenID to proofRequestI...\n  DUP2 \t\t\ting(uint25\n  MLOAD \t\t\ting(uint25\n  PUSH 1\t\t\t\n  PUSH 1\t\t\t\n  PUSH 40\t\t\t\n  SHL \t\t\t\n  SUB \t\t\t\n  DUP2 \t\t\t(uint64 => SpendingCondition))\n  GT \t\t\t(uint64 => SpendingCondition))\n  ISZERO \t\t\ting(uint64 => SpendingConditio...\n  PUSH [tag] 60\t\t\ting(uint64 => SpendingConditio...\n  JUMPI \t\t\ting(uint64 => SpendingConditio...\n  PUSH [tag] 60\t\t\tblic spendingCondi\n  PUSH [tag] 23\t\t\tblic spendingCondi\n  JUMP \t\t\tblic spendingCondi\ntag 60\t\t\tblic spendingCondi\n  JUMPDEST \t\t\tblic spendingCondi\n  PUSH [tag] 61\t\t\t   // An array to store proof_...\n  DUP2 \t\t\tquestI\n  PUSH [tag] 62\t\t\t iteration.\\r\\n    uint64[] pu...\n  DUP5 \t\t\t pro\n  SLOAD \t\t\tpublic proo\n  PUSH [tag] 24\t\t\t iteration.\\r\\n    uint64[] pu...\n  JUMP \t\t\t iteration.\\r\\n    uint64[] pu...\ntag 62\t\t\t iteration.\\r\\n    uint64[] pu...\n  JUMPDEST \t\t\t iteration.\\r\\n    uint64[] pu...\n  DUP5 \t\t\tly f\n  PUSH [tag] 26\t\t\t   // An array to store proof_...\n  JUMP \t\t\t   // An array to store proof_...\ntag 61\t\t\t   // An array to store proof_...\n  JUMPDEST \t\t\t   // An array to store proof_...\n  PUSH 20\t\t\tor a\n  DUP1 \t\t\tor a\n  PUSH 1F\t\t\tok\n  DUP4 \t\t\ts(uint256 toke\n  GT \t\t\ts(uint256 toke\n  PUSH 1\t\t\tv\n  DUP2 \t\t\trnal view returns (uint64[] me...\n  EQ \t\t\trnal view returns (uint64[] me...\n  PUSH [tag] 64\t\t\trnal view returns (uint64[] me...\n  JUMPI \t\t\trnal view returns (uint64[] me...\n  PUSH 0\t\t\ti\n  DUP5 \t\t\t[i]].a\n  ISZERO \t\t\tids[i]].attribute).length > 0)...\n  PUSH [tag] 65\t\t\tids[i]].attribute).length > 0)...\n  JUMPI \t\t\tids[i]].attribute).length > 0)...\n  POP \t\t\t\n  DUP6 \t\t\tredIDs[idx] = ids[i\n  DUP4 \t\t\tredIDs[idx] = ids[i\n  ADD \t\t\tredIDs[idx] = ids[i\n  MLOAD \t\t\t filteredIDs[idx] = ids[i]\ntag 65\t\t\tids[i]].attribute).length > 0)...\n  JUMPDEST \t\t\tids[i]].attribute).length > 0)...\n  PUSH 0\t\t\t\n  NOT \t\t\t\n  PUSH 3\t\t\t \n  DUP7 \t\t\t\\n        st\n  SWAP1 \t\t\t\\n        st\n  SHL \t\t\t\\n        st\n  SHR \t\t\ttr;\\r\\n        string valu\n  NOT \t\t\ttorStr;\\r\\n        string valu...\n  AND \t\t\tring operatorStr;\\r\\n        s...\n  PUSH 1\t\t\t}\n  DUP6 \t\t\t    }\\r\\n\\r\\n  \n  SWAP1 \t\t\t    }\\r\\n\\r\\n  \n  SHL \t\t\t    }\\r\\n\\r\\n  \n  OR \t\t\t string operatorStr;\\r\\n      ...\n  DUP6 \t\t\tns[idx] = spendingConditions[t...\n  SSTORE \t\t\tns[idx] = spendingConditions[t...\n  PUSH [tag] 56\t\t\tnditions(uint256 tokenID) exte...\n  JUMP \t\t\tnditions(uint256 tokenID) exte...\ntag 64\t\t\trnal view returns (uint64[] me...\n  JUMPDEST \t\t\trnal view returns (uint64[] me...\n  PUSH 0\t\t\t\\n\n  DUP6 \t\t\tIDs;\\r\\n\\r\\n    //\n  DUP2 \t\t\tIDs;\\r\\n\\r\\n    //\n  MSTORE \t\t\tIDs;\\r\\n\\r\\n    //\n  PUSH 20\t\t\tt of\n  DUP2 \t\t\t the full list of \n  KECCAK256 \t\t\t the full list of \n  PUSH 1F\t\t\t\n  NOT \t\t\t\n  DUP7 \t\t\tSpendingCondition[] \n  AND \t\t\tSpendingCondition[] \n  SWAP2 \t\t\tSpendingCondition[] \ntag 68\t\t\tFirst, count how many proofReq...\n  JUMPDEST \t\t\tFirst, count how many proofReq...\n  DUP3 \t\t\tow many\n  DUP2 \t\t\tt\n  LT \t\t\tount how many \n  ISZERO \t\t\tFirst, count how many proofReq...\n  PUSH [tag] 70\t\t\tFirst, count how many proofReq...\n  JUMPI \t\t\tFirst, count how many proofReq...\n  DUP9 \t\t\t ids.length; i++) {\n  DUP7 \t\t\t ids.length; i++) {\n  ADD \t\t\t ids.length; i++) {\n  MLOAD \t\t\t0; i < ids.length; i++) {\\r\n  DUP3 \t\t\tr (uint256 i = 0; i < ids.leng...\n  SSTORE \t\t\tr (uint256 i = 0; i < ids.leng...\n  SWAP5 \t\t\tngth > 0) {\\r\\n              \n  DUP5 \t\t\tngth > 0) {\\r\\n              \n  ADD \t\t\tngth > 0) {\\r\\n              \n  SWAP5 \t\t\tngth > 0) {\\r\\n              \n  PUSH 1\t\t\ts\n  SWAP1 \t\t\tingConditions[\n  SWAP2 \t\t\tingConditions[\n  ADD \t\t\tingConditions[\n  SWAP1 \t\t\tingConditions[\n  DUP5 \t\t\tuestIDs are associa\n  ADD \t\t\tuestIDs are associa\n  PUSH [tag] 68\t\t\tFirst, count how many proofReq...\n  JUMP \t\t\tFirst, count how many proofReq...\ntag 70\t\t\tFirst, count how many proofReq...\n  JUMPDEST \t\t\tFirst, count how many proofReq...\n  POP \t\t\tt, \n  DUP6 \t\t\t    //\n  DUP3 \t\t\t  }\\r\\n  \n  LT \t\t\t     }\\r\\n        // \n  ISZERO \t\t\t        }\\r\\n        // Prepar...\n  PUSH [tag] 71\t\t\t        }\\r\\n        // Prepar...\n  JUMPI \t\t\t        }\\r\\n        // Prepar...\n  DUP8 \t\t\tteredIDs = new uint\n  DUP6 \t\t\tteredIDs = new uint\n  ADD \t\t\tteredIDs = new uint\n  MLOAD \t\t\try filteredIDs = new uint6\n  PUSH 0\t\t\t\n  NOT \t\t\t\n  PUSH 3\t\t\tw\n  DUP9 \t\t\t= new Spending\n  SWAP1 \t\t\t= new Spending\n  SHL \t\t\t= new Spending\n  PUSH F8\t\t\tndi\n  AND \t\t\tons = new SpendingCondit\n  SHR \t\t\tditions = new SpendingConditio...\n  NOT \t\t\t conditions = new SpendingCond...\n  AND \t\t\tdition[] memory conditions = n...\n  DUP2 \t\t\t    SpendingCondition[] memory...\n  SSTORE \t\t\t    SpendingCondition[] memory...\ntag 71\t\t\t        }\\r\\n        // Prepar...\n  JUMPDEST \t\t\t        }\\r\\n        // Prepar...\n  POP \t\t\t\n  POP \t\t\t\n  POP \t\t\t\n  POP \t\t\t\n  POP \t\t\t\n  PUSH 1\t\t\t \n  SWAP1 \t\t\tnt256 i = 0; i\n  DUP2 \t\t\tnt256 i = 0; i\n  SHL \t\t\tnt256 i = 0; i\n  ADD \t\t\t (uint256 i = 0; i < i\n  SWAP1 \t\t\t\\r\\n        for (uint256 i = 0...\n  SSTORE \t\t\t\\r\\n        for (uint256 i = 0...\n  POP \t\t\t\n  JUMP \t\t\t from tokenID to proofRequestI...\ntag 28\t\t\t from tokenID to proofRequestI...\n  JUMPDEST \t\t\t from tokenID to proofRequestI...\n  PUSH #[$] 0000000000000000000000000000000000000000000000000000000000000000\t\t\tcontract PMUniversalVerifier i...\n  DUP1 \t\t\tcontract PMUniversalVerifier i...\n  PUSH [$] 0000000000000000000000000000000000000000000000000000000000000000\t\t\tcontract PMUniversalVerifier i...\n  PUSH 0\t\t\tcontract PMUniversalVerifier i...\n  CODECOPY \t\t\tcontract PMUniversalVerifier i...\n  PUSH 0\t\t\tcontract PMUniversalVerifier i...\n  RETURN \t\t\tcontract PMUniversalVerifier i...\n.data\n  0:\n    .code\n      PUSH 80\t\t\tcontract PMUniversalVerifier i...\n      PUSH 40\t\t\tcontract PMUniversalVerifier i...\n      MSTORE \t\t\tcontract PMUniversalVerifier i...\n      CALLVALUE \t\t\tcontract PMUniversalVerifier i...\n      DUP1 \t\t\tcontract PMUniversalVerifier i...\n      ISZERO \t\t\tcontract PMUniversalVerifier i...\n      PUSH [tag] 1\t\t\tcontract PMUniversalVerifier i...\n      JUMPI \t\t\tcontract PMUniversalVerifier i...\n      PUSH 0\t\t\tcontract PMUniversalVerifier i...\n      DUP1 \t\t\tcontract PMUniversalVerifier i...\n      REVERT \t\t\tcontract PMUniversalVerifier i...\n    tag 1\t\t\tcontract PMUniversalVerifier i...\n      JUMPDEST \t\t\tcontract PMUniversalVerifier i...\n      POP \t\t\tcontract PMUniversalVerifier i...\n      PUSH 4\t\t\tcontract PMUniversalVerifier i...\n      CALLDATASIZE \t\t\tcontract PMUniversalVerifier i...\n      LT \t\t\tcontract PMUniversalVerifier i...\n      PUSH [tag] 2\t\t\tcontract PMUniversalVerifier i...\n      JUMPI \t\t\tcontract PMUniversalVerifier i...\n      PUSH 0\t\t\tcontract PMUniversalVerifier i...\n      CALLDATALOAD \t\t\tcontract PMUniversalVerifier i...\n      PUSH E0\t\t\tcontract PMUniversalVerifier i...\n      SHR \t\t\tcontract PMUniversalVerifier i...\n      DUP1 \t\t\tcontract PMUniversalVerifier i...\n      PUSH 7330DD84\t\t\tcontract PMUniversalVerifier i...\n      GT \t\t\tcontract PMUniversalVerifier i...\n      PUSH [tag] 31\t\t\tcontract PMUniversalVerifier i...\n      JUMPI \t\t\tcontract PMUniversalVerifier i...\n      DUP1 \t\t\tcontract PMUniversalVerifier i...\n      PUSH CF5219AD\t\t\tcontract PMUniversalVerifier i...\n      GT \t\t\tcontract PMUniversalVerifier i...\n      PUSH [tag] 32\t\t\tcontract PMUniversalVerifier i...\n      JUMPI \t\t\tcontract PMUniversalVerifier i...\n      DUP1 \t\t\tcontract PMUniversalVerifier i...\n      PUSH E985E9C5\t\t\tcontract PMUniversalVerifier i...\n      GT \t\t\tcontract PMUniversalVerifier i...\n      PUSH [tag] 33\t\t\tcontract PMUniversalVerifier i...\n      JUMPI \t\t\tcontract PMUniversalVerifier i...\n      DUP1 \t\t\tcontract PMUniversalVerifier i...\n      PUSH E985E9C5\t\t\tcontract PMUniversalVerifier i...\n      EQ \t\t\tcontract PMUniversalVerifier i...\n      PUSH [tag] 27\t\t\tcontract PMUniversalVerifier i...\n      JUMPI \t\t\tcontract PMUniversalVerifier i...\n      DUP1 \t\t\tcontract PMUniversalVerifier i...\n      PUSH F242432A\t\t\tcontract PMUniversalVerifier i...\n      EQ \t\t\tcontract PMUniversalVerifier i...\n      PUSH [tag] 28\t\t\tcontract PMUniversalVerifier i...\n      JUMPI \t\t\tcontract PMUniversalVerifier i...\n      DUP1 \t\t\tcontract PMUniversalVerifier i...\n      PUSH F2FDE38B\t\t\tcontract PMUniversalVerifier i...\n      EQ \t\t\tcontract PMUniversalVerifier i...\n      PUSH [tag] 29\t\t\tcontract PMUniversalVerifier i...\n      JUMPI \t\t\tcontract PMUniversalVerifier i...\n      DUP1 \t\t\tcontract PMUniversalVerifier i...\n      PUSH F5298ACA\t\t\tcontract PMUniversalVerifier i...\n      EQ \t\t\tcontract PMUniversalVerifier i...\n      PUSH [tag] 30\t\t\tcontract PMUniversalVerifier i...\n      JUMPI \t\t\tcontract PMUniversalVerifier i...\n      PUSH 0\t\t\tcontract PMUniversalVerifier i...\n      DUP1 \t\t\tcontract PMUniversalVerifier i...\n      REVERT \t\t\tcontract PMUniversalVerifier i...\n    tag 33\t\t\tcontract PMUniversalVerifier i...\n      JUMPDEST \t\t\tcontract PMUniversalVerifier i...\n      DUP1 \t\t\tcontract PMUniversalVerifier i...\n      PUSH CF5219AD\t\t\tcontract PMUniversalVerifier i...\n      EQ \t\t\tcontract PMUniversalVerifier i...\n      PUSH [tag] 24\t\t\tcontract PMUniversalVerifier i...\n      JUMPI \t\t\tcontract PMUniversalVerifier i...\n      DUP1 \t\t\tcontract PMUniversalVerifier i...\n      PUSH D121CDC0\t\t\tcontract PMUniversalVerifier i...\n      EQ \t\t\tcontract PMUniversalVerifier i...\n      PUSH [tag] 25\t\t\tcontract PMUniversalVerifier i...\n      JUMPI \t\t\tcontract PMUniversalVerifier i...\n      DUP1 \t\t\tcontract PMUniversalVerifier i...\n      PUSH E725F877\t\t\tcontract PMUniversalVerifier i...\n      EQ \t\t\tcontract PMUniversalVerifier i...\n      PUSH [tag] 26\t\t\tcontract PMUniversalVerifier i...\n      JUMPI \t\t\tcontract PMUniversalVerifier i...\n      PUSH 0\t\t\tcontract PMUniversalVerifier i...\n      DUP1 \t\t\tcontract PMUniversalVerifier i...\n      REVERT \t\t\tcontract PMUniversalVerifier i...\n    tag 32\t\t\tcontract PMUniversalVerifier i...\n      JUMPDEST \t\t\tcontract PMUniversalVerifier i...\n      DUP1 \t\t\tcontract PMUniversalVerifier i...\n      PUSH 8DA5CB5B\t\t\tcontract PMUniversalVerifier i...\n      GT \t\t\tcontract PMUniversalVerifier i...\n      PUSH [tag] 34\t\t\tcontract PMUniversalVerifier i...\n      JUMPI \t\t\tcontract PMUniversalVerifier i...\n      DUP1 \t\t\tcontract PMUniversalVerifier i...\n      PUSH 8DA5CB5B\t\t\tcontract PMUniversalVerifier i...\n      EQ \t\t\tcontract PMUniversalVerifier i...\n      PUSH [tag] 20\t\t\tcontract PMUniversalVerifier i...\n      JUMPI \t\t\tcontract PMUniversalVerifier i...\n      DUP1 \t\t\tcontract PMUniversalVerifier i...\n      PUSH 8ED46CFD\t\t\tcontract PMUniversalVerifier i...\n      EQ \t\t\tcontract PMUniversalVerifier i...\n      PUSH [tag] 21\t\t\tcontract PMUniversalVerifier i...\n      JUMPI \t\t\tcontract PMUniversalVerifier i...\n      DUP1 \t\t\tcontract PMUniversalVerifier i...\n      PUSH A22CB465\t\t\tcontract PMUniversalVerifier i...\n      EQ \t\t\tcontract PMUniversalVerifier i...\n      PUSH [tag] 22\t\t\tcontract PMUniversalVerifier i...\n      JUMPI \t\t\tcontract PMUniversalVerifier i...\n      DUP1 \t\t\tcontract PMUniversalVerifier i...\n      PUSH C1F95913\t\t\tcontract PMUniversalVerifier i...\n      EQ \t\t\tcontract PMUniversalVerifier i...\n      PUSH [tag] 23\t\t\tcontract PMUniversalVerifier i...\n      JUMPI \t\t\tcontract PMUniversalVerifier i...\n      PUSH 0\t\t\tcontract PMUniversalVerifier i...\n      DUP1 \t\t\tcontract PMUniversalVerifier i...\n      REVERT \t\t\tcontract PMUniversalVerifier i...\n    tag 34\t\t\tcontract PMUniversalVerifier i...\n      JUMPDEST \t\t\tcontract PMUniversalVerifier i...\n      DUP1 \t\t\tcontract PMUniversalVerifier i...\n      PUSH 7330DD84\t\t\tcontract PMUniversalVerifier i...\n      EQ \t\t\tcontract PMUniversalVerifier i...\n      PUSH [tag] 17\t\t\tcontract PMUniversalVerifier i...\n      JUMPI \t\t\tcontract PMUniversalVerifier i...\n      DUP1 \t\t\tcontract PMUniversalVerifier i...\n      PUSH 7578B248\t\t\tcontract PMUniversalVerifier i...\n      EQ \t\t\tcontract PMUniversalVerifier i...\n      PUSH [tag] 18\t\t\tcontract PMUniversalVerifier i...\n      JUMPI \t\t\tcontract PMUniversalVerifier i...\n      DUP1 \t\t\tcontract PMUniversalVerifier i...\n      PUSH 784008CE\t\t\tcontract PMUniversalVerifier i...\n      EQ \t\t\tcontract PMUniversalVerifier i...\n      PUSH [tag] 19\t\t\tcontract PMUniversalVerifier i...\n      JUMPI \t\t\tcontract PMUniversalVerifier i...\n      PUSH 0\t\t\tcontract PMUniversalVerifier i...\n      DUP1 \t\t\tcontract PMUniversalVerifier i...\n      REVERT \t\t\tcontract PMUniversalVerifier i...\n    tag 31\t\t\tcontract PMUniversalVerifier i...\n      JUMPDEST \t\t\tcontract PMUniversalVerifier i...\n      DUP1 \t\t\tcontract PMUniversalVerifier i...\n      PUSH 2EB2C2D6\t\t\tcontract PMUniversalVerifier i...\n      GT \t\t\tcontract PMUniversalVerifier i...\n      PUSH [tag] 35\t\t\tcontract PMUniversalVerifier i...\n      JUMPI \t\t\tcontract PMUniversalVerifier i...\n      DUP1 \t\t\tcontract PMUniversalVerifier i...\n      PUSH 4E1273F4\t\t\tcontract PMUniversalVerifier i...\n      GT \t\t\tcontract PMUniversalVerifier i...\n      PUSH [tag] 36\t\t\tcontract PMUniversalVerifier i...\n      JUMPI \t\t\tcontract PMUniversalVerifier i...\n      DUP1 \t\t\tcontract PMUniversalVerifier i...\n      PUSH 4E1273F4\t\t\tcontract PMUniversalVerifier i...\n      EQ \t\t\tcontract PMUniversalVerifier i...\n      PUSH [tag] 13\t\t\tcontract PMUniversalVerifier i...\n      JUMPI \t\t\tcontract PMUniversalVerifier i...\n      DUP1 \t\t\tcontract PMUniversalVerifier i...\n      PUSH 50FBDB2D\t\t\tcontract PMUniversalVerifier i...\n      EQ \t\t\tcontract PMUniversalVerifier i...\n      PUSH [tag] 14\t\t\tcontract PMUniversalVerifier i...\n      JUMPI \t\t\tcontract PMUniversalVerifier i...\n      DUP1 \t\t\tcontract PMUniversalVerifier i...\n      PUSH 70480275\t\t\tcontract PMUniversalVerifier i...\n      EQ \t\t\tcontract PMUniversalVerifier i...\n      PUSH [tag] 15\t\t\tcontract PMUniversalVerifier i...\n      JUMPI \t\t\tcontract PMUniversalVerifier i...\n      DUP1 \t\t\tcontract PMUniversalVerifier i...\n      PUSH 715018A6\t\t\tcontract PMUniversalVerifier i...\n      EQ \t\t\tcontract PMUniversalVerifier i...\n      PUSH [tag] 16\t\t\tcontract PMUniversalVerifier i...\n      JUMPI \t\t\tcontract PMUniversalVerifier i...\n      PUSH 0\t\t\tcontract PMUniversalVerifier i...\n      DUP1 \t\t\tcontract PMUniversalVerifier i...\n      REVERT \t\t\tcontract PMUniversalVerifier i...\n    tag 36\t\t\tcontract PMUniversalVerifier i...\n      JUMPDEST \t\t\tcontract PMUniversalVerifier i...\n      DUP1 \t\t\tcontract PMUniversalVerifier i...\n      PUSH 2EB2C2D6\t\t\tcontract PMUniversalVerifier i...\n      EQ \t\t\tcontract PMUniversalVerifier i...\n      PUSH [tag] 10\t\t\tcontract PMUniversalVerifier i...\n      JUMPI \t\t\tcontract PMUniversalVerifier i...\n      DUP1 \t\t\tcontract PMUniversalVerifier i...\n      PUSH 2F4955F6\t\t\tcontract PMUniversalVerifier i...\n      EQ \t\t\tcontract PMUniversalVerifier i...\n      PUSH [tag] 11\t\t\tcontract PMUniversalVerifier i...\n      JUMPI \t\t\tcontract PMUniversalVerifier i...\n      DUP1 \t\t\tcontract PMUniversalVerifier i...\n      PUSH 31AE450B\t\t\tcontract PMUniversalVerifier i...\n      EQ \t\t\tcontract PMUniversalVerifier i...\n      PUSH [tag] 12\t\t\tcontract PMUniversalVerifier i...\n      JUMPI \t\t\tcontract PMUniversalVerifier i...\n      PUSH 0\t\t\tcontract PMUniversalVerifier i...\n      DUP1 \t\t\tcontract PMUniversalVerifier i...\n      REVERT \t\t\tcontract PMUniversalVerifier i...\n    tag 35\t\t\tcontract PMUniversalVerifier i...\n      JUMPDEST \t\t\tcontract PMUniversalVerifier i...\n      DUP1 \t\t\tcontract PMUniversalVerifier i...\n      PUSH E89341C\t\t\tcontract PMUniversalVerifier i...\n      GT \t\t\tcontract PMUniversalVerifier i...\n      PUSH [tag] 37\t\t\tcontract PMUniversalVerifier i...\n      JUMPI \t\t\tcontract PMUniversalVerifier i...\n      DUP1 \t\t\tcontract PMUniversalVerifier i...\n      PUSH E89341C\t\t\tcontract PMUniversalVerifier i...\n      EQ \t\t\tcontract PMUniversalVerifier i...\n      PUSH [tag] 6\t\t\tcontract PMUniversalVerifier i...\n      JUMPI \t\t\tcontract PMUniversalVerifier i...\n      DUP1 \t\t\tcontract PMUniversalVerifier i...\n      PUSH 1785F53C\t\t\tcontract PMUniversalVerifier i...\n      EQ \t\t\tcontract PMUniversalVerifier i...\n      PUSH [tag] 7\t\t\tcontract PMUniversalVerifier i...\n      JUMPI \t\t\tcontract PMUniversalVerifier i...\n      DUP1 \t\t\tcontract PMUniversalVerifier i...\n      PUSH 2B7AC3F3\t\t\tcontract PMUniversalVerifier i...\n      EQ \t\t\tcontract PMUniversalVerifier i...\n      PUSH [tag] 8\t\t\tcontract PMUniversalVerifier i...\n      JUMPI \t\t\tcontract PMUniversalVerifier i...\n      DUP1 \t\t\tcontract PMUniversalVerifier i...\n      PUSH 2DBFF950\t\t\tcontract PMUniversalVerifier i...\n      EQ \t\t\tcontract PMUniversalVerifier i...\n      PUSH [tag] 9\t\t\tcontract PMUniversalVerifier i...\n      JUMPI \t\t\tcontract PMUniversalVerifier i...\n      PUSH 0\t\t\tcontract PMUniversalVerifier i...\n      DUP1 \t\t\tcontract PMUniversalVerifier i...\n      REVERT \t\t\tcontract PMUniversalVerifier i...\n    tag 37\t\t\tcontract PMUniversalVerifier i...\n      JUMPDEST \t\t\tcontract PMUniversalVerifier i...\n      DUP1 \t\t\tcontract PMUniversalVerifier i...\n      PUSH FDD58E\t\t\tcontract PMUniversalVerifier i...\n      EQ \t\t\tcontract PMUniversalVerifier i...\n      PUSH [tag] 3\t\t\tcontract PMUniversalVerifier i...\n      JUMPI \t\t\tcontract PMUniversalVerifier i...\n      DUP1 \t\t\tcontract PMUniversalVerifier i...\n      PUSH 1843A14\t\t\tcontract PMUniversalVerifier i...\n      EQ \t\t\tcontract PMUniversalVerifier i...\n      PUSH [tag] 4\t\t\tcontract PMUniversalVerifier i...\n      JUMPI \t\t\tcontract PMUniversalVerifier i...\n      DUP1 \t\t\tcontract PMUniversalVerifier i...\n      PUSH 1FFC9A7\t\t\tcontract PMUniversalVerifier i...\n      EQ \t\t\tcontract PMUniversalVerifier i...\n      PUSH [tag] 5\t\t\tcontract PMUniversalVerifier i...\n      JUMPI \t\t\tcontract PMUniversalVerifier i...\n    tag 2\t\t\tcontract PMUniversalVerifier i...\n      JUMPDEST \t\t\tcontract PMUniversalVerifier i...\n      PUSH 0\t\t\tcontract PMUniversalVerifier i...\n      DUP1 \t\t\tcontract PMUniversalVerifier i...\n      REVERT \t\t\tcontract PMUniversalVerifier i...\n    tag 3\t\t\tof all token IDs that have eve...\n      JUMPDEST \t\t\tof all token IDs that have eve...\n      PUSH [tag] 38\t\t\tof all token IDs that have eve...\n      PUSH [tag] 39\t\t\tof all token IDs that have eve...\n      CALLDATASIZE \t\t\tof all token IDs that have eve...\n      PUSH 4\t\t\tof all token IDs that have eve...\n      PUSH [tag] 40\t\t\tof all token IDs that have eve...\n      JUMP \t\t\tof all token IDs that have eve...\n    tag 39\t\t\tof all token IDs that have eve...\n      JUMPDEST \t\t\tof all token IDs that have eve...\n      PUSH [tag] 41\t\t\tof all token IDs that have eve...\n      JUMP \t\t\tof all token IDs that have eve...\n    tag 38\t\t\tof all token IDs that have eve...\n      JUMPDEST \t\t\tof all token IDs that have eve...\n      PUSH 40\t\t\tof all token IDs that have eve...\n      MLOAD \t\t\tof all token IDs that have eve...\n      SWAP1 \t\t\tZKPVerifier } from '@iden\n      DUP2 \t\t\tZKPVerifier } from '@iden\n      MSTORE \t\t\tZKPVerifier } from '@iden\n      PUSH 20\t\t\t\\r\\n\n      ADD \t\t\terableSet.sol\";\\r\\ni\n    tag 42\t\t\tof all token IDs that have eve...\n      JUMPDEST \t\t\tof all token IDs that have eve...\n      PUSH 40\t\t\tof all token IDs that have eve...\n      MLOAD \t\t\tof all token IDs that have eve...\n      DUP1 \t\t\tof all token IDs that have eve...\n      SWAP2 \t\t\tof all token IDs that have eve...\n      SUB \t\t\tof all token IDs that have eve...\n      SWAP1 \t\t\tof all token IDs that have eve...\n      RETURN \t\t\tof all token IDs that have eve...\n    tag 4\t\t\ttion getSpendingConditions(uin...\n      JUMPDEST \t\t\ttion getSpendingConditions(uin...\n      PUSH [tag] 44\t\t\ttion getSpendingConditions(uin...\n      PUSH [tag] 45\t\t\ttion getSpendingConditions(uin...\n      CALLDATASIZE \t\t\ttion getSpendingConditions(uin...\n      PUSH 4\t\t\ttion getSpendingConditions(uin...\n      PUSH [tag] 46\t\t\ttion getSpendingConditions(uin...\n      JUMP \t\t\ttion getSpendingConditions(uin...\n    tag 45\t\t\ttion getSpendingConditions(uin...\n      JUMPDEST \t\t\ttion getSpendingConditions(uin...\n      PUSH [tag] 47\t\t\ttion getSpendingConditions(uin...\n      JUMP \t\t\ttion getSpendingConditions(uin...\n    tag 44\t\t\ttion getSpendingConditions(uin...\n      JUMPDEST \t\t\ttion getSpendingConditions(uin...\n      PUSH 40\t\t\ttion getSpendingConditions(uin...\n      MLOAD \t\t\ttion getSpendingConditions(uin...\n      PUSH [tag] 42\t\t\ttion getSpendingConditions(uin...\n      SWAP3 \t\t\ttion getSpendingConditions(uin...\n      SWAP2 \t\t\ttion getSpendingConditions(uin...\n      SWAP1 \t\t\ttion getSpendingConditions(uin...\n      PUSH [tag] 49\t\t\ttion getSpendingConditions(uin...\n      JUMP \t\t\ttion getSpendingConditions(uin...\n    tag 5\t\t\tpublic onlyOwner {\\r\\n        ...\n      JUMPDEST \t\t\tpublic onlyOwner {\\r\\n        ...\n      PUSH [tag] 50\t\t\tpublic onlyOwner {\\r\\n        ...\n      PUSH [tag] 51\t\t\tpublic onlyOwner {\\r\\n        ...\n      CALLDATASIZE \t\t\tpublic onlyOwner {\\r\\n        ...\n      PUSH 4\t\t\tpublic onlyOwner {\\r\\n        ...\n      PUSH [tag] 52\t\t\tpublic onlyOwner {\\r\\n        ...\n      JUMP \t\t\tpublic onlyOwner {\\r\\n        ...\n    tag 51\t\t\tpublic onlyOwner {\\r\\n        ...\n      JUMPDEST \t\t\tpublic onlyOwner {\\r\\n        ...\n      PUSH [tag] 53\t\t\tpublic onlyOwner {\\r\\n        ...\n      JUMP \t\t\tpublic onlyOwner {\\r\\n        ...\n    tag 50\t\t\tpublic onlyOwner {\\r\\n        ...\n      JUMPDEST \t\t\tpublic onlyOwner {\\r\\n        ...\n      PUSH 40\t\t\tpublic onlyOwner {\\r\\n        ...\n      MLOAD \t\t\tpublic onlyOwner {\\r\\n        ...\n      SWAP1 \t\t\t           if \n      ISZERO \t\t\t           if \n      ISZERO \t\t\t+) {\\r\\n            if (\n      DUP2 \t\t\ti < ids.length; i++) {\\r\\n    ...\n      MSTORE \t\t\ti < ids.length; i++) {\\r\\n    ...\n      PUSH 20\t\t\tt2\n      ADD \t\t\t       for (uint25\n      PUSH [tag] 42\t\t\tpublic onlyOwner {\\r\\n        ...\n      JUMP \t\t\t\\n        uint256 count = 0;\\r...\n    tag 6\t\t\tmin() {\\r\\n        require(_is...\n      JUMPDEST \t\t\tmin() {\\r\\n        require(_is...\n      PUSH [tag] 56\t\t\tmin() {\\r\\n        require(_is...\n      PUSH [tag] 57\t\t\tmin() {\\r\\n        require(_is...\n      CALLDATASIZE \t\t\tmin() {\\r\\n        require(_is...\n      PUSH 4\t\t\tmin() {\\r\\n        require(_is...\n      PUSH [tag] 46\t\t\tmin() {\\r\\n        require(_is...\n      JUMP \t\t\tmin() {\\r\\n        require(_is...\n    tag 57\t\t\tmin() {\\r\\n        require(_is...\n      JUMPDEST \t\t\tmin() {\\r\\n        require(_is...\n      PUSH [tag] 58\t\t\tmin() {\\r\\n        require(_is...\n      JUMP \t\t\tmin() {\\r\\n        require(_is...\n    tag 56\t\t\tmin() {\\r\\n        require(_is...\n      JUMPDEST \t\t\tmin() {\\r\\n        require(_is...\n      PUSH 40\t\t\tmin() {\\r\\n        require(_is...\n      MLOAD \t\t\tmin() {\\r\\n        require(_is...\n      PUSH [tag] 42\t\t\tmin() {\\r\\n        require(_is...\n      SWAP2 \t\t\tmin() {\\r\\n        require(_is...\n      SWAP1 \t\t\tmin() {\\r\\n        require(_is...\n      PUSH [tag] 60\t\t\tmin() {\\r\\n        require(_is...\n      JUMP \t\t\tmin() {\\r\\n        require(_is...\n    tag 7\t\t\tfunction removeAdmin(address _...\n      JUMPDEST \t\t\tfunction removeAdmin(address _...\n      PUSH [tag] 61\t\t\tfunction removeAdmin(address _...\n      PUSH [tag] 62\t\t\tfunction removeAdmin(address _...\n      CALLDATASIZE \t\t\tfunction removeAdmin(address _...\n      PUSH 4\t\t\tfunction removeAdmin(address _...\n      PUSH [tag] 63\t\t\tfunction removeAdmin(address _...\n      JUMP \t\t\tfunction removeAdmin(address _...\n    tag 62\t\t\tfunction removeAdmin(address _...\n      JUMPDEST \t\t\tfunction removeAdmin(address _...\n      PUSH [tag] 64\t\t\tfunction removeAdmin(address _...\n      JUMP \t\t\tfunction removeAdmin(address _...\n    tag 61\t\t\tfunction removeAdmin(address _...\n      JUMPDEST \t\t\tfunction removeAdmin(address _...\n      STOP \t\t\tfunction removeAdmin(address _...\n    tag 8\t\t\tersalVerifier public verifier;...\n      JUMPDEST \t\t\tersalVerifier public verifier;...\n      PUSH B\t\t\tersalVerifier public verifier;...\n      SLOAD \t\t\tersalVerifier public verifier;...\n      PUSH [tag] 65\t\t\tersalVerifier public verifier;...\n      SWAP1 \t\t\tersalVerifier public verifier;...\n      PUSH 1\t\t\t\n      PUSH 1\t\t\t\n      PUSH A0\t\t\t\n      SHL \t\t\t\n      SUB \t\t\t\n      AND \t\t\tersalVerifier public verifier;...\n      DUP2 \t\t\tersalVerifier public verifier;...\n      JUMP \t\t\tersalVerifier public verifier;...\n    tag 65\t\t\tersalVerifier public verifier;...\n      JUMPDEST \t\t\tersalVerifier public verifier;...\n      PUSH 40\t\t\tersalVerifier public verifier;...\n      MLOAD \t\t\tersalVerifier public verifier;...\n      PUSH 1\t\t\t\n      PUSH 1\t\t\t\n      PUSH A0\t\t\t\n      SHL \t\t\t\n      SUB \t\t\t\n      SWAP1 \t\t\t    // Add a new proof request...\n      SWAP2 \t\t\t    // Add a new proof request...\n      AND \t\t\t    // Add a new proof request...\n      DUP2 \t\t\ttions);\\r\\n    }\\r\\n\\r\\n    //...\n      MSTORE \t\t\ttions);\\r\\n    }\\r\\n\\r\\n    //...\n      PUSH 20\t\t\ted\n      ADD \t\t\t return (filteredI\n      PUSH [tag] 42\t\t\tersalVerifier public verifier;...\n      JUMP \t\t\tidx] = ids[i];\\r\\n            ...\n    tag 9\t\t\ton mintToken(address to, uint2...\n      JUMPDEST \t\t\ton mintToken(address to, uint2...\n      PUSH [tag] 61\t\t\ton mintToken(address to, uint2...\n      PUSH [tag] 70\t\t\ton mintToken(address to, uint2...\n      CALLDATASIZE \t\t\ton mintToken(address to, uint2...\n      PUSH 4\t\t\ton mintToken(address to, uint2...\n      PUSH [tag] 71\t\t\ton mintToken(address to, uint2...\n      JUMP \t\t\ton mintToken(address to, uint2...\n    tag 70\t\t\ton mintToken(address to, uint2...\n      JUMPDEST \t\t\ton mintToken(address to, uint2...\n      PUSH [tag] 72\t\t\ton mintToken(address to, uint2...\n      JUMP \t\t\ton mintToken(address to, uint2...\n    tag 10\t\t\t safeBatchTransferFrom(\\r\\n   ...\n      JUMPDEST \t\t\t safeBatchTransferFrom(\\r\\n   ...\n      PUSH [tag] 61\t\t\t safeBatchTransferFrom(\\r\\n   ...\n      PUSH [tag] 74\t\t\t safeBatchTransferFrom(\\r\\n   ...\n      CALLDATASIZE \t\t\t safeBatchTransferFrom(\\r\\n   ...\n      PUSH 4\t\t\t safeBatchTransferFrom(\\r\\n   ...\n      PUSH [tag] 75\t\t\t safeBatchTransferFrom(\\r\\n   ...\n      JUMP \t\t\t safeBatchTransferFrom(\\r\\n   ...\n    tag 74\t\t\t safeBatchTransferFrom(\\r\\n   ...\n      JUMPDEST \t\t\t safeBatchTransferFrom(\\r\\n   ...\n      PUSH [tag] 76\t\t\t safeBatchTransferFrom(\\r\\n   ...\n      JUMP \t\t\t safeBatchTransferFrom(\\r\\n   ...\n    tag 11\t\t\ting(uint256 => mapping(uint64 ...\n      JUMPDEST \t\t\ting(uint256 => mapping(uint64 ...\n      PUSH [tag] 56\t\t\ting(uint256 => mapping(uint64 ...\n      PUSH [tag] 78\t\t\ting(uint256 => mapping(uint64 ...\n      CALLDATASIZE \t\t\ting(uint256 => mapping(uint64 ...\n      PUSH 4\t\t\ting(uint256 => mapping(uint64 ...\n      PUSH [tag] 79\t\t\ting(uint256 => mapping(uint64 ...\n      JUMP \t\t\ting(uint256 => mapping(uint64 ...\n    tag 78\t\t\ting(uint256 => mapping(uint64 ...\n      JUMPDEST \t\t\ting(uint256 => mapping(uint64 ...\n      PUSH [tag] 80\t\t\ting(uint256 => mapping(uint64 ...\n      JUMP \t\t\ting(uint256 => mapping(uint64 ...\n    tag 12\t\t\tfunction getAdmins() public vi...\n      JUMPDEST \t\t\tfunction getAdmins() public vi...\n      PUSH [tag] 82\t\t\tfunction getAdmins() public vi...\n      PUSH [tag] 83\t\t\tfunction getAdmins() public vi...\n      JUMP \t\t\tfunction getAdmins() public vi...\n    tag 82\t\t\tfunction getAdmins() public vi...\n      JUMPDEST \t\t\tfunction getAdmins() public vi...\n      PUSH 40\t\t\tfunction getAdmins() public vi...\n      MLOAD \t\t\tfunction getAdmins() public vi...\n      PUSH [tag] 42\t\t\tfunction getAdmins() public vi...\n      SWAP2 \t\t\tfunction getAdmins() public vi...\n      SWAP1 \t\t\tfunction getAdmins() public vi...\n      PUSH [tag] 85\t\t\tfunction getAdmins() public vi...\n      JUMP \t\t\tfunction getAdmins() public vi...\n    tag 13\t\t\tping from token ID to its name...\n      JUMPDEST \t\t\tping from token ID to its name...\n      PUSH [tag] 86\t\t\tping from token ID to its name...\n      PUSH [tag] 87\t\t\tping from token ID to its name...\n      CALLDATASIZE \t\t\tping from token ID to its name...\n      PUSH 4\t\t\tping from token ID to its name...\n      PUSH [tag] 88\t\t\tping from token ID to its name...\n      JUMP \t\t\tping from token ID to its name...\n    tag 87\t\t\tping from token ID to its name...\n      JUMPDEST \t\t\tping from token ID to its name...\n      PUSH [tag] 89\t\t\tping from token ID to its name...\n      JUMP \t\t\tping from token ID to its name...\n    tag 86\t\t\tping from token ID to its name...\n      JUMPDEST \t\t\tping from token ID to its name...\n      PUSH 40\t\t\tping from token ID to its name...\n      MLOAD \t\t\tping from token ID to its name...\n      PUSH [tag] 42\t\t\tping from token ID to its name...\n      SWAP2 \t\t\tping from token ID to its name...\n      SWAP1 \t\t\tping from token ID to its name...\n      PUSH [tag] 91\t\t\tping from token ID to its name...\n      JUMP \t\t\tping from token ID to its name...\n    tag 14\t\t\ttion deleteProofRequestAndRole...\n      JUMPDEST \t\t\ttion deleteProofRequestAndRole...\n      PUSH [tag] 61\t\t\ttion deleteProofRequestAndRole...\n      PUSH [tag] 93\t\t\ttion deleteProofRequestAndRole...\n      CALLDATASIZE \t\t\ttion deleteProofRequestAndRole...\n      PUSH 4\t\t\ttion deleteProofRequestAndRole...\n      PUSH [tag] 79\t\t\ttion deleteProofRequestAndRole...\n      JUMP \t\t\ttion deleteProofRequestAndRole...\n    tag 93\t\t\ttion deleteProofRequestAndRole...\n      JUMPDEST \t\t\ttion deleteProofRequestAndRole...\n      PUSH [tag] 94\t\t\ttion deleteProofRequestAndRole...\n      JUMP \t\t\ttion deleteProofRequestAndRole...\n    tag 15\t\t\tfunction addAdmin(address _adm...\n      JUMPDEST \t\t\tfunction addAdmin(address _adm...\n      PUSH [tag] 61\t\t\tfunction addAdmin(address _adm...\n      PUSH [tag] 96\t\t\tfunction addAdmin(address _adm...\n      CALLDATASIZE \t\t\tfunction addAdmin(address _adm...\n      PUSH 4\t\t\tfunction addAdmin(address _adm...\n      PUSH [tag] 63\t\t\tfunction addAdmin(address _adm...\n      JUMP \t\t\tfunction addAdmin(address _adm...\n    tag 96\t\t\tfunction addAdmin(address _adm...\n      JUMPDEST \t\t\tfunction addAdmin(address _adm...\n      PUSH [tag] 97\t\t\tfunction addAdmin(address _adm...\n      JUMP \t\t\tfunction addAdmin(address _adm...\n    tag 16\t\t\t EnumerableSet.UintSet private...\n      JUMPDEST \t\t\t EnumerableSet.UintSet private...\n      PUSH [tag] 61\t\t\t EnumerableSet.UintSet private...\n      PUSH [tag] 99\t\t\t EnumerableSet.UintSet private...\n      JUMP \t\t\t EnumerableSet.UintSet private...\n    tag 17\t\t\ttion addProofRequest_VerifierA...\n      JUMPDEST \t\t\ttion addProofRequest_VerifierA...\n      PUSH [tag] 61\t\t\ttion addProofRequest_VerifierA...\n      PUSH [tag] 101\t\t\ttion addProofRequest_VerifierA...\n      CALLDATASIZE \t\t\ttion addProofRequest_VerifierA...\n      PUSH 4\t\t\ttion addProofRequest_VerifierA...\n      PUSH [tag] 102\t\t\ttion addProofRequest_VerifierA...\n      JUMP \t\t\ttion addProofRequest_VerifierA...\n    tag 101\t\t\ttion addProofRequest_VerifierA...\n      JUMPDEST \t\t\ttion addProofRequest_VerifierA...\n      PUSH [tag] 103\t\t\ttion addProofRequest_VerifierA...\n      JUMP \t\t\ttion addProofRequest_VerifierA...\n    tag 18\t\t\tfunction allTokenIDs() externa...\n      JUMPDEST \t\t\tfunction allTokenIDs() externa...\n      PUSH [tag] 86\t\t\tfunction allTokenIDs() externa...\n      PUSH [tag] 105\t\t\tfunction allTokenIDs() externa...\n      JUMP \t\t\tfunction allTokenIDs() externa...\n    tag 19\t\t\t256 public constant fungible_t...\n      JUMPDEST \t\t\t256 public constant fungible_t...\n      PUSH [tag] 38\t\t\t256 public constant fungible_t...\n      PUSH 1\t\t\t \n      DUP2 \t\t\t256 public constant fungible_t...\n      JUMP \t\t\t256 public constant fungible_t...\n    tag 20\t\t\t  function removeAdmin(address...\n      JUMPDEST \t\t\t  function removeAdmin(address...\n      PUSH 3\t\t\tlen = \n      SLOAD \t\t\tlen = \n      PUSH 1\t\t\t\n      PUSH 1\t\t\t\n      PUSH A0\t\t\t\n      SHL \t\t\t\n      SUB \t\t\t\n      AND \t\t\tlen = \n      PUSH [tag] 65\t\t\t  function removeAdmin(address...\n      JUMP \t\t\t  function removeAdmin(address...\n    tag 21\t\t\ting(uint256 => mapping(uint64 ...\n      JUMPDEST \t\t\ting(uint256 => mapping(uint64 ...\n      PUSH [tag] 114\t\t\ting(uint256 => mapping(uint64 ...\n      PUSH [tag] 115\t\t\ting(uint256 => mapping(uint64 ...\n      CALLDATASIZE \t\t\ting(uint256 => mapping(uint64 ...\n      PUSH 4\t\t\ting(uint256 => mapping(uint64 ...\n      PUSH [tag] 79\t\t\ting(uint256 => mapping(uint64 ...\n      JUMP \t\t\ting(uint256 => mapping(uint64 ...\n    tag 115\t\t\ting(uint256 => mapping(uint64 ...\n      JUMPDEST \t\t\ting(uint256 => mapping(uint64 ...\n      PUSH [tag] 116\t\t\ting(uint256 => mapping(uint64 ...\n      JUMP \t\t\ting(uint256 => mapping(uint64 ...\n    tag 114\t\t\ting(uint256 => mapping(uint64 ...\n      JUMPDEST \t\t\ting(uint256 => mapping(uint64 ...\n      PUSH 40\t\t\ting(uint256 => mapping(uint64 ...\n      MLOAD \t\t\ting(uint256 => mapping(uint64 ...\n      PUSH [tag] 42\t\t\ting(uint256 => mapping(uint64 ...\n      SWAP4 \t\t\ting(uint256 => mapping(uint64 ...\n      SWAP3 \t\t\ting(uint256 => mapping(uint64 ...\n      SWAP2 \t\t\ting(uint256 => mapping(uint64 ...\n      SWAP1 \t\t\ting(uint256 => mapping(uint64 ...\n      PUSH [tag] 118\t\t\ting(uint256 => mapping(uint64 ...\n      JUMP \t\t\ting(uint256 => mapping(uint64 ...\n    tag 22\t\t\ting condition\\r\\n    // tokenI...\n      JUMPDEST \t\t\ting condition\\r\\n    // tokenI...\n      PUSH [tag] 61\t\t\ting condition\\r\\n    // tokenI...\n      PUSH [tag] 120\t\t\ting condition\\r\\n    // tokenI...\n      CALLDATASIZE \t\t\ting condition\\r\\n    // tokenI...\n      PUSH 4\t\t\ting condition\\r\\n    // tokenI...\n      PUSH [tag] 121\t\t\ting condition\\r\\n    // tokenI...\n      JUMP \t\t\ting condition\\r\\n    // tokenI...\n    tag 120\t\t\ting condition\\r\\n    // tokenI...\n      JUMPDEST \t\t\ting condition\\r\\n    // tokenI...\n      PUSH [tag] 122\t\t\ting condition\\r\\n    // tokenI...\n      JUMP \t\t\ting condition\\r\\n    // tokenI...\n    tag 23\t\t\ttion addProofRequestAndRole(ui...\n      JUMPDEST \t\t\ttion addProofRequestAndRole(ui...\n      PUSH [tag] 61\t\t\ttion addProofRequestAndRole(ui...\n      PUSH [tag] 124\t\t\ttion addProofRequestAndRole(ui...\n      CALLDATASIZE \t\t\ttion addProofRequestAndRole(ui...\n      PUSH 4\t\t\ttion addProofRequestAndRole(ui...\n      PUSH [tag] 125\t\t\ttion addProofRequestAndRole(ui...\n      JUMP \t\t\ttion addProofRequestAndRole(ui...\n    tag 124\t\t\ttion addProofRequestAndRole(ui...\n      JUMPDEST \t\t\ttion addProofRequestAndRole(ui...\n      PUSH [tag] 126\t\t\ttion addProofRequestAndRole(ui...\n      JUMP \t\t\ttion addProofRequestAndRole(ui...\n    tag 24\t\t\t256 public constant non_fungib...\n      JUMPDEST \t\t\t256 public constant non_fungib...\n      PUSH [tag] 38\t\t\t256 public constant non_fungib...\n      PUSH 2\t\t\t\\r\n      DUP2 \t\t\t256 public constant non_fungib...\n      JUMP \t\t\t256 public constant non_fungib...\n    tag 25\t\t\t64[] public proofRequestIDs;\\r...\n      JUMPDEST \t\t\t64[] public proofRequestIDs;\\r...\n      PUSH [tag] 130\t\t\t64[] public proofRequestIDs;\\r...\n      PUSH [tag] 131\t\t\t64[] public proofRequestIDs;\\r...\n      CALLDATASIZE \t\t\t64[] public proofRequestIDs;\\r...\n      PUSH 4\t\t\t64[] public proofRequestIDs;\\r...\n      PUSH [tag] 46\t\t\t64[] public proofRequestIDs;\\r...\n      JUMP \t\t\t64[] public proofRequestIDs;\\r...\n    tag 131\t\t\t64[] public proofRequestIDs;\\r...\n      JUMPDEST \t\t\t64[] public proofRequestIDs;\\r...\n      PUSH [tag] 132\t\t\t64[] public proofRequestIDs;\\r...\n      JUMP \t\t\t64[] public proofRequestIDs;\\r...\n    tag 130\t\t\t64[] public proofRequestIDs;\\r...\n      JUMPDEST \t\t\t64[] public proofRequestIDs;\\r...\n      PUSH 40\t\t\t64[] public proofRequestIDs;\\r...\n      MLOAD \t\t\t64[] public proofRequestIDs;\\r...\n      PUSH 1\t\t\t\n      PUSH 1\t\t\t\n      PUSH 40\t\t\t\n      SHL \t\t\t\n      SUB \t\t\t\n      SWAP1 \t\t\t\n      SWAP2 \t\t\t\n      AND \t\t\t\n      DUP2 \t\t\t\n      MSTORE \t\t\t\n      PUSH 20\t\t\t\n      ADD \t\t\t\n      PUSH [tag] 42\t\t\t64[] public proofRequestIDs;\\r...\n      JUMP \t\t\t\n    tag 26\t\t\tmapping(uint256 => string) pub...\n      JUMPDEST \t\t\tmapping(uint256 => string) pub...\n      PUSH [tag] 56\t\t\tmapping(uint256 => string) pub...\n      PUSH [tag] 136\t\t\tmapping(uint256 => string) pub...\n      CALLDATASIZE \t\t\tmapping(uint256 => string) pub...\n      PUSH 4\t\t\tmapping(uint256 => string) pub...\n      PUSH [tag] 46\t\t\tmapping(uint256 => string) pub...\n      JUMP \t\t\tmapping(uint256 => string) pub...\n    tag 136\t\t\tmapping(uint256 => string) pub...\n      JUMPDEST \t\t\tmapping(uint256 => string) pub...\n      PUSH [tag] 137\t\t\tmapping(uint256 => string) pub...\n      JUMP \t\t\tmapping(uint256 => string) pub...\n    tag 27\t\t\tfor iteration.\\r\\n    uint64[]...\n      JUMPDEST \t\t\tfor iteration.\\r\\n    uint64[]...\n      PUSH [tag] 50\t\t\tfor iteration.\\r\\n    uint64[]...\n      PUSH [tag] 140\t\t\tfor iteration.\\r\\n    uint64[]...\n      CALLDATASIZE \t\t\tfor iteration.\\r\\n    uint64[]...\n      PUSH 4\t\t\tfor iteration.\\r\\n    uint64[]...\n      PUSH [tag] 141\t\t\tfor iteration.\\r\\n    uint64[]...\n      JUMP \t\t\tfor iteration.\\r\\n    uint64[]...\n    tag 140\t\t\tfor iteration.\\r\\n    uint64[]...\n      JUMPDEST \t\t\tfor iteration.\\r\\n    uint64[]...\n      PUSH 1\t\t\t\n      PUSH 1\t\t\t\n      PUSH A0\t\t\t\n      SHL \t\t\t\n      SUB \t\t\t\n      SWAP2 \t\t\ten tokenID\\r\\n    function ge\n      DUP3 \t\t\ten tokenID\\r\\n    function ge\n      AND \t\t\ten tokenID\\r\\n    function ge\n      PUSH 0\t\t\tng c\n      SWAP1 \t\t\ten tokenID\\r\\n    function ge\n      DUP2 \t\t\ten tokenID\\r\\n    function ge\n      MSTORE \t\t\ten tokenID\\r\\n    function ge\n      PUSH 1\t\t\ten tokenID\\r\\n    fu\n      PUSH 20\t\t\ten tokenID\\r\\n    function ge\n      SWAP1 \t\t\ten tokenID\\r\\n    function ge\n      DUP2 \t\t\ten tokenID\\r\\n    function ge\n      MSTORE \t\t\ten tokenID\\r\\n    function ge\n      PUSH 40\t\t\ten tokenID\\r\\n    function ge\n      DUP1 \t\t\ten tokenID\\r\\n    function ge\n      DUP4 \t\t\ten tokenID\\r\\n    function ge\n      KECCAK256 \t\t\ten tokenID\\r\\n    function ge\n      SWAP4 \t\t\ten tokenID\\r\\n    function get...\n      SWAP1 \t\t\ten tokenID\\r\\n    function get...\n      SWAP5 \t\t\ten tokenID\\r\\n    function get...\n      AND \t\t\ten tokenID\\r\\n    function get...\n      DUP3 \t\t\ten tokenID\\r\\n    function get...\n      MSTORE \t\t\ten tokenID\\r\\n    function get...\n      SWAP2 \t\t\ten tokenID\\r\\n    function get...\n      SWAP1 \t\t\ten tokenID\\r\\n    function get...\n      SWAP2 \t\t\ten tokenID\\r\\n    function get...\n      MSTORE \t\t\ten tokenID\\r\\n    function get...\n      KECCAK256 \t\t\ten tokenID\\r\\n    function get...\n      SLOAD \t\t\ten tokenID\\r\\n    function get...\n      PUSH FF\t\t\ten tokenID\\r\\n    function get...\n      AND \t\t\ten tokenID\\r\\n    function get...\n      SWAP1 \t\t\ten tokenID\\r\\n    function get...\n      JUMP \t\t\tfor iteration.\\r\\n    uint64[]...\n    tag 28\t\t\t safeTransferFrom(\\r\\n        ...\n      JUMPDEST \t\t\t safeTransferFrom(\\r\\n        ...\n      PUSH [tag] 61\t\t\t safeTransferFrom(\\r\\n        ...\n      PUSH [tag] 145\t\t\t safeTransferFrom(\\r\\n        ...\n      CALLDATASIZE \t\t\t safeTransferFrom(\\r\\n        ...\n      PUSH 4\t\t\t safeTransferFrom(\\r\\n        ...\n      PUSH [tag] 146\t\t\t safeTransferFrom(\\r\\n        ...\n      JUMP \t\t\t safeTransferFrom(\\r\\n        ...\n    tag 145\t\t\t safeTransferFrom(\\r\\n        ...\n      JUMPDEST \t\t\t safeTransferFrom(\\r\\n        ...\n      PUSH [tag] 147\t\t\t safeTransferFrom(\\r\\n        ...\n      JUMP \t\t\t safeTransferFrom(\\r\\n        ...\n    tag 29\t\t\t token ID to its name. But the...\n      JUMPDEST \t\t\t token ID to its name. But the...\n      PUSH [tag] 61\t\t\t token ID to its name. But the...\n      PUSH [tag] 149\t\t\t token ID to its name. But the...\n      CALLDATASIZE \t\t\t token ID to its name. But the...\n      PUSH 4\t\t\t token ID to its name. But the...\n      PUSH [tag] 63\t\t\t token ID to its name. But the...\n      JUMP \t\t\t token ID to its name. But the...\n    tag 149\t\t\t token ID to its name. But the...\n      JUMPDEST \t\t\t token ID to its name. But the...\n      PUSH [tag] 150\t\t\t token ID to its name. But the...\n      JUMP \t\t\t token ID to its name. But the...\n    tag 30\t\t\t burn(address account, uint256...\n      JUMPDEST \t\t\t burn(address account, uint256...\n      PUSH [tag] 61\t\t\t burn(address account, uint256...\n      PUSH [tag] 152\t\t\t burn(address account, uint256...\n      CALLDATASIZE \t\t\t burn(address account, uint256...\n      PUSH 4\t\t\t burn(address account, uint256...\n      PUSH [tag] 153\t\t\t burn(address account, uint256...\n      JUMP \t\t\t burn(address account, uint256...\n    tag 152\t\t\t burn(address account, uint256...\n      JUMPDEST \t\t\t burn(address account, uint256...\n      PUSH [tag] 154\t\t\t burn(address account, uint256...\n      JUMP \t\t\t burn(address account, uint256...\n    tag 41\t\t\tof all token IDs that have eve...\n      JUMPDEST \t\t\tof all token IDs that have eve...\n      PUSH 0\t\t\te _allT\n      DUP2 \t\t\t @notice Retu\n      DUP2 \t\t\t @notice Retu\n      MSTORE \t\t\t @notice Retu\n      PUSH 20\t\t\t @notice Retu\n      DUP2 \t\t\t @notice Retu\n      DUP2 \t\t\t @notice Retu\n      MSTORE \t\t\t @notice Retu\n      PUSH 40\t\t\t @notice Retu\n      DUP1 \t\t\t @notice Retu\n      DUP4 \t\t\t @notice Retu\n      KECCAK256 \t\t\t @notice Retu\n      PUSH 1\t\t\t\n      PUSH 1\t\t\t\n      PUSH A0\t\t\t\n      SHL \t\t\t\n      SUB \t\t\t\n      DUP7 \t\t\t @notice Returns the f\n      AND \t\t\t @notice Returns the f\n      DUP5 \t\t\t @notice Returns the f\n      MSTORE \t\t\t @notice Returns the f\n      SWAP1 \t\t\t @notice Returns the f\n      SWAP2 \t\t\t @notice Returns the f\n      MSTORE \t\t\t @notice Returns the f\n      SWAP1 \t\t\t @notice Returns the f\n      KECCAK256 \t\t\t @notice Returns the f\n      SLOAD \t\t\t @notice Returns the f\n    tag 155\t\t\tof all token IDs that have eve...\n      JUMPDEST \t\t\tof all token IDs that have eve...\n      SWAP3 \t\t\tof all token IDs that have eve...\n      SWAP2 \t\t\tof all token IDs that have eve...\n      POP \t\t\tof all token IDs that have eve...\n      POP \t\t\tof all token IDs that have eve...\n      JUMP \t\t\tof all token IDs that have eve...\n    tag 47\t\t\ttion getSpendingConditions(uin...\n      JUMPDEST \t\t\ttion getSpendingConditions(uin...\n      PUSH 60\t\t\t64[] memory, Sp\n      DUP1 \t\t\tdingCondition[] memory) {\\r\n      PUSH 0\t\t\t64[] memory ids = p\n      PUSH A\t\t\tfRequestIDs;\\r\\n \n      DUP1 \t\t\t64[] memory ids = proofRequest...\n      SLOAD \t\t\t64[] memory ids = proofRequest...\n      DUP1 \t\t\t64[] memory ids = proofRequest...\n      PUSH 20\t\t\t64[] memory ids = proofRequest...\n      MUL \t\t\t64[] memory ids = proofRequest...\n      PUSH 20\t\t\t64[] memory ids = proofRequest...\n      ADD \t\t\t64[] memory ids = proofRequest...\n      PUSH 40\t\t\t64[] memory ids = proofRequest...\n      MLOAD \t\t\t64[] memory ids = proofRequest...\n      SWAP1 \t\t\t64[] memory ids = proofRequest...\n      DUP2 \t\t\t64[] memory ids = proofRequest...\n      ADD \t\t\t64[] memory ids = proofRequest...\n      PUSH 40\t\t\t64[] memory ids = proofRequest...\n      MSTORE \t\t\t64[] memory ids = proofRequest...\n      DUP1 \t\t\t64[] memory ids = proofRequest...\n      SWAP3 \t\t\t64[] memory ids = proofRequest...\n      SWAP2 \t\t\t64[] memory ids = proofRequest...\n      SWAP1 \t\t\t64[] memory ids = proofRequest...\n      DUP2 \t\t\t64[] memory ids = proofRequest...\n      DUP2 \t\t\t64[] memory ids = proofRequest...\n      MSTORE \t\t\t64[] memory ids = proofRequest...\n      PUSH 20\t\t\t64[] memory ids = proofRequest...\n      ADD \t\t\t64[] memory ids = proofRequest...\n      DUP3 \t\t\t64[] memory ids = proofRequest...\n      DUP1 \t\t\t64[] memory ids = proofRequest...\n      SLOAD \t\t\t64[] memory ids = proofRequest...\n      DUP1 \t\t\t64[] memory ids = proofRequest...\n      ISZERO \t\t\t64[] memory ids = proofRequest...\n      PUSH [tag] 157\t\t\t64[] memory ids = proofRequest...\n      JUMPI \t\t\t64[] memory ids = proofRequest...\n      PUSH 20\t\t\t64[] memory ids = proofRequest...\n      MUL \t\t\t64[] memory ids = proofRequest...\n      DUP3 \t\t\t64[] memory ids = proofRequest...\n      ADD \t\t\t64[] memory ids = proofRequest...\n      SWAP2 \t\t\t64[] memory ids = proofRequest...\n      SWAP1 \t\t\t64[] memory ids = proofRequest...\n      PUSH 0\t\t\t64[] memory ids = proofRequest...\n      MSTORE \t\t\t64[] memory ids = proofRequest...\n      PUSH 20\t\t\t64[] memory ids = proofRequest...\n      PUSH 0\t\t\t64[] memory ids = proofRequest...\n      KECCAK256 \t\t\t64[] memory ids = proofRequest...\n      SWAP1 \t\t\t64[] memory ids = proofRequest...\n      PUSH 0\t\t\t64[] memory ids = proofRequest...\n      SWAP1 \t\t\t64[] memory ids = proofRequest...\n    tag 158\t\t\t64[] memory ids = proofRequest...\n      JUMPDEST \t\t\t64[] memory ids = proofRequest...\n      DUP3 \t\t\t64[] memory ids = proofRequest...\n      DUP3 \t\t\t64[] memory ids = proofRequest...\n      SWAP1 \t\t\t64[] memory ids = proofRequest...\n      SLOAD \t\t\t64[] memory ids = proofRequest...\n      SWAP1 \t\t\t64[] memory ids = proofRequest...\n      PUSH 100\t\t\t64[] memory ids = proofRequest...\n      EXP \t\t\t64[] memory ids = proofRequest...\n      SWAP1 \t\t\t64[] memory ids = proofRequest...\n      DIV \t\t\t64[] memory ids = proofRequest...\n      PUSH 1\t\t\t\n      PUSH 1\t\t\t\n      PUSH 40\t\t\t\n      SHL \t\t\t\n      SUB \t\t\t\n      AND \t\t\t64[] memory ids = proofRequest...\n      PUSH 1\t\t\t\n      PUSH 1\t\t\t\n      PUSH 40\t\t\t\n      SHL \t\t\t\n      SUB \t\t\t\n      AND \t\t\t64[] memory ids = proofRequest...\n      DUP2 \t\t\t64[] memory ids = proofRequest...\n      MSTORE \t\t\t64[] memory ids = proofRequest...\n      PUSH 20\t\t\t64[] memory ids = proofRequest...\n      ADD \t\t\t64[] memory ids = proofRequest...\n      SWAP1 \t\t\t64[] memory ids = proofRequest...\n      PUSH 8\t\t\t64[] memory ids = proofRequest...\n      ADD \t\t\t64[] memory ids = proofRequest...\n      SWAP1 \t\t\t64[] memory ids = proofRequest...\n      PUSH 20\t\t\t64[] memory ids = proofRequest...\n      DUP3 \t\t\t64[] memory ids = proofRequest...\n      PUSH 7\t\t\t64[] memory ids = proofRequest...\n      ADD \t\t\t64[] memory ids = proofRequest...\n      DIV \t\t\t64[] memory ids = proofRequest...\n      SWAP3 \t\t\t64[] memory ids = proofRequest...\n      DUP4 \t\t\t64[] memory ids = proofRequest...\n      ADD \t\t\t64[] memory ids = proofRequest...\n      SWAP3 \t\t\t64[] memory ids = proofRequest...\n      PUSH 1\t\t\t64[] memory ids = proofRequest...\n      SUB \t\t\t64[] memory ids = proofRequest...\n      DUP3 \t\t\t64[] memory ids = proofRequest...\n      MUL \t\t\t64[] memory ids = proofRequest...\n      SWAP2 \t\t\t64[] memory ids = proofRequest...\n      POP \t\t\t64[] memory ids = proofRequest...\n      DUP1 \t\t\t64[] memory ids = proofRequest...\n      DUP5 \t\t\t64[] memory ids = proofRequest...\n      GT \t\t\t64[] memory ids = proofRequest...\n      PUSH [tag] 158\t\t\t64[] memory ids = proofRequest...\n      JUMPI \t\t\t64[] memory ids = proofRequest...\n      SWAP1 \t\t\t64[] memory ids = proofRequest...\n      POP \t\t\t64[] memory ids = proofRequest...\n    tag 157\t\t\t64[] memory ids = proofRequest...\n      JUMPDEST \t\t\t64[] memory ids = proofRequest...\n      POP \t\t\t64[] memory ids = proofRequest...\n      POP \t\t\t64[] memory ids = proofRequest...\n      POP \t\t\t64[] memory ids = proofRequest...\n      POP \t\t\t64[] memory ids = proofRequest...\n      POP \t\t\t64[] memory ids = proofRequest...\n      SWAP1 \t\t\t64[] memory ids = proofRequest...\n      POP \t\t\t64[] memory ids = proofRequest...\n      PUSH 0\t\t\t256 count = 0\n      DUP1 \t\t\t256 i = 0\n    tag 159\t\t\t(uint256 i = 0; i < ids.length...\n      JUMPDEST \t\t\t(uint256 i = 0; i < ids.length...\n      DUP3 \t\t\tlen\n      MLOAD \t\t\tlength; i+\n      DUP2 \t\t\ti\n      LT \t\t\tids.length; i+\n      ISZERO \t\t\t(uint256 i = 0; i < ids.length...\n      PUSH [tag] 160\t\t\t(uint256 i = 0; i < ids.length...\n      JUMPI \t\t\t(uint256 i = 0; i < ids.length...\n      PUSH 0\t\t\t\\r\n      DUP7 \t\t\tdingConditions[tokenID][ids\n      DUP2 \t\t\tdingConditions[tokenID][ids\n      MSTORE \t\t\tdingConditions[tokenID][ids\n      PUSH 9\t\t\tdingConditions[tok\n      PUSH 20\t\t\tdingConditions[tokenID][ids\n      MSTORE \t\t\tdingConditions[tokenID][ids\n      PUSH 40\t\t\tdingConditions[tokenID][ids\n      DUP2 \t\t\tdingConditions[tokenID][ids\n      KECCAK256 \t\t\tdingConditions[tokenID][ids\n      DUP5 \t\t\ti]].at\n      MLOAD \t\t\ti]].at\n      DUP3 \t\t\t\\r\n      SWAP1 \t\t\t\\r\n      DUP7 \t\t\ti]]\n      SWAP1 \t\t\ti]]\n      DUP6 \t\t\ta\n      SWAP1 \t\t\ta\n      DUP2 \t\t\ti]].at\n      LT \t\t\ti]].at\n      PUSH [tag] 163\t\t\ti]].at\n      JUMPI \t\t\ti]].at\n      PUSH [tag] 163\t\t\ti]].at\n      PUSH [tag] 164\t\t\ti]].at\n      JUMP \t\t\ti]].at\n    tag 163\t\t\ti]].at\n      JUMPDEST \t\t\ti]].at\n      PUSH 20\t\t\ti]].at\n      MUL \t\t\ti]].at\n      PUSH 20\t\t\ti]].at\n      ADD \t\t\ti]].at\n      ADD \t\t\ti]].at\n      MLOAD \t\t\ti]].at\n      PUSH 1\t\t\t\n      PUSH 1\t\t\t\n      PUSH 40\t\t\t\n      SHL \t\t\t\n      SUB \t\t\t\n      AND \t\t\tdingConditions[tokenID][ids[i]...\n      PUSH 1\t\t\t\n      PUSH 1\t\t\t\n      PUSH 40\t\t\t\n      SHL \t\t\t\n      SUB \t\t\t\n      AND \t\t\tdingConditions[tokenID][ids[i]...\n      DUP2 \t\t\tdingConditions[tokenID][ids[i]...\n      MSTORE \t\t\tdingConditions[tokenID][ids[i]...\n      PUSH 20\t\t\tdingConditions[tokenID][ids[i]...\n      ADD \t\t\tdingConditions[tokenID][ids[i]...\n      SWAP1 \t\t\tdingConditions[tokenID][ids[i]...\n      DUP2 \t\t\tdingConditions[tokenID][ids[i]...\n      MSTORE \t\t\tdingConditions[tokenID][ids[i]...\n      PUSH 20\t\t\tdingConditions[tokenID][ids[i]...\n      ADD \t\t\tdingConditions[tokenID][ids[i]...\n      PUSH 0\t\t\tdingConditions[tokenID][ids[i]...\n      KECCAK256 \t\t\tdingConditions[tokenID][ids[i]...\n      PUSH 0\t\t\tdingConditions[tokenID][ids[i]...\n      ADD \t\t\tdingConditions[tokenID][ids[i]...\n      DUP1 \t\t\ts(spendingConditions[tokenID][...\n      SLOAD \t\t\ts(spendingConditions[tokenID][...\n      PUSH [tag] 165\t\t\ts(spendingConditions[tokenID][...\n      SWAP1 \t\t\ts(spendingConditions[tokenID][...\n      PUSH [tag] 166\t\t\ts(spendingConditions[tokenID][...\n      JUMP \t\t\ts(spendingConditions[tokenID][...\n    tag 165\t\t\ts(spendingConditions[tokenID][...\n      JUMPDEST \t\t\ts(spendingConditions[tokenID][...\n      SWAP1 \t\t\ts(spendingConditions[tokenID][...\n      POP \t\t\ts(spendingConditions[tokenID][...\n      GT \t\t\ts(spendingConditions[tokenID][...\n      ISZERO \t\t\tbytes(spendingConditions[token...\n      PUSH [tag] 167\t\t\tbytes(spendingConditions[token...\n      JUMPI \t\t\tbytes(spendingConditions[token...\n      DUP2 \t\t\tt++;\\r\\n \n      PUSH [tag] 168\t\t\tt++;\\r\\n \n      DUP2 \t\t\tt++;\\r\\n \n      PUSH [tag] 169\t\t\tt++;\\r\\n \n      JUMP \t\t\tt++;\\r\\n \n    tag 168\t\t\tt++;\\r\\n \n      JUMPDEST \t\t\tt++;\\r\\n \n      SWAP3 \t\t\tt++;\\r\\n \n      POP \t\t\tt++;\\r\\n \n      POP \t\t\tt++;\\r\\n \n    tag 167\t\t\tbytes(spendingConditions[token...\n      JUMPDEST \t\t\tbytes(spendingConditions[token...\n      DUP1 \t\t\t {\\r\n      PUSH [tag] 170\t\t\t {\\r\n      DUP2 \t\t\t {\\r\n      PUSH [tag] 169\t\t\t {\\r\n      JUMP \t\t\t {\\r\n    tag 170\t\t\t {\\r\n      JUMPDEST \t\t\t {\\r\n      SWAP2 \t\t\t {\\r\n      POP \t\t\t {\\r\n      POP \t\t\t {\\r\n      PUSH [tag] 159\t\t\t(uint256 i = 0; i < ids.length...\n      JUMP \t\t\t(uint256 i = 0; i < ids.length...\n    tag 160\t\t\t(uint256 i = 0; i < ids.length...\n      JUMPDEST \t\t\t(uint256 i = 0; i < ids.length...\n      POP \t\t\t(uint256 i = 0; i < ids.length...\n      PUSH 0\t\t\t64[] memory filteredIDs = n\n      DUP2 \t\t\tt);\\r\\n\n      PUSH 1\t\t\t\n      PUSH 1\t\t\t\n      PUSH 40\t\t\t\n      SHL \t\t\t\n      SUB \t\t\t\n      DUP2 \t\t\tuint64[](count);\\r\\n \n      GT \t\t\tuint64[](count);\\r\\n \n      ISZERO \t\t\tuint64[](count);\\r\\n \n      PUSH [tag] 172\t\t\tuint64[](count);\\r\\n \n      JUMPI \t\t\tuint64[](count);\\r\\n \n      PUSH [tag] 172\t\t\tuint64[](count);\\r\\n \n      PUSH [tag] 173\t\t\tuint64[](count);\\r\\n \n      JUMP \t\t\tuint64[](count);\\r\\n \n    tag 172\t\t\tuint64[](count);\\r\\n \n      JUMPDEST \t\t\tuint64[](count);\\r\\n \n      PUSH 40\t\t\tuint64[](count);\\r\\n \n      MLOAD \t\t\tuint64[](count);\\r\\n \n      SWAP1 \t\t\tuint64[](count);\\r\\n \n      DUP1 \t\t\tuint64[](count);\\r\\n \n      DUP3 \t\t\tuint64[](count);\\r\\n \n      MSTORE \t\t\tuint64[](count);\\r\\n \n      DUP1 \t\t\tuint64[](count);\\r\\n \n      PUSH 20\t\t\tuint64[](count);\\r\\n \n      MUL \t\t\tuint64[](count);\\r\\n \n      PUSH 20\t\t\tuint64[](count);\\r\\n \n      ADD \t\t\tuint64[](count);\\r\\n \n      DUP3 \t\t\tuint64[](count);\\r\\n \n      ADD \t\t\tuint64[](count);\\r\\n \n      PUSH 40\t\t\tuint64[](count);\\r\\n \n      MSTORE \t\t\tuint64[](count);\\r\\n \n      DUP1 \t\t\tuint64[](count);\\r\\n \n      ISZERO \t\t\tuint64[](count);\\r\\n \n      PUSH [tag] 174\t\t\tuint64[](count);\\r\\n \n      JUMPI \t\t\tuint64[](count);\\r\\n \n      DUP2 \t\t\tuint64[](count);\\r\\n \n      PUSH 20\t\t\tuint64[](count);\\r\\n \n      ADD \t\t\tuint64[](count);\\r\\n \n      PUSH 20\t\t\tuint64[](count);\\r\\n \n      DUP3 \t\t\tuint64[](count);\\r\\n \n      MUL \t\t\tuint64[](count);\\r\\n \n      DUP1 \t\t\tuint64[](count);\\r\\n \n      CALLDATASIZE \t\t\tuint64[](count);\\r\\n \n      DUP4 \t\t\tuint64[](count);\\r\\n \n      CALLDATACOPY \t\t\tuint64[](count);\\r\\n \n      ADD \t\t\tuint64[](count);\\r\\n \n      SWAP1 \t\t\tuint64[](count);\\r\\n \n      POP \t\t\t\n    tag 174\t\t\tuint64[](count);\\r\\n \n      JUMPDEST \t\t\tuint64[](count);\\r\\n \n      POP \t\t\tuint64[](count);\\r\\n \n      SWAP1 \t\t\t64[] memory filteredIDs = new ...\n      POP \t\t\t64[] memory filteredIDs = new ...\n      PUSH 0\t\t\tdingCondition[] memory conditi...\n      DUP3 \t\t\tt);\\r\\n\n      PUSH 1\t\t\t\n      PUSH 1\t\t\t\n      PUSH 40\t\t\t\n      SHL \t\t\t\n      SUB \t\t\t\n      DUP2 \t\t\tSpendingCondition[](count);\\r\\...\n      GT \t\t\tSpendingCondition[](count);\\r\\...\n      ISZERO \t\t\tSpendingCondition[](count);\\r\\...\n      PUSH [tag] 176\t\t\tSpendingCondition[](count);\\r\\...\n      JUMPI \t\t\tSpendingCondition[](count);\\r\\...\n      PUSH [tag] 176\t\t\tSpendingCondition[](count);\\r\\...\n      PUSH [tag] 173\t\t\tSpendingCondition[](count);\\r\\...\n      JUMP \t\t\tSpendingCondition[](count);\\r\\...\n    tag 176\t\t\tSpendingCondition[](count);\\r\\...\n      JUMPDEST \t\t\tSpendingCondition[](count);\\r\\...\n      PUSH 40\t\t\tSpendingCondition[](count);\\r\\...\n      MLOAD \t\t\tSpendingCondition[](count);\\r\\...\n      SWAP1 \t\t\tSpendingCondition[](count);\\r\\...\n      DUP1 \t\t\tSpendingCondition[](count);\\r\\...\n      DUP3 \t\t\tSpendingCondition[](count);\\r\\...\n      MSTORE \t\t\tSpendingCondition[](count);\\r\\...\n      DUP1 \t\t\tSpendingCondition[](count);\\r\\...\n      PUSH 20\t\t\tSpendingCondition[](count);\\r\\...\n      MUL \t\t\tSpendingCondition[](count);\\r\\...\n      PUSH 20\t\t\tSpendingCondition[](count);\\r\\...\n      ADD \t\t\tSpendingCondition[](count);\\r\\...\n      DUP3 \t\t\tSpendingCondition[](count);\\r\\...\n      ADD \t\t\tSpendingCondition[](count);\\r\\...\n      PUSH 40\t\t\tSpendingCondition[](count);\\r\\...\n      MSTORE \t\t\tSpendingCondition[](count);\\r\\...\n      DUP1 \t\t\tSpendingCondition[](count);\\r\\...\n      ISZERO \t\t\tSpendingCondition[](count);\\r\\...\n      PUSH [tag] 177\t\t\tSpendingCondition[](count);\\r\\...\n      JUMPI \t\t\tSpendingCondition[](count);\\r\\...\n      DUP2 \t\t\tSpendingCondition[](count);\\r\\...\n      PUSH 20\t\t\tSpendingCondition[](count);\\r\\...\n      ADD \t\t\tSpendingCondition[](count);\\r\\...\n    tag 178\t\t\tSpendingCondition[](count);\\r\\...\n      JUMPDEST \t\t\tSpendingCondition[](count);\\r\\...\n      PUSH [tag] 179\t\t\tSpendingCondition[](count);\\r\\...\n      PUSH 40\t\t\t\n      MLOAD \t\t\t\n      DUP1 \t\t\t\n      PUSH 60\t\t\t\n      ADD \t\t\t\n      PUSH 40\t\t\t\n      MSTORE \t\t\t\n      DUP1 \t\t\t\n      PUSH 60\t\t\t\n      DUP2 \t\t\t\n      MSTORE \t\t\t\n      PUSH 20\t\t\t\n      ADD \t\t\t\n      PUSH 60\t\t\t\n      DUP2 \t\t\t\n      MSTORE \t\t\t\n      PUSH 20\t\t\t\n      ADD \t\t\t\n      PUSH 60\t\t\t\n      DUP2 \t\t\t\n      MSTORE \t\t\t\n      POP \t\t\t\n      SWAP1 \t\t\t\n      JUMP \t\t\t\n    tag 179\t\t\tSpendingCondition[](count);\\r\\...\n      JUMPDEST \t\t\tSpendingCondition[](count);\\r\\...\n      DUP2 \t\t\tSpendingCondition[](count);\\r\\...\n      MSTORE \t\t\tSpendingCondition[](count);\\r\\...\n      PUSH 20\t\t\tSpendingCondition[](count);\\r\\...\n      ADD \t\t\tSpendingCondition[](count);\\r\\...\n      SWAP1 \t\t\tSpendingCondition[](count);\\r\\...\n      PUSH 1\t\t\tSpendingCondition[](count);\\r\\...\n      SWAP1 \t\t\tSpendingCondition[](count);\\r\\...\n      SUB \t\t\tSpendingCondition[](count);\\r\\...\n      SWAP1 \t\t\tSpendingCondition[](count);\\r\\...\n      DUP2 \t\t\tSpendingCondition[](count);\\r\\...\n      PUSH [tag] 178\t\t\tSpendingCondition[](count);\\r\\...\n      JUMPI \t\t\tSpendingCondition[](count);\\r\\...\n      SWAP1 \t\t\tSpendingCondition[](count);\\r\\...\n      POP \t\t\tSpendingCondition[](count);\\r\\...\n    tag 177\t\t\tSpendingCondition[](count);\\r\\...\n      JUMPDEST \t\t\tSpendingCondition[](count);\\r\\...\n      POP \t\t\tSpendingCondition[](count);\\r\\...\n      SWAP1 \t\t\tdingCondition[] memory conditi...\n      POP \t\t\tdingCondition[] memory conditi...\n      PUSH 0\t\t\t256 idx = 0\n      DUP1 \t\t\t256 i = 0\n    tag 181\t\t\t(uint256 i = 0; i < ids.length...\n      JUMPDEST \t\t\t(uint256 i = 0; i < ids.length...\n      DUP6 \t\t\tlen\n      MLOAD \t\t\tlength; i+\n      DUP2 \t\t\ti\n      LT \t\t\tids.length; i+\n      ISZERO \t\t\t(uint256 i = 0; i < ids.length...\n      PUSH [tag] 182\t\t\t(uint256 i = 0; i < ids.length...\n      JUMPI \t\t\t(uint256 i = 0; i < ids.length...\n      PUSH 0\t\t\t\\r\n      DUP10 \t\t\tdingConditions[tokenID][ids\n      DUP2 \t\t\tdingConditions[tokenID][ids\n      MSTORE \t\t\tdingConditions[tokenID][ids\n      PUSH 9\t\t\tdingConditions[tok\n      PUSH 20\t\t\tdingConditions[tokenID][ids\n      MSTORE \t\t\tdingConditions[tokenID][ids\n      PUSH 40\t\t\tdingConditions[tokenID][ids\n      DUP2 \t\t\tdingConditions[tokenID][ids\n      KECCAK256 \t\t\tdingConditions[tokenID][ids\n      DUP8 \t\t\ti]].at\n      MLOAD \t\t\ti]].at\n      DUP3 \t\t\t\\r\n      SWAP1 \t\t\t\\r\n      DUP10 \t\t\ti]]\n      SWAP1 \t\t\ti]]\n      DUP6 \t\t\ta\n      SWAP1 \t\t\ta\n      DUP2 \t\t\ti]].at\n      LT \t\t\ti]].at\n      PUSH [tag] 185\t\t\ti]].at\n      JUMPI \t\t\ti]].at\n      PUSH [tag] 185\t\t\ti]].at\n      PUSH [tag] 164\t\t\ti]].at\n      JUMP \t\t\ti]].at\n    tag 185\t\t\ti]].at\n      JUMPDEST \t\t\ti]].at\n      PUSH 20\t\t\ti]].at\n      MUL \t\t\ti]].at\n      PUSH 20\t\t\ti]].at\n      ADD \t\t\ti]].at\n      ADD \t\t\ti]].at\n      MLOAD \t\t\ti]].at\n      PUSH 1\t\t\t\n      PUSH 1\t\t\t\n      PUSH 40\t\t\t\n      SHL \t\t\t\n      SUB \t\t\t\n      AND \t\t\tdingConditions[tokenID][ids[i]...\n      PUSH 1\t\t\t\n      PUSH 1\t\t\t\n      PUSH 40\t\t\t\n      SHL \t\t\t\n      SUB \t\t\t\n      AND \t\t\tdingConditions[tokenID][ids[i]...\n      DUP2 \t\t\tdingConditions[tokenID][ids[i]...\n      MSTORE \t\t\tdingConditions[tokenID][ids[i]...\n      PUSH 20\t\t\tdingConditions[tokenID][ids[i]...\n      ADD \t\t\tdingConditions[tokenID][ids[i]...\n      SWAP1 \t\t\tdingConditions[tokenID][ids[i]...\n      DUP2 \t\t\tdingConditions[tokenID][ids[i]...\n      MSTORE \t\t\tdingConditions[tokenID][ids[i]...\n      PUSH 20\t\t\tdingConditions[tokenID][ids[i]...\n      ADD \t\t\tdingConditions[tokenID][ids[i]...\n      PUSH 0\t\t\tdingConditions[tokenID][ids[i]...\n      KECCAK256 \t\t\tdingConditions[tokenID][ids[i]...\n      PUSH 0\t\t\tdingConditions[tokenID][ids[i]...\n      ADD \t\t\tdingConditions[tokenID][ids[i]...\n      DUP1 \t\t\ts(spendingConditions[tokenID][...\n      SLOAD \t\t\ts(spendingConditions[tokenID][...\n      PUSH [tag] 186\t\t\ts(spendingConditions[tokenID][...\n      SWAP1 \t\t\ts(spendingConditions[tokenID][...\n      PUSH [tag] 166\t\t\ts(spendingConditions[tokenID][...\n      JUMP \t\t\ts(spendingConditions[tokenID][...\n    tag 186\t\t\ts(spendingConditions[tokenID][...\n      JUMPDEST \t\t\ts(spendingConditions[tokenID][...\n      SWAP1 \t\t\ts(spendingConditions[tokenID][...\n      POP \t\t\ts(spendingConditions[tokenID][...\n      GT \t\t\ts(spendingConditions[tokenID][...\n      ISZERO \t\t\tbytes(spendingConditions[token...\n      PUSH [tag] 187\t\t\tbytes(spendingConditions[token...\n      JUMPI \t\t\tbytes(spendingConditions[token...\n      DUP6 \t\t\ti];\n      DUP2 \t\t\t\\n\n      DUP2 \t\t\ti];\\r\\n \n      MLOAD \t\t\ti];\\r\\n \n      DUP2 \t\t\ti];\\r\\n \n      LT \t\t\ti];\\r\\n \n      PUSH [tag] 189\t\t\ti];\\r\\n \n      JUMPI \t\t\ti];\\r\\n \n      PUSH [tag] 189\t\t\ti];\\r\\n \n      PUSH [tag] 164\t\t\ti];\\r\\n \n      JUMP \t\t\ti];\\r\\n \n    tag 189\t\t\ti];\\r\\n \n      JUMPDEST \t\t\ti];\\r\\n \n      PUSH 20\t\t\ti];\\r\\n \n      MUL \t\t\ti];\\r\\n \n      PUSH 20\t\t\ti];\\r\\n \n      ADD \t\t\ti];\\r\\n \n      ADD \t\t\ti];\\r\\n \n      MLOAD \t\t\ti];\\r\\n \n      DUP5 \t\t\teredIDs[idx\n      DUP4 \t\t\t = \n      DUP2 \t\t\teredIDs[idx] = i\n      MLOAD \t\t\teredIDs[idx] = i\n      DUP2 \t\t\teredIDs[idx] = i\n      LT \t\t\teredIDs[idx] = i\n      PUSH [tag] 191\t\t\teredIDs[idx] = i\n      JUMPI \t\t\teredIDs[idx] = i\n      PUSH [tag] 191\t\t\teredIDs[idx] = i\n      PUSH [tag] 164\t\t\teredIDs[idx] = i\n      JUMP \t\t\teredIDs[idx] = i\n    tag 191\t\t\teredIDs[idx] = i\n      JUMPDEST \t\t\teredIDs[idx] = i\n      PUSH 20\t\t\teredIDs[idx] = i\n      MUL \t\t\teredIDs[idx] = i\n      PUSH 20\t\t\teredIDs[idx] = i\n      ADD \t\t\teredIDs[idx] = i\n      ADD \t\t\teredIDs[idx] = i\n      SWAP1 \t\t\teredIDs[idx] = ids[i];\\r\\n \n      PUSH 1\t\t\t\n      PUSH 1\t\t\t\n      PUSH 40\t\t\t\n      SHL \t\t\t\n      SUB \t\t\t\n      AND \t\t\teredIDs[idx] = ids[i];\\r\\n \n      SWAP1 \t\t\teredIDs[idx] = ids[i];\\r\\n \n      DUP2 \t\t\teredIDs[idx] = ids[i];\\r\\n \n      PUSH 1\t\t\t\n      PUSH 1\t\t\t\n      PUSH 40\t\t\t\n      SHL \t\t\t\n      SUB \t\t\t\n      AND \t\t\teredIDs[idx] = ids[i];\\r\\n \n      DUP2 \t\t\teredIDs[idx] = ids[i];\\r\\n \n      MSTORE \t\t\teredIDs[idx] = ids[i];\\r\\n \n      POP \t\t\teredIDs[idx] = ids[i];\\r\\n \n      POP \t\t\teredIDs[idx] = ids[i];\\r\\n \n      PUSH 9\t\t\tdingConditions[tok\n      PUSH 0\t\t\tdingConditions[tokenID][ids\n      DUP11 \t\t\tnID][id\n      DUP2 \t\t\tdingConditions[tokenID][ids\n      MSTORE \t\t\tdingConditions[tokenID][ids\n      PUSH 20\t\t\tdingConditions[tokenID][ids\n      ADD \t\t\tdingConditions[tokenID][ids\n      SWAP1 \t\t\tdingConditions[tokenID][ids\n      DUP2 \t\t\tdingConditions[tokenID][ids\n      MSTORE \t\t\tdingConditions[tokenID][ids\n      PUSH 20\t\t\tdingConditions[tokenID][ids\n      ADD \t\t\tdingConditions[tokenID][ids\n      PUSH 0\t\t\tdingConditions[tokenID][ids\n      KECCAK256 \t\t\tdingConditions[tokenID][ids\n      PUSH 0\t\t\tdingConditions[tokenID][ids[i]...\n      DUP8 \t\t\ti]]\n      DUP4 \t\t\t\\r\n      DUP2 \t\t\ti]];\\r\\n\n      MLOAD \t\t\ti]];\\r\\n\n      DUP2 \t\t\ti]];\\r\\n\n      LT \t\t\ti]];\\r\\n\n      PUSH [tag] 193\t\t\ti]];\\r\\n\n      JUMPI \t\t\ti]];\\r\\n\n      PUSH [tag] 193\t\t\ti]];\\r\\n\n      PUSH [tag] 164\t\t\ti]];\\r\\n\n      JUMP \t\t\ti]];\\r\\n\n    tag 193\t\t\ti]];\\r\\n\n      JUMPDEST \t\t\ti]];\\r\\n\n      PUSH 20\t\t\ti]];\\r\\n\n      MUL \t\t\ti]];\\r\\n\n      PUSH 20\t\t\ti]];\\r\\n\n      ADD \t\t\ti]];\\r\\n\n      ADD \t\t\ti]];\\r\\n\n      MLOAD \t\t\ti]];\\r\\n\n      PUSH 1\t\t\t\n      PUSH 1\t\t\t\n      PUSH 40\t\t\t\n      SHL \t\t\t\n      SUB \t\t\t\n      AND \t\t\tdingConditions[tokenID][ids[i]...\n      PUSH 1\t\t\t\n      PUSH 1\t\t\t\n      PUSH 40\t\t\t\n      SHL \t\t\t\n      SUB \t\t\t\n      AND \t\t\tdingConditions[tokenID][ids[i]...\n      DUP2 \t\t\tdingConditions[tokenID][ids[i]...\n      MSTORE \t\t\tdingConditions[tokenID][ids[i]...\n      PUSH 20\t\t\tdingConditions[tokenID][ids[i]...\n      ADD \t\t\tdingConditions[tokenID][ids[i]...\n      SWAP1 \t\t\tdingConditions[tokenID][ids[i]...\n      DUP2 \t\t\tdingConditions[tokenID][ids[i]...\n      MSTORE \t\t\tdingConditions[tokenID][ids[i]...\n      PUSH 20\t\t\tdingConditions[tokenID][ids[i]...\n      ADD \t\t\tdingConditions[tokenID][ids[i]...\n      PUSH 0\t\t\tdingConditions[tokenID][ids[i]...\n      KECCAK256 \t\t\tdingConditions[tokenID][ids[i]...\n      PUSH 40\t\t\titions[idx] = spendingConditio...\n      MLOAD \t\t\titions[idx] = spendingConditio...\n      DUP1 \t\t\titions[idx] = spendingConditio...\n      PUSH 60\t\t\titions[idx] = spendingConditio...\n      ADD \t\t\titions[idx] = spendingConditio...\n      PUSH 40\t\t\titions[idx] = spendingConditio...\n      MSTORE \t\t\titions[idx] = spendingConditio...\n      SWAP1 \t\t\titions[idx] = spendingConditio...\n      DUP2 \t\t\titions[idx] = spendingConditio...\n      PUSH 0\t\t\titions[idx] = spendingConditio...\n      DUP3 \t\t\titions[idx] = spendingConditio...\n      ADD \t\t\titions[idx] = spendingConditio...\n      DUP1 \t\t\titions[idx] = spendingConditio...\n      SLOAD \t\t\titions[idx] = spendingConditio...\n      PUSH [tag] 194\t\t\titions[idx] = spendingConditio...\n      SWAP1 \t\t\titions[idx] = spendingConditio...\n      PUSH [tag] 166\t\t\titions[idx] = spendingConditio...\n      JUMP \t\t\titions[idx] = spendingConditio...\n    tag 194\t\t\titions[idx] = spendingConditio...\n      JUMPDEST \t\t\titions[idx] = spendingConditio...\n      DUP1 \t\t\titions[idx] = spendingConditio...\n      PUSH 1F\t\t\titions[idx] = spendingConditio...\n      ADD \t\t\titions[idx] = spendingConditio...\n      PUSH 20\t\t\titions[idx] = spendingConditio...\n      DUP1 \t\t\titions[idx] = spendingConditio...\n      SWAP2 \t\t\titions[idx] = spendingConditio...\n      DIV \t\t\titions[idx] = spendingConditio...\n      MUL \t\t\titions[idx] = spendingConditio...\n      PUSH 20\t\t\titions[idx] = spendingConditio...\n      ADD \t\t\titions[idx] = spendingConditio...\n      PUSH 40\t\t\titions[idx] = spendingConditio...\n      MLOAD \t\t\titions[idx] = spendingConditio...\n      SWAP1 \t\t\titions[idx] = spendingConditio...\n      DUP2 \t\t\titions[idx] = spendingConditio...\n      ADD \t\t\titions[idx] = spendingConditio...\n      PUSH 40\t\t\titions[idx] = spendingConditio...\n      MSTORE \t\t\titions[idx] = spendingConditio...\n      DUP1 \t\t\titions[idx] = spendingConditio...\n      SWAP3 \t\t\titions[idx] = spendingConditio...\n      SWAP2 \t\t\titions[idx] = spendingConditio...\n      SWAP1 \t\t\titions[idx] = spendingConditio...\n      DUP2 \t\t\titions[idx] = spendingConditio...\n      DUP2 \t\t\titions[idx] = spendingConditio...\n      MSTORE \t\t\titions[idx] = spendingConditio...\n      PUSH 20\t\t\titions[idx] = spendingConditio...\n      ADD \t\t\titions[idx] = spendingConditio...\n      DUP3 \t\t\titions[idx] = spendingConditio...\n      DUP1 \t\t\titions[idx] = spendingConditio...\n      SLOAD \t\t\titions[idx] = spendingConditio...\n      PUSH [tag] 195\t\t\titions[idx] = spendingConditio...\n      SWAP1 \t\t\titions[idx] = spendingConditio...\n      PUSH [tag] 166\t\t\titions[idx] = spendingConditio...\n      JUMP \t\t\titions[idx] = spendingConditio...\n    tag 195\t\t\titions[idx] = spendingConditio...\n      JUMPDEST \t\t\titions[idx] = spendingConditio...\n      DUP1 \t\t\titions[idx] = spendingConditio...\n      ISZERO \t\t\titions[idx] = spendingConditio...\n      PUSH [tag] 196\t\t\titions[idx] = spendingConditio...\n      JUMPI \t\t\titions[idx] = spendingConditio...\n      DUP1 \t\t\titions[idx] = spendingConditio...\n      PUSH 1F\t\t\titions[idx] = spendingConditio...\n      LT \t\t\titions[idx] = spendingConditio...\n      PUSH [tag] 197\t\t\titions[idx] = spendingConditio...\n      JUMPI \t\t\titions[idx] = spendingConditio...\n      PUSH 100\t\t\titions[idx] = spendingConditio...\n      DUP1 \t\t\titions[idx] = spendingConditio...\n      DUP4 \t\t\titions[idx] = spendingConditio...\n      SLOAD \t\t\titions[idx] = spendingConditio...\n      DIV \t\t\titions[idx] = spendingConditio...\n      MUL \t\t\titions[idx] = spendingConditio...\n      DUP4 \t\t\titions[idx] = spendingConditio...\n      MSTORE \t\t\titions[idx] = spendingConditio...\n      SWAP2 \t\t\titions[idx] = spendingConditio...\n      PUSH 20\t\t\titions[idx] = spendingConditio...\n      ADD \t\t\titions[idx] = spendingConditio...\n      SWAP2 \t\t\titions[idx] = spendingConditio...\n      PUSH [tag] 196\t\t\titions[idx] = spendingConditio...\n      JUMP \t\t\titions[idx] = spendingConditio...\n    tag 197\t\t\titions[idx] = spendingConditio...\n      JUMPDEST \t\t\titions[idx] = spendingConditio...\n      DUP3 \t\t\titions[idx] = spendingConditio...\n      ADD \t\t\titions[idx] = spendingConditio...\n      SWAP2 \t\t\titions[idx] = spendingConditio...\n      SWAP1 \t\t\titions[idx] = spendingConditio...\n      PUSH 0\t\t\titions[idx] = spendingConditio...\n      MSTORE \t\t\titions[idx] = spendingConditio...\n      PUSH 20\t\t\titions[idx] = spendingConditio...\n      PUSH 0\t\t\titions[idx] = spendingConditio...\n      KECCAK256 \t\t\titions[idx] = spendingConditio...\n      SWAP1 \t\t\titions[idx] = spendingConditio...\n    tag 198\t\t\titions[idx] = spendingConditio...\n      JUMPDEST \t\t\titions[idx] = spendingConditio...\n      DUP2 \t\t\titions[idx] = spendingConditio...\n      SLOAD \t\t\titions[idx] = spendingConditio...\n      DUP2 \t\t\titions[idx] = spendingConditio...\n      MSTORE \t\t\titions[idx] = spendingConditio...\n      SWAP1 \t\t\titions[idx] = spendingConditio...\n      PUSH 1\t\t\titions[idx] = spendingConditio...\n      ADD \t\t\titions[idx] = spendingConditio...\n      SWAP1 \t\t\titions[idx] = spendingConditio...\n      PUSH 20\t\t\titions[idx] = spendingConditio...\n      ADD \t\t\titions[idx] = spendingConditio...\n      DUP1 \t\t\titions[idx] = spendingConditio...\n      DUP4 \t\t\titions[idx] = spendingConditio...\n      GT \t\t\titions[idx] = spendingConditio...\n      PUSH [tag] 198\t\t\titions[idx] = spendingConditio...\n      JUMPI \t\t\titions[idx] = spendingConditio...\n      DUP3 \t\t\titions[idx] = spendingConditio...\n      SWAP1 \t\t\titions[idx] = spendingConditio...\n      SUB \t\t\titions[idx] = spendingConditio...\n      PUSH 1F\t\t\titions[idx] = spendingConditio...\n      AND \t\t\titions[idx] = spendingConditio...\n      DUP3 \t\t\titions[idx] = spendingConditio...\n      ADD \t\t\titions[idx] = spendingConditio...\n      SWAP2 \t\t\titions[idx] = spendingConditio...\n    tag 196\t\t\titions[idx] = spendingConditio...\n      JUMPDEST \t\t\titions[idx] = spendingConditio...\n      POP \t\t\titions[idx] = spendingConditio...\n      POP \t\t\titions[idx] = spendingConditio...\n      POP \t\t\titions[idx] = spendingConditio...\n      POP \t\t\titions[idx] = spendingConditio...\n      POP \t\t\titions[idx] = spendingConditio...\n      DUP2 \t\t\titions[idx] = spendingConditio...\n      MSTORE \t\t\titions[idx] = spendingConditio...\n      PUSH 20\t\t\titions[idx] = spendingConditio...\n      ADD \t\t\titions[idx] = spendingConditio...\n      PUSH 1\t\t\titions[idx] = spendingConditio...\n      DUP3 \t\t\titions[idx] = spendingConditio...\n      ADD \t\t\titions[idx] = spendingConditio...\n      DUP1 \t\t\titions[idx] = spendingConditio...\n      SLOAD \t\t\titions[idx] = spendingConditio...\n      PUSH [tag] 199\t\t\titions[idx] = spendingConditio...\n      SWAP1 \t\t\titions[idx] = spendingConditio...\n      PUSH [tag] 166\t\t\titions[idx] = spendingConditio...\n      JUMP \t\t\titions[idx] = spendingConditio...\n    tag 199\t\t\titions[idx] = spendingConditio...\n      JUMPDEST \t\t\titions[idx] = spendingConditio...\n      DUP1 \t\t\titions[idx] = spendingConditio...\n      PUSH 1F\t\t\titions[idx] = spendingConditio...\n      ADD \t\t\titions[idx] = spendingConditio...\n      PUSH 20\t\t\titions[idx] = spendingConditio...\n      DUP1 \t\t\titions[idx] = spendingConditio...\n      SWAP2 \t\t\titions[idx] = spendingConditio...\n      DIV \t\t\titions[idx] = spendingConditio...\n      MUL \t\t\titions[idx] = spendingConditio...\n      PUSH 20\t\t\titions[idx] = spendingConditio...\n      ADD \t\t\titions[idx] = spendingConditio...\n      PUSH 40\t\t\titions[idx] = spendingConditio...\n      MLOAD \t\t\titions[idx] = spendingConditio...\n      SWAP1 \t\t\titions[idx] = spendingConditio...\n      DUP2 \t\t\titions[idx] = spendingConditio...\n      ADD \t\t\titions[idx] = spendingConditio...\n      PUSH 40\t\t\titions[idx] = spendingConditio...\n      MSTORE \t\t\titions[idx] = spendingConditio...\n      DUP1 \t\t\titions[idx] = spendingConditio...\n      SWAP3 \t\t\titions[idx] = spendingConditio...\n      SWAP2 \t\t\titions[idx] = spendingConditio...\n      SWAP1 \t\t\titions[idx] = spendingConditio...\n      DUP2 \t\t\titions[idx] = spendingConditio...\n      DUP2 \t\t\titions[idx] = spendingConditio...\n      MSTORE \t\t\titions[idx] = spendingConditio...\n      PUSH 20\t\t\titions[idx] = spendingConditio...\n      ADD \t\t\titions[idx] = spendingConditio...\n      DUP3 \t\t\titions[idx] = spendingConditio...\n      DUP1 \t\t\titions[idx] = spendingConditio...\n      SLOAD \t\t\titions[idx] = spendingConditio...\n      PUSH [tag] 200\t\t\titions[idx] = spendingConditio...\n      SWAP1 \t\t\titions[idx] = spendingConditio...\n      PUSH [tag] 166\t\t\titions[idx] = spendingConditio...\n      JUMP \t\t\titions[idx] = spendingConditio...\n    tag 200\t\t\titions[idx] = spendingConditio...\n      JUMPDEST \t\t\titions[idx] = spendingConditio...\n      DUP1 \t\t\titions[idx] = spendingConditio...\n      ISZERO \t\t\titions[idx] = spendingConditio...\n      PUSH [tag] 201\t\t\titions[idx] = spendingConditio...\n      JUMPI \t\t\titions[idx] = spendingConditio...\n      DUP1 \t\t\titions[idx] = spendingConditio...\n      PUSH 1F\t\t\titions[idx] = spendingConditio...\n      LT \t\t\titions[idx] = spendingConditio...\n      PUSH [tag] 202\t\t\titions[idx] = spendingConditio...\n      JUMPI \t\t\titions[idx] = spendingConditio...\n      PUSH 100\t\t\titions[idx] = spendingConditio...\n      DUP1 \t\t\titions[idx] = spendingConditio...\n      DUP4 \t\t\titions[idx] = spendingConditio...\n      SLOAD \t\t\titions[idx] = spendingConditio...\n      DIV \t\t\titions[idx] = spendingConditio...\n      MUL \t\t\titions[idx] = spendingConditio...\n      DUP4 \t\t\titions[idx] = spendingConditio...\n      MSTORE \t\t\titions[idx] = spendingConditio...\n      SWAP2 \t\t\titions[idx] = spendingConditio...\n      PUSH 20\t\t\titions[idx] = spendingConditio...\n      ADD \t\t\titions[idx] = spendingConditio...\n      SWAP2 \t\t\titions[idx] = spendingConditio...\n      PUSH [tag] 201\t\t\titions[idx] = spendingConditio...\n      JUMP \t\t\titions[idx] = spendingConditio...\n    tag 202\t\t\titions[idx] = spendingConditio...\n      JUMPDEST \t\t\titions[idx] = spendingConditio...\n      DUP3 \t\t\titions[idx] = spendingConditio...\n      ADD \t\t\titions[idx] = spendingConditio...\n      SWAP2 \t\t\titions[idx] = spendingConditio...\n      SWAP1 \t\t\titions[idx] = spendingConditio...\n      PUSH 0\t\t\titions[idx] = spendingConditio...\n      MSTORE \t\t\titions[idx] = spendingConditio...\n      PUSH 20\t\t\titions[idx] = spendingConditio...\n      PUSH 0\t\t\titions[idx] = spendingConditio...\n      KECCAK256 \t\t\titions[idx] = spendingConditio...\n      SWAP1 \t\t\titions[idx] = spendingConditio...\n    tag 203\t\t\titions[idx] = spendingConditio...\n      JUMPDEST \t\t\titions[idx] = spendingConditio...\n      DUP2 \t\t\titions[idx] = spendingConditio...\n      SLOAD \t\t\titions[idx] = spendingConditio...\n      DUP2 \t\t\titions[idx] = spendingConditio...\n      MSTORE \t\t\titions[idx] = spendingConditio...\n      SWAP1 \t\t\titions[idx] = spendingConditio...\n      PUSH 1\t\t\titions[idx] = spendingConditio...\n      ADD \t\t\titions[idx] = spendingConditio...\n      SWAP1 \t\t\titions[idx] = spendingConditio...\n      PUSH 20\t\t\titions[idx] = spendingConditio...\n      ADD \t\t\titions[idx] = spendingConditio...\n      DUP1 \t\t\titions[idx] = spendingConditio...\n      DUP4 \t\t\titions[idx] = spendingConditio...\n      GT \t\t\titions[idx] = spendingConditio...\n      PUSH [tag] 203\t\t\titions[idx] = spendingConditio...\n      JUMPI \t\t\titions[idx] = spendingConditio...\n      DUP3 \t\t\titions[idx] = spendingConditio...\n      SWAP1 \t\t\titions[idx] = spendingConditio...\n      SUB \t\t\titions[idx] = spendingConditio...\n      PUSH 1F\t\t\titions[idx] = spendingConditio...\n      AND \t\t\titions[idx] = spendingConditio...\n      DUP3 \t\t\titions[idx] = spendingConditio...\n      ADD \t\t\titions[idx] = spendingConditio...\n      SWAP2 \t\t\titions[idx] = spendingConditio...\n    tag 201\t\t\titions[idx] = spendingConditio...\n      JUMPDEST \t\t\titions[idx] = spendingConditio...\n      POP \t\t\titions[idx] = spendingConditio...\n      POP \t\t\titions[idx] = spendingConditio...\n      POP \t\t\titions[idx] = spendingConditio...\n      POP \t\t\titions[idx] = spendingConditio...\n      POP \t\t\titions[idx] = spendingConditio...\n      DUP2 \t\t\titions[idx] = spendingConditio...\n      MSTORE \t\t\titions[idx] = spendingConditio...\n      PUSH 20\t\t\titions[idx] = spendingConditio...\n      ADD \t\t\titions[idx] = spendingConditio...\n      PUSH 2\t\t\titions[idx] = spendingConditio...\n      DUP3 \t\t\titions[idx] = spendingConditio...\n      ADD \t\t\titions[idx] = spendingConditio...\n      DUP1 \t\t\titions[idx] = spendingConditio...\n      SLOAD \t\t\titions[idx] = spendingConditio...\n      PUSH [tag] 204\t\t\titions[idx] = spendingConditio...\n      SWAP1 \t\t\titions[idx] = spendingConditio...\n      PUSH [tag] 166\t\t\titions[idx] = spendingConditio...\n      JUMP \t\t\titions[idx] = spendingConditio...\n    tag 204\t\t\titions[idx] = spendingConditio...\n      JUMPDEST \t\t\titions[idx] = spendingConditio...\n      DUP1 \t\t\titions[idx] = spendingConditio...\n      PUSH 1F\t\t\titions[idx] = spendingConditio...\n      ADD \t\t\titions[idx] = spendingConditio...\n      PUSH 20\t\t\titions[idx] = spendingConditio...\n      DUP1 \t\t\titions[idx] = spendingConditio...\n      SWAP2 \t\t\titions[idx] = spendingConditio...\n      DIV \t\t\titions[idx] = spendingConditio...\n      MUL \t\t\titions[idx] = spendingConditio...\n      PUSH 20\t\t\titions[idx] = spendingConditio...\n      ADD \t\t\titions[idx] = spendingConditio...\n      PUSH 40\t\t\titions[idx] = spendingConditio...\n      MLOAD \t\t\titions[idx] = spendingConditio...\n      SWAP1 \t\t\titions[idx] = spendingConditio...\n      DUP2 \t\t\titions[idx] = spendingConditio...\n      ADD \t\t\titions[idx] = spendingConditio...\n      PUSH 40\t\t\titions[idx] = spendingConditio...\n      MSTORE \t\t\titions[idx] = spendingConditio...\n      DUP1 \t\t\titions[idx] = spendingConditio...\n      SWAP3 \t\t\titions[idx] = spendingConditio...\n      SWAP2 \t\t\titions[idx] = spendingConditio...\n      SWAP1 \t\t\titions[idx] = spendingConditio...\n      DUP2 \t\t\titions[idx] = spendingConditio...\n      DUP2 \t\t\titions[idx] = spendingConditio...\n      MSTORE \t\t\titions[idx] = spendingConditio...\n      PUSH 20\t\t\titions[idx] = spendingConditio...\n      ADD \t\t\titions[idx] = spendingConditio...\n      DUP3 \t\t\titions[idx] = spendingConditio...\n      DUP1 \t\t\titions[idx] = spendingConditio...\n      SLOAD \t\t\titions[idx] = spendingConditio...\n      PUSH [tag] 205\t\t\titions[idx] = spendingConditio...\n      SWAP1 \t\t\titions[idx] = spendingConditio...\n      PUSH [tag] 166\t\t\titions[idx] = spendingConditio...\n      JUMP \t\t\titions[idx] = spendingConditio...\n    tag 205\t\t\titions[idx] = spendingConditio...\n      JUMPDEST \t\t\titions[idx] = spendingConditio...\n      DUP1 \t\t\titions[idx] = spendingConditio...\n      ISZERO \t\t\titions[idx] = spendingConditio...\n      PUSH [tag] 206\t\t\titions[idx] = spendingConditio...\n      JUMPI \t\t\titions[idx] = spendingConditio...\n      DUP1 \t\t\titions[idx] = spendingConditio...\n      PUSH 1F\t\t\titions[idx] = spendingConditio...\n      LT \t\t\titions[idx] = spendingConditio...\n      PUSH [tag] 207\t\t\titions[idx] = spendingConditio...\n      JUMPI \t\t\titions[idx] = spendingConditio...\n      PUSH 100\t\t\titions[idx] = spendingConditio...\n      DUP1 \t\t\titions[idx] = spendingConditio...\n      DUP4 \t\t\titions[idx] = spendingConditio...\n      SLOAD \t\t\titions[idx] = spendingConditio...\n      DIV \t\t\titions[idx] = spendingConditio...\n      MUL \t\t\titions[idx] = spendingConditio...\n      DUP4 \t\t\titions[idx] = spendingConditio...\n      MSTORE \t\t\titions[idx] = spendingConditio...\n      SWAP2 \t\t\titions[idx] = spendingConditio...\n      PUSH 20\t\t\titions[idx] = spendingConditio...\n      ADD \t\t\titions[idx] = spendingConditio...\n      SWAP2 \t\t\titions[idx] = spendingConditio...\n      PUSH [tag] 206\t\t\titions[idx] = spendingConditio...\n      JUMP \t\t\titions[idx] = spendingConditio...\n    tag 207\t\t\titions[idx] = spendingConditio...\n      JUMPDEST \t\t\titions[idx] = spendingConditio...\n      DUP3 \t\t\titions[idx] = spendingConditio...\n      ADD \t\t\titions[idx] = spendingConditio...\n      SWAP2 \t\t\titions[idx] = spendingConditio...\n      SWAP1 \t\t\titions[idx] = spendingConditio...\n      PUSH 0\t\t\titions[idx] = spendingConditio...\n      MSTORE \t\t\titions[idx] = spendingConditio...\n      PUSH 20\t\t\titions[idx] = spendingConditio...\n      PUSH 0\t\t\titions[idx] = spendingConditio...\n      KECCAK256 \t\t\titions[idx] = spendingConditio...\n      SWAP1 \t\t\titions[idx] = spendingConditio...\n    tag 208\t\t\titions[idx] = spendingConditio...\n      JUMPDEST \t\t\titions[idx] = spendingConditio...\n      DUP2 \t\t\titions[idx] = spendingConditio...\n      SLOAD \t\t\titions[idx] = spendingConditio...\n      DUP2 \t\t\titions[idx] = spendingConditio...\n      MSTORE \t\t\titions[idx] = spendingConditio...\n      SWAP1 \t\t\titions[idx] = spendingConditio...\n      PUSH 1\t\t\titions[idx] = spendingConditio...\n      ADD \t\t\titions[idx] = spendingConditio...\n      SWAP1 \t\t\titions[idx] = spendingConditio...\n      PUSH 20\t\t\titions[idx] = spendingConditio...\n      ADD \t\t\titions[idx] = spendingConditio...\n      DUP1 \t\t\titions[idx] = spendingConditio...\n      DUP4 \t\t\titions[idx] = spendingConditio...\n      GT \t\t\titions[idx] = spendingConditio...\n      PUSH [tag] 208\t\t\titions[idx] = spendingConditio...\n      JUMPI \t\t\titions[idx] = spendingConditio...\n      DUP3 \t\t\titions[idx] = spendingConditio...\n      SWAP1 \t\t\titions[idx] = spendingConditio...\n      SUB \t\t\titions[idx] = spendingConditio...\n      PUSH 1F\t\t\titions[idx] = spendingConditio...\n      AND \t\t\titions[idx] = spendingConditio...\n      DUP3 \t\t\titions[idx] = spendingConditio...\n      ADD \t\t\titions[idx] = spendingConditio...\n      SWAP2 \t\t\titions[idx] = spendingConditio...\n    tag 206\t\t\titions[idx] = spendingConditio...\n      JUMPDEST \t\t\titions[idx] = spendingConditio...\n      POP \t\t\titions[idx] = spendingConditio...\n      POP \t\t\titions[idx] = spendingConditio...\n      POP \t\t\titions[idx] = spendingConditio...\n      POP \t\t\titions[idx] = spendingConditio...\n      POP \t\t\titions[idx] = spendingConditio...\n      DUP2 \t\t\titions[idx] = spendingConditio...\n      MSTORE \t\t\titions[idx] = spendingConditio...\n      POP \t\t\titions[idx] = spendingConditio...\n      POP \t\t\titions[idx] = spendingConditio...\n      DUP4 \t\t\titions[idx\n      DUP4 \t\t\t = \n      DUP2 \t\t\titions[idx] = s\n      MLOAD \t\t\titions[idx] = s\n      DUP2 \t\t\titions[idx] = s\n      LT \t\t\titions[idx] = s\n      PUSH [tag] 210\t\t\titions[idx] = s\n      JUMPI \t\t\titions[idx] = s\n      PUSH [tag] 210\t\t\titions[idx] = s\n      PUSH [tag] 164\t\t\titions[idx] = s\n      JUMP \t\t\titions[idx] = s\n    tag 210\t\t\titions[idx] = s\n      JUMPDEST \t\t\titions[idx] = s\n      PUSH 20\t\t\titions[idx] = s\n      MUL \t\t\titions[idx] = s\n      PUSH 20\t\t\titions[idx] = s\n      ADD \t\t\titions[idx] = s\n      ADD \t\t\titions[idx] = s\n      DUP2 \t\t\titions[idx] = spendingConditio...\n      SWAP1 \t\t\titions[idx] = spendingConditio...\n      MSTORE \t\t\titions[idx] = spendingConditio...\n      POP \t\t\titions[idx] = spendingConditio...\n      DUP2 \t\t\t+;\\r\\n \n      DUP1 \t\t\t+;\\r\\n \n      PUSH [tag] 211\t\t\t+;\\r\\n \n      SWAP1 \t\t\t+;\\r\\n \n      PUSH [tag] 169\t\t\t+;\\r\\n \n      JUMP \t\t\t+;\\r\\n \n    tag 211\t\t\t+;\\r\\n \n      JUMPDEST \t\t\t+;\\r\\n \n      SWAP3 \t\t\t+;\\r\\n \n      POP \t\t\t+;\\r\\n \n      POP \t\t\t+;\\r\\n \n    tag 187\t\t\tbytes(spendingConditions[token...\n      JUMPDEST \t\t\tbytes(spendingConditions[token...\n      DUP1 \t\t\t {\\r\n      PUSH [tag] 212\t\t\t {\\r\n      DUP2 \t\t\t {\\r\n      PUSH [tag] 169\t\t\t {\\r\n      JUMP \t\t\t {\\r\n    tag 212\t\t\t {\\r\n      JUMPDEST \t\t\t {\\r\n      SWAP2 \t\t\t {\\r\n      POP \t\t\t {\\r\n      POP \t\t\t {\\r\n      PUSH [tag] 181\t\t\t(uint256 i = 0; i < ids.length...\n      JUMP \t\t\t(uint256 i = 0; i < ids.length...\n    tag 182\t\t\t(uint256 i = 0; i < ids.length...\n      JUMPDEST \t\t\t(uint256 i = 0; i < ids.length...\n      POP \t\t\t\n      SWAP2 \t\t\teredIDs, co\n      SWAP8 \t\t\teredIDs, co\n      SWAP1 \t\t\titions);\\r\\n\n      SWAP7 \t\t\titions);\\r\\n\n      POP \t\t\t\n      SWAP5 \t\t\ttion getSpendingConditions(uin...\n      POP \t\t\t\n      POP \t\t\t\n      POP \t\t\t\n      POP \t\t\t\n      POP \t\t\t\n      JUMP \t\t\ttion getSpendingConditions(uin...\n    tag 53\t\t\tpublic onlyOwner {\\r\\n        ...\n      JUMPDEST \t\t\tpublic onlyOwner {\\r\\n        ...\n      PUSH 0\t\t\tin(_\n      PUSH 1\t\t\t\n      PUSH 1\t\t\t\n      PUSH E0\t\t\t\n      SHL \t\t\t\n      SUB \t\t\t\n      NOT \t\t\t\n      DUP3 \t\t\tadmin\");\\r\\n        admins.pus...\n      AND \t\t\tadmin\");\\r\\n        admins.pus...\n      PUSH 6CDB3D13\t\t\t\n      PUSH E1\t\t\t\n      SHL \t\t\t\n      EQ \t\t\tadmin\");\\r\\n        admins.pus...\n      DUP1 \t\t\tadmin\");\\r\\n        admins.pus...\n      PUSH [tag] 214\t\t\tadmin\");\\r\\n        admins.pus...\n      JUMPI \t\t\tadmin\");\\r\\n        admins.pus...\n      POP \t\t\t\n      PUSH 1\t\t\t\n      PUSH 1\t\t\t\n      PUSH E0\t\t\t\n      SHL \t\t\t\n      SUB \t\t\t\n      NOT \t\t\t\n      DUP3 \t\t\tunction to remove an admin add...\n      AND \t\t\tunction to remove an admin add...\n      PUSH 3A24D07\t\t\t\n      PUSH E2\t\t\t\n      SHL \t\t\t\n      EQ \t\t\tunction to remove an admin add...\n    tag 214\t\t\tadmin\");\\r\\n        admins.pus...\n      JUMPDEST \t\t\tadmin\");\\r\\n        admins.pus...\n      DUP1 \t\t\tadmin\");\\r\\n        admins.pus...\n      PUSH [tag] 155\t\t\tadmin\");\\r\\n        admins.pus...\n      JUMPI \t\t\tadmin\");\\r\\n        admins.pus...\n      POP \t\t\t\n      PUSH 1FFC9A7\t\t\t\n      PUSH E0\t\t\t\n      SHL \t\t\t\n      PUSH 1\t\t\t\n      PUSH 1\t\t\t\n      PUSH E0\t\t\t\n      SHL \t\t\t\n      SUB \t\t\t\n      NOT \t\t\t\n      DUP4 \t\t\tdmins() public view onlyOwner ...\n      AND \t\t\tdmins() public view onlyOwner ...\n      EQ \t\t\tdmins() public view onlyOwner ...\n      PUSH [tag] 155\t\t\tfunction removeAdmin(address _...\n      JUMP \t\t\tins;\\r\\n\\r\\n    // Getter func...\n    tag 58\t\t\tmin() {\\r\\n        require(_is...\n      JUMPDEST \t\t\tmin() {\\r\\n        require(_is...\n      PUSH 60\t\t\tt an admin\");\n      PUSH 2\t\t\t\\r\\n\\r\\n\n      DUP1 \t\t\t\\r\\n    }\\r\\n\\r\\n\n      SLOAD \t\t\t\\r\\n    }\\r\\n\\r\\n\n      PUSH [tag] 219\t\t\t\\r\\n    }\\r\\n\\r\\n\n      SWAP1 \t\t\t\\r\\n    }\\r\\n\\r\\n\n      PUSH [tag] 166\t\t\t\\r\\n    }\\r\\n\\r\\n\n      JUMP \t\t\t\\r\\n    }\\r\\n\\r\\n\n    tag 219\t\t\t\\r\\n    }\\r\\n\\r\\n\n      JUMPDEST \t\t\t\\r\\n    }\\r\\n\\r\\n\n      DUP1 \t\t\t\\r\\n    }\\r\\n\\r\\n\n      PUSH 1F\t\t\t\\r\\n    }\\r\\n\\r\\n\n      ADD \t\t\t\\r\\n    }\\r\\n\\r\\n\n      PUSH 20\t\t\t\\r\\n    }\\r\\n\\r\\n\n      DUP1 \t\t\t\\r\\n    }\\r\\n\\r\\n\n      SWAP2 \t\t\t\\r\\n    }\\r\\n\\r\\n\n      DIV \t\t\t\\r\\n    }\\r\\n\\r\\n\n      MUL \t\t\t\\r\\n    }\\r\\n\\r\\n\n      PUSH 20\t\t\t\\r\\n    }\\r\\n\\r\\n\n      ADD \t\t\t\\r\\n    }\\r\\n\\r\\n\n      PUSH 40\t\t\t\\r\\n    }\\r\\n\\r\\n\n      MLOAD \t\t\t\\r\\n    }\\r\\n\\r\\n\n      SWAP1 \t\t\t\\r\\n    }\\r\\n\\r\\n\n      DUP2 \t\t\t\\r\\n    }\\r\\n\\r\\n\n      ADD \t\t\t\\r\\n    }\\r\\n\\r\\n\n      PUSH 40\t\t\t\\r\\n    }\\r\\n\\r\\n\n      MSTORE \t\t\t\\r\\n    }\\r\\n\\r\\n\n      DUP1 \t\t\t\\r\\n    }\\r\\n\\r\\n\n      SWAP3 \t\t\t\\r\\n    }\\r\\n\\r\\n\n      SWAP2 \t\t\t\\r\\n    }\\r\\n\\r\\n\n      SWAP1 \t\t\t\\r\\n    }\\r\\n\\r\\n\n      DUP2 \t\t\t\\r\\n    }\\r\\n\\r\\n\n      DUP2 \t\t\t\\r\\n    }\\r\\n\\r\\n\n      MSTORE \t\t\t\\r\\n    }\\r\\n\\r\\n\n      PUSH 20\t\t\t\\r\\n    }\\r\\n\\r\\n\n      ADD \t\t\t\\r\\n    }\\r\\n\\r\\n\n      DUP3 \t\t\t\\r\\n    }\\r\\n\\r\\n\n      DUP1 \t\t\t\\r\\n    }\\r\\n\\r\\n\n      SLOAD \t\t\t\\r\\n    }\\r\\n\\r\\n\n      PUSH [tag] 220\t\t\t\\r\\n    }\\r\\n\\r\\n\n      SWAP1 \t\t\t\\r\\n    }\\r\\n\\r\\n\n      PUSH [tag] 166\t\t\t\\r\\n    }\\r\\n\\r\\n\n      JUMP \t\t\t\\r\\n    }\\r\\n\\r\\n\n    tag 220\t\t\t\\r\\n    }\\r\\n\\r\\n\n      JUMPDEST \t\t\t\\r\\n    }\\r\\n\\r\\n\n      DUP1 \t\t\t\\r\\n    }\\r\\n\\r\\n\n      ISZERO \t\t\t\\r\\n    }\\r\\n\\r\\n\n      PUSH [tag] 221\t\t\t\\r\\n    }\\r\\n\\r\\n\n      JUMPI \t\t\t\\r\\n    }\\r\\n\\r\\n\n      DUP1 \t\t\t\\r\\n    }\\r\\n\\r\\n\n      PUSH 1F\t\t\t\\r\\n    }\\r\\n\\r\\n\n      LT \t\t\t\\r\\n    }\\r\\n\\r\\n\n      PUSH [tag] 222\t\t\t\\r\\n    }\\r\\n\\r\\n\n      JUMPI \t\t\t\\r\\n    }\\r\\n\\r\\n\n      PUSH 100\t\t\t\\r\\n    }\\r\\n\\r\\n\n      DUP1 \t\t\t\\r\\n    }\\r\\n\\r\\n\n      DUP4 \t\t\t\\r\\n    }\\r\\n\\r\\n\n      SLOAD \t\t\t\\r\\n    }\\r\\n\\r\\n\n      DIV \t\t\t\\r\\n    }\\r\\n\\r\\n\n      MUL \t\t\t\\r\\n    }\\r\\n\\r\\n\n      DUP4 \t\t\t\\r\\n    }\\r\\n\\r\\n\n      MSTORE \t\t\t\\r\\n    }\\r\\n\\r\\n\n      SWAP2 \t\t\t\\r\\n    }\\r\\n\\r\\n\n      PUSH 20\t\t\t\\r\\n    }\\r\\n\\r\\n\n      ADD \t\t\t\\r\\n    }\\r\\n\\r\\n\n      SWAP2 \t\t\t\\r\\n    }\\r\\n\\r\\n\n      PUSH [tag] 221\t\t\t\\r\\n    }\\r\\n\\r\\n\n      JUMP \t\t\t\\r\\n    }\\r\\n\\r\\n\n    tag 222\t\t\t\\r\\n    }\\r\\n\\r\\n\n      JUMPDEST \t\t\t\\r\\n    }\\r\\n\\r\\n\n      DUP3 \t\t\t\\r\\n    }\\r\\n\\r\\n\n      ADD \t\t\t\\r\\n    }\\r\\n\\r\\n\n      SWAP2 \t\t\t\\r\\n    }\\r\\n\\r\\n\n      SWAP1 \t\t\t\\r\\n    }\\r\\n\\r\\n\n      PUSH 0\t\t\t\\r\\n    }\\r\\n\\r\\n\n      MSTORE \t\t\t\\r\\n    }\\r\\n\\r\\n\n      PUSH 20\t\t\t\\r\\n    }\\r\\n\\r\\n\n      PUSH 0\t\t\t\\r\\n    }\\r\\n\\r\\n\n      KECCAK256 \t\t\t\\r\\n    }\\r\\n\\r\\n\n      SWAP1 \t\t\t\\r\\n    }\\r\\n\\r\\n\n    tag 223\t\t\t\\r\\n    }\\r\\n\\r\\n\n      JUMPDEST \t\t\t\\r\\n    }\\r\\n\\r\\n\n      DUP2 \t\t\t\\r\\n    }\\r\\n\\r\\n\n      SLOAD \t\t\t\\r\\n    }\\r\\n\\r\\n\n      DUP2 \t\t\t\\r\\n    }\\r\\n\\r\\n\n      MSTORE \t\t\t\\r\\n    }\\r\\n\\r\\n\n      SWAP1 \t\t\t\\r\\n    }\\r\\n\\r\\n\n      PUSH 1\t\t\t\\r\\n    }\\r\\n\\r\\n\n      ADD \t\t\t\\r\\n    }\\r\\n\\r\\n\n      SWAP1 \t\t\t\\r\\n    }\\r\\n\\r\\n\n      PUSH 20\t\t\t\\r\\n    }\\r\\n\\r\\n\n      ADD \t\t\t\\r\\n    }\\r\\n\\r\\n\n      DUP1 \t\t\t\\r\\n    }\\r\\n\\r\\n\n      DUP4 \t\t\t\\r\\n    }\\r\\n\\r\\n\n      GT \t\t\t\\r\\n    }\\r\\n\\r\\n\n      PUSH [tag] 223\t\t\t\\r\\n    }\\r\\n\\r\\n\n      JUMPI \t\t\t\\r\\n    }\\r\\n\\r\\n\n      DUP3 \t\t\t\\r\\n    }\\r\\n\\r\\n\n      SWAP1 \t\t\t\\r\\n    }\\r\\n\\r\\n\n      SUB \t\t\t\\r\\n    }\\r\\n\\r\\n\n      PUSH 1F\t\t\t\\r\\n    }\\r\\n\\r\\n\n      AND \t\t\t\\r\\n    }\\r\\n\\r\\n\n      DUP3 \t\t\t\\r\\n    }\\r\\n\\r\\n\n      ADD \t\t\t\\r\\n    }\\r\\n\\r\\n\n      SWAP2 \t\t\t\\r\\n    }\\r\\n\\r\\n\n    tag 221\t\t\t\\r\\n    }\\r\\n\\r\\n\n      JUMPDEST \t\t\t\\r\\n    }\\r\\n\\r\\n\n      POP \t\t\t\\r\\n    }\\r\\n\\r\\n\n      POP \t\t\t\\r\\n    }\\r\\n\\r\\n\n      POP \t\t\t\\r\\n    }\\r\\n\\r\\n\n      POP \t\t\t\\r\\n    }\\r\\n\\r\\n\n      POP \t\t\t\\r\\n    }\\r\\n\\r\\n\n      SWAP1 \t\t\t\\r\\n    }\\r\\n\\r\\n\n      POP \t\t\t\\r\\n    }\\r\\n\\r\\n\n      SWAP2 \t\t\tmin() {\\r\\n        require(_is...\n      SWAP1 \t\t\tmin() {\\r\\n        require(_is...\n      POP \t\t\tmin() {\\r\\n        require(_is...\n      JUMP \t\t\tmin() {\\r\\n        require(_is...\n    tag 64\t\t\tfunction removeAdmin(address _...\n      JUMPDEST \t\t\tfunction removeAdmin(address _...\n      PUSH [tag] 225\t\t\t  admins.push\n      PUSH [tag] 226\t\t\t  admins.pu\n      JUMP \t\t\t  admins.push\n    tag 225\t\t\t  admins.push\n      JUMPDEST \t\t\t  admins.push\n      PUSH 4\t\t\tadmins\n      SLOAD \t\t\tadmins.length\n      PUSH 0\t\t\tuint len\n    tag 228\t\t\tfor (uint i = 0; i < len; i++)...\n      JUMPDEST \t\t\tfor (uint i = 0; i < len; i++)...\n      DUP2 \t\t\tlen\n      DUP2 \t\t\ti\n      LT \t\t\ti < len\n      ISZERO \t\t\tfor (uint i = 0; i < len; i++)...\n      PUSH [tag] 229\t\t\tfor (uint i = 0; i < len; i++)...\n      JUMPI \t\t\tfor (uint i = 0; i < len; i++)...\n      DUP3 \t\t\t_admin\n      PUSH 1\t\t\t\n      PUSH 1\t\t\t\n      PUSH A0\t\t\t\n      SHL \t\t\t\n      SUB \t\t\t\n      AND \t\t\tadmins[i] == _admin\n      PUSH 4\t\t\tadmins\n      DUP3 \t\t\ti\n      DUP2 \t\t\tadmins[i]\n      SLOAD \t\t\tadmins[i]\n      DUP2 \t\t\tadmins[i]\n      LT \t\t\tadmins[i]\n      PUSH [tag] 232\t\t\tadmins[i]\n      JUMPI \t\t\tadmins[i]\n      PUSH [tag] 232\t\t\tadmins[i]\n      PUSH [tag] 164\t\t\tadmins[i]\n      JUMP \t\t\tadmins[i]\n    tag 232\t\t\tadmins[i]\n      JUMPDEST \t\t\tadmins[i]\n      PUSH 0\t\t\tadmins[i]\n      SWAP2 \t\t\tadmins[i]\n      DUP3 \t\t\tadmins[i]\n      MSTORE \t\t\tadmins[i]\n      PUSH 20\t\t\tadmins[i]\n      SWAP1 \t\t\tadmins[i]\n      SWAP2 \t\t\tadmins[i]\n      KECCAK256 \t\t\tadmins[i]\n      ADD \t\t\tadmins[i]\n      SLOAD \t\t\tadmins[i]\n      PUSH 1\t\t\t\n      PUSH 1\t\t\t\n      PUSH A0\t\t\t\n      SHL \t\t\t\n      SUB \t\t\t\n      AND \t\t\tadmins[i]\n      SUB \t\t\tadmins[i] == _admin\n      PUSH [tag] 234\t\t\tif (admins[i] == _admin) {\\r\\n...\n      JUMPI \t\t\tif (admins[i] == _admin) {\\r\\n...\n      PUSH 4\t\t\tadmins\n      PUSH [tag] 235\t\t\tlen - 1\n      PUSH 1\t\t\t1\n      DUP5 \t\t\tlen\n      PUSH [tag] 236\t\t\tlen - 1\n      JUMP \t\t\tlen - 1\n    tag 235\t\t\tlen - 1\n      JUMPDEST \t\t\tlen - 1\n      DUP2 \t\t\tadmins[len - 1]\n      SLOAD \t\t\tadmins[len - 1]\n      DUP2 \t\t\tadmins[len - 1]\n      LT \t\t\tadmins[len - 1]\n      PUSH [tag] 238\t\t\tadmins[len - 1]\n      JUMPI \t\t\tadmins[len - 1]\n      PUSH [tag] 238\t\t\tadmins[len - 1]\n      PUSH [tag] 164\t\t\tadmins[len - 1]\n      JUMP \t\t\tadmins[len - 1]\n    tag 238\t\t\tadmins[len - 1]\n      JUMPDEST \t\t\tadmins[len - 1]\n      PUSH 0\t\t\tadmins[len - 1]\n      SWAP2 \t\t\tadmins[len - 1]\n      DUP3 \t\t\tadmins[len - 1]\n      MSTORE \t\t\tadmins[len - 1]\n      PUSH 20\t\t\tadmins[len - 1]\n      SWAP1 \t\t\tadmins[len - 1]\n      SWAP2 \t\t\tadmins[len - 1]\n      KECCAK256 \t\t\tadmins[len - 1]\n      ADD \t\t\tadmins[len - 1]\n      SLOAD \t\t\tadmins[len - 1]\n      PUSH 4\t\t\tadmins\n      DUP1 \t\t\tadmins[i]\n      SLOAD \t\t\tadmins[i]\n      PUSH 1\t\t\t\n      PUSH 1\t\t\t\n      PUSH A0\t\t\t\n      SHL \t\t\t\n      SUB \t\t\t\n      SWAP1 \t\t\tadmins[len - 1]\n      SWAP3 \t\t\tadmins[len - 1]\n      AND \t\t\tadmins[len - 1]\n      SWAP2 \t\t\tadmins[len - 1]\n      DUP4 \t\t\ti\n      SWAP1 \t\t\ti\n      DUP2 \t\t\tadmins[i]\n      LT \t\t\tadmins[i]\n      PUSH [tag] 241\t\t\tadmins[i]\n      JUMPI \t\t\tadmins[i]\n      PUSH [tag] 241\t\t\tadmins[i]\n      PUSH [tag] 164\t\t\tadmins[i]\n      JUMP \t\t\tadmins[i]\n    tag 241\t\t\tadmins[i]\n      JUMPDEST \t\t\tadmins[i]\n      SWAP1 \t\t\tadmins[i]\n      PUSH 0\t\t\tadmins[i]\n      MSTORE \t\t\tadmins[i]\n      PUSH 20\t\t\tadmins[i]\n      PUSH 0\t\t\tadmins[i]\n      KECCAK256 \t\t\tadmins[i]\n      ADD \t\t\tadmins[i]\n      PUSH 0\t\t\tadmins[i]\n      PUSH 100\t\t\tadmins[i] = admins[len - 1]\n      EXP \t\t\tadmins[i] = admins[len - 1]\n      DUP2 \t\t\tadmins[i] = admins[len - 1]\n      SLOAD \t\t\tadmins[i] = admins[len - 1]\n      DUP2 \t\t\tadmins[i] = admins[len - 1]\n      PUSH 1\t\t\t\n      PUSH 1\t\t\t\n      PUSH A0\t\t\t\n      SHL \t\t\t\n      SUB \t\t\t\n      MUL \t\t\tadmins[i] = admins[len - 1]\n      NOT \t\t\tadmins[i] = admins[len - 1]\n      AND \t\t\tadmins[i] = admins[len - 1]\n      SWAP1 \t\t\tadmins[i] = admins[len - 1]\n      DUP4 \t\t\tadmins[i] = admins[len - 1]\n      PUSH 1\t\t\t\n      PUSH 1\t\t\t\n      PUSH A0\t\t\t\n      SHL \t\t\t\n      SUB \t\t\t\n      AND \t\t\tadmins[i] = admins[len - 1]\n      MUL \t\t\tadmins[i] = admins[len - 1]\n      OR \t\t\tadmins[i] = admins[len - 1]\n      SWAP1 \t\t\tadmins[i] = admins[len - 1]\n      SSTORE \t\t\tadmins[i] = admins[len - 1]\n      POP \t\t\tadmins[i] = admins[len - 1]\n      PUSH 4\t\t\tadmins\n      DUP1 \t\t\tadmins.pop()\n      SLOAD \t\t\tadmins.pop()\n      DUP1 \t\t\tadmins.pop()\n      PUSH [tag] 244\t\t\tadmins.pop()\n      JUMPI \t\t\tadmins.pop()\n      PUSH [tag] 244\t\t\tadmins.pop()\n      PUSH [tag] 245\t\t\tadmins.pop()\n      JUMP \t\t\tadmins.pop()\n    tag 244\t\t\tadmins.pop()\n      JUMPDEST \t\t\tadmins.pop()\n      PUSH 0\t\t\tadmins.pop()\n      DUP3 \t\t\tadmins.pop()\n      DUP2 \t\t\tadmins.pop()\n      MSTORE \t\t\tadmins.pop()\n      PUSH 20\t\t\tadmins.pop()\n      SWAP1 \t\t\tadmins.pop()\n      KECCAK256 \t\t\tadmins.pop()\n      DUP2 \t\t\tadmins.pop()\n      ADD \t\t\tadmins.pop()\n      PUSH 0\t\t\t\n      NOT \t\t\t\n      SWAP1 \t\t\tadmins.pop()\n      DUP2 \t\t\tadmins.pop()\n      ADD \t\t\tadmins.pop()\n      DUP1 \t\t\tadmins.pop()\n      SLOAD \t\t\tadmins.pop()\n      PUSH 1\t\t\t\n      PUSH 1\t\t\t\n      PUSH A0\t\t\t\n      SHL \t\t\t\n      SUB \t\t\t\n      NOT \t\t\t\n      AND \t\t\tadmins.pop()\n      SWAP1 \t\t\tadmins.pop()\n      SSTORE \t\t\tadmins.pop()\n      ADD \t\t\tadmins.pop()\n      SWAP1 \t\t\tadmins.pop()\n      SSTORE \t\t\tadmins.pop()\n      POP \t\t\t\n      PUSH [tag] 227\t\t\treturn;\n      SWAP1 \t\t\treturn;\n      POP \t\t\t\n      JUMP \t\t\treturn;\n    tag 234\t\t\tif (admins[i] == _admin) {\\r\\n...\n      JUMPDEST \t\t\tif (admins[i] == _admin) {\\r\\n...\n      DUP1 \t\t\ti++\n      PUSH [tag] 247\t\t\ti++\n      DUP2 \t\t\ti++\n      PUSH [tag] 169\t\t\ti++\n      JUMP \t\t\ti++\n    tag 247\t\t\ti++\n      JUMPDEST \t\t\ti++\n      SWAP2 \t\t\ti++\n      POP \t\t\ti++\n      POP \t\t\ti++\n      PUSH [tag] 228\t\t\tfor (uint i = 0; i < len; i++)...\n      JUMP \t\t\tfor (uint i = 0; i < len; i++)...\n    tag 229\t\t\tfor (uint i = 0; i < len; i++)...\n      JUMPDEST \t\t\tfor (uint i = 0; i < len; i++)...\n      POP \t\t\t\n      PUSH 40\t\t\trevert(\"Admin not found\")\n      MLOAD \t\t\trevert(\"Admin not found\")\n      PUSH 461BCD\t\t\t\n      PUSH E5\t\t\t\n      SHL \t\t\t\n      DUP2 \t\t\trevert(\"Admin not found\")\n      MSTORE \t\t\trevert(\"Admin not found\")\n      PUSH 20\t\t\t\n      PUSH 4\t\t\trevert(\"Admin not found\")\n      DUP3 \t\t\trevert(\"Admin not found\")\n      ADD \t\t\trevert(\"Admin not found\")\n      MSTORE \t\t\t\n      PUSH F\t\t\t\n      PUSH 24\t\t\t\n      DUP3 \t\t\t\n      ADD \t\t\t\n      MSTORE \t\t\t\n      PUSH 10591B5A5B881B9BDD08199BDD5B99\t\t\t\n      PUSH 8A\t\t\t\n      SHL \t\t\t\n      PUSH 44\t\t\t\n      DUP3 \t\t\t\n      ADD \t\t\t\n      MSTORE \t\t\t\n      PUSH 64\t\t\t\n      ADD \t\t\t\n    tag 248\t\t\trevert(\"Admin not found\")\n      JUMPDEST \t\t\trevert(\"Admin not found\")\n      PUSH 40\t\t\trevert(\"Admin not found\")\n      MLOAD \t\t\trevert(\"Admin not found\")\n      DUP1 \t\t\trevert(\"Admin not found\")\n      SWAP2 \t\t\trevert(\"Admin not found\")\n      SUB \t\t\trevert(\"Admin not found\")\n      SWAP1 \t\t\trevert(\"Admin not found\")\n      REVERT \t\t\trevert(\"Admin not found\")\n    tag 227\t\t\t\\n\n      JUMPDEST \t\t\t\\n\n      POP \t\t\tfunction removeAdmin(address _...\n      JUMP \t\t\tfunction removeAdmin(address _...\n    tag 72\t\t\ton mintToken(address to, uint2...\n      JUMPDEST \t\t\ton mintToken(address to, uint2...\n      PUSH [tag] 251\t\t\t  admins.push\n      PUSH [tag] 226\t\t\t  admins.pu\n      JUMP \t\t\t  admins.push\n    tag 251\t\t\t  admins.push\n      JUMPDEST \t\t\t  admins.push\n      DUP1 \t\t\tname).length > 0, \"Nam\n      PUSH [tag] 253\t\t\te(bytes(name).length > 0, \"Nam...\n      JUMPI \t\t\te(bytes(name).length > 0, \"Nam...\n      PUSH 40\t\t\te(bytes(name).length > 0, \"Nam...\n      MLOAD \t\t\te(bytes(name).length > 0, \"Nam...\n      PUSH 461BCD\t\t\t\n      PUSH E5\t\t\t\n      SHL \t\t\t\n      DUP2 \t\t\te(bytes(name).length > 0, \"Nam...\n      MSTORE \t\t\te(bytes(name).length > 0, \"Nam...\n      PUSH 20\t\t\t\n      PUSH 4\t\t\te(bytes(name).length > 0, \"Nam...\n      DUP3 \t\t\te(bytes(name).length > 0, \"Nam...\n      ADD \t\t\te(bytes(name).length > 0, \"Nam...\n      MSTORE \t\t\t\n      PUSH D\t\t\t\n      PUSH 24\t\t\t\n      DUP3 \t\t\t\n      ADD \t\t\t\n      MSTORE \t\t\t\n      PUSH 13985B59481C995C5D5A5C9959\t\t\t\n      PUSH 9A\t\t\t\n      SHL \t\t\t\n      PUSH 44\t\t\t\n      DUP3 \t\t\t\n      ADD \t\t\t\n      MSTORE \t\t\t\n      PUSH 64\t\t\t\n      ADD \t\t\t\n      PUSH [tag] 248\t\t\te(bytes(name).length > 0, \"Nam...\n      JUMP \t\t\t\n    tag 253\t\t\te(bytes(name).length > 0, \"Nam...\n      JUMPDEST \t\t\te(bytes(name).length > 0, \"Nam...\n      PUSH 0\t\t\t6 tokenID = 0;\\r\n      DUP1 \t\t\tound = fal\n      PUSH 0\t\t\t6[] memory ids = _al\n      PUSH [tag] 256\t\t\tkenIDs.values();\\r\\n   \n      PUSH 5\t\t\tkenIDs.value\n      PUSH [tag] 257\t\t\tkenIDs.values();\\r\\n \n      JUMP \t\t\tkenIDs.values();\\r\\n   \n    tag 256\t\t\tkenIDs.values();\\r\\n   \n      JUMPDEST \t\t\tkenIDs.values();\\r\\n   \n      SWAP1 \t\t\t6[] memory ids = _allTokenIDs....\n      POP \t\t\t6[] memory ids = _allTokenIDs....\n      PUSH 0\t\t\t6 i = 0; \n    tag 258\t\t\tint256 i = 0; i < ids.length; ...\n      JUMPDEST \t\t\tint256 i = 0; i < ids.length; ...\n      DUP2 \t\t\tngt\n      MLOAD \t\t\tngth; i++)\n      DUP2 \t\t\ts\n      LT \t\t\ts.length; i++)\n      ISZERO \t\t\tint256 i = 0; i < ids.length; ...\n      PUSH [tag] 259\t\t\tint256 i = 0; i < ids.length; ...\n      JUMPI \t\t\tint256 i = 0; i < ids.length; ...\n      DUP6 \t\t\t) {\\r\n      DUP6 \t\t\t) {\\r\n      PUSH 40\t\t\t256(bytes(name))) {\\r\\n \n      MLOAD \t\t\t256(bytes(name))) {\\r\\n \n      PUSH [tag] 261\t\t\t256(bytes(name))) {\\r\\n \n      SWAP3 \t\t\t256(bytes(name))) {\\r\\n \n      SWAP2 \t\t\t256(bytes(name))) {\\r\\n \n      SWAP1 \t\t\t256(bytes(name))) {\\r\\n \n      PUSH [tag] 262\t\t\t256(bytes(name))) {\\r\\n \n      JUMP \t\t\t256(bytes(name))) {\\r\\n \n    tag 261\t\t\t256(bytes(name))) {\\r\\n \n      JUMPDEST \t\t\t256(bytes(name))) {\\r\\n \n      PUSH 40\t\t\t256(bytes(name))) {\\r\\n \n      MLOAD \t\t\t256(bytes(name))) {\\r\\n \n      DUP1 \t\t\t256(bytes(name))) {\\r\\n \n      SWAP2 \t\t\t256(bytes(name))) {\\r\\n \n      SUB \t\t\t256(bytes(name))) {\\r\\n \n      SWAP1 \t\t\t256(bytes(name))) {\\r\\n \n      KECCAK256 \t\t\t256(bytes(name))) {\\r\\n \n      PUSH 7\t\t\tame[ids[i\n      PUSH 0\t\t\tame[ids[i]])) == \n      DUP5 \t\t\t]))\n      DUP5 \t\t\t=\n      DUP2 \t\t\t])) ==\n      MLOAD \t\t\t])) ==\n      DUP2 \t\t\t])) ==\n      LT \t\t\t])) ==\n      PUSH [tag] 264\t\t\t])) ==\n      JUMPI \t\t\t])) ==\n      PUSH [tag] 264\t\t\t])) ==\n      PUSH [tag] 164\t\t\t])) ==\n      JUMP \t\t\t])) ==\n    tag 264\t\t\t])) ==\n      JUMPDEST \t\t\t])) ==\n      PUSH 20\t\t\t])) ==\n      MUL \t\t\t])) ==\n      PUSH 20\t\t\t])) ==\n      ADD \t\t\t])) ==\n      ADD \t\t\t])) ==\n      MLOAD \t\t\t])) ==\n      DUP2 \t\t\tame[ids[i]])) == \n      MSTORE \t\t\tame[ids[i]])) == \n      PUSH 20\t\t\tame[ids[i]])) == \n      ADD \t\t\tame[ids[i]])) == \n      SWAP1 \t\t\tame[ids[i]])) == \n      DUP2 \t\t\tame[ids[i]])) == \n      MSTORE \t\t\tame[ids[i]])) == \n      PUSH 20\t\t\tame[ids[i]])) == \n      ADD \t\t\tame[ids[i]])) == \n      PUSH 0\t\t\tame[ids[i]])) == \n      KECCAK256 \t\t\tame[ids[i]])) == \n      PUSH 40\t\t\t256(bytes(tokenName[ids[i]])) ...\n      MLOAD \t\t\t256(bytes(tokenName[ids[i]])) ...\n      PUSH [tag] 265\t\t\t256(bytes(tokenName[ids[i]])) ...\n      SWAP2 \t\t\t256(bytes(tokenName[ids[i]])) ...\n      SWAP1 \t\t\t256(bytes(tokenName[ids[i]])) ...\n      PUSH [tag] 266\t\t\t256(bytes(tokenName[ids[i]])) ...\n      JUMP \t\t\t256(bytes(tokenName[ids[i]])) ...\n    tag 265\t\t\t256(bytes(tokenName[ids[i]])) ...\n      JUMPDEST \t\t\t256(bytes(tokenName[ids[i]])) ...\n      PUSH 40\t\t\t256(bytes(tokenName[ids[i]])) ...\n      MLOAD \t\t\t256(bytes(tokenName[ids[i]])) ...\n      DUP1 \t\t\t256(bytes(tokenName[ids[i]])) ...\n      SWAP2 \t\t\t256(bytes(tokenName[ids[i]])) ...\n      SUB \t\t\t256(bytes(tokenName[ids[i]])) ...\n      SWAP1 \t\t\t256(bytes(tokenName[ids[i]])) ...\n      KECCAK256 \t\t\t256(bytes(tokenName[ids[i]])) ...\n      SUB \t\t\t256(bytes(tokenName[ids[i]])) ...\n      PUSH [tag] 267\t\t\tccak256(bytes(tokenName[ids[i]...\n      JUMPI \t\t\tccak256(bytes(tokenName[ids[i]...\n      DUP2 \t\t\t;\\r\\n\n      DUP2 \t\t\t \n      DUP2 \t\t\t;\\r\\n   \n      MLOAD \t\t\t;\\r\\n   \n      DUP2 \t\t\t;\\r\\n   \n      LT \t\t\t;\\r\\n   \n      PUSH [tag] 269\t\t\t;\\r\\n   \n      JUMPI \t\t\t;\\r\\n   \n      PUSH [tag] 269\t\t\t;\\r\\n   \n      PUSH [tag] 164\t\t\t;\\r\\n   \n      JUMP \t\t\t;\\r\\n   \n    tag 269\t\t\t;\\r\\n   \n      JUMPDEST \t\t\t;\\r\\n   \n      PUSH 20\t\t\t;\\r\\n   \n      MUL \t\t\t;\\r\\n   \n      PUSH 20\t\t\t;\\r\\n   \n      ADD \t\t\t;\\r\\n   \n      ADD \t\t\t;\\r\\n   \n      MLOAD \t\t\t;\\r\\n   \n      SWAP4 \t\t\tD = ids[i];\\r\\n   \n      POP \t\t\tD = ids[i];\\r\\n   \n      PUSH 1\t\t\t\\n   \n      SWAP3 \t\t\t= true;\\r\\n   \n      POP \t\t\t= true;\\r\\n   \n      PUSH [tag] 259\t\t\t\\r\\n   \n      JUMP \t\t\t\\r\\n   \n    tag 267\t\t\tccak256(bytes(tokenName[ids[i]...\n      JUMPDEST \t\t\tccak256(bytes(tokenName[ids[i]...\n      DUP1 \t\t\t\\r\\n \n      PUSH [tag] 270\t\t\t\\r\\n \n      DUP2 \t\t\t\\r\\n \n      PUSH [tag] 169\t\t\t\\r\\n \n      JUMP \t\t\t\\r\\n \n    tag 270\t\t\t\\r\\n \n      JUMPDEST \t\t\t\\r\\n \n      SWAP2 \t\t\t\\r\\n \n      POP \t\t\t\\r\\n \n      POP \t\t\t\\r\\n \n      PUSH [tag] 258\t\t\tint256 i = 0; i < ids.length; ...\n      JUMP \t\t\tint256 i = 0; i < ids.length; ...\n    tag 259\t\t\tint256 i = 0; i < ids.length; ...\n      JUMPDEST \t\t\tint256 i = 0; i < ids.length; ...\n      POP \t\t\tint256 i = 0; i < ids.length; ...\n      DUP2 \t\t\t {\\r\\n \n      ISZERO \t\t\tund) {\\r\\n            _mint(to...\n      PUSH [tag] 271\t\t\tund) {\\r\\n            _mint(to...\n      JUMPI \t\t\tund) {\\r\\n            _mint(to...\n      PUSH [tag] 272\t\t\tto, tokenID, amount, data);\\r\\...\n      DUP10 \t\t\tke\n      DUP5 \t\t\tD, amou\n      DUP11 \t\t\t, data\n      DUP11 \t\t\t\\r\\n  \n      DUP11 \t\t\t\\r\\n  \n      DUP1 \t\t\tto, tokenID, amount, data);\\r\\...\n      DUP1 \t\t\tto, tokenID, amount, data);\\r\\...\n      PUSH 1F\t\t\tto, tokenID, amount, data);\\r\\...\n      ADD \t\t\tto, tokenID, amount, data);\\r\\...\n      PUSH 20\t\t\tto, tokenID, amount, data);\\r\\...\n      DUP1 \t\t\tto, tokenID, amount, data);\\r\\...\n      SWAP2 \t\t\tto, tokenID, amount, data);\\r\\...\n      DIV \t\t\tto, tokenID, amount, data);\\r\\...\n      MUL \t\t\tto, tokenID, amount, data);\\r\\...\n      PUSH 20\t\t\tto, tokenID, amount, data);\\r\\...\n      ADD \t\t\tto, tokenID, amount, data);\\r\\...\n      PUSH 40\t\t\tto, tokenID, amount, data);\\r\\...\n      MLOAD \t\t\tto, tokenID, amount, data);\\r\\...\n      SWAP1 \t\t\tto, tokenID, amount, data);\\r\\...\n      DUP2 \t\t\tto, tokenID, amount, data);\\r\\...\n      ADD \t\t\tto, tokenID, amount, data);\\r\\...\n      PUSH 40\t\t\tto, tokenID, amount, data);\\r\\...\n      MSTORE \t\t\tto, tokenID, amount, data);\\r\\...\n      DUP1 \t\t\tto, tokenID, amount, data);\\r\\...\n      SWAP4 \t\t\tto, tokenID, amount, data);\\r\\...\n      SWAP3 \t\t\tto, tokenID, amount, data);\\r\\...\n      SWAP2 \t\t\tto, tokenID, amount, data);\\r\\...\n      SWAP1 \t\t\tto, tokenID, amount, data);\\r\\...\n      DUP2 \t\t\tto, tokenID, amount, data);\\r\\...\n      DUP2 \t\t\tto, tokenID, amount, data);\\r\\...\n      MSTORE \t\t\tto, tokenID, amount, data);\\r\\...\n      PUSH 20\t\t\tto, tokenID, amount, data);\\r\\...\n      ADD \t\t\tto, tokenID, amount, data);\\r\\...\n      DUP4 \t\t\tto, tokenID, amount, data);\\r\\...\n      DUP4 \t\t\tto, tokenID, amount, data);\\r\\...\n      DUP1 \t\t\tto, tokenID, amount, data);\\r\\...\n      DUP3 \t\t\tto, tokenID, amount, data);\\r\\...\n      DUP5 \t\t\tto, tokenID, amount, data);\\r\\...\n      CALLDATACOPY \t\t\tto, tokenID, amount, data);\\r\\...\n      PUSH 0\t\t\tto, tokenID, amount, data);\\r\\...\n      SWAP3 \t\t\tto, tokenID, amount, data);\\r\\...\n      ADD \t\t\tto, tokenID, amount, data);\\r\\...\n      SWAP2 \t\t\tto, tokenID, amount, data);\\r\\...\n      SWAP1 \t\t\tto, tokenID, amount, data);\\r\\...\n      SWAP2 \t\t\tto, tokenID, amount, data);\\r\\...\n      MSTORE \t\t\tto, tokenID, amount, data);\\r\\...\n      POP \t\t\t\n      PUSH [tag] 273\t\t\tto, t\n      SWAP3 \t\t\tto, t\n      POP \t\t\t\n      POP \t\t\t\n      POP \t\t\t\n      JUMP \t\t\tto, tokenID, amount, data);\\r\\...\n    tag 272\t\t\tto, tokenID, amount, data);\\r\\...\n      JUMPDEST \t\t\tto, tokenID, amount, data);\\r\\...\n      PUSH [tag] 274\t\t\tund) {\\r\\n            _mint(to...\n      JUMP \t\t\tund) {\\r\\n            _mint(to...\n    tag 271\t\t\tund) {\\r\\n            _mint(to...\n      JUMPDEST \t\t\tund) {\\r\\n            _mint(to...\n      PUSH 0\t\t\tnewID;\\r\\n     \n      DUP1 \t\t\tnewID;\\r\\n     \n    tag 275\t\t\t              newID = 1000 + (...\n      JUMPDEST \t\t\t              newID = 1000 + (...\n      PUSH 15F90\t\t\t\\n    \n      TIMESTAMP \t\t\tmestamp, block.\n      PREVRANDAO \t\t\tevrandao, to, na\n      DUP14 \t\t\t, \n      DUP11 \t\t\ttemp\n      DUP11 \t\t\ttemp\n      DUP7 \t\t\t))) % 90\n      PUSH 40\t\t\tdePacked(block.timestamp, bloc...\n      MLOAD \t\t\tdePacked(block.timestamp, bloc...\n      PUSH 20\t\t\tdePacked(block.timestamp, bloc...\n      ADD \t\t\tdePacked(block.timestamp, bloc...\n      PUSH [tag] 278\t\t\tdePacked(block.timestamp, bloc...\n      SWAP7 \t\t\tdePacked(block.timestamp, bloc...\n      SWAP6 \t\t\tdePacked(block.timestamp, bloc...\n      SWAP5 \t\t\tdePacked(block.timestamp, bloc...\n      SWAP4 \t\t\tdePacked(block.timestamp, bloc...\n      SWAP3 \t\t\tdePacked(block.timestamp, bloc...\n      SWAP2 \t\t\tdePacked(block.timestamp, bloc...\n      SWAP1 \t\t\tdePacked(block.timestamp, bloc...\n      PUSH [tag] 279\t\t\tdePacked(block.timestamp, bloc...\n      JUMP \t\t\tdePacked(block.timestamp, bloc...\n    tag 278\t\t\tdePacked(block.timestamp, bloc...\n      JUMPDEST \t\t\tdePacked(block.timestamp, bloc...\n      PUSH 40\t\t\tdePacked(block.timestamp, bloc...\n      MLOAD \t\t\tdePacked(block.timestamp, bloc...\n      PUSH 20\t\t\tdePacked(block.timestamp, bloc...\n      DUP2 \t\t\tdePacked(block.timestamp, bloc...\n      DUP4 \t\t\tdePacked(block.timestamp, bloc...\n      SUB \t\t\tdePacked(block.timestamp, bloc...\n      SUB \t\t\tdePacked(block.timestamp, bloc...\n      DUP2 \t\t\tdePacked(block.timestamp, bloc...\n      MSTORE \t\t\tdePacked(block.timestamp, bloc...\n      SWAP1 \t\t\tdePacked(block.timestamp, bloc...\n      PUSH 40\t\t\tdePacked(block.timestamp, bloc...\n      MSTORE \t\t\tdePacked(block.timestamp, bloc...\n      DUP1 \t\t\t6(abi.encodePacked(block.times...\n      MLOAD \t\t\t6(abi.encodePacked(block.times...\n      SWAP1 \t\t\t6(abi.encodePacked(block.times...\n      PUSH 20\t\t\t6(abi.encodePacked(block.times...\n      ADD \t\t\t6(abi.encodePacked(block.times...\n      KECCAK256 \t\t\t6(abi.encodePacked(block.times...\n      PUSH 0\t\t\tkeccak256(abi.encodePacked(blo...\n      SHR \t\t\tkeccak256(abi.encodePacked(blo...\n      PUSH [tag] 280\t\t\tkeccak256(abi.encodePacked(blo...\n      SWAP2 \t\t\tkeccak256(abi.encodePacked(blo...\n      SWAP1 \t\t\tkeccak256(abi.encodePacked(blo...\n      PUSH [tag] 281\t\t\tkeccak256(abi.encodePacked(blo...\n      JUMP \t\t\tkeccak256(abi.encodePacked(blo...\n    tag 280\t\t\tkeccak256(abi.encodePacked(blo...\n      JUMPDEST \t\t\tkeccak256(abi.encodePacked(blo...\n      PUSH [tag] 282\t\t\tuint256(keccak256(abi.encodePa...\n      SWAP1 \t\t\tuint256(keccak256(abi.encodePa...\n      PUSH 3E8\t\t\tuint\n      PUSH [tag] 283\t\t\tuint256(keccak256(abi.encodePa...\n      JUMP \t\t\tuint256(keccak256(abi.encodePa...\n    tag 282\t\t\tuint256(keccak256(abi.encodePa...\n      JUMPDEST \t\t\tuint256(keccak256(abi.encodePa...\n      SWAP2 \t\t\t1000 + (uint256(keccak256(abi....\n      POP \t\t\t\n      DUP1 \t\t\t++;\\r\\n     \n      PUSH [tag] 284\t\t\t++;\\r\\n     \n      DUP2 \t\t\t++;\\r\\n     \n      PUSH [tag] 169\t\t\t++;\\r\\n     \n      JUMP \t\t\t++;\\r\\n     \n    tag 284\t\t\t++;\\r\\n     \n      JUMPDEST \t\t\t++;\\r\\n     \n      SWAP2 \t\t\t++;\\r\\n     \n      POP \t\t\t++;\\r\\n     \n      POP \t\t\t++;\\r\\n     \n      PUSH 64\t\t\tabl\n      DUP2 \t\t\t < 100, \n      LT \t\t\t < 100, \"Unabl\n      PUSH [tag] 285\t\t\tattempts < 100, \"Unable to fin...\n      JUMPI \t\t\tattempts < 100, \"Unable to fin...\n      PUSH 40\t\t\tattempts < 100, \"Unable to fin...\n      MLOAD \t\t\tattempts < 100, \"Unable to fin...\n      PUSH 461BCD\t\t\t\n      PUSH E5\t\t\t\n      SHL \t\t\t\n      DUP2 \t\t\tattempts < 100, \"Unable to fin...\n      MSTORE \t\t\tattempts < 100, \"Unable to fin...\n      PUSH 20\t\t\t\n      PUSH 4\t\t\tattempts < 100, \"Unable to fin...\n      DUP3 \t\t\tattempts < 100, \"Unable to fin...\n      ADD \t\t\tattempts < 100, \"Unable to fin...\n      MSTORE \t\t\t\n      PUSH 24\t\t\t\n      DUP1 \t\t\t\n      DUP3 \t\t\t\n      ADD \t\t\t\n      MSTORE \t\t\t\n      PUSH 556E61626C6520746F2066696E6420756E697175652073686F727420746F6B65\t\t\t\n      PUSH 44\t\t\t\n      DUP3 \t\t\t\n      ADD \t\t\t\n      MSTORE \t\t\t\n      PUSH 1B881251\t\t\t\n      PUSH E2\t\t\t\n      SHL \t\t\t\n      PUSH 64\t\t\t\n      DUP3 \t\t\t\n      ADD \t\t\t\n      MSTORE \t\t\t\n      PUSH 84\t\t\t\n      ADD \t\t\t\n      PUSH [tag] 248\t\t\tattempts < 100, \"Unable to fin...\n      JUMP \t\t\t\n    tag 285\t\t\tattempts < 100, \"Unable to fin...\n      JUMPDEST \t\t\tattempts < 100, \"Unable to fin...\n      PUSH [tag] 288\t\t\tnIDs.contains(newID));\\r\\n    \n      PUSH 5\t\t\tnIDs.contain\n      DUP4 \t\t\t\\r\\n   \n      PUSH [tag] 289\t\t\tnIDs.contains(newID))\n      JUMP \t\t\tnIDs.contains(newID));\\r\\n    \n    tag 288\t\t\tnIDs.contains(newID));\\r\\n    \n      JUMPDEST \t\t\tnIDs.contains(newID));\\r\\n    \n      PUSH [tag] 275\t\t\t              newID = 1000 + (...\n      JUMPI \t\t\t              newID = 1000 + (...\n      PUSH [tag] 290\t\t\tnIDs.add(newID), \"Token\n      PUSH 5\t\t\tnIDs.add(new\n      DUP4 \t\t\t\"Toke\n      PUSH [tag] 291\t\t\tnIDs.add(newID),\n      JUMP \t\t\tnIDs.add(newID), \"Token\n    tag 290\t\t\tnIDs.add(newID), \"Token\n      JUMPDEST \t\t\tnIDs.add(newID), \"Token\n      PUSH [tag] 292\t\t\t_allTokenIDs.add(newID), \"Toke...\n      JUMPI \t\t\t_allTokenIDs.add(newID), \"Toke...\n      PUSH 40\t\t\t_allTokenIDs.add(newID), \"Toke...\n      MLOAD \t\t\t_allTokenIDs.add(newID), \"Toke...\n      PUSH 461BCD\t\t\t\n      PUSH E5\t\t\t\n      SHL \t\t\t\n      DUP2 \t\t\t_allTokenIDs.add(newID), \"Toke...\n      MSTORE \t\t\t_allTokenIDs.add(newID), \"Toke...\n      PUSH 20\t\t\t\n      PUSH 4\t\t\t_allTokenIDs.add(newID), \"Toke...\n      DUP3 \t\t\t_allTokenIDs.add(newID), \"Toke...\n      ADD \t\t\t_allTokenIDs.add(newID), \"Toke...\n      MSTORE \t\t\t\n      PUSH C\t\t\t\n      PUSH 24\t\t\t\n      DUP3 \t\t\t\n      ADD \t\t\t\n      MSTORE \t\t\t\n      PUSH 2A37B5B2B724A22A30B5B2B7\t\t\t\n      PUSH A1\t\t\t\n      SHL \t\t\t\n      PUSH 44\t\t\t\n      DUP3 \t\t\t\n      ADD \t\t\t\n      MSTORE \t\t\t\n      PUSH 64\t\t\t\n      ADD \t\t\t\n      PUSH [tag] 248\t\t\t_allTokenIDs.add(newID), \"Toke...\n      JUMP \t\t\t\n    tag 292\t\t\t_allTokenIDs.add(newID), \"Toke...\n      JUMPDEST \t\t\t_allTokenIDs.add(newID), \"Toke...\n      PUSH [tag] 295\t\t\t, newID, amount, data);\\r\\n   ...\n      DUP12 \t\t\tD,\n      DUP4 \t\t\tmount\n      DUP13 \t\t\tdata);\n      DUP13 \t\t\t    \n      DUP13 \t\t\t    \n      DUP1 \t\t\t, newID, amount, data);\\r\\n   ...\n      DUP1 \t\t\t, newID, amount, data);\\r\\n   ...\n      PUSH 1F\t\t\t, newID, amount, data);\\r\\n   ...\n      ADD \t\t\t, newID, amount, data);\\r\\n   ...\n      PUSH 20\t\t\t, newID, amount, data);\\r\\n   ...\n      DUP1 \t\t\t, newID, amount, data);\\r\\n   ...\n      SWAP2 \t\t\t, newID, amount, data);\\r\\n   ...\n      DIV \t\t\t, newID, amount, data);\\r\\n   ...\n      MUL \t\t\t, newID, amount, data);\\r\\n   ...\n      PUSH 20\t\t\t, newID, amount, data);\\r\\n   ...\n      ADD \t\t\t, newID, amount, data);\\r\\n   ...\n      PUSH 40\t\t\t, newID, amount, data);\\r\\n   ...\n      MLOAD \t\t\t, newID, amount, data);\\r\\n   ...\n      SWAP1 \t\t\t, newID, amount, data);\\r\\n   ...\n      DUP2 \t\t\t, newID, amount, data);\\r\\n   ...\n      ADD \t\t\t, newID, amount, data);\\r\\n   ...\n      PUSH 40\t\t\t, newID, amount, data);\\r\\n   ...\n      MSTORE \t\t\t, newID, amount, data);\\r\\n   ...\n      DUP1 \t\t\t, newID, amount, data);\\r\\n   ...\n      SWAP4 \t\t\t, newID, amount, data);\\r\\n   ...\n      SWAP3 \t\t\t, newID, amount, data);\\r\\n   ...\n      SWAP2 \t\t\t, newID, amount, data);\\r\\n   ...\n      SWAP1 \t\t\t, newID, amount, data);\\r\\n   ...\n      DUP2 \t\t\t, newID, amount, data);\\r\\n   ...\n      DUP2 \t\t\t, newID, amount, data);\\r\\n   ...\n      MSTORE \t\t\t, newID, amount, data);\\r\\n   ...\n      PUSH 20\t\t\t, newID, amount, data);\\r\\n   ...\n      ADD \t\t\t, newID, amount, data);\\r\\n   ...\n      DUP4 \t\t\t, newID, amount, data);\\r\\n   ...\n      DUP4 \t\t\t, newID, amount, data);\\r\\n   ...\n      DUP1 \t\t\t, newID, amount, data);\\r\\n   ...\n      DUP3 \t\t\t, newID, amount, data);\\r\\n   ...\n      DUP5 \t\t\t, newID, amount, data);\\r\\n   ...\n      CALLDATACOPY \t\t\t, newID, amount, data);\\r\\n   ...\n      PUSH 0\t\t\t, newID, amount, data);\\r\\n   ...\n      SWAP3 \t\t\t, newID, amount, data);\\r\\n   ...\n      ADD \t\t\t, newID, amount, data);\\r\\n   ...\n      SWAP2 \t\t\t, newID, amount, data);\\r\\n   ...\n      SWAP1 \t\t\t, newID, amount, data);\\r\\n   ...\n      SWAP2 \t\t\t, newID, amount, data);\\r\\n   ...\n      MSTORE \t\t\t, newID, amount, data);\\r\\n   ...\n      POP \t\t\t\n      PUSH [tag] 273\t\t\t, new\n      SWAP3 \t\t\t, new\n      POP \t\t\t\n      POP \t\t\t\n      POP \t\t\t\n      JUMP \t\t\t, newID, amount, data);\\r\\n   ...\n    tag 295\t\t\t, newID, amount, data);\\r\\n   ...\n      JUMPDEST \t\t\t, newID, amount, data);\\r\\n   ...\n      PUSH 0\t\t\te[newID] = name;\n      DUP3 \t\t\te[newID] = name;\n      DUP2 \t\t\te[newID] = name;\n      MSTORE \t\t\te[newID] = name;\n      PUSH 7\t\t\te[newID] \n      PUSH 20\t\t\te[newID] = name;\n      MSTORE \t\t\te[newID] = name;\n      PUSH 40\t\t\te[newID] = name;\n      SWAP1 \t\t\te[newID] = name;\n      KECCAK256 \t\t\te[newID] = name;\n      PUSH [tag] 296\t\t\te[newID] = name;\\r\\n     \n      DUP8 \t\t\t    \n      DUP10 \t\t\t    \n      DUP4 \t\t\te[newID] = name;\n      PUSH [tag] 297\t\t\te[newID] = name;\\r\\n     \n      JUMP \t\t\te[newID] = name;\\r\\n     \n    tag 296\t\t\te[newID] = name;\\r\\n     \n      JUMPDEST \t\t\te[newID] = name;\\r\\n     \n      POP \t\t\te[newID] = name;\\r\\n     \n      POP \t\t\t         // Generate a random ...\n      POP \t\t\t         // Generate a random ...\n    tag 274\t\t\tund) {\\r\\n            _mint(to...\n      JUMPDEST \t\t\tund) {\\r\\n            _mint(to...\n      POP \t\t\t     require(bytes(name).lengt...\n      POP \t\t\t     require(bytes(name).lengt...\n      POP \t\t\t     require(bytes(name).lengt...\n      POP \t\t\ton mintToken(address to, uint2...\n      POP \t\t\ton mintToken(address to, uint2...\n      POP \t\t\ton mintToken(address to, uint2...\n      POP \t\t\ton mintToken(address to, uint2...\n      POP \t\t\ton mintToken(address to, uint2...\n      POP \t\t\ton mintToken(address to, uint2...\n      JUMP \t\t\ton mintToken(address to, uint2...\n    tag 76\t\t\t safeBatchTransferFrom(\\r\\n   ...\n      JUMPDEST \t\t\t safeBatchTransferFrom(\\r\\n   ...\n      DUP2 \t\t\tlength,\n      MLOAD \t\t\tlength, \"ERC11\n      DUP4 \t\t\t.length \n      MLOAD \t\t\t.length == amou\n      EQ \t\t\t.length == amounts.length, \"ER...\n      PUSH [tag] 299\t\t\ttokenIDs.length == amounts.len...\n      JUMPI \t\t\ttokenIDs.length == amounts.len...\n      PUSH 40\t\t\ttokenIDs.length == amounts.len...\n      MLOAD \t\t\ttokenIDs.length == amounts.len...\n      PUSH 461BCD\t\t\t\n      PUSH E5\t\t\t\n      SHL \t\t\t\n      DUP2 \t\t\ttokenIDs.length == amounts.len...\n      MSTORE \t\t\ttokenIDs.length == amounts.len...\n      PUSH 20\t\t\t\n      PUSH 4\t\t\ttokenIDs.length == amounts.len...\n      DUP3 \t\t\ttokenIDs.length == amounts.len...\n      ADD \t\t\ttokenIDs.length == amounts.len...\n      MSTORE \t\t\t\n      PUSH 21\t\t\t\n      PUSH 24\t\t\t\n      DUP3 \t\t\t\n      ADD \t\t\t\n      MSTORE \t\t\t\n      PUSH 455243313135353A204D69736D617463686564206172726179206C656E677468\t\t\t\n      PUSH 44\t\t\t\n      DUP3 \t\t\t\n      ADD \t\t\t\n      MSTORE \t\t\t\n      PUSH 73\t\t\t\n      PUSH F8\t\t\t\n      SHL \t\t\t\n      PUSH 64\t\t\t\n      DUP3 \t\t\t\n      ADD \t\t\t\n      MSTORE \t\t\t\n      PUSH 84\t\t\t\n      ADD \t\t\t\n      PUSH [tag] 248\t\t\ttokenIDs.length == amounts.len...\n      JUMP \t\t\t\n    tag 299\t\t\ttokenIDs.length == amounts.len...\n      JUMPDEST \t\t\ttokenIDs.length == amounts.len...\n      PUSH 1\t\t\t\n      PUSH 1\t\t\t\n      PUSH A0\t\t\t\n      SHL \t\t\t\n      SUB \t\t\t\n      DUP5 \t\t\tdress(0), \"ERC11\n      AND \t\t\tdress(0), \"ERC11\n      PUSH [tag] 302\t\t\tto != address(0), \"ERC1155: tr...\n      JUMPI \t\t\tto != address(0), \"ERC1155: tr...\n      PUSH 40\t\t\tto != address(0), \"ERC1155: tr...\n      MLOAD \t\t\tto != address(0), \"ERC1155: tr...\n      PUSH 461BCD\t\t\t\n      PUSH E5\t\t\t\n      SHL \t\t\t\n      DUP2 \t\t\tto != address(0), \"ERC1155: tr...\n      MSTORE \t\t\tto != address(0), \"ERC1155: tr...\n      PUSH 20\t\t\t\n      PUSH 4\t\t\tto != address(0), \"ERC1155: tr...\n      DUP3 \t\t\tto != address(0), \"ERC1155: tr...\n      ADD \t\t\tto != address(0), \"ERC1155: tr...\n      MSTORE \t\t\t\n      PUSH 25\t\t\t\n      PUSH 24\t\t\t\n      DUP3 \t\t\t\n      ADD \t\t\t\n      MSTORE \t\t\t\n      PUSH 455243313135353A207472616E7366657220746F20746865207A65726F206164\t\t\t\n      PUSH 44\t\t\t\n      DUP3 \t\t\t\n      ADD \t\t\t\n      MSTORE \t\t\t\n      PUSH 6472657373\t\t\t\n      PUSH D8\t\t\t\n      SHL \t\t\t\n      PUSH 64\t\t\t\n      DUP3 \t\t\t\n      ADD \t\t\t\n      MSTORE \t\t\t\n      PUSH 84\t\t\t\n      ADD \t\t\t\n      PUSH [tag] 248\t\t\tto != address(0), \"ERC1155: tr...\n      JUMP \t\t\t\n    tag 302\t\t\tto != address(0), \"ERC1155: tr...\n      JUMPDEST \t\t\tto != address(0), \"ERC1155: tr...\n      PUSH 0\t\t\ti = 0; i \n    tag 305\t\t\tt256 i = 0; i < tokenIDs.lengt...\n      JUMPDEST \t\t\tt256 i = 0; i < tokenIDs.lengt...\n      DUP4 \t\t\t.length;\n      MLOAD \t\t\t.length; ++i) {\n      DUP2 \t\t\tn\n      LT \t\t\tnIDs.length; ++i) {\n      ISZERO \t\t\tt256 i = 0; i < tokenIDs.lengt...\n      PUSH [tag] 306\t\t\tt256 i = 0; i < tokenIDs.lengt...\n      JUMPI \t\t\tt256 i = 0; i < tokenIDs.lengt...\n      PUSH [tag] 308\t\t\tlProofsVerified(tokenIDs[i], f...\n      DUP5 \t\t\t[i], fro\n      DUP3 \t\t\t,\n      DUP2 \t\t\t[i], from, \n      MLOAD \t\t\t[i], from, \n      DUP2 \t\t\t[i], from, \n      LT \t\t\t[i], from, \n      PUSH [tag] 310\t\t\t[i], from, \n      JUMPI \t\t\t[i], from, \n      PUSH [tag] 310\t\t\t[i], from, \n      PUSH [tag] 164\t\t\t[i], from, \n      JUMP \t\t\t[i], from, \n    tag 310\t\t\t[i], from, \n      JUMPDEST \t\t\t[i], from, \n      PUSH 20\t\t\t[i], from, \n      MUL \t\t\t[i], from, \n      PUSH 20\t\t\t[i], from, \n      ADD \t\t\t[i], from, \n      ADD \t\t\t[i], from, \n      MLOAD \t\t\t[i], from, \n      DUP8 \t\t\t);\\r\\n\n      DUP8 \t\t\t  \n      PUSH [tag] 311\t\t\tlProofsVerified(tokenID\n      JUMP \t\t\tlProofsVerified(tokenIDs[i], f...\n    tag 308\t\t\tlProofsVerified(tokenIDs[i], f...\n      JUMPDEST \t\t\tlProofsVerified(tokenIDs[i], f...\n      PUSH [tag] 312\t\t\tsferFrom(from, to, tokenIDs[i]...\n      DUP7 \t\t\t, to\n      DUP7 \t\t\tnI\n      DUP7 \t\t\t[i], amo\n      DUP5 \t\t\tn\n      DUP2 \t\t\t[i], amount\n      MLOAD \t\t\t[i], amount\n      DUP2 \t\t\t[i], amount\n      LT \t\t\t[i], amount\n      PUSH [tag] 314\t\t\t[i], amount\n      JUMPI \t\t\t[i], amount\n      PUSH [tag] 314\t\t\t[i], amount\n      PUSH [tag] 164\t\t\t[i], amount\n      JUMP \t\t\t[i], amount\n    tag 314\t\t\t[i], amount\n      JUMPDEST \t\t\t[i], amount\n      PUSH 20\t\t\t[i], amount\n      MUL \t\t\t[i], amount\n      PUSH 20\t\t\t[i], amount\n      ADD \t\t\t[i], amount\n      ADD \t\t\t[i], amount\n      MLOAD \t\t\t[i], amount\n      DUP7 \t\t\ti], dat\n      DUP6 \t\t\t)\n      DUP2 \t\t\ti], data);\n      MLOAD \t\t\ti], data);\n      DUP2 \t\t\ti], data);\n      LT \t\t\ti], data);\n      PUSH [tag] 316\t\t\ti], data);\n      JUMPI \t\t\ti], data);\n      PUSH [tag] 316\t\t\ti], data);\n      PUSH [tag] 164\t\t\ti], data);\n      JUMP \t\t\ti], data);\n    tag 316\t\t\ti], data);\n      JUMPDEST \t\t\ti], data);\n      PUSH 20\t\t\ti], data);\n      MUL \t\t\ti], data);\n      PUSH 20\t\t\ti], data);\n      ADD \t\t\ti], data);\n      ADD \t\t\ti], data);\n      MLOAD \t\t\ti], data);\n      DUP7 \t\t\t    \n      PUSH [tag] 147\t\t\tsferFrom(from, t\n      JUMP \t\t\tsferFrom(from, to, tokenIDs[i]...\n    tag 312\t\t\tsferFrom(from, to, tokenIDs[i]...\n      JUMPDEST \t\t\tsferFrom(from, to, tokenIDs[i]...\n      PUSH [tag] 317\t\t\t   \n      DUP2 \t\t\t   \n      PUSH [tag] 169\t\t\t   \n      JUMP \t\t\t   \n    tag 317\t\t\t   \n      JUMPDEST \t\t\t   \n      SWAP1 \t\t\t   \n      POP \t\t\t   \n      PUSH [tag] 305\t\t\tt256 i = 0; i < tokenIDs.lengt...\n      JUMP \t\t\tt256 i = 0; i < tokenIDs.lengt...\n    tag 306\t\t\tt256 i = 0; i < tokenIDs.lengt...\n      JUMPDEST \t\t\tt256 i = 0; i < tokenIDs.lengt...\n      POP \t\t\tt256 i = 0; i < tokenIDs.lengt...\n      POP \t\t\t safeBatchTransferFrom(\\r\\n   ...\n      POP \t\t\t safeBatchTransferFrom(\\r\\n   ...\n      POP \t\t\t safeBatchTransferFrom(\\r\\n   ...\n      POP \t\t\t safeBatchTransferFrom(\\r\\n   ...\n      POP \t\t\t safeBatchTransferFrom(\\r\\n   ...\n      JUMP \t\t\t safeBatchTransferFrom(\\r\\n   ...\n    tag 80\t\t\ting(uint256 => mapping(uint64 ...\n      JUMPDEST \t\t\ting(uint256 => mapping(uint64 ...\n      PUSH 8\t\t\ting(uint256 => mapping(uint64 ...\n      PUSH 20\t\t\ting(uint256 => mapping(uint64 ...\n      SWAP1 \t\t\ting(uint256 => mapping(uint64 ...\n      DUP2 \t\t\ting(uint256 => mapping(uint64 ...\n      MSTORE \t\t\ting(uint256 => mapping(uint64 ...\n      PUSH 0\t\t\ting(uint256 => mapping(uint64 ...\n      SWAP3 \t\t\ting(uint256 => mapping(uint64 ...\n      DUP4 \t\t\ting(uint256 => mapping(uint64 ...\n      MSTORE \t\t\ting(uint256 => mapping(uint64 ...\n      PUSH 40\t\t\ting(uint256 => mapping(uint64 ...\n      DUP1 \t\t\ting(uint256 => mapping(uint64 ...\n      DUP5 \t\t\ting(uint256 => mapping(uint64 ...\n      KECCAK256 \t\t\ting(uint256 => mapping(uint64 ...\n      SWAP1 \t\t\ting(uint256 => mapping(uint64 ...\n      SWAP2 \t\t\ting(uint256 => mapping(uint64 ...\n      MSTORE \t\t\ting(uint256 => mapping(uint64 ...\n      SWAP1 \t\t\ting(uint256 => mapping(uint64 ...\n      DUP3 \t\t\ting(uint256 => mapping(uint64 ...\n      MSTORE \t\t\ting(uint256 => mapping(uint64 ...\n      SWAP1 \t\t\ting(uint256 => mapping(uint64 ...\n      KECCAK256 \t\t\ting(uint256 => mapping(uint64 ...\n      DUP1 \t\t\ting(uint256 => mapping(uint64 ...\n      SLOAD \t\t\ting(uint256 => mapping(uint64 ...\n      PUSH [tag] 318\t\t\ting(uint256 => mapping(uint64 ...\n      SWAP1 \t\t\ting(uint256 => mapping(uint64 ...\n      PUSH [tag] 166\t\t\ting(uint256 => mapping(uint64 ...\n      JUMP \t\t\ting(uint256 => mapping(uint64 ...\n    tag 318\t\t\ting(uint256 => mapping(uint64 ...\n      JUMPDEST \t\t\ting(uint256 => mapping(uint64 ...\n      DUP1 \t\t\ting(uint256 => mapping(uint64 ...\n      PUSH 1F\t\t\ting(uint256 => mapping(uint64 ...\n      ADD \t\t\ting(uint256 => mapping(uint64 ...\n      PUSH 20\t\t\ting(uint256 => mapping(uint64 ...\n      DUP1 \t\t\ting(uint256 => mapping(uint64 ...\n      SWAP2 \t\t\ting(uint256 => mapping(uint64 ...\n      DIV \t\t\ting(uint256 => mapping(uint64 ...\n      MUL \t\t\ting(uint256 => mapping(uint64 ...\n      PUSH 20\t\t\ting(uint256 => mapping(uint64 ...\n      ADD \t\t\ting(uint256 => mapping(uint64 ...\n      PUSH 40\t\t\ting(uint256 => mapping(uint64 ...\n      MLOAD \t\t\ting(uint256 => mapping(uint64 ...\n      SWAP1 \t\t\ting(uint256 => mapping(uint64 ...\n      DUP2 \t\t\ting(uint256 => mapping(uint64 ...\n      ADD \t\t\ting(uint256 => mapping(uint64 ...\n      PUSH 40\t\t\ting(uint256 => mapping(uint64 ...\n      MSTORE \t\t\ting(uint256 => mapping(uint64 ...\n      DUP1 \t\t\ting(uint256 => mapping(uint64 ...\n      SWAP3 \t\t\ting(uint256 => mapping(uint64 ...\n      SWAP2 \t\t\ting(uint256 => mapping(uint64 ...\n      SWAP1 \t\t\ting(uint256 => mapping(uint64 ...\n      DUP2 \t\t\ting(uint256 => mapping(uint64 ...\n      DUP2 \t\t\ting(uint256 => mapping(uint64 ...\n      MSTORE \t\t\ting(uint256 => mapping(uint64 ...\n      PUSH 20\t\t\ting(uint256 => mapping(uint64 ...\n      ADD \t\t\ting(uint256 => mapping(uint64 ...\n      DUP3 \t\t\ting(uint256 => mapping(uint64 ...\n      DUP1 \t\t\ting(uint256 => mapping(uint64 ...\n      SLOAD \t\t\ting(uint256 => mapping(uint64 ...\n      PUSH [tag] 319\t\t\ting(uint256 => mapping(uint64 ...\n      SWAP1 \t\t\ting(uint256 => mapping(uint64 ...\n      PUSH [tag] 166\t\t\ting(uint256 => mapping(uint64 ...\n      JUMP \t\t\ting(uint256 => mapping(uint64 ...\n    tag 319\t\t\ting(uint256 => mapping(uint64 ...\n      JUMPDEST \t\t\ting(uint256 => mapping(uint64 ...\n      DUP1 \t\t\ting(uint256 => mapping(uint64 ...\n      ISZERO \t\t\ting(uint256 => mapping(uint64 ...\n      PUSH [tag] 320\t\t\ting(uint256 => mapping(uint64 ...\n      JUMPI \t\t\ting(uint256 => mapping(uint64 ...\n      DUP1 \t\t\ting(uint256 => mapping(uint64 ...\n      PUSH 1F\t\t\ting(uint256 => mapping(uint64 ...\n      LT \t\t\ting(uint256 => mapping(uint64 ...\n      PUSH [tag] 321\t\t\ting(uint256 => mapping(uint64 ...\n      JUMPI \t\t\ting(uint256 => mapping(uint64 ...\n      PUSH 100\t\t\ting(uint256 => mapping(uint64 ...\n      DUP1 \t\t\ting(uint256 => mapping(uint64 ...\n      DUP4 \t\t\ting(uint256 => mapping(uint64 ...\n      SLOAD \t\t\ting(uint256 => mapping(uint64 ...\n      DIV \t\t\ting(uint256 => mapping(uint64 ...\n      MUL \t\t\ting(uint256 => mapping(uint64 ...\n      DUP4 \t\t\ting(uint256 => mapping(uint64 ...\n      MSTORE \t\t\ting(uint256 => mapping(uint64 ...\n      SWAP2 \t\t\ting(uint256 => mapping(uint64 ...\n      PUSH 20\t\t\ting(uint256 => mapping(uint64 ...\n      ADD \t\t\ting(uint256 => mapping(uint64 ...\n      SWAP2 \t\t\ting(uint256 => mapping(uint64 ...\n      PUSH [tag] 320\t\t\ting(uint256 => mapping(uint64 ...\n      JUMP \t\t\ting(uint256 => mapping(uint64 ...\n    tag 321\t\t\ting(uint256 => mapping(uint64 ...\n      JUMPDEST \t\t\ting(uint256 => mapping(uint64 ...\n      DUP3 \t\t\ting(uint256 => mapping(uint64 ...\n      ADD \t\t\ting(uint256 => mapping(uint64 ...\n      SWAP2 \t\t\ting(uint256 => mapping(uint64 ...\n      SWAP1 \t\t\ting(uint256 => mapping(uint64 ...\n      PUSH 0\t\t\ting(uint256 => mapping(uint64 ...\n      MSTORE \t\t\ting(uint256 => mapping(uint64 ...\n      PUSH 20\t\t\ting(uint256 => mapping(uint64 ...\n      PUSH 0\t\t\ting(uint256 => mapping(uint64 ...\n      KECCAK256 \t\t\ting(uint256 => mapping(uint64 ...\n      SWAP1 \t\t\ting(uint256 => mapping(uint64 ...\n    tag 322\t\t\ting(uint256 => mapping(uint64 ...\n      JUMPDEST \t\t\ting(uint256 => mapping(uint64 ...\n      DUP2 \t\t\ting(uint256 => mapping(uint64 ...\n      SLOAD \t\t\ting(uint256 => mapping(uint64 ...\n      DUP2 \t\t\ting(uint256 => mapping(uint64 ...\n      MSTORE \t\t\ting(uint256 => mapping(uint64 ...\n      SWAP1 \t\t\ting(uint256 => mapping(uint64 ...\n      PUSH 1\t\t\ting(uint256 => mapping(uint64 ...\n      ADD \t\t\ting(uint256 => mapping(uint64 ...\n      SWAP1 \t\t\ting(uint256 => mapping(uint64 ...\n      PUSH 20\t\t\ting(uint256 => mapping(uint64 ...\n      ADD \t\t\ting(uint256 => mapping(uint64 ...\n      DUP1 \t\t\ting(uint256 => mapping(uint64 ...\n      DUP4 \t\t\ting(uint256 => mapping(uint64 ...\n      GT \t\t\ting(uint256 => mapping(uint64 ...\n      PUSH [tag] 322\t\t\ting(uint256 => mapping(uint64 ...\n      JUMPI \t\t\ting(uint256 => mapping(uint64 ...\n      DUP3 \t\t\ting(uint256 => mapping(uint64 ...\n      SWAP1 \t\t\ting(uint256 => mapping(uint64 ...\n      SUB \t\t\ting(uint256 => mapping(uint64 ...\n      PUSH 1F\t\t\ting(uint256 => mapping(uint64 ...\n      AND \t\t\ting(uint256 => mapping(uint64 ...\n      DUP3 \t\t\ting(uint256 => mapping(uint64 ...\n      ADD \t\t\ting(uint256 => mapping(uint64 ...\n      SWAP2 \t\t\ting(uint256 => mapping(uint64 ...\n    tag 320\t\t\ting(uint256 => mapping(uint64 ...\n      JUMPDEST \t\t\ting(uint256 => mapping(uint64 ...\n      POP \t\t\ting(uint256 => mapping(uint64 ...\n      POP \t\t\ting(uint256 => mapping(uint64 ...\n      POP \t\t\ting(uint256 => mapping(uint64 ...\n      POP \t\t\ting(uint256 => mapping(uint64 ...\n      POP \t\t\ting(uint256 => mapping(uint64 ...\n      DUP2 \t\t\ting(uint256 => mapping(uint64 ...\n      JUMP \t\t\ting(uint256 => mapping(uint64 ...\n    tag 83\t\t\tfunction getAdmins() public vi...\n      JUMPDEST \t\t\tfunction getAdmins() public vi...\n      PUSH 60\t\t\taddress[] memory\n      PUSH [tag] 324\t\t\t  admins.push\n      PUSH [tag] 226\t\t\t  admins.pu\n      JUMP \t\t\t  admins.push\n    tag 324\t\t\t  admins.push\n      JUMPDEST \t\t\t  admins.push\n      PUSH 4\t\t\tadmins\n      DUP1 \t\t\treturn admins\n      SLOAD \t\t\treturn admins\n      DUP1 \t\t\treturn admins\n      PUSH 20\t\t\treturn admins\n      MUL \t\t\treturn admins\n      PUSH 20\t\t\treturn admins\n      ADD \t\t\treturn admins\n      PUSH 40\t\t\treturn admins\n      MLOAD \t\t\treturn admins\n      SWAP1 \t\t\treturn admins\n      DUP2 \t\t\treturn admins\n      ADD \t\t\treturn admins\n      PUSH 40\t\t\treturn admins\n      MSTORE \t\t\treturn admins\n      DUP1 \t\t\treturn admins\n      SWAP3 \t\t\treturn admins\n      SWAP2 \t\t\treturn admins\n      SWAP1 \t\t\treturn admins\n      DUP2 \t\t\treturn admins\n      DUP2 \t\t\treturn admins\n      MSTORE \t\t\treturn admins\n      PUSH 20\t\t\treturn admins\n      ADD \t\t\treturn admins\n      DUP3 \t\t\treturn admins\n      DUP1 \t\t\treturn admins\n      SLOAD \t\t\treturn admins\n      DUP1 \t\t\treturn admins\n      ISZERO \t\t\treturn admins\n      PUSH [tag] 326\t\t\treturn admins\n      JUMPI \t\t\treturn admins\n      PUSH 20\t\t\treturn admins\n      MUL \t\t\treturn admins\n      DUP3 \t\t\treturn admins\n      ADD \t\t\treturn admins\n      SWAP2 \t\t\treturn admins\n      SWAP1 \t\t\treturn admins\n      PUSH 0\t\t\treturn admins\n      MSTORE \t\t\treturn admins\n      PUSH 20\t\t\treturn admins\n      PUSH 0\t\t\treturn admins\n      KECCAK256 \t\t\treturn admins\n      SWAP1 \t\t\treturn admins\n    tag 327\t\t\treturn admins\n      JUMPDEST \t\t\treturn admins\n      DUP2 \t\t\treturn admins\n      SLOAD \t\t\treturn admins\n      PUSH 1\t\t\t\n      PUSH 1\t\t\t\n      PUSH A0\t\t\t\n      SHL \t\t\t\n      SUB \t\t\t\n      AND \t\t\treturn admins\n      DUP2 \t\t\treturn admins\n      MSTORE \t\t\treturn admins\n      PUSH 1\t\t\treturn admins\n      SWAP1 \t\t\treturn admins\n      SWAP2 \t\t\treturn admins\n      ADD \t\t\treturn admins\n      SWAP1 \t\t\treturn admins\n      PUSH 20\t\t\treturn admins\n      ADD \t\t\treturn admins\n      DUP1 \t\t\treturn admins\n      DUP4 \t\t\treturn admins\n      GT \t\t\treturn admins\n      PUSH [tag] 327\t\t\treturn admins\n      JUMPI \t\t\treturn admins\n    tag 326\t\t\treturn admins\n      JUMPDEST \t\t\treturn admins\n      POP \t\t\treturn admins\n      POP \t\t\treturn admins\n      POP \t\t\treturn admins\n      POP \t\t\treturn admins\n      POP \t\t\treturn admins\n      SWAP1 \t\t\treturn admins\n      POP \t\t\treturn admins\n      SWAP1 \t\t\tfunction getAdmins() public vi...\n      JUMP \t\t\tfunction getAdmins() public vi...\n    tag 89\t\t\tping from token ID to its name...\n      JUMPDEST \t\t\tping from token ID to its name...\n      PUSH 60\t\t\t) public tokenNa\n      DUP2 \t\t\tD t\n      MLOAD \t\t\tD to proof\n      DUP4 \t\t\tMapping \n      MLOAD \t\t\tMapping from to\n      EQ \t\t\tMapping from tokenID to proof\n      PUSH [tag] 329\t\t\t // Mapping from tokenID to pr...\n      JUMPI \t\t\t // Mapping from tokenID to pr...\n      DUP2 \t\t\tr 'receive\n      MLOAD \t\t\tr 'receive\n      DUP4 \t\t\t).\\r\\n    // toke\n      MLOAD \t\t\t).\\r\\n    // toke\n      PUSH 40\t\t\t role (a string 'sender' or 'r...\n      MLOAD \t\t\t role (a string 'sender' or 'r...\n      PUSH 5B059991\t\t\t\n      PUSH E0\t\t\t\n      SHL \t\t\t\n      DUP2 \t\t\t role (a string 'sender' or 'r...\n      MSTORE \t\t\t role (a string 'sender' or 'r...\n      PUSH 4\t\t\t role (a string 'sender' or 'r...\n      DUP2 \t\t\t role (a string 'sender' or 'r...\n      ADD \t\t\t role (a string 'sender' or 'r...\n      SWAP3 \t\t\t\n      SWAP1 \t\t\t\n      SWAP3 \t\t\t\n      MSTORE \t\t\t\n      PUSH 24\t\t\t\n      DUP3 \t\t\t\n      ADD \t\t\t\n      MSTORE \t\t\t\n      PUSH 44\t\t\t\n      ADD \t\t\t\n      PUSH [tag] 248\t\t\t role (a string 'sender' or 'r...\n      JUMP \t\t\t\n    tag 329\t\t\t // Mapping from tokenID to pr...\n      JUMPDEST \t\t\t // Mapping from tokenID to pr...\n      PUSH 0\t\t\t→ 'sender' or 'receiver')\\r\\n ...\n      DUP4 \t\t\t=> mappi\n      MLOAD \t\t\t=> mapping(uint\n      PUSH 1\t\t\t\n      PUSH 1\t\t\t\n      PUSH 40\t\t\t\n      SHL \t\t\t\n      SUB \t\t\t\n      DUP2 \t\t\tpping(uint256 => mapping(uint6\n      GT \t\t\tpping(uint256 => mapping(uint6\n      ISZERO \t\t\tpping(uint256 => mapping(uint6\n      PUSH [tag] 333\t\t\tpping(uint256 => mapping(uint6\n      JUMPI \t\t\tpping(uint256 => mapping(uint6\n      PUSH [tag] 333\t\t\tpping(uint256 => mapping(uint6\n      PUSH [tag] 173\t\t\tpping(uint256 => mapping(uint6\n      JUMP \t\t\tpping(uint256 => mapping(uint6\n    tag 333\t\t\tpping(uint256 => mapping(uint6\n      JUMPDEST \t\t\tpping(uint256 => mapping(uint6\n      PUSH 40\t\t\tpping(uint256 => mapping(uint6\n      MLOAD \t\t\tpping(uint256 => mapping(uint6\n      SWAP1 \t\t\tpping(uint256 => mapping(uint6\n      DUP1 \t\t\tpping(uint256 => mapping(uint6\n      DUP3 \t\t\tpping(uint256 => mapping(uint6\n      MSTORE \t\t\tpping(uint256 => mapping(uint6\n      DUP1 \t\t\tpping(uint256 => mapping(uint6\n      PUSH 20\t\t\tpping(uint256 => mapping(uint6\n      MUL \t\t\tpping(uint256 => mapping(uint6\n      PUSH 20\t\t\tpping(uint256 => mapping(uint6\n      ADD \t\t\tpping(uint256 => mapping(uint6\n      DUP3 \t\t\tpping(uint256 => mapping(uint6\n      ADD \t\t\tpping(uint256 => mapping(uint6\n      PUSH 40\t\t\tpping(uint256 => mapping(uint6\n      MSTORE \t\t\tpping(uint256 => mapping(uint6\n      DUP1 \t\t\tpping(uint256 => mapping(uint6\n      ISZERO \t\t\tpping(uint256 => mapping(uint6\n      PUSH [tag] 334\t\t\tpping(uint256 => mapping(uint6\n      JUMPI \t\t\tpping(uint256 => mapping(uint6\n      DUP2 \t\t\tpping(uint256 => mapping(uint6\n      PUSH 20\t\t\tpping(uint256 => mapping(uint6\n      ADD \t\t\tpping(uint256 => mapping(uint6\n      PUSH 20\t\t\tpping(uint256 => mapping(uint6\n      DUP3 \t\t\tpping(uint256 => mapping(uint6\n      MUL \t\t\tpping(uint256 => mapping(uint6\n      DUP1 \t\t\tpping(uint256 => mapping(uint6\n      CALLDATASIZE \t\t\tpping(uint256 => mapping(uint6\n      DUP4 \t\t\tpping(uint256 => mapping(uint6\n      CALLDATACOPY \t\t\tpping(uint256 => mapping(uint6\n      ADD \t\t\tpping(uint256 => mapping(uint6\n      SWAP1 \t\t\tpping(uint256 => mapping(uint6\n      POP \t\t\t\n    tag 334\t\t\tpping(uint256 => mapping(uint6\n      JUMPDEST \t\t\tpping(uint256 => mapping(uint6\n      POP \t\t\tpping(uint256 => mapping(uint6\n      SWAP1 \t\t\t→ 'sender' or 'receiver')\\r\\n ...\n      POP \t\t\t→ 'sender' or 'receiver')\\r\\n ...\n      PUSH 0\t\t\tblic toke\n    tag 335\t\t\t)) public tokenID_proofRequest...\n      JUMPDEST \t\t\t)) public tokenID_proofRequest...\n      DUP5 \t\t\tequest_r\n      MLOAD \t\t\tequest_role;\\r\\n\\r\n      DUP2 \t\t\to\n      LT \t\t\toofRequest_role;\\r\\n\\r\n      ISZERO \t\t\t)) public tokenID_proofRequest...\n      PUSH [tag] 336\t\t\t)) public tokenID_proofRequest...\n      JUMPI \t\t\t)) public tokenID_proofRequest...\n      PUSH 20\t\t\t\n      DUP1 \t\t\t\n      DUP3 \t\t\t\n      MUL \t\t\t\n      DUP7 \t\t\t\n      ADD \t\t\t\n      ADD \t\t\t\n      MLOAD \t\t\t\n      PUSH [tag] 338\t\t\tondition\\r\\n    struct Spendin...\n      SWAP1 \t\t\tondition\\r\\n    struct Spendin...\n      PUSH 20\t\t\t\n      DUP1 \t\t\t\n      DUP5 \t\t\t\n      MUL \t\t\t\n      DUP8 \t\t\t\n      ADD \t\t\t\n      ADD \t\t\t\n      MLOAD \t\t\t\n      PUSH [tag] 41\t\t\tof all token IDs that have eve...\n      JUMP \t\t\tof all token IDs that have eve...\n    tag 338\t\t\tondition\\r\\n    struct Spendin...\n      JUMPDEST \t\t\tondition\\r\\n    struct Spendin...\n      DUP3 \t\t\tresent a spen\n      DUP3 \t\t\ti\n      DUP2 \t\t\tresent a spendin\n      MLOAD \t\t\tresent a spendin\n      DUP2 \t\t\tresent a spendin\n      LT \t\t\tresent a spendin\n      PUSH [tag] 344\t\t\tresent a spendin\n      JUMPI \t\t\tresent a spendin\n      PUSH [tag] 344\t\t\tresent a spendin\n      PUSH [tag] 164\t\t\tresent a spendin\n      JUMP \t\t\tresent a spendin\n    tag 344\t\t\tresent a spendin\n      JUMPDEST \t\t\tresent a spendin\n      PUSH 20\t\t\tresent a spendin\n      SWAP1 \t\t\tresent a spendin\n      DUP2 \t\t\tresent a spendin\n      MUL \t\t\tresent a spendin\n      SWAP2 \t\t\tresent a spendin\n      SWAP1 \t\t\tresent a spendin\n      SWAP2 \t\t\tresent a spendin\n      ADD \t\t\tresent a spendin\n      ADD \t\t\tresent a spendin\n      MSTORE \t\t\tresent a spending condition\\r\\...\n      PUSH [tag] 345\t\t\t   \n      DUP2 \t\t\t   \n      PUSH [tag] 169\t\t\t   \n      JUMP \t\t\t   \n    tag 345\t\t\t   \n      JUMPDEST \t\t\t   \n      SWAP1 \t\t\t   \n      POP \t\t\t   \n      PUSH [tag] 335\t\t\t)) public tokenID_proofRequest...\n      JUMP \t\t\t)) public tokenID_proofRequest...\n    tag 336\t\t\t)) public tokenID_proofRequest...\n      JUMPDEST \t\t\t)) public tokenID_proofRequest...\n      POP \t\t\t\n      SWAP4 \t\t\t\\r\\n        str\n      SWAP3 \t\t\tping from token ID to its name...\n      POP \t\t\t\n      POP \t\t\t\n      POP \t\t\t\n      JUMP \t\t\tping from token ID to its name...\n    tag 94\t\t\ttion deleteProofRequestAndRole...\n      JUMPDEST \t\t\ttion deleteProofRequestAndRole...\n      PUSH [tag] 347\t\t\t_isAdmin(msg.sender)\n      CALLER \t\t\tmsg.sender\n      PUSH [tag] 348\t\t\t_isAdmin\n      JUMP \t\t\t_isAdmin(msg.sender)\n    tag 347\t\t\t_isAdmin(msg.sender)\n      JUMPDEST \t\t\t_isAdmin(msg.sender)\n      PUSH [tag] 349\t\t\trequire(_isAdmin(msg.sender), ...\n      JUMPI \t\t\trequire(_isAdmin(msg.sender), ...\n      PUSH 40\t\t\trequire(_isAdmin(msg.sender), ...\n      MLOAD \t\t\trequire(_isAdmin(msg.sender), ...\n      PUSH 461BCD\t\t\t\n      PUSH E5\t\t\t\n      SHL \t\t\t\n      DUP2 \t\t\trequire(_isAdmin(msg.sender), ...\n      MSTORE \t\t\trequire(_isAdmin(msg.sender), ...\n      PUSH 20\t\t\t\n      PUSH 4\t\t\trequire(_isAdmin(msg.sender), ...\n      DUP3 \t\t\trequire(_isAdmin(msg.sender), ...\n      ADD \t\t\trequire(_isAdmin(msg.sender), ...\n      MSTORE \t\t\t\n      PUSH 16\t\t\t\n      PUSH 24\t\t\t\n      DUP3 \t\t\t\n      ADD \t\t\t\n      MSTORE \t\t\t\n      PUSH 21B0B63632B91034B9903737BA1030B71030B236B4B7\t\t\t\n      PUSH 51\t\t\t\n      SHL \t\t\t\n      PUSH 44\t\t\t\n      DUP3 \t\t\t\n      ADD \t\t\t\n      MSTORE \t\t\t\n      PUSH 64\t\t\t\n      ADD \t\t\t\n      PUSH [tag] 248\t\t\trequire(_isAdmin(msg.sender), ...\n      JUMP \t\t\t\n    tag 349\t\t\trequire(_isAdmin(msg.sender), ...\n      JUMPDEST \t\t\trequire(_isAdmin(msg.sender), ...\n      PUSH [tag] 353\t\t\tTokenIDs.contains(tokenID), \"t\n      PUSH 5\t\t\tTokenIDs.con\n      DUP4 \t\t\tnID), \"\n      PUSH [tag] 289\t\t\tTokenIDs.contains(tok\n      JUMP \t\t\tTokenIDs.contains(tokenID), \"t\n    tag 353\t\t\tTokenIDs.contains(tokenID), \"t\n      JUMPDEST \t\t\tTokenIDs.contains(tokenID), \"t\n      PUSH [tag] 354\t\t\tire(_allTokenIDs.contains(toke...\n      JUMPI \t\t\tire(_allTokenIDs.contains(toke...\n      PUSH 40\t\t\tire(_allTokenIDs.contains(toke...\n      MLOAD \t\t\tire(_allTokenIDs.contains(toke...\n      PUSH 461BCD\t\t\t\n      PUSH E5\t\t\t\n      SHL \t\t\t\n      DUP2 \t\t\tire(_allTokenIDs.contains(toke...\n      MSTORE \t\t\tire(_allTokenIDs.contains(toke...\n      PUSH 20\t\t\t\n      PUSH 4\t\t\tire(_allTokenIDs.contains(toke...\n      DUP3 \t\t\tire(_allTokenIDs.contains(toke...\n      ADD \t\t\tire(_allTokenIDs.contains(toke...\n      MSTORE \t\t\t\n      PUSH 17\t\t\t\n      PUSH 24\t\t\t\n      DUP3 \t\t\t\n      ADD \t\t\t\n      MSTORE \t\t\t\n      PUSH 1D1BDAD95B881A5908191BD95CC81B9BDD08195E1A5CDD\t\t\t\n      PUSH 4A\t\t\t\n      SHL \t\t\t\n      PUSH 44\t\t\t\n      DUP3 \t\t\t\n      ADD \t\t\t\n      MSTORE \t\t\t\n      PUSH 64\t\t\t\n      ADD \t\t\t\n      PUSH [tag] 248\t\t\tire(_allTokenIDs.contains(toke...\n      JUMP \t\t\t\n    tag 354\t\t\tire(_allTokenIDs.contains(toke...\n      JUMPDEST \t\t\tire(_allTokenIDs.contains(toke...\n      PUSH 0\t\t\tnID_proofRequest_role[tokenID]...\n      DUP3 \t\t\tnID_proofRequest_role[tokenID]...\n      DUP2 \t\t\tnID_proofRequest_role[tokenID]...\n      MSTORE \t\t\tnID_proofRequest_role[tokenID]...\n      PUSH 8\t\t\tnID_proofRequest_role[tok\n      PUSH 20\t\t\tnID_proofRequest_role[tokenID]...\n      SWAP1 \t\t\tnID_proofRequest_role[tokenID]...\n      DUP2 \t\t\tnID_proofRequest_role[tokenID]...\n      MSTORE \t\t\tnID_proofRequest_role[tokenID]...\n      PUSH 40\t\t\tnID_proofRequest_role[tokenID]...\n      DUP1 \t\t\tnID_proofRequest_role[tokenID]...\n      DUP4 \t\t\tnID_proofRequest_role[tokenID]...\n      KECCAK256 \t\t\tnID_proofRequest_role[tokenID]...\n      PUSH 1\t\t\t\n      PUSH 1\t\t\t\n      PUSH 40\t\t\t\n      SHL \t\t\t\n      SUB \t\t\t\n      DUP6 \t\t\tnID_proofRequest_role[tokenID]...\n      AND \t\t\tnID_proofRequest_role[tokenID]...\n      DUP5 \t\t\tnID_proofRequest_role[tokenID]...\n      MSTORE \t\t\tnID_proofRequest_role[tokenID]...\n      SWAP1 \t\t\tnID_proofRequest_role[tokenID]...\n      SWAP2 \t\t\tnID_proofRequest_role[tokenID]...\n      MSTORE \t\t\tnID_proofRequest_role[tokenID]...\n      SWAP1 \t\t\tnID_proofRequest_role[tokenID]...\n      KECCAK256 \t\t\tnID_proofRequest_role[tokenID]...\n      DUP1 \t\t\ts(tokenID_proofRequest_role[to...\n      SLOAD \t\t\ts(tokenID_proofRequest_role[to...\n      PUSH [tag] 357\t\t\ts(tokenID_proofRequest_role[to...\n      SWAP1 \t\t\ts(tokenID_proofRequest_role[to...\n      PUSH [tag] 166\t\t\ts(tokenID_proofRequest_role[to...\n      JUMP \t\t\ts(tokenID_proofRequest_role[to...\n    tag 357\t\t\ts(tokenID_proofRequest_role[to...\n      JUMPDEST \t\t\ts(tokenID_proofRequest_role[to...\n      SWAP1 \t\t\ts(tokenID_proofRequest_role[to...\n      POP \t\t\ts(tokenID_proofRequest_role[to...\n      PUSH 0\t\t\tP\n      SUB \t\t\ts(tokenID_proofRequest_role[to...\n      PUSH [tag] 358\t\t\tire(bytes(tokenID_proofRequest...\n      JUMPI \t\t\tire(bytes(tokenID_proofRequest...\n      PUSH 40\t\t\tire(bytes(tokenID_proofRequest...\n      MLOAD \t\t\tire(bytes(tokenID_proofRequest...\n      PUSH 461BCD\t\t\t\n      PUSH E5\t\t\t\n      SHL \t\t\t\n      DUP2 \t\t\tire(bytes(tokenID_proofRequest...\n      MSTORE \t\t\tire(bytes(tokenID_proofRequest...\n      PUSH 20\t\t\t\n      PUSH 4\t\t\tire(bytes(tokenID_proofRequest...\n      DUP3 \t\t\tire(bytes(tokenID_proofRequest...\n      ADD \t\t\tire(bytes(tokenID_proofRequest...\n      MSTORE \t\t\t\n      PUSH 1C\t\t\t\n      PUSH 24\t\t\t\n      DUP3 \t\t\t\n      ADD \t\t\t\n      MSTORE \t\t\t\n      PUSH 50726F6F66207265717565737420646F6573206E6F7420657869737400000000\t\t\t\n      PUSH 44\t\t\t\n      DUP3 \t\t\t\n      ADD \t\t\t\n      MSTORE \t\t\t\n      PUSH 64\t\t\t\n      ADD \t\t\t\n      PUSH [tag] 248\t\t\tire(bytes(tokenID_proofRequest...\n      JUMP \t\t\t\n    tag 358\t\t\tire(bytes(tokenID_proofRequest...\n      JUMPDEST \t\t\tire(bytes(tokenID_proofRequest...\n      PUSH 0\t\t\tnID_proofRequest_role[tokenID]...\n      DUP3 \t\t\tnID_proofRequest_role[tokenID]...\n      DUP2 \t\t\tnID_proofRequest_role[tokenID]...\n      MSTORE \t\t\tnID_proofRequest_role[tokenID]...\n      PUSH 8\t\t\tnID_proofRequest_role[tok\n      PUSH 20\t\t\tnID_proofRequest_role[tokenID]...\n      SWAP1 \t\t\tnID_proofRequest_role[tokenID]...\n      DUP2 \t\t\tnID_proofRequest_role[tokenID]...\n      MSTORE \t\t\tnID_proofRequest_role[tokenID]...\n      PUSH 40\t\t\tnID_proofRequest_role[tokenID]...\n      DUP1 \t\t\tnID_proofRequest_role[tokenID]...\n      DUP4 \t\t\tnID_proofRequest_role[tokenID]...\n      KECCAK256 \t\t\tnID_proofRequest_role[tokenID]...\n      PUSH 1\t\t\t\n      PUSH 1\t\t\t\n      PUSH 40\t\t\t\n      SHL \t\t\t\n      SUB \t\t\t\n      DUP6 \t\t\tnID_proofRequest_role[tokenID]...\n      AND \t\t\tnID_proofRequest_role[tokenID]...\n      DUP5 \t\t\tnID_proofRequest_role[tokenID]...\n      MSTORE \t\t\tnID_proofRequest_role[tokenID]...\n      SWAP1 \t\t\tnID_proofRequest_role[tokenID]...\n      SWAP2 \t\t\tnID_proofRequest_role[tokenID]...\n      MSTORE \t\t\tnID_proofRequest_role[tokenID]...\n      DUP2 \t\t\tnID_proofRequest_role[tokenID]...\n      KECCAK256 \t\t\tnID_proofRequest_role[tokenID]...\n      PUSH [tag] 361\t\t\tte tokenID_proofRequest_role[t...\n      SWAP2 \t\t\tte tokenID_proofRequest_role[t...\n      PUSH [tag] 362\t\t\tte tokenID_proofRequest_role[t...\n      JUMP \t\t\tte tokenID_proofRequest_role[t...\n    tag 361\t\t\tte tokenID_proofRequest_role[t...\n      JUMPDEST \t\t\tte tokenID_proofRequest_role[t...\n      PUSH 0\t\t\t256 i = 0\n    tag 363\t\t\t(uint256 i = 0; i < proofReque...\n      JUMPDEST \t\t\t(uint256 i = 0; i < proofReque...\n      PUSH A\t\t\tfRequestIDs.len\n      SLOAD \t\t\tfRequestIDs.length; i+\n      DUP2 \t\t\tproofRequestIDs.length; i+\n      LT \t\t\tproofRequestIDs.length; i+\n      ISZERO \t\t\t(uint256 i = 0; i < proofReque...\n      PUSH [tag] 364\t\t\t(uint256 i = 0; i < proofReque...\n      JUMPI \t\t\t(uint256 i = 0; i < proofReque...\n      DUP2 \t\t\testID) {\\r\n      PUSH 1\t\t\t\n      PUSH 1\t\t\t\n      PUSH 40\t\t\t\n      SHL \t\t\t\n      SUB \t\t\t\n      AND \t\t\tfRequestIDs[i] == requestID) {...\n      PUSH A\t\t\tfRequestIDs[i] \n      DUP3 \t\t\t=\n      DUP2 \t\t\tfRequestIDs[i] == \n      SLOAD \t\t\tfRequestIDs[i] == \n      DUP2 \t\t\tfRequestIDs[i] == \n      LT \t\t\tfRequestIDs[i] == \n      PUSH [tag] 367\t\t\tfRequestIDs[i] == \n      JUMPI \t\t\tfRequestIDs[i] == \n      PUSH [tag] 367\t\t\tfRequestIDs[i] == \n      PUSH [tag] 164\t\t\tfRequestIDs[i] == \n      JUMP \t\t\tfRequestIDs[i] == \n    tag 367\t\t\tfRequestIDs[i] == \n      JUMPDEST \t\t\tfRequestIDs[i] == \n      PUSH 0\t\t\tfRequestIDs[i] == \n      SWAP2 \t\t\tfRequestIDs[i] == \n      DUP3 \t\t\tfRequestIDs[i] == \n      MSTORE \t\t\tfRequestIDs[i] == \n      PUSH 20\t\t\tfRequestIDs[i] == \n      SWAP1 \t\t\tfRequestIDs[i] == \n      SWAP2 \t\t\tfRequestIDs[i] == \n      KECCAK256 \t\t\tfRequestIDs[i] == \n      PUSH 4\t\t\tfRequestIDs[i] == \n      DUP3 \t\t\tfRequestIDs[i] == \n      DIV \t\t\tfRequestIDs[i] == \n      ADD \t\t\tfRequestIDs[i] == \n      SLOAD \t\t\tfRequestIDs[i] == \n      PUSH 3\t\t\tfRequestIDs[i] == \n      SWAP1 \t\t\tfRequestIDs[i] == \n      SWAP2 \t\t\tfRequestIDs[i] == \n      AND \t\t\tfRequestIDs[i] == \n      PUSH 8\t\t\tfRequestIDs[i] == \n      MUL \t\t\tfRequestIDs[i] == \n      PUSH 100\t\t\tfRequestIDs[i] == \n      EXP \t\t\tfRequestIDs[i] == \n      SWAP1 \t\t\tfRequestIDs[i] == \n      DIV \t\t\tfRequestIDs[i] == \n      PUSH 1\t\t\t\n      PUSH 1\t\t\t\n      PUSH 40\t\t\t\n      SHL \t\t\t\n      SUB \t\t\t\n      AND \t\t\tfRequestIDs[i] == \n      SUB \t\t\tfRequestIDs[i] == requestID) {...\n      PUSH [tag] 369\t\t\tproofRequestIDs[i] == requestI...\n      JUMPI \t\t\tproofRequestIDs[i] == requestI...\n      PUSH A\t\t\tfRequestIDs[pro\n      DUP1 \t\t\tfRequestIDs.length - 1\n      SLOAD \t\t\tfRequestIDs.length - 1\n      PUSH [tag] 370\t\t\tfRequestIDs.length - 1];\\r\\n\n      SWAP1 \t\t\tfRequestIDs.length - 1];\\r\\n\n      PUSH 1\t\t\t\\n\n      SWAP1 \t\t\t\\n\n      PUSH [tag] 236\t\t\tfRequestIDs.length - 1];\\r\\n\n      JUMP \t\t\tfRequestIDs.length - 1];\\r\\n\n    tag 370\t\t\tfRequestIDs.length - 1];\\r\\n\n      JUMPDEST \t\t\tfRequestIDs.length - 1];\\r\\n\n      DUP2 \t\t\tfRequestIDs[proofRequestIDs.le...\n      SLOAD \t\t\tfRequestIDs[proofRequestIDs.le...\n      DUP2 \t\t\tfRequestIDs[proofRequestIDs.le...\n      LT \t\t\tfRequestIDs[proofRequestIDs.le...\n      PUSH [tag] 372\t\t\tfRequestIDs[proofRequestIDs.le...\n      JUMPI \t\t\tfRequestIDs[proofRequestIDs.le...\n      PUSH [tag] 372\t\t\tfRequestIDs[proofRequestIDs.le...\n      PUSH [tag] 164\t\t\tfRequestIDs[proofRequestIDs.le...\n      JUMP \t\t\tfRequestIDs[proofRequestIDs.le...\n    tag 372\t\t\tfRequestIDs[proofRequestIDs.le...\n      JUMPDEST \t\t\tfRequestIDs[proofRequestIDs.le...\n      SWAP1 \t\t\tfRequestIDs[proofRequestIDs.le...\n      PUSH 0\t\t\tfRequestIDs[proofRequestIDs.le...\n      MSTORE \t\t\tfRequestIDs[proofRequestIDs.le...\n      PUSH 20\t\t\tfRequestIDs[proofRequestIDs.le...\n      PUSH 0\t\t\tfRequestIDs[proofRequestIDs.le...\n      KECCAK256 \t\t\tfRequestIDs[proofRequestIDs.le...\n      SWAP1 \t\t\tfRequestIDs[proofRequestIDs.le...\n      PUSH 4\t\t\tfRequestIDs[proofRequestIDs.le...\n      SWAP2 \t\t\tfRequestIDs[proofRequestIDs.le...\n      DUP3 \t\t\tfRequestIDs[proofRequestIDs.le...\n      DUP3 \t\t\tfRequestIDs[proofRequestIDs.le...\n      DIV \t\t\tfRequestIDs[proofRequestIDs.le...\n      ADD \t\t\tfRequestIDs[proofRequestIDs.le...\n      SWAP2 \t\t\tfRequestIDs[proofRequestIDs.le...\n      SWAP1 \t\t\tfRequestIDs[proofRequestIDs.le...\n      MOD \t\t\tfRequestIDs[proofRequestIDs.le...\n      PUSH 8\t\t\tfRequestIDs[proofRequestIDs.le...\n      MUL \t\t\tfRequestIDs[proofRequestIDs.le...\n      SWAP1 \t\t\tfRequestIDs[proofRequestIDs.le...\n      SLOAD \t\t\tfRequestIDs[proofRequestIDs.le...\n      SWAP1 \t\t\tfRequestIDs[proofRequestIDs.le...\n      PUSH 100\t\t\tfRequestIDs[proofRequestIDs.le...\n      EXP \t\t\tfRequestIDs[proofRequestIDs.le...\n      SWAP1 \t\t\tfRequestIDs[proofRequestIDs.le...\n      DIV \t\t\tfRequestIDs[proofRequestIDs.le...\n      PUSH 1\t\t\t\n      PUSH 1\t\t\t\n      PUSH 40\t\t\t\n      SHL \t\t\t\n      SUB \t\t\t\n      AND \t\t\tfRequestIDs[proofRequestIDs.le...\n      PUSH A\t\t\tfRequestIDs[i] \n      DUP3 \t\t\t \n      DUP2 \t\t\tfRequestIDs[i] = p\n      SLOAD \t\t\tfRequestIDs[i] = p\n      DUP2 \t\t\tfRequestIDs[i] = p\n      LT \t\t\tfRequestIDs[i] = p\n      PUSH [tag] 375\t\t\tfRequestIDs[i] = p\n      JUMPI \t\t\tfRequestIDs[i] = p\n      PUSH [tag] 375\t\t\tfRequestIDs[i] = p\n      PUSH [tag] 164\t\t\tfRequestIDs[i] = p\n      JUMP \t\t\tfRequestIDs[i] = p\n    tag 375\t\t\tfRequestIDs[i] = p\n      JUMPDEST \t\t\tfRequestIDs[i] = p\n      SWAP1 \t\t\tfRequestIDs[i] = p\n      PUSH 0\t\t\tfRequestIDs[i] = p\n      MSTORE \t\t\tfRequestIDs[i] = p\n      PUSH 20\t\t\tfRequestIDs[i] = p\n      PUSH 0\t\t\tfRequestIDs[i] = p\n      KECCAK256 \t\t\tfRequestIDs[i] = p\n      SWAP1 \t\t\tfRequestIDs[i] = p\n      PUSH 4\t\t\tfRequestIDs[i] = p\n      SWAP2 \t\t\tfRequestIDs[i] = p\n      DUP3 \t\t\tfRequestIDs[i] = p\n      DUP3 \t\t\tfRequestIDs[i] = p\n      DIV \t\t\tfRequestIDs[i] = p\n      ADD \t\t\tfRequestIDs[i] = p\n      SWAP2 \t\t\tfRequestIDs[i] = p\n      SWAP1 \t\t\tfRequestIDs[i] = p\n      MOD \t\t\tfRequestIDs[i] = p\n      PUSH 8\t\t\tfRequestIDs[i] = p\n      MUL \t\t\tfRequestIDs[i] = p\n      PUSH 100\t\t\tfRequestIDs[i] = proofRequestI...\n      EXP \t\t\tfRequestIDs[i] = proofRequestI...\n      DUP2 \t\t\tfRequestIDs[i] = proofRequestI...\n      SLOAD \t\t\tfRequestIDs[i] = proofRequestI...\n      DUP2 \t\t\tfRequestIDs[i] = proofRequestI...\n      PUSH 1\t\t\t\n      PUSH 1\t\t\t\n      PUSH 40\t\t\t\n      SHL \t\t\t\n      SUB \t\t\t\n      MUL \t\t\tfRequestIDs[i] = proofRequestI...\n      NOT \t\t\tfRequestIDs[i] = proofRequestI...\n      AND \t\t\tfRequestIDs[i] = proofRequestI...\n      SWAP1 \t\t\tfRequestIDs[i] = proofRequestI...\n      DUP4 \t\t\tfRequestIDs[i] = proofRequestI...\n      PUSH 1\t\t\t\n      PUSH 1\t\t\t\n      PUSH 40\t\t\t\n      SHL \t\t\t\n      SUB \t\t\t\n      AND \t\t\tfRequestIDs[i] = proofRequestI...\n      MUL \t\t\tfRequestIDs[i] = proofRequestI...\n      OR \t\t\tfRequestIDs[i] = proofRequestI...\n      SWAP1 \t\t\tfRequestIDs[i] = proofRequestI...\n      SSTORE \t\t\tfRequestIDs[i] = proofRequestI...\n      POP \t\t\tfRequestIDs[i] = proofRequestI...\n      PUSH A\t\t\tfRequestIDs.pop\n      DUP1 \t\t\tfRequestIDs.pop();\\r\\n \n      SLOAD \t\t\tfRequestIDs.pop();\\r\\n \n      DUP1 \t\t\tfRequestIDs.pop();\\r\\n \n      PUSH [tag] 378\t\t\tfRequestIDs.pop();\\r\\n \n      JUMPI \t\t\tfRequestIDs.pop();\\r\\n \n      PUSH [tag] 378\t\t\tfRequestIDs.pop();\\r\\n \n      PUSH [tag] 245\t\t\tfRequestIDs.pop();\\r\\n \n      JUMP \t\t\tfRequestIDs.pop();\\r\\n \n    tag 378\t\t\tfRequestIDs.pop();\\r\\n \n      JUMPDEST \t\t\tfRequestIDs.pop();\\r\\n \n      PUSH 0\t\t\tfRequestIDs.pop();\\r\\n \n      DUP3 \t\t\tfRequestIDs.pop();\\r\\n \n      DUP2 \t\t\tfRequestIDs.pop();\\r\\n \n      MSTORE \t\t\tfRequestIDs.pop();\\r\\n \n      PUSH 20\t\t\tfRequestIDs.pop();\\r\\n \n      SWAP1 \t\t\tfRequestIDs.pop();\\r\\n \n      KECCAK256 \t\t\tfRequestIDs.pop();\\r\\n \n      PUSH 4\t\t\tfRequestIDs.pop();\\r\\n \n      PUSH 0\t\t\t\n      NOT \t\t\t\n      SWAP1 \t\t\tfRequestIDs.pop();\\r\\n \n      SWAP3 \t\t\tfRequestIDs.pop();\\r\\n \n      ADD \t\t\tfRequestIDs.pop();\\r\\n \n      SWAP2 \t\t\tfRequestIDs.pop();\\r\\n \n      DUP3 \t\t\tfRequestIDs.pop();\\r\\n \n      DIV \t\t\tfRequestIDs.pop();\\r\\n \n      ADD \t\t\tfRequestIDs.pop();\\r\\n \n      DUP1 \t\t\tfRequestIDs.pop();\\r\\n \n      SLOAD \t\t\tfRequestIDs.pop();\\r\\n \n      PUSH 1\t\t\t\n      PUSH 1\t\t\t\n      PUSH 40\t\t\t\n      SHL \t\t\t\n      SUB \t\t\t\n      PUSH 8\t\t\tfRequestIDs.pop();\\r\\n \n      PUSH 3\t\t\tfRequestIDs.pop();\\r\\n \n      DUP6 \t\t\tfRequestIDs.pop();\\r\\n \n      AND \t\t\tfRequestIDs.pop();\\r\\n \n      MUL \t\t\tfRequestIDs.pop();\\r\\n \n      PUSH 100\t\t\tfRequestIDs.pop();\\r\\n \n      EXP \t\t\tfRequestIDs.pop();\\r\\n \n      MUL \t\t\tfRequestIDs.pop();\\r\\n \n      NOT \t\t\tfRequestIDs.pop();\\r\\n \n      AND \t\t\tfRequestIDs.pop();\\r\\n \n      SWAP1 \t\t\tfRequestIDs.pop();\\r\\n \n      SSTORE \t\t\tfRequestIDs.pop();\\r\\n \n      SWAP1 \t\t\tfRequestIDs.pop();\\r\\n \n      SSTORE \t\t\tfRequestIDs.pop();\\r\\n \n      POP \t\t\t(uint256 i = 0; i < proofReque...\n      POP \t\t\ttion deleteProofRequestAndRole...\n      POP \t\t\ttion deleteProofRequestAndRole...\n      JUMP \t\t\ttion deleteProofRequestAndRole...\n    tag 369\t\t\tproofRequestIDs[i] == requestI...\n      JUMPDEST \t\t\tproofRequestIDs[i] == requestI...\n      DUP1 \t\t\t {\\r\n      PUSH [tag] 380\t\t\t {\\r\n      DUP2 \t\t\t {\\r\n      PUSH [tag] 169\t\t\t {\\r\n      JUMP \t\t\t {\\r\n    tag 380\t\t\t {\\r\n      JUMPDEST \t\t\t {\\r\n      SWAP2 \t\t\t {\\r\n      POP \t\t\t {\\r\n      POP \t\t\t {\\r\n      PUSH [tag] 363\t\t\t(uint256 i = 0; i < proofReque...\n      JUMP \t\t\t(uint256 i = 0; i < proofReque...\n    tag 364\t\t\t(uint256 i = 0; i < proofReque...\n      JUMPDEST \t\t\t(uint256 i = 0; i < proofReque...\n      POP \t\t\t(uint256 i = 0; i < proofReque...\n      POP \t\t\ttion deleteProofRequestAndRole...\n      POP \t\t\ttion deleteProofRequestAndRole...\n      JUMP \t\t\ttion deleteProofRequestAndRole...\n    tag 97\t\t\tfunction addAdmin(address _adm...\n      JUMPDEST \t\t\tfunction addAdmin(address _adm...\n      PUSH [tag] 382\t\t\t  admins.push\n      PUSH [tag] 226\t\t\t  admins.pu\n      JUMP \t\t\t  admins.push\n    tag 382\t\t\t  admins.push\n      JUMPDEST \t\t\t  admins.push\n      PUSH 1\t\t\t\n      PUSH 1\t\t\t\n      PUSH A0\t\t\t\n      SHL \t\t\t\n      SUB \t\t\t\n      DUP2 \t\t\t_admin != address(0)\n      AND \t\t\t_admin != address(0)\n      PUSH [tag] 384\t\t\trequire(_admin != address(0), ...\n      JUMPI \t\t\trequire(_admin != address(0), ...\n      PUSH 40\t\t\trequire(_admin != address(0), ...\n      MLOAD \t\t\trequire(_admin != address(0), ...\n      PUSH 461BCD\t\t\t\n      PUSH E5\t\t\t\n      SHL \t\t\t\n      DUP2 \t\t\trequire(_admin != address(0), ...\n      MSTORE \t\t\trequire(_admin != address(0), ...\n      PUSH 20\t\t\t\n      PUSH 4\t\t\trequire(_admin != address(0), ...\n      DUP3 \t\t\trequire(_admin != address(0), ...\n      ADD \t\t\trequire(_admin != address(0), ...\n      MSTORE \t\t\t\n      PUSH F\t\t\t\n      PUSH 24\t\t\t\n      DUP3 \t\t\t\n      ADD \t\t\t\n      MSTORE \t\t\t\n      PUSH 496E76616C69642061646472657373\t\t\t\n      PUSH 88\t\t\t\n      SHL \t\t\t\n      PUSH 44\t\t\t\n      DUP3 \t\t\t\n      ADD \t\t\t\n      MSTORE \t\t\t\n      PUSH 64\t\t\t\n      ADD \t\t\t\n      PUSH [tag] 248\t\t\trequire(_admin != address(0), ...\n      JUMP \t\t\t\n    tag 384\t\t\trequire(_admin != address(0), ...\n      JUMPDEST \t\t\trequire(_admin != address(0), ...\n      PUSH [tag] 387\t\t\t_isAdmin(_admin)\n      DUP2 \t\t\t_admin\n      PUSH [tag] 348\t\t\t_isAdmin\n      JUMP \t\t\t_isAdmin(_admin)\n    tag 387\t\t\t_isAdmin(_admin)\n      JUMPDEST \t\t\t_isAdmin(_admin)\n      ISZERO \t\t\t!_isAdmin(_admin)\n      PUSH [tag] 388\t\t\trequire(!_isAdmin(_admin), \"Ad...\n      JUMPI \t\t\trequire(!_isAdmin(_admin), \"Ad...\n      PUSH 40\t\t\trequire(!_isAdmin(_admin), \"Ad...\n      MLOAD \t\t\trequire(!_isAdmin(_admin), \"Ad...\n      PUSH 461BCD\t\t\t\n      PUSH E5\t\t\t\n      SHL \t\t\t\n      DUP2 \t\t\trequire(!_isAdmin(_admin), \"Ad...\n      MSTORE \t\t\trequire(!_isAdmin(_admin), \"Ad...\n      PUSH 20\t\t\t\n      PUSH 4\t\t\trequire(!_isAdmin(_admin), \"Ad...\n      DUP3 \t\t\trequire(!_isAdmin(_admin), \"Ad...\n      ADD \t\t\trequire(!_isAdmin(_admin), \"Ad...\n      MSTORE \t\t\t\n      PUSH 1B\t\t\t\n      PUSH 24\t\t\t\n      DUP3 \t\t\t\n      ADD \t\t\t\n      MSTORE \t\t\t\n      PUSH 4164647265737320697320616C726561647920616E2061646D696E0000000000\t\t\t\n      PUSH 44\t\t\t\n      DUP3 \t\t\t\n      ADD \t\t\t\n      MSTORE \t\t\t\n      PUSH 64\t\t\t\n      ADD \t\t\t\n      PUSH [tag] 248\t\t\trequire(!_isAdmin(_admin), \"Ad...\n      JUMP \t\t\t\n    tag 388\t\t\trequire(!_isAdmin(_admin), \"Ad...\n      JUMPDEST \t\t\trequire(!_isAdmin(_admin), \"Ad...\n      PUSH 4\t\t\tadmins\n      DUP1 \t\t\tadmins.push(_admin)\n      SLOAD \t\t\tadmins.push(_admin)\n      PUSH 1\t\t\tadmins.push(_admin)\n      DUP2 \t\t\tadmins.push(_admin)\n      ADD \t\t\tadmins.push(_admin)\n      DUP3 \t\t\tadmins.push(_admin)\n      SSTORE \t\t\tadmins.push(_admin)\n      PUSH 0\t\t\t\n      SWAP2 \t\t\tadmins.push(_admin)\n      SWAP1 \t\t\tadmins.push(_admin)\n      SWAP2 \t\t\tadmins.push(_admin)\n      MSTORE \t\t\tadmins.push(_admin)\n      PUSH 8A35ACFBC15FF81A39AE7D344FD709F28E8600B4AA8C65C6B64BFE7FE36BD19B\t\t\tadmins.push(_admin)\n      ADD \t\t\tadmins.push(_admin)\n      DUP1 \t\t\tadmins.push(_admin)\n      SLOAD \t\t\tadmins.push(_admin)\n      PUSH 1\t\t\t\n      PUSH 1\t\t\t\n      PUSH A0\t\t\t\n      SHL \t\t\t\n      SUB \t\t\t\n      NOT \t\t\t\n      AND \t\t\tadmins.push(_admin)\n      PUSH 1\t\t\t\n      PUSH 1\t\t\t\n      PUSH A0\t\t\t\n      SHL \t\t\t\n      SUB \t\t\t\n      SWAP3 \t\t\tadmins.push(_admin)\n      SWAP1 \t\t\tadmins.push(_admin)\n      SWAP3 \t\t\tadmins.push(_admin)\n      AND \t\t\tadmins.push(_admin)\n      SWAP2 \t\t\tadmins.push(_admin)\n      SWAP1 \t\t\tadmins.push(_admin)\n      SWAP2 \t\t\tadmins.push(_admin)\n      OR \t\t\tadmins.push(_admin)\n      SWAP1 \t\t\tadmins.push(_admin)\n      SSTORE \t\t\tadmins.push(_admin)\n      JUMP \t\t\tfunction addAdmin(address _adm...\n    tag 99\t\t\t EnumerableSet.UintSet private...\n      JUMPDEST \t\t\t EnumerableSet.UintSet private...\n      PUSH [tag] 393\t\t\t  admins.push\n      PUSH [tag] 226\t\t\t  admins.pu\n      JUMP \t\t\t  admins.push\n    tag 393\t\t\t  admins.push\n      JUMPDEST \t\t\t  admins.push\n      PUSH [tag] 395\t\t\tReturns the full list of token\n      PUSH 0\t\t\tk\n      PUSH [tag] 396\t\t\tReturns the full l\n      JUMP \t\t\tReturns the full list of token\n    tag 395\t\t\tReturns the full list of token\n      JUMPDEST \t\t\tReturns the full list of token\n      JUMP \t\t\t EnumerableSet.UintSet private...\n    tag 103\t\t\ttion addProofRequest_VerifierA...\n      JUMPDEST \t\t\ttion addProofRequest_VerifierA...\n      PUSH 40\t\t\tVerifier.ZKPRequest({\\r\\n     ...\n      DUP1 \t\t\tVerifier.ZKPRequest({\\r\\n     ...\n      MLOAD \t\t\tVerifier.ZKPRequest({\\r\\n     ...\n      PUSH 80\t\t\tVerifier.ZKPRequest({\\r\\n     ...\n      PUSH 20\t\t\tVerifier.ZKPRequest({\\r\\n     ...\n      PUSH 1F\t\t\tVerifier.ZKPRequest({\\r\\n     ...\n      DUP13 \t\t\tVerifier.ZKPRequest({\\r\\n     ...\n      ADD \t\t\tVerifier.ZKPRequest({\\r\\n     ...\n      DUP2 \t\t\tVerifier.ZKPRequest({\\r\\n     ...\n      SWAP1 \t\t\tVerifier.ZKPRequest({\\r\\n     ...\n      DIV \t\t\tVerifier.ZKPRequest({\\r\\n     ...\n      MUL \t\t\tVerifier.ZKPRequest({\\r\\n     ...\n      DUP3 \t\t\tVerifier.ZKPRequest({\\r\\n     ...\n      ADD \t\t\tVerifier.ZKPRequest({\\r\\n     ...\n      DUP2 \t\t\tVerifier.ZKPRequest({\\r\\n     ...\n      ADD \t\t\tVerifier.ZKPRequest({\\r\\n     ...\n      SWAP1 \t\t\tVerifier.ZKPRequest({\\r\\n     ...\n      SWAP3 \t\t\tVerifier.ZKPRequest({\\r\\n     ...\n      MSTORE \t\t\tVerifier.ZKPRequest({\\r\\n     ...\n      PUSH 60\t\t\tVerifier.ZKPRequest({\\r\\n     ...\n      DUP2 \t\t\tVerifier.ZKPRequest({\\r\\n     ...\n      ADD \t\t\tVerifier.ZKPRequest({\\r\\n     ...\n      DUP11 \t\t\tVerifier.ZKPRequest({\\r\\n     ...\n      DUP2 \t\t\tVerifier.ZKPRequest({\\r\\n     ...\n      MSTORE \t\t\tVerifier.ZKPRequest({\\r\\n     ...\n      PUSH 0\t\t\tVerifier.ZKPRequest memory req...\n      SWAP3 \t\t\tVerifier.ZKPRequest memory req...\n      DUP3 \t\t\tVerifier.ZKPRequest({\\r\\n     ...\n      SWAP2 \t\t\tVerifier.ZKPRequest({\\r\\n     ...\n      SWAP1 \t\t\tVerifier.ZKPRequest({\\r\\n     ...\n      DUP14 \t\t\tdata,\\r\\n \n      SWAP1 \t\t\tdata,\\r\\n \n      DUP14 \t\t\tdata,\\r\\n \n      SWAP1 \t\t\tdata,\\r\\n \n      DUP2 \t\t\tdata,\\r\\n \n      SWAP1 \t\t\tdata,\\r\\n \n      DUP6 \t\t\tVerifier.ZKPRequest({\\r\\n     ...\n      ADD \t\t\tVerifier.ZKPRequest({\\r\\n     ...\n      DUP4 \t\t\tdata,\\r\\n \n      DUP3 \t\t\tdata,\\r\\n \n      DUP1 \t\t\tdata,\\r\\n \n      DUP3 \t\t\tdata,\\r\\n \n      DUP5 \t\t\tVerifier.ZKPRequest({\\r\\n     ...\n      CALLDATACOPY \t\t\tVerifier.ZKPRequest({\\r\\n     ...\n      PUSH 0\t\t\tVerifier.ZKPRequest({\\r\\n     ...\n      SWAP3 \t\t\tVerifier.ZKPRequest({\\r\\n     ...\n      ADD \t\t\tVerifier.ZKPRequest({\\r\\n     ...\n      SWAP2 \t\t\tVerifier.ZKPRequest({\\r\\n     ...\n      SWAP1 \t\t\tVerifier.ZKPRequest({\\r\\n     ...\n      SWAP2 \t\t\tVerifier.ZKPRequest({\\r\\n     ...\n      MSTORE \t\t\tVerifier.ZKPRequest({\\r\\n     ...\n      POP \t\t\t\n      POP \t\t\t\n      POP \t\t\t\n      SWAP1 \t\t\tVerifier.ZKPRequest({\\r\\n     ...\n      DUP3 \t\t\tVerifier.ZKPRequest({\\r\\n     ...\n      MSTORE \t\t\tVerifier.ZKPRequest({\\r\\n     ...\n      POP \t\t\t\n      PUSH 1\t\t\t\n      PUSH 1\t\t\t\n      PUSH A0\t\t\t\n      SHL \t\t\t\n      SUB \t\t\t\n      DUP11 \t\t\tVerifier.ZKPRequest({\\r\\n     ...\n      AND \t\t\tVerifier.ZKPRequest({\\r\\n     ...\n      PUSH 20\t\t\tVerifier.ZKPRequest({\\r\\n     ...\n      DUP1 \t\t\tVerifier.ZKPRequest({\\r\\n     ...\n      DUP4 \t\t\tVerifier.ZKPRequest({\\r\\n     ...\n      ADD \t\t\tVerifier.ZKPRequest({\\r\\n     ...\n      SWAP2 \t\t\tVerifier.ZKPRequest({\\r\\n     ...\n      SWAP1 \t\t\tVerifier.ZKPRequest({\\r\\n     ...\n      SWAP2 \t\t\tVerifier.ZKPRequest({\\r\\n     ...\n      MSTORE \t\t\tVerifier.ZKPRequest({\\r\\n     ...\n      PUSH 40\t\t\tVerifier.ZKPRequest({\\r\\n     ...\n      DUP1 \t\t\tVerifier.ZKPRequest({\\r\\n     ...\n      MLOAD \t\t\tVerifier.ZKPRequest({\\r\\n     ...\n      PUSH 1F\t\t\tVerifier.ZKPRequest({\\r\\n     ...\n      DUP12 \t\t\tVerifier.ZKPRequest({\\r\\n     ...\n      ADD \t\t\tVerifier.ZKPRequest({\\r\\n     ...\n      DUP4 \t\t\tVerifier.ZKPRequest({\\r\\n     ...\n      SWAP1 \t\t\tVerifier.ZKPRequest({\\r\\n     ...\n      DIV \t\t\tVerifier.ZKPRequest({\\r\\n     ...\n      DUP4 \t\t\tVerifier.ZKPRequest({\\r\\n     ...\n      MUL \t\t\tVerifier.ZKPRequest({\\r\\n     ...\n      DUP2 \t\t\tVerifier.ZKPRequest({\\r\\n     ...\n      ADD \t\t\tVerifier.ZKPRequest({\\r\\n     ...\n      DUP4 \t\t\tVerifier.ZKPRequest({\\r\\n     ...\n      ADD \t\t\tVerifier.ZKPRequest({\\r\\n     ...\n      DUP3 \t\t\tVerifier.ZKPRequest({\\r\\n     ...\n      MSTORE \t\t\tVerifier.ZKPRequest({\\r\\n     ...\n      DUP11 \t\t\tVerifier.ZKPRequest({\\r\\n     ...\n      DUP2 \t\t\tVerifier.ZKPRequest({\\r\\n     ...\n      MSTORE \t\t\tVerifier.ZKPRequest({\\r\\n     ...\n      SWAP3 \t\t\tVerifier.ZKPRequest({\\r\\n     ...\n      ADD \t\t\tVerifier.ZKPRequest({\\r\\n     ...\n      SWAP2 \t\t\tVerifier.ZKPRequest({\\r\\n     ...\n      SWAP1 \t\t\tVerifier.ZKPRequest({\\r\\n     ...\n      DUP11 \t\t\t\\r\\n  \n      SWAP1 \t\t\t\\r\\n  \n      DUP11 \t\t\t\\r\\n  \n      SWAP1 \t\t\t\\r\\n  \n      DUP2 \t\t\t\\r\\n  \n      SWAP1 \t\t\t\\r\\n  \n      DUP5 \t\t\tVerifier.ZKPRequest({\\r\\n     ...\n      ADD \t\t\tVerifier.ZKPRequest({\\r\\n     ...\n      DUP4 \t\t\t\\r\\n  \n      DUP3 \t\t\t\\r\\n  \n      DUP1 \t\t\t\\r\\n  \n      DUP3 \t\t\t\\r\\n  \n      DUP5 \t\t\tVerifier.ZKPRequest({\\r\\n     ...\n      CALLDATACOPY \t\t\tVerifier.ZKPRequest({\\r\\n     ...\n      PUSH 0\t\t\tVerifier.ZKPRequest({\\r\\n     ...\n      SWAP3 \t\t\tVerifier.ZKPRequest({\\r\\n     ...\n      ADD \t\t\tVerifier.ZKPRequest({\\r\\n     ...\n      SWAP2 \t\t\tVerifier.ZKPRequest({\\r\\n     ...\n      SWAP1 \t\t\tVerifier.ZKPRequest({\\r\\n     ...\n      SWAP2 \t\t\tVerifier.ZKPRequest({\\r\\n     ...\n      MSTORE \t\t\tVerifier.ZKPRequest({\\r\\n     ...\n      POP \t\t\t\n      POP \t\t\t\n      POP \t\t\t\n      SWAP2 \t\t\tVerifier.ZKPRequest({\\r\\n     ...\n      MSTORE \t\t\tVerifier.ZKPRequest({\\r\\n     ...\n      POP \t\t\t\n      PUSH B\t\t\tfier.set\n      SLOAD \t\t\tfier.set\n      PUSH 40\t\t\tfier.setZKPRequest(requestId, ...\n      MLOAD \t\t\tfier.setZKPRequest(requestId, ...\n      PUSH 4FA911F\t\t\t\n      PUSH E5\t\t\t\n      SHL \t\t\t\n      DUP2 \t\t\tfier.setZKPRequest(requestId, ...\n      MSTORE \t\t\tfier.setZKPRequest(requestId, ...\n      SWAP2 \t\t\tVerifier.ZKPRequest memory req...\n      SWAP3 \t\t\tVerifier.ZKPRequest memory req...\n      POP \t\t\t\n      PUSH 1\t\t\t\n      PUSH 1\t\t\t\n      PUSH A0\t\t\t\n      SHL \t\t\t\n      SUB \t\t\t\n      AND \t\t\tfier.set\n      SWAP1 \t\t\tfier.set\n      PUSH 9F5223E0\t\t\tfier.setZKPRequest(req\n      SWAP1 \t\t\tfier.setZKPRequest(req\n      PUSH [tag] 398\t\t\tfier.setZKPRequest(requestId, ...\n      SWAP1 \t\t\tfier.setZKPRequest(requestId, ...\n      DUP15 \t\t\testId, re\n      SWAP1 \t\t\testId, re\n      DUP6 \t\t\tVerifier.ZKPRequest memory req...\n      SWAP1 \t\t\tVerifier.ZKPRequest memory req...\n      PUSH 4\t\t\tfier.setZKPRequest(requestId, ...\n      ADD \t\t\tfier.setZKPRequest(requestId, ...\n      PUSH [tag] 399\t\t\tfier.setZKPRequest(requestId, ...\n      JUMP \t\t\tfier.setZKPRequest(requestId, ...\n    tag 398\t\t\tfier.setZKPRequest(requestId, ...\n      JUMPDEST \t\t\tfier.setZKPRequest(requestId, ...\n      PUSH 0\t\t\tfier.setZKPRequest(requestId, ...\n      PUSH 40\t\t\tfier.setZKPRequest(requestId, ...\n      MLOAD \t\t\tfier.setZKPRequest(requestId, ...\n      DUP1 \t\t\tfier.setZKPRequest(requestId, ...\n      DUP4 \t\t\tfier.setZKPRequest(requestId, ...\n      SUB \t\t\tfier.setZKPRequest(requestId, ...\n      DUP2 \t\t\tfier.setZKPRequest(requestId, ...\n      PUSH 0\t\t\tfier.setZKPRequest(requestId, ...\n      DUP8 \t\t\tfier.setZKPRequest(requestId, ...\n      DUP1 \t\t\tfier.setZKPRequest(requestId, ...\n      EXTCODESIZE \t\t\tfier.setZKPRequest(requestId, ...\n      ISZERO \t\t\tfier.setZKPRequest(requestId, ...\n      DUP1 \t\t\tfier.setZKPRequest(requestId, ...\n      ISZERO \t\t\tfier.setZKPRequest(requestId, ...\n      PUSH [tag] 400\t\t\tfier.setZKPRequest(requestId, ...\n      JUMPI \t\t\tfier.setZKPRequest(requestId, ...\n      PUSH 0\t\t\tfier.setZKPRequest(requestId, ...\n      DUP1 \t\t\tfier.setZKPRequest(requestId, ...\n      REVERT \t\t\tfier.setZKPRequest(requestId, ...\n    tag 400\t\t\tfier.setZKPRequest(requestId, ...\n      JUMPDEST \t\t\tfier.setZKPRequest(requestId, ...\n      POP \t\t\tfier.setZKPRequest(requestId, ...\n      GAS \t\t\tfier.setZKPRequest(requestId, ...\n      CALL \t\t\tfier.setZKPRequest(requestId, ...\n      ISZERO \t\t\tfier.setZKPRequest(requestId, ...\n      DUP1 \t\t\tfier.setZKPRequest(requestId, ...\n      ISZERO \t\t\tfier.setZKPRequest(requestId, ...\n      PUSH [tag] 402\t\t\tfier.setZKPRequest(requestId, ...\n      JUMPI \t\t\tfier.setZKPRequest(requestId, ...\n      RETURNDATASIZE \t\t\tfier.setZKPRequest(requestId, ...\n      PUSH 0\t\t\tfier.setZKPRequest(requestId, ...\n      DUP1 \t\t\tfier.setZKPRequest(requestId, ...\n      RETURNDATACOPY \t\t\tfier.setZKPRequest(requestId, ...\n      RETURNDATASIZE \t\t\tfier.setZKPRequest(requestId, ...\n      PUSH 0\t\t\tfier.setZKPRequest(requestId, ...\n      REVERT \t\t\tfier.setZKPRequest(requestId, ...\n    tag 402\t\t\tfier.setZKPRequest(requestId, ...\n      JUMPDEST \t\t\tfier.setZKPRequest(requestId, ...\n      POP \t\t\tfier.setZKPRequest(requestId, ...\n      POP \t\t\tfier.setZKPRequest(requestId, ...\n      POP \t\t\tfier.setZKPRequest(requestId, ...\n      POP \t\t\tfier.setZKPRequest(requestId, ...\n      PUSH [tag] 403\t\t\troofRequestAndRole(tokenID, re...\n      DUP6 \t\t\tnID, re\n      DUP13 \t\t\testId, ro\n      DUP7 \t\t\t);\\r\\n\n      DUP7 \t\t\t);\\r\\n\n      PUSH [tag] 126\t\t\troofRequestAndRole(tok\n      JUMP \t\t\troofRequestAndRole(tokenID, re...\n    tag 403\t\t\troofRequestAndRole(tokenID, re...\n      JUMPDEST \t\t\troofRequestAndRole(tokenID, re...\n      PUSH 40\t\t\tdingCondition({\\r\\n           ...\n      DUP1 \t\t\tdingCondition({\\r\\n           ...\n      MLOAD \t\t\tdingCondition({\\r\\n           ...\n      PUSH 60\t\t\tdingCondition({\\r\\n           ...\n      DUP2 \t\t\tdingCondition({\\r\\n           ...\n      ADD \t\t\tdingCondition({\\r\\n           ...\n      SWAP1 \t\t\tdingCondition({\\r\\n           ...\n      SWAP2 \t\t\tdingCondition({\\r\\n           ...\n      MSTORE \t\t\tdingCondition({\\r\\n           ...\n      DUP1 \t\t\tdingCondition({\\r\\n           ...\n      PUSH [tag] 404\t\t\tition.attribute,\\r\\n \n      DUP5 \t\t\tition.att\n      DUP1 \t\t\tition.att\n      PUSH [tag] 405\t\t\tition.attribute,\\r\\n \n      JUMP \t\t\tition.attribute,\\r\\n \n    tag 404\t\t\tition.attribute,\\r\\n \n      JUMPDEST \t\t\tition.attribute,\\r\\n \n      DUP1 \t\t\tdingCondition({\\r\\n           ...\n      DUP1 \t\t\tdingCondition({\\r\\n           ...\n      PUSH 1F\t\t\tdingCondition({\\r\\n           ...\n      ADD \t\t\tdingCondition({\\r\\n           ...\n      PUSH 20\t\t\tdingCondition({\\r\\n           ...\n      DUP1 \t\t\tdingCondition({\\r\\n           ...\n      SWAP2 \t\t\tdingCondition({\\r\\n           ...\n      DIV \t\t\tdingCondition({\\r\\n           ...\n      MUL \t\t\tdingCondition({\\r\\n           ...\n      PUSH 20\t\t\tdingCondition({\\r\\n           ...\n      ADD \t\t\tdingCondition({\\r\\n           ...\n      PUSH 40\t\t\tdingCondition({\\r\\n           ...\n      MLOAD \t\t\tdingCondition({\\r\\n           ...\n      SWAP1 \t\t\tdingCondition({\\r\\n           ...\n      DUP2 \t\t\tdingCondition({\\r\\n           ...\n      ADD \t\t\tdingCondition({\\r\\n           ...\n      PUSH 40\t\t\tdingCondition({\\r\\n           ...\n      MSTORE \t\t\tdingCondition({\\r\\n           ...\n      DUP1 \t\t\tdingCondition({\\r\\n           ...\n      SWAP4 \t\t\tdingCondition({\\r\\n           ...\n      SWAP3 \t\t\tdingCondition({\\r\\n           ...\n      SWAP2 \t\t\tdingCondition({\\r\\n           ...\n      SWAP1 \t\t\tdingCondition({\\r\\n           ...\n      DUP2 \t\t\tdingCondition({\\r\\n           ...\n      DUP2 \t\t\tdingCondition({\\r\\n           ...\n      MSTORE \t\t\tdingCondition({\\r\\n           ...\n      PUSH 20\t\t\tdingCondition({\\r\\n           ...\n      ADD \t\t\tdingCondition({\\r\\n           ...\n      DUP4 \t\t\tdingCondition({\\r\\n           ...\n      DUP4 \t\t\tdingCondition({\\r\\n           ...\n      DUP1 \t\t\tdingCondition({\\r\\n           ...\n      DUP3 \t\t\tdingCondition({\\r\\n           ...\n      DUP5 \t\t\tdingCondition({\\r\\n           ...\n      CALLDATACOPY \t\t\tdingCondition({\\r\\n           ...\n      PUSH 0\t\t\tdingCondition({\\r\\n           ...\n      SWAP3 \t\t\tdingCondition({\\r\\n           ...\n      ADD \t\t\tdingCondition({\\r\\n           ...\n      SWAP2 \t\t\tdingCondition({\\r\\n           ...\n      SWAP1 \t\t\tdingCondition({\\r\\n           ...\n      SWAP2 \t\t\tdingCondition({\\r\\n           ...\n      MSTORE \t\t\tdingCondition({\\r\\n           ...\n      POP \t\t\t\n      POP \t\t\t\n      POP \t\t\t\n      SWAP1 \t\t\tdingCondition({\\r\\n           ...\n      DUP3 \t\t\tdingCondition({\\r\\n           ...\n      MSTORE \t\t\tdingCondition({\\r\\n           ...\n      POP \t\t\t\n      PUSH 20\t\t\tdingCondition({\\r\\n           ...\n      SWAP1 \t\t\tdingCondition({\\r\\n           ...\n      DUP2 \t\t\tdingCondition({\\r\\n           ...\n      ADD \t\t\tdingCondition({\\r\\n           ...\n      SWAP1 \t\t\tdingCondition({\\r\\n           ...\n      PUSH [tag] 406\t\t\tition.operatorStr,\\r\\n \n      SWAP1 \t\t\tition.operatorStr,\\r\\n \n      DUP6 \t\t\tition.operatorStr,\\r\\n \n      ADD \t\t\tition.operatorStr,\\r\\n \n      DUP6 \t\t\tition.ope\n      PUSH [tag] 405\t\t\tition.operatorStr,\\r\\n \n      JUMP \t\t\tition.operatorStr,\\r\\n \n    tag 406\t\t\tition.operatorStr,\\r\\n \n      JUMPDEST \t\t\tition.operatorStr,\\r\\n \n      DUP1 \t\t\tdingCondition({\\r\\n           ...\n      DUP1 \t\t\tdingCondition({\\r\\n           ...\n      PUSH 1F\t\t\tdingCondition({\\r\\n           ...\n      ADD \t\t\tdingCondition({\\r\\n           ...\n      PUSH 20\t\t\tdingCondition({\\r\\n           ...\n      DUP1 \t\t\tdingCondition({\\r\\n           ...\n      SWAP2 \t\t\tdingCondition({\\r\\n           ...\n      DIV \t\t\tdingCondition({\\r\\n           ...\n      MUL \t\t\tdingCondition({\\r\\n           ...\n      PUSH 20\t\t\tdingCondition({\\r\\n           ...\n      ADD \t\t\tdingCondition({\\r\\n           ...\n      PUSH 40\t\t\tdingCondition({\\r\\n           ...\n      MLOAD \t\t\tdingCondition({\\r\\n           ...\n      SWAP1 \t\t\tdingCondition({\\r\\n           ...\n      DUP2 \t\t\tdingCondition({\\r\\n           ...\n      ADD \t\t\tdingCondition({\\r\\n           ...\n      PUSH 40\t\t\tdingCondition({\\r\\n           ...\n      MSTORE \t\t\tdingCondition({\\r\\n           ...\n      DUP1 \t\t\tdingCondition({\\r\\n           ...\n      SWAP4 \t\t\tdingCondition({\\r\\n           ...\n      SWAP3 \t\t\tdingCondition({\\r\\n           ...\n      SWAP2 \t\t\tdingCondition({\\r\\n           ...\n      SWAP1 \t\t\tdingCondition({\\r\\n           ...\n      DUP2 \t\t\tdingCondition({\\r\\n           ...\n      DUP2 \t\t\tdingCondition({\\r\\n           ...\n      MSTORE \t\t\tdingCondition({\\r\\n           ...\n      PUSH 20\t\t\tdingCondition({\\r\\n           ...\n      ADD \t\t\tdingCondition({\\r\\n           ...\n      DUP4 \t\t\tdingCondition({\\r\\n           ...\n      DUP4 \t\t\tdingCondition({\\r\\n           ...\n      DUP1 \t\t\tdingCondition({\\r\\n           ...\n      DUP3 \t\t\tdingCondition({\\r\\n           ...\n      DUP5 \t\t\tdingCondition({\\r\\n           ...\n      CALLDATACOPY \t\t\tdingCondition({\\r\\n           ...\n      PUSH 0\t\t\tdingCondition({\\r\\n           ...\n      SWAP3 \t\t\tdingCondition({\\r\\n           ...\n      ADD \t\t\tdingCondition({\\r\\n           ...\n      SWAP2 \t\t\tdingCondition({\\r\\n           ...\n      SWAP1 \t\t\tdingCondition({\\r\\n           ...\n      SWAP2 \t\t\tdingCondition({\\r\\n           ...\n      MSTORE \t\t\tdingCondition({\\r\\n           ...\n      POP \t\t\t\n      POP \t\t\t\n      POP \t\t\t\n      SWAP1 \t\t\tdingCondition({\\r\\n           ...\n      DUP3 \t\t\tdingCondition({\\r\\n           ...\n      MSTORE \t\t\tdingCondition({\\r\\n           ...\n      POP \t\t\t\n      PUSH 20\t\t\tdingCondition({\\r\\n           ...\n      ADD \t\t\tdingCondition({\\r\\n           ...\n      PUSH [tag] 407\t\t\tition.value\\r\\n  \n      PUSH 40\t\t\tition.value\\r\\n  \n      DUP6 \t\t\tition.value\\r\\n  \n      ADD \t\t\tition.value\\r\\n  \n      DUP6 \t\t\tition.val\n      PUSH [tag] 405\t\t\tition.value\\r\\n  \n      JUMP \t\t\tition.value\\r\\n  \n    tag 407\t\t\tition.value\\r\\n  \n      JUMPDEST \t\t\tition.value\\r\\n  \n      DUP1 \t\t\tdingCondition({\\r\\n           ...\n      DUP1 \t\t\tdingCondition({\\r\\n           ...\n      PUSH 1F\t\t\tdingCondition({\\r\\n           ...\n      ADD \t\t\tdingCondition({\\r\\n           ...\n      PUSH 20\t\t\tdingCondition({\\r\\n           ...\n      DUP1 \t\t\tdingCondition({\\r\\n           ...\n      SWAP2 \t\t\tdingCondition({\\r\\n           ...\n      DIV \t\t\tdingCondition({\\r\\n           ...\n      MUL \t\t\tdingCondition({\\r\\n           ...\n      PUSH 20\t\t\tdingCondition({\\r\\n           ...\n      ADD \t\t\tdingCondition({\\r\\n           ...\n      PUSH 40\t\t\tdingCondition({\\r\\n           ...\n      MLOAD \t\t\tdingCondition({\\r\\n           ...\n      SWAP1 \t\t\tdingCondition({\\r\\n           ...\n      DUP2 \t\t\tdingCondition({\\r\\n           ...\n      ADD \t\t\tdingCondition({\\r\\n           ...\n      PUSH 40\t\t\tdingCondition({\\r\\n           ...\n      MSTORE \t\t\tdingCondition({\\r\\n           ...\n      DUP1 \t\t\tdingCondition({\\r\\n           ...\n      SWAP4 \t\t\tdingCondition({\\r\\n           ...\n      SWAP3 \t\t\tdingCondition({\\r\\n           ...\n      SWAP2 \t\t\tdingCondition({\\r\\n           ...\n      SWAP1 \t\t\tdingCondition({\\r\\n           ...\n      DUP2 \t\t\tdingCondition({\\r\\n           ...\n      DUP2 \t\t\tdingCondition({\\r\\n           ...\n      MSTORE \t\t\tdingCondition({\\r\\n           ...\n      PUSH 20\t\t\tdingCondition({\\r\\n           ...\n      ADD \t\t\tdingCondition({\\r\\n           ...\n      DUP4 \t\t\tdingCondition({\\r\\n           ...\n      DUP4 \t\t\tdingCondition({\\r\\n           ...\n      DUP1 \t\t\tdingCondition({\\r\\n           ...\n      DUP3 \t\t\tdingCondition({\\r\\n           ...\n      DUP5 \t\t\tdingCondition({\\r\\n           ...\n      CALLDATACOPY \t\t\tdingCondition({\\r\\n           ...\n      PUSH 0\t\t\tdingCondition({\\r\\n           ...\n      DUP2 \t\t\tdingCondition({\\r\\n           ...\n      DUP5 \t\t\tdingCondition({\\r\\n           ...\n      ADD \t\t\tdingCondition({\\r\\n           ...\n      MSTORE \t\t\tdingCondition({\\r\\n           ...\n      PUSH 1F\t\t\tdingCondition({\\r\\n           ...\n      NOT \t\t\tdingCondition({\\r\\n           ...\n      PUSH 1F\t\t\tdingCondition({\\r\\n           ...\n      DUP3 \t\t\tdingCondition({\\r\\n           ...\n      ADD \t\t\tdingCondition({\\r\\n           ...\n      AND \t\t\tdingCondition({\\r\\n           ...\n      SWAP1 \t\t\tdingCondition({\\r\\n           ...\n      POP \t\t\tdingCondition({\\r\\n           ...\n      DUP1 \t\t\tdingCondition({\\r\\n           ...\n      DUP4 \t\t\tdingCondition({\\r\\n           ...\n      ADD \t\t\tdingCondition({\\r\\n           ...\n      SWAP3 \t\t\tdingCondition({\\r\\n           ...\n      POP \t\t\tdingCondition({\\r\\n           ...\n      POP \t\t\tdingCondition({\\r\\n           ...\n      POP \t\t\tdingCondition({\\r\\n           ...\n      POP \t\t\tdingCondition({\\r\\n           ...\n      POP \t\t\tdingCondition({\\r\\n           ...\n      POP \t\t\tdingCondition({\\r\\n           ...\n      POP \t\t\tdingCondition({\\r\\n           ...\n      DUP2 \t\t\tdingCondition({\\r\\n           ...\n      MSTORE \t\t\tdingCondition({\\r\\n           ...\n      POP \t\t\tdingCondition({\\r\\n           ...\n      PUSH 9\t\t\tdingConditions[tok\n      PUSH 0\t\t\tdingConditions[tokenID][req\n      DUP8 \t\t\tnID][re\n      DUP2 \t\t\tdingConditions[tokenID][req\n      MSTORE \t\t\tdingConditions[tokenID][req\n      PUSH 20\t\t\tdingConditions[tokenID][req\n      ADD \t\t\tdingConditions[tokenID][req\n      SWAP1 \t\t\tdingConditions[tokenID][req\n      DUP2 \t\t\tdingConditions[tokenID][req\n      MSTORE \t\t\tdingConditions[tokenID][req\n      PUSH 20\t\t\tdingConditions[tokenID][req\n      ADD \t\t\tdingConditions[tokenID][req\n      PUSH 0\t\t\tdingConditions[tokenID][req\n      KECCAK256 \t\t\tdingConditions[tokenID][req\n      PUSH 0\t\t\tdingConditions[tokenID][reques...\n      DUP14 \t\t\testId] = \n      PUSH 1\t\t\t\n      PUSH 1\t\t\t\n      PUSH 40\t\t\t\n      SHL \t\t\t\n      SUB \t\t\t\n      AND \t\t\tdingConditions[tokenID][reques...\n      PUSH 1\t\t\t\n      PUSH 1\t\t\t\n      PUSH 40\t\t\t\n      SHL \t\t\t\n      SUB \t\t\t\n      AND \t\t\tdingConditions[tokenID][reques...\n      DUP2 \t\t\tdingConditions[tokenID][reques...\n      MSTORE \t\t\tdingConditions[tokenID][reques...\n      PUSH 20\t\t\tdingConditions[tokenID][reques...\n      ADD \t\t\tdingConditions[tokenID][reques...\n      SWAP1 \t\t\tdingConditions[tokenID][reques...\n      DUP2 \t\t\tdingConditions[tokenID][reques...\n      MSTORE \t\t\tdingConditions[tokenID][reques...\n      PUSH 20\t\t\tdingConditions[tokenID][reques...\n      ADD \t\t\tdingConditions[tokenID][reques...\n      PUSH 0\t\t\tdingConditions[tokenID][reques...\n      KECCAK256 \t\t\tdingConditions[tokenID][reques...\n      PUSH 0\t\t\tdingConditions[tokenID][reques...\n      DUP3 \t\t\tdingConditions[tokenID][reques...\n      ADD \t\t\tdingConditions[tokenID][reques...\n      MLOAD \t\t\tdingConditions[tokenID][reques...\n      DUP2 \t\t\tdingConditions[tokenID][reques...\n      PUSH 0\t\t\tdingConditions[tokenID][reques...\n      ADD \t\t\tdingConditions[tokenID][reques...\n      SWAP1 \t\t\tdingConditions[tokenID][reques...\n      DUP2 \t\t\tdingConditions[tokenID][reques...\n      PUSH [tag] 408\t\t\tdingConditions[tokenID][reques...\n      SWAP2 \t\t\tdingConditions[tokenID][reques...\n      SWAP1 \t\t\tdingConditions[tokenID][reques...\n      PUSH [tag] 409\t\t\tdingConditions[tokenID][reques...\n      JUMP \t\t\tdingConditions[tokenID][reques...\n    tag 408\t\t\tdingConditions[tokenID][reques...\n      JUMPDEST \t\t\tdingConditions[tokenID][reques...\n      POP \t\t\t\n      PUSH 20\t\t\tdingConditions[tokenID][reques...\n      DUP3 \t\t\tdingConditions[tokenID][reques...\n      ADD \t\t\tdingConditions[tokenID][reques...\n      MLOAD \t\t\tdingConditions[tokenID][reques...\n      PUSH 1\t\t\tdingConditions[tokenID][reques...\n      DUP3 \t\t\tdingConditions[tokenID][reques...\n      ADD \t\t\tdingConditions[tokenID][reques...\n      SWAP1 \t\t\tdingConditions[tokenID][reques...\n      PUSH [tag] 410\t\t\tdingConditions[tokenID][reques...\n      SWAP1 \t\t\tdingConditions[tokenID][reques...\n      DUP3 \t\t\tdingConditions[tokenID][reques...\n      PUSH [tag] 409\t\t\tdingConditions[tokenID][reques...\n      JUMP \t\t\tdingConditions[tokenID][reques...\n    tag 410\t\t\tdingConditions[tokenID][reques...\n      JUMPDEST \t\t\tdingConditions[tokenID][reques...\n      POP \t\t\t\n      PUSH 40\t\t\tdingConditions[tokenID][reques...\n      DUP3 \t\t\tdingConditions[tokenID][reques...\n      ADD \t\t\tdingConditions[tokenID][reques...\n      MLOAD \t\t\tdingConditions[tokenID][reques...\n      PUSH 2\t\t\tdingConditions[tokenID][reques...\n      DUP3 \t\t\tdingConditions[tokenID][reques...\n      ADD \t\t\tdingConditions[tokenID][reques...\n      SWAP1 \t\t\tdingConditions[tokenID][reques...\n      PUSH [tag] 411\t\t\tdingConditions[tokenID][reques...\n      SWAP1 \t\t\tdingConditions[tokenID][reques...\n      DUP3 \t\t\tdingConditions[tokenID][reques...\n      PUSH [tag] 409\t\t\tdingConditions[tokenID][reques...\n      JUMP \t\t\tdingConditions[tokenID][reques...\n    tag 411\t\t\tdingConditions[tokenID][reques...\n      JUMPDEST \t\t\tdingConditions[tokenID][reques...\n      POP \t\t\t\n      POP \t\t\t\n      POP \t\t\t\n      POP \t\t\t\n      POP \t\t\t\n      POP \t\t\t\n      POP \t\t\t\n      POP \t\t\t\n      POP \t\t\t\n      POP \t\t\t\n      POP \t\t\t\n      POP \t\t\t\n      POP \t\t\t\n      POP \t\t\t\n      JUMP \t\t\ttion addProofRequest_VerifierA...\n    tag 105\t\t\tfunction allTokenIDs() externa...\n      JUMPDEST \t\t\tfunction allTokenIDs() externa...\n      PUSH 60\t\t\tuint256[] memory\n      PUSH [tag] 413\t\t\t_allTokenIDs.values()\n      PUSH 5\t\t\t_allTokenIDs\n      PUSH [tag] 257\t\t\t_allTokenIDs.values\n      JUMP \t\t\t_allTokenIDs.values()\n    tag 413\t\t\t_allTokenIDs.values()\n      JUMPDEST \t\t\t_allTokenIDs.values()\n      SWAP1 \t\t\treturn _allTokenIDs.values()\n      POP \t\t\treturn _allTokenIDs.values()\n      SWAP1 \t\t\tfunction allTokenIDs() externa...\n      JUMP \t\t\tfunction allTokenIDs() externa...\n    tag 116\t\t\ting(uint256 => mapping(uint64 ...\n      JUMPDEST \t\t\ting(uint256 => mapping(uint64 ...\n      PUSH 9\t\t\ting(uint256 => mapping(uint64 ...\n      PUSH 20\t\t\ting(uint256 => mapping(uint64 ...\n      SWAP1 \t\t\ting(uint256 => mapping(uint64 ...\n      DUP2 \t\t\ting(uint256 => mapping(uint64 ...\n      MSTORE \t\t\ting(uint256 => mapping(uint64 ...\n      PUSH 0\t\t\ting(uint256 => mapping(uint64 ...\n      SWAP3 \t\t\ting(uint256 => mapping(uint64 ...\n      DUP4 \t\t\ting(uint256 => mapping(uint64 ...\n      MSTORE \t\t\ting(uint256 => mapping(uint64 ...\n      PUSH 40\t\t\ting(uint256 => mapping(uint64 ...\n      DUP1 \t\t\ting(uint256 => mapping(uint64 ...\n      DUP5 \t\t\ting(uint256 => mapping(uint64 ...\n      KECCAK256 \t\t\ting(uint256 => mapping(uint64 ...\n      SWAP1 \t\t\ting(uint256 => mapping(uint64 ...\n      SWAP2 \t\t\ting(uint256 => mapping(uint64 ...\n      MSTORE \t\t\ting(uint256 => mapping(uint64 ...\n      SWAP1 \t\t\ting(uint256 => mapping(uint64 ...\n      DUP3 \t\t\ting(uint256 => mapping(uint64 ...\n      MSTORE \t\t\ting(uint256 => mapping(uint64 ...\n      SWAP1 \t\t\ting(uint256 => mapping(uint64 ...\n      KECCAK256 \t\t\ting(uint256 => mapping(uint64 ...\n      DUP1 \t\t\ting(uint256 => mapping(uint64 ...\n      SLOAD \t\t\ting(uint256 => mapping(uint64 ...\n      DUP2 \t\t\ting(uint256 => mapping(uint64 ...\n      SWAP1 \t\t\ting(uint256 => mapping(uint64 ...\n      PUSH [tag] 415\t\t\ting(uint256 => mapping(uint64 ...\n      SWAP1 \t\t\ting(uint256 => mapping(uint64 ...\n      PUSH [tag] 166\t\t\ting(uint256 => mapping(uint64 ...\n      JUMP \t\t\ting(uint256 => mapping(uint64 ...\n    tag 415\t\t\ting(uint256 => mapping(uint64 ...\n      JUMPDEST \t\t\ting(uint256 => mapping(uint64 ...\n      DUP1 \t\t\ting(uint256 => mapping(uint64 ...\n      PUSH 1F\t\t\ting(uint256 => mapping(uint64 ...\n      ADD \t\t\ting(uint256 => mapping(uint64 ...\n      PUSH 20\t\t\ting(uint256 => mapping(uint64 ...\n      DUP1 \t\t\ting(uint256 => mapping(uint64 ...\n      SWAP2 \t\t\ting(uint256 => mapping(uint64 ...\n      DIV \t\t\ting(uint256 => mapping(uint64 ...\n      MUL \t\t\ting(uint256 => mapping(uint64 ...\n      PUSH 20\t\t\ting(uint256 => mapping(uint64 ...\n      ADD \t\t\ting(uint256 => mapping(uint64 ...\n      PUSH 40\t\t\ting(uint256 => mapping(uint64 ...\n      MLOAD \t\t\ting(uint256 => mapping(uint64 ...\n      SWAP1 \t\t\ting(uint256 => mapping(uint64 ...\n      DUP2 \t\t\ting(uint256 => mapping(uint64 ...\n      ADD \t\t\ting(uint256 => mapping(uint64 ...\n      PUSH 40\t\t\ting(uint256 => mapping(uint64 ...\n      MSTORE \t\t\ting(uint256 => mapping(uint64 ...\n      DUP1 \t\t\ting(uint256 => mapping(uint64 ...\n      SWAP3 \t\t\ting(uint256 => mapping(uint64 ...\n      SWAP2 \t\t\ting(uint256 => mapping(uint64 ...\n      SWAP1 \t\t\ting(uint256 => mapping(uint64 ...\n      DUP2 \t\t\ting(uint256 => mapping(uint64 ...\n      DUP2 \t\t\ting(uint256 => mapping(uint64 ...\n      MSTORE \t\t\ting(uint256 => mapping(uint64 ...\n      PUSH 20\t\t\ting(uint256 => mapping(uint64 ...\n      ADD \t\t\ting(uint256 => mapping(uint64 ...\n      DUP3 \t\t\ting(uint256 => mapping(uint64 ...\n      DUP1 \t\t\ting(uint256 => mapping(uint64 ...\n      SLOAD \t\t\ting(uint256 => mapping(uint64 ...\n      PUSH [tag] 416\t\t\ting(uint256 => mapping(uint64 ...\n      SWAP1 \t\t\ting(uint256 => mapping(uint64 ...\n      PUSH [tag] 166\t\t\ting(uint256 => mapping(uint64 ...\n      JUMP \t\t\ting(uint256 => mapping(uint64 ...\n    tag 416\t\t\ting(uint256 => mapping(uint64 ...\n      JUMPDEST \t\t\ting(uint256 => mapping(uint64 ...\n      DUP1 \t\t\ting(uint256 => mapping(uint64 ...\n      ISZERO \t\t\ting(uint256 => mapping(uint64 ...\n      PUSH [tag] 417\t\t\ting(uint256 => mapping(uint64 ...\n      JUMPI \t\t\ting(uint256 => mapping(uint64 ...\n      DUP1 \t\t\ting(uint256 => mapping(uint64 ...\n      PUSH 1F\t\t\ting(uint256 => mapping(uint64 ...\n      LT \t\t\ting(uint256 => mapping(uint64 ...\n      PUSH [tag] 418\t\t\ting(uint256 => mapping(uint64 ...\n      JUMPI \t\t\ting(uint256 => mapping(uint64 ...\n      PUSH 100\t\t\ting(uint256 => mapping(uint64 ...\n      DUP1 \t\t\ting(uint256 => mapping(uint64 ...\n      DUP4 \t\t\ting(uint256 => mapping(uint64 ...\n      SLOAD \t\t\ting(uint256 => mapping(uint64 ...\n      DIV \t\t\ting(uint256 => mapping(uint64 ...\n      MUL \t\t\ting(uint256 => mapping(uint64 ...\n      DUP4 \t\t\ting(uint256 => mapping(uint64 ...\n      MSTORE \t\t\ting(uint256 => mapping(uint64 ...\n      SWAP2 \t\t\ting(uint256 => mapping(uint64 ...\n      PUSH 20\t\t\ting(uint256 => mapping(uint64 ...\n      ADD \t\t\ting(uint256 => mapping(uint64 ...\n      SWAP2 \t\t\ting(uint256 => mapping(uint64 ...\n      PUSH [tag] 417\t\t\ting(uint256 => mapping(uint64 ...\n      JUMP \t\t\ting(uint256 => mapping(uint64 ...\n    tag 418\t\t\ting(uint256 => mapping(uint64 ...\n      JUMPDEST \t\t\ting(uint256 => mapping(uint64 ...\n      DUP3 \t\t\ting(uint256 => mapping(uint64 ...\n      ADD \t\t\ting(uint256 => mapping(uint64 ...\n      SWAP2 \t\t\ting(uint256 => mapping(uint64 ...\n      SWAP1 \t\t\ting(uint256 => mapping(uint64 ...\n      PUSH 0\t\t\ting(uint256 => mapping(uint64 ...\n      MSTORE \t\t\ting(uint256 => mapping(uint64 ...\n      PUSH 20\t\t\ting(uint256 => mapping(uint64 ...\n      PUSH 0\t\t\ting(uint256 => mapping(uint64 ...\n      KECCAK256 \t\t\ting(uint256 => mapping(uint64 ...\n      SWAP1 \t\t\ting(uint256 => mapping(uint64 ...\n    tag 419\t\t\ting(uint256 => mapping(uint64 ...\n      JUMPDEST \t\t\ting(uint256 => mapping(uint64 ...\n      DUP2 \t\t\ting(uint256 => mapping(uint64 ...\n      SLOAD \t\t\ting(uint256 => mapping(uint64 ...\n      DUP2 \t\t\ting(uint256 => mapping(uint64 ...\n      MSTORE \t\t\ting(uint256 => mapping(uint64 ...\n      SWAP1 \t\t\ting(uint256 => mapping(uint64 ...\n      PUSH 1\t\t\ting(uint256 => mapping(uint64 ...\n      ADD \t\t\ting(uint256 => mapping(uint64 ...\n      SWAP1 \t\t\ting(uint256 => mapping(uint64 ...\n      PUSH 20\t\t\ting(uint256 => mapping(uint64 ...\n      ADD \t\t\ting(uint256 => mapping(uint64 ...\n      DUP1 \t\t\ting(uint256 => mapping(uint64 ...\n      DUP4 \t\t\ting(uint256 => mapping(uint64 ...\n      GT \t\t\ting(uint256 => mapping(uint64 ...\n      PUSH [tag] 419\t\t\ting(uint256 => mapping(uint64 ...\n      JUMPI \t\t\ting(uint256 => mapping(uint64 ...\n      DUP3 \t\t\ting(uint256 => mapping(uint64 ...\n      SWAP1 \t\t\ting(uint256 => mapping(uint64 ...\n      SUB \t\t\ting(uint256 => mapping(uint64 ...\n      PUSH 1F\t\t\ting(uint256 => mapping(uint64 ...\n      AND \t\t\ting(uint256 => mapping(uint64 ...\n      DUP3 \t\t\ting(uint256 => mapping(uint64 ...\n      ADD \t\t\ting(uint256 => mapping(uint64 ...\n      SWAP2 \t\t\ting(uint256 => mapping(uint64 ...\n    tag 417\t\t\ting(uint256 => mapping(uint64 ...\n      JUMPDEST \t\t\ting(uint256 => mapping(uint64 ...\n      POP \t\t\ting(uint256 => mapping(uint64 ...\n      POP \t\t\ting(uint256 => mapping(uint64 ...\n      POP \t\t\ting(uint256 => mapping(uint64 ...\n      POP \t\t\ting(uint256 => mapping(uint64 ...\n      POP \t\t\ting(uint256 => mapping(uint64 ...\n      SWAP1 \t\t\ting(uint256 => mapping(uint64 ...\n      DUP1 \t\t\ting(uint256 => mapping(uint64 ...\n      PUSH 1\t\t\ting(uint256 => mapping(uint64 ...\n      ADD \t\t\ting(uint256 => mapping(uint64 ...\n      DUP1 \t\t\ting(uint256 => mapping(uint64 ...\n      SLOAD \t\t\ting(uint256 => mapping(uint64 ...\n      PUSH [tag] 420\t\t\ting(uint256 => mapping(uint64 ...\n      SWAP1 \t\t\ting(uint256 => mapping(uint64 ...\n      PUSH [tag] 166\t\t\ting(uint256 => mapping(uint64 ...\n      JUMP \t\t\ting(uint256 => mapping(uint64 ...\n    tag 420\t\t\ting(uint256 => mapping(uint64 ...\n      JUMPDEST \t\t\ting(uint256 => mapping(uint64 ...\n      DUP1 \t\t\ting(uint256 => mapping(uint64 ...\n      PUSH 1F\t\t\ting(uint256 => mapping(uint64 ...\n      ADD \t\t\ting(uint256 => mapping(uint64 ...\n      PUSH 20\t\t\ting(uint256 => mapping(uint64 ...\n      DUP1 \t\t\ting(uint256 => mapping(uint64 ...\n      SWAP2 \t\t\ting(uint256 => mapping(uint64 ...\n      DIV \t\t\ting(uint256 => mapping(uint64 ...\n      MUL \t\t\ting(uint256 => mapping(uint64 ...\n      PUSH 20\t\t\ting(uint256 => mapping(uint64 ...\n      ADD \t\t\ting(uint256 => mapping(uint64 ...\n      PUSH 40\t\t\ting(uint256 => mapping(uint64 ...\n      MLOAD \t\t\ting(uint256 => mapping(uint64 ...\n      SWAP1 \t\t\ting(uint256 => mapping(uint64 ...\n      DUP2 \t\t\ting(uint256 => mapping(uint64 ...\n      ADD \t\t\ting(uint256 => mapping(uint64 ...\n      PUSH 40\t\t\ting(uint256 => mapping(uint64 ...\n      MSTORE \t\t\ting(uint256 => mapping(uint64 ...\n      DUP1 \t\t\ting(uint256 => mapping(uint64 ...\n      SWAP3 \t\t\ting(uint256 => mapping(uint64 ...\n      SWAP2 \t\t\ting(uint256 => mapping(uint64 ...\n      SWAP1 \t\t\ting(uint256 => mapping(uint64 ...\n      DUP2 \t\t\ting(uint256 => mapping(uint64 ...\n      DUP2 \t\t\ting(uint256 => mapping(uint64 ...\n      MSTORE \t\t\ting(uint256 => mapping(uint64 ...\n      PUSH 20\t\t\ting(uint256 => mapping(uint64 ...\n      ADD \t\t\ting(uint256 => mapping(uint64 ...\n      DUP3 \t\t\ting(uint256 => mapping(uint64 ...\n      DUP1 \t\t\ting(uint256 => mapping(uint64 ...\n      SLOAD \t\t\ting(uint256 => mapping(uint64 ...\n      PUSH [tag] 421\t\t\ting(uint256 => mapping(uint64 ...\n      SWAP1 \t\t\ting(uint256 => mapping(uint64 ...\n      PUSH [tag] 166\t\t\ting(uint256 => mapping(uint64 ...\n      JUMP \t\t\ting(uint256 => mapping(uint64 ...\n    tag 421\t\t\ting(uint256 => mapping(uint64 ...\n      JUMPDEST \t\t\ting(uint256 => mapping(uint64 ...\n      DUP1 \t\t\ting(uint256 => mapping(uint64 ...\n      ISZERO \t\t\ting(uint256 => mapping(uint64 ...\n      PUSH [tag] 422\t\t\ting(uint256 => mapping(uint64 ...\n      JUMPI \t\t\ting(uint256 => mapping(uint64 ...\n      DUP1 \t\t\ting(uint256 => mapping(uint64 ...\n      PUSH 1F\t\t\ting(uint256 => mapping(uint64 ...\n      LT \t\t\ting(uint256 => mapping(uint64 ...\n      PUSH [tag] 423\t\t\ting(uint256 => mapping(uint64 ...\n      JUMPI \t\t\ting(uint256 => mapping(uint64 ...\n      PUSH 100\t\t\ting(uint256 => mapping(uint64 ...\n      DUP1 \t\t\ting(uint256 => mapping(uint64 ...\n      DUP4 \t\t\ting(uint256 => mapping(uint64 ...\n      SLOAD \t\t\ting(uint256 => mapping(uint64 ...\n      DIV \t\t\ting(uint256 => mapping(uint64 ...\n      MUL \t\t\ting(uint256 => mapping(uint64 ...\n      DUP4 \t\t\ting(uint256 => mapping(uint64 ...\n      MSTORE \t\t\ting(uint256 => mapping(uint64 ...\n      SWAP2 \t\t\ting(uint256 => mapping(uint64 ...\n      PUSH 20\t\t\ting(uint256 => mapping(uint64 ...\n      ADD \t\t\ting(uint256 => mapping(uint64 ...\n      SWAP2 \t\t\ting(uint256 => mapping(uint64 ...\n      PUSH [tag] 422\t\t\ting(uint256 => mapping(uint64 ...\n      JUMP \t\t\ting(uint256 => mapping(uint64 ...\n    tag 423\t\t\ting(uint256 => mapping(uint64 ...\n      JUMPDEST \t\t\ting(uint256 => mapping(uint64 ...\n      DUP3 \t\t\ting(uint256 => mapping(uint64 ...\n      ADD \t\t\ting(uint256 => mapping(uint64 ...\n      SWAP2 \t\t\ting(uint256 => mapping(uint64 ...\n      SWAP1 \t\t\ting(uint256 => mapping(uint64 ...\n      PUSH 0\t\t\ting(uint256 => mapping(uint64 ...\n      MSTORE \t\t\ting(uint256 => mapping(uint64 ...\n      PUSH 20\t\t\ting(uint256 => mapping(uint64 ...\n      PUSH 0\t\t\ting(uint256 => mapping(uint64 ...\n      KECCAK256 \t\t\ting(uint256 => mapping(uint64 ...\n      SWAP1 \t\t\ting(uint256 => mapping(uint64 ...\n    tag 424\t\t\ting(uint256 => mapping(uint64 ...\n      JUMPDEST \t\t\ting(uint256 => mapping(uint64 ...\n      DUP2 \t\t\ting(uint256 => mapping(uint64 ...\n      SLOAD \t\t\ting(uint256 => mapping(uint64 ...\n      DUP2 \t\t\ting(uint256 => mapping(uint64 ...\n      MSTORE \t\t\ting(uint256 => mapping(uint64 ...\n      SWAP1 \t\t\ting(uint256 => mapping(uint64 ...\n      PUSH 1\t\t\ting(uint256 => mapping(uint64 ...\n      ADD \t\t\ting(uint256 => mapping(uint64 ...\n      SWAP1 \t\t\ting(uint256 => mapping(uint64 ...\n      PUSH 20\t\t\ting(uint256 => mapping(uint64 ...\n      ADD \t\t\ting(uint256 => mapping(uint64 ...\n      DUP1 \t\t\ting(uint256 => mapping(uint64 ...\n      DUP4 \t\t\ting(uint256 => mapping(uint64 ...\n      GT \t\t\ting(uint256 => mapping(uint64 ...\n      PUSH [tag] 424\t\t\ting(uint256 => mapping(uint64 ...\n      JUMPI \t\t\ting(uint256 => mapping(uint64 ...\n      DUP3 \t\t\ting(uint256 => mapping(uint64 ...\n      SWAP1 \t\t\ting(uint256 => mapping(uint64 ...\n      SUB \t\t\ting(uint256 => mapping(uint64 ...\n      PUSH 1F\t\t\ting(uint256 => mapping(uint64 ...\n      AND \t\t\ting(uint256 => mapping(uint64 ...\n      DUP3 \t\t\ting(uint256 => mapping(uint64 ...\n      ADD \t\t\ting(uint256 => mapping(uint64 ...\n      SWAP2 \t\t\ting(uint256 => mapping(uint64 ...\n    tag 422\t\t\ting(uint256 => mapping(uint64 ...\n      JUMPDEST \t\t\ting(uint256 => mapping(uint64 ...\n      POP \t\t\ting(uint256 => mapping(uint64 ...\n      POP \t\t\ting(uint256 => mapping(uint64 ...\n      POP \t\t\ting(uint256 => mapping(uint64 ...\n      POP \t\t\ting(uint256 => mapping(uint64 ...\n      POP \t\t\ting(uint256 => mapping(uint64 ...\n      SWAP1 \t\t\ting(uint256 => mapping(uint64 ...\n      DUP1 \t\t\ting(uint256 => mapping(uint64 ...\n      PUSH 2\t\t\ting(uint256 => mapping(uint64 ...\n      ADD \t\t\ting(uint256 => mapping(uint64 ...\n      DUP1 \t\t\ting(uint256 => mapping(uint64 ...\n      SLOAD \t\t\ting(uint256 => mapping(uint64 ...\n      PUSH [tag] 425\t\t\ting(uint256 => mapping(uint64 ...\n      SWAP1 \t\t\ting(uint256 => mapping(uint64 ...\n      PUSH [tag] 166\t\t\ting(uint256 => mapping(uint64 ...\n      JUMP \t\t\ting(uint256 => mapping(uint64 ...\n    tag 425\t\t\ting(uint256 => mapping(uint64 ...\n      JUMPDEST \t\t\ting(uint256 => mapping(uint64 ...\n      DUP1 \t\t\ting(uint256 => mapping(uint64 ...\n      PUSH 1F\t\t\ting(uint256 => mapping(uint64 ...\n      ADD \t\t\ting(uint256 => mapping(uint64 ...\n      PUSH 20\t\t\ting(uint256 => mapping(uint64 ...\n      DUP1 \t\t\ting(uint256 => mapping(uint64 ...\n      SWAP2 \t\t\ting(uint256 => mapping(uint64 ...\n      DIV \t\t\ting(uint256 => mapping(uint64 ...\n      MUL \t\t\ting(uint256 => mapping(uint64 ...\n      PUSH 20\t\t\ting(uint256 => mapping(uint64 ...\n      ADD \t\t\ting(uint256 => mapping(uint64 ...\n      PUSH 40\t\t\ting(uint256 => mapping(uint64 ...\n      MLOAD \t\t\ting(uint256 => mapping(uint64 ...\n      SWAP1 \t\t\ting(uint256 => mapping(uint64 ...\n      DUP2 \t\t\ting(uint256 => mapping(uint64 ...\n      ADD \t\t\ting(uint256 => mapping(uint64 ...\n      PUSH 40\t\t\ting(uint256 => mapping(uint64 ...\n      MSTORE \t\t\ting(uint256 => mapping(uint64 ...\n      DUP1 \t\t\ting(uint256 => mapping(uint64 ...\n      SWAP3 \t\t\ting(uint256 => mapping(uint64 ...\n      SWAP2 \t\t\ting(uint256 => mapping(uint64 ...\n      SWAP1 \t\t\ting(uint256 => mapping(uint64 ...\n      DUP2 \t\t\ting(uint256 => mapping(uint64 ...\n      DUP2 \t\t\ting(uint256 => mapping(uint64 ...\n      MSTORE \t\t\ting(uint256 => mapping(uint64 ...\n      PUSH 20\t\t\ting(uint256 => mapping(uint64 ...\n      ADD \t\t\ting(uint256 => mapping(uint64 ...\n      DUP3 \t\t\ting(uint256 => mapping(uint64 ...\n      DUP1 \t\t\ting(uint256 => mapping(uint64 ...\n      SLOAD \t\t\ting(uint256 => mapping(uint64 ...\n      PUSH [tag] 426\t\t\ting(uint256 => mapping(uint64 ...\n      SWAP1 \t\t\ting(uint256 => mapping(uint64 ...\n      PUSH [tag] 166\t\t\ting(uint256 => mapping(uint64 ...\n      JUMP \t\t\ting(uint256 => mapping(uint64 ...\n    tag 426\t\t\ting(uint256 => mapping(uint64 ...\n      JUMPDEST \t\t\ting(uint256 => mapping(uint64 ...\n      DUP1 \t\t\ting(uint256 => mapping(uint64 ...\n      ISZERO \t\t\ting(uint256 => mapping(uint64 ...\n      PUSH [tag] 427\t\t\ting(uint256 => mapping(uint64 ...\n      JUMPI \t\t\ting(uint256 => mapping(uint64 ...\n      DUP1 \t\t\ting(uint256 => mapping(uint64 ...\n      PUSH 1F\t\t\ting(uint256 => mapping(uint64 ...\n      LT \t\t\ting(uint256 => mapping(uint64 ...\n      PUSH [tag] 428\t\t\ting(uint256 => mapping(uint64 ...\n      JUMPI \t\t\ting(uint256 => mapping(uint64 ...\n      PUSH 100\t\t\ting(uint256 => mapping(uint64 ...\n      DUP1 \t\t\ting(uint256 => mapping(uint64 ...\n      DUP4 \t\t\ting(uint256 => mapping(uint64 ...\n      SLOAD \t\t\ting(uint256 => mapping(uint64 ...\n      DIV \t\t\ting(uint256 => mapping(uint64 ...\n      MUL \t\t\ting(uint256 => mapping(uint64 ...\n      DUP4 \t\t\ting(uint256 => mapping(uint64 ...\n      MSTORE \t\t\ting(uint256 => mapping(uint64 ...\n      SWAP2 \t\t\ting(uint256 => mapping(uint64 ...\n      PUSH 20\t\t\ting(uint256 => mapping(uint64 ...\n      ADD \t\t\ting(uint256 => mapping(uint64 ...\n      SWAP2 \t\t\ting(uint256 => mapping(uint64 ...\n      PUSH [tag] 427\t\t\ting(uint256 => mapping(uint64 ...\n      JUMP \t\t\ting(uint256 => mapping(uint64 ...\n    tag 428\t\t\ting(uint256 => mapping(uint64 ...\n      JUMPDEST \t\t\ting(uint256 => mapping(uint64 ...\n      DUP3 \t\t\ting(uint256 => mapping(uint64 ...\n      ADD \t\t\ting(uint256 => mapping(uint64 ...\n      SWAP2 \t\t\ting(uint256 => mapping(uint64 ...\n      SWAP1 \t\t\ting(uint256 => mapping(uint64 ...\n      PUSH 0\t\t\ting(uint256 => mapping(uint64 ...\n      MSTORE \t\t\ting(uint256 => mapping(uint64 ...\n      PUSH 20\t\t\ting(uint256 => mapping(uint64 ...\n      PUSH 0\t\t\ting(uint256 => mapping(uint64 ...\n      KECCAK256 \t\t\ting(uint256 => mapping(uint64 ...\n      SWAP1 \t\t\ting(uint256 => mapping(uint64 ...\n    tag 429\t\t\ting(uint256 => mapping(uint64 ...\n      JUMPDEST \t\t\ting(uint256 => mapping(uint64 ...\n      DUP2 \t\t\ting(uint256 => mapping(uint64 ...\n      SLOAD \t\t\ting(uint256 => mapping(uint64 ...\n      DUP2 \t\t\ting(uint256 => mapping(uint64 ...\n      MSTORE \t\t\ting(uint256 => mapping(uint64 ...\n      SWAP1 \t\t\ting(uint256 => mapping(uint64 ...\n      PUSH 1\t\t\ting(uint256 => mapping(uint64 ...\n      ADD \t\t\ting(uint256 => mapping(uint64 ...\n      SWAP1 \t\t\ting(uint256 => mapping(uint64 ...\n      PUSH 20\t\t\ting(uint256 => mapping(uint64 ...\n      ADD \t\t\ting(uint256 => mapping(uint64 ...\n      DUP1 \t\t\ting(uint256 => mapping(uint64 ...\n      DUP4 \t\t\ting(uint256 => mapping(uint64 ...\n      GT \t\t\ting(uint256 => mapping(uint64 ...\n      PUSH [tag] 429\t\t\ting(uint256 => mapping(uint64 ...\n      JUMPI \t\t\ting(uint256 => mapping(uint64 ...\n      DUP3 \t\t\ting(uint256 => mapping(uint64 ...\n      SWAP1 \t\t\ting(uint256 => mapping(uint64 ...\n      SUB \t\t\ting(uint256 => mapping(uint64 ...\n      PUSH 1F\t\t\ting(uint256 => mapping(uint64 ...\n      AND \t\t\ting(uint256 => mapping(uint64 ...\n      DUP3 \t\t\ting(uint256 => mapping(uint64 ...\n      ADD \t\t\ting(uint256 => mapping(uint64 ...\n      SWAP2 \t\t\ting(uint256 => mapping(uint64 ...\n    tag 427\t\t\ting(uint256 => mapping(uint64 ...\n      JUMPDEST \t\t\ting(uint256 => mapping(uint64 ...\n      POP \t\t\ting(uint256 => mapping(uint64 ...\n      POP \t\t\ting(uint256 => mapping(uint64 ...\n      POP \t\t\ting(uint256 => mapping(uint64 ...\n      POP \t\t\ting(uint256 => mapping(uint64 ...\n      POP \t\t\ting(uint256 => mapping(uint64 ...\n      SWAP1 \t\t\ting(uint256 => mapping(uint64 ...\n      POP \t\t\ting(uint256 => mapping(uint64 ...\n      DUP4 \t\t\ting(uint256 => mapping(uint64 ...\n      JUMP \t\t\ting(uint256 => mapping(uint64 ...\n    tag 122\t\t\ting condition\\r\\n    // tokenI...\n      JUMPDEST \t\t\ting condition\\r\\n    // tokenI...\n      PUSH [tag] 431\t\t\tint256 => mapping(uint64 => Sp...\n      CALLER \t\t\t{\\r\\n    add\n      DUP4 \t\t\tingCondi\n      DUP4 \t\t\ton)) pub\n      PUSH [tag] 434\t\t\tint256 => mapping(\n      JUMP \t\t\tint256 => mapping(uint64 => Sp...\n    tag 431\t\t\tint256 => mapping(uint64 => Sp...\n      JUMPDEST \t\t\tint256 => mapping(uint64 => Sp...\n      POP \t\t\ting condition\\r\\n    // tokenI...\n      POP \t\t\ting condition\\r\\n    // tokenI...\n      JUMP \t\t\ting condition\\r\\n    // tokenI...\n    tag 126\t\t\ttion addProofRequestAndRole(ui...\n      JUMPDEST \t\t\ttion addProofRequestAndRole(ui...\n      PUSH [tag] 436\t\t\t_isAdmin(msg.sender)\n      CALLER \t\t\tmsg.sender\n      PUSH [tag] 348\t\t\t_isAdmin\n      JUMP \t\t\t_isAdmin(msg.sender)\n    tag 436\t\t\t_isAdmin(msg.sender)\n      JUMPDEST \t\t\t_isAdmin(msg.sender)\n      PUSH [tag] 437\t\t\trequire(_isAdmin(msg.sender), ...\n      JUMPI \t\t\trequire(_isAdmin(msg.sender), ...\n      PUSH 40\t\t\trequire(_isAdmin(msg.sender), ...\n      MLOAD \t\t\trequire(_isAdmin(msg.sender), ...\n      PUSH 461BCD\t\t\t\n      PUSH E5\t\t\t\n      SHL \t\t\t\n      DUP2 \t\t\trequire(_isAdmin(msg.sender), ...\n      MSTORE \t\t\trequire(_isAdmin(msg.sender), ...\n      PUSH 20\t\t\t\n      PUSH 4\t\t\trequire(_isAdmin(msg.sender), ...\n      DUP3 \t\t\trequire(_isAdmin(msg.sender), ...\n      ADD \t\t\trequire(_isAdmin(msg.sender), ...\n      MSTORE \t\t\t\n      PUSH 16\t\t\t\n      PUSH 24\t\t\t\n      DUP3 \t\t\t\n      ADD \t\t\t\n      MSTORE \t\t\t\n      PUSH 21B0B63632B91034B9903737BA1030B71030B236B4B7\t\t\t\n      PUSH 51\t\t\t\n      SHL \t\t\t\n      PUSH 44\t\t\t\n      DUP3 \t\t\t\n      ADD \t\t\t\n      MSTORE \t\t\t\n      PUSH 64\t\t\t\n      ADD \t\t\t\n      PUSH [tag] 248\t\t\trequire(_isAdmin(msg.sender), ...\n      JUMP \t\t\t\n    tag 437\t\t\trequire(_isAdmin(msg.sender), ...\n      JUMPDEST \t\t\trequire(_isAdmin(msg.sender), ...\n      PUSH [tag] 440\t\t\tTokenIDs.contains(tokenID), \"t\n      PUSH 5\t\t\tTokenIDs.con\n      DUP6 \t\t\tnID), \"\n      PUSH [tag] 289\t\t\tTokenIDs.contains(tok\n      JUMP \t\t\tTokenIDs.contains(tokenID), \"t\n    tag 440\t\t\tTokenIDs.contains(tokenID), \"t\n      JUMPDEST \t\t\tTokenIDs.contains(tokenID), \"t\n      PUSH [tag] 441\t\t\tire(_allTokenIDs.contains(toke...\n      JUMPI \t\t\tire(_allTokenIDs.contains(toke...\n      PUSH 40\t\t\tire(_allTokenIDs.contains(toke...\n      MLOAD \t\t\tire(_allTokenIDs.contains(toke...\n      PUSH 461BCD\t\t\t\n      PUSH E5\t\t\t\n      SHL \t\t\t\n      DUP2 \t\t\tire(_allTokenIDs.contains(toke...\n      MSTORE \t\t\tire(_allTokenIDs.contains(toke...\n      PUSH 20\t\t\t\n      PUSH 4\t\t\tire(_allTokenIDs.contains(toke...\n      DUP3 \t\t\tire(_allTokenIDs.contains(toke...\n      ADD \t\t\tire(_allTokenIDs.contains(toke...\n      MSTORE \t\t\t\n      PUSH 17\t\t\t\n      PUSH 24\t\t\t\n      DUP3 \t\t\t\n      ADD \t\t\t\n      MSTORE \t\t\t\n      PUSH 1D1BDAD95B881A5908191BD95CC81B9BDD08195E1A5CDD\t\t\t\n      PUSH 4A\t\t\t\n      SHL \t\t\t\n      PUSH 44\t\t\t\n      DUP3 \t\t\t\n      ADD \t\t\t\n      MSTORE \t\t\t\n      PUSH 64\t\t\t\n      ADD \t\t\t\n      PUSH [tag] 248\t\t\tire(_allTokenIDs.contains(toke...\n      JUMP \t\t\t\n    tag 441\t\t\tire(_allTokenIDs.contains(toke...\n      JUMPDEST \t\t\tire(_allTokenIDs.contains(toke...\n      PUSH 0\t\t\tnID_proofRequest_role[tokenID]...\n      DUP5 \t\t\tnID_proofRequest_role[tokenID]...\n      DUP2 \t\t\tnID_proofRequest_role[tokenID]...\n      MSTORE \t\t\tnID_proofRequest_role[tokenID]...\n      PUSH 8\t\t\tnID_proofRequest_role[tok\n      PUSH 20\t\t\tnID_proofRequest_role[tokenID]...\n      SWAP1 \t\t\tnID_proofRequest_role[tokenID]...\n      DUP2 \t\t\tnID_proofRequest_role[tokenID]...\n      MSTORE \t\t\tnID_proofRequest_role[tokenID]...\n      PUSH 40\t\t\tnID_proofRequest_role[tokenID]...\n      DUP1 \t\t\tnID_proofRequest_role[tokenID]...\n      DUP4 \t\t\tnID_proofRequest_role[tokenID]...\n      KECCAK256 \t\t\tnID_proofRequest_role[tokenID]...\n      PUSH 1\t\t\t\n      PUSH 1\t\t\t\n      PUSH 40\t\t\t\n      SHL \t\t\t\n      SUB \t\t\t\n      DUP8 \t\t\tnID_proofRequest_role[tokenID]...\n      AND \t\t\tnID_proofRequest_role[tokenID]...\n      DUP5 \t\t\tnID_proofRequest_role[tokenID]...\n      MSTORE \t\t\tnID_proofRequest_role[tokenID]...\n      SWAP1 \t\t\tnID_proofRequest_role[tokenID]...\n      SWAP2 \t\t\tnID_proofRequest_role[tokenID]...\n      MSTORE \t\t\tnID_proofRequest_role[tokenID]...\n      SWAP1 \t\t\tnID_proofRequest_role[tokenID]...\n      KECCAK256 \t\t\tnID_proofRequest_role[tokenID]...\n      DUP1 \t\t\ts(tokenID_proofRequest_role[to...\n      SLOAD \t\t\ts(tokenID_proofRequest_role[to...\n      PUSH [tag] 443\t\t\ts(tokenID_proofRequest_role[to...\n      SWAP1 \t\t\ts(tokenID_proofRequest_role[to...\n      PUSH [tag] 166\t\t\ts(tokenID_proofRequest_role[to...\n      JUMP \t\t\ts(tokenID_proofRequest_role[to...\n    tag 443\t\t\ts(tokenID_proofRequest_role[to...\n      JUMPDEST \t\t\ts(tokenID_proofRequest_role[to...\n      ISZERO \t\t\ts(tokenID_proofRequest_role[to...\n      SWAP1 \t\t\ts(tokenID_proofRequest_role[to...\n      POP \t\t\t\n      PUSH [tag] 444\t\t\tire(bytes(tokenID_proofRequest...\n      JUMPI \t\t\tire(bytes(tokenID_proofRequest...\n      PUSH 40\t\t\tire(bytes(tokenID_proofRequest...\n      MLOAD \t\t\tire(bytes(tokenID_proofRequest...\n      PUSH 461BCD\t\t\t\n      PUSH E5\t\t\t\n      SHL \t\t\t\n      DUP2 \t\t\tire(bytes(tokenID_proofRequest...\n      MSTORE \t\t\tire(bytes(tokenID_proofRequest...\n      PUSH 20\t\t\t\n      PUSH 4\t\t\tire(bytes(tokenID_proofRequest...\n      DUP3 \t\t\tire(bytes(tokenID_proofRequest...\n      ADD \t\t\tire(bytes(tokenID_proofRequest...\n      MSTORE \t\t\t\n      PUSH 1C\t\t\t\n      PUSH 24\t\t\t\n      DUP3 \t\t\t\n      ADD \t\t\t\n      MSTORE \t\t\t\n      PUSH 50726F6F66207265717565737420616C72656164792065786973747300000000\t\t\t\n      PUSH 44\t\t\t\n      DUP3 \t\t\t\n      ADD \t\t\t\n      MSTORE \t\t\t\n      PUSH 64\t\t\t\n      ADD \t\t\t\n      PUSH [tag] 248\t\t\tire(bytes(tokenID_proofRequest...\n      JUMP \t\t\t\n    tag 444\t\t\tire(bytes(tokenID_proofRequest...\n      JUMPDEST \t\t\tire(bytes(tokenID_proofRequest...\n      PUSH 40\t\t\ts(\"sender\")) ||\n      DUP1 \t\t\ts(\"sender\")) ||\n      MLOAD \t\t\ts(\"sender\")) ||\n      DUP1 \t\t\ts(\"sender\")) ||\n      DUP3 \t\t\ts(\"sender\")) ||\n      ADD \t\t\ts(\"sender\")) ||\n      DUP3 \t\t\ts(\"sender\")) ||\n      MSTORE \t\t\ts(\"sender\")) ||\n      PUSH 6\t\t\ts(\"sender\")) ||\n      DUP2 \t\t\ts(\"sender\")) ||\n      MSTORE \t\t\ts(\"sender\")) ||\n      PUSH 39B2B73232B9\t\t\t\n      PUSH D1\t\t\t\n      SHL \t\t\t\n      PUSH 20\t\t\ts(\"sender\")) ||\n      SWAP1 \t\t\ts(\"sender\")) ||\n      SWAP2 \t\t\ts(\"sender\")) ||\n      ADD \t\t\ts(\"sender\")) ||\n      MSTORE \t\t\ts(\"sender\")) ||\n      MLOAD \t\t\tak256(bytes(role)) == \n      PUSH 168E92CE035BA45E59A0314B0ED9A9E619B284AED8F6E5AB0A596EFD5C9F5CF9\t\t\tak256(bytes(\"sender\")) ||\\r\n      SWAP1 \t\t\tak256(bytes(\"sender\")) ||\\r\n      PUSH [tag] 447\t\t\tak256(bytes(role)) == \n      SWAP1 \t\t\tak256(bytes(role)) == \n      DUP5 \t\t\t)) =\n      SWAP1 \t\t\t)) =\n      DUP5 \t\t\t)) =\n      SWAP1 \t\t\t)) =\n      PUSH [tag] 262\t\t\tak256(bytes(role)) == \n      JUMP \t\t\tak256(bytes(role)) == \n    tag 447\t\t\tak256(bytes(role)) == \n      JUMPDEST \t\t\tak256(bytes(role)) == \n      PUSH 40\t\t\tak256(bytes(role)) == \n      MLOAD \t\t\tak256(bytes(role)) == \n      DUP1 \t\t\tak256(bytes(role)) == \n      SWAP2 \t\t\tak256(bytes(role)) == \n      SUB \t\t\tak256(bytes(role)) == \n      SWAP1 \t\t\tak256(bytes(role)) == \n      KECCAK256 \t\t\tak256(bytes(role)) == \n      EQ \t\t\tak256(bytes(role)) == keccak25...\n      DUP1 \t\t\tak256(bytes(role)) == keccak25...\n      PUSH [tag] 448\t\t\tak256(bytes(role)) == keccak25...\n      JUMPI \t\t\tak256(bytes(role)) == keccak25...\n      POP \t\t\t\n      PUSH 40\t\t\ts(\"receiver\")),\\r\\n\n      DUP1 \t\t\ts(\"receiver\")),\\r\\n\n      MLOAD \t\t\ts(\"receiver\")),\\r\\n\n      DUP1 \t\t\ts(\"receiver\")),\\r\\n\n      DUP3 \t\t\ts(\"receiver\")),\\r\\n\n      ADD \t\t\ts(\"receiver\")),\\r\\n\n      DUP3 \t\t\ts(\"receiver\")),\\r\\n\n      MSTORE \t\t\ts(\"receiver\")),\\r\\n\n      PUSH 8\t\t\ts(\"receiver\")),\\r\\n\n      DUP2 \t\t\ts(\"receiver\")),\\r\\n\n      MSTORE \t\t\ts(\"receiver\")),\\r\\n\n      PUSH 3932B1B2B4BB32B9\t\t\t\n      PUSH C1\t\t\t\n      SHL \t\t\t\n      PUSH 20\t\t\ts(\"receiver\")),\\r\\n\n      SWAP1 \t\t\ts(\"receiver\")),\\r\\n\n      SWAP2 \t\t\ts(\"receiver\")),\\r\\n\n      ADD \t\t\ts(\"receiver\")),\\r\\n\n      MSTORE \t\t\ts(\"receiver\")),\\r\\n\n      MLOAD \t\t\tak256(bytes(role)) == \n      PUSH 5E784E45FEB63C375016D4CE5C52A57B0A48B8A170BC2E31463BE0D03D1C4DB6\t\t\tak256(bytes(\"receiver\")),\\r\\n \n      SWAP1 \t\t\tak256(bytes(\"receiver\")),\\r\\n \n      PUSH [tag] 449\t\t\tak256(bytes(role)) == \n      SWAP1 \t\t\tak256(bytes(role)) == \n      DUP5 \t\t\t)) =\n      SWAP1 \t\t\t)) =\n      DUP5 \t\t\t)) =\n      SWAP1 \t\t\t)) =\n      PUSH [tag] 262\t\t\tak256(bytes(role)) == \n      JUMP \t\t\tak256(bytes(role)) == \n    tag 449\t\t\tak256(bytes(role)) == \n      JUMPDEST \t\t\tak256(bytes(role)) == \n      PUSH 40\t\t\tak256(bytes(role)) == \n      MLOAD \t\t\tak256(bytes(role)) == \n      DUP1 \t\t\tak256(bytes(role)) == \n      SWAP2 \t\t\tak256(bytes(role)) == \n      SUB \t\t\tak256(bytes(role)) == \n      SWAP1 \t\t\tak256(bytes(role)) == \n      KECCAK256 \t\t\tak256(bytes(role)) == \n      EQ \t\t\tak256(bytes(role)) == keccak25...\n    tag 448\t\t\tak256(bytes(role)) == keccak25...\n      JUMPDEST \t\t\tak256(bytes(role)) == keccak25...\n      PUSH [tag] 450\t\t\tire(\\r\\n            keccak256(...\n      JUMPI \t\t\tire(\\r\\n            keccak256(...\n      PUSH 40\t\t\tire(\\r\\n            keccak256(...\n      MLOAD \t\t\tire(\\r\\n            keccak256(...\n      PUSH 461BCD\t\t\t\n      PUSH E5\t\t\t\n      SHL \t\t\t\n      DUP2 \t\t\tire(\\r\\n            keccak256(...\n      MSTORE \t\t\tire(\\r\\n            keccak256(...\n      PUSH 20\t\t\t\n      PUSH 4\t\t\tire(\\r\\n            keccak256(...\n      DUP3 \t\t\tire(\\r\\n            keccak256(...\n      ADD \t\t\tire(\\r\\n            keccak256(...\n      MSTORE \t\t\t\n      PUSH 23\t\t\t\n      PUSH 24\t\t\t\n      DUP3 \t\t\t\n      ADD \t\t\t\n      MSTORE \t\t\t\n      PUSH 526F6C65206D757374206265202773656E64657227206F722027726563656976\t\t\t\n      PUSH 44\t\t\t\n      DUP3 \t\t\t\n      ADD \t\t\t\n      MSTORE \t\t\t\n      PUSH 657227\t\t\t\n      PUSH E8\t\t\t\n      SHL \t\t\t\n      PUSH 64\t\t\t\n      DUP3 \t\t\t\n      ADD \t\t\t\n      MSTORE \t\t\t\n      PUSH 84\t\t\t\n      ADD \t\t\t\n      PUSH [tag] 248\t\t\tire(\\r\\n            keccak256(...\n      JUMP \t\t\t\n    tag 450\t\t\tire(\\r\\n            keccak256(...\n      JUMPDEST \t\t\tire(\\r\\n            keccak256(...\n      PUSH 0\t\t\tnID_proofRequest_role[tokenID]...\n      DUP5 \t\t\tnID_proofRequest_role[tokenID]...\n      DUP2 \t\t\tnID_proofRequest_role[tokenID]...\n      MSTORE \t\t\tnID_proofRequest_role[tokenID]...\n      PUSH 8\t\t\tnID_proofRequest_role[tok\n      PUSH 20\t\t\tnID_proofRequest_role[tokenID]...\n      SWAP1 \t\t\tnID_proofRequest_role[tokenID]...\n      DUP2 \t\t\tnID_proofRequest_role[tokenID]...\n      MSTORE \t\t\tnID_proofRequest_role[tokenID]...\n      PUSH 40\t\t\tnID_proofRequest_role[tokenID]...\n      DUP1 \t\t\tnID_proofRequest_role[tokenID]...\n      DUP4 \t\t\tnID_proofRequest_role[tokenID]...\n      KECCAK256 \t\t\tnID_proofRequest_role[tokenID]...\n      PUSH 1\t\t\t\n      PUSH 1\t\t\t\n      PUSH 40\t\t\t\n      SHL \t\t\t\n      SUB \t\t\t\n      DUP8 \t\t\tnID_proofRequest_role[tokenID]...\n      AND \t\t\tnID_proofRequest_role[tokenID]...\n      DUP5 \t\t\tnID_proofRequest_role[tokenID]...\n      MSTORE \t\t\tnID_proofRequest_role[tokenID]...\n      SWAP1 \t\t\tnID_proofRequest_role[tokenID]...\n      SWAP2 \t\t\tnID_proofRequest_role[tokenID]...\n      MSTORE \t\t\tnID_proofRequest_role[tokenID]...\n      SWAP1 \t\t\tnID_proofRequest_role[tokenID]...\n      KECCAK256 \t\t\tnID_proofRequest_role[tokenID]...\n      PUSH [tag] 453\t\t\tnID_proofRequest_role[tokenID]...\n      DUP3 \t\t\t;\\r\\n \n      DUP5 \t\t\t;\\r\\n \n      DUP4 \t\t\tnID_proofRequest_role[tokenID]...\n      PUSH [tag] 297\t\t\tnID_proofRequest_role[tokenID]...\n      JUMP \t\t\tnID_proofRequest_role[tokenID]...\n    tag 453\t\t\tnID_proofRequest_role[tokenID]...\n      JUMPDEST \t\t\tnID_proofRequest_role[tokenID]...\n      POP \t\t\t\n      POP \t\t\t\n      PUSH A\t\t\tfRequestIDs.pus\n      DUP1 \t\t\tfRequestIDs.push(requestID);\\r...\n      SLOAD \t\t\tfRequestIDs.push(requestID);\\r...\n      PUSH 1\t\t\tfRequestIDs.push(requestID);\\r...\n      DUP2 \t\t\tfRequestIDs.push(requestID);\\r...\n      ADD \t\t\tfRequestIDs.push(requestID);\\r...\n      DUP3 \t\t\tfRequestIDs.push(requestID);\\r...\n      SSTORE \t\t\tfRequestIDs.push(requestID);\\r...\n      PUSH 0\t\t\t\n      SWAP2 \t\t\tfRequestIDs.push(requestID);\\r...\n      SWAP1 \t\t\tfRequestIDs.push(requestID);\\r...\n      SWAP2 \t\t\tfRequestIDs.push(requestID);\\r...\n      MSTORE \t\t\tfRequestIDs.push(requestID);\\r...\n      PUSH C65A7BB8D6351C1CF70C95A316CC6A92839C986682D98BC35F958F4883F9D2A8\t\t\tfRequestIDs.push(requestID);\\r...\n      PUSH 4\t\t\tfRequestIDs.push(requestID);\\r...\n      DUP3 \t\t\tfRequestIDs.push(requestID);\\r...\n      DIV \t\t\tfRequestIDs.push(requestID);\\r...\n      ADD \t\t\tfRequestIDs.push(requestID);\\r...\n      DUP1 \t\t\tfRequestIDs.push(requestID);\\r...\n      SLOAD \t\t\tfRequestIDs.push(requestID);\\r...\n      PUSH 3\t\t\tfRequestIDs.push(requestID);\\r...\n      SWAP1 \t\t\tfRequestIDs.push(requestID);\\r...\n      SWAP3 \t\t\tfRequestIDs.push(requestID);\\r...\n      AND \t\t\tfRequestIDs.push(requestID);\\r...\n      PUSH 8\t\t\tfRequestIDs.push(requestID);\\r...\n      MUL \t\t\tfRequestIDs.push(requestID);\\r...\n      PUSH 100\t\t\tfRequestIDs.push(requestID);\\r...\n      EXP \t\t\tfRequestIDs.push(requestID);\\r...\n      PUSH 1\t\t\t\n      PUSH 1\t\t\t\n      PUSH 40\t\t\t\n      SHL \t\t\t\n      SUB \t\t\t\n      DUP2 \t\t\tfRequestIDs.push(requestID);\\r...\n      DUP2 \t\t\tfRequestIDs.push(requestID);\\r...\n      MUL \t\t\tfRequestIDs.push(requestID);\\r...\n      NOT \t\t\tfRequestIDs.push(requestID);\\r...\n      SWAP1 \t\t\tfRequestIDs.push(requestID);\\r...\n      SWAP4 \t\t\tfRequestIDs.push(requestID);\\r...\n      AND \t\t\tfRequestIDs.push(requestID);\\r...\n      SWAP5 \t\t\tfRequestIDs.push(requestID);\\r...\n      SWAP1 \t\t\tfRequestIDs.push(requestID);\\r...\n      SWAP3 \t\t\tfRequestIDs.push(requestID);\\r...\n      AND \t\t\tfRequestIDs.push(requestID);\\r...\n      SWAP2 \t\t\tfRequestIDs.push(requestID);\\r...\n      SWAP1 \t\t\tfRequestIDs.push(requestID);\\r...\n      SWAP2 \t\t\tfRequestIDs.push(requestID);\\r...\n      MUL \t\t\tfRequestIDs.push(requestID);\\r...\n      SWAP3 \t\t\tfRequestIDs.push(requestID);\\r...\n      SWAP1 \t\t\tfRequestIDs.push(requestID);\\r...\n      SWAP3 \t\t\tfRequestIDs.push(requestID);\\r...\n      OR \t\t\tfRequestIDs.push(requestID);\\r...\n      SWAP1 \t\t\tfRequestIDs.push(requestID);\\r...\n      SWAP2 \t\t\tfRequestIDs.push(requestID);\\r...\n      SSTORE \t\t\tfRequestIDs.push(requestID);\\r...\n      POP \t\t\t\n      POP \t\t\t\n      JUMP \t\t\ttion addProofRequestAndRole(ui...\n    tag 132\t\t\t64[] public proofRequestIDs;\\r...\n      JUMPDEST \t\t\t64[] public proofRequestIDs;\\r...\n      PUSH A\t\t\t64[] public proofRequestIDs;\\r...\n      DUP2 \t\t\t64[] public proofRequestIDs;\\r...\n      DUP2 \t\t\t64[] public proofRequestIDs;\\r...\n      SLOAD \t\t\t64[] public proofRequestIDs;\\r...\n      DUP2 \t\t\t64[] public proofRequestIDs;\\r...\n      LT \t\t\t64[] public proofRequestIDs;\\r...\n      PUSH [tag] 455\t\t\t64[] public proofRequestIDs;\\r...\n      JUMPI \t\t\t64[] public proofRequestIDs;\\r...\n      PUSH 0\t\t\t64[] public proofRequestIDs;\\r...\n      DUP1 \t\t\t64[] public proofRequestIDs;\\r...\n      REVERT \t\t\t64[] public proofRequestIDs;\\r...\n    tag 455\t\t\t64[] public proofRequestIDs;\\r...\n      JUMPDEST \t\t\t64[] public proofRequestIDs;\\r...\n      SWAP1 \t\t\t64[] public proofRequestIDs;\\r...\n      PUSH 0\t\t\t64[] public proofRequestIDs;\\r...\n      MSTORE \t\t\t64[] public proofRequestIDs;\\r...\n      PUSH 20\t\t\t64[] public proofRequestIDs;\\r...\n      PUSH 0\t\t\t64[] public proofRequestIDs;\\r...\n      KECCAK256 \t\t\t64[] public proofRequestIDs;\\r...\n      SWAP1 \t\t\t64[] public proofRequestIDs;\\r...\n      PUSH 4\t\t\t64[] public proofRequestIDs;\\r...\n      SWAP2 \t\t\t64[] public proofRequestIDs;\\r...\n      DUP3 \t\t\t64[] public proofRequestIDs;\\r...\n      DUP3 \t\t\t64[] public proofRequestIDs;\\r...\n      DIV \t\t\t64[] public proofRequestIDs;\\r...\n      ADD \t\t\t64[] public proofRequestIDs;\\r...\n      SWAP2 \t\t\t64[] public proofRequestIDs;\\r...\n      SWAP1 \t\t\t64[] public proofRequestIDs;\\r...\n      MOD \t\t\t64[] public proofRequestIDs;\\r...\n      PUSH 8\t\t\t64[] public proofRequestIDs;\\r...\n      MUL \t\t\t64[] public proofRequestIDs;\\r...\n      SWAP2 \t\t\t64[] public proofRequestIDs;\\r...\n      POP \t\t\t64[] public proofRequestIDs;\\r...\n      SLOAD \t\t\t64[] public proofRequestIDs;\\r...\n      SWAP1 \t\t\t64[] public proofRequestIDs;\\r...\n      PUSH 100\t\t\t64[] public proofRequestIDs;\\r...\n      EXP \t\t\t64[] public proofRequestIDs;\\r...\n      SWAP1 \t\t\t64[] public proofRequestIDs;\\r...\n      DIV \t\t\t64[] public proofRequestIDs;\\r...\n      PUSH 1\t\t\t\n      PUSH 1\t\t\t\n      PUSH 40\t\t\t\n      SHL \t\t\t\n      SUB \t\t\t\n      AND \t\t\t64[] public proofRequestIDs;\\r...\n      DUP2 \t\t\t64[] public proofRequestIDs;\\r...\n      JUMP \t\t\t64[] public proofRequestIDs;\\r...\n    tag 137\t\t\tmapping(uint256 => string) pub...\n      JUMPDEST \t\t\tmapping(uint256 => string) pub...\n      PUSH 7\t\t\tmapping(uint256 => string) pub...\n      PUSH 20\t\t\tmapping(uint256 => string) pub...\n      MSTORE \t\t\tmapping(uint256 => string) pub...\n      PUSH 0\t\t\tmapping(uint256 => string) pub...\n      SWAP1 \t\t\tmapping(uint256 => string) pub...\n      DUP2 \t\t\tmapping(uint256 => string) pub...\n      MSTORE \t\t\tmapping(uint256 => string) pub...\n      PUSH 40\t\t\tmapping(uint256 => string) pub...\n      SWAP1 \t\t\tmapping(uint256 => string) pub...\n      KECCAK256 \t\t\tmapping(uint256 => string) pub...\n      DUP1 \t\t\tmapping(uint256 => string) pub...\n      SLOAD \t\t\tmapping(uint256 => string) pub...\n      PUSH [tag] 318\t\t\tmapping(uint256 => string) pub...\n      SWAP1 \t\t\tmapping(uint256 => string) pub...\n      PUSH [tag] 166\t\t\tmapping(uint256 => string) pub...\n      JUMP \t\t\tmapping(uint256 => string) pub...\n    tag 147\t\t\t safeTransferFrom(\\r\\n        ...\n      JUMPDEST \t\t\t safeTransferFrom(\\r\\n        ...\n      PUSH [tag] 464\t\t\tlProofsVerified(tokenID, from,...\n      DUP4 \t\t\t from, \n      DUP7 \t\t\t);\\r\\n\n      DUP7 \t\t\t  \n      PUSH [tag] 311\t\t\tlProofsVerified(tokenID\n      JUMP \t\t\tlProofsVerified(tokenID, from,...\n    tag 464\t\t\tlProofsVerified(tokenID, from,...\n      JUMPDEST \t\t\tlProofsVerified(tokenID, from,...\n      PUSH [tag] 465\t\t\tfeTransferFrom(from, to, token...\n      DUP6 \t\t\t, to\n      DUP6 \t\t\tnI\n      DUP6 \t\t\t amount\n      DUP6 \t\t\tdata);\n      DUP6 \t\t\t    \n      PUSH [tag] 466\t\t\tfeTransferFrom(from, t\n      JUMP \t\t\tfeTransferFrom(from, to, token...\n    tag 465\t\t\tfeTransferFrom(from, to, token...\n      JUMPDEST \t\t\tfeTransferFrom(from, to, token...\n      POP \t\t\t safeTransferFrom(\\r\\n        ...\n      POP \t\t\t safeTransferFrom(\\r\\n        ...\n      POP \t\t\t safeTransferFrom(\\r\\n        ...\n      POP \t\t\t safeTransferFrom(\\r\\n        ...\n      POP \t\t\t safeTransferFrom(\\r\\n        ...\n      JUMP \t\t\t safeTransferFrom(\\r\\n        ...\n    tag 150\t\t\t token ID to its name. But the...\n      JUMPDEST \t\t\t token ID to its name. But the...\n      PUSH [tag] 468\t\t\t  admins.push\n      PUSH [tag] 226\t\t\t  admins.pu\n      JUMP \t\t\t  admins.push\n    tag 468\t\t\t  admins.push\n      JUMPDEST \t\t\t  admins.push\n      PUSH 1\t\t\t\n      PUSH 1\t\t\t\n      PUSH A0\t\t\t\n      SHL \t\t\t\n      SUB \t\t\t\n      DUP2 \t\t\t\\r\\n    mapping(uint256 \n      AND \t\t\t\\r\\n    mapping(uint256 \n      PUSH [tag] 470\t\t\turi \\r\\n    mapping(uint256 =>...\n      JUMPI \t\t\turi \\r\\n    mapping(uint256 =>...\n      PUSH 40\t\t\tName;\\r\\n\\r\\n\\r\\n    // Mappin...\n      MLOAD \t\t\tName;\\r\\n\\r\\n\\r\\n    // Mappin...\n      PUSH 1E4FBDF7\t\t\t\n      PUSH E0\t\t\t\n      SHL \t\t\t\n      DUP2 \t\t\tName;\\r\\n\\r\\n\\r\\n    // Mappin...\n      MSTORE \t\t\tName;\\r\\n\\r\\n\\r\\n    // Mappin...\n      PUSH 0\t\t\to\n      PUSH 4\t\t\tName;\\r\\n\\r\\n\\r\\n    // Mappin...\n      DUP3 \t\t\tName;\\r\\n\\r\\n\\r\\n    // Mappin...\n      ADD \t\t\tName;\\r\\n\\r\\n\\r\\n    // Mappin...\n      MSTORE \t\t\ttions);\\r\\n    }\\r\\n\\r\\n    //...\n      PUSH 24\t\t\t return (filteredI\n      ADD \t\t\t return (filteredI\n      PUSH [tag] 248\t\t\tName;\\r\\n\\r\\n\\r\\n    // Mappin...\n      JUMP \t\t\tidx] = ids[i];\\r\\n            ...\n    tag 470\t\t\turi \\r\\n    mapping(uint256 =>...\n      JUMPDEST \t\t\turi \\r\\n    mapping(uint256 =>...\n      PUSH [tag] 227\t\t\tuest_id to prover's role (a \n      DUP2 \t\t\t role (a\n      PUSH [tag] 396\t\t\tuest_id to prover'\n      JUMP \t\t\tuest_id to prover's role (a \n    tag 154\t\t\t burn(address account, uint256...\n      JUMPDEST \t\t\t burn(address account, uint256...\n      PUSH [tag] 474\t\t\t  admins.push\n      PUSH [tag] 226\t\t\t  admins.pu\n      JUMP \t\t\t  admins.push\n    tag 474\t\t\t  admins.push\n      JUMPDEST \t\t\t  admins.push\n      PUSH [tag] 364\t\t\tcount, ID, amount);\\r\\n    }\n      DUP4 \t\t\t ID, am\n      DUP4 \t\t\tnt\n      DUP4 \t\t\t\\r\\n    \n      PUSH [tag] 477\t\t\tcount\n      JUMP \t\t\tcount, ID, amount);\\r\\n    }\n    tag 226\t\t\t[i] == _admin) {\\r\\n          ...\n      JUMPDEST \t\t\t[i] == _admin) {\\r\\n          ...\n      PUSH 3\t\t\tlen = \n      SLOAD \t\t\tlen = \n      PUSH 1\t\t\t\n      PUSH 1\t\t\t\n      PUSH A0\t\t\t\n      SHL \t\t\t\n      SUB \t\t\t\n      AND \t\t\tlen = \n      CALLER \t\t\t{\\r\\n    add\n      EQ \t\t\t1];\\r\\n                ad\n      PUSH [tag] 395\t\t\tn - 1];\\r\\n                adm...\n      JUMPI \t\t\tn - 1];\\r\\n                adm...\n      PUSH 40\t\t\t      return;\\r\\n            }...\n      MLOAD \t\t\t      return;\\r\\n            }...\n      PUSH 118CDAA7\t\t\t\n      PUSH E0\t\t\t\n      SHL \t\t\t\n      DUP2 \t\t\t      return;\\r\\n            }...\n      MSTORE \t\t\t      return;\\r\\n            }...\n      CALLER \t\t\t{\\r\\n    add\n      PUSH 4\t\t\t      return;\\r\\n            }...\n      DUP3 \t\t\t      return;\\r\\n            }...\n      ADD \t\t\t      return;\\r\\n            }...\n      MSTORE \t\t\ttions);\\r\\n    }\\r\\n\\r\\n    //...\n      PUSH 24\t\t\t return (filteredI\n      ADD \t\t\t return (filteredI\n      PUSH [tag] 248\t\t\t      return;\\r\\n            }...\n      JUMP \t\t\tidx] = ids[i];\\r\\n            ...\n    tag 257\t\t\t\n      JUMPDEST \t\t\t\n      PUSH 60\t\t\t\n      PUSH 0\t\t\t\n      PUSH [tag] 486\t\t\t\n      DUP4 \t\t\t\n      PUSH [tag] 487\t\t\t\n      JUMP \t\t\t\n    tag 486\t\t\t\n      JUMPDEST \t\t\t\n      SWAP4 \t\t\t\n      SWAP3 \t\t\t\n      POP \t\t\t\n      POP \t\t\t\n      POP \t\t\t\n      JUMP \t\t\t\n    tag 273\t\t\t   uint256 tokenID,\\r\\n       ...\n      JUMPDEST \t\t\t   uint256 tokenID,\\r\\n       ...\n      PUSH 1\t\t\t\n      PUSH 1\t\t\t\n      PUSH A0\t\t\t\n      SHL \t\t\t\n      SUB \t\t\t\n      DUP5 \t\t\terride {\\r\\n      \n      AND \t\t\terride {\\r\\n      \n      PUSH [tag] 489\t\t\tl override {\\r\\n        // Enf...\n      JUMPI \t\t\tl override {\\r\\n        // Enf...\n      PUSH 40\t\t\tproof checks\\r\\n        _check...\n      MLOAD \t\t\tproof checks\\r\\n        _check...\n      PUSH 2BFA23E7\t\t\t\n      PUSH E1\t\t\t\n      SHL \t\t\t\n      DUP2 \t\t\tproof checks\\r\\n        _check...\n      MSTORE \t\t\tproof checks\\r\\n        _check...\n      PUSH 0\t\t\tP\n      PUSH 4\t\t\tproof checks\\r\\n        _check...\n      DUP3 \t\t\tproof checks\\r\\n        _check...\n      ADD \t\t\tproof checks\\r\\n        _check...\n      MSTORE \t\t\ttions);\\r\\n    }\\r\\n\\r\\n    //...\n      PUSH 24\t\t\t return (filteredI\n      ADD \t\t\t return (filteredI\n      PUSH [tag] 248\t\t\tproof checks\\r\\n        _check...\n      JUMP \t\t\tidx] = ids[i];\\r\\n            ...\n    tag 489\t\t\tl override {\\r\\n        // Enf...\n      JUMPDEST \t\t\tl override {\\r\\n        // Enf...\n      PUSH 40\t\t\t\n      DUP1 \t\t\t\n      MLOAD \t\t\t\n      PUSH 1\t\t\t\n      DUP1 \t\t\t\n      DUP3 \t\t\t\n      MSTORE \t\t\t\n      PUSH 20\t\t\t\n      DUP3 \t\t\t\n      ADD \t\t\t\n      DUP7 \t\t\t\n      SWAP1 \t\t\t\n      MSTORE \t\t\t\n      DUP2 \t\t\t\n      DUP4 \t\t\t\n      ADD \t\t\t\n      SWAP1 \t\t\t\n      DUP2 \t\t\t\n      MSTORE \t\t\t\n      PUSH 60\t\t\t\n      DUP3 \t\t\t\n      ADD \t\t\t\n      DUP6 \t\t\t\n      SWAP1 \t\t\t\n      MSTORE \t\t\t\n      PUSH 80\t\t\t\n      DUP3 \t\t\t\n      ADD \t\t\t\n      SWAP1 \t\t\t\n      SWAP3 \t\t\t\n      MSTORE \t\t\t\n      SWAP1 \t\t\t\n      PUSH [tag] 306\t\t\tsafeTransferFrom(from, to, tok...\n      PUSH 0\t\t\t\n      DUP8 \t\t\tun\n      DUP5 \t\t\t\n      DUP5 \t\t\t\n      DUP8 \t\t\t}\\r\\n\\r\n      PUSH [tag] 494\t\t\tsafeTransferFrom(from, to,\n      JUMP \t\t\tsafeTransferFrom(from, to, tok...\n    tag 289\t\t\t\n      JUMPDEST \t\t\t\n      PUSH 0\t\t\t\n      DUP2 \t\t\tkenID_proofRequest_ro\n      DUP2 \t\t\tkenID_proofRequest_ro\n      MSTORE \t\t\tkenID_proofRequest_ro\n      PUSH 1\t\t\tkenID_proofReq\n      DUP4 \t\t\tkenID_proofReq\n      ADD \t\t\tkenID_proofReq\n      PUSH 20\t\t\tkenID_proofRequest_ro\n      MSTORE \t\t\tkenID_proofRequest_ro\n      PUSH 40\t\t\tkenID_proofRequest_ro\n      DUP2 \t\t\tkenID_proofRequest_ro\n      KECCAK256 \t\t\tkenID_proofRequest_ro\n      SLOAD \t\t\tkenID_proofRequest_ro\n      ISZERO \t\t\tkenID_proofRequest_role[to\n      ISZERO \t\t\tkenID_proofRequest_role[to\n      PUSH [tag] 486\t\t\t\n      JUMP \t\t\t   require(_allTokenIDs.contai...\n    tag 291\t\t\t\n      JUMPDEST \t\t\t\n      PUSH 0\t\t\t\n      PUSH [tag] 486\t\t\t\n      DUP4 \t\t\t\n      DUP4 \t\t\t\n      PUSH [tag] 500\t\t\t\n      JUMP \t\t\t\n    tag 311\t\t\t _checkAllProofsVerified(uint2...\n      JUMPDEST \t\t\t _checkAllProofsVerified(uint2...\n      PUSH 0\t\t\t memory tempRequestIDs = proof\n      PUSH A\t\t\tuestIDs;\\r\\n     \n      DUP1 \t\t\t memory tempRequestIDs = proof...\n      SLOAD \t\t\t memory tempRequestIDs = proof...\n      DUP1 \t\t\t memory tempRequestIDs = proof...\n      PUSH 20\t\t\t memory tempRequestIDs = proof...\n      MUL \t\t\t memory tempRequestIDs = proof...\n      PUSH 20\t\t\t memory tempRequestIDs = proof...\n      ADD \t\t\t memory tempRequestIDs = proof...\n      PUSH 40\t\t\t memory tempRequestIDs = proof...\n      MLOAD \t\t\t memory tempRequestIDs = proof...\n      SWAP1 \t\t\t memory tempRequestIDs = proof...\n      DUP2 \t\t\t memory tempRequestIDs = proof...\n      ADD \t\t\t memory tempRequestIDs = proof...\n      PUSH 40\t\t\t memory tempRequestIDs = proof...\n      MSTORE \t\t\t memory tempRequestIDs = proof...\n      DUP1 \t\t\t memory tempRequestIDs = proof...\n      SWAP3 \t\t\t memory tempRequestIDs = proof...\n      SWAP2 \t\t\t memory tempRequestIDs = proof...\n      SWAP1 \t\t\t memory tempRequestIDs = proof...\n      DUP2 \t\t\t memory tempRequestIDs = proof...\n      DUP2 \t\t\t memory tempRequestIDs = proof...\n      MSTORE \t\t\t memory tempRequestIDs = proof...\n      PUSH 20\t\t\t memory tempRequestIDs = proof...\n      ADD \t\t\t memory tempRequestIDs = proof...\n      DUP3 \t\t\t memory tempRequestIDs = proof...\n      DUP1 \t\t\t memory tempRequestIDs = proof...\n      SLOAD \t\t\t memory tempRequestIDs = proof...\n      DUP1 \t\t\t memory tempRequestIDs = proof...\n      ISZERO \t\t\t memory tempRequestIDs = proof...\n      PUSH [tag] 502\t\t\t memory tempRequestIDs = proof...\n      JUMPI \t\t\t memory tempRequestIDs = proof...\n      PUSH 20\t\t\t memory tempRequestIDs = proof...\n      MUL \t\t\t memory tempRequestIDs = proof...\n      DUP3 \t\t\t memory tempRequestIDs = proof...\n      ADD \t\t\t memory tempRequestIDs = proof...\n      SWAP2 \t\t\t memory tempRequestIDs = proof...\n      SWAP1 \t\t\t memory tempRequestIDs = proof...\n      PUSH 0\t\t\t memory tempRequestIDs = proof...\n      MSTORE \t\t\t memory tempRequestIDs = proof...\n      PUSH 20\t\t\t memory tempRequestIDs = proof...\n      PUSH 0\t\t\t memory tempRequestIDs = proof...\n      KECCAK256 \t\t\t memory tempRequestIDs = proof...\n      SWAP1 \t\t\t memory tempRequestIDs = proof...\n      PUSH 0\t\t\t memory tempRequestIDs = proof...\n      SWAP1 \t\t\t memory tempRequestIDs = proof...\n    tag 503\t\t\t memory tempRequestIDs = proof...\n      JUMPDEST \t\t\t memory tempRequestIDs = proof...\n      DUP3 \t\t\t memory tempRequestIDs = proof...\n      DUP3 \t\t\t memory tempRequestIDs = proof...\n      SWAP1 \t\t\t memory tempRequestIDs = proof...\n      SLOAD \t\t\t memory tempRequestIDs = proof...\n      SWAP1 \t\t\t memory tempRequestIDs = proof...\n      PUSH 100\t\t\t memory tempRequestIDs = proof...\n      EXP \t\t\t memory tempRequestIDs = proof...\n      SWAP1 \t\t\t memory tempRequestIDs = proof...\n      DIV \t\t\t memory tempRequestIDs = proof...\n      PUSH 1\t\t\t\n      PUSH 1\t\t\t\n      PUSH 40\t\t\t\n      SHL \t\t\t\n      SUB \t\t\t\n      AND \t\t\t memory tempRequestIDs = proof...\n      PUSH 1\t\t\t\n      PUSH 1\t\t\t\n      PUSH 40\t\t\t\n      SHL \t\t\t\n      SUB \t\t\t\n      AND \t\t\t memory tempRequestIDs = proof...\n      DUP2 \t\t\t memory tempRequestIDs = proof...\n      MSTORE \t\t\t memory tempRequestIDs = proof...\n      PUSH 20\t\t\t memory tempRequestIDs = proof...\n      ADD \t\t\t memory tempRequestIDs = proof...\n      SWAP1 \t\t\t memory tempRequestIDs = proof...\n      PUSH 8\t\t\t memory tempRequestIDs = proof...\n      ADD \t\t\t memory tempRequestIDs = proof...\n      SWAP1 \t\t\t memory tempRequestIDs = proof...\n      PUSH 20\t\t\t memory tempRequestIDs = proof...\n      DUP3 \t\t\t memory tempRequestIDs = proof...\n      PUSH 7\t\t\t memory tempRequestIDs = proof...\n      ADD \t\t\t memory tempRequestIDs = proof...\n      DIV \t\t\t memory tempRequestIDs = proof...\n      SWAP3 \t\t\t memory tempRequestIDs = proof...\n      DUP4 \t\t\t memory tempRequestIDs = proof...\n      ADD \t\t\t memory tempRequestIDs = proof...\n      SWAP3 \t\t\t memory tempRequestIDs = proof...\n      PUSH 1\t\t\t memory tempRequestIDs = proof...\n      SUB \t\t\t memory tempRequestIDs = proof...\n      DUP3 \t\t\t memory tempRequestIDs = proof...\n      MUL \t\t\t memory tempRequestIDs = proof...\n      SWAP2 \t\t\t memory tempRequestIDs = proof...\n      POP \t\t\t memory tempRequestIDs = proof...\n      DUP1 \t\t\t memory tempRequestIDs = proof...\n      DUP5 \t\t\t memory tempRequestIDs = proof...\n      GT \t\t\t memory tempRequestIDs = proof...\n      PUSH [tag] 503\t\t\t memory tempRequestIDs = proof...\n      JUMPI \t\t\t memory tempRequestIDs = proof...\n      SWAP1 \t\t\t memory tempRequestIDs = proof...\n      POP \t\t\t memory tempRequestIDs = proof...\n    tag 502\t\t\t memory tempRequestIDs = proof...\n      JUMPDEST \t\t\t memory tempRequestIDs = proof...\n      POP \t\t\t memory tempRequestIDs = proof...\n      POP \t\t\t memory tempRequestIDs = proof...\n      POP \t\t\t memory tempRequestIDs = proof...\n      POP \t\t\t memory tempRequestIDs = proof...\n      POP \t\t\t memory tempRequestIDs = proof...\n      SWAP1 \t\t\t memory tempRequestIDs = proof...\n      POP \t\t\t memory tempRequestIDs = proof...\n      PUSH 0\t\t\ti = 0; i \n    tag 504\t\t\tt256 i = 0; i < tempRequestIDs...\n      JUMPDEST \t\t\tt256 i = 0; i < tempRequestIDs...\n      DUP2 \t\t\testIDs.length;\n      MLOAD \t\t\testIDs.length; i++) {\n      DUP2 \t\t\tR\n      LT \t\t\tRequestIDs.length; i++) {\n      ISZERO \t\t\tt256 i = 0; i < tempRequestIDs...\n      PUSH [tag] 465\t\t\tt256 i = 0; i < tempRequestIDs...\n      JUMPI \t\t\tt256 i = 0; i < tempRequestIDs...\n      PUSH 0\t\t\temory role = token\n      DUP6 \t\t\tproofRequest_role[tokenID][tem...\n      DUP2 \t\t\tproofRequest_role[tokenID][tem...\n      MSTORE \t\t\tproofRequest_role[tokenID][tem...\n      PUSH 8\t\t\tproofRequest_role[tokenID\n      PUSH 20\t\t\tproofRequest_role[tokenID][tem...\n      MSTORE \t\t\tproofRequest_role[tokenID][tem...\n      PUSH 40\t\t\tproofRequest_role[tokenID][tem...\n      DUP2 \t\t\tproofRequest_role[tokenID][tem...\n      KECCAK256 \t\t\tproofRequest_role[tokenID][tem...\n      DUP4 \t\t\testIDs[i]];\\r\\n    \n      MLOAD \t\t\testIDs[i]];\\r\\n    \n      DUP3 \t\t\temory role = token\n      SWAP1 \t\t\temory role = token\n      DUP6 \t\t\testIDs[i]];\\r\\n \n      SWAP1 \t\t\testIDs[i]];\\r\\n \n      DUP6 \t\t\t \n      SWAP1 \t\t\t \n      DUP2 \t\t\testIDs[i]];\\r\\n    \n      LT \t\t\testIDs[i]];\\r\\n    \n      PUSH [tag] 508\t\t\testIDs[i]];\\r\\n    \n      JUMPI \t\t\testIDs[i]];\\r\\n    \n      PUSH [tag] 508\t\t\testIDs[i]];\\r\\n    \n      PUSH [tag] 164\t\t\testIDs[i]];\\r\\n    \n      JUMP \t\t\testIDs[i]];\\r\\n    \n    tag 508\t\t\testIDs[i]];\\r\\n    \n      JUMPDEST \t\t\testIDs[i]];\\r\\n    \n      PUSH 20\t\t\testIDs[i]];\\r\\n    \n      MUL \t\t\testIDs[i]];\\r\\n    \n      PUSH 20\t\t\testIDs[i]];\\r\\n    \n      ADD \t\t\testIDs[i]];\\r\\n    \n      ADD \t\t\testIDs[i]];\\r\\n    \n      MLOAD \t\t\testIDs[i]];\\r\\n    \n      PUSH 1\t\t\t\n      PUSH 1\t\t\t\n      PUSH 40\t\t\t\n      SHL \t\t\t\n      SUB \t\t\t\n      AND \t\t\tproofRequest_role[tokenID][tem...\n      PUSH 1\t\t\t\n      PUSH 1\t\t\t\n      PUSH 40\t\t\t\n      SHL \t\t\t\n      SUB \t\t\t\n      AND \t\t\tproofRequest_role[tokenID][tem...\n      DUP2 \t\t\tproofRequest_role[tokenID][tem...\n      MSTORE \t\t\tproofRequest_role[tokenID][tem...\n      PUSH 20\t\t\tproofRequest_role[tokenID][tem...\n      ADD \t\t\tproofRequest_role[tokenID][tem...\n      SWAP1 \t\t\tproofRequest_role[tokenID][tem...\n      DUP2 \t\t\tproofRequest_role[tokenID][tem...\n      MSTORE \t\t\tproofRequest_role[tokenID][tem...\n      PUSH 20\t\t\tproofRequest_role[tokenID][tem...\n      ADD \t\t\tproofRequest_role[tokenID][tem...\n      PUSH 0\t\t\tproofRequest_role[tokenID][tem...\n      KECCAK256 \t\t\tproofRequest_role[tokenID][tem...\n      DUP1 \t\t\temory role = tokenID_proofRequ...\n      SLOAD \t\t\temory role = tokenID_proofRequ...\n      PUSH [tag] 509\t\t\temory role = tokenID_proofRequ...\n      SWAP1 \t\t\temory role = tokenID_proofRequ...\n      PUSH [tag] 166\t\t\temory role = tokenID_proofRequ...\n      JUMP \t\t\temory role = tokenID_proofRequ...\n    tag 509\t\t\temory role = tokenID_proofRequ...\n      JUMPDEST \t\t\temory role = tokenID_proofRequ...\n      DUP1 \t\t\temory role = tokenID_proofRequ...\n      PUSH 1F\t\t\temory role = tokenID_proofRequ...\n      ADD \t\t\temory role = tokenID_proofRequ...\n      PUSH 20\t\t\temory role = tokenID_proofRequ...\n      DUP1 \t\t\temory role = tokenID_proofRequ...\n      SWAP2 \t\t\temory role = tokenID_proofRequ...\n      DIV \t\t\temory role = tokenID_proofRequ...\n      MUL \t\t\temory role = tokenID_proofRequ...\n      PUSH 20\t\t\temory role = tokenID_proofRequ...\n      ADD \t\t\temory role = tokenID_proofRequ...\n      PUSH 40\t\t\temory role = tokenID_proofRequ...\n      MLOAD \t\t\temory role = tokenID_proofRequ...\n      SWAP1 \t\t\temory role = tokenID_proofRequ...\n      DUP2 \t\t\temory role = tokenID_proofRequ...\n      ADD \t\t\temory role = tokenID_proofRequ...\n      PUSH 40\t\t\temory role = tokenID_proofRequ...\n      MSTORE \t\t\temory role = tokenID_proofRequ...\n      DUP1 \t\t\temory role = tokenID_proofRequ...\n      SWAP3 \t\t\temory role = tokenID_proofRequ...\n      SWAP2 \t\t\temory role = tokenID_proofRequ...\n      SWAP1 \t\t\temory role = tokenID_proofRequ...\n      DUP2 \t\t\temory role = tokenID_proofRequ...\n      DUP2 \t\t\temory role = tokenID_proofRequ...\n      MSTORE \t\t\temory role = tokenID_proofRequ...\n      PUSH 20\t\t\temory role = tokenID_proofRequ...\n      ADD \t\t\temory role = tokenID_proofRequ...\n      DUP3 \t\t\temory role = tokenID_proofRequ...\n      DUP1 \t\t\temory role = tokenID_proofRequ...\n      SLOAD \t\t\temory role = tokenID_proofRequ...\n      PUSH [tag] 510\t\t\temory role = tokenID_proofRequ...\n      SWAP1 \t\t\temory role = tokenID_proofRequ...\n      PUSH [tag] 166\t\t\temory role = tokenID_proofRequ...\n      JUMP \t\t\temory role = tokenID_proofRequ...\n    tag 510\t\t\temory role = tokenID_proofRequ...\n      JUMPDEST \t\t\temory role = tokenID_proofRequ...\n      DUP1 \t\t\temory role = tokenID_proofRequ...\n      ISZERO \t\t\temory role = tokenID_proofRequ...\n      PUSH [tag] 511\t\t\temory role = tokenID_proofRequ...\n      JUMPI \t\t\temory role = tokenID_proofRequ...\n      DUP1 \t\t\temory role = tokenID_proofRequ...\n      PUSH 1F\t\t\temory role = tokenID_proofRequ...\n      LT \t\t\temory role = tokenID_proofRequ...\n      PUSH [tag] 512\t\t\temory role = tokenID_proofRequ...\n      JUMPI \t\t\temory role = tokenID_proofRequ...\n      PUSH 100\t\t\temory role = tokenID_proofRequ...\n      DUP1 \t\t\temory role = tokenID_proofRequ...\n      DUP4 \t\t\temory role = tokenID_proofRequ...\n      SLOAD \t\t\temory role = tokenID_proofRequ...\n      DIV \t\t\temory role = tokenID_proofRequ...\n      MUL \t\t\temory role = tokenID_proofRequ...\n      DUP4 \t\t\temory role = tokenID_proofRequ...\n      MSTORE \t\t\temory role = tokenID_proofRequ...\n      SWAP2 \t\t\temory role = tokenID_proofRequ...\n      PUSH 20\t\t\temory role = tokenID_proofRequ...\n      ADD \t\t\temory role = tokenID_proofRequ...\n      SWAP2 \t\t\temory role = tokenID_proofRequ...\n      PUSH [tag] 511\t\t\temory role = tokenID_proofRequ...\n      JUMP \t\t\temory role = tokenID_proofRequ...\n    tag 512\t\t\temory role = tokenID_proofRequ...\n      JUMPDEST \t\t\temory role = tokenID_proofRequ...\n      DUP3 \t\t\temory role = tokenID_proofRequ...\n      ADD \t\t\temory role = tokenID_proofRequ...\n      SWAP2 \t\t\temory role = tokenID_proofRequ...\n      SWAP1 \t\t\temory role = tokenID_proofRequ...\n      PUSH 0\t\t\temory role = tokenID_proofRequ...\n      MSTORE \t\t\temory role = tokenID_proofRequ...\n      PUSH 20\t\t\temory role = tokenID_proofRequ...\n      PUSH 0\t\t\temory role = tokenID_proofRequ...\n      KECCAK256 \t\t\temory role = tokenID_proofRequ...\n      SWAP1 \t\t\temory role = tokenID_proofRequ...\n    tag 513\t\t\temory role = tokenID_proofRequ...\n      JUMPDEST \t\t\temory role = tokenID_proofRequ...\n      DUP2 \t\t\temory role = tokenID_proofRequ...\n      SLOAD \t\t\temory role = tokenID_proofRequ...\n      DUP2 \t\t\temory role = tokenID_proofRequ...\n      MSTORE \t\t\temory role = tokenID_proofRequ...\n      SWAP1 \t\t\temory role = tokenID_proofRequ...\n      PUSH 1\t\t\temory role = tokenID_proofRequ...\n      ADD \t\t\temory role = tokenID_proofRequ...\n      SWAP1 \t\t\temory role = tokenID_proofRequ...\n      PUSH 20\t\t\temory role = tokenID_proofRequ...\n      ADD \t\t\temory role = tokenID_proofRequ...\n      DUP1 \t\t\temory role = tokenID_proofRequ...\n      DUP4 \t\t\temory role = tokenID_proofRequ...\n      GT \t\t\temory role = tokenID_proofRequ...\n      PUSH [tag] 513\t\t\temory role = tokenID_proofRequ...\n      JUMPI \t\t\temory role = tokenID_proofRequ...\n      DUP3 \t\t\temory role = tokenID_proofRequ...\n      SWAP1 \t\t\temory role = tokenID_proofRequ...\n      SUB \t\t\temory role = tokenID_proofRequ...\n      PUSH 1F\t\t\temory role = tokenID_proofRequ...\n      AND \t\t\temory role = tokenID_proofRequ...\n      DUP3 \t\t\temory role = tokenID_proofRequ...\n      ADD \t\t\temory role = tokenID_proofRequ...\n      SWAP2 \t\t\temory role = tokenID_proofRequ...\n    tag 511\t\t\temory role = tokenID_proofRequ...\n      JUMPDEST \t\t\temory role = tokenID_proofRequ...\n      POP \t\t\temory role = tokenID_proofRequ...\n      POP \t\t\temory role = tokenID_proofRequ...\n      POP \t\t\temory role = tokenID_proofRequ...\n      POP \t\t\temory role = tokenID_proofRequ...\n      POP \t\t\temory role = tokenID_proofRequ...\n      SWAP1 \t\t\temory role = tokenID_proofRequ...\n      POP \t\t\temory role = tokenID_proofRequ...\n      DUP1 \t\t\tngth\n      MLOAD \t\t\tle).length == 0) c\n      PUSH 0\t\t\tn\n      SUB \t\t\tle).length == 0) contin\n      PUSH [tag] 514\t\t\ts(role).length == 0) continue;...\n      JUMPI \t\t\ts(role).length == 0) continue;...\n      POP \t\t\t;\\r\\n     \n      PUSH [tag] 506\t\t\t;\\r\\n     \n      JUMP \t\t\t;\\r\\n     \n    tag 514\t\t\ts(role).length == 0) continue;...\n      JUMPDEST \t\t\ts(role).length == 0) continue;...\n      PUSH 40\t\t\tender\"))) {\\r\\n  \n      DUP1 \t\t\tender\"))) {\\r\\n  \n      MLOAD \t\t\tender\"))) {\\r\\n  \n      DUP1 \t\t\tender\"))) {\\r\\n  \n      DUP3 \t\t\tender\"))) {\\r\\n  \n      ADD \t\t\tender\"))) {\\r\\n  \n      SWAP1 \t\t\tender\"))) {\\r\\n  \n      SWAP2 \t\t\tender\"))) {\\r\\n  \n      MSTORE \t\t\tender\"))) {\\r\\n  \n      PUSH 6\t\t\tender\"))) {\\r\\n  \n      DUP2 \t\t\tender\"))) {\\r\\n  \n      MSTORE \t\t\tender\"))) {\\r\\n  \n      PUSH 39B2B73232B9\t\t\t\n      PUSH D1\t\t\t\n      SHL \t\t\t\n      PUSH 20\t\t\tender\"))) {\\r\\n  \n      SWAP2 \t\t\tender\"))) {\\r\\n  \n      DUP3 \t\t\tender\"))) {\\r\\n  \n      ADD \t\t\tender\"))) {\\r\\n  \n      MSTORE \t\t\tender\"))) {\\r\\n  \n      DUP2 \t\t\t6(bytes(role)) == kecc\n      MLOAD \t\t\t6(bytes(role)) == kecc\n      SWAP1 \t\t\t6(bytes(role)) == kecc\n      DUP3 \t\t\t6(bytes(role)) == kecc\n      ADD \t\t\t6(bytes(role)) == kecc\n      KECCAK256 \t\t\t6(bytes(role)) == kecc\n      PUSH E9716D31FCA45BA1A65FCEB4F1265619E64D7B5127091A54F5A69102A360A307\t\t\t6(bytes(role)) == keccak256(by...\n      ADD \t\t\t6(bytes(role)) == keccak256(by...\n      PUSH [tag] 515\t\t\tak256(bytes(role)) == keccak25...\n      JUMPI \t\t\tak256(bytes(role)) == keccak25...\n      PUSH B\t\t\t.getProo\n      SLOAD \t\t\t.getProo\n      DUP4 \t\t\testIDs[i]).isVeri\n      MLOAD \t\t\testIDs[i]).isVeri\n      PUSH 1\t\t\t\n      PUSH 1\t\t\t\n      PUSH A0\t\t\t\n      SHL \t\t\t\n      SUB \t\t\t\n      SWAP1 \t\t\t.getProo\n      SWAP2 \t\t\t.getProo\n      AND \t\t\t.getProo\n      SWAP1 \t\t\t.getProo\n      PUSH 8C1DA2C9\t\t\t.getProofStatus(sender,\n      SWAP1 \t\t\t.getProofStatus(sender,\n      DUP8 \t\t\ttempRe\n      SWAP1 \t\t\ttempRe\n      DUP7 \t\t\testIDs[i]).isV\n      SWAP1 \t\t\testIDs[i]).isV\n      DUP7 \t\t\tr\n      SWAP1 \t\t\tr\n      DUP2 \t\t\testIDs[i]).isVeri\n      LT \t\t\testIDs[i]).isVeri\n      PUSH [tag] 517\t\t\testIDs[i]).isVeri\n      JUMPI \t\t\testIDs[i]).isVeri\n      PUSH [tag] 517\t\t\testIDs[i]).isVeri\n      PUSH [tag] 164\t\t\testIDs[i]).isVeri\n      JUMP \t\t\testIDs[i]).isVeri\n    tag 517\t\t\testIDs[i]).isVeri\n      JUMPDEST \t\t\testIDs[i]).isVeri\n      PUSH 20\t\t\testIDs[i]).isVeri\n      MUL \t\t\testIDs[i]).isVeri\n      PUSH 20\t\t\testIDs[i]).isVeri\n      ADD \t\t\testIDs[i]).isVeri\n      ADD \t\t\testIDs[i]).isVeri\n      MLOAD \t\t\testIDs[i]).isVeri\n      PUSH 40\t\t\t.getProofStatus(sender, tempRe...\n      MLOAD \t\t\t.getProofStatus(sender, tempRe...\n      DUP4 \t\t\t.getProofStatus(sender, tempRe...\n      PUSH FFFFFFFF\t\t\t.getProofStatus(sender, tempRe...\n      AND \t\t\t.getProofStatus(sender, tempRe...\n      PUSH E0\t\t\t.getProofStatus(sender, tempRe...\n      SHL \t\t\t.getProofStatus(sender, tempRe...\n      DUP2 \t\t\t.getProofStatus(sender, tempRe...\n      MSTORE \t\t\t.getProofStatus(sender, tempRe...\n      PUSH 4\t\t\t.getProofStatus(sender, tempRe...\n      ADD \t\t\t.getProofStatus(sender, tempRe...\n      PUSH [tag] 518\t\t\t.getProofStatus(sender, tempRe...\n      SWAP3 \t\t\t.getProofStatus(sender, tempRe...\n      SWAP2 \t\t\t.getProofStatus(sender, tempRe...\n      SWAP1 \t\t\t.getProofStatus(sender, tempRe...\n      PUSH 1\t\t\t\n      PUSH 1\t\t\t\n      PUSH A0\t\t\t\n      SHL \t\t\t\n      SUB \t\t\t\n      SWAP3 \t\t\t\n      SWAP1 \t\t\t\n      SWAP3 \t\t\t\n      AND \t\t\t\n      DUP3 \t\t\t\n      MSTORE \t\t\t\n      PUSH 1\t\t\t\n      PUSH 1\t\t\t\n      PUSH 40\t\t\t\n      SHL \t\t\t\n      SUB \t\t\t\n      AND \t\t\t\n      PUSH 20\t\t\t\n      DUP3 \t\t\t\n      ADD \t\t\t\n      MSTORE \t\t\t\n      PUSH 40\t\t\t\n      ADD \t\t\t\n      SWAP1 \t\t\t\n      JUMP \t\t\t\n    tag 518\t\t\t.getProofStatus(sender, tempRe...\n      JUMPDEST \t\t\t.getProofStatus(sender, tempRe...\n      PUSH 0\t\t\t.getProofStatus(sender, tempRe...\n      PUSH 40\t\t\t.getProofStatus(sender, tempRe...\n      MLOAD \t\t\t.getProofStatus(sender, tempRe...\n      DUP1 \t\t\t.getProofStatus(sender, tempRe...\n      DUP4 \t\t\t.getProofStatus(sender, tempRe...\n      SUB \t\t\t.getProofStatus(sender, tempRe...\n      DUP2 \t\t\t.getProofStatus(sender, tempRe...\n      DUP7 \t\t\t.getProofStatus(sender, tempRe...\n      GAS \t\t\t.getProofStatus(sender, tempRe...\n      STATICCALL \t\t\t.getProofStatus(sender, tempRe...\n      ISZERO \t\t\t.getProofStatus(sender, tempRe...\n      DUP1 \t\t\t.getProofStatus(sender, tempRe...\n      ISZERO \t\t\t.getProofStatus(sender, tempRe...\n      PUSH [tag] 521\t\t\t.getProofStatus(sender, tempRe...\n      JUMPI \t\t\t.getProofStatus(sender, tempRe...\n      RETURNDATASIZE \t\t\t.getProofStatus(sender, tempRe...\n      PUSH 0\t\t\t.getProofStatus(sender, tempRe...\n      DUP1 \t\t\t.getProofStatus(sender, tempRe...\n      RETURNDATACOPY \t\t\t.getProofStatus(sender, tempRe...\n      RETURNDATASIZE \t\t\t.getProofStatus(sender, tempRe...\n      PUSH 0\t\t\t.getProofStatus(sender, tempRe...\n      REVERT \t\t\t.getProofStatus(sender, tempRe...\n    tag 521\t\t\t.getProofStatus(sender, tempRe...\n      JUMPDEST \t\t\t.getProofStatus(sender, tempRe...\n      POP \t\t\t.getProofStatus(sender, tempRe...\n      POP \t\t\t.getProofStatus(sender, tempRe...\n      POP \t\t\t.getProofStatus(sender, tempRe...\n      POP \t\t\t.getProofStatus(sender, tempRe...\n      PUSH 40\t\t\t.getProofStatus(sender, tempRe...\n      MLOAD \t\t\t.getProofStatus(sender, tempRe...\n      RETURNDATASIZE \t\t\t.getProofStatus(sender, tempRe...\n      PUSH 0\t\t\t.getProofStatus(sender, tempRe...\n      DUP3 \t\t\t.getProofStatus(sender, tempRe...\n      RETURNDATACOPY \t\t\t.getProofStatus(sender, tempRe...\n      PUSH 1F\t\t\t.getProofStatus(sender, tempRe...\n      RETURNDATASIZE \t\t\t.getProofStatus(sender, tempRe...\n      SWAP1 \t\t\t.getProofStatus(sender, tempRe...\n      DUP2 \t\t\t.getProofStatus(sender, tempRe...\n      ADD \t\t\t.getProofStatus(sender, tempRe...\n      PUSH 1F\t\t\t\n      NOT \t\t\t\n      AND \t\t\t.getProofStatus(sender, tempRe...\n      DUP3 \t\t\t.getProofStatus(sender, tempRe...\n      ADD \t\t\t.getProofStatus(sender, tempRe...\n      PUSH 40\t\t\t.getProofStatus(sender, tempRe...\n      MSTORE \t\t\t.getProofStatus(sender, tempRe...\n      PUSH [tag] 522\t\t\t.getProofStatus(sender, tempRe...\n      SWAP2 \t\t\t.getProofStatus(sender, tempRe...\n      SWAP1 \t\t\t.getProofStatus(sender, tempRe...\n      DUP2 \t\t\t.getProofStatus(sender, tempRe...\n      ADD \t\t\t.getProofStatus(sender, tempRe...\n      SWAP1 \t\t\t.getProofStatus(sender, tempRe...\n      PUSH [tag] 523\t\t\t.getProofStatus(sender, tempRe...\n      JUMP \t\t\t.getProofStatus(sender, tempRe...\n    tag 522\t\t\t.getProofStatus(sender, tempRe...\n      JUMPDEST \t\t\t.getProofStatus(sender, tempRe...\n      MLOAD \t\t\t.getProofStatus(sender, tempRe...\n      PUSH [tag] 524\t\t\tifier.getProofStatus(sender, t...\n      JUMPI \t\t\tifier.getProofStatus(sender, t...\n      DUP3 \t\t\testIDs[i], sen\n      DUP3 \t\t\te\n      DUP2 \t\t\testIDs[i], sender\n      MLOAD \t\t\testIDs[i], sender\n      DUP2 \t\t\testIDs[i], sender\n      LT \t\t\testIDs[i], sender\n      PUSH [tag] 526\t\t\testIDs[i], sender\n      JUMPI \t\t\testIDs[i], sender\n      PUSH [tag] 526\t\t\testIDs[i], sender\n      PUSH [tag] 164\t\t\testIDs[i], sender\n      JUMP \t\t\testIDs[i], sender\n    tag 526\t\t\testIDs[i], sender\n      JUMPDEST \t\t\testIDs[i], sender\n      PUSH 20\t\t\testIDs[i], sender\n      SWAP1 \t\t\testIDs[i], sender\n      DUP2 \t\t\testIDs[i], sender\n      MUL \t\t\testIDs[i], sender\n      SWAP2 \t\t\testIDs[i], sender\n      SWAP1 \t\t\testIDs[i], sender\n      SWAP2 \t\t\testIDs[i], sender\n      ADD \t\t\testIDs[i], sender\n      ADD \t\t\testIDs[i], sender\n      MLOAD \t\t\testIDs[i], sender\n      PUSH 40\t\t\tVerified(tempRequestIDs[i], se...\n      MLOAD \t\t\tVerified(tempRequestIDs[i], se...\n      PUSH 52D23047\t\t\t\n      PUSH E1\t\t\t\n      SHL \t\t\t\n      DUP2 \t\t\tVerified(tempRequestIDs[i], se...\n      MSTORE \t\t\tVerified(tempRequestIDs[i], se...\n      PUSH 1\t\t\t\n      PUSH 1\t\t\t\n      PUSH 40\t\t\t\n      SHL \t\t\t\n      SUB \t\t\t\n      SWAP1 \t\t\t\n      SWAP2 \t\t\t\n      AND \t\t\t\n      PUSH 4\t\t\tVerified(tempRequestIDs[i], se...\n      DUP3 \t\t\tVerified(tempRequestIDs[i], se...\n      ADD \t\t\tVerified(tempRequestIDs[i], se...\n      MSTORE \t\t\t\n      PUSH 1\t\t\t\n      PUSH 1\t\t\t\n      PUSH A0\t\t\t\n      SHL \t\t\t\n      SUB \t\t\t\n      DUP7 \t\t\t\n      AND \t\t\t\n      PUSH 24\t\t\t\n      DUP3 \t\t\t\n      ADD \t\t\t\n      MSTORE \t\t\t\n      PUSH 44\t\t\t\n      ADD \t\t\t\n      PUSH [tag] 248\t\t\tVerified(tempRequestIDs[i], se...\n      JUMP \t\t\t\n    tag 524\t\t\tifier.getProofStatus(sender, t...\n      JUMPDEST \t\t\tifier.getProofStatus(sender, t...\n      PUSH [tag] 537\t\t\tak256(bytes(role)) == keccak25...\n      JUMP \t\t\tak256(bytes(role)) == keccak25...\n    tag 515\t\t\tak256(bytes(role)) == keccak25...\n      JUMPDEST \t\t\tak256(bytes(role)) == keccak25...\n      PUSH 40\t\t\teceiver\"))) {\\r\\n  \n      DUP1 \t\t\teceiver\"))) {\\r\\n  \n      MLOAD \t\t\teceiver\"))) {\\r\\n  \n      DUP1 \t\t\teceiver\"))) {\\r\\n  \n      DUP3 \t\t\teceiver\"))) {\\r\\n  \n      ADD \t\t\teceiver\"))) {\\r\\n  \n      SWAP1 \t\t\teceiver\"))) {\\r\\n  \n      SWAP2 \t\t\teceiver\"))) {\\r\\n  \n      MSTORE \t\t\teceiver\"))) {\\r\\n  \n      PUSH 8\t\t\teceiver\"))) {\\r\\n  \n      DUP2 \t\t\teceiver\"))) {\\r\\n  \n      MSTORE \t\t\teceiver\"))) {\\r\\n  \n      PUSH 3932B1B2B4BB32B9\t\t\t\n      PUSH C1\t\t\t\n      SHL \t\t\t\n      PUSH 20\t\t\teceiver\"))) {\\r\\n  \n      SWAP2 \t\t\teceiver\"))) {\\r\\n  \n      DUP3 \t\t\teceiver\"))) {\\r\\n  \n      ADD \t\t\teceiver\"))) {\\r\\n  \n      MSTORE \t\t\teceiver\"))) {\\r\\n  \n      DUP2 \t\t\t6(bytes(role)) == kecc\n      MLOAD \t\t\t6(bytes(role)) == kecc\n      SWAP1 \t\t\t6(bytes(role)) == kecc\n      DUP3 \t\t\t6(bytes(role)) == kecc\n      ADD \t\t\t6(bytes(role)) == kecc\n      KECCAK256 \t\t\t6(bytes(role)) == kecc\n      PUSH A187B1BA0149C3C8AFE92B31A3AD5A84F5B7475E8F43D1CEB9C41F2FC2E3B24A\t\t\t6(bytes(role)) == keccak256(by...\n      ADD \t\t\t6(bytes(role)) == keccak256(by...\n      PUSH [tag] 537\t\t\tak256(bytes(role)) == keccak25...\n      JUMPI \t\t\tak256(bytes(role)) == keccak25...\n      PUSH B\t\t\t.getProo\n      SLOAD \t\t\t.getProo\n      DUP4 \t\t\testIDs[i]).isVeri\n      MLOAD \t\t\testIDs[i]).isVeri\n      PUSH 1\t\t\t\n      PUSH 1\t\t\t\n      PUSH A0\t\t\t\n      SHL \t\t\t\n      SUB \t\t\t\n      SWAP1 \t\t\t.getProo\n      SWAP2 \t\t\t.getProo\n      AND \t\t\t.getProo\n      SWAP1 \t\t\t.getProo\n      PUSH 8C1DA2C9\t\t\t.getProofStatus(receive\n      SWAP1 \t\t\t.getProofStatus(receive\n      DUP7 \t\t\t, tempRe\n      SWAP1 \t\t\t, tempRe\n      DUP7 \t\t\testIDs[i]).isV\n      SWAP1 \t\t\testIDs[i]).isV\n      DUP7 \t\t\tr\n      SWAP1 \t\t\tr\n      DUP2 \t\t\testIDs[i]).isVeri\n      LT \t\t\testIDs[i]).isVeri\n      PUSH [tag] 532\t\t\testIDs[i]).isVeri\n      JUMPI \t\t\testIDs[i]).isVeri\n      PUSH [tag] 532\t\t\testIDs[i]).isVeri\n      PUSH [tag] 164\t\t\testIDs[i]).isVeri\n      JUMP \t\t\testIDs[i]).isVeri\n    tag 532\t\t\testIDs[i]).isVeri\n      JUMPDEST \t\t\testIDs[i]).isVeri\n      PUSH 20\t\t\testIDs[i]).isVeri\n      MUL \t\t\testIDs[i]).isVeri\n      PUSH 20\t\t\testIDs[i]).isVeri\n      ADD \t\t\testIDs[i]).isVeri\n      ADD \t\t\testIDs[i]).isVeri\n      MLOAD \t\t\testIDs[i]).isVeri\n      PUSH 40\t\t\t.getProofStatus(receiver, temp...\n      MLOAD \t\t\t.getProofStatus(receiver, temp...\n      DUP4 \t\t\t.getProofStatus(receiver, temp...\n      PUSH FFFFFFFF\t\t\t.getProofStatus(receiver, temp...\n      AND \t\t\t.getProofStatus(receiver, temp...\n      PUSH E0\t\t\t.getProofStatus(receiver, temp...\n      SHL \t\t\t.getProofStatus(receiver, temp...\n      DUP2 \t\t\t.getProofStatus(receiver, temp...\n      MSTORE \t\t\t.getProofStatus(receiver, temp...\n      PUSH 4\t\t\t.getProofStatus(receiver, temp...\n      ADD \t\t\t.getProofStatus(receiver, temp...\n      PUSH [tag] 533\t\t\t.getProofStatus(receiver, temp...\n      SWAP3 \t\t\t.getProofStatus(receiver, temp...\n      SWAP2 \t\t\t.getProofStatus(receiver, temp...\n      SWAP1 \t\t\t.getProofStatus(receiver, temp...\n      PUSH 1\t\t\t\n      PUSH 1\t\t\t\n      PUSH A0\t\t\t\n      SHL \t\t\t\n      SUB \t\t\t\n      SWAP3 \t\t\t\n      SWAP1 \t\t\t\n      SWAP3 \t\t\t\n      AND \t\t\t\n      DUP3 \t\t\t\n      MSTORE \t\t\t\n      PUSH 1\t\t\t\n      PUSH 1\t\t\t\n      PUSH 40\t\t\t\n      SHL \t\t\t\n      SUB \t\t\t\n      AND \t\t\t\n      PUSH 20\t\t\t\n      DUP3 \t\t\t\n      ADD \t\t\t\n      MSTORE \t\t\t\n      PUSH 40\t\t\t\n      ADD \t\t\t\n      SWAP1 \t\t\t\n      JUMP \t\t\t\n    tag 533\t\t\t.getProofStatus(receiver, temp...\n      JUMPDEST \t\t\t.getProofStatus(receiver, temp...\n      PUSH 0\t\t\t.getProofStatus(receiver, temp...\n      PUSH 40\t\t\t.getProofStatus(receiver, temp...\n      MLOAD \t\t\t.getProofStatus(receiver, temp...\n      DUP1 \t\t\t.getProofStatus(receiver, temp...\n      DUP4 \t\t\t.getProofStatus(receiver, temp...\n      SUB \t\t\t.getProofStatus(receiver, temp...\n      DUP2 \t\t\t.getProofStatus(receiver, temp...\n      DUP7 \t\t\t.getProofStatus(receiver, temp...\n      GAS \t\t\t.getProofStatus(receiver, temp...\n      STATICCALL \t\t\t.getProofStatus(receiver, temp...\n      ISZERO \t\t\t.getProofStatus(receiver, temp...\n      DUP1 \t\t\t.getProofStatus(receiver, temp...\n      ISZERO \t\t\t.getProofStatus(receiver, temp...\n      PUSH [tag] 535\t\t\t.getProofStatus(receiver, temp...\n      JUMPI \t\t\t.getProofStatus(receiver, temp...\n      RETURNDATASIZE \t\t\t.getProofStatus(receiver, temp...\n      PUSH 0\t\t\t.getProofStatus(receiver, temp...\n      DUP1 \t\t\t.getProofStatus(receiver, temp...\n      RETURNDATACOPY \t\t\t.getProofStatus(receiver, temp...\n      RETURNDATASIZE \t\t\t.getProofStatus(receiver, temp...\n      PUSH 0\t\t\t.getProofStatus(receiver, temp...\n      REVERT \t\t\t.getProofStatus(receiver, temp...\n    tag 535\t\t\t.getProofStatus(receiver, temp...\n      JUMPDEST \t\t\t.getProofStatus(receiver, temp...\n      POP \t\t\t.getProofStatus(receiver, temp...\n      POP \t\t\t.getProofStatus(receiver, temp...\n      POP \t\t\t.getProofStatus(receiver, temp...\n      POP \t\t\t.getProofStatus(receiver, temp...\n      PUSH 40\t\t\t.getProofStatus(receiver, temp...\n      MLOAD \t\t\t.getProofStatus(receiver, temp...\n      RETURNDATASIZE \t\t\t.getProofStatus(receiver, temp...\n      PUSH 0\t\t\t.getProofStatus(receiver, temp...\n      DUP3 \t\t\t.getProofStatus(receiver, temp...\n      RETURNDATACOPY \t\t\t.getProofStatus(receiver, temp...\n      PUSH 1F\t\t\t.getProofStatus(receiver, temp...\n      RETURNDATASIZE \t\t\t.getProofStatus(receiver, temp...\n      SWAP1 \t\t\t.getProofStatus(receiver, temp...\n      DUP2 \t\t\t.getProofStatus(receiver, temp...\n      ADD \t\t\t.getProofStatus(receiver, temp...\n      PUSH 1F\t\t\t\n      NOT \t\t\t\n      AND \t\t\t.getProofStatus(receiver, temp...\n      DUP3 \t\t\t.getProofStatus(receiver, temp...\n      ADD \t\t\t.getProofStatus(receiver, temp...\n      PUSH 40\t\t\t.getProofStatus(receiver, temp...\n      MSTORE \t\t\t.getProofStatus(receiver, temp...\n      PUSH [tag] 536\t\t\t.getProofStatus(receiver, temp...\n      SWAP2 \t\t\t.getProofStatus(receiver, temp...\n      SWAP1 \t\t\t.getProofStatus(receiver, temp...\n      DUP2 \t\t\t.getProofStatus(receiver, temp...\n      ADD \t\t\t.getProofStatus(receiver, temp...\n      SWAP1 \t\t\t.getProofStatus(receiver, temp...\n      PUSH [tag] 523\t\t\t.getProofStatus(receiver, temp...\n      JUMP \t\t\t.getProofStatus(receiver, temp...\n    tag 536\t\t\t.getProofStatus(receiver, temp...\n      JUMPDEST \t\t\t.getProofStatus(receiver, temp...\n      MLOAD \t\t\t.getProofStatus(receiver, temp...\n      PUSH [tag] 537\t\t\tifier.getProofStatus(receiver,...\n      JUMPI \t\t\tifier.getProofStatus(receiver,...\n      DUP3 \t\t\testIDs[i], rec\n      DUP3 \t\t\ti\n      DUP2 \t\t\testIDs[i], receiv\n      MLOAD \t\t\testIDs[i], receiv\n      DUP2 \t\t\testIDs[i], receiv\n      LT \t\t\testIDs[i], receiv\n      PUSH [tag] 539\t\t\testIDs[i], receiv\n      JUMPI \t\t\testIDs[i], receiv\n      PUSH [tag] 539\t\t\testIDs[i], receiv\n      PUSH [tag] 164\t\t\testIDs[i], receiv\n      JUMP \t\t\testIDs[i], receiv\n    tag 539\t\t\testIDs[i], receiv\n      JUMPDEST \t\t\testIDs[i], receiv\n      PUSH 20\t\t\testIDs[i], receiv\n      SWAP1 \t\t\testIDs[i], receiv\n      DUP2 \t\t\testIDs[i], receiv\n      MUL \t\t\testIDs[i], receiv\n      SWAP2 \t\t\testIDs[i], receiv\n      SWAP1 \t\t\testIDs[i], receiv\n      SWAP2 \t\t\testIDs[i], receiv\n      ADD \t\t\testIDs[i], receiv\n      ADD \t\t\testIDs[i], receiv\n      MLOAD \t\t\testIDs[i], receiv\n      PUSH 40\t\t\tVerified(tempRequestIDs[i], re...\n      MLOAD \t\t\tVerified(tempRequestIDs[i], re...\n      PUSH 52D23047\t\t\t\n      PUSH E1\t\t\t\n      SHL \t\t\t\n      DUP2 \t\t\tVerified(tempRequestIDs[i], re...\n      MSTORE \t\t\tVerified(tempRequestIDs[i], re...\n      PUSH 1\t\t\t\n      PUSH 1\t\t\t\n      PUSH 40\t\t\t\n      SHL \t\t\t\n      SUB \t\t\t\n      SWAP1 \t\t\t\n      SWAP2 \t\t\t\n      AND \t\t\t\n      PUSH 4\t\t\tVerified(tempRequestIDs[i], re...\n      DUP3 \t\t\tVerified(tempRequestIDs[i], re...\n      ADD \t\t\tVerified(tempRequestIDs[i], re...\n      MSTORE \t\t\t\n      PUSH 1\t\t\t\n      PUSH 1\t\t\t\n      PUSH A0\t\t\t\n      SHL \t\t\t\n      SUB \t\t\t\n      DUP6 \t\t\t\n      AND \t\t\t\n      PUSH 24\t\t\t\n      DUP3 \t\t\t\n      ADD \t\t\t\n      MSTORE \t\t\t\n      PUSH 44\t\t\t\n      ADD \t\t\t\n      PUSH [tag] 248\t\t\tVerified(tempRequestIDs[i], re...\n      JUMP \t\t\t\n    tag 537\t\t\tifier.getProofStatus(receiver,...\n      JUMPDEST \t\t\tifier.getProofStatus(receiver,...\n      POP \t\t\t       string memory role = to...\n    tag 506\t\t\tt256 i = 0; i < tempRequestIDs...\n      JUMPDEST \t\t\tt256 i = 0; i < tempRequestIDs...\n      DUP1 \t\t\t   \n      PUSH [tag] 541\t\t\t   \n      DUP2 \t\t\t   \n      PUSH [tag] 169\t\t\t   \n      JUMP \t\t\t   \n    tag 541\t\t\t   \n      JUMPDEST \t\t\t   \n      SWAP2 \t\t\t   \n      POP \t\t\t   \n      POP \t\t\t   \n      PUSH [tag] 504\t\t\tt256 i = 0; i < tempRequestIDs...\n      JUMP \t\t\tt256 i = 0; i < tempRequestIDs...\n    tag 348\t\t\tfunction _isAdmin(address _adm...\n      JUMPDEST \t\t\tfunction _isAdmin(address _adm...\n      PUSH 0\t\t\tbool\n      DUP1 \t\t\tbool\n    tag 545\t\t\tfor (uint i = 0; i < admins.le...\n      JUMPDEST \t\t\tfor (uint i = 0; i < admins.le...\n      PUSH 4\t\t\tadmins\n      SLOAD \t\t\tadmins.length\n      DUP2 \t\t\ti < admins.length\n      LT \t\t\ti < admins.length\n      ISZERO \t\t\tfor (uint i = 0; i < admins.le...\n      PUSH [tag] 546\t\t\tfor (uint i = 0; i < admins.le...\n      JUMPI \t\t\tfor (uint i = 0; i < admins.le...\n      DUP3 \t\t\t_admin\n      PUSH 1\t\t\t\n      PUSH 1\t\t\t\n      PUSH A0\t\t\t\n      SHL \t\t\t\n      SUB \t\t\t\n      AND \t\t\tadmins[i] == _admin\n      PUSH 4\t\t\tadmins\n      DUP3 \t\t\ti\n      DUP2 \t\t\tadmins[i]\n      SLOAD \t\t\tadmins[i]\n      DUP2 \t\t\tadmins[i]\n      LT \t\t\tadmins[i]\n      PUSH [tag] 549\t\t\tadmins[i]\n      JUMPI \t\t\tadmins[i]\n      PUSH [tag] 549\t\t\tadmins[i]\n      PUSH [tag] 164\t\t\tadmins[i]\n      JUMP \t\t\tadmins[i]\n    tag 549\t\t\tadmins[i]\n      JUMPDEST \t\t\tadmins[i]\n      PUSH 0\t\t\tadmins[i]\n      SWAP2 \t\t\tadmins[i]\n      DUP3 \t\t\tadmins[i]\n      MSTORE \t\t\tadmins[i]\n      PUSH 20\t\t\tadmins[i]\n      SWAP1 \t\t\tadmins[i]\n      SWAP2 \t\t\tadmins[i]\n      KECCAK256 \t\t\tadmins[i]\n      ADD \t\t\tadmins[i]\n      SLOAD \t\t\tadmins[i]\n      PUSH 1\t\t\t\n      PUSH 1\t\t\t\n      PUSH A0\t\t\t\n      SHL \t\t\t\n      SUB \t\t\t\n      AND \t\t\tadmins[i]\n      SUB \t\t\tadmins[i] == _admin\n      PUSH [tag] 551\t\t\tif (admins[i] == _admin) {\\r\\n...\n      JUMPI \t\t\tif (admins[i] == _admin) {\\r\\n...\n      POP \t\t\t\n      PUSH 1\t\t\ttrue\n      SWAP3 \t\t\ttrue\n      SWAP2 \t\t\tfunction _isAdmin(address _adm...\n      POP \t\t\t\n      POP \t\t\t\n      JUMP \t\t\tfunction _isAdmin(address _adm...\n    tag 551\t\t\tif (admins[i] == _admin) {\\r\\n...\n      JUMPDEST \t\t\tif (admins[i] == _admin) {\\r\\n...\n      DUP1 \t\t\ti++\n      PUSH [tag] 552\t\t\ti++\n      DUP2 \t\t\ti++\n      PUSH [tag] 169\t\t\ti++\n      JUMP \t\t\ti++\n    tag 552\t\t\ti++\n      JUMPDEST \t\t\ti++\n      SWAP2 \t\t\ti++\n      POP \t\t\ti++\n      POP \t\t\ti++\n      PUSH [tag] 545\t\t\tfor (uint i = 0; i < admins.le...\n      JUMP \t\t\tfor (uint i = 0; i < admins.le...\n    tag 546\t\t\tfor (uint i = 0; i < admins.le...\n      JUMPDEST \t\t\tfor (uint i = 0; i < admins.le...\n      POP \t\t\t\n      PUSH 0\t\t\tfalse\n      SWAP3 \t\t\tfalse\n      SWAP2 \t\t\tfunction _isAdmin(address _adm...\n      POP \t\t\t\n      POP \t\t\t\n      JUMP \t\t\tfunction _isAdmin(address _adm...\n    tag 396\t\t\tofRequest_role;\\r\\n\\r\\n    // ...\n      JUMPDEST \t\t\tofRequest_role;\\r\\n\\r\\n    // ...\n      PUSH 3\t\t\ttion {\n      DUP1 \t\t\ttion {\n      SLOAD \t\t\ttion {\n      PUSH 1\t\t\t\n      PUSH 1\t\t\t\n      PUSH A0\t\t\t\n      SHL \t\t\t\n      SUB \t\t\t\n      DUP4 \t\t\tstring attribute;\n      DUP2 \t\t\tstring attribute;\n      AND \t\t\tstring attribute;\n      PUSH 1\t\t\t\n      PUSH 1\t\t\t\n      PUSH A0\t\t\t\n      SHL \t\t\t\n      SUB \t\t\t\n      NOT \t\t\t\n      DUP4 \t\t\tstring attribute;\n      AND \t\t\tstring attribute;\n      DUP2 \t\t\tstring attribute;\n      OR \t\t\tstring attribute;\n      SWAP1 \t\t\tstring attribute;\n      SWAP4 \t\t\tstring attribute;\n      SSTORE \t\t\tstring attribute;\n      PUSH 40\t\t\tg operatorStr;\\r\\n        stri...\n      MLOAD \t\t\tg operatorStr;\\r\\n        stri...\n      SWAP2 \t\t\ttion {\n      AND \t\t\ttion {\n      SWAP2 \t\t\ttion {\n      SWAP1 \t\t\tstring attribute;\n      DUP3 \t\t\ttion {\n      SWAP1 \t\t\ttion {\n      PUSH 8BE0079C531659141344CD1FD0A4F28419497F9722A3DAAFE3B4186F6B6457E0\t\t\tg operatorStr;\\r\\n        stri...\n      SWAP1 \t\t\tg operatorStr;\\r\\n        stri...\n      PUSH 0\t\t\ttruct SpendingCo\n      SWAP1 \t\t\ttruct SpendingCo\n      LOG3 \t\t\tg operatorStr;\\r\\n        stri...\n      POP \t\t\tion\\r\\n    struct SpendingCond...\n      POP \t\t\tofRequest_role;\\r\\n\\r\\n    // ...\n      JUMP \t\t\tofRequest_role;\\r\\n\\r\\n    // ...\n    tag 434\t\t\t\n      JUMPDEST \t\t\t\n      PUSH 1\t\t\t\n      PUSH 1\t\t\t\n      PUSH A0\t\t\t\n      SHL \t\t\t\n      SUB \t\t\t\n      DUP3 \t\t\t\n      AND \t\t\t\n      PUSH [tag] 556\t\t\t\n      JUMPI \t\t\t\n      PUSH 40\t\t\t\n      MLOAD \t\t\t\n      PUSH CED3E1\t\t\t\n      PUSH E8\t\t\t\n      SHL \t\t\t\n      DUP2 \t\t\t\n      MSTORE \t\t\t\n      PUSH 0\t\t\t\n      PUSH 4\t\t\t\n      DUP3 \t\t\t\n      ADD \t\t\t\n      MSTORE \t\t\ttions);\\r\\n    }\\r\\n\\r\\n    //...\n      PUSH 24\t\t\t return (filteredI\n      ADD \t\t\t return (filteredI\n      PUSH [tag] 248\t\t\t\n      JUMP \t\t\tidx] = ids[i];\\r\\n            ...\n    tag 556\t\t\t\n      JUMPDEST \t\t\t\n      PUSH 1\t\t\t\n      PUSH 1\t\t\t\n      PUSH A0\t\t\t\n      SHL \t\t\t\n      SUB \t\t\t\n      DUP4 \t\t\t\n      DUP2 \t\t\t\n      AND \t\t\t\n      PUSH 0\t\t\t\n      DUP2 \t\t\t\n      DUP2 \t\t\t\n      MSTORE \t\t\t\n      PUSH 1\t\t\t\n      PUSH 20\t\t\t\n      SWAP1 \t\t\t\n      DUP2 \t\t\t\n      MSTORE \t\t\t\n      PUSH 40\t\t\t\n      DUP1 \t\t\t\n      DUP4 \t\t\t\n      KECCAK256 \t\t\t\n      SWAP5 \t\t\t\n      DUP8 \t\t\t\n      AND \t\t\t\n      DUP1 \t\t\t\n      DUP5 \t\t\t\n      MSTORE \t\t\t\n      SWAP5 \t\t\t\n      DUP3 \t\t\t\n      MSTORE \t\t\t\n      SWAP2 \t\t\t\n      DUP3 \t\t\t\n      SWAP1 \t\t\t\n      KECCAK256 \t\t\t\n      DUP1 \t\t\t\n      SLOAD \t\t\t\n      PUSH FF\t\t\t\n      NOT \t\t\t\n      AND \t\t\t\n      DUP7 \t\t\t\n      ISZERO \t\t\t\n      ISZERO \t\t\t\n      SWAP1 \t\t\t\n      DUP2 \t\t\t\n      OR \t\t\t\n      SWAP1 \t\t\t\n      SWAP2 \t\t\t\n      SSTORE \t\t\t\n      SWAP2 \t\t\t\n      MLOAD \t\t\t\n      SWAP2 \t\t\ti < ids.length; i++) {\\r\\n    ...\n      DUP3 \t\t\ti < ids.length; i++) {\\r\\n    ...\n      MSTORE \t\t\ti < ids.length; i++) {\\r\\n    ...\n      PUSH 17307EAB39AB6107E8899845AD3D59BD9653F200F220920489CA2B5937696C31\t\t\t\n      SWAP2 \t\t\t\n      ADD \t\t\t       for (uint25\n      PUSH 40\t\t\t\n      MLOAD \t\t\t\n      DUP1 \t\t\t\n      SWAP2 \t\t\t\n      SUB \t\t\t\n      SWAP1 \t\t\t\n      LOG3 \t\t\t\n      POP \t\t\t\n      POP \t\t\t\n      POP \t\t\t\n      JUMP \t\t\t\n    tag 466\t\t\tgCondition[] memory) {\\r\\n    ...\n      JUMPDEST \t\t\tgCondition[] memory) {\\r\\n    ...\n      CALLER \t\t\t{\\r\\n    add\n      PUSH 1\t\t\t\n      PUSH 1\t\t\t\n      PUSH A0\t\t\t\n      SHL \t\t\t\n      SUB \t\t\t\n      DUP7 \t\t\tth this tokenI\n      AND \t\t\tth this tokenI\n      DUP2 \t\t\tth this tokenI\n      EQ \t\t\tth this tokenI\n      DUP1 \t\t\tth this tokenI\n      ISZERO \t\t\tth this tokenI\n      SWAP1 \t\t\tth this tokenI\n      PUSH [tag] 561\t\t\tth this tokenID\\r\\n        for...\n      JUMPI \t\t\tth this tokenID\\r\\n        for...\n      POP \t\t\t\n      PUSH 1\t\t\t\n      PUSH 1\t\t\t\n      PUSH A0\t\t\t\n      SHL \t\t\t\n      SUB \t\t\t\n      DUP1 \t\t\ten tokenID\\r\\n    function ge\n      DUP8 \t\t\ten tokenID\\r\\n    function ge\n      AND \t\t\ten tokenID\\r\\n    function ge\n      PUSH 0\t\t\tng c\n      SWAP1 \t\t\ten tokenID\\r\\n    function ge\n      DUP2 \t\t\ten tokenID\\r\\n    function ge\n      MSTORE \t\t\ten tokenID\\r\\n    function ge\n      PUSH 1\t\t\ten tokenID\\r\\n    fu\n      PUSH 20\t\t\ten tokenID\\r\\n    function ge\n      SWAP1 \t\t\ten tokenID\\r\\n    function ge\n      DUP2 \t\t\ten tokenID\\r\\n    function ge\n      MSTORE \t\t\ten tokenID\\r\\n    function ge\n      PUSH 40\t\t\ten tokenID\\r\\n    function ge\n      DUP1 \t\t\ten tokenID\\r\\n    function ge\n      DUP4 \t\t\ten tokenID\\r\\n    function ge\n      KECCAK256 \t\t\ten tokenID\\r\\n    function ge\n      SWAP4 \t\t\ten tokenID\\r\\n    function get...\n      DUP6 \t\t\ten tokenID\\r\\n    function get...\n      AND \t\t\ten tokenID\\r\\n    function get...\n      DUP4 \t\t\ten tokenID\\r\\n    function get...\n      MSTORE \t\t\ten tokenID\\r\\n    function get...\n      SWAP3 \t\t\ten tokenID\\r\\n    function get...\n      SWAP1 \t\t\ten tokenID\\r\\n    function get...\n      MSTORE \t\t\ten tokenID\\r\\n    function get...\n      KECCAK256 \t\t\ten tokenID\\r\\n    function get...\n      SLOAD \t\t\ten tokenID\\r\\n    function get...\n      PUSH FF\t\t\ten tokenID\\r\\n    function get...\n      AND \t\t\ten tokenID\\r\\n    function get...\n      ISZERO \t\t\t       for (uint256 i = 0; i <...\n    tag 561\t\t\tth this tokenID\\r\\n        for...\n      JUMPDEST \t\t\tth this tokenID\\r\\n        for...\n      ISZERO \t\t\td with this tokenID\\r\\n       ...\n      PUSH [tag] 563\t\t\td with this tokenID\\r\\n       ...\n      JUMPI \t\t\td with this tokenID\\r\\n       ...\n      PUSH 40\t\t\t         if (bytes(spendingCon...\n      MLOAD \t\t\t         if (bytes(spendingCon...\n      PUSH 711BEC91\t\t\t\n      PUSH E1\t\t\t\n      SHL \t\t\t\n      DUP2 \t\t\t         if (bytes(spendingCon...\n      MSTORE \t\t\t         if (bytes(spendingCon...\n      PUSH 1\t\t\t\n      PUSH 1\t\t\t\n      PUSH A0\t\t\t\n      SHL \t\t\t\n      SUB \t\t\t\n      DUP1 \t\t\t\n      DUP4 \t\t\t\n      AND \t\t\t\n      PUSH 4\t\t\t         if (bytes(spendingCon...\n      DUP4 \t\t\t         if (bytes(spendingCon...\n      ADD \t\t\t         if (bytes(spendingCon...\n      MSTORE \t\t\t\n      DUP8 \t\t\t\n      AND \t\t\t\n      PUSH 24\t\t\t\n      DUP3 \t\t\t\n      ADD \t\t\t\n      MSTORE \t\t\t\n      PUSH 44\t\t\t\n      ADD \t\t\t\n      PUSH [tag] 248\t\t\t         if (bytes(spendingCon...\n      JUMP \t\t\t\n    tag 563\t\t\td with this tokenID\\r\\n       ...\n      JUMPDEST \t\t\td with this tokenID\\r\\n       ...\n      PUSH [tag] 306\t\t\tte).length > 0) {\\r\\n         ...\n      DUP7 \t\t\t\\n   \n      DUP7 \t\t\t  \n      DUP7 \t\t\t  \n      DUP7 \t\t\t   co\n      DUP7 \t\t\tt++;\n      PUSH [tag] 567\t\t\tte).length > 0) {\n      JUMP \t\t\tte).length > 0) {\\r\\n         ...\n    tag 477\t\t\t\n      JUMPDEST \t\t\t\n      PUSH 1\t\t\t\n      PUSH 1\t\t\t\n      PUSH A0\t\t\t\n      SHL \t\t\t\n      SUB \t\t\t\n      DUP4 \t\t\t\n      AND \t\t\t\n      PUSH [tag] 569\t\t\t\n      JUMPI \t\t\t\n      PUSH 40\t\t\t\n      MLOAD \t\t\t\n      PUSH 6A0D45\t\t\t\n      PUSH E2\t\t\t\n      SHL \t\t\t\n      DUP2 \t\t\t\n      MSTORE \t\t\t\n      PUSH 0\t\t\t\n      PUSH 4\t\t\t\n      DUP3 \t\t\t\n      ADD \t\t\t\n      MSTORE \t\t\ttions);\\r\\n    }\\r\\n\\r\\n    //...\n      PUSH 24\t\t\t return (filteredI\n      ADD \t\t\t return (filteredI\n      PUSH [tag] 248\t\t\t\n      JUMP \t\t\tidx] = ids[i];\\r\\n            ...\n    tag 569\t\t\t\n      JUMPDEST \t\t\t\n      PUSH 40\t\t\t\n      DUP1 \t\t\t\n      MLOAD \t\t\t\n      PUSH 1\t\t\t\n      DUP1 \t\t\t\n      DUP3 \t\t\t\n      MSTORE \t\t\t\n      PUSH 20\t\t\t\n      DUP3 \t\t\t\n      ADD \t\t\t\n      DUP6 \t\t\t\n      SWAP1 \t\t\t\n      MSTORE \t\t\t\n      DUP2 \t\t\t\n      DUP4 \t\t\t\n      ADD \t\t\t\n      SWAP1 \t\t\t\n      DUP2 \t\t\t\n      MSTORE \t\t\t\n      PUSH 60\t\t\t\n      DUP3 \t\t\t\n      ADD \t\t\t\n      DUP5 \t\t\t\n      SWAP1 \t\t\t\n      MSTORE \t\t\t\n      PUSH A0\t\t\t\n      DUP3 \t\t\t\n      ADD \t\t\t\n      SWAP1 \t\t\t\n      SWAP3 \t\t\t\n      MSTORE \t\t\t\n      PUSH 0\t\t\t\n      PUSH 80\t\t\t\n      DUP3 \t\t\t\n      ADD \t\t\t\n      DUP2 \t\t\t\n      DUP2 \t\t\t\n      MSTORE \t\t\t\n      SWAP2 \t\t\t\n      SWAP3 \t\t\t\n      SWAP2 \t\t\t\n      PUSH [tag] 465\t\t\t\n      SWAP2 \t\t\t\n      DUP8 \t\t\t\n      SWAP2 \t\t\t\n      DUP6 \t\t\t\n      SWAP1 \t\t\t\n      DUP6 \t\t\t\n      SWAP1 \t\t\t\n      PUSH [tag] 494\t\t\t\n      JUMP \t\t\t\n    tag 487\t\t\t        operatorStr: condition...\n      JUMPDEST \t\t\t        operatorStr: condition...\n      PUSH 60\t\t\t value: conditio\n      DUP2 \t\t\t;\\r\\n\n      PUSH 0\t\t\t;\\r\\n    }\\r\\n \n      ADD \t\t\t;\\r\\n    }\\r\\n \n      DUP1 \t\t\t     });\\r\\n    }\\r\\n \n      SLOAD \t\t\t     });\\r\\n    }\\r\\n \n      DUP1 \t\t\t     });\\r\\n    }\\r\\n \n      PUSH 20\t\t\t     });\\r\\n    }\\r\\n \n      MUL \t\t\t     });\\r\\n    }\\r\\n \n      PUSH 20\t\t\t     });\\r\\n    }\\r\\n \n      ADD \t\t\t     });\\r\\n    }\\r\\n \n      PUSH 40\t\t\t     });\\r\\n    }\\r\\n \n      MLOAD \t\t\t     });\\r\\n    }\\r\\n \n      SWAP1 \t\t\t     });\\r\\n    }\\r\\n \n      DUP2 \t\t\t     });\\r\\n    }\\r\\n \n      ADD \t\t\t     });\\r\\n    }\\r\\n \n      PUSH 40\t\t\t     });\\r\\n    }\\r\\n \n      MSTORE \t\t\t     });\\r\\n    }\\r\\n \n      DUP1 \t\t\t     });\\r\\n    }\\r\\n \n      SWAP3 \t\t\t     });\\r\\n    }\\r\\n \n      SWAP2 \t\t\t     });\\r\\n    }\\r\\n \n      SWAP1 \t\t\t     });\\r\\n    }\\r\\n \n      DUP2 \t\t\t     });\\r\\n    }\\r\\n \n      DUP2 \t\t\t     });\\r\\n    }\\r\\n \n      MSTORE \t\t\t     });\\r\\n    }\\r\\n \n      PUSH 20\t\t\t     });\\r\\n    }\\r\\n \n      ADD \t\t\t     });\\r\\n    }\\r\\n \n      DUP3 \t\t\t     });\\r\\n    }\\r\\n \n      DUP1 \t\t\t     });\\r\\n    }\\r\\n \n      SLOAD \t\t\t     });\\r\\n    }\\r\\n \n      DUP1 \t\t\t     });\\r\\n    }\\r\\n \n      ISZERO \t\t\t     });\\r\\n    }\\r\\n \n      PUSH [tag] 221\t\t\t     });\\r\\n    }\\r\\n \n      JUMPI \t\t\t     });\\r\\n    }\\r\\n \n      PUSH 20\t\t\t     });\\r\\n    }\\r\\n \n      MUL \t\t\t     });\\r\\n    }\\r\\n \n      DUP3 \t\t\t     });\\r\\n    }\\r\\n \n      ADD \t\t\t     });\\r\\n    }\\r\\n \n      SWAP2 \t\t\t     });\\r\\n    }\\r\\n \n      SWAP1 \t\t\t     });\\r\\n    }\\r\\n \n      PUSH 0\t\t\t     });\\r\\n    }\\r\\n \n      MSTORE \t\t\t     });\\r\\n    }\\r\\n \n      PUSH 20\t\t\t     });\\r\\n    }\\r\\n \n      PUSH 0\t\t\t     });\\r\\n    }\\r\\n \n      KECCAK256 \t\t\t     });\\r\\n    }\\r\\n \n      SWAP1 \t\t\t     });\\r\\n    }\\r\\n \n    tag 575\t\t\t     });\\r\\n    }\\r\\n \n      JUMPDEST \t\t\t     });\\r\\n    }\\r\\n \n      DUP2 \t\t\t     });\\r\\n    }\\r\\n \n      SLOAD \t\t\t     });\\r\\n    }\\r\\n \n      DUP2 \t\t\t     });\\r\\n    }\\r\\n \n      MSTORE \t\t\t     });\\r\\n    }\\r\\n \n      PUSH 20\t\t\t     });\\r\\n    }\\r\\n \n      ADD \t\t\t     });\\r\\n    }\\r\\n \n      SWAP1 \t\t\t     });\\r\\n    }\\r\\n \n      PUSH 1\t\t\t     });\\r\\n    }\\r\\n \n      ADD \t\t\t     });\\r\\n    }\\r\\n \n      SWAP1 \t\t\t     });\\r\\n    }\\r\\n \n      DUP1 \t\t\t     });\\r\\n    }\\r\\n \n      DUP4 \t\t\t     });\\r\\n    }\\r\\n \n      GT \t\t\t     });\\r\\n    }\\r\\n \n      PUSH [tag] 575\t\t\t     });\\r\\n    }\\r\\n \n      JUMPI \t\t\t     });\\r\\n    }\\r\\n \n      POP \t\t\t     });\\r\\n    }\\r\\n \n      POP \t\t\t     });\\r\\n    }\\r\\n \n      POP \t\t\t     });\\r\\n    }\\r\\n \n      POP \t\t\t     });\\r\\n    }\\r\\n \n      POP \t\t\t     });\\r\\n    }\\r\\n \n      SWAP1 \t\t\t     });\\r\\n    }\\r\\n \n      POP \t\t\t     });\\r\\n    }\\r\\n \n      SWAP2 \t\t\t        operatorStr: condition...\n      SWAP1 \t\t\t        operatorStr: condition...\n      POP \t\t\t        operatorStr: condition...\n      JUMP \t\t\t        operatorStr: condition...\n    tag 494\t\t\tIDs[i] = proofRequestIDs[proof...\n      JUMPDEST \t\t\tIDs[i] = proofRequestIDs[proof...\n      PUSH [tag] 578\t\t\t\\r\\n    uint256 public constan...\n      DUP6 \t\t\tnt25\n      DUP6 \t\t\tpu\n      DUP6 \t\t\tic \n      DUP6 \t\t\tnstant\n      PUSH [tag] 579\t\t\t\\r\\n    u\n      JUMP \t\t\t\\r\\n    uint256 public constan...\n    tag 578\t\t\t\\r\\n    uint256 public constan...\n      JUMPDEST \t\t\t\\r\\n    uint256 public constan...\n      PUSH 1\t\t\t\n      PUSH 1\t\t\t\n      PUSH A0\t\t\t\n      SHL \t\t\t\n      SUB \t\t\t\n      DUP5 \t\t\token = 2;\\r\\n\\r\\n   \n      AND \t\t\token = 2;\\r\\n\\r\\n   \n      ISZERO \t\t\token = 2;\\r\\n\\r\\n   \n      PUSH [tag] 465\t\t\tle_token = 2;\\r\\n\\r\\n    Unive...\n      JUMPI \t\t\tle_token = 2;\\r\\n\\r\\n    Unive...\n      DUP3 \t\t\terifier ve\n      MLOAD \t\t\terifier ve\n      CALLER \t\t\t{\\r\\n    add\n      SWAP1 \t\t\t{\\r\\n    add\n      PUSH 1\t\t\te\n      SUB \t\t\terifier verifie\n      PUSH [tag] 582\t\t\tsalVerifier verifier_, address...\n      JUMPI \t\t\tsalVerifier verifier_, address...\n      PUSH 20\t\t\t\n      DUP5 \t\t\t\n      DUP2 \t\t\t\n      ADD \t\t\t\n      MLOAD \t\t\t\n      SWAP1 \t\t\t\n      DUP5 \t\t\t\n      ADD \t\t\t\n      MLOAD \t\t\t\n      PUSH [tag] 585\t\t\t\\r\\n    // Custom error declar...\n      DUP4 \t\t\theck if \n      DUP10 \t\t\tken \n      DUP10 \t\t\t a\n      DUP6 \t\t\t\n      DUP6 \t\t\t\n      DUP10 \t\t\t whe\n      PUSH [tag] 586\t\t\t\\r\\n    // Custom error declar...\n      JUMP \t\t\t\\r\\n    // Custom error declar...\n    tag 585\t\t\t\\r\\n    // Custom error declar...\n      JUMPDEST \t\t\t\\r\\n    // Custom error declar...\n      POP \t\t\t, address initialOwner, string...\n      POP \t\t\t, address initialOwner, string...\n      PUSH [tag] 306\t\t\tsalVerifier verifier_, address...\n      JUMP \t\t\tsalVerifier verifier_, address...\n    tag 582\t\t\tsalVerifier verifier_, address...\n      JUMPDEST \t\t\tsalVerifier verifier_, address...\n      PUSH [tag] 306\t\t\taken(uint256 tokenID);\\r\\n\\r\\n...\n      DUP2 \t\t\ts with T\n      DUP8 \t\t\tenID\n      DUP8 \t\t\ttF\n      DUP8 \t\t\tnd \n      DUP8 \t\t\t the I\n      DUP8 \t\t\thasn\n      PUSH [tag] 589\t\t\taken(uint256 tokenID);\\r\\n\\r\\n...\n      JUMP \t\t\taken(uint256 tokenID);\\r\\n\\r\\n...\n    tag 500\t\t\t;\\r\\n\\r\\n    /// @notice Retur...\n      JUMPDEST \t\t\t;\\r\\n\\r\\n    /// @notice Retur...\n      PUSH 0\t\t\tnted\n      DUP2 \t\t\tkenID_proofRequest_ro\n      DUP2 \t\t\tkenID_proofRequest_ro\n      MSTORE \t\t\tkenID_proofRequest_ro\n      PUSH 1\t\t\tkenID_proofReq\n      DUP4 \t\t\tkenID_proofReq\n      ADD \t\t\tkenID_proofReq\n      PUSH 20\t\t\tkenID_proofRequest_ro\n      MSTORE \t\t\tkenID_proofRequest_ro\n      PUSH 40\t\t\tkenID_proofRequest_ro\n      DUP2 \t\t\tkenID_proofRequest_ro\n      KECCAK256 \t\t\tkenID_proofRequest_ro\n      SLOAD \t\t\tkenID_proofRequest_ro\n      PUSH [tag] 593\t\t\ton allTokenIDs() external view...\n      JUMPI \t\t\ton allTokenIDs() external view...\n      POP \t\t\t\n      DUP2 \t\t\tnt256[] memory) {\\r\\n    \n      SLOAD \t\t\tnt256[] memory) {\\r\\n    \n      PUSH 1\t\t\tnt256[] memory) {\\r\\n    \n      DUP2 \t\t\tnt256[] memory) {\\r\\n    \n      DUP2 \t\t\tnt256[] memory) {\\r\\n    \n      ADD \t\t\tnt256[] memory) {\\r\\n    \n      DUP5 \t\t\tnt256[] memory) {\\r\\n    \n      SSTORE \t\t\tnt256[] memory) {\\r\\n    \n      PUSH 0\t\t\tnt256[] mem\n      DUP5 \t\t\tnt256[] memory) {\\r\\n    \n      DUP2 \t\t\tnt256[] memory) {\\r\\n    \n      MSTORE \t\t\tnt256[] memory) {\\r\\n    \n      PUSH 20\t\t\tnt256[] memory) {\\r\\n    \n      DUP1 \t\t\tnt256[] memory) {\\r\\n    \n      DUP3 \t\t\tnt256[] memory) {\\r\\n    \n      KECCAK256 \t\t\tnt256[] memory) {\\r\\n    \n      SWAP1 \t\t\tnt256[] memory) {\\r\\n    \n      SWAP4 \t\t\tnt256[] memory) {\\r\\n    \n      ADD \t\t\tnt256[] memory) {\\r\\n    \n      DUP5 \t\t\tnt256[] memory) {\\r\\n    \n      SWAP1 \t\t\tnt256[] memory) {\\r\\n    \n      SSTORE \t\t\tnt256[] memory) {\\r\\n    \n      DUP5 \t\t\tg(uint256 => strin\n      SLOAD \t\t\tg(uint256 => strin\n      DUP5 \t\t\tored as uri \\r\\n    map\n      DUP3 \t\t\tored as uri \\r\\n    map\n      MSTORE \t\t\tored as uri \\r\\n    map\n      DUP3 \t\t\tored as uri \\r\\n\n      DUP7 \t\t\tored as uri \\r\\n\n      ADD \t\t\tored as uri \\r\\n\n      SWAP1 \t\t\tored as uri \\r\\n    map\n      SWAP4 \t\t\tored as uri \\r\\n    map\n      MSTORE \t\t\tored as uri \\r\\n    map\n      PUSH 40\t\t\tored as uri \\r\\n    map\n      SWAP1 \t\t\tored as uri \\r\\n    map\n      KECCAK256 \t\t\tored as uri \\r\\n    map\n      SWAP2 \t\t\tored as uri \\r\\n    mapping(ui...\n      SWAP1 \t\t\tored as uri \\r\\n    mapping(ui...\n      SWAP2 \t\t\tored as uri \\r\\n    mapping(ui...\n      SSTORE \t\t\tored as uri \\r\\n    mapping(ui...\n      PUSH [tag] 155\t\t\tnName;\\r\\n\\r\\n\\r\n      JUMP \t\t\tnName;\\r\\n\\r\\n\\r\n    tag 593\t\t\ton allTokenIDs() external view...\n      JUMPDEST \t\t\ton allTokenIDs() external view...\n      POP \t\t\t\n      PUSH 0\t\t\treque\n      PUSH [tag] 155\t\t\t proof_reque\n      JUMP \t\t\t proof_reque\n    tag 567\t\t\t 0, \"Name required\");\\r\\n     ...\n      JUMPDEST \t\t\t 0, \"Name required\");\\r\\n     ...\n      PUSH 1\t\t\t\n      PUSH 1\t\t\t\n      PUSH A0\t\t\t\n      SHL \t\t\t\n      SUB \t\t\t\n      DUP5 \t\t\tIDs.values();\\r\\n \n      AND \t\t\tIDs.values();\\r\\n \n      PUSH [tag] 597\t\t\tokenIDs.values();\\r\\n        f...\n      JUMPI \t\t\tokenIDs.values();\\r\\n        f...\n      PUSH 40\t\t\t 0; i < ids.length; i++) {\\r\\n...\n      MLOAD \t\t\t 0; i < ids.length; i++) {\\r\\n...\n      PUSH 2BFA23E7\t\t\t\n      PUSH E1\t\t\t\n      SHL \t\t\t\n      DUP2 \t\t\t 0; i < ids.length; i++) {\\r\\n...\n      MSTORE \t\t\t 0; i < ids.length; i++) {\\r\\n...\n      PUSH 0\t\t\t \n      PUSH 4\t\t\t 0; i < ids.length; i++) {\\r\\n...\n      DUP3 \t\t\t 0; i < ids.length; i++) {\\r\\n...\n      ADD \t\t\t 0; i < ids.length; i++) {\\r\\n...\n      MSTORE \t\t\ttions);\\r\\n    }\\r\\n\\r\\n    //...\n      PUSH 24\t\t\t return (filteredI\n      ADD \t\t\t return (filteredI\n      PUSH [tag] 248\t\t\t 0; i < ids.length; i++) {\\r\\n...\n      JUMP \t\t\tidx] = ids[i];\\r\\n            ...\n    tag 597\t\t\tokenIDs.values();\\r\\n        f...\n      JUMPDEST \t\t\tokenIDs.values();\\r\\n        f...\n      PUSH 1\t\t\t\n      PUSH 1\t\t\t\n      PUSH A0\t\t\t\n      SHL \t\t\t\n      SUB \t\t\t\n      DUP6 \t\t\ts(tokenName[ids[i]\n      AND \t\t\ts(tokenName[ids[i]\n      PUSH [tag] 599\t\t\tbytes(tokenName[ids[i]])) == k...\n      JUMPI \t\t\tbytes(tokenName[ids[i]])) == k...\n      PUSH 40\t\t\tname))) {\\r\\n                t...\n      MLOAD \t\t\tname))) {\\r\\n                t...\n      PUSH 6A0D45\t\t\t\n      PUSH E2\t\t\t\n      SHL \t\t\t\n      DUP2 \t\t\tname))) {\\r\\n                t...\n      MSTORE \t\t\tname))) {\\r\\n                t...\n      PUSH 0\t\t\tk\n      PUSH 4\t\t\tname))) {\\r\\n                t...\n      DUP3 \t\t\tname))) {\\r\\n                t...\n      ADD \t\t\tname))) {\\r\\n                t...\n      MSTORE \t\t\ttions);\\r\\n    }\\r\\n\\r\\n    //...\n      PUSH 24\t\t\t return (filteredI\n      ADD \t\t\t return (filteredI\n      PUSH [tag] 248\t\t\tname))) {\\r\\n                t...\n      JUMP \t\t\tidx] = ids[i];\\r\\n            ...\n    tag 599\t\t\tbytes(tokenName[ids[i]])) == k...\n      JUMPDEST \t\t\tbytes(tokenName[ids[i]])) == k...\n      PUSH 40\t\t\t\n      DUP1 \t\t\t\n      MLOAD \t\t\t\n      PUSH 1\t\t\t\n      DUP1 \t\t\t\n      DUP3 \t\t\t\n      MSTORE \t\t\t\n      PUSH 20\t\t\t\n      DUP3 \t\t\t\n      ADD \t\t\t\n      DUP7 \t\t\t\n      SWAP1 \t\t\t\n      MSTORE \t\t\t\n      DUP2 \t\t\t\n      DUP4 \t\t\t\n      ADD \t\t\t\n      SWAP1 \t\t\t\n      DUP2 \t\t\t\n      MSTORE \t\t\t\n      PUSH 60\t\t\t\n      DUP3 \t\t\t\n      ADD \t\t\t\n      DUP6 \t\t\t\n      SWAP1 \t\t\t\n      MSTORE \t\t\t\n      PUSH 80\t\t\t\n      DUP3 \t\t\t\n      ADD \t\t\t\n      SWAP1 \t\t\t\n      SWAP3 \t\t\t\n      MSTORE \t\t\t\n      SWAP1 \t\t\t\n      PUSH [tag] 602\t\t\tund) {\\r\\n            _mint(to...\n      DUP8 \t\t\to, t\n      DUP8 \t\t\ten\n      DUP5 \t\t\t\n      DUP5 \t\t\t\n      DUP8 \t\t\ta);\\r\n      PUSH [tag] 494\t\t\tund) {\\r\\n            _mint(\n      JUMP \t\t\tund) {\\r\\n            _mint(to...\n    tag 602\t\t\tund) {\\r\\n            _mint(to...\n      JUMPDEST \t\t\tund) {\\r\\n            _mint(to...\n      POP \t\t\tds = _allTokenIDs.values();\\r\\...\n      POP \t\t\tds = _allTokenIDs.values();\\r\\...\n      POP \t\t\t 0, \"Name required\");\\r\\n     ...\n      POP \t\t\t 0, \"Name required\");\\r\\n     ...\n      POP \t\t\t 0, \"Name required\");\\r\\n     ...\n      POP \t\t\t 0, \"Name required\");\\r\\n     ...\n      POP \t\t\t 0, \"Name required\");\\r\\n     ...\n      JUMP \t\t\t 0, \"Name required\");\\r\\n     ...\n    tag 579\t\t\ts(role)) == keccak256(bytes(\"s...\n      JUMPDEST \t\t\ts(role)) == keccak256(bytes(\"s...\n      DUP1 \t\t\tbe 'se\n      MLOAD \t\t\tbe 'sender' o\n      DUP3 \t\t\t   \n      MLOAD \t\t\t   \"Role m\n      EQ \t\t\t   \"Role must be 'sender' o\n      PUSH [tag] 604\t\t\t       \"Role must be 'sender' ...\n      JUMPI \t\t\t       \"Role must be 'sender' ...\n      DUP2 \t\t\tequest_rol\n      MLOAD \t\t\tequest_rol\n      DUP2 \t\t\ttokenID][requ\n      MLOAD \t\t\ttokenID][requ\n      PUSH 40\t\t\t);\\r\\n        tokenID_proofReq...\n      MLOAD \t\t\t);\\r\\n        tokenID_proofReq...\n      PUSH 5B059991\t\t\t\n      PUSH E0\t\t\t\n      SHL \t\t\t\n      DUP2 \t\t\t);\\r\\n        tokenID_proofReq...\n      MSTORE \t\t\t);\\r\\n        tokenID_proofReq...\n      PUSH 4\t\t\t);\\r\\n        tokenID_proofReq...\n      DUP2 \t\t\t);\\r\\n        tokenID_proofReq...\n      ADD \t\t\t);\\r\\n        tokenID_proofReq...\n      SWAP3 \t\t\t\n      SWAP1 \t\t\t\n      SWAP3 \t\t\t\n      MSTORE \t\t\t\n      PUSH 24\t\t\t\n      DUP3 \t\t\t\n      ADD \t\t\t\n      MSTORE \t\t\t\n      PUSH 44\t\t\t\n      ADD \t\t\t\n      PUSH [tag] 248\t\t\t);\\r\\n        tokenID_proofReq...\n      JUMP \t\t\t\n    tag 604\t\t\t       \"Role must be 'sender' ...\n      JUMPDEST \t\t\t       \"Role must be 'sender' ...\n      CALLER \t\t\t{\\r\\n    add\n      PUSH 0\t\t\t  proofRequestID\n    tag 607\t\t\t\\n    \\r\\n    function addProo...\n      JUMPDEST \t\t\t\\n    \\r\\n    function addProo...\n      DUP4 \t\t\troo\n      MLOAD \t\t\troofReques\n      DUP2 \t\t\ta\n      LT \t\t\taddProofReques\n      ISZERO \t\t\t\\n    \\r\\n    function addProo...\n      PUSH [tag] 608\t\t\t\\n    \\r\\n    function addProo...\n      JUMPI \t\t\t\\n    \\r\\n    function addProo...\n      PUSH 20\t\t\t\n      DUP2 \t\t\t\n      DUP2 \t\t\t\n      MUL \t\t\t\n      DUP6 \t\t\t\n      DUP2 \t\t\t\n      ADD \t\t\t\n      DUP3 \t\t\t\n      ADD \t\t\t\n      MLOAD \t\t\t\n      SWAP1 \t\t\t\n      DUP6 \t\t\t\n      ADD \t\t\t\n      SWAP1 \t\t\t\n      SWAP2 \t\t\t\n      ADD \t\t\t\n      MLOAD \t\t\t\n      PUSH 1\t\t\t\n      PUSH 1\t\t\t\n      PUSH A0\t\t\t\n      SHL \t\t\t\n      SUB \t\t\t\n      DUP9 \t\t\tdata data,\\r\\n      \n      AND \t\t\tdata data,\\r\\n      \n      ISZERO \t\t\tdata data,\\r\\n      \n      PUSH [tag] 612\t\t\tcalldata data,\\r\\n        uint...\n      JUMPI \t\t\tcalldata data,\\r\\n        uint...\n      PUSH 0\t\t\t        string call\n      DUP3 \t\t\ta role,\\r\\n    \n      DUP2 \t\t\ta role,\\r\\n    \n      MSTORE \t\t\ta role,\\r\\n    \n      PUSH 20\t\t\ta role,\\r\\n    \n      DUP2 \t\t\ta role,\\r\\n    \n      DUP2 \t\t\ta role,\\r\\n    \n      MSTORE \t\t\ta role,\\r\\n    \n      PUSH 40\t\t\ta role,\\r\\n    \n      DUP1 \t\t\ta role,\\r\\n    \n      DUP4 \t\t\ta role,\\r\\n    \n      KECCAK256 \t\t\ta role,\\r\\n    \n      PUSH 1\t\t\t\n      PUSH 1\t\t\t\n      PUSH A0\t\t\t\n      SHL \t\t\t\n      SUB \t\t\t\n      DUP13 \t\t\ta role,\\r\\n        Sp\n      AND \t\t\ta role,\\r\\n        Sp\n      DUP5 \t\t\ta role,\\r\\n        Sp\n      MSTORE \t\t\ta role,\\r\\n        Sp\n      SWAP1 \t\t\ta role,\\r\\n        Sp\n      SWAP2 \t\t\ta role,\\r\\n        Sp\n      MSTORE \t\t\ta role,\\r\\n        Sp\n      SWAP1 \t\t\ta role,\\r\\n        Sp\n      KECCAK256 \t\t\ta role,\\r\\n        Sp\n      SLOAD \t\t\ta role,\\r\\n        Sp\n      DUP2 \t\t\tta condition\\r\\n    )\n      DUP2 \t\t\tta condition\\r\\n    )\n      LT \t\t\tta condition\\r\\n    )\n      ISZERO \t\t\tlldata condition\\r\\n    ) publ...\n      PUSH [tag] 613\t\t\tlldata condition\\r\\n    ) publ...\n      JUMPI \t\t\tlldata condition\\r\\n    ) publ...\n      PUSH 40\t\t\t IZKPVerifier.ZKPRequest struc...\n      MLOAD \t\t\t IZKPVerifier.ZKPRequest struc...\n      PUSH 3DEE4C5\t\t\t\n      PUSH E0\t\t\t\n      SHL \t\t\t\n      DUP2 \t\t\t IZKPVerifier.ZKPRequest struc...\n      MSTORE \t\t\t IZKPVerifier.ZKPRequest struc...\n      PUSH 1\t\t\t\n      PUSH 1\t\t\t\n      PUSH A0\t\t\t\n      SHL \t\t\t\n      SUB \t\t\t\n      DUP11 \t\t\t\n      AND \t\t\t\n      PUSH 4\t\t\t IZKPVerifier.ZKPRequest struc...\n      DUP3 \t\t\t IZKPVerifier.ZKPRequest struc...\n      ADD \t\t\t IZKPVerifier.ZKPRequest struc...\n      MSTORE \t\t\t\n      PUSH 24\t\t\t\n      DUP2 \t\t\t\n      ADD \t\t\t\n      DUP3 \t\t\t\n      SWAP1 \t\t\t\n      MSTORE \t\t\t\n      PUSH 44\t\t\t\n      DUP2 \t\t\t\n      ADD \t\t\t\n      DUP4 \t\t\t\n      SWAP1 \t\t\t\n      MSTORE \t\t\t\n      PUSH 64\t\t\t\n      DUP2 \t\t\t\n      ADD \t\t\t\n      DUP5 \t\t\t\n      SWAP1 \t\t\t\n      MSTORE \t\t\t\n      PUSH 84\t\t\t\n      ADD \t\t\t\n      PUSH [tag] 248\t\t\t IZKPVerifier.ZKPRequest struc...\n      JUMP \t\t\t\n    tag 613\t\t\tlldata condition\\r\\n    ) publ...\n      JUMPDEST \t\t\tlldata condition\\r\\n    ) publ...\n      PUSH 0\t\t\tdata\\r\\n   \n      DUP4 \t\t\tdata\\r\\n       \n      DUP2 \t\t\tdata\\r\\n       \n      MSTORE \t\t\tdata\\r\\n       \n      PUSH 20\t\t\tdata\\r\\n       \n      DUP2 \t\t\tdata\\r\\n       \n      DUP2 \t\t\tdata\\r\\n       \n      MSTORE \t\t\tdata\\r\\n       \n      PUSH 40\t\t\tdata\\r\\n       \n      DUP1 \t\t\tdata\\r\\n       \n      DUP4 \t\t\tdata\\r\\n       \n      KECCAK256 \t\t\tdata\\r\\n       \n      PUSH 1\t\t\t\n      PUSH 1\t\t\t\n      PUSH A0\t\t\t\n      SHL \t\t\t\n      SUB \t\t\t\n      DUP14 \t\t\tdata\\r\\n        });\\r\\n\n      AND \t\t\tdata\\r\\n        });\\r\\n\n      DUP5 \t\t\tdata\\r\\n        });\\r\\n\n      MSTORE \t\t\tdata\\r\\n        });\\r\\n\n      SWAP1 \t\t\tdata\\r\\n        });\\r\\n\n      SWAP2 \t\t\tdata\\r\\n        });\\r\\n\n      MSTORE \t\t\tdata\\r\\n        });\\r\\n\n      SWAP1 \t\t\tdata\\r\\n        });\\r\\n\n      KECCAK256 \t\t\tdata\\r\\n        });\\r\\n\n      SWAP1 \t\t\t       verifier.set\n      DUP3 \t\t\t       verifier.set\n      SWAP1 \t\t\t       verifier.set\n      SUB \t\t\t       verifier.set\n      SWAP1 \t\t\tdata\\r\\n        });\\r\\n\\r\\n   ...\n      SSTORE \t\t\tdata\\r\\n        });\\r\\n\\r\\n   ...\n    tag 612\t\t\tcalldata data,\\r\\n        uint...\n      JUMPDEST \t\t\tcalldata data,\\r\\n        uint...\n      PUSH 1\t\t\t\n      PUSH 1\t\t\t\n      PUSH A0\t\t\t\n      SHL \t\t\t\n      SUB \t\t\t\n      DUP8 \t\t\ttAndRole(tokenID\n      AND \t\t\ttAndRole(tokenID\n      ISZERO \t\t\ttAndRole(tokenID\n      PUSH [tag] 616\t\t\tquestAndRole(tokenID, requestI...\n      JUMPI \t\t\tquestAndRole(tokenID, requestI...\n      PUSH 0\t\t\t\\n        \n      DUP3 \t\t\t\\n        // A\n      DUP2 \t\t\t\\n        // A\n      MSTORE \t\t\t\\n        // A\n      PUSH 20\t\t\t\\n        // A\n      DUP2 \t\t\t\\n        // A\n      DUP2 \t\t\t\\n        // A\n      MSTORE \t\t\t\\n        // A\n      PUSH 40\t\t\t\\n        // A\n      DUP1 \t\t\t\\n        // A\n      DUP4 \t\t\t\\n        // A\n      KECCAK256 \t\t\t\\n        // A\n      PUSH 1\t\t\t\n      PUSH 1\t\t\t\n      PUSH A0\t\t\t\n      SHL \t\t\t\n      SUB \t\t\t\n      DUP12 \t\t\t\\n        // Add t\n      AND \t\t\t\\n        // Add t\n      DUP5 \t\t\t\\n        // Add t\n      MSTORE \t\t\t\\n        // Add t\n      SWAP1 \t\t\t\\n        // Add t\n      SWAP2 \t\t\t\\n        // Add t\n      MSTORE \t\t\t\\n        // Add t\n      DUP2 \t\t\t\\n        // Add t\n      KECCAK256 \t\t\t\\n        // Add t\n      DUP1 \t\t\t\\n        // Add the spendi\n      SLOAD \t\t\t\\n        // Add the spendi\n      DUP4 \t\t\tpendi\n      SWAP3 \t\t\tpendi\n      SWAP1 \t\t\t\\n        \n      PUSH [tag] 617\t\t\t\\n        // Add the spendi\n      SWAP1 \t\t\t\\n        // Add the spendi\n      DUP5 \t\t\tpendi\n      SWAP1 \t\t\tpendi\n      PUSH [tag] 283\t\t\t\\n        // Add the spendi\n      JUMP \t\t\t\\n        // Add the spendi\n    tag 617\t\t\t\\n        // Add the spendi\n      JUMPDEST \t\t\t\\n        // Add the spendi\n      SWAP1 \t\t\t\\n        // Add the spendi\n      SWAP2 \t\t\t\\n        // Add the spendi\n      SSTORE \t\t\t\\n        // Add the spendi\n      POP \t\t\t\n      POP \t\t\t\n    tag 616\t\t\tquestAndRole(tokenID, requestI...\n      JUMPDEST \t\t\tquestAndRole(tokenID, requestI...\n      POP \t\t\tierAndPM(\\r\\n        uint64 re...\n      POP \t\t\tierAndPM(\\r\\n        uint64 re...\n      DUP1 \t\t\tVer\n      PUSH [tag] 618\t\t\tVer\n      SWAP1 \t\t\tVer\n      PUSH [tag] 169\t\t\tVer\n      JUMP \t\t\tVer\n    tag 618\t\t\tVer\n      JUMPDEST \t\t\tVer\n      SWAP1 \t\t\tVer\n      POP \t\t\tVer\n      PUSH [tag] 607\t\t\t\\n    \\r\\n    function addProo...\n      JUMP \t\t\t\\n    \\r\\n    function addProo...\n    tag 608\t\t\t\\n    \\r\\n    function addProo...\n      JUMPDEST \t\t\t\\n    \\r\\n    function addProo...\n      POP \t\t\t\\n    \\r\\n    function addProo...\n      DUP3 \t\t\ts[t\n      MLOAD \t\t\ts[tokenID]\n      PUSH 1\t\t\tu\n      SUB \t\t\ts[tokenID][requ\n      PUSH [tag] 619\t\t\ttions[tokenID][requestId] = Sp...\n      JUMPI \t\t\ttions[tokenID][requestId] = Sp...\n      PUSH 20\t\t\t\n      DUP4 \t\t\t\n      ADD \t\t\t\n      MLOAD \t\t\t\n      PUSH 0\t\t\tgCondition\n      SWAP1 \t\t\tgCondition\n      PUSH 20\t\t\t\n      DUP5 \t\t\t\n      ADD \t\t\t\n      MLOAD \t\t\t\n      SWAP1 \t\t\tgCondition({\\r\\n            at...\n      SWAP2 \t\t\tgCondition({\\r\\n            at...\n      POP \t\t\t\n      DUP6 \t\t\t  \n      PUSH 1\t\t\t\n      PUSH 1\t\t\t\n      PUSH A0\t\t\t\n      SHL \t\t\t\n      SUB \t\t\t\n      AND \t\t\t     value: condition.value\\r\\...\n      DUP8 \t\t\tue\\r\\n\n      PUSH 1\t\t\t\n      PUSH 1\t\t\t\n      PUSH A0\t\t\t\n      SHL \t\t\t\n      SUB \t\t\t\n      AND \t\t\t     value: condition.value\\r\\...\n      DUP5 \t\t\tdition.v\n      PUSH 1\t\t\t\n      PUSH 1\t\t\t\n      PUSH A0\t\t\t\n      SHL \t\t\t\n      SUB \t\t\t\n      AND \t\t\t     value: condition.value\\r\\...\n      PUSH C3D58168C5AE7397731D063D5BBF3D657854427343F4C083240F7AACAA2D0F62\t\t\t     value: condition.value\\r\\...\n      DUP6 \t\t\t  \n      DUP6 \t\t\t;\\r\\n  \n      PUSH 40\t\t\t     value: condition.value\\r\\...\n      MLOAD \t\t\t     value: condition.value\\r\\...\n      PUSH [tag] 622\t\t\t     value: condition.value\\r\\...\n      SWAP3 \t\t\t     value: condition.value\\r\\...\n      SWAP2 \t\t\t     value: condition.value\\r\\...\n      SWAP1 \t\t\t     value: condition.value\\r\\...\n      SWAP2 \t\t\t\n      DUP3 \t\t\t\n      MSTORE \t\t\t\n      PUSH 20\t\t\t\n      DUP3 \t\t\t\n      ADD \t\t\t\n      MSTORE \t\t\t\n      PUSH 40\t\t\t\n      ADD \t\t\t\n      SWAP1 \t\t\t\n      JUMP \t\t\t\n    tag 622\t\t\t     value: condition.value\\r\\...\n      JUMPDEST \t\t\t     value: condition.value\\r\\...\n      PUSH 40\t\t\t     value: condition.value\\r\\...\n      MLOAD \t\t\t     value: condition.value\\r\\...\n      DUP1 \t\t\t     value: condition.value\\r\\...\n      SWAP2 \t\t\t     value: condition.value\\r\\...\n      SUB \t\t\t     value: condition.value\\r\\...\n      SWAP1 \t\t\t     value: condition.value\\r\\...\n      LOG4 \t\t\t     value: condition.value\\r\\...\n      POP \t\t\ttId] = SpendingCondition({\\r\\n...\n      POP \t\t\ttId] = SpendingCondition({\\r\\n...\n      PUSH [tag] 465\t\t\ttions[tokenID][requestId] = Sp...\n      JUMP \t\t\ttions[tokenID][requestId] = Sp...\n    tag 619\t\t\ttions[tokenID][requestId] = Sp...\n      JUMPDEST \t\t\ttions[tokenID][requestId] = Sp...\n      DUP4 \t\t\t  \n      PUSH 1\t\t\t\n      PUSH 1\t\t\t\n      PUSH A0\t\t\t\n      SHL \t\t\t\n      SUB \t\t\t\n      AND \t\t\test and the address by ID.\\r\\n...\n      DUP6 \t\t\tD.\\r\\n\n      PUSH 1\t\t\t\n      PUSH 1\t\t\t\n      PUSH A0\t\t\t\n      SHL \t\t\t\n      SUB \t\t\t\n      AND \t\t\test and the address by ID.\\r\\n...\n      DUP3 \t\t\tdress by\n      PUSH 1\t\t\t\n      PUSH 1\t\t\t\n      PUSH A0\t\t\t\n      SHL \t\t\t\n      SUB \t\t\t\n      AND \t\t\test and the address by ID.\\r\\n...\n      PUSH 4A39DC06D4C0DBC64B70AF90FD698A233A518AA5D07E595D983B8C0526C8F7FB\t\t\test and the address by ID.\\r\\n...\n      DUP7 \t\t\t Th\n      DUP7 \t\t\tarray \n      PUSH 40\t\t\test and the address by ID.\\r\\n...\n      MLOAD \t\t\test and the address by ID.\\r\\n...\n      PUSH [tag] 624\t\t\test and the address by ID.\\r\\n...\n      SWAP3 \t\t\test and the address by ID.\\r\\n...\n      SWAP2 \t\t\test and the address by ID.\\r\\n...\n      SWAP1 \t\t\test and the address by ID.\\r\\n...\n      PUSH [tag] 625\t\t\test and the address by ID.\\r\\n...\n      JUMP \t\t\test and the address by ID.\\r\\n...\n    tag 624\t\t\test and the address by ID.\\r\\n...\n      JUMPDEST \t\t\test and the address by ID.\\r\\n...\n      PUSH 40\t\t\test and the address by ID.\\r\\n...\n      MLOAD \t\t\test and the address by ID.\\r\\n...\n      DUP1 \t\t\test and the address by ID.\\r\\n...\n      SWAP2 \t\t\test and the address by ID.\\r\\n...\n      SUB \t\t\test and the address by ID.\\r\\n...\n      SWAP1 \t\t\test and the address by ID.\\r\\n...\n      LOG4 \t\t\test and the address by ID.\\r\\n...\n      POP \t\t\t)),\\r\\n            \"Role must ...\n      POP \t\t\ts(role)) == keccak256(bytes(\"s...\n      POP \t\t\ts(role)) == keccak256(bytes(\"s...\n      POP \t\t\ts(role)) == keccak256(bytes(\"s...\n      POP \t\t\ts(role)) == keccak256(bytes(\"s...\n      JUMP \t\t\ts(role)) == keccak256(bytes(\"s...\n    tag 586\t\t\tess is an admin.\\r\\n    functi...\n      JUMPDEST \t\t\tess is an admin.\\r\\n    functi...\n      PUSH 1\t\t\t\n      PUSH 1\t\t\t\n      PUSH A0\t\t\t\n      SHL \t\t\t\n      SUB \t\t\t\n      DUP5 \t\t\turn true;\\r\\n   \n      AND \t\t\turn true;\\r\\n   \n      EXTCODESIZE \t\t\turn true;\\r\\n   \n      ISZERO \t\t\turn true;\\r\\n       \n      PUSH [tag] 306\t\t\t return true;\\r\\n            }...\n      JUMPI \t\t\t return true;\\r\\n            }...\n      PUSH 40\t\t\t       return false;\\r\\n    }\\...\n      MLOAD \t\t\t       return false;\\r\\n    }\\...\n      PUSH F23A6E61\t\t\t\n      PUSH E0\t\t\t\n      SHL \t\t\t\n      DUP2 \t\t\t       return false;\\r\\n    }\\...\n      MSTORE \t\t\t       return false;\\r\\n    }\\...\n      PUSH 1\t\t\t\n      PUSH 1\t\t\t\n      PUSH A0\t\t\t\n      SHL \t\t\t\n      SUB \t\t\t\n      DUP6 \t\t\t       return false;\\r\\n    }\\...\n      AND \t\t\t       return false;\\r\\n    }\\...\n      SWAP1 \t\t\t       return false;\\r\\n    }\\...\n      PUSH F23A6E61\t\t\t       return false;\\r\\n    }\\...\n      SWAP1 \t\t\t       return false;\\r\\n    }\\...\n      PUSH [tag] 628\t\t\t       return false;\\r\\n    }\\...\n      SWAP1 \t\t\t       return false;\\r\\n    }\\...\n      DUP10 \t\t\tunction \n      SWAP1 \t\t\tunction \n      DUP10 \t\t\t add\n      SWAP1 \t\t\t add\n      DUP9 \t\t\tn \n      SWAP1 \t\t\tn \n      DUP9 \t\t\tmin a\n      SWAP1 \t\t\tmin a\n      DUP9 \t\t\tress\n      SWAP1 \t\t\tress\n      PUSH 4\t\t\t       return false;\\r\\n    }\\...\n      ADD \t\t\t       return false;\\r\\n    }\\...\n      PUSH [tag] 629\t\t\t       return false;\\r\\n    }\\...\n      JUMP \t\t\t       return false;\\r\\n    }\\...\n    tag 628\t\t\t       return false;\\r\\n    }\\...\n      JUMPDEST \t\t\t       return false;\\r\\n    }\\...\n      PUSH 20\t\t\t       return false;\\r\\n    }\\...\n      PUSH 40\t\t\t       return false;\\r\\n    }\\...\n      MLOAD \t\t\t       return false;\\r\\n    }\\...\n      DUP1 \t\t\t       return false;\\r\\n    }\\...\n      DUP4 \t\t\t       return false;\\r\\n    }\\...\n      SUB \t\t\t       return false;\\r\\n    }\\...\n      DUP2 \t\t\t       return false;\\r\\n    }\\...\n      PUSH 0\t\t\t       return false;\\r\\n    }\\...\n      DUP8 \t\t\t       return false;\\r\\n    }\\...\n      GAS \t\t\t       return false;\\r\\n    }\\...\n      CALL \t\t\t       return false;\\r\\n    }\\...\n      SWAP3 \t\t\t       return false;\\r\\n    }\\...\n      POP \t\t\t       return false;\\r\\n    }\\...\n      POP \t\t\t       return false;\\r\\n    }\\...\n      POP \t\t\t       return false;\\r\\n    }\\...\n      DUP1 \t\t\t       return false;\\r\\n    }\\...\n      ISZERO \t\t\t       return false;\\r\\n    }\\...\n      PUSH [tag] 630\t\t\t       return false;\\r\\n    }\\...\n      JUMPI \t\t\t       return false;\\r\\n    }\\...\n      POP \t\t\t\n      PUSH 40\t\t\t       return false;\\r\\n    }\\...\n      DUP1 \t\t\t       return false;\\r\\n    }\\...\n      MLOAD \t\t\t       return false;\\r\\n    }\\...\n      PUSH 1F\t\t\t       return false;\\r\\n    }\\...\n      RETURNDATASIZE \t\t\t       return false;\\r\\n    }\\...\n      SWAP1 \t\t\t       return false;\\r\\n    }\\...\n      DUP2 \t\t\t       return false;\\r\\n    }\\...\n      ADD \t\t\t       return false;\\r\\n    }\\...\n      PUSH 1F\t\t\t\n      NOT \t\t\t\n      AND \t\t\t       return false;\\r\\n    }\\...\n      DUP3 \t\t\t       return false;\\r\\n    }\\...\n      ADD \t\t\t       return false;\\r\\n    }\\...\n      SWAP1 \t\t\t       return false;\\r\\n    }\\...\n      SWAP3 \t\t\t       return false;\\r\\n    }\\...\n      MSTORE \t\t\t       return false;\\r\\n    }\\...\n      PUSH [tag] 631\t\t\t       return false;\\r\\n    }\\...\n      SWAP2 \t\t\t       return false;\\r\\n    }\\...\n      DUP2 \t\t\t       return false;\\r\\n    }\\...\n      ADD \t\t\t       return false;\\r\\n    }\\...\n      SWAP1 \t\t\t       return false;\\r\\n    }\\...\n      PUSH [tag] 632\t\t\t       return false;\\r\\n    }\\...\n      JUMP \t\t\t       return false;\\r\\n    }\\...\n    tag 631\t\t\t       return false;\\r\\n    }\\...\n      JUMPDEST \t\t\t       return false;\\r\\n    }\\...\n      PUSH 1\t\t\t       return false;\\r\\n    }\\...\n    tag 630\t\t\t       return false;\\r\\n    }\\...\n      JUMPDEST \t\t\t       return false;\\r\\n    }\\...\n      PUSH [tag] 633\t\t\t}\\r\\n        return false;\\r\\n...\n      JUMPI \t\t\t}\\r\\n        return false;\\r\\n...\n      RETURNDATASIZE \t\t\t}\\r\\n        return false;\\r\\n...\n      DUP1 \t\t\t}\\r\\n        return false;\\r\\n...\n      DUP1 \t\t\t}\\r\\n        return false;\\r\\n...\n      ISZERO \t\t\t}\\r\\n        return false;\\r\\n...\n      PUSH [tag] 638\t\t\t}\\r\\n        return false;\\r\\n...\n      JUMPI \t\t\t}\\r\\n        return false;\\r\\n...\n      PUSH 40\t\t\t}\\r\\n        return false;\\r\\n...\n      MLOAD \t\t\t}\\r\\n        return false;\\r\\n...\n      SWAP2 \t\t\t}\\r\\n        return false;\\r\\n...\n      POP \t\t\t}\\r\\n        return false;\\r\\n...\n      PUSH 1F\t\t\t}\\r\\n        return false;\\r\\n...\n      NOT \t\t\t}\\r\\n        return false;\\r\\n...\n      PUSH 3F\t\t\t}\\r\\n        return false;\\r\\n...\n      RETURNDATASIZE \t\t\t}\\r\\n        return false;\\r\\n...\n      ADD \t\t\t}\\r\\n        return false;\\r\\n...\n      AND \t\t\t}\\r\\n        return false;\\r\\n...\n      DUP3 \t\t\t}\\r\\n        return false;\\r\\n...\n      ADD \t\t\t}\\r\\n        return false;\\r\\n...\n      PUSH 40\t\t\t}\\r\\n        return false;\\r\\n...\n      MSTORE \t\t\t}\\r\\n        return false;\\r\\n...\n      RETURNDATASIZE \t\t\t}\\r\\n        return false;\\r\\n...\n      DUP3 \t\t\t}\\r\\n        return false;\\r\\n...\n      MSTORE \t\t\t}\\r\\n        return false;\\r\\n...\n      RETURNDATASIZE \t\t\t}\\r\\n        return false;\\r\\n...\n      PUSH 0\t\t\t}\\r\\n        return false;\\r\\n...\n      PUSH 20\t\t\t}\\r\\n        return false;\\r\\n...\n      DUP5 \t\t\t}\\r\\n        return false;\\r\\n...\n      ADD \t\t\t}\\r\\n        return false;\\r\\n...\n      RETURNDATACOPY \t\t\t}\\r\\n        return false;\\r\\n...\n      PUSH [tag] 637\t\t\t}\\r\\n        return false;\\r\\n...\n      JUMP \t\t\t}\\r\\n        return false;\\r\\n...\n    tag 638\t\t\t}\\r\\n        return false;\\r\\n...\n      JUMPDEST \t\t\t}\\r\\n        return false;\\r\\n...\n      PUSH 60\t\t\t}\\r\\n        return false;\\r\\n...\n      SWAP2 \t\t\t}\\r\\n        return false;\\r\\n...\n      POP \t\t\t}\\r\\n        return false;\\r\\n...\n    tag 637\t\t\t}\\r\\n        return false;\\r\\n...\n      JUMPDEST \t\t\t}\\r\\n        return false;\\r\\n...\n      POP \t\t\t}\\r\\n        return false;\\r\\n...\n      DUP1 \t\t\tthe ow\n      MLOAD \t\t\tthe owner can\n      PUSH 0\t\t\to\n      SUB \t\t\tthe owner can remo\n      PUSH [tag] 639\t\t\tnly the owner can remove.\\r\\n ...\n      JUMPI \t\t\tnly the owner can remove.\\r\\n ...\n      PUSH 40\t\t\tmins.length;\\r\\n        for (u...\n      MLOAD \t\t\tmins.length;\\r\\n        for (u...\n      PUSH 2BFA23E7\t\t\t\n      PUSH E1\t\t\t\n      SHL \t\t\t\n      DUP2 \t\t\tmins.length;\\r\\n        for (u...\n      MSTORE \t\t\tmins.length;\\r\\n        for (u...\n      PUSH 1\t\t\t\n      PUSH 1\t\t\t\n      PUSH A0\t\t\t\n      SHL \t\t\t\n      SUB \t\t\t\n      DUP7 \t\t\t    // Add a new proof request...\n      AND \t\t\t    // Add a new proof request...\n      PUSH 4\t\t\tmins.length;\\r\\n        for (u...\n      DUP3 \t\t\tmins.length;\\r\\n        for (u...\n      ADD \t\t\tmins.length;\\r\\n        for (u...\n      MSTORE \t\t\ttions);\\r\\n    }\\r\\n\\r\\n    //...\n      PUSH 24\t\t\t return (filteredI\n      ADD \t\t\t return (filteredI\n      PUSH [tag] 248\t\t\tmins.length;\\r\\n        for (u...\n      JUMP \t\t\tidx] = ids[i];\\r\\n            ...\n    tag 639\t\t\tnly the owner can remove.\\r\\n ...\n      JUMPDEST \t\t\tnly the owner can remove.\\r\\n ...\n      DUP1 \t\t\t);\\r\\n  \n      MLOAD \t\t\ts.pop();\\r\\n   \n      DUP2 \t\t\t    ad\n      PUSH 20\t\t\t  \n      ADD \t\t\t            adm\n      REVERT \t\t\t;\\r\\n                admins.po...\n    tag 633\t\t\t}\\r\\n        return false;\\r\\n...\n      JUMPDEST \t\t\t}\\r\\n        return false;\\r\\n...\n      PUSH 1\t\t\t\n      PUSH 1\t\t\t\n      PUSH E0\t\t\t\n      SHL \t\t\t\n      SUB \t\t\t\n      NOT \t\t\t\n      DUP2 \t\t\tddress _admin) public onlyOwne...\n      AND \t\t\tddress _admin) public onlyOwne...\n      PUSH F23A6E61\t\t\t\n      PUSH E0\t\t\t\n      SHL \t\t\t\n      EQ \t\t\tddress _admin) public onlyOwne...\n      PUSH [tag] 602\t\t\tin(address _admin) public only...\n      JUMPI \t\t\tin(address _admin) public only...\n      PUSH 40\t\t\tn), \"Address is already an adm...\n      MLOAD \t\t\tn), \"Address is already an adm...\n      PUSH 2BFA23E7\t\t\t\n      PUSH E1\t\t\t\n      SHL \t\t\t\n      DUP2 \t\t\tn), \"Address is already an adm...\n      MSTORE \t\t\tn), \"Address is already an adm...\n      PUSH 1\t\t\t\n      PUSH 1\t\t\t\n      PUSH A0\t\t\t\n      SHL \t\t\t\n      SUB \t\t\t\n      DUP7 \t\t\t    // Add a new proof request...\n      AND \t\t\t    // Add a new proof request...\n      PUSH 4\t\t\tn), \"Address is already an adm...\n      DUP3 \t\t\tn), \"Address is already an adm...\n      ADD \t\t\tn), \"Address is already an adm...\n      MSTORE \t\t\ttions);\\r\\n    }\\r\\n\\r\\n    //...\n      PUSH 24\t\t\t return (filteredI\n      ADD \t\t\t return (filteredI\n      PUSH [tag] 248\t\t\tn), \"Address is already an adm...\n      JUMP \t\t\tidx] = ids[i];\\r\\n            ...\n    tag 589\t\t\t\\n\\r\\n    // Mapping from toke...\n      JUMPDEST \t\t\t\\n\\r\\n    // Mapping from toke...\n      PUSH 1\t\t\t\n      PUSH 1\t\t\t\n      PUSH A0\t\t\t\n      SHL \t\t\t\n      SUB \t\t\t\n      DUP5 \t\t\tle (a string '\n      AND \t\t\tle (a string '\n      EXTCODESIZE \t\t\tle (a string '\n      ISZERO \t\t\tle (a string 'send\n      PUSH [tag] 306\t\t\ts role (a string 'sender' or '...\n      JUMPI \t\t\ts role (a string 'sender' or '...\n      PUSH 40\t\t\t\\n    // tokenID → (proofReque...\n      MLOAD \t\t\t\\n    // tokenID → (proofReque...\n      PUSH BC197C81\t\t\t\n      PUSH E0\t\t\t\n      SHL \t\t\t\n      DUP2 \t\t\t\\n    // tokenID → (proofReque...\n      MSTORE \t\t\t\\n    // tokenID → (proofReque...\n      PUSH 1\t\t\t\n      PUSH 1\t\t\t\n      PUSH A0\t\t\t\n      SHL \t\t\t\n      SUB \t\t\t\n      DUP6 \t\t\t\\n    // tokenID → (proofReque...\n      AND \t\t\t\\n    // tokenID → (proofReque...\n      SWAP1 \t\t\t\\n    // tokenID → (proofReque...\n      PUSH BC197C81\t\t\t\\n    // tokenID → (proofReque...\n      SWAP1 \t\t\t\\n    // tokenID → (proofReque...\n      PUSH [tag] 647\t\t\t\\n    // tokenID → (proofReque...\n      SWAP1 \t\t\t\\n    // tokenID → (proofReque...\n      DUP10 \t\t\t or 'rec\n      SWAP1 \t\t\t or 'rec\n      DUP10 \t\t\tver'\n      SWAP1 \t\t\tver'\n      DUP9 \t\t\t\\n  \n      SWAP1 \t\t\t\\n  \n      DUP9 \t\t\tmappin\n      SWAP1 \t\t\tmappin\n      DUP9 \t\t\tuint\n      SWAP1 \t\t\tuint\n      PUSH 4\t\t\t\\n    // tokenID → (proofReque...\n      ADD \t\t\t\\n    // tokenID → (proofReque...\n      PUSH [tag] 648\t\t\t\\n    // tokenID → (proofReque...\n      JUMP \t\t\t\\n    // tokenID → (proofReque...\n    tag 647\t\t\t\\n    // tokenID → (proofReque...\n      JUMPDEST \t\t\t\\n    // tokenID → (proofReque...\n      PUSH 20\t\t\t\\n    // tokenID → (proofReque...\n      PUSH 40\t\t\t\\n    // tokenID → (proofReque...\n      MLOAD \t\t\t\\n    // tokenID → (proofReque...\n      DUP1 \t\t\t\\n    // tokenID → (proofReque...\n      DUP4 \t\t\t\\n    // tokenID → (proofReque...\n      SUB \t\t\t\\n    // tokenID → (proofReque...\n      DUP2 \t\t\t\\n    // tokenID → (proofReque...\n      PUSH 0\t\t\t\\n    // tokenID → (proofReque...\n      DUP8 \t\t\t\\n    // tokenID → (proofReque...\n      GAS \t\t\t\\n    // tokenID → (proofReque...\n      CALL \t\t\t\\n    // tokenID → (proofReque...\n      SWAP3 \t\t\t\\n    // tokenID → (proofReque...\n      POP \t\t\t\\n    // tokenID → (proofReque...\n      POP \t\t\t\\n    // tokenID → (proofReque...\n      POP \t\t\t\\n    // tokenID → (proofReque...\n      DUP1 \t\t\t\\n    // tokenID → (proofReque...\n      ISZERO \t\t\t\\n    // tokenID → (proofReque...\n      PUSH [tag] 649\t\t\t\\n    // tokenID → (proofReque...\n      JUMPI \t\t\t\\n    // tokenID → (proofReque...\n      POP \t\t\t\n      PUSH 40\t\t\t\\n    // tokenID → (proofReque...\n      DUP1 \t\t\t\\n    // tokenID → (proofReque...\n      MLOAD \t\t\t\\n    // tokenID → (proofReque...\n      PUSH 1F\t\t\t\\n    // tokenID → (proofReque...\n      RETURNDATASIZE \t\t\t\\n    // tokenID → (proofReque...\n      SWAP1 \t\t\t\\n    // tokenID → (proofReque...\n      DUP2 \t\t\t\\n    // tokenID → (proofReque...\n      ADD \t\t\t\\n    // tokenID → (proofReque...\n      PUSH 1F\t\t\t\n      NOT \t\t\t\n      AND \t\t\t\\n    // tokenID → (proofReque...\n      DUP3 \t\t\t\\n    // tokenID → (proofReque...\n      ADD \t\t\t\\n    // tokenID → (proofReque...\n      SWAP1 \t\t\t\\n    // tokenID → (proofReque...\n      SWAP3 \t\t\t\\n    // tokenID → (proofReque...\n      MSTORE \t\t\t\\n    // tokenID → (proofReque...\n      PUSH [tag] 650\t\t\t\\n    // tokenID → (proofReque...\n      SWAP2 \t\t\t\\n    // tokenID → (proofReque...\n      DUP2 \t\t\t\\n    // tokenID → (proofReque...\n      ADD \t\t\t\\n    // tokenID → (proofReque...\n      SWAP1 \t\t\t\\n    // tokenID → (proofReque...\n      PUSH [tag] 632\t\t\t\\n    // tokenID → (proofReque...\n      JUMP \t\t\t\\n    // tokenID → (proofReque...\n    tag 650\t\t\t\\n    // tokenID → (proofReque...\n      JUMPDEST \t\t\t\\n    // tokenID → (proofReque...\n      PUSH 1\t\t\t\\n    // tokenID → (proofReque...\n    tag 649\t\t\t\\n    // tokenID → (proofReque...\n      JUMPDEST \t\t\t\\n    // tokenID → (proofReque...\n      PUSH [tag] 651\t\t\t').\\r\\n    // tokenID → (proof...\n      JUMPI \t\t\t').\\r\\n    // tokenID → (proof...\n      RETURNDATASIZE \t\t\t').\\r\\n    // tokenID → (proof...\n      DUP1 \t\t\t').\\r\\n    // tokenID → (proof...\n      DUP1 \t\t\t').\\r\\n    // tokenID → (proof...\n      ISZERO \t\t\t').\\r\\n    // tokenID → (proof...\n      PUSH [tag] 638\t\t\t').\\r\\n    // tokenID → (proof...\n      JUMPI \t\t\t').\\r\\n    // tokenID → (proof...\n      PUSH 40\t\t\t').\\r\\n    // tokenID → (proof...\n      MLOAD \t\t\t').\\r\\n    // tokenID → (proof...\n      SWAP2 \t\t\t').\\r\\n    // tokenID → (proof...\n      POP \t\t\t').\\r\\n    // tokenID → (proof...\n      PUSH 1F\t\t\t').\\r\\n    // tokenID → (proof...\n      NOT \t\t\t').\\r\\n    // tokenID → (proof...\n      PUSH 3F\t\t\t').\\r\\n    // tokenID → (proof...\n      RETURNDATASIZE \t\t\t').\\r\\n    // tokenID → (proof...\n      ADD \t\t\t').\\r\\n    // tokenID → (proof...\n      AND \t\t\t').\\r\\n    // tokenID → (proof...\n      DUP3 \t\t\t').\\r\\n    // tokenID → (proof...\n      ADD \t\t\t').\\r\\n    // tokenID → (proof...\n      PUSH 40\t\t\t').\\r\\n    // tokenID → (proof...\n      MSTORE \t\t\t').\\r\\n    // tokenID → (proof...\n      RETURNDATASIZE \t\t\t').\\r\\n    // tokenID → (proof...\n      DUP3 \t\t\t').\\r\\n    // tokenID → (proof...\n      MSTORE \t\t\t').\\r\\n    // tokenID → (proof...\n      RETURNDATASIZE \t\t\t').\\r\\n    // tokenID → (proof...\n      PUSH 0\t\t\t').\\r\\n    // tokenID → (proof...\n      PUSH 20\t\t\t').\\r\\n    // tokenID → (proof...\n      DUP5 \t\t\t').\\r\\n    // tokenID → (proof...\n      ADD \t\t\t').\\r\\n    // tokenID → (proof...\n      RETURNDATACOPY \t\t\t').\\r\\n    // tokenID → (proof...\n      PUSH [tag] 637\t\t\t').\\r\\n    // tokenID → (proof...\n      JUMP \t\t\t').\\r\\n    // tokenID → (proof...\n    tag 651\t\t\t').\\r\\n    // tokenID → (proof...\n      JUMPDEST \t\t\t').\\r\\n    // tokenID → (proof...\n      PUSH 1\t\t\t\n      PUSH 1\t\t\t\n      PUSH E0\t\t\t\n      SHL \t\t\t\n      SUB \t\t\t\n      NOT \t\t\t\n      DUP2 \t\t\truct to represent a spending c...\n      AND \t\t\truct to represent a spending c...\n      PUSH BC197C81\t\t\t\n      PUSH E0\t\t\t\n      SHL \t\t\t\n      EQ \t\t\truct to represent a spending c...\n      PUSH [tag] 602\t\t\t/ Struct to represent a spendi...\n      JUMPI \t\t\t/ Struct to represent a spendi...\n      PUSH 40\t\t\t      string value;\\r\\n    }\\r...\n      MLOAD \t\t\t      string value;\\r\\n    }\\r...\n      PUSH 2BFA23E7\t\t\t\n      PUSH E1\t\t\t\n      SHL \t\t\t\n      DUP2 \t\t\t      string value;\\r\\n    }\\r...\n      MSTORE \t\t\t      string value;\\r\\n    }\\r...\n      PUSH 1\t\t\t\n      PUSH 1\t\t\t\n      PUSH A0\t\t\t\n      SHL \t\t\t\n      SUB \t\t\t\n      DUP7 \t\t\t    // Add a new proof request...\n      AND \t\t\t    // Add a new proof request...\n      PUSH 4\t\t\t      string value;\\r\\n    }\\r...\n      DUP3 \t\t\t      string value;\\r\\n    }\\r...\n      ADD \t\t\t      string value;\\r\\n    }\\r...\n      MSTORE \t\t\ttions);\\r\\n    }\\r\\n\\r\\n    //...\n      PUSH 24\t\t\t return (filteredI\n      ADD \t\t\t return (filteredI\n      PUSH [tag] 248\t\t\t      string value;\\r\\n    }\\r...\n      JUMP \t\t\tidx] = ids[i];\\r\\n            ...\n    tag 362\t\t\t\n      JUMPDEST \t\t\t\n      POP \t\t\t\n      DUP1 \t\t\t\n      SLOAD \t\t\t\n      PUSH [tag] 663\t\t\t\n      SWAP1 \t\t\t\n      PUSH [tag] 166\t\t\t\n      JUMP \t\t\t\n    tag 663\t\t\t\n      JUMPDEST \t\t\t\n      PUSH 0\t\t\t\n      DUP3 \t\t\t\n      SSTORE \t\t\t\n      DUP1 \t\t\t\n      PUSH 1F\t\t\t\n      LT \t\t\t\n      PUSH [tag] 665\t\t\t\n      JUMPI \t\t\t\n      POP \t\t\t\n      POP \t\t\t\n      JUMP \t\t\t\n    tag 665\t\t\t\n      JUMPDEST \t\t\t\n      PUSH 1F\t\t\t\n      ADD \t\t\t\n      PUSH 20\t\t\t\n      SWAP1 \t\t\t\n      DIV \t\t\t\n      SWAP1 \t\t\t\n      PUSH 0\t\t\t\n      MSTORE \t\t\t\n      PUSH 20\t\t\t\n      PUSH 0\t\t\t\n      KECCAK256 \t\t\t\n      SWAP1 \t\t\t\n      DUP2 \t\t\t\n      ADD \t\t\t\n      SWAP1 \t\t\t\n      PUSH [tag] 227\t\t\t\n      SWAP2 \t\t\t\n      SWAP1 \t\t\t\n    tag 668\t\t\t\n      JUMPDEST \t\t\t\n      DUP1 \t\t\t\n      DUP3 \t\t\t\n      GT \t\t\t\n      ISZERO \t\t\t\n      PUSH [tag] 669\t\t\t\n      JUMPI \t\t\t\n      PUSH 0\t\t\t\n      DUP2 \t\t\t\n      SSTORE \t\t\t\n      PUSH 1\t\t\t\n      ADD \t\t\t\n      PUSH [tag] 668\t\t\t\n      JUMP \t\t\t\n    tag 669\t\t\t\n      JUMPDEST \t\t\t\n      POP \t\t\t\n      SWAP1 \t\t\t\n      JUMP \t\t\t\n    tag 670\t\t\te-IDentifier: MIT\\r\\npragma so...\n      JUMPDEST \t\t\te-IDentifier: MIT\\r\\npragma so...\n      PUSH 1\t\t\t\n      PUSH 1\t\t\t\n      PUSH A0\t\t\t\n      SHL \t\t\t\n      SUB \t\t\t\n      DUP2 \t\t\t/contracts/access/Ownable.sol\"...\n      AND \t\t\t/contracts/access/Ownable.sol\"...\n      DUP2 \t\t\tenzeppelin/contracts/access/Ow...\n      EQ \t\t\tenzeppelin/contracts/access/Ow...\n      PUSH [tag] 227\t\t\tmport \"@openzeppelin/contracts...\n      JUMPI \t\t\tmport \"@openzeppelin/contracts...\n      PUSH 0\t\t\t5\n      DUP1 \t\t\tC\n      REVERT \t\t\tort {ERC1155\n    tag 40\t\t\tzeppelin/contracts/token/ERC11...\n      JUMPDEST \t\t\tzeppelin/contracts/token/ERC11...\n      PUSH 0\t\t\teUtils\n      DUP1 \t\t\tfrom '\n      PUSH 40\t\t\tim\n      DUP4 \t\t\ttils.sol'\n      DUP6 \t\t\ttiveTyp\n      SUB \t\t\trimitiveTypeUtils.sol';\n      SLT \t\t\tib/PrimitiveTypeUtils.sol';\\r\\...\n      ISZERO \t\t\ts/lib/PrimitiveTypeUtils.sol';...\n      PUSH [tag] 694\t\t\ts/lib/PrimitiveTypeUtils.sol';...\n      JUMPI \t\t\ts/lib/PrimitiveTypeUtils.sol';...\n      PUSH 0\t\t\tV\n      DUP1 \t\t\tu\n      REVERT \t\t\t {ICircuitVa\n    tag 694\t\t\ts/lib/PrimitiveTypeUtils.sol';...\n      JUMPDEST \t\t\ts/lib/PrimitiveTypeUtils.sol';...\n      DUP3 \t\t\tfaces/ICi\n      CALLDATALOAD \t\t\tntracts/interfaces/ICir\n      PUSH [tag] 695\t\t\tator.sol';\\r\\nimport {Embedded...\n      DUP2 \t\t\tdedZK\n      PUSH [tag] 670\t\t\tator.sol';\\r\\nimport {Embedded...\n      JUMP \t\t\tator.sol';\\r\\nimport {Embedded...\n    tag 695\t\t\tator.sol';\\r\\nimport {Embedded...\n      JUMPDEST \t\t\tator.sol';\\r\\nimport {Embedded...\n      SWAP5 \t\t\ten3/c\n      PUSH 20\t\t\tmp\n      SWAP4 \t\t\trifier.sol';\\r\\nimpo\n      SWAP1 \t\t\trifier.sol';\\r\\nimpo\n      SWAP4 \t\t\trifier.sol';\\r\\nimpo\n      ADD \t\t\trifier.sol';\\r\\nimpo\n      CALLDATALOAD \t\t\tEmbeddedZKPVerifier.sol';\\r\\ni...\n      SWAP4 \t\t\tEmbeddedZKPVerifier.sol';\\r\\ni...\n      POP \t\t\t\n      POP \t\t\t\n      POP \t\t\t\n      JUMP \t\t\tzeppelin/contracts/token/ERC11...\n    tag 46\t\t\t/interfaces/IZKPVerifier.sol';...\n      JUMPDEST \t\t\t/interfaces/IZKPVerifier.sol';...\n      PUSH 0\t\t\tier is\n      PUSH 20\t\t\tns\n      DUP3 \t\t\tprivate a\n      DUP5 \t\t\tddress[\n      SUB \t\t\t   address[] private ad\n      SLT \t\t\t{\\r\\n    address[] private adm...\n      ISZERO \t\t\tle {\\r\\n    address[] private ...\n      PUSH [tag] 698\t\t\tle {\\r\\n    address[] private ...\n      JUMPI \t\t\tle {\\r\\n    address[] private ...\n      PUSH 0\t\t\tt\n      DUP1 \t\t\t \n      REVERT \t\t\t\\n    // Gett\n    tag 698\t\t\tle {\\r\\n    address[] private ...\n      JUMPDEST \t\t\tle {\\r\\n    address[] private ...\n      POP \t\t\t\n      CALLDATALOAD \t\t\tdmins array, only calla\n      SWAP2 \t\t\tdmins array, only calla\n      SWAP1 \t\t\t/interfaces/IZKPVerifier.sol';...\n      POP \t\t\t\n      JUMP \t\t\t/interfaces/IZKPVerifier.sol';...\n    tag 671\t\t\towner.\\r\\n    function getAdmi...\n      JUMPDEST \t\t\towner.\\r\\n    function getAdmi...\n      PUSH 0\t\t\t \n    tag 700\t\t\tturn admins;\\r\\n    }\\r\\n\\r\\n ...\n      JUMPDEST \t\t\tturn admins;\\r\\n    }\\r\\n\\r\\n ...\n      DUP4 \t\t\t    }\\r\n      DUP2 \t\t\t;\n      LT \t\t\tins;\\r\\n    }\\r\\n\n      ISZERO \t\t\tturn admins;\\r\\n    }\\r\\n\\r\\n ...\n      PUSH [tag] 702\t\t\tturn admins;\\r\\n    }\\r\\n\\r\\n ...\n      JUMPI \t\t\tturn admins;\\r\\n    }\\r\\n\\r\\n ...\n      DUP2 \t\t\t\\r\\n    funct\n      DUP2 \t\t\t\\r\\n    funct\n      ADD \t\t\t\\r\\n    funct\n      MLOAD \t\t\tadmin.\\r\\n    functi\n      DUP4 \t\t\tddress is a\n      DUP3 \t\t\tddress is a\n      ADD \t\t\tddress is a\n      MSTORE \t\t\tif an address is an admin.\\r\\n...\n      PUSH 20\t\t\tal\n      ADD \t\t\t Internal \n      PUSH [tag] 700\t\t\tturn admins;\\r\\n    }\\r\\n\\r\\n ...\n      JUMP \t\t\tturn admins;\\r\\n    }\\r\\n\\r\\n ...\n    tag 702\t\t\tturn admins;\\r\\n    }\\r\\n\\r\\n ...\n      JUMPDEST \t\t\tturn admins;\\r\\n    }\\r\\n\\r\\n ...\n      POP \t\t\t\n      POP \t\t\t\n      PUSH 0\t\t\tu\n      SWAP2 \t\t\t internal view r\n      ADD \t\t\t internal view r\n      MSTORE \t\t\t_admin) internal view retur\n      JUMP \t\t\towner.\\r\\n    function getAdmi...\n    tag 672\t\t\t\\r\\n        for (uint i = 0; i...\n      JUMPDEST \t\t\t\\r\\n        for (uint i = 0; i...\n      PUSH 0\t\t\tth;\n      DUP2 \t\t\t== _a\n      MLOAD \t\t\tns[i] == _ad\n      DUP1 \t\t\t   ret\n      DUP5 \t\t\t   \n      MSTORE \t\t\t               retu\n      PUSH [tag] 704\t\t\t\\n            }\\r\\n        }\\r...\n      DUP2 \t\t\tction \n      PUSH 20\t\t\t // \n      DUP7 \t\t\t\\r\\n \n      ADD \t\t\t }\\r\\n\\r\\n    // F\n      PUSH 20\t\t\te;\\r\\n\n      DUP7 \t\t\trn fa\n      ADD \t\t\treturn false;\\r\\n \n      PUSH [tag] 671\t\t\t\\n            }\\r\\n        }\\r...\n      JUMP \t\t\t\\n            }\\r\\n        }\\r...\n    tag 704\t\t\t\\n            }\\r\\n        }\\r...\n      JUMPDEST \t\t\t\\n            }\\r\\n        }\\r...\n      PUSH 1F\t\t\tun\n      ADD \t\t\towner can add.\\r\n      PUSH 1F\t\t\t\n      NOT \t\t\t\n      AND \t\t\tthe owner can add.\\r\\n    func...\n      SWAP3 \t\t\tss. Only the owner can add.\\r\\...\n      SWAP1 \t\t\tss. Only the owner can add.\\r\\...\n      SWAP3 \t\t\tss. Only the owner can add.\\r\\...\n      ADD \t\t\tss. Only the owner can add.\\r\\...\n      PUSH 20\t\t\t add\n      ADD \t\t\tddress. Only the owner can add...\n      SWAP3 \t\t\tddress. Only the owner can add...\n      SWAP2 \t\t\t\\r\\n        for (uint i = 0; i...\n      POP \t\t\t\n      POP \t\t\t\n      JUMP \t\t\t\\r\\n        for (uint i = 0; i...\n    tag 49\t\t\ts _admin) public onlyOwner {\\r...\n      JUMPDEST \t\t\ts _admin) public onlyOwner {\\r...\n      PUSH 40\t\t\tyO\n      DUP1 \t\t\t for (uint i = 0; i <\n      DUP3 \t\t\t for (uint i = 0; i <\n      MSTORE \t\t\t for (uint i = 0; i <\n      DUP4 \t\t\t) {\\r\\n        \n      MLOAD \t\t\t) {\\r\\n        \n      DUP3 \t\t\tn = admins.length;\n      DUP3 \t\t\tn = admins.length;\n      ADD \t\t\tn = admins.length;\n      DUP2 \t\t\tdmins[i] = admins[len \n      SWAP1 \t\t\tdmins[i] = admins[len \n      MSTORE \t\t\tdmins[i] = admins[len \n      PUSH 0\t\t\tin(a\n      SWAP2 \t\t\tin(a\n      SWAP1 \t\t\tyO\n      PUSH 60\t\t\t  \n      SWAP1 \t\t\t  \n      DUP2 \t\t\t\\n                r\n      DUP6 \t\t\t\\n                r\n      ADD \t\t\t\\n                r\n      SWAP1 \t\t\t\\n                r\n      PUSH 20\t\t\t }\\r\\n\n      DUP1 \t\t\trt(\"Admin not f\n      DUP10 \t\t\trt(\"Admin not f\n      ADD \t\t\trt(\"Admin not f\n      DUP7 \t\t\tin(a\n    tag 706\t\t\tifier to restrict functions to...\n      JUMPDEST \t\t\tifier to restrict functions to...\n      DUP4 \t\t\tict fu\n      DUP2 \t\t\ts\n      LT \t\t\t restrict fun\n      ISZERO \t\t\tifier to restrict functions to...\n      PUSH [tag] 708\t\t\tifier to restrict functions to...\n      JUMPI \t\t\tifier to restrict functions to...\n      DUP2 \t\t\tonlyAdmin() {\n      MLOAD \t\t\tonlyAdmin() {\n      PUSH 1\t\t\t\n      PUSH 1\t\t\t\n      PUSH 40\t\t\t\n      SHL \t\t\t\n      SUB \t\t\t\n      AND \t\t\tier onlyAdmin() {\\r\\n        r...\n      DUP6 \t\t\t.\\r\\n    modifier onlyAdmin() ...\n      MSTORE \t\t\t.\\r\\n    modifier onlyAdmin() ...\n      SWAP4 \t\t\taller is not\n      DUP3 \t\t\taller is not\n      ADD \t\t\taller is not\n      SWAP4 \t\t\taller is not\n      SWAP1 \t\t\t;\\r\\n    }\\r\\n\\r\\n   \n      DUP3 \t\t\t;\\r\\n    }\\r\\n\\r\\n   \n      ADD \t\t\t;\\r\\n    }\\r\\n\\r\\n   \n      SWAP1 \t\t\t;\\r\\n    }\\r\\n\\r\\n   \n      PUSH 1\t\t\ta\n      ADD \t\t\to only ad\n      PUSH [tag] 706\t\t\tifier to restrict functions to...\n      JUMP \t\t\tifier to restrict functions to...\n    tag 708\t\t\tifier to restrict functions to...\n      JUMPDEST \t\t\tifier to restrict functions to...\n      POP \t\t\t\n      POP \t\t\t\n      DUP7 \t\t\t;\\r\\n\\r\\n    // A set o\n      DUP4 \t\t\t;\\r\\n\\r\\n    // A set o\n      SUB \t\t\t;\\r\\n\\r\\n    // A set o\n      DUP2 \t\t\tnumerableSet.UintS\n      DUP9 \t\t\tnumerableSet.UintS\n      ADD \t\t\tnumerableSet.UintS\n      MSTORE \t\t\tt for EnumerableSet.UintSet;\\r...\n      DUP8 \t\t\tmerableSet.Ui\n      MLOAD \t\t\tmerableSet.Ui\n      DUP1 \t\t\tvate _allTokenIDs;\\r\\n\\r\n      DUP5 \t\t\tvate _allTokenIDs;\\r\\n\\r\n      MSTORE \t\t\tvate _allTokenIDs;\\r\\n\\r\n      DUP2 \t\t\teturns the f\n      DUP5 \t\t\teturns the f\n      ADD \t\t\teturns the f\n      SWAP3 \t\t\teturns the f\n      POP \t\t\t\n      PUSH 5\t\t\tu\n      DUP2 \t\t\t   function allT\n      SWAP1 \t\t\t   function allT\n      SHL \t\t\t   function allT\n      DUP5 \t\t\tminted\\r\\n    function allTo\n      ADD \t\t\tminted\\r\\n    function allTo\n      DUP3 \t\t\tver minted\\r\\n    function all...\n      ADD \t\t\tver minted\\r\\n    function all...\n      DUP10 \t\t\t (uint256[] mem\n      DUP4 \t\t\t (uint256[] mem\n      ADD \t\t\t (uint256[] mem\n      PUSH 0\t\t\tr\n    tag 709\t\t\tenIDs.values();\\r\\n    }\\r\\n\\r...\n      JUMPDEST \t\t\tenIDs.values();\\r\\n    }\\r\\n\\r...\n      DUP4 \t\t\t\\n    }\\r\\n\n      DUP2 \t\t\ts()\n      LT \t\t\tlues();\\r\\n    }\\r\\n\\r\n      ISZERO \t\t\tenIDs.values();\\r\\n    }\\r\\n\\r...\n      PUSH [tag] 711\t\t\tenIDs.values();\\r\\n    }\\r\\n\\r...\n      JUMPI \t\t\tenIDs.values();\\r\\n    }\\r\\n\\r...\n      DUP7 \t\t\td other attribut\n      DUP4 \t\t\td other attribut\n      SUB \t\t\td other attribut\n      PUSH 1F\t\t\t\n      NOT \t\t\t\n      ADD \t\t\te and other attributes can be \n      DUP7 \t\t\t the token name and other attr...\n      MSTORE \t\t\t the token name and other attr...\n      DUP2 \t\t\ting(uint256 => \n      MLOAD \t\t\ting(uint256 => \n      DUP1 \t\t\t  // Mapp\n      MLOAD \t\t\t  // Mapp\n      DUP10 \t\t\tnID to proof_reque\n      DUP6 \t\t\tnID to proof_reque\n      MSTORE \t\t\tnID to proof_reque\n      PUSH [tag] 712\t\t\ttring 'sender' or 'receiver')....\n      DUP11 \t\t\t    // tokenID \n      DUP7 \t\t\t    // tokenID \n      ADD \t\t\t    // tokenID \n      DUP3 \t\t\t  // Mapp\n      PUSH [tag] 672\t\t\ttring 'sender' or 'receiver')....\n      JUMP \t\t\ttring 'sender' or 'receiver')....\n    tag 712\t\t\ttring 'sender' or 'receiver')....\n      JUMPDEST \t\t\ttring 'sender' or 'receiver')....\n      SWAP1 \t\t\ter's role (a string 'sender' o...\n      POP \t\t\ter's role (a string 'sender' o...\n      DUP7 \t\t\tap\n      DUP3 \t\t\t  \n      ADD \t\t\t)\\r\\n    mapp\n      MLOAD \t\t\teiver')\\r\\n    mappi\n      DUP6 \t\t\tokenID\n      DUP3 \t\t\tpublic\n      SUB \t\t\tg)) public tokenID_\n      DUP9 \t\t\tst\n      DUP8 \t\t\tnt64 =\n      ADD \t\t\tg(uint64 => str\n      MSTORE \t\t\t mapping(uint64 => string)) pu...\n      PUSH [tag] 713\t\t\t Struct to represent a spendin...\n      DUP3 \t\t\tnditio\n      DUP3 \t\t\tnt a spending \n      PUSH [tag] 672\t\t\t Struct to represent a spendin...\n      JUMP \t\t\t Struct to represent a spendin...\n    tag 713\t\t\t Struct to represent a spendin...\n      JUMPDEST \t\t\t Struct to represent a spendin...\n      SWAP2 \t\t\tole;\\r\\n\\r\\n    // Struct to r...\n      POP \t\t\tole;\\r\\n\\r\\n    // Struct to r...\n      POP \t\t\tole;\\r\\n\\r\\n    // Struct to r...\n      DUP11 \t\t\tat\n      DUP3 \t\t\tin\n      ADD \t\t\t string att\n      MLOAD \t\t\t       string attr\n      SWAP2 \t\t\tSpendingCondition {\\r\\n       ...\n      POP \t\t\tSpendingCondition {\\r\\n       ...\n      DUP5 \t\t\tng val\n      DUP2 \t\t\t    st\n      SUB \t\t\t        string valu\n      DUP12 \t\t\ttr\n      DUP7 \t\t\tperato\n      ADD \t\t\tng operatorStr;\n      MSTORE \t\t\t   string operatorStr;\\r\\n    ...\n      PUSH [tag] 714\t\t\ting from tokenID to proofReque...\n      DUP2 \t\t\t to sp\n      DUP4 \t\t\to proofRequest\n      PUSH [tag] 672\t\t\ting from tokenID to proofReque...\n      JUMP \t\t\ting from tokenID to proofReque...\n    tag 714\t\t\ting from tokenID to proofReque...\n      JUMPDEST \t\t\ting from tokenID to proofReque...\n      SWAP8 \t\t\tndition)\\r\\n    \n      DUP8 \t\t\tndition)\\r\\n    \n      ADD \t\t\tndition)\\r\\n    \n      SWAP8 \t\t\tndition)\\r\\n    \n      SWAP5 \t\t\t   // Mapping from tokenID to ...\n      POP \t\t\t\n      POP \t\t\t\n      POP \t\t\t\n      SWAP1 \t\t\tokenID => (proofR\n      DUP5 \t\t\tokenID => (proofR\n      ADD \t\t\tokenID => (proofR\n      SWAP1 \t\t\tokenID => (proofR\n      PUSH 1\t\t\tm\n      ADD \t\t\tpping from \n      PUSH [tag] 709\t\t\tenIDs.values();\\r\\n    }\\r\\n\\r...\n      JUMP \t\t\tenIDs.values();\\r\\n    }\\r\\n\\r...\n    tag 711\t\t\tenIDs.values();\\r\\n    }\\r\\n\\r...\n      JUMPDEST \t\t\tenIDs.values();\\r\\n    }\\r\\n\\r...\n      POP \t\t\t\n      SWAP1 \t\t\tuint64\n      SWAP12 \t\t\tuint64\n      SWAP11 \t\t\ts _admin) public onlyOwner {\\r...\n      POP \t\t\t\n      POP \t\t\t\n      POP \t\t\t\n      POP \t\t\t\n      POP \t\t\t\n      POP \t\t\t\n      POP \t\t\t\n      POP \t\t\t\n      POP \t\t\t\n      POP \t\t\t\n      POP \t\t\t\n      JUMP \t\t\ts _admin) public onlyOwner {\\r...\n    tag 673\t\t\tgCondition)) public spendingCo...\n      JUMPDEST \t\t\tgCondition)) public spendingCo...\n      PUSH 1\t\t\t\n      PUSH 1\t\t\t\n      PUSH E0\t\t\t\n      SHL \t\t\t\n      SUB \t\t\t\n      NOT \t\t\t\n      DUP2 \t\t\trequest_ids only for iteration...\n      AND \t\t\trequest_ids only for iteration...\n      DUP2 \t\t\tore proof_request_ids only for...\n      EQ \t\t\tore proof_request_ids only for...\n      PUSH [tag] 227\t\t\trray to store proof_request_id...\n      JUMPI \t\t\trray to store proof_request_id...\n      PUSH 0\t\t\tu\n      DUP1 \t\t\t]\n      REVERT \t\t\tuint64[] pub\n    tag 52\t\t\testIDs;\\r\\n    \\r\\n    /// @no...\n      JUMPDEST \t\t\testIDs;\\r\\n    \\r\\n    /// @no...\n      PUSH 0\t\t\t for a\n      PUSH 20\t\t\ton\n      DUP3 \t\t\tndingCond\n      DUP5 \t\t\ton getS\n      SUB \t\t\tnction getSpendingCondi\n      SLT \t\t\t  function getSpendingConditio...\n      ISZERO \t\t\t\\n    function getSpendingCond...\n      PUSH [tag] 718\t\t\t\\n    function getSpendingCond...\n      JUMPI \t\t\t\\n    function getSpendingCond...\n      PUSH 0\t\t\tn\n      DUP1 \t\t\to\n      REVERT \t\t\tnt256 tokenI\n    tag 718\t\t\t\\n    function getSpendingCond...\n      JUMPDEST \t\t\t\\n    function getSpendingCond...\n      DUP2 \t\t\tmory, Spe\n      CALLDATALOAD \t\t\t (uint64[] memory, Spen\n      PUSH [tag] 486\t\t\ttion[] memory) {\\r\\n        ui...\n      DUP2 \t\t\t  uin\n      PUSH [tag] 673\t\t\ttion[] memory) {\\r\\n        ui...\n      JUMP \t\t\ttion[] memory) {\\r\\n        ui...\n    tag 60\t\t\tngConditions[tokenID][ids[i]]....\n      JUMPDEST \t\t\tngConditions[tokenID][ids[i]]....\n      PUSH 20\t\t\t  \n      DUP2 \t\t\toutput\\r\\n \n      MSTORE \t\t\tys for output\\r\\n      \n      PUSH 0\t\t\t    \n      PUSH [tag] 486\t\t\t filteredIDs = new uint64[](co...\n      PUSH 20\t\t\t  \n      DUP4 \t\t\tunt);\\r\\n  \n      ADD \t\t\t](count);\\r\\n       \n      DUP5 \t\t\t uint6\n      PUSH [tag] 672\t\t\t filteredIDs = new uint64[](co...\n      JUMP \t\t\t filteredIDs = new uint64[](co...\n    tag 63\t\t\tdition[] memory conditions = n...\n      JUMPDEST \t\t\tdition[] memory conditions = n...\n      PUSH 0\t\t\t;\\r\\n   \n      PUSH 20\t\t\t 0\n      DUP3 \t\t\t(uint256 \n      DUP5 \t\t\t     fo\n      SUB \t\t\t\\n        for (uint256 i\n      SLT \t\t\t 0;\\r\\n        for (uint256 i ...\n      ISZERO \t\t\tx = 0;\\r\\n        for (uint256...\n      PUSH [tag] 724\t\t\tx = 0;\\r\\n        for (uint256...\n      JUMPI \t\t\tx = 0;\\r\\n        for (uint256...\n      PUSH 0\t\t\tt\n      DUP1 \t\t\te\n      REVERT \t\t\t< ids.length\n    tag 724\t\t\tx = 0;\\r\\n        for (uint256...\n      JUMPDEST \t\t\tx = 0;\\r\\n        for (uint256...\n      DUP2 \t\t\tingCondit\n      CALLDATALOAD \t\t\t (bytes(spendingConditi\n      PUSH [tag] 486\t\t\tID][ids[i]].attribute).length ...\n      DUP2 \t\t\tngth \n      PUSH [tag] 670\t\t\tID][ids[i]].attribute).length ...\n      JUMP \t\t\tID][ids[i]].attribute).length ...\n    tag 674\t\t\tsponding prover's address.\\r\\n...\n      JUMPDEST \t\t\tsponding prover's address.\\r\\n...\n      PUSH 0\t\t\tequestID\n      DUP1 \t\t\tis upd\n      DUP4 \t\t\tt a\n      PUSH 1F\t\t\t req\n      DUP5 \t\t\tew pro\n      ADD \t\t\t a new proof requ\n      SLT \t\t\t Add a new proof request an\n      PUSH [tag] 728\t\t\ty.\\r\\n    // Add a new proof r...\n      JUMPI \t\t\ty.\\r\\n    // Add a new proof r...\n      PUSH 0\t\t\tn\n      DUP1 \t\t\ts\n      REVERT \t\t\te correspond\n    tag 728\t\t\ty.\\r\\n    // Add a new proof r...\n      JUMPDEST \t\t\ty.\\r\\n    // Add a new proof r...\n      POP \t\t\t\n      DUP2 \t\t\t 'receiver').\\r\\n    /\n      CALLDATALOAD \t\t\t 'receiver').\\r\\n    /\n      PUSH 1\t\t\t\n      PUSH 1\t\t\t\n      PUSH 40\t\t\t\n      SHL \t\t\t\n      SUB \t\t\t\n      DUP2 \t\t\tproofRequestIDs is updated acc\n      GT \t\t\tproofRequestIDs is updated acc\n      ISZERO \t\t\tay proofRequestIDs is updated ...\n      PUSH [tag] 729\t\t\tay proofRequestIDs is updated ...\n      JUMPI \t\t\tay proofRequestIDs is updated ...\n      PUSH 0\t\t\t \n      DUP1 \t\t\t\\n\n      REVERT \t\t\tingly.\\r\\n    \n    tag 729\t\t\tay proofRequestIDs is updated ...\n      JUMPDEST \t\t\tay proofRequestIDs is updated ...\n      PUSH 20\t\t\tt256\n      DUP4 \t\t\tRole(u\n      ADD \t\t\ttAndRole(uint256 \n      SWAP2 \t\t\tdProofRequestAndRole(uint256 \n      POP \t\t\tdProofRequestAndRole(uint256 \n      DUP4 \t\t\t) p\n      PUSH 20\t\t\tta r\n      DUP3 \t\t\tng cal\n      DUP6 \t\t\tID, st\n      ADD \t\t\tuestID, string call\n      ADD \t\t\t requestID, string calldata ro\n      GT \t\t\tt64 requestID, string calldata...\n      ISZERO \t\t\tuint64 requestID, string calld...\n      PUSH [tag] 730\t\t\tuint64 requestID, string calld...\n      JUMPI \t\t\tuint64 requestID, string calld...\n      PUSH 0\t\t\tn\n      DUP1 \t\t\td\n      REVERT \t\t\tc onlyAdmin \n    tag 730\t\t\tuint64 requestID, string calld...\n      JUMPDEST \t\t\tuint64 requestID, string calld...\n      SWAP3 \t\t\tsponding prover's address.\\r\\n...\n      POP \t\t\tsponding prover's address.\\r\\n...\n      SWAP3 \t\t\tsponding prover's address.\\r\\n...\n      SWAP1 \t\t\tsponding prover's address.\\r\\n...\n      POP \t\t\tsponding prover's address.\\r\\n...\n      JUMP \t\t\tsponding prover's address.\\r\\n...\n    tag 71\t\t\tquire(_allTokenIDs.contains(to...\n      JUMPDEST \t\t\tquire(_allTokenIDs.contains(to...\n      PUSH 0\t\t\t_role[\n      DUP1 \t\t\tkenID]\n      PUSH 0\t\t\tequest\n      DUP1 \t\t\t]).len\n      PUSH 0\t\t\th == 0\n      DUP1 \t\t\t\"Proof\n      PUSH 80\t\t\t   \n      DUP8 \t\t\t require(\n      DUP10 \t\t\t\\r\\n     \n      SUB \t\t\ts\");\\r\\n        require(\\r\n      SLT \t\t\txists\");\\r\\n        require(\\r...\n      ISZERO \t\t\ty exists\");\\r\\n        require...\n      PUSH [tag] 732\t\t\ty exists\");\\r\\n        require...\n      JUMPI \t\t\ty exists\");\\r\\n        require...\n      PUSH 0\t\t\t2\n      DUP1 \t\t\tc\n      REVERT \t\t\t    keccak25\n    tag 732\t\t\ty exists\");\\r\\n        require...\n      JUMPDEST \t\t\ty exists\");\\r\\n        require...\n      DUP7 \t\t\tnder\")) |\n      CALLDATALOAD \t\t\t256(bytes(\"sender\")) ||\n      PUSH [tag] 733\t\t\t     keccak256(bytes(role)) ==...\n      DUP2 \t\t\t)) ==\n      PUSH [tag] 670\t\t\t     keccak256(bytes(role)) ==...\n      JUMP \t\t\t     keccak256(bytes(role)) ==...\n    tag 733\t\t\t     keccak256(bytes(role)) ==...\n      JUMPDEST \t\t\t     keccak256(bytes(role)) ==...\n      SWAP6 \t\t\tceive\n      POP \t\t\t\n      PUSH 20\t\t\tec\n      DUP8 \t\t\t 'sender' or 'rece\n      ADD \t\t\t 'sender' or 'rece\n      CALLDATALOAD \t\t\t\"Role must be 'sender' or 'rec...\n      SWAP5 \t\t\t\"Role must be 'sender' or 'rec...\n      POP \t\t\t\n      PUSH 40\t\t\te[\n      DUP8 \t\t\troofRequest_role[t\n      ADD \t\t\troofRequest_role[t\n      CALLDATALOAD \t\t\t    tokenID_proofRequest_role[...\n      PUSH 1\t\t\t\n      PUSH 1\t\t\t\n      PUSH 40\t\t\t\n      SHL \t\t\t\n      SUB \t\t\t\n      DUP1 \t\t\ts.push(request\n      DUP3 \t\t\ts.push(request\n      GT \t\t\ts.push(request\n      ISZERO \t\t\ttIDs.push(requestID);\\r\\n    }...\n      PUSH [tag] 734\t\t\ttIDs.push(requestID);\\r\\n    }...\n      JUMPI \t\t\ttIDs.push(requestID);\\r\\n    }...\n      PUSH 0\t\t\t \n      DUP1 \t\t\t}\n      REVERT \t\t\t;\\r\\n    }\\r\\n  \n    tag 734\t\t\ttIDs.push(requestID);\\r\\n    }...\n      JUMPDEST \t\t\ttIDs.push(requestID);\\r\\n    }...\n      PUSH [tag] 735\t\t\tfierAndPM(\\r\\n        uint64 r...\n      DUP11 \t\t\ting cal\n      DUP4 \t\t\t      \n      DUP12 \t\t\tuestId,\\r\\n\n      ADD \t\t\t requestId,\\r\\n        s\n      PUSH [tag] 674\t\t\tfierAndPM(\\r\\n        uint64 r...\n      JUMP \t\t\tfierAndPM(\\r\\n        uint64 r...\n    tag 735\t\t\tfierAndPM(\\r\\n        uint64 r...\n      JUMPDEST \t\t\tfierAndPM(\\r\\n        uint64 r...\n      SWAP1 \t\t\t     ICi\n      SWAP7 \t\t\t     ICi\n      POP \t\t\t\n      SWAP5 \t\t\tction addProofRequest_Verifier...\n      POP \t\t\t\n      PUSH 60\t\t\t,\\r\n      DUP10 \t\t\tuint256 tokenID,\\r\\n\n      ADD \t\t\tuint256 tokenID,\\r\\n\n      CALLDATALOAD \t\t\tta,\\r\\n        uint256 tokenID...\n      SWAP2 \t\t\tta,\\r\\n        uint256 tokenID...\n      POP \t\t\t\n      DUP1 \t\t\tg calldata role,\n      DUP3 \t\t\tg calldata role,\n      GT \t\t\tg calldata role,\n      ISZERO \t\t\tring calldata role,\\r\\n       ...\n      PUSH [tag] 736\t\t\tring calldata role,\\r\\n       ...\n      JUMPI \t\t\tring calldata role,\\r\\n       ...\n      PUSH 0\t\t\tn\n      DUP1 \t\t\tS\n      REVERT \t\t\t       Spend\n    tag 736\t\t\tring calldata role,\\r\\n       ...\n      JUMPDEST \t\t\tring calldata role,\\r\\n       ...\n      POP \t\t\tring calldata role,\\r\\n       ...\n      PUSH [tag] 737\t\t\t) public {\\r\\n        // Build...\n      DUP10 \t\t\tuest st\n      DUP3 \t\t\tfier.ZKP\n      DUP11 \t\t\the IZKPVe\n      ADD \t\t\tld the IZKPVerifier.ZKPR\n      PUSH [tag] 674\t\t\t) public {\\r\\n        // Build...\n      JUMP \t\t\t) public {\\r\\n        // Build...\n    tag 737\t\t\t) public {\\r\\n        // Build...\n      JUMPDEST \t\t\t) public {\\r\\n        // Build...\n      SWAP8 \t\t\tquire(_allTokenIDs.contains(to...\n      SWAP11 \t\t\tquire(_allTokenIDs.contains(to...\n      SWAP7 \t\t\tquire(_allTokenIDs.contains(to...\n      SWAP10 \t\t\tquire(_allTokenIDs.contains(to...\n      POP \t\t\t\n      SWAP5 \t\t\tquire(_allTokenIDs.contains(to...\n      SWAP8 \t\t\tquire(_allTokenIDs.contains(to...\n      POP \t\t\t\n      SWAP3 \t\t\tquire(_allTokenIDs.contains(to...\n      SWAP6 \t\t\tquire(_allTokenIDs.contains(to...\n      SWAP4 \t\t\trifier.Z\n      SWAP5 \t\t\trifier.Z\n      SWAP3 \t\t\tquire(_allTokenIDs.contains(to...\n      POP \t\t\t\n      POP \t\t\t\n      POP \t\t\t\n      JUMP \t\t\tquire(_allTokenIDs.contains(to...\n    tag 173\t\t\tPRequest({\\r\\n            meta...\n      JUMPDEST \t\t\tPRequest({\\r\\n            meta...\n      PUSH 4E487B71\t\t\tdator: val\n      PUSH E0\t\t\t va\n      SHL \t\t\t     validator: vali\n      PUSH 0\t\t\t \n      MSTORE \t\t\t,\\r\\n            validator: va...\n      PUSH 41\t\t\tdata\n      PUSH 4\t\t\t \n      MSTORE \t\t\t          data:\n      PUSH 24\t\t\t\\n\\r\\n \n      PUSH 0\t\t\t)\n      REVERT \t\t\t      });\\r\\n\\r\\n  \n    tag 675\t\t\tier.setZKPRequest(requestId, r...\n      JUMPDEST \t\t\tier.setZKPRequest(requestId, r...\n      PUSH 40\t\t\tID\n      MLOAD \t\t\t(tokenID,\n      PUSH 80\t\t\tspen\n      DUP2 \t\t\t // Add the spend\n      ADD \t\t\t // Add the spend\n      PUSH 1\t\t\t\n      PUSH 1\t\t\t\n      PUSH 40\t\t\t\n      SHL \t\t\t\n      SUB \t\t\t\n      DUP2 \t\t\t        spendingConditions[tok...\n      GT \t\t\t        spendingConditions[tok...\n      DUP3 \t\t\trequestId] = SpendingC\n      DUP3 \t\t\trequestId] = SpendingC\n      LT \t\t\trequestId] = SpendingC\n      OR \t\t\tn\\r\\n        spendingCondition...\n      ISZERO \t\t\ttion\\r\\n        spendingCondit...\n      PUSH [tag] 741\t\t\ttion\\r\\n        spendingCondit...\n      JUMPI \t\t\ttion\\r\\n        spendingCondit...\n      PUSH [tag] 741\t\t\ttion({\\r\\n          \n      PUSH [tag] 173\t\t\ttion({\\r\\n          \n      JUMP \t\t\ttion({\\r\\n          \n    tag 741\t\t\ttion({\\r\\n          \n      JUMPDEST \t\t\ttion({\\r\\n          \n      PUSH 40\t\t\tti\n      MSTORE \t\t\t: condition.attribute,\n      SWAP1 \t\t\tier.setZKPRequest(requestId, r...\n      JUMP \t\t\tier.setZKPRequest(requestId, r...\n    tag 676\t\t\t   operatorStr: condition.oper...\n      JUMPDEST \t\t\t   operatorStr: condition.oper...\n      PUSH 40\t\t\tlu\n      MLOAD \t\t\tion.value\n      PUSH 1F\t\t\tth\n      DUP3 \t\t\t proof reques\n      ADD \t\t\t proof reques\n      PUSH 1F\t\t\t\n      NOT \t\t\t\n      AND \t\t\tte a proof request and the \n      DUP2 \t\t\t\\n    // Delete a proof reques...\n      ADD \t\t\t\\n    // Delete a proof reques...\n      PUSH 1\t\t\t\n      PUSH 1\t\t\t\n      PUSH 40\t\t\t\n      SHL \t\t\t\n      SUB \t\t\t\n      DUP2 \t\t\t    // The array proofRequestI...\n      GT \t\t\t    // The array proofRequestI...\n      DUP3 \t\t\tupdated accordingly.\\r\\n\n      DUP3 \t\t\tupdated accordingly.\\r\\n\n      LT \t\t\tupdated accordingly.\\r\\n\n      OR \t\t\t.\\r\\n    // The array proofReq...\n      ISZERO \t\t\t ID.\\r\\n    // The array proof...\n      PUSH [tag] 744\t\t\t ID.\\r\\n    // The array proof...\n      JUMPI \t\t\t ID.\\r\\n    // The array proof...\n      PUSH [tag] 744\t\t\tfunction deletePro\n      PUSH [tag] 173\t\t\tfunction deletePro\n      JUMP \t\t\tfunction deletePro\n    tag 744\t\t\tfunction deletePro\n      JUMPDEST \t\t\tfunction deletePro\n      PUSH 40\t\t\tin\n      MSTORE \t\t\tdRole(uint256 tokenID,\n      SWAP2 \t\t\t   operatorStr: condition.oper...\n      SWAP1 \t\t\t   operatorStr: condition.oper...\n      POP \t\t\t\n      JUMP \t\t\t   operatorStr: condition.oper...\n    tag 677\t\t\tuestID) public onlyAdmin {\\r\\n...\n      JUMPDEST \t\t\tuestID) public onlyAdmin {\\r\\n...\n      PUSH 0\t\t\ttain\n      PUSH 1\t\t\t\n      PUSH 1\t\t\t\n      PUSH 40\t\t\t\n      SHL \t\t\t\n      SUB \t\t\t\n      DUP3 \t\t\t does \n      GT \t\t\t id does not exist\");\\r\\n     ...\n      ISZERO \t\t\tken id does not exist\");\\r\\n  ...\n      PUSH [tag] 747\t\t\tken id does not exist\");\\r\\n  ...\n      JUMPI \t\t\tken id does not exist\");\\r\\n  ...\n      PUSH [tag] 747\t\t\tquire(bytes(tokenI\n      PUSH [tag] 173\t\t\tquire(bytes(tokenI\n      JUMP \t\t\tquire(bytes(tokenI\n    tag 747\t\t\tquire(bytes(tokenI\n      JUMPDEST \t\t\tquire(bytes(tokenI\n      POP \t\t\t\n      PUSH 5\t\t\t]\n      SHL \t\t\tenID][requestI\n      PUSH 20\t\t\t).le\n      ADD \t\t\t[tokenID][requestID]).len\n      SWAP1 \t\t\t[tokenID][requestID]).len\n      JUMP \t\t\tuestID) public onlyAdmin {\\r\\n...\n    tag 678\t\t\tProof request does not exist\")...\n      JUMPDEST \t\t\tProof request does not exist\")...\n      PUSH 0\t\t\tD_pro\n      DUP3 \t\t\tRem\n      PUSH 1F\t\t\t    \n      DUP4 \t\t\t];\\r\\n  \n      ADD \t\t\tstID];\\r\\n        /\n      SLT \t\t\tequestID];\\r\\n        // Remo\n      PUSH [tag] 749\t\t\ttokenID][requestID];\\r\\n      ...\n      JUMPI \t\t\ttokenID][requestID];\\r\\n      ...\n      PUSH 0\t\t\t \n      DUP1 \t\t\tt\n      REVERT \t\t\tD from the a\n    tag 749\t\t\ttokenID][requestID];\\r\\n      ...\n      JUMPDEST \t\t\ttokenID][requestID];\\r\\n      ...\n      DUP2 \t\t\t     f\n      CALLDATALOAD \t\t\tchnique)\\r\\n        fo\n      PUSH 20\t\t\t < p\n      PUSH [tag] 750\t\t\th; i++) {\\r\\n            if (p...\n      PUSH [tag] 751\t\t\t       if (proofRequestIDs[i] ...\n      DUP4 \t\t\tID\n      PUSH [tag] 677\t\t\t       if (proofRequestIDs[i] ...\n      JUMP \t\t\t       if (proofRequestIDs[i] ...\n    tag 751\t\t\t       if (proofRequestIDs[i] ...\n      JUMPDEST \t\t\t       if (proofRequestIDs[i] ...\n      PUSH [tag] 676\t\t\th; i++) {\\r\\n            if (p...\n      JUMP \t\t\th; i++) {\\r\\n            if (p...\n    tag 750\t\t\th; i++) {\\r\\n            if (p...\n      JUMPDEST \t\t\th; i++) {\\r\\n            if (p...\n      DUP3 \t\t\t[i] = proofRequ\n      DUP2 \t\t\t[i] = proofRequ\n      MSTORE \t\t\t[i] = proofRequ\n      PUSH 5\t\t\tp\n      SWAP3 \t\t\ts.pop();\\r\\n\n      SWAP1 \t\t\ts.pop();\\r\\n\n      SWAP3 \t\t\ts.pop();\\r\\n\n      SHL \t\t\ts.pop();\\r\\n\n      DUP5 \t\t\toofRequestIDs.pop();\\r\\n \n      ADD \t\t\toofRequestIDs.pop();\\r\\n \n      DUP2 \t\t\t  proofRequestIDs.pop();\\r\\n  ...\n      ADD \t\t\t  proofRequestIDs.pop();\\r\\n  ...\n      SWAP2 \t\t\t  proofRequestIDs.pop();\\r\\n  ...\n      DUP2 \t\t\testIDs.lengt\n      DUP2 \t\t\testIDs.lengt\n      ADD \t\t\testIDs.lengt\n      SWAP1 \t\t\testIDs.lengt\n      DUP7 \t\t\teak;\\r\\n         \n      DUP5 \t\t\teak;\\r\\n         \n      GT \t\t\teak;\\r\\n         \n      ISZERO \t\t\t break;\\r\\n            }\\r\\n  ...\n      PUSH [tag] 752\t\t\t break;\\r\\n            }\\r\\n  ...\n      JUMPI \t\t\t break;\\r\\n            }\\r\\n  ...\n      PUSH 0\t\t\t \n      DUP1 \t\t\t \n      REVERT \t\t\t}\\r\\n        }\n    tag 752\t\t\t break;\\r\\n            }\\r\\n  ...\n      JUMPDEST \t\t\t break;\\r\\n            }\\r\\n  ...\n      DUP3 \t\t\tta\n      DUP7 \t\t\tlic co\n      ADD \t\t\t public constan\n    tag 753\t\t\te_token = 1;\\r\\n    uint256 pu...\n      JUMPDEST \t\t\te_token = 1;\\r\\n    uint256 pu...\n      DUP5 \t\t\t  uint\n      DUP2 \t\t\t;\\r\\n\n      LT \t\t\t= 1;\\r\\n    uint2\n      ISZERO \t\t\te_token = 1;\\r\\n    uint256 pu...\n      PUSH [tag] 755\t\t\te_token = 1;\\r\\n    uint256 pu...\n      JUMPI \t\t\te_token = 1;\\r\\n    uint256 pu...\n      DUP1 \t\t\tVerifier public v\n      CALLDATALOAD \t\t\tVerifier public v\n      DUP4 \t\t\t   UniversalVerifier public ve\n      MSTORE \t\t\t   UniversalVerifier public ve\n      SWAP2 \t\t\tructor(Unive\n      DUP4 \t\t\tructor(Unive\n      ADD \t\t\tructor(Unive\n      SWAP2 \t\t\tructor(Unive\n      DUP4 \t\t\tconstant non\n      ADD \t\t\tconstant non\n      PUSH [tag] 753\t\t\te_token = 1;\\r\\n    uint256 pu...\n      JUMP \t\t\te_token = 1;\\r\\n    uint256 pu...\n    tag 755\t\t\te_token = 1;\\r\\n    uint256 pu...\n      JUMPDEST \t\t\te_token = 1;\\r\\n    uint256 pu...\n      POP \t\t\t\n      SWAP7 \t\t\tess i\n      SWAP6 \t\t\tProof request does not exist\")...\n      POP \t\t\t\n      POP \t\t\t\n      POP \t\t\t\n      POP \t\t\t\n      POP \t\t\t\n      POP \t\t\t\n      JUMP \t\t\tProof request does not exist\")...\n    tag 679\t\t\t, string memory uri_)\\r\\n    E...\n      JUMPDEST \t\t\t, string memory uri_)\\r\\n    E...\n      PUSH 0\t\t\tnabl\n      PUSH 1\t\t\t\n      PUSH 1\t\t\t\n      PUSH 40\t\t\t\n      SHL \t\t\t\n      SUB \t\t\t\n      DUP3 \t\t\t{\\r\\n   \n      GT \t\t\t   {\\r\\n        verifier = ver...\n      ISZERO \t\t\t\\r\\n    {\\r\\n        verifier ...\n      PUSH [tag] 758\t\t\t\\r\\n    {\\r\\n        verifier ...\n      JUMPI \t\t\t\\r\\n    {\\r\\n        verifier ...\n      PUSH [tag] 758\t\t\t_;\\r\\n    }\\r\\n\\r\\n    /\n      PUSH [tag] 173\t\t\t_;\\r\\n    }\\r\\n\\r\\n    /\n      JUMP \t\t\t_;\\r\\n    }\\r\\n\\r\\n    /\n    tag 758\t\t\t_;\\r\\n    }\\r\\n\\r\\n    /\n      JUMPDEST \t\t\t_;\\r\\n    }\\r\\n\\r\\n    /\n      POP \t\t\t\n      PUSH 1F\t\t\tre\n      ADD \t\t\t(check if token\n      PUSH 1F\t\t\t\n      NOT \t\t\t\n      AND \t\t\tion (check if token id alread\n      PUSH 20\t\t\ttake\n      ADD \t\t\taration (check if token id alr...\n      SWAP1 \t\t\taration (check if token id alr...\n      JUMP \t\t\t, string memory uri_)\\r\\n    E...\n    tag 680\t\t\ting new token)\\r\\n    error To...\n      JUMPDEST \t\t\ting new token)\\r\\n    error To...\n      PUSH 0\t\t\tt256 \n      DUP3 \t\t\tnd \n      PUSH 1F\t\t\tDNot\n      DUP4 \t\t\th Toke\n      ADD \t\t\t with TokenIDNotF\n      SLT \t\t\terts with TokenIDNotFound i\n      PUSH [tag] 760\t\t\t    // Reverts with TokenIDNot...\n      JUMPI \t\t\t    // Reverts with TokenIDNot...\n      PUSH 0\t\t\tt\n      DUP1 \t\t\ts\n      REVERT \t\t\te ID hasn’t \n    tag 760\t\t\t    // Reverts with TokenIDNot...\n      JUMPDEST \t\t\t    // Reverts with TokenIDNot...\n      DUP2 \t\t\tkenIDN\n      CALLDATALOAD \t\t\t\\n    error TokenIDNo\n      PUSH [tag] 761\t\t\t\\r\\n\\r\\n    /// @notice Mint a...\n      PUSH [tag] 751\t\t\tice Mint a token by name. If t...\n      DUP3 \t\t\t t\n      PUSH [tag] 679\t\t\tice Mint a token by name. If t...\n      JUMP \t\t\tice Mint a token by name. If t...\n    tag 761\t\t\t\\r\\n\\r\\n    /// @notice Mint a...\n      JUMPDEST \t\t\t\\r\\n\\r\\n    /// @notice Mint a...\n      DUP2 \t\t\tis\n      DUP2 \t\t\tnt the \n      MSTORE \t\t\tsts, mint the exist\n      DUP5 \t\t\t a \n      PUSH 20\t\t\tt, m\n      DUP4 \t\t\t e\n      DUP7 \t\t\tdoes n\n      ADD \t\t\tame does not ex\n      ADD \t\t\the name does not exist, mi\n      GT \t\t\tf the name does not exist, min...\n      ISZERO \t\t\t. If the name does not exist, ...\n      PUSH [tag] 763\t\t\t. If the name does not exist, ...\n      JUMPI \t\t\t. If the name does not exist, ...\n      PUSH 0\t\t\t \n      DUP1 \t\t\ti\n      REVERT \t\t\ttoken with a\n    tag 763\t\t\t. If the name does not exist, ...\n      JUMPDEST \t\t\t. If the name does not exist, ...\n      DUP2 \t\t\ton\n      PUSH 20\t\t\t fun\n      DUP6 \t\t\t@dev T\n      ADD \t\t\t/// @dev The func\n      PUSH 20\t\t\t.\\r\\n \n      DUP4 \t\t\t the na\n      ADD \t\t\tsign the name.\\r\\n  \n      CALLDATACOPY \t\t\tsed ID and assign the name.\\r\\...\n      PUSH 0\t\t\tm\n      SWAP2 \t\t\the ID argument. \n      DUP2 \t\t\the ID argument. \n      ADD \t\t\the ID argument. \n      PUSH 20\t\t\te na\n      ADD \t\t\tes the ID argument. The nam\n      SWAP2 \t\t\t requires the ID argument. The...\n      SWAP1 \t\t\t requires the ID argument. The...\n      SWAP2 \t\t\t requires the ID argument. The...\n      MSTORE \t\t\t requires the ID argument. The...\n      SWAP4 \t\t\tD argum\n      SWAP3 \t\t\ting new token)\\r\\n    error To...\n      POP \t\t\t\n      POP \t\t\t\n      POP \t\t\t\n      JUMP \t\t\ting new token)\\r\\n    error To...\n    tag 75\t\t\token(address to, uint256 amoun...\n      JUMPDEST \t\t\token(address to, uint256 amoun...\n      PUSH 0\t\t\t;\\r\\n   \n      DUP1 \t\t\t   uin\n      PUSH 0\t\t\t56 tok\n      DUP1 \t\t\tID = 0\n      PUSH 0\t\t\t\\n     \n      PUSH A0\t\t\ty i\n      DUP7 \t\t\tt256[] me\n      DUP9 \t\t\t      u\n      SUB \t\t\t\\r\\n        uint256[] mem\n      SLT \t\t\tlse;\\r\\n        uint256[] memo...\n      ISZERO \t\t\t false;\\r\\n        uint256[] m...\n      PUSH [tag] 765\t\t\t false;\\r\\n        uint256[] m...\n      JUMPI \t\t\t false;\\r\\n        uint256[] m...\n      PUSH 0\t\t\tI\n      DUP1 \t\t\tk\n      REVERT \t\t\t _allTokenID\n    tag 765\t\t\t false;\\r\\n        uint256[] m...\n      JUMPDEST \t\t\t false;\\r\\n        uint256[] m...\n      DUP6 \t\t\t 0; i < i\n      CALLDATALOAD \t\t\t (uint256 i = 0; i < id\n      PUSH [tag] 766\t\t\t i++) {\\r\\n            if (kec...\n      DUP2 \t\t\tkecca\n      PUSH [tag] 670\t\t\t i++) {\\r\\n            if (kec...\n      JUMP \t\t\t i++) {\\r\\n            if (kec...\n    tag 766\t\t\t i++) {\\r\\n            if (kec...\n      JUMPDEST \t\t\t i++) {\\r\\n            if (kec...\n      SWAP5 \t\t\t[ids[\n      POP \t\t\t\n      PUSH 20\t\t\tto\n      DUP7 \t\t\t               tok\n      ADD \t\t\t               tok\n      CALLDATALOAD \t\t\t(name))) {\\r\\n                ...\n      PUSH [tag] 767\t\t\t[i];\\r\\n                found ...\n      DUP2 \t\t\t(name))) {\\r\\n                ...\n      PUSH [tag] 670\t\t\t[i];\\r\\n                found ...\n      JUMP \t\t\t[i];\\r\\n                found ...\n    tag 767\t\t\t[i];\\r\\n                found ...\n      JUMPDEST \t\t\t[i];\\r\\n                found ...\n      SWAP4 \t\t\t break;\n      POP \t\t\t\n      PUSH 40\t\t\t  \n      DUP7 \t\t\tif (found) {\\r\\n    \n      ADD \t\t\tif (found) {\\r\\n    \n      CALLDATALOAD \t\t\t  }\\r\\n        if (found) {\\r\\...\n      PUSH 1\t\t\t\n      PUSH 1\t\t\t\n      PUSH 40\t\t\t\n      SHL \t\t\t\n      SUB \t\t\t\n      DUP1 \t\t\t } else {\\r\\n   \n      DUP3 \t\t\t } else {\\r\\n   \n      GT \t\t\t } else {\\r\\n   \n      ISZERO \t\t\t    } else {\\r\\n            //...\n      PUSH [tag] 768\t\t\t    } else {\\r\\n            //...\n      JUMPI \t\t\t    } else {\\r\\n            //...\n      PUSH 0\t\t\te\n      DUP1 \t\t\t/\n      REVERT \t\t\t      // Gen\n    tag 768\t\t\t    } else {\\r\\n            //...\n      JUMPDEST \t\t\t    } else {\\r\\n            //...\n      PUSH [tag] 769\t\t\tgit ID (1000–99999)\\r\\n       ...\n      DUP10 \t\t\t       \n      DUP4 \t\t\tID;\\r\\n \n      DUP11 \t\t\tuint256 n\n      ADD \t\t\t    uint256 newID;\\r\\n  \n      PUSH [tag] 678\t\t\tgit ID (1000–99999)\\r\\n       ...\n      JUMP \t\t\tgit ID (1000–99999)\\r\\n       ...\n    tag 769\t\t\tgit ID (1000–99999)\\r\\n       ...\n      JUMPDEST \t\t\tgit ID (1000–99999)\\r\\n       ...\n      SWAP5 \t\t\tdom 4-5 digit ID (1000–99999)\\...\n      POP \t\t\tdom 4-5 digit ID (1000–99999)\\...\n      PUSH 60\t\t\t  \n      DUP9 \t\t\t         \n      ADD \t\t\t{\\r\\n               \n      CALLDATALOAD \t\t\t          do {\\r\\n            ...\n      SWAP2 \t\t\tttempts = 0;\\r\\n            do...\n      POP \t\t\tttempts = 0;\\r\\n            do...\n      DUP1 \t\t\tec\n      DUP3 \t\t\t(uint256\n      GT \t\t\t + (uint256(kecc\n      ISZERO \t\t\t000 + (uint256(keccak256(abi.e...\n      PUSH [tag] 770\t\t\t000 + (uint256(keccak256(abi.e...\n      JUMPI \t\t\t000 + (uint256(keccak256(abi.e...\n      PUSH 0\t\t\to\n      DUP1 \t\t\te\n      REVERT \t\t\t56(abi.encod\n    tag 770\t\t\t000 + (uint256(keccak256(abi.e...\n      JUMPDEST \t\t\t000 + (uint256(keccak256(abi.e...\n      PUSH [tag] 771\t\t\tmp, block.prevrandao, to, name...\n      DUP10 \t\t\t       \n      DUP4 \t\t\t% 90000)\n      DUP11 \t\t\tttempts))\n      ADD \t\t\te, attempts))) % 90000);\n      PUSH [tag] 678\t\t\tmp, block.prevrandao, to, name...\n      JUMP \t\t\tmp, block.prevrandao, to, name...\n    tag 771\t\t\tmp, block.prevrandao, to, name...\n      JUMPDEST \t\t\tmp, block.prevrandao, to, name...\n      SWAP4 \t\t\tck.timestamp, block.prevrandao...\n      POP \t\t\tck.timestamp, block.prevrandao...\n      PUSH 80\t\t\t < \n      DUP9 \t\t\tre(attemp\n      ADD \t\t\tequire(attempts < 1\n      CALLDATALOAD \t\t\t            require(attempts <...\n      SWAP2 \t\t\tttempts++;\\r\\n                ...\n      POP \t\t\tttempts++;\\r\\n                ...\n      DUP1 \t\t\t s\n      DUP3 \t\t\tind uniq\n      GT \t\t\to find unique sh\n      ISZERO \t\t\te to find unique short token I...\n      PUSH [tag] 772\t\t\te to find unique short token I...\n      JUMPI \t\t\te to find unique short token I...\n      PUSH 0\t\t\t)\n      DUP1 \t\t\tI\n      REVERT \t\t\t token ID\");\n    tag 772\t\t\te to find unique short token I...\n      JUMPDEST \t\t\te to find unique short token I...\n      POP \t\t\te to find unique short token I...\n      PUSH [tag] 773\t\t\t (_allTokenIDs.contains(newID)...\n      DUP9 \t\t\t   requ\n      DUP3 \t\t\t\\r\\n      \n      DUP10 \t\t\tns(newID)\n      ADD \t\t\tntains(newID));\\r\\n       \n      PUSH [tag] 680\t\t\t (_allTokenIDs.contains(newID)...\n      JUMP \t\t\t (_allTokenIDs.contains(newID)...\n    tag 773\t\t\t (_allTokenIDs.contains(newID)...\n      JUMPDEST \t\t\t (_allTokenIDs.contains(newID)...\n      SWAP2 \t\t\t   } while (_allTokenIDs.conta...\n      POP \t\t\t   } while (_allTokenIDs.conta...\n      POP \t\t\t   } while (_allTokenIDs.conta...\n      SWAP3 \t\t\token(address to, uint256 amoun...\n      SWAP6 \t\t\token(address to, uint256 amoun...\n      POP \t\t\token(address to, uint256 amoun...\n      SWAP3 \t\t\token(address to, uint256 amoun...\n      SWAP6 \t\t\token(address to, uint256 amoun...\n      SWAP1 \t\t\token(address to, uint256 amoun...\n      SWAP4 \t\t\token(address to, uint256 amoun...\n      POP \t\t\token(address to, uint256 amoun...\n      JUMP \t\t\token(address to, uint256 amoun...\n    tag 681\t\t\tnIDs.add(newID), \"TokenIDTaken...\n      JUMPDEST \t\t\tnIDs.add(newID), \"TokenIDTaken...\n      DUP1 \t\t\tunt, data);\\r\\n       \n      CALLDATALOAD \t\t\tunt, data);\\r\\n       \n      PUSH 1\t\t\t\n      PUSH 1\t\t\t\n      PUSH 40\t\t\t\n      SHL \t\t\t\n      SUB \t\t\t\n      DUP2 \t\t\t\\r\\n        }\\r\\n    }\\r\\n\\r\\n...\n      AND \t\t\t\\r\\n        }\\r\\n    }\\r\\n\\r\\n...\n      DUP2 \t\t\tD] = name;\\r\\n        }\\r\\n   ...\n      EQ \t\t\tD] = name;\\r\\n        }\\r\\n   ...\n      PUSH [tag] 775\t\t\tnName[newID] = name;\\r\\n      ...\n      JUMPI \t\t\tnName[newID] = name;\\r\\n      ...\n      PUSH 0\t\t\ts\n      DUP1 \t\t\td\n      REVERT \t\t\tburn(address\n    tag 775\t\t\tnName[newID] = name;\\r\\n      ...\n      JUMPDEST \t\t\tnName[newID] = name;\\r\\n      ...\n      SWAP2 \t\t\tnIDs.add(newID), \"TokenIDTaken...\n      SWAP1 \t\t\tnIDs.add(newID), \"TokenIDTaken...\n      POP \t\t\tnIDs.add(newID), \"TokenIDTaken...\n      JUMP \t\t\tnIDs.add(newID), \"TokenIDTaken...\n    tag 79\t\t\tt256 ID, uint256 amount) exter...\n      JUMPDEST \t\t\tt256 ID, uint256 amount) exter...\n      PUSH 0\t\t\tt, ID,\n      DUP1 \t\t\tmount)\n      PUSH 40\t\t\t  \n      DUP4 \t\t\tlaration\\r\n      DUP6 \t\t\terror d\n      SUB \t\t\ttom error declaration\\r\\n\n      SLT \t\t\t Custom error declaration\\r\\n ...\n      ISZERO \t\t\t // Custom error declaration\\r...\n      PUSH [tag] 777\t\t\t // Custom error declaration\\r...\n      JUMPI \t\t\t // Custom error declaration\\r...\n      PUSH 0\t\t\tV\n      DUP1 \t\t\tN\n      REVERT \t\t\tr ProofNotVe\n    tag 777\t\t\t // Custom error declaration\\r...\n      JUMPDEST \t\t\t // Custom error declaration\\r...\n      DUP3 \t\t\troverAddr\n      CALLDATALOAD \t\t\tID, address proverAddre\n      SWAP2 \t\t\t64 requestID, address proverAd...\n      POP \t\t\t64 requestID, address proverAd...\n      PUSH [tag] 778\t\t\t Internal helper: revert if an...\n      PUSH 20\t\t\tro\n      DUP5 \t\t\trt if any\n      ADD \t\t\trevert if any proo\n      PUSH [tag] 681\t\t\t Internal helper: revert if an...\n      JUMP \t\t\t Internal helper: revert if an...\n    tag 778\t\t\t Internal helper: revert if an...\n      JUMPDEST \t\t\t Internal helper: revert if an...\n      SWAP1 \t\t\t   // @dev Internal helper: re...\n      POP \t\t\t   // @dev Internal helper: re...\n      SWAP3 \t\t\tt256 ID, uint256 amount) exter...\n      POP \t\t\tt256 ID, uint256 amount) exter...\n      SWAP3 \t\t\tt256 ID, uint256 amount) exter...\n      SWAP1 \t\t\tt256 ID, uint256 amount) exter...\n      POP \t\t\tt256 ID, uint256 amount) exter...\n      JUMP \t\t\tt256 ID, uint256 amount) exter...\n    tag 85\t\t\tD is still unverified.\\r\\n    ...\n      JUMPDEST \t\t\tD is still unverified.\\r\\n    ...\n      PUSH 20\t\t\tsV\n      DUP1 \t\t\teceiver) internal vie\n      DUP3 \t\t\teceiver) internal vie\n      MSTORE \t\t\teceiver) internal vie\n      DUP3 \t\t\tofRequestIDs;\n      MLOAD \t\t\tofRequestIDs;\n      DUP3 \t\t\t, address sender, \n      DUP3 \t\t\t, address sender, \n      ADD \t\t\t, address sender, \n      DUP2 \t\t\t for (uint256 i = 0; i\n      SWAP1 \t\t\t for (uint256 i = 0; i\n      MSTORE \t\t\t for (uint256 i = 0; i\n      PUSH 0\t\t\t\\r\\n  \n      SWAP2 \t\t\t\\r\\n  \n      SWAP1 \t\t\tsV\n      DUP5 \t\t\try role = token\n      DUP3 \t\t\try role = token\n      ADD \t\t\try role = token\n      SWAP1 \t\t\try role = token\n      PUSH 40\t\t\t{\\r\n      DUP6 \t\t\ts.length; i++) {\\r\\n\n      ADD \t\t\ts.length; i++) {\\r\\n\n      SWAP1 \t\t\ts.length; i++) {\\r\\n\n      DUP5 \t\t\t\\r\\n  \n    tag 780\t\t\t][tempRequestIDs[i]];\\r\\n     ...\n      JUMPDEST \t\t\t][tempRequestIDs[i]];\\r\\n     ...\n      DUP2 \t\t\tDs[i]]\n      DUP2 \t\t\ts\n      LT \t\t\tquestIDs[i]];\n      ISZERO \t\t\t][tempRequestIDs[i]];\\r\\n     ...\n      PUSH [tag] 782\t\t\t][tempRequestIDs[i]];\\r\\n     ...\n      JUMPI \t\t\t][tempRequestIDs[i]];\\r\\n     ...\n      DUP4 \t\t\t        if (k\n      MLOAD \t\t\t        if (k\n      PUSH 1\t\t\t\n      PUSH 1\t\t\t\n      PUSH A0\t\t\t\n      SHL \t\t\t\n      SUB \t\t\t\n      AND \t\t\t            if (keccak256(byte...\n      DUP4 \t\t\t continue;\\r\\n            if (...\n      MSTORE \t\t\t continue;\\r\\n            if (...\n      SWAP3 \t\t\terifier.getProo\n      DUP5 \t\t\terifier.getProo\n      ADD \t\t\terifier.getProo\n      SWAP3 \t\t\terifier.getProo\n      SWAP2 \t\t\tender\"))) {\\r\n      DUP5 \t\t\tender\"))) {\\r\n      ADD \t\t\tender\"))) {\\r\n      SWAP2 \t\t\tender\"))) {\\r\n      PUSH 1\t\t\t)\n      ADD \t\t\t      if \n      PUSH [tag] 780\t\t\t][tempRequestIDs[i]];\\r\\n     ...\n      JUMP \t\t\t][tempRequestIDs[i]];\\r\\n     ...\n    tag 782\t\t\t][tempRequestIDs[i]];\\r\\n     ...\n      JUMPDEST \t\t\t][tempRequestIDs[i]];\\r\\n     ...\n      POP \t\t\t\n      SWAP1 \t\t\tIDs\n      SWAP7 \t\t\tIDs\n      SWAP6 \t\t\tD is still unverified.\\r\\n    ...\n      POP \t\t\t\n      POP \t\t\t\n      POP \t\t\t\n      POP \t\t\t\n      POP \t\t\t\n      POP \t\t\t\n      JUMP \t\t\tD is still unverified.\\r\\n    ...\n    tag 88\t\t\tfied) {\\r\\n                   ...\n      JUMPDEST \t\t\tfied) {\\r\\n                   ...\n      PUSH 0\t\t\te if (\n      DUP1 \t\t\tccak25\n      PUSH 40\t\t\t {\n      DUP4 \t\t\treceiver\"\n      DUP6 \t\t\t6(bytes\n      SUB \t\t\tak256(bytes(\"receiver\")\n      SLT \t\t\tkeccak256(bytes(\"receiver\"))) ...\n      ISZERO \t\t\t== keccak256(bytes(\"receiver\")...\n      PUSH [tag] 784\t\t\t== keccak256(bytes(\"receiver\")...\n      JUMPI \t\t\t== keccak256(bytes(\"receiver\")...\n      PUSH 0\t\t\t \n      DUP1 \t\t\t \n      REVERT \t\t\t            \n    tag 784\t\t\t== keccak256(bytes(\"receiver\")...\n      JUMPDEST \t\t\t== keccak256(bytes(\"receiver\")...\n      DUP3 \t\t\tr, tempRe\n      CALLDATALOAD \t\t\ttatus(receiver, tempReq\n      PUSH 1\t\t\t\n      PUSH 1\t\t\t\n      PUSH 40\t\t\t\n      SHL \t\t\t\n      SUB \t\t\t\n      DUP1 \t\t\tot\n      DUP3 \t\t\tt Proo\n      GT \t\t\tvert ProofNotV\n      ISZERO \t\t\t revert ProofNotVerified(tempR...\n      PUSH [tag] 785\t\t\t revert ProofNotVerified(tempR...\n      JUMPI \t\t\t revert ProofNotVerified(tempR...\n      PUSH 0\t\t\te\n      DUP1 \t\t\tm\n      REVERT \t\t\tfied(tempReq\n    tag 785\t\t\t revert ProofNotVerified(tempR...\n      JUMPDEST \t\t\t revert ProofNotVerified(tempR...\n      DUP2 \t\t\t    }\\r\n      DUP6 \t\t\t         \n      ADD \t\t\t;\\r\\n                }\\r\\n\n      SWAP2 \t\t\t receiver);\\r\\n               ...\n      POP \t\t\t receiver);\\r\\n               ...\n      DUP6 \t\t\t // Ove\n      PUSH 1F\t\t\t\\r\\n\\r\\n\n      DUP4 \t\t\t  \n      ADD \t\t\t}\\r\\n    }\\r\\n\\r\\n \n      SLT \t\t\t    }\\r\\n    }\\r\\n\\r\\n    // O...\n      PUSH [tag] 786\t\t\t   }\\r\\n        }\\r\\n    }\\r\\n...\n      JUMPI \t\t\t   }\\r\\n        }\\r\\n    }\\r\\n...\n      PUSH 0\t\t\tf\n      DUP1 \t\t\ta\n      REVERT \t\t\t safeTransfe\n    tag 786\t\t\t   }\\r\\n        }\\r\\n    }\\r\\n...\n      JUMPDEST \t\t\t   }\\r\\n        }\\r\\n    }\\r\\n...\n      DUP2 \t\t\tof\n      CALLDATALOAD \t\t\t onlyValidProofs\n      PUSH 20\t\t\ttion\n      PUSH [tag] 787\t\t\t        address from,\\r\\n     ...\n      PUSH [tag] 751\t\t\tfrom,\\r\\n        address to,\\r...\n      DUP4 \t\t\t25\n      PUSH [tag] 677\t\t\tfrom,\\r\\n        address to,\\r...\n      JUMP \t\t\tfrom,\\r\\n        address to,\\r...\n    tag 787\t\t\t        address from,\\r\\n     ...\n      JUMPDEST \t\t\t        address from,\\r\\n     ...\n      DUP3 \t\t\t\\n        bytes \n      DUP2 \t\t\t\\n        bytes \n      MSTORE \t\t\t\\n        bytes \n      PUSH 5\t\t\tr\n      SWAP3 \t\t\te per-toke\n      SWAP1 \t\t\te per-toke\n      SWAP3 \t\t\te per-toke\n      SHL \t\t\te per-toke\n      DUP5 \t\t\t/ Enforce per-token\n      ADD \t\t\t/ Enforce per-token\n      DUP2 \t\t\t   // Enforce per-token proo\n      ADD \t\t\t   // Enforce per-token proo\n      SWAP2 \t\t\t   // Enforce per-token proo\n      DUP2 \t\t\t ) public vi\n      DUP2 \t\t\t ) public vi\n      ADD \t\t\t ) public vi\n      SWAP1 \t\t\t ) public vi\n      DUP10 \t\t\t      _checkAllProo\n      DUP5 \t\t\t      _checkAllProo\n      GT \t\t\t      _checkAllProo\n      ISZERO \t\t\t\\n        _checkAllProofsVerif...\n      PUSH [tag] 789\t\t\t\\n        _checkAllProofsVerif...\n      JUMPI \t\t\t\\n        _checkAllProofsVerif...\n      PUSH 0\t\t\tk\n      DUP1 \t\t\t(\n      REVERT \t\t\terified(toke\n    tag 789\t\t\t\\n        _checkAllProofsVerif...\n      JUMPDEST \t\t\t\\n        _checkAllProofsVerif...\n      SWAP5 \t\t\t     // Opt\n      DUP3 \t\t\t     // Opt\n      ADD \t\t\t     // Opt\n      SWAP5 \t\t\t     // Opt\n    tag 790\t\t\tdd any additional custom logic...\n      JUMPDEST \t\t\tdd any additional custom logic...\n      DUP4 \t\t\tl cust\n      DUP7 \t\t\ttio\n      LT \t\t\tdditional custo\n      ISZERO \t\t\tdd any additional custom logic...\n      PUSH [tag] 792\t\t\tdd any additional custom logic...\n      JUMPI \t\t\tdd any additional custom logic...\n      DUP6 \t\t\tata\n      CALLDATALOAD \t\t\tID, amount, data)\n      PUSH [tag] 793\t\t\t   function safeBatchTransferF...\n      DUP2 \t\t\tsferF\n      PUSH [tag] 670\t\t\t   function safeBatchTransferF...\n      JUMP \t\t\t   function safeBatchTransferF...\n    tag 793\t\t\t   function safeBatchTransferF...\n      JUMPDEST \t\t\t   function safeBatchTransferF...\n      DUP3 \t\t\taddress from,\\r\\n   \n      MSTORE \t\t\taddress from,\\r\\n   \n      SWAP5 \t\t\tre\\r\\n        \n      DUP3 \t\t\tre\\r\\n        \n      ADD \t\t\tre\\r\\n        \n      SWAP5 \t\t\tre\\r\\n        \n      SWAP1 \t\t\t      uint25\n      DUP3 \t\t\t      uint25\n      ADD \t\t\t      uint25\n      SWAP1 \t\t\t      uint25\n      PUSH [tag] 790\t\t\tdd any additional custom logic...\n      JUMP \t\t\tdd any additional custom logic...\n    tag 792\t\t\tdd any additional custom logic...\n      JUMPDEST \t\t\tdd any additional custom logic...\n      SWAP7 \t\t\t uint\n      POP \t\t\t\n      POP \t\t\t\n      DUP7 \t\t\temory data\\r\\n    ) \n      ADD \t\t\temory data\\r\\n    ) \n      CALLDATALOAD \t\t\t      bytes memory data\\r\\n   ...\n      SWAP3 \t\t\t      bytes memory data\\r\\n   ...\n      POP \t\t\t\n      POP \t\t\t\n      DUP1 \t\t\tl override {\\r\\n  \n      DUP3 \t\t\tl override {\\r\\n  \n      GT \t\t\tl override {\\r\\n  \n      ISZERO \t\t\ttual override {\\r\\n        req...\n      PUSH [tag] 794\t\t\ttual override {\\r\\n        req...\n      JUMPI \t\t\ttual override {\\r\\n        req...\n      PUSH 0\t\t\t(\n      DUP1 \t\t\ti\n      REVERT \t\t\t   require(t\n    tag 794\t\t\ttual override {\\r\\n        req...\n      JUMPDEST \t\t\ttual override {\\r\\n        req...\n      POP \t\t\ttual override {\\r\\n        req...\n      PUSH [tag] 795\t\t\tunts.length, \"ERC1155: Mismatc...\n      DUP6 \t\t\t     re\n      DUP3 \t\t\tths\");\\r\\n\n      DUP7 \t\t\t array le\n      ADD \t\t\tched array lengths\");\\r\\n \n      PUSH [tag] 678\t\t\tunts.length, \"ERC1155: Mismatc...\n      JUMP \t\t\tunts.length, \"ERC1155: Mismatc...\n    tag 795\t\t\tunts.length, \"ERC1155: Mismatc...\n      JUMPDEST \t\t\tunts.length, \"ERC1155: Mismatc...\n      SWAP2 \t\t\tgth == amounts.length, \"ERC115...\n      POP \t\t\tgth == amounts.length, \"ERC115...\n      POP \t\t\tgth == amounts.length, \"ERC115...\n      SWAP3 \t\t\tfied) {\\r\\n                   ...\n      POP \t\t\tfied) {\\r\\n                   ...\n      SWAP3 \t\t\tfied) {\\r\\n                   ...\n      SWAP1 \t\t\tfied) {\\r\\n                   ...\n      POP \t\t\tfied) {\\r\\n                   ...\n      JUMP \t\t\tfied) {\\r\\n                   ...\n    tag 682\t\t\taddress(0), \"ERC1155: transfer...\n      JUMPDEST \t\t\taddress(0), \"ERC1155: transfer...\n      PUSH 0\t\t\t\\r\\n \n      DUP2 \t\t\tnIDs.\n      MLOAD \t\t\t< tokenIDs.l\n      DUP1 \t\t\t      \n      DUP5 \t\t\t   \n      MSTORE \t\t\ti) {\\r\\n            /\n      PUSH 20\t\t\t pro\n      DUP1 \t\t\the\n      DUP6 \t\t\t   \n      ADD \t\t\t       _chec\n      SWAP5 \t\t\t\\r\\n            _chec\n      POP \t\t\t\\r\\n            _chec\n      DUP1 \t\t\tom\n      DUP5 \t\t\t[i], \n      ADD \t\t\tnIDs[i], from,\n      PUSH 0\t\t\t \n    tag 797\t\t\tferFrom(from, to, tokenIDs[i],...\n      JUMPDEST \t\t\tferFrom(from, to, tokenIDs[i],...\n      DUP4 \t\t\tto, to\n      DUP2 \t\t\tm\n      LT \t\t\tfrom, to, tok\n      ISZERO \t\t\tferFrom(from, to, tokenIDs[i],...\n      PUSH [tag] 799\t\t\tferFrom(from, to, tokenIDs[i],...\n      JUMPI \t\t\tferFrom(from, to, tokenIDs[i],...\n      DUP2 \t\t\t\n      MLOAD \t\t\t\n      DUP8 \t\t\t   }\\r\\n}\\r\\n\n      MSTORE \t\t\t   }\\r\\n}\\r\\n\n      SWAP6 \t\t\t\n      DUP3 \t\t\t\n      ADD \t\t\t\n      SWAP6 \t\t\t\n      SWAP1 \t\t\t\n      DUP3 \t\t\t\n      ADD \t\t\t\n      SWAP1 \t\t\t\n      PUSH 1\t\t\tt\n      ADD \t\t\t, amounts\n      PUSH [tag] 797\t\t\tferFrom(from, to, tokenIDs[i],...\n      JUMP \t\t\tferFrom(from, to, tokenIDs[i],...\n    tag 799\t\t\tferFrom(from, to, tokenIDs[i],...\n      JUMPDEST \t\t\tferFrom(from, to, tokenIDs[i],...\n      POP \t\t\t\n      SWAP5 \t\t\t\n      SWAP6 \t\t\t\n      SWAP5 \t\t\taddress(0), \"ERC1155: transfer...\n      POP \t\t\t\n      POP \t\t\t\n      POP \t\t\t\n      POP \t\t\t\n      POP \t\t\t\n      JUMP \t\t\taddress(0), \"ERC1155: transfer...\n    tag 91\t\t\t\n      JUMPDEST \t\t\t\n      PUSH 20\t\t\t\n      DUP2 \t\t\t\n      MSTORE \t\t\t\n      PUSH 0\t\t\t\n      PUSH [tag] 486\t\t\t\n      PUSH 20\t\t\t\n      DUP4 \t\t\t\n      ADD \t\t\t\n      DUP5 \t\t\t\n      PUSH [tag] 682\t\t\t\n      JUMP \t\t\t\n    tag 683\t\t\t\n      JUMPDEST \t\t\t\n      DUP1 \t\t\t\n      CALLDATALOAD \t\t\t\n      PUSH [tag] 775\t\t\t\n      DUP2 \t\t\t\n      PUSH [tag] 670\t\t\t\n      JUMP \t\t\t\n    tag 684\t\t\t\n      JUMPDEST \t\t\t\n      PUSH 0\t\t\t\n      PUSH 60\t\t\t\n      DUP3 \t\t\t\n      DUP5 \t\t\t\n      SUB \t\t\t\n      SLT \t\t\t\n      ISZERO \t\t\t\n      PUSH [tag] 805\t\t\t\n      JUMPI \t\t\t\n      PUSH 0\t\t\t\n      DUP1 \t\t\t\n      REVERT \t\t\t\n    tag 805\t\t\t\n      JUMPDEST \t\t\t\n      POP \t\t\t\n      SWAP2 \t\t\t\n      SWAP1 \t\t\t\n      POP \t\t\t\n      JUMP \t\t\t\n    tag 102\t\t\t\n      JUMPDEST \t\t\t\n      PUSH 0\t\t\t\n      DUP1 \t\t\t\n      PUSH 0\t\t\t\n      DUP1 \t\t\t\n      PUSH 0\t\t\t\n      DUP1 \t\t\t\n      PUSH 0\t\t\t\n      DUP1 \t\t\t\n      PUSH 0\t\t\t\n      DUP1 \t\t\t\n      PUSH E0\t\t\t\n      DUP12 \t\t\t\n      DUP14 \t\t\t\n      SUB \t\t\t\n      SLT \t\t\t\n      ISZERO \t\t\t\n      PUSH [tag] 807\t\t\t\n      JUMPI \t\t\t\n      PUSH 0\t\t\t\n      DUP1 \t\t\t\n      REVERT \t\t\t\n    tag 807\t\t\t\n      JUMPDEST \t\t\t\n      PUSH [tag] 808\t\t\t\n      DUP12 \t\t\t\n      PUSH [tag] 681\t\t\t\n      JUMP \t\t\t\n    tag 808\t\t\t\n      JUMPDEST \t\t\t\n      SWAP10 \t\t\t\n      POP \t\t\t\n      PUSH 20\t\t\t\n      DUP12 \t\t\t\n      ADD \t\t\t\n      CALLDATALOAD \t\t\t\n      PUSH 1\t\t\t\n      PUSH 1\t\t\t\n      PUSH 40\t\t\t\n      SHL \t\t\t\n      SUB \t\t\t\n      DUP1 \t\t\t\n      DUP3 \t\t\t\n      GT \t\t\t\n      ISZERO \t\t\t\n      PUSH [tag] 809\t\t\t\n      JUMPI \t\t\t\n      PUSH 0\t\t\t\n      DUP1 \t\t\t\n      REVERT \t\t\t\n    tag 809\t\t\t\n      JUMPDEST \t\t\t\n      PUSH [tag] 810\t\t\t\n      DUP15 \t\t\t\n      DUP4 \t\t\t\n      DUP16 \t\t\t\n      ADD \t\t\t\n      PUSH [tag] 674\t\t\t\n      JUMP \t\t\t\n    tag 810\t\t\t\n      JUMPDEST \t\t\t\n      SWAP1 \t\t\t\n      SWAP12 \t\t\t\n      POP \t\t\t\n      SWAP10 \t\t\t\n      POP \t\t\t\n      DUP10 \t\t\t\n      SWAP2 \t\t\t\n      POP \t\t\t\n      PUSH [tag] 811\t\t\t\n      PUSH 40\t\t\t\n      DUP15 \t\t\t\n      ADD \t\t\t\n      PUSH [tag] 683\t\t\t\n      JUMP \t\t\t\n    tag 811\t\t\t\n      JUMPDEST \t\t\t\n      SWAP9 \t\t\t\n      POP \t\t\t\n      PUSH 60\t\t\t\n      DUP14 \t\t\t\n      ADD \t\t\t\n      CALLDATALOAD \t\t\t\n      SWAP2 \t\t\t\n      POP \t\t\t\n      DUP1 \t\t\t\n      DUP3 \t\t\t\n      GT \t\t\t\n      ISZERO \t\t\t\n      PUSH [tag] 812\t\t\t\n      JUMPI \t\t\t\n      PUSH 0\t\t\t\n      DUP1 \t\t\t\n      REVERT \t\t\t\n    tag 812\t\t\t\n      JUMPDEST \t\t\t\n      PUSH [tag] 813\t\t\t\n      DUP15 \t\t\t\n      DUP4 \t\t\t\n      DUP16 \t\t\t\n      ADD \t\t\t\n      PUSH [tag] 674\t\t\t\n      JUMP \t\t\t\n    tag 813\t\t\t\n      JUMPDEST \t\t\t\n      SWAP1 \t\t\t\n      SWAP9 \t\t\t\n      POP \t\t\t\n      SWAP7 \t\t\t\n      POP \t\t\t\n      PUSH 80\t\t\t\n      DUP14 \t\t\t\n      ADD \t\t\t\n      CALLDATALOAD \t\t\t\n      SWAP6 \t\t\t\n      POP \t\t\t\n      PUSH A0\t\t\t\n      DUP14 \t\t\t\n      ADD \t\t\t\n      CALLDATALOAD \t\t\t\n      SWAP2 \t\t\t\n      POP \t\t\t\n      DUP1 \t\t\t\n      DUP3 \t\t\t\n      GT \t\t\t\n      ISZERO \t\t\t\n      PUSH [tag] 814\t\t\t\n      JUMPI \t\t\t\n      PUSH 0\t\t\t\n      DUP1 \t\t\t\n      REVERT \t\t\t\n    tag 814\t\t\t\n      JUMPDEST \t\t\t\n      PUSH [tag] 815\t\t\t\n      DUP15 \t\t\t\n      DUP4 \t\t\t\n      DUP16 \t\t\t\n      ADD \t\t\t\n      PUSH [tag] 674\t\t\t\n      JUMP \t\t\t\n    tag 815\t\t\t\n      JUMPDEST \t\t\t\n      SWAP1 \t\t\t\n      SWAP6 \t\t\t\n      POP \t\t\t\n      SWAP4 \t\t\t\n      POP \t\t\t\n      PUSH C0\t\t\t\n      DUP14 \t\t\t\n      ADD \t\t\t\n      CALLDATALOAD \t\t\t\n      SWAP2 \t\t\t\n      POP \t\t\t\n      DUP1 \t\t\t\n      DUP3 \t\t\t\n      GT \t\t\t\n      ISZERO \t\t\t\n      PUSH [tag] 816\t\t\t\n      JUMPI \t\t\t\n      PUSH 0\t\t\t\n      DUP1 \t\t\t\n      REVERT \t\t\t\n    tag 816\t\t\t\n      JUMPDEST \t\t\t\n      POP \t\t\t\n      PUSH [tag] 817\t\t\t\n      DUP14 \t\t\t\n      DUP3 \t\t\t\n      DUP15 \t\t\t\n      ADD \t\t\t\n      PUSH [tag] 684\t\t\t\n      JUMP \t\t\t\n    tag 817\t\t\t\n      JUMPDEST \t\t\t\n      SWAP2 \t\t\t\n      POP \t\t\t\n      POP \t\t\t\n      SWAP3 \t\t\t\n      SWAP6 \t\t\t\n      SWAP9 \t\t\t\n      SWAP12 \t\t\t\n      SWAP2 \t\t\t\n      SWAP5 \t\t\t\n      SWAP8 \t\t\t\n      SWAP11 \t\t\t\n      POP \t\t\t\n      SWAP3 \t\t\t\n      SWAP6 \t\t\t\n      SWAP9 \t\t\t\n      POP \t\t\t\n      JUMP \t\t\t\n    tag 118\t\t\t\n      JUMPDEST \t\t\t\n      PUSH 60\t\t\t\n      DUP2 \t\t\t\n      MSTORE \t\t\t\n      PUSH 0\t\t\t\n      PUSH [tag] 820\t\t\t\n      PUSH 60\t\t\t\n      DUP4 \t\t\t\n      ADD \t\t\t\n      DUP7 \t\t\t\n      PUSH [tag] 672\t\t\t\n      JUMP \t\t\t\n    tag 820\t\t\t\n      JUMPDEST \t\t\t\n      DUP3 \t\t\t\n      DUP2 \t\t\t\n      SUB \t\t\t\n      PUSH 20\t\t\t\n      DUP5 \t\t\t\n      ADD \t\t\t\n      MSTORE \t\t\t\n      PUSH [tag] 821\t\t\t\n      DUP2 \t\t\t\n      DUP7 \t\t\t\n      PUSH [tag] 672\t\t\t\n      JUMP \t\t\t\n    tag 821\t\t\t\n      JUMPDEST \t\t\t\n      SWAP1 \t\t\t\n      POP \t\t\t\n      DUP3 \t\t\t\n      DUP2 \t\t\t\n      SUB \t\t\t\n      PUSH 40\t\t\t\n      DUP5 \t\t\t\n      ADD \t\t\t\n      MSTORE \t\t\t\n      PUSH [tag] 822\t\t\t\n      DUP2 \t\t\t\n      DUP6 \t\t\t\n      PUSH [tag] 672\t\t\t\n      JUMP \t\t\t\n    tag 822\t\t\t\n      JUMPDEST \t\t\t\n      SWAP7 \t\t\t\n      SWAP6 \t\t\t\n      POP \t\t\t\n      POP \t\t\t\n      POP \t\t\t\n      POP \t\t\t\n      POP \t\t\t\n      POP \t\t\t\n      JUMP \t\t\t\n    tag 685\t\t\t\n      JUMPDEST \t\t\t\n      DUP1 \t\t\t\n      ISZERO \t\t\t\n      ISZERO \t\t\t\n      DUP2 \t\t\t\n      EQ \t\t\t\n      PUSH [tag] 227\t\t\t\n      JUMPI \t\t\t\n      PUSH 0\t\t\t\n      DUP1 \t\t\t\n      REVERT \t\t\t\n    tag 121\t\t\t\n      JUMPDEST \t\t\t\n      PUSH 0\t\t\t\n      DUP1 \t\t\t\n      PUSH 40\t\t\t\n      DUP4 \t\t\t\n      DUP6 \t\t\t\n      SUB \t\t\t\n      SLT \t\t\t\n      ISZERO \t\t\t\n      PUSH [tag] 826\t\t\t\n      JUMPI \t\t\t\n      PUSH 0\t\t\t\n      DUP1 \t\t\t\n      REVERT \t\t\t\n    tag 826\t\t\t\n      JUMPDEST \t\t\t\n      DUP3 \t\t\t\n      CALLDATALOAD \t\t\t\n      PUSH [tag] 827\t\t\t\n      DUP2 \t\t\t\n      PUSH [tag] 670\t\t\t\n      JUMP \t\t\t\n    tag 827\t\t\t\n      JUMPDEST \t\t\t\n      SWAP2 \t\t\t\n      POP \t\t\t\n      PUSH 20\t\t\t\n      DUP4 \t\t\t\n      ADD \t\t\t\n      CALLDATALOAD \t\t\t\n      PUSH [tag] 828\t\t\t\n      DUP2 \t\t\t\n      PUSH [tag] 685\t\t\t\n      JUMP \t\t\t\n    tag 828\t\t\t\n      JUMPDEST \t\t\t\n      DUP1 \t\t\t\n      SWAP2 \t\t\t\n      POP \t\t\t\n      POP \t\t\t\n      SWAP3 \t\t\t\n      POP \t\t\t\n      SWAP3 \t\t\t\n      SWAP1 \t\t\t\n      POP \t\t\t\n      JUMP \t\t\t\n    tag 125\t\t\t\n      JUMPDEST \t\t\t\n      PUSH 0\t\t\t\n      DUP1 \t\t\t\n      PUSH 0\t\t\t\n      DUP1 \t\t\t\n      PUSH 60\t\t\t\n      DUP6 \t\t\t\n      DUP8 \t\t\t\n      SUB \t\t\t\n      SLT \t\t\t\n      ISZERO \t\t\t\n      PUSH [tag] 830\t\t\t\n      JUMPI \t\t\t\n      PUSH 0\t\t\t\n      DUP1 \t\t\t\n      REVERT \t\t\t\n    tag 830\t\t\t\n      JUMPDEST \t\t\t\n      DUP5 \t\t\t\n      CALLDATALOAD \t\t\t\n      SWAP4 \t\t\t\n      POP \t\t\t\n      PUSH [tag] 831\t\t\t\n      PUSH 20\t\t\t\n      DUP7 \t\t\t\n      ADD \t\t\t\n      PUSH [tag] 681\t\t\t\n      JUMP \t\t\t\n    tag 831\t\t\t\n      JUMPDEST \t\t\t\n      SWAP3 \t\t\t\n      POP \t\t\t\n      PUSH 40\t\t\t\n      DUP6 \t\t\t\n      ADD \t\t\t\n      CALLDATALOAD \t\t\t\n      PUSH 1\t\t\t\n      PUSH 1\t\t\t\n      PUSH 40\t\t\t\n      SHL \t\t\t\n      SUB \t\t\t\n      DUP2 \t\t\t\n      GT \t\t\t\n      ISZERO \t\t\t\n      PUSH [tag] 832\t\t\t\n      JUMPI \t\t\t\n      PUSH 0\t\t\t\n      DUP1 \t\t\t\n      REVERT \t\t\t\n    tag 832\t\t\t\n      JUMPDEST \t\t\t\n      PUSH [tag] 833\t\t\t\n      DUP8 \t\t\t\n      DUP3 \t\t\t\n      DUP9 \t\t\t\n      ADD \t\t\t\n      PUSH [tag] 674\t\t\t\n      JUMP \t\t\t\n    tag 833\t\t\t\n      JUMPDEST \t\t\t\n      SWAP6 \t\t\t\n      SWAP9 \t\t\t\n      SWAP5 \t\t\t\n      SWAP8 \t\t\t\n      POP \t\t\t\n      SWAP6 \t\t\t\n      POP \t\t\t\n      POP \t\t\t\n      POP \t\t\t\n      POP \t\t\t\n      JUMP \t\t\t\n    tag 141\t\t\t\n      JUMPDEST \t\t\t\n      PUSH 0\t\t\t\n      DUP1 \t\t\t\n      PUSH 40\t\t\t\n      DUP4 \t\t\t\n      DUP6 \t\t\t\n      SUB \t\t\t\n      SLT \t\t\t\n      ISZERO \t\t\t\n      PUSH [tag] 836\t\t\t\n      JUMPI \t\t\t\n      PUSH 0\t\t\t\n      DUP1 \t\t\t\n      REVERT \t\t\t\n    tag 836\t\t\t\n      JUMPDEST \t\t\t\n      DUP3 \t\t\t\n      CALLDATALOAD \t\t\t\n      PUSH [tag] 837\t\t\t\n      DUP2 \t\t\t\n      PUSH [tag] 670\t\t\t\n      JUMP \t\t\t\n    tag 837\t\t\t\n      JUMPDEST \t\t\t\n      SWAP2 \t\t\t\n      POP \t\t\t\n      PUSH 20\t\t\t\n      DUP4 \t\t\t\n      ADD \t\t\t\n      CALLDATALOAD \t\t\t\n      PUSH [tag] 828\t\t\t\n      DUP2 \t\t\t\n      PUSH [tag] 670\t\t\t\n      JUMP \t\t\t\n    tag 146\t\t\t\n      JUMPDEST \t\t\t\n      PUSH 0\t\t\t\n      DUP1 \t\t\t\n      PUSH 0\t\t\t\n      DUP1 \t\t\t\n      PUSH 0\t\t\t\n      PUSH A0\t\t\t\n      DUP7 \t\t\t\n      DUP9 \t\t\t\n      SUB \t\t\t\n      SLT \t\t\t\n      ISZERO \t\t\t\n      PUSH [tag] 840\t\t\t\n      JUMPI \t\t\t\n      PUSH 0\t\t\t\n      DUP1 \t\t\t\n      REVERT \t\t\t\n    tag 840\t\t\t\n      JUMPDEST \t\t\t\n      DUP6 \t\t\t\n      CALLDATALOAD \t\t\t\n      PUSH [tag] 841\t\t\t\n      DUP2 \t\t\t\n      PUSH [tag] 670\t\t\t\n      JUMP \t\t\t\n    tag 841\t\t\t\n      JUMPDEST \t\t\t\n      SWAP5 \t\t\t\n      POP \t\t\t\n      PUSH 20\t\t\t\n      DUP7 \t\t\t\n      ADD \t\t\t\n      CALLDATALOAD \t\t\t\n      PUSH [tag] 842\t\t\t\n      DUP2 \t\t\t\n      PUSH [tag] 670\t\t\t\n      JUMP \t\t\t\n    tag 842\t\t\t\n      JUMPDEST \t\t\t\n      SWAP4 \t\t\t\n      POP \t\t\t\n      PUSH 40\t\t\t\n      DUP7 \t\t\t\n      ADD \t\t\t\n      CALLDATALOAD \t\t\t\n      SWAP3 \t\t\t\n      POP \t\t\t\n      PUSH 60\t\t\t\n      DUP7 \t\t\t\n      ADD \t\t\t\n      CALLDATALOAD \t\t\t\n      SWAP2 \t\t\t\n      POP \t\t\t\n      PUSH 80\t\t\t\n      DUP7 \t\t\t\n      ADD \t\t\t\n      CALLDATALOAD \t\t\t\n      PUSH 1\t\t\t\n      PUSH 1\t\t\t\n      PUSH 40\t\t\t\n      SHL \t\t\t\n      SUB \t\t\t\n      DUP2 \t\t\t\n      GT \t\t\t\n      ISZERO \t\t\t\n      PUSH [tag] 843\t\t\t\n      JUMPI \t\t\t\n      PUSH 0\t\t\t\n      DUP1 \t\t\t\n      REVERT \t\t\t\n    tag 843\t\t\t\n      JUMPDEST \t\t\t\n      PUSH [tag] 773\t\t\t\n      DUP9 \t\t\t\n      DUP3 \t\t\t\n      DUP10 \t\t\t\n      ADD \t\t\t\n      PUSH [tag] 680\t\t\t\n      JUMP \t\t\t\n    tag 153\t\t\t\n      JUMPDEST \t\t\t\n      PUSH 0\t\t\t\n      DUP1 \t\t\t\n      PUSH 0\t\t\t\n      PUSH 60\t\t\t\n      DUP5 \t\t\t\n      DUP7 \t\t\t\n      SUB \t\t\t\n      SLT \t\t\t\n      ISZERO \t\t\t\n      PUSH [tag] 846\t\t\t\n      JUMPI \t\t\t\n      PUSH 0\t\t\t\n      DUP1 \t\t\t\n      REVERT \t\t\t\n    tag 846\t\t\t\n      JUMPDEST \t\t\t\n      DUP4 \t\t\t\n      CALLDATALOAD \t\t\t\n      PUSH [tag] 847\t\t\t\n      DUP2 \t\t\t\n      PUSH [tag] 670\t\t\t\n      JUMP \t\t\t\n    tag 847\t\t\t\n      JUMPDEST \t\t\t\n      SWAP6 \t\t\t\n      PUSH 20\t\t\t\n      DUP6 \t\t\t\n      ADD \t\t\t\n      CALLDATALOAD \t\t\t\n      SWAP6 \t\t\t\n      POP \t\t\t\n      PUSH 40\t\t\t\n      SWAP1 \t\t\t\n      SWAP5 \t\t\t\n      ADD \t\t\t\n      CALLDATALOAD \t\t\t\n      SWAP4 \t\t\t\n      SWAP3 \t\t\t\n      POP \t\t\t\n      POP \t\t\t\n      POP \t\t\t\n      JUMP \t\t\t\n    tag 164\t\t\t\n      JUMPDEST \t\t\t\n      PUSH 4E487B71\t\t\t\n      PUSH E0\t\t\t\n      SHL \t\t\t\n      PUSH 0\t\t\t\n      MSTORE \t\t\t\n      PUSH 32\t\t\t\n      PUSH 4\t\t\t\n      MSTORE \t\t\t\n      PUSH 24\t\t\t\n      PUSH 0\t\t\t\n      REVERT \t\t\t\n    tag 166\t\t\t\n      JUMPDEST \t\t\t\n      PUSH 1\t\t\t\n      DUP2 \t\t\t\n      DUP2 \t\t\t\n      SHR \t\t\t\n      SWAP1 \t\t\t\n      DUP3 \t\t\t\n      AND \t\t\t\n      DUP1 \t\t\t\n      PUSH [tag] 850\t\t\t\n      JUMPI \t\t\t\n      PUSH 7F\t\t\t\n      DUP3 \t\t\t\n      AND \t\t\t\n      SWAP2 \t\t\t\n      POP \t\t\t\n    tag 850\t\t\t\n      JUMPDEST \t\t\t\n      PUSH 20\t\t\t\n      DUP3 \t\t\t\n      LT \t\t\t\n      DUP2 \t\t\t\n      SUB \t\t\t\n      PUSH [tag] 805\t\t\t\n      JUMPI \t\t\t\n      PUSH 4E487B71\t\t\t\n      PUSH E0\t\t\t\n      SHL \t\t\t\n      PUSH 0\t\t\t\n      MSTORE \t\t\t\n      PUSH 22\t\t\t\n      PUSH 4\t\t\t\n      MSTORE \t\t\t\n      PUSH 24\t\t\t\n      PUSH 0\t\t\t\n      REVERT \t\t\t\n    tag 686\t\t\t\n      JUMPDEST \t\t\t\n      PUSH 4E487B71\t\t\t\n      PUSH E0\t\t\t\n      SHL \t\t\t\n      PUSH 0\t\t\t\n      MSTORE \t\t\t\n      PUSH 11\t\t\t\n      PUSH 4\t\t\t\n      MSTORE \t\t\t\n      PUSH 24\t\t\t\n      PUSH 0\t\t\t\n      REVERT \t\t\t\n    tag 169\t\t\t\n      JUMPDEST \t\t\t\n      PUSH 0\t\t\t\n      PUSH 1\t\t\t\n      DUP3 \t\t\t\n      ADD \t\t\t\n      PUSH [tag] 855\t\t\t\n      JUMPI \t\t\t\n      PUSH [tag] 855\t\t\t\n      PUSH [tag] 686\t\t\t\n      JUMP \t\t\t\n    tag 855\t\t\t\n      JUMPDEST \t\t\t\n      POP \t\t\t\n      PUSH 1\t\t\t\n      ADD \t\t\t\n      SWAP1 \t\t\t\n      JUMP \t\t\t\n    tag 236\t\t\t\n      JUMPDEST \t\t\t\n      DUP2 \t\t\t\n      DUP2 \t\t\t\n      SUB \t\t\t\n      DUP2 \t\t\t\n      DUP2 \t\t\t\n      GT \t\t\t\n      ISZERO \t\t\t\n      PUSH [tag] 155\t\t\t\n      JUMPI \t\t\t\n      PUSH [tag] 155\t\t\t\n      PUSH [tag] 686\t\t\t\n      JUMP \t\t\t\n    tag 245\t\t\t\n      JUMPDEST \t\t\t\n      PUSH 4E487B71\t\t\t\n      PUSH E0\t\t\t\n      SHL \t\t\t\n      PUSH 0\t\t\t\n      MSTORE \t\t\t\n      PUSH 31\t\t\t\n      PUSH 4\t\t\t\n      MSTORE \t\t\t\n      PUSH 24\t\t\t\n      PUSH 0\t\t\t\n      REVERT \t\t\t\n    tag 262\t\t\t\n      JUMPDEST \t\t\t\n      DUP2 \t\t\t\n      DUP4 \t\t\t\n      DUP3 \t\t\t\n      CALLDATACOPY \t\t\t\n      PUSH 0\t\t\t\n      SWAP2 \t\t\t\n      ADD \t\t\t\n      SWAP1 \t\t\t\n      DUP2 \t\t\t\n      MSTORE \t\t\t\n      SWAP2 \t\t\t\n      SWAP1 \t\t\t\n      POP \t\t\t\n      JUMP \t\t\t\n    tag 266\t\t\t\n      JUMPDEST \t\t\t\n      PUSH 0\t\t\t\n      DUP1 \t\t\t\n      DUP4 \t\t\t\n      SLOAD \t\t\t\n      PUSH [tag] 865\t\t\t\n      DUP2 \t\t\t\n      PUSH [tag] 166\t\t\t\n      JUMP \t\t\t\n    tag 865\t\t\t\n      JUMPDEST \t\t\t\n      PUSH 1\t\t\t\n      DUP3 \t\t\t\n      DUP2 \t\t\t\n      AND \t\t\t\n      DUP1 \t\t\t\n      ISZERO \t\t\t\n      PUSH [tag] 867\t\t\t\n      JUMPI \t\t\t\n      PUSH 1\t\t\t\n      DUP2 \t\t\t\n      EQ \t\t\t\n      PUSH [tag] 868\t\t\t\n      JUMPI \t\t\t\n      PUSH [tag] 866\t\t\t\n      JUMP \t\t\t\n    tag 867\t\t\t\n      JUMPDEST \t\t\t\n      PUSH FF\t\t\t\n      NOT \t\t\t\n      DUP5 \t\t\t\n      AND \t\t\t\n      DUP8 \t\t\t\n      MSTORE \t\t\t\n      DUP3 \t\t\t\n      ISZERO \t\t\t\n      ISZERO \t\t\t\n      DUP4 \t\t\t\n      MUL \t\t\t\n      DUP8 \t\t\t\n      ADD \t\t\t\n      SWAP5 \t\t\t\n      POP \t\t\t\n      PUSH [tag] 866\t\t\t\n      JUMP \t\t\t\n    tag 868\t\t\t\n      JUMPDEST \t\t\t\n      DUP8 \t\t\t\n      PUSH 0\t\t\t\n      MSTORE \t\t\t\n      PUSH 20\t\t\t\n      DUP1 \t\t\t\n      PUSH 0\t\t\t\n      KECCAK256 \t\t\t\n      PUSH 0\t\t\t\n    tag 869\t\t\t\n      JUMPDEST \t\t\t\n      DUP6 \t\t\t\n      DUP2 \t\t\t\n      LT \t\t\t\n      ISZERO \t\t\t\n      PUSH [tag] 871\t\t\t\n      JUMPI \t\t\t\n      DUP2 \t\t\t\n      SLOAD \t\t\t\n      DUP11 \t\t\t\n      DUP3 \t\t\t\n      ADD \t\t\t\n      MSTORE \t\t\t\n      SWAP1 \t\t\t\n      DUP5 \t\t\t\n      ADD \t\t\t\n      SWAP1 \t\t\t\n      DUP3 \t\t\t\n      ADD \t\t\t\n      PUSH [tag] 869\t\t\t\n      JUMP \t\t\t\n    tag 871\t\t\t\n      JUMPDEST \t\t\t\n      POP \t\t\t\n      POP \t\t\t\n      POP \t\t\t\n      DUP3 \t\t\t\n      DUP8 \t\t\t\n      ADD \t\t\t\n      SWAP5 \t\t\t\n      POP \t\t\t\n    tag 866\t\t\t\n      JUMPDEST \t\t\t\n      POP \t\t\t\n      SWAP3 \t\t\t\n      SWAP7 \t\t\t\n      SWAP6 \t\t\t\n      POP \t\t\t\n      POP \t\t\t\n      POP \t\t\t\n      POP \t\t\t\n      POP \t\t\t\n      POP \t\t\t\n      JUMP \t\t\t\n    tag 279\t\t\t\n      JUMPDEST \t\t\t\n      DUP7 \t\t\t\n      DUP2 \t\t\t\n      MSTORE \t\t\t\n      DUP6 \t\t\t\n      PUSH 20\t\t\t\n      DUP3 \t\t\t\n      ADD \t\t\t\n      MSTORE \t\t\t\n      PUSH FFFFFFFFFFFFFFFFFFFFFFFF\t\t\t\n      NOT \t\t\t\n      DUP6 \t\t\t\n      PUSH 60\t\t\t\n      SHL \t\t\t\n      AND \t\t\t\n      PUSH 40\t\t\t\n      DUP3 \t\t\t\n      ADD \t\t\t\n      MSTORE \t\t\t\n      DUP3 \t\t\t\n      DUP5 \t\t\t\n      PUSH 54\t\t\t\n      DUP4 \t\t\t\n      ADD \t\t\t\n      CALLDATACOPY \t\t\t\n      PUSH 54\t\t\t\n      SWAP3 \t\t\t\n      ADD \t\t\t\n      SWAP2 \t\t\t\n      DUP3 \t\t\t\n      ADD \t\t\t\n      MSTORE \t\t\t\n      PUSH 74\t\t\t\n      ADD \t\t\t\n      SWAP5 \t\t\t\n      SWAP4 \t\t\t\n      POP \t\t\t\n      POP \t\t\t\n      POP \t\t\t\n      POP \t\t\t\n      JUMP \t\t\t\n    tag 281\t\t\t\n      JUMPDEST \t\t\t\n      PUSH 0\t\t\t\n      DUP3 \t\t\t\n      PUSH [tag] 874\t\t\t\n      JUMPI \t\t\t\n      PUSH 4E487B71\t\t\t\n      PUSH E0\t\t\t\n      SHL \t\t\t\n      PUSH 0\t\t\t\n      MSTORE \t\t\t\n      PUSH 12\t\t\t\n      PUSH 4\t\t\t\n      MSTORE \t\t\t\n      PUSH 24\t\t\t\n      PUSH 0\t\t\t\n      REVERT \t\t\t\n    tag 874\t\t\t\n      JUMPDEST \t\t\t\n      POP \t\t\t\n      MOD \t\t\t\n      SWAP1 \t\t\t\n      JUMP \t\t\t\n    tag 283\t\t\t\n      JUMPDEST \t\t\t\n      DUP1 \t\t\t\n      DUP3 \t\t\t\n      ADD \t\t\t\n      DUP1 \t\t\t\n      DUP3 \t\t\t\n      GT \t\t\t\n      ISZERO \t\t\t\n      PUSH [tag] 155\t\t\t\n      JUMPI \t\t\t\n      PUSH [tag] 155\t\t\t\n      PUSH [tag] 686\t\t\t\n      JUMP \t\t\t\n    tag 688\t\t\t\n      JUMPDEST \t\t\t\n      PUSH 1F\t\t\t\n      DUP3 \t\t\t\n      GT \t\t\t\n      ISZERO \t\t\t\n      PUSH [tag] 364\t\t\t\n      JUMPI \t\t\t\n      PUSH 0\t\t\t\n      DUP2 \t\t\t\n      DUP2 \t\t\t\n      MSTORE \t\t\t\n      PUSH 20\t\t\t\n      DUP2 \t\t\t\n      KECCAK256 \t\t\t\n      PUSH 1F\t\t\t\n      DUP6 \t\t\t\n      ADD \t\t\t\n      PUSH 5\t\t\t\n      SHR \t\t\t\n      DUP2 \t\t\t\n      ADD \t\t\t\n      PUSH 20\t\t\t\n      DUP7 \t\t\t\n      LT \t\t\t\n      ISZERO \t\t\t\n      PUSH [tag] 882\t\t\t\n      JUMPI \t\t\t\n      POP \t\t\t\n      DUP1 \t\t\t\n    tag 882\t\t\t\n      JUMPDEST \t\t\t\n      PUSH 1F\t\t\t\n      DUP6 \t\t\t\n      ADD \t\t\t\n      PUSH 5\t\t\t\n      SHR \t\t\t\n      DUP3 \t\t\t\n      ADD \t\t\t\n      SWAP2 \t\t\t\n      POP \t\t\t\n    tag 883\t\t\t\n      JUMPDEST \t\t\t\n      DUP2 \t\t\t\n      DUP2 \t\t\t\n      LT \t\t\t\n      ISZERO \t\t\t\n      PUSH [tag] 306\t\t\t\n      JUMPI \t\t\t\n      DUP3 \t\t\t\n      DUP2 \t\t\t\n      SSTORE \t\t\t\n      PUSH 1\t\t\t\n      ADD \t\t\t\n      PUSH [tag] 883\t\t\t\n      JUMP \t\t\t\n    tag 297\t\t\t\n      JUMPDEST \t\t\t\n      PUSH 1\t\t\t\n      PUSH 1\t\t\t\n      PUSH 40\t\t\t\n      SHL \t\t\t\n      SUB \t\t\t\n      DUP4 \t\t\t\n      GT \t\t\t\n      ISZERO \t\t\t\n      PUSH [tag] 889\t\t\t\n      JUMPI \t\t\t\n      PUSH [tag] 889\t\t\t\n      PUSH [tag] 173\t\t\t\n      JUMP \t\t\t\n    tag 889\t\t\t\n      JUMPDEST \t\t\t\n      PUSH [tag] 890\t\t\t\n      DUP4 \t\t\t\n      PUSH [tag] 891\t\t\t\n      DUP4 \t\t\t\n      SLOAD \t\t\t\n      PUSH [tag] 166\t\t\t\n      JUMP \t\t\t\n    tag 891\t\t\t\n      JUMPDEST \t\t\t\n      DUP4 \t\t\t\n      PUSH [tag] 688\t\t\t\n      JUMP \t\t\t\n    tag 890\t\t\t\n      JUMPDEST \t\t\t\n      PUSH 0\t\t\t\n      PUSH 1F\t\t\t\n      DUP5 \t\t\t\n      GT \t\t\t\n      PUSH 1\t\t\t\n      DUP2 \t\t\t\n      EQ \t\t\t\n      PUSH [tag] 893\t\t\t\n      JUMPI \t\t\t\n      PUSH 0\t\t\t\n      DUP6 \t\t\t\n      ISZERO \t\t\t\n      PUSH [tag] 894\t\t\t\n      JUMPI \t\t\t\n      POP \t\t\t\n      DUP4 \t\t\t\n      DUP3 \t\t\t\n      ADD \t\t\t\n      CALLDATALOAD \t\t\t\n    tag 894\t\t\t\n      JUMPDEST \t\t\t\n      PUSH 0\t\t\t\n      NOT \t\t\t\n      PUSH 3\t\t\t\n      DUP8 \t\t\t\n      SWAP1 \t\t\t\n      SHL \t\t\t\n      SHR \t\t\t\n      NOT \t\t\t\n      AND \t\t\t\n      PUSH 1\t\t\t\n      DUP7 \t\t\t\n      SWAP1 \t\t\t\n      SHL \t\t\t\n      OR \t\t\t\n      DUP4 \t\t\t\n      SSTORE \t\t\t\n      PUSH [tag] 465\t\t\t\n      JUMP \t\t\t\n    tag 893\t\t\t\n      JUMPDEST \t\t\t\n      PUSH 0\t\t\t\n      DUP4 \t\t\t\n      DUP2 \t\t\t\n      MSTORE \t\t\t\n      PUSH 20\t\t\t\n      SWAP1 \t\t\t\n      KECCAK256 \t\t\t\n      PUSH 1F\t\t\t\n      NOT \t\t\t\n      DUP7 \t\t\t\n      AND \t\t\t\n      SWAP1 \t\t\t\n      DUP4 \t\t\t\n    tag 897\t\t\t\n      JUMPDEST \t\t\t\n      DUP3 \t\t\t\n      DUP2 \t\t\t\n      LT \t\t\t\n      ISZERO \t\t\t\n      PUSH [tag] 899\t\t\t\n      JUMPI \t\t\t\n      DUP7 \t\t\t\n      DUP6 \t\t\t\n      ADD \t\t\t\n      CALLDATALOAD \t\t\t\n      DUP3 \t\t\t\n      SSTORE \t\t\t\n      PUSH 20\t\t\t\n      SWAP5 \t\t\t\n      DUP6 \t\t\t\n      ADD \t\t\t\n      SWAP5 \t\t\t\n      PUSH 1\t\t\t\n      SWAP1 \t\t\t\n      SWAP3 \t\t\t\n      ADD \t\t\t\n      SWAP2 \t\t\t\n      ADD \t\t\t\n      PUSH [tag] 897\t\t\t\n      JUMP \t\t\t\n    tag 899\t\t\t\n      JUMPDEST \t\t\t\n      POP \t\t\t\n      DUP7 \t\t\t\n      DUP3 \t\t\t\n      LT \t\t\t\n      ISZERO \t\t\t\n      PUSH [tag] 900\t\t\t\n      JUMPI \t\t\t\n      PUSH 0\t\t\t\n      NOT \t\t\t\n      PUSH F8\t\t\t\n      DUP9 \t\t\t\n      PUSH 3\t\t\t\n      SHL \t\t\t\n      AND \t\t\t\n      SHR \t\t\t\n      NOT \t\t\t\n      DUP5 \t\t\t\n      DUP8 \t\t\t\n      ADD \t\t\t\n      CALLDATALOAD \t\t\t\n      AND \t\t\t\n      DUP2 \t\t\t\n      SSTORE \t\t\t\n    tag 900\t\t\t\n      JUMPDEST \t\t\t\n      POP \t\t\t\n      POP \t\t\t\n      PUSH 1\t\t\t\n      DUP6 \t\t\t\n      PUSH 1\t\t\t\n      SHL \t\t\t\n      ADD \t\t\t\n      DUP4 \t\t\t\n      SSTORE \t\t\t\n      POP \t\t\t\n      POP \t\t\t\n      POP \t\t\t\n      POP \t\t\t\n      POP \t\t\t\n      JUMP \t\t\t\n    tag 399\t\t\t\n      JUMPDEST \t\t\t\n      PUSH 1\t\t\t\n      PUSH 1\t\t\t\n      PUSH 40\t\t\t\n      SHL \t\t\t\n      SUB \t\t\t\n      DUP4 \t\t\t\n      AND \t\t\t\n      DUP2 \t\t\t\n      MSTORE \t\t\t\n      PUSH 40\t\t\t\n      PUSH 20\t\t\t\n      DUP3 \t\t\t\n      ADD \t\t\t\n      MSTORE \t\t\t\n      PUSH 0\t\t\t\n      DUP3 \t\t\t\n      MLOAD \t\t\t\n      PUSH 60\t\t\t\n      PUSH 40\t\t\t\n      DUP5 \t\t\t\n      ADD \t\t\t\n      MSTORE \t\t\t\n      PUSH [tag] 910\t\t\t\n      PUSH A0\t\t\t\n      DUP5 \t\t\t\n      ADD \t\t\t\n      DUP3 \t\t\t\n      PUSH [tag] 672\t\t\t\n      JUMP \t\t\t\n    tag 910\t\t\t\n      JUMPDEST \t\t\t\n      PUSH 20\t\t\t\n      DUP6 \t\t\t\n      ADD \t\t\t\n      MLOAD \t\t\t\n      PUSH 1\t\t\t\n      PUSH 1\t\t\t\n      PUSH A0\t\t\t\n      SHL \t\t\t\n      SUB \t\t\t\n      AND \t\t\t\n      PUSH 60\t\t\t\n      DUP6 \t\t\t\n      ADD \t\t\t\n      MSTORE \t\t\t\n      PUSH 40\t\t\t\n      DUP6 \t\t\t\n      ADD \t\t\t\n      MLOAD \t\t\t\n      DUP5 \t\t\t\n      DUP3 \t\t\t\n      SUB \t\t\t\n      PUSH 3F\t\t\t\n      NOT \t\t\t\n      ADD \t\t\t\n      PUSH 80\t\t\t\n      DUP7 \t\t\t\n      ADD \t\t\t\n      MSTORE \t\t\t\n      SWAP1 \t\t\t\n      SWAP2 \t\t\t\n      POP \t\t\t\n      PUSH [tag] 822\t\t\t\n      DUP3 \t\t\t\n      DUP3 \t\t\t\n      PUSH [tag] 672\t\t\t\n      JUMP \t\t\t\n    tag 405\t\t\t\n      JUMPDEST \t\t\t\n      PUSH 0\t\t\t\n      DUP1 \t\t\t\n      DUP4 \t\t\t\n      CALLDATALOAD \t\t\t\n      PUSH 1E\t\t\t\n      NOT \t\t\t\n      DUP5 \t\t\t\n      CALLDATASIZE \t\t\t\n      SUB \t\t\t\n      ADD \t\t\t\n      DUP2 \t\t\t\n      SLT \t\t\t\n      PUSH [tag] 913\t\t\t\n      JUMPI \t\t\t\n      PUSH 0\t\t\t\n      DUP1 \t\t\t\n      REVERT \t\t\t\n    tag 913\t\t\t\n      JUMPDEST \t\t\t\n      DUP4 \t\t\t\n      ADD \t\t\t\n      DUP1 \t\t\t\n      CALLDATALOAD \t\t\t\n      SWAP2 \t\t\t\n      POP \t\t\t\n      PUSH 1\t\t\t\n      PUSH 1\t\t\t\n      PUSH 40\t\t\t\n      SHL \t\t\t\n      SUB \t\t\t\n      DUP3 \t\t\t\n      GT \t\t\t\n      ISZERO \t\t\t\n      PUSH [tag] 914\t\t\t\n      JUMPI \t\t\t\n      PUSH 0\t\t\t\n      DUP1 \t\t\t\n      REVERT \t\t\t\n    tag 914\t\t\t\n      JUMPDEST \t\t\t\n      PUSH 20\t\t\t\n      ADD \t\t\t\n      SWAP2 \t\t\t\n      POP \t\t\t\n      CALLDATASIZE \t\t\t\n      DUP2 \t\t\t\n      SWAP1 \t\t\t\n      SUB \t\t\t\n      DUP3 \t\t\t\n      SGT \t\t\t\n      ISZERO \t\t\t\n      PUSH [tag] 730\t\t\t\n      JUMPI \t\t\t\n      PUSH 0\t\t\t\n      DUP1 \t\t\t\n      REVERT \t\t\t\n    tag 409\t\t\t\n      JUMPDEST \t\t\t\n      DUP2 \t\t\t\n      MLOAD \t\t\t\n      PUSH 1\t\t\t\n      PUSH 1\t\t\t\n      PUSH 40\t\t\t\n      SHL \t\t\t\n      SUB \t\t\t\n      DUP2 \t\t\t\n      GT \t\t\t\n      ISZERO \t\t\t\n      PUSH [tag] 918\t\t\t\n      JUMPI \t\t\t\n      PUSH [tag] 918\t\t\t\n      PUSH [tag] 173\t\t\t\n      JUMP \t\t\t\n    tag 918\t\t\t\n      JUMPDEST \t\t\t\n      PUSH [tag] 919\t\t\t\n      DUP2 \t\t\t\n      PUSH [tag] 920\t\t\t\n      DUP5 \t\t\t\n      SLOAD \t\t\t\n      PUSH [tag] 166\t\t\t\n      JUMP \t\t\t\n    tag 920\t\t\t\n      JUMPDEST \t\t\t\n      DUP5 \t\t\t\n      PUSH [tag] 688\t\t\t\n      JUMP \t\t\t\n    tag 919\t\t\t\n      JUMPDEST \t\t\t\n      PUSH 20\t\t\t\n      DUP1 \t\t\t\n      PUSH 1F\t\t\t\n      DUP4 \t\t\t\n      GT \t\t\t\n      PUSH 1\t\t\t\n      DUP2 \t\t\t\n      EQ \t\t\t\n      PUSH [tag] 922\t\t\t\n      JUMPI \t\t\t\n      PUSH 0\t\t\t\n      DUP5 \t\t\t\n      ISZERO \t\t\t\n      PUSH [tag] 923\t\t\t\n      JUMPI \t\t\t\n      POP \t\t\t\n      DUP6 \t\t\t\n      DUP4 \t\t\t\n      ADD \t\t\t\n      MLOAD \t\t\t\n    tag 923\t\t\t\n      JUMPDEST \t\t\t\n      PUSH 0\t\t\t\n      NOT \t\t\t\n      PUSH 3\t\t\t\n      DUP7 \t\t\t\n      SWAP1 \t\t\t\n      SHL \t\t\t\n      SHR \t\t\t\n      NOT \t\t\t\n      AND \t\t\t\n      PUSH 1\t\t\t\n      DUP6 \t\t\t\n      SWAP1 \t\t\t\n      SHL \t\t\t\n      OR \t\t\t\n      DUP6 \t\t\t\n      SSTORE \t\t\t\n      PUSH [tag] 306\t\t\t\n      JUMP \t\t\t\n    tag 922\t\t\t\n      JUMPDEST \t\t\t\n      PUSH 0\t\t\t\n      DUP6 \t\t\t\n      DUP2 \t\t\t\n      MSTORE \t\t\t\n      PUSH 20\t\t\t\n      DUP2 \t\t\t\n      KECCAK256 \t\t\t\n      PUSH 1F\t\t\t\n      NOT \t\t\t\n      DUP7 \t\t\t\n      AND \t\t\t\n      SWAP2 \t\t\t\n    tag 926\t\t\t\n      JUMPDEST \t\t\t\n      DUP3 \t\t\t\n      DUP2 \t\t\t\n      LT \t\t\t\n      ISZERO \t\t\t\n      PUSH [tag] 928\t\t\t\n      JUMPI \t\t\t\n      DUP9 \t\t\t\n      DUP7 \t\t\t\n      ADD \t\t\t\n      MLOAD \t\t\t\n      DUP3 \t\t\t\n      SSTORE \t\t\t\n      SWAP5 \t\t\t\n      DUP5 \t\t\t\n      ADD \t\t\t\n      SWAP5 \t\t\t\n      PUSH 1\t\t\t\n      SWAP1 \t\t\t\n      SWAP2 \t\t\t\n      ADD \t\t\t\n      SWAP1 \t\t\t\n      DUP5 \t\t\t\n      ADD \t\t\t\n      PUSH [tag] 926\t\t\t\n      JUMP \t\t\t\n    tag 928\t\t\t\n      JUMPDEST \t\t\t\n      POP \t\t\t\n      DUP6 \t\t\t\n      DUP3 \t\t\t\n      LT \t\t\t\n      ISZERO \t\t\t\n      PUSH [tag] 929\t\t\t\n      JUMPI \t\t\t\n      DUP8 \t\t\t\n      DUP6 \t\t\t\n      ADD \t\t\t\n      MLOAD \t\t\t\n      PUSH 0\t\t\t\n      NOT \t\t\t\n      PUSH 3\t\t\t\n      DUP9 \t\t\t\n      SWAP1 \t\t\t\n      SHL \t\t\t\n      PUSH F8\t\t\t\n      AND \t\t\t\n      SHR \t\t\t\n      NOT \t\t\t\n      AND \t\t\t\n      DUP2 \t\t\t\n      SSTORE \t\t\t\n    tag 929\t\t\t\n      JUMPDEST \t\t\t\n      POP \t\t\t\n      POP \t\t\t\n      POP \t\t\t\n      POP \t\t\t\n      POP \t\t\t\n      PUSH 1\t\t\t\n      SWAP1 \t\t\t\n      DUP2 \t\t\t\n      SHL \t\t\t\n      ADD \t\t\t\n      SWAP1 \t\t\t\n      SSTORE \t\t\t\n      POP \t\t\t\n      JUMP \t\t\t\n    tag 523\t\t\t\n      JUMPDEST \t\t\t\n      PUSH 0\t\t\t\n      PUSH 20\t\t\t\n      DUP1 \t\t\t\n      DUP4 \t\t\t\n      DUP6 \t\t\t\n      SUB \t\t\t\n      SLT \t\t\t\n      ISZERO \t\t\t\n      PUSH [tag] 934\t\t\t\n      JUMPI \t\t\t\n      PUSH 0\t\t\t\n      DUP1 \t\t\t\n      REVERT \t\t\t\n    tag 934\t\t\t\n      JUMPDEST \t\t\t\n      DUP3 \t\t\t\n      MLOAD \t\t\t\n      PUSH 1\t\t\t\n      PUSH 1\t\t\t\n      PUSH 40\t\t\t\n      SHL \t\t\t\n      SUB \t\t\t\n      DUP1 \t\t\t\n      DUP3 \t\t\t\n      GT \t\t\t\n      ISZERO \t\t\t\n      PUSH [tag] 935\t\t\t\n      JUMPI \t\t\t\n      PUSH 0\t\t\t\n      DUP1 \t\t\t\n      REVERT \t\t\t\n    tag 935\t\t\t\n      JUMPDEST \t\t\t\n      SWAP1 \t\t\t\n      DUP5 \t\t\t\n      ADD \t\t\t\n      SWAP1 \t\t\t\n      PUSH 80\t\t\t\n      DUP3 \t\t\t\n      DUP8 \t\t\t\n      SUB \t\t\t\n      SLT \t\t\t\n      ISZERO \t\t\t\n      PUSH [tag] 936\t\t\t\n      JUMPI \t\t\t\n      PUSH 0\t\t\t\n      DUP1 \t\t\t\n      REVERT \t\t\t\n    tag 936\t\t\t\n      JUMPDEST \t\t\t\n      PUSH [tag] 937\t\t\t\n      PUSH [tag] 675\t\t\t\n      JUMP \t\t\t\n    tag 937\t\t\t\n      JUMPDEST \t\t\t\n      DUP3 \t\t\t\n      MLOAD \t\t\t\n      PUSH [tag] 938\t\t\t\n      DUP2 \t\t\t\n      PUSH [tag] 685\t\t\t\n      JUMP \t\t\t\n    tag 938\t\t\t\n      JUMPDEST \t\t\t\n      DUP2 \t\t\t\n      MSTORE \t\t\t\n      DUP3 \t\t\t\n      DUP5 \t\t\t\n      ADD \t\t\t\n      MLOAD \t\t\t\n      DUP3 \t\t\t\n      DUP2 \t\t\t\n      GT \t\t\t\n      ISZERO \t\t\t\n      PUSH [tag] 939\t\t\t\n      JUMPI \t\t\t\n      PUSH 0\t\t\t\n      DUP1 \t\t\t\n      REVERT \t\t\t\n    tag 939\t\t\t\n      JUMPDEST \t\t\t\n      DUP4 \t\t\t\n      ADD \t\t\t\n      SWAP2 \t\t\t\n      POP \t\t\t\n      PUSH 1F\t\t\t\n      DUP3 \t\t\t\n      ADD \t\t\t\n      DUP8 \t\t\t\n      SGT \t\t\t\n      PUSH [tag] 940\t\t\t\n      JUMPI \t\t\t\n      PUSH 0\t\t\t\n      DUP1 \t\t\t\n      REVERT \t\t\t\n    tag 940\t\t\t\n      JUMPDEST \t\t\t\n      DUP2 \t\t\t\n      MLOAD \t\t\t\n      PUSH [tag] 941\t\t\t\n      PUSH [tag] 751\t\t\t\n      DUP3 \t\t\t\n      PUSH [tag] 679\t\t\t\n      JUMP \t\t\t\n    tag 941\t\t\t\n      JUMPDEST \t\t\t\n      DUP2 \t\t\t\n      DUP2 \t\t\t\n      MSTORE \t\t\t\n      DUP9 \t\t\t\n      DUP7 \t\t\t\n      DUP4 \t\t\t\n      DUP7 \t\t\t\n      ADD \t\t\t\n      ADD \t\t\t\n      GT \t\t\t\n      ISZERO \t\t\t\n      PUSH [tag] 943\t\t\t\n      JUMPI \t\t\t\n      PUSH 0\t\t\t\n      DUP1 \t\t\t\n      REVERT \t\t\t\n    tag 943\t\t\t\n      JUMPDEST \t\t\t\n      PUSH [tag] 944\t\t\t\n      DUP3 \t\t\t\n      DUP8 \t\t\t\n      DUP4 \t\t\t\n      ADD \t\t\t\n      DUP9 \t\t\t\n      DUP8 \t\t\t\n      ADD \t\t\t\n      PUSH [tag] 671\t\t\t\n      JUMP \t\t\t\n    tag 944\t\t\t\n      JUMPDEST \t\t\t\n      DUP1 \t\t\t\n      DUP7 \t\t\t\n      DUP5 \t\t\t\n      ADD \t\t\t\n      MSTORE \t\t\t\n      POP \t\t\t\n      POP \t\t\t\n      PUSH 40\t\t\t\n      DUP4 \t\t\t\n      ADD \t\t\t\n      MLOAD \t\t\t\n      PUSH 40\t\t\t\n      DUP3 \t\t\t\n      ADD \t\t\t\n      MSTORE \t\t\t\n      PUSH 60\t\t\t\n      DUP4 \t\t\t\n      ADD \t\t\t\n      MLOAD \t\t\t\n      PUSH 60\t\t\t\n      DUP3 \t\t\t\n      ADD \t\t\t\n      MSTORE \t\t\t\n      DUP1 \t\t\t\n      SWAP5 \t\t\t\n      POP \t\t\t\n      POP \t\t\t\n      POP \t\t\t\n      POP \t\t\t\n      POP \t\t\t\n      SWAP3 \t\t\t\n      SWAP2 \t\t\t\n      POP \t\t\t\n      POP \t\t\t\n      JUMP \t\t\t\n    tag 625\t\t\t\n      JUMPDEST \t\t\t\n      PUSH 40\t\t\t\n      DUP2 \t\t\t\n      MSTORE \t\t\t\n      PUSH 0\t\t\t\n      PUSH [tag] 949\t\t\t\n      PUSH 40\t\t\t\n      DUP4 \t\t\t\n      ADD \t\t\t\n      DUP6 \t\t\t\n      PUSH [tag] 682\t\t\t\n      JUMP \t\t\t\n    tag 949\t\t\t\n      JUMPDEST \t\t\t\n      DUP3 \t\t\t\n      DUP2 \t\t\t\n      SUB \t\t\t\n      PUSH 20\t\t\t\n      DUP5 \t\t\t\n      ADD \t\t\t\n      MSTORE \t\t\t\n      PUSH [tag] 950\t\t\t\n      DUP2 \t\t\t\n      DUP6 \t\t\t\n      PUSH [tag] 682\t\t\t\n      JUMP \t\t\t\n    tag 950\t\t\t\n      JUMPDEST \t\t\t\n      SWAP6 \t\t\t\n      SWAP5 \t\t\t\n      POP \t\t\t\n      POP \t\t\t\n      POP \t\t\t\n      POP \t\t\t\n      POP \t\t\t\n      JUMP \t\t\t\n    tag 629\t\t\t\n      JUMPDEST \t\t\t\n      PUSH 1\t\t\t\n      PUSH 1\t\t\t\n      PUSH A0\t\t\t\n      SHL \t\t\t\n      SUB \t\t\t\n      DUP7 \t\t\t\n      DUP2 \t\t\t\n      AND \t\t\t\n      DUP3 \t\t\t\n      MSTORE \t\t\t\n      DUP6 \t\t\t\n      AND \t\t\t\n      PUSH 20\t\t\t\n      DUP3 \t\t\t\n      ADD \t\t\t\n      MSTORE \t\t\t\n      PUSH 40\t\t\t\n      DUP2 \t\t\t\n      ADD \t\t\t\n      DUP5 \t\t\t\n      SWAP1 \t\t\t\n      MSTORE \t\t\t\n      PUSH 60\t\t\t\n      DUP2 \t\t\t\n      ADD \t\t\t\n      DUP4 \t\t\t\n      SWAP1 \t\t\t\n      MSTORE \t\t\t\n      PUSH A0\t\t\t\n      PUSH 80\t\t\t\n      DUP3 \t\t\t\n      ADD \t\t\t\n      DUP2 \t\t\t\n      SWAP1 \t\t\t\n      MSTORE \t\t\t\n      PUSH 0\t\t\t\n      SWAP1 \t\t\t\n      PUSH [tag] 952\t\t\t\n      SWAP1 \t\t\t\n      DUP4 \t\t\t\n      ADD \t\t\t\n      DUP5 \t\t\t\n      PUSH [tag] 672\t\t\t\n      JUMP \t\t\t\n    tag 952\t\t\t\n      JUMPDEST \t\t\t\n      SWAP8 \t\t\t\n      SWAP7 \t\t\t\n      POP \t\t\t\n      POP \t\t\t\n      POP \t\t\t\n      POP \t\t\t\n      POP \t\t\t\n      POP \t\t\t\n      POP \t\t\t\n      JUMP \t\t\t\n    tag 632\t\t\t\n      JUMPDEST \t\t\t\n      PUSH 0\t\t\t\n      PUSH 20\t\t\t\n      DUP3 \t\t\t\n      DUP5 \t\t\t\n      SUB \t\t\t\n      SLT \t\t\t\n      ISZERO \t\t\t\n      PUSH [tag] 954\t\t\t\n      JUMPI \t\t\t\n      PUSH 0\t\t\t\n      DUP1 \t\t\t\n      REVERT \t\t\t\n    tag 954\t\t\t\n      JUMPDEST \t\t\t\n      DUP2 \t\t\t\n      MLOAD \t\t\t\n      PUSH [tag] 486\t\t\t\n      DUP2 \t\t\t\n      PUSH [tag] 673\t\t\t\n      JUMP \t\t\t\n    tag 648\t\t\t\n      JUMPDEST \t\t\t\n      PUSH 1\t\t\t\n      PUSH 1\t\t\t\n      PUSH A0\t\t\t\n      SHL \t\t\t\n      SUB \t\t\t\n      DUP7 \t\t\t\n      DUP2 \t\t\t\n      AND \t\t\t\n      DUP3 \t\t\t\n      MSTORE \t\t\t\n      DUP6 \t\t\t\n      AND \t\t\t\n      PUSH 20\t\t\t\n      DUP3 \t\t\t\n      ADD \t\t\t\n      MSTORE \t\t\t\n      PUSH A0\t\t\t\n      PUSH 40\t\t\t\n      DUP3 \t\t\t\n      ADD \t\t\t\n      DUP2 \t\t\t\n      SWAP1 \t\t\t\n      MSTORE \t\t\t\n      PUSH 0\t\t\t\n      SWAP1 \t\t\t\n      PUSH [tag] 957\t\t\t\n      SWAP1 \t\t\t\n      DUP4 \t\t\t\n      ADD \t\t\t\n      DUP7 \t\t\t\n      PUSH [tag] 682\t\t\t\n      JUMP \t\t\t\n    tag 957\t\t\t\n      JUMPDEST \t\t\t\n      DUP3 \t\t\t\n      DUP2 \t\t\t\n      SUB \t\t\t\n      PUSH 60\t\t\t\n      DUP5 \t\t\t\n      ADD \t\t\t\n      MSTORE \t\t\t\n      PUSH [tag] 958\t\t\t\n      DUP2 \t\t\t\n      DUP7 \t\t\t\n      PUSH [tag] 682\t\t\t\n      JUMP \t\t\t\n    tag 958\t\t\t\n      JUMPDEST \t\t\t\n      SWAP1 \t\t\t\n      POP \t\t\t\n      DUP3 \t\t\t\n      DUP2 \t\t\t\n      SUB \t\t\t\n      PUSH 80\t\t\t\n      DUP5 \t\t\t\n      ADD \t\t\t\n      MSTORE \t\t\t\n      PUSH [tag] 959\t\t\t\n      DUP2 \t\t\t\n      DUP6 \t\t\t\n      PUSH [tag] 672\t\t\t\n      JUMP \t\t\t\n    tag 959\t\t\t\n      JUMPDEST \t\t\t\n      SWAP9 \t\t\t\n      SWAP8 \t\t\t\n      POP \t\t\t\n      POP \t\t\t\n      POP \t\t\t\n      POP \t\t\t\n      POP \t\t\t\n      POP \t\t\t\n      POP \t\t\t\n      POP \t\t\t\n      JUMP \t\t\t\n    .data\n"
}