{
	"compilerInput": "{\"language\":\"Solidity\",\"sources\":{\"PMUniversalVerifier.sol\":{\"content\":\"// SPDX-License-IDentifier: MIT\\r\\npragma solidity >=0.8.0 <0.9.0;\\r\\n\\r\\nimport \\\"@openzeppelin/contracts/access/Ownable.sol\\\";\\r\\nimport {ERC1155} from '@openzeppelin/contracts/token/ERC1155/ERC1155.sol';\\r\\nimport {PrimitiveTypeUtils} from '@iden3/contracts/lib/PrimitiveTypeUtils.sol';\\r\\nimport {ICircuitValidator} from '@iden3/contracts/interfaces/ICircuitValidator.sol';\\r\\nimport {EmbeddedZKPVerifier} from '@iden3/contracts/verifiers/EmbeddedZKPVerifier.sol';\\r\\nimport {UniversalVerifier} from '@iden3/contracts/verifiers/UniversalVerifier.sol';\\r\\nimport \\\"@openzeppelin/contracts/utils/structs/EnumerableSet.sol\\\";\\r\\n\\r\\ncontract PMUniversalVerifier is ERC1155, Ownable {\\r\\n    address[] private admins;\\r\\n\\r\\n    // Getter function for the admins array, only callable by the owner.\\r\\n    function getAdmins() public view onlyOwner returns (address[] memory) {\\r\\n        return admins;\\r\\n    }\\r\\n\\r\\n    // Internal helper function to check if an address is an admin.\\r\\n    function _isAdmin(address _admin) internal view returns (bool) {\\r\\n        for (uint i = 0; i < admins.length; i++) {\\r\\n            if (admins[i] == _admin) {\\r\\n                return true;\\r\\n            }\\r\\n        }\\r\\n        return false;\\r\\n    }\\r\\n\\r\\n    // Function to add an admin address. Only the owner can add.\\r\\n    function addAdmin(address _admin) public onlyOwner {\\r\\n        require(_admin != address(0), \\\"Invalid address\\\");\\r\\n        require(!_isAdmin(_admin), \\\"Address is already an admin\\\");\\r\\n        admins.push(_admin);\\r\\n    }\\r\\n\\r\\n    // Function to remove an admin address. Only the owner can remove.\\r\\n    function removeAdmin(address _admin) public onlyOwner {\\r\\n        uint len = admins.length;\\r\\n        for (uint i = 0; i < len; i++) {\\r\\n            if (admins[i] == _admin) {\\r\\n                admins[i] = admins[len - 1];\\r\\n                admins.pop();\\r\\n                return;\\r\\n            }\\r\\n        }\\r\\n        revert(\\\"Admin not found\\\");\\r\\n    }\\r\\n\\r\\n    // Modifier to restrict functions to only addresses in the admin list.\\r\\n    modifier onlyAdmin() {\\r\\n        require(_isAdmin(msg.sender), \\\"Caller is not an admin\\\");\\r\\n        _;\\r\\n    }\\r\\n\\r\\n    using EnumerableSet for EnumerableSet.UintSet;\\r\\n\\r\\n    // A set of all token IDs that have ever been minted\\r\\n    EnumerableSet.UintSet private _allTokenIDs;\\r\\n\\r\\n    /// @notice Returns the full list of token IDs ever minted\\r\\n    function allTokenIDs() external view returns (uint256[] memory) {\\r\\n        return _allTokenIDs.values();\\r\\n    }\\r\\n\\r\\n    // Mapping from token ID to its name. But the token name and other attributes can be stored as uri \\r\\n    mapping(uint256 => string) public tokenName;\\r\\n\\r\\n    // Mapping from tokenID to proof_request_id to a wallet address (the prover's address).\\r\\n    // tokenID → (proofRequestID → prover address)\\r\\n    // The address owner can be a token sender, a token receiver or any third-party prover.\\r\\n    mapping(uint256 => mapping(uint64 => address)) public tokenID_proofRequest_address;\\r\\n\\r\\n    // An array to store proof_request_ids only for iteration.\\r\\n    uint64[] public proofRequestIDs;\\r\\n\\r\\n    // Add a new proof request and the corresponding prover's address.\\r\\n    // The array proofRequestIDs is updated accordingly.\\r\\n    function addProofRequestAndAddress(uint256 tokenID, uint64 requestID, address prover) public onlyAdmin {\\r\\n        require(_allTokenIDs.contains(tokenID), \\\"token id does not exist\\\");\\r\\n        require(tokenID_proofRequest_address[tokenID][requestID] == address(0), \\\"Proof request already exists\\\");\\r\\n        tokenID_proofRequest_address[tokenID][requestID] = prover;\\r\\n        proofRequestIDs.push(requestID);\\r\\n    }\\r\\n    \\r\\n    // Delete a proof request and the address by ID.\\r\\n    // The array proofRequestIDs is updated accordingly.\\r\\n    function deleteProofRequestAndAddress(uint256 tokenID, uint64 requestID) public onlyAdmin {\\r\\n        require(_allTokenIDs.contains(tokenID), \\\"token id does not exist\\\");\\r\\n        require(tokenID_proofRequest_address[tokenID][requestID] != address(0), \\\"Proof request does not exist\\\");\\r\\n        delete tokenID_proofRequest_address[tokenID][requestID];\\r\\n        // Remove ID from the array (swap-and-pop technique)\\r\\n        for (uint256 i = 0; i < proofRequestIDs.length; i++) {\\r\\n            if (proofRequestIDs[i] == requestID) {\\r\\n                proofRequestIDs[i] = proofRequestIDs[proofRequestIDs.length - 1];\\r\\n                proofRequestIDs.pop();\\r\\n                break;\\r\\n            }\\r\\n        }\\r\\n    }\\r\\n\\r\\n    uint256 public constant fungible_token = 1;\\r\\n    uint256 public constant non_fungible_token = 2;\\r\\n\\r\\n    UniversalVerifier public verifier;\\r\\n\\r\\n    constructor(UniversalVerifier verifier_, address initialOwner, string memory uri_)\\r\\n    ERC1155(uri_)\\r\\n    Ownable(initialOwner)\\r\\n    {\\r\\n        verifier = verifier_;\\r\\n    }\\r\\n\\r\\n    // Custom error declaration (check if token id already taken, when minting new token)\\r\\n    error TokenIDTaken(uint256 tokenID);\\r\\n\\r\\n    // Call this function when creating new token for new spending conditions\\r\\n    function mintNewToken(address to, uint256 ID, uint256 amount, bytes calldata data, string calldata name) external onlyOwner {\\r\\n        // Add the token id to _allTokenIDs. If it returns false, the token id has been taken before.\\r\\n        if (!_allTokenIDs.add(ID)) {\\r\\n            revert TokenIDTaken(ID);\\r\\n        }\\r\\n\\r\\n        _mint(to, ID, amount, data);\\r\\n        // assign a name to the new token\\r\\n        tokenName[ID] = name;\\r\\n    }\\r\\n    \\r\\n    // Reverts with TokenIDNotFound if the ID hasn’t been registered yet.\\r\\n    error TokenIDNotFound(uint256 tokenID);\\r\\n\\r\\n    function mintExistingToken(address to, uint256 ID, uint256 amount, bytes calldata data) external onlyOwner {\\r\\n        if (!_allTokenIDs.contains(ID)) {\\r\\n        revert TokenIDNotFound(ID);\\r\\n    }\\r\\n        _mint(to, ID, amount, data);\\r\\n    }\\r\\n\\r\\n    function burn(address account, uint256 ID, uint256 amount) external onlyOwner {\\r\\n        _burn(account, ID, amount);\\r\\n    }\\r\\n\\r\\n    // Custom error declaration\\r\\n    error ProofNotVerified(uint64 requestID, address proverAddress);\\r\\n    \\r\\n    // @dev Internal helper: revert if any proof for tokenID is still unverified.\\r\\n    // Use this before token transfer.\\r\\n    function _checkAllProofsVerified(uint256 tokenID) internal view {\\r\\n      // iterate memory array (tempRequestIDs) to save gas fee\\r\\n      uint64[] memory tempRequestIDs = proofRequestIDs;\\r\\n      for (uint256 i = 0; i < tempRequestIDs.length; i++) {\\r\\n          // Retrieve the corresponding wallet address for this proof request ID\\r\\n          if (tokenID_proofRequest_address[tokenID][tempRequestIDs[i]] != address(0)){\\r\\n            address prover = tokenID_proofRequest_address[tokenID][tempRequestIDs[i]];\\r\\n            if (!verifier.getProofStatus(prover, tempRequestIDs[i]).isVerified) {\\r\\n            revert ProofNotVerified(tempRequestIDs[i], prover);\\r\\n          }\\r\\n        }\\r\\n      }\\r\\n    }\\r\\n\\r\\n    // Override safeTransferFrom and include the onlyValidProofs modifier\\r\\n    function safeTransferFrom(\\r\\n        address from,\\r\\n        address to,\\r\\n        uint256 tokenID,\\r\\n        uint256 amount,\\r\\n        bytes memory data\\r\\n    ) public virtual override {\\r\\n        // Enforce per-token proof checks\\r\\n        _checkAllProofsVerified(tokenID);\\r\\n\\r\\n        // Optionally add any additional custom logic here\\r\\n        super.safeTransferFrom(from, to, tokenID, amount, data);\\r\\n    }\\r\\n\\r\\n    function safeBatchTransferFrom(\\r\\n        address from,\\r\\n        address to,\\r\\n        uint256[] memory tokenIDs,\\r\\n        uint256[] memory amounts,\\r\\n        bytes memory data\\r\\n    ) public virtual override {\\r\\n        require(tokenIDs.length == amounts.length, \\\"ERC1155: Mismatched array lengths\\\");\\r\\n        require(to != address(0), \\\"ERC1155: transfer to the zero address\\\");\\r\\n        for (uint256 i = 0; i < tokenIDs.length; ++i) {\\r\\n            // Enforce per-token proof checks\\r\\n            _checkAllProofsVerified(tokenIDs[i]);\\r\\n            safeTransferFrom(from, to, tokenIDs[i], amounts[i], data);\\r\\n        }\\r\\n    }\\r\\n}\\r\\n\"},\"@openzeppelin/contracts/utils/structs/EnumerableSet.sol\":{\"content\":\"// SPDX-License-Identifier: MIT\\n// OpenZeppelin Contracts (last updated v5.3.0) (utils/structs/EnumerableSet.sol)\\n// This file was procedurally generated from scripts/generate/templates/EnumerableSet.js.\\n\\npragma solidity ^0.8.20;\\n\\nimport {Arrays} from \\\"../Arrays.sol\\\";\\n\\n/**\\n * @dev Library for managing\\n * https://en.wikipedia.org/wiki/Set_(abstract_data_type)[sets] of primitive\\n * types.\\n *\\n * Sets have the following properties:\\n *\\n * - Elements are added, removed, and checked for existence in constant time\\n * (O(1)).\\n * - Elements are enumerated in O(n). No guarantees are made on the ordering.\\n * - Set can be cleared (all elements removed) in O(n).\\n *\\n * ```solidity\\n * contract Example {\\n *     // Add the library methods\\n *     using EnumerableSet for EnumerableSet.AddressSet;\\n *\\n *     // Declare a set state variable\\n *     EnumerableSet.AddressSet private mySet;\\n * }\\n * ```\\n *\\n * As of v3.3.0, sets of type `bytes32` (`Bytes32Set`), `address` (`AddressSet`)\\n * and `uint256` (`UintSet`) are supported.\\n *\\n * [WARNING]\\n * ====\\n * Trying to delete such a structure from storage will likely result in data corruption, rendering the structure\\n * unusable.\\n * See https://github.com/ethereum/solidity/pull/11843[ethereum/solidity#11843] for more info.\\n *\\n * In order to clean an EnumerableSet, you can either remove all elements one by one or create a fresh instance using an\\n * array of EnumerableSet.\\n * ====\\n */\\nlibrary EnumerableSet {\\n    // To implement this library for multiple types with as little code\\n    // repetition as possible, we write it in terms of a generic Set type with\\n    // bytes32 values.\\n    // The Set implementation uses private functions, and user-facing\\n    // implementations (such as AddressSet) are just wrappers around the\\n    // underlying Set.\\n    // This means that we can only create new EnumerableSets for types that fit\\n    // in bytes32.\\n\\n    struct Set {\\n        // Storage of set values\\n        bytes32[] _values;\\n        // Position is the index of the value in the `values` array plus 1.\\n        // Position 0 is used to mean a value is not in the set.\\n        mapping(bytes32 value => uint256) _positions;\\n    }\\n\\n    /**\\n     * @dev Add a value to a set. O(1).\\n     *\\n     * Returns true if the value was added to the set, that is if it was not\\n     * already present.\\n     */\\n    function _add(Set storage set, bytes32 value) private returns (bool) {\\n        if (!_contains(set, value)) {\\n            set._values.push(value);\\n            // The value is stored at length-1, but we add 1 to all indexes\\n            // and use 0 as a sentinel value\\n            set._positions[value] = set._values.length;\\n            return true;\\n        } else {\\n            return false;\\n        }\\n    }\\n\\n    /**\\n     * @dev Removes a value from a set. O(1).\\n     *\\n     * Returns true if the value was removed from the set, that is if it was\\n     * present.\\n     */\\n    function _remove(Set storage set, bytes32 value) private returns (bool) {\\n        // We cache the value's position to prevent multiple reads from the same storage slot\\n        uint256 position = set._positions[value];\\n\\n        if (position != 0) {\\n            // Equivalent to contains(set, value)\\n            // To delete an element from the _values array in O(1), we swap the element to delete with the last one in\\n            // the array, and then remove the last element (sometimes called as 'swap and pop').\\n            // This modifies the order of the array, as noted in {at}.\\n\\n            uint256 valueIndex = position - 1;\\n            uint256 lastIndex = set._values.length - 1;\\n\\n            if (valueIndex != lastIndex) {\\n                bytes32 lastValue = set._values[lastIndex];\\n\\n                // Move the lastValue to the index where the value to delete is\\n                set._values[valueIndex] = lastValue;\\n                // Update the tracked position of the lastValue (that was just moved)\\n                set._positions[lastValue] = position;\\n            }\\n\\n            // Delete the slot where the moved value was stored\\n            set._values.pop();\\n\\n            // Delete the tracked position for the deleted slot\\n            delete set._positions[value];\\n\\n            return true;\\n        } else {\\n            return false;\\n        }\\n    }\\n\\n    /**\\n     * @dev Removes all the values from a set. O(n).\\n     *\\n     * WARNING: Developers should keep in mind that this function has an unbounded cost and using it may render the\\n     * function uncallable if the set grows to the point where clearing it consumes too much gas to fit in a block.\\n     */\\n    function _clear(Set storage set) private {\\n        uint256 len = _length(set);\\n        for (uint256 i = 0; i < len; ++i) {\\n            delete set._positions[set._values[i]];\\n        }\\n        Arrays.unsafeSetLength(set._values, 0);\\n    }\\n\\n    /**\\n     * @dev Returns true if the value is in the set. O(1).\\n     */\\n    function _contains(Set storage set, bytes32 value) private view returns (bool) {\\n        return set._positions[value] != 0;\\n    }\\n\\n    /**\\n     * @dev Returns the number of values on the set. O(1).\\n     */\\n    function _length(Set storage set) private view returns (uint256) {\\n        return set._values.length;\\n    }\\n\\n    /**\\n     * @dev Returns the value stored at position `index` in the set. O(1).\\n     *\\n     * Note that there are no guarantees on the ordering of values inside the\\n     * array, and it may change when more values are added or removed.\\n     *\\n     * Requirements:\\n     *\\n     * - `index` must be strictly less than {length}.\\n     */\\n    function _at(Set storage set, uint256 index) private view returns (bytes32) {\\n        return set._values[index];\\n    }\\n\\n    /**\\n     * @dev Return the entire set in an array\\n     *\\n     * WARNING: This operation will copy the entire storage to memory, which can be quite expensive. This is designed\\n     * to mostly be used by view accessors that are queried without any gas fees. Developers should keep in mind that\\n     * this function has an unbounded cost, and using it as part of a state-changing function may render the function\\n     * uncallable if the set grows to a point where copying to memory consumes too much gas to fit in a block.\\n     */\\n    function _values(Set storage set) private view returns (bytes32[] memory) {\\n        return set._values;\\n    }\\n\\n    // Bytes32Set\\n\\n    struct Bytes32Set {\\n        Set _inner;\\n    }\\n\\n    /**\\n     * @dev Add a value to a set. O(1).\\n     *\\n     * Returns true if the value was added to the set, that is if it was not\\n     * already present.\\n     */\\n    function add(Bytes32Set storage set, bytes32 value) internal returns (bool) {\\n        return _add(set._inner, value);\\n    }\\n\\n    /**\\n     * @dev Removes a value from a set. O(1).\\n     *\\n     * Returns true if the value was removed from the set, that is if it was\\n     * present.\\n     */\\n    function remove(Bytes32Set storage set, bytes32 value) internal returns (bool) {\\n        return _remove(set._inner, value);\\n    }\\n\\n    /**\\n     * @dev Removes all the values from a set. O(n).\\n     *\\n     * WARNING: Developers should keep in mind that this function has an unbounded cost and using it may render the\\n     * function uncallable if the set grows to the point where clearing it consumes too much gas to fit in a block.\\n     */\\n    function clear(Bytes32Set storage set) internal {\\n        _clear(set._inner);\\n    }\\n\\n    /**\\n     * @dev Returns true if the value is in the set. O(1).\\n     */\\n    function contains(Bytes32Set storage set, bytes32 value) internal view returns (bool) {\\n        return _contains(set._inner, value);\\n    }\\n\\n    /**\\n     * @dev Returns the number of values in the set. O(1).\\n     */\\n    function length(Bytes32Set storage set) internal view returns (uint256) {\\n        return _length(set._inner);\\n    }\\n\\n    /**\\n     * @dev Returns the value stored at position `index` in the set. O(1).\\n     *\\n     * Note that there are no guarantees on the ordering of values inside the\\n     * array, and it may change when more values are added or removed.\\n     *\\n     * Requirements:\\n     *\\n     * - `index` must be strictly less than {length}.\\n     */\\n    function at(Bytes32Set storage set, uint256 index) internal view returns (bytes32) {\\n        return _at(set._inner, index);\\n    }\\n\\n    /**\\n     * @dev Return the entire set in an array\\n     *\\n     * WARNING: This operation will copy the entire storage to memory, which can be quite expensive. This is designed\\n     * to mostly be used by view accessors that are queried without any gas fees. Developers should keep in mind that\\n     * this function has an unbounded cost, and using it as part of a state-changing function may render the function\\n     * uncallable if the set grows to a point where copying to memory consumes too much gas to fit in a block.\\n     */\\n    function values(Bytes32Set storage set) internal view returns (bytes32[] memory) {\\n        bytes32[] memory store = _values(set._inner);\\n        bytes32[] memory result;\\n\\n        assembly (\\\"memory-safe\\\") {\\n            result := store\\n        }\\n\\n        return result;\\n    }\\n\\n    // AddressSet\\n\\n    struct AddressSet {\\n        Set _inner;\\n    }\\n\\n    /**\\n     * @dev Add a value to a set. O(1).\\n     *\\n     * Returns true if the value was added to the set, that is if it was not\\n     * already present.\\n     */\\n    function add(AddressSet storage set, address value) internal returns (bool) {\\n        return _add(set._inner, bytes32(uint256(uint160(value))));\\n    }\\n\\n    /**\\n     * @dev Removes a value from a set. O(1).\\n     *\\n     * Returns true if the value was removed from the set, that is if it was\\n     * present.\\n     */\\n    function remove(AddressSet storage set, address value) internal returns (bool) {\\n        return _remove(set._inner, bytes32(uint256(uint160(value))));\\n    }\\n\\n    /**\\n     * @dev Removes all the values from a set. O(n).\\n     *\\n     * WARNING: Developers should keep in mind that this function has an unbounded cost and using it may render the\\n     * function uncallable if the set grows to the point where clearing it consumes too much gas to fit in a block.\\n     */\\n    function clear(AddressSet storage set) internal {\\n        _clear(set._inner);\\n    }\\n\\n    /**\\n     * @dev Returns true if the value is in the set. O(1).\\n     */\\n    function contains(AddressSet storage set, address value) internal view returns (bool) {\\n        return _contains(set._inner, bytes32(uint256(uint160(value))));\\n    }\\n\\n    /**\\n     * @dev Returns the number of values in the set. O(1).\\n     */\\n    function length(AddressSet storage set) internal view returns (uint256) {\\n        return _length(set._inner);\\n    }\\n\\n    /**\\n     * @dev Returns the value stored at position `index` in the set. O(1).\\n     *\\n     * Note that there are no guarantees on the ordering of values inside the\\n     * array, and it may change when more values are added or removed.\\n     *\\n     * Requirements:\\n     *\\n     * - `index` must be strictly less than {length}.\\n     */\\n    function at(AddressSet storage set, uint256 index) internal view returns (address) {\\n        return address(uint160(uint256(_at(set._inner, index))));\\n    }\\n\\n    /**\\n     * @dev Return the entire set in an array\\n     *\\n     * WARNING: This operation will copy the entire storage to memory, which can be quite expensive. This is designed\\n     * to mostly be used by view accessors that are queried without any gas fees. Developers should keep in mind that\\n     * this function has an unbounded cost, and using it as part of a state-changing function may render the function\\n     * uncallable if the set grows to a point where copying to memory consumes too much gas to fit in a block.\\n     */\\n    function values(AddressSet storage set) internal view returns (address[] memory) {\\n        bytes32[] memory store = _values(set._inner);\\n        address[] memory result;\\n\\n        assembly (\\\"memory-safe\\\") {\\n            result := store\\n        }\\n\\n        return result;\\n    }\\n\\n    // UintSet\\n\\n    struct UintSet {\\n        Set _inner;\\n    }\\n\\n    /**\\n     * @dev Add a value to a set. O(1).\\n     *\\n     * Returns true if the value was added to the set, that is if it was not\\n     * already present.\\n     */\\n    function add(UintSet storage set, uint256 value) internal returns (bool) {\\n        return _add(set._inner, bytes32(value));\\n    }\\n\\n    /**\\n     * @dev Removes a value from a set. O(1).\\n     *\\n     * Returns true if the value was removed from the set, that is if it was\\n     * present.\\n     */\\n    function remove(UintSet storage set, uint256 value) internal returns (bool) {\\n        return _remove(set._inner, bytes32(value));\\n    }\\n\\n    /**\\n     * @dev Removes all the values from a set. O(n).\\n     *\\n     * WARNING: Developers should keep in mind that this function has an unbounded cost and using it may render the\\n     * function uncallable if the set grows to the point where clearing it consumes too much gas to fit in a block.\\n     */\\n    function clear(UintSet storage set) internal {\\n        _clear(set._inner);\\n    }\\n\\n    /**\\n     * @dev Returns true if the value is in the set. O(1).\\n     */\\n    function contains(UintSet storage set, uint256 value) internal view returns (bool) {\\n        return _contains(set._inner, bytes32(value));\\n    }\\n\\n    /**\\n     * @dev Returns the number of values in the set. O(1).\\n     */\\n    function length(UintSet storage set) internal view returns (uint256) {\\n        return _length(set._inner);\\n    }\\n\\n    /**\\n     * @dev Returns the value stored at position `index` in the set. O(1).\\n     *\\n     * Note that there are no guarantees on the ordering of values inside the\\n     * array, and it may change when more values are added or removed.\\n     *\\n     * Requirements:\\n     *\\n     * - `index` must be strictly less than {length}.\\n     */\\n    function at(UintSet storage set, uint256 index) internal view returns (uint256) {\\n        return uint256(_at(set._inner, index));\\n    }\\n\\n    /**\\n     * @dev Return the entire set in an array\\n     *\\n     * WARNING: This operation will copy the entire storage to memory, which can be quite expensive. This is designed\\n     * to mostly be used by view accessors that are queried without any gas fees. Developers should keep in mind that\\n     * this function has an unbounded cost, and using it as part of a state-changing function may render the function\\n     * uncallable if the set grows to a point where copying to memory consumes too much gas to fit in a block.\\n     */\\n    function values(UintSet storage set) internal view returns (uint256[] memory) {\\n        bytes32[] memory store = _values(set._inner);\\n        uint256[] memory result;\\n\\n        assembly (\\\"memory-safe\\\") {\\n            result := store\\n        }\\n\\n        return result;\\n    }\\n}\\n\"},\"@iden3/contracts/verifiers/UniversalVerifier.sol\":{\"content\":\"// SPDX-License-Identifier: GPL-3.0\\npragma solidity 0.8.27;\\n\\nimport {Ownable2StepUpgradeable} from \\\"@openzeppelin/contracts-upgradeable/access/Ownable2StepUpgradeable.sol\\\";\\nimport {ICircuitValidator} from \\\"../interfaces/ICircuitValidator.sol\\\";\\nimport {IZKPVerifier} from \\\"../interfaces/IZKPVerifier.sol\\\";\\nimport {RequestOwnership} from \\\"./RequestOwnership.sol\\\";\\nimport {RequestDisableable} from \\\"./RequestDisableable.sol\\\";\\nimport {ValidatorWhitelist} from \\\"./ValidatorWhitelist.sol\\\";\\nimport {ZKPVerifierBase} from \\\"./ZKPVerifierBase.sol\\\";\\nimport {IState} from \\\"../interfaces/IState.sol\\\";\\n\\n/// @title Universal Verifier Contract\\n/// @notice A contract to manage ZKP (Zero-Knowledge Proof) requests and proofs.\\ncontract UniversalVerifier is\\n    Ownable2StepUpgradeable,\\n    RequestOwnership,\\n    RequestDisableable,\\n    ValidatorWhitelist\\n{\\n    /**\\n     * @dev Version of contract\\n     */\\n    string public constant VERSION = \\\"1.1.1\\\";\\n\\n    /// @dev Event emitted upon submitting a ZKP request\\n    event ZKPResponseSubmitted(uint64 indexed requestId, address indexed caller);\\n\\n    /// @dev Event emitted upon adding a ZKP request\\n    event ZKPRequestSet(\\n        uint64 indexed requestId,\\n        address indexed requestOwner,\\n        string metadata,\\n        address validator,\\n        bytes data\\n    );\\n\\n    /// @dev Modifier to check if the caller is the contract Owner or ZKP Request Owner\\n    modifier onlyOwnerOrRequestOwner(uint64 requestId) {\\n        address sender = _msgSender();\\n        require(\\n            sender == getRequestOwner(requestId) || sender == owner(),\\n            \\\"Not an owner or request owner\\\"\\n        );\\n        _;\\n    }\\n\\n    /// @dev Initializes the contract\\n    function initialize(IState state, address owner) public initializer {\\n        __Ownable_init(owner);\\n        __ZKPVerifierBase_init(state);\\n    }\\n\\n    /// @dev Version of contract getter\\n    function version() public pure returns (string memory) {\\n        return VERSION;\\n    }\\n\\n    /// @dev Sets a ZKP request\\n    /// @param requestId The ID of the ZKP request\\n    /// @param request The ZKP request data\\n    function setZKPRequest(\\n        uint64 requestId,\\n        IZKPVerifier.ZKPRequest calldata request\\n    ) public override(RequestOwnership, ValidatorWhitelist, ZKPVerifierBase) {\\n        super.setZKPRequest(requestId, request);\\n\\n        emit ZKPRequestSet(\\n            requestId,\\n            _msgSender(),\\n            request.metadata,\\n            address(request.validator),\\n            request.data\\n        );\\n    }\\n\\n    /// @dev Submits a ZKP response and updates proof status\\n    /// @param requestId The ID of the ZKP request\\n    /// @param inputs The input data for the proof\\n    /// @param a The first component of the proof\\n    /// @param b The second component of the proof\\n    /// @param c The third component of the proof\\n    function submitZKPResponse(\\n        uint64 requestId,\\n        uint256[] memory inputs,\\n        uint256[2] memory a,\\n        uint256[2][2] memory b,\\n        uint256[2] memory c\\n    ) public override(RequestDisableable, ValidatorWhitelist, ZKPVerifierBase) {\\n        super.submitZKPResponse(requestId, inputs, a, b, c);\\n        emit ZKPResponseSubmitted(requestId, _msgSender());\\n    }\\n\\n    /**\\n     * @dev Submits an array of ZKP responses and updates proofs status\\n     * @param responses The list of responses including ZKP request ID, ZK proof and metadata\\n     * @param crossChainProof The list of cross chain proofs from universal resolver (oracle). This\\n     * includes identities and global states.\\n     */\\n    function submitZKPResponseV2(\\n        IZKPVerifier.ZKPResponse[] memory responses,\\n        bytes memory crossChainProof\\n    ) public override {\\n        super.submitZKPResponseV2(responses, crossChainProof);\\n        for (uint256 i = 0; i < responses.length; i++) {\\n            emit ZKPResponseSubmitted(responses[i].requestId, _msgSender());\\n        }\\n    }\\n\\n    /// @dev Verifies a ZKP response without updating any proof status\\n    /// @param requestId The ID of the ZKP request\\n    /// @param inputs The public inputs for the proof\\n    /// @param a The first component of the proof\\n    /// @param b The second component of the proof\\n    /// @param c The third component of the proof\\n    /// @param sender The sender on behalf of which the proof is done\\n    function verifyZKPResponse(\\n        uint64 requestId,\\n        uint256[] memory inputs,\\n        uint256[2] memory a,\\n        uint256[2][2] memory b,\\n        uint256[2] memory c,\\n        address sender\\n    )\\n        public\\n        override(RequestDisableable, ValidatorWhitelist, ZKPVerifierBase)\\n        returns (ICircuitValidator.KeyToInputIndex[] memory)\\n    {\\n        return super.verifyZKPResponse(requestId, inputs, a, b, c, sender);\\n    }\\n\\n    /**\\n     * @dev Sets the state contract address\\n     */\\n    function setState(IState state) public onlyOwner {\\n        _setState(state);\\n    }\\n\\n    /// @dev Sets ZKP Request Owner address\\n    /// @param requestId The ID of the ZKP request\\n    /// @param requestOwner ZKP Request Owner address\\n    function setRequestOwner(\\n        uint64 requestId,\\n        address requestOwner\\n    ) public onlyOwnerOrRequestOwner(requestId) {\\n        _setRequestOwner(requestId, requestOwner);\\n    }\\n\\n    /// @dev Disables ZKP Request\\n    /// @param requestId The ID of the ZKP request\\n    function disableZKPRequest(uint64 requestId) public onlyOwnerOrRequestOwner(requestId) {\\n        _disableZKPRequest(requestId);\\n    }\\n\\n    /// @dev Enables ZKP Request\\n    /// @param requestId The ID of the ZKP request\\n    function enableZKPRequest(uint64 requestId) public onlyOwnerOrRequestOwner(requestId) {\\n        _enableZKPRequest(requestId);\\n    }\\n\\n    /// @dev Add new validator to the whitelist\\n    /// @param validator Validator address\\n    function addValidatorToWhitelist(ICircuitValidator validator) public onlyOwner {\\n        _addValidatorToWhitelist(validator);\\n    }\\n\\n    /// @dev Remove validator from the whitelist\\n    /// @param validator Validator address\\n    function removeValidatorFromWhitelist(ICircuitValidator validator) public onlyOwner {\\n        _removeValidatorFromWhitelist(validator);\\n    }\\n}\\n\"},\"@iden3/contracts/verifiers/EmbeddedZKPVerifier.sol\":{\"content\":\"// SPDX-License-Identifier: GPL-3.0\\npragma solidity 0.8.27;\\n\\nimport {Ownable2StepUpgradeable} from \\\"@openzeppelin/contracts-upgradeable/access/Ownable2StepUpgradeable.sol\\\";\\nimport {ICircuitValidator} from \\\"../interfaces/ICircuitValidator.sol\\\";\\nimport {IZKPVerifier} from \\\"../interfaces/IZKPVerifier.sol\\\";\\nimport {ZKPVerifierBase} from \\\"./ZKPVerifierBase.sol\\\";\\nimport {IState} from \\\"../interfaces/IState.sol\\\";\\n\\nabstract contract EmbeddedZKPVerifier is Ownable2StepUpgradeable, ZKPVerifierBase {\\n    /**\\n     * @dev Sets the value for Owner\\n     */\\n    function __EmbeddedZKPVerifier_init(\\n        address initialOwner,\\n        IState state\\n    ) internal onlyInitializing {\\n        __Ownable_init(initialOwner);\\n        ___EmbeddedZKPVerifier_init_unchained(initialOwner);\\n        __ZKPVerifierBase_init(state);\\n    }\\n\\n    function ___EmbeddedZKPVerifier_init_unchained(\\n        address initialOwner\\n    ) internal onlyInitializing {}\\n\\n    /// @dev Sets the state contract linked to this verifier\\n    /// @param state The state contract address\\n    function setState(IState state) public onlyOwner {\\n        _setState(state);\\n    }\\n\\n    /// @dev Sets a ZKP request\\n    /// @param requestId The ID of the ZKP request\\n    /// @param request The ZKP request data\\n    function setZKPRequest(\\n        uint64 requestId,\\n        IZKPVerifier.ZKPRequest calldata request\\n    ) public virtual override onlyOwner {\\n        super.setZKPRequest(requestId, request);\\n    }\\n\\n    /// @dev Submits a ZKP response and updates proof status\\n    /// @param requestId The ID of the ZKP request\\n    /// @param inputs The input data for the proof\\n    /// @param a The first component of the proof\\n    /// @param b The second component of the proof\\n    /// @param c The third component of the proof\\n    function submitZKPResponse(\\n        uint64 requestId,\\n        uint256[] memory inputs,\\n        uint256[2] memory a,\\n        uint256[2][2] memory b,\\n        uint256[2] memory c\\n    ) public virtual override {\\n        IZKPVerifier.ZKPRequest memory request = getZKPRequest(requestId);\\n        _beforeProofSubmit(requestId, inputs, request.validator);\\n        super.submitZKPResponse(requestId, inputs, a, b, c);\\n        _afterProofSubmit(requestId, inputs, request.validator);\\n    }\\n\\n    /**\\n     * @dev Submits an array of ZKP responses and updates proofs status\\n     * @param responses The list of responses including ZKP request ID, ZK proof and metadata\\n     * @param crossChainProof The list of cross chain proofs from universal resolver (oracle). This\\n     * includes identities and global states.\\n     */\\n    function submitZKPResponseV2(\\n        IZKPVerifier.ZKPResponse[] memory responses,\\n        bytes memory crossChainProof\\n    ) public override {\\n        _beforeProofSubmitV2(responses);\\n        super.submitZKPResponseV2(responses, crossChainProof);\\n        _afterProofSubmitV2(responses);\\n    }\\n\\n    /**\\n     * @dev Hook that is called before any proof response submit\\n     */\\n    function _beforeProofSubmit(\\n        uint64 requestId,\\n        uint256[] memory inputs,\\n        ICircuitValidator validator\\n    ) internal virtual {}\\n\\n    /**\\n     * @dev Hook that is called after any proof response submit\\n     */\\n    function _afterProofSubmit(\\n        uint64 requestId,\\n        uint256[] memory inputs,\\n        ICircuitValidator validator\\n    ) internal virtual {}\\n\\n    /**\\n     * @dev Hook that is called before any proof response submit V2\\n     * @param responses The list of responses including ZKP request ID, ZK proof and metadata\\n     */\\n    function _beforeProofSubmitV2(IZKPVerifier.ZKPResponse[] memory responses) internal virtual {}\\n\\n    /**\\n     * @dev Hook that is called after any proof response submit V2\\n     * @param responses The list of responses including ZKP request ID, ZK proof and metadata\\n     */\\n    function _afterProofSubmitV2(IZKPVerifier.ZKPResponse[] memory responses) internal virtual {}\\n}\\n\"},\"@iden3/contracts/interfaces/ICircuitValidator.sol\":{\"content\":\"// SPDX-License-Identifier: GPL-3.0\\npragma solidity 0.8.27;\\n\\nimport {IState} from \\\"./IState.sol\\\";\\n\\n/**\\n * @dev ICircuitValidator. Interface for circuit verification.\\n */\\ninterface ICircuitValidator {\\n    /**\\n     * @dev KeyToInputIndex. Information about public inputs of the circuit verification. Used in verify function.\\n     * @param key Name of the public input\\n     * @param inputIndex Index of the public input\\n     *\\n     * Note: Kept for backward compatibility. Now it's replaced by Signal struct for verifyV2 function.\\n     */\\n    struct KeyToInputIndex {\\n        string key;\\n        uint256 inputIndex;\\n    }\\n\\n    /**\\n     * @dev Signal. Information about public signals of the circuit verification. Used in verifyV2 function.\\n     * @param name Name of the public signal\\n     * @param value Value of the public signal\\n     */\\n    struct Signal {\\n        string name;\\n        uint256 value;\\n    }\\n\\n    /**\\n     * @dev Get version of the contract\\n     */\\n    function version() external view returns (string memory);\\n\\n    /**\\n     * @dev Verify with the supported circuit informed in the request query data the groth16 proof\\n     * π=([πa]1,[πb]2,[πc]1) and that the proof was generated by the sender.\\n     * @param inputs Public inputs of the circuit.\\n     * @param a πa element of the groth16 proof.\\n     * @param b πb element of the groth16 proof.\\n     * @param c πc element of the groth16 proof.\\n     * @param data Request query data of the credential to verify.\\n     * @param sender Sender of the proof.\\n     * @return Array of key to public input index as result.\\n     */\\n    function verify(\\n        uint256[] memory inputs,\\n        uint256[2] memory a,\\n        uint256[2][2] memory b,\\n        uint256[2] memory c,\\n        bytes calldata data,\\n        address sender\\n    ) external returns (ICircuitValidator.KeyToInputIndex[] memory);\\n\\n    /**\\n     * @dev Verify with the supported circuit informed in the request query data the groth16 proof\\n     * packed as bytes and that the proof was generated by the sender.\\n     * @param zkProof Proof packed as bytes to verify.\\n     * @param data Request query data of the credential to verify.\\n     * @param sender Sender of the proof.\\n     * @param state State contract to get identities and gist states to check.\\n     * @return Array of public signals as result.\\n     */\\n    function verifyV2(\\n        bytes calldata zkProof,\\n        bytes calldata data,\\n        address sender,\\n        IState state\\n    ) external returns (ICircuitValidator.Signal[] memory);\\n\\n    /**\\n     * @dev Get supported circuit ids.\\n     * @return ids Array of circuit ids supported.\\n     */\\n    function getSupportedCircuitIds() external view returns (string[] memory ids);\\n\\n    /**\\n     * @dev Get the index of the public input of the circuit by name.\\n     * @param name Name of the public input.\\n     * @return Index of the public input.\\n     */\\n    function inputIndexOf(string memory name) external view returns (uint256);\\n}\\n\"},\"@iden3/contracts/lib/PrimitiveTypeUtils.sol\":{\"content\":\"// SPDX-License-Identifier: GPL-3.0\\npragma solidity 0.8.27;\\n\\nimport {BytesLib} from \\\"solidity-bytes-utils/contracts/BytesLib.sol\\\";\\n\\nlibrary PrimitiveTypeUtils {\\n    /**\\n     * @dev uint256ToBytes\\n     */\\n    function uint256ToBytes(uint256 x) internal pure returns (bytes memory b) {\\n        b = new bytes(32);\\n        assembly {\\n            mstore(add(b, 32), x)\\n        }\\n    }\\n\\n    /**\\n     * @dev reverse uint256\\n     */\\n    function reverseUint256(uint256 input) internal pure returns (uint256 v) {\\n        v = input;\\n\\n        // swap bytes\\n        v =\\n            ((v & 0xFF00FF00FF00FF00FF00FF00FF00FF00FF00FF00FF00FF00FF00FF00FF00FF00) >> 8) |\\n            ((v & 0x00FF00FF00FF00FF00FF00FF00FF00FF00FF00FF00FF00FF00FF00FF00FF00FF) << 8);\\n\\n        // swap 2-byte long pairs\\n        v =\\n            ((v & 0xFFFF0000FFFF0000FFFF0000FFFF0000FFFF0000FFFF0000FFFF0000FFFF0000) >> 16) |\\n            ((v & 0x0000FFFF0000FFFF0000FFFF0000FFFF0000FFFF0000FFFF0000FFFF0000FFFF) << 16);\\n\\n        // swap 4-byte long pairs\\n        v =\\n            ((v & 0xFFFFFFFF00000000FFFFFFFF00000000FFFFFFFF00000000FFFFFFFF00000000) >> 32) |\\n            ((v & 0x00000000FFFFFFFF00000000FFFFFFFF00000000FFFFFFFF00000000FFFFFFFF) << 32);\\n\\n        // swap 8-byte long pairs\\n        v =\\n            ((v & 0xFFFFFFFFFFFFFFFF0000000000000000FFFFFFFFFFFFFFFF0000000000000000) >> 64) |\\n            ((v & 0x0000000000000000FFFFFFFFFFFFFFFF0000000000000000FFFFFFFFFFFFFFFF) << 64);\\n\\n        // swap 16-byte long pairs\\n        v = (v >> 128) | (v << 128);\\n    }\\n\\n    /**\\n     * @dev reverse uint16\\n     */\\n    function reverseUint16(uint16 input) internal pure returns (uint16 v) {\\n        v = input;\\n\\n        // swap bytes\\n        v = (v >> 8) | (v << 8);\\n    }\\n\\n    /**\\n     * @dev reverse uint32\\n     */\\n    function reverseUint32(uint32 input) internal pure returns (uint32 v) {\\n        v = input;\\n\\n        // swap bytes\\n        v = ((v & 0xFF00FF00) >> 8) | ((v & 0x00FF00FF) << 8);\\n\\n        // swap 2-byte long pairs\\n        v = (v >> 16) | (v << 16);\\n    }\\n\\n    /**\\n     * @dev compareStrings\\n     */\\n    function compareStrings(string memory a, string memory b) internal pure returns (bool) {\\n        if (bytes(a).length != bytes(b).length) {\\n            return false;\\n        }\\n        return (keccak256(abi.encodePacked((a))) == keccak256(abi.encodePacked((b))));\\n    }\\n\\n    /**\\n     * @dev padRightToUint256 shift left 12 bytes\\n     * @param b, bytes array with max length 32, other bytes are cut. e.g. 0xf39Fd6e51aad88F6F4ce6aB8827279cffFb92266\\n     * @return value e.g 0xf39fd6e51aad88f6f4ce6ab8827279cfffb92266000000000000000000000000\\n     */\\n    function padRightToUint256(bytes memory b) internal pure returns (uint256 value) {\\n        return uint256(bytes32(b));\\n    }\\n\\n    /**\\n     * @dev bytesToAddress\\n     */\\n    function bytesToAddress(bytes memory bys) internal pure returns (address addr) {\\n        assembly {\\n            addr := mload(add(bys, 20))\\n        }\\n    }\\n\\n    /**\\n     * @dev concat\\n     */\\n    function concat(\\n        bytes memory preBytes,\\n        bytes memory postBytes\\n    ) internal pure returns (bytes memory) {\\n        return BytesLib.concat(preBytes, postBytes);\\n    }\\n\\n    /**\\n     * @dev slice\\n     */\\n    function slice(\\n        bytes memory bys,\\n        uint256 start,\\n        uint256 length\\n    ) internal pure returns (bytes memory) {\\n        return BytesLib.slice(bys, start, length);\\n    }\\n\\n    /**\\n     * @dev addressToUint256 converts address to uint256 which lower 20 bytes\\n     * is an address in Big Endian\\n     * @param _addr is ethereum address: eg.0xf39Fd6e51aad88F6F4ce6aB8827279cffFb92266\\n     * which as 0x000000000000000000000000f39fd6e51aad88f6f4ce6ab8827279cfffb92266 converted to uint160\\n     * @return uint256 representation of address 1390849295786071768276380950238675083608645509734\\n     */\\n    function addressToUint256(address _addr) internal pure returns (uint256) {\\n        return uint256(uint160(_addr));\\n    }\\n\\n    /**\\n     * @dev uint256ToAddress converts uint256 which lower 20 bytes\\n     * is an address in Big Endian to address\\n     * @param input uint256 e.g. 1390849295786071768276380950238675083608645509734\\n     * which as 0x000000000000000000000000f39fd6e51aad88f6f4ce6ab8827279cfffb92266 converted to address\\n     * @return address representation of uint256 0xf39Fd6e51aad88F6F4ce6aB8827279cffFb92266\\n     */\\n    function uint256ToAddress(uint256 input) internal pure returns (address) {\\n        require(\\n            input == uint256(uint160(input)),\\n            \\\"given input is not a representation of address, 12 most significant bytes should be zero\\\"\\n        );\\n        return address(uint160(input));\\n    }\\n\\n    /**\\n     * @dev addressToChallenge converts address to uint256 which lower 20 bytes\\n     * are representation of address in LittleEndian\\n     * @param _addr is ethereum address: eg.0xf39Fd6e51aad88F6F4ce6aB8827279cffFb92266\\n     * addressToBytes: 0x000000000000000000000000f39fd6e51aad88f6f4ce6ab8827279cfffb92266\\n     * padRightToUint256: 0xf39fd6e51aad88f6f4ce6ab8827279cfffb92266000000000000000000000000,\\n     * reverseUint256 result: 0x0000000000000000000000006622b9ffcf797282b86acef4f688ad1ae5d69ff3\\n     * @return uint256: 583091486781463398742321306787801699791102451699\\n     */\\n    function addressToUint256LE(address _addr) external pure returns (uint256) {\\n        return reverseUint256(padRightToUint256(addressToBytes(_addr)));\\n    }\\n\\n    /**\\n     * @dev uint256LEtoAddress - converts uint256 which 20 lower bytes\\n     *      are representation of address in LE to address\\n     * @param input is uint256 which is created from bytes in LittleEndian:\\n     * eg. 583091486781463398742321306787801699791102451699\\n     *  or 0x0000000000000000000000006622b9ffcf797282b86acef4f688ad1ae5d69ff3\\n     * reverseUint256 result: 110194434039389003190498847789203126033799499726478230611233094447786700570624\\n     * uint256ToBytes result: 0xf39fd6e51aad88f6f4ce6ab8827279cfffb92266000000000000000000000000\\n     * @return address - 0xf39Fd6e51aad88F6F4ce6aB8827279cffFb92266\\n     */\\n    function uint256LEToAddress(uint256 input) external pure returns (address) {\\n        require(\\n            input == uint256(uint160(input)),\\n            \\\"given uint256 is not a representation of an address, 12 most significant bytes should be zero\\\"\\n        );\\n        return bytesToAddress(uint256ToBytes(reverseUint256(input)));\\n    }\\n\\n    function addressToBytes(address a) internal pure returns (bytes memory) {\\n        return abi.encodePacked(a);\\n    }\\n}\\n\"},\"@openzeppelin/contracts/token/ERC1155/ERC1155.sol\":{\"content\":\"// SPDX-License-Identifier: MIT\\n// OpenZeppelin Contracts (last updated v5.1.0) (token/ERC1155/ERC1155.sol)\\n\\npragma solidity ^0.8.20;\\n\\nimport {IERC1155} from \\\"./IERC1155.sol\\\";\\nimport {IERC1155MetadataURI} from \\\"./extensions/IERC1155MetadataURI.sol\\\";\\nimport {ERC1155Utils} from \\\"./utils/ERC1155Utils.sol\\\";\\nimport {Context} from \\\"../../utils/Context.sol\\\";\\nimport {IERC165, ERC165} from \\\"../../utils/introspection/ERC165.sol\\\";\\nimport {Arrays} from \\\"../../utils/Arrays.sol\\\";\\nimport {IERC1155Errors} from \\\"../../interfaces/draft-IERC6093.sol\\\";\\n\\n/**\\n * @dev Implementation of the basic standard multi-token.\\n * See https://eips.ethereum.org/EIPS/eip-1155\\n * Originally based on code by Enjin: https://github.com/enjin/erc-1155\\n */\\nabstract contract ERC1155 is Context, ERC165, IERC1155, IERC1155MetadataURI, IERC1155Errors {\\n    using Arrays for uint256[];\\n    using Arrays for address[];\\n\\n    mapping(uint256 id => mapping(address account => uint256)) private _balances;\\n\\n    mapping(address account => mapping(address operator => bool)) private _operatorApprovals;\\n\\n    // Used as the URI for all token types by relying on ID substitution, e.g. https://token-cdn-domain/{id}.json\\n    string private _uri;\\n\\n    /**\\n     * @dev See {_setURI}.\\n     */\\n    constructor(string memory uri_) {\\n        _setURI(uri_);\\n    }\\n\\n    /**\\n     * @dev See {IERC165-supportsInterface}.\\n     */\\n    function supportsInterface(bytes4 interfaceId) public view virtual override(ERC165, IERC165) returns (bool) {\\n        return\\n            interfaceId == type(IERC1155).interfaceId ||\\n            interfaceId == type(IERC1155MetadataURI).interfaceId ||\\n            super.supportsInterface(interfaceId);\\n    }\\n\\n    /**\\n     * @dev See {IERC1155MetadataURI-uri}.\\n     *\\n     * This implementation returns the same URI for *all* token types. It relies\\n     * on the token type ID substitution mechanism\\n     * https://eips.ethereum.org/EIPS/eip-1155#metadata[defined in the ERC].\\n     *\\n     * Clients calling this function must replace the `\\\\{id\\\\}` substring with the\\n     * actual token type ID.\\n     */\\n    function uri(uint256 /* id */) public view virtual returns (string memory) {\\n        return _uri;\\n    }\\n\\n    /**\\n     * @dev See {IERC1155-balanceOf}.\\n     */\\n    function balanceOf(address account, uint256 id) public view virtual returns (uint256) {\\n        return _balances[id][account];\\n    }\\n\\n    /**\\n     * @dev See {IERC1155-balanceOfBatch}.\\n     *\\n     * Requirements:\\n     *\\n     * - `accounts` and `ids` must have the same length.\\n     */\\n    function balanceOfBatch(\\n        address[] memory accounts,\\n        uint256[] memory ids\\n    ) public view virtual returns (uint256[] memory) {\\n        if (accounts.length != ids.length) {\\n            revert ERC1155InvalidArrayLength(ids.length, accounts.length);\\n        }\\n\\n        uint256[] memory batchBalances = new uint256[](accounts.length);\\n\\n        for (uint256 i = 0; i < accounts.length; ++i) {\\n            batchBalances[i] = balanceOf(accounts.unsafeMemoryAccess(i), ids.unsafeMemoryAccess(i));\\n        }\\n\\n        return batchBalances;\\n    }\\n\\n    /**\\n     * @dev See {IERC1155-setApprovalForAll}.\\n     */\\n    function setApprovalForAll(address operator, bool approved) public virtual {\\n        _setApprovalForAll(_msgSender(), operator, approved);\\n    }\\n\\n    /**\\n     * @dev See {IERC1155-isApprovedForAll}.\\n     */\\n    function isApprovedForAll(address account, address operator) public view virtual returns (bool) {\\n        return _operatorApprovals[account][operator];\\n    }\\n\\n    /**\\n     * @dev See {IERC1155-safeTransferFrom}.\\n     */\\n    function safeTransferFrom(address from, address to, uint256 id, uint256 value, bytes memory data) public virtual {\\n        address sender = _msgSender();\\n        if (from != sender && !isApprovedForAll(from, sender)) {\\n            revert ERC1155MissingApprovalForAll(sender, from);\\n        }\\n        _safeTransferFrom(from, to, id, value, data);\\n    }\\n\\n    /**\\n     * @dev See {IERC1155-safeBatchTransferFrom}.\\n     */\\n    function safeBatchTransferFrom(\\n        address from,\\n        address to,\\n        uint256[] memory ids,\\n        uint256[] memory values,\\n        bytes memory data\\n    ) public virtual {\\n        address sender = _msgSender();\\n        if (from != sender && !isApprovedForAll(from, sender)) {\\n            revert ERC1155MissingApprovalForAll(sender, from);\\n        }\\n        _safeBatchTransferFrom(from, to, ids, values, data);\\n    }\\n\\n    /**\\n     * @dev Transfers a `value` amount of tokens of type `id` from `from` to `to`. Will mint (or burn) if `from`\\n     * (or `to`) is the zero address.\\n     *\\n     * Emits a {TransferSingle} event if the arrays contain one element, and {TransferBatch} otherwise.\\n     *\\n     * Requirements:\\n     *\\n     * - If `to` refers to a smart contract, it must implement either {IERC1155Receiver-onERC1155Received}\\n     *   or {IERC1155Receiver-onERC1155BatchReceived} and return the acceptance magic value.\\n     * - `ids` and `values` must have the same length.\\n     *\\n     * NOTE: The ERC-1155 acceptance check is not performed in this function. See {_updateWithAcceptanceCheck} instead.\\n     */\\n    function _update(address from, address to, uint256[] memory ids, uint256[] memory values) internal virtual {\\n        if (ids.length != values.length) {\\n            revert ERC1155InvalidArrayLength(ids.length, values.length);\\n        }\\n\\n        address operator = _msgSender();\\n\\n        for (uint256 i = 0; i < ids.length; ++i) {\\n            uint256 id = ids.unsafeMemoryAccess(i);\\n            uint256 value = values.unsafeMemoryAccess(i);\\n\\n            if (from != address(0)) {\\n                uint256 fromBalance = _balances[id][from];\\n                if (fromBalance < value) {\\n                    revert ERC1155InsufficientBalance(from, fromBalance, value, id);\\n                }\\n                unchecked {\\n                    // Overflow not possible: value <= fromBalance\\n                    _balances[id][from] = fromBalance - value;\\n                }\\n            }\\n\\n            if (to != address(0)) {\\n                _balances[id][to] += value;\\n            }\\n        }\\n\\n        if (ids.length == 1) {\\n            uint256 id = ids.unsafeMemoryAccess(0);\\n            uint256 value = values.unsafeMemoryAccess(0);\\n            emit TransferSingle(operator, from, to, id, value);\\n        } else {\\n            emit TransferBatch(operator, from, to, ids, values);\\n        }\\n    }\\n\\n    /**\\n     * @dev Version of {_update} that performs the token acceptance check by calling\\n     * {IERC1155Receiver-onERC1155Received} or {IERC1155Receiver-onERC1155BatchReceived} on the receiver address if it\\n     * contains code (eg. is a smart contract at the moment of execution).\\n     *\\n     * IMPORTANT: Overriding this function is discouraged because it poses a reentrancy risk from the receiver. So any\\n     * update to the contract state after this function would break the check-effect-interaction pattern. Consider\\n     * overriding {_update} instead.\\n     */\\n    function _updateWithAcceptanceCheck(\\n        address from,\\n        address to,\\n        uint256[] memory ids,\\n        uint256[] memory values,\\n        bytes memory data\\n    ) internal virtual {\\n        _update(from, to, ids, values);\\n        if (to != address(0)) {\\n            address operator = _msgSender();\\n            if (ids.length == 1) {\\n                uint256 id = ids.unsafeMemoryAccess(0);\\n                uint256 value = values.unsafeMemoryAccess(0);\\n                ERC1155Utils.checkOnERC1155Received(operator, from, to, id, value, data);\\n            } else {\\n                ERC1155Utils.checkOnERC1155BatchReceived(operator, from, to, ids, values, data);\\n            }\\n        }\\n    }\\n\\n    /**\\n     * @dev Transfers a `value` tokens of token type `id` from `from` to `to`.\\n     *\\n     * Emits a {TransferSingle} event.\\n     *\\n     * Requirements:\\n     *\\n     * - `to` cannot be the zero address.\\n     * - `from` must have a balance of tokens of type `id` of at least `value` amount.\\n     * - If `to` refers to a smart contract, it must implement {IERC1155Receiver-onERC1155Received} and return the\\n     * acceptance magic value.\\n     */\\n    function _safeTransferFrom(address from, address to, uint256 id, uint256 value, bytes memory data) internal {\\n        if (to == address(0)) {\\n            revert ERC1155InvalidReceiver(address(0));\\n        }\\n        if (from == address(0)) {\\n            revert ERC1155InvalidSender(address(0));\\n        }\\n        (uint256[] memory ids, uint256[] memory values) = _asSingletonArrays(id, value);\\n        _updateWithAcceptanceCheck(from, to, ids, values, data);\\n    }\\n\\n    /**\\n     * @dev xref:ROOT:erc1155.adoc#batch-operations[Batched] version of {_safeTransferFrom}.\\n     *\\n     * Emits a {TransferBatch} event.\\n     *\\n     * Requirements:\\n     *\\n     * - If `to` refers to a smart contract, it must implement {IERC1155Receiver-onERC1155BatchReceived} and return the\\n     * acceptance magic value.\\n     * - `ids` and `values` must have the same length.\\n     */\\n    function _safeBatchTransferFrom(\\n        address from,\\n        address to,\\n        uint256[] memory ids,\\n        uint256[] memory values,\\n        bytes memory data\\n    ) internal {\\n        if (to == address(0)) {\\n            revert ERC1155InvalidReceiver(address(0));\\n        }\\n        if (from == address(0)) {\\n            revert ERC1155InvalidSender(address(0));\\n        }\\n        _updateWithAcceptanceCheck(from, to, ids, values, data);\\n    }\\n\\n    /**\\n     * @dev Sets a new URI for all token types, by relying on the token type ID\\n     * substitution mechanism\\n     * https://eips.ethereum.org/EIPS/eip-1155#metadata[defined in the ERC].\\n     *\\n     * By this mechanism, any occurrence of the `\\\\{id\\\\}` substring in either the\\n     * URI or any of the values in the JSON file at said URI will be replaced by\\n     * clients with the token type ID.\\n     *\\n     * For example, the `https://token-cdn-domain/\\\\{id\\\\}.json` URI would be\\n     * interpreted by clients as\\n     * `https://token-cdn-domain/000000000000000000000000000000000000000000000000000000000004cce0.json`\\n     * for token type ID 0x4cce0.\\n     *\\n     * See {uri}.\\n     *\\n     * Because these URIs cannot be meaningfully represented by the {URI} event,\\n     * this function emits no events.\\n     */\\n    function _setURI(string memory newuri) internal virtual {\\n        _uri = newuri;\\n    }\\n\\n    /**\\n     * @dev Creates a `value` amount of tokens of type `id`, and assigns them to `to`.\\n     *\\n     * Emits a {TransferSingle} event.\\n     *\\n     * Requirements:\\n     *\\n     * - `to` cannot be the zero address.\\n     * - If `to` refers to a smart contract, it must implement {IERC1155Receiver-onERC1155Received} and return the\\n     * acceptance magic value.\\n     */\\n    function _mint(address to, uint256 id, uint256 value, bytes memory data) internal {\\n        if (to == address(0)) {\\n            revert ERC1155InvalidReceiver(address(0));\\n        }\\n        (uint256[] memory ids, uint256[] memory values) = _asSingletonArrays(id, value);\\n        _updateWithAcceptanceCheck(address(0), to, ids, values, data);\\n    }\\n\\n    /**\\n     * @dev xref:ROOT:erc1155.adoc#batch-operations[Batched] version of {_mint}.\\n     *\\n     * Emits a {TransferBatch} event.\\n     *\\n     * Requirements:\\n     *\\n     * - `ids` and `values` must have the same length.\\n     * - `to` cannot be the zero address.\\n     * - If `to` refers to a smart contract, it must implement {IERC1155Receiver-onERC1155BatchReceived} and return the\\n     * acceptance magic value.\\n     */\\n    function _mintBatch(address to, uint256[] memory ids, uint256[] memory values, bytes memory data) internal {\\n        if (to == address(0)) {\\n            revert ERC1155InvalidReceiver(address(0));\\n        }\\n        _updateWithAcceptanceCheck(address(0), to, ids, values, data);\\n    }\\n\\n    /**\\n     * @dev Destroys a `value` amount of tokens of type `id` from `from`\\n     *\\n     * Emits a {TransferSingle} event.\\n     *\\n     * Requirements:\\n     *\\n     * - `from` cannot be the zero address.\\n     * - `from` must have at least `value` amount of tokens of type `id`.\\n     */\\n    function _burn(address from, uint256 id, uint256 value) internal {\\n        if (from == address(0)) {\\n            revert ERC1155InvalidSender(address(0));\\n        }\\n        (uint256[] memory ids, uint256[] memory values) = _asSingletonArrays(id, value);\\n        _updateWithAcceptanceCheck(from, address(0), ids, values, \\\"\\\");\\n    }\\n\\n    /**\\n     * @dev xref:ROOT:erc1155.adoc#batch-operations[Batched] version of {_burn}.\\n     *\\n     * Emits a {TransferBatch} event.\\n     *\\n     * Requirements:\\n     *\\n     * - `from` cannot be the zero address.\\n     * - `from` must have at least `value` amount of tokens of type `id`.\\n     * - `ids` and `values` must have the same length.\\n     */\\n    function _burnBatch(address from, uint256[] memory ids, uint256[] memory values) internal {\\n        if (from == address(0)) {\\n            revert ERC1155InvalidSender(address(0));\\n        }\\n        _updateWithAcceptanceCheck(from, address(0), ids, values, \\\"\\\");\\n    }\\n\\n    /**\\n     * @dev Approve `operator` to operate on all of `owner` tokens\\n     *\\n     * Emits an {ApprovalForAll} event.\\n     *\\n     * Requirements:\\n     *\\n     * - `operator` cannot be the zero address.\\n     */\\n    function _setApprovalForAll(address owner, address operator, bool approved) internal virtual {\\n        if (operator == address(0)) {\\n            revert ERC1155InvalidOperator(address(0));\\n        }\\n        _operatorApprovals[owner][operator] = approved;\\n        emit ApprovalForAll(owner, operator, approved);\\n    }\\n\\n    /**\\n     * @dev Creates an array in memory with only one value for each of the elements provided.\\n     */\\n    function _asSingletonArrays(\\n        uint256 element1,\\n        uint256 element2\\n    ) private pure returns (uint256[] memory array1, uint256[] memory array2) {\\n        assembly (\\\"memory-safe\\\") {\\n            // Load the free memory pointer\\n            array1 := mload(0x40)\\n            // Set array length to 1\\n            mstore(array1, 1)\\n            // Store the single element at the next word after the length (where content starts)\\n            mstore(add(array1, 0x20), element1)\\n\\n            // Repeat for next array locating it right after the first array\\n            array2 := add(array1, 0x40)\\n            mstore(array2, 1)\\n            mstore(add(array2, 0x20), element2)\\n\\n            // Update the free memory pointer by pointing after the second array\\n            mstore(0x40, add(array2, 0x40))\\n        }\\n    }\\n}\\n\"},\"@openzeppelin/contracts/access/Ownable.sol\":{\"content\":\"// SPDX-License-Identifier: MIT\\n// OpenZeppelin Contracts (last updated v5.0.0) (access/Ownable.sol)\\n\\npragma solidity ^0.8.20;\\n\\nimport {Context} from \\\"../utils/Context.sol\\\";\\n\\n/**\\n * @dev Contract module which provides a basic access control mechanism, where\\n * there is an account (an owner) that can be granted exclusive access to\\n * specific functions.\\n *\\n * The initial owner is set to the address provided by the deployer. This can\\n * later be changed with {transferOwnership}.\\n *\\n * This module is used through inheritance. It will make available the modifier\\n * `onlyOwner`, which can be applied to your functions to restrict their use to\\n * the owner.\\n */\\nabstract contract Ownable is Context {\\n    address private _owner;\\n\\n    /**\\n     * @dev The caller account is not authorized to perform an operation.\\n     */\\n    error OwnableUnauthorizedAccount(address account);\\n\\n    /**\\n     * @dev The owner is not a valid owner account. (eg. `address(0)`)\\n     */\\n    error OwnableInvalidOwner(address owner);\\n\\n    event OwnershipTransferred(address indexed previousOwner, address indexed newOwner);\\n\\n    /**\\n     * @dev Initializes the contract setting the address provided by the deployer as the initial owner.\\n     */\\n    constructor(address initialOwner) {\\n        if (initialOwner == address(0)) {\\n            revert OwnableInvalidOwner(address(0));\\n        }\\n        _transferOwnership(initialOwner);\\n    }\\n\\n    /**\\n     * @dev Throws if called by any account other than the owner.\\n     */\\n    modifier onlyOwner() {\\n        _checkOwner();\\n        _;\\n    }\\n\\n    /**\\n     * @dev Returns the address of the current owner.\\n     */\\n    function owner() public view virtual returns (address) {\\n        return _owner;\\n    }\\n\\n    /**\\n     * @dev Throws if the sender is not the owner.\\n     */\\n    function _checkOwner() internal view virtual {\\n        if (owner() != _msgSender()) {\\n            revert OwnableUnauthorizedAccount(_msgSender());\\n        }\\n    }\\n\\n    /**\\n     * @dev Leaves the contract without owner. It will not be possible to call\\n     * `onlyOwner` functions. Can only be called by the current owner.\\n     *\\n     * NOTE: Renouncing ownership will leave the contract without an owner,\\n     * thereby disabling any functionality that is only available to the owner.\\n     */\\n    function renounceOwnership() public virtual onlyOwner {\\n        _transferOwnership(address(0));\\n    }\\n\\n    /**\\n     * @dev Transfers ownership of the contract to a new account (`newOwner`).\\n     * Can only be called by the current owner.\\n     */\\n    function transferOwnership(address newOwner) public virtual onlyOwner {\\n        if (newOwner == address(0)) {\\n            revert OwnableInvalidOwner(address(0));\\n        }\\n        _transferOwnership(newOwner);\\n    }\\n\\n    /**\\n     * @dev Transfers ownership of the contract to a new account (`newOwner`).\\n     * Internal function without access restriction.\\n     */\\n    function _transferOwnership(address newOwner) internal virtual {\\n        address oldOwner = _owner;\\n        _owner = newOwner;\\n        emit OwnershipTransferred(oldOwner, newOwner);\\n    }\\n}\\n\"},\"@openzeppelin/contracts/utils/Arrays.sol\":{\"content\":\"// SPDX-License-Identifier: MIT\\n// OpenZeppelin Contracts (last updated v5.1.0) (utils/Arrays.sol)\\n// This file was procedurally generated from scripts/generate/templates/Arrays.js.\\n\\npragma solidity ^0.8.20;\\n\\nimport {Comparators} from \\\"./Comparators.sol\\\";\\nimport {SlotDerivation} from \\\"./SlotDerivation.sol\\\";\\nimport {StorageSlot} from \\\"./StorageSlot.sol\\\";\\nimport {Math} from \\\"./math/Math.sol\\\";\\n\\n/**\\n * @dev Collection of functions related to array types.\\n */\\nlibrary Arrays {\\n    using SlotDerivation for bytes32;\\n    using StorageSlot for bytes32;\\n\\n    /**\\n     * @dev Sort an array of uint256 (in memory) following the provided comparator function.\\n     *\\n     * This function does the sorting \\\"in place\\\", meaning that it overrides the input. The object is returned for\\n     * convenience, but that returned value can be discarded safely if the caller has a memory pointer to the array.\\n     *\\n     * NOTE: this function's cost is `O(n · log(n))` in average and `O(n²)` in the worst case, with n the length of the\\n     * array. Using it in view functions that are executed through `eth_call` is safe, but one should be very careful\\n     * when executing this as part of a transaction. If the array being sorted is too large, the sort operation may\\n     * consume more gas than is available in a block, leading to potential DoS.\\n     *\\n     * IMPORTANT: Consider memory side-effects when using custom comparator functions that access memory in an unsafe way.\\n     */\\n    function sort(\\n        uint256[] memory array,\\n        function(uint256, uint256) pure returns (bool) comp\\n    ) internal pure returns (uint256[] memory) {\\n        _quickSort(_begin(array), _end(array), comp);\\n        return array;\\n    }\\n\\n    /**\\n     * @dev Variant of {sort} that sorts an array of uint256 in increasing order.\\n     */\\n    function sort(uint256[] memory array) internal pure returns (uint256[] memory) {\\n        sort(array, Comparators.lt);\\n        return array;\\n    }\\n\\n    /**\\n     * @dev Sort an array of address (in memory) following the provided comparator function.\\n     *\\n     * This function does the sorting \\\"in place\\\", meaning that it overrides the input. The object is returned for\\n     * convenience, but that returned value can be discarded safely if the caller has a memory pointer to the array.\\n     *\\n     * NOTE: this function's cost is `O(n · log(n))` in average and `O(n²)` in the worst case, with n the length of the\\n     * array. Using it in view functions that are executed through `eth_call` is safe, but one should be very careful\\n     * when executing this as part of a transaction. If the array being sorted is too large, the sort operation may\\n     * consume more gas than is available in a block, leading to potential DoS.\\n     *\\n     * IMPORTANT: Consider memory side-effects when using custom comparator functions that access memory in an unsafe way.\\n     */\\n    function sort(\\n        address[] memory array,\\n        function(address, address) pure returns (bool) comp\\n    ) internal pure returns (address[] memory) {\\n        sort(_castToUint256Array(array), _castToUint256Comp(comp));\\n        return array;\\n    }\\n\\n    /**\\n     * @dev Variant of {sort} that sorts an array of address in increasing order.\\n     */\\n    function sort(address[] memory array) internal pure returns (address[] memory) {\\n        sort(_castToUint256Array(array), Comparators.lt);\\n        return array;\\n    }\\n\\n    /**\\n     * @dev Sort an array of bytes32 (in memory) following the provided comparator function.\\n     *\\n     * This function does the sorting \\\"in place\\\", meaning that it overrides the input. The object is returned for\\n     * convenience, but that returned value can be discarded safely if the caller has a memory pointer to the array.\\n     *\\n     * NOTE: this function's cost is `O(n · log(n))` in average and `O(n²)` in the worst case, with n the length of the\\n     * array. Using it in view functions that are executed through `eth_call` is safe, but one should be very careful\\n     * when executing this as part of a transaction. If the array being sorted is too large, the sort operation may\\n     * consume more gas than is available in a block, leading to potential DoS.\\n     *\\n     * IMPORTANT: Consider memory side-effects when using custom comparator functions that access memory in an unsafe way.\\n     */\\n    function sort(\\n        bytes32[] memory array,\\n        function(bytes32, bytes32) pure returns (bool) comp\\n    ) internal pure returns (bytes32[] memory) {\\n        sort(_castToUint256Array(array), _castToUint256Comp(comp));\\n        return array;\\n    }\\n\\n    /**\\n     * @dev Variant of {sort} that sorts an array of bytes32 in increasing order.\\n     */\\n    function sort(bytes32[] memory array) internal pure returns (bytes32[] memory) {\\n        sort(_castToUint256Array(array), Comparators.lt);\\n        return array;\\n    }\\n\\n    /**\\n     * @dev Performs a quick sort of a segment of memory. The segment sorted starts at `begin` (inclusive), and stops\\n     * at end (exclusive). Sorting follows the `comp` comparator.\\n     *\\n     * Invariant: `begin <= end`. This is the case when initially called by {sort} and is preserved in subcalls.\\n     *\\n     * IMPORTANT: Memory locations between `begin` and `end` are not validated/zeroed. This function should\\n     * be used only if the limits are within a memory array.\\n     */\\n    function _quickSort(uint256 begin, uint256 end, function(uint256, uint256) pure returns (bool) comp) private pure {\\n        unchecked {\\n            if (end - begin < 0x40) return;\\n\\n            // Use first element as pivot\\n            uint256 pivot = _mload(begin);\\n            // Position where the pivot should be at the end of the loop\\n            uint256 pos = begin;\\n\\n            for (uint256 it = begin + 0x20; it < end; it += 0x20) {\\n                if (comp(_mload(it), pivot)) {\\n                    // If the value stored at the iterator's position comes before the pivot, we increment the\\n                    // position of the pivot and move the value there.\\n                    pos += 0x20;\\n                    _swap(pos, it);\\n                }\\n            }\\n\\n            _swap(begin, pos); // Swap pivot into place\\n            _quickSort(begin, pos, comp); // Sort the left side of the pivot\\n            _quickSort(pos + 0x20, end, comp); // Sort the right side of the pivot\\n        }\\n    }\\n\\n    /**\\n     * @dev Pointer to the memory location of the first element of `array`.\\n     */\\n    function _begin(uint256[] memory array) private pure returns (uint256 ptr) {\\n        assembly (\\\"memory-safe\\\") {\\n            ptr := add(array, 0x20)\\n        }\\n    }\\n\\n    /**\\n     * @dev Pointer to the memory location of the first memory word (32bytes) after `array`. This is the memory word\\n     * that comes just after the last element of the array.\\n     */\\n    function _end(uint256[] memory array) private pure returns (uint256 ptr) {\\n        unchecked {\\n            return _begin(array) + array.length * 0x20;\\n        }\\n    }\\n\\n    /**\\n     * @dev Load memory word (as a uint256) at location `ptr`.\\n     */\\n    function _mload(uint256 ptr) private pure returns (uint256 value) {\\n        assembly {\\n            value := mload(ptr)\\n        }\\n    }\\n\\n    /**\\n     * @dev Swaps the elements memory location `ptr1` and `ptr2`.\\n     */\\n    function _swap(uint256 ptr1, uint256 ptr2) private pure {\\n        assembly {\\n            let value1 := mload(ptr1)\\n            let value2 := mload(ptr2)\\n            mstore(ptr1, value2)\\n            mstore(ptr2, value1)\\n        }\\n    }\\n\\n    /// @dev Helper: low level cast address memory array to uint256 memory array\\n    function _castToUint256Array(address[] memory input) private pure returns (uint256[] memory output) {\\n        assembly {\\n            output := input\\n        }\\n    }\\n\\n    /// @dev Helper: low level cast bytes32 memory array to uint256 memory array\\n    function _castToUint256Array(bytes32[] memory input) private pure returns (uint256[] memory output) {\\n        assembly {\\n            output := input\\n        }\\n    }\\n\\n    /// @dev Helper: low level cast address comp function to uint256 comp function\\n    function _castToUint256Comp(\\n        function(address, address) pure returns (bool) input\\n    ) private pure returns (function(uint256, uint256) pure returns (bool) output) {\\n        assembly {\\n            output := input\\n        }\\n    }\\n\\n    /// @dev Helper: low level cast bytes32 comp function to uint256 comp function\\n    function _castToUint256Comp(\\n        function(bytes32, bytes32) pure returns (bool) input\\n    ) private pure returns (function(uint256, uint256) pure returns (bool) output) {\\n        assembly {\\n            output := input\\n        }\\n    }\\n\\n    /**\\n     * @dev Searches a sorted `array` and returns the first index that contains\\n     * a value greater or equal to `element`. If no such index exists (i.e. all\\n     * values in the array are strictly less than `element`), the array length is\\n     * returned. Time complexity O(log n).\\n     *\\n     * NOTE: The `array` is expected to be sorted in ascending order, and to\\n     * contain no repeated elements.\\n     *\\n     * IMPORTANT: Deprecated. This implementation behaves as {lowerBound} but lacks\\n     * support for repeated elements in the array. The {lowerBound} function should\\n     * be used instead.\\n     */\\n    function findUpperBound(uint256[] storage array, uint256 element) internal view returns (uint256) {\\n        uint256 low = 0;\\n        uint256 high = array.length;\\n\\n        if (high == 0) {\\n            return 0;\\n        }\\n\\n        while (low < high) {\\n            uint256 mid = Math.average(low, high);\\n\\n            // Note that mid will always be strictly less than high (i.e. it will be a valid array index)\\n            // because Math.average rounds towards zero (it does integer division with truncation).\\n            if (unsafeAccess(array, mid).value > element) {\\n                high = mid;\\n            } else {\\n                low = mid + 1;\\n            }\\n        }\\n\\n        // At this point `low` is the exclusive upper bound. We will return the inclusive upper bound.\\n        if (low > 0 && unsafeAccess(array, low - 1).value == element) {\\n            return low - 1;\\n        } else {\\n            return low;\\n        }\\n    }\\n\\n    /**\\n     * @dev Searches an `array` sorted in ascending order and returns the first\\n     * index that contains a value greater or equal than `element`. If no such index\\n     * exists (i.e. all values in the array are strictly less than `element`), the array\\n     * length is returned. Time complexity O(log n).\\n     *\\n     * See C++'s https://en.cppreference.com/w/cpp/algorithm/lower_bound[lower_bound].\\n     */\\n    function lowerBound(uint256[] storage array, uint256 element) internal view returns (uint256) {\\n        uint256 low = 0;\\n        uint256 high = array.length;\\n\\n        if (high == 0) {\\n            return 0;\\n        }\\n\\n        while (low < high) {\\n            uint256 mid = Math.average(low, high);\\n\\n            // Note that mid will always be strictly less than high (i.e. it will be a valid array index)\\n            // because Math.average rounds towards zero (it does integer division with truncation).\\n            if (unsafeAccess(array, mid).value < element) {\\n                // this cannot overflow because mid < high\\n                unchecked {\\n                    low = mid + 1;\\n                }\\n            } else {\\n                high = mid;\\n            }\\n        }\\n\\n        return low;\\n    }\\n\\n    /**\\n     * @dev Searches an `array` sorted in ascending order and returns the first\\n     * index that contains a value strictly greater than `element`. If no such index\\n     * exists (i.e. all values in the array are strictly less than `element`), the array\\n     * length is returned. Time complexity O(log n).\\n     *\\n     * See C++'s https://en.cppreference.com/w/cpp/algorithm/upper_bound[upper_bound].\\n     */\\n    function upperBound(uint256[] storage array, uint256 element) internal view returns (uint256) {\\n        uint256 low = 0;\\n        uint256 high = array.length;\\n\\n        if (high == 0) {\\n            return 0;\\n        }\\n\\n        while (low < high) {\\n            uint256 mid = Math.average(low, high);\\n\\n            // Note that mid will always be strictly less than high (i.e. it will be a valid array index)\\n            // because Math.average rounds towards zero (it does integer division with truncation).\\n            if (unsafeAccess(array, mid).value > element) {\\n                high = mid;\\n            } else {\\n                // this cannot overflow because mid < high\\n                unchecked {\\n                    low = mid + 1;\\n                }\\n            }\\n        }\\n\\n        return low;\\n    }\\n\\n    /**\\n     * @dev Same as {lowerBound}, but with an array in memory.\\n     */\\n    function lowerBoundMemory(uint256[] memory array, uint256 element) internal pure returns (uint256) {\\n        uint256 low = 0;\\n        uint256 high = array.length;\\n\\n        if (high == 0) {\\n            return 0;\\n        }\\n\\n        while (low < high) {\\n            uint256 mid = Math.average(low, high);\\n\\n            // Note that mid will always be strictly less than high (i.e. it will be a valid array index)\\n            // because Math.average rounds towards zero (it does integer division with truncation).\\n            if (unsafeMemoryAccess(array, mid) < element) {\\n                // this cannot overflow because mid < high\\n                unchecked {\\n                    low = mid + 1;\\n                }\\n            } else {\\n                high = mid;\\n            }\\n        }\\n\\n        return low;\\n    }\\n\\n    /**\\n     * @dev Same as {upperBound}, but with an array in memory.\\n     */\\n    function upperBoundMemory(uint256[] memory array, uint256 element) internal pure returns (uint256) {\\n        uint256 low = 0;\\n        uint256 high = array.length;\\n\\n        if (high == 0) {\\n            return 0;\\n        }\\n\\n        while (low < high) {\\n            uint256 mid = Math.average(low, high);\\n\\n            // Note that mid will always be strictly less than high (i.e. it will be a valid array index)\\n            // because Math.average rounds towards zero (it does integer division with truncation).\\n            if (unsafeMemoryAccess(array, mid) > element) {\\n                high = mid;\\n            } else {\\n                // this cannot overflow because mid < high\\n                unchecked {\\n                    low = mid + 1;\\n                }\\n            }\\n        }\\n\\n        return low;\\n    }\\n\\n    /**\\n     * @dev Access an array in an \\\"unsafe\\\" way. Skips solidity \\\"index-out-of-range\\\" check.\\n     *\\n     * WARNING: Only use if you are certain `pos` is lower than the array length.\\n     */\\n    function unsafeAccess(address[] storage arr, uint256 pos) internal pure returns (StorageSlot.AddressSlot storage) {\\n        bytes32 slot;\\n        assembly (\\\"memory-safe\\\") {\\n            slot := arr.slot\\n        }\\n        return slot.deriveArray().offset(pos).getAddressSlot();\\n    }\\n\\n    /**\\n     * @dev Access an array in an \\\"unsafe\\\" way. Skips solidity \\\"index-out-of-range\\\" check.\\n     *\\n     * WARNING: Only use if you are certain `pos` is lower than the array length.\\n     */\\n    function unsafeAccess(bytes32[] storage arr, uint256 pos) internal pure returns (StorageSlot.Bytes32Slot storage) {\\n        bytes32 slot;\\n        assembly (\\\"memory-safe\\\") {\\n            slot := arr.slot\\n        }\\n        return slot.deriveArray().offset(pos).getBytes32Slot();\\n    }\\n\\n    /**\\n     * @dev Access an array in an \\\"unsafe\\\" way. Skips solidity \\\"index-out-of-range\\\" check.\\n     *\\n     * WARNING: Only use if you are certain `pos` is lower than the array length.\\n     */\\n    function unsafeAccess(uint256[] storage arr, uint256 pos) internal pure returns (StorageSlot.Uint256Slot storage) {\\n        bytes32 slot;\\n        assembly (\\\"memory-safe\\\") {\\n            slot := arr.slot\\n        }\\n        return slot.deriveArray().offset(pos).getUint256Slot();\\n    }\\n\\n    /**\\n     * @dev Access an array in an \\\"unsafe\\\" way. Skips solidity \\\"index-out-of-range\\\" check.\\n     *\\n     * WARNING: Only use if you are certain `pos` is lower than the array length.\\n     */\\n    function unsafeMemoryAccess(address[] memory arr, uint256 pos) internal pure returns (address res) {\\n        assembly {\\n            res := mload(add(add(arr, 0x20), mul(pos, 0x20)))\\n        }\\n    }\\n\\n    /**\\n     * @dev Access an array in an \\\"unsafe\\\" way. Skips solidity \\\"index-out-of-range\\\" check.\\n     *\\n     * WARNING: Only use if you are certain `pos` is lower than the array length.\\n     */\\n    function unsafeMemoryAccess(bytes32[] memory arr, uint256 pos) internal pure returns (bytes32 res) {\\n        assembly {\\n            res := mload(add(add(arr, 0x20), mul(pos, 0x20)))\\n        }\\n    }\\n\\n    /**\\n     * @dev Access an array in an \\\"unsafe\\\" way. Skips solidity \\\"index-out-of-range\\\" check.\\n     *\\n     * WARNING: Only use if you are certain `pos` is lower than the array length.\\n     */\\n    function unsafeMemoryAccess(uint256[] memory arr, uint256 pos) internal pure returns (uint256 res) {\\n        assembly {\\n            res := mload(add(add(arr, 0x20), mul(pos, 0x20)))\\n        }\\n    }\\n\\n    /**\\n     * @dev Helper to set the length of an dynamic array. Directly writing to `.length` is forbidden.\\n     *\\n     * WARNING: this does not clear elements if length is reduced, of initialize elements if length is increased.\\n     */\\n    function unsafeSetLength(address[] storage array, uint256 len) internal {\\n        assembly (\\\"memory-safe\\\") {\\n            sstore(array.slot, len)\\n        }\\n    }\\n\\n    /**\\n     * @dev Helper to set the length of an dynamic array. Directly writing to `.length` is forbidden.\\n     *\\n     * WARNING: this does not clear elements if length is reduced, of initialize elements if length is increased.\\n     */\\n    function unsafeSetLength(bytes32[] storage array, uint256 len) internal {\\n        assembly (\\\"memory-safe\\\") {\\n            sstore(array.slot, len)\\n        }\\n    }\\n\\n    /**\\n     * @dev Helper to set the length of an dynamic array. Directly writing to `.length` is forbidden.\\n     *\\n     * WARNING: this does not clear elements if length is reduced, of initialize elements if length is increased.\\n     */\\n    function unsafeSetLength(uint256[] storage array, uint256 len) internal {\\n        assembly (\\\"memory-safe\\\") {\\n            sstore(array.slot, len)\\n        }\\n    }\\n}\\n\"},\"@openzeppelin/contracts/interfaces/draft-IERC6093.sol\":{\"content\":\"// SPDX-License-Identifier: MIT\\n// OpenZeppelin Contracts (last updated v5.1.0) (interfaces/draft-IERC6093.sol)\\npragma solidity ^0.8.20;\\n\\n/**\\n * @dev Standard ERC-20 Errors\\n * Interface of the https://eips.ethereum.org/EIPS/eip-6093[ERC-6093] custom errors for ERC-20 tokens.\\n */\\ninterface IERC20Errors {\\n    /**\\n     * @dev Indicates an error related to the current `balance` of a `sender`. Used in transfers.\\n     * @param sender Address whose tokens are being transferred.\\n     * @param balance Current balance for the interacting account.\\n     * @param needed Minimum amount required to perform a transfer.\\n     */\\n    error ERC20InsufficientBalance(address sender, uint256 balance, uint256 needed);\\n\\n    /**\\n     * @dev Indicates a failure with the token `sender`. Used in transfers.\\n     * @param sender Address whose tokens are being transferred.\\n     */\\n    error ERC20InvalidSender(address sender);\\n\\n    /**\\n     * @dev Indicates a failure with the token `receiver`. Used in transfers.\\n     * @param receiver Address to which tokens are being transferred.\\n     */\\n    error ERC20InvalidReceiver(address receiver);\\n\\n    /**\\n     * @dev Indicates a failure with the `spender`’s `allowance`. Used in transfers.\\n     * @param spender Address that may be allowed to operate on tokens without being their owner.\\n     * @param allowance Amount of tokens a `spender` is allowed to operate with.\\n     * @param needed Minimum amount required to perform a transfer.\\n     */\\n    error ERC20InsufficientAllowance(address spender, uint256 allowance, uint256 needed);\\n\\n    /**\\n     * @dev Indicates a failure with the `approver` of a token to be approved. Used in approvals.\\n     * @param approver Address initiating an approval operation.\\n     */\\n    error ERC20InvalidApprover(address approver);\\n\\n    /**\\n     * @dev Indicates a failure with the `spender` to be approved. Used in approvals.\\n     * @param spender Address that may be allowed to operate on tokens without being their owner.\\n     */\\n    error ERC20InvalidSpender(address spender);\\n}\\n\\n/**\\n * @dev Standard ERC-721 Errors\\n * Interface of the https://eips.ethereum.org/EIPS/eip-6093[ERC-6093] custom errors for ERC-721 tokens.\\n */\\ninterface IERC721Errors {\\n    /**\\n     * @dev Indicates that an address can't be an owner. For example, `address(0)` is a forbidden owner in ERC-20.\\n     * Used in balance queries.\\n     * @param owner Address of the current owner of a token.\\n     */\\n    error ERC721InvalidOwner(address owner);\\n\\n    /**\\n     * @dev Indicates a `tokenId` whose `owner` is the zero address.\\n     * @param tokenId Identifier number of a token.\\n     */\\n    error ERC721NonexistentToken(uint256 tokenId);\\n\\n    /**\\n     * @dev Indicates an error related to the ownership over a particular token. Used in transfers.\\n     * @param sender Address whose tokens are being transferred.\\n     * @param tokenId Identifier number of a token.\\n     * @param owner Address of the current owner of a token.\\n     */\\n    error ERC721IncorrectOwner(address sender, uint256 tokenId, address owner);\\n\\n    /**\\n     * @dev Indicates a failure with the token `sender`. Used in transfers.\\n     * @param sender Address whose tokens are being transferred.\\n     */\\n    error ERC721InvalidSender(address sender);\\n\\n    /**\\n     * @dev Indicates a failure with the token `receiver`. Used in transfers.\\n     * @param receiver Address to which tokens are being transferred.\\n     */\\n    error ERC721InvalidReceiver(address receiver);\\n\\n    /**\\n     * @dev Indicates a failure with the `operator`’s approval. Used in transfers.\\n     * @param operator Address that may be allowed to operate on tokens without being their owner.\\n     * @param tokenId Identifier number of a token.\\n     */\\n    error ERC721InsufficientApproval(address operator, uint256 tokenId);\\n\\n    /**\\n     * @dev Indicates a failure with the `approver` of a token to be approved. Used in approvals.\\n     * @param approver Address initiating an approval operation.\\n     */\\n    error ERC721InvalidApprover(address approver);\\n\\n    /**\\n     * @dev Indicates a failure with the `operator` to be approved. Used in approvals.\\n     * @param operator Address that may be allowed to operate on tokens without being their owner.\\n     */\\n    error ERC721InvalidOperator(address operator);\\n}\\n\\n/**\\n * @dev Standard ERC-1155 Errors\\n * Interface of the https://eips.ethereum.org/EIPS/eip-6093[ERC-6093] custom errors for ERC-1155 tokens.\\n */\\ninterface IERC1155Errors {\\n    /**\\n     * @dev Indicates an error related to the current `balance` of a `sender`. Used in transfers.\\n     * @param sender Address whose tokens are being transferred.\\n     * @param balance Current balance for the interacting account.\\n     * @param needed Minimum amount required to perform a transfer.\\n     * @param tokenId Identifier number of a token.\\n     */\\n    error ERC1155InsufficientBalance(address sender, uint256 balance, uint256 needed, uint256 tokenId);\\n\\n    /**\\n     * @dev Indicates a failure with the token `sender`. Used in transfers.\\n     * @param sender Address whose tokens are being transferred.\\n     */\\n    error ERC1155InvalidSender(address sender);\\n\\n    /**\\n     * @dev Indicates a failure with the token `receiver`. Used in transfers.\\n     * @param receiver Address to which tokens are being transferred.\\n     */\\n    error ERC1155InvalidReceiver(address receiver);\\n\\n    /**\\n     * @dev Indicates a failure with the `operator`’s approval. Used in transfers.\\n     * @param operator Address that may be allowed to operate on tokens without being their owner.\\n     * @param owner Address of the current owner of a token.\\n     */\\n    error ERC1155MissingApprovalForAll(address operator, address owner);\\n\\n    /**\\n     * @dev Indicates a failure with the `approver` of a token to be approved. Used in approvals.\\n     * @param approver Address initiating an approval operation.\\n     */\\n    error ERC1155InvalidApprover(address approver);\\n\\n    /**\\n     * @dev Indicates a failure with the `operator` to be approved. Used in approvals.\\n     * @param operator Address that may be allowed to operate on tokens without being their owner.\\n     */\\n    error ERC1155InvalidOperator(address operator);\\n\\n    /**\\n     * @dev Indicates an array length mismatch between ids and values in a safeBatchTransferFrom operation.\\n     * Used in batch transfers.\\n     * @param idsLength Length of the array of token identifiers\\n     * @param valuesLength Length of the array of token amounts\\n     */\\n    error ERC1155InvalidArrayLength(uint256 idsLength, uint256 valuesLength);\\n}\\n\"},\"@openzeppelin/contracts/utils/introspection/ERC165.sol\":{\"content\":\"// SPDX-License-Identifier: MIT\\n// OpenZeppelin Contracts (last updated v5.1.0) (utils/introspection/ERC165.sol)\\n\\npragma solidity ^0.8.20;\\n\\nimport {IERC165} from \\\"./IERC165.sol\\\";\\n\\n/**\\n * @dev Implementation of the {IERC165} interface.\\n *\\n * Contracts that want to implement ERC-165 should inherit from this contract and override {supportsInterface} to check\\n * for the additional interface id that will be supported. For example:\\n *\\n * ```solidity\\n * function supportsInterface(bytes4 interfaceId) public view virtual override returns (bool) {\\n *     return interfaceId == type(MyInterface).interfaceId || super.supportsInterface(interfaceId);\\n * }\\n * ```\\n */\\nabstract contract ERC165 is IERC165 {\\n    /**\\n     * @dev See {IERC165-supportsInterface}.\\n     */\\n    function supportsInterface(bytes4 interfaceId) public view virtual returns (bool) {\\n        return interfaceId == type(IERC165).interfaceId;\\n    }\\n}\\n\"},\"@openzeppelin/contracts/utils/Context.sol\":{\"content\":\"// SPDX-License-Identifier: MIT\\n// OpenZeppelin Contracts (last updated v5.0.1) (utils/Context.sol)\\n\\npragma solidity ^0.8.20;\\n\\n/**\\n * @dev Provides information about the current execution context, including the\\n * sender of the transaction and its data. While these are generally available\\n * via msg.sender and msg.data, they should not be accessed in such a direct\\n * manner, since when dealing with meta-transactions the account sending and\\n * paying for execution may not be the actual sender (as far as an application\\n * is concerned).\\n *\\n * This contract is only required for intermediate, library-like contracts.\\n */\\nabstract contract Context {\\n    function _msgSender() internal view virtual returns (address) {\\n        return msg.sender;\\n    }\\n\\n    function _msgData() internal view virtual returns (bytes calldata) {\\n        return msg.data;\\n    }\\n\\n    function _contextSuffixLength() internal view virtual returns (uint256) {\\n        return 0;\\n    }\\n}\\n\"},\"@openzeppelin/contracts/token/ERC1155/utils/ERC1155Utils.sol\":{\"content\":\"// SPDX-License-Identifier: MIT\\n// OpenZeppelin Contracts (last updated v5.1.0) (token/ERC1155/utils/ERC1155Utils.sol)\\n\\npragma solidity ^0.8.20;\\n\\nimport {IERC1155Receiver} from \\\"../IERC1155Receiver.sol\\\";\\nimport {IERC1155Errors} from \\\"../../../interfaces/draft-IERC6093.sol\\\";\\n\\n/**\\n * @dev Library that provide common ERC-1155 utility functions.\\n *\\n * See https://eips.ethereum.org/EIPS/eip-1155[ERC-1155].\\n *\\n * _Available since v5.1._\\n */\\nlibrary ERC1155Utils {\\n    /**\\n     * @dev Performs an acceptance check for the provided `operator` by calling {IERC1155-onERC1155Received}\\n     * on the `to` address. The `operator` is generally the address that initiated the token transfer (i.e. `msg.sender`).\\n     *\\n     * The acceptance call is not executed and treated as a no-op if the target address doesn't contain code (i.e. an EOA).\\n     * Otherwise, the recipient must implement {IERC1155Receiver-onERC1155Received} and return the acceptance magic value to accept\\n     * the transfer.\\n     */\\n    function checkOnERC1155Received(\\n        address operator,\\n        address from,\\n        address to,\\n        uint256 id,\\n        uint256 value,\\n        bytes memory data\\n    ) internal {\\n        if (to.code.length > 0) {\\n            try IERC1155Receiver(to).onERC1155Received(operator, from, id, value, data) returns (bytes4 response) {\\n                if (response != IERC1155Receiver.onERC1155Received.selector) {\\n                    // Tokens rejected\\n                    revert IERC1155Errors.ERC1155InvalidReceiver(to);\\n                }\\n            } catch (bytes memory reason) {\\n                if (reason.length == 0) {\\n                    // non-IERC1155Receiver implementer\\n                    revert IERC1155Errors.ERC1155InvalidReceiver(to);\\n                } else {\\n                    assembly (\\\"memory-safe\\\") {\\n                        revert(add(32, reason), mload(reason))\\n                    }\\n                }\\n            }\\n        }\\n    }\\n\\n    /**\\n     * @dev Performs a batch acceptance check for the provided `operator` by calling {IERC1155-onERC1155BatchReceived}\\n     * on the `to` address. The `operator` is generally the address that initiated the token transfer (i.e. `msg.sender`).\\n     *\\n     * The acceptance call is not executed and treated as a no-op if the target address doesn't contain code (i.e. an EOA).\\n     * Otherwise, the recipient must implement {IERC1155Receiver-onERC1155Received} and return the acceptance magic value to accept\\n     * the transfer.\\n     */\\n    function checkOnERC1155BatchReceived(\\n        address operator,\\n        address from,\\n        address to,\\n        uint256[] memory ids,\\n        uint256[] memory values,\\n        bytes memory data\\n    ) internal {\\n        if (to.code.length > 0) {\\n            try IERC1155Receiver(to).onERC1155BatchReceived(operator, from, ids, values, data) returns (\\n                bytes4 response\\n            ) {\\n                if (response != IERC1155Receiver.onERC1155BatchReceived.selector) {\\n                    // Tokens rejected\\n                    revert IERC1155Errors.ERC1155InvalidReceiver(to);\\n                }\\n            } catch (bytes memory reason) {\\n                if (reason.length == 0) {\\n                    // non-IERC1155Receiver implementer\\n                    revert IERC1155Errors.ERC1155InvalidReceiver(to);\\n                } else {\\n                    assembly (\\\"memory-safe\\\") {\\n                        revert(add(32, reason), mload(reason))\\n                    }\\n                }\\n            }\\n        }\\n    }\\n}\\n\"},\"@openzeppelin/contracts/token/ERC1155/extensions/IERC1155MetadataURI.sol\":{\"content\":\"// SPDX-License-Identifier: MIT\\n// OpenZeppelin Contracts (last updated v5.1.0) (token/ERC1155/extensions/IERC1155MetadataURI.sol)\\n\\npragma solidity ^0.8.20;\\n\\nimport {IERC1155} from \\\"../IERC1155.sol\\\";\\n\\n/**\\n * @dev Interface of the optional ERC1155MetadataExtension interface, as defined\\n * in the https://eips.ethereum.org/EIPS/eip-1155#metadata-extensions[ERC].\\n */\\ninterface IERC1155MetadataURI is IERC1155 {\\n    /**\\n     * @dev Returns the URI for token type `id`.\\n     *\\n     * If the `\\\\{id\\\\}` substring is present in the URI, it must be replaced by\\n     * clients with the actual token type ID.\\n     */\\n    function uri(uint256 id) external view returns (string memory);\\n}\\n\"},\"@openzeppelin/contracts/token/ERC1155/IERC1155.sol\":{\"content\":\"// SPDX-License-Identifier: MIT\\n// OpenZeppelin Contracts (last updated v5.1.0) (token/ERC1155/IERC1155.sol)\\n\\npragma solidity ^0.8.20;\\n\\nimport {IERC165} from \\\"../../utils/introspection/IERC165.sol\\\";\\n\\n/**\\n * @dev Required interface of an ERC-1155 compliant contract, as defined in the\\n * https://eips.ethereum.org/EIPS/eip-1155[ERC].\\n */\\ninterface IERC1155 is IERC165 {\\n    /**\\n     * @dev Emitted when `value` amount of tokens of type `id` are transferred from `from` to `to` by `operator`.\\n     */\\n    event TransferSingle(address indexed operator, address indexed from, address indexed to, uint256 id, uint256 value);\\n\\n    /**\\n     * @dev Equivalent to multiple {TransferSingle} events, where `operator`, `from` and `to` are the same for all\\n     * transfers.\\n     */\\n    event TransferBatch(\\n        address indexed operator,\\n        address indexed from,\\n        address indexed to,\\n        uint256[] ids,\\n        uint256[] values\\n    );\\n\\n    /**\\n     * @dev Emitted when `account` grants or revokes permission to `operator` to transfer their tokens, according to\\n     * `approved`.\\n     */\\n    event ApprovalForAll(address indexed account, address indexed operator, bool approved);\\n\\n    /**\\n     * @dev Emitted when the URI for token type `id` changes to `value`, if it is a non-programmatic URI.\\n     *\\n     * If an {URI} event was emitted for `id`, the standard\\n     * https://eips.ethereum.org/EIPS/eip-1155#metadata-extensions[guarantees] that `value` will equal the value\\n     * returned by {IERC1155MetadataURI-uri}.\\n     */\\n    event URI(string value, uint256 indexed id);\\n\\n    /**\\n     * @dev Returns the value of tokens of token type `id` owned by `account`.\\n     */\\n    function balanceOf(address account, uint256 id) external view returns (uint256);\\n\\n    /**\\n     * @dev xref:ROOT:erc1155.adoc#batch-operations[Batched] version of {balanceOf}.\\n     *\\n     * Requirements:\\n     *\\n     * - `accounts` and `ids` must have the same length.\\n     */\\n    function balanceOfBatch(\\n        address[] calldata accounts,\\n        uint256[] calldata ids\\n    ) external view returns (uint256[] memory);\\n\\n    /**\\n     * @dev Grants or revokes permission to `operator` to transfer the caller's tokens, according to `approved`,\\n     *\\n     * Emits an {ApprovalForAll} event.\\n     *\\n     * Requirements:\\n     *\\n     * - `operator` cannot be the zero address.\\n     */\\n    function setApprovalForAll(address operator, bool approved) external;\\n\\n    /**\\n     * @dev Returns true if `operator` is approved to transfer ``account``'s tokens.\\n     *\\n     * See {setApprovalForAll}.\\n     */\\n    function isApprovedForAll(address account, address operator) external view returns (bool);\\n\\n    /**\\n     * @dev Transfers a `value` amount of tokens of type `id` from `from` to `to`.\\n     *\\n     * WARNING: This function can potentially allow a reentrancy attack when transferring tokens\\n     * to an untrusted contract, when invoking {onERC1155Received} on the receiver.\\n     * Ensure to follow the checks-effects-interactions pattern and consider employing\\n     * reentrancy guards when interacting with untrusted contracts.\\n     *\\n     * Emits a {TransferSingle} event.\\n     *\\n     * Requirements:\\n     *\\n     * - `to` cannot be the zero address.\\n     * - If the caller is not `from`, it must have been approved to spend ``from``'s tokens via {setApprovalForAll}.\\n     * - `from` must have a balance of tokens of type `id` of at least `value` amount.\\n     * - If `to` refers to a smart contract, it must implement {IERC1155Receiver-onERC1155Received} and return the\\n     * acceptance magic value.\\n     */\\n    function safeTransferFrom(address from, address to, uint256 id, uint256 value, bytes calldata data) external;\\n\\n    /**\\n     * @dev xref:ROOT:erc1155.adoc#batch-operations[Batched] version of {safeTransferFrom}.\\n     *\\n     * WARNING: This function can potentially allow a reentrancy attack when transferring tokens\\n     * to an untrusted contract, when invoking {onERC1155BatchReceived} on the receiver.\\n     * Ensure to follow the checks-effects-interactions pattern and consider employing\\n     * reentrancy guards when interacting with untrusted contracts.\\n     *\\n     * Emits either a {TransferSingle} or a {TransferBatch} event, depending on the length of the array arguments.\\n     *\\n     * Requirements:\\n     *\\n     * - `ids` and `values` must have the same length.\\n     * - If `to` refers to a smart contract, it must implement {IERC1155Receiver-onERC1155BatchReceived} and return the\\n     * acceptance magic value.\\n     */\\n    function safeBatchTransferFrom(\\n        address from,\\n        address to,\\n        uint256[] calldata ids,\\n        uint256[] calldata values,\\n        bytes calldata data\\n    ) external;\\n}\\n\"},\"@iden3/contracts/interfaces/IState.sol\":{\"content\":\"// SPDX-License-Identifier: GPL-3.0\\npragma solidity 0.8.27;\\n\\n// TODO changing this value don't forget to change GistProof.siblings array size\\n// figure out how to reuse the constant in the array size\\n// without compiler error\\nuint256 constant MAX_SMT_DEPTH = 64;\\n\\ninterface IState {\\n    /**\\n     * @dev Struct for public interfaces to represent a state information.\\n     * @param id An identity.\\n     * @param state A state.\\n     * @param replacedByState A state, which replaced this state for the identity.\\n     * @param createdAtTimestamp A time when the state was created.\\n     * @param replacedAtTimestamp A time when the state was replaced by the next identity state.\\n     * @param createdAtBlock A block number when the state was created.\\n     * @param replacedAtBlock A block number when the state was replaced by the next identity state.\\n     */\\n    struct StateInfo {\\n        uint256 id;\\n        uint256 state;\\n        uint256 replacedByState;\\n        uint256 createdAtTimestamp;\\n        uint256 replacedAtTimestamp;\\n        uint256 createdAtBlock;\\n        uint256 replacedAtBlock;\\n    }\\n\\n    /**\\n     * @dev Struct for public interfaces to represent GIST root information.\\n     * @param root This GIST root.\\n     * @param replacedByRoot A root, which replaced this root.\\n     * @param createdAtTimestamp A time, when the root was saved to blockchain.\\n     * @param replacedAtTimestamp A time, when the root was replaced by the next root in blockchain.\\n     * @param createdAtBlock A number of block, when the root was saved to blockchain.\\n     * @param replacedAtBlock A number of block, when the root was replaced by the next root in blockchain.\\n     */\\n    struct GistRootInfo {\\n        uint256 root;\\n        uint256 replacedByRoot;\\n        uint256 createdAtTimestamp;\\n        uint256 replacedAtTimestamp;\\n        uint256 createdAtBlock;\\n        uint256 replacedAtBlock;\\n    }\\n\\n    /**\\n     * @dev Struct for public interfaces to represent GIST proof information.\\n     * @param root This GIST root.\\n     * @param existence A flag, which shows if the leaf index exists in the GIST.\\n     * @param siblings An array of GIST sibling node hashes.\\n     * @param index An index of the leaf in the GIST.\\n     * @param value A value of the leaf in the GIST.\\n     * @param auxExistence A flag, which shows if the auxiliary leaf exists in the GIST.\\n     * @param auxIndex An index of the auxiliary leaf in the GIST.\\n     * @param auxValue An value of the auxiliary leaf in the GIST.\\n     */\\n    struct GistProof {\\n        uint256 root;\\n        bool existence;\\n        uint256[64] siblings; // TODO figure out the way how to use the MAX_SMT_DEPTH constant\\n        uint256 index;\\n        uint256 value;\\n        bool auxExistence;\\n        uint256 auxIndex;\\n        uint256 auxValue;\\n    }\\n    /**\\n     * @dev Struct for signed identity states.\\n     * @param idStateMsg Message of the identity state.\\n     * @param signature Signature of the message.\\n     */\\n    struct IdentityStateUpdate {\\n        IdentityStateMessage idStateMsg;\\n        bytes signature;\\n    }\\n    /**\\n     * @dev Struct for signed global states.\\n     * @param globalStateMsg Message of the global state.\\n     * @param signature Signature of the message.\\n     */\\n    struct GlobalStateUpdate {\\n        GlobalStateMessage globalStateMsg;\\n        bytes signature;\\n    }\\n    /**\\n     * @dev Struct for identity state message.\\n     * @param timestamp Timestamp when the message was signed.\\n     * @param id Id of the identity.\\n     * @param state State of the identity.\\n     * @param replacedAtTimestamp Timestamp when the state was replaced by next identity state.\\n     */\\n    struct IdentityStateMessage {\\n        uint256 timestamp;\\n        uint256 id;\\n        uint256 state;\\n        uint256 replacedAtTimestamp;\\n    }\\n\\n    /**\\n     * @dev Struct for global state message.\\n     * @param timestamp Timestamp when the message was signed.\\n     * @param idType Id type of the chain.\\n     * @param root Root of the global state.\\n     * @param replacedAtTimestamp Timestamp when the global state was replaced by next global state.\\n     */\\n    struct GlobalStateMessage {\\n        uint256 timestamp;\\n        bytes2 idType;\\n        uint256 root;\\n        uint256 replacedAtTimestamp;\\n    }\\n    /**\\n     * @dev Struct for cross chain proof.\\n     * @param proofType Proof type for the proof provided (\\\"stateProof\\\", \\\"globalStateProof\\\").\\n     * @param proof Cross chain proof.\\n     */\\n    struct CrossChainProof {\\n        string proofType;\\n        bytes proof;\\n    }\\n\\n    /**\\n     * @dev Struct for global state process result.\\n     * @param idType Id type of the chain.\\n     * @param root Root of the global state.\\n     * @param replacedAtTimestamp Timestamp when the global state was replaced by next global state.\\n     */\\n    struct GlobalStateProcessResult {\\n        bytes2 idType;\\n        uint256 root;\\n        uint256 replacedAtTimestamp;\\n    }\\n    /**\\n     * @dev Struct for identity state process result.\\n     * @param id Id of the identity.\\n     * @param state State of the identity.\\n     * @param replacedAtTimestamp Timestamp when the identity state was replaced by next identity state.\\n     */\\n    struct IdentityStateProcessResult {\\n        uint256 id;\\n        uint256 state;\\n        uint256 replacedAtTimestamp;\\n    }\\n\\n    /**\\n     * @dev Retrieve last state information of specific id.\\n     * @param id An identity.\\n     * @return The state info.\\n     */\\n    function getStateInfoById(uint256 id) external view returns (StateInfo memory);\\n\\n    /**\\n     * @dev Retrieve state information by id and state.\\n     * @param id An identity.\\n     * @param state A state.\\n     * @return The state info.\\n     */\\n    function getStateInfoByIdAndState(\\n        uint256 id,\\n        uint256 state\\n    ) external view returns (StateInfo memory);\\n\\n    /**\\n     * @dev Retrieve the specific GIST root information.\\n     * @param root GIST root.\\n     * @return The GIST root info.\\n     */\\n    function getGISTRootInfo(uint256 root) external view returns (GistRootInfo memory);\\n\\n    /**\\n     * @dev Check if the id type supported.\\n     * @param idType id type.\\n     * @return True if the id type supported.\\n     */\\n    function isIdTypeSupported(bytes2 idType) external view returns (bool);\\n\\n    /**\\n     * @dev Get id if the id type supported for the id, otherwise revert.\\n     * @param id An identity.\\n     * @return The id type.\\n     */\\n    function getIdTypeIfSupported(uint256 id) external view returns (bytes2);\\n\\n    /**\\n     * @dev Get defaultIdType\\n     * @return defaultIdType\\n     */\\n    function getDefaultIdType() external view returns (bytes2);\\n\\n    /**\\n     * @dev Performs state transition\\n     * @param id Identifier of the identity\\n     * @param oldState Previous state of the identity\\n     * @param newState New state of the identity\\n     * @param isOldStateGenesis Flag if previous identity state is genesis\\n     * @param a Proof.A\\n     * @param b Proof.B\\n     * @param c Proof.C\\n     */\\n    function transitState(\\n        uint256 id,\\n        uint256 oldState,\\n        uint256 newState,\\n        bool isOldStateGenesis,\\n        uint256[2] memory a,\\n        uint256[2][2] memory b,\\n        uint256[2] memory c\\n    ) external;\\n\\n    /**\\n     * @dev Performs state transition\\n     * @param id Identity\\n     * @param oldState Previous identity state\\n     * @param newState New identity state\\n     * @param isOldStateGenesis Is the previous state genesis?\\n     * @param methodId State transition method id\\n     * @param methodParams State transition method-specific params\\n     */\\n    function transitStateGeneric(\\n        uint256 id,\\n        uint256 oldState,\\n        uint256 newState,\\n        bool isOldStateGenesis,\\n        uint256 methodId,\\n        bytes calldata methodParams\\n    ) external;\\n\\n    /**\\n     * @dev Check if identity exists.\\n     * @param id Identity\\n     * @return True if the identity exists\\n     */\\n    function idExists(uint256 id) external view returns (bool);\\n\\n    /**\\n     * @dev Check if state exists.\\n     * @param id Identity\\n     * @param state State\\n     * @return True if the state exists\\n     */\\n    function stateExists(uint256 id, uint256 state) external view returns (bool);\\n\\n    /**\\n     * @dev Get timestamp when the identity state was replaced.\\n     * @param id Identity\\n     * @param state State of the identity\\n     * @return replacedAtTimestamp Timestamp when the identity state was replaced by new identity state\\n     */\\n    function getStateReplacedAt(\\n        uint256 id,\\n        uint256 state\\n    ) external view returns (uint256 replacedAtTimestamp);\\n\\n    /**\\n     * @dev Get timestamp when the global state was replaced.\\n     * @param idType Id type of the chain\\n     * @param root Root of the global state\\n     * @return replacedAtTimestamp Timestamp when the global state was replaced by new global state\\n     */\\n    function getGistRootReplacedAt(\\n        bytes2 idType,\\n        uint256 root\\n    ) external view returns (uint256 replacedAtTimestamp);\\n\\n    /**\\n     * @dev Process the cross chain proofs with the identities and global states.\\n     * @param proofs Proofs with the identities and global states\\n     */\\n    function processCrossChainProofs(bytes calldata proofs) external;\\n}\\n\"},\"@iden3/contracts/verifiers/ZKPVerifierBase.sol\":{\"content\":\"// SPDX-License-Identifier: GPL-3.0\\npragma solidity 0.8.27;\\n\\nimport {IZKPVerifier} from \\\"../interfaces/IZKPVerifier.sol\\\";\\nimport {ICircuitValidator} from \\\"../interfaces/ICircuitValidator.sol\\\";\\nimport {ArrayUtils} from \\\"../lib/ArrayUtils.sol\\\";\\nimport {ContextUpgradeable} from \\\"@openzeppelin/contracts-upgradeable/utils/ContextUpgradeable.sol\\\";\\nimport {IState} from \\\"../interfaces/IState.sol\\\";\\nimport {VerifierLib} from \\\"../lib/VerifierLib.sol\\\";\\n\\nabstract contract ZKPVerifierBase is IZKPVerifier, ContextUpgradeable {\\n    struct Metadata {\\n        string key;\\n        bytes value;\\n    }\\n\\n    /// @custom:storage-location erc7201:iden3.storage.ZKPVerifier\\n    struct ZKPVerifierStorage {\\n        mapping(address user => mapping(uint64 requestId => VerifierLib.Proof)) _proofs;\\n        mapping(uint64 requestId => IZKPVerifier.ZKPRequest) _requests;\\n        uint64[] _requestIds;\\n        IState _state;\\n    }\\n\\n    // keccak256(abi.encode(uint256(keccak256(\\\"iden3.storage.ZKPVerifier\\\")) - 1)) & ~bytes32(uint256(0xff));\\n    bytes32 internal constant ZKPVerifierStorageLocation =\\n        0x512d18c55869273fec77e70d8a8586e3fb133e90f1db24c6bcf4ff3506ef6a00;\\n\\n    /// @dev Get the main storage using assembly to ensure specific storage location\\n    function _getZKPVerifierStorage() private pure returns (ZKPVerifierStorage storage $) {\\n        assembly {\\n            $.slot := ZKPVerifierStorageLocation\\n        }\\n    }\\n\\n    function _setState(IState state) internal {\\n        _getZKPVerifierStorage()._state = state;\\n    }\\n\\n    using VerifierLib for ZKPVerifierStorage;\\n\\n    function __ZKPVerifierBase_init(IState state) internal onlyInitializing {\\n        __ZKPVerifierBase_init_unchained(state);\\n    }\\n\\n    function __ZKPVerifierBase_init_unchained(IState state) internal onlyInitializing {\\n        _setState(state);\\n    }\\n\\n    /**\\n     * @dev Max return array length for request queries\\n     */\\n    uint256 public constant REQUESTS_RETURN_LIMIT = 1000;\\n\\n    /// @dev Key to retrieve the linkID from the proof storage\\n    string constant LINKED_PROOF_KEY = \\\"linkID\\\";\\n\\n    /// @dev Linked proof custom error\\n    error LinkedProofError(\\n        string message,\\n        uint64 requestId,\\n        uint256 linkID,\\n        uint64 requestIdToCompare,\\n        uint256 linkIdToCompare\\n    );\\n\\n    /// @dev Modifier to check if the validator is set for the request\\n    modifier checkRequestExistence(uint64 requestId, bool existence) {\\n        if (existence) {\\n            require(requestIdExists(requestId), \\\"request id doesn't exist\\\");\\n        } else {\\n            require(!requestIdExists(requestId), \\\"request id already exists\\\");\\n        }\\n        _;\\n    }\\n\\n    /// @dev Sets a ZKP request\\n    /// @param requestId The ID of the ZKP request\\n    /// @param request The ZKP request data\\n    function setZKPRequest(\\n        uint64 requestId,\\n        IZKPVerifier.ZKPRequest calldata request\\n    ) public virtual checkRequestExistence(requestId, false) {\\n        ZKPVerifierStorage storage s = _getZKPVerifierStorage();\\n        s._requests[requestId] = request;\\n        s._requestIds.push(requestId);\\n    }\\n\\n    /// @notice Submits a ZKP response and updates proof status\\n    /// @param requestId The ID of the ZKP request\\n    /// @param inputs The input data for the proof\\n    /// @param a The first component of the proof\\n    /// @param b The second component of the proof\\n    /// @param c The third component of the proof\\n    function submitZKPResponse(\\n        uint64 requestId,\\n        uint256[] memory inputs,\\n        uint256[2] memory a,\\n        uint256[2][2] memory b,\\n        uint256[2] memory c\\n    ) public virtual checkRequestExistence(requestId, true) {\\n        address sender = _msgSender();\\n        ZKPVerifierStorage storage $ = _getZKPVerifierStorage();\\n\\n        IZKPVerifier.ZKPRequest memory request = $._requests[requestId];\\n        ICircuitValidator.KeyToInputIndex[] memory keyToInpIdxs = request.validator.verify(\\n            inputs,\\n            a,\\n            b,\\n            c,\\n            request.data,\\n            sender\\n        );\\n\\n        $.writeProofResults(sender, requestId, keyToInpIdxs, inputs);\\n    }\\n\\n    /// @notice Submits a ZKP response V2 and updates proof status\\n    /// @param responses The list of responses including ZKP request ID, ZK proof and metadata\\n    /// @param crossChainProofs The list of cross chain proofs from universal resolver (oracle)\\n    function submitZKPResponseV2(\\n        IZKPVerifier.ZKPResponse[] memory responses,\\n        bytes memory crossChainProofs\\n    ) public virtual {\\n        ZKPVerifierStorage storage $ = _getZKPVerifierStorage();\\n\\n        $._state.processCrossChainProofs(crossChainProofs);\\n\\n        for (uint256 i = 0; i < responses.length; i++) {\\n            IZKPVerifier.ZKPResponse memory response = responses[i];\\n\\n            address sender = _msgSender();\\n\\n            // TODO some internal method and storage location to save gas?\\n            IZKPVerifier.ZKPRequest memory request = getZKPRequest(response.requestId);\\n            ICircuitValidator.Signal[] memory signals = request.validator.verifyV2(\\n                response.zkProof,\\n                request.data,\\n                sender,\\n                $._state\\n            );\\n\\n            $.writeProofResultsV2(sender, response.requestId, signals);\\n\\n            if (response.data.length > 0) {\\n                revert(\\\"Metadata not supported yet\\\");\\n            }\\n        }\\n    }\\n\\n    /// @dev Verifies a ZKP response without updating any proof status\\n    /// @param requestId The ID of the ZKP request\\n    /// @param inputs The public inputs for the proof\\n    /// @param a The first component of the proof\\n    /// @param b The second component of the proof\\n    /// @param c The third component of the proof\\n    /// @param sender The sender on behalf of which the proof is done\\n    function verifyZKPResponse(\\n        uint64 requestId,\\n        uint256[] memory inputs,\\n        uint256[2] memory a,\\n        uint256[2][2] memory b,\\n        uint256[2] memory c,\\n        address sender\\n    )\\n        public\\n        virtual\\n        checkRequestExistence(requestId, true)\\n        returns (ICircuitValidator.KeyToInputIndex[] memory)\\n    {\\n        IZKPVerifier.ZKPRequest storage request = _getZKPVerifierStorage()._requests[requestId];\\n        return request.validator.verify(inputs, a, b, c, request.data, sender);\\n    }\\n\\n    /// @dev Gets the list of request IDs and verifies the proofs are linked\\n    /// @param sender the user's address\\n    /// @param requestIds the list of request IDs\\n    /// Throws if the proofs are not linked\\n    function verifyLinkedProofs(address sender, uint64[] calldata requestIds) public view virtual {\\n        require(requestIds.length > 1, \\\"Linked proof verification needs more than 1 request\\\");\\n\\n        uint256 expectedLinkID = getProofStorageField(sender, requestIds[0], LINKED_PROOF_KEY);\\n\\n        if (expectedLinkID == 0) {\\n            revert(\\\"Can't find linkID for given request Ids and user address\\\");\\n        }\\n\\n        for (uint256 i = 1; i < requestIds.length; i++) {\\n            uint256 actualLinkID = getProofStorageField(sender, requestIds[i], LINKED_PROOF_KEY);\\n\\n            if (expectedLinkID != actualLinkID) {\\n                revert LinkedProofError(\\n                    \\\"Proofs are not linked\\\",\\n                    requestIds[0],\\n                    expectedLinkID,\\n                    requestIds[i],\\n                    actualLinkID\\n                );\\n            }\\n        }\\n    }\\n\\n    /// @dev Gets a specific ZKP request by ID\\n    /// @param requestId The ID of the ZKP request\\n    /// @return zkpRequest The ZKP request data\\n    function getZKPRequest(\\n        uint64 requestId\\n    )\\n        public\\n        view\\n        checkRequestExistence(requestId, true)\\n        returns (IZKPVerifier.ZKPRequest memory zkpRequest)\\n    {\\n        return _getZKPVerifierStorage()._requests[requestId];\\n    }\\n\\n    /// @dev Gets the count of ZKP requests\\n    /// @return The count of ZKP requests\\n    function getZKPRequestsCount() public view returns (uint256) {\\n        return _getZKPVerifierStorage()._requestIds.length;\\n    }\\n\\n    /// @dev Checks if a ZKP request ID exists\\n    /// @param requestId The ID of the ZKP request\\n    /// @return Whether the request ID exists\\n    function requestIdExists(uint64 requestId) public view override returns (bool) {\\n        return\\n            _getZKPVerifierStorage()._requests[requestId].validator !=\\n            ICircuitValidator(address(0));\\n    }\\n\\n    /// @dev Gets multiple ZKP requests within a range\\n    /// @param startIndex The starting index of the range\\n    /// @param length The length of the range\\n    /// @return An array of ZKP requests within the specified range\\n    function getZKPRequests(\\n        uint256 startIndex,\\n        uint256 length\\n    ) public view returns (IZKPVerifier.ZKPRequest[] memory) {\\n        ZKPVerifierStorage storage s = _getZKPVerifierStorage();\\n        (uint256 start, uint256 end) = ArrayUtils.calculateBounds(\\n            s._requestIds.length,\\n            startIndex,\\n            length,\\n            REQUESTS_RETURN_LIMIT\\n        );\\n\\n        IZKPVerifier.ZKPRequest[] memory result = new IZKPVerifier.ZKPRequest[](end - start);\\n\\n        for (uint256 i = start; i < end; i++) {\\n            result[i - start] = s._requests[s._requestIds[i]];\\n        }\\n\\n        return result;\\n    }\\n\\n    /// @dev Checks if proof submitted for a given sender and request ID\\n    /// @param sender The sender's address\\n    /// @param requestId The ID of the ZKP request\\n    /// @return true if proof submitted\\n    function isProofVerified(\\n        address sender,\\n        uint64 requestId\\n    ) public view checkRequestExistence(requestId, true) returns (bool) {\\n        return _getZKPVerifierStorage()._proofs[sender][requestId].isVerified;\\n    }\\n\\n    /// @dev Checks the proof status for a given user and request ID\\n    /// @param sender The sender's address\\n    /// @param requestId The ID of the ZKP request\\n    /// @return The proof status structure\\n    function getProofStatus(\\n        address sender,\\n        uint64 requestId\\n    ) public view checkRequestExistence(requestId, true) returns (IZKPVerifier.ProofStatus memory) {\\n        VerifierLib.Proof storage proof = _getZKPVerifierStorage()._proofs[sender][requestId];\\n\\n        return\\n            IZKPVerifier.ProofStatus(\\n                proof.isVerified,\\n                proof.validatorVersion,\\n                proof.blockNumber,\\n                proof.blockTimestamp\\n            );\\n    }\\n\\n    /// @dev Gets the proof storage item for a given user, request ID and key\\n    /// @param user The user's address\\n    /// @param requestId The ID of the ZKP request\\n    /// @return The proof\\n    function getProofStorageField(\\n        address user,\\n        uint64 requestId,\\n        string memory key\\n    ) public view checkRequestExistence(requestId, true) returns (uint256) {\\n        return _getZKPVerifierStorage()._proofs[user][requestId].storageFields[key];\\n    }\\n\\n    /// @dev Gets the address of the state contract linked to the verifier\\n    /// @return address of the state contract\\n    function getStateAddress() public view virtual returns (address) {\\n        return address(_getZKPVerifierStorage()._state);\\n    }\\n}\\n\"},\"@iden3/contracts/verifiers/ValidatorWhitelist.sol\":{\"content\":\"// SPDX-License-Identifier: GPL-3.0\\npragma solidity 0.8.27;\\n\\nimport {IERC165} from \\\"@openzeppelin/contracts/utils/introspection/IERC165.sol\\\";\\nimport {ICircuitValidator} from \\\"../interfaces/ICircuitValidator.sol\\\";\\nimport {ZKPVerifierBase} from \\\"./ZKPVerifierBase.sol\\\";\\nimport {IZKPVerifier} from \\\"../interfaces/IZKPVerifier.sol\\\";\\n\\ncontract ValidatorWhitelist is ZKPVerifierBase {\\n    /// @custom:storage-location erc7201:iden3.storage.ValidatorWhitelist\\n    struct ValidatorWhitelistStorage {\\n        mapping(ICircuitValidator => bool isApproved) _validatorWhitelist;\\n    }\\n\\n    // keccak256(abi.encode(uint256(keccak256(\\\"iden3.storage.ValidatorWhitelist\\\")) - 1)) & ~bytes32(uint256(0xff));\\n    bytes32 private constant ValidatorWhitelistStorageLocation =\\n        0x76aa24e3538905838cc74060b2aa4c054b1e474aacf44741879e1850715e9300;\\n\\n    function _getValidatorWhitelistStorage()\\n        private\\n        pure\\n        returns (ValidatorWhitelistStorage storage $)\\n    {\\n        assembly {\\n            $.slot := ValidatorWhitelistStorageLocation\\n        }\\n    }\\n\\n    /// @dev Modifier to check if the validator is whitelisted\\n    modifier onlyWhitelistedValidator(ICircuitValidator validator) {\\n        require(isWhitelistedValidator(validator), \\\"Validator is not whitelisted\\\");\\n        _;\\n    }\\n\\n    /// @dev Sets a ZKP request\\n    /// @param requestId The ID of the ZKP request\\n    /// @param request The ZKP request data\\n    function setZKPRequest(\\n        uint64 requestId,\\n        IZKPVerifier.ZKPRequest calldata request\\n    ) public virtual override onlyWhitelistedValidator(request.validator) {\\n        super.setZKPRequest(requestId, request);\\n    }\\n\\n    /// @dev Submits a ZKP response and updates proof status\\n    /// @param requestId The ID of the ZKP request\\n    /// @param inputs The input data for the proof\\n    /// @param a The first component of the proof\\n    /// @param b The second component of the proof\\n    /// @param c The third component of the proof\\n    function submitZKPResponse(\\n        uint64 requestId,\\n        uint256[] memory inputs,\\n        uint256[2] memory a,\\n        uint256[2][2] memory b,\\n        uint256[2] memory c\\n    ) public virtual override {\\n        ICircuitValidator validator = getZKPRequest(requestId).validator;\\n        require(isWhitelistedValidator(validator), \\\"Validator is not whitelisted\\\");\\n        super.submitZKPResponse(requestId, inputs, a, b, c);\\n    }\\n\\n    /// @dev Verifies a ZKP response without updating any proof status\\n    /// @param requestId The ID of the ZKP request\\n    /// @param inputs The public inputs for the proof\\n    /// @param a The first component of the proof\\n    /// @param b The second component of the proof\\n    /// @param c The third component of the proof\\n    /// @param sender The sender on behalf of which the proof is done\\n    function verifyZKPResponse(\\n        uint64 requestId,\\n        uint256[] memory inputs,\\n        uint256[2] memory a,\\n        uint256[2][2] memory b,\\n        uint256[2] memory c,\\n        address sender\\n    ) public virtual override returns (ICircuitValidator.KeyToInputIndex[] memory) {\\n        ICircuitValidator validator = getZKPRequest(requestId).validator;\\n        require(isWhitelistedValidator(validator), \\\"Validator is not whitelisted\\\");\\n        return super.verifyZKPResponse(requestId, inputs, a, b, c, sender);\\n    }\\n\\n    /// @dev Checks if validator is whitelisted\\n    /// @param validator The validator address\\n    /// @return True if validator is whitelisted, otherwise returns false\\n    function isWhitelistedValidator(\\n        ICircuitValidator validator\\n    ) public view virtual returns (bool) {\\n        return _getValidatorWhitelistStorage()._validatorWhitelist[validator];\\n    }\\n\\n    function _addValidatorToWhitelist(ICircuitValidator validator) internal {\\n        require(\\n            IERC165(address(validator)).supportsInterface(type(ICircuitValidator).interfaceId),\\n            \\\"Validator doesn't support relevant interface\\\"\\n        );\\n\\n        _getValidatorWhitelistStorage()._validatorWhitelist[validator] = true;\\n    }\\n\\n    function _removeValidatorFromWhitelist(ICircuitValidator validator) internal {\\n        _getValidatorWhitelistStorage()._validatorWhitelist[validator] = false;\\n    }\\n}\\n\"},\"@iden3/contracts/verifiers/RequestDisableable.sol\":{\"content\":\"// SPDX-License-Identifier: GPL-3.0\\npragma solidity 0.8.27;\\n\\nimport {ZKPVerifierBase} from \\\"./ZKPVerifierBase.sol\\\";\\nimport {ICircuitValidator} from \\\"../interfaces/ICircuitValidator.sol\\\";\\n\\ncontract RequestDisableable is ZKPVerifierBase {\\n    /// @custom:storage-location erc7201:iden3.storage.RequestDisableable\\n    struct RequestDisableStorage {\\n        mapping(uint64 requestId => bool isDisabled) _requestDisabling;\\n    }\\n\\n    // keccak256(abi.encode(uint256(keccak256(\\\"iden3.storage.RequestDisableable\\\")) - 1)) & ~bytes32(uint256(0xff));\\n    bytes32 private constant RequestDisableStorageLocation =\\n        0x70325635d67d74932012fa921ccb2f335d3b1d69e3a487f50d001cc65f531600;\\n\\n    function _getRequestDisableStorage() private pure returns (RequestDisableStorage storage $) {\\n        assembly {\\n            $.slot := RequestDisableStorageLocation\\n        }\\n    }\\n\\n    /// @dev Modifier to check if the ZKP request is enabled\\n    modifier onlyEnabledRequest(uint64 requestId) {\\n        require(isZKPRequestEnabled(requestId), \\\"Request is disabled\\\");\\n        _;\\n    }\\n\\n    /// @dev Submits a ZKP response and updates proof status\\n    /// @param requestId The ID of the ZKP request\\n    /// @param inputs The input data for the proof\\n    /// @param a The first component of the proof\\n    /// @param b The second component of the proof\\n    /// @param c The third component of the proof\\n    function submitZKPResponse(\\n        uint64 requestId,\\n        uint256[] memory inputs,\\n        uint256[2] memory a,\\n        uint256[2][2] memory b,\\n        uint256[2] memory c\\n    ) public virtual override onlyEnabledRequest(requestId) {\\n        super.submitZKPResponse(requestId, inputs, a, b, c);\\n    }\\n\\n    /// @dev Verifies a ZKP response without updating any proof status\\n    /// @param requestId The ID of the ZKP request\\n    /// @param inputs The public inputs for the proof\\n    /// @param a The first component of the proof\\n    /// @param b The second component of the proof\\n    /// @param c The third component of the proof\\n    /// @param sender The sender on behalf of which the proof is done\\n    function verifyZKPResponse(\\n        uint64 requestId,\\n        uint256[] memory inputs,\\n        uint256[2] memory a,\\n        uint256[2][2] memory b,\\n        uint256[2] memory c,\\n        address sender\\n    )\\n        public\\n        virtual\\n        override\\n        onlyEnabledRequest(requestId)\\n        returns (ICircuitValidator.KeyToInputIndex[] memory)\\n    {\\n        return super.verifyZKPResponse(requestId, inputs, a, b, c, sender);\\n    }\\n\\n    /// @dev Checks if ZKP Request is enabled\\n    /// @param requestId The ID of the ZKP request\\n    /// @return True if ZKP Request enabled, otherwise returns false\\n    function isZKPRequestEnabled(\\n        uint64 requestId\\n    ) public view virtual checkRequestExistence(requestId, true) returns (bool) {\\n        return !_getRequestDisableStorage()._requestDisabling[requestId];\\n    }\\n\\n    function _disableZKPRequest(uint64 requestId) internal checkRequestExistence(requestId, true) {\\n        _getRequestDisableStorage()._requestDisabling[requestId] = true;\\n    }\\n\\n    function _enableZKPRequest(uint64 requestId) internal checkRequestExistence(requestId, true) {\\n        _getRequestDisableStorage()._requestDisabling[requestId] = false;\\n    }\\n}\\n\"},\"@iden3/contracts/verifiers/RequestOwnership.sol\":{\"content\":\"// SPDX-License-Identifier: GPL-3.0\\npragma solidity 0.8.27;\\n\\nimport {ZKPVerifierBase} from \\\"./ZKPVerifierBase.sol\\\";\\nimport {IZKPVerifier} from \\\"../interfaces/IZKPVerifier.sol\\\";\\n\\nabstract contract RequestOwnership is ZKPVerifierBase {\\n    /// @custom:storage-location erc7201:iden3.storage.RequestOwnership\\n    struct RequestOwnershipStorage {\\n        mapping(uint64 requestId => address requestOwner) _requestOwners;\\n    }\\n\\n    // keccak256(abi.encode(uint256(keccak256(\\\"iden3.storage.RequestOwnership\\\")) - 1)) & ~bytes32(uint256(0xff));\\n    bytes32 private constant RequestOwnershipStorageLocation =\\n        0x6209bdc3799f5201408f7a7d4d471bb2a0100353e618451674b93f730b006a00;\\n\\n    function _getRequestOwnershipStorage()\\n        private\\n        pure\\n        returns (RequestOwnershipStorage storage $)\\n    {\\n        assembly {\\n            $.slot := RequestOwnershipStorageLocation\\n        }\\n    }\\n\\n    /// @dev Modifier to check if the caller is ZKP Request owner\\n    modifier onlyRequestOwner(uint64 requestId) virtual {\\n        require(getRequestOwner(requestId) == _msgSender(), \\\"Not a request owner\\\");\\n        _;\\n    }\\n\\n    /// @dev Sets a ZKP request\\n    /// @param requestId The ID of the ZKP request\\n    /// @param request The ZKP request data\\n    function setZKPRequest(\\n        uint64 requestId,\\n        IZKPVerifier.ZKPRequest calldata request\\n    ) public virtual override {\\n        super.setZKPRequest(requestId, request);\\n        _setRequestOwner(requestId, _msgSender());\\n    }\\n\\n    /// @dev Get a ZKP Request Owner address\\n    /// @param requestId The ID of a ZKP Request\\n    /// @return The ZKP Request Owner address\\n    function getRequestOwner(\\n        uint64 requestId\\n    ) public view virtual checkRequestExistence(requestId, true) returns (address) {\\n        return _getRequestOwnershipStorage()._requestOwners[requestId];\\n    }\\n\\n    function _setRequestOwner(\\n        uint64 requestId,\\n        address requestOwner\\n    ) internal checkRequestExistence(requestId, true) {\\n        RequestOwnershipStorage storage $ = _getRequestOwnershipStorage();\\n        $._requestOwners[requestId] = requestOwner;\\n    }\\n}\\n\"},\"@iden3/contracts/interfaces/IZKPVerifier.sol\":{\"content\":\"// SPDX-License-Identifier: GPL-3.0\\n\\npragma solidity 0.8.27;\\n\\nimport {ICircuitValidator} from \\\"./ICircuitValidator.sol\\\";\\n\\n/**\\n * @dev IZKPVerifier. Interface for verification of groth16 proofs for validators circuits.\\n */\\ninterface IZKPVerifier {\\n    /**\\n     * @dev ZKPRequest. Structure for ZKP request.\\n     * @param metadata Metadata of the request.\\n     * @param validator Validator circuit.\\n     * @param data Data of the request.\\n     */\\n    struct ZKPRequest {\\n        string metadata;\\n        ICircuitValidator validator;\\n        bytes data;\\n    }\\n    /**\\n     * @dev ProofStatus. Structure for proof status.\\n     * @param isVerified True if the proof is verified.\\n     * @param validatorVersion Version of the validator.\\n     * @param blockNumber Block number of the proof.\\n     * @param blockTimestamp Block timestamp of the proof.\\n     */\\n    struct ProofStatus {\\n        bool isVerified;\\n        string validatorVersion;\\n        uint256 blockNumber;\\n        uint256 blockTimestamp;\\n    }\\n\\n    /**\\n     * @dev ZKPResponse. Structure for ZKP response.\\n     * @param requestId Request id of the ZKP request.\\n     * @param zkProof ZKP proof to verify.\\n     * @param data Metadata of the request.\\n     */\\n    struct ZKPResponse {\\n        uint64 requestId;\\n        bytes zkProof;\\n        bytes data;\\n    }\\n\\n    /**\\n     * @dev Submit the groth16 proof π=([πa]1,[πb]2,[πc]1) for the ZKP request requestId.\\n     * @param requestId Request id of the ZKP request.\\n     * @param inputs Public inputs of the circuit.\\n     * @param a πa element of the groth16 proof.\\n     * @param b πb element of the groth16 proof.\\n     * @param c πc element of the groth16 proof.\\n     */\\n    function submitZKPResponse(\\n        uint64 requestId,\\n        uint256[] memory inputs,\\n        uint256[2] memory a,\\n        uint256[2][2] memory b,\\n        uint256[2] memory c\\n    ) external;\\n\\n    /**\\n     * @dev Submit the groth16 proof π=([πa]1,[πb]2,[πc]1) for the ZKP request requestId.\\n     * @param responses The list of responses including ZKP request ID, ZK proof and metadata.\\n     * @param crossChainProofs The list of cross chain proofs from universal resolver (oracle).\\n     */\\n    function submitZKPResponseV2(\\n        ZKPResponse[] memory responses,\\n        bytes memory crossChainProofs\\n    ) external;\\n\\n    /**\\n     * @dev Set the ZKP request for the requestId.\\n     * @param requestId Request id of the ZKP request.\\n     * @param request ZKP request to set.\\n     */\\n    function setZKPRequest(uint64 requestId, ZKPRequest calldata request) external;\\n\\n    /**\\n     * @dev Get the ZKP request for the requestId.\\n     * @param requestId Request id of the ZKP request.\\n     * @return ZKP request.\\n     */\\n    function getZKPRequest(uint64 requestId) external view returns (ZKPRequest memory);\\n\\n    /**\\n     * @dev Get the ZKP request count.\\n     * @return ZKP request count.\\n     */\\n    function getZKPRequestsCount() external view returns (uint256);\\n\\n    /**\\n     * @dev Check if the requestId exists.\\n     * @param requestId Request id of the ZKP request.\\n     * @return True if the requestId exists.\\n     */\\n    function requestIdExists(uint64 requestId) external view returns (bool);\\n\\n    /**\\n     * @dev Get the ZKP requests.\\n     * @param startIndex Start index of the ZKP requests.\\n     * @param length Length of the ZKP requests.\\n     * @return Array of the ZKP requests.\\n     */\\n    function getZKPRequests(\\n        uint256 startIndex,\\n        uint256 length\\n    ) external view returns (ZKPRequest[] memory);\\n\\n    /**\\n     * @dev Get if proof is verified for the sender and ZKP request with requestId.\\n     * @param sender Sender of the proof.\\n     * @param requestId Request id of the ZKP Request to verify.\\n     * @return True if proof is verified for the sender and request id.\\n     */\\n    function isProofVerified(address sender, uint64 requestId) external view returns (bool);\\n\\n    /**\\n     * @dev Get the proof status for the sender and ZKP request with requestId.\\n     * @param sender Sender of the proof.\\n     * @param requestId Request id of the proof.\\n     * @return Proof status.\\n     */\\n    function getProofStatus(\\n        address sender,\\n        uint64 requestId\\n    ) external view returns (ProofStatus memory);\\n\\n    /**\\n     * @dev Get the proof storage field for the user, requestId and key.\\n     * @param user User address.\\n     * @param requestId Request id of the proof.\\n     * @param key Key of the proof storage field.\\n     * @return Proof storage field.\\n     */\\n    function getProofStorageField(\\n        address user,\\n        uint64 requestId,\\n        string memory key\\n    ) external view returns (uint256);\\n}\\n\"},\"@openzeppelin/contracts-upgradeable/access/Ownable2StepUpgradeable.sol\":{\"content\":\"// SPDX-License-Identifier: MIT\\n// OpenZeppelin Contracts (last updated v5.1.0) (access/Ownable2Step.sol)\\n\\npragma solidity ^0.8.20;\\n\\nimport {OwnableUpgradeable} from \\\"./OwnableUpgradeable.sol\\\";\\nimport {Initializable} from \\\"../proxy/utils/Initializable.sol\\\";\\n\\n/**\\n * @dev Contract module which provides access control mechanism, where\\n * there is an account (an owner) that can be granted exclusive access to\\n * specific functions.\\n *\\n * This extension of the {Ownable} contract includes a two-step mechanism to transfer\\n * ownership, where the new owner must call {acceptOwnership} in order to replace the\\n * old one. This can help prevent common mistakes, such as transfers of ownership to\\n * incorrect accounts, or to contracts that are unable to interact with the\\n * permission system.\\n *\\n * The initial owner is specified at deployment time in the constructor for `Ownable`. This\\n * can later be changed with {transferOwnership} and {acceptOwnership}.\\n *\\n * This module is used through inheritance. It will make available all functions\\n * from parent (Ownable).\\n */\\nabstract contract Ownable2StepUpgradeable is Initializable, OwnableUpgradeable {\\n    /// @custom:storage-location erc7201:openzeppelin.storage.Ownable2Step\\n    struct Ownable2StepStorage {\\n        address _pendingOwner;\\n    }\\n\\n    // keccak256(abi.encode(uint256(keccak256(\\\"openzeppelin.storage.Ownable2Step\\\")) - 1)) & ~bytes32(uint256(0xff))\\n    bytes32 private constant Ownable2StepStorageLocation = 0x237e158222e3e6968b72b9db0d8043aacf074ad9f650f0d1606b4d82ee432c00;\\n\\n    function _getOwnable2StepStorage() private pure returns (Ownable2StepStorage storage $) {\\n        assembly {\\n            $.slot := Ownable2StepStorageLocation\\n        }\\n    }\\n\\n    event OwnershipTransferStarted(address indexed previousOwner, address indexed newOwner);\\n\\n    function __Ownable2Step_init() internal onlyInitializing {\\n    }\\n\\n    function __Ownable2Step_init_unchained() internal onlyInitializing {\\n    }\\n    /**\\n     * @dev Returns the address of the pending owner.\\n     */\\n    function pendingOwner() public view virtual returns (address) {\\n        Ownable2StepStorage storage $ = _getOwnable2StepStorage();\\n        return $._pendingOwner;\\n    }\\n\\n    /**\\n     * @dev Starts the ownership transfer of the contract to a new account. Replaces the pending transfer if there is one.\\n     * Can only be called by the current owner.\\n     *\\n     * Setting `newOwner` to the zero address is allowed; this can be used to cancel an initiated ownership transfer.\\n     */\\n    function transferOwnership(address newOwner) public virtual override onlyOwner {\\n        Ownable2StepStorage storage $ = _getOwnable2StepStorage();\\n        $._pendingOwner = newOwner;\\n        emit OwnershipTransferStarted(owner(), newOwner);\\n    }\\n\\n    /**\\n     * @dev Transfers ownership of the contract to a new account (`newOwner`) and deletes any pending owner.\\n     * Internal function without access restriction.\\n     */\\n    function _transferOwnership(address newOwner) internal virtual override {\\n        Ownable2StepStorage storage $ = _getOwnable2StepStorage();\\n        delete $._pendingOwner;\\n        super._transferOwnership(newOwner);\\n    }\\n\\n    /**\\n     * @dev The new owner accepts the ownership transfer.\\n     */\\n    function acceptOwnership() public virtual {\\n        address sender = _msgSender();\\n        if (pendingOwner() != sender) {\\n            revert OwnableUnauthorizedAccount(sender);\\n        }\\n        _transferOwnership(sender);\\n    }\\n}\\n\"},\"solidity-bytes-utils/contracts/BytesLib.sol\":{\"content\":\"// SPDX-License-Identifier: Unlicense\\n/*\\n * @title Solidity Bytes Arrays Utils\\n * @author Gonçalo Sá <goncalo.sa@consensys.net>\\n *\\n * @dev Bytes tightly packed arrays utility library for ethereum contracts written in Solidity.\\n *      The library lets you concatenate, slice and type cast bytes arrays both in memory and storage.\\n */\\npragma solidity >=0.8.0 <0.9.0;\\n\\n\\nlibrary BytesLib {\\n    function concat(\\n        bytes memory _preBytes,\\n        bytes memory _postBytes\\n    )\\n        internal\\n        pure\\n        returns (bytes memory)\\n    {\\n        bytes memory tempBytes;\\n\\n        assembly {\\n            // Get a location of some free memory and store it in tempBytes as\\n            // Solidity does for memory variables.\\n            tempBytes := mload(0x40)\\n\\n            // Store the length of the first bytes array at the beginning of\\n            // the memory for tempBytes.\\n            let length := mload(_preBytes)\\n            mstore(tempBytes, length)\\n\\n            // Maintain a memory counter for the current write location in the\\n            // temp bytes array by adding the 32 bytes for the array length to\\n            // the starting location.\\n            let mc := add(tempBytes, 0x20)\\n            // Stop copying when the memory counter reaches the length of the\\n            // first bytes array.\\n            let end := add(mc, length)\\n\\n            for {\\n                // Initialize a copy counter to the start of the _preBytes data,\\n                // 32 bytes into its memory.\\n                let cc := add(_preBytes, 0x20)\\n            } lt(mc, end) {\\n                // Increase both counters by 32 bytes each iteration.\\n                mc := add(mc, 0x20)\\n                cc := add(cc, 0x20)\\n            } {\\n                // Write the _preBytes data into the tempBytes memory 32 bytes\\n                // at a time.\\n                mstore(mc, mload(cc))\\n            }\\n\\n            // Add the length of _postBytes to the current length of tempBytes\\n            // and store it as the new length in the first 32 bytes of the\\n            // tempBytes memory.\\n            length := mload(_postBytes)\\n            mstore(tempBytes, add(length, mload(tempBytes)))\\n\\n            // Move the memory counter back from a multiple of 0x20 to the\\n            // actual end of the _preBytes data.\\n            mc := end\\n            // Stop copying when the memory counter reaches the new combined\\n            // length of the arrays.\\n            end := add(mc, length)\\n\\n            for {\\n                let cc := add(_postBytes, 0x20)\\n            } lt(mc, end) {\\n                mc := add(mc, 0x20)\\n                cc := add(cc, 0x20)\\n            } {\\n                mstore(mc, mload(cc))\\n            }\\n\\n            // Update the free-memory pointer by padding our last write location\\n            // to 32 bytes: add 31 bytes to the end of tempBytes to move to the\\n            // next 32 byte block, then round down to the nearest multiple of\\n            // 32. If the sum of the length of the two arrays is zero then add\\n            // one before rounding down to leave a blank 32 bytes (the length block with 0).\\n            mstore(0x40, and(\\n              add(add(end, iszero(add(length, mload(_preBytes)))), 31),\\n              not(31) // Round down to the nearest 32 bytes.\\n            ))\\n        }\\n\\n        return tempBytes;\\n    }\\n\\n    function concatStorage(bytes storage _preBytes, bytes memory _postBytes) internal {\\n        assembly {\\n            // Read the first 32 bytes of _preBytes storage, which is the length\\n            // of the array. (We don't need to use the offset into the slot\\n            // because arrays use the entire slot.)\\n            let fslot := sload(_preBytes.slot)\\n            // Arrays of 31 bytes or less have an even value in their slot,\\n            // while longer arrays have an odd value. The actual length is\\n            // the slot divided by two for odd values, and the lowest order\\n            // byte divided by two for even values.\\n            // If the slot is even, bitwise and the slot with 255 and divide by\\n            // two to get the length. If the slot is odd, bitwise and the slot\\n            // with -1 and divide by two.\\n            let slength := div(and(fslot, sub(mul(0x100, iszero(and(fslot, 1))), 1)), 2)\\n            let mlength := mload(_postBytes)\\n            let newlength := add(slength, mlength)\\n            // slength can contain both the length and contents of the array\\n            // if length < 32 bytes so let's prepare for that\\n            // v. http://solidity.readthedocs.io/en/latest/miscellaneous.html#layout-of-state-variables-in-storage\\n            switch add(lt(slength, 32), lt(newlength, 32))\\n            case 2 {\\n                // Since the new array still fits in the slot, we just need to\\n                // update the contents of the slot.\\n                // uint256(bytes_storage) = uint256(bytes_storage) + uint256(bytes_memory) + new_length\\n                sstore(\\n                    _preBytes.slot,\\n                    // all the modifications to the slot are inside this\\n                    // next block\\n                    add(\\n                        // we can just add to the slot contents because the\\n                        // bytes we want to change are the LSBs\\n                        fslot,\\n                        add(\\n                            mul(\\n                                div(\\n                                    // load the bytes from memory\\n                                    mload(add(_postBytes, 0x20)),\\n                                    // zero all bytes to the right\\n                                    exp(0x100, sub(32, mlength))\\n                                ),\\n                                // and now shift left the number of bytes to\\n                                // leave space for the length in the slot\\n                                exp(0x100, sub(32, newlength))\\n                            ),\\n                            // increase length by the double of the memory\\n                            // bytes length\\n                            mul(mlength, 2)\\n                        )\\n                    )\\n                )\\n            }\\n            case 1 {\\n                // The stored value fits in the slot, but the combined value\\n                // will exceed it.\\n                // get the keccak hash to get the contents of the array\\n                mstore(0x0, _preBytes.slot)\\n                let sc := add(keccak256(0x0, 0x20), div(slength, 32))\\n\\n                // save new length\\n                sstore(_preBytes.slot, add(mul(newlength, 2), 1))\\n\\n                // The contents of the _postBytes array start 32 bytes into\\n                // the structure. Our first read should obtain the `submod`\\n                // bytes that can fit into the unused space in the last word\\n                // of the stored array. To get this, we read 32 bytes starting\\n                // from `submod`, so the data we read overlaps with the array\\n                // contents by `submod` bytes. Masking the lowest-order\\n                // `submod` bytes allows us to add that value directly to the\\n                // stored value.\\n\\n                let submod := sub(32, slength)\\n                let mc := add(_postBytes, submod)\\n                let end := add(_postBytes, mlength)\\n                let mask := sub(exp(0x100, submod), 1)\\n\\n                sstore(\\n                    sc,\\n                    add(\\n                        and(\\n                            fslot,\\n                            0xffffffffffffffffffffffffffffffffffffffffffffffffffffffffffffff00\\n                        ),\\n                        and(mload(mc), mask)\\n                    )\\n                )\\n\\n                for {\\n                    mc := add(mc, 0x20)\\n                    sc := add(sc, 1)\\n                } lt(mc, end) {\\n                    sc := add(sc, 1)\\n                    mc := add(mc, 0x20)\\n                } {\\n                    sstore(sc, mload(mc))\\n                }\\n\\n                mask := exp(0x100, sub(mc, end))\\n\\n                sstore(sc, mul(div(mload(mc), mask), mask))\\n            }\\n            default {\\n                // get the keccak hash to get the contents of the array\\n                mstore(0x0, _preBytes.slot)\\n                // Start copying to the last used word of the stored array.\\n                let sc := add(keccak256(0x0, 0x20), div(slength, 32))\\n\\n                // save new length\\n                sstore(_preBytes.slot, add(mul(newlength, 2), 1))\\n\\n                // Copy over the first `submod` bytes of the new data as in\\n                // case 1 above.\\n                let slengthmod := mod(slength, 32)\\n                let mlengthmod := mod(mlength, 32)\\n                let submod := sub(32, slengthmod)\\n                let mc := add(_postBytes, submod)\\n                let end := add(_postBytes, mlength)\\n                let mask := sub(exp(0x100, submod), 1)\\n\\n                sstore(sc, add(sload(sc), and(mload(mc), mask)))\\n\\n                for {\\n                    sc := add(sc, 1)\\n                    mc := add(mc, 0x20)\\n                } lt(mc, end) {\\n                    sc := add(sc, 1)\\n                    mc := add(mc, 0x20)\\n                } {\\n                    sstore(sc, mload(mc))\\n                }\\n\\n                mask := exp(0x100, sub(mc, end))\\n\\n                sstore(sc, mul(div(mload(mc), mask), mask))\\n            }\\n        }\\n    }\\n\\n    function slice(\\n        bytes memory _bytes,\\n        uint256 _start,\\n        uint256 _length\\n    )\\n        internal\\n        pure\\n        returns (bytes memory)\\n    {\\n        require(_length + 31 >= _length, \\\"slice_overflow\\\");\\n        require(_bytes.length >= _start + _length, \\\"slice_outOfBounds\\\");\\n\\n        bytes memory tempBytes;\\n\\n        assembly {\\n            switch iszero(_length)\\n            case 0 {\\n                // Get a location of some free memory and store it in tempBytes as\\n                // Solidity does for memory variables.\\n                tempBytes := mload(0x40)\\n\\n                // The first word of the slice result is potentially a partial\\n                // word read from the original array. To read it, we calculate\\n                // the length of that partial word and start copying that many\\n                // bytes into the array. The first word we copy will start with\\n                // data we don't care about, but the last `lengthmod` bytes will\\n                // land at the beginning of the contents of the new array. When\\n                // we're done copying, we overwrite the full first word with\\n                // the actual length of the slice.\\n                let lengthmod := and(_length, 31)\\n\\n                // The multiplication in the next line is necessary\\n                // because when slicing multiples of 32 bytes (lengthmod == 0)\\n                // the following copy loop was copying the origin's length\\n                // and then ending prematurely not copying everything it should.\\n                let mc := add(add(tempBytes, lengthmod), mul(0x20, iszero(lengthmod)))\\n                let end := add(mc, _length)\\n\\n                for {\\n                    // The multiplication in the next line has the same exact purpose\\n                    // as the one above.\\n                    let cc := add(add(add(_bytes, lengthmod), mul(0x20, iszero(lengthmod))), _start)\\n                } lt(mc, end) {\\n                    mc := add(mc, 0x20)\\n                    cc := add(cc, 0x20)\\n                } {\\n                    mstore(mc, mload(cc))\\n                }\\n\\n                mstore(tempBytes, _length)\\n\\n                //update free-memory pointer\\n                //allocating the array padded to 32 bytes like the compiler does now\\n                mstore(0x40, and(add(mc, 31), not(31)))\\n            }\\n            //if we want a zero-length slice let's just return a zero-length array\\n            default {\\n                tempBytes := mload(0x40)\\n                //zero out the 32 bytes slice we are about to return\\n                //we need to do it because Solidity does not garbage collect\\n                mstore(tempBytes, 0)\\n\\n                mstore(0x40, add(tempBytes, 0x20))\\n            }\\n        }\\n\\n        return tempBytes;\\n    }\\n\\n    function toAddress(bytes memory _bytes, uint256 _start) internal pure returns (address) {\\n        require(_bytes.length >= _start + 20, \\\"toAddress_outOfBounds\\\");\\n        address tempAddress;\\n\\n        assembly {\\n            tempAddress := div(mload(add(add(_bytes, 0x20), _start)), 0x1000000000000000000000000)\\n        }\\n\\n        return tempAddress;\\n    }\\n\\n    function toUint8(bytes memory _bytes, uint256 _start) internal pure returns (uint8) {\\n        require(_bytes.length >= _start + 1 , \\\"toUint8_outOfBounds\\\");\\n        uint8 tempUint;\\n\\n        assembly {\\n            tempUint := mload(add(add(_bytes, 0x1), _start))\\n        }\\n\\n        return tempUint;\\n    }\\n\\n    function toUint16(bytes memory _bytes, uint256 _start) internal pure returns (uint16) {\\n        require(_bytes.length >= _start + 2, \\\"toUint16_outOfBounds\\\");\\n        uint16 tempUint;\\n\\n        assembly {\\n            tempUint := mload(add(add(_bytes, 0x2), _start))\\n        }\\n\\n        return tempUint;\\n    }\\n\\n    function toUint32(bytes memory _bytes, uint256 _start) internal pure returns (uint32) {\\n        require(_bytes.length >= _start + 4, \\\"toUint32_outOfBounds\\\");\\n        uint32 tempUint;\\n\\n        assembly {\\n            tempUint := mload(add(add(_bytes, 0x4), _start))\\n        }\\n\\n        return tempUint;\\n    }\\n\\n    function toUint64(bytes memory _bytes, uint256 _start) internal pure returns (uint64) {\\n        require(_bytes.length >= _start + 8, \\\"toUint64_outOfBounds\\\");\\n        uint64 tempUint;\\n\\n        assembly {\\n            tempUint := mload(add(add(_bytes, 0x8), _start))\\n        }\\n\\n        return tempUint;\\n    }\\n\\n    function toUint96(bytes memory _bytes, uint256 _start) internal pure returns (uint96) {\\n        require(_bytes.length >= _start + 12, \\\"toUint96_outOfBounds\\\");\\n        uint96 tempUint;\\n\\n        assembly {\\n            tempUint := mload(add(add(_bytes, 0xc), _start))\\n        }\\n\\n        return tempUint;\\n    }\\n\\n    function toUint128(bytes memory _bytes, uint256 _start) internal pure returns (uint128) {\\n        require(_bytes.length >= _start + 16, \\\"toUint128_outOfBounds\\\");\\n        uint128 tempUint;\\n\\n        assembly {\\n            tempUint := mload(add(add(_bytes, 0x10), _start))\\n        }\\n\\n        return tempUint;\\n    }\\n\\n    function toUint256(bytes memory _bytes, uint256 _start) internal pure returns (uint256) {\\n        require(_bytes.length >= _start + 32, \\\"toUint256_outOfBounds\\\");\\n        uint256 tempUint;\\n\\n        assembly {\\n            tempUint := mload(add(add(_bytes, 0x20), _start))\\n        }\\n\\n        return tempUint;\\n    }\\n\\n    function toBytes32(bytes memory _bytes, uint256 _start) internal pure returns (bytes32) {\\n        require(_bytes.length >= _start + 32, \\\"toBytes32_outOfBounds\\\");\\n        bytes32 tempBytes32;\\n\\n        assembly {\\n            tempBytes32 := mload(add(add(_bytes, 0x20), _start))\\n        }\\n\\n        return tempBytes32;\\n    }\\n\\n    function equal(bytes memory _preBytes, bytes memory _postBytes) internal pure returns (bool) {\\n        bool success = true;\\n\\n        assembly {\\n            let length := mload(_preBytes)\\n\\n            // if lengths don't match the arrays are not equal\\n            switch eq(length, mload(_postBytes))\\n            case 1 {\\n                // cb is a circuit breaker in the for loop since there's\\n                //  no said feature for inline assembly loops\\n                // cb = 1 - don't breaker\\n                // cb = 0 - break\\n                let cb := 1\\n\\n                let mc := add(_preBytes, 0x20)\\n                let end := add(mc, length)\\n\\n                for {\\n                    let cc := add(_postBytes, 0x20)\\n                // the next line is the loop condition:\\n                // while(uint256(mc < end) + cb == 2)\\n                } eq(add(lt(mc, end), cb), 2) {\\n                    mc := add(mc, 0x20)\\n                    cc := add(cc, 0x20)\\n                } {\\n                    // if any of these checks fails then arrays are not equal\\n                    if iszero(eq(mload(mc), mload(cc))) {\\n                        // unsuccess:\\n                        success := 0\\n                        cb := 0\\n                    }\\n                }\\n            }\\n            default {\\n                // unsuccess:\\n                success := 0\\n            }\\n        }\\n\\n        return success;\\n    }\\n\\n    function equalStorage(\\n        bytes storage _preBytes,\\n        bytes memory _postBytes\\n    )\\n        internal\\n        view\\n        returns (bool)\\n    {\\n        bool success = true;\\n\\n        assembly {\\n            // we know _preBytes_offset is 0\\n            let fslot := sload(_preBytes.slot)\\n            // Decode the length of the stored array like in concatStorage().\\n            let slength := div(and(fslot, sub(mul(0x100, iszero(and(fslot, 1))), 1)), 2)\\n            let mlength := mload(_postBytes)\\n\\n            // if lengths don't match the arrays are not equal\\n            switch eq(slength, mlength)\\n            case 1 {\\n                // slength can contain both the length and contents of the array\\n                // if length < 32 bytes so let's prepare for that\\n                // v. http://solidity.readthedocs.io/en/latest/miscellaneous.html#layout-of-state-variables-in-storage\\n                if iszero(iszero(slength)) {\\n                    switch lt(slength, 32)\\n                    case 1 {\\n                        // blank the last byte which is the length\\n                        fslot := mul(div(fslot, 0x100), 0x100)\\n\\n                        if iszero(eq(fslot, mload(add(_postBytes, 0x20)))) {\\n                            // unsuccess:\\n                            success := 0\\n                        }\\n                    }\\n                    default {\\n                        // cb is a circuit breaker in the for loop since there's\\n                        //  no said feature for inline assembly loops\\n                        // cb = 1 - don't breaker\\n                        // cb = 0 - break\\n                        let cb := 1\\n\\n                        // get the keccak hash to get the contents of the array\\n                        mstore(0x0, _preBytes.slot)\\n                        let sc := keccak256(0x0, 0x20)\\n\\n                        let mc := add(_postBytes, 0x20)\\n                        let end := add(mc, mlength)\\n\\n                        // the next line is the loop condition:\\n                        // while(uint256(mc < end) + cb == 2)\\n                        for {} eq(add(lt(mc, end), cb), 2) {\\n                            sc := add(sc, 1)\\n                            mc := add(mc, 0x20)\\n                        } {\\n                            if iszero(eq(sload(sc), mload(mc))) {\\n                                // unsuccess:\\n                                success := 0\\n                                cb := 0\\n                            }\\n                        }\\n                    }\\n                }\\n            }\\n            default {\\n                // unsuccess:\\n                success := 0\\n            }\\n        }\\n\\n        return success;\\n    }\\n}\\n\"},\"@openzeppelin/contracts/utils/introspection/IERC165.sol\":{\"content\":\"// SPDX-License-Identifier: MIT\\n// OpenZeppelin Contracts (last updated v5.1.0) (utils/introspection/IERC165.sol)\\n\\npragma solidity ^0.8.20;\\n\\n/**\\n * @dev Interface of the ERC-165 standard, as defined in the\\n * https://eips.ethereum.org/EIPS/eip-165[ERC].\\n *\\n * Implementers can declare support of contract interfaces, which can then be\\n * queried by others ({ERC165Checker}).\\n *\\n * For an implementation, see {ERC165}.\\n */\\ninterface IERC165 {\\n    /**\\n     * @dev Returns true if this contract implements the interface defined by\\n     * `interfaceId`. See the corresponding\\n     * https://eips.ethereum.org/EIPS/eip-165#how-interfaces-are-identified[ERC section]\\n     * to learn more about how these ids are created.\\n     *\\n     * This function call must use less than 30 000 gas.\\n     */\\n    function supportsInterface(bytes4 interfaceId) external view returns (bool);\\n}\\n\"},\"@openzeppelin/contracts/utils/math/Math.sol\":{\"content\":\"// SPDX-License-Identifier: MIT\\n// OpenZeppelin Contracts (last updated v5.1.0) (utils/math/Math.sol)\\n\\npragma solidity ^0.8.20;\\n\\nimport {Panic} from \\\"../Panic.sol\\\";\\nimport {SafeCast} from \\\"./SafeCast.sol\\\";\\n\\n/**\\n * @dev Standard math utilities missing in the Solidity language.\\n */\\nlibrary Math {\\n    enum Rounding {\\n        Floor, // Toward negative infinity\\n        Ceil, // Toward positive infinity\\n        Trunc, // Toward zero\\n        Expand // Away from zero\\n    }\\n\\n    /**\\n     * @dev Returns the addition of two unsigned integers, with an success flag (no overflow).\\n     */\\n    function tryAdd(uint256 a, uint256 b) internal pure returns (bool success, uint256 result) {\\n        unchecked {\\n            uint256 c = a + b;\\n            if (c < a) return (false, 0);\\n            return (true, c);\\n        }\\n    }\\n\\n    /**\\n     * @dev Returns the subtraction of two unsigned integers, with an success flag (no overflow).\\n     */\\n    function trySub(uint256 a, uint256 b) internal pure returns (bool success, uint256 result) {\\n        unchecked {\\n            if (b > a) return (false, 0);\\n            return (true, a - b);\\n        }\\n    }\\n\\n    /**\\n     * @dev Returns the multiplication of two unsigned integers, with an success flag (no overflow).\\n     */\\n    function tryMul(uint256 a, uint256 b) internal pure returns (bool success, uint256 result) {\\n        unchecked {\\n            // Gas optimization: this is cheaper than requiring 'a' not being zero, but the\\n            // benefit is lost if 'b' is also tested.\\n            // See: https://github.com/OpenZeppelin/openzeppelin-contracts/pull/522\\n            if (a == 0) return (true, 0);\\n            uint256 c = a * b;\\n            if (c / a != b) return (false, 0);\\n            return (true, c);\\n        }\\n    }\\n\\n    /**\\n     * @dev Returns the division of two unsigned integers, with a success flag (no division by zero).\\n     */\\n    function tryDiv(uint256 a, uint256 b) internal pure returns (bool success, uint256 result) {\\n        unchecked {\\n            if (b == 0) return (false, 0);\\n            return (true, a / b);\\n        }\\n    }\\n\\n    /**\\n     * @dev Returns the remainder of dividing two unsigned integers, with a success flag (no division by zero).\\n     */\\n    function tryMod(uint256 a, uint256 b) internal pure returns (bool success, uint256 result) {\\n        unchecked {\\n            if (b == 0) return (false, 0);\\n            return (true, a % b);\\n        }\\n    }\\n\\n    /**\\n     * @dev Branchless ternary evaluation for `a ? b : c`. Gas costs are constant.\\n     *\\n     * IMPORTANT: This function may reduce bytecode size and consume less gas when used standalone.\\n     * However, the compiler may optimize Solidity ternary operations (i.e. `a ? b : c`) to only compute\\n     * one branch when needed, making this function more expensive.\\n     */\\n    function ternary(bool condition, uint256 a, uint256 b) internal pure returns (uint256) {\\n        unchecked {\\n            // branchless ternary works because:\\n            // b ^ (a ^ b) == a\\n            // b ^ 0 == b\\n            return b ^ ((a ^ b) * SafeCast.toUint(condition));\\n        }\\n    }\\n\\n    /**\\n     * @dev Returns the largest of two numbers.\\n     */\\n    function max(uint256 a, uint256 b) internal pure returns (uint256) {\\n        return ternary(a > b, a, b);\\n    }\\n\\n    /**\\n     * @dev Returns the smallest of two numbers.\\n     */\\n    function min(uint256 a, uint256 b) internal pure returns (uint256) {\\n        return ternary(a < b, a, b);\\n    }\\n\\n    /**\\n     * @dev Returns the average of two numbers. The result is rounded towards\\n     * zero.\\n     */\\n    function average(uint256 a, uint256 b) internal pure returns (uint256) {\\n        // (a + b) / 2 can overflow.\\n        return (a & b) + (a ^ b) / 2;\\n    }\\n\\n    /**\\n     * @dev Returns the ceiling of the division of two numbers.\\n     *\\n     * This differs from standard division with `/` in that it rounds towards infinity instead\\n     * of rounding towards zero.\\n     */\\n    function ceilDiv(uint256 a, uint256 b) internal pure returns (uint256) {\\n        if (b == 0) {\\n            // Guarantee the same behavior as in a regular Solidity division.\\n            Panic.panic(Panic.DIVISION_BY_ZERO);\\n        }\\n\\n        // The following calculation ensures accurate ceiling division without overflow.\\n        // Since a is non-zero, (a - 1) / b will not overflow.\\n        // The largest possible result occurs when (a - 1) / b is type(uint256).max,\\n        // but the largest value we can obtain is type(uint256).max - 1, which happens\\n        // when a = type(uint256).max and b = 1.\\n        unchecked {\\n            return SafeCast.toUint(a > 0) * ((a - 1) / b + 1);\\n        }\\n    }\\n\\n    /**\\n     * @dev Calculates floor(x * y / denominator) with full precision. Throws if result overflows a uint256 or\\n     * denominator == 0.\\n     *\\n     * Original credit to Remco Bloemen under MIT license (https://xn--2-umb.com/21/muldiv) with further edits by\\n     * Uniswap Labs also under MIT license.\\n     */\\n    function mulDiv(uint256 x, uint256 y, uint256 denominator) internal pure returns (uint256 result) {\\n        unchecked {\\n            // 512-bit multiply [prod1 prod0] = x * y. Compute the product mod 2²⁵⁶ and mod 2²⁵⁶ - 1, then use\\n            // the Chinese Remainder Theorem to reconstruct the 512 bit result. The result is stored in two 256\\n            // variables such that product = prod1 * 2²⁵⁶ + prod0.\\n            uint256 prod0 = x * y; // Least significant 256 bits of the product\\n            uint256 prod1; // Most significant 256 bits of the product\\n            assembly {\\n                let mm := mulmod(x, y, not(0))\\n                prod1 := sub(sub(mm, prod0), lt(mm, prod0))\\n            }\\n\\n            // Handle non-overflow cases, 256 by 256 division.\\n            if (prod1 == 0) {\\n                // Solidity will revert if denominator == 0, unlike the div opcode on its own.\\n                // The surrounding unchecked block does not change this fact.\\n                // See https://docs.soliditylang.org/en/latest/control-structures.html#checked-or-unchecked-arithmetic.\\n                return prod0 / denominator;\\n            }\\n\\n            // Make sure the result is less than 2²⁵⁶. Also prevents denominator == 0.\\n            if (denominator <= prod1) {\\n                Panic.panic(ternary(denominator == 0, Panic.DIVISION_BY_ZERO, Panic.UNDER_OVERFLOW));\\n            }\\n\\n            ///////////////////////////////////////////////\\n            // 512 by 256 division.\\n            ///////////////////////////////////////////////\\n\\n            // Make division exact by subtracting the remainder from [prod1 prod0].\\n            uint256 remainder;\\n            assembly {\\n                // Compute remainder using mulmod.\\n                remainder := mulmod(x, y, denominator)\\n\\n                // Subtract 256 bit number from 512 bit number.\\n                prod1 := sub(prod1, gt(remainder, prod0))\\n                prod0 := sub(prod0, remainder)\\n            }\\n\\n            // Factor powers of two out of denominator and compute largest power of two divisor of denominator.\\n            // Always >= 1. See https://cs.stackexchange.com/q/138556/92363.\\n\\n            uint256 twos = denominator & (0 - denominator);\\n            assembly {\\n                // Divide denominator by twos.\\n                denominator := div(denominator, twos)\\n\\n                // Divide [prod1 prod0] by twos.\\n                prod0 := div(prod0, twos)\\n\\n                // Flip twos such that it is 2²⁵⁶ / twos. If twos is zero, then it becomes one.\\n                twos := add(div(sub(0, twos), twos), 1)\\n            }\\n\\n            // Shift in bits from prod1 into prod0.\\n            prod0 |= prod1 * twos;\\n\\n            // Invert denominator mod 2²⁵⁶. Now that denominator is an odd number, it has an inverse modulo 2²⁵⁶ such\\n            // that denominator * inv ≡ 1 mod 2²⁵⁶. Compute the inverse by starting with a seed that is correct for\\n            // four bits. That is, denominator * inv ≡ 1 mod 2⁴.\\n            uint256 inverse = (3 * denominator) ^ 2;\\n\\n            // Use the Newton-Raphson iteration to improve the precision. Thanks to Hensel's lifting lemma, this also\\n            // works in modular arithmetic, doubling the correct bits in each step.\\n            inverse *= 2 - denominator * inverse; // inverse mod 2⁸\\n            inverse *= 2 - denominator * inverse; // inverse mod 2¹⁶\\n            inverse *= 2 - denominator * inverse; // inverse mod 2³²\\n            inverse *= 2 - denominator * inverse; // inverse mod 2⁶⁴\\n            inverse *= 2 - denominator * inverse; // inverse mod 2¹²⁸\\n            inverse *= 2 - denominator * inverse; // inverse mod 2²⁵⁶\\n\\n            // Because the division is now exact we can divide by multiplying with the modular inverse of denominator.\\n            // This will give us the correct result modulo 2²⁵⁶. Since the preconditions guarantee that the outcome is\\n            // less than 2²⁵⁶, this is the final result. We don't need to compute the high bits of the result and prod1\\n            // is no longer required.\\n            result = prod0 * inverse;\\n            return result;\\n        }\\n    }\\n\\n    /**\\n     * @dev Calculates x * y / denominator with full precision, following the selected rounding direction.\\n     */\\n    function mulDiv(uint256 x, uint256 y, uint256 denominator, Rounding rounding) internal pure returns (uint256) {\\n        return mulDiv(x, y, denominator) + SafeCast.toUint(unsignedRoundsUp(rounding) && mulmod(x, y, denominator) > 0);\\n    }\\n\\n    /**\\n     * @dev Calculate the modular multiplicative inverse of a number in Z/nZ.\\n     *\\n     * If n is a prime, then Z/nZ is a field. In that case all elements are inversible, except 0.\\n     * If n is not a prime, then Z/nZ is not a field, and some elements might not be inversible.\\n     *\\n     * If the input value is not inversible, 0 is returned.\\n     *\\n     * NOTE: If you know for sure that n is (big) a prime, it may be cheaper to use Fermat's little theorem and get the\\n     * inverse using `Math.modExp(a, n - 2, n)`. See {invModPrime}.\\n     */\\n    function invMod(uint256 a, uint256 n) internal pure returns (uint256) {\\n        unchecked {\\n            if (n == 0) return 0;\\n\\n            // The inverse modulo is calculated using the Extended Euclidean Algorithm (iterative version)\\n            // Used to compute integers x and y such that: ax + ny = gcd(a, n).\\n            // When the gcd is 1, then the inverse of a modulo n exists and it's x.\\n            // ax + ny = 1\\n            // ax = 1 + (-y)n\\n            // ax ≡ 1 (mod n) # x is the inverse of a modulo n\\n\\n            // If the remainder is 0 the gcd is n right away.\\n            uint256 remainder = a % n;\\n            uint256 gcd = n;\\n\\n            // Therefore the initial coefficients are:\\n            // ax + ny = gcd(a, n) = n\\n            // 0a + 1n = n\\n            int256 x = 0;\\n            int256 y = 1;\\n\\n            while (remainder != 0) {\\n                uint256 quotient = gcd / remainder;\\n\\n                (gcd, remainder) = (\\n                    // The old remainder is the next gcd to try.\\n                    remainder,\\n                    // Compute the next remainder.\\n                    // Can't overflow given that (a % gcd) * (gcd // (a % gcd)) <= gcd\\n                    // where gcd is at most n (capped to type(uint256).max)\\n                    gcd - remainder * quotient\\n                );\\n\\n                (x, y) = (\\n                    // Increment the coefficient of a.\\n                    y,\\n                    // Decrement the coefficient of n.\\n                    // Can overflow, but the result is casted to uint256 so that the\\n                    // next value of y is \\\"wrapped around\\\" to a value between 0 and n - 1.\\n                    x - y * int256(quotient)\\n                );\\n            }\\n\\n            if (gcd != 1) return 0; // No inverse exists.\\n            return ternary(x < 0, n - uint256(-x), uint256(x)); // Wrap the result if it's negative.\\n        }\\n    }\\n\\n    /**\\n     * @dev Variant of {invMod}. More efficient, but only works if `p` is known to be a prime greater than `2`.\\n     *\\n     * From https://en.wikipedia.org/wiki/Fermat%27s_little_theorem[Fermat's little theorem], we know that if p is\\n     * prime, then `a**(p-1) ≡ 1 mod p`. As a consequence, we have `a * a**(p-2) ≡ 1 mod p`, which means that\\n     * `a**(p-2)` is the modular multiplicative inverse of a in Fp.\\n     *\\n     * NOTE: this function does NOT check that `p` is a prime greater than `2`.\\n     */\\n    function invModPrime(uint256 a, uint256 p) internal view returns (uint256) {\\n        unchecked {\\n            return Math.modExp(a, p - 2, p);\\n        }\\n    }\\n\\n    /**\\n     * @dev Returns the modular exponentiation of the specified base, exponent and modulus (b ** e % m)\\n     *\\n     * Requirements:\\n     * - modulus can't be zero\\n     * - underlying staticcall to precompile must succeed\\n     *\\n     * IMPORTANT: The result is only valid if the underlying call succeeds. When using this function, make\\n     * sure the chain you're using it on supports the precompiled contract for modular exponentiation\\n     * at address 0x05 as specified in https://eips.ethereum.org/EIPS/eip-198[EIP-198]. Otherwise,\\n     * the underlying function will succeed given the lack of a revert, but the result may be incorrectly\\n     * interpreted as 0.\\n     */\\n    function modExp(uint256 b, uint256 e, uint256 m) internal view returns (uint256) {\\n        (bool success, uint256 result) = tryModExp(b, e, m);\\n        if (!success) {\\n            Panic.panic(Panic.DIVISION_BY_ZERO);\\n        }\\n        return result;\\n    }\\n\\n    /**\\n     * @dev Returns the modular exponentiation of the specified base, exponent and modulus (b ** e % m).\\n     * It includes a success flag indicating if the operation succeeded. Operation will be marked as failed if trying\\n     * to operate modulo 0 or if the underlying precompile reverted.\\n     *\\n     * IMPORTANT: The result is only valid if the success flag is true. When using this function, make sure the chain\\n     * you're using it on supports the precompiled contract for modular exponentiation at address 0x05 as specified in\\n     * https://eips.ethereum.org/EIPS/eip-198[EIP-198]. Otherwise, the underlying function will succeed given the lack\\n     * of a revert, but the result may be incorrectly interpreted as 0.\\n     */\\n    function tryModExp(uint256 b, uint256 e, uint256 m) internal view returns (bool success, uint256 result) {\\n        if (m == 0) return (false, 0);\\n        assembly (\\\"memory-safe\\\") {\\n            let ptr := mload(0x40)\\n            // | Offset    | Content    | Content (Hex)                                                      |\\n            // |-----------|------------|--------------------------------------------------------------------|\\n            // | 0x00:0x1f | size of b  | 0x0000000000000000000000000000000000000000000000000000000000000020 |\\n            // | 0x20:0x3f | size of e  | 0x0000000000000000000000000000000000000000000000000000000000000020 |\\n            // | 0x40:0x5f | size of m  | 0x0000000000000000000000000000000000000000000000000000000000000020 |\\n            // | 0x60:0x7f | value of b | 0x<.............................................................b> |\\n            // | 0x80:0x9f | value of e | 0x<.............................................................e> |\\n            // | 0xa0:0xbf | value of m | 0x<.............................................................m> |\\n            mstore(ptr, 0x20)\\n            mstore(add(ptr, 0x20), 0x20)\\n            mstore(add(ptr, 0x40), 0x20)\\n            mstore(add(ptr, 0x60), b)\\n            mstore(add(ptr, 0x80), e)\\n            mstore(add(ptr, 0xa0), m)\\n\\n            // Given the result < m, it's guaranteed to fit in 32 bytes,\\n            // so we can use the memory scratch space located at offset 0.\\n            success := staticcall(gas(), 0x05, ptr, 0xc0, 0x00, 0x20)\\n            result := mload(0x00)\\n        }\\n    }\\n\\n    /**\\n     * @dev Variant of {modExp} that supports inputs of arbitrary length.\\n     */\\n    function modExp(bytes memory b, bytes memory e, bytes memory m) internal view returns (bytes memory) {\\n        (bool success, bytes memory result) = tryModExp(b, e, m);\\n        if (!success) {\\n            Panic.panic(Panic.DIVISION_BY_ZERO);\\n        }\\n        return result;\\n    }\\n\\n    /**\\n     * @dev Variant of {tryModExp} that supports inputs of arbitrary length.\\n     */\\n    function tryModExp(\\n        bytes memory b,\\n        bytes memory e,\\n        bytes memory m\\n    ) internal view returns (bool success, bytes memory result) {\\n        if (_zeroBytes(m)) return (false, new bytes(0));\\n\\n        uint256 mLen = m.length;\\n\\n        // Encode call args in result and move the free memory pointer\\n        result = abi.encodePacked(b.length, e.length, mLen, b, e, m);\\n\\n        assembly (\\\"memory-safe\\\") {\\n            let dataPtr := add(result, 0x20)\\n            // Write result on top of args to avoid allocating extra memory.\\n            success := staticcall(gas(), 0x05, dataPtr, mload(result), dataPtr, mLen)\\n            // Overwrite the length.\\n            // result.length > returndatasize() is guaranteed because returndatasize() == m.length\\n            mstore(result, mLen)\\n            // Set the memory pointer after the returned data.\\n            mstore(0x40, add(dataPtr, mLen))\\n        }\\n    }\\n\\n    /**\\n     * @dev Returns whether the provided byte array is zero.\\n     */\\n    function _zeroBytes(bytes memory byteArray) private pure returns (bool) {\\n        for (uint256 i = 0; i < byteArray.length; ++i) {\\n            if (byteArray[i] != 0) {\\n                return false;\\n            }\\n        }\\n        return true;\\n    }\\n\\n    /**\\n     * @dev Returns the square root of a number. If the number is not a perfect square, the value is rounded\\n     * towards zero.\\n     *\\n     * This method is based on Newton's method for computing square roots; the algorithm is restricted to only\\n     * using integer operations.\\n     */\\n    function sqrt(uint256 a) internal pure returns (uint256) {\\n        unchecked {\\n            // Take care of easy edge cases when a == 0 or a == 1\\n            if (a <= 1) {\\n                return a;\\n            }\\n\\n            // In this function, we use Newton's method to get a root of `f(x) := x² - a`. It involves building a\\n            // sequence x_n that converges toward sqrt(a). For each iteration x_n, we also define the error between\\n            // the current value as `ε_n = | x_n - sqrt(a) |`.\\n            //\\n            // For our first estimation, we consider `e` the smallest power of 2 which is bigger than the square root\\n            // of the target. (i.e. `2**(e-1) ≤ sqrt(a) < 2**e`). We know that `e ≤ 128` because `(2¹²⁸)² = 2²⁵⁶` is\\n            // bigger than any uint256.\\n            //\\n            // By noticing that\\n            // `2**(e-1) ≤ sqrt(a) < 2**e → (2**(e-1))² ≤ a < (2**e)² → 2**(2*e-2) ≤ a < 2**(2*e)`\\n            // we can deduce that `e - 1` is `log2(a) / 2`. We can thus compute `x_n = 2**(e-1)` using a method similar\\n            // to the msb function.\\n            uint256 aa = a;\\n            uint256 xn = 1;\\n\\n            if (aa >= (1 << 128)) {\\n                aa >>= 128;\\n                xn <<= 64;\\n            }\\n            if (aa >= (1 << 64)) {\\n                aa >>= 64;\\n                xn <<= 32;\\n            }\\n            if (aa >= (1 << 32)) {\\n                aa >>= 32;\\n                xn <<= 16;\\n            }\\n            if (aa >= (1 << 16)) {\\n                aa >>= 16;\\n                xn <<= 8;\\n            }\\n            if (aa >= (1 << 8)) {\\n                aa >>= 8;\\n                xn <<= 4;\\n            }\\n            if (aa >= (1 << 4)) {\\n                aa >>= 4;\\n                xn <<= 2;\\n            }\\n            if (aa >= (1 << 2)) {\\n                xn <<= 1;\\n            }\\n\\n            // We now have x_n such that `x_n = 2**(e-1) ≤ sqrt(a) < 2**e = 2 * x_n`. This implies ε_n ≤ 2**(e-1).\\n            //\\n            // We can refine our estimation by noticing that the middle of that interval minimizes the error.\\n            // If we move x_n to equal 2**(e-1) + 2**(e-2), then we reduce the error to ε_n ≤ 2**(e-2).\\n            // This is going to be our x_0 (and ε_0)\\n            xn = (3 * xn) >> 1; // ε_0 := | x_0 - sqrt(a) | ≤ 2**(e-2)\\n\\n            // From here, Newton's method give us:\\n            // x_{n+1} = (x_n + a / x_n) / 2\\n            //\\n            // One should note that:\\n            // x_{n+1}² - a = ((x_n + a / x_n) / 2)² - a\\n            //              = ((x_n² + a) / (2 * x_n))² - a\\n            //              = (x_n⁴ + 2 * a * x_n² + a²) / (4 * x_n²) - a\\n            //              = (x_n⁴ + 2 * a * x_n² + a² - 4 * a * x_n²) / (4 * x_n²)\\n            //              = (x_n⁴ - 2 * a * x_n² + a²) / (4 * x_n²)\\n            //              = (x_n² - a)² / (2 * x_n)²\\n            //              = ((x_n² - a) / (2 * x_n))²\\n            //              ≥ 0\\n            // Which proves that for all n ≥ 1, sqrt(a) ≤ x_n\\n            //\\n            // This gives us the proof of quadratic convergence of the sequence:\\n            // ε_{n+1} = | x_{n+1} - sqrt(a) |\\n            //         = | (x_n + a / x_n) / 2 - sqrt(a) |\\n            //         = | (x_n² + a - 2*x_n*sqrt(a)) / (2 * x_n) |\\n            //         = | (x_n - sqrt(a))² / (2 * x_n) |\\n            //         = | ε_n² / (2 * x_n) |\\n            //         = ε_n² / | (2 * x_n) |\\n            //\\n            // For the first iteration, we have a special case where x_0 is known:\\n            // ε_1 = ε_0² / | (2 * x_0) |\\n            //     ≤ (2**(e-2))² / (2 * (2**(e-1) + 2**(e-2)))\\n            //     ≤ 2**(2*e-4) / (3 * 2**(e-1))\\n            //     ≤ 2**(e-3) / 3\\n            //     ≤ 2**(e-3-log2(3))\\n            //     ≤ 2**(e-4.5)\\n            //\\n            // For the following iterations, we use the fact that, 2**(e-1) ≤ sqrt(a) ≤ x_n:\\n            // ε_{n+1} = ε_n² / | (2 * x_n) |\\n            //         ≤ (2**(e-k))² / (2 * 2**(e-1))\\n            //         ≤ 2**(2*e-2*k) / 2**e\\n            //         ≤ 2**(e-2*k)\\n            xn = (xn + a / xn) >> 1; // ε_1 := | x_1 - sqrt(a) | ≤ 2**(e-4.5)  -- special case, see above\\n            xn = (xn + a / xn) >> 1; // ε_2 := | x_2 - sqrt(a) | ≤ 2**(e-9)    -- general case with k = 4.5\\n            xn = (xn + a / xn) >> 1; // ε_3 := | x_3 - sqrt(a) | ≤ 2**(e-18)   -- general case with k = 9\\n            xn = (xn + a / xn) >> 1; // ε_4 := | x_4 - sqrt(a) | ≤ 2**(e-36)   -- general case with k = 18\\n            xn = (xn + a / xn) >> 1; // ε_5 := | x_5 - sqrt(a) | ≤ 2**(e-72)   -- general case with k = 36\\n            xn = (xn + a / xn) >> 1; // ε_6 := | x_6 - sqrt(a) | ≤ 2**(e-144)  -- general case with k = 72\\n\\n            // Because e ≤ 128 (as discussed during the first estimation phase), we know have reached a precision\\n            // ε_6 ≤ 2**(e-144) < 1. Given we're operating on integers, then we can ensure that xn is now either\\n            // sqrt(a) or sqrt(a) + 1.\\n            return xn - SafeCast.toUint(xn > a / xn);\\n        }\\n    }\\n\\n    /**\\n     * @dev Calculates sqrt(a), following the selected rounding direction.\\n     */\\n    function sqrt(uint256 a, Rounding rounding) internal pure returns (uint256) {\\n        unchecked {\\n            uint256 result = sqrt(a);\\n            return result + SafeCast.toUint(unsignedRoundsUp(rounding) && result * result < a);\\n        }\\n    }\\n\\n    /**\\n     * @dev Return the log in base 2 of a positive value rounded towards zero.\\n     * Returns 0 if given 0.\\n     */\\n    function log2(uint256 value) internal pure returns (uint256) {\\n        uint256 result = 0;\\n        uint256 exp;\\n        unchecked {\\n            exp = 128 * SafeCast.toUint(value > (1 << 128) - 1);\\n            value >>= exp;\\n            result += exp;\\n\\n            exp = 64 * SafeCast.toUint(value > (1 << 64) - 1);\\n            value >>= exp;\\n            result += exp;\\n\\n            exp = 32 * SafeCast.toUint(value > (1 << 32) - 1);\\n            value >>= exp;\\n            result += exp;\\n\\n            exp = 16 * SafeCast.toUint(value > (1 << 16) - 1);\\n            value >>= exp;\\n            result += exp;\\n\\n            exp = 8 * SafeCast.toUint(value > (1 << 8) - 1);\\n            value >>= exp;\\n            result += exp;\\n\\n            exp = 4 * SafeCast.toUint(value > (1 << 4) - 1);\\n            value >>= exp;\\n            result += exp;\\n\\n            exp = 2 * SafeCast.toUint(value > (1 << 2) - 1);\\n            value >>= exp;\\n            result += exp;\\n\\n            result += SafeCast.toUint(value > 1);\\n        }\\n        return result;\\n    }\\n\\n    /**\\n     * @dev Return the log in base 2, following the selected rounding direction, of a positive value.\\n     * Returns 0 if given 0.\\n     */\\n    function log2(uint256 value, Rounding rounding) internal pure returns (uint256) {\\n        unchecked {\\n            uint256 result = log2(value);\\n            return result + SafeCast.toUint(unsignedRoundsUp(rounding) && 1 << result < value);\\n        }\\n    }\\n\\n    /**\\n     * @dev Return the log in base 10 of a positive value rounded towards zero.\\n     * Returns 0 if given 0.\\n     */\\n    function log10(uint256 value) internal pure returns (uint256) {\\n        uint256 result = 0;\\n        unchecked {\\n            if (value >= 10 ** 64) {\\n                value /= 10 ** 64;\\n                result += 64;\\n            }\\n            if (value >= 10 ** 32) {\\n                value /= 10 ** 32;\\n                result += 32;\\n            }\\n            if (value >= 10 ** 16) {\\n                value /= 10 ** 16;\\n                result += 16;\\n            }\\n            if (value >= 10 ** 8) {\\n                value /= 10 ** 8;\\n                result += 8;\\n            }\\n            if (value >= 10 ** 4) {\\n                value /= 10 ** 4;\\n                result += 4;\\n            }\\n            if (value >= 10 ** 2) {\\n                value /= 10 ** 2;\\n                result += 2;\\n            }\\n            if (value >= 10 ** 1) {\\n                result += 1;\\n            }\\n        }\\n        return result;\\n    }\\n\\n    /**\\n     * @dev Return the log in base 10, following the selected rounding direction, of a positive value.\\n     * Returns 0 if given 0.\\n     */\\n    function log10(uint256 value, Rounding rounding) internal pure returns (uint256) {\\n        unchecked {\\n            uint256 result = log10(value);\\n            return result + SafeCast.toUint(unsignedRoundsUp(rounding) && 10 ** result < value);\\n        }\\n    }\\n\\n    /**\\n     * @dev Return the log in base 256 of a positive value rounded towards zero.\\n     * Returns 0 if given 0.\\n     *\\n     * Adding one to the result gives the number of pairs of hex symbols needed to represent `value` as a hex string.\\n     */\\n    function log256(uint256 value) internal pure returns (uint256) {\\n        uint256 result = 0;\\n        uint256 isGt;\\n        unchecked {\\n            isGt = SafeCast.toUint(value > (1 << 128) - 1);\\n            value >>= isGt * 128;\\n            result += isGt * 16;\\n\\n            isGt = SafeCast.toUint(value > (1 << 64) - 1);\\n            value >>= isGt * 64;\\n            result += isGt * 8;\\n\\n            isGt = SafeCast.toUint(value > (1 << 32) - 1);\\n            value >>= isGt * 32;\\n            result += isGt * 4;\\n\\n            isGt = SafeCast.toUint(value > (1 << 16) - 1);\\n            value >>= isGt * 16;\\n            result += isGt * 2;\\n\\n            result += SafeCast.toUint(value > (1 << 8) - 1);\\n        }\\n        return result;\\n    }\\n\\n    /**\\n     * @dev Return the log in base 256, following the selected rounding direction, of a positive value.\\n     * Returns 0 if given 0.\\n     */\\n    function log256(uint256 value, Rounding rounding) internal pure returns (uint256) {\\n        unchecked {\\n            uint256 result = log256(value);\\n            return result + SafeCast.toUint(unsignedRoundsUp(rounding) && 1 << (result << 3) < value);\\n        }\\n    }\\n\\n    /**\\n     * @dev Returns whether a provided rounding mode is considered rounding up for unsigned integers.\\n     */\\n    function unsignedRoundsUp(Rounding rounding) internal pure returns (bool) {\\n        return uint8(rounding) % 2 == 1;\\n    }\\n}\\n\"},\"@openzeppelin/contracts/utils/StorageSlot.sol\":{\"content\":\"// SPDX-License-Identifier: MIT\\n// OpenZeppelin Contracts (last updated v5.1.0) (utils/StorageSlot.sol)\\n// This file was procedurally generated from scripts/generate/templates/StorageSlot.js.\\n\\npragma solidity ^0.8.20;\\n\\n/**\\n * @dev Library for reading and writing primitive types to specific storage slots.\\n *\\n * Storage slots are often used to avoid storage conflict when dealing with upgradeable contracts.\\n * This library helps with reading and writing to such slots without the need for inline assembly.\\n *\\n * The functions in this library return Slot structs that contain a `value` member that can be used to read or write.\\n *\\n * Example usage to set ERC-1967 implementation slot:\\n * ```solidity\\n * contract ERC1967 {\\n *     // Define the slot. Alternatively, use the SlotDerivation library to derive the slot.\\n *     bytes32 internal constant _IMPLEMENTATION_SLOT = 0x360894a13ba1a3210667c828492db98dca3e2076cc3735a920a3ca505d382bbc;\\n *\\n *     function _getImplementation() internal view returns (address) {\\n *         return StorageSlot.getAddressSlot(_IMPLEMENTATION_SLOT).value;\\n *     }\\n *\\n *     function _setImplementation(address newImplementation) internal {\\n *         require(newImplementation.code.length > 0);\\n *         StorageSlot.getAddressSlot(_IMPLEMENTATION_SLOT).value = newImplementation;\\n *     }\\n * }\\n * ```\\n *\\n * TIP: Consider using this library along with {SlotDerivation}.\\n */\\nlibrary StorageSlot {\\n    struct AddressSlot {\\n        address value;\\n    }\\n\\n    struct BooleanSlot {\\n        bool value;\\n    }\\n\\n    struct Bytes32Slot {\\n        bytes32 value;\\n    }\\n\\n    struct Uint256Slot {\\n        uint256 value;\\n    }\\n\\n    struct Int256Slot {\\n        int256 value;\\n    }\\n\\n    struct StringSlot {\\n        string value;\\n    }\\n\\n    struct BytesSlot {\\n        bytes value;\\n    }\\n\\n    /**\\n     * @dev Returns an `AddressSlot` with member `value` located at `slot`.\\n     */\\n    function getAddressSlot(bytes32 slot) internal pure returns (AddressSlot storage r) {\\n        assembly (\\\"memory-safe\\\") {\\n            r.slot := slot\\n        }\\n    }\\n\\n    /**\\n     * @dev Returns a `BooleanSlot` with member `value` located at `slot`.\\n     */\\n    function getBooleanSlot(bytes32 slot) internal pure returns (BooleanSlot storage r) {\\n        assembly (\\\"memory-safe\\\") {\\n            r.slot := slot\\n        }\\n    }\\n\\n    /**\\n     * @dev Returns a `Bytes32Slot` with member `value` located at `slot`.\\n     */\\n    function getBytes32Slot(bytes32 slot) internal pure returns (Bytes32Slot storage r) {\\n        assembly (\\\"memory-safe\\\") {\\n            r.slot := slot\\n        }\\n    }\\n\\n    /**\\n     * @dev Returns a `Uint256Slot` with member `value` located at `slot`.\\n     */\\n    function getUint256Slot(bytes32 slot) internal pure returns (Uint256Slot storage r) {\\n        assembly (\\\"memory-safe\\\") {\\n            r.slot := slot\\n        }\\n    }\\n\\n    /**\\n     * @dev Returns a `Int256Slot` with member `value` located at `slot`.\\n     */\\n    function getInt256Slot(bytes32 slot) internal pure returns (Int256Slot storage r) {\\n        assembly (\\\"memory-safe\\\") {\\n            r.slot := slot\\n        }\\n    }\\n\\n    /**\\n     * @dev Returns a `StringSlot` with member `value` located at `slot`.\\n     */\\n    function getStringSlot(bytes32 slot) internal pure returns (StringSlot storage r) {\\n        assembly (\\\"memory-safe\\\") {\\n            r.slot := slot\\n        }\\n    }\\n\\n    /**\\n     * @dev Returns an `StringSlot` representation of the string storage pointer `store`.\\n     */\\n    function getStringSlot(string storage store) internal pure returns (StringSlot storage r) {\\n        assembly (\\\"memory-safe\\\") {\\n            r.slot := store.slot\\n        }\\n    }\\n\\n    /**\\n     * @dev Returns a `BytesSlot` with member `value` located at `slot`.\\n     */\\n    function getBytesSlot(bytes32 slot) internal pure returns (BytesSlot storage r) {\\n        assembly (\\\"memory-safe\\\") {\\n            r.slot := slot\\n        }\\n    }\\n\\n    /**\\n     * @dev Returns an `BytesSlot` representation of the bytes storage pointer `store`.\\n     */\\n    function getBytesSlot(bytes storage store) internal pure returns (BytesSlot storage r) {\\n        assembly (\\\"memory-safe\\\") {\\n            r.slot := store.slot\\n        }\\n    }\\n}\\n\"},\"@openzeppelin/contracts/utils/SlotDerivation.sol\":{\"content\":\"// SPDX-License-Identifier: MIT\\n// OpenZeppelin Contracts (last updated v5.1.0) (utils/SlotDerivation.sol)\\n// This file was procedurally generated from scripts/generate/templates/SlotDerivation.js.\\n\\npragma solidity ^0.8.20;\\n\\n/**\\n * @dev Library for computing storage (and transient storage) locations from namespaces and deriving slots\\n * corresponding to standard patterns. The derivation method for array and mapping matches the storage layout used by\\n * the solidity language / compiler.\\n *\\n * See https://docs.soliditylang.org/en/v0.8.20/internals/layout_in_storage.html#mappings-and-dynamic-arrays[Solidity docs for mappings and dynamic arrays.].\\n *\\n * Example usage:\\n * ```solidity\\n * contract Example {\\n *     // Add the library methods\\n *     using StorageSlot for bytes32;\\n *     using SlotDerivation for bytes32;\\n *\\n *     // Declare a namespace\\n *     string private constant _NAMESPACE = \\\"<namespace>\\\" // eg. OpenZeppelin.Slot\\n *\\n *     function setValueInNamespace(uint256 key, address newValue) internal {\\n *         _NAMESPACE.erc7201Slot().deriveMapping(key).getAddressSlot().value = newValue;\\n *     }\\n *\\n *     function getValueInNamespace(uint256 key) internal view returns (address) {\\n *         return _NAMESPACE.erc7201Slot().deriveMapping(key).getAddressSlot().value;\\n *     }\\n * }\\n * ```\\n *\\n * TIP: Consider using this library along with {StorageSlot}.\\n *\\n * NOTE: This library provides a way to manipulate storage locations in a non-standard way. Tooling for checking\\n * upgrade safety will ignore the slots accessed through this library.\\n *\\n * _Available since v5.1._\\n */\\nlibrary SlotDerivation {\\n    /**\\n     * @dev Derive an ERC-7201 slot from a string (namespace).\\n     */\\n    function erc7201Slot(string memory namespace) internal pure returns (bytes32 slot) {\\n        assembly (\\\"memory-safe\\\") {\\n            mstore(0x00, sub(keccak256(add(namespace, 0x20), mload(namespace)), 1))\\n            slot := and(keccak256(0x00, 0x20), not(0xff))\\n        }\\n    }\\n\\n    /**\\n     * @dev Add an offset to a slot to get the n-th element of a structure or an array.\\n     */\\n    function offset(bytes32 slot, uint256 pos) internal pure returns (bytes32 result) {\\n        unchecked {\\n            return bytes32(uint256(slot) + pos);\\n        }\\n    }\\n\\n    /**\\n     * @dev Derive the location of the first element in an array from the slot where the length is stored.\\n     */\\n    function deriveArray(bytes32 slot) internal pure returns (bytes32 result) {\\n        assembly (\\\"memory-safe\\\") {\\n            mstore(0x00, slot)\\n            result := keccak256(0x00, 0x20)\\n        }\\n    }\\n\\n    /**\\n     * @dev Derive the location of a mapping element from the key.\\n     */\\n    function deriveMapping(bytes32 slot, address key) internal pure returns (bytes32 result) {\\n        assembly (\\\"memory-safe\\\") {\\n            mstore(0x00, and(key, shr(96, not(0))))\\n            mstore(0x20, slot)\\n            result := keccak256(0x00, 0x40)\\n        }\\n    }\\n\\n    /**\\n     * @dev Derive the location of a mapping element from the key.\\n     */\\n    function deriveMapping(bytes32 slot, bool key) internal pure returns (bytes32 result) {\\n        assembly (\\\"memory-safe\\\") {\\n            mstore(0x00, iszero(iszero(key)))\\n            mstore(0x20, slot)\\n            result := keccak256(0x00, 0x40)\\n        }\\n    }\\n\\n    /**\\n     * @dev Derive the location of a mapping element from the key.\\n     */\\n    function deriveMapping(bytes32 slot, bytes32 key) internal pure returns (bytes32 result) {\\n        assembly (\\\"memory-safe\\\") {\\n            mstore(0x00, key)\\n            mstore(0x20, slot)\\n            result := keccak256(0x00, 0x40)\\n        }\\n    }\\n\\n    /**\\n     * @dev Derive the location of a mapping element from the key.\\n     */\\n    function deriveMapping(bytes32 slot, uint256 key) internal pure returns (bytes32 result) {\\n        assembly (\\\"memory-safe\\\") {\\n            mstore(0x00, key)\\n            mstore(0x20, slot)\\n            result := keccak256(0x00, 0x40)\\n        }\\n    }\\n\\n    /**\\n     * @dev Derive the location of a mapping element from the key.\\n     */\\n    function deriveMapping(bytes32 slot, int256 key) internal pure returns (bytes32 result) {\\n        assembly (\\\"memory-safe\\\") {\\n            mstore(0x00, key)\\n            mstore(0x20, slot)\\n            result := keccak256(0x00, 0x40)\\n        }\\n    }\\n\\n    /**\\n     * @dev Derive the location of a mapping element from the key.\\n     */\\n    function deriveMapping(bytes32 slot, string memory key) internal pure returns (bytes32 result) {\\n        assembly (\\\"memory-safe\\\") {\\n            let length := mload(key)\\n            let begin := add(key, 0x20)\\n            let end := add(begin, length)\\n            let cache := mload(end)\\n            mstore(end, slot)\\n            result := keccak256(begin, add(length, 0x20))\\n            mstore(end, cache)\\n        }\\n    }\\n\\n    /**\\n     * @dev Derive the location of a mapping element from the key.\\n     */\\n    function deriveMapping(bytes32 slot, bytes memory key) internal pure returns (bytes32 result) {\\n        assembly (\\\"memory-safe\\\") {\\n            let length := mload(key)\\n            let begin := add(key, 0x20)\\n            let end := add(begin, length)\\n            let cache := mload(end)\\n            mstore(end, slot)\\n            result := keccak256(begin, add(length, 0x20))\\n            mstore(end, cache)\\n        }\\n    }\\n}\\n\"},\"@openzeppelin/contracts/utils/Comparators.sol\":{\"content\":\"// SPDX-License-Identifier: MIT\\n// OpenZeppelin Contracts (last updated v5.1.0) (utils/Comparators.sol)\\n\\npragma solidity ^0.8.20;\\n\\n/**\\n * @dev Provides a set of functions to compare values.\\n *\\n * _Available since v5.1._\\n */\\nlibrary Comparators {\\n    function lt(uint256 a, uint256 b) internal pure returns (bool) {\\n        return a < b;\\n    }\\n\\n    function gt(uint256 a, uint256 b) internal pure returns (bool) {\\n        return a > b;\\n    }\\n}\\n\"},\"@openzeppelin/contracts/token/ERC1155/IERC1155Receiver.sol\":{\"content\":\"// SPDX-License-Identifier: MIT\\n// OpenZeppelin Contracts (last updated v5.1.0) (token/ERC1155/IERC1155Receiver.sol)\\n\\npragma solidity ^0.8.20;\\n\\nimport {IERC165} from \\\"../../utils/introspection/IERC165.sol\\\";\\n\\n/**\\n * @dev Interface that must be implemented by smart contracts in order to receive\\n * ERC-1155 token transfers.\\n */\\ninterface IERC1155Receiver is IERC165 {\\n    /**\\n     * @dev Handles the receipt of a single ERC-1155 token type. This function is\\n     * called at the end of a `safeTransferFrom` after the balance has been updated.\\n     *\\n     * NOTE: To accept the transfer, this must return\\n     * `bytes4(keccak256(\\\"onERC1155Received(address,address,uint256,uint256,bytes)\\\"))`\\n     * (i.e. 0xf23a6e61, or its own function selector).\\n     *\\n     * @param operator The address which initiated the transfer (i.e. msg.sender)\\n     * @param from The address which previously owned the token\\n     * @param id The ID of the token being transferred\\n     * @param value The amount of tokens being transferred\\n     * @param data Additional data with no specified format\\n     * @return `bytes4(keccak256(\\\"onERC1155Received(address,address,uint256,uint256,bytes)\\\"))` if transfer is allowed\\n     */\\n    function onERC1155Received(\\n        address operator,\\n        address from,\\n        uint256 id,\\n        uint256 value,\\n        bytes calldata data\\n    ) external returns (bytes4);\\n\\n    /**\\n     * @dev Handles the receipt of a multiple ERC-1155 token types. This function\\n     * is called at the end of a `safeBatchTransferFrom` after the balances have\\n     * been updated.\\n     *\\n     * NOTE: To accept the transfer(s), this must return\\n     * `bytes4(keccak256(\\\"onERC1155BatchReceived(address,address,uint256[],uint256[],bytes)\\\"))`\\n     * (i.e. 0xbc197c81, or its own function selector).\\n     *\\n     * @param operator The address which initiated the batch transfer (i.e. msg.sender)\\n     * @param from The address which previously owned the token\\n     * @param ids An array containing ids of each token being transferred (order and length must match values array)\\n     * @param values An array containing amounts of each token being transferred (order and length must match ids array)\\n     * @param data Additional data with no specified format\\n     * @return `bytes4(keccak256(\\\"onERC1155BatchReceived(address,address,uint256[],uint256[],bytes)\\\"))` if transfer is allowed\\n     */\\n    function onERC1155BatchReceived(\\n        address operator,\\n        address from,\\n        uint256[] calldata ids,\\n        uint256[] calldata values,\\n        bytes calldata data\\n    ) external returns (bytes4);\\n}\\n\"},\"@openzeppelin/contracts-upgradeable/proxy/utils/Initializable.sol\":{\"content\":\"// SPDX-License-Identifier: MIT\\n// OpenZeppelin Contracts (last updated v5.0.0) (proxy/utils/Initializable.sol)\\n\\npragma solidity ^0.8.20;\\n\\n/**\\n * @dev This is a base contract to aid in writing upgradeable contracts, or any kind of contract that will be deployed\\n * behind a proxy. Since proxied contracts do not make use of a constructor, it's common to move constructor logic to an\\n * external initializer function, usually called `initialize`. It then becomes necessary to protect this initializer\\n * function so it can only be called once. The {initializer} modifier provided by this contract will have this effect.\\n *\\n * The initialization functions use a version number. Once a version number is used, it is consumed and cannot be\\n * reused. This mechanism prevents re-execution of each \\\"step\\\" but allows the creation of new initialization steps in\\n * case an upgrade adds a module that needs to be initialized.\\n *\\n * For example:\\n *\\n * [.hljs-theme-light.nopadding]\\n * ```solidity\\n * contract MyToken is ERC20Upgradeable {\\n *     function initialize() initializer public {\\n *         __ERC20_init(\\\"MyToken\\\", \\\"MTK\\\");\\n *     }\\n * }\\n *\\n * contract MyTokenV2 is MyToken, ERC20PermitUpgradeable {\\n *     function initializeV2() reinitializer(2) public {\\n *         __ERC20Permit_init(\\\"MyToken\\\");\\n *     }\\n * }\\n * ```\\n *\\n * TIP: To avoid leaving the proxy in an uninitialized state, the initializer function should be called as early as\\n * possible by providing the encoded function call as the `_data` argument to {ERC1967Proxy-constructor}.\\n *\\n * CAUTION: When used with inheritance, manual care must be taken to not invoke a parent initializer twice, or to ensure\\n * that all initializers are idempotent. This is not verified automatically as constructors are by Solidity.\\n *\\n * [CAUTION]\\n * ====\\n * Avoid leaving a contract uninitialized.\\n *\\n * An uninitialized contract can be taken over by an attacker. This applies to both a proxy and its implementation\\n * contract, which may impact the proxy. To prevent the implementation contract from being used, you should invoke\\n * the {_disableInitializers} function in the constructor to automatically lock it when it is deployed:\\n *\\n * [.hljs-theme-light.nopadding]\\n * ```\\n * /// @custom:oz-upgrades-unsafe-allow constructor\\n * constructor() {\\n *     _disableInitializers();\\n * }\\n * ```\\n * ====\\n */\\nabstract contract Initializable {\\n    /**\\n     * @dev Storage of the initializable contract.\\n     *\\n     * It's implemented on a custom ERC-7201 namespace to reduce the risk of storage collisions\\n     * when using with upgradeable contracts.\\n     *\\n     * @custom:storage-location erc7201:openzeppelin.storage.Initializable\\n     */\\n    struct InitializableStorage {\\n        /**\\n         * @dev Indicates that the contract has been initialized.\\n         */\\n        uint64 _initialized;\\n        /**\\n         * @dev Indicates that the contract is in the process of being initialized.\\n         */\\n        bool _initializing;\\n    }\\n\\n    // keccak256(abi.encode(uint256(keccak256(\\\"openzeppelin.storage.Initializable\\\")) - 1)) & ~bytes32(uint256(0xff))\\n    bytes32 private constant INITIALIZABLE_STORAGE = 0xf0c57e16840df040f15088dc2f81fe391c3923bec73e23a9662efc9c229c6a00;\\n\\n    /**\\n     * @dev The contract is already initialized.\\n     */\\n    error InvalidInitialization();\\n\\n    /**\\n     * @dev The contract is not initializing.\\n     */\\n    error NotInitializing();\\n\\n    /**\\n     * @dev Triggered when the contract has been initialized or reinitialized.\\n     */\\n    event Initialized(uint64 version);\\n\\n    /**\\n     * @dev A modifier that defines a protected initializer function that can be invoked at most once. In its scope,\\n     * `onlyInitializing` functions can be used to initialize parent contracts.\\n     *\\n     * Similar to `reinitializer(1)`, except that in the context of a constructor an `initializer` may be invoked any\\n     * number of times. This behavior in the constructor can be useful during testing and is not expected to be used in\\n     * production.\\n     *\\n     * Emits an {Initialized} event.\\n     */\\n    modifier initializer() {\\n        // solhint-disable-next-line var-name-mixedcase\\n        InitializableStorage storage $ = _getInitializableStorage();\\n\\n        // Cache values to avoid duplicated sloads\\n        bool isTopLevelCall = !$._initializing;\\n        uint64 initialized = $._initialized;\\n\\n        // Allowed calls:\\n        // - initialSetup: the contract is not in the initializing state and no previous version was\\n        //                 initialized\\n        // - construction: the contract is initialized at version 1 (no reininitialization) and the\\n        //                 current contract is just being deployed\\n        bool initialSetup = initialized == 0 && isTopLevelCall;\\n        bool construction = initialized == 1 && address(this).code.length == 0;\\n\\n        if (!initialSetup && !construction) {\\n            revert InvalidInitialization();\\n        }\\n        $._initialized = 1;\\n        if (isTopLevelCall) {\\n            $._initializing = true;\\n        }\\n        _;\\n        if (isTopLevelCall) {\\n            $._initializing = false;\\n            emit Initialized(1);\\n        }\\n    }\\n\\n    /**\\n     * @dev A modifier that defines a protected reinitializer function that can be invoked at most once, and only if the\\n     * contract hasn't been initialized to a greater version before. In its scope, `onlyInitializing` functions can be\\n     * used to initialize parent contracts.\\n     *\\n     * A reinitializer may be used after the original initialization step. This is essential to configure modules that\\n     * are added through upgrades and that require initialization.\\n     *\\n     * When `version` is 1, this modifier is similar to `initializer`, except that functions marked with `reinitializer`\\n     * cannot be nested. If one is invoked in the context of another, execution will revert.\\n     *\\n     * Note that versions can jump in increments greater than 1; this implies that if multiple reinitializers coexist in\\n     * a contract, executing them in the right order is up to the developer or operator.\\n     *\\n     * WARNING: Setting the version to 2**64 - 1 will prevent any future reinitialization.\\n     *\\n     * Emits an {Initialized} event.\\n     */\\n    modifier reinitializer(uint64 version) {\\n        // solhint-disable-next-line var-name-mixedcase\\n        InitializableStorage storage $ = _getInitializableStorage();\\n\\n        if ($._initializing || $._initialized >= version) {\\n            revert InvalidInitialization();\\n        }\\n        $._initialized = version;\\n        $._initializing = true;\\n        _;\\n        $._initializing = false;\\n        emit Initialized(version);\\n    }\\n\\n    /**\\n     * @dev Modifier to protect an initialization function so that it can only be invoked by functions with the\\n     * {initializer} and {reinitializer} modifiers, directly or indirectly.\\n     */\\n    modifier onlyInitializing() {\\n        _checkInitializing();\\n        _;\\n    }\\n\\n    /**\\n     * @dev Reverts if the contract is not in an initializing state. See {onlyInitializing}.\\n     */\\n    function _checkInitializing() internal view virtual {\\n        if (!_isInitializing()) {\\n            revert NotInitializing();\\n        }\\n    }\\n\\n    /**\\n     * @dev Locks the contract, preventing any future reinitialization. This cannot be part of an initializer call.\\n     * Calling this in the constructor of a contract will prevent that contract from being initialized or reinitialized\\n     * to any version. It is recommended to use this to lock implementation contracts that are designed to be called\\n     * through proxies.\\n     *\\n     * Emits an {Initialized} event the first time it is successfully executed.\\n     */\\n    function _disableInitializers() internal virtual {\\n        // solhint-disable-next-line var-name-mixedcase\\n        InitializableStorage storage $ = _getInitializableStorage();\\n\\n        if ($._initializing) {\\n            revert InvalidInitialization();\\n        }\\n        if ($._initialized != type(uint64).max) {\\n            $._initialized = type(uint64).max;\\n            emit Initialized(type(uint64).max);\\n        }\\n    }\\n\\n    /**\\n     * @dev Returns the highest version that has been initialized. See {reinitializer}.\\n     */\\n    function _getInitializedVersion() internal view returns (uint64) {\\n        return _getInitializableStorage()._initialized;\\n    }\\n\\n    /**\\n     * @dev Returns `true` if the contract is currently initializing. See {onlyInitializing}.\\n     */\\n    function _isInitializing() internal view returns (bool) {\\n        return _getInitializableStorage()._initializing;\\n    }\\n\\n    /**\\n     * @dev Returns a pointer to the storage namespace.\\n     */\\n    // solhint-disable-next-line var-name-mixedcase\\n    function _getInitializableStorage() private pure returns (InitializableStorage storage $) {\\n        assembly {\\n            $.slot := INITIALIZABLE_STORAGE\\n        }\\n    }\\n}\\n\"},\"@openzeppelin/contracts-upgradeable/access/OwnableUpgradeable.sol\":{\"content\":\"// SPDX-License-Identifier: MIT\\n// OpenZeppelin Contracts (last updated v5.0.0) (access/Ownable.sol)\\n\\npragma solidity ^0.8.20;\\n\\nimport {ContextUpgradeable} from \\\"../utils/ContextUpgradeable.sol\\\";\\nimport {Initializable} from \\\"../proxy/utils/Initializable.sol\\\";\\n\\n/**\\n * @dev Contract module which provides a basic access control mechanism, where\\n * there is an account (an owner) that can be granted exclusive access to\\n * specific functions.\\n *\\n * The initial owner is set to the address provided by the deployer. This can\\n * later be changed with {transferOwnership}.\\n *\\n * This module is used through inheritance. It will make available the modifier\\n * `onlyOwner`, which can be applied to your functions to restrict their use to\\n * the owner.\\n */\\nabstract contract OwnableUpgradeable is Initializable, ContextUpgradeable {\\n    /// @custom:storage-location erc7201:openzeppelin.storage.Ownable\\n    struct OwnableStorage {\\n        address _owner;\\n    }\\n\\n    // keccak256(abi.encode(uint256(keccak256(\\\"openzeppelin.storage.Ownable\\\")) - 1)) & ~bytes32(uint256(0xff))\\n    bytes32 private constant OwnableStorageLocation = 0x9016d09d72d40fdae2fd8ceac6b6234c7706214fd39c1cd1e609a0528c199300;\\n\\n    function _getOwnableStorage() private pure returns (OwnableStorage storage $) {\\n        assembly {\\n            $.slot := OwnableStorageLocation\\n        }\\n    }\\n\\n    /**\\n     * @dev The caller account is not authorized to perform an operation.\\n     */\\n    error OwnableUnauthorizedAccount(address account);\\n\\n    /**\\n     * @dev The owner is not a valid owner account. (eg. `address(0)`)\\n     */\\n    error OwnableInvalidOwner(address owner);\\n\\n    event OwnershipTransferred(address indexed previousOwner, address indexed newOwner);\\n\\n    /**\\n     * @dev Initializes the contract setting the address provided by the deployer as the initial owner.\\n     */\\n    function __Ownable_init(address initialOwner) internal onlyInitializing {\\n        __Ownable_init_unchained(initialOwner);\\n    }\\n\\n    function __Ownable_init_unchained(address initialOwner) internal onlyInitializing {\\n        if (initialOwner == address(0)) {\\n            revert OwnableInvalidOwner(address(0));\\n        }\\n        _transferOwnership(initialOwner);\\n    }\\n\\n    /**\\n     * @dev Throws if called by any account other than the owner.\\n     */\\n    modifier onlyOwner() {\\n        _checkOwner();\\n        _;\\n    }\\n\\n    /**\\n     * @dev Returns the address of the current owner.\\n     */\\n    function owner() public view virtual returns (address) {\\n        OwnableStorage storage $ = _getOwnableStorage();\\n        return $._owner;\\n    }\\n\\n    /**\\n     * @dev Throws if the sender is not the owner.\\n     */\\n    function _checkOwner() internal view virtual {\\n        if (owner() != _msgSender()) {\\n            revert OwnableUnauthorizedAccount(_msgSender());\\n        }\\n    }\\n\\n    /**\\n     * @dev Leaves the contract without owner. It will not be possible to call\\n     * `onlyOwner` functions. Can only be called by the current owner.\\n     *\\n     * NOTE: Renouncing ownership will leave the contract without an owner,\\n     * thereby disabling any functionality that is only available to the owner.\\n     */\\n    function renounceOwnership() public virtual onlyOwner {\\n        _transferOwnership(address(0));\\n    }\\n\\n    /**\\n     * @dev Transfers ownership of the contract to a new account (`newOwner`).\\n     * Can only be called by the current owner.\\n     */\\n    function transferOwnership(address newOwner) public virtual onlyOwner {\\n        if (newOwner == address(0)) {\\n            revert OwnableInvalidOwner(address(0));\\n        }\\n        _transferOwnership(newOwner);\\n    }\\n\\n    /**\\n     * @dev Transfers ownership of the contract to a new account (`newOwner`).\\n     * Internal function without access restriction.\\n     */\\n    function _transferOwnership(address newOwner) internal virtual {\\n        OwnableStorage storage $ = _getOwnableStorage();\\n        address oldOwner = $._owner;\\n        $._owner = newOwner;\\n        emit OwnershipTransferred(oldOwner, newOwner);\\n    }\\n}\\n\"},\"@iden3/contracts/lib/VerifierLib.sol\":{\"content\":\"// SPDX-License-Identifier: GPL-3.0\\npragma solidity 0.8.27;\\n\\nimport {ZKPVerifierBase} from \\\"../verifiers/ZKPVerifierBase.sol\\\";\\nimport {ICircuitValidator} from \\\"../interfaces/ICircuitValidator.sol\\\";\\n\\n/**\\n * @title VerifierLib\\n * @dev A library for writing proof results.\\n */\\nlibrary VerifierLib {\\n    /// @dev Struct to store ZKP proof and associated data\\n    struct Proof {\\n        bool isVerified;\\n        mapping(string key => uint256 inputValue) storageFields;\\n        string validatorVersion;\\n        uint256 blockNumber;\\n        uint256 blockTimestamp;\\n        mapping(string key => bytes) metadata;\\n    }\\n\\n    /**\\n     * @dev Writes proof results.\\n     * @param self The ZKPVerifierStorage storage pointer\\n     * @param sender The sender of the proof\\n     * @param requestId The request ID\\n     * @param keyToInpIdxs The array of key to public inputs index mapping\\n     * @param inputs The array of public inputs\\n     */\\n    function writeProofResults(\\n        ZKPVerifierBase.ZKPVerifierStorage storage self,\\n        address sender,\\n        uint64 requestId,\\n        ICircuitValidator.KeyToInputIndex[] memory keyToInpIdxs,\\n        uint256[] memory inputs\\n    ) public {\\n        Proof storage proof = self._proofs[sender][requestId];\\n        for (uint256 i = 0; i < keyToInpIdxs.length; i++) {\\n            proof.storageFields[keyToInpIdxs[i].key] = inputs[keyToInpIdxs[i].inputIndex];\\n        }\\n\\n        proof.isVerified = true;\\n        proof.validatorVersion = self._requests[requestId].validator.version();\\n        proof.blockNumber = block.number;\\n        proof.blockTimestamp = block.timestamp;\\n    }\\n\\n    /**\\n     * @dev Writes proof results.\\n     * @param self The ZKPVerifierStorage storage pointer\\n     * @param sender The sender of the proof\\n     * @param requestId The request ID of the proof\\n     * @param signals The array of public signals of the proof\\n     */\\n    function writeProofResultsV2(\\n        ZKPVerifierBase.ZKPVerifierStorage storage self,\\n        address sender,\\n        uint64 requestId,\\n        ICircuitValidator.Signal[] memory signals\\n    ) public {\\n        Proof storage proof = self._proofs[sender][requestId];\\n        for (uint256 i = 0; i < signals.length; i++) {\\n            proof.storageFields[signals[i].name] = signals[i].value;\\n        }\\n\\n        proof.isVerified = true;\\n        proof.validatorVersion = self._requests[requestId].validator.version();\\n        proof.blockNumber = block.number;\\n        proof.blockTimestamp = block.timestamp;\\n    }\\n}\\n\"},\"@openzeppelin/contracts-upgradeable/utils/ContextUpgradeable.sol\":{\"content\":\"// SPDX-License-Identifier: MIT\\n// OpenZeppelin Contracts (last updated v5.0.1) (utils/Context.sol)\\n\\npragma solidity ^0.8.20;\\nimport {Initializable} from \\\"../proxy/utils/Initializable.sol\\\";\\n\\n/**\\n * @dev Provides information about the current execution context, including the\\n * sender of the transaction and its data. While these are generally available\\n * via msg.sender and msg.data, they should not be accessed in such a direct\\n * manner, since when dealing with meta-transactions the account sending and\\n * paying for execution may not be the actual sender (as far as an application\\n * is concerned).\\n *\\n * This contract is only required for intermediate, library-like contracts.\\n */\\nabstract contract ContextUpgradeable is Initializable {\\n    function __Context_init() internal onlyInitializing {\\n    }\\n\\n    function __Context_init_unchained() internal onlyInitializing {\\n    }\\n    function _msgSender() internal view virtual returns (address) {\\n        return msg.sender;\\n    }\\n\\n    function _msgData() internal view virtual returns (bytes calldata) {\\n        return msg.data;\\n    }\\n\\n    function _contextSuffixLength() internal view virtual returns (uint256) {\\n        return 0;\\n    }\\n}\\n\"},\"@iden3/contracts/lib/ArrayUtils.sol\":{\"content\":\"// SPDX-License-Identifier: GPL-3.0\\npragma solidity 0.8.27;\\n\\n/// @title A common functions for arrays.\\nlibrary ArrayUtils {\\n    /**\\n     * @dev Calculates bounds for the slice of the array.\\n     * @param arrLength An array length.\\n     * @param start A start index.\\n     * @param length A length of the slice.\\n     * @param limit A limit for the length.\\n     * @return The bounds for the slice of the array.\\n     */\\n    function calculateBounds(\\n        uint256 arrLength,\\n        uint256 start,\\n        uint256 length,\\n        uint256 limit\\n    ) internal pure returns (uint256, uint256) {\\n        require(length > 0, \\\"Length should be greater than 0\\\");\\n        require(length <= limit, \\\"Length limit exceeded\\\");\\n        require(start < arrLength, \\\"Start index out of bounds\\\");\\n\\n        uint256 end = start + length;\\n        if (end > arrLength) {\\n            end = arrLength;\\n        }\\n\\n        return (start, end);\\n    }\\n}\\n\"},\"@openzeppelin/contracts/utils/math/SafeCast.sol\":{\"content\":\"// SPDX-License-Identifier: MIT\\n// OpenZeppelin Contracts (last updated v5.1.0) (utils/math/SafeCast.sol)\\n// This file was procedurally generated from scripts/generate/templates/SafeCast.js.\\n\\npragma solidity ^0.8.20;\\n\\n/**\\n * @dev Wrappers over Solidity's uintXX/intXX/bool casting operators with added overflow\\n * checks.\\n *\\n * Downcasting from uint256/int256 in Solidity does not revert on overflow. This can\\n * easily result in undesired exploitation or bugs, since developers usually\\n * assume that overflows raise errors. `SafeCast` restores this intuition by\\n * reverting the transaction when such an operation overflows.\\n *\\n * Using this library instead of the unchecked operations eliminates an entire\\n * class of bugs, so it's recommended to use it always.\\n */\\nlibrary SafeCast {\\n    /**\\n     * @dev Value doesn't fit in an uint of `bits` size.\\n     */\\n    error SafeCastOverflowedUintDowncast(uint8 bits, uint256 value);\\n\\n    /**\\n     * @dev An int value doesn't fit in an uint of `bits` size.\\n     */\\n    error SafeCastOverflowedIntToUint(int256 value);\\n\\n    /**\\n     * @dev Value doesn't fit in an int of `bits` size.\\n     */\\n    error SafeCastOverflowedIntDowncast(uint8 bits, int256 value);\\n\\n    /**\\n     * @dev An uint value doesn't fit in an int of `bits` size.\\n     */\\n    error SafeCastOverflowedUintToInt(uint256 value);\\n\\n    /**\\n     * @dev Returns the downcasted uint248 from uint256, reverting on\\n     * overflow (when the input is greater than largest uint248).\\n     *\\n     * Counterpart to Solidity's `uint248` operator.\\n     *\\n     * Requirements:\\n     *\\n     * - input must fit into 248 bits\\n     */\\n    function toUint248(uint256 value) internal pure returns (uint248) {\\n        if (value > type(uint248).max) {\\n            revert SafeCastOverflowedUintDowncast(248, value);\\n        }\\n        return uint248(value);\\n    }\\n\\n    /**\\n     * @dev Returns the downcasted uint240 from uint256, reverting on\\n     * overflow (when the input is greater than largest uint240).\\n     *\\n     * Counterpart to Solidity's `uint240` operator.\\n     *\\n     * Requirements:\\n     *\\n     * - input must fit into 240 bits\\n     */\\n    function toUint240(uint256 value) internal pure returns (uint240) {\\n        if (value > type(uint240).max) {\\n            revert SafeCastOverflowedUintDowncast(240, value);\\n        }\\n        return uint240(value);\\n    }\\n\\n    /**\\n     * @dev Returns the downcasted uint232 from uint256, reverting on\\n     * overflow (when the input is greater than largest uint232).\\n     *\\n     * Counterpart to Solidity's `uint232` operator.\\n     *\\n     * Requirements:\\n     *\\n     * - input must fit into 232 bits\\n     */\\n    function toUint232(uint256 value) internal pure returns (uint232) {\\n        if (value > type(uint232).max) {\\n            revert SafeCastOverflowedUintDowncast(232, value);\\n        }\\n        return uint232(value);\\n    }\\n\\n    /**\\n     * @dev Returns the downcasted uint224 from uint256, reverting on\\n     * overflow (when the input is greater than largest uint224).\\n     *\\n     * Counterpart to Solidity's `uint224` operator.\\n     *\\n     * Requirements:\\n     *\\n     * - input must fit into 224 bits\\n     */\\n    function toUint224(uint256 value) internal pure returns (uint224) {\\n        if (value > type(uint224).max) {\\n            revert SafeCastOverflowedUintDowncast(224, value);\\n        }\\n        return uint224(value);\\n    }\\n\\n    /**\\n     * @dev Returns the downcasted uint216 from uint256, reverting on\\n     * overflow (when the input is greater than largest uint216).\\n     *\\n     * Counterpart to Solidity's `uint216` operator.\\n     *\\n     * Requirements:\\n     *\\n     * - input must fit into 216 bits\\n     */\\n    function toUint216(uint256 value) internal pure returns (uint216) {\\n        if (value > type(uint216).max) {\\n            revert SafeCastOverflowedUintDowncast(216, value);\\n        }\\n        return uint216(value);\\n    }\\n\\n    /**\\n     * @dev Returns the downcasted uint208 from uint256, reverting on\\n     * overflow (when the input is greater than largest uint208).\\n     *\\n     * Counterpart to Solidity's `uint208` operator.\\n     *\\n     * Requirements:\\n     *\\n     * - input must fit into 208 bits\\n     */\\n    function toUint208(uint256 value) internal pure returns (uint208) {\\n        if (value > type(uint208).max) {\\n            revert SafeCastOverflowedUintDowncast(208, value);\\n        }\\n        return uint208(value);\\n    }\\n\\n    /**\\n     * @dev Returns the downcasted uint200 from uint256, reverting on\\n     * overflow (when the input is greater than largest uint200).\\n     *\\n     * Counterpart to Solidity's `uint200` operator.\\n     *\\n     * Requirements:\\n     *\\n     * - input must fit into 200 bits\\n     */\\n    function toUint200(uint256 value) internal pure returns (uint200) {\\n        if (value > type(uint200).max) {\\n            revert SafeCastOverflowedUintDowncast(200, value);\\n        }\\n        return uint200(value);\\n    }\\n\\n    /**\\n     * @dev Returns the downcasted uint192 from uint256, reverting on\\n     * overflow (when the input is greater than largest uint192).\\n     *\\n     * Counterpart to Solidity's `uint192` operator.\\n     *\\n     * Requirements:\\n     *\\n     * - input must fit into 192 bits\\n     */\\n    function toUint192(uint256 value) internal pure returns (uint192) {\\n        if (value > type(uint192).max) {\\n            revert SafeCastOverflowedUintDowncast(192, value);\\n        }\\n        return uint192(value);\\n    }\\n\\n    /**\\n     * @dev Returns the downcasted uint184 from uint256, reverting on\\n     * overflow (when the input is greater than largest uint184).\\n     *\\n     * Counterpart to Solidity's `uint184` operator.\\n     *\\n     * Requirements:\\n     *\\n     * - input must fit into 184 bits\\n     */\\n    function toUint184(uint256 value) internal pure returns (uint184) {\\n        if (value > type(uint184).max) {\\n            revert SafeCastOverflowedUintDowncast(184, value);\\n        }\\n        return uint184(value);\\n    }\\n\\n    /**\\n     * @dev Returns the downcasted uint176 from uint256, reverting on\\n     * overflow (when the input is greater than largest uint176).\\n     *\\n     * Counterpart to Solidity's `uint176` operator.\\n     *\\n     * Requirements:\\n     *\\n     * - input must fit into 176 bits\\n     */\\n    function toUint176(uint256 value) internal pure returns (uint176) {\\n        if (value > type(uint176).max) {\\n            revert SafeCastOverflowedUintDowncast(176, value);\\n        }\\n        return uint176(value);\\n    }\\n\\n    /**\\n     * @dev Returns the downcasted uint168 from uint256, reverting on\\n     * overflow (when the input is greater than largest uint168).\\n     *\\n     * Counterpart to Solidity's `uint168` operator.\\n     *\\n     * Requirements:\\n     *\\n     * - input must fit into 168 bits\\n     */\\n    function toUint168(uint256 value) internal pure returns (uint168) {\\n        if (value > type(uint168).max) {\\n            revert SafeCastOverflowedUintDowncast(168, value);\\n        }\\n        return uint168(value);\\n    }\\n\\n    /**\\n     * @dev Returns the downcasted uint160 from uint256, reverting on\\n     * overflow (when the input is greater than largest uint160).\\n     *\\n     * Counterpart to Solidity's `uint160` operator.\\n     *\\n     * Requirements:\\n     *\\n     * - input must fit into 160 bits\\n     */\\n    function toUint160(uint256 value) internal pure returns (uint160) {\\n        if (value > type(uint160).max) {\\n            revert SafeCastOverflowedUintDowncast(160, value);\\n        }\\n        return uint160(value);\\n    }\\n\\n    /**\\n     * @dev Returns the downcasted uint152 from uint256, reverting on\\n     * overflow (when the input is greater than largest uint152).\\n     *\\n     * Counterpart to Solidity's `uint152` operator.\\n     *\\n     * Requirements:\\n     *\\n     * - input must fit into 152 bits\\n     */\\n    function toUint152(uint256 value) internal pure returns (uint152) {\\n        if (value > type(uint152).max) {\\n            revert SafeCastOverflowedUintDowncast(152, value);\\n        }\\n        return uint152(value);\\n    }\\n\\n    /**\\n     * @dev Returns the downcasted uint144 from uint256, reverting on\\n     * overflow (when the input is greater than largest uint144).\\n     *\\n     * Counterpart to Solidity's `uint144` operator.\\n     *\\n     * Requirements:\\n     *\\n     * - input must fit into 144 bits\\n     */\\n    function toUint144(uint256 value) internal pure returns (uint144) {\\n        if (value > type(uint144).max) {\\n            revert SafeCastOverflowedUintDowncast(144, value);\\n        }\\n        return uint144(value);\\n    }\\n\\n    /**\\n     * @dev Returns the downcasted uint136 from uint256, reverting on\\n     * overflow (when the input is greater than largest uint136).\\n     *\\n     * Counterpart to Solidity's `uint136` operator.\\n     *\\n     * Requirements:\\n     *\\n     * - input must fit into 136 bits\\n     */\\n    function toUint136(uint256 value) internal pure returns (uint136) {\\n        if (value > type(uint136).max) {\\n            revert SafeCastOverflowedUintDowncast(136, value);\\n        }\\n        return uint136(value);\\n    }\\n\\n    /**\\n     * @dev Returns the downcasted uint128 from uint256, reverting on\\n     * overflow (when the input is greater than largest uint128).\\n     *\\n     * Counterpart to Solidity's `uint128` operator.\\n     *\\n     * Requirements:\\n     *\\n     * - input must fit into 128 bits\\n     */\\n    function toUint128(uint256 value) internal pure returns (uint128) {\\n        if (value > type(uint128).max) {\\n            revert SafeCastOverflowedUintDowncast(128, value);\\n        }\\n        return uint128(value);\\n    }\\n\\n    /**\\n     * @dev Returns the downcasted uint120 from uint256, reverting on\\n     * overflow (when the input is greater than largest uint120).\\n     *\\n     * Counterpart to Solidity's `uint120` operator.\\n     *\\n     * Requirements:\\n     *\\n     * - input must fit into 120 bits\\n     */\\n    function toUint120(uint256 value) internal pure returns (uint120) {\\n        if (value > type(uint120).max) {\\n            revert SafeCastOverflowedUintDowncast(120, value);\\n        }\\n        return uint120(value);\\n    }\\n\\n    /**\\n     * @dev Returns the downcasted uint112 from uint256, reverting on\\n     * overflow (when the input is greater than largest uint112).\\n     *\\n     * Counterpart to Solidity's `uint112` operator.\\n     *\\n     * Requirements:\\n     *\\n     * - input must fit into 112 bits\\n     */\\n    function toUint112(uint256 value) internal pure returns (uint112) {\\n        if (value > type(uint112).max) {\\n            revert SafeCastOverflowedUintDowncast(112, value);\\n        }\\n        return uint112(value);\\n    }\\n\\n    /**\\n     * @dev Returns the downcasted uint104 from uint256, reverting on\\n     * overflow (when the input is greater than largest uint104).\\n     *\\n     * Counterpart to Solidity's `uint104` operator.\\n     *\\n     * Requirements:\\n     *\\n     * - input must fit into 104 bits\\n     */\\n    function toUint104(uint256 value) internal pure returns (uint104) {\\n        if (value > type(uint104).max) {\\n            revert SafeCastOverflowedUintDowncast(104, value);\\n        }\\n        return uint104(value);\\n    }\\n\\n    /**\\n     * @dev Returns the downcasted uint96 from uint256, reverting on\\n     * overflow (when the input is greater than largest uint96).\\n     *\\n     * Counterpart to Solidity's `uint96` operator.\\n     *\\n     * Requirements:\\n     *\\n     * - input must fit into 96 bits\\n     */\\n    function toUint96(uint256 value) internal pure returns (uint96) {\\n        if (value > type(uint96).max) {\\n            revert SafeCastOverflowedUintDowncast(96, value);\\n        }\\n        return uint96(value);\\n    }\\n\\n    /**\\n     * @dev Returns the downcasted uint88 from uint256, reverting on\\n     * overflow (when the input is greater than largest uint88).\\n     *\\n     * Counterpart to Solidity's `uint88` operator.\\n     *\\n     * Requirements:\\n     *\\n     * - input must fit into 88 bits\\n     */\\n    function toUint88(uint256 value) internal pure returns (uint88) {\\n        if (value > type(uint88).max) {\\n            revert SafeCastOverflowedUintDowncast(88, value);\\n        }\\n        return uint88(value);\\n    }\\n\\n    /**\\n     * @dev Returns the downcasted uint80 from uint256, reverting on\\n     * overflow (when the input is greater than largest uint80).\\n     *\\n     * Counterpart to Solidity's `uint80` operator.\\n     *\\n     * Requirements:\\n     *\\n     * - input must fit into 80 bits\\n     */\\n    function toUint80(uint256 value) internal pure returns (uint80) {\\n        if (value > type(uint80).max) {\\n            revert SafeCastOverflowedUintDowncast(80, value);\\n        }\\n        return uint80(value);\\n    }\\n\\n    /**\\n     * @dev Returns the downcasted uint72 from uint256, reverting on\\n     * overflow (when the input is greater than largest uint72).\\n     *\\n     * Counterpart to Solidity's `uint72` operator.\\n     *\\n     * Requirements:\\n     *\\n     * - input must fit into 72 bits\\n     */\\n    function toUint72(uint256 value) internal pure returns (uint72) {\\n        if (value > type(uint72).max) {\\n            revert SafeCastOverflowedUintDowncast(72, value);\\n        }\\n        return uint72(value);\\n    }\\n\\n    /**\\n     * @dev Returns the downcasted uint64 from uint256, reverting on\\n     * overflow (when the input is greater than largest uint64).\\n     *\\n     * Counterpart to Solidity's `uint64` operator.\\n     *\\n     * Requirements:\\n     *\\n     * - input must fit into 64 bits\\n     */\\n    function toUint64(uint256 value) internal pure returns (uint64) {\\n        if (value > type(uint64).max) {\\n            revert SafeCastOverflowedUintDowncast(64, value);\\n        }\\n        return uint64(value);\\n    }\\n\\n    /**\\n     * @dev Returns the downcasted uint56 from uint256, reverting on\\n     * overflow (when the input is greater than largest uint56).\\n     *\\n     * Counterpart to Solidity's `uint56` operator.\\n     *\\n     * Requirements:\\n     *\\n     * - input must fit into 56 bits\\n     */\\n    function toUint56(uint256 value) internal pure returns (uint56) {\\n        if (value > type(uint56).max) {\\n            revert SafeCastOverflowedUintDowncast(56, value);\\n        }\\n        return uint56(value);\\n    }\\n\\n    /**\\n     * @dev Returns the downcasted uint48 from uint256, reverting on\\n     * overflow (when the input is greater than largest uint48).\\n     *\\n     * Counterpart to Solidity's `uint48` operator.\\n     *\\n     * Requirements:\\n     *\\n     * - input must fit into 48 bits\\n     */\\n    function toUint48(uint256 value) internal pure returns (uint48) {\\n        if (value > type(uint48).max) {\\n            revert SafeCastOverflowedUintDowncast(48, value);\\n        }\\n        return uint48(value);\\n    }\\n\\n    /**\\n     * @dev Returns the downcasted uint40 from uint256, reverting on\\n     * overflow (when the input is greater than largest uint40).\\n     *\\n     * Counterpart to Solidity's `uint40` operator.\\n     *\\n     * Requirements:\\n     *\\n     * - input must fit into 40 bits\\n     */\\n    function toUint40(uint256 value) internal pure returns (uint40) {\\n        if (value > type(uint40).max) {\\n            revert SafeCastOverflowedUintDowncast(40, value);\\n        }\\n        return uint40(value);\\n    }\\n\\n    /**\\n     * @dev Returns the downcasted uint32 from uint256, reverting on\\n     * overflow (when the input is greater than largest uint32).\\n     *\\n     * Counterpart to Solidity's `uint32` operator.\\n     *\\n     * Requirements:\\n     *\\n     * - input must fit into 32 bits\\n     */\\n    function toUint32(uint256 value) internal pure returns (uint32) {\\n        if (value > type(uint32).max) {\\n            revert SafeCastOverflowedUintDowncast(32, value);\\n        }\\n        return uint32(value);\\n    }\\n\\n    /**\\n     * @dev Returns the downcasted uint24 from uint256, reverting on\\n     * overflow (when the input is greater than largest uint24).\\n     *\\n     * Counterpart to Solidity's `uint24` operator.\\n     *\\n     * Requirements:\\n     *\\n     * - input must fit into 24 bits\\n     */\\n    function toUint24(uint256 value) internal pure returns (uint24) {\\n        if (value > type(uint24).max) {\\n            revert SafeCastOverflowedUintDowncast(24, value);\\n        }\\n        return uint24(value);\\n    }\\n\\n    /**\\n     * @dev Returns the downcasted uint16 from uint256, reverting on\\n     * overflow (when the input is greater than largest uint16).\\n     *\\n     * Counterpart to Solidity's `uint16` operator.\\n     *\\n     * Requirements:\\n     *\\n     * - input must fit into 16 bits\\n     */\\n    function toUint16(uint256 value) internal pure returns (uint16) {\\n        if (value > type(uint16).max) {\\n            revert SafeCastOverflowedUintDowncast(16, value);\\n        }\\n        return uint16(value);\\n    }\\n\\n    /**\\n     * @dev Returns the downcasted uint8 from uint256, reverting on\\n     * overflow (when the input is greater than largest uint8).\\n     *\\n     * Counterpart to Solidity's `uint8` operator.\\n     *\\n     * Requirements:\\n     *\\n     * - input must fit into 8 bits\\n     */\\n    function toUint8(uint256 value) internal pure returns (uint8) {\\n        if (value > type(uint8).max) {\\n            revert SafeCastOverflowedUintDowncast(8, value);\\n        }\\n        return uint8(value);\\n    }\\n\\n    /**\\n     * @dev Converts a signed int256 into an unsigned uint256.\\n     *\\n     * Requirements:\\n     *\\n     * - input must be greater than or equal to 0.\\n     */\\n    function toUint256(int256 value) internal pure returns (uint256) {\\n        if (value < 0) {\\n            revert SafeCastOverflowedIntToUint(value);\\n        }\\n        return uint256(value);\\n    }\\n\\n    /**\\n     * @dev Returns the downcasted int248 from int256, reverting on\\n     * overflow (when the input is less than smallest int248 or\\n     * greater than largest int248).\\n     *\\n     * Counterpart to Solidity's `int248` operator.\\n     *\\n     * Requirements:\\n     *\\n     * - input must fit into 248 bits\\n     */\\n    function toInt248(int256 value) internal pure returns (int248 downcasted) {\\n        downcasted = int248(value);\\n        if (downcasted != value) {\\n            revert SafeCastOverflowedIntDowncast(248, value);\\n        }\\n    }\\n\\n    /**\\n     * @dev Returns the downcasted int240 from int256, reverting on\\n     * overflow (when the input is less than smallest int240 or\\n     * greater than largest int240).\\n     *\\n     * Counterpart to Solidity's `int240` operator.\\n     *\\n     * Requirements:\\n     *\\n     * - input must fit into 240 bits\\n     */\\n    function toInt240(int256 value) internal pure returns (int240 downcasted) {\\n        downcasted = int240(value);\\n        if (downcasted != value) {\\n            revert SafeCastOverflowedIntDowncast(240, value);\\n        }\\n    }\\n\\n    /**\\n     * @dev Returns the downcasted int232 from int256, reverting on\\n     * overflow (when the input is less than smallest int232 or\\n     * greater than largest int232).\\n     *\\n     * Counterpart to Solidity's `int232` operator.\\n     *\\n     * Requirements:\\n     *\\n     * - input must fit into 232 bits\\n     */\\n    function toInt232(int256 value) internal pure returns (int232 downcasted) {\\n        downcasted = int232(value);\\n        if (downcasted != value) {\\n            revert SafeCastOverflowedIntDowncast(232, value);\\n        }\\n    }\\n\\n    /**\\n     * @dev Returns the downcasted int224 from int256, reverting on\\n     * overflow (when the input is less than smallest int224 or\\n     * greater than largest int224).\\n     *\\n     * Counterpart to Solidity's `int224` operator.\\n     *\\n     * Requirements:\\n     *\\n     * - input must fit into 224 bits\\n     */\\n    function toInt224(int256 value) internal pure returns (int224 downcasted) {\\n        downcasted = int224(value);\\n        if (downcasted != value) {\\n            revert SafeCastOverflowedIntDowncast(224, value);\\n        }\\n    }\\n\\n    /**\\n     * @dev Returns the downcasted int216 from int256, reverting on\\n     * overflow (when the input is less than smallest int216 or\\n     * greater than largest int216).\\n     *\\n     * Counterpart to Solidity's `int216` operator.\\n     *\\n     * Requirements:\\n     *\\n     * - input must fit into 216 bits\\n     */\\n    function toInt216(int256 value) internal pure returns (int216 downcasted) {\\n        downcasted = int216(value);\\n        if (downcasted != value) {\\n            revert SafeCastOverflowedIntDowncast(216, value);\\n        }\\n    }\\n\\n    /**\\n     * @dev Returns the downcasted int208 from int256, reverting on\\n     * overflow (when the input is less than smallest int208 or\\n     * greater than largest int208).\\n     *\\n     * Counterpart to Solidity's `int208` operator.\\n     *\\n     * Requirements:\\n     *\\n     * - input must fit into 208 bits\\n     */\\n    function toInt208(int256 value) internal pure returns (int208 downcasted) {\\n        downcasted = int208(value);\\n        if (downcasted != value) {\\n            revert SafeCastOverflowedIntDowncast(208, value);\\n        }\\n    }\\n\\n    /**\\n     * @dev Returns the downcasted int200 from int256, reverting on\\n     * overflow (when the input is less than smallest int200 or\\n     * greater than largest int200).\\n     *\\n     * Counterpart to Solidity's `int200` operator.\\n     *\\n     * Requirements:\\n     *\\n     * - input must fit into 200 bits\\n     */\\n    function toInt200(int256 value) internal pure returns (int200 downcasted) {\\n        downcasted = int200(value);\\n        if (downcasted != value) {\\n            revert SafeCastOverflowedIntDowncast(200, value);\\n        }\\n    }\\n\\n    /**\\n     * @dev Returns the downcasted int192 from int256, reverting on\\n     * overflow (when the input is less than smallest int192 or\\n     * greater than largest int192).\\n     *\\n     * Counterpart to Solidity's `int192` operator.\\n     *\\n     * Requirements:\\n     *\\n     * - input must fit into 192 bits\\n     */\\n    function toInt192(int256 value) internal pure returns (int192 downcasted) {\\n        downcasted = int192(value);\\n        if (downcasted != value) {\\n            revert SafeCastOverflowedIntDowncast(192, value);\\n        }\\n    }\\n\\n    /**\\n     * @dev Returns the downcasted int184 from int256, reverting on\\n     * overflow (when the input is less than smallest int184 or\\n     * greater than largest int184).\\n     *\\n     * Counterpart to Solidity's `int184` operator.\\n     *\\n     * Requirements:\\n     *\\n     * - input must fit into 184 bits\\n     */\\n    function toInt184(int256 value) internal pure returns (int184 downcasted) {\\n        downcasted = int184(value);\\n        if (downcasted != value) {\\n            revert SafeCastOverflowedIntDowncast(184, value);\\n        }\\n    }\\n\\n    /**\\n     * @dev Returns the downcasted int176 from int256, reverting on\\n     * overflow (when the input is less than smallest int176 or\\n     * greater than largest int176).\\n     *\\n     * Counterpart to Solidity's `int176` operator.\\n     *\\n     * Requirements:\\n     *\\n     * - input must fit into 176 bits\\n     */\\n    function toInt176(int256 value) internal pure returns (int176 downcasted) {\\n        downcasted = int176(value);\\n        if (downcasted != value) {\\n            revert SafeCastOverflowedIntDowncast(176, value);\\n        }\\n    }\\n\\n    /**\\n     * @dev Returns the downcasted int168 from int256, reverting on\\n     * overflow (when the input is less than smallest int168 or\\n     * greater than largest int168).\\n     *\\n     * Counterpart to Solidity's `int168` operator.\\n     *\\n     * Requirements:\\n     *\\n     * - input must fit into 168 bits\\n     */\\n    function toInt168(int256 value) internal pure returns (int168 downcasted) {\\n        downcasted = int168(value);\\n        if (downcasted != value) {\\n            revert SafeCastOverflowedIntDowncast(168, value);\\n        }\\n    }\\n\\n    /**\\n     * @dev Returns the downcasted int160 from int256, reverting on\\n     * overflow (when the input is less than smallest int160 or\\n     * greater than largest int160).\\n     *\\n     * Counterpart to Solidity's `int160` operator.\\n     *\\n     * Requirements:\\n     *\\n     * - input must fit into 160 bits\\n     */\\n    function toInt160(int256 value) internal pure returns (int160 downcasted) {\\n        downcasted = int160(value);\\n        if (downcasted != value) {\\n            revert SafeCastOverflowedIntDowncast(160, value);\\n        }\\n    }\\n\\n    /**\\n     * @dev Returns the downcasted int152 from int256, reverting on\\n     * overflow (when the input is less than smallest int152 or\\n     * greater than largest int152).\\n     *\\n     * Counterpart to Solidity's `int152` operator.\\n     *\\n     * Requirements:\\n     *\\n     * - input must fit into 152 bits\\n     */\\n    function toInt152(int256 value) internal pure returns (int152 downcasted) {\\n        downcasted = int152(value);\\n        if (downcasted != value) {\\n            revert SafeCastOverflowedIntDowncast(152, value);\\n        }\\n    }\\n\\n    /**\\n     * @dev Returns the downcasted int144 from int256, reverting on\\n     * overflow (when the input is less than smallest int144 or\\n     * greater than largest int144).\\n     *\\n     * Counterpart to Solidity's `int144` operator.\\n     *\\n     * Requirements:\\n     *\\n     * - input must fit into 144 bits\\n     */\\n    function toInt144(int256 value) internal pure returns (int144 downcasted) {\\n        downcasted = int144(value);\\n        if (downcasted != value) {\\n            revert SafeCastOverflowedIntDowncast(144, value);\\n        }\\n    }\\n\\n    /**\\n     * @dev Returns the downcasted int136 from int256, reverting on\\n     * overflow (when the input is less than smallest int136 or\\n     * greater than largest int136).\\n     *\\n     * Counterpart to Solidity's `int136` operator.\\n     *\\n     * Requirements:\\n     *\\n     * - input must fit into 136 bits\\n     */\\n    function toInt136(int256 value) internal pure returns (int136 downcasted) {\\n        downcasted = int136(value);\\n        if (downcasted != value) {\\n            revert SafeCastOverflowedIntDowncast(136, value);\\n        }\\n    }\\n\\n    /**\\n     * @dev Returns the downcasted int128 from int256, reverting on\\n     * overflow (when the input is less than smallest int128 or\\n     * greater than largest int128).\\n     *\\n     * Counterpart to Solidity's `int128` operator.\\n     *\\n     * Requirements:\\n     *\\n     * - input must fit into 128 bits\\n     */\\n    function toInt128(int256 value) internal pure returns (int128 downcasted) {\\n        downcasted = int128(value);\\n        if (downcasted != value) {\\n            revert SafeCastOverflowedIntDowncast(128, value);\\n        }\\n    }\\n\\n    /**\\n     * @dev Returns the downcasted int120 from int256, reverting on\\n     * overflow (when the input is less than smallest int120 or\\n     * greater than largest int120).\\n     *\\n     * Counterpart to Solidity's `int120` operator.\\n     *\\n     * Requirements:\\n     *\\n     * - input must fit into 120 bits\\n     */\\n    function toInt120(int256 value) internal pure returns (int120 downcasted) {\\n        downcasted = int120(value);\\n        if (downcasted != value) {\\n            revert SafeCastOverflowedIntDowncast(120, value);\\n        }\\n    }\\n\\n    /**\\n     * @dev Returns the downcasted int112 from int256, reverting on\\n     * overflow (when the input is less than smallest int112 or\\n     * greater than largest int112).\\n     *\\n     * Counterpart to Solidity's `int112` operator.\\n     *\\n     * Requirements:\\n     *\\n     * - input must fit into 112 bits\\n     */\\n    function toInt112(int256 value) internal pure returns (int112 downcasted) {\\n        downcasted = int112(value);\\n        if (downcasted != value) {\\n            revert SafeCastOverflowedIntDowncast(112, value);\\n        }\\n    }\\n\\n    /**\\n     * @dev Returns the downcasted int104 from int256, reverting on\\n     * overflow (when the input is less than smallest int104 or\\n     * greater than largest int104).\\n     *\\n     * Counterpart to Solidity's `int104` operator.\\n     *\\n     * Requirements:\\n     *\\n     * - input must fit into 104 bits\\n     */\\n    function toInt104(int256 value) internal pure returns (int104 downcasted) {\\n        downcasted = int104(value);\\n        if (downcasted != value) {\\n            revert SafeCastOverflowedIntDowncast(104, value);\\n        }\\n    }\\n\\n    /**\\n     * @dev Returns the downcasted int96 from int256, reverting on\\n     * overflow (when the input is less than smallest int96 or\\n     * greater than largest int96).\\n     *\\n     * Counterpart to Solidity's `int96` operator.\\n     *\\n     * Requirements:\\n     *\\n     * - input must fit into 96 bits\\n     */\\n    function toInt96(int256 value) internal pure returns (int96 downcasted) {\\n        downcasted = int96(value);\\n        if (downcasted != value) {\\n            revert SafeCastOverflowedIntDowncast(96, value);\\n        }\\n    }\\n\\n    /**\\n     * @dev Returns the downcasted int88 from int256, reverting on\\n     * overflow (when the input is less than smallest int88 or\\n     * greater than largest int88).\\n     *\\n     * Counterpart to Solidity's `int88` operator.\\n     *\\n     * Requirements:\\n     *\\n     * - input must fit into 88 bits\\n     */\\n    function toInt88(int256 value) internal pure returns (int88 downcasted) {\\n        downcasted = int88(value);\\n        if (downcasted != value) {\\n            revert SafeCastOverflowedIntDowncast(88, value);\\n        }\\n    }\\n\\n    /**\\n     * @dev Returns the downcasted int80 from int256, reverting on\\n     * overflow (when the input is less than smallest int80 or\\n     * greater than largest int80).\\n     *\\n     * Counterpart to Solidity's `int80` operator.\\n     *\\n     * Requirements:\\n     *\\n     * - input must fit into 80 bits\\n     */\\n    function toInt80(int256 value) internal pure returns (int80 downcasted) {\\n        downcasted = int80(value);\\n        if (downcasted != value) {\\n            revert SafeCastOverflowedIntDowncast(80, value);\\n        }\\n    }\\n\\n    /**\\n     * @dev Returns the downcasted int72 from int256, reverting on\\n     * overflow (when the input is less than smallest int72 or\\n     * greater than largest int72).\\n     *\\n     * Counterpart to Solidity's `int72` operator.\\n     *\\n     * Requirements:\\n     *\\n     * - input must fit into 72 bits\\n     */\\n    function toInt72(int256 value) internal pure returns (int72 downcasted) {\\n        downcasted = int72(value);\\n        if (downcasted != value) {\\n            revert SafeCastOverflowedIntDowncast(72, value);\\n        }\\n    }\\n\\n    /**\\n     * @dev Returns the downcasted int64 from int256, reverting on\\n     * overflow (when the input is less than smallest int64 or\\n     * greater than largest int64).\\n     *\\n     * Counterpart to Solidity's `int64` operator.\\n     *\\n     * Requirements:\\n     *\\n     * - input must fit into 64 bits\\n     */\\n    function toInt64(int256 value) internal pure returns (int64 downcasted) {\\n        downcasted = int64(value);\\n        if (downcasted != value) {\\n            revert SafeCastOverflowedIntDowncast(64, value);\\n        }\\n    }\\n\\n    /**\\n     * @dev Returns the downcasted int56 from int256, reverting on\\n     * overflow (when the input is less than smallest int56 or\\n     * greater than largest int56).\\n     *\\n     * Counterpart to Solidity's `int56` operator.\\n     *\\n     * Requirements:\\n     *\\n     * - input must fit into 56 bits\\n     */\\n    function toInt56(int256 value) internal pure returns (int56 downcasted) {\\n        downcasted = int56(value);\\n        if (downcasted != value) {\\n            revert SafeCastOverflowedIntDowncast(56, value);\\n        }\\n    }\\n\\n    /**\\n     * @dev Returns the downcasted int48 from int256, reverting on\\n     * overflow (when the input is less than smallest int48 or\\n     * greater than largest int48).\\n     *\\n     * Counterpart to Solidity's `int48` operator.\\n     *\\n     * Requirements:\\n     *\\n     * - input must fit into 48 bits\\n     */\\n    function toInt48(int256 value) internal pure returns (int48 downcasted) {\\n        downcasted = int48(value);\\n        if (downcasted != value) {\\n            revert SafeCastOverflowedIntDowncast(48, value);\\n        }\\n    }\\n\\n    /**\\n     * @dev Returns the downcasted int40 from int256, reverting on\\n     * overflow (when the input is less than smallest int40 or\\n     * greater than largest int40).\\n     *\\n     * Counterpart to Solidity's `int40` operator.\\n     *\\n     * Requirements:\\n     *\\n     * - input must fit into 40 bits\\n     */\\n    function toInt40(int256 value) internal pure returns (int40 downcasted) {\\n        downcasted = int40(value);\\n        if (downcasted != value) {\\n            revert SafeCastOverflowedIntDowncast(40, value);\\n        }\\n    }\\n\\n    /**\\n     * @dev Returns the downcasted int32 from int256, reverting on\\n     * overflow (when the input is less than smallest int32 or\\n     * greater than largest int32).\\n     *\\n     * Counterpart to Solidity's `int32` operator.\\n     *\\n     * Requirements:\\n     *\\n     * - input must fit into 32 bits\\n     */\\n    function toInt32(int256 value) internal pure returns (int32 downcasted) {\\n        downcasted = int32(value);\\n        if (downcasted != value) {\\n            revert SafeCastOverflowedIntDowncast(32, value);\\n        }\\n    }\\n\\n    /**\\n     * @dev Returns the downcasted int24 from int256, reverting on\\n     * overflow (when the input is less than smallest int24 or\\n     * greater than largest int24).\\n     *\\n     * Counterpart to Solidity's `int24` operator.\\n     *\\n     * Requirements:\\n     *\\n     * - input must fit into 24 bits\\n     */\\n    function toInt24(int256 value) internal pure returns (int24 downcasted) {\\n        downcasted = int24(value);\\n        if (downcasted != value) {\\n            revert SafeCastOverflowedIntDowncast(24, value);\\n        }\\n    }\\n\\n    /**\\n     * @dev Returns the downcasted int16 from int256, reverting on\\n     * overflow (when the input is less than smallest int16 or\\n     * greater than largest int16).\\n     *\\n     * Counterpart to Solidity's `int16` operator.\\n     *\\n     * Requirements:\\n     *\\n     * - input must fit into 16 bits\\n     */\\n    function toInt16(int256 value) internal pure returns (int16 downcasted) {\\n        downcasted = int16(value);\\n        if (downcasted != value) {\\n            revert SafeCastOverflowedIntDowncast(16, value);\\n        }\\n    }\\n\\n    /**\\n     * @dev Returns the downcasted int8 from int256, reverting on\\n     * overflow (when the input is less than smallest int8 or\\n     * greater than largest int8).\\n     *\\n     * Counterpart to Solidity's `int8` operator.\\n     *\\n     * Requirements:\\n     *\\n     * - input must fit into 8 bits\\n     */\\n    function toInt8(int256 value) internal pure returns (int8 downcasted) {\\n        downcasted = int8(value);\\n        if (downcasted != value) {\\n            revert SafeCastOverflowedIntDowncast(8, value);\\n        }\\n    }\\n\\n    /**\\n     * @dev Converts an unsigned uint256 into a signed int256.\\n     *\\n     * Requirements:\\n     *\\n     * - input must be less than or equal to maxInt256.\\n     */\\n    function toInt256(uint256 value) internal pure returns (int256) {\\n        // Note: Unsafe cast below is okay because `type(int256).max` is guaranteed to be positive\\n        if (value > uint256(type(int256).max)) {\\n            revert SafeCastOverflowedUintToInt(value);\\n        }\\n        return int256(value);\\n    }\\n\\n    /**\\n     * @dev Cast a boolean (false or true) to a uint256 (0 or 1) with no jump.\\n     */\\n    function toUint(bool b) internal pure returns (uint256 u) {\\n        assembly (\\\"memory-safe\\\") {\\n            u := iszero(iszero(b))\\n        }\\n    }\\n}\\n\"},\"@openzeppelin/contracts/utils/Panic.sol\":{\"content\":\"// SPDX-License-Identifier: MIT\\n// OpenZeppelin Contracts (last updated v5.1.0) (utils/Panic.sol)\\n\\npragma solidity ^0.8.20;\\n\\n/**\\n * @dev Helper library for emitting standardized panic codes.\\n *\\n * ```solidity\\n * contract Example {\\n *      using Panic for uint256;\\n *\\n *      // Use any of the declared internal constants\\n *      function foo() { Panic.GENERIC.panic(); }\\n *\\n *      // Alternatively\\n *      function foo() { Panic.panic(Panic.GENERIC); }\\n * }\\n * ```\\n *\\n * Follows the list from https://github.com/ethereum/solidity/blob/v0.8.24/libsolutil/ErrorCodes.h[libsolutil].\\n *\\n * _Available since v5.1._\\n */\\n// slither-disable-next-line unused-state\\nlibrary Panic {\\n    /// @dev generic / unspecified error\\n    uint256 internal constant GENERIC = 0x00;\\n    /// @dev used by the assert() builtin\\n    uint256 internal constant ASSERT = 0x01;\\n    /// @dev arithmetic underflow or overflow\\n    uint256 internal constant UNDER_OVERFLOW = 0x11;\\n    /// @dev division or modulo by zero\\n    uint256 internal constant DIVISION_BY_ZERO = 0x12;\\n    /// @dev enum conversion error\\n    uint256 internal constant ENUM_CONVERSION_ERROR = 0x21;\\n    /// @dev invalid encoding in storage\\n    uint256 internal constant STORAGE_ENCODING_ERROR = 0x22;\\n    /// @dev empty array pop\\n    uint256 internal constant EMPTY_ARRAY_POP = 0x31;\\n    /// @dev array out of bounds access\\n    uint256 internal constant ARRAY_OUT_OF_BOUNDS = 0x32;\\n    /// @dev resource error (too large allocation or too large array)\\n    uint256 internal constant RESOURCE_ERROR = 0x41;\\n    /// @dev calling invalid internal function\\n    uint256 internal constant INVALID_INTERNAL_FUNCTION = 0x51;\\n\\n    /// @dev Reverts with a panic code. Recommended to use with\\n    /// the internal constants with predefined codes.\\n    function panic(uint256 code) internal pure {\\n        assembly (\\\"memory-safe\\\") {\\n            mstore(0x00, 0x4e487b71)\\n            mstore(0x20, code)\\n            revert(0x1c, 0x24)\\n        }\\n    }\\n}\\n\"}},\"settings\":{\"optimizer\":{\"enabled\":false,\"runs\":200},\"outputSelection\":{\"*\":{\"\":[\"ast\"],\"*\":[\"abi\",\"metadata\",\"devdoc\",\"userdoc\",\"storageLayout\",\"evm.legacyAssembly\",\"evm.bytecode\",\"evm.deployedBytecode\",\"evm.methodIdentifiers\",\"evm.gasEstimates\",\"evm.assembly\"]}},\"remappings\":[]}}",
	"name": "PMUniversalVerifier",
	"bytecode": {
		"linkReferences": {},
		"object": "608060405234801561000f575f5ffd5b50604051614931380380614931833981810160405281019061003191906103c3565b81816100428161010b60201b60201c565b505f73ffffffffffffffffffffffffffffffffffffffff168173ffffffffffffffffffffffffffffffffffffffff16036100b3575f6040517f1e4fbdf70000000000000000000000000000000000000000000000000000000081526004016100aa919061043e565b60405180910390fd5b6100c28161011e60201b60201c565b5082600a5f6101000a81548173ffffffffffffffffffffffffffffffffffffffff021916908373ffffffffffffffffffffffffffffffffffffffff160217905550505050610736565b806002908161011a9190610667565b5050565b5f60035f9054906101000a900473ffffffffffffffffffffffffffffffffffffffff1690508160035f6101000a81548173ffffffffffffffffffffffffffffffffffffffff021916908373ffffffffffffffffffffffffffffffffffffffff1602179055508173ffffffffffffffffffffffffffffffffffffffff168173ffffffffffffffffffffffffffffffffffffffff167f8be0079c531659141344cd1fd0a4f28419497f9722a3daafe3b4186f6b6457e060405160405180910390a35050565b5f604051905090565b5f5ffd5b5f5ffd5b5f73ffffffffffffffffffffffffffffffffffffffff82169050919050565b5f61021b826101f2565b9050919050565b5f61022c82610211565b9050919050565b61023c81610222565b8114610246575f5ffd5b50565b5f8151905061025781610233565b92915050565b61026681610211565b8114610270575f5ffd5b50565b5f815190506102818161025d565b92915050565b5f5ffd5b5f5ffd5b5f601f19601f8301169050919050565b7f4e487b71000000000000000000000000000000000000000000000000000000005f52604160045260245ffd5b6102d58261028f565b810181811067ffffffffffffffff821117156102f4576102f361029f565b5b80604052505050565b5f6103066101e1565b905061031282826102cc565b919050565b5f67ffffffffffffffff8211156103315761033061029f565b5b61033a8261028f565b9050602081019050919050565b8281835e5f83830152505050565b5f61036761036284610317565b6102fd565b9050828152602081018484840111156103835761038261028b565b5b61038e848285610347565b509392505050565b5f82601f8301126103aa576103a9610287565b5b81516103ba848260208601610355565b91505092915050565b5f5f5f606084860312156103da576103d96101ea565b5b5f6103e786828701610249565b93505060206103f886828701610273565b925050604084015167ffffffffffffffff811115610419576104186101ee565b5b61042586828701610396565b9150509250925092565b61043881610211565b82525050565b5f6020820190506104515f83018461042f565b92915050565b5f81519050919050565b7f4e487b71000000000000000000000000000000000000000000000000000000005f52602260045260245ffd5b5f60028204905060018216806104a557607f821691505b6020821081036104b8576104b7610461565b5b50919050565b5f819050815f5260205f209050919050565b5f6020601f8301049050919050565b5f82821b905092915050565b5f6008830261051a7fffffffffffffffffffffffffffffffffffffffffffffffffffffffffffffffff826104df565b61052486836104df565b95508019841693508086168417925050509392505050565b5f819050919050565b5f819050919050565b5f61056861056361055e8461053c565b610545565b61053c565b9050919050565b5f819050919050565b6105818361054e565b61059561058d8261056f565b8484546104eb565b825550505050565b5f5f905090565b6105ac61059d565b6105b7818484610578565b505050565b5b818110156105da576105cf5f826105a4565b6001810190506105bd565b5050565b601f82111561061f576105f0816104be565b6105f9846104d0565b81016020851015610608578190505b61061c610614856104d0565b8301826105bc565b50505b505050565b5f82821c905092915050565b5f61063f5f1984600802610624565b1980831691505092915050565b5f6106578383610630565b9150826002028217905092915050565b61067082610457565b67ffffffffffffffff8111156106895761068861029f565b5b610693825461048e565b61069e8282856105de565b5f60209050601f8311600181146106cf575f84156106bd578287015190505b6106c7858261064c565b86555061072e565b601f1984166106dd866104be565b5f5b82811015610704578489015182556001820191506020850194506020810190506106df565b86831015610721578489015161071d601f891682610630565b8355505b6001600288020188555050505b505050505050565b6141ee806107435f395ff3fe608060405234801561000f575f5ffd5b506004361061018b575f3560e01c8063784008ce116100dc578063cf5219ad11610095578063e985e9c51161006f578063e985e9c51461047d578063f242432a146104ad578063f2fde38b146104c9578063f5298aca146104e55761018b565b8063cf5219ad146103ff578063d121cdc01461041d578063e725f8771461044d5761018b565b8063784008ce1461033f5780638da5cb5b1461035d5780638e274a181461037b5780639c5416f214610397578063a22cb465146103b3578063b9bbe916146103cf5761018b565b806331ae450b116101495780635883861d116101235780635883861d146102df57806370480275146102fb578063715018a6146103175780637578b248146103215761018b565b806331ae450b1461027557806338e71640146102935780634e1273f4146102af5761018b565b8062fdd58e1461018f57806301ffc9a7146101bf5780630e89341c146101ef5780631785f53c1461021f5780632b7ac3f31461023b5780632eb2c2d614610259575b5f5ffd5b6101a960048036038101906101a49190612964565b610501565b6040516101b691906129b1565b60405180910390f35b6101d960048036038101906101d49190612a1f565b610556565b6040516101e69190612a64565b60405180910390f35b61020960048036038101906102049190612a7d565b610637565b6040516102169190612b18565b60405180910390f35b61023960048036038101906102349190612b38565b6106c9565b005b61024361088d565b6040516102509190612bbe565b60405180910390f35b610273600480360381019061026e9190612dc7565b6108b2565b005b61027d6109e9565b60405161028a9190612f49565b60405180910390f35b6102ad60048036038101906102a89190612fa6565b610a7c565b005b6102c960048036038101906102c491906130a4565b610d8b565b6040516102d691906131d1565b60405180910390f35b6102f960048036038101906102f4919061324a565b610e95565b005b61031560048036038101906103109190612b38565b610f48565b005b61031f61106a565b005b61032961107d565b60405161033691906131d1565b60405180910390f35b61034761108e565b60405161035491906129b1565b60405180910390f35b610365611093565b60405161037291906132dd565b60405180910390f35b6103956004803603810190610390919061334b565b6110bb565b005b6103b160048036038101906103ac9190613402565b611191565b005b6103cd60048036038101906103c8919061347c565b6113b8565b005b6103e960048036038101906103e49190612fa6565b6113ce565b6040516103f691906132dd565b60405180910390f35b61040761140b565b60405161041491906129b1565b60405180910390f35b61043760048036038101906104329190612a7d565b611410565b60405161044491906134c9565b60405180910390f35b61046760048036038101906104629190612a7d565b61144b565b6040516104749190612b18565b60405180910390f35b610497600480360381019061049291906134e2565b6114e6565b6040516104a49190612a64565b60405180910390f35b6104c760048036038101906104c29190613520565b611574565b005b6104e360048036038101906104de9190612b38565b611591565b005b6104ff60048036038101906104fa91906135b3565b611615565b005b5f5f5f8381526020019081526020015f205f8473ffffffffffffffffffffffffffffffffffffffff1673ffffffffffffffffffffffffffffffffffffffff1681526020019081526020015f2054905092915050565b5f7fd9b67a26000000000000000000000000000000000000000000000000000000007bffffffffffffffffffffffffffffffffffffffffffffffffffffffff1916827bffffffffffffffffffffffffffffffffffffffffffffffffffffffff1916148061062057507f0e89341c000000000000000000000000000000000000000000000000000000007bffffffffffffffffffffffffffffffffffffffffffffffffffffffff1916827bffffffffffffffffffffffffffffffffffffffffffffffffffffffff1916145b80610630575061062f8261162d565b5b9050919050565b60606002805461064690613630565b80601f016020809104026020016040519081016040528092919081815260200182805461067290613630565b80156106bd5780601f10610694576101008083540402835291602001916106bd565b820191905f5260205f20905b8154815290600101906020018083116106a057829003601f168201915b50505050509050919050565b6106d1611696565b5f60048054905090505f5f90505b8181101561084e578273ffffffffffffffffffffffffffffffffffffffff166004828154811061071257610711613660565b5b905f5260205f20015f9054906101000a900473ffffffffffffffffffffffffffffffffffffffff1673ffffffffffffffffffffffffffffffffffffffff160361084157600460018361076491906136ba565b8154811061077557610774613660565b5b905f5260205f20015f9054906101000a900473ffffffffffffffffffffffffffffffffffffffff16600482815481106107b1576107b0613660565b5b905f5260205f20015f6101000a81548173ffffffffffffffffffffffffffffffffffffffff021916908373ffffffffffffffffffffffffffffffffffffffff1602179055506004805480610808576108076136ed565b5b600190038181905f5260205f20015f6101000a81549073ffffffffffffffffffffffffffffffffffffffff02191690559055505061088a565b80806001019150506106df565b506040517f08c379a000000000000000000000000000000000000000000000000000000000815260040161088190613764565b60405180910390fd5b50565b600a5f9054906101000a900473ffffffffffffffffffffffffffffffffffffffff1681565b81518351146108f6576040517f08c379a00000000000000000000000000000000000000000000000000000000081526004016108ed906137f2565b60405180910390fd5b5f73ffffffffffffffffffffffffffffffffffffffff168473ffffffffffffffffffffffffffffffffffffffff1603610964576040517f08c379a000000000000000000000000000000000000000000000000000000000815260040161095b90613880565b60405180910390fd5b5f5f90505b83518110156109e15761099584828151811061098857610987613660565b5b602002602001015161171d565b6109d686868684815181106109ad576109ac613660565b5b60200260200101518685815181106109c8576109c7613660565b5b602002602001015186611574565b806001019050610969565b505050505050565b60606109f3611696565b6004805480602002602001604051908101604052809291908181526020018280548015610a7257602002820191905f5260205f20905b815f9054906101000a900473ffffffffffffffffffffffffffffffffffffffff1673ffffffffffffffffffffffffffffffffffffffff1681526020019060010190808311610a29575b5050505050905090565b610a85336119ed565b610ac4576040517f08c379a0000000000000000000000000000000000000000000000000000000008152600401610abb906138e8565b60405180910390fd5b610ad8826005611a8f90919063ffffffff16565b610b17576040517f08c379a0000000000000000000000000000000000000000000000000000000008152600401610b0e90613950565b60405180910390fd5b5f73ffffffffffffffffffffffffffffffffffffffff1660085f8481526020019081526020015f205f8367ffffffffffffffff1667ffffffffffffffff1681526020019081526020015f205f9054906101000a900473ffffffffffffffffffffffffffffffffffffffff1673ffffffffffffffffffffffffffffffffffffffff1603610bd8576040517f08c379a0000000000000000000000000000000000000000000000000000000008152600401610bcf906139b8565b60405180910390fd5b60085f8381526020019081526020015f205f8267ffffffffffffffff1667ffffffffffffffff1681526020019081526020015f205f6101000a81549073ffffffffffffffffffffffffffffffffffffffff02191690555f5f90505b600980549050811015610d86578167ffffffffffffffff1660098281548110610c5f57610c5e613660565b5b905f5260205f2090600491828204019190066008029054906101000a900467ffffffffffffffff1667ffffffffffffffff1603610d795760096001600980549050610caa91906136ba565b81548110610cbb57610cba613660565b5b905f5260205f2090600491828204019190066008029054906101000a900467ffffffffffffffff1660098281548110610cf757610cf6613660565b5b905f5260205f2090600491828204019190066008026101000a81548167ffffffffffffffff021916908367ffffffffffffffff1602179055506009805480610d4257610d416136ed565b5b600190038181905f5260205f2090600491828204019190066008026101000a81549067ffffffffffffffff02191690559055610d86565b8080600101915050610c33565b505050565b60608151835114610dd757815183516040517f5b059991000000000000000000000000000000000000000000000000000000008152600401610dce9291906139d6565b60405180910390fd5b5f835167ffffffffffffffff811115610df357610df2612bdb565b5b604051908082528060200260200182016040528015610e215781602001602082028036833780820191505090505b5090505f5f90505b8451811015610e8a57610e60610e488287611aa690919063ffffffff16565b610e5b8387611ab990919063ffffffff16565b610501565b828281518110610e7357610e72613660565b5b602002602001018181525050806001019050610e29565b508091505092915050565b610e9d611696565b610eb1846005611a8f90919063ffffffff16565b610ef257836040517fd60b1c24000000000000000000000000000000000000000000000000000000008152600401610ee991906129b1565b60405180910390fd5b610f4185858585858080601f0160208091040260200160405190810160405280939291908181526020018383808284375f81840152601f19601f82011690508083019250505050505050611acc565b5050505050565b610f50611696565b5f73ffffffffffffffffffffffffffffffffffffffff168173ffffffffffffffffffffffffffffffffffffffff1603610fbe576040517f08c379a0000000000000000000000000000000000000000000000000000000008152600401610fb590613a47565b60405180910390fd5b610fc7816119ed565b15611007576040517f08c379a0000000000000000000000000000000000000000000000000000000008152600401610ffe90613aaf565b60405180910390fd5b600481908060018154018082558091505060019003905f5260205f20015f9091909190916101000a81548173ffffffffffffffffffffffffffffffffffffffff021916908373ffffffffffffffffffffffffffffffffffffffff16021790555050565b611072611696565b61107b5f611b61565b565b60606110896005611c24565b905090565b600181565b5f60035f9054906101000a900473ffffffffffffffffffffffffffffffffffffffff16905090565b6110c3611696565b6110d7866005611c4390919063ffffffff16565b61111857856040517f453d47f500000000000000000000000000000000000000000000000000000000815260040161110f91906129b1565b60405180910390fd5b61116787878787878080601f0160208091040260200160405190810160405280939291908181526020018383808284375f81840152601f19601f82011690508083019250505050505050611acc565b818160075f8981526020019081526020015f209182611187929190613c6e565b5050505050505050565b61119a336119ed565b6111d9576040517f08c379a00000000000000000000000000000000000000000000000000000000081526004016111d0906138e8565b60405180910390fd5b6111ed836005611a8f90919063ffffffff16565b61122c576040517f08c379a000000000000000000000000000000000000000000000000000000000815260040161122390613950565b60405180910390fd5b5f73ffffffffffffffffffffffffffffffffffffffff1660085f8581526020019081526020015f205f8467ffffffffffffffff1667ffffffffffffffff1681526020019081526020015f205f9054906101000a900473ffffffffffffffffffffffffffffffffffffffff1673ffffffffffffffffffffffffffffffffffffffff16146112ed576040517f08c379a00000000000000000000000000000000000000000000000000000000081526004016112e490613d85565b60405180910390fd5b8060085f8581526020019081526020015f205f8467ffffffffffffffff1667ffffffffffffffff1681526020019081526020015f205f6101000a81548173ffffffffffffffffffffffffffffffffffffffff021916908373ffffffffffffffffffffffffffffffffffffffff160217905550600982908060018154018082558091505060019003905f5260205f2090600491828204019190066008029091909190916101000a81548167ffffffffffffffff021916908367ffffffffffffffff160217905550505050565b6113ca6113c3611c5a565b8383611c61565b5050565b6008602052815f5260405f20602052805f5260405f205f915091509054906101000a900473ffffffffffffffffffffffffffffffffffffffff1681565b600281565b6009818154811061141f575f80fd5b905f5260205f209060049182820401919006600802915054906101000a900467ffffffffffffffff1681565b6007602052805f5260405f205f91509050805461146790613630565b80601f016020809104026020016040519081016040528092919081815260200182805461149390613630565b80156114de5780601f106114b5576101008083540402835291602001916114de565b820191905f5260205f20905b8154815290600101906020018083116114c157829003601f168201915b505050505081565b5f60015f8473ffffffffffffffffffffffffffffffffffffffff1673ffffffffffffffffffffffffffffffffffffffff1681526020019081526020015f205f8373ffffffffffffffffffffffffffffffffffffffff1673ffffffffffffffffffffffffffffffffffffffff1681526020019081526020015f205f9054906101000a900460ff16905092915050565b61157d8361171d565b61158a8585858585611dca565b5050505050565b611599611696565b5f73ffffffffffffffffffffffffffffffffffffffff168173ffffffffffffffffffffffffffffffffffffffff1603611609575f6040517f1e4fbdf700000000000000000000000000000000000000000000000000000000815260040161160091906132dd565b60405180910390fd5b61161281611b61565b50565b61161d611696565b611628838383611e71565b505050565b5f7f01ffc9a7000000000000000000000000000000000000000000000000000000007bffffffffffffffffffffffffffffffffffffffffffffffffffffffff1916827bffffffffffffffffffffffffffffffffffffffffffffffffffffffff1916149050919050565b61169e611c5a565b73ffffffffffffffffffffffffffffffffffffffff166116bc611093565b73ffffffffffffffffffffffffffffffffffffffff161461171b576116df611c5a565b6040517f118cdaa700000000000000000000000000000000000000000000000000000000815260040161171291906132dd565b60405180910390fd5b565b5f600980548060200260200160405190810160405280929190818152602001828054801561179b57602002820191905f5260205f20905f905b82829054906101000a900467ffffffffffffffff1667ffffffffffffffff16815260200190600801906020826007010492830192600103820291508084116117565790505b505050505090505f5f90505b81518110156119e8575f73ffffffffffffffffffffffffffffffffffffffff1660085f8581526020019081526020015f205f8484815181106117ec576117eb613660565b5b602002602001015167ffffffffffffffff1667ffffffffffffffff1681526020019081526020015f205f9054906101000a900473ffffffffffffffffffffffffffffffffffffffff1673ffffffffffffffffffffffffffffffffffffffff16146119db575f60085f8581526020019081526020015f205f84848151811061187657611875613660565b5b602002602001015167ffffffffffffffff1667ffffffffffffffff1681526020019081526020015f205f9054906101000a900473ffffffffffffffffffffffffffffffffffffffff169050600a5f9054906101000a900473ffffffffffffffffffffffffffffffffffffffff1673ffffffffffffffffffffffffffffffffffffffff16638c1da2c98285858151811061191257611911613660565b5b60200260200101516040518363ffffffff1660e01b8152600401611937929190613da3565b5f60405180830381865afa158015611951573d5f5f3e3d5ffd5b505050506040513d5f823e3d601f19601f820116820180604052508101906119799190613f29565b5f01516119d95782828151811061199357611992613660565b5b6020026020010151816040517fa5a4608e0000000000000000000000000000000000000000000000000000000081526004016119d0929190613f70565b60405180910390fd5b505b80806001019150506117a7565b505050565b5f5f5f90505b600480549050811015611a85578273ffffffffffffffffffffffffffffffffffffffff1660048281548110611a2b57611a2a613660565b5b905f5260205f20015f9054906101000a900473ffffffffffffffffffffffffffffffffffffffff1673ffffffffffffffffffffffffffffffffffffffff1603611a78576001915050611a8a565b80806001019150506119f3565b505f90505b919050565b5f611a9e835f01835f1b611f13565b905092915050565b5f60208202602084010151905092915050565b5f60208202602084010151905092915050565b5f73ffffffffffffffffffffffffffffffffffffffff168473ffffffffffffffffffffffffffffffffffffffff1603611b3c575f6040517f57f447ce000000000000000000000000000000000000000000000000000000008152600401611b3391906132dd565b60405180910390fd5b5f5f611b488585611f33565b91509150611b595f87848487611f63565b505050505050565b5f60035f9054906101000a900473ffffffffffffffffffffffffffffffffffffffff1690508160035f6101000a81548173ffffffffffffffffffffffffffffffffffffffff021916908373ffffffffffffffffffffffffffffffffffffffff1602179055508173ffffffffffffffffffffffffffffffffffffffff168173ffffffffffffffffffffffffffffffffffffffff167f8be0079c531659141344cd1fd0a4f28419497f9722a3daafe3b4186f6b6457e060405160405180910390a35050565b60605f611c32835f0161200f565b905060608190508092505050919050565b5f611c52835f01835f1b612068565b905092915050565b5f33905090565b5f73ffffffffffffffffffffffffffffffffffffffff168273ffffffffffffffffffffffffffffffffffffffff1603611cd1575f6040517fced3e100000000000000000000000000000000000000000000000000000000008152600401611cc891906132dd565b60405180910390fd5b8060015f8573ffffffffffffffffffffffffffffffffffffffff1673ffffffffffffffffffffffffffffffffffffffff1681526020019081526020015f205f8473ffffffffffffffffffffffffffffffffffffffff1673ffffffffffffffffffffffffffffffffffffffff1681526020019081526020015f205f6101000a81548160ff0219169083151502179055508173ffffffffffffffffffffffffffffffffffffffff168373ffffffffffffffffffffffffffffffffffffffff167f17307eab39ab6107e8899845ad3d59bd9653f200f220920489ca2b5937696c3183604051611dbd9190612a64565b60405180910390a3505050565b5f611dd3611c5a565b90508073ffffffffffffffffffffffffffffffffffffffff168673ffffffffffffffffffffffffffffffffffffffff1614158015611e185750611e1686826114e6565b155b15611e5c5780866040517fe237d922000000000000000000000000000000000000000000000000000000008152600401611e53929190613f97565b60405180910390fd5b611e6986868686866120cf565b505050505050565b5f73ffffffffffffffffffffffffffffffffffffffff168373ffffffffffffffffffffffffffffffffffffffff1603611ee1575f6040517f01a83514000000000000000000000000000000000000000000000000000000008152600401611ed891906132dd565b60405180910390fd5b5f5f611eed8484611f33565b91509150611f0c855f848460405180602001604052805f815250611f63565b5050505050565b5f5f836001015f8481526020019081526020015f20541415905092915050565b60608060405191506001825283602083015260408201905060018152826020820152604081016040529250929050565b611f6f858585856121d5565b5f73ffffffffffffffffffffffffffffffffffffffff168473ffffffffffffffffffffffffffffffffffffffff1614612008575f611fab611c5a565b90506001845103611ff7575f611fca5f86611ab990919063ffffffff16565b90505f611fe05f86611ab990919063ffffffff16565b9050611ff0838989858589612568565b5050612006565b612005818787878787612717565b5b505b5050505050565b6060815f0180548060200260200160405190810160405280929190818152602001828054801561205c57602002820191905f5260205f20905b815481526020019060010190808311612048575b50505050509050919050565b5f6120738383611f13565b6120c557825f0182908060018154018082558091505060019003905f5260205f20015f9091909190915055825f0180549050836001015f8481526020019081526020015f2081905550600190506120c9565b5f90505b92915050565b5f73ffffffffffffffffffffffffffffffffffffffff168473ffffffffffffffffffffffffffffffffffffffff160361213f575f6040517f57f447ce00000000000000000000000000000000000000000000000000000000815260040161213691906132dd565b60405180910390fd5b5f73ffffffffffffffffffffffffffffffffffffffff168573ffffffffffffffffffffffffffffffffffffffff16036121af575f6040517f01a835140000000000000000000000000000000000000000000000000000000081526004016121a691906132dd565b60405180910390fd5b5f5f6121bb8585611f33565b915091506121cc8787848487611f63565b50505050505050565b805182511461221f57815181516040517f5b0599910000000000000000000000000000000000000000000000000000000081526004016122169291906139d6565b60405180910390fd5b5f612228611c5a565b90505f5f90505b8351811015612427575f61224c8286611ab990919063ffffffff16565b90505f6122628386611ab990919063ffffffff16565b90505f73ffffffffffffffffffffffffffffffffffffffff168873ffffffffffffffffffffffffffffffffffffffff1614612385575f5f5f8481526020019081526020015f205f8a73ffffffffffffffffffffffffffffffffffffffff1673ffffffffffffffffffffffffffffffffffffffff1681526020019081526020015f205490508181101561233157888183856040517f03dee4c50000000000000000000000000000000000000000000000000000000081526004016123289493929190613fbe565b60405180910390fd5b8181035f5f8581526020019081526020015f205f8b73ffffffffffffffffffffffffffffffffffffffff1673ffffffffffffffffffffffffffffffffffffffff1681526020019081526020015f2081905550505b5f73ffffffffffffffffffffffffffffffffffffffff168773ffffffffffffffffffffffffffffffffffffffff161461241a57805f5f8481526020019081526020015f205f8973ffffffffffffffffffffffffffffffffffffffff1673ffffffffffffffffffffffffffffffffffffffff1681526020019081526020015f205f8282546124129190614001565b925050819055505b505080600101905061222f565b5060018351036124e2575f6124455f85611ab990919063ffffffff16565b90505f61245b5f85611ab990919063ffffffff16565b90508573ffffffffffffffffffffffffffffffffffffffff168773ffffffffffffffffffffffffffffffffffffffff168473ffffffffffffffffffffffffffffffffffffffff167fc3d58168c5ae7397731d063d5bbf3d657854427343f4c083240f7aacaa2d0f6285856040516124d39291906139d6565b60405180910390a45050612561565b8373ffffffffffffffffffffffffffffffffffffffff168573ffffffffffffffffffffffffffffffffffffffff168273ffffffffffffffffffffffffffffffffffffffff167f4a39dc06d4c0dbc64b70af90fd698a233a518aa5d07e595d983b8c0526c8f7fb8686604051612558929190614034565b60405180910390a45b5050505050565b5f8473ffffffffffffffffffffffffffffffffffffffff163b111561270f578373ffffffffffffffffffffffffffffffffffffffff1663f23a6e6187878686866040518663ffffffff1660e01b81526004016125c89594939291906140bb565b6020604051808303815f875af192505050801561260357506040513d601f19601f820116820180604052508101906126009190614127565b60015b612684573d805f8114612631576040519150601f19603f3d011682016040523d82523d5f602084013e612636565b606091505b505f81510361267c57846040517f57f447ce00000000000000000000000000000000000000000000000000000000815260040161267391906132dd565b60405180910390fd5b805181602001fd5b63f23a6e6160e01b7bffffffffffffffffffffffffffffffffffffffffffffffffffffffff1916817bffffffffffffffffffffffffffffffffffffffffffffffffffffffff19161461270d57846040517f57f447ce00000000000000000000000000000000000000000000000000000000815260040161270491906132dd565b60405180910390fd5b505b505050505050565b5f8473ffffffffffffffffffffffffffffffffffffffff163b11156128be578373ffffffffffffffffffffffffffffffffffffffff1663bc197c8187878686866040518663ffffffff1660e01b8152600401612777959493929190614152565b6020604051808303815f875af19250505080156127b257506040513d601f19601f820116820180604052508101906127af9190614127565b60015b612833573d805f81146127e0576040519150601f19603f3d011682016040523d82523d5f602084013e6127e5565b606091505b505f81510361282b57846040517f57f447ce00000000000000000000000000000000000000000000000000000000815260040161282291906132dd565b60405180910390fd5b805181602001fd5b63bc197c8160e01b7bffffffffffffffffffffffffffffffffffffffffffffffffffffffff1916817bffffffffffffffffffffffffffffffffffffffffffffffffffffffff1916146128bc57846040517f57f447ce0000000000000000000000000000000000000000000000000000000081526004016128b391906132dd565b60405180910390fd5b505b505050505050565b5f604051905090565b5f5ffd5b5f5ffd5b5f73ffffffffffffffffffffffffffffffffffffffff82169050919050565b5f612900826128d7565b9050919050565b612910816128f6565b811461291a575f5ffd5b50565b5f8135905061292b81612907565b92915050565b5f819050919050565b61294381612931565b811461294d575f5ffd5b50565b5f8135905061295e8161293a565b92915050565b5f5f6040838503121561297a576129796128cf565b5b5f6129878582860161291d565b925050602061299885828601612950565b9150509250929050565b6129ab81612931565b82525050565b5f6020820190506129c45f8301846129a2565b92915050565b5f7fffffffff0000000000000000000000000000000000000000000000000000000082169050919050565b6129fe816129ca565b8114612a08575f5ffd5b50565b5f81359050612a19816129f5565b92915050565b5f60208284031215612a3457612a336128cf565b5b5f612a4184828501612a0b565b91505092915050565b5f8115159050919050565b612a5e81612a4a565b82525050565b5f602082019050612a775f830184612a55565b92915050565b5f60208284031215612a9257612a916128cf565b5b5f612a9f84828501612950565b91505092915050565b5f81519050919050565b5f82825260208201905092915050565b8281835e5f83830152505050565b5f601f19601f8301169050919050565b5f612aea82612aa8565b612af48185612ab2565b9350612b04818560208601612ac2565b612b0d81612ad0565b840191505092915050565b5f6020820190508181035f830152612b308184612ae0565b905092915050565b5f60208284031215612b4d57612b4c6128cf565b5b5f612b5a8482850161291d565b91505092915050565b5f819050919050565b5f612b86612b81612b7c846128d7565b612b63565b6128d7565b9050919050565b5f612b9782612b6c565b9050919050565b5f612ba882612b8d565b9050919050565b612bb881612b9e565b82525050565b5f602082019050612bd15f830184612baf565b92915050565b5f5ffd5b7f4e487b71000000000000000000000000000000000000000000000000000000005f52604160045260245ffd5b612c1182612ad0565b810181811067ffffffffffffffff82111715612c3057612c2f612bdb565b5b80604052505050565b5f612c426128c6565b9050612c4e8282612c08565b919050565b5f67ffffffffffffffff821115612c6d57612c6c612bdb565b5b602082029050602081019050919050565b5f5ffd5b5f612c94612c8f84612c53565b612c39565b90508083825260208201905060208402830185811115612cb757612cb6612c7e565b5b835b81811015612ce05780612ccc8882612950565b845260208401935050602081019050612cb9565b5050509392505050565b5f82601f830112612cfe57612cfd612bd7565b5b8135612d0e848260208601612c82565b91505092915050565b5f5ffd5b5f67ffffffffffffffff821115612d3557612d34612bdb565b5b612d3e82612ad0565b9050602081019050919050565b828183375f83830152505050565b5f612d6b612d6684612d1b565b612c39565b905082815260208101848484011115612d8757612d86612d17565b5b612d92848285612d4b565b509392505050565b5f82601f830112612dae57612dad612bd7565b5b8135612dbe848260208601612d59565b91505092915050565b5f5f5f5f5f60a08688031215612de057612ddf6128cf565b5b5f612ded8882890161291d565b9550506020612dfe8882890161291d565b945050604086013567ffffffffffffffff811115612e1f57612e1e6128d3565b5b612e2b88828901612cea565b935050606086013567ffffffffffffffff811115612e4c57612e4b6128d3565b5b612e5888828901612cea565b925050608086013567ffffffffffffffff811115612e7957612e786128d3565b5b612e8588828901612d9a565b9150509295509295909350565b5f81519050919050565b5f82825260208201905092915050565b5f819050602082019050919050565b612ec4816128f6565b82525050565b5f612ed58383612ebb565b60208301905092915050565b5f602082019050919050565b5f612ef782612e92565b612f018185612e9c565b9350612f0c83612eac565b805f5b83811015612f3c578151612f238882612eca565b9750612f2e83612ee1565b925050600181019050612f0f565b5085935050505092915050565b5f6020820190508181035f830152612f618184612eed565b905092915050565b5f67ffffffffffffffff82169050919050565b612f8581612f69565b8114612f8f575f5ffd5b50565b5f81359050612fa081612f7c565b92915050565b5f5f60408385031215612fbc57612fbb6128cf565b5b5f612fc985828601612950565b9250506020612fda85828601612f92565b9150509250929050565b5f67ffffffffffffffff821115612ffe57612ffd612bdb565b5b602082029050602081019050919050565b5f61302161301c84612fe4565b612c39565b9050808382526020820190506020840283018581111561304457613043612c7e565b5b835b8181101561306d5780613059888261291d565b845260208401935050602081019050613046565b5050509392505050565b5f82601f83011261308b5761308a612bd7565b5b813561309b84826020860161300f565b91505092915050565b5f5f604083850312156130ba576130b96128cf565b5b5f83013567ffffffffffffffff8111156130d7576130d66128d3565b5b6130e385828601613077565b925050602083013567ffffffffffffffff811115613104576131036128d3565b5b61311085828601612cea565b9150509250929050565b5f81519050919050565b5f82825260208201905092915050565b5f819050602082019050919050565b61314c81612931565b82525050565b5f61315d8383613143565b60208301905092915050565b5f602082019050919050565b5f61317f8261311a565b6131898185613124565b935061319483613134565b805f5b838110156131c45781516131ab8882613152565b97506131b683613169565b925050600181019050613197565b5085935050505092915050565b5f6020820190508181035f8301526131e98184613175565b905092915050565b5f5ffd5b5f5f83601f84011261320a57613209612bd7565b5b8235905067ffffffffffffffff811115613227576132266131f1565b5b60208301915083600182028301111561324357613242612c7e565b5b9250929050565b5f5f5f5f5f60808688031215613263576132626128cf565b5b5f6132708882890161291d565b955050602061328188828901612950565b945050604061329288828901612950565b935050606086013567ffffffffffffffff8111156132b3576132b26128d3565b5b6132bf888289016131f5565b92509250509295509295909350565b6132d7816128f6565b82525050565b5f6020820190506132f05f8301846132ce565b92915050565b5f5f83601f84011261330b5761330a612bd7565b5b8235905067ffffffffffffffff811115613328576133276131f1565b5b60208301915083600182028301111561334457613343612c7e565b5b9250929050565b5f5f5f5f5f5f5f60a0888a031215613366576133656128cf565b5b5f6133738a828b0161291d565b97505060206133848a828b01612950565b96505060406133958a828b01612950565b955050606088013567ffffffffffffffff8111156133b6576133b56128d3565b5b6133c28a828b016131f5565b9450945050608088013567ffffffffffffffff8111156133e5576133e46128d3565b5b6133f18a828b016132f6565b925092505092959891949750929550565b5f5f5f60608486031215613419576134186128cf565b5b5f61342686828701612950565b935050602061343786828701612f92565b92505060406134488682870161291d565b9150509250925092565b61345b81612a4a565b8114613465575f5ffd5b50565b5f8135905061347681613452565b92915050565b5f5f60408385031215613492576134916128cf565b5b5f61349f8582860161291d565b92505060206134b085828601613468565b9150509250929050565b6134c381612f69565b82525050565b5f6020820190506134dc5f8301846134ba565b92915050565b5f5f604083850312156134f8576134f76128cf565b5b5f6135058582860161291d565b92505060206135168582860161291d565b9150509250929050565b5f5f5f5f5f60a08688031215613539576135386128cf565b5b5f6135468882890161291d565b95505060206135578882890161291d565b945050604061356888828901612950565b935050606061357988828901612950565b925050608086013567ffffffffffffffff81111561359a576135996128d3565b5b6135a688828901612d9a565b9150509295509295909350565b5f5f5f606084860312156135ca576135c96128cf565b5b5f6135d78682870161291d565b93505060206135e886828701612950565b92505060406135f986828701612950565b9150509250925092565b7f4e487b71000000000000000000000000000000000000000000000000000000005f52602260045260245ffd5b5f600282049050600182168061364757607f821691505b60208210810361365a57613659613603565b5b50919050565b7f4e487b71000000000000000000000000000000000000000000000000000000005f52603260045260245ffd5b7f4e487b71000000000000000000000000000000000000000000000000000000005f52601160045260245ffd5b5f6136c482612931565b91506136cf83612931565b92508282039050818111156136e7576136e661368d565b5b92915050565b7f4e487b71000000000000000000000000000000000000000000000000000000005f52603160045260245ffd5b7f41646d696e206e6f7420666f756e6400000000000000000000000000000000005f82015250565b5f61374e600f83612ab2565b91506137598261371a565b602082019050919050565b5f6020820190508181035f83015261377b81613742565b9050919050565b7f455243313135353a204d69736d617463686564206172726179206c656e6774685f8201527f7300000000000000000000000000000000000000000000000000000000000000602082015250565b5f6137dc602183612ab2565b91506137e782613782565b604082019050919050565b5f6020820190508181035f830152613809816137d0565b9050919050565b7f455243313135353a207472616e7366657220746f20746865207a65726f2061645f8201527f6472657373000000000000000000000000000000000000000000000000000000602082015250565b5f61386a602583612ab2565b915061387582613810565b604082019050919050565b5f6020820190508181035f8301526138978161385e565b9050919050565b7f43616c6c6572206973206e6f7420616e2061646d696e000000000000000000005f82015250565b5f6138d2601683612ab2565b91506138dd8261389e565b602082019050919050565b5f6020820190508181035f8301526138ff816138c6565b9050919050565b7f746f6b656e20696420646f6573206e6f742065786973740000000000000000005f82015250565b5f61393a601783612ab2565b915061394582613906565b602082019050919050565b5f6020820190508181035f8301526139678161392e565b9050919050565b7f50726f6f66207265717565737420646f6573206e6f74206578697374000000005f82015250565b5f6139a2601c83612ab2565b91506139ad8261396e565b602082019050919050565b5f6020820190508181035f8301526139cf81613996565b9050919050565b5f6040820190506139e95f8301856129a2565b6139f660208301846129a2565b9392505050565b7f496e76616c6964206164647265737300000000000000000000000000000000005f82015250565b5f613a31600f83612ab2565b9150613a3c826139fd565b602082019050919050565b5f6020820190508181035f830152613a5e81613a25565b9050919050565b7f4164647265737320697320616c726561647920616e2061646d696e00000000005f82015250565b5f613a99601b83612ab2565b9150613aa482613a65565b602082019050919050565b5f6020820190508181035f830152613ac681613a8d565b9050919050565b5f82905092915050565b5f819050815f5260205f209050919050565b5f6020601f8301049050919050565b5f82821b905092915050565b5f60088302613b337fffffffffffffffffffffffffffffffffffffffffffffffffffffffffffffffff82613af8565b613b3d8683613af8565b95508019841693508086168417925050509392505050565b5f613b6f613b6a613b6584612931565b612b63565b612931565b9050919050565b5f819050919050565b613b8883613b55565b613b9c613b9482613b76565b848454613b04565b825550505050565b5f5f905090565b613bb3613ba4565b613bbe818484613b7f565b505050565b5b81811015613be157613bd65f82613bab565b600181019050613bc4565b5050565b601f821115613c2657613bf781613ad7565b613c0084613ae9565b81016020851015613c0f578190505b613c23613c1b85613ae9565b830182613bc3565b50505b505050565b5f82821c905092915050565b5f613c465f1984600802613c2b565b1980831691505092915050565b5f613c5e8383613c37565b9150826002028217905092915050565b613c788383613acd565b67ffffffffffffffff811115613c9157613c90612bdb565b5b613c9b8254613630565b613ca6828285613be5565b5f601f831160018114613cd3575f8415613cc1578287013590505b613ccb8582613c53565b865550613d32565b601f198416613ce186613ad7565b5f5b82811015613d0857848901358255600182019150602085019450602081019050613ce3565b86831015613d255784890135613d21601f891682613c37565b8355505b6001600288020188555050505b50505050505050565b7f50726f6f66207265717565737420616c726561647920657869737473000000005f82015250565b5f613d6f601c83612ab2565b9150613d7a82613d3b565b602082019050919050565b5f6020820190508181035f830152613d9c81613d63565b9050919050565b5f604082019050613db65f8301856132ce565b613dc360208301846134ba565b9392505050565b5f5ffd5b5f5ffd5b5f81519050613de081613452565b92915050565b5f67ffffffffffffffff821115613e0057613dff612bdb565b5b613e0982612ad0565b9050602081019050919050565b5f613e28613e2384613de6565b612c39565b905082815260208101848484011115613e4457613e43612d17565b5b613e4f848285612ac2565b509392505050565b5f82601f830112613e6b57613e6a612bd7565b5b8151613e7b848260208601613e16565b91505092915050565b5f81519050613e928161293a565b92915050565b5f60808284031215613ead57613eac613dca565b5b613eb76080612c39565b90505f613ec684828501613dd2565b5f83015250602082015167ffffffffffffffff811115613ee957613ee8613dce565b5b613ef584828501613e57565b6020830152506040613f0984828501613e84565b6040830152506060613f1d84828501613e84565b60608301525092915050565b5f60208284031215613f3e57613f3d6128cf565b5b5f82015167ffffffffffffffff811115613f5b57613f5a6128d3565b5b613f6784828501613e98565b91505092915050565b5f604082019050613f835f8301856134ba565b613f9060208301846132ce565b9392505050565b5f604082019050613faa5f8301856132ce565b613fb760208301846132ce565b9392505050565b5f608082019050613fd15f8301876132ce565b613fde60208301866129a2565b613feb60408301856129a2565b613ff860608301846129a2565b95945050505050565b5f61400b82612931565b915061401683612931565b925082820190508082111561402e5761402d61368d565b5b92915050565b5f6040820190508181035f83015261404c8185613175565b905081810360208301526140608184613175565b90509392505050565b5f81519050919050565b5f82825260208201905092915050565b5f61408d82614069565b6140978185614073565b93506140a7818560208601612ac2565b6140b081612ad0565b840191505092915050565b5f60a0820190506140ce5f8301886132ce565b6140db60208301876132ce565b6140e860408301866129a2565b6140f560608301856129a2565b81810360808301526141078184614083565b90509695505050505050565b5f81519050614121816129f5565b92915050565b5f6020828403121561413c5761413b6128cf565b5b5f61414984828501614113565b91505092915050565b5f60a0820190506141655f8301886132ce565b61417260208301876132ce565b81810360408301526141848186613175565b905081810360608301526141988185613175565b905081810360808301526141ac8184614083565b9050969550505050505056fea26469706673582212208ed04b8ffd11bdef641aa7a88f3c65a89f93bbc368860630c1064e585e6594d164736f6c634300081b0033",
		"opcodes": "PUSH1 0x80 PUSH1 0x40 MSTORE CALLVALUE DUP1 ISZERO PUSH2 0xF JUMPI PUSH0 PUSH0 REVERT JUMPDEST POP PUSH1 0x40 MLOAD PUSH2 0x4931 CODESIZE SUB DUP1 PUSH2 0x4931 DUP4 CODECOPY DUP2 DUP2 ADD PUSH1 0x40 MSTORE DUP2 ADD SWAP1 PUSH2 0x31 SWAP2 SWAP1 PUSH2 0x3C3 JUMP JUMPDEST DUP2 DUP2 PUSH2 0x42 DUP2 PUSH2 0x10B PUSH1 0x20 SHL PUSH1 0x20 SHR JUMP JUMPDEST POP PUSH0 PUSH20 0xFFFFFFFFFFFFFFFFFFFFFFFFFFFFFFFFFFFFFFFF AND DUP2 PUSH20 0xFFFFFFFFFFFFFFFFFFFFFFFFFFFFFFFFFFFFFFFF AND SUB PUSH2 0xB3 JUMPI PUSH0 PUSH1 0x40 MLOAD PUSH32 0x1E4FBDF700000000000000000000000000000000000000000000000000000000 DUP2 MSTORE PUSH1 0x4 ADD PUSH2 0xAA SWAP2 SWAP1 PUSH2 0x43E JUMP JUMPDEST PUSH1 0x40 MLOAD DUP1 SWAP2 SUB SWAP1 REVERT JUMPDEST PUSH2 0xC2 DUP2 PUSH2 0x11E PUSH1 0x20 SHL PUSH1 0x20 SHR JUMP JUMPDEST POP DUP3 PUSH1 0xA PUSH0 PUSH2 0x100 EXP DUP2 SLOAD DUP2 PUSH20 0xFFFFFFFFFFFFFFFFFFFFFFFFFFFFFFFFFFFFFFFF MUL NOT AND SWAP1 DUP4 PUSH20 0xFFFFFFFFFFFFFFFFFFFFFFFFFFFFFFFFFFFFFFFF AND MUL OR SWAP1 SSTORE POP POP POP POP PUSH2 0x736 JUMP JUMPDEST DUP1 PUSH1 0x2 SWAP1 DUP2 PUSH2 0x11A SWAP2 SWAP1 PUSH2 0x667 JUMP JUMPDEST POP POP JUMP JUMPDEST PUSH0 PUSH1 0x3 PUSH0 SWAP1 SLOAD SWAP1 PUSH2 0x100 EXP SWAP1 DIV PUSH20 0xFFFFFFFFFFFFFFFFFFFFFFFFFFFFFFFFFFFFFFFF AND SWAP1 POP DUP2 PUSH1 0x3 PUSH0 PUSH2 0x100 EXP DUP2 SLOAD DUP2 PUSH20 0xFFFFFFFFFFFFFFFFFFFFFFFFFFFFFFFFFFFFFFFF MUL NOT AND SWAP1 DUP4 PUSH20 0xFFFFFFFFFFFFFFFFFFFFFFFFFFFFFFFFFFFFFFFF AND MUL OR SWAP1 SSTORE POP DUP2 PUSH20 0xFFFFFFFFFFFFFFFFFFFFFFFFFFFFFFFFFFFFFFFF AND DUP2 PUSH20 0xFFFFFFFFFFFFFFFFFFFFFFFFFFFFFFFFFFFFFFFF AND PUSH32 0x8BE0079C531659141344CD1FD0A4F28419497F9722A3DAAFE3B4186F6B6457E0 PUSH1 0x40 MLOAD PUSH1 0x40 MLOAD DUP1 SWAP2 SUB SWAP1 LOG3 POP POP JUMP JUMPDEST PUSH0 PUSH1 0x40 MLOAD SWAP1 POP SWAP1 JUMP JUMPDEST PUSH0 PUSH0 REVERT JUMPDEST PUSH0 PUSH0 REVERT JUMPDEST PUSH0 PUSH20 0xFFFFFFFFFFFFFFFFFFFFFFFFFFFFFFFFFFFFFFFF DUP3 AND SWAP1 POP SWAP2 SWAP1 POP JUMP JUMPDEST PUSH0 PUSH2 0x21B DUP3 PUSH2 0x1F2 JUMP JUMPDEST SWAP1 POP SWAP2 SWAP1 POP JUMP JUMPDEST PUSH0 PUSH2 0x22C DUP3 PUSH2 0x211 JUMP JUMPDEST SWAP1 POP SWAP2 SWAP1 POP JUMP JUMPDEST PUSH2 0x23C DUP2 PUSH2 0x222 JUMP JUMPDEST DUP2 EQ PUSH2 0x246 JUMPI PUSH0 PUSH0 REVERT JUMPDEST POP JUMP JUMPDEST PUSH0 DUP2 MLOAD SWAP1 POP PUSH2 0x257 DUP2 PUSH2 0x233 JUMP JUMPDEST SWAP3 SWAP2 POP POP JUMP JUMPDEST PUSH2 0x266 DUP2 PUSH2 0x211 JUMP JUMPDEST DUP2 EQ PUSH2 0x270 JUMPI PUSH0 PUSH0 REVERT JUMPDEST POP JUMP JUMPDEST PUSH0 DUP2 MLOAD SWAP1 POP PUSH2 0x281 DUP2 PUSH2 0x25D JUMP JUMPDEST SWAP3 SWAP2 POP POP JUMP JUMPDEST PUSH0 PUSH0 REVERT JUMPDEST PUSH0 PUSH0 REVERT JUMPDEST PUSH0 PUSH1 0x1F NOT PUSH1 0x1F DUP4 ADD AND SWAP1 POP SWAP2 SWAP1 POP JUMP JUMPDEST PUSH32 0x4E487B7100000000000000000000000000000000000000000000000000000000 PUSH0 MSTORE PUSH1 0x41 PUSH1 0x4 MSTORE PUSH1 0x24 PUSH0 REVERT JUMPDEST PUSH2 0x2D5 DUP3 PUSH2 0x28F JUMP JUMPDEST DUP2 ADD DUP2 DUP2 LT PUSH8 0xFFFFFFFFFFFFFFFF DUP3 GT OR ISZERO PUSH2 0x2F4 JUMPI PUSH2 0x2F3 PUSH2 0x29F JUMP JUMPDEST JUMPDEST DUP1 PUSH1 0x40 MSTORE POP POP POP JUMP JUMPDEST PUSH0 PUSH2 0x306 PUSH2 0x1E1 JUMP JUMPDEST SWAP1 POP PUSH2 0x312 DUP3 DUP3 PUSH2 0x2CC JUMP JUMPDEST SWAP2 SWAP1 POP JUMP JUMPDEST PUSH0 PUSH8 0xFFFFFFFFFFFFFFFF DUP3 GT ISZERO PUSH2 0x331 JUMPI PUSH2 0x330 PUSH2 0x29F JUMP JUMPDEST JUMPDEST PUSH2 0x33A DUP3 PUSH2 0x28F JUMP JUMPDEST SWAP1 POP PUSH1 0x20 DUP2 ADD SWAP1 POP SWAP2 SWAP1 POP JUMP JUMPDEST DUP3 DUP2 DUP4 MCOPY PUSH0 DUP4 DUP4 ADD MSTORE POP POP POP JUMP JUMPDEST PUSH0 PUSH2 0x367 PUSH2 0x362 DUP5 PUSH2 0x317 JUMP JUMPDEST PUSH2 0x2FD JUMP JUMPDEST SWAP1 POP DUP3 DUP2 MSTORE PUSH1 0x20 DUP2 ADD DUP5 DUP5 DUP5 ADD GT ISZERO PUSH2 0x383 JUMPI PUSH2 0x382 PUSH2 0x28B JUMP JUMPDEST JUMPDEST PUSH2 0x38E DUP5 DUP3 DUP6 PUSH2 0x347 JUMP JUMPDEST POP SWAP4 SWAP3 POP POP POP JUMP JUMPDEST PUSH0 DUP3 PUSH1 0x1F DUP4 ADD SLT PUSH2 0x3AA JUMPI PUSH2 0x3A9 PUSH2 0x287 JUMP JUMPDEST JUMPDEST DUP2 MLOAD PUSH2 0x3BA DUP5 DUP3 PUSH1 0x20 DUP7 ADD PUSH2 0x355 JUMP JUMPDEST SWAP2 POP POP SWAP3 SWAP2 POP POP JUMP JUMPDEST PUSH0 PUSH0 PUSH0 PUSH1 0x60 DUP5 DUP7 SUB SLT ISZERO PUSH2 0x3DA JUMPI PUSH2 0x3D9 PUSH2 0x1EA JUMP JUMPDEST JUMPDEST PUSH0 PUSH2 0x3E7 DUP7 DUP3 DUP8 ADD PUSH2 0x249 JUMP JUMPDEST SWAP4 POP POP PUSH1 0x20 PUSH2 0x3F8 DUP7 DUP3 DUP8 ADD PUSH2 0x273 JUMP JUMPDEST SWAP3 POP POP PUSH1 0x40 DUP5 ADD MLOAD PUSH8 0xFFFFFFFFFFFFFFFF DUP2 GT ISZERO PUSH2 0x419 JUMPI PUSH2 0x418 PUSH2 0x1EE JUMP JUMPDEST JUMPDEST PUSH2 0x425 DUP7 DUP3 DUP8 ADD PUSH2 0x396 JUMP JUMPDEST SWAP2 POP POP SWAP3 POP SWAP3 POP SWAP3 JUMP JUMPDEST PUSH2 0x438 DUP2 PUSH2 0x211 JUMP JUMPDEST DUP3 MSTORE POP POP JUMP JUMPDEST PUSH0 PUSH1 0x20 DUP3 ADD SWAP1 POP PUSH2 0x451 PUSH0 DUP4 ADD DUP5 PUSH2 0x42F JUMP JUMPDEST SWAP3 SWAP2 POP POP JUMP JUMPDEST PUSH0 DUP2 MLOAD SWAP1 POP SWAP2 SWAP1 POP JUMP JUMPDEST PUSH32 0x4E487B7100000000000000000000000000000000000000000000000000000000 PUSH0 MSTORE PUSH1 0x22 PUSH1 0x4 MSTORE PUSH1 0x24 PUSH0 REVERT JUMPDEST PUSH0 PUSH1 0x2 DUP3 DIV SWAP1 POP PUSH1 0x1 DUP3 AND DUP1 PUSH2 0x4A5 JUMPI PUSH1 0x7F DUP3 AND SWAP2 POP JUMPDEST PUSH1 0x20 DUP3 LT DUP2 SUB PUSH2 0x4B8 JUMPI PUSH2 0x4B7 PUSH2 0x461 JUMP JUMPDEST JUMPDEST POP SWAP2 SWAP1 POP JUMP JUMPDEST PUSH0 DUP2 SWAP1 POP DUP2 PUSH0 MSTORE PUSH1 0x20 PUSH0 KECCAK256 SWAP1 POP SWAP2 SWAP1 POP JUMP JUMPDEST PUSH0 PUSH1 0x20 PUSH1 0x1F DUP4 ADD DIV SWAP1 POP SWAP2 SWAP1 POP JUMP JUMPDEST PUSH0 DUP3 DUP3 SHL SWAP1 POP SWAP3 SWAP2 POP POP JUMP JUMPDEST PUSH0 PUSH1 0x8 DUP4 MUL PUSH2 0x51A PUSH32 0xFFFFFFFFFFFFFFFFFFFFFFFFFFFFFFFFFFFFFFFFFFFFFFFFFFFFFFFFFFFFFFFF DUP3 PUSH2 0x4DF JUMP JUMPDEST PUSH2 0x524 DUP7 DUP4 PUSH2 0x4DF JUMP JUMPDEST SWAP6 POP DUP1 NOT DUP5 AND SWAP4 POP DUP1 DUP7 AND DUP5 OR SWAP3 POP POP POP SWAP4 SWAP3 POP POP POP JUMP JUMPDEST PUSH0 DUP2 SWAP1 POP SWAP2 SWAP1 POP JUMP JUMPDEST PUSH0 DUP2 SWAP1 POP SWAP2 SWAP1 POP JUMP JUMPDEST PUSH0 PUSH2 0x568 PUSH2 0x563 PUSH2 0x55E DUP5 PUSH2 0x53C JUMP JUMPDEST PUSH2 0x545 JUMP JUMPDEST PUSH2 0x53C JUMP JUMPDEST SWAP1 POP SWAP2 SWAP1 POP JUMP JUMPDEST PUSH0 DUP2 SWAP1 POP SWAP2 SWAP1 POP JUMP JUMPDEST PUSH2 0x581 DUP4 PUSH2 0x54E JUMP JUMPDEST PUSH2 0x595 PUSH2 0x58D DUP3 PUSH2 0x56F JUMP JUMPDEST DUP5 DUP5 SLOAD PUSH2 0x4EB JUMP JUMPDEST DUP3 SSTORE POP POP POP POP JUMP JUMPDEST PUSH0 PUSH0 SWAP1 POP SWAP1 JUMP JUMPDEST PUSH2 0x5AC PUSH2 0x59D JUMP JUMPDEST PUSH2 0x5B7 DUP2 DUP5 DUP5 PUSH2 0x578 JUMP JUMPDEST POP POP POP JUMP JUMPDEST JUMPDEST DUP2 DUP2 LT ISZERO PUSH2 0x5DA JUMPI PUSH2 0x5CF PUSH0 DUP3 PUSH2 0x5A4 JUMP JUMPDEST PUSH1 0x1 DUP2 ADD SWAP1 POP PUSH2 0x5BD JUMP JUMPDEST POP POP JUMP JUMPDEST PUSH1 0x1F DUP3 GT ISZERO PUSH2 0x61F JUMPI PUSH2 0x5F0 DUP2 PUSH2 0x4BE JUMP JUMPDEST PUSH2 0x5F9 DUP5 PUSH2 0x4D0 JUMP JUMPDEST DUP2 ADD PUSH1 0x20 DUP6 LT ISZERO PUSH2 0x608 JUMPI DUP2 SWAP1 POP JUMPDEST PUSH2 0x61C PUSH2 0x614 DUP6 PUSH2 0x4D0 JUMP JUMPDEST DUP4 ADD DUP3 PUSH2 0x5BC JUMP JUMPDEST POP POP JUMPDEST POP POP POP JUMP JUMPDEST PUSH0 DUP3 DUP3 SHR SWAP1 POP SWAP3 SWAP2 POP POP JUMP JUMPDEST PUSH0 PUSH2 0x63F PUSH0 NOT DUP5 PUSH1 0x8 MUL PUSH2 0x624 JUMP JUMPDEST NOT DUP1 DUP4 AND SWAP2 POP POP SWAP3 SWAP2 POP POP JUMP JUMPDEST PUSH0 PUSH2 0x657 DUP4 DUP4 PUSH2 0x630 JUMP JUMPDEST SWAP2 POP DUP3 PUSH1 0x2 MUL DUP3 OR SWAP1 POP SWAP3 SWAP2 POP POP JUMP JUMPDEST PUSH2 0x670 DUP3 PUSH2 0x457 JUMP JUMPDEST PUSH8 0xFFFFFFFFFFFFFFFF DUP2 GT ISZERO PUSH2 0x689 JUMPI PUSH2 0x688 PUSH2 0x29F JUMP JUMPDEST JUMPDEST PUSH2 0x693 DUP3 SLOAD PUSH2 0x48E JUMP JUMPDEST PUSH2 0x69E DUP3 DUP3 DUP6 PUSH2 0x5DE JUMP JUMPDEST PUSH0 PUSH1 0x20 SWAP1 POP PUSH1 0x1F DUP4 GT PUSH1 0x1 DUP2 EQ PUSH2 0x6CF JUMPI PUSH0 DUP5 ISZERO PUSH2 0x6BD JUMPI DUP3 DUP8 ADD MLOAD SWAP1 POP JUMPDEST PUSH2 0x6C7 DUP6 DUP3 PUSH2 0x64C JUMP JUMPDEST DUP7 SSTORE POP PUSH2 0x72E JUMP JUMPDEST PUSH1 0x1F NOT DUP5 AND PUSH2 0x6DD DUP7 PUSH2 0x4BE JUMP JUMPDEST PUSH0 JUMPDEST DUP3 DUP2 LT ISZERO PUSH2 0x704 JUMPI DUP5 DUP10 ADD MLOAD DUP3 SSTORE PUSH1 0x1 DUP3 ADD SWAP2 POP PUSH1 0x20 DUP6 ADD SWAP5 POP PUSH1 0x20 DUP2 ADD SWAP1 POP PUSH2 0x6DF JUMP JUMPDEST DUP7 DUP4 LT ISZERO PUSH2 0x721 JUMPI DUP5 DUP10 ADD MLOAD PUSH2 0x71D PUSH1 0x1F DUP10 AND DUP3 PUSH2 0x630 JUMP JUMPDEST DUP4 SSTORE POP JUMPDEST PUSH1 0x1 PUSH1 0x2 DUP9 MUL ADD DUP9 SSTORE POP POP POP JUMPDEST POP POP POP POP POP POP JUMP JUMPDEST PUSH2 0x41EE DUP1 PUSH2 0x743 PUSH0 CODECOPY PUSH0 RETURN INVALID PUSH1 0x80 PUSH1 0x40 MSTORE CALLVALUE DUP1 ISZERO PUSH2 0xF JUMPI PUSH0 PUSH0 REVERT JUMPDEST POP PUSH1 0x4 CALLDATASIZE LT PUSH2 0x18B JUMPI PUSH0 CALLDATALOAD PUSH1 0xE0 SHR DUP1 PUSH4 0x784008CE GT PUSH2 0xDC JUMPI DUP1 PUSH4 0xCF5219AD GT PUSH2 0x95 JUMPI DUP1 PUSH4 0xE985E9C5 GT PUSH2 0x6F JUMPI DUP1 PUSH4 0xE985E9C5 EQ PUSH2 0x47D JUMPI DUP1 PUSH4 0xF242432A EQ PUSH2 0x4AD JUMPI DUP1 PUSH4 0xF2FDE38B EQ PUSH2 0x4C9 JUMPI DUP1 PUSH4 0xF5298ACA EQ PUSH2 0x4E5 JUMPI PUSH2 0x18B JUMP JUMPDEST DUP1 PUSH4 0xCF5219AD EQ PUSH2 0x3FF JUMPI DUP1 PUSH4 0xD121CDC0 EQ PUSH2 0x41D JUMPI DUP1 PUSH4 0xE725F877 EQ PUSH2 0x44D JUMPI PUSH2 0x18B JUMP JUMPDEST DUP1 PUSH4 0x784008CE EQ PUSH2 0x33F JUMPI DUP1 PUSH4 0x8DA5CB5B EQ PUSH2 0x35D JUMPI DUP1 PUSH4 0x8E274A18 EQ PUSH2 0x37B JUMPI DUP1 PUSH4 0x9C5416F2 EQ PUSH2 0x397 JUMPI DUP1 PUSH4 0xA22CB465 EQ PUSH2 0x3B3 JUMPI DUP1 PUSH4 0xB9BBE916 EQ PUSH2 0x3CF JUMPI PUSH2 0x18B JUMP JUMPDEST DUP1 PUSH4 0x31AE450B GT PUSH2 0x149 JUMPI DUP1 PUSH4 0x5883861D GT PUSH2 0x123 JUMPI DUP1 PUSH4 0x5883861D EQ PUSH2 0x2DF JUMPI DUP1 PUSH4 0x70480275 EQ PUSH2 0x2FB JUMPI DUP1 PUSH4 0x715018A6 EQ PUSH2 0x317 JUMPI DUP1 PUSH4 0x7578B248 EQ PUSH2 0x321 JUMPI PUSH2 0x18B JUMP JUMPDEST DUP1 PUSH4 0x31AE450B EQ PUSH2 0x275 JUMPI DUP1 PUSH4 0x38E71640 EQ PUSH2 0x293 JUMPI DUP1 PUSH4 0x4E1273F4 EQ PUSH2 0x2AF JUMPI PUSH2 0x18B JUMP JUMPDEST DUP1 PUSH3 0xFDD58E EQ PUSH2 0x18F JUMPI DUP1 PUSH4 0x1FFC9A7 EQ PUSH2 0x1BF JUMPI DUP1 PUSH4 0xE89341C EQ PUSH2 0x1EF JUMPI DUP1 PUSH4 0x1785F53C EQ PUSH2 0x21F JUMPI DUP1 PUSH4 0x2B7AC3F3 EQ PUSH2 0x23B JUMPI DUP1 PUSH4 0x2EB2C2D6 EQ PUSH2 0x259 JUMPI JUMPDEST PUSH0 PUSH0 REVERT JUMPDEST PUSH2 0x1A9 PUSH1 0x4 DUP1 CALLDATASIZE SUB DUP2 ADD SWAP1 PUSH2 0x1A4 SWAP2 SWAP1 PUSH2 0x2964 JUMP JUMPDEST PUSH2 0x501 JUMP JUMPDEST PUSH1 0x40 MLOAD PUSH2 0x1B6 SWAP2 SWAP1 PUSH2 0x29B1 JUMP JUMPDEST PUSH1 0x40 MLOAD DUP1 SWAP2 SUB SWAP1 RETURN JUMPDEST PUSH2 0x1D9 PUSH1 0x4 DUP1 CALLDATASIZE SUB DUP2 ADD SWAP1 PUSH2 0x1D4 SWAP2 SWAP1 PUSH2 0x2A1F JUMP JUMPDEST PUSH2 0x556 JUMP JUMPDEST PUSH1 0x40 MLOAD PUSH2 0x1E6 SWAP2 SWAP1 PUSH2 0x2A64 JUMP JUMPDEST PUSH1 0x40 MLOAD DUP1 SWAP2 SUB SWAP1 RETURN JUMPDEST PUSH2 0x209 PUSH1 0x4 DUP1 CALLDATASIZE SUB DUP2 ADD SWAP1 PUSH2 0x204 SWAP2 SWAP1 PUSH2 0x2A7D JUMP JUMPDEST PUSH2 0x637 JUMP JUMPDEST PUSH1 0x40 MLOAD PUSH2 0x216 SWAP2 SWAP1 PUSH2 0x2B18 JUMP JUMPDEST PUSH1 0x40 MLOAD DUP1 SWAP2 SUB SWAP1 RETURN JUMPDEST PUSH2 0x239 PUSH1 0x4 DUP1 CALLDATASIZE SUB DUP2 ADD SWAP1 PUSH2 0x234 SWAP2 SWAP1 PUSH2 0x2B38 JUMP JUMPDEST PUSH2 0x6C9 JUMP JUMPDEST STOP JUMPDEST PUSH2 0x243 PUSH2 0x88D JUMP JUMPDEST PUSH1 0x40 MLOAD PUSH2 0x250 SWAP2 SWAP1 PUSH2 0x2BBE JUMP JUMPDEST PUSH1 0x40 MLOAD DUP1 SWAP2 SUB SWAP1 RETURN JUMPDEST PUSH2 0x273 PUSH1 0x4 DUP1 CALLDATASIZE SUB DUP2 ADD SWAP1 PUSH2 0x26E SWAP2 SWAP1 PUSH2 0x2DC7 JUMP JUMPDEST PUSH2 0x8B2 JUMP JUMPDEST STOP JUMPDEST PUSH2 0x27D PUSH2 0x9E9 JUMP JUMPDEST PUSH1 0x40 MLOAD PUSH2 0x28A SWAP2 SWAP1 PUSH2 0x2F49 JUMP JUMPDEST PUSH1 0x40 MLOAD DUP1 SWAP2 SUB SWAP1 RETURN JUMPDEST PUSH2 0x2AD PUSH1 0x4 DUP1 CALLDATASIZE SUB DUP2 ADD SWAP1 PUSH2 0x2A8 SWAP2 SWAP1 PUSH2 0x2FA6 JUMP JUMPDEST PUSH2 0xA7C JUMP JUMPDEST STOP JUMPDEST PUSH2 0x2C9 PUSH1 0x4 DUP1 CALLDATASIZE SUB DUP2 ADD SWAP1 PUSH2 0x2C4 SWAP2 SWAP1 PUSH2 0x30A4 JUMP JUMPDEST PUSH2 0xD8B JUMP JUMPDEST PUSH1 0x40 MLOAD PUSH2 0x2D6 SWAP2 SWAP1 PUSH2 0x31D1 JUMP JUMPDEST PUSH1 0x40 MLOAD DUP1 SWAP2 SUB SWAP1 RETURN JUMPDEST PUSH2 0x2F9 PUSH1 0x4 DUP1 CALLDATASIZE SUB DUP2 ADD SWAP1 PUSH2 0x2F4 SWAP2 SWAP1 PUSH2 0x324A JUMP JUMPDEST PUSH2 0xE95 JUMP JUMPDEST STOP JUMPDEST PUSH2 0x315 PUSH1 0x4 DUP1 CALLDATASIZE SUB DUP2 ADD SWAP1 PUSH2 0x310 SWAP2 SWAP1 PUSH2 0x2B38 JUMP JUMPDEST PUSH2 0xF48 JUMP JUMPDEST STOP JUMPDEST PUSH2 0x31F PUSH2 0x106A JUMP JUMPDEST STOP JUMPDEST PUSH2 0x329 PUSH2 0x107D JUMP JUMPDEST PUSH1 0x40 MLOAD PUSH2 0x336 SWAP2 SWAP1 PUSH2 0x31D1 JUMP JUMPDEST PUSH1 0x40 MLOAD DUP1 SWAP2 SUB SWAP1 RETURN JUMPDEST PUSH2 0x347 PUSH2 0x108E JUMP JUMPDEST PUSH1 0x40 MLOAD PUSH2 0x354 SWAP2 SWAP1 PUSH2 0x29B1 JUMP JUMPDEST PUSH1 0x40 MLOAD DUP1 SWAP2 SUB SWAP1 RETURN JUMPDEST PUSH2 0x365 PUSH2 0x1093 JUMP JUMPDEST PUSH1 0x40 MLOAD PUSH2 0x372 SWAP2 SWAP1 PUSH2 0x32DD JUMP JUMPDEST PUSH1 0x40 MLOAD DUP1 SWAP2 SUB SWAP1 RETURN JUMPDEST PUSH2 0x395 PUSH1 0x4 DUP1 CALLDATASIZE SUB DUP2 ADD SWAP1 PUSH2 0x390 SWAP2 SWAP1 PUSH2 0x334B JUMP JUMPDEST PUSH2 0x10BB JUMP JUMPDEST STOP JUMPDEST PUSH2 0x3B1 PUSH1 0x4 DUP1 CALLDATASIZE SUB DUP2 ADD SWAP1 PUSH2 0x3AC SWAP2 SWAP1 PUSH2 0x3402 JUMP JUMPDEST PUSH2 0x1191 JUMP JUMPDEST STOP JUMPDEST PUSH2 0x3CD PUSH1 0x4 DUP1 CALLDATASIZE SUB DUP2 ADD SWAP1 PUSH2 0x3C8 SWAP2 SWAP1 PUSH2 0x347C JUMP JUMPDEST PUSH2 0x13B8 JUMP JUMPDEST STOP JUMPDEST PUSH2 0x3E9 PUSH1 0x4 DUP1 CALLDATASIZE SUB DUP2 ADD SWAP1 PUSH2 0x3E4 SWAP2 SWAP1 PUSH2 0x2FA6 JUMP JUMPDEST PUSH2 0x13CE JUMP JUMPDEST PUSH1 0x40 MLOAD PUSH2 0x3F6 SWAP2 SWAP1 PUSH2 0x32DD JUMP JUMPDEST PUSH1 0x40 MLOAD DUP1 SWAP2 SUB SWAP1 RETURN JUMPDEST PUSH2 0x407 PUSH2 0x140B JUMP JUMPDEST PUSH1 0x40 MLOAD PUSH2 0x414 SWAP2 SWAP1 PUSH2 0x29B1 JUMP JUMPDEST PUSH1 0x40 MLOAD DUP1 SWAP2 SUB SWAP1 RETURN JUMPDEST PUSH2 0x437 PUSH1 0x4 DUP1 CALLDATASIZE SUB DUP2 ADD SWAP1 PUSH2 0x432 SWAP2 SWAP1 PUSH2 0x2A7D JUMP JUMPDEST PUSH2 0x1410 JUMP JUMPDEST PUSH1 0x40 MLOAD PUSH2 0x444 SWAP2 SWAP1 PUSH2 0x34C9 JUMP JUMPDEST PUSH1 0x40 MLOAD DUP1 SWAP2 SUB SWAP1 RETURN JUMPDEST PUSH2 0x467 PUSH1 0x4 DUP1 CALLDATASIZE SUB DUP2 ADD SWAP1 PUSH2 0x462 SWAP2 SWAP1 PUSH2 0x2A7D JUMP JUMPDEST PUSH2 0x144B JUMP JUMPDEST PUSH1 0x40 MLOAD PUSH2 0x474 SWAP2 SWAP1 PUSH2 0x2B18 JUMP JUMPDEST PUSH1 0x40 MLOAD DUP1 SWAP2 SUB SWAP1 RETURN JUMPDEST PUSH2 0x497 PUSH1 0x4 DUP1 CALLDATASIZE SUB DUP2 ADD SWAP1 PUSH2 0x492 SWAP2 SWAP1 PUSH2 0x34E2 JUMP JUMPDEST PUSH2 0x14E6 JUMP JUMPDEST PUSH1 0x40 MLOAD PUSH2 0x4A4 SWAP2 SWAP1 PUSH2 0x2A64 JUMP JUMPDEST PUSH1 0x40 MLOAD DUP1 SWAP2 SUB SWAP1 RETURN JUMPDEST PUSH2 0x4C7 PUSH1 0x4 DUP1 CALLDATASIZE SUB DUP2 ADD SWAP1 PUSH2 0x4C2 SWAP2 SWAP1 PUSH2 0x3520 JUMP JUMPDEST PUSH2 0x1574 JUMP JUMPDEST STOP JUMPDEST PUSH2 0x4E3 PUSH1 0x4 DUP1 CALLDATASIZE SUB DUP2 ADD SWAP1 PUSH2 0x4DE SWAP2 SWAP1 PUSH2 0x2B38 JUMP JUMPDEST PUSH2 0x1591 JUMP JUMPDEST STOP JUMPDEST PUSH2 0x4FF PUSH1 0x4 DUP1 CALLDATASIZE SUB DUP2 ADD SWAP1 PUSH2 0x4FA SWAP2 SWAP1 PUSH2 0x35B3 JUMP JUMPDEST PUSH2 0x1615 JUMP JUMPDEST STOP JUMPDEST PUSH0 PUSH0 PUSH0 DUP4 DUP2 MSTORE PUSH1 0x20 ADD SWAP1 DUP2 MSTORE PUSH1 0x20 ADD PUSH0 KECCAK256 PUSH0 DUP5 PUSH20 0xFFFFFFFFFFFFFFFFFFFFFFFFFFFFFFFFFFFFFFFF AND PUSH20 0xFFFFFFFFFFFFFFFFFFFFFFFFFFFFFFFFFFFFFFFF AND DUP2 MSTORE PUSH1 0x20 ADD SWAP1 DUP2 MSTORE PUSH1 0x20 ADD PUSH0 KECCAK256 SLOAD SWAP1 POP SWAP3 SWAP2 POP POP JUMP JUMPDEST PUSH0 PUSH32 0xD9B67A2600000000000000000000000000000000000000000000000000000000 PUSH28 0xFFFFFFFFFFFFFFFFFFFFFFFFFFFFFFFFFFFFFFFFFFFFFFFFFFFFFFFF NOT AND DUP3 PUSH28 0xFFFFFFFFFFFFFFFFFFFFFFFFFFFFFFFFFFFFFFFFFFFFFFFFFFFFFFFF NOT AND EQ DUP1 PUSH2 0x620 JUMPI POP PUSH32 0xE89341C00000000000000000000000000000000000000000000000000000000 PUSH28 0xFFFFFFFFFFFFFFFFFFFFFFFFFFFFFFFFFFFFFFFFFFFFFFFFFFFFFFFF NOT AND DUP3 PUSH28 0xFFFFFFFFFFFFFFFFFFFFFFFFFFFFFFFFFFFFFFFFFFFFFFFFFFFFFFFF NOT AND EQ JUMPDEST DUP1 PUSH2 0x630 JUMPI POP PUSH2 0x62F DUP3 PUSH2 0x162D JUMP JUMPDEST JUMPDEST SWAP1 POP SWAP2 SWAP1 POP JUMP JUMPDEST PUSH1 0x60 PUSH1 0x2 DUP1 SLOAD PUSH2 0x646 SWAP1 PUSH2 0x3630 JUMP JUMPDEST DUP1 PUSH1 0x1F ADD PUSH1 0x20 DUP1 SWAP2 DIV MUL PUSH1 0x20 ADD PUSH1 0x40 MLOAD SWAP1 DUP2 ADD PUSH1 0x40 MSTORE DUP1 SWAP3 SWAP2 SWAP1 DUP2 DUP2 MSTORE PUSH1 0x20 ADD DUP3 DUP1 SLOAD PUSH2 0x672 SWAP1 PUSH2 0x3630 JUMP JUMPDEST DUP1 ISZERO PUSH2 0x6BD JUMPI DUP1 PUSH1 0x1F LT PUSH2 0x694 JUMPI PUSH2 0x100 DUP1 DUP4 SLOAD DIV MUL DUP4 MSTORE SWAP2 PUSH1 0x20 ADD SWAP2 PUSH2 0x6BD JUMP JUMPDEST DUP3 ADD SWAP2 SWAP1 PUSH0 MSTORE PUSH1 0x20 PUSH0 KECCAK256 SWAP1 JUMPDEST DUP2 SLOAD DUP2 MSTORE SWAP1 PUSH1 0x1 ADD SWAP1 PUSH1 0x20 ADD DUP1 DUP4 GT PUSH2 0x6A0 JUMPI DUP3 SWAP1 SUB PUSH1 0x1F AND DUP3 ADD SWAP2 JUMPDEST POP POP POP POP POP SWAP1 POP SWAP2 SWAP1 POP JUMP JUMPDEST PUSH2 0x6D1 PUSH2 0x1696 JUMP JUMPDEST PUSH0 PUSH1 0x4 DUP1 SLOAD SWAP1 POP SWAP1 POP PUSH0 PUSH0 SWAP1 POP JUMPDEST DUP2 DUP2 LT ISZERO PUSH2 0x84E JUMPI DUP3 PUSH20 0xFFFFFFFFFFFFFFFFFFFFFFFFFFFFFFFFFFFFFFFF AND PUSH1 0x4 DUP3 DUP2 SLOAD DUP2 LT PUSH2 0x712 JUMPI PUSH2 0x711 PUSH2 0x3660 JUMP JUMPDEST JUMPDEST SWAP1 PUSH0 MSTORE PUSH1 0x20 PUSH0 KECCAK256 ADD PUSH0 SWAP1 SLOAD SWAP1 PUSH2 0x100 EXP SWAP1 DIV PUSH20 0xFFFFFFFFFFFFFFFFFFFFFFFFFFFFFFFFFFFFFFFF AND PUSH20 0xFFFFFFFFFFFFFFFFFFFFFFFFFFFFFFFFFFFFFFFF AND SUB PUSH2 0x841 JUMPI PUSH1 0x4 PUSH1 0x1 DUP4 PUSH2 0x764 SWAP2 SWAP1 PUSH2 0x36BA JUMP JUMPDEST DUP2 SLOAD DUP2 LT PUSH2 0x775 JUMPI PUSH2 0x774 PUSH2 0x3660 JUMP JUMPDEST JUMPDEST SWAP1 PUSH0 MSTORE PUSH1 0x20 PUSH0 KECCAK256 ADD PUSH0 SWAP1 SLOAD SWAP1 PUSH2 0x100 EXP SWAP1 DIV PUSH20 0xFFFFFFFFFFFFFFFFFFFFFFFFFFFFFFFFFFFFFFFF AND PUSH1 0x4 DUP3 DUP2 SLOAD DUP2 LT PUSH2 0x7B1 JUMPI PUSH2 0x7B0 PUSH2 0x3660 JUMP JUMPDEST JUMPDEST SWAP1 PUSH0 MSTORE PUSH1 0x20 PUSH0 KECCAK256 ADD PUSH0 PUSH2 0x100 EXP DUP2 SLOAD DUP2 PUSH20 0xFFFFFFFFFFFFFFFFFFFFFFFFFFFFFFFFFFFFFFFF MUL NOT AND SWAP1 DUP4 PUSH20 0xFFFFFFFFFFFFFFFFFFFFFFFFFFFFFFFFFFFFFFFF AND MUL OR SWAP1 SSTORE POP PUSH1 0x4 DUP1 SLOAD DUP1 PUSH2 0x808 JUMPI PUSH2 0x807 PUSH2 0x36ED JUMP JUMPDEST JUMPDEST PUSH1 0x1 SWAP1 SUB DUP2 DUP2 SWAP1 PUSH0 MSTORE PUSH1 0x20 PUSH0 KECCAK256 ADD PUSH0 PUSH2 0x100 EXP DUP2 SLOAD SWAP1 PUSH20 0xFFFFFFFFFFFFFFFFFFFFFFFFFFFFFFFFFFFFFFFF MUL NOT AND SWAP1 SSTORE SWAP1 SSTORE POP POP PUSH2 0x88A JUMP JUMPDEST DUP1 DUP1 PUSH1 0x1 ADD SWAP2 POP POP PUSH2 0x6DF JUMP JUMPDEST POP PUSH1 0x40 MLOAD PUSH32 0x8C379A000000000000000000000000000000000000000000000000000000000 DUP2 MSTORE PUSH1 0x4 ADD PUSH2 0x881 SWAP1 PUSH2 0x3764 JUMP JUMPDEST PUSH1 0x40 MLOAD DUP1 SWAP2 SUB SWAP1 REVERT JUMPDEST POP JUMP JUMPDEST PUSH1 0xA PUSH0 SWAP1 SLOAD SWAP1 PUSH2 0x100 EXP SWAP1 DIV PUSH20 0xFFFFFFFFFFFFFFFFFFFFFFFFFFFFFFFFFFFFFFFF AND DUP2 JUMP JUMPDEST DUP2 MLOAD DUP4 MLOAD EQ PUSH2 0x8F6 JUMPI PUSH1 0x40 MLOAD PUSH32 0x8C379A000000000000000000000000000000000000000000000000000000000 DUP2 MSTORE PUSH1 0x4 ADD PUSH2 0x8ED SWAP1 PUSH2 0x37F2 JUMP JUMPDEST PUSH1 0x40 MLOAD DUP1 SWAP2 SUB SWAP1 REVERT JUMPDEST PUSH0 PUSH20 0xFFFFFFFFFFFFFFFFFFFFFFFFFFFFFFFFFFFFFFFF AND DUP5 PUSH20 0xFFFFFFFFFFFFFFFFFFFFFFFFFFFFFFFFFFFFFFFF AND SUB PUSH2 0x964 JUMPI PUSH1 0x40 MLOAD PUSH32 0x8C379A000000000000000000000000000000000000000000000000000000000 DUP2 MSTORE PUSH1 0x4 ADD PUSH2 0x95B SWAP1 PUSH2 0x3880 JUMP JUMPDEST PUSH1 0x40 MLOAD DUP1 SWAP2 SUB SWAP1 REVERT JUMPDEST PUSH0 PUSH0 SWAP1 POP JUMPDEST DUP4 MLOAD DUP2 LT ISZERO PUSH2 0x9E1 JUMPI PUSH2 0x995 DUP5 DUP3 DUP2 MLOAD DUP2 LT PUSH2 0x988 JUMPI PUSH2 0x987 PUSH2 0x3660 JUMP JUMPDEST JUMPDEST PUSH1 0x20 MUL PUSH1 0x20 ADD ADD MLOAD PUSH2 0x171D JUMP JUMPDEST PUSH2 0x9D6 DUP7 DUP7 DUP7 DUP5 DUP2 MLOAD DUP2 LT PUSH2 0x9AD JUMPI PUSH2 0x9AC PUSH2 0x3660 JUMP JUMPDEST JUMPDEST PUSH1 0x20 MUL PUSH1 0x20 ADD ADD MLOAD DUP7 DUP6 DUP2 MLOAD DUP2 LT PUSH2 0x9C8 JUMPI PUSH2 0x9C7 PUSH2 0x3660 JUMP JUMPDEST JUMPDEST PUSH1 0x20 MUL PUSH1 0x20 ADD ADD MLOAD DUP7 PUSH2 0x1574 JUMP JUMPDEST DUP1 PUSH1 0x1 ADD SWAP1 POP PUSH2 0x969 JUMP JUMPDEST POP POP POP POP POP POP JUMP JUMPDEST PUSH1 0x60 PUSH2 0x9F3 PUSH2 0x1696 JUMP JUMPDEST PUSH1 0x4 DUP1 SLOAD DUP1 PUSH1 0x20 MUL PUSH1 0x20 ADD PUSH1 0x40 MLOAD SWAP1 DUP2 ADD PUSH1 0x40 MSTORE DUP1 SWAP3 SWAP2 SWAP1 DUP2 DUP2 MSTORE PUSH1 0x20 ADD DUP3 DUP1 SLOAD DUP1 ISZERO PUSH2 0xA72 JUMPI PUSH1 0x20 MUL DUP3 ADD SWAP2 SWAP1 PUSH0 MSTORE PUSH1 0x20 PUSH0 KECCAK256 SWAP1 JUMPDEST DUP2 PUSH0 SWAP1 SLOAD SWAP1 PUSH2 0x100 EXP SWAP1 DIV PUSH20 0xFFFFFFFFFFFFFFFFFFFFFFFFFFFFFFFFFFFFFFFF AND PUSH20 0xFFFFFFFFFFFFFFFFFFFFFFFFFFFFFFFFFFFFFFFF AND DUP2 MSTORE PUSH1 0x20 ADD SWAP1 PUSH1 0x1 ADD SWAP1 DUP1 DUP4 GT PUSH2 0xA29 JUMPI JUMPDEST POP POP POP POP POP SWAP1 POP SWAP1 JUMP JUMPDEST PUSH2 0xA85 CALLER PUSH2 0x19ED JUMP JUMPDEST PUSH2 0xAC4 JUMPI PUSH1 0x40 MLOAD PUSH32 0x8C379A000000000000000000000000000000000000000000000000000000000 DUP2 MSTORE PUSH1 0x4 ADD PUSH2 0xABB SWAP1 PUSH2 0x38E8 JUMP JUMPDEST PUSH1 0x40 MLOAD DUP1 SWAP2 SUB SWAP1 REVERT JUMPDEST PUSH2 0xAD8 DUP3 PUSH1 0x5 PUSH2 0x1A8F SWAP1 SWAP2 SWAP1 PUSH4 0xFFFFFFFF AND JUMP JUMPDEST PUSH2 0xB17 JUMPI PUSH1 0x40 MLOAD PUSH32 0x8C379A000000000000000000000000000000000000000000000000000000000 DUP2 MSTORE PUSH1 0x4 ADD PUSH2 0xB0E SWAP1 PUSH2 0x3950 JUMP JUMPDEST PUSH1 0x40 MLOAD DUP1 SWAP2 SUB SWAP1 REVERT JUMPDEST PUSH0 PUSH20 0xFFFFFFFFFFFFFFFFFFFFFFFFFFFFFFFFFFFFFFFF AND PUSH1 0x8 PUSH0 DUP5 DUP2 MSTORE PUSH1 0x20 ADD SWAP1 DUP2 MSTORE PUSH1 0x20 ADD PUSH0 KECCAK256 PUSH0 DUP4 PUSH8 0xFFFFFFFFFFFFFFFF AND PUSH8 0xFFFFFFFFFFFFFFFF AND DUP2 MSTORE PUSH1 0x20 ADD SWAP1 DUP2 MSTORE PUSH1 0x20 ADD PUSH0 KECCAK256 PUSH0 SWAP1 SLOAD SWAP1 PUSH2 0x100 EXP SWAP1 DIV PUSH20 0xFFFFFFFFFFFFFFFFFFFFFFFFFFFFFFFFFFFFFFFF AND PUSH20 0xFFFFFFFFFFFFFFFFFFFFFFFFFFFFFFFFFFFFFFFF AND SUB PUSH2 0xBD8 JUMPI PUSH1 0x40 MLOAD PUSH32 0x8C379A000000000000000000000000000000000000000000000000000000000 DUP2 MSTORE PUSH1 0x4 ADD PUSH2 0xBCF SWAP1 PUSH2 0x39B8 JUMP JUMPDEST PUSH1 0x40 MLOAD DUP1 SWAP2 SUB SWAP1 REVERT JUMPDEST PUSH1 0x8 PUSH0 DUP4 DUP2 MSTORE PUSH1 0x20 ADD SWAP1 DUP2 MSTORE PUSH1 0x20 ADD PUSH0 KECCAK256 PUSH0 DUP3 PUSH8 0xFFFFFFFFFFFFFFFF AND PUSH8 0xFFFFFFFFFFFFFFFF AND DUP2 MSTORE PUSH1 0x20 ADD SWAP1 DUP2 MSTORE PUSH1 0x20 ADD PUSH0 KECCAK256 PUSH0 PUSH2 0x100 EXP DUP2 SLOAD SWAP1 PUSH20 0xFFFFFFFFFFFFFFFFFFFFFFFFFFFFFFFFFFFFFFFF MUL NOT AND SWAP1 SSTORE PUSH0 PUSH0 SWAP1 POP JUMPDEST PUSH1 0x9 DUP1 SLOAD SWAP1 POP DUP2 LT ISZERO PUSH2 0xD86 JUMPI DUP2 PUSH8 0xFFFFFFFFFFFFFFFF AND PUSH1 0x9 DUP3 DUP2 SLOAD DUP2 LT PUSH2 0xC5F JUMPI PUSH2 0xC5E PUSH2 0x3660 JUMP JUMPDEST JUMPDEST SWAP1 PUSH0 MSTORE PUSH1 0x20 PUSH0 KECCAK256 SWAP1 PUSH1 0x4 SWAP2 DUP3 DUP3 DIV ADD SWAP2 SWAP1 MOD PUSH1 0x8 MUL SWAP1 SLOAD SWAP1 PUSH2 0x100 EXP SWAP1 DIV PUSH8 0xFFFFFFFFFFFFFFFF AND PUSH8 0xFFFFFFFFFFFFFFFF AND SUB PUSH2 0xD79 JUMPI PUSH1 0x9 PUSH1 0x1 PUSH1 0x9 DUP1 SLOAD SWAP1 POP PUSH2 0xCAA SWAP2 SWAP1 PUSH2 0x36BA JUMP JUMPDEST DUP2 SLOAD DUP2 LT PUSH2 0xCBB JUMPI PUSH2 0xCBA PUSH2 0x3660 JUMP JUMPDEST JUMPDEST SWAP1 PUSH0 MSTORE PUSH1 0x20 PUSH0 KECCAK256 SWAP1 PUSH1 0x4 SWAP2 DUP3 DUP3 DIV ADD SWAP2 SWAP1 MOD PUSH1 0x8 MUL SWAP1 SLOAD SWAP1 PUSH2 0x100 EXP SWAP1 DIV PUSH8 0xFFFFFFFFFFFFFFFF AND PUSH1 0x9 DUP3 DUP2 SLOAD DUP2 LT PUSH2 0xCF7 JUMPI PUSH2 0xCF6 PUSH2 0x3660 JUMP JUMPDEST JUMPDEST SWAP1 PUSH0 MSTORE PUSH1 0x20 PUSH0 KECCAK256 SWAP1 PUSH1 0x4 SWAP2 DUP3 DUP3 DIV ADD SWAP2 SWAP1 MOD PUSH1 0x8 MUL PUSH2 0x100 EXP DUP2 SLOAD DUP2 PUSH8 0xFFFFFFFFFFFFFFFF MUL NOT AND SWAP1 DUP4 PUSH8 0xFFFFFFFFFFFFFFFF AND MUL OR SWAP1 SSTORE POP PUSH1 0x9 DUP1 SLOAD DUP1 PUSH2 0xD42 JUMPI PUSH2 0xD41 PUSH2 0x36ED JUMP JUMPDEST JUMPDEST PUSH1 0x1 SWAP1 SUB DUP2 DUP2 SWAP1 PUSH0 MSTORE PUSH1 0x20 PUSH0 KECCAK256 SWAP1 PUSH1 0x4 SWAP2 DUP3 DUP3 DIV ADD SWAP2 SWAP1 MOD PUSH1 0x8 MUL PUSH2 0x100 EXP DUP2 SLOAD SWAP1 PUSH8 0xFFFFFFFFFFFFFFFF MUL NOT AND SWAP1 SSTORE SWAP1 SSTORE PUSH2 0xD86 JUMP JUMPDEST DUP1 DUP1 PUSH1 0x1 ADD SWAP2 POP POP PUSH2 0xC33 JUMP JUMPDEST POP POP POP JUMP JUMPDEST PUSH1 0x60 DUP2 MLOAD DUP4 MLOAD EQ PUSH2 0xDD7 JUMPI DUP2 MLOAD DUP4 MLOAD PUSH1 0x40 MLOAD PUSH32 0x5B05999100000000000000000000000000000000000000000000000000000000 DUP2 MSTORE PUSH1 0x4 ADD PUSH2 0xDCE SWAP3 SWAP2 SWAP1 PUSH2 0x39D6 JUMP JUMPDEST PUSH1 0x40 MLOAD DUP1 SWAP2 SUB SWAP1 REVERT JUMPDEST PUSH0 DUP4 MLOAD PUSH8 0xFFFFFFFFFFFFFFFF DUP2 GT ISZERO PUSH2 0xDF3 JUMPI PUSH2 0xDF2 PUSH2 0x2BDB JUMP JUMPDEST JUMPDEST PUSH1 0x40 MLOAD SWAP1 DUP1 DUP3 MSTORE DUP1 PUSH1 0x20 MUL PUSH1 0x20 ADD DUP3 ADD PUSH1 0x40 MSTORE DUP1 ISZERO PUSH2 0xE21 JUMPI DUP2 PUSH1 0x20 ADD PUSH1 0x20 DUP3 MUL DUP1 CALLDATASIZE DUP4 CALLDATACOPY DUP1 DUP3 ADD SWAP2 POP POP SWAP1 POP JUMPDEST POP SWAP1 POP PUSH0 PUSH0 SWAP1 POP JUMPDEST DUP5 MLOAD DUP2 LT ISZERO PUSH2 0xE8A JUMPI PUSH2 0xE60 PUSH2 0xE48 DUP3 DUP8 PUSH2 0x1AA6 SWAP1 SWAP2 SWAP1 PUSH4 0xFFFFFFFF AND JUMP JUMPDEST PUSH2 0xE5B DUP4 DUP8 PUSH2 0x1AB9 SWAP1 SWAP2 SWAP1 PUSH4 0xFFFFFFFF AND JUMP JUMPDEST PUSH2 0x501 JUMP JUMPDEST DUP3 DUP3 DUP2 MLOAD DUP2 LT PUSH2 0xE73 JUMPI PUSH2 0xE72 PUSH2 0x3660 JUMP JUMPDEST JUMPDEST PUSH1 0x20 MUL PUSH1 0x20 ADD ADD DUP2 DUP2 MSTORE POP POP DUP1 PUSH1 0x1 ADD SWAP1 POP PUSH2 0xE29 JUMP JUMPDEST POP DUP1 SWAP2 POP POP SWAP3 SWAP2 POP POP JUMP JUMPDEST PUSH2 0xE9D PUSH2 0x1696 JUMP JUMPDEST PUSH2 0xEB1 DUP5 PUSH1 0x5 PUSH2 0x1A8F SWAP1 SWAP2 SWAP1 PUSH4 0xFFFFFFFF AND JUMP JUMPDEST PUSH2 0xEF2 JUMPI DUP4 PUSH1 0x40 MLOAD PUSH32 0xD60B1C2400000000000000000000000000000000000000000000000000000000 DUP2 MSTORE PUSH1 0x4 ADD PUSH2 0xEE9 SWAP2 SWAP1 PUSH2 0x29B1 JUMP JUMPDEST PUSH1 0x40 MLOAD DUP1 SWAP2 SUB SWAP1 REVERT JUMPDEST PUSH2 0xF41 DUP6 DUP6 DUP6 DUP6 DUP6 DUP1 DUP1 PUSH1 0x1F ADD PUSH1 0x20 DUP1 SWAP2 DIV MUL PUSH1 0x20 ADD PUSH1 0x40 MLOAD SWAP1 DUP2 ADD PUSH1 0x40 MSTORE DUP1 SWAP4 SWAP3 SWAP2 SWAP1 DUP2 DUP2 MSTORE PUSH1 0x20 ADD DUP4 DUP4 DUP1 DUP3 DUP5 CALLDATACOPY PUSH0 DUP2 DUP5 ADD MSTORE PUSH1 0x1F NOT PUSH1 0x1F DUP3 ADD AND SWAP1 POP DUP1 DUP4 ADD SWAP3 POP POP POP POP POP POP POP PUSH2 0x1ACC JUMP JUMPDEST POP POP POP POP POP JUMP JUMPDEST PUSH2 0xF50 PUSH2 0x1696 JUMP JUMPDEST PUSH0 PUSH20 0xFFFFFFFFFFFFFFFFFFFFFFFFFFFFFFFFFFFFFFFF AND DUP2 PUSH20 0xFFFFFFFFFFFFFFFFFFFFFFFFFFFFFFFFFFFFFFFF AND SUB PUSH2 0xFBE JUMPI PUSH1 0x40 MLOAD PUSH32 0x8C379A000000000000000000000000000000000000000000000000000000000 DUP2 MSTORE PUSH1 0x4 ADD PUSH2 0xFB5 SWAP1 PUSH2 0x3A47 JUMP JUMPDEST PUSH1 0x40 MLOAD DUP1 SWAP2 SUB SWAP1 REVERT JUMPDEST PUSH2 0xFC7 DUP2 PUSH2 0x19ED JUMP JUMPDEST ISZERO PUSH2 0x1007 JUMPI PUSH1 0x40 MLOAD PUSH32 0x8C379A000000000000000000000000000000000000000000000000000000000 DUP2 MSTORE PUSH1 0x4 ADD PUSH2 0xFFE SWAP1 PUSH2 0x3AAF JUMP JUMPDEST PUSH1 0x40 MLOAD DUP1 SWAP2 SUB SWAP1 REVERT JUMPDEST PUSH1 0x4 DUP2 SWAP1 DUP1 PUSH1 0x1 DUP2 SLOAD ADD DUP1 DUP3 SSTORE DUP1 SWAP2 POP POP PUSH1 0x1 SWAP1 SUB SWAP1 PUSH0 MSTORE PUSH1 0x20 PUSH0 KECCAK256 ADD PUSH0 SWAP1 SWAP2 SWAP1 SWAP2 SWAP1 SWAP2 PUSH2 0x100 EXP DUP2 SLOAD DUP2 PUSH20 0xFFFFFFFFFFFFFFFFFFFFFFFFFFFFFFFFFFFFFFFF MUL NOT AND SWAP1 DUP4 PUSH20 0xFFFFFFFFFFFFFFFFFFFFFFFFFFFFFFFFFFFFFFFF AND MUL OR SWAP1 SSTORE POP POP JUMP JUMPDEST PUSH2 0x1072 PUSH2 0x1696 JUMP JUMPDEST PUSH2 0x107B PUSH0 PUSH2 0x1B61 JUMP JUMPDEST JUMP JUMPDEST PUSH1 0x60 PUSH2 0x1089 PUSH1 0x5 PUSH2 0x1C24 JUMP JUMPDEST SWAP1 POP SWAP1 JUMP JUMPDEST PUSH1 0x1 DUP2 JUMP JUMPDEST PUSH0 PUSH1 0x3 PUSH0 SWAP1 SLOAD SWAP1 PUSH2 0x100 EXP SWAP1 DIV PUSH20 0xFFFFFFFFFFFFFFFFFFFFFFFFFFFFFFFFFFFFFFFF AND SWAP1 POP SWAP1 JUMP JUMPDEST PUSH2 0x10C3 PUSH2 0x1696 JUMP JUMPDEST PUSH2 0x10D7 DUP7 PUSH1 0x5 PUSH2 0x1C43 SWAP1 SWAP2 SWAP1 PUSH4 0xFFFFFFFF AND JUMP JUMPDEST PUSH2 0x1118 JUMPI DUP6 PUSH1 0x40 MLOAD PUSH32 0x453D47F500000000000000000000000000000000000000000000000000000000 DUP2 MSTORE PUSH1 0x4 ADD PUSH2 0x110F SWAP2 SWAP1 PUSH2 0x29B1 JUMP JUMPDEST PUSH1 0x40 MLOAD DUP1 SWAP2 SUB SWAP1 REVERT JUMPDEST PUSH2 0x1167 DUP8 DUP8 DUP8 DUP8 DUP8 DUP1 DUP1 PUSH1 0x1F ADD PUSH1 0x20 DUP1 SWAP2 DIV MUL PUSH1 0x20 ADD PUSH1 0x40 MLOAD SWAP1 DUP2 ADD PUSH1 0x40 MSTORE DUP1 SWAP4 SWAP3 SWAP2 SWAP1 DUP2 DUP2 MSTORE PUSH1 0x20 ADD DUP4 DUP4 DUP1 DUP3 DUP5 CALLDATACOPY PUSH0 DUP2 DUP5 ADD MSTORE PUSH1 0x1F NOT PUSH1 0x1F DUP3 ADD AND SWAP1 POP DUP1 DUP4 ADD SWAP3 POP POP POP POP POP POP POP PUSH2 0x1ACC JUMP JUMPDEST DUP2 DUP2 PUSH1 0x7 PUSH0 DUP10 DUP2 MSTORE PUSH1 0x20 ADD SWAP1 DUP2 MSTORE PUSH1 0x20 ADD PUSH0 KECCAK256 SWAP2 DUP3 PUSH2 0x1187 SWAP3 SWAP2 SWAP1 PUSH2 0x3C6E JUMP JUMPDEST POP POP POP POP POP POP POP POP JUMP JUMPDEST PUSH2 0x119A CALLER PUSH2 0x19ED JUMP JUMPDEST PUSH2 0x11D9 JUMPI PUSH1 0x40 MLOAD PUSH32 0x8C379A000000000000000000000000000000000000000000000000000000000 DUP2 MSTORE PUSH1 0x4 ADD PUSH2 0x11D0 SWAP1 PUSH2 0x38E8 JUMP JUMPDEST PUSH1 0x40 MLOAD DUP1 SWAP2 SUB SWAP1 REVERT JUMPDEST PUSH2 0x11ED DUP4 PUSH1 0x5 PUSH2 0x1A8F SWAP1 SWAP2 SWAP1 PUSH4 0xFFFFFFFF AND JUMP JUMPDEST PUSH2 0x122C JUMPI PUSH1 0x40 MLOAD PUSH32 0x8C379A000000000000000000000000000000000000000000000000000000000 DUP2 MSTORE PUSH1 0x4 ADD PUSH2 0x1223 SWAP1 PUSH2 0x3950 JUMP JUMPDEST PUSH1 0x40 MLOAD DUP1 SWAP2 SUB SWAP1 REVERT JUMPDEST PUSH0 PUSH20 0xFFFFFFFFFFFFFFFFFFFFFFFFFFFFFFFFFFFFFFFF AND PUSH1 0x8 PUSH0 DUP6 DUP2 MSTORE PUSH1 0x20 ADD SWAP1 DUP2 MSTORE PUSH1 0x20 ADD PUSH0 KECCAK256 PUSH0 DUP5 PUSH8 0xFFFFFFFFFFFFFFFF AND PUSH8 0xFFFFFFFFFFFFFFFF AND DUP2 MSTORE PUSH1 0x20 ADD SWAP1 DUP2 MSTORE PUSH1 0x20 ADD PUSH0 KECCAK256 PUSH0 SWAP1 SLOAD SWAP1 PUSH2 0x100 EXP SWAP1 DIV PUSH20 0xFFFFFFFFFFFFFFFFFFFFFFFFFFFFFFFFFFFFFFFF AND PUSH20 0xFFFFFFFFFFFFFFFFFFFFFFFFFFFFFFFFFFFFFFFF AND EQ PUSH2 0x12ED JUMPI PUSH1 0x40 MLOAD PUSH32 0x8C379A000000000000000000000000000000000000000000000000000000000 DUP2 MSTORE PUSH1 0x4 ADD PUSH2 0x12E4 SWAP1 PUSH2 0x3D85 JUMP JUMPDEST PUSH1 0x40 MLOAD DUP1 SWAP2 SUB SWAP1 REVERT JUMPDEST DUP1 PUSH1 0x8 PUSH0 DUP6 DUP2 MSTORE PUSH1 0x20 ADD SWAP1 DUP2 MSTORE PUSH1 0x20 ADD PUSH0 KECCAK256 PUSH0 DUP5 PUSH8 0xFFFFFFFFFFFFFFFF AND PUSH8 0xFFFFFFFFFFFFFFFF AND DUP2 MSTORE PUSH1 0x20 ADD SWAP1 DUP2 MSTORE PUSH1 0x20 ADD PUSH0 KECCAK256 PUSH0 PUSH2 0x100 EXP DUP2 SLOAD DUP2 PUSH20 0xFFFFFFFFFFFFFFFFFFFFFFFFFFFFFFFFFFFFFFFF MUL NOT AND SWAP1 DUP4 PUSH20 0xFFFFFFFFFFFFFFFFFFFFFFFFFFFFFFFFFFFFFFFF AND MUL OR SWAP1 SSTORE POP PUSH1 0x9 DUP3 SWAP1 DUP1 PUSH1 0x1 DUP2 SLOAD ADD DUP1 DUP3 SSTORE DUP1 SWAP2 POP POP PUSH1 0x1 SWAP1 SUB SWAP1 PUSH0 MSTORE PUSH1 0x20 PUSH0 KECCAK256 SWAP1 PUSH1 0x4 SWAP2 DUP3 DUP3 DIV ADD SWAP2 SWAP1 MOD PUSH1 0x8 MUL SWAP1 SWAP2 SWAP1 SWAP2 SWAP1 SWAP2 PUSH2 0x100 EXP DUP2 SLOAD DUP2 PUSH8 0xFFFFFFFFFFFFFFFF MUL NOT AND SWAP1 DUP4 PUSH8 0xFFFFFFFFFFFFFFFF AND MUL OR SWAP1 SSTORE POP POP POP POP JUMP JUMPDEST PUSH2 0x13CA PUSH2 0x13C3 PUSH2 0x1C5A JUMP JUMPDEST DUP4 DUP4 PUSH2 0x1C61 JUMP JUMPDEST POP POP JUMP JUMPDEST PUSH1 0x8 PUSH1 0x20 MSTORE DUP2 PUSH0 MSTORE PUSH1 0x40 PUSH0 KECCAK256 PUSH1 0x20 MSTORE DUP1 PUSH0 MSTORE PUSH1 0x40 PUSH0 KECCAK256 PUSH0 SWAP2 POP SWAP2 POP SWAP1 SLOAD SWAP1 PUSH2 0x100 EXP SWAP1 DIV PUSH20 0xFFFFFFFFFFFFFFFFFFFFFFFFFFFFFFFFFFFFFFFF AND DUP2 JUMP JUMPDEST PUSH1 0x2 DUP2 JUMP JUMPDEST PUSH1 0x9 DUP2 DUP2 SLOAD DUP2 LT PUSH2 0x141F JUMPI PUSH0 DUP1 REVERT JUMPDEST SWAP1 PUSH0 MSTORE PUSH1 0x20 PUSH0 KECCAK256 SWAP1 PUSH1 0x4 SWAP2 DUP3 DUP3 DIV ADD SWAP2 SWAP1 MOD PUSH1 0x8 MUL SWAP2 POP SLOAD SWAP1 PUSH2 0x100 EXP SWAP1 DIV PUSH8 0xFFFFFFFFFFFFFFFF AND DUP2 JUMP JUMPDEST PUSH1 0x7 PUSH1 0x20 MSTORE DUP1 PUSH0 MSTORE PUSH1 0x40 PUSH0 KECCAK256 PUSH0 SWAP2 POP SWAP1 POP DUP1 SLOAD PUSH2 0x1467 SWAP1 PUSH2 0x3630 JUMP JUMPDEST DUP1 PUSH1 0x1F ADD PUSH1 0x20 DUP1 SWAP2 DIV MUL PUSH1 0x20 ADD PUSH1 0x40 MLOAD SWAP1 DUP2 ADD PUSH1 0x40 MSTORE DUP1 SWAP3 SWAP2 SWAP1 DUP2 DUP2 MSTORE PUSH1 0x20 ADD DUP3 DUP1 SLOAD PUSH2 0x1493 SWAP1 PUSH2 0x3630 JUMP JUMPDEST DUP1 ISZERO PUSH2 0x14DE JUMPI DUP1 PUSH1 0x1F LT PUSH2 0x14B5 JUMPI PUSH2 0x100 DUP1 DUP4 SLOAD DIV MUL DUP4 MSTORE SWAP2 PUSH1 0x20 ADD SWAP2 PUSH2 0x14DE JUMP JUMPDEST DUP3 ADD SWAP2 SWAP1 PUSH0 MSTORE PUSH1 0x20 PUSH0 KECCAK256 SWAP1 JUMPDEST DUP2 SLOAD DUP2 MSTORE SWAP1 PUSH1 0x1 ADD SWAP1 PUSH1 0x20 ADD DUP1 DUP4 GT PUSH2 0x14C1 JUMPI DUP3 SWAP1 SUB PUSH1 0x1F AND DUP3 ADD SWAP2 JUMPDEST POP POP POP POP POP DUP2 JUMP JUMPDEST PUSH0 PUSH1 0x1 PUSH0 DUP5 PUSH20 0xFFFFFFFFFFFFFFFFFFFFFFFFFFFFFFFFFFFFFFFF AND PUSH20 0xFFFFFFFFFFFFFFFFFFFFFFFFFFFFFFFFFFFFFFFF AND DUP2 MSTORE PUSH1 0x20 ADD SWAP1 DUP2 MSTORE PUSH1 0x20 ADD PUSH0 KECCAK256 PUSH0 DUP4 PUSH20 0xFFFFFFFFFFFFFFFFFFFFFFFFFFFFFFFFFFFFFFFF AND PUSH20 0xFFFFFFFFFFFFFFFFFFFFFFFFFFFFFFFFFFFFFFFF AND DUP2 MSTORE PUSH1 0x20 ADD SWAP1 DUP2 MSTORE PUSH1 0x20 ADD PUSH0 KECCAK256 PUSH0 SWAP1 SLOAD SWAP1 PUSH2 0x100 EXP SWAP1 DIV PUSH1 0xFF AND SWAP1 POP SWAP3 SWAP2 POP POP JUMP JUMPDEST PUSH2 0x157D DUP4 PUSH2 0x171D JUMP JUMPDEST PUSH2 0x158A DUP6 DUP6 DUP6 DUP6 DUP6 PUSH2 0x1DCA JUMP JUMPDEST POP POP POP POP POP JUMP JUMPDEST PUSH2 0x1599 PUSH2 0x1696 JUMP JUMPDEST PUSH0 PUSH20 0xFFFFFFFFFFFFFFFFFFFFFFFFFFFFFFFFFFFFFFFF AND DUP2 PUSH20 0xFFFFFFFFFFFFFFFFFFFFFFFFFFFFFFFFFFFFFFFF AND SUB PUSH2 0x1609 JUMPI PUSH0 PUSH1 0x40 MLOAD PUSH32 0x1E4FBDF700000000000000000000000000000000000000000000000000000000 DUP2 MSTORE PUSH1 0x4 ADD PUSH2 0x1600 SWAP2 SWAP1 PUSH2 0x32DD JUMP JUMPDEST PUSH1 0x40 MLOAD DUP1 SWAP2 SUB SWAP1 REVERT JUMPDEST PUSH2 0x1612 DUP2 PUSH2 0x1B61 JUMP JUMPDEST POP JUMP JUMPDEST PUSH2 0x161D PUSH2 0x1696 JUMP JUMPDEST PUSH2 0x1628 DUP4 DUP4 DUP4 PUSH2 0x1E71 JUMP JUMPDEST POP POP POP JUMP JUMPDEST PUSH0 PUSH32 0x1FFC9A700000000000000000000000000000000000000000000000000000000 PUSH28 0xFFFFFFFFFFFFFFFFFFFFFFFFFFFFFFFFFFFFFFFFFFFFFFFFFFFFFFFF NOT AND DUP3 PUSH28 0xFFFFFFFFFFFFFFFFFFFFFFFFFFFFFFFFFFFFFFFFFFFFFFFFFFFFFFFF NOT AND EQ SWAP1 POP SWAP2 SWAP1 POP JUMP JUMPDEST PUSH2 0x169E PUSH2 0x1C5A JUMP JUMPDEST PUSH20 0xFFFFFFFFFFFFFFFFFFFFFFFFFFFFFFFFFFFFFFFF AND PUSH2 0x16BC PUSH2 0x1093 JUMP JUMPDEST PUSH20 0xFFFFFFFFFFFFFFFFFFFFFFFFFFFFFFFFFFFFFFFF AND EQ PUSH2 0x171B JUMPI PUSH2 0x16DF PUSH2 0x1C5A JUMP JUMPDEST PUSH1 0x40 MLOAD PUSH32 0x118CDAA700000000000000000000000000000000000000000000000000000000 DUP2 MSTORE PUSH1 0x4 ADD PUSH2 0x1712 SWAP2 SWAP1 PUSH2 0x32DD JUMP JUMPDEST PUSH1 0x40 MLOAD DUP1 SWAP2 SUB SWAP1 REVERT JUMPDEST JUMP JUMPDEST PUSH0 PUSH1 0x9 DUP1 SLOAD DUP1 PUSH1 0x20 MUL PUSH1 0x20 ADD PUSH1 0x40 MLOAD SWAP1 DUP2 ADD PUSH1 0x40 MSTORE DUP1 SWAP3 SWAP2 SWAP1 DUP2 DUP2 MSTORE PUSH1 0x20 ADD DUP3 DUP1 SLOAD DUP1 ISZERO PUSH2 0x179B JUMPI PUSH1 0x20 MUL DUP3 ADD SWAP2 SWAP1 PUSH0 MSTORE PUSH1 0x20 PUSH0 KECCAK256 SWAP1 PUSH0 SWAP1 JUMPDEST DUP3 DUP3 SWAP1 SLOAD SWAP1 PUSH2 0x100 EXP SWAP1 DIV PUSH8 0xFFFFFFFFFFFFFFFF AND PUSH8 0xFFFFFFFFFFFFFFFF AND DUP2 MSTORE PUSH1 0x20 ADD SWAP1 PUSH1 0x8 ADD SWAP1 PUSH1 0x20 DUP3 PUSH1 0x7 ADD DIV SWAP3 DUP4 ADD SWAP3 PUSH1 0x1 SUB DUP3 MUL SWAP2 POP DUP1 DUP5 GT PUSH2 0x1756 JUMPI SWAP1 POP JUMPDEST POP POP POP POP POP SWAP1 POP PUSH0 PUSH0 SWAP1 POP JUMPDEST DUP2 MLOAD DUP2 LT ISZERO PUSH2 0x19E8 JUMPI PUSH0 PUSH20 0xFFFFFFFFFFFFFFFFFFFFFFFFFFFFFFFFFFFFFFFF AND PUSH1 0x8 PUSH0 DUP6 DUP2 MSTORE PUSH1 0x20 ADD SWAP1 DUP2 MSTORE PUSH1 0x20 ADD PUSH0 KECCAK256 PUSH0 DUP5 DUP5 DUP2 MLOAD DUP2 LT PUSH2 0x17EC JUMPI PUSH2 0x17EB PUSH2 0x3660 JUMP JUMPDEST JUMPDEST PUSH1 0x20 MUL PUSH1 0x20 ADD ADD MLOAD PUSH8 0xFFFFFFFFFFFFFFFF AND PUSH8 0xFFFFFFFFFFFFFFFF AND DUP2 MSTORE PUSH1 0x20 ADD SWAP1 DUP2 MSTORE PUSH1 0x20 ADD PUSH0 KECCAK256 PUSH0 SWAP1 SLOAD SWAP1 PUSH2 0x100 EXP SWAP1 DIV PUSH20 0xFFFFFFFFFFFFFFFFFFFFFFFFFFFFFFFFFFFFFFFF AND PUSH20 0xFFFFFFFFFFFFFFFFFFFFFFFFFFFFFFFFFFFFFFFF AND EQ PUSH2 0x19DB JUMPI PUSH0 PUSH1 0x8 PUSH0 DUP6 DUP2 MSTORE PUSH1 0x20 ADD SWAP1 DUP2 MSTORE PUSH1 0x20 ADD PUSH0 KECCAK256 PUSH0 DUP5 DUP5 DUP2 MLOAD DUP2 LT PUSH2 0x1876 JUMPI PUSH2 0x1875 PUSH2 0x3660 JUMP JUMPDEST JUMPDEST PUSH1 0x20 MUL PUSH1 0x20 ADD ADD MLOAD PUSH8 0xFFFFFFFFFFFFFFFF AND PUSH8 0xFFFFFFFFFFFFFFFF AND DUP2 MSTORE PUSH1 0x20 ADD SWAP1 DUP2 MSTORE PUSH1 0x20 ADD PUSH0 KECCAK256 PUSH0 SWAP1 SLOAD SWAP1 PUSH2 0x100 EXP SWAP1 DIV PUSH20 0xFFFFFFFFFFFFFFFFFFFFFFFFFFFFFFFFFFFFFFFF AND SWAP1 POP PUSH1 0xA PUSH0 SWAP1 SLOAD SWAP1 PUSH2 0x100 EXP SWAP1 DIV PUSH20 0xFFFFFFFFFFFFFFFFFFFFFFFFFFFFFFFFFFFFFFFF AND PUSH20 0xFFFFFFFFFFFFFFFFFFFFFFFFFFFFFFFFFFFFFFFF AND PUSH4 0x8C1DA2C9 DUP3 DUP6 DUP6 DUP2 MLOAD DUP2 LT PUSH2 0x1912 JUMPI PUSH2 0x1911 PUSH2 0x3660 JUMP JUMPDEST JUMPDEST PUSH1 0x20 MUL PUSH1 0x20 ADD ADD MLOAD PUSH1 0x40 MLOAD DUP4 PUSH4 0xFFFFFFFF AND PUSH1 0xE0 SHL DUP2 MSTORE PUSH1 0x4 ADD PUSH2 0x1937 SWAP3 SWAP2 SWAP1 PUSH2 0x3DA3 JUMP JUMPDEST PUSH0 PUSH1 0x40 MLOAD DUP1 DUP4 SUB DUP2 DUP7 GAS STATICCALL ISZERO DUP1 ISZERO PUSH2 0x1951 JUMPI RETURNDATASIZE PUSH0 PUSH0 RETURNDATACOPY RETURNDATASIZE PUSH0 REVERT JUMPDEST POP POP POP POP PUSH1 0x40 MLOAD RETURNDATASIZE PUSH0 DUP3 RETURNDATACOPY RETURNDATASIZE PUSH1 0x1F NOT PUSH1 0x1F DUP3 ADD AND DUP3 ADD DUP1 PUSH1 0x40 MSTORE POP DUP2 ADD SWAP1 PUSH2 0x1979 SWAP2 SWAP1 PUSH2 0x3F29 JUMP JUMPDEST PUSH0 ADD MLOAD PUSH2 0x19D9 JUMPI DUP3 DUP3 DUP2 MLOAD DUP2 LT PUSH2 0x1993 JUMPI PUSH2 0x1992 PUSH2 0x3660 JUMP JUMPDEST JUMPDEST PUSH1 0x20 MUL PUSH1 0x20 ADD ADD MLOAD DUP2 PUSH1 0x40 MLOAD PUSH32 0xA5A4608E00000000000000000000000000000000000000000000000000000000 DUP2 MSTORE PUSH1 0x4 ADD PUSH2 0x19D0 SWAP3 SWAP2 SWAP1 PUSH2 0x3F70 JUMP JUMPDEST PUSH1 0x40 MLOAD DUP1 SWAP2 SUB SWAP1 REVERT JUMPDEST POP JUMPDEST DUP1 DUP1 PUSH1 0x1 ADD SWAP2 POP POP PUSH2 0x17A7 JUMP JUMPDEST POP POP POP JUMP JUMPDEST PUSH0 PUSH0 PUSH0 SWAP1 POP JUMPDEST PUSH1 0x4 DUP1 SLOAD SWAP1 POP DUP2 LT ISZERO PUSH2 0x1A85 JUMPI DUP3 PUSH20 0xFFFFFFFFFFFFFFFFFFFFFFFFFFFFFFFFFFFFFFFF AND PUSH1 0x4 DUP3 DUP2 SLOAD DUP2 LT PUSH2 0x1A2B JUMPI PUSH2 0x1A2A PUSH2 0x3660 JUMP JUMPDEST JUMPDEST SWAP1 PUSH0 MSTORE PUSH1 0x20 PUSH0 KECCAK256 ADD PUSH0 SWAP1 SLOAD SWAP1 PUSH2 0x100 EXP SWAP1 DIV PUSH20 0xFFFFFFFFFFFFFFFFFFFFFFFFFFFFFFFFFFFFFFFF AND PUSH20 0xFFFFFFFFFFFFFFFFFFFFFFFFFFFFFFFFFFFFFFFF AND SUB PUSH2 0x1A78 JUMPI PUSH1 0x1 SWAP2 POP POP PUSH2 0x1A8A JUMP JUMPDEST DUP1 DUP1 PUSH1 0x1 ADD SWAP2 POP POP PUSH2 0x19F3 JUMP JUMPDEST POP PUSH0 SWAP1 POP JUMPDEST SWAP2 SWAP1 POP JUMP JUMPDEST PUSH0 PUSH2 0x1A9E DUP4 PUSH0 ADD DUP4 PUSH0 SHL PUSH2 0x1F13 JUMP JUMPDEST SWAP1 POP SWAP3 SWAP2 POP POP JUMP JUMPDEST PUSH0 PUSH1 0x20 DUP3 MUL PUSH1 0x20 DUP5 ADD ADD MLOAD SWAP1 POP SWAP3 SWAP2 POP POP JUMP JUMPDEST PUSH0 PUSH1 0x20 DUP3 MUL PUSH1 0x20 DUP5 ADD ADD MLOAD SWAP1 POP SWAP3 SWAP2 POP POP JUMP JUMPDEST PUSH0 PUSH20 0xFFFFFFFFFFFFFFFFFFFFFFFFFFFFFFFFFFFFFFFF AND DUP5 PUSH20 0xFFFFFFFFFFFFFFFFFFFFFFFFFFFFFFFFFFFFFFFF AND SUB PUSH2 0x1B3C JUMPI PUSH0 PUSH1 0x40 MLOAD PUSH32 0x57F447CE00000000000000000000000000000000000000000000000000000000 DUP2 MSTORE PUSH1 0x4 ADD PUSH2 0x1B33 SWAP2 SWAP1 PUSH2 0x32DD JUMP JUMPDEST PUSH1 0x40 MLOAD DUP1 SWAP2 SUB SWAP1 REVERT JUMPDEST PUSH0 PUSH0 PUSH2 0x1B48 DUP6 DUP6 PUSH2 0x1F33 JUMP JUMPDEST SWAP2 POP SWAP2 POP PUSH2 0x1B59 PUSH0 DUP8 DUP5 DUP5 DUP8 PUSH2 0x1F63 JUMP JUMPDEST POP POP POP POP POP POP JUMP JUMPDEST PUSH0 PUSH1 0x3 PUSH0 SWAP1 SLOAD SWAP1 PUSH2 0x100 EXP SWAP1 DIV PUSH20 0xFFFFFFFFFFFFFFFFFFFFFFFFFFFFFFFFFFFFFFFF AND SWAP1 POP DUP2 PUSH1 0x3 PUSH0 PUSH2 0x100 EXP DUP2 SLOAD DUP2 PUSH20 0xFFFFFFFFFFFFFFFFFFFFFFFFFFFFFFFFFFFFFFFF MUL NOT AND SWAP1 DUP4 PUSH20 0xFFFFFFFFFFFFFFFFFFFFFFFFFFFFFFFFFFFFFFFF AND MUL OR SWAP1 SSTORE POP DUP2 PUSH20 0xFFFFFFFFFFFFFFFFFFFFFFFFFFFFFFFFFFFFFFFF AND DUP2 PUSH20 0xFFFFFFFFFFFFFFFFFFFFFFFFFFFFFFFFFFFFFFFF AND PUSH32 0x8BE0079C531659141344CD1FD0A4F28419497F9722A3DAAFE3B4186F6B6457E0 PUSH1 0x40 MLOAD PUSH1 0x40 MLOAD DUP1 SWAP2 SUB SWAP1 LOG3 POP POP JUMP JUMPDEST PUSH1 0x60 PUSH0 PUSH2 0x1C32 DUP4 PUSH0 ADD PUSH2 0x200F JUMP JUMPDEST SWAP1 POP PUSH1 0x60 DUP2 SWAP1 POP DUP1 SWAP3 POP POP POP SWAP2 SWAP1 POP JUMP JUMPDEST PUSH0 PUSH2 0x1C52 DUP4 PUSH0 ADD DUP4 PUSH0 SHL PUSH2 0x2068 JUMP JUMPDEST SWAP1 POP SWAP3 SWAP2 POP POP JUMP JUMPDEST PUSH0 CALLER SWAP1 POP SWAP1 JUMP JUMPDEST PUSH0 PUSH20 0xFFFFFFFFFFFFFFFFFFFFFFFFFFFFFFFFFFFFFFFF AND DUP3 PUSH20 0xFFFFFFFFFFFFFFFFFFFFFFFFFFFFFFFFFFFFFFFF AND SUB PUSH2 0x1CD1 JUMPI PUSH0 PUSH1 0x40 MLOAD PUSH32 0xCED3E10000000000000000000000000000000000000000000000000000000000 DUP2 MSTORE PUSH1 0x4 ADD PUSH2 0x1CC8 SWAP2 SWAP1 PUSH2 0x32DD JUMP JUMPDEST PUSH1 0x40 MLOAD DUP1 SWAP2 SUB SWAP1 REVERT JUMPDEST DUP1 PUSH1 0x1 PUSH0 DUP6 PUSH20 0xFFFFFFFFFFFFFFFFFFFFFFFFFFFFFFFFFFFFFFFF AND PUSH20 0xFFFFFFFFFFFFFFFFFFFFFFFFFFFFFFFFFFFFFFFF AND DUP2 MSTORE PUSH1 0x20 ADD SWAP1 DUP2 MSTORE PUSH1 0x20 ADD PUSH0 KECCAK256 PUSH0 DUP5 PUSH20 0xFFFFFFFFFFFFFFFFFFFFFFFFFFFFFFFFFFFFFFFF AND PUSH20 0xFFFFFFFFFFFFFFFFFFFFFFFFFFFFFFFFFFFFFFFF AND DUP2 MSTORE PUSH1 0x20 ADD SWAP1 DUP2 MSTORE PUSH1 0x20 ADD PUSH0 KECCAK256 PUSH0 PUSH2 0x100 EXP DUP2 SLOAD DUP2 PUSH1 0xFF MUL NOT AND SWAP1 DUP4 ISZERO ISZERO MUL OR SWAP1 SSTORE POP DUP2 PUSH20 0xFFFFFFFFFFFFFFFFFFFFFFFFFFFFFFFFFFFFFFFF AND DUP4 PUSH20 0xFFFFFFFFFFFFFFFFFFFFFFFFFFFFFFFFFFFFFFFF AND PUSH32 0x17307EAB39AB6107E8899845AD3D59BD9653F200F220920489CA2B5937696C31 DUP4 PUSH1 0x40 MLOAD PUSH2 0x1DBD SWAP2 SWAP1 PUSH2 0x2A64 JUMP JUMPDEST PUSH1 0x40 MLOAD DUP1 SWAP2 SUB SWAP1 LOG3 POP POP POP JUMP JUMPDEST PUSH0 PUSH2 0x1DD3 PUSH2 0x1C5A JUMP JUMPDEST SWAP1 POP DUP1 PUSH20 0xFFFFFFFFFFFFFFFFFFFFFFFFFFFFFFFFFFFFFFFF AND DUP7 PUSH20 0xFFFFFFFFFFFFFFFFFFFFFFFFFFFFFFFFFFFFFFFF AND EQ ISZERO DUP1 ISZERO PUSH2 0x1E18 JUMPI POP PUSH2 0x1E16 DUP7 DUP3 PUSH2 0x14E6 JUMP JUMPDEST ISZERO JUMPDEST ISZERO PUSH2 0x1E5C JUMPI DUP1 DUP7 PUSH1 0x40 MLOAD PUSH32 0xE237D92200000000000000000000000000000000000000000000000000000000 DUP2 MSTORE PUSH1 0x4 ADD PUSH2 0x1E53 SWAP3 SWAP2 SWAP1 PUSH2 0x3F97 JUMP JUMPDEST PUSH1 0x40 MLOAD DUP1 SWAP2 SUB SWAP1 REVERT JUMPDEST PUSH2 0x1E69 DUP7 DUP7 DUP7 DUP7 DUP7 PUSH2 0x20CF JUMP JUMPDEST POP POP POP POP POP POP JUMP JUMPDEST PUSH0 PUSH20 0xFFFFFFFFFFFFFFFFFFFFFFFFFFFFFFFFFFFFFFFF AND DUP4 PUSH20 0xFFFFFFFFFFFFFFFFFFFFFFFFFFFFFFFFFFFFFFFF AND SUB PUSH2 0x1EE1 JUMPI PUSH0 PUSH1 0x40 MLOAD PUSH32 0x1A8351400000000000000000000000000000000000000000000000000000000 DUP2 MSTORE PUSH1 0x4 ADD PUSH2 0x1ED8 SWAP2 SWAP1 PUSH2 0x32DD JUMP JUMPDEST PUSH1 0x40 MLOAD DUP1 SWAP2 SUB SWAP1 REVERT JUMPDEST PUSH0 PUSH0 PUSH2 0x1EED DUP5 DUP5 PUSH2 0x1F33 JUMP JUMPDEST SWAP2 POP SWAP2 POP PUSH2 0x1F0C DUP6 PUSH0 DUP5 DUP5 PUSH1 0x40 MLOAD DUP1 PUSH1 0x20 ADD PUSH1 0x40 MSTORE DUP1 PUSH0 DUP2 MSTORE POP PUSH2 0x1F63 JUMP JUMPDEST POP POP POP POP POP JUMP JUMPDEST PUSH0 PUSH0 DUP4 PUSH1 0x1 ADD PUSH0 DUP5 DUP2 MSTORE PUSH1 0x20 ADD SWAP1 DUP2 MSTORE PUSH1 0x20 ADD PUSH0 KECCAK256 SLOAD EQ ISZERO SWAP1 POP SWAP3 SWAP2 POP POP JUMP JUMPDEST PUSH1 0x60 DUP1 PUSH1 0x40 MLOAD SWAP2 POP PUSH1 0x1 DUP3 MSTORE DUP4 PUSH1 0x20 DUP4 ADD MSTORE PUSH1 0x40 DUP3 ADD SWAP1 POP PUSH1 0x1 DUP2 MSTORE DUP3 PUSH1 0x20 DUP3 ADD MSTORE PUSH1 0x40 DUP2 ADD PUSH1 0x40 MSTORE SWAP3 POP SWAP3 SWAP1 POP JUMP JUMPDEST PUSH2 0x1F6F DUP6 DUP6 DUP6 DUP6 PUSH2 0x21D5 JUMP JUMPDEST PUSH0 PUSH20 0xFFFFFFFFFFFFFFFFFFFFFFFFFFFFFFFFFFFFFFFF AND DUP5 PUSH20 0xFFFFFFFFFFFFFFFFFFFFFFFFFFFFFFFFFFFFFFFF AND EQ PUSH2 0x2008 JUMPI PUSH0 PUSH2 0x1FAB PUSH2 0x1C5A JUMP JUMPDEST SWAP1 POP PUSH1 0x1 DUP5 MLOAD SUB PUSH2 0x1FF7 JUMPI PUSH0 PUSH2 0x1FCA PUSH0 DUP7 PUSH2 0x1AB9 SWAP1 SWAP2 SWAP1 PUSH4 0xFFFFFFFF AND JUMP JUMPDEST SWAP1 POP PUSH0 PUSH2 0x1FE0 PUSH0 DUP7 PUSH2 0x1AB9 SWAP1 SWAP2 SWAP1 PUSH4 0xFFFFFFFF AND JUMP JUMPDEST SWAP1 POP PUSH2 0x1FF0 DUP4 DUP10 DUP10 DUP6 DUP6 DUP10 PUSH2 0x2568 JUMP JUMPDEST POP POP PUSH2 0x2006 JUMP JUMPDEST PUSH2 0x2005 DUP2 DUP8 DUP8 DUP8 DUP8 DUP8 PUSH2 0x2717 JUMP JUMPDEST JUMPDEST POP JUMPDEST POP POP POP POP POP JUMP JUMPDEST PUSH1 0x60 DUP2 PUSH0 ADD DUP1 SLOAD DUP1 PUSH1 0x20 MUL PUSH1 0x20 ADD PUSH1 0x40 MLOAD SWAP1 DUP2 ADD PUSH1 0x40 MSTORE DUP1 SWAP3 SWAP2 SWAP1 DUP2 DUP2 MSTORE PUSH1 0x20 ADD DUP3 DUP1 SLOAD DUP1 ISZERO PUSH2 0x205C JUMPI PUSH1 0x20 MUL DUP3 ADD SWAP2 SWAP1 PUSH0 MSTORE PUSH1 0x20 PUSH0 KECCAK256 SWAP1 JUMPDEST DUP2 SLOAD DUP2 MSTORE PUSH1 0x20 ADD SWAP1 PUSH1 0x1 ADD SWAP1 DUP1 DUP4 GT PUSH2 0x2048 JUMPI JUMPDEST POP POP POP POP POP SWAP1 POP SWAP2 SWAP1 POP JUMP JUMPDEST PUSH0 PUSH2 0x2073 DUP4 DUP4 PUSH2 0x1F13 JUMP JUMPDEST PUSH2 0x20C5 JUMPI DUP3 PUSH0 ADD DUP3 SWAP1 DUP1 PUSH1 0x1 DUP2 SLOAD ADD DUP1 DUP3 SSTORE DUP1 SWAP2 POP POP PUSH1 0x1 SWAP1 SUB SWAP1 PUSH0 MSTORE PUSH1 0x20 PUSH0 KECCAK256 ADD PUSH0 SWAP1 SWAP2 SWAP1 SWAP2 SWAP1 SWAP2 POP SSTORE DUP3 PUSH0 ADD DUP1 SLOAD SWAP1 POP DUP4 PUSH1 0x1 ADD PUSH0 DUP5 DUP2 MSTORE PUSH1 0x20 ADD SWAP1 DUP2 MSTORE PUSH1 0x20 ADD PUSH0 KECCAK256 DUP2 SWAP1 SSTORE POP PUSH1 0x1 SWAP1 POP PUSH2 0x20C9 JUMP JUMPDEST PUSH0 SWAP1 POP JUMPDEST SWAP3 SWAP2 POP POP JUMP JUMPDEST PUSH0 PUSH20 0xFFFFFFFFFFFFFFFFFFFFFFFFFFFFFFFFFFFFFFFF AND DUP5 PUSH20 0xFFFFFFFFFFFFFFFFFFFFFFFFFFFFFFFFFFFFFFFF AND SUB PUSH2 0x213F JUMPI PUSH0 PUSH1 0x40 MLOAD PUSH32 0x57F447CE00000000000000000000000000000000000000000000000000000000 DUP2 MSTORE PUSH1 0x4 ADD PUSH2 0x2136 SWAP2 SWAP1 PUSH2 0x32DD JUMP JUMPDEST PUSH1 0x40 MLOAD DUP1 SWAP2 SUB SWAP1 REVERT JUMPDEST PUSH0 PUSH20 0xFFFFFFFFFFFFFFFFFFFFFFFFFFFFFFFFFFFFFFFF AND DUP6 PUSH20 0xFFFFFFFFFFFFFFFFFFFFFFFFFFFFFFFFFFFFFFFF AND SUB PUSH2 0x21AF JUMPI PUSH0 PUSH1 0x40 MLOAD PUSH32 0x1A8351400000000000000000000000000000000000000000000000000000000 DUP2 MSTORE PUSH1 0x4 ADD PUSH2 0x21A6 SWAP2 SWAP1 PUSH2 0x32DD JUMP JUMPDEST PUSH1 0x40 MLOAD DUP1 SWAP2 SUB SWAP1 REVERT JUMPDEST PUSH0 PUSH0 PUSH2 0x21BB DUP6 DUP6 PUSH2 0x1F33 JUMP JUMPDEST SWAP2 POP SWAP2 POP PUSH2 0x21CC DUP8 DUP8 DUP5 DUP5 DUP8 PUSH2 0x1F63 JUMP JUMPDEST POP POP POP POP POP POP POP JUMP JUMPDEST DUP1 MLOAD DUP3 MLOAD EQ PUSH2 0x221F JUMPI DUP2 MLOAD DUP2 MLOAD PUSH1 0x40 MLOAD PUSH32 0x5B05999100000000000000000000000000000000000000000000000000000000 DUP2 MSTORE PUSH1 0x4 ADD PUSH2 0x2216 SWAP3 SWAP2 SWAP1 PUSH2 0x39D6 JUMP JUMPDEST PUSH1 0x40 MLOAD DUP1 SWAP2 SUB SWAP1 REVERT JUMPDEST PUSH0 PUSH2 0x2228 PUSH2 0x1C5A JUMP JUMPDEST SWAP1 POP PUSH0 PUSH0 SWAP1 POP JUMPDEST DUP4 MLOAD DUP2 LT ISZERO PUSH2 0x2427 JUMPI PUSH0 PUSH2 0x224C DUP3 DUP7 PUSH2 0x1AB9 SWAP1 SWAP2 SWAP1 PUSH4 0xFFFFFFFF AND JUMP JUMPDEST SWAP1 POP PUSH0 PUSH2 0x2262 DUP4 DUP7 PUSH2 0x1AB9 SWAP1 SWAP2 SWAP1 PUSH4 0xFFFFFFFF AND JUMP JUMPDEST SWAP1 POP PUSH0 PUSH20 0xFFFFFFFFFFFFFFFFFFFFFFFFFFFFFFFFFFFFFFFF AND DUP9 PUSH20 0xFFFFFFFFFFFFFFFFFFFFFFFFFFFFFFFFFFFFFFFF AND EQ PUSH2 0x2385 JUMPI PUSH0 PUSH0 PUSH0 DUP5 DUP2 MSTORE PUSH1 0x20 ADD SWAP1 DUP2 MSTORE PUSH1 0x20 ADD PUSH0 KECCAK256 PUSH0 DUP11 PUSH20 0xFFFFFFFFFFFFFFFFFFFFFFFFFFFFFFFFFFFFFFFF AND PUSH20 0xFFFFFFFFFFFFFFFFFFFFFFFFFFFFFFFFFFFFFFFF AND DUP2 MSTORE PUSH1 0x20 ADD SWAP1 DUP2 MSTORE PUSH1 0x20 ADD PUSH0 KECCAK256 SLOAD SWAP1 POP DUP2 DUP2 LT ISZERO PUSH2 0x2331 JUMPI DUP9 DUP2 DUP4 DUP6 PUSH1 0x40 MLOAD PUSH32 0x3DEE4C500000000000000000000000000000000000000000000000000000000 DUP2 MSTORE PUSH1 0x4 ADD PUSH2 0x2328 SWAP5 SWAP4 SWAP3 SWAP2 SWAP1 PUSH2 0x3FBE JUMP JUMPDEST PUSH1 0x40 MLOAD DUP1 SWAP2 SUB SWAP1 REVERT JUMPDEST DUP2 DUP2 SUB PUSH0 PUSH0 DUP6 DUP2 MSTORE PUSH1 0x20 ADD SWAP1 DUP2 MSTORE PUSH1 0x20 ADD PUSH0 KECCAK256 PUSH0 DUP12 PUSH20 0xFFFFFFFFFFFFFFFFFFFFFFFFFFFFFFFFFFFFFFFF AND PUSH20 0xFFFFFFFFFFFFFFFFFFFFFFFFFFFFFFFFFFFFFFFF AND DUP2 MSTORE PUSH1 0x20 ADD SWAP1 DUP2 MSTORE PUSH1 0x20 ADD PUSH0 KECCAK256 DUP2 SWAP1 SSTORE POP POP JUMPDEST PUSH0 PUSH20 0xFFFFFFFFFFFFFFFFFFFFFFFFFFFFFFFFFFFFFFFF AND DUP8 PUSH20 0xFFFFFFFFFFFFFFFFFFFFFFFFFFFFFFFFFFFFFFFF AND EQ PUSH2 0x241A JUMPI DUP1 PUSH0 PUSH0 DUP5 DUP2 MSTORE PUSH1 0x20 ADD SWAP1 DUP2 MSTORE PUSH1 0x20 ADD PUSH0 KECCAK256 PUSH0 DUP10 PUSH20 0xFFFFFFFFFFFFFFFFFFFFFFFFFFFFFFFFFFFFFFFF AND PUSH20 0xFFFFFFFFFFFFFFFFFFFFFFFFFFFFFFFFFFFFFFFF AND DUP2 MSTORE PUSH1 0x20 ADD SWAP1 DUP2 MSTORE PUSH1 0x20 ADD PUSH0 KECCAK256 PUSH0 DUP3 DUP3 SLOAD PUSH2 0x2412 SWAP2 SWAP1 PUSH2 0x4001 JUMP JUMPDEST SWAP3 POP POP DUP2 SWAP1 SSTORE POP JUMPDEST POP POP DUP1 PUSH1 0x1 ADD SWAP1 POP PUSH2 0x222F JUMP JUMPDEST POP PUSH1 0x1 DUP4 MLOAD SUB PUSH2 0x24E2 JUMPI PUSH0 PUSH2 0x2445 PUSH0 DUP6 PUSH2 0x1AB9 SWAP1 SWAP2 SWAP1 PUSH4 0xFFFFFFFF AND JUMP JUMPDEST SWAP1 POP PUSH0 PUSH2 0x245B PUSH0 DUP6 PUSH2 0x1AB9 SWAP1 SWAP2 SWAP1 PUSH4 0xFFFFFFFF AND JUMP JUMPDEST SWAP1 POP DUP6 PUSH20 0xFFFFFFFFFFFFFFFFFFFFFFFFFFFFFFFFFFFFFFFF AND DUP8 PUSH20 0xFFFFFFFFFFFFFFFFFFFFFFFFFFFFFFFFFFFFFFFF AND DUP5 PUSH20 0xFFFFFFFFFFFFFFFFFFFFFFFFFFFFFFFFFFFFFFFF AND PUSH32 0xC3D58168C5AE7397731D063D5BBF3D657854427343F4C083240F7AACAA2D0F62 DUP6 DUP6 PUSH1 0x40 MLOAD PUSH2 0x24D3 SWAP3 SWAP2 SWAP1 PUSH2 0x39D6 JUMP JUMPDEST PUSH1 0x40 MLOAD DUP1 SWAP2 SUB SWAP1 LOG4 POP POP PUSH2 0x2561 JUMP JUMPDEST DUP4 PUSH20 0xFFFFFFFFFFFFFFFFFFFFFFFFFFFFFFFFFFFFFFFF AND DUP6 PUSH20 0xFFFFFFFFFFFFFFFFFFFFFFFFFFFFFFFFFFFFFFFF AND DUP3 PUSH20 0xFFFFFFFFFFFFFFFFFFFFFFFFFFFFFFFFFFFFFFFF AND PUSH32 0x4A39DC06D4C0DBC64B70AF90FD698A233A518AA5D07E595D983B8C0526C8F7FB DUP7 DUP7 PUSH1 0x40 MLOAD PUSH2 0x2558 SWAP3 SWAP2 SWAP1 PUSH2 0x4034 JUMP JUMPDEST PUSH1 0x40 MLOAD DUP1 SWAP2 SUB SWAP1 LOG4 JUMPDEST POP POP POP POP POP JUMP JUMPDEST PUSH0 DUP5 PUSH20 0xFFFFFFFFFFFFFFFFFFFFFFFFFFFFFFFFFFFFFFFF AND EXTCODESIZE GT ISZERO PUSH2 0x270F JUMPI DUP4 PUSH20 0xFFFFFFFFFFFFFFFFFFFFFFFFFFFFFFFFFFFFFFFF AND PUSH4 0xF23A6E61 DUP8 DUP8 DUP7 DUP7 DUP7 PUSH1 0x40 MLOAD DUP7 PUSH4 0xFFFFFFFF AND PUSH1 0xE0 SHL DUP2 MSTORE PUSH1 0x4 ADD PUSH2 0x25C8 SWAP6 SWAP5 SWAP4 SWAP3 SWAP2 SWAP1 PUSH2 0x40BB JUMP JUMPDEST PUSH1 0x20 PUSH1 0x40 MLOAD DUP1 DUP4 SUB DUP2 PUSH0 DUP8 GAS CALL SWAP3 POP POP POP DUP1 ISZERO PUSH2 0x2603 JUMPI POP PUSH1 0x40 MLOAD RETURNDATASIZE PUSH1 0x1F NOT PUSH1 0x1F DUP3 ADD AND DUP3 ADD DUP1 PUSH1 0x40 MSTORE POP DUP2 ADD SWAP1 PUSH2 0x2600 SWAP2 SWAP1 PUSH2 0x4127 JUMP JUMPDEST PUSH1 0x1 JUMPDEST PUSH2 0x2684 JUMPI RETURNDATASIZE DUP1 PUSH0 DUP2 EQ PUSH2 0x2631 JUMPI PUSH1 0x40 MLOAD SWAP2 POP PUSH1 0x1F NOT PUSH1 0x3F RETURNDATASIZE ADD AND DUP3 ADD PUSH1 0x40 MSTORE RETURNDATASIZE DUP3 MSTORE RETURNDATASIZE PUSH0 PUSH1 0x20 DUP5 ADD RETURNDATACOPY PUSH2 0x2636 JUMP JUMPDEST PUSH1 0x60 SWAP2 POP JUMPDEST POP PUSH0 DUP2 MLOAD SUB PUSH2 0x267C JUMPI DUP5 PUSH1 0x40 MLOAD PUSH32 0x57F447CE00000000000000000000000000000000000000000000000000000000 DUP2 MSTORE PUSH1 0x4 ADD PUSH2 0x2673 SWAP2 SWAP1 PUSH2 0x32DD JUMP JUMPDEST PUSH1 0x40 MLOAD DUP1 SWAP2 SUB SWAP1 REVERT JUMPDEST DUP1 MLOAD DUP2 PUSH1 0x20 ADD REVERT JUMPDEST PUSH4 0xF23A6E61 PUSH1 0xE0 SHL PUSH28 0xFFFFFFFFFFFFFFFFFFFFFFFFFFFFFFFFFFFFFFFFFFFFFFFFFFFFFFFF NOT AND DUP2 PUSH28 0xFFFFFFFFFFFFFFFFFFFFFFFFFFFFFFFFFFFFFFFFFFFFFFFFFFFFFFFF NOT AND EQ PUSH2 0x270D JUMPI DUP5 PUSH1 0x40 MLOAD PUSH32 0x57F447CE00000000000000000000000000000000000000000000000000000000 DUP2 MSTORE PUSH1 0x4 ADD PUSH2 0x2704 SWAP2 SWAP1 PUSH2 0x32DD JUMP JUMPDEST PUSH1 0x40 MLOAD DUP1 SWAP2 SUB SWAP1 REVERT JUMPDEST POP JUMPDEST POP POP POP POP POP POP JUMP JUMPDEST PUSH0 DUP5 PUSH20 0xFFFFFFFFFFFFFFFFFFFFFFFFFFFFFFFFFFFFFFFF AND EXTCODESIZE GT ISZERO PUSH2 0x28BE JUMPI DUP4 PUSH20 0xFFFFFFFFFFFFFFFFFFFFFFFFFFFFFFFFFFFFFFFF AND PUSH4 0xBC197C81 DUP8 DUP8 DUP7 DUP7 DUP7 PUSH1 0x40 MLOAD DUP7 PUSH4 0xFFFFFFFF AND PUSH1 0xE0 SHL DUP2 MSTORE PUSH1 0x4 ADD PUSH2 0x2777 SWAP6 SWAP5 SWAP4 SWAP3 SWAP2 SWAP1 PUSH2 0x4152 JUMP JUMPDEST PUSH1 0x20 PUSH1 0x40 MLOAD DUP1 DUP4 SUB DUP2 PUSH0 DUP8 GAS CALL SWAP3 POP POP POP DUP1 ISZERO PUSH2 0x27B2 JUMPI POP PUSH1 0x40 MLOAD RETURNDATASIZE PUSH1 0x1F NOT PUSH1 0x1F DUP3 ADD AND DUP3 ADD DUP1 PUSH1 0x40 MSTORE POP DUP2 ADD SWAP1 PUSH2 0x27AF SWAP2 SWAP1 PUSH2 0x4127 JUMP JUMPDEST PUSH1 0x1 JUMPDEST PUSH2 0x2833 JUMPI RETURNDATASIZE DUP1 PUSH0 DUP2 EQ PUSH2 0x27E0 JUMPI PUSH1 0x40 MLOAD SWAP2 POP PUSH1 0x1F NOT PUSH1 0x3F RETURNDATASIZE ADD AND DUP3 ADD PUSH1 0x40 MSTORE RETURNDATASIZE DUP3 MSTORE RETURNDATASIZE PUSH0 PUSH1 0x20 DUP5 ADD RETURNDATACOPY PUSH2 0x27E5 JUMP JUMPDEST PUSH1 0x60 SWAP2 POP JUMPDEST POP PUSH0 DUP2 MLOAD SUB PUSH2 0x282B JUMPI DUP5 PUSH1 0x40 MLOAD PUSH32 0x57F447CE00000000000000000000000000000000000000000000000000000000 DUP2 MSTORE PUSH1 0x4 ADD PUSH2 0x2822 SWAP2 SWAP1 PUSH2 0x32DD JUMP JUMPDEST PUSH1 0x40 MLOAD DUP1 SWAP2 SUB SWAP1 REVERT JUMPDEST DUP1 MLOAD DUP2 PUSH1 0x20 ADD REVERT JUMPDEST PUSH4 0xBC197C81 PUSH1 0xE0 SHL PUSH28 0xFFFFFFFFFFFFFFFFFFFFFFFFFFFFFFFFFFFFFFFFFFFFFFFFFFFFFFFF NOT AND DUP2 PUSH28 0xFFFFFFFFFFFFFFFFFFFFFFFFFFFFFFFFFFFFFFFFFFFFFFFFFFFFFFFF NOT AND EQ PUSH2 0x28BC JUMPI DUP5 PUSH1 0x40 MLOAD PUSH32 0x57F447CE00000000000000000000000000000000000000000000000000000000 DUP2 MSTORE PUSH1 0x4 ADD PUSH2 0x28B3 SWAP2 SWAP1 PUSH2 0x32DD JUMP JUMPDEST PUSH1 0x40 MLOAD DUP1 SWAP2 SUB SWAP1 REVERT JUMPDEST POP JUMPDEST POP POP POP POP POP POP JUMP JUMPDEST PUSH0 PUSH1 0x40 MLOAD SWAP1 POP SWAP1 JUMP JUMPDEST PUSH0 PUSH0 REVERT JUMPDEST PUSH0 PUSH0 REVERT JUMPDEST PUSH0 PUSH20 0xFFFFFFFFFFFFFFFFFFFFFFFFFFFFFFFFFFFFFFFF DUP3 AND SWAP1 POP SWAP2 SWAP1 POP JUMP JUMPDEST PUSH0 PUSH2 0x2900 DUP3 PUSH2 0x28D7 JUMP JUMPDEST SWAP1 POP SWAP2 SWAP1 POP JUMP JUMPDEST PUSH2 0x2910 DUP2 PUSH2 0x28F6 JUMP JUMPDEST DUP2 EQ PUSH2 0x291A JUMPI PUSH0 PUSH0 REVERT JUMPDEST POP JUMP JUMPDEST PUSH0 DUP2 CALLDATALOAD SWAP1 POP PUSH2 0x292B DUP2 PUSH2 0x2907 JUMP JUMPDEST SWAP3 SWAP2 POP POP JUMP JUMPDEST PUSH0 DUP2 SWAP1 POP SWAP2 SWAP1 POP JUMP JUMPDEST PUSH2 0x2943 DUP2 PUSH2 0x2931 JUMP JUMPDEST DUP2 EQ PUSH2 0x294D JUMPI PUSH0 PUSH0 REVERT JUMPDEST POP JUMP JUMPDEST PUSH0 DUP2 CALLDATALOAD SWAP1 POP PUSH2 0x295E DUP2 PUSH2 0x293A JUMP JUMPDEST SWAP3 SWAP2 POP POP JUMP JUMPDEST PUSH0 PUSH0 PUSH1 0x40 DUP4 DUP6 SUB SLT ISZERO PUSH2 0x297A JUMPI PUSH2 0x2979 PUSH2 0x28CF JUMP JUMPDEST JUMPDEST PUSH0 PUSH2 0x2987 DUP6 DUP3 DUP7 ADD PUSH2 0x291D JUMP JUMPDEST SWAP3 POP POP PUSH1 0x20 PUSH2 0x2998 DUP6 DUP3 DUP7 ADD PUSH2 0x2950 JUMP JUMPDEST SWAP2 POP POP SWAP3 POP SWAP3 SWAP1 POP JUMP JUMPDEST PUSH2 0x29AB DUP2 PUSH2 0x2931 JUMP JUMPDEST DUP3 MSTORE POP POP JUMP JUMPDEST PUSH0 PUSH1 0x20 DUP3 ADD SWAP1 POP PUSH2 0x29C4 PUSH0 DUP4 ADD DUP5 PUSH2 0x29A2 JUMP JUMPDEST SWAP3 SWAP2 POP POP JUMP JUMPDEST PUSH0 PUSH32 0xFFFFFFFF00000000000000000000000000000000000000000000000000000000 DUP3 AND SWAP1 POP SWAP2 SWAP1 POP JUMP JUMPDEST PUSH2 0x29FE DUP2 PUSH2 0x29CA JUMP JUMPDEST DUP2 EQ PUSH2 0x2A08 JUMPI PUSH0 PUSH0 REVERT JUMPDEST POP JUMP JUMPDEST PUSH0 DUP2 CALLDATALOAD SWAP1 POP PUSH2 0x2A19 DUP2 PUSH2 0x29F5 JUMP JUMPDEST SWAP3 SWAP2 POP POP JUMP JUMPDEST PUSH0 PUSH1 0x20 DUP3 DUP5 SUB SLT ISZERO PUSH2 0x2A34 JUMPI PUSH2 0x2A33 PUSH2 0x28CF JUMP JUMPDEST JUMPDEST PUSH0 PUSH2 0x2A41 DUP5 DUP3 DUP6 ADD PUSH2 0x2A0B JUMP JUMPDEST SWAP2 POP POP SWAP3 SWAP2 POP POP JUMP JUMPDEST PUSH0 DUP2 ISZERO ISZERO SWAP1 POP SWAP2 SWAP1 POP JUMP JUMPDEST PUSH2 0x2A5E DUP2 PUSH2 0x2A4A JUMP JUMPDEST DUP3 MSTORE POP POP JUMP JUMPDEST PUSH0 PUSH1 0x20 DUP3 ADD SWAP1 POP PUSH2 0x2A77 PUSH0 DUP4 ADD DUP5 PUSH2 0x2A55 JUMP JUMPDEST SWAP3 SWAP2 POP POP JUMP JUMPDEST PUSH0 PUSH1 0x20 DUP3 DUP5 SUB SLT ISZERO PUSH2 0x2A92 JUMPI PUSH2 0x2A91 PUSH2 0x28CF JUMP JUMPDEST JUMPDEST PUSH0 PUSH2 0x2A9F DUP5 DUP3 DUP6 ADD PUSH2 0x2950 JUMP JUMPDEST SWAP2 POP POP SWAP3 SWAP2 POP POP JUMP JUMPDEST PUSH0 DUP2 MLOAD SWAP1 POP SWAP2 SWAP1 POP JUMP JUMPDEST PUSH0 DUP3 DUP3 MSTORE PUSH1 0x20 DUP3 ADD SWAP1 POP SWAP3 SWAP2 POP POP JUMP JUMPDEST DUP3 DUP2 DUP4 MCOPY PUSH0 DUP4 DUP4 ADD MSTORE POP POP POP JUMP JUMPDEST PUSH0 PUSH1 0x1F NOT PUSH1 0x1F DUP4 ADD AND SWAP1 POP SWAP2 SWAP1 POP JUMP JUMPDEST PUSH0 PUSH2 0x2AEA DUP3 PUSH2 0x2AA8 JUMP JUMPDEST PUSH2 0x2AF4 DUP2 DUP6 PUSH2 0x2AB2 JUMP JUMPDEST SWAP4 POP PUSH2 0x2B04 DUP2 DUP6 PUSH1 0x20 DUP7 ADD PUSH2 0x2AC2 JUMP JUMPDEST PUSH2 0x2B0D DUP2 PUSH2 0x2AD0 JUMP JUMPDEST DUP5 ADD SWAP2 POP POP SWAP3 SWAP2 POP POP JUMP JUMPDEST PUSH0 PUSH1 0x20 DUP3 ADD SWAP1 POP DUP2 DUP2 SUB PUSH0 DUP4 ADD MSTORE PUSH2 0x2B30 DUP2 DUP5 PUSH2 0x2AE0 JUMP JUMPDEST SWAP1 POP SWAP3 SWAP2 POP POP JUMP JUMPDEST PUSH0 PUSH1 0x20 DUP3 DUP5 SUB SLT ISZERO PUSH2 0x2B4D JUMPI PUSH2 0x2B4C PUSH2 0x28CF JUMP JUMPDEST JUMPDEST PUSH0 PUSH2 0x2B5A DUP5 DUP3 DUP6 ADD PUSH2 0x291D JUMP JUMPDEST SWAP2 POP POP SWAP3 SWAP2 POP POP JUMP JUMPDEST PUSH0 DUP2 SWAP1 POP SWAP2 SWAP1 POP JUMP JUMPDEST PUSH0 PUSH2 0x2B86 PUSH2 0x2B81 PUSH2 0x2B7C DUP5 PUSH2 0x28D7 JUMP JUMPDEST PUSH2 0x2B63 JUMP JUMPDEST PUSH2 0x28D7 JUMP JUMPDEST SWAP1 POP SWAP2 SWAP1 POP JUMP JUMPDEST PUSH0 PUSH2 0x2B97 DUP3 PUSH2 0x2B6C JUMP JUMPDEST SWAP1 POP SWAP2 SWAP1 POP JUMP JUMPDEST PUSH0 PUSH2 0x2BA8 DUP3 PUSH2 0x2B8D JUMP JUMPDEST SWAP1 POP SWAP2 SWAP1 POP JUMP JUMPDEST PUSH2 0x2BB8 DUP2 PUSH2 0x2B9E JUMP JUMPDEST DUP3 MSTORE POP POP JUMP JUMPDEST PUSH0 PUSH1 0x20 DUP3 ADD SWAP1 POP PUSH2 0x2BD1 PUSH0 DUP4 ADD DUP5 PUSH2 0x2BAF JUMP JUMPDEST SWAP3 SWAP2 POP POP JUMP JUMPDEST PUSH0 PUSH0 REVERT JUMPDEST PUSH32 0x4E487B7100000000000000000000000000000000000000000000000000000000 PUSH0 MSTORE PUSH1 0x41 PUSH1 0x4 MSTORE PUSH1 0x24 PUSH0 REVERT JUMPDEST PUSH2 0x2C11 DUP3 PUSH2 0x2AD0 JUMP JUMPDEST DUP2 ADD DUP2 DUP2 LT PUSH8 0xFFFFFFFFFFFFFFFF DUP3 GT OR ISZERO PUSH2 0x2C30 JUMPI PUSH2 0x2C2F PUSH2 0x2BDB JUMP JUMPDEST JUMPDEST DUP1 PUSH1 0x40 MSTORE POP POP POP JUMP JUMPDEST PUSH0 PUSH2 0x2C42 PUSH2 0x28C6 JUMP JUMPDEST SWAP1 POP PUSH2 0x2C4E DUP3 DUP3 PUSH2 0x2C08 JUMP JUMPDEST SWAP2 SWAP1 POP JUMP JUMPDEST PUSH0 PUSH8 0xFFFFFFFFFFFFFFFF DUP3 GT ISZERO PUSH2 0x2C6D JUMPI PUSH2 0x2C6C PUSH2 0x2BDB JUMP JUMPDEST JUMPDEST PUSH1 0x20 DUP3 MUL SWAP1 POP PUSH1 0x20 DUP2 ADD SWAP1 POP SWAP2 SWAP1 POP JUMP JUMPDEST PUSH0 PUSH0 REVERT JUMPDEST PUSH0 PUSH2 0x2C94 PUSH2 0x2C8F DUP5 PUSH2 0x2C53 JUMP JUMPDEST PUSH2 0x2C39 JUMP JUMPDEST SWAP1 POP DUP1 DUP4 DUP3 MSTORE PUSH1 0x20 DUP3 ADD SWAP1 POP PUSH1 0x20 DUP5 MUL DUP4 ADD DUP6 DUP2 GT ISZERO PUSH2 0x2CB7 JUMPI PUSH2 0x2CB6 PUSH2 0x2C7E JUMP JUMPDEST JUMPDEST DUP4 JUMPDEST DUP2 DUP2 LT ISZERO PUSH2 0x2CE0 JUMPI DUP1 PUSH2 0x2CCC DUP9 DUP3 PUSH2 0x2950 JUMP JUMPDEST DUP5 MSTORE PUSH1 0x20 DUP5 ADD SWAP4 POP POP PUSH1 0x20 DUP2 ADD SWAP1 POP PUSH2 0x2CB9 JUMP JUMPDEST POP POP POP SWAP4 SWAP3 POP POP POP JUMP JUMPDEST PUSH0 DUP3 PUSH1 0x1F DUP4 ADD SLT PUSH2 0x2CFE JUMPI PUSH2 0x2CFD PUSH2 0x2BD7 JUMP JUMPDEST JUMPDEST DUP2 CALLDATALOAD PUSH2 0x2D0E DUP5 DUP3 PUSH1 0x20 DUP7 ADD PUSH2 0x2C82 JUMP JUMPDEST SWAP2 POP POP SWAP3 SWAP2 POP POP JUMP JUMPDEST PUSH0 PUSH0 REVERT JUMPDEST PUSH0 PUSH8 0xFFFFFFFFFFFFFFFF DUP3 GT ISZERO PUSH2 0x2D35 JUMPI PUSH2 0x2D34 PUSH2 0x2BDB JUMP JUMPDEST JUMPDEST PUSH2 0x2D3E DUP3 PUSH2 0x2AD0 JUMP JUMPDEST SWAP1 POP PUSH1 0x20 DUP2 ADD SWAP1 POP SWAP2 SWAP1 POP JUMP JUMPDEST DUP3 DUP2 DUP4 CALLDATACOPY PUSH0 DUP4 DUP4 ADD MSTORE POP POP POP JUMP JUMPDEST PUSH0 PUSH2 0x2D6B PUSH2 0x2D66 DUP5 PUSH2 0x2D1B JUMP JUMPDEST PUSH2 0x2C39 JUMP JUMPDEST SWAP1 POP DUP3 DUP2 MSTORE PUSH1 0x20 DUP2 ADD DUP5 DUP5 DUP5 ADD GT ISZERO PUSH2 0x2D87 JUMPI PUSH2 0x2D86 PUSH2 0x2D17 JUMP JUMPDEST JUMPDEST PUSH2 0x2D92 DUP5 DUP3 DUP6 PUSH2 0x2D4B JUMP JUMPDEST POP SWAP4 SWAP3 POP POP POP JUMP JUMPDEST PUSH0 DUP3 PUSH1 0x1F DUP4 ADD SLT PUSH2 0x2DAE JUMPI PUSH2 0x2DAD PUSH2 0x2BD7 JUMP JUMPDEST JUMPDEST DUP2 CALLDATALOAD PUSH2 0x2DBE DUP5 DUP3 PUSH1 0x20 DUP7 ADD PUSH2 0x2D59 JUMP JUMPDEST SWAP2 POP POP SWAP3 SWAP2 POP POP JUMP JUMPDEST PUSH0 PUSH0 PUSH0 PUSH0 PUSH0 PUSH1 0xA0 DUP7 DUP9 SUB SLT ISZERO PUSH2 0x2DE0 JUMPI PUSH2 0x2DDF PUSH2 0x28CF JUMP JUMPDEST JUMPDEST PUSH0 PUSH2 0x2DED DUP9 DUP3 DUP10 ADD PUSH2 0x291D JUMP JUMPDEST SWAP6 POP POP PUSH1 0x20 PUSH2 0x2DFE DUP9 DUP3 DUP10 ADD PUSH2 0x291D JUMP JUMPDEST SWAP5 POP POP PUSH1 0x40 DUP7 ADD CALLDATALOAD PUSH8 0xFFFFFFFFFFFFFFFF DUP2 GT ISZERO PUSH2 0x2E1F JUMPI PUSH2 0x2E1E PUSH2 0x28D3 JUMP JUMPDEST JUMPDEST PUSH2 0x2E2B DUP9 DUP3 DUP10 ADD PUSH2 0x2CEA JUMP JUMPDEST SWAP4 POP POP PUSH1 0x60 DUP7 ADD CALLDATALOAD PUSH8 0xFFFFFFFFFFFFFFFF DUP2 GT ISZERO PUSH2 0x2E4C JUMPI PUSH2 0x2E4B PUSH2 0x28D3 JUMP JUMPDEST JUMPDEST PUSH2 0x2E58 DUP9 DUP3 DUP10 ADD PUSH2 0x2CEA JUMP JUMPDEST SWAP3 POP POP PUSH1 0x80 DUP7 ADD CALLDATALOAD PUSH8 0xFFFFFFFFFFFFFFFF DUP2 GT ISZERO PUSH2 0x2E79 JUMPI PUSH2 0x2E78 PUSH2 0x28D3 JUMP JUMPDEST JUMPDEST PUSH2 0x2E85 DUP9 DUP3 DUP10 ADD PUSH2 0x2D9A JUMP JUMPDEST SWAP2 POP POP SWAP3 SWAP6 POP SWAP3 SWAP6 SWAP1 SWAP4 POP JUMP JUMPDEST PUSH0 DUP2 MLOAD SWAP1 POP SWAP2 SWAP1 POP JUMP JUMPDEST PUSH0 DUP3 DUP3 MSTORE PUSH1 0x20 DUP3 ADD SWAP1 POP SWAP3 SWAP2 POP POP JUMP JUMPDEST PUSH0 DUP2 SWAP1 POP PUSH1 0x20 DUP3 ADD SWAP1 POP SWAP2 SWAP1 POP JUMP JUMPDEST PUSH2 0x2EC4 DUP2 PUSH2 0x28F6 JUMP JUMPDEST DUP3 MSTORE POP POP JUMP JUMPDEST PUSH0 PUSH2 0x2ED5 DUP4 DUP4 PUSH2 0x2EBB JUMP JUMPDEST PUSH1 0x20 DUP4 ADD SWAP1 POP SWAP3 SWAP2 POP POP JUMP JUMPDEST PUSH0 PUSH1 0x20 DUP3 ADD SWAP1 POP SWAP2 SWAP1 POP JUMP JUMPDEST PUSH0 PUSH2 0x2EF7 DUP3 PUSH2 0x2E92 JUMP JUMPDEST PUSH2 0x2F01 DUP2 DUP6 PUSH2 0x2E9C JUMP JUMPDEST SWAP4 POP PUSH2 0x2F0C DUP4 PUSH2 0x2EAC JUMP JUMPDEST DUP1 PUSH0 JUMPDEST DUP4 DUP2 LT ISZERO PUSH2 0x2F3C JUMPI DUP2 MLOAD PUSH2 0x2F23 DUP9 DUP3 PUSH2 0x2ECA JUMP JUMPDEST SWAP8 POP PUSH2 0x2F2E DUP4 PUSH2 0x2EE1 JUMP JUMPDEST SWAP3 POP POP PUSH1 0x1 DUP2 ADD SWAP1 POP PUSH2 0x2F0F JUMP JUMPDEST POP DUP6 SWAP4 POP POP POP POP SWAP3 SWAP2 POP POP JUMP JUMPDEST PUSH0 PUSH1 0x20 DUP3 ADD SWAP1 POP DUP2 DUP2 SUB PUSH0 DUP4 ADD MSTORE PUSH2 0x2F61 DUP2 DUP5 PUSH2 0x2EED JUMP JUMPDEST SWAP1 POP SWAP3 SWAP2 POP POP JUMP JUMPDEST PUSH0 PUSH8 0xFFFFFFFFFFFFFFFF DUP3 AND SWAP1 POP SWAP2 SWAP1 POP JUMP JUMPDEST PUSH2 0x2F85 DUP2 PUSH2 0x2F69 JUMP JUMPDEST DUP2 EQ PUSH2 0x2F8F JUMPI PUSH0 PUSH0 REVERT JUMPDEST POP JUMP JUMPDEST PUSH0 DUP2 CALLDATALOAD SWAP1 POP PUSH2 0x2FA0 DUP2 PUSH2 0x2F7C JUMP JUMPDEST SWAP3 SWAP2 POP POP JUMP JUMPDEST PUSH0 PUSH0 PUSH1 0x40 DUP4 DUP6 SUB SLT ISZERO PUSH2 0x2FBC JUMPI PUSH2 0x2FBB PUSH2 0x28CF JUMP JUMPDEST JUMPDEST PUSH0 PUSH2 0x2FC9 DUP6 DUP3 DUP7 ADD PUSH2 0x2950 JUMP JUMPDEST SWAP3 POP POP PUSH1 0x20 PUSH2 0x2FDA DUP6 DUP3 DUP7 ADD PUSH2 0x2F92 JUMP JUMPDEST SWAP2 POP POP SWAP3 POP SWAP3 SWAP1 POP JUMP JUMPDEST PUSH0 PUSH8 0xFFFFFFFFFFFFFFFF DUP3 GT ISZERO PUSH2 0x2FFE JUMPI PUSH2 0x2FFD PUSH2 0x2BDB JUMP JUMPDEST JUMPDEST PUSH1 0x20 DUP3 MUL SWAP1 POP PUSH1 0x20 DUP2 ADD SWAP1 POP SWAP2 SWAP1 POP JUMP JUMPDEST PUSH0 PUSH2 0x3021 PUSH2 0x301C DUP5 PUSH2 0x2FE4 JUMP JUMPDEST PUSH2 0x2C39 JUMP JUMPDEST SWAP1 POP DUP1 DUP4 DUP3 MSTORE PUSH1 0x20 DUP3 ADD SWAP1 POP PUSH1 0x20 DUP5 MUL DUP4 ADD DUP6 DUP2 GT ISZERO PUSH2 0x3044 JUMPI PUSH2 0x3043 PUSH2 0x2C7E JUMP JUMPDEST JUMPDEST DUP4 JUMPDEST DUP2 DUP2 LT ISZERO PUSH2 0x306D JUMPI DUP1 PUSH2 0x3059 DUP9 DUP3 PUSH2 0x291D JUMP JUMPDEST DUP5 MSTORE PUSH1 0x20 DUP5 ADD SWAP4 POP POP PUSH1 0x20 DUP2 ADD SWAP1 POP PUSH2 0x3046 JUMP JUMPDEST POP POP POP SWAP4 SWAP3 POP POP POP JUMP JUMPDEST PUSH0 DUP3 PUSH1 0x1F DUP4 ADD SLT PUSH2 0x308B JUMPI PUSH2 0x308A PUSH2 0x2BD7 JUMP JUMPDEST JUMPDEST DUP2 CALLDATALOAD PUSH2 0x309B DUP5 DUP3 PUSH1 0x20 DUP7 ADD PUSH2 0x300F JUMP JUMPDEST SWAP2 POP POP SWAP3 SWAP2 POP POP JUMP JUMPDEST PUSH0 PUSH0 PUSH1 0x40 DUP4 DUP6 SUB SLT ISZERO PUSH2 0x30BA JUMPI PUSH2 0x30B9 PUSH2 0x28CF JUMP JUMPDEST JUMPDEST PUSH0 DUP4 ADD CALLDATALOAD PUSH8 0xFFFFFFFFFFFFFFFF DUP2 GT ISZERO PUSH2 0x30D7 JUMPI PUSH2 0x30D6 PUSH2 0x28D3 JUMP JUMPDEST JUMPDEST PUSH2 0x30E3 DUP6 DUP3 DUP7 ADD PUSH2 0x3077 JUMP JUMPDEST SWAP3 POP POP PUSH1 0x20 DUP4 ADD CALLDATALOAD PUSH8 0xFFFFFFFFFFFFFFFF DUP2 GT ISZERO PUSH2 0x3104 JUMPI PUSH2 0x3103 PUSH2 0x28D3 JUMP JUMPDEST JUMPDEST PUSH2 0x3110 DUP6 DUP3 DUP7 ADD PUSH2 0x2CEA JUMP JUMPDEST SWAP2 POP POP SWAP3 POP SWAP3 SWAP1 POP JUMP JUMPDEST PUSH0 DUP2 MLOAD SWAP1 POP SWAP2 SWAP1 POP JUMP JUMPDEST PUSH0 DUP3 DUP3 MSTORE PUSH1 0x20 DUP3 ADD SWAP1 POP SWAP3 SWAP2 POP POP JUMP JUMPDEST PUSH0 DUP2 SWAP1 POP PUSH1 0x20 DUP3 ADD SWAP1 POP SWAP2 SWAP1 POP JUMP JUMPDEST PUSH2 0x314C DUP2 PUSH2 0x2931 JUMP JUMPDEST DUP3 MSTORE POP POP JUMP JUMPDEST PUSH0 PUSH2 0x315D DUP4 DUP4 PUSH2 0x3143 JUMP JUMPDEST PUSH1 0x20 DUP4 ADD SWAP1 POP SWAP3 SWAP2 POP POP JUMP JUMPDEST PUSH0 PUSH1 0x20 DUP3 ADD SWAP1 POP SWAP2 SWAP1 POP JUMP JUMPDEST PUSH0 PUSH2 0x317F DUP3 PUSH2 0x311A JUMP JUMPDEST PUSH2 0x3189 DUP2 DUP6 PUSH2 0x3124 JUMP JUMPDEST SWAP4 POP PUSH2 0x3194 DUP4 PUSH2 0x3134 JUMP JUMPDEST DUP1 PUSH0 JUMPDEST DUP4 DUP2 LT ISZERO PUSH2 0x31C4 JUMPI DUP2 MLOAD PUSH2 0x31AB DUP9 DUP3 PUSH2 0x3152 JUMP JUMPDEST SWAP8 POP PUSH2 0x31B6 DUP4 PUSH2 0x3169 JUMP JUMPDEST SWAP3 POP POP PUSH1 0x1 DUP2 ADD SWAP1 POP PUSH2 0x3197 JUMP JUMPDEST POP DUP6 SWAP4 POP POP POP POP SWAP3 SWAP2 POP POP JUMP JUMPDEST PUSH0 PUSH1 0x20 DUP3 ADD SWAP1 POP DUP2 DUP2 SUB PUSH0 DUP4 ADD MSTORE PUSH2 0x31E9 DUP2 DUP5 PUSH2 0x3175 JUMP JUMPDEST SWAP1 POP SWAP3 SWAP2 POP POP JUMP JUMPDEST PUSH0 PUSH0 REVERT JUMPDEST PUSH0 PUSH0 DUP4 PUSH1 0x1F DUP5 ADD SLT PUSH2 0x320A JUMPI PUSH2 0x3209 PUSH2 0x2BD7 JUMP JUMPDEST JUMPDEST DUP3 CALLDATALOAD SWAP1 POP PUSH8 0xFFFFFFFFFFFFFFFF DUP2 GT ISZERO PUSH2 0x3227 JUMPI PUSH2 0x3226 PUSH2 0x31F1 JUMP JUMPDEST JUMPDEST PUSH1 0x20 DUP4 ADD SWAP2 POP DUP4 PUSH1 0x1 DUP3 MUL DUP4 ADD GT ISZERO PUSH2 0x3243 JUMPI PUSH2 0x3242 PUSH2 0x2C7E JUMP JUMPDEST JUMPDEST SWAP3 POP SWAP3 SWAP1 POP JUMP JUMPDEST PUSH0 PUSH0 PUSH0 PUSH0 PUSH0 PUSH1 0x80 DUP7 DUP9 SUB SLT ISZERO PUSH2 0x3263 JUMPI PUSH2 0x3262 PUSH2 0x28CF JUMP JUMPDEST JUMPDEST PUSH0 PUSH2 0x3270 DUP9 DUP3 DUP10 ADD PUSH2 0x291D JUMP JUMPDEST SWAP6 POP POP PUSH1 0x20 PUSH2 0x3281 DUP9 DUP3 DUP10 ADD PUSH2 0x2950 JUMP JUMPDEST SWAP5 POP POP PUSH1 0x40 PUSH2 0x3292 DUP9 DUP3 DUP10 ADD PUSH2 0x2950 JUMP JUMPDEST SWAP4 POP POP PUSH1 0x60 DUP7 ADD CALLDATALOAD PUSH8 0xFFFFFFFFFFFFFFFF DUP2 GT ISZERO PUSH2 0x32B3 JUMPI PUSH2 0x32B2 PUSH2 0x28D3 JUMP JUMPDEST JUMPDEST PUSH2 0x32BF DUP9 DUP3 DUP10 ADD PUSH2 0x31F5 JUMP JUMPDEST SWAP3 POP SWAP3 POP POP SWAP3 SWAP6 POP SWAP3 SWAP6 SWAP1 SWAP4 POP JUMP JUMPDEST PUSH2 0x32D7 DUP2 PUSH2 0x28F6 JUMP JUMPDEST DUP3 MSTORE POP POP JUMP JUMPDEST PUSH0 PUSH1 0x20 DUP3 ADD SWAP1 POP PUSH2 0x32F0 PUSH0 DUP4 ADD DUP5 PUSH2 0x32CE JUMP JUMPDEST SWAP3 SWAP2 POP POP JUMP JUMPDEST PUSH0 PUSH0 DUP4 PUSH1 0x1F DUP5 ADD SLT PUSH2 0x330B JUMPI PUSH2 0x330A PUSH2 0x2BD7 JUMP JUMPDEST JUMPDEST DUP3 CALLDATALOAD SWAP1 POP PUSH8 0xFFFFFFFFFFFFFFFF DUP2 GT ISZERO PUSH2 0x3328 JUMPI PUSH2 0x3327 PUSH2 0x31F1 JUMP JUMPDEST JUMPDEST PUSH1 0x20 DUP4 ADD SWAP2 POP DUP4 PUSH1 0x1 DUP3 MUL DUP4 ADD GT ISZERO PUSH2 0x3344 JUMPI PUSH2 0x3343 PUSH2 0x2C7E JUMP JUMPDEST JUMPDEST SWAP3 POP SWAP3 SWAP1 POP JUMP JUMPDEST PUSH0 PUSH0 PUSH0 PUSH0 PUSH0 PUSH0 PUSH0 PUSH1 0xA0 DUP9 DUP11 SUB SLT ISZERO PUSH2 0x3366 JUMPI PUSH2 0x3365 PUSH2 0x28CF JUMP JUMPDEST JUMPDEST PUSH0 PUSH2 0x3373 DUP11 DUP3 DUP12 ADD PUSH2 0x291D JUMP JUMPDEST SWAP8 POP POP PUSH1 0x20 PUSH2 0x3384 DUP11 DUP3 DUP12 ADD PUSH2 0x2950 JUMP JUMPDEST SWAP7 POP POP PUSH1 0x40 PUSH2 0x3395 DUP11 DUP3 DUP12 ADD PUSH2 0x2950 JUMP JUMPDEST SWAP6 POP POP PUSH1 0x60 DUP9 ADD CALLDATALOAD PUSH8 0xFFFFFFFFFFFFFFFF DUP2 GT ISZERO PUSH2 0x33B6 JUMPI PUSH2 0x33B5 PUSH2 0x28D3 JUMP JUMPDEST JUMPDEST PUSH2 0x33C2 DUP11 DUP3 DUP12 ADD PUSH2 0x31F5 JUMP JUMPDEST SWAP5 POP SWAP5 POP POP PUSH1 0x80 DUP9 ADD CALLDATALOAD PUSH8 0xFFFFFFFFFFFFFFFF DUP2 GT ISZERO PUSH2 0x33E5 JUMPI PUSH2 0x33E4 PUSH2 0x28D3 JUMP JUMPDEST JUMPDEST PUSH2 0x33F1 DUP11 DUP3 DUP12 ADD PUSH2 0x32F6 JUMP JUMPDEST SWAP3 POP SWAP3 POP POP SWAP3 SWAP6 SWAP9 SWAP2 SWAP5 SWAP8 POP SWAP3 SWAP6 POP JUMP JUMPDEST PUSH0 PUSH0 PUSH0 PUSH1 0x60 DUP5 DUP7 SUB SLT ISZERO PUSH2 0x3419 JUMPI PUSH2 0x3418 PUSH2 0x28CF JUMP JUMPDEST JUMPDEST PUSH0 PUSH2 0x3426 DUP7 DUP3 DUP8 ADD PUSH2 0x2950 JUMP JUMPDEST SWAP4 POP POP PUSH1 0x20 PUSH2 0x3437 DUP7 DUP3 DUP8 ADD PUSH2 0x2F92 JUMP JUMPDEST SWAP3 POP POP PUSH1 0x40 PUSH2 0x3448 DUP7 DUP3 DUP8 ADD PUSH2 0x291D JUMP JUMPDEST SWAP2 POP POP SWAP3 POP SWAP3 POP SWAP3 JUMP JUMPDEST PUSH2 0x345B DUP2 PUSH2 0x2A4A JUMP JUMPDEST DUP2 EQ PUSH2 0x3465 JUMPI PUSH0 PUSH0 REVERT JUMPDEST POP JUMP JUMPDEST PUSH0 DUP2 CALLDATALOAD SWAP1 POP PUSH2 0x3476 DUP2 PUSH2 0x3452 JUMP JUMPDEST SWAP3 SWAP2 POP POP JUMP JUMPDEST PUSH0 PUSH0 PUSH1 0x40 DUP4 DUP6 SUB SLT ISZERO PUSH2 0x3492 JUMPI PUSH2 0x3491 PUSH2 0x28CF JUMP JUMPDEST JUMPDEST PUSH0 PUSH2 0x349F DUP6 DUP3 DUP7 ADD PUSH2 0x291D JUMP JUMPDEST SWAP3 POP POP PUSH1 0x20 PUSH2 0x34B0 DUP6 DUP3 DUP7 ADD PUSH2 0x3468 JUMP JUMPDEST SWAP2 POP POP SWAP3 POP SWAP3 SWAP1 POP JUMP JUMPDEST PUSH2 0x34C3 DUP2 PUSH2 0x2F69 JUMP JUMPDEST DUP3 MSTORE POP POP JUMP JUMPDEST PUSH0 PUSH1 0x20 DUP3 ADD SWAP1 POP PUSH2 0x34DC PUSH0 DUP4 ADD DUP5 PUSH2 0x34BA JUMP JUMPDEST SWAP3 SWAP2 POP POP JUMP JUMPDEST PUSH0 PUSH0 PUSH1 0x40 DUP4 DUP6 SUB SLT ISZERO PUSH2 0x34F8 JUMPI PUSH2 0x34F7 PUSH2 0x28CF JUMP JUMPDEST JUMPDEST PUSH0 PUSH2 0x3505 DUP6 DUP3 DUP7 ADD PUSH2 0x291D JUMP JUMPDEST SWAP3 POP POP PUSH1 0x20 PUSH2 0x3516 DUP6 DUP3 DUP7 ADD PUSH2 0x291D JUMP JUMPDEST SWAP2 POP POP SWAP3 POP SWAP3 SWAP1 POP JUMP JUMPDEST PUSH0 PUSH0 PUSH0 PUSH0 PUSH0 PUSH1 0xA0 DUP7 DUP9 SUB SLT ISZERO PUSH2 0x3539 JUMPI PUSH2 0x3538 PUSH2 0x28CF JUMP JUMPDEST JUMPDEST PUSH0 PUSH2 0x3546 DUP9 DUP3 DUP10 ADD PUSH2 0x291D JUMP JUMPDEST SWAP6 POP POP PUSH1 0x20 PUSH2 0x3557 DUP9 DUP3 DUP10 ADD PUSH2 0x291D JUMP JUMPDEST SWAP5 POP POP PUSH1 0x40 PUSH2 0x3568 DUP9 DUP3 DUP10 ADD PUSH2 0x2950 JUMP JUMPDEST SWAP4 POP POP PUSH1 0x60 PUSH2 0x3579 DUP9 DUP3 DUP10 ADD PUSH2 0x2950 JUMP JUMPDEST SWAP3 POP POP PUSH1 0x80 DUP7 ADD CALLDATALOAD PUSH8 0xFFFFFFFFFFFFFFFF DUP2 GT ISZERO PUSH2 0x359A JUMPI PUSH2 0x3599 PUSH2 0x28D3 JUMP JUMPDEST JUMPDEST PUSH2 0x35A6 DUP9 DUP3 DUP10 ADD PUSH2 0x2D9A JUMP JUMPDEST SWAP2 POP POP SWAP3 SWAP6 POP SWAP3 SWAP6 SWAP1 SWAP4 POP JUMP JUMPDEST PUSH0 PUSH0 PUSH0 PUSH1 0x60 DUP5 DUP7 SUB SLT ISZERO PUSH2 0x35CA JUMPI PUSH2 0x35C9 PUSH2 0x28CF JUMP JUMPDEST JUMPDEST PUSH0 PUSH2 0x35D7 DUP7 DUP3 DUP8 ADD PUSH2 0x291D JUMP JUMPDEST SWAP4 POP POP PUSH1 0x20 PUSH2 0x35E8 DUP7 DUP3 DUP8 ADD PUSH2 0x2950 JUMP JUMPDEST SWAP3 POP POP PUSH1 0x40 PUSH2 0x35F9 DUP7 DUP3 DUP8 ADD PUSH2 0x2950 JUMP JUMPDEST SWAP2 POP POP SWAP3 POP SWAP3 POP SWAP3 JUMP JUMPDEST PUSH32 0x4E487B7100000000000000000000000000000000000000000000000000000000 PUSH0 MSTORE PUSH1 0x22 PUSH1 0x4 MSTORE PUSH1 0x24 PUSH0 REVERT JUMPDEST PUSH0 PUSH1 0x2 DUP3 DIV SWAP1 POP PUSH1 0x1 DUP3 AND DUP1 PUSH2 0x3647 JUMPI PUSH1 0x7F DUP3 AND SWAP2 POP JUMPDEST PUSH1 0x20 DUP3 LT DUP2 SUB PUSH2 0x365A JUMPI PUSH2 0x3659 PUSH2 0x3603 JUMP JUMPDEST JUMPDEST POP SWAP2 SWAP1 POP JUMP JUMPDEST PUSH32 0x4E487B7100000000000000000000000000000000000000000000000000000000 PUSH0 MSTORE PUSH1 0x32 PUSH1 0x4 MSTORE PUSH1 0x24 PUSH0 REVERT JUMPDEST PUSH32 0x4E487B7100000000000000000000000000000000000000000000000000000000 PUSH0 MSTORE PUSH1 0x11 PUSH1 0x4 MSTORE PUSH1 0x24 PUSH0 REVERT JUMPDEST PUSH0 PUSH2 0x36C4 DUP3 PUSH2 0x2931 JUMP JUMPDEST SWAP2 POP PUSH2 0x36CF DUP4 PUSH2 0x2931 JUMP JUMPDEST SWAP3 POP DUP3 DUP3 SUB SWAP1 POP DUP2 DUP2 GT ISZERO PUSH2 0x36E7 JUMPI PUSH2 0x36E6 PUSH2 0x368D JUMP JUMPDEST JUMPDEST SWAP3 SWAP2 POP POP JUMP JUMPDEST PUSH32 0x4E487B7100000000000000000000000000000000000000000000000000000000 PUSH0 MSTORE PUSH1 0x31 PUSH1 0x4 MSTORE PUSH1 0x24 PUSH0 REVERT JUMPDEST PUSH32 0x41646D696E206E6F7420666F756E640000000000000000000000000000000000 PUSH0 DUP3 ADD MSTORE POP JUMP JUMPDEST PUSH0 PUSH2 0x374E PUSH1 0xF DUP4 PUSH2 0x2AB2 JUMP JUMPDEST SWAP2 POP PUSH2 0x3759 DUP3 PUSH2 0x371A JUMP JUMPDEST PUSH1 0x20 DUP3 ADD SWAP1 POP SWAP2 SWAP1 POP JUMP JUMPDEST PUSH0 PUSH1 0x20 DUP3 ADD SWAP1 POP DUP2 DUP2 SUB PUSH0 DUP4 ADD MSTORE PUSH2 0x377B DUP2 PUSH2 0x3742 JUMP JUMPDEST SWAP1 POP SWAP2 SWAP1 POP JUMP JUMPDEST PUSH32 0x455243313135353A204D69736D617463686564206172726179206C656E677468 PUSH0 DUP3 ADD MSTORE PUSH32 0x7300000000000000000000000000000000000000000000000000000000000000 PUSH1 0x20 DUP3 ADD MSTORE POP JUMP JUMPDEST PUSH0 PUSH2 0x37DC PUSH1 0x21 DUP4 PUSH2 0x2AB2 JUMP JUMPDEST SWAP2 POP PUSH2 0x37E7 DUP3 PUSH2 0x3782 JUMP JUMPDEST PUSH1 0x40 DUP3 ADD SWAP1 POP SWAP2 SWAP1 POP JUMP JUMPDEST PUSH0 PUSH1 0x20 DUP3 ADD SWAP1 POP DUP2 DUP2 SUB PUSH0 DUP4 ADD MSTORE PUSH2 0x3809 DUP2 PUSH2 0x37D0 JUMP JUMPDEST SWAP1 POP SWAP2 SWAP1 POP JUMP JUMPDEST PUSH32 0x455243313135353A207472616E7366657220746F20746865207A65726F206164 PUSH0 DUP3 ADD MSTORE PUSH32 0x6472657373000000000000000000000000000000000000000000000000000000 PUSH1 0x20 DUP3 ADD MSTORE POP JUMP JUMPDEST PUSH0 PUSH2 0x386A PUSH1 0x25 DUP4 PUSH2 0x2AB2 JUMP JUMPDEST SWAP2 POP PUSH2 0x3875 DUP3 PUSH2 0x3810 JUMP JUMPDEST PUSH1 0x40 DUP3 ADD SWAP1 POP SWAP2 SWAP1 POP JUMP JUMPDEST PUSH0 PUSH1 0x20 DUP3 ADD SWAP1 POP DUP2 DUP2 SUB PUSH0 DUP4 ADD MSTORE PUSH2 0x3897 DUP2 PUSH2 0x385E JUMP JUMPDEST SWAP1 POP SWAP2 SWAP1 POP JUMP JUMPDEST PUSH32 0x43616C6C6572206973206E6F7420616E2061646D696E00000000000000000000 PUSH0 DUP3 ADD MSTORE POP JUMP JUMPDEST PUSH0 PUSH2 0x38D2 PUSH1 0x16 DUP4 PUSH2 0x2AB2 JUMP JUMPDEST SWAP2 POP PUSH2 0x38DD DUP3 PUSH2 0x389E JUMP JUMPDEST PUSH1 0x20 DUP3 ADD SWAP1 POP SWAP2 SWAP1 POP JUMP JUMPDEST PUSH0 PUSH1 0x20 DUP3 ADD SWAP1 POP DUP2 DUP2 SUB PUSH0 DUP4 ADD MSTORE PUSH2 0x38FF DUP2 PUSH2 0x38C6 JUMP JUMPDEST SWAP1 POP SWAP2 SWAP1 POP JUMP JUMPDEST PUSH32 0x746F6B656E20696420646F6573206E6F74206578697374000000000000000000 PUSH0 DUP3 ADD MSTORE POP JUMP JUMPDEST PUSH0 PUSH2 0x393A PUSH1 0x17 DUP4 PUSH2 0x2AB2 JUMP JUMPDEST SWAP2 POP PUSH2 0x3945 DUP3 PUSH2 0x3906 JUMP JUMPDEST PUSH1 0x20 DUP3 ADD SWAP1 POP SWAP2 SWAP1 POP JUMP JUMPDEST PUSH0 PUSH1 0x20 DUP3 ADD SWAP1 POP DUP2 DUP2 SUB PUSH0 DUP4 ADD MSTORE PUSH2 0x3967 DUP2 PUSH2 0x392E JUMP JUMPDEST SWAP1 POP SWAP2 SWAP1 POP JUMP JUMPDEST PUSH32 0x50726F6F66207265717565737420646F6573206E6F7420657869737400000000 PUSH0 DUP3 ADD MSTORE POP JUMP JUMPDEST PUSH0 PUSH2 0x39A2 PUSH1 0x1C DUP4 PUSH2 0x2AB2 JUMP JUMPDEST SWAP2 POP PUSH2 0x39AD DUP3 PUSH2 0x396E JUMP JUMPDEST PUSH1 0x20 DUP3 ADD SWAP1 POP SWAP2 SWAP1 POP JUMP JUMPDEST PUSH0 PUSH1 0x20 DUP3 ADD SWAP1 POP DUP2 DUP2 SUB PUSH0 DUP4 ADD MSTORE PUSH2 0x39CF DUP2 PUSH2 0x3996 JUMP JUMPDEST SWAP1 POP SWAP2 SWAP1 POP JUMP JUMPDEST PUSH0 PUSH1 0x40 DUP3 ADD SWAP1 POP PUSH2 0x39E9 PUSH0 DUP4 ADD DUP6 PUSH2 0x29A2 JUMP JUMPDEST PUSH2 0x39F6 PUSH1 0x20 DUP4 ADD DUP5 PUSH2 0x29A2 JUMP JUMPDEST SWAP4 SWAP3 POP POP POP JUMP JUMPDEST PUSH32 0x496E76616C696420616464726573730000000000000000000000000000000000 PUSH0 DUP3 ADD MSTORE POP JUMP JUMPDEST PUSH0 PUSH2 0x3A31 PUSH1 0xF DUP4 PUSH2 0x2AB2 JUMP JUMPDEST SWAP2 POP PUSH2 0x3A3C DUP3 PUSH2 0x39FD JUMP JUMPDEST PUSH1 0x20 DUP3 ADD SWAP1 POP SWAP2 SWAP1 POP JUMP JUMPDEST PUSH0 PUSH1 0x20 DUP3 ADD SWAP1 POP DUP2 DUP2 SUB PUSH0 DUP4 ADD MSTORE PUSH2 0x3A5E DUP2 PUSH2 0x3A25 JUMP JUMPDEST SWAP1 POP SWAP2 SWAP1 POP JUMP JUMPDEST PUSH32 0x4164647265737320697320616C726561647920616E2061646D696E0000000000 PUSH0 DUP3 ADD MSTORE POP JUMP JUMPDEST PUSH0 PUSH2 0x3A99 PUSH1 0x1B DUP4 PUSH2 0x2AB2 JUMP JUMPDEST SWAP2 POP PUSH2 0x3AA4 DUP3 PUSH2 0x3A65 JUMP JUMPDEST PUSH1 0x20 DUP3 ADD SWAP1 POP SWAP2 SWAP1 POP JUMP JUMPDEST PUSH0 PUSH1 0x20 DUP3 ADD SWAP1 POP DUP2 DUP2 SUB PUSH0 DUP4 ADD MSTORE PUSH2 0x3AC6 DUP2 PUSH2 0x3A8D JUMP JUMPDEST SWAP1 POP SWAP2 SWAP1 POP JUMP JUMPDEST PUSH0 DUP3 SWAP1 POP SWAP3 SWAP2 POP POP JUMP JUMPDEST PUSH0 DUP2 SWAP1 POP DUP2 PUSH0 MSTORE PUSH1 0x20 PUSH0 KECCAK256 SWAP1 POP SWAP2 SWAP1 POP JUMP JUMPDEST PUSH0 PUSH1 0x20 PUSH1 0x1F DUP4 ADD DIV SWAP1 POP SWAP2 SWAP1 POP JUMP JUMPDEST PUSH0 DUP3 DUP3 SHL SWAP1 POP SWAP3 SWAP2 POP POP JUMP JUMPDEST PUSH0 PUSH1 0x8 DUP4 MUL PUSH2 0x3B33 PUSH32 0xFFFFFFFFFFFFFFFFFFFFFFFFFFFFFFFFFFFFFFFFFFFFFFFFFFFFFFFFFFFFFFFF DUP3 PUSH2 0x3AF8 JUMP JUMPDEST PUSH2 0x3B3D DUP7 DUP4 PUSH2 0x3AF8 JUMP JUMPDEST SWAP6 POP DUP1 NOT DUP5 AND SWAP4 POP DUP1 DUP7 AND DUP5 OR SWAP3 POP POP POP SWAP4 SWAP3 POP POP POP JUMP JUMPDEST PUSH0 PUSH2 0x3B6F PUSH2 0x3B6A PUSH2 0x3B65 DUP5 PUSH2 0x2931 JUMP JUMPDEST PUSH2 0x2B63 JUMP JUMPDEST PUSH2 0x2931 JUMP JUMPDEST SWAP1 POP SWAP2 SWAP1 POP JUMP JUMPDEST PUSH0 DUP2 SWAP1 POP SWAP2 SWAP1 POP JUMP JUMPDEST PUSH2 0x3B88 DUP4 PUSH2 0x3B55 JUMP JUMPDEST PUSH2 0x3B9C PUSH2 0x3B94 DUP3 PUSH2 0x3B76 JUMP JUMPDEST DUP5 DUP5 SLOAD PUSH2 0x3B04 JUMP JUMPDEST DUP3 SSTORE POP POP POP POP JUMP JUMPDEST PUSH0 PUSH0 SWAP1 POP SWAP1 JUMP JUMPDEST PUSH2 0x3BB3 PUSH2 0x3BA4 JUMP JUMPDEST PUSH2 0x3BBE DUP2 DUP5 DUP5 PUSH2 0x3B7F JUMP JUMPDEST POP POP POP JUMP JUMPDEST JUMPDEST DUP2 DUP2 LT ISZERO PUSH2 0x3BE1 JUMPI PUSH2 0x3BD6 PUSH0 DUP3 PUSH2 0x3BAB JUMP JUMPDEST PUSH1 0x1 DUP2 ADD SWAP1 POP PUSH2 0x3BC4 JUMP JUMPDEST POP POP JUMP JUMPDEST PUSH1 0x1F DUP3 GT ISZERO PUSH2 0x3C26 JUMPI PUSH2 0x3BF7 DUP2 PUSH2 0x3AD7 JUMP JUMPDEST PUSH2 0x3C00 DUP5 PUSH2 0x3AE9 JUMP JUMPDEST DUP2 ADD PUSH1 0x20 DUP6 LT ISZERO PUSH2 0x3C0F JUMPI DUP2 SWAP1 POP JUMPDEST PUSH2 0x3C23 PUSH2 0x3C1B DUP6 PUSH2 0x3AE9 JUMP JUMPDEST DUP4 ADD DUP3 PUSH2 0x3BC3 JUMP JUMPDEST POP POP JUMPDEST POP POP POP JUMP JUMPDEST PUSH0 DUP3 DUP3 SHR SWAP1 POP SWAP3 SWAP2 POP POP JUMP JUMPDEST PUSH0 PUSH2 0x3C46 PUSH0 NOT DUP5 PUSH1 0x8 MUL PUSH2 0x3C2B JUMP JUMPDEST NOT DUP1 DUP4 AND SWAP2 POP POP SWAP3 SWAP2 POP POP JUMP JUMPDEST PUSH0 PUSH2 0x3C5E DUP4 DUP4 PUSH2 0x3C37 JUMP JUMPDEST SWAP2 POP DUP3 PUSH1 0x2 MUL DUP3 OR SWAP1 POP SWAP3 SWAP2 POP POP JUMP JUMPDEST PUSH2 0x3C78 DUP4 DUP4 PUSH2 0x3ACD JUMP JUMPDEST PUSH8 0xFFFFFFFFFFFFFFFF DUP2 GT ISZERO PUSH2 0x3C91 JUMPI PUSH2 0x3C90 PUSH2 0x2BDB JUMP JUMPDEST JUMPDEST PUSH2 0x3C9B DUP3 SLOAD PUSH2 0x3630 JUMP JUMPDEST PUSH2 0x3CA6 DUP3 DUP3 DUP6 PUSH2 0x3BE5 JUMP JUMPDEST PUSH0 PUSH1 0x1F DUP4 GT PUSH1 0x1 DUP2 EQ PUSH2 0x3CD3 JUMPI PUSH0 DUP5 ISZERO PUSH2 0x3CC1 JUMPI DUP3 DUP8 ADD CALLDATALOAD SWAP1 POP JUMPDEST PUSH2 0x3CCB DUP6 DUP3 PUSH2 0x3C53 JUMP JUMPDEST DUP7 SSTORE POP PUSH2 0x3D32 JUMP JUMPDEST PUSH1 0x1F NOT DUP5 AND PUSH2 0x3CE1 DUP7 PUSH2 0x3AD7 JUMP JUMPDEST PUSH0 JUMPDEST DUP3 DUP2 LT ISZERO PUSH2 0x3D08 JUMPI DUP5 DUP10 ADD CALLDATALOAD DUP3 SSTORE PUSH1 0x1 DUP3 ADD SWAP2 POP PUSH1 0x20 DUP6 ADD SWAP5 POP PUSH1 0x20 DUP2 ADD SWAP1 POP PUSH2 0x3CE3 JUMP JUMPDEST DUP7 DUP4 LT ISZERO PUSH2 0x3D25 JUMPI DUP5 DUP10 ADD CALLDATALOAD PUSH2 0x3D21 PUSH1 0x1F DUP10 AND DUP3 PUSH2 0x3C37 JUMP JUMPDEST DUP4 SSTORE POP JUMPDEST PUSH1 0x1 PUSH1 0x2 DUP9 MUL ADD DUP9 SSTORE POP POP POP JUMPDEST POP POP POP POP POP POP POP JUMP JUMPDEST PUSH32 0x50726F6F66207265717565737420616C72656164792065786973747300000000 PUSH0 DUP3 ADD MSTORE POP JUMP JUMPDEST PUSH0 PUSH2 0x3D6F PUSH1 0x1C DUP4 PUSH2 0x2AB2 JUMP JUMPDEST SWAP2 POP PUSH2 0x3D7A DUP3 PUSH2 0x3D3B JUMP JUMPDEST PUSH1 0x20 DUP3 ADD SWAP1 POP SWAP2 SWAP1 POP JUMP JUMPDEST PUSH0 PUSH1 0x20 DUP3 ADD SWAP1 POP DUP2 DUP2 SUB PUSH0 DUP4 ADD MSTORE PUSH2 0x3D9C DUP2 PUSH2 0x3D63 JUMP JUMPDEST SWAP1 POP SWAP2 SWAP1 POP JUMP JUMPDEST PUSH0 PUSH1 0x40 DUP3 ADD SWAP1 POP PUSH2 0x3DB6 PUSH0 DUP4 ADD DUP6 PUSH2 0x32CE JUMP JUMPDEST PUSH2 0x3DC3 PUSH1 0x20 DUP4 ADD DUP5 PUSH2 0x34BA JUMP JUMPDEST SWAP4 SWAP3 POP POP POP JUMP JUMPDEST PUSH0 PUSH0 REVERT JUMPDEST PUSH0 PUSH0 REVERT JUMPDEST PUSH0 DUP2 MLOAD SWAP1 POP PUSH2 0x3DE0 DUP2 PUSH2 0x3452 JUMP JUMPDEST SWAP3 SWAP2 POP POP JUMP JUMPDEST PUSH0 PUSH8 0xFFFFFFFFFFFFFFFF DUP3 GT ISZERO PUSH2 0x3E00 JUMPI PUSH2 0x3DFF PUSH2 0x2BDB JUMP JUMPDEST JUMPDEST PUSH2 0x3E09 DUP3 PUSH2 0x2AD0 JUMP JUMPDEST SWAP1 POP PUSH1 0x20 DUP2 ADD SWAP1 POP SWAP2 SWAP1 POP JUMP JUMPDEST PUSH0 PUSH2 0x3E28 PUSH2 0x3E23 DUP5 PUSH2 0x3DE6 JUMP JUMPDEST PUSH2 0x2C39 JUMP JUMPDEST SWAP1 POP DUP3 DUP2 MSTORE PUSH1 0x20 DUP2 ADD DUP5 DUP5 DUP5 ADD GT ISZERO PUSH2 0x3E44 JUMPI PUSH2 0x3E43 PUSH2 0x2D17 JUMP JUMPDEST JUMPDEST PUSH2 0x3E4F DUP5 DUP3 DUP6 PUSH2 0x2AC2 JUMP JUMPDEST POP SWAP4 SWAP3 POP POP POP JUMP JUMPDEST PUSH0 DUP3 PUSH1 0x1F DUP4 ADD SLT PUSH2 0x3E6B JUMPI PUSH2 0x3E6A PUSH2 0x2BD7 JUMP JUMPDEST JUMPDEST DUP2 MLOAD PUSH2 0x3E7B DUP5 DUP3 PUSH1 0x20 DUP7 ADD PUSH2 0x3E16 JUMP JUMPDEST SWAP2 POP POP SWAP3 SWAP2 POP POP JUMP JUMPDEST PUSH0 DUP2 MLOAD SWAP1 POP PUSH2 0x3E92 DUP2 PUSH2 0x293A JUMP JUMPDEST SWAP3 SWAP2 POP POP JUMP JUMPDEST PUSH0 PUSH1 0x80 DUP3 DUP5 SUB SLT ISZERO PUSH2 0x3EAD JUMPI PUSH2 0x3EAC PUSH2 0x3DCA JUMP JUMPDEST JUMPDEST PUSH2 0x3EB7 PUSH1 0x80 PUSH2 0x2C39 JUMP JUMPDEST SWAP1 POP PUSH0 PUSH2 0x3EC6 DUP5 DUP3 DUP6 ADD PUSH2 0x3DD2 JUMP JUMPDEST PUSH0 DUP4 ADD MSTORE POP PUSH1 0x20 DUP3 ADD MLOAD PUSH8 0xFFFFFFFFFFFFFFFF DUP2 GT ISZERO PUSH2 0x3EE9 JUMPI PUSH2 0x3EE8 PUSH2 0x3DCE JUMP JUMPDEST JUMPDEST PUSH2 0x3EF5 DUP5 DUP3 DUP6 ADD PUSH2 0x3E57 JUMP JUMPDEST PUSH1 0x20 DUP4 ADD MSTORE POP PUSH1 0x40 PUSH2 0x3F09 DUP5 DUP3 DUP6 ADD PUSH2 0x3E84 JUMP JUMPDEST PUSH1 0x40 DUP4 ADD MSTORE POP PUSH1 0x60 PUSH2 0x3F1D DUP5 DUP3 DUP6 ADD PUSH2 0x3E84 JUMP JUMPDEST PUSH1 0x60 DUP4 ADD MSTORE POP SWAP3 SWAP2 POP POP JUMP JUMPDEST PUSH0 PUSH1 0x20 DUP3 DUP5 SUB SLT ISZERO PUSH2 0x3F3E JUMPI PUSH2 0x3F3D PUSH2 0x28CF JUMP JUMPDEST JUMPDEST PUSH0 DUP3 ADD MLOAD PUSH8 0xFFFFFFFFFFFFFFFF DUP2 GT ISZERO PUSH2 0x3F5B JUMPI PUSH2 0x3F5A PUSH2 0x28D3 JUMP JUMPDEST JUMPDEST PUSH2 0x3F67 DUP5 DUP3 DUP6 ADD PUSH2 0x3E98 JUMP JUMPDEST SWAP2 POP POP SWAP3 SWAP2 POP POP JUMP JUMPDEST PUSH0 PUSH1 0x40 DUP3 ADD SWAP1 POP PUSH2 0x3F83 PUSH0 DUP4 ADD DUP6 PUSH2 0x34BA JUMP JUMPDEST PUSH2 0x3F90 PUSH1 0x20 DUP4 ADD DUP5 PUSH2 0x32CE JUMP JUMPDEST SWAP4 SWAP3 POP POP POP JUMP JUMPDEST PUSH0 PUSH1 0x40 DUP3 ADD SWAP1 POP PUSH2 0x3FAA PUSH0 DUP4 ADD DUP6 PUSH2 0x32CE JUMP JUMPDEST PUSH2 0x3FB7 PUSH1 0x20 DUP4 ADD DUP5 PUSH2 0x32CE JUMP JUMPDEST SWAP4 SWAP3 POP POP POP JUMP JUMPDEST PUSH0 PUSH1 0x80 DUP3 ADD SWAP1 POP PUSH2 0x3FD1 PUSH0 DUP4 ADD DUP8 PUSH2 0x32CE JUMP JUMPDEST PUSH2 0x3FDE PUSH1 0x20 DUP4 ADD DUP7 PUSH2 0x29A2 JUMP JUMPDEST PUSH2 0x3FEB PUSH1 0x40 DUP4 ADD DUP6 PUSH2 0x29A2 JUMP JUMPDEST PUSH2 0x3FF8 PUSH1 0x60 DUP4 ADD DUP5 PUSH2 0x29A2 JUMP JUMPDEST SWAP6 SWAP5 POP POP POP POP POP JUMP JUMPDEST PUSH0 PUSH2 0x400B DUP3 PUSH2 0x2931 JUMP JUMPDEST SWAP2 POP PUSH2 0x4016 DUP4 PUSH2 0x2931 JUMP JUMPDEST SWAP3 POP DUP3 DUP3 ADD SWAP1 POP DUP1 DUP3 GT ISZERO PUSH2 0x402E JUMPI PUSH2 0x402D PUSH2 0x368D JUMP JUMPDEST JUMPDEST SWAP3 SWAP2 POP POP JUMP JUMPDEST PUSH0 PUSH1 0x40 DUP3 ADD SWAP1 POP DUP2 DUP2 SUB PUSH0 DUP4 ADD MSTORE PUSH2 0x404C DUP2 DUP6 PUSH2 0x3175 JUMP JUMPDEST SWAP1 POP DUP2 DUP2 SUB PUSH1 0x20 DUP4 ADD MSTORE PUSH2 0x4060 DUP2 DUP5 PUSH2 0x3175 JUMP JUMPDEST SWAP1 POP SWAP4 SWAP3 POP POP POP JUMP JUMPDEST PUSH0 DUP2 MLOAD SWAP1 POP SWAP2 SWAP1 POP JUMP JUMPDEST PUSH0 DUP3 DUP3 MSTORE PUSH1 0x20 DUP3 ADD SWAP1 POP SWAP3 SWAP2 POP POP JUMP JUMPDEST PUSH0 PUSH2 0x408D DUP3 PUSH2 0x4069 JUMP JUMPDEST PUSH2 0x4097 DUP2 DUP6 PUSH2 0x4073 JUMP JUMPDEST SWAP4 POP PUSH2 0x40A7 DUP2 DUP6 PUSH1 0x20 DUP7 ADD PUSH2 0x2AC2 JUMP JUMPDEST PUSH2 0x40B0 DUP2 PUSH2 0x2AD0 JUMP JUMPDEST DUP5 ADD SWAP2 POP POP SWAP3 SWAP2 POP POP JUMP JUMPDEST PUSH0 PUSH1 0xA0 DUP3 ADD SWAP1 POP PUSH2 0x40CE PUSH0 DUP4 ADD DUP9 PUSH2 0x32CE JUMP JUMPDEST PUSH2 0x40DB PUSH1 0x20 DUP4 ADD DUP8 PUSH2 0x32CE JUMP JUMPDEST PUSH2 0x40E8 PUSH1 0x40 DUP4 ADD DUP7 PUSH2 0x29A2 JUMP JUMPDEST PUSH2 0x40F5 PUSH1 0x60 DUP4 ADD DUP6 PUSH2 0x29A2 JUMP JUMPDEST DUP2 DUP2 SUB PUSH1 0x80 DUP4 ADD MSTORE PUSH2 0x4107 DUP2 DUP5 PUSH2 0x4083 JUMP JUMPDEST SWAP1 POP SWAP7 SWAP6 POP POP POP POP POP POP JUMP JUMPDEST PUSH0 DUP2 MLOAD SWAP1 POP PUSH2 0x4121 DUP2 PUSH2 0x29F5 JUMP JUMPDEST SWAP3 SWAP2 POP POP JUMP JUMPDEST PUSH0 PUSH1 0x20 DUP3 DUP5 SUB SLT ISZERO PUSH2 0x413C JUMPI PUSH2 0x413B PUSH2 0x28CF JUMP JUMPDEST JUMPDEST PUSH0 PUSH2 0x4149 DUP5 DUP3 DUP6 ADD PUSH2 0x4113 JUMP JUMPDEST SWAP2 POP POP SWAP3 SWAP2 POP POP JUMP JUMPDEST PUSH0 PUSH1 0xA0 DUP3 ADD SWAP1 POP PUSH2 0x4165 PUSH0 DUP4 ADD DUP9 PUSH2 0x32CE JUMP JUMPDEST PUSH2 0x4172 PUSH1 0x20 DUP4 ADD DUP8 PUSH2 0x32CE JUMP JUMPDEST DUP2 DUP2 SUB PUSH1 0x40 DUP4 ADD MSTORE PUSH2 0x4184 DUP2 DUP7 PUSH2 0x3175 JUMP JUMPDEST SWAP1 POP DUP2 DUP2 SUB PUSH1 0x60 DUP4 ADD MSTORE PUSH2 0x4198 DUP2 DUP6 PUSH2 0x3175 JUMP JUMPDEST SWAP1 POP DUP2 DUP2 SUB PUSH1 0x80 DUP4 ADD MSTORE PUSH2 0x41AC DUP2 DUP5 PUSH2 0x4083 JUMP JUMPDEST SWAP1 POP SWAP7 SWAP6 POP POP POP POP POP POP JUMP INVALID LOG2 PUSH5 0x6970667358 0x22 SLT KECCAK256 DUP15 0xD0 0x4B DUP16 REVERT GT 0xBD 0xEF PUSH5 0x1AA7A88F3C PUSH6 0xA89F93BBC368 DUP7 MOD ADDRESS 0xC1 MOD 0x4E PC MCOPY PUSH6 0x94D164736F6C PUSH4 0x4300081B STOP CALLER "
	},
	"abi": [
		{
			"inputs": [
				{
					"internalType": "contract UniversalVerifier",
					"name": "verifier_",
					"type": "address"
				},
				{
					"internalType": "address",
					"name": "initialOwner",
					"type": "address"
				},
				{
					"internalType": "string",
					"name": "uri_",
					"type": "string"
				}
			],
			"stateMutability": "nonpayable",
			"type": "constructor"
		},
		{
			"inputs": [
				{
					"internalType": "address",
					"name": "sender",
					"type": "address"
				},
				{
					"internalType": "uint256",
					"name": "balance",
					"type": "uint256"
				},
				{
					"internalType": "uint256",
					"name": "needed",
					"type": "uint256"
				},
				{
					"internalType": "uint256",
					"name": "tokenId",
					"type": "uint256"
				}
			],
			"name": "ERC1155InsufficientBalance",
			"type": "error"
		},
		{
			"inputs": [
				{
					"internalType": "address",
					"name": "approver",
					"type": "address"
				}
			],
			"name": "ERC1155InvalidApprover",
			"type": "error"
		},
		{
			"inputs": [
				{
					"internalType": "uint256",
					"name": "idsLength",
					"type": "uint256"
				},
				{
					"internalType": "uint256",
					"name": "valuesLength",
					"type": "uint256"
				}
			],
			"name": "ERC1155InvalidArrayLength",
			"type": "error"
		},
		{
			"inputs": [
				{
					"internalType": "address",
					"name": "operator",
					"type": "address"
				}
			],
			"name": "ERC1155InvalidOperator",
			"type": "error"
		},
		{
			"inputs": [
				{
					"internalType": "address",
					"name": "receiver",
					"type": "address"
				}
			],
			"name": "ERC1155InvalidReceiver",
			"type": "error"
		},
		{
			"inputs": [
				{
					"internalType": "address",
					"name": "sender",
					"type": "address"
				}
			],
			"name": "ERC1155InvalidSender",
			"type": "error"
		},
		{
			"inputs": [
				{
					"internalType": "address",
					"name": "operator",
					"type": "address"
				},
				{
					"internalType": "address",
					"name": "owner",
					"type": "address"
				}
			],
			"name": "ERC1155MissingApprovalForAll",
			"type": "error"
		},
		{
			"inputs": [
				{
					"internalType": "address",
					"name": "owner",
					"type": "address"
				}
			],
			"name": "OwnableInvalidOwner",
			"type": "error"
		},
		{
			"inputs": [
				{
					"internalType": "address",
					"name": "account",
					"type": "address"
				}
			],
			"name": "OwnableUnauthorizedAccount",
			"type": "error"
		},
		{
			"inputs": [
				{
					"internalType": "uint64",
					"name": "requestID",
					"type": "uint64"
				},
				{
					"internalType": "address",
					"name": "proverAddress",
					"type": "address"
				}
			],
			"name": "ProofNotVerified",
			"type": "error"
		},
		{
			"inputs": [
				{
					"internalType": "uint256",
					"name": "tokenID",
					"type": "uint256"
				}
			],
			"name": "TokenIDNotFound",
			"type": "error"
		},
		{
			"inputs": [
				{
					"internalType": "uint256",
					"name": "tokenID",
					"type": "uint256"
				}
			],
			"name": "TokenIDTaken",
			"type": "error"
		},
		{
			"anonymous": false,
			"inputs": [
				{
					"indexed": true,
					"internalType": "address",
					"name": "account",
					"type": "address"
				},
				{
					"indexed": true,
					"internalType": "address",
					"name": "operator",
					"type": "address"
				},
				{
					"indexed": false,
					"internalType": "bool",
					"name": "approved",
					"type": "bool"
				}
			],
			"name": "ApprovalForAll",
			"type": "event"
		},
		{
			"anonymous": false,
			"inputs": [
				{
					"indexed": true,
					"internalType": "address",
					"name": "previousOwner",
					"type": "address"
				},
				{
					"indexed": true,
					"internalType": "address",
					"name": "newOwner",
					"type": "address"
				}
			],
			"name": "OwnershipTransferred",
			"type": "event"
		},
		{
			"anonymous": false,
			"inputs": [
				{
					"indexed": true,
					"internalType": "address",
					"name": "operator",
					"type": "address"
				},
				{
					"indexed": true,
					"internalType": "address",
					"name": "from",
					"type": "address"
				},
				{
					"indexed": true,
					"internalType": "address",
					"name": "to",
					"type": "address"
				},
				{
					"indexed": false,
					"internalType": "uint256[]",
					"name": "ids",
					"type": "uint256[]"
				},
				{
					"indexed": false,
					"internalType": "uint256[]",
					"name": "values",
					"type": "uint256[]"
				}
			],
			"name": "TransferBatch",
			"type": "event"
		},
		{
			"anonymous": false,
			"inputs": [
				{
					"indexed": true,
					"internalType": "address",
					"name": "operator",
					"type": "address"
				},
				{
					"indexed": true,
					"internalType": "address",
					"name": "from",
					"type": "address"
				},
				{
					"indexed": true,
					"internalType": "address",
					"name": "to",
					"type": "address"
				},
				{
					"indexed": false,
					"internalType": "uint256",
					"name": "id",
					"type": "uint256"
				},
				{
					"indexed": false,
					"internalType": "uint256",
					"name": "value",
					"type": "uint256"
				}
			],
			"name": "TransferSingle",
			"type": "event"
		},
		{
			"anonymous": false,
			"inputs": [
				{
					"indexed": false,
					"internalType": "string",
					"name": "value",
					"type": "string"
				},
				{
					"indexed": true,
					"internalType": "uint256",
					"name": "id",
					"type": "uint256"
				}
			],
			"name": "URI",
			"type": "event"
		},
		{
			"inputs": [
				{
					"internalType": "address",
					"name": "_admin",
					"type": "address"
				}
			],
			"name": "addAdmin",
			"outputs": [],
			"stateMutability": "nonpayable",
			"type": "function"
		},
		{
			"inputs": [
				{
					"internalType": "uint256",
					"name": "tokenID",
					"type": "uint256"
				},
				{
					"internalType": "uint64",
					"name": "requestID",
					"type": "uint64"
				},
				{
					"internalType": "address",
					"name": "prover",
					"type": "address"
				}
			],
			"name": "addProofRequestAndAddress",
			"outputs": [],
			"stateMutability": "nonpayable",
			"type": "function"
		},
		{
			"inputs": [],
			"name": "allTokenIDs",
			"outputs": [
				{
					"internalType": "uint256[]",
					"name": "",
					"type": "uint256[]"
				}
			],
			"stateMutability": "view",
			"type": "function"
		},
		{
			"inputs": [
				{
					"internalType": "address",
					"name": "account",
					"type": "address"
				},
				{
					"internalType": "uint256",
					"name": "id",
					"type": "uint256"
				}
			],
			"name": "balanceOf",
			"outputs": [
				{
					"internalType": "uint256",
					"name": "",
					"type": "uint256"
				}
			],
			"stateMutability": "view",
			"type": "function"
		},
		{
			"inputs": [
				{
					"internalType": "address[]",
					"name": "accounts",
					"type": "address[]"
				},
				{
					"internalType": "uint256[]",
					"name": "ids",
					"type": "uint256[]"
				}
			],
			"name": "balanceOfBatch",
			"outputs": [
				{
					"internalType": "uint256[]",
					"name": "",
					"type": "uint256[]"
				}
			],
			"stateMutability": "view",
			"type": "function"
		},
		{
			"inputs": [
				{
					"internalType": "address",
					"name": "account",
					"type": "address"
				},
				{
					"internalType": "uint256",
					"name": "ID",
					"type": "uint256"
				},
				{
					"internalType": "uint256",
					"name": "amount",
					"type": "uint256"
				}
			],
			"name": "burn",
			"outputs": [],
			"stateMutability": "nonpayable",
			"type": "function"
		},
		{
			"inputs": [
				{
					"internalType": "uint256",
					"name": "tokenID",
					"type": "uint256"
				},
				{
					"internalType": "uint64",
					"name": "requestID",
					"type": "uint64"
				}
			],
			"name": "deleteProofRequestAndAddress",
			"outputs": [],
			"stateMutability": "nonpayable",
			"type": "function"
		},
		{
			"inputs": [],
			"name": "fungible_token",
			"outputs": [
				{
					"internalType": "uint256",
					"name": "",
					"type": "uint256"
				}
			],
			"stateMutability": "view",
			"type": "function"
		},
		{
			"inputs": [],
			"name": "getAdmins",
			"outputs": [
				{
					"internalType": "address[]",
					"name": "",
					"type": "address[]"
				}
			],
			"stateMutability": "view",
			"type": "function"
		},
		{
			"inputs": [
				{
					"internalType": "address",
					"name": "account",
					"type": "address"
				},
				{
					"internalType": "address",
					"name": "operator",
					"type": "address"
				}
			],
			"name": "isApprovedForAll",
			"outputs": [
				{
					"internalType": "bool",
					"name": "",
					"type": "bool"
				}
			],
			"stateMutability": "view",
			"type": "function"
		},
		{
			"inputs": [
				{
					"internalType": "address",
					"name": "to",
					"type": "address"
				},
				{
					"internalType": "uint256",
					"name": "ID",
					"type": "uint256"
				},
				{
					"internalType": "uint256",
					"name": "amount",
					"type": "uint256"
				},
				{
					"internalType": "bytes",
					"name": "data",
					"type": "bytes"
				}
			],
			"name": "mintExistingToken",
			"outputs": [],
			"stateMutability": "nonpayable",
			"type": "function"
		},
		{
			"inputs": [
				{
					"internalType": "address",
					"name": "to",
					"type": "address"
				},
				{
					"internalType": "uint256",
					"name": "ID",
					"type": "uint256"
				},
				{
					"internalType": "uint256",
					"name": "amount",
					"type": "uint256"
				},
				{
					"internalType": "bytes",
					"name": "data",
					"type": "bytes"
				},
				{
					"internalType": "string",
					"name": "name",
					"type": "string"
				}
			],
			"name": "mintNewToken",
			"outputs": [],
			"stateMutability": "nonpayable",
			"type": "function"
		},
		{
			"inputs": [],
			"name": "non_fungible_token",
			"outputs": [
				{
					"internalType": "uint256",
					"name": "",
					"type": "uint256"
				}
			],
			"stateMutability": "view",
			"type": "function"
		},
		{
			"inputs": [],
			"name": "owner",
			"outputs": [
				{
					"internalType": "address",
					"name": "",
					"type": "address"
				}
			],
			"stateMutability": "view",
			"type": "function"
		},
		{
			"inputs": [
				{
					"internalType": "uint256",
					"name": "",
					"type": "uint256"
				}
			],
			"name": "proofRequestIDs",
			"outputs": [
				{
					"internalType": "uint64",
					"name": "",
					"type": "uint64"
				}
			],
			"stateMutability": "view",
			"type": "function"
		},
		{
			"inputs": [
				{
					"internalType": "address",
					"name": "_admin",
					"type": "address"
				}
			],
			"name": "removeAdmin",
			"outputs": [],
			"stateMutability": "nonpayable",
			"type": "function"
		},
		{
			"inputs": [],
			"name": "renounceOwnership",
			"outputs": [],
			"stateMutability": "nonpayable",
			"type": "function"
		},
		{
			"inputs": [
				{
					"internalType": "address",
					"name": "from",
					"type": "address"
				},
				{
					"internalType": "address",
					"name": "to",
					"type": "address"
				},
				{
					"internalType": "uint256[]",
					"name": "tokenIDs",
					"type": "uint256[]"
				},
				{
					"internalType": "uint256[]",
					"name": "amounts",
					"type": "uint256[]"
				},
				{
					"internalType": "bytes",
					"name": "data",
					"type": "bytes"
				}
			],
			"name": "safeBatchTransferFrom",
			"outputs": [],
			"stateMutability": "nonpayable",
			"type": "function"
		},
		{
			"inputs": [
				{
					"internalType": "address",
					"name": "from",
					"type": "address"
				},
				{
					"internalType": "address",
					"name": "to",
					"type": "address"
				},
				{
					"internalType": "uint256",
					"name": "tokenID",
					"type": "uint256"
				},
				{
					"internalType": "uint256",
					"name": "amount",
					"type": "uint256"
				},
				{
					"internalType": "bytes",
					"name": "data",
					"type": "bytes"
				}
			],
			"name": "safeTransferFrom",
			"outputs": [],
			"stateMutability": "nonpayable",
			"type": "function"
		},
		{
			"inputs": [
				{
					"internalType": "address",
					"name": "operator",
					"type": "address"
				},
				{
					"internalType": "bool",
					"name": "approved",
					"type": "bool"
				}
			],
			"name": "setApprovalForAll",
			"outputs": [],
			"stateMutability": "nonpayable",
			"type": "function"
		},
		{
			"inputs": [
				{
					"internalType": "bytes4",
					"name": "interfaceId",
					"type": "bytes4"
				}
			],
			"name": "supportsInterface",
			"outputs": [
				{
					"internalType": "bool",
					"name": "",
					"type": "bool"
				}
			],
			"stateMutability": "view",
			"type": "function"
		},
		{
			"inputs": [
				{
					"internalType": "uint256",
					"name": "",
					"type": "uint256"
				},
				{
					"internalType": "uint64",
					"name": "",
					"type": "uint64"
				}
			],
			"name": "tokenID_proofRequest_address",
			"outputs": [
				{
					"internalType": "address",
					"name": "",
					"type": "address"
				}
			],
			"stateMutability": "view",
			"type": "function"
		},
		{
			"inputs": [
				{
					"internalType": "uint256",
					"name": "",
					"type": "uint256"
				}
			],
			"name": "tokenName",
			"outputs": [
				{
					"internalType": "string",
					"name": "",
					"type": "string"
				}
			],
			"stateMutability": "view",
			"type": "function"
		},
		{
			"inputs": [
				{
					"internalType": "address",
					"name": "newOwner",
					"type": "address"
				}
			],
			"name": "transferOwnership",
			"outputs": [],
			"stateMutability": "nonpayable",
			"type": "function"
		},
		{
			"inputs": [
				{
					"internalType": "uint256",
					"name": "",
					"type": "uint256"
				}
			],
			"name": "uri",
			"outputs": [
				{
					"internalType": "string",
					"name": "",
					"type": "string"
				}
			],
			"stateMutability": "view",
			"type": "function"
		},
		{
			"inputs": [],
			"name": "verifier",
			"outputs": [
				{
					"internalType": "contract UniversalVerifier",
					"name": "",
					"type": "address"
				}
			],
			"stateMutability": "view",
			"type": "function"
		}
	],
	"storageLayout": {
		"storage": [
			{
				"astId": 3928,
				"contract": "PMUniversalVerifier.sol:PMUniversalVerifier",
				"label": "_balances",
				"offset": 0,
				"slot": "0",
				"type": "t_mapping(t_uint256,t_mapping(t_address,t_uint256))"
			},
			{
				"astId": 3934,
				"contract": "PMUniversalVerifier.sol:PMUniversalVerifier",
				"label": "_operatorApprovals",
				"offset": 0,
				"slot": "1",
				"type": "t_mapping(t_address,t_mapping(t_address,t_bool))"
			},
			{
				"astId": 3936,
				"contract": "PMUniversalVerifier.sol:PMUniversalVerifier",
				"label": "_uri",
				"offset": 0,
				"slot": "2",
				"type": "t_string_storage"
			},
			{
				"astId": 3610,
				"contract": "PMUniversalVerifier.sol:PMUniversalVerifier",
				"label": "_owner",
				"offset": 0,
				"slot": "3",
				"type": "t_address"
			},
			{
				"astId": 10509,
				"contract": "PMUniversalVerifier.sol:PMUniversalVerifier",
				"label": "admins",
				"offset": 0,
				"slot": "4",
				"type": "t_array(t_address)dyn_storage"
			},
			{
				"astId": 10655,
				"contract": "PMUniversalVerifier.sol:PMUniversalVerifier",
				"label": "_allTokenIDs",
				"offset": 0,
				"slot": "5",
				"type": "t_struct(UintSet)10345_storage"
			},
			{
				"astId": 10671,
				"contract": "PMUniversalVerifier.sol:PMUniversalVerifier",
				"label": "tokenName",
				"offset": 0,
				"slot": "7",
				"type": "t_mapping(t_uint256,t_string_storage)"
			},
			{
				"astId": 10677,
				"contract": "PMUniversalVerifier.sol:PMUniversalVerifier",
				"label": "tokenID_proofRequest_address",
				"offset": 0,
				"slot": "8",
				"type": "t_mapping(t_uint256,t_mapping(t_uint64,t_address))"
			},
			{
				"astId": 10680,
				"contract": "PMUniversalVerifier.sol:PMUniversalVerifier",
				"label": "proofRequestIDs",
				"offset": 0,
				"slot": "9",
				"type": "t_array(t_uint64)dyn_storage"
			},
			{
				"astId": 10813,
				"contract": "PMUniversalVerifier.sol:PMUniversalVerifier",
				"label": "verifier",
				"offset": 0,
				"slot": "10",
				"type": "t_contract(UniversalVerifier)2000"
			}
		],
		"types": {
			"t_address": {
				"encoding": "inplace",
				"label": "address",
				"numberOfBytes": "20"
			},
			"t_array(t_address)dyn_storage": {
				"base": "t_address",
				"encoding": "dynamic_array",
				"label": "address[]",
				"numberOfBytes": "32"
			},
			"t_array(t_bytes32)dyn_storage": {
				"base": "t_bytes32",
				"encoding": "dynamic_array",
				"label": "bytes32[]",
				"numberOfBytes": "32"
			},
			"t_array(t_uint64)dyn_storage": {
				"base": "t_uint64",
				"encoding": "dynamic_array",
				"label": "uint64[]",
				"numberOfBytes": "32"
			},
			"t_bool": {
				"encoding": "inplace",
				"label": "bool",
				"numberOfBytes": "1"
			},
			"t_bytes32": {
				"encoding": "inplace",
				"label": "bytes32",
				"numberOfBytes": "32"
			},
			"t_contract(UniversalVerifier)2000": {
				"encoding": "inplace",
				"label": "contract UniversalVerifier",
				"numberOfBytes": "20"
			},
			"t_mapping(t_address,t_bool)": {
				"encoding": "mapping",
				"key": "t_address",
				"label": "mapping(address => bool)",
				"numberOfBytes": "32",
				"value": "t_bool"
			},
			"t_mapping(t_address,t_mapping(t_address,t_bool))": {
				"encoding": "mapping",
				"key": "t_address",
				"label": "mapping(address => mapping(address => bool))",
				"numberOfBytes": "32",
				"value": "t_mapping(t_address,t_bool)"
			},
			"t_mapping(t_address,t_uint256)": {
				"encoding": "mapping",
				"key": "t_address",
				"label": "mapping(address => uint256)",
				"numberOfBytes": "32",
				"value": "t_uint256"
			},
			"t_mapping(t_bytes32,t_uint256)": {
				"encoding": "mapping",
				"key": "t_bytes32",
				"label": "mapping(bytes32 => uint256)",
				"numberOfBytes": "32",
				"value": "t_uint256"
			},
			"t_mapping(t_uint256,t_mapping(t_address,t_uint256))": {
				"encoding": "mapping",
				"key": "t_uint256",
				"label": "mapping(uint256 => mapping(address => uint256))",
				"numberOfBytes": "32",
				"value": "t_mapping(t_address,t_uint256)"
			},
			"t_mapping(t_uint256,t_mapping(t_uint64,t_address))": {
				"encoding": "mapping",
				"key": "t_uint256",
				"label": "mapping(uint256 => mapping(uint64 => address))",
				"numberOfBytes": "32",
				"value": "t_mapping(t_uint64,t_address)"
			},
			"t_mapping(t_uint256,t_string_storage)": {
				"encoding": "mapping",
				"key": "t_uint256",
				"label": "mapping(uint256 => string)",
				"numberOfBytes": "32",
				"value": "t_string_storage"
			},
			"t_mapping(t_uint64,t_address)": {
				"encoding": "mapping",
				"key": "t_uint64",
				"label": "mapping(uint64 => address)",
				"numberOfBytes": "32",
				"value": "t_address"
			},
			"t_string_storage": {
				"encoding": "bytes",
				"label": "string",
				"numberOfBytes": "32"
			},
			"t_struct(Set)9804_storage": {
				"encoding": "inplace",
				"label": "struct EnumerableSet.Set",
				"members": [
					{
						"astId": 9799,
						"contract": "PMUniversalVerifier.sol:PMUniversalVerifier",
						"label": "_values",
						"offset": 0,
						"slot": "0",
						"type": "t_array(t_bytes32)dyn_storage"
					},
					{
						"astId": 9803,
						"contract": "PMUniversalVerifier.sol:PMUniversalVerifier",
						"label": "_positions",
						"offset": 0,
						"slot": "1",
						"type": "t_mapping(t_bytes32,t_uint256)"
					}
				],
				"numberOfBytes": "64"
			},
			"t_struct(UintSet)10345_storage": {
				"encoding": "inplace",
				"label": "struct EnumerableSet.UintSet",
				"members": [
					{
						"astId": 10344,
						"contract": "PMUniversalVerifier.sol:PMUniversalVerifier",
						"label": "_inner",
						"offset": 0,
						"slot": "0",
						"type": "t_struct(Set)9804_storage"
					}
				],
				"numberOfBytes": "64"
			},
			"t_uint256": {
				"encoding": "inplace",
				"label": "uint256",
				"numberOfBytes": "32"
			},
			"t_uint64": {
				"encoding": "inplace",
				"label": "uint64",
				"numberOfBytes": "8"
			}
		}
	},
	"web3Deploy": "var verifier_ = /* var of type address here */ ;\nvar initialOwner = /* var of type address here */ ;\nvar uri_ = /* var of type string here */ ;\nvar pmuniversalverifierContract = new web3.eth.Contract([{\"inputs\":[{\"internalType\":\"contract UniversalVerifier\",\"name\":\"verifier_\",\"type\":\"address\"},{\"internalType\":\"address\",\"name\":\"initialOwner\",\"type\":\"address\"},{\"internalType\":\"string\",\"name\":\"uri_\",\"type\":\"string\"}],\"stateMutability\":\"nonpayable\",\"type\":\"constructor\"},{\"inputs\":[{\"internalType\":\"address\",\"name\":\"sender\",\"type\":\"address\"},{\"internalType\":\"uint256\",\"name\":\"balance\",\"type\":\"uint256\"},{\"internalType\":\"uint256\",\"name\":\"needed\",\"type\":\"uint256\"},{\"internalType\":\"uint256\",\"name\":\"tokenId\",\"type\":\"uint256\"}],\"name\":\"ERC1155InsufficientBalance\",\"type\":\"error\"},{\"inputs\":[{\"internalType\":\"address\",\"name\":\"approver\",\"type\":\"address\"}],\"name\":\"ERC1155InvalidApprover\",\"type\":\"error\"},{\"inputs\":[{\"internalType\":\"uint256\",\"name\":\"idsLength\",\"type\":\"uint256\"},{\"internalType\":\"uint256\",\"name\":\"valuesLength\",\"type\":\"uint256\"}],\"name\":\"ERC1155InvalidArrayLength\",\"type\":\"error\"},{\"inputs\":[{\"internalType\":\"address\",\"name\":\"operator\",\"type\":\"address\"}],\"name\":\"ERC1155InvalidOperator\",\"type\":\"error\"},{\"inputs\":[{\"internalType\":\"address\",\"name\":\"receiver\",\"type\":\"address\"}],\"name\":\"ERC1155InvalidReceiver\",\"type\":\"error\"},{\"inputs\":[{\"internalType\":\"address\",\"name\":\"sender\",\"type\":\"address\"}],\"name\":\"ERC1155InvalidSender\",\"type\":\"error\"},{\"inputs\":[{\"internalType\":\"address\",\"name\":\"operator\",\"type\":\"address\"},{\"internalType\":\"address\",\"name\":\"owner\",\"type\":\"address\"}],\"name\":\"ERC1155MissingApprovalForAll\",\"type\":\"error\"},{\"inputs\":[{\"internalType\":\"address\",\"name\":\"owner\",\"type\":\"address\"}],\"name\":\"OwnableInvalidOwner\",\"type\":\"error\"},{\"inputs\":[{\"internalType\":\"address\",\"name\":\"account\",\"type\":\"address\"}],\"name\":\"OwnableUnauthorizedAccount\",\"type\":\"error\"},{\"inputs\":[{\"internalType\":\"uint64\",\"name\":\"requestID\",\"type\":\"uint64\"},{\"internalType\":\"address\",\"name\":\"proverAddress\",\"type\":\"address\"}],\"name\":\"ProofNotVerified\",\"type\":\"error\"},{\"inputs\":[{\"internalType\":\"uint256\",\"name\":\"tokenID\",\"type\":\"uint256\"}],\"name\":\"TokenIDNotFound\",\"type\":\"error\"},{\"inputs\":[{\"internalType\":\"uint256\",\"name\":\"tokenID\",\"type\":\"uint256\"}],\"name\":\"TokenIDTaken\",\"type\":\"error\"},{\"anonymous\":false,\"inputs\":[{\"indexed\":true,\"internalType\":\"address\",\"name\":\"account\",\"type\":\"address\"},{\"indexed\":true,\"internalType\":\"address\",\"name\":\"operator\",\"type\":\"address\"},{\"indexed\":false,\"internalType\":\"bool\",\"name\":\"approved\",\"type\":\"bool\"}],\"name\":\"ApprovalForAll\",\"type\":\"event\"},{\"anonymous\":false,\"inputs\":[{\"indexed\":true,\"internalType\":\"address\",\"name\":\"previousOwner\",\"type\":\"address\"},{\"indexed\":true,\"internalType\":\"address\",\"name\":\"newOwner\",\"type\":\"address\"}],\"name\":\"OwnershipTransferred\",\"type\":\"event\"},{\"anonymous\":false,\"inputs\":[{\"indexed\":true,\"internalType\":\"address\",\"name\":\"operator\",\"type\":\"address\"},{\"indexed\":true,\"internalType\":\"address\",\"name\":\"from\",\"type\":\"address\"},{\"indexed\":true,\"internalType\":\"address\",\"name\":\"to\",\"type\":\"address\"},{\"indexed\":false,\"internalType\":\"uint256[]\",\"name\":\"ids\",\"type\":\"uint256[]\"},{\"indexed\":false,\"internalType\":\"uint256[]\",\"name\":\"values\",\"type\":\"uint256[]\"}],\"name\":\"TransferBatch\",\"type\":\"event\"},{\"anonymous\":false,\"inputs\":[{\"indexed\":true,\"internalType\":\"address\",\"name\":\"operator\",\"type\":\"address\"},{\"indexed\":true,\"internalType\":\"address\",\"name\":\"from\",\"type\":\"address\"},{\"indexed\":true,\"internalType\":\"address\",\"name\":\"to\",\"type\":\"address\"},{\"indexed\":false,\"internalType\":\"uint256\",\"name\":\"id\",\"type\":\"uint256\"},{\"indexed\":false,\"internalType\":\"uint256\",\"name\":\"value\",\"type\":\"uint256\"}],\"name\":\"TransferSingle\",\"type\":\"event\"},{\"anonymous\":false,\"inputs\":[{\"indexed\":false,\"internalType\":\"string\",\"name\":\"value\",\"type\":\"string\"},{\"indexed\":true,\"internalType\":\"uint256\",\"name\":\"id\",\"type\":\"uint256\"}],\"name\":\"URI\",\"type\":\"event\"},{\"inputs\":[{\"internalType\":\"address\",\"name\":\"_admin\",\"type\":\"address\"}],\"name\":\"addAdmin\",\"outputs\":[],\"stateMutability\":\"nonpayable\",\"type\":\"function\"},{\"inputs\":[{\"internalType\":\"uint256\",\"name\":\"tokenID\",\"type\":\"uint256\"},{\"internalType\":\"uint64\",\"name\":\"requestID\",\"type\":\"uint64\"},{\"internalType\":\"address\",\"name\":\"prover\",\"type\":\"address\"}],\"name\":\"addProofRequestAndAddress\",\"outputs\":[],\"stateMutability\":\"nonpayable\",\"type\":\"function\"},{\"inputs\":[],\"name\":\"allTokenIDs\",\"outputs\":[{\"internalType\":\"uint256[]\",\"name\":\"\",\"type\":\"uint256[]\"}],\"stateMutability\":\"view\",\"type\":\"function\"},{\"inputs\":[{\"internalType\":\"address\",\"name\":\"account\",\"type\":\"address\"},{\"internalType\":\"uint256\",\"name\":\"id\",\"type\":\"uint256\"}],\"name\":\"balanceOf\",\"outputs\":[{\"internalType\":\"uint256\",\"name\":\"\",\"type\":\"uint256\"}],\"stateMutability\":\"view\",\"type\":\"function\"},{\"inputs\":[{\"internalType\":\"address[]\",\"name\":\"accounts\",\"type\":\"address[]\"},{\"internalType\":\"uint256[]\",\"name\":\"ids\",\"type\":\"uint256[]\"}],\"name\":\"balanceOfBatch\",\"outputs\":[{\"internalType\":\"uint256[]\",\"name\":\"\",\"type\":\"uint256[]\"}],\"stateMutability\":\"view\",\"type\":\"function\"},{\"inputs\":[{\"internalType\":\"address\",\"name\":\"account\",\"type\":\"address\"},{\"internalType\":\"uint256\",\"name\":\"ID\",\"type\":\"uint256\"},{\"internalType\":\"uint256\",\"name\":\"amount\",\"type\":\"uint256\"}],\"name\":\"burn\",\"outputs\":[],\"stateMutability\":\"nonpayable\",\"type\":\"function\"},{\"inputs\":[{\"internalType\":\"uint256\",\"name\":\"tokenID\",\"type\":\"uint256\"},{\"internalType\":\"uint64\",\"name\":\"requestID\",\"type\":\"uint64\"}],\"name\":\"deleteProofRequestAndAddress\",\"outputs\":[],\"stateMutability\":\"nonpayable\",\"type\":\"function\"},{\"inputs\":[],\"name\":\"fungible_token\",\"outputs\":[{\"internalType\":\"uint256\",\"name\":\"\",\"type\":\"uint256\"}],\"stateMutability\":\"view\",\"type\":\"function\"},{\"inputs\":[],\"name\":\"getAdmins\",\"outputs\":[{\"internalType\":\"address[]\",\"name\":\"\",\"type\":\"address[]\"}],\"stateMutability\":\"view\",\"type\":\"function\"},{\"inputs\":[{\"internalType\":\"address\",\"name\":\"account\",\"type\":\"address\"},{\"internalType\":\"address\",\"name\":\"operator\",\"type\":\"address\"}],\"name\":\"isApprovedForAll\",\"outputs\":[{\"internalType\":\"bool\",\"name\":\"\",\"type\":\"bool\"}],\"stateMutability\":\"view\",\"type\":\"function\"},{\"inputs\":[{\"internalType\":\"address\",\"name\":\"to\",\"type\":\"address\"},{\"internalType\":\"uint256\",\"name\":\"ID\",\"type\":\"uint256\"},{\"internalType\":\"uint256\",\"name\":\"amount\",\"type\":\"uint256\"},{\"internalType\":\"bytes\",\"name\":\"data\",\"type\":\"bytes\"}],\"name\":\"mintExistingToken\",\"outputs\":[],\"stateMutability\":\"nonpayable\",\"type\":\"function\"},{\"inputs\":[{\"internalType\":\"address\",\"name\":\"to\",\"type\":\"address\"},{\"internalType\":\"uint256\",\"name\":\"ID\",\"type\":\"uint256\"},{\"internalType\":\"uint256\",\"name\":\"amount\",\"type\":\"uint256\"},{\"internalType\":\"bytes\",\"name\":\"data\",\"type\":\"bytes\"},{\"internalType\":\"string\",\"name\":\"name\",\"type\":\"string\"}],\"name\":\"mintNewToken\",\"outputs\":[],\"stateMutability\":\"nonpayable\",\"type\":\"function\"},{\"inputs\":[],\"name\":\"non_fungible_token\",\"outputs\":[{\"internalType\":\"uint256\",\"name\":\"\",\"type\":\"uint256\"}],\"stateMutability\":\"view\",\"type\":\"function\"},{\"inputs\":[],\"name\":\"owner\",\"outputs\":[{\"internalType\":\"address\",\"name\":\"\",\"type\":\"address\"}],\"stateMutability\":\"view\",\"type\":\"function\"},{\"inputs\":[{\"internalType\":\"uint256\",\"name\":\"\",\"type\":\"uint256\"}],\"name\":\"proofRequestIDs\",\"outputs\":[{\"internalType\":\"uint64\",\"name\":\"\",\"type\":\"uint64\"}],\"stateMutability\":\"view\",\"type\":\"function\"},{\"inputs\":[{\"internalType\":\"address\",\"name\":\"_admin\",\"type\":\"address\"}],\"name\":\"removeAdmin\",\"outputs\":[],\"stateMutability\":\"nonpayable\",\"type\":\"function\"},{\"inputs\":[],\"name\":\"renounceOwnership\",\"outputs\":[],\"stateMutability\":\"nonpayable\",\"type\":\"function\"},{\"inputs\":[{\"internalType\":\"address\",\"name\":\"from\",\"type\":\"address\"},{\"internalType\":\"address\",\"name\":\"to\",\"type\":\"address\"},{\"internalType\":\"uint256[]\",\"name\":\"tokenIDs\",\"type\":\"uint256[]\"},{\"internalType\":\"uint256[]\",\"name\":\"amounts\",\"type\":\"uint256[]\"},{\"internalType\":\"bytes\",\"name\":\"data\",\"type\":\"bytes\"}],\"name\":\"safeBatchTransferFrom\",\"outputs\":[],\"stateMutability\":\"nonpayable\",\"type\":\"function\"},{\"inputs\":[{\"internalType\":\"address\",\"name\":\"from\",\"type\":\"address\"},{\"internalType\":\"address\",\"name\":\"to\",\"type\":\"address\"},{\"internalType\":\"uint256\",\"name\":\"tokenID\",\"type\":\"uint256\"},{\"internalType\":\"uint256\",\"name\":\"amount\",\"type\":\"uint256\"},{\"internalType\":\"bytes\",\"name\":\"data\",\"type\":\"bytes\"}],\"name\":\"safeTransferFrom\",\"outputs\":[],\"stateMutability\":\"nonpayable\",\"type\":\"function\"},{\"inputs\":[{\"internalType\":\"address\",\"name\":\"operator\",\"type\":\"address\"},{\"internalType\":\"bool\",\"name\":\"approved\",\"type\":\"bool\"}],\"name\":\"setApprovalForAll\",\"outputs\":[],\"stateMutability\":\"nonpayable\",\"type\":\"function\"},{\"inputs\":[{\"internalType\":\"bytes4\",\"name\":\"interfaceId\",\"type\":\"bytes4\"}],\"name\":\"supportsInterface\",\"outputs\":[{\"internalType\":\"bool\",\"name\":\"\",\"type\":\"bool\"}],\"stateMutability\":\"view\",\"type\":\"function\"},{\"inputs\":[{\"internalType\":\"uint256\",\"name\":\"\",\"type\":\"uint256\"},{\"internalType\":\"uint64\",\"name\":\"\",\"type\":\"uint64\"}],\"name\":\"tokenID_proofRequest_address\",\"outputs\":[{\"internalType\":\"address\",\"name\":\"\",\"type\":\"address\"}],\"stateMutability\":\"view\",\"type\":\"function\"},{\"inputs\":[{\"internalType\":\"uint256\",\"name\":\"\",\"type\":\"uint256\"}],\"name\":\"tokenName\",\"outputs\":[{\"internalType\":\"string\",\"name\":\"\",\"type\":\"string\"}],\"stateMutability\":\"view\",\"type\":\"function\"},{\"inputs\":[{\"internalType\":\"address\",\"name\":\"newOwner\",\"type\":\"address\"}],\"name\":\"transferOwnership\",\"outputs\":[],\"stateMutability\":\"nonpayable\",\"type\":\"function\"},{\"inputs\":[{\"internalType\":\"uint256\",\"name\":\"\",\"type\":\"uint256\"}],\"name\":\"uri\",\"outputs\":[{\"internalType\":\"string\",\"name\":\"\",\"type\":\"string\"}],\"stateMutability\":\"view\",\"type\":\"function\"},{\"inputs\":[],\"name\":\"verifier\",\"outputs\":[{\"internalType\":\"contract UniversalVerifier\",\"name\":\"\",\"type\":\"address\"}],\"stateMutability\":\"view\",\"type\":\"function\"}]);\nvar pmuniversalverifier = pmuniversalverifierContract.deploy({\n     data: '0x608060405234801561000f575f5ffd5b50604051614931380380614931833981810160405281019061003191906103c3565b81816100428161010b60201b60201c565b505f73ffffffffffffffffffffffffffffffffffffffff168173ffffffffffffffffffffffffffffffffffffffff16036100b3575f6040517f1e4fbdf70000000000000000000000000000000000000000000000000000000081526004016100aa919061043e565b60405180910390fd5b6100c28161011e60201b60201c565b5082600a5f6101000a81548173ffffffffffffffffffffffffffffffffffffffff021916908373ffffffffffffffffffffffffffffffffffffffff160217905550505050610736565b806002908161011a9190610667565b5050565b5f60035f9054906101000a900473ffffffffffffffffffffffffffffffffffffffff1690508160035f6101000a81548173ffffffffffffffffffffffffffffffffffffffff021916908373ffffffffffffffffffffffffffffffffffffffff1602179055508173ffffffffffffffffffffffffffffffffffffffff168173ffffffffffffffffffffffffffffffffffffffff167f8be0079c531659141344cd1fd0a4f28419497f9722a3daafe3b4186f6b6457e060405160405180910390a35050565b5f604051905090565b5f5ffd5b5f5ffd5b5f73ffffffffffffffffffffffffffffffffffffffff82169050919050565b5f61021b826101f2565b9050919050565b5f61022c82610211565b9050919050565b61023c81610222565b8114610246575f5ffd5b50565b5f8151905061025781610233565b92915050565b61026681610211565b8114610270575f5ffd5b50565b5f815190506102818161025d565b92915050565b5f5ffd5b5f5ffd5b5f601f19601f8301169050919050565b7f4e487b71000000000000000000000000000000000000000000000000000000005f52604160045260245ffd5b6102d58261028f565b810181811067ffffffffffffffff821117156102f4576102f361029f565b5b80604052505050565b5f6103066101e1565b905061031282826102cc565b919050565b5f67ffffffffffffffff8211156103315761033061029f565b5b61033a8261028f565b9050602081019050919050565b8281835e5f83830152505050565b5f61036761036284610317565b6102fd565b9050828152602081018484840111156103835761038261028b565b5b61038e848285610347565b509392505050565b5f82601f8301126103aa576103a9610287565b5b81516103ba848260208601610355565b91505092915050565b5f5f5f606084860312156103da576103d96101ea565b5b5f6103e786828701610249565b93505060206103f886828701610273565b925050604084015167ffffffffffffffff811115610419576104186101ee565b5b61042586828701610396565b9150509250925092565b61043881610211565b82525050565b5f6020820190506104515f83018461042f565b92915050565b5f81519050919050565b7f4e487b71000000000000000000000000000000000000000000000000000000005f52602260045260245ffd5b5f60028204905060018216806104a557607f821691505b6020821081036104b8576104b7610461565b5b50919050565b5f819050815f5260205f209050919050565b5f6020601f8301049050919050565b5f82821b905092915050565b5f6008830261051a7fffffffffffffffffffffffffffffffffffffffffffffffffffffffffffffffff826104df565b61052486836104df565b95508019841693508086168417925050509392505050565b5f819050919050565b5f819050919050565b5f61056861056361055e8461053c565b610545565b61053c565b9050919050565b5f819050919050565b6105818361054e565b61059561058d8261056f565b8484546104eb565b825550505050565b5f5f905090565b6105ac61059d565b6105b7818484610578565b505050565b5b818110156105da576105cf5f826105a4565b6001810190506105bd565b5050565b601f82111561061f576105f0816104be565b6105f9846104d0565b81016020851015610608578190505b61061c610614856104d0565b8301826105bc565b50505b505050565b5f82821c905092915050565b5f61063f5f1984600802610624565b1980831691505092915050565b5f6106578383610630565b9150826002028217905092915050565b61067082610457565b67ffffffffffffffff8111156106895761068861029f565b5b610693825461048e565b61069e8282856105de565b5f60209050601f8311600181146106cf575f84156106bd578287015190505b6106c7858261064c565b86555061072e565b601f1984166106dd866104be565b5f5b82811015610704578489015182556001820191506020850194506020810190506106df565b86831015610721578489015161071d601f891682610630565b8355505b6001600288020188555050505b505050505050565b6141ee806107435f395ff3fe608060405234801561000f575f5ffd5b506004361061018b575f3560e01c8063784008ce116100dc578063cf5219ad11610095578063e985e9c51161006f578063e985e9c51461047d578063f242432a146104ad578063f2fde38b146104c9578063f5298aca146104e55761018b565b8063cf5219ad146103ff578063d121cdc01461041d578063e725f8771461044d5761018b565b8063784008ce1461033f5780638da5cb5b1461035d5780638e274a181461037b5780639c5416f214610397578063a22cb465146103b3578063b9bbe916146103cf5761018b565b806331ae450b116101495780635883861d116101235780635883861d146102df57806370480275146102fb578063715018a6146103175780637578b248146103215761018b565b806331ae450b1461027557806338e71640146102935780634e1273f4146102af5761018b565b8062fdd58e1461018f57806301ffc9a7146101bf5780630e89341c146101ef5780631785f53c1461021f5780632b7ac3f31461023b5780632eb2c2d614610259575b5f5ffd5b6101a960048036038101906101a49190612964565b610501565b6040516101b691906129b1565b60405180910390f35b6101d960048036038101906101d49190612a1f565b610556565b6040516101e69190612a64565b60405180910390f35b61020960048036038101906102049190612a7d565b610637565b6040516102169190612b18565b60405180910390f35b61023960048036038101906102349190612b38565b6106c9565b005b61024361088d565b6040516102509190612bbe565b60405180910390f35b610273600480360381019061026e9190612dc7565b6108b2565b005b61027d6109e9565b60405161028a9190612f49565b60405180910390f35b6102ad60048036038101906102a89190612fa6565b610a7c565b005b6102c960048036038101906102c491906130a4565b610d8b565b6040516102d691906131d1565b60405180910390f35b6102f960048036038101906102f4919061324a565b610e95565b005b61031560048036038101906103109190612b38565b610f48565b005b61031f61106a565b005b61032961107d565b60405161033691906131d1565b60405180910390f35b61034761108e565b60405161035491906129b1565b60405180910390f35b610365611093565b60405161037291906132dd565b60405180910390f35b6103956004803603810190610390919061334b565b6110bb565b005b6103b160048036038101906103ac9190613402565b611191565b005b6103cd60048036038101906103c8919061347c565b6113b8565b005b6103e960048036038101906103e49190612fa6565b6113ce565b6040516103f691906132dd565b60405180910390f35b61040761140b565b60405161041491906129b1565b60405180910390f35b61043760048036038101906104329190612a7d565b611410565b60405161044491906134c9565b60405180910390f35b61046760048036038101906104629190612a7d565b61144b565b6040516104749190612b18565b60405180910390f35b610497600480360381019061049291906134e2565b6114e6565b6040516104a49190612a64565b60405180910390f35b6104c760048036038101906104c29190613520565b611574565b005b6104e360048036038101906104de9190612b38565b611591565b005b6104ff60048036038101906104fa91906135b3565b611615565b005b5f5f5f8381526020019081526020015f205f8473ffffffffffffffffffffffffffffffffffffffff1673ffffffffffffffffffffffffffffffffffffffff1681526020019081526020015f2054905092915050565b5f7fd9b67a26000000000000000000000000000000000000000000000000000000007bffffffffffffffffffffffffffffffffffffffffffffffffffffffff1916827bffffffffffffffffffffffffffffffffffffffffffffffffffffffff1916148061062057507f0e89341c000000000000000000000000000000000000000000000000000000007bffffffffffffffffffffffffffffffffffffffffffffffffffffffff1916827bffffffffffffffffffffffffffffffffffffffffffffffffffffffff1916145b80610630575061062f8261162d565b5b9050919050565b60606002805461064690613630565b80601f016020809104026020016040519081016040528092919081815260200182805461067290613630565b80156106bd5780601f10610694576101008083540402835291602001916106bd565b820191905f5260205f20905b8154815290600101906020018083116106a057829003601f168201915b50505050509050919050565b6106d1611696565b5f60048054905090505f5f90505b8181101561084e578273ffffffffffffffffffffffffffffffffffffffff166004828154811061071257610711613660565b5b905f5260205f20015f9054906101000a900473ffffffffffffffffffffffffffffffffffffffff1673ffffffffffffffffffffffffffffffffffffffff160361084157600460018361076491906136ba565b8154811061077557610774613660565b5b905f5260205f20015f9054906101000a900473ffffffffffffffffffffffffffffffffffffffff16600482815481106107b1576107b0613660565b5b905f5260205f20015f6101000a81548173ffffffffffffffffffffffffffffffffffffffff021916908373ffffffffffffffffffffffffffffffffffffffff1602179055506004805480610808576108076136ed565b5b600190038181905f5260205f20015f6101000a81549073ffffffffffffffffffffffffffffffffffffffff02191690559055505061088a565b80806001019150506106df565b506040517f08c379a000000000000000000000000000000000000000000000000000000000815260040161088190613764565b60405180910390fd5b50565b600a5f9054906101000a900473ffffffffffffffffffffffffffffffffffffffff1681565b81518351146108f6576040517f08c379a00000000000000000000000000000000000000000000000000000000081526004016108ed906137f2565b60405180910390fd5b5f73ffffffffffffffffffffffffffffffffffffffff168473ffffffffffffffffffffffffffffffffffffffff1603610964576040517f08c379a000000000000000000000000000000000000000000000000000000000815260040161095b90613880565b60405180910390fd5b5f5f90505b83518110156109e15761099584828151811061098857610987613660565b5b602002602001015161171d565b6109d686868684815181106109ad576109ac613660565b5b60200260200101518685815181106109c8576109c7613660565b5b602002602001015186611574565b806001019050610969565b505050505050565b60606109f3611696565b6004805480602002602001604051908101604052809291908181526020018280548015610a7257602002820191905f5260205f20905b815f9054906101000a900473ffffffffffffffffffffffffffffffffffffffff1673ffffffffffffffffffffffffffffffffffffffff1681526020019060010190808311610a29575b5050505050905090565b610a85336119ed565b610ac4576040517f08c379a0000000000000000000000000000000000000000000000000000000008152600401610abb906138e8565b60405180910390fd5b610ad8826005611a8f90919063ffffffff16565b610b17576040517f08c379a0000000000000000000000000000000000000000000000000000000008152600401610b0e90613950565b60405180910390fd5b5f73ffffffffffffffffffffffffffffffffffffffff1660085f8481526020019081526020015f205f8367ffffffffffffffff1667ffffffffffffffff1681526020019081526020015f205f9054906101000a900473ffffffffffffffffffffffffffffffffffffffff1673ffffffffffffffffffffffffffffffffffffffff1603610bd8576040517f08c379a0000000000000000000000000000000000000000000000000000000008152600401610bcf906139b8565b60405180910390fd5b60085f8381526020019081526020015f205f8267ffffffffffffffff1667ffffffffffffffff1681526020019081526020015f205f6101000a81549073ffffffffffffffffffffffffffffffffffffffff02191690555f5f90505b600980549050811015610d86578167ffffffffffffffff1660098281548110610c5f57610c5e613660565b5b905f5260205f2090600491828204019190066008029054906101000a900467ffffffffffffffff1667ffffffffffffffff1603610d795760096001600980549050610caa91906136ba565b81548110610cbb57610cba613660565b5b905f5260205f2090600491828204019190066008029054906101000a900467ffffffffffffffff1660098281548110610cf757610cf6613660565b5b905f5260205f2090600491828204019190066008026101000a81548167ffffffffffffffff021916908367ffffffffffffffff1602179055506009805480610d4257610d416136ed565b5b600190038181905f5260205f2090600491828204019190066008026101000a81549067ffffffffffffffff02191690559055610d86565b8080600101915050610c33565b505050565b60608151835114610dd757815183516040517f5b059991000000000000000000000000000000000000000000000000000000008152600401610dce9291906139d6565b60405180910390fd5b5f835167ffffffffffffffff811115610df357610df2612bdb565b5b604051908082528060200260200182016040528015610e215781602001602082028036833780820191505090505b5090505f5f90505b8451811015610e8a57610e60610e488287611aa690919063ffffffff16565b610e5b8387611ab990919063ffffffff16565b610501565b828281518110610e7357610e72613660565b5b602002602001018181525050806001019050610e29565b508091505092915050565b610e9d611696565b610eb1846005611a8f90919063ffffffff16565b610ef257836040517fd60b1c24000000000000000000000000000000000000000000000000000000008152600401610ee991906129b1565b60405180910390fd5b610f4185858585858080601f0160208091040260200160405190810160405280939291908181526020018383808284375f81840152601f19601f82011690508083019250505050505050611acc565b5050505050565b610f50611696565b5f73ffffffffffffffffffffffffffffffffffffffff168173ffffffffffffffffffffffffffffffffffffffff1603610fbe576040517f08c379a0000000000000000000000000000000000000000000000000000000008152600401610fb590613a47565b60405180910390fd5b610fc7816119ed565b15611007576040517f08c379a0000000000000000000000000000000000000000000000000000000008152600401610ffe90613aaf565b60405180910390fd5b600481908060018154018082558091505060019003905f5260205f20015f9091909190916101000a81548173ffffffffffffffffffffffffffffffffffffffff021916908373ffffffffffffffffffffffffffffffffffffffff16021790555050565b611072611696565b61107b5f611b61565b565b60606110896005611c24565b905090565b600181565b5f60035f9054906101000a900473ffffffffffffffffffffffffffffffffffffffff16905090565b6110c3611696565b6110d7866005611c4390919063ffffffff16565b61111857856040517f453d47f500000000000000000000000000000000000000000000000000000000815260040161110f91906129b1565b60405180910390fd5b61116787878787878080601f0160208091040260200160405190810160405280939291908181526020018383808284375f81840152601f19601f82011690508083019250505050505050611acc565b818160075f8981526020019081526020015f209182611187929190613c6e565b5050505050505050565b61119a336119ed565b6111d9576040517f08c379a00000000000000000000000000000000000000000000000000000000081526004016111d0906138e8565b60405180910390fd5b6111ed836005611a8f90919063ffffffff16565b61122c576040517f08c379a000000000000000000000000000000000000000000000000000000000815260040161122390613950565b60405180910390fd5b5f73ffffffffffffffffffffffffffffffffffffffff1660085f8581526020019081526020015f205f8467ffffffffffffffff1667ffffffffffffffff1681526020019081526020015f205f9054906101000a900473ffffffffffffffffffffffffffffffffffffffff1673ffffffffffffffffffffffffffffffffffffffff16146112ed576040517f08c379a00000000000000000000000000000000000000000000000000000000081526004016112e490613d85565b60405180910390fd5b8060085f8581526020019081526020015f205f8467ffffffffffffffff1667ffffffffffffffff1681526020019081526020015f205f6101000a81548173ffffffffffffffffffffffffffffffffffffffff021916908373ffffffffffffffffffffffffffffffffffffffff160217905550600982908060018154018082558091505060019003905f5260205f2090600491828204019190066008029091909190916101000a81548167ffffffffffffffff021916908367ffffffffffffffff160217905550505050565b6113ca6113c3611c5a565b8383611c61565b5050565b6008602052815f5260405f20602052805f5260405f205f915091509054906101000a900473ffffffffffffffffffffffffffffffffffffffff1681565b600281565b6009818154811061141f575f80fd5b905f5260205f209060049182820401919006600802915054906101000a900467ffffffffffffffff1681565b6007602052805f5260405f205f91509050805461146790613630565b80601f016020809104026020016040519081016040528092919081815260200182805461149390613630565b80156114de5780601f106114b5576101008083540402835291602001916114de565b820191905f5260205f20905b8154815290600101906020018083116114c157829003601f168201915b505050505081565b5f60015f8473ffffffffffffffffffffffffffffffffffffffff1673ffffffffffffffffffffffffffffffffffffffff1681526020019081526020015f205f8373ffffffffffffffffffffffffffffffffffffffff1673ffffffffffffffffffffffffffffffffffffffff1681526020019081526020015f205f9054906101000a900460ff16905092915050565b61157d8361171d565b61158a8585858585611dca565b5050505050565b611599611696565b5f73ffffffffffffffffffffffffffffffffffffffff168173ffffffffffffffffffffffffffffffffffffffff1603611609575f6040517f1e4fbdf700000000000000000000000000000000000000000000000000000000815260040161160091906132dd565b60405180910390fd5b61161281611b61565b50565b61161d611696565b611628838383611e71565b505050565b5f7f01ffc9a7000000000000000000000000000000000000000000000000000000007bffffffffffffffffffffffffffffffffffffffffffffffffffffffff1916827bffffffffffffffffffffffffffffffffffffffffffffffffffffffff1916149050919050565b61169e611c5a565b73ffffffffffffffffffffffffffffffffffffffff166116bc611093565b73ffffffffffffffffffffffffffffffffffffffff161461171b576116df611c5a565b6040517f118cdaa700000000000000000000000000000000000000000000000000000000815260040161171291906132dd565b60405180910390fd5b565b5f600980548060200260200160405190810160405280929190818152602001828054801561179b57602002820191905f5260205f20905f905b82829054906101000a900467ffffffffffffffff1667ffffffffffffffff16815260200190600801906020826007010492830192600103820291508084116117565790505b505050505090505f5f90505b81518110156119e8575f73ffffffffffffffffffffffffffffffffffffffff1660085f8581526020019081526020015f205f8484815181106117ec576117eb613660565b5b602002602001015167ffffffffffffffff1667ffffffffffffffff1681526020019081526020015f205f9054906101000a900473ffffffffffffffffffffffffffffffffffffffff1673ffffffffffffffffffffffffffffffffffffffff16146119db575f60085f8581526020019081526020015f205f84848151811061187657611875613660565b5b602002602001015167ffffffffffffffff1667ffffffffffffffff1681526020019081526020015f205f9054906101000a900473ffffffffffffffffffffffffffffffffffffffff169050600a5f9054906101000a900473ffffffffffffffffffffffffffffffffffffffff1673ffffffffffffffffffffffffffffffffffffffff16638c1da2c98285858151811061191257611911613660565b5b60200260200101516040518363ffffffff1660e01b8152600401611937929190613da3565b5f60405180830381865afa158015611951573d5f5f3e3d5ffd5b505050506040513d5f823e3d601f19601f820116820180604052508101906119799190613f29565b5f01516119d95782828151811061199357611992613660565b5b6020026020010151816040517fa5a4608e0000000000000000000000000000000000000000000000000000000081526004016119d0929190613f70565b60405180910390fd5b505b80806001019150506117a7565b505050565b5f5f5f90505b600480549050811015611a85578273ffffffffffffffffffffffffffffffffffffffff1660048281548110611a2b57611a2a613660565b5b905f5260205f20015f9054906101000a900473ffffffffffffffffffffffffffffffffffffffff1673ffffffffffffffffffffffffffffffffffffffff1603611a78576001915050611a8a565b80806001019150506119f3565b505f90505b919050565b5f611a9e835f01835f1b611f13565b905092915050565b5f60208202602084010151905092915050565b5f60208202602084010151905092915050565b5f73ffffffffffffffffffffffffffffffffffffffff168473ffffffffffffffffffffffffffffffffffffffff1603611b3c575f6040517f57f447ce000000000000000000000000000000000000000000000000000000008152600401611b3391906132dd565b60405180910390fd5b5f5f611b488585611f33565b91509150611b595f87848487611f63565b505050505050565b5f60035f9054906101000a900473ffffffffffffffffffffffffffffffffffffffff1690508160035f6101000a81548173ffffffffffffffffffffffffffffffffffffffff021916908373ffffffffffffffffffffffffffffffffffffffff1602179055508173ffffffffffffffffffffffffffffffffffffffff168173ffffffffffffffffffffffffffffffffffffffff167f8be0079c531659141344cd1fd0a4f28419497f9722a3daafe3b4186f6b6457e060405160405180910390a35050565b60605f611c32835f0161200f565b905060608190508092505050919050565b5f611c52835f01835f1b612068565b905092915050565b5f33905090565b5f73ffffffffffffffffffffffffffffffffffffffff168273ffffffffffffffffffffffffffffffffffffffff1603611cd1575f6040517fced3e100000000000000000000000000000000000000000000000000000000008152600401611cc891906132dd565b60405180910390fd5b8060015f8573ffffffffffffffffffffffffffffffffffffffff1673ffffffffffffffffffffffffffffffffffffffff1681526020019081526020015f205f8473ffffffffffffffffffffffffffffffffffffffff1673ffffffffffffffffffffffffffffffffffffffff1681526020019081526020015f205f6101000a81548160ff0219169083151502179055508173ffffffffffffffffffffffffffffffffffffffff168373ffffffffffffffffffffffffffffffffffffffff167f17307eab39ab6107e8899845ad3d59bd9653f200f220920489ca2b5937696c3183604051611dbd9190612a64565b60405180910390a3505050565b5f611dd3611c5a565b90508073ffffffffffffffffffffffffffffffffffffffff168673ffffffffffffffffffffffffffffffffffffffff1614158015611e185750611e1686826114e6565b155b15611e5c5780866040517fe237d922000000000000000000000000000000000000000000000000000000008152600401611e53929190613f97565b60405180910390fd5b611e6986868686866120cf565b505050505050565b5f73ffffffffffffffffffffffffffffffffffffffff168373ffffffffffffffffffffffffffffffffffffffff1603611ee1575f6040517f01a83514000000000000000000000000000000000000000000000000000000008152600401611ed891906132dd565b60405180910390fd5b5f5f611eed8484611f33565b91509150611f0c855f848460405180602001604052805f815250611f63565b5050505050565b5f5f836001015f8481526020019081526020015f20541415905092915050565b60608060405191506001825283602083015260408201905060018152826020820152604081016040529250929050565b611f6f858585856121d5565b5f73ffffffffffffffffffffffffffffffffffffffff168473ffffffffffffffffffffffffffffffffffffffff1614612008575f611fab611c5a565b90506001845103611ff7575f611fca5f86611ab990919063ffffffff16565b90505f611fe05f86611ab990919063ffffffff16565b9050611ff0838989858589612568565b5050612006565b612005818787878787612717565b5b505b5050505050565b6060815f0180548060200260200160405190810160405280929190818152602001828054801561205c57602002820191905f5260205f20905b815481526020019060010190808311612048575b50505050509050919050565b5f6120738383611f13565b6120c557825f0182908060018154018082558091505060019003905f5260205f20015f9091909190915055825f0180549050836001015f8481526020019081526020015f2081905550600190506120c9565b5f90505b92915050565b5f73ffffffffffffffffffffffffffffffffffffffff168473ffffffffffffffffffffffffffffffffffffffff160361213f575f6040517f57f447ce00000000000000000000000000000000000000000000000000000000815260040161213691906132dd565b60405180910390fd5b5f73ffffffffffffffffffffffffffffffffffffffff168573ffffffffffffffffffffffffffffffffffffffff16036121af575f6040517f01a835140000000000000000000000000000000000000000000000000000000081526004016121a691906132dd565b60405180910390fd5b5f5f6121bb8585611f33565b915091506121cc8787848487611f63565b50505050505050565b805182511461221f57815181516040517f5b0599910000000000000000000000000000000000000000000000000000000081526004016122169291906139d6565b60405180910390fd5b5f612228611c5a565b90505f5f90505b8351811015612427575f61224c8286611ab990919063ffffffff16565b90505f6122628386611ab990919063ffffffff16565b90505f73ffffffffffffffffffffffffffffffffffffffff168873ffffffffffffffffffffffffffffffffffffffff1614612385575f5f5f8481526020019081526020015f205f8a73ffffffffffffffffffffffffffffffffffffffff1673ffffffffffffffffffffffffffffffffffffffff1681526020019081526020015f205490508181101561233157888183856040517f03dee4c50000000000000000000000000000000000000000000000000000000081526004016123289493929190613fbe565b60405180910390fd5b8181035f5f8581526020019081526020015f205f8b73ffffffffffffffffffffffffffffffffffffffff1673ffffffffffffffffffffffffffffffffffffffff1681526020019081526020015f2081905550505b5f73ffffffffffffffffffffffffffffffffffffffff168773ffffffffffffffffffffffffffffffffffffffff161461241a57805f5f8481526020019081526020015f205f8973ffffffffffffffffffffffffffffffffffffffff1673ffffffffffffffffffffffffffffffffffffffff1681526020019081526020015f205f8282546124129190614001565b925050819055505b505080600101905061222f565b5060018351036124e2575f6124455f85611ab990919063ffffffff16565b90505f61245b5f85611ab990919063ffffffff16565b90508573ffffffffffffffffffffffffffffffffffffffff168773ffffffffffffffffffffffffffffffffffffffff168473ffffffffffffffffffffffffffffffffffffffff167fc3d58168c5ae7397731d063d5bbf3d657854427343f4c083240f7aacaa2d0f6285856040516124d39291906139d6565b60405180910390a45050612561565b8373ffffffffffffffffffffffffffffffffffffffff168573ffffffffffffffffffffffffffffffffffffffff168273ffffffffffffffffffffffffffffffffffffffff167f4a39dc06d4c0dbc64b70af90fd698a233a518aa5d07e595d983b8c0526c8f7fb8686604051612558929190614034565b60405180910390a45b5050505050565b5f8473ffffffffffffffffffffffffffffffffffffffff163b111561270f578373ffffffffffffffffffffffffffffffffffffffff1663f23a6e6187878686866040518663ffffffff1660e01b81526004016125c89594939291906140bb565b6020604051808303815f875af192505050801561260357506040513d601f19601f820116820180604052508101906126009190614127565b60015b612684573d805f8114612631576040519150601f19603f3d011682016040523d82523d5f602084013e612636565b606091505b505f81510361267c57846040517f57f447ce00000000000000000000000000000000000000000000000000000000815260040161267391906132dd565b60405180910390fd5b805181602001fd5b63f23a6e6160e01b7bffffffffffffffffffffffffffffffffffffffffffffffffffffffff1916817bffffffffffffffffffffffffffffffffffffffffffffffffffffffff19161461270d57846040517f57f447ce00000000000000000000000000000000000000000000000000000000815260040161270491906132dd565b60405180910390fd5b505b505050505050565b5f8473ffffffffffffffffffffffffffffffffffffffff163b11156128be578373ffffffffffffffffffffffffffffffffffffffff1663bc197c8187878686866040518663ffffffff1660e01b8152600401612777959493929190614152565b6020604051808303815f875af19250505080156127b257506040513d601f19601f820116820180604052508101906127af9190614127565b60015b612833573d805f81146127e0576040519150601f19603f3d011682016040523d82523d5f602084013e6127e5565b606091505b505f81510361282b57846040517f57f447ce00000000000000000000000000000000000000000000000000000000815260040161282291906132dd565b60405180910390fd5b805181602001fd5b63bc197c8160e01b7bffffffffffffffffffffffffffffffffffffffffffffffffffffffff1916817bffffffffffffffffffffffffffffffffffffffffffffffffffffffff1916146128bc57846040517f57f447ce0000000000000000000000000000000000000000000000000000000081526004016128b391906132dd565b60405180910390fd5b505b505050505050565b5f604051905090565b5f5ffd5b5f5ffd5b5f73ffffffffffffffffffffffffffffffffffffffff82169050919050565b5f612900826128d7565b9050919050565b612910816128f6565b811461291a575f5ffd5b50565b5f8135905061292b81612907565b92915050565b5f819050919050565b61294381612931565b811461294d575f5ffd5b50565b5f8135905061295e8161293a565b92915050565b5f5f6040838503121561297a576129796128cf565b5b5f6129878582860161291d565b925050602061299885828601612950565b9150509250929050565b6129ab81612931565b82525050565b5f6020820190506129c45f8301846129a2565b92915050565b5f7fffffffff0000000000000000000000000000000000000000000000000000000082169050919050565b6129fe816129ca565b8114612a08575f5ffd5b50565b5f81359050612a19816129f5565b92915050565b5f60208284031215612a3457612a336128cf565b5b5f612a4184828501612a0b565b91505092915050565b5f8115159050919050565b612a5e81612a4a565b82525050565b5f602082019050612a775f830184612a55565b92915050565b5f60208284031215612a9257612a916128cf565b5b5f612a9f84828501612950565b91505092915050565b5f81519050919050565b5f82825260208201905092915050565b8281835e5f83830152505050565b5f601f19601f8301169050919050565b5f612aea82612aa8565b612af48185612ab2565b9350612b04818560208601612ac2565b612b0d81612ad0565b840191505092915050565b5f6020820190508181035f830152612b308184612ae0565b905092915050565b5f60208284031215612b4d57612b4c6128cf565b5b5f612b5a8482850161291d565b91505092915050565b5f819050919050565b5f612b86612b81612b7c846128d7565b612b63565b6128d7565b9050919050565b5f612b9782612b6c565b9050919050565b5f612ba882612b8d565b9050919050565b612bb881612b9e565b82525050565b5f602082019050612bd15f830184612baf565b92915050565b5f5ffd5b7f4e487b71000000000000000000000000000000000000000000000000000000005f52604160045260245ffd5b612c1182612ad0565b810181811067ffffffffffffffff82111715612c3057612c2f612bdb565b5b80604052505050565b5f612c426128c6565b9050612c4e8282612c08565b919050565b5f67ffffffffffffffff821115612c6d57612c6c612bdb565b5b602082029050602081019050919050565b5f5ffd5b5f612c94612c8f84612c53565b612c39565b90508083825260208201905060208402830185811115612cb757612cb6612c7e565b5b835b81811015612ce05780612ccc8882612950565b845260208401935050602081019050612cb9565b5050509392505050565b5f82601f830112612cfe57612cfd612bd7565b5b8135612d0e848260208601612c82565b91505092915050565b5f5ffd5b5f67ffffffffffffffff821115612d3557612d34612bdb565b5b612d3e82612ad0565b9050602081019050919050565b828183375f83830152505050565b5f612d6b612d6684612d1b565b612c39565b905082815260208101848484011115612d8757612d86612d17565b5b612d92848285612d4b565b509392505050565b5f82601f830112612dae57612dad612bd7565b5b8135612dbe848260208601612d59565b91505092915050565b5f5f5f5f5f60a08688031215612de057612ddf6128cf565b5b5f612ded8882890161291d565b9550506020612dfe8882890161291d565b945050604086013567ffffffffffffffff811115612e1f57612e1e6128d3565b5b612e2b88828901612cea565b935050606086013567ffffffffffffffff811115612e4c57612e4b6128d3565b5b612e5888828901612cea565b925050608086013567ffffffffffffffff811115612e7957612e786128d3565b5b612e8588828901612d9a565b9150509295509295909350565b5f81519050919050565b5f82825260208201905092915050565b5f819050602082019050919050565b612ec4816128f6565b82525050565b5f612ed58383612ebb565b60208301905092915050565b5f602082019050919050565b5f612ef782612e92565b612f018185612e9c565b9350612f0c83612eac565b805f5b83811015612f3c578151612f238882612eca565b9750612f2e83612ee1565b925050600181019050612f0f565b5085935050505092915050565b5f6020820190508181035f830152612f618184612eed565b905092915050565b5f67ffffffffffffffff82169050919050565b612f8581612f69565b8114612f8f575f5ffd5b50565b5f81359050612fa081612f7c565b92915050565b5f5f60408385031215612fbc57612fbb6128cf565b5b5f612fc985828601612950565b9250506020612fda85828601612f92565b9150509250929050565b5f67ffffffffffffffff821115612ffe57612ffd612bdb565b5b602082029050602081019050919050565b5f61302161301c84612fe4565b612c39565b9050808382526020820190506020840283018581111561304457613043612c7e565b5b835b8181101561306d5780613059888261291d565b845260208401935050602081019050613046565b5050509392505050565b5f82601f83011261308b5761308a612bd7565b5b813561309b84826020860161300f565b91505092915050565b5f5f604083850312156130ba576130b96128cf565b5b5f83013567ffffffffffffffff8111156130d7576130d66128d3565b5b6130e385828601613077565b925050602083013567ffffffffffffffff811115613104576131036128d3565b5b61311085828601612cea565b9150509250929050565b5f81519050919050565b5f82825260208201905092915050565b5f819050602082019050919050565b61314c81612931565b82525050565b5f61315d8383613143565b60208301905092915050565b5f602082019050919050565b5f61317f8261311a565b6131898185613124565b935061319483613134565b805f5b838110156131c45781516131ab8882613152565b97506131b683613169565b925050600181019050613197565b5085935050505092915050565b5f6020820190508181035f8301526131e98184613175565b905092915050565b5f5ffd5b5f5f83601f84011261320a57613209612bd7565b5b8235905067ffffffffffffffff811115613227576132266131f1565b5b60208301915083600182028301111561324357613242612c7e565b5b9250929050565b5f5f5f5f5f60808688031215613263576132626128cf565b5b5f6132708882890161291d565b955050602061328188828901612950565b945050604061329288828901612950565b935050606086013567ffffffffffffffff8111156132b3576132b26128d3565b5b6132bf888289016131f5565b92509250509295509295909350565b6132d7816128f6565b82525050565b5f6020820190506132f05f8301846132ce565b92915050565b5f5f83601f84011261330b5761330a612bd7565b5b8235905067ffffffffffffffff811115613328576133276131f1565b5b60208301915083600182028301111561334457613343612c7e565b5b9250929050565b5f5f5f5f5f5f5f60a0888a031215613366576133656128cf565b5b5f6133738a828b0161291d565b97505060206133848a828b01612950565b96505060406133958a828b01612950565b955050606088013567ffffffffffffffff8111156133b6576133b56128d3565b5b6133c28a828b016131f5565b9450945050608088013567ffffffffffffffff8111156133e5576133e46128d3565b5b6133f18a828b016132f6565b925092505092959891949750929550565b5f5f5f60608486031215613419576134186128cf565b5b5f61342686828701612950565b935050602061343786828701612f92565b92505060406134488682870161291d565b9150509250925092565b61345b81612a4a565b8114613465575f5ffd5b50565b5f8135905061347681613452565b92915050565b5f5f60408385031215613492576134916128cf565b5b5f61349f8582860161291d565b92505060206134b085828601613468565b9150509250929050565b6134c381612f69565b82525050565b5f6020820190506134dc5f8301846134ba565b92915050565b5f5f604083850312156134f8576134f76128cf565b5b5f6135058582860161291d565b92505060206135168582860161291d565b9150509250929050565b5f5f5f5f5f60a08688031215613539576135386128cf565b5b5f6135468882890161291d565b95505060206135578882890161291d565b945050604061356888828901612950565b935050606061357988828901612950565b925050608086013567ffffffffffffffff81111561359a576135996128d3565b5b6135a688828901612d9a565b9150509295509295909350565b5f5f5f606084860312156135ca576135c96128cf565b5b5f6135d78682870161291d565b93505060206135e886828701612950565b92505060406135f986828701612950565b9150509250925092565b7f4e487b71000000000000000000000000000000000000000000000000000000005f52602260045260245ffd5b5f600282049050600182168061364757607f821691505b60208210810361365a57613659613603565b5b50919050565b7f4e487b71000000000000000000000000000000000000000000000000000000005f52603260045260245ffd5b7f4e487b71000000000000000000000000000000000000000000000000000000005f52601160045260245ffd5b5f6136c482612931565b91506136cf83612931565b92508282039050818111156136e7576136e661368d565b5b92915050565b7f4e487b71000000000000000000000000000000000000000000000000000000005f52603160045260245ffd5b7f41646d696e206e6f7420666f756e6400000000000000000000000000000000005f82015250565b5f61374e600f83612ab2565b91506137598261371a565b602082019050919050565b5f6020820190508181035f83015261377b81613742565b9050919050565b7f455243313135353a204d69736d617463686564206172726179206c656e6774685f8201527f7300000000000000000000000000000000000000000000000000000000000000602082015250565b5f6137dc602183612ab2565b91506137e782613782565b604082019050919050565b5f6020820190508181035f830152613809816137d0565b9050919050565b7f455243313135353a207472616e7366657220746f20746865207a65726f2061645f8201527f6472657373000000000000000000000000000000000000000000000000000000602082015250565b5f61386a602583612ab2565b915061387582613810565b604082019050919050565b5f6020820190508181035f8301526138978161385e565b9050919050565b7f43616c6c6572206973206e6f7420616e2061646d696e000000000000000000005f82015250565b5f6138d2601683612ab2565b91506138dd8261389e565b602082019050919050565b5f6020820190508181035f8301526138ff816138c6565b9050919050565b7f746f6b656e20696420646f6573206e6f742065786973740000000000000000005f82015250565b5f61393a601783612ab2565b915061394582613906565b602082019050919050565b5f6020820190508181035f8301526139678161392e565b9050919050565b7f50726f6f66207265717565737420646f6573206e6f74206578697374000000005f82015250565b5f6139a2601c83612ab2565b91506139ad8261396e565b602082019050919050565b5f6020820190508181035f8301526139cf81613996565b9050919050565b5f6040820190506139e95f8301856129a2565b6139f660208301846129a2565b9392505050565b7f496e76616c6964206164647265737300000000000000000000000000000000005f82015250565b5f613a31600f83612ab2565b9150613a3c826139fd565b602082019050919050565b5f6020820190508181035f830152613a5e81613a25565b9050919050565b7f4164647265737320697320616c726561647920616e2061646d696e00000000005f82015250565b5f613a99601b83612ab2565b9150613aa482613a65565b602082019050919050565b5f6020820190508181035f830152613ac681613a8d565b9050919050565b5f82905092915050565b5f819050815f5260205f209050919050565b5f6020601f8301049050919050565b5f82821b905092915050565b5f60088302613b337fffffffffffffffffffffffffffffffffffffffffffffffffffffffffffffffff82613af8565b613b3d8683613af8565b95508019841693508086168417925050509392505050565b5f613b6f613b6a613b6584612931565b612b63565b612931565b9050919050565b5f819050919050565b613b8883613b55565b613b9c613b9482613b76565b848454613b04565b825550505050565b5f5f905090565b613bb3613ba4565b613bbe818484613b7f565b505050565b5b81811015613be157613bd65f82613bab565b600181019050613bc4565b5050565b601f821115613c2657613bf781613ad7565b613c0084613ae9565b81016020851015613c0f578190505b613c23613c1b85613ae9565b830182613bc3565b50505b505050565b5f82821c905092915050565b5f613c465f1984600802613c2b565b1980831691505092915050565b5f613c5e8383613c37565b9150826002028217905092915050565b613c788383613acd565b67ffffffffffffffff811115613c9157613c90612bdb565b5b613c9b8254613630565b613ca6828285613be5565b5f601f831160018114613cd3575f8415613cc1578287013590505b613ccb8582613c53565b865550613d32565b601f198416613ce186613ad7565b5f5b82811015613d0857848901358255600182019150602085019450602081019050613ce3565b86831015613d255784890135613d21601f891682613c37565b8355505b6001600288020188555050505b50505050505050565b7f50726f6f66207265717565737420616c726561647920657869737473000000005f82015250565b5f613d6f601c83612ab2565b9150613d7a82613d3b565b602082019050919050565b5f6020820190508181035f830152613d9c81613d63565b9050919050565b5f604082019050613db65f8301856132ce565b613dc360208301846134ba565b9392505050565b5f5ffd5b5f5ffd5b5f81519050613de081613452565b92915050565b5f67ffffffffffffffff821115613e0057613dff612bdb565b5b613e0982612ad0565b9050602081019050919050565b5f613e28613e2384613de6565b612c39565b905082815260208101848484011115613e4457613e43612d17565b5b613e4f848285612ac2565b509392505050565b5f82601f830112613e6b57613e6a612bd7565b5b8151613e7b848260208601613e16565b91505092915050565b5f81519050613e928161293a565b92915050565b5f60808284031215613ead57613eac613dca565b5b613eb76080612c39565b90505f613ec684828501613dd2565b5f83015250602082015167ffffffffffffffff811115613ee957613ee8613dce565b5b613ef584828501613e57565b6020830152506040613f0984828501613e84565b6040830152506060613f1d84828501613e84565b60608301525092915050565b5f60208284031215613f3e57613f3d6128cf565b5b5f82015167ffffffffffffffff811115613f5b57613f5a6128d3565b5b613f6784828501613e98565b91505092915050565b5f604082019050613f835f8301856134ba565b613f9060208301846132ce565b9392505050565b5f604082019050613faa5f8301856132ce565b613fb760208301846132ce565b9392505050565b5f608082019050613fd15f8301876132ce565b613fde60208301866129a2565b613feb60408301856129a2565b613ff860608301846129a2565b95945050505050565b5f61400b82612931565b915061401683612931565b925082820190508082111561402e5761402d61368d565b5b92915050565b5f6040820190508181035f83015261404c8185613175565b905081810360208301526140608184613175565b90509392505050565b5f81519050919050565b5f82825260208201905092915050565b5f61408d82614069565b6140978185614073565b93506140a7818560208601612ac2565b6140b081612ad0565b840191505092915050565b5f60a0820190506140ce5f8301886132ce565b6140db60208301876132ce565b6140e860408301866129a2565b6140f560608301856129a2565b81810360808301526141078184614083565b90509695505050505050565b5f81519050614121816129f5565b92915050565b5f6020828403121561413c5761413b6128cf565b5b5f61414984828501614113565b91505092915050565b5f60a0820190506141655f8301886132ce565b61417260208301876132ce565b81810360408301526141848186613175565b905081810360608301526141988185613175565b905081810360808301526141ac8184614083565b9050969550505050505056fea26469706673582212208ed04b8ffd11bdef641aa7a88f3c65a89f93bbc368860630c1064e585e6594d164736f6c634300081b0033', \n     arguments: [\n          verifier_,\n          initialOwner,\n          uri_,\n     ]\n}).send({\n     from: web3.eth.accounts[0], \n     gas: '4700000'\n   }, function (e, contract){\n    console.log(e, contract);\n    if (typeof contract.address !== 'undefined') {\n         console.log('Contract mined! address: ' + contract.address + ' transactionHash: ' + contract.transactionHash);\n    }\n })",
	"functionHashes": {
		"70480275": "addAdmin(address)",
		"9c5416f2": "addProofRequestAndAddress(uint256,uint64,address)",
		"7578b248": "allTokenIDs()",
		"00fdd58e": "balanceOf(address,uint256)",
		"4e1273f4": "balanceOfBatch(address[],uint256[])",
		"f5298aca": "burn(address,uint256,uint256)",
		"38e71640": "deleteProofRequestAndAddress(uint256,uint64)",
		"784008ce": "fungible_token()",
		"31ae450b": "getAdmins()",
		"e985e9c5": "isApprovedForAll(address,address)",
		"5883861d": "mintExistingToken(address,uint256,uint256,bytes)",
		"8e274a18": "mintNewToken(address,uint256,uint256,bytes,string)",
		"cf5219ad": "non_fungible_token()",
		"8da5cb5b": "owner()",
		"d121cdc0": "proofRequestIDs(uint256)",
		"1785f53c": "removeAdmin(address)",
		"715018a6": "renounceOwnership()",
		"2eb2c2d6": "safeBatchTransferFrom(address,address,uint256[],uint256[],bytes)",
		"f242432a": "safeTransferFrom(address,address,uint256,uint256,bytes)",
		"a22cb465": "setApprovalForAll(address,bool)",
		"01ffc9a7": "supportsInterface(bytes4)",
		"b9bbe916": "tokenID_proofRequest_address(uint256,uint64)",
		"e725f877": "tokenName(uint256)",
		"f2fde38b": "transferOwnership(address)",
		"0e89341c": "uri(uint256)",
		"2b7ac3f3": "verifier()"
	},
	"gasEstimates": {
		"Creation": {
			"codeDepositCost": "3375600",
			"executionCost": "infinite",
			"totalCost": "infinite"
		},
		"External": {
			"addAdmin(address)": "infinite",
			"addProofRequestAndAddress(uint256,uint64,address)": "infinite",
			"allTokenIDs()": "infinite",
			"balanceOf(address,uint256)": "infinite",
			"balanceOfBatch(address[],uint256[])": "infinite",
			"burn(address,uint256,uint256)": "infinite",
			"deleteProofRequestAndAddress(uint256,uint64)": "infinite",
			"fungible_token()": "348",
			"getAdmins()": "infinite",
			"isApprovedForAll(address,address)": "infinite",
			"mintExistingToken(address,uint256,uint256,bytes)": "infinite",
			"mintNewToken(address,uint256,uint256,bytes,string)": "infinite",
			"non_fungible_token()": "370",
			"owner()": "2560",
			"proofRequestIDs(uint256)": "6606",
			"removeAdmin(address)": "infinite",
			"renounceOwnership()": "infinite",
			"safeBatchTransferFrom(address,address,uint256[],uint256[],bytes)": "infinite",
			"safeTransferFrom(address,address,uint256,uint256,bytes)": "infinite",
			"setApprovalForAll(address,bool)": "infinite",
			"supportsInterface(bytes4)": "809",
			"tokenID_proofRequest_address(uint256,uint64)": "3203",
			"tokenName(uint256)": "infinite",
			"transferOwnership(address)": "infinite",
			"uri(uint256)": "infinite",
			"verifier()": "infinite"
		},
		"Internal": {
			"_checkAllProofsVerified(uint256)": "infinite",
			"_isAdmin(address)": "infinite"
		}
	},
	"devdoc": {
		"errors": {
			"ERC1155InsufficientBalance(address,uint256,uint256,uint256)": [
				{
					"details": "Indicates an error related to the current `balance` of a `sender`. Used in transfers.",
					"params": {
						"balance": "Current balance for the interacting account.",
						"needed": "Minimum amount required to perform a transfer.",
						"sender": "Address whose tokens are being transferred.",
						"tokenId": "Identifier number of a token."
					}
				}
			],
			"ERC1155InvalidApprover(address)": [
				{
					"details": "Indicates a failure with the `approver` of a token to be approved. Used in approvals.",
					"params": {
						"approver": "Address initiating an approval operation."
					}
				}
			],
			"ERC1155InvalidArrayLength(uint256,uint256)": [
				{
					"details": "Indicates an array length mismatch between ids and values in a safeBatchTransferFrom operation. Used in batch transfers.",
					"params": {
						"idsLength": "Length of the array of token identifiers",
						"valuesLength": "Length of the array of token amounts"
					}
				}
			],
			"ERC1155InvalidOperator(address)": [
				{
					"details": "Indicates a failure with the `operator` to be approved. Used in approvals.",
					"params": {
						"operator": "Address that may be allowed to operate on tokens without being their owner."
					}
				}
			],
			"ERC1155InvalidReceiver(address)": [
				{
					"details": "Indicates a failure with the token `receiver`. Used in transfers.",
					"params": {
						"receiver": "Address to which tokens are being transferred."
					}
				}
			],
			"ERC1155InvalidSender(address)": [
				{
					"details": "Indicates a failure with the token `sender`. Used in transfers.",
					"params": {
						"sender": "Address whose tokens are being transferred."
					}
				}
			],
			"ERC1155MissingApprovalForAll(address,address)": [
				{
					"details": "Indicates a failure with the `operator`’s approval. Used in transfers.",
					"params": {
						"operator": "Address that may be allowed to operate on tokens without being their owner.",
						"owner": "Address of the current owner of a token."
					}
				}
			],
			"OwnableInvalidOwner(address)": [
				{
					"details": "The owner is not a valid owner account. (eg. `address(0)`)"
				}
			],
			"OwnableUnauthorizedAccount(address)": [
				{
					"details": "The caller account is not authorized to perform an operation."
				}
			]
		},
		"events": {
			"ApprovalForAll(address,address,bool)": {
				"details": "Emitted when `account` grants or revokes permission to `operator` to transfer their tokens, according to `approved`."
			},
			"TransferBatch(address,address,address,uint256[],uint256[])": {
				"details": "Equivalent to multiple {TransferSingle} events, where `operator`, `from` and `to` are the same for all transfers."
			},
			"TransferSingle(address,address,address,uint256,uint256)": {
				"details": "Emitted when `value` amount of tokens of type `id` are transferred from `from` to `to` by `operator`."
			},
			"URI(string,uint256)": {
				"details": "Emitted when the URI for token type `id` changes to `value`, if it is a non-programmatic URI. If an {URI} event was emitted for `id`, the standard https://eips.ethereum.org/EIPS/eip-1155#metadata-extensions[guarantees] that `value` will equal the value returned by {IERC1155MetadataURI-uri}."
			}
		},
		"kind": "dev",
		"methods": {
			"balanceOf(address,uint256)": {
				"details": "See {IERC1155-balanceOf}."
			},
			"balanceOfBatch(address[],uint256[])": {
				"details": "See {IERC1155-balanceOfBatch}. Requirements: - `accounts` and `ids` must have the same length."
			},
			"isApprovedForAll(address,address)": {
				"details": "See {IERC1155-isApprovedForAll}."
			},
			"owner()": {
				"details": "Returns the address of the current owner."
			},
			"renounceOwnership()": {
				"details": "Leaves the contract without owner. It will not be possible to call `onlyOwner` functions. Can only be called by the current owner. NOTE: Renouncing ownership will leave the contract without an owner, thereby disabling any functionality that is only available to the owner."
			},
			"setApprovalForAll(address,bool)": {
				"details": "See {IERC1155-setApprovalForAll}."
			},
			"supportsInterface(bytes4)": {
				"details": "See {IERC165-supportsInterface}."
			},
			"transferOwnership(address)": {
				"details": "Transfers ownership of the contract to a new account (`newOwner`). Can only be called by the current owner."
			},
			"uri(uint256)": {
				"details": "See {IERC1155MetadataURI-uri}. This implementation returns the same URI for *all* token types. It relies on the token type ID substitution mechanism https://eips.ethereum.org/EIPS/eip-1155#metadata[defined in the ERC]. Clients calling this function must replace the `\\{id\\}` substring with the actual token type ID."
			}
		},
		"version": 1
	},
	"userdoc": {
		"kind": "user",
		"methods": {
			"allTokenIDs()": {
				"notice": "Returns the full list of token IDs ever minted"
			}
		},
		"version": 1
	},
	"Runtime Bytecode": {
		"immutableReferences": {},
		"linkReferences": {},
		"object": "608060405234801561000f575f5ffd5b506004361061018b575f3560e01c8063784008ce116100dc578063cf5219ad11610095578063e985e9c51161006f578063e985e9c51461047d578063f242432a146104ad578063f2fde38b146104c9578063f5298aca146104e55761018b565b8063cf5219ad146103ff578063d121cdc01461041d578063e725f8771461044d5761018b565b8063784008ce1461033f5780638da5cb5b1461035d5780638e274a181461037b5780639c5416f214610397578063a22cb465146103b3578063b9bbe916146103cf5761018b565b806331ae450b116101495780635883861d116101235780635883861d146102df57806370480275146102fb578063715018a6146103175780637578b248146103215761018b565b806331ae450b1461027557806338e71640146102935780634e1273f4146102af5761018b565b8062fdd58e1461018f57806301ffc9a7146101bf5780630e89341c146101ef5780631785f53c1461021f5780632b7ac3f31461023b5780632eb2c2d614610259575b5f5ffd5b6101a960048036038101906101a49190612964565b610501565b6040516101b691906129b1565b60405180910390f35b6101d960048036038101906101d49190612a1f565b610556565b6040516101e69190612a64565b60405180910390f35b61020960048036038101906102049190612a7d565b610637565b6040516102169190612b18565b60405180910390f35b61023960048036038101906102349190612b38565b6106c9565b005b61024361088d565b6040516102509190612bbe565b60405180910390f35b610273600480360381019061026e9190612dc7565b6108b2565b005b61027d6109e9565b60405161028a9190612f49565b60405180910390f35b6102ad60048036038101906102a89190612fa6565b610a7c565b005b6102c960048036038101906102c491906130a4565b610d8b565b6040516102d691906131d1565b60405180910390f35b6102f960048036038101906102f4919061324a565b610e95565b005b61031560048036038101906103109190612b38565b610f48565b005b61031f61106a565b005b61032961107d565b60405161033691906131d1565b60405180910390f35b61034761108e565b60405161035491906129b1565b60405180910390f35b610365611093565b60405161037291906132dd565b60405180910390f35b6103956004803603810190610390919061334b565b6110bb565b005b6103b160048036038101906103ac9190613402565b611191565b005b6103cd60048036038101906103c8919061347c565b6113b8565b005b6103e960048036038101906103e49190612fa6565b6113ce565b6040516103f691906132dd565b60405180910390f35b61040761140b565b60405161041491906129b1565b60405180910390f35b61043760048036038101906104329190612a7d565b611410565b60405161044491906134c9565b60405180910390f35b61046760048036038101906104629190612a7d565b61144b565b6040516104749190612b18565b60405180910390f35b610497600480360381019061049291906134e2565b6114e6565b6040516104a49190612a64565b60405180910390f35b6104c760048036038101906104c29190613520565b611574565b005b6104e360048036038101906104de9190612b38565b611591565b005b6104ff60048036038101906104fa91906135b3565b611615565b005b5f5f5f8381526020019081526020015f205f8473ffffffffffffffffffffffffffffffffffffffff1673ffffffffffffffffffffffffffffffffffffffff1681526020019081526020015f2054905092915050565b5f7fd9b67a26000000000000000000000000000000000000000000000000000000007bffffffffffffffffffffffffffffffffffffffffffffffffffffffff1916827bffffffffffffffffffffffffffffffffffffffffffffffffffffffff1916148061062057507f0e89341c000000000000000000000000000000000000000000000000000000007bffffffffffffffffffffffffffffffffffffffffffffffffffffffff1916827bffffffffffffffffffffffffffffffffffffffffffffffffffffffff1916145b80610630575061062f8261162d565b5b9050919050565b60606002805461064690613630565b80601f016020809104026020016040519081016040528092919081815260200182805461067290613630565b80156106bd5780601f10610694576101008083540402835291602001916106bd565b820191905f5260205f20905b8154815290600101906020018083116106a057829003601f168201915b50505050509050919050565b6106d1611696565b5f60048054905090505f5f90505b8181101561084e578273ffffffffffffffffffffffffffffffffffffffff166004828154811061071257610711613660565b5b905f5260205f20015f9054906101000a900473ffffffffffffffffffffffffffffffffffffffff1673ffffffffffffffffffffffffffffffffffffffff160361084157600460018361076491906136ba565b8154811061077557610774613660565b5b905f5260205f20015f9054906101000a900473ffffffffffffffffffffffffffffffffffffffff16600482815481106107b1576107b0613660565b5b905f5260205f20015f6101000a81548173ffffffffffffffffffffffffffffffffffffffff021916908373ffffffffffffffffffffffffffffffffffffffff1602179055506004805480610808576108076136ed565b5b600190038181905f5260205f20015f6101000a81549073ffffffffffffffffffffffffffffffffffffffff02191690559055505061088a565b80806001019150506106df565b506040517f08c379a000000000000000000000000000000000000000000000000000000000815260040161088190613764565b60405180910390fd5b50565b600a5f9054906101000a900473ffffffffffffffffffffffffffffffffffffffff1681565b81518351146108f6576040517f08c379a00000000000000000000000000000000000000000000000000000000081526004016108ed906137f2565b60405180910390fd5b5f73ffffffffffffffffffffffffffffffffffffffff168473ffffffffffffffffffffffffffffffffffffffff1603610964576040517f08c379a000000000000000000000000000000000000000000000000000000000815260040161095b90613880565b60405180910390fd5b5f5f90505b83518110156109e15761099584828151811061098857610987613660565b5b602002602001015161171d565b6109d686868684815181106109ad576109ac613660565b5b60200260200101518685815181106109c8576109c7613660565b5b602002602001015186611574565b806001019050610969565b505050505050565b60606109f3611696565b6004805480602002602001604051908101604052809291908181526020018280548015610a7257602002820191905f5260205f20905b815f9054906101000a900473ffffffffffffffffffffffffffffffffffffffff1673ffffffffffffffffffffffffffffffffffffffff1681526020019060010190808311610a29575b5050505050905090565b610a85336119ed565b610ac4576040517f08c379a0000000000000000000000000000000000000000000000000000000008152600401610abb906138e8565b60405180910390fd5b610ad8826005611a8f90919063ffffffff16565b610b17576040517f08c379a0000000000000000000000000000000000000000000000000000000008152600401610b0e90613950565b60405180910390fd5b5f73ffffffffffffffffffffffffffffffffffffffff1660085f8481526020019081526020015f205f8367ffffffffffffffff1667ffffffffffffffff1681526020019081526020015f205f9054906101000a900473ffffffffffffffffffffffffffffffffffffffff1673ffffffffffffffffffffffffffffffffffffffff1603610bd8576040517f08c379a0000000000000000000000000000000000000000000000000000000008152600401610bcf906139b8565b60405180910390fd5b60085f8381526020019081526020015f205f8267ffffffffffffffff1667ffffffffffffffff1681526020019081526020015f205f6101000a81549073ffffffffffffffffffffffffffffffffffffffff02191690555f5f90505b600980549050811015610d86578167ffffffffffffffff1660098281548110610c5f57610c5e613660565b5b905f5260205f2090600491828204019190066008029054906101000a900467ffffffffffffffff1667ffffffffffffffff1603610d795760096001600980549050610caa91906136ba565b81548110610cbb57610cba613660565b5b905f5260205f2090600491828204019190066008029054906101000a900467ffffffffffffffff1660098281548110610cf757610cf6613660565b5b905f5260205f2090600491828204019190066008026101000a81548167ffffffffffffffff021916908367ffffffffffffffff1602179055506009805480610d4257610d416136ed565b5b600190038181905f5260205f2090600491828204019190066008026101000a81549067ffffffffffffffff02191690559055610d86565b8080600101915050610c33565b505050565b60608151835114610dd757815183516040517f5b059991000000000000000000000000000000000000000000000000000000008152600401610dce9291906139d6565b60405180910390fd5b5f835167ffffffffffffffff811115610df357610df2612bdb565b5b604051908082528060200260200182016040528015610e215781602001602082028036833780820191505090505b5090505f5f90505b8451811015610e8a57610e60610e488287611aa690919063ffffffff16565b610e5b8387611ab990919063ffffffff16565b610501565b828281518110610e7357610e72613660565b5b602002602001018181525050806001019050610e29565b508091505092915050565b610e9d611696565b610eb1846005611a8f90919063ffffffff16565b610ef257836040517fd60b1c24000000000000000000000000000000000000000000000000000000008152600401610ee991906129b1565b60405180910390fd5b610f4185858585858080601f0160208091040260200160405190810160405280939291908181526020018383808284375f81840152601f19601f82011690508083019250505050505050611acc565b5050505050565b610f50611696565b5f73ffffffffffffffffffffffffffffffffffffffff168173ffffffffffffffffffffffffffffffffffffffff1603610fbe576040517f08c379a0000000000000000000000000000000000000000000000000000000008152600401610fb590613a47565b60405180910390fd5b610fc7816119ed565b15611007576040517f08c379a0000000000000000000000000000000000000000000000000000000008152600401610ffe90613aaf565b60405180910390fd5b600481908060018154018082558091505060019003905f5260205f20015f9091909190916101000a81548173ffffffffffffffffffffffffffffffffffffffff021916908373ffffffffffffffffffffffffffffffffffffffff16021790555050565b611072611696565b61107b5f611b61565b565b60606110896005611c24565b905090565b600181565b5f60035f9054906101000a900473ffffffffffffffffffffffffffffffffffffffff16905090565b6110c3611696565b6110d7866005611c4390919063ffffffff16565b61111857856040517f453d47f500000000000000000000000000000000000000000000000000000000815260040161110f91906129b1565b60405180910390fd5b61116787878787878080601f0160208091040260200160405190810160405280939291908181526020018383808284375f81840152601f19601f82011690508083019250505050505050611acc565b818160075f8981526020019081526020015f209182611187929190613c6e565b5050505050505050565b61119a336119ed565b6111d9576040517f08c379a00000000000000000000000000000000000000000000000000000000081526004016111d0906138e8565b60405180910390fd5b6111ed836005611a8f90919063ffffffff16565b61122c576040517f08c379a000000000000000000000000000000000000000000000000000000000815260040161122390613950565b60405180910390fd5b5f73ffffffffffffffffffffffffffffffffffffffff1660085f8581526020019081526020015f205f8467ffffffffffffffff1667ffffffffffffffff1681526020019081526020015f205f9054906101000a900473ffffffffffffffffffffffffffffffffffffffff1673ffffffffffffffffffffffffffffffffffffffff16146112ed576040517f08c379a00000000000000000000000000000000000000000000000000000000081526004016112e490613d85565b60405180910390fd5b8060085f8581526020019081526020015f205f8467ffffffffffffffff1667ffffffffffffffff1681526020019081526020015f205f6101000a81548173ffffffffffffffffffffffffffffffffffffffff021916908373ffffffffffffffffffffffffffffffffffffffff160217905550600982908060018154018082558091505060019003905f5260205f2090600491828204019190066008029091909190916101000a81548167ffffffffffffffff021916908367ffffffffffffffff160217905550505050565b6113ca6113c3611c5a565b8383611c61565b5050565b6008602052815f5260405f20602052805f5260405f205f915091509054906101000a900473ffffffffffffffffffffffffffffffffffffffff1681565b600281565b6009818154811061141f575f80fd5b905f5260205f209060049182820401919006600802915054906101000a900467ffffffffffffffff1681565b6007602052805f5260405f205f91509050805461146790613630565b80601f016020809104026020016040519081016040528092919081815260200182805461149390613630565b80156114de5780601f106114b5576101008083540402835291602001916114de565b820191905f5260205f20905b8154815290600101906020018083116114c157829003601f168201915b505050505081565b5f60015f8473ffffffffffffffffffffffffffffffffffffffff1673ffffffffffffffffffffffffffffffffffffffff1681526020019081526020015f205f8373ffffffffffffffffffffffffffffffffffffffff1673ffffffffffffffffffffffffffffffffffffffff1681526020019081526020015f205f9054906101000a900460ff16905092915050565b61157d8361171d565b61158a8585858585611dca565b5050505050565b611599611696565b5f73ffffffffffffffffffffffffffffffffffffffff168173ffffffffffffffffffffffffffffffffffffffff1603611609575f6040517f1e4fbdf700000000000000000000000000000000000000000000000000000000815260040161160091906132dd565b60405180910390fd5b61161281611b61565b50565b61161d611696565b611628838383611e71565b505050565b5f7f01ffc9a7000000000000000000000000000000000000000000000000000000007bffffffffffffffffffffffffffffffffffffffffffffffffffffffff1916827bffffffffffffffffffffffffffffffffffffffffffffffffffffffff1916149050919050565b61169e611c5a565b73ffffffffffffffffffffffffffffffffffffffff166116bc611093565b73ffffffffffffffffffffffffffffffffffffffff161461171b576116df611c5a565b6040517f118cdaa700000000000000000000000000000000000000000000000000000000815260040161171291906132dd565b60405180910390fd5b565b5f600980548060200260200160405190810160405280929190818152602001828054801561179b57602002820191905f5260205f20905f905b82829054906101000a900467ffffffffffffffff1667ffffffffffffffff16815260200190600801906020826007010492830192600103820291508084116117565790505b505050505090505f5f90505b81518110156119e8575f73ffffffffffffffffffffffffffffffffffffffff1660085f8581526020019081526020015f205f8484815181106117ec576117eb613660565b5b602002602001015167ffffffffffffffff1667ffffffffffffffff1681526020019081526020015f205f9054906101000a900473ffffffffffffffffffffffffffffffffffffffff1673ffffffffffffffffffffffffffffffffffffffff16146119db575f60085f8581526020019081526020015f205f84848151811061187657611875613660565b5b602002602001015167ffffffffffffffff1667ffffffffffffffff1681526020019081526020015f205f9054906101000a900473ffffffffffffffffffffffffffffffffffffffff169050600a5f9054906101000a900473ffffffffffffffffffffffffffffffffffffffff1673ffffffffffffffffffffffffffffffffffffffff16638c1da2c98285858151811061191257611911613660565b5b60200260200101516040518363ffffffff1660e01b8152600401611937929190613da3565b5f60405180830381865afa158015611951573d5f5f3e3d5ffd5b505050506040513d5f823e3d601f19601f820116820180604052508101906119799190613f29565b5f01516119d95782828151811061199357611992613660565b5b6020026020010151816040517fa5a4608e0000000000000000000000000000000000000000000000000000000081526004016119d0929190613f70565b60405180910390fd5b505b80806001019150506117a7565b505050565b5f5f5f90505b600480549050811015611a85578273ffffffffffffffffffffffffffffffffffffffff1660048281548110611a2b57611a2a613660565b5b905f5260205f20015f9054906101000a900473ffffffffffffffffffffffffffffffffffffffff1673ffffffffffffffffffffffffffffffffffffffff1603611a78576001915050611a8a565b80806001019150506119f3565b505f90505b919050565b5f611a9e835f01835f1b611f13565b905092915050565b5f60208202602084010151905092915050565b5f60208202602084010151905092915050565b5f73ffffffffffffffffffffffffffffffffffffffff168473ffffffffffffffffffffffffffffffffffffffff1603611b3c575f6040517f57f447ce000000000000000000000000000000000000000000000000000000008152600401611b3391906132dd565b60405180910390fd5b5f5f611b488585611f33565b91509150611b595f87848487611f63565b505050505050565b5f60035f9054906101000a900473ffffffffffffffffffffffffffffffffffffffff1690508160035f6101000a81548173ffffffffffffffffffffffffffffffffffffffff021916908373ffffffffffffffffffffffffffffffffffffffff1602179055508173ffffffffffffffffffffffffffffffffffffffff168173ffffffffffffffffffffffffffffffffffffffff167f8be0079c531659141344cd1fd0a4f28419497f9722a3daafe3b4186f6b6457e060405160405180910390a35050565b60605f611c32835f0161200f565b905060608190508092505050919050565b5f611c52835f01835f1b612068565b905092915050565b5f33905090565b5f73ffffffffffffffffffffffffffffffffffffffff168273ffffffffffffffffffffffffffffffffffffffff1603611cd1575f6040517fced3e100000000000000000000000000000000000000000000000000000000008152600401611cc891906132dd565b60405180910390fd5b8060015f8573ffffffffffffffffffffffffffffffffffffffff1673ffffffffffffffffffffffffffffffffffffffff1681526020019081526020015f205f8473ffffffffffffffffffffffffffffffffffffffff1673ffffffffffffffffffffffffffffffffffffffff1681526020019081526020015f205f6101000a81548160ff0219169083151502179055508173ffffffffffffffffffffffffffffffffffffffff168373ffffffffffffffffffffffffffffffffffffffff167f17307eab39ab6107e8899845ad3d59bd9653f200f220920489ca2b5937696c3183604051611dbd9190612a64565b60405180910390a3505050565b5f611dd3611c5a565b90508073ffffffffffffffffffffffffffffffffffffffff168673ffffffffffffffffffffffffffffffffffffffff1614158015611e185750611e1686826114e6565b155b15611e5c5780866040517fe237d922000000000000000000000000000000000000000000000000000000008152600401611e53929190613f97565b60405180910390fd5b611e6986868686866120cf565b505050505050565b5f73ffffffffffffffffffffffffffffffffffffffff168373ffffffffffffffffffffffffffffffffffffffff1603611ee1575f6040517f01a83514000000000000000000000000000000000000000000000000000000008152600401611ed891906132dd565b60405180910390fd5b5f5f611eed8484611f33565b91509150611f0c855f848460405180602001604052805f815250611f63565b5050505050565b5f5f836001015f8481526020019081526020015f20541415905092915050565b60608060405191506001825283602083015260408201905060018152826020820152604081016040529250929050565b611f6f858585856121d5565b5f73ffffffffffffffffffffffffffffffffffffffff168473ffffffffffffffffffffffffffffffffffffffff1614612008575f611fab611c5a565b90506001845103611ff7575f611fca5f86611ab990919063ffffffff16565b90505f611fe05f86611ab990919063ffffffff16565b9050611ff0838989858589612568565b5050612006565b612005818787878787612717565b5b505b5050505050565b6060815f0180548060200260200160405190810160405280929190818152602001828054801561205c57602002820191905f5260205f20905b815481526020019060010190808311612048575b50505050509050919050565b5f6120738383611f13565b6120c557825f0182908060018154018082558091505060019003905f5260205f20015f9091909190915055825f0180549050836001015f8481526020019081526020015f2081905550600190506120c9565b5f90505b92915050565b5f73ffffffffffffffffffffffffffffffffffffffff168473ffffffffffffffffffffffffffffffffffffffff160361213f575f6040517f57f447ce00000000000000000000000000000000000000000000000000000000815260040161213691906132dd565b60405180910390fd5b5f73ffffffffffffffffffffffffffffffffffffffff168573ffffffffffffffffffffffffffffffffffffffff16036121af575f6040517f01a835140000000000000000000000000000000000000000000000000000000081526004016121a691906132dd565b60405180910390fd5b5f5f6121bb8585611f33565b915091506121cc8787848487611f63565b50505050505050565b805182511461221f57815181516040517f5b0599910000000000000000000000000000000000000000000000000000000081526004016122169291906139d6565b60405180910390fd5b5f612228611c5a565b90505f5f90505b8351811015612427575f61224c8286611ab990919063ffffffff16565b90505f6122628386611ab990919063ffffffff16565b90505f73ffffffffffffffffffffffffffffffffffffffff168873ffffffffffffffffffffffffffffffffffffffff1614612385575f5f5f8481526020019081526020015f205f8a73ffffffffffffffffffffffffffffffffffffffff1673ffffffffffffffffffffffffffffffffffffffff1681526020019081526020015f205490508181101561233157888183856040517f03dee4c50000000000000000000000000000000000000000000000000000000081526004016123289493929190613fbe565b60405180910390fd5b8181035f5f8581526020019081526020015f205f8b73ffffffffffffffffffffffffffffffffffffffff1673ffffffffffffffffffffffffffffffffffffffff1681526020019081526020015f2081905550505b5f73ffffffffffffffffffffffffffffffffffffffff168773ffffffffffffffffffffffffffffffffffffffff161461241a57805f5f8481526020019081526020015f205f8973ffffffffffffffffffffffffffffffffffffffff1673ffffffffffffffffffffffffffffffffffffffff1681526020019081526020015f205f8282546124129190614001565b925050819055505b505080600101905061222f565b5060018351036124e2575f6124455f85611ab990919063ffffffff16565b90505f61245b5f85611ab990919063ffffffff16565b90508573ffffffffffffffffffffffffffffffffffffffff168773ffffffffffffffffffffffffffffffffffffffff168473ffffffffffffffffffffffffffffffffffffffff167fc3d58168c5ae7397731d063d5bbf3d657854427343f4c083240f7aacaa2d0f6285856040516124d39291906139d6565b60405180910390a45050612561565b8373ffffffffffffffffffffffffffffffffffffffff168573ffffffffffffffffffffffffffffffffffffffff168273ffffffffffffffffffffffffffffffffffffffff167f4a39dc06d4c0dbc64b70af90fd698a233a518aa5d07e595d983b8c0526c8f7fb8686604051612558929190614034565b60405180910390a45b5050505050565b5f8473ffffffffffffffffffffffffffffffffffffffff163b111561270f578373ffffffffffffffffffffffffffffffffffffffff1663f23a6e6187878686866040518663ffffffff1660e01b81526004016125c89594939291906140bb565b6020604051808303815f875af192505050801561260357506040513d601f19601f820116820180604052508101906126009190614127565b60015b612684573d805f8114612631576040519150601f19603f3d011682016040523d82523d5f602084013e612636565b606091505b505f81510361267c57846040517f57f447ce00000000000000000000000000000000000000000000000000000000815260040161267391906132dd565b60405180910390fd5b805181602001fd5b63f23a6e6160e01b7bffffffffffffffffffffffffffffffffffffffffffffffffffffffff1916817bffffffffffffffffffffffffffffffffffffffffffffffffffffffff19161461270d57846040517f57f447ce00000000000000000000000000000000000000000000000000000000815260040161270491906132dd565b60405180910390fd5b505b505050505050565b5f8473ffffffffffffffffffffffffffffffffffffffff163b11156128be578373ffffffffffffffffffffffffffffffffffffffff1663bc197c8187878686866040518663ffffffff1660e01b8152600401612777959493929190614152565b6020604051808303815f875af19250505080156127b257506040513d601f19601f820116820180604052508101906127af9190614127565b60015b612833573d805f81146127e0576040519150601f19603f3d011682016040523d82523d5f602084013e6127e5565b606091505b505f81510361282b57846040517f57f447ce00000000000000000000000000000000000000000000000000000000815260040161282291906132dd565b60405180910390fd5b805181602001fd5b63bc197c8160e01b7bffffffffffffffffffffffffffffffffffffffffffffffffffffffff1916817bffffffffffffffffffffffffffffffffffffffffffffffffffffffff1916146128bc57846040517f57f447ce0000000000000000000000000000000000000000000000000000000081526004016128b391906132dd565b60405180910390fd5b505b505050505050565b5f604051905090565b5f5ffd5b5f5ffd5b5f73ffffffffffffffffffffffffffffffffffffffff82169050919050565b5f612900826128d7565b9050919050565b612910816128f6565b811461291a575f5ffd5b50565b5f8135905061292b81612907565b92915050565b5f819050919050565b61294381612931565b811461294d575f5ffd5b50565b5f8135905061295e8161293a565b92915050565b5f5f6040838503121561297a576129796128cf565b5b5f6129878582860161291d565b925050602061299885828601612950565b9150509250929050565b6129ab81612931565b82525050565b5f6020820190506129c45f8301846129a2565b92915050565b5f7fffffffff0000000000000000000000000000000000000000000000000000000082169050919050565b6129fe816129ca565b8114612a08575f5ffd5b50565b5f81359050612a19816129f5565b92915050565b5f60208284031215612a3457612a336128cf565b5b5f612a4184828501612a0b565b91505092915050565b5f8115159050919050565b612a5e81612a4a565b82525050565b5f602082019050612a775f830184612a55565b92915050565b5f60208284031215612a9257612a916128cf565b5b5f612a9f84828501612950565b91505092915050565b5f81519050919050565b5f82825260208201905092915050565b8281835e5f83830152505050565b5f601f19601f8301169050919050565b5f612aea82612aa8565b612af48185612ab2565b9350612b04818560208601612ac2565b612b0d81612ad0565b840191505092915050565b5f6020820190508181035f830152612b308184612ae0565b905092915050565b5f60208284031215612b4d57612b4c6128cf565b5b5f612b5a8482850161291d565b91505092915050565b5f819050919050565b5f612b86612b81612b7c846128d7565b612b63565b6128d7565b9050919050565b5f612b9782612b6c565b9050919050565b5f612ba882612b8d565b9050919050565b612bb881612b9e565b82525050565b5f602082019050612bd15f830184612baf565b92915050565b5f5ffd5b7f4e487b71000000000000000000000000000000000000000000000000000000005f52604160045260245ffd5b612c1182612ad0565b810181811067ffffffffffffffff82111715612c3057612c2f612bdb565b5b80604052505050565b5f612c426128c6565b9050612c4e8282612c08565b919050565b5f67ffffffffffffffff821115612c6d57612c6c612bdb565b5b602082029050602081019050919050565b5f5ffd5b5f612c94612c8f84612c53565b612c39565b90508083825260208201905060208402830185811115612cb757612cb6612c7e565b5b835b81811015612ce05780612ccc8882612950565b845260208401935050602081019050612cb9565b5050509392505050565b5f82601f830112612cfe57612cfd612bd7565b5b8135612d0e848260208601612c82565b91505092915050565b5f5ffd5b5f67ffffffffffffffff821115612d3557612d34612bdb565b5b612d3e82612ad0565b9050602081019050919050565b828183375f83830152505050565b5f612d6b612d6684612d1b565b612c39565b905082815260208101848484011115612d8757612d86612d17565b5b612d92848285612d4b565b509392505050565b5f82601f830112612dae57612dad612bd7565b5b8135612dbe848260208601612d59565b91505092915050565b5f5f5f5f5f60a08688031215612de057612ddf6128cf565b5b5f612ded8882890161291d565b9550506020612dfe8882890161291d565b945050604086013567ffffffffffffffff811115612e1f57612e1e6128d3565b5b612e2b88828901612cea565b935050606086013567ffffffffffffffff811115612e4c57612e4b6128d3565b5b612e5888828901612cea565b925050608086013567ffffffffffffffff811115612e7957612e786128d3565b5b612e8588828901612d9a565b9150509295509295909350565b5f81519050919050565b5f82825260208201905092915050565b5f819050602082019050919050565b612ec4816128f6565b82525050565b5f612ed58383612ebb565b60208301905092915050565b5f602082019050919050565b5f612ef782612e92565b612f018185612e9c565b9350612f0c83612eac565b805f5b83811015612f3c578151612f238882612eca565b9750612f2e83612ee1565b925050600181019050612f0f565b5085935050505092915050565b5f6020820190508181035f830152612f618184612eed565b905092915050565b5f67ffffffffffffffff82169050919050565b612f8581612f69565b8114612f8f575f5ffd5b50565b5f81359050612fa081612f7c565b92915050565b5f5f60408385031215612fbc57612fbb6128cf565b5b5f612fc985828601612950565b9250506020612fda85828601612f92565b9150509250929050565b5f67ffffffffffffffff821115612ffe57612ffd612bdb565b5b602082029050602081019050919050565b5f61302161301c84612fe4565b612c39565b9050808382526020820190506020840283018581111561304457613043612c7e565b5b835b8181101561306d5780613059888261291d565b845260208401935050602081019050613046565b5050509392505050565b5f82601f83011261308b5761308a612bd7565b5b813561309b84826020860161300f565b91505092915050565b5f5f604083850312156130ba576130b96128cf565b5b5f83013567ffffffffffffffff8111156130d7576130d66128d3565b5b6130e385828601613077565b925050602083013567ffffffffffffffff811115613104576131036128d3565b5b61311085828601612cea565b9150509250929050565b5f81519050919050565b5f82825260208201905092915050565b5f819050602082019050919050565b61314c81612931565b82525050565b5f61315d8383613143565b60208301905092915050565b5f602082019050919050565b5f61317f8261311a565b6131898185613124565b935061319483613134565b805f5b838110156131c45781516131ab8882613152565b97506131b683613169565b925050600181019050613197565b5085935050505092915050565b5f6020820190508181035f8301526131e98184613175565b905092915050565b5f5ffd5b5f5f83601f84011261320a57613209612bd7565b5b8235905067ffffffffffffffff811115613227576132266131f1565b5b60208301915083600182028301111561324357613242612c7e565b5b9250929050565b5f5f5f5f5f60808688031215613263576132626128cf565b5b5f6132708882890161291d565b955050602061328188828901612950565b945050604061329288828901612950565b935050606086013567ffffffffffffffff8111156132b3576132b26128d3565b5b6132bf888289016131f5565b92509250509295509295909350565b6132d7816128f6565b82525050565b5f6020820190506132f05f8301846132ce565b92915050565b5f5f83601f84011261330b5761330a612bd7565b5b8235905067ffffffffffffffff811115613328576133276131f1565b5b60208301915083600182028301111561334457613343612c7e565b5b9250929050565b5f5f5f5f5f5f5f60a0888a031215613366576133656128cf565b5b5f6133738a828b0161291d565b97505060206133848a828b01612950565b96505060406133958a828b01612950565b955050606088013567ffffffffffffffff8111156133b6576133b56128d3565b5b6133c28a828b016131f5565b9450945050608088013567ffffffffffffffff8111156133e5576133e46128d3565b5b6133f18a828b016132f6565b925092505092959891949750929550565b5f5f5f60608486031215613419576134186128cf565b5b5f61342686828701612950565b935050602061343786828701612f92565b92505060406134488682870161291d565b9150509250925092565b61345b81612a4a565b8114613465575f5ffd5b50565b5f8135905061347681613452565b92915050565b5f5f60408385031215613492576134916128cf565b5b5f61349f8582860161291d565b92505060206134b085828601613468565b9150509250929050565b6134c381612f69565b82525050565b5f6020820190506134dc5f8301846134ba565b92915050565b5f5f604083850312156134f8576134f76128cf565b5b5f6135058582860161291d565b92505060206135168582860161291d565b9150509250929050565b5f5f5f5f5f60a08688031215613539576135386128cf565b5b5f6135468882890161291d565b95505060206135578882890161291d565b945050604061356888828901612950565b935050606061357988828901612950565b925050608086013567ffffffffffffffff81111561359a576135996128d3565b5b6135a688828901612d9a565b9150509295509295909350565b5f5f5f606084860312156135ca576135c96128cf565b5b5f6135d78682870161291d565b93505060206135e886828701612950565b92505060406135f986828701612950565b9150509250925092565b7f4e487b71000000000000000000000000000000000000000000000000000000005f52602260045260245ffd5b5f600282049050600182168061364757607f821691505b60208210810361365a57613659613603565b5b50919050565b7f4e487b71000000000000000000000000000000000000000000000000000000005f52603260045260245ffd5b7f4e487b71000000000000000000000000000000000000000000000000000000005f52601160045260245ffd5b5f6136c482612931565b91506136cf83612931565b92508282039050818111156136e7576136e661368d565b5b92915050565b7f4e487b71000000000000000000000000000000000000000000000000000000005f52603160045260245ffd5b7f41646d696e206e6f7420666f756e6400000000000000000000000000000000005f82015250565b5f61374e600f83612ab2565b91506137598261371a565b602082019050919050565b5f6020820190508181035f83015261377b81613742565b9050919050565b7f455243313135353a204d69736d617463686564206172726179206c656e6774685f8201527f7300000000000000000000000000000000000000000000000000000000000000602082015250565b5f6137dc602183612ab2565b91506137e782613782565b604082019050919050565b5f6020820190508181035f830152613809816137d0565b9050919050565b7f455243313135353a207472616e7366657220746f20746865207a65726f2061645f8201527f6472657373000000000000000000000000000000000000000000000000000000602082015250565b5f61386a602583612ab2565b915061387582613810565b604082019050919050565b5f6020820190508181035f8301526138978161385e565b9050919050565b7f43616c6c6572206973206e6f7420616e2061646d696e000000000000000000005f82015250565b5f6138d2601683612ab2565b91506138dd8261389e565b602082019050919050565b5f6020820190508181035f8301526138ff816138c6565b9050919050565b7f746f6b656e20696420646f6573206e6f742065786973740000000000000000005f82015250565b5f61393a601783612ab2565b915061394582613906565b602082019050919050565b5f6020820190508181035f8301526139678161392e565b9050919050565b7f50726f6f66207265717565737420646f6573206e6f74206578697374000000005f82015250565b5f6139a2601c83612ab2565b91506139ad8261396e565b602082019050919050565b5f6020820190508181035f8301526139cf81613996565b9050919050565b5f6040820190506139e95f8301856129a2565b6139f660208301846129a2565b9392505050565b7f496e76616c6964206164647265737300000000000000000000000000000000005f82015250565b5f613a31600f83612ab2565b9150613a3c826139fd565b602082019050919050565b5f6020820190508181035f830152613a5e81613a25565b9050919050565b7f4164647265737320697320616c726561647920616e2061646d696e00000000005f82015250565b5f613a99601b83612ab2565b9150613aa482613a65565b602082019050919050565b5f6020820190508181035f830152613ac681613a8d565b9050919050565b5f82905092915050565b5f819050815f5260205f209050919050565b5f6020601f8301049050919050565b5f82821b905092915050565b5f60088302613b337fffffffffffffffffffffffffffffffffffffffffffffffffffffffffffffffff82613af8565b613b3d8683613af8565b95508019841693508086168417925050509392505050565b5f613b6f613b6a613b6584612931565b612b63565b612931565b9050919050565b5f819050919050565b613b8883613b55565b613b9c613b9482613b76565b848454613b04565b825550505050565b5f5f905090565b613bb3613ba4565b613bbe818484613b7f565b505050565b5b81811015613be157613bd65f82613bab565b600181019050613bc4565b5050565b601f821115613c2657613bf781613ad7565b613c0084613ae9565b81016020851015613c0f578190505b613c23613c1b85613ae9565b830182613bc3565b50505b505050565b5f82821c905092915050565b5f613c465f1984600802613c2b565b1980831691505092915050565b5f613c5e8383613c37565b9150826002028217905092915050565b613c788383613acd565b67ffffffffffffffff811115613c9157613c90612bdb565b5b613c9b8254613630565b613ca6828285613be5565b5f601f831160018114613cd3575f8415613cc1578287013590505b613ccb8582613c53565b865550613d32565b601f198416613ce186613ad7565b5f5b82811015613d0857848901358255600182019150602085019450602081019050613ce3565b86831015613d255784890135613d21601f891682613c37565b8355505b6001600288020188555050505b50505050505050565b7f50726f6f66207265717565737420616c726561647920657869737473000000005f82015250565b5f613d6f601c83612ab2565b9150613d7a82613d3b565b602082019050919050565b5f6020820190508181035f830152613d9c81613d63565b9050919050565b5f604082019050613db65f8301856132ce565b613dc360208301846134ba565b9392505050565b5f5ffd5b5f5ffd5b5f81519050613de081613452565b92915050565b5f67ffffffffffffffff821115613e0057613dff612bdb565b5b613e0982612ad0565b9050602081019050919050565b5f613e28613e2384613de6565b612c39565b905082815260208101848484011115613e4457613e43612d17565b5b613e4f848285612ac2565b509392505050565b5f82601f830112613e6b57613e6a612bd7565b5b8151613e7b848260208601613e16565b91505092915050565b5f81519050613e928161293a565b92915050565b5f60808284031215613ead57613eac613dca565b5b613eb76080612c39565b90505f613ec684828501613dd2565b5f83015250602082015167ffffffffffffffff811115613ee957613ee8613dce565b5b613ef584828501613e57565b6020830152506040613f0984828501613e84565b6040830152506060613f1d84828501613e84565b60608301525092915050565b5f60208284031215613f3e57613f3d6128cf565b5b5f82015167ffffffffffffffff811115613f5b57613f5a6128d3565b5b613f6784828501613e98565b91505092915050565b5f604082019050613f835f8301856134ba565b613f9060208301846132ce565b9392505050565b5f604082019050613faa5f8301856132ce565b613fb760208301846132ce565b9392505050565b5f608082019050613fd15f8301876132ce565b613fde60208301866129a2565b613feb60408301856129a2565b613ff860608301846129a2565b95945050505050565b5f61400b82612931565b915061401683612931565b925082820190508082111561402e5761402d61368d565b5b92915050565b5f6040820190508181035f83015261404c8185613175565b905081810360208301526140608184613175565b90509392505050565b5f81519050919050565b5f82825260208201905092915050565b5f61408d82614069565b6140978185614073565b93506140a7818560208601612ac2565b6140b081612ad0565b840191505092915050565b5f60a0820190506140ce5f8301886132ce565b6140db60208301876132ce565b6140e860408301866129a2565b6140f560608301856129a2565b81810360808301526141078184614083565b90509695505050505050565b5f81519050614121816129f5565b92915050565b5f6020828403121561413c5761413b6128cf565b5b5f61414984828501614113565b91505092915050565b5f60a0820190506141655f8301886132ce565b61417260208301876132ce565b81810360408301526141848186613175565b905081810360608301526141988185613175565b905081810360808301526141ac8184614083565b9050969550505050505056fea26469706673582212208ed04b8ffd11bdef641aa7a88f3c65a89f93bbc368860630c1064e585e6594d164736f6c634300081b0033",
		"opcodes": "PUSH1 0x80 PUSH1 0x40 MSTORE CALLVALUE DUP1 ISZERO PUSH2 0xF JUMPI PUSH0 PUSH0 REVERT JUMPDEST POP PUSH1 0x4 CALLDATASIZE LT PUSH2 0x18B JUMPI PUSH0 CALLDATALOAD PUSH1 0xE0 SHR DUP1 PUSH4 0x784008CE GT PUSH2 0xDC JUMPI DUP1 PUSH4 0xCF5219AD GT PUSH2 0x95 JUMPI DUP1 PUSH4 0xE985E9C5 GT PUSH2 0x6F JUMPI DUP1 PUSH4 0xE985E9C5 EQ PUSH2 0x47D JUMPI DUP1 PUSH4 0xF242432A EQ PUSH2 0x4AD JUMPI DUP1 PUSH4 0xF2FDE38B EQ PUSH2 0x4C9 JUMPI DUP1 PUSH4 0xF5298ACA EQ PUSH2 0x4E5 JUMPI PUSH2 0x18B JUMP JUMPDEST DUP1 PUSH4 0xCF5219AD EQ PUSH2 0x3FF JUMPI DUP1 PUSH4 0xD121CDC0 EQ PUSH2 0x41D JUMPI DUP1 PUSH4 0xE725F877 EQ PUSH2 0x44D JUMPI PUSH2 0x18B JUMP JUMPDEST DUP1 PUSH4 0x784008CE EQ PUSH2 0x33F JUMPI DUP1 PUSH4 0x8DA5CB5B EQ PUSH2 0x35D JUMPI DUP1 PUSH4 0x8E274A18 EQ PUSH2 0x37B JUMPI DUP1 PUSH4 0x9C5416F2 EQ PUSH2 0x397 JUMPI DUP1 PUSH4 0xA22CB465 EQ PUSH2 0x3B3 JUMPI DUP1 PUSH4 0xB9BBE916 EQ PUSH2 0x3CF JUMPI PUSH2 0x18B JUMP JUMPDEST DUP1 PUSH4 0x31AE450B GT PUSH2 0x149 JUMPI DUP1 PUSH4 0x5883861D GT PUSH2 0x123 JUMPI DUP1 PUSH4 0x5883861D EQ PUSH2 0x2DF JUMPI DUP1 PUSH4 0x70480275 EQ PUSH2 0x2FB JUMPI DUP1 PUSH4 0x715018A6 EQ PUSH2 0x317 JUMPI DUP1 PUSH4 0x7578B248 EQ PUSH2 0x321 JUMPI PUSH2 0x18B JUMP JUMPDEST DUP1 PUSH4 0x31AE450B EQ PUSH2 0x275 JUMPI DUP1 PUSH4 0x38E71640 EQ PUSH2 0x293 JUMPI DUP1 PUSH4 0x4E1273F4 EQ PUSH2 0x2AF JUMPI PUSH2 0x18B JUMP JUMPDEST DUP1 PUSH3 0xFDD58E EQ PUSH2 0x18F JUMPI DUP1 PUSH4 0x1FFC9A7 EQ PUSH2 0x1BF JUMPI DUP1 PUSH4 0xE89341C EQ PUSH2 0x1EF JUMPI DUP1 PUSH4 0x1785F53C EQ PUSH2 0x21F JUMPI DUP1 PUSH4 0x2B7AC3F3 EQ PUSH2 0x23B JUMPI DUP1 PUSH4 0x2EB2C2D6 EQ PUSH2 0x259 JUMPI JUMPDEST PUSH0 PUSH0 REVERT JUMPDEST PUSH2 0x1A9 PUSH1 0x4 DUP1 CALLDATASIZE SUB DUP2 ADD SWAP1 PUSH2 0x1A4 SWAP2 SWAP1 PUSH2 0x2964 JUMP JUMPDEST PUSH2 0x501 JUMP JUMPDEST PUSH1 0x40 MLOAD PUSH2 0x1B6 SWAP2 SWAP1 PUSH2 0x29B1 JUMP JUMPDEST PUSH1 0x40 MLOAD DUP1 SWAP2 SUB SWAP1 RETURN JUMPDEST PUSH2 0x1D9 PUSH1 0x4 DUP1 CALLDATASIZE SUB DUP2 ADD SWAP1 PUSH2 0x1D4 SWAP2 SWAP1 PUSH2 0x2A1F JUMP JUMPDEST PUSH2 0x556 JUMP JUMPDEST PUSH1 0x40 MLOAD PUSH2 0x1E6 SWAP2 SWAP1 PUSH2 0x2A64 JUMP JUMPDEST PUSH1 0x40 MLOAD DUP1 SWAP2 SUB SWAP1 RETURN JUMPDEST PUSH2 0x209 PUSH1 0x4 DUP1 CALLDATASIZE SUB DUP2 ADD SWAP1 PUSH2 0x204 SWAP2 SWAP1 PUSH2 0x2A7D JUMP JUMPDEST PUSH2 0x637 JUMP JUMPDEST PUSH1 0x40 MLOAD PUSH2 0x216 SWAP2 SWAP1 PUSH2 0x2B18 JUMP JUMPDEST PUSH1 0x40 MLOAD DUP1 SWAP2 SUB SWAP1 RETURN JUMPDEST PUSH2 0x239 PUSH1 0x4 DUP1 CALLDATASIZE SUB DUP2 ADD SWAP1 PUSH2 0x234 SWAP2 SWAP1 PUSH2 0x2B38 JUMP JUMPDEST PUSH2 0x6C9 JUMP JUMPDEST STOP JUMPDEST PUSH2 0x243 PUSH2 0x88D JUMP JUMPDEST PUSH1 0x40 MLOAD PUSH2 0x250 SWAP2 SWAP1 PUSH2 0x2BBE JUMP JUMPDEST PUSH1 0x40 MLOAD DUP1 SWAP2 SUB SWAP1 RETURN JUMPDEST PUSH2 0x273 PUSH1 0x4 DUP1 CALLDATASIZE SUB DUP2 ADD SWAP1 PUSH2 0x26E SWAP2 SWAP1 PUSH2 0x2DC7 JUMP JUMPDEST PUSH2 0x8B2 JUMP JUMPDEST STOP JUMPDEST PUSH2 0x27D PUSH2 0x9E9 JUMP JUMPDEST PUSH1 0x40 MLOAD PUSH2 0x28A SWAP2 SWAP1 PUSH2 0x2F49 JUMP JUMPDEST PUSH1 0x40 MLOAD DUP1 SWAP2 SUB SWAP1 RETURN JUMPDEST PUSH2 0x2AD PUSH1 0x4 DUP1 CALLDATASIZE SUB DUP2 ADD SWAP1 PUSH2 0x2A8 SWAP2 SWAP1 PUSH2 0x2FA6 JUMP JUMPDEST PUSH2 0xA7C JUMP JUMPDEST STOP JUMPDEST PUSH2 0x2C9 PUSH1 0x4 DUP1 CALLDATASIZE SUB DUP2 ADD SWAP1 PUSH2 0x2C4 SWAP2 SWAP1 PUSH2 0x30A4 JUMP JUMPDEST PUSH2 0xD8B JUMP JUMPDEST PUSH1 0x40 MLOAD PUSH2 0x2D6 SWAP2 SWAP1 PUSH2 0x31D1 JUMP JUMPDEST PUSH1 0x40 MLOAD DUP1 SWAP2 SUB SWAP1 RETURN JUMPDEST PUSH2 0x2F9 PUSH1 0x4 DUP1 CALLDATASIZE SUB DUP2 ADD SWAP1 PUSH2 0x2F4 SWAP2 SWAP1 PUSH2 0x324A JUMP JUMPDEST PUSH2 0xE95 JUMP JUMPDEST STOP JUMPDEST PUSH2 0x315 PUSH1 0x4 DUP1 CALLDATASIZE SUB DUP2 ADD SWAP1 PUSH2 0x310 SWAP2 SWAP1 PUSH2 0x2B38 JUMP JUMPDEST PUSH2 0xF48 JUMP JUMPDEST STOP JUMPDEST PUSH2 0x31F PUSH2 0x106A JUMP JUMPDEST STOP JUMPDEST PUSH2 0x329 PUSH2 0x107D JUMP JUMPDEST PUSH1 0x40 MLOAD PUSH2 0x336 SWAP2 SWAP1 PUSH2 0x31D1 JUMP JUMPDEST PUSH1 0x40 MLOAD DUP1 SWAP2 SUB SWAP1 RETURN JUMPDEST PUSH2 0x347 PUSH2 0x108E JUMP JUMPDEST PUSH1 0x40 MLOAD PUSH2 0x354 SWAP2 SWAP1 PUSH2 0x29B1 JUMP JUMPDEST PUSH1 0x40 MLOAD DUP1 SWAP2 SUB SWAP1 RETURN JUMPDEST PUSH2 0x365 PUSH2 0x1093 JUMP JUMPDEST PUSH1 0x40 MLOAD PUSH2 0x372 SWAP2 SWAP1 PUSH2 0x32DD JUMP JUMPDEST PUSH1 0x40 MLOAD DUP1 SWAP2 SUB SWAP1 RETURN JUMPDEST PUSH2 0x395 PUSH1 0x4 DUP1 CALLDATASIZE SUB DUP2 ADD SWAP1 PUSH2 0x390 SWAP2 SWAP1 PUSH2 0x334B JUMP JUMPDEST PUSH2 0x10BB JUMP JUMPDEST STOP JUMPDEST PUSH2 0x3B1 PUSH1 0x4 DUP1 CALLDATASIZE SUB DUP2 ADD SWAP1 PUSH2 0x3AC SWAP2 SWAP1 PUSH2 0x3402 JUMP JUMPDEST PUSH2 0x1191 JUMP JUMPDEST STOP JUMPDEST PUSH2 0x3CD PUSH1 0x4 DUP1 CALLDATASIZE SUB DUP2 ADD SWAP1 PUSH2 0x3C8 SWAP2 SWAP1 PUSH2 0x347C JUMP JUMPDEST PUSH2 0x13B8 JUMP JUMPDEST STOP JUMPDEST PUSH2 0x3E9 PUSH1 0x4 DUP1 CALLDATASIZE SUB DUP2 ADD SWAP1 PUSH2 0x3E4 SWAP2 SWAP1 PUSH2 0x2FA6 JUMP JUMPDEST PUSH2 0x13CE JUMP JUMPDEST PUSH1 0x40 MLOAD PUSH2 0x3F6 SWAP2 SWAP1 PUSH2 0x32DD JUMP JUMPDEST PUSH1 0x40 MLOAD DUP1 SWAP2 SUB SWAP1 RETURN JUMPDEST PUSH2 0x407 PUSH2 0x140B JUMP JUMPDEST PUSH1 0x40 MLOAD PUSH2 0x414 SWAP2 SWAP1 PUSH2 0x29B1 JUMP JUMPDEST PUSH1 0x40 MLOAD DUP1 SWAP2 SUB SWAP1 RETURN JUMPDEST PUSH2 0x437 PUSH1 0x4 DUP1 CALLDATASIZE SUB DUP2 ADD SWAP1 PUSH2 0x432 SWAP2 SWAP1 PUSH2 0x2A7D JUMP JUMPDEST PUSH2 0x1410 JUMP JUMPDEST PUSH1 0x40 MLOAD PUSH2 0x444 SWAP2 SWAP1 PUSH2 0x34C9 JUMP JUMPDEST PUSH1 0x40 MLOAD DUP1 SWAP2 SUB SWAP1 RETURN JUMPDEST PUSH2 0x467 PUSH1 0x4 DUP1 CALLDATASIZE SUB DUP2 ADD SWAP1 PUSH2 0x462 SWAP2 SWAP1 PUSH2 0x2A7D JUMP JUMPDEST PUSH2 0x144B JUMP JUMPDEST PUSH1 0x40 MLOAD PUSH2 0x474 SWAP2 SWAP1 PUSH2 0x2B18 JUMP JUMPDEST PUSH1 0x40 MLOAD DUP1 SWAP2 SUB SWAP1 RETURN JUMPDEST PUSH2 0x497 PUSH1 0x4 DUP1 CALLDATASIZE SUB DUP2 ADD SWAP1 PUSH2 0x492 SWAP2 SWAP1 PUSH2 0x34E2 JUMP JUMPDEST PUSH2 0x14E6 JUMP JUMPDEST PUSH1 0x40 MLOAD PUSH2 0x4A4 SWAP2 SWAP1 PUSH2 0x2A64 JUMP JUMPDEST PUSH1 0x40 MLOAD DUP1 SWAP2 SUB SWAP1 RETURN JUMPDEST PUSH2 0x4C7 PUSH1 0x4 DUP1 CALLDATASIZE SUB DUP2 ADD SWAP1 PUSH2 0x4C2 SWAP2 SWAP1 PUSH2 0x3520 JUMP JUMPDEST PUSH2 0x1574 JUMP JUMPDEST STOP JUMPDEST PUSH2 0x4E3 PUSH1 0x4 DUP1 CALLDATASIZE SUB DUP2 ADD SWAP1 PUSH2 0x4DE SWAP2 SWAP1 PUSH2 0x2B38 JUMP JUMPDEST PUSH2 0x1591 JUMP JUMPDEST STOP JUMPDEST PUSH2 0x4FF PUSH1 0x4 DUP1 CALLDATASIZE SUB DUP2 ADD SWAP1 PUSH2 0x4FA SWAP2 SWAP1 PUSH2 0x35B3 JUMP JUMPDEST PUSH2 0x1615 JUMP JUMPDEST STOP JUMPDEST PUSH0 PUSH0 PUSH0 DUP4 DUP2 MSTORE PUSH1 0x20 ADD SWAP1 DUP2 MSTORE PUSH1 0x20 ADD PUSH0 KECCAK256 PUSH0 DUP5 PUSH20 0xFFFFFFFFFFFFFFFFFFFFFFFFFFFFFFFFFFFFFFFF AND PUSH20 0xFFFFFFFFFFFFFFFFFFFFFFFFFFFFFFFFFFFFFFFF AND DUP2 MSTORE PUSH1 0x20 ADD SWAP1 DUP2 MSTORE PUSH1 0x20 ADD PUSH0 KECCAK256 SLOAD SWAP1 POP SWAP3 SWAP2 POP POP JUMP JUMPDEST PUSH0 PUSH32 0xD9B67A2600000000000000000000000000000000000000000000000000000000 PUSH28 0xFFFFFFFFFFFFFFFFFFFFFFFFFFFFFFFFFFFFFFFFFFFFFFFFFFFFFFFF NOT AND DUP3 PUSH28 0xFFFFFFFFFFFFFFFFFFFFFFFFFFFFFFFFFFFFFFFFFFFFFFFFFFFFFFFF NOT AND EQ DUP1 PUSH2 0x620 JUMPI POP PUSH32 0xE89341C00000000000000000000000000000000000000000000000000000000 PUSH28 0xFFFFFFFFFFFFFFFFFFFFFFFFFFFFFFFFFFFFFFFFFFFFFFFFFFFFFFFF NOT AND DUP3 PUSH28 0xFFFFFFFFFFFFFFFFFFFFFFFFFFFFFFFFFFFFFFFFFFFFFFFFFFFFFFFF NOT AND EQ JUMPDEST DUP1 PUSH2 0x630 JUMPI POP PUSH2 0x62F DUP3 PUSH2 0x162D JUMP JUMPDEST JUMPDEST SWAP1 POP SWAP2 SWAP1 POP JUMP JUMPDEST PUSH1 0x60 PUSH1 0x2 DUP1 SLOAD PUSH2 0x646 SWAP1 PUSH2 0x3630 JUMP JUMPDEST DUP1 PUSH1 0x1F ADD PUSH1 0x20 DUP1 SWAP2 DIV MUL PUSH1 0x20 ADD PUSH1 0x40 MLOAD SWAP1 DUP2 ADD PUSH1 0x40 MSTORE DUP1 SWAP3 SWAP2 SWAP1 DUP2 DUP2 MSTORE PUSH1 0x20 ADD DUP3 DUP1 SLOAD PUSH2 0x672 SWAP1 PUSH2 0x3630 JUMP JUMPDEST DUP1 ISZERO PUSH2 0x6BD JUMPI DUP1 PUSH1 0x1F LT PUSH2 0x694 JUMPI PUSH2 0x100 DUP1 DUP4 SLOAD DIV MUL DUP4 MSTORE SWAP2 PUSH1 0x20 ADD SWAP2 PUSH2 0x6BD JUMP JUMPDEST DUP3 ADD SWAP2 SWAP1 PUSH0 MSTORE PUSH1 0x20 PUSH0 KECCAK256 SWAP1 JUMPDEST DUP2 SLOAD DUP2 MSTORE SWAP1 PUSH1 0x1 ADD SWAP1 PUSH1 0x20 ADD DUP1 DUP4 GT PUSH2 0x6A0 JUMPI DUP3 SWAP1 SUB PUSH1 0x1F AND DUP3 ADD SWAP2 JUMPDEST POP POP POP POP POP SWAP1 POP SWAP2 SWAP1 POP JUMP JUMPDEST PUSH2 0x6D1 PUSH2 0x1696 JUMP JUMPDEST PUSH0 PUSH1 0x4 DUP1 SLOAD SWAP1 POP SWAP1 POP PUSH0 PUSH0 SWAP1 POP JUMPDEST DUP2 DUP2 LT ISZERO PUSH2 0x84E JUMPI DUP3 PUSH20 0xFFFFFFFFFFFFFFFFFFFFFFFFFFFFFFFFFFFFFFFF AND PUSH1 0x4 DUP3 DUP2 SLOAD DUP2 LT PUSH2 0x712 JUMPI PUSH2 0x711 PUSH2 0x3660 JUMP JUMPDEST JUMPDEST SWAP1 PUSH0 MSTORE PUSH1 0x20 PUSH0 KECCAK256 ADD PUSH0 SWAP1 SLOAD SWAP1 PUSH2 0x100 EXP SWAP1 DIV PUSH20 0xFFFFFFFFFFFFFFFFFFFFFFFFFFFFFFFFFFFFFFFF AND PUSH20 0xFFFFFFFFFFFFFFFFFFFFFFFFFFFFFFFFFFFFFFFF AND SUB PUSH2 0x841 JUMPI PUSH1 0x4 PUSH1 0x1 DUP4 PUSH2 0x764 SWAP2 SWAP1 PUSH2 0x36BA JUMP JUMPDEST DUP2 SLOAD DUP2 LT PUSH2 0x775 JUMPI PUSH2 0x774 PUSH2 0x3660 JUMP JUMPDEST JUMPDEST SWAP1 PUSH0 MSTORE PUSH1 0x20 PUSH0 KECCAK256 ADD PUSH0 SWAP1 SLOAD SWAP1 PUSH2 0x100 EXP SWAP1 DIV PUSH20 0xFFFFFFFFFFFFFFFFFFFFFFFFFFFFFFFFFFFFFFFF AND PUSH1 0x4 DUP3 DUP2 SLOAD DUP2 LT PUSH2 0x7B1 JUMPI PUSH2 0x7B0 PUSH2 0x3660 JUMP JUMPDEST JUMPDEST SWAP1 PUSH0 MSTORE PUSH1 0x20 PUSH0 KECCAK256 ADD PUSH0 PUSH2 0x100 EXP DUP2 SLOAD DUP2 PUSH20 0xFFFFFFFFFFFFFFFFFFFFFFFFFFFFFFFFFFFFFFFF MUL NOT AND SWAP1 DUP4 PUSH20 0xFFFFFFFFFFFFFFFFFFFFFFFFFFFFFFFFFFFFFFFF AND MUL OR SWAP1 SSTORE POP PUSH1 0x4 DUP1 SLOAD DUP1 PUSH2 0x808 JUMPI PUSH2 0x807 PUSH2 0x36ED JUMP JUMPDEST JUMPDEST PUSH1 0x1 SWAP1 SUB DUP2 DUP2 SWAP1 PUSH0 MSTORE PUSH1 0x20 PUSH0 KECCAK256 ADD PUSH0 PUSH2 0x100 EXP DUP2 SLOAD SWAP1 PUSH20 0xFFFFFFFFFFFFFFFFFFFFFFFFFFFFFFFFFFFFFFFF MUL NOT AND SWAP1 SSTORE SWAP1 SSTORE POP POP PUSH2 0x88A JUMP JUMPDEST DUP1 DUP1 PUSH1 0x1 ADD SWAP2 POP POP PUSH2 0x6DF JUMP JUMPDEST POP PUSH1 0x40 MLOAD PUSH32 0x8C379A000000000000000000000000000000000000000000000000000000000 DUP2 MSTORE PUSH1 0x4 ADD PUSH2 0x881 SWAP1 PUSH2 0x3764 JUMP JUMPDEST PUSH1 0x40 MLOAD DUP1 SWAP2 SUB SWAP1 REVERT JUMPDEST POP JUMP JUMPDEST PUSH1 0xA PUSH0 SWAP1 SLOAD SWAP1 PUSH2 0x100 EXP SWAP1 DIV PUSH20 0xFFFFFFFFFFFFFFFFFFFFFFFFFFFFFFFFFFFFFFFF AND DUP2 JUMP JUMPDEST DUP2 MLOAD DUP4 MLOAD EQ PUSH2 0x8F6 JUMPI PUSH1 0x40 MLOAD PUSH32 0x8C379A000000000000000000000000000000000000000000000000000000000 DUP2 MSTORE PUSH1 0x4 ADD PUSH2 0x8ED SWAP1 PUSH2 0x37F2 JUMP JUMPDEST PUSH1 0x40 MLOAD DUP1 SWAP2 SUB SWAP1 REVERT JUMPDEST PUSH0 PUSH20 0xFFFFFFFFFFFFFFFFFFFFFFFFFFFFFFFFFFFFFFFF AND DUP5 PUSH20 0xFFFFFFFFFFFFFFFFFFFFFFFFFFFFFFFFFFFFFFFF AND SUB PUSH2 0x964 JUMPI PUSH1 0x40 MLOAD PUSH32 0x8C379A000000000000000000000000000000000000000000000000000000000 DUP2 MSTORE PUSH1 0x4 ADD PUSH2 0x95B SWAP1 PUSH2 0x3880 JUMP JUMPDEST PUSH1 0x40 MLOAD DUP1 SWAP2 SUB SWAP1 REVERT JUMPDEST PUSH0 PUSH0 SWAP1 POP JUMPDEST DUP4 MLOAD DUP2 LT ISZERO PUSH2 0x9E1 JUMPI PUSH2 0x995 DUP5 DUP3 DUP2 MLOAD DUP2 LT PUSH2 0x988 JUMPI PUSH2 0x987 PUSH2 0x3660 JUMP JUMPDEST JUMPDEST PUSH1 0x20 MUL PUSH1 0x20 ADD ADD MLOAD PUSH2 0x171D JUMP JUMPDEST PUSH2 0x9D6 DUP7 DUP7 DUP7 DUP5 DUP2 MLOAD DUP2 LT PUSH2 0x9AD JUMPI PUSH2 0x9AC PUSH2 0x3660 JUMP JUMPDEST JUMPDEST PUSH1 0x20 MUL PUSH1 0x20 ADD ADD MLOAD DUP7 DUP6 DUP2 MLOAD DUP2 LT PUSH2 0x9C8 JUMPI PUSH2 0x9C7 PUSH2 0x3660 JUMP JUMPDEST JUMPDEST PUSH1 0x20 MUL PUSH1 0x20 ADD ADD MLOAD DUP7 PUSH2 0x1574 JUMP JUMPDEST DUP1 PUSH1 0x1 ADD SWAP1 POP PUSH2 0x969 JUMP JUMPDEST POP POP POP POP POP POP JUMP JUMPDEST PUSH1 0x60 PUSH2 0x9F3 PUSH2 0x1696 JUMP JUMPDEST PUSH1 0x4 DUP1 SLOAD DUP1 PUSH1 0x20 MUL PUSH1 0x20 ADD PUSH1 0x40 MLOAD SWAP1 DUP2 ADD PUSH1 0x40 MSTORE DUP1 SWAP3 SWAP2 SWAP1 DUP2 DUP2 MSTORE PUSH1 0x20 ADD DUP3 DUP1 SLOAD DUP1 ISZERO PUSH2 0xA72 JUMPI PUSH1 0x20 MUL DUP3 ADD SWAP2 SWAP1 PUSH0 MSTORE PUSH1 0x20 PUSH0 KECCAK256 SWAP1 JUMPDEST DUP2 PUSH0 SWAP1 SLOAD SWAP1 PUSH2 0x100 EXP SWAP1 DIV PUSH20 0xFFFFFFFFFFFFFFFFFFFFFFFFFFFFFFFFFFFFFFFF AND PUSH20 0xFFFFFFFFFFFFFFFFFFFFFFFFFFFFFFFFFFFFFFFF AND DUP2 MSTORE PUSH1 0x20 ADD SWAP1 PUSH1 0x1 ADD SWAP1 DUP1 DUP4 GT PUSH2 0xA29 JUMPI JUMPDEST POP POP POP POP POP SWAP1 POP SWAP1 JUMP JUMPDEST PUSH2 0xA85 CALLER PUSH2 0x19ED JUMP JUMPDEST PUSH2 0xAC4 JUMPI PUSH1 0x40 MLOAD PUSH32 0x8C379A000000000000000000000000000000000000000000000000000000000 DUP2 MSTORE PUSH1 0x4 ADD PUSH2 0xABB SWAP1 PUSH2 0x38E8 JUMP JUMPDEST PUSH1 0x40 MLOAD DUP1 SWAP2 SUB SWAP1 REVERT JUMPDEST PUSH2 0xAD8 DUP3 PUSH1 0x5 PUSH2 0x1A8F SWAP1 SWAP2 SWAP1 PUSH4 0xFFFFFFFF AND JUMP JUMPDEST PUSH2 0xB17 JUMPI PUSH1 0x40 MLOAD PUSH32 0x8C379A000000000000000000000000000000000000000000000000000000000 DUP2 MSTORE PUSH1 0x4 ADD PUSH2 0xB0E SWAP1 PUSH2 0x3950 JUMP JUMPDEST PUSH1 0x40 MLOAD DUP1 SWAP2 SUB SWAP1 REVERT JUMPDEST PUSH0 PUSH20 0xFFFFFFFFFFFFFFFFFFFFFFFFFFFFFFFFFFFFFFFF AND PUSH1 0x8 PUSH0 DUP5 DUP2 MSTORE PUSH1 0x20 ADD SWAP1 DUP2 MSTORE PUSH1 0x20 ADD PUSH0 KECCAK256 PUSH0 DUP4 PUSH8 0xFFFFFFFFFFFFFFFF AND PUSH8 0xFFFFFFFFFFFFFFFF AND DUP2 MSTORE PUSH1 0x20 ADD SWAP1 DUP2 MSTORE PUSH1 0x20 ADD PUSH0 KECCAK256 PUSH0 SWAP1 SLOAD SWAP1 PUSH2 0x100 EXP SWAP1 DIV PUSH20 0xFFFFFFFFFFFFFFFFFFFFFFFFFFFFFFFFFFFFFFFF AND PUSH20 0xFFFFFFFFFFFFFFFFFFFFFFFFFFFFFFFFFFFFFFFF AND SUB PUSH2 0xBD8 JUMPI PUSH1 0x40 MLOAD PUSH32 0x8C379A000000000000000000000000000000000000000000000000000000000 DUP2 MSTORE PUSH1 0x4 ADD PUSH2 0xBCF SWAP1 PUSH2 0x39B8 JUMP JUMPDEST PUSH1 0x40 MLOAD DUP1 SWAP2 SUB SWAP1 REVERT JUMPDEST PUSH1 0x8 PUSH0 DUP4 DUP2 MSTORE PUSH1 0x20 ADD SWAP1 DUP2 MSTORE PUSH1 0x20 ADD PUSH0 KECCAK256 PUSH0 DUP3 PUSH8 0xFFFFFFFFFFFFFFFF AND PUSH8 0xFFFFFFFFFFFFFFFF AND DUP2 MSTORE PUSH1 0x20 ADD SWAP1 DUP2 MSTORE PUSH1 0x20 ADD PUSH0 KECCAK256 PUSH0 PUSH2 0x100 EXP DUP2 SLOAD SWAP1 PUSH20 0xFFFFFFFFFFFFFFFFFFFFFFFFFFFFFFFFFFFFFFFF MUL NOT AND SWAP1 SSTORE PUSH0 PUSH0 SWAP1 POP JUMPDEST PUSH1 0x9 DUP1 SLOAD SWAP1 POP DUP2 LT ISZERO PUSH2 0xD86 JUMPI DUP2 PUSH8 0xFFFFFFFFFFFFFFFF AND PUSH1 0x9 DUP3 DUP2 SLOAD DUP2 LT PUSH2 0xC5F JUMPI PUSH2 0xC5E PUSH2 0x3660 JUMP JUMPDEST JUMPDEST SWAP1 PUSH0 MSTORE PUSH1 0x20 PUSH0 KECCAK256 SWAP1 PUSH1 0x4 SWAP2 DUP3 DUP3 DIV ADD SWAP2 SWAP1 MOD PUSH1 0x8 MUL SWAP1 SLOAD SWAP1 PUSH2 0x100 EXP SWAP1 DIV PUSH8 0xFFFFFFFFFFFFFFFF AND PUSH8 0xFFFFFFFFFFFFFFFF AND SUB PUSH2 0xD79 JUMPI PUSH1 0x9 PUSH1 0x1 PUSH1 0x9 DUP1 SLOAD SWAP1 POP PUSH2 0xCAA SWAP2 SWAP1 PUSH2 0x36BA JUMP JUMPDEST DUP2 SLOAD DUP2 LT PUSH2 0xCBB JUMPI PUSH2 0xCBA PUSH2 0x3660 JUMP JUMPDEST JUMPDEST SWAP1 PUSH0 MSTORE PUSH1 0x20 PUSH0 KECCAK256 SWAP1 PUSH1 0x4 SWAP2 DUP3 DUP3 DIV ADD SWAP2 SWAP1 MOD PUSH1 0x8 MUL SWAP1 SLOAD SWAP1 PUSH2 0x100 EXP SWAP1 DIV PUSH8 0xFFFFFFFFFFFFFFFF AND PUSH1 0x9 DUP3 DUP2 SLOAD DUP2 LT PUSH2 0xCF7 JUMPI PUSH2 0xCF6 PUSH2 0x3660 JUMP JUMPDEST JUMPDEST SWAP1 PUSH0 MSTORE PUSH1 0x20 PUSH0 KECCAK256 SWAP1 PUSH1 0x4 SWAP2 DUP3 DUP3 DIV ADD SWAP2 SWAP1 MOD PUSH1 0x8 MUL PUSH2 0x100 EXP DUP2 SLOAD DUP2 PUSH8 0xFFFFFFFFFFFFFFFF MUL NOT AND SWAP1 DUP4 PUSH8 0xFFFFFFFFFFFFFFFF AND MUL OR SWAP1 SSTORE POP PUSH1 0x9 DUP1 SLOAD DUP1 PUSH2 0xD42 JUMPI PUSH2 0xD41 PUSH2 0x36ED JUMP JUMPDEST JUMPDEST PUSH1 0x1 SWAP1 SUB DUP2 DUP2 SWAP1 PUSH0 MSTORE PUSH1 0x20 PUSH0 KECCAK256 SWAP1 PUSH1 0x4 SWAP2 DUP3 DUP3 DIV ADD SWAP2 SWAP1 MOD PUSH1 0x8 MUL PUSH2 0x100 EXP DUP2 SLOAD SWAP1 PUSH8 0xFFFFFFFFFFFFFFFF MUL NOT AND SWAP1 SSTORE SWAP1 SSTORE PUSH2 0xD86 JUMP JUMPDEST DUP1 DUP1 PUSH1 0x1 ADD SWAP2 POP POP PUSH2 0xC33 JUMP JUMPDEST POP POP POP JUMP JUMPDEST PUSH1 0x60 DUP2 MLOAD DUP4 MLOAD EQ PUSH2 0xDD7 JUMPI DUP2 MLOAD DUP4 MLOAD PUSH1 0x40 MLOAD PUSH32 0x5B05999100000000000000000000000000000000000000000000000000000000 DUP2 MSTORE PUSH1 0x4 ADD PUSH2 0xDCE SWAP3 SWAP2 SWAP1 PUSH2 0x39D6 JUMP JUMPDEST PUSH1 0x40 MLOAD DUP1 SWAP2 SUB SWAP1 REVERT JUMPDEST PUSH0 DUP4 MLOAD PUSH8 0xFFFFFFFFFFFFFFFF DUP2 GT ISZERO PUSH2 0xDF3 JUMPI PUSH2 0xDF2 PUSH2 0x2BDB JUMP JUMPDEST JUMPDEST PUSH1 0x40 MLOAD SWAP1 DUP1 DUP3 MSTORE DUP1 PUSH1 0x20 MUL PUSH1 0x20 ADD DUP3 ADD PUSH1 0x40 MSTORE DUP1 ISZERO PUSH2 0xE21 JUMPI DUP2 PUSH1 0x20 ADD PUSH1 0x20 DUP3 MUL DUP1 CALLDATASIZE DUP4 CALLDATACOPY DUP1 DUP3 ADD SWAP2 POP POP SWAP1 POP JUMPDEST POP SWAP1 POP PUSH0 PUSH0 SWAP1 POP JUMPDEST DUP5 MLOAD DUP2 LT ISZERO PUSH2 0xE8A JUMPI PUSH2 0xE60 PUSH2 0xE48 DUP3 DUP8 PUSH2 0x1AA6 SWAP1 SWAP2 SWAP1 PUSH4 0xFFFFFFFF AND JUMP JUMPDEST PUSH2 0xE5B DUP4 DUP8 PUSH2 0x1AB9 SWAP1 SWAP2 SWAP1 PUSH4 0xFFFFFFFF AND JUMP JUMPDEST PUSH2 0x501 JUMP JUMPDEST DUP3 DUP3 DUP2 MLOAD DUP2 LT PUSH2 0xE73 JUMPI PUSH2 0xE72 PUSH2 0x3660 JUMP JUMPDEST JUMPDEST PUSH1 0x20 MUL PUSH1 0x20 ADD ADD DUP2 DUP2 MSTORE POP POP DUP1 PUSH1 0x1 ADD SWAP1 POP PUSH2 0xE29 JUMP JUMPDEST POP DUP1 SWAP2 POP POP SWAP3 SWAP2 POP POP JUMP JUMPDEST PUSH2 0xE9D PUSH2 0x1696 JUMP JUMPDEST PUSH2 0xEB1 DUP5 PUSH1 0x5 PUSH2 0x1A8F SWAP1 SWAP2 SWAP1 PUSH4 0xFFFFFFFF AND JUMP JUMPDEST PUSH2 0xEF2 JUMPI DUP4 PUSH1 0x40 MLOAD PUSH32 0xD60B1C2400000000000000000000000000000000000000000000000000000000 DUP2 MSTORE PUSH1 0x4 ADD PUSH2 0xEE9 SWAP2 SWAP1 PUSH2 0x29B1 JUMP JUMPDEST PUSH1 0x40 MLOAD DUP1 SWAP2 SUB SWAP1 REVERT JUMPDEST PUSH2 0xF41 DUP6 DUP6 DUP6 DUP6 DUP6 DUP1 DUP1 PUSH1 0x1F ADD PUSH1 0x20 DUP1 SWAP2 DIV MUL PUSH1 0x20 ADD PUSH1 0x40 MLOAD SWAP1 DUP2 ADD PUSH1 0x40 MSTORE DUP1 SWAP4 SWAP3 SWAP2 SWAP1 DUP2 DUP2 MSTORE PUSH1 0x20 ADD DUP4 DUP4 DUP1 DUP3 DUP5 CALLDATACOPY PUSH0 DUP2 DUP5 ADD MSTORE PUSH1 0x1F NOT PUSH1 0x1F DUP3 ADD AND SWAP1 POP DUP1 DUP4 ADD SWAP3 POP POP POP POP POP POP POP PUSH2 0x1ACC JUMP JUMPDEST POP POP POP POP POP JUMP JUMPDEST PUSH2 0xF50 PUSH2 0x1696 JUMP JUMPDEST PUSH0 PUSH20 0xFFFFFFFFFFFFFFFFFFFFFFFFFFFFFFFFFFFFFFFF AND DUP2 PUSH20 0xFFFFFFFFFFFFFFFFFFFFFFFFFFFFFFFFFFFFFFFF AND SUB PUSH2 0xFBE JUMPI PUSH1 0x40 MLOAD PUSH32 0x8C379A000000000000000000000000000000000000000000000000000000000 DUP2 MSTORE PUSH1 0x4 ADD PUSH2 0xFB5 SWAP1 PUSH2 0x3A47 JUMP JUMPDEST PUSH1 0x40 MLOAD DUP1 SWAP2 SUB SWAP1 REVERT JUMPDEST PUSH2 0xFC7 DUP2 PUSH2 0x19ED JUMP JUMPDEST ISZERO PUSH2 0x1007 JUMPI PUSH1 0x40 MLOAD PUSH32 0x8C379A000000000000000000000000000000000000000000000000000000000 DUP2 MSTORE PUSH1 0x4 ADD PUSH2 0xFFE SWAP1 PUSH2 0x3AAF JUMP JUMPDEST PUSH1 0x40 MLOAD DUP1 SWAP2 SUB SWAP1 REVERT JUMPDEST PUSH1 0x4 DUP2 SWAP1 DUP1 PUSH1 0x1 DUP2 SLOAD ADD DUP1 DUP3 SSTORE DUP1 SWAP2 POP POP PUSH1 0x1 SWAP1 SUB SWAP1 PUSH0 MSTORE PUSH1 0x20 PUSH0 KECCAK256 ADD PUSH0 SWAP1 SWAP2 SWAP1 SWAP2 SWAP1 SWAP2 PUSH2 0x100 EXP DUP2 SLOAD DUP2 PUSH20 0xFFFFFFFFFFFFFFFFFFFFFFFFFFFFFFFFFFFFFFFF MUL NOT AND SWAP1 DUP4 PUSH20 0xFFFFFFFFFFFFFFFFFFFFFFFFFFFFFFFFFFFFFFFF AND MUL OR SWAP1 SSTORE POP POP JUMP JUMPDEST PUSH2 0x1072 PUSH2 0x1696 JUMP JUMPDEST PUSH2 0x107B PUSH0 PUSH2 0x1B61 JUMP JUMPDEST JUMP JUMPDEST PUSH1 0x60 PUSH2 0x1089 PUSH1 0x5 PUSH2 0x1C24 JUMP JUMPDEST SWAP1 POP SWAP1 JUMP JUMPDEST PUSH1 0x1 DUP2 JUMP JUMPDEST PUSH0 PUSH1 0x3 PUSH0 SWAP1 SLOAD SWAP1 PUSH2 0x100 EXP SWAP1 DIV PUSH20 0xFFFFFFFFFFFFFFFFFFFFFFFFFFFFFFFFFFFFFFFF AND SWAP1 POP SWAP1 JUMP JUMPDEST PUSH2 0x10C3 PUSH2 0x1696 JUMP JUMPDEST PUSH2 0x10D7 DUP7 PUSH1 0x5 PUSH2 0x1C43 SWAP1 SWAP2 SWAP1 PUSH4 0xFFFFFFFF AND JUMP JUMPDEST PUSH2 0x1118 JUMPI DUP6 PUSH1 0x40 MLOAD PUSH32 0x453D47F500000000000000000000000000000000000000000000000000000000 DUP2 MSTORE PUSH1 0x4 ADD PUSH2 0x110F SWAP2 SWAP1 PUSH2 0x29B1 JUMP JUMPDEST PUSH1 0x40 MLOAD DUP1 SWAP2 SUB SWAP1 REVERT JUMPDEST PUSH2 0x1167 DUP8 DUP8 DUP8 DUP8 DUP8 DUP1 DUP1 PUSH1 0x1F ADD PUSH1 0x20 DUP1 SWAP2 DIV MUL PUSH1 0x20 ADD PUSH1 0x40 MLOAD SWAP1 DUP2 ADD PUSH1 0x40 MSTORE DUP1 SWAP4 SWAP3 SWAP2 SWAP1 DUP2 DUP2 MSTORE PUSH1 0x20 ADD DUP4 DUP4 DUP1 DUP3 DUP5 CALLDATACOPY PUSH0 DUP2 DUP5 ADD MSTORE PUSH1 0x1F NOT PUSH1 0x1F DUP3 ADD AND SWAP1 POP DUP1 DUP4 ADD SWAP3 POP POP POP POP POP POP POP PUSH2 0x1ACC JUMP JUMPDEST DUP2 DUP2 PUSH1 0x7 PUSH0 DUP10 DUP2 MSTORE PUSH1 0x20 ADD SWAP1 DUP2 MSTORE PUSH1 0x20 ADD PUSH0 KECCAK256 SWAP2 DUP3 PUSH2 0x1187 SWAP3 SWAP2 SWAP1 PUSH2 0x3C6E JUMP JUMPDEST POP POP POP POP POP POP POP POP JUMP JUMPDEST PUSH2 0x119A CALLER PUSH2 0x19ED JUMP JUMPDEST PUSH2 0x11D9 JUMPI PUSH1 0x40 MLOAD PUSH32 0x8C379A000000000000000000000000000000000000000000000000000000000 DUP2 MSTORE PUSH1 0x4 ADD PUSH2 0x11D0 SWAP1 PUSH2 0x38E8 JUMP JUMPDEST PUSH1 0x40 MLOAD DUP1 SWAP2 SUB SWAP1 REVERT JUMPDEST PUSH2 0x11ED DUP4 PUSH1 0x5 PUSH2 0x1A8F SWAP1 SWAP2 SWAP1 PUSH4 0xFFFFFFFF AND JUMP JUMPDEST PUSH2 0x122C JUMPI PUSH1 0x40 MLOAD PUSH32 0x8C379A000000000000000000000000000000000000000000000000000000000 DUP2 MSTORE PUSH1 0x4 ADD PUSH2 0x1223 SWAP1 PUSH2 0x3950 JUMP JUMPDEST PUSH1 0x40 MLOAD DUP1 SWAP2 SUB SWAP1 REVERT JUMPDEST PUSH0 PUSH20 0xFFFFFFFFFFFFFFFFFFFFFFFFFFFFFFFFFFFFFFFF AND PUSH1 0x8 PUSH0 DUP6 DUP2 MSTORE PUSH1 0x20 ADD SWAP1 DUP2 MSTORE PUSH1 0x20 ADD PUSH0 KECCAK256 PUSH0 DUP5 PUSH8 0xFFFFFFFFFFFFFFFF AND PUSH8 0xFFFFFFFFFFFFFFFF AND DUP2 MSTORE PUSH1 0x20 ADD SWAP1 DUP2 MSTORE PUSH1 0x20 ADD PUSH0 KECCAK256 PUSH0 SWAP1 SLOAD SWAP1 PUSH2 0x100 EXP SWAP1 DIV PUSH20 0xFFFFFFFFFFFFFFFFFFFFFFFFFFFFFFFFFFFFFFFF AND PUSH20 0xFFFFFFFFFFFFFFFFFFFFFFFFFFFFFFFFFFFFFFFF AND EQ PUSH2 0x12ED JUMPI PUSH1 0x40 MLOAD PUSH32 0x8C379A000000000000000000000000000000000000000000000000000000000 DUP2 MSTORE PUSH1 0x4 ADD PUSH2 0x12E4 SWAP1 PUSH2 0x3D85 JUMP JUMPDEST PUSH1 0x40 MLOAD DUP1 SWAP2 SUB SWAP1 REVERT JUMPDEST DUP1 PUSH1 0x8 PUSH0 DUP6 DUP2 MSTORE PUSH1 0x20 ADD SWAP1 DUP2 MSTORE PUSH1 0x20 ADD PUSH0 KECCAK256 PUSH0 DUP5 PUSH8 0xFFFFFFFFFFFFFFFF AND PUSH8 0xFFFFFFFFFFFFFFFF AND DUP2 MSTORE PUSH1 0x20 ADD SWAP1 DUP2 MSTORE PUSH1 0x20 ADD PUSH0 KECCAK256 PUSH0 PUSH2 0x100 EXP DUP2 SLOAD DUP2 PUSH20 0xFFFFFFFFFFFFFFFFFFFFFFFFFFFFFFFFFFFFFFFF MUL NOT AND SWAP1 DUP4 PUSH20 0xFFFFFFFFFFFFFFFFFFFFFFFFFFFFFFFFFFFFFFFF AND MUL OR SWAP1 SSTORE POP PUSH1 0x9 DUP3 SWAP1 DUP1 PUSH1 0x1 DUP2 SLOAD ADD DUP1 DUP3 SSTORE DUP1 SWAP2 POP POP PUSH1 0x1 SWAP1 SUB SWAP1 PUSH0 MSTORE PUSH1 0x20 PUSH0 KECCAK256 SWAP1 PUSH1 0x4 SWAP2 DUP3 DUP3 DIV ADD SWAP2 SWAP1 MOD PUSH1 0x8 MUL SWAP1 SWAP2 SWAP1 SWAP2 SWAP1 SWAP2 PUSH2 0x100 EXP DUP2 SLOAD DUP2 PUSH8 0xFFFFFFFFFFFFFFFF MUL NOT AND SWAP1 DUP4 PUSH8 0xFFFFFFFFFFFFFFFF AND MUL OR SWAP1 SSTORE POP POP POP POP JUMP JUMPDEST PUSH2 0x13CA PUSH2 0x13C3 PUSH2 0x1C5A JUMP JUMPDEST DUP4 DUP4 PUSH2 0x1C61 JUMP JUMPDEST POP POP JUMP JUMPDEST PUSH1 0x8 PUSH1 0x20 MSTORE DUP2 PUSH0 MSTORE PUSH1 0x40 PUSH0 KECCAK256 PUSH1 0x20 MSTORE DUP1 PUSH0 MSTORE PUSH1 0x40 PUSH0 KECCAK256 PUSH0 SWAP2 POP SWAP2 POP SWAP1 SLOAD SWAP1 PUSH2 0x100 EXP SWAP1 DIV PUSH20 0xFFFFFFFFFFFFFFFFFFFFFFFFFFFFFFFFFFFFFFFF AND DUP2 JUMP JUMPDEST PUSH1 0x2 DUP2 JUMP JUMPDEST PUSH1 0x9 DUP2 DUP2 SLOAD DUP2 LT PUSH2 0x141F JUMPI PUSH0 DUP1 REVERT JUMPDEST SWAP1 PUSH0 MSTORE PUSH1 0x20 PUSH0 KECCAK256 SWAP1 PUSH1 0x4 SWAP2 DUP3 DUP3 DIV ADD SWAP2 SWAP1 MOD PUSH1 0x8 MUL SWAP2 POP SLOAD SWAP1 PUSH2 0x100 EXP SWAP1 DIV PUSH8 0xFFFFFFFFFFFFFFFF AND DUP2 JUMP JUMPDEST PUSH1 0x7 PUSH1 0x20 MSTORE DUP1 PUSH0 MSTORE PUSH1 0x40 PUSH0 KECCAK256 PUSH0 SWAP2 POP SWAP1 POP DUP1 SLOAD PUSH2 0x1467 SWAP1 PUSH2 0x3630 JUMP JUMPDEST DUP1 PUSH1 0x1F ADD PUSH1 0x20 DUP1 SWAP2 DIV MUL PUSH1 0x20 ADD PUSH1 0x40 MLOAD SWAP1 DUP2 ADD PUSH1 0x40 MSTORE DUP1 SWAP3 SWAP2 SWAP1 DUP2 DUP2 MSTORE PUSH1 0x20 ADD DUP3 DUP1 SLOAD PUSH2 0x1493 SWAP1 PUSH2 0x3630 JUMP JUMPDEST DUP1 ISZERO PUSH2 0x14DE JUMPI DUP1 PUSH1 0x1F LT PUSH2 0x14B5 JUMPI PUSH2 0x100 DUP1 DUP4 SLOAD DIV MUL DUP4 MSTORE SWAP2 PUSH1 0x20 ADD SWAP2 PUSH2 0x14DE JUMP JUMPDEST DUP3 ADD SWAP2 SWAP1 PUSH0 MSTORE PUSH1 0x20 PUSH0 KECCAK256 SWAP1 JUMPDEST DUP2 SLOAD DUP2 MSTORE SWAP1 PUSH1 0x1 ADD SWAP1 PUSH1 0x20 ADD DUP1 DUP4 GT PUSH2 0x14C1 JUMPI DUP3 SWAP1 SUB PUSH1 0x1F AND DUP3 ADD SWAP2 JUMPDEST POP POP POP POP POP DUP2 JUMP JUMPDEST PUSH0 PUSH1 0x1 PUSH0 DUP5 PUSH20 0xFFFFFFFFFFFFFFFFFFFFFFFFFFFFFFFFFFFFFFFF AND PUSH20 0xFFFFFFFFFFFFFFFFFFFFFFFFFFFFFFFFFFFFFFFF AND DUP2 MSTORE PUSH1 0x20 ADD SWAP1 DUP2 MSTORE PUSH1 0x20 ADD PUSH0 KECCAK256 PUSH0 DUP4 PUSH20 0xFFFFFFFFFFFFFFFFFFFFFFFFFFFFFFFFFFFFFFFF AND PUSH20 0xFFFFFFFFFFFFFFFFFFFFFFFFFFFFFFFFFFFFFFFF AND DUP2 MSTORE PUSH1 0x20 ADD SWAP1 DUP2 MSTORE PUSH1 0x20 ADD PUSH0 KECCAK256 PUSH0 SWAP1 SLOAD SWAP1 PUSH2 0x100 EXP SWAP1 DIV PUSH1 0xFF AND SWAP1 POP SWAP3 SWAP2 POP POP JUMP JUMPDEST PUSH2 0x157D DUP4 PUSH2 0x171D JUMP JUMPDEST PUSH2 0x158A DUP6 DUP6 DUP6 DUP6 DUP6 PUSH2 0x1DCA JUMP JUMPDEST POP POP POP POP POP JUMP JUMPDEST PUSH2 0x1599 PUSH2 0x1696 JUMP JUMPDEST PUSH0 PUSH20 0xFFFFFFFFFFFFFFFFFFFFFFFFFFFFFFFFFFFFFFFF AND DUP2 PUSH20 0xFFFFFFFFFFFFFFFFFFFFFFFFFFFFFFFFFFFFFFFF AND SUB PUSH2 0x1609 JUMPI PUSH0 PUSH1 0x40 MLOAD PUSH32 0x1E4FBDF700000000000000000000000000000000000000000000000000000000 DUP2 MSTORE PUSH1 0x4 ADD PUSH2 0x1600 SWAP2 SWAP1 PUSH2 0x32DD JUMP JUMPDEST PUSH1 0x40 MLOAD DUP1 SWAP2 SUB SWAP1 REVERT JUMPDEST PUSH2 0x1612 DUP2 PUSH2 0x1B61 JUMP JUMPDEST POP JUMP JUMPDEST PUSH2 0x161D PUSH2 0x1696 JUMP JUMPDEST PUSH2 0x1628 DUP4 DUP4 DUP4 PUSH2 0x1E71 JUMP JUMPDEST POP POP POP JUMP JUMPDEST PUSH0 PUSH32 0x1FFC9A700000000000000000000000000000000000000000000000000000000 PUSH28 0xFFFFFFFFFFFFFFFFFFFFFFFFFFFFFFFFFFFFFFFFFFFFFFFFFFFFFFFF NOT AND DUP3 PUSH28 0xFFFFFFFFFFFFFFFFFFFFFFFFFFFFFFFFFFFFFFFFFFFFFFFFFFFFFFFF NOT AND EQ SWAP1 POP SWAP2 SWAP1 POP JUMP JUMPDEST PUSH2 0x169E PUSH2 0x1C5A JUMP JUMPDEST PUSH20 0xFFFFFFFFFFFFFFFFFFFFFFFFFFFFFFFFFFFFFFFF AND PUSH2 0x16BC PUSH2 0x1093 JUMP JUMPDEST PUSH20 0xFFFFFFFFFFFFFFFFFFFFFFFFFFFFFFFFFFFFFFFF AND EQ PUSH2 0x171B JUMPI PUSH2 0x16DF PUSH2 0x1C5A JUMP JUMPDEST PUSH1 0x40 MLOAD PUSH32 0x118CDAA700000000000000000000000000000000000000000000000000000000 DUP2 MSTORE PUSH1 0x4 ADD PUSH2 0x1712 SWAP2 SWAP1 PUSH2 0x32DD JUMP JUMPDEST PUSH1 0x40 MLOAD DUP1 SWAP2 SUB SWAP1 REVERT JUMPDEST JUMP JUMPDEST PUSH0 PUSH1 0x9 DUP1 SLOAD DUP1 PUSH1 0x20 MUL PUSH1 0x20 ADD PUSH1 0x40 MLOAD SWAP1 DUP2 ADD PUSH1 0x40 MSTORE DUP1 SWAP3 SWAP2 SWAP1 DUP2 DUP2 MSTORE PUSH1 0x20 ADD DUP3 DUP1 SLOAD DUP1 ISZERO PUSH2 0x179B JUMPI PUSH1 0x20 MUL DUP3 ADD SWAP2 SWAP1 PUSH0 MSTORE PUSH1 0x20 PUSH0 KECCAK256 SWAP1 PUSH0 SWAP1 JUMPDEST DUP3 DUP3 SWAP1 SLOAD SWAP1 PUSH2 0x100 EXP SWAP1 DIV PUSH8 0xFFFFFFFFFFFFFFFF AND PUSH8 0xFFFFFFFFFFFFFFFF AND DUP2 MSTORE PUSH1 0x20 ADD SWAP1 PUSH1 0x8 ADD SWAP1 PUSH1 0x20 DUP3 PUSH1 0x7 ADD DIV SWAP3 DUP4 ADD SWAP3 PUSH1 0x1 SUB DUP3 MUL SWAP2 POP DUP1 DUP5 GT PUSH2 0x1756 JUMPI SWAP1 POP JUMPDEST POP POP POP POP POP SWAP1 POP PUSH0 PUSH0 SWAP1 POP JUMPDEST DUP2 MLOAD DUP2 LT ISZERO PUSH2 0x19E8 JUMPI PUSH0 PUSH20 0xFFFFFFFFFFFFFFFFFFFFFFFFFFFFFFFFFFFFFFFF AND PUSH1 0x8 PUSH0 DUP6 DUP2 MSTORE PUSH1 0x20 ADD SWAP1 DUP2 MSTORE PUSH1 0x20 ADD PUSH0 KECCAK256 PUSH0 DUP5 DUP5 DUP2 MLOAD DUP2 LT PUSH2 0x17EC JUMPI PUSH2 0x17EB PUSH2 0x3660 JUMP JUMPDEST JUMPDEST PUSH1 0x20 MUL PUSH1 0x20 ADD ADD MLOAD PUSH8 0xFFFFFFFFFFFFFFFF AND PUSH8 0xFFFFFFFFFFFFFFFF AND DUP2 MSTORE PUSH1 0x20 ADD SWAP1 DUP2 MSTORE PUSH1 0x20 ADD PUSH0 KECCAK256 PUSH0 SWAP1 SLOAD SWAP1 PUSH2 0x100 EXP SWAP1 DIV PUSH20 0xFFFFFFFFFFFFFFFFFFFFFFFFFFFFFFFFFFFFFFFF AND PUSH20 0xFFFFFFFFFFFFFFFFFFFFFFFFFFFFFFFFFFFFFFFF AND EQ PUSH2 0x19DB JUMPI PUSH0 PUSH1 0x8 PUSH0 DUP6 DUP2 MSTORE PUSH1 0x20 ADD SWAP1 DUP2 MSTORE PUSH1 0x20 ADD PUSH0 KECCAK256 PUSH0 DUP5 DUP5 DUP2 MLOAD DUP2 LT PUSH2 0x1876 JUMPI PUSH2 0x1875 PUSH2 0x3660 JUMP JUMPDEST JUMPDEST PUSH1 0x20 MUL PUSH1 0x20 ADD ADD MLOAD PUSH8 0xFFFFFFFFFFFFFFFF AND PUSH8 0xFFFFFFFFFFFFFFFF AND DUP2 MSTORE PUSH1 0x20 ADD SWAP1 DUP2 MSTORE PUSH1 0x20 ADD PUSH0 KECCAK256 PUSH0 SWAP1 SLOAD SWAP1 PUSH2 0x100 EXP SWAP1 DIV PUSH20 0xFFFFFFFFFFFFFFFFFFFFFFFFFFFFFFFFFFFFFFFF AND SWAP1 POP PUSH1 0xA PUSH0 SWAP1 SLOAD SWAP1 PUSH2 0x100 EXP SWAP1 DIV PUSH20 0xFFFFFFFFFFFFFFFFFFFFFFFFFFFFFFFFFFFFFFFF AND PUSH20 0xFFFFFFFFFFFFFFFFFFFFFFFFFFFFFFFFFFFFFFFF AND PUSH4 0x8C1DA2C9 DUP3 DUP6 DUP6 DUP2 MLOAD DUP2 LT PUSH2 0x1912 JUMPI PUSH2 0x1911 PUSH2 0x3660 JUMP JUMPDEST JUMPDEST PUSH1 0x20 MUL PUSH1 0x20 ADD ADD MLOAD PUSH1 0x40 MLOAD DUP4 PUSH4 0xFFFFFFFF AND PUSH1 0xE0 SHL DUP2 MSTORE PUSH1 0x4 ADD PUSH2 0x1937 SWAP3 SWAP2 SWAP1 PUSH2 0x3DA3 JUMP JUMPDEST PUSH0 PUSH1 0x40 MLOAD DUP1 DUP4 SUB DUP2 DUP7 GAS STATICCALL ISZERO DUP1 ISZERO PUSH2 0x1951 JUMPI RETURNDATASIZE PUSH0 PUSH0 RETURNDATACOPY RETURNDATASIZE PUSH0 REVERT JUMPDEST POP POP POP POP PUSH1 0x40 MLOAD RETURNDATASIZE PUSH0 DUP3 RETURNDATACOPY RETURNDATASIZE PUSH1 0x1F NOT PUSH1 0x1F DUP3 ADD AND DUP3 ADD DUP1 PUSH1 0x40 MSTORE POP DUP2 ADD SWAP1 PUSH2 0x1979 SWAP2 SWAP1 PUSH2 0x3F29 JUMP JUMPDEST PUSH0 ADD MLOAD PUSH2 0x19D9 JUMPI DUP3 DUP3 DUP2 MLOAD DUP2 LT PUSH2 0x1993 JUMPI PUSH2 0x1992 PUSH2 0x3660 JUMP JUMPDEST JUMPDEST PUSH1 0x20 MUL PUSH1 0x20 ADD ADD MLOAD DUP2 PUSH1 0x40 MLOAD PUSH32 0xA5A4608E00000000000000000000000000000000000000000000000000000000 DUP2 MSTORE PUSH1 0x4 ADD PUSH2 0x19D0 SWAP3 SWAP2 SWAP1 PUSH2 0x3F70 JUMP JUMPDEST PUSH1 0x40 MLOAD DUP1 SWAP2 SUB SWAP1 REVERT JUMPDEST POP JUMPDEST DUP1 DUP1 PUSH1 0x1 ADD SWAP2 POP POP PUSH2 0x17A7 JUMP JUMPDEST POP POP POP JUMP JUMPDEST PUSH0 PUSH0 PUSH0 SWAP1 POP JUMPDEST PUSH1 0x4 DUP1 SLOAD SWAP1 POP DUP2 LT ISZERO PUSH2 0x1A85 JUMPI DUP3 PUSH20 0xFFFFFFFFFFFFFFFFFFFFFFFFFFFFFFFFFFFFFFFF AND PUSH1 0x4 DUP3 DUP2 SLOAD DUP2 LT PUSH2 0x1A2B JUMPI PUSH2 0x1A2A PUSH2 0x3660 JUMP JUMPDEST JUMPDEST SWAP1 PUSH0 MSTORE PUSH1 0x20 PUSH0 KECCAK256 ADD PUSH0 SWAP1 SLOAD SWAP1 PUSH2 0x100 EXP SWAP1 DIV PUSH20 0xFFFFFFFFFFFFFFFFFFFFFFFFFFFFFFFFFFFFFFFF AND PUSH20 0xFFFFFFFFFFFFFFFFFFFFFFFFFFFFFFFFFFFFFFFF AND SUB PUSH2 0x1A78 JUMPI PUSH1 0x1 SWAP2 POP POP PUSH2 0x1A8A JUMP JUMPDEST DUP1 DUP1 PUSH1 0x1 ADD SWAP2 POP POP PUSH2 0x19F3 JUMP JUMPDEST POP PUSH0 SWAP1 POP JUMPDEST SWAP2 SWAP1 POP JUMP JUMPDEST PUSH0 PUSH2 0x1A9E DUP4 PUSH0 ADD DUP4 PUSH0 SHL PUSH2 0x1F13 JUMP JUMPDEST SWAP1 POP SWAP3 SWAP2 POP POP JUMP JUMPDEST PUSH0 PUSH1 0x20 DUP3 MUL PUSH1 0x20 DUP5 ADD ADD MLOAD SWAP1 POP SWAP3 SWAP2 POP POP JUMP JUMPDEST PUSH0 PUSH1 0x20 DUP3 MUL PUSH1 0x20 DUP5 ADD ADD MLOAD SWAP1 POP SWAP3 SWAP2 POP POP JUMP JUMPDEST PUSH0 PUSH20 0xFFFFFFFFFFFFFFFFFFFFFFFFFFFFFFFFFFFFFFFF AND DUP5 PUSH20 0xFFFFFFFFFFFFFFFFFFFFFFFFFFFFFFFFFFFFFFFF AND SUB PUSH2 0x1B3C JUMPI PUSH0 PUSH1 0x40 MLOAD PUSH32 0x57F447CE00000000000000000000000000000000000000000000000000000000 DUP2 MSTORE PUSH1 0x4 ADD PUSH2 0x1B33 SWAP2 SWAP1 PUSH2 0x32DD JUMP JUMPDEST PUSH1 0x40 MLOAD DUP1 SWAP2 SUB SWAP1 REVERT JUMPDEST PUSH0 PUSH0 PUSH2 0x1B48 DUP6 DUP6 PUSH2 0x1F33 JUMP JUMPDEST SWAP2 POP SWAP2 POP PUSH2 0x1B59 PUSH0 DUP8 DUP5 DUP5 DUP8 PUSH2 0x1F63 JUMP JUMPDEST POP POP POP POP POP POP JUMP JUMPDEST PUSH0 PUSH1 0x3 PUSH0 SWAP1 SLOAD SWAP1 PUSH2 0x100 EXP SWAP1 DIV PUSH20 0xFFFFFFFFFFFFFFFFFFFFFFFFFFFFFFFFFFFFFFFF AND SWAP1 POP DUP2 PUSH1 0x3 PUSH0 PUSH2 0x100 EXP DUP2 SLOAD DUP2 PUSH20 0xFFFFFFFFFFFFFFFFFFFFFFFFFFFFFFFFFFFFFFFF MUL NOT AND SWAP1 DUP4 PUSH20 0xFFFFFFFFFFFFFFFFFFFFFFFFFFFFFFFFFFFFFFFF AND MUL OR SWAP1 SSTORE POP DUP2 PUSH20 0xFFFFFFFFFFFFFFFFFFFFFFFFFFFFFFFFFFFFFFFF AND DUP2 PUSH20 0xFFFFFFFFFFFFFFFFFFFFFFFFFFFFFFFFFFFFFFFF AND PUSH32 0x8BE0079C531659141344CD1FD0A4F28419497F9722A3DAAFE3B4186F6B6457E0 PUSH1 0x40 MLOAD PUSH1 0x40 MLOAD DUP1 SWAP2 SUB SWAP1 LOG3 POP POP JUMP JUMPDEST PUSH1 0x60 PUSH0 PUSH2 0x1C32 DUP4 PUSH0 ADD PUSH2 0x200F JUMP JUMPDEST SWAP1 POP PUSH1 0x60 DUP2 SWAP1 POP DUP1 SWAP3 POP POP POP SWAP2 SWAP1 POP JUMP JUMPDEST PUSH0 PUSH2 0x1C52 DUP4 PUSH0 ADD DUP4 PUSH0 SHL PUSH2 0x2068 JUMP JUMPDEST SWAP1 POP SWAP3 SWAP2 POP POP JUMP JUMPDEST PUSH0 CALLER SWAP1 POP SWAP1 JUMP JUMPDEST PUSH0 PUSH20 0xFFFFFFFFFFFFFFFFFFFFFFFFFFFFFFFFFFFFFFFF AND DUP3 PUSH20 0xFFFFFFFFFFFFFFFFFFFFFFFFFFFFFFFFFFFFFFFF AND SUB PUSH2 0x1CD1 JUMPI PUSH0 PUSH1 0x40 MLOAD PUSH32 0xCED3E10000000000000000000000000000000000000000000000000000000000 DUP2 MSTORE PUSH1 0x4 ADD PUSH2 0x1CC8 SWAP2 SWAP1 PUSH2 0x32DD JUMP JUMPDEST PUSH1 0x40 MLOAD DUP1 SWAP2 SUB SWAP1 REVERT JUMPDEST DUP1 PUSH1 0x1 PUSH0 DUP6 PUSH20 0xFFFFFFFFFFFFFFFFFFFFFFFFFFFFFFFFFFFFFFFF AND PUSH20 0xFFFFFFFFFFFFFFFFFFFFFFFFFFFFFFFFFFFFFFFF AND DUP2 MSTORE PUSH1 0x20 ADD SWAP1 DUP2 MSTORE PUSH1 0x20 ADD PUSH0 KECCAK256 PUSH0 DUP5 PUSH20 0xFFFFFFFFFFFFFFFFFFFFFFFFFFFFFFFFFFFFFFFF AND PUSH20 0xFFFFFFFFFFFFFFFFFFFFFFFFFFFFFFFFFFFFFFFF AND DUP2 MSTORE PUSH1 0x20 ADD SWAP1 DUP2 MSTORE PUSH1 0x20 ADD PUSH0 KECCAK256 PUSH0 PUSH2 0x100 EXP DUP2 SLOAD DUP2 PUSH1 0xFF MUL NOT AND SWAP1 DUP4 ISZERO ISZERO MUL OR SWAP1 SSTORE POP DUP2 PUSH20 0xFFFFFFFFFFFFFFFFFFFFFFFFFFFFFFFFFFFFFFFF AND DUP4 PUSH20 0xFFFFFFFFFFFFFFFFFFFFFFFFFFFFFFFFFFFFFFFF AND PUSH32 0x17307EAB39AB6107E8899845AD3D59BD9653F200F220920489CA2B5937696C31 DUP4 PUSH1 0x40 MLOAD PUSH2 0x1DBD SWAP2 SWAP1 PUSH2 0x2A64 JUMP JUMPDEST PUSH1 0x40 MLOAD DUP1 SWAP2 SUB SWAP1 LOG3 POP POP POP JUMP JUMPDEST PUSH0 PUSH2 0x1DD3 PUSH2 0x1C5A JUMP JUMPDEST SWAP1 POP DUP1 PUSH20 0xFFFFFFFFFFFFFFFFFFFFFFFFFFFFFFFFFFFFFFFF AND DUP7 PUSH20 0xFFFFFFFFFFFFFFFFFFFFFFFFFFFFFFFFFFFFFFFF AND EQ ISZERO DUP1 ISZERO PUSH2 0x1E18 JUMPI POP PUSH2 0x1E16 DUP7 DUP3 PUSH2 0x14E6 JUMP JUMPDEST ISZERO JUMPDEST ISZERO PUSH2 0x1E5C JUMPI DUP1 DUP7 PUSH1 0x40 MLOAD PUSH32 0xE237D92200000000000000000000000000000000000000000000000000000000 DUP2 MSTORE PUSH1 0x4 ADD PUSH2 0x1E53 SWAP3 SWAP2 SWAP1 PUSH2 0x3F97 JUMP JUMPDEST PUSH1 0x40 MLOAD DUP1 SWAP2 SUB SWAP1 REVERT JUMPDEST PUSH2 0x1E69 DUP7 DUP7 DUP7 DUP7 DUP7 PUSH2 0x20CF JUMP JUMPDEST POP POP POP POP POP POP JUMP JUMPDEST PUSH0 PUSH20 0xFFFFFFFFFFFFFFFFFFFFFFFFFFFFFFFFFFFFFFFF AND DUP4 PUSH20 0xFFFFFFFFFFFFFFFFFFFFFFFFFFFFFFFFFFFFFFFF AND SUB PUSH2 0x1EE1 JUMPI PUSH0 PUSH1 0x40 MLOAD PUSH32 0x1A8351400000000000000000000000000000000000000000000000000000000 DUP2 MSTORE PUSH1 0x4 ADD PUSH2 0x1ED8 SWAP2 SWAP1 PUSH2 0x32DD JUMP JUMPDEST PUSH1 0x40 MLOAD DUP1 SWAP2 SUB SWAP1 REVERT JUMPDEST PUSH0 PUSH0 PUSH2 0x1EED DUP5 DUP5 PUSH2 0x1F33 JUMP JUMPDEST SWAP2 POP SWAP2 POP PUSH2 0x1F0C DUP6 PUSH0 DUP5 DUP5 PUSH1 0x40 MLOAD DUP1 PUSH1 0x20 ADD PUSH1 0x40 MSTORE DUP1 PUSH0 DUP2 MSTORE POP PUSH2 0x1F63 JUMP JUMPDEST POP POP POP POP POP JUMP JUMPDEST PUSH0 PUSH0 DUP4 PUSH1 0x1 ADD PUSH0 DUP5 DUP2 MSTORE PUSH1 0x20 ADD SWAP1 DUP2 MSTORE PUSH1 0x20 ADD PUSH0 KECCAK256 SLOAD EQ ISZERO SWAP1 POP SWAP3 SWAP2 POP POP JUMP JUMPDEST PUSH1 0x60 DUP1 PUSH1 0x40 MLOAD SWAP2 POP PUSH1 0x1 DUP3 MSTORE DUP4 PUSH1 0x20 DUP4 ADD MSTORE PUSH1 0x40 DUP3 ADD SWAP1 POP PUSH1 0x1 DUP2 MSTORE DUP3 PUSH1 0x20 DUP3 ADD MSTORE PUSH1 0x40 DUP2 ADD PUSH1 0x40 MSTORE SWAP3 POP SWAP3 SWAP1 POP JUMP JUMPDEST PUSH2 0x1F6F DUP6 DUP6 DUP6 DUP6 PUSH2 0x21D5 JUMP JUMPDEST PUSH0 PUSH20 0xFFFFFFFFFFFFFFFFFFFFFFFFFFFFFFFFFFFFFFFF AND DUP5 PUSH20 0xFFFFFFFFFFFFFFFFFFFFFFFFFFFFFFFFFFFFFFFF AND EQ PUSH2 0x2008 JUMPI PUSH0 PUSH2 0x1FAB PUSH2 0x1C5A JUMP JUMPDEST SWAP1 POP PUSH1 0x1 DUP5 MLOAD SUB PUSH2 0x1FF7 JUMPI PUSH0 PUSH2 0x1FCA PUSH0 DUP7 PUSH2 0x1AB9 SWAP1 SWAP2 SWAP1 PUSH4 0xFFFFFFFF AND JUMP JUMPDEST SWAP1 POP PUSH0 PUSH2 0x1FE0 PUSH0 DUP7 PUSH2 0x1AB9 SWAP1 SWAP2 SWAP1 PUSH4 0xFFFFFFFF AND JUMP JUMPDEST SWAP1 POP PUSH2 0x1FF0 DUP4 DUP10 DUP10 DUP6 DUP6 DUP10 PUSH2 0x2568 JUMP JUMPDEST POP POP PUSH2 0x2006 JUMP JUMPDEST PUSH2 0x2005 DUP2 DUP8 DUP8 DUP8 DUP8 DUP8 PUSH2 0x2717 JUMP JUMPDEST JUMPDEST POP JUMPDEST POP POP POP POP POP JUMP JUMPDEST PUSH1 0x60 DUP2 PUSH0 ADD DUP1 SLOAD DUP1 PUSH1 0x20 MUL PUSH1 0x20 ADD PUSH1 0x40 MLOAD SWAP1 DUP2 ADD PUSH1 0x40 MSTORE DUP1 SWAP3 SWAP2 SWAP1 DUP2 DUP2 MSTORE PUSH1 0x20 ADD DUP3 DUP1 SLOAD DUP1 ISZERO PUSH2 0x205C JUMPI PUSH1 0x20 MUL DUP3 ADD SWAP2 SWAP1 PUSH0 MSTORE PUSH1 0x20 PUSH0 KECCAK256 SWAP1 JUMPDEST DUP2 SLOAD DUP2 MSTORE PUSH1 0x20 ADD SWAP1 PUSH1 0x1 ADD SWAP1 DUP1 DUP4 GT PUSH2 0x2048 JUMPI JUMPDEST POP POP POP POP POP SWAP1 POP SWAP2 SWAP1 POP JUMP JUMPDEST PUSH0 PUSH2 0x2073 DUP4 DUP4 PUSH2 0x1F13 JUMP JUMPDEST PUSH2 0x20C5 JUMPI DUP3 PUSH0 ADD DUP3 SWAP1 DUP1 PUSH1 0x1 DUP2 SLOAD ADD DUP1 DUP3 SSTORE DUP1 SWAP2 POP POP PUSH1 0x1 SWAP1 SUB SWAP1 PUSH0 MSTORE PUSH1 0x20 PUSH0 KECCAK256 ADD PUSH0 SWAP1 SWAP2 SWAP1 SWAP2 SWAP1 SWAP2 POP SSTORE DUP3 PUSH0 ADD DUP1 SLOAD SWAP1 POP DUP4 PUSH1 0x1 ADD PUSH0 DUP5 DUP2 MSTORE PUSH1 0x20 ADD SWAP1 DUP2 MSTORE PUSH1 0x20 ADD PUSH0 KECCAK256 DUP2 SWAP1 SSTORE POP PUSH1 0x1 SWAP1 POP PUSH2 0x20C9 JUMP JUMPDEST PUSH0 SWAP1 POP JUMPDEST SWAP3 SWAP2 POP POP JUMP JUMPDEST PUSH0 PUSH20 0xFFFFFFFFFFFFFFFFFFFFFFFFFFFFFFFFFFFFFFFF AND DUP5 PUSH20 0xFFFFFFFFFFFFFFFFFFFFFFFFFFFFFFFFFFFFFFFF AND SUB PUSH2 0x213F JUMPI PUSH0 PUSH1 0x40 MLOAD PUSH32 0x57F447CE00000000000000000000000000000000000000000000000000000000 DUP2 MSTORE PUSH1 0x4 ADD PUSH2 0x2136 SWAP2 SWAP1 PUSH2 0x32DD JUMP JUMPDEST PUSH1 0x40 MLOAD DUP1 SWAP2 SUB SWAP1 REVERT JUMPDEST PUSH0 PUSH20 0xFFFFFFFFFFFFFFFFFFFFFFFFFFFFFFFFFFFFFFFF AND DUP6 PUSH20 0xFFFFFFFFFFFFFFFFFFFFFFFFFFFFFFFFFFFFFFFF AND SUB PUSH2 0x21AF JUMPI PUSH0 PUSH1 0x40 MLOAD PUSH32 0x1A8351400000000000000000000000000000000000000000000000000000000 DUP2 MSTORE PUSH1 0x4 ADD PUSH2 0x21A6 SWAP2 SWAP1 PUSH2 0x32DD JUMP JUMPDEST PUSH1 0x40 MLOAD DUP1 SWAP2 SUB SWAP1 REVERT JUMPDEST PUSH0 PUSH0 PUSH2 0x21BB DUP6 DUP6 PUSH2 0x1F33 JUMP JUMPDEST SWAP2 POP SWAP2 POP PUSH2 0x21CC DUP8 DUP8 DUP5 DUP5 DUP8 PUSH2 0x1F63 JUMP JUMPDEST POP POP POP POP POP POP POP JUMP JUMPDEST DUP1 MLOAD DUP3 MLOAD EQ PUSH2 0x221F JUMPI DUP2 MLOAD DUP2 MLOAD PUSH1 0x40 MLOAD PUSH32 0x5B05999100000000000000000000000000000000000000000000000000000000 DUP2 MSTORE PUSH1 0x4 ADD PUSH2 0x2216 SWAP3 SWAP2 SWAP1 PUSH2 0x39D6 JUMP JUMPDEST PUSH1 0x40 MLOAD DUP1 SWAP2 SUB SWAP1 REVERT JUMPDEST PUSH0 PUSH2 0x2228 PUSH2 0x1C5A JUMP JUMPDEST SWAP1 POP PUSH0 PUSH0 SWAP1 POP JUMPDEST DUP4 MLOAD DUP2 LT ISZERO PUSH2 0x2427 JUMPI PUSH0 PUSH2 0x224C DUP3 DUP7 PUSH2 0x1AB9 SWAP1 SWAP2 SWAP1 PUSH4 0xFFFFFFFF AND JUMP JUMPDEST SWAP1 POP PUSH0 PUSH2 0x2262 DUP4 DUP7 PUSH2 0x1AB9 SWAP1 SWAP2 SWAP1 PUSH4 0xFFFFFFFF AND JUMP JUMPDEST SWAP1 POP PUSH0 PUSH20 0xFFFFFFFFFFFFFFFFFFFFFFFFFFFFFFFFFFFFFFFF AND DUP9 PUSH20 0xFFFFFFFFFFFFFFFFFFFFFFFFFFFFFFFFFFFFFFFF AND EQ PUSH2 0x2385 JUMPI PUSH0 PUSH0 PUSH0 DUP5 DUP2 MSTORE PUSH1 0x20 ADD SWAP1 DUP2 MSTORE PUSH1 0x20 ADD PUSH0 KECCAK256 PUSH0 DUP11 PUSH20 0xFFFFFFFFFFFFFFFFFFFFFFFFFFFFFFFFFFFFFFFF AND PUSH20 0xFFFFFFFFFFFFFFFFFFFFFFFFFFFFFFFFFFFFFFFF AND DUP2 MSTORE PUSH1 0x20 ADD SWAP1 DUP2 MSTORE PUSH1 0x20 ADD PUSH0 KECCAK256 SLOAD SWAP1 POP DUP2 DUP2 LT ISZERO PUSH2 0x2331 JUMPI DUP9 DUP2 DUP4 DUP6 PUSH1 0x40 MLOAD PUSH32 0x3DEE4C500000000000000000000000000000000000000000000000000000000 DUP2 MSTORE PUSH1 0x4 ADD PUSH2 0x2328 SWAP5 SWAP4 SWAP3 SWAP2 SWAP1 PUSH2 0x3FBE JUMP JUMPDEST PUSH1 0x40 MLOAD DUP1 SWAP2 SUB SWAP1 REVERT JUMPDEST DUP2 DUP2 SUB PUSH0 PUSH0 DUP6 DUP2 MSTORE PUSH1 0x20 ADD SWAP1 DUP2 MSTORE PUSH1 0x20 ADD PUSH0 KECCAK256 PUSH0 DUP12 PUSH20 0xFFFFFFFFFFFFFFFFFFFFFFFFFFFFFFFFFFFFFFFF AND PUSH20 0xFFFFFFFFFFFFFFFFFFFFFFFFFFFFFFFFFFFFFFFF AND DUP2 MSTORE PUSH1 0x20 ADD SWAP1 DUP2 MSTORE PUSH1 0x20 ADD PUSH0 KECCAK256 DUP2 SWAP1 SSTORE POP POP JUMPDEST PUSH0 PUSH20 0xFFFFFFFFFFFFFFFFFFFFFFFFFFFFFFFFFFFFFFFF AND DUP8 PUSH20 0xFFFFFFFFFFFFFFFFFFFFFFFFFFFFFFFFFFFFFFFF AND EQ PUSH2 0x241A JUMPI DUP1 PUSH0 PUSH0 DUP5 DUP2 MSTORE PUSH1 0x20 ADD SWAP1 DUP2 MSTORE PUSH1 0x20 ADD PUSH0 KECCAK256 PUSH0 DUP10 PUSH20 0xFFFFFFFFFFFFFFFFFFFFFFFFFFFFFFFFFFFFFFFF AND PUSH20 0xFFFFFFFFFFFFFFFFFFFFFFFFFFFFFFFFFFFFFFFF AND DUP2 MSTORE PUSH1 0x20 ADD SWAP1 DUP2 MSTORE PUSH1 0x20 ADD PUSH0 KECCAK256 PUSH0 DUP3 DUP3 SLOAD PUSH2 0x2412 SWAP2 SWAP1 PUSH2 0x4001 JUMP JUMPDEST SWAP3 POP POP DUP2 SWAP1 SSTORE POP JUMPDEST POP POP DUP1 PUSH1 0x1 ADD SWAP1 POP PUSH2 0x222F JUMP JUMPDEST POP PUSH1 0x1 DUP4 MLOAD SUB PUSH2 0x24E2 JUMPI PUSH0 PUSH2 0x2445 PUSH0 DUP6 PUSH2 0x1AB9 SWAP1 SWAP2 SWAP1 PUSH4 0xFFFFFFFF AND JUMP JUMPDEST SWAP1 POP PUSH0 PUSH2 0x245B PUSH0 DUP6 PUSH2 0x1AB9 SWAP1 SWAP2 SWAP1 PUSH4 0xFFFFFFFF AND JUMP JUMPDEST SWAP1 POP DUP6 PUSH20 0xFFFFFFFFFFFFFFFFFFFFFFFFFFFFFFFFFFFFFFFF AND DUP8 PUSH20 0xFFFFFFFFFFFFFFFFFFFFFFFFFFFFFFFFFFFFFFFF AND DUP5 PUSH20 0xFFFFFFFFFFFFFFFFFFFFFFFFFFFFFFFFFFFFFFFF AND PUSH32 0xC3D58168C5AE7397731D063D5BBF3D657854427343F4C083240F7AACAA2D0F62 DUP6 DUP6 PUSH1 0x40 MLOAD PUSH2 0x24D3 SWAP3 SWAP2 SWAP1 PUSH2 0x39D6 JUMP JUMPDEST PUSH1 0x40 MLOAD DUP1 SWAP2 SUB SWAP1 LOG4 POP POP PUSH2 0x2561 JUMP JUMPDEST DUP4 PUSH20 0xFFFFFFFFFFFFFFFFFFFFFFFFFFFFFFFFFFFFFFFF AND DUP6 PUSH20 0xFFFFFFFFFFFFFFFFFFFFFFFFFFFFFFFFFFFFFFFF AND DUP3 PUSH20 0xFFFFFFFFFFFFFFFFFFFFFFFFFFFFFFFFFFFFFFFF AND PUSH32 0x4A39DC06D4C0DBC64B70AF90FD698A233A518AA5D07E595D983B8C0526C8F7FB DUP7 DUP7 PUSH1 0x40 MLOAD PUSH2 0x2558 SWAP3 SWAP2 SWAP1 PUSH2 0x4034 JUMP JUMPDEST PUSH1 0x40 MLOAD DUP1 SWAP2 SUB SWAP1 LOG4 JUMPDEST POP POP POP POP POP JUMP JUMPDEST PUSH0 DUP5 PUSH20 0xFFFFFFFFFFFFFFFFFFFFFFFFFFFFFFFFFFFFFFFF AND EXTCODESIZE GT ISZERO PUSH2 0x270F JUMPI DUP4 PUSH20 0xFFFFFFFFFFFFFFFFFFFFFFFFFFFFFFFFFFFFFFFF AND PUSH4 0xF23A6E61 DUP8 DUP8 DUP7 DUP7 DUP7 PUSH1 0x40 MLOAD DUP7 PUSH4 0xFFFFFFFF AND PUSH1 0xE0 SHL DUP2 MSTORE PUSH1 0x4 ADD PUSH2 0x25C8 SWAP6 SWAP5 SWAP4 SWAP3 SWAP2 SWAP1 PUSH2 0x40BB JUMP JUMPDEST PUSH1 0x20 PUSH1 0x40 MLOAD DUP1 DUP4 SUB DUP2 PUSH0 DUP8 GAS CALL SWAP3 POP POP POP DUP1 ISZERO PUSH2 0x2603 JUMPI POP PUSH1 0x40 MLOAD RETURNDATASIZE PUSH1 0x1F NOT PUSH1 0x1F DUP3 ADD AND DUP3 ADD DUP1 PUSH1 0x40 MSTORE POP DUP2 ADD SWAP1 PUSH2 0x2600 SWAP2 SWAP1 PUSH2 0x4127 JUMP JUMPDEST PUSH1 0x1 JUMPDEST PUSH2 0x2684 JUMPI RETURNDATASIZE DUP1 PUSH0 DUP2 EQ PUSH2 0x2631 JUMPI PUSH1 0x40 MLOAD SWAP2 POP PUSH1 0x1F NOT PUSH1 0x3F RETURNDATASIZE ADD AND DUP3 ADD PUSH1 0x40 MSTORE RETURNDATASIZE DUP3 MSTORE RETURNDATASIZE PUSH0 PUSH1 0x20 DUP5 ADD RETURNDATACOPY PUSH2 0x2636 JUMP JUMPDEST PUSH1 0x60 SWAP2 POP JUMPDEST POP PUSH0 DUP2 MLOAD SUB PUSH2 0x267C JUMPI DUP5 PUSH1 0x40 MLOAD PUSH32 0x57F447CE00000000000000000000000000000000000000000000000000000000 DUP2 MSTORE PUSH1 0x4 ADD PUSH2 0x2673 SWAP2 SWAP1 PUSH2 0x32DD JUMP JUMPDEST PUSH1 0x40 MLOAD DUP1 SWAP2 SUB SWAP1 REVERT JUMPDEST DUP1 MLOAD DUP2 PUSH1 0x20 ADD REVERT JUMPDEST PUSH4 0xF23A6E61 PUSH1 0xE0 SHL PUSH28 0xFFFFFFFFFFFFFFFFFFFFFFFFFFFFFFFFFFFFFFFFFFFFFFFFFFFFFFFF NOT AND DUP2 PUSH28 0xFFFFFFFFFFFFFFFFFFFFFFFFFFFFFFFFFFFFFFFFFFFFFFFFFFFFFFFF NOT AND EQ PUSH2 0x270D JUMPI DUP5 PUSH1 0x40 MLOAD PUSH32 0x57F447CE00000000000000000000000000000000000000000000000000000000 DUP2 MSTORE PUSH1 0x4 ADD PUSH2 0x2704 SWAP2 SWAP1 PUSH2 0x32DD JUMP JUMPDEST PUSH1 0x40 MLOAD DUP1 SWAP2 SUB SWAP1 REVERT JUMPDEST POP JUMPDEST POP POP POP POP POP POP JUMP JUMPDEST PUSH0 DUP5 PUSH20 0xFFFFFFFFFFFFFFFFFFFFFFFFFFFFFFFFFFFFFFFF AND EXTCODESIZE GT ISZERO PUSH2 0x28BE JUMPI DUP4 PUSH20 0xFFFFFFFFFFFFFFFFFFFFFFFFFFFFFFFFFFFFFFFF AND PUSH4 0xBC197C81 DUP8 DUP8 DUP7 DUP7 DUP7 PUSH1 0x40 MLOAD DUP7 PUSH4 0xFFFFFFFF AND PUSH1 0xE0 SHL DUP2 MSTORE PUSH1 0x4 ADD PUSH2 0x2777 SWAP6 SWAP5 SWAP4 SWAP3 SWAP2 SWAP1 PUSH2 0x4152 JUMP JUMPDEST PUSH1 0x20 PUSH1 0x40 MLOAD DUP1 DUP4 SUB DUP2 PUSH0 DUP8 GAS CALL SWAP3 POP POP POP DUP1 ISZERO PUSH2 0x27B2 JUMPI POP PUSH1 0x40 MLOAD RETURNDATASIZE PUSH1 0x1F NOT PUSH1 0x1F DUP3 ADD AND DUP3 ADD DUP1 PUSH1 0x40 MSTORE POP DUP2 ADD SWAP1 PUSH2 0x27AF SWAP2 SWAP1 PUSH2 0x4127 JUMP JUMPDEST PUSH1 0x1 JUMPDEST PUSH2 0x2833 JUMPI RETURNDATASIZE DUP1 PUSH0 DUP2 EQ PUSH2 0x27E0 JUMPI PUSH1 0x40 MLOAD SWAP2 POP PUSH1 0x1F NOT PUSH1 0x3F RETURNDATASIZE ADD AND DUP3 ADD PUSH1 0x40 MSTORE RETURNDATASIZE DUP3 MSTORE RETURNDATASIZE PUSH0 PUSH1 0x20 DUP5 ADD RETURNDATACOPY PUSH2 0x27E5 JUMP JUMPDEST PUSH1 0x60 SWAP2 POP JUMPDEST POP PUSH0 DUP2 MLOAD SUB PUSH2 0x282B JUMPI DUP5 PUSH1 0x40 MLOAD PUSH32 0x57F447CE00000000000000000000000000000000000000000000000000000000 DUP2 MSTORE PUSH1 0x4 ADD PUSH2 0x2822 SWAP2 SWAP1 PUSH2 0x32DD JUMP JUMPDEST PUSH1 0x40 MLOAD DUP1 SWAP2 SUB SWAP1 REVERT JUMPDEST DUP1 MLOAD DUP2 PUSH1 0x20 ADD REVERT JUMPDEST PUSH4 0xBC197C81 PUSH1 0xE0 SHL PUSH28 0xFFFFFFFFFFFFFFFFFFFFFFFFFFFFFFFFFFFFFFFFFFFFFFFFFFFFFFFF NOT AND DUP2 PUSH28 0xFFFFFFFFFFFFFFFFFFFFFFFFFFFFFFFFFFFFFFFFFFFFFFFFFFFFFFFF NOT AND EQ PUSH2 0x28BC JUMPI DUP5 PUSH1 0x40 MLOAD PUSH32 0x57F447CE00000000000000000000000000000000000000000000000000000000 DUP2 MSTORE PUSH1 0x4 ADD PUSH2 0x28B3 SWAP2 SWAP1 PUSH2 0x32DD JUMP JUMPDEST PUSH1 0x40 MLOAD DUP1 SWAP2 SUB SWAP1 REVERT JUMPDEST POP JUMPDEST POP POP POP POP POP POP JUMP JUMPDEST PUSH0 PUSH1 0x40 MLOAD SWAP1 POP SWAP1 JUMP JUMPDEST PUSH0 PUSH0 REVERT JUMPDEST PUSH0 PUSH0 REVERT JUMPDEST PUSH0 PUSH20 0xFFFFFFFFFFFFFFFFFFFFFFFFFFFFFFFFFFFFFFFF DUP3 AND SWAP1 POP SWAP2 SWAP1 POP JUMP JUMPDEST PUSH0 PUSH2 0x2900 DUP3 PUSH2 0x28D7 JUMP JUMPDEST SWAP1 POP SWAP2 SWAP1 POP JUMP JUMPDEST PUSH2 0x2910 DUP2 PUSH2 0x28F6 JUMP JUMPDEST DUP2 EQ PUSH2 0x291A JUMPI PUSH0 PUSH0 REVERT JUMPDEST POP JUMP JUMPDEST PUSH0 DUP2 CALLDATALOAD SWAP1 POP PUSH2 0x292B DUP2 PUSH2 0x2907 JUMP JUMPDEST SWAP3 SWAP2 POP POP JUMP JUMPDEST PUSH0 DUP2 SWAP1 POP SWAP2 SWAP1 POP JUMP JUMPDEST PUSH2 0x2943 DUP2 PUSH2 0x2931 JUMP JUMPDEST DUP2 EQ PUSH2 0x294D JUMPI PUSH0 PUSH0 REVERT JUMPDEST POP JUMP JUMPDEST PUSH0 DUP2 CALLDATALOAD SWAP1 POP PUSH2 0x295E DUP2 PUSH2 0x293A JUMP JUMPDEST SWAP3 SWAP2 POP POP JUMP JUMPDEST PUSH0 PUSH0 PUSH1 0x40 DUP4 DUP6 SUB SLT ISZERO PUSH2 0x297A JUMPI PUSH2 0x2979 PUSH2 0x28CF JUMP JUMPDEST JUMPDEST PUSH0 PUSH2 0x2987 DUP6 DUP3 DUP7 ADD PUSH2 0x291D JUMP JUMPDEST SWAP3 POP POP PUSH1 0x20 PUSH2 0x2998 DUP6 DUP3 DUP7 ADD PUSH2 0x2950 JUMP JUMPDEST SWAP2 POP POP SWAP3 POP SWAP3 SWAP1 POP JUMP JUMPDEST PUSH2 0x29AB DUP2 PUSH2 0x2931 JUMP JUMPDEST DUP3 MSTORE POP POP JUMP JUMPDEST PUSH0 PUSH1 0x20 DUP3 ADD SWAP1 POP PUSH2 0x29C4 PUSH0 DUP4 ADD DUP5 PUSH2 0x29A2 JUMP JUMPDEST SWAP3 SWAP2 POP POP JUMP JUMPDEST PUSH0 PUSH32 0xFFFFFFFF00000000000000000000000000000000000000000000000000000000 DUP3 AND SWAP1 POP SWAP2 SWAP1 POP JUMP JUMPDEST PUSH2 0x29FE DUP2 PUSH2 0x29CA JUMP JUMPDEST DUP2 EQ PUSH2 0x2A08 JUMPI PUSH0 PUSH0 REVERT JUMPDEST POP JUMP JUMPDEST PUSH0 DUP2 CALLDATALOAD SWAP1 POP PUSH2 0x2A19 DUP2 PUSH2 0x29F5 JUMP JUMPDEST SWAP3 SWAP2 POP POP JUMP JUMPDEST PUSH0 PUSH1 0x20 DUP3 DUP5 SUB SLT ISZERO PUSH2 0x2A34 JUMPI PUSH2 0x2A33 PUSH2 0x28CF JUMP JUMPDEST JUMPDEST PUSH0 PUSH2 0x2A41 DUP5 DUP3 DUP6 ADD PUSH2 0x2A0B JUMP JUMPDEST SWAP2 POP POP SWAP3 SWAP2 POP POP JUMP JUMPDEST PUSH0 DUP2 ISZERO ISZERO SWAP1 POP SWAP2 SWAP1 POP JUMP JUMPDEST PUSH2 0x2A5E DUP2 PUSH2 0x2A4A JUMP JUMPDEST DUP3 MSTORE POP POP JUMP JUMPDEST PUSH0 PUSH1 0x20 DUP3 ADD SWAP1 POP PUSH2 0x2A77 PUSH0 DUP4 ADD DUP5 PUSH2 0x2A55 JUMP JUMPDEST SWAP3 SWAP2 POP POP JUMP JUMPDEST PUSH0 PUSH1 0x20 DUP3 DUP5 SUB SLT ISZERO PUSH2 0x2A92 JUMPI PUSH2 0x2A91 PUSH2 0x28CF JUMP JUMPDEST JUMPDEST PUSH0 PUSH2 0x2A9F DUP5 DUP3 DUP6 ADD PUSH2 0x2950 JUMP JUMPDEST SWAP2 POP POP SWAP3 SWAP2 POP POP JUMP JUMPDEST PUSH0 DUP2 MLOAD SWAP1 POP SWAP2 SWAP1 POP JUMP JUMPDEST PUSH0 DUP3 DUP3 MSTORE PUSH1 0x20 DUP3 ADD SWAP1 POP SWAP3 SWAP2 POP POP JUMP JUMPDEST DUP3 DUP2 DUP4 MCOPY PUSH0 DUP4 DUP4 ADD MSTORE POP POP POP JUMP JUMPDEST PUSH0 PUSH1 0x1F NOT PUSH1 0x1F DUP4 ADD AND SWAP1 POP SWAP2 SWAP1 POP JUMP JUMPDEST PUSH0 PUSH2 0x2AEA DUP3 PUSH2 0x2AA8 JUMP JUMPDEST PUSH2 0x2AF4 DUP2 DUP6 PUSH2 0x2AB2 JUMP JUMPDEST SWAP4 POP PUSH2 0x2B04 DUP2 DUP6 PUSH1 0x20 DUP7 ADD PUSH2 0x2AC2 JUMP JUMPDEST PUSH2 0x2B0D DUP2 PUSH2 0x2AD0 JUMP JUMPDEST DUP5 ADD SWAP2 POP POP SWAP3 SWAP2 POP POP JUMP JUMPDEST PUSH0 PUSH1 0x20 DUP3 ADD SWAP1 POP DUP2 DUP2 SUB PUSH0 DUP4 ADD MSTORE PUSH2 0x2B30 DUP2 DUP5 PUSH2 0x2AE0 JUMP JUMPDEST SWAP1 POP SWAP3 SWAP2 POP POP JUMP JUMPDEST PUSH0 PUSH1 0x20 DUP3 DUP5 SUB SLT ISZERO PUSH2 0x2B4D JUMPI PUSH2 0x2B4C PUSH2 0x28CF JUMP JUMPDEST JUMPDEST PUSH0 PUSH2 0x2B5A DUP5 DUP3 DUP6 ADD PUSH2 0x291D JUMP JUMPDEST SWAP2 POP POP SWAP3 SWAP2 POP POP JUMP JUMPDEST PUSH0 DUP2 SWAP1 POP SWAP2 SWAP1 POP JUMP JUMPDEST PUSH0 PUSH2 0x2B86 PUSH2 0x2B81 PUSH2 0x2B7C DUP5 PUSH2 0x28D7 JUMP JUMPDEST PUSH2 0x2B63 JUMP JUMPDEST PUSH2 0x28D7 JUMP JUMPDEST SWAP1 POP SWAP2 SWAP1 POP JUMP JUMPDEST PUSH0 PUSH2 0x2B97 DUP3 PUSH2 0x2B6C JUMP JUMPDEST SWAP1 POP SWAP2 SWAP1 POP JUMP JUMPDEST PUSH0 PUSH2 0x2BA8 DUP3 PUSH2 0x2B8D JUMP JUMPDEST SWAP1 POP SWAP2 SWAP1 POP JUMP JUMPDEST PUSH2 0x2BB8 DUP2 PUSH2 0x2B9E JUMP JUMPDEST DUP3 MSTORE POP POP JUMP JUMPDEST PUSH0 PUSH1 0x20 DUP3 ADD SWAP1 POP PUSH2 0x2BD1 PUSH0 DUP4 ADD DUP5 PUSH2 0x2BAF JUMP JUMPDEST SWAP3 SWAP2 POP POP JUMP JUMPDEST PUSH0 PUSH0 REVERT JUMPDEST PUSH32 0x4E487B7100000000000000000000000000000000000000000000000000000000 PUSH0 MSTORE PUSH1 0x41 PUSH1 0x4 MSTORE PUSH1 0x24 PUSH0 REVERT JUMPDEST PUSH2 0x2C11 DUP3 PUSH2 0x2AD0 JUMP JUMPDEST DUP2 ADD DUP2 DUP2 LT PUSH8 0xFFFFFFFFFFFFFFFF DUP3 GT OR ISZERO PUSH2 0x2C30 JUMPI PUSH2 0x2C2F PUSH2 0x2BDB JUMP JUMPDEST JUMPDEST DUP1 PUSH1 0x40 MSTORE POP POP POP JUMP JUMPDEST PUSH0 PUSH2 0x2C42 PUSH2 0x28C6 JUMP JUMPDEST SWAP1 POP PUSH2 0x2C4E DUP3 DUP3 PUSH2 0x2C08 JUMP JUMPDEST SWAP2 SWAP1 POP JUMP JUMPDEST PUSH0 PUSH8 0xFFFFFFFFFFFFFFFF DUP3 GT ISZERO PUSH2 0x2C6D JUMPI PUSH2 0x2C6C PUSH2 0x2BDB JUMP JUMPDEST JUMPDEST PUSH1 0x20 DUP3 MUL SWAP1 POP PUSH1 0x20 DUP2 ADD SWAP1 POP SWAP2 SWAP1 POP JUMP JUMPDEST PUSH0 PUSH0 REVERT JUMPDEST PUSH0 PUSH2 0x2C94 PUSH2 0x2C8F DUP5 PUSH2 0x2C53 JUMP JUMPDEST PUSH2 0x2C39 JUMP JUMPDEST SWAP1 POP DUP1 DUP4 DUP3 MSTORE PUSH1 0x20 DUP3 ADD SWAP1 POP PUSH1 0x20 DUP5 MUL DUP4 ADD DUP6 DUP2 GT ISZERO PUSH2 0x2CB7 JUMPI PUSH2 0x2CB6 PUSH2 0x2C7E JUMP JUMPDEST JUMPDEST DUP4 JUMPDEST DUP2 DUP2 LT ISZERO PUSH2 0x2CE0 JUMPI DUP1 PUSH2 0x2CCC DUP9 DUP3 PUSH2 0x2950 JUMP JUMPDEST DUP5 MSTORE PUSH1 0x20 DUP5 ADD SWAP4 POP POP PUSH1 0x20 DUP2 ADD SWAP1 POP PUSH2 0x2CB9 JUMP JUMPDEST POP POP POP SWAP4 SWAP3 POP POP POP JUMP JUMPDEST PUSH0 DUP3 PUSH1 0x1F DUP4 ADD SLT PUSH2 0x2CFE JUMPI PUSH2 0x2CFD PUSH2 0x2BD7 JUMP JUMPDEST JUMPDEST DUP2 CALLDATALOAD PUSH2 0x2D0E DUP5 DUP3 PUSH1 0x20 DUP7 ADD PUSH2 0x2C82 JUMP JUMPDEST SWAP2 POP POP SWAP3 SWAP2 POP POP JUMP JUMPDEST PUSH0 PUSH0 REVERT JUMPDEST PUSH0 PUSH8 0xFFFFFFFFFFFFFFFF DUP3 GT ISZERO PUSH2 0x2D35 JUMPI PUSH2 0x2D34 PUSH2 0x2BDB JUMP JUMPDEST JUMPDEST PUSH2 0x2D3E DUP3 PUSH2 0x2AD0 JUMP JUMPDEST SWAP1 POP PUSH1 0x20 DUP2 ADD SWAP1 POP SWAP2 SWAP1 POP JUMP JUMPDEST DUP3 DUP2 DUP4 CALLDATACOPY PUSH0 DUP4 DUP4 ADD MSTORE POP POP POP JUMP JUMPDEST PUSH0 PUSH2 0x2D6B PUSH2 0x2D66 DUP5 PUSH2 0x2D1B JUMP JUMPDEST PUSH2 0x2C39 JUMP JUMPDEST SWAP1 POP DUP3 DUP2 MSTORE PUSH1 0x20 DUP2 ADD DUP5 DUP5 DUP5 ADD GT ISZERO PUSH2 0x2D87 JUMPI PUSH2 0x2D86 PUSH2 0x2D17 JUMP JUMPDEST JUMPDEST PUSH2 0x2D92 DUP5 DUP3 DUP6 PUSH2 0x2D4B JUMP JUMPDEST POP SWAP4 SWAP3 POP POP POP JUMP JUMPDEST PUSH0 DUP3 PUSH1 0x1F DUP4 ADD SLT PUSH2 0x2DAE JUMPI PUSH2 0x2DAD PUSH2 0x2BD7 JUMP JUMPDEST JUMPDEST DUP2 CALLDATALOAD PUSH2 0x2DBE DUP5 DUP3 PUSH1 0x20 DUP7 ADD PUSH2 0x2D59 JUMP JUMPDEST SWAP2 POP POP SWAP3 SWAP2 POP POP JUMP JUMPDEST PUSH0 PUSH0 PUSH0 PUSH0 PUSH0 PUSH1 0xA0 DUP7 DUP9 SUB SLT ISZERO PUSH2 0x2DE0 JUMPI PUSH2 0x2DDF PUSH2 0x28CF JUMP JUMPDEST JUMPDEST PUSH0 PUSH2 0x2DED DUP9 DUP3 DUP10 ADD PUSH2 0x291D JUMP JUMPDEST SWAP6 POP POP PUSH1 0x20 PUSH2 0x2DFE DUP9 DUP3 DUP10 ADD PUSH2 0x291D JUMP JUMPDEST SWAP5 POP POP PUSH1 0x40 DUP7 ADD CALLDATALOAD PUSH8 0xFFFFFFFFFFFFFFFF DUP2 GT ISZERO PUSH2 0x2E1F JUMPI PUSH2 0x2E1E PUSH2 0x28D3 JUMP JUMPDEST JUMPDEST PUSH2 0x2E2B DUP9 DUP3 DUP10 ADD PUSH2 0x2CEA JUMP JUMPDEST SWAP4 POP POP PUSH1 0x60 DUP7 ADD CALLDATALOAD PUSH8 0xFFFFFFFFFFFFFFFF DUP2 GT ISZERO PUSH2 0x2E4C JUMPI PUSH2 0x2E4B PUSH2 0x28D3 JUMP JUMPDEST JUMPDEST PUSH2 0x2E58 DUP9 DUP3 DUP10 ADD PUSH2 0x2CEA JUMP JUMPDEST SWAP3 POP POP PUSH1 0x80 DUP7 ADD CALLDATALOAD PUSH8 0xFFFFFFFFFFFFFFFF DUP2 GT ISZERO PUSH2 0x2E79 JUMPI PUSH2 0x2E78 PUSH2 0x28D3 JUMP JUMPDEST JUMPDEST PUSH2 0x2E85 DUP9 DUP3 DUP10 ADD PUSH2 0x2D9A JUMP JUMPDEST SWAP2 POP POP SWAP3 SWAP6 POP SWAP3 SWAP6 SWAP1 SWAP4 POP JUMP JUMPDEST PUSH0 DUP2 MLOAD SWAP1 POP SWAP2 SWAP1 POP JUMP JUMPDEST PUSH0 DUP3 DUP3 MSTORE PUSH1 0x20 DUP3 ADD SWAP1 POP SWAP3 SWAP2 POP POP JUMP JUMPDEST PUSH0 DUP2 SWAP1 POP PUSH1 0x20 DUP3 ADD SWAP1 POP SWAP2 SWAP1 POP JUMP JUMPDEST PUSH2 0x2EC4 DUP2 PUSH2 0x28F6 JUMP JUMPDEST DUP3 MSTORE POP POP JUMP JUMPDEST PUSH0 PUSH2 0x2ED5 DUP4 DUP4 PUSH2 0x2EBB JUMP JUMPDEST PUSH1 0x20 DUP4 ADD SWAP1 POP SWAP3 SWAP2 POP POP JUMP JUMPDEST PUSH0 PUSH1 0x20 DUP3 ADD SWAP1 POP SWAP2 SWAP1 POP JUMP JUMPDEST PUSH0 PUSH2 0x2EF7 DUP3 PUSH2 0x2E92 JUMP JUMPDEST PUSH2 0x2F01 DUP2 DUP6 PUSH2 0x2E9C JUMP JUMPDEST SWAP4 POP PUSH2 0x2F0C DUP4 PUSH2 0x2EAC JUMP JUMPDEST DUP1 PUSH0 JUMPDEST DUP4 DUP2 LT ISZERO PUSH2 0x2F3C JUMPI DUP2 MLOAD PUSH2 0x2F23 DUP9 DUP3 PUSH2 0x2ECA JUMP JUMPDEST SWAP8 POP PUSH2 0x2F2E DUP4 PUSH2 0x2EE1 JUMP JUMPDEST SWAP3 POP POP PUSH1 0x1 DUP2 ADD SWAP1 POP PUSH2 0x2F0F JUMP JUMPDEST POP DUP6 SWAP4 POP POP POP POP SWAP3 SWAP2 POP POP JUMP JUMPDEST PUSH0 PUSH1 0x20 DUP3 ADD SWAP1 POP DUP2 DUP2 SUB PUSH0 DUP4 ADD MSTORE PUSH2 0x2F61 DUP2 DUP5 PUSH2 0x2EED JUMP JUMPDEST SWAP1 POP SWAP3 SWAP2 POP POP JUMP JUMPDEST PUSH0 PUSH8 0xFFFFFFFFFFFFFFFF DUP3 AND SWAP1 POP SWAP2 SWAP1 POP JUMP JUMPDEST PUSH2 0x2F85 DUP2 PUSH2 0x2F69 JUMP JUMPDEST DUP2 EQ PUSH2 0x2F8F JUMPI PUSH0 PUSH0 REVERT JUMPDEST POP JUMP JUMPDEST PUSH0 DUP2 CALLDATALOAD SWAP1 POP PUSH2 0x2FA0 DUP2 PUSH2 0x2F7C JUMP JUMPDEST SWAP3 SWAP2 POP POP JUMP JUMPDEST PUSH0 PUSH0 PUSH1 0x40 DUP4 DUP6 SUB SLT ISZERO PUSH2 0x2FBC JUMPI PUSH2 0x2FBB PUSH2 0x28CF JUMP JUMPDEST JUMPDEST PUSH0 PUSH2 0x2FC9 DUP6 DUP3 DUP7 ADD PUSH2 0x2950 JUMP JUMPDEST SWAP3 POP POP PUSH1 0x20 PUSH2 0x2FDA DUP6 DUP3 DUP7 ADD PUSH2 0x2F92 JUMP JUMPDEST SWAP2 POP POP SWAP3 POP SWAP3 SWAP1 POP JUMP JUMPDEST PUSH0 PUSH8 0xFFFFFFFFFFFFFFFF DUP3 GT ISZERO PUSH2 0x2FFE JUMPI PUSH2 0x2FFD PUSH2 0x2BDB JUMP JUMPDEST JUMPDEST PUSH1 0x20 DUP3 MUL SWAP1 POP PUSH1 0x20 DUP2 ADD SWAP1 POP SWAP2 SWAP1 POP JUMP JUMPDEST PUSH0 PUSH2 0x3021 PUSH2 0x301C DUP5 PUSH2 0x2FE4 JUMP JUMPDEST PUSH2 0x2C39 JUMP JUMPDEST SWAP1 POP DUP1 DUP4 DUP3 MSTORE PUSH1 0x20 DUP3 ADD SWAP1 POP PUSH1 0x20 DUP5 MUL DUP4 ADD DUP6 DUP2 GT ISZERO PUSH2 0x3044 JUMPI PUSH2 0x3043 PUSH2 0x2C7E JUMP JUMPDEST JUMPDEST DUP4 JUMPDEST DUP2 DUP2 LT ISZERO PUSH2 0x306D JUMPI DUP1 PUSH2 0x3059 DUP9 DUP3 PUSH2 0x291D JUMP JUMPDEST DUP5 MSTORE PUSH1 0x20 DUP5 ADD SWAP4 POP POP PUSH1 0x20 DUP2 ADD SWAP1 POP PUSH2 0x3046 JUMP JUMPDEST POP POP POP SWAP4 SWAP3 POP POP POP JUMP JUMPDEST PUSH0 DUP3 PUSH1 0x1F DUP4 ADD SLT PUSH2 0x308B JUMPI PUSH2 0x308A PUSH2 0x2BD7 JUMP JUMPDEST JUMPDEST DUP2 CALLDATALOAD PUSH2 0x309B DUP5 DUP3 PUSH1 0x20 DUP7 ADD PUSH2 0x300F JUMP JUMPDEST SWAP2 POP POP SWAP3 SWAP2 POP POP JUMP JUMPDEST PUSH0 PUSH0 PUSH1 0x40 DUP4 DUP6 SUB SLT ISZERO PUSH2 0x30BA JUMPI PUSH2 0x30B9 PUSH2 0x28CF JUMP JUMPDEST JUMPDEST PUSH0 DUP4 ADD CALLDATALOAD PUSH8 0xFFFFFFFFFFFFFFFF DUP2 GT ISZERO PUSH2 0x30D7 JUMPI PUSH2 0x30D6 PUSH2 0x28D3 JUMP JUMPDEST JUMPDEST PUSH2 0x30E3 DUP6 DUP3 DUP7 ADD PUSH2 0x3077 JUMP JUMPDEST SWAP3 POP POP PUSH1 0x20 DUP4 ADD CALLDATALOAD PUSH8 0xFFFFFFFFFFFFFFFF DUP2 GT ISZERO PUSH2 0x3104 JUMPI PUSH2 0x3103 PUSH2 0x28D3 JUMP JUMPDEST JUMPDEST PUSH2 0x3110 DUP6 DUP3 DUP7 ADD PUSH2 0x2CEA JUMP JUMPDEST SWAP2 POP POP SWAP3 POP SWAP3 SWAP1 POP JUMP JUMPDEST PUSH0 DUP2 MLOAD SWAP1 POP SWAP2 SWAP1 POP JUMP JUMPDEST PUSH0 DUP3 DUP3 MSTORE PUSH1 0x20 DUP3 ADD SWAP1 POP SWAP3 SWAP2 POP POP JUMP JUMPDEST PUSH0 DUP2 SWAP1 POP PUSH1 0x20 DUP3 ADD SWAP1 POP SWAP2 SWAP1 POP JUMP JUMPDEST PUSH2 0x314C DUP2 PUSH2 0x2931 JUMP JUMPDEST DUP3 MSTORE POP POP JUMP JUMPDEST PUSH0 PUSH2 0x315D DUP4 DUP4 PUSH2 0x3143 JUMP JUMPDEST PUSH1 0x20 DUP4 ADD SWAP1 POP SWAP3 SWAP2 POP POP JUMP JUMPDEST PUSH0 PUSH1 0x20 DUP3 ADD SWAP1 POP SWAP2 SWAP1 POP JUMP JUMPDEST PUSH0 PUSH2 0x317F DUP3 PUSH2 0x311A JUMP JUMPDEST PUSH2 0x3189 DUP2 DUP6 PUSH2 0x3124 JUMP JUMPDEST SWAP4 POP PUSH2 0x3194 DUP4 PUSH2 0x3134 JUMP JUMPDEST DUP1 PUSH0 JUMPDEST DUP4 DUP2 LT ISZERO PUSH2 0x31C4 JUMPI DUP2 MLOAD PUSH2 0x31AB DUP9 DUP3 PUSH2 0x3152 JUMP JUMPDEST SWAP8 POP PUSH2 0x31B6 DUP4 PUSH2 0x3169 JUMP JUMPDEST SWAP3 POP POP PUSH1 0x1 DUP2 ADD SWAP1 POP PUSH2 0x3197 JUMP JUMPDEST POP DUP6 SWAP4 POP POP POP POP SWAP3 SWAP2 POP POP JUMP JUMPDEST PUSH0 PUSH1 0x20 DUP3 ADD SWAP1 POP DUP2 DUP2 SUB PUSH0 DUP4 ADD MSTORE PUSH2 0x31E9 DUP2 DUP5 PUSH2 0x3175 JUMP JUMPDEST SWAP1 POP SWAP3 SWAP2 POP POP JUMP JUMPDEST PUSH0 PUSH0 REVERT JUMPDEST PUSH0 PUSH0 DUP4 PUSH1 0x1F DUP5 ADD SLT PUSH2 0x320A JUMPI PUSH2 0x3209 PUSH2 0x2BD7 JUMP JUMPDEST JUMPDEST DUP3 CALLDATALOAD SWAP1 POP PUSH8 0xFFFFFFFFFFFFFFFF DUP2 GT ISZERO PUSH2 0x3227 JUMPI PUSH2 0x3226 PUSH2 0x31F1 JUMP JUMPDEST JUMPDEST PUSH1 0x20 DUP4 ADD SWAP2 POP DUP4 PUSH1 0x1 DUP3 MUL DUP4 ADD GT ISZERO PUSH2 0x3243 JUMPI PUSH2 0x3242 PUSH2 0x2C7E JUMP JUMPDEST JUMPDEST SWAP3 POP SWAP3 SWAP1 POP JUMP JUMPDEST PUSH0 PUSH0 PUSH0 PUSH0 PUSH0 PUSH1 0x80 DUP7 DUP9 SUB SLT ISZERO PUSH2 0x3263 JUMPI PUSH2 0x3262 PUSH2 0x28CF JUMP JUMPDEST JUMPDEST PUSH0 PUSH2 0x3270 DUP9 DUP3 DUP10 ADD PUSH2 0x291D JUMP JUMPDEST SWAP6 POP POP PUSH1 0x20 PUSH2 0x3281 DUP9 DUP3 DUP10 ADD PUSH2 0x2950 JUMP JUMPDEST SWAP5 POP POP PUSH1 0x40 PUSH2 0x3292 DUP9 DUP3 DUP10 ADD PUSH2 0x2950 JUMP JUMPDEST SWAP4 POP POP PUSH1 0x60 DUP7 ADD CALLDATALOAD PUSH8 0xFFFFFFFFFFFFFFFF DUP2 GT ISZERO PUSH2 0x32B3 JUMPI PUSH2 0x32B2 PUSH2 0x28D3 JUMP JUMPDEST JUMPDEST PUSH2 0x32BF DUP9 DUP3 DUP10 ADD PUSH2 0x31F5 JUMP JUMPDEST SWAP3 POP SWAP3 POP POP SWAP3 SWAP6 POP SWAP3 SWAP6 SWAP1 SWAP4 POP JUMP JUMPDEST PUSH2 0x32D7 DUP2 PUSH2 0x28F6 JUMP JUMPDEST DUP3 MSTORE POP POP JUMP JUMPDEST PUSH0 PUSH1 0x20 DUP3 ADD SWAP1 POP PUSH2 0x32F0 PUSH0 DUP4 ADD DUP5 PUSH2 0x32CE JUMP JUMPDEST SWAP3 SWAP2 POP POP JUMP JUMPDEST PUSH0 PUSH0 DUP4 PUSH1 0x1F DUP5 ADD SLT PUSH2 0x330B JUMPI PUSH2 0x330A PUSH2 0x2BD7 JUMP JUMPDEST JUMPDEST DUP3 CALLDATALOAD SWAP1 POP PUSH8 0xFFFFFFFFFFFFFFFF DUP2 GT ISZERO PUSH2 0x3328 JUMPI PUSH2 0x3327 PUSH2 0x31F1 JUMP JUMPDEST JUMPDEST PUSH1 0x20 DUP4 ADD SWAP2 POP DUP4 PUSH1 0x1 DUP3 MUL DUP4 ADD GT ISZERO PUSH2 0x3344 JUMPI PUSH2 0x3343 PUSH2 0x2C7E JUMP JUMPDEST JUMPDEST SWAP3 POP SWAP3 SWAP1 POP JUMP JUMPDEST PUSH0 PUSH0 PUSH0 PUSH0 PUSH0 PUSH0 PUSH0 PUSH1 0xA0 DUP9 DUP11 SUB SLT ISZERO PUSH2 0x3366 JUMPI PUSH2 0x3365 PUSH2 0x28CF JUMP JUMPDEST JUMPDEST PUSH0 PUSH2 0x3373 DUP11 DUP3 DUP12 ADD PUSH2 0x291D JUMP JUMPDEST SWAP8 POP POP PUSH1 0x20 PUSH2 0x3384 DUP11 DUP3 DUP12 ADD PUSH2 0x2950 JUMP JUMPDEST SWAP7 POP POP PUSH1 0x40 PUSH2 0x3395 DUP11 DUP3 DUP12 ADD PUSH2 0x2950 JUMP JUMPDEST SWAP6 POP POP PUSH1 0x60 DUP9 ADD CALLDATALOAD PUSH8 0xFFFFFFFFFFFFFFFF DUP2 GT ISZERO PUSH2 0x33B6 JUMPI PUSH2 0x33B5 PUSH2 0x28D3 JUMP JUMPDEST JUMPDEST PUSH2 0x33C2 DUP11 DUP3 DUP12 ADD PUSH2 0x31F5 JUMP JUMPDEST SWAP5 POP SWAP5 POP POP PUSH1 0x80 DUP9 ADD CALLDATALOAD PUSH8 0xFFFFFFFFFFFFFFFF DUP2 GT ISZERO PUSH2 0x33E5 JUMPI PUSH2 0x33E4 PUSH2 0x28D3 JUMP JUMPDEST JUMPDEST PUSH2 0x33F1 DUP11 DUP3 DUP12 ADD PUSH2 0x32F6 JUMP JUMPDEST SWAP3 POP SWAP3 POP POP SWAP3 SWAP6 SWAP9 SWAP2 SWAP5 SWAP8 POP SWAP3 SWAP6 POP JUMP JUMPDEST PUSH0 PUSH0 PUSH0 PUSH1 0x60 DUP5 DUP7 SUB SLT ISZERO PUSH2 0x3419 JUMPI PUSH2 0x3418 PUSH2 0x28CF JUMP JUMPDEST JUMPDEST PUSH0 PUSH2 0x3426 DUP7 DUP3 DUP8 ADD PUSH2 0x2950 JUMP JUMPDEST SWAP4 POP POP PUSH1 0x20 PUSH2 0x3437 DUP7 DUP3 DUP8 ADD PUSH2 0x2F92 JUMP JUMPDEST SWAP3 POP POP PUSH1 0x40 PUSH2 0x3448 DUP7 DUP3 DUP8 ADD PUSH2 0x291D JUMP JUMPDEST SWAP2 POP POP SWAP3 POP SWAP3 POP SWAP3 JUMP JUMPDEST PUSH2 0x345B DUP2 PUSH2 0x2A4A JUMP JUMPDEST DUP2 EQ PUSH2 0x3465 JUMPI PUSH0 PUSH0 REVERT JUMPDEST POP JUMP JUMPDEST PUSH0 DUP2 CALLDATALOAD SWAP1 POP PUSH2 0x3476 DUP2 PUSH2 0x3452 JUMP JUMPDEST SWAP3 SWAP2 POP POP JUMP JUMPDEST PUSH0 PUSH0 PUSH1 0x40 DUP4 DUP6 SUB SLT ISZERO PUSH2 0x3492 JUMPI PUSH2 0x3491 PUSH2 0x28CF JUMP JUMPDEST JUMPDEST PUSH0 PUSH2 0x349F DUP6 DUP3 DUP7 ADD PUSH2 0x291D JUMP JUMPDEST SWAP3 POP POP PUSH1 0x20 PUSH2 0x34B0 DUP6 DUP3 DUP7 ADD PUSH2 0x3468 JUMP JUMPDEST SWAP2 POP POP SWAP3 POP SWAP3 SWAP1 POP JUMP JUMPDEST PUSH2 0x34C3 DUP2 PUSH2 0x2F69 JUMP JUMPDEST DUP3 MSTORE POP POP JUMP JUMPDEST PUSH0 PUSH1 0x20 DUP3 ADD SWAP1 POP PUSH2 0x34DC PUSH0 DUP4 ADD DUP5 PUSH2 0x34BA JUMP JUMPDEST SWAP3 SWAP2 POP POP JUMP JUMPDEST PUSH0 PUSH0 PUSH1 0x40 DUP4 DUP6 SUB SLT ISZERO PUSH2 0x34F8 JUMPI PUSH2 0x34F7 PUSH2 0x28CF JUMP JUMPDEST JUMPDEST PUSH0 PUSH2 0x3505 DUP6 DUP3 DUP7 ADD PUSH2 0x291D JUMP JUMPDEST SWAP3 POP POP PUSH1 0x20 PUSH2 0x3516 DUP6 DUP3 DUP7 ADD PUSH2 0x291D JUMP JUMPDEST SWAP2 POP POP SWAP3 POP SWAP3 SWAP1 POP JUMP JUMPDEST PUSH0 PUSH0 PUSH0 PUSH0 PUSH0 PUSH1 0xA0 DUP7 DUP9 SUB SLT ISZERO PUSH2 0x3539 JUMPI PUSH2 0x3538 PUSH2 0x28CF JUMP JUMPDEST JUMPDEST PUSH0 PUSH2 0x3546 DUP9 DUP3 DUP10 ADD PUSH2 0x291D JUMP JUMPDEST SWAP6 POP POP PUSH1 0x20 PUSH2 0x3557 DUP9 DUP3 DUP10 ADD PUSH2 0x291D JUMP JUMPDEST SWAP5 POP POP PUSH1 0x40 PUSH2 0x3568 DUP9 DUP3 DUP10 ADD PUSH2 0x2950 JUMP JUMPDEST SWAP4 POP POP PUSH1 0x60 PUSH2 0x3579 DUP9 DUP3 DUP10 ADD PUSH2 0x2950 JUMP JUMPDEST SWAP3 POP POP PUSH1 0x80 DUP7 ADD CALLDATALOAD PUSH8 0xFFFFFFFFFFFFFFFF DUP2 GT ISZERO PUSH2 0x359A JUMPI PUSH2 0x3599 PUSH2 0x28D3 JUMP JUMPDEST JUMPDEST PUSH2 0x35A6 DUP9 DUP3 DUP10 ADD PUSH2 0x2D9A JUMP JUMPDEST SWAP2 POP POP SWAP3 SWAP6 POP SWAP3 SWAP6 SWAP1 SWAP4 POP JUMP JUMPDEST PUSH0 PUSH0 PUSH0 PUSH1 0x60 DUP5 DUP7 SUB SLT ISZERO PUSH2 0x35CA JUMPI PUSH2 0x35C9 PUSH2 0x28CF JUMP JUMPDEST JUMPDEST PUSH0 PUSH2 0x35D7 DUP7 DUP3 DUP8 ADD PUSH2 0x291D JUMP JUMPDEST SWAP4 POP POP PUSH1 0x20 PUSH2 0x35E8 DUP7 DUP3 DUP8 ADD PUSH2 0x2950 JUMP JUMPDEST SWAP3 POP POP PUSH1 0x40 PUSH2 0x35F9 DUP7 DUP3 DUP8 ADD PUSH2 0x2950 JUMP JUMPDEST SWAP2 POP POP SWAP3 POP SWAP3 POP SWAP3 JUMP JUMPDEST PUSH32 0x4E487B7100000000000000000000000000000000000000000000000000000000 PUSH0 MSTORE PUSH1 0x22 PUSH1 0x4 MSTORE PUSH1 0x24 PUSH0 REVERT JUMPDEST PUSH0 PUSH1 0x2 DUP3 DIV SWAP1 POP PUSH1 0x1 DUP3 AND DUP1 PUSH2 0x3647 JUMPI PUSH1 0x7F DUP3 AND SWAP2 POP JUMPDEST PUSH1 0x20 DUP3 LT DUP2 SUB PUSH2 0x365A JUMPI PUSH2 0x3659 PUSH2 0x3603 JUMP JUMPDEST JUMPDEST POP SWAP2 SWAP1 POP JUMP JUMPDEST PUSH32 0x4E487B7100000000000000000000000000000000000000000000000000000000 PUSH0 MSTORE PUSH1 0x32 PUSH1 0x4 MSTORE PUSH1 0x24 PUSH0 REVERT JUMPDEST PUSH32 0x4E487B7100000000000000000000000000000000000000000000000000000000 PUSH0 MSTORE PUSH1 0x11 PUSH1 0x4 MSTORE PUSH1 0x24 PUSH0 REVERT JUMPDEST PUSH0 PUSH2 0x36C4 DUP3 PUSH2 0x2931 JUMP JUMPDEST SWAP2 POP PUSH2 0x36CF DUP4 PUSH2 0x2931 JUMP JUMPDEST SWAP3 POP DUP3 DUP3 SUB SWAP1 POP DUP2 DUP2 GT ISZERO PUSH2 0x36E7 JUMPI PUSH2 0x36E6 PUSH2 0x368D JUMP JUMPDEST JUMPDEST SWAP3 SWAP2 POP POP JUMP JUMPDEST PUSH32 0x4E487B7100000000000000000000000000000000000000000000000000000000 PUSH0 MSTORE PUSH1 0x31 PUSH1 0x4 MSTORE PUSH1 0x24 PUSH0 REVERT JUMPDEST PUSH32 0x41646D696E206E6F7420666F756E640000000000000000000000000000000000 PUSH0 DUP3 ADD MSTORE POP JUMP JUMPDEST PUSH0 PUSH2 0x374E PUSH1 0xF DUP4 PUSH2 0x2AB2 JUMP JUMPDEST SWAP2 POP PUSH2 0x3759 DUP3 PUSH2 0x371A JUMP JUMPDEST PUSH1 0x20 DUP3 ADD SWAP1 POP SWAP2 SWAP1 POP JUMP JUMPDEST PUSH0 PUSH1 0x20 DUP3 ADD SWAP1 POP DUP2 DUP2 SUB PUSH0 DUP4 ADD MSTORE PUSH2 0x377B DUP2 PUSH2 0x3742 JUMP JUMPDEST SWAP1 POP SWAP2 SWAP1 POP JUMP JUMPDEST PUSH32 0x455243313135353A204D69736D617463686564206172726179206C656E677468 PUSH0 DUP3 ADD MSTORE PUSH32 0x7300000000000000000000000000000000000000000000000000000000000000 PUSH1 0x20 DUP3 ADD MSTORE POP JUMP JUMPDEST PUSH0 PUSH2 0x37DC PUSH1 0x21 DUP4 PUSH2 0x2AB2 JUMP JUMPDEST SWAP2 POP PUSH2 0x37E7 DUP3 PUSH2 0x3782 JUMP JUMPDEST PUSH1 0x40 DUP3 ADD SWAP1 POP SWAP2 SWAP1 POP JUMP JUMPDEST PUSH0 PUSH1 0x20 DUP3 ADD SWAP1 POP DUP2 DUP2 SUB PUSH0 DUP4 ADD MSTORE PUSH2 0x3809 DUP2 PUSH2 0x37D0 JUMP JUMPDEST SWAP1 POP SWAP2 SWAP1 POP JUMP JUMPDEST PUSH32 0x455243313135353A207472616E7366657220746F20746865207A65726F206164 PUSH0 DUP3 ADD MSTORE PUSH32 0x6472657373000000000000000000000000000000000000000000000000000000 PUSH1 0x20 DUP3 ADD MSTORE POP JUMP JUMPDEST PUSH0 PUSH2 0x386A PUSH1 0x25 DUP4 PUSH2 0x2AB2 JUMP JUMPDEST SWAP2 POP PUSH2 0x3875 DUP3 PUSH2 0x3810 JUMP JUMPDEST PUSH1 0x40 DUP3 ADD SWAP1 POP SWAP2 SWAP1 POP JUMP JUMPDEST PUSH0 PUSH1 0x20 DUP3 ADD SWAP1 POP DUP2 DUP2 SUB PUSH0 DUP4 ADD MSTORE PUSH2 0x3897 DUP2 PUSH2 0x385E JUMP JUMPDEST SWAP1 POP SWAP2 SWAP1 POP JUMP JUMPDEST PUSH32 0x43616C6C6572206973206E6F7420616E2061646D696E00000000000000000000 PUSH0 DUP3 ADD MSTORE POP JUMP JUMPDEST PUSH0 PUSH2 0x38D2 PUSH1 0x16 DUP4 PUSH2 0x2AB2 JUMP JUMPDEST SWAP2 POP PUSH2 0x38DD DUP3 PUSH2 0x389E JUMP JUMPDEST PUSH1 0x20 DUP3 ADD SWAP1 POP SWAP2 SWAP1 POP JUMP JUMPDEST PUSH0 PUSH1 0x20 DUP3 ADD SWAP1 POP DUP2 DUP2 SUB PUSH0 DUP4 ADD MSTORE PUSH2 0x38FF DUP2 PUSH2 0x38C6 JUMP JUMPDEST SWAP1 POP SWAP2 SWAP1 POP JUMP JUMPDEST PUSH32 0x746F6B656E20696420646F6573206E6F74206578697374000000000000000000 PUSH0 DUP3 ADD MSTORE POP JUMP JUMPDEST PUSH0 PUSH2 0x393A PUSH1 0x17 DUP4 PUSH2 0x2AB2 JUMP JUMPDEST SWAP2 POP PUSH2 0x3945 DUP3 PUSH2 0x3906 JUMP JUMPDEST PUSH1 0x20 DUP3 ADD SWAP1 POP SWAP2 SWAP1 POP JUMP JUMPDEST PUSH0 PUSH1 0x20 DUP3 ADD SWAP1 POP DUP2 DUP2 SUB PUSH0 DUP4 ADD MSTORE PUSH2 0x3967 DUP2 PUSH2 0x392E JUMP JUMPDEST SWAP1 POP SWAP2 SWAP1 POP JUMP JUMPDEST PUSH32 0x50726F6F66207265717565737420646F6573206E6F7420657869737400000000 PUSH0 DUP3 ADD MSTORE POP JUMP JUMPDEST PUSH0 PUSH2 0x39A2 PUSH1 0x1C DUP4 PUSH2 0x2AB2 JUMP JUMPDEST SWAP2 POP PUSH2 0x39AD DUP3 PUSH2 0x396E JUMP JUMPDEST PUSH1 0x20 DUP3 ADD SWAP1 POP SWAP2 SWAP1 POP JUMP JUMPDEST PUSH0 PUSH1 0x20 DUP3 ADD SWAP1 POP DUP2 DUP2 SUB PUSH0 DUP4 ADD MSTORE PUSH2 0x39CF DUP2 PUSH2 0x3996 JUMP JUMPDEST SWAP1 POP SWAP2 SWAP1 POP JUMP JUMPDEST PUSH0 PUSH1 0x40 DUP3 ADD SWAP1 POP PUSH2 0x39E9 PUSH0 DUP4 ADD DUP6 PUSH2 0x29A2 JUMP JUMPDEST PUSH2 0x39F6 PUSH1 0x20 DUP4 ADD DUP5 PUSH2 0x29A2 JUMP JUMPDEST SWAP4 SWAP3 POP POP POP JUMP JUMPDEST PUSH32 0x496E76616C696420616464726573730000000000000000000000000000000000 PUSH0 DUP3 ADD MSTORE POP JUMP JUMPDEST PUSH0 PUSH2 0x3A31 PUSH1 0xF DUP4 PUSH2 0x2AB2 JUMP JUMPDEST SWAP2 POP PUSH2 0x3A3C DUP3 PUSH2 0x39FD JUMP JUMPDEST PUSH1 0x20 DUP3 ADD SWAP1 POP SWAP2 SWAP1 POP JUMP JUMPDEST PUSH0 PUSH1 0x20 DUP3 ADD SWAP1 POP DUP2 DUP2 SUB PUSH0 DUP4 ADD MSTORE PUSH2 0x3A5E DUP2 PUSH2 0x3A25 JUMP JUMPDEST SWAP1 POP SWAP2 SWAP1 POP JUMP JUMPDEST PUSH32 0x4164647265737320697320616C726561647920616E2061646D696E0000000000 PUSH0 DUP3 ADD MSTORE POP JUMP JUMPDEST PUSH0 PUSH2 0x3A99 PUSH1 0x1B DUP4 PUSH2 0x2AB2 JUMP JUMPDEST SWAP2 POP PUSH2 0x3AA4 DUP3 PUSH2 0x3A65 JUMP JUMPDEST PUSH1 0x20 DUP3 ADD SWAP1 POP SWAP2 SWAP1 POP JUMP JUMPDEST PUSH0 PUSH1 0x20 DUP3 ADD SWAP1 POP DUP2 DUP2 SUB PUSH0 DUP4 ADD MSTORE PUSH2 0x3AC6 DUP2 PUSH2 0x3A8D JUMP JUMPDEST SWAP1 POP SWAP2 SWAP1 POP JUMP JUMPDEST PUSH0 DUP3 SWAP1 POP SWAP3 SWAP2 POP POP JUMP JUMPDEST PUSH0 DUP2 SWAP1 POP DUP2 PUSH0 MSTORE PUSH1 0x20 PUSH0 KECCAK256 SWAP1 POP SWAP2 SWAP1 POP JUMP JUMPDEST PUSH0 PUSH1 0x20 PUSH1 0x1F DUP4 ADD DIV SWAP1 POP SWAP2 SWAP1 POP JUMP JUMPDEST PUSH0 DUP3 DUP3 SHL SWAP1 POP SWAP3 SWAP2 POP POP JUMP JUMPDEST PUSH0 PUSH1 0x8 DUP4 MUL PUSH2 0x3B33 PUSH32 0xFFFFFFFFFFFFFFFFFFFFFFFFFFFFFFFFFFFFFFFFFFFFFFFFFFFFFFFFFFFFFFFF DUP3 PUSH2 0x3AF8 JUMP JUMPDEST PUSH2 0x3B3D DUP7 DUP4 PUSH2 0x3AF8 JUMP JUMPDEST SWAP6 POP DUP1 NOT DUP5 AND SWAP4 POP DUP1 DUP7 AND DUP5 OR SWAP3 POP POP POP SWAP4 SWAP3 POP POP POP JUMP JUMPDEST PUSH0 PUSH2 0x3B6F PUSH2 0x3B6A PUSH2 0x3B65 DUP5 PUSH2 0x2931 JUMP JUMPDEST PUSH2 0x2B63 JUMP JUMPDEST PUSH2 0x2931 JUMP JUMPDEST SWAP1 POP SWAP2 SWAP1 POP JUMP JUMPDEST PUSH0 DUP2 SWAP1 POP SWAP2 SWAP1 POP JUMP JUMPDEST PUSH2 0x3B88 DUP4 PUSH2 0x3B55 JUMP JUMPDEST PUSH2 0x3B9C PUSH2 0x3B94 DUP3 PUSH2 0x3B76 JUMP JUMPDEST DUP5 DUP5 SLOAD PUSH2 0x3B04 JUMP JUMPDEST DUP3 SSTORE POP POP POP POP JUMP JUMPDEST PUSH0 PUSH0 SWAP1 POP SWAP1 JUMP JUMPDEST PUSH2 0x3BB3 PUSH2 0x3BA4 JUMP JUMPDEST PUSH2 0x3BBE DUP2 DUP5 DUP5 PUSH2 0x3B7F JUMP JUMPDEST POP POP POP JUMP JUMPDEST JUMPDEST DUP2 DUP2 LT ISZERO PUSH2 0x3BE1 JUMPI PUSH2 0x3BD6 PUSH0 DUP3 PUSH2 0x3BAB JUMP JUMPDEST PUSH1 0x1 DUP2 ADD SWAP1 POP PUSH2 0x3BC4 JUMP JUMPDEST POP POP JUMP JUMPDEST PUSH1 0x1F DUP3 GT ISZERO PUSH2 0x3C26 JUMPI PUSH2 0x3BF7 DUP2 PUSH2 0x3AD7 JUMP JUMPDEST PUSH2 0x3C00 DUP5 PUSH2 0x3AE9 JUMP JUMPDEST DUP2 ADD PUSH1 0x20 DUP6 LT ISZERO PUSH2 0x3C0F JUMPI DUP2 SWAP1 POP JUMPDEST PUSH2 0x3C23 PUSH2 0x3C1B DUP6 PUSH2 0x3AE9 JUMP JUMPDEST DUP4 ADD DUP3 PUSH2 0x3BC3 JUMP JUMPDEST POP POP JUMPDEST POP POP POP JUMP JUMPDEST PUSH0 DUP3 DUP3 SHR SWAP1 POP SWAP3 SWAP2 POP POP JUMP JUMPDEST PUSH0 PUSH2 0x3C46 PUSH0 NOT DUP5 PUSH1 0x8 MUL PUSH2 0x3C2B JUMP JUMPDEST NOT DUP1 DUP4 AND SWAP2 POP POP SWAP3 SWAP2 POP POP JUMP JUMPDEST PUSH0 PUSH2 0x3C5E DUP4 DUP4 PUSH2 0x3C37 JUMP JUMPDEST SWAP2 POP DUP3 PUSH1 0x2 MUL DUP3 OR SWAP1 POP SWAP3 SWAP2 POP POP JUMP JUMPDEST PUSH2 0x3C78 DUP4 DUP4 PUSH2 0x3ACD JUMP JUMPDEST PUSH8 0xFFFFFFFFFFFFFFFF DUP2 GT ISZERO PUSH2 0x3C91 JUMPI PUSH2 0x3C90 PUSH2 0x2BDB JUMP JUMPDEST JUMPDEST PUSH2 0x3C9B DUP3 SLOAD PUSH2 0x3630 JUMP JUMPDEST PUSH2 0x3CA6 DUP3 DUP3 DUP6 PUSH2 0x3BE5 JUMP JUMPDEST PUSH0 PUSH1 0x1F DUP4 GT PUSH1 0x1 DUP2 EQ PUSH2 0x3CD3 JUMPI PUSH0 DUP5 ISZERO PUSH2 0x3CC1 JUMPI DUP3 DUP8 ADD CALLDATALOAD SWAP1 POP JUMPDEST PUSH2 0x3CCB DUP6 DUP3 PUSH2 0x3C53 JUMP JUMPDEST DUP7 SSTORE POP PUSH2 0x3D32 JUMP JUMPDEST PUSH1 0x1F NOT DUP5 AND PUSH2 0x3CE1 DUP7 PUSH2 0x3AD7 JUMP JUMPDEST PUSH0 JUMPDEST DUP3 DUP2 LT ISZERO PUSH2 0x3D08 JUMPI DUP5 DUP10 ADD CALLDATALOAD DUP3 SSTORE PUSH1 0x1 DUP3 ADD SWAP2 POP PUSH1 0x20 DUP6 ADD SWAP5 POP PUSH1 0x20 DUP2 ADD SWAP1 POP PUSH2 0x3CE3 JUMP JUMPDEST DUP7 DUP4 LT ISZERO PUSH2 0x3D25 JUMPI DUP5 DUP10 ADD CALLDATALOAD PUSH2 0x3D21 PUSH1 0x1F DUP10 AND DUP3 PUSH2 0x3C37 JUMP JUMPDEST DUP4 SSTORE POP JUMPDEST PUSH1 0x1 PUSH1 0x2 DUP9 MUL ADD DUP9 SSTORE POP POP POP JUMPDEST POP POP POP POP POP POP POP JUMP JUMPDEST PUSH32 0x50726F6F66207265717565737420616C72656164792065786973747300000000 PUSH0 DUP3 ADD MSTORE POP JUMP JUMPDEST PUSH0 PUSH2 0x3D6F PUSH1 0x1C DUP4 PUSH2 0x2AB2 JUMP JUMPDEST SWAP2 POP PUSH2 0x3D7A DUP3 PUSH2 0x3D3B JUMP JUMPDEST PUSH1 0x20 DUP3 ADD SWAP1 POP SWAP2 SWAP1 POP JUMP JUMPDEST PUSH0 PUSH1 0x20 DUP3 ADD SWAP1 POP DUP2 DUP2 SUB PUSH0 DUP4 ADD MSTORE PUSH2 0x3D9C DUP2 PUSH2 0x3D63 JUMP JUMPDEST SWAP1 POP SWAP2 SWAP1 POP JUMP JUMPDEST PUSH0 PUSH1 0x40 DUP3 ADD SWAP1 POP PUSH2 0x3DB6 PUSH0 DUP4 ADD DUP6 PUSH2 0x32CE JUMP JUMPDEST PUSH2 0x3DC3 PUSH1 0x20 DUP4 ADD DUP5 PUSH2 0x34BA JUMP JUMPDEST SWAP4 SWAP3 POP POP POP JUMP JUMPDEST PUSH0 PUSH0 REVERT JUMPDEST PUSH0 PUSH0 REVERT JUMPDEST PUSH0 DUP2 MLOAD SWAP1 POP PUSH2 0x3DE0 DUP2 PUSH2 0x3452 JUMP JUMPDEST SWAP3 SWAP2 POP POP JUMP JUMPDEST PUSH0 PUSH8 0xFFFFFFFFFFFFFFFF DUP3 GT ISZERO PUSH2 0x3E00 JUMPI PUSH2 0x3DFF PUSH2 0x2BDB JUMP JUMPDEST JUMPDEST PUSH2 0x3E09 DUP3 PUSH2 0x2AD0 JUMP JUMPDEST SWAP1 POP PUSH1 0x20 DUP2 ADD SWAP1 POP SWAP2 SWAP1 POP JUMP JUMPDEST PUSH0 PUSH2 0x3E28 PUSH2 0x3E23 DUP5 PUSH2 0x3DE6 JUMP JUMPDEST PUSH2 0x2C39 JUMP JUMPDEST SWAP1 POP DUP3 DUP2 MSTORE PUSH1 0x20 DUP2 ADD DUP5 DUP5 DUP5 ADD GT ISZERO PUSH2 0x3E44 JUMPI PUSH2 0x3E43 PUSH2 0x2D17 JUMP JUMPDEST JUMPDEST PUSH2 0x3E4F DUP5 DUP3 DUP6 PUSH2 0x2AC2 JUMP JUMPDEST POP SWAP4 SWAP3 POP POP POP JUMP JUMPDEST PUSH0 DUP3 PUSH1 0x1F DUP4 ADD SLT PUSH2 0x3E6B JUMPI PUSH2 0x3E6A PUSH2 0x2BD7 JUMP JUMPDEST JUMPDEST DUP2 MLOAD PUSH2 0x3E7B DUP5 DUP3 PUSH1 0x20 DUP7 ADD PUSH2 0x3E16 JUMP JUMPDEST SWAP2 POP POP SWAP3 SWAP2 POP POP JUMP JUMPDEST PUSH0 DUP2 MLOAD SWAP1 POP PUSH2 0x3E92 DUP2 PUSH2 0x293A JUMP JUMPDEST SWAP3 SWAP2 POP POP JUMP JUMPDEST PUSH0 PUSH1 0x80 DUP3 DUP5 SUB SLT ISZERO PUSH2 0x3EAD JUMPI PUSH2 0x3EAC PUSH2 0x3DCA JUMP JUMPDEST JUMPDEST PUSH2 0x3EB7 PUSH1 0x80 PUSH2 0x2C39 JUMP JUMPDEST SWAP1 POP PUSH0 PUSH2 0x3EC6 DUP5 DUP3 DUP6 ADD PUSH2 0x3DD2 JUMP JUMPDEST PUSH0 DUP4 ADD MSTORE POP PUSH1 0x20 DUP3 ADD MLOAD PUSH8 0xFFFFFFFFFFFFFFFF DUP2 GT ISZERO PUSH2 0x3EE9 JUMPI PUSH2 0x3EE8 PUSH2 0x3DCE JUMP JUMPDEST JUMPDEST PUSH2 0x3EF5 DUP5 DUP3 DUP6 ADD PUSH2 0x3E57 JUMP JUMPDEST PUSH1 0x20 DUP4 ADD MSTORE POP PUSH1 0x40 PUSH2 0x3F09 DUP5 DUP3 DUP6 ADD PUSH2 0x3E84 JUMP JUMPDEST PUSH1 0x40 DUP4 ADD MSTORE POP PUSH1 0x60 PUSH2 0x3F1D DUP5 DUP3 DUP6 ADD PUSH2 0x3E84 JUMP JUMPDEST PUSH1 0x60 DUP4 ADD MSTORE POP SWAP3 SWAP2 POP POP JUMP JUMPDEST PUSH0 PUSH1 0x20 DUP3 DUP5 SUB SLT ISZERO PUSH2 0x3F3E JUMPI PUSH2 0x3F3D PUSH2 0x28CF JUMP JUMPDEST JUMPDEST PUSH0 DUP3 ADD MLOAD PUSH8 0xFFFFFFFFFFFFFFFF DUP2 GT ISZERO PUSH2 0x3F5B JUMPI PUSH2 0x3F5A PUSH2 0x28D3 JUMP JUMPDEST JUMPDEST PUSH2 0x3F67 DUP5 DUP3 DUP6 ADD PUSH2 0x3E98 JUMP JUMPDEST SWAP2 POP POP SWAP3 SWAP2 POP POP JUMP JUMPDEST PUSH0 PUSH1 0x40 DUP3 ADD SWAP1 POP PUSH2 0x3F83 PUSH0 DUP4 ADD DUP6 PUSH2 0x34BA JUMP JUMPDEST PUSH2 0x3F90 PUSH1 0x20 DUP4 ADD DUP5 PUSH2 0x32CE JUMP JUMPDEST SWAP4 SWAP3 POP POP POP JUMP JUMPDEST PUSH0 PUSH1 0x40 DUP3 ADD SWAP1 POP PUSH2 0x3FAA PUSH0 DUP4 ADD DUP6 PUSH2 0x32CE JUMP JUMPDEST PUSH2 0x3FB7 PUSH1 0x20 DUP4 ADD DUP5 PUSH2 0x32CE JUMP JUMPDEST SWAP4 SWAP3 POP POP POP JUMP JUMPDEST PUSH0 PUSH1 0x80 DUP3 ADD SWAP1 POP PUSH2 0x3FD1 PUSH0 DUP4 ADD DUP8 PUSH2 0x32CE JUMP JUMPDEST PUSH2 0x3FDE PUSH1 0x20 DUP4 ADD DUP7 PUSH2 0x29A2 JUMP JUMPDEST PUSH2 0x3FEB PUSH1 0x40 DUP4 ADD DUP6 PUSH2 0x29A2 JUMP JUMPDEST PUSH2 0x3FF8 PUSH1 0x60 DUP4 ADD DUP5 PUSH2 0x29A2 JUMP JUMPDEST SWAP6 SWAP5 POP POP POP POP POP JUMP JUMPDEST PUSH0 PUSH2 0x400B DUP3 PUSH2 0x2931 JUMP JUMPDEST SWAP2 POP PUSH2 0x4016 DUP4 PUSH2 0x2931 JUMP JUMPDEST SWAP3 POP DUP3 DUP3 ADD SWAP1 POP DUP1 DUP3 GT ISZERO PUSH2 0x402E JUMPI PUSH2 0x402D PUSH2 0x368D JUMP JUMPDEST JUMPDEST SWAP3 SWAP2 POP POP JUMP JUMPDEST PUSH0 PUSH1 0x40 DUP3 ADD SWAP1 POP DUP2 DUP2 SUB PUSH0 DUP4 ADD MSTORE PUSH2 0x404C DUP2 DUP6 PUSH2 0x3175 JUMP JUMPDEST SWAP1 POP DUP2 DUP2 SUB PUSH1 0x20 DUP4 ADD MSTORE PUSH2 0x4060 DUP2 DUP5 PUSH2 0x3175 JUMP JUMPDEST SWAP1 POP SWAP4 SWAP3 POP POP POP JUMP JUMPDEST PUSH0 DUP2 MLOAD SWAP1 POP SWAP2 SWAP1 POP JUMP JUMPDEST PUSH0 DUP3 DUP3 MSTORE PUSH1 0x20 DUP3 ADD SWAP1 POP SWAP3 SWAP2 POP POP JUMP JUMPDEST PUSH0 PUSH2 0x408D DUP3 PUSH2 0x4069 JUMP JUMPDEST PUSH2 0x4097 DUP2 DUP6 PUSH2 0x4073 JUMP JUMPDEST SWAP4 POP PUSH2 0x40A7 DUP2 DUP6 PUSH1 0x20 DUP7 ADD PUSH2 0x2AC2 JUMP JUMPDEST PUSH2 0x40B0 DUP2 PUSH2 0x2AD0 JUMP JUMPDEST DUP5 ADD SWAP2 POP POP SWAP3 SWAP2 POP POP JUMP JUMPDEST PUSH0 PUSH1 0xA0 DUP3 ADD SWAP1 POP PUSH2 0x40CE PUSH0 DUP4 ADD DUP9 PUSH2 0x32CE JUMP JUMPDEST PUSH2 0x40DB PUSH1 0x20 DUP4 ADD DUP8 PUSH2 0x32CE JUMP JUMPDEST PUSH2 0x40E8 PUSH1 0x40 DUP4 ADD DUP7 PUSH2 0x29A2 JUMP JUMPDEST PUSH2 0x40F5 PUSH1 0x60 DUP4 ADD DUP6 PUSH2 0x29A2 JUMP JUMPDEST DUP2 DUP2 SUB PUSH1 0x80 DUP4 ADD MSTORE PUSH2 0x4107 DUP2 DUP5 PUSH2 0x4083 JUMP JUMPDEST SWAP1 POP SWAP7 SWAP6 POP POP POP POP POP POP JUMP JUMPDEST PUSH0 DUP2 MLOAD SWAP1 POP PUSH2 0x4121 DUP2 PUSH2 0x29F5 JUMP JUMPDEST SWAP3 SWAP2 POP POP JUMP JUMPDEST PUSH0 PUSH1 0x20 DUP3 DUP5 SUB SLT ISZERO PUSH2 0x413C JUMPI PUSH2 0x413B PUSH2 0x28CF JUMP JUMPDEST JUMPDEST PUSH0 PUSH2 0x4149 DUP5 DUP3 DUP6 ADD PUSH2 0x4113 JUMP JUMPDEST SWAP2 POP POP SWAP3 SWAP2 POP POP JUMP JUMPDEST PUSH0 PUSH1 0xA0 DUP3 ADD SWAP1 POP PUSH2 0x4165 PUSH0 DUP4 ADD DUP9 PUSH2 0x32CE JUMP JUMPDEST PUSH2 0x4172 PUSH1 0x20 DUP4 ADD DUP8 PUSH2 0x32CE JUMP JUMPDEST DUP2 DUP2 SUB PUSH1 0x40 DUP4 ADD MSTORE PUSH2 0x4184 DUP2 DUP7 PUSH2 0x3175 JUMP JUMPDEST SWAP1 POP DUP2 DUP2 SUB PUSH1 0x60 DUP4 ADD MSTORE PUSH2 0x4198 DUP2 DUP6 PUSH2 0x3175 JUMP JUMPDEST SWAP1 POP DUP2 DUP2 SUB PUSH1 0x80 DUP4 ADD MSTORE PUSH2 0x41AC DUP2 DUP5 PUSH2 0x4083 JUMP JUMPDEST SWAP1 POP SWAP7 SWAP6 POP POP POP POP POP POP JUMP INVALID LOG2 PUSH5 0x6970667358 0x22 SLT KECCAK256 DUP15 0xD0 0x4B DUP16 REVERT GT 0xBD 0xEF PUSH5 0x1AA7A88F3C PUSH6 0xA89F93BBC368 DUP7 MOD ADDRESS 0xC1 MOD 0x4E PC MCOPY PUSH6 0x94D164736F6C PUSH4 0x4300081B STOP CALLER "
	},
	"Assembly": ".code\n  PUSH 80\t\t\tcontract PMUniversalVerifier i...\n  PUSH 40\t\t\tcontract PMUniversalVerifier i...\n  MSTORE \t\t\tcontract PMUniversalVerifier i...\n  CALLVALUE \t\t\ttructor(UniversalVerifier veri...\n  DUP1 \t\t\ttructor(UniversalVerifier veri...\n  ISZERO \t\t\ttructor(UniversalVerifier veri...\n  PUSH [tag] 1\t\t\ttructor(UniversalVerifier veri...\n  JUMPI \t\t\ttructor(UniversalVerifier veri...\n  PUSH 0\t\t\ttructor(UniversalVerifier veri...\n  PUSH 0\t\t\ttructor(UniversalVerifier veri...\n  REVERT \t\t\ttructor(UniversalVerifier veri...\ntag 1\t\t\ttructor(UniversalVerifier veri...\n  JUMPDEST \t\t\ttructor(UniversalVerifier veri...\n  POP \t\t\ttructor(UniversalVerifier veri...\n  PUSH 40\t\t\ttructor(UniversalVerifier veri...\n  MLOAD \t\t\ttructor(UniversalVerifier veri...\n  PUSHSIZE \t\t\ttructor(UniversalVerifier veri...\n  CODESIZE \t\t\ttructor(UniversalVerifier veri...\n  SUB \t\t\ttructor(UniversalVerifier veri...\n  DUP1 \t\t\ttructor(UniversalVerifier veri...\n  PUSHSIZE \t\t\ttructor(UniversalVerifier veri...\n  DUP4 \t\t\ttructor(UniversalVerifier veri...\n  CODECOPY \t\t\ttructor(UniversalVerifier veri...\n  DUP2 \t\t\ttructor(UniversalVerifier veri...\n  DUP2 \t\t\ttructor(UniversalVerifier veri...\n  ADD \t\t\ttructor(UniversalVerifier veri...\n  PUSH 40\t\t\ttructor(UniversalVerifier veri...\n  MSTORE \t\t\ttructor(UniversalVerifier veri...\n  DUP2 \t\t\ttructor(UniversalVerifier veri...\n  ADD \t\t\ttructor(UniversalVerifier veri...\n  SWAP1 \t\t\ttructor(UniversalVerifier veri...\n  PUSH [tag] 2\t\t\ttructor(UniversalVerifier veri...\n  SWAP2 \t\t\ttructor(UniversalVerifier veri...\n  SWAP1 \t\t\ttructor(UniversalVerifier veri...\n  PUSH [tag] 3\t\t\ttructor(UniversalVerifier veri...\n  JUMP \t\t\ttructor(UniversalVerifier veri...\ntag 2\t\t\ttructor(UniversalVerifier veri...\n  JUMPDEST \t\t\ttructor(UniversalVerifier veri...\n  DUP2 \t\t\tialOwner)\\r\\n \n  DUP2 \t\t\t)\\r\\n \n  PUSH [tag] 8\t\t\t _admin) publ\n  DUP2 \t\t\t pub\n  PUSH [tag] 9\t\t\t _admin\n  PUSH 20\t\t\t _admin\n  SHL \t\t\t _admin\n  PUSH 20\t\t\t _admin) publ\n  SHR \t\t\t _admin) publ\n  JUMP \t\t\t _admin) publ\ntag 8\t\t\t _admin) publ\n  JUMPDEST \t\t\t _admin) publ\n  POP \t\t\ter can add.\\r\\n    function ad...\n  PUSH 0\t\t\tn\n  PUSH FFFFFFFFFFFFFFFFFFFFFFFFFFFFFFFFFFFFFFFF\t\t\tn addAdmin(address _admin)\n  AND \t\t\tn addAdmin(address _admin)\n  DUP2 \t\t\tn addAdmin(a\n  PUSH FFFFFFFFFFFFFFFFFFFFFFFFFFFFFFFFFFFFFFFF\t\t\tn addAdmin(address _admin)\n  AND \t\t\tn addAdmin(address _admin)\n  SUB \t\t\tn addAdmin(address _admin)\n  PUSH [tag] 11\t\t\tction addAdmin(address _admin)...\n  JUMPI \t\t\tction addAdmin(address _admin)...\n  PUSH 0\t\t\te\n  PUSH 40\t\t\t      require(_admin != addres...\n  MLOAD \t\t\t      require(_admin != addres...\n  PUSH 1E4FBDF700000000000000000000000000000000000000000000000000000000\t\t\t      require(_admin != addres...\n  DUP2 \t\t\t      require(_admin != addres...\n  MSTORE \t\t\t      require(_admin != addres...\n  PUSH 4\t\t\t      require(_admin != addres...\n  ADD \t\t\t      require(_admin != addres...\n  PUSH [tag] 12\t\t\t      require(_admin != addres...\n  SWAP2 \t\t\t      require(_admin != addres...\n  SWAP1 \t\t\t      require(_admin != addres...\n  PUSH [tag] 13\t\t\t      require(_admin != addres...\n  JUMP \t\t\t      require(_admin != addres...\ntag 12\t\t\t      require(_admin != addres...\n  JUMPDEST \t\t\t      require(_admin != addres...\n  PUSH 40\t\t\t      require(_admin != addres...\n  MLOAD \t\t\t      require(_admin != addres...\n  DUP1 \t\t\t      require(_admin != addres...\n  SWAP2 \t\t\t      require(_admin != addres...\n  SUB \t\t\t      require(_admin != addres...\n  SWAP1 \t\t\t      require(_admin != addres...\n  REVERT \t\t\t      require(_admin != addres...\ntag 11\t\t\tction addAdmin(address _admin)...\n  JUMPDEST \t\t\tction addAdmin(address _admin)...\n  PUSH [tag] 14\t\t\ts\");\\r\\n        require(!_isAd...\n  DUP2 \t\t\tre(!_isAdmin\n  PUSH [tag] 15\t\t\ts\");\\r\\n        requ\n  PUSH 20\t\t\ts\");\\r\\n        requ\n  SHL \t\t\ts\");\\r\\n        requ\n  PUSH 20\t\t\ts\");\\r\\n        require(!_isAd...\n  SHR \t\t\ts\");\\r\\n        require(!_isAd...\n  JUMP \t\t\ts\");\\r\\n        require(!_isAd...\ntag 14\t\t\ts\");\\r\\n        require(!_isAd...\n  JUMPDEST \t\t\ts\");\\r\\n        require(!_isAd...\n  POP \t\t\tin address. Only the owner can...\n  DUP3 \t\t\tfier_;\\r\\n \n  PUSH A\t\t\tfier = v\n  PUSH 0\t\t\tfier = v\n  PUSH 100\t\t\tfier = verifier_;\\r\\n \n  EXP \t\t\tfier = verifier_;\\r\\n \n  DUP2 \t\t\tfier = verifier_;\\r\\n \n  SLOAD \t\t\tfier = verifier_;\\r\\n \n  DUP2 \t\t\tfier = verifier_;\\r\\n \n  PUSH FFFFFFFFFFFFFFFFFFFFFFFFFFFFFFFFFFFFFFFF\t\t\tfier = verifier_;\\r\\n \n  MUL \t\t\tfier = verifier_;\\r\\n \n  NOT \t\t\tfier = verifier_;\\r\\n \n  AND \t\t\tfier = verifier_;\\r\\n \n  SWAP1 \t\t\tfier = verifier_;\\r\\n \n  DUP4 \t\t\tfier = verifier_;\\r\\n \n  PUSH FFFFFFFFFFFFFFFFFFFFFFFFFFFFFFFFFFFFFFFF\t\t\tfier = verifier_;\\r\\n \n  AND \t\t\tfier = verifier_;\\r\\n \n  MUL \t\t\tfier = verifier_;\\r\\n \n  OR \t\t\tfier = verifier_;\\r\\n \n  SWAP1 \t\t\tfier = verifier_;\\r\\n \n  SSTORE \t\t\tfier = verifier_;\\r\\n \n  POP \t\t\tfier = verifier_;\\r\\n \n  POP \t\t\ttructor(UniversalVerifier veri...\n  POP \t\t\ttructor(UniversalVerifier veri...\n  POP \t\t\ttructor(UniversalVerifier veri...\n  PUSH [tag] 17\t\t\tcontract PMUniversalVerifier i...\n  JUMP \t\t\tcontract PMUniversalVerifier i...\ntag 9\t\t\t\n  JUMPDEST \t\t\t\n  DUP1 \t\t\t\n  PUSH 2\t\t\t\n  SWAP1 \t\t\t\n  DUP2 \t\t\t\n  PUSH [tag] 19\t\t\t\n  SWAP2 \t\t\t\n  SWAP1 \t\t\t\n  PUSH [tag] 20\t\t\t\n  JUMP \t\t\t\ntag 19\t\t\t\n  JUMPDEST \t\t\t\n  POP \t\t\t\n  POP \t\t\t\n  JUMP \t\t\t\ntag 15\t\t\tRequest_address;\\r\\n\\r\\n    //...\n  JUMPDEST \t\t\tRequest_address;\\r\\n\\r\\n    //...\n  PUSH 0\t\t\tteration.\\r\\n    u\n  PUSH 3\t\t\t64[] p\n  PUSH 0\t\t\t64[] p\n  SWAP1 \t\t\t64[] p\n  SLOAD \t\t\t64[] p\n  SWAP1 \t\t\t64[] p\n  PUSH 100\t\t\t64[] p\n  EXP \t\t\t64[] p\n  SWAP1 \t\t\t64[] p\n  DIV \t\t\t64[] p\n  PUSH FFFFFFFFFFFFFFFFFFFFFFFFFFFFFFFFFFFFFFFF\t\t\t64[] p\n  AND \t\t\t64[] p\n  SWAP1 \t\t\tteration.\\r\\n    uint64[] p\n  POP \t\t\tteration.\\r\\n    uint64[] p\n  DUP2 \t\t\tDs;\\r\\n\\r\\n \n  PUSH 3\t\t\tfReque\n  PUSH 0\t\t\tfReque\n  PUSH 100\t\t\tfRequestIDs;\\r\\n\\r\\n \n  EXP \t\t\tfRequestIDs;\\r\\n\\r\\n \n  DUP2 \t\t\tfRequestIDs;\\r\\n\\r\\n \n  SLOAD \t\t\tfRequestIDs;\\r\\n\\r\\n \n  DUP2 \t\t\tfRequestIDs;\\r\\n\\r\\n \n  PUSH FFFFFFFFFFFFFFFFFFFFFFFFFFFFFFFFFFFFFFFF\t\t\tfRequestIDs;\\r\\n\\r\\n \n  MUL \t\t\tfRequestIDs;\\r\\n\\r\\n \n  NOT \t\t\tfRequestIDs;\\r\\n\\r\\n \n  AND \t\t\tfRequestIDs;\\r\\n\\r\\n \n  SWAP1 \t\t\tfRequestIDs;\\r\\n\\r\\n \n  DUP4 \t\t\tfRequestIDs;\\r\\n\\r\\n \n  PUSH FFFFFFFFFFFFFFFFFFFFFFFFFFFFFFFFFFFFFFFF\t\t\tfRequestIDs;\\r\\n\\r\\n \n  AND \t\t\tfRequestIDs;\\r\\n\\r\\n \n  MUL \t\t\tfRequestIDs;\\r\\n\\r\\n \n  OR \t\t\tfRequestIDs;\\r\\n\\r\\n \n  SWAP1 \t\t\tfRequestIDs;\\r\\n\\r\\n \n  SSTORE \t\t\tfRequestIDs;\\r\\n\\r\\n \n  POP \t\t\tfRequestIDs;\\r\\n\\r\\n \n  DUP2 \t\t\tnding pr\n  PUSH FFFFFFFFFFFFFFFFFFFFFFFFFFFFFFFFFFFFFFFF\t\t\t proof request and the corresp...\n  AND \t\t\t proof request and the corresp...\n  DUP2 \t\t\te corres\n  PUSH FFFFFFFFFFFFFFFFFFFFFFFFFFFFFFFFFFFFFFFF\t\t\t proof request and the corresp...\n  AND \t\t\t proof request and the corresp...\n  PUSH 8BE0079C531659141344CD1FD0A4F28419497F9722A3DAAFE3B4186F6B6457E0\t\t\t proof request and the corresp...\n  PUSH 40\t\t\t proof request and the corresp...\n  MLOAD \t\t\t proof request and the corresp...\n  PUSH 40\t\t\t proof request and the corresp...\n  MLOAD \t\t\t proof request and the corresp...\n  DUP1 \t\t\t proof request and the corresp...\n  SWAP2 \t\t\t proof request and the corresp...\n  SUB \t\t\t proof request and the corresp...\n  SWAP1 \t\t\t proof request and the corresp...\n  LOG3 \t\t\t proof request and the corresp...\n  POP \t\t\tonly for iteration.\\r\\n    uin...\n  POP \t\t\tRequest_address;\\r\\n\\r\\n    //...\n  JUMP \t\t\tRequest_address;\\r\\n\\r\\n    //...\ntag 22\t\t\t-License-IDentifier: MIT\\r\\npr...\n  JUMPDEST \t\t\t-License-IDentifier: MIT\\r\\npr...\n  PUSH 0\t\t\tsolidi\n  PUSH 40\t\t\tt \n  MLOAD \t\t\t\\nimport \"\n  SWAP1 \t\t\t<0.9.0;\\r\\n\\r\\nimport \"\n  POP \t\t\t<0.9.0;\\r\\n\\r\\nimport \"\n  SWAP1 \t\t\t-License-IDentifier: MIT\\r\\npr...\n  JUMP \t\t\t-License-IDentifier: MIT\\r\\npr...\ntag 23\t\t\tn/contracts/access/Ownable.sol...\n  JUMPDEST \t\t\tn/contracts/access/Ownable.sol...\n  PUSH 0\t\t\t\\n\n  PUSH 0\t\t\t'\n  REVERT \t\t\t155.sol';\\r\\ni\ntag 24\t\t\ttiveTypeUtils} from '@iden3/co...\n  JUMPDEST \t\t\ttiveTypeUtils} from '@iden3/co...\n  PUSH 0\t\t\to\n  PUSH 0\t\t\t3\n  REVERT \t\t\t '@iden3/con\ntag 25\t\t\tfaces/ICircuitValidator.sol';\\...\n  JUMPDEST \t\t\tfaces/ICircuitValidator.sol';\\...\n  PUSH 0\t\t\t {Embed\n  PUSH FFFFFFFFFFFFFFFFFFFFFFFFFFFFFFFFFFFFFFFF\t\t\tracts/verifiers/EmbeddedZKPVer...\n  DUP3 \t\t\tn3/co\n  AND \t\t\t@iden3/contracts/verifiers/Emb...\n  SWAP1 \t\t\tier} from '@iden3/contracts/ve...\n  POP \t\t\tier} from '@iden3/contracts/ve...\n  SWAP2 \t\t\tfaces/ICircuitValidator.sol';\\...\n  SWAP1 \t\t\tfaces/ICircuitValidator.sol';\\...\n  POP \t\t\tfaces/ICircuitValidator.sol';\\...\n  JUMP \t\t\tfaces/ICircuitValidator.sol';\\...\ntag 26\t\t\tersalVerifier} from '@iden3/co...\n  JUMPDEST \t\t\tersalVerifier} from '@iden3/co...\n  PUSH 0\t\t\t/verifi\n  PUSH [tag] 68\t\t\tsol';\\r\\nimport \"@openzepp\n  DUP3 \t\t\tenzep\n  PUSH [tag] 25\t\t\tsol';\\r\\nimport \"@openzepp\n  JUMP \t\t\tsol';\\r\\nimport \"@openzepp\ntag 68\t\t\tsol';\\r\\nimport \"@openzepp\n  JUMPDEST \t\t\tsol';\\r\\nimport \"@openzepp\n  SWAP1 \t\t\talVerifier.sol';\\r\\nimport \"@o...\n  POP \t\t\talVerifier.sol';\\r\\nimport \"@o...\n  SWAP2 \t\t\tersalVerifier} from '@iden3/co...\n  SWAP1 \t\t\tersalVerifier} from '@iden3/co...\n  POP \t\t\tersalVerifier} from '@iden3/co...\n  JUMP \t\t\tersalVerifier} from '@iden3/co...\ntag 27\t\t\tts/utils/structs/EnumerableSet...\n  JUMPDEST \t\t\tts/utils/structs/EnumerableSet...\n  PUSH 0\t\t\tifier i\n  PUSH [tag] 70\t\t\t    address[] private ad\n  DUP3 \t\t\tate a\n  PUSH [tag] 26\t\t\t    address[] private ad\n  JUMP \t\t\t    address[] private ad\ntag 70\t\t\t    address[] private ad\n  JUMPDEST \t\t\t    address[] private ad\n  SWAP1 \t\t\tOwnable {\\r\\n    address[] pri...\n  POP \t\t\tOwnable {\\r\\n    address[] pri...\n  SWAP2 \t\t\tts/utils/structs/EnumerableSet...\n  SWAP1 \t\t\tts/utils/structs/EnumerableSet...\n  POP \t\t\tts/utils/structs/EnumerableSet...\n  JUMP \t\t\tts/utils/structs/EnumerableSet...\ntag 28\t\t\t // Getter function for the ad...\n  JUMPDEST \t\t\t // Getter function for the ad...\n  PUSH [tag] 72\t\t\tlic view onlyOwner returns (ad...\n  DUP2 \t\t\t) {\\r\\n\n  PUSH [tag] 27\t\t\tlic view onlyOwner returns (ad...\n  JUMP \t\t\tlic view onlyOwner returns (ad...\ntag 72\t\t\tlic view onlyOwner returns (ad...\n  JUMPDEST \t\t\tlic view onlyOwner returns (ad...\n  DUP2 \t\t\ts() p\n  EQ \t\t\tmins() public view onlyOwner r...\n  PUSH [tag] 73\t\t\ttion getAdmins() public view o...\n  JUMPI \t\t\ttion getAdmins() public view o...\n  PUSH 0\t\t\td\n  PUSH 0\t\t\tn\n  REVERT \t\t\t  return adm\ntag 73\t\t\ttion getAdmins() public view o...\n  JUMPDEST \t\t\ttion getAdmins() public view o...\n  POP \t\t\t // Getter function for the ad...\n  JUMP \t\t\t // Getter function for the ad...\ntag 29\t\t\t\\n    // Internal helper funct...\n  JUMPDEST \t\t\t\\n    // Internal helper funct...\n  PUSH 0\t\t\t_isAd\n  DUP2 \t\t\tal vie\n  MLOAD \t\t\tinternal view\n  SWAP1 \t\t\t _admin) internal view\n  POP \t\t\t _admin) internal view\n  PUSH [tag] 75\t\t\t(bool) {\\r\\n        for (uint ...\n  DUP2 \t\t\t i++)\n  PUSH [tag] 28\t\t\t(bool) {\\r\\n        for (uint ...\n  JUMP \t\t\t(bool) {\\r\\n        for (uint ...\ntag 75\t\t\t(bool) {\\r\\n        for (uint ...\n  JUMPDEST \t\t\t(bool) {\\r\\n        for (uint ...\n  SWAP3 \t\t\t\\n    // Internal helper funct...\n  SWAP2 \t\t\t\\n    // Internal helper funct...\n  POP \t\t\t\\n    // Internal helper funct...\n  POP \t\t\t\\n    // Internal helper funct...\n  JUMP \t\t\t\\n    // Internal helper funct...\ntag 30\t\t\t   if (admins[i] == _admin) {\\...\n  JUMPDEST \t\t\t   if (admins[i] == _admin) {\\...\n  PUSH [tag] 77\t\t\t}\\r\\n        }\\r\\n        re\n  DUP2 \t\t\t    r\n  PUSH [tag] 26\t\t\t}\\r\\n        }\\r\\n        re\n  JUMP \t\t\t}\\r\\n        }\\r\\n        re\ntag 77\t\t\t}\\r\\n        }\\r\\n        re\n  JUMPDEST \t\t\t}\\r\\n        }\\r\\n        re\n  DUP2 \t\t\t     \n  EQ \t\t\t          }\\r\\n        }\\r\\n  ...\n  PUSH [tag] 78\t\t\t true;\\r\\n            }\\r\\n   ...\n  JUMPI \t\t\t true;\\r\\n            }\\r\\n   ...\n  PUSH 0\t\t\t \n  PUSH 0\t\t\t\\n\n  REVERT \t\t\tfalse;\\r\\n    \ntag 78\t\t\t true;\\r\\n            }\\r\\n   ...\n  JUMPDEST \t\t\t true;\\r\\n            }\\r\\n   ...\n  POP \t\t\t   if (admins[i] == _admin) {\\...\n  JUMP \t\t\t   if (admins[i] == _admin) {\\...\ntag 31\t\t\tnction to add an admin address...\n  JUMPDEST \t\t\tnction to add an admin address...\n  PUSH 0\t\t\t    f\n  DUP2 \t\t\tadmin)\n  MLOAD \t\t\tress _admin) \n  SWAP1 \t\t\tAdmin(address _admin) \n  POP \t\t\tAdmin(address _admin) \n  PUSH [tag] 80\t\t\tlyOwner {\\r\\n        require(_...\n  DUP2 \t\t\t_admi\n  PUSH [tag] 30\t\t\tlyOwner {\\r\\n        require(_...\n  JUMP \t\t\tlyOwner {\\r\\n        require(_...\ntag 80\t\t\tlyOwner {\\r\\n        require(_...\n  JUMPDEST \t\t\tlyOwner {\\r\\n        require(_...\n  SWAP3 \t\t\tnction to add an admin address...\n  SWAP2 \t\t\tnction to add an admin address...\n  POP \t\t\tnction to add an admin address...\n  POP \t\t\tnction to add an admin address...\n  JUMP \t\t\tnction to add an admin address...\ntag 32\t\t\t0), \"Invalid address\");\\r\\n   ...\n  JUMPDEST \t\t\t0), \"Invalid address\");\\r\\n   ...\n  PUSH 0\t\t\tu\n  PUSH 0\t\t\ts\n  REVERT \t\t\t  admins.pus\ntag 33\t\t\t    }\\r\\n\\r\\n    // Function t...\n  JUMPDEST \t\t\t    }\\r\\n\\r\\n    // Function t...\n  PUSH 0\t\t\tr\n  PUSH 0\t\t\ta\n  REVERT \t\t\teAdmin(addre\ntag 34\t\t\tublic onlyOwner {\\r\\n        u...\n  JUMPDEST \t\t\tublic onlyOwner {\\r\\n        u...\n  PUSH 0\t\t\tins.le\n  PUSH 1F\t\t\t {\n  NOT \t\t\ti++) {\\r\n  PUSH 1F\t\t\tle\n  DUP4 \t\t\t0; i \n  ADD \t\t\ti = 0; i < len\n  AND \t\t\tint i = 0; i < len; i++) {\\r\\n\n  SWAP1 \t\t\t    for (uint i = 0; i < len; ...\n  POP \t\t\t    for (uint i = 0; i < len; ...\n  SWAP2 \t\t\tublic onlyOwner {\\r\\n        u...\n  SWAP1 \t\t\tublic onlyOwner {\\r\\n        u...\n  POP \t\t\tublic onlyOwner {\\r\\n        u...\n  JUMP \t\t\tublic onlyOwner {\\r\\n        u...\ntag 35\t\t\tif (admins[i] == _admin) {\\r\\n...\n  JUMPDEST \t\t\tif (admins[i] == _admin) {\\r\\n...\n  PUSH 4E487B7100000000000000000000000000000000000000000000000000000000\t\t\tns[i] = admins[len - 1];\\r\\n  ...\n  PUSH 0\t\t\td\n  MSTORE \t\t\t      admins[i] = admins[len -...\n  PUSH 41\t\t\t    \n  PUSH 4\t\t\t}\n  MSTORE \t\t\t       }\\r\\n     \n  PUSH 24\t\t\tt(\"A\n  PUSH 0\t\t\tv\n  REVERT \t\t\t     revert(\"Ad\ntag 36\t\t\td\");\\r\\n    }\\r\\n\\r\\n    // Mo...\n  JUMPDEST \t\t\td\");\\r\\n    }\\r\\n\\r\\n    // Mo...\n  PUSH [tag] 86\t\t\t list.\\r\\n    modifier onlyAd\n  DUP3 \t\t\tnlyA\n  PUSH [tag] 34\t\t\t list.\\r\\n    modifier onlyAd\n  JUMP \t\t\t list.\\r\\n    modifier onlyAd\ntag 86\t\t\t list.\\r\\n    modifier onlyAd\n  JUMPDEST \t\t\t list.\\r\\n    modifier onlyAd\n  DUP2 \t\t\the adm\n  ADD \t\t\tin the admin list.\\r\\n    modi...\n  DUP2 \t\t\tng Enu\n  DUP2 \t\t\t}\\r\\n\\r\\n    u\n  LT \t\t\t   }\\r\\n\\r\\n    using Enum\n  PUSH FFFFFFFFFFFFFFFF\t\t\tmin\");\\r\\n        _;\n  DUP3 \t\t\tis not an \n  GT \t\t\ter is not an admin\");\\r\\n     ...\n  OR \t\t\taller is not an admin\");\\r\\n  ...\n  ISZERO \t\t\t \"Caller is not an admin\");\\r\\...\n  PUSH [tag] 87\t\t\t \"Caller is not an admin\");\\r\\...\n  JUMPI \t\t\t \"Caller is not an admin\");\\r\\...\n  PUSH [tag] 88\t\t\tleSet for Enumerab\n  PUSH [tag] 35\t\t\tleSet for Enumerab\n  JUMP \t\t\tleSet for Enumerab\ntag 88\t\t\tleSet for Enumerab\n  JUMPDEST \t\t\tleSet for Enumerab\ntag 87\t\t\t \"Caller is not an admin\");\\r\\...\n  JUMPDEST \t\t\t \"Caller is not an admin\");\\r\\...\n  DUP1 \t\t\t// A set o\n  PUSH 40\t\t\t  \n  MSTORE \t\t\tet;\\r\\n\\r\\n    // A set of\n  POP \t\t\tfunctions to only addresses in...\n  POP \t\t\td\");\\r\\n    }\\r\\n\\r\\n    // Mo...\n  POP \t\t\td\");\\r\\n    }\\r\\n\\r\\n    // Mo...\n  JUMP \t\t\td\");\\r\\n    }\\r\\n\\r\\n    // Mo...\ntag 37\t\t\tDs that have ever been minted\\...\n  JUMPDEST \t\t\tDs that have ever been minted\\...\n  PUSH 0\t\t\t Enume\n  PUSH [tag] 90\t\t\tate _allTokenIDs;\\r\\n\\r\n  PUSH [tag] 22\t\t\tate _allTokenIDs;\\r\\n\\r\n  JUMP \t\t\tate _allTokenIDs;\\r\\n\\r\ntag 90\t\t\tate _allTokenIDs;\\r\\n\\r\n  JUMPDEST \t\t\tate _allTokenIDs;\\r\\n\\r\n  SWAP1 \t\t\tntSet private _allTokenIDs;\\r\\...\n  POP \t\t\tntSet private _allTokenIDs;\\r\\...\n  PUSH [tag] 91\t\t\t@notice Returns the full list ...\n  DUP3 \t\t\tt of\n  DUP3 \t\t\tfull l\n  PUSH [tag] 36\t\t\t@notice Returns the full list ...\n  JUMP \t\t\t@notice Returns the full list ...\ntag 91\t\t\t@notice Returns the full list ...\n  JUMPDEST \t\t\t@notice Returns the full list ...\n  SWAP2 \t\t\tDs that have ever been minted\\...\n  SWAP1 \t\t\tDs that have ever been minted\\...\n  POP \t\t\tDs that have ever been minted\\...\n  JUMP \t\t\tDs that have ever been minted\\...\ntag 38\t\t\ter minted\\r\\n    function allT...\n  JUMPDEST \t\t\ter minted\\r\\n    function allT...\n  PUSH 0\t\t\tint2\n  PUSH FFFFFFFFFFFFFFFF\t\t\tken ID to its name\n  DUP3 \t\t\t from \n  GT \t\t\ting from token ID to its name.\n  ISZERO \t\t\tapping from token ID to its na...\n  PUSH [tag] 93\t\t\tapping from token ID to its na...\n  JUMPI \t\t\tapping from token ID to its na...\n  PUSH [tag] 94\t\t\tt the token name a\n  PUSH [tag] 35\t\t\tt the token name a\n  JUMP \t\t\tt the token name a\ntag 94\t\t\tt the token name a\n  JUMPDEST \t\t\tt the token name a\ntag 93\t\t\tapping from token ID to its na...\n  JUMPDEST \t\t\tapping from token ID to its na...\n  PUSH [tag] 95\t\t\tcan be stored as uri \\r\\n    m...\n  DUP3 \t\t\t\\n    m\n  PUSH [tag] 34\t\t\tcan be stored as uri \\r\\n    m...\n  JUMP \t\t\tcan be stored as uri \\r\\n    m...\ntag 95\t\t\tcan be stored as uri \\r\\n    m...\n  JUMPDEST \t\t\tcan be stored as uri \\r\\n    m...\n  SWAP1 \t\t\tributes can be stored as uri \\...\n  POP \t\t\tributes can be stored as uri \\...\n  PUSH 20\t\t\tppin\n  DUP2 \t\t\t // \n  ADD \t\t\t\\n    // Mapping\n  SWAP1 \t\t\tName;\\r\\n\\r\\n    // Mapping\n  POP \t\t\tName;\\r\\n\\r\\n    // Mapping\n  SWAP2 \t\t\ter minted\\r\\n    function allT...\n  SWAP1 \t\t\ter minted\\r\\n    function allT...\n  POP \t\t\ter minted\\r\\n    function allT...\n  JUMP \t\t\ter minted\\r\\n    function allT...\ntag 39\t\t\t to proof_request_id to a wall...\n  JUMPDEST \t\t\t to proof_request_id to a wall...\n  DUP3 \t\t\tReques\n  DUP2 \t\t\tpro\n  DUP4 \t\t\tD →\n  MCOPY \t\t\ttokenID → (proofRequest\n  PUSH 0\t\t\td\n  DUP4 \t\t\t // Th\n  DUP4 \t\t\t\\r\\n \n  ADD \t\t\tess)\\r\\n    // The\n  MSTORE \t\t\ter address)\\r\\n    // The add\n  POP \t\t\t to proof_request_id to a wall...\n  POP \t\t\t to proof_request_id to a wall...\n  POP \t\t\t to proof_request_id to a wall...\n  JUMP \t\t\t to proof_request_id to a wall...\ntag 40\t\t\tn be a token sender, a token r...\n  JUMPDEST \t\t\tn be a token sender, a token r...\n  PUSH 0\t\t\tmappi\n  PUSH [tag] 98\t\t\t)) public tokenID_proofRequest...\n  PUSH [tag] 99\t\t\tD_proofRequest_address;\\r\\n\\r\\...\n  DUP5 \t\t\t to st\n  PUSH [tag] 38\t\t\tD_proofRequest_address;\\r\\n\\r\\...\n  JUMP \t\t\tD_proofRequest_address;\\r\\n\\r\\...\ntag 99\t\t\tD_proofRequest_address;\\r\\n\\r\\...\n  JUMPDEST \t\t\tD_proofRequest_address;\\r\\n\\r\\...\n  PUSH [tag] 37\t\t\t)) public tokenID_proofRequest...\n  JUMP \t\t\t)) public tokenID_proofRequest...\ntag 98\t\t\t)) public tokenID_proofRequest...\n  JUMPDEST \t\t\t)) public tokenID_proofRequest...\n  SWAP1 \t\t\t> address)) public tokenID_pro...\n  POP \t\t\t> address)) public tokenID_pro...\n  DUP3 \t\t\ty for \n  DUP2 \t\t\tids o\n  MSTORE \t\t\tequest_ids only for i\n  PUSH 20\t\t\tproo\n  DUP2 \t\t\tpubli\n  ADD \t\t\t4[] public proof\n  DUP5 \t\t\troo\n  DUP5 \t\t\td a ne\n  DUP5 \t\t\t// \n  ADD \t\t\t    // Add a new\n  GT \t\t\t\\n\\r\\n    // Add a new proof\n  ISZERO \t\t\ts;\\r\\n\\r\\n    // Add a new pro...\n  PUSH [tag] 100\t\t\ts;\\r\\n\\r\\n    // Add a new pro...\n  JUMPI \t\t\ts;\\r\\n\\r\\n    // Add a new pro...\n  PUSH [tag] 101\t\t\tquest and the corresponding pr...\n  PUSH [tag] 33\t\t\tquest and the corresponding pr...\n  JUMP \t\t\tquest and the corresponding pr...\ntag 101\t\t\tquest and the corresponding pr...\n  JUMPDEST \t\t\tquest and the corresponding pr...\ntag 100\t\t\ts;\\r\\n\\r\\n    // Add a new pro...\n  JUMPDEST \t\t\ts;\\r\\n\\r\\n    // Add a new pro...\n  PUSH [tag] 102\t\t\t accordingly.\\r\\n    function ...\n  DUP5 \t\t\tdAddre\n  DUP3 \t\t\test\n  DUP6 \t\t\tfRe\n  PUSH [tag] 39\t\t\t accordingly.\\r\\n    function ...\n  JUMP \t\t\t accordingly.\\r\\n    function ...\ntag 102\t\t\t accordingly.\\r\\n    function ...\n  JUMPDEST \t\t\t accordingly.\\r\\n    function ...\n  POP \t\t\tg(uint64 => address)) public t...\n  SWAP4 \t\t\tn be a token sender, a token r...\n  SWAP3 \t\t\tn be a token sender, a token r...\n  POP \t\t\tn be a token sender, a token r...\n  POP \t\t\tn be a token sender, a token r...\n  POP \t\t\tn be a token sender, a token r...\n  JUMP \t\t\tn be a token sender, a token r...\ntag 41\t\t\trequestID, address prover) pub...\n  JUMPDEST \t\t\trequestID, address prover) pub...\n  PUSH 0\t\t\tToken\n  DUP3 \t\t\tist\n  PUSH 1F\t\t\t not\n  DUP4 \t\t\t id do\n  ADD \t\t\token id does not \n  SLT \t\t\t, \"token id does not exist\"\n  PUSH [tag] 104\t\t\ts(tokenID), \"token id does not...\n  JUMPI \t\t\ts(tokenID), \"token id does not...\n  PUSH [tag] 105\t\t\t        require(tokenID_proofR...\n  PUSH [tag] 32\t\t\t        require(tokenID_proofR...\n  JUMP \t\t\t        require(tokenID_proofR...\ntag 105\t\t\t        require(tokenID_proofR...\n  JUMPDEST \t\t\t        require(tokenID_proofR...\ntag 104\t\t\ts(tokenID), \"token id does not...\n  JUMPDEST \t\t\ts(tokenID), \"token id does not...\n  DUP2 \t\t\t);\\r\\n  \n  MLOAD \t\t\txists\");\\r\\n   \n  PUSH [tag] 106\t\t\tRequest_address[tokenID][reque...\n  DUP5 \t\t\t;\\r\\n\n  DUP3 \t\t\tquestI\n  PUSH 20\t\t\tpush\n  DUP7 \t\t\tuestID\n  ADD \t\t\tfRequestIDs.push(\n  PUSH [tag] 40\t\t\tRequest_address[tokenID][reque...\n  JUMP \t\t\tRequest_address[tokenID][reque...\ntag 106\t\t\tRequest_address[tokenID][reque...\n  JUMPDEST \t\t\tRequest_address[tokenID][reque...\n  SWAP2 \t\t\tnID_proofRequest_address[token...\n  POP \t\t\tnID_proofRequest_address[token...\n  POP \t\t\tDs.contains(tokenID), \"token i...\n  SWAP3 \t\t\trequestID, address prover) pub...\n  SWAP2 \t\t\trequestID, address prover) pub...\n  POP \t\t\trequestID, address prover) pub...\n  POP \t\t\trequestID, address prover) pub...\n  JUMP \t\t\trequestID, address prover) pub...\ntag 3\t\t\t    // Delete a proof request ...\n  JUMPDEST \t\t\t    // Delete a proof request ...\n  PUSH 0\t\t\t delet\n  PUSH 0\t\t\troofRe\n  PUSH 0\t\t\testAnd\n  PUSH 60\t\t\tpu\n  DUP5 \t\t\t requestI\n  DUP7 \t\t\tD, uint\n  SUB \t\t\tkenID, uint64 requestID\n  SLT \t\t\t6 tokenID, uint64 requestID) p...\n  ISZERO \t\t\tt256 tokenID, uint64 requestID...\n  PUSH [tag] 108\t\t\tt256 tokenID, uint64 requestID...\n  JUMPI \t\t\tt256 tokenID, uint64 requestID...\n  PUSH [tag] 109\t\t\t onlyAdmin {\\r\\n        requir...\n  PUSH [tag] 23\t\t\t onlyAdmin {\\r\\n        requir...\n  JUMP \t\t\t onlyAdmin {\\r\\n        requir...\ntag 109\t\t\t onlyAdmin {\\r\\n        requir...\n  JUMPDEST \t\t\t onlyAdmin {\\r\\n        requir...\ntag 108\t\t\tt256 tokenID, uint64 requestID...\n  JUMPDEST \t\t\tt256 tokenID, uint64 requestID...\n  PUSH 0\t\t\tR\n  PUSH [tag] 110\t\t\trequestID] != address(0), \"Pro...\n  DUP7 \t\t\t_proofR\n  DUP3 \t\t\te toke\n  DUP8 \t\t\t      del\n  ADD \t\t\t\\r\\n        delete token\n  PUSH [tag] 29\t\t\trequestID] != address(0), \"Pro...\n  JUMP \t\t\trequestID] != address(0), \"Pro...\ntag 110\t\t\trequestID] != address(0), \"Pro...\n  JUMPDEST \t\t\trequestID] != address(0), \"Pro...\n  SWAP4 \t\t\t[tokenID][requestID] != addres...\n  POP \t\t\t[tokenID][requestID] != addres...\n  POP \t\t\t        require(tokenID_proofR...\n  PUSH 20\t\t\tmo\n  PUSH [tag] 111\t\t\tap-and-pop technique)\\r\\n     ...\n  DUP7 \t\t\troofReq\n  DUP3 \t\t\t 0; i \n  DUP8 \t\t\tuint256 i\n  ADD \t\t\tor (uint256 i = 0; i <\n  PUSH [tag] 31\t\t\tap-and-pop technique)\\r\\n     ...\n  JUMP \t\t\tap-and-pop technique)\\r\\n     ...\ntag 111\t\t\tap-and-pop technique)\\r\\n     ...\n  JUMPDEST \t\t\tap-and-pop technique)\\r\\n     ...\n  SWAP3 \t\t\t array (swap-and-pop technique...\n  POP \t\t\t array (swap-and-pop technique...\n  POP \t\t\tD][requestID];\\r\\n        // R...\n  PUSH 40\t\t\t) \n  DUP5 \t\t\t= request\n  ADD \t\t\ti] == requestID) {\n  MLOAD \t\t\tstIDs[i] == requestID) {\\r\n  PUSH FFFFFFFFFFFFFFFF\t\t\tstIDs[i] = proofRe\n  DUP2 \t\t\toofReq\n  GT \t\t\t proofRequestIDs[i] = proofReq\n  ISZERO \t\t\t    proofRequestIDs[i] = proof...\n  PUSH [tag] 112\t\t\t    proofRequestIDs[i] = proof...\n  JUMPI \t\t\t    proofRequestIDs[i] = proof...\n  PUSH [tag] 113\t\t\ttIDs[proofRequestIDs.length - ...\n  PUSH [tag] 24\t\t\ttIDs[proofRequestIDs.length - ...\n  JUMP \t\t\ttIDs[proofRequestIDs.length - ...\ntag 113\t\t\ttIDs[proofRequestIDs.length - ...\n  JUMPDEST \t\t\ttIDs[proofRequestIDs.length - ...\ntag 112\t\t\t    proofRequestIDs[i] = proof...\n  JUMPDEST \t\t\t    proofRequestIDs[i] = proof...\n  PUSH [tag] 114\t\t\t      }\\r\\n        }\\r\\n    }\\...\n  DUP7 \t\t\ttoken =\n  DUP3 \t\t\tfungib\n  DUP8 \t\t\tc constan\n  ADD \t\t\tublic constant fungibl\n  PUSH [tag] 41\t\t\t      }\\r\\n        }\\r\\n    }\\...\n  JUMP \t\t\t      }\\r\\n        }\\r\\n    }\\...\ntag 114\t\t\t      }\\r\\n        }\\r\\n    }\\...\n  JUMPDEST \t\t\t      }\\r\\n        }\\r\\n    }\\...\n  SWAP2 \t\t\tk;\\r\\n            }\\r\\n       ...\n  POP \t\t\tk;\\r\\n            }\\r\\n       ...\n  POP \t\t\t{\\r\\n            if (proofRequ...\n  SWAP3 \t\t\t    // Delete a proof request ...\n  POP \t\t\t    // Delete a proof request ...\n  SWAP3 \t\t\t    // Delete a proof request ...\n  POP \t\t\t    // Delete a proof request ...\n  SWAP3 \t\t\t    // Delete a proof request ...\n  JUMP \t\t\t    // Delete a proof request ...\ntag 42\t\t\tconstant non_fungible_token = ...\n  JUMPDEST \t\t\tconstant non_fungible_token = ...\n  PUSH [tag] 116\t\t\tructor(UniversalVerifier\n  DUP2 \t\t\trifie\n  PUSH [tag] 26\t\t\tructor(UniversalVerifier\n  JUMP \t\t\tructor(UniversalVerifier\ntag 116\t\t\tructor(UniversalVerifier\n  JUMPDEST \t\t\tructor(UniversalVerifier\n  DUP3 \t\t\tcon\n  MSTORE \t\t\t\\n\\r\\n    constructor(Universa...\n  POP \t\t\tconstant non_fungible_token = ...\n  POP \t\t\tconstant non_fungible_token = ...\n  JUMP \t\t\tconstant non_fungible_token = ...\ntag 13\t\t\tddress initialOwner, string me...\n  JUMPDEST \t\t\tddress initialOwner, string me...\n  PUSH 0\t\t\t\\r\\n  \n  PUSH 20\t\t\t\\r\\n\n  DUP3 \t\t\ter_;\\r\\n   \n  ADD \t\t\trifier_;\\r\\n    }\\r\\n\\r\n  SWAP1 \t\t\tier = verifier_;\\r\\n    }\\r\\n\\...\n  POP \t\t\tier = verifier_;\\r\\n    }\\r\\n\\...\n  PUSH [tag] 118\t\t\tstom error declaration (check ...\n  PUSH 0\t\t\tg\n  DUP4 \t\t\twhen mint\n  ADD \t\t\ten, when minting \n  DUP5 \t\t\tready \n  PUSH [tag] 42\t\t\tstom error declaration (check ...\n  JUMP \t\t\tstom error declaration (check ...\ntag 118\t\t\tstom error declaration (check ...\n  JUMPDEST \t\t\tstom error declaration (check ...\n  SWAP3 \t\t\tddress initialOwner, string me...\n  SWAP2 \t\t\tddress initialOwner, string me...\n  POP \t\t\tddress initialOwner, string me...\n  POP \t\t\tddress initialOwner, string me...\n  JUMP \t\t\tddress initialOwner, string me...\ntag 43\t\t\t  error TokenIDTaken(uint256 t...\n  JUMPDEST \t\t\t  error TokenIDTaken(uint256 t...\n  PUSH 0\t\t\tl this\n  DUP2 \t\t\ttoken\n  MLOAD \t\t\tg new token \n  SWAP1 \t\t\ten creating new token \n  POP \t\t\ten creating new token \n  SWAP2 \t\t\t  error TokenIDTaken(uint256 t...\n  SWAP1 \t\t\t  error TokenIDTaken(uint256 t...\n  POP \t\t\t  error TokenIDTaken(uint256 t...\n  JUMP \t\t\t  error TokenIDTaken(uint256 t...\ntag 44\t\t\ting conditions\\r\\n    function...\n  JUMPDEST \t\t\ting conditions\\r\\n    function...\n  PUSH 4E487B7100000000000000000000000000000000000000000000000000000000\t\t\ts to, uint256 ID, uint256 amou...\n  PUSH 0\t\t\tr\n  MSTORE \t\t\tken(address to, uint256 ID, ui...\n  PUSH 22\t\t\t\\r\\n  \n  PUSH 4\t\t\tr\n  MSTORE \t\t\tnlyOwner {\\r\\n   \n  PUSH 24\t\t\ten i\n  PUSH 0\t\t\tt\n  REVERT \t\t\tdd the token id\ntag 45\t\t\tnIDs. If it returns false, the...\n  JUMPDEST \t\t\tnIDs. If it returns false, the...\n  PUSH 0\t\t\tbeen t\n  PUSH 2\t\t\tT\n  DUP3 \t\t\t(!_a\n  DIV \t\t\t if (!_allTo\n  SWAP1 \t\t\t.\\r\\n        if (!_allTo\n  POP \t\t\t.\\r\\n        if (!_allTo\n  PUSH 1\t\t\tT\n  DUP3 \t\t\token\n  AND \t\t\trt TokenIDTa\n  DUP1 \t\t\t\\r\\n\\r\\n        _mint(\n  PUSH [tag] 122\t\t\t\\n        }\\r\\n\\r\\n        _mi...\n  JUMPI \t\t\t\\n        }\\r\\n\\r\\n        _mi...\n  PUSH 7F\t\t\tign \n  DUP3 \t\t\t  // a\n  AND \t\t\t      // assign a\n  SWAP2 \t\t\tdata);\\r\\n        // assign a\n  POP \t\t\tdata);\\r\\n        // assign a\ntag 122\t\t\t\\n        }\\r\\n\\r\\n        _mi...\n  JUMPDEST \t\t\t\\n        }\\r\\n\\r\\n        _mi...\n  PUSH 20\t\t\t  \n  DUP3 \t\t\tame;\\r\\n\n  LT \t\t\t= name;\\r\\n    }\n  DUP2 \t\t\t      tokenName[ID\n  SUB \t\t\t\\n        tokenName[ID] = name...\n  PUSH [tag] 123\t\t\ten\\r\\n        tokenName[ID] = ...\n  JUMPI \t\t\ten\\r\\n        tokenName[ID] = ...\n  PUSH [tag] 124\t\t\teverts with TokenI\n  PUSH [tag] 44\t\t\teverts with TokenI\n  JUMP \t\t\teverts with TokenI\ntag 124\t\t\teverts with TokenI\n  JUMPDEST \t\t\teverts with TokenI\ntag 123\t\t\ten\\r\\n        tokenName[ID] = ...\n  JUMPDEST \t\t\ten\\r\\n        tokenName[ID] = ...\n  POP \t\t\tken before.\\r\\n        if (!_a...\n  SWAP2 \t\t\tnIDs. If it returns false, the...\n  SWAP1 \t\t\tnIDs. If it returns false, the...\n  POP \t\t\tnIDs. If it returns false, the...\n  JUMP \t\t\tnIDs. If it returns false, the...\ntag 46\t\t\tsn’t been registered yet.\\r\\n ...\n  JUMPDEST \t\t\tsn’t been registered yet.\\r\\n ...\n  PUSH 0\t\t\tund(\n  DUP2 \t\t\t\\r\\n \n  SWAP1 \t\t\tenID);\\r\\n\\r\\n \n  POP \t\t\tenID);\\r\\n\\r\\n \n  DUP2 \t\t\ttin\n  PUSH 0\t\t\tx\n  MSTORE \t\t\tn mintExisting\n  PUSH 20\t\t\tuint\n  PUSH 0\t\t\tD\n  KECCAK256 \t\t\t uint256 ID, uint2\n  SWAP1 \t\t\tress to, uint256 ID, uint2\n  POP \t\t\tress to, uint256 ID, uint2\n  SWAP2 \t\t\tsn’t been registered yet.\\r\\n ...\n  SWAP1 \t\t\tsn’t been registered yet.\\r\\n ...\n  POP \t\t\tsn’t been registered yet.\\r\\n ...\n  JUMP \t\t\tsn’t been registered yet.\\r\\n ...\ntag 47\t\t\ttes calldata data) external on...\n  JUMPDEST \t\t\ttes calldata data) external on...\n  PUSH 0\t\t\t {\\r\\n  \n  PUSH 20\t\t\t  \n  PUSH 1F\t\t\t) \n  DUP4 \t\t\tins(I\n  ADD \t\t\tontains(ID)) {\n  DIV \t\t\tDs.contains(ID)) {\\r\\n   \n  SWAP1 \t\t\t_allTokenIDs.contains(ID)) {\\r...\n  POP \t\t\t_allTokenIDs.contains(ID)) {\\r...\n  SWAP2 \t\t\ttes calldata data) external on...\n  SWAP1 \t\t\ttes calldata data) external on...\n  POP \t\t\ttes calldata data) external on...\n  JUMP \t\t\ttes calldata data) external on...\ntag 48\t\t\tTokenIDNotFound(ID);\\r\\n    }\\...\n  JUMPDEST \t\t\tTokenIDNotFound(ID);\\r\\n    }\\...\n  PUSH 0\t\t\to, ID, a\n  DUP3 \t\t\taddre\n  DUP3 \t\t\t bur\n  SHL \t\t\ttion burn(addres\n  SWAP1 \t\t\t);\\r\\n    }\\r\\n\\r\\n    functio...\n  POP \t\t\t);\\r\\n    }\\r\\n\\r\\n    functio...\n  SWAP3 \t\t\tTokenIDNotFound(ID);\\r\\n    }\\...\n  SWAP2 \t\t\tTokenIDNotFound(ID);\\r\\n    }\\...\n  POP \t\t\tTokenIDNotFound(ID);\\r\\n    }\\...\n  POP \t\t\tTokenIDNotFound(ID);\\r\\n    }\\...\n  JUMP \t\t\tTokenIDNotFound(ID);\\r\\n    }\\...\ntag 49\t\t\tnt256 ID, uint256 amount) exte...\n  JUMPDEST \t\t\tnt256 ID, uint256 amount) exte...\n  PUSH 0\t\t\t, ID, \n  PUSH 8\t\t\tr\n  DUP4 \t\t\t error dec\n  MUL \t\t\tstom error declara\n  PUSH [tag] 129\t\t\tNotVerified(uint64 requestID, ...\n  PUSH FFFFFFFFFFFFFFFFFFFFFFFFFFFFFFFFFFFFFFFFFFFFFFFFFFFFFFFFFFFFFFFF\t\t\taddress proverAddress);\\r\\n   ...\n  DUP3 \t\t\trequestID\n  PUSH [tag] 48\t\t\tNotVerified(uint64 requestID, ...\n  JUMP \t\t\tNotVerified(uint64 requestID, ...\ntag 129\t\t\tNotVerified(uint64 requestID, ...\n  JUMPDEST \t\t\tNotVerified(uint64 requestID, ...\n  PUSH [tag] 130\t\t\tnID is still unverified.\\r\\n  ...\n  DUP7 \t\t\t// Use t\n  DUP4 \t\t\tfied.\\r\\n  \n  PUSH [tag] 48\t\t\tnID is still unverified.\\r\\n  ...\n  JUMP \t\t\tnID is still unverified.\\r\\n  ...\ntag 130\t\t\tnID is still unverified.\\r\\n  ...\n  JUMPDEST \t\t\tnID is still unverified.\\r\\n  ...\n  SWAP6 \t\t\toof for tokenID is still unver...\n  POP \t\t\toof for tokenID is still unver...\n  DUP1 \t\t\tncti\n  NOT \t\t\t  functio\n  DUP5 \t\t\ter.\\r\\n\n  AND \t\t\tansfer.\\r\\n    function\n  SWAP4 \t\t\t token transfer.\\r\\n    functi...\n  POP \t\t\t token transfer.\\r\\n    functi...\n  DUP1 \t\t\tnter\n  DUP7 \t\t\ttokenID)\n  AND \t\t\t256 tokenID) intern\n  DUP5 \t\t\ted(ui\n  OR \t\t\tified(uint256 tokenID) interna\n  SWAP3 \t\t\tlProofsVerified(uint256 tokenI...\n  POP \t\t\tlProofsVerified(uint256 tokenI...\n  POP \t\t\tmount);\\r\\n    }\\r\\n\\r\\n    //...\n  POP \t\t\tmount);\\r\\n    }\\r\\n\\r\\n    //...\n  SWAP4 \t\t\tnt256 ID, uint256 amount) exte...\n  SWAP3 \t\t\tnt256 ID, uint256 amount) exte...\n  POP \t\t\tnt256 ID, uint256 amount) exte...\n  POP \t\t\tnt256 ID, uint256 amount) exte...\n  POP \t\t\tnt256 ID, uint256 amount) exte...\n  JUMP \t\t\tnt256 ID, uint256 amount) exte...\ntag 50\t\t\t    // iterate memory array (t...\n  JUMPDEST \t\t\t    // iterate memory array (t...\n  PUSH 0\t\t\testIDs)\n  DUP2 \t\t\t  uin\n  SWAP1 \t\t\ts fee\\r\\n      uin\n  POP \t\t\ts fee\\r\\n      uin\n  SWAP2 \t\t\t    // iterate memory array (t...\n  SWAP1 \t\t\t    // iterate memory array (t...\n  POP \t\t\t    // iterate memory array (t...\n  JUMP \t\t\t    // iterate memory array (t...\ntag 51\t\t\t tempRequestIDs = proofRequest...\n  JUMPDEST \t\t\t tempRequestIDs = proofRequest...\n  PUSH 0\t\t\tstI\n  DUP2 \t\t\tnt256\n  SWAP1 \t\t\tfor (uint256\n  POP \t\t\tfor (uint256\n  SWAP2 \t\t\t tempRequestIDs = proofRequest...\n  SWAP1 \t\t\t tempRequestIDs = proofRequest...\n  POP \t\t\t tempRequestIDs = proofRequest...\n  JUMP \t\t\t tempRequestIDs = proofRequest...\ntag 52\t\t\ttempRequestIDs.length; i++) {\\...\n  JUMPDEST \t\t\ttempRequestIDs.length; i++) {\\...\n  PUSH 0\t\t\tve the co\n  PUSH [tag] 134\t\t\tss for this proof request ID\\r...\n  PUSH [tag] 135\t\t\trequest ID\\r\\n          if (to...\n  PUSH [tag] 136\t\t\tD\\r\\n          if (tokenID\n  DUP5 \t\t\tokenI\n  PUSH [tag] 50\t\t\tD\\r\\n          if (tokenID\n  JUMP \t\t\tD\\r\\n          if (tokenID\ntag 136\t\t\tD\\r\\n          if (tokenID\n  JUMPDEST \t\t\tD\\r\\n          if (tokenID\n  PUSH [tag] 51\t\t\trequest ID\\r\\n          if (to...\n  JUMP \t\t\trequest ID\\r\\n          if (to...\ntag 135\t\t\trequest ID\\r\\n          if (to...\n  JUMPDEST \t\t\trequest ID\\r\\n          if (to...\n  PUSH [tag] 50\t\t\tss for this proof request ID\\r...\n  JUMP \t\t\tss for this proof request ID\\r...\ntag 134\t\t\tss for this proof request ID\\r...\n  JUMPDEST \t\t\tss for this proof request ID\\r...\n  SWAP1 \t\t\t wallet address for this proof...\n  POP \t\t\t wallet address for this proof...\n  SWAP2 \t\t\ttempRequestIDs.length; i++) {\\...\n  SWAP1 \t\t\ttempRequestIDs.length; i++) {\\...\n  POP \t\t\ttempRequestIDs.length; i++) {\\...\n  JUMP \t\t\ttempRequestIDs.length; i++) {\\...\ntag 53\t\t\taddress[tokenID][tempRequestID...\n  JUMPDEST \t\t\taddress[tokenID][tempRequestID...\n  PUSH 0\t\t\tess\n  DUP2 \t\t\t addr\n  SWAP1 \t\t\t        addr\n  POP \t\t\t        addr\n  SWAP2 \t\t\taddress[tokenID][tempRequestID...\n  SWAP1 \t\t\taddress[tokenID][tempRequestID...\n  POP \t\t\taddress[tokenID][tempRequestID...\n  JUMP \t\t\taddress[tokenID][tempRequestID...\ntag 54\t\t\t tokenID_proofRequest_address[...\n  JUMPDEST \t\t\t tokenID_proofRequest_address[...\n  PUSH [tag] 139\t\t\tempRequestIDs[i]).isVerified) ...\n  DUP4 \t\t\t\\r\\n     \n  PUSH [tag] 52\t\t\tempRequestIDs[i]).isVerified) ...\n  JUMP \t\t\tempRequestIDs[i]).isVerified) ...\ntag 139\t\t\tempRequestIDs[i]).isVerified) ...\n  JUMPDEST \t\t\tempRequestIDs[i]).isVerified) ...\n  PUSH [tag] 140\t\t\terified(tempRequestIDs[i], pro...\n  PUSH [tag] 141\t\t\t\\n        }\\r\\n      }\\r\\n    ...\n  DUP3 \t\t\t }\\r\\n\\r\\n    // Ove\n  PUSH [tag] 53\t\t\t\\n        }\\r\\n      }\\r\\n    ...\n  JUMP \t\t\t\\n        }\\r\\n      }\\r\\n    ...\ntag 141\t\t\t\\n        }\\r\\n      }\\r\\n    ...\n  JUMPDEST \t\t\t\\n        }\\r\\n      }\\r\\n    ...\n  DUP5 \t\t\t      \n  DUP5 \t\t\t;\\r\\n \n  SLOAD \t\t\trover);\\r\\n  \n  PUSH [tag] 49\t\t\terified(tempRequestIDs[i], pro...\n  JUMP \t\t\terified(tempRequestIDs[i], pro...\ntag 140\t\t\terified(tempRequestIDs[i], pro...\n  JUMPDEST \t\t\terified(tempRequestIDs[i], pro...\n  DUP3 \t\t\tofNo\n  SSTORE \t\t\tert ProofNotVerified(tempReque...\n  POP \t\t\t!verifier.getProofStatus(prove...\n  POP \t\t\t tokenID_proofRequest_address[...\n  POP \t\t\t tokenID_proofRequest_address[...\n  POP \t\t\t tokenID_proofRequest_address[...\n  JUMP \t\t\t tokenID_proofRequest_address[...\ntag 55\t\t\tferFrom and include the onlyVa...\n  JUMPDEST \t\t\tferFrom and include the onlyVa...\n  PUSH 0\t\t\tier\n  PUSH 0\t\t\te\n  SWAP1 \t\t\tion safe\n  POP \t\t\tion safe\n  SWAP1 \t\t\tferFrom and include the onlyVa...\n  JUMP \t\t\tferFrom and include the onlyVa...\ntag 56\t\t\t(\\r\\n        address from,\\r\\n...\n  JUMPDEST \t\t\t(\\r\\n        address from,\\r\\n...\n  PUSH [tag] 144\t\t\t    uint256 amount,\\r\\n       ...\n  PUSH [tag] 55\t\t\t    uint256 amount,\\r\\n       ...\n  JUMP \t\t\t    uint256 amount,\\r\\n       ...\ntag 144\t\t\t    uint256 amount,\\r\\n       ...\n  JUMPDEST \t\t\t    uint256 amount,\\r\\n       ...\n  PUSH [tag] 145\t\t\t data\\r\\n    ) public virtual ...\n  DUP2 \t\t\t per-t\n  DUP5 \t\t\t Enfor\n  DUP5 \t\t\t    \n  PUSH [tag] 54\t\t\t data\\r\\n    ) public virtual ...\n  JUMP \t\t\t data\\r\\n    ) public virtual ...\ntag 145\t\t\t data\\r\\n    ) public virtual ...\n  JUMPDEST \t\t\t data\\r\\n    ) public virtual ...\n  POP \t\t\t  uint256 tokenID,\\r\\n        ...\n  POP \t\t\t(\\r\\n        address from,\\r\\n...\n  POP \t\t\t(\\r\\n        address from,\\r\\n...\n  JUMP \t\t\t(\\r\\n        address from,\\r\\n...\ntag 57\t\t\tecks\\r\\n        _checkAllProof...\n  JUMPDEST \t\t\tecks\\r\\n        _checkAllProof...\ntag 147\t\t\t/ Optionally add any additiona...\n  JUMPDEST \t\t\t/ Optionally add any additiona...\n  DUP2 \t\t\tany\n  DUP2 \t\t\tly ad\n  LT \t\t\tnally add any \n  ISZERO \t\t\t/ Optionally add any additiona...\n  PUSH [tag] 149\t\t\t/ Optionally add any additiona...\n  JUMPI \t\t\t/ Optionally add any additiona...\n  PUSH [tag] 150\t\t\tansferFrom(from, to, tokenID, ...\n  PUSH 0\t\t\t \n  DUP3 \t\t\tamoun\n  PUSH [tag] 56\t\t\tansferFrom(from, to, tokenID, ...\n  JUMP \t\t\tansferFrom(from, to, tokenID, ...\ntag 150\t\t\tansferFrom(from, to, tokenID, ...\n  JUMPDEST \t\t\tansferFrom(from, to, tokenID, ...\n  PUSH 1\t\t\t \n  DUP2 \t\t\tm log\n  ADD \t\t\tustom logic h\n  SWAP1 \t\t\titional custom logic h\n  POP \t\t\titional custom logic h\n  PUSH [tag] 147\t\t\t/ Optionally add any additiona...\n  JUMP \t\t\t/ Optionally add any additiona...\ntag 149\t\t\t/ Optionally add any additiona...\n  JUMPDEST \t\t\t/ Optionally add any additiona...\n  POP \t\t\tecks\\r\\n        _checkAllProof...\n  POP \t\t\tecks\\r\\n        _checkAllProof...\n  JUMP \t\t\tecks\\r\\n        _checkAllProof...\ntag 58\t\t\tnction safeBatchTransferFrom(\\...\n  JUMPDEST \t\t\tnction safeBatchTransferFrom(\\...\n  PUSH 1F\t\t\tok\n  DUP3 \t\t\tory\n  GT \t\t\tmemory toke\n  ISZERO \t\t\t[] memory tokenIDs,\\r\\n       ...\n  PUSH [tag] 152\t\t\t[] memory tokenIDs,\\r\\n       ...\n  JUMPI \t\t\t[] memory tokenIDs,\\r\\n       ...\n  PUSH [tag] 153\t\t\t amounts,\\r\\n        bytes mem...\n  DUP2 \t\t\tdata\\r\n  PUSH [tag] 46\t\t\t amounts,\\r\\n        bytes mem...\n  JUMP \t\t\t amounts,\\r\\n        bytes mem...\ntag 153\t\t\t amounts,\\r\\n        bytes mem...\n  JUMPDEST \t\t\t amounts,\\r\\n        bytes mem...\n  PUSH [tag] 154\t\t\tre(tokenIDs.length == amounts\n  DUP5 \t\t\t == amount\n  PUSH [tag] 47\t\t\tre(tokenIDs.length == amounts\n  JUMP \t\t\tre(tokenIDs.length == amounts\ntag 154\t\t\tre(tokenIDs.length == amounts\n  JUMPDEST \t\t\tre(tokenIDs.length == amounts\n  DUP2 \t\t\t     req\n  ADD \t\t\t\\n        require(tokenIDs.len...\n  PUSH 20\t\t\t <\n  DUP6 \t\t\t256 i = 0;\n  LT \t\t\tint256 i = 0; i < \n  ISZERO \t\t\t (uint256 i = 0; i < tokenIDs....\n  PUSH [tag] 155\t\t\t (uint256 i = 0; i < tokenIDs....\n  JUMPI \t\t\t (uint256 i = 0; i < tokenIDs....\n  DUP2 \t\t\t+i) {\\r\\n \n  SWAP1 \t\t\tenIDs.length; ++i) {\\r\\n \n  POP \t\t\tenIDs.length; ++i) {\\r\\n \ntag 155\t\t\t (uint256 i = 0; i < tokenIDs....\n  JUMPDEST \t\t\t (uint256 i = 0; i < tokenIDs....\n  PUSH [tag] 156\t\t\tnforce per-token proof checks\\...\n  PUSH [tag] 157\t\t\tfsVerified(tokenIDs[i]\n  DUP6 \t\t\ts[i\n  PUSH [tag] 47\t\t\tfsVerified(tokenIDs[i]\n  JUMP \t\t\tfsVerified(tokenIDs[i]\ntag 157\t\t\tfsVerified(tokenIDs[i]\n  JUMPDEST \t\t\tfsVerified(tokenIDs[i]\n  DUP4 \t\t\teckAllPr\n  ADD \t\t\t _checkAllProofsVerified(token...\n  DUP3 \t\t\t\\r\\n         \n  PUSH [tag] 57\t\t\tnforce per-token proof checks\\...\n  JUMP \t\t\tnforce per-token proof checks\\...\ntag 156\t\t\tnforce per-token proof checks\\...\n  JUMPDEST \t\t\tnforce per-token proof checks\\...\n  POP \t\t\tIDs,\\r\\n        uint256[] memo...\n  POP \t\t\tIDs,\\r\\n        uint256[] memo...\ntag 152\t\t\t[] memory tokenIDs,\\r\\n       ...\n  JUMPDEST \t\t\t[] memory tokenIDs,\\r\\n       ...\n  POP \t\t\tnction safeBatchTransferFrom(\\...\n  POP \t\t\tnction safeBatchTransferFrom(\\...\n  POP \t\t\tnction safeBatchTransferFrom(\\...\n  JUMP \t\t\tnction safeBatchTransferFrom(\\...\ntag 59\t\t\tferFrom(from, to, tokenIDs[i],...\n  JUMPDEST \t\t\tferFrom(from, to, tokenIDs[i],...\n  PUSH 0\t\t\t     }\\r\\n\n  DUP3 \t\t\t\n  DUP3 \t\t\t\n  SHR \t\t\t\n  SWAP1 \t\t\t\n  POP \t\t\t\n  SWAP3 \t\t\tferFrom(from, to, tokenIDs[i],...\n  SWAP2 \t\t\tferFrom(from, to, tokenIDs[i],...\n  POP \t\t\tferFrom(from, to, tokenIDs[i],...\n  POP \t\t\tferFrom(from, to, tokenIDs[i],...\n  JUMP \t\t\tferFrom(from, to, tokenIDs[i],...\ntag 60\t\t\t\n  JUMPDEST \t\t\t\n  PUSH 0\t\t\t\n  PUSH [tag] 160\t\t\t\n  PUSH 0\t\t\t\n  NOT \t\t\t\n  DUP5 \t\t\t\n  PUSH 8\t\t\t\n  MUL \t\t\t\n  PUSH [tag] 59\t\t\t\n  JUMP \t\t\t\ntag 160\t\t\t\n  JUMPDEST \t\t\t\n  NOT \t\t\t\n  DUP1 \t\t\t\n  DUP4 \t\t\t\n  AND \t\t\t\n  SWAP2 \t\t\t\n  POP \t\t\t\n  POP \t\t\t\n  SWAP3 \t\t\t\n  SWAP2 \t\t\t\n  POP \t\t\t\n  POP \t\t\t\n  JUMP \t\t\t\ntag 61\t\t\t\n  JUMPDEST \t\t\t\n  PUSH 0\t\t\t\n  PUSH [tag] 162\t\t\t\n  DUP4 \t\t\t\n  DUP4 \t\t\t\n  PUSH [tag] 60\t\t\t\n  JUMP \t\t\t\ntag 162\t\t\t\n  JUMPDEST \t\t\t\n  SWAP2 \t\t\t\n  POP \t\t\t\n  DUP3 \t\t\t\n  PUSH 2\t\t\t\n  MUL \t\t\t\n  DUP3 \t\t\t\n  OR \t\t\t\n  SWAP1 \t\t\t\n  POP \t\t\t\n  SWAP3 \t\t\t\n  SWAP2 \t\t\t\n  POP \t\t\t\n  POP \t\t\t\n  JUMP \t\t\t\ntag 20\t\t\t\n  JUMPDEST \t\t\t\n  PUSH [tag] 164\t\t\t\n  DUP3 \t\t\t\n  PUSH [tag] 43\t\t\t\n  JUMP \t\t\t\ntag 164\t\t\t\n  JUMPDEST \t\t\t\n  PUSH FFFFFFFFFFFFFFFF\t\t\t\n  DUP2 \t\t\t\n  GT \t\t\t\n  ISZERO \t\t\t\n  PUSH [tag] 165\t\t\t\n  JUMPI \t\t\t\n  PUSH [tag] 166\t\t\t\n  PUSH [tag] 35\t\t\t\n  JUMP \t\t\t\ntag 166\t\t\t\n  JUMPDEST \t\t\t\ntag 165\t\t\t\n  JUMPDEST \t\t\t\n  PUSH [tag] 167\t\t\t\n  DUP3 \t\t\t\n  SLOAD \t\t\t\n  PUSH [tag] 45\t\t\t\n  JUMP \t\t\t\ntag 167\t\t\t\n  JUMPDEST \t\t\t\n  PUSH [tag] 168\t\t\t\n  DUP3 \t\t\t\n  DUP3 \t\t\t\n  DUP6 \t\t\t\n  PUSH [tag] 58\t\t\t\n  JUMP \t\t\t\ntag 168\t\t\t\n  JUMPDEST \t\t\t\n  PUSH 0\t\t\t\n  PUSH 20\t\t\t\n  SWAP1 \t\t\t\n  POP \t\t\t\n  PUSH 1F\t\t\t\n  DUP4 \t\t\t\n  GT \t\t\t\n  PUSH 1\t\t\t\n  DUP2 \t\t\t\n  EQ \t\t\t\n  PUSH [tag] 170\t\t\t\n  JUMPI \t\t\t\n  PUSH 0\t\t\t\n  DUP5 \t\t\t\n  ISZERO \t\t\t\n  PUSH [tag] 171\t\t\t\n  JUMPI \t\t\t\n  DUP3 \t\t\t\n  DUP8 \t\t\t\n  ADD \t\t\t\n  MLOAD \t\t\t\n  SWAP1 \t\t\t\n  POP \t\t\t\ntag 171\t\t\t\n  JUMPDEST \t\t\t\n  PUSH [tag] 172\t\t\t\n  DUP6 \t\t\t\n  DUP3 \t\t\t\n  PUSH [tag] 61\t\t\t\n  JUMP \t\t\t\ntag 172\t\t\t\n  JUMPDEST \t\t\t\n  DUP7 \t\t\t\n  SSTORE \t\t\t\n  POP \t\t\t\n  PUSH [tag] 169\t\t\t\n  JUMP \t\t\t\ntag 170\t\t\t\n  JUMPDEST \t\t\t\n  PUSH 1F\t\t\t\n  NOT \t\t\t\n  DUP5 \t\t\t\n  AND \t\t\t\n  PUSH [tag] 173\t\t\t\n  DUP7 \t\t\t\n  PUSH [tag] 46\t\t\t\n  JUMP \t\t\t\ntag 173\t\t\t\n  JUMPDEST \t\t\t\n  PUSH 0\t\t\t\ntag 174\t\t\t\n  JUMPDEST \t\t\t\n  DUP3 \t\t\t\n  DUP2 \t\t\t\n  LT \t\t\t\n  ISZERO \t\t\t\n  PUSH [tag] 176\t\t\t\n  JUMPI \t\t\t\n  DUP5 \t\t\t\n  DUP10 \t\t\t\n  ADD \t\t\t\n  MLOAD \t\t\t\n  DUP3 \t\t\t\n  SSTORE \t\t\t\n  PUSH 1\t\t\t\n  DUP3 \t\t\t\n  ADD \t\t\t\n  SWAP2 \t\t\t\n  POP \t\t\t\n  PUSH 20\t\t\t\n  DUP6 \t\t\t\n  ADD \t\t\t\n  SWAP5 \t\t\t\n  POP \t\t\t\n  PUSH 20\t\t\t\n  DUP2 \t\t\t\n  ADD \t\t\t\n  SWAP1 \t\t\t\n  POP \t\t\t\n  PUSH [tag] 174\t\t\t\n  JUMP \t\t\t\ntag 176\t\t\t\n  JUMPDEST \t\t\t\n  DUP7 \t\t\t\n  DUP4 \t\t\t\n  LT \t\t\t\n  ISZERO \t\t\t\n  PUSH [tag] 177\t\t\t\n  JUMPI \t\t\t\n  DUP5 \t\t\t\n  DUP10 \t\t\t\n  ADD \t\t\t\n  MLOAD \t\t\t\n  PUSH [tag] 178\t\t\t\n  PUSH 1F\t\t\t\n  DUP10 \t\t\t\n  AND \t\t\t\n  DUP3 \t\t\t\n  PUSH [tag] 60\t\t\t\n  JUMP \t\t\t\ntag 178\t\t\t\n  JUMPDEST \t\t\t\n  DUP4 \t\t\t\n  SSTORE \t\t\t\n  POP \t\t\t\ntag 177\t\t\t\n  JUMPDEST \t\t\t\n  PUSH 1\t\t\t\n  PUSH 2\t\t\t\n  DUP9 \t\t\t\n  MUL \t\t\t\n  ADD \t\t\t\n  DUP9 \t\t\t\n  SSTORE \t\t\t\n  POP \t\t\t\n  POP \t\t\t\n  POP \t\t\t\ntag 169\t\t\t\n  JUMPDEST \t\t\t\n  POP \t\t\t\n  POP \t\t\t\n  POP \t\t\t\n  POP \t\t\t\n  POP \t\t\t\n  POP \t\t\t\n  JUMP \t\t\t\ntag 17\t\t\tcontract PMUniversalVerifier i...\n  JUMPDEST \t\t\tcontract PMUniversalVerifier i...\n  PUSH #[$] 0000000000000000000000000000000000000000000000000000000000000000\t\t\tcontract PMUniversalVerifier i...\n  DUP1 \t\t\tcontract PMUniversalVerifier i...\n  PUSH [$] 0000000000000000000000000000000000000000000000000000000000000000\t\t\tcontract PMUniversalVerifier i...\n  PUSH 0\t\t\tcontract PMUniversalVerifier i...\n  CODECOPY \t\t\tcontract PMUniversalVerifier i...\n  PUSH 0\t\t\tcontract PMUniversalVerifier i...\n  RETURN \t\t\tcontract PMUniversalVerifier i...\n.data\n  0:\n    .code\n      PUSH 80\t\t\tcontract PMUniversalVerifier i...\n      PUSH 40\t\t\tcontract PMUniversalVerifier i...\n      MSTORE \t\t\tcontract PMUniversalVerifier i...\n      CALLVALUE \t\t\tcontract PMUniversalVerifier i...\n      DUP1 \t\t\tcontract PMUniversalVerifier i...\n      ISZERO \t\t\tcontract PMUniversalVerifier i...\n      PUSH [tag] 1\t\t\tcontract PMUniversalVerifier i...\n      JUMPI \t\t\tcontract PMUniversalVerifier i...\n      PUSH 0\t\t\tcontract PMUniversalVerifier i...\n      PUSH 0\t\t\tcontract PMUniversalVerifier i...\n      REVERT \t\t\tcontract PMUniversalVerifier i...\n    tag 1\t\t\tcontract PMUniversalVerifier i...\n      JUMPDEST \t\t\tcontract PMUniversalVerifier i...\n      POP \t\t\tcontract PMUniversalVerifier i...\n      PUSH 4\t\t\tcontract PMUniversalVerifier i...\n      CALLDATASIZE \t\t\tcontract PMUniversalVerifier i...\n      LT \t\t\tcontract PMUniversalVerifier i...\n      PUSH [tag] 2\t\t\tcontract PMUniversalVerifier i...\n      JUMPI \t\t\tcontract PMUniversalVerifier i...\n      PUSH 0\t\t\tcontract PMUniversalVerifier i...\n      CALLDATALOAD \t\t\tcontract PMUniversalVerifier i...\n      PUSH E0\t\t\tcontract PMUniversalVerifier i...\n      SHR \t\t\tcontract PMUniversalVerifier i...\n      DUP1 \t\t\tcontract PMUniversalVerifier i...\n      PUSH 784008CE\t\t\tcontract PMUniversalVerifier i...\n      GT \t\t\tcontract PMUniversalVerifier i...\n      PUSH [tag] 29\t\t\tcontract PMUniversalVerifier i...\n      JUMPI \t\t\tcontract PMUniversalVerifier i...\n      DUP1 \t\t\tcontract PMUniversalVerifier i...\n      PUSH CF5219AD\t\t\tcontract PMUniversalVerifier i...\n      GT \t\t\tcontract PMUniversalVerifier i...\n      PUSH [tag] 30\t\t\tcontract PMUniversalVerifier i...\n      JUMPI \t\t\tcontract PMUniversalVerifier i...\n      DUP1 \t\t\tcontract PMUniversalVerifier i...\n      PUSH E985E9C5\t\t\tcontract PMUniversalVerifier i...\n      GT \t\t\tcontract PMUniversalVerifier i...\n      PUSH [tag] 31\t\t\tcontract PMUniversalVerifier i...\n      JUMPI \t\t\tcontract PMUniversalVerifier i...\n      DUP1 \t\t\tcontract PMUniversalVerifier i...\n      PUSH E985E9C5\t\t\tcontract PMUniversalVerifier i...\n      EQ \t\t\tcontract PMUniversalVerifier i...\n      PUSH [tag] 25\t\t\tcontract PMUniversalVerifier i...\n      JUMPI \t\t\tcontract PMUniversalVerifier i...\n      DUP1 \t\t\tcontract PMUniversalVerifier i...\n      PUSH F242432A\t\t\tcontract PMUniversalVerifier i...\n      EQ \t\t\tcontract PMUniversalVerifier i...\n      PUSH [tag] 26\t\t\tcontract PMUniversalVerifier i...\n      JUMPI \t\t\tcontract PMUniversalVerifier i...\n      DUP1 \t\t\tcontract PMUniversalVerifier i...\n      PUSH F2FDE38B\t\t\tcontract PMUniversalVerifier i...\n      EQ \t\t\tcontract PMUniversalVerifier i...\n      PUSH [tag] 27\t\t\tcontract PMUniversalVerifier i...\n      JUMPI \t\t\tcontract PMUniversalVerifier i...\n      DUP1 \t\t\tcontract PMUniversalVerifier i...\n      PUSH F5298ACA\t\t\tcontract PMUniversalVerifier i...\n      EQ \t\t\tcontract PMUniversalVerifier i...\n      PUSH [tag] 28\t\t\tcontract PMUniversalVerifier i...\n      JUMPI \t\t\tcontract PMUniversalVerifier i...\n      PUSH [tag] 2\t\t\tcontract PMUniversalVerifier i...\n      JUMP \t\t\tcontract PMUniversalVerifier i...\n    tag 31\t\t\tcontract PMUniversalVerifier i...\n      JUMPDEST \t\t\tcontract PMUniversalVerifier i...\n      DUP1 \t\t\tcontract PMUniversalVerifier i...\n      PUSH CF5219AD\t\t\tcontract PMUniversalVerifier i...\n      EQ \t\t\tcontract PMUniversalVerifier i...\n      PUSH [tag] 22\t\t\tcontract PMUniversalVerifier i...\n      JUMPI \t\t\tcontract PMUniversalVerifier i...\n      DUP1 \t\t\tcontract PMUniversalVerifier i...\n      PUSH D121CDC0\t\t\tcontract PMUniversalVerifier i...\n      EQ \t\t\tcontract PMUniversalVerifier i...\n      PUSH [tag] 23\t\t\tcontract PMUniversalVerifier i...\n      JUMPI \t\t\tcontract PMUniversalVerifier i...\n      DUP1 \t\t\tcontract PMUniversalVerifier i...\n      PUSH E725F877\t\t\tcontract PMUniversalVerifier i...\n      EQ \t\t\tcontract PMUniversalVerifier i...\n      PUSH [tag] 24\t\t\tcontract PMUniversalVerifier i...\n      JUMPI \t\t\tcontract PMUniversalVerifier i...\n      PUSH [tag] 2\t\t\tcontract PMUniversalVerifier i...\n      JUMP \t\t\tcontract PMUniversalVerifier i...\n    tag 30\t\t\tcontract PMUniversalVerifier i...\n      JUMPDEST \t\t\tcontract PMUniversalVerifier i...\n      DUP1 \t\t\tcontract PMUniversalVerifier i...\n      PUSH 784008CE\t\t\tcontract PMUniversalVerifier i...\n      EQ \t\t\tcontract PMUniversalVerifier i...\n      PUSH [tag] 16\t\t\tcontract PMUniversalVerifier i...\n      JUMPI \t\t\tcontract PMUniversalVerifier i...\n      DUP1 \t\t\tcontract PMUniversalVerifier i...\n      PUSH 8DA5CB5B\t\t\tcontract PMUniversalVerifier i...\n      EQ \t\t\tcontract PMUniversalVerifier i...\n      PUSH [tag] 17\t\t\tcontract PMUniversalVerifier i...\n      JUMPI \t\t\tcontract PMUniversalVerifier i...\n      DUP1 \t\t\tcontract PMUniversalVerifier i...\n      PUSH 8E274A18\t\t\tcontract PMUniversalVerifier i...\n      EQ \t\t\tcontract PMUniversalVerifier i...\n      PUSH [tag] 18\t\t\tcontract PMUniversalVerifier i...\n      JUMPI \t\t\tcontract PMUniversalVerifier i...\n      DUP1 \t\t\tcontract PMUniversalVerifier i...\n      PUSH 9C5416F2\t\t\tcontract PMUniversalVerifier i...\n      EQ \t\t\tcontract PMUniversalVerifier i...\n      PUSH [tag] 19\t\t\tcontract PMUniversalVerifier i...\n      JUMPI \t\t\tcontract PMUniversalVerifier i...\n      DUP1 \t\t\tcontract PMUniversalVerifier i...\n      PUSH A22CB465\t\t\tcontract PMUniversalVerifier i...\n      EQ \t\t\tcontract PMUniversalVerifier i...\n      PUSH [tag] 20\t\t\tcontract PMUniversalVerifier i...\n      JUMPI \t\t\tcontract PMUniversalVerifier i...\n      DUP1 \t\t\tcontract PMUniversalVerifier i...\n      PUSH B9BBE916\t\t\tcontract PMUniversalVerifier i...\n      EQ \t\t\tcontract PMUniversalVerifier i...\n      PUSH [tag] 21\t\t\tcontract PMUniversalVerifier i...\n      JUMPI \t\t\tcontract PMUniversalVerifier i...\n      PUSH [tag] 2\t\t\tcontract PMUniversalVerifier i...\n      JUMP \t\t\tcontract PMUniversalVerifier i...\n    tag 29\t\t\tcontract PMUniversalVerifier i...\n      JUMPDEST \t\t\tcontract PMUniversalVerifier i...\n      DUP1 \t\t\tcontract PMUniversalVerifier i...\n      PUSH 31AE450B\t\t\tcontract PMUniversalVerifier i...\n      GT \t\t\tcontract PMUniversalVerifier i...\n      PUSH [tag] 32\t\t\tcontract PMUniversalVerifier i...\n      JUMPI \t\t\tcontract PMUniversalVerifier i...\n      DUP1 \t\t\tcontract PMUniversalVerifier i...\n      PUSH 5883861D\t\t\tcontract PMUniversalVerifier i...\n      GT \t\t\tcontract PMUniversalVerifier i...\n      PUSH [tag] 33\t\t\tcontract PMUniversalVerifier i...\n      JUMPI \t\t\tcontract PMUniversalVerifier i...\n      DUP1 \t\t\tcontract PMUniversalVerifier i...\n      PUSH 5883861D\t\t\tcontract PMUniversalVerifier i...\n      EQ \t\t\tcontract PMUniversalVerifier i...\n      PUSH [tag] 12\t\t\tcontract PMUniversalVerifier i...\n      JUMPI \t\t\tcontract PMUniversalVerifier i...\n      DUP1 \t\t\tcontract PMUniversalVerifier i...\n      PUSH 70480275\t\t\tcontract PMUniversalVerifier i...\n      EQ \t\t\tcontract PMUniversalVerifier i...\n      PUSH [tag] 13\t\t\tcontract PMUniversalVerifier i...\n      JUMPI \t\t\tcontract PMUniversalVerifier i...\n      DUP1 \t\t\tcontract PMUniversalVerifier i...\n      PUSH 715018A6\t\t\tcontract PMUniversalVerifier i...\n      EQ \t\t\tcontract PMUniversalVerifier i...\n      PUSH [tag] 14\t\t\tcontract PMUniversalVerifier i...\n      JUMPI \t\t\tcontract PMUniversalVerifier i...\n      DUP1 \t\t\tcontract PMUniversalVerifier i...\n      PUSH 7578B248\t\t\tcontract PMUniversalVerifier i...\n      EQ \t\t\tcontract PMUniversalVerifier i...\n      PUSH [tag] 15\t\t\tcontract PMUniversalVerifier i...\n      JUMPI \t\t\tcontract PMUniversalVerifier i...\n      PUSH [tag] 2\t\t\tcontract PMUniversalVerifier i...\n      JUMP \t\t\tcontract PMUniversalVerifier i...\n    tag 33\t\t\tcontract PMUniversalVerifier i...\n      JUMPDEST \t\t\tcontract PMUniversalVerifier i...\n      DUP1 \t\t\tcontract PMUniversalVerifier i...\n      PUSH 31AE450B\t\t\tcontract PMUniversalVerifier i...\n      EQ \t\t\tcontract PMUniversalVerifier i...\n      PUSH [tag] 9\t\t\tcontract PMUniversalVerifier i...\n      JUMPI \t\t\tcontract PMUniversalVerifier i...\n      DUP1 \t\t\tcontract PMUniversalVerifier i...\n      PUSH 38E71640\t\t\tcontract PMUniversalVerifier i...\n      EQ \t\t\tcontract PMUniversalVerifier i...\n      PUSH [tag] 10\t\t\tcontract PMUniversalVerifier i...\n      JUMPI \t\t\tcontract PMUniversalVerifier i...\n      DUP1 \t\t\tcontract PMUniversalVerifier i...\n      PUSH 4E1273F4\t\t\tcontract PMUniversalVerifier i...\n      EQ \t\t\tcontract PMUniversalVerifier i...\n      PUSH [tag] 11\t\t\tcontract PMUniversalVerifier i...\n      JUMPI \t\t\tcontract PMUniversalVerifier i...\n      PUSH [tag] 2\t\t\tcontract PMUniversalVerifier i...\n      JUMP \t\t\tcontract PMUniversalVerifier i...\n    tag 32\t\t\tcontract PMUniversalVerifier i...\n      JUMPDEST \t\t\tcontract PMUniversalVerifier i...\n      DUP1 \t\t\tcontract PMUniversalVerifier i...\n      PUSH FDD58E\t\t\tcontract PMUniversalVerifier i...\n      EQ \t\t\tcontract PMUniversalVerifier i...\n      PUSH [tag] 3\t\t\tcontract PMUniversalVerifier i...\n      JUMPI \t\t\tcontract PMUniversalVerifier i...\n      DUP1 \t\t\tcontract PMUniversalVerifier i...\n      PUSH 1FFC9A7\t\t\tcontract PMUniversalVerifier i...\n      EQ \t\t\tcontract PMUniversalVerifier i...\n      PUSH [tag] 4\t\t\tcontract PMUniversalVerifier i...\n      JUMPI \t\t\tcontract PMUniversalVerifier i...\n      DUP1 \t\t\tcontract PMUniversalVerifier i...\n      PUSH E89341C\t\t\tcontract PMUniversalVerifier i...\n      EQ \t\t\tcontract PMUniversalVerifier i...\n      PUSH [tag] 5\t\t\tcontract PMUniversalVerifier i...\n      JUMPI \t\t\tcontract PMUniversalVerifier i...\n      DUP1 \t\t\tcontract PMUniversalVerifier i...\n      PUSH 1785F53C\t\t\tcontract PMUniversalVerifier i...\n      EQ \t\t\tcontract PMUniversalVerifier i...\n      PUSH [tag] 6\t\t\tcontract PMUniversalVerifier i...\n      JUMPI \t\t\tcontract PMUniversalVerifier i...\n      DUP1 \t\t\tcontract PMUniversalVerifier i...\n      PUSH 2B7AC3F3\t\t\tcontract PMUniversalVerifier i...\n      EQ \t\t\tcontract PMUniversalVerifier i...\n      PUSH [tag] 7\t\t\tcontract PMUniversalVerifier i...\n      JUMPI \t\t\tcontract PMUniversalVerifier i...\n      DUP1 \t\t\tcontract PMUniversalVerifier i...\n      PUSH 2EB2C2D6\t\t\tcontract PMUniversalVerifier i...\n      EQ \t\t\tcontract PMUniversalVerifier i...\n      PUSH [tag] 8\t\t\tcontract PMUniversalVerifier i...\n      JUMPI \t\t\tcontract PMUniversalVerifier i...\n    tag 2\t\t\tcontract PMUniversalVerifier i...\n      JUMPDEST \t\t\tcontract PMUniversalVerifier i...\n      PUSH 0\t\t\tcontract PMUniversalVerifier i...\n      PUSH 0\t\t\tcontract PMUniversalVerifier i...\n      REVERT \t\t\tcontract PMUniversalVerifier i...\n    tag 3\t\t\t _allTokenIDs;\\r\\n\\r\\n    /// ...\n      JUMPDEST \t\t\t _allTokenIDs;\\r\\n\\r\\n    /// ...\n      PUSH [tag] 34\t\t\t _allTokenIDs;\\r\\n\\r\\n    /// ...\n      PUSH 4\t\t\t _allTokenIDs;\\r\\n\\r\\n    /// ...\n      DUP1 \t\t\t _allTokenIDs;\\r\\n\\r\\n    /// ...\n      CALLDATASIZE \t\t\t _allTokenIDs;\\r\\n\\r\\n    /// ...\n      SUB \t\t\t _allTokenIDs;\\r\\n\\r\\n    /// ...\n      DUP2 \t\t\t _allTokenIDs;\\r\\n\\r\\n    /// ...\n      ADD \t\t\t _allTokenIDs;\\r\\n\\r\\n    /// ...\n      SWAP1 \t\t\t _allTokenIDs;\\r\\n\\r\\n    /// ...\n      PUSH [tag] 35\t\t\t _allTokenIDs;\\r\\n\\r\\n    /// ...\n      SWAP2 \t\t\t _allTokenIDs;\\r\\n\\r\\n    /// ...\n      SWAP1 \t\t\t _allTokenIDs;\\r\\n\\r\\n    /// ...\n      PUSH [tag] 36\t\t\t _allTokenIDs;\\r\\n\\r\\n    /// ...\n      JUMP \t\t\t _allTokenIDs;\\r\\n\\r\\n    /// ...\n    tag 35\t\t\t _allTokenIDs;\\r\\n\\r\\n    /// ...\n      JUMPDEST \t\t\t _allTokenIDs;\\r\\n\\r\\n    /// ...\n      PUSH [tag] 37\t\t\t _allTokenIDs;\\r\\n\\r\\n    /// ...\n      JUMP \t\t\t _allTokenIDs;\\r\\n\\r\\n    /// ...\n    tag 34\t\t\t _allTokenIDs;\\r\\n\\r\\n    /// ...\n      JUMPDEST \t\t\t _allTokenIDs;\\r\\n\\r\\n    /// ...\n      PUSH 40\t\t\t _allTokenIDs;\\r\\n\\r\\n    /// ...\n      MLOAD \t\t\t _allTokenIDs;\\r\\n\\r\\n    /// ...\n      PUSH [tag] 38\t\t\t _allTokenIDs;\\r\\n\\r\\n    /// ...\n      SWAP2 \t\t\t _allTokenIDs;\\r\\n\\r\\n    /// ...\n      SWAP1 \t\t\t _allTokenIDs;\\r\\n\\r\\n    /// ...\n      PUSH [tag] 39\t\t\t _allTokenIDs;\\r\\n\\r\\n    /// ...\n      JUMP \t\t\t _allTokenIDs;\\r\\n\\r\\n    /// ...\n    tag 38\t\t\t _allTokenIDs;\\r\\n\\r\\n    /// ...\n      JUMPDEST \t\t\t _allTokenIDs;\\r\\n\\r\\n    /// ...\n      PUSH 40\t\t\t _allTokenIDs;\\r\\n\\r\\n    /// ...\n      MLOAD \t\t\t _allTokenIDs;\\r\\n\\r\\n    /// ...\n      DUP1 \t\t\t _allTokenIDs;\\r\\n\\r\\n    /// ...\n      SWAP2 \t\t\t _allTokenIDs;\\r\\n\\r\\n    /// ...\n      SUB \t\t\t _allTokenIDs;\\r\\n\\r\\n    /// ...\n      SWAP1 \t\t\t _allTokenIDs;\\r\\n\\r\\n    /// ...\n      RETURN \t\t\t _allTokenIDs;\\r\\n\\r\\n    /// ...\n    tag 4\t\t\t\\n        require(!_isAdmin(_a...\n      JUMPDEST \t\t\t\\n        require(!_isAdmin(_a...\n      PUSH [tag] 40\t\t\t\\n        require(!_isAdmin(_a...\n      PUSH 4\t\t\t\\n        require(!_isAdmin(_a...\n      DUP1 \t\t\t\\n        require(!_isAdmin(_a...\n      CALLDATASIZE \t\t\t\\n        require(!_isAdmin(_a...\n      SUB \t\t\t\\n        require(!_isAdmin(_a...\n      DUP2 \t\t\t\\n        require(!_isAdmin(_a...\n      ADD \t\t\t\\n        require(!_isAdmin(_a...\n      SWAP1 \t\t\t\\n        require(!_isAdmin(_a...\n      PUSH [tag] 41\t\t\t\\n        require(!_isAdmin(_a...\n      SWAP2 \t\t\t\\n        require(!_isAdmin(_a...\n      SWAP1 \t\t\t\\n        require(!_isAdmin(_a...\n      PUSH [tag] 42\t\t\t\\n        require(!_isAdmin(_a...\n      JUMP \t\t\t\\n        require(!_isAdmin(_a...\n    tag 41\t\t\t\\n        require(!_isAdmin(_a...\n      JUMPDEST \t\t\t\\n        require(!_isAdmin(_a...\n      PUSH [tag] 43\t\t\t\\n        require(!_isAdmin(_a...\n      JUMP \t\t\t\\n        require(!_isAdmin(_a...\n    tag 40\t\t\t\\n        require(!_isAdmin(_a...\n      JUMPDEST \t\t\t\\n        require(!_isAdmin(_a...\n      PUSH 40\t\t\t\\n        require(!_isAdmin(_a...\n      MLOAD \t\t\t\\n        require(!_isAdmin(_a...\n      PUSH [tag] 44\t\t\t\\n        require(!_isAdmin(_a...\n      SWAP2 \t\t\t\\n        require(!_isAdmin(_a...\n      SWAP1 \t\t\t\\n        require(!_isAdmin(_a...\n      PUSH [tag] 45\t\t\t\\n        require(!_isAdmin(_a...\n      JUMP \t\t\t\\n        require(!_isAdmin(_a...\n    tag 44\t\t\t\\n        require(!_isAdmin(_a...\n      JUMPDEST \t\t\t\\n        require(!_isAdmin(_a...\n      PUSH 40\t\t\t\\n        require(!_isAdmin(_a...\n      MLOAD \t\t\t\\n        require(!_isAdmin(_a...\n      DUP1 \t\t\t\\n        require(!_isAdmin(_a...\n      SWAP2 \t\t\t\\n        require(!_isAdmin(_a...\n      SUB \t\t\t\\n        require(!_isAdmin(_a...\n      SWAP1 \t\t\t\\n        require(!_isAdmin(_a...\n      RETURN \t\t\t\\n        require(!_isAdmin(_a...\n    tag 5\t\t\t     _;\\r\\n    }\\r\\n\\r\\n    us...\n      JUMPDEST \t\t\t     _;\\r\\n    }\\r\\n\\r\\n    us...\n      PUSH [tag] 46\t\t\t     _;\\r\\n    }\\r\\n\\r\\n    us...\n      PUSH 4\t\t\t     _;\\r\\n    }\\r\\n\\r\\n    us...\n      DUP1 \t\t\t     _;\\r\\n    }\\r\\n\\r\\n    us...\n      CALLDATASIZE \t\t\t     _;\\r\\n    }\\r\\n\\r\\n    us...\n      SUB \t\t\t     _;\\r\\n    }\\r\\n\\r\\n    us...\n      DUP2 \t\t\t     _;\\r\\n    }\\r\\n\\r\\n    us...\n      ADD \t\t\t     _;\\r\\n    }\\r\\n\\r\\n    us...\n      SWAP1 \t\t\t     _;\\r\\n    }\\r\\n\\r\\n    us...\n      PUSH [tag] 47\t\t\t     _;\\r\\n    }\\r\\n\\r\\n    us...\n      SWAP2 \t\t\t     _;\\r\\n    }\\r\\n\\r\\n    us...\n      SWAP1 \t\t\t     _;\\r\\n    }\\r\\n\\r\\n    us...\n      PUSH [tag] 48\t\t\t     _;\\r\\n    }\\r\\n\\r\\n    us...\n      JUMP \t\t\t     _;\\r\\n    }\\r\\n\\r\\n    us...\n    tag 47\t\t\t     _;\\r\\n    }\\r\\n\\r\\n    us...\n      JUMPDEST \t\t\t     _;\\r\\n    }\\r\\n\\r\\n    us...\n      PUSH [tag] 49\t\t\t     _;\\r\\n    }\\r\\n\\r\\n    us...\n      JUMP \t\t\t     _;\\r\\n    }\\r\\n\\r\\n    us...\n    tag 46\t\t\t     _;\\r\\n    }\\r\\n\\r\\n    us...\n      JUMPDEST \t\t\t     _;\\r\\n    }\\r\\n\\r\\n    us...\n      PUSH 40\t\t\t     _;\\r\\n    }\\r\\n\\r\\n    us...\n      MLOAD \t\t\t     _;\\r\\n    }\\r\\n\\r\\n    us...\n      PUSH [tag] 50\t\t\t     _;\\r\\n    }\\r\\n\\r\\n    us...\n      SWAP2 \t\t\t     _;\\r\\n    }\\r\\n\\r\\n    us...\n      SWAP1 \t\t\t     _;\\r\\n    }\\r\\n\\r\\n    us...\n      PUSH [tag] 51\t\t\t     _;\\r\\n    }\\r\\n\\r\\n    us...\n      JUMP \t\t\t     _;\\r\\n    }\\r\\n\\r\\n    us...\n    tag 50\t\t\t     _;\\r\\n    }\\r\\n\\r\\n    us...\n      JUMPDEST \t\t\t     _;\\r\\n    }\\r\\n\\r\\n    us...\n      PUSH 40\t\t\t     _;\\r\\n    }\\r\\n\\r\\n    us...\n      MLOAD \t\t\t     _;\\r\\n    }\\r\\n\\r\\n    us...\n      DUP1 \t\t\t     _;\\r\\n    }\\r\\n\\r\\n    us...\n      SWAP2 \t\t\t     _;\\r\\n    }\\r\\n\\r\\n    us...\n      SUB \t\t\t     _;\\r\\n    }\\r\\n\\r\\n    us...\n      SWAP1 \t\t\t     _;\\r\\n    }\\r\\n\\r\\n    us...\n      RETURN \t\t\t     _;\\r\\n    }\\r\\n\\r\\n    us...\n    tag 6\t\t\tfunction removeAdmin(address _...\n      JUMPDEST \t\t\tfunction removeAdmin(address _...\n      PUSH [tag] 52\t\t\tfunction removeAdmin(address _...\n      PUSH 4\t\t\tfunction removeAdmin(address _...\n      DUP1 \t\t\tfunction removeAdmin(address _...\n      CALLDATASIZE \t\t\tfunction removeAdmin(address _...\n      SUB \t\t\tfunction removeAdmin(address _...\n      DUP2 \t\t\tfunction removeAdmin(address _...\n      ADD \t\t\tfunction removeAdmin(address _...\n      SWAP1 \t\t\tfunction removeAdmin(address _...\n      PUSH [tag] 53\t\t\tfunction removeAdmin(address _...\n      SWAP2 \t\t\tfunction removeAdmin(address _...\n      SWAP1 \t\t\tfunction removeAdmin(address _...\n      PUSH [tag] 54\t\t\tfunction removeAdmin(address _...\n      JUMP \t\t\tfunction removeAdmin(address _...\n    tag 53\t\t\tfunction removeAdmin(address _...\n      JUMPDEST \t\t\tfunction removeAdmin(address _...\n      PUSH [tag] 55\t\t\tfunction removeAdmin(address _...\n      JUMP \t\t\tfunction removeAdmin(address _...\n    tag 52\t\t\tfunction removeAdmin(address _...\n      JUMPDEST \t\t\tfunction removeAdmin(address _...\n      STOP \t\t\tfunction removeAdmin(address _...\n    tag 7\t\t\tersalVerifier public verifier;...\n      JUMPDEST \t\t\tersalVerifier public verifier;...\n      PUSH [tag] 56\t\t\tersalVerifier public verifier;...\n      PUSH [tag] 57\t\t\tersalVerifier public verifier;...\n      JUMP \t\t\tersalVerifier public verifier;...\n    tag 56\t\t\tersalVerifier public verifier;...\n      JUMPDEST \t\t\tersalVerifier public verifier;...\n      PUSH 40\t\t\tersalVerifier public verifier;...\n      MLOAD \t\t\tersalVerifier public verifier;...\n      PUSH [tag] 58\t\t\tersalVerifier public verifier;...\n      SWAP2 \t\t\tersalVerifier public verifier;...\n      SWAP1 \t\t\tersalVerifier public verifier;...\n      PUSH [tag] 59\t\t\tersalVerifier public verifier;...\n      JUMP \t\t\tersalVerifier public verifier;...\n    tag 58\t\t\tersalVerifier public verifier;...\n      JUMPDEST \t\t\tersalVerifier public verifier;...\n      PUSH 40\t\t\tersalVerifier public verifier;...\n      MLOAD \t\t\tersalVerifier public verifier;...\n      DUP1 \t\t\tersalVerifier public verifier;...\n      SWAP2 \t\t\tersalVerifier public verifier;...\n      SUB \t\t\tersalVerifier public verifier;...\n      SWAP1 \t\t\tersalVerifier public verifier;...\n      RETURN \t\t\tersalVerifier public verifier;...\n    tag 8\t\t\ton safeBatchTransferFrom(\\r\\n ...\n      JUMPDEST \t\t\ton safeBatchTransferFrom(\\r\\n ...\n      PUSH [tag] 60\t\t\ton safeBatchTransferFrom(\\r\\n ...\n      PUSH 4\t\t\ton safeBatchTransferFrom(\\r\\n ...\n      DUP1 \t\t\ton safeBatchTransferFrom(\\r\\n ...\n      CALLDATASIZE \t\t\ton safeBatchTransferFrom(\\r\\n ...\n      SUB \t\t\ton safeBatchTransferFrom(\\r\\n ...\n      DUP2 \t\t\ton safeBatchTransferFrom(\\r\\n ...\n      ADD \t\t\ton safeBatchTransferFrom(\\r\\n ...\n      SWAP1 \t\t\ton safeBatchTransferFrom(\\r\\n ...\n      PUSH [tag] 61\t\t\ton safeBatchTransferFrom(\\r\\n ...\n      SWAP2 \t\t\ton safeBatchTransferFrom(\\r\\n ...\n      SWAP1 \t\t\ton safeBatchTransferFrom(\\r\\n ...\n      PUSH [tag] 62\t\t\ton safeBatchTransferFrom(\\r\\n ...\n      JUMP \t\t\ton safeBatchTransferFrom(\\r\\n ...\n    tag 61\t\t\ton safeBatchTransferFrom(\\r\\n ...\n      JUMPDEST \t\t\ton safeBatchTransferFrom(\\r\\n ...\n      PUSH [tag] 63\t\t\ton safeBatchTransferFrom(\\r\\n ...\n      JUMP \t\t\ton safeBatchTransferFrom(\\r\\n ...\n    tag 60\t\t\ton safeBatchTransferFrom(\\r\\n ...\n      JUMPDEST \t\t\ton safeBatchTransferFrom(\\r\\n ...\n      STOP \t\t\ton safeBatchTransferFrom(\\r\\n ...\n    tag 9\t\t\tfunction getAdmins() public vi...\n      JUMPDEST \t\t\tfunction getAdmins() public vi...\n      PUSH [tag] 64\t\t\tfunction getAdmins() public vi...\n      PUSH [tag] 65\t\t\tfunction getAdmins() public vi...\n      JUMP \t\t\tfunction getAdmins() public vi...\n    tag 64\t\t\tfunction getAdmins() public vi...\n      JUMPDEST \t\t\tfunction getAdmins() public vi...\n      PUSH 40\t\t\tfunction getAdmins() public vi...\n      MLOAD \t\t\tfunction getAdmins() public vi...\n      PUSH [tag] 66\t\t\tfunction getAdmins() public vi...\n      SWAP2 \t\t\tfunction getAdmins() public vi...\n      SWAP1 \t\t\tfunction getAdmins() public vi...\n      PUSH [tag] 67\t\t\tfunction getAdmins() public vi...\n      JUMP \t\t\tfunction getAdmins() public vi...\n    tag 66\t\t\tfunction getAdmins() public vi...\n      JUMPDEST \t\t\tfunction getAdmins() public vi...\n      PUSH 40\t\t\tfunction getAdmins() public vi...\n      MLOAD \t\t\tfunction getAdmins() public vi...\n      DUP1 \t\t\tfunction getAdmins() public vi...\n      SWAP2 \t\t\tfunction getAdmins() public vi...\n      SUB \t\t\tfunction getAdmins() public vi...\n      SWAP1 \t\t\tfunction getAdmins() public vi...\n      RETURN \t\t\tfunction getAdmins() public vi...\n    tag 10\t\t\ttion deleteProofRequestAndAddr...\n      JUMPDEST \t\t\ttion deleteProofRequestAndAddr...\n      PUSH [tag] 68\t\t\ttion deleteProofRequestAndAddr...\n      PUSH 4\t\t\ttion deleteProofRequestAndAddr...\n      DUP1 \t\t\ttion deleteProofRequestAndAddr...\n      CALLDATASIZE \t\t\ttion deleteProofRequestAndAddr...\n      SUB \t\t\ttion deleteProofRequestAndAddr...\n      DUP2 \t\t\ttion deleteProofRequestAndAddr...\n      ADD \t\t\ttion deleteProofRequestAndAddr...\n      SWAP1 \t\t\ttion deleteProofRequestAndAddr...\n      PUSH [tag] 69\t\t\ttion deleteProofRequestAndAddr...\n      SWAP2 \t\t\ttion deleteProofRequestAndAddr...\n      SWAP1 \t\t\ttion deleteProofRequestAndAddr...\n      PUSH [tag] 70\t\t\ttion deleteProofRequestAndAddr...\n      JUMP \t\t\ttion deleteProofRequestAndAddr...\n    tag 69\t\t\ttion deleteProofRequestAndAddr...\n      JUMPDEST \t\t\ttion deleteProofRequestAndAddr...\n      PUSH [tag] 71\t\t\ttion deleteProofRequestAndAddr...\n      JUMP \t\t\ttion deleteProofRequestAndAddr...\n    tag 68\t\t\ttion deleteProofRequestAndAddr...\n      JUMPDEST \t\t\ttion deleteProofRequestAndAddr...\n      STOP \t\t\ttion deleteProofRequestAndAddr...\n    tag 11\t\t\t stored as uri \\r\\n    mapping...\n      JUMPDEST \t\t\t stored as uri \\r\\n    mapping...\n      PUSH [tag] 72\t\t\t stored as uri \\r\\n    mapping...\n      PUSH 4\t\t\t stored as uri \\r\\n    mapping...\n      DUP1 \t\t\t stored as uri \\r\\n    mapping...\n      CALLDATASIZE \t\t\t stored as uri \\r\\n    mapping...\n      SUB \t\t\t stored as uri \\r\\n    mapping...\n      DUP2 \t\t\t stored as uri \\r\\n    mapping...\n      ADD \t\t\t stored as uri \\r\\n    mapping...\n      SWAP1 \t\t\t stored as uri \\r\\n    mapping...\n      PUSH [tag] 73\t\t\t stored as uri \\r\\n    mapping...\n      SWAP2 \t\t\t stored as uri \\r\\n    mapping...\n      SWAP1 \t\t\t stored as uri \\r\\n    mapping...\n      PUSH [tag] 74\t\t\t stored as uri \\r\\n    mapping...\n      JUMP \t\t\t stored as uri \\r\\n    mapping...\n    tag 73\t\t\t stored as uri \\r\\n    mapping...\n      JUMPDEST \t\t\t stored as uri \\r\\n    mapping...\n      PUSH [tag] 75\t\t\t stored as uri \\r\\n    mapping...\n      JUMP \t\t\t stored as uri \\r\\n    mapping...\n    tag 72\t\t\t stored as uri \\r\\n    mapping...\n      JUMPDEST \t\t\t stored as uri \\r\\n    mapping...\n      PUSH 40\t\t\t stored as uri \\r\\n    mapping...\n      MLOAD \t\t\t stored as uri \\r\\n    mapping...\n      PUSH [tag] 76\t\t\t stored as uri \\r\\n    mapping...\n      SWAP2 \t\t\t stored as uri \\r\\n    mapping...\n      SWAP1 \t\t\t stored as uri \\r\\n    mapping...\n      PUSH [tag] 77\t\t\t stored as uri \\r\\n    mapping...\n      JUMP \t\t\t stored as uri \\r\\n    mapping...\n    tag 76\t\t\t stored as uri \\r\\n    mapping...\n      JUMPDEST \t\t\t stored as uri \\r\\n    mapping...\n      PUSH 40\t\t\t stored as uri \\r\\n    mapping...\n      MLOAD \t\t\t stored as uri \\r\\n    mapping...\n      DUP1 \t\t\t stored as uri \\r\\n    mapping...\n      SWAP2 \t\t\t stored as uri \\r\\n    mapping...\n      SUB \t\t\t stored as uri \\r\\n    mapping...\n      SWAP1 \t\t\t stored as uri \\r\\n    mapping...\n      RETURN \t\t\t stored as uri \\r\\n    mapping...\n    tag 12\t\t\ton mintExistingToken(address t...\n      JUMPDEST \t\t\ton mintExistingToken(address t...\n      PUSH [tag] 78\t\t\ton mintExistingToken(address t...\n      PUSH 4\t\t\ton mintExistingToken(address t...\n      DUP1 \t\t\ton mintExistingToken(address t...\n      CALLDATASIZE \t\t\ton mintExistingToken(address t...\n      SUB \t\t\ton mintExistingToken(address t...\n      DUP2 \t\t\ton mintExistingToken(address t...\n      ADD \t\t\ton mintExistingToken(address t...\n      SWAP1 \t\t\ton mintExistingToken(address t...\n      PUSH [tag] 79\t\t\ton mintExistingToken(address t...\n      SWAP2 \t\t\ton mintExistingToken(address t...\n      SWAP1 \t\t\ton mintExistingToken(address t...\n      PUSH [tag] 80\t\t\ton mintExistingToken(address t...\n      JUMP \t\t\ton mintExistingToken(address t...\n    tag 79\t\t\ton mintExistingToken(address t...\n      JUMPDEST \t\t\ton mintExistingToken(address t...\n      PUSH [tag] 81\t\t\ton mintExistingToken(address t...\n      JUMP \t\t\ton mintExistingToken(address t...\n    tag 78\t\t\ton mintExistingToken(address t...\n      JUMPDEST \t\t\ton mintExistingToken(address t...\n      STOP \t\t\ton mintExistingToken(address t...\n    tag 13\t\t\tfunction addAdmin(address _adm...\n      JUMPDEST \t\t\tfunction addAdmin(address _adm...\n      PUSH [tag] 82\t\t\tfunction addAdmin(address _adm...\n      PUSH 4\t\t\tfunction addAdmin(address _adm...\n      DUP1 \t\t\tfunction addAdmin(address _adm...\n      CALLDATASIZE \t\t\tfunction addAdmin(address _adm...\n      SUB \t\t\tfunction addAdmin(address _adm...\n      DUP2 \t\t\tfunction addAdmin(address _adm...\n      ADD \t\t\tfunction addAdmin(address _adm...\n      SWAP1 \t\t\tfunction addAdmin(address _adm...\n      PUSH [tag] 83\t\t\tfunction addAdmin(address _adm...\n      SWAP2 \t\t\tfunction addAdmin(address _adm...\n      SWAP1 \t\t\tfunction addAdmin(address _adm...\n      PUSH [tag] 54\t\t\tfunction addAdmin(address _adm...\n      JUMP \t\t\tfunction addAdmin(address _adm...\n    tag 83\t\t\tfunction addAdmin(address _adm...\n      JUMPDEST \t\t\tfunction addAdmin(address _adm...\n      PUSH [tag] 84\t\t\tfunction addAdmin(address _adm...\n      JUMP \t\t\tfunction addAdmin(address _adm...\n    tag 82\t\t\tfunction addAdmin(address _adm...\n      JUMPDEST \t\t\tfunction addAdmin(address _adm...\n      STOP \t\t\tfunction addAdmin(address _adm...\n    tag 14\t\t\tll list of token IDs ever mint...\n      JUMPDEST \t\t\tll list of token IDs ever mint...\n      PUSH [tag] 85\t\t\tll list of token IDs ever mint...\n      PUSH [tag] 86\t\t\tll list of token IDs ever mint...\n      JUMP \t\t\tll list of token IDs ever mint...\n    tag 85\t\t\tll list of token IDs ever mint...\n      JUMPDEST \t\t\tll list of token IDs ever mint...\n      STOP \t\t\tll list of token IDs ever mint...\n    tag 15\t\t\tfunction allTokenIDs() externa...\n      JUMPDEST \t\t\tfunction allTokenIDs() externa...\n      PUSH [tag] 87\t\t\tfunction allTokenIDs() externa...\n      PUSH [tag] 88\t\t\tfunction allTokenIDs() externa...\n      JUMP \t\t\tfunction allTokenIDs() externa...\n    tag 87\t\t\tfunction allTokenIDs() externa...\n      JUMPDEST \t\t\tfunction allTokenIDs() externa...\n      PUSH 40\t\t\tfunction allTokenIDs() externa...\n      MLOAD \t\t\tfunction allTokenIDs() externa...\n      PUSH [tag] 89\t\t\tfunction allTokenIDs() externa...\n      SWAP2 \t\t\tfunction allTokenIDs() externa...\n      SWAP1 \t\t\tfunction allTokenIDs() externa...\n      PUSH [tag] 77\t\t\tfunction allTokenIDs() externa...\n      JUMP \t\t\tfunction allTokenIDs() externa...\n    tag 89\t\t\tfunction allTokenIDs() externa...\n      JUMPDEST \t\t\tfunction allTokenIDs() externa...\n      PUSH 40\t\t\tfunction allTokenIDs() externa...\n      MLOAD \t\t\tfunction allTokenIDs() externa...\n      DUP1 \t\t\tfunction allTokenIDs() externa...\n      SWAP2 \t\t\tfunction allTokenIDs() externa...\n      SUB \t\t\tfunction allTokenIDs() externa...\n      SWAP1 \t\t\tfunction allTokenIDs() externa...\n      RETURN \t\t\tfunction allTokenIDs() externa...\n    tag 16\t\t\t256 public constant fungible_t...\n      JUMPDEST \t\t\t256 public constant fungible_t...\n      PUSH [tag] 90\t\t\t256 public constant fungible_t...\n      PUSH [tag] 91\t\t\t256 public constant fungible_t...\n      JUMP \t\t\t256 public constant fungible_t...\n    tag 90\t\t\t256 public constant fungible_t...\n      JUMPDEST \t\t\t256 public constant fungible_t...\n      PUSH 40\t\t\t256 public constant fungible_t...\n      MLOAD \t\t\t256 public constant fungible_t...\n      PUSH [tag] 92\t\t\t256 public constant fungible_t...\n      SWAP2 \t\t\t256 public constant fungible_t...\n      SWAP1 \t\t\t256 public constant fungible_t...\n      PUSH [tag] 39\t\t\t256 public constant fungible_t...\n      JUMP \t\t\t256 public constant fungible_t...\n    tag 92\t\t\t256 public constant fungible_t...\n      JUMPDEST \t\t\t256 public constant fungible_t...\n      PUSH 40\t\t\t256 public constant fungible_t...\n      MLOAD \t\t\t256 public constant fungible_t...\n      DUP1 \t\t\t256 public constant fungible_t...\n      SWAP2 \t\t\t256 public constant fungible_t...\n      SUB \t\t\t256 public constant fungible_t...\n      SWAP1 \t\t\t256 public constant fungible_t...\n      RETURN \t\t\t256 public constant fungible_t...\n    tag 17\t\t\tadmins.length;\\r\\n        for ...\n      JUMPDEST \t\t\tadmins.length;\\r\\n        for ...\n      PUSH [tag] 93\t\t\tadmins.length;\\r\\n        for ...\n      PUSH [tag] 94\t\t\tadmins.length;\\r\\n        for ...\n      JUMP \t\t\tadmins.length;\\r\\n        for ...\n    tag 93\t\t\tadmins.length;\\r\\n        for ...\n      JUMPDEST \t\t\tadmins.length;\\r\\n        for ...\n      PUSH 40\t\t\tadmins.length;\\r\\n        for ...\n      MLOAD \t\t\tadmins.length;\\r\\n        for ...\n      PUSH [tag] 95\t\t\tadmins.length;\\r\\n        for ...\n      SWAP2 \t\t\tadmins.length;\\r\\n        for ...\n      SWAP1 \t\t\tadmins.length;\\r\\n        for ...\n      PUSH [tag] 96\t\t\tadmins.length;\\r\\n        for ...\n      JUMP \t\t\tadmins.length;\\r\\n        for ...\n    tag 95\t\t\tadmins.length;\\r\\n        for ...\n      JUMPDEST \t\t\tadmins.length;\\r\\n        for ...\n      PUSH 40\t\t\tadmins.length;\\r\\n        for ...\n      MLOAD \t\t\tadmins.length;\\r\\n        for ...\n      DUP1 \t\t\tadmins.length;\\r\\n        for ...\n      SWAP2 \t\t\tadmins.length;\\r\\n        for ...\n      SUB \t\t\tadmins.length;\\r\\n        for ...\n      SWAP1 \t\t\tadmins.length;\\r\\n        for ...\n      RETURN \t\t\tadmins.length;\\r\\n        for ...\n    tag 18\t\t\ttion mintNewToken(address to, ...\n      JUMPDEST \t\t\ttion mintNewToken(address to, ...\n      PUSH [tag] 97\t\t\ttion mintNewToken(address to, ...\n      PUSH 4\t\t\ttion mintNewToken(address to, ...\n      DUP1 \t\t\ttion mintNewToken(address to, ...\n      CALLDATASIZE \t\t\ttion mintNewToken(address to, ...\n      SUB \t\t\ttion mintNewToken(address to, ...\n      DUP2 \t\t\ttion mintNewToken(address to, ...\n      ADD \t\t\ttion mintNewToken(address to, ...\n      SWAP1 \t\t\ttion mintNewToken(address to, ...\n      PUSH [tag] 98\t\t\ttion mintNewToken(address to, ...\n      SWAP2 \t\t\ttion mintNewToken(address to, ...\n      SWAP1 \t\t\ttion mintNewToken(address to, ...\n      PUSH [tag] 99\t\t\ttion mintNewToken(address to, ...\n      JUMP \t\t\ttion mintNewToken(address to, ...\n    tag 98\t\t\ttion mintNewToken(address to, ...\n      JUMPDEST \t\t\ttion mintNewToken(address to, ...\n      PUSH [tag] 100\t\t\ttion mintNewToken(address to, ...\n      JUMP \t\t\ttion mintNewToken(address to, ...\n    tag 97\t\t\ttion mintNewToken(address to, ...\n      JUMPDEST \t\t\ttion mintNewToken(address to, ...\n      STOP \t\t\ttion mintNewToken(address to, ...\n    tag 19\t\t\ttion addProofRequestAndAddress...\n      JUMPDEST \t\t\ttion addProofRequestAndAddress...\n      PUSH [tag] 101\t\t\ttion addProofRequestAndAddress...\n      PUSH 4\t\t\ttion addProofRequestAndAddress...\n      DUP1 \t\t\ttion addProofRequestAndAddress...\n      CALLDATASIZE \t\t\ttion addProofRequestAndAddress...\n      SUB \t\t\ttion addProofRequestAndAddress...\n      DUP2 \t\t\ttion addProofRequestAndAddress...\n      ADD \t\t\ttion addProofRequestAndAddress...\n      SWAP1 \t\t\ttion addProofRequestAndAddress...\n      PUSH [tag] 102\t\t\ttion addProofRequestAndAddress...\n      SWAP2 \t\t\ttion addProofRequestAndAddress...\n      SWAP1 \t\t\ttion addProofRequestAndAddress...\n      PUSH [tag] 103\t\t\ttion addProofRequestAndAddress...\n      JUMP \t\t\ttion addProofRequestAndAddress...\n    tag 102\t\t\ttion addProofRequestAndAddress...\n      JUMPDEST \t\t\ttion addProofRequestAndAddress...\n      PUSH [tag] 104\t\t\ttion addProofRequestAndAddress...\n      JUMP \t\t\ttion addProofRequestAndAddress...\n    tag 101\t\t\ttion addProofRequestAndAddress...\n      JUMPDEST \t\t\ttion addProofRequestAndAddress...\n      STOP \t\t\ttion addProofRequestAndAddress...\n    tag 20\t\t\tcordingly.\\r\\n    function add...\n      JUMPDEST \t\t\tcordingly.\\r\\n    function add...\n      PUSH [tag] 105\t\t\tcordingly.\\r\\n    function add...\n      PUSH 4\t\t\tcordingly.\\r\\n    function add...\n      DUP1 \t\t\tcordingly.\\r\\n    function add...\n      CALLDATASIZE \t\t\tcordingly.\\r\\n    function add...\n      SUB \t\t\tcordingly.\\r\\n    function add...\n      DUP2 \t\t\tcordingly.\\r\\n    function add...\n      ADD \t\t\tcordingly.\\r\\n    function add...\n      SWAP1 \t\t\tcordingly.\\r\\n    function add...\n      PUSH [tag] 106\t\t\tcordingly.\\r\\n    function add...\n      SWAP2 \t\t\tcordingly.\\r\\n    function add...\n      SWAP1 \t\t\tcordingly.\\r\\n    function add...\n      PUSH [tag] 107\t\t\tcordingly.\\r\\n    function add...\n      JUMP \t\t\tcordingly.\\r\\n    function add...\n    tag 106\t\t\tcordingly.\\r\\n    function add...\n      JUMPDEST \t\t\tcordingly.\\r\\n    function add...\n      PUSH [tag] 108\t\t\tcordingly.\\r\\n    function add...\n      JUMP \t\t\tcordingly.\\r\\n    function add...\n    tag 105\t\t\tcordingly.\\r\\n    function add...\n      JUMPDEST \t\t\tcordingly.\\r\\n    function add...\n      STOP \t\t\tcordingly.\\r\\n    function add...\n    tag 21\t\t\ting(uint256 => mapping(uint64 ...\n      JUMPDEST \t\t\ting(uint256 => mapping(uint64 ...\n      PUSH [tag] 109\t\t\ting(uint256 => mapping(uint64 ...\n      PUSH 4\t\t\ting(uint256 => mapping(uint64 ...\n      DUP1 \t\t\ting(uint256 => mapping(uint64 ...\n      CALLDATASIZE \t\t\ting(uint256 => mapping(uint64 ...\n      SUB \t\t\ting(uint256 => mapping(uint64 ...\n      DUP2 \t\t\ting(uint256 => mapping(uint64 ...\n      ADD \t\t\ting(uint256 => mapping(uint64 ...\n      SWAP1 \t\t\ting(uint256 => mapping(uint64 ...\n      PUSH [tag] 110\t\t\ting(uint256 => mapping(uint64 ...\n      SWAP2 \t\t\ting(uint256 => mapping(uint64 ...\n      SWAP1 \t\t\ting(uint256 => mapping(uint64 ...\n      PUSH [tag] 70\t\t\ting(uint256 => mapping(uint64 ...\n      JUMP \t\t\ting(uint256 => mapping(uint64 ...\n    tag 110\t\t\ting(uint256 => mapping(uint64 ...\n      JUMPDEST \t\t\ting(uint256 => mapping(uint64 ...\n      PUSH [tag] 111\t\t\ting(uint256 => mapping(uint64 ...\n      JUMP \t\t\ting(uint256 => mapping(uint64 ...\n    tag 109\t\t\ting(uint256 => mapping(uint64 ...\n      JUMPDEST \t\t\ting(uint256 => mapping(uint64 ...\n      PUSH 40\t\t\ting(uint256 => mapping(uint64 ...\n      MLOAD \t\t\ting(uint256 => mapping(uint64 ...\n      PUSH [tag] 112\t\t\ting(uint256 => mapping(uint64 ...\n      SWAP2 \t\t\ting(uint256 => mapping(uint64 ...\n      SWAP1 \t\t\ting(uint256 => mapping(uint64 ...\n      PUSH [tag] 96\t\t\ting(uint256 => mapping(uint64 ...\n      JUMP \t\t\ting(uint256 => mapping(uint64 ...\n    tag 112\t\t\ting(uint256 => mapping(uint64 ...\n      JUMPDEST \t\t\ting(uint256 => mapping(uint64 ...\n      PUSH 40\t\t\ting(uint256 => mapping(uint64 ...\n      MLOAD \t\t\ting(uint256 => mapping(uint64 ...\n      DUP1 \t\t\ting(uint256 => mapping(uint64 ...\n      SWAP2 \t\t\ting(uint256 => mapping(uint64 ...\n      SUB \t\t\ting(uint256 => mapping(uint64 ...\n      SWAP1 \t\t\ting(uint256 => mapping(uint64 ...\n      RETURN \t\t\ting(uint256 => mapping(uint64 ...\n    tag 22\t\t\t256 public constant non_fungib...\n      JUMPDEST \t\t\t256 public constant non_fungib...\n      PUSH [tag] 113\t\t\t256 public constant non_fungib...\n      PUSH [tag] 114\t\t\t256 public constant non_fungib...\n      JUMP \t\t\t256 public constant non_fungib...\n    tag 113\t\t\t256 public constant non_fungib...\n      JUMPDEST \t\t\t256 public constant non_fungib...\n      PUSH 40\t\t\t256 public constant non_fungib...\n      MLOAD \t\t\t256 public constant non_fungib...\n      PUSH [tag] 115\t\t\t256 public constant non_fungib...\n      SWAP2 \t\t\t256 public constant non_fungib...\n      SWAP1 \t\t\t256 public constant non_fungib...\n      PUSH [tag] 39\t\t\t256 public constant non_fungib...\n      JUMP \t\t\t256 public constant non_fungib...\n    tag 115\t\t\t256 public constant non_fungib...\n      JUMPDEST \t\t\t256 public constant non_fungib...\n      PUSH 40\t\t\t256 public constant non_fungib...\n      MLOAD \t\t\t256 public constant non_fungib...\n      DUP1 \t\t\t256 public constant non_fungib...\n      SWAP2 \t\t\t256 public constant non_fungib...\n      SUB \t\t\t256 public constant non_fungib...\n      SWAP1 \t\t\t256 public constant non_fungib...\n      RETURN \t\t\t256 public constant non_fungib...\n    tag 23\t\t\t64[] public proofRequestIDs;\\r...\n      JUMPDEST \t\t\t64[] public proofRequestIDs;\\r...\n      PUSH [tag] 116\t\t\t64[] public proofRequestIDs;\\r...\n      PUSH 4\t\t\t64[] public proofRequestIDs;\\r...\n      DUP1 \t\t\t64[] public proofRequestIDs;\\r...\n      CALLDATASIZE \t\t\t64[] public proofRequestIDs;\\r...\n      SUB \t\t\t64[] public proofRequestIDs;\\r...\n      DUP2 \t\t\t64[] public proofRequestIDs;\\r...\n      ADD \t\t\t64[] public proofRequestIDs;\\r...\n      SWAP1 \t\t\t64[] public proofRequestIDs;\\r...\n      PUSH [tag] 117\t\t\t64[] public proofRequestIDs;\\r...\n      SWAP2 \t\t\t64[] public proofRequestIDs;\\r...\n      SWAP1 \t\t\t64[] public proofRequestIDs;\\r...\n      PUSH [tag] 48\t\t\t64[] public proofRequestIDs;\\r...\n      JUMP \t\t\t64[] public proofRequestIDs;\\r...\n    tag 117\t\t\t64[] public proofRequestIDs;\\r...\n      JUMPDEST \t\t\t64[] public proofRequestIDs;\\r...\n      PUSH [tag] 118\t\t\t64[] public proofRequestIDs;\\r...\n      JUMP \t\t\t64[] public proofRequestIDs;\\r...\n    tag 116\t\t\t64[] public proofRequestIDs;\\r...\n      JUMPDEST \t\t\t64[] public proofRequestIDs;\\r...\n      PUSH 40\t\t\t64[] public proofRequestIDs;\\r...\n      MLOAD \t\t\t64[] public proofRequestIDs;\\r...\n      PUSH [tag] 119\t\t\t64[] public proofRequestIDs;\\r...\n      SWAP2 \t\t\t64[] public proofRequestIDs;\\r...\n      SWAP1 \t\t\t64[] public proofRequestIDs;\\r...\n      PUSH [tag] 120\t\t\t64[] public proofRequestIDs;\\r...\n      JUMP \t\t\t64[] public proofRequestIDs;\\r...\n    tag 119\t\t\t64[] public proofRequestIDs;\\r...\n      JUMPDEST \t\t\t64[] public proofRequestIDs;\\r...\n      PUSH 40\t\t\t64[] public proofRequestIDs;\\r...\n      MLOAD \t\t\t64[] public proofRequestIDs;\\r...\n      DUP1 \t\t\t64[] public proofRequestIDs;\\r...\n      SWAP2 \t\t\t64[] public proofRequestIDs;\\r...\n      SUB \t\t\t64[] public proofRequestIDs;\\r...\n      SWAP1 \t\t\t64[] public proofRequestIDs;\\r...\n      RETURN \t\t\t64[] public proofRequestIDs;\\r...\n    tag 24\t\t\tmapping(uint256 => string) pub...\n      JUMPDEST \t\t\tmapping(uint256 => string) pub...\n      PUSH [tag] 121\t\t\tmapping(uint256 => string) pub...\n      PUSH 4\t\t\tmapping(uint256 => string) pub...\n      DUP1 \t\t\tmapping(uint256 => string) pub...\n      CALLDATASIZE \t\t\tmapping(uint256 => string) pub...\n      SUB \t\t\tmapping(uint256 => string) pub...\n      DUP2 \t\t\tmapping(uint256 => string) pub...\n      ADD \t\t\tmapping(uint256 => string) pub...\n      SWAP1 \t\t\tmapping(uint256 => string) pub...\n      PUSH [tag] 122\t\t\tmapping(uint256 => string) pub...\n      SWAP2 \t\t\tmapping(uint256 => string) pub...\n      SWAP1 \t\t\tmapping(uint256 => string) pub...\n      PUSH [tag] 48\t\t\tmapping(uint256 => string) pub...\n      JUMP \t\t\tmapping(uint256 => string) pub...\n    tag 122\t\t\tmapping(uint256 => string) pub...\n      JUMPDEST \t\t\tmapping(uint256 => string) pub...\n      PUSH [tag] 123\t\t\tmapping(uint256 => string) pub...\n      JUMP \t\t\tmapping(uint256 => string) pub...\n    tag 121\t\t\tmapping(uint256 => string) pub...\n      JUMPDEST \t\t\tmapping(uint256 => string) pub...\n      PUSH 40\t\t\tmapping(uint256 => string) pub...\n      MLOAD \t\t\tmapping(uint256 => string) pub...\n      PUSH [tag] 124\t\t\tmapping(uint256 => string) pub...\n      SWAP2 \t\t\tmapping(uint256 => string) pub...\n      SWAP1 \t\t\tmapping(uint256 => string) pub...\n      PUSH [tag] 51\t\t\tmapping(uint256 => string) pub...\n      JUMP \t\t\tmapping(uint256 => string) pub...\n    tag 124\t\t\tmapping(uint256 => string) pub...\n      JUMPDEST \t\t\tmapping(uint256 => string) pub...\n      PUSH 40\t\t\tmapping(uint256 => string) pub...\n      MLOAD \t\t\tmapping(uint256 => string) pub...\n      DUP1 \t\t\tmapping(uint256 => string) pub...\n      SWAP2 \t\t\tmapping(uint256 => string) pub...\n      SUB \t\t\tmapping(uint256 => string) pub...\n      SWAP1 \t\t\tmapping(uint256 => string) pub...\n      RETURN \t\t\tmapping(uint256 => string) pub...\n    tag 25\t\t\tire(tokenID_proofRequest_addre...\n      JUMPDEST \t\t\tire(tokenID_proofRequest_addre...\n      PUSH [tag] 125\t\t\tire(tokenID_proofRequest_addre...\n      PUSH 4\t\t\tire(tokenID_proofRequest_addre...\n      DUP1 \t\t\tire(tokenID_proofRequest_addre...\n      CALLDATASIZE \t\t\tire(tokenID_proofRequest_addre...\n      SUB \t\t\tire(tokenID_proofRequest_addre...\n      DUP2 \t\t\tire(tokenID_proofRequest_addre...\n      ADD \t\t\tire(tokenID_proofRequest_addre...\n      SWAP1 \t\t\tire(tokenID_proofRequest_addre...\n      PUSH [tag] 126\t\t\tire(tokenID_proofRequest_addre...\n      SWAP2 \t\t\tire(tokenID_proofRequest_addre...\n      SWAP1 \t\t\tire(tokenID_proofRequest_addre...\n      PUSH [tag] 127\t\t\tire(tokenID_proofRequest_addre...\n      JUMP \t\t\tire(tokenID_proofRequest_addre...\n    tag 126\t\t\tire(tokenID_proofRequest_addre...\n      JUMPDEST \t\t\tire(tokenID_proofRequest_addre...\n      PUSH [tag] 128\t\t\tire(tokenID_proofRequest_addre...\n      JUMP \t\t\tire(tokenID_proofRequest_addre...\n    tag 125\t\t\tire(tokenID_proofRequest_addre...\n      JUMPDEST \t\t\tire(tokenID_proofRequest_addre...\n      PUSH 40\t\t\tire(tokenID_proofRequest_addre...\n      MLOAD \t\t\tire(tokenID_proofRequest_addre...\n      PUSH [tag] 129\t\t\tire(tokenID_proofRequest_addre...\n      SWAP2 \t\t\tire(tokenID_proofRequest_addre...\n      SWAP1 \t\t\tire(tokenID_proofRequest_addre...\n      PUSH [tag] 45\t\t\tire(tokenID_proofRequest_addre...\n      JUMP \t\t\tire(tokenID_proofRequest_addre...\n    tag 129\t\t\tire(tokenID_proofRequest_addre...\n      JUMPDEST \t\t\tire(tokenID_proofRequest_addre...\n      PUSH 40\t\t\tire(tokenID_proofRequest_addre...\n      MLOAD \t\t\tire(tokenID_proofRequest_addre...\n      DUP1 \t\t\tire(tokenID_proofRequest_addre...\n      SWAP2 \t\t\tire(tokenID_proofRequest_addre...\n      SUB \t\t\tire(tokenID_proofRequest_addre...\n      SWAP1 \t\t\tire(tokenID_proofRequest_addre...\n      RETURN \t\t\tire(tokenID_proofRequest_addre...\n    tag 26\t\t\ton safeTransferFrom(\\r\\n      ...\n      JUMPDEST \t\t\ton safeTransferFrom(\\r\\n      ...\n      PUSH [tag] 130\t\t\ton safeTransferFrom(\\r\\n      ...\n      PUSH 4\t\t\ton safeTransferFrom(\\r\\n      ...\n      DUP1 \t\t\ton safeTransferFrom(\\r\\n      ...\n      CALLDATASIZE \t\t\ton safeTransferFrom(\\r\\n      ...\n      SUB \t\t\ton safeTransferFrom(\\r\\n      ...\n      DUP2 \t\t\ton safeTransferFrom(\\r\\n      ...\n      ADD \t\t\ton safeTransferFrom(\\r\\n      ...\n      SWAP1 \t\t\ton safeTransferFrom(\\r\\n      ...\n      PUSH [tag] 131\t\t\ton safeTransferFrom(\\r\\n      ...\n      SWAP2 \t\t\ton safeTransferFrom(\\r\\n      ...\n      SWAP1 \t\t\ton safeTransferFrom(\\r\\n      ...\n      PUSH [tag] 132\t\t\ton safeTransferFrom(\\r\\n      ...\n      JUMP \t\t\ton safeTransferFrom(\\r\\n      ...\n    tag 131\t\t\ton safeTransferFrom(\\r\\n      ...\n      JUMPDEST \t\t\ton safeTransferFrom(\\r\\n      ...\n      PUSH [tag] 133\t\t\ton safeTransferFrom(\\r\\n      ...\n      JUMP \t\t\ton safeTransferFrom(\\r\\n      ...\n    tag 130\t\t\ton safeTransferFrom(\\r\\n      ...\n      JUMPDEST \t\t\ton safeTransferFrom(\\r\\n      ...\n      STOP \t\t\ton safeTransferFrom(\\r\\n      ...\n    tag 27\t\t\ts uri \\r\\n    mapping(uint256 ...\n      JUMPDEST \t\t\ts uri \\r\\n    mapping(uint256 ...\n      PUSH [tag] 134\t\t\ts uri \\r\\n    mapping(uint256 ...\n      PUSH 4\t\t\ts uri \\r\\n    mapping(uint256 ...\n      DUP1 \t\t\ts uri \\r\\n    mapping(uint256 ...\n      CALLDATASIZE \t\t\ts uri \\r\\n    mapping(uint256 ...\n      SUB \t\t\ts uri \\r\\n    mapping(uint256 ...\n      DUP2 \t\t\ts uri \\r\\n    mapping(uint256 ...\n      ADD \t\t\ts uri \\r\\n    mapping(uint256 ...\n      SWAP1 \t\t\ts uri \\r\\n    mapping(uint256 ...\n      PUSH [tag] 135\t\t\ts uri \\r\\n    mapping(uint256 ...\n      SWAP2 \t\t\ts uri \\r\\n    mapping(uint256 ...\n      SWAP1 \t\t\ts uri \\r\\n    mapping(uint256 ...\n      PUSH [tag] 54\t\t\ts uri \\r\\n    mapping(uint256 ...\n      JUMP \t\t\ts uri \\r\\n    mapping(uint256 ...\n    tag 135\t\t\ts uri \\r\\n    mapping(uint256 ...\n      JUMPDEST \t\t\ts uri \\r\\n    mapping(uint256 ...\n      PUSH [tag] 136\t\t\ts uri \\r\\n    mapping(uint256 ...\n      JUMP \t\t\ts uri \\r\\n    mapping(uint256 ...\n    tag 134\t\t\ts uri \\r\\n    mapping(uint256 ...\n      JUMPDEST \t\t\ts uri \\r\\n    mapping(uint256 ...\n      STOP \t\t\ts uri \\r\\n    mapping(uint256 ...\n    tag 28\t\t\ton burn(address account, uint2...\n      JUMPDEST \t\t\ton burn(address account, uint2...\n      PUSH [tag] 137\t\t\ton burn(address account, uint2...\n      PUSH 4\t\t\ton burn(address account, uint2...\n      DUP1 \t\t\ton burn(address account, uint2...\n      CALLDATASIZE \t\t\ton burn(address account, uint2...\n      SUB \t\t\ton burn(address account, uint2...\n      DUP2 \t\t\ton burn(address account, uint2...\n      ADD \t\t\ton burn(address account, uint2...\n      SWAP1 \t\t\ton burn(address account, uint2...\n      PUSH [tag] 138\t\t\ton burn(address account, uint2...\n      SWAP2 \t\t\ton burn(address account, uint2...\n      SWAP1 \t\t\ton burn(address account, uint2...\n      PUSH [tag] 139\t\t\ton burn(address account, uint2...\n      JUMP \t\t\ton burn(address account, uint2...\n    tag 138\t\t\ton burn(address account, uint2...\n      JUMPDEST \t\t\ton burn(address account, uint2...\n      PUSH [tag] 140\t\t\ton burn(address account, uint2...\n      JUMP \t\t\ton burn(address account, uint2...\n    tag 137\t\t\ton burn(address account, uint2...\n      JUMPDEST \t\t\ton burn(address account, uint2...\n      STOP \t\t\ton burn(address account, uint2...\n    tag 37\t\t\t _allTokenIDs;\\r\\n\\r\\n    /// ...\n      JUMPDEST \t\t\t _allTokenIDs;\\r\\n\\r\\n    /// ...\n      PUSH 0\t\t\tted\\r\\n  \n      PUSH 0\t\t\tIDs() ext\n      PUSH 0\t\t\tIDs() externa\n      DUP4 \t\t\trn\n      DUP2 \t\t\tIDs() externa\n      MSTORE \t\t\tIDs() externa\n      PUSH 20\t\t\tIDs() externa\n      ADD \t\t\tIDs() externa\n      SWAP1 \t\t\tIDs() externa\n      DUP2 \t\t\tIDs() externa\n      MSTORE \t\t\tIDs() externa\n      PUSH 20\t\t\tIDs() externa\n      ADD \t\t\tIDs() externa\n      PUSH 0\t\t\tIDs() externa\n      KECCAK256 \t\t\tIDs() externa\n      PUSH 0\t\t\tIDs() external view re\n      DUP5 \t\t\t view r\n      PUSH FFFFFFFFFFFFFFFFFFFFFFFFFFFFFFFFFFFFFFFF\t\t\tIDs() external view re\n      AND \t\t\tIDs() external view re\n      PUSH FFFFFFFFFFFFFFFFFFFFFFFFFFFFFFFFFFFFFFFF\t\t\tIDs() external view re\n      AND \t\t\tIDs() external view re\n      DUP2 \t\t\tIDs() external view re\n      MSTORE \t\t\tIDs() external view re\n      PUSH 20\t\t\tIDs() external view re\n      ADD \t\t\tIDs() external view re\n      SWAP1 \t\t\tIDs() external view re\n      DUP2 \t\t\tIDs() external view re\n      MSTORE \t\t\tIDs() external view re\n      PUSH 20\t\t\tIDs() external view re\n      ADD \t\t\tIDs() external view re\n      PUSH 0\t\t\tIDs() external view re\n      KECCAK256 \t\t\tIDs() external view re\n      SLOAD \t\t\tIDs() external view re\n      SWAP1 \t\t\tllTokenIDs() external view re\n      POP \t\t\tllTokenIDs() external view re\n      SWAP3 \t\t\t _allTokenIDs;\\r\\n\\r\\n    /// ...\n      SWAP2 \t\t\t _allTokenIDs;\\r\\n\\r\\n    /// ...\n      POP \t\t\t _allTokenIDs;\\r\\n\\r\\n    /// ...\n      POP \t\t\t _allTokenIDs;\\r\\n\\r\\n    /// ...\n      JUMP \t\t\t _allTokenIDs;\\r\\n\\r\\n    /// ...\n    tag 43\t\t\t\\n        require(!_isAdmin(_a...\n      JUMPDEST \t\t\t\\n        require(!_isAdmin(_a...\n      PUSH 0\t\t\t }\\r\\n\n      PUSH D9B67A2600000000000000000000000000000000000000000000000000000000\t\t\tOnly the owner can remove.\n      PUSH FFFFFFFFFFFFFFFFFFFFFFFFFFFFFFFFFFFFFFFFFFFFFFFFFFFFFFFF\t\t\tadmin address. Only the owner ...\n      NOT \t\t\tadmin address. Only the owner ...\n      AND \t\t\tadmin address. Only the owner ...\n      DUP3 \t\t\tadmin addre\n      PUSH FFFFFFFFFFFFFFFFFFFFFFFFFFFFFFFFFFFFFFFFFFFFFFFFFFFFFFFF\t\t\tadmin address. Only the owner ...\n      NOT \t\t\tadmin address. Only the owner ...\n      AND \t\t\tadmin address. Only the owner ...\n      EQ \t\t\tadmin address. Only the owner ...\n      DUP1 \t\t\tadmin address. Only the owner ...\n      PUSH [tag] 143\t\t\tadmin address. Only the owner ...\n      JUMPI \t\t\tadmin address. Only the owner ...\n      POP \t\t\tadmin address. Only the owner ...\n      PUSH E89341C00000000000000000000000000000000000000000000000000000000\t\t\tess _admin) public onlyOwner {...\n      PUSH FFFFFFFFFFFFFFFFFFFFFFFFFFFFFFFFFFFFFFFFFFFFFFFFFFFFFFFF\t\t\temoveAdmin(address _admin) pub...\n      NOT \t\t\temoveAdmin(address _admin) pub...\n      AND \t\t\temoveAdmin(address _admin) pub...\n      DUP3 \t\t\temoveAdmin(\n      PUSH FFFFFFFFFFFFFFFFFFFFFFFFFFFFFFFFFFFFFFFFFFFFFFFFFFFFFFFF\t\t\temoveAdmin(address _admin) pub...\n      NOT \t\t\temoveAdmin(address _admin) pub...\n      AND \t\t\temoveAdmin(address _admin) pub...\n      EQ \t\t\temoveAdmin(address _admin) pub...\n    tag 143\t\t\tadmin address. Only the owner ...\n      JUMPDEST \t\t\tadmin address. Only the owner ...\n      DUP1 \t\t\tadmin address. Only the owner ...\n      PUSH [tag] 144\t\t\tadmin address. Only the owner ...\n      JUMPI \t\t\tadmin address. Only the owner ...\n      POP \t\t\tadmin address. Only the owner ...\n      PUSH [tag] 145\t\t\tmins.length;\\r\\n        for (u...\n      DUP3 \t\t\tr (uint i =\n      PUSH [tag] 146\t\t\tmins.length;\\r\\n        f\n      JUMP \t\t\tmins.length;\\r\\n        for (u...\n    tag 145\t\t\tmins.length;\\r\\n        for (u...\n      JUMPDEST \t\t\tmins.length;\\r\\n        for (u...\n    tag 144\t\t\tadmin address. Only the owner ...\n      JUMPDEST \t\t\tadmin address. Only the owner ...\n      SWAP1 \t\t\tction to remove an admin addre...\n      POP \t\t\tction to remove an admin addre...\n      SWAP2 \t\t\t\\n        require(!_isAdmin(_a...\n      SWAP1 \t\t\t\\n        require(!_isAdmin(_a...\n      POP \t\t\t\\n        require(!_isAdmin(_a...\n      JUMP \t\t\t\\n        require(!_isAdmin(_a...\n    tag 49\t\t\t     _;\\r\\n    }\\r\\n\\r\\n    us...\n      JUMPDEST \t\t\t     _;\\r\\n    }\\r\\n\\r\\n    us...\n      PUSH 60\t\t\tUintSet;\\r\\n\\r\\n \n      PUSH 2\t\t\ttoke\n      DUP1 \t\t\tof all toke\n      SLOAD \t\t\tof all toke\n      PUSH [tag] 148\t\t\tof all toke\n      SWAP1 \t\t\tof all toke\n      PUSH [tag] 149\t\t\tof all toke\n      JUMP \t\t\tof all toke\n    tag 148\t\t\tof all toke\n      JUMPDEST \t\t\tof all toke\n      DUP1 \t\t\tof all toke\n      PUSH 1F\t\t\tof all toke\n      ADD \t\t\tof all toke\n      PUSH 20\t\t\tof all toke\n      DUP1 \t\t\tof all toke\n      SWAP2 \t\t\tof all toke\n      DIV \t\t\tof all toke\n      MUL \t\t\tof all toke\n      PUSH 20\t\t\tof all toke\n      ADD \t\t\tof all toke\n      PUSH 40\t\t\tof all toke\n      MLOAD \t\t\tof all toke\n      SWAP1 \t\t\tof all toke\n      DUP2 \t\t\tof all toke\n      ADD \t\t\tof all toke\n      PUSH 40\t\t\tof all toke\n      MSTORE \t\t\tof all toke\n      DUP1 \t\t\tof all toke\n      SWAP3 \t\t\tof all toke\n      SWAP2 \t\t\tof all toke\n      SWAP1 \t\t\tof all toke\n      DUP2 \t\t\tof all toke\n      DUP2 \t\t\tof all toke\n      MSTORE \t\t\tof all toke\n      PUSH 20\t\t\tof all toke\n      ADD \t\t\tof all toke\n      DUP3 \t\t\tof all toke\n      DUP1 \t\t\tof all toke\n      SLOAD \t\t\tof all toke\n      PUSH [tag] 150\t\t\tof all toke\n      SWAP1 \t\t\tof all toke\n      PUSH [tag] 149\t\t\tof all toke\n      JUMP \t\t\tof all toke\n    tag 150\t\t\tof all toke\n      JUMPDEST \t\t\tof all toke\n      DUP1 \t\t\tof all toke\n      ISZERO \t\t\tof all toke\n      PUSH [tag] 151\t\t\tof all toke\n      JUMPI \t\t\tof all toke\n      DUP1 \t\t\tof all toke\n      PUSH 1F\t\t\tof all toke\n      LT \t\t\tof all toke\n      PUSH [tag] 152\t\t\tof all toke\n      JUMPI \t\t\tof all toke\n      PUSH 100\t\t\tof all toke\n      DUP1 \t\t\tof all toke\n      DUP4 \t\t\tof all toke\n      SLOAD \t\t\tof all toke\n      DIV \t\t\tof all toke\n      MUL \t\t\tof all toke\n      DUP4 \t\t\tof all toke\n      MSTORE \t\t\tof all toke\n      SWAP2 \t\t\tof all toke\n      PUSH 20\t\t\tof all toke\n      ADD \t\t\tof all toke\n      SWAP2 \t\t\tof all toke\n      PUSH [tag] 151\t\t\tof all toke\n      JUMP \t\t\tof all toke\n    tag 152\t\t\tof all toke\n      JUMPDEST \t\t\tof all toke\n      DUP3 \t\t\tof all toke\n      ADD \t\t\tof all toke\n      SWAP2 \t\t\tof all toke\n      SWAP1 \t\t\tof all toke\n      PUSH 0\t\t\tof all toke\n      MSTORE \t\t\tof all toke\n      PUSH 20\t\t\tof all toke\n      PUSH 0\t\t\tof all toke\n      KECCAK256 \t\t\tof all toke\n      SWAP1 \t\t\tof all toke\n    tag 153\t\t\tof all toke\n      JUMPDEST \t\t\tof all toke\n      DUP2 \t\t\tof all toke\n      SLOAD \t\t\tof all toke\n      DUP2 \t\t\tof all toke\n      MSTORE \t\t\tof all toke\n      SWAP1 \t\t\tof all toke\n      PUSH 1\t\t\tof all toke\n      ADD \t\t\tof all toke\n      SWAP1 \t\t\tof all toke\n      PUSH 20\t\t\tof all toke\n      ADD \t\t\tof all toke\n      DUP1 \t\t\tof all toke\n      DUP4 \t\t\tof all toke\n      GT \t\t\tof all toke\n      PUSH [tag] 153\t\t\tof all toke\n      JUMPI \t\t\tof all toke\n      DUP3 \t\t\tof all toke\n      SWAP1 \t\t\tof all toke\n      SUB \t\t\tof all toke\n      PUSH 1F\t\t\tof all toke\n      AND \t\t\tof all toke\n      DUP3 \t\t\tof all toke\n      ADD \t\t\tof all toke\n      SWAP2 \t\t\tof all toke\n    tag 151\t\t\tof all toke\n      JUMPDEST \t\t\tof all toke\n      POP \t\t\tof all toke\n      POP \t\t\tof all toke\n      POP \t\t\tof all toke\n      POP \t\t\tof all toke\n      POP \t\t\tof all toke\n      SWAP1 \t\t\tof all toke\n      POP \t\t\tof all toke\n      SWAP2 \t\t\t     _;\\r\\n    }\\r\\n\\r\\n    us...\n      SWAP1 \t\t\t     _;\\r\\n    }\\r\\n\\r\\n    us...\n      POP \t\t\t     _;\\r\\n    }\\r\\n\\r\\n    us...\n      JUMP \t\t\t     _;\\r\\n    }\\r\\n\\r\\n    us...\n    tag 55\t\t\tfunction removeAdmin(address _...\n      JUMPDEST \t\t\tfunction removeAdmin(address _...\n      PUSH [tag] 155\t\t\tnly the owner\n      PUSH [tag] 156\t\t\tnly the own\n      JUMP \t\t\tnly the owner\n    tag 155\t\t\tnly the owner\n      JUMPDEST \t\t\tnly the owner\n      PUSH 0\t\t\tuint len\n      PUSH 4\t\t\tadmins\n      DUP1 \t\t\tadmins.length\n      SLOAD \t\t\tadmins.length\n      SWAP1 \t\t\tadmins.length\n      POP \t\t\tadmins.length\n      SWAP1 \t\t\tuint len = admins.length\n      POP \t\t\tuint len = admins.length\n      PUSH 0\t\t\tuint i\n      PUSH 0\t\t\t0\n      SWAP1 \t\t\tuint i = 0\n      POP \t\t\tuint i = 0\n    tag 158\t\t\tfor (uint i = 0; i < len; i++)...\n      JUMPDEST \t\t\tfor (uint i = 0; i < len; i++)...\n      DUP2 \t\t\tlen\n      DUP2 \t\t\ti\n      LT \t\t\ti < len\n      ISZERO \t\t\tfor (uint i = 0; i < len; i++)...\n      PUSH [tag] 159\t\t\tfor (uint i = 0; i < len; i++)...\n      JUMPI \t\t\tfor (uint i = 0; i < len; i++)...\n      DUP3 \t\t\t_admin\n      PUSH FFFFFFFFFFFFFFFFFFFFFFFFFFFFFFFFFFFFFFFF\t\t\tadmins[i] == _admin\n      AND \t\t\tadmins[i] == _admin\n      PUSH 4\t\t\tadmins\n      DUP3 \t\t\ti\n      DUP2 \t\t\tadmins[i]\n      SLOAD \t\t\tadmins[i]\n      DUP2 \t\t\tadmins[i]\n      LT \t\t\tadmins[i]\n      PUSH [tag] 161\t\t\tadmins[i]\n      JUMPI \t\t\tadmins[i]\n      PUSH [tag] 162\t\t\tadmins[i]\n      PUSH [tag] 163\t\t\tadmins[i]\n      JUMP \t\t\tadmins[i]\n    tag 162\t\t\tadmins[i]\n      JUMPDEST \t\t\tadmins[i]\n    tag 161\t\t\tadmins[i]\n      JUMPDEST \t\t\tadmins[i]\n      SWAP1 \t\t\tadmins[i]\n      PUSH 0\t\t\tadmins[i]\n      MSTORE \t\t\tadmins[i]\n      PUSH 20\t\t\tadmins[i]\n      PUSH 0\t\t\tadmins[i]\n      KECCAK256 \t\t\tadmins[i]\n      ADD \t\t\tadmins[i]\n      PUSH 0\t\t\tadmins[i]\n      SWAP1 \t\t\tadmins[i]\n      SLOAD \t\t\tadmins[i]\n      SWAP1 \t\t\tadmins[i]\n      PUSH 100\t\t\tadmins[i]\n      EXP \t\t\tadmins[i]\n      SWAP1 \t\t\tadmins[i]\n      DIV \t\t\tadmins[i]\n      PUSH FFFFFFFFFFFFFFFFFFFFFFFFFFFFFFFFFFFFFFFF\t\t\tadmins[i]\n      AND \t\t\tadmins[i]\n      PUSH FFFFFFFFFFFFFFFFFFFFFFFFFFFFFFFFFFFFFFFF\t\t\tadmins[i] == _admin\n      AND \t\t\tadmins[i] == _admin\n      SUB \t\t\tadmins[i] == _admin\n      PUSH [tag] 165\t\t\tif (admins[i] == _admin) {\\r\\n...\n      JUMPI \t\t\tif (admins[i] == _admin) {\\r\\n...\n      PUSH 4\t\t\tadmins\n      PUSH 1\t\t\t1\n      DUP4 \t\t\tlen\n      PUSH [tag] 166\t\t\tlen - 1\n      SWAP2 \t\t\tlen - 1\n      SWAP1 \t\t\tlen - 1\n      PUSH [tag] 167\t\t\tlen - 1\n      JUMP \t\t\tlen - 1\n    tag 166\t\t\tlen - 1\n      JUMPDEST \t\t\tlen - 1\n      DUP2 \t\t\tadmins[len - 1]\n      SLOAD \t\t\tadmins[len - 1]\n      DUP2 \t\t\tadmins[len - 1]\n      LT \t\t\tadmins[len - 1]\n      PUSH [tag] 168\t\t\tadmins[len - 1]\n      JUMPI \t\t\tadmins[len - 1]\n      PUSH [tag] 169\t\t\tadmins[len - 1]\n      PUSH [tag] 163\t\t\tadmins[len - 1]\n      JUMP \t\t\tadmins[len - 1]\n    tag 169\t\t\tadmins[len - 1]\n      JUMPDEST \t\t\tadmins[len - 1]\n    tag 168\t\t\tadmins[len - 1]\n      JUMPDEST \t\t\tadmins[len - 1]\n      SWAP1 \t\t\tadmins[len - 1]\n      PUSH 0\t\t\tadmins[len - 1]\n      MSTORE \t\t\tadmins[len - 1]\n      PUSH 20\t\t\tadmins[len - 1]\n      PUSH 0\t\t\tadmins[len - 1]\n      KECCAK256 \t\t\tadmins[len - 1]\n      ADD \t\t\tadmins[len - 1]\n      PUSH 0\t\t\tadmins[len - 1]\n      SWAP1 \t\t\tadmins[len - 1]\n      SLOAD \t\t\tadmins[len - 1]\n      SWAP1 \t\t\tadmins[len - 1]\n      PUSH 100\t\t\tadmins[len - 1]\n      EXP \t\t\tadmins[len - 1]\n      SWAP1 \t\t\tadmins[len - 1]\n      DIV \t\t\tadmins[len - 1]\n      PUSH FFFFFFFFFFFFFFFFFFFFFFFFFFFFFFFFFFFFFFFF\t\t\tadmins[len - 1]\n      AND \t\t\tadmins[len - 1]\n      PUSH 4\t\t\tadmins\n      DUP3 \t\t\ti\n      DUP2 \t\t\tadmins[i]\n      SLOAD \t\t\tadmins[i]\n      DUP2 \t\t\tadmins[i]\n      LT \t\t\tadmins[i]\n      PUSH [tag] 171\t\t\tadmins[i]\n      JUMPI \t\t\tadmins[i]\n      PUSH [tag] 172\t\t\tadmins[i]\n      PUSH [tag] 163\t\t\tadmins[i]\n      JUMP \t\t\tadmins[i]\n    tag 172\t\t\tadmins[i]\n      JUMPDEST \t\t\tadmins[i]\n    tag 171\t\t\tadmins[i]\n      JUMPDEST \t\t\tadmins[i]\n      SWAP1 \t\t\tadmins[i]\n      PUSH 0\t\t\tadmins[i]\n      MSTORE \t\t\tadmins[i]\n      PUSH 20\t\t\tadmins[i]\n      PUSH 0\t\t\tadmins[i]\n      KECCAK256 \t\t\tadmins[i]\n      ADD \t\t\tadmins[i]\n      PUSH 0\t\t\tadmins[i]\n      PUSH 100\t\t\tadmins[i] = admins[len - 1]\n      EXP \t\t\tadmins[i] = admins[len - 1]\n      DUP2 \t\t\tadmins[i] = admins[len - 1]\n      SLOAD \t\t\tadmins[i] = admins[len - 1]\n      DUP2 \t\t\tadmins[i] = admins[len - 1]\n      PUSH FFFFFFFFFFFFFFFFFFFFFFFFFFFFFFFFFFFFFFFF\t\t\tadmins[i] = admins[len - 1]\n      MUL \t\t\tadmins[i] = admins[len - 1]\n      NOT \t\t\tadmins[i] = admins[len - 1]\n      AND \t\t\tadmins[i] = admins[len - 1]\n      SWAP1 \t\t\tadmins[i] = admins[len - 1]\n      DUP4 \t\t\tadmins[i] = admins[len - 1]\n      PUSH FFFFFFFFFFFFFFFFFFFFFFFFFFFFFFFFFFFFFFFF\t\t\tadmins[i] = admins[len - 1]\n      AND \t\t\tadmins[i] = admins[len - 1]\n      MUL \t\t\tadmins[i] = admins[len - 1]\n      OR \t\t\tadmins[i] = admins[len - 1]\n      SWAP1 \t\t\tadmins[i] = admins[len - 1]\n      SSTORE \t\t\tadmins[i] = admins[len - 1]\n      POP \t\t\tadmins[i] = admins[len - 1]\n      PUSH 4\t\t\tadmins\n      DUP1 \t\t\tadmins.pop()\n      SLOAD \t\t\tadmins.pop()\n      DUP1 \t\t\tadmins.pop()\n      PUSH [tag] 174\t\t\tadmins.pop()\n      JUMPI \t\t\tadmins.pop()\n      PUSH [tag] 175\t\t\tadmins.pop()\n      PUSH [tag] 176\t\t\tadmins.pop()\n      JUMP \t\t\tadmins.pop()\n    tag 175\t\t\tadmins.pop()\n      JUMPDEST \t\t\tadmins.pop()\n    tag 174\t\t\tadmins.pop()\n      JUMPDEST \t\t\tadmins.pop()\n      PUSH 1\t\t\tadmins.pop()\n      SWAP1 \t\t\tadmins.pop()\n      SUB \t\t\tadmins.pop()\n      DUP2 \t\t\tadmins.pop()\n      DUP2 \t\t\tadmins.pop()\n      SWAP1 \t\t\tadmins.pop()\n      PUSH 0\t\t\tadmins.pop()\n      MSTORE \t\t\tadmins.pop()\n      PUSH 20\t\t\tadmins.pop()\n      PUSH 0\t\t\tadmins.pop()\n      KECCAK256 \t\t\tadmins.pop()\n      ADD \t\t\tadmins.pop()\n      PUSH 0\t\t\tadmins.pop()\n      PUSH 100\t\t\tadmins.pop()\n      EXP \t\t\tadmins.pop()\n      DUP2 \t\t\tadmins.pop()\n      SLOAD \t\t\tadmins.pop()\n      SWAP1 \t\t\tadmins.pop()\n      PUSH FFFFFFFFFFFFFFFFFFFFFFFFFFFFFFFFFFFFFFFF\t\t\tadmins.pop()\n      MUL \t\t\tadmins.pop()\n      NOT \t\t\tadmins.pop()\n      AND \t\t\tadmins.pop()\n      SWAP1 \t\t\tadmins.pop()\n      SSTORE \t\t\tadmins.pop()\n      SWAP1 \t\t\tadmins.pop()\n      SSTORE \t\t\tadmins.pop()\n      POP \t\t\treturn;\n      POP \t\t\treturn;\n      PUSH [tag] 157\t\t\treturn;\n      JUMP \t\t\treturn;\n    tag 165\t\t\tif (admins[i] == _admin) {\\r\\n...\n      JUMPDEST \t\t\tif (admins[i] == _admin) {\\r\\n...\n      DUP1 \t\t\ti++\n      DUP1 \t\t\ti++\n      PUSH 1\t\t\ti++\n      ADD \t\t\ti++\n      SWAP2 \t\t\ti++\n      POP \t\t\ti++\n      POP \t\t\ti++\n      PUSH [tag] 158\t\t\tfor (uint i = 0; i < len; i++)...\n      JUMP \t\t\tfor (uint i = 0; i < len; i++)...\n    tag 159\t\t\tfor (uint i = 0; i < len; i++)...\n      JUMPDEST \t\t\tfor (uint i = 0; i < len; i++)...\n      POP \t\t\tfor (uint i = 0; i < len; i++)...\n      PUSH 40\t\t\trevert(\"Admin not found\")\n      MLOAD \t\t\trevert(\"Admin not found\")\n      PUSH 8C379A000000000000000000000000000000000000000000000000000000000\t\t\trevert(\"Admin not found\")\n      DUP2 \t\t\trevert(\"Admin not found\")\n      MSTORE \t\t\trevert(\"Admin not found\")\n      PUSH 4\t\t\trevert(\"Admin not found\")\n      ADD \t\t\trevert(\"Admin not found\")\n      PUSH [tag] 178\t\t\trevert(\"Admin not found\")\n      SWAP1 \t\t\trevert(\"Admin not found\")\n      PUSH [tag] 179\t\t\trevert(\"Admin not found\")\n      JUMP \t\t\trevert(\"Admin not found\")\n    tag 178\t\t\trevert(\"Admin not found\")\n      JUMPDEST \t\t\trevert(\"Admin not found\")\n      PUSH 40\t\t\trevert(\"Admin not found\")\n      MLOAD \t\t\trevert(\"Admin not found\")\n      DUP1 \t\t\trevert(\"Admin not found\")\n      SWAP2 \t\t\trevert(\"Admin not found\")\n      SUB \t\t\trevert(\"Admin not found\")\n      SWAP1 \t\t\trevert(\"Admin not found\")\n      REVERT \t\t\trevert(\"Admin not found\")\n    tag 157\t\t\te\n      JUMPDEST \t\t\te\n      POP \t\t\tfunction removeAdmin(address _...\n      JUMP \t\t\tfunction removeAdmin(address _...\n    tag 57\t\t\tersalVerifier public verifier;...\n      JUMPDEST \t\t\tersalVerifier public verifier;...\n      PUSH A\t\t\tersalVerifier public verifier;...\n      PUSH 0\t\t\tersalVerifier public verifier;...\n      SWAP1 \t\t\tersalVerifier public verifier;...\n      SLOAD \t\t\tersalVerifier public verifier;...\n      SWAP1 \t\t\tersalVerifier public verifier;...\n      PUSH 100\t\t\tersalVerifier public verifier;...\n      EXP \t\t\tersalVerifier public verifier;...\n      SWAP1 \t\t\tersalVerifier public verifier;...\n      DIV \t\t\tersalVerifier public verifier;...\n      PUSH FFFFFFFFFFFFFFFFFFFFFFFFFFFFFFFFFFFFFFFF\t\t\tersalVerifier public verifier;...\n      AND \t\t\tersalVerifier public verifier;...\n      DUP2 \t\t\tersalVerifier public verifier;...\n      JUMP \t\t\tersalVerifier public verifier;...\n    tag 63\t\t\ton safeBatchTransferFrom(\\r\\n ...\n      JUMPDEST \t\t\ton safeBatchTransferFrom(\\r\\n ...\n      DUP2 \t\t\ts.lengt\n      MLOAD \t\t\ts.length, \"ERC\n      DUP4 \t\t\tDs.lengt\n      MLOAD \t\t\tDs.length == am\n      EQ \t\t\tDs.length == amounts.length, \"...\n      PUSH [tag] 181\t\t\te(tokenIDs.length == amounts.l...\n      JUMPI \t\t\te(tokenIDs.length == amounts.l...\n      PUSH 40\t\t\te(tokenIDs.length == amounts.l...\n      MLOAD \t\t\te(tokenIDs.length == amounts.l...\n      PUSH 8C379A000000000000000000000000000000000000000000000000000000000\t\t\te(tokenIDs.length == amounts.l...\n      DUP2 \t\t\te(tokenIDs.length == amounts.l...\n      MSTORE \t\t\te(tokenIDs.length == amounts.l...\n      PUSH 4\t\t\te(tokenIDs.length == amounts.l...\n      ADD \t\t\te(tokenIDs.length == amounts.l...\n      PUSH [tag] 182\t\t\te(tokenIDs.length == amounts.l...\n      SWAP1 \t\t\te(tokenIDs.length == amounts.l...\n      PUSH [tag] 183\t\t\te(tokenIDs.length == amounts.l...\n      JUMP \t\t\te(tokenIDs.length == amounts.l...\n    tag 182\t\t\te(tokenIDs.length == amounts.l...\n      JUMPDEST \t\t\te(tokenIDs.length == amounts.l...\n      PUSH 40\t\t\te(tokenIDs.length == amounts.l...\n      MLOAD \t\t\te(tokenIDs.length == amounts.l...\n      DUP1 \t\t\te(tokenIDs.length == amounts.l...\n      SWAP2 \t\t\te(tokenIDs.length == amounts.l...\n      SUB \t\t\te(tokenIDs.length == amounts.l...\n      SWAP1 \t\t\te(tokenIDs.length == amounts.l...\n      REVERT \t\t\te(tokenIDs.length == amounts.l...\n    tag 181\t\t\te(tokenIDs.length == amounts.l...\n      JUMPDEST \t\t\te(tokenIDs.length == amounts.l...\n      PUSH 0\t\t\tR\n      PUSH FFFFFFFFFFFFFFFFFFFFFFFFFFFFFFFFFFFFFFFF\t\t\taddress(0), \"ERC\n      AND \t\t\taddress(0), \"ERC\n      DUP5 \t\t\tad\n      PUSH FFFFFFFFFFFFFFFFFFFFFFFFFFFFFFFFFFFFFFFF\t\t\taddress(0), \"ERC\n      AND \t\t\taddress(0), \"ERC\n      SUB \t\t\taddress(0), \"ERC\n      PUSH [tag] 184\t\t\te(to != address(0), \"ERC1155: ...\n      JUMPI \t\t\te(to != address(0), \"ERC1155: ...\n      PUSH 40\t\t\te(to != address(0), \"ERC1155: ...\n      MLOAD \t\t\te(to != address(0), \"ERC1155: ...\n      PUSH 8C379A000000000000000000000000000000000000000000000000000000000\t\t\te(to != address(0), \"ERC1155: ...\n      DUP2 \t\t\te(to != address(0), \"ERC1155: ...\n      MSTORE \t\t\te(to != address(0), \"ERC1155: ...\n      PUSH 4\t\t\te(to != address(0), \"ERC1155: ...\n      ADD \t\t\te(to != address(0), \"ERC1155: ...\n      PUSH [tag] 185\t\t\te(to != address(0), \"ERC1155: ...\n      SWAP1 \t\t\te(to != address(0), \"ERC1155: ...\n      PUSH [tag] 186\t\t\te(to != address(0), \"ERC1155: ...\n      JUMP \t\t\te(to != address(0), \"ERC1155: ...\n    tag 185\t\t\te(to != address(0), \"ERC1155: ...\n      JUMPDEST \t\t\te(to != address(0), \"ERC1155: ...\n      PUSH 40\t\t\te(to != address(0), \"ERC1155: ...\n      MLOAD \t\t\te(to != address(0), \"ERC1155: ...\n      DUP1 \t\t\te(to != address(0), \"ERC1155: ...\n      SWAP2 \t\t\te(to != address(0), \"ERC1155: ...\n      SUB \t\t\te(to != address(0), \"ERC1155: ...\n      SWAP1 \t\t\te(to != address(0), \"ERC1155: ...\n      REVERT \t\t\te(to != address(0), \"ERC1155: ...\n    tag 184\t\t\te(to != address(0), \"ERC1155: ...\n      JUMPDEST \t\t\te(to != address(0), \"ERC1155: ...\n      PUSH 0\t\t\t6 i = 0; \n      PUSH 0\t\t\t \n      SWAP1 \t\t\t6 i = 0; i < \n      POP \t\t\t6 i = 0; i < \n    tag 187\t\t\tint256 i = 0; i < tokenIDs.len...\n      JUMPDEST \t\t\tint256 i = 0; i < tokenIDs.len...\n      DUP4 \t\t\tDs.lengt\n      MLOAD \t\t\tDs.length; ++i)\n      DUP2 \t\t\tk\n      LT \t\t\tkenIDs.length; ++i)\n      ISZERO \t\t\tint256 i = 0; i < tokenIDs.len...\n      PUSH [tag] 188\t\t\tint256 i = 0; i < tokenIDs.len...\n      JUMPI \t\t\tint256 i = 0; i < tokenIDs.len...\n      PUSH [tag] 190\t\t\tAllProofsVerified(tokenIDs[i])...\n      DUP5 \t\t\tDs[i]);\\r\n      DUP3 \t\t\t \n      DUP2 \t\t\tDs[i]);\\r\\n  \n      MLOAD \t\t\tDs[i]);\\r\\n  \n      DUP2 \t\t\tDs[i]);\\r\\n  \n      LT \t\t\tDs[i]);\\r\\n  \n      PUSH [tag] 191\t\t\tDs[i]);\\r\\n  \n      JUMPI \t\t\tDs[i]);\\r\\n  \n      PUSH [tag] 192\t\t\tDs[i]);\\r\\n  \n      PUSH [tag] 163\t\t\tDs[i]);\\r\\n  \n      JUMP \t\t\tDs[i]);\\r\\n  \n    tag 192\t\t\tDs[i]);\\r\\n  \n      JUMPDEST \t\t\tDs[i]);\\r\\n  \n    tag 191\t\t\tDs[i]);\\r\\n  \n      JUMPDEST \t\t\tDs[i]);\\r\\n  \n      PUSH 20\t\t\tDs[i]);\\r\\n  \n      MUL \t\t\tDs[i]);\\r\\n  \n      PUSH 20\t\t\tDs[i]);\\r\\n  \n      ADD \t\t\tDs[i]);\\r\\n  \n      ADD \t\t\tDs[i]);\\r\\n  \n      MLOAD \t\t\tDs[i]);\\r\\n  \n      PUSH [tag] 193\t\t\tAllProofsVerified(token\n      JUMP \t\t\tAllProofsVerified(tokenIDs[i])...\n    tag 190\t\t\tAllProofsVerified(tokenIDs[i])...\n      JUMPDEST \t\t\tAllProofsVerified(tokenIDs[i])...\n      PUSH [tag] 194\t\t\tansferFrom(from, to, tokenIDs[...\n      DUP7 \t\t\tto, \n      DUP7 \t\t\tke\n      DUP7 \t\t\tDs[i], a\n      DUP5 \t\t\to\n      DUP2 \t\t\tDs[i], amou\n      MLOAD \t\t\tDs[i], amou\n      DUP2 \t\t\tDs[i], amou\n      LT \t\t\tDs[i], amou\n      PUSH [tag] 195\t\t\tDs[i], amou\n      JUMPI \t\t\tDs[i], amou\n      PUSH [tag] 196\t\t\tDs[i], amou\n      PUSH [tag] 163\t\t\tDs[i], amou\n      JUMP \t\t\tDs[i], amou\n    tag 196\t\t\tDs[i], amou\n      JUMPDEST \t\t\tDs[i], amou\n    tag 195\t\t\tDs[i], amou\n      JUMPDEST \t\t\tDs[i], amou\n      PUSH 20\t\t\tDs[i], amou\n      MUL \t\t\tDs[i], amou\n      PUSH 20\t\t\tDs[i], amou\n      ADD \t\t\tDs[i], amou\n      ADD \t\t\tDs[i], amou\n      MLOAD \t\t\tDs[i], amou\n      DUP7 \t\t\ts[i], d\n      DUP6 \t\t\tt\n      DUP2 \t\t\ts[i], data\n      MLOAD \t\t\ts[i], data\n      DUP2 \t\t\ts[i], data\n      LT \t\t\ts[i], data\n      PUSH [tag] 197\t\t\ts[i], data\n      JUMPI \t\t\ts[i], data\n      PUSH [tag] 198\t\t\ts[i], data\n      PUSH [tag] 163\t\t\ts[i], data\n      JUMP \t\t\ts[i], data\n    tag 198\t\t\ts[i], data\n      JUMPDEST \t\t\ts[i], data\n    tag 197\t\t\ts[i], data\n      JUMPDEST \t\t\ts[i], data\n      PUSH 20\t\t\ts[i], data\n      MUL \t\t\ts[i], data\n      PUSH 20\t\t\ts[i], data\n      ADD \t\t\ts[i], data\n      ADD \t\t\ts[i], data\n      MLOAD \t\t\ts[i], data\n      DUP7 \t\t\t\\r\\n  \n      PUSH [tag] 133\t\t\tansferFrom(from,\n      JUMP \t\t\tansferFrom(from, to, tokenIDs[...\n    tag 194\t\t\tansferFrom(from, to, tokenIDs[...\n      JUMPDEST \t\t\tansferFrom(from, to, tokenIDs[...\n      DUP1 \t\t\t\\r\\n \n      PUSH 1\t\t\t\\r\\n \n      ADD \t\t\t\\r\\n \n      SWAP1 \t\t\t\\r\\n \n      POP \t\t\t\\r\\n \n      PUSH [tag] 187\t\t\tint256 i = 0; i < tokenIDs.len...\n      JUMP \t\t\tint256 i = 0; i < tokenIDs.len...\n    tag 188\t\t\tint256 i = 0; i < tokenIDs.len...\n      JUMPDEST \t\t\tint256 i = 0; i < tokenIDs.len...\n      POP \t\t\tint256 i = 0; i < tokenIDs.len...\n      POP \t\t\ton safeBatchTransferFrom(\\r\\n ...\n      POP \t\t\ton safeBatchTransferFrom(\\r\\n ...\n      POP \t\t\ton safeBatchTransferFrom(\\r\\n ...\n      POP \t\t\ton safeBatchTransferFrom(\\r\\n ...\n      POP \t\t\ton safeBatchTransferFrom(\\r\\n ...\n      JUMP \t\t\ton safeBatchTransferFrom(\\r\\n ...\n    tag 65\t\t\tfunction getAdmins() public vi...\n      JUMPDEST \t\t\tfunction getAdmins() public vi...\n      PUSH 60\t\t\taddress[] memory\n      PUSH [tag] 200\t\t\tnly the owner\n      PUSH [tag] 156\t\t\tnly the own\n      JUMP \t\t\tnly the owner\n    tag 200\t\t\tnly the owner\n      JUMPDEST \t\t\tnly the owner\n      PUSH 4\t\t\tadmins\n      DUP1 \t\t\treturn admins\n      SLOAD \t\t\treturn admins\n      DUP1 \t\t\treturn admins\n      PUSH 20\t\t\treturn admins\n      MUL \t\t\treturn admins\n      PUSH 20\t\t\treturn admins\n      ADD \t\t\treturn admins\n      PUSH 40\t\t\treturn admins\n      MLOAD \t\t\treturn admins\n      SWAP1 \t\t\treturn admins\n      DUP2 \t\t\treturn admins\n      ADD \t\t\treturn admins\n      PUSH 40\t\t\treturn admins\n      MSTORE \t\t\treturn admins\n      DUP1 \t\t\treturn admins\n      SWAP3 \t\t\treturn admins\n      SWAP2 \t\t\treturn admins\n      SWAP1 \t\t\treturn admins\n      DUP2 \t\t\treturn admins\n      DUP2 \t\t\treturn admins\n      MSTORE \t\t\treturn admins\n      PUSH 20\t\t\treturn admins\n      ADD \t\t\treturn admins\n      DUP3 \t\t\treturn admins\n      DUP1 \t\t\treturn admins\n      SLOAD \t\t\treturn admins\n      DUP1 \t\t\treturn admins\n      ISZERO \t\t\treturn admins\n      PUSH [tag] 202\t\t\treturn admins\n      JUMPI \t\t\treturn admins\n      PUSH 20\t\t\treturn admins\n      MUL \t\t\treturn admins\n      DUP3 \t\t\treturn admins\n      ADD \t\t\treturn admins\n      SWAP2 \t\t\treturn admins\n      SWAP1 \t\t\treturn admins\n      PUSH 0\t\t\treturn admins\n      MSTORE \t\t\treturn admins\n      PUSH 20\t\t\treturn admins\n      PUSH 0\t\t\treturn admins\n      KECCAK256 \t\t\treturn admins\n      SWAP1 \t\t\treturn admins\n    tag 203\t\t\treturn admins\n      JUMPDEST \t\t\treturn admins\n      DUP2 \t\t\treturn admins\n      PUSH 0\t\t\treturn admins\n      SWAP1 \t\t\treturn admins\n      SLOAD \t\t\treturn admins\n      SWAP1 \t\t\treturn admins\n      PUSH 100\t\t\treturn admins\n      EXP \t\t\treturn admins\n      SWAP1 \t\t\treturn admins\n      DIV \t\t\treturn admins\n      PUSH FFFFFFFFFFFFFFFFFFFFFFFFFFFFFFFFFFFFFFFF\t\t\treturn admins\n      AND \t\t\treturn admins\n      PUSH FFFFFFFFFFFFFFFFFFFFFFFFFFFFFFFFFFFFFFFF\t\t\treturn admins\n      AND \t\t\treturn admins\n      DUP2 \t\t\treturn admins\n      MSTORE \t\t\treturn admins\n      PUSH 20\t\t\treturn admins\n      ADD \t\t\treturn admins\n      SWAP1 \t\t\treturn admins\n      PUSH 1\t\t\treturn admins\n      ADD \t\t\treturn admins\n      SWAP1 \t\t\treturn admins\n      DUP1 \t\t\treturn admins\n      DUP4 \t\t\treturn admins\n      GT \t\t\treturn admins\n      PUSH [tag] 203\t\t\treturn admins\n      JUMPI \t\t\treturn admins\n    tag 202\t\t\treturn admins\n      JUMPDEST \t\t\treturn admins\n      POP \t\t\treturn admins\n      POP \t\t\treturn admins\n      POP \t\t\treturn admins\n      POP \t\t\treturn admins\n      POP \t\t\treturn admins\n      SWAP1 \t\t\treturn admins\n      POP \t\t\treturn admins\n      SWAP1 \t\t\tfunction getAdmins() public vi...\n      JUMP \t\t\tfunction getAdmins() public vi...\n    tag 71\t\t\ttion deleteProofRequestAndAddr...\n      JUMPDEST \t\t\ttion deleteProofRequestAndAddr...\n      PUSH [tag] 205\t\t\t_isAdmin(msg.sender)\n      CALLER \t\t\tmsg.sender\n      PUSH [tag] 206\t\t\t_isAdmin\n      JUMP \t\t\t_isAdmin(msg.sender)\n    tag 205\t\t\t_isAdmin(msg.sender)\n      JUMPDEST \t\t\t_isAdmin(msg.sender)\n      PUSH [tag] 207\t\t\trequire(_isAdmin(msg.sender), ...\n      JUMPI \t\t\trequire(_isAdmin(msg.sender), ...\n      PUSH 40\t\t\trequire(_isAdmin(msg.sender), ...\n      MLOAD \t\t\trequire(_isAdmin(msg.sender), ...\n      PUSH 8C379A000000000000000000000000000000000000000000000000000000000\t\t\trequire(_isAdmin(msg.sender), ...\n      DUP2 \t\t\trequire(_isAdmin(msg.sender), ...\n      MSTORE \t\t\trequire(_isAdmin(msg.sender), ...\n      PUSH 4\t\t\trequire(_isAdmin(msg.sender), ...\n      ADD \t\t\trequire(_isAdmin(msg.sender), ...\n      PUSH [tag] 208\t\t\trequire(_isAdmin(msg.sender), ...\n      SWAP1 \t\t\trequire(_isAdmin(msg.sender), ...\n      PUSH [tag] 209\t\t\trequire(_isAdmin(msg.sender), ...\n      JUMP \t\t\trequire(_isAdmin(msg.sender), ...\n    tag 208\t\t\trequire(_isAdmin(msg.sender), ...\n      JUMPDEST \t\t\trequire(_isAdmin(msg.sender), ...\n      PUSH 40\t\t\trequire(_isAdmin(msg.sender), ...\n      MLOAD \t\t\trequire(_isAdmin(msg.sender), ...\n      DUP1 \t\t\trequire(_isAdmin(msg.sender), ...\n      SWAP2 \t\t\trequire(_isAdmin(msg.sender), ...\n      SUB \t\t\trequire(_isAdmin(msg.sender), ...\n      SWAP1 \t\t\trequire(_isAdmin(msg.sender), ...\n      REVERT \t\t\trequire(_isAdmin(msg.sender), ...\n    tag 207\t\t\trequire(_isAdmin(msg.sender), ...\n      JUMPDEST \t\t\trequire(_isAdmin(msg.sender), ...\n      PUSH [tag] 211\t\t\tTokenIDs.contains(tokenID), \"t\n      DUP3 \t\t\tnID), \"\n      PUSH 5\t\t\tTokenIDs.con\n      PUSH [tag] 212\t\t\tTokenIDs.contains(tok\n      SWAP1 \t\t\tTokenIDs.contains(tok\n      SWAP2 \t\t\tTokenIDs.contains(tokenID), \"t\n      SWAP1 \t\t\tTokenIDs.contains(tokenID), \"t\n      PUSH FFFFFFFF\t\t\tTokenIDs.contains(tokenID), \"t\n      AND \t\t\tTokenIDs.contains(tokenID), \"t\n      JUMP \t\t\tTokenIDs.contains(tokenID), \"t\n    tag 211\t\t\tTokenIDs.contains(tokenID), \"t\n      JUMPDEST \t\t\tTokenIDs.contains(tokenID), \"t\n      PUSH [tag] 213\t\t\tire(_allTokenIDs.contains(toke...\n      JUMPI \t\t\tire(_allTokenIDs.contains(toke...\n      PUSH 40\t\t\tire(_allTokenIDs.contains(toke...\n      MLOAD \t\t\tire(_allTokenIDs.contains(toke...\n      PUSH 8C379A000000000000000000000000000000000000000000000000000000000\t\t\tire(_allTokenIDs.contains(toke...\n      DUP2 \t\t\tire(_allTokenIDs.contains(toke...\n      MSTORE \t\t\tire(_allTokenIDs.contains(toke...\n      PUSH 4\t\t\tire(_allTokenIDs.contains(toke...\n      ADD \t\t\tire(_allTokenIDs.contains(toke...\n      PUSH [tag] 214\t\t\tire(_allTokenIDs.contains(toke...\n      SWAP1 \t\t\tire(_allTokenIDs.contains(toke...\n      PUSH [tag] 215\t\t\tire(_allTokenIDs.contains(toke...\n      JUMP \t\t\tire(_allTokenIDs.contains(toke...\n    tag 214\t\t\tire(_allTokenIDs.contains(toke...\n      JUMPDEST \t\t\tire(_allTokenIDs.contains(toke...\n      PUSH 40\t\t\tire(_allTokenIDs.contains(toke...\n      MLOAD \t\t\tire(_allTokenIDs.contains(toke...\n      DUP1 \t\t\tire(_allTokenIDs.contains(toke...\n      SWAP2 \t\t\tire(_allTokenIDs.contains(toke...\n      SUB \t\t\tire(_allTokenIDs.contains(toke...\n      SWAP1 \t\t\tire(_allTokenIDs.contains(toke...\n      REVERT \t\t\tire(_allTokenIDs.contains(toke...\n    tag 213\t\t\tire(_allTokenIDs.contains(toke...\n      JUMPDEST \t\t\tire(_allTokenIDs.contains(toke...\n      PUSH 0\t\t\t\"\n      PUSH FFFFFFFFFFFFFFFFFFFFFFFFFFFFFFFFFFFFFFFF\t\t\tnID_proofRequest_address[token...\n      AND \t\t\tnID_proofRequest_address[token...\n      PUSH 8\t\t\tnID_proofRequest_address[tok\n      PUSH 0\t\t\tnID_proofRequest_address[token...\n      DUP5 \t\t\tnID][re\n      DUP2 \t\t\tnID_proofRequest_address[token...\n      MSTORE \t\t\tnID_proofRequest_address[token...\n      PUSH 20\t\t\tnID_proofRequest_address[token...\n      ADD \t\t\tnID_proofRequest_address[token...\n      SWAP1 \t\t\tnID_proofRequest_address[token...\n      DUP2 \t\t\tnID_proofRequest_address[token...\n      MSTORE \t\t\tnID_proofRequest_address[token...\n      PUSH 20\t\t\tnID_proofRequest_address[token...\n      ADD \t\t\tnID_proofRequest_address[token...\n      PUSH 0\t\t\tnID_proofRequest_address[token...\n      KECCAK256 \t\t\tnID_proofRequest_address[token...\n      PUSH 0\t\t\tnID_proofRequest_address[token...\n      DUP4 \t\t\testID] !=\n      PUSH FFFFFFFFFFFFFFFF\t\t\tnID_proofRequest_address[token...\n      AND \t\t\tnID_proofRequest_address[token...\n      PUSH FFFFFFFFFFFFFFFF\t\t\tnID_proofRequest_address[token...\n      AND \t\t\tnID_proofRequest_address[token...\n      DUP2 \t\t\tnID_proofRequest_address[token...\n      MSTORE \t\t\tnID_proofRequest_address[token...\n      PUSH 20\t\t\tnID_proofRequest_address[token...\n      ADD \t\t\tnID_proofRequest_address[token...\n      SWAP1 \t\t\tnID_proofRequest_address[token...\n      DUP2 \t\t\tnID_proofRequest_address[token...\n      MSTORE \t\t\tnID_proofRequest_address[token...\n      PUSH 20\t\t\tnID_proofRequest_address[token...\n      ADD \t\t\tnID_proofRequest_address[token...\n      PUSH 0\t\t\tnID_proofRequest_address[token...\n      KECCAK256 \t\t\tnID_proofRequest_address[token...\n      PUSH 0\t\t\tnID_proofRequest_address[token...\n      SWAP1 \t\t\tnID_proofRequest_address[token...\n      SLOAD \t\t\tnID_proofRequest_address[token...\n      SWAP1 \t\t\tnID_proofRequest_address[token...\n      PUSH 100\t\t\tnID_proofRequest_address[token...\n      EXP \t\t\tnID_proofRequest_address[token...\n      SWAP1 \t\t\tnID_proofRequest_address[token...\n      DIV \t\t\tnID_proofRequest_address[token...\n      PUSH FFFFFFFFFFFFFFFFFFFFFFFFFFFFFFFFFFFFFFFF\t\t\tnID_proofRequest_address[token...\n      AND \t\t\tnID_proofRequest_address[token...\n      PUSH FFFFFFFFFFFFFFFFFFFFFFFFFFFFFFFFFFFFFFFF\t\t\tnID_proofRequest_address[token...\n      AND \t\t\tnID_proofRequest_address[token...\n      SUB \t\t\tnID_proofRequest_address[token...\n      PUSH [tag] 216\t\t\tire(tokenID_proofRequest_addre...\n      JUMPI \t\t\tire(tokenID_proofRequest_addre...\n      PUSH 40\t\t\tire(tokenID_proofRequest_addre...\n      MLOAD \t\t\tire(tokenID_proofRequest_addre...\n      PUSH 8C379A000000000000000000000000000000000000000000000000000000000\t\t\tire(tokenID_proofRequest_addre...\n      DUP2 \t\t\tire(tokenID_proofRequest_addre...\n      MSTORE \t\t\tire(tokenID_proofRequest_addre...\n      PUSH 4\t\t\tire(tokenID_proofRequest_addre...\n      ADD \t\t\tire(tokenID_proofRequest_addre...\n      PUSH [tag] 217\t\t\tire(tokenID_proofRequest_addre...\n      SWAP1 \t\t\tire(tokenID_proofRequest_addre...\n      PUSH [tag] 218\t\t\tire(tokenID_proofRequest_addre...\n      JUMP \t\t\tire(tokenID_proofRequest_addre...\n    tag 217\t\t\tire(tokenID_proofRequest_addre...\n      JUMPDEST \t\t\tire(tokenID_proofRequest_addre...\n      PUSH 40\t\t\tire(tokenID_proofRequest_addre...\n      MLOAD \t\t\tire(tokenID_proofRequest_addre...\n      DUP1 \t\t\tire(tokenID_proofRequest_addre...\n      SWAP2 \t\t\tire(tokenID_proofRequest_addre...\n      SUB \t\t\tire(tokenID_proofRequest_addre...\n      SWAP1 \t\t\tire(tokenID_proofRequest_addre...\n      REVERT \t\t\tire(tokenID_proofRequest_addre...\n    tag 216\t\t\tire(tokenID_proofRequest_addre...\n      JUMPDEST \t\t\tire(tokenID_proofRequest_addre...\n      PUSH 8\t\t\tnID_proofRequest_address[tok\n      PUSH 0\t\t\tnID_proofRequest_address[token...\n      DUP4 \t\t\tnID][re\n      DUP2 \t\t\tnID_proofRequest_address[token...\n      MSTORE \t\t\tnID_proofRequest_address[token...\n      PUSH 20\t\t\tnID_proofRequest_address[token...\n      ADD \t\t\tnID_proofRequest_address[token...\n      SWAP1 \t\t\tnID_proofRequest_address[token...\n      DUP2 \t\t\tnID_proofRequest_address[token...\n      MSTORE \t\t\tnID_proofRequest_address[token...\n      PUSH 20\t\t\tnID_proofRequest_address[token...\n      ADD \t\t\tnID_proofRequest_address[token...\n      PUSH 0\t\t\tnID_proofRequest_address[token...\n      KECCAK256 \t\t\tnID_proofRequest_address[token...\n      PUSH 0\t\t\tnID_proofRequest_address[token...\n      DUP3 \t\t\testID];\\r\\n\n      PUSH FFFFFFFFFFFFFFFF\t\t\tnID_proofRequest_address[token...\n      AND \t\t\tnID_proofRequest_address[token...\n      PUSH FFFFFFFFFFFFFFFF\t\t\tnID_proofRequest_address[token...\n      AND \t\t\tnID_proofRequest_address[token...\n      DUP2 \t\t\tnID_proofRequest_address[token...\n      MSTORE \t\t\tnID_proofRequest_address[token...\n      PUSH 20\t\t\tnID_proofRequest_address[token...\n      ADD \t\t\tnID_proofRequest_address[token...\n      SWAP1 \t\t\tnID_proofRequest_address[token...\n      DUP2 \t\t\tnID_proofRequest_address[token...\n      MSTORE \t\t\tnID_proofRequest_address[token...\n      PUSH 20\t\t\tnID_proofRequest_address[token...\n      ADD \t\t\tnID_proofRequest_address[token...\n      PUSH 0\t\t\tnID_proofRequest_address[token...\n      KECCAK256 \t\t\tnID_proofRequest_address[token...\n      PUSH 0\t\t\tnID_proofRequest_address[token...\n      PUSH 100\t\t\tte tokenID_proofRequest_addres...\n      EXP \t\t\tte tokenID_proofRequest_addres...\n      DUP2 \t\t\tte tokenID_proofRequest_addres...\n      SLOAD \t\t\tte tokenID_proofRequest_addres...\n      SWAP1 \t\t\tte tokenID_proofRequest_addres...\n      PUSH FFFFFFFFFFFFFFFFFFFFFFFFFFFFFFFFFFFFFFFF\t\t\tte tokenID_proofRequest_addres...\n      MUL \t\t\tte tokenID_proofRequest_addres...\n      NOT \t\t\tte tokenID_proofRequest_addres...\n      AND \t\t\tte tokenID_proofRequest_addres...\n      SWAP1 \t\t\tte tokenID_proofRequest_addres...\n      SSTORE \t\t\tte tokenID_proofRequest_addres...\n      PUSH 0\t\t\t256 i = 0\n      PUSH 0\t\t\t \n      SWAP1 \t\t\t256 i = 0; i \n      POP \t\t\t256 i = 0; i \n    tag 219\t\t\t(uint256 i = 0; i < proofReque...\n      JUMPDEST \t\t\t(uint256 i = 0; i < proofReque...\n      PUSH 9\t\t\tfRequestIDs.len\n      DUP1 \t\t\tfRequestIDs.length; i+\n      SLOAD \t\t\tfRequestIDs.length; i+\n      SWAP1 \t\t\tfRequestIDs.length; i+\n      POP \t\t\tfRequestIDs.length; i+\n      DUP2 \t\t\tp\n      LT \t\t\tproofRequestIDs.length; i+\n      ISZERO \t\t\t(uint256 i = 0; i < proofReque...\n      PUSH [tag] 220\t\t\t(uint256 i = 0; i < proofReque...\n      JUMPI \t\t\t(uint256 i = 0; i < proofReque...\n      DUP2 \t\t\testID) {\\r\n      PUSH FFFFFFFFFFFFFFFF\t\t\tfRequestIDs[i] == requestID) {...\n      AND \t\t\tfRequestIDs[i] == requestID) {...\n      PUSH 9\t\t\tfRequestIDs[i] \n      DUP3 \t\t\t=\n      DUP2 \t\t\tfRequestIDs[i] == \n      SLOAD \t\t\tfRequestIDs[i] == \n      DUP2 \t\t\tfRequestIDs[i] == \n      LT \t\t\tfRequestIDs[i] == \n      PUSH [tag] 222\t\t\tfRequestIDs[i] == \n      JUMPI \t\t\tfRequestIDs[i] == \n      PUSH [tag] 223\t\t\tfRequestIDs[i] == \n      PUSH [tag] 163\t\t\tfRequestIDs[i] == \n      JUMP \t\t\tfRequestIDs[i] == \n    tag 223\t\t\tfRequestIDs[i] == \n      JUMPDEST \t\t\tfRequestIDs[i] == \n    tag 222\t\t\tfRequestIDs[i] == \n      JUMPDEST \t\t\tfRequestIDs[i] == \n      SWAP1 \t\t\tfRequestIDs[i] == \n      PUSH 0\t\t\tfRequestIDs[i] == \n      MSTORE \t\t\tfRequestIDs[i] == \n      PUSH 20\t\t\tfRequestIDs[i] == \n      PUSH 0\t\t\tfRequestIDs[i] == \n      KECCAK256 \t\t\tfRequestIDs[i] == \n      SWAP1 \t\t\tfRequestIDs[i] == \n      PUSH 4\t\t\tfRequestIDs[i] == \n      SWAP2 \t\t\tfRequestIDs[i] == \n      DUP3 \t\t\tfRequestIDs[i] == \n      DUP3 \t\t\tfRequestIDs[i] == \n      DIV \t\t\tfRequestIDs[i] == \n      ADD \t\t\tfRequestIDs[i] == \n      SWAP2 \t\t\tfRequestIDs[i] == \n      SWAP1 \t\t\tfRequestIDs[i] == \n      MOD \t\t\tfRequestIDs[i] == \n      PUSH 8\t\t\tfRequestIDs[i] == \n      MUL \t\t\tfRequestIDs[i] == \n      SWAP1 \t\t\tfRequestIDs[i] == \n      SLOAD \t\t\tfRequestIDs[i] == \n      SWAP1 \t\t\tfRequestIDs[i] == \n      PUSH 100\t\t\tfRequestIDs[i] == \n      EXP \t\t\tfRequestIDs[i] == \n      SWAP1 \t\t\tfRequestIDs[i] == \n      DIV \t\t\tfRequestIDs[i] == \n      PUSH FFFFFFFFFFFFFFFF\t\t\tfRequestIDs[i] == \n      AND \t\t\tfRequestIDs[i] == \n      PUSH FFFFFFFFFFFFFFFF\t\t\tfRequestIDs[i] == requestID) {...\n      AND \t\t\tfRequestIDs[i] == requestID) {...\n      SUB \t\t\tfRequestIDs[i] == requestID) {...\n      PUSH [tag] 225\t\t\tproofRequestIDs[i] == requestI...\n      JUMPI \t\t\tproofRequestIDs[i] == requestI...\n      PUSH 9\t\t\tfRequestIDs[pro\n      PUSH 1\t\t\t\\n\n      PUSH 9\t\t\tfRequestIDs.len\n      DUP1 \t\t\tfRequestIDs.length - 1\n      SLOAD \t\t\tfRequestIDs.length - 1\n      SWAP1 \t\t\tfRequestIDs.length - 1\n      POP \t\t\tfRequestIDs.length - 1\n      PUSH [tag] 226\t\t\tfRequestIDs.length - 1];\\r\\n\n      SWAP2 \t\t\tfRequestIDs.length - 1];\\r\\n\n      SWAP1 \t\t\tfRequestIDs.length - 1];\\r\\n\n      PUSH [tag] 167\t\t\tfRequestIDs.length - 1];\\r\\n\n      JUMP \t\t\tfRequestIDs.length - 1];\\r\\n\n    tag 226\t\t\tfRequestIDs.length - 1];\\r\\n\n      JUMPDEST \t\t\tfRequestIDs.length - 1];\\r\\n\n      DUP2 \t\t\tfRequestIDs[proofRequestIDs.le...\n      SLOAD \t\t\tfRequestIDs[proofRequestIDs.le...\n      DUP2 \t\t\tfRequestIDs[proofRequestIDs.le...\n      LT \t\t\tfRequestIDs[proofRequestIDs.le...\n      PUSH [tag] 227\t\t\tfRequestIDs[proofRequestIDs.le...\n      JUMPI \t\t\tfRequestIDs[proofRequestIDs.le...\n      PUSH [tag] 228\t\t\tfRequestIDs[proofRequestIDs.le...\n      PUSH [tag] 163\t\t\tfRequestIDs[proofRequestIDs.le...\n      JUMP \t\t\tfRequestIDs[proofRequestIDs.le...\n    tag 228\t\t\tfRequestIDs[proofRequestIDs.le...\n      JUMPDEST \t\t\tfRequestIDs[proofRequestIDs.le...\n    tag 227\t\t\tfRequestIDs[proofRequestIDs.le...\n      JUMPDEST \t\t\tfRequestIDs[proofRequestIDs.le...\n      SWAP1 \t\t\tfRequestIDs[proofRequestIDs.le...\n      PUSH 0\t\t\tfRequestIDs[proofRequestIDs.le...\n      MSTORE \t\t\tfRequestIDs[proofRequestIDs.le...\n      PUSH 20\t\t\tfRequestIDs[proofRequestIDs.le...\n      PUSH 0\t\t\tfRequestIDs[proofRequestIDs.le...\n      KECCAK256 \t\t\tfRequestIDs[proofRequestIDs.le...\n      SWAP1 \t\t\tfRequestIDs[proofRequestIDs.le...\n      PUSH 4\t\t\tfRequestIDs[proofRequestIDs.le...\n      SWAP2 \t\t\tfRequestIDs[proofRequestIDs.le...\n      DUP3 \t\t\tfRequestIDs[proofRequestIDs.le...\n      DUP3 \t\t\tfRequestIDs[proofRequestIDs.le...\n      DIV \t\t\tfRequestIDs[proofRequestIDs.le...\n      ADD \t\t\tfRequestIDs[proofRequestIDs.le...\n      SWAP2 \t\t\tfRequestIDs[proofRequestIDs.le...\n      SWAP1 \t\t\tfRequestIDs[proofRequestIDs.le...\n      MOD \t\t\tfRequestIDs[proofRequestIDs.le...\n      PUSH 8\t\t\tfRequestIDs[proofRequestIDs.le...\n      MUL \t\t\tfRequestIDs[proofRequestIDs.le...\n      SWAP1 \t\t\tfRequestIDs[proofRequestIDs.le...\n      SLOAD \t\t\tfRequestIDs[proofRequestIDs.le...\n      SWAP1 \t\t\tfRequestIDs[proofRequestIDs.le...\n      PUSH 100\t\t\tfRequestIDs[proofRequestIDs.le...\n      EXP \t\t\tfRequestIDs[proofRequestIDs.le...\n      SWAP1 \t\t\tfRequestIDs[proofRequestIDs.le...\n      DIV \t\t\tfRequestIDs[proofRequestIDs.le...\n      PUSH FFFFFFFFFFFFFFFF\t\t\tfRequestIDs[proofRequestIDs.le...\n      AND \t\t\tfRequestIDs[proofRequestIDs.le...\n      PUSH 9\t\t\tfRequestIDs[i] \n      DUP3 \t\t\t \n      DUP2 \t\t\tfRequestIDs[i] = p\n      SLOAD \t\t\tfRequestIDs[i] = p\n      DUP2 \t\t\tfRequestIDs[i] = p\n      LT \t\t\tfRequestIDs[i] = p\n      PUSH [tag] 230\t\t\tfRequestIDs[i] = p\n      JUMPI \t\t\tfRequestIDs[i] = p\n      PUSH [tag] 231\t\t\tfRequestIDs[i] = p\n      PUSH [tag] 163\t\t\tfRequestIDs[i] = p\n      JUMP \t\t\tfRequestIDs[i] = p\n    tag 231\t\t\tfRequestIDs[i] = p\n      JUMPDEST \t\t\tfRequestIDs[i] = p\n    tag 230\t\t\tfRequestIDs[i] = p\n      JUMPDEST \t\t\tfRequestIDs[i] = p\n      SWAP1 \t\t\tfRequestIDs[i] = p\n      PUSH 0\t\t\tfRequestIDs[i] = p\n      MSTORE \t\t\tfRequestIDs[i] = p\n      PUSH 20\t\t\tfRequestIDs[i] = p\n      PUSH 0\t\t\tfRequestIDs[i] = p\n      KECCAK256 \t\t\tfRequestIDs[i] = p\n      SWAP1 \t\t\tfRequestIDs[i] = p\n      PUSH 4\t\t\tfRequestIDs[i] = p\n      SWAP2 \t\t\tfRequestIDs[i] = p\n      DUP3 \t\t\tfRequestIDs[i] = p\n      DUP3 \t\t\tfRequestIDs[i] = p\n      DIV \t\t\tfRequestIDs[i] = p\n      ADD \t\t\tfRequestIDs[i] = p\n      SWAP2 \t\t\tfRequestIDs[i] = p\n      SWAP1 \t\t\tfRequestIDs[i] = p\n      MOD \t\t\tfRequestIDs[i] = p\n      PUSH 8\t\t\tfRequestIDs[i] = p\n      MUL \t\t\tfRequestIDs[i] = p\n      PUSH 100\t\t\tfRequestIDs[i] = proofRequestI...\n      EXP \t\t\tfRequestIDs[i] = proofRequestI...\n      DUP2 \t\t\tfRequestIDs[i] = proofRequestI...\n      SLOAD \t\t\tfRequestIDs[i] = proofRequestI...\n      DUP2 \t\t\tfRequestIDs[i] = proofRequestI...\n      PUSH FFFFFFFFFFFFFFFF\t\t\tfRequestIDs[i] = proofRequestI...\n      MUL \t\t\tfRequestIDs[i] = proofRequestI...\n      NOT \t\t\tfRequestIDs[i] = proofRequestI...\n      AND \t\t\tfRequestIDs[i] = proofRequestI...\n      SWAP1 \t\t\tfRequestIDs[i] = proofRequestI...\n      DUP4 \t\t\tfRequestIDs[i] = proofRequestI...\n      PUSH FFFFFFFFFFFFFFFF\t\t\tfRequestIDs[i] = proofRequestI...\n      AND \t\t\tfRequestIDs[i] = proofRequestI...\n      MUL \t\t\tfRequestIDs[i] = proofRequestI...\n      OR \t\t\tfRequestIDs[i] = proofRequestI...\n      SWAP1 \t\t\tfRequestIDs[i] = proofRequestI...\n      SSTORE \t\t\tfRequestIDs[i] = proofRequestI...\n      POP \t\t\tfRequestIDs[i] = proofRequestI...\n      PUSH 9\t\t\tfRequestIDs.pop\n      DUP1 \t\t\tfRequestIDs.pop();\\r\\n \n      SLOAD \t\t\tfRequestIDs.pop();\\r\\n \n      DUP1 \t\t\tfRequestIDs.pop();\\r\\n \n      PUSH [tag] 233\t\t\tfRequestIDs.pop();\\r\\n \n      JUMPI \t\t\tfRequestIDs.pop();\\r\\n \n      PUSH [tag] 234\t\t\tfRequestIDs.pop();\\r\\n \n      PUSH [tag] 176\t\t\tfRequestIDs.pop();\\r\\n \n      JUMP \t\t\tfRequestIDs.pop();\\r\\n \n    tag 234\t\t\tfRequestIDs.pop();\\r\\n \n      JUMPDEST \t\t\tfRequestIDs.pop();\\r\\n \n    tag 233\t\t\tfRequestIDs.pop();\\r\\n \n      JUMPDEST \t\t\tfRequestIDs.pop();\\r\\n \n      PUSH 1\t\t\tfRequestIDs.pop();\\r\\n \n      SWAP1 \t\t\tfRequestIDs.pop();\\r\\n \n      SUB \t\t\tfRequestIDs.pop();\\r\\n \n      DUP2 \t\t\tfRequestIDs.pop();\\r\\n \n      DUP2 \t\t\tfRequestIDs.pop();\\r\\n \n      SWAP1 \t\t\tfRequestIDs.pop();\\r\\n \n      PUSH 0\t\t\tfRequestIDs.pop();\\r\\n \n      MSTORE \t\t\tfRequestIDs.pop();\\r\\n \n      PUSH 20\t\t\tfRequestIDs.pop();\\r\\n \n      PUSH 0\t\t\tfRequestIDs.pop();\\r\\n \n      KECCAK256 \t\t\tfRequestIDs.pop();\\r\\n \n      SWAP1 \t\t\tfRequestIDs.pop();\\r\\n \n      PUSH 4\t\t\tfRequestIDs.pop();\\r\\n \n      SWAP2 \t\t\tfRequestIDs.pop();\\r\\n \n      DUP3 \t\t\tfRequestIDs.pop();\\r\\n \n      DUP3 \t\t\tfRequestIDs.pop();\\r\\n \n      DIV \t\t\tfRequestIDs.pop();\\r\\n \n      ADD \t\t\tfRequestIDs.pop();\\r\\n \n      SWAP2 \t\t\tfRequestIDs.pop();\\r\\n \n      SWAP1 \t\t\tfRequestIDs.pop();\\r\\n \n      MOD \t\t\tfRequestIDs.pop();\\r\\n \n      PUSH 8\t\t\tfRequestIDs.pop();\\r\\n \n      MUL \t\t\tfRequestIDs.pop();\\r\\n \n      PUSH 100\t\t\tfRequestIDs.pop();\\r\\n \n      EXP \t\t\tfRequestIDs.pop();\\r\\n \n      DUP2 \t\t\tfRequestIDs.pop();\\r\\n \n      SLOAD \t\t\tfRequestIDs.pop();\\r\\n \n      SWAP1 \t\t\tfRequestIDs.pop();\\r\\n \n      PUSH FFFFFFFFFFFFFFFF\t\t\tfRequestIDs.pop();\\r\\n \n      MUL \t\t\tfRequestIDs.pop();\\r\\n \n      NOT \t\t\tfRequestIDs.pop();\\r\\n \n      AND \t\t\tfRequestIDs.pop();\\r\\n \n      SWAP1 \t\t\tfRequestIDs.pop();\\r\\n \n      SSTORE \t\t\tfRequestIDs.pop();\\r\\n \n      SWAP1 \t\t\tfRequestIDs.pop();\\r\\n \n      SSTORE \t\t\tfRequestIDs.pop();\\r\\n \n      PUSH [tag] 220\t\t\tk;\\r\\n \n      JUMP \t\t\tk;\\r\\n \n    tag 225\t\t\tproofRequestIDs[i] == requestI...\n      JUMPDEST \t\t\tproofRequestIDs[i] == requestI...\n      DUP1 \t\t\t {\\r\n      DUP1 \t\t\t {\\r\n      PUSH 1\t\t\t {\\r\n      ADD \t\t\t {\\r\n      SWAP2 \t\t\t {\\r\n      POP \t\t\t {\\r\n      POP \t\t\t {\\r\n      PUSH [tag] 219\t\t\t(uint256 i = 0; i < proofReque...\n      JUMP \t\t\t(uint256 i = 0; i < proofReque...\n    tag 220\t\t\t(uint256 i = 0; i < proofReque...\n      JUMPDEST \t\t\t(uint256 i = 0; i < proofReque...\n      POP \t\t\t(uint256 i = 0; i < proofReque...\n      POP \t\t\ttion deleteProofRequestAndAddr...\n      POP \t\t\ttion deleteProofRequestAndAddr...\n      JUMP \t\t\ttion deleteProofRequestAndAddr...\n    tag 75\t\t\t stored as uri \\r\\n    mapping...\n      JUMPDEST \t\t\t stored as uri \\r\\n    mapping...\n      PUSH 60\t\t\tllet address (th\n      DUP2 \t\t\tD →\n      MLOAD \t\t\tD → (proof\n      DUP4 \t\t\tss).\\r\\n  \n      MLOAD \t\t\tss).\\r\\n    // to\n      EQ \t\t\tss).\\r\\n    // tokenID → (proo...\n      PUSH [tag] 237\t\t\tddress).\\r\\n    // tokenID → (...\n      JUMPI \t\t\tddress).\\r\\n    // tokenID → (...\n      DUP2 \t\t\twne\n      MLOAD \t\t\twner can b\n      DUP4 \t\t\ta token \n      MLOAD \t\t\ta token sender,\n      PUSH 40\t\t\tess)\\r\\n    // The address own...\n      MLOAD \t\t\tess)\\r\\n    // The address own...\n      PUSH 5B05999100000000000000000000000000000000000000000000000000000000\t\t\tess)\\r\\n    // The address own...\n      DUP2 \t\t\tess)\\r\\n    // The address own...\n      MSTORE \t\t\tess)\\r\\n    // The address own...\n      PUSH 4\t\t\tess)\\r\\n    // The address own...\n      ADD \t\t\tess)\\r\\n    // The address own...\n      PUSH [tag] 238\t\t\tess)\\r\\n    // The address own...\n      SWAP3 \t\t\tess)\\r\\n    // The address own...\n      SWAP2 \t\t\tess)\\r\\n    // The address own...\n      SWAP1 \t\t\tess)\\r\\n    // The address own...\n      PUSH [tag] 239\t\t\tess)\\r\\n    // The address own...\n      JUMP \t\t\tess)\\r\\n    // The address own...\n    tag 238\t\t\tess)\\r\\n    // The address own...\n      JUMPDEST \t\t\tess)\\r\\n    // The address own...\n      PUSH 40\t\t\tess)\\r\\n    // The address own...\n      MLOAD \t\t\tess)\\r\\n    // The address own...\n      DUP1 \t\t\tess)\\r\\n    // The address own...\n      SWAP2 \t\t\tess)\\r\\n    // The address own...\n      SUB \t\t\tess)\\r\\n    // The address own...\n      SWAP1 \t\t\tess)\\r\\n    // The address own...\n      REVERT \t\t\tess)\\r\\n    // The address own...\n    tag 237\t\t\tddress).\\r\\n    // tokenID → (...\n      JUMPDEST \t\t\tddress).\\r\\n    // tokenID → (...\n      PUSH 0\t\t\tny third-party prover.\\r\\n    ...\n      DUP4 \t\t\tmapping(\n      MLOAD \t\t\tmapping(uint64 \n      PUSH FFFFFFFFFFFFFFFF\t\t\tng(uint256 => mapping(uint64 =\n      DUP2 \t\t\tng(uint256 => mapping(uint64 =\n      GT \t\t\tng(uint256 => mapping(uint64 =\n      ISZERO \t\t\tng(uint256 => mapping(uint64 =\n      PUSH [tag] 240\t\t\tng(uint256 => mapping(uint64 =\n      JUMPI \t\t\tng(uint256 => mapping(uint64 =\n      PUSH [tag] 241\t\t\tng(uint256 => mapping(uint64 =\n      PUSH [tag] 242\t\t\tng(uint256 => mapping(uint64 =\n      JUMP \t\t\tng(uint256 => mapping(uint64 =\n    tag 241\t\t\tng(uint256 => mapping(uint64 =\n      JUMPDEST \t\t\tng(uint256 => mapping(uint64 =\n    tag 240\t\t\tng(uint256 => mapping(uint64 =\n      JUMPDEST \t\t\tng(uint256 => mapping(uint64 =\n      PUSH 40\t\t\tng(uint256 => mapping(uint64 =\n      MLOAD \t\t\tng(uint256 => mapping(uint64 =\n      SWAP1 \t\t\tng(uint256 => mapping(uint64 =\n      DUP1 \t\t\tng(uint256 => mapping(uint64 =\n      DUP3 \t\t\tng(uint256 => mapping(uint64 =\n      MSTORE \t\t\tng(uint256 => mapping(uint64 =\n      DUP1 \t\t\tng(uint256 => mapping(uint64 =\n      PUSH 20\t\t\tng(uint256 => mapping(uint64 =\n      MUL \t\t\tng(uint256 => mapping(uint64 =\n      PUSH 20\t\t\tng(uint256 => mapping(uint64 =\n      ADD \t\t\tng(uint256 => mapping(uint64 =\n      DUP3 \t\t\tng(uint256 => mapping(uint64 =\n      ADD \t\t\tng(uint256 => mapping(uint64 =\n      PUSH 40\t\t\tng(uint256 => mapping(uint64 =\n      MSTORE \t\t\tng(uint256 => mapping(uint64 =\n      DUP1 \t\t\tng(uint256 => mapping(uint64 =\n      ISZERO \t\t\tng(uint256 => mapping(uint64 =\n      PUSH [tag] 243\t\t\tng(uint256 => mapping(uint64 =\n      JUMPI \t\t\tng(uint256 => mapping(uint64 =\n      DUP2 \t\t\tng(uint256 => mapping(uint64 =\n      PUSH 20\t\t\tng(uint256 => mapping(uint64 =\n      ADD \t\t\tng(uint256 => mapping(uint64 =\n      PUSH 20\t\t\tng(uint256 => mapping(uint64 =\n      DUP3 \t\t\tng(uint256 => mapping(uint64 =\n      MUL \t\t\tng(uint256 => mapping(uint64 =\n      DUP1 \t\t\tng(uint256 => mapping(uint64 =\n      CALLDATASIZE \t\t\tng(uint256 => mapping(uint64 =\n      DUP4 \t\t\tng(uint256 => mapping(uint64 =\n      CALLDATACOPY \t\t\tng(uint256 => mapping(uint64 =\n      DUP1 \t\t\tng(uint256 => mapping(uint64 =\n      DUP3 \t\t\tng(uint256 => mapping(uint64 =\n      ADD \t\t\tng(uint256 => mapping(uint64 =\n      SWAP2 \t\t\tng(uint256 => mapping(uint64 =\n      POP \t\t\tng(uint256 => mapping(uint64 =\n      POP \t\t\tng(uint256 => mapping(uint64 =\n      SWAP1 \t\t\tng(uint256 => mapping(uint64 =\n      POP \t\t\tng(uint256 => mapping(uint64 =\n    tag 243\t\t\tng(uint256 => mapping(uint64 =\n      JUMPDEST \t\t\tng(uint256 => mapping(uint64 =\n      POP \t\t\tng(uint256 => mapping(uint64 =\n      SWAP1 \t\t\tny third-party prover.\\r\\n    ...\n      POP \t\t\tny third-party prover.\\r\\n    ...\n      PUSH 0\t\t\tic tokenI\n      PUSH 0\t\t\tr\n      SWAP1 \t\t\tic tokenID_pr\n      POP \t\t\tic tokenID_pr\n    tag 244\t\t\t public tokenID_proofRequest_a...\n      JUMPDEST \t\t\t public tokenID_proofRequest_a...\n      DUP5 \t\t\tuest_add\n      MLOAD \t\t\tuest_address;\\r\\n\n      DUP2 \t\t\tf\n      LT \t\t\tfRequest_address;\\r\\n\n      ISZERO \t\t\t public tokenID_proofRequest_a...\n      PUSH [tag] 245\t\t\t public tokenID_proofRequest_a...\n      JUMPI \t\t\t public tokenID_proofRequest_a...\n      PUSH [tag] 247\t\t\t_ids only for iteration.\\r\\n  ...\n      PUSH [tag] 248\t\t\tfor iteration.\\r\\n    uint64[]...\n      DUP3 \t\t\t \n      DUP8 \t\t\tfor iter\n      PUSH [tag] 249\t\t\tfor iteration.\\r\\n    uint64[\n      SWAP1 \t\t\tfor iteration.\\r\\n    uint64[\n      SWAP2 \t\t\tfor iteration.\\r\\n    uint64[]...\n      SWAP1 \t\t\tfor iteration.\\r\\n    uint64[]...\n      PUSH FFFFFFFF\t\t\tfor iteration.\\r\\n    uint64[]...\n      AND \t\t\tfor iteration.\\r\\n    uint64[]...\n      JUMP \t\t\tfor iteration.\\r\\n    uint64[]...\n    tag 248\t\t\tfor iteration.\\r\\n    uint64[]...\n      JUMPDEST \t\t\tfor iteration.\\r\\n    uint64[]...\n      PUSH [tag] 250\t\t\tlic proofRequestIDs;\\r\\n\\r\\n \n      DUP4 \t\t\t\\n\n      DUP8 \t\t\tlic\n      PUSH [tag] 251\t\t\tlic proofRequestIDs;\\r\\n\n      SWAP1 \t\t\tlic proofRequestIDs;\\r\\n\n      SWAP2 \t\t\tlic proofRequestIDs;\\r\\n\\r\\n \n      SWAP1 \t\t\tlic proofRequestIDs;\\r\\n\\r\\n \n      PUSH FFFFFFFF\t\t\tlic proofRequestIDs;\\r\\n\\r\\n \n      AND \t\t\tlic proofRequestIDs;\\r\\n\\r\\n \n      JUMP \t\t\tlic proofRequestIDs;\\r\\n\\r\\n \n    tag 250\t\t\tlic proofRequestIDs;\\r\\n\\r\\n \n      JUMPDEST \t\t\tlic proofRequestIDs;\\r\\n\\r\\n \n      PUSH [tag] 37\t\t\t_ids only\n      JUMP \t\t\t_ids only for iteration.\\r\\n  ...\n    tag 247\t\t\t_ids only for iteration.\\r\\n  ...\n      JUMPDEST \t\t\t_ids only for iteration.\\r\\n  ...\n      DUP3 \t\t\tstore proof_r\n      DUP3 \t\t\tq\n      DUP2 \t\t\tstore proof_requ\n      MLOAD \t\t\tstore proof_requ\n      DUP2 \t\t\tstore proof_requ\n      LT \t\t\tstore proof_requ\n      PUSH [tag] 252\t\t\tstore proof_requ\n      JUMPI \t\t\tstore proof_requ\n      PUSH [tag] 253\t\t\tstore proof_requ\n      PUSH [tag] 163\t\t\tstore proof_requ\n      JUMP \t\t\tstore proof_requ\n    tag 253\t\t\tstore proof_requ\n      JUMPDEST \t\t\tstore proof_requ\n    tag 252\t\t\tstore proof_requ\n      JUMPDEST \t\t\tstore proof_requ\n      PUSH 20\t\t\tstore proof_requ\n      MUL \t\t\tstore proof_requ\n      PUSH 20\t\t\tstore proof_requ\n      ADD \t\t\tstore proof_requ\n      ADD \t\t\tstore proof_requ\n      DUP2 \t\t\tstore proof_request_ids only f...\n      DUP2 \t\t\tstore proof_request_ids only f...\n      MSTORE \t\t\tstore proof_request_ids only f...\n      POP \t\t\tstore proof_request_ids only f...\n      POP \t\t\tstore proof_request_ids only f...\n      DUP1 \t\t\t   \n      PUSH 1\t\t\t   \n      ADD \t\t\t   \n      SWAP1 \t\t\t   \n      POP \t\t\t   \n      PUSH [tag] 244\t\t\t public tokenID_proofRequest_a...\n      JUMP \t\t\t public tokenID_proofRequest_a...\n    tag 245\t\t\t public tokenID_proofRequest_a...\n      JUMPDEST \t\t\t public tokenID_proofRequest_a...\n      POP \t\t\t public tokenID_proofRequest_a...\n      DUP1 \t\t\t and the corr\n      SWAP2 \t\t\trequest and the corr\n      POP \t\t\trequest and the corr\n      POP \t\t\trequest and the corr\n      SWAP3 \t\t\t stored as uri \\r\\n    mapping...\n      SWAP2 \t\t\t stored as uri \\r\\n    mapping...\n      POP \t\t\t stored as uri \\r\\n    mapping...\n      POP \t\t\t stored as uri \\r\\n    mapping...\n      JUMP \t\t\t stored as uri \\r\\n    mapping...\n    tag 81\t\t\ton mintExistingToken(address t...\n      JUMPDEST \t\t\ton mintExistingToken(address t...\n      PUSH [tag] 255\t\t\tnly the owner\n      PUSH [tag] 156\t\t\tnly the own\n      JUMP \t\t\tnly the owner\n    tag 255\t\t\tnly the owner\n      JUMPDEST \t\t\tnly the owner\n      PUSH [tag] 257\t\t\tkenIDs.contains(ID)) {\\r\\n \n      DUP5 \t\t\t\\r\\n\n      PUSH 5\t\t\tkenIDs.conta\n      PUSH [tag] 212\t\t\tkenIDs.contains(ID)) \n      SWAP1 \t\t\tkenIDs.contains(ID)) \n      SWAP2 \t\t\tkenIDs.contains(ID)) {\\r\\n \n      SWAP1 \t\t\tkenIDs.contains(ID)) {\\r\\n \n      PUSH FFFFFFFF\t\t\tkenIDs.contains(ID)) {\\r\\n \n      AND \t\t\tkenIDs.contains(ID)) {\\r\\n \n      JUMP \t\t\tkenIDs.contains(ID)) {\\r\\n \n    tag 257\t\t\tkenIDs.contains(ID)) {\\r\\n \n      JUMPDEST \t\t\tkenIDs.contains(ID)) {\\r\\n \n      PUSH [tag] 258\t\t\tallTokenIDs.contains(ID)) {\\r\\...\n      JUMPI \t\t\tallTokenIDs.contains(ID)) {\\r\\...\n      DUP4 \t\t\t  \n      PUSH 40\t\t\tDNotFound(ID);\\r\\n   \n      MLOAD \t\t\tDNotFound(ID);\\r\\n   \n      PUSH D60B1C2400000000000000000000000000000000000000000000000000000000\t\t\tDNotFound(ID);\\r\\n   \n      DUP2 \t\t\tDNotFound(ID);\\r\\n   \n      MSTORE \t\t\tDNotFound(ID);\\r\\n   \n      PUSH 4\t\t\tDNotFound(ID);\\r\\n   \n      ADD \t\t\tDNotFound(ID);\\r\\n   \n      PUSH [tag] 259\t\t\tDNotFound(ID);\\r\\n   \n      SWAP2 \t\t\tDNotFound(ID);\\r\\n   \n      SWAP1 \t\t\tDNotFound(ID);\\r\\n   \n      PUSH [tag] 39\t\t\tDNotFound(ID);\\r\\n   \n      JUMP \t\t\tDNotFound(ID);\\r\\n   \n    tag 259\t\t\tDNotFound(ID);\\r\\n   \n      JUMPDEST \t\t\tDNotFound(ID);\\r\\n   \n      PUSH 40\t\t\tDNotFound(ID);\\r\\n   \n      MLOAD \t\t\tDNotFound(ID);\\r\\n   \n      DUP1 \t\t\tDNotFound(ID);\\r\\n   \n      SWAP2 \t\t\tDNotFound(ID);\\r\\n   \n      SUB \t\t\tDNotFound(ID);\\r\\n   \n      SWAP1 \t\t\tDNotFound(ID);\\r\\n   \n      REVERT \t\t\tDNotFound(ID);\\r\\n   \n    tag 258\t\t\tallTokenIDs.contains(ID)) {\\r\\...\n      JUMPDEST \t\t\tallTokenIDs.contains(ID)) {\\r\\...\n      PUSH [tag] 260\t\t\tto, ID, amount, data);\\r\\n   \n      DUP6 \t\t\t, \n      DUP6 \t\t\tou\n      DUP6 \t\t\t, data\n      DUP6 \t\t\t\\r\\n  \n      DUP6 \t\t\t\\r\\n  \n      DUP1 \t\t\tto, ID, amount, data);\\r\\n   \n      DUP1 \t\t\tto, ID, amount, data);\\r\\n   \n      PUSH 1F\t\t\tto, ID, amount, data);\\r\\n   \n      ADD \t\t\tto, ID, amount, data);\\r\\n   \n      PUSH 20\t\t\tto, ID, amount, data);\\r\\n   \n      DUP1 \t\t\tto, ID, amount, data);\\r\\n   \n      SWAP2 \t\t\tto, ID, amount, data);\\r\\n   \n      DIV \t\t\tto, ID, amount, data);\\r\\n   \n      MUL \t\t\tto, ID, amount, data);\\r\\n   \n      PUSH 20\t\t\tto, ID, amount, data);\\r\\n   \n      ADD \t\t\tto, ID, amount, data);\\r\\n   \n      PUSH 40\t\t\tto, ID, amount, data);\\r\\n   \n      MLOAD \t\t\tto, ID, amount, data);\\r\\n   \n      SWAP1 \t\t\tto, ID, amount, data);\\r\\n   \n      DUP2 \t\t\tto, ID, amount, data);\\r\\n   \n      ADD \t\t\tto, ID, amount, data);\\r\\n   \n      PUSH 40\t\t\tto, ID, amount, data);\\r\\n   \n      MSTORE \t\t\tto, ID, amount, data);\\r\\n   \n      DUP1 \t\t\tto, ID, amount, data);\\r\\n   \n      SWAP4 \t\t\tto, ID, amount, data);\\r\\n   \n      SWAP3 \t\t\tto, ID, amount, data);\\r\\n   \n      SWAP2 \t\t\tto, ID, amount, data);\\r\\n   \n      SWAP1 \t\t\tto, ID, amount, data);\\r\\n   \n      DUP2 \t\t\tto, ID, amount, data);\\r\\n   \n      DUP2 \t\t\tto, ID, amount, data);\\r\\n   \n      MSTORE \t\t\tto, ID, amount, data);\\r\\n   \n      PUSH 20\t\t\tto, ID, amount, data);\\r\\n   \n      ADD \t\t\tto, ID, amount, data);\\r\\n   \n      DUP4 \t\t\tto, ID, amount, data);\\r\\n   \n      DUP4 \t\t\tto, ID, amount, data);\\r\\n   \n      DUP1 \t\t\tto, ID, amount, data);\\r\\n   \n      DUP3 \t\t\tto, ID, amount, data);\\r\\n   \n      DUP5 \t\t\tto, ID, amount, data);\\r\\n   \n      CALLDATACOPY \t\t\tto, ID, amount, data);\\r\\n   \n      PUSH 0\t\t\tto, ID, amount, data);\\r\\n   \n      DUP2 \t\t\tto, ID, amount, data);\\r\\n   \n      DUP5 \t\t\tto, ID, amount, data);\\r\\n   \n      ADD \t\t\tto, ID, amount, data);\\r\\n   \n      MSTORE \t\t\tto, ID, amount, data);\\r\\n   \n      PUSH 1F\t\t\tto, ID, amount, data);\\r\\n   \n      NOT \t\t\tto, ID, amount, data);\\r\\n   \n      PUSH 1F\t\t\tto, ID, amount, data);\\r\\n   \n      DUP3 \t\t\tto, ID, amount, data);\\r\\n   \n      ADD \t\t\tto, ID, amount, data);\\r\\n   \n      AND \t\t\tto, ID, amount, data);\\r\\n   \n      SWAP1 \t\t\tto, ID, amount, data);\\r\\n   \n      POP \t\t\tto, ID, amount, data);\\r\\n   \n      DUP1 \t\t\tto, ID, amount, data);\\r\\n   \n      DUP4 \t\t\tto, ID, amount, data);\\r\\n   \n      ADD \t\t\tto, ID, amount, data);\\r\\n   \n      SWAP3 \t\t\tto, ID, amount, data);\\r\\n   \n      POP \t\t\tto, ID, amount, data);\\r\\n   \n      POP \t\t\tto, ID, amount, data);\\r\\n   \n      POP \t\t\tto, ID, amount, data);\\r\\n   \n      POP \t\t\tto, ID, amount, data);\\r\\n   \n      POP \t\t\tto, ID, amount, data);\\r\\n   \n      POP \t\t\tto, ID, amount, data);\\r\\n   \n      POP \t\t\tto, ID, amount, data);\\r\\n   \n      PUSH [tag] 261\t\t\tto, I\n      JUMP \t\t\tto, ID, amount, data);\\r\\n   \n    tag 260\t\t\tto, ID, amount, data);\\r\\n   \n      JUMPDEST \t\t\tto, ID, amount, data);\\r\\n   \n      POP \t\t\ton mintExistingToken(address t...\n      POP \t\t\ton mintExistingToken(address t...\n      POP \t\t\ton mintExistingToken(address t...\n      POP \t\t\ton mintExistingToken(address t...\n      POP \t\t\ton mintExistingToken(address t...\n      JUMP \t\t\ton mintExistingToken(address t...\n    tag 84\t\t\tfunction addAdmin(address _adm...\n      JUMPDEST \t\t\tfunction addAdmin(address _adm...\n      PUSH [tag] 263\t\t\tnly the owner\n      PUSH [tag] 156\t\t\tnly the own\n      JUMP \t\t\tnly the owner\n    tag 263\t\t\tnly the owner\n      JUMPDEST \t\t\tnly the owner\n      PUSH 0\t\t\t0\n      PUSH FFFFFFFFFFFFFFFFFFFFFFFFFFFFFFFFFFFFFFFF\t\t\t_admin != address(0)\n      AND \t\t\t_admin != address(0)\n      DUP2 \t\t\t_admin\n      PUSH FFFFFFFFFFFFFFFFFFFFFFFFFFFFFFFFFFFFFFFF\t\t\t_admin != address(0)\n      AND \t\t\t_admin != address(0)\n      SUB \t\t\t_admin != address(0)\n      PUSH [tag] 265\t\t\trequire(_admin != address(0), ...\n      JUMPI \t\t\trequire(_admin != address(0), ...\n      PUSH 40\t\t\trequire(_admin != address(0), ...\n      MLOAD \t\t\trequire(_admin != address(0), ...\n      PUSH 8C379A000000000000000000000000000000000000000000000000000000000\t\t\trequire(_admin != address(0), ...\n      DUP2 \t\t\trequire(_admin != address(0), ...\n      MSTORE \t\t\trequire(_admin != address(0), ...\n      PUSH 4\t\t\trequire(_admin != address(0), ...\n      ADD \t\t\trequire(_admin != address(0), ...\n      PUSH [tag] 266\t\t\trequire(_admin != address(0), ...\n      SWAP1 \t\t\trequire(_admin != address(0), ...\n      PUSH [tag] 267\t\t\trequire(_admin != address(0), ...\n      JUMP \t\t\trequire(_admin != address(0), ...\n    tag 266\t\t\trequire(_admin != address(0), ...\n      JUMPDEST \t\t\trequire(_admin != address(0), ...\n      PUSH 40\t\t\trequire(_admin != address(0), ...\n      MLOAD \t\t\trequire(_admin != address(0), ...\n      DUP1 \t\t\trequire(_admin != address(0), ...\n      SWAP2 \t\t\trequire(_admin != address(0), ...\n      SUB \t\t\trequire(_admin != address(0), ...\n      SWAP1 \t\t\trequire(_admin != address(0), ...\n      REVERT \t\t\trequire(_admin != address(0), ...\n    tag 265\t\t\trequire(_admin != address(0), ...\n      JUMPDEST \t\t\trequire(_admin != address(0), ...\n      PUSH [tag] 268\t\t\t_isAdmin(_admin)\n      DUP2 \t\t\t_admin\n      PUSH [tag] 206\t\t\t_isAdmin\n      JUMP \t\t\t_isAdmin(_admin)\n    tag 268\t\t\t_isAdmin(_admin)\n      JUMPDEST \t\t\t_isAdmin(_admin)\n      ISZERO \t\t\t!_isAdmin(_admin)\n      PUSH [tag] 269\t\t\trequire(!_isAdmin(_admin), \"Ad...\n      JUMPI \t\t\trequire(!_isAdmin(_admin), \"Ad...\n      PUSH 40\t\t\trequire(!_isAdmin(_admin), \"Ad...\n      MLOAD \t\t\trequire(!_isAdmin(_admin), \"Ad...\n      PUSH 8C379A000000000000000000000000000000000000000000000000000000000\t\t\trequire(!_isAdmin(_admin), \"Ad...\n      DUP2 \t\t\trequire(!_isAdmin(_admin), \"Ad...\n      MSTORE \t\t\trequire(!_isAdmin(_admin), \"Ad...\n      PUSH 4\t\t\trequire(!_isAdmin(_admin), \"Ad...\n      ADD \t\t\trequire(!_isAdmin(_admin), \"Ad...\n      PUSH [tag] 270\t\t\trequire(!_isAdmin(_admin), \"Ad...\n      SWAP1 \t\t\trequire(!_isAdmin(_admin), \"Ad...\n      PUSH [tag] 271\t\t\trequire(!_isAdmin(_admin), \"Ad...\n      JUMP \t\t\trequire(!_isAdmin(_admin), \"Ad...\n    tag 270\t\t\trequire(!_isAdmin(_admin), \"Ad...\n      JUMPDEST \t\t\trequire(!_isAdmin(_admin), \"Ad...\n      PUSH 40\t\t\trequire(!_isAdmin(_admin), \"Ad...\n      MLOAD \t\t\trequire(!_isAdmin(_admin), \"Ad...\n      DUP1 \t\t\trequire(!_isAdmin(_admin), \"Ad...\n      SWAP2 \t\t\trequire(!_isAdmin(_admin), \"Ad...\n      SUB \t\t\trequire(!_isAdmin(_admin), \"Ad...\n      SWAP1 \t\t\trequire(!_isAdmin(_admin), \"Ad...\n      REVERT \t\t\trequire(!_isAdmin(_admin), \"Ad...\n    tag 269\t\t\trequire(!_isAdmin(_admin), \"Ad...\n      JUMPDEST \t\t\trequire(!_isAdmin(_admin), \"Ad...\n      PUSH 4\t\t\tadmins\n      DUP2 \t\t\t_admin\n      SWAP1 \t\t\tadmins.push(_admin)\n      DUP1 \t\t\tadmins.push(_admin)\n      PUSH 1\t\t\tadmins.push(_admin)\n      DUP2 \t\t\tadmins.push(_admin)\n      SLOAD \t\t\tadmins.push(_admin)\n      ADD \t\t\tadmins.push(_admin)\n      DUP1 \t\t\tadmins.push(_admin)\n      DUP3 \t\t\tadmins.push(_admin)\n      SSTORE \t\t\tadmins.push(_admin)\n      DUP1 \t\t\tadmins.push(_admin)\n      SWAP2 \t\t\tadmins.push(_admin)\n      POP \t\t\tadmins.push(_admin)\n      POP \t\t\tadmins.push(_admin)\n      PUSH 1\t\t\tadmins.push(_admin)\n      SWAP1 \t\t\tadmins.push(_admin)\n      SUB \t\t\tadmins.push(_admin)\n      SWAP1 \t\t\tadmins.push(_admin)\n      PUSH 0\t\t\tadmins.push(_admin)\n      MSTORE \t\t\tadmins.push(_admin)\n      PUSH 20\t\t\tadmins.push(_admin)\n      PUSH 0\t\t\tadmins.push(_admin)\n      KECCAK256 \t\t\tadmins.push(_admin)\n      ADD \t\t\tadmins.push(_admin)\n      PUSH 0\t\t\tadmins.push(_admin)\n      SWAP1 \t\t\tadmins.push(_admin)\n      SWAP2 \t\t\tadmins.push(_admin)\n      SWAP1 \t\t\tadmins.push(_admin)\n      SWAP2 \t\t\tadmins.push(_admin)\n      SWAP1 \t\t\tadmins.push(_admin)\n      SWAP2 \t\t\tadmins.push(_admin)\n      PUSH 100\t\t\tadmins.push(_admin)\n      EXP \t\t\tadmins.push(_admin)\n      DUP2 \t\t\tadmins.push(_admin)\n      SLOAD \t\t\tadmins.push(_admin)\n      DUP2 \t\t\tadmins.push(_admin)\n      PUSH FFFFFFFFFFFFFFFFFFFFFFFFFFFFFFFFFFFFFFFF\t\t\tadmins.push(_admin)\n      MUL \t\t\tadmins.push(_admin)\n      NOT \t\t\tadmins.push(_admin)\n      AND \t\t\tadmins.push(_admin)\n      SWAP1 \t\t\tadmins.push(_admin)\n      DUP4 \t\t\tadmins.push(_admin)\n      PUSH FFFFFFFFFFFFFFFFFFFFFFFFFFFFFFFFFFFFFFFF\t\t\tadmins.push(_admin)\n      AND \t\t\tadmins.push(_admin)\n      MUL \t\t\tadmins.push(_admin)\n      OR \t\t\tadmins.push(_admin)\n      SWAP1 \t\t\tadmins.push(_admin)\n      SSTORE \t\t\tadmins.push(_admin)\n      POP \t\t\tadmins.push(_admin)\n      POP \t\t\tfunction addAdmin(address _adm...\n      JUMP \t\t\tfunction addAdmin(address _adm...\n    tag 86\t\t\tll list of token IDs ever mint...\n      JUMPDEST \t\t\tll list of token IDs ever mint...\n      PUSH [tag] 274\t\t\tnly the owner\n      PUSH [tag] 156\t\t\tnly the own\n      JUMP \t\t\tnly the owner\n    tag 274\t\t\tnly the owner\n      JUMPDEST \t\t\tnly the owner\n      PUSH [tag] 276\t\t\ternal view returns (uint256[] \n      PUSH 0\t\t\t[\n      PUSH [tag] 277\t\t\ternal view returns\n      JUMP \t\t\ternal view returns (uint256[] \n    tag 276\t\t\ternal view returns (uint256[] \n      JUMPDEST \t\t\ternal view returns (uint256[] \n      JUMP \t\t\tll list of token IDs ever mint...\n    tag 88\t\t\tfunction allTokenIDs() externa...\n      JUMPDEST \t\t\tfunction allTokenIDs() externa...\n      PUSH 60\t\t\tuint256[] memory\n      PUSH [tag] 279\t\t\t_allTokenIDs.values()\n      PUSH 5\t\t\t_allTokenIDs\n      PUSH [tag] 280\t\t\t_allTokenIDs.values\n      JUMP \t\t\t_allTokenIDs.values()\n    tag 279\t\t\t_allTokenIDs.values()\n      JUMPDEST \t\t\t_allTokenIDs.values()\n      SWAP1 \t\t\treturn _allTokenIDs.values()\n      POP \t\t\treturn _allTokenIDs.values()\n      SWAP1 \t\t\tfunction allTokenIDs() externa...\n      JUMP \t\t\tfunction allTokenIDs() externa...\n    tag 91\t\t\t256 public constant fungible_t...\n      JUMPDEST \t\t\t256 public constant fungible_t...\n      PUSH 1\t\t\t \n      DUP2 \t\t\t256 public constant fungible_t...\n      JUMP \t\t\t256 public constant fungible_t...\n    tag 94\t\t\tadmins.length;\\r\\n        for ...\n      JUMPDEST \t\t\tadmins.length;\\r\\n        for ...\n      PUSH 0\t\t\ten; i++\n      PUSH 3\t\t\t (admi\n      PUSH 0\t\t\t (admi\n      SWAP1 \t\t\t (admi\n      SLOAD \t\t\t (admi\n      SWAP1 \t\t\t (admi\n      PUSH 100\t\t\t (admi\n      EXP \t\t\t (admi\n      SWAP1 \t\t\t (admi\n      DIV \t\t\t (admi\n      PUSH FFFFFFFFFFFFFFFFFFFFFFFFFFFFFFFFFFFFFFFF\t\t\t (admi\n      AND \t\t\t (admi\n      SWAP1 \t\t\t     if (admi\n      POP \t\t\t     if (admi\n      SWAP1 \t\t\tadmins.length;\\r\\n        for ...\n      JUMP \t\t\tadmins.length;\\r\\n        for ...\n    tag 100\t\t\ttion mintNewToken(address to, ...\n      JUMPDEST \t\t\ttion mintNewToken(address to, ...\n      PUSH [tag] 283\t\t\tnly the owner\n      PUSH [tag] 156\t\t\tnly the own\n      JUMP \t\t\tnly the owner\n    tag 283\t\t\tnly the owner\n      JUMPDEST \t\t\tnly the owner\n      PUSH [tag] 285\t\t\tTokenIDs.add(ID)) {\\r\n      DUP7 \t\t\t {\n      PUSH 5\t\t\tTokenIDs.add\n      PUSH [tag] 286\t\t\tTokenIDs.add(ID)\n      SWAP1 \t\t\tTokenIDs.add(ID)\n      SWAP2 \t\t\tTokenIDs.add(ID)) {\\r\n      SWAP1 \t\t\tTokenIDs.add(ID)) {\\r\n      PUSH FFFFFFFF\t\t\tTokenIDs.add(ID)) {\\r\n      AND \t\t\tTokenIDs.add(ID)) {\\r\n      JUMP \t\t\tTokenIDs.add(ID)) {\\r\n    tag 285\t\t\tTokenIDs.add(ID)) {\\r\n      JUMPDEST \t\t\tTokenIDs.add(ID)) {\\r\n      PUSH [tag] 287\t\t\t!_allTokenIDs.add(ID)) {\\r\\n  ...\n      JUMPI \t\t\t!_allTokenIDs.add(ID)) {\\r\\n  ...\n      DUP6 \t\t\t\\r\\n\n      PUSH 40\t\t\tnIDTaken(ID);\\r\\n \n      MLOAD \t\t\tnIDTaken(ID);\\r\\n \n      PUSH 453D47F500000000000000000000000000000000000000000000000000000000\t\t\tnIDTaken(ID);\\r\\n \n      DUP2 \t\t\tnIDTaken(ID);\\r\\n \n      MSTORE \t\t\tnIDTaken(ID);\\r\\n \n      PUSH 4\t\t\tnIDTaken(ID);\\r\\n \n      ADD \t\t\tnIDTaken(ID);\\r\\n \n      PUSH [tag] 288\t\t\tnIDTaken(ID);\\r\\n \n      SWAP2 \t\t\tnIDTaken(ID);\\r\\n \n      SWAP1 \t\t\tnIDTaken(ID);\\r\\n \n      PUSH [tag] 39\t\t\tnIDTaken(ID);\\r\\n \n      JUMP \t\t\tnIDTaken(ID);\\r\\n \n    tag 288\t\t\tnIDTaken(ID);\\r\\n \n      JUMPDEST \t\t\tnIDTaken(ID);\\r\\n \n      PUSH 40\t\t\tnIDTaken(ID);\\r\\n \n      MLOAD \t\t\tnIDTaken(ID);\\r\\n \n      DUP1 \t\t\tnIDTaken(ID);\\r\\n \n      SWAP2 \t\t\tnIDTaken(ID);\\r\\n \n      SUB \t\t\tnIDTaken(ID);\\r\\n \n      SWAP1 \t\t\tnIDTaken(ID);\\r\\n \n      REVERT \t\t\tnIDTaken(ID);\\r\\n \n    tag 287\t\t\t!_allTokenIDs.add(ID)) {\\r\\n  ...\n      JUMPDEST \t\t\t!_allTokenIDs.add(ID)) {\\r\\n  ...\n      PUSH [tag] 289\t\t\tt(to, ID, amount, data);\\r\\n \n      DUP8 \t\t\tID\n      DUP8 \t\t\tam\n      DUP8 \t\t\tnt, da\n      DUP8 \t\t\t);\\r\\n\n      DUP8 \t\t\t);\\r\\n\n      DUP1 \t\t\tt(to, ID, amount, data);\\r\\n \n      DUP1 \t\t\tt(to, ID, amount, data);\\r\\n \n      PUSH 1F\t\t\tt(to, ID, amount, data);\\r\\n \n      ADD \t\t\tt(to, ID, amount, data);\\r\\n \n      PUSH 20\t\t\tt(to, ID, amount, data);\\r\\n \n      DUP1 \t\t\tt(to, ID, amount, data);\\r\\n \n      SWAP2 \t\t\tt(to, ID, amount, data);\\r\\n \n      DIV \t\t\tt(to, ID, amount, data);\\r\\n \n      MUL \t\t\tt(to, ID, amount, data);\\r\\n \n      PUSH 20\t\t\tt(to, ID, amount, data);\\r\\n \n      ADD \t\t\tt(to, ID, amount, data);\\r\\n \n      PUSH 40\t\t\tt(to, ID, amount, data);\\r\\n \n      MLOAD \t\t\tt(to, ID, amount, data);\\r\\n \n      SWAP1 \t\t\tt(to, ID, amount, data);\\r\\n \n      DUP2 \t\t\tt(to, ID, amount, data);\\r\\n \n      ADD \t\t\tt(to, ID, amount, data);\\r\\n \n      PUSH 40\t\t\tt(to, ID, amount, data);\\r\\n \n      MSTORE \t\t\tt(to, ID, amount, data);\\r\\n \n      DUP1 \t\t\tt(to, ID, amount, data);\\r\\n \n      SWAP4 \t\t\tt(to, ID, amount, data);\\r\\n \n      SWAP3 \t\t\tt(to, ID, amount, data);\\r\\n \n      SWAP2 \t\t\tt(to, ID, amount, data);\\r\\n \n      SWAP1 \t\t\tt(to, ID, amount, data);\\r\\n \n      DUP2 \t\t\tt(to, ID, amount, data);\\r\\n \n      DUP2 \t\t\tt(to, ID, amount, data);\\r\\n \n      MSTORE \t\t\tt(to, ID, amount, data);\\r\\n \n      PUSH 20\t\t\tt(to, ID, amount, data);\\r\\n \n      ADD \t\t\tt(to, ID, amount, data);\\r\\n \n      DUP4 \t\t\tt(to, ID, amount, data);\\r\\n \n      DUP4 \t\t\tt(to, ID, amount, data);\\r\\n \n      DUP1 \t\t\tt(to, ID, amount, data);\\r\\n \n      DUP3 \t\t\tt(to, ID, amount, data);\\r\\n \n      DUP5 \t\t\tt(to, ID, amount, data);\\r\\n \n      CALLDATACOPY \t\t\tt(to, ID, amount, data);\\r\\n \n      PUSH 0\t\t\tt(to, ID, amount, data);\\r\\n \n      DUP2 \t\t\tt(to, ID, amount, data);\\r\\n \n      DUP5 \t\t\tt(to, ID, amount, data);\\r\\n \n      ADD \t\t\tt(to, ID, amount, data);\\r\\n \n      MSTORE \t\t\tt(to, ID, amount, data);\\r\\n \n      PUSH 1F\t\t\tt(to, ID, amount, data);\\r\\n \n      NOT \t\t\tt(to, ID, amount, data);\\r\\n \n      PUSH 1F\t\t\tt(to, ID, amount, data);\\r\\n \n      DUP3 \t\t\tt(to, ID, amount, data);\\r\\n \n      ADD \t\t\tt(to, ID, amount, data);\\r\\n \n      AND \t\t\tt(to, ID, amount, data);\\r\\n \n      SWAP1 \t\t\tt(to, ID, amount, data);\\r\\n \n      POP \t\t\tt(to, ID, amount, data);\\r\\n \n      DUP1 \t\t\tt(to, ID, amount, data);\\r\\n \n      DUP4 \t\t\tt(to, ID, amount, data);\\r\\n \n      ADD \t\t\tt(to, ID, amount, data);\\r\\n \n      SWAP3 \t\t\tt(to, ID, amount, data);\\r\\n \n      POP \t\t\tt(to, ID, amount, data);\\r\\n \n      POP \t\t\tt(to, ID, amount, data);\\r\\n \n      POP \t\t\tt(to, ID, amount, data);\\r\\n \n      POP \t\t\tt(to, ID, amount, data);\\r\\n \n      POP \t\t\tt(to, ID, amount, data);\\r\\n \n      POP \t\t\tt(to, ID, amount, data);\\r\\n \n      POP \t\t\tt(to, ID, amount, data);\\r\\n \n      PUSH [tag] 261\t\t\tt(to,\n      JUMP \t\t\tt(to, ID, amount, data);\\r\\n \n    tag 289\t\t\tt(to, ID, amount, data);\\r\\n \n      JUMPDEST \t\t\tt(to, ID, amount, data);\\r\\n \n      DUP2 \t\t\t;\\r\\n \n      DUP2 \t\t\t;\\r\\n \n      PUSH 7\t\t\tnName[ID]\n      PUSH 0\t\t\tnName[ID] = n\n      DUP10 \t\t\t= \n      DUP2 \t\t\tnName[ID] = n\n      MSTORE \t\t\tnName[ID] = n\n      PUSH 20\t\t\tnName[ID] = n\n      ADD \t\t\tnName[ID] = n\n      SWAP1 \t\t\tnName[ID] = n\n      DUP2 \t\t\tnName[ID] = n\n      MSTORE \t\t\tnName[ID] = n\n      PUSH 20\t\t\tnName[ID] = n\n      ADD \t\t\tnName[ID] = n\n      PUSH 0\t\t\tnName[ID] = n\n      KECCAK256 \t\t\tnName[ID] = n\n      SWAP2 \t\t\tnName[ID] = name;\\r\\n \n      DUP3 \t\t\tnName[ID] = name;\\r\\n \n      PUSH [tag] 290\t\t\tnName[ID] = name;\\r\\n \n      SWAP3 \t\t\tnName[ID] = name;\\r\\n \n      SWAP2 \t\t\tnName[ID] = name;\\r\\n \n      SWAP1 \t\t\tnName[ID] = name;\\r\\n \n      PUSH [tag] 291\t\t\tnName[ID] = name;\\r\\n \n      JUMP \t\t\tnName[ID] = name;\\r\\n \n    tag 290\t\t\tnName[ID] = name;\\r\\n \n      JUMPDEST \t\t\tnName[ID] = name;\\r\\n \n      POP \t\t\tnName[ID] = name;\\r\\n \n      POP \t\t\ttion mintNewToken(address to, ...\n      POP \t\t\ttion mintNewToken(address to, ...\n      POP \t\t\ttion mintNewToken(address to, ...\n      POP \t\t\ttion mintNewToken(address to, ...\n      POP \t\t\ttion mintNewToken(address to, ...\n      POP \t\t\ttion mintNewToken(address to, ...\n      POP \t\t\ttion mintNewToken(address to, ...\n      JUMP \t\t\ttion mintNewToken(address to, ...\n    tag 104\t\t\ttion addProofRequestAndAddress...\n      JUMPDEST \t\t\ttion addProofRequestAndAddress...\n      PUSH [tag] 293\t\t\t_isAdmin(msg.sender)\n      CALLER \t\t\tmsg.sender\n      PUSH [tag] 206\t\t\t_isAdmin\n      JUMP \t\t\t_isAdmin(msg.sender)\n    tag 293\t\t\t_isAdmin(msg.sender)\n      JUMPDEST \t\t\t_isAdmin(msg.sender)\n      PUSH [tag] 294\t\t\trequire(_isAdmin(msg.sender), ...\n      JUMPI \t\t\trequire(_isAdmin(msg.sender), ...\n      PUSH 40\t\t\trequire(_isAdmin(msg.sender), ...\n      MLOAD \t\t\trequire(_isAdmin(msg.sender), ...\n      PUSH 8C379A000000000000000000000000000000000000000000000000000000000\t\t\trequire(_isAdmin(msg.sender), ...\n      DUP2 \t\t\trequire(_isAdmin(msg.sender), ...\n      MSTORE \t\t\trequire(_isAdmin(msg.sender), ...\n      PUSH 4\t\t\trequire(_isAdmin(msg.sender), ...\n      ADD \t\t\trequire(_isAdmin(msg.sender), ...\n      PUSH [tag] 295\t\t\trequire(_isAdmin(msg.sender), ...\n      SWAP1 \t\t\trequire(_isAdmin(msg.sender), ...\n      PUSH [tag] 209\t\t\trequire(_isAdmin(msg.sender), ...\n      JUMP \t\t\trequire(_isAdmin(msg.sender), ...\n    tag 295\t\t\trequire(_isAdmin(msg.sender), ...\n      JUMPDEST \t\t\trequire(_isAdmin(msg.sender), ...\n      PUSH 40\t\t\trequire(_isAdmin(msg.sender), ...\n      MLOAD \t\t\trequire(_isAdmin(msg.sender), ...\n      DUP1 \t\t\trequire(_isAdmin(msg.sender), ...\n      SWAP2 \t\t\trequire(_isAdmin(msg.sender), ...\n      SUB \t\t\trequire(_isAdmin(msg.sender), ...\n      SWAP1 \t\t\trequire(_isAdmin(msg.sender), ...\n      REVERT \t\t\trequire(_isAdmin(msg.sender), ...\n    tag 294\t\t\trequire(_isAdmin(msg.sender), ...\n      JUMPDEST \t\t\trequire(_isAdmin(msg.sender), ...\n      PUSH [tag] 297\t\t\tTokenIDs.contains(tokenID), \"t\n      DUP4 \t\t\tnID), \"\n      PUSH 5\t\t\tTokenIDs.con\n      PUSH [tag] 212\t\t\tTokenIDs.contains(tok\n      SWAP1 \t\t\tTokenIDs.contains(tok\n      SWAP2 \t\t\tTokenIDs.contains(tokenID), \"t\n      SWAP1 \t\t\tTokenIDs.contains(tokenID), \"t\n      PUSH FFFFFFFF\t\t\tTokenIDs.contains(tokenID), \"t\n      AND \t\t\tTokenIDs.contains(tokenID), \"t\n      JUMP \t\t\tTokenIDs.contains(tokenID), \"t\n    tag 297\t\t\tTokenIDs.contains(tokenID), \"t\n      JUMPDEST \t\t\tTokenIDs.contains(tokenID), \"t\n      PUSH [tag] 298\t\t\tire(_allTokenIDs.contains(toke...\n      JUMPI \t\t\tire(_allTokenIDs.contains(toke...\n      PUSH 40\t\t\tire(_allTokenIDs.contains(toke...\n      MLOAD \t\t\tire(_allTokenIDs.contains(toke...\n      PUSH 8C379A000000000000000000000000000000000000000000000000000000000\t\t\tire(_allTokenIDs.contains(toke...\n      DUP2 \t\t\tire(_allTokenIDs.contains(toke...\n      MSTORE \t\t\tire(_allTokenIDs.contains(toke...\n      PUSH 4\t\t\tire(_allTokenIDs.contains(toke...\n      ADD \t\t\tire(_allTokenIDs.contains(toke...\n      PUSH [tag] 299\t\t\tire(_allTokenIDs.contains(toke...\n      SWAP1 \t\t\tire(_allTokenIDs.contains(toke...\n      PUSH [tag] 215\t\t\tire(_allTokenIDs.contains(toke...\n      JUMP \t\t\tire(_allTokenIDs.contains(toke...\n    tag 299\t\t\tire(_allTokenIDs.contains(toke...\n      JUMPDEST \t\t\tire(_allTokenIDs.contains(toke...\n      PUSH 40\t\t\tire(_allTokenIDs.contains(toke...\n      MLOAD \t\t\tire(_allTokenIDs.contains(toke...\n      DUP1 \t\t\tire(_allTokenIDs.contains(toke...\n      SWAP2 \t\t\tire(_allTokenIDs.contains(toke...\n      SUB \t\t\tire(_allTokenIDs.contains(toke...\n      SWAP1 \t\t\tire(_allTokenIDs.contains(toke...\n      REVERT \t\t\tire(_allTokenIDs.contains(toke...\n    tag 298\t\t\tire(_allTokenIDs.contains(toke...\n      JUMPDEST \t\t\tire(_allTokenIDs.contains(toke...\n      PUSH 0\t\t\t\"\n      PUSH FFFFFFFFFFFFFFFFFFFFFFFFFFFFFFFFFFFFFFFF\t\t\tnID_proofRequest_address[token...\n      AND \t\t\tnID_proofRequest_address[token...\n      PUSH 8\t\t\tnID_proofRequest_address[tok\n      PUSH 0\t\t\tnID_proofRequest_address[token...\n      DUP6 \t\t\tnID][re\n      DUP2 \t\t\tnID_proofRequest_address[token...\n      MSTORE \t\t\tnID_proofRequest_address[token...\n      PUSH 20\t\t\tnID_proofRequest_address[token...\n      ADD \t\t\tnID_proofRequest_address[token...\n      SWAP1 \t\t\tnID_proofRequest_address[token...\n      DUP2 \t\t\tnID_proofRequest_address[token...\n      MSTORE \t\t\tnID_proofRequest_address[token...\n      PUSH 20\t\t\tnID_proofRequest_address[token...\n      ADD \t\t\tnID_proofRequest_address[token...\n      PUSH 0\t\t\tnID_proofRequest_address[token...\n      KECCAK256 \t\t\tnID_proofRequest_address[token...\n      PUSH 0\t\t\tnID_proofRequest_address[token...\n      DUP5 \t\t\testID] ==\n      PUSH FFFFFFFFFFFFFFFF\t\t\tnID_proofRequest_address[token...\n      AND \t\t\tnID_proofRequest_address[token...\n      PUSH FFFFFFFFFFFFFFFF\t\t\tnID_proofRequest_address[token...\n      AND \t\t\tnID_proofRequest_address[token...\n      DUP2 \t\t\tnID_proofRequest_address[token...\n      MSTORE \t\t\tnID_proofRequest_address[token...\n      PUSH 20\t\t\tnID_proofRequest_address[token...\n      ADD \t\t\tnID_proofRequest_address[token...\n      SWAP1 \t\t\tnID_proofRequest_address[token...\n      DUP2 \t\t\tnID_proofRequest_address[token...\n      MSTORE \t\t\tnID_proofRequest_address[token...\n      PUSH 20\t\t\tnID_proofRequest_address[token...\n      ADD \t\t\tnID_proofRequest_address[token...\n      PUSH 0\t\t\tnID_proofRequest_address[token...\n      KECCAK256 \t\t\tnID_proofRequest_address[token...\n      PUSH 0\t\t\tnID_proofRequest_address[token...\n      SWAP1 \t\t\tnID_proofRequest_address[token...\n      SLOAD \t\t\tnID_proofRequest_address[token...\n      SWAP1 \t\t\tnID_proofRequest_address[token...\n      PUSH 100\t\t\tnID_proofRequest_address[token...\n      EXP \t\t\tnID_proofRequest_address[token...\n      SWAP1 \t\t\tnID_proofRequest_address[token...\n      DIV \t\t\tnID_proofRequest_address[token...\n      PUSH FFFFFFFFFFFFFFFFFFFFFFFFFFFFFFFFFFFFFFFF\t\t\tnID_proofRequest_address[token...\n      AND \t\t\tnID_proofRequest_address[token...\n      PUSH FFFFFFFFFFFFFFFFFFFFFFFFFFFFFFFFFFFFFFFF\t\t\tnID_proofRequest_address[token...\n      AND \t\t\tnID_proofRequest_address[token...\n      EQ \t\t\tnID_proofRequest_address[token...\n      PUSH [tag] 300\t\t\tire(tokenID_proofRequest_addre...\n      JUMPI \t\t\tire(tokenID_proofRequest_addre...\n      PUSH 40\t\t\tire(tokenID_proofRequest_addre...\n      MLOAD \t\t\tire(tokenID_proofRequest_addre...\n      PUSH 8C379A000000000000000000000000000000000000000000000000000000000\t\t\tire(tokenID_proofRequest_addre...\n      DUP2 \t\t\tire(tokenID_proofRequest_addre...\n      MSTORE \t\t\tire(tokenID_proofRequest_addre...\n      PUSH 4\t\t\tire(tokenID_proofRequest_addre...\n      ADD \t\t\tire(tokenID_proofRequest_addre...\n      PUSH [tag] 301\t\t\tire(tokenID_proofRequest_addre...\n      SWAP1 \t\t\tire(tokenID_proofRequest_addre...\n      PUSH [tag] 302\t\t\tire(tokenID_proofRequest_addre...\n      JUMP \t\t\tire(tokenID_proofRequest_addre...\n    tag 301\t\t\tire(tokenID_proofRequest_addre...\n      JUMPDEST \t\t\tire(tokenID_proofRequest_addre...\n      PUSH 40\t\t\tire(tokenID_proofRequest_addre...\n      MLOAD \t\t\tire(tokenID_proofRequest_addre...\n      DUP1 \t\t\tire(tokenID_proofRequest_addre...\n      SWAP2 \t\t\tire(tokenID_proofRequest_addre...\n      SUB \t\t\tire(tokenID_proofRequest_addre...\n      SWAP1 \t\t\tire(tokenID_proofRequest_addre...\n      REVERT \t\t\tire(tokenID_proofRequest_addre...\n    tag 300\t\t\tire(tokenID_proofRequest_addre...\n      JUMPDEST \t\t\tire(tokenID_proofRequest_addre...\n      DUP1 \t\t\ter;\\r\\n \n      PUSH 8\t\t\tnID_proofRequest_address[tok\n      PUSH 0\t\t\tnID_proofRequest_address[token...\n      DUP6 \t\t\tnID][re\n      DUP2 \t\t\tnID_proofRequest_address[token...\n      MSTORE \t\t\tnID_proofRequest_address[token...\n      PUSH 20\t\t\tnID_proofRequest_address[token...\n      ADD \t\t\tnID_proofRequest_address[token...\n      SWAP1 \t\t\tnID_proofRequest_address[token...\n      DUP2 \t\t\tnID_proofRequest_address[token...\n      MSTORE \t\t\tnID_proofRequest_address[token...\n      PUSH 20\t\t\tnID_proofRequest_address[token...\n      ADD \t\t\tnID_proofRequest_address[token...\n      PUSH 0\t\t\tnID_proofRequest_address[token...\n      KECCAK256 \t\t\tnID_proofRequest_address[token...\n      PUSH 0\t\t\tnID_proofRequest_address[token...\n      DUP5 \t\t\testID] = \n      PUSH FFFFFFFFFFFFFFFF\t\t\tnID_proofRequest_address[token...\n      AND \t\t\tnID_proofRequest_address[token...\n      PUSH FFFFFFFFFFFFFFFF\t\t\tnID_proofRequest_address[token...\n      AND \t\t\tnID_proofRequest_address[token...\n      DUP2 \t\t\tnID_proofRequest_address[token...\n      MSTORE \t\t\tnID_proofRequest_address[token...\n      PUSH 20\t\t\tnID_proofRequest_address[token...\n      ADD \t\t\tnID_proofRequest_address[token...\n      SWAP1 \t\t\tnID_proofRequest_address[token...\n      DUP2 \t\t\tnID_proofRequest_address[token...\n      MSTORE \t\t\tnID_proofRequest_address[token...\n      PUSH 20\t\t\tnID_proofRequest_address[token...\n      ADD \t\t\tnID_proofRequest_address[token...\n      PUSH 0\t\t\tnID_proofRequest_address[token...\n      KECCAK256 \t\t\tnID_proofRequest_address[token...\n      PUSH 0\t\t\tnID_proofRequest_address[token...\n      PUSH 100\t\t\tnID_proofRequest_address[token...\n      EXP \t\t\tnID_proofRequest_address[token...\n      DUP2 \t\t\tnID_proofRequest_address[token...\n      SLOAD \t\t\tnID_proofRequest_address[token...\n      DUP2 \t\t\tnID_proofRequest_address[token...\n      PUSH FFFFFFFFFFFFFFFFFFFFFFFFFFFFFFFFFFFFFFFF\t\t\tnID_proofRequest_address[token...\n      MUL \t\t\tnID_proofRequest_address[token...\n      NOT \t\t\tnID_proofRequest_address[token...\n      AND \t\t\tnID_proofRequest_address[token...\n      SWAP1 \t\t\tnID_proofRequest_address[token...\n      DUP4 \t\t\tnID_proofRequest_address[token...\n      PUSH FFFFFFFFFFFFFFFFFFFFFFFFFFFFFFFFFFFFFFFF\t\t\tnID_proofRequest_address[token...\n      AND \t\t\tnID_proofRequest_address[token...\n      MUL \t\t\tnID_proofRequest_address[token...\n      OR \t\t\tnID_proofRequest_address[token...\n      SWAP1 \t\t\tnID_proofRequest_address[token...\n      SSTORE \t\t\tnID_proofRequest_address[token...\n      POP \t\t\tnID_proofRequest_address[token...\n      PUSH 9\t\t\tfRequestIDs.pus\n      DUP3 \t\t\testID);\\r\\n\n      SWAP1 \t\t\tfRequestIDs.push(requestID);\\r...\n      DUP1 \t\t\tfRequestIDs.push(requestID);\\r...\n      PUSH 1\t\t\tfRequestIDs.push(requestID);\\r...\n      DUP2 \t\t\tfRequestIDs.push(requestID);\\r...\n      SLOAD \t\t\tfRequestIDs.push(requestID);\\r...\n      ADD \t\t\tfRequestIDs.push(requestID);\\r...\n      DUP1 \t\t\tfRequestIDs.push(requestID);\\r...\n      DUP3 \t\t\tfRequestIDs.push(requestID);\\r...\n      SSTORE \t\t\tfRequestIDs.push(requestID);\\r...\n      DUP1 \t\t\tfRequestIDs.push(requestID);\\r...\n      SWAP2 \t\t\tfRequestIDs.push(requestID);\\r...\n      POP \t\t\tfRequestIDs.push(requestID);\\r...\n      POP \t\t\tfRequestIDs.push(requestID);\\r...\n      PUSH 1\t\t\tfRequestIDs.push(requestID);\\r...\n      SWAP1 \t\t\tfRequestIDs.push(requestID);\\r...\n      SUB \t\t\tfRequestIDs.push(requestID);\\r...\n      SWAP1 \t\t\tfRequestIDs.push(requestID);\\r...\n      PUSH 0\t\t\tfRequestIDs.push(requestID);\\r...\n      MSTORE \t\t\tfRequestIDs.push(requestID);\\r...\n      PUSH 20\t\t\tfRequestIDs.push(requestID);\\r...\n      PUSH 0\t\t\tfRequestIDs.push(requestID);\\r...\n      KECCAK256 \t\t\tfRequestIDs.push(requestID);\\r...\n      SWAP1 \t\t\tfRequestIDs.push(requestID);\\r...\n      PUSH 4\t\t\tfRequestIDs.push(requestID);\\r...\n      SWAP2 \t\t\tfRequestIDs.push(requestID);\\r...\n      DUP3 \t\t\tfRequestIDs.push(requestID);\\r...\n      DUP3 \t\t\tfRequestIDs.push(requestID);\\r...\n      DIV \t\t\tfRequestIDs.push(requestID);\\r...\n      ADD \t\t\tfRequestIDs.push(requestID);\\r...\n      SWAP2 \t\t\tfRequestIDs.push(requestID);\\r...\n      SWAP1 \t\t\tfRequestIDs.push(requestID);\\r...\n      MOD \t\t\tfRequestIDs.push(requestID);\\r...\n      PUSH 8\t\t\tfRequestIDs.push(requestID);\\r...\n      MUL \t\t\tfRequestIDs.push(requestID);\\r...\n      SWAP1 \t\t\tfRequestIDs.push(requestID);\\r...\n      SWAP2 \t\t\tfRequestIDs.push(requestID);\\r...\n      SWAP1 \t\t\tfRequestIDs.push(requestID);\\r...\n      SWAP2 \t\t\tfRequestIDs.push(requestID);\\r...\n      SWAP1 \t\t\tfRequestIDs.push(requestID);\\r...\n      SWAP2 \t\t\tfRequestIDs.push(requestID);\\r...\n      PUSH 100\t\t\tfRequestIDs.push(requestID);\\r...\n      EXP \t\t\tfRequestIDs.push(requestID);\\r...\n      DUP2 \t\t\tfRequestIDs.push(requestID);\\r...\n      SLOAD \t\t\tfRequestIDs.push(requestID);\\r...\n      DUP2 \t\t\tfRequestIDs.push(requestID);\\r...\n      PUSH FFFFFFFFFFFFFFFF\t\t\tfRequestIDs.push(requestID);\\r...\n      MUL \t\t\tfRequestIDs.push(requestID);\\r...\n      NOT \t\t\tfRequestIDs.push(requestID);\\r...\n      AND \t\t\tfRequestIDs.push(requestID);\\r...\n      SWAP1 \t\t\tfRequestIDs.push(requestID);\\r...\n      DUP4 \t\t\tfRequestIDs.push(requestID);\\r...\n      PUSH FFFFFFFFFFFFFFFF\t\t\tfRequestIDs.push(requestID);\\r...\n      AND \t\t\tfRequestIDs.push(requestID);\\r...\n      MUL \t\t\tfRequestIDs.push(requestID);\\r...\n      OR \t\t\tfRequestIDs.push(requestID);\\r...\n      SWAP1 \t\t\tfRequestIDs.push(requestID);\\r...\n      SSTORE \t\t\tfRequestIDs.push(requestID);\\r...\n      POP \t\t\tfRequestIDs.push(requestID);\\r...\n      POP \t\t\ttion addProofRequestAndAddress...\n      POP \t\t\ttion addProofRequestAndAddress...\n      POP \t\t\ttion addProofRequestAndAddress...\n      JUMP \t\t\ttion addProofRequestAndAddress...\n    tag 108\t\t\tcordingly.\\r\\n    function add...\n      JUMPDEST \t\t\tcordingly.\\r\\n    function add...\n      PUSH [tag] 305\t\t\t address prover) public onlyAd...\n      PUSH [tag] 306\t\t\tblic onlyAdm\n      PUSH [tag] 307\t\t\tblic onlyA\n      JUMP \t\t\tblic onlyAdm\n    tag 306\t\t\tblic onlyAdm\n      JUMPDEST \t\t\tblic onlyAdm\n      DUP4 \t\t\t {\\r\\n    \n      DUP4 \t\t\t  requir\n      PUSH [tag] 308\t\t\t address prover) p\n      JUMP \t\t\t address prover) public onlyAd...\n    tag 305\t\t\t address prover) public onlyAd...\n      JUMPDEST \t\t\t address prover) public onlyAd...\n      POP \t\t\tcordingly.\\r\\n    function add...\n      POP \t\t\tcordingly.\\r\\n    function add...\n      JUMP \t\t\tcordingly.\\r\\n    function add...\n    tag 111\t\t\ting(uint256 => mapping(uint64 ...\n      JUMPDEST \t\t\ting(uint256 => mapping(uint64 ...\n      PUSH 8\t\t\ting(uint256 => mapping(uint64 ...\n      PUSH 20\t\t\ting(uint256 => mapping(uint64 ...\n      MSTORE \t\t\ting(uint256 => mapping(uint64 ...\n      DUP2 \t\t\ting(uint256 => mapping(uint64 ...\n      PUSH 0\t\t\ting(uint256 => mapping(uint64 ...\n      MSTORE \t\t\ting(uint256 => mapping(uint64 ...\n      PUSH 40\t\t\ting(uint256 => mapping(uint64 ...\n      PUSH 0\t\t\ting(uint256 => mapping(uint64 ...\n      KECCAK256 \t\t\ting(uint256 => mapping(uint64 ...\n      PUSH 20\t\t\ting(uint256 => mapping(uint64 ...\n      MSTORE \t\t\ting(uint256 => mapping(uint64 ...\n      DUP1 \t\t\ting(uint256 => mapping(uint64 ...\n      PUSH 0\t\t\ting(uint256 => mapping(uint64 ...\n      MSTORE \t\t\ting(uint256 => mapping(uint64 ...\n      PUSH 40\t\t\ting(uint256 => mapping(uint64 ...\n      PUSH 0\t\t\ting(uint256 => mapping(uint64 ...\n      KECCAK256 \t\t\ting(uint256 => mapping(uint64 ...\n      PUSH 0\t\t\ting(uint256 => mapping(uint64 ...\n      SWAP2 \t\t\ting(uint256 => mapping(uint64 ...\n      POP \t\t\ting(uint256 => mapping(uint64 ...\n      SWAP2 \t\t\ting(uint256 => mapping(uint64 ...\n      POP \t\t\ting(uint256 => mapping(uint64 ...\n      SWAP1 \t\t\ting(uint256 => mapping(uint64 ...\n      SLOAD \t\t\ting(uint256 => mapping(uint64 ...\n      SWAP1 \t\t\ting(uint256 => mapping(uint64 ...\n      PUSH 100\t\t\ting(uint256 => mapping(uint64 ...\n      EXP \t\t\ting(uint256 => mapping(uint64 ...\n      SWAP1 \t\t\ting(uint256 => mapping(uint64 ...\n      DIV \t\t\ting(uint256 => mapping(uint64 ...\n      PUSH FFFFFFFFFFFFFFFFFFFFFFFFFFFFFFFFFFFFFFFF\t\t\ting(uint256 => mapping(uint64 ...\n      AND \t\t\ting(uint256 => mapping(uint64 ...\n      DUP2 \t\t\ting(uint256 => mapping(uint64 ...\n      JUMP \t\t\ting(uint256 => mapping(uint64 ...\n    tag 114\t\t\t256 public constant non_fungib...\n      JUMPDEST \t\t\t256 public constant non_fungib...\n      PUSH 2\t\t\t\\r\n      DUP2 \t\t\t256 public constant non_fungib...\n      JUMP \t\t\t256 public constant non_fungib...\n    tag 118\t\t\t64[] public proofRequestIDs;\\r...\n      JUMPDEST \t\t\t64[] public proofRequestIDs;\\r...\n      PUSH 9\t\t\t64[] public proofRequestIDs;\\r...\n      DUP2 \t\t\t64[] public proofRequestIDs;\\r...\n      DUP2 \t\t\t64[] public proofRequestIDs;\\r...\n      SLOAD \t\t\t64[] public proofRequestIDs;\\r...\n      DUP2 \t\t\t64[] public proofRequestIDs;\\r...\n      LT \t\t\t64[] public proofRequestIDs;\\r...\n      PUSH [tag] 309\t\t\t64[] public proofRequestIDs;\\r...\n      JUMPI \t\t\t64[] public proofRequestIDs;\\r...\n      PUSH 0\t\t\t64[] public proofRequestIDs;\\r...\n      DUP1 \t\t\t64[] public proofRequestIDs;\\r...\n      REVERT \t\t\t64[] public proofRequestIDs;\\r...\n    tag 309\t\t\t64[] public proofRequestIDs;\\r...\n      JUMPDEST \t\t\t64[] public proofRequestIDs;\\r...\n      SWAP1 \t\t\t64[] public proofRequestIDs;\\r...\n      PUSH 0\t\t\t64[] public proofRequestIDs;\\r...\n      MSTORE \t\t\t64[] public proofRequestIDs;\\r...\n      PUSH 20\t\t\t64[] public proofRequestIDs;\\r...\n      PUSH 0\t\t\t64[] public proofRequestIDs;\\r...\n      KECCAK256 \t\t\t64[] public proofRequestIDs;\\r...\n      SWAP1 \t\t\t64[] public proofRequestIDs;\\r...\n      PUSH 4\t\t\t64[] public proofRequestIDs;\\r...\n      SWAP2 \t\t\t64[] public proofRequestIDs;\\r...\n      DUP3 \t\t\t64[] public proofRequestIDs;\\r...\n      DUP3 \t\t\t64[] public proofRequestIDs;\\r...\n      DIV \t\t\t64[] public proofRequestIDs;\\r...\n      ADD \t\t\t64[] public proofRequestIDs;\\r...\n      SWAP2 \t\t\t64[] public proofRequestIDs;\\r...\n      SWAP1 \t\t\t64[] public proofRequestIDs;\\r...\n      MOD \t\t\t64[] public proofRequestIDs;\\r...\n      PUSH 8\t\t\t64[] public proofRequestIDs;\\r...\n      MUL \t\t\t64[] public proofRequestIDs;\\r...\n      SWAP2 \t\t\t64[] public proofRequestIDs;\\r...\n      POP \t\t\t64[] public proofRequestIDs;\\r...\n      SLOAD \t\t\t64[] public proofRequestIDs;\\r...\n      SWAP1 \t\t\t64[] public proofRequestIDs;\\r...\n      PUSH 100\t\t\t64[] public proofRequestIDs;\\r...\n      EXP \t\t\t64[] public proofRequestIDs;\\r...\n      SWAP1 \t\t\t64[] public proofRequestIDs;\\r...\n      DIV \t\t\t64[] public proofRequestIDs;\\r...\n      PUSH FFFFFFFFFFFFFFFF\t\t\t64[] public proofRequestIDs;\\r...\n      AND \t\t\t64[] public proofRequestIDs;\\r...\n      DUP2 \t\t\t64[] public proofRequestIDs;\\r...\n      JUMP \t\t\t64[] public proofRequestIDs;\\r...\n    tag 123\t\t\tmapping(uint256 => string) pub...\n      JUMPDEST \t\t\tmapping(uint256 => string) pub...\n      PUSH 7\t\t\tmapping(uint256 => string) pub...\n      PUSH 20\t\t\tmapping(uint256 => string) pub...\n      MSTORE \t\t\tmapping(uint256 => string) pub...\n      DUP1 \t\t\tmapping(uint256 => string) pub...\n      PUSH 0\t\t\tmapping(uint256 => string) pub...\n      MSTORE \t\t\tmapping(uint256 => string) pub...\n      PUSH 40\t\t\tmapping(uint256 => string) pub...\n      PUSH 0\t\t\tmapping(uint256 => string) pub...\n      KECCAK256 \t\t\tmapping(uint256 => string) pub...\n      PUSH 0\t\t\tmapping(uint256 => string) pub...\n      SWAP2 \t\t\tmapping(uint256 => string) pub...\n      POP \t\t\tmapping(uint256 => string) pub...\n      SWAP1 \t\t\tmapping(uint256 => string) pub...\n      POP \t\t\tmapping(uint256 => string) pub...\n      DUP1 \t\t\tmapping(uint256 => string) pub...\n      SLOAD \t\t\tmapping(uint256 => string) pub...\n      PUSH [tag] 311\t\t\tmapping(uint256 => string) pub...\n      SWAP1 \t\t\tmapping(uint256 => string) pub...\n      PUSH [tag] 149\t\t\tmapping(uint256 => string) pub...\n      JUMP \t\t\tmapping(uint256 => string) pub...\n    tag 311\t\t\tmapping(uint256 => string) pub...\n      JUMPDEST \t\t\tmapping(uint256 => string) pub...\n      DUP1 \t\t\tmapping(uint256 => string) pub...\n      PUSH 1F\t\t\tmapping(uint256 => string) pub...\n      ADD \t\t\tmapping(uint256 => string) pub...\n      PUSH 20\t\t\tmapping(uint256 => string) pub...\n      DUP1 \t\t\tmapping(uint256 => string) pub...\n      SWAP2 \t\t\tmapping(uint256 => string) pub...\n      DIV \t\t\tmapping(uint256 => string) pub...\n      MUL \t\t\tmapping(uint256 => string) pub...\n      PUSH 20\t\t\tmapping(uint256 => string) pub...\n      ADD \t\t\tmapping(uint256 => string) pub...\n      PUSH 40\t\t\tmapping(uint256 => string) pub...\n      MLOAD \t\t\tmapping(uint256 => string) pub...\n      SWAP1 \t\t\tmapping(uint256 => string) pub...\n      DUP2 \t\t\tmapping(uint256 => string) pub...\n      ADD \t\t\tmapping(uint256 => string) pub...\n      PUSH 40\t\t\tmapping(uint256 => string) pub...\n      MSTORE \t\t\tmapping(uint256 => string) pub...\n      DUP1 \t\t\tmapping(uint256 => string) pub...\n      SWAP3 \t\t\tmapping(uint256 => string) pub...\n      SWAP2 \t\t\tmapping(uint256 => string) pub...\n      SWAP1 \t\t\tmapping(uint256 => string) pub...\n      DUP2 \t\t\tmapping(uint256 => string) pub...\n      DUP2 \t\t\tmapping(uint256 => string) pub...\n      MSTORE \t\t\tmapping(uint256 => string) pub...\n      PUSH 20\t\t\tmapping(uint256 => string) pub...\n      ADD \t\t\tmapping(uint256 => string) pub...\n      DUP3 \t\t\tmapping(uint256 => string) pub...\n      DUP1 \t\t\tmapping(uint256 => string) pub...\n      SLOAD \t\t\tmapping(uint256 => string) pub...\n      PUSH [tag] 312\t\t\tmapping(uint256 => string) pub...\n      SWAP1 \t\t\tmapping(uint256 => string) pub...\n      PUSH [tag] 149\t\t\tmapping(uint256 => string) pub...\n      JUMP \t\t\tmapping(uint256 => string) pub...\n    tag 312\t\t\tmapping(uint256 => string) pub...\n      JUMPDEST \t\t\tmapping(uint256 => string) pub...\n      DUP1 \t\t\tmapping(uint256 => string) pub...\n      ISZERO \t\t\tmapping(uint256 => string) pub...\n      PUSH [tag] 313\t\t\tmapping(uint256 => string) pub...\n      JUMPI \t\t\tmapping(uint256 => string) pub...\n      DUP1 \t\t\tmapping(uint256 => string) pub...\n      PUSH 1F\t\t\tmapping(uint256 => string) pub...\n      LT \t\t\tmapping(uint256 => string) pub...\n      PUSH [tag] 314\t\t\tmapping(uint256 => string) pub...\n      JUMPI \t\t\tmapping(uint256 => string) pub...\n      PUSH 100\t\t\tmapping(uint256 => string) pub...\n      DUP1 \t\t\tmapping(uint256 => string) pub...\n      DUP4 \t\t\tmapping(uint256 => string) pub...\n      SLOAD \t\t\tmapping(uint256 => string) pub...\n      DIV \t\t\tmapping(uint256 => string) pub...\n      MUL \t\t\tmapping(uint256 => string) pub...\n      DUP4 \t\t\tmapping(uint256 => string) pub...\n      MSTORE \t\t\tmapping(uint256 => string) pub...\n      SWAP2 \t\t\tmapping(uint256 => string) pub...\n      PUSH 20\t\t\tmapping(uint256 => string) pub...\n      ADD \t\t\tmapping(uint256 => string) pub...\n      SWAP2 \t\t\tmapping(uint256 => string) pub...\n      PUSH [tag] 313\t\t\tmapping(uint256 => string) pub...\n      JUMP \t\t\tmapping(uint256 => string) pub...\n    tag 314\t\t\tmapping(uint256 => string) pub...\n      JUMPDEST \t\t\tmapping(uint256 => string) pub...\n      DUP3 \t\t\tmapping(uint256 => string) pub...\n      ADD \t\t\tmapping(uint256 => string) pub...\n      SWAP2 \t\t\tmapping(uint256 => string) pub...\n      SWAP1 \t\t\tmapping(uint256 => string) pub...\n      PUSH 0\t\t\tmapping(uint256 => string) pub...\n      MSTORE \t\t\tmapping(uint256 => string) pub...\n      PUSH 20\t\t\tmapping(uint256 => string) pub...\n      PUSH 0\t\t\tmapping(uint256 => string) pub...\n      KECCAK256 \t\t\tmapping(uint256 => string) pub...\n      SWAP1 \t\t\tmapping(uint256 => string) pub...\n    tag 315\t\t\tmapping(uint256 => string) pub...\n      JUMPDEST \t\t\tmapping(uint256 => string) pub...\n      DUP2 \t\t\tmapping(uint256 => string) pub...\n      SLOAD \t\t\tmapping(uint256 => string) pub...\n      DUP2 \t\t\tmapping(uint256 => string) pub...\n      MSTORE \t\t\tmapping(uint256 => string) pub...\n      SWAP1 \t\t\tmapping(uint256 => string) pub...\n      PUSH 1\t\t\tmapping(uint256 => string) pub...\n      ADD \t\t\tmapping(uint256 => string) pub...\n      SWAP1 \t\t\tmapping(uint256 => string) pub...\n      PUSH 20\t\t\tmapping(uint256 => string) pub...\n      ADD \t\t\tmapping(uint256 => string) pub...\n      DUP1 \t\t\tmapping(uint256 => string) pub...\n      DUP4 \t\t\tmapping(uint256 => string) pub...\n      GT \t\t\tmapping(uint256 => string) pub...\n      PUSH [tag] 315\t\t\tmapping(uint256 => string) pub...\n      JUMPI \t\t\tmapping(uint256 => string) pub...\n      DUP3 \t\t\tmapping(uint256 => string) pub...\n      SWAP1 \t\t\tmapping(uint256 => string) pub...\n      SUB \t\t\tmapping(uint256 => string) pub...\n      PUSH 1F\t\t\tmapping(uint256 => string) pub...\n      AND \t\t\tmapping(uint256 => string) pub...\n      DUP3 \t\t\tmapping(uint256 => string) pub...\n      ADD \t\t\tmapping(uint256 => string) pub...\n      SWAP2 \t\t\tmapping(uint256 => string) pub...\n    tag 313\t\t\tmapping(uint256 => string) pub...\n      JUMPDEST \t\t\tmapping(uint256 => string) pub...\n      POP \t\t\tmapping(uint256 => string) pub...\n      POP \t\t\tmapping(uint256 => string) pub...\n      POP \t\t\tmapping(uint256 => string) pub...\n      POP \t\t\tmapping(uint256 => string) pub...\n      POP \t\t\tmapping(uint256 => string) pub...\n      DUP2 \t\t\tmapping(uint256 => string) pub...\n      JUMP \t\t\tmapping(uint256 => string) pub...\n    tag 128\t\t\tire(tokenID_proofRequest_addre...\n      JUMPDEST \t\t\tire(tokenID_proofRequest_addre...\n      PUSH 0\t\t\t exi\n      PUSH 1\t\t\tenID_proofRequest_\n      PUSH 0\t\t\tenID_proofRequest_address[t\n      DUP5 \t\t\tddress[\n      PUSH FFFFFFFFFFFFFFFFFFFFFFFFFFFFFFFFFFFFFFFF\t\t\tenID_proofRequest_address[t\n      AND \t\t\tenID_proofRequest_address[t\n      PUSH FFFFFFFFFFFFFFFFFFFFFFFFFFFFFFFFFFFFFFFF\t\t\tenID_proofRequest_address[t\n      AND \t\t\tenID_proofRequest_address[t\n      DUP2 \t\t\tenID_proofRequest_address[t\n      MSTORE \t\t\tenID_proofRequest_address[t\n      PUSH 20\t\t\tenID_proofRequest_address[t\n      ADD \t\t\tenID_proofRequest_address[t\n      SWAP1 \t\t\tenID_proofRequest_address[t\n      DUP2 \t\t\tenID_proofRequest_address[t\n      MSTORE \t\t\tenID_proofRequest_address[t\n      PUSH 20\t\t\tenID_proofRequest_address[t\n      ADD \t\t\tenID_proofRequest_address[t\n      PUSH 0\t\t\tenID_proofRequest_address[t\n      KECCAK256 \t\t\tenID_proofRequest_address[t\n      PUSH 0\t\t\tenID_proofRequest_address[toke...\n      DUP4 \t\t\tkenID][r\n      PUSH FFFFFFFFFFFFFFFFFFFFFFFFFFFFFFFFFFFFFFFF\t\t\tenID_proofRequest_address[toke...\n      AND \t\t\tenID_proofRequest_address[toke...\n      PUSH FFFFFFFFFFFFFFFFFFFFFFFFFFFFFFFFFFFFFFFF\t\t\tenID_proofRequest_address[toke...\n      AND \t\t\tenID_proofRequest_address[toke...\n      DUP2 \t\t\tenID_proofRequest_address[toke...\n      MSTORE \t\t\tenID_proofRequest_address[toke...\n      PUSH 20\t\t\tenID_proofRequest_address[toke...\n      ADD \t\t\tenID_proofRequest_address[toke...\n      SWAP1 \t\t\tenID_proofRequest_address[toke...\n      DUP2 \t\t\tenID_proofRequest_address[toke...\n      MSTORE \t\t\tenID_proofRequest_address[toke...\n      PUSH 20\t\t\tenID_proofRequest_address[toke...\n      ADD \t\t\tenID_proofRequest_address[toke...\n      PUSH 0\t\t\tenID_proofRequest_address[toke...\n      KECCAK256 \t\t\tenID_proofRequest_address[toke...\n      PUSH 0\t\t\tenID_proofRequest_address[toke...\n      SWAP1 \t\t\tenID_proofRequest_address[toke...\n      SLOAD \t\t\tenID_proofRequest_address[toke...\n      SWAP1 \t\t\tenID_proofRequest_address[toke...\n      PUSH 100\t\t\tenID_proofRequest_address[toke...\n      EXP \t\t\tenID_proofRequest_address[toke...\n      SWAP1 \t\t\tenID_proofRequest_address[toke...\n      DIV \t\t\tenID_proofRequest_address[toke...\n      PUSH FF\t\t\tenID_proofRequest_address[toke...\n      AND \t\t\tenID_proofRequest_address[toke...\n      SWAP1 \t\t\t    tokenID_proofRequest_addre...\n      POP \t\t\t    tokenID_proofRequest_addre...\n      SWAP3 \t\t\tire(tokenID_proofRequest_addre...\n      SWAP2 \t\t\tire(tokenID_proofRequest_addre...\n      POP \t\t\tire(tokenID_proofRequest_addre...\n      POP \t\t\tire(tokenID_proofRequest_addre...\n      JUMP \t\t\tire(tokenID_proofRequest_addre...\n    tag 133\t\t\ton safeTransferFrom(\\r\\n      ...\n      JUMPDEST \t\t\ton safeTransferFrom(\\r\\n      ...\n      PUSH [tag] 318\t\t\tAllProofsVerified(tokenID);\\r\\...\n      DUP4 \t\t\tD);\\r\\n\\r\\n\n      PUSH [tag] 193\t\t\tAllProofsVerified(token\n      JUMP \t\t\tAllProofsVerified(tokenID);\\r\\...\n    tag 318\t\t\tAllProofsVerified(tokenID);\\r\\...\n      JUMPDEST \t\t\tAllProofsVerified(tokenID);\\r\\...\n      PUSH [tag] 319\t\t\tsafeTransferFrom(from, to, tok...\n      DUP6 \t\t\tto, \n      DUP6 \t\t\tke\n      DUP6 \t\t\tD, amou\n      DUP6 \t\t\t, data\n      DUP6 \t\t\t\\r\\n  \n      PUSH [tag] 320\t\t\tsafeTransferFrom(from,\n      JUMP \t\t\tsafeTransferFrom(from, to, tok...\n    tag 319\t\t\tsafeTransferFrom(from, to, tok...\n      JUMPDEST \t\t\tsafeTransferFrom(from, to, tok...\n      POP \t\t\ton safeTransferFrom(\\r\\n      ...\n      POP \t\t\ton safeTransferFrom(\\r\\n      ...\n      POP \t\t\ton safeTransferFrom(\\r\\n      ...\n      POP \t\t\ton safeTransferFrom(\\r\\n      ...\n      POP \t\t\ton safeTransferFrom(\\r\\n      ...\n      JUMP \t\t\ton safeTransferFrom(\\r\\n      ...\n    tag 136\t\t\ts uri \\r\\n    mapping(uint256 ...\n      JUMPDEST \t\t\ts uri \\r\\n    mapping(uint256 ...\n      PUSH [tag] 322\t\t\tnly the owner\n      PUSH [tag] 156\t\t\tnly the own\n      JUMP \t\t\tnly the owner\n    tag 322\t\t\tnly the owner\n      JUMPDEST \t\t\tnly the owner\n      PUSH 0\t\t\t_\n      PUSH FFFFFFFFFFFFFFFFFFFFFFFFFFFFFFFFFFFFFFFF\t\t\tnID to proof_request_i\n      AND \t\t\tnID to proof_request_i\n      DUP2 \t\t\tnID to p\n      PUSH FFFFFFFFFFFFFFFFFFFFFFFFFFFFFFFFFFFFFFFF\t\t\tnID to proof_request_i\n      AND \t\t\tnID to proof_request_i\n      SUB \t\t\tnID to proof_request_i\n      PUSH [tag] 324\t\t\ttokenID to proof_request_id to...\n      JUMPI \t\t\ttokenID to proof_request_id to...\n      PUSH 0\t\t\t/\n      PUSH 40\t\t\tthe prover's address).\\r\\n    ...\n      MLOAD \t\t\tthe prover's address).\\r\\n    ...\n      PUSH 1E4FBDF700000000000000000000000000000000000000000000000000000000\t\t\tthe prover's address).\\r\\n    ...\n      DUP2 \t\t\tthe prover's address).\\r\\n    ...\n      MSTORE \t\t\tthe prover's address).\\r\\n    ...\n      PUSH 4\t\t\tthe prover's address).\\r\\n    ...\n      ADD \t\t\tthe prover's address).\\r\\n    ...\n      PUSH [tag] 325\t\t\tthe prover's address).\\r\\n    ...\n      SWAP2 \t\t\tthe prover's address).\\r\\n    ...\n      SWAP1 \t\t\tthe prover's address).\\r\\n    ...\n      PUSH [tag] 96\t\t\tthe prover's address).\\r\\n    ...\n      JUMP \t\t\tthe prover's address).\\r\\n    ...\n    tag 325\t\t\tthe prover's address).\\r\\n    ...\n      JUMPDEST \t\t\tthe prover's address).\\r\\n    ...\n      PUSH 40\t\t\tthe prover's address).\\r\\n    ...\n      MLOAD \t\t\tthe prover's address).\\r\\n    ...\n      DUP1 \t\t\tthe prover's address).\\r\\n    ...\n      SWAP2 \t\t\tthe prover's address).\\r\\n    ...\n      SUB \t\t\tthe prover's address).\\r\\n    ...\n      SWAP1 \t\t\tthe prover's address).\\r\\n    ...\n      REVERT \t\t\tthe prover's address).\\r\\n    ...\n    tag 324\t\t\ttokenID to proof_request_id to...\n      JUMPDEST \t\t\ttokenID to proof_request_id to...\n      PUSH [tag] 326\t\t\testID → prover address)\\r\\n   \n      DUP2 \t\t\tess)\\r\\n  \n      PUSH [tag] 277\t\t\testID → prover add\n      JUMP \t\t\testID → prover address)\\r\\n   \n    tag 326\t\t\testID → prover address)\\r\\n   \n      JUMPDEST \t\t\testID → prover address)\\r\\n   \n      POP \t\t\ts uri \\r\\n    mapping(uint256 ...\n      JUMP \t\t\ts uri \\r\\n    mapping(uint256 ...\n    tag 140\t\t\ton burn(address account, uint2...\n      JUMPDEST \t\t\ton burn(address account, uint2...\n      PUSH [tag] 328\t\t\tnly the owner\n      PUSH [tag] 156\t\t\tnly the own\n      JUMP \t\t\tnly the owner\n    tag 328\t\t\tnly the owner\n      JUMPDEST \t\t\tnly the owner\n      PUSH [tag] 330\t\t\taccount, ID, amount);\\r\\n   \n      DUP4 \t\t\tt, ID, \n      DUP4 \t\t\tou\n      DUP4 \t\t\t);\\r\\n  \n      PUSH [tag] 331\t\t\taccou\n      JUMP \t\t\taccount, ID, amount);\\r\\n   \n    tag 330\t\t\taccount, ID, amount);\\r\\n   \n      JUMPDEST \t\t\taccount, ID, amount);\\r\\n   \n      POP \t\t\ton burn(address account, uint2...\n      POP \t\t\ton burn(address account, uint2...\n      POP \t\t\ton burn(address account, uint2...\n      JUMP \t\t\ton burn(address account, uint2...\n    tag 146\t\t\tr.\\r\\n    function getAdmins()...\n      JUMPDEST \t\t\tr.\\r\\n    function getAdmins()...\n      PUSH 0\t\t\t) {\\r\n      PUSH 1FFC9A700000000000000000000000000000000000000000000000000000000\t\t\t    // Internal helper fu\n      PUSH FFFFFFFFFFFFFFFFFFFFFFFFFFFFFFFFFFFFFFFFFFFFFFFFFFFFFFFF\t\t\tins;\\r\\n    }\\r\\n\\r\\n    // In...\n      NOT \t\t\tins;\\r\\n    }\\r\\n\\r\\n    // In...\n      AND \t\t\tins;\\r\\n    }\\r\\n\\r\\n    // In...\n      DUP3 \t\t\tins;\\r\\n    }\n      PUSH FFFFFFFFFFFFFFFFFFFFFFFFFFFFFFFFFFFFFFFFFFFFFFFFFFFFFFFF\t\t\tins;\\r\\n    }\\r\\n\\r\\n    // In...\n      NOT \t\t\tins;\\r\\n    }\\r\\n\\r\\n    // In...\n      AND \t\t\tins;\\r\\n    }\\r\\n\\r\\n    // In...\n      EQ \t\t\tins;\\r\\n    }\\r\\n\\r\\n    // In...\n      SWAP1 \t\t\turn admins;\\r\\n    }\\r\\n\\r\\n  ...\n      POP \t\t\turn admins;\\r\\n    }\\r\\n\\r\\n  ...\n      SWAP2 \t\t\tr.\\r\\n    function getAdmins()...\n      SWAP1 \t\t\tr.\\r\\n    function getAdmins()...\n      POP \t\t\tr.\\r\\n    function getAdmins()...\n      JUMP \t\t\tr.\\r\\n    function getAdmins()...\n    tag 156\t\t\t  admins.pop();\\r\\n           ...\n      JUMPDEST \t\t\t  admins.pop();\\r\\n           ...\n      PUSH [tag] 334\t\t\t      revert\n      PUSH [tag] 307\t\t\t      reve\n      JUMP \t\t\t      revert\n    tag 334\t\t\t      revert\n      JUMPDEST \t\t\t      revert\n      PUSH FFFFFFFFFFFFFFFFFFFFFFFFFFFFFFFFFFFFFFFF\t\t\t      }\\r\\n        revert\n      AND \t\t\t      }\\r\\n        revert\n      PUSH [tag] 335\t\t\t      }\n      PUSH [tag] 94\t\t\t     \n      JUMP \t\t\t      }\n    tag 335\t\t\t      }\n      JUMPDEST \t\t\t      }\n      PUSH FFFFFFFFFFFFFFFFFFFFFFFFFFFFFFFFFFFFFFFF\t\t\t      }\\r\\n        revert\n      AND \t\t\t      }\\r\\n        revert\n      EQ \t\t\t      }\\r\\n        revert\n      PUSH [tag] 336\t\t\t\\r\\n        }\\r\\n        rever...\n      JUMPI \t\t\t\\r\\n        }\\r\\n        rever...\n      PUSH [tag] 337\t\t\trestrict fun\n      PUSH [tag] 307\t\t\trestrict f\n      JUMP \t\t\trestrict fun\n    tag 337\t\t\trestrict fun\n      JUMPDEST \t\t\trestrict fun\n      PUSH 40\t\t\t   }\\r\\n\\r\\n    // Modifier to...\n      MLOAD \t\t\t   }\\r\\n\\r\\n    // Modifier to...\n      PUSH 118CDAA700000000000000000000000000000000000000000000000000000000\t\t\t   }\\r\\n\\r\\n    // Modifier to...\n      DUP2 \t\t\t   }\\r\\n\\r\\n    // Modifier to...\n      MSTORE \t\t\t   }\\r\\n\\r\\n    // Modifier to...\n      PUSH 4\t\t\t   }\\r\\n\\r\\n    // Modifier to...\n      ADD \t\t\t   }\\r\\n\\r\\n    // Modifier to...\n      PUSH [tag] 338\t\t\t   }\\r\\n\\r\\n    // Modifier to...\n      SWAP2 \t\t\t   }\\r\\n\\r\\n    // Modifier to...\n      SWAP1 \t\t\t   }\\r\\n\\r\\n    // Modifier to...\n      PUSH [tag] 96\t\t\t   }\\r\\n\\r\\n    // Modifier to...\n      JUMP \t\t\t   }\\r\\n\\r\\n    // Modifier to...\n    tag 338\t\t\t   }\\r\\n\\r\\n    // Modifier to...\n      JUMPDEST \t\t\t   }\\r\\n\\r\\n    // Modifier to...\n      PUSH 40\t\t\t   }\\r\\n\\r\\n    // Modifier to...\n      MLOAD \t\t\t   }\\r\\n\\r\\n    // Modifier to...\n      DUP1 \t\t\t   }\\r\\n\\r\\n    // Modifier to...\n      SWAP2 \t\t\t   }\\r\\n\\r\\n    // Modifier to...\n      SUB \t\t\t   }\\r\\n\\r\\n    // Modifier to...\n      SWAP1 \t\t\t   }\\r\\n\\r\\n    // Modifier to...\n      REVERT \t\t\t   }\\r\\n\\r\\n    // Modifier to...\n    tag 336\t\t\t\\r\\n        }\\r\\n        rever...\n      JUMPDEST \t\t\t\\r\\n        }\\r\\n        rever...\n      JUMP \t\t\t  admins.pop();\\r\\n           ...\n    tag 193\t\t\ton _checkAllProofsVerified(uin...\n      JUMPDEST \t\t\ton _checkAllProofsVerified(uin...\n      PUSH 0\t\t\t[] memory tempRequestIDs = pro\n      PUSH 9\t\t\tequestIDs;\\r\\n   \n      DUP1 \t\t\t[] memory tempRequestIDs = pro...\n      SLOAD \t\t\t[] memory tempRequestIDs = pro...\n      DUP1 \t\t\t[] memory tempRequestIDs = pro...\n      PUSH 20\t\t\t[] memory tempRequestIDs = pro...\n      MUL \t\t\t[] memory tempRequestIDs = pro...\n      PUSH 20\t\t\t[] memory tempRequestIDs = pro...\n      ADD \t\t\t[] memory tempRequestIDs = pro...\n      PUSH 40\t\t\t[] memory tempRequestIDs = pro...\n      MLOAD \t\t\t[] memory tempRequestIDs = pro...\n      SWAP1 \t\t\t[] memory tempRequestIDs = pro...\n      DUP2 \t\t\t[] memory tempRequestIDs = pro...\n      ADD \t\t\t[] memory tempRequestIDs = pro...\n      PUSH 40\t\t\t[] memory tempRequestIDs = pro...\n      MSTORE \t\t\t[] memory tempRequestIDs = pro...\n      DUP1 \t\t\t[] memory tempRequestIDs = pro...\n      SWAP3 \t\t\t[] memory tempRequestIDs = pro...\n      SWAP2 \t\t\t[] memory tempRequestIDs = pro...\n      SWAP1 \t\t\t[] memory tempRequestIDs = pro...\n      DUP2 \t\t\t[] memory tempRequestIDs = pro...\n      DUP2 \t\t\t[] memory tempRequestIDs = pro...\n      MSTORE \t\t\t[] memory tempRequestIDs = pro...\n      PUSH 20\t\t\t[] memory tempRequestIDs = pro...\n      ADD \t\t\t[] memory tempRequestIDs = pro...\n      DUP3 \t\t\t[] memory tempRequestIDs = pro...\n      DUP1 \t\t\t[] memory tempRequestIDs = pro...\n      SLOAD \t\t\t[] memory tempRequestIDs = pro...\n      DUP1 \t\t\t[] memory tempRequestIDs = pro...\n      ISZERO \t\t\t[] memory tempRequestIDs = pro...\n      PUSH [tag] 340\t\t\t[] memory tempRequestIDs = pro...\n      JUMPI \t\t\t[] memory tempRequestIDs = pro...\n      PUSH 20\t\t\t[] memory tempRequestIDs = pro...\n      MUL \t\t\t[] memory tempRequestIDs = pro...\n      DUP3 \t\t\t[] memory tempRequestIDs = pro...\n      ADD \t\t\t[] memory tempRequestIDs = pro...\n      SWAP2 \t\t\t[] memory tempRequestIDs = pro...\n      SWAP1 \t\t\t[] memory tempRequestIDs = pro...\n      PUSH 0\t\t\t[] memory tempRequestIDs = pro...\n      MSTORE \t\t\t[] memory tempRequestIDs = pro...\n      PUSH 20\t\t\t[] memory tempRequestIDs = pro...\n      PUSH 0\t\t\t[] memory tempRequestIDs = pro...\n      KECCAK256 \t\t\t[] memory tempRequestIDs = pro...\n      SWAP1 \t\t\t[] memory tempRequestIDs = pro...\n      PUSH 0\t\t\t[] memory tempRequestIDs = pro...\n      SWAP1 \t\t\t[] memory tempRequestIDs = pro...\n    tag 341\t\t\t[] memory tempRequestIDs = pro...\n      JUMPDEST \t\t\t[] memory tempRequestIDs = pro...\n      DUP3 \t\t\t[] memory tempRequestIDs = pro...\n      DUP3 \t\t\t[] memory tempRequestIDs = pro...\n      SWAP1 \t\t\t[] memory tempRequestIDs = pro...\n      SLOAD \t\t\t[] memory tempRequestIDs = pro...\n      SWAP1 \t\t\t[] memory tempRequestIDs = pro...\n      PUSH 100\t\t\t[] memory tempRequestIDs = pro...\n      EXP \t\t\t[] memory tempRequestIDs = pro...\n      SWAP1 \t\t\t[] memory tempRequestIDs = pro...\n      DIV \t\t\t[] memory tempRequestIDs = pro...\n      PUSH FFFFFFFFFFFFFFFF\t\t\t[] memory tempRequestIDs = pro...\n      AND \t\t\t[] memory tempRequestIDs = pro...\n      PUSH FFFFFFFFFFFFFFFF\t\t\t[] memory tempRequestIDs = pro...\n      AND \t\t\t[] memory tempRequestIDs = pro...\n      DUP2 \t\t\t[] memory tempRequestIDs = pro...\n      MSTORE \t\t\t[] memory tempRequestIDs = pro...\n      PUSH 20\t\t\t[] memory tempRequestIDs = pro...\n      ADD \t\t\t[] memory tempRequestIDs = pro...\n      SWAP1 \t\t\t[] memory tempRequestIDs = pro...\n      PUSH 8\t\t\t[] memory tempRequestIDs = pro...\n      ADD \t\t\t[] memory tempRequestIDs = pro...\n      SWAP1 \t\t\t[] memory tempRequestIDs = pro...\n      PUSH 20\t\t\t[] memory tempRequestIDs = pro...\n      DUP3 \t\t\t[] memory tempRequestIDs = pro...\n      PUSH 7\t\t\t[] memory tempRequestIDs = pro...\n      ADD \t\t\t[] memory tempRequestIDs = pro...\n      DIV \t\t\t[] memory tempRequestIDs = pro...\n      SWAP3 \t\t\t[] memory tempRequestIDs = pro...\n      DUP4 \t\t\t[] memory tempRequestIDs = pro...\n      ADD \t\t\t[] memory tempRequestIDs = pro...\n      SWAP3 \t\t\t[] memory tempRequestIDs = pro...\n      PUSH 1\t\t\t[] memory tempRequestIDs = pro...\n      SUB \t\t\t[] memory tempRequestIDs = pro...\n      DUP3 \t\t\t[] memory tempRequestIDs = pro...\n      MUL \t\t\t[] memory tempRequestIDs = pro...\n      SWAP2 \t\t\t[] memory tempRequestIDs = pro...\n      POP \t\t\t[] memory tempRequestIDs = pro...\n      DUP1 \t\t\t[] memory tempRequestIDs = pro...\n      DUP5 \t\t\t[] memory tempRequestIDs = pro...\n      GT \t\t\t[] memory tempRequestIDs = pro...\n      PUSH [tag] 341\t\t\t[] memory tempRequestIDs = pro...\n      JUMPI \t\t\t[] memory tempRequestIDs = pro...\n      SWAP1 \t\t\t[] memory tempRequestIDs = pro...\n      POP \t\t\t[] memory tempRequestIDs = pro...\n    tag 340\t\t\t[] memory tempRequestIDs = pro...\n      JUMPDEST \t\t\t[] memory tempRequestIDs = pro...\n      POP \t\t\t[] memory tempRequestIDs = pro...\n      POP \t\t\t[] memory tempRequestIDs = pro...\n      POP \t\t\t[] memory tempRequestIDs = pro...\n      POP \t\t\t[] memory tempRequestIDs = pro...\n      POP \t\t\t[] memory tempRequestIDs = pro...\n      SWAP1 \t\t\t[] memory tempRequestIDs = pro...\n      POP \t\t\t[] memory tempRequestIDs = pro...\n      PUSH 0\t\t\t6 i = 0; \n      PUSH 0\t\t\t \n      SWAP1 \t\t\t6 i = 0; i < \n      POP \t\t\t6 i = 0; i < \n    tag 342\t\t\tint256 i = 0; i < tempRequestI...\n      JUMPDEST \t\t\tint256 i = 0; i < tempRequestI...\n      DUP2 \t\t\tquestIDs.lengt\n      MLOAD \t\t\tquestIDs.length; i++)\n      DUP2 \t\t\tm\n      LT \t\t\tmpRequestIDs.length; i++)\n      ISZERO \t\t\tint256 i = 0; i < tempRequestI...\n      PUSH [tag] 343\t\t\tint256 i = 0; i < tempRequestI...\n      JUMPI \t\t\tint256 i = 0; i < tempRequestI...\n      PUSH 0\t\t\t \n      PUSH FFFFFFFFFFFFFFFFFFFFFFFFFFFFFFFFFFFFFFFF\t\t\tD_proofRequest_address[tokenID...\n      AND \t\t\tD_proofRequest_address[tokenID...\n      PUSH 8\t\t\tD_proofRequest_address[token\n      PUSH 0\t\t\tD_proofRequest_address[tokenID...\n      DUP6 \t\t\tD][temp\n      DUP2 \t\t\tD_proofRequest_address[tokenID...\n      MSTORE \t\t\tD_proofRequest_address[tokenID...\n      PUSH 20\t\t\tD_proofRequest_address[tokenID...\n      ADD \t\t\tD_proofRequest_address[tokenID...\n      SWAP1 \t\t\tD_proofRequest_address[tokenID...\n      DUP2 \t\t\tD_proofRequest_address[tokenID...\n      MSTORE \t\t\tD_proofRequest_address[tokenID...\n      PUSH 20\t\t\tD_proofRequest_address[tokenID...\n      ADD \t\t\tD_proofRequest_address[tokenID...\n      PUSH 0\t\t\tD_proofRequest_address[tokenID...\n      KECCAK256 \t\t\tD_proofRequest_address[tokenID...\n      PUSH 0\t\t\tD_proofRequest_address[tokenID...\n      DUP5 \t\t\tquestIDs[i]] !\n      DUP5 \t\t\t \n      DUP2 \t\t\tquestIDs[i]] != a\n      MLOAD \t\t\tquestIDs[i]] != a\n      DUP2 \t\t\tquestIDs[i]] != a\n      LT \t\t\tquestIDs[i]] != a\n      PUSH [tag] 345\t\t\tquestIDs[i]] != a\n      JUMPI \t\t\tquestIDs[i]] != a\n      PUSH [tag] 346\t\t\tquestIDs[i]] != a\n      PUSH [tag] 163\t\t\tquestIDs[i]] != a\n      JUMP \t\t\tquestIDs[i]] != a\n    tag 346\t\t\tquestIDs[i]] != a\n      JUMPDEST \t\t\tquestIDs[i]] != a\n    tag 345\t\t\tquestIDs[i]] != a\n      JUMPDEST \t\t\tquestIDs[i]] != a\n      PUSH 20\t\t\tquestIDs[i]] != a\n      MUL \t\t\tquestIDs[i]] != a\n      PUSH 20\t\t\tquestIDs[i]] != a\n      ADD \t\t\tquestIDs[i]] != a\n      ADD \t\t\tquestIDs[i]] != a\n      MLOAD \t\t\tquestIDs[i]] != a\n      PUSH FFFFFFFFFFFFFFFF\t\t\tD_proofRequest_address[tokenID...\n      AND \t\t\tD_proofRequest_address[tokenID...\n      PUSH FFFFFFFFFFFFFFFF\t\t\tD_proofRequest_address[tokenID...\n      AND \t\t\tD_proofRequest_address[tokenID...\n      DUP2 \t\t\tD_proofRequest_address[tokenID...\n      MSTORE \t\t\tD_proofRequest_address[tokenID...\n      PUSH 20\t\t\tD_proofRequest_address[tokenID...\n      ADD \t\t\tD_proofRequest_address[tokenID...\n      SWAP1 \t\t\tD_proofRequest_address[tokenID...\n      DUP2 \t\t\tD_proofRequest_address[tokenID...\n      MSTORE \t\t\tD_proofRequest_address[tokenID...\n      PUSH 20\t\t\tD_proofRequest_address[tokenID...\n      ADD \t\t\tD_proofRequest_address[tokenID...\n      PUSH 0\t\t\tD_proofRequest_address[tokenID...\n      KECCAK256 \t\t\tD_proofRequest_address[tokenID...\n      PUSH 0\t\t\tD_proofRequest_address[tokenID...\n      SWAP1 \t\t\tD_proofRequest_address[tokenID...\n      SLOAD \t\t\tD_proofRequest_address[tokenID...\n      SWAP1 \t\t\tD_proofRequest_address[tokenID...\n      PUSH 100\t\t\tD_proofRequest_address[tokenID...\n      EXP \t\t\tD_proofRequest_address[tokenID...\n      SWAP1 \t\t\tD_proofRequest_address[tokenID...\n      DIV \t\t\tD_proofRequest_address[tokenID...\n      PUSH FFFFFFFFFFFFFFFFFFFFFFFFFFFFFFFFFFFFFFFF\t\t\tD_proofRequest_address[tokenID...\n      AND \t\t\tD_proofRequest_address[tokenID...\n      PUSH FFFFFFFFFFFFFFFFFFFFFFFFFFFFFFFFFFFFFFFF\t\t\tD_proofRequest_address[tokenID...\n      AND \t\t\tD_proofRequest_address[tokenID...\n      EQ \t\t\tD_proofRequest_address[tokenID...\n      PUSH [tag] 347\t\t\tkenID_proofRequest_address[tok...\n      JUMPI \t\t\tkenID_proofRequest_address[tok...\n      PUSH 0\t\t\ts prover = tok\n      PUSH 8\t\t\tD_proofRequest_address[token\n      PUSH 0\t\t\tD_proofRequest_address[tokenID...\n      DUP6 \t\t\tD][temp\n      DUP2 \t\t\tD_proofRequest_address[tokenID...\n      MSTORE \t\t\tD_proofRequest_address[tokenID...\n      PUSH 20\t\t\tD_proofRequest_address[tokenID...\n      ADD \t\t\tD_proofRequest_address[tokenID...\n      SWAP1 \t\t\tD_proofRequest_address[tokenID...\n      DUP2 \t\t\tD_proofRequest_address[tokenID...\n      MSTORE \t\t\tD_proofRequest_address[tokenID...\n      PUSH 20\t\t\tD_proofRequest_address[tokenID...\n      ADD \t\t\tD_proofRequest_address[tokenID...\n      PUSH 0\t\t\tD_proofRequest_address[tokenID...\n      KECCAK256 \t\t\tD_proofRequest_address[tokenID...\n      PUSH 0\t\t\tD_proofRequest_address[tokenID...\n      DUP5 \t\t\tquestIDs[i]];\\r\n      DUP5 \t\t\t \n      DUP2 \t\t\tquestIDs[i]];\\r\\n  \n      MLOAD \t\t\tquestIDs[i]];\\r\\n  \n      DUP2 \t\t\tquestIDs[i]];\\r\\n  \n      LT \t\t\tquestIDs[i]];\\r\\n  \n      PUSH [tag] 348\t\t\tquestIDs[i]];\\r\\n  \n      JUMPI \t\t\tquestIDs[i]];\\r\\n  \n      PUSH [tag] 349\t\t\tquestIDs[i]];\\r\\n  \n      PUSH [tag] 163\t\t\tquestIDs[i]];\\r\\n  \n      JUMP \t\t\tquestIDs[i]];\\r\\n  \n    tag 349\t\t\tquestIDs[i]];\\r\\n  \n      JUMPDEST \t\t\tquestIDs[i]];\\r\\n  \n    tag 348\t\t\tquestIDs[i]];\\r\\n  \n      JUMPDEST \t\t\tquestIDs[i]];\\r\\n  \n      PUSH 20\t\t\tquestIDs[i]];\\r\\n  \n      MUL \t\t\tquestIDs[i]];\\r\\n  \n      PUSH 20\t\t\tquestIDs[i]];\\r\\n  \n      ADD \t\t\tquestIDs[i]];\\r\\n  \n      ADD \t\t\tquestIDs[i]];\\r\\n  \n      MLOAD \t\t\tquestIDs[i]];\\r\\n  \n      PUSH FFFFFFFFFFFFFFFF\t\t\tD_proofRequest_address[tokenID...\n      AND \t\t\tD_proofRequest_address[tokenID...\n      PUSH FFFFFFFFFFFFFFFF\t\t\tD_proofRequest_address[tokenID...\n      AND \t\t\tD_proofRequest_address[tokenID...\n      DUP2 \t\t\tD_proofRequest_address[tokenID...\n      MSTORE \t\t\tD_proofRequest_address[tokenID...\n      PUSH 20\t\t\tD_proofRequest_address[tokenID...\n      ADD \t\t\tD_proofRequest_address[tokenID...\n      SWAP1 \t\t\tD_proofRequest_address[tokenID...\n      DUP2 \t\t\tD_proofRequest_address[tokenID...\n      MSTORE \t\t\tD_proofRequest_address[tokenID...\n      PUSH 20\t\t\tD_proofRequest_address[tokenID...\n      ADD \t\t\tD_proofRequest_address[tokenID...\n      PUSH 0\t\t\tD_proofRequest_address[tokenID...\n      KECCAK256 \t\t\tD_proofRequest_address[tokenID...\n      PUSH 0\t\t\tD_proofRequest_address[tokenID...\n      SWAP1 \t\t\tD_proofRequest_address[tokenID...\n      SLOAD \t\t\tD_proofRequest_address[tokenID...\n      SWAP1 \t\t\tD_proofRequest_address[tokenID...\n      PUSH 100\t\t\tD_proofRequest_address[tokenID...\n      EXP \t\t\tD_proofRequest_address[tokenID...\n      SWAP1 \t\t\tD_proofRequest_address[tokenID...\n      DIV \t\t\tD_proofRequest_address[tokenID...\n      PUSH FFFFFFFFFFFFFFFFFFFFFFFFFFFFFFFFFFFFFFFF\t\t\tD_proofRequest_address[tokenID...\n      AND \t\t\tD_proofRequest_address[tokenID...\n      SWAP1 \t\t\ts prover = tokenID_proofReques...\n      POP \t\t\ts prover = tokenID_proofReques...\n      PUSH A\t\t\ter.getPr\n      PUSH 0\t\t\ter.getPr\n      SWAP1 \t\t\ter.getPr\n      SLOAD \t\t\ter.getPr\n      SWAP1 \t\t\ter.getPr\n      PUSH 100\t\t\ter.getPr\n      EXP \t\t\ter.getPr\n      SWAP1 \t\t\ter.getPr\n      DIV \t\t\ter.getPr\n      PUSH FFFFFFFFFFFFFFFFFFFFFFFFFFFFFFFFFFFFFFFF\t\t\ter.getPr\n      AND \t\t\ter.getPr\n      PUSH FFFFFFFFFFFFFFFFFFFFFFFFFFFFFFFFFFFFFFFF\t\t\ter.getProofStatus(prove\n      AND \t\t\ter.getProofStatus(prove\n      PUSH 8C1DA2C9\t\t\ter.getProofStatus(prove\n      DUP3 \t\t\t, temp\n      DUP6 \t\t\tquestIDs[i]).i\n      DUP6 \t\t\tV\n      DUP2 \t\t\tquestIDs[i]).isVe\n      MLOAD \t\t\tquestIDs[i]).isVe\n      DUP2 \t\t\tquestIDs[i]).isVe\n      LT \t\t\tquestIDs[i]).isVe\n      PUSH [tag] 350\t\t\tquestIDs[i]).isVe\n      JUMPI \t\t\tquestIDs[i]).isVe\n      PUSH [tag] 351\t\t\tquestIDs[i]).isVe\n      PUSH [tag] 163\t\t\tquestIDs[i]).isVe\n      JUMP \t\t\tquestIDs[i]).isVe\n    tag 351\t\t\tquestIDs[i]).isVe\n      JUMPDEST \t\t\tquestIDs[i]).isVe\n    tag 350\t\t\tquestIDs[i]).isVe\n      JUMPDEST \t\t\tquestIDs[i]).isVe\n      PUSH 20\t\t\tquestIDs[i]).isVe\n      MUL \t\t\tquestIDs[i]).isVe\n      PUSH 20\t\t\tquestIDs[i]).isVe\n      ADD \t\t\tquestIDs[i]).isVe\n      ADD \t\t\tquestIDs[i]).isVe\n      MLOAD \t\t\tquestIDs[i]).isVe\n      PUSH 40\t\t\ter.getProofStatus(prover, temp...\n      MLOAD \t\t\ter.getProofStatus(prover, temp...\n      DUP4 \t\t\ter.getProofStatus(prover, temp...\n      PUSH FFFFFFFF\t\t\ter.getProofStatus(prover, temp...\n      AND \t\t\ter.getProofStatus(prover, temp...\n      PUSH E0\t\t\ter.getProofStatus(prover, temp...\n      SHL \t\t\ter.getProofStatus(prover, temp...\n      DUP2 \t\t\ter.getProofStatus(prover, temp...\n      MSTORE \t\t\ter.getProofStatus(prover, temp...\n      PUSH 4\t\t\ter.getProofStatus(prover, temp...\n      ADD \t\t\ter.getProofStatus(prover, temp...\n      PUSH [tag] 352\t\t\ter.getProofStatus(prover, temp...\n      SWAP3 \t\t\ter.getProofStatus(prover, temp...\n      SWAP2 \t\t\ter.getProofStatus(prover, temp...\n      SWAP1 \t\t\ter.getProofStatus(prover, temp...\n      PUSH [tag] 353\t\t\ter.getProofStatus(prover, temp...\n      JUMP \t\t\ter.getProofStatus(prover, temp...\n    tag 352\t\t\ter.getProofStatus(prover, temp...\n      JUMPDEST \t\t\ter.getProofStatus(prover, temp...\n      PUSH 0\t\t\ter.getProofStatus(prover, temp...\n      PUSH 40\t\t\ter.getProofStatus(prover, temp...\n      MLOAD \t\t\ter.getProofStatus(prover, temp...\n      DUP1 \t\t\ter.getProofStatus(prover, temp...\n      DUP4 \t\t\ter.getProofStatus(prover, temp...\n      SUB \t\t\ter.getProofStatus(prover, temp...\n      DUP2 \t\t\ter.getProofStatus(prover, temp...\n      DUP7 \t\t\ter.getProofStatus(prover, temp...\n      GAS \t\t\ter.getProofStatus(prover, temp...\n      STATICCALL \t\t\ter.getProofStatus(prover, temp...\n      ISZERO \t\t\ter.getProofStatus(prover, temp...\n      DUP1 \t\t\ter.getProofStatus(prover, temp...\n      ISZERO \t\t\ter.getProofStatus(prover, temp...\n      PUSH [tag] 355\t\t\ter.getProofStatus(prover, temp...\n      JUMPI \t\t\ter.getProofStatus(prover, temp...\n      RETURNDATASIZE \t\t\ter.getProofStatus(prover, temp...\n      PUSH 0\t\t\ter.getProofStatus(prover, temp...\n      PUSH 0\t\t\ter.getProofStatus(prover, temp...\n      RETURNDATACOPY \t\t\ter.getProofStatus(prover, temp...\n      RETURNDATASIZE \t\t\ter.getProofStatus(prover, temp...\n      PUSH 0\t\t\ter.getProofStatus(prover, temp...\n      REVERT \t\t\ter.getProofStatus(prover, temp...\n    tag 355\t\t\ter.getProofStatus(prover, temp...\n      JUMPDEST \t\t\ter.getProofStatus(prover, temp...\n      POP \t\t\ter.getProofStatus(prover, temp...\n      POP \t\t\ter.getProofStatus(prover, temp...\n      POP \t\t\ter.getProofStatus(prover, temp...\n      POP \t\t\ter.getProofStatus(prover, temp...\n      PUSH 40\t\t\ter.getProofStatus(prover, temp...\n      MLOAD \t\t\ter.getProofStatus(prover, temp...\n      RETURNDATASIZE \t\t\ter.getProofStatus(prover, temp...\n      PUSH 0\t\t\ter.getProofStatus(prover, temp...\n      DUP3 \t\t\ter.getProofStatus(prover, temp...\n      RETURNDATACOPY \t\t\ter.getProofStatus(prover, temp...\n      RETURNDATASIZE \t\t\ter.getProofStatus(prover, temp...\n      PUSH 1F\t\t\ter.getProofStatus(prover, temp...\n      NOT \t\t\ter.getProofStatus(prover, temp...\n      PUSH 1F\t\t\ter.getProofStatus(prover, temp...\n      DUP3 \t\t\ter.getProofStatus(prover, temp...\n      ADD \t\t\ter.getProofStatus(prover, temp...\n      AND \t\t\ter.getProofStatus(prover, temp...\n      DUP3 \t\t\ter.getProofStatus(prover, temp...\n      ADD \t\t\ter.getProofStatus(prover, temp...\n      DUP1 \t\t\ter.getProofStatus(prover, temp...\n      PUSH 40\t\t\ter.getProofStatus(prover, temp...\n      MSTORE \t\t\ter.getProofStatus(prover, temp...\n      POP \t\t\ter.getProofStatus(prover, temp...\n      DUP2 \t\t\ter.getProofStatus(prover, temp...\n      ADD \t\t\ter.getProofStatus(prover, temp...\n      SWAP1 \t\t\ter.getProofStatus(prover, temp...\n      PUSH [tag] 356\t\t\ter.getProofStatus(prover, temp...\n      SWAP2 \t\t\ter.getProofStatus(prover, temp...\n      SWAP1 \t\t\ter.getProofStatus(prover, temp...\n      PUSH [tag] 357\t\t\ter.getProofStatus(prover, temp...\n      JUMP \t\t\ter.getProofStatus(prover, temp...\n    tag 356\t\t\ter.getProofStatus(prover, temp...\n      JUMPDEST \t\t\ter.getProofStatus(prover, temp...\n      PUSH 0\t\t\ter.getProofStatus(prover, temp...\n      ADD \t\t\ter.getProofStatus(prover, temp...\n      MLOAD \t\t\ter.getProofStatus(prover, temp...\n      PUSH [tag] 358\t\t\terifier.getProofStatus(prover,...\n      JUMPI \t\t\terifier.getProofStatus(prover,...\n      DUP3 \t\t\tquestIDs[i], p\n      DUP3 \t\t\to\n      DUP2 \t\t\tquestIDs[i], prov\n      MLOAD \t\t\tquestIDs[i], prov\n      DUP2 \t\t\tquestIDs[i], prov\n      LT \t\t\tquestIDs[i], prov\n      PUSH [tag] 359\t\t\tquestIDs[i], prov\n      JUMPI \t\t\tquestIDs[i], prov\n      PUSH [tag] 360\t\t\tquestIDs[i], prov\n      PUSH [tag] 163\t\t\tquestIDs[i], prov\n      JUMP \t\t\tquestIDs[i], prov\n    tag 360\t\t\tquestIDs[i], prov\n      JUMPDEST \t\t\tquestIDs[i], prov\n    tag 359\t\t\tquestIDs[i], prov\n      JUMPDEST \t\t\tquestIDs[i], prov\n      PUSH 20\t\t\tquestIDs[i], prov\n      MUL \t\t\tquestIDs[i], prov\n      PUSH 20\t\t\tquestIDs[i], prov\n      ADD \t\t\tquestIDs[i], prov\n      ADD \t\t\tquestIDs[i], prov\n      MLOAD \t\t\tquestIDs[i], prov\n      DUP2 \t\t\t);\\r\\n  \n      PUSH 40\t\t\totVerified(tempRequestIDs[i], ...\n      MLOAD \t\t\totVerified(tempRequestIDs[i], ...\n      PUSH A5A4608E00000000000000000000000000000000000000000000000000000000\t\t\totVerified(tempRequestIDs[i], ...\n      DUP2 \t\t\totVerified(tempRequestIDs[i], ...\n      MSTORE \t\t\totVerified(tempRequestIDs[i], ...\n      PUSH 4\t\t\totVerified(tempRequestIDs[i], ...\n      ADD \t\t\totVerified(tempRequestIDs[i], ...\n      PUSH [tag] 361\t\t\totVerified(tempRequestIDs[i], ...\n      SWAP3 \t\t\totVerified(tempRequestIDs[i], ...\n      SWAP2 \t\t\totVerified(tempRequestIDs[i], ...\n      SWAP1 \t\t\totVerified(tempRequestIDs[i], ...\n      PUSH [tag] 362\t\t\totVerified(tempRequestIDs[i], ...\n      JUMP \t\t\totVerified(tempRequestIDs[i], ...\n    tag 361\t\t\totVerified(tempRequestIDs[i], ...\n      JUMPDEST \t\t\totVerified(tempRequestIDs[i], ...\n      PUSH 40\t\t\totVerified(tempRequestIDs[i], ...\n      MLOAD \t\t\totVerified(tempRequestIDs[i], ...\n      DUP1 \t\t\totVerified(tempRequestIDs[i], ...\n      SWAP2 \t\t\totVerified(tempRequestIDs[i], ...\n      SUB \t\t\totVerified(tempRequestIDs[i], ...\n      SWAP1 \t\t\totVerified(tempRequestIDs[i], ...\n      REVERT \t\t\totVerified(tempRequestIDs[i], ...\n    tag 358\t\t\terifier.getProofStatus(prover,...\n      JUMPDEST \t\t\terifier.getProofStatus(prover,...\n      POP \t\t\t         address prover = toke...\n    tag 347\t\t\tkenID_proofRequest_address[tok...\n      JUMPDEST \t\t\tkenID_proofRequest_address[tok...\n      DUP1 \t\t\t\\r\\n \n      DUP1 \t\t\t\\r\\n \n      PUSH 1\t\t\t\\r\\n \n      ADD \t\t\t\\r\\n \n      SWAP2 \t\t\t\\r\\n \n      POP \t\t\t\\r\\n \n      POP \t\t\t\\r\\n \n      PUSH [tag] 342\t\t\tint256 i = 0; i < tempRequestI...\n      JUMP \t\t\tint256 i = 0; i < tempRequestI...\n    tag 343\t\t\tint256 i = 0; i < tempRequestI...\n      JUMPDEST \t\t\tint256 i = 0; i < tempRequestI...\n      POP \t\t\tint256 i = 0; i < tempRequestI...\n      POP \t\t\t   // iterate memory array (te...\n      POP \t\t\ton _checkAllProofsVerified(uin...\n      JUMP \t\t\ton _checkAllProofsVerified(uin...\n    tag 206\t\t\tfunction _isAdmin(address _adm...\n      JUMPDEST \t\t\tfunction _isAdmin(address _adm...\n      PUSH 0\t\t\tbool\n      PUSH 0\t\t\tuint i\n      PUSH 0\t\t\t0\n      SWAP1 \t\t\tuint i = 0\n      POP \t\t\tuint i = 0\n    tag 364\t\t\tfor (uint i = 0; i < admins.le...\n      JUMPDEST \t\t\tfor (uint i = 0; i < admins.le...\n      PUSH 4\t\t\tadmins\n      DUP1 \t\t\tadmins.length\n      SLOAD \t\t\tadmins.length\n      SWAP1 \t\t\tadmins.length\n      POP \t\t\tadmins.length\n      DUP2 \t\t\ti\n      LT \t\t\ti < admins.length\n      ISZERO \t\t\tfor (uint i = 0; i < admins.le...\n      PUSH [tag] 365\t\t\tfor (uint i = 0; i < admins.le...\n      JUMPI \t\t\tfor (uint i = 0; i < admins.le...\n      DUP3 \t\t\t_admin\n      PUSH FFFFFFFFFFFFFFFFFFFFFFFFFFFFFFFFFFFFFFFF\t\t\tadmins[i] == _admin\n      AND \t\t\tadmins[i] == _admin\n      PUSH 4\t\t\tadmins\n      DUP3 \t\t\ti\n      DUP2 \t\t\tadmins[i]\n      SLOAD \t\t\tadmins[i]\n      DUP2 \t\t\tadmins[i]\n      LT \t\t\tadmins[i]\n      PUSH [tag] 367\t\t\tadmins[i]\n      JUMPI \t\t\tadmins[i]\n      PUSH [tag] 368\t\t\tadmins[i]\n      PUSH [tag] 163\t\t\tadmins[i]\n      JUMP \t\t\tadmins[i]\n    tag 368\t\t\tadmins[i]\n      JUMPDEST \t\t\tadmins[i]\n    tag 367\t\t\tadmins[i]\n      JUMPDEST \t\t\tadmins[i]\n      SWAP1 \t\t\tadmins[i]\n      PUSH 0\t\t\tadmins[i]\n      MSTORE \t\t\tadmins[i]\n      PUSH 20\t\t\tadmins[i]\n      PUSH 0\t\t\tadmins[i]\n      KECCAK256 \t\t\tadmins[i]\n      ADD \t\t\tadmins[i]\n      PUSH 0\t\t\tadmins[i]\n      SWAP1 \t\t\tadmins[i]\n      SLOAD \t\t\tadmins[i]\n      SWAP1 \t\t\tadmins[i]\n      PUSH 100\t\t\tadmins[i]\n      EXP \t\t\tadmins[i]\n      SWAP1 \t\t\tadmins[i]\n      DIV \t\t\tadmins[i]\n      PUSH FFFFFFFFFFFFFFFFFFFFFFFFFFFFFFFFFFFFFFFF\t\t\tadmins[i]\n      AND \t\t\tadmins[i]\n      PUSH FFFFFFFFFFFFFFFFFFFFFFFFFFFFFFFFFFFFFFFF\t\t\tadmins[i] == _admin\n      AND \t\t\tadmins[i] == _admin\n      SUB \t\t\tadmins[i] == _admin\n      PUSH [tag] 370\t\t\tif (admins[i] == _admin) {\\r\\n...\n      JUMPI \t\t\tif (admins[i] == _admin) {\\r\\n...\n      PUSH 1\t\t\ttrue\n      SWAP2 \t\t\treturn true\n      POP \t\t\treturn true\n      POP \t\t\treturn true\n      PUSH [tag] 363\t\t\treturn true\n      JUMP \t\t\treturn true\n    tag 370\t\t\tif (admins[i] == _admin) {\\r\\n...\n      JUMPDEST \t\t\tif (admins[i] == _admin) {\\r\\n...\n      DUP1 \t\t\ti++\n      DUP1 \t\t\ti++\n      PUSH 1\t\t\ti++\n      ADD \t\t\ti++\n      SWAP2 \t\t\ti++\n      POP \t\t\ti++\n      POP \t\t\ti++\n      PUSH [tag] 364\t\t\tfor (uint i = 0; i < admins.le...\n      JUMP \t\t\tfor (uint i = 0; i < admins.le...\n    tag 365\t\t\tfor (uint i = 0; i < admins.le...\n      JUMPDEST \t\t\tfor (uint i = 0; i < admins.le...\n      POP \t\t\tfor (uint i = 0; i < admins.le...\n      PUSH 0\t\t\tfalse\n      SWAP1 \t\t\treturn false\n      POP \t\t\treturn false\n    tag 363\t\t\tfunction _isAdmin(address _adm...\n      JUMPDEST \t\t\tfunction _isAdmin(address _adm...\n      SWAP2 \t\t\tfunction _isAdmin(address _adm...\n      SWAP1 \t\t\tfunction _isAdmin(address _adm...\n      POP \t\t\tfunction _isAdmin(address _adm...\n      JUMP \t\t\tfunction _isAdmin(address _adm...\n    tag 212\t\t\t\n      JUMPDEST \t\t\t\n      PUSH 0\t\t\t\n      PUSH [tag] 372\t\t\t\n      DUP4 \t\t\t\n      PUSH 0\t\t\t\n      ADD \t\t\t\n      DUP4 \t\t\t\n      PUSH 0\t\t\t\n      SHL \t\t\t\n      PUSH [tag] 373\t\t\t\n      JUMP \t\t\t\n    tag 372\t\t\t\n      JUMPDEST \t\t\t\n      SWAP1 \t\t\t\n      POP \t\t\t\n      SWAP3 \t\t\t\n      SWAP2 \t\t\t\n      POP \t\t\t\n      POP \t\t\t\n      JUMP \t\t\t\n    tag 249\t\t\t\n      JUMPDEST \t\t\t\n      PUSH 0\t\t\t\n      PUSH 20\t\t\t\n      DUP3 \t\t\t\n      MUL \t\t\t\n      PUSH 20\t\t\t\n      DUP5 \t\t\t\n      ADD \t\t\t\n      ADD \t\t\t\n      MLOAD \t\t\t\n      SWAP1 \t\t\t\n      POP \t\t\t\n      SWAP3 \t\t\t\n      SWAP2 \t\t\t\n      POP \t\t\t\n      POP \t\t\t\n      JUMP \t\t\t\n    tag 251\t\t\t\n      JUMPDEST \t\t\t\n      PUSH 0\t\t\t\n      PUSH 20\t\t\t\n      DUP3 \t\t\t\n      MUL \t\t\t\n      PUSH 20\t\t\t\n      DUP5 \t\t\t\n      ADD \t\t\t\n      ADD \t\t\t\n      MLOAD \t\t\t\n      SWAP1 \t\t\t\n      POP \t\t\t\n      SWAP3 \t\t\t\n      SWAP2 \t\t\t\n      POP \t\t\t\n      POP \t\t\t\n      JUMP \t\t\t\n    tag 261\t\t\t\n      JUMPDEST \t\t\t\n      PUSH 0\t\t\t\n      PUSH FFFFFFFFFFFFFFFFFFFFFFFFFFFFFFFFFFFFFFFF\t\t\t\n      AND \t\t\t\n      DUP5 \t\t\t\n      PUSH FFFFFFFFFFFFFFFFFFFFFFFFFFFFFFFFFFFFFFFF\t\t\t\n      AND \t\t\t\n      SUB \t\t\t\n      PUSH [tag] 377\t\t\t\n      JUMPI \t\t\t\n      PUSH 0\t\t\t\n      PUSH 40\t\t\t\n      MLOAD \t\t\t\n      PUSH 57F447CE00000000000000000000000000000000000000000000000000000000\t\t\t\n      DUP2 \t\t\t\n      MSTORE \t\t\t\n      PUSH 4\t\t\t\n      ADD \t\t\t\n      PUSH [tag] 378\t\t\t\n      SWAP2 \t\t\t\n      SWAP1 \t\t\t\n      PUSH [tag] 96\t\t\t\n      JUMP \t\t\t\n    tag 378\t\t\t\n      JUMPDEST \t\t\t\n      PUSH 40\t\t\t\n      MLOAD \t\t\t\n      DUP1 \t\t\t\n      SWAP2 \t\t\t\n      SUB \t\t\t\n      SWAP1 \t\t\t\n      REVERT \t\t\t\n    tag 377\t\t\t\n      JUMPDEST \t\t\t\n      PUSH 0\t\t\t\n      PUSH 0\t\t\t\n      PUSH [tag] 379\t\t\t\n      DUP6 \t\t\t\n      DUP6 \t\t\t\n      PUSH [tag] 380\t\t\t\n      JUMP \t\t\t\n    tag 379\t\t\t\n      JUMPDEST \t\t\t\n      SWAP2 \t\t\t\n      POP \t\t\t\n      SWAP2 \t\t\t\n      POP \t\t\t\n      PUSH [tag] 381\t\t\t\n      PUSH 0\t\t\t\n      DUP8 \t\t\t\n      DUP5 \t\t\t\n      DUP5 \t\t\t\n      DUP8 \t\t\t\n      PUSH [tag] 382\t\t\t\n      JUMP \t\t\t\n    tag 381\t\t\t\n      JUMPDEST \t\t\t\n      POP \t\t\t\n      POP \t\t\t\n      POP \t\t\t\n      POP \t\t\t\n      POP \t\t\t\n      POP \t\t\t\n      JUMP \t\t\t\n    tag 277\t\t\tRequest_address;\\r\\n\\r\\n    //...\n      JUMPDEST \t\t\tRequest_address;\\r\\n\\r\\n    //...\n      PUSH 0\t\t\tteration.\\r\\n    u\n      PUSH 3\t\t\t64[] p\n      PUSH 0\t\t\t64[] p\n      SWAP1 \t\t\t64[] p\n      SLOAD \t\t\t64[] p\n      SWAP1 \t\t\t64[] p\n      PUSH 100\t\t\t64[] p\n      EXP \t\t\t64[] p\n      SWAP1 \t\t\t64[] p\n      DIV \t\t\t64[] p\n      PUSH FFFFFFFFFFFFFFFFFFFFFFFFFFFFFFFFFFFFFFFF\t\t\t64[] p\n      AND \t\t\t64[] p\n      SWAP1 \t\t\tteration.\\r\\n    uint64[] p\n      POP \t\t\tteration.\\r\\n    uint64[] p\n      DUP2 \t\t\tDs;\\r\\n\\r\\n \n      PUSH 3\t\t\tfReque\n      PUSH 0\t\t\tfReque\n      PUSH 100\t\t\tfRequestIDs;\\r\\n\\r\\n \n      EXP \t\t\tfRequestIDs;\\r\\n\\r\\n \n      DUP2 \t\t\tfRequestIDs;\\r\\n\\r\\n \n      SLOAD \t\t\tfRequestIDs;\\r\\n\\r\\n \n      DUP2 \t\t\tfRequestIDs;\\r\\n\\r\\n \n      PUSH FFFFFFFFFFFFFFFFFFFFFFFFFFFFFFFFFFFFFFFF\t\t\tfRequestIDs;\\r\\n\\r\\n \n      MUL \t\t\tfRequestIDs;\\r\\n\\r\\n \n      NOT \t\t\tfRequestIDs;\\r\\n\\r\\n \n      AND \t\t\tfRequestIDs;\\r\\n\\r\\n \n      SWAP1 \t\t\tfRequestIDs;\\r\\n\\r\\n \n      DUP4 \t\t\tfRequestIDs;\\r\\n\\r\\n \n      PUSH FFFFFFFFFFFFFFFFFFFFFFFFFFFFFFFFFFFFFFFF\t\t\tfRequestIDs;\\r\\n\\r\\n \n      AND \t\t\tfRequestIDs;\\r\\n\\r\\n \n      MUL \t\t\tfRequestIDs;\\r\\n\\r\\n \n      OR \t\t\tfRequestIDs;\\r\\n\\r\\n \n      SWAP1 \t\t\tfRequestIDs;\\r\\n\\r\\n \n      SSTORE \t\t\tfRequestIDs;\\r\\n\\r\\n \n      POP \t\t\tfRequestIDs;\\r\\n\\r\\n \n      DUP2 \t\t\tnding pr\n      PUSH FFFFFFFFFFFFFFFFFFFFFFFFFFFFFFFFFFFFFFFF\t\t\t proof request and the corresp...\n      AND \t\t\t proof request and the corresp...\n      DUP2 \t\t\te corres\n      PUSH FFFFFFFFFFFFFFFFFFFFFFFFFFFFFFFFFFFFFFFF\t\t\t proof request and the corresp...\n      AND \t\t\t proof request and the corresp...\n      PUSH 8BE0079C531659141344CD1FD0A4F28419497F9722A3DAAFE3B4186F6B6457E0\t\t\t proof request and the corresp...\n      PUSH 40\t\t\t proof request and the corresp...\n      MLOAD \t\t\t proof request and the corresp...\n      PUSH 40\t\t\t proof request and the corresp...\n      MLOAD \t\t\t proof request and the corresp...\n      DUP1 \t\t\t proof request and the corresp...\n      SWAP2 \t\t\t proof request and the corresp...\n      SUB \t\t\t proof request and the corresp...\n      SWAP1 \t\t\t proof request and the corresp...\n      LOG3 \t\t\t proof request and the corresp...\n      POP \t\t\tonly for iteration.\\r\\n    uin...\n      POP \t\t\tRequest_address;\\r\\n\\r\\n    //...\n      JUMP \t\t\tRequest_address;\\r\\n\\r\\n    //...\n    tag 280\t\t\t\n      JUMPDEST \t\t\t\n      PUSH 60\t\t\t\n      PUSH 0\t\t\t\n      PUSH [tag] 385\t\t\t\n      DUP4 \t\t\t\n      PUSH 0\t\t\t\n      ADD \t\t\t\n      PUSH [tag] 386\t\t\t\n      JUMP \t\t\t\n    tag 385\t\t\t\n      JUMPDEST \t\t\t\n      SWAP1 \t\t\t\n      POP \t\t\t\n      PUSH 60\t\t\t\n      DUP2 \t\t\t\n      SWAP1 \t\t\t\n      POP \t\t\t\n      DUP1 \t\t\t\n      SWAP3 \t\t\t\n      POP \t\t\t\n      POP \t\t\t\n      POP \t\t\t\n      SWAP2 \t\t\t\n      SWAP1 \t\t\t\n      POP \t\t\t\n      JUMP \t\t\t\n    tag 286\t\t\t\n      JUMPDEST \t\t\t\n      PUSH 0\t\t\t\n      PUSH [tag] 388\t\t\t\n      DUP4 \t\t\t\n      PUSH 0\t\t\t\n      ADD \t\t\t\n      DUP4 \t\t\t\n      PUSH 0\t\t\t\n      SHL \t\t\t\n      PUSH [tag] 389\t\t\t\n      JUMP \t\t\t\n    tag 388\t\t\t\n      JUMPDEST \t\t\t\n      SWAP1 \t\t\t\n      POP \t\t\t\n      SWAP3 \t\t\t\n      SWAP2 \t\t\t\n      POP \t\t\t\n      POP \t\t\t\n      JUMP \t\t\t\n    tag 307\t\t\t {\\r\\n    address[] private ad...\n      JUMPDEST \t\t\t {\\r\\n    address[] private ad...\n      PUSH 0\t\t\tnction \n      CALLER \t\t\ty, only ca\n      SWAP1 \t\t\tns array, only ca\n      POP \t\t\tns array, only ca\n      SWAP1 \t\t\t {\\r\\n    address[] private ad...\n      JUMP \t\t\t {\\r\\n    address[] private ad...\n    tag 308\t\t\t\n      JUMPDEST \t\t\t\n      PUSH 0\t\t\t\n      PUSH FFFFFFFFFFFFFFFFFFFFFFFFFFFFFFFFFFFFFFFF\t\t\t\n      AND \t\t\t\n      DUP3 \t\t\t\n      PUSH FFFFFFFFFFFFFFFFFFFFFFFFFFFFFFFFFFFFFFFF\t\t\t\n      AND \t\t\t\n      SUB \t\t\t\n      PUSH [tag] 392\t\t\t\n      JUMPI \t\t\t\n      PUSH 0\t\t\t\n      PUSH 40\t\t\t\n      MLOAD \t\t\t\n      PUSH CED3E10000000000000000000000000000000000000000000000000000000000\t\t\t\n      DUP2 \t\t\t\n      MSTORE \t\t\t\n      PUSH 4\t\t\t\n      ADD \t\t\t\n      PUSH [tag] 393\t\t\t\n      SWAP2 \t\t\t\n      SWAP1 \t\t\t\n      PUSH [tag] 96\t\t\t\n      JUMP \t\t\t\n    tag 393\t\t\t\n      JUMPDEST \t\t\t\n      PUSH 40\t\t\t\n      MLOAD \t\t\t\n      DUP1 \t\t\t\n      SWAP2 \t\t\t\n      SUB \t\t\t\n      SWAP1 \t\t\t\n      REVERT \t\t\t\n    tag 392\t\t\t\n      JUMPDEST \t\t\t\n      DUP1 \t\t\t\n      PUSH 1\t\t\t\n      PUSH 0\t\t\t\n      DUP6 \t\t\t\n      PUSH FFFFFFFFFFFFFFFFFFFFFFFFFFFFFFFFFFFFFFFF\t\t\t\n      AND \t\t\t\n      PUSH FFFFFFFFFFFFFFFFFFFFFFFFFFFFFFFFFFFFFFFF\t\t\t\n      AND \t\t\t\n      DUP2 \t\t\t\n      MSTORE \t\t\t\n      PUSH 20\t\t\t\n      ADD \t\t\t\n      SWAP1 \t\t\t\n      DUP2 \t\t\t\n      MSTORE \t\t\t\n      PUSH 20\t\t\t\n      ADD \t\t\t\n      PUSH 0\t\t\t\n      KECCAK256 \t\t\t\n      PUSH 0\t\t\t\n      DUP5 \t\t\t\n      PUSH FFFFFFFFFFFFFFFFFFFFFFFFFFFFFFFFFFFFFFFF\t\t\t\n      AND \t\t\t\n      PUSH FFFFFFFFFFFFFFFFFFFFFFFFFFFFFFFFFFFFFFFF\t\t\t\n      AND \t\t\t\n      DUP2 \t\t\t\n      MSTORE \t\t\t\n      PUSH 20\t\t\t\n      ADD \t\t\t\n      SWAP1 \t\t\t\n      DUP2 \t\t\t\n      MSTORE \t\t\t\n      PUSH 20\t\t\t\n      ADD \t\t\t\n      PUSH 0\t\t\t\n      KECCAK256 \t\t\t\n      PUSH 0\t\t\t\n      PUSH 100\t\t\t\n      EXP \t\t\t\n      DUP2 \t\t\t\n      SLOAD \t\t\t\n      DUP2 \t\t\t\n      PUSH FF\t\t\t\n      MUL \t\t\t\n      NOT \t\t\t\n      AND \t\t\t\n      SWAP1 \t\t\t\n      DUP4 \t\t\t\n      ISZERO \t\t\t\n      ISZERO \t\t\t\n      MUL \t\t\t\n      OR \t\t\t\n      SWAP1 \t\t\t\n      SSTORE \t\t\t\n      POP \t\t\t\n      DUP2 \t\t\t\n      PUSH FFFFFFFFFFFFFFFFFFFFFFFFFFFFFFFFFFFFFFFF\t\t\t\n      AND \t\t\t\n      DUP4 \t\t\t\n      PUSH FFFFFFFFFFFFFFFFFFFFFFFFFFFFFFFFFFFFFFFF\t\t\t\n      AND \t\t\t\n      PUSH 17307EAB39AB6107E8899845AD3D59BD9653F200F220920489CA2B5937696C31\t\t\t\n      DUP4 \t\t\t\n      PUSH 40\t\t\t\n      MLOAD \t\t\t\n      PUSH [tag] 394\t\t\t\n      SWAP2 \t\t\t\n      SWAP1 \t\t\t\n      PUSH [tag] 45\t\t\t\n      JUMP \t\t\t\n    tag 394\t\t\t\n      JUMPDEST \t\t\t\n      PUSH 40\t\t\t\n      MLOAD \t\t\t\n      DUP1 \t\t\t\n      SWAP2 \t\t\t\n      SUB \t\t\t\n      SWAP1 \t\t\t\n      LOG3 \t\t\t\n      POP \t\t\t\n      POP \t\t\t\n      POP \t\t\t\n      JUMP \t\t\t\n    tag 320\t\t\t\\n    // Delete a proof reques...\n      JUMPDEST \t\t\t\\n    // Delete a proof reques...\n      PUSH 0\t\t\ton deleteProof\n      PUSH [tag] 396\t\t\tuestAndAddre\n      PUSH [tag] 307\t\t\tuestAndAdd\n      JUMP \t\t\tuestAndAddre\n    tag 396\t\t\tuestAndAddre\n      JUMPDEST \t\t\tuestAndAddre\n      SWAP1 \t\t\ton deleteProofRequestAndAddre\n      POP \t\t\ton deleteProofRequestAndAddre\n      DUP1 \t\t\tnt64 r\n      PUSH FFFFFFFFFFFFFFFFFFFFFFFFFFFFFFFFFFFFFFFF\t\t\tenID, uint64 r\n      AND \t\t\tenID, uint64 r\n      DUP7 \t\t\tenID\n      PUSH FFFFFFFFFFFFFFFFFFFFFFFFFFFFFFFFFFFFFFFF\t\t\tenID, uint64 r\n      AND \t\t\tenID, uint64 r\n      EQ \t\t\tenID, uint64 r\n      ISZERO \t\t\tenID, uint64 r\n      DUP1 \t\t\tenID, uint64 requestID) public...\n      ISZERO \t\t\tenID, uint64 requestID) public...\n      PUSH [tag] 397\t\t\tenID, uint64 requestID) public...\n      JUMPI \t\t\tenID, uint64 requestID) public...\n      POP \t\t\tenID, uint64 requestID) public...\n      PUSH [tag] 398\t\t\ttID) public onlyAdmin {\\r\\n   ...\n      DUP7 \t\t\tdmin\n      DUP3 \t\t\t\\r\\n    \n      PUSH [tag] 128\t\t\ttID) public only\n      JUMP \t\t\ttID) public onlyAdmin {\\r\\n   ...\n    tag 398\t\t\ttID) public onlyAdmin {\\r\\n   ...\n      JUMPDEST \t\t\ttID) public onlyAdmin {\\r\\n   ...\n      ISZERO \t\t\tstID) public onlyAdmin {\\r\\n  ...\n    tag 397\t\t\tenID, uint64 requestID) public...\n      JUMPDEST \t\t\tenID, uint64 requestID) public...\n      ISZERO \t\t\t tokenID, uint64 requestID) pu...\n      PUSH [tag] 399\t\t\t tokenID, uint64 requestID) pu...\n      JUMPI \t\t\t tokenID, uint64 requestID) pu...\n      DUP1 \t\t\t does \n      DUP7 \t\t\tt ex\n      PUSH 40\t\t\t.contains(tokenID), \"token id ...\n      MLOAD \t\t\t.contains(tokenID), \"token id ...\n      PUSH E237D92200000000000000000000000000000000000000000000000000000000\t\t\t.contains(tokenID), \"token id ...\n      DUP2 \t\t\t.contains(tokenID), \"token id ...\n      MSTORE \t\t\t.contains(tokenID), \"token id ...\n      PUSH 4\t\t\t.contains(tokenID), \"token id ...\n      ADD \t\t\t.contains(tokenID), \"token id ...\n      PUSH [tag] 400\t\t\t.contains(tokenID), \"token id ...\n      SWAP3 \t\t\t.contains(tokenID), \"token id ...\n      SWAP2 \t\t\t.contains(tokenID), \"token id ...\n      SWAP1 \t\t\t.contains(tokenID), \"token id ...\n      PUSH [tag] 401\t\t\t.contains(tokenID), \"token id ...\n      JUMP \t\t\t.contains(tokenID), \"token id ...\n    tag 400\t\t\t.contains(tokenID), \"token id ...\n      JUMPDEST \t\t\t.contains(tokenID), \"token id ...\n      PUSH 40\t\t\t.contains(tokenID), \"token id ...\n      MLOAD \t\t\t.contains(tokenID), \"token id ...\n      DUP1 \t\t\t.contains(tokenID), \"token id ...\n      SWAP2 \t\t\t.contains(tokenID), \"token id ...\n      SUB \t\t\t.contains(tokenID), \"token id ...\n      SWAP1 \t\t\t.contains(tokenID), \"token id ...\n      REVERT \t\t\t.contains(tokenID), \"token id ...\n    tag 399\t\t\t tokenID, uint64 requestID) pu...\n      JUMPDEST \t\t\t tokenID, uint64 requestID) pu...\n      PUSH [tag] 402\t\t\tre(tokenID_proofRequest_addres...\n      DUP7 \t\t\tques\n      DUP7 \t\t\tad\n      DUP7 \t\t\tes\n      DUP7 \t\t\ttoken\n      DUP7 \t\t\t][re\n      PUSH [tag] 403\t\t\tre(tokenID_proofR\n      JUMP \t\t\tre(tokenID_proofRequest_addres...\n    tag 402\t\t\tre(tokenID_proofRequest_addres...\n      JUMPDEST \t\t\tre(tokenID_proofRequest_addres...\n      POP \t\t\t    function deleteProofReques...\n      POP \t\t\t\\n    // Delete a proof reques...\n      POP \t\t\t\\n    // Delete a proof reques...\n      POP \t\t\t\\n    // Delete a proof reques...\n      POP \t\t\t\\n    // Delete a proof reques...\n      POP \t\t\t\\n    // Delete a proof reques...\n      JUMP \t\t\t\\n    // Delete a proof reques...\n    tag 331\t\t\t\n      JUMPDEST \t\t\t\n      PUSH 0\t\t\t\n      PUSH FFFFFFFFFFFFFFFFFFFFFFFFFFFFFFFFFFFFFFFF\t\t\t\n      AND \t\t\t\n      DUP4 \t\t\t\n      PUSH FFFFFFFFFFFFFFFFFFFFFFFFFFFFFFFFFFFFFFFF\t\t\t\n      AND \t\t\t\n      SUB \t\t\t\n      PUSH [tag] 405\t\t\t\n      JUMPI \t\t\t\n      PUSH 0\t\t\t\n      PUSH 40\t\t\t\n      MLOAD \t\t\t\n      PUSH 1A8351400000000000000000000000000000000000000000000000000000000\t\t\t\n      DUP2 \t\t\t\n      MSTORE \t\t\t\n      PUSH 4\t\t\t\n      ADD \t\t\t\n      PUSH [tag] 406\t\t\t\n      SWAP2 \t\t\t\n      SWAP1 \t\t\t\n      PUSH [tag] 96\t\t\t\n      JUMP \t\t\t\n    tag 406\t\t\t\n      JUMPDEST \t\t\t\n      PUSH 40\t\t\t\n      MLOAD \t\t\t\n      DUP1 \t\t\t\n      SWAP2 \t\t\t\n      SUB \t\t\t\n      SWAP1 \t\t\t\n      REVERT \t\t\t\n    tag 405\t\t\t\n      JUMPDEST \t\t\t\n      PUSH 0\t\t\t\n      PUSH 0\t\t\t\n      PUSH [tag] 407\t\t\t\n      DUP5 \t\t\t\n      DUP5 \t\t\t\n      PUSH [tag] 380\t\t\t\n      JUMP \t\t\t\n    tag 407\t\t\t\n      JUMPDEST \t\t\t\n      SWAP2 \t\t\t\n      POP \t\t\t\n      SWAP2 \t\t\t\n      POP \t\t\t\n      PUSH [tag] 408\t\t\t\n      DUP6 \t\t\t\n      PUSH 0\t\t\t\n      DUP5 \t\t\t\n      DUP5 \t\t\t\n      PUSH 40\t\t\t\n      MLOAD \t\t\t\n      DUP1 \t\t\t\n      PUSH 20\t\t\t\n      ADD \t\t\t\n      PUSH 40\t\t\t\n      MSTORE \t\t\t\n      DUP1 \t\t\t\n      PUSH 0\t\t\t\n      DUP2 \t\t\t\n      MSTORE \t\t\t\n      POP \t\t\t\n      PUSH [tag] 382\t\t\t\n      JUMP \t\t\t\n    tag 408\t\t\t\n      JUMPDEST \t\t\t\n      POP \t\t\t\n      POP \t\t\t\n      POP \t\t\t\n      POP \t\t\t\n      POP \t\t\t\n      JUMP \t\t\t\n    tag 373\t\t\treating new token for new spen...\n      JUMPDEST \t\t\treating new token for new spen...\n      PUSH 0\t\t\taddr\n      PUSH 0\t\t\tl\n      DUP4 \t\t\t ui\n      PUSH 1\t\t\t uint256 amoun\n      ADD \t\t\t uint256 amoun\n      PUSH 0\t\t\t uint256 amount, byte\n      DUP5 \t\t\t, byt\n      DUP2 \t\t\t uint256 amount, byte\n      MSTORE \t\t\t uint256 amount, byte\n      PUSH 20\t\t\t uint256 amount, byte\n      ADD \t\t\t uint256 amount, byte\n      SWAP1 \t\t\t uint256 amount, byte\n      DUP2 \t\t\t uint256 amount, byte\n      MSTORE \t\t\t uint256 amount, byte\n      PUSH 20\t\t\t uint256 amount, byte\n      ADD \t\t\t uint256 amount, byte\n      PUSH 0\t\t\t uint256 amount, byte\n      KECCAK256 \t\t\t uint256 amount, byte\n      SLOAD \t\t\t uint256 amount, byte\n      EQ \t\t\t uint256 amount, bytes cal\n      ISZERO \t\t\t uint256 amount, bytes cal\n      SWAP1 \t\t\t256 ID, uint256 amount, bytes ...\n      POP \t\t\t256 ID, uint256 amount, bytes ...\n      SWAP3 \t\t\treating new token for new spen...\n      SWAP2 \t\t\treating new token for new spen...\n      POP \t\t\treating new token for new spen...\n      POP \t\t\treating new token for new spen...\n      JUMP \t\t\treating new token for new spen...\n    tag 380\t\t\t\n      JUMPDEST \t\t\t\n      PUSH 60\t\t\t\n      DUP1 \t\t\t\n      PUSH 40\t\t\t\n      MLOAD \t\t\t\n      SWAP2 \t\t\t\n      POP \t\t\t\n      PUSH 1\t\t\t\n      DUP3 \t\t\t\n      MSTORE \t\t\t\n      DUP4 \t\t\t\n      PUSH 20\t\t\t\n      DUP4 \t\t\t\n      ADD \t\t\t\n      MSTORE \t\t\t\n      PUSH 40\t\t\t\n      DUP3 \t\t\t\n      ADD \t\t\t\n      SWAP1 \t\t\t\n      POP \t\t\t\n      PUSH 1\t\t\t\n      DUP2 \t\t\t\n      MSTORE \t\t\t\n      DUP3 \t\t\t\n      PUSH 20\t\t\t\n      DUP3 \t\t\t\n      ADD \t\t\t\n      MSTORE \t\t\t\n      PUSH 40\t\t\t\n      DUP2 \t\t\t\n      ADD \t\t\t\n      PUSH 40\t\t\t\n      MSTORE \t\t\t\n      SWAP3 \t\t\t\n      POP \t\t\t\n      SWAP3 \t\t\t\n      SWAP1 \t\t\t\n      POP \t\t\t\n      JUMP \t\t\t\n    tag 382\t\t\t256 tokenID,\\r\\n        uint25...\n      JUMPDEST \t\t\t256 tokenID,\\r\\n        uint25...\n      PUSH [tag] 412\t\t\tionally add any additional cus\n      DUP6 \t\t\tadd \n      DUP6 \t\t\ty \n      DUP6 \t\t\tdit\n      DUP6 \t\t\tnal cu\n      PUSH [tag] 413\t\t\tionally\n      JUMP \t\t\tionally add any additional cus\n    tag 412\t\t\tionally add any additional cus\n      JUMPDEST \t\t\tionally add any additional cus\n      PUSH 0\t\t\tr\n      PUSH FFFFFFFFFFFFFFFFFFFFFFFFFFFFFFFFFFFFFFFF\t\t\t\\r\\n        super.\n      AND \t\t\t\\r\\n        super.\n      DUP5 \t\t\t\\r\\n\n      PUSH FFFFFFFFFFFFFFFFFFFFFFFFFFFFFFFFFFFFFFFF\t\t\t\\r\\n        super.\n      AND \t\t\t\\r\\n        super.\n      EQ \t\t\t\\r\\n        super.\n      PUSH [tag] 414\t\t\there\\r\\n        super.safeTran...\n      JUMPI \t\t\there\\r\\n        super.safeTran...\n      PUSH 0\t\t\t(from, to, token\n      PUSH [tag] 415\t\t\t amount, dat\n      PUSH [tag] 307\t\t\t amount, d\n      JUMP \t\t\t amount, dat\n    tag 415\t\t\t amount, dat\n      JUMPDEST \t\t\t amount, dat\n      SWAP1 \t\t\t(from, to, tokenID, amount, da...\n      POP \t\t\t(from, to, tokenID, amount, da...\n      PUSH 1\t\t\ta\n      DUP5 \t\t\tfun\n      MLOAD \t\t\tfunction s\n      SUB \t\t\tfunction safeBa\n      PUSH [tag] 416\t\t\t    function safeBatchTransfer...\n      JUMPI \t\t\t    function safeBatchTransfer...\n      PUSH 0\t\t\t      addr\n      PUSH [tag] 417\t\t\t from,\\r\\n        address t\n      PUSH 0\t\t\t \n      DUP7 \t\t\t fr\n      PUSH [tag] 251\t\t\t from,\\r\\n        addres\n      SWAP1 \t\t\t from,\\r\\n        addres\n      SWAP2 \t\t\t from,\\r\\n        address t\n      SWAP1 \t\t\t from,\\r\\n        address t\n      PUSH FFFFFFFF\t\t\t from,\\r\\n        address t\n      AND \t\t\t from,\\r\\n        address t\n      JUMP \t\t\t from,\\r\\n        address t\n    tag 417\t\t\t from,\\r\\n        address t\n      JUMPDEST \t\t\t from,\\r\\n        address t\n      SWAP1 \t\t\t      address from,\\r\\n       ...\n      POP \t\t\t      address from,\\r\\n       ...\n      PUSH 0\t\t\t6[] memory to\n      PUSH [tag] 418\t\t\tIDs,\\r\\n        uint256[] memo\n      PUSH 0\t\t\tm\n      DUP7 \t\t\tIDs,\\r\\n\n      PUSH [tag] 251\t\t\tIDs,\\r\\n        uint256[] m\n      SWAP1 \t\t\tIDs,\\r\\n        uint256[] m\n      SWAP2 \t\t\tIDs,\\r\\n        uint256[] memo\n      SWAP1 \t\t\tIDs,\\r\\n        uint256[] memo\n      PUSH FFFFFFFF\t\t\tIDs,\\r\\n        uint256[] memo\n      AND \t\t\tIDs,\\r\\n        uint256[] memo\n      JUMP \t\t\tIDs,\\r\\n        uint256[] memo\n    tag 418\t\t\tIDs,\\r\\n        uint256[] memo\n      JUMPDEST \t\t\tIDs,\\r\\n        uint256[] memo\n      SWAP1 \t\t\t6[] memory tokenIDs,\\r\\n      ...\n      POP \t\t\t6[] memory tokenIDs,\\r\\n      ...\n      PUSH [tag] 419\t\t\t   bytes memory data\\r\\n    ) ...\n      DUP4 \t\t\tirtual o\n      DUP10 \t\t\trrid\n      DUP10 \t\t\t{\\r\n      DUP6 \t\t\t  \n      DUP6 \t\t\t   re\n      DUP10 \t\t\tire(\n      PUSH [tag] 420\t\t\t   bytes memory data\\r\\n    ) ...\n      JUMP \t\t\t   bytes memory data\\r\\n    ) ...\n    tag 419\t\t\t   bytes memory data\\r\\n    ) ...\n      JUMPDEST \t\t\t   bytes memory data\\r\\n    ) ...\n      POP \t\t\thTransferFrom(\\r\\n        addr...\n      POP \t\t\thTransferFrom(\\r\\n        addr...\n      PUSH [tag] 421\t\t\t    function safeBatchTransfer...\n      JUMP \t\t\t    function safeBatchTransfer...\n    tag 416\t\t\t    function safeBatchTransfer...\n      JUMPDEST \t\t\t    function safeBatchTransfer...\n      PUSH [tag] 422\t\t\t155: Mismatched array lengths\"...\n      DUP2 \t\t\t require\n      DUP8 \t\t\to !=\n      DUP8 \t\t\tdd\n      DUP8 \t\t\tss(\n      DUP8 \t\t\t, \"ERC\n      DUP8 \t\t\t55: \n      PUSH [tag] 423\t\t\t155: Mismatched array lengths\"...\n      JUMP \t\t\t155: Mismatched array lengths\"...\n    tag 422\t\t\t155: Mismatched array lengths\"...\n      JUMPDEST \t\t\t155: Mismatched array lengths\"...\n    tag 421\t\t\t    function safeBatchTransfer...\n      JUMPDEST \t\t\t    function safeBatchTransfer...\n      POP \t\t\tfeTransferFrom(from, to, token...\n    tag 414\t\t\there\\r\\n        super.safeTran...\n      JUMPDEST \t\t\there\\r\\n        super.safeTran...\n      POP \t\t\t256 tokenID,\\r\\n        uint25...\n      POP \t\t\t256 tokenID,\\r\\n        uint25...\n      POP \t\t\t256 tokenID,\\r\\n        uint25...\n      POP \t\t\t256 tokenID,\\r\\n        uint25...\n      POP \t\t\t256 tokenID,\\r\\n        uint25...\n      JUMP \t\t\t256 tokenID,\\r\\n        uint25...\n    tag 386\t\t\temory array (tempRequestIDs) t...\n      JUMPDEST \t\t\temory array (tempRequestIDs) t...\n      PUSH 60\t\t\t64[] memory temp\n      DUP2 \t\t\tequ\n      PUSH 0\t\t\tequestIDs;\\r\n      ADD \t\t\tequestIDs;\\r\n      DUP1 \t\t\t proofRequestIDs;\\r\n      SLOAD \t\t\t proofRequestIDs;\\r\n      DUP1 \t\t\t proofRequestIDs;\\r\n      PUSH 20\t\t\t proofRequestIDs;\\r\n      MUL \t\t\t proofRequestIDs;\\r\n      PUSH 20\t\t\t proofRequestIDs;\\r\n      ADD \t\t\t proofRequestIDs;\\r\n      PUSH 40\t\t\t proofRequestIDs;\\r\n      MLOAD \t\t\t proofRequestIDs;\\r\n      SWAP1 \t\t\t proofRequestIDs;\\r\n      DUP2 \t\t\t proofRequestIDs;\\r\n      ADD \t\t\t proofRequestIDs;\\r\n      PUSH 40\t\t\t proofRequestIDs;\\r\n      MSTORE \t\t\t proofRequestIDs;\\r\n      DUP1 \t\t\t proofRequestIDs;\\r\n      SWAP3 \t\t\t proofRequestIDs;\\r\n      SWAP2 \t\t\t proofRequestIDs;\\r\n      SWAP1 \t\t\t proofRequestIDs;\\r\n      DUP2 \t\t\t proofRequestIDs;\\r\n      DUP2 \t\t\t proofRequestIDs;\\r\n      MSTORE \t\t\t proofRequestIDs;\\r\n      PUSH 20\t\t\t proofRequestIDs;\\r\n      ADD \t\t\t proofRequestIDs;\\r\n      DUP3 \t\t\t proofRequestIDs;\\r\n      DUP1 \t\t\t proofRequestIDs;\\r\n      SLOAD \t\t\t proofRequestIDs;\\r\n      DUP1 \t\t\t proofRequestIDs;\\r\n      ISZERO \t\t\t proofRequestIDs;\\r\n      PUSH [tag] 425\t\t\t proofRequestIDs;\\r\n      JUMPI \t\t\t proofRequestIDs;\\r\n      PUSH 20\t\t\t proofRequestIDs;\\r\n      MUL \t\t\t proofRequestIDs;\\r\n      DUP3 \t\t\t proofRequestIDs;\\r\n      ADD \t\t\t proofRequestIDs;\\r\n      SWAP2 \t\t\t proofRequestIDs;\\r\n      SWAP1 \t\t\t proofRequestIDs;\\r\n      PUSH 0\t\t\t proofRequestIDs;\\r\n      MSTORE \t\t\t proofRequestIDs;\\r\n      PUSH 20\t\t\t proofRequestIDs;\\r\n      PUSH 0\t\t\t proofRequestIDs;\\r\n      KECCAK256 \t\t\t proofRequestIDs;\\r\n      SWAP1 \t\t\t proofRequestIDs;\\r\n    tag 426\t\t\t proofRequestIDs;\\r\n      JUMPDEST \t\t\t proofRequestIDs;\\r\n      DUP2 \t\t\t proofRequestIDs;\\r\n      SLOAD \t\t\t proofRequestIDs;\\r\n      DUP2 \t\t\t proofRequestIDs;\\r\n      MSTORE \t\t\t proofRequestIDs;\\r\n      PUSH 20\t\t\t proofRequestIDs;\\r\n      ADD \t\t\t proofRequestIDs;\\r\n      SWAP1 \t\t\t proofRequestIDs;\\r\n      PUSH 1\t\t\t proofRequestIDs;\\r\n      ADD \t\t\t proofRequestIDs;\\r\n      SWAP1 \t\t\t proofRequestIDs;\\r\n      DUP1 \t\t\t proofRequestIDs;\\r\n      DUP4 \t\t\t proofRequestIDs;\\r\n      GT \t\t\t proofRequestIDs;\\r\n      PUSH [tag] 426\t\t\t proofRequestIDs;\\r\n      JUMPI \t\t\t proofRequestIDs;\\r\n    tag 425\t\t\t proofRequestIDs;\\r\n      JUMPDEST \t\t\t proofRequestIDs;\\r\n      POP \t\t\t proofRequestIDs;\\r\n      POP \t\t\t proofRequestIDs;\\r\n      POP \t\t\t proofRequestIDs;\\r\n      POP \t\t\t proofRequestIDs;\\r\n      POP \t\t\t proofRequestIDs;\\r\n      SWAP1 \t\t\t proofRequestIDs;\\r\n      POP \t\t\t proofRequestIDs;\\r\n      SWAP2 \t\t\temory array (tempRequestIDs) t...\n      SWAP1 \t\t\temory array (tempRequestIDs) t...\n      POP \t\t\temory array (tempRequestIDs) t...\n      JUMP \t\t\temory array (tempRequestIDs) t...\n    tag 389\t\t\tion allTokenIDs() external vie...\n      JUMPDEST \t\t\tion allTokenIDs() external vie...\n      PUSH 0\t\t\t    \n      PUSH [tag] 428\t\t\tenIDs.values();\\r\\n    \n      DUP4 \t\t\tes(\n      DUP4 \t\t\t\\r\\n   \n      PUSH [tag] 373\t\t\tenIDs.val\n      JUMP \t\t\tenIDs.values();\\r\\n    \n    tag 428\t\t\tenIDs.values();\\r\\n    \n      JUMPDEST \t\t\tenIDs.values();\\r\\n    \n      PUSH [tag] 429\t\t\tllTokenIDs.values();\\r\\n    }\\...\n      JUMPI \t\t\tllTokenIDs.values();\\r\\n    }\\...\n      DUP3 \t\t\ting\n      PUSH 0\t\t\ting from to\n      ADD \t\t\ting from to\n      DUP3 \t\t\t to i\n      SWAP1 \t\t\ting from token ID to it\n      DUP1 \t\t\ting from token ID to it\n      PUSH 1\t\t\ting from token ID to it\n      DUP2 \t\t\ting from token ID to it\n      SLOAD \t\t\ting from token ID to it\n      ADD \t\t\ting from token ID to it\n      DUP1 \t\t\ting from token ID to it\n      DUP3 \t\t\ting from token ID to it\n      SSTORE \t\t\ting from token ID to it\n      DUP1 \t\t\ting from token ID to it\n      SWAP2 \t\t\ting from token ID to it\n      POP \t\t\ting from token ID to it\n      POP \t\t\ting from token ID to it\n      PUSH 1\t\t\ting from token ID to it\n      SWAP1 \t\t\ting from token ID to it\n      SUB \t\t\ting from token ID to it\n      SWAP1 \t\t\ting from token ID to it\n      PUSH 0\t\t\ting from token ID to it\n      MSTORE \t\t\ting from token ID to it\n      PUSH 20\t\t\ting from token ID to it\n      PUSH 0\t\t\ting from token ID to it\n      KECCAK256 \t\t\ting from token ID to it\n      ADD \t\t\ting from token ID to it\n      PUSH 0\t\t\ting from token ID to it\n      SWAP1 \t\t\ting from token ID to it\n      SWAP2 \t\t\ting from token ID to it\n      SWAP1 \t\t\ting from token ID to it\n      SWAP2 \t\t\ting from token ID to it\n      SWAP1 \t\t\ting from token ID to it\n      SWAP2 \t\t\ting from token ID to it\n      POP \t\t\ting from token ID to it\n      SSTORE \t\t\ting from token ID to it\n      DUP3 \t\t\t_re\n      PUSH 0\t\t\t_request_id\n      ADD \t\t\t_request_id\n      DUP1 \t\t\t_request_id to a w\n      SLOAD \t\t\t_request_id to a w\n      SWAP1 \t\t\t_request_id to a w\n      POP \t\t\t_request_id to a w\n      DUP4 \t\t\tng \n      PUSH 1\t\t\tng from tokenI\n      ADD \t\t\tng from tokenI\n      PUSH 0\t\t\tng from tokenID to pr\n      DUP5 \t\t\t to p\n      DUP2 \t\t\tng from tokenID to pr\n      MSTORE \t\t\tng from tokenID to pr\n      PUSH 20\t\t\tng from tokenID to pr\n      ADD \t\t\tng from tokenID to pr\n      SWAP1 \t\t\tng from tokenID to pr\n      DUP2 \t\t\tng from tokenID to pr\n      MSTORE \t\t\tng from tokenID to pr\n      PUSH 20\t\t\tng from tokenID to pr\n      ADD \t\t\tng from tokenID to pr\n      PUSH 0\t\t\tng from tokenID to pr\n      KECCAK256 \t\t\tng from tokenID to pr\n      DUP2 \t\t\tng from tokenID to proof_reque...\n      SWAP1 \t\t\tng from tokenID to proof_reque...\n      SSTORE \t\t\tng from tokenID to proof_reque...\n      POP \t\t\tng from tokenID to proof_reque...\n      PUSH 1\t\t\tover\n      SWAP1 \t\t\t(the prover\n      POP \t\t\t(the prover\n      PUSH [tag] 427\t\t\t(the prover\n      JUMP \t\t\t(the prover\n    tag 429\t\t\tllTokenIDs.values();\\r\\n    }\\...\n      JUMPDEST \t\t\tllTokenIDs.values();\\r\\n    }\\...\n      PUSH 0\t\t\teques\n      SWAP1 \t\t\t(proofReques\n      POP \t\t\t(proofReques\n    tag 427\t\t\tion allTokenIDs() external vie...\n      JUMPDEST \t\t\tion allTokenIDs() external vie...\n      SWAP3 \t\t\tion allTokenIDs() external vie...\n      SWAP2 \t\t\tion allTokenIDs() external vie...\n      POP \t\t\tion allTokenIDs() external vie...\n      POP \t\t\tion allTokenIDs() external vie...\n      JUMP \t\t\tion allTokenIDs() external vie...\n    tag 403\t\t\t\n      JUMPDEST \t\t\t\n      PUSH 0\t\t\t\n      PUSH FFFFFFFFFFFFFFFFFFFFFFFFFFFFFFFFFFFFFFFF\t\t\t\n      AND \t\t\t\n      DUP5 \t\t\t\n      PUSH FFFFFFFFFFFFFFFFFFFFFFFFFFFFFFFFFFFFFFFF\t\t\t\n      AND \t\t\t\n      SUB \t\t\t\n      PUSH [tag] 433\t\t\t\n      JUMPI \t\t\t\n      PUSH 0\t\t\t\n      PUSH 40\t\t\t\n      MLOAD \t\t\t\n      PUSH 57F447CE00000000000000000000000000000000000000000000000000000000\t\t\t\n      DUP2 \t\t\t\n      MSTORE \t\t\t\n      PUSH 4\t\t\t\n      ADD \t\t\t\n      PUSH [tag] 434\t\t\t\n      SWAP2 \t\t\t\n      SWAP1 \t\t\t\n      PUSH [tag] 96\t\t\t\n      JUMP \t\t\t\n    tag 434\t\t\t\n      JUMPDEST \t\t\t\n      PUSH 40\t\t\t\n      MLOAD \t\t\t\n      DUP1 \t\t\t\n      SWAP2 \t\t\t\n      SUB \t\t\t\n      SWAP1 \t\t\t\n      REVERT \t\t\t\n    tag 433\t\t\t\n      JUMPDEST \t\t\t\n      PUSH 0\t\t\t\n      PUSH FFFFFFFFFFFFFFFFFFFFFFFFFFFFFFFFFFFFFFFF\t\t\t\n      AND \t\t\t\n      DUP6 \t\t\t\n      PUSH FFFFFFFFFFFFFFFFFFFFFFFFFFFFFFFFFFFFFFFF\t\t\t\n      AND \t\t\t\n      SUB \t\t\t\n      PUSH [tag] 435\t\t\t\n      JUMPI \t\t\t\n      PUSH 0\t\t\t\n      PUSH 40\t\t\t\n      MLOAD \t\t\t\n      PUSH 1A8351400000000000000000000000000000000000000000000000000000000\t\t\t\n      DUP2 \t\t\t\n      MSTORE \t\t\t\n      PUSH 4\t\t\t\n      ADD \t\t\t\n      PUSH [tag] 436\t\t\t\n      SWAP2 \t\t\t\n      SWAP1 \t\t\t\n      PUSH [tag] 96\t\t\t\n      JUMP \t\t\t\n    tag 436\t\t\t\n      JUMPDEST \t\t\t\n      PUSH 40\t\t\t\n      MLOAD \t\t\t\n      DUP1 \t\t\t\n      SWAP2 \t\t\t\n      SUB \t\t\t\n      SWAP1 \t\t\t\n      REVERT \t\t\t\n    tag 435\t\t\t\n      JUMPDEST \t\t\t\n      PUSH 0\t\t\t\n      PUSH 0\t\t\t\n      PUSH [tag] 437\t\t\t\n      DUP6 \t\t\t\n      DUP6 \t\t\t\n      PUSH [tag] 380\t\t\t\n      JUMP \t\t\t\n    tag 437\t\t\t\n      JUMPDEST \t\t\t\n      SWAP2 \t\t\t\n      POP \t\t\t\n      SWAP2 \t\t\t\n      POP \t\t\t\n      PUSH [tag] 438\t\t\t\n      DUP8 \t\t\t\n      DUP8 \t\t\t\n      DUP5 \t\t\t\n      DUP5 \t\t\t\n      DUP8 \t\t\t\n      PUSH [tag] 382\t\t\t\n      JUMP \t\t\t\n    tag 438\t\t\t\n      JUMPDEST \t\t\t\n      POP \t\t\t\n      POP \t\t\t\n      POP \t\t\t\n      POP \t\t\t\n      POP \t\t\t\n      POP \t\t\t\n      POP \t\t\t\n      JUMP \t\t\t\n    tag 413\t\t\turns false, the token id has b...\n      JUMPDEST \t\t\turns false, the token id has b...\n      DUP1 \t\t\t\\n\\r\\n   \n      MLOAD \t\t\t\\n\\r\\n        _m\n      DUP3 \t\t\t);\\r\n      MLOAD \t\t\t);\\r\\n      \n      EQ \t\t\t);\\r\\n        }\\r\\n\\r\\n       ...\n      PUSH [tag] 440\t\t\tn(ID);\\r\\n        }\\r\\n\\r\\n   ...\n      JUMPI \t\t\tn(ID);\\r\\n        }\\r\\n\\r\\n   ...\n      DUP2 \t\t\tame\n      MLOAD \t\t\tame to the\n      DUP2 \t\t\tew tok\n      MLOAD \t\t\tew token\\r\\n   \n      PUSH 40\t\t\ta);\\r\\n        // assign a nam...\n      MLOAD \t\t\ta);\\r\\n        // assign a nam...\n      PUSH 5B05999100000000000000000000000000000000000000000000000000000000\t\t\ta);\\r\\n        // assign a nam...\n      DUP2 \t\t\ta);\\r\\n        // assign a nam...\n      MSTORE \t\t\ta);\\r\\n        // assign a nam...\n      PUSH 4\t\t\ta);\\r\\n        // assign a nam...\n      ADD \t\t\ta);\\r\\n        // assign a nam...\n      PUSH [tag] 441\t\t\ta);\\r\\n        // assign a nam...\n      SWAP3 \t\t\ta);\\r\\n        // assign a nam...\n      SWAP2 \t\t\ta);\\r\\n        // assign a nam...\n      SWAP1 \t\t\ta);\\r\\n        // assign a nam...\n      PUSH [tag] 239\t\t\ta);\\r\\n        // assign a nam...\n      JUMP \t\t\ta);\\r\\n        // assign a nam...\n    tag 441\t\t\ta);\\r\\n        // assign a nam...\n      JUMPDEST \t\t\ta);\\r\\n        // assign a nam...\n      PUSH 40\t\t\ta);\\r\\n        // assign a nam...\n      MLOAD \t\t\ta);\\r\\n        // assign a nam...\n      DUP1 \t\t\ta);\\r\\n        // assign a nam...\n      SWAP2 \t\t\ta);\\r\\n        // assign a nam...\n      SUB \t\t\ta);\\r\\n        // assign a nam...\n      SWAP1 \t\t\ta);\\r\\n        // assign a nam...\n      REVERT \t\t\ta);\\r\\n        // assign a nam...\n    tag 440\t\t\tn(ID);\\r\\n        }\\r\\n\\r\\n   ...\n      JUMPDEST \t\t\tn(ID);\\r\\n        }\\r\\n\\r\\n   ...\n      PUSH 0\t\t\tame;\\r\\n    }\\r\\n   \n      PUSH [tag] 442\t\t\t    // Rever\n      PUSH [tag] 307\t\t\t    // Rev\n      JUMP \t\t\t    // Rever\n    tag 442\t\t\t    // Rever\n      JUMPDEST \t\t\t    // Rever\n      SWAP1 \t\t\tame;\\r\\n    }\\r\\n    \\r\\n    /...\n      POP \t\t\tame;\\r\\n    }\\r\\n    \\r\\n    /...\n      PUSH 0\t\t\totFound i\n      PUSH 0\t\t\th\n      SWAP1 \t\t\totFound if th\n      POP \t\t\totFound if th\n    tag 443\t\t\tenIDNotFound if the ID hasn’t ...\n      JUMPDEST \t\t\tenIDNotFound if the ID hasn’t ...\n      DUP4 \t\t\tasn\n      MLOAD \t\t\tasn’t been\n      DUP2 \t\t\tI\n      LT \t\t\tID hasn’t been\n      ISZERO \t\t\tenIDNotFound if the ID hasn’t ...\n      PUSH [tag] 444\t\t\tenIDNotFound if the ID hasn’t ...\n      JUMPI \t\t\tenIDNotFound if the ID hasn’t ...\n      PUSH 0\t\t\t error Tok\n      PUSH [tag] 446\t\t\tDNotFound(uint256 tokenID\n      DUP3 \t\t\tI\n      DUP7 \t\t\tDNo\n      PUSH [tag] 251\t\t\tDNotFound(uint256 toke\n      SWAP1 \t\t\tDNotFound(uint256 toke\n      SWAP2 \t\t\tDNotFound(uint256 tokenID\n      SWAP1 \t\t\tDNotFound(uint256 tokenID\n      PUSH FFFFFFFF\t\t\tDNotFound(uint256 tokenID\n      AND \t\t\tDNotFound(uint256 tokenID\n      JUMP \t\t\tDNotFound(uint256 tokenID\n    tag 446\t\t\tDNotFound(uint256 tokenID\n      JUMPDEST \t\t\tDNotFound(uint256 tokenID\n      SWAP1 \t\t\t error TokenIDNotFound(uint256...\n      POP \t\t\t error TokenIDNotFound(uint256...\n      PUSH 0\t\t\ttion mintExis\n      PUSH [tag] 447\t\t\tgToken(address to, uint256 I\n      DUP4 \t\t\t \n      DUP7 \t\t\tgToken\n      PUSH [tag] 251\t\t\tgToken(address to, uint25\n      SWAP1 \t\t\tgToken(address to, uint25\n      SWAP2 \t\t\tgToken(address to, uint256 I\n      SWAP1 \t\t\tgToken(address to, uint256 I\n      PUSH FFFFFFFF\t\t\tgToken(address to, uint256 I\n      AND \t\t\tgToken(address to, uint256 I\n      JUMP \t\t\tgToken(address to, uint256 I\n    tag 447\t\t\tgToken(address to, uint256 I\n      JUMPDEST \t\t\tgToken(address to, uint256 I\n      SWAP1 \t\t\ttion mintExistingToken(address...\n      POP \t\t\ttion mintExistingToken(address...\n      PUSH 0\t\t\ta\n      PUSH FFFFFFFFFFFFFFFFFFFFFFFFFFFFFFFFFFFFFFFF\t\t\tbytes calldata dat\n      AND \t\t\tbytes calldata dat\n      DUP9 \t\t\tbyte\n      PUSH FFFFFFFFFFFFFFFFFFFFFFFFFFFFFFFFFFFFFFFF\t\t\tbytes calldata dat\n      AND \t\t\tbytes calldata dat\n      EQ \t\t\tbytes calldata dat\n      PUSH [tag] 448\t\t\tnt, bytes calldata data) exter...\n      JUMPI \t\t\tnt, bytes calldata data) exter...\n      PUSH 0\t\t\tr {\\r\\n        if (!_\n      PUSH 0\t\t\tTokenIDs.\n      PUSH 0\t\t\tTokenIDs.cont\n      DUP5 \t\t\ton\n      DUP2 \t\t\tTokenIDs.cont\n      MSTORE \t\t\tTokenIDs.cont\n      PUSH 20\t\t\tTokenIDs.cont\n      ADD \t\t\tTokenIDs.cont\n      SWAP1 \t\t\tTokenIDs.cont\n      DUP2 \t\t\tTokenIDs.cont\n      MSTORE \t\t\tTokenIDs.cont\n      PUSH 20\t\t\tTokenIDs.cont\n      ADD \t\t\tTokenIDs.cont\n      PUSH 0\t\t\tTokenIDs.cont\n      KECCAK256 \t\t\tTokenIDs.cont\n      PUSH 0\t\t\tTokenIDs.contains(I\n      DUP11 \t\t\tins(\n      PUSH FFFFFFFFFFFFFFFFFFFFFFFFFFFFFFFFFFFFFFFF\t\t\tTokenIDs.contains(I\n      AND \t\t\tTokenIDs.contains(I\n      PUSH FFFFFFFFFFFFFFFFFFFFFFFFFFFFFFFFFFFFFFFF\t\t\tTokenIDs.contains(I\n      AND \t\t\tTokenIDs.contains(I\n      DUP2 \t\t\tTokenIDs.contains(I\n      MSTORE \t\t\tTokenIDs.contains(I\n      PUSH 20\t\t\tTokenIDs.contains(I\n      ADD \t\t\tTokenIDs.contains(I\n      SWAP1 \t\t\tTokenIDs.contains(I\n      DUP2 \t\t\tTokenIDs.contains(I\n      MSTORE \t\t\tTokenIDs.contains(I\n      PUSH 20\t\t\tTokenIDs.contains(I\n      ADD \t\t\tTokenIDs.contains(I\n      PUSH 0\t\t\tTokenIDs.contains(I\n      KECCAK256 \t\t\tTokenIDs.contains(I\n      SLOAD \t\t\tTokenIDs.contains(I\n      SWAP1 \t\t\tr {\\r\\n        if (!_allTokenI...\n      POP \t\t\tr {\\r\\n        if (!_allTokenI...\n      DUP2 \t\t\td(ID)\n      DUP2 \t\t\tTokenIDNotF\n      LT \t\t\tTokenIDNotFound(ID)\n      ISZERO \t\t\tert TokenIDNotFound(ID);\\r\\n  ...\n      PUSH [tag] 449\t\t\tert TokenIDNotFound(ID);\\r\\n  ...\n      JUMPI \t\t\tert TokenIDNotFound(ID);\\r\\n  ...\n      DUP9 \t\t\t   f\n      DUP2 \t\t\tction burn(\n      DUP4 \t\t\tdress\n      DUP6 \t\t\tcc\n      PUSH 40\t\t\t amount, data);\\r\\n    }\\r\\n\\r...\n      MLOAD \t\t\t amount, data);\\r\\n    }\\r\\n\\r...\n      PUSH 3DEE4C500000000000000000000000000000000000000000000000000000000\t\t\t amount, data);\\r\\n    }\\r\\n\\r...\n      DUP2 \t\t\t amount, data);\\r\\n    }\\r\\n\\r...\n      MSTORE \t\t\t amount, data);\\r\\n    }\\r\\n\\r...\n      PUSH 4\t\t\t amount, data);\\r\\n    }\\r\\n\\r...\n      ADD \t\t\t amount, data);\\r\\n    }\\r\\n\\r...\n      PUSH [tag] 450\t\t\t amount, data);\\r\\n    }\\r\\n\\r...\n      SWAP5 \t\t\t amount, data);\\r\\n    }\\r\\n\\r...\n      SWAP4 \t\t\t amount, data);\\r\\n    }\\r\\n\\r...\n      SWAP3 \t\t\t amount, data);\\r\\n    }\\r\\n\\r...\n      SWAP2 \t\t\t amount, data);\\r\\n    }\\r\\n\\r...\n      SWAP1 \t\t\t amount, data);\\r\\n    }\\r\\n\\r...\n      PUSH [tag] 451\t\t\t amount, data);\\r\\n    }\\r\\n\\r...\n      JUMP \t\t\t amount, data);\\r\\n    }\\r\\n\\r...\n    tag 450\t\t\t amount, data);\\r\\n    }\\r\\n\\r...\n      JUMPDEST \t\t\t amount, data);\\r\\n    }\\r\\n\\r...\n      PUSH 40\t\t\t amount, data);\\r\\n    }\\r\\n\\r...\n      MLOAD \t\t\t amount, data);\\r\\n    }\\r\\n\\r...\n      DUP1 \t\t\t amount, data);\\r\\n    }\\r\\n\\r...\n      SWAP2 \t\t\t amount, data);\\r\\n    }\\r\\n\\r...\n      SUB \t\t\t amount, data);\\r\\n    }\\r\\n\\r...\n      SWAP1 \t\t\t amount, data);\\r\\n    }\\r\\n\\r...\n      REVERT \t\t\t amount, data);\\r\\n    }\\r\\n\\r...\n    tag 449\t\t\tert TokenIDNotFound(ID);\\r\\n  ...\n      JUMPDEST \t\t\tert TokenIDNotFound(ID);\\r\\n  ...\n      DUP2 \t\t\tuestI\n      DUP2 \t\t\tied(uint64 \n      SUB \t\t\tied(uint64 requestI\n      PUSH 0\t\t\t   error \n      PUSH 0\t\t\t   error Proo\n      DUP6 \t\t\tro\n      DUP2 \t\t\t   error Proo\n      MSTORE \t\t\t   error Proo\n      PUSH 20\t\t\t   error Proo\n      ADD \t\t\t   error Proo\n      SWAP1 \t\t\t   error Proo\n      DUP2 \t\t\t   error Proo\n      MSTORE \t\t\t   error Proo\n      PUSH 20\t\t\t   error Proo\n      ADD \t\t\t   error Proo\n      PUSH 0\t\t\t   error Proo\n      KECCAK256 \t\t\t   error Proo\n      PUSH 0\t\t\t   error ProofNotVe\n      DUP12 \t\t\tNotV\n      PUSH FFFFFFFFFFFFFFFFFFFFFFFFFFFFFFFFFFFFFFFF\t\t\t   error ProofNotVe\n      AND \t\t\t   error ProofNotVe\n      PUSH FFFFFFFFFFFFFFFFFFFFFFFFFFFFFFFFFFFFFFFF\t\t\t   error ProofNotVe\n      AND \t\t\t   error ProofNotVe\n      DUP2 \t\t\t   error ProofNotVe\n      MSTORE \t\t\t   error ProofNotVe\n      PUSH 20\t\t\t   error ProofNotVe\n      ADD \t\t\t   error ProofNotVe\n      SWAP1 \t\t\t   error ProofNotVe\n      DUP2 \t\t\t   error ProofNotVe\n      MSTORE \t\t\t   error ProofNotVe\n      PUSH 20\t\t\t   error ProofNotVe\n      ADD \t\t\t   error ProofNotVe\n      PUSH 0\t\t\t   error ProofNotVe\n      KECCAK256 \t\t\t   error ProofNotVe\n      DUP2 \t\t\t   error ProofNotVerified(uint...\n      SWAP1 \t\t\t   error ProofNotVerified(uint...\n      SSTORE \t\t\t   error ProofNotVerified(uint...\n      POP \t\t\t   error ProofNotVerified(uint...\n      POP \t\t\t external onlyOwner {\\r\\n     ...\n    tag 448\t\t\tnt, bytes calldata data) exter...\n      JUMPDEST \t\t\tnt, bytes calldata data) exter...\n      PUSH 0\t\t\tv\n      PUSH FFFFFFFFFFFFFFFFFFFFFFFFFFFFFFFFFFFFFFFF\t\t\tnal helper: reve\n      AND \t\t\tnal helper: reve\n      DUP8 \t\t\tna\n      PUSH FFFFFFFFFFFFFFFFFFFFFFFFFFFFFFFFFFFFFFFF\t\t\tnal helper: reve\n      AND \t\t\tnal helper: reve\n      EQ \t\t\tnal helper: reve\n      PUSH [tag] 452\t\t\tnternal helper: revert if any ...\n      JUMPI \t\t\tnternal helper: revert if any ...\n      DUP1 \t\t\trifie\n      PUSH 0\t\t\ttokenID i\n      PUSH 0\t\t\ttokenID is st\n      DUP5 \t\t\t s\n      DUP2 \t\t\ttokenID is st\n      MSTORE \t\t\ttokenID is st\n      PUSH 20\t\t\ttokenID is st\n      ADD \t\t\ttokenID is st\n      SWAP1 \t\t\ttokenID is st\n      DUP2 \t\t\ttokenID is st\n      MSTORE \t\t\ttokenID is st\n      PUSH 20\t\t\ttokenID is st\n      ADD \t\t\ttokenID is st\n      PUSH 0\t\t\ttokenID is st\n      KECCAK256 \t\t\ttokenID is st\n      PUSH 0\t\t\ttokenID is still \n      DUP10 \t\t\tll\n      PUSH FFFFFFFFFFFFFFFFFFFFFFFFFFFFFFFFFFFFFFFF\t\t\ttokenID is still \n      AND \t\t\ttokenID is still \n      PUSH FFFFFFFFFFFFFFFFFFFFFFFFFFFFFFFFFFFFFFFF\t\t\ttokenID is still \n      AND \t\t\ttokenID is still \n      DUP2 \t\t\ttokenID is still \n      MSTORE \t\t\ttokenID is still \n      PUSH 20\t\t\ttokenID is still \n      ADD \t\t\ttokenID is still \n      SWAP1 \t\t\ttokenID is still \n      DUP2 \t\t\ttokenID is still \n      MSTORE \t\t\ttokenID is still \n      PUSH 20\t\t\ttokenID is still \n      ADD \t\t\ttokenID is still \n      PUSH 0\t\t\ttokenID is still \n      KECCAK256 \t\t\ttokenID is still \n      PUSH 0\t\t\ttokenID is still \n      DUP3 \t\t\ttokenID is still unverifie\n      DUP3 \t\t\ttokenID is still unverifie\n      SLOAD \t\t\ttokenID is still unverifie\n      PUSH [tag] 453\t\t\ttokenID is still unverifie\n      SWAP2 \t\t\ttokenID is still unverifie\n      SWAP1 \t\t\ttokenID is still unverifie\n      PUSH [tag] 454\t\t\ttokenID is still unverifie\n      JUMP \t\t\ttokenID is still unverifie\n    tag 453\t\t\ttokenID is still unverifie\n      JUMPDEST \t\t\ttokenID is still unverifie\n      SWAP3 \t\t\ttokenID is still unverifie\n      POP \t\t\ttokenID is still unverifie\n      POP \t\t\ttokenID is still unverifie\n      DUP2 \t\t\ttokenID is still unverifie\n      SWAP1 \t\t\ttokenID is still unverifie\n      SSTORE \t\t\ttokenID is still unverifie\n      POP \t\t\ttokenID is still unverifie\n    tag 452\t\t\tnternal helper: revert if any ...\n      JUMPDEST \t\t\tnternal helper: revert if any ...\n      POP \t\t\tered yet.\\r\\n    error TokenID...\n      POP \t\t\tered yet.\\r\\n    error TokenID...\n      DUP1 \t\t\tegi\n      PUSH 1\t\t\tegi\n      ADD \t\t\tegi\n      SWAP1 \t\t\tegi\n      POP \t\t\tegi\n      PUSH [tag] 443\t\t\tenIDNotFound if the ID hasn’t ...\n      JUMP \t\t\tenIDNotFound if the ID hasn’t ...\n    tag 444\t\t\tenIDNotFound if the ID hasn’t ...\n      JUMPDEST \t\t\tenIDNotFound if the ID hasn’t ...\n      POP \t\t\tenIDNotFound if the ID hasn’t ...\n      PUSH 1\t\t\ti\n      DUP4 \t\t\ter.\n      MLOAD \t\t\ter.\\r\\n    f\n      SUB \t\t\ter.\\r\\n    functi\n      PUSH [tag] 455\t\t\tansfer.\\r\\n    function _check...\n      JUMPI \t\t\tansfer.\\r\\n    function _check...\n      PUSH 0\t\t\tfsVerified\n      PUSH [tag] 456\t\t\tnt256 tokenID) internal v\n      PUSH 0\t\t\t \n      DUP6 \t\t\tnt2\n      PUSH [tag] 251\t\t\tnt256 tokenID) interna\n      SWAP1 \t\t\tnt256 tokenID) interna\n      SWAP2 \t\t\tnt256 tokenID) internal v\n      SWAP1 \t\t\tnt256 tokenID) internal v\n      PUSH FFFFFFFF\t\t\tnt256 tokenID) internal v\n      AND \t\t\tnt256 tokenID) internal v\n      JUMP \t\t\tnt256 tokenID) internal v\n    tag 456\t\t\tnt256 tokenID) internal v\n      JUMPDEST \t\t\tnt256 tokenID) internal v\n      SWAP1 \t\t\tfsVerified(uint256 tokenID) in...\n      POP \t\t\tfsVerified(uint256 tokenID) in...\n      PUSH 0\t\t\t/ iterate mem\n      PUSH [tag] 457\t\t\t array (tempRequestIDs) to s\n      PUSH 0\t\t\t \n      DUP6 \t\t\t array\n      PUSH [tag] 251\t\t\t array (tempRequestIDs) t\n      SWAP1 \t\t\t array (tempRequestIDs) t\n      SWAP2 \t\t\t array (tempRequestIDs) to s\n      SWAP1 \t\t\t array (tempRequestIDs) to s\n      PUSH FFFFFFFF\t\t\t array (tempRequestIDs) to s\n      AND \t\t\t array (tempRequestIDs) to s\n      JUMP \t\t\t array (tempRequestIDs) to s\n    tag 457\t\t\t array (tempRequestIDs) to s\n      JUMPDEST \t\t\t array (tempRequestIDs) to s\n      SWAP1 \t\t\t/ iterate memory array (tempRe...\n      POP \t\t\t/ iterate memory array (tempRe...\n      DUP6 \t\t\t= \n      PUSH FFFFFFFFFFFFFFFFFFFFFFFFFFFFFFFFFFFFFFFF\t\t\tuint64[] memory tempRequestIDs...\n      AND \t\t\tuint64[] memory tempRequestIDs...\n      DUP8 \t\t\tstID\n      PUSH FFFFFFFFFFFFFFFFFFFFFFFFFFFFFFFFFFFFFFFF\t\t\tuint64[] memory tempRequestIDs...\n      AND \t\t\tuint64[] memory tempRequestIDs...\n      DUP5 \t\t\t tempReq\n      PUSH FFFFFFFFFFFFFFFFFFFFFFFFFFFFFFFFFFFFFFFF\t\t\tuint64[] memory tempRequestIDs...\n      AND \t\t\tuint64[] memory tempRequestIDs...\n      PUSH C3D58168C5AE7397731D063D5BBF3D657854427343F4C083240F7AACAA2D0F62\t\t\tuint64[] memory tempRequestIDs...\n      DUP6 \t\t\too\n      DUP6 \t\t\teques\n      PUSH 40\t\t\tuint64[] memory tempRequestIDs...\n      MLOAD \t\t\tuint64[] memory tempRequestIDs...\n      PUSH [tag] 458\t\t\tuint64[] memory tempRequestIDs...\n      SWAP3 \t\t\tuint64[] memory tempRequestIDs...\n      SWAP2 \t\t\tuint64[] memory tempRequestIDs...\n      SWAP1 \t\t\tuint64[] memory tempRequestIDs...\n      PUSH [tag] 239\t\t\tuint64[] memory tempRequestIDs...\n      JUMP \t\t\tuint64[] memory tempRequestIDs...\n    tag 458\t\t\tuint64[] memory tempRequestIDs...\n      JUMPDEST \t\t\tuint64[] memory tempRequestIDs...\n      PUSH 40\t\t\tuint64[] memory tempRequestIDs...\n      MLOAD \t\t\tuint64[] memory tempRequestIDs...\n      DUP1 \t\t\tuint64[] memory tempRequestIDs...\n      SWAP2 \t\t\tuint64[] memory tempRequestIDs...\n      SUB \t\t\tuint64[] memory tempRequestIDs...\n      SWAP1 \t\t\tuint64[] memory tempRequestIDs...\n      LOG4 \t\t\tuint64[] memory tempRequestIDs...\n      POP \t\t\t _checkAllProofsVerified(uint2...\n      POP \t\t\t _checkAllProofsVerified(uint2...\n      PUSH [tag] 459\t\t\tansfer.\\r\\n    function _check...\n      JUMP \t\t\tansfer.\\r\\n    function _check...\n    tag 455\t\t\tansfer.\\r\\n    function _check...\n      JUMPDEST \t\t\tansfer.\\r\\n    function _check...\n      DUP4 \t\t\t\\n \n      PUSH FFFFFFFFFFFFFFFFFFFFFFFFFFFFFFFFFFFFFFFF\t\t\ttempRequestIDs.length; i++) {\\...\n      AND \t\t\ttempRequestIDs.length; i++) {\\...\n      DUP6 \t\t\t++) \n      PUSH FFFFFFFFFFFFFFFFFFFFFFFFFFFFFFFFFFFFFFFF\t\t\ttempRequestIDs.length; i++) {\\...\n      AND \t\t\ttempRequestIDs.length; i++) {\\...\n      DUP3 \t\t\t.length;\n      PUSH FFFFFFFFFFFFFFFFFFFFFFFFFFFFFFFFFFFFFFFF\t\t\ttempRequestIDs.length; i++) {\\...\n      AND \t\t\ttempRequestIDs.length; i++) {\\...\n      PUSH 4A39DC06D4C0DBC64B70AF90FD698A233A518AA5D07E595D983B8C0526C8F7FB\t\t\ttempRequestIDs.length; i++) {\\...\n      DUP7 \t\t\t   \n      DUP7 \t\t\t  // R\n      PUSH 40\t\t\ttempRequestIDs.length; i++) {\\...\n      MLOAD \t\t\ttempRequestIDs.length; i++) {\\...\n      PUSH [tag] 460\t\t\ttempRequestIDs.length; i++) {\\...\n      SWAP3 \t\t\ttempRequestIDs.length; i++) {\\...\n      SWAP2 \t\t\ttempRequestIDs.length; i++) {\\...\n      SWAP1 \t\t\ttempRequestIDs.length; i++) {\\...\n      PUSH [tag] 461\t\t\ttempRequestIDs.length; i++) {\\...\n      JUMP \t\t\ttempRequestIDs.length; i++) {\\...\n    tag 460\t\t\ttempRequestIDs.length; i++) {\\...\n      JUMPDEST \t\t\ttempRequestIDs.length; i++) {\\...\n      PUSH 40\t\t\ttempRequestIDs.length; i++) {\\...\n      MLOAD \t\t\ttempRequestIDs.length; i++) {\\...\n      DUP1 \t\t\ttempRequestIDs.length; i++) {\\...\n      SWAP2 \t\t\ttempRequestIDs.length; i++) {\\...\n      SUB \t\t\ttempRequestIDs.length; i++) {\\...\n      SWAP1 \t\t\ttempRequestIDs.length; i++) {\\...\n      LOG4 \t\t\ttempRequestIDs.length; i++) {\\...\n    tag 459\t\t\tansfer.\\r\\n    function _check...\n      JUMPDEST \t\t\tansfer.\\r\\n    function _check...\n      POP \t\t\tokenIDTaken(ID);\\r\\n        }\\...\n      POP \t\t\turns false, the token id has b...\n      POP \t\t\turns false, the token id has b...\n      POP \t\t\turns false, the token id has b...\n      POP \t\t\turns false, the token id has b...\n      JUMP \t\t\turns false, the token id has b...\n    tag 420\t\t\treturns (bool) {\\r\\n        fo...\n      JUMPDEST \t\t\treturns (bool) {\\r\\n        fo...\n      PUSH 0\t\t\t \n      DUP5 \t\t\t  \n      PUSH FFFFFFFFFFFFFFFFFFFFFFFFFFFFFFFFFFFFFFFF\t\t\t   // Function\n      AND \t\t\t   // Function\n      EXTCODESIZE \t\t\t   // Function\n      GT \t\t\t   // Function to \n      ISZERO \t\t\t\\n\\r\\n    // Function to add a...\n      PUSH [tag] 463\t\t\t\\n\\r\\n    // Function to add a...\n      JUMPI \t\t\t\\n\\r\\n    // Function to add a...\n      DUP4 \t\t\tca\n      PUSH FFFFFFFFFFFFFFFFFFFFFFFFFFFFFFFFFFFFFFFF\t\t\t. Only the owner can add.\\r\\n ...\n      AND \t\t\t. Only the owner can add.\\r\\n ...\n      PUSH F23A6E61\t\t\t. Only the owner can add.\\r\\n ...\n      DUP8 \t\t\t addAdmi\n      DUP8 \t\t\taddr\n      DUP7 \t\t\ts \n      DUP7 \t\t\tdmin)\n      DUP7 \t\t\tubli\n      PUSH 40\t\t\t. Only the owner can add.\\r\\n ...\n      MLOAD \t\t\t. Only the owner can add.\\r\\n ...\n      DUP7 \t\t\t. Only the owner can add.\\r\\n ...\n      PUSH FFFFFFFF\t\t\t. Only the owner can add.\\r\\n ...\n      AND \t\t\t. Only the owner can add.\\r\\n ...\n      PUSH E0\t\t\t. Only the owner can add.\\r\\n ...\n      SHL \t\t\t. Only the owner can add.\\r\\n ...\n      DUP2 \t\t\t. Only the owner can add.\\r\\n ...\n      MSTORE \t\t\t. Only the owner can add.\\r\\n ...\n      PUSH 4\t\t\t. Only the owner can add.\\r\\n ...\n      ADD \t\t\t. Only the owner can add.\\r\\n ...\n      PUSH [tag] 464\t\t\t. Only the owner can add.\\r\\n ...\n      SWAP6 \t\t\t. Only the owner can add.\\r\\n ...\n      SWAP5 \t\t\t. Only the owner can add.\\r\\n ...\n      SWAP4 \t\t\t. Only the owner can add.\\r\\n ...\n      SWAP3 \t\t\t. Only the owner can add.\\r\\n ...\n      SWAP2 \t\t\t. Only the owner can add.\\r\\n ...\n      SWAP1 \t\t\t. Only the owner can add.\\r\\n ...\n      PUSH [tag] 465\t\t\t. Only the owner can add.\\r\\n ...\n      JUMP \t\t\t. Only the owner can add.\\r\\n ...\n    tag 464\t\t\t. Only the owner can add.\\r\\n ...\n      JUMPDEST \t\t\t. Only the owner can add.\\r\\n ...\n      PUSH 20\t\t\t. Only the owner can add.\\r\\n ...\n      PUSH 40\t\t\t. Only the owner can add.\\r\\n ...\n      MLOAD \t\t\t. Only the owner can add.\\r\\n ...\n      DUP1 \t\t\t. Only the owner can add.\\r\\n ...\n      DUP4 \t\t\t. Only the owner can add.\\r\\n ...\n      SUB \t\t\t. Only the owner can add.\\r\\n ...\n      DUP2 \t\t\t. Only the owner can add.\\r\\n ...\n      PUSH 0\t\t\t. Only the owner can add.\\r\\n ...\n      DUP8 \t\t\t. Only the owner can add.\\r\\n ...\n      GAS \t\t\t. Only the owner can add.\\r\\n ...\n      CALL \t\t\t. Only the owner can add.\\r\\n ...\n      SWAP3 \t\t\t. Only the owner can add.\\r\\n ...\n      POP \t\t\t. Only the owner can add.\\r\\n ...\n      POP \t\t\t. Only the owner can add.\\r\\n ...\n      POP \t\t\t. Only the owner can add.\\r\\n ...\n      DUP1 \t\t\t. Only the owner can add.\\r\\n ...\n      ISZERO \t\t\t. Only the owner can add.\\r\\n ...\n      PUSH [tag] 466\t\t\t. Only the owner can add.\\r\\n ...\n      JUMPI \t\t\t. Only the owner can add.\\r\\n ...\n      POP \t\t\t. Only the owner can add.\\r\\n ...\n      PUSH 40\t\t\t. Only the owner can add.\\r\\n ...\n      MLOAD \t\t\t. Only the owner can add.\\r\\n ...\n      RETURNDATASIZE \t\t\t. Only the owner can add.\\r\\n ...\n      PUSH 1F\t\t\t. Only the owner can add.\\r\\n ...\n      NOT \t\t\t. Only the owner can add.\\r\\n ...\n      PUSH 1F\t\t\t. Only the owner can add.\\r\\n ...\n      DUP3 \t\t\t. Only the owner can add.\\r\\n ...\n      ADD \t\t\t. Only the owner can add.\\r\\n ...\n      AND \t\t\t. Only the owner can add.\\r\\n ...\n      DUP3 \t\t\t. Only the owner can add.\\r\\n ...\n      ADD \t\t\t. Only the owner can add.\\r\\n ...\n      DUP1 \t\t\t. Only the owner can add.\\r\\n ...\n      PUSH 40\t\t\t. Only the owner can add.\\r\\n ...\n      MSTORE \t\t\t. Only the owner can add.\\r\\n ...\n      POP \t\t\t. Only the owner can add.\\r\\n ...\n      DUP2 \t\t\t. Only the owner can add.\\r\\n ...\n      ADD \t\t\t. Only the owner can add.\\r\\n ...\n      SWAP1 \t\t\t. Only the owner can add.\\r\\n ...\n      PUSH [tag] 467\t\t\t. Only the owner can add.\\r\\n ...\n      SWAP2 \t\t\t. Only the owner can add.\\r\\n ...\n      SWAP1 \t\t\t. Only the owner can add.\\r\\n ...\n      PUSH [tag] 468\t\t\t. Only the owner can add.\\r\\n ...\n      JUMP \t\t\t. Only the owner can add.\\r\\n ...\n    tag 467\t\t\t. Only the owner can add.\\r\\n ...\n      JUMPDEST \t\t\t. Only the owner can add.\\r\\n ...\n      PUSH 1\t\t\t. Only the owner can add.\\r\\n ...\n    tag 466\t\t\t. Only the owner can add.\\r\\n ...\n      JUMPDEST \t\t\t. Only the owner can add.\\r\\n ...\n      PUSH [tag] 469\t\t\tress. Only the owner can add.\\...\n      JUMPI \t\t\tress. Only the owner can add.\\...\n      RETURNDATASIZE \t\t\tress. Only the owner can add.\\...\n      DUP1 \t\t\tress. Only the owner can add.\\...\n      PUSH 0\t\t\tress. Only the owner can add.\\...\n      DUP2 \t\t\tress. Only the owner can add.\\...\n      EQ \t\t\tress. Only the owner can add.\\...\n      PUSH [tag] 474\t\t\tress. Only the owner can add.\\...\n      JUMPI \t\t\tress. Only the owner can add.\\...\n      PUSH 40\t\t\tress. Only the owner can add.\\...\n      MLOAD \t\t\tress. Only the owner can add.\\...\n      SWAP2 \t\t\tress. Only the owner can add.\\...\n      POP \t\t\tress. Only the owner can add.\\...\n      PUSH 1F\t\t\tress. Only the owner can add.\\...\n      NOT \t\t\tress. Only the owner can add.\\...\n      PUSH 3F\t\t\tress. Only the owner can add.\\...\n      RETURNDATASIZE \t\t\tress. Only the owner can add.\\...\n      ADD \t\t\tress. Only the owner can add.\\...\n      AND \t\t\tress. Only the owner can add.\\...\n      DUP3 \t\t\tress. Only the owner can add.\\...\n      ADD \t\t\tress. Only the owner can add.\\...\n      PUSH 40\t\t\tress. Only the owner can add.\\...\n      MSTORE \t\t\tress. Only the owner can add.\\...\n      RETURNDATASIZE \t\t\tress. Only the owner can add.\\...\n      DUP3 \t\t\tress. Only the owner can add.\\...\n      MSTORE \t\t\tress. Only the owner can add.\\...\n      RETURNDATASIZE \t\t\tress. Only the owner can add.\\...\n      PUSH 0\t\t\tress. Only the owner can add.\\...\n      PUSH 20\t\t\tress. Only the owner can add.\\...\n      DUP5 \t\t\tress. Only the owner can add.\\...\n      ADD \t\t\tress. Only the owner can add.\\...\n      RETURNDATACOPY \t\t\tress. Only the owner can add.\\...\n      PUSH [tag] 473\t\t\tress. Only the owner can add.\\...\n      JUMP \t\t\tress. Only the owner can add.\\...\n    tag 474\t\t\tress. Only the owner can add.\\...\n      JUMPDEST \t\t\tress. Only the owner can add.\\...\n      PUSH 60\t\t\tress. Only the owner can add.\\...\n      SWAP2 \t\t\tress. Only the owner can add.\\...\n      POP \t\t\tress. Only the owner can add.\\...\n    tag 473\t\t\tress. Only the owner can add.\\...\n      JUMPDEST \t\t\tress. Only the owner can add.\\...\n      POP \t\t\tress. Only the owner can add.\\...\n      PUSH 0\t\t\t \n      DUP2 \t\t\t onlyO\n      MLOAD \t\t\t onlyOwner {\\r\n      SUB \t\t\t onlyOwner {\\r\\n    \n      PUSH [tag] 475\t\t\tblic onlyOwner {\\r\\n        ui...\n      JUMPI \t\t\tblic onlyOwner {\\r\\n        ui...\n      DUP5 \t\t\t  \n      PUSH 40\t\t\t (admins[i] == _admin) {\\r\\n  ...\n      MLOAD \t\t\t (admins[i] == _admin) {\\r\\n  ...\n      PUSH 57F447CE00000000000000000000000000000000000000000000000000000000\t\t\t (admins[i] == _admin) {\\r\\n  ...\n      DUP2 \t\t\t (admins[i] == _admin) {\\r\\n  ...\n      MSTORE \t\t\t (admins[i] == _admin) {\\r\\n  ...\n      PUSH 4\t\t\t (admins[i] == _admin) {\\r\\n  ...\n      ADD \t\t\t (admins[i] == _admin) {\\r\\n  ...\n      PUSH [tag] 476\t\t\t (admins[i] == _admin) {\\r\\n  ...\n      SWAP2 \t\t\t (admins[i] == _admin) {\\r\\n  ...\n      SWAP1 \t\t\t (admins[i] == _admin) {\\r\\n  ...\n      PUSH [tag] 96\t\t\t (admins[i] == _admin) {\\r\\n  ...\n      JUMP \t\t\t (admins[i] == _admin) {\\r\\n  ...\n    tag 476\t\t\t (admins[i] == _admin) {\\r\\n  ...\n      JUMPDEST \t\t\t (admins[i] == _admin) {\\r\\n  ...\n      PUSH 40\t\t\t (admins[i] == _admin) {\\r\\n  ...\n      MLOAD \t\t\t (admins[i] == _admin) {\\r\\n  ...\n      DUP1 \t\t\t (admins[i] == _admin) {\\r\\n  ...\n      SWAP2 \t\t\t (admins[i] == _admin) {\\r\\n  ...\n      SUB \t\t\t (admins[i] == _admin) {\\r\\n  ...\n      SWAP1 \t\t\t (admins[i] == _admin) {\\r\\n  ...\n      REVERT \t\t\t (admins[i] == _admin) {\\r\\n  ...\n    tag 475\t\t\tblic onlyOwner {\\r\\n        ui...\n      JUMPDEST \t\t\tblic onlyOwner {\\r\\n        ui...\n      DUP1 \t\t\t\"Admin\n      MLOAD \t\t\tevert(\"Admin \n      DUP2 \t\t\t      \n      PUSH 20\t\t\t }\n      ADD \t\t\t     }\\r\\n       \n      REVERT \t\t\t }\\r\\n        }\\r\\n        rev...\n    tag 469\t\t\tress. Only the owner can add.\\...\n      JUMPDEST \t\t\tress. Only the owner can add.\\...\n      PUSH F23A6E61\t\t\taddress\");\\r\\n        require(...\n      PUSH E0\t\t\taddress\");\\r\\n        require(...\n      SHL \t\t\taddress\");\\r\\n        require(...\n      PUSH FFFFFFFFFFFFFFFFFFFFFFFFFFFFFFFFFFFFFFFFFFFFFFFFFFFFFFFF\t\t\t), \"Invalid address\");\\r\\n    ...\n      NOT \t\t\t), \"Invalid address\");\\r\\n    ...\n      AND \t\t\t), \"Invalid address\");\\r\\n    ...\n      DUP2 \t\t\t), \"Inva\n      PUSH FFFFFFFFFFFFFFFFFFFFFFFFFFFFFFFFFFFFFFFFFFFFFFFFFFFFFFFF\t\t\t), \"Invalid address\");\\r\\n    ...\n      NOT \t\t\t), \"Invalid address\");\\r\\n    ...\n      AND \t\t\t), \"Invalid address\");\\r\\n    ...\n      EQ \t\t\t), \"Invalid address\");\\r\\n    ...\n      PUSH [tag] 479\t\t\tss(0), \"Invalid address\");\\r\\n...\n      JUMPI \t\t\tss(0), \"Invalid address\");\\r\\n...\n      DUP5 \t\t\tin\n      PUSH 40\t\t\t }\\r\\n\\r\\n    // Function to r...\n      MLOAD \t\t\t }\\r\\n\\r\\n    // Function to r...\n      PUSH 57F447CE00000000000000000000000000000000000000000000000000000000\t\t\t }\\r\\n\\r\\n    // Function to r...\n      DUP2 \t\t\t }\\r\\n\\r\\n    // Function to r...\n      MSTORE \t\t\t }\\r\\n\\r\\n    // Function to r...\n      PUSH 4\t\t\t }\\r\\n\\r\\n    // Function to r...\n      ADD \t\t\t }\\r\\n\\r\\n    // Function to r...\n      PUSH [tag] 480\t\t\t }\\r\\n\\r\\n    // Function to r...\n      SWAP2 \t\t\t }\\r\\n\\r\\n    // Function to r...\n      SWAP1 \t\t\t }\\r\\n\\r\\n    // Function to r...\n      PUSH [tag] 96\t\t\t }\\r\\n\\r\\n    // Function to r...\n      JUMP \t\t\t }\\r\\n\\r\\n    // Function to r...\n    tag 480\t\t\t }\\r\\n\\r\\n    // Function to r...\n      JUMPDEST \t\t\t }\\r\\n\\r\\n    // Function to r...\n      PUSH 40\t\t\t }\\r\\n\\r\\n    // Function to r...\n      MLOAD \t\t\t }\\r\\n\\r\\n    // Function to r...\n      DUP1 \t\t\t }\\r\\n\\r\\n    // Function to r...\n      SWAP2 \t\t\t }\\r\\n\\r\\n    // Function to r...\n      SUB \t\t\t }\\r\\n\\r\\n    // Function to r...\n      SWAP1 \t\t\t }\\r\\n\\r\\n    // Function to r...\n      REVERT \t\t\t }\\r\\n\\r\\n    // Function to r...\n    tag 479\t\t\tss(0), \"Invalid address\");\\r\\n...\n      JUMPDEST \t\t\tss(0), \"Invalid address\");\\r\\n...\n      POP \t\t\tonlyOwner {\\r\\n        require...\n    tag 463\t\t\t\\n\\r\\n    // Function to add a...\n      JUMPDEST \t\t\t\\n\\r\\n    // Function to add a...\n      POP \t\t\treturns (bool) {\\r\\n        fo...\n      POP \t\t\treturns (bool) {\\r\\n        fo...\n      POP \t\t\treturns (bool) {\\r\\n        fo...\n      POP \t\t\treturns (bool) {\\r\\n        fo...\n      POP \t\t\treturns (bool) {\\r\\n        fo...\n      POP \t\t\treturns (bool) {\\r\\n        fo...\n      JUMP \t\t\treturns (bool) {\\r\\n        fo...\n    tag 423\t\t\te and other attributes can be ...\n      JUMPDEST \t\t\te and other attributes can be ...\n      PUSH 0\t\t\t\\r\n      DUP5 \t\t\t→ \n      PUSH FFFFFFFFFFFFFFFFFFFFFFFFFFFFFFFFFFFFFFFF\t\t\t→ prover addre\n      AND \t\t\t→ prover addre\n      EXTCODESIZE \t\t\t→ prover addre\n      GT \t\t\t→ prover address)\\r\n      ISZERO \t\t\ttID → prover address)\\r\\n    /...\n      PUSH [tag] 482\t\t\ttID → prover address)\\r\\n    /...\n      JUMPI \t\t\ttID → prover address)\\r\\n    /...\n      DUP4 \t\t\tke\n      PUSH FFFFFFFFFFFFFFFFFFFFFFFFFFFFFFFFFFFFFFFF\t\t\towner can be a token sender, a...\n      AND \t\t\towner can be a token sender, a...\n      PUSH BC197C81\t\t\towner can be a token sender, a...\n      DUP8 \t\t\tr or any\n      DUP8 \t\t\third\n      DUP7 \t\t\tart\n      DUP7 \t\t\tprover\n      DUP7 \t\t\t\\n   \n      PUSH 40\t\t\towner can be a token sender, a...\n      MLOAD \t\t\towner can be a token sender, a...\n      DUP7 \t\t\towner can be a token sender, a...\n      PUSH FFFFFFFF\t\t\towner can be a token sender, a...\n      AND \t\t\towner can be a token sender, a...\n      PUSH E0\t\t\towner can be a token sender, a...\n      SHL \t\t\towner can be a token sender, a...\n      DUP2 \t\t\towner can be a token sender, a...\n      MSTORE \t\t\towner can be a token sender, a...\n      PUSH 4\t\t\towner can be a token sender, a...\n      ADD \t\t\towner can be a token sender, a...\n      PUSH [tag] 483\t\t\towner can be a token sender, a...\n      SWAP6 \t\t\towner can be a token sender, a...\n      SWAP5 \t\t\towner can be a token sender, a...\n      SWAP4 \t\t\towner can be a token sender, a...\n      SWAP3 \t\t\towner can be a token sender, a...\n      SWAP2 \t\t\towner can be a token sender, a...\n      SWAP1 \t\t\towner can be a token sender, a...\n      PUSH [tag] 484\t\t\towner can be a token sender, a...\n      JUMP \t\t\towner can be a token sender, a...\n    tag 483\t\t\towner can be a token sender, a...\n      JUMPDEST \t\t\towner can be a token sender, a...\n      PUSH 20\t\t\towner can be a token sender, a...\n      PUSH 40\t\t\towner can be a token sender, a...\n      MLOAD \t\t\towner can be a token sender, a...\n      DUP1 \t\t\towner can be a token sender, a...\n      DUP4 \t\t\towner can be a token sender, a...\n      SUB \t\t\towner can be a token sender, a...\n      DUP2 \t\t\towner can be a token sender, a...\n      PUSH 0\t\t\towner can be a token sender, a...\n      DUP8 \t\t\towner can be a token sender, a...\n      GAS \t\t\towner can be a token sender, a...\n      CALL \t\t\towner can be a token sender, a...\n      SWAP3 \t\t\towner can be a token sender, a...\n      POP \t\t\towner can be a token sender, a...\n      POP \t\t\towner can be a token sender, a...\n      POP \t\t\towner can be a token sender, a...\n      DUP1 \t\t\towner can be a token sender, a...\n      ISZERO \t\t\towner can be a token sender, a...\n      PUSH [tag] 485\t\t\towner can be a token sender, a...\n      JUMPI \t\t\towner can be a token sender, a...\n      POP \t\t\towner can be a token sender, a...\n      PUSH 40\t\t\towner can be a token sender, a...\n      MLOAD \t\t\towner can be a token sender, a...\n      RETURNDATASIZE \t\t\towner can be a token sender, a...\n      PUSH 1F\t\t\towner can be a token sender, a...\n      NOT \t\t\towner can be a token sender, a...\n      PUSH 1F\t\t\towner can be a token sender, a...\n      DUP3 \t\t\towner can be a token sender, a...\n      ADD \t\t\towner can be a token sender, a...\n      AND \t\t\towner can be a token sender, a...\n      DUP3 \t\t\towner can be a token sender, a...\n      ADD \t\t\towner can be a token sender, a...\n      DUP1 \t\t\towner can be a token sender, a...\n      PUSH 40\t\t\towner can be a token sender, a...\n      MSTORE \t\t\towner can be a token sender, a...\n      POP \t\t\towner can be a token sender, a...\n      DUP2 \t\t\towner can be a token sender, a...\n      ADD \t\t\towner can be a token sender, a...\n      SWAP1 \t\t\towner can be a token sender, a...\n      PUSH [tag] 486\t\t\towner can be a token sender, a...\n      SWAP2 \t\t\towner can be a token sender, a...\n      SWAP1 \t\t\towner can be a token sender, a...\n      PUSH [tag] 468\t\t\towner can be a token sender, a...\n      JUMP \t\t\towner can be a token sender, a...\n    tag 486\t\t\towner can be a token sender, a...\n      JUMPDEST \t\t\towner can be a token sender, a...\n      PUSH 1\t\t\towner can be a token sender, a...\n    tag 485\t\t\towner can be a token sender, a...\n      JUMPDEST \t\t\towner can be a token sender, a...\n      PUSH [tag] 487\t\t\tess owner can be a token sende...\n      JUMPI \t\t\tess owner can be a token sende...\n      RETURNDATASIZE \t\t\tess owner can be a token sende...\n      DUP1 \t\t\tess owner can be a token sende...\n      PUSH 0\t\t\tess owner can be a token sende...\n      DUP2 \t\t\tess owner can be a token sende...\n      EQ \t\t\tess owner can be a token sende...\n      PUSH [tag] 492\t\t\tess owner can be a token sende...\n      JUMPI \t\t\tess owner can be a token sende...\n      PUSH 40\t\t\tess owner can be a token sende...\n      MLOAD \t\t\tess owner can be a token sende...\n      SWAP2 \t\t\tess owner can be a token sende...\n      POP \t\t\tess owner can be a token sende...\n      PUSH 1F\t\t\tess owner can be a token sende...\n      NOT \t\t\tess owner can be a token sende...\n      PUSH 3F\t\t\tess owner can be a token sende...\n      RETURNDATASIZE \t\t\tess owner can be a token sende...\n      ADD \t\t\tess owner can be a token sende...\n      AND \t\t\tess owner can be a token sende...\n      DUP3 \t\t\tess owner can be a token sende...\n      ADD \t\t\tess owner can be a token sende...\n      PUSH 40\t\t\tess owner can be a token sende...\n      MSTORE \t\t\tess owner can be a token sende...\n      RETURNDATASIZE \t\t\tess owner can be a token sende...\n      DUP3 \t\t\tess owner can be a token sende...\n      MSTORE \t\t\tess owner can be a token sende...\n      RETURNDATASIZE \t\t\tess owner can be a token sende...\n      PUSH 0\t\t\tess owner can be a token sende...\n      PUSH 20\t\t\tess owner can be a token sende...\n      DUP5 \t\t\tess owner can be a token sende...\n      ADD \t\t\tess owner can be a token sende...\n      RETURNDATACOPY \t\t\tess owner can be a token sende...\n      PUSH [tag] 491\t\t\tess owner can be a token sende...\n      JUMP \t\t\tess owner can be a token sende...\n    tag 492\t\t\tess owner can be a token sende...\n      JUMPDEST \t\t\tess owner can be a token sende...\n      PUSH 60\t\t\tess owner can be a token sende...\n      SWAP2 \t\t\tess owner can be a token sende...\n      POP \t\t\tess owner can be a token sende...\n    tag 491\t\t\tess owner can be a token sende...\n      JUMPDEST \t\t\tess owner can be a token sende...\n      POP \t\t\tess owner can be a token sende...\n      PUSH 0\t\t\td\n      DUP2 \t\t\taddPro\n      MLOAD \t\t\taddProofReque\n      SUB \t\t\taddProofRequestAnd\n      PUSH [tag] 493\t\t\tion addProofRequestAndAddress(...\n      JUMPI \t\t\tion addProofRequestAndAddress(...\n      DUP5 \t\t\t, \n      PUSH 40\t\t\trequire(_allTokenIDs.contains(...\n      MLOAD \t\t\trequire(_allTokenIDs.contains(...\n      PUSH 57F447CE00000000000000000000000000000000000000000000000000000000\t\t\trequire(_allTokenIDs.contains(...\n      DUP2 \t\t\trequire(_allTokenIDs.contains(...\n      MSTORE \t\t\trequire(_allTokenIDs.contains(...\n      PUSH 4\t\t\trequire(_allTokenIDs.contains(...\n      ADD \t\t\trequire(_allTokenIDs.contains(...\n      PUSH [tag] 494\t\t\trequire(_allTokenIDs.contains(...\n      SWAP2 \t\t\trequire(_allTokenIDs.contains(...\n      SWAP1 \t\t\trequire(_allTokenIDs.contains(...\n      PUSH [tag] 96\t\t\trequire(_allTokenIDs.contains(...\n      JUMP \t\t\trequire(_allTokenIDs.contains(...\n    tag 494\t\t\trequire(_allTokenIDs.contains(...\n      JUMPDEST \t\t\trequire(_allTokenIDs.contains(...\n      PUSH 40\t\t\trequire(_allTokenIDs.contains(...\n      MLOAD \t\t\trequire(_allTokenIDs.contains(...\n      DUP1 \t\t\trequire(_allTokenIDs.contains(...\n      SWAP2 \t\t\trequire(_allTokenIDs.contains(...\n      SUB \t\t\trequire(_allTokenIDs.contains(...\n      SWAP1 \t\t\trequire(_allTokenIDs.contains(...\n      REVERT \t\t\trequire(_allTokenIDs.contains(...\n    tag 493\t\t\tion addProofRequestAndAddress(...\n      JUMPDEST \t\t\tion addProofRequestAndAddress(...\n      DUP1 \t\t\tdy exi\n      MLOAD \t\t\t already exis\n      DUP2 \t\t\tf requ\n      PUSH 20\t\t\tPr\n      ADD \t\t\t), \"Proof reque\n      REVERT \t\t\tdress(0), \"Proof request alrea...\n    tag 487\t\t\tess owner can be a token sende...\n      JUMPDEST \t\t\tess owner can be a token sende...\n      PUSH BC197C81\t\t\t// An array to store proof_req...\n      PUSH E0\t\t\t// An array to store proof_req...\n      SHL \t\t\t// An array to store proof_req...\n      PUSH FFFFFFFFFFFFFFFFFFFFFFFFFFFFFFFFFFFFFFFFFFFFFFFFFFFFFFFF\t\t\tess;\\r\\n\\r\\n    // An array to...\n      NOT \t\t\tess;\\r\\n\\r\\n    // An array to...\n      AND \t\t\tess;\\r\\n\\r\\n    // An array to...\n      DUP2 \t\t\tess;\\r\\n\\r\\n\n      PUSH FFFFFFFFFFFFFFFFFFFFFFFFFFFFFFFFFFFFFFFFFFFFFFFFFFFFFFFF\t\t\tess;\\r\\n\\r\\n    // An array to...\n      NOT \t\t\tess;\\r\\n\\r\\n    // An array to...\n      AND \t\t\tess;\\r\\n\\r\\n    // An array to...\n      EQ \t\t\tess;\\r\\n\\r\\n    // An array to...\n      PUSH [tag] 497\t\t\taddress;\\r\\n\\r\\n    // An arra...\n      JUMPI \t\t\taddress;\\r\\n\\r\\n    // An arra...\n      DUP5 \t\t\tve\n      PUSH 40\t\t\troof request and the correspon...\n      MLOAD \t\t\troof request and the correspon...\n      PUSH 57F447CE00000000000000000000000000000000000000000000000000000000\t\t\troof request and the correspon...\n      DUP2 \t\t\troof request and the correspon...\n      MSTORE \t\t\troof request and the correspon...\n      PUSH 4\t\t\troof request and the correspon...\n      ADD \t\t\troof request and the correspon...\n      PUSH [tag] 498\t\t\troof request and the correspon...\n      SWAP2 \t\t\troof request and the correspon...\n      SWAP1 \t\t\troof request and the correspon...\n      PUSH [tag] 96\t\t\troof request and the correspon...\n      JUMP \t\t\troof request and the correspon...\n    tag 498\t\t\troof request and the correspon...\n      JUMPDEST \t\t\troof request and the correspon...\n      PUSH 40\t\t\troof request and the correspon...\n      MLOAD \t\t\troof request and the correspon...\n      DUP1 \t\t\troof request and the correspon...\n      SWAP2 \t\t\troof request and the correspon...\n      SUB \t\t\troof request and the correspon...\n      SWAP1 \t\t\troof request and the correspon...\n      REVERT \t\t\troof request and the correspon...\n    tag 497\t\t\taddress;\\r\\n\\r\\n    // An arra...\n      JUMPDEST \t\t\taddress;\\r\\n\\r\\n    // An arra...\n      POP \t\t\tapping(uint256 => mapping(uint...\n    tag 482\t\t\ttID → prover address)\\r\\n    /...\n      JUMPDEST \t\t\ttID → prover address)\\r\\n    /...\n      POP \t\t\te and other attributes can be ...\n      POP \t\t\te and other attributes can be ...\n      POP \t\t\te and other attributes can be ...\n      POP \t\t\te and other attributes can be ...\n      POP \t\t\te and other attributes can be ...\n      POP \t\t\te and other attributes can be ...\n      JUMP \t\t\te and other attributes can be ...\n    tag 499\t\t\t-License-IDentifier: MIT\\r\\npr...\n      JUMPDEST \t\t\t-License-IDentifier: MIT\\r\\npr...\n      PUSH 0\t\t\tsolidi\n      PUSH 40\t\t\tt \n      MLOAD \t\t\t\\nimport \"\n      SWAP1 \t\t\t<0.9.0;\\r\\n\\r\\nimport \"\n      POP \t\t\t<0.9.0;\\r\\n\\r\\nimport \"\n      SWAP1 \t\t\t-License-IDentifier: MIT\\r\\npr...\n      JUMP \t\t\t-License-IDentifier: MIT\\r\\npr...\n    tag 500\t\t\tn/contracts/access/Ownable.sol...\n      JUMPDEST \t\t\tn/contracts/access/Ownable.sol...\n      PUSH 0\t\t\t\\n\n      PUSH 0\t\t\t'\n      REVERT \t\t\t155.sol';\\r\\ni\n    tag 501\t\t\ttiveTypeUtils} from '@iden3/co...\n      JUMPDEST \t\t\ttiveTypeUtils} from '@iden3/co...\n      PUSH 0\t\t\to\n      PUSH 0\t\t\t3\n      REVERT \t\t\t '@iden3/con\n    tag 502\t\t\tfaces/ICircuitValidator.sol';\\...\n      JUMPDEST \t\t\tfaces/ICircuitValidator.sol';\\...\n      PUSH 0\t\t\t {Embed\n      PUSH FFFFFFFFFFFFFFFFFFFFFFFFFFFFFFFFFFFFFFFF\t\t\tracts/verifiers/EmbeddedZKPVer...\n      DUP3 \t\t\tn3/co\n      AND \t\t\t@iden3/contracts/verifiers/Emb...\n      SWAP1 \t\t\tier} from '@iden3/contracts/ve...\n      POP \t\t\tier} from '@iden3/contracts/ve...\n      SWAP2 \t\t\tfaces/ICircuitValidator.sol';\\...\n      SWAP1 \t\t\tfaces/ICircuitValidator.sol';\\...\n      POP \t\t\tfaces/ICircuitValidator.sol';\\...\n      JUMP \t\t\tfaces/ICircuitValidator.sol';\\...\n    tag 503\t\t\tersalVerifier} from '@iden3/co...\n      JUMPDEST \t\t\tersalVerifier} from '@iden3/co...\n      PUSH 0\t\t\t/verifi\n      PUSH [tag] 617\t\t\tsol';\\r\\nimport \"@openzepp\n      DUP3 \t\t\tenzep\n      PUSH [tag] 502\t\t\tsol';\\r\\nimport \"@openzepp\n      JUMP \t\t\tsol';\\r\\nimport \"@openzepp\n    tag 617\t\t\tsol';\\r\\nimport \"@openzepp\n      JUMPDEST \t\t\tsol';\\r\\nimport \"@openzepp\n      SWAP1 \t\t\talVerifier.sol';\\r\\nimport \"@o...\n      POP \t\t\talVerifier.sol';\\r\\nimport \"@o...\n      SWAP2 \t\t\tersalVerifier} from '@iden3/co...\n      SWAP1 \t\t\tersalVerifier} from '@iden3/co...\n      POP \t\t\tersalVerifier} from '@iden3/co...\n      JUMP \t\t\tersalVerifier} from '@iden3/co...\n    tag 504\t\t\tts/utils/structs/EnumerableSet...\n      JUMPDEST \t\t\tts/utils/structs/EnumerableSet...\n      PUSH [tag] 619\t\t\tRC1155, Ownable {\\r\\n    a\n      DUP2 \t\t\t\\n    \n      PUSH [tag] 503\t\t\tRC1155, Ownable {\\r\\n    a\n      JUMP \t\t\tRC1155, Ownable {\\r\\n    a\n    tag 619\t\t\tRC1155, Ownable {\\r\\n    a\n      JUMPDEST \t\t\tRC1155, Ownable {\\r\\n    a\n      DUP2 \t\t\ter is\n      EQ \t\t\tifier is ERC1155, Ownable {\\r\\...\n      PUSH [tag] 620\t\t\tiversalVerifier is ERC1155, Ow...\n      JUMPI \t\t\tiversalVerifier is ERC1155, Ow...\n      PUSH 0\t\t\te\n      PUSH 0\t\t\tv\n      REVERT \t\t\ts[] private \n    tag 620\t\t\tiversalVerifier is ERC1155, Ow...\n      JUMPDEST \t\t\tiversalVerifier is ERC1155, Ow...\n      POP \t\t\tts/utils/structs/EnumerableSet...\n      JUMP \t\t\tts/utils/structs/EnumerableSet...\n    tag 505\t\t\t // Getter function for the ad...\n      JUMPDEST \t\t\t // Getter function for the ad...\n      PUSH 0\t\t\t call\n      DUP2 \t\t\tgetAdm\n      CALLDATALOAD \t\t\t    function getAdmi\n      SWAP1 \t\t\t owner.\\r\\n    function getAdm...\n      POP \t\t\t owner.\\r\\n    function getAdm...\n      PUSH [tag] 622\t\t\tic view onlyOwner returns (add...\n      DUP2 \t\t\taddre\n      PUSH [tag] 504\t\t\tic view onlyOwner returns (add...\n      JUMP \t\t\tic view onlyOwner returns (add...\n    tag 622\t\t\tic view onlyOwner returns (add...\n      JUMPDEST \t\t\tic view onlyOwner returns (add...\n      SWAP3 \t\t\t // Getter function for the ad...\n      SWAP2 \t\t\t // Getter function for the ad...\n      POP \t\t\t // Getter function for the ad...\n      POP \t\t\t // Getter function for the ad...\n      JUMP \t\t\t // Getter function for the ad...\n    tag 506\t\t\t{\\r\\n        return admins;\\r\\...\n      JUMPDEST \t\t\t{\\r\\n        return admins;\\r\\...\n      PUSH 0\t\t\t   // I\n      DUP2 \t\t\tn to \n      SWAP1 \t\t\tper function to \n      POP \t\t\tper function to \n      SWAP2 \t\t\t{\\r\\n        return admins;\\r\\...\n      SWAP1 \t\t\t{\\r\\n        return admins;\\r\\...\n      POP \t\t\t{\\r\\n        return admins;\\r\\...\n      JUMP \t\t\t{\\r\\n        return admins;\\r\\...\n    tag 507\t\t\taddress is an admin.\\r\\n    fu...\n      JUMPDEST \t\t\taddress is an admin.\\r\\n    fu...\n      PUSH [tag] 625\t\t\t returns (bool) {\\r\\n     \n      DUP2 \t\t\t\\n    \n      PUSH [tag] 506\t\t\t returns (bool) {\\r\\n     \n      JUMP \t\t\t returns (bool) {\\r\\n     \n    tag 625\t\t\t returns (bool) {\\r\\n     \n      JUMPDEST \t\t\t returns (bool) {\\r\\n     \n      DUP2 \t\t\tal vi\n      EQ \t\t\ternal view returns (bool) {\\r\\...\n      PUSH [tag] 626\t\t\tadmin) internal view returns (...\n      JUMPI \t\t\tadmin) internal view returns (...\n      PUSH 0\t\t\t=\n      PUSH 0\t\t\t \n      REVERT \t\t\tr (uint i = \n    tag 626\t\t\tadmin) internal view returns (...\n      JUMPDEST \t\t\tadmin) internal view returns (...\n      POP \t\t\taddress is an admin.\\r\\n    fu...\n      JUMP \t\t\taddress is an admin.\\r\\n    fu...\n    tag 508\t\t\tlength; i++) {\\r\\n            ...\n      JUMPDEST \t\t\tlength; i++) {\\r\\n            ...\n      PUSH 0\t\t\tadmin\n      DUP2 \t\t\t\\r\\n    \n      CALLDATALOAD \t\t\t return true;\\r\\n     \n      SWAP1 \t\t\t          return true;\\r\\n    ...\n      POP \t\t\t          return true;\\r\\n    ...\n      PUSH [tag] 628\t\t\t\\n        }\\r\\n        return ...\n      DUP2 \t\t\tfalse\n      PUSH [tag] 507\t\t\t\\n        }\\r\\n        return ...\n      JUMP \t\t\t\\n        }\\r\\n        return ...\n    tag 628\t\t\t\\n        }\\r\\n        return ...\n      JUMPDEST \t\t\t\\n        }\\r\\n        return ...\n      SWAP3 \t\t\tlength; i++) {\\r\\n            ...\n      SWAP2 \t\t\tlength; i++) {\\r\\n            ...\n      POP \t\t\tlength; i++) {\\r\\n            ...\n      POP \t\t\tlength; i++) {\\r\\n            ...\n      JUMP \t\t\tlength; i++) {\\r\\n            ...\n    tag 36\t\t\t   // Function to add an admin...\n      JUMPDEST \t\t\t   // Function to add an admin...\n      PUSH 0\t\t\t funct\n      PUSH 0\t\t\tn addA\n      PUSH 40\t\t\t  \n      DUP4 \t\t\tyOwner {\\r\n      DUP6 \t\t\tublic o\n      SUB \t\t\tn) public onlyOwner {\\r\\n\n      SLT \t\t\tadmin) public onlyOwner {\\r\\n ...\n      ISZERO \t\t\ts _admin) public onlyOwner {\\r...\n      PUSH [tag] 630\t\t\ts _admin) public onlyOwner {\\r...\n      JUMPI \t\t\ts _admin) public onlyOwner {\\r...\n      PUSH [tag] 631\t\t\trequire(_admin != address(0), ...\n      PUSH [tag] 500\t\t\trequire(_admin != address(0), ...\n      JUMP \t\t\trequire(_admin != address(0), ...\n    tag 631\t\t\trequire(_admin != address(0), ...\n      JUMPDEST \t\t\trequire(_admin != address(0), ...\n    tag 630\t\t\ts _admin) public onlyOwner {\\r...\n      JUMPDEST \t\t\ts _admin) public onlyOwner {\\r...\n      PUSH 0\t\t\t \n      PUSH [tag] 632\t\t\t);\\r\\n    }\\r\\n\\r\\n    // Func...\n      DUP6 \t\t\tin addr\n      DUP3 \t\t\tve an \n      DUP7 \t\t\tion to re\n      ADD \t\t\tunction to remove an a\n      PUSH [tag] 505\t\t\t);\\r\\n    }\\r\\n\\r\\n    // Func...\n      JUMP \t\t\t);\\r\\n    }\\r\\n\\r\\n    // Func...\n    tag 632\t\t\t);\\r\\n    }\\r\\n\\r\\n    // Func...\n      JUMPDEST \t\t\t);\\r\\n    }\\r\\n\\r\\n    // Func...\n      SWAP3 \t\t\tush(_admin);\\r\\n    }\\r\\n\\r\\n ...\n      POP \t\t\tush(_admin);\\r\\n    }\\r\\n\\r\\n ...\n      POP \t\t\tess is already an admin\");\\r\\n...\n      PUSH 20\t\t\tve\n      PUSH [tag] 633\t\t\tblic onlyOwner {\\r\\n        ui...\n      DUP6 \t\t\tength;\\r\n      DUP3 \t\t\t admin\n      DUP7 \t\t\t uint len\n      ADD \t\t\t     uint len = admins\n      PUSH [tag] 508\t\t\tblic onlyOwner {\\r\\n        ui...\n      JUMP \t\t\tblic onlyOwner {\\r\\n        ui...\n    tag 633\t\t\tblic onlyOwner {\\r\\n        ui...\n      JUMPDEST \t\t\tblic onlyOwner {\\r\\n        ui...\n      SWAP2 \t\t\t_admin) public onlyOwner {\\r\\n...\n      POP \t\t\t_admin) public onlyOwner {\\r\\n...\n      POP \t\t\tan remove.\\r\\n    function rem...\n      SWAP3 \t\t\t   // Function to add an admin...\n      POP \t\t\t   // Function to add an admin...\n      SWAP3 \t\t\t   // Function to add an admin...\n      SWAP1 \t\t\t   // Function to add an admin...\n      POP \t\t\t   // Function to add an admin...\n      JUMP \t\t\t   // Function to add an admin...\n    tag 509\t\t\t; i < len; i++) {\\r\\n         ...\n      JUMPDEST \t\t\t; i < len; i++) {\\r\\n         ...\n      PUSH [tag] 635\t\t\tadmins[len - 1];\\r\\n      \n      DUP2 \t\t\t     \n      PUSH [tag] 506\t\t\tadmins[len - 1];\\r\\n      \n      JUMP \t\t\tadmins[len - 1];\\r\\n      \n    tag 635\t\t\tadmins[len - 1];\\r\\n      \n      JUMPDEST \t\t\tadmins[len - 1];\\r\\n      \n      DUP3 \t\t\ti] \n      MSTORE \t\t\tadmins[i] = admins[len - 1];\\r...\n      POP \t\t\t; i < len; i++) {\\r\\n         ...\n      POP \t\t\t; i < len; i++) {\\r\\n         ...\n      JUMP \t\t\t; i < len; i++) {\\r\\n         ...\n    tag 39\t\t\tins.pop();\\r\\n                ...\n      JUMPDEST \t\t\tins.pop();\\r\\n                ...\n      PUSH 0\t\t\td\");\n      PUSH 20\t\t\tri\n      DUP3 \t\t\tier to re\n      ADD \t\t\todifier to restric\n      SWAP1 \t\t\t    // Modifier to restric\n      POP \t\t\t    // Modifier to restric\n      PUSH [tag] 637\t\t\ts to only addresses in the adm...\n      PUSH 0\t\t\t \n      DUP4 \t\t\tAdmin() {\n      ADD \t\t\tonlyAdmin() {\\r\\n  \n      DUP5 \t\t\tmodifi\n      PUSH [tag] 509\t\t\ts to only addresses in the adm...\n      JUMP \t\t\ts to only addresses in the adm...\n    tag 637\t\t\ts to only addresses in the adm...\n      JUMPDEST \t\t\ts to only addresses in the adm...\n      SWAP3 \t\t\tins.pop();\\r\\n                ...\n      SWAP2 \t\t\tins.pop();\\r\\n                ...\n      POP \t\t\tins.pop();\\r\\n                ...\n      POP \t\t\tins.pop();\\r\\n                ...\n      JUMP \t\t\tins.pop();\\r\\n                ...\n    tag 510\t\t\t_isAdmin(msg.sender), \"Caller ...\n      JUMPDEST \t\t\t_isAdmin(msg.sender), \"Caller ...\n      PUSH 0\t\t\t an adm\n      PUSH FFFFFFFF00000000000000000000000000000000000000000000000000000000\t\t\tsing EnumerableSet for Enumera...\n      DUP3 \t\t\t\\r\\n   \n      AND \t\t\t }\\r\\n\\r\\n    using Enumerable...\n      SWAP1 \t\t\t    _;\\r\\n    }\\r\\n\\r\\n    usi...\n      POP \t\t\t    _;\\r\\n    }\\r\\n\\r\\n    usi...\n      SWAP2 \t\t\t_isAdmin(msg.sender), \"Caller ...\n      SWAP1 \t\t\t_isAdmin(msg.sender), \"Caller ...\n      POP \t\t\t_isAdmin(msg.sender), \"Caller ...\n      JUMP \t\t\t_isAdmin(msg.sender), \"Caller ...\n    tag 511\t\t\tthat have ever been minted\\r\\n...\n      JUMPDEST \t\t\tthat have ever been minted\\r\\n...\n      PUSH [tag] 640\t\t\tDs;\\r\\n\\r\\n    /// @notice \n      DUP2 \t\t\totice\n      PUSH [tag] 510\t\t\tDs;\\r\\n\\r\\n    /// @notice \n      JUMP \t\t\tDs;\\r\\n\\r\\n    /// @notice \n    tag 640\t\t\tDs;\\r\\n\\r\\n    /// @notice \n      JUMPDEST \t\t\tDs;\\r\\n\\r\\n    /// @notice \n      DUP2 \t\t\tlToke\n      EQ \t\t\t_allTokenIDs;\\r\\n\\r\\n    /// @...\n      PUSH [tag] 641\t\t\tt private _allTokenIDs;\\r\\n\\r\\...\n      JUMPI \t\t\tt private _allTokenIDs;\\r\\n\\r\\...\n      PUSH 0\t\t\tl\n      PUSH 0\t\t\tf\n      REVERT \t\t\tns the full \n    tag 641\t\t\tt private _allTokenIDs;\\r\\n\\r\\...\n      JUMPDEST \t\t\tt private _allTokenIDs;\\r\\n\\r\\...\n      POP \t\t\tthat have ever been minted\\r\\n...\n      JUMP \t\t\tthat have ever been minted\\r\\n...\n    tag 512\t\t\tIDs ever minted\\r\\n    functio...\n      JUMPDEST \t\t\tIDs ever minted\\r\\n    functio...\n      PUSH 0\t\t\txtern\n      DUP2 \t\t\t) {\\r\\n \n      CALLDATALOAD \t\t\tt256[] memory) {\\r\\n  \n      SWAP1 \t\t\turns (uint256[] memory) {\\r\\n ...\n      POP \t\t\turns (uint256[] memory) {\\r\\n ...\n      PUSH [tag] 643\t\t\turn _allTokenIDs.values();\\r\\n...\n      DUP2 \t\t\t\\r\\n   \n      PUSH [tag] 511\t\t\turn _allTokenIDs.values();\\r\\n...\n      JUMP \t\t\turn _allTokenIDs.values();\\r\\n...\n    tag 643\t\t\turn _allTokenIDs.values();\\r\\n...\n      JUMPDEST \t\t\turn _allTokenIDs.values();\\r\\n...\n      SWAP3 \t\t\tIDs ever minted\\r\\n    functio...\n      SWAP2 \t\t\tIDs ever minted\\r\\n    functio...\n      POP \t\t\tIDs ever minted\\r\\n    functio...\n      POP \t\t\tIDs ever minted\\r\\n    functio...\n      JUMP \t\t\tIDs ever minted\\r\\n    functio...\n    tag 42\t\t\tMapping from token ID to its n...\n      JUMPDEST \t\t\tMapping from token ID to its n...\n      PUSH 0\t\t\tother \n      PUSH 20\t\t\tng\n      DUP3 \t\t\t \\r\\n    ma\n      DUP5 \t\t\ted as u\n      SUB \t\t\tstored as uri \\r\\n    map\n      SLT \t\t\t be stored as uri \\r\\n    mapp...\n      ISZERO \t\t\tcan be stored as uri \\r\\n    m...\n      PUSH [tag] 645\t\t\tcan be stored as uri \\r\\n    m...\n      JUMPI \t\t\tcan be stored as uri \\r\\n    m...\n      PUSH [tag] 646\t\t\tt256 => string) public tokenNa...\n      PUSH [tag] 500\t\t\tt256 => string) public tokenNa...\n      JUMP \t\t\tt256 => string) public tokenNa...\n    tag 646\t\t\tt256 => string) public tokenNa...\n      JUMPDEST \t\t\tt256 => string) public tokenNa...\n    tag 645\t\t\tcan be stored as uri \\r\\n    m...\n      JUMPDEST \t\t\tcan be stored as uri \\r\\n    m...\n      PUSH 0\t\t\td\n      PUSH [tag] 647\t\t\t→ (proofRequestID → prover add...\n      DUP5 \t\t\tThe add\n      DUP3 \t\t\t\\r\\n    \n      DUP6 \t\t\ter addres\n      ADD \t\t\tprover address)\\r\\n    /\n      PUSH [tag] 512\t\t\t→ (proofRequestID → prover add...\n      JUMP \t\t\t→ (proofRequestID → prover add...\n    tag 647\t\t\t→ (proofRequestID → prover add...\n      JUMPDEST \t\t\t→ (proofRequestID → prover add...\n      SWAP2 \t\t\t/ tokenID → (proofRequestID → ...\n      POP \t\t\t/ tokenID → (proofRequestID → ...\n      POP \t\t\tallet address (the prover's ad...\n      SWAP3 \t\t\tMapping from token ID to its n...\n      SWAP2 \t\t\tMapping from token ID to its n...\n      POP \t\t\tMapping from token ID to its n...\n      POP \t\t\tMapping from token ID to its n...\n      JUMP \t\t\tMapping from token ID to its n...\n    tag 513\t\t\tn sender, a token receiver or ...\n      JUMPDEST \t\t\tn sender, a token receiver or ...\n      PUSH 0\t\t\tthird-p\n      DUP2 \t\t\t mapp\n      ISZERO \t\t\tt256 => mappi\n      ISZERO \t\t\ting(uint256 => mappin\n      SWAP1 \t\t\t.\\r\\n    mapping(uint256 => ma...\n      POP \t\t\t.\\r\\n    mapping(uint256 => ma...\n      SWAP2 \t\t\tn sender, a token receiver or ...\n      SWAP1 \t\t\tn sender, a token receiver or ...\n      POP \t\t\tn sender, a token receiver or ...\n      JUMP \t\t\tn sender, a token receiver or ...\n    tag 514\t\t\taddress)) public tokenID_proof...\n      JUMPDEST \t\t\taddress)) public tokenID_proof...\n      PUSH [tag] 650\t\t\trequest_ids only for \n      DUP2 \t\t\ty for\n      PUSH [tag] 513\t\t\trequest_ids only for \n      JUMP \t\t\trequest_ids only for \n    tag 650\t\t\trequest_ids only for \n      JUMPDEST \t\t\trequest_ids only for \n      DUP3 \t\t\troo\n      MSTORE \t\t\tstore proof_request_ids only f...\n      POP \t\t\taddress)) public tokenID_proof...\n      POP \t\t\taddress)) public tokenID_proof...\n      JUMP \t\t\taddress)) public tokenID_proof...\n    tag 45\t\t\t   uint64[] public proofReques...\n      JUMPDEST \t\t\t   uint64[] public proofReques...\n      PUSH 0\t\t\tding\n      PUSH 20\t\t\tay\n      DUP3 \t\t\t // The a\n      ADD \t\t\t\\n    // The array \n      SWAP1 \t\t\tddress.\\r\\n    // The array \n      POP \t\t\tddress.\\r\\n    // The array \n      PUSH [tag] 652\t\t\tstIDs is updated accordingly.\\...\n      PUSH 0\t\t\tA\n      DUP4 \t\t\tfRequestA\n      ADD \t\t\tProofRequestAndAd\n      DUP5 \t\t\tction \n      PUSH [tag] 514\t\t\tstIDs is updated accordingly.\\...\n      JUMP \t\t\tstIDs is updated accordingly.\\...\n    tag 652\t\t\tstIDs is updated accordingly.\\...\n      JUMPDEST \t\t\tstIDs is updated accordingly.\\...\n      SWAP3 \t\t\t   uint64[] public proofReques...\n      SWAP2 \t\t\t   uint64[] public proofReques...\n      POP \t\t\t   uint64[] public proofReques...\n      POP \t\t\t   uint64[] public proofReques...\n      JUMP \t\t\t   uint64[] public proofReques...\n    tag 48\t\t\ttokenID, uint64 requestID, add...\n      JUMPDEST \t\t\ttokenID, uint64 requestID, add...\n      PUSH 0\t\t\t {\\r\\n  \n      PUSH 20\t\t\t),\n      DUP3 \t\t\tains(toke\n      DUP5 \t\t\tnIDs.co\n      SUB \t\t\tTokenIDs.contains(token\n      SLT \t\t\t_allTokenIDs.contains(tokenID)...\n      ISZERO \t\t\tre(_allTokenIDs.contains(token...\n      PUSH [tag] 654\t\t\tre(_allTokenIDs.contains(token...\n      JUMPI \t\t\tre(_allTokenIDs.contains(token...\n      PUSH [tag] 655\t\t\tken id does not exist\");\\r\\n  ...\n      PUSH [tag] 500\t\t\tken id does not exist\");\\r\\n  ...\n      JUMP \t\t\tken id does not exist\");\\r\\n  ...\n    tag 655\t\t\tken id does not exist\");\\r\\n  ...\n      JUMPDEST \t\t\tken id does not exist\");\\r\\n  ...\n    tag 654\t\t\tre(_allTokenIDs.contains(token...\n      JUMPDEST \t\t\tre(_allTokenIDs.contains(token...\n      PUSH 0\t\t\t \n      PUSH [tag] 656\t\t\t   tokenID_proofRequest_addres...\n      DUP5 \t\t\testID] \n      DUP3 \t\t\tnID][r\n      DUP6 \t\t\tddress[to\n      ADD \t\t\tst_address[tokenID][re\n      PUSH [tag] 508\t\t\t   tokenID_proofRequest_addres...\n      JUMP \t\t\t   tokenID_proofRequest_addres...\n    tag 656\t\t\t   tokenID_proofRequest_addres...\n      JUMPDEST \t\t\t   tokenID_proofRequest_addres...\n      SWAP2 \t\t\t\");\\r\\n        tokenID_proofRe...\n      POP \t\t\t\");\\r\\n        tokenID_proofRe...\n      POP \t\t\t== address(0), \"Proof request ...\n      SWAP3 \t\t\ttokenID, uint64 requestID, add...\n      SWAP2 \t\t\ttokenID, uint64 requestID, add...\n      POP \t\t\ttokenID, uint64 requestID, add...\n      POP \t\t\ttokenID, uint64 requestID, add...\n      JUMP \t\t\ttokenID, uint64 requestID, add...\n    tag 515\t\t\tRequestIDs.push(requestID);\\r\\...\n      JUMPDEST \t\t\tRequestIDs.push(requestID);\\r\\...\n      PUSH 0\t\t\tete a \n      DUP2 \t\t\ts by \n      MLOAD \t\t\taddress by I\n      SWAP1 \t\t\tt and the address by I\n      POP \t\t\tt and the address by I\n      SWAP2 \t\t\tRequestIDs.push(requestID);\\r\\...\n      SWAP1 \t\t\tRequestIDs.push(requestID);\\r\\...\n      POP \t\t\tRequestIDs.push(requestID);\\r\\...\n      JUMP \t\t\tRequestIDs.push(requestID);\\r\\...\n    tag 516\t\t\te array proofRequestIDs is upd...\n      JUMPDEST \t\t\te array proofRequestIDs is upd...\n      PUSH 0\t\t\tddress(uint\n      DUP3 \t\t\tuestID\n      DUP3 \t\t\t4 r\n      MSTORE \t\t\t, uint64 requestID)\n      PUSH 20\t\t\tire(\n      DUP3 \t\t\t re\n      ADD \t\t\t     require(_\n      SWAP1 \t\t\tnlyAdmin {\\r\\n        require(...\n      POP \t\t\tnlyAdmin {\\r\\n        require(...\n      SWAP3 \t\t\te array proofRequestIDs is upd...\n      SWAP2 \t\t\te array proofRequestIDs is upd...\n      POP \t\t\te array proofRequestIDs is upd...\n      POP \t\t\te array proofRequestIDs is upd...\n      JUMP \t\t\te array proofRequestIDs is upd...\n    tag 517\t\t\tcontains(tokenID), \"token id d...\n      JUMPDEST \t\t\tcontains(tokenID), \"token id d...\n      DUP3 \t\t\tess[to\n      DUP2 \t\t\t_ad\n      DUP4 \t\t\tque\n      MCOPY \t\t\troofRequest_address[tok\n      PUSH 0\t\t\tr\n      DUP4 \t\t\tss(0),\n      DUP4 \t\t\tadd\n      ADD \t\t\t != address(0), \n      MSTORE \t\t\tuestID] != address(0), \"Pro\n      POP \t\t\tcontains(tokenID), \"token id d...\n      POP \t\t\tcontains(tokenID), \"token id d...\n      POP \t\t\tcontains(tokenID), \"token id d...\n      JUMP \t\t\tcontains(tokenID), \"token id d...\n    tag 518\t\t\tes not exist\");\\r\\n        del...\n      JUMPDEST \t\t\tes not exist\");\\r\\n        del...\n      PUSH 0\t\t\troofRe\n      PUSH 1F\t\t\t/ \n      NOT \t\t\t   // R\n      PUSH 1F\t\t\t  \n      DUP4 \t\t\ttID];\n      ADD \t\t\tquestID];\\r\\n   \n      AND \t\t\t][requestID];\\r\\n        // Re\n      SWAP1 \t\t\tss[tokenID][requestID];\\r\\n   ...\n      POP \t\t\tss[tokenID][requestID];\\r\\n   ...\n      SWAP2 \t\t\tes not exist\");\\r\\n        del...\n      SWAP1 \t\t\tes not exist\");\\r\\n        del...\n      POP \t\t\tes not exist\");\\r\\n        del...\n      JUMP \t\t\tes not exist\");\\r\\n        del...\n    tag 519\t\t\t the array (swap-and-pop techn...\n      JUMPDEST \t\t\t the array (swap-and-pop techn...\n      PUSH 0\t\t\tgth\n      PUSH [tag] 662\t\t\t(proofRequestIDs[i] == request...\n      DUP3 \t\t\t {\\r\\n \n      PUSH [tag] 515\t\t\t(proofRequestIDs[i] == request...\n      JUMP \t\t\t(proofRequestIDs[i] == request...\n    tag 662\t\t\t(proofRequestIDs[i] == request...\n      JUMPDEST \t\t\t(proofRequestIDs[i] == request...\n      PUSH [tag] 663\t\t\toofRequestIDs[i] = proofReques...\n      DUP2 \t\t\t\\n     \n      DUP6 \t\t\t 1]\n      PUSH [tag] 516\t\t\toofRequestIDs[i] = proofReques...\n      JUMP \t\t\toofRequestIDs[i] = proofReques...\n    tag 663\t\t\toofRequestIDs[i] = proofReques...\n      JUMPDEST \t\t\toofRequestIDs[i] = proofReques...\n      SWAP4 \t\t\t     proofRequestIDs[i] = proo...\n      POP \t\t\t     proofRequestIDs[i] = proo...\n      PUSH [tag] 664\t\t\t proofRequestIDs.pop();\\r\\n   ...\n      DUP2 \t\t\t   }\\r\\n\n      DUP6 \t\t\t   \n      PUSH 20\t\t\t;\\r\\n \n      DUP7 \t\t\t  bre\n      ADD \t\t\t      break;\\r\\n  \n      PUSH [tag] 517\t\t\t proofRequestIDs.pop();\\r\\n   ...\n      JUMP \t\t\t proofRequestIDs.pop();\\r\\n   ...\n    tag 664\t\t\t proofRequestIDs.pop();\\r\\n   ...\n      JUMPDEST \t\t\t proofRequestIDs.pop();\\r\\n   ...\n      PUSH [tag] 665\t\t\tnt256 public constant fungibl\n      DUP2 \t\t\tfungib\n      PUSH [tag] 518\t\t\tnt256 public constant fungibl\n      JUMP \t\t\tnt256 public constant fungibl\n    tag 665\t\t\tnt256 public constant fungibl\n      JUMPDEST \t\t\tnt256 public constant fungibl\n      DUP5 \t\t\t   \n      ADD \t\t\t\\n\\r\\n    uint256 public const...\n      SWAP2 \t\t\t\\n    }\\r\\n\\r\\n    uint256 pub...\n      POP \t\t\t\\n    }\\r\\n\\r\\n    uint256 pub...\n      POP \t\t\t i++) {\\r\\n            if (pro...\n      SWAP3 \t\t\t the array (swap-and-pop techn...\n      SWAP2 \t\t\t the array (swap-and-pop techn...\n      POP \t\t\t the array (swap-and-pop techn...\n      POP \t\t\t the array (swap-and-pop techn...\n      JUMP \t\t\t the array (swap-and-pop techn...\n    tag 51\t\t\t\\n    uint256 public constant ...\n      JUMPDEST \t\t\t\\n    uint256 public constant ...\n      PUSH 0\t\t\t(Uni\n      PUSH 20\t\t\tin\n      DUP3 \t\t\t_, addres\n      ADD \t\t\tfier_, address ini\n      SWAP1 \t\t\tier verifier_, address ini\n      POP \t\t\tier verifier_, address ini\n      DUP2 \t\t\ti_)\\r\\n    \n      DUP2 \t\t\t155(\n      SUB \t\t\tERC1155(uri_)\\r\\n    O\n      PUSH 0\t\t\t \n      DUP4 \t\t\tory uri_)\n      ADD \t\t\t memory uri_)\\r\\n  \n      MSTORE \t\t\t string memory uri_)\\r\\n    ER...\n      PUSH [tag] 667\t\t\tr)\\r\\n    {\\r\\n        verifie...\n      DUP2 \t\t\tclar\n      DUP5 \t\t\t error\n      PUSH [tag] 519\t\t\tr)\\r\\n    {\\r\\n        verifie...\n      JUMP \t\t\tr)\\r\\n    {\\r\\n        verifie...\n    tag 667\t\t\tr)\\r\\n    {\\r\\n        verifie...\n      JUMPDEST \t\t\tr)\\r\\n    {\\r\\n        verifie...\n      SWAP1 \t\t\ttialOwner)\\r\\n    {\\r\\n       ...\n      POP \t\t\ttialOwner)\\r\\n    {\\r\\n       ...\n      SWAP3 \t\t\t\\n    uint256 public constant ...\n      SWAP2 \t\t\t\\n    uint256 public constant ...\n      POP \t\t\t\\n    uint256 public constant ...\n      POP \t\t\t\\n    uint256 public constant ...\n      JUMP \t\t\t\\n    uint256 public constant ...\n    tag 54\t\t\tf token id already taken, when...\n      JUMPDEST \t\t\tf token id already taken, when...\n      PUSH 0\t\t\tr Toke\n      PUSH 20\t\t\thi\n      DUP3 \t\t\t   // Cal\n      DUP5 \t\t\tID);\\r\\n\\r\n      SUB \t\t\tokenID);\\r\\n\\r\\n    // Call\n      SLT \t\t\t56 tokenID);\\r\\n\\r\\n    // Cal...\n      ISZERO \t\t\tnt256 tokenID);\\r\\n\\r\\n    // ...\n      PUSH [tag] 669\t\t\tnt256 tokenID);\\r\\n\\r\\n    // ...\n      JUMPI \t\t\tnt256 tokenID);\\r\\n\\r\\n    // ...\n      PUSH [tag] 670\t\t\tnction when creating new token...\n      PUSH [tag] 500\t\t\tnction when creating new token...\n      JUMP \t\t\tnction when creating new token...\n    tag 670\t\t\tnction when creating new token...\n      JUMPDEST \t\t\tnction when creating new token...\n    tag 669\t\t\tnt256 tokenID);\\r\\n\\r\\n    // ...\n      JUMPDEST \t\t\tnt256 tokenID);\\r\\n\\r\\n    // ...\n      PUSH 0\t\t\to\n      PUSH [tag] 671\t\t\t, string calldata name) extern...\n      DUP5 \t\t\t\\n      \n      DUP3 \t\t\tyOwner\n      DUP6 \t\t\txternal o\n      ADD \t\t\te) external onlyOwner \n      PUSH [tag] 505\t\t\t, string calldata name) extern...\n      JUMP \t\t\t, string calldata name) extern...\n    tag 671\t\t\t, string calldata name) extern...\n      JUMPDEST \t\t\t, string calldata name) extern...\n      SWAP2 \t\t\tldata data, string calldata na...\n      POP \t\t\tldata data, string calldata na...\n      POP \t\t\tss to, uint256 ID, uint256 amo...\n      SWAP3 \t\t\tf token id already taken, when...\n      SWAP2 \t\t\tf token id already taken, when...\n      POP \t\t\tf token id already taken, when...\n      POP \t\t\tf token id already taken, when...\n      JUMP \t\t\tf token id already taken, when...\n    tag 520\t\t\t _allTokenIDs. If it returns f...\n      JUMPDEST \t\t\t _allTokenIDs. If it returns f...\n      PUSH 0\t\t\t fa\n      DUP2 \t\t\thas b\n      SWAP1 \t\t\tken id has b\n      POP \t\t\tken id has b\n      SWAP2 \t\t\t _allTokenIDs. If it returns f...\n      SWAP1 \t\t\t _allTokenIDs. If it returns f...\n      POP \t\t\t _allTokenIDs. If it returns f...\n      JUMP \t\t\t _allTokenIDs. If it returns f...\n    tag 521\t\t\tfore.\\r\\n        if (!_allToke...\n      JUMPDEST \t\t\tfore.\\r\\n        if (!_allToke...\n      PUSH 0\t\t\t       re\n      PUSH [tag] 674\t\t\t        }\\r\\n\\r\\n        _mint...\n      PUSH [tag] 675\t\t\t   _mint(to, ID, amount, data)...\n      PUSH [tag] 676\t\t\tto, ID, amount, data);\\r\\n\n      DUP5 \t\t\tta);\\r\n      PUSH [tag] 502\t\t\tto, ID, amount, data);\\r\\n\n      JUMP \t\t\tto, ID, amount, data);\\r\\n\n    tag 676\t\t\tto, ID, amount, data);\\r\\n\n      JUMPDEST \t\t\tto, ID, amount, data);\\r\\n\n      PUSH [tag] 520\t\t\t   _mint(to, ID, amount, data)...\n      JUMP \t\t\t   _mint(to, ID, amount, data)...\n    tag 675\t\t\t   _mint(to, ID, amount, data)...\n      JUMPDEST \t\t\t   _mint(to, ID, amount, data)...\n      PUSH [tag] 502\t\t\t        }\\r\\n\\r\\n        _mint...\n      JUMP \t\t\t        }\\r\\n\\r\\n        _mint...\n    tag 674\t\t\t        }\\r\\n\\r\\n        _mint...\n      JUMPDEST \t\t\t        }\\r\\n\\r\\n        _mint...\n      SWAP1 \t\t\tDTaken(ID);\\r\\n        }\\r\\n\\r...\n      POP \t\t\tDTaken(ID);\\r\\n        }\\r\\n\\r...\n      SWAP2 \t\t\tfore.\\r\\n        if (!_allToke...\n      SWAP1 \t\t\tfore.\\r\\n        if (!_allToke...\n      POP \t\t\tfore.\\r\\n        if (!_allToke...\n      JUMP \t\t\tfore.\\r\\n        if (!_allToke...\n    tag 522\t\t\tign a name to the new token\\r\\...\n      JUMPDEST \t\t\tign a name to the new token\\r\\...\n      PUSH 0\t\t\t = name;\\r\n      PUSH [tag] 678\t\t\terts with TokenIDNotFound if t...\n      DUP3 \t\t\te ID \n      PUSH [tag] 521\t\t\terts with TokenIDNotFound if t...\n      JUMP \t\t\terts with TokenIDNotFound if t...\n    tag 678\t\t\terts with TokenIDNotFound if t...\n      JUMPDEST \t\t\terts with TokenIDNotFound if t...\n      SWAP1 \t\t\t \\r\\n    // Reverts with Token...\n      POP \t\t\t \\r\\n    // Reverts with Token...\n      SWAP2 \t\t\tign a name to the new token\\r\\...\n      SWAP1 \t\t\tign a name to the new token\\r\\...\n      POP \t\t\tign a name to the new token\\r\\...\n      JUMP \t\t\tign a name to the new token\\r\\...\n    tag 523\t\t\tegistered yet.\\r\\n    error To...\n      JUMPDEST \t\t\tegistered yet.\\r\\n    error To...\n      PUSH 0\t\t\tmintExist\n      PUSH [tag] 680\t\t\tt256 ID, uint256 amount, bytes...\n      DUP3 \t\t\tcalld\n      PUSH [tag] 522\t\t\tt256 ID, uint256 amount, bytes...\n      JUMP \t\t\tt256 ID, uint256 amount, bytes...\n    tag 680\t\t\tt256 ID, uint256 amount, bytes...\n      JUMPDEST \t\t\tt256 ID, uint256 amount, bytes...\n      SWAP1 \t\t\tdress to, uint256 ID, uint256 ...\n      POP \t\t\tdress to, uint256 ID, uint256 ...\n      SWAP2 \t\t\tegistered yet.\\r\\n    error To...\n      SWAP1 \t\t\tegistered yet.\\r\\n    error To...\n      POP \t\t\tegistered yet.\\r\\n    error To...\n      JUMP \t\t\tegistered yet.\\r\\n    error To...\n    tag 524\t\t\ternal onlyOwner {\\r\\n        i...\n      JUMPDEST \t\t\ternal onlyOwner {\\r\\n        i...\n      PUSH [tag] 682\t\t\t _mint(to, ID, amount, data);\\...\n      DUP2 \t\t\t(addr\n      PUSH [tag] 523\t\t\t _mint(to, ID, amount, data);\\...\n      JUMP \t\t\t _mint(to, ID, amount, data);\\...\n    tag 682\t\t\t _mint(to, ID, amount, data);\\...\n      JUMPDEST \t\t\t _mint(to, ID, amount, data);\\...\n      DUP3 \t\t\t   \n      MSTORE \t\t\t  }\\r\\n        _mint(to, ID, a...\n      POP \t\t\ternal onlyOwner {\\r\\n        i...\n      POP \t\t\ternal onlyOwner {\\r\\n        i...\n      JUMP \t\t\ternal onlyOwner {\\r\\n        i...\n    tag 59\t\t\tint256 ID, uint256 amount) ext...\n      JUMPDEST \t\t\tint256 ID, uint256 amount) ext...\n      PUSH 0\t\t\tarat\n      PUSH 20\t\t\tnt\n      DUP3 \t\t\tVerified(\n      ADD \t\t\tfNotVerified(uint6\n      SWAP1 \t\t\tror ProofNotVerified(uint6\n      POP \t\t\tror ProofNotVerified(uint6\n      PUSH [tag] 684\t\t\tD, address proverAddress);\\r\\n...\n      PUSH 0\t\t\t \n      DUP4 \t\t\tfor token\n      ADD \t\t\toof for tokenID i\n      DUP5 \t\t\tif any\n      PUSH [tag] 524\t\t\tD, address proverAddress);\\r\\n...\n      JUMP \t\t\tD, address proverAddress);\\r\\n...\n    tag 684\t\t\tD, address proverAddress);\\r\\n...\n      JUMPDEST \t\t\tD, address proverAddress);\\r\\n...\n      SWAP3 \t\t\tint256 ID, uint256 amount) ext...\n      SWAP2 \t\t\tint256 ID, uint256 amount) ext...\n      POP \t\t\tint256 ID, uint256 amount) ext...\n      POP \t\t\tint256 ID, uint256 amount) ext...\n      JUMP \t\t\tint256 ID, uint256 amount) ext...\n    tag 525\t\t\tfied.\\r\\n    // Use this befor...\n      JUMPDEST \t\t\tfied.\\r\\n    // Use this befor...\n      PUSH 0\t\t\t \n      PUSH 0\t\t\tn\n      REVERT \t\t\t) internal v\n    tag 242\t\t\t // iterate memory array (temp...\n      JUMPDEST \t\t\t // iterate memory array (temp...\n      PUSH 4E487B7100000000000000000000000000000000000000000000000000000000\t\t\te gas fee\\r\\n      uint64[] me...\n      PUSH 0\t\t\ts\n      MSTORE \t\t\tDs) to save gas fee\\r\\n      u...\n      PUSH 41\t\t\t tem\n      PUSH 4\t\t\ti\n      MSTORE \t\t\ti = 0; i < temp\n      PUSH 24\t\t\ti++)\n      PUSH 0\t\t\th\n      REVERT \t\t\ts.length; i++) \n    tag 526\t\t\t // Retrieve the corresponding...\n      JUMPDEST \t\t\t // Retrieve the corresponding...\n      PUSH [tag] 688\t\t\tif (tokenID_proofRequest_ad\n      DUP3 \t\t\tst_a\n      PUSH [tag] 518\t\t\tif (tokenID_proofRequest_ad\n      JUMP \t\t\tif (tokenID_proofRequest_ad\n    tag 688\t\t\tif (tokenID_proofRequest_ad\n      JUMPDEST \t\t\tif (tokenID_proofRequest_ad\n      DUP2 \t\t\t      \n      ADD \t\t\t\\r\\n          if (tokenID_proo...\n      DUP2 \t\t\tdress[\n      DUP2 \t\t\tofRequest_\n      LT \t\t\tproofRequest_address[t\n      PUSH FFFFFFFFFFFFFFFF\t\t\tess prover = token\n      DUP3 \t\t\t        ad\n      GT \t\t\t           address prover = to...\n      OR \t\t\t\\r\\n            address prover...\n      ISZERO \t\t\t)){\\r\\n            address pro...\n      PUSH [tag] 689\t\t\t)){\\r\\n            address pro...\n      JUMPI \t\t\t)){\\r\\n            address pro...\n      PUSH [tag] 690\t\t\tID][tempRequestIDs\n      PUSH [tag] 242\t\t\tID][tempRequestIDs\n      JUMP \t\t\tID][tempRequestIDs\n    tag 690\t\t\tID][tempRequestIDs\n      JUMPDEST \t\t\tID][tempRequestIDs\n    tag 689\t\t\t)){\\r\\n            address pro...\n      JUMPDEST \t\t\t)){\\r\\n            address pro...\n      DUP1 \t\t\t(!verifier\n      PUSH 40\t\t\t i\n      MSTORE \t\t\t        if (!verifier.\n      POP \t\t\tss for this proof request ID\\r...\n      POP \t\t\t // Retrieve the corresponding...\n      POP \t\t\t // Retrieve the corresponding...\n      JUMP \t\t\t // Retrieve the corresponding...\n    tag 527\t\t\tus(prover, tempRequestIDs[i])....\n      JUMPDEST \t\t\tus(prover, tempRequestIDs[i])....\n      PUSH 0\t\t\trified\n      PUSH [tag] 692\t\t\trt ProofNotVerified(\n      PUSH [tag] 499\t\t\trt ProofNotVerified(\n      JUMP \t\t\trt ProofNotVerified(\n    tag 692\t\t\trt ProofNotVerified(\n      JUMPDEST \t\t\trt ProofNotVerified(\n      SWAP1 \t\t\t      revert ProofNotVerified(\n      POP \t\t\t      revert ProofNotVerified(\n      PUSH [tag] 693\t\t\tstIDs[i], prover);\\r\\n        ...\n      DUP3 \t\t\t  }\\r\n      DUP3 \t\t\t      \n      PUSH [tag] 526\t\t\tstIDs[i], prover);\\r\\n        ...\n      JUMP \t\t\tstIDs[i], prover);\\r\\n        ...\n    tag 693\t\t\tstIDs[i], prover);\\r\\n        ...\n      JUMPDEST \t\t\tstIDs[i], prover);\\r\\n        ...\n      SWAP2 \t\t\tus(prover, tempRequestIDs[i])....\n      SWAP1 \t\t\tus(prover, tempRequestIDs[i])....\n      POP \t\t\tus(prover, tempRequestIDs[i])....\n      JUMP \t\t\tus(prover, tempRequestIDs[i])....\n    tag 528\t\t\t     }\\r\\n    }\\r\\n\\r\\n    // ...\n      JUMPDEST \t\t\t     }\\r\\n    }\\r\\n\\r\\n    // ...\n      PUSH 0\t\t\toofs\n      PUSH FFFFFFFFFFFFFFFF\t\t\t\\n        uint256 t\n      DUP3 \t\t\tess to\n      GT \t\t\tddress to,\\r\\n        uint256 ...\n      ISZERO \t\t\t  address to,\\r\\n        uint2...\n      PUSH [tag] 695\t\t\t  address to,\\r\\n        uint2...\n      JUMPI \t\t\t  address to,\\r\\n        uint2...\n      PUSH [tag] 696\t\t\tID,\\r\\n        uint2\n      PUSH [tag] 242\t\t\tID,\\r\\n        uint2\n      JUMP \t\t\tID,\\r\\n        uint2\n    tag 696\t\t\tID,\\r\\n        uint2\n      JUMPDEST \t\t\tID,\\r\\n        uint2\n    tag 695\t\t\t  address to,\\r\\n        uint2...\n      JUMPDEST \t\t\t  address to,\\r\\n        uint2...\n      PUSH 20\t\t\t dat\n      DUP3 \t\t\ts memo\n      MUL \t\t\tbytes memory data\n      SWAP1 \t\t\t        bytes memory data\n      POP \t\t\t        bytes memory data\n      PUSH 20\t\t\ter-t\n      DUP2 \t\t\torce\n      ADD \t\t\t Enforce per-to\n      SWAP1 \t\t\t      // Enforce per-to\n      POP \t\t\t      // Enforce per-to\n      SWAP2 \t\t\t     }\\r\\n    }\\r\\n\\r\\n    // ...\n      SWAP1 \t\t\t     }\\r\\n    }\\r\\n\\r\\n    // ...\n      POP \t\t\t     }\\r\\n    }\\r\\n\\r\\n    // ...\n      JUMP \t\t\t     }\\r\\n    }\\r\\n\\r\\n    // ...\n    tag 529\t\t\tcks\\r\\n        _checkAllProofs...\n      JUMPDEST \t\t\tcks\\r\\n        _checkAllProofs...\n      PUSH 0\t\t\t\\n\n      PUSH 0\t\t\tr\n      REVERT \t\t\togic here\\r\\n \n    tag 530\t\t\t(from, to, tokenID, amount, da...\n      JUMPDEST \t\t\t(from, to, tokenID, amount, da...\n      PUSH 0\t\t\ts fro\n      PUSH [tag] 699\t\t\tto,\\r\\n        uint256[] memor...\n      PUSH [tag] 700\t\t\tt256[] memory tokenIDs,\\r\\n   ...\n      DUP5 \t\t\t,\\r\\n   \n      PUSH [tag] 528\t\t\tt256[] memory tokenIDs,\\r\\n   ...\n      JUMP \t\t\tt256[] memory tokenIDs,\\r\\n   ...\n    tag 700\t\t\tt256[] memory tokenIDs,\\r\\n   ...\n      JUMPDEST \t\t\tt256[] memory tokenIDs,\\r\\n   ...\n      PUSH [tag] 527\t\t\tto,\\r\\n        uint256[] memor...\n      JUMP \t\t\tto,\\r\\n        uint256[] memor...\n    tag 699\t\t\tto,\\r\\n        uint256[] memor...\n      JUMPDEST \t\t\tto,\\r\\n        uint256[] memor...\n      SWAP1 \t\t\t address to,\\r\\n        uint25...\n      POP \t\t\t address to,\\r\\n        uint25...\n      DUP1 \t\t\t\\r\\n   \n      DUP4 \t\t\tde {\\r\\n\n      DUP3 \t\t\t over\n      MSTORE \t\t\tvirtual override {\\r\\n \n      PUSH 20\t\t\tgth \n      DUP3 \t\t\tIDs.l\n      ADD \t\t\tokenIDs.length =\n      SWAP1 \t\t\tquire(tokenIDs.length =\n      POP \t\t\tquire(tokenIDs.length =\n      PUSH 20\t\t\tgths\n      DUP5 \t\t\trray l\n      MUL \t\t\ted array lengths\"\n      DUP4 \t\t\tMismat\n      ADD \t\t\t55: Mismatched array lengths\")\n      DUP6 \t\t\t= a\n      DUP2 \t\t\tire(to\n      GT \t\t\tequire(to != ad\n      ISZERO \t\t\t  require(to != address(0), \"E...\n      PUSH [tag] 701\t\t\t  require(to != address(0), \"E...\n      JUMPI \t\t\t  require(to != address(0), \"E...\n      PUSH [tag] 702\t\t\t155: transfer to the zero addr...\n      PUSH [tag] 529\t\t\t155: transfer to the zero addr...\n      JUMP \t\t\t155: transfer to the zero addr...\n    tag 702\t\t\t155: transfer to the zero addr...\n      JUMPDEST \t\t\t155: transfer to the zero addr...\n    tag 701\t\t\t  require(to != address(0), \"E...\n      JUMPDEST \t\t\t  require(to != address(0), \"E...\n      DUP4 \t\t\tce per\n    tag 703\t\t\t         // Enforce per-token ...\n      JUMPDEST \t\t\t         // Enforce per-token ...\n      DUP2 \t\t\tf chec\n      DUP2 \t\t\t pr\n      LT \t\t\tken proof check\n      ISZERO \t\t\t         // Enforce per-token ...\n      PUSH [tag] 705\t\t\t         // Enforce per-token ...\n      JUMPI \t\t\t         // Enforce per-token ...\n      DUP1 \t\t\tfeT\n      PUSH [tag] 706\t\t\tnIDs[i], amounts[i], data);\\r\\...\n      DUP9 \t\t\t   \n      DUP3 \t\t\tdata);\\r\\n  \n      PUSH [tag] 508\t\t\tnIDs[i], amounts[i], data);\\r\\...\n      JUMP \t\t\tnIDs[i], amounts[i], data);\\r\\...\n    tag 706\t\t\tnIDs[i], amounts[i], data);\\r\\...\n      JUMPDEST \t\t\tnIDs[i], amounts[i], data);\\r\\...\n      DUP5 \t\t\t to\n      MSTORE \t\t\tom, to, tokenIDs[i], amounts[i...\n      PUSH 20\t\t\t\n      DUP5 \t\t\t\n      ADD \t\t\t\n      SWAP4 \t\t\t\n      POP \t\t\t\n      POP \t\t\tied(tokenIDs[i]);\\r\\n         ...\n      PUSH 20\t\t\tckAl\n      DUP2 \t\t\t _c\n      ADD \t\t\t     _checkAll\n      SWAP1 \t\t\t            _checkAll\n      POP \t\t\t            _checkAll\n      PUSH [tag] 703\t\t\t         // Enforce per-token ...\n      JUMP \t\t\t         // Enforce per-token ...\n    tag 705\t\t\t         // Enforce per-token ...\n      JUMPDEST \t\t\t         // Enforce per-token ...\n      POP \t\t\t     // Enforce per-t\n      POP \t\t\t,\\r\\n        address to,\\r\\n  ...\n      POP \t\t\t,\\r\\n        address to,\\r\\n  ...\n      SWAP4 \t\t\t(from, to, tokenID, amount, da...\n      SWAP3 \t\t\t(from, to, tokenID, amount, da...\n      POP \t\t\t(from, to, tokenID, amount, da...\n      POP \t\t\t(from, to, tokenID, amount, da...\n      POP \t\t\t(from, to, tokenID, amount, da...\n      JUMP \t\t\t(from, to, tokenID, amount, da...\n    tag 531\t\t\t\n      JUMPDEST \t\t\t\n      PUSH 0\t\t\t\n      DUP3 \t\t\t\n      PUSH 1F\t\t\t\n      DUP4 \t\t\t\n      ADD \t\t\t\n      SLT \t\t\t\n      PUSH [tag] 708\t\t\t\n      JUMPI \t\t\t\n      PUSH [tag] 709\t\t\t\n      PUSH [tag] 525\t\t\t\n      JUMP \t\t\t\n    tag 709\t\t\t\n      JUMPDEST \t\t\t\n    tag 708\t\t\t\n      JUMPDEST \t\t\t\n      DUP2 \t\t\t\n      CALLDATALOAD \t\t\t\n      PUSH [tag] 710\t\t\t\n      DUP5 \t\t\t\n      DUP3 \t\t\t\n      PUSH 20\t\t\t\n      DUP7 \t\t\t\n      ADD \t\t\t\n      PUSH [tag] 530\t\t\t\n      JUMP \t\t\t\n    tag 710\t\t\t\n      JUMPDEST \t\t\t\n      SWAP2 \t\t\t\n      POP \t\t\t\n      POP \t\t\t\n      SWAP3 \t\t\t\n      SWAP2 \t\t\t\n      POP \t\t\t\n      POP \t\t\t\n      JUMP \t\t\t\n    tag 532\t\t\t\n      JUMPDEST \t\t\t\n      PUSH 0\t\t\t\n      PUSH 0\t\t\t\n      REVERT \t\t\t\n    tag 533\t\t\t\n      JUMPDEST \t\t\t\n      PUSH 0\t\t\t\n      PUSH FFFFFFFFFFFFFFFF\t\t\t\n      DUP3 \t\t\t\n      GT \t\t\t\n      ISZERO \t\t\t\n      PUSH [tag] 713\t\t\t\n      JUMPI \t\t\t\n      PUSH [tag] 714\t\t\t\n      PUSH [tag] 242\t\t\t\n      JUMP \t\t\t\n    tag 714\t\t\t\n      JUMPDEST \t\t\t\n    tag 713\t\t\t\n      JUMPDEST \t\t\t\n      PUSH [tag] 715\t\t\t\n      DUP3 \t\t\t\n      PUSH [tag] 518\t\t\t\n      JUMP \t\t\t\n    tag 715\t\t\t\n      JUMPDEST \t\t\t\n      SWAP1 \t\t\t\n      POP \t\t\t\n      PUSH 20\t\t\t\n      DUP2 \t\t\t\n      ADD \t\t\t\n      SWAP1 \t\t\t\n      POP \t\t\t\n      SWAP2 \t\t\t\n      SWAP1 \t\t\t\n      POP \t\t\t\n      JUMP \t\t\t\n    tag 534\t\t\t\n      JUMPDEST \t\t\t\n      DUP3 \t\t\t\n      DUP2 \t\t\t\n      DUP4 \t\t\t\n      CALLDATACOPY \t\t\t\n      PUSH 0\t\t\t\n      DUP4 \t\t\t\n      DUP4 \t\t\t\n      ADD \t\t\t\n      MSTORE \t\t\t\n      POP \t\t\t\n      POP \t\t\t\n      POP \t\t\t\n      JUMP \t\t\t\n    tag 535\t\t\t\n      JUMPDEST \t\t\t\n      PUSH 0\t\t\t\n      PUSH [tag] 718\t\t\t\n      PUSH [tag] 719\t\t\t\n      DUP5 \t\t\t\n      PUSH [tag] 533\t\t\t\n      JUMP \t\t\t\n    tag 719\t\t\t\n      JUMPDEST \t\t\t\n      PUSH [tag] 527\t\t\t\n      JUMP \t\t\t\n    tag 718\t\t\t\n      JUMPDEST \t\t\t\n      SWAP1 \t\t\t\n      POP \t\t\t\n      DUP3 \t\t\t\n      DUP2 \t\t\t\n      MSTORE \t\t\t\n      PUSH 20\t\t\t\n      DUP2 \t\t\t\n      ADD \t\t\t\n      DUP5 \t\t\t\n      DUP5 \t\t\t\n      DUP5 \t\t\t\n      ADD \t\t\t\n      GT \t\t\t\n      ISZERO \t\t\t\n      PUSH [tag] 720\t\t\t\n      JUMPI \t\t\t\n      PUSH [tag] 721\t\t\t\n      PUSH [tag] 532\t\t\t\n      JUMP \t\t\t\n    tag 721\t\t\t\n      JUMPDEST \t\t\t\n    tag 720\t\t\t\n      JUMPDEST \t\t\t\n      PUSH [tag] 722\t\t\t\n      DUP5 \t\t\t\n      DUP3 \t\t\t\n      DUP6 \t\t\t\n      PUSH [tag] 534\t\t\t\n      JUMP \t\t\t\n    tag 722\t\t\t\n      JUMPDEST \t\t\t\n      POP \t\t\t\n      SWAP4 \t\t\t\n      SWAP3 \t\t\t\n      POP \t\t\t\n      POP \t\t\t\n      POP \t\t\t\n      JUMP \t\t\t\n    tag 536\t\t\t\n      JUMPDEST \t\t\t\n      PUSH 0\t\t\t\n      DUP3 \t\t\t\n      PUSH 1F\t\t\t\n      DUP4 \t\t\t\n      ADD \t\t\t\n      SLT \t\t\t\n      PUSH [tag] 724\t\t\t\n      JUMPI \t\t\t\n      PUSH [tag] 725\t\t\t\n      PUSH [tag] 525\t\t\t\n      JUMP \t\t\t\n    tag 725\t\t\t\n      JUMPDEST \t\t\t\n    tag 724\t\t\t\n      JUMPDEST \t\t\t\n      DUP2 \t\t\t\n      CALLDATALOAD \t\t\t\n      PUSH [tag] 726\t\t\t\n      DUP5 \t\t\t\n      DUP3 \t\t\t\n      PUSH 20\t\t\t\n      DUP7 \t\t\t\n      ADD \t\t\t\n      PUSH [tag] 535\t\t\t\n      JUMP \t\t\t\n    tag 726\t\t\t\n      JUMPDEST \t\t\t\n      SWAP2 \t\t\t\n      POP \t\t\t\n      POP \t\t\t\n      SWAP3 \t\t\t\n      SWAP2 \t\t\t\n      POP \t\t\t\n      POP \t\t\t\n      JUMP \t\t\t\n    tag 62\t\t\t\n      JUMPDEST \t\t\t\n      PUSH 0\t\t\t\n      PUSH 0\t\t\t\n      PUSH 0\t\t\t\n      PUSH 0\t\t\t\n      PUSH 0\t\t\t\n      PUSH A0\t\t\t\n      DUP7 \t\t\t\n      DUP9 \t\t\t\n      SUB \t\t\t\n      SLT \t\t\t\n      ISZERO \t\t\t\n      PUSH [tag] 728\t\t\t\n      JUMPI \t\t\t\n      PUSH [tag] 729\t\t\t\n      PUSH [tag] 500\t\t\t\n      JUMP \t\t\t\n    tag 729\t\t\t\n      JUMPDEST \t\t\t\n    tag 728\t\t\t\n      JUMPDEST \t\t\t\n      PUSH 0\t\t\t\n      PUSH [tag] 730\t\t\t\n      DUP9 \t\t\t\n      DUP3 \t\t\t\n      DUP10 \t\t\t\n      ADD \t\t\t\n      PUSH [tag] 505\t\t\t\n      JUMP \t\t\t\n    tag 730\t\t\t\n      JUMPDEST \t\t\t\n      SWAP6 \t\t\t\n      POP \t\t\t\n      POP \t\t\t\n      PUSH 20\t\t\t\n      PUSH [tag] 731\t\t\t\n      DUP9 \t\t\t\n      DUP3 \t\t\t\n      DUP10 \t\t\t\n      ADD \t\t\t\n      PUSH [tag] 505\t\t\t\n      JUMP \t\t\t\n    tag 731\t\t\t\n      JUMPDEST \t\t\t\n      SWAP5 \t\t\t\n      POP \t\t\t\n      POP \t\t\t\n      PUSH 40\t\t\t\n      DUP7 \t\t\t\n      ADD \t\t\t\n      CALLDATALOAD \t\t\t\n      PUSH FFFFFFFFFFFFFFFF\t\t\t\n      DUP2 \t\t\t\n      GT \t\t\t\n      ISZERO \t\t\t\n      PUSH [tag] 732\t\t\t\n      JUMPI \t\t\t\n      PUSH [tag] 733\t\t\t\n      PUSH [tag] 501\t\t\t\n      JUMP \t\t\t\n    tag 733\t\t\t\n      JUMPDEST \t\t\t\n    tag 732\t\t\t\n      JUMPDEST \t\t\t\n      PUSH [tag] 734\t\t\t\n      DUP9 \t\t\t\n      DUP3 \t\t\t\n      DUP10 \t\t\t\n      ADD \t\t\t\n      PUSH [tag] 531\t\t\t\n      JUMP \t\t\t\n    tag 734\t\t\t\n      JUMPDEST \t\t\t\n      SWAP4 \t\t\t\n      POP \t\t\t\n      POP \t\t\t\n      PUSH 60\t\t\t\n      DUP7 \t\t\t\n      ADD \t\t\t\n      CALLDATALOAD \t\t\t\n      PUSH FFFFFFFFFFFFFFFF\t\t\t\n      DUP2 \t\t\t\n      GT \t\t\t\n      ISZERO \t\t\t\n      PUSH [tag] 735\t\t\t\n      JUMPI \t\t\t\n      PUSH [tag] 736\t\t\t\n      PUSH [tag] 501\t\t\t\n      JUMP \t\t\t\n    tag 736\t\t\t\n      JUMPDEST \t\t\t\n    tag 735\t\t\t\n      JUMPDEST \t\t\t\n      PUSH [tag] 737\t\t\t\n      DUP9 \t\t\t\n      DUP3 \t\t\t\n      DUP10 \t\t\t\n      ADD \t\t\t\n      PUSH [tag] 531\t\t\t\n      JUMP \t\t\t\n    tag 737\t\t\t\n      JUMPDEST \t\t\t\n      SWAP3 \t\t\t\n      POP \t\t\t\n      POP \t\t\t\n      PUSH 80\t\t\t\n      DUP7 \t\t\t\n      ADD \t\t\t\n      CALLDATALOAD \t\t\t\n      PUSH FFFFFFFFFFFFFFFF\t\t\t\n      DUP2 \t\t\t\n      GT \t\t\t\n      ISZERO \t\t\t\n      PUSH [tag] 738\t\t\t\n      JUMPI \t\t\t\n      PUSH [tag] 739\t\t\t\n      PUSH [tag] 501\t\t\t\n      JUMP \t\t\t\n    tag 739\t\t\t\n      JUMPDEST \t\t\t\n    tag 738\t\t\t\n      JUMPDEST \t\t\t\n      PUSH [tag] 740\t\t\t\n      DUP9 \t\t\t\n      DUP3 \t\t\t\n      DUP10 \t\t\t\n      ADD \t\t\t\n      PUSH [tag] 536\t\t\t\n      JUMP \t\t\t\n    tag 740\t\t\t\n      JUMPDEST \t\t\t\n      SWAP2 \t\t\t\n      POP \t\t\t\n      POP \t\t\t\n      SWAP3 \t\t\t\n      SWAP6 \t\t\t\n      POP \t\t\t\n      SWAP3 \t\t\t\n      SWAP6 \t\t\t\n      SWAP1 \t\t\t\n      SWAP4 \t\t\t\n      POP \t\t\t\n      JUMP \t\t\t\n    tag 537\t\t\t\n      JUMPDEST \t\t\t\n      PUSH 0\t\t\t\n      DUP2 \t\t\t\n      MLOAD \t\t\t\n      SWAP1 \t\t\t\n      POP \t\t\t\n      SWAP2 \t\t\t\n      SWAP1 \t\t\t\n      POP \t\t\t\n      JUMP \t\t\t\n    tag 538\t\t\t\n      JUMPDEST \t\t\t\n      PUSH 0\t\t\t\n      DUP3 \t\t\t\n      DUP3 \t\t\t\n      MSTORE \t\t\t\n      PUSH 20\t\t\t\n      DUP3 \t\t\t\n      ADD \t\t\t\n      SWAP1 \t\t\t\n      POP \t\t\t\n      SWAP3 \t\t\t\n      SWAP2 \t\t\t\n      POP \t\t\t\n      POP \t\t\t\n      JUMP \t\t\t\n    tag 539\t\t\t\n      JUMPDEST \t\t\t\n      PUSH 0\t\t\t\n      DUP2 \t\t\t\n      SWAP1 \t\t\t\n      POP \t\t\t\n      PUSH 20\t\t\t\n      DUP3 \t\t\t\n      ADD \t\t\t\n      SWAP1 \t\t\t\n      POP \t\t\t\n      SWAP2 \t\t\t\n      SWAP1 \t\t\t\n      POP \t\t\t\n      JUMP \t\t\t\n    tag 540\t\t\t\n      JUMPDEST \t\t\t\n      PUSH [tag] 745\t\t\t\n      DUP2 \t\t\t\n      PUSH [tag] 503\t\t\t\n      JUMP \t\t\t\n    tag 745\t\t\t\n      JUMPDEST \t\t\t\n      DUP3 \t\t\t\n      MSTORE \t\t\t\n      POP \t\t\t\n      POP \t\t\t\n      JUMP \t\t\t\n    tag 541\t\t\t\n      JUMPDEST \t\t\t\n      PUSH 0\t\t\t\n      PUSH [tag] 747\t\t\t\n      DUP4 \t\t\t\n      DUP4 \t\t\t\n      PUSH [tag] 540\t\t\t\n      JUMP \t\t\t\n    tag 747\t\t\t\n      JUMPDEST \t\t\t\n      PUSH 20\t\t\t\n      DUP4 \t\t\t\n      ADD \t\t\t\n      SWAP1 \t\t\t\n      POP \t\t\t\n      SWAP3 \t\t\t\n      SWAP2 \t\t\t\n      POP \t\t\t\n      POP \t\t\t\n      JUMP \t\t\t\n    tag 542\t\t\t\n      JUMPDEST \t\t\t\n      PUSH 0\t\t\t\n      PUSH 20\t\t\t\n      DUP3 \t\t\t\n      ADD \t\t\t\n      SWAP1 \t\t\t\n      POP \t\t\t\n      SWAP2 \t\t\t\n      SWAP1 \t\t\t\n      POP \t\t\t\n      JUMP \t\t\t\n    tag 543\t\t\t\n      JUMPDEST \t\t\t\n      PUSH 0\t\t\t\n      PUSH [tag] 750\t\t\t\n      DUP3 \t\t\t\n      PUSH [tag] 537\t\t\t\n      JUMP \t\t\t\n    tag 750\t\t\t\n      JUMPDEST \t\t\t\n      PUSH [tag] 751\t\t\t\n      DUP2 \t\t\t\n      DUP6 \t\t\t\n      PUSH [tag] 538\t\t\t\n      JUMP \t\t\t\n    tag 751\t\t\t\n      JUMPDEST \t\t\t\n      SWAP4 \t\t\t\n      POP \t\t\t\n      PUSH [tag] 752\t\t\t\n      DUP4 \t\t\t\n      PUSH [tag] 539\t\t\t\n      JUMP \t\t\t\n    tag 752\t\t\t\n      JUMPDEST \t\t\t\n      DUP1 \t\t\t\n      PUSH 0\t\t\t\n    tag 753\t\t\t\n      JUMPDEST \t\t\t\n      DUP4 \t\t\t\n      DUP2 \t\t\t\n      LT \t\t\t\n      ISZERO \t\t\t\n      PUSH [tag] 755\t\t\t\n      JUMPI \t\t\t\n      DUP2 \t\t\t\n      MLOAD \t\t\t\n      PUSH [tag] 756\t\t\t\n      DUP9 \t\t\t\n      DUP3 \t\t\t\n      PUSH [tag] 541\t\t\t\n      JUMP \t\t\t\n    tag 756\t\t\t\n      JUMPDEST \t\t\t\n      SWAP8 \t\t\t\n      POP \t\t\t\n      PUSH [tag] 757\t\t\t\n      DUP4 \t\t\t\n      PUSH [tag] 542\t\t\t\n      JUMP \t\t\t\n    tag 757\t\t\t\n      JUMPDEST \t\t\t\n      SWAP3 \t\t\t\n      POP \t\t\t\n      POP \t\t\t\n      PUSH 1\t\t\t\n      DUP2 \t\t\t\n      ADD \t\t\t\n      SWAP1 \t\t\t\n      POP \t\t\t\n      PUSH [tag] 753\t\t\t\n      JUMP \t\t\t\n    tag 755\t\t\t\n      JUMPDEST \t\t\t\n      POP \t\t\t\n      DUP6 \t\t\t\n      SWAP4 \t\t\t\n      POP \t\t\t\n      POP \t\t\t\n      POP \t\t\t\n      POP \t\t\t\n      SWAP3 \t\t\t\n      SWAP2 \t\t\t\n      POP \t\t\t\n      POP \t\t\t\n      JUMP \t\t\t\n    tag 67\t\t\t\n      JUMPDEST \t\t\t\n      PUSH 0\t\t\t\n      PUSH 20\t\t\t\n      DUP3 \t\t\t\n      ADD \t\t\t\n      SWAP1 \t\t\t\n      POP \t\t\t\n      DUP2 \t\t\t\n      DUP2 \t\t\t\n      SUB \t\t\t\n      PUSH 0\t\t\t\n      DUP4 \t\t\t\n      ADD \t\t\t\n      MSTORE \t\t\t\n      PUSH [tag] 759\t\t\t\n      DUP2 \t\t\t\n      DUP5 \t\t\t\n      PUSH [tag] 543\t\t\t\n      JUMP \t\t\t\n    tag 759\t\t\t\n      JUMPDEST \t\t\t\n      SWAP1 \t\t\t\n      POP \t\t\t\n      SWAP3 \t\t\t\n      SWAP2 \t\t\t\n      POP \t\t\t\n      POP \t\t\t\n      JUMP \t\t\t\n    tag 544\t\t\t\n      JUMPDEST \t\t\t\n      PUSH 0\t\t\t\n      PUSH FFFFFFFFFFFFFFFF\t\t\t\n      DUP3 \t\t\t\n      AND \t\t\t\n      SWAP1 \t\t\t\n      POP \t\t\t\n      SWAP2 \t\t\t\n      SWAP1 \t\t\t\n      POP \t\t\t\n      JUMP \t\t\t\n    tag 545\t\t\t\n      JUMPDEST \t\t\t\n      PUSH [tag] 762\t\t\t\n      DUP2 \t\t\t\n      PUSH [tag] 544\t\t\t\n      JUMP \t\t\t\n    tag 762\t\t\t\n      JUMPDEST \t\t\t\n      DUP2 \t\t\t\n      EQ \t\t\t\n      PUSH [tag] 763\t\t\t\n      JUMPI \t\t\t\n      PUSH 0\t\t\t\n      PUSH 0\t\t\t\n      REVERT \t\t\t\n    tag 763\t\t\t\n      JUMPDEST \t\t\t\n      POP \t\t\t\n      JUMP \t\t\t\n    tag 546\t\t\t\n      JUMPDEST \t\t\t\n      PUSH 0\t\t\t\n      DUP2 \t\t\t\n      CALLDATALOAD \t\t\t\n      SWAP1 \t\t\t\n      POP \t\t\t\n      PUSH [tag] 765\t\t\t\n      DUP2 \t\t\t\n      PUSH [tag] 545\t\t\t\n      JUMP \t\t\t\n    tag 765\t\t\t\n      JUMPDEST \t\t\t\n      SWAP3 \t\t\t\n      SWAP2 \t\t\t\n      POP \t\t\t\n      POP \t\t\t\n      JUMP \t\t\t\n    tag 70\t\t\t\n      JUMPDEST \t\t\t\n      PUSH 0\t\t\t\n      PUSH 0\t\t\t\n      PUSH 40\t\t\t\n      DUP4 \t\t\t\n      DUP6 \t\t\t\n      SUB \t\t\t\n      SLT \t\t\t\n      ISZERO \t\t\t\n      PUSH [tag] 767\t\t\t\n      JUMPI \t\t\t\n      PUSH [tag] 768\t\t\t\n      PUSH [tag] 500\t\t\t\n      JUMP \t\t\t\n    tag 768\t\t\t\n      JUMPDEST \t\t\t\n    tag 767\t\t\t\n      JUMPDEST \t\t\t\n      PUSH 0\t\t\t\n      PUSH [tag] 769\t\t\t\n      DUP6 \t\t\t\n      DUP3 \t\t\t\n      DUP7 \t\t\t\n      ADD \t\t\t\n      PUSH [tag] 508\t\t\t\n      JUMP \t\t\t\n    tag 769\t\t\t\n      JUMPDEST \t\t\t\n      SWAP3 \t\t\t\n      POP \t\t\t\n      POP \t\t\t\n      PUSH 20\t\t\t\n      PUSH [tag] 770\t\t\t\n      DUP6 \t\t\t\n      DUP3 \t\t\t\n      DUP7 \t\t\t\n      ADD \t\t\t\n      PUSH [tag] 546\t\t\t\n      JUMP \t\t\t\n    tag 770\t\t\t\n      JUMPDEST \t\t\t\n      SWAP2 \t\t\t\n      POP \t\t\t\n      POP \t\t\t\n      SWAP3 \t\t\t\n      POP \t\t\t\n      SWAP3 \t\t\t\n      SWAP1 \t\t\t\n      POP \t\t\t\n      JUMP \t\t\t\n    tag 547\t\t\t\n      JUMPDEST \t\t\t\n      PUSH 0\t\t\t\n      PUSH FFFFFFFFFFFFFFFF\t\t\t\n      DUP3 \t\t\t\n      GT \t\t\t\n      ISZERO \t\t\t\n      PUSH [tag] 772\t\t\t\n      JUMPI \t\t\t\n      PUSH [tag] 773\t\t\t\n      PUSH [tag] 242\t\t\t\n      JUMP \t\t\t\n    tag 773\t\t\t\n      JUMPDEST \t\t\t\n    tag 772\t\t\t\n      JUMPDEST \t\t\t\n      PUSH 20\t\t\t\n      DUP3 \t\t\t\n      MUL \t\t\t\n      SWAP1 \t\t\t\n      POP \t\t\t\n      PUSH 20\t\t\t\n      DUP2 \t\t\t\n      ADD \t\t\t\n      SWAP1 \t\t\t\n      POP \t\t\t\n      SWAP2 \t\t\t\n      SWAP1 \t\t\t\n      POP \t\t\t\n      JUMP \t\t\t\n    tag 548\t\t\t\n      JUMPDEST \t\t\t\n      PUSH 0\t\t\t\n      PUSH [tag] 775\t\t\t\n      PUSH [tag] 776\t\t\t\n      DUP5 \t\t\t\n      PUSH [tag] 547\t\t\t\n      JUMP \t\t\t\n    tag 776\t\t\t\n      JUMPDEST \t\t\t\n      PUSH [tag] 527\t\t\t\n      JUMP \t\t\t\n    tag 775\t\t\t\n      JUMPDEST \t\t\t\n      SWAP1 \t\t\t\n      POP \t\t\t\n      DUP1 \t\t\t\n      DUP4 \t\t\t\n      DUP3 \t\t\t\n      MSTORE \t\t\t\n      PUSH 20\t\t\t\n      DUP3 \t\t\t\n      ADD \t\t\t\n      SWAP1 \t\t\t\n      POP \t\t\t\n      PUSH 20\t\t\t\n      DUP5 \t\t\t\n      MUL \t\t\t\n      DUP4 \t\t\t\n      ADD \t\t\t\n      DUP6 \t\t\t\n      DUP2 \t\t\t\n      GT \t\t\t\n      ISZERO \t\t\t\n      PUSH [tag] 777\t\t\t\n      JUMPI \t\t\t\n      PUSH [tag] 778\t\t\t\n      PUSH [tag] 529\t\t\t\n      JUMP \t\t\t\n    tag 778\t\t\t\n      JUMPDEST \t\t\t\n    tag 777\t\t\t\n      JUMPDEST \t\t\t\n      DUP4 \t\t\t\n    tag 779\t\t\t\n      JUMPDEST \t\t\t\n      DUP2 \t\t\t\n      DUP2 \t\t\t\n      LT \t\t\t\n      ISZERO \t\t\t\n      PUSH [tag] 781\t\t\t\n      JUMPI \t\t\t\n      DUP1 \t\t\t\n      PUSH [tag] 782\t\t\t\n      DUP9 \t\t\t\n      DUP3 \t\t\t\n      PUSH [tag] 505\t\t\t\n      JUMP \t\t\t\n    tag 782\t\t\t\n      JUMPDEST \t\t\t\n      DUP5 \t\t\t\n      MSTORE \t\t\t\n      PUSH 20\t\t\t\n      DUP5 \t\t\t\n      ADD \t\t\t\n      SWAP4 \t\t\t\n      POP \t\t\t\n      POP \t\t\t\n      PUSH 20\t\t\t\n      DUP2 \t\t\t\n      ADD \t\t\t\n      SWAP1 \t\t\t\n      POP \t\t\t\n      PUSH [tag] 779\t\t\t\n      JUMP \t\t\t\n    tag 781\t\t\t\n      JUMPDEST \t\t\t\n      POP \t\t\t\n      POP \t\t\t\n      POP \t\t\t\n      SWAP4 \t\t\t\n      SWAP3 \t\t\t\n      POP \t\t\t\n      POP \t\t\t\n      POP \t\t\t\n      JUMP \t\t\t\n    tag 549\t\t\t\n      JUMPDEST \t\t\t\n      PUSH 0\t\t\t\n      DUP3 \t\t\t\n      PUSH 1F\t\t\t\n      DUP4 \t\t\t\n      ADD \t\t\t\n      SLT \t\t\t\n      PUSH [tag] 784\t\t\t\n      JUMPI \t\t\t\n      PUSH [tag] 785\t\t\t\n      PUSH [tag] 525\t\t\t\n      JUMP \t\t\t\n    tag 785\t\t\t\n      JUMPDEST \t\t\t\n    tag 784\t\t\t\n      JUMPDEST \t\t\t\n      DUP2 \t\t\t\n      CALLDATALOAD \t\t\t\n      PUSH [tag] 786\t\t\t\n      DUP5 \t\t\t\n      DUP3 \t\t\t\n      PUSH 20\t\t\t\n      DUP7 \t\t\t\n      ADD \t\t\t\n      PUSH [tag] 548\t\t\t\n      JUMP \t\t\t\n    tag 786\t\t\t\n      JUMPDEST \t\t\t\n      SWAP2 \t\t\t\n      POP \t\t\t\n      POP \t\t\t\n      SWAP3 \t\t\t\n      SWAP2 \t\t\t\n      POP \t\t\t\n      POP \t\t\t\n      JUMP \t\t\t\n    tag 74\t\t\t\n      JUMPDEST \t\t\t\n      PUSH 0\t\t\t\n      PUSH 0\t\t\t\n      PUSH 40\t\t\t\n      DUP4 \t\t\t\n      DUP6 \t\t\t\n      SUB \t\t\t\n      SLT \t\t\t\n      ISZERO \t\t\t\n      PUSH [tag] 788\t\t\t\n      JUMPI \t\t\t\n      PUSH [tag] 789\t\t\t\n      PUSH [tag] 500\t\t\t\n      JUMP \t\t\t\n    tag 789\t\t\t\n      JUMPDEST \t\t\t\n    tag 788\t\t\t\n      JUMPDEST \t\t\t\n      PUSH 0\t\t\t\n      DUP4 \t\t\t\n      ADD \t\t\t\n      CALLDATALOAD \t\t\t\n      PUSH FFFFFFFFFFFFFFFF\t\t\t\n      DUP2 \t\t\t\n      GT \t\t\t\n      ISZERO \t\t\t\n      PUSH [tag] 790\t\t\t\n      JUMPI \t\t\t\n      PUSH [tag] 791\t\t\t\n      PUSH [tag] 501\t\t\t\n      JUMP \t\t\t\n    tag 791\t\t\t\n      JUMPDEST \t\t\t\n    tag 790\t\t\t\n      JUMPDEST \t\t\t\n      PUSH [tag] 792\t\t\t\n      DUP6 \t\t\t\n      DUP3 \t\t\t\n      DUP7 \t\t\t\n      ADD \t\t\t\n      PUSH [tag] 549\t\t\t\n      JUMP \t\t\t\n    tag 792\t\t\t\n      JUMPDEST \t\t\t\n      SWAP3 \t\t\t\n      POP \t\t\t\n      POP \t\t\t\n      PUSH 20\t\t\t\n      DUP4 \t\t\t\n      ADD \t\t\t\n      CALLDATALOAD \t\t\t\n      PUSH FFFFFFFFFFFFFFFF\t\t\t\n      DUP2 \t\t\t\n      GT \t\t\t\n      ISZERO \t\t\t\n      PUSH [tag] 793\t\t\t\n      JUMPI \t\t\t\n      PUSH [tag] 794\t\t\t\n      PUSH [tag] 501\t\t\t\n      JUMP \t\t\t\n    tag 794\t\t\t\n      JUMPDEST \t\t\t\n    tag 793\t\t\t\n      JUMPDEST \t\t\t\n      PUSH [tag] 795\t\t\t\n      DUP6 \t\t\t\n      DUP3 \t\t\t\n      DUP7 \t\t\t\n      ADD \t\t\t\n      PUSH [tag] 531\t\t\t\n      JUMP \t\t\t\n    tag 795\t\t\t\n      JUMPDEST \t\t\t\n      SWAP2 \t\t\t\n      POP \t\t\t\n      POP \t\t\t\n      SWAP3 \t\t\t\n      POP \t\t\t\n      SWAP3 \t\t\t\n      SWAP1 \t\t\t\n      POP \t\t\t\n      JUMP \t\t\t\n    tag 550\t\t\t\n      JUMPDEST \t\t\t\n      PUSH 0\t\t\t\n      DUP2 \t\t\t\n      MLOAD \t\t\t\n      SWAP1 \t\t\t\n      POP \t\t\t\n      SWAP2 \t\t\t\n      SWAP1 \t\t\t\n      POP \t\t\t\n      JUMP \t\t\t\n    tag 551\t\t\t\n      JUMPDEST \t\t\t\n      PUSH 0\t\t\t\n      DUP3 \t\t\t\n      DUP3 \t\t\t\n      MSTORE \t\t\t\n      PUSH 20\t\t\t\n      DUP3 \t\t\t\n      ADD \t\t\t\n      SWAP1 \t\t\t\n      POP \t\t\t\n      SWAP3 \t\t\t\n      SWAP2 \t\t\t\n      POP \t\t\t\n      POP \t\t\t\n      JUMP \t\t\t\n    tag 552\t\t\t\n      JUMPDEST \t\t\t\n      PUSH 0\t\t\t\n      DUP2 \t\t\t\n      SWAP1 \t\t\t\n      POP \t\t\t\n      PUSH 20\t\t\t\n      DUP3 \t\t\t\n      ADD \t\t\t\n      SWAP1 \t\t\t\n      POP \t\t\t\n      SWAP2 \t\t\t\n      SWAP1 \t\t\t\n      POP \t\t\t\n      JUMP \t\t\t\n    tag 553\t\t\t\n      JUMPDEST \t\t\t\n      PUSH [tag] 800\t\t\t\n      DUP2 \t\t\t\n      PUSH [tag] 506\t\t\t\n      JUMP \t\t\t\n    tag 800\t\t\t\n      JUMPDEST \t\t\t\n      DUP3 \t\t\t\n      MSTORE \t\t\t\n      POP \t\t\t\n      POP \t\t\t\n      JUMP \t\t\t\n    tag 554\t\t\t\n      JUMPDEST \t\t\t\n      PUSH 0\t\t\t\n      PUSH [tag] 802\t\t\t\n      DUP4 \t\t\t\n      DUP4 \t\t\t\n      PUSH [tag] 553\t\t\t\n      JUMP \t\t\t\n    tag 802\t\t\t\n      JUMPDEST \t\t\t\n      PUSH 20\t\t\t\n      DUP4 \t\t\t\n      ADD \t\t\t\n      SWAP1 \t\t\t\n      POP \t\t\t\n      SWAP3 \t\t\t\n      SWAP2 \t\t\t\n      POP \t\t\t\n      POP \t\t\t\n      JUMP \t\t\t\n    tag 555\t\t\t\n      JUMPDEST \t\t\t\n      PUSH 0\t\t\t\n      PUSH 20\t\t\t\n      DUP3 \t\t\t\n      ADD \t\t\t\n      SWAP1 \t\t\t\n      POP \t\t\t\n      SWAP2 \t\t\t\n      SWAP1 \t\t\t\n      POP \t\t\t\n      JUMP \t\t\t\n    tag 556\t\t\t\n      JUMPDEST \t\t\t\n      PUSH 0\t\t\t\n      PUSH [tag] 805\t\t\t\n      DUP3 \t\t\t\n      PUSH [tag] 550\t\t\t\n      JUMP \t\t\t\n    tag 805\t\t\t\n      JUMPDEST \t\t\t\n      PUSH [tag] 806\t\t\t\n      DUP2 \t\t\t\n      DUP6 \t\t\t\n      PUSH [tag] 551\t\t\t\n      JUMP \t\t\t\n    tag 806\t\t\t\n      JUMPDEST \t\t\t\n      SWAP4 \t\t\t\n      POP \t\t\t\n      PUSH [tag] 807\t\t\t\n      DUP4 \t\t\t\n      PUSH [tag] 552\t\t\t\n      JUMP \t\t\t\n    tag 807\t\t\t\n      JUMPDEST \t\t\t\n      DUP1 \t\t\t\n      PUSH 0\t\t\t\n    tag 808\t\t\t\n      JUMPDEST \t\t\t\n      DUP4 \t\t\t\n      DUP2 \t\t\t\n      LT \t\t\t\n      ISZERO \t\t\t\n      PUSH [tag] 810\t\t\t\n      JUMPI \t\t\t\n      DUP2 \t\t\t\n      MLOAD \t\t\t\n      PUSH [tag] 811\t\t\t\n      DUP9 \t\t\t\n      DUP3 \t\t\t\n      PUSH [tag] 554\t\t\t\n      JUMP \t\t\t\n    tag 811\t\t\t\n      JUMPDEST \t\t\t\n      SWAP8 \t\t\t\n      POP \t\t\t\n      PUSH [tag] 812\t\t\t\n      DUP4 \t\t\t\n      PUSH [tag] 555\t\t\t\n      JUMP \t\t\t\n    tag 812\t\t\t\n      JUMPDEST \t\t\t\n      SWAP3 \t\t\t\n      POP \t\t\t\n      POP \t\t\t\n      PUSH 1\t\t\t\n      DUP2 \t\t\t\n      ADD \t\t\t\n      SWAP1 \t\t\t\n      POP \t\t\t\n      PUSH [tag] 808\t\t\t\n      JUMP \t\t\t\n    tag 810\t\t\t\n      JUMPDEST \t\t\t\n      POP \t\t\t\n      DUP6 \t\t\t\n      SWAP4 \t\t\t\n      POP \t\t\t\n      POP \t\t\t\n      POP \t\t\t\n      POP \t\t\t\n      SWAP3 \t\t\t\n      SWAP2 \t\t\t\n      POP \t\t\t\n      POP \t\t\t\n      JUMP \t\t\t\n    tag 77\t\t\t\n      JUMPDEST \t\t\t\n      PUSH 0\t\t\t\n      PUSH 20\t\t\t\n      DUP3 \t\t\t\n      ADD \t\t\t\n      SWAP1 \t\t\t\n      POP \t\t\t\n      DUP2 \t\t\t\n      DUP2 \t\t\t\n      SUB \t\t\t\n      PUSH 0\t\t\t\n      DUP4 \t\t\t\n      ADD \t\t\t\n      MSTORE \t\t\t\n      PUSH [tag] 814\t\t\t\n      DUP2 \t\t\t\n      DUP5 \t\t\t\n      PUSH [tag] 556\t\t\t\n      JUMP \t\t\t\n    tag 814\t\t\t\n      JUMPDEST \t\t\t\n      SWAP1 \t\t\t\n      POP \t\t\t\n      SWAP3 \t\t\t\n      SWAP2 \t\t\t\n      POP \t\t\t\n      POP \t\t\t\n      JUMP \t\t\t\n    tag 557\t\t\t\n      JUMPDEST \t\t\t\n      PUSH 0\t\t\t\n      PUSH 0\t\t\t\n      REVERT \t\t\t\n    tag 558\t\t\t\n      JUMPDEST \t\t\t\n      PUSH 0\t\t\t\n      PUSH 0\t\t\t\n      DUP4 \t\t\t\n      PUSH 1F\t\t\t\n      DUP5 \t\t\t\n      ADD \t\t\t\n      SLT \t\t\t\n      PUSH [tag] 817\t\t\t\n      JUMPI \t\t\t\n      PUSH [tag] 818\t\t\t\n      PUSH [tag] 525\t\t\t\n      JUMP \t\t\t\n    tag 818\t\t\t\n      JUMPDEST \t\t\t\n    tag 817\t\t\t\n      JUMPDEST \t\t\t\n      DUP3 \t\t\t\n      CALLDATALOAD \t\t\t\n      SWAP1 \t\t\t\n      POP \t\t\t\n      PUSH FFFFFFFFFFFFFFFF\t\t\t\n      DUP2 \t\t\t\n      GT \t\t\t\n      ISZERO \t\t\t\n      PUSH [tag] 819\t\t\t\n      JUMPI \t\t\t\n      PUSH [tag] 820\t\t\t\n      PUSH [tag] 557\t\t\t\n      JUMP \t\t\t\n    tag 820\t\t\t\n      JUMPDEST \t\t\t\n    tag 819\t\t\t\n      JUMPDEST \t\t\t\n      PUSH 20\t\t\t\n      DUP4 \t\t\t\n      ADD \t\t\t\n      SWAP2 \t\t\t\n      POP \t\t\t\n      DUP4 \t\t\t\n      PUSH 1\t\t\t\n      DUP3 \t\t\t\n      MUL \t\t\t\n      DUP4 \t\t\t\n      ADD \t\t\t\n      GT \t\t\t\n      ISZERO \t\t\t\n      PUSH [tag] 821\t\t\t\n      JUMPI \t\t\t\n      PUSH [tag] 822\t\t\t\n      PUSH [tag] 529\t\t\t\n      JUMP \t\t\t\n    tag 822\t\t\t\n      JUMPDEST \t\t\t\n    tag 821\t\t\t\n      JUMPDEST \t\t\t\n      SWAP3 \t\t\t\n      POP \t\t\t\n      SWAP3 \t\t\t\n      SWAP1 \t\t\t\n      POP \t\t\t\n      JUMP \t\t\t\n    tag 80\t\t\t\n      JUMPDEST \t\t\t\n      PUSH 0\t\t\t\n      PUSH 0\t\t\t\n      PUSH 0\t\t\t\n      PUSH 0\t\t\t\n      PUSH 0\t\t\t\n      PUSH 80\t\t\t\n      DUP7 \t\t\t\n      DUP9 \t\t\t\n      SUB \t\t\t\n      SLT \t\t\t\n      ISZERO \t\t\t\n      PUSH [tag] 824\t\t\t\n      JUMPI \t\t\t\n      PUSH [tag] 825\t\t\t\n      PUSH [tag] 500\t\t\t\n      JUMP \t\t\t\n    tag 825\t\t\t\n      JUMPDEST \t\t\t\n    tag 824\t\t\t\n      JUMPDEST \t\t\t\n      PUSH 0\t\t\t\n      PUSH [tag] 826\t\t\t\n      DUP9 \t\t\t\n      DUP3 \t\t\t\n      DUP10 \t\t\t\n      ADD \t\t\t\n      PUSH [tag] 505\t\t\t\n      JUMP \t\t\t\n    tag 826\t\t\t\n      JUMPDEST \t\t\t\n      SWAP6 \t\t\t\n      POP \t\t\t\n      POP \t\t\t\n      PUSH 20\t\t\t\n      PUSH [tag] 827\t\t\t\n      DUP9 \t\t\t\n      DUP3 \t\t\t\n      DUP10 \t\t\t\n      ADD \t\t\t\n      PUSH [tag] 508\t\t\t\n      JUMP \t\t\t\n    tag 827\t\t\t\n      JUMPDEST \t\t\t\n      SWAP5 \t\t\t\n      POP \t\t\t\n      POP \t\t\t\n      PUSH 40\t\t\t\n      PUSH [tag] 828\t\t\t\n      DUP9 \t\t\t\n      DUP3 \t\t\t\n      DUP10 \t\t\t\n      ADD \t\t\t\n      PUSH [tag] 508\t\t\t\n      JUMP \t\t\t\n    tag 828\t\t\t\n      JUMPDEST \t\t\t\n      SWAP4 \t\t\t\n      POP \t\t\t\n      POP \t\t\t\n      PUSH 60\t\t\t\n      DUP7 \t\t\t\n      ADD \t\t\t\n      CALLDATALOAD \t\t\t\n      PUSH FFFFFFFFFFFFFFFF\t\t\t\n      DUP2 \t\t\t\n      GT \t\t\t\n      ISZERO \t\t\t\n      PUSH [tag] 829\t\t\t\n      JUMPI \t\t\t\n      PUSH [tag] 830\t\t\t\n      PUSH [tag] 501\t\t\t\n      JUMP \t\t\t\n    tag 830\t\t\t\n      JUMPDEST \t\t\t\n    tag 829\t\t\t\n      JUMPDEST \t\t\t\n      PUSH [tag] 831\t\t\t\n      DUP9 \t\t\t\n      DUP3 \t\t\t\n      DUP10 \t\t\t\n      ADD \t\t\t\n      PUSH [tag] 558\t\t\t\n      JUMP \t\t\t\n    tag 831\t\t\t\n      JUMPDEST \t\t\t\n      SWAP3 \t\t\t\n      POP \t\t\t\n      SWAP3 \t\t\t\n      POP \t\t\t\n      POP \t\t\t\n      SWAP3 \t\t\t\n      SWAP6 \t\t\t\n      POP \t\t\t\n      SWAP3 \t\t\t\n      SWAP6 \t\t\t\n      SWAP1 \t\t\t\n      SWAP4 \t\t\t\n      POP \t\t\t\n      JUMP \t\t\t\n    tag 559\t\t\t\n      JUMPDEST \t\t\t\n      PUSH [tag] 833\t\t\t\n      DUP2 \t\t\t\n      PUSH [tag] 503\t\t\t\n      JUMP \t\t\t\n    tag 833\t\t\t\n      JUMPDEST \t\t\t\n      DUP3 \t\t\t\n      MSTORE \t\t\t\n      POP \t\t\t\n      POP \t\t\t\n      JUMP \t\t\t\n    tag 96\t\t\t\n      JUMPDEST \t\t\t\n      PUSH 0\t\t\t\n      PUSH 20\t\t\t\n      DUP3 \t\t\t\n      ADD \t\t\t\n      SWAP1 \t\t\t\n      POP \t\t\t\n      PUSH [tag] 835\t\t\t\n      PUSH 0\t\t\t\n      DUP4 \t\t\t\n      ADD \t\t\t\n      DUP5 \t\t\t\n      PUSH [tag] 559\t\t\t\n      JUMP \t\t\t\n    tag 835\t\t\t\n      JUMPDEST \t\t\t\n      SWAP3 \t\t\t\n      SWAP2 \t\t\t\n      POP \t\t\t\n      POP \t\t\t\n      JUMP \t\t\t\n    tag 560\t\t\t\n      JUMPDEST \t\t\t\n      PUSH 0\t\t\t\n      PUSH 0\t\t\t\n      DUP4 \t\t\t\n      PUSH 1F\t\t\t\n      DUP5 \t\t\t\n      ADD \t\t\t\n      SLT \t\t\t\n      PUSH [tag] 837\t\t\t\n      JUMPI \t\t\t\n      PUSH [tag] 838\t\t\t\n      PUSH [tag] 525\t\t\t\n      JUMP \t\t\t\n    tag 838\t\t\t\n      JUMPDEST \t\t\t\n    tag 837\t\t\t\n      JUMPDEST \t\t\t\n      DUP3 \t\t\t\n      CALLDATALOAD \t\t\t\n      SWAP1 \t\t\t\n      POP \t\t\t\n      PUSH FFFFFFFFFFFFFFFF\t\t\t\n      DUP2 \t\t\t\n      GT \t\t\t\n      ISZERO \t\t\t\n      PUSH [tag] 839\t\t\t\n      JUMPI \t\t\t\n      PUSH [tag] 840\t\t\t\n      PUSH [tag] 557\t\t\t\n      JUMP \t\t\t\n    tag 840\t\t\t\n      JUMPDEST \t\t\t\n    tag 839\t\t\t\n      JUMPDEST \t\t\t\n      PUSH 20\t\t\t\n      DUP4 \t\t\t\n      ADD \t\t\t\n      SWAP2 \t\t\t\n      POP \t\t\t\n      DUP4 \t\t\t\n      PUSH 1\t\t\t\n      DUP3 \t\t\t\n      MUL \t\t\t\n      DUP4 \t\t\t\n      ADD \t\t\t\n      GT \t\t\t\n      ISZERO \t\t\t\n      PUSH [tag] 841\t\t\t\n      JUMPI \t\t\t\n      PUSH [tag] 842\t\t\t\n      PUSH [tag] 529\t\t\t\n      JUMP \t\t\t\n    tag 842\t\t\t\n      JUMPDEST \t\t\t\n    tag 841\t\t\t\n      JUMPDEST \t\t\t\n      SWAP3 \t\t\t\n      POP \t\t\t\n      SWAP3 \t\t\t\n      SWAP1 \t\t\t\n      POP \t\t\t\n      JUMP \t\t\t\n    tag 99\t\t\t\n      JUMPDEST \t\t\t\n      PUSH 0\t\t\t\n      PUSH 0\t\t\t\n      PUSH 0\t\t\t\n      PUSH 0\t\t\t\n      PUSH 0\t\t\t\n      PUSH 0\t\t\t\n      PUSH 0\t\t\t\n      PUSH A0\t\t\t\n      DUP9 \t\t\t\n      DUP11 \t\t\t\n      SUB \t\t\t\n      SLT \t\t\t\n      ISZERO \t\t\t\n      PUSH [tag] 844\t\t\t\n      JUMPI \t\t\t\n      PUSH [tag] 845\t\t\t\n      PUSH [tag] 500\t\t\t\n      JUMP \t\t\t\n    tag 845\t\t\t\n      JUMPDEST \t\t\t\n    tag 844\t\t\t\n      JUMPDEST \t\t\t\n      PUSH 0\t\t\t\n      PUSH [tag] 846\t\t\t\n      DUP11 \t\t\t\n      DUP3 \t\t\t\n      DUP12 \t\t\t\n      ADD \t\t\t\n      PUSH [tag] 505\t\t\t\n      JUMP \t\t\t\n    tag 846\t\t\t\n      JUMPDEST \t\t\t\n      SWAP8 \t\t\t\n      POP \t\t\t\n      POP \t\t\t\n      PUSH 20\t\t\t\n      PUSH [tag] 847\t\t\t\n      DUP11 \t\t\t\n      DUP3 \t\t\t\n      DUP12 \t\t\t\n      ADD \t\t\t\n      PUSH [tag] 508\t\t\t\n      JUMP \t\t\t\n    tag 847\t\t\t\n      JUMPDEST \t\t\t\n      SWAP7 \t\t\t\n      POP \t\t\t\n      POP \t\t\t\n      PUSH 40\t\t\t\n      PUSH [tag] 848\t\t\t\n      DUP11 \t\t\t\n      DUP3 \t\t\t\n      DUP12 \t\t\t\n      ADD \t\t\t\n      PUSH [tag] 508\t\t\t\n      JUMP \t\t\t\n    tag 848\t\t\t\n      JUMPDEST \t\t\t\n      SWAP6 \t\t\t\n      POP \t\t\t\n      POP \t\t\t\n      PUSH 60\t\t\t\n      DUP9 \t\t\t\n      ADD \t\t\t\n      CALLDATALOAD \t\t\t\n      PUSH FFFFFFFFFFFFFFFF\t\t\t\n      DUP2 \t\t\t\n      GT \t\t\t\n      ISZERO \t\t\t\n      PUSH [tag] 849\t\t\t\n      JUMPI \t\t\t\n      PUSH [tag] 850\t\t\t\n      PUSH [tag] 501\t\t\t\n      JUMP \t\t\t\n    tag 850\t\t\t\n      JUMPDEST \t\t\t\n    tag 849\t\t\t\n      JUMPDEST \t\t\t\n      PUSH [tag] 851\t\t\t\n      DUP11 \t\t\t\n      DUP3 \t\t\t\n      DUP12 \t\t\t\n      ADD \t\t\t\n      PUSH [tag] 558\t\t\t\n      JUMP \t\t\t\n    tag 851\t\t\t\n      JUMPDEST \t\t\t\n      SWAP5 \t\t\t\n      POP \t\t\t\n      SWAP5 \t\t\t\n      POP \t\t\t\n      POP \t\t\t\n      PUSH 80\t\t\t\n      DUP9 \t\t\t\n      ADD \t\t\t\n      CALLDATALOAD \t\t\t\n      PUSH FFFFFFFFFFFFFFFF\t\t\t\n      DUP2 \t\t\t\n      GT \t\t\t\n      ISZERO \t\t\t\n      PUSH [tag] 852\t\t\t\n      JUMPI \t\t\t\n      PUSH [tag] 853\t\t\t\n      PUSH [tag] 501\t\t\t\n      JUMP \t\t\t\n    tag 853\t\t\t\n      JUMPDEST \t\t\t\n    tag 852\t\t\t\n      JUMPDEST \t\t\t\n      PUSH [tag] 854\t\t\t\n      DUP11 \t\t\t\n      DUP3 \t\t\t\n      DUP12 \t\t\t\n      ADD \t\t\t\n      PUSH [tag] 560\t\t\t\n      JUMP \t\t\t\n    tag 854\t\t\t\n      JUMPDEST \t\t\t\n      SWAP3 \t\t\t\n      POP \t\t\t\n      SWAP3 \t\t\t\n      POP \t\t\t\n      POP \t\t\t\n      SWAP3 \t\t\t\n      SWAP6 \t\t\t\n      SWAP9 \t\t\t\n      SWAP2 \t\t\t\n      SWAP5 \t\t\t\n      SWAP8 \t\t\t\n      POP \t\t\t\n      SWAP3 \t\t\t\n      SWAP6 \t\t\t\n      POP \t\t\t\n      JUMP \t\t\t\n    tag 103\t\t\t\n      JUMPDEST \t\t\t\n      PUSH 0\t\t\t\n      PUSH 0\t\t\t\n      PUSH 0\t\t\t\n      PUSH 60\t\t\t\n      DUP5 \t\t\t\n      DUP7 \t\t\t\n      SUB \t\t\t\n      SLT \t\t\t\n      ISZERO \t\t\t\n      PUSH [tag] 856\t\t\t\n      JUMPI \t\t\t\n      PUSH [tag] 857\t\t\t\n      PUSH [tag] 500\t\t\t\n      JUMP \t\t\t\n    tag 857\t\t\t\n      JUMPDEST \t\t\t\n    tag 856\t\t\t\n      JUMPDEST \t\t\t\n      PUSH 0\t\t\t\n      PUSH [tag] 858\t\t\t\n      DUP7 \t\t\t\n      DUP3 \t\t\t\n      DUP8 \t\t\t\n      ADD \t\t\t\n      PUSH [tag] 508\t\t\t\n      JUMP \t\t\t\n    tag 858\t\t\t\n      JUMPDEST \t\t\t\n      SWAP4 \t\t\t\n      POP \t\t\t\n      POP \t\t\t\n      PUSH 20\t\t\t\n      PUSH [tag] 859\t\t\t\n      DUP7 \t\t\t\n      DUP3 \t\t\t\n      DUP8 \t\t\t\n      ADD \t\t\t\n      PUSH [tag] 546\t\t\t\n      JUMP \t\t\t\n    tag 859\t\t\t\n      JUMPDEST \t\t\t\n      SWAP3 \t\t\t\n      POP \t\t\t\n      POP \t\t\t\n      PUSH 40\t\t\t\n      PUSH [tag] 860\t\t\t\n      DUP7 \t\t\t\n      DUP3 \t\t\t\n      DUP8 \t\t\t\n      ADD \t\t\t\n      PUSH [tag] 505\t\t\t\n      JUMP \t\t\t\n    tag 860\t\t\t\n      JUMPDEST \t\t\t\n      SWAP2 \t\t\t\n      POP \t\t\t\n      POP \t\t\t\n      SWAP3 \t\t\t\n      POP \t\t\t\n      SWAP3 \t\t\t\n      POP \t\t\t\n      SWAP3 \t\t\t\n      JUMP \t\t\t\n    tag 561\t\t\t\n      JUMPDEST \t\t\t\n      PUSH [tag] 862\t\t\t\n      DUP2 \t\t\t\n      PUSH [tag] 513\t\t\t\n      JUMP \t\t\t\n    tag 862\t\t\t\n      JUMPDEST \t\t\t\n      DUP2 \t\t\t\n      EQ \t\t\t\n      PUSH [tag] 863\t\t\t\n      JUMPI \t\t\t\n      PUSH 0\t\t\t\n      PUSH 0\t\t\t\n      REVERT \t\t\t\n    tag 863\t\t\t\n      JUMPDEST \t\t\t\n      POP \t\t\t\n      JUMP \t\t\t\n    tag 562\t\t\t\n      JUMPDEST \t\t\t\n      PUSH 0\t\t\t\n      DUP2 \t\t\t\n      CALLDATALOAD \t\t\t\n      SWAP1 \t\t\t\n      POP \t\t\t\n      PUSH [tag] 865\t\t\t\n      DUP2 \t\t\t\n      PUSH [tag] 561\t\t\t\n      JUMP \t\t\t\n    tag 865\t\t\t\n      JUMPDEST \t\t\t\n      SWAP3 \t\t\t\n      SWAP2 \t\t\t\n      POP \t\t\t\n      POP \t\t\t\n      JUMP \t\t\t\n    tag 107\t\t\t\n      JUMPDEST \t\t\t\n      PUSH 0\t\t\t\n      PUSH 0\t\t\t\n      PUSH 40\t\t\t\n      DUP4 \t\t\t\n      DUP6 \t\t\t\n      SUB \t\t\t\n      SLT \t\t\t\n      ISZERO \t\t\t\n      PUSH [tag] 867\t\t\t\n      JUMPI \t\t\t\n      PUSH [tag] 868\t\t\t\n      PUSH [tag] 500\t\t\t\n      JUMP \t\t\t\n    tag 868\t\t\t\n      JUMPDEST \t\t\t\n    tag 867\t\t\t\n      JUMPDEST \t\t\t\n      PUSH 0\t\t\t\n      PUSH [tag] 869\t\t\t\n      DUP6 \t\t\t\n      DUP3 \t\t\t\n      DUP7 \t\t\t\n      ADD \t\t\t\n      PUSH [tag] 505\t\t\t\n      JUMP \t\t\t\n    tag 869\t\t\t\n      JUMPDEST \t\t\t\n      SWAP3 \t\t\t\n      POP \t\t\t\n      POP \t\t\t\n      PUSH 20\t\t\t\n      PUSH [tag] 870\t\t\t\n      DUP6 \t\t\t\n      DUP3 \t\t\t\n      DUP7 \t\t\t\n      ADD \t\t\t\n      PUSH [tag] 562\t\t\t\n      JUMP \t\t\t\n    tag 870\t\t\t\n      JUMPDEST \t\t\t\n      SWAP2 \t\t\t\n      POP \t\t\t\n      POP \t\t\t\n      SWAP3 \t\t\t\n      POP \t\t\t\n      SWAP3 \t\t\t\n      SWAP1 \t\t\t\n      POP \t\t\t\n      JUMP \t\t\t\n    tag 563\t\t\t\n      JUMPDEST \t\t\t\n      PUSH [tag] 872\t\t\t\n      DUP2 \t\t\t\n      PUSH [tag] 544\t\t\t\n      JUMP \t\t\t\n    tag 872\t\t\t\n      JUMPDEST \t\t\t\n      DUP3 \t\t\t\n      MSTORE \t\t\t\n      POP \t\t\t\n      POP \t\t\t\n      JUMP \t\t\t\n    tag 120\t\t\t\n      JUMPDEST \t\t\t\n      PUSH 0\t\t\t\n      PUSH 20\t\t\t\n      DUP3 \t\t\t\n      ADD \t\t\t\n      SWAP1 \t\t\t\n      POP \t\t\t\n      PUSH [tag] 874\t\t\t\n      PUSH 0\t\t\t\n      DUP4 \t\t\t\n      ADD \t\t\t\n      DUP5 \t\t\t\n      PUSH [tag] 563\t\t\t\n      JUMP \t\t\t\n    tag 874\t\t\t\n      JUMPDEST \t\t\t\n      SWAP3 \t\t\t\n      SWAP2 \t\t\t\n      POP \t\t\t\n      POP \t\t\t\n      JUMP \t\t\t\n    tag 127\t\t\t\n      JUMPDEST \t\t\t\n      PUSH 0\t\t\t\n      PUSH 0\t\t\t\n      PUSH 40\t\t\t\n      DUP4 \t\t\t\n      DUP6 \t\t\t\n      SUB \t\t\t\n      SLT \t\t\t\n      ISZERO \t\t\t\n      PUSH [tag] 876\t\t\t\n      JUMPI \t\t\t\n      PUSH [tag] 877\t\t\t\n      PUSH [tag] 500\t\t\t\n      JUMP \t\t\t\n    tag 877\t\t\t\n      JUMPDEST \t\t\t\n    tag 876\t\t\t\n      JUMPDEST \t\t\t\n      PUSH 0\t\t\t\n      PUSH [tag] 878\t\t\t\n      DUP6 \t\t\t\n      DUP3 \t\t\t\n      DUP7 \t\t\t\n      ADD \t\t\t\n      PUSH [tag] 505\t\t\t\n      JUMP \t\t\t\n    tag 878\t\t\t\n      JUMPDEST \t\t\t\n      SWAP3 \t\t\t\n      POP \t\t\t\n      POP \t\t\t\n      PUSH 20\t\t\t\n      PUSH [tag] 879\t\t\t\n      DUP6 \t\t\t\n      DUP3 \t\t\t\n      DUP7 \t\t\t\n      ADD \t\t\t\n      PUSH [tag] 505\t\t\t\n      JUMP \t\t\t\n    tag 879\t\t\t\n      JUMPDEST \t\t\t\n      SWAP2 \t\t\t\n      POP \t\t\t\n      POP \t\t\t\n      SWAP3 \t\t\t\n      POP \t\t\t\n      SWAP3 \t\t\t\n      SWAP1 \t\t\t\n      POP \t\t\t\n      JUMP \t\t\t\n    tag 132\t\t\t\n      JUMPDEST \t\t\t\n      PUSH 0\t\t\t\n      PUSH 0\t\t\t\n      PUSH 0\t\t\t\n      PUSH 0\t\t\t\n      PUSH 0\t\t\t\n      PUSH A0\t\t\t\n      DUP7 \t\t\t\n      DUP9 \t\t\t\n      SUB \t\t\t\n      SLT \t\t\t\n      ISZERO \t\t\t\n      PUSH [tag] 881\t\t\t\n      JUMPI \t\t\t\n      PUSH [tag] 882\t\t\t\n      PUSH [tag] 500\t\t\t\n      JUMP \t\t\t\n    tag 882\t\t\t\n      JUMPDEST \t\t\t\n    tag 881\t\t\t\n      JUMPDEST \t\t\t\n      PUSH 0\t\t\t\n      PUSH [tag] 883\t\t\t\n      DUP9 \t\t\t\n      DUP3 \t\t\t\n      DUP10 \t\t\t\n      ADD \t\t\t\n      PUSH [tag] 505\t\t\t\n      JUMP \t\t\t\n    tag 883\t\t\t\n      JUMPDEST \t\t\t\n      SWAP6 \t\t\t\n      POP \t\t\t\n      POP \t\t\t\n      PUSH 20\t\t\t\n      PUSH [tag] 884\t\t\t\n      DUP9 \t\t\t\n      DUP3 \t\t\t\n      DUP10 \t\t\t\n      ADD \t\t\t\n      PUSH [tag] 505\t\t\t\n      JUMP \t\t\t\n    tag 884\t\t\t\n      JUMPDEST \t\t\t\n      SWAP5 \t\t\t\n      POP \t\t\t\n      POP \t\t\t\n      PUSH 40\t\t\t\n      PUSH [tag] 885\t\t\t\n      DUP9 \t\t\t\n      DUP3 \t\t\t\n      DUP10 \t\t\t\n      ADD \t\t\t\n      PUSH [tag] 508\t\t\t\n      JUMP \t\t\t\n    tag 885\t\t\t\n      JUMPDEST \t\t\t\n      SWAP4 \t\t\t\n      POP \t\t\t\n      POP \t\t\t\n      PUSH 60\t\t\t\n      PUSH [tag] 886\t\t\t\n      DUP9 \t\t\t\n      DUP3 \t\t\t\n      DUP10 \t\t\t\n      ADD \t\t\t\n      PUSH [tag] 508\t\t\t\n      JUMP \t\t\t\n    tag 886\t\t\t\n      JUMPDEST \t\t\t\n      SWAP3 \t\t\t\n      POP \t\t\t\n      POP \t\t\t\n      PUSH 80\t\t\t\n      DUP7 \t\t\t\n      ADD \t\t\t\n      CALLDATALOAD \t\t\t\n      PUSH FFFFFFFFFFFFFFFF\t\t\t\n      DUP2 \t\t\t\n      GT \t\t\t\n      ISZERO \t\t\t\n      PUSH [tag] 887\t\t\t\n      JUMPI \t\t\t\n      PUSH [tag] 888\t\t\t\n      PUSH [tag] 501\t\t\t\n      JUMP \t\t\t\n    tag 888\t\t\t\n      JUMPDEST \t\t\t\n    tag 887\t\t\t\n      JUMPDEST \t\t\t\n      PUSH [tag] 889\t\t\t\n      DUP9 \t\t\t\n      DUP3 \t\t\t\n      DUP10 \t\t\t\n      ADD \t\t\t\n      PUSH [tag] 536\t\t\t\n      JUMP \t\t\t\n    tag 889\t\t\t\n      JUMPDEST \t\t\t\n      SWAP2 \t\t\t\n      POP \t\t\t\n      POP \t\t\t\n      SWAP3 \t\t\t\n      SWAP6 \t\t\t\n      POP \t\t\t\n      SWAP3 \t\t\t\n      SWAP6 \t\t\t\n      SWAP1 \t\t\t\n      SWAP4 \t\t\t\n      POP \t\t\t\n      JUMP \t\t\t\n    tag 139\t\t\t\n      JUMPDEST \t\t\t\n      PUSH 0\t\t\t\n      PUSH 0\t\t\t\n      PUSH 0\t\t\t\n      PUSH 60\t\t\t\n      DUP5 \t\t\t\n      DUP7 \t\t\t\n      SUB \t\t\t\n      SLT \t\t\t\n      ISZERO \t\t\t\n      PUSH [tag] 891\t\t\t\n      JUMPI \t\t\t\n      PUSH [tag] 892\t\t\t\n      PUSH [tag] 500\t\t\t\n      JUMP \t\t\t\n    tag 892\t\t\t\n      JUMPDEST \t\t\t\n    tag 891\t\t\t\n      JUMPDEST \t\t\t\n      PUSH 0\t\t\t\n      PUSH [tag] 893\t\t\t\n      DUP7 \t\t\t\n      DUP3 \t\t\t\n      DUP8 \t\t\t\n      ADD \t\t\t\n      PUSH [tag] 505\t\t\t\n      JUMP \t\t\t\n    tag 893\t\t\t\n      JUMPDEST \t\t\t\n      SWAP4 \t\t\t\n      POP \t\t\t\n      POP \t\t\t\n      PUSH 20\t\t\t\n      PUSH [tag] 894\t\t\t\n      DUP7 \t\t\t\n      DUP3 \t\t\t\n      DUP8 \t\t\t\n      ADD \t\t\t\n      PUSH [tag] 508\t\t\t\n      JUMP \t\t\t\n    tag 894\t\t\t\n      JUMPDEST \t\t\t\n      SWAP3 \t\t\t\n      POP \t\t\t\n      POP \t\t\t\n      PUSH 40\t\t\t\n      PUSH [tag] 895\t\t\t\n      DUP7 \t\t\t\n      DUP3 \t\t\t\n      DUP8 \t\t\t\n      ADD \t\t\t\n      PUSH [tag] 508\t\t\t\n      JUMP \t\t\t\n    tag 895\t\t\t\n      JUMPDEST \t\t\t\n      SWAP2 \t\t\t\n      POP \t\t\t\n      POP \t\t\t\n      SWAP3 \t\t\t\n      POP \t\t\t\n      SWAP3 \t\t\t\n      POP \t\t\t\n      SWAP3 \t\t\t\n      JUMP \t\t\t\n    tag 564\t\t\t\n      JUMPDEST \t\t\t\n      PUSH 4E487B7100000000000000000000000000000000000000000000000000000000\t\t\t\n      PUSH 0\t\t\t\n      MSTORE \t\t\t\n      PUSH 22\t\t\t\n      PUSH 4\t\t\t\n      MSTORE \t\t\t\n      PUSH 24\t\t\t\n      PUSH 0\t\t\t\n      REVERT \t\t\t\n    tag 149\t\t\t\n      JUMPDEST \t\t\t\n      PUSH 0\t\t\t\n      PUSH 2\t\t\t\n      DUP3 \t\t\t\n      DIV \t\t\t\n      SWAP1 \t\t\t\n      POP \t\t\t\n      PUSH 1\t\t\t\n      DUP3 \t\t\t\n      AND \t\t\t\n      DUP1 \t\t\t\n      PUSH [tag] 898\t\t\t\n      JUMPI \t\t\t\n      PUSH 7F\t\t\t\n      DUP3 \t\t\t\n      AND \t\t\t\n      SWAP2 \t\t\t\n      POP \t\t\t\n    tag 898\t\t\t\n      JUMPDEST \t\t\t\n      PUSH 20\t\t\t\n      DUP3 \t\t\t\n      LT \t\t\t\n      DUP2 \t\t\t\n      SUB \t\t\t\n      PUSH [tag] 899\t\t\t\n      JUMPI \t\t\t\n      PUSH [tag] 900\t\t\t\n      PUSH [tag] 564\t\t\t\n      JUMP \t\t\t\n    tag 900\t\t\t\n      JUMPDEST \t\t\t\n    tag 899\t\t\t\n      JUMPDEST \t\t\t\n      POP \t\t\t\n      SWAP2 \t\t\t\n      SWAP1 \t\t\t\n      POP \t\t\t\n      JUMP \t\t\t\n    tag 163\t\t\t\n      JUMPDEST \t\t\t\n      PUSH 4E487B7100000000000000000000000000000000000000000000000000000000\t\t\t\n      PUSH 0\t\t\t\n      MSTORE \t\t\t\n      PUSH 32\t\t\t\n      PUSH 4\t\t\t\n      MSTORE \t\t\t\n      PUSH 24\t\t\t\n      PUSH 0\t\t\t\n      REVERT \t\t\t\n    tag 565\t\t\t\n      JUMPDEST \t\t\t\n      PUSH 4E487B7100000000000000000000000000000000000000000000000000000000\t\t\t\n      PUSH 0\t\t\t\n      MSTORE \t\t\t\n      PUSH 11\t\t\t\n      PUSH 4\t\t\t\n      MSTORE \t\t\t\n      PUSH 24\t\t\t\n      PUSH 0\t\t\t\n      REVERT \t\t\t\n    tag 167\t\t\t\n      JUMPDEST \t\t\t\n      PUSH 0\t\t\t\n      PUSH [tag] 904\t\t\t\n      DUP3 \t\t\t\n      PUSH [tag] 506\t\t\t\n      JUMP \t\t\t\n    tag 904\t\t\t\n      JUMPDEST \t\t\t\n      SWAP2 \t\t\t\n      POP \t\t\t\n      PUSH [tag] 905\t\t\t\n      DUP4 \t\t\t\n      PUSH [tag] 506\t\t\t\n      JUMP \t\t\t\n    tag 905\t\t\t\n      JUMPDEST \t\t\t\n      SWAP3 \t\t\t\n      POP \t\t\t\n      DUP3 \t\t\t\n      DUP3 \t\t\t\n      SUB \t\t\t\n      SWAP1 \t\t\t\n      POP \t\t\t\n      DUP2 \t\t\t\n      DUP2 \t\t\t\n      GT \t\t\t\n      ISZERO \t\t\t\n      PUSH [tag] 906\t\t\t\n      JUMPI \t\t\t\n      PUSH [tag] 907\t\t\t\n      PUSH [tag] 565\t\t\t\n      JUMP \t\t\t\n    tag 907\t\t\t\n      JUMPDEST \t\t\t\n    tag 906\t\t\t\n      JUMPDEST \t\t\t\n      SWAP3 \t\t\t\n      SWAP2 \t\t\t\n      POP \t\t\t\n      POP \t\t\t\n      JUMP \t\t\t\n    tag 176\t\t\t\n      JUMPDEST \t\t\t\n      PUSH 4E487B7100000000000000000000000000000000000000000000000000000000\t\t\t\n      PUSH 0\t\t\t\n      MSTORE \t\t\t\n      PUSH 31\t\t\t\n      PUSH 4\t\t\t\n      MSTORE \t\t\t\n      PUSH 24\t\t\t\n      PUSH 0\t\t\t\n      REVERT \t\t\t\n    tag 566\t\t\t\n      JUMPDEST \t\t\t\n      PUSH 41646D696E206E6F7420666F756E640000000000000000000000000000000000\t\t\t\n      PUSH 0\t\t\t\n      DUP3 \t\t\t\n      ADD \t\t\t\n      MSTORE \t\t\t\n      POP \t\t\t\n      JUMP \t\t\t\n    tag 567\t\t\t\n      JUMPDEST \t\t\t\n      PUSH 0\t\t\t\n      PUSH [tag] 911\t\t\t\n      PUSH F\t\t\t\n      DUP4 \t\t\t\n      PUSH [tag] 516\t\t\t\n      JUMP \t\t\t\n    tag 911\t\t\t\n      JUMPDEST \t\t\t\n      SWAP2 \t\t\t\n      POP \t\t\t\n      PUSH [tag] 912\t\t\t\n      DUP3 \t\t\t\n      PUSH [tag] 566\t\t\t\n      JUMP \t\t\t\n    tag 912\t\t\t\n      JUMPDEST \t\t\t\n      PUSH 20\t\t\t\n      DUP3 \t\t\t\n      ADD \t\t\t\n      SWAP1 \t\t\t\n      POP \t\t\t\n      SWAP2 \t\t\t\n      SWAP1 \t\t\t\n      POP \t\t\t\n      JUMP \t\t\t\n    tag 179\t\t\t\n      JUMPDEST \t\t\t\n      PUSH 0\t\t\t\n      PUSH 20\t\t\t\n      DUP3 \t\t\t\n      ADD \t\t\t\n      SWAP1 \t\t\t\n      POP \t\t\t\n      DUP2 \t\t\t\n      DUP2 \t\t\t\n      SUB \t\t\t\n      PUSH 0\t\t\t\n      DUP4 \t\t\t\n      ADD \t\t\t\n      MSTORE \t\t\t\n      PUSH [tag] 914\t\t\t\n      DUP2 \t\t\t\n      PUSH [tag] 567\t\t\t\n      JUMP \t\t\t\n    tag 914\t\t\t\n      JUMPDEST \t\t\t\n      SWAP1 \t\t\t\n      POP \t\t\t\n      SWAP2 \t\t\t\n      SWAP1 \t\t\t\n      POP \t\t\t\n      JUMP \t\t\t\n    tag 568\t\t\t\n      JUMPDEST \t\t\t\n      PUSH 455243313135353A204D69736D617463686564206172726179206C656E677468\t\t\t\n      PUSH 0\t\t\t\n      DUP3 \t\t\t\n      ADD \t\t\t\n      MSTORE \t\t\t\n      PUSH 7300000000000000000000000000000000000000000000000000000000000000\t\t\t\n      PUSH 20\t\t\t\n      DUP3 \t\t\t\n      ADD \t\t\t\n      MSTORE \t\t\t\n      POP \t\t\t\n      JUMP \t\t\t\n    tag 569\t\t\t\n      JUMPDEST \t\t\t\n      PUSH 0\t\t\t\n      PUSH [tag] 917\t\t\t\n      PUSH 21\t\t\t\n      DUP4 \t\t\t\n      PUSH [tag] 516\t\t\t\n      JUMP \t\t\t\n    tag 917\t\t\t\n      JUMPDEST \t\t\t\n      SWAP2 \t\t\t\n      POP \t\t\t\n      PUSH [tag] 918\t\t\t\n      DUP3 \t\t\t\n      PUSH [tag] 568\t\t\t\n      JUMP \t\t\t\n    tag 918\t\t\t\n      JUMPDEST \t\t\t\n      PUSH 40\t\t\t\n      DUP3 \t\t\t\n      ADD \t\t\t\n      SWAP1 \t\t\t\n      POP \t\t\t\n      SWAP2 \t\t\t\n      SWAP1 \t\t\t\n      POP \t\t\t\n      JUMP \t\t\t\n    tag 183\t\t\t\n      JUMPDEST \t\t\t\n      PUSH 0\t\t\t\n      PUSH 20\t\t\t\n      DUP3 \t\t\t\n      ADD \t\t\t\n      SWAP1 \t\t\t\n      POP \t\t\t\n      DUP2 \t\t\t\n      DUP2 \t\t\t\n      SUB \t\t\t\n      PUSH 0\t\t\t\n      DUP4 \t\t\t\n      ADD \t\t\t\n      MSTORE \t\t\t\n      PUSH [tag] 920\t\t\t\n      DUP2 \t\t\t\n      PUSH [tag] 569\t\t\t\n      JUMP \t\t\t\n    tag 920\t\t\t\n      JUMPDEST \t\t\t\n      SWAP1 \t\t\t\n      POP \t\t\t\n      SWAP2 \t\t\t\n      SWAP1 \t\t\t\n      POP \t\t\t\n      JUMP \t\t\t\n    tag 570\t\t\t\n      JUMPDEST \t\t\t\n      PUSH 455243313135353A207472616E7366657220746F20746865207A65726F206164\t\t\t\n      PUSH 0\t\t\t\n      DUP3 \t\t\t\n      ADD \t\t\t\n      MSTORE \t\t\t\n      PUSH 6472657373000000000000000000000000000000000000000000000000000000\t\t\t\n      PUSH 20\t\t\t\n      DUP3 \t\t\t\n      ADD \t\t\t\n      MSTORE \t\t\t\n      POP \t\t\t\n      JUMP \t\t\t\n    tag 571\t\t\t\n      JUMPDEST \t\t\t\n      PUSH 0\t\t\t\n      PUSH [tag] 923\t\t\t\n      PUSH 25\t\t\t\n      DUP4 \t\t\t\n      PUSH [tag] 516\t\t\t\n      JUMP \t\t\t\n    tag 923\t\t\t\n      JUMPDEST \t\t\t\n      SWAP2 \t\t\t\n      POP \t\t\t\n      PUSH [tag] 924\t\t\t\n      DUP3 \t\t\t\n      PUSH [tag] 570\t\t\t\n      JUMP \t\t\t\n    tag 924\t\t\t\n      JUMPDEST \t\t\t\n      PUSH 40\t\t\t\n      DUP3 \t\t\t\n      ADD \t\t\t\n      SWAP1 \t\t\t\n      POP \t\t\t\n      SWAP2 \t\t\t\n      SWAP1 \t\t\t\n      POP \t\t\t\n      JUMP \t\t\t\n    tag 186\t\t\t\n      JUMPDEST \t\t\t\n      PUSH 0\t\t\t\n      PUSH 20\t\t\t\n      DUP3 \t\t\t\n      ADD \t\t\t\n      SWAP1 \t\t\t\n      POP \t\t\t\n      DUP2 \t\t\t\n      DUP2 \t\t\t\n      SUB \t\t\t\n      PUSH 0\t\t\t\n      DUP4 \t\t\t\n      ADD \t\t\t\n      MSTORE \t\t\t\n      PUSH [tag] 926\t\t\t\n      DUP2 \t\t\t\n      PUSH [tag] 571\t\t\t\n      JUMP \t\t\t\n    tag 926\t\t\t\n      JUMPDEST \t\t\t\n      SWAP1 \t\t\t\n      POP \t\t\t\n      SWAP2 \t\t\t\n      SWAP1 \t\t\t\n      POP \t\t\t\n      JUMP \t\t\t\n    tag 572\t\t\t\n      JUMPDEST \t\t\t\n      PUSH 43616C6C6572206973206E6F7420616E2061646D696E00000000000000000000\t\t\t\n      PUSH 0\t\t\t\n      DUP3 \t\t\t\n      ADD \t\t\t\n      MSTORE \t\t\t\n      POP \t\t\t\n      JUMP \t\t\t\n    tag 573\t\t\t\n      JUMPDEST \t\t\t\n      PUSH 0\t\t\t\n      PUSH [tag] 929\t\t\t\n      PUSH 16\t\t\t\n      DUP4 \t\t\t\n      PUSH [tag] 516\t\t\t\n      JUMP \t\t\t\n    tag 929\t\t\t\n      JUMPDEST \t\t\t\n      SWAP2 \t\t\t\n      POP \t\t\t\n      PUSH [tag] 930\t\t\t\n      DUP3 \t\t\t\n      PUSH [tag] 572\t\t\t\n      JUMP \t\t\t\n    tag 930\t\t\t\n      JUMPDEST \t\t\t\n      PUSH 20\t\t\t\n      DUP3 \t\t\t\n      ADD \t\t\t\n      SWAP1 \t\t\t\n      POP \t\t\t\n      SWAP2 \t\t\t\n      SWAP1 \t\t\t\n      POP \t\t\t\n      JUMP \t\t\t\n    tag 209\t\t\t\n      JUMPDEST \t\t\t\n      PUSH 0\t\t\t\n      PUSH 20\t\t\t\n      DUP3 \t\t\t\n      ADD \t\t\t\n      SWAP1 \t\t\t\n      POP \t\t\t\n      DUP2 \t\t\t\n      DUP2 \t\t\t\n      SUB \t\t\t\n      PUSH 0\t\t\t\n      DUP4 \t\t\t\n      ADD \t\t\t\n      MSTORE \t\t\t\n      PUSH [tag] 932\t\t\t\n      DUP2 \t\t\t\n      PUSH [tag] 573\t\t\t\n      JUMP \t\t\t\n    tag 932\t\t\t\n      JUMPDEST \t\t\t\n      SWAP1 \t\t\t\n      POP \t\t\t\n      SWAP2 \t\t\t\n      SWAP1 \t\t\t\n      POP \t\t\t\n      JUMP \t\t\t\n    tag 574\t\t\t\n      JUMPDEST \t\t\t\n      PUSH 746F6B656E20696420646F6573206E6F74206578697374000000000000000000\t\t\t\n      PUSH 0\t\t\t\n      DUP3 \t\t\t\n      ADD \t\t\t\n      MSTORE \t\t\t\n      POP \t\t\t\n      JUMP \t\t\t\n    tag 575\t\t\t\n      JUMPDEST \t\t\t\n      PUSH 0\t\t\t\n      PUSH [tag] 935\t\t\t\n      PUSH 17\t\t\t\n      DUP4 \t\t\t\n      PUSH [tag] 516\t\t\t\n      JUMP \t\t\t\n    tag 935\t\t\t\n      JUMPDEST \t\t\t\n      SWAP2 \t\t\t\n      POP \t\t\t\n      PUSH [tag] 936\t\t\t\n      DUP3 \t\t\t\n      PUSH [tag] 574\t\t\t\n      JUMP \t\t\t\n    tag 936\t\t\t\n      JUMPDEST \t\t\t\n      PUSH 20\t\t\t\n      DUP3 \t\t\t\n      ADD \t\t\t\n      SWAP1 \t\t\t\n      POP \t\t\t\n      SWAP2 \t\t\t\n      SWAP1 \t\t\t\n      POP \t\t\t\n      JUMP \t\t\t\n    tag 215\t\t\t\n      JUMPDEST \t\t\t\n      PUSH 0\t\t\t\n      PUSH 20\t\t\t\n      DUP3 \t\t\t\n      ADD \t\t\t\n      SWAP1 \t\t\t\n      POP \t\t\t\n      DUP2 \t\t\t\n      DUP2 \t\t\t\n      SUB \t\t\t\n      PUSH 0\t\t\t\n      DUP4 \t\t\t\n      ADD \t\t\t\n      MSTORE \t\t\t\n      PUSH [tag] 938\t\t\t\n      DUP2 \t\t\t\n      PUSH [tag] 575\t\t\t\n      JUMP \t\t\t\n    tag 938\t\t\t\n      JUMPDEST \t\t\t\n      SWAP1 \t\t\t\n      POP \t\t\t\n      SWAP2 \t\t\t\n      SWAP1 \t\t\t\n      POP \t\t\t\n      JUMP \t\t\t\n    tag 576\t\t\t\n      JUMPDEST \t\t\t\n      PUSH 50726F6F66207265717565737420646F6573206E6F7420657869737400000000\t\t\t\n      PUSH 0\t\t\t\n      DUP3 \t\t\t\n      ADD \t\t\t\n      MSTORE \t\t\t\n      POP \t\t\t\n      JUMP \t\t\t\n    tag 577\t\t\t\n      JUMPDEST \t\t\t\n      PUSH 0\t\t\t\n      PUSH [tag] 941\t\t\t\n      PUSH 1C\t\t\t\n      DUP4 \t\t\t\n      PUSH [tag] 516\t\t\t\n      JUMP \t\t\t\n    tag 941\t\t\t\n      JUMPDEST \t\t\t\n      SWAP2 \t\t\t\n      POP \t\t\t\n      PUSH [tag] 942\t\t\t\n      DUP3 \t\t\t\n      PUSH [tag] 576\t\t\t\n      JUMP \t\t\t\n    tag 942\t\t\t\n      JUMPDEST \t\t\t\n      PUSH 20\t\t\t\n      DUP3 \t\t\t\n      ADD \t\t\t\n      SWAP1 \t\t\t\n      POP \t\t\t\n      SWAP2 \t\t\t\n      SWAP1 \t\t\t\n      POP \t\t\t\n      JUMP \t\t\t\n    tag 218\t\t\t\n      JUMPDEST \t\t\t\n      PUSH 0\t\t\t\n      PUSH 20\t\t\t\n      DUP3 \t\t\t\n      ADD \t\t\t\n      SWAP1 \t\t\t\n      POP \t\t\t\n      DUP2 \t\t\t\n      DUP2 \t\t\t\n      SUB \t\t\t\n      PUSH 0\t\t\t\n      DUP4 \t\t\t\n      ADD \t\t\t\n      MSTORE \t\t\t\n      PUSH [tag] 944\t\t\t\n      DUP2 \t\t\t\n      PUSH [tag] 577\t\t\t\n      JUMP \t\t\t\n    tag 944\t\t\t\n      JUMPDEST \t\t\t\n      SWAP1 \t\t\t\n      POP \t\t\t\n      SWAP2 \t\t\t\n      SWAP1 \t\t\t\n      POP \t\t\t\n      JUMP \t\t\t\n    tag 239\t\t\t\n      JUMPDEST \t\t\t\n      PUSH 0\t\t\t\n      PUSH 40\t\t\t\n      DUP3 \t\t\t\n      ADD \t\t\t\n      SWAP1 \t\t\t\n      POP \t\t\t\n      PUSH [tag] 946\t\t\t\n      PUSH 0\t\t\t\n      DUP4 \t\t\t\n      ADD \t\t\t\n      DUP6 \t\t\t\n      PUSH [tag] 509\t\t\t\n      JUMP \t\t\t\n    tag 946\t\t\t\n      JUMPDEST \t\t\t\n      PUSH [tag] 947\t\t\t\n      PUSH 20\t\t\t\n      DUP4 \t\t\t\n      ADD \t\t\t\n      DUP5 \t\t\t\n      PUSH [tag] 509\t\t\t\n      JUMP \t\t\t\n    tag 947\t\t\t\n      JUMPDEST \t\t\t\n      SWAP4 \t\t\t\n      SWAP3 \t\t\t\n      POP \t\t\t\n      POP \t\t\t\n      POP \t\t\t\n      JUMP \t\t\t\n    tag 578\t\t\t\n      JUMPDEST \t\t\t\n      PUSH 496E76616C696420616464726573730000000000000000000000000000000000\t\t\t\n      PUSH 0\t\t\t\n      DUP3 \t\t\t\n      ADD \t\t\t\n      MSTORE \t\t\t\n      POP \t\t\t\n      JUMP \t\t\t\n    tag 579\t\t\t\n      JUMPDEST \t\t\t\n      PUSH 0\t\t\t\n      PUSH [tag] 950\t\t\t\n      PUSH F\t\t\t\n      DUP4 \t\t\t\n      PUSH [tag] 516\t\t\t\n      JUMP \t\t\t\n    tag 950\t\t\t\n      JUMPDEST \t\t\t\n      SWAP2 \t\t\t\n      POP \t\t\t\n      PUSH [tag] 951\t\t\t\n      DUP3 \t\t\t\n      PUSH [tag] 578\t\t\t\n      JUMP \t\t\t\n    tag 951\t\t\t\n      JUMPDEST \t\t\t\n      PUSH 20\t\t\t\n      DUP3 \t\t\t\n      ADD \t\t\t\n      SWAP1 \t\t\t\n      POP \t\t\t\n      SWAP2 \t\t\t\n      SWAP1 \t\t\t\n      POP \t\t\t\n      JUMP \t\t\t\n    tag 267\t\t\t\n      JUMPDEST \t\t\t\n      PUSH 0\t\t\t\n      PUSH 20\t\t\t\n      DUP3 \t\t\t\n      ADD \t\t\t\n      SWAP1 \t\t\t\n      POP \t\t\t\n      DUP2 \t\t\t\n      DUP2 \t\t\t\n      SUB \t\t\t\n      PUSH 0\t\t\t\n      DUP4 \t\t\t\n      ADD \t\t\t\n      MSTORE \t\t\t\n      PUSH [tag] 953\t\t\t\n      DUP2 \t\t\t\n      PUSH [tag] 579\t\t\t\n      JUMP \t\t\t\n    tag 953\t\t\t\n      JUMPDEST \t\t\t\n      SWAP1 \t\t\t\n      POP \t\t\t\n      SWAP2 \t\t\t\n      SWAP1 \t\t\t\n      POP \t\t\t\n      JUMP \t\t\t\n    tag 580\t\t\t\n      JUMPDEST \t\t\t\n      PUSH 4164647265737320697320616C726561647920616E2061646D696E0000000000\t\t\t\n      PUSH 0\t\t\t\n      DUP3 \t\t\t\n      ADD \t\t\t\n      MSTORE \t\t\t\n      POP \t\t\t\n      JUMP \t\t\t\n    tag 581\t\t\t\n      JUMPDEST \t\t\t\n      PUSH 0\t\t\t\n      PUSH [tag] 956\t\t\t\n      PUSH 1B\t\t\t\n      DUP4 \t\t\t\n      PUSH [tag] 516\t\t\t\n      JUMP \t\t\t\n    tag 956\t\t\t\n      JUMPDEST \t\t\t\n      SWAP2 \t\t\t\n      POP \t\t\t\n      PUSH [tag] 957\t\t\t\n      DUP3 \t\t\t\n      PUSH [tag] 580\t\t\t\n      JUMP \t\t\t\n    tag 957\t\t\t\n      JUMPDEST \t\t\t\n      PUSH 20\t\t\t\n      DUP3 \t\t\t\n      ADD \t\t\t\n      SWAP1 \t\t\t\n      POP \t\t\t\n      SWAP2 \t\t\t\n      SWAP1 \t\t\t\n      POP \t\t\t\n      JUMP \t\t\t\n    tag 271\t\t\t\n      JUMPDEST \t\t\t\n      PUSH 0\t\t\t\n      PUSH 20\t\t\t\n      DUP3 \t\t\t\n      ADD \t\t\t\n      SWAP1 \t\t\t\n      POP \t\t\t\n      DUP2 \t\t\t\n      DUP2 \t\t\t\n      SUB \t\t\t\n      PUSH 0\t\t\t\n      DUP4 \t\t\t\n      ADD \t\t\t\n      MSTORE \t\t\t\n      PUSH [tag] 959\t\t\t\n      DUP2 \t\t\t\n      PUSH [tag] 581\t\t\t\n      JUMP \t\t\t\n    tag 959\t\t\t\n      JUMPDEST \t\t\t\n      SWAP1 \t\t\t\n      POP \t\t\t\n      SWAP2 \t\t\t\n      SWAP1 \t\t\t\n      POP \t\t\t\n      JUMP \t\t\t\n    tag 582\t\t\t\n      JUMPDEST \t\t\t\n      PUSH 0\t\t\t\n      DUP3 \t\t\t\n      SWAP1 \t\t\t\n      POP \t\t\t\n      SWAP3 \t\t\t\n      SWAP2 \t\t\t\n      POP \t\t\t\n      POP \t\t\t\n      JUMP \t\t\t\n    tag 583\t\t\t\n      JUMPDEST \t\t\t\n      PUSH 0\t\t\t\n      DUP2 \t\t\t\n      SWAP1 \t\t\t\n      POP \t\t\t\n      DUP2 \t\t\t\n      PUSH 0\t\t\t\n      MSTORE \t\t\t\n      PUSH 20\t\t\t\n      PUSH 0\t\t\t\n      KECCAK256 \t\t\t\n      SWAP1 \t\t\t\n      POP \t\t\t\n      SWAP2 \t\t\t\n      SWAP1 \t\t\t\n      POP \t\t\t\n      JUMP \t\t\t\n    tag 584\t\t\t\n      JUMPDEST \t\t\t\n      PUSH 0\t\t\t\n      PUSH 20\t\t\t\n      PUSH 1F\t\t\t\n      DUP4 \t\t\t\n      ADD \t\t\t\n      DIV \t\t\t\n      SWAP1 \t\t\t\n      POP \t\t\t\n      SWAP2 \t\t\t\n      SWAP1 \t\t\t\n      POP \t\t\t\n      JUMP \t\t\t\n    tag 585\t\t\t\n      JUMPDEST \t\t\t\n      PUSH 0\t\t\t\n      DUP3 \t\t\t\n      DUP3 \t\t\t\n      SHL \t\t\t\n      SWAP1 \t\t\t\n      POP \t\t\t\n      SWAP3 \t\t\t\n      SWAP2 \t\t\t\n      POP \t\t\t\n      POP \t\t\t\n      JUMP \t\t\t\n    tag 586\t\t\t\n      JUMPDEST \t\t\t\n      PUSH 0\t\t\t\n      PUSH 8\t\t\t\n      DUP4 \t\t\t\n      MUL \t\t\t\n      PUSH [tag] 965\t\t\t\n      PUSH FFFFFFFFFFFFFFFFFFFFFFFFFFFFFFFFFFFFFFFFFFFFFFFFFFFFFFFFFFFFFFFF\t\t\t\n      DUP3 \t\t\t\n      PUSH [tag] 585\t\t\t\n      JUMP \t\t\t\n    tag 965\t\t\t\n      JUMPDEST \t\t\t\n      PUSH [tag] 966\t\t\t\n      DUP7 \t\t\t\n      DUP4 \t\t\t\n      PUSH [tag] 585\t\t\t\n      JUMP \t\t\t\n    tag 966\t\t\t\n      JUMPDEST \t\t\t\n      SWAP6 \t\t\t\n      POP \t\t\t\n      DUP1 \t\t\t\n      NOT \t\t\t\n      DUP5 \t\t\t\n      AND \t\t\t\n      SWAP4 \t\t\t\n      POP \t\t\t\n      DUP1 \t\t\t\n      DUP7 \t\t\t\n      AND \t\t\t\n      DUP5 \t\t\t\n      OR \t\t\t\n      SWAP3 \t\t\t\n      POP \t\t\t\n      POP \t\t\t\n      POP \t\t\t\n      SWAP4 \t\t\t\n      SWAP3 \t\t\t\n      POP \t\t\t\n      POP \t\t\t\n      POP \t\t\t\n      JUMP \t\t\t\n    tag 587\t\t\t\n      JUMPDEST \t\t\t\n      PUSH 0\t\t\t\n      PUSH [tag] 968\t\t\t\n      PUSH [tag] 969\t\t\t\n      PUSH [tag] 970\t\t\t\n      DUP5 \t\t\t\n      PUSH [tag] 506\t\t\t\n      JUMP \t\t\t\n    tag 970\t\t\t\n      JUMPDEST \t\t\t\n      PUSH [tag] 520\t\t\t\n      JUMP \t\t\t\n    tag 969\t\t\t\n      JUMPDEST \t\t\t\n      PUSH [tag] 506\t\t\t\n      JUMP \t\t\t\n    tag 968\t\t\t\n      JUMPDEST \t\t\t\n      SWAP1 \t\t\t\n      POP \t\t\t\n      SWAP2 \t\t\t\n      SWAP1 \t\t\t\n      POP \t\t\t\n      JUMP \t\t\t\n    tag 588\t\t\t\n      JUMPDEST \t\t\t\n      PUSH 0\t\t\t\n      DUP2 \t\t\t\n      SWAP1 \t\t\t\n      POP \t\t\t\n      SWAP2 \t\t\t\n      SWAP1 \t\t\t\n      POP \t\t\t\n      JUMP \t\t\t\n    tag 589\t\t\t\n      JUMPDEST \t\t\t\n      PUSH [tag] 973\t\t\t\n      DUP4 \t\t\t\n      PUSH [tag] 587\t\t\t\n      JUMP \t\t\t\n    tag 973\t\t\t\n      JUMPDEST \t\t\t\n      PUSH [tag] 974\t\t\t\n      PUSH [tag] 975\t\t\t\n      DUP3 \t\t\t\n      PUSH [tag] 588\t\t\t\n      JUMP \t\t\t\n    tag 975\t\t\t\n      JUMPDEST \t\t\t\n      DUP5 \t\t\t\n      DUP5 \t\t\t\n      SLOAD \t\t\t\n      PUSH [tag] 586\t\t\t\n      JUMP \t\t\t\n    tag 974\t\t\t\n      JUMPDEST \t\t\t\n      DUP3 \t\t\t\n      SSTORE \t\t\t\n      POP \t\t\t\n      POP \t\t\t\n      POP \t\t\t\n      POP \t\t\t\n      JUMP \t\t\t\n    tag 590\t\t\t\n      JUMPDEST \t\t\t\n      PUSH 0\t\t\t\n      PUSH 0\t\t\t\n      SWAP1 \t\t\t\n      POP \t\t\t\n      SWAP1 \t\t\t\n      JUMP \t\t\t\n    tag 591\t\t\t\n      JUMPDEST \t\t\t\n      PUSH [tag] 978\t\t\t\n      PUSH [tag] 590\t\t\t\n      JUMP \t\t\t\n    tag 978\t\t\t\n      JUMPDEST \t\t\t\n      PUSH [tag] 979\t\t\t\n      DUP2 \t\t\t\n      DUP5 \t\t\t\n      DUP5 \t\t\t\n      PUSH [tag] 589\t\t\t\n      JUMP \t\t\t\n    tag 979\t\t\t\n      JUMPDEST \t\t\t\n      POP \t\t\t\n      POP \t\t\t\n      POP \t\t\t\n      JUMP \t\t\t\n    tag 592\t\t\t\n      JUMPDEST \t\t\t\n    tag 981\t\t\t\n      JUMPDEST \t\t\t\n      DUP2 \t\t\t\n      DUP2 \t\t\t\n      LT \t\t\t\n      ISZERO \t\t\t\n      PUSH [tag] 983\t\t\t\n      JUMPI \t\t\t\n      PUSH [tag] 984\t\t\t\n      PUSH 0\t\t\t\n      DUP3 \t\t\t\n      PUSH [tag] 591\t\t\t\n      JUMP \t\t\t\n    tag 984\t\t\t\n      JUMPDEST \t\t\t\n      PUSH 1\t\t\t\n      DUP2 \t\t\t\n      ADD \t\t\t\n      SWAP1 \t\t\t\n      POP \t\t\t\n      PUSH [tag] 981\t\t\t\n      JUMP \t\t\t\n    tag 983\t\t\t\n      JUMPDEST \t\t\t\n      POP \t\t\t\n      POP \t\t\t\n      JUMP \t\t\t\n    tag 593\t\t\t\n      JUMPDEST \t\t\t\n      PUSH 1F\t\t\t\n      DUP3 \t\t\t\n      GT \t\t\t\n      ISZERO \t\t\t\n      PUSH [tag] 986\t\t\t\n      JUMPI \t\t\t\n      PUSH [tag] 987\t\t\t\n      DUP2 \t\t\t\n      PUSH [tag] 583\t\t\t\n      JUMP \t\t\t\n    tag 987\t\t\t\n      JUMPDEST \t\t\t\n      PUSH [tag] 988\t\t\t\n      DUP5 \t\t\t\n      PUSH [tag] 584\t\t\t\n      JUMP \t\t\t\n    tag 988\t\t\t\n      JUMPDEST \t\t\t\n      DUP2 \t\t\t\n      ADD \t\t\t\n      PUSH 20\t\t\t\n      DUP6 \t\t\t\n      LT \t\t\t\n      ISZERO \t\t\t\n      PUSH [tag] 989\t\t\t\n      JUMPI \t\t\t\n      DUP2 \t\t\t\n      SWAP1 \t\t\t\n      POP \t\t\t\n    tag 989\t\t\t\n      JUMPDEST \t\t\t\n      PUSH [tag] 990\t\t\t\n      PUSH [tag] 991\t\t\t\n      DUP6 \t\t\t\n      PUSH [tag] 584\t\t\t\n      JUMP \t\t\t\n    tag 991\t\t\t\n      JUMPDEST \t\t\t\n      DUP4 \t\t\t\n      ADD \t\t\t\n      DUP3 \t\t\t\n      PUSH [tag] 592\t\t\t\n      JUMP \t\t\t\n    tag 990\t\t\t\n      JUMPDEST \t\t\t\n      POP \t\t\t\n      POP \t\t\t\n    tag 986\t\t\t\n      JUMPDEST \t\t\t\n      POP \t\t\t\n      POP \t\t\t\n      POP \t\t\t\n      JUMP \t\t\t\n    tag 594\t\t\t\n      JUMPDEST \t\t\t\n      PUSH 0\t\t\t\n      DUP3 \t\t\t\n      DUP3 \t\t\t\n      SHR \t\t\t\n      SWAP1 \t\t\t\n      POP \t\t\t\n      SWAP3 \t\t\t\n      SWAP2 \t\t\t\n      POP \t\t\t\n      POP \t\t\t\n      JUMP \t\t\t\n    tag 595\t\t\t\n      JUMPDEST \t\t\t\n      PUSH 0\t\t\t\n      PUSH [tag] 994\t\t\t\n      PUSH 0\t\t\t\n      NOT \t\t\t\n      DUP5 \t\t\t\n      PUSH 8\t\t\t\n      MUL \t\t\t\n      PUSH [tag] 594\t\t\t\n      JUMP \t\t\t\n    tag 994\t\t\t\n      JUMPDEST \t\t\t\n      NOT \t\t\t\n      DUP1 \t\t\t\n      DUP4 \t\t\t\n      AND \t\t\t\n      SWAP2 \t\t\t\n      POP \t\t\t\n      POP \t\t\t\n      SWAP3 \t\t\t\n      SWAP2 \t\t\t\n      POP \t\t\t\n      POP \t\t\t\n      JUMP \t\t\t\n    tag 596\t\t\t\n      JUMPDEST \t\t\t\n      PUSH 0\t\t\t\n      PUSH [tag] 996\t\t\t\n      DUP4 \t\t\t\n      DUP4 \t\t\t\n      PUSH [tag] 595\t\t\t\n      JUMP \t\t\t\n    tag 996\t\t\t\n      JUMPDEST \t\t\t\n      SWAP2 \t\t\t\n      POP \t\t\t\n      DUP3 \t\t\t\n      PUSH 2\t\t\t\n      MUL \t\t\t\n      DUP3 \t\t\t\n      OR \t\t\t\n      SWAP1 \t\t\t\n      POP \t\t\t\n      SWAP3 \t\t\t\n      SWAP2 \t\t\t\n      POP \t\t\t\n      POP \t\t\t\n      JUMP \t\t\t\n    tag 291\t\t\t\n      JUMPDEST \t\t\t\n      PUSH [tag] 998\t\t\t\n      DUP4 \t\t\t\n      DUP4 \t\t\t\n      PUSH [tag] 582\t\t\t\n      JUMP \t\t\t\n    tag 998\t\t\t\n      JUMPDEST \t\t\t\n      PUSH FFFFFFFFFFFFFFFF\t\t\t\n      DUP2 \t\t\t\n      GT \t\t\t\n      ISZERO \t\t\t\n      PUSH [tag] 999\t\t\t\n      JUMPI \t\t\t\n      PUSH [tag] 1000\t\t\t\n      PUSH [tag] 242\t\t\t\n      JUMP \t\t\t\n    tag 1000\t\t\t\n      JUMPDEST \t\t\t\n    tag 999\t\t\t\n      JUMPDEST \t\t\t\n      PUSH [tag] 1001\t\t\t\n      DUP3 \t\t\t\n      SLOAD \t\t\t\n      PUSH [tag] 149\t\t\t\n      JUMP \t\t\t\n    tag 1001\t\t\t\n      JUMPDEST \t\t\t\n      PUSH [tag] 1002\t\t\t\n      DUP3 \t\t\t\n      DUP3 \t\t\t\n      DUP6 \t\t\t\n      PUSH [tag] 593\t\t\t\n      JUMP \t\t\t\n    tag 1002\t\t\t\n      JUMPDEST \t\t\t\n      PUSH 0\t\t\t\n      PUSH 1F\t\t\t\n      DUP4 \t\t\t\n      GT \t\t\t\n      PUSH 1\t\t\t\n      DUP2 \t\t\t\n      EQ \t\t\t\n      PUSH [tag] 1004\t\t\t\n      JUMPI \t\t\t\n      PUSH 0\t\t\t\n      DUP5 \t\t\t\n      ISZERO \t\t\t\n      PUSH [tag] 1005\t\t\t\n      JUMPI \t\t\t\n      DUP3 \t\t\t\n      DUP8 \t\t\t\n      ADD \t\t\t\n      CALLDATALOAD \t\t\t\n      SWAP1 \t\t\t\n      POP \t\t\t\n    tag 1005\t\t\t\n      JUMPDEST \t\t\t\n      PUSH [tag] 1006\t\t\t\n      DUP6 \t\t\t\n      DUP3 \t\t\t\n      PUSH [tag] 596\t\t\t\n      JUMP \t\t\t\n    tag 1006\t\t\t\n      JUMPDEST \t\t\t\n      DUP7 \t\t\t\n      SSTORE \t\t\t\n      POP \t\t\t\n      PUSH [tag] 1003\t\t\t\n      JUMP \t\t\t\n    tag 1004\t\t\t\n      JUMPDEST \t\t\t\n      PUSH 1F\t\t\t\n      NOT \t\t\t\n      DUP5 \t\t\t\n      AND \t\t\t\n      PUSH [tag] 1007\t\t\t\n      DUP7 \t\t\t\n      PUSH [tag] 583\t\t\t\n      JUMP \t\t\t\n    tag 1007\t\t\t\n      JUMPDEST \t\t\t\n      PUSH 0\t\t\t\n    tag 1008\t\t\t\n      JUMPDEST \t\t\t\n      DUP3 \t\t\t\n      DUP2 \t\t\t\n      LT \t\t\t\n      ISZERO \t\t\t\n      PUSH [tag] 1010\t\t\t\n      JUMPI \t\t\t\n      DUP5 \t\t\t\n      DUP10 \t\t\t\n      ADD \t\t\t\n      CALLDATALOAD \t\t\t\n      DUP3 \t\t\t\n      SSTORE \t\t\t\n      PUSH 1\t\t\t\n      DUP3 \t\t\t\n      ADD \t\t\t\n      SWAP2 \t\t\t\n      POP \t\t\t\n      PUSH 20\t\t\t\n      DUP6 \t\t\t\n      ADD \t\t\t\n      SWAP5 \t\t\t\n      POP \t\t\t\n      PUSH 20\t\t\t\n      DUP2 \t\t\t\n      ADD \t\t\t\n      SWAP1 \t\t\t\n      POP \t\t\t\n      PUSH [tag] 1008\t\t\t\n      JUMP \t\t\t\n    tag 1010\t\t\t\n      JUMPDEST \t\t\t\n      DUP7 \t\t\t\n      DUP4 \t\t\t\n      LT \t\t\t\n      ISZERO \t\t\t\n      PUSH [tag] 1011\t\t\t\n      JUMPI \t\t\t\n      DUP5 \t\t\t\n      DUP10 \t\t\t\n      ADD \t\t\t\n      CALLDATALOAD \t\t\t\n      PUSH [tag] 1012\t\t\t\n      PUSH 1F\t\t\t\n      DUP10 \t\t\t\n      AND \t\t\t\n      DUP3 \t\t\t\n      PUSH [tag] 595\t\t\t\n      JUMP \t\t\t\n    tag 1012\t\t\t\n      JUMPDEST \t\t\t\n      DUP4 \t\t\t\n      SSTORE \t\t\t\n      POP \t\t\t\n    tag 1011\t\t\t\n      JUMPDEST \t\t\t\n      PUSH 1\t\t\t\n      PUSH 2\t\t\t\n      DUP9 \t\t\t\n      MUL \t\t\t\n      ADD \t\t\t\n      DUP9 \t\t\t\n      SSTORE \t\t\t\n      POP \t\t\t\n      POP \t\t\t\n      POP \t\t\t\n    tag 1003\t\t\t\n      JUMPDEST \t\t\t\n      POP \t\t\t\n      POP \t\t\t\n      POP \t\t\t\n      POP \t\t\t\n      POP \t\t\t\n      POP \t\t\t\n      POP \t\t\t\n      JUMP \t\t\t\n    tag 597\t\t\t\n      JUMPDEST \t\t\t\n      PUSH 50726F6F66207265717565737420616C72656164792065786973747300000000\t\t\t\n      PUSH 0\t\t\t\n      DUP3 \t\t\t\n      ADD \t\t\t\n      MSTORE \t\t\t\n      POP \t\t\t\n      JUMP \t\t\t\n    tag 598\t\t\t\n      JUMPDEST \t\t\t\n      PUSH 0\t\t\t\n      PUSH [tag] 1015\t\t\t\n      PUSH 1C\t\t\t\n      DUP4 \t\t\t\n      PUSH [tag] 516\t\t\t\n      JUMP \t\t\t\n    tag 1015\t\t\t\n      JUMPDEST \t\t\t\n      SWAP2 \t\t\t\n      POP \t\t\t\n      PUSH [tag] 1016\t\t\t\n      DUP3 \t\t\t\n      PUSH [tag] 597\t\t\t\n      JUMP \t\t\t\n    tag 1016\t\t\t\n      JUMPDEST \t\t\t\n      PUSH 20\t\t\t\n      DUP3 \t\t\t\n      ADD \t\t\t\n      SWAP1 \t\t\t\n      POP \t\t\t\n      SWAP2 \t\t\t\n      SWAP1 \t\t\t\n      POP \t\t\t\n      JUMP \t\t\t\n    tag 302\t\t\t\n      JUMPDEST \t\t\t\n      PUSH 0\t\t\t\n      PUSH 20\t\t\t\n      DUP3 \t\t\t\n      ADD \t\t\t\n      SWAP1 \t\t\t\n      POP \t\t\t\n      DUP2 \t\t\t\n      DUP2 \t\t\t\n      SUB \t\t\t\n      PUSH 0\t\t\t\n      DUP4 \t\t\t\n      ADD \t\t\t\n      MSTORE \t\t\t\n      PUSH [tag] 1018\t\t\t\n      DUP2 \t\t\t\n      PUSH [tag] 598\t\t\t\n      JUMP \t\t\t\n    tag 1018\t\t\t\n      JUMPDEST \t\t\t\n      SWAP1 \t\t\t\n      POP \t\t\t\n      SWAP2 \t\t\t\n      SWAP1 \t\t\t\n      POP \t\t\t\n      JUMP \t\t\t\n    tag 353\t\t\t\n      JUMPDEST \t\t\t\n      PUSH 0\t\t\t\n      PUSH 40\t\t\t\n      DUP3 \t\t\t\n      ADD \t\t\t\n      SWAP1 \t\t\t\n      POP \t\t\t\n      PUSH [tag] 1020\t\t\t\n      PUSH 0\t\t\t\n      DUP4 \t\t\t\n      ADD \t\t\t\n      DUP6 \t\t\t\n      PUSH [tag] 559\t\t\t\n      JUMP \t\t\t\n    tag 1020\t\t\t\n      JUMPDEST \t\t\t\n      PUSH [tag] 1021\t\t\t\n      PUSH 20\t\t\t\n      DUP4 \t\t\t\n      ADD \t\t\t\n      DUP5 \t\t\t\n      PUSH [tag] 563\t\t\t\n      JUMP \t\t\t\n    tag 1021\t\t\t\n      JUMPDEST \t\t\t\n      SWAP4 \t\t\t\n      SWAP3 \t\t\t\n      POP \t\t\t\n      POP \t\t\t\n      POP \t\t\t\n      JUMP \t\t\t\n    tag 599\t\t\t\n      JUMPDEST \t\t\t\n      PUSH 0\t\t\t\n      PUSH 0\t\t\t\n      REVERT \t\t\t\n    tag 600\t\t\t\n      JUMPDEST \t\t\t\n      PUSH 0\t\t\t\n      PUSH 0\t\t\t\n      REVERT \t\t\t\n    tag 601\t\t\t\n      JUMPDEST \t\t\t\n      PUSH 0\t\t\t\n      DUP2 \t\t\t\n      MLOAD \t\t\t\n      SWAP1 \t\t\t\n      POP \t\t\t\n      PUSH [tag] 1025\t\t\t\n      DUP2 \t\t\t\n      PUSH [tag] 561\t\t\t\n      JUMP \t\t\t\n    tag 1025\t\t\t\n      JUMPDEST \t\t\t\n      SWAP3 \t\t\t\n      SWAP2 \t\t\t\n      POP \t\t\t\n      POP \t\t\t\n      JUMP \t\t\t\n    tag 602\t\t\t\n      JUMPDEST \t\t\t\n      PUSH 0\t\t\t\n      PUSH FFFFFFFFFFFFFFFF\t\t\t\n      DUP3 \t\t\t\n      GT \t\t\t\n      ISZERO \t\t\t\n      PUSH [tag] 1027\t\t\t\n      JUMPI \t\t\t\n      PUSH [tag] 1028\t\t\t\n      PUSH [tag] 242\t\t\t\n      JUMP \t\t\t\n    tag 1028\t\t\t\n      JUMPDEST \t\t\t\n    tag 1027\t\t\t\n      JUMPDEST \t\t\t\n      PUSH [tag] 1029\t\t\t\n      DUP3 \t\t\t\n      PUSH [tag] 518\t\t\t\n      JUMP \t\t\t\n    tag 1029\t\t\t\n      JUMPDEST \t\t\t\n      SWAP1 \t\t\t\n      POP \t\t\t\n      PUSH 20\t\t\t\n      DUP2 \t\t\t\n      ADD \t\t\t\n      SWAP1 \t\t\t\n      POP \t\t\t\n      SWAP2 \t\t\t\n      SWAP1 \t\t\t\n      POP \t\t\t\n      JUMP \t\t\t\n    tag 603\t\t\t\n      JUMPDEST \t\t\t\n      PUSH 0\t\t\t\n      PUSH [tag] 1031\t\t\t\n      PUSH [tag] 1032\t\t\t\n      DUP5 \t\t\t\n      PUSH [tag] 602\t\t\t\n      JUMP \t\t\t\n    tag 1032\t\t\t\n      JUMPDEST \t\t\t\n      PUSH [tag] 527\t\t\t\n      JUMP \t\t\t\n    tag 1031\t\t\t\n      JUMPDEST \t\t\t\n      SWAP1 \t\t\t\n      POP \t\t\t\n      DUP3 \t\t\t\n      DUP2 \t\t\t\n      MSTORE \t\t\t\n      PUSH 20\t\t\t\n      DUP2 \t\t\t\n      ADD \t\t\t\n      DUP5 \t\t\t\n      DUP5 \t\t\t\n      DUP5 \t\t\t\n      ADD \t\t\t\n      GT \t\t\t\n      ISZERO \t\t\t\n      PUSH [tag] 1033\t\t\t\n      JUMPI \t\t\t\n      PUSH [tag] 1034\t\t\t\n      PUSH [tag] 532\t\t\t\n      JUMP \t\t\t\n    tag 1034\t\t\t\n      JUMPDEST \t\t\t\n    tag 1033\t\t\t\n      JUMPDEST \t\t\t\n      PUSH [tag] 1035\t\t\t\n      DUP5 \t\t\t\n      DUP3 \t\t\t\n      DUP6 \t\t\t\n      PUSH [tag] 517\t\t\t\n      JUMP \t\t\t\n    tag 1035\t\t\t\n      JUMPDEST \t\t\t\n      POP \t\t\t\n      SWAP4 \t\t\t\n      SWAP3 \t\t\t\n      POP \t\t\t\n      POP \t\t\t\n      POP \t\t\t\n      JUMP \t\t\t\n    tag 604\t\t\t\n      JUMPDEST \t\t\t\n      PUSH 0\t\t\t\n      DUP3 \t\t\t\n      PUSH 1F\t\t\t\n      DUP4 \t\t\t\n      ADD \t\t\t\n      SLT \t\t\t\n      PUSH [tag] 1037\t\t\t\n      JUMPI \t\t\t\n      PUSH [tag] 1038\t\t\t\n      PUSH [tag] 525\t\t\t\n      JUMP \t\t\t\n    tag 1038\t\t\t\n      JUMPDEST \t\t\t\n    tag 1037\t\t\t\n      JUMPDEST \t\t\t\n      DUP2 \t\t\t\n      MLOAD \t\t\t\n      PUSH [tag] 1039\t\t\t\n      DUP5 \t\t\t\n      DUP3 \t\t\t\n      PUSH 20\t\t\t\n      DUP7 \t\t\t\n      ADD \t\t\t\n      PUSH [tag] 603\t\t\t\n      JUMP \t\t\t\n    tag 1039\t\t\t\n      JUMPDEST \t\t\t\n      SWAP2 \t\t\t\n      POP \t\t\t\n      POP \t\t\t\n      SWAP3 \t\t\t\n      SWAP2 \t\t\t\n      POP \t\t\t\n      POP \t\t\t\n      JUMP \t\t\t\n    tag 605\t\t\t\n      JUMPDEST \t\t\t\n      PUSH 0\t\t\t\n      DUP2 \t\t\t\n      MLOAD \t\t\t\n      SWAP1 \t\t\t\n      POP \t\t\t\n      PUSH [tag] 1041\t\t\t\n      DUP2 \t\t\t\n      PUSH [tag] 507\t\t\t\n      JUMP \t\t\t\n    tag 1041\t\t\t\n      JUMPDEST \t\t\t\n      SWAP3 \t\t\t\n      SWAP2 \t\t\t\n      POP \t\t\t\n      POP \t\t\t\n      JUMP \t\t\t\n    tag 606\t\t\t\n      JUMPDEST \t\t\t\n      PUSH 0\t\t\t\n      PUSH 80\t\t\t\n      DUP3 \t\t\t\n      DUP5 \t\t\t\n      SUB \t\t\t\n      SLT \t\t\t\n      ISZERO \t\t\t\n      PUSH [tag] 1043\t\t\t\n      JUMPI \t\t\t\n      PUSH [tag] 1044\t\t\t\n      PUSH [tag] 599\t\t\t\n      JUMP \t\t\t\n    tag 1044\t\t\t\n      JUMPDEST \t\t\t\n    tag 1043\t\t\t\n      JUMPDEST \t\t\t\n      PUSH [tag] 1045\t\t\t\n      PUSH 80\t\t\t\n      PUSH [tag] 527\t\t\t\n      JUMP \t\t\t\n    tag 1045\t\t\t\n      JUMPDEST \t\t\t\n      SWAP1 \t\t\t\n      POP \t\t\t\n      PUSH 0\t\t\t\n      PUSH [tag] 1046\t\t\t\n      DUP5 \t\t\t\n      DUP3 \t\t\t\n      DUP6 \t\t\t\n      ADD \t\t\t\n      PUSH [tag] 601\t\t\t\n      JUMP \t\t\t\n    tag 1046\t\t\t\n      JUMPDEST \t\t\t\n      PUSH 0\t\t\t\n      DUP4 \t\t\t\n      ADD \t\t\t\n      MSTORE \t\t\t\n      POP \t\t\t\n      PUSH 20\t\t\t\n      DUP3 \t\t\t\n      ADD \t\t\t\n      MLOAD \t\t\t\n      PUSH FFFFFFFFFFFFFFFF\t\t\t\n      DUP2 \t\t\t\n      GT \t\t\t\n      ISZERO \t\t\t\n      PUSH [tag] 1047\t\t\t\n      JUMPI \t\t\t\n      PUSH [tag] 1048\t\t\t\n      PUSH [tag] 600\t\t\t\n      JUMP \t\t\t\n    tag 1048\t\t\t\n      JUMPDEST \t\t\t\n    tag 1047\t\t\t\n      JUMPDEST \t\t\t\n      PUSH [tag] 1049\t\t\t\n      DUP5 \t\t\t\n      DUP3 \t\t\t\n      DUP6 \t\t\t\n      ADD \t\t\t\n      PUSH [tag] 604\t\t\t\n      JUMP \t\t\t\n    tag 1049\t\t\t\n      JUMPDEST \t\t\t\n      PUSH 20\t\t\t\n      DUP4 \t\t\t\n      ADD \t\t\t\n      MSTORE \t\t\t\n      POP \t\t\t\n      PUSH 40\t\t\t\n      PUSH [tag] 1050\t\t\t\n      DUP5 \t\t\t\n      DUP3 \t\t\t\n      DUP6 \t\t\t\n      ADD \t\t\t\n      PUSH [tag] 605\t\t\t\n      JUMP \t\t\t\n    tag 1050\t\t\t\n      JUMPDEST \t\t\t\n      PUSH 40\t\t\t\n      DUP4 \t\t\t\n      ADD \t\t\t\n      MSTORE \t\t\t\n      POP \t\t\t\n      PUSH 60\t\t\t\n      PUSH [tag] 1051\t\t\t\n      DUP5 \t\t\t\n      DUP3 \t\t\t\n      DUP6 \t\t\t\n      ADD \t\t\t\n      PUSH [tag] 605\t\t\t\n      JUMP \t\t\t\n    tag 1051\t\t\t\n      JUMPDEST \t\t\t\n      PUSH 60\t\t\t\n      DUP4 \t\t\t\n      ADD \t\t\t\n      MSTORE \t\t\t\n      POP \t\t\t\n      SWAP3 \t\t\t\n      SWAP2 \t\t\t\n      POP \t\t\t\n      POP \t\t\t\n      JUMP \t\t\t\n    tag 357\t\t\t\n      JUMPDEST \t\t\t\n      PUSH 0\t\t\t\n      PUSH 20\t\t\t\n      DUP3 \t\t\t\n      DUP5 \t\t\t\n      SUB \t\t\t\n      SLT \t\t\t\n      ISZERO \t\t\t\n      PUSH [tag] 1053\t\t\t\n      JUMPI \t\t\t\n      PUSH [tag] 1054\t\t\t\n      PUSH [tag] 500\t\t\t\n      JUMP \t\t\t\n    tag 1054\t\t\t\n      JUMPDEST \t\t\t\n    tag 1053\t\t\t\n      JUMPDEST \t\t\t\n      PUSH 0\t\t\t\n      DUP3 \t\t\t\n      ADD \t\t\t\n      MLOAD \t\t\t\n      PUSH FFFFFFFFFFFFFFFF\t\t\t\n      DUP2 \t\t\t\n      GT \t\t\t\n      ISZERO \t\t\t\n      PUSH [tag] 1055\t\t\t\n      JUMPI \t\t\t\n      PUSH [tag] 1056\t\t\t\n      PUSH [tag] 501\t\t\t\n      JUMP \t\t\t\n    tag 1056\t\t\t\n      JUMPDEST \t\t\t\n    tag 1055\t\t\t\n      JUMPDEST \t\t\t\n      PUSH [tag] 1057\t\t\t\n      DUP5 \t\t\t\n      DUP3 \t\t\t\n      DUP6 \t\t\t\n      ADD \t\t\t\n      PUSH [tag] 606\t\t\t\n      JUMP \t\t\t\n    tag 1057\t\t\t\n      JUMPDEST \t\t\t\n      SWAP2 \t\t\t\n      POP \t\t\t\n      POP \t\t\t\n      SWAP3 \t\t\t\n      SWAP2 \t\t\t\n      POP \t\t\t\n      POP \t\t\t\n      JUMP \t\t\t\n    tag 362\t\t\t\n      JUMPDEST \t\t\t\n      PUSH 0\t\t\t\n      PUSH 40\t\t\t\n      DUP3 \t\t\t\n      ADD \t\t\t\n      SWAP1 \t\t\t\n      POP \t\t\t\n      PUSH [tag] 1059\t\t\t\n      PUSH 0\t\t\t\n      DUP4 \t\t\t\n      ADD \t\t\t\n      DUP6 \t\t\t\n      PUSH [tag] 563\t\t\t\n      JUMP \t\t\t\n    tag 1059\t\t\t\n      JUMPDEST \t\t\t\n      PUSH [tag] 1060\t\t\t\n      PUSH 20\t\t\t\n      DUP4 \t\t\t\n      ADD \t\t\t\n      DUP5 \t\t\t\n      PUSH [tag] 559\t\t\t\n      JUMP \t\t\t\n    tag 1060\t\t\t\n      JUMPDEST \t\t\t\n      SWAP4 \t\t\t\n      SWAP3 \t\t\t\n      POP \t\t\t\n      POP \t\t\t\n      POP \t\t\t\n      JUMP \t\t\t\n    tag 401\t\t\t\n      JUMPDEST \t\t\t\n      PUSH 0\t\t\t\n      PUSH 40\t\t\t\n      DUP3 \t\t\t\n      ADD \t\t\t\n      SWAP1 \t\t\t\n      POP \t\t\t\n      PUSH [tag] 1062\t\t\t\n      PUSH 0\t\t\t\n      DUP4 \t\t\t\n      ADD \t\t\t\n      DUP6 \t\t\t\n      PUSH [tag] 559\t\t\t\n      JUMP \t\t\t\n    tag 1062\t\t\t\n      JUMPDEST \t\t\t\n      PUSH [tag] 1063\t\t\t\n      PUSH 20\t\t\t\n      DUP4 \t\t\t\n      ADD \t\t\t\n      DUP5 \t\t\t\n      PUSH [tag] 559\t\t\t\n      JUMP \t\t\t\n    tag 1063\t\t\t\n      JUMPDEST \t\t\t\n      SWAP4 \t\t\t\n      SWAP3 \t\t\t\n      POP \t\t\t\n      POP \t\t\t\n      POP \t\t\t\n      JUMP \t\t\t\n    tag 451\t\t\t\n      JUMPDEST \t\t\t\n      PUSH 0\t\t\t\n      PUSH 80\t\t\t\n      DUP3 \t\t\t\n      ADD \t\t\t\n      SWAP1 \t\t\t\n      POP \t\t\t\n      PUSH [tag] 1065\t\t\t\n      PUSH 0\t\t\t\n      DUP4 \t\t\t\n      ADD \t\t\t\n      DUP8 \t\t\t\n      PUSH [tag] 559\t\t\t\n      JUMP \t\t\t\n    tag 1065\t\t\t\n      JUMPDEST \t\t\t\n      PUSH [tag] 1066\t\t\t\n      PUSH 20\t\t\t\n      DUP4 \t\t\t\n      ADD \t\t\t\n      DUP7 \t\t\t\n      PUSH [tag] 509\t\t\t\n      JUMP \t\t\t\n    tag 1066\t\t\t\n      JUMPDEST \t\t\t\n      PUSH [tag] 1067\t\t\t\n      PUSH 40\t\t\t\n      DUP4 \t\t\t\n      ADD \t\t\t\n      DUP6 \t\t\t\n      PUSH [tag] 509\t\t\t\n      JUMP \t\t\t\n    tag 1067\t\t\t\n      JUMPDEST \t\t\t\n      PUSH [tag] 1068\t\t\t\n      PUSH 60\t\t\t\n      DUP4 \t\t\t\n      ADD \t\t\t\n      DUP5 \t\t\t\n      PUSH [tag] 509\t\t\t\n      JUMP \t\t\t\n    tag 1068\t\t\t\n      JUMPDEST \t\t\t\n      SWAP6 \t\t\t\n      SWAP5 \t\t\t\n      POP \t\t\t\n      POP \t\t\t\n      POP \t\t\t\n      POP \t\t\t\n      POP \t\t\t\n      JUMP \t\t\t\n    tag 454\t\t\t\n      JUMPDEST \t\t\t\n      PUSH 0\t\t\t\n      PUSH [tag] 1070\t\t\t\n      DUP3 \t\t\t\n      PUSH [tag] 506\t\t\t\n      JUMP \t\t\t\n    tag 1070\t\t\t\n      JUMPDEST \t\t\t\n      SWAP2 \t\t\t\n      POP \t\t\t\n      PUSH [tag] 1071\t\t\t\n      DUP4 \t\t\t\n      PUSH [tag] 506\t\t\t\n      JUMP \t\t\t\n    tag 1071\t\t\t\n      JUMPDEST \t\t\t\n      SWAP3 \t\t\t\n      POP \t\t\t\n      DUP3 \t\t\t\n      DUP3 \t\t\t\n      ADD \t\t\t\n      SWAP1 \t\t\t\n      POP \t\t\t\n      DUP1 \t\t\t\n      DUP3 \t\t\t\n      GT \t\t\t\n      ISZERO \t\t\t\n      PUSH [tag] 1072\t\t\t\n      JUMPI \t\t\t\n      PUSH [tag] 1073\t\t\t\n      PUSH [tag] 565\t\t\t\n      JUMP \t\t\t\n    tag 1073\t\t\t\n      JUMPDEST \t\t\t\n    tag 1072\t\t\t\n      JUMPDEST \t\t\t\n      SWAP3 \t\t\t\n      SWAP2 \t\t\t\n      POP \t\t\t\n      POP \t\t\t\n      JUMP \t\t\t\n    tag 461\t\t\t\n      JUMPDEST \t\t\t\n      PUSH 0\t\t\t\n      PUSH 40\t\t\t\n      DUP3 \t\t\t\n      ADD \t\t\t\n      SWAP1 \t\t\t\n      POP \t\t\t\n      DUP2 \t\t\t\n      DUP2 \t\t\t\n      SUB \t\t\t\n      PUSH 0\t\t\t\n      DUP4 \t\t\t\n      ADD \t\t\t\n      MSTORE \t\t\t\n      PUSH [tag] 1075\t\t\t\n      DUP2 \t\t\t\n      DUP6 \t\t\t\n      PUSH [tag] 556\t\t\t\n      JUMP \t\t\t\n    tag 1075\t\t\t\n      JUMPDEST \t\t\t\n      SWAP1 \t\t\t\n      POP \t\t\t\n      DUP2 \t\t\t\n      DUP2 \t\t\t\n      SUB \t\t\t\n      PUSH 20\t\t\t\n      DUP4 \t\t\t\n      ADD \t\t\t\n      MSTORE \t\t\t\n      PUSH [tag] 1076\t\t\t\n      DUP2 \t\t\t\n      DUP5 \t\t\t\n      PUSH [tag] 556\t\t\t\n      JUMP \t\t\t\n    tag 1076\t\t\t\n      JUMPDEST \t\t\t\n      SWAP1 \t\t\t\n      POP \t\t\t\n      SWAP4 \t\t\t\n      SWAP3 \t\t\t\n      POP \t\t\t\n      POP \t\t\t\n      POP \t\t\t\n      JUMP \t\t\t\n    tag 607\t\t\t\n      JUMPDEST \t\t\t\n      PUSH 0\t\t\t\n      DUP2 \t\t\t\n      MLOAD \t\t\t\n      SWAP1 \t\t\t\n      POP \t\t\t\n      SWAP2 \t\t\t\n      SWAP1 \t\t\t\n      POP \t\t\t\n      JUMP \t\t\t\n    tag 608\t\t\t\n      JUMPDEST \t\t\t\n      PUSH 0\t\t\t\n      DUP3 \t\t\t\n      DUP3 \t\t\t\n      MSTORE \t\t\t\n      PUSH 20\t\t\t\n      DUP3 \t\t\t\n      ADD \t\t\t\n      SWAP1 \t\t\t\n      POP \t\t\t\n      SWAP3 \t\t\t\n      SWAP2 \t\t\t\n      POP \t\t\t\n      POP \t\t\t\n      JUMP \t\t\t\n    tag 609\t\t\t\n      JUMPDEST \t\t\t\n      PUSH 0\t\t\t\n      PUSH [tag] 1080\t\t\t\n      DUP3 \t\t\t\n      PUSH [tag] 607\t\t\t\n      JUMP \t\t\t\n    tag 1080\t\t\t\n      JUMPDEST \t\t\t\n      PUSH [tag] 1081\t\t\t\n      DUP2 \t\t\t\n      DUP6 \t\t\t\n      PUSH [tag] 608\t\t\t\n      JUMP \t\t\t\n    tag 1081\t\t\t\n      JUMPDEST \t\t\t\n      SWAP4 \t\t\t\n      POP \t\t\t\n      PUSH [tag] 1082\t\t\t\n      DUP2 \t\t\t\n      DUP6 \t\t\t\n      PUSH 20\t\t\t\n      DUP7 \t\t\t\n      ADD \t\t\t\n      PUSH [tag] 517\t\t\t\n      JUMP \t\t\t\n    tag 1082\t\t\t\n      JUMPDEST \t\t\t\n      PUSH [tag] 1083\t\t\t\n      DUP2 \t\t\t\n      PUSH [tag] 518\t\t\t\n      JUMP \t\t\t\n    tag 1083\t\t\t\n      JUMPDEST \t\t\t\n      DUP5 \t\t\t\n      ADD \t\t\t\n      SWAP2 \t\t\t\n      POP \t\t\t\n      POP \t\t\t\n      SWAP3 \t\t\t\n      SWAP2 \t\t\t\n      POP \t\t\t\n      POP \t\t\t\n      JUMP \t\t\t\n    tag 465\t\t\t\n      JUMPDEST \t\t\t\n      PUSH 0\t\t\t\n      PUSH A0\t\t\t\n      DUP3 \t\t\t\n      ADD \t\t\t\n      SWAP1 \t\t\t\n      POP \t\t\t\n      PUSH [tag] 1085\t\t\t\n      PUSH 0\t\t\t\n      DUP4 \t\t\t\n      ADD \t\t\t\n      DUP9 \t\t\t\n      PUSH [tag] 559\t\t\t\n      JUMP \t\t\t\n    tag 1085\t\t\t\n      JUMPDEST \t\t\t\n      PUSH [tag] 1086\t\t\t\n      PUSH 20\t\t\t\n      DUP4 \t\t\t\n      ADD \t\t\t\n      DUP8 \t\t\t\n      PUSH [tag] 559\t\t\t\n      JUMP \t\t\t\n    tag 1086\t\t\t\n      JUMPDEST \t\t\t\n      PUSH [tag] 1087\t\t\t\n      PUSH 40\t\t\t\n      DUP4 \t\t\t\n      ADD \t\t\t\n      DUP7 \t\t\t\n      PUSH [tag] 509\t\t\t\n      JUMP \t\t\t\n    tag 1087\t\t\t\n      JUMPDEST \t\t\t\n      PUSH [tag] 1088\t\t\t\n      PUSH 60\t\t\t\n      DUP4 \t\t\t\n      ADD \t\t\t\n      DUP6 \t\t\t\n      PUSH [tag] 509\t\t\t\n      JUMP \t\t\t\n    tag 1088\t\t\t\n      JUMPDEST \t\t\t\n      DUP2 \t\t\t\n      DUP2 \t\t\t\n      SUB \t\t\t\n      PUSH 80\t\t\t\n      DUP4 \t\t\t\n      ADD \t\t\t\n      MSTORE \t\t\t\n      PUSH [tag] 1089\t\t\t\n      DUP2 \t\t\t\n      DUP5 \t\t\t\n      PUSH [tag] 609\t\t\t\n      JUMP \t\t\t\n    tag 1089\t\t\t\n      JUMPDEST \t\t\t\n      SWAP1 \t\t\t\n      POP \t\t\t\n      SWAP7 \t\t\t\n      SWAP6 \t\t\t\n      POP \t\t\t\n      POP \t\t\t\n      POP \t\t\t\n      POP \t\t\t\n      POP \t\t\t\n      POP \t\t\t\n      JUMP \t\t\t\n    tag 610\t\t\t\n      JUMPDEST \t\t\t\n      PUSH 0\t\t\t\n      DUP2 \t\t\t\n      MLOAD \t\t\t\n      SWAP1 \t\t\t\n      POP \t\t\t\n      PUSH [tag] 1091\t\t\t\n      DUP2 \t\t\t\n      PUSH [tag] 511\t\t\t\n      JUMP \t\t\t\n    tag 1091\t\t\t\n      JUMPDEST \t\t\t\n      SWAP3 \t\t\t\n      SWAP2 \t\t\t\n      POP \t\t\t\n      POP \t\t\t\n      JUMP \t\t\t\n    tag 468\t\t\t\n      JUMPDEST \t\t\t\n      PUSH 0\t\t\t\n      PUSH 20\t\t\t\n      DUP3 \t\t\t\n      DUP5 \t\t\t\n      SUB \t\t\t\n      SLT \t\t\t\n      ISZERO \t\t\t\n      PUSH [tag] 1093\t\t\t\n      JUMPI \t\t\t\n      PUSH [tag] 1094\t\t\t\n      PUSH [tag] 500\t\t\t\n      JUMP \t\t\t\n    tag 1094\t\t\t\n      JUMPDEST \t\t\t\n    tag 1093\t\t\t\n      JUMPDEST \t\t\t\n      PUSH 0\t\t\t\n      PUSH [tag] 1095\t\t\t\n      DUP5 \t\t\t\n      DUP3 \t\t\t\n      DUP6 \t\t\t\n      ADD \t\t\t\n      PUSH [tag] 610\t\t\t\n      JUMP \t\t\t\n    tag 1095\t\t\t\n      JUMPDEST \t\t\t\n      SWAP2 \t\t\t\n      POP \t\t\t\n      POP \t\t\t\n      SWAP3 \t\t\t\n      SWAP2 \t\t\t\n      POP \t\t\t\n      POP \t\t\t\n      JUMP \t\t\t\n    tag 484\t\t\t\n      JUMPDEST \t\t\t\n      PUSH 0\t\t\t\n      PUSH A0\t\t\t\n      DUP3 \t\t\t\n      ADD \t\t\t\n      SWAP1 \t\t\t\n      POP \t\t\t\n      PUSH [tag] 1097\t\t\t\n      PUSH 0\t\t\t\n      DUP4 \t\t\t\n      ADD \t\t\t\n      DUP9 \t\t\t\n      PUSH [tag] 559\t\t\t\n      JUMP \t\t\t\n    tag 1097\t\t\t\n      JUMPDEST \t\t\t\n      PUSH [tag] 1098\t\t\t\n      PUSH 20\t\t\t\n      DUP4 \t\t\t\n      ADD \t\t\t\n      DUP8 \t\t\t\n      PUSH [tag] 559\t\t\t\n      JUMP \t\t\t\n    tag 1098\t\t\t\n      JUMPDEST \t\t\t\n      DUP2 \t\t\t\n      DUP2 \t\t\t\n      SUB \t\t\t\n      PUSH 40\t\t\t\n      DUP4 \t\t\t\n      ADD \t\t\t\n      MSTORE \t\t\t\n      PUSH [tag] 1099\t\t\t\n      DUP2 \t\t\t\n      DUP7 \t\t\t\n      PUSH [tag] 556\t\t\t\n      JUMP \t\t\t\n    tag 1099\t\t\t\n      JUMPDEST \t\t\t\n      SWAP1 \t\t\t\n      POP \t\t\t\n      DUP2 \t\t\t\n      DUP2 \t\t\t\n      SUB \t\t\t\n      PUSH 60\t\t\t\n      DUP4 \t\t\t\n      ADD \t\t\t\n      MSTORE \t\t\t\n      PUSH [tag] 1100\t\t\t\n      DUP2 \t\t\t\n      DUP6 \t\t\t\n      PUSH [tag] 556\t\t\t\n      JUMP \t\t\t\n    tag 1100\t\t\t\n      JUMPDEST \t\t\t\n      SWAP1 \t\t\t\n      POP \t\t\t\n      DUP2 \t\t\t\n      DUP2 \t\t\t\n      SUB \t\t\t\n      PUSH 80\t\t\t\n      DUP4 \t\t\t\n      ADD \t\t\t\n      MSTORE \t\t\t\n      PUSH [tag] 1101\t\t\t\n      DUP2 \t\t\t\n      DUP5 \t\t\t\n      PUSH [tag] 609\t\t\t\n      JUMP \t\t\t\n    tag 1101\t\t\t\n      JUMPDEST \t\t\t\n      SWAP1 \t\t\t\n      POP \t\t\t\n      SWAP7 \t\t\t\n      SWAP6 \t\t\t\n      POP \t\t\t\n      POP \t\t\t\n      POP \t\t\t\n      POP \t\t\t\n      POP \t\t\t\n      POP \t\t\t\n      JUMP \t\t\t\n    .data\n"
}