{
	"compilerInput": "{\"language\":\"Solidity\",\"sources\":{\"PMUniversalVerifier.sol\":{\"content\":\"// SPDX-License-IDentifier: MIT\\r\\npragma solidity >=0.8.0 <0.9.0;\\r\\n\\r\\nimport \\\"@openzeppelin/contracts/access/Ownable.sol\\\";\\r\\nimport {ERC1155} from '@openzeppelin/contracts/token/ERC1155/ERC1155.sol';\\r\\nimport {PrimitiveTypeUtils} from '@iden3/contracts/lib/PrimitiveTypeUtils.sol';\\r\\nimport {ICircuitValidator} from '@iden3/contracts/interfaces/ICircuitValidator.sol';\\r\\nimport {EmbeddedZKPVerifier} from '@iden3/contracts/verifiers/EmbeddedZKPVerifier.sol';\\r\\nimport {UniversalVerifier} from '@iden3/contracts/verifiers/UniversalVerifier.sol';\\r\\nimport \\\"@openzeppelin/contracts/utils/structs/EnumerableSet.sol\\\";\\r\\nimport { IZKPVerifier } from '@iden3/contracts/interfaces/IZKPVerifier.sol';\\r\\n\\r\\ncontract PMUniversalVerifier is ERC1155, Ownable {\\r\\n    address[] private admins;\\r\\n\\r\\n    // Getter function for the admins array, only callable by the owner.\\r\\n    function getAdmins() public view onlyOwner returns (address[] memory) {\\r\\n        return admins;\\r\\n    }\\r\\n\\r\\n    // Internal helper function to check if an address is an admin.\\r\\n    function _isAdmin(address _admin) internal view returns (bool) {\\r\\n        for (uint i = 0; i < admins.length; i++) {\\r\\n            if (admins[i] == _admin) {\\r\\n                return true;\\r\\n            }\\r\\n        }\\r\\n        return false;\\r\\n    }\\r\\n\\r\\n    // Function to add an admin address. Only the owner can add.\\r\\n    function addAdmin(address _admin) public onlyOwner {\\r\\n        require(_admin != address(0), \\\"Invalid address\\\");\\r\\n        require(!_isAdmin(_admin), \\\"Address is already an admin\\\");\\r\\n        admins.push(_admin);\\r\\n    }\\r\\n\\r\\n    // Function to remove an admin address. Only the owner can remove.\\r\\n    function removeAdmin(address _admin) public onlyOwner {\\r\\n        uint len = admins.length;\\r\\n        for (uint i = 0; i < len; i++) {\\r\\n            if (admins[i] == _admin) {\\r\\n                admins[i] = admins[len - 1];\\r\\n                admins.pop();\\r\\n                return;\\r\\n            }\\r\\n        }\\r\\n        revert(\\\"Admin not found\\\");\\r\\n    }\\r\\n\\r\\n    // Modifier to restrict functions to only addresses in the admin list.\\r\\n    modifier onlyAdmin() {\\r\\n        require(_isAdmin(msg.sender), \\\"Caller is not an admin\\\");\\r\\n        _;\\r\\n    }\\r\\n\\r\\n    using EnumerableSet for EnumerableSet.UintSet;\\r\\n\\r\\n    // A set of all token IDs that have ever been minted\\r\\n    EnumerableSet.UintSet private _allTokenIDs;\\r\\n\\r\\n    /// @notice Returns the full list of token IDs ever minted\\r\\n    function allTokenIDs() external view returns (uint256[] memory) {\\r\\n        return _allTokenIDs.values();\\r\\n    }\\r\\n\\r\\n    // Mapping from token ID to its name. But the token name and other attributes can be stored as uri \\r\\n    mapping(uint256 => string) public tokenName;\\r\\n\\r\\n\\r\\n    // Mapping from tokenID to proof_request_id to prover's role (a string 'sender' or 'receiver').\\r\\n    // tokenID → (proofRequestID → 'sender' or 'receiver')\\r\\n    mapping(uint256 => mapping(uint64 => string)) public tokenID_proofRequest_role;\\r\\n\\r\\n    // Struct to represent a spending condition\\r\\n    struct SpendingCondition {\\r\\n        string attribute;\\r\\n        string operatorStr;\\r\\n        string value;\\r\\n    }\\r\\n\\r\\n    // Mapping from tokenID to proofRequestID to spending condition\\r\\n    // tokenID => (proofRequestID => SpendingCondition)\\r\\n    mapping(uint256 => mapping(uint64 => SpendingCondition)) public spendingConditions;\\r\\n\\r\\n    // An array to store proof_request_ids only for iteration.\\r\\n    uint64[] public proofRequestIDs;\\r\\n    \\r\\n    /// @notice Get all spending conditions for a given tokenID\\r\\n    function getSpendingConditions(uint256 tokenID) external view returns (uint64[] memory, SpendingCondition[] memory) {\\r\\n        uint64[] memory ids = proofRequestIDs;\\r\\n        uint256 count = 0;\\r\\n        // First, count how many proofRequestIDs are associated with this tokenID\\r\\n        for (uint256 i = 0; i < ids.length; i++) {\\r\\n            if (bytes(spendingConditions[tokenID][ids[i]].attribute).length > 0) {\\r\\n                count++;\\r\\n            }\\r\\n        }\\r\\n        // Prepare arrays for output\\r\\n        uint64[] memory filteredIDs = new uint64[](count);\\r\\n        SpendingCondition[] memory conditions = new SpendingCondition[](count);\\r\\n        uint256 idx = 0;\\r\\n        for (uint256 i = 0; i < ids.length; i++) {\\r\\n            if (bytes(spendingConditions[tokenID][ids[i]].attribute).length > 0) {\\r\\n                filteredIDs[idx] = ids[i];\\r\\n                conditions[idx] = spendingConditions[tokenID][ids[i]];\\r\\n                idx++;\\r\\n            }\\r\\n        }\\r\\n        return (filteredIDs, conditions);\\r\\n    }\\r\\n\\r\\n    // Add a new proof request and the corresponding prover's address.\\r\\n    // The array proofRequestIDs is updated accordingly.\\r\\n    // Add a new proof request and the corresponding role ('sender' or 'receiver').\\r\\n    // The array proofRequestIDs is updated accordingly.\\r\\n    function addProofRequestAndRole(uint256 tokenID, uint64 requestID, string calldata role) public onlyAdmin {\\r\\n        require(_allTokenIDs.contains(tokenID), \\\"token id does not exist\\\");\\r\\n        require(bytes(tokenID_proofRequest_role[tokenID][requestID]).length == 0, \\\"Proof request already exists\\\");\\r\\n        require(\\r\\n            keccak256(bytes(role)) == keccak256(bytes(\\\"sender\\\")) ||\\r\\n            keccak256(bytes(role)) == keccak256(bytes(\\\"receiver\\\")),\\r\\n            \\\"Role must be 'sender' or 'receiver'\\\"\\r\\n        );\\r\\n        tokenID_proofRequest_role[tokenID][requestID] = role;\\r\\n        proofRequestIDs.push(requestID);\\r\\n    }\\r\\n    \\r\\n    function addProofRequest_VerifierAndPM(\\r\\n        uint64 requestId,\\r\\n        string calldata metadata,\\r\\n        ICircuitValidator validator,\\r\\n        bytes calldata data,\\r\\n        uint256 tokenID,\\r\\n        string calldata role,\\r\\n        SpendingCondition calldata condition\\r\\n    ) public {\\r\\n        // Build the IZKPVerifier.ZKPRequest struct\\r\\n        IZKPVerifier.ZKPRequest memory req = IZKPVerifier.ZKPRequest({\\r\\n            metadata: metadata,\\r\\n            validator: validator,\\r\\n            data: data\\r\\n        });\\r\\n\\r\\n        verifier.setZKPRequest(requestId, req);\\r\\n        addProofRequestAndRole(tokenID, requestId, role);\\r\\n        // Add the spending condition\\r\\n        spendingConditions[tokenID][requestId] = SpendingCondition({\\r\\n            attribute: condition.attribute,\\r\\n            operatorStr: condition.operatorStr,\\r\\n            value: condition.value\\r\\n        });\\r\\n    }\\r\\n    \\r\\n    // Delete a proof request and the address by ID.\\r\\n    // The array proofRequestIDs is updated accordingly.\\r\\n    function deleteProofRequestAndRole(uint256 tokenID, uint64 requestID) public onlyAdmin {\\r\\n        require(_allTokenIDs.contains(tokenID), \\\"token id does not exist\\\");\\r\\n        require(bytes(tokenID_proofRequest_role[tokenID][requestID]).length != 0, \\\"Proof request does not exist\\\");\\r\\n        delete tokenID_proofRequest_role[tokenID][requestID];\\r\\n        delete spendingConditions[tokenID][requestID];\\r\\n        // Remove ID from the array (swap-and-pop technique)\\r\\n        for (uint256 i = 0; i < proofRequestIDs.length; i++) {\\r\\n            if (proofRequestIDs[i] == requestID) {\\r\\n                proofRequestIDs[i] = proofRequestIDs[proofRequestIDs.length - 1];\\r\\n                proofRequestIDs.pop();\\r\\n                break;\\r\\n            }\\r\\n        }\\r\\n    }\\r\\n\\r\\n    uint256 public constant fungible_token = 1;\\r\\n    uint256 public constant non_fungible_token = 2;\\r\\n\\r\\n    UniversalVerifier public verifier;\\r\\n\\r\\n    constructor(UniversalVerifier verifier_, address initialOwner, string memory uri_)\\r\\n    ERC1155(uri_)\\r\\n    Ownable(initialOwner)\\r\\n    {\\r\\n        verifier = verifier_;\\r\\n    }\\r\\n\\r\\n    // Custom error declaration (check if token id already taken, when minting new token)\\r\\n    error TokenIDTaken(uint256 tokenID);\\r\\n\\r\\n\\r\\n    // Reverts with TokenIDNotFound if the ID hasn’t been registered yet.\\r\\n    error TokenIDNotFound(uint256 tokenID);\\r\\n\\r\\n    /// @notice Mint a token by name. If the name exists, mint the existing token. \\r\\n    /// If the name does not exist, mint a new token with a random unused ID and assign the name.\\r\\n    /// Anyone can call this function to mint a token, for testing purposes.\\r\\n    /// In production, this function should be restricted to the owner or a specific role.\\r\\n    /// @dev The function no longer requires the ID argument. The name must be non-empty.\\r\\n    function mintToken(address to, uint256 amount, bytes calldata data, string calldata name) external {\\r\\n        require(bytes(name).length > 0, \\\"Name required\\\");\\r\\n        uint256 tokenID = 0;\\r\\n        bool found = false;\\r\\n        uint256[] memory ids = _allTokenIDs.values();\\r\\n        for (uint256 i = 0; i < ids.length; i++) {\\r\\n            if (keccak256(bytes(tokenName[ids[i]])) == keccak256(bytes(name))) {\\r\\n                tokenID = ids[i];\\r\\n                found = true;\\r\\n                break;\\r\\n            }\\r\\n        }\\r\\n        if (found) {\\r\\n            _mint(to, tokenID, amount, data);\\r\\n        } else {\\r\\n            // Generate a random 4-5 digit ID (1000–99999)\\r\\n            uint256 newID;\\r\\n            uint256 attempts = 0;\\r\\n            do {\\r\\n                newID = 1000 + (uint256(keccak256(abi.encodePacked(block.timestamp, block.prevrandao, to, name, attempts))) % 90000);\\r\\n                attempts++;\\r\\n                require(attempts < 100, \\\"Unable to find unique short token ID\\\");\\r\\n            } while (_allTokenIDs.contains(newID));\\r\\n            require(_allTokenIDs.add(newID), \\\"TokenIDTaken\\\");\\r\\n            _mint(to, newID, amount, data);\\r\\n            tokenName[newID] = name;\\r\\n        }\\r\\n    }\\r\\n\\r\\n    function burn(address account, uint256 ID, uint256 amount) external onlyOwner {\\r\\n        _burn(account, ID, amount);\\r\\n    }\\r\\n\\r\\n    // Custom error declaration\\r\\n    error ProofNotVerified(uint64 requestID, address proverAddress);\\r\\n\\r\\n    // @dev Internal helper: revert if any proof for tokenID is still unverified.\\r\\n    // Use this before token transfer.\\r\\n    // Checks sender's and receiver's proofs as required by the prover's role.\\r\\n    function _checkAllProofsVerified(uint256 tokenID, address sender, address receiver) internal view {\\r\\n        uint64[] memory tempRequestIDs = proofRequestIDs;\\r\\n        for (uint256 i = 0; i < tempRequestIDs.length; i++) {\\r\\n            string memory role = tokenID_proofRequest_role[tokenID][tempRequestIDs[i]];\\r\\n            if (bytes(role).length == 0) continue;\\r\\n            if (keccak256(bytes(role)) == keccak256(bytes(\\\"sender\\\"))) {\\r\\n                if (!verifier.getProofStatus(sender, tempRequestIDs[i]).isVerified) {\\r\\n                    revert ProofNotVerified(tempRequestIDs[i], sender);\\r\\n                }\\r\\n            } else if (keccak256(bytes(role)) == keccak256(bytes(\\\"receiver\\\"))) {\\r\\n                if (!verifier.getProofStatus(receiver, tempRequestIDs[i]).isVerified) {\\r\\n                    revert ProofNotVerified(tempRequestIDs[i], receiver);\\r\\n                }\\r\\n            }\\r\\n        }\\r\\n    }\\r\\n\\r\\n    // Override safeTransferFrom and include the onlyValidProofs modifier\\r\\n    function safeTransferFrom(\\r\\n        address from,\\r\\n        address to,\\r\\n        uint256 tokenID,\\r\\n        uint256 amount,\\r\\n        bytes memory data\\r\\n    ) public virtual override {\\r\\n        // Enforce per-token proof checks\\r\\n        _checkAllProofsVerified(tokenID, from, to);\\r\\n\\r\\n        // Optionally add any additional custom logic here\\r\\n        super.safeTransferFrom(from, to, tokenID, amount, data);\\r\\n    }\\r\\n\\r\\n    function safeBatchTransferFrom(\\r\\n        address from,\\r\\n        address to,\\r\\n        uint256[] memory tokenIDs,\\r\\n        uint256[] memory amounts,\\r\\n        bytes memory data\\r\\n    ) public virtual override {\\r\\n        require(tokenIDs.length == amounts.length, \\\"ERC1155: Mismatched array lengths\\\");\\r\\n        require(to != address(0), \\\"ERC1155: transfer to the zero address\\\");\\r\\n        for (uint256 i = 0; i < tokenIDs.length; ++i) {\\r\\n            // Enforce per-token proof checks\\r\\n            _checkAllProofsVerified(tokenIDs[i], from, to);\\r\\n            safeTransferFrom(from, to, tokenIDs[i], amounts[i], data);\\r\\n        }\\r\\n    }\\r\\n}\\r\\n\"},\"@iden3/contracts/interfaces/IZKPVerifier.sol\":{\"content\":\"// SPDX-License-Identifier: GPL-3.0\\n\\npragma solidity 0.8.20;\\n\\nimport {ICircuitValidator} from \\\"./ICircuitValidator.sol\\\";\\n\\ninterface IZKPVerifier {\\n    struct ZKPRequest {\\n        string metadata;\\n        ICircuitValidator validator;\\n        bytes data;\\n    }\\n\\n    struct ProofStatus {\\n        bool isVerified;\\n        string validatorVersion;\\n        uint256 blockNumber;\\n        uint256 blockTimestamp;\\n    }\\n\\n    function submitZKPResponse(\\n        uint64 requestId,\\n        uint256[] memory inputs,\\n        uint256[2] memory a,\\n        uint256[2][2] memory b,\\n        uint256[2] memory c\\n    ) external;\\n\\n    function setZKPRequest(uint64 requestId, ZKPRequest calldata request) external;\\n\\n    function getZKPRequest(uint64 requestId) external view returns (ZKPRequest memory);\\n\\n    function getZKPRequestsCount() external view returns (uint256);\\n\\n    function requestIdExists(uint64 requestId) external view returns (bool);\\n\\n    function getZKPRequests(\\n        uint256 startIndex,\\n        uint256 length\\n    ) external view returns (ZKPRequest[] memory);\\n\\n    function isProofVerified(address sender, uint64 requestId) external view returns (bool);\\n\\n    function getProofStatus(\\n        address sender,\\n        uint64 requestId\\n    ) external view returns (ProofStatus memory);\\n\\n    function getProofStorageField(\\n        address user,\\n        uint64 requestId,\\n        string memory key\\n    ) external view returns (uint256);\\n}\\n\"},\"@openzeppelin/contracts/utils/structs/EnumerableSet.sol\":{\"content\":\"// SPDX-License-Identifier: MIT\\n// OpenZeppelin Contracts (last updated v5.3.0) (utils/structs/EnumerableSet.sol)\\n// This file was procedurally generated from scripts/generate/templates/EnumerableSet.js.\\n\\npragma solidity ^0.8.20;\\n\\nimport {Arrays} from \\\"../Arrays.sol\\\";\\n\\n/**\\n * @dev Library for managing\\n * https://en.wikipedia.org/wiki/Set_(abstract_data_type)[sets] of primitive\\n * types.\\n *\\n * Sets have the following properties:\\n *\\n * - Elements are added, removed, and checked for existence in constant time\\n * (O(1)).\\n * - Elements are enumerated in O(n). No guarantees are made on the ordering.\\n * - Set can be cleared (all elements removed) in O(n).\\n *\\n * ```solidity\\n * contract Example {\\n *     // Add the library methods\\n *     using EnumerableSet for EnumerableSet.AddressSet;\\n *\\n *     // Declare a set state variable\\n *     EnumerableSet.AddressSet private mySet;\\n * }\\n * ```\\n *\\n * As of v3.3.0, sets of type `bytes32` (`Bytes32Set`), `address` (`AddressSet`)\\n * and `uint256` (`UintSet`) are supported.\\n *\\n * [WARNING]\\n * ====\\n * Trying to delete such a structure from storage will likely result in data corruption, rendering the structure\\n * unusable.\\n * See https://github.com/ethereum/solidity/pull/11843[ethereum/solidity#11843] for more info.\\n *\\n * In order to clean an EnumerableSet, you can either remove all elements one by one or create a fresh instance using an\\n * array of EnumerableSet.\\n * ====\\n */\\nlibrary EnumerableSet {\\n    // To implement this library for multiple types with as little code\\n    // repetition as possible, we write it in terms of a generic Set type with\\n    // bytes32 values.\\n    // The Set implementation uses private functions, and user-facing\\n    // implementations (such as AddressSet) are just wrappers around the\\n    // underlying Set.\\n    // This means that we can only create new EnumerableSets for types that fit\\n    // in bytes32.\\n\\n    struct Set {\\n        // Storage of set values\\n        bytes32[] _values;\\n        // Position is the index of the value in the `values` array plus 1.\\n        // Position 0 is used to mean a value is not in the set.\\n        mapping(bytes32 value => uint256) _positions;\\n    }\\n\\n    /**\\n     * @dev Add a value to a set. O(1).\\n     *\\n     * Returns true if the value was added to the set, that is if it was not\\n     * already present.\\n     */\\n    function _add(Set storage set, bytes32 value) private returns (bool) {\\n        if (!_contains(set, value)) {\\n            set._values.push(value);\\n            // The value is stored at length-1, but we add 1 to all indexes\\n            // and use 0 as a sentinel value\\n            set._positions[value] = set._values.length;\\n            return true;\\n        } else {\\n            return false;\\n        }\\n    }\\n\\n    /**\\n     * @dev Removes a value from a set. O(1).\\n     *\\n     * Returns true if the value was removed from the set, that is if it was\\n     * present.\\n     */\\n    function _remove(Set storage set, bytes32 value) private returns (bool) {\\n        // We cache the value's position to prevent multiple reads from the same storage slot\\n        uint256 position = set._positions[value];\\n\\n        if (position != 0) {\\n            // Equivalent to contains(set, value)\\n            // To delete an element from the _values array in O(1), we swap the element to delete with the last one in\\n            // the array, and then remove the last element (sometimes called as 'swap and pop').\\n            // This modifies the order of the array, as noted in {at}.\\n\\n            uint256 valueIndex = position - 1;\\n            uint256 lastIndex = set._values.length - 1;\\n\\n            if (valueIndex != lastIndex) {\\n                bytes32 lastValue = set._values[lastIndex];\\n\\n                // Move the lastValue to the index where the value to delete is\\n                set._values[valueIndex] = lastValue;\\n                // Update the tracked position of the lastValue (that was just moved)\\n                set._positions[lastValue] = position;\\n            }\\n\\n            // Delete the slot where the moved value was stored\\n            set._values.pop();\\n\\n            // Delete the tracked position for the deleted slot\\n            delete set._positions[value];\\n\\n            return true;\\n        } else {\\n            return false;\\n        }\\n    }\\n\\n    /**\\n     * @dev Removes all the values from a set. O(n).\\n     *\\n     * WARNING: Developers should keep in mind that this function has an unbounded cost and using it may render the\\n     * function uncallable if the set grows to the point where clearing it consumes too much gas to fit in a block.\\n     */\\n    function _clear(Set storage set) private {\\n        uint256 len = _length(set);\\n        for (uint256 i = 0; i < len; ++i) {\\n            delete set._positions[set._values[i]];\\n        }\\n        Arrays.unsafeSetLength(set._values, 0);\\n    }\\n\\n    /**\\n     * @dev Returns true if the value is in the set. O(1).\\n     */\\n    function _contains(Set storage set, bytes32 value) private view returns (bool) {\\n        return set._positions[value] != 0;\\n    }\\n\\n    /**\\n     * @dev Returns the number of values on the set. O(1).\\n     */\\n    function _length(Set storage set) private view returns (uint256) {\\n        return set._values.length;\\n    }\\n\\n    /**\\n     * @dev Returns the value stored at position `index` in the set. O(1).\\n     *\\n     * Note that there are no guarantees on the ordering of values inside the\\n     * array, and it may change when more values are added or removed.\\n     *\\n     * Requirements:\\n     *\\n     * - `index` must be strictly less than {length}.\\n     */\\n    function _at(Set storage set, uint256 index) private view returns (bytes32) {\\n        return set._values[index];\\n    }\\n\\n    /**\\n     * @dev Return the entire set in an array\\n     *\\n     * WARNING: This operation will copy the entire storage to memory, which can be quite expensive. This is designed\\n     * to mostly be used by view accessors that are queried without any gas fees. Developers should keep in mind that\\n     * this function has an unbounded cost, and using it as part of a state-changing function may render the function\\n     * uncallable if the set grows to a point where copying to memory consumes too much gas to fit in a block.\\n     */\\n    function _values(Set storage set) private view returns (bytes32[] memory) {\\n        return set._values;\\n    }\\n\\n    // Bytes32Set\\n\\n    struct Bytes32Set {\\n        Set _inner;\\n    }\\n\\n    /**\\n     * @dev Add a value to a set. O(1).\\n     *\\n     * Returns true if the value was added to the set, that is if it was not\\n     * already present.\\n     */\\n    function add(Bytes32Set storage set, bytes32 value) internal returns (bool) {\\n        return _add(set._inner, value);\\n    }\\n\\n    /**\\n     * @dev Removes a value from a set. O(1).\\n     *\\n     * Returns true if the value was removed from the set, that is if it was\\n     * present.\\n     */\\n    function remove(Bytes32Set storage set, bytes32 value) internal returns (bool) {\\n        return _remove(set._inner, value);\\n    }\\n\\n    /**\\n     * @dev Removes all the values from a set. O(n).\\n     *\\n     * WARNING: Developers should keep in mind that this function has an unbounded cost and using it may render the\\n     * function uncallable if the set grows to the point where clearing it consumes too much gas to fit in a block.\\n     */\\n    function clear(Bytes32Set storage set) internal {\\n        _clear(set._inner);\\n    }\\n\\n    /**\\n     * @dev Returns true if the value is in the set. O(1).\\n     */\\n    function contains(Bytes32Set storage set, bytes32 value) internal view returns (bool) {\\n        return _contains(set._inner, value);\\n    }\\n\\n    /**\\n     * @dev Returns the number of values in the set. O(1).\\n     */\\n    function length(Bytes32Set storage set) internal view returns (uint256) {\\n        return _length(set._inner);\\n    }\\n\\n    /**\\n     * @dev Returns the value stored at position `index` in the set. O(1).\\n     *\\n     * Note that there are no guarantees on the ordering of values inside the\\n     * array, and it may change when more values are added or removed.\\n     *\\n     * Requirements:\\n     *\\n     * - `index` must be strictly less than {length}.\\n     */\\n    function at(Bytes32Set storage set, uint256 index) internal view returns (bytes32) {\\n        return _at(set._inner, index);\\n    }\\n\\n    /**\\n     * @dev Return the entire set in an array\\n     *\\n     * WARNING: This operation will copy the entire storage to memory, which can be quite expensive. This is designed\\n     * to mostly be used by view accessors that are queried without any gas fees. Developers should keep in mind that\\n     * this function has an unbounded cost, and using it as part of a state-changing function may render the function\\n     * uncallable if the set grows to a point where copying to memory consumes too much gas to fit in a block.\\n     */\\n    function values(Bytes32Set storage set) internal view returns (bytes32[] memory) {\\n        bytes32[] memory store = _values(set._inner);\\n        bytes32[] memory result;\\n\\n        assembly (\\\"memory-safe\\\") {\\n            result := store\\n        }\\n\\n        return result;\\n    }\\n\\n    // AddressSet\\n\\n    struct AddressSet {\\n        Set _inner;\\n    }\\n\\n    /**\\n     * @dev Add a value to a set. O(1).\\n     *\\n     * Returns true if the value was added to the set, that is if it was not\\n     * already present.\\n     */\\n    function add(AddressSet storage set, address value) internal returns (bool) {\\n        return _add(set._inner, bytes32(uint256(uint160(value))));\\n    }\\n\\n    /**\\n     * @dev Removes a value from a set. O(1).\\n     *\\n     * Returns true if the value was removed from the set, that is if it was\\n     * present.\\n     */\\n    function remove(AddressSet storage set, address value) internal returns (bool) {\\n        return _remove(set._inner, bytes32(uint256(uint160(value))));\\n    }\\n\\n    /**\\n     * @dev Removes all the values from a set. O(n).\\n     *\\n     * WARNING: Developers should keep in mind that this function has an unbounded cost and using it may render the\\n     * function uncallable if the set grows to the point where clearing it consumes too much gas to fit in a block.\\n     */\\n    function clear(AddressSet storage set) internal {\\n        _clear(set._inner);\\n    }\\n\\n    /**\\n     * @dev Returns true if the value is in the set. O(1).\\n     */\\n    function contains(AddressSet storage set, address value) internal view returns (bool) {\\n        return _contains(set._inner, bytes32(uint256(uint160(value))));\\n    }\\n\\n    /**\\n     * @dev Returns the number of values in the set. O(1).\\n     */\\n    function length(AddressSet storage set) internal view returns (uint256) {\\n        return _length(set._inner);\\n    }\\n\\n    /**\\n     * @dev Returns the value stored at position `index` in the set. O(1).\\n     *\\n     * Note that there are no guarantees on the ordering of values inside the\\n     * array, and it may change when more values are added or removed.\\n     *\\n     * Requirements:\\n     *\\n     * - `index` must be strictly less than {length}.\\n     */\\n    function at(AddressSet storage set, uint256 index) internal view returns (address) {\\n        return address(uint160(uint256(_at(set._inner, index))));\\n    }\\n\\n    /**\\n     * @dev Return the entire set in an array\\n     *\\n     * WARNING: This operation will copy the entire storage to memory, which can be quite expensive. This is designed\\n     * to mostly be used by view accessors that are queried without any gas fees. Developers should keep in mind that\\n     * this function has an unbounded cost, and using it as part of a state-changing function may render the function\\n     * uncallable if the set grows to a point where copying to memory consumes too much gas to fit in a block.\\n     */\\n    function values(AddressSet storage set) internal view returns (address[] memory) {\\n        bytes32[] memory store = _values(set._inner);\\n        address[] memory result;\\n\\n        assembly (\\\"memory-safe\\\") {\\n            result := store\\n        }\\n\\n        return result;\\n    }\\n\\n    // UintSet\\n\\n    struct UintSet {\\n        Set _inner;\\n    }\\n\\n    /**\\n     * @dev Add a value to a set. O(1).\\n     *\\n     * Returns true if the value was added to the set, that is if it was not\\n     * already present.\\n     */\\n    function add(UintSet storage set, uint256 value) internal returns (bool) {\\n        return _add(set._inner, bytes32(value));\\n    }\\n\\n    /**\\n     * @dev Removes a value from a set. O(1).\\n     *\\n     * Returns true if the value was removed from the set, that is if it was\\n     * present.\\n     */\\n    function remove(UintSet storage set, uint256 value) internal returns (bool) {\\n        return _remove(set._inner, bytes32(value));\\n    }\\n\\n    /**\\n     * @dev Removes all the values from a set. O(n).\\n     *\\n     * WARNING: Developers should keep in mind that this function has an unbounded cost and using it may render the\\n     * function uncallable if the set grows to the point where clearing it consumes too much gas to fit in a block.\\n     */\\n    function clear(UintSet storage set) internal {\\n        _clear(set._inner);\\n    }\\n\\n    /**\\n     * @dev Returns true if the value is in the set. O(1).\\n     */\\n    function contains(UintSet storage set, uint256 value) internal view returns (bool) {\\n        return _contains(set._inner, bytes32(value));\\n    }\\n\\n    /**\\n     * @dev Returns the number of values in the set. O(1).\\n     */\\n    function length(UintSet storage set) internal view returns (uint256) {\\n        return _length(set._inner);\\n    }\\n\\n    /**\\n     * @dev Returns the value stored at position `index` in the set. O(1).\\n     *\\n     * Note that there are no guarantees on the ordering of values inside the\\n     * array, and it may change when more values are added or removed.\\n     *\\n     * Requirements:\\n     *\\n     * - `index` must be strictly less than {length}.\\n     */\\n    function at(UintSet storage set, uint256 index) internal view returns (uint256) {\\n        return uint256(_at(set._inner, index));\\n    }\\n\\n    /**\\n     * @dev Return the entire set in an array\\n     *\\n     * WARNING: This operation will copy the entire storage to memory, which can be quite expensive. This is designed\\n     * to mostly be used by view accessors that are queried without any gas fees. Developers should keep in mind that\\n     * this function has an unbounded cost, and using it as part of a state-changing function may render the function\\n     * uncallable if the set grows to a point where copying to memory consumes too much gas to fit in a block.\\n     */\\n    function values(UintSet storage set) internal view returns (uint256[] memory) {\\n        bytes32[] memory store = _values(set._inner);\\n        uint256[] memory result;\\n\\n        assembly (\\\"memory-safe\\\") {\\n            result := store\\n        }\\n\\n        return result;\\n    }\\n}\\n\"},\"@iden3/contracts/verifiers/UniversalVerifier.sol\":{\"content\":\"// SPDX-License-Identifier: GPL-3.0\\npragma solidity 0.8.20;\\n\\nimport {Ownable2StepUpgradeable} from \\\"@openzeppelin/contracts-upgradeable/access/Ownable2StepUpgradeable.sol\\\";\\nimport {ICircuitValidator} from \\\"../interfaces/ICircuitValidator.sol\\\";\\nimport {IZKPVerifier} from \\\"../interfaces/IZKPVerifier.sol\\\";\\nimport {RequestOwnership} from \\\"./RequestOwnership.sol\\\";\\nimport {RequestDisableable} from \\\"./RequestDisableable.sol\\\";\\nimport {ValidatorWhitelist} from \\\"./ValidatorWhitelist.sol\\\";\\nimport {ZKPVerifierBase} from \\\"./ZKPVerifierBase.sol\\\";\\nimport {ArrayUtils} from \\\"../lib/ArrayUtils.sol\\\";\\n\\n/// @title Universal Verifier Contract\\n/// @notice A contract to manage ZKP (Zero-Knowledge Proof) requests and proofs.\\ncontract UniversalVerifier is\\n    Ownable2StepUpgradeable,\\n    RequestOwnership,\\n    RequestDisableable,\\n    ValidatorWhitelist\\n{\\n    /**\\n     * @dev Version of contract\\n     */\\n    string public constant VERSION = \\\"1.0.2\\\";\\n\\n    /// @dev Event emitted upon submitting a ZKP request\\n    event ZKPResponseSubmitted(uint64 indexed requestId, address indexed caller);\\n\\n    /// @dev Event emitted upon adding a ZKP request\\n    event ZKPRequestSet(\\n        uint64 indexed requestId,\\n        address indexed requestOwner,\\n        string metadata,\\n        address validator,\\n        bytes data\\n    );\\n\\n    /// @dev Modifier to check if the caller is the contract Owner or ZKP Request Owner\\n    modifier onlyOwnerOrRequestOwner(uint64 requestId) {\\n        address sender = _msgSender();\\n        require(\\n            sender == getRequestOwner(requestId) || sender == owner(),\\n            \\\"Not an owner or request owner\\\"\\n        );\\n        _;\\n    }\\n\\n    /// @dev Initializes the contract\\n    function initialize() public initializer {\\n        __Ownable_init(_msgSender());\\n    }\\n\\n    /// @dev Version of contract getter\\n    function version() public pure returns (string memory) {\\n        return VERSION;\\n    }\\n\\n    /// @dev Sets a ZKP request\\n    /// @param requestId The ID of the ZKP request\\n    /// @param request The ZKP request data\\n    function setZKPRequest(\\n        uint64 requestId,\\n        IZKPVerifier.ZKPRequest calldata request\\n    ) public override(RequestOwnership, ValidatorWhitelist, ZKPVerifierBase) {\\n        super.setZKPRequest(requestId, request);\\n\\n        emit ZKPRequestSet(\\n            requestId,\\n            _msgSender(),\\n            request.metadata,\\n            address(request.validator),\\n            request.data\\n        );\\n    }\\n\\n    /// @dev Submits a ZKP response and updates proof status\\n    /// @param requestId The ID of the ZKP request\\n    /// @param inputs The input data for the proof\\n    /// @param a The first component of the proof\\n    /// @param b The second component of the proof\\n    /// @param c The third component of the proof\\n    function submitZKPResponse(\\n        uint64 requestId,\\n        uint256[] calldata inputs,\\n        uint256[2] calldata a,\\n        uint256[2][2] calldata b,\\n        uint256[2] calldata c\\n    ) public override(RequestDisableable, ValidatorWhitelist, ZKPVerifierBase) {\\n        super.submitZKPResponse(requestId, inputs, a, b, c);\\n        emit ZKPResponseSubmitted(requestId, _msgSender());\\n    }\\n\\n    /// @dev Verifies a ZKP response without updating any proof status\\n    /// @param requestId The ID of the ZKP request\\n    /// @param inputs The public inputs for the proof\\n    /// @param a The first component of the proof\\n    /// @param b The second component of the proof\\n    /// @param c The third component of the proof\\n    /// @param sender The sender on behalf of which the proof is done\\n    function verifyZKPResponse(\\n        uint64 requestId,\\n        uint256[] calldata inputs,\\n        uint256[2] calldata a,\\n        uint256[2][2] calldata b,\\n        uint256[2] calldata c,\\n        address sender\\n    )\\n        public\\n        view\\n        override(RequestDisableable, ValidatorWhitelist, ZKPVerifierBase)\\n        returns (ICircuitValidator.KeyToInputIndex[] memory)\\n    {\\n        return super.verifyZKPResponse(requestId, inputs, a, b, c, sender);\\n    }\\n\\n    /// @dev Sets ZKP Request Owner address\\n    /// @param requestId The ID of the ZKP request\\n    /// @param requestOwner ZKP Request Owner address\\n    function setRequestOwner(\\n        uint64 requestId,\\n        address requestOwner\\n    ) public onlyOwnerOrRequestOwner(requestId) {\\n        _setRequestOwner(requestId, requestOwner);\\n    }\\n\\n    /// @dev Disables ZKP Request\\n    /// @param requestId The ID of the ZKP request\\n    function disableZKPRequest(uint64 requestId) public onlyOwnerOrRequestOwner(requestId) {\\n        _disableZKPRequest(requestId);\\n    }\\n\\n    /// @dev Enables ZKP Request\\n    /// @param requestId The ID of the ZKP request\\n    function enableZKPRequest(uint64 requestId) public onlyOwnerOrRequestOwner(requestId) {\\n        _enableZKPRequest(requestId);\\n    }\\n\\n    /// @dev Add new validator to the whitelist\\n    /// @param validator Validator address\\n    function addValidatorToWhitelist(ICircuitValidator validator) public onlyOwner {\\n        _addValidatorToWhitelist(validator);\\n    }\\n\\n    /// @dev Remove validator from the whitelist\\n    /// @param validator Validator address\\n    function removeValidatorFromWhitelist(ICircuitValidator validator) public onlyOwner {\\n        _removeValidatorFromWhitelist(validator);\\n    }\\n}\\n\"},\"@iden3/contracts/verifiers/EmbeddedZKPVerifier.sol\":{\"content\":\"// SPDX-License-Identifier: GPL-3.0\\npragma solidity 0.8.20;\\n\\nimport {Ownable2StepUpgradeable} from \\\"@openzeppelin/contracts-upgradeable/access/Ownable2StepUpgradeable.sol\\\";\\nimport {GenesisUtils} from \\\"../lib/GenesisUtils.sol\\\";\\nimport {ICircuitValidator} from \\\"../interfaces/ICircuitValidator.sol\\\";\\nimport {IZKPVerifier} from \\\"../interfaces/IZKPVerifier.sol\\\";\\nimport {ZKPVerifierBase} from \\\"./ZKPVerifierBase.sol\\\";\\nimport {ArrayUtils} from \\\"../lib/ArrayUtils.sol\\\";\\n\\nabstract contract EmbeddedZKPVerifier is Ownable2StepUpgradeable, ZKPVerifierBase {\\n    /**\\n     * @dev Sets the value for Owner\\n     */\\n    function __EmbeddedZKPVerifier_init(address initialOwner) internal onlyInitializing {\\n        __Ownable_init(initialOwner);\\n        ___EmbeddedZKPVerifier_init_unchained(initialOwner);\\n    }\\n\\n    function ___EmbeddedZKPVerifier_init_unchained(\\n        address initialOwner\\n    ) internal onlyInitializing {}\\n\\n    /// @dev Sets a ZKP request\\n    /// @param requestId The ID of the ZKP request\\n    /// @param request The ZKP request data\\n    function setZKPRequest(\\n        uint64 requestId,\\n        IZKPVerifier.ZKPRequest calldata request\\n    ) public virtual override onlyOwner {\\n        super.setZKPRequest(requestId, request);\\n    }\\n\\n    /// @dev Submits a ZKP response and updates proof status\\n    /// @param requestId The ID of the ZKP request\\n    /// @param inputs The input data for the proof\\n    /// @param a The first component of the proof\\n    /// @param b The second component of the proof\\n    /// @param c The third component of the proof\\n    function submitZKPResponse(\\n        uint64 requestId,\\n        uint256[] calldata inputs,\\n        uint256[2] calldata a,\\n        uint256[2][2] calldata b,\\n        uint256[2] calldata c\\n    ) public virtual override {\\n        IZKPVerifier.ZKPRequest memory request = getZKPRequest(requestId);\\n        _beforeProofSubmit(requestId, inputs, request.validator);\\n        super.submitZKPResponse(requestId, inputs, a, b, c);\\n        _afterProofSubmit(requestId, inputs, request.validator);\\n    }\\n\\n    /**\\n     * @dev Hook that is called before any proof response submit\\n     */\\n    function _beforeProofSubmit(\\n        uint64 requestId,\\n        uint256[] memory inputs,\\n        ICircuitValidator validator\\n    ) internal virtual {}\\n\\n    /**\\n     * @dev Hook that is called after any proof response submit\\n     */\\n    function _afterProofSubmit(\\n        uint64 requestId,\\n        uint256[] memory inputs,\\n        ICircuitValidator validator\\n    ) internal virtual {}\\n}\\n\"},\"@iden3/contracts/interfaces/ICircuitValidator.sol\":{\"content\":\"// SPDX-License-Identifier: GPL-3.0\\npragma solidity 0.8.20;\\n\\ninterface ICircuitValidator {\\n    struct KeyToInputIndex {\\n        string key;\\n        uint256 inputIndex;\\n    }\\n\\n    function version() external view returns (string memory);\\n\\n    function verify(\\n        uint256[] memory inputs,\\n        uint256[2] memory a,\\n        uint256[2][2] memory b,\\n        uint256[2] memory c,\\n        bytes calldata data,\\n        address sender\\n    ) external view returns (ICircuitValidator.KeyToInputIndex[] memory);\\n\\n    function getSupportedCircuitIds() external view returns (string[] memory ids);\\n\\n    function inputIndexOf(string memory name) external view returns (uint256);\\n}\\n\"},\"@iden3/contracts/lib/PrimitiveTypeUtils.sol\":{\"content\":\"// SPDX-License-Identifier: GPL-3.0\\npragma solidity 0.8.20;\\n\\nimport {BytesLib} from \\\"solidity-bytes-utils/contracts/BytesLib.sol\\\";\\n\\nlibrary PrimitiveTypeUtils {\\n    /**\\n     * @dev uint256ToBytes\\n     */\\n    function uint256ToBytes(uint256 x) internal pure returns (bytes memory b) {\\n        b = new bytes(32);\\n        assembly {\\n            mstore(add(b, 32), x)\\n        }\\n    }\\n\\n    /**\\n     * @dev reverse uint256\\n     */\\n    function reverseUint256(uint256 input) internal pure returns (uint256 v) {\\n        v = input;\\n\\n        // swap bytes\\n        v =\\n            ((v & 0xFF00FF00FF00FF00FF00FF00FF00FF00FF00FF00FF00FF00FF00FF00FF00FF00) >> 8) |\\n            ((v & 0x00FF00FF00FF00FF00FF00FF00FF00FF00FF00FF00FF00FF00FF00FF00FF00FF) << 8);\\n\\n        // swap 2-byte long pairs\\n        v =\\n            ((v & 0xFFFF0000FFFF0000FFFF0000FFFF0000FFFF0000FFFF0000FFFF0000FFFF0000) >> 16) |\\n            ((v & 0x0000FFFF0000FFFF0000FFFF0000FFFF0000FFFF0000FFFF0000FFFF0000FFFF) << 16);\\n\\n        // swap 4-byte long pairs\\n        v =\\n            ((v & 0xFFFFFFFF00000000FFFFFFFF00000000FFFFFFFF00000000FFFFFFFF00000000) >> 32) |\\n            ((v & 0x00000000FFFFFFFF00000000FFFFFFFF00000000FFFFFFFF00000000FFFFFFFF) << 32);\\n\\n        // swap 8-byte long pairs\\n        v =\\n            ((v & 0xFFFFFFFFFFFFFFFF0000000000000000FFFFFFFFFFFFFFFF0000000000000000) >> 64) |\\n            ((v & 0x0000000000000000FFFFFFFFFFFFFFFF0000000000000000FFFFFFFFFFFFFFFF) << 64);\\n\\n        // swap 16-byte long pairs\\n        v = (v >> 128) | (v << 128);\\n    }\\n\\n    /**\\n     * @dev reverse uint16\\n     */\\n    function reverseUint16(uint16 input) internal pure returns (uint16 v) {\\n        v = input;\\n\\n        // swap bytes\\n        v = (v >> 8) | (v << 8);\\n    }\\n\\n    /**\\n     * @dev reverse uint32\\n     */\\n    function reverseUint32(uint32 input) internal pure returns (uint32 v) {\\n        v = input;\\n\\n        // swap bytes\\n        v = ((v & 0xFF00FF00) >> 8) | ((v & 0x00FF00FF) << 8);\\n\\n        // swap 2-byte long pairs\\n        v = (v >> 16) | (v << 16);\\n    }\\n\\n    /**\\n     * @dev compareStrings\\n     */\\n    function compareStrings(string memory a, string memory b) internal pure returns (bool) {\\n        if (bytes(a).length != bytes(b).length) {\\n            return false;\\n        }\\n        return (keccak256(abi.encodePacked((a))) == keccak256(abi.encodePacked((b))));\\n    }\\n\\n    /**\\n     * @dev padRightToUint256 shift left 12 bytes\\n     * @param b, bytes array with max length 32, other bytes are cut. e.g. 0xf39Fd6e51aad88F6F4ce6aB8827279cffFb92266\\n     * @return value e.g 0xf39fd6e51aad88f6f4ce6ab8827279cfffb92266000000000000000000000000\\n     */\\n    function padRightToUint256(bytes memory b) internal pure returns (uint256 value) {\\n        return uint256(bytes32(b));\\n    }\\n\\n    /**\\n     * @dev bytesToAddress\\n     */\\n    function bytesToAddress(bytes memory bys) internal pure returns (address addr) {\\n        assembly {\\n            addr := mload(add(bys, 20))\\n        }\\n    }\\n\\n    /**\\n     * @dev concat\\n     */\\n    function concat(\\n        bytes memory preBytes,\\n        bytes memory postBytes\\n    ) internal pure returns (bytes memory) {\\n        return BytesLib.concat(preBytes, postBytes);\\n    }\\n\\n    /**\\n     * @dev slice\\n     */\\n    function slice(\\n        bytes memory bys,\\n        uint256 start,\\n        uint256 length\\n    ) internal pure returns (bytes memory) {\\n        return BytesLib.slice(bys, start, length);\\n    }\\n\\n    /**\\n     * @dev addressToUint256 converts address to uint256 which lower 20 bytes\\n     * is an address in Big Endian\\n     * @param _addr is ethereum address: eg.0xf39Fd6e51aad88F6F4ce6aB8827279cffFb92266\\n     * which as 0x000000000000000000000000f39fd6e51aad88f6f4ce6ab8827279cfffb92266 converted to uint160\\n     * @return uint256 representation of address 1390849295786071768276380950238675083608645509734\\n     */\\n    function addressToUint256(address _addr) internal pure returns (uint256) {\\n        return uint256(uint160(_addr));\\n    }\\n\\n    /**\\n     * @dev uint256ToAddress converts uint256 which lower 20 bytes\\n     * is an address in Big Endian to address\\n     * @param input uint256 e.g. 1390849295786071768276380950238675083608645509734\\n     * which as 0x000000000000000000000000f39fd6e51aad88f6f4ce6ab8827279cfffb92266 converted to address\\n     * @return address representation of uint256 0xf39Fd6e51aad88F6F4ce6aB8827279cffFb92266\\n     */\\n    function uint256ToAddress(uint256 input) internal pure returns (address) {\\n        require(\\n            input == uint256(uint160(input)),\\n            \\\"given input is not a representation of address, 12 most significant bytes should be zero\\\"\\n        );\\n        return address(uint160(input));\\n    }\\n\\n    /**\\n     * @dev addressToChallenge converts address to uint256 which lower 20 bytes\\n     * are representation of address in LittleEndian\\n     * @param _addr is ethereum address: eg.0xf39Fd6e51aad88F6F4ce6aB8827279cffFb92266\\n     * addressToBytes: 0x000000000000000000000000f39fd6e51aad88f6f4ce6ab8827279cfffb92266\\n     * padRightToUint256: 0xf39fd6e51aad88f6f4ce6ab8827279cfffb92266000000000000000000000000,\\n     * reverseUint256 result: 0x0000000000000000000000006622b9ffcf797282b86acef4f688ad1ae5d69ff3\\n     * @return uint256: 583091486781463398742321306787801699791102451699\\n     */\\n    function addressToUint256LE(address _addr) internal pure returns (uint256) {\\n        return reverseUint256(padRightToUint256(addressToBytes(_addr)));\\n    }\\n\\n    /**\\n     * @dev uint256LEtoAddress - converts uint256 which 20 lower bytes\\n     *      are representation of address in LE to address\\n     * @param input is uint256 which is created from bytes in LittleEndian:\\n     * eg. 583091486781463398742321306787801699791102451699\\n     *  or 0x0000000000000000000000006622b9ffcf797282b86acef4f688ad1ae5d69ff3\\n     * reverseUint256 result: 110194434039389003190498847789203126033799499726478230611233094447786700570624\\n     * uint256ToBytes result: 0xf39fd6e51aad88f6f4ce6ab8827279cfffb92266000000000000000000000000\\n     * @return address - 0xf39Fd6e51aad88F6F4ce6aB8827279cffFb92266\\n     */\\n    function uint256LEToAddress(uint256 input) internal pure returns (address) {\\n        require(\\n            input == uint256(uint160(input)),\\n            \\\"given uint256 is not a representation of an address, 12 most significant bytes should be zero\\\"\\n        );\\n        return bytesToAddress(uint256ToBytes(reverseUint256(input)));\\n    }\\n\\n    function addressToBytes(address a) internal pure returns (bytes memory) {\\n        return abi.encodePacked(a);\\n    }\\n}\\n\"},\"@openzeppelin/contracts/token/ERC1155/ERC1155.sol\":{\"content\":\"// SPDX-License-Identifier: MIT\\n// OpenZeppelin Contracts (last updated v5.1.0) (token/ERC1155/ERC1155.sol)\\n\\npragma solidity ^0.8.20;\\n\\nimport {IERC1155} from \\\"./IERC1155.sol\\\";\\nimport {IERC1155MetadataURI} from \\\"./extensions/IERC1155MetadataURI.sol\\\";\\nimport {ERC1155Utils} from \\\"./utils/ERC1155Utils.sol\\\";\\nimport {Context} from \\\"../../utils/Context.sol\\\";\\nimport {IERC165, ERC165} from \\\"../../utils/introspection/ERC165.sol\\\";\\nimport {Arrays} from \\\"../../utils/Arrays.sol\\\";\\nimport {IERC1155Errors} from \\\"../../interfaces/draft-IERC6093.sol\\\";\\n\\n/**\\n * @dev Implementation of the basic standard multi-token.\\n * See https://eips.ethereum.org/EIPS/eip-1155\\n * Originally based on code by Enjin: https://github.com/enjin/erc-1155\\n */\\nabstract contract ERC1155 is Context, ERC165, IERC1155, IERC1155MetadataURI, IERC1155Errors {\\n    using Arrays for uint256[];\\n    using Arrays for address[];\\n\\n    mapping(uint256 id => mapping(address account => uint256)) private _balances;\\n\\n    mapping(address account => mapping(address operator => bool)) private _operatorApprovals;\\n\\n    // Used as the URI for all token types by relying on ID substitution, e.g. https://token-cdn-domain/{id}.json\\n    string private _uri;\\n\\n    /**\\n     * @dev See {_setURI}.\\n     */\\n    constructor(string memory uri_) {\\n        _setURI(uri_);\\n    }\\n\\n    /**\\n     * @dev See {IERC165-supportsInterface}.\\n     */\\n    function supportsInterface(bytes4 interfaceId) public view virtual override(ERC165, IERC165) returns (bool) {\\n        return\\n            interfaceId == type(IERC1155).interfaceId ||\\n            interfaceId == type(IERC1155MetadataURI).interfaceId ||\\n            super.supportsInterface(interfaceId);\\n    }\\n\\n    /**\\n     * @dev See {IERC1155MetadataURI-uri}.\\n     *\\n     * This implementation returns the same URI for *all* token types. It relies\\n     * on the token type ID substitution mechanism\\n     * https://eips.ethereum.org/EIPS/eip-1155#metadata[defined in the ERC].\\n     *\\n     * Clients calling this function must replace the `\\\\{id\\\\}` substring with the\\n     * actual token type ID.\\n     */\\n    function uri(uint256 /* id */) public view virtual returns (string memory) {\\n        return _uri;\\n    }\\n\\n    /**\\n     * @dev See {IERC1155-balanceOf}.\\n     */\\n    function balanceOf(address account, uint256 id) public view virtual returns (uint256) {\\n        return _balances[id][account];\\n    }\\n\\n    /**\\n     * @dev See {IERC1155-balanceOfBatch}.\\n     *\\n     * Requirements:\\n     *\\n     * - `accounts` and `ids` must have the same length.\\n     */\\n    function balanceOfBatch(\\n        address[] memory accounts,\\n        uint256[] memory ids\\n    ) public view virtual returns (uint256[] memory) {\\n        if (accounts.length != ids.length) {\\n            revert ERC1155InvalidArrayLength(ids.length, accounts.length);\\n        }\\n\\n        uint256[] memory batchBalances = new uint256[](accounts.length);\\n\\n        for (uint256 i = 0; i < accounts.length; ++i) {\\n            batchBalances[i] = balanceOf(accounts.unsafeMemoryAccess(i), ids.unsafeMemoryAccess(i));\\n        }\\n\\n        return batchBalances;\\n    }\\n\\n    /**\\n     * @dev See {IERC1155-setApprovalForAll}.\\n     */\\n    function setApprovalForAll(address operator, bool approved) public virtual {\\n        _setApprovalForAll(_msgSender(), operator, approved);\\n    }\\n\\n    /**\\n     * @dev See {IERC1155-isApprovedForAll}.\\n     */\\n    function isApprovedForAll(address account, address operator) public view virtual returns (bool) {\\n        return _operatorApprovals[account][operator];\\n    }\\n\\n    /**\\n     * @dev See {IERC1155-safeTransferFrom}.\\n     */\\n    function safeTransferFrom(address from, address to, uint256 id, uint256 value, bytes memory data) public virtual {\\n        address sender = _msgSender();\\n        if (from != sender && !isApprovedForAll(from, sender)) {\\n            revert ERC1155MissingApprovalForAll(sender, from);\\n        }\\n        _safeTransferFrom(from, to, id, value, data);\\n    }\\n\\n    /**\\n     * @dev See {IERC1155-safeBatchTransferFrom}.\\n     */\\n    function safeBatchTransferFrom(\\n        address from,\\n        address to,\\n        uint256[] memory ids,\\n        uint256[] memory values,\\n        bytes memory data\\n    ) public virtual {\\n        address sender = _msgSender();\\n        if (from != sender && !isApprovedForAll(from, sender)) {\\n            revert ERC1155MissingApprovalForAll(sender, from);\\n        }\\n        _safeBatchTransferFrom(from, to, ids, values, data);\\n    }\\n\\n    /**\\n     * @dev Transfers a `value` amount of tokens of type `id` from `from` to `to`. Will mint (or burn) if `from`\\n     * (or `to`) is the zero address.\\n     *\\n     * Emits a {TransferSingle} event if the arrays contain one element, and {TransferBatch} otherwise.\\n     *\\n     * Requirements:\\n     *\\n     * - If `to` refers to a smart contract, it must implement either {IERC1155Receiver-onERC1155Received}\\n     *   or {IERC1155Receiver-onERC1155BatchReceived} and return the acceptance magic value.\\n     * - `ids` and `values` must have the same length.\\n     *\\n     * NOTE: The ERC-1155 acceptance check is not performed in this function. See {_updateWithAcceptanceCheck} instead.\\n     */\\n    function _update(address from, address to, uint256[] memory ids, uint256[] memory values) internal virtual {\\n        if (ids.length != values.length) {\\n            revert ERC1155InvalidArrayLength(ids.length, values.length);\\n        }\\n\\n        address operator = _msgSender();\\n\\n        for (uint256 i = 0; i < ids.length; ++i) {\\n            uint256 id = ids.unsafeMemoryAccess(i);\\n            uint256 value = values.unsafeMemoryAccess(i);\\n\\n            if (from != address(0)) {\\n                uint256 fromBalance = _balances[id][from];\\n                if (fromBalance < value) {\\n                    revert ERC1155InsufficientBalance(from, fromBalance, value, id);\\n                }\\n                unchecked {\\n                    // Overflow not possible: value <= fromBalance\\n                    _balances[id][from] = fromBalance - value;\\n                }\\n            }\\n\\n            if (to != address(0)) {\\n                _balances[id][to] += value;\\n            }\\n        }\\n\\n        if (ids.length == 1) {\\n            uint256 id = ids.unsafeMemoryAccess(0);\\n            uint256 value = values.unsafeMemoryAccess(0);\\n            emit TransferSingle(operator, from, to, id, value);\\n        } else {\\n            emit TransferBatch(operator, from, to, ids, values);\\n        }\\n    }\\n\\n    /**\\n     * @dev Version of {_update} that performs the token acceptance check by calling\\n     * {IERC1155Receiver-onERC1155Received} or {IERC1155Receiver-onERC1155BatchReceived} on the receiver address if it\\n     * contains code (eg. is a smart contract at the moment of execution).\\n     *\\n     * IMPORTANT: Overriding this function is discouraged because it poses a reentrancy risk from the receiver. So any\\n     * update to the contract state after this function would break the check-effect-interaction pattern. Consider\\n     * overriding {_update} instead.\\n     */\\n    function _updateWithAcceptanceCheck(\\n        address from,\\n        address to,\\n        uint256[] memory ids,\\n        uint256[] memory values,\\n        bytes memory data\\n    ) internal virtual {\\n        _update(from, to, ids, values);\\n        if (to != address(0)) {\\n            address operator = _msgSender();\\n            if (ids.length == 1) {\\n                uint256 id = ids.unsafeMemoryAccess(0);\\n                uint256 value = values.unsafeMemoryAccess(0);\\n                ERC1155Utils.checkOnERC1155Received(operator, from, to, id, value, data);\\n            } else {\\n                ERC1155Utils.checkOnERC1155BatchReceived(operator, from, to, ids, values, data);\\n            }\\n        }\\n    }\\n\\n    /**\\n     * @dev Transfers a `value` tokens of token type `id` from `from` to `to`.\\n     *\\n     * Emits a {TransferSingle} event.\\n     *\\n     * Requirements:\\n     *\\n     * - `to` cannot be the zero address.\\n     * - `from` must have a balance of tokens of type `id` of at least `value` amount.\\n     * - If `to` refers to a smart contract, it must implement {IERC1155Receiver-onERC1155Received} and return the\\n     * acceptance magic value.\\n     */\\n    function _safeTransferFrom(address from, address to, uint256 id, uint256 value, bytes memory data) internal {\\n        if (to == address(0)) {\\n            revert ERC1155InvalidReceiver(address(0));\\n        }\\n        if (from == address(0)) {\\n            revert ERC1155InvalidSender(address(0));\\n        }\\n        (uint256[] memory ids, uint256[] memory values) = _asSingletonArrays(id, value);\\n        _updateWithAcceptanceCheck(from, to, ids, values, data);\\n    }\\n\\n    /**\\n     * @dev xref:ROOT:erc1155.adoc#batch-operations[Batched] version of {_safeTransferFrom}.\\n     *\\n     * Emits a {TransferBatch} event.\\n     *\\n     * Requirements:\\n     *\\n     * - If `to` refers to a smart contract, it must implement {IERC1155Receiver-onERC1155BatchReceived} and return the\\n     * acceptance magic value.\\n     * - `ids` and `values` must have the same length.\\n     */\\n    function _safeBatchTransferFrom(\\n        address from,\\n        address to,\\n        uint256[] memory ids,\\n        uint256[] memory values,\\n        bytes memory data\\n    ) internal {\\n        if (to == address(0)) {\\n            revert ERC1155InvalidReceiver(address(0));\\n        }\\n        if (from == address(0)) {\\n            revert ERC1155InvalidSender(address(0));\\n        }\\n        _updateWithAcceptanceCheck(from, to, ids, values, data);\\n    }\\n\\n    /**\\n     * @dev Sets a new URI for all token types, by relying on the token type ID\\n     * substitution mechanism\\n     * https://eips.ethereum.org/EIPS/eip-1155#metadata[defined in the ERC].\\n     *\\n     * By this mechanism, any occurrence of the `\\\\{id\\\\}` substring in either the\\n     * URI or any of the values in the JSON file at said URI will be replaced by\\n     * clients with the token type ID.\\n     *\\n     * For example, the `https://token-cdn-domain/\\\\{id\\\\}.json` URI would be\\n     * interpreted by clients as\\n     * `https://token-cdn-domain/000000000000000000000000000000000000000000000000000000000004cce0.json`\\n     * for token type ID 0x4cce0.\\n     *\\n     * See {uri}.\\n     *\\n     * Because these URIs cannot be meaningfully represented by the {URI} event,\\n     * this function emits no events.\\n     */\\n    function _setURI(string memory newuri) internal virtual {\\n        _uri = newuri;\\n    }\\n\\n    /**\\n     * @dev Creates a `value` amount of tokens of type `id`, and assigns them to `to`.\\n     *\\n     * Emits a {TransferSingle} event.\\n     *\\n     * Requirements:\\n     *\\n     * - `to` cannot be the zero address.\\n     * - If `to` refers to a smart contract, it must implement {IERC1155Receiver-onERC1155Received} and return the\\n     * acceptance magic value.\\n     */\\n    function _mint(address to, uint256 id, uint256 value, bytes memory data) internal {\\n        if (to == address(0)) {\\n            revert ERC1155InvalidReceiver(address(0));\\n        }\\n        (uint256[] memory ids, uint256[] memory values) = _asSingletonArrays(id, value);\\n        _updateWithAcceptanceCheck(address(0), to, ids, values, data);\\n    }\\n\\n    /**\\n     * @dev xref:ROOT:erc1155.adoc#batch-operations[Batched] version of {_mint}.\\n     *\\n     * Emits a {TransferBatch} event.\\n     *\\n     * Requirements:\\n     *\\n     * - `ids` and `values` must have the same length.\\n     * - `to` cannot be the zero address.\\n     * - If `to` refers to a smart contract, it must implement {IERC1155Receiver-onERC1155BatchReceived} and return the\\n     * acceptance magic value.\\n     */\\n    function _mintBatch(address to, uint256[] memory ids, uint256[] memory values, bytes memory data) internal {\\n        if (to == address(0)) {\\n            revert ERC1155InvalidReceiver(address(0));\\n        }\\n        _updateWithAcceptanceCheck(address(0), to, ids, values, data);\\n    }\\n\\n    /**\\n     * @dev Destroys a `value` amount of tokens of type `id` from `from`\\n     *\\n     * Emits a {TransferSingle} event.\\n     *\\n     * Requirements:\\n     *\\n     * - `from` cannot be the zero address.\\n     * - `from` must have at least `value` amount of tokens of type `id`.\\n     */\\n    function _burn(address from, uint256 id, uint256 value) internal {\\n        if (from == address(0)) {\\n            revert ERC1155InvalidSender(address(0));\\n        }\\n        (uint256[] memory ids, uint256[] memory values) = _asSingletonArrays(id, value);\\n        _updateWithAcceptanceCheck(from, address(0), ids, values, \\\"\\\");\\n    }\\n\\n    /**\\n     * @dev xref:ROOT:erc1155.adoc#batch-operations[Batched] version of {_burn}.\\n     *\\n     * Emits a {TransferBatch} event.\\n     *\\n     * Requirements:\\n     *\\n     * - `from` cannot be the zero address.\\n     * - `from` must have at least `value` amount of tokens of type `id`.\\n     * - `ids` and `values` must have the same length.\\n     */\\n    function _burnBatch(address from, uint256[] memory ids, uint256[] memory values) internal {\\n        if (from == address(0)) {\\n            revert ERC1155InvalidSender(address(0));\\n        }\\n        _updateWithAcceptanceCheck(from, address(0), ids, values, \\\"\\\");\\n    }\\n\\n    /**\\n     * @dev Approve `operator` to operate on all of `owner` tokens\\n     *\\n     * Emits an {ApprovalForAll} event.\\n     *\\n     * Requirements:\\n     *\\n     * - `operator` cannot be the zero address.\\n     */\\n    function _setApprovalForAll(address owner, address operator, bool approved) internal virtual {\\n        if (operator == address(0)) {\\n            revert ERC1155InvalidOperator(address(0));\\n        }\\n        _operatorApprovals[owner][operator] = approved;\\n        emit ApprovalForAll(owner, operator, approved);\\n    }\\n\\n    /**\\n     * @dev Creates an array in memory with only one value for each of the elements provided.\\n     */\\n    function _asSingletonArrays(\\n        uint256 element1,\\n        uint256 element2\\n    ) private pure returns (uint256[] memory array1, uint256[] memory array2) {\\n        assembly (\\\"memory-safe\\\") {\\n            // Load the free memory pointer\\n            array1 := mload(0x40)\\n            // Set array length to 1\\n            mstore(array1, 1)\\n            // Store the single element at the next word after the length (where content starts)\\n            mstore(add(array1, 0x20), element1)\\n\\n            // Repeat for next array locating it right after the first array\\n            array2 := add(array1, 0x40)\\n            mstore(array2, 1)\\n            mstore(add(array2, 0x20), element2)\\n\\n            // Update the free memory pointer by pointing after the second array\\n            mstore(0x40, add(array2, 0x40))\\n        }\\n    }\\n}\\n\"},\"@openzeppelin/contracts/access/Ownable.sol\":{\"content\":\"// SPDX-License-Identifier: MIT\\n// OpenZeppelin Contracts (last updated v5.0.0) (access/Ownable.sol)\\n\\npragma solidity ^0.8.20;\\n\\nimport {Context} from \\\"../utils/Context.sol\\\";\\n\\n/**\\n * @dev Contract module which provides a basic access control mechanism, where\\n * there is an account (an owner) that can be granted exclusive access to\\n * specific functions.\\n *\\n * The initial owner is set to the address provided by the deployer. This can\\n * later be changed with {transferOwnership}.\\n *\\n * This module is used through inheritance. It will make available the modifier\\n * `onlyOwner`, which can be applied to your functions to restrict their use to\\n * the owner.\\n */\\nabstract contract Ownable is Context {\\n    address private _owner;\\n\\n    /**\\n     * @dev The caller account is not authorized to perform an operation.\\n     */\\n    error OwnableUnauthorizedAccount(address account);\\n\\n    /**\\n     * @dev The owner is not a valid owner account. (eg. `address(0)`)\\n     */\\n    error OwnableInvalidOwner(address owner);\\n\\n    event OwnershipTransferred(address indexed previousOwner, address indexed newOwner);\\n\\n    /**\\n     * @dev Initializes the contract setting the address provided by the deployer as the initial owner.\\n     */\\n    constructor(address initialOwner) {\\n        if (initialOwner == address(0)) {\\n            revert OwnableInvalidOwner(address(0));\\n        }\\n        _transferOwnership(initialOwner);\\n    }\\n\\n    /**\\n     * @dev Throws if called by any account other than the owner.\\n     */\\n    modifier onlyOwner() {\\n        _checkOwner();\\n        _;\\n    }\\n\\n    /**\\n     * @dev Returns the address of the current owner.\\n     */\\n    function owner() public view virtual returns (address) {\\n        return _owner;\\n    }\\n\\n    /**\\n     * @dev Throws if the sender is not the owner.\\n     */\\n    function _checkOwner() internal view virtual {\\n        if (owner() != _msgSender()) {\\n            revert OwnableUnauthorizedAccount(_msgSender());\\n        }\\n    }\\n\\n    /**\\n     * @dev Leaves the contract without owner. It will not be possible to call\\n     * `onlyOwner` functions. Can only be called by the current owner.\\n     *\\n     * NOTE: Renouncing ownership will leave the contract without an owner,\\n     * thereby disabling any functionality that is only available to the owner.\\n     */\\n    function renounceOwnership() public virtual onlyOwner {\\n        _transferOwnership(address(0));\\n    }\\n\\n    /**\\n     * @dev Transfers ownership of the contract to a new account (`newOwner`).\\n     * Can only be called by the current owner.\\n     */\\n    function transferOwnership(address newOwner) public virtual onlyOwner {\\n        if (newOwner == address(0)) {\\n            revert OwnableInvalidOwner(address(0));\\n        }\\n        _transferOwnership(newOwner);\\n    }\\n\\n    /**\\n     * @dev Transfers ownership of the contract to a new account (`newOwner`).\\n     * Internal function without access restriction.\\n     */\\n    function _transferOwnership(address newOwner) internal virtual {\\n        address oldOwner = _owner;\\n        _owner = newOwner;\\n        emit OwnershipTransferred(oldOwner, newOwner);\\n    }\\n}\\n\"},\"@openzeppelin/contracts/utils/Arrays.sol\":{\"content\":\"// SPDX-License-Identifier: MIT\\n// OpenZeppelin Contracts (last updated v5.3.0) (utils/Arrays.sol)\\n// This file was procedurally generated from scripts/generate/templates/Arrays.js.\\n\\npragma solidity ^0.8.20;\\n\\nimport {Comparators} from \\\"./Comparators.sol\\\";\\nimport {SlotDerivation} from \\\"./SlotDerivation.sol\\\";\\nimport {StorageSlot} from \\\"./StorageSlot.sol\\\";\\nimport {Math} from \\\"./math/Math.sol\\\";\\n\\n/**\\n * @dev Collection of functions related to array types.\\n */\\nlibrary Arrays {\\n    using SlotDerivation for bytes32;\\n    using StorageSlot for bytes32;\\n\\n    /**\\n     * @dev Sort an array of uint256 (in memory) following the provided comparator function.\\n     *\\n     * This function does the sorting \\\"in place\\\", meaning that it overrides the input. The object is returned for\\n     * convenience, but that returned value can be discarded safely if the caller has a memory pointer to the array.\\n     *\\n     * NOTE: this function's cost is `O(n · log(n))` in average and `O(n²)` in the worst case, with n the length of the\\n     * array. Using it in view functions that are executed through `eth_call` is safe, but one should be very careful\\n     * when executing this as part of a transaction. If the array being sorted is too large, the sort operation may\\n     * consume more gas than is available in a block, leading to potential DoS.\\n     *\\n     * IMPORTANT: Consider memory side-effects when using custom comparator functions that access memory in an unsafe way.\\n     */\\n    function sort(\\n        uint256[] memory array,\\n        function(uint256, uint256) pure returns (bool) comp\\n    ) internal pure returns (uint256[] memory) {\\n        _quickSort(_begin(array), _end(array), comp);\\n        return array;\\n    }\\n\\n    /**\\n     * @dev Variant of {sort} that sorts an array of uint256 in increasing order.\\n     */\\n    function sort(uint256[] memory array) internal pure returns (uint256[] memory) {\\n        sort(array, Comparators.lt);\\n        return array;\\n    }\\n\\n    /**\\n     * @dev Sort an array of address (in memory) following the provided comparator function.\\n     *\\n     * This function does the sorting \\\"in place\\\", meaning that it overrides the input. The object is returned for\\n     * convenience, but that returned value can be discarded safely if the caller has a memory pointer to the array.\\n     *\\n     * NOTE: this function's cost is `O(n · log(n))` in average and `O(n²)` in the worst case, with n the length of the\\n     * array. Using it in view functions that are executed through `eth_call` is safe, but one should be very careful\\n     * when executing this as part of a transaction. If the array being sorted is too large, the sort operation may\\n     * consume more gas than is available in a block, leading to potential DoS.\\n     *\\n     * IMPORTANT: Consider memory side-effects when using custom comparator functions that access memory in an unsafe way.\\n     */\\n    function sort(\\n        address[] memory array,\\n        function(address, address) pure returns (bool) comp\\n    ) internal pure returns (address[] memory) {\\n        sort(_castToUint256Array(array), _castToUint256Comp(comp));\\n        return array;\\n    }\\n\\n    /**\\n     * @dev Variant of {sort} that sorts an array of address in increasing order.\\n     */\\n    function sort(address[] memory array) internal pure returns (address[] memory) {\\n        sort(_castToUint256Array(array), Comparators.lt);\\n        return array;\\n    }\\n\\n    /**\\n     * @dev Sort an array of bytes32 (in memory) following the provided comparator function.\\n     *\\n     * This function does the sorting \\\"in place\\\", meaning that it overrides the input. The object is returned for\\n     * convenience, but that returned value can be discarded safely if the caller has a memory pointer to the array.\\n     *\\n     * NOTE: this function's cost is `O(n · log(n))` in average and `O(n²)` in the worst case, with n the length of the\\n     * array. Using it in view functions that are executed through `eth_call` is safe, but one should be very careful\\n     * when executing this as part of a transaction. If the array being sorted is too large, the sort operation may\\n     * consume more gas than is available in a block, leading to potential DoS.\\n     *\\n     * IMPORTANT: Consider memory side-effects when using custom comparator functions that access memory in an unsafe way.\\n     */\\n    function sort(\\n        bytes32[] memory array,\\n        function(bytes32, bytes32) pure returns (bool) comp\\n    ) internal pure returns (bytes32[] memory) {\\n        sort(_castToUint256Array(array), _castToUint256Comp(comp));\\n        return array;\\n    }\\n\\n    /**\\n     * @dev Variant of {sort} that sorts an array of bytes32 in increasing order.\\n     */\\n    function sort(bytes32[] memory array) internal pure returns (bytes32[] memory) {\\n        sort(_castToUint256Array(array), Comparators.lt);\\n        return array;\\n    }\\n\\n    /**\\n     * @dev Performs a quick sort of a segment of memory. The segment sorted starts at `begin` (inclusive), and stops\\n     * at end (exclusive). Sorting follows the `comp` comparator.\\n     *\\n     * Invariant: `begin <= end`. This is the case when initially called by {sort} and is preserved in subcalls.\\n     *\\n     * IMPORTANT: Memory locations between `begin` and `end` are not validated/zeroed. This function should\\n     * be used only if the limits are within a memory array.\\n     */\\n    function _quickSort(uint256 begin, uint256 end, function(uint256, uint256) pure returns (bool) comp) private pure {\\n        unchecked {\\n            if (end - begin < 0x40) return;\\n\\n            // Use first element as pivot\\n            uint256 pivot = _mload(begin);\\n            // Position where the pivot should be at the end of the loop\\n            uint256 pos = begin;\\n\\n            for (uint256 it = begin + 0x20; it < end; it += 0x20) {\\n                if (comp(_mload(it), pivot)) {\\n                    // If the value stored at the iterator's position comes before the pivot, we increment the\\n                    // position of the pivot and move the value there.\\n                    pos += 0x20;\\n                    _swap(pos, it);\\n                }\\n            }\\n\\n            _swap(begin, pos); // Swap pivot into place\\n            _quickSort(begin, pos, comp); // Sort the left side of the pivot\\n            _quickSort(pos + 0x20, end, comp); // Sort the right side of the pivot\\n        }\\n    }\\n\\n    /**\\n     * @dev Pointer to the memory location of the first element of `array`.\\n     */\\n    function _begin(uint256[] memory array) private pure returns (uint256 ptr) {\\n        assembly (\\\"memory-safe\\\") {\\n            ptr := add(array, 0x20)\\n        }\\n    }\\n\\n    /**\\n     * @dev Pointer to the memory location of the first memory word (32bytes) after `array`. This is the memory word\\n     * that comes just after the last element of the array.\\n     */\\n    function _end(uint256[] memory array) private pure returns (uint256 ptr) {\\n        unchecked {\\n            return _begin(array) + array.length * 0x20;\\n        }\\n    }\\n\\n    /**\\n     * @dev Load memory word (as a uint256) at location `ptr`.\\n     */\\n    function _mload(uint256 ptr) private pure returns (uint256 value) {\\n        assembly {\\n            value := mload(ptr)\\n        }\\n    }\\n\\n    /**\\n     * @dev Swaps the elements memory location `ptr1` and `ptr2`.\\n     */\\n    function _swap(uint256 ptr1, uint256 ptr2) private pure {\\n        assembly {\\n            let value1 := mload(ptr1)\\n            let value2 := mload(ptr2)\\n            mstore(ptr1, value2)\\n            mstore(ptr2, value1)\\n        }\\n    }\\n\\n    /// @dev Helper: low level cast address memory array to uint256 memory array\\n    function _castToUint256Array(address[] memory input) private pure returns (uint256[] memory output) {\\n        assembly {\\n            output := input\\n        }\\n    }\\n\\n    /// @dev Helper: low level cast bytes32 memory array to uint256 memory array\\n    function _castToUint256Array(bytes32[] memory input) private pure returns (uint256[] memory output) {\\n        assembly {\\n            output := input\\n        }\\n    }\\n\\n    /// @dev Helper: low level cast address comp function to uint256 comp function\\n    function _castToUint256Comp(\\n        function(address, address) pure returns (bool) input\\n    ) private pure returns (function(uint256, uint256) pure returns (bool) output) {\\n        assembly {\\n            output := input\\n        }\\n    }\\n\\n    /// @dev Helper: low level cast bytes32 comp function to uint256 comp function\\n    function _castToUint256Comp(\\n        function(bytes32, bytes32) pure returns (bool) input\\n    ) private pure returns (function(uint256, uint256) pure returns (bool) output) {\\n        assembly {\\n            output := input\\n        }\\n    }\\n\\n    /**\\n     * @dev Searches a sorted `array` and returns the first index that contains\\n     * a value greater or equal to `element`. If no such index exists (i.e. all\\n     * values in the array are strictly less than `element`), the array length is\\n     * returned. Time complexity O(log n).\\n     *\\n     * NOTE: The `array` is expected to be sorted in ascending order, and to\\n     * contain no repeated elements.\\n     *\\n     * IMPORTANT: Deprecated. This implementation behaves as {lowerBound} but lacks\\n     * support for repeated elements in the array. The {lowerBound} function should\\n     * be used instead.\\n     */\\n    function findUpperBound(uint256[] storage array, uint256 element) internal view returns (uint256) {\\n        uint256 low = 0;\\n        uint256 high = array.length;\\n\\n        if (high == 0) {\\n            return 0;\\n        }\\n\\n        while (low < high) {\\n            uint256 mid = Math.average(low, high);\\n\\n            // Note that mid will always be strictly less than high (i.e. it will be a valid array index)\\n            // because Math.average rounds towards zero (it does integer division with truncation).\\n            if (unsafeAccess(array, mid).value > element) {\\n                high = mid;\\n            } else {\\n                low = mid + 1;\\n            }\\n        }\\n\\n        // At this point `low` is the exclusive upper bound. We will return the inclusive upper bound.\\n        if (low > 0 && unsafeAccess(array, low - 1).value == element) {\\n            return low - 1;\\n        } else {\\n            return low;\\n        }\\n    }\\n\\n    /**\\n     * @dev Searches an `array` sorted in ascending order and returns the first\\n     * index that contains a value greater or equal than `element`. If no such index\\n     * exists (i.e. all values in the array are strictly less than `element`), the array\\n     * length is returned. Time complexity O(log n).\\n     *\\n     * See C++'s https://en.cppreference.com/w/cpp/algorithm/lower_bound[lower_bound].\\n     */\\n    function lowerBound(uint256[] storage array, uint256 element) internal view returns (uint256) {\\n        uint256 low = 0;\\n        uint256 high = array.length;\\n\\n        if (high == 0) {\\n            return 0;\\n        }\\n\\n        while (low < high) {\\n            uint256 mid = Math.average(low, high);\\n\\n            // Note that mid will always be strictly less than high (i.e. it will be a valid array index)\\n            // because Math.average rounds towards zero (it does integer division with truncation).\\n            if (unsafeAccess(array, mid).value < element) {\\n                // this cannot overflow because mid < high\\n                unchecked {\\n                    low = mid + 1;\\n                }\\n            } else {\\n                high = mid;\\n            }\\n        }\\n\\n        return low;\\n    }\\n\\n    /**\\n     * @dev Searches an `array` sorted in ascending order and returns the first\\n     * index that contains a value strictly greater than `element`. If no such index\\n     * exists (i.e. all values in the array are strictly less than `element`), the array\\n     * length is returned. Time complexity O(log n).\\n     *\\n     * See C++'s https://en.cppreference.com/w/cpp/algorithm/upper_bound[upper_bound].\\n     */\\n    function upperBound(uint256[] storage array, uint256 element) internal view returns (uint256) {\\n        uint256 low = 0;\\n        uint256 high = array.length;\\n\\n        if (high == 0) {\\n            return 0;\\n        }\\n\\n        while (low < high) {\\n            uint256 mid = Math.average(low, high);\\n\\n            // Note that mid will always be strictly less than high (i.e. it will be a valid array index)\\n            // because Math.average rounds towards zero (it does integer division with truncation).\\n            if (unsafeAccess(array, mid).value > element) {\\n                high = mid;\\n            } else {\\n                // this cannot overflow because mid < high\\n                unchecked {\\n                    low = mid + 1;\\n                }\\n            }\\n        }\\n\\n        return low;\\n    }\\n\\n    /**\\n     * @dev Same as {lowerBound}, but with an array in memory.\\n     */\\n    function lowerBoundMemory(uint256[] memory array, uint256 element) internal pure returns (uint256) {\\n        uint256 low = 0;\\n        uint256 high = array.length;\\n\\n        if (high == 0) {\\n            return 0;\\n        }\\n\\n        while (low < high) {\\n            uint256 mid = Math.average(low, high);\\n\\n            // Note that mid will always be strictly less than high (i.e. it will be a valid array index)\\n            // because Math.average rounds towards zero (it does integer division with truncation).\\n            if (unsafeMemoryAccess(array, mid) < element) {\\n                // this cannot overflow because mid < high\\n                unchecked {\\n                    low = mid + 1;\\n                }\\n            } else {\\n                high = mid;\\n            }\\n        }\\n\\n        return low;\\n    }\\n\\n    /**\\n     * @dev Same as {upperBound}, but with an array in memory.\\n     */\\n    function upperBoundMemory(uint256[] memory array, uint256 element) internal pure returns (uint256) {\\n        uint256 low = 0;\\n        uint256 high = array.length;\\n\\n        if (high == 0) {\\n            return 0;\\n        }\\n\\n        while (low < high) {\\n            uint256 mid = Math.average(low, high);\\n\\n            // Note that mid will always be strictly less than high (i.e. it will be a valid array index)\\n            // because Math.average rounds towards zero (it does integer division with truncation).\\n            if (unsafeMemoryAccess(array, mid) > element) {\\n                high = mid;\\n            } else {\\n                // this cannot overflow because mid < high\\n                unchecked {\\n                    low = mid + 1;\\n                }\\n            }\\n        }\\n\\n        return low;\\n    }\\n\\n    /**\\n     * @dev Access an array in an \\\"unsafe\\\" way. Skips solidity \\\"index-out-of-range\\\" check.\\n     *\\n     * WARNING: Only use if you are certain `pos` is lower than the array length.\\n     */\\n    function unsafeAccess(address[] storage arr, uint256 pos) internal pure returns (StorageSlot.AddressSlot storage) {\\n        bytes32 slot;\\n        assembly (\\\"memory-safe\\\") {\\n            slot := arr.slot\\n        }\\n        return slot.deriveArray().offset(pos).getAddressSlot();\\n    }\\n\\n    /**\\n     * @dev Access an array in an \\\"unsafe\\\" way. Skips solidity \\\"index-out-of-range\\\" check.\\n     *\\n     * WARNING: Only use if you are certain `pos` is lower than the array length.\\n     */\\n    function unsafeAccess(bytes32[] storage arr, uint256 pos) internal pure returns (StorageSlot.Bytes32Slot storage) {\\n        bytes32 slot;\\n        assembly (\\\"memory-safe\\\") {\\n            slot := arr.slot\\n        }\\n        return slot.deriveArray().offset(pos).getBytes32Slot();\\n    }\\n\\n    /**\\n     * @dev Access an array in an \\\"unsafe\\\" way. Skips solidity \\\"index-out-of-range\\\" check.\\n     *\\n     * WARNING: Only use if you are certain `pos` is lower than the array length.\\n     */\\n    function unsafeAccess(uint256[] storage arr, uint256 pos) internal pure returns (StorageSlot.Uint256Slot storage) {\\n        bytes32 slot;\\n        assembly (\\\"memory-safe\\\") {\\n            slot := arr.slot\\n        }\\n        return slot.deriveArray().offset(pos).getUint256Slot();\\n    }\\n\\n    /**\\n     * @dev Access an array in an \\\"unsafe\\\" way. Skips solidity \\\"index-out-of-range\\\" check.\\n     *\\n     * WARNING: Only use if you are certain `pos` is lower than the array length.\\n     */\\n    function unsafeMemoryAccess(address[] memory arr, uint256 pos) internal pure returns (address res) {\\n        assembly {\\n            res := mload(add(add(arr, 0x20), mul(pos, 0x20)))\\n        }\\n    }\\n\\n    /**\\n     * @dev Access an array in an \\\"unsafe\\\" way. Skips solidity \\\"index-out-of-range\\\" check.\\n     *\\n     * WARNING: Only use if you are certain `pos` is lower than the array length.\\n     */\\n    function unsafeMemoryAccess(bytes32[] memory arr, uint256 pos) internal pure returns (bytes32 res) {\\n        assembly {\\n            res := mload(add(add(arr, 0x20), mul(pos, 0x20)))\\n        }\\n    }\\n\\n    /**\\n     * @dev Access an array in an \\\"unsafe\\\" way. Skips solidity \\\"index-out-of-range\\\" check.\\n     *\\n     * WARNING: Only use if you are certain `pos` is lower than the array length.\\n     */\\n    function unsafeMemoryAccess(uint256[] memory arr, uint256 pos) internal pure returns (uint256 res) {\\n        assembly {\\n            res := mload(add(add(arr, 0x20), mul(pos, 0x20)))\\n        }\\n    }\\n\\n    /**\\n     * @dev Helper to set the length of a dynamic array. Directly writing to `.length` is forbidden.\\n     *\\n     * WARNING: this does not clear elements if length is reduced, of initialize elements if length is increased.\\n     */\\n    function unsafeSetLength(address[] storage array, uint256 len) internal {\\n        assembly (\\\"memory-safe\\\") {\\n            sstore(array.slot, len)\\n        }\\n    }\\n\\n    /**\\n     * @dev Helper to set the length of a dynamic array. Directly writing to `.length` is forbidden.\\n     *\\n     * WARNING: this does not clear elements if length is reduced, of initialize elements if length is increased.\\n     */\\n    function unsafeSetLength(bytes32[] storage array, uint256 len) internal {\\n        assembly (\\\"memory-safe\\\") {\\n            sstore(array.slot, len)\\n        }\\n    }\\n\\n    /**\\n     * @dev Helper to set the length of a dynamic array. Directly writing to `.length` is forbidden.\\n     *\\n     * WARNING: this does not clear elements if length is reduced, of initialize elements if length is increased.\\n     */\\n    function unsafeSetLength(uint256[] storage array, uint256 len) internal {\\n        assembly (\\\"memory-safe\\\") {\\n            sstore(array.slot, len)\\n        }\\n    }\\n}\\n\"},\"@openzeppelin/contracts/interfaces/draft-IERC6093.sol\":{\"content\":\"// SPDX-License-Identifier: MIT\\n// OpenZeppelin Contracts (last updated v5.1.0) (interfaces/draft-IERC6093.sol)\\npragma solidity ^0.8.20;\\n\\n/**\\n * @dev Standard ERC-20 Errors\\n * Interface of the https://eips.ethereum.org/EIPS/eip-6093[ERC-6093] custom errors for ERC-20 tokens.\\n */\\ninterface IERC20Errors {\\n    /**\\n     * @dev Indicates an error related to the current `balance` of a `sender`. Used in transfers.\\n     * @param sender Address whose tokens are being transferred.\\n     * @param balance Current balance for the interacting account.\\n     * @param needed Minimum amount required to perform a transfer.\\n     */\\n    error ERC20InsufficientBalance(address sender, uint256 balance, uint256 needed);\\n\\n    /**\\n     * @dev Indicates a failure with the token `sender`. Used in transfers.\\n     * @param sender Address whose tokens are being transferred.\\n     */\\n    error ERC20InvalidSender(address sender);\\n\\n    /**\\n     * @dev Indicates a failure with the token `receiver`. Used in transfers.\\n     * @param receiver Address to which tokens are being transferred.\\n     */\\n    error ERC20InvalidReceiver(address receiver);\\n\\n    /**\\n     * @dev Indicates a failure with the `spender`’s `allowance`. Used in transfers.\\n     * @param spender Address that may be allowed to operate on tokens without being their owner.\\n     * @param allowance Amount of tokens a `spender` is allowed to operate with.\\n     * @param needed Minimum amount required to perform a transfer.\\n     */\\n    error ERC20InsufficientAllowance(address spender, uint256 allowance, uint256 needed);\\n\\n    /**\\n     * @dev Indicates a failure with the `approver` of a token to be approved. Used in approvals.\\n     * @param approver Address initiating an approval operation.\\n     */\\n    error ERC20InvalidApprover(address approver);\\n\\n    /**\\n     * @dev Indicates a failure with the `spender` to be approved. Used in approvals.\\n     * @param spender Address that may be allowed to operate on tokens without being their owner.\\n     */\\n    error ERC20InvalidSpender(address spender);\\n}\\n\\n/**\\n * @dev Standard ERC-721 Errors\\n * Interface of the https://eips.ethereum.org/EIPS/eip-6093[ERC-6093] custom errors for ERC-721 tokens.\\n */\\ninterface IERC721Errors {\\n    /**\\n     * @dev Indicates that an address can't be an owner. For example, `address(0)` is a forbidden owner in ERC-20.\\n     * Used in balance queries.\\n     * @param owner Address of the current owner of a token.\\n     */\\n    error ERC721InvalidOwner(address owner);\\n\\n    /**\\n     * @dev Indicates a `tokenId` whose `owner` is the zero address.\\n     * @param tokenId Identifier number of a token.\\n     */\\n    error ERC721NonexistentToken(uint256 tokenId);\\n\\n    /**\\n     * @dev Indicates an error related to the ownership over a particular token. Used in transfers.\\n     * @param sender Address whose tokens are being transferred.\\n     * @param tokenId Identifier number of a token.\\n     * @param owner Address of the current owner of a token.\\n     */\\n    error ERC721IncorrectOwner(address sender, uint256 tokenId, address owner);\\n\\n    /**\\n     * @dev Indicates a failure with the token `sender`. Used in transfers.\\n     * @param sender Address whose tokens are being transferred.\\n     */\\n    error ERC721InvalidSender(address sender);\\n\\n    /**\\n     * @dev Indicates a failure with the token `receiver`. Used in transfers.\\n     * @param receiver Address to which tokens are being transferred.\\n     */\\n    error ERC721InvalidReceiver(address receiver);\\n\\n    /**\\n     * @dev Indicates a failure with the `operator`’s approval. Used in transfers.\\n     * @param operator Address that may be allowed to operate on tokens without being their owner.\\n     * @param tokenId Identifier number of a token.\\n     */\\n    error ERC721InsufficientApproval(address operator, uint256 tokenId);\\n\\n    /**\\n     * @dev Indicates a failure with the `approver` of a token to be approved. Used in approvals.\\n     * @param approver Address initiating an approval operation.\\n     */\\n    error ERC721InvalidApprover(address approver);\\n\\n    /**\\n     * @dev Indicates a failure with the `operator` to be approved. Used in approvals.\\n     * @param operator Address that may be allowed to operate on tokens without being their owner.\\n     */\\n    error ERC721InvalidOperator(address operator);\\n}\\n\\n/**\\n * @dev Standard ERC-1155 Errors\\n * Interface of the https://eips.ethereum.org/EIPS/eip-6093[ERC-6093] custom errors for ERC-1155 tokens.\\n */\\ninterface IERC1155Errors {\\n    /**\\n     * @dev Indicates an error related to the current `balance` of a `sender`. Used in transfers.\\n     * @param sender Address whose tokens are being transferred.\\n     * @param balance Current balance for the interacting account.\\n     * @param needed Minimum amount required to perform a transfer.\\n     * @param tokenId Identifier number of a token.\\n     */\\n    error ERC1155InsufficientBalance(address sender, uint256 balance, uint256 needed, uint256 tokenId);\\n\\n    /**\\n     * @dev Indicates a failure with the token `sender`. Used in transfers.\\n     * @param sender Address whose tokens are being transferred.\\n     */\\n    error ERC1155InvalidSender(address sender);\\n\\n    /**\\n     * @dev Indicates a failure with the token `receiver`. Used in transfers.\\n     * @param receiver Address to which tokens are being transferred.\\n     */\\n    error ERC1155InvalidReceiver(address receiver);\\n\\n    /**\\n     * @dev Indicates a failure with the `operator`’s approval. Used in transfers.\\n     * @param operator Address that may be allowed to operate on tokens without being their owner.\\n     * @param owner Address of the current owner of a token.\\n     */\\n    error ERC1155MissingApprovalForAll(address operator, address owner);\\n\\n    /**\\n     * @dev Indicates a failure with the `approver` of a token to be approved. Used in approvals.\\n     * @param approver Address initiating an approval operation.\\n     */\\n    error ERC1155InvalidApprover(address approver);\\n\\n    /**\\n     * @dev Indicates a failure with the `operator` to be approved. Used in approvals.\\n     * @param operator Address that may be allowed to operate on tokens without being their owner.\\n     */\\n    error ERC1155InvalidOperator(address operator);\\n\\n    /**\\n     * @dev Indicates an array length mismatch between ids and values in a safeBatchTransferFrom operation.\\n     * Used in batch transfers.\\n     * @param idsLength Length of the array of token identifiers\\n     * @param valuesLength Length of the array of token amounts\\n     */\\n    error ERC1155InvalidArrayLength(uint256 idsLength, uint256 valuesLength);\\n}\\n\"},\"@openzeppelin/contracts/utils/introspection/ERC165.sol\":{\"content\":\"// SPDX-License-Identifier: MIT\\n// OpenZeppelin Contracts (last updated v5.1.0) (utils/introspection/ERC165.sol)\\n\\npragma solidity ^0.8.20;\\n\\nimport {IERC165} from \\\"./IERC165.sol\\\";\\n\\n/**\\n * @dev Implementation of the {IERC165} interface.\\n *\\n * Contracts that want to implement ERC-165 should inherit from this contract and override {supportsInterface} to check\\n * for the additional interface id that will be supported. For example:\\n *\\n * ```solidity\\n * function supportsInterface(bytes4 interfaceId) public view virtual override returns (bool) {\\n *     return interfaceId == type(MyInterface).interfaceId || super.supportsInterface(interfaceId);\\n * }\\n * ```\\n */\\nabstract contract ERC165 is IERC165 {\\n    /**\\n     * @dev See {IERC165-supportsInterface}.\\n     */\\n    function supportsInterface(bytes4 interfaceId) public view virtual returns (bool) {\\n        return interfaceId == type(IERC165).interfaceId;\\n    }\\n}\\n\"},\"@openzeppelin/contracts/utils/Context.sol\":{\"content\":\"// SPDX-License-Identifier: MIT\\n// OpenZeppelin Contracts (last updated v5.0.1) (utils/Context.sol)\\n\\npragma solidity ^0.8.20;\\n\\n/**\\n * @dev Provides information about the current execution context, including the\\n * sender of the transaction and its data. While these are generally available\\n * via msg.sender and msg.data, they should not be accessed in such a direct\\n * manner, since when dealing with meta-transactions the account sending and\\n * paying for execution may not be the actual sender (as far as an application\\n * is concerned).\\n *\\n * This contract is only required for intermediate, library-like contracts.\\n */\\nabstract contract Context {\\n    function _msgSender() internal view virtual returns (address) {\\n        return msg.sender;\\n    }\\n\\n    function _msgData() internal view virtual returns (bytes calldata) {\\n        return msg.data;\\n    }\\n\\n    function _contextSuffixLength() internal view virtual returns (uint256) {\\n        return 0;\\n    }\\n}\\n\"},\"@openzeppelin/contracts/token/ERC1155/utils/ERC1155Utils.sol\":{\"content\":\"// SPDX-License-Identifier: MIT\\n// OpenZeppelin Contracts (last updated v5.3.0) (token/ERC1155/utils/ERC1155Utils.sol)\\n\\npragma solidity ^0.8.20;\\n\\nimport {IERC1155Receiver} from \\\"../IERC1155Receiver.sol\\\";\\nimport {IERC1155Errors} from \\\"../../../interfaces/draft-IERC6093.sol\\\";\\n\\n/**\\n * @dev Library that provide common ERC-1155 utility functions.\\n *\\n * See https://eips.ethereum.org/EIPS/eip-1155[ERC-1155].\\n *\\n * _Available since v5.1._\\n */\\nlibrary ERC1155Utils {\\n    /**\\n     * @dev Performs an acceptance check for the provided `operator` by calling {IERC1155Receiver-onERC1155Received}\\n     * on the `to` address. The `operator` is generally the address that initiated the token transfer (i.e. `msg.sender`).\\n     *\\n     * The acceptance call is not executed and treated as a no-op if the target address doesn't contain code (i.e. an EOA).\\n     * Otherwise, the recipient must implement {IERC1155Receiver-onERC1155Received} and return the acceptance magic value to accept\\n     * the transfer.\\n     */\\n    function checkOnERC1155Received(\\n        address operator,\\n        address from,\\n        address to,\\n        uint256 id,\\n        uint256 value,\\n        bytes memory data\\n    ) internal {\\n        if (to.code.length > 0) {\\n            try IERC1155Receiver(to).onERC1155Received(operator, from, id, value, data) returns (bytes4 response) {\\n                if (response != IERC1155Receiver.onERC1155Received.selector) {\\n                    // Tokens rejected\\n                    revert IERC1155Errors.ERC1155InvalidReceiver(to);\\n                }\\n            } catch (bytes memory reason) {\\n                if (reason.length == 0) {\\n                    // non-IERC1155Receiver implementer\\n                    revert IERC1155Errors.ERC1155InvalidReceiver(to);\\n                } else {\\n                    assembly (\\\"memory-safe\\\") {\\n                        revert(add(32, reason), mload(reason))\\n                    }\\n                }\\n            }\\n        }\\n    }\\n\\n    /**\\n     * @dev Performs a batch acceptance check for the provided `operator` by calling {IERC1155Receiver-onERC1155BatchReceived}\\n     * on the `to` address. The `operator` is generally the address that initiated the token transfer (i.e. `msg.sender`).\\n     *\\n     * The acceptance call is not executed and treated as a no-op if the target address doesn't contain code (i.e. an EOA).\\n     * Otherwise, the recipient must implement {IERC1155Receiver-onERC1155Received} and return the acceptance magic value to accept\\n     * the transfer.\\n     */\\n    function checkOnERC1155BatchReceived(\\n        address operator,\\n        address from,\\n        address to,\\n        uint256[] memory ids,\\n        uint256[] memory values,\\n        bytes memory data\\n    ) internal {\\n        if (to.code.length > 0) {\\n            try IERC1155Receiver(to).onERC1155BatchReceived(operator, from, ids, values, data) returns (\\n                bytes4 response\\n            ) {\\n                if (response != IERC1155Receiver.onERC1155BatchReceived.selector) {\\n                    // Tokens rejected\\n                    revert IERC1155Errors.ERC1155InvalidReceiver(to);\\n                }\\n            } catch (bytes memory reason) {\\n                if (reason.length == 0) {\\n                    // non-IERC1155Receiver implementer\\n                    revert IERC1155Errors.ERC1155InvalidReceiver(to);\\n                } else {\\n                    assembly (\\\"memory-safe\\\") {\\n                        revert(add(32, reason), mload(reason))\\n                    }\\n                }\\n            }\\n        }\\n    }\\n}\\n\"},\"@openzeppelin/contracts/token/ERC1155/extensions/IERC1155MetadataURI.sol\":{\"content\":\"// SPDX-License-Identifier: MIT\\n// OpenZeppelin Contracts (last updated v5.1.0) (token/ERC1155/extensions/IERC1155MetadataURI.sol)\\n\\npragma solidity ^0.8.20;\\n\\nimport {IERC1155} from \\\"../IERC1155.sol\\\";\\n\\n/**\\n * @dev Interface of the optional ERC1155MetadataExtension interface, as defined\\n * in the https://eips.ethereum.org/EIPS/eip-1155#metadata-extensions[ERC].\\n */\\ninterface IERC1155MetadataURI is IERC1155 {\\n    /**\\n     * @dev Returns the URI for token type `id`.\\n     *\\n     * If the `\\\\{id\\\\}` substring is present in the URI, it must be replaced by\\n     * clients with the actual token type ID.\\n     */\\n    function uri(uint256 id) external view returns (string memory);\\n}\\n\"},\"@openzeppelin/contracts/token/ERC1155/IERC1155.sol\":{\"content\":\"// SPDX-License-Identifier: MIT\\n// OpenZeppelin Contracts (last updated v5.3.0) (token/ERC1155/IERC1155.sol)\\n\\npragma solidity ^0.8.20;\\n\\nimport {IERC165} from \\\"../../utils/introspection/IERC165.sol\\\";\\n\\n/**\\n * @dev Required interface of an ERC-1155 compliant contract, as defined in the\\n * https://eips.ethereum.org/EIPS/eip-1155[ERC].\\n */\\ninterface IERC1155 is IERC165 {\\n    /**\\n     * @dev Emitted when `value` amount of tokens of type `id` are transferred from `from` to `to` by `operator`.\\n     */\\n    event TransferSingle(address indexed operator, address indexed from, address indexed to, uint256 id, uint256 value);\\n\\n    /**\\n     * @dev Equivalent to multiple {TransferSingle} events, where `operator`, `from` and `to` are the same for all\\n     * transfers.\\n     */\\n    event TransferBatch(\\n        address indexed operator,\\n        address indexed from,\\n        address indexed to,\\n        uint256[] ids,\\n        uint256[] values\\n    );\\n\\n    /**\\n     * @dev Emitted when `account` grants or revokes permission to `operator` to transfer their tokens, according to\\n     * `approved`.\\n     */\\n    event ApprovalForAll(address indexed account, address indexed operator, bool approved);\\n\\n    /**\\n     * @dev Emitted when the URI for token type `id` changes to `value`, if it is a non-programmatic URI.\\n     *\\n     * If an {URI} event was emitted for `id`, the standard\\n     * https://eips.ethereum.org/EIPS/eip-1155#metadata-extensions[guarantees] that `value` will equal the value\\n     * returned by {IERC1155MetadataURI-uri}.\\n     */\\n    event URI(string value, uint256 indexed id);\\n\\n    /**\\n     * @dev Returns the value of tokens of token type `id` owned by `account`.\\n     */\\n    function balanceOf(address account, uint256 id) external view returns (uint256);\\n\\n    /**\\n     * @dev xref:ROOT:erc1155.adoc#batch-operations[Batched] version of {balanceOf}.\\n     *\\n     * Requirements:\\n     *\\n     * - `accounts` and `ids` must have the same length.\\n     */\\n    function balanceOfBatch(\\n        address[] calldata accounts,\\n        uint256[] calldata ids\\n    ) external view returns (uint256[] memory);\\n\\n    /**\\n     * @dev Grants or revokes permission to `operator` to transfer the caller's tokens, according to `approved`,\\n     *\\n     * Emits an {ApprovalForAll} event.\\n     *\\n     * Requirements:\\n     *\\n     * - `operator` cannot be the zero address.\\n     */\\n    function setApprovalForAll(address operator, bool approved) external;\\n\\n    /**\\n     * @dev Returns true if `operator` is approved to transfer ``account``'s tokens.\\n     *\\n     * See {setApprovalForAll}.\\n     */\\n    function isApprovedForAll(address account, address operator) external view returns (bool);\\n\\n    /**\\n     * @dev Transfers a `value` amount of tokens of type `id` from `from` to `to`.\\n     *\\n     * WARNING: This function can potentially allow a reentrancy attack when transferring tokens\\n     * to an untrusted contract, when invoking {IERC1155Receiver-onERC1155Received} on the receiver.\\n     * Ensure to follow the checks-effects-interactions pattern and consider employing\\n     * reentrancy guards when interacting with untrusted contracts.\\n     *\\n     * Emits a {TransferSingle} event.\\n     *\\n     * Requirements:\\n     *\\n     * - `to` cannot be the zero address.\\n     * - If the caller is not `from`, it must have been approved to spend ``from``'s tokens via {setApprovalForAll}.\\n     * - `from` must have a balance of tokens of type `id` of at least `value` amount.\\n     * - If `to` refers to a smart contract, it must implement {IERC1155Receiver-onERC1155Received} and return the\\n     * acceptance magic value.\\n     */\\n    function safeTransferFrom(address from, address to, uint256 id, uint256 value, bytes calldata data) external;\\n\\n    /**\\n     * @dev xref:ROOT:erc1155.adoc#batch-operations[Batched] version of {safeTransferFrom}.\\n     *\\n     * WARNING: This function can potentially allow a reentrancy attack when transferring tokens\\n     * to an untrusted contract, when invoking {IERC1155Receiver-onERC1155BatchReceived} on the receiver.\\n     * Ensure to follow the checks-effects-interactions pattern and consider employing\\n     * reentrancy guards when interacting with untrusted contracts.\\n     *\\n     * Emits either a {TransferSingle} or a {TransferBatch} event, depending on the length of the array arguments.\\n     *\\n     * Requirements:\\n     *\\n     * - `ids` and `values` must have the same length.\\n     * - If `to` refers to a smart contract, it must implement {IERC1155Receiver-onERC1155BatchReceived} and return the\\n     * acceptance magic value.\\n     */\\n    function safeBatchTransferFrom(\\n        address from,\\n        address to,\\n        uint256[] calldata ids,\\n        uint256[] calldata values,\\n        bytes calldata data\\n    ) external;\\n}\\n\"},\"@iden3/contracts/lib/ArrayUtils.sol\":{\"content\":\"// SPDX-License-Identifier: GPL-3.0\\npragma solidity 0.8.20;\\n\\n/// @title A common functions for arrays.\\nlibrary ArrayUtils {\\n    /**\\n     * @dev Calculates bounds for the slice of the array.\\n     * @param arrLength An array length.\\n     * @param start A start index.\\n     * @param length A length of the slice.\\n     * @param limit A limit for the length.\\n     * @return The bounds for the slice of the array.\\n     */\\n    function calculateBounds(\\n        uint256 arrLength,\\n        uint256 start,\\n        uint256 length,\\n        uint256 limit\\n    ) internal pure returns (uint256, uint256) {\\n        require(length > 0, \\\"Length should be greater than 0\\\");\\n        require(length <= limit, \\\"Length limit exceeded\\\");\\n        require(start < arrLength, \\\"Start index out of bounds\\\");\\n\\n        uint256 end = start + length;\\n        if (end > arrLength) {\\n            end = arrLength;\\n        }\\n\\n        return (start, end);\\n    }\\n}\\n\"},\"@iden3/contracts/verifiers/ZKPVerifierBase.sol\":{\"content\":\"// SPDX-License-Identifier: GPL-3.0\\npragma solidity 0.8.20;\\n\\nimport {IZKPVerifier} from \\\"../interfaces/IZKPVerifier.sol\\\";\\nimport {ICircuitValidator} from \\\"../interfaces/ICircuitValidator.sol\\\";\\nimport {ArrayUtils} from \\\"../lib/ArrayUtils.sol\\\";\\nimport {ContextUpgradeable} from \\\"@openzeppelin/contracts-upgradeable/utils/ContextUpgradeable.sol\\\";\\n\\nabstract contract ZKPVerifierBase is IZKPVerifier, ContextUpgradeable {\\n    /// @dev Struct to store ZKP proof and associated data\\n    struct Proof {\\n        bool isVerified;\\n        mapping(string key => uint256 inputIndex) storageFields;\\n        string validatorVersion;\\n        uint256 blockNumber;\\n        uint256 blockTimestamp;\\n    }\\n\\n    /// @custom:storage-location erc7201:iden3.storage.ZKPVerifier\\n    struct ZKPVerifierStorage {\\n        mapping(address user => mapping(uint64 requestID => Proof)) _proofs;\\n        mapping(uint64 requestID => IZKPVerifier.ZKPRequest) _requests;\\n        uint64[] _requestIds;\\n    }\\n\\n    // keccak256(abi.encode(uint256(keccak256(\\\"iden3.storage.ZKPVerifier\\\")) - 1)) & ~bytes32(uint256(0xff));\\n    bytes32 internal constant ZKPVerifierStorageLocation =\\n        0x512d18c55869273fec77e70d8a8586e3fb133e90f1db24c6bcf4ff3506ef6a00;\\n\\n    /// @dev Get the main storage using assembly to ensure specific storage location\\n    function _getZKPVerifierStorage() private pure returns (ZKPVerifierStorage storage $) {\\n        assembly {\\n            $.slot := ZKPVerifierStorageLocation\\n        }\\n    }\\n\\n    /**\\n     * @dev Max return array length for request queries\\n     */\\n    uint256 public constant REQUESTS_RETURN_LIMIT = 1000;\\n\\n    /// @dev Key to retrieve the linkID from the proof storage\\n    string constant LINKED_PROOF_KEY = \\\"linkID\\\";\\n\\n    /// @dev Linked proof custom error\\n    error LinkedProofError(\\n        string message,\\n        uint64 requestId,\\n        uint256 linkID,\\n        uint64 requestIdToCompare,\\n        uint256 linkIdToCompare\\n    );\\n\\n    /// @dev Modifier to check if the validator is set for the request\\n    modifier checkRequestExistence(uint64 requestId, bool existence) {\\n        if (existence) {\\n            require(requestIdExists(requestId), \\\"request id doesn't exist\\\");\\n        } else {\\n            require(!requestIdExists(requestId), \\\"request id already exists\\\");\\n        }\\n        _;\\n    }\\n\\n    /// @dev Sets a ZKP request\\n    /// @param requestId The ID of the ZKP request\\n    /// @param request The ZKP request data\\n    function setZKPRequest(\\n        uint64 requestId,\\n        IZKPVerifier.ZKPRequest calldata request\\n    ) public virtual checkRequestExistence(requestId, false) {\\n        ZKPVerifierStorage storage s = _getZKPVerifierStorage();\\n        s._requests[requestId] = request;\\n        s._requestIds.push(requestId);\\n    }\\n\\n    /// @notice Submits a ZKP response and updates proof status\\n    /// @param requestId The ID of the ZKP request\\n    /// @param inputs The input data for the proof\\n    /// @param a The first component of the proof\\n    /// @param b The second component of the proof\\n    /// @param c The third component of the proof\\n    function submitZKPResponse(\\n        uint64 requestId,\\n        uint256[] calldata inputs,\\n        uint256[2] calldata a,\\n        uint256[2][2] calldata b,\\n        uint256[2] calldata c\\n    ) public virtual checkRequestExistence(requestId, true) {\\n        address sender = _msgSender();\\n        ICircuitValidator.KeyToInputIndex[] memory pairs = _verifyZKPResponse(\\n            requestId,\\n            inputs,\\n            a,\\n            b,\\n            c,\\n            sender\\n        );\\n\\n        Proof storage proof = _getZKPVerifierStorage()._proofs[sender][requestId];\\n        for (uint256 i = 0; i < pairs.length; i++) {\\n            proof.storageFields[pairs[i].key] = inputs[pairs[i].inputIndex];\\n        }\\n\\n        proof.isVerified = true;\\n        proof.validatorVersion = _getZKPVerifierStorage()._requests[requestId].validator.version();\\n        proof.blockNumber = block.number;\\n        proof.blockTimestamp = block.timestamp;\\n    }\\n\\n    /// @dev Verifies a ZKP response without updating any proof status\\n    /// @param requestId The ID of the ZKP request\\n    /// @param inputs The public inputs for the proof\\n    /// @param a The first component of the proof\\n    /// @param b The second component of the proof\\n    /// @param c The third component of the proof\\n    /// @param sender The sender on behalf of which the proof is done\\n    function verifyZKPResponse(\\n        uint64 requestId,\\n        uint256[] calldata inputs,\\n        uint256[2] calldata a,\\n        uint256[2][2] calldata b,\\n        uint256[2] calldata c,\\n        address sender\\n    )\\n        public\\n        view\\n        virtual\\n        checkRequestExistence(requestId, true)\\n        returns (ICircuitValidator.KeyToInputIndex[] memory)\\n    {\\n        return _verifyZKPResponse(requestId, inputs, a, b, c, sender);\\n    }\\n\\n    /// @dev Gets the list of request IDs and verifies the proofs are linked\\n    /// @param sender the user's address\\n    /// @param requestIds the list of request IDs\\n    /// Throws if the proofs are not linked\\n    function verifyLinkedProofs(address sender, uint64[] calldata requestIds) public view virtual {\\n        require(requestIds.length > 1, \\\"Linked proof verification needs more than 1 request\\\");\\n\\n        uint256 expectedLinkID = getProofStorageField(sender, requestIds[0], LINKED_PROOF_KEY);\\n\\n        if (expectedLinkID == 0) {\\n            revert(\\\"Can't find linkID for given request Ids and user address\\\");\\n        }\\n\\n        for (uint256 i = 1; i < requestIds.length; i++) {\\n            uint256 actualLinkID = getProofStorageField(sender, requestIds[i], LINKED_PROOF_KEY);\\n\\n            if (expectedLinkID != actualLinkID) {\\n                revert LinkedProofError(\\n                    \\\"Proofs are not linked\\\",\\n                    requestIds[0],\\n                    expectedLinkID,\\n                    requestIds[i],\\n                    actualLinkID\\n                );\\n            }\\n        }\\n    }\\n\\n    /// @dev Gets a specific ZKP request by ID\\n    /// @param requestId The ID of the ZKP request\\n    /// @return zkpRequest The ZKP request data\\n    function getZKPRequest(\\n        uint64 requestId\\n    )\\n        public\\n        view\\n        checkRequestExistence(requestId, true)\\n        returns (IZKPVerifier.ZKPRequest memory zkpRequest)\\n    {\\n        return _getZKPVerifierStorage()._requests[requestId];\\n    }\\n\\n    /// @dev Gets the count of ZKP requests\\n    /// @return The count of ZKP requests\\n    function getZKPRequestsCount() public view returns (uint256) {\\n        return _getZKPVerifierStorage()._requestIds.length;\\n    }\\n\\n    /// @dev Checks if a ZKP request ID exists\\n    /// @param requestId The ID of the ZKP request\\n    /// @return Whether the request ID exists\\n    function requestIdExists(uint64 requestId) public view override returns (bool) {\\n        return\\n            _getZKPVerifierStorage()._requests[requestId].validator !=\\n            ICircuitValidator(address(0));\\n    }\\n\\n    /// @dev Gets multiple ZKP requests within a range\\n    /// @param startIndex The starting index of the range\\n    /// @param length The length of the range\\n    /// @return An array of ZKP requests within the specified range\\n    function getZKPRequests(\\n        uint256 startIndex,\\n        uint256 length\\n    ) public view returns (IZKPVerifier.ZKPRequest[] memory) {\\n        ZKPVerifierStorage storage s = _getZKPVerifierStorage();\\n        (uint256 start, uint256 end) = ArrayUtils.calculateBounds(\\n            s._requestIds.length,\\n            startIndex,\\n            length,\\n            REQUESTS_RETURN_LIMIT\\n        );\\n\\n        IZKPVerifier.ZKPRequest[] memory result = new IZKPVerifier.ZKPRequest[](end - start);\\n\\n        for (uint256 i = start; i < end; i++) {\\n            result[i - start] = s._requests[s._requestIds[i]];\\n        }\\n\\n        return result;\\n    }\\n\\n    /// @dev Checks if proof submitted for a given sender and request ID\\n    /// @param sender The sender's address\\n    /// @param requestId The ID of the ZKP request\\n    /// @return true if proof submitted\\n    function isProofVerified(\\n        address sender,\\n        uint64 requestId\\n    ) public view checkRequestExistence(requestId, true) returns (bool) {\\n        return _getZKPVerifierStorage()._proofs[sender][requestId].isVerified;\\n    }\\n\\n    /// @dev Checks the proof status for a given user and request ID\\n    /// @param sender The sender's address\\n    /// @param requestId The ID of the ZKP request\\n    /// @return The proof status structure\\n    function getProofStatus(\\n        address sender,\\n        uint64 requestId\\n    ) public view checkRequestExistence(requestId, true) returns (IZKPVerifier.ProofStatus memory) {\\n        Proof storage proof = _getZKPVerifierStorage()._proofs[sender][requestId];\\n\\n        return\\n            IZKPVerifier.ProofStatus(\\n                proof.isVerified,\\n                proof.validatorVersion,\\n                proof.blockNumber,\\n                proof.blockTimestamp\\n            );\\n    }\\n\\n    /// @dev Gets the proof storage item for a given user, request ID and key\\n    /// @param user The user's address\\n    /// @param requestId The ID of the ZKP request\\n    /// @return The proof\\n    function getProofStorageField(\\n        address user,\\n        uint64 requestId,\\n        string memory key\\n    ) public view checkRequestExistence(requestId, true) returns (uint256) {\\n        return _getZKPVerifierStorage()._proofs[user][requestId].storageFields[key];\\n    }\\n\\n    function _verifyZKPResponse(\\n        uint64 requestId,\\n        uint256[] calldata inputs,\\n        uint256[2] calldata a,\\n        uint256[2][2] calldata b,\\n        uint256[2] calldata c,\\n        address sender\\n    ) private view returns (ICircuitValidator.KeyToInputIndex[] memory) {\\n        IZKPVerifier.ZKPRequest memory request = _getZKPVerifierStorage()._requests[requestId];\\n        ICircuitValidator.KeyToInputIndex[] memory pairs = request.validator.verify(\\n            inputs,\\n            a,\\n            b,\\n            c,\\n            request.data,\\n            sender\\n        );\\n        return pairs;\\n    }\\n}\\n\"},\"@iden3/contracts/verifiers/ValidatorWhitelist.sol\":{\"content\":\"// SPDX-License-Identifier: GPL-3.0\\npragma solidity 0.8.20;\\n\\nimport {IERC165} from \\\"@openzeppelin/contracts/utils/introspection/IERC165.sol\\\";\\nimport {ICircuitValidator} from \\\"../interfaces/ICircuitValidator.sol\\\";\\nimport {ZKPVerifierBase} from \\\"./ZKPVerifierBase.sol\\\";\\nimport {IZKPVerifier} from \\\"../interfaces/IZKPVerifier.sol\\\";\\n\\ncontract ValidatorWhitelist is ZKPVerifierBase {\\n    /// @custom:storage-location erc7201:iden3.storage.ValidatorWhitelist\\n    struct ValidatorWhitelistStorage {\\n        mapping(ICircuitValidator => bool isApproved) _validatorWhitelist;\\n    }\\n\\n    // keccak256(abi.encode(uint256(keccak256(\\\"iden3.storage.ValidatorWhitelist\\\")) - 1)) & ~bytes32(uint256(0xff));\\n    bytes32 private constant ValidatorWhitelistStorageLocation =\\n        0x76aa24e3538905838cc74060b2aa4c054b1e474aacf44741879e1850715e9300;\\n\\n    function _getValidatorWhitelistStorage()\\n        private\\n        pure\\n        returns (ValidatorWhitelistStorage storage $)\\n    {\\n        assembly {\\n            $.slot := ValidatorWhitelistStorageLocation\\n        }\\n    }\\n\\n    /// @dev Modifier to check if the validator is whitelisted\\n    modifier onlyWhitelistedValidator(ICircuitValidator validator) {\\n        require(isWhitelistedValidator(validator), \\\"Validator is not whitelisted\\\");\\n        _;\\n    }\\n\\n    /// @dev Sets a ZKP request\\n    /// @param requestId The ID of the ZKP request\\n    /// @param request The ZKP request data\\n    function setZKPRequest(\\n        uint64 requestId,\\n        IZKPVerifier.ZKPRequest calldata request\\n    ) public virtual override onlyWhitelistedValidator(request.validator) {\\n        super.setZKPRequest(requestId, request);\\n    }\\n\\n    /// @dev Submits a ZKP response and updates proof status\\n    /// @param requestId The ID of the ZKP request\\n    /// @param inputs The input data for the proof\\n    /// @param a The first component of the proof\\n    /// @param b The second component of the proof\\n    /// @param c The third component of the proof\\n    function submitZKPResponse(\\n        uint64 requestId,\\n        uint256[] calldata inputs,\\n        uint256[2] calldata a,\\n        uint256[2][2] calldata b,\\n        uint256[2] calldata c\\n    ) public virtual override {\\n        ICircuitValidator validator = getZKPRequest(requestId).validator;\\n        require(isWhitelistedValidator(validator), \\\"Validator is not whitelisted\\\");\\n        super.submitZKPResponse(requestId, inputs, a, b, c);\\n    }\\n\\n    /// @dev Verifies a ZKP response without updating any proof status\\n    /// @param requestId The ID of the ZKP request\\n    /// @param inputs The public inputs for the proof\\n    /// @param a The first component of the proof\\n    /// @param b The second component of the proof\\n    /// @param c The third component of the proof\\n    /// @param sender The sender on behalf of which the proof is done\\n    function verifyZKPResponse(\\n        uint64 requestId,\\n        uint256[] calldata inputs,\\n        uint256[2] calldata a,\\n        uint256[2][2] calldata b,\\n        uint256[2] calldata c,\\n        address sender\\n    ) public view virtual override returns (ICircuitValidator.KeyToInputIndex[] memory) {\\n        ICircuitValidator validator = getZKPRequest(requestId).validator;\\n        require(isWhitelistedValidator(validator), \\\"Validator is not whitelisted\\\");\\n        return super.verifyZKPResponse(requestId, inputs, a, b, c, sender);\\n    }\\n\\n    /// @dev Checks if validator is whitelisted\\n    /// @param validator The validator address\\n    /// @return True if validator is whitelisted, otherwise returns false\\n    function isWhitelistedValidator(\\n        ICircuitValidator validator\\n    ) public view virtual returns (bool) {\\n        return _getValidatorWhitelistStorage()._validatorWhitelist[validator];\\n    }\\n\\n    function _addValidatorToWhitelist(ICircuitValidator validator) internal {\\n        require(\\n            IERC165(address(validator)).supportsInterface(type(ICircuitValidator).interfaceId),\\n            \\\"Validator doesn't support relevant interface\\\"\\n        );\\n\\n        _getValidatorWhitelistStorage()._validatorWhitelist[validator] = true;\\n    }\\n\\n    function _removeValidatorFromWhitelist(ICircuitValidator validator) internal {\\n        _getValidatorWhitelistStorage()._validatorWhitelist[validator] = false;\\n    }\\n}\\n\"},\"@iden3/contracts/verifiers/RequestDisableable.sol\":{\"content\":\"// SPDX-License-Identifier: GPL-3.0\\npragma solidity 0.8.20;\\n\\nimport {ZKPVerifierBase} from \\\"./ZKPVerifierBase.sol\\\";\\nimport {ICircuitValidator} from \\\"../interfaces/ICircuitValidator.sol\\\";\\n\\ncontract RequestDisableable is ZKPVerifierBase {\\n    /// @custom:storage-location erc7201:iden3.storage.RequestDisableable\\n    struct RequestDisableStorage {\\n        mapping(uint64 requestID => bool isDisabled) _requestDisabling;\\n    }\\n\\n    // keccak256(abi.encode(uint256(keccak256(\\\"iden3.storage.RequestDisableable\\\")) - 1)) & ~bytes32(uint256(0xff));\\n    bytes32 private constant RequestDisableStorageLocation =\\n        0x70325635d67d74932012fa921ccb2f335d3b1d69e3a487f50d001cc65f531600;\\n\\n    function _getRequestDisableStorage() private pure returns (RequestDisableStorage storage $) {\\n        assembly {\\n            $.slot := RequestDisableStorageLocation\\n        }\\n    }\\n\\n    /// @dev Modifier to check if the ZKP request is enabled\\n    modifier onlyEnabledRequest(uint64 requestId) {\\n        require(isZKPRequestEnabled(requestId), \\\"Request is disabled\\\");\\n        _;\\n    }\\n\\n    /// @dev Submits a ZKP response and updates proof status\\n    /// @param requestId The ID of the ZKP request\\n    /// @param inputs The input data for the proof\\n    /// @param a The first component of the proof\\n    /// @param b The second component of the proof\\n    /// @param c The third component of the proof\\n    function submitZKPResponse(\\n        uint64 requestId,\\n        uint256[] calldata inputs,\\n        uint256[2] calldata a,\\n        uint256[2][2] calldata b,\\n        uint256[2] calldata c\\n    ) public virtual override onlyEnabledRequest(requestId) {\\n        super.submitZKPResponse(requestId, inputs, a, b, c);\\n    }\\n\\n    /// @dev Verifies a ZKP response without updating any proof status\\n    /// @param requestId The ID of the ZKP request\\n    /// @param inputs The public inputs for the proof\\n    /// @param a The first component of the proof\\n    /// @param b The second component of the proof\\n    /// @param c The third component of the proof\\n    /// @param sender The sender on behalf of which the proof is done\\n    function verifyZKPResponse(\\n        uint64 requestId,\\n        uint256[] calldata inputs,\\n        uint256[2] calldata a,\\n        uint256[2][2] calldata b,\\n        uint256[2] calldata c,\\n        address sender\\n    )\\n        public\\n        view\\n        virtual\\n        override\\n        onlyEnabledRequest(requestId)\\n        returns (ICircuitValidator.KeyToInputIndex[] memory)\\n    {\\n        return super.verifyZKPResponse(requestId, inputs, a, b, c, sender);\\n    }\\n\\n    /// @dev Checks if ZKP Request is enabled\\n    /// @param requestId The ID of the ZKP request\\n    /// @return True if ZKP Request enabled, otherwise returns false\\n    function isZKPRequestEnabled(\\n        uint64 requestId\\n    ) public view virtual checkRequestExistence(requestId, true) returns (bool) {\\n        return !_getRequestDisableStorage()._requestDisabling[requestId];\\n    }\\n\\n    function _disableZKPRequest(uint64 requestId) internal checkRequestExistence(requestId, true) {\\n        _getRequestDisableStorage()._requestDisabling[requestId] = true;\\n    }\\n\\n    function _enableZKPRequest(uint64 requestId) internal checkRequestExistence(requestId, true) {\\n        _getRequestDisableStorage()._requestDisabling[requestId] = false;\\n    }\\n}\\n\"},\"@iden3/contracts/verifiers/RequestOwnership.sol\":{\"content\":\"// SPDX-License-Identifier: GPL-3.0\\npragma solidity 0.8.20;\\n\\nimport {ZKPVerifierBase} from \\\"./ZKPVerifierBase.sol\\\";\\nimport {IZKPVerifier} from \\\"../interfaces/IZKPVerifier.sol\\\";\\n\\nabstract contract RequestOwnership is ZKPVerifierBase {\\n    /// @custom:storage-location erc7201:iden3.storage.RequestOwnership.sol\\n    struct RequestOwnershipStorage {\\n        mapping(uint64 requestID => address requestOwner) _requestOwners;\\n    }\\n\\n    // keccak256(abi.encode(uint256(keccak256(\\\"iden3.storage.RequestOwnership\\\")) - 1)) & ~bytes32(uint256(0xff));\\n    bytes32 private constant RequestOwnershipStorageLocation =\\n        0x6209bdc3799f5201408f7a7d4d471bb2a0100353e618451674b93f730b006a00;\\n\\n    function _getRequestOwnershipStorage()\\n        private\\n        pure\\n        returns (RequestOwnershipStorage storage $)\\n    {\\n        assembly {\\n            $.slot := RequestOwnershipStorageLocation\\n        }\\n    }\\n\\n    /// @dev Modifier to check if the caller is ZKP Request owner\\n    modifier onlyRequestOwner(uint64 requestId) virtual {\\n        require(getRequestOwner(requestId) == _msgSender(), \\\"Not a request owner\\\");\\n        _;\\n    }\\n\\n    /// @dev Sets a ZKP request\\n    /// @param requestId The ID of the ZKP request\\n    /// @param request The ZKP request data\\n    function setZKPRequest(\\n        uint64 requestId,\\n        IZKPVerifier.ZKPRequest calldata request\\n    ) public virtual override {\\n        super.setZKPRequest(requestId, request);\\n        _setRequestOwner(requestId, _msgSender());\\n    }\\n\\n    /// @dev Get a ZKP Request Owner address\\n    /// @param requestId The ID of a ZKP Request\\n    /// @return The ZKP Request Owner address\\n    function getRequestOwner(\\n        uint64 requestId\\n    ) public view virtual checkRequestExistence(requestId, true) returns (address) {\\n        return _getRequestOwnershipStorage()._requestOwners[requestId];\\n    }\\n\\n    function _setRequestOwner(\\n        uint64 requestId,\\n        address requestOwner\\n    ) internal checkRequestExistence(requestId, true) {\\n        RequestOwnershipStorage storage $ = _getRequestOwnershipStorage();\\n        $._requestOwners[requestId] = requestOwner;\\n    }\\n}\\n\"},\"@openzeppelin/contracts-upgradeable/access/Ownable2StepUpgradeable.sol\":{\"content\":\"// SPDX-License-Identifier: MIT\\n// OpenZeppelin Contracts (last updated v5.1.0) (access/Ownable2Step.sol)\\n\\npragma solidity ^0.8.20;\\n\\nimport {OwnableUpgradeable} from \\\"./OwnableUpgradeable.sol\\\";\\nimport {Initializable} from \\\"../proxy/utils/Initializable.sol\\\";\\n\\n/**\\n * @dev Contract module which provides access control mechanism, where\\n * there is an account (an owner) that can be granted exclusive access to\\n * specific functions.\\n *\\n * This extension of the {Ownable} contract includes a two-step mechanism to transfer\\n * ownership, where the new owner must call {acceptOwnership} in order to replace the\\n * old one. This can help prevent common mistakes, such as transfers of ownership to\\n * incorrect accounts, or to contracts that are unable to interact with the\\n * permission system.\\n *\\n * The initial owner is specified at deployment time in the constructor for `Ownable`. This\\n * can later be changed with {transferOwnership} and {acceptOwnership}.\\n *\\n * This module is used through inheritance. It will make available all functions\\n * from parent (Ownable).\\n */\\nabstract contract Ownable2StepUpgradeable is Initializable, OwnableUpgradeable {\\n    /// @custom:storage-location erc7201:openzeppelin.storage.Ownable2Step\\n    struct Ownable2StepStorage {\\n        address _pendingOwner;\\n    }\\n\\n    // keccak256(abi.encode(uint256(keccak256(\\\"openzeppelin.storage.Ownable2Step\\\")) - 1)) & ~bytes32(uint256(0xff))\\n    bytes32 private constant Ownable2StepStorageLocation = 0x237e158222e3e6968b72b9db0d8043aacf074ad9f650f0d1606b4d82ee432c00;\\n\\n    function _getOwnable2StepStorage() private pure returns (Ownable2StepStorage storage $) {\\n        assembly {\\n            $.slot := Ownable2StepStorageLocation\\n        }\\n    }\\n\\n    event OwnershipTransferStarted(address indexed previousOwner, address indexed newOwner);\\n\\n    function __Ownable2Step_init() internal onlyInitializing {\\n    }\\n\\n    function __Ownable2Step_init_unchained() internal onlyInitializing {\\n    }\\n    /**\\n     * @dev Returns the address of the pending owner.\\n     */\\n    function pendingOwner() public view virtual returns (address) {\\n        Ownable2StepStorage storage $ = _getOwnable2StepStorage();\\n        return $._pendingOwner;\\n    }\\n\\n    /**\\n     * @dev Starts the ownership transfer of the contract to a new account. Replaces the pending transfer if there is one.\\n     * Can only be called by the current owner.\\n     *\\n     * Setting `newOwner` to the zero address is allowed; this can be used to cancel an initiated ownership transfer.\\n     */\\n    function transferOwnership(address newOwner) public virtual override onlyOwner {\\n        Ownable2StepStorage storage $ = _getOwnable2StepStorage();\\n        $._pendingOwner = newOwner;\\n        emit OwnershipTransferStarted(owner(), newOwner);\\n    }\\n\\n    /**\\n     * @dev Transfers ownership of the contract to a new account (`newOwner`) and deletes any pending owner.\\n     * Internal function without access restriction.\\n     */\\n    function _transferOwnership(address newOwner) internal virtual override {\\n        Ownable2StepStorage storage $ = _getOwnable2StepStorage();\\n        delete $._pendingOwner;\\n        super._transferOwnership(newOwner);\\n    }\\n\\n    /**\\n     * @dev The new owner accepts the ownership transfer.\\n     */\\n    function acceptOwnership() public virtual {\\n        address sender = _msgSender();\\n        if (pendingOwner() != sender) {\\n            revert OwnableUnauthorizedAccount(sender);\\n        }\\n        _transferOwnership(sender);\\n    }\\n}\\n\"},\"@iden3/contracts/lib/GenesisUtils.sol\":{\"content\":\"// SPDX-License-Identifier: GPL-3.0\\npragma solidity 0.8.20;\\n\\nimport {PrimitiveTypeUtils} from \\\"./PrimitiveTypeUtils.sol\\\";\\n\\nlibrary GenesisUtils {\\n    /**\\n     *   @dev sum\\n     */\\n    function sum(bytes memory array) internal pure returns (uint16 s) {\\n        require(array.length == 29, \\\"Checksum requires 29 length array\\\");\\n\\n        for (uint256 i = 0; i < array.length; ++i) {\\n            s += uint16(uint8(array[i]));\\n        }\\n    }\\n\\n    /**\\n     * @dev isGenesisState\\n     */\\n    function isGenesisState(uint256 id, uint256 idState) internal pure returns (bool) {\\n        bytes2 idType = bytes2(\\n            PrimitiveTypeUtils.uint256ToBytes(PrimitiveTypeUtils.reverseUint256(id))\\n        );\\n        uint256 computedId = calcIdFromGenesisState(idType, idState);\\n        return id == computedId;\\n    }\\n\\n    /**\\n     * @dev calcIdFromGenesisState\\n     */\\n    function calcIdFromGenesisState(\\n        bytes2 idType,\\n        uint256 idState\\n    ) internal pure returns (uint256) {\\n        bytes memory userStateB1 = PrimitiveTypeUtils.uint256ToBytes(\\n            PrimitiveTypeUtils.reverseUint256(idState)\\n        );\\n\\n        bytes memory cutState = PrimitiveTypeUtils.slice(userStateB1, userStateB1.length - 27, 27);\\n        bytes memory beforeChecksum = PrimitiveTypeUtils.concat(abi.encodePacked(idType), cutState);\\n\\n        uint16 checksum = PrimitiveTypeUtils.reverseUint16(sum(beforeChecksum));\\n        bytes memory checkSumBytes = abi.encodePacked(checksum);\\n\\n        bytes memory idBytes = PrimitiveTypeUtils.concat(beforeChecksum, checkSumBytes);\\n        require(idBytes.length == 31, \\\"idBytes requires 31 length array\\\");\\n\\n        return PrimitiveTypeUtils.reverseUint256(PrimitiveTypeUtils.padRightToUint256(idBytes));\\n    }\\n\\n    /**\\n     * @dev calcIdFromEthAddress\\n     */\\n    function calcIdFromEthAddress(bytes2 idType, address caller) internal pure returns (uint256) {\\n        uint256 addr = PrimitiveTypeUtils.addressToUint256(caller);\\n\\n        return calcIdFromGenesisState(idType, PrimitiveTypeUtils.reverseUint256(addr));\\n    }\\n}\\n\"},\"solidity-bytes-utils/contracts/BytesLib.sol\":{\"content\":\"// SPDX-License-Identifier: Unlicense\\n/*\\n * @title Solidity Bytes Arrays Utils\\n * @author Gonçalo Sá <goncalo.sa@consensys.net>\\n *\\n * @dev Bytes tightly packed arrays utility library for ethereum contracts written in Solidity.\\n *      The library lets you concatenate, slice and type cast bytes arrays both in memory and storage.\\n */\\npragma solidity >=0.8.0 <0.9.0;\\n\\n\\nlibrary BytesLib {\\n    function concat(\\n        bytes memory _preBytes,\\n        bytes memory _postBytes\\n    )\\n        internal\\n        pure\\n        returns (bytes memory)\\n    {\\n        bytes memory tempBytes;\\n\\n        assembly {\\n            // Get a location of some free memory and store it in tempBytes as\\n            // Solidity does for memory variables.\\n            tempBytes := mload(0x40)\\n\\n            // Store the length of the first bytes array at the beginning of\\n            // the memory for tempBytes.\\n            let length := mload(_preBytes)\\n            mstore(tempBytes, length)\\n\\n            // Maintain a memory counter for the current write location in the\\n            // temp bytes array by adding the 32 bytes for the array length to\\n            // the starting location.\\n            let mc := add(tempBytes, 0x20)\\n            // Stop copying when the memory counter reaches the length of the\\n            // first bytes array.\\n            let end := add(mc, length)\\n\\n            for {\\n                // Initialize a copy counter to the start of the _preBytes data,\\n                // 32 bytes into its memory.\\n                let cc := add(_preBytes, 0x20)\\n            } lt(mc, end) {\\n                // Increase both counters by 32 bytes each iteration.\\n                mc := add(mc, 0x20)\\n                cc := add(cc, 0x20)\\n            } {\\n                // Write the _preBytes data into the tempBytes memory 32 bytes\\n                // at a time.\\n                mstore(mc, mload(cc))\\n            }\\n\\n            // Add the length of _postBytes to the current length of tempBytes\\n            // and store it as the new length in the first 32 bytes of the\\n            // tempBytes memory.\\n            length := mload(_postBytes)\\n            mstore(tempBytes, add(length, mload(tempBytes)))\\n\\n            // Move the memory counter back from a multiple of 0x20 to the\\n            // actual end of the _preBytes data.\\n            mc := end\\n            // Stop copying when the memory counter reaches the new combined\\n            // length of the arrays.\\n            end := add(mc, length)\\n\\n            for {\\n                let cc := add(_postBytes, 0x20)\\n            } lt(mc, end) {\\n                mc := add(mc, 0x20)\\n                cc := add(cc, 0x20)\\n            } {\\n                mstore(mc, mload(cc))\\n            }\\n\\n            // Update the free-memory pointer by padding our last write location\\n            // to 32 bytes: add 31 bytes to the end of tempBytes to move to the\\n            // next 32 byte block, then round down to the nearest multiple of\\n            // 32. If the sum of the length of the two arrays is zero then add\\n            // one before rounding down to leave a blank 32 bytes (the length block with 0).\\n            mstore(0x40, and(\\n              add(add(end, iszero(add(length, mload(_preBytes)))), 31),\\n              not(31) // Round down to the nearest 32 bytes.\\n            ))\\n        }\\n\\n        return tempBytes;\\n    }\\n\\n    function concatStorage(bytes storage _preBytes, bytes memory _postBytes) internal {\\n        assembly {\\n            // Read the first 32 bytes of _preBytes storage, which is the length\\n            // of the array. (We don't need to use the offset into the slot\\n            // because arrays use the entire slot.)\\n            let fslot := sload(_preBytes.slot)\\n            // Arrays of 31 bytes or less have an even value in their slot,\\n            // while longer arrays have an odd value. The actual length is\\n            // the slot divided by two for odd values, and the lowest order\\n            // byte divided by two for even values.\\n            // If the slot is even, bitwise and the slot with 255 and divide by\\n            // two to get the length. If the slot is odd, bitwise and the slot\\n            // with -1 and divide by two.\\n            let slength := div(and(fslot, sub(mul(0x100, iszero(and(fslot, 1))), 1)), 2)\\n            let mlength := mload(_postBytes)\\n            let newlength := add(slength, mlength)\\n            // slength can contain both the length and contents of the array\\n            // if length < 32 bytes so let's prepare for that\\n            // v. http://solidity.readthedocs.io/en/latest/miscellaneous.html#layout-of-state-variables-in-storage\\n            switch add(lt(slength, 32), lt(newlength, 32))\\n            case 2 {\\n                // Since the new array still fits in the slot, we just need to\\n                // update the contents of the slot.\\n                // uint256(bytes_storage) = uint256(bytes_storage) + uint256(bytes_memory) + new_length\\n                sstore(\\n                    _preBytes.slot,\\n                    // all the modifications to the slot are inside this\\n                    // next block\\n                    add(\\n                        // we can just add to the slot contents because the\\n                        // bytes we want to change are the LSBs\\n                        fslot,\\n                        add(\\n                            mul(\\n                                div(\\n                                    // load the bytes from memory\\n                                    mload(add(_postBytes, 0x20)),\\n                                    // zero all bytes to the right\\n                                    exp(0x100, sub(32, mlength))\\n                                ),\\n                                // and now shift left the number of bytes to\\n                                // leave space for the length in the slot\\n                                exp(0x100, sub(32, newlength))\\n                            ),\\n                            // increase length by the double of the memory\\n                            // bytes length\\n                            mul(mlength, 2)\\n                        )\\n                    )\\n                )\\n            }\\n            case 1 {\\n                // The stored value fits in the slot, but the combined value\\n                // will exceed it.\\n                // get the keccak hash to get the contents of the array\\n                mstore(0x0, _preBytes.slot)\\n                let sc := add(keccak256(0x0, 0x20), div(slength, 32))\\n\\n                // save new length\\n                sstore(_preBytes.slot, add(mul(newlength, 2), 1))\\n\\n                // The contents of the _postBytes array start 32 bytes into\\n                // the structure. Our first read should obtain the `submod`\\n                // bytes that can fit into the unused space in the last word\\n                // of the stored array. To get this, we read 32 bytes starting\\n                // from `submod`, so the data we read overlaps with the array\\n                // contents by `submod` bytes. Masking the lowest-order\\n                // `submod` bytes allows us to add that value directly to the\\n                // stored value.\\n\\n                let submod := sub(32, slength)\\n                let mc := add(_postBytes, submod)\\n                let end := add(_postBytes, mlength)\\n                let mask := sub(exp(0x100, submod), 1)\\n\\n                sstore(\\n                    sc,\\n                    add(\\n                        and(\\n                            fslot,\\n                            0xffffffffffffffffffffffffffffffffffffffffffffffffffffffffffffff00\\n                        ),\\n                        and(mload(mc), mask)\\n                    )\\n                )\\n\\n                for {\\n                    mc := add(mc, 0x20)\\n                    sc := add(sc, 1)\\n                } lt(mc, end) {\\n                    sc := add(sc, 1)\\n                    mc := add(mc, 0x20)\\n                } {\\n                    sstore(sc, mload(mc))\\n                }\\n\\n                mask := exp(0x100, sub(mc, end))\\n\\n                sstore(sc, mul(div(mload(mc), mask), mask))\\n            }\\n            default {\\n                // get the keccak hash to get the contents of the array\\n                mstore(0x0, _preBytes.slot)\\n                // Start copying to the last used word of the stored array.\\n                let sc := add(keccak256(0x0, 0x20), div(slength, 32))\\n\\n                // save new length\\n                sstore(_preBytes.slot, add(mul(newlength, 2), 1))\\n\\n                // Copy over the first `submod` bytes of the new data as in\\n                // case 1 above.\\n                let slengthmod := mod(slength, 32)\\n                let mlengthmod := mod(mlength, 32)\\n                let submod := sub(32, slengthmod)\\n                let mc := add(_postBytes, submod)\\n                let end := add(_postBytes, mlength)\\n                let mask := sub(exp(0x100, submod), 1)\\n\\n                sstore(sc, add(sload(sc), and(mload(mc), mask)))\\n\\n                for {\\n                    sc := add(sc, 1)\\n                    mc := add(mc, 0x20)\\n                } lt(mc, end) {\\n                    sc := add(sc, 1)\\n                    mc := add(mc, 0x20)\\n                } {\\n                    sstore(sc, mload(mc))\\n                }\\n\\n                mask := exp(0x100, sub(mc, end))\\n\\n                sstore(sc, mul(div(mload(mc), mask), mask))\\n            }\\n        }\\n    }\\n\\n    function slice(\\n        bytes memory _bytes,\\n        uint256 _start,\\n        uint256 _length\\n    )\\n        internal\\n        pure\\n        returns (bytes memory)\\n    {\\n        // We're using the unchecked block below because otherwise execution ends \\n        // with the native overflow error code.\\n        unchecked {\\n            require(_length + 31 >= _length, \\\"slice_overflow\\\");\\n        }\\n        require(_bytes.length >= _start + _length, \\\"slice_outOfBounds\\\");\\n\\n        bytes memory tempBytes;\\n\\n        assembly {\\n            switch iszero(_length)\\n            case 0 {\\n                // Get a location of some free memory and store it in tempBytes as\\n                // Solidity does for memory variables.\\n                tempBytes := mload(0x40)\\n\\n                // The first word of the slice result is potentially a partial\\n                // word read from the original array. To read it, we calculate\\n                // the length of that partial word and start copying that many\\n                // bytes into the array. The first word we copy will start with\\n                // data we don't care about, but the last `lengthmod` bytes will\\n                // land at the beginning of the contents of the new array. When\\n                // we're done copying, we overwrite the full first word with\\n                // the actual length of the slice.\\n                let lengthmod := and(_length, 31)\\n\\n                // The multiplication in the next line is necessary\\n                // because when slicing multiples of 32 bytes (lengthmod == 0)\\n                // the following copy loop was copying the origin's length\\n                // and then ending prematurely not copying everything it should.\\n                let mc := add(add(tempBytes, lengthmod), mul(0x20, iszero(lengthmod)))\\n                let end := add(mc, _length)\\n\\n                for {\\n                    // The multiplication in the next line has the same exact purpose\\n                    // as the one above.\\n                    let cc := add(add(add(_bytes, lengthmod), mul(0x20, iszero(lengthmod))), _start)\\n                } lt(mc, end) {\\n                    mc := add(mc, 0x20)\\n                    cc := add(cc, 0x20)\\n                } {\\n                    mstore(mc, mload(cc))\\n                }\\n\\n                mstore(tempBytes, _length)\\n\\n                //update free-memory pointer\\n                //allocating the array padded to 32 bytes like the compiler does now\\n                mstore(0x40, and(add(mc, 31), not(31)))\\n            }\\n            //if we want a zero-length slice let's just return a zero-length array\\n            default {\\n                tempBytes := mload(0x40)\\n                //zero out the 32 bytes slice we are about to return\\n                //we need to do it because Solidity does not garbage collect\\n                mstore(tempBytes, 0)\\n\\n                mstore(0x40, add(tempBytes, 0x20))\\n            }\\n        }\\n\\n        return tempBytes;\\n    }\\n\\n    function toAddress(bytes memory _bytes, uint256 _start) internal pure returns (address) {\\n        require(_bytes.length >= _start + 20, \\\"toAddress_outOfBounds\\\");\\n        address tempAddress;\\n\\n        assembly {\\n            tempAddress := div(mload(add(add(_bytes, 0x20), _start)), 0x1000000000000000000000000)\\n        }\\n\\n        return tempAddress;\\n    }\\n\\n    function toUint8(bytes memory _bytes, uint256 _start) internal pure returns (uint8) {\\n        require(_bytes.length >= _start + 1 , \\\"toUint8_outOfBounds\\\");\\n        uint8 tempUint;\\n\\n        assembly {\\n            tempUint := mload(add(add(_bytes, 0x1), _start))\\n        }\\n\\n        return tempUint;\\n    }\\n\\n    function toUint16(bytes memory _bytes, uint256 _start) internal pure returns (uint16) {\\n        require(_bytes.length >= _start + 2, \\\"toUint16_outOfBounds\\\");\\n        uint16 tempUint;\\n\\n        assembly {\\n            tempUint := mload(add(add(_bytes, 0x2), _start))\\n        }\\n\\n        return tempUint;\\n    }\\n\\n    function toUint32(bytes memory _bytes, uint256 _start) internal pure returns (uint32) {\\n        require(_bytes.length >= _start + 4, \\\"toUint32_outOfBounds\\\");\\n        uint32 tempUint;\\n\\n        assembly {\\n            tempUint := mload(add(add(_bytes, 0x4), _start))\\n        }\\n\\n        return tempUint;\\n    }\\n\\n    function toUint64(bytes memory _bytes, uint256 _start) internal pure returns (uint64) {\\n        require(_bytes.length >= _start + 8, \\\"toUint64_outOfBounds\\\");\\n        uint64 tempUint;\\n\\n        assembly {\\n            tempUint := mload(add(add(_bytes, 0x8), _start))\\n        }\\n\\n        return tempUint;\\n    }\\n\\n    function toUint96(bytes memory _bytes, uint256 _start) internal pure returns (uint96) {\\n        require(_bytes.length >= _start + 12, \\\"toUint96_outOfBounds\\\");\\n        uint96 tempUint;\\n\\n        assembly {\\n            tempUint := mload(add(add(_bytes, 0xc), _start))\\n        }\\n\\n        return tempUint;\\n    }\\n\\n    function toUint128(bytes memory _bytes, uint256 _start) internal pure returns (uint128) {\\n        require(_bytes.length >= _start + 16, \\\"toUint128_outOfBounds\\\");\\n        uint128 tempUint;\\n\\n        assembly {\\n            tempUint := mload(add(add(_bytes, 0x10), _start))\\n        }\\n\\n        return tempUint;\\n    }\\n\\n    function toUint256(bytes memory _bytes, uint256 _start) internal pure returns (uint256) {\\n        require(_bytes.length >= _start + 32, \\\"toUint256_outOfBounds\\\");\\n        uint256 tempUint;\\n\\n        assembly {\\n            tempUint := mload(add(add(_bytes, 0x20), _start))\\n        }\\n\\n        return tempUint;\\n    }\\n\\n    function toBytes32(bytes memory _bytes, uint256 _start) internal pure returns (bytes32) {\\n        require(_bytes.length >= _start + 32, \\\"toBytes32_outOfBounds\\\");\\n        bytes32 tempBytes32;\\n\\n        assembly {\\n            tempBytes32 := mload(add(add(_bytes, 0x20), _start))\\n        }\\n\\n        return tempBytes32;\\n    }\\n\\n    function equal(bytes memory _preBytes, bytes memory _postBytes) internal pure returns (bool) {\\n        bool success = true;\\n\\n        assembly {\\n            let length := mload(_preBytes)\\n\\n            // if lengths don't match the arrays are not equal\\n            switch eq(length, mload(_postBytes))\\n            case 1 {\\n                // cb is a circuit breaker in the for loop since there's\\n                //  no said feature for inline assembly loops\\n                // cb = 1 - don't breaker\\n                // cb = 0 - break\\n                let cb := 1\\n\\n                let mc := add(_preBytes, 0x20)\\n                let end := add(mc, length)\\n\\n                for {\\n                    let cc := add(_postBytes, 0x20)\\n                // the next line is the loop condition:\\n                // while(uint256(mc < end) + cb == 2)\\n                } eq(add(lt(mc, end), cb), 2) {\\n                    mc := add(mc, 0x20)\\n                    cc := add(cc, 0x20)\\n                } {\\n                    // if any of these checks fails then arrays are not equal\\n                    if iszero(eq(mload(mc), mload(cc))) {\\n                        // unsuccess:\\n                        success := 0\\n                        cb := 0\\n                    }\\n                }\\n            }\\n            default {\\n                // unsuccess:\\n                success := 0\\n            }\\n        }\\n\\n        return success;\\n    }\\n\\n    function equalStorage(\\n        bytes storage _preBytes,\\n        bytes memory _postBytes\\n    )\\n        internal\\n        view\\n        returns (bool)\\n    {\\n        bool success = true;\\n\\n        assembly {\\n            // we know _preBytes_offset is 0\\n            let fslot := sload(_preBytes.slot)\\n            // Decode the length of the stored array like in concatStorage().\\n            let slength := div(and(fslot, sub(mul(0x100, iszero(and(fslot, 1))), 1)), 2)\\n            let mlength := mload(_postBytes)\\n\\n            // if lengths don't match the arrays are not equal\\n            switch eq(slength, mlength)\\n            case 1 {\\n                // slength can contain both the length and contents of the array\\n                // if length < 32 bytes so let's prepare for that\\n                // v. http://solidity.readthedocs.io/en/latest/miscellaneous.html#layout-of-state-variables-in-storage\\n                if iszero(iszero(slength)) {\\n                    switch lt(slength, 32)\\n                    case 1 {\\n                        // blank the last byte which is the length\\n                        fslot := mul(div(fslot, 0x100), 0x100)\\n\\n                        if iszero(eq(fslot, mload(add(_postBytes, 0x20)))) {\\n                            // unsuccess:\\n                            success := 0\\n                        }\\n                    }\\n                    default {\\n                        // cb is a circuit breaker in the for loop since there's\\n                        //  no said feature for inline assembly loops\\n                        // cb = 1 - don't breaker\\n                        // cb = 0 - break\\n                        let cb := 1\\n\\n                        // get the keccak hash to get the contents of the array\\n                        mstore(0x0, _preBytes.slot)\\n                        let sc := keccak256(0x0, 0x20)\\n\\n                        let mc := add(_postBytes, 0x20)\\n                        let end := add(mc, mlength)\\n\\n                        // the next line is the loop condition:\\n                        // while(uint256(mc < end) + cb == 2)\\n                        for {} eq(add(lt(mc, end), cb), 2) {\\n                            sc := add(sc, 1)\\n                            mc := add(mc, 0x20)\\n                        } {\\n                            if iszero(eq(sload(sc), mload(mc))) {\\n                                // unsuccess:\\n                                success := 0\\n                                cb := 0\\n                            }\\n                        }\\n                    }\\n                }\\n            }\\n            default {\\n                // unsuccess:\\n                success := 0\\n            }\\n        }\\n\\n        return success;\\n    }\\n}\\n\"},\"@openzeppelin/contracts/utils/introspection/IERC165.sol\":{\"content\":\"// SPDX-License-Identifier: MIT\\n// OpenZeppelin Contracts (last updated v5.1.0) (utils/introspection/IERC165.sol)\\n\\npragma solidity ^0.8.20;\\n\\n/**\\n * @dev Interface of the ERC-165 standard, as defined in the\\n * https://eips.ethereum.org/EIPS/eip-165[ERC].\\n *\\n * Implementers can declare support of contract interfaces, which can then be\\n * queried by others ({ERC165Checker}).\\n *\\n * For an implementation, see {ERC165}.\\n */\\ninterface IERC165 {\\n    /**\\n     * @dev Returns true if this contract implements the interface defined by\\n     * `interfaceId`. See the corresponding\\n     * https://eips.ethereum.org/EIPS/eip-165#how-interfaces-are-identified[ERC section]\\n     * to learn more about how these ids are created.\\n     *\\n     * This function call must use less than 30 000 gas.\\n     */\\n    function supportsInterface(bytes4 interfaceId) external view returns (bool);\\n}\\n\"},\"@openzeppelin/contracts/utils/math/Math.sol\":{\"content\":\"// SPDX-License-Identifier: MIT\\n// OpenZeppelin Contracts (last updated v5.3.0) (utils/math/Math.sol)\\n\\npragma solidity ^0.8.20;\\n\\nimport {Panic} from \\\"../Panic.sol\\\";\\nimport {SafeCast} from \\\"./SafeCast.sol\\\";\\n\\n/**\\n * @dev Standard math utilities missing in the Solidity language.\\n */\\nlibrary Math {\\n    enum Rounding {\\n        Floor, // Toward negative infinity\\n        Ceil, // Toward positive infinity\\n        Trunc, // Toward zero\\n        Expand // Away from zero\\n    }\\n\\n    /**\\n     * @dev Return the 512-bit addition of two uint256.\\n     *\\n     * The result is stored in two 256 variables such that sum = high * 2²⁵⁶ + low.\\n     */\\n    function add512(uint256 a, uint256 b) internal pure returns (uint256 high, uint256 low) {\\n        assembly (\\\"memory-safe\\\") {\\n            low := add(a, b)\\n            high := lt(low, a)\\n        }\\n    }\\n\\n    /**\\n     * @dev Return the 512-bit multiplication of two uint256.\\n     *\\n     * The result is stored in two 256 variables such that product = high * 2²⁵⁶ + low.\\n     */\\n    function mul512(uint256 a, uint256 b) internal pure returns (uint256 high, uint256 low) {\\n        // 512-bit multiply [high low] = x * y. Compute the product mod 2²⁵⁶ and mod 2²⁵⁶ - 1, then use\\n        // the Chinese Remainder Theorem to reconstruct the 512 bit result. The result is stored in two 256\\n        // variables such that product = high * 2²⁵⁶ + low.\\n        assembly (\\\"memory-safe\\\") {\\n            let mm := mulmod(a, b, not(0))\\n            low := mul(a, b)\\n            high := sub(sub(mm, low), lt(mm, low))\\n        }\\n    }\\n\\n    /**\\n     * @dev Returns the addition of two unsigned integers, with a success flag (no overflow).\\n     */\\n    function tryAdd(uint256 a, uint256 b) internal pure returns (bool success, uint256 result) {\\n        unchecked {\\n            uint256 c = a + b;\\n            success = c >= a;\\n            result = c * SafeCast.toUint(success);\\n        }\\n    }\\n\\n    /**\\n     * @dev Returns the subtraction of two unsigned integers, with a success flag (no overflow).\\n     */\\n    function trySub(uint256 a, uint256 b) internal pure returns (bool success, uint256 result) {\\n        unchecked {\\n            uint256 c = a - b;\\n            success = c <= a;\\n            result = c * SafeCast.toUint(success);\\n        }\\n    }\\n\\n    /**\\n     * @dev Returns the multiplication of two unsigned integers, with a success flag (no overflow).\\n     */\\n    function tryMul(uint256 a, uint256 b) internal pure returns (bool success, uint256 result) {\\n        unchecked {\\n            uint256 c = a * b;\\n            assembly (\\\"memory-safe\\\") {\\n                // Only true when the multiplication doesn't overflow\\n                // (c / a == b) || (a == 0)\\n                success := or(eq(div(c, a), b), iszero(a))\\n            }\\n            // equivalent to: success ? c : 0\\n            result = c * SafeCast.toUint(success);\\n        }\\n    }\\n\\n    /**\\n     * @dev Returns the division of two unsigned integers, with a success flag (no division by zero).\\n     */\\n    function tryDiv(uint256 a, uint256 b) internal pure returns (bool success, uint256 result) {\\n        unchecked {\\n            success = b > 0;\\n            assembly (\\\"memory-safe\\\") {\\n                // The `DIV` opcode returns zero when the denominator is 0.\\n                result := div(a, b)\\n            }\\n        }\\n    }\\n\\n    /**\\n     * @dev Returns the remainder of dividing two unsigned integers, with a success flag (no division by zero).\\n     */\\n    function tryMod(uint256 a, uint256 b) internal pure returns (bool success, uint256 result) {\\n        unchecked {\\n            success = b > 0;\\n            assembly (\\\"memory-safe\\\") {\\n                // The `MOD` opcode returns zero when the denominator is 0.\\n                result := mod(a, b)\\n            }\\n        }\\n    }\\n\\n    /**\\n     * @dev Unsigned saturating addition, bounds to `2²⁵⁶ - 1` instead of overflowing.\\n     */\\n    function saturatingAdd(uint256 a, uint256 b) internal pure returns (uint256) {\\n        (bool success, uint256 result) = tryAdd(a, b);\\n        return ternary(success, result, type(uint256).max);\\n    }\\n\\n    /**\\n     * @dev Unsigned saturating subtraction, bounds to zero instead of overflowing.\\n     */\\n    function saturatingSub(uint256 a, uint256 b) internal pure returns (uint256) {\\n        (, uint256 result) = trySub(a, b);\\n        return result;\\n    }\\n\\n    /**\\n     * @dev Unsigned saturating multiplication, bounds to `2²⁵⁶ - 1` instead of overflowing.\\n     */\\n    function saturatingMul(uint256 a, uint256 b) internal pure returns (uint256) {\\n        (bool success, uint256 result) = tryMul(a, b);\\n        return ternary(success, result, type(uint256).max);\\n    }\\n\\n    /**\\n     * @dev Branchless ternary evaluation for `a ? b : c`. Gas costs are constant.\\n     *\\n     * IMPORTANT: This function may reduce bytecode size and consume less gas when used standalone.\\n     * However, the compiler may optimize Solidity ternary operations (i.e. `a ? b : c`) to only compute\\n     * one branch when needed, making this function more expensive.\\n     */\\n    function ternary(bool condition, uint256 a, uint256 b) internal pure returns (uint256) {\\n        unchecked {\\n            // branchless ternary works because:\\n            // b ^ (a ^ b) == a\\n            // b ^ 0 == b\\n            return b ^ ((a ^ b) * SafeCast.toUint(condition));\\n        }\\n    }\\n\\n    /**\\n     * @dev Returns the largest of two numbers.\\n     */\\n    function max(uint256 a, uint256 b) internal pure returns (uint256) {\\n        return ternary(a > b, a, b);\\n    }\\n\\n    /**\\n     * @dev Returns the smallest of two numbers.\\n     */\\n    function min(uint256 a, uint256 b) internal pure returns (uint256) {\\n        return ternary(a < b, a, b);\\n    }\\n\\n    /**\\n     * @dev Returns the average of two numbers. The result is rounded towards\\n     * zero.\\n     */\\n    function average(uint256 a, uint256 b) internal pure returns (uint256) {\\n        // (a + b) / 2 can overflow.\\n        return (a & b) + (a ^ b) / 2;\\n    }\\n\\n    /**\\n     * @dev Returns the ceiling of the division of two numbers.\\n     *\\n     * This differs from standard division with `/` in that it rounds towards infinity instead\\n     * of rounding towards zero.\\n     */\\n    function ceilDiv(uint256 a, uint256 b) internal pure returns (uint256) {\\n        if (b == 0) {\\n            // Guarantee the same behavior as in a regular Solidity division.\\n            Panic.panic(Panic.DIVISION_BY_ZERO);\\n        }\\n\\n        // The following calculation ensures accurate ceiling division without overflow.\\n        // Since a is non-zero, (a - 1) / b will not overflow.\\n        // The largest possible result occurs when (a - 1) / b is type(uint256).max,\\n        // but the largest value we can obtain is type(uint256).max - 1, which happens\\n        // when a = type(uint256).max and b = 1.\\n        unchecked {\\n            return SafeCast.toUint(a > 0) * ((a - 1) / b + 1);\\n        }\\n    }\\n\\n    /**\\n     * @dev Calculates floor(x * y / denominator) with full precision. Throws if result overflows a uint256 or\\n     * denominator == 0.\\n     *\\n     * Original credit to Remco Bloemen under MIT license (https://xn--2-umb.com/21/muldiv) with further edits by\\n     * Uniswap Labs also under MIT license.\\n     */\\n    function mulDiv(uint256 x, uint256 y, uint256 denominator) internal pure returns (uint256 result) {\\n        unchecked {\\n            (uint256 high, uint256 low) = mul512(x, y);\\n\\n            // Handle non-overflow cases, 256 by 256 division.\\n            if (high == 0) {\\n                // Solidity will revert if denominator == 0, unlike the div opcode on its own.\\n                // The surrounding unchecked block does not change this fact.\\n                // See https://docs.soliditylang.org/en/latest/control-structures.html#checked-or-unchecked-arithmetic.\\n                return low / denominator;\\n            }\\n\\n            // Make sure the result is less than 2²⁵⁶. Also prevents denominator == 0.\\n            if (denominator <= high) {\\n                Panic.panic(ternary(denominator == 0, Panic.DIVISION_BY_ZERO, Panic.UNDER_OVERFLOW));\\n            }\\n\\n            ///////////////////////////////////////////////\\n            // 512 by 256 division.\\n            ///////////////////////////////////////////////\\n\\n            // Make division exact by subtracting the remainder from [high low].\\n            uint256 remainder;\\n            assembly (\\\"memory-safe\\\") {\\n                // Compute remainder using mulmod.\\n                remainder := mulmod(x, y, denominator)\\n\\n                // Subtract 256 bit number from 512 bit number.\\n                high := sub(high, gt(remainder, low))\\n                low := sub(low, remainder)\\n            }\\n\\n            // Factor powers of two out of denominator and compute largest power of two divisor of denominator.\\n            // Always >= 1. See https://cs.stackexchange.com/q/138556/92363.\\n\\n            uint256 twos = denominator & (0 - denominator);\\n            assembly (\\\"memory-safe\\\") {\\n                // Divide denominator by twos.\\n                denominator := div(denominator, twos)\\n\\n                // Divide [high low] by twos.\\n                low := div(low, twos)\\n\\n                // Flip twos such that it is 2²⁵⁶ / twos. If twos is zero, then it becomes one.\\n                twos := add(div(sub(0, twos), twos), 1)\\n            }\\n\\n            // Shift in bits from high into low.\\n            low |= high * twos;\\n\\n            // Invert denominator mod 2²⁵⁶. Now that denominator is an odd number, it has an inverse modulo 2²⁵⁶ such\\n            // that denominator * inv ≡ 1 mod 2²⁵⁶. Compute the inverse by starting with a seed that is correct for\\n            // four bits. That is, denominator * inv ≡ 1 mod 2⁴.\\n            uint256 inverse = (3 * denominator) ^ 2;\\n\\n            // Use the Newton-Raphson iteration to improve the precision. Thanks to Hensel's lifting lemma, this also\\n            // works in modular arithmetic, doubling the correct bits in each step.\\n            inverse *= 2 - denominator * inverse; // inverse mod 2⁸\\n            inverse *= 2 - denominator * inverse; // inverse mod 2¹⁶\\n            inverse *= 2 - denominator * inverse; // inverse mod 2³²\\n            inverse *= 2 - denominator * inverse; // inverse mod 2⁶⁴\\n            inverse *= 2 - denominator * inverse; // inverse mod 2¹²⁸\\n            inverse *= 2 - denominator * inverse; // inverse mod 2²⁵⁶\\n\\n            // Because the division is now exact we can divide by multiplying with the modular inverse of denominator.\\n            // This will give us the correct result modulo 2²⁵⁶. Since the preconditions guarantee that the outcome is\\n            // less than 2²⁵⁶, this is the final result. We don't need to compute the high bits of the result and high\\n            // is no longer required.\\n            result = low * inverse;\\n            return result;\\n        }\\n    }\\n\\n    /**\\n     * @dev Calculates x * y / denominator with full precision, following the selected rounding direction.\\n     */\\n    function mulDiv(uint256 x, uint256 y, uint256 denominator, Rounding rounding) internal pure returns (uint256) {\\n        return mulDiv(x, y, denominator) + SafeCast.toUint(unsignedRoundsUp(rounding) && mulmod(x, y, denominator) > 0);\\n    }\\n\\n    /**\\n     * @dev Calculates floor(x * y >> n) with full precision. Throws if result overflows a uint256.\\n     */\\n    function mulShr(uint256 x, uint256 y, uint8 n) internal pure returns (uint256 result) {\\n        unchecked {\\n            (uint256 high, uint256 low) = mul512(x, y);\\n            if (high >= 1 << n) {\\n                Panic.panic(Panic.UNDER_OVERFLOW);\\n            }\\n            return (high << (256 - n)) | (low >> n);\\n        }\\n    }\\n\\n    /**\\n     * @dev Calculates x * y >> n with full precision, following the selected rounding direction.\\n     */\\n    function mulShr(uint256 x, uint256 y, uint8 n, Rounding rounding) internal pure returns (uint256) {\\n        return mulShr(x, y, n) + SafeCast.toUint(unsignedRoundsUp(rounding) && mulmod(x, y, 1 << n) > 0);\\n    }\\n\\n    /**\\n     * @dev Calculate the modular multiplicative inverse of a number in Z/nZ.\\n     *\\n     * If n is a prime, then Z/nZ is a field. In that case all elements are inversible, except 0.\\n     * If n is not a prime, then Z/nZ is not a field, and some elements might not be inversible.\\n     *\\n     * If the input value is not inversible, 0 is returned.\\n     *\\n     * NOTE: If you know for sure that n is (big) a prime, it may be cheaper to use Fermat's little theorem and get the\\n     * inverse using `Math.modExp(a, n - 2, n)`. See {invModPrime}.\\n     */\\n    function invMod(uint256 a, uint256 n) internal pure returns (uint256) {\\n        unchecked {\\n            if (n == 0) return 0;\\n\\n            // The inverse modulo is calculated using the Extended Euclidean Algorithm (iterative version)\\n            // Used to compute integers x and y such that: ax + ny = gcd(a, n).\\n            // When the gcd is 1, then the inverse of a modulo n exists and it's x.\\n            // ax + ny = 1\\n            // ax = 1 + (-y)n\\n            // ax ≡ 1 (mod n) # x is the inverse of a modulo n\\n\\n            // If the remainder is 0 the gcd is n right away.\\n            uint256 remainder = a % n;\\n            uint256 gcd = n;\\n\\n            // Therefore the initial coefficients are:\\n            // ax + ny = gcd(a, n) = n\\n            // 0a + 1n = n\\n            int256 x = 0;\\n            int256 y = 1;\\n\\n            while (remainder != 0) {\\n                uint256 quotient = gcd / remainder;\\n\\n                (gcd, remainder) = (\\n                    // The old remainder is the next gcd to try.\\n                    remainder,\\n                    // Compute the next remainder.\\n                    // Can't overflow given that (a % gcd) * (gcd // (a % gcd)) <= gcd\\n                    // where gcd is at most n (capped to type(uint256).max)\\n                    gcd - remainder * quotient\\n                );\\n\\n                (x, y) = (\\n                    // Increment the coefficient of a.\\n                    y,\\n                    // Decrement the coefficient of n.\\n                    // Can overflow, but the result is casted to uint256 so that the\\n                    // next value of y is \\\"wrapped around\\\" to a value between 0 and n - 1.\\n                    x - y * int256(quotient)\\n                );\\n            }\\n\\n            if (gcd != 1) return 0; // No inverse exists.\\n            return ternary(x < 0, n - uint256(-x), uint256(x)); // Wrap the result if it's negative.\\n        }\\n    }\\n\\n    /**\\n     * @dev Variant of {invMod}. More efficient, but only works if `p` is known to be a prime greater than `2`.\\n     *\\n     * From https://en.wikipedia.org/wiki/Fermat%27s_little_theorem[Fermat's little theorem], we know that if p is\\n     * prime, then `a**(p-1) ≡ 1 mod p`. As a consequence, we have `a * a**(p-2) ≡ 1 mod p`, which means that\\n     * `a**(p-2)` is the modular multiplicative inverse of a in Fp.\\n     *\\n     * NOTE: this function does NOT check that `p` is a prime greater than `2`.\\n     */\\n    function invModPrime(uint256 a, uint256 p) internal view returns (uint256) {\\n        unchecked {\\n            return Math.modExp(a, p - 2, p);\\n        }\\n    }\\n\\n    /**\\n     * @dev Returns the modular exponentiation of the specified base, exponent and modulus (b ** e % m)\\n     *\\n     * Requirements:\\n     * - modulus can't be zero\\n     * - underlying staticcall to precompile must succeed\\n     *\\n     * IMPORTANT: The result is only valid if the underlying call succeeds. When using this function, make\\n     * sure the chain you're using it on supports the precompiled contract for modular exponentiation\\n     * at address 0x05 as specified in https://eips.ethereum.org/EIPS/eip-198[EIP-198]. Otherwise,\\n     * the underlying function will succeed given the lack of a revert, but the result may be incorrectly\\n     * interpreted as 0.\\n     */\\n    function modExp(uint256 b, uint256 e, uint256 m) internal view returns (uint256) {\\n        (bool success, uint256 result) = tryModExp(b, e, m);\\n        if (!success) {\\n            Panic.panic(Panic.DIVISION_BY_ZERO);\\n        }\\n        return result;\\n    }\\n\\n    /**\\n     * @dev Returns the modular exponentiation of the specified base, exponent and modulus (b ** e % m).\\n     * It includes a success flag indicating if the operation succeeded. Operation will be marked as failed if trying\\n     * to operate modulo 0 or if the underlying precompile reverted.\\n     *\\n     * IMPORTANT: The result is only valid if the success flag is true. When using this function, make sure the chain\\n     * you're using it on supports the precompiled contract for modular exponentiation at address 0x05 as specified in\\n     * https://eips.ethereum.org/EIPS/eip-198[EIP-198]. Otherwise, the underlying function will succeed given the lack\\n     * of a revert, but the result may be incorrectly interpreted as 0.\\n     */\\n    function tryModExp(uint256 b, uint256 e, uint256 m) internal view returns (bool success, uint256 result) {\\n        if (m == 0) return (false, 0);\\n        assembly (\\\"memory-safe\\\") {\\n            let ptr := mload(0x40)\\n            // | Offset    | Content    | Content (Hex)                                                      |\\n            // |-----------|------------|--------------------------------------------------------------------|\\n            // | 0x00:0x1f | size of b  | 0x0000000000000000000000000000000000000000000000000000000000000020 |\\n            // | 0x20:0x3f | size of e  | 0x0000000000000000000000000000000000000000000000000000000000000020 |\\n            // | 0x40:0x5f | size of m  | 0x0000000000000000000000000000000000000000000000000000000000000020 |\\n            // | 0x60:0x7f | value of b | 0x<.............................................................b> |\\n            // | 0x80:0x9f | value of e | 0x<.............................................................e> |\\n            // | 0xa0:0xbf | value of m | 0x<.............................................................m> |\\n            mstore(ptr, 0x20)\\n            mstore(add(ptr, 0x20), 0x20)\\n            mstore(add(ptr, 0x40), 0x20)\\n            mstore(add(ptr, 0x60), b)\\n            mstore(add(ptr, 0x80), e)\\n            mstore(add(ptr, 0xa0), m)\\n\\n            // Given the result < m, it's guaranteed to fit in 32 bytes,\\n            // so we can use the memory scratch space located at offset 0.\\n            success := staticcall(gas(), 0x05, ptr, 0xc0, 0x00, 0x20)\\n            result := mload(0x00)\\n        }\\n    }\\n\\n    /**\\n     * @dev Variant of {modExp} that supports inputs of arbitrary length.\\n     */\\n    function modExp(bytes memory b, bytes memory e, bytes memory m) internal view returns (bytes memory) {\\n        (bool success, bytes memory result) = tryModExp(b, e, m);\\n        if (!success) {\\n            Panic.panic(Panic.DIVISION_BY_ZERO);\\n        }\\n        return result;\\n    }\\n\\n    /**\\n     * @dev Variant of {tryModExp} that supports inputs of arbitrary length.\\n     */\\n    function tryModExp(\\n        bytes memory b,\\n        bytes memory e,\\n        bytes memory m\\n    ) internal view returns (bool success, bytes memory result) {\\n        if (_zeroBytes(m)) return (false, new bytes(0));\\n\\n        uint256 mLen = m.length;\\n\\n        // Encode call args in result and move the free memory pointer\\n        result = abi.encodePacked(b.length, e.length, mLen, b, e, m);\\n\\n        assembly (\\\"memory-safe\\\") {\\n            let dataPtr := add(result, 0x20)\\n            // Write result on top of args to avoid allocating extra memory.\\n            success := staticcall(gas(), 0x05, dataPtr, mload(result), dataPtr, mLen)\\n            // Overwrite the length.\\n            // result.length > returndatasize() is guaranteed because returndatasize() == m.length\\n            mstore(result, mLen)\\n            // Set the memory pointer after the returned data.\\n            mstore(0x40, add(dataPtr, mLen))\\n        }\\n    }\\n\\n    /**\\n     * @dev Returns whether the provided byte array is zero.\\n     */\\n    function _zeroBytes(bytes memory byteArray) private pure returns (bool) {\\n        for (uint256 i = 0; i < byteArray.length; ++i) {\\n            if (byteArray[i] != 0) {\\n                return false;\\n            }\\n        }\\n        return true;\\n    }\\n\\n    /**\\n     * @dev Returns the square root of a number. If the number is not a perfect square, the value is rounded\\n     * towards zero.\\n     *\\n     * This method is based on Newton's method for computing square roots; the algorithm is restricted to only\\n     * using integer operations.\\n     */\\n    function sqrt(uint256 a) internal pure returns (uint256) {\\n        unchecked {\\n            // Take care of easy edge cases when a == 0 or a == 1\\n            if (a <= 1) {\\n                return a;\\n            }\\n\\n            // In this function, we use Newton's method to get a root of `f(x) := x² - a`. It involves building a\\n            // sequence x_n that converges toward sqrt(a). For each iteration x_n, we also define the error between\\n            // the current value as `ε_n = | x_n - sqrt(a) |`.\\n            //\\n            // For our first estimation, we consider `e` the smallest power of 2 which is bigger than the square root\\n            // of the target. (i.e. `2**(e-1) ≤ sqrt(a) < 2**e`). We know that `e ≤ 128` because `(2¹²⁸)² = 2²⁵⁶` is\\n            // bigger than any uint256.\\n            //\\n            // By noticing that\\n            // `2**(e-1) ≤ sqrt(a) < 2**e → (2**(e-1))² ≤ a < (2**e)² → 2**(2*e-2) ≤ a < 2**(2*e)`\\n            // we can deduce that `e - 1` is `log2(a) / 2`. We can thus compute `x_n = 2**(e-1)` using a method similar\\n            // to the msb function.\\n            uint256 aa = a;\\n            uint256 xn = 1;\\n\\n            if (aa >= (1 << 128)) {\\n                aa >>= 128;\\n                xn <<= 64;\\n            }\\n            if (aa >= (1 << 64)) {\\n                aa >>= 64;\\n                xn <<= 32;\\n            }\\n            if (aa >= (1 << 32)) {\\n                aa >>= 32;\\n                xn <<= 16;\\n            }\\n            if (aa >= (1 << 16)) {\\n                aa >>= 16;\\n                xn <<= 8;\\n            }\\n            if (aa >= (1 << 8)) {\\n                aa >>= 8;\\n                xn <<= 4;\\n            }\\n            if (aa >= (1 << 4)) {\\n                aa >>= 4;\\n                xn <<= 2;\\n            }\\n            if (aa >= (1 << 2)) {\\n                xn <<= 1;\\n            }\\n\\n            // We now have x_n such that `x_n = 2**(e-1) ≤ sqrt(a) < 2**e = 2 * x_n`. This implies ε_n ≤ 2**(e-1).\\n            //\\n            // We can refine our estimation by noticing that the middle of that interval minimizes the error.\\n            // If we move x_n to equal 2**(e-1) + 2**(e-2), then we reduce the error to ε_n ≤ 2**(e-2).\\n            // This is going to be our x_0 (and ε_0)\\n            xn = (3 * xn) >> 1; // ε_0 := | x_0 - sqrt(a) | ≤ 2**(e-2)\\n\\n            // From here, Newton's method give us:\\n            // x_{n+1} = (x_n + a / x_n) / 2\\n            //\\n            // One should note that:\\n            // x_{n+1}² - a = ((x_n + a / x_n) / 2)² - a\\n            //              = ((x_n² + a) / (2 * x_n))² - a\\n            //              = (x_n⁴ + 2 * a * x_n² + a²) / (4 * x_n²) - a\\n            //              = (x_n⁴ + 2 * a * x_n² + a² - 4 * a * x_n²) / (4 * x_n²)\\n            //              = (x_n⁴ - 2 * a * x_n² + a²) / (4 * x_n²)\\n            //              = (x_n² - a)² / (2 * x_n)²\\n            //              = ((x_n² - a) / (2 * x_n))²\\n            //              ≥ 0\\n            // Which proves that for all n ≥ 1, sqrt(a) ≤ x_n\\n            //\\n            // This gives us the proof of quadratic convergence of the sequence:\\n            // ε_{n+1} = | x_{n+1} - sqrt(a) |\\n            //         = | (x_n + a / x_n) / 2 - sqrt(a) |\\n            //         = | (x_n² + a - 2*x_n*sqrt(a)) / (2 * x_n) |\\n            //         = | (x_n - sqrt(a))² / (2 * x_n) |\\n            //         = | ε_n² / (2 * x_n) |\\n            //         = ε_n² / | (2 * x_n) |\\n            //\\n            // For the first iteration, we have a special case where x_0 is known:\\n            // ε_1 = ε_0² / | (2 * x_0) |\\n            //     ≤ (2**(e-2))² / (2 * (2**(e-1) + 2**(e-2)))\\n            //     ≤ 2**(2*e-4) / (3 * 2**(e-1))\\n            //     ≤ 2**(e-3) / 3\\n            //     ≤ 2**(e-3-log2(3))\\n            //     ≤ 2**(e-4.5)\\n            //\\n            // For the following iterations, we use the fact that, 2**(e-1) ≤ sqrt(a) ≤ x_n:\\n            // ε_{n+1} = ε_n² / | (2 * x_n) |\\n            //         ≤ (2**(e-k))² / (2 * 2**(e-1))\\n            //         ≤ 2**(2*e-2*k) / 2**e\\n            //         ≤ 2**(e-2*k)\\n            xn = (xn + a / xn) >> 1; // ε_1 := | x_1 - sqrt(a) | ≤ 2**(e-4.5)  -- special case, see above\\n            xn = (xn + a / xn) >> 1; // ε_2 := | x_2 - sqrt(a) | ≤ 2**(e-9)    -- general case with k = 4.5\\n            xn = (xn + a / xn) >> 1; // ε_3 := | x_3 - sqrt(a) | ≤ 2**(e-18)   -- general case with k = 9\\n            xn = (xn + a / xn) >> 1; // ε_4 := | x_4 - sqrt(a) | ≤ 2**(e-36)   -- general case with k = 18\\n            xn = (xn + a / xn) >> 1; // ε_5 := | x_5 - sqrt(a) | ≤ 2**(e-72)   -- general case with k = 36\\n            xn = (xn + a / xn) >> 1; // ε_6 := | x_6 - sqrt(a) | ≤ 2**(e-144)  -- general case with k = 72\\n\\n            // Because e ≤ 128 (as discussed during the first estimation phase), we know have reached a precision\\n            // ε_6 ≤ 2**(e-144) < 1. Given we're operating on integers, then we can ensure that xn is now either\\n            // sqrt(a) or sqrt(a) + 1.\\n            return xn - SafeCast.toUint(xn > a / xn);\\n        }\\n    }\\n\\n    /**\\n     * @dev Calculates sqrt(a), following the selected rounding direction.\\n     */\\n    function sqrt(uint256 a, Rounding rounding) internal pure returns (uint256) {\\n        unchecked {\\n            uint256 result = sqrt(a);\\n            return result + SafeCast.toUint(unsignedRoundsUp(rounding) && result * result < a);\\n        }\\n    }\\n\\n    /**\\n     * @dev Return the log in base 2 of a positive value rounded towards zero.\\n     * Returns 0 if given 0.\\n     */\\n    function log2(uint256 x) internal pure returns (uint256 r) {\\n        // If value has upper 128 bits set, log2 result is at least 128\\n        r = SafeCast.toUint(x > 0xffffffffffffffffffffffffffffffff) << 7;\\n        // If upper 64 bits of 128-bit half set, add 64 to result\\n        r |= SafeCast.toUint((x >> r) > 0xffffffffffffffff) << 6;\\n        // If upper 32 bits of 64-bit half set, add 32 to result\\n        r |= SafeCast.toUint((x >> r) > 0xffffffff) << 5;\\n        // If upper 16 bits of 32-bit half set, add 16 to result\\n        r |= SafeCast.toUint((x >> r) > 0xffff) << 4;\\n        // If upper 8 bits of 16-bit half set, add 8 to result\\n        r |= SafeCast.toUint((x >> r) > 0xff) << 3;\\n        // If upper 4 bits of 8-bit half set, add 4 to result\\n        r |= SafeCast.toUint((x >> r) > 0xf) << 2;\\n\\n        // Shifts value right by the current result and use it as an index into this lookup table:\\n        //\\n        // | x (4 bits) |  index  | table[index] = MSB position |\\n        // |------------|---------|-----------------------------|\\n        // |    0000    |    0    |        table[0] = 0         |\\n        // |    0001    |    1    |        table[1] = 0         |\\n        // |    0010    |    2    |        table[2] = 1         |\\n        // |    0011    |    3    |        table[3] = 1         |\\n        // |    0100    |    4    |        table[4] = 2         |\\n        // |    0101    |    5    |        table[5] = 2         |\\n        // |    0110    |    6    |        table[6] = 2         |\\n        // |    0111    |    7    |        table[7] = 2         |\\n        // |    1000    |    8    |        table[8] = 3         |\\n        // |    1001    |    9    |        table[9] = 3         |\\n        // |    1010    |   10    |        table[10] = 3        |\\n        // |    1011    |   11    |        table[11] = 3        |\\n        // |    1100    |   12    |        table[12] = 3        |\\n        // |    1101    |   13    |        table[13] = 3        |\\n        // |    1110    |   14    |        table[14] = 3        |\\n        // |    1111    |   15    |        table[15] = 3        |\\n        //\\n        // The lookup table is represented as a 32-byte value with the MSB positions for 0-15 in the last 16 bytes.\\n        assembly (\\\"memory-safe\\\") {\\n            r := or(r, byte(shr(r, x), 0x0000010102020202030303030303030300000000000000000000000000000000))\\n        }\\n    }\\n\\n    /**\\n     * @dev Return the log in base 2, following the selected rounding direction, of a positive value.\\n     * Returns 0 if given 0.\\n     */\\n    function log2(uint256 value, Rounding rounding) internal pure returns (uint256) {\\n        unchecked {\\n            uint256 result = log2(value);\\n            return result + SafeCast.toUint(unsignedRoundsUp(rounding) && 1 << result < value);\\n        }\\n    }\\n\\n    /**\\n     * @dev Return the log in base 10 of a positive value rounded towards zero.\\n     * Returns 0 if given 0.\\n     */\\n    function log10(uint256 value) internal pure returns (uint256) {\\n        uint256 result = 0;\\n        unchecked {\\n            if (value >= 10 ** 64) {\\n                value /= 10 ** 64;\\n                result += 64;\\n            }\\n            if (value >= 10 ** 32) {\\n                value /= 10 ** 32;\\n                result += 32;\\n            }\\n            if (value >= 10 ** 16) {\\n                value /= 10 ** 16;\\n                result += 16;\\n            }\\n            if (value >= 10 ** 8) {\\n                value /= 10 ** 8;\\n                result += 8;\\n            }\\n            if (value >= 10 ** 4) {\\n                value /= 10 ** 4;\\n                result += 4;\\n            }\\n            if (value >= 10 ** 2) {\\n                value /= 10 ** 2;\\n                result += 2;\\n            }\\n            if (value >= 10 ** 1) {\\n                result += 1;\\n            }\\n        }\\n        return result;\\n    }\\n\\n    /**\\n     * @dev Return the log in base 10, following the selected rounding direction, of a positive value.\\n     * Returns 0 if given 0.\\n     */\\n    function log10(uint256 value, Rounding rounding) internal pure returns (uint256) {\\n        unchecked {\\n            uint256 result = log10(value);\\n            return result + SafeCast.toUint(unsignedRoundsUp(rounding) && 10 ** result < value);\\n        }\\n    }\\n\\n    /**\\n     * @dev Return the log in base 256 of a positive value rounded towards zero.\\n     * Returns 0 if given 0.\\n     *\\n     * Adding one to the result gives the number of pairs of hex symbols needed to represent `value` as a hex string.\\n     */\\n    function log256(uint256 x) internal pure returns (uint256 r) {\\n        // If value has upper 128 bits set, log2 result is at least 128\\n        r = SafeCast.toUint(x > 0xffffffffffffffffffffffffffffffff) << 7;\\n        // If upper 64 bits of 128-bit half set, add 64 to result\\n        r |= SafeCast.toUint((x >> r) > 0xffffffffffffffff) << 6;\\n        // If upper 32 bits of 64-bit half set, add 32 to result\\n        r |= SafeCast.toUint((x >> r) > 0xffffffff) << 5;\\n        // If upper 16 bits of 32-bit half set, add 16 to result\\n        r |= SafeCast.toUint((x >> r) > 0xffff) << 4;\\n        // Add 1 if upper 8 bits of 16-bit half set, and divide accumulated result by 8\\n        return (r >> 3) | SafeCast.toUint((x >> r) > 0xff);\\n    }\\n\\n    /**\\n     * @dev Return the log in base 256, following the selected rounding direction, of a positive value.\\n     * Returns 0 if given 0.\\n     */\\n    function log256(uint256 value, Rounding rounding) internal pure returns (uint256) {\\n        unchecked {\\n            uint256 result = log256(value);\\n            return result + SafeCast.toUint(unsignedRoundsUp(rounding) && 1 << (result << 3) < value);\\n        }\\n    }\\n\\n    /**\\n     * @dev Returns whether a provided rounding mode is considered rounding up for unsigned integers.\\n     */\\n    function unsignedRoundsUp(Rounding rounding) internal pure returns (bool) {\\n        return uint8(rounding) % 2 == 1;\\n    }\\n}\\n\"},\"@openzeppelin/contracts/utils/StorageSlot.sol\":{\"content\":\"// SPDX-License-Identifier: MIT\\n// OpenZeppelin Contracts (last updated v5.1.0) (utils/StorageSlot.sol)\\n// This file was procedurally generated from scripts/generate/templates/StorageSlot.js.\\n\\npragma solidity ^0.8.20;\\n\\n/**\\n * @dev Library for reading and writing primitive types to specific storage slots.\\n *\\n * Storage slots are often used to avoid storage conflict when dealing with upgradeable contracts.\\n * This library helps with reading and writing to such slots without the need for inline assembly.\\n *\\n * The functions in this library return Slot structs that contain a `value` member that can be used to read or write.\\n *\\n * Example usage to set ERC-1967 implementation slot:\\n * ```solidity\\n * contract ERC1967 {\\n *     // Define the slot. Alternatively, use the SlotDerivation library to derive the slot.\\n *     bytes32 internal constant _IMPLEMENTATION_SLOT = 0x360894a13ba1a3210667c828492db98dca3e2076cc3735a920a3ca505d382bbc;\\n *\\n *     function _getImplementation() internal view returns (address) {\\n *         return StorageSlot.getAddressSlot(_IMPLEMENTATION_SLOT).value;\\n *     }\\n *\\n *     function _setImplementation(address newImplementation) internal {\\n *         require(newImplementation.code.length > 0);\\n *         StorageSlot.getAddressSlot(_IMPLEMENTATION_SLOT).value = newImplementation;\\n *     }\\n * }\\n * ```\\n *\\n * TIP: Consider using this library along with {SlotDerivation}.\\n */\\nlibrary StorageSlot {\\n    struct AddressSlot {\\n        address value;\\n    }\\n\\n    struct BooleanSlot {\\n        bool value;\\n    }\\n\\n    struct Bytes32Slot {\\n        bytes32 value;\\n    }\\n\\n    struct Uint256Slot {\\n        uint256 value;\\n    }\\n\\n    struct Int256Slot {\\n        int256 value;\\n    }\\n\\n    struct StringSlot {\\n        string value;\\n    }\\n\\n    struct BytesSlot {\\n        bytes value;\\n    }\\n\\n    /**\\n     * @dev Returns an `AddressSlot` with member `value` located at `slot`.\\n     */\\n    function getAddressSlot(bytes32 slot) internal pure returns (AddressSlot storage r) {\\n        assembly (\\\"memory-safe\\\") {\\n            r.slot := slot\\n        }\\n    }\\n\\n    /**\\n     * @dev Returns a `BooleanSlot` with member `value` located at `slot`.\\n     */\\n    function getBooleanSlot(bytes32 slot) internal pure returns (BooleanSlot storage r) {\\n        assembly (\\\"memory-safe\\\") {\\n            r.slot := slot\\n        }\\n    }\\n\\n    /**\\n     * @dev Returns a `Bytes32Slot` with member `value` located at `slot`.\\n     */\\n    function getBytes32Slot(bytes32 slot) internal pure returns (Bytes32Slot storage r) {\\n        assembly (\\\"memory-safe\\\") {\\n            r.slot := slot\\n        }\\n    }\\n\\n    /**\\n     * @dev Returns a `Uint256Slot` with member `value` located at `slot`.\\n     */\\n    function getUint256Slot(bytes32 slot) internal pure returns (Uint256Slot storage r) {\\n        assembly (\\\"memory-safe\\\") {\\n            r.slot := slot\\n        }\\n    }\\n\\n    /**\\n     * @dev Returns a `Int256Slot` with member `value` located at `slot`.\\n     */\\n    function getInt256Slot(bytes32 slot) internal pure returns (Int256Slot storage r) {\\n        assembly (\\\"memory-safe\\\") {\\n            r.slot := slot\\n        }\\n    }\\n\\n    /**\\n     * @dev Returns a `StringSlot` with member `value` located at `slot`.\\n     */\\n    function getStringSlot(bytes32 slot) internal pure returns (StringSlot storage r) {\\n        assembly (\\\"memory-safe\\\") {\\n            r.slot := slot\\n        }\\n    }\\n\\n    /**\\n     * @dev Returns an `StringSlot` representation of the string storage pointer `store`.\\n     */\\n    function getStringSlot(string storage store) internal pure returns (StringSlot storage r) {\\n        assembly (\\\"memory-safe\\\") {\\n            r.slot := store.slot\\n        }\\n    }\\n\\n    /**\\n     * @dev Returns a `BytesSlot` with member `value` located at `slot`.\\n     */\\n    function getBytesSlot(bytes32 slot) internal pure returns (BytesSlot storage r) {\\n        assembly (\\\"memory-safe\\\") {\\n            r.slot := slot\\n        }\\n    }\\n\\n    /**\\n     * @dev Returns an `BytesSlot` representation of the bytes storage pointer `store`.\\n     */\\n    function getBytesSlot(bytes storage store) internal pure returns (BytesSlot storage r) {\\n        assembly (\\\"memory-safe\\\") {\\n            r.slot := store.slot\\n        }\\n    }\\n}\\n\"},\"@openzeppelin/contracts/utils/SlotDerivation.sol\":{\"content\":\"// SPDX-License-Identifier: MIT\\n// OpenZeppelin Contracts (last updated v5.3.0) (utils/SlotDerivation.sol)\\n// This file was procedurally generated from scripts/generate/templates/SlotDerivation.js.\\n\\npragma solidity ^0.8.20;\\n\\n/**\\n * @dev Library for computing storage (and transient storage) locations from namespaces and deriving slots\\n * corresponding to standard patterns. The derivation method for array and mapping matches the storage layout used by\\n * the solidity language / compiler.\\n *\\n * See https://docs.soliditylang.org/en/v0.8.20/internals/layout_in_storage.html#mappings-and-dynamic-arrays[Solidity docs for mappings and dynamic arrays.].\\n *\\n * Example usage:\\n * ```solidity\\n * contract Example {\\n *     // Add the library methods\\n *     using StorageSlot for bytes32;\\n *     using SlotDerivation for bytes32;\\n *\\n *     // Declare a namespace\\n *     string private constant _NAMESPACE = \\\"<namespace>\\\"; // eg. OpenZeppelin.Slot\\n *\\n *     function setValueInNamespace(uint256 key, address newValue) internal {\\n *         _NAMESPACE.erc7201Slot().deriveMapping(key).getAddressSlot().value = newValue;\\n *     }\\n *\\n *     function getValueInNamespace(uint256 key) internal view returns (address) {\\n *         return _NAMESPACE.erc7201Slot().deriveMapping(key).getAddressSlot().value;\\n *     }\\n * }\\n * ```\\n *\\n * TIP: Consider using this library along with {StorageSlot}.\\n *\\n * NOTE: This library provides a way to manipulate storage locations in a non-standard way. Tooling for checking\\n * upgrade safety will ignore the slots accessed through this library.\\n *\\n * _Available since v5.1._\\n */\\nlibrary SlotDerivation {\\n    /**\\n     * @dev Derive an ERC-7201 slot from a string (namespace).\\n     */\\n    function erc7201Slot(string memory namespace) internal pure returns (bytes32 slot) {\\n        assembly (\\\"memory-safe\\\") {\\n            mstore(0x00, sub(keccak256(add(namespace, 0x20), mload(namespace)), 1))\\n            slot := and(keccak256(0x00, 0x20), not(0xff))\\n        }\\n    }\\n\\n    /**\\n     * @dev Add an offset to a slot to get the n-th element of a structure or an array.\\n     */\\n    function offset(bytes32 slot, uint256 pos) internal pure returns (bytes32 result) {\\n        unchecked {\\n            return bytes32(uint256(slot) + pos);\\n        }\\n    }\\n\\n    /**\\n     * @dev Derive the location of the first element in an array from the slot where the length is stored.\\n     */\\n    function deriveArray(bytes32 slot) internal pure returns (bytes32 result) {\\n        assembly (\\\"memory-safe\\\") {\\n            mstore(0x00, slot)\\n            result := keccak256(0x00, 0x20)\\n        }\\n    }\\n\\n    /**\\n     * @dev Derive the location of a mapping element from the key.\\n     */\\n    function deriveMapping(bytes32 slot, address key) internal pure returns (bytes32 result) {\\n        assembly (\\\"memory-safe\\\") {\\n            mstore(0x00, and(key, shr(96, not(0))))\\n            mstore(0x20, slot)\\n            result := keccak256(0x00, 0x40)\\n        }\\n    }\\n\\n    /**\\n     * @dev Derive the location of a mapping element from the key.\\n     */\\n    function deriveMapping(bytes32 slot, bool key) internal pure returns (bytes32 result) {\\n        assembly (\\\"memory-safe\\\") {\\n            mstore(0x00, iszero(iszero(key)))\\n            mstore(0x20, slot)\\n            result := keccak256(0x00, 0x40)\\n        }\\n    }\\n\\n    /**\\n     * @dev Derive the location of a mapping element from the key.\\n     */\\n    function deriveMapping(bytes32 slot, bytes32 key) internal pure returns (bytes32 result) {\\n        assembly (\\\"memory-safe\\\") {\\n            mstore(0x00, key)\\n            mstore(0x20, slot)\\n            result := keccak256(0x00, 0x40)\\n        }\\n    }\\n\\n    /**\\n     * @dev Derive the location of a mapping element from the key.\\n     */\\n    function deriveMapping(bytes32 slot, uint256 key) internal pure returns (bytes32 result) {\\n        assembly (\\\"memory-safe\\\") {\\n            mstore(0x00, key)\\n            mstore(0x20, slot)\\n            result := keccak256(0x00, 0x40)\\n        }\\n    }\\n\\n    /**\\n     * @dev Derive the location of a mapping element from the key.\\n     */\\n    function deriveMapping(bytes32 slot, int256 key) internal pure returns (bytes32 result) {\\n        assembly (\\\"memory-safe\\\") {\\n            mstore(0x00, key)\\n            mstore(0x20, slot)\\n            result := keccak256(0x00, 0x40)\\n        }\\n    }\\n\\n    /**\\n     * @dev Derive the location of a mapping element from the key.\\n     */\\n    function deriveMapping(bytes32 slot, string memory key) internal pure returns (bytes32 result) {\\n        assembly (\\\"memory-safe\\\") {\\n            let length := mload(key)\\n            let begin := add(key, 0x20)\\n            let end := add(begin, length)\\n            let cache := mload(end)\\n            mstore(end, slot)\\n            result := keccak256(begin, add(length, 0x20))\\n            mstore(end, cache)\\n        }\\n    }\\n\\n    /**\\n     * @dev Derive the location of a mapping element from the key.\\n     */\\n    function deriveMapping(bytes32 slot, bytes memory key) internal pure returns (bytes32 result) {\\n        assembly (\\\"memory-safe\\\") {\\n            let length := mload(key)\\n            let begin := add(key, 0x20)\\n            let end := add(begin, length)\\n            let cache := mload(end)\\n            mstore(end, slot)\\n            result := keccak256(begin, add(length, 0x20))\\n            mstore(end, cache)\\n        }\\n    }\\n}\\n\"},\"@openzeppelin/contracts/utils/Comparators.sol\":{\"content\":\"// SPDX-License-Identifier: MIT\\n// OpenZeppelin Contracts (last updated v5.1.0) (utils/Comparators.sol)\\n\\npragma solidity ^0.8.20;\\n\\n/**\\n * @dev Provides a set of functions to compare values.\\n *\\n * _Available since v5.1._\\n */\\nlibrary Comparators {\\n    function lt(uint256 a, uint256 b) internal pure returns (bool) {\\n        return a < b;\\n    }\\n\\n    function gt(uint256 a, uint256 b) internal pure returns (bool) {\\n        return a > b;\\n    }\\n}\\n\"},\"@openzeppelin/contracts/token/ERC1155/IERC1155Receiver.sol\":{\"content\":\"// SPDX-License-Identifier: MIT\\n// OpenZeppelin Contracts (last updated v5.1.0) (token/ERC1155/IERC1155Receiver.sol)\\n\\npragma solidity ^0.8.20;\\n\\nimport {IERC165} from \\\"../../utils/introspection/IERC165.sol\\\";\\n\\n/**\\n * @dev Interface that must be implemented by smart contracts in order to receive\\n * ERC-1155 token transfers.\\n */\\ninterface IERC1155Receiver is IERC165 {\\n    /**\\n     * @dev Handles the receipt of a single ERC-1155 token type. This function is\\n     * called at the end of a `safeTransferFrom` after the balance has been updated.\\n     *\\n     * NOTE: To accept the transfer, this must return\\n     * `bytes4(keccak256(\\\"onERC1155Received(address,address,uint256,uint256,bytes)\\\"))`\\n     * (i.e. 0xf23a6e61, or its own function selector).\\n     *\\n     * @param operator The address which initiated the transfer (i.e. msg.sender)\\n     * @param from The address which previously owned the token\\n     * @param id The ID of the token being transferred\\n     * @param value The amount of tokens being transferred\\n     * @param data Additional data with no specified format\\n     * @return `bytes4(keccak256(\\\"onERC1155Received(address,address,uint256,uint256,bytes)\\\"))` if transfer is allowed\\n     */\\n    function onERC1155Received(\\n        address operator,\\n        address from,\\n        uint256 id,\\n        uint256 value,\\n        bytes calldata data\\n    ) external returns (bytes4);\\n\\n    /**\\n     * @dev Handles the receipt of a multiple ERC-1155 token types. This function\\n     * is called at the end of a `safeBatchTransferFrom` after the balances have\\n     * been updated.\\n     *\\n     * NOTE: To accept the transfer(s), this must return\\n     * `bytes4(keccak256(\\\"onERC1155BatchReceived(address,address,uint256[],uint256[],bytes)\\\"))`\\n     * (i.e. 0xbc197c81, or its own function selector).\\n     *\\n     * @param operator The address which initiated the batch transfer (i.e. msg.sender)\\n     * @param from The address which previously owned the token\\n     * @param ids An array containing ids of each token being transferred (order and length must match values array)\\n     * @param values An array containing amounts of each token being transferred (order and length must match ids array)\\n     * @param data Additional data with no specified format\\n     * @return `bytes4(keccak256(\\\"onERC1155BatchReceived(address,address,uint256[],uint256[],bytes)\\\"))` if transfer is allowed\\n     */\\n    function onERC1155BatchReceived(\\n        address operator,\\n        address from,\\n        uint256[] calldata ids,\\n        uint256[] calldata values,\\n        bytes calldata data\\n    ) external returns (bytes4);\\n}\\n\"},\"@openzeppelin/contracts-upgradeable/proxy/utils/Initializable.sol\":{\"content\":\"// SPDX-License-Identifier: MIT\\n// OpenZeppelin Contracts (last updated v5.3.0) (proxy/utils/Initializable.sol)\\n\\npragma solidity ^0.8.20;\\n\\n/**\\n * @dev This is a base contract to aid in writing upgradeable contracts, or any kind of contract that will be deployed\\n * behind a proxy. Since proxied contracts do not make use of a constructor, it's common to move constructor logic to an\\n * external initializer function, usually called `initialize`. It then becomes necessary to protect this initializer\\n * function so it can only be called once. The {initializer} modifier provided by this contract will have this effect.\\n *\\n * The initialization functions use a version number. Once a version number is used, it is consumed and cannot be\\n * reused. This mechanism prevents re-execution of each \\\"step\\\" but allows the creation of new initialization steps in\\n * case an upgrade adds a module that needs to be initialized.\\n *\\n * For example:\\n *\\n * [.hljs-theme-light.nopadding]\\n * ```solidity\\n * contract MyToken is ERC20Upgradeable {\\n *     function initialize() initializer public {\\n *         __ERC20_init(\\\"MyToken\\\", \\\"MTK\\\");\\n *     }\\n * }\\n *\\n * contract MyTokenV2 is MyToken, ERC20PermitUpgradeable {\\n *     function initializeV2() reinitializer(2) public {\\n *         __ERC20Permit_init(\\\"MyToken\\\");\\n *     }\\n * }\\n * ```\\n *\\n * TIP: To avoid leaving the proxy in an uninitialized state, the initializer function should be called as early as\\n * possible by providing the encoded function call as the `_data` argument to {ERC1967Proxy-constructor}.\\n *\\n * CAUTION: When used with inheritance, manual care must be taken to not invoke a parent initializer twice, or to ensure\\n * that all initializers are idempotent. This is not verified automatically as constructors are by Solidity.\\n *\\n * [CAUTION]\\n * ====\\n * Avoid leaving a contract uninitialized.\\n *\\n * An uninitialized contract can be taken over by an attacker. This applies to both a proxy and its implementation\\n * contract, which may impact the proxy. To prevent the implementation contract from being used, you should invoke\\n * the {_disableInitializers} function in the constructor to automatically lock it when it is deployed:\\n *\\n * [.hljs-theme-light.nopadding]\\n * ```\\n * /// @custom:oz-upgrades-unsafe-allow constructor\\n * constructor() {\\n *     _disableInitializers();\\n * }\\n * ```\\n * ====\\n */\\nabstract contract Initializable {\\n    /**\\n     * @dev Storage of the initializable contract.\\n     *\\n     * It's implemented on a custom ERC-7201 namespace to reduce the risk of storage collisions\\n     * when using with upgradeable contracts.\\n     *\\n     * @custom:storage-location erc7201:openzeppelin.storage.Initializable\\n     */\\n    struct InitializableStorage {\\n        /**\\n         * @dev Indicates that the contract has been initialized.\\n         */\\n        uint64 _initialized;\\n        /**\\n         * @dev Indicates that the contract is in the process of being initialized.\\n         */\\n        bool _initializing;\\n    }\\n\\n    // keccak256(abi.encode(uint256(keccak256(\\\"openzeppelin.storage.Initializable\\\")) - 1)) & ~bytes32(uint256(0xff))\\n    bytes32 private constant INITIALIZABLE_STORAGE = 0xf0c57e16840df040f15088dc2f81fe391c3923bec73e23a9662efc9c229c6a00;\\n\\n    /**\\n     * @dev The contract is already initialized.\\n     */\\n    error InvalidInitialization();\\n\\n    /**\\n     * @dev The contract is not initializing.\\n     */\\n    error NotInitializing();\\n\\n    /**\\n     * @dev Triggered when the contract has been initialized or reinitialized.\\n     */\\n    event Initialized(uint64 version);\\n\\n    /**\\n     * @dev A modifier that defines a protected initializer function that can be invoked at most once. In its scope,\\n     * `onlyInitializing` functions can be used to initialize parent contracts.\\n     *\\n     * Similar to `reinitializer(1)`, except that in the context of a constructor an `initializer` may be invoked any\\n     * number of times. This behavior in the constructor can be useful during testing and is not expected to be used in\\n     * production.\\n     *\\n     * Emits an {Initialized} event.\\n     */\\n    modifier initializer() {\\n        // solhint-disable-next-line var-name-mixedcase\\n        InitializableStorage storage $ = _getInitializableStorage();\\n\\n        // Cache values to avoid duplicated sloads\\n        bool isTopLevelCall = !$._initializing;\\n        uint64 initialized = $._initialized;\\n\\n        // Allowed calls:\\n        // - initialSetup: the contract is not in the initializing state and no previous version was\\n        //                 initialized\\n        // - construction: the contract is initialized at version 1 (no reinitialization) and the\\n        //                 current contract is just being deployed\\n        bool initialSetup = initialized == 0 && isTopLevelCall;\\n        bool construction = initialized == 1 && address(this).code.length == 0;\\n\\n        if (!initialSetup && !construction) {\\n            revert InvalidInitialization();\\n        }\\n        $._initialized = 1;\\n        if (isTopLevelCall) {\\n            $._initializing = true;\\n        }\\n        _;\\n        if (isTopLevelCall) {\\n            $._initializing = false;\\n            emit Initialized(1);\\n        }\\n    }\\n\\n    /**\\n     * @dev A modifier that defines a protected reinitializer function that can be invoked at most once, and only if the\\n     * contract hasn't been initialized to a greater version before. In its scope, `onlyInitializing` functions can be\\n     * used to initialize parent contracts.\\n     *\\n     * A reinitializer may be used after the original initialization step. This is essential to configure modules that\\n     * are added through upgrades and that require initialization.\\n     *\\n     * When `version` is 1, this modifier is similar to `initializer`, except that functions marked with `reinitializer`\\n     * cannot be nested. If one is invoked in the context of another, execution will revert.\\n     *\\n     * Note that versions can jump in increments greater than 1; this implies that if multiple reinitializers coexist in\\n     * a contract, executing them in the right order is up to the developer or operator.\\n     *\\n     * WARNING: Setting the version to 2**64 - 1 will prevent any future reinitialization.\\n     *\\n     * Emits an {Initialized} event.\\n     */\\n    modifier reinitializer(uint64 version) {\\n        // solhint-disable-next-line var-name-mixedcase\\n        InitializableStorage storage $ = _getInitializableStorage();\\n\\n        if ($._initializing || $._initialized >= version) {\\n            revert InvalidInitialization();\\n        }\\n        $._initialized = version;\\n        $._initializing = true;\\n        _;\\n        $._initializing = false;\\n        emit Initialized(version);\\n    }\\n\\n    /**\\n     * @dev Modifier to protect an initialization function so that it can only be invoked by functions with the\\n     * {initializer} and {reinitializer} modifiers, directly or indirectly.\\n     */\\n    modifier onlyInitializing() {\\n        _checkInitializing();\\n        _;\\n    }\\n\\n    /**\\n     * @dev Reverts if the contract is not in an initializing state. See {onlyInitializing}.\\n     */\\n    function _checkInitializing() internal view virtual {\\n        if (!_isInitializing()) {\\n            revert NotInitializing();\\n        }\\n    }\\n\\n    /**\\n     * @dev Locks the contract, preventing any future reinitialization. This cannot be part of an initializer call.\\n     * Calling this in the constructor of a contract will prevent that contract from being initialized or reinitialized\\n     * to any version. It is recommended to use this to lock implementation contracts that are designed to be called\\n     * through proxies.\\n     *\\n     * Emits an {Initialized} event the first time it is successfully executed.\\n     */\\n    function _disableInitializers() internal virtual {\\n        // solhint-disable-next-line var-name-mixedcase\\n        InitializableStorage storage $ = _getInitializableStorage();\\n\\n        if ($._initializing) {\\n            revert InvalidInitialization();\\n        }\\n        if ($._initialized != type(uint64).max) {\\n            $._initialized = type(uint64).max;\\n            emit Initialized(type(uint64).max);\\n        }\\n    }\\n\\n    /**\\n     * @dev Returns the highest version that has been initialized. See {reinitializer}.\\n     */\\n    function _getInitializedVersion() internal view returns (uint64) {\\n        return _getInitializableStorage()._initialized;\\n    }\\n\\n    /**\\n     * @dev Returns `true` if the contract is currently initializing. See {onlyInitializing}.\\n     */\\n    function _isInitializing() internal view returns (bool) {\\n        return _getInitializableStorage()._initializing;\\n    }\\n\\n    /**\\n     * @dev Pointer to storage slot. Allows integrators to override it with a custom storage location.\\n     *\\n     * NOTE: Consider following the ERC-7201 formula to derive storage locations.\\n     */\\n    function _initializableStorageSlot() internal pure virtual returns (bytes32) {\\n        return INITIALIZABLE_STORAGE;\\n    }\\n\\n    /**\\n     * @dev Returns a pointer to the storage namespace.\\n     */\\n    // solhint-disable-next-line var-name-mixedcase\\n    function _getInitializableStorage() private pure returns (InitializableStorage storage $) {\\n        bytes32 slot = _initializableStorageSlot();\\n        assembly {\\n            $.slot := slot\\n        }\\n    }\\n}\\n\"},\"@openzeppelin/contracts-upgradeable/access/OwnableUpgradeable.sol\":{\"content\":\"// SPDX-License-Identifier: MIT\\n// OpenZeppelin Contracts (last updated v5.0.0) (access/Ownable.sol)\\n\\npragma solidity ^0.8.20;\\n\\nimport {ContextUpgradeable} from \\\"../utils/ContextUpgradeable.sol\\\";\\nimport {Initializable} from \\\"../proxy/utils/Initializable.sol\\\";\\n\\n/**\\n * @dev Contract module which provides a basic access control mechanism, where\\n * there is an account (an owner) that can be granted exclusive access to\\n * specific functions.\\n *\\n * The initial owner is set to the address provided by the deployer. This can\\n * later be changed with {transferOwnership}.\\n *\\n * This module is used through inheritance. It will make available the modifier\\n * `onlyOwner`, which can be applied to your functions to restrict their use to\\n * the owner.\\n */\\nabstract contract OwnableUpgradeable is Initializable, ContextUpgradeable {\\n    /// @custom:storage-location erc7201:openzeppelin.storage.Ownable\\n    struct OwnableStorage {\\n        address _owner;\\n    }\\n\\n    // keccak256(abi.encode(uint256(keccak256(\\\"openzeppelin.storage.Ownable\\\")) - 1)) & ~bytes32(uint256(0xff))\\n    bytes32 private constant OwnableStorageLocation = 0x9016d09d72d40fdae2fd8ceac6b6234c7706214fd39c1cd1e609a0528c199300;\\n\\n    function _getOwnableStorage() private pure returns (OwnableStorage storage $) {\\n        assembly {\\n            $.slot := OwnableStorageLocation\\n        }\\n    }\\n\\n    /**\\n     * @dev The caller account is not authorized to perform an operation.\\n     */\\n    error OwnableUnauthorizedAccount(address account);\\n\\n    /**\\n     * @dev The owner is not a valid owner account. (eg. `address(0)`)\\n     */\\n    error OwnableInvalidOwner(address owner);\\n\\n    event OwnershipTransferred(address indexed previousOwner, address indexed newOwner);\\n\\n    /**\\n     * @dev Initializes the contract setting the address provided by the deployer as the initial owner.\\n     */\\n    function __Ownable_init(address initialOwner) internal onlyInitializing {\\n        __Ownable_init_unchained(initialOwner);\\n    }\\n\\n    function __Ownable_init_unchained(address initialOwner) internal onlyInitializing {\\n        if (initialOwner == address(0)) {\\n            revert OwnableInvalidOwner(address(0));\\n        }\\n        _transferOwnership(initialOwner);\\n    }\\n\\n    /**\\n     * @dev Throws if called by any account other than the owner.\\n     */\\n    modifier onlyOwner() {\\n        _checkOwner();\\n        _;\\n    }\\n\\n    /**\\n     * @dev Returns the address of the current owner.\\n     */\\n    function owner() public view virtual returns (address) {\\n        OwnableStorage storage $ = _getOwnableStorage();\\n        return $._owner;\\n    }\\n\\n    /**\\n     * @dev Throws if the sender is not the owner.\\n     */\\n    function _checkOwner() internal view virtual {\\n        if (owner() != _msgSender()) {\\n            revert OwnableUnauthorizedAccount(_msgSender());\\n        }\\n    }\\n\\n    /**\\n     * @dev Leaves the contract without owner. It will not be possible to call\\n     * `onlyOwner` functions. Can only be called by the current owner.\\n     *\\n     * NOTE: Renouncing ownership will leave the contract without an owner,\\n     * thereby disabling any functionality that is only available to the owner.\\n     */\\n    function renounceOwnership() public virtual onlyOwner {\\n        _transferOwnership(address(0));\\n    }\\n\\n    /**\\n     * @dev Transfers ownership of the contract to a new account (`newOwner`).\\n     * Can only be called by the current owner.\\n     */\\n    function transferOwnership(address newOwner) public virtual onlyOwner {\\n        if (newOwner == address(0)) {\\n            revert OwnableInvalidOwner(address(0));\\n        }\\n        _transferOwnership(newOwner);\\n    }\\n\\n    /**\\n     * @dev Transfers ownership of the contract to a new account (`newOwner`).\\n     * Internal function without access restriction.\\n     */\\n    function _transferOwnership(address newOwner) internal virtual {\\n        OwnableStorage storage $ = _getOwnableStorage();\\n        address oldOwner = $._owner;\\n        $._owner = newOwner;\\n        emit OwnershipTransferred(oldOwner, newOwner);\\n    }\\n}\\n\"},\"@openzeppelin/contracts-upgradeable/utils/ContextUpgradeable.sol\":{\"content\":\"// SPDX-License-Identifier: MIT\\n// OpenZeppelin Contracts (last updated v5.0.1) (utils/Context.sol)\\n\\npragma solidity ^0.8.20;\\nimport {Initializable} from \\\"../proxy/utils/Initializable.sol\\\";\\n\\n/**\\n * @dev Provides information about the current execution context, including the\\n * sender of the transaction and its data. While these are generally available\\n * via msg.sender and msg.data, they should not be accessed in such a direct\\n * manner, since when dealing with meta-transactions the account sending and\\n * paying for execution may not be the actual sender (as far as an application\\n * is concerned).\\n *\\n * This contract is only required for intermediate, library-like contracts.\\n */\\nabstract contract ContextUpgradeable is Initializable {\\n    function __Context_init() internal onlyInitializing {\\n    }\\n\\n    function __Context_init_unchained() internal onlyInitializing {\\n    }\\n    function _msgSender() internal view virtual returns (address) {\\n        return msg.sender;\\n    }\\n\\n    function _msgData() internal view virtual returns (bytes calldata) {\\n        return msg.data;\\n    }\\n\\n    function _contextSuffixLength() internal view virtual returns (uint256) {\\n        return 0;\\n    }\\n}\\n\"},\"@openzeppelin/contracts/utils/math/SafeCast.sol\":{\"content\":\"// SPDX-License-Identifier: MIT\\n// OpenZeppelin Contracts (last updated v5.1.0) (utils/math/SafeCast.sol)\\n// This file was procedurally generated from scripts/generate/templates/SafeCast.js.\\n\\npragma solidity ^0.8.20;\\n\\n/**\\n * @dev Wrappers over Solidity's uintXX/intXX/bool casting operators with added overflow\\n * checks.\\n *\\n * Downcasting from uint256/int256 in Solidity does not revert on overflow. This can\\n * easily result in undesired exploitation or bugs, since developers usually\\n * assume that overflows raise errors. `SafeCast` restores this intuition by\\n * reverting the transaction when such an operation overflows.\\n *\\n * Using this library instead of the unchecked operations eliminates an entire\\n * class of bugs, so it's recommended to use it always.\\n */\\nlibrary SafeCast {\\n    /**\\n     * @dev Value doesn't fit in an uint of `bits` size.\\n     */\\n    error SafeCastOverflowedUintDowncast(uint8 bits, uint256 value);\\n\\n    /**\\n     * @dev An int value doesn't fit in an uint of `bits` size.\\n     */\\n    error SafeCastOverflowedIntToUint(int256 value);\\n\\n    /**\\n     * @dev Value doesn't fit in an int of `bits` size.\\n     */\\n    error SafeCastOverflowedIntDowncast(uint8 bits, int256 value);\\n\\n    /**\\n     * @dev An uint value doesn't fit in an int of `bits` size.\\n     */\\n    error SafeCastOverflowedUintToInt(uint256 value);\\n\\n    /**\\n     * @dev Returns the downcasted uint248 from uint256, reverting on\\n     * overflow (when the input is greater than largest uint248).\\n     *\\n     * Counterpart to Solidity's `uint248` operator.\\n     *\\n     * Requirements:\\n     *\\n     * - input must fit into 248 bits\\n     */\\n    function toUint248(uint256 value) internal pure returns (uint248) {\\n        if (value > type(uint248).max) {\\n            revert SafeCastOverflowedUintDowncast(248, value);\\n        }\\n        return uint248(value);\\n    }\\n\\n    /**\\n     * @dev Returns the downcasted uint240 from uint256, reverting on\\n     * overflow (when the input is greater than largest uint240).\\n     *\\n     * Counterpart to Solidity's `uint240` operator.\\n     *\\n     * Requirements:\\n     *\\n     * - input must fit into 240 bits\\n     */\\n    function toUint240(uint256 value) internal pure returns (uint240) {\\n        if (value > type(uint240).max) {\\n            revert SafeCastOverflowedUintDowncast(240, value);\\n        }\\n        return uint240(value);\\n    }\\n\\n    /**\\n     * @dev Returns the downcasted uint232 from uint256, reverting on\\n     * overflow (when the input is greater than largest uint232).\\n     *\\n     * Counterpart to Solidity's `uint232` operator.\\n     *\\n     * Requirements:\\n     *\\n     * - input must fit into 232 bits\\n     */\\n    function toUint232(uint256 value) internal pure returns (uint232) {\\n        if (value > type(uint232).max) {\\n            revert SafeCastOverflowedUintDowncast(232, value);\\n        }\\n        return uint232(value);\\n    }\\n\\n    /**\\n     * @dev Returns the downcasted uint224 from uint256, reverting on\\n     * overflow (when the input is greater than largest uint224).\\n     *\\n     * Counterpart to Solidity's `uint224` operator.\\n     *\\n     * Requirements:\\n     *\\n     * - input must fit into 224 bits\\n     */\\n    function toUint224(uint256 value) internal pure returns (uint224) {\\n        if (value > type(uint224).max) {\\n            revert SafeCastOverflowedUintDowncast(224, value);\\n        }\\n        return uint224(value);\\n    }\\n\\n    /**\\n     * @dev Returns the downcasted uint216 from uint256, reverting on\\n     * overflow (when the input is greater than largest uint216).\\n     *\\n     * Counterpart to Solidity's `uint216` operator.\\n     *\\n     * Requirements:\\n     *\\n     * - input must fit into 216 bits\\n     */\\n    function toUint216(uint256 value) internal pure returns (uint216) {\\n        if (value > type(uint216).max) {\\n            revert SafeCastOverflowedUintDowncast(216, value);\\n        }\\n        return uint216(value);\\n    }\\n\\n    /**\\n     * @dev Returns the downcasted uint208 from uint256, reverting on\\n     * overflow (when the input is greater than largest uint208).\\n     *\\n     * Counterpart to Solidity's `uint208` operator.\\n     *\\n     * Requirements:\\n     *\\n     * - input must fit into 208 bits\\n     */\\n    function toUint208(uint256 value) internal pure returns (uint208) {\\n        if (value > type(uint208).max) {\\n            revert SafeCastOverflowedUintDowncast(208, value);\\n        }\\n        return uint208(value);\\n    }\\n\\n    /**\\n     * @dev Returns the downcasted uint200 from uint256, reverting on\\n     * overflow (when the input is greater than largest uint200).\\n     *\\n     * Counterpart to Solidity's `uint200` operator.\\n     *\\n     * Requirements:\\n     *\\n     * - input must fit into 200 bits\\n     */\\n    function toUint200(uint256 value) internal pure returns (uint200) {\\n        if (value > type(uint200).max) {\\n            revert SafeCastOverflowedUintDowncast(200, value);\\n        }\\n        return uint200(value);\\n    }\\n\\n    /**\\n     * @dev Returns the downcasted uint192 from uint256, reverting on\\n     * overflow (when the input is greater than largest uint192).\\n     *\\n     * Counterpart to Solidity's `uint192` operator.\\n     *\\n     * Requirements:\\n     *\\n     * - input must fit into 192 bits\\n     */\\n    function toUint192(uint256 value) internal pure returns (uint192) {\\n        if (value > type(uint192).max) {\\n            revert SafeCastOverflowedUintDowncast(192, value);\\n        }\\n        return uint192(value);\\n    }\\n\\n    /**\\n     * @dev Returns the downcasted uint184 from uint256, reverting on\\n     * overflow (when the input is greater than largest uint184).\\n     *\\n     * Counterpart to Solidity's `uint184` operator.\\n     *\\n     * Requirements:\\n     *\\n     * - input must fit into 184 bits\\n     */\\n    function toUint184(uint256 value) internal pure returns (uint184) {\\n        if (value > type(uint184).max) {\\n            revert SafeCastOverflowedUintDowncast(184, value);\\n        }\\n        return uint184(value);\\n    }\\n\\n    /**\\n     * @dev Returns the downcasted uint176 from uint256, reverting on\\n     * overflow (when the input is greater than largest uint176).\\n     *\\n     * Counterpart to Solidity's `uint176` operator.\\n     *\\n     * Requirements:\\n     *\\n     * - input must fit into 176 bits\\n     */\\n    function toUint176(uint256 value) internal pure returns (uint176) {\\n        if (value > type(uint176).max) {\\n            revert SafeCastOverflowedUintDowncast(176, value);\\n        }\\n        return uint176(value);\\n    }\\n\\n    /**\\n     * @dev Returns the downcasted uint168 from uint256, reverting on\\n     * overflow (when the input is greater than largest uint168).\\n     *\\n     * Counterpart to Solidity's `uint168` operator.\\n     *\\n     * Requirements:\\n     *\\n     * - input must fit into 168 bits\\n     */\\n    function toUint168(uint256 value) internal pure returns (uint168) {\\n        if (value > type(uint168).max) {\\n            revert SafeCastOverflowedUintDowncast(168, value);\\n        }\\n        return uint168(value);\\n    }\\n\\n    /**\\n     * @dev Returns the downcasted uint160 from uint256, reverting on\\n     * overflow (when the input is greater than largest uint160).\\n     *\\n     * Counterpart to Solidity's `uint160` operator.\\n     *\\n     * Requirements:\\n     *\\n     * - input must fit into 160 bits\\n     */\\n    function toUint160(uint256 value) internal pure returns (uint160) {\\n        if (value > type(uint160).max) {\\n            revert SafeCastOverflowedUintDowncast(160, value);\\n        }\\n        return uint160(value);\\n    }\\n\\n    /**\\n     * @dev Returns the downcasted uint152 from uint256, reverting on\\n     * overflow (when the input is greater than largest uint152).\\n     *\\n     * Counterpart to Solidity's `uint152` operator.\\n     *\\n     * Requirements:\\n     *\\n     * - input must fit into 152 bits\\n     */\\n    function toUint152(uint256 value) internal pure returns (uint152) {\\n        if (value > type(uint152).max) {\\n            revert SafeCastOverflowedUintDowncast(152, value);\\n        }\\n        return uint152(value);\\n    }\\n\\n    /**\\n     * @dev Returns the downcasted uint144 from uint256, reverting on\\n     * overflow (when the input is greater than largest uint144).\\n     *\\n     * Counterpart to Solidity's `uint144` operator.\\n     *\\n     * Requirements:\\n     *\\n     * - input must fit into 144 bits\\n     */\\n    function toUint144(uint256 value) internal pure returns (uint144) {\\n        if (value > type(uint144).max) {\\n            revert SafeCastOverflowedUintDowncast(144, value);\\n        }\\n        return uint144(value);\\n    }\\n\\n    /**\\n     * @dev Returns the downcasted uint136 from uint256, reverting on\\n     * overflow (when the input is greater than largest uint136).\\n     *\\n     * Counterpart to Solidity's `uint136` operator.\\n     *\\n     * Requirements:\\n     *\\n     * - input must fit into 136 bits\\n     */\\n    function toUint136(uint256 value) internal pure returns (uint136) {\\n        if (value > type(uint136).max) {\\n            revert SafeCastOverflowedUintDowncast(136, value);\\n        }\\n        return uint136(value);\\n    }\\n\\n    /**\\n     * @dev Returns the downcasted uint128 from uint256, reverting on\\n     * overflow (when the input is greater than largest uint128).\\n     *\\n     * Counterpart to Solidity's `uint128` operator.\\n     *\\n     * Requirements:\\n     *\\n     * - input must fit into 128 bits\\n     */\\n    function toUint128(uint256 value) internal pure returns (uint128) {\\n        if (value > type(uint128).max) {\\n            revert SafeCastOverflowedUintDowncast(128, value);\\n        }\\n        return uint128(value);\\n    }\\n\\n    /**\\n     * @dev Returns the downcasted uint120 from uint256, reverting on\\n     * overflow (when the input is greater than largest uint120).\\n     *\\n     * Counterpart to Solidity's `uint120` operator.\\n     *\\n     * Requirements:\\n     *\\n     * - input must fit into 120 bits\\n     */\\n    function toUint120(uint256 value) internal pure returns (uint120) {\\n        if (value > type(uint120).max) {\\n            revert SafeCastOverflowedUintDowncast(120, value);\\n        }\\n        return uint120(value);\\n    }\\n\\n    /**\\n     * @dev Returns the downcasted uint112 from uint256, reverting on\\n     * overflow (when the input is greater than largest uint112).\\n     *\\n     * Counterpart to Solidity's `uint112` operator.\\n     *\\n     * Requirements:\\n     *\\n     * - input must fit into 112 bits\\n     */\\n    function toUint112(uint256 value) internal pure returns (uint112) {\\n        if (value > type(uint112).max) {\\n            revert SafeCastOverflowedUintDowncast(112, value);\\n        }\\n        return uint112(value);\\n    }\\n\\n    /**\\n     * @dev Returns the downcasted uint104 from uint256, reverting on\\n     * overflow (when the input is greater than largest uint104).\\n     *\\n     * Counterpart to Solidity's `uint104` operator.\\n     *\\n     * Requirements:\\n     *\\n     * - input must fit into 104 bits\\n     */\\n    function toUint104(uint256 value) internal pure returns (uint104) {\\n        if (value > type(uint104).max) {\\n            revert SafeCastOverflowedUintDowncast(104, value);\\n        }\\n        return uint104(value);\\n    }\\n\\n    /**\\n     * @dev Returns the downcasted uint96 from uint256, reverting on\\n     * overflow (when the input is greater than largest uint96).\\n     *\\n     * Counterpart to Solidity's `uint96` operator.\\n     *\\n     * Requirements:\\n     *\\n     * - input must fit into 96 bits\\n     */\\n    function toUint96(uint256 value) internal pure returns (uint96) {\\n        if (value > type(uint96).max) {\\n            revert SafeCastOverflowedUintDowncast(96, value);\\n        }\\n        return uint96(value);\\n    }\\n\\n    /**\\n     * @dev Returns the downcasted uint88 from uint256, reverting on\\n     * overflow (when the input is greater than largest uint88).\\n     *\\n     * Counterpart to Solidity's `uint88` operator.\\n     *\\n     * Requirements:\\n     *\\n     * - input must fit into 88 bits\\n     */\\n    function toUint88(uint256 value) internal pure returns (uint88) {\\n        if (value > type(uint88).max) {\\n            revert SafeCastOverflowedUintDowncast(88, value);\\n        }\\n        return uint88(value);\\n    }\\n\\n    /**\\n     * @dev Returns the downcasted uint80 from uint256, reverting on\\n     * overflow (when the input is greater than largest uint80).\\n     *\\n     * Counterpart to Solidity's `uint80` operator.\\n     *\\n     * Requirements:\\n     *\\n     * - input must fit into 80 bits\\n     */\\n    function toUint80(uint256 value) internal pure returns (uint80) {\\n        if (value > type(uint80).max) {\\n            revert SafeCastOverflowedUintDowncast(80, value);\\n        }\\n        return uint80(value);\\n    }\\n\\n    /**\\n     * @dev Returns the downcasted uint72 from uint256, reverting on\\n     * overflow (when the input is greater than largest uint72).\\n     *\\n     * Counterpart to Solidity's `uint72` operator.\\n     *\\n     * Requirements:\\n     *\\n     * - input must fit into 72 bits\\n     */\\n    function toUint72(uint256 value) internal pure returns (uint72) {\\n        if (value > type(uint72).max) {\\n            revert SafeCastOverflowedUintDowncast(72, value);\\n        }\\n        return uint72(value);\\n    }\\n\\n    /**\\n     * @dev Returns the downcasted uint64 from uint256, reverting on\\n     * overflow (when the input is greater than largest uint64).\\n     *\\n     * Counterpart to Solidity's `uint64` operator.\\n     *\\n     * Requirements:\\n     *\\n     * - input must fit into 64 bits\\n     */\\n    function toUint64(uint256 value) internal pure returns (uint64) {\\n        if (value > type(uint64).max) {\\n            revert SafeCastOverflowedUintDowncast(64, value);\\n        }\\n        return uint64(value);\\n    }\\n\\n    /**\\n     * @dev Returns the downcasted uint56 from uint256, reverting on\\n     * overflow (when the input is greater than largest uint56).\\n     *\\n     * Counterpart to Solidity's `uint56` operator.\\n     *\\n     * Requirements:\\n     *\\n     * - input must fit into 56 bits\\n     */\\n    function toUint56(uint256 value) internal pure returns (uint56) {\\n        if (value > type(uint56).max) {\\n            revert SafeCastOverflowedUintDowncast(56, value);\\n        }\\n        return uint56(value);\\n    }\\n\\n    /**\\n     * @dev Returns the downcasted uint48 from uint256, reverting on\\n     * overflow (when the input is greater than largest uint48).\\n     *\\n     * Counterpart to Solidity's `uint48` operator.\\n     *\\n     * Requirements:\\n     *\\n     * - input must fit into 48 bits\\n     */\\n    function toUint48(uint256 value) internal pure returns (uint48) {\\n        if (value > type(uint48).max) {\\n            revert SafeCastOverflowedUintDowncast(48, value);\\n        }\\n        return uint48(value);\\n    }\\n\\n    /**\\n     * @dev Returns the downcasted uint40 from uint256, reverting on\\n     * overflow (when the input is greater than largest uint40).\\n     *\\n     * Counterpart to Solidity's `uint40` operator.\\n     *\\n     * Requirements:\\n     *\\n     * - input must fit into 40 bits\\n     */\\n    function toUint40(uint256 value) internal pure returns (uint40) {\\n        if (value > type(uint40).max) {\\n            revert SafeCastOverflowedUintDowncast(40, value);\\n        }\\n        return uint40(value);\\n    }\\n\\n    /**\\n     * @dev Returns the downcasted uint32 from uint256, reverting on\\n     * overflow (when the input is greater than largest uint32).\\n     *\\n     * Counterpart to Solidity's `uint32` operator.\\n     *\\n     * Requirements:\\n     *\\n     * - input must fit into 32 bits\\n     */\\n    function toUint32(uint256 value) internal pure returns (uint32) {\\n        if (value > type(uint32).max) {\\n            revert SafeCastOverflowedUintDowncast(32, value);\\n        }\\n        return uint32(value);\\n    }\\n\\n    /**\\n     * @dev Returns the downcasted uint24 from uint256, reverting on\\n     * overflow (when the input is greater than largest uint24).\\n     *\\n     * Counterpart to Solidity's `uint24` operator.\\n     *\\n     * Requirements:\\n     *\\n     * - input must fit into 24 bits\\n     */\\n    function toUint24(uint256 value) internal pure returns (uint24) {\\n        if (value > type(uint24).max) {\\n            revert SafeCastOverflowedUintDowncast(24, value);\\n        }\\n        return uint24(value);\\n    }\\n\\n    /**\\n     * @dev Returns the downcasted uint16 from uint256, reverting on\\n     * overflow (when the input is greater than largest uint16).\\n     *\\n     * Counterpart to Solidity's `uint16` operator.\\n     *\\n     * Requirements:\\n     *\\n     * - input must fit into 16 bits\\n     */\\n    function toUint16(uint256 value) internal pure returns (uint16) {\\n        if (value > type(uint16).max) {\\n            revert SafeCastOverflowedUintDowncast(16, value);\\n        }\\n        return uint16(value);\\n    }\\n\\n    /**\\n     * @dev Returns the downcasted uint8 from uint256, reverting on\\n     * overflow (when the input is greater than largest uint8).\\n     *\\n     * Counterpart to Solidity's `uint8` operator.\\n     *\\n     * Requirements:\\n     *\\n     * - input must fit into 8 bits\\n     */\\n    function toUint8(uint256 value) internal pure returns (uint8) {\\n        if (value > type(uint8).max) {\\n            revert SafeCastOverflowedUintDowncast(8, value);\\n        }\\n        return uint8(value);\\n    }\\n\\n    /**\\n     * @dev Converts a signed int256 into an unsigned uint256.\\n     *\\n     * Requirements:\\n     *\\n     * - input must be greater than or equal to 0.\\n     */\\n    function toUint256(int256 value) internal pure returns (uint256) {\\n        if (value < 0) {\\n            revert SafeCastOverflowedIntToUint(value);\\n        }\\n        return uint256(value);\\n    }\\n\\n    /**\\n     * @dev Returns the downcasted int248 from int256, reverting on\\n     * overflow (when the input is less than smallest int248 or\\n     * greater than largest int248).\\n     *\\n     * Counterpart to Solidity's `int248` operator.\\n     *\\n     * Requirements:\\n     *\\n     * - input must fit into 248 bits\\n     */\\n    function toInt248(int256 value) internal pure returns (int248 downcasted) {\\n        downcasted = int248(value);\\n        if (downcasted != value) {\\n            revert SafeCastOverflowedIntDowncast(248, value);\\n        }\\n    }\\n\\n    /**\\n     * @dev Returns the downcasted int240 from int256, reverting on\\n     * overflow (when the input is less than smallest int240 or\\n     * greater than largest int240).\\n     *\\n     * Counterpart to Solidity's `int240` operator.\\n     *\\n     * Requirements:\\n     *\\n     * - input must fit into 240 bits\\n     */\\n    function toInt240(int256 value) internal pure returns (int240 downcasted) {\\n        downcasted = int240(value);\\n        if (downcasted != value) {\\n            revert SafeCastOverflowedIntDowncast(240, value);\\n        }\\n    }\\n\\n    /**\\n     * @dev Returns the downcasted int232 from int256, reverting on\\n     * overflow (when the input is less than smallest int232 or\\n     * greater than largest int232).\\n     *\\n     * Counterpart to Solidity's `int232` operator.\\n     *\\n     * Requirements:\\n     *\\n     * - input must fit into 232 bits\\n     */\\n    function toInt232(int256 value) internal pure returns (int232 downcasted) {\\n        downcasted = int232(value);\\n        if (downcasted != value) {\\n            revert SafeCastOverflowedIntDowncast(232, value);\\n        }\\n    }\\n\\n    /**\\n     * @dev Returns the downcasted int224 from int256, reverting on\\n     * overflow (when the input is less than smallest int224 or\\n     * greater than largest int224).\\n     *\\n     * Counterpart to Solidity's `int224` operator.\\n     *\\n     * Requirements:\\n     *\\n     * - input must fit into 224 bits\\n     */\\n    function toInt224(int256 value) internal pure returns (int224 downcasted) {\\n        downcasted = int224(value);\\n        if (downcasted != value) {\\n            revert SafeCastOverflowedIntDowncast(224, value);\\n        }\\n    }\\n\\n    /**\\n     * @dev Returns the downcasted int216 from int256, reverting on\\n     * overflow (when the input is less than smallest int216 or\\n     * greater than largest int216).\\n     *\\n     * Counterpart to Solidity's `int216` operator.\\n     *\\n     * Requirements:\\n     *\\n     * - input must fit into 216 bits\\n     */\\n    function toInt216(int256 value) internal pure returns (int216 downcasted) {\\n        downcasted = int216(value);\\n        if (downcasted != value) {\\n            revert SafeCastOverflowedIntDowncast(216, value);\\n        }\\n    }\\n\\n    /**\\n     * @dev Returns the downcasted int208 from int256, reverting on\\n     * overflow (when the input is less than smallest int208 or\\n     * greater than largest int208).\\n     *\\n     * Counterpart to Solidity's `int208` operator.\\n     *\\n     * Requirements:\\n     *\\n     * - input must fit into 208 bits\\n     */\\n    function toInt208(int256 value) internal pure returns (int208 downcasted) {\\n        downcasted = int208(value);\\n        if (downcasted != value) {\\n            revert SafeCastOverflowedIntDowncast(208, value);\\n        }\\n    }\\n\\n    /**\\n     * @dev Returns the downcasted int200 from int256, reverting on\\n     * overflow (when the input is less than smallest int200 or\\n     * greater than largest int200).\\n     *\\n     * Counterpart to Solidity's `int200` operator.\\n     *\\n     * Requirements:\\n     *\\n     * - input must fit into 200 bits\\n     */\\n    function toInt200(int256 value) internal pure returns (int200 downcasted) {\\n        downcasted = int200(value);\\n        if (downcasted != value) {\\n            revert SafeCastOverflowedIntDowncast(200, value);\\n        }\\n    }\\n\\n    /**\\n     * @dev Returns the downcasted int192 from int256, reverting on\\n     * overflow (when the input is less than smallest int192 or\\n     * greater than largest int192).\\n     *\\n     * Counterpart to Solidity's `int192` operator.\\n     *\\n     * Requirements:\\n     *\\n     * - input must fit into 192 bits\\n     */\\n    function toInt192(int256 value) internal pure returns (int192 downcasted) {\\n        downcasted = int192(value);\\n        if (downcasted != value) {\\n            revert SafeCastOverflowedIntDowncast(192, value);\\n        }\\n    }\\n\\n    /**\\n     * @dev Returns the downcasted int184 from int256, reverting on\\n     * overflow (when the input is less than smallest int184 or\\n     * greater than largest int184).\\n     *\\n     * Counterpart to Solidity's `int184` operator.\\n     *\\n     * Requirements:\\n     *\\n     * - input must fit into 184 bits\\n     */\\n    function toInt184(int256 value) internal pure returns (int184 downcasted) {\\n        downcasted = int184(value);\\n        if (downcasted != value) {\\n            revert SafeCastOverflowedIntDowncast(184, value);\\n        }\\n    }\\n\\n    /**\\n     * @dev Returns the downcasted int176 from int256, reverting on\\n     * overflow (when the input is less than smallest int176 or\\n     * greater than largest int176).\\n     *\\n     * Counterpart to Solidity's `int176` operator.\\n     *\\n     * Requirements:\\n     *\\n     * - input must fit into 176 bits\\n     */\\n    function toInt176(int256 value) internal pure returns (int176 downcasted) {\\n        downcasted = int176(value);\\n        if (downcasted != value) {\\n            revert SafeCastOverflowedIntDowncast(176, value);\\n        }\\n    }\\n\\n    /**\\n     * @dev Returns the downcasted int168 from int256, reverting on\\n     * overflow (when the input is less than smallest int168 or\\n     * greater than largest int168).\\n     *\\n     * Counterpart to Solidity's `int168` operator.\\n     *\\n     * Requirements:\\n     *\\n     * - input must fit into 168 bits\\n     */\\n    function toInt168(int256 value) internal pure returns (int168 downcasted) {\\n        downcasted = int168(value);\\n        if (downcasted != value) {\\n            revert SafeCastOverflowedIntDowncast(168, value);\\n        }\\n    }\\n\\n    /**\\n     * @dev Returns the downcasted int160 from int256, reverting on\\n     * overflow (when the input is less than smallest int160 or\\n     * greater than largest int160).\\n     *\\n     * Counterpart to Solidity's `int160` operator.\\n     *\\n     * Requirements:\\n     *\\n     * - input must fit into 160 bits\\n     */\\n    function toInt160(int256 value) internal pure returns (int160 downcasted) {\\n        downcasted = int160(value);\\n        if (downcasted != value) {\\n            revert SafeCastOverflowedIntDowncast(160, value);\\n        }\\n    }\\n\\n    /**\\n     * @dev Returns the downcasted int152 from int256, reverting on\\n     * overflow (when the input is less than smallest int152 or\\n     * greater than largest int152).\\n     *\\n     * Counterpart to Solidity's `int152` operator.\\n     *\\n     * Requirements:\\n     *\\n     * - input must fit into 152 bits\\n     */\\n    function toInt152(int256 value) internal pure returns (int152 downcasted) {\\n        downcasted = int152(value);\\n        if (downcasted != value) {\\n            revert SafeCastOverflowedIntDowncast(152, value);\\n        }\\n    }\\n\\n    /**\\n     * @dev Returns the downcasted int144 from int256, reverting on\\n     * overflow (when the input is less than smallest int144 or\\n     * greater than largest int144).\\n     *\\n     * Counterpart to Solidity's `int144` operator.\\n     *\\n     * Requirements:\\n     *\\n     * - input must fit into 144 bits\\n     */\\n    function toInt144(int256 value) internal pure returns (int144 downcasted) {\\n        downcasted = int144(value);\\n        if (downcasted != value) {\\n            revert SafeCastOverflowedIntDowncast(144, value);\\n        }\\n    }\\n\\n    /**\\n     * @dev Returns the downcasted int136 from int256, reverting on\\n     * overflow (when the input is less than smallest int136 or\\n     * greater than largest int136).\\n     *\\n     * Counterpart to Solidity's `int136` operator.\\n     *\\n     * Requirements:\\n     *\\n     * - input must fit into 136 bits\\n     */\\n    function toInt136(int256 value) internal pure returns (int136 downcasted) {\\n        downcasted = int136(value);\\n        if (downcasted != value) {\\n            revert SafeCastOverflowedIntDowncast(136, value);\\n        }\\n    }\\n\\n    /**\\n     * @dev Returns the downcasted int128 from int256, reverting on\\n     * overflow (when the input is less than smallest int128 or\\n     * greater than largest int128).\\n     *\\n     * Counterpart to Solidity's `int128` operator.\\n     *\\n     * Requirements:\\n     *\\n     * - input must fit into 128 bits\\n     */\\n    function toInt128(int256 value) internal pure returns (int128 downcasted) {\\n        downcasted = int128(value);\\n        if (downcasted != value) {\\n            revert SafeCastOverflowedIntDowncast(128, value);\\n        }\\n    }\\n\\n    /**\\n     * @dev Returns the downcasted int120 from int256, reverting on\\n     * overflow (when the input is less than smallest int120 or\\n     * greater than largest int120).\\n     *\\n     * Counterpart to Solidity's `int120` operator.\\n     *\\n     * Requirements:\\n     *\\n     * - input must fit into 120 bits\\n     */\\n    function toInt120(int256 value) internal pure returns (int120 downcasted) {\\n        downcasted = int120(value);\\n        if (downcasted != value) {\\n            revert SafeCastOverflowedIntDowncast(120, value);\\n        }\\n    }\\n\\n    /**\\n     * @dev Returns the downcasted int112 from int256, reverting on\\n     * overflow (when the input is less than smallest int112 or\\n     * greater than largest int112).\\n     *\\n     * Counterpart to Solidity's `int112` operator.\\n     *\\n     * Requirements:\\n     *\\n     * - input must fit into 112 bits\\n     */\\n    function toInt112(int256 value) internal pure returns (int112 downcasted) {\\n        downcasted = int112(value);\\n        if (downcasted != value) {\\n            revert SafeCastOverflowedIntDowncast(112, value);\\n        }\\n    }\\n\\n    /**\\n     * @dev Returns the downcasted int104 from int256, reverting on\\n     * overflow (when the input is less than smallest int104 or\\n     * greater than largest int104).\\n     *\\n     * Counterpart to Solidity's `int104` operator.\\n     *\\n     * Requirements:\\n     *\\n     * - input must fit into 104 bits\\n     */\\n    function toInt104(int256 value) internal pure returns (int104 downcasted) {\\n        downcasted = int104(value);\\n        if (downcasted != value) {\\n            revert SafeCastOverflowedIntDowncast(104, value);\\n        }\\n    }\\n\\n    /**\\n     * @dev Returns the downcasted int96 from int256, reverting on\\n     * overflow (when the input is less than smallest int96 or\\n     * greater than largest int96).\\n     *\\n     * Counterpart to Solidity's `int96` operator.\\n     *\\n     * Requirements:\\n     *\\n     * - input must fit into 96 bits\\n     */\\n    function toInt96(int256 value) internal pure returns (int96 downcasted) {\\n        downcasted = int96(value);\\n        if (downcasted != value) {\\n            revert SafeCastOverflowedIntDowncast(96, value);\\n        }\\n    }\\n\\n    /**\\n     * @dev Returns the downcasted int88 from int256, reverting on\\n     * overflow (when the input is less than smallest int88 or\\n     * greater than largest int88).\\n     *\\n     * Counterpart to Solidity's `int88` operator.\\n     *\\n     * Requirements:\\n     *\\n     * - input must fit into 88 bits\\n     */\\n    function toInt88(int256 value) internal pure returns (int88 downcasted) {\\n        downcasted = int88(value);\\n        if (downcasted != value) {\\n            revert SafeCastOverflowedIntDowncast(88, value);\\n        }\\n    }\\n\\n    /**\\n     * @dev Returns the downcasted int80 from int256, reverting on\\n     * overflow (when the input is less than smallest int80 or\\n     * greater than largest int80).\\n     *\\n     * Counterpart to Solidity's `int80` operator.\\n     *\\n     * Requirements:\\n     *\\n     * - input must fit into 80 bits\\n     */\\n    function toInt80(int256 value) internal pure returns (int80 downcasted) {\\n        downcasted = int80(value);\\n        if (downcasted != value) {\\n            revert SafeCastOverflowedIntDowncast(80, value);\\n        }\\n    }\\n\\n    /**\\n     * @dev Returns the downcasted int72 from int256, reverting on\\n     * overflow (when the input is less than smallest int72 or\\n     * greater than largest int72).\\n     *\\n     * Counterpart to Solidity's `int72` operator.\\n     *\\n     * Requirements:\\n     *\\n     * - input must fit into 72 bits\\n     */\\n    function toInt72(int256 value) internal pure returns (int72 downcasted) {\\n        downcasted = int72(value);\\n        if (downcasted != value) {\\n            revert SafeCastOverflowedIntDowncast(72, value);\\n        }\\n    }\\n\\n    /**\\n     * @dev Returns the downcasted int64 from int256, reverting on\\n     * overflow (when the input is less than smallest int64 or\\n     * greater than largest int64).\\n     *\\n     * Counterpart to Solidity's `int64` operator.\\n     *\\n     * Requirements:\\n     *\\n     * - input must fit into 64 bits\\n     */\\n    function toInt64(int256 value) internal pure returns (int64 downcasted) {\\n        downcasted = int64(value);\\n        if (downcasted != value) {\\n            revert SafeCastOverflowedIntDowncast(64, value);\\n        }\\n    }\\n\\n    /**\\n     * @dev Returns the downcasted int56 from int256, reverting on\\n     * overflow (when the input is less than smallest int56 or\\n     * greater than largest int56).\\n     *\\n     * Counterpart to Solidity's `int56` operator.\\n     *\\n     * Requirements:\\n     *\\n     * - input must fit into 56 bits\\n     */\\n    function toInt56(int256 value) internal pure returns (int56 downcasted) {\\n        downcasted = int56(value);\\n        if (downcasted != value) {\\n            revert SafeCastOverflowedIntDowncast(56, value);\\n        }\\n    }\\n\\n    /**\\n     * @dev Returns the downcasted int48 from int256, reverting on\\n     * overflow (when the input is less than smallest int48 or\\n     * greater than largest int48).\\n     *\\n     * Counterpart to Solidity's `int48` operator.\\n     *\\n     * Requirements:\\n     *\\n     * - input must fit into 48 bits\\n     */\\n    function toInt48(int256 value) internal pure returns (int48 downcasted) {\\n        downcasted = int48(value);\\n        if (downcasted != value) {\\n            revert SafeCastOverflowedIntDowncast(48, value);\\n        }\\n    }\\n\\n    /**\\n     * @dev Returns the downcasted int40 from int256, reverting on\\n     * overflow (when the input is less than smallest int40 or\\n     * greater than largest int40).\\n     *\\n     * Counterpart to Solidity's `int40` operator.\\n     *\\n     * Requirements:\\n     *\\n     * - input must fit into 40 bits\\n     */\\n    function toInt40(int256 value) internal pure returns (int40 downcasted) {\\n        downcasted = int40(value);\\n        if (downcasted != value) {\\n            revert SafeCastOverflowedIntDowncast(40, value);\\n        }\\n    }\\n\\n    /**\\n     * @dev Returns the downcasted int32 from int256, reverting on\\n     * overflow (when the input is less than smallest int32 or\\n     * greater than largest int32).\\n     *\\n     * Counterpart to Solidity's `int32` operator.\\n     *\\n     * Requirements:\\n     *\\n     * - input must fit into 32 bits\\n     */\\n    function toInt32(int256 value) internal pure returns (int32 downcasted) {\\n        downcasted = int32(value);\\n        if (downcasted != value) {\\n            revert SafeCastOverflowedIntDowncast(32, value);\\n        }\\n    }\\n\\n    /**\\n     * @dev Returns the downcasted int24 from int256, reverting on\\n     * overflow (when the input is less than smallest int24 or\\n     * greater than largest int24).\\n     *\\n     * Counterpart to Solidity's `int24` operator.\\n     *\\n     * Requirements:\\n     *\\n     * - input must fit into 24 bits\\n     */\\n    function toInt24(int256 value) internal pure returns (int24 downcasted) {\\n        downcasted = int24(value);\\n        if (downcasted != value) {\\n            revert SafeCastOverflowedIntDowncast(24, value);\\n        }\\n    }\\n\\n    /**\\n     * @dev Returns the downcasted int16 from int256, reverting on\\n     * overflow (when the input is less than smallest int16 or\\n     * greater than largest int16).\\n     *\\n     * Counterpart to Solidity's `int16` operator.\\n     *\\n     * Requirements:\\n     *\\n     * - input must fit into 16 bits\\n     */\\n    function toInt16(int256 value) internal pure returns (int16 downcasted) {\\n        downcasted = int16(value);\\n        if (downcasted != value) {\\n            revert SafeCastOverflowedIntDowncast(16, value);\\n        }\\n    }\\n\\n    /**\\n     * @dev Returns the downcasted int8 from int256, reverting on\\n     * overflow (when the input is less than smallest int8 or\\n     * greater than largest int8).\\n     *\\n     * Counterpart to Solidity's `int8` operator.\\n     *\\n     * Requirements:\\n     *\\n     * - input must fit into 8 bits\\n     */\\n    function toInt8(int256 value) internal pure returns (int8 downcasted) {\\n        downcasted = int8(value);\\n        if (downcasted != value) {\\n            revert SafeCastOverflowedIntDowncast(8, value);\\n        }\\n    }\\n\\n    /**\\n     * @dev Converts an unsigned uint256 into a signed int256.\\n     *\\n     * Requirements:\\n     *\\n     * - input must be less than or equal to maxInt256.\\n     */\\n    function toInt256(uint256 value) internal pure returns (int256) {\\n        // Note: Unsafe cast below is okay because `type(int256).max` is guaranteed to be positive\\n        if (value > uint256(type(int256).max)) {\\n            revert SafeCastOverflowedUintToInt(value);\\n        }\\n        return int256(value);\\n    }\\n\\n    /**\\n     * @dev Cast a boolean (false or true) to a uint256 (0 or 1) with no jump.\\n     */\\n    function toUint(bool b) internal pure returns (uint256 u) {\\n        assembly (\\\"memory-safe\\\") {\\n            u := iszero(iszero(b))\\n        }\\n    }\\n}\\n\"},\"@openzeppelin/contracts/utils/Panic.sol\":{\"content\":\"// SPDX-License-Identifier: MIT\\n// OpenZeppelin Contracts (last updated v5.1.0) (utils/Panic.sol)\\n\\npragma solidity ^0.8.20;\\n\\n/**\\n * @dev Helper library for emitting standardized panic codes.\\n *\\n * ```solidity\\n * contract Example {\\n *      using Panic for uint256;\\n *\\n *      // Use any of the declared internal constants\\n *      function foo() { Panic.GENERIC.panic(); }\\n *\\n *      // Alternatively\\n *      function foo() { Panic.panic(Panic.GENERIC); }\\n * }\\n * ```\\n *\\n * Follows the list from https://github.com/ethereum/solidity/blob/v0.8.24/libsolutil/ErrorCodes.h[libsolutil].\\n *\\n * _Available since v5.1._\\n */\\n// slither-disable-next-line unused-state\\nlibrary Panic {\\n    /// @dev generic / unspecified error\\n    uint256 internal constant GENERIC = 0x00;\\n    /// @dev used by the assert() builtin\\n    uint256 internal constant ASSERT = 0x01;\\n    /// @dev arithmetic underflow or overflow\\n    uint256 internal constant UNDER_OVERFLOW = 0x11;\\n    /// @dev division or modulo by zero\\n    uint256 internal constant DIVISION_BY_ZERO = 0x12;\\n    /// @dev enum conversion error\\n    uint256 internal constant ENUM_CONVERSION_ERROR = 0x21;\\n    /// @dev invalid encoding in storage\\n    uint256 internal constant STORAGE_ENCODING_ERROR = 0x22;\\n    /// @dev empty array pop\\n    uint256 internal constant EMPTY_ARRAY_POP = 0x31;\\n    /// @dev array out of bounds access\\n    uint256 internal constant ARRAY_OUT_OF_BOUNDS = 0x32;\\n    /// @dev resource error (too large allocation or too large array)\\n    uint256 internal constant RESOURCE_ERROR = 0x41;\\n    /// @dev calling invalid internal function\\n    uint256 internal constant INVALID_INTERNAL_FUNCTION = 0x51;\\n\\n    /// @dev Reverts with a panic code. Recommended to use with\\n    /// the internal constants with predefined codes.\\n    function panic(uint256 code) internal pure {\\n        assembly (\\\"memory-safe\\\") {\\n            mstore(0x00, 0x4e487b71)\\n            mstore(0x20, code)\\n            revert(0x1c, 0x24)\\n        }\\n    }\\n}\\n\"}},\"settings\":{\"optimizer\":{\"enabled\":false,\"runs\":200},\"outputSelection\":{\"*\":{\"\":[\"ast\"],\"*\":[\"abi\",\"metadata\",\"devdoc\",\"userdoc\",\"storageLayout\",\"evm.legacyAssembly\",\"evm.bytecode\",\"evm.deployedBytecode\",\"evm.methodIdentifiers\",\"evm.gasEstimates\",\"evm.assembly\"]}},\"remappings\":[]}}",
	"name": "PMUniversalVerifier",
	"bytecode": {
		"linkReferences": {},
		"object": "608060405234801562000010575f80fd5b506040516200629638038062006296833981810160405281019062000036919062000418565b818162000049816200011860201b60201c565b505f73ffffffffffffffffffffffffffffffffffffffff168173ffffffffffffffffffffffffffffffffffffffff1603620000bd575f6040517f1e4fbdf7000000000000000000000000000000000000000000000000000000008152600401620000b49190620004a1565b60405180910390fd5b620000ce816200012d60201b60201c565b5082600b5f6101000a81548173ffffffffffffffffffffffffffffffffffffffff021916908373ffffffffffffffffffffffffffffffffffffffff160217905550505050620007d7565b8060029081620001299190620006f3565b5050565b5f60035f9054906101000a900473ffffffffffffffffffffffffffffffffffffffff1690508160035f6101000a81548173ffffffffffffffffffffffffffffffffffffffff021916908373ffffffffffffffffffffffffffffffffffffffff1602179055508173ffffffffffffffffffffffffffffffffffffffff168173ffffffffffffffffffffffffffffffffffffffff167f8be0079c531659141344cd1fd0a4f28419497f9722a3daafe3b4186f6b6457e060405160405180910390a35050565b5f604051905090565b5f80fd5b5f80fd5b5f73ffffffffffffffffffffffffffffffffffffffff82169050919050565b5f6200022c8262000201565b9050919050565b5f6200023f8262000220565b9050919050565b620002518162000233565b81146200025c575f80fd5b50565b5f815190506200026f8162000246565b92915050565b620002808162000220565b81146200028b575f80fd5b50565b5f815190506200029e8162000275565b92915050565b5f80fd5b5f80fd5b5f601f19601f8301169050919050565b7f4e487b71000000000000000000000000000000000000000000000000000000005f52604160045260245ffd5b620002f482620002ac565b810181811067ffffffffffffffff82111715620003165762000315620002bc565b5b80604052505050565b5f6200032a620001f0565b9050620003388282620002e9565b919050565b5f67ffffffffffffffff8211156200035a5762000359620002bc565b5b6200036582620002ac565b9050602081019050919050565b5f5b838110156200039157808201518184015260208101905062000374565b5f8484015250505050565b5f620003b2620003ac846200033d565b6200031f565b905082815260208101848484011115620003d157620003d0620002a8565b5b620003de84828562000372565b509392505050565b5f82601f830112620003fd57620003fc620002a4565b5b81516200040f8482602086016200039c565b91505092915050565b5f805f60608486031215620004325762000431620001f9565b5b5f62000441868287016200025f565b935050602062000454868287016200028e565b925050604084015167ffffffffffffffff811115620004785762000477620001fd565b5b6200048686828701620003e6565b9150509250925092565b6200049b8162000220565b82525050565b5f602082019050620004b65f83018462000490565b92915050565b5f81519050919050565b7f4e487b71000000000000000000000000000000000000000000000000000000005f52602260045260245ffd5b5f60028204905060018216806200050b57607f821691505b602082108103620005215762000520620004c6565b5b50919050565b5f819050815f5260205f209050919050565b5f6020601f8301049050919050565b5f82821b905092915050565b5f60088302620005857fffffffffffffffffffffffffffffffffffffffffffffffffffffffffffffffff8262000548565b62000591868362000548565b95508019841693508086168417925050509392505050565b5f819050919050565b5f819050919050565b5f620005db620005d5620005cf84620005a9565b620005b2565b620005a9565b9050919050565b5f819050919050565b620005f683620005bb565b6200060e6200060582620005e2565b84845462000554565b825550505050565b5f90565b6200062462000616565b62000631818484620005eb565b505050565b5b8181101562000658576200064c5f826200061a565b60018101905062000637565b5050565b601f821115620006a757620006718162000527565b6200067c8462000539565b810160208510156200068c578190505b620006a46200069b8562000539565b83018262000636565b50505b505050565b5f82821c905092915050565b5f620006c95f1984600802620006ac565b1980831691505092915050565b5f620006e38383620006b8565b9150826002028217905092915050565b620006fe82620004bc565b67ffffffffffffffff8111156200071a5762000719620002bc565b5b620007268254620004f3565b620007338282856200065c565b5f60209050601f83116001811462000769575f841562000754578287015190505b620007608582620006d6565b865550620007cf565b601f198416620007798662000527565b5f5b82811015620007a2578489015182556001820191506020850194506020810190506200077b565b86831015620007c25784890151620007be601f891682620006b8565b8355505b6001600288020188555050505b505050505050565b615ab180620007e55f395ff3fe608060405234801561000f575f80fd5b50600436106101c1575f3560e01c80637330dd84116100f7578063cf5219ad11610095578063e985e9c51161006f578063e985e9c514610516578063f242432a14610546578063f2fde38b14610562578063f5298aca1461057e576101c1565b8063cf5219ad14610498578063d121cdc0146104b6578063e725f877146104e6576101c1565b80638da5cb5b116100d15780638da5cb5b146104105780638ed46cfd1461042e578063a22cb46514610460578063c1f959131461047c576101c1565b80637330dd84146103b85780637578b248146103d4578063784008ce146103f2576101c1565b80632eb2c2d6116101645780634e1273f41161013e5780634e1273f41461034657806350fbdb2d146103765780637048027514610392578063715018a6146103ae576101c1565b80632eb2c2d6146102dc5780632f4955f6146102f857806331ae450b14610328576101c1565b80630e89341c116101a05780630e89341c146102565780631785f53c146102865780632b7ac3f3146102a25780632dbff950146102c0576101c1565b8062fdd58e146101c557806301843a14146101f557806301ffc9a714610226575b5f80fd5b6101df60048036038101906101da91906137e9565b61059a565b6040516101ec9190613836565b60405180910390f35b61020f600480360381019061020a919061384f565b6105ef565b60405161021d929190613ae4565b60405180910390f35b610240600480360381019061023b9190613b6e565b610ac6565b60405161024d9190613bb3565b60405180910390f35b610270600480360381019061026b919061384f565b610ba7565b60405161027d9190613c14565b60405180910390f35b6102a0600480360381019061029b9190613c34565b610c39565b005b6102aa610e00565b6040516102b79190613cba565b60405180910390f35b6102da60048036038101906102d59190613d89565b610e25565b005b6102f660048036038101906102f19190614014565b611105565b005b610312600480360381019061030d9190614109565b611241565b60405161031f9190613c14565b60405180910390f35b6103306112e7565b60405161033d91906141fe565b60405180910390f35b610360600480360381019061035b91906142de565b61137a565b60405161036d919061440b565b60405180910390f35b610390600480360381019061038b9190614109565b611487565b005b6103ac60048036038101906103a79190613c34565b6117a6565b005b6103b66118c8565b005b6103d260048036038101906103cd9190614488565b6118db565b005b6103dc611bbb565b6040516103e9919061440b565b60405180910390f35b6103fa611bcc565b6040516104079190613836565b60405180910390f35b610418611bd1565b60405161042591906145b0565b60405180910390f35b61044860048036038101906104439190614109565b611bf9565b604051610457939291906145c9565b60405180910390f35b61047a6004803603810190610475919061463d565b611dbc565b005b6104966004803603810190610491919061467b565b611dd2565b005b6104a061207f565b6040516104ad9190613836565b60405180910390f35b6104d060048036038101906104cb919061384f565b612084565b6040516104dd91906146fb565b60405180910390f35b61050060048036038101906104fb919061384f565b6120bf565b60405161050d9190613c14565b60405180910390f35b610530600480360381019061052b9190614714565b61215a565b60405161053d9190613bb3565b60405180910390f35b610560600480360381019061055b9190614752565b6121e8565b005b61057c60048036038101906105779190613c34565b612207565b005b610598600480360381019061059391906147e5565b61228b565b005b5f805f8381526020019081526020015f205f8473ffffffffffffffffffffffffffffffffffffffff1673ffffffffffffffffffffffffffffffffffffffff1681526020019081526020015f2054905092915050565b6060805f600a80548060200260200160405190810160405280929190818152602001828054801561067057602002820191905f5260205f20905f905b82829054906101000a900467ffffffffffffffff1667ffffffffffffffff168152602001906008019060208260070104928301926001038202915080841161062b5790505b505050505090505f805b8251811015610709575f60095f8881526020019081526020015f205f8584815181106106a9576106a8614835565b5b602002602001015167ffffffffffffffff1667ffffffffffffffff1681526020019081526020015f205f0180546106df9061488f565b905011156106f65781806106f2906148ec565b9250505b8080610701906148ec565b91505061067a565b505f8167ffffffffffffffff81111561072557610724613e2c565b5b6040519080825280602002602001820160405280156107535781602001602082028036833780820191505090505b5090505f8267ffffffffffffffff81111561077157610770613e2c565b5b6040519080825280602002602001820160405280156107aa57816020015b6107976136d2565b81526020019060019003908161078f5790505b5090505f805b8551811015610ab5575f60095f8b81526020019081526020015f205f8884815181106107df576107de614835565b5b602002602001015167ffffffffffffffff1667ffffffffffffffff1681526020019081526020015f205f0180546108159061488f565b90501115610aa2578581815181106108305761082f614835565b5b602002602001015184838151811061084b5761084a614835565b5b602002602001019067ffffffffffffffff16908167ffffffffffffffff168152505060095f8a81526020019081526020015f205f87838151811061089257610891614835565b5b602002602001015167ffffffffffffffff1667ffffffffffffffff1681526020019081526020015f206040518060600160405290815f820180546108d59061488f565b80601f01602080910402602001604051908101604052809291908181526020018280546109019061488f565b801561094c5780601f106109235761010080835404028352916020019161094c565b820191905f5260205f20905b81548152906001019060200180831161092f57829003601f168201915b505050505081526020016001820180546109659061488f565b80601f01602080910402602001604051908101604052809291908181526020018280546109919061488f565b80156109dc5780601f106109b3576101008083540402835291602001916109dc565b820191905f5260205f20905b8154815290600101906020018083116109bf57829003601f168201915b505050505081526020016002820180546109f59061488f565b80601f0160208091040260200160405190810160405280929190818152602001828054610a219061488f565b8015610a6c5780601f10610a4357610100808354040283529160200191610a6c565b820191905f5260205f20905b815481529060010190602001808311610a4f57829003601f168201915b505050505081525050838381518110610a8857610a87614835565b5b60200260200101819052508180610a9e906148ec565b9250505b8080610aad906148ec565b9150506107b0565b508282965096505050505050915091565b5f7fd9b67a26000000000000000000000000000000000000000000000000000000007bffffffffffffffffffffffffffffffffffffffffffffffffffffffff1916827bffffffffffffffffffffffffffffffffffffffffffffffffffffffff19161480610b9057507f0e89341c000000000000000000000000000000000000000000000000000000007bffffffffffffffffffffffffffffffffffffffffffffffffffffffff1916827bffffffffffffffffffffffffffffffffffffffffffffffffffffffff1916145b80610ba05750610b9f826122a3565b5b9050919050565b606060028054610bb69061488f565b80601f0160208091040260200160405190810160405280929190818152602001828054610be29061488f565b8015610c2d5780601f10610c0457610100808354040283529160200191610c2d565b820191905f5260205f20905b815481529060010190602001808311610c1057829003601f168201915b50505050509050919050565b610c4161230c565b5f60048054905090505f5b81811015610dc1578273ffffffffffffffffffffffffffffffffffffffff1660048281548110610c7f57610c7e614835565b5b905f5260205f20015f9054906101000a900473ffffffffffffffffffffffffffffffffffffffff1673ffffffffffffffffffffffffffffffffffffffff1603610dae576004600183610cd19190614933565b81548110610ce257610ce1614835565b5b905f5260205f20015f9054906101000a900473ffffffffffffffffffffffffffffffffffffffff1660048281548110610d1e57610d1d614835565b5b905f5260205f20015f6101000a81548173ffffffffffffffffffffffffffffffffffffffff021916908373ffffffffffffffffffffffffffffffffffffffff1602179055506004805480610d7557610d74614966565b5b600190038181905f5260205f20015f6101000a81549073ffffffffffffffffffffffffffffffffffffffff021916905590555050610dfd565b8080610db9906148ec565b915050610c4c565b506040517f08c379a0000000000000000000000000000000000000000000000000000000008152600401610df4906149dd565b60405180910390fd5b50565b600b5f9054906101000a900473ffffffffffffffffffffffffffffffffffffffff1681565b5f8282905011610e6a576040517f08c379a0000000000000000000000000000000000000000000000000000000008152600401610e6190614a45565b60405180910390fd5b5f805f610e776005612393565b90505f5b8151811015610f1a578585604051610e94929190614a91565b604051809103902060075f848481518110610eb257610eb1614835565b5b602002602001015181526020019081526020015f20604051610ed49190614b3b565b604051809103902003610f0757818181518110610ef457610ef3614835565b5b6020026020010151935060019250610f1a565b8080610f12906148ec565b915050610e7b565b508115610f7557610f7089848a8a8a8080601f0160208091040260200160405190810160405280939291908181526020018383808284375f81840152601f19601f820116905080830192505050505050506123b2565b6110fa565b5f805f90505b62015f9042448d8a8a86604051602001610f9a96959493929190614be4565b604051602081830303815290604052805190602001205f1c610fbc9190614c6d565b6103e8610fc99190614c9d565b91508080610fd6906148ec565b9150506064811061101c576040517f08c379a000000000000000000000000000000000000000000000000000000000815260040161101390614d40565b60405180910390fd5b61103082600561244790919063ffffffff16565b610f7b5761104882600561245e90919063ffffffff16565b611087576040517f08c379a000000000000000000000000000000000000000000000000000000000815260040161107e90614da8565b60405180910390fd5b6110d68b838c8c8c8080601f0160208091040260200160405190810160405280939291908181526020018383808284375f81840152601f19601f820116905080830192505050505050506123b2565b868660075f8581526020019081526020015f2091826110f6929190614f64565b5050505b505050505050505050565b8151835114611149576040517f08c379a0000000000000000000000000000000000000000000000000000000008152600401611140906150a1565b60405180910390fd5b5f73ffffffffffffffffffffffffffffffffffffffff168473ffffffffffffffffffffffffffffffffffffffff16036111b7576040517f08c379a00000000000000000000000000000000000000000000000000000000081526004016111ae9061512f565b60405180910390fd5b5f5b8351811015611239576111e78482815181106111d8576111d7614835565b5b60200260200101518787612475565b61122886868684815181106111ff576111fe614835565b5b602002602001015186858151811061121a57611219614835565b5b6020026020010151866121e8565b80611232906148ec565b90506111b9565b505050505050565b6008602052815f5260405f20602052805f5260405f205f915091505080546112689061488f565b80601f01602080910402602001604051908101604052809291908181526020018280546112949061488f565b80156112df5780601f106112b6576101008083540402835291602001916112df565b820191905f5260205f20905b8154815290600101906020018083116112c257829003601f168201915b505050505081565b60606112f161230c565b600480548060200260200160405190810160405280929190818152602001828054801561137057602002820191905f5260205f20905b815f9054906101000a900473ffffffffffffffffffffffffffffffffffffffff1673ffffffffffffffffffffffffffffffffffffffff1681526020019060010190808311611327575b5050505050905090565b606081518351146113c657815183516040517f5b0599910000000000000000000000000000000000000000000000000000000081526004016113bd92919061514d565b60405180910390fd5b5f835167ffffffffffffffff8111156113e2576113e1613e2c565b5b6040519080825280602002602001820160405280156114105781602001602082028036833780820191505090505b5090505f5b845181101561147c5761144c61143482876128d290919063ffffffff16565b61144783876128e590919063ffffffff16565b61059a565b82828151811061145f5761145e614835565b5b60200260200101818152505080611475906148ec565b9050611415565b508091505092915050565b611490336128f8565b6114cf576040517f08c379a00000000000000000000000000000000000000000000000000000000081526004016114c6906151be565b60405180910390fd5b6114e382600561244790919063ffffffff16565b611522576040517f08c379a000000000000000000000000000000000000000000000000000000000815260040161151990615226565b60405180910390fd5b5f60085f8481526020019081526020015f205f8367ffffffffffffffff1667ffffffffffffffff1681526020019081526020015f2080546115629061488f565b9050036115a4576040517f08c379a000000000000000000000000000000000000000000000000000000000815260040161159b9061528e565b60405180910390fd5b60085f8381526020019081526020015f205f8267ffffffffffffffff1667ffffffffffffffff1681526020019081526020015f205f6115e391906136f3565b60095f8381526020019081526020015f205f8267ffffffffffffffff1667ffffffffffffffff1681526020019081526020015f205f8082015f61162691906136f3565b600182015f61163591906136f3565b600282015f61164491906136f3565b50505f5b600a805490508110156117a1578167ffffffffffffffff16600a828154811061167457611673614835565b5b905f5260205f2090600491828204019190066008029054906101000a900467ffffffffffffffff1667ffffffffffffffff160361178e57600a6001600a805490506116bf9190614933565b815481106116d0576116cf614835565b5b905f5260205f2090600491828204019190066008029054906101000a900467ffffffffffffffff16600a828154811061170c5761170b614835565b5b905f5260205f2090600491828204019190066008026101000a81548167ffffffffffffffff021916908367ffffffffffffffff160217905550600a80548061175757611756614966565b5b600190038181905f5260205f2090600491828204019190066008026101000a81549067ffffffffffffffff021916905590556117a1565b8080611799906148ec565b915050611648565b505050565b6117ae61230c565b5f73ffffffffffffffffffffffffffffffffffffffff168173ffffffffffffffffffffffffffffffffffffffff160361181c576040517f08c379a0000000000000000000000000000000000000000000000000000000008152600401611813906152f6565b60405180910390fd5b611825816128f8565b15611865576040517f08c379a000000000000000000000000000000000000000000000000000000000815260040161185c9061535e565b60405180910390fd5b600481908060018154018082558091505060019003905f5260205f20015f9091909190916101000a81548173ffffffffffffffffffffffffffffffffffffffff021916908373ffffffffffffffffffffffffffffffffffffffff16021790555050565b6118d061230c565b6118d95f6129a0565b565b5f60405180606001604052808b8b8080601f0160208091040260200160405190810160405280939291908181526020018383808284375f81840152601f19601f8201169050808301925050505050505081526020018973ffffffffffffffffffffffffffffffffffffffff16815260200188888080601f0160208091040260200160405190810160405280939291908181526020018383808284375f81840152601f19601f820116905080830192505050505050508152509050600b5f9054906101000a900473ffffffffffffffffffffffffffffffffffffffff1673ffffffffffffffffffffffffffffffffffffffff16639f5223e08c836040518363ffffffff1660e01b81526004016119f1929190615442565b5f604051808303815f87803b158015611a08575f80fd5b505af1158015611a1a573d5f803e3d5ffd5b50505050611a2a858c8686611dd2565b604051806060016040528083805f0190611a44919061547c565b8080601f0160208091040260200160405190810160405280939291908181526020018383808284375f81840152601f19601f820116905080830192505050505050508152602001838060200190611a9b919061547c565b8080601f0160208091040260200160405190810160405280939291908181526020018383808284375f81840152601f19601f820116905080830192505050505050508152602001838060400190611af2919061547c565b8080601f0160208091040260200160405190810160405280939291908181526020018383808284375f81840152601f19601f8201169050808301925050505050505081525060095f8781526020019081526020015f205f8d67ffffffffffffffff1667ffffffffffffffff1681526020019081526020015f205f820151815f019081611b7e91906154de565b506020820151816001019081611b9491906154de565b506040820151816002019081611baa91906154de565b509050505050505050505050505050565b6060611bc76005612393565b905090565b600181565b5f60035f9054906101000a900473ffffffffffffffffffffffffffffffffffffffff16905090565b6009602052815f5260405f20602052805f5260405f205f9150915050805f018054611c239061488f565b80601f0160208091040260200160405190810160405280929190818152602001828054611c4f9061488f565b8015611c9a5780601f10611c7157610100808354040283529160200191611c9a565b820191905f5260205f20905b815481529060010190602001808311611c7d57829003601f168201915b505050505090806001018054611caf9061488f565b80601f0160208091040260200160405190810160405280929190818152602001828054611cdb9061488f565b8015611d265780601f10611cfd57610100808354040283529160200191611d26565b820191905f5260205f20905b815481529060010190602001808311611d0957829003601f168201915b505050505090806002018054611d3b9061488f565b80601f0160208091040260200160405190810160405280929190818152602001828054611d679061488f565b8015611db25780601f10611d8957610100808354040283529160200191611db2565b820191905f5260205f20905b815481529060010190602001808311611d9557829003601f168201915b5050505050905083565b611dce611dc7612a63565b8383612a6a565b5050565b611ddb336128f8565b611e1a576040517f08c379a0000000000000000000000000000000000000000000000000000000008152600401611e11906151be565b60405180910390fd5b611e2e84600561244790919063ffffffff16565b611e6d576040517f08c379a0000000000000000000000000000000000000000000000000000000008152600401611e6490615226565b60405180910390fd5b5f60085f8681526020019081526020015f205f8567ffffffffffffffff1667ffffffffffffffff1681526020019081526020015f208054611ead9061488f565b905014611eef576040517f08c379a0000000000000000000000000000000000000000000000000000000008152600401611ee6906155f7565b60405180910390fd5b6040518060400160405280600681526020017f73656e6465720000000000000000000000000000000000000000000000000000815250805190602001208282604051611f3c929190614a91565b60405180910390201480611fa257506040518060400160405280600881526020017f7265636569766572000000000000000000000000000000000000000000000000815250805190602001208282604051611f98929190614a91565b6040518091039020145b611fe1576040517f08c379a0000000000000000000000000000000000000000000000000000000008152600401611fd890615685565b60405180910390fd5b818160085f8781526020019081526020015f205f8667ffffffffffffffff1667ffffffffffffffff1681526020019081526020015f209182612024929190614f64565b50600a83908060018154018082558091505060019003905f5260205f2090600491828204019190066008029091909190916101000a81548167ffffffffffffffff021916908367ffffffffffffffff16021790555050505050565b600281565b600a8181548110612093575f80fd5b905f5260205f209060049182820401919006600802915054906101000a900467ffffffffffffffff1681565b6007602052805f5260405f205f9150905080546120db9061488f565b80601f01602080910402602001604051908101604052809291908181526020018280546121079061488f565b80156121525780601f1061212957610100808354040283529160200191612152565b820191905f5260205f20905b81548152906001019060200180831161213557829003601f168201915b505050505081565b5f60015f8473ffffffffffffffffffffffffffffffffffffffff1673ffffffffffffffffffffffffffffffffffffffff1681526020019081526020015f205f8373ffffffffffffffffffffffffffffffffffffffff1673ffffffffffffffffffffffffffffffffffffffff1681526020019081526020015f205f9054906101000a900460ff16905092915050565b6121f3838686612475565b6122008585858585612bd3565b5050505050565b61220f61230c565b5f73ffffffffffffffffffffffffffffffffffffffff168173ffffffffffffffffffffffffffffffffffffffff160361227f575f6040517f1e4fbdf700000000000000000000000000000000000000000000000000000000815260040161227691906145b0565b60405180910390fd5b612288816129a0565b50565b61229361230c565b61229e838383612c7a565b505050565b5f7f01ffc9a7000000000000000000000000000000000000000000000000000000007bffffffffffffffffffffffffffffffffffffffffffffffffffffffff1916827bffffffffffffffffffffffffffffffffffffffffffffffffffffffff1916149050919050565b612314612a63565b73ffffffffffffffffffffffffffffffffffffffff16612332611bd1565b73ffffffffffffffffffffffffffffffffffffffff161461239157612355612a63565b6040517f118cdaa700000000000000000000000000000000000000000000000000000000815260040161238891906145b0565b60405180910390fd5b565b60605f6123a1835f01612d1c565b905060608190508092505050919050565b5f73ffffffffffffffffffffffffffffffffffffffff168473ffffffffffffffffffffffffffffffffffffffff1603612422575f6040517f57f447ce00000000000000000000000000000000000000000000000000000000815260040161241991906145b0565b60405180910390fd5b5f8061242e8585612d75565b9150915061243f5f87848487612da5565b505050505050565b5f612456835f01835f1b612e51565b905092915050565b5f61246d835f01835f1b612e71565b905092915050565b5f600a8054806020026020016040519081016040528092919081815260200182805480156124f357602002820191905f5260205f20905f905b82829054906101000a900467ffffffffffffffff1667ffffffffffffffff16815260200190600801906020826007010492830192600103820291508084116124ae5790505b505050505090505f5b81518110156128cb575f60085f8781526020019081526020015f205f84848151811061252b5761252a614835565b5b602002602001015167ffffffffffffffff1667ffffffffffffffff1681526020019081526020015f20805461255f9061488f565b80601f016020809104026020016040519081016040528092919081815260200182805461258b9061488f565b80156125d65780601f106125ad576101008083540402835291602001916125d6565b820191905f5260205f20905b8154815290600101906020018083116125b957829003601f168201915b505050505090505f8151036125eb57506128b8565b6040518060400160405280600681526020017f73656e64657200000000000000000000000000000000000000000000000000008152508051906020012081805190602001200361275257600b5f9054906101000a900473ffffffffffffffffffffffffffffffffffffffff1673ffffffffffffffffffffffffffffffffffffffff16638c1da2c98685858151811061268657612685614835565b5b60200260200101516040518363ffffffff1660e01b81526004016126ab9291906156a3565b5f60405180830381865afa1580156126c5573d5f803e3d5ffd5b505050506040513d5f823e3d601f19601f820116820180604052508101906126ed9190615829565b5f015161274d5782828151811061270757612706614835565b5b6020026020010151856040517fa5a4608e000000000000000000000000000000000000000000000000000000008152600401612744929190615870565b60405180910390fd5b6128b6565b6040518060400160405280600881526020017f7265636569766572000000000000000000000000000000000000000000000000815250805190602001208180519060200120036128b557600b5f9054906101000a900473ffffffffffffffffffffffffffffffffffffffff1673ffffffffffffffffffffffffffffffffffffffff16638c1da2c9858585815181106127ed576127ec614835565b5b60200260200101516040518363ffffffff1660e01b81526004016128129291906156a3565b5f60405180830381865afa15801561282c573d5f803e3d5ffd5b505050506040513d5f823e3d601f19601f820116820180604052508101906128549190615829565b5f01516128b45782828151811061286e5761286d614835565b5b6020026020010151846040517fa5a4608e0000000000000000000000000000000000000000000000000000000081526004016128ab929190615870565b60405180910390fd5b5b5b505b80806128c3906148ec565b9150506124fc565b5050505050565b5f60208202602084010151905092915050565b5f60208202602084010151905092915050565b5f805f90505b600480549050811015612996578273ffffffffffffffffffffffffffffffffffffffff166004828154811061293657612935614835565b5b905f5260205f20015f9054906101000a900473ffffffffffffffffffffffffffffffffffffffff1673ffffffffffffffffffffffffffffffffffffffff160361298357600191505061299b565b808061298e906148ec565b9150506128fe565b505f90505b919050565b5f60035f9054906101000a900473ffffffffffffffffffffffffffffffffffffffff1690508160035f6101000a81548173ffffffffffffffffffffffffffffffffffffffff021916908373ffffffffffffffffffffffffffffffffffffffff1602179055508173ffffffffffffffffffffffffffffffffffffffff168173ffffffffffffffffffffffffffffffffffffffff167f8be0079c531659141344cd1fd0a4f28419497f9722a3daafe3b4186f6b6457e060405160405180910390a35050565b5f33905090565b5f73ffffffffffffffffffffffffffffffffffffffff168273ffffffffffffffffffffffffffffffffffffffff1603612ada575f6040517fced3e100000000000000000000000000000000000000000000000000000000008152600401612ad191906145b0565b60405180910390fd5b8060015f8573ffffffffffffffffffffffffffffffffffffffff1673ffffffffffffffffffffffffffffffffffffffff1681526020019081526020015f205f8473ffffffffffffffffffffffffffffffffffffffff1673ffffffffffffffffffffffffffffffffffffffff1681526020019081526020015f205f6101000a81548160ff0219169083151502179055508173ffffffffffffffffffffffffffffffffffffffff168373ffffffffffffffffffffffffffffffffffffffff167f17307eab39ab6107e8899845ad3d59bd9653f200f220920489ca2b5937696c3183604051612bc69190613bb3565b60405180910390a3505050565b5f612bdc612a63565b90508073ffffffffffffffffffffffffffffffffffffffff168673ffffffffffffffffffffffffffffffffffffffff1614158015612c215750612c1f868261215a565b155b15612c655780866040517fe237d922000000000000000000000000000000000000000000000000000000008152600401612c5c929190615897565b60405180910390fd5b612c728686868686612ed8565b505050505050565b5f73ffffffffffffffffffffffffffffffffffffffff168373ffffffffffffffffffffffffffffffffffffffff1603612cea575f6040517f01a83514000000000000000000000000000000000000000000000000000000008152600401612ce191906145b0565b60405180910390fd5b5f80612cf68484612d75565b91509150612d15855f848460405180602001604052805f815250612da5565b5050505050565b6060815f01805480602002602001604051908101604052809291908181526020018280548015612d6957602002820191905f5260205f20905b815481526020019060010190808311612d55575b50505050509050919050565b60608060405191506001825283602083015260408201905060018152826020820152604081016040529250929050565b612db185858585612fde565b5f73ffffffffffffffffffffffffffffffffffffffff168473ffffffffffffffffffffffffffffffffffffffff1614612e4a575f612ded612a63565b90506001845103612e39575f612e0c5f866128e590919063ffffffff16565b90505f612e225f866128e590919063ffffffff16565b9050612e32838989858589613374565b5050612e48565b612e47818787878787613523565b5b505b5050505050565b5f80836001015f8481526020019081526020015f20541415905092915050565b5f612e7c8383612e51565b612ece57825f0182908060018154018082558091505060019003905f5260205f20015f9091909190915055825f0180549050836001015f8481526020019081526020015f208190555060019050612ed2565b5f90505b92915050565b5f73ffffffffffffffffffffffffffffffffffffffff168473ffffffffffffffffffffffffffffffffffffffff1603612f48575f6040517f57f447ce000000000000000000000000000000000000000000000000000000008152600401612f3f91906145b0565b60405180910390fd5b5f73ffffffffffffffffffffffffffffffffffffffff168573ffffffffffffffffffffffffffffffffffffffff1603612fb8575f6040517f01a83514000000000000000000000000000000000000000000000000000000008152600401612faf91906145b0565b60405180910390fd5b5f80612fc48585612d75565b91509150612fd58787848487612da5565b50505050505050565b805182511461302857815181516040517f5b05999100000000000000000000000000000000000000000000000000000000815260040161301f92919061514d565b60405180910390fd5b5f613031612a63565b90505f5b8351811015613233575f61305282866128e590919063ffffffff16565b90505f61306883866128e590919063ffffffff16565b90505f73ffffffffffffffffffffffffffffffffffffffff168873ffffffffffffffffffffffffffffffffffffffff161461318b575f805f8481526020019081526020015f205f8a73ffffffffffffffffffffffffffffffffffffffff1673ffffffffffffffffffffffffffffffffffffffff1681526020019081526020015f205490508181101561313757888183856040517f03dee4c500000000000000000000000000000000000000000000000000000000815260040161312e94939291906158be565b60405180910390fd5b8181035f808581526020019081526020015f205f8b73ffffffffffffffffffffffffffffffffffffffff1673ffffffffffffffffffffffffffffffffffffffff1681526020019081526020015f2081905550505b5f73ffffffffffffffffffffffffffffffffffffffff168773ffffffffffffffffffffffffffffffffffffffff161461322057805f808481526020019081526020015f205f8973ffffffffffffffffffffffffffffffffffffffff1673ffffffffffffffffffffffffffffffffffffffff1681526020019081526020015f205f8282546132189190614c9d565b925050819055505b50508061322c906148ec565b9050613035565b5060018351036132ee575f6132515f856128e590919063ffffffff16565b90505f6132675f856128e590919063ffffffff16565b90508573ffffffffffffffffffffffffffffffffffffffff168773ffffffffffffffffffffffffffffffffffffffff168473ffffffffffffffffffffffffffffffffffffffff167fc3d58168c5ae7397731d063d5bbf3d657854427343f4c083240f7aacaa2d0f6285856040516132df92919061514d565b60405180910390a4505061336d565b8373ffffffffffffffffffffffffffffffffffffffff168573ffffffffffffffffffffffffffffffffffffffff168273ffffffffffffffffffffffffffffffffffffffff167f4a39dc06d4c0dbc64b70af90fd698a233a518aa5d07e595d983b8c0526c8f7fb8686604051613364929190615901565b60405180910390a45b5050505050565b5f8473ffffffffffffffffffffffffffffffffffffffff163b111561351b578373ffffffffffffffffffffffffffffffffffffffff1663f23a6e6187878686866040518663ffffffff1660e01b81526004016133d495949392919061597e565b6020604051808303815f875af192505050801561340f57506040513d601f19601f8201168201806040525081019061340c91906159ea565b60015b613490573d805f811461343d576040519150601f19603f3d011682016040523d82523d5f602084013e613442565b606091505b505f81510361348857846040517f57f447ce00000000000000000000000000000000000000000000000000000000815260040161347f91906145b0565b60405180910390fd5b805181602001fd5b63f23a6e6160e01b7bffffffffffffffffffffffffffffffffffffffffffffffffffffffff1916817bffffffffffffffffffffffffffffffffffffffffffffffffffffffff19161461351957846040517f57f447ce00000000000000000000000000000000000000000000000000000000815260040161351091906145b0565b60405180910390fd5b505b505050505050565b5f8473ffffffffffffffffffffffffffffffffffffffff163b11156136ca578373ffffffffffffffffffffffffffffffffffffffff1663bc197c8187878686866040518663ffffffff1660e01b8152600401613583959493929190615a15565b6020604051808303815f875af19250505080156135be57506040513d601f19601f820116820180604052508101906135bb91906159ea565b60015b61363f573d805f81146135ec576040519150601f19603f3d011682016040523d82523d5f602084013e6135f1565b606091505b505f81510361363757846040517f57f447ce00000000000000000000000000000000000000000000000000000000815260040161362e91906145b0565b60405180910390fd5b805181602001fd5b63bc197c8160e01b7bffffffffffffffffffffffffffffffffffffffffffffffffffffffff1916817bffffffffffffffffffffffffffffffffffffffffffffffffffffffff1916146136c857846040517f57f447ce0000000000000000000000000000000000000000000000000000000081526004016136bf91906145b0565b60405180910390fd5b505b505050505050565b60405180606001604052806060815260200160608152602001606081525090565b5080546136ff9061488f565b5f825580601f10613710575061372d565b601f0160209004905f5260205f209081019061372c9190613730565b5b50565b5b80821115613747575f815f905550600101613731565b5090565b5f604051905090565b5f80fd5b5f80fd5b5f73ffffffffffffffffffffffffffffffffffffffff82169050919050565b5f6137858261375c565b9050919050565b6137958161377b565b811461379f575f80fd5b50565b5f813590506137b08161378c565b92915050565b5f819050919050565b6137c8816137b6565b81146137d2575f80fd5b50565b5f813590506137e3816137bf565b92915050565b5f80604083850312156137ff576137fe613754565b5b5f61380c858286016137a2565b925050602061381d858286016137d5565b9150509250929050565b613830816137b6565b82525050565b5f6020820190506138495f830184613827565b92915050565b5f6020828403121561386457613863613754565b5b5f613871848285016137d5565b91505092915050565b5f81519050919050565b5f82825260208201905092915050565b5f819050602082019050919050565b5f67ffffffffffffffff82169050919050565b6138bf816138a3565b82525050565b5f6138d083836138b6565b60208301905092915050565b5f602082019050919050565b5f6138f28261387a565b6138fc8185613884565b935061390783613894565b805f5b8381101561393757815161391e88826138c5565b9750613929836138dc565b92505060018101905061390a565b5085935050505092915050565b5f81519050919050565b5f82825260208201905092915050565b5f819050602082019050919050565b5f81519050919050565b5f82825260208201905092915050565b5f5b838110156139a4578082015181840152602081019050613989565b5f8484015250505050565b5f601f19601f8301169050919050565b5f6139c98261396d565b6139d38185613977565b93506139e3818560208601613987565b6139ec816139af565b840191505092915050565b5f606083015f8301518482035f860152613a1182826139bf565b91505060208301518482036020860152613a2b82826139bf565b91505060408301518482036040860152613a4582826139bf565b9150508091505092915050565b5f613a5d83836139f7565b905092915050565b5f602082019050919050565b5f613a7b82613944565b613a85818561394e565b935083602082028501613a978561395e565b805f5b85811015613ad25784840389528151613ab38582613a52565b9450613abe83613a65565b925060208a01995050600181019050613a9a565b50829750879550505050505092915050565b5f6040820190508181035f830152613afc81856138e8565b90508181036020830152613b108184613a71565b90509392505050565b5f7fffffffff0000000000000000000000000000000000000000000000000000000082169050919050565b613b4d81613b19565b8114613b57575f80fd5b50565b5f81359050613b6881613b44565b92915050565b5f60208284031215613b8357613b82613754565b5b5f613b9084828501613b5a565b91505092915050565b5f8115159050919050565b613bad81613b99565b82525050565b5f602082019050613bc65f830184613ba4565b92915050565b5f82825260208201905092915050565b5f613be68261396d565b613bf08185613bcc565b9350613c00818560208601613987565b613c09816139af565b840191505092915050565b5f6020820190508181035f830152613c2c8184613bdc565b905092915050565b5f60208284031215613c4957613c48613754565b5b5f613c56848285016137a2565b91505092915050565b5f819050919050565b5f613c82613c7d613c788461375c565b613c5f565b61375c565b9050919050565b5f613c9382613c68565b9050919050565b5f613ca482613c89565b9050919050565b613cb481613c9a565b82525050565b5f602082019050613ccd5f830184613cab565b92915050565b5f80fd5b5f80fd5b5f80fd5b5f8083601f840112613cf457613cf3613cd3565b5b8235905067ffffffffffffffff811115613d1157613d10613cd7565b5b602083019150836001820283011115613d2d57613d2c613cdb565b5b9250929050565b5f8083601f840112613d4957613d48613cd3565b5b8235905067ffffffffffffffff811115613d6657613d65613cd7565b5b602083019150836001820283011115613d8257613d81613cdb565b5b9250929050565b5f805f805f8060808789031215613da357613da2613754565b5b5f613db089828a016137a2565b9650506020613dc189828a016137d5565b955050604087013567ffffffffffffffff811115613de257613de1613758565b5b613dee89828a01613cdf565b9450945050606087013567ffffffffffffffff811115613e1157613e10613758565b5b613e1d89828a01613d34565b92509250509295509295509295565b7f4e487b71000000000000000000000000000000000000000000000000000000005f52604160045260245ffd5b613e62826139af565b810181811067ffffffffffffffff82111715613e8157613e80613e2c565b5b80604052505050565b5f613e9361374b565b9050613e9f8282613e59565b919050565b5f67ffffffffffffffff821115613ebe57613ebd613e2c565b5b602082029050602081019050919050565b5f613ee1613edc84613ea4565b613e8a565b90508083825260208201905060208402830185811115613f0457613f03613cdb565b5b835b81811015613f2d5780613f1988826137d5565b845260208401935050602081019050613f06565b5050509392505050565b5f82601f830112613f4b57613f4a613cd3565b5b8135613f5b848260208601613ecf565b91505092915050565b5f80fd5b5f67ffffffffffffffff821115613f8257613f81613e2c565b5b613f8b826139af565b9050602081019050919050565b828183375f83830152505050565b5f613fb8613fb384613f68565b613e8a565b905082815260208101848484011115613fd457613fd3613f64565b5b613fdf848285613f98565b509392505050565b5f82601f830112613ffb57613ffa613cd3565b5b813561400b848260208601613fa6565b91505092915050565b5f805f805f60a0868803121561402d5761402c613754565b5b5f61403a888289016137a2565b955050602061404b888289016137a2565b945050604086013567ffffffffffffffff81111561406c5761406b613758565b5b61407888828901613f37565b935050606086013567ffffffffffffffff81111561409957614098613758565b5b6140a588828901613f37565b925050608086013567ffffffffffffffff8111156140c6576140c5613758565b5b6140d288828901613fe7565b9150509295509295909350565b6140e8816138a3565b81146140f2575f80fd5b50565b5f81359050614103816140df565b92915050565b5f806040838503121561411f5761411e613754565b5b5f61412c858286016137d5565b925050602061413d858286016140f5565b9150509250929050565b5f81519050919050565b5f82825260208201905092915050565b5f819050602082019050919050565b6141798161377b565b82525050565b5f61418a8383614170565b60208301905092915050565b5f602082019050919050565b5f6141ac82614147565b6141b68185614151565b93506141c183614161565b805f5b838110156141f15781516141d8888261417f565b97506141e383614196565b9250506001810190506141c4565b5085935050505092915050565b5f6020820190508181035f83015261421681846141a2565b905092915050565b5f67ffffffffffffffff82111561423857614237613e2c565b5b602082029050602081019050919050565b5f61425b6142568461421e565b613e8a565b9050808382526020820190506020840283018581111561427e5761427d613cdb565b5b835b818110156142a7578061429388826137a2565b845260208401935050602081019050614280565b5050509392505050565b5f82601f8301126142c5576142c4613cd3565b5b81356142d5848260208601614249565b91505092915050565b5f80604083850312156142f4576142f3613754565b5b5f83013567ffffffffffffffff81111561431157614310613758565b5b61431d858286016142b1565b925050602083013567ffffffffffffffff81111561433e5761433d613758565b5b61434a85828601613f37565b9150509250929050565b5f81519050919050565b5f82825260208201905092915050565b5f819050602082019050919050565b614386816137b6565b82525050565b5f614397838361437d565b60208301905092915050565b5f602082019050919050565b5f6143b982614354565b6143c3818561435e565b93506143ce8361436e565b805f5b838110156143fe5781516143e5888261438c565b97506143f0836143a3565b9250506001810190506143d1565b5085935050505092915050565b5f6020820190508181035f83015261442381846143af565b905092915050565b5f6144358261377b565b9050919050565b6144458161442b565b811461444f575f80fd5b50565b5f813590506144608161443c565b92915050565b5f80fd5b5f6060828403121561447f5761447e614466565b5b81905092915050565b5f805f805f805f805f8060e08b8d0312156144a6576144a5613754565b5b5f6144b38d828e016140f5565b9a505060208b013567ffffffffffffffff8111156144d4576144d3613758565b5b6144e08d828e01613d34565b995099505060406144f38d828e01614452565b97505060608b013567ffffffffffffffff81111561451457614513613758565b5b6145208d828e01613cdf565b965096505060806145338d828e016137d5565b94505060a08b013567ffffffffffffffff81111561455457614553613758565b5b6145608d828e01613d34565b935093505060c08b013567ffffffffffffffff81111561458357614582613758565b5b61458f8d828e0161446a565b9150509295989b9194979a5092959850565b6145aa8161377b565b82525050565b5f6020820190506145c35f8301846145a1565b92915050565b5f6060820190508181035f8301526145e18186613bdc565b905081810360208301526145f58185613bdc565b905081810360408301526146098184613bdc565b9050949350505050565b61461c81613b99565b8114614626575f80fd5b50565b5f8135905061463781614613565b92915050565b5f806040838503121561465357614652613754565b5b5f614660858286016137a2565b925050602061467185828601614629565b9150509250929050565b5f805f806060858703121561469357614692613754565b5b5f6146a0878288016137d5565b94505060206146b1878288016140f5565b935050604085013567ffffffffffffffff8111156146d2576146d1613758565b5b6146de87828801613d34565b925092505092959194509250565b6146f5816138a3565b82525050565b5f60208201905061470e5f8301846146ec565b92915050565b5f806040838503121561472a57614729613754565b5b5f614737858286016137a2565b9250506020614748858286016137a2565b9150509250929050565b5f805f805f60a0868803121561476b5761476a613754565b5b5f614778888289016137a2565b9550506020614789888289016137a2565b945050604061479a888289016137d5565b93505060606147ab888289016137d5565b925050608086013567ffffffffffffffff8111156147cc576147cb613758565b5b6147d888828901613fe7565b9150509295509295909350565b5f805f606084860312156147fc576147fb613754565b5b5f614809868287016137a2565b935050602061481a868287016137d5565b925050604061482b868287016137d5565b9150509250925092565b7f4e487b71000000000000000000000000000000000000000000000000000000005f52603260045260245ffd5b7f4e487b71000000000000000000000000000000000000000000000000000000005f52602260045260245ffd5b5f60028204905060018216806148a657607f821691505b6020821081036148b9576148b8614862565b5b50919050565b7f4e487b71000000000000000000000000000000000000000000000000000000005f52601160045260245ffd5b5f6148f6826137b6565b91507fffffffffffffffffffffffffffffffffffffffffffffffffffffffffffffffff8203614928576149276148bf565b5b600182019050919050565b5f61493d826137b6565b9150614948836137b6565b92508282039050818111156149605761495f6148bf565b5b92915050565b7f4e487b71000000000000000000000000000000000000000000000000000000005f52603160045260245ffd5b7f41646d696e206e6f7420666f756e6400000000000000000000000000000000005f82015250565b5f6149c7600f83613bcc565b91506149d282614993565b602082019050919050565b5f6020820190508181035f8301526149f4816149bb565b9050919050565b7f4e616d65207265717569726564000000000000000000000000000000000000005f82015250565b5f614a2f600d83613bcc565b9150614a3a826149fb565b602082019050919050565b5f6020820190508181035f830152614a5c81614a23565b9050919050565b5f81905092915050565b5f614a788385614a63565b9350614a85838584613f98565b82840190509392505050565b5f614a9d828486614a6d565b91508190509392505050565b5f819050815f5260205f209050919050565b5f8154614ac78161488f565b614ad18186614a63565b9450600182165f8114614aeb5760018114614b0057614b32565b60ff1983168652811515820286019350614b32565b614b0985614aa9565b5f5b83811015614b2a57815481890152600182019150602081019050614b0b565b838801955050505b50505092915050565b5f614b468284614abb565b915081905092915050565b5f819050919050565b614b6b614b66826137b6565b614b51565b82525050565b5f8160601b9050919050565b5f614b8782614b71565b9050919050565b5f614b9882614b7d565b9050919050565b614bb0614bab8261377b565b614b8e565b82525050565b5f81905092915050565b5f614bcb8385614bb6565b9350614bd8838584613f98565b82840190509392505050565b5f614bef8289614b5a565b602082019150614bff8288614b5a565b602082019150614c0f8287614b9f565b601482019150614c20828587614bc0565b9150614c2c8284614b5a565b602082019150819050979650505050505050565b7f4e487b71000000000000000000000000000000000000000000000000000000005f52601260045260245ffd5b5f614c77826137b6565b9150614c82836137b6565b925082614c9257614c91614c40565b5b828206905092915050565b5f614ca7826137b6565b9150614cb2836137b6565b9250828201905080821115614cca57614cc96148bf565b5b92915050565b7f556e61626c6520746f2066696e6420756e697175652073686f727420746f6b655f8201527f6e20494400000000000000000000000000000000000000000000000000000000602082015250565b5f614d2a602483613bcc565b9150614d3582614cd0565b604082019050919050565b5f6020820190508181035f830152614d5781614d1e565b9050919050565b7f546f6b656e494454616b656e00000000000000000000000000000000000000005f82015250565b5f614d92600c83613bcc565b9150614d9d82614d5e565b602082019050919050565b5f6020820190508181035f830152614dbf81614d86565b9050919050565b5f82905092915050565b5f819050815f5260205f209050919050565b5f6020601f8301049050919050565b5f82821b905092915050565b5f60088302614e2c7fffffffffffffffffffffffffffffffffffffffffffffffffffffffffffffffff82614df1565b614e368683614df1565b95508019841693508086168417925050509392505050565b5f614e68614e63614e5e846137b6565b613c5f565b6137b6565b9050919050565b5f819050919050565b614e8183614e4e565b614e95614e8d82614e6f565b848454614dfd565b825550505050565b5f90565b614ea9614e9d565b614eb4818484614e78565b505050565b5b81811015614ed757614ecc5f82614ea1565b600181019050614eba565b5050565b601f821115614f1c57614eed81614dd0565b614ef684614de2565b81016020851015614f05578190505b614f19614f1185614de2565b830182614eb9565b50505b505050565b5f82821c905092915050565b5f614f3c5f1984600802614f21565b1980831691505092915050565b5f614f548383614f2d565b9150826002028217905092915050565b614f6e8383614dc6565b67ffffffffffffffff811115614f8757614f86613e2c565b5b614f91825461488f565b614f9c828285614edb565b5f601f831160018114614fc9575f8415614fb7578287013590505b614fc18582614f49565b865550615028565b601f198416614fd786614dd0565b5f5b82811015614ffe57848901358255600182019150602085019450602081019050614fd9565b8683101561501b5784890135615017601f891682614f2d565b8355505b6001600288020188555050505b50505050505050565b7f455243313135353a204d69736d617463686564206172726179206c656e6774685f8201527f7300000000000000000000000000000000000000000000000000000000000000602082015250565b5f61508b602183613bcc565b915061509682615031565b604082019050919050565b5f6020820190508181035f8301526150b88161507f565b9050919050565b7f455243313135353a207472616e7366657220746f20746865207a65726f2061645f8201527f6472657373000000000000000000000000000000000000000000000000000000602082015250565b5f615119602583613bcc565b9150615124826150bf565b604082019050919050565b5f6020820190508181035f8301526151468161510d565b9050919050565b5f6040820190506151605f830185613827565b61516d6020830184613827565b9392505050565b7f43616c6c6572206973206e6f7420616e2061646d696e000000000000000000005f82015250565b5f6151a8601683613bcc565b91506151b382615174565b602082019050919050565b5f6020820190508181035f8301526151d58161519c565b9050919050565b7f746f6b656e20696420646f6573206e6f742065786973740000000000000000005f82015250565b5f615210601783613bcc565b915061521b826151dc565b602082019050919050565b5f6020820190508181035f83015261523d81615204565b9050919050565b7f50726f6f66207265717565737420646f6573206e6f74206578697374000000005f82015250565b5f615278601c83613bcc565b915061528382615244565b602082019050919050565b5f6020820190508181035f8301526152a58161526c565b9050919050565b7f496e76616c6964206164647265737300000000000000000000000000000000005f82015250565b5f6152e0600f83613bcc565b91506152eb826152ac565b602082019050919050565b5f6020820190508181035f83015261530d816152d4565b9050919050565b7f4164647265737320697320616c726561647920616e2061646d696e00000000005f82015250565b5f615348601b83613bcc565b915061535382615314565b602082019050919050565b5f6020820190508181035f8301526153758161533c565b9050919050565b5f61538682613c89565b9050919050565b6153968161537c565b82525050565b5f81519050919050565b5f82825260208201905092915050565b5f6153c08261539c565b6153ca81856153a6565b93506153da818560208601613987565b6153e3816139af565b840191505092915050565b5f606083015f8301518482035f86015261540882826139bf565b915050602083015161541d602086018261538d565b506040830151848203604086015261543582826153b6565b9150508091505092915050565b5f6040820190506154555f8301856146ec565b818103602083015261546781846153ee565b90509392505050565b5f80fd5b5f80fd5b5f80fd5b5f808335600160200384360303811261549857615497615470565b5b80840192508235915067ffffffffffffffff8211156154ba576154b9615474565b5b6020830192506001820236038313156154d6576154d5615478565b5b509250929050565b6154e78261396d565b67ffffffffffffffff811115615500576154ff613e2c565b5b61550a825461488f565b615515828285614edb565b5f60209050601f831160018114615546575f8415615534578287015190505b61553e8582614f49565b8655506155a5565b601f19841661555486614dd0565b5f5b8281101561557b57848901518255600182019150602085019450602081019050615556565b868310156155985784890151615594601f891682614f2d565b8355505b6001600288020188555050505b505050505050565b7f50726f6f66207265717565737420616c726561647920657869737473000000005f82015250565b5f6155e1601c83613bcc565b91506155ec826155ad565b602082019050919050565b5f6020820190508181035f83015261560e816155d5565b9050919050565b7f526f6c65206d757374206265202773656e64657227206f7220277265636569765f8201527f6572270000000000000000000000000000000000000000000000000000000000602082015250565b5f61566f602383613bcc565b915061567a82615615565b604082019050919050565b5f6020820190508181035f83015261569c81615663565b9050919050565b5f6040820190506156b65f8301856145a1565b6156c360208301846146ec565b9392505050565b5f80fd5b5f80fd5b5f815190506156e081614613565b92915050565b5f67ffffffffffffffff821115615700576156ff613e2c565b5b615709826139af565b9050602081019050919050565b5f615728615723846156e6565b613e8a565b90508281526020810184848401111561574457615743613f64565b5b61574f848285613987565b509392505050565b5f82601f83011261576b5761576a613cd3565b5b815161577b848260208601615716565b91505092915050565b5f81519050615792816137bf565b92915050565b5f608082840312156157ad576157ac6156ca565b5b6157b76080613e8a565b90505f6157c6848285016156d2565b5f83015250602082015167ffffffffffffffff8111156157e9576157e86156ce565b5b6157f584828501615757565b602083015250604061580984828501615784565b604083015250606061581d84828501615784565b60608301525092915050565b5f6020828403121561583e5761583d613754565b5b5f82015167ffffffffffffffff81111561585b5761585a613758565b5b61586784828501615798565b91505092915050565b5f6040820190506158835f8301856146ec565b61589060208301846145a1565b9392505050565b5f6040820190506158aa5f8301856145a1565b6158b760208301846145a1565b9392505050565b5f6080820190506158d15f8301876145a1565b6158de6020830186613827565b6158eb6040830185613827565b6158f86060830184613827565b95945050505050565b5f6040820190508181035f83015261591981856143af565b9050818103602083015261592d81846143af565b90509392505050565b5f82825260208201905092915050565b5f6159508261539c565b61595a8185615936565b935061596a818560208601613987565b615973816139af565b840191505092915050565b5f60a0820190506159915f8301886145a1565b61599e60208301876145a1565b6159ab6040830186613827565b6159b86060830185613827565b81810360808301526159ca8184615946565b90509695505050505050565b5f815190506159e481613b44565b92915050565b5f602082840312156159ff576159fe613754565b5b5f615a0c848285016159d6565b91505092915050565b5f60a082019050615a285f8301886145a1565b615a3560208301876145a1565b8181036040830152615a4781866143af565b90508181036060830152615a5b81856143af565b90508181036080830152615a6f8184615946565b9050969550505050505056fea264697066735822122059d731e55663530d097bf7215369bcb00619add82dffd69e844cffd165b0e8c064736f6c63430008140033",
		"opcodes": "PUSH1 0x80 PUSH1 0x40 MSTORE CALLVALUE DUP1 ISZERO PUSH3 0x10 JUMPI PUSH0 DUP1 REVERT JUMPDEST POP PUSH1 0x40 MLOAD PUSH3 0x6296 CODESIZE SUB DUP1 PUSH3 0x6296 DUP4 CODECOPY DUP2 DUP2 ADD PUSH1 0x40 MSTORE DUP2 ADD SWAP1 PUSH3 0x36 SWAP2 SWAP1 PUSH3 0x418 JUMP JUMPDEST DUP2 DUP2 PUSH3 0x49 DUP2 PUSH3 0x118 PUSH1 0x20 SHL PUSH1 0x20 SHR JUMP JUMPDEST POP PUSH0 PUSH20 0xFFFFFFFFFFFFFFFFFFFFFFFFFFFFFFFFFFFFFFFF AND DUP2 PUSH20 0xFFFFFFFFFFFFFFFFFFFFFFFFFFFFFFFFFFFFFFFF AND SUB PUSH3 0xBD JUMPI PUSH0 PUSH1 0x40 MLOAD PUSH32 0x1E4FBDF700000000000000000000000000000000000000000000000000000000 DUP2 MSTORE PUSH1 0x4 ADD PUSH3 0xB4 SWAP2 SWAP1 PUSH3 0x4A1 JUMP JUMPDEST PUSH1 0x40 MLOAD DUP1 SWAP2 SUB SWAP1 REVERT JUMPDEST PUSH3 0xCE DUP2 PUSH3 0x12D PUSH1 0x20 SHL PUSH1 0x20 SHR JUMP JUMPDEST POP DUP3 PUSH1 0xB PUSH0 PUSH2 0x100 EXP DUP2 SLOAD DUP2 PUSH20 0xFFFFFFFFFFFFFFFFFFFFFFFFFFFFFFFFFFFFFFFF MUL NOT AND SWAP1 DUP4 PUSH20 0xFFFFFFFFFFFFFFFFFFFFFFFFFFFFFFFFFFFFFFFF AND MUL OR SWAP1 SSTORE POP POP POP POP PUSH3 0x7D7 JUMP JUMPDEST DUP1 PUSH1 0x2 SWAP1 DUP2 PUSH3 0x129 SWAP2 SWAP1 PUSH3 0x6F3 JUMP JUMPDEST POP POP JUMP JUMPDEST PUSH0 PUSH1 0x3 PUSH0 SWAP1 SLOAD SWAP1 PUSH2 0x100 EXP SWAP1 DIV PUSH20 0xFFFFFFFFFFFFFFFFFFFFFFFFFFFFFFFFFFFFFFFF AND SWAP1 POP DUP2 PUSH1 0x3 PUSH0 PUSH2 0x100 EXP DUP2 SLOAD DUP2 PUSH20 0xFFFFFFFFFFFFFFFFFFFFFFFFFFFFFFFFFFFFFFFF MUL NOT AND SWAP1 DUP4 PUSH20 0xFFFFFFFFFFFFFFFFFFFFFFFFFFFFFFFFFFFFFFFF AND MUL OR SWAP1 SSTORE POP DUP2 PUSH20 0xFFFFFFFFFFFFFFFFFFFFFFFFFFFFFFFFFFFFFFFF AND DUP2 PUSH20 0xFFFFFFFFFFFFFFFFFFFFFFFFFFFFFFFFFFFFFFFF AND PUSH32 0x8BE0079C531659141344CD1FD0A4F28419497F9722A3DAAFE3B4186F6B6457E0 PUSH1 0x40 MLOAD PUSH1 0x40 MLOAD DUP1 SWAP2 SUB SWAP1 LOG3 POP POP JUMP JUMPDEST PUSH0 PUSH1 0x40 MLOAD SWAP1 POP SWAP1 JUMP JUMPDEST PUSH0 DUP1 REVERT JUMPDEST PUSH0 DUP1 REVERT JUMPDEST PUSH0 PUSH20 0xFFFFFFFFFFFFFFFFFFFFFFFFFFFFFFFFFFFFFFFF DUP3 AND SWAP1 POP SWAP2 SWAP1 POP JUMP JUMPDEST PUSH0 PUSH3 0x22C DUP3 PUSH3 0x201 JUMP JUMPDEST SWAP1 POP SWAP2 SWAP1 POP JUMP JUMPDEST PUSH0 PUSH3 0x23F DUP3 PUSH3 0x220 JUMP JUMPDEST SWAP1 POP SWAP2 SWAP1 POP JUMP JUMPDEST PUSH3 0x251 DUP2 PUSH3 0x233 JUMP JUMPDEST DUP2 EQ PUSH3 0x25C JUMPI PUSH0 DUP1 REVERT JUMPDEST POP JUMP JUMPDEST PUSH0 DUP2 MLOAD SWAP1 POP PUSH3 0x26F DUP2 PUSH3 0x246 JUMP JUMPDEST SWAP3 SWAP2 POP POP JUMP JUMPDEST PUSH3 0x280 DUP2 PUSH3 0x220 JUMP JUMPDEST DUP2 EQ PUSH3 0x28B JUMPI PUSH0 DUP1 REVERT JUMPDEST POP JUMP JUMPDEST PUSH0 DUP2 MLOAD SWAP1 POP PUSH3 0x29E DUP2 PUSH3 0x275 JUMP JUMPDEST SWAP3 SWAP2 POP POP JUMP JUMPDEST PUSH0 DUP1 REVERT JUMPDEST PUSH0 DUP1 REVERT JUMPDEST PUSH0 PUSH1 0x1F NOT PUSH1 0x1F DUP4 ADD AND SWAP1 POP SWAP2 SWAP1 POP JUMP JUMPDEST PUSH32 0x4E487B7100000000000000000000000000000000000000000000000000000000 PUSH0 MSTORE PUSH1 0x41 PUSH1 0x4 MSTORE PUSH1 0x24 PUSH0 REVERT JUMPDEST PUSH3 0x2F4 DUP3 PUSH3 0x2AC JUMP JUMPDEST DUP2 ADD DUP2 DUP2 LT PUSH8 0xFFFFFFFFFFFFFFFF DUP3 GT OR ISZERO PUSH3 0x316 JUMPI PUSH3 0x315 PUSH3 0x2BC JUMP JUMPDEST JUMPDEST DUP1 PUSH1 0x40 MSTORE POP POP POP JUMP JUMPDEST PUSH0 PUSH3 0x32A PUSH3 0x1F0 JUMP JUMPDEST SWAP1 POP PUSH3 0x338 DUP3 DUP3 PUSH3 0x2E9 JUMP JUMPDEST SWAP2 SWAP1 POP JUMP JUMPDEST PUSH0 PUSH8 0xFFFFFFFFFFFFFFFF DUP3 GT ISZERO PUSH3 0x35A JUMPI PUSH3 0x359 PUSH3 0x2BC JUMP JUMPDEST JUMPDEST PUSH3 0x365 DUP3 PUSH3 0x2AC JUMP JUMPDEST SWAP1 POP PUSH1 0x20 DUP2 ADD SWAP1 POP SWAP2 SWAP1 POP JUMP JUMPDEST PUSH0 JUMPDEST DUP4 DUP2 LT ISZERO PUSH3 0x391 JUMPI DUP1 DUP3 ADD MLOAD DUP2 DUP5 ADD MSTORE PUSH1 0x20 DUP2 ADD SWAP1 POP PUSH3 0x374 JUMP JUMPDEST PUSH0 DUP5 DUP5 ADD MSTORE POP POP POP POP JUMP JUMPDEST PUSH0 PUSH3 0x3B2 PUSH3 0x3AC DUP5 PUSH3 0x33D JUMP JUMPDEST PUSH3 0x31F JUMP JUMPDEST SWAP1 POP DUP3 DUP2 MSTORE PUSH1 0x20 DUP2 ADD DUP5 DUP5 DUP5 ADD GT ISZERO PUSH3 0x3D1 JUMPI PUSH3 0x3D0 PUSH3 0x2A8 JUMP JUMPDEST JUMPDEST PUSH3 0x3DE DUP5 DUP3 DUP6 PUSH3 0x372 JUMP JUMPDEST POP SWAP4 SWAP3 POP POP POP JUMP JUMPDEST PUSH0 DUP3 PUSH1 0x1F DUP4 ADD SLT PUSH3 0x3FD JUMPI PUSH3 0x3FC PUSH3 0x2A4 JUMP JUMPDEST JUMPDEST DUP2 MLOAD PUSH3 0x40F DUP5 DUP3 PUSH1 0x20 DUP7 ADD PUSH3 0x39C JUMP JUMPDEST SWAP2 POP POP SWAP3 SWAP2 POP POP JUMP JUMPDEST PUSH0 DUP1 PUSH0 PUSH1 0x60 DUP5 DUP7 SUB SLT ISZERO PUSH3 0x432 JUMPI PUSH3 0x431 PUSH3 0x1F9 JUMP JUMPDEST JUMPDEST PUSH0 PUSH3 0x441 DUP7 DUP3 DUP8 ADD PUSH3 0x25F JUMP JUMPDEST SWAP4 POP POP PUSH1 0x20 PUSH3 0x454 DUP7 DUP3 DUP8 ADD PUSH3 0x28E JUMP JUMPDEST SWAP3 POP POP PUSH1 0x40 DUP5 ADD MLOAD PUSH8 0xFFFFFFFFFFFFFFFF DUP2 GT ISZERO PUSH3 0x478 JUMPI PUSH3 0x477 PUSH3 0x1FD JUMP JUMPDEST JUMPDEST PUSH3 0x486 DUP7 DUP3 DUP8 ADD PUSH3 0x3E6 JUMP JUMPDEST SWAP2 POP POP SWAP3 POP SWAP3 POP SWAP3 JUMP JUMPDEST PUSH3 0x49B DUP2 PUSH3 0x220 JUMP JUMPDEST DUP3 MSTORE POP POP JUMP JUMPDEST PUSH0 PUSH1 0x20 DUP3 ADD SWAP1 POP PUSH3 0x4B6 PUSH0 DUP4 ADD DUP5 PUSH3 0x490 JUMP JUMPDEST SWAP3 SWAP2 POP POP JUMP JUMPDEST PUSH0 DUP2 MLOAD SWAP1 POP SWAP2 SWAP1 POP JUMP JUMPDEST PUSH32 0x4E487B7100000000000000000000000000000000000000000000000000000000 PUSH0 MSTORE PUSH1 0x22 PUSH1 0x4 MSTORE PUSH1 0x24 PUSH0 REVERT JUMPDEST PUSH0 PUSH1 0x2 DUP3 DIV SWAP1 POP PUSH1 0x1 DUP3 AND DUP1 PUSH3 0x50B JUMPI PUSH1 0x7F DUP3 AND SWAP2 POP JUMPDEST PUSH1 0x20 DUP3 LT DUP2 SUB PUSH3 0x521 JUMPI PUSH3 0x520 PUSH3 0x4C6 JUMP JUMPDEST JUMPDEST POP SWAP2 SWAP1 POP JUMP JUMPDEST PUSH0 DUP2 SWAP1 POP DUP2 PUSH0 MSTORE PUSH1 0x20 PUSH0 KECCAK256 SWAP1 POP SWAP2 SWAP1 POP JUMP JUMPDEST PUSH0 PUSH1 0x20 PUSH1 0x1F DUP4 ADD DIV SWAP1 POP SWAP2 SWAP1 POP JUMP JUMPDEST PUSH0 DUP3 DUP3 SHL SWAP1 POP SWAP3 SWAP2 POP POP JUMP JUMPDEST PUSH0 PUSH1 0x8 DUP4 MUL PUSH3 0x585 PUSH32 0xFFFFFFFFFFFFFFFFFFFFFFFFFFFFFFFFFFFFFFFFFFFFFFFFFFFFFFFFFFFFFFFF DUP3 PUSH3 0x548 JUMP JUMPDEST PUSH3 0x591 DUP7 DUP4 PUSH3 0x548 JUMP JUMPDEST SWAP6 POP DUP1 NOT DUP5 AND SWAP4 POP DUP1 DUP7 AND DUP5 OR SWAP3 POP POP POP SWAP4 SWAP3 POP POP POP JUMP JUMPDEST PUSH0 DUP2 SWAP1 POP SWAP2 SWAP1 POP JUMP JUMPDEST PUSH0 DUP2 SWAP1 POP SWAP2 SWAP1 POP JUMP JUMPDEST PUSH0 PUSH3 0x5DB PUSH3 0x5D5 PUSH3 0x5CF DUP5 PUSH3 0x5A9 JUMP JUMPDEST PUSH3 0x5B2 JUMP JUMPDEST PUSH3 0x5A9 JUMP JUMPDEST SWAP1 POP SWAP2 SWAP1 POP JUMP JUMPDEST PUSH0 DUP2 SWAP1 POP SWAP2 SWAP1 POP JUMP JUMPDEST PUSH3 0x5F6 DUP4 PUSH3 0x5BB JUMP JUMPDEST PUSH3 0x60E PUSH3 0x605 DUP3 PUSH3 0x5E2 JUMP JUMPDEST DUP5 DUP5 SLOAD PUSH3 0x554 JUMP JUMPDEST DUP3 SSTORE POP POP POP POP JUMP JUMPDEST PUSH0 SWAP1 JUMP JUMPDEST PUSH3 0x624 PUSH3 0x616 JUMP JUMPDEST PUSH3 0x631 DUP2 DUP5 DUP5 PUSH3 0x5EB JUMP JUMPDEST POP POP POP JUMP JUMPDEST JUMPDEST DUP2 DUP2 LT ISZERO PUSH3 0x658 JUMPI PUSH3 0x64C PUSH0 DUP3 PUSH3 0x61A JUMP JUMPDEST PUSH1 0x1 DUP2 ADD SWAP1 POP PUSH3 0x637 JUMP JUMPDEST POP POP JUMP JUMPDEST PUSH1 0x1F DUP3 GT ISZERO PUSH3 0x6A7 JUMPI PUSH3 0x671 DUP2 PUSH3 0x527 JUMP JUMPDEST PUSH3 0x67C DUP5 PUSH3 0x539 JUMP JUMPDEST DUP2 ADD PUSH1 0x20 DUP6 LT ISZERO PUSH3 0x68C JUMPI DUP2 SWAP1 POP JUMPDEST PUSH3 0x6A4 PUSH3 0x69B DUP6 PUSH3 0x539 JUMP JUMPDEST DUP4 ADD DUP3 PUSH3 0x636 JUMP JUMPDEST POP POP JUMPDEST POP POP POP JUMP JUMPDEST PUSH0 DUP3 DUP3 SHR SWAP1 POP SWAP3 SWAP2 POP POP JUMP JUMPDEST PUSH0 PUSH3 0x6C9 PUSH0 NOT DUP5 PUSH1 0x8 MUL PUSH3 0x6AC JUMP JUMPDEST NOT DUP1 DUP4 AND SWAP2 POP POP SWAP3 SWAP2 POP POP JUMP JUMPDEST PUSH0 PUSH3 0x6E3 DUP4 DUP4 PUSH3 0x6B8 JUMP JUMPDEST SWAP2 POP DUP3 PUSH1 0x2 MUL DUP3 OR SWAP1 POP SWAP3 SWAP2 POP POP JUMP JUMPDEST PUSH3 0x6FE DUP3 PUSH3 0x4BC JUMP JUMPDEST PUSH8 0xFFFFFFFFFFFFFFFF DUP2 GT ISZERO PUSH3 0x71A JUMPI PUSH3 0x719 PUSH3 0x2BC JUMP JUMPDEST JUMPDEST PUSH3 0x726 DUP3 SLOAD PUSH3 0x4F3 JUMP JUMPDEST PUSH3 0x733 DUP3 DUP3 DUP6 PUSH3 0x65C JUMP JUMPDEST PUSH0 PUSH1 0x20 SWAP1 POP PUSH1 0x1F DUP4 GT PUSH1 0x1 DUP2 EQ PUSH3 0x769 JUMPI PUSH0 DUP5 ISZERO PUSH3 0x754 JUMPI DUP3 DUP8 ADD MLOAD SWAP1 POP JUMPDEST PUSH3 0x760 DUP6 DUP3 PUSH3 0x6D6 JUMP JUMPDEST DUP7 SSTORE POP PUSH3 0x7CF JUMP JUMPDEST PUSH1 0x1F NOT DUP5 AND PUSH3 0x779 DUP7 PUSH3 0x527 JUMP JUMPDEST PUSH0 JUMPDEST DUP3 DUP2 LT ISZERO PUSH3 0x7A2 JUMPI DUP5 DUP10 ADD MLOAD DUP3 SSTORE PUSH1 0x1 DUP3 ADD SWAP2 POP PUSH1 0x20 DUP6 ADD SWAP5 POP PUSH1 0x20 DUP2 ADD SWAP1 POP PUSH3 0x77B JUMP JUMPDEST DUP7 DUP4 LT ISZERO PUSH3 0x7C2 JUMPI DUP5 DUP10 ADD MLOAD PUSH3 0x7BE PUSH1 0x1F DUP10 AND DUP3 PUSH3 0x6B8 JUMP JUMPDEST DUP4 SSTORE POP JUMPDEST PUSH1 0x1 PUSH1 0x2 DUP9 MUL ADD DUP9 SSTORE POP POP POP JUMPDEST POP POP POP POP POP POP JUMP JUMPDEST PUSH2 0x5AB1 DUP1 PUSH3 0x7E5 PUSH0 CODECOPY PUSH0 RETURN INVALID PUSH1 0x80 PUSH1 0x40 MSTORE CALLVALUE DUP1 ISZERO PUSH2 0xF JUMPI PUSH0 DUP1 REVERT JUMPDEST POP PUSH1 0x4 CALLDATASIZE LT PUSH2 0x1C1 JUMPI PUSH0 CALLDATALOAD PUSH1 0xE0 SHR DUP1 PUSH4 0x7330DD84 GT PUSH2 0xF7 JUMPI DUP1 PUSH4 0xCF5219AD GT PUSH2 0x95 JUMPI DUP1 PUSH4 0xE985E9C5 GT PUSH2 0x6F JUMPI DUP1 PUSH4 0xE985E9C5 EQ PUSH2 0x516 JUMPI DUP1 PUSH4 0xF242432A EQ PUSH2 0x546 JUMPI DUP1 PUSH4 0xF2FDE38B EQ PUSH2 0x562 JUMPI DUP1 PUSH4 0xF5298ACA EQ PUSH2 0x57E JUMPI PUSH2 0x1C1 JUMP JUMPDEST DUP1 PUSH4 0xCF5219AD EQ PUSH2 0x498 JUMPI DUP1 PUSH4 0xD121CDC0 EQ PUSH2 0x4B6 JUMPI DUP1 PUSH4 0xE725F877 EQ PUSH2 0x4E6 JUMPI PUSH2 0x1C1 JUMP JUMPDEST DUP1 PUSH4 0x8DA5CB5B GT PUSH2 0xD1 JUMPI DUP1 PUSH4 0x8DA5CB5B EQ PUSH2 0x410 JUMPI DUP1 PUSH4 0x8ED46CFD EQ PUSH2 0x42E JUMPI DUP1 PUSH4 0xA22CB465 EQ PUSH2 0x460 JUMPI DUP1 PUSH4 0xC1F95913 EQ PUSH2 0x47C JUMPI PUSH2 0x1C1 JUMP JUMPDEST DUP1 PUSH4 0x7330DD84 EQ PUSH2 0x3B8 JUMPI DUP1 PUSH4 0x7578B248 EQ PUSH2 0x3D4 JUMPI DUP1 PUSH4 0x784008CE EQ PUSH2 0x3F2 JUMPI PUSH2 0x1C1 JUMP JUMPDEST DUP1 PUSH4 0x2EB2C2D6 GT PUSH2 0x164 JUMPI DUP1 PUSH4 0x4E1273F4 GT PUSH2 0x13E JUMPI DUP1 PUSH4 0x4E1273F4 EQ PUSH2 0x346 JUMPI DUP1 PUSH4 0x50FBDB2D EQ PUSH2 0x376 JUMPI DUP1 PUSH4 0x70480275 EQ PUSH2 0x392 JUMPI DUP1 PUSH4 0x715018A6 EQ PUSH2 0x3AE JUMPI PUSH2 0x1C1 JUMP JUMPDEST DUP1 PUSH4 0x2EB2C2D6 EQ PUSH2 0x2DC JUMPI DUP1 PUSH4 0x2F4955F6 EQ PUSH2 0x2F8 JUMPI DUP1 PUSH4 0x31AE450B EQ PUSH2 0x328 JUMPI PUSH2 0x1C1 JUMP JUMPDEST DUP1 PUSH4 0xE89341C GT PUSH2 0x1A0 JUMPI DUP1 PUSH4 0xE89341C EQ PUSH2 0x256 JUMPI DUP1 PUSH4 0x1785F53C EQ PUSH2 0x286 JUMPI DUP1 PUSH4 0x2B7AC3F3 EQ PUSH2 0x2A2 JUMPI DUP1 PUSH4 0x2DBFF950 EQ PUSH2 0x2C0 JUMPI PUSH2 0x1C1 JUMP JUMPDEST DUP1 PUSH3 0xFDD58E EQ PUSH2 0x1C5 JUMPI DUP1 PUSH4 0x1843A14 EQ PUSH2 0x1F5 JUMPI DUP1 PUSH4 0x1FFC9A7 EQ PUSH2 0x226 JUMPI JUMPDEST PUSH0 DUP1 REVERT JUMPDEST PUSH2 0x1DF PUSH1 0x4 DUP1 CALLDATASIZE SUB DUP2 ADD SWAP1 PUSH2 0x1DA SWAP2 SWAP1 PUSH2 0x37E9 JUMP JUMPDEST PUSH2 0x59A JUMP JUMPDEST PUSH1 0x40 MLOAD PUSH2 0x1EC SWAP2 SWAP1 PUSH2 0x3836 JUMP JUMPDEST PUSH1 0x40 MLOAD DUP1 SWAP2 SUB SWAP1 RETURN JUMPDEST PUSH2 0x20F PUSH1 0x4 DUP1 CALLDATASIZE SUB DUP2 ADD SWAP1 PUSH2 0x20A SWAP2 SWAP1 PUSH2 0x384F JUMP JUMPDEST PUSH2 0x5EF JUMP JUMPDEST PUSH1 0x40 MLOAD PUSH2 0x21D SWAP3 SWAP2 SWAP1 PUSH2 0x3AE4 JUMP JUMPDEST PUSH1 0x40 MLOAD DUP1 SWAP2 SUB SWAP1 RETURN JUMPDEST PUSH2 0x240 PUSH1 0x4 DUP1 CALLDATASIZE SUB DUP2 ADD SWAP1 PUSH2 0x23B SWAP2 SWAP1 PUSH2 0x3B6E JUMP JUMPDEST PUSH2 0xAC6 JUMP JUMPDEST PUSH1 0x40 MLOAD PUSH2 0x24D SWAP2 SWAP1 PUSH2 0x3BB3 JUMP JUMPDEST PUSH1 0x40 MLOAD DUP1 SWAP2 SUB SWAP1 RETURN JUMPDEST PUSH2 0x270 PUSH1 0x4 DUP1 CALLDATASIZE SUB DUP2 ADD SWAP1 PUSH2 0x26B SWAP2 SWAP1 PUSH2 0x384F JUMP JUMPDEST PUSH2 0xBA7 JUMP JUMPDEST PUSH1 0x40 MLOAD PUSH2 0x27D SWAP2 SWAP1 PUSH2 0x3C14 JUMP JUMPDEST PUSH1 0x40 MLOAD DUP1 SWAP2 SUB SWAP1 RETURN JUMPDEST PUSH2 0x2A0 PUSH1 0x4 DUP1 CALLDATASIZE SUB DUP2 ADD SWAP1 PUSH2 0x29B SWAP2 SWAP1 PUSH2 0x3C34 JUMP JUMPDEST PUSH2 0xC39 JUMP JUMPDEST STOP JUMPDEST PUSH2 0x2AA PUSH2 0xE00 JUMP JUMPDEST PUSH1 0x40 MLOAD PUSH2 0x2B7 SWAP2 SWAP1 PUSH2 0x3CBA JUMP JUMPDEST PUSH1 0x40 MLOAD DUP1 SWAP2 SUB SWAP1 RETURN JUMPDEST PUSH2 0x2DA PUSH1 0x4 DUP1 CALLDATASIZE SUB DUP2 ADD SWAP1 PUSH2 0x2D5 SWAP2 SWAP1 PUSH2 0x3D89 JUMP JUMPDEST PUSH2 0xE25 JUMP JUMPDEST STOP JUMPDEST PUSH2 0x2F6 PUSH1 0x4 DUP1 CALLDATASIZE SUB DUP2 ADD SWAP1 PUSH2 0x2F1 SWAP2 SWAP1 PUSH2 0x4014 JUMP JUMPDEST PUSH2 0x1105 JUMP JUMPDEST STOP JUMPDEST PUSH2 0x312 PUSH1 0x4 DUP1 CALLDATASIZE SUB DUP2 ADD SWAP1 PUSH2 0x30D SWAP2 SWAP1 PUSH2 0x4109 JUMP JUMPDEST PUSH2 0x1241 JUMP JUMPDEST PUSH1 0x40 MLOAD PUSH2 0x31F SWAP2 SWAP1 PUSH2 0x3C14 JUMP JUMPDEST PUSH1 0x40 MLOAD DUP1 SWAP2 SUB SWAP1 RETURN JUMPDEST PUSH2 0x330 PUSH2 0x12E7 JUMP JUMPDEST PUSH1 0x40 MLOAD PUSH2 0x33D SWAP2 SWAP1 PUSH2 0x41FE JUMP JUMPDEST PUSH1 0x40 MLOAD DUP1 SWAP2 SUB SWAP1 RETURN JUMPDEST PUSH2 0x360 PUSH1 0x4 DUP1 CALLDATASIZE SUB DUP2 ADD SWAP1 PUSH2 0x35B SWAP2 SWAP1 PUSH2 0x42DE JUMP JUMPDEST PUSH2 0x137A JUMP JUMPDEST PUSH1 0x40 MLOAD PUSH2 0x36D SWAP2 SWAP1 PUSH2 0x440B JUMP JUMPDEST PUSH1 0x40 MLOAD DUP1 SWAP2 SUB SWAP1 RETURN JUMPDEST PUSH2 0x390 PUSH1 0x4 DUP1 CALLDATASIZE SUB DUP2 ADD SWAP1 PUSH2 0x38B SWAP2 SWAP1 PUSH2 0x4109 JUMP JUMPDEST PUSH2 0x1487 JUMP JUMPDEST STOP JUMPDEST PUSH2 0x3AC PUSH1 0x4 DUP1 CALLDATASIZE SUB DUP2 ADD SWAP1 PUSH2 0x3A7 SWAP2 SWAP1 PUSH2 0x3C34 JUMP JUMPDEST PUSH2 0x17A6 JUMP JUMPDEST STOP JUMPDEST PUSH2 0x3B6 PUSH2 0x18C8 JUMP JUMPDEST STOP JUMPDEST PUSH2 0x3D2 PUSH1 0x4 DUP1 CALLDATASIZE SUB DUP2 ADD SWAP1 PUSH2 0x3CD SWAP2 SWAP1 PUSH2 0x4488 JUMP JUMPDEST PUSH2 0x18DB JUMP JUMPDEST STOP JUMPDEST PUSH2 0x3DC PUSH2 0x1BBB JUMP JUMPDEST PUSH1 0x40 MLOAD PUSH2 0x3E9 SWAP2 SWAP1 PUSH2 0x440B JUMP JUMPDEST PUSH1 0x40 MLOAD DUP1 SWAP2 SUB SWAP1 RETURN JUMPDEST PUSH2 0x3FA PUSH2 0x1BCC JUMP JUMPDEST PUSH1 0x40 MLOAD PUSH2 0x407 SWAP2 SWAP1 PUSH2 0x3836 JUMP JUMPDEST PUSH1 0x40 MLOAD DUP1 SWAP2 SUB SWAP1 RETURN JUMPDEST PUSH2 0x418 PUSH2 0x1BD1 JUMP JUMPDEST PUSH1 0x40 MLOAD PUSH2 0x425 SWAP2 SWAP1 PUSH2 0x45B0 JUMP JUMPDEST PUSH1 0x40 MLOAD DUP1 SWAP2 SUB SWAP1 RETURN JUMPDEST PUSH2 0x448 PUSH1 0x4 DUP1 CALLDATASIZE SUB DUP2 ADD SWAP1 PUSH2 0x443 SWAP2 SWAP1 PUSH2 0x4109 JUMP JUMPDEST PUSH2 0x1BF9 JUMP JUMPDEST PUSH1 0x40 MLOAD PUSH2 0x457 SWAP4 SWAP3 SWAP2 SWAP1 PUSH2 0x45C9 JUMP JUMPDEST PUSH1 0x40 MLOAD DUP1 SWAP2 SUB SWAP1 RETURN JUMPDEST PUSH2 0x47A PUSH1 0x4 DUP1 CALLDATASIZE SUB DUP2 ADD SWAP1 PUSH2 0x475 SWAP2 SWAP1 PUSH2 0x463D JUMP JUMPDEST PUSH2 0x1DBC JUMP JUMPDEST STOP JUMPDEST PUSH2 0x496 PUSH1 0x4 DUP1 CALLDATASIZE SUB DUP2 ADD SWAP1 PUSH2 0x491 SWAP2 SWAP1 PUSH2 0x467B JUMP JUMPDEST PUSH2 0x1DD2 JUMP JUMPDEST STOP JUMPDEST PUSH2 0x4A0 PUSH2 0x207F JUMP JUMPDEST PUSH1 0x40 MLOAD PUSH2 0x4AD SWAP2 SWAP1 PUSH2 0x3836 JUMP JUMPDEST PUSH1 0x40 MLOAD DUP1 SWAP2 SUB SWAP1 RETURN JUMPDEST PUSH2 0x4D0 PUSH1 0x4 DUP1 CALLDATASIZE SUB DUP2 ADD SWAP1 PUSH2 0x4CB SWAP2 SWAP1 PUSH2 0x384F JUMP JUMPDEST PUSH2 0x2084 JUMP JUMPDEST PUSH1 0x40 MLOAD PUSH2 0x4DD SWAP2 SWAP1 PUSH2 0x46FB JUMP JUMPDEST PUSH1 0x40 MLOAD DUP1 SWAP2 SUB SWAP1 RETURN JUMPDEST PUSH2 0x500 PUSH1 0x4 DUP1 CALLDATASIZE SUB DUP2 ADD SWAP1 PUSH2 0x4FB SWAP2 SWAP1 PUSH2 0x384F JUMP JUMPDEST PUSH2 0x20BF JUMP JUMPDEST PUSH1 0x40 MLOAD PUSH2 0x50D SWAP2 SWAP1 PUSH2 0x3C14 JUMP JUMPDEST PUSH1 0x40 MLOAD DUP1 SWAP2 SUB SWAP1 RETURN JUMPDEST PUSH2 0x530 PUSH1 0x4 DUP1 CALLDATASIZE SUB DUP2 ADD SWAP1 PUSH2 0x52B SWAP2 SWAP1 PUSH2 0x4714 JUMP JUMPDEST PUSH2 0x215A JUMP JUMPDEST PUSH1 0x40 MLOAD PUSH2 0x53D SWAP2 SWAP1 PUSH2 0x3BB3 JUMP JUMPDEST PUSH1 0x40 MLOAD DUP1 SWAP2 SUB SWAP1 RETURN JUMPDEST PUSH2 0x560 PUSH1 0x4 DUP1 CALLDATASIZE SUB DUP2 ADD SWAP1 PUSH2 0x55B SWAP2 SWAP1 PUSH2 0x4752 JUMP JUMPDEST PUSH2 0x21E8 JUMP JUMPDEST STOP JUMPDEST PUSH2 0x57C PUSH1 0x4 DUP1 CALLDATASIZE SUB DUP2 ADD SWAP1 PUSH2 0x577 SWAP2 SWAP1 PUSH2 0x3C34 JUMP JUMPDEST PUSH2 0x2207 JUMP JUMPDEST STOP JUMPDEST PUSH2 0x598 PUSH1 0x4 DUP1 CALLDATASIZE SUB DUP2 ADD SWAP1 PUSH2 0x593 SWAP2 SWAP1 PUSH2 0x47E5 JUMP JUMPDEST PUSH2 0x228B JUMP JUMPDEST STOP JUMPDEST PUSH0 DUP1 PUSH0 DUP4 DUP2 MSTORE PUSH1 0x20 ADD SWAP1 DUP2 MSTORE PUSH1 0x20 ADD PUSH0 KECCAK256 PUSH0 DUP5 PUSH20 0xFFFFFFFFFFFFFFFFFFFFFFFFFFFFFFFFFFFFFFFF AND PUSH20 0xFFFFFFFFFFFFFFFFFFFFFFFFFFFFFFFFFFFFFFFF AND DUP2 MSTORE PUSH1 0x20 ADD SWAP1 DUP2 MSTORE PUSH1 0x20 ADD PUSH0 KECCAK256 SLOAD SWAP1 POP SWAP3 SWAP2 POP POP JUMP JUMPDEST PUSH1 0x60 DUP1 PUSH0 PUSH1 0xA DUP1 SLOAD DUP1 PUSH1 0x20 MUL PUSH1 0x20 ADD PUSH1 0x40 MLOAD SWAP1 DUP2 ADD PUSH1 0x40 MSTORE DUP1 SWAP3 SWAP2 SWAP1 DUP2 DUP2 MSTORE PUSH1 0x20 ADD DUP3 DUP1 SLOAD DUP1 ISZERO PUSH2 0x670 JUMPI PUSH1 0x20 MUL DUP3 ADD SWAP2 SWAP1 PUSH0 MSTORE PUSH1 0x20 PUSH0 KECCAK256 SWAP1 PUSH0 SWAP1 JUMPDEST DUP3 DUP3 SWAP1 SLOAD SWAP1 PUSH2 0x100 EXP SWAP1 DIV PUSH8 0xFFFFFFFFFFFFFFFF AND PUSH8 0xFFFFFFFFFFFFFFFF AND DUP2 MSTORE PUSH1 0x20 ADD SWAP1 PUSH1 0x8 ADD SWAP1 PUSH1 0x20 DUP3 PUSH1 0x7 ADD DIV SWAP3 DUP4 ADD SWAP3 PUSH1 0x1 SUB DUP3 MUL SWAP2 POP DUP1 DUP5 GT PUSH2 0x62B JUMPI SWAP1 POP JUMPDEST POP POP POP POP POP SWAP1 POP PUSH0 DUP1 JUMPDEST DUP3 MLOAD DUP2 LT ISZERO PUSH2 0x709 JUMPI PUSH0 PUSH1 0x9 PUSH0 DUP9 DUP2 MSTORE PUSH1 0x20 ADD SWAP1 DUP2 MSTORE PUSH1 0x20 ADD PUSH0 KECCAK256 PUSH0 DUP6 DUP5 DUP2 MLOAD DUP2 LT PUSH2 0x6A9 JUMPI PUSH2 0x6A8 PUSH2 0x4835 JUMP JUMPDEST JUMPDEST PUSH1 0x20 MUL PUSH1 0x20 ADD ADD MLOAD PUSH8 0xFFFFFFFFFFFFFFFF AND PUSH8 0xFFFFFFFFFFFFFFFF AND DUP2 MSTORE PUSH1 0x20 ADD SWAP1 DUP2 MSTORE PUSH1 0x20 ADD PUSH0 KECCAK256 PUSH0 ADD DUP1 SLOAD PUSH2 0x6DF SWAP1 PUSH2 0x488F JUMP JUMPDEST SWAP1 POP GT ISZERO PUSH2 0x6F6 JUMPI DUP2 DUP1 PUSH2 0x6F2 SWAP1 PUSH2 0x48EC JUMP JUMPDEST SWAP3 POP POP JUMPDEST DUP1 DUP1 PUSH2 0x701 SWAP1 PUSH2 0x48EC JUMP JUMPDEST SWAP2 POP POP PUSH2 0x67A JUMP JUMPDEST POP PUSH0 DUP2 PUSH8 0xFFFFFFFFFFFFFFFF DUP2 GT ISZERO PUSH2 0x725 JUMPI PUSH2 0x724 PUSH2 0x3E2C JUMP JUMPDEST JUMPDEST PUSH1 0x40 MLOAD SWAP1 DUP1 DUP3 MSTORE DUP1 PUSH1 0x20 MUL PUSH1 0x20 ADD DUP3 ADD PUSH1 0x40 MSTORE DUP1 ISZERO PUSH2 0x753 JUMPI DUP2 PUSH1 0x20 ADD PUSH1 0x20 DUP3 MUL DUP1 CALLDATASIZE DUP4 CALLDATACOPY DUP1 DUP3 ADD SWAP2 POP POP SWAP1 POP JUMPDEST POP SWAP1 POP PUSH0 DUP3 PUSH8 0xFFFFFFFFFFFFFFFF DUP2 GT ISZERO PUSH2 0x771 JUMPI PUSH2 0x770 PUSH2 0x3E2C JUMP JUMPDEST JUMPDEST PUSH1 0x40 MLOAD SWAP1 DUP1 DUP3 MSTORE DUP1 PUSH1 0x20 MUL PUSH1 0x20 ADD DUP3 ADD PUSH1 0x40 MSTORE DUP1 ISZERO PUSH2 0x7AA JUMPI DUP2 PUSH1 0x20 ADD JUMPDEST PUSH2 0x797 PUSH2 0x36D2 JUMP JUMPDEST DUP2 MSTORE PUSH1 0x20 ADD SWAP1 PUSH1 0x1 SWAP1 SUB SWAP1 DUP2 PUSH2 0x78F JUMPI SWAP1 POP JUMPDEST POP SWAP1 POP PUSH0 DUP1 JUMPDEST DUP6 MLOAD DUP2 LT ISZERO PUSH2 0xAB5 JUMPI PUSH0 PUSH1 0x9 PUSH0 DUP12 DUP2 MSTORE PUSH1 0x20 ADD SWAP1 DUP2 MSTORE PUSH1 0x20 ADD PUSH0 KECCAK256 PUSH0 DUP9 DUP5 DUP2 MLOAD DUP2 LT PUSH2 0x7DF JUMPI PUSH2 0x7DE PUSH2 0x4835 JUMP JUMPDEST JUMPDEST PUSH1 0x20 MUL PUSH1 0x20 ADD ADD MLOAD PUSH8 0xFFFFFFFFFFFFFFFF AND PUSH8 0xFFFFFFFFFFFFFFFF AND DUP2 MSTORE PUSH1 0x20 ADD SWAP1 DUP2 MSTORE PUSH1 0x20 ADD PUSH0 KECCAK256 PUSH0 ADD DUP1 SLOAD PUSH2 0x815 SWAP1 PUSH2 0x488F JUMP JUMPDEST SWAP1 POP GT ISZERO PUSH2 0xAA2 JUMPI DUP6 DUP2 DUP2 MLOAD DUP2 LT PUSH2 0x830 JUMPI PUSH2 0x82F PUSH2 0x4835 JUMP JUMPDEST JUMPDEST PUSH1 0x20 MUL PUSH1 0x20 ADD ADD MLOAD DUP5 DUP4 DUP2 MLOAD DUP2 LT PUSH2 0x84B JUMPI PUSH2 0x84A PUSH2 0x4835 JUMP JUMPDEST JUMPDEST PUSH1 0x20 MUL PUSH1 0x20 ADD ADD SWAP1 PUSH8 0xFFFFFFFFFFFFFFFF AND SWAP1 DUP2 PUSH8 0xFFFFFFFFFFFFFFFF AND DUP2 MSTORE POP POP PUSH1 0x9 PUSH0 DUP11 DUP2 MSTORE PUSH1 0x20 ADD SWAP1 DUP2 MSTORE PUSH1 0x20 ADD PUSH0 KECCAK256 PUSH0 DUP8 DUP4 DUP2 MLOAD DUP2 LT PUSH2 0x892 JUMPI PUSH2 0x891 PUSH2 0x4835 JUMP JUMPDEST JUMPDEST PUSH1 0x20 MUL PUSH1 0x20 ADD ADD MLOAD PUSH8 0xFFFFFFFFFFFFFFFF AND PUSH8 0xFFFFFFFFFFFFFFFF AND DUP2 MSTORE PUSH1 0x20 ADD SWAP1 DUP2 MSTORE PUSH1 0x20 ADD PUSH0 KECCAK256 PUSH1 0x40 MLOAD DUP1 PUSH1 0x60 ADD PUSH1 0x40 MSTORE SWAP1 DUP2 PUSH0 DUP3 ADD DUP1 SLOAD PUSH2 0x8D5 SWAP1 PUSH2 0x488F JUMP JUMPDEST DUP1 PUSH1 0x1F ADD PUSH1 0x20 DUP1 SWAP2 DIV MUL PUSH1 0x20 ADD PUSH1 0x40 MLOAD SWAP1 DUP2 ADD PUSH1 0x40 MSTORE DUP1 SWAP3 SWAP2 SWAP1 DUP2 DUP2 MSTORE PUSH1 0x20 ADD DUP3 DUP1 SLOAD PUSH2 0x901 SWAP1 PUSH2 0x488F JUMP JUMPDEST DUP1 ISZERO PUSH2 0x94C JUMPI DUP1 PUSH1 0x1F LT PUSH2 0x923 JUMPI PUSH2 0x100 DUP1 DUP4 SLOAD DIV MUL DUP4 MSTORE SWAP2 PUSH1 0x20 ADD SWAP2 PUSH2 0x94C JUMP JUMPDEST DUP3 ADD SWAP2 SWAP1 PUSH0 MSTORE PUSH1 0x20 PUSH0 KECCAK256 SWAP1 JUMPDEST DUP2 SLOAD DUP2 MSTORE SWAP1 PUSH1 0x1 ADD SWAP1 PUSH1 0x20 ADD DUP1 DUP4 GT PUSH2 0x92F JUMPI DUP3 SWAP1 SUB PUSH1 0x1F AND DUP3 ADD SWAP2 JUMPDEST POP POP POP POP POP DUP2 MSTORE PUSH1 0x20 ADD PUSH1 0x1 DUP3 ADD DUP1 SLOAD PUSH2 0x965 SWAP1 PUSH2 0x488F JUMP JUMPDEST DUP1 PUSH1 0x1F ADD PUSH1 0x20 DUP1 SWAP2 DIV MUL PUSH1 0x20 ADD PUSH1 0x40 MLOAD SWAP1 DUP2 ADD PUSH1 0x40 MSTORE DUP1 SWAP3 SWAP2 SWAP1 DUP2 DUP2 MSTORE PUSH1 0x20 ADD DUP3 DUP1 SLOAD PUSH2 0x991 SWAP1 PUSH2 0x488F JUMP JUMPDEST DUP1 ISZERO PUSH2 0x9DC JUMPI DUP1 PUSH1 0x1F LT PUSH2 0x9B3 JUMPI PUSH2 0x100 DUP1 DUP4 SLOAD DIV MUL DUP4 MSTORE SWAP2 PUSH1 0x20 ADD SWAP2 PUSH2 0x9DC JUMP JUMPDEST DUP3 ADD SWAP2 SWAP1 PUSH0 MSTORE PUSH1 0x20 PUSH0 KECCAK256 SWAP1 JUMPDEST DUP2 SLOAD DUP2 MSTORE SWAP1 PUSH1 0x1 ADD SWAP1 PUSH1 0x20 ADD DUP1 DUP4 GT PUSH2 0x9BF JUMPI DUP3 SWAP1 SUB PUSH1 0x1F AND DUP3 ADD SWAP2 JUMPDEST POP POP POP POP POP DUP2 MSTORE PUSH1 0x20 ADD PUSH1 0x2 DUP3 ADD DUP1 SLOAD PUSH2 0x9F5 SWAP1 PUSH2 0x488F JUMP JUMPDEST DUP1 PUSH1 0x1F ADD PUSH1 0x20 DUP1 SWAP2 DIV MUL PUSH1 0x20 ADD PUSH1 0x40 MLOAD SWAP1 DUP2 ADD PUSH1 0x40 MSTORE DUP1 SWAP3 SWAP2 SWAP1 DUP2 DUP2 MSTORE PUSH1 0x20 ADD DUP3 DUP1 SLOAD PUSH2 0xA21 SWAP1 PUSH2 0x488F JUMP JUMPDEST DUP1 ISZERO PUSH2 0xA6C JUMPI DUP1 PUSH1 0x1F LT PUSH2 0xA43 JUMPI PUSH2 0x100 DUP1 DUP4 SLOAD DIV MUL DUP4 MSTORE SWAP2 PUSH1 0x20 ADD SWAP2 PUSH2 0xA6C JUMP JUMPDEST DUP3 ADD SWAP2 SWAP1 PUSH0 MSTORE PUSH1 0x20 PUSH0 KECCAK256 SWAP1 JUMPDEST DUP2 SLOAD DUP2 MSTORE SWAP1 PUSH1 0x1 ADD SWAP1 PUSH1 0x20 ADD DUP1 DUP4 GT PUSH2 0xA4F JUMPI DUP3 SWAP1 SUB PUSH1 0x1F AND DUP3 ADD SWAP2 JUMPDEST POP POP POP POP POP DUP2 MSTORE POP POP DUP4 DUP4 DUP2 MLOAD DUP2 LT PUSH2 0xA88 JUMPI PUSH2 0xA87 PUSH2 0x4835 JUMP JUMPDEST JUMPDEST PUSH1 0x20 MUL PUSH1 0x20 ADD ADD DUP2 SWAP1 MSTORE POP DUP2 DUP1 PUSH2 0xA9E SWAP1 PUSH2 0x48EC JUMP JUMPDEST SWAP3 POP POP JUMPDEST DUP1 DUP1 PUSH2 0xAAD SWAP1 PUSH2 0x48EC JUMP JUMPDEST SWAP2 POP POP PUSH2 0x7B0 JUMP JUMPDEST POP DUP3 DUP3 SWAP7 POP SWAP7 POP POP POP POP POP POP SWAP2 POP SWAP2 JUMP JUMPDEST PUSH0 PUSH32 0xD9B67A2600000000000000000000000000000000000000000000000000000000 PUSH28 0xFFFFFFFFFFFFFFFFFFFFFFFFFFFFFFFFFFFFFFFFFFFFFFFFFFFFFFFF NOT AND DUP3 PUSH28 0xFFFFFFFFFFFFFFFFFFFFFFFFFFFFFFFFFFFFFFFFFFFFFFFFFFFFFFFF NOT AND EQ DUP1 PUSH2 0xB90 JUMPI POP PUSH32 0xE89341C00000000000000000000000000000000000000000000000000000000 PUSH28 0xFFFFFFFFFFFFFFFFFFFFFFFFFFFFFFFFFFFFFFFFFFFFFFFFFFFFFFFF NOT AND DUP3 PUSH28 0xFFFFFFFFFFFFFFFFFFFFFFFFFFFFFFFFFFFFFFFFFFFFFFFFFFFFFFFF NOT AND EQ JUMPDEST DUP1 PUSH2 0xBA0 JUMPI POP PUSH2 0xB9F DUP3 PUSH2 0x22A3 JUMP JUMPDEST JUMPDEST SWAP1 POP SWAP2 SWAP1 POP JUMP JUMPDEST PUSH1 0x60 PUSH1 0x2 DUP1 SLOAD PUSH2 0xBB6 SWAP1 PUSH2 0x488F JUMP JUMPDEST DUP1 PUSH1 0x1F ADD PUSH1 0x20 DUP1 SWAP2 DIV MUL PUSH1 0x20 ADD PUSH1 0x40 MLOAD SWAP1 DUP2 ADD PUSH1 0x40 MSTORE DUP1 SWAP3 SWAP2 SWAP1 DUP2 DUP2 MSTORE PUSH1 0x20 ADD DUP3 DUP1 SLOAD PUSH2 0xBE2 SWAP1 PUSH2 0x488F JUMP JUMPDEST DUP1 ISZERO PUSH2 0xC2D JUMPI DUP1 PUSH1 0x1F LT PUSH2 0xC04 JUMPI PUSH2 0x100 DUP1 DUP4 SLOAD DIV MUL DUP4 MSTORE SWAP2 PUSH1 0x20 ADD SWAP2 PUSH2 0xC2D JUMP JUMPDEST DUP3 ADD SWAP2 SWAP1 PUSH0 MSTORE PUSH1 0x20 PUSH0 KECCAK256 SWAP1 JUMPDEST DUP2 SLOAD DUP2 MSTORE SWAP1 PUSH1 0x1 ADD SWAP1 PUSH1 0x20 ADD DUP1 DUP4 GT PUSH2 0xC10 JUMPI DUP3 SWAP1 SUB PUSH1 0x1F AND DUP3 ADD SWAP2 JUMPDEST POP POP POP POP POP SWAP1 POP SWAP2 SWAP1 POP JUMP JUMPDEST PUSH2 0xC41 PUSH2 0x230C JUMP JUMPDEST PUSH0 PUSH1 0x4 DUP1 SLOAD SWAP1 POP SWAP1 POP PUSH0 JUMPDEST DUP2 DUP2 LT ISZERO PUSH2 0xDC1 JUMPI DUP3 PUSH20 0xFFFFFFFFFFFFFFFFFFFFFFFFFFFFFFFFFFFFFFFF AND PUSH1 0x4 DUP3 DUP2 SLOAD DUP2 LT PUSH2 0xC7F JUMPI PUSH2 0xC7E PUSH2 0x4835 JUMP JUMPDEST JUMPDEST SWAP1 PUSH0 MSTORE PUSH1 0x20 PUSH0 KECCAK256 ADD PUSH0 SWAP1 SLOAD SWAP1 PUSH2 0x100 EXP SWAP1 DIV PUSH20 0xFFFFFFFFFFFFFFFFFFFFFFFFFFFFFFFFFFFFFFFF AND PUSH20 0xFFFFFFFFFFFFFFFFFFFFFFFFFFFFFFFFFFFFFFFF AND SUB PUSH2 0xDAE JUMPI PUSH1 0x4 PUSH1 0x1 DUP4 PUSH2 0xCD1 SWAP2 SWAP1 PUSH2 0x4933 JUMP JUMPDEST DUP2 SLOAD DUP2 LT PUSH2 0xCE2 JUMPI PUSH2 0xCE1 PUSH2 0x4835 JUMP JUMPDEST JUMPDEST SWAP1 PUSH0 MSTORE PUSH1 0x20 PUSH0 KECCAK256 ADD PUSH0 SWAP1 SLOAD SWAP1 PUSH2 0x100 EXP SWAP1 DIV PUSH20 0xFFFFFFFFFFFFFFFFFFFFFFFFFFFFFFFFFFFFFFFF AND PUSH1 0x4 DUP3 DUP2 SLOAD DUP2 LT PUSH2 0xD1E JUMPI PUSH2 0xD1D PUSH2 0x4835 JUMP JUMPDEST JUMPDEST SWAP1 PUSH0 MSTORE PUSH1 0x20 PUSH0 KECCAK256 ADD PUSH0 PUSH2 0x100 EXP DUP2 SLOAD DUP2 PUSH20 0xFFFFFFFFFFFFFFFFFFFFFFFFFFFFFFFFFFFFFFFF MUL NOT AND SWAP1 DUP4 PUSH20 0xFFFFFFFFFFFFFFFFFFFFFFFFFFFFFFFFFFFFFFFF AND MUL OR SWAP1 SSTORE POP PUSH1 0x4 DUP1 SLOAD DUP1 PUSH2 0xD75 JUMPI PUSH2 0xD74 PUSH2 0x4966 JUMP JUMPDEST JUMPDEST PUSH1 0x1 SWAP1 SUB DUP2 DUP2 SWAP1 PUSH0 MSTORE PUSH1 0x20 PUSH0 KECCAK256 ADD PUSH0 PUSH2 0x100 EXP DUP2 SLOAD SWAP1 PUSH20 0xFFFFFFFFFFFFFFFFFFFFFFFFFFFFFFFFFFFFFFFF MUL NOT AND SWAP1 SSTORE SWAP1 SSTORE POP POP PUSH2 0xDFD JUMP JUMPDEST DUP1 DUP1 PUSH2 0xDB9 SWAP1 PUSH2 0x48EC JUMP JUMPDEST SWAP2 POP POP PUSH2 0xC4C JUMP JUMPDEST POP PUSH1 0x40 MLOAD PUSH32 0x8C379A000000000000000000000000000000000000000000000000000000000 DUP2 MSTORE PUSH1 0x4 ADD PUSH2 0xDF4 SWAP1 PUSH2 0x49DD JUMP JUMPDEST PUSH1 0x40 MLOAD DUP1 SWAP2 SUB SWAP1 REVERT JUMPDEST POP JUMP JUMPDEST PUSH1 0xB PUSH0 SWAP1 SLOAD SWAP1 PUSH2 0x100 EXP SWAP1 DIV PUSH20 0xFFFFFFFFFFFFFFFFFFFFFFFFFFFFFFFFFFFFFFFF AND DUP2 JUMP JUMPDEST PUSH0 DUP3 DUP3 SWAP1 POP GT PUSH2 0xE6A JUMPI PUSH1 0x40 MLOAD PUSH32 0x8C379A000000000000000000000000000000000000000000000000000000000 DUP2 MSTORE PUSH1 0x4 ADD PUSH2 0xE61 SWAP1 PUSH2 0x4A45 JUMP JUMPDEST PUSH1 0x40 MLOAD DUP1 SWAP2 SUB SWAP1 REVERT JUMPDEST PUSH0 DUP1 PUSH0 PUSH2 0xE77 PUSH1 0x5 PUSH2 0x2393 JUMP JUMPDEST SWAP1 POP PUSH0 JUMPDEST DUP2 MLOAD DUP2 LT ISZERO PUSH2 0xF1A JUMPI DUP6 DUP6 PUSH1 0x40 MLOAD PUSH2 0xE94 SWAP3 SWAP2 SWAP1 PUSH2 0x4A91 JUMP JUMPDEST PUSH1 0x40 MLOAD DUP1 SWAP2 SUB SWAP1 KECCAK256 PUSH1 0x7 PUSH0 DUP5 DUP5 DUP2 MLOAD DUP2 LT PUSH2 0xEB2 JUMPI PUSH2 0xEB1 PUSH2 0x4835 JUMP JUMPDEST JUMPDEST PUSH1 0x20 MUL PUSH1 0x20 ADD ADD MLOAD DUP2 MSTORE PUSH1 0x20 ADD SWAP1 DUP2 MSTORE PUSH1 0x20 ADD PUSH0 KECCAK256 PUSH1 0x40 MLOAD PUSH2 0xED4 SWAP2 SWAP1 PUSH2 0x4B3B JUMP JUMPDEST PUSH1 0x40 MLOAD DUP1 SWAP2 SUB SWAP1 KECCAK256 SUB PUSH2 0xF07 JUMPI DUP2 DUP2 DUP2 MLOAD DUP2 LT PUSH2 0xEF4 JUMPI PUSH2 0xEF3 PUSH2 0x4835 JUMP JUMPDEST JUMPDEST PUSH1 0x20 MUL PUSH1 0x20 ADD ADD MLOAD SWAP4 POP PUSH1 0x1 SWAP3 POP PUSH2 0xF1A JUMP JUMPDEST DUP1 DUP1 PUSH2 0xF12 SWAP1 PUSH2 0x48EC JUMP JUMPDEST SWAP2 POP POP PUSH2 0xE7B JUMP JUMPDEST POP DUP2 ISZERO PUSH2 0xF75 JUMPI PUSH2 0xF70 DUP10 DUP5 DUP11 DUP11 DUP11 DUP1 DUP1 PUSH1 0x1F ADD PUSH1 0x20 DUP1 SWAP2 DIV MUL PUSH1 0x20 ADD PUSH1 0x40 MLOAD SWAP1 DUP2 ADD PUSH1 0x40 MSTORE DUP1 SWAP4 SWAP3 SWAP2 SWAP1 DUP2 DUP2 MSTORE PUSH1 0x20 ADD DUP4 DUP4 DUP1 DUP3 DUP5 CALLDATACOPY PUSH0 DUP2 DUP5 ADD MSTORE PUSH1 0x1F NOT PUSH1 0x1F DUP3 ADD AND SWAP1 POP DUP1 DUP4 ADD SWAP3 POP POP POP POP POP POP POP PUSH2 0x23B2 JUMP JUMPDEST PUSH2 0x10FA JUMP JUMPDEST PUSH0 DUP1 PUSH0 SWAP1 POP JUMPDEST PUSH3 0x15F90 TIMESTAMP PREVRANDAO DUP14 DUP11 DUP11 DUP7 PUSH1 0x40 MLOAD PUSH1 0x20 ADD PUSH2 0xF9A SWAP7 SWAP6 SWAP5 SWAP4 SWAP3 SWAP2 SWAP1 PUSH2 0x4BE4 JUMP JUMPDEST PUSH1 0x40 MLOAD PUSH1 0x20 DUP2 DUP4 SUB SUB DUP2 MSTORE SWAP1 PUSH1 0x40 MSTORE DUP1 MLOAD SWAP1 PUSH1 0x20 ADD KECCAK256 PUSH0 SHR PUSH2 0xFBC SWAP2 SWAP1 PUSH2 0x4C6D JUMP JUMPDEST PUSH2 0x3E8 PUSH2 0xFC9 SWAP2 SWAP1 PUSH2 0x4C9D JUMP JUMPDEST SWAP2 POP DUP1 DUP1 PUSH2 0xFD6 SWAP1 PUSH2 0x48EC JUMP JUMPDEST SWAP2 POP POP PUSH1 0x64 DUP2 LT PUSH2 0x101C JUMPI PUSH1 0x40 MLOAD PUSH32 0x8C379A000000000000000000000000000000000000000000000000000000000 DUP2 MSTORE PUSH1 0x4 ADD PUSH2 0x1013 SWAP1 PUSH2 0x4D40 JUMP JUMPDEST PUSH1 0x40 MLOAD DUP1 SWAP2 SUB SWAP1 REVERT JUMPDEST PUSH2 0x1030 DUP3 PUSH1 0x5 PUSH2 0x2447 SWAP1 SWAP2 SWAP1 PUSH4 0xFFFFFFFF AND JUMP JUMPDEST PUSH2 0xF7B JUMPI PUSH2 0x1048 DUP3 PUSH1 0x5 PUSH2 0x245E SWAP1 SWAP2 SWAP1 PUSH4 0xFFFFFFFF AND JUMP JUMPDEST PUSH2 0x1087 JUMPI PUSH1 0x40 MLOAD PUSH32 0x8C379A000000000000000000000000000000000000000000000000000000000 DUP2 MSTORE PUSH1 0x4 ADD PUSH2 0x107E SWAP1 PUSH2 0x4DA8 JUMP JUMPDEST PUSH1 0x40 MLOAD DUP1 SWAP2 SUB SWAP1 REVERT JUMPDEST PUSH2 0x10D6 DUP12 DUP4 DUP13 DUP13 DUP13 DUP1 DUP1 PUSH1 0x1F ADD PUSH1 0x20 DUP1 SWAP2 DIV MUL PUSH1 0x20 ADD PUSH1 0x40 MLOAD SWAP1 DUP2 ADD PUSH1 0x40 MSTORE DUP1 SWAP4 SWAP3 SWAP2 SWAP1 DUP2 DUP2 MSTORE PUSH1 0x20 ADD DUP4 DUP4 DUP1 DUP3 DUP5 CALLDATACOPY PUSH0 DUP2 DUP5 ADD MSTORE PUSH1 0x1F NOT PUSH1 0x1F DUP3 ADD AND SWAP1 POP DUP1 DUP4 ADD SWAP3 POP POP POP POP POP POP POP PUSH2 0x23B2 JUMP JUMPDEST DUP7 DUP7 PUSH1 0x7 PUSH0 DUP6 DUP2 MSTORE PUSH1 0x20 ADD SWAP1 DUP2 MSTORE PUSH1 0x20 ADD PUSH0 KECCAK256 SWAP2 DUP3 PUSH2 0x10F6 SWAP3 SWAP2 SWAP1 PUSH2 0x4F64 JUMP JUMPDEST POP POP POP JUMPDEST POP POP POP POP POP POP POP POP POP JUMP JUMPDEST DUP2 MLOAD DUP4 MLOAD EQ PUSH2 0x1149 JUMPI PUSH1 0x40 MLOAD PUSH32 0x8C379A000000000000000000000000000000000000000000000000000000000 DUP2 MSTORE PUSH1 0x4 ADD PUSH2 0x1140 SWAP1 PUSH2 0x50A1 JUMP JUMPDEST PUSH1 0x40 MLOAD DUP1 SWAP2 SUB SWAP1 REVERT JUMPDEST PUSH0 PUSH20 0xFFFFFFFFFFFFFFFFFFFFFFFFFFFFFFFFFFFFFFFF AND DUP5 PUSH20 0xFFFFFFFFFFFFFFFFFFFFFFFFFFFFFFFFFFFFFFFF AND SUB PUSH2 0x11B7 JUMPI PUSH1 0x40 MLOAD PUSH32 0x8C379A000000000000000000000000000000000000000000000000000000000 DUP2 MSTORE PUSH1 0x4 ADD PUSH2 0x11AE SWAP1 PUSH2 0x512F JUMP JUMPDEST PUSH1 0x40 MLOAD DUP1 SWAP2 SUB SWAP1 REVERT JUMPDEST PUSH0 JUMPDEST DUP4 MLOAD DUP2 LT ISZERO PUSH2 0x1239 JUMPI PUSH2 0x11E7 DUP5 DUP3 DUP2 MLOAD DUP2 LT PUSH2 0x11D8 JUMPI PUSH2 0x11D7 PUSH2 0x4835 JUMP JUMPDEST JUMPDEST PUSH1 0x20 MUL PUSH1 0x20 ADD ADD MLOAD DUP8 DUP8 PUSH2 0x2475 JUMP JUMPDEST PUSH2 0x1228 DUP7 DUP7 DUP7 DUP5 DUP2 MLOAD DUP2 LT PUSH2 0x11FF JUMPI PUSH2 0x11FE PUSH2 0x4835 JUMP JUMPDEST JUMPDEST PUSH1 0x20 MUL PUSH1 0x20 ADD ADD MLOAD DUP7 DUP6 DUP2 MLOAD DUP2 LT PUSH2 0x121A JUMPI PUSH2 0x1219 PUSH2 0x4835 JUMP JUMPDEST JUMPDEST PUSH1 0x20 MUL PUSH1 0x20 ADD ADD MLOAD DUP7 PUSH2 0x21E8 JUMP JUMPDEST DUP1 PUSH2 0x1232 SWAP1 PUSH2 0x48EC JUMP JUMPDEST SWAP1 POP PUSH2 0x11B9 JUMP JUMPDEST POP POP POP POP POP POP JUMP JUMPDEST PUSH1 0x8 PUSH1 0x20 MSTORE DUP2 PUSH0 MSTORE PUSH1 0x40 PUSH0 KECCAK256 PUSH1 0x20 MSTORE DUP1 PUSH0 MSTORE PUSH1 0x40 PUSH0 KECCAK256 PUSH0 SWAP2 POP SWAP2 POP POP DUP1 SLOAD PUSH2 0x1268 SWAP1 PUSH2 0x488F JUMP JUMPDEST DUP1 PUSH1 0x1F ADD PUSH1 0x20 DUP1 SWAP2 DIV MUL PUSH1 0x20 ADD PUSH1 0x40 MLOAD SWAP1 DUP2 ADD PUSH1 0x40 MSTORE DUP1 SWAP3 SWAP2 SWAP1 DUP2 DUP2 MSTORE PUSH1 0x20 ADD DUP3 DUP1 SLOAD PUSH2 0x1294 SWAP1 PUSH2 0x488F JUMP JUMPDEST DUP1 ISZERO PUSH2 0x12DF JUMPI DUP1 PUSH1 0x1F LT PUSH2 0x12B6 JUMPI PUSH2 0x100 DUP1 DUP4 SLOAD DIV MUL DUP4 MSTORE SWAP2 PUSH1 0x20 ADD SWAP2 PUSH2 0x12DF JUMP JUMPDEST DUP3 ADD SWAP2 SWAP1 PUSH0 MSTORE PUSH1 0x20 PUSH0 KECCAK256 SWAP1 JUMPDEST DUP2 SLOAD DUP2 MSTORE SWAP1 PUSH1 0x1 ADD SWAP1 PUSH1 0x20 ADD DUP1 DUP4 GT PUSH2 0x12C2 JUMPI DUP3 SWAP1 SUB PUSH1 0x1F AND DUP3 ADD SWAP2 JUMPDEST POP POP POP POP POP DUP2 JUMP JUMPDEST PUSH1 0x60 PUSH2 0x12F1 PUSH2 0x230C JUMP JUMPDEST PUSH1 0x4 DUP1 SLOAD DUP1 PUSH1 0x20 MUL PUSH1 0x20 ADD PUSH1 0x40 MLOAD SWAP1 DUP2 ADD PUSH1 0x40 MSTORE DUP1 SWAP3 SWAP2 SWAP1 DUP2 DUP2 MSTORE PUSH1 0x20 ADD DUP3 DUP1 SLOAD DUP1 ISZERO PUSH2 0x1370 JUMPI PUSH1 0x20 MUL DUP3 ADD SWAP2 SWAP1 PUSH0 MSTORE PUSH1 0x20 PUSH0 KECCAK256 SWAP1 JUMPDEST DUP2 PUSH0 SWAP1 SLOAD SWAP1 PUSH2 0x100 EXP SWAP1 DIV PUSH20 0xFFFFFFFFFFFFFFFFFFFFFFFFFFFFFFFFFFFFFFFF AND PUSH20 0xFFFFFFFFFFFFFFFFFFFFFFFFFFFFFFFFFFFFFFFF AND DUP2 MSTORE PUSH1 0x20 ADD SWAP1 PUSH1 0x1 ADD SWAP1 DUP1 DUP4 GT PUSH2 0x1327 JUMPI JUMPDEST POP POP POP POP POP SWAP1 POP SWAP1 JUMP JUMPDEST PUSH1 0x60 DUP2 MLOAD DUP4 MLOAD EQ PUSH2 0x13C6 JUMPI DUP2 MLOAD DUP4 MLOAD PUSH1 0x40 MLOAD PUSH32 0x5B05999100000000000000000000000000000000000000000000000000000000 DUP2 MSTORE PUSH1 0x4 ADD PUSH2 0x13BD SWAP3 SWAP2 SWAP1 PUSH2 0x514D JUMP JUMPDEST PUSH1 0x40 MLOAD DUP1 SWAP2 SUB SWAP1 REVERT JUMPDEST PUSH0 DUP4 MLOAD PUSH8 0xFFFFFFFFFFFFFFFF DUP2 GT ISZERO PUSH2 0x13E2 JUMPI PUSH2 0x13E1 PUSH2 0x3E2C JUMP JUMPDEST JUMPDEST PUSH1 0x40 MLOAD SWAP1 DUP1 DUP3 MSTORE DUP1 PUSH1 0x20 MUL PUSH1 0x20 ADD DUP3 ADD PUSH1 0x40 MSTORE DUP1 ISZERO PUSH2 0x1410 JUMPI DUP2 PUSH1 0x20 ADD PUSH1 0x20 DUP3 MUL DUP1 CALLDATASIZE DUP4 CALLDATACOPY DUP1 DUP3 ADD SWAP2 POP POP SWAP1 POP JUMPDEST POP SWAP1 POP PUSH0 JUMPDEST DUP5 MLOAD DUP2 LT ISZERO PUSH2 0x147C JUMPI PUSH2 0x144C PUSH2 0x1434 DUP3 DUP8 PUSH2 0x28D2 SWAP1 SWAP2 SWAP1 PUSH4 0xFFFFFFFF AND JUMP JUMPDEST PUSH2 0x1447 DUP4 DUP8 PUSH2 0x28E5 SWAP1 SWAP2 SWAP1 PUSH4 0xFFFFFFFF AND JUMP JUMPDEST PUSH2 0x59A JUMP JUMPDEST DUP3 DUP3 DUP2 MLOAD DUP2 LT PUSH2 0x145F JUMPI PUSH2 0x145E PUSH2 0x4835 JUMP JUMPDEST JUMPDEST PUSH1 0x20 MUL PUSH1 0x20 ADD ADD DUP2 DUP2 MSTORE POP POP DUP1 PUSH2 0x1475 SWAP1 PUSH2 0x48EC JUMP JUMPDEST SWAP1 POP PUSH2 0x1415 JUMP JUMPDEST POP DUP1 SWAP2 POP POP SWAP3 SWAP2 POP POP JUMP JUMPDEST PUSH2 0x1490 CALLER PUSH2 0x28F8 JUMP JUMPDEST PUSH2 0x14CF JUMPI PUSH1 0x40 MLOAD PUSH32 0x8C379A000000000000000000000000000000000000000000000000000000000 DUP2 MSTORE PUSH1 0x4 ADD PUSH2 0x14C6 SWAP1 PUSH2 0x51BE JUMP JUMPDEST PUSH1 0x40 MLOAD DUP1 SWAP2 SUB SWAP1 REVERT JUMPDEST PUSH2 0x14E3 DUP3 PUSH1 0x5 PUSH2 0x2447 SWAP1 SWAP2 SWAP1 PUSH4 0xFFFFFFFF AND JUMP JUMPDEST PUSH2 0x1522 JUMPI PUSH1 0x40 MLOAD PUSH32 0x8C379A000000000000000000000000000000000000000000000000000000000 DUP2 MSTORE PUSH1 0x4 ADD PUSH2 0x1519 SWAP1 PUSH2 0x5226 JUMP JUMPDEST PUSH1 0x40 MLOAD DUP1 SWAP2 SUB SWAP1 REVERT JUMPDEST PUSH0 PUSH1 0x8 PUSH0 DUP5 DUP2 MSTORE PUSH1 0x20 ADD SWAP1 DUP2 MSTORE PUSH1 0x20 ADD PUSH0 KECCAK256 PUSH0 DUP4 PUSH8 0xFFFFFFFFFFFFFFFF AND PUSH8 0xFFFFFFFFFFFFFFFF AND DUP2 MSTORE PUSH1 0x20 ADD SWAP1 DUP2 MSTORE PUSH1 0x20 ADD PUSH0 KECCAK256 DUP1 SLOAD PUSH2 0x1562 SWAP1 PUSH2 0x488F JUMP JUMPDEST SWAP1 POP SUB PUSH2 0x15A4 JUMPI PUSH1 0x40 MLOAD PUSH32 0x8C379A000000000000000000000000000000000000000000000000000000000 DUP2 MSTORE PUSH1 0x4 ADD PUSH2 0x159B SWAP1 PUSH2 0x528E JUMP JUMPDEST PUSH1 0x40 MLOAD DUP1 SWAP2 SUB SWAP1 REVERT JUMPDEST PUSH1 0x8 PUSH0 DUP4 DUP2 MSTORE PUSH1 0x20 ADD SWAP1 DUP2 MSTORE PUSH1 0x20 ADD PUSH0 KECCAK256 PUSH0 DUP3 PUSH8 0xFFFFFFFFFFFFFFFF AND PUSH8 0xFFFFFFFFFFFFFFFF AND DUP2 MSTORE PUSH1 0x20 ADD SWAP1 DUP2 MSTORE PUSH1 0x20 ADD PUSH0 KECCAK256 PUSH0 PUSH2 0x15E3 SWAP2 SWAP1 PUSH2 0x36F3 JUMP JUMPDEST PUSH1 0x9 PUSH0 DUP4 DUP2 MSTORE PUSH1 0x20 ADD SWAP1 DUP2 MSTORE PUSH1 0x20 ADD PUSH0 KECCAK256 PUSH0 DUP3 PUSH8 0xFFFFFFFFFFFFFFFF AND PUSH8 0xFFFFFFFFFFFFFFFF AND DUP2 MSTORE PUSH1 0x20 ADD SWAP1 DUP2 MSTORE PUSH1 0x20 ADD PUSH0 KECCAK256 PUSH0 DUP1 DUP3 ADD PUSH0 PUSH2 0x1626 SWAP2 SWAP1 PUSH2 0x36F3 JUMP JUMPDEST PUSH1 0x1 DUP3 ADD PUSH0 PUSH2 0x1635 SWAP2 SWAP1 PUSH2 0x36F3 JUMP JUMPDEST PUSH1 0x2 DUP3 ADD PUSH0 PUSH2 0x1644 SWAP2 SWAP1 PUSH2 0x36F3 JUMP JUMPDEST POP POP PUSH0 JUMPDEST PUSH1 0xA DUP1 SLOAD SWAP1 POP DUP2 LT ISZERO PUSH2 0x17A1 JUMPI DUP2 PUSH8 0xFFFFFFFFFFFFFFFF AND PUSH1 0xA DUP3 DUP2 SLOAD DUP2 LT PUSH2 0x1674 JUMPI PUSH2 0x1673 PUSH2 0x4835 JUMP JUMPDEST JUMPDEST SWAP1 PUSH0 MSTORE PUSH1 0x20 PUSH0 KECCAK256 SWAP1 PUSH1 0x4 SWAP2 DUP3 DUP3 DIV ADD SWAP2 SWAP1 MOD PUSH1 0x8 MUL SWAP1 SLOAD SWAP1 PUSH2 0x100 EXP SWAP1 DIV PUSH8 0xFFFFFFFFFFFFFFFF AND PUSH8 0xFFFFFFFFFFFFFFFF AND SUB PUSH2 0x178E JUMPI PUSH1 0xA PUSH1 0x1 PUSH1 0xA DUP1 SLOAD SWAP1 POP PUSH2 0x16BF SWAP2 SWAP1 PUSH2 0x4933 JUMP JUMPDEST DUP2 SLOAD DUP2 LT PUSH2 0x16D0 JUMPI PUSH2 0x16CF PUSH2 0x4835 JUMP JUMPDEST JUMPDEST SWAP1 PUSH0 MSTORE PUSH1 0x20 PUSH0 KECCAK256 SWAP1 PUSH1 0x4 SWAP2 DUP3 DUP3 DIV ADD SWAP2 SWAP1 MOD PUSH1 0x8 MUL SWAP1 SLOAD SWAP1 PUSH2 0x100 EXP SWAP1 DIV PUSH8 0xFFFFFFFFFFFFFFFF AND PUSH1 0xA DUP3 DUP2 SLOAD DUP2 LT PUSH2 0x170C JUMPI PUSH2 0x170B PUSH2 0x4835 JUMP JUMPDEST JUMPDEST SWAP1 PUSH0 MSTORE PUSH1 0x20 PUSH0 KECCAK256 SWAP1 PUSH1 0x4 SWAP2 DUP3 DUP3 DIV ADD SWAP2 SWAP1 MOD PUSH1 0x8 MUL PUSH2 0x100 EXP DUP2 SLOAD DUP2 PUSH8 0xFFFFFFFFFFFFFFFF MUL NOT AND SWAP1 DUP4 PUSH8 0xFFFFFFFFFFFFFFFF AND MUL OR SWAP1 SSTORE POP PUSH1 0xA DUP1 SLOAD DUP1 PUSH2 0x1757 JUMPI PUSH2 0x1756 PUSH2 0x4966 JUMP JUMPDEST JUMPDEST PUSH1 0x1 SWAP1 SUB DUP2 DUP2 SWAP1 PUSH0 MSTORE PUSH1 0x20 PUSH0 KECCAK256 SWAP1 PUSH1 0x4 SWAP2 DUP3 DUP3 DIV ADD SWAP2 SWAP1 MOD PUSH1 0x8 MUL PUSH2 0x100 EXP DUP2 SLOAD SWAP1 PUSH8 0xFFFFFFFFFFFFFFFF MUL NOT AND SWAP1 SSTORE SWAP1 SSTORE PUSH2 0x17A1 JUMP JUMPDEST DUP1 DUP1 PUSH2 0x1799 SWAP1 PUSH2 0x48EC JUMP JUMPDEST SWAP2 POP POP PUSH2 0x1648 JUMP JUMPDEST POP POP POP JUMP JUMPDEST PUSH2 0x17AE PUSH2 0x230C JUMP JUMPDEST PUSH0 PUSH20 0xFFFFFFFFFFFFFFFFFFFFFFFFFFFFFFFFFFFFFFFF AND DUP2 PUSH20 0xFFFFFFFFFFFFFFFFFFFFFFFFFFFFFFFFFFFFFFFF AND SUB PUSH2 0x181C JUMPI PUSH1 0x40 MLOAD PUSH32 0x8C379A000000000000000000000000000000000000000000000000000000000 DUP2 MSTORE PUSH1 0x4 ADD PUSH2 0x1813 SWAP1 PUSH2 0x52F6 JUMP JUMPDEST PUSH1 0x40 MLOAD DUP1 SWAP2 SUB SWAP1 REVERT JUMPDEST PUSH2 0x1825 DUP2 PUSH2 0x28F8 JUMP JUMPDEST ISZERO PUSH2 0x1865 JUMPI PUSH1 0x40 MLOAD PUSH32 0x8C379A000000000000000000000000000000000000000000000000000000000 DUP2 MSTORE PUSH1 0x4 ADD PUSH2 0x185C SWAP1 PUSH2 0x535E JUMP JUMPDEST PUSH1 0x40 MLOAD DUP1 SWAP2 SUB SWAP1 REVERT JUMPDEST PUSH1 0x4 DUP2 SWAP1 DUP1 PUSH1 0x1 DUP2 SLOAD ADD DUP1 DUP3 SSTORE DUP1 SWAP2 POP POP PUSH1 0x1 SWAP1 SUB SWAP1 PUSH0 MSTORE PUSH1 0x20 PUSH0 KECCAK256 ADD PUSH0 SWAP1 SWAP2 SWAP1 SWAP2 SWAP1 SWAP2 PUSH2 0x100 EXP DUP2 SLOAD DUP2 PUSH20 0xFFFFFFFFFFFFFFFFFFFFFFFFFFFFFFFFFFFFFFFF MUL NOT AND SWAP1 DUP4 PUSH20 0xFFFFFFFFFFFFFFFFFFFFFFFFFFFFFFFFFFFFFFFF AND MUL OR SWAP1 SSTORE POP POP JUMP JUMPDEST PUSH2 0x18D0 PUSH2 0x230C JUMP JUMPDEST PUSH2 0x18D9 PUSH0 PUSH2 0x29A0 JUMP JUMPDEST JUMP JUMPDEST PUSH0 PUSH1 0x40 MLOAD DUP1 PUSH1 0x60 ADD PUSH1 0x40 MSTORE DUP1 DUP12 DUP12 DUP1 DUP1 PUSH1 0x1F ADD PUSH1 0x20 DUP1 SWAP2 DIV MUL PUSH1 0x20 ADD PUSH1 0x40 MLOAD SWAP1 DUP2 ADD PUSH1 0x40 MSTORE DUP1 SWAP4 SWAP3 SWAP2 SWAP1 DUP2 DUP2 MSTORE PUSH1 0x20 ADD DUP4 DUP4 DUP1 DUP3 DUP5 CALLDATACOPY PUSH0 DUP2 DUP5 ADD MSTORE PUSH1 0x1F NOT PUSH1 0x1F DUP3 ADD AND SWAP1 POP DUP1 DUP4 ADD SWAP3 POP POP POP POP POP POP POP DUP2 MSTORE PUSH1 0x20 ADD DUP10 PUSH20 0xFFFFFFFFFFFFFFFFFFFFFFFFFFFFFFFFFFFFFFFF AND DUP2 MSTORE PUSH1 0x20 ADD DUP9 DUP9 DUP1 DUP1 PUSH1 0x1F ADD PUSH1 0x20 DUP1 SWAP2 DIV MUL PUSH1 0x20 ADD PUSH1 0x40 MLOAD SWAP1 DUP2 ADD PUSH1 0x40 MSTORE DUP1 SWAP4 SWAP3 SWAP2 SWAP1 DUP2 DUP2 MSTORE PUSH1 0x20 ADD DUP4 DUP4 DUP1 DUP3 DUP5 CALLDATACOPY PUSH0 DUP2 DUP5 ADD MSTORE PUSH1 0x1F NOT PUSH1 0x1F DUP3 ADD AND SWAP1 POP DUP1 DUP4 ADD SWAP3 POP POP POP POP POP POP POP DUP2 MSTORE POP SWAP1 POP PUSH1 0xB PUSH0 SWAP1 SLOAD SWAP1 PUSH2 0x100 EXP SWAP1 DIV PUSH20 0xFFFFFFFFFFFFFFFFFFFFFFFFFFFFFFFFFFFFFFFF AND PUSH20 0xFFFFFFFFFFFFFFFFFFFFFFFFFFFFFFFFFFFFFFFF AND PUSH4 0x9F5223E0 DUP13 DUP4 PUSH1 0x40 MLOAD DUP4 PUSH4 0xFFFFFFFF AND PUSH1 0xE0 SHL DUP2 MSTORE PUSH1 0x4 ADD PUSH2 0x19F1 SWAP3 SWAP2 SWAP1 PUSH2 0x5442 JUMP JUMPDEST PUSH0 PUSH1 0x40 MLOAD DUP1 DUP4 SUB DUP2 PUSH0 DUP8 DUP1 EXTCODESIZE ISZERO DUP1 ISZERO PUSH2 0x1A08 JUMPI PUSH0 DUP1 REVERT JUMPDEST POP GAS CALL ISZERO DUP1 ISZERO PUSH2 0x1A1A JUMPI RETURNDATASIZE PUSH0 DUP1 RETURNDATACOPY RETURNDATASIZE PUSH0 REVERT JUMPDEST POP POP POP POP PUSH2 0x1A2A DUP6 DUP13 DUP7 DUP7 PUSH2 0x1DD2 JUMP JUMPDEST PUSH1 0x40 MLOAD DUP1 PUSH1 0x60 ADD PUSH1 0x40 MSTORE DUP1 DUP4 DUP1 PUSH0 ADD SWAP1 PUSH2 0x1A44 SWAP2 SWAP1 PUSH2 0x547C JUMP JUMPDEST DUP1 DUP1 PUSH1 0x1F ADD PUSH1 0x20 DUP1 SWAP2 DIV MUL PUSH1 0x20 ADD PUSH1 0x40 MLOAD SWAP1 DUP2 ADD PUSH1 0x40 MSTORE DUP1 SWAP4 SWAP3 SWAP2 SWAP1 DUP2 DUP2 MSTORE PUSH1 0x20 ADD DUP4 DUP4 DUP1 DUP3 DUP5 CALLDATACOPY PUSH0 DUP2 DUP5 ADD MSTORE PUSH1 0x1F NOT PUSH1 0x1F DUP3 ADD AND SWAP1 POP DUP1 DUP4 ADD SWAP3 POP POP POP POP POP POP POP DUP2 MSTORE PUSH1 0x20 ADD DUP4 DUP1 PUSH1 0x20 ADD SWAP1 PUSH2 0x1A9B SWAP2 SWAP1 PUSH2 0x547C JUMP JUMPDEST DUP1 DUP1 PUSH1 0x1F ADD PUSH1 0x20 DUP1 SWAP2 DIV MUL PUSH1 0x20 ADD PUSH1 0x40 MLOAD SWAP1 DUP2 ADD PUSH1 0x40 MSTORE DUP1 SWAP4 SWAP3 SWAP2 SWAP1 DUP2 DUP2 MSTORE PUSH1 0x20 ADD DUP4 DUP4 DUP1 DUP3 DUP5 CALLDATACOPY PUSH0 DUP2 DUP5 ADD MSTORE PUSH1 0x1F NOT PUSH1 0x1F DUP3 ADD AND SWAP1 POP DUP1 DUP4 ADD SWAP3 POP POP POP POP POP POP POP DUP2 MSTORE PUSH1 0x20 ADD DUP4 DUP1 PUSH1 0x40 ADD SWAP1 PUSH2 0x1AF2 SWAP2 SWAP1 PUSH2 0x547C JUMP JUMPDEST DUP1 DUP1 PUSH1 0x1F ADD PUSH1 0x20 DUP1 SWAP2 DIV MUL PUSH1 0x20 ADD PUSH1 0x40 MLOAD SWAP1 DUP2 ADD PUSH1 0x40 MSTORE DUP1 SWAP4 SWAP3 SWAP2 SWAP1 DUP2 DUP2 MSTORE PUSH1 0x20 ADD DUP4 DUP4 DUP1 DUP3 DUP5 CALLDATACOPY PUSH0 DUP2 DUP5 ADD MSTORE PUSH1 0x1F NOT PUSH1 0x1F DUP3 ADD AND SWAP1 POP DUP1 DUP4 ADD SWAP3 POP POP POP POP POP POP POP DUP2 MSTORE POP PUSH1 0x9 PUSH0 DUP8 DUP2 MSTORE PUSH1 0x20 ADD SWAP1 DUP2 MSTORE PUSH1 0x20 ADD PUSH0 KECCAK256 PUSH0 DUP14 PUSH8 0xFFFFFFFFFFFFFFFF AND PUSH8 0xFFFFFFFFFFFFFFFF AND DUP2 MSTORE PUSH1 0x20 ADD SWAP1 DUP2 MSTORE PUSH1 0x20 ADD PUSH0 KECCAK256 PUSH0 DUP3 ADD MLOAD DUP2 PUSH0 ADD SWAP1 DUP2 PUSH2 0x1B7E SWAP2 SWAP1 PUSH2 0x54DE JUMP JUMPDEST POP PUSH1 0x20 DUP3 ADD MLOAD DUP2 PUSH1 0x1 ADD SWAP1 DUP2 PUSH2 0x1B94 SWAP2 SWAP1 PUSH2 0x54DE JUMP JUMPDEST POP PUSH1 0x40 DUP3 ADD MLOAD DUP2 PUSH1 0x2 ADD SWAP1 DUP2 PUSH2 0x1BAA SWAP2 SWAP1 PUSH2 0x54DE JUMP JUMPDEST POP SWAP1 POP POP POP POP POP POP POP POP POP POP POP POP POP JUMP JUMPDEST PUSH1 0x60 PUSH2 0x1BC7 PUSH1 0x5 PUSH2 0x2393 JUMP JUMPDEST SWAP1 POP SWAP1 JUMP JUMPDEST PUSH1 0x1 DUP2 JUMP JUMPDEST PUSH0 PUSH1 0x3 PUSH0 SWAP1 SLOAD SWAP1 PUSH2 0x100 EXP SWAP1 DIV PUSH20 0xFFFFFFFFFFFFFFFFFFFFFFFFFFFFFFFFFFFFFFFF AND SWAP1 POP SWAP1 JUMP JUMPDEST PUSH1 0x9 PUSH1 0x20 MSTORE DUP2 PUSH0 MSTORE PUSH1 0x40 PUSH0 KECCAK256 PUSH1 0x20 MSTORE DUP1 PUSH0 MSTORE PUSH1 0x40 PUSH0 KECCAK256 PUSH0 SWAP2 POP SWAP2 POP POP DUP1 PUSH0 ADD DUP1 SLOAD PUSH2 0x1C23 SWAP1 PUSH2 0x488F JUMP JUMPDEST DUP1 PUSH1 0x1F ADD PUSH1 0x20 DUP1 SWAP2 DIV MUL PUSH1 0x20 ADD PUSH1 0x40 MLOAD SWAP1 DUP2 ADD PUSH1 0x40 MSTORE DUP1 SWAP3 SWAP2 SWAP1 DUP2 DUP2 MSTORE PUSH1 0x20 ADD DUP3 DUP1 SLOAD PUSH2 0x1C4F SWAP1 PUSH2 0x488F JUMP JUMPDEST DUP1 ISZERO PUSH2 0x1C9A JUMPI DUP1 PUSH1 0x1F LT PUSH2 0x1C71 JUMPI PUSH2 0x100 DUP1 DUP4 SLOAD DIV MUL DUP4 MSTORE SWAP2 PUSH1 0x20 ADD SWAP2 PUSH2 0x1C9A JUMP JUMPDEST DUP3 ADD SWAP2 SWAP1 PUSH0 MSTORE PUSH1 0x20 PUSH0 KECCAK256 SWAP1 JUMPDEST DUP2 SLOAD DUP2 MSTORE SWAP1 PUSH1 0x1 ADD SWAP1 PUSH1 0x20 ADD DUP1 DUP4 GT PUSH2 0x1C7D JUMPI DUP3 SWAP1 SUB PUSH1 0x1F AND DUP3 ADD SWAP2 JUMPDEST POP POP POP POP POP SWAP1 DUP1 PUSH1 0x1 ADD DUP1 SLOAD PUSH2 0x1CAF SWAP1 PUSH2 0x488F JUMP JUMPDEST DUP1 PUSH1 0x1F ADD PUSH1 0x20 DUP1 SWAP2 DIV MUL PUSH1 0x20 ADD PUSH1 0x40 MLOAD SWAP1 DUP2 ADD PUSH1 0x40 MSTORE DUP1 SWAP3 SWAP2 SWAP1 DUP2 DUP2 MSTORE PUSH1 0x20 ADD DUP3 DUP1 SLOAD PUSH2 0x1CDB SWAP1 PUSH2 0x488F JUMP JUMPDEST DUP1 ISZERO PUSH2 0x1D26 JUMPI DUP1 PUSH1 0x1F LT PUSH2 0x1CFD JUMPI PUSH2 0x100 DUP1 DUP4 SLOAD DIV MUL DUP4 MSTORE SWAP2 PUSH1 0x20 ADD SWAP2 PUSH2 0x1D26 JUMP JUMPDEST DUP3 ADD SWAP2 SWAP1 PUSH0 MSTORE PUSH1 0x20 PUSH0 KECCAK256 SWAP1 JUMPDEST DUP2 SLOAD DUP2 MSTORE SWAP1 PUSH1 0x1 ADD SWAP1 PUSH1 0x20 ADD DUP1 DUP4 GT PUSH2 0x1D09 JUMPI DUP3 SWAP1 SUB PUSH1 0x1F AND DUP3 ADD SWAP2 JUMPDEST POP POP POP POP POP SWAP1 DUP1 PUSH1 0x2 ADD DUP1 SLOAD PUSH2 0x1D3B SWAP1 PUSH2 0x488F JUMP JUMPDEST DUP1 PUSH1 0x1F ADD PUSH1 0x20 DUP1 SWAP2 DIV MUL PUSH1 0x20 ADD PUSH1 0x40 MLOAD SWAP1 DUP2 ADD PUSH1 0x40 MSTORE DUP1 SWAP3 SWAP2 SWAP1 DUP2 DUP2 MSTORE PUSH1 0x20 ADD DUP3 DUP1 SLOAD PUSH2 0x1D67 SWAP1 PUSH2 0x488F JUMP JUMPDEST DUP1 ISZERO PUSH2 0x1DB2 JUMPI DUP1 PUSH1 0x1F LT PUSH2 0x1D89 JUMPI PUSH2 0x100 DUP1 DUP4 SLOAD DIV MUL DUP4 MSTORE SWAP2 PUSH1 0x20 ADD SWAP2 PUSH2 0x1DB2 JUMP JUMPDEST DUP3 ADD SWAP2 SWAP1 PUSH0 MSTORE PUSH1 0x20 PUSH0 KECCAK256 SWAP1 JUMPDEST DUP2 SLOAD DUP2 MSTORE SWAP1 PUSH1 0x1 ADD SWAP1 PUSH1 0x20 ADD DUP1 DUP4 GT PUSH2 0x1D95 JUMPI DUP3 SWAP1 SUB PUSH1 0x1F AND DUP3 ADD SWAP2 JUMPDEST POP POP POP POP POP SWAP1 POP DUP4 JUMP JUMPDEST PUSH2 0x1DCE PUSH2 0x1DC7 PUSH2 0x2A63 JUMP JUMPDEST DUP4 DUP4 PUSH2 0x2A6A JUMP JUMPDEST POP POP JUMP JUMPDEST PUSH2 0x1DDB CALLER PUSH2 0x28F8 JUMP JUMPDEST PUSH2 0x1E1A JUMPI PUSH1 0x40 MLOAD PUSH32 0x8C379A000000000000000000000000000000000000000000000000000000000 DUP2 MSTORE PUSH1 0x4 ADD PUSH2 0x1E11 SWAP1 PUSH2 0x51BE JUMP JUMPDEST PUSH1 0x40 MLOAD DUP1 SWAP2 SUB SWAP1 REVERT JUMPDEST PUSH2 0x1E2E DUP5 PUSH1 0x5 PUSH2 0x2447 SWAP1 SWAP2 SWAP1 PUSH4 0xFFFFFFFF AND JUMP JUMPDEST PUSH2 0x1E6D JUMPI PUSH1 0x40 MLOAD PUSH32 0x8C379A000000000000000000000000000000000000000000000000000000000 DUP2 MSTORE PUSH1 0x4 ADD PUSH2 0x1E64 SWAP1 PUSH2 0x5226 JUMP JUMPDEST PUSH1 0x40 MLOAD DUP1 SWAP2 SUB SWAP1 REVERT JUMPDEST PUSH0 PUSH1 0x8 PUSH0 DUP7 DUP2 MSTORE PUSH1 0x20 ADD SWAP1 DUP2 MSTORE PUSH1 0x20 ADD PUSH0 KECCAK256 PUSH0 DUP6 PUSH8 0xFFFFFFFFFFFFFFFF AND PUSH8 0xFFFFFFFFFFFFFFFF AND DUP2 MSTORE PUSH1 0x20 ADD SWAP1 DUP2 MSTORE PUSH1 0x20 ADD PUSH0 KECCAK256 DUP1 SLOAD PUSH2 0x1EAD SWAP1 PUSH2 0x488F JUMP JUMPDEST SWAP1 POP EQ PUSH2 0x1EEF JUMPI PUSH1 0x40 MLOAD PUSH32 0x8C379A000000000000000000000000000000000000000000000000000000000 DUP2 MSTORE PUSH1 0x4 ADD PUSH2 0x1EE6 SWAP1 PUSH2 0x55F7 JUMP JUMPDEST PUSH1 0x40 MLOAD DUP1 SWAP2 SUB SWAP1 REVERT JUMPDEST PUSH1 0x40 MLOAD DUP1 PUSH1 0x40 ADD PUSH1 0x40 MSTORE DUP1 PUSH1 0x6 DUP2 MSTORE PUSH1 0x20 ADD PUSH32 0x73656E6465720000000000000000000000000000000000000000000000000000 DUP2 MSTORE POP DUP1 MLOAD SWAP1 PUSH1 0x20 ADD KECCAK256 DUP3 DUP3 PUSH1 0x40 MLOAD PUSH2 0x1F3C SWAP3 SWAP2 SWAP1 PUSH2 0x4A91 JUMP JUMPDEST PUSH1 0x40 MLOAD DUP1 SWAP2 SUB SWAP1 KECCAK256 EQ DUP1 PUSH2 0x1FA2 JUMPI POP PUSH1 0x40 MLOAD DUP1 PUSH1 0x40 ADD PUSH1 0x40 MSTORE DUP1 PUSH1 0x8 DUP2 MSTORE PUSH1 0x20 ADD PUSH32 0x7265636569766572000000000000000000000000000000000000000000000000 DUP2 MSTORE POP DUP1 MLOAD SWAP1 PUSH1 0x20 ADD KECCAK256 DUP3 DUP3 PUSH1 0x40 MLOAD PUSH2 0x1F98 SWAP3 SWAP2 SWAP1 PUSH2 0x4A91 JUMP JUMPDEST PUSH1 0x40 MLOAD DUP1 SWAP2 SUB SWAP1 KECCAK256 EQ JUMPDEST PUSH2 0x1FE1 JUMPI PUSH1 0x40 MLOAD PUSH32 0x8C379A000000000000000000000000000000000000000000000000000000000 DUP2 MSTORE PUSH1 0x4 ADD PUSH2 0x1FD8 SWAP1 PUSH2 0x5685 JUMP JUMPDEST PUSH1 0x40 MLOAD DUP1 SWAP2 SUB SWAP1 REVERT JUMPDEST DUP2 DUP2 PUSH1 0x8 PUSH0 DUP8 DUP2 MSTORE PUSH1 0x20 ADD SWAP1 DUP2 MSTORE PUSH1 0x20 ADD PUSH0 KECCAK256 PUSH0 DUP7 PUSH8 0xFFFFFFFFFFFFFFFF AND PUSH8 0xFFFFFFFFFFFFFFFF AND DUP2 MSTORE PUSH1 0x20 ADD SWAP1 DUP2 MSTORE PUSH1 0x20 ADD PUSH0 KECCAK256 SWAP2 DUP3 PUSH2 0x2024 SWAP3 SWAP2 SWAP1 PUSH2 0x4F64 JUMP JUMPDEST POP PUSH1 0xA DUP4 SWAP1 DUP1 PUSH1 0x1 DUP2 SLOAD ADD DUP1 DUP3 SSTORE DUP1 SWAP2 POP POP PUSH1 0x1 SWAP1 SUB SWAP1 PUSH0 MSTORE PUSH1 0x20 PUSH0 KECCAK256 SWAP1 PUSH1 0x4 SWAP2 DUP3 DUP3 DIV ADD SWAP2 SWAP1 MOD PUSH1 0x8 MUL SWAP1 SWAP2 SWAP1 SWAP2 SWAP1 SWAP2 PUSH2 0x100 EXP DUP2 SLOAD DUP2 PUSH8 0xFFFFFFFFFFFFFFFF MUL NOT AND SWAP1 DUP4 PUSH8 0xFFFFFFFFFFFFFFFF AND MUL OR SWAP1 SSTORE POP POP POP POP POP JUMP JUMPDEST PUSH1 0x2 DUP2 JUMP JUMPDEST PUSH1 0xA DUP2 DUP2 SLOAD DUP2 LT PUSH2 0x2093 JUMPI PUSH0 DUP1 REVERT JUMPDEST SWAP1 PUSH0 MSTORE PUSH1 0x20 PUSH0 KECCAK256 SWAP1 PUSH1 0x4 SWAP2 DUP3 DUP3 DIV ADD SWAP2 SWAP1 MOD PUSH1 0x8 MUL SWAP2 POP SLOAD SWAP1 PUSH2 0x100 EXP SWAP1 DIV PUSH8 0xFFFFFFFFFFFFFFFF AND DUP2 JUMP JUMPDEST PUSH1 0x7 PUSH1 0x20 MSTORE DUP1 PUSH0 MSTORE PUSH1 0x40 PUSH0 KECCAK256 PUSH0 SWAP2 POP SWAP1 POP DUP1 SLOAD PUSH2 0x20DB SWAP1 PUSH2 0x488F JUMP JUMPDEST DUP1 PUSH1 0x1F ADD PUSH1 0x20 DUP1 SWAP2 DIV MUL PUSH1 0x20 ADD PUSH1 0x40 MLOAD SWAP1 DUP2 ADD PUSH1 0x40 MSTORE DUP1 SWAP3 SWAP2 SWAP1 DUP2 DUP2 MSTORE PUSH1 0x20 ADD DUP3 DUP1 SLOAD PUSH2 0x2107 SWAP1 PUSH2 0x488F JUMP JUMPDEST DUP1 ISZERO PUSH2 0x2152 JUMPI DUP1 PUSH1 0x1F LT PUSH2 0x2129 JUMPI PUSH2 0x100 DUP1 DUP4 SLOAD DIV MUL DUP4 MSTORE SWAP2 PUSH1 0x20 ADD SWAP2 PUSH2 0x2152 JUMP JUMPDEST DUP3 ADD SWAP2 SWAP1 PUSH0 MSTORE PUSH1 0x20 PUSH0 KECCAK256 SWAP1 JUMPDEST DUP2 SLOAD DUP2 MSTORE SWAP1 PUSH1 0x1 ADD SWAP1 PUSH1 0x20 ADD DUP1 DUP4 GT PUSH2 0x2135 JUMPI DUP3 SWAP1 SUB PUSH1 0x1F AND DUP3 ADD SWAP2 JUMPDEST POP POP POP POP POP DUP2 JUMP JUMPDEST PUSH0 PUSH1 0x1 PUSH0 DUP5 PUSH20 0xFFFFFFFFFFFFFFFFFFFFFFFFFFFFFFFFFFFFFFFF AND PUSH20 0xFFFFFFFFFFFFFFFFFFFFFFFFFFFFFFFFFFFFFFFF AND DUP2 MSTORE PUSH1 0x20 ADD SWAP1 DUP2 MSTORE PUSH1 0x20 ADD PUSH0 KECCAK256 PUSH0 DUP4 PUSH20 0xFFFFFFFFFFFFFFFFFFFFFFFFFFFFFFFFFFFFFFFF AND PUSH20 0xFFFFFFFFFFFFFFFFFFFFFFFFFFFFFFFFFFFFFFFF AND DUP2 MSTORE PUSH1 0x20 ADD SWAP1 DUP2 MSTORE PUSH1 0x20 ADD PUSH0 KECCAK256 PUSH0 SWAP1 SLOAD SWAP1 PUSH2 0x100 EXP SWAP1 DIV PUSH1 0xFF AND SWAP1 POP SWAP3 SWAP2 POP POP JUMP JUMPDEST PUSH2 0x21F3 DUP4 DUP7 DUP7 PUSH2 0x2475 JUMP JUMPDEST PUSH2 0x2200 DUP6 DUP6 DUP6 DUP6 DUP6 PUSH2 0x2BD3 JUMP JUMPDEST POP POP POP POP POP JUMP JUMPDEST PUSH2 0x220F PUSH2 0x230C JUMP JUMPDEST PUSH0 PUSH20 0xFFFFFFFFFFFFFFFFFFFFFFFFFFFFFFFFFFFFFFFF AND DUP2 PUSH20 0xFFFFFFFFFFFFFFFFFFFFFFFFFFFFFFFFFFFFFFFF AND SUB PUSH2 0x227F JUMPI PUSH0 PUSH1 0x40 MLOAD PUSH32 0x1E4FBDF700000000000000000000000000000000000000000000000000000000 DUP2 MSTORE PUSH1 0x4 ADD PUSH2 0x2276 SWAP2 SWAP1 PUSH2 0x45B0 JUMP JUMPDEST PUSH1 0x40 MLOAD DUP1 SWAP2 SUB SWAP1 REVERT JUMPDEST PUSH2 0x2288 DUP2 PUSH2 0x29A0 JUMP JUMPDEST POP JUMP JUMPDEST PUSH2 0x2293 PUSH2 0x230C JUMP JUMPDEST PUSH2 0x229E DUP4 DUP4 DUP4 PUSH2 0x2C7A JUMP JUMPDEST POP POP POP JUMP JUMPDEST PUSH0 PUSH32 0x1FFC9A700000000000000000000000000000000000000000000000000000000 PUSH28 0xFFFFFFFFFFFFFFFFFFFFFFFFFFFFFFFFFFFFFFFFFFFFFFFFFFFFFFFF NOT AND DUP3 PUSH28 0xFFFFFFFFFFFFFFFFFFFFFFFFFFFFFFFFFFFFFFFFFFFFFFFFFFFFFFFF NOT AND EQ SWAP1 POP SWAP2 SWAP1 POP JUMP JUMPDEST PUSH2 0x2314 PUSH2 0x2A63 JUMP JUMPDEST PUSH20 0xFFFFFFFFFFFFFFFFFFFFFFFFFFFFFFFFFFFFFFFF AND PUSH2 0x2332 PUSH2 0x1BD1 JUMP JUMPDEST PUSH20 0xFFFFFFFFFFFFFFFFFFFFFFFFFFFFFFFFFFFFFFFF AND EQ PUSH2 0x2391 JUMPI PUSH2 0x2355 PUSH2 0x2A63 JUMP JUMPDEST PUSH1 0x40 MLOAD PUSH32 0x118CDAA700000000000000000000000000000000000000000000000000000000 DUP2 MSTORE PUSH1 0x4 ADD PUSH2 0x2388 SWAP2 SWAP1 PUSH2 0x45B0 JUMP JUMPDEST PUSH1 0x40 MLOAD DUP1 SWAP2 SUB SWAP1 REVERT JUMPDEST JUMP JUMPDEST PUSH1 0x60 PUSH0 PUSH2 0x23A1 DUP4 PUSH0 ADD PUSH2 0x2D1C JUMP JUMPDEST SWAP1 POP PUSH1 0x60 DUP2 SWAP1 POP DUP1 SWAP3 POP POP POP SWAP2 SWAP1 POP JUMP JUMPDEST PUSH0 PUSH20 0xFFFFFFFFFFFFFFFFFFFFFFFFFFFFFFFFFFFFFFFF AND DUP5 PUSH20 0xFFFFFFFFFFFFFFFFFFFFFFFFFFFFFFFFFFFFFFFF AND SUB PUSH2 0x2422 JUMPI PUSH0 PUSH1 0x40 MLOAD PUSH32 0x57F447CE00000000000000000000000000000000000000000000000000000000 DUP2 MSTORE PUSH1 0x4 ADD PUSH2 0x2419 SWAP2 SWAP1 PUSH2 0x45B0 JUMP JUMPDEST PUSH1 0x40 MLOAD DUP1 SWAP2 SUB SWAP1 REVERT JUMPDEST PUSH0 DUP1 PUSH2 0x242E DUP6 DUP6 PUSH2 0x2D75 JUMP JUMPDEST SWAP2 POP SWAP2 POP PUSH2 0x243F PUSH0 DUP8 DUP5 DUP5 DUP8 PUSH2 0x2DA5 JUMP JUMPDEST POP POP POP POP POP POP JUMP JUMPDEST PUSH0 PUSH2 0x2456 DUP4 PUSH0 ADD DUP4 PUSH0 SHL PUSH2 0x2E51 JUMP JUMPDEST SWAP1 POP SWAP3 SWAP2 POP POP JUMP JUMPDEST PUSH0 PUSH2 0x246D DUP4 PUSH0 ADD DUP4 PUSH0 SHL PUSH2 0x2E71 JUMP JUMPDEST SWAP1 POP SWAP3 SWAP2 POP POP JUMP JUMPDEST PUSH0 PUSH1 0xA DUP1 SLOAD DUP1 PUSH1 0x20 MUL PUSH1 0x20 ADD PUSH1 0x40 MLOAD SWAP1 DUP2 ADD PUSH1 0x40 MSTORE DUP1 SWAP3 SWAP2 SWAP1 DUP2 DUP2 MSTORE PUSH1 0x20 ADD DUP3 DUP1 SLOAD DUP1 ISZERO PUSH2 0x24F3 JUMPI PUSH1 0x20 MUL DUP3 ADD SWAP2 SWAP1 PUSH0 MSTORE PUSH1 0x20 PUSH0 KECCAK256 SWAP1 PUSH0 SWAP1 JUMPDEST DUP3 DUP3 SWAP1 SLOAD SWAP1 PUSH2 0x100 EXP SWAP1 DIV PUSH8 0xFFFFFFFFFFFFFFFF AND PUSH8 0xFFFFFFFFFFFFFFFF AND DUP2 MSTORE PUSH1 0x20 ADD SWAP1 PUSH1 0x8 ADD SWAP1 PUSH1 0x20 DUP3 PUSH1 0x7 ADD DIV SWAP3 DUP4 ADD SWAP3 PUSH1 0x1 SUB DUP3 MUL SWAP2 POP DUP1 DUP5 GT PUSH2 0x24AE JUMPI SWAP1 POP JUMPDEST POP POP POP POP POP SWAP1 POP PUSH0 JUMPDEST DUP2 MLOAD DUP2 LT ISZERO PUSH2 0x28CB JUMPI PUSH0 PUSH1 0x8 PUSH0 DUP8 DUP2 MSTORE PUSH1 0x20 ADD SWAP1 DUP2 MSTORE PUSH1 0x20 ADD PUSH0 KECCAK256 PUSH0 DUP5 DUP5 DUP2 MLOAD DUP2 LT PUSH2 0x252B JUMPI PUSH2 0x252A PUSH2 0x4835 JUMP JUMPDEST JUMPDEST PUSH1 0x20 MUL PUSH1 0x20 ADD ADD MLOAD PUSH8 0xFFFFFFFFFFFFFFFF AND PUSH8 0xFFFFFFFFFFFFFFFF AND DUP2 MSTORE PUSH1 0x20 ADD SWAP1 DUP2 MSTORE PUSH1 0x20 ADD PUSH0 KECCAK256 DUP1 SLOAD PUSH2 0x255F SWAP1 PUSH2 0x488F JUMP JUMPDEST DUP1 PUSH1 0x1F ADD PUSH1 0x20 DUP1 SWAP2 DIV MUL PUSH1 0x20 ADD PUSH1 0x40 MLOAD SWAP1 DUP2 ADD PUSH1 0x40 MSTORE DUP1 SWAP3 SWAP2 SWAP1 DUP2 DUP2 MSTORE PUSH1 0x20 ADD DUP3 DUP1 SLOAD PUSH2 0x258B SWAP1 PUSH2 0x488F JUMP JUMPDEST DUP1 ISZERO PUSH2 0x25D6 JUMPI DUP1 PUSH1 0x1F LT PUSH2 0x25AD JUMPI PUSH2 0x100 DUP1 DUP4 SLOAD DIV MUL DUP4 MSTORE SWAP2 PUSH1 0x20 ADD SWAP2 PUSH2 0x25D6 JUMP JUMPDEST DUP3 ADD SWAP2 SWAP1 PUSH0 MSTORE PUSH1 0x20 PUSH0 KECCAK256 SWAP1 JUMPDEST DUP2 SLOAD DUP2 MSTORE SWAP1 PUSH1 0x1 ADD SWAP1 PUSH1 0x20 ADD DUP1 DUP4 GT PUSH2 0x25B9 JUMPI DUP3 SWAP1 SUB PUSH1 0x1F AND DUP3 ADD SWAP2 JUMPDEST POP POP POP POP POP SWAP1 POP PUSH0 DUP2 MLOAD SUB PUSH2 0x25EB JUMPI POP PUSH2 0x28B8 JUMP JUMPDEST PUSH1 0x40 MLOAD DUP1 PUSH1 0x40 ADD PUSH1 0x40 MSTORE DUP1 PUSH1 0x6 DUP2 MSTORE PUSH1 0x20 ADD PUSH32 0x73656E6465720000000000000000000000000000000000000000000000000000 DUP2 MSTORE POP DUP1 MLOAD SWAP1 PUSH1 0x20 ADD KECCAK256 DUP2 DUP1 MLOAD SWAP1 PUSH1 0x20 ADD KECCAK256 SUB PUSH2 0x2752 JUMPI PUSH1 0xB PUSH0 SWAP1 SLOAD SWAP1 PUSH2 0x100 EXP SWAP1 DIV PUSH20 0xFFFFFFFFFFFFFFFFFFFFFFFFFFFFFFFFFFFFFFFF AND PUSH20 0xFFFFFFFFFFFFFFFFFFFFFFFFFFFFFFFFFFFFFFFF AND PUSH4 0x8C1DA2C9 DUP7 DUP6 DUP6 DUP2 MLOAD DUP2 LT PUSH2 0x2686 JUMPI PUSH2 0x2685 PUSH2 0x4835 JUMP JUMPDEST JUMPDEST PUSH1 0x20 MUL PUSH1 0x20 ADD ADD MLOAD PUSH1 0x40 MLOAD DUP4 PUSH4 0xFFFFFFFF AND PUSH1 0xE0 SHL DUP2 MSTORE PUSH1 0x4 ADD PUSH2 0x26AB SWAP3 SWAP2 SWAP1 PUSH2 0x56A3 JUMP JUMPDEST PUSH0 PUSH1 0x40 MLOAD DUP1 DUP4 SUB DUP2 DUP7 GAS STATICCALL ISZERO DUP1 ISZERO PUSH2 0x26C5 JUMPI RETURNDATASIZE PUSH0 DUP1 RETURNDATACOPY RETURNDATASIZE PUSH0 REVERT JUMPDEST POP POP POP POP PUSH1 0x40 MLOAD RETURNDATASIZE PUSH0 DUP3 RETURNDATACOPY RETURNDATASIZE PUSH1 0x1F NOT PUSH1 0x1F DUP3 ADD AND DUP3 ADD DUP1 PUSH1 0x40 MSTORE POP DUP2 ADD SWAP1 PUSH2 0x26ED SWAP2 SWAP1 PUSH2 0x5829 JUMP JUMPDEST PUSH0 ADD MLOAD PUSH2 0x274D JUMPI DUP3 DUP3 DUP2 MLOAD DUP2 LT PUSH2 0x2707 JUMPI PUSH2 0x2706 PUSH2 0x4835 JUMP JUMPDEST JUMPDEST PUSH1 0x20 MUL PUSH1 0x20 ADD ADD MLOAD DUP6 PUSH1 0x40 MLOAD PUSH32 0xA5A4608E00000000000000000000000000000000000000000000000000000000 DUP2 MSTORE PUSH1 0x4 ADD PUSH2 0x2744 SWAP3 SWAP2 SWAP1 PUSH2 0x5870 JUMP JUMPDEST PUSH1 0x40 MLOAD DUP1 SWAP2 SUB SWAP1 REVERT JUMPDEST PUSH2 0x28B6 JUMP JUMPDEST PUSH1 0x40 MLOAD DUP1 PUSH1 0x40 ADD PUSH1 0x40 MSTORE DUP1 PUSH1 0x8 DUP2 MSTORE PUSH1 0x20 ADD PUSH32 0x7265636569766572000000000000000000000000000000000000000000000000 DUP2 MSTORE POP DUP1 MLOAD SWAP1 PUSH1 0x20 ADD KECCAK256 DUP2 DUP1 MLOAD SWAP1 PUSH1 0x20 ADD KECCAK256 SUB PUSH2 0x28B5 JUMPI PUSH1 0xB PUSH0 SWAP1 SLOAD SWAP1 PUSH2 0x100 EXP SWAP1 DIV PUSH20 0xFFFFFFFFFFFFFFFFFFFFFFFFFFFFFFFFFFFFFFFF AND PUSH20 0xFFFFFFFFFFFFFFFFFFFFFFFFFFFFFFFFFFFFFFFF AND PUSH4 0x8C1DA2C9 DUP6 DUP6 DUP6 DUP2 MLOAD DUP2 LT PUSH2 0x27ED JUMPI PUSH2 0x27EC PUSH2 0x4835 JUMP JUMPDEST JUMPDEST PUSH1 0x20 MUL PUSH1 0x20 ADD ADD MLOAD PUSH1 0x40 MLOAD DUP4 PUSH4 0xFFFFFFFF AND PUSH1 0xE0 SHL DUP2 MSTORE PUSH1 0x4 ADD PUSH2 0x2812 SWAP3 SWAP2 SWAP1 PUSH2 0x56A3 JUMP JUMPDEST PUSH0 PUSH1 0x40 MLOAD DUP1 DUP4 SUB DUP2 DUP7 GAS STATICCALL ISZERO DUP1 ISZERO PUSH2 0x282C JUMPI RETURNDATASIZE PUSH0 DUP1 RETURNDATACOPY RETURNDATASIZE PUSH0 REVERT JUMPDEST POP POP POP POP PUSH1 0x40 MLOAD RETURNDATASIZE PUSH0 DUP3 RETURNDATACOPY RETURNDATASIZE PUSH1 0x1F NOT PUSH1 0x1F DUP3 ADD AND DUP3 ADD DUP1 PUSH1 0x40 MSTORE POP DUP2 ADD SWAP1 PUSH2 0x2854 SWAP2 SWAP1 PUSH2 0x5829 JUMP JUMPDEST PUSH0 ADD MLOAD PUSH2 0x28B4 JUMPI DUP3 DUP3 DUP2 MLOAD DUP2 LT PUSH2 0x286E JUMPI PUSH2 0x286D PUSH2 0x4835 JUMP JUMPDEST JUMPDEST PUSH1 0x20 MUL PUSH1 0x20 ADD ADD MLOAD DUP5 PUSH1 0x40 MLOAD PUSH32 0xA5A4608E00000000000000000000000000000000000000000000000000000000 DUP2 MSTORE PUSH1 0x4 ADD PUSH2 0x28AB SWAP3 SWAP2 SWAP1 PUSH2 0x5870 JUMP JUMPDEST PUSH1 0x40 MLOAD DUP1 SWAP2 SUB SWAP1 REVERT JUMPDEST JUMPDEST JUMPDEST POP JUMPDEST DUP1 DUP1 PUSH2 0x28C3 SWAP1 PUSH2 0x48EC JUMP JUMPDEST SWAP2 POP POP PUSH2 0x24FC JUMP JUMPDEST POP POP POP POP POP JUMP JUMPDEST PUSH0 PUSH1 0x20 DUP3 MUL PUSH1 0x20 DUP5 ADD ADD MLOAD SWAP1 POP SWAP3 SWAP2 POP POP JUMP JUMPDEST PUSH0 PUSH1 0x20 DUP3 MUL PUSH1 0x20 DUP5 ADD ADD MLOAD SWAP1 POP SWAP3 SWAP2 POP POP JUMP JUMPDEST PUSH0 DUP1 PUSH0 SWAP1 POP JUMPDEST PUSH1 0x4 DUP1 SLOAD SWAP1 POP DUP2 LT ISZERO PUSH2 0x2996 JUMPI DUP3 PUSH20 0xFFFFFFFFFFFFFFFFFFFFFFFFFFFFFFFFFFFFFFFF AND PUSH1 0x4 DUP3 DUP2 SLOAD DUP2 LT PUSH2 0x2936 JUMPI PUSH2 0x2935 PUSH2 0x4835 JUMP JUMPDEST JUMPDEST SWAP1 PUSH0 MSTORE PUSH1 0x20 PUSH0 KECCAK256 ADD PUSH0 SWAP1 SLOAD SWAP1 PUSH2 0x100 EXP SWAP1 DIV PUSH20 0xFFFFFFFFFFFFFFFFFFFFFFFFFFFFFFFFFFFFFFFF AND PUSH20 0xFFFFFFFFFFFFFFFFFFFFFFFFFFFFFFFFFFFFFFFF AND SUB PUSH2 0x2983 JUMPI PUSH1 0x1 SWAP2 POP POP PUSH2 0x299B JUMP JUMPDEST DUP1 DUP1 PUSH2 0x298E SWAP1 PUSH2 0x48EC JUMP JUMPDEST SWAP2 POP POP PUSH2 0x28FE JUMP JUMPDEST POP PUSH0 SWAP1 POP JUMPDEST SWAP2 SWAP1 POP JUMP JUMPDEST PUSH0 PUSH1 0x3 PUSH0 SWAP1 SLOAD SWAP1 PUSH2 0x100 EXP SWAP1 DIV PUSH20 0xFFFFFFFFFFFFFFFFFFFFFFFFFFFFFFFFFFFFFFFF AND SWAP1 POP DUP2 PUSH1 0x3 PUSH0 PUSH2 0x100 EXP DUP2 SLOAD DUP2 PUSH20 0xFFFFFFFFFFFFFFFFFFFFFFFFFFFFFFFFFFFFFFFF MUL NOT AND SWAP1 DUP4 PUSH20 0xFFFFFFFFFFFFFFFFFFFFFFFFFFFFFFFFFFFFFFFF AND MUL OR SWAP1 SSTORE POP DUP2 PUSH20 0xFFFFFFFFFFFFFFFFFFFFFFFFFFFFFFFFFFFFFFFF AND DUP2 PUSH20 0xFFFFFFFFFFFFFFFFFFFFFFFFFFFFFFFFFFFFFFFF AND PUSH32 0x8BE0079C531659141344CD1FD0A4F28419497F9722A3DAAFE3B4186F6B6457E0 PUSH1 0x40 MLOAD PUSH1 0x40 MLOAD DUP1 SWAP2 SUB SWAP1 LOG3 POP POP JUMP JUMPDEST PUSH0 CALLER SWAP1 POP SWAP1 JUMP JUMPDEST PUSH0 PUSH20 0xFFFFFFFFFFFFFFFFFFFFFFFFFFFFFFFFFFFFFFFF AND DUP3 PUSH20 0xFFFFFFFFFFFFFFFFFFFFFFFFFFFFFFFFFFFFFFFF AND SUB PUSH2 0x2ADA JUMPI PUSH0 PUSH1 0x40 MLOAD PUSH32 0xCED3E10000000000000000000000000000000000000000000000000000000000 DUP2 MSTORE PUSH1 0x4 ADD PUSH2 0x2AD1 SWAP2 SWAP1 PUSH2 0x45B0 JUMP JUMPDEST PUSH1 0x40 MLOAD DUP1 SWAP2 SUB SWAP1 REVERT JUMPDEST DUP1 PUSH1 0x1 PUSH0 DUP6 PUSH20 0xFFFFFFFFFFFFFFFFFFFFFFFFFFFFFFFFFFFFFFFF AND PUSH20 0xFFFFFFFFFFFFFFFFFFFFFFFFFFFFFFFFFFFFFFFF AND DUP2 MSTORE PUSH1 0x20 ADD SWAP1 DUP2 MSTORE PUSH1 0x20 ADD PUSH0 KECCAK256 PUSH0 DUP5 PUSH20 0xFFFFFFFFFFFFFFFFFFFFFFFFFFFFFFFFFFFFFFFF AND PUSH20 0xFFFFFFFFFFFFFFFFFFFFFFFFFFFFFFFFFFFFFFFF AND DUP2 MSTORE PUSH1 0x20 ADD SWAP1 DUP2 MSTORE PUSH1 0x20 ADD PUSH0 KECCAK256 PUSH0 PUSH2 0x100 EXP DUP2 SLOAD DUP2 PUSH1 0xFF MUL NOT AND SWAP1 DUP4 ISZERO ISZERO MUL OR SWAP1 SSTORE POP DUP2 PUSH20 0xFFFFFFFFFFFFFFFFFFFFFFFFFFFFFFFFFFFFFFFF AND DUP4 PUSH20 0xFFFFFFFFFFFFFFFFFFFFFFFFFFFFFFFFFFFFFFFF AND PUSH32 0x17307EAB39AB6107E8899845AD3D59BD9653F200F220920489CA2B5937696C31 DUP4 PUSH1 0x40 MLOAD PUSH2 0x2BC6 SWAP2 SWAP1 PUSH2 0x3BB3 JUMP JUMPDEST PUSH1 0x40 MLOAD DUP1 SWAP2 SUB SWAP1 LOG3 POP POP POP JUMP JUMPDEST PUSH0 PUSH2 0x2BDC PUSH2 0x2A63 JUMP JUMPDEST SWAP1 POP DUP1 PUSH20 0xFFFFFFFFFFFFFFFFFFFFFFFFFFFFFFFFFFFFFFFF AND DUP7 PUSH20 0xFFFFFFFFFFFFFFFFFFFFFFFFFFFFFFFFFFFFFFFF AND EQ ISZERO DUP1 ISZERO PUSH2 0x2C21 JUMPI POP PUSH2 0x2C1F DUP7 DUP3 PUSH2 0x215A JUMP JUMPDEST ISZERO JUMPDEST ISZERO PUSH2 0x2C65 JUMPI DUP1 DUP7 PUSH1 0x40 MLOAD PUSH32 0xE237D92200000000000000000000000000000000000000000000000000000000 DUP2 MSTORE PUSH1 0x4 ADD PUSH2 0x2C5C SWAP3 SWAP2 SWAP1 PUSH2 0x5897 JUMP JUMPDEST PUSH1 0x40 MLOAD DUP1 SWAP2 SUB SWAP1 REVERT JUMPDEST PUSH2 0x2C72 DUP7 DUP7 DUP7 DUP7 DUP7 PUSH2 0x2ED8 JUMP JUMPDEST POP POP POP POP POP POP JUMP JUMPDEST PUSH0 PUSH20 0xFFFFFFFFFFFFFFFFFFFFFFFFFFFFFFFFFFFFFFFF AND DUP4 PUSH20 0xFFFFFFFFFFFFFFFFFFFFFFFFFFFFFFFFFFFFFFFF AND SUB PUSH2 0x2CEA JUMPI PUSH0 PUSH1 0x40 MLOAD PUSH32 0x1A8351400000000000000000000000000000000000000000000000000000000 DUP2 MSTORE PUSH1 0x4 ADD PUSH2 0x2CE1 SWAP2 SWAP1 PUSH2 0x45B0 JUMP JUMPDEST PUSH1 0x40 MLOAD DUP1 SWAP2 SUB SWAP1 REVERT JUMPDEST PUSH0 DUP1 PUSH2 0x2CF6 DUP5 DUP5 PUSH2 0x2D75 JUMP JUMPDEST SWAP2 POP SWAP2 POP PUSH2 0x2D15 DUP6 PUSH0 DUP5 DUP5 PUSH1 0x40 MLOAD DUP1 PUSH1 0x20 ADD PUSH1 0x40 MSTORE DUP1 PUSH0 DUP2 MSTORE POP PUSH2 0x2DA5 JUMP JUMPDEST POP POP POP POP POP JUMP JUMPDEST PUSH1 0x60 DUP2 PUSH0 ADD DUP1 SLOAD DUP1 PUSH1 0x20 MUL PUSH1 0x20 ADD PUSH1 0x40 MLOAD SWAP1 DUP2 ADD PUSH1 0x40 MSTORE DUP1 SWAP3 SWAP2 SWAP1 DUP2 DUP2 MSTORE PUSH1 0x20 ADD DUP3 DUP1 SLOAD DUP1 ISZERO PUSH2 0x2D69 JUMPI PUSH1 0x20 MUL DUP3 ADD SWAP2 SWAP1 PUSH0 MSTORE PUSH1 0x20 PUSH0 KECCAK256 SWAP1 JUMPDEST DUP2 SLOAD DUP2 MSTORE PUSH1 0x20 ADD SWAP1 PUSH1 0x1 ADD SWAP1 DUP1 DUP4 GT PUSH2 0x2D55 JUMPI JUMPDEST POP POP POP POP POP SWAP1 POP SWAP2 SWAP1 POP JUMP JUMPDEST PUSH1 0x60 DUP1 PUSH1 0x40 MLOAD SWAP2 POP PUSH1 0x1 DUP3 MSTORE DUP4 PUSH1 0x20 DUP4 ADD MSTORE PUSH1 0x40 DUP3 ADD SWAP1 POP PUSH1 0x1 DUP2 MSTORE DUP3 PUSH1 0x20 DUP3 ADD MSTORE PUSH1 0x40 DUP2 ADD PUSH1 0x40 MSTORE SWAP3 POP SWAP3 SWAP1 POP JUMP JUMPDEST PUSH2 0x2DB1 DUP6 DUP6 DUP6 DUP6 PUSH2 0x2FDE JUMP JUMPDEST PUSH0 PUSH20 0xFFFFFFFFFFFFFFFFFFFFFFFFFFFFFFFFFFFFFFFF AND DUP5 PUSH20 0xFFFFFFFFFFFFFFFFFFFFFFFFFFFFFFFFFFFFFFFF AND EQ PUSH2 0x2E4A JUMPI PUSH0 PUSH2 0x2DED PUSH2 0x2A63 JUMP JUMPDEST SWAP1 POP PUSH1 0x1 DUP5 MLOAD SUB PUSH2 0x2E39 JUMPI PUSH0 PUSH2 0x2E0C PUSH0 DUP7 PUSH2 0x28E5 SWAP1 SWAP2 SWAP1 PUSH4 0xFFFFFFFF AND JUMP JUMPDEST SWAP1 POP PUSH0 PUSH2 0x2E22 PUSH0 DUP7 PUSH2 0x28E5 SWAP1 SWAP2 SWAP1 PUSH4 0xFFFFFFFF AND JUMP JUMPDEST SWAP1 POP PUSH2 0x2E32 DUP4 DUP10 DUP10 DUP6 DUP6 DUP10 PUSH2 0x3374 JUMP JUMPDEST POP POP PUSH2 0x2E48 JUMP JUMPDEST PUSH2 0x2E47 DUP2 DUP8 DUP8 DUP8 DUP8 DUP8 PUSH2 0x3523 JUMP JUMPDEST JUMPDEST POP JUMPDEST POP POP POP POP POP JUMP JUMPDEST PUSH0 DUP1 DUP4 PUSH1 0x1 ADD PUSH0 DUP5 DUP2 MSTORE PUSH1 0x20 ADD SWAP1 DUP2 MSTORE PUSH1 0x20 ADD PUSH0 KECCAK256 SLOAD EQ ISZERO SWAP1 POP SWAP3 SWAP2 POP POP JUMP JUMPDEST PUSH0 PUSH2 0x2E7C DUP4 DUP4 PUSH2 0x2E51 JUMP JUMPDEST PUSH2 0x2ECE JUMPI DUP3 PUSH0 ADD DUP3 SWAP1 DUP1 PUSH1 0x1 DUP2 SLOAD ADD DUP1 DUP3 SSTORE DUP1 SWAP2 POP POP PUSH1 0x1 SWAP1 SUB SWAP1 PUSH0 MSTORE PUSH1 0x20 PUSH0 KECCAK256 ADD PUSH0 SWAP1 SWAP2 SWAP1 SWAP2 SWAP1 SWAP2 POP SSTORE DUP3 PUSH0 ADD DUP1 SLOAD SWAP1 POP DUP4 PUSH1 0x1 ADD PUSH0 DUP5 DUP2 MSTORE PUSH1 0x20 ADD SWAP1 DUP2 MSTORE PUSH1 0x20 ADD PUSH0 KECCAK256 DUP2 SWAP1 SSTORE POP PUSH1 0x1 SWAP1 POP PUSH2 0x2ED2 JUMP JUMPDEST PUSH0 SWAP1 POP JUMPDEST SWAP3 SWAP2 POP POP JUMP JUMPDEST PUSH0 PUSH20 0xFFFFFFFFFFFFFFFFFFFFFFFFFFFFFFFFFFFFFFFF AND DUP5 PUSH20 0xFFFFFFFFFFFFFFFFFFFFFFFFFFFFFFFFFFFFFFFF AND SUB PUSH2 0x2F48 JUMPI PUSH0 PUSH1 0x40 MLOAD PUSH32 0x57F447CE00000000000000000000000000000000000000000000000000000000 DUP2 MSTORE PUSH1 0x4 ADD PUSH2 0x2F3F SWAP2 SWAP1 PUSH2 0x45B0 JUMP JUMPDEST PUSH1 0x40 MLOAD DUP1 SWAP2 SUB SWAP1 REVERT JUMPDEST PUSH0 PUSH20 0xFFFFFFFFFFFFFFFFFFFFFFFFFFFFFFFFFFFFFFFF AND DUP6 PUSH20 0xFFFFFFFFFFFFFFFFFFFFFFFFFFFFFFFFFFFFFFFF AND SUB PUSH2 0x2FB8 JUMPI PUSH0 PUSH1 0x40 MLOAD PUSH32 0x1A8351400000000000000000000000000000000000000000000000000000000 DUP2 MSTORE PUSH1 0x4 ADD PUSH2 0x2FAF SWAP2 SWAP1 PUSH2 0x45B0 JUMP JUMPDEST PUSH1 0x40 MLOAD DUP1 SWAP2 SUB SWAP1 REVERT JUMPDEST PUSH0 DUP1 PUSH2 0x2FC4 DUP6 DUP6 PUSH2 0x2D75 JUMP JUMPDEST SWAP2 POP SWAP2 POP PUSH2 0x2FD5 DUP8 DUP8 DUP5 DUP5 DUP8 PUSH2 0x2DA5 JUMP JUMPDEST POP POP POP POP POP POP POP JUMP JUMPDEST DUP1 MLOAD DUP3 MLOAD EQ PUSH2 0x3028 JUMPI DUP2 MLOAD DUP2 MLOAD PUSH1 0x40 MLOAD PUSH32 0x5B05999100000000000000000000000000000000000000000000000000000000 DUP2 MSTORE PUSH1 0x4 ADD PUSH2 0x301F SWAP3 SWAP2 SWAP1 PUSH2 0x514D JUMP JUMPDEST PUSH1 0x40 MLOAD DUP1 SWAP2 SUB SWAP1 REVERT JUMPDEST PUSH0 PUSH2 0x3031 PUSH2 0x2A63 JUMP JUMPDEST SWAP1 POP PUSH0 JUMPDEST DUP4 MLOAD DUP2 LT ISZERO PUSH2 0x3233 JUMPI PUSH0 PUSH2 0x3052 DUP3 DUP7 PUSH2 0x28E5 SWAP1 SWAP2 SWAP1 PUSH4 0xFFFFFFFF AND JUMP JUMPDEST SWAP1 POP PUSH0 PUSH2 0x3068 DUP4 DUP7 PUSH2 0x28E5 SWAP1 SWAP2 SWAP1 PUSH4 0xFFFFFFFF AND JUMP JUMPDEST SWAP1 POP PUSH0 PUSH20 0xFFFFFFFFFFFFFFFFFFFFFFFFFFFFFFFFFFFFFFFF AND DUP9 PUSH20 0xFFFFFFFFFFFFFFFFFFFFFFFFFFFFFFFFFFFFFFFF AND EQ PUSH2 0x318B JUMPI PUSH0 DUP1 PUSH0 DUP5 DUP2 MSTORE PUSH1 0x20 ADD SWAP1 DUP2 MSTORE PUSH1 0x20 ADD PUSH0 KECCAK256 PUSH0 DUP11 PUSH20 0xFFFFFFFFFFFFFFFFFFFFFFFFFFFFFFFFFFFFFFFF AND PUSH20 0xFFFFFFFFFFFFFFFFFFFFFFFFFFFFFFFFFFFFFFFF AND DUP2 MSTORE PUSH1 0x20 ADD SWAP1 DUP2 MSTORE PUSH1 0x20 ADD PUSH0 KECCAK256 SLOAD SWAP1 POP DUP2 DUP2 LT ISZERO PUSH2 0x3137 JUMPI DUP9 DUP2 DUP4 DUP6 PUSH1 0x40 MLOAD PUSH32 0x3DEE4C500000000000000000000000000000000000000000000000000000000 DUP2 MSTORE PUSH1 0x4 ADD PUSH2 0x312E SWAP5 SWAP4 SWAP3 SWAP2 SWAP1 PUSH2 0x58BE JUMP JUMPDEST PUSH1 0x40 MLOAD DUP1 SWAP2 SUB SWAP1 REVERT JUMPDEST DUP2 DUP2 SUB PUSH0 DUP1 DUP6 DUP2 MSTORE PUSH1 0x20 ADD SWAP1 DUP2 MSTORE PUSH1 0x20 ADD PUSH0 KECCAK256 PUSH0 DUP12 PUSH20 0xFFFFFFFFFFFFFFFFFFFFFFFFFFFFFFFFFFFFFFFF AND PUSH20 0xFFFFFFFFFFFFFFFFFFFFFFFFFFFFFFFFFFFFFFFF AND DUP2 MSTORE PUSH1 0x20 ADD SWAP1 DUP2 MSTORE PUSH1 0x20 ADD PUSH0 KECCAK256 DUP2 SWAP1 SSTORE POP POP JUMPDEST PUSH0 PUSH20 0xFFFFFFFFFFFFFFFFFFFFFFFFFFFFFFFFFFFFFFFF AND DUP8 PUSH20 0xFFFFFFFFFFFFFFFFFFFFFFFFFFFFFFFFFFFFFFFF AND EQ PUSH2 0x3220 JUMPI DUP1 PUSH0 DUP1 DUP5 DUP2 MSTORE PUSH1 0x20 ADD SWAP1 DUP2 MSTORE PUSH1 0x20 ADD PUSH0 KECCAK256 PUSH0 DUP10 PUSH20 0xFFFFFFFFFFFFFFFFFFFFFFFFFFFFFFFFFFFFFFFF AND PUSH20 0xFFFFFFFFFFFFFFFFFFFFFFFFFFFFFFFFFFFFFFFF AND DUP2 MSTORE PUSH1 0x20 ADD SWAP1 DUP2 MSTORE PUSH1 0x20 ADD PUSH0 KECCAK256 PUSH0 DUP3 DUP3 SLOAD PUSH2 0x3218 SWAP2 SWAP1 PUSH2 0x4C9D JUMP JUMPDEST SWAP3 POP POP DUP2 SWAP1 SSTORE POP JUMPDEST POP POP DUP1 PUSH2 0x322C SWAP1 PUSH2 0x48EC JUMP JUMPDEST SWAP1 POP PUSH2 0x3035 JUMP JUMPDEST POP PUSH1 0x1 DUP4 MLOAD SUB PUSH2 0x32EE JUMPI PUSH0 PUSH2 0x3251 PUSH0 DUP6 PUSH2 0x28E5 SWAP1 SWAP2 SWAP1 PUSH4 0xFFFFFFFF AND JUMP JUMPDEST SWAP1 POP PUSH0 PUSH2 0x3267 PUSH0 DUP6 PUSH2 0x28E5 SWAP1 SWAP2 SWAP1 PUSH4 0xFFFFFFFF AND JUMP JUMPDEST SWAP1 POP DUP6 PUSH20 0xFFFFFFFFFFFFFFFFFFFFFFFFFFFFFFFFFFFFFFFF AND DUP8 PUSH20 0xFFFFFFFFFFFFFFFFFFFFFFFFFFFFFFFFFFFFFFFF AND DUP5 PUSH20 0xFFFFFFFFFFFFFFFFFFFFFFFFFFFFFFFFFFFFFFFF AND PUSH32 0xC3D58168C5AE7397731D063D5BBF3D657854427343F4C083240F7AACAA2D0F62 DUP6 DUP6 PUSH1 0x40 MLOAD PUSH2 0x32DF SWAP3 SWAP2 SWAP1 PUSH2 0x514D JUMP JUMPDEST PUSH1 0x40 MLOAD DUP1 SWAP2 SUB SWAP1 LOG4 POP POP PUSH2 0x336D JUMP JUMPDEST DUP4 PUSH20 0xFFFFFFFFFFFFFFFFFFFFFFFFFFFFFFFFFFFFFFFF AND DUP6 PUSH20 0xFFFFFFFFFFFFFFFFFFFFFFFFFFFFFFFFFFFFFFFF AND DUP3 PUSH20 0xFFFFFFFFFFFFFFFFFFFFFFFFFFFFFFFFFFFFFFFF AND PUSH32 0x4A39DC06D4C0DBC64B70AF90FD698A233A518AA5D07E595D983B8C0526C8F7FB DUP7 DUP7 PUSH1 0x40 MLOAD PUSH2 0x3364 SWAP3 SWAP2 SWAP1 PUSH2 0x5901 JUMP JUMPDEST PUSH1 0x40 MLOAD DUP1 SWAP2 SUB SWAP1 LOG4 JUMPDEST POP POP POP POP POP JUMP JUMPDEST PUSH0 DUP5 PUSH20 0xFFFFFFFFFFFFFFFFFFFFFFFFFFFFFFFFFFFFFFFF AND EXTCODESIZE GT ISZERO PUSH2 0x351B JUMPI DUP4 PUSH20 0xFFFFFFFFFFFFFFFFFFFFFFFFFFFFFFFFFFFFFFFF AND PUSH4 0xF23A6E61 DUP8 DUP8 DUP7 DUP7 DUP7 PUSH1 0x40 MLOAD DUP7 PUSH4 0xFFFFFFFF AND PUSH1 0xE0 SHL DUP2 MSTORE PUSH1 0x4 ADD PUSH2 0x33D4 SWAP6 SWAP5 SWAP4 SWAP3 SWAP2 SWAP1 PUSH2 0x597E JUMP JUMPDEST PUSH1 0x20 PUSH1 0x40 MLOAD DUP1 DUP4 SUB DUP2 PUSH0 DUP8 GAS CALL SWAP3 POP POP POP DUP1 ISZERO PUSH2 0x340F JUMPI POP PUSH1 0x40 MLOAD RETURNDATASIZE PUSH1 0x1F NOT PUSH1 0x1F DUP3 ADD AND DUP3 ADD DUP1 PUSH1 0x40 MSTORE POP DUP2 ADD SWAP1 PUSH2 0x340C SWAP2 SWAP1 PUSH2 0x59EA JUMP JUMPDEST PUSH1 0x1 JUMPDEST PUSH2 0x3490 JUMPI RETURNDATASIZE DUP1 PUSH0 DUP2 EQ PUSH2 0x343D JUMPI PUSH1 0x40 MLOAD SWAP2 POP PUSH1 0x1F NOT PUSH1 0x3F RETURNDATASIZE ADD AND DUP3 ADD PUSH1 0x40 MSTORE RETURNDATASIZE DUP3 MSTORE RETURNDATASIZE PUSH0 PUSH1 0x20 DUP5 ADD RETURNDATACOPY PUSH2 0x3442 JUMP JUMPDEST PUSH1 0x60 SWAP2 POP JUMPDEST POP PUSH0 DUP2 MLOAD SUB PUSH2 0x3488 JUMPI DUP5 PUSH1 0x40 MLOAD PUSH32 0x57F447CE00000000000000000000000000000000000000000000000000000000 DUP2 MSTORE PUSH1 0x4 ADD PUSH2 0x347F SWAP2 SWAP1 PUSH2 0x45B0 JUMP JUMPDEST PUSH1 0x40 MLOAD DUP1 SWAP2 SUB SWAP1 REVERT JUMPDEST DUP1 MLOAD DUP2 PUSH1 0x20 ADD REVERT JUMPDEST PUSH4 0xF23A6E61 PUSH1 0xE0 SHL PUSH28 0xFFFFFFFFFFFFFFFFFFFFFFFFFFFFFFFFFFFFFFFFFFFFFFFFFFFFFFFF NOT AND DUP2 PUSH28 0xFFFFFFFFFFFFFFFFFFFFFFFFFFFFFFFFFFFFFFFFFFFFFFFFFFFFFFFF NOT AND EQ PUSH2 0x3519 JUMPI DUP5 PUSH1 0x40 MLOAD PUSH32 0x57F447CE00000000000000000000000000000000000000000000000000000000 DUP2 MSTORE PUSH1 0x4 ADD PUSH2 0x3510 SWAP2 SWAP1 PUSH2 0x45B0 JUMP JUMPDEST PUSH1 0x40 MLOAD DUP1 SWAP2 SUB SWAP1 REVERT JUMPDEST POP JUMPDEST POP POP POP POP POP POP JUMP JUMPDEST PUSH0 DUP5 PUSH20 0xFFFFFFFFFFFFFFFFFFFFFFFFFFFFFFFFFFFFFFFF AND EXTCODESIZE GT ISZERO PUSH2 0x36CA JUMPI DUP4 PUSH20 0xFFFFFFFFFFFFFFFFFFFFFFFFFFFFFFFFFFFFFFFF AND PUSH4 0xBC197C81 DUP8 DUP8 DUP7 DUP7 DUP7 PUSH1 0x40 MLOAD DUP7 PUSH4 0xFFFFFFFF AND PUSH1 0xE0 SHL DUP2 MSTORE PUSH1 0x4 ADD PUSH2 0x3583 SWAP6 SWAP5 SWAP4 SWAP3 SWAP2 SWAP1 PUSH2 0x5A15 JUMP JUMPDEST PUSH1 0x20 PUSH1 0x40 MLOAD DUP1 DUP4 SUB DUP2 PUSH0 DUP8 GAS CALL SWAP3 POP POP POP DUP1 ISZERO PUSH2 0x35BE JUMPI POP PUSH1 0x40 MLOAD RETURNDATASIZE PUSH1 0x1F NOT PUSH1 0x1F DUP3 ADD AND DUP3 ADD DUP1 PUSH1 0x40 MSTORE POP DUP2 ADD SWAP1 PUSH2 0x35BB SWAP2 SWAP1 PUSH2 0x59EA JUMP JUMPDEST PUSH1 0x1 JUMPDEST PUSH2 0x363F JUMPI RETURNDATASIZE DUP1 PUSH0 DUP2 EQ PUSH2 0x35EC JUMPI PUSH1 0x40 MLOAD SWAP2 POP PUSH1 0x1F NOT PUSH1 0x3F RETURNDATASIZE ADD AND DUP3 ADD PUSH1 0x40 MSTORE RETURNDATASIZE DUP3 MSTORE RETURNDATASIZE PUSH0 PUSH1 0x20 DUP5 ADD RETURNDATACOPY PUSH2 0x35F1 JUMP JUMPDEST PUSH1 0x60 SWAP2 POP JUMPDEST POP PUSH0 DUP2 MLOAD SUB PUSH2 0x3637 JUMPI DUP5 PUSH1 0x40 MLOAD PUSH32 0x57F447CE00000000000000000000000000000000000000000000000000000000 DUP2 MSTORE PUSH1 0x4 ADD PUSH2 0x362E SWAP2 SWAP1 PUSH2 0x45B0 JUMP JUMPDEST PUSH1 0x40 MLOAD DUP1 SWAP2 SUB SWAP1 REVERT JUMPDEST DUP1 MLOAD DUP2 PUSH1 0x20 ADD REVERT JUMPDEST PUSH4 0xBC197C81 PUSH1 0xE0 SHL PUSH28 0xFFFFFFFFFFFFFFFFFFFFFFFFFFFFFFFFFFFFFFFFFFFFFFFFFFFFFFFF NOT AND DUP2 PUSH28 0xFFFFFFFFFFFFFFFFFFFFFFFFFFFFFFFFFFFFFFFFFFFFFFFFFFFFFFFF NOT AND EQ PUSH2 0x36C8 JUMPI DUP5 PUSH1 0x40 MLOAD PUSH32 0x57F447CE00000000000000000000000000000000000000000000000000000000 DUP2 MSTORE PUSH1 0x4 ADD PUSH2 0x36BF SWAP2 SWAP1 PUSH2 0x45B0 JUMP JUMPDEST PUSH1 0x40 MLOAD DUP1 SWAP2 SUB SWAP1 REVERT JUMPDEST POP JUMPDEST POP POP POP POP POP POP JUMP JUMPDEST PUSH1 0x40 MLOAD DUP1 PUSH1 0x60 ADD PUSH1 0x40 MSTORE DUP1 PUSH1 0x60 DUP2 MSTORE PUSH1 0x20 ADD PUSH1 0x60 DUP2 MSTORE PUSH1 0x20 ADD PUSH1 0x60 DUP2 MSTORE POP SWAP1 JUMP JUMPDEST POP DUP1 SLOAD PUSH2 0x36FF SWAP1 PUSH2 0x488F JUMP JUMPDEST PUSH0 DUP3 SSTORE DUP1 PUSH1 0x1F LT PUSH2 0x3710 JUMPI POP PUSH2 0x372D JUMP JUMPDEST PUSH1 0x1F ADD PUSH1 0x20 SWAP1 DIV SWAP1 PUSH0 MSTORE PUSH1 0x20 PUSH0 KECCAK256 SWAP1 DUP2 ADD SWAP1 PUSH2 0x372C SWAP2 SWAP1 PUSH2 0x3730 JUMP JUMPDEST JUMPDEST POP JUMP JUMPDEST JUMPDEST DUP1 DUP3 GT ISZERO PUSH2 0x3747 JUMPI PUSH0 DUP2 PUSH0 SWAP1 SSTORE POP PUSH1 0x1 ADD PUSH2 0x3731 JUMP JUMPDEST POP SWAP1 JUMP JUMPDEST PUSH0 PUSH1 0x40 MLOAD SWAP1 POP SWAP1 JUMP JUMPDEST PUSH0 DUP1 REVERT JUMPDEST PUSH0 DUP1 REVERT JUMPDEST PUSH0 PUSH20 0xFFFFFFFFFFFFFFFFFFFFFFFFFFFFFFFFFFFFFFFF DUP3 AND SWAP1 POP SWAP2 SWAP1 POP JUMP JUMPDEST PUSH0 PUSH2 0x3785 DUP3 PUSH2 0x375C JUMP JUMPDEST SWAP1 POP SWAP2 SWAP1 POP JUMP JUMPDEST PUSH2 0x3795 DUP2 PUSH2 0x377B JUMP JUMPDEST DUP2 EQ PUSH2 0x379F JUMPI PUSH0 DUP1 REVERT JUMPDEST POP JUMP JUMPDEST PUSH0 DUP2 CALLDATALOAD SWAP1 POP PUSH2 0x37B0 DUP2 PUSH2 0x378C JUMP JUMPDEST SWAP3 SWAP2 POP POP JUMP JUMPDEST PUSH0 DUP2 SWAP1 POP SWAP2 SWAP1 POP JUMP JUMPDEST PUSH2 0x37C8 DUP2 PUSH2 0x37B6 JUMP JUMPDEST DUP2 EQ PUSH2 0x37D2 JUMPI PUSH0 DUP1 REVERT JUMPDEST POP JUMP JUMPDEST PUSH0 DUP2 CALLDATALOAD SWAP1 POP PUSH2 0x37E3 DUP2 PUSH2 0x37BF JUMP JUMPDEST SWAP3 SWAP2 POP POP JUMP JUMPDEST PUSH0 DUP1 PUSH1 0x40 DUP4 DUP6 SUB SLT ISZERO PUSH2 0x37FF JUMPI PUSH2 0x37FE PUSH2 0x3754 JUMP JUMPDEST JUMPDEST PUSH0 PUSH2 0x380C DUP6 DUP3 DUP7 ADD PUSH2 0x37A2 JUMP JUMPDEST SWAP3 POP POP PUSH1 0x20 PUSH2 0x381D DUP6 DUP3 DUP7 ADD PUSH2 0x37D5 JUMP JUMPDEST SWAP2 POP POP SWAP3 POP SWAP3 SWAP1 POP JUMP JUMPDEST PUSH2 0x3830 DUP2 PUSH2 0x37B6 JUMP JUMPDEST DUP3 MSTORE POP POP JUMP JUMPDEST PUSH0 PUSH1 0x20 DUP3 ADD SWAP1 POP PUSH2 0x3849 PUSH0 DUP4 ADD DUP5 PUSH2 0x3827 JUMP JUMPDEST SWAP3 SWAP2 POP POP JUMP JUMPDEST PUSH0 PUSH1 0x20 DUP3 DUP5 SUB SLT ISZERO PUSH2 0x3864 JUMPI PUSH2 0x3863 PUSH2 0x3754 JUMP JUMPDEST JUMPDEST PUSH0 PUSH2 0x3871 DUP5 DUP3 DUP6 ADD PUSH2 0x37D5 JUMP JUMPDEST SWAP2 POP POP SWAP3 SWAP2 POP POP JUMP JUMPDEST PUSH0 DUP2 MLOAD SWAP1 POP SWAP2 SWAP1 POP JUMP JUMPDEST PUSH0 DUP3 DUP3 MSTORE PUSH1 0x20 DUP3 ADD SWAP1 POP SWAP3 SWAP2 POP POP JUMP JUMPDEST PUSH0 DUP2 SWAP1 POP PUSH1 0x20 DUP3 ADD SWAP1 POP SWAP2 SWAP1 POP JUMP JUMPDEST PUSH0 PUSH8 0xFFFFFFFFFFFFFFFF DUP3 AND SWAP1 POP SWAP2 SWAP1 POP JUMP JUMPDEST PUSH2 0x38BF DUP2 PUSH2 0x38A3 JUMP JUMPDEST DUP3 MSTORE POP POP JUMP JUMPDEST PUSH0 PUSH2 0x38D0 DUP4 DUP4 PUSH2 0x38B6 JUMP JUMPDEST PUSH1 0x20 DUP4 ADD SWAP1 POP SWAP3 SWAP2 POP POP JUMP JUMPDEST PUSH0 PUSH1 0x20 DUP3 ADD SWAP1 POP SWAP2 SWAP1 POP JUMP JUMPDEST PUSH0 PUSH2 0x38F2 DUP3 PUSH2 0x387A JUMP JUMPDEST PUSH2 0x38FC DUP2 DUP6 PUSH2 0x3884 JUMP JUMPDEST SWAP4 POP PUSH2 0x3907 DUP4 PUSH2 0x3894 JUMP JUMPDEST DUP1 PUSH0 JUMPDEST DUP4 DUP2 LT ISZERO PUSH2 0x3937 JUMPI DUP2 MLOAD PUSH2 0x391E DUP9 DUP3 PUSH2 0x38C5 JUMP JUMPDEST SWAP8 POP PUSH2 0x3929 DUP4 PUSH2 0x38DC JUMP JUMPDEST SWAP3 POP POP PUSH1 0x1 DUP2 ADD SWAP1 POP PUSH2 0x390A JUMP JUMPDEST POP DUP6 SWAP4 POP POP POP POP SWAP3 SWAP2 POP POP JUMP JUMPDEST PUSH0 DUP2 MLOAD SWAP1 POP SWAP2 SWAP1 POP JUMP JUMPDEST PUSH0 DUP3 DUP3 MSTORE PUSH1 0x20 DUP3 ADD SWAP1 POP SWAP3 SWAP2 POP POP JUMP JUMPDEST PUSH0 DUP2 SWAP1 POP PUSH1 0x20 DUP3 ADD SWAP1 POP SWAP2 SWAP1 POP JUMP JUMPDEST PUSH0 DUP2 MLOAD SWAP1 POP SWAP2 SWAP1 POP JUMP JUMPDEST PUSH0 DUP3 DUP3 MSTORE PUSH1 0x20 DUP3 ADD SWAP1 POP SWAP3 SWAP2 POP POP JUMP JUMPDEST PUSH0 JUMPDEST DUP4 DUP2 LT ISZERO PUSH2 0x39A4 JUMPI DUP1 DUP3 ADD MLOAD DUP2 DUP5 ADD MSTORE PUSH1 0x20 DUP2 ADD SWAP1 POP PUSH2 0x3989 JUMP JUMPDEST PUSH0 DUP5 DUP5 ADD MSTORE POP POP POP POP JUMP JUMPDEST PUSH0 PUSH1 0x1F NOT PUSH1 0x1F DUP4 ADD AND SWAP1 POP SWAP2 SWAP1 POP JUMP JUMPDEST PUSH0 PUSH2 0x39C9 DUP3 PUSH2 0x396D JUMP JUMPDEST PUSH2 0x39D3 DUP2 DUP6 PUSH2 0x3977 JUMP JUMPDEST SWAP4 POP PUSH2 0x39E3 DUP2 DUP6 PUSH1 0x20 DUP7 ADD PUSH2 0x3987 JUMP JUMPDEST PUSH2 0x39EC DUP2 PUSH2 0x39AF JUMP JUMPDEST DUP5 ADD SWAP2 POP POP SWAP3 SWAP2 POP POP JUMP JUMPDEST PUSH0 PUSH1 0x60 DUP4 ADD PUSH0 DUP4 ADD MLOAD DUP5 DUP3 SUB PUSH0 DUP7 ADD MSTORE PUSH2 0x3A11 DUP3 DUP3 PUSH2 0x39BF JUMP JUMPDEST SWAP2 POP POP PUSH1 0x20 DUP4 ADD MLOAD DUP5 DUP3 SUB PUSH1 0x20 DUP7 ADD MSTORE PUSH2 0x3A2B DUP3 DUP3 PUSH2 0x39BF JUMP JUMPDEST SWAP2 POP POP PUSH1 0x40 DUP4 ADD MLOAD DUP5 DUP3 SUB PUSH1 0x40 DUP7 ADD MSTORE PUSH2 0x3A45 DUP3 DUP3 PUSH2 0x39BF JUMP JUMPDEST SWAP2 POP POP DUP1 SWAP2 POP POP SWAP3 SWAP2 POP POP JUMP JUMPDEST PUSH0 PUSH2 0x3A5D DUP4 DUP4 PUSH2 0x39F7 JUMP JUMPDEST SWAP1 POP SWAP3 SWAP2 POP POP JUMP JUMPDEST PUSH0 PUSH1 0x20 DUP3 ADD SWAP1 POP SWAP2 SWAP1 POP JUMP JUMPDEST PUSH0 PUSH2 0x3A7B DUP3 PUSH2 0x3944 JUMP JUMPDEST PUSH2 0x3A85 DUP2 DUP6 PUSH2 0x394E JUMP JUMPDEST SWAP4 POP DUP4 PUSH1 0x20 DUP3 MUL DUP6 ADD PUSH2 0x3A97 DUP6 PUSH2 0x395E JUMP JUMPDEST DUP1 PUSH0 JUMPDEST DUP6 DUP2 LT ISZERO PUSH2 0x3AD2 JUMPI DUP5 DUP5 SUB DUP10 MSTORE DUP2 MLOAD PUSH2 0x3AB3 DUP6 DUP3 PUSH2 0x3A52 JUMP JUMPDEST SWAP5 POP PUSH2 0x3ABE DUP4 PUSH2 0x3A65 JUMP JUMPDEST SWAP3 POP PUSH1 0x20 DUP11 ADD SWAP10 POP POP PUSH1 0x1 DUP2 ADD SWAP1 POP PUSH2 0x3A9A JUMP JUMPDEST POP DUP3 SWAP8 POP DUP8 SWAP6 POP POP POP POP POP POP SWAP3 SWAP2 POP POP JUMP JUMPDEST PUSH0 PUSH1 0x40 DUP3 ADD SWAP1 POP DUP2 DUP2 SUB PUSH0 DUP4 ADD MSTORE PUSH2 0x3AFC DUP2 DUP6 PUSH2 0x38E8 JUMP JUMPDEST SWAP1 POP DUP2 DUP2 SUB PUSH1 0x20 DUP4 ADD MSTORE PUSH2 0x3B10 DUP2 DUP5 PUSH2 0x3A71 JUMP JUMPDEST SWAP1 POP SWAP4 SWAP3 POP POP POP JUMP JUMPDEST PUSH0 PUSH32 0xFFFFFFFF00000000000000000000000000000000000000000000000000000000 DUP3 AND SWAP1 POP SWAP2 SWAP1 POP JUMP JUMPDEST PUSH2 0x3B4D DUP2 PUSH2 0x3B19 JUMP JUMPDEST DUP2 EQ PUSH2 0x3B57 JUMPI PUSH0 DUP1 REVERT JUMPDEST POP JUMP JUMPDEST PUSH0 DUP2 CALLDATALOAD SWAP1 POP PUSH2 0x3B68 DUP2 PUSH2 0x3B44 JUMP JUMPDEST SWAP3 SWAP2 POP POP JUMP JUMPDEST PUSH0 PUSH1 0x20 DUP3 DUP5 SUB SLT ISZERO PUSH2 0x3B83 JUMPI PUSH2 0x3B82 PUSH2 0x3754 JUMP JUMPDEST JUMPDEST PUSH0 PUSH2 0x3B90 DUP5 DUP3 DUP6 ADD PUSH2 0x3B5A JUMP JUMPDEST SWAP2 POP POP SWAP3 SWAP2 POP POP JUMP JUMPDEST PUSH0 DUP2 ISZERO ISZERO SWAP1 POP SWAP2 SWAP1 POP JUMP JUMPDEST PUSH2 0x3BAD DUP2 PUSH2 0x3B99 JUMP JUMPDEST DUP3 MSTORE POP POP JUMP JUMPDEST PUSH0 PUSH1 0x20 DUP3 ADD SWAP1 POP PUSH2 0x3BC6 PUSH0 DUP4 ADD DUP5 PUSH2 0x3BA4 JUMP JUMPDEST SWAP3 SWAP2 POP POP JUMP JUMPDEST PUSH0 DUP3 DUP3 MSTORE PUSH1 0x20 DUP3 ADD SWAP1 POP SWAP3 SWAP2 POP POP JUMP JUMPDEST PUSH0 PUSH2 0x3BE6 DUP3 PUSH2 0x396D JUMP JUMPDEST PUSH2 0x3BF0 DUP2 DUP6 PUSH2 0x3BCC JUMP JUMPDEST SWAP4 POP PUSH2 0x3C00 DUP2 DUP6 PUSH1 0x20 DUP7 ADD PUSH2 0x3987 JUMP JUMPDEST PUSH2 0x3C09 DUP2 PUSH2 0x39AF JUMP JUMPDEST DUP5 ADD SWAP2 POP POP SWAP3 SWAP2 POP POP JUMP JUMPDEST PUSH0 PUSH1 0x20 DUP3 ADD SWAP1 POP DUP2 DUP2 SUB PUSH0 DUP4 ADD MSTORE PUSH2 0x3C2C DUP2 DUP5 PUSH2 0x3BDC JUMP JUMPDEST SWAP1 POP SWAP3 SWAP2 POP POP JUMP JUMPDEST PUSH0 PUSH1 0x20 DUP3 DUP5 SUB SLT ISZERO PUSH2 0x3C49 JUMPI PUSH2 0x3C48 PUSH2 0x3754 JUMP JUMPDEST JUMPDEST PUSH0 PUSH2 0x3C56 DUP5 DUP3 DUP6 ADD PUSH2 0x37A2 JUMP JUMPDEST SWAP2 POP POP SWAP3 SWAP2 POP POP JUMP JUMPDEST PUSH0 DUP2 SWAP1 POP SWAP2 SWAP1 POP JUMP JUMPDEST PUSH0 PUSH2 0x3C82 PUSH2 0x3C7D PUSH2 0x3C78 DUP5 PUSH2 0x375C JUMP JUMPDEST PUSH2 0x3C5F JUMP JUMPDEST PUSH2 0x375C JUMP JUMPDEST SWAP1 POP SWAP2 SWAP1 POP JUMP JUMPDEST PUSH0 PUSH2 0x3C93 DUP3 PUSH2 0x3C68 JUMP JUMPDEST SWAP1 POP SWAP2 SWAP1 POP JUMP JUMPDEST PUSH0 PUSH2 0x3CA4 DUP3 PUSH2 0x3C89 JUMP JUMPDEST SWAP1 POP SWAP2 SWAP1 POP JUMP JUMPDEST PUSH2 0x3CB4 DUP2 PUSH2 0x3C9A JUMP JUMPDEST DUP3 MSTORE POP POP JUMP JUMPDEST PUSH0 PUSH1 0x20 DUP3 ADD SWAP1 POP PUSH2 0x3CCD PUSH0 DUP4 ADD DUP5 PUSH2 0x3CAB JUMP JUMPDEST SWAP3 SWAP2 POP POP JUMP JUMPDEST PUSH0 DUP1 REVERT JUMPDEST PUSH0 DUP1 REVERT JUMPDEST PUSH0 DUP1 REVERT JUMPDEST PUSH0 DUP1 DUP4 PUSH1 0x1F DUP5 ADD SLT PUSH2 0x3CF4 JUMPI PUSH2 0x3CF3 PUSH2 0x3CD3 JUMP JUMPDEST JUMPDEST DUP3 CALLDATALOAD SWAP1 POP PUSH8 0xFFFFFFFFFFFFFFFF DUP2 GT ISZERO PUSH2 0x3D11 JUMPI PUSH2 0x3D10 PUSH2 0x3CD7 JUMP JUMPDEST JUMPDEST PUSH1 0x20 DUP4 ADD SWAP2 POP DUP4 PUSH1 0x1 DUP3 MUL DUP4 ADD GT ISZERO PUSH2 0x3D2D JUMPI PUSH2 0x3D2C PUSH2 0x3CDB JUMP JUMPDEST JUMPDEST SWAP3 POP SWAP3 SWAP1 POP JUMP JUMPDEST PUSH0 DUP1 DUP4 PUSH1 0x1F DUP5 ADD SLT PUSH2 0x3D49 JUMPI PUSH2 0x3D48 PUSH2 0x3CD3 JUMP JUMPDEST JUMPDEST DUP3 CALLDATALOAD SWAP1 POP PUSH8 0xFFFFFFFFFFFFFFFF DUP2 GT ISZERO PUSH2 0x3D66 JUMPI PUSH2 0x3D65 PUSH2 0x3CD7 JUMP JUMPDEST JUMPDEST PUSH1 0x20 DUP4 ADD SWAP2 POP DUP4 PUSH1 0x1 DUP3 MUL DUP4 ADD GT ISZERO PUSH2 0x3D82 JUMPI PUSH2 0x3D81 PUSH2 0x3CDB JUMP JUMPDEST JUMPDEST SWAP3 POP SWAP3 SWAP1 POP JUMP JUMPDEST PUSH0 DUP1 PUSH0 DUP1 PUSH0 DUP1 PUSH1 0x80 DUP8 DUP10 SUB SLT ISZERO PUSH2 0x3DA3 JUMPI PUSH2 0x3DA2 PUSH2 0x3754 JUMP JUMPDEST JUMPDEST PUSH0 PUSH2 0x3DB0 DUP10 DUP3 DUP11 ADD PUSH2 0x37A2 JUMP JUMPDEST SWAP7 POP POP PUSH1 0x20 PUSH2 0x3DC1 DUP10 DUP3 DUP11 ADD PUSH2 0x37D5 JUMP JUMPDEST SWAP6 POP POP PUSH1 0x40 DUP8 ADD CALLDATALOAD PUSH8 0xFFFFFFFFFFFFFFFF DUP2 GT ISZERO PUSH2 0x3DE2 JUMPI PUSH2 0x3DE1 PUSH2 0x3758 JUMP JUMPDEST JUMPDEST PUSH2 0x3DEE DUP10 DUP3 DUP11 ADD PUSH2 0x3CDF JUMP JUMPDEST SWAP5 POP SWAP5 POP POP PUSH1 0x60 DUP8 ADD CALLDATALOAD PUSH8 0xFFFFFFFFFFFFFFFF DUP2 GT ISZERO PUSH2 0x3E11 JUMPI PUSH2 0x3E10 PUSH2 0x3758 JUMP JUMPDEST JUMPDEST PUSH2 0x3E1D DUP10 DUP3 DUP11 ADD PUSH2 0x3D34 JUMP JUMPDEST SWAP3 POP SWAP3 POP POP SWAP3 SWAP6 POP SWAP3 SWAP6 POP SWAP3 SWAP6 JUMP JUMPDEST PUSH32 0x4E487B7100000000000000000000000000000000000000000000000000000000 PUSH0 MSTORE PUSH1 0x41 PUSH1 0x4 MSTORE PUSH1 0x24 PUSH0 REVERT JUMPDEST PUSH2 0x3E62 DUP3 PUSH2 0x39AF JUMP JUMPDEST DUP2 ADD DUP2 DUP2 LT PUSH8 0xFFFFFFFFFFFFFFFF DUP3 GT OR ISZERO PUSH2 0x3E81 JUMPI PUSH2 0x3E80 PUSH2 0x3E2C JUMP JUMPDEST JUMPDEST DUP1 PUSH1 0x40 MSTORE POP POP POP JUMP JUMPDEST PUSH0 PUSH2 0x3E93 PUSH2 0x374B JUMP JUMPDEST SWAP1 POP PUSH2 0x3E9F DUP3 DUP3 PUSH2 0x3E59 JUMP JUMPDEST SWAP2 SWAP1 POP JUMP JUMPDEST PUSH0 PUSH8 0xFFFFFFFFFFFFFFFF DUP3 GT ISZERO PUSH2 0x3EBE JUMPI PUSH2 0x3EBD PUSH2 0x3E2C JUMP JUMPDEST JUMPDEST PUSH1 0x20 DUP3 MUL SWAP1 POP PUSH1 0x20 DUP2 ADD SWAP1 POP SWAP2 SWAP1 POP JUMP JUMPDEST PUSH0 PUSH2 0x3EE1 PUSH2 0x3EDC DUP5 PUSH2 0x3EA4 JUMP JUMPDEST PUSH2 0x3E8A JUMP JUMPDEST SWAP1 POP DUP1 DUP4 DUP3 MSTORE PUSH1 0x20 DUP3 ADD SWAP1 POP PUSH1 0x20 DUP5 MUL DUP4 ADD DUP6 DUP2 GT ISZERO PUSH2 0x3F04 JUMPI PUSH2 0x3F03 PUSH2 0x3CDB JUMP JUMPDEST JUMPDEST DUP4 JUMPDEST DUP2 DUP2 LT ISZERO PUSH2 0x3F2D JUMPI DUP1 PUSH2 0x3F19 DUP9 DUP3 PUSH2 0x37D5 JUMP JUMPDEST DUP5 MSTORE PUSH1 0x20 DUP5 ADD SWAP4 POP POP PUSH1 0x20 DUP2 ADD SWAP1 POP PUSH2 0x3F06 JUMP JUMPDEST POP POP POP SWAP4 SWAP3 POP POP POP JUMP JUMPDEST PUSH0 DUP3 PUSH1 0x1F DUP4 ADD SLT PUSH2 0x3F4B JUMPI PUSH2 0x3F4A PUSH2 0x3CD3 JUMP JUMPDEST JUMPDEST DUP2 CALLDATALOAD PUSH2 0x3F5B DUP5 DUP3 PUSH1 0x20 DUP7 ADD PUSH2 0x3ECF JUMP JUMPDEST SWAP2 POP POP SWAP3 SWAP2 POP POP JUMP JUMPDEST PUSH0 DUP1 REVERT JUMPDEST PUSH0 PUSH8 0xFFFFFFFFFFFFFFFF DUP3 GT ISZERO PUSH2 0x3F82 JUMPI PUSH2 0x3F81 PUSH2 0x3E2C JUMP JUMPDEST JUMPDEST PUSH2 0x3F8B DUP3 PUSH2 0x39AF JUMP JUMPDEST SWAP1 POP PUSH1 0x20 DUP2 ADD SWAP1 POP SWAP2 SWAP1 POP JUMP JUMPDEST DUP3 DUP2 DUP4 CALLDATACOPY PUSH0 DUP4 DUP4 ADD MSTORE POP POP POP JUMP JUMPDEST PUSH0 PUSH2 0x3FB8 PUSH2 0x3FB3 DUP5 PUSH2 0x3F68 JUMP JUMPDEST PUSH2 0x3E8A JUMP JUMPDEST SWAP1 POP DUP3 DUP2 MSTORE PUSH1 0x20 DUP2 ADD DUP5 DUP5 DUP5 ADD GT ISZERO PUSH2 0x3FD4 JUMPI PUSH2 0x3FD3 PUSH2 0x3F64 JUMP JUMPDEST JUMPDEST PUSH2 0x3FDF DUP5 DUP3 DUP6 PUSH2 0x3F98 JUMP JUMPDEST POP SWAP4 SWAP3 POP POP POP JUMP JUMPDEST PUSH0 DUP3 PUSH1 0x1F DUP4 ADD SLT PUSH2 0x3FFB JUMPI PUSH2 0x3FFA PUSH2 0x3CD3 JUMP JUMPDEST JUMPDEST DUP2 CALLDATALOAD PUSH2 0x400B DUP5 DUP3 PUSH1 0x20 DUP7 ADD PUSH2 0x3FA6 JUMP JUMPDEST SWAP2 POP POP SWAP3 SWAP2 POP POP JUMP JUMPDEST PUSH0 DUP1 PUSH0 DUP1 PUSH0 PUSH1 0xA0 DUP7 DUP9 SUB SLT ISZERO PUSH2 0x402D JUMPI PUSH2 0x402C PUSH2 0x3754 JUMP JUMPDEST JUMPDEST PUSH0 PUSH2 0x403A DUP9 DUP3 DUP10 ADD PUSH2 0x37A2 JUMP JUMPDEST SWAP6 POP POP PUSH1 0x20 PUSH2 0x404B DUP9 DUP3 DUP10 ADD PUSH2 0x37A2 JUMP JUMPDEST SWAP5 POP POP PUSH1 0x40 DUP7 ADD CALLDATALOAD PUSH8 0xFFFFFFFFFFFFFFFF DUP2 GT ISZERO PUSH2 0x406C JUMPI PUSH2 0x406B PUSH2 0x3758 JUMP JUMPDEST JUMPDEST PUSH2 0x4078 DUP9 DUP3 DUP10 ADD PUSH2 0x3F37 JUMP JUMPDEST SWAP4 POP POP PUSH1 0x60 DUP7 ADD CALLDATALOAD PUSH8 0xFFFFFFFFFFFFFFFF DUP2 GT ISZERO PUSH2 0x4099 JUMPI PUSH2 0x4098 PUSH2 0x3758 JUMP JUMPDEST JUMPDEST PUSH2 0x40A5 DUP9 DUP3 DUP10 ADD PUSH2 0x3F37 JUMP JUMPDEST SWAP3 POP POP PUSH1 0x80 DUP7 ADD CALLDATALOAD PUSH8 0xFFFFFFFFFFFFFFFF DUP2 GT ISZERO PUSH2 0x40C6 JUMPI PUSH2 0x40C5 PUSH2 0x3758 JUMP JUMPDEST JUMPDEST PUSH2 0x40D2 DUP9 DUP3 DUP10 ADD PUSH2 0x3FE7 JUMP JUMPDEST SWAP2 POP POP SWAP3 SWAP6 POP SWAP3 SWAP6 SWAP1 SWAP4 POP JUMP JUMPDEST PUSH2 0x40E8 DUP2 PUSH2 0x38A3 JUMP JUMPDEST DUP2 EQ PUSH2 0x40F2 JUMPI PUSH0 DUP1 REVERT JUMPDEST POP JUMP JUMPDEST PUSH0 DUP2 CALLDATALOAD SWAP1 POP PUSH2 0x4103 DUP2 PUSH2 0x40DF JUMP JUMPDEST SWAP3 SWAP2 POP POP JUMP JUMPDEST PUSH0 DUP1 PUSH1 0x40 DUP4 DUP6 SUB SLT ISZERO PUSH2 0x411F JUMPI PUSH2 0x411E PUSH2 0x3754 JUMP JUMPDEST JUMPDEST PUSH0 PUSH2 0x412C DUP6 DUP3 DUP7 ADD PUSH2 0x37D5 JUMP JUMPDEST SWAP3 POP POP PUSH1 0x20 PUSH2 0x413D DUP6 DUP3 DUP7 ADD PUSH2 0x40F5 JUMP JUMPDEST SWAP2 POP POP SWAP3 POP SWAP3 SWAP1 POP JUMP JUMPDEST PUSH0 DUP2 MLOAD SWAP1 POP SWAP2 SWAP1 POP JUMP JUMPDEST PUSH0 DUP3 DUP3 MSTORE PUSH1 0x20 DUP3 ADD SWAP1 POP SWAP3 SWAP2 POP POP JUMP JUMPDEST PUSH0 DUP2 SWAP1 POP PUSH1 0x20 DUP3 ADD SWAP1 POP SWAP2 SWAP1 POP JUMP JUMPDEST PUSH2 0x4179 DUP2 PUSH2 0x377B JUMP JUMPDEST DUP3 MSTORE POP POP JUMP JUMPDEST PUSH0 PUSH2 0x418A DUP4 DUP4 PUSH2 0x4170 JUMP JUMPDEST PUSH1 0x20 DUP4 ADD SWAP1 POP SWAP3 SWAP2 POP POP JUMP JUMPDEST PUSH0 PUSH1 0x20 DUP3 ADD SWAP1 POP SWAP2 SWAP1 POP JUMP JUMPDEST PUSH0 PUSH2 0x41AC DUP3 PUSH2 0x4147 JUMP JUMPDEST PUSH2 0x41B6 DUP2 DUP6 PUSH2 0x4151 JUMP JUMPDEST SWAP4 POP PUSH2 0x41C1 DUP4 PUSH2 0x4161 JUMP JUMPDEST DUP1 PUSH0 JUMPDEST DUP4 DUP2 LT ISZERO PUSH2 0x41F1 JUMPI DUP2 MLOAD PUSH2 0x41D8 DUP9 DUP3 PUSH2 0x417F JUMP JUMPDEST SWAP8 POP PUSH2 0x41E3 DUP4 PUSH2 0x4196 JUMP JUMPDEST SWAP3 POP POP PUSH1 0x1 DUP2 ADD SWAP1 POP PUSH2 0x41C4 JUMP JUMPDEST POP DUP6 SWAP4 POP POP POP POP SWAP3 SWAP2 POP POP JUMP JUMPDEST PUSH0 PUSH1 0x20 DUP3 ADD SWAP1 POP DUP2 DUP2 SUB PUSH0 DUP4 ADD MSTORE PUSH2 0x4216 DUP2 DUP5 PUSH2 0x41A2 JUMP JUMPDEST SWAP1 POP SWAP3 SWAP2 POP POP JUMP JUMPDEST PUSH0 PUSH8 0xFFFFFFFFFFFFFFFF DUP3 GT ISZERO PUSH2 0x4238 JUMPI PUSH2 0x4237 PUSH2 0x3E2C JUMP JUMPDEST JUMPDEST PUSH1 0x20 DUP3 MUL SWAP1 POP PUSH1 0x20 DUP2 ADD SWAP1 POP SWAP2 SWAP1 POP JUMP JUMPDEST PUSH0 PUSH2 0x425B PUSH2 0x4256 DUP5 PUSH2 0x421E JUMP JUMPDEST PUSH2 0x3E8A JUMP JUMPDEST SWAP1 POP DUP1 DUP4 DUP3 MSTORE PUSH1 0x20 DUP3 ADD SWAP1 POP PUSH1 0x20 DUP5 MUL DUP4 ADD DUP6 DUP2 GT ISZERO PUSH2 0x427E JUMPI PUSH2 0x427D PUSH2 0x3CDB JUMP JUMPDEST JUMPDEST DUP4 JUMPDEST DUP2 DUP2 LT ISZERO PUSH2 0x42A7 JUMPI DUP1 PUSH2 0x4293 DUP9 DUP3 PUSH2 0x37A2 JUMP JUMPDEST DUP5 MSTORE PUSH1 0x20 DUP5 ADD SWAP4 POP POP PUSH1 0x20 DUP2 ADD SWAP1 POP PUSH2 0x4280 JUMP JUMPDEST POP POP POP SWAP4 SWAP3 POP POP POP JUMP JUMPDEST PUSH0 DUP3 PUSH1 0x1F DUP4 ADD SLT PUSH2 0x42C5 JUMPI PUSH2 0x42C4 PUSH2 0x3CD3 JUMP JUMPDEST JUMPDEST DUP2 CALLDATALOAD PUSH2 0x42D5 DUP5 DUP3 PUSH1 0x20 DUP7 ADD PUSH2 0x4249 JUMP JUMPDEST SWAP2 POP POP SWAP3 SWAP2 POP POP JUMP JUMPDEST PUSH0 DUP1 PUSH1 0x40 DUP4 DUP6 SUB SLT ISZERO PUSH2 0x42F4 JUMPI PUSH2 0x42F3 PUSH2 0x3754 JUMP JUMPDEST JUMPDEST PUSH0 DUP4 ADD CALLDATALOAD PUSH8 0xFFFFFFFFFFFFFFFF DUP2 GT ISZERO PUSH2 0x4311 JUMPI PUSH2 0x4310 PUSH2 0x3758 JUMP JUMPDEST JUMPDEST PUSH2 0x431D DUP6 DUP3 DUP7 ADD PUSH2 0x42B1 JUMP JUMPDEST SWAP3 POP POP PUSH1 0x20 DUP4 ADD CALLDATALOAD PUSH8 0xFFFFFFFFFFFFFFFF DUP2 GT ISZERO PUSH2 0x433E JUMPI PUSH2 0x433D PUSH2 0x3758 JUMP JUMPDEST JUMPDEST PUSH2 0x434A DUP6 DUP3 DUP7 ADD PUSH2 0x3F37 JUMP JUMPDEST SWAP2 POP POP SWAP3 POP SWAP3 SWAP1 POP JUMP JUMPDEST PUSH0 DUP2 MLOAD SWAP1 POP SWAP2 SWAP1 POP JUMP JUMPDEST PUSH0 DUP3 DUP3 MSTORE PUSH1 0x20 DUP3 ADD SWAP1 POP SWAP3 SWAP2 POP POP JUMP JUMPDEST PUSH0 DUP2 SWAP1 POP PUSH1 0x20 DUP3 ADD SWAP1 POP SWAP2 SWAP1 POP JUMP JUMPDEST PUSH2 0x4386 DUP2 PUSH2 0x37B6 JUMP JUMPDEST DUP3 MSTORE POP POP JUMP JUMPDEST PUSH0 PUSH2 0x4397 DUP4 DUP4 PUSH2 0x437D JUMP JUMPDEST PUSH1 0x20 DUP4 ADD SWAP1 POP SWAP3 SWAP2 POP POP JUMP JUMPDEST PUSH0 PUSH1 0x20 DUP3 ADD SWAP1 POP SWAP2 SWAP1 POP JUMP JUMPDEST PUSH0 PUSH2 0x43B9 DUP3 PUSH2 0x4354 JUMP JUMPDEST PUSH2 0x43C3 DUP2 DUP6 PUSH2 0x435E JUMP JUMPDEST SWAP4 POP PUSH2 0x43CE DUP4 PUSH2 0x436E JUMP JUMPDEST DUP1 PUSH0 JUMPDEST DUP4 DUP2 LT ISZERO PUSH2 0x43FE JUMPI DUP2 MLOAD PUSH2 0x43E5 DUP9 DUP3 PUSH2 0x438C JUMP JUMPDEST SWAP8 POP PUSH2 0x43F0 DUP4 PUSH2 0x43A3 JUMP JUMPDEST SWAP3 POP POP PUSH1 0x1 DUP2 ADD SWAP1 POP PUSH2 0x43D1 JUMP JUMPDEST POP DUP6 SWAP4 POP POP POP POP SWAP3 SWAP2 POP POP JUMP JUMPDEST PUSH0 PUSH1 0x20 DUP3 ADD SWAP1 POP DUP2 DUP2 SUB PUSH0 DUP4 ADD MSTORE PUSH2 0x4423 DUP2 DUP5 PUSH2 0x43AF JUMP JUMPDEST SWAP1 POP SWAP3 SWAP2 POP POP JUMP JUMPDEST PUSH0 PUSH2 0x4435 DUP3 PUSH2 0x377B JUMP JUMPDEST SWAP1 POP SWAP2 SWAP1 POP JUMP JUMPDEST PUSH2 0x4445 DUP2 PUSH2 0x442B JUMP JUMPDEST DUP2 EQ PUSH2 0x444F JUMPI PUSH0 DUP1 REVERT JUMPDEST POP JUMP JUMPDEST PUSH0 DUP2 CALLDATALOAD SWAP1 POP PUSH2 0x4460 DUP2 PUSH2 0x443C JUMP JUMPDEST SWAP3 SWAP2 POP POP JUMP JUMPDEST PUSH0 DUP1 REVERT JUMPDEST PUSH0 PUSH1 0x60 DUP3 DUP5 SUB SLT ISZERO PUSH2 0x447F JUMPI PUSH2 0x447E PUSH2 0x4466 JUMP JUMPDEST JUMPDEST DUP2 SWAP1 POP SWAP3 SWAP2 POP POP JUMP JUMPDEST PUSH0 DUP1 PUSH0 DUP1 PUSH0 DUP1 PUSH0 DUP1 PUSH0 DUP1 PUSH1 0xE0 DUP12 DUP14 SUB SLT ISZERO PUSH2 0x44A6 JUMPI PUSH2 0x44A5 PUSH2 0x3754 JUMP JUMPDEST JUMPDEST PUSH0 PUSH2 0x44B3 DUP14 DUP3 DUP15 ADD PUSH2 0x40F5 JUMP JUMPDEST SWAP11 POP POP PUSH1 0x20 DUP12 ADD CALLDATALOAD PUSH8 0xFFFFFFFFFFFFFFFF DUP2 GT ISZERO PUSH2 0x44D4 JUMPI PUSH2 0x44D3 PUSH2 0x3758 JUMP JUMPDEST JUMPDEST PUSH2 0x44E0 DUP14 DUP3 DUP15 ADD PUSH2 0x3D34 JUMP JUMPDEST SWAP10 POP SWAP10 POP POP PUSH1 0x40 PUSH2 0x44F3 DUP14 DUP3 DUP15 ADD PUSH2 0x4452 JUMP JUMPDEST SWAP8 POP POP PUSH1 0x60 DUP12 ADD CALLDATALOAD PUSH8 0xFFFFFFFFFFFFFFFF DUP2 GT ISZERO PUSH2 0x4514 JUMPI PUSH2 0x4513 PUSH2 0x3758 JUMP JUMPDEST JUMPDEST PUSH2 0x4520 DUP14 DUP3 DUP15 ADD PUSH2 0x3CDF JUMP JUMPDEST SWAP7 POP SWAP7 POP POP PUSH1 0x80 PUSH2 0x4533 DUP14 DUP3 DUP15 ADD PUSH2 0x37D5 JUMP JUMPDEST SWAP5 POP POP PUSH1 0xA0 DUP12 ADD CALLDATALOAD PUSH8 0xFFFFFFFFFFFFFFFF DUP2 GT ISZERO PUSH2 0x4554 JUMPI PUSH2 0x4553 PUSH2 0x3758 JUMP JUMPDEST JUMPDEST PUSH2 0x4560 DUP14 DUP3 DUP15 ADD PUSH2 0x3D34 JUMP JUMPDEST SWAP4 POP SWAP4 POP POP PUSH1 0xC0 DUP12 ADD CALLDATALOAD PUSH8 0xFFFFFFFFFFFFFFFF DUP2 GT ISZERO PUSH2 0x4583 JUMPI PUSH2 0x4582 PUSH2 0x3758 JUMP JUMPDEST JUMPDEST PUSH2 0x458F DUP14 DUP3 DUP15 ADD PUSH2 0x446A JUMP JUMPDEST SWAP2 POP POP SWAP3 SWAP6 SWAP9 SWAP12 SWAP2 SWAP5 SWAP8 SWAP11 POP SWAP3 SWAP6 SWAP9 POP JUMP JUMPDEST PUSH2 0x45AA DUP2 PUSH2 0x377B JUMP JUMPDEST DUP3 MSTORE POP POP JUMP JUMPDEST PUSH0 PUSH1 0x20 DUP3 ADD SWAP1 POP PUSH2 0x45C3 PUSH0 DUP4 ADD DUP5 PUSH2 0x45A1 JUMP JUMPDEST SWAP3 SWAP2 POP POP JUMP JUMPDEST PUSH0 PUSH1 0x60 DUP3 ADD SWAP1 POP DUP2 DUP2 SUB PUSH0 DUP4 ADD MSTORE PUSH2 0x45E1 DUP2 DUP7 PUSH2 0x3BDC JUMP JUMPDEST SWAP1 POP DUP2 DUP2 SUB PUSH1 0x20 DUP4 ADD MSTORE PUSH2 0x45F5 DUP2 DUP6 PUSH2 0x3BDC JUMP JUMPDEST SWAP1 POP DUP2 DUP2 SUB PUSH1 0x40 DUP4 ADD MSTORE PUSH2 0x4609 DUP2 DUP5 PUSH2 0x3BDC JUMP JUMPDEST SWAP1 POP SWAP5 SWAP4 POP POP POP POP JUMP JUMPDEST PUSH2 0x461C DUP2 PUSH2 0x3B99 JUMP JUMPDEST DUP2 EQ PUSH2 0x4626 JUMPI PUSH0 DUP1 REVERT JUMPDEST POP JUMP JUMPDEST PUSH0 DUP2 CALLDATALOAD SWAP1 POP PUSH2 0x4637 DUP2 PUSH2 0x4613 JUMP JUMPDEST SWAP3 SWAP2 POP POP JUMP JUMPDEST PUSH0 DUP1 PUSH1 0x40 DUP4 DUP6 SUB SLT ISZERO PUSH2 0x4653 JUMPI PUSH2 0x4652 PUSH2 0x3754 JUMP JUMPDEST JUMPDEST PUSH0 PUSH2 0x4660 DUP6 DUP3 DUP7 ADD PUSH2 0x37A2 JUMP JUMPDEST SWAP3 POP POP PUSH1 0x20 PUSH2 0x4671 DUP6 DUP3 DUP7 ADD PUSH2 0x4629 JUMP JUMPDEST SWAP2 POP POP SWAP3 POP SWAP3 SWAP1 POP JUMP JUMPDEST PUSH0 DUP1 PUSH0 DUP1 PUSH1 0x60 DUP6 DUP8 SUB SLT ISZERO PUSH2 0x4693 JUMPI PUSH2 0x4692 PUSH2 0x3754 JUMP JUMPDEST JUMPDEST PUSH0 PUSH2 0x46A0 DUP8 DUP3 DUP9 ADD PUSH2 0x37D5 JUMP JUMPDEST SWAP5 POP POP PUSH1 0x20 PUSH2 0x46B1 DUP8 DUP3 DUP9 ADD PUSH2 0x40F5 JUMP JUMPDEST SWAP4 POP POP PUSH1 0x40 DUP6 ADD CALLDATALOAD PUSH8 0xFFFFFFFFFFFFFFFF DUP2 GT ISZERO PUSH2 0x46D2 JUMPI PUSH2 0x46D1 PUSH2 0x3758 JUMP JUMPDEST JUMPDEST PUSH2 0x46DE DUP8 DUP3 DUP9 ADD PUSH2 0x3D34 JUMP JUMPDEST SWAP3 POP SWAP3 POP POP SWAP3 SWAP6 SWAP2 SWAP5 POP SWAP3 POP JUMP JUMPDEST PUSH2 0x46F5 DUP2 PUSH2 0x38A3 JUMP JUMPDEST DUP3 MSTORE POP POP JUMP JUMPDEST PUSH0 PUSH1 0x20 DUP3 ADD SWAP1 POP PUSH2 0x470E PUSH0 DUP4 ADD DUP5 PUSH2 0x46EC JUMP JUMPDEST SWAP3 SWAP2 POP POP JUMP JUMPDEST PUSH0 DUP1 PUSH1 0x40 DUP4 DUP6 SUB SLT ISZERO PUSH2 0x472A JUMPI PUSH2 0x4729 PUSH2 0x3754 JUMP JUMPDEST JUMPDEST PUSH0 PUSH2 0x4737 DUP6 DUP3 DUP7 ADD PUSH2 0x37A2 JUMP JUMPDEST SWAP3 POP POP PUSH1 0x20 PUSH2 0x4748 DUP6 DUP3 DUP7 ADD PUSH2 0x37A2 JUMP JUMPDEST SWAP2 POP POP SWAP3 POP SWAP3 SWAP1 POP JUMP JUMPDEST PUSH0 DUP1 PUSH0 DUP1 PUSH0 PUSH1 0xA0 DUP7 DUP9 SUB SLT ISZERO PUSH2 0x476B JUMPI PUSH2 0x476A PUSH2 0x3754 JUMP JUMPDEST JUMPDEST PUSH0 PUSH2 0x4778 DUP9 DUP3 DUP10 ADD PUSH2 0x37A2 JUMP JUMPDEST SWAP6 POP POP PUSH1 0x20 PUSH2 0x4789 DUP9 DUP3 DUP10 ADD PUSH2 0x37A2 JUMP JUMPDEST SWAP5 POP POP PUSH1 0x40 PUSH2 0x479A DUP9 DUP3 DUP10 ADD PUSH2 0x37D5 JUMP JUMPDEST SWAP4 POP POP PUSH1 0x60 PUSH2 0x47AB DUP9 DUP3 DUP10 ADD PUSH2 0x37D5 JUMP JUMPDEST SWAP3 POP POP PUSH1 0x80 DUP7 ADD CALLDATALOAD PUSH8 0xFFFFFFFFFFFFFFFF DUP2 GT ISZERO PUSH2 0x47CC JUMPI PUSH2 0x47CB PUSH2 0x3758 JUMP JUMPDEST JUMPDEST PUSH2 0x47D8 DUP9 DUP3 DUP10 ADD PUSH2 0x3FE7 JUMP JUMPDEST SWAP2 POP POP SWAP3 SWAP6 POP SWAP3 SWAP6 SWAP1 SWAP4 POP JUMP JUMPDEST PUSH0 DUP1 PUSH0 PUSH1 0x60 DUP5 DUP7 SUB SLT ISZERO PUSH2 0x47FC JUMPI PUSH2 0x47FB PUSH2 0x3754 JUMP JUMPDEST JUMPDEST PUSH0 PUSH2 0x4809 DUP7 DUP3 DUP8 ADD PUSH2 0x37A2 JUMP JUMPDEST SWAP4 POP POP PUSH1 0x20 PUSH2 0x481A DUP7 DUP3 DUP8 ADD PUSH2 0x37D5 JUMP JUMPDEST SWAP3 POP POP PUSH1 0x40 PUSH2 0x482B DUP7 DUP3 DUP8 ADD PUSH2 0x37D5 JUMP JUMPDEST SWAP2 POP POP SWAP3 POP SWAP3 POP SWAP3 JUMP JUMPDEST PUSH32 0x4E487B7100000000000000000000000000000000000000000000000000000000 PUSH0 MSTORE PUSH1 0x32 PUSH1 0x4 MSTORE PUSH1 0x24 PUSH0 REVERT JUMPDEST PUSH32 0x4E487B7100000000000000000000000000000000000000000000000000000000 PUSH0 MSTORE PUSH1 0x22 PUSH1 0x4 MSTORE PUSH1 0x24 PUSH0 REVERT JUMPDEST PUSH0 PUSH1 0x2 DUP3 DIV SWAP1 POP PUSH1 0x1 DUP3 AND DUP1 PUSH2 0x48A6 JUMPI PUSH1 0x7F DUP3 AND SWAP2 POP JUMPDEST PUSH1 0x20 DUP3 LT DUP2 SUB PUSH2 0x48B9 JUMPI PUSH2 0x48B8 PUSH2 0x4862 JUMP JUMPDEST JUMPDEST POP SWAP2 SWAP1 POP JUMP JUMPDEST PUSH32 0x4E487B7100000000000000000000000000000000000000000000000000000000 PUSH0 MSTORE PUSH1 0x11 PUSH1 0x4 MSTORE PUSH1 0x24 PUSH0 REVERT JUMPDEST PUSH0 PUSH2 0x48F6 DUP3 PUSH2 0x37B6 JUMP JUMPDEST SWAP2 POP PUSH32 0xFFFFFFFFFFFFFFFFFFFFFFFFFFFFFFFFFFFFFFFFFFFFFFFFFFFFFFFFFFFFFFFF DUP3 SUB PUSH2 0x4928 JUMPI PUSH2 0x4927 PUSH2 0x48BF JUMP JUMPDEST JUMPDEST PUSH1 0x1 DUP3 ADD SWAP1 POP SWAP2 SWAP1 POP JUMP JUMPDEST PUSH0 PUSH2 0x493D DUP3 PUSH2 0x37B6 JUMP JUMPDEST SWAP2 POP PUSH2 0x4948 DUP4 PUSH2 0x37B6 JUMP JUMPDEST SWAP3 POP DUP3 DUP3 SUB SWAP1 POP DUP2 DUP2 GT ISZERO PUSH2 0x4960 JUMPI PUSH2 0x495F PUSH2 0x48BF JUMP JUMPDEST JUMPDEST SWAP3 SWAP2 POP POP JUMP JUMPDEST PUSH32 0x4E487B7100000000000000000000000000000000000000000000000000000000 PUSH0 MSTORE PUSH1 0x31 PUSH1 0x4 MSTORE PUSH1 0x24 PUSH0 REVERT JUMPDEST PUSH32 0x41646D696E206E6F7420666F756E640000000000000000000000000000000000 PUSH0 DUP3 ADD MSTORE POP JUMP JUMPDEST PUSH0 PUSH2 0x49C7 PUSH1 0xF DUP4 PUSH2 0x3BCC JUMP JUMPDEST SWAP2 POP PUSH2 0x49D2 DUP3 PUSH2 0x4993 JUMP JUMPDEST PUSH1 0x20 DUP3 ADD SWAP1 POP SWAP2 SWAP1 POP JUMP JUMPDEST PUSH0 PUSH1 0x20 DUP3 ADD SWAP1 POP DUP2 DUP2 SUB PUSH0 DUP4 ADD MSTORE PUSH2 0x49F4 DUP2 PUSH2 0x49BB JUMP JUMPDEST SWAP1 POP SWAP2 SWAP1 POP JUMP JUMPDEST PUSH32 0x4E616D6520726571756972656400000000000000000000000000000000000000 PUSH0 DUP3 ADD MSTORE POP JUMP JUMPDEST PUSH0 PUSH2 0x4A2F PUSH1 0xD DUP4 PUSH2 0x3BCC JUMP JUMPDEST SWAP2 POP PUSH2 0x4A3A DUP3 PUSH2 0x49FB JUMP JUMPDEST PUSH1 0x20 DUP3 ADD SWAP1 POP SWAP2 SWAP1 POP JUMP JUMPDEST PUSH0 PUSH1 0x20 DUP3 ADD SWAP1 POP DUP2 DUP2 SUB PUSH0 DUP4 ADD MSTORE PUSH2 0x4A5C DUP2 PUSH2 0x4A23 JUMP JUMPDEST SWAP1 POP SWAP2 SWAP1 POP JUMP JUMPDEST PUSH0 DUP2 SWAP1 POP SWAP3 SWAP2 POP POP JUMP JUMPDEST PUSH0 PUSH2 0x4A78 DUP4 DUP6 PUSH2 0x4A63 JUMP JUMPDEST SWAP4 POP PUSH2 0x4A85 DUP4 DUP6 DUP5 PUSH2 0x3F98 JUMP JUMPDEST DUP3 DUP5 ADD SWAP1 POP SWAP4 SWAP3 POP POP POP JUMP JUMPDEST PUSH0 PUSH2 0x4A9D DUP3 DUP5 DUP7 PUSH2 0x4A6D JUMP JUMPDEST SWAP2 POP DUP2 SWAP1 POP SWAP4 SWAP3 POP POP POP JUMP JUMPDEST PUSH0 DUP2 SWAP1 POP DUP2 PUSH0 MSTORE PUSH1 0x20 PUSH0 KECCAK256 SWAP1 POP SWAP2 SWAP1 POP JUMP JUMPDEST PUSH0 DUP2 SLOAD PUSH2 0x4AC7 DUP2 PUSH2 0x488F JUMP JUMPDEST PUSH2 0x4AD1 DUP2 DUP7 PUSH2 0x4A63 JUMP JUMPDEST SWAP5 POP PUSH1 0x1 DUP3 AND PUSH0 DUP2 EQ PUSH2 0x4AEB JUMPI PUSH1 0x1 DUP2 EQ PUSH2 0x4B00 JUMPI PUSH2 0x4B32 JUMP JUMPDEST PUSH1 0xFF NOT DUP4 AND DUP7 MSTORE DUP2 ISZERO ISZERO DUP3 MUL DUP7 ADD SWAP4 POP PUSH2 0x4B32 JUMP JUMPDEST PUSH2 0x4B09 DUP6 PUSH2 0x4AA9 JUMP JUMPDEST PUSH0 JUMPDEST DUP4 DUP2 LT ISZERO PUSH2 0x4B2A JUMPI DUP2 SLOAD DUP2 DUP10 ADD MSTORE PUSH1 0x1 DUP3 ADD SWAP2 POP PUSH1 0x20 DUP2 ADD SWAP1 POP PUSH2 0x4B0B JUMP JUMPDEST DUP4 DUP9 ADD SWAP6 POP POP POP JUMPDEST POP POP POP SWAP3 SWAP2 POP POP JUMP JUMPDEST PUSH0 PUSH2 0x4B46 DUP3 DUP5 PUSH2 0x4ABB JUMP JUMPDEST SWAP2 POP DUP2 SWAP1 POP SWAP3 SWAP2 POP POP JUMP JUMPDEST PUSH0 DUP2 SWAP1 POP SWAP2 SWAP1 POP JUMP JUMPDEST PUSH2 0x4B6B PUSH2 0x4B66 DUP3 PUSH2 0x37B6 JUMP JUMPDEST PUSH2 0x4B51 JUMP JUMPDEST DUP3 MSTORE POP POP JUMP JUMPDEST PUSH0 DUP2 PUSH1 0x60 SHL SWAP1 POP SWAP2 SWAP1 POP JUMP JUMPDEST PUSH0 PUSH2 0x4B87 DUP3 PUSH2 0x4B71 JUMP JUMPDEST SWAP1 POP SWAP2 SWAP1 POP JUMP JUMPDEST PUSH0 PUSH2 0x4B98 DUP3 PUSH2 0x4B7D JUMP JUMPDEST SWAP1 POP SWAP2 SWAP1 POP JUMP JUMPDEST PUSH2 0x4BB0 PUSH2 0x4BAB DUP3 PUSH2 0x377B JUMP JUMPDEST PUSH2 0x4B8E JUMP JUMPDEST DUP3 MSTORE POP POP JUMP JUMPDEST PUSH0 DUP2 SWAP1 POP SWAP3 SWAP2 POP POP JUMP JUMPDEST PUSH0 PUSH2 0x4BCB DUP4 DUP6 PUSH2 0x4BB6 JUMP JUMPDEST SWAP4 POP PUSH2 0x4BD8 DUP4 DUP6 DUP5 PUSH2 0x3F98 JUMP JUMPDEST DUP3 DUP5 ADD SWAP1 POP SWAP4 SWAP3 POP POP POP JUMP JUMPDEST PUSH0 PUSH2 0x4BEF DUP3 DUP10 PUSH2 0x4B5A JUMP JUMPDEST PUSH1 0x20 DUP3 ADD SWAP2 POP PUSH2 0x4BFF DUP3 DUP9 PUSH2 0x4B5A JUMP JUMPDEST PUSH1 0x20 DUP3 ADD SWAP2 POP PUSH2 0x4C0F DUP3 DUP8 PUSH2 0x4B9F JUMP JUMPDEST PUSH1 0x14 DUP3 ADD SWAP2 POP PUSH2 0x4C20 DUP3 DUP6 DUP8 PUSH2 0x4BC0 JUMP JUMPDEST SWAP2 POP PUSH2 0x4C2C DUP3 DUP5 PUSH2 0x4B5A JUMP JUMPDEST PUSH1 0x20 DUP3 ADD SWAP2 POP DUP2 SWAP1 POP SWAP8 SWAP7 POP POP POP POP POP POP POP JUMP JUMPDEST PUSH32 0x4E487B7100000000000000000000000000000000000000000000000000000000 PUSH0 MSTORE PUSH1 0x12 PUSH1 0x4 MSTORE PUSH1 0x24 PUSH0 REVERT JUMPDEST PUSH0 PUSH2 0x4C77 DUP3 PUSH2 0x37B6 JUMP JUMPDEST SWAP2 POP PUSH2 0x4C82 DUP4 PUSH2 0x37B6 JUMP JUMPDEST SWAP3 POP DUP3 PUSH2 0x4C92 JUMPI PUSH2 0x4C91 PUSH2 0x4C40 JUMP JUMPDEST JUMPDEST DUP3 DUP3 MOD SWAP1 POP SWAP3 SWAP2 POP POP JUMP JUMPDEST PUSH0 PUSH2 0x4CA7 DUP3 PUSH2 0x37B6 JUMP JUMPDEST SWAP2 POP PUSH2 0x4CB2 DUP4 PUSH2 0x37B6 JUMP JUMPDEST SWAP3 POP DUP3 DUP3 ADD SWAP1 POP DUP1 DUP3 GT ISZERO PUSH2 0x4CCA JUMPI PUSH2 0x4CC9 PUSH2 0x48BF JUMP JUMPDEST JUMPDEST SWAP3 SWAP2 POP POP JUMP JUMPDEST PUSH32 0x556E61626C6520746F2066696E6420756E697175652073686F727420746F6B65 PUSH0 DUP3 ADD MSTORE PUSH32 0x6E20494400000000000000000000000000000000000000000000000000000000 PUSH1 0x20 DUP3 ADD MSTORE POP JUMP JUMPDEST PUSH0 PUSH2 0x4D2A PUSH1 0x24 DUP4 PUSH2 0x3BCC JUMP JUMPDEST SWAP2 POP PUSH2 0x4D35 DUP3 PUSH2 0x4CD0 JUMP JUMPDEST PUSH1 0x40 DUP3 ADD SWAP1 POP SWAP2 SWAP1 POP JUMP JUMPDEST PUSH0 PUSH1 0x20 DUP3 ADD SWAP1 POP DUP2 DUP2 SUB PUSH0 DUP4 ADD MSTORE PUSH2 0x4D57 DUP2 PUSH2 0x4D1E JUMP JUMPDEST SWAP1 POP SWAP2 SWAP1 POP JUMP JUMPDEST PUSH32 0x546F6B656E494454616B656E0000000000000000000000000000000000000000 PUSH0 DUP3 ADD MSTORE POP JUMP JUMPDEST PUSH0 PUSH2 0x4D92 PUSH1 0xC DUP4 PUSH2 0x3BCC JUMP JUMPDEST SWAP2 POP PUSH2 0x4D9D DUP3 PUSH2 0x4D5E JUMP JUMPDEST PUSH1 0x20 DUP3 ADD SWAP1 POP SWAP2 SWAP1 POP JUMP JUMPDEST PUSH0 PUSH1 0x20 DUP3 ADD SWAP1 POP DUP2 DUP2 SUB PUSH0 DUP4 ADD MSTORE PUSH2 0x4DBF DUP2 PUSH2 0x4D86 JUMP JUMPDEST SWAP1 POP SWAP2 SWAP1 POP JUMP JUMPDEST PUSH0 DUP3 SWAP1 POP SWAP3 SWAP2 POP POP JUMP JUMPDEST PUSH0 DUP2 SWAP1 POP DUP2 PUSH0 MSTORE PUSH1 0x20 PUSH0 KECCAK256 SWAP1 POP SWAP2 SWAP1 POP JUMP JUMPDEST PUSH0 PUSH1 0x20 PUSH1 0x1F DUP4 ADD DIV SWAP1 POP SWAP2 SWAP1 POP JUMP JUMPDEST PUSH0 DUP3 DUP3 SHL SWAP1 POP SWAP3 SWAP2 POP POP JUMP JUMPDEST PUSH0 PUSH1 0x8 DUP4 MUL PUSH2 0x4E2C PUSH32 0xFFFFFFFFFFFFFFFFFFFFFFFFFFFFFFFFFFFFFFFFFFFFFFFFFFFFFFFFFFFFFFFF DUP3 PUSH2 0x4DF1 JUMP JUMPDEST PUSH2 0x4E36 DUP7 DUP4 PUSH2 0x4DF1 JUMP JUMPDEST SWAP6 POP DUP1 NOT DUP5 AND SWAP4 POP DUP1 DUP7 AND DUP5 OR SWAP3 POP POP POP SWAP4 SWAP3 POP POP POP JUMP JUMPDEST PUSH0 PUSH2 0x4E68 PUSH2 0x4E63 PUSH2 0x4E5E DUP5 PUSH2 0x37B6 JUMP JUMPDEST PUSH2 0x3C5F JUMP JUMPDEST PUSH2 0x37B6 JUMP JUMPDEST SWAP1 POP SWAP2 SWAP1 POP JUMP JUMPDEST PUSH0 DUP2 SWAP1 POP SWAP2 SWAP1 POP JUMP JUMPDEST PUSH2 0x4E81 DUP4 PUSH2 0x4E4E JUMP JUMPDEST PUSH2 0x4E95 PUSH2 0x4E8D DUP3 PUSH2 0x4E6F JUMP JUMPDEST DUP5 DUP5 SLOAD PUSH2 0x4DFD JUMP JUMPDEST DUP3 SSTORE POP POP POP POP JUMP JUMPDEST PUSH0 SWAP1 JUMP JUMPDEST PUSH2 0x4EA9 PUSH2 0x4E9D JUMP JUMPDEST PUSH2 0x4EB4 DUP2 DUP5 DUP5 PUSH2 0x4E78 JUMP JUMPDEST POP POP POP JUMP JUMPDEST JUMPDEST DUP2 DUP2 LT ISZERO PUSH2 0x4ED7 JUMPI PUSH2 0x4ECC PUSH0 DUP3 PUSH2 0x4EA1 JUMP JUMPDEST PUSH1 0x1 DUP2 ADD SWAP1 POP PUSH2 0x4EBA JUMP JUMPDEST POP POP JUMP JUMPDEST PUSH1 0x1F DUP3 GT ISZERO PUSH2 0x4F1C JUMPI PUSH2 0x4EED DUP2 PUSH2 0x4DD0 JUMP JUMPDEST PUSH2 0x4EF6 DUP5 PUSH2 0x4DE2 JUMP JUMPDEST DUP2 ADD PUSH1 0x20 DUP6 LT ISZERO PUSH2 0x4F05 JUMPI DUP2 SWAP1 POP JUMPDEST PUSH2 0x4F19 PUSH2 0x4F11 DUP6 PUSH2 0x4DE2 JUMP JUMPDEST DUP4 ADD DUP3 PUSH2 0x4EB9 JUMP JUMPDEST POP POP JUMPDEST POP POP POP JUMP JUMPDEST PUSH0 DUP3 DUP3 SHR SWAP1 POP SWAP3 SWAP2 POP POP JUMP JUMPDEST PUSH0 PUSH2 0x4F3C PUSH0 NOT DUP5 PUSH1 0x8 MUL PUSH2 0x4F21 JUMP JUMPDEST NOT DUP1 DUP4 AND SWAP2 POP POP SWAP3 SWAP2 POP POP JUMP JUMPDEST PUSH0 PUSH2 0x4F54 DUP4 DUP4 PUSH2 0x4F2D JUMP JUMPDEST SWAP2 POP DUP3 PUSH1 0x2 MUL DUP3 OR SWAP1 POP SWAP3 SWAP2 POP POP JUMP JUMPDEST PUSH2 0x4F6E DUP4 DUP4 PUSH2 0x4DC6 JUMP JUMPDEST PUSH8 0xFFFFFFFFFFFFFFFF DUP2 GT ISZERO PUSH2 0x4F87 JUMPI PUSH2 0x4F86 PUSH2 0x3E2C JUMP JUMPDEST JUMPDEST PUSH2 0x4F91 DUP3 SLOAD PUSH2 0x488F JUMP JUMPDEST PUSH2 0x4F9C DUP3 DUP3 DUP6 PUSH2 0x4EDB JUMP JUMPDEST PUSH0 PUSH1 0x1F DUP4 GT PUSH1 0x1 DUP2 EQ PUSH2 0x4FC9 JUMPI PUSH0 DUP5 ISZERO PUSH2 0x4FB7 JUMPI DUP3 DUP8 ADD CALLDATALOAD SWAP1 POP JUMPDEST PUSH2 0x4FC1 DUP6 DUP3 PUSH2 0x4F49 JUMP JUMPDEST DUP7 SSTORE POP PUSH2 0x5028 JUMP JUMPDEST PUSH1 0x1F NOT DUP5 AND PUSH2 0x4FD7 DUP7 PUSH2 0x4DD0 JUMP JUMPDEST PUSH0 JUMPDEST DUP3 DUP2 LT ISZERO PUSH2 0x4FFE JUMPI DUP5 DUP10 ADD CALLDATALOAD DUP3 SSTORE PUSH1 0x1 DUP3 ADD SWAP2 POP PUSH1 0x20 DUP6 ADD SWAP5 POP PUSH1 0x20 DUP2 ADD SWAP1 POP PUSH2 0x4FD9 JUMP JUMPDEST DUP7 DUP4 LT ISZERO PUSH2 0x501B JUMPI DUP5 DUP10 ADD CALLDATALOAD PUSH2 0x5017 PUSH1 0x1F DUP10 AND DUP3 PUSH2 0x4F2D JUMP JUMPDEST DUP4 SSTORE POP JUMPDEST PUSH1 0x1 PUSH1 0x2 DUP9 MUL ADD DUP9 SSTORE POP POP POP JUMPDEST POP POP POP POP POP POP POP JUMP JUMPDEST PUSH32 0x455243313135353A204D69736D617463686564206172726179206C656E677468 PUSH0 DUP3 ADD MSTORE PUSH32 0x7300000000000000000000000000000000000000000000000000000000000000 PUSH1 0x20 DUP3 ADD MSTORE POP JUMP JUMPDEST PUSH0 PUSH2 0x508B PUSH1 0x21 DUP4 PUSH2 0x3BCC JUMP JUMPDEST SWAP2 POP PUSH2 0x5096 DUP3 PUSH2 0x5031 JUMP JUMPDEST PUSH1 0x40 DUP3 ADD SWAP1 POP SWAP2 SWAP1 POP JUMP JUMPDEST PUSH0 PUSH1 0x20 DUP3 ADD SWAP1 POP DUP2 DUP2 SUB PUSH0 DUP4 ADD MSTORE PUSH2 0x50B8 DUP2 PUSH2 0x507F JUMP JUMPDEST SWAP1 POP SWAP2 SWAP1 POP JUMP JUMPDEST PUSH32 0x455243313135353A207472616E7366657220746F20746865207A65726F206164 PUSH0 DUP3 ADD MSTORE PUSH32 0x6472657373000000000000000000000000000000000000000000000000000000 PUSH1 0x20 DUP3 ADD MSTORE POP JUMP JUMPDEST PUSH0 PUSH2 0x5119 PUSH1 0x25 DUP4 PUSH2 0x3BCC JUMP JUMPDEST SWAP2 POP PUSH2 0x5124 DUP3 PUSH2 0x50BF JUMP JUMPDEST PUSH1 0x40 DUP3 ADD SWAP1 POP SWAP2 SWAP1 POP JUMP JUMPDEST PUSH0 PUSH1 0x20 DUP3 ADD SWAP1 POP DUP2 DUP2 SUB PUSH0 DUP4 ADD MSTORE PUSH2 0x5146 DUP2 PUSH2 0x510D JUMP JUMPDEST SWAP1 POP SWAP2 SWAP1 POP JUMP JUMPDEST PUSH0 PUSH1 0x40 DUP3 ADD SWAP1 POP PUSH2 0x5160 PUSH0 DUP4 ADD DUP6 PUSH2 0x3827 JUMP JUMPDEST PUSH2 0x516D PUSH1 0x20 DUP4 ADD DUP5 PUSH2 0x3827 JUMP JUMPDEST SWAP4 SWAP3 POP POP POP JUMP JUMPDEST PUSH32 0x43616C6C6572206973206E6F7420616E2061646D696E00000000000000000000 PUSH0 DUP3 ADD MSTORE POP JUMP JUMPDEST PUSH0 PUSH2 0x51A8 PUSH1 0x16 DUP4 PUSH2 0x3BCC JUMP JUMPDEST SWAP2 POP PUSH2 0x51B3 DUP3 PUSH2 0x5174 JUMP JUMPDEST PUSH1 0x20 DUP3 ADD SWAP1 POP SWAP2 SWAP1 POP JUMP JUMPDEST PUSH0 PUSH1 0x20 DUP3 ADD SWAP1 POP DUP2 DUP2 SUB PUSH0 DUP4 ADD MSTORE PUSH2 0x51D5 DUP2 PUSH2 0x519C JUMP JUMPDEST SWAP1 POP SWAP2 SWAP1 POP JUMP JUMPDEST PUSH32 0x746F6B656E20696420646F6573206E6F74206578697374000000000000000000 PUSH0 DUP3 ADD MSTORE POP JUMP JUMPDEST PUSH0 PUSH2 0x5210 PUSH1 0x17 DUP4 PUSH2 0x3BCC JUMP JUMPDEST SWAP2 POP PUSH2 0x521B DUP3 PUSH2 0x51DC JUMP JUMPDEST PUSH1 0x20 DUP3 ADD SWAP1 POP SWAP2 SWAP1 POP JUMP JUMPDEST PUSH0 PUSH1 0x20 DUP3 ADD SWAP1 POP DUP2 DUP2 SUB PUSH0 DUP4 ADD MSTORE PUSH2 0x523D DUP2 PUSH2 0x5204 JUMP JUMPDEST SWAP1 POP SWAP2 SWAP1 POP JUMP JUMPDEST PUSH32 0x50726F6F66207265717565737420646F6573206E6F7420657869737400000000 PUSH0 DUP3 ADD MSTORE POP JUMP JUMPDEST PUSH0 PUSH2 0x5278 PUSH1 0x1C DUP4 PUSH2 0x3BCC JUMP JUMPDEST SWAP2 POP PUSH2 0x5283 DUP3 PUSH2 0x5244 JUMP JUMPDEST PUSH1 0x20 DUP3 ADD SWAP1 POP SWAP2 SWAP1 POP JUMP JUMPDEST PUSH0 PUSH1 0x20 DUP3 ADD SWAP1 POP DUP2 DUP2 SUB PUSH0 DUP4 ADD MSTORE PUSH2 0x52A5 DUP2 PUSH2 0x526C JUMP JUMPDEST SWAP1 POP SWAP2 SWAP1 POP JUMP JUMPDEST PUSH32 0x496E76616C696420616464726573730000000000000000000000000000000000 PUSH0 DUP3 ADD MSTORE POP JUMP JUMPDEST PUSH0 PUSH2 0x52E0 PUSH1 0xF DUP4 PUSH2 0x3BCC JUMP JUMPDEST SWAP2 POP PUSH2 0x52EB DUP3 PUSH2 0x52AC JUMP JUMPDEST PUSH1 0x20 DUP3 ADD SWAP1 POP SWAP2 SWAP1 POP JUMP JUMPDEST PUSH0 PUSH1 0x20 DUP3 ADD SWAP1 POP DUP2 DUP2 SUB PUSH0 DUP4 ADD MSTORE PUSH2 0x530D DUP2 PUSH2 0x52D4 JUMP JUMPDEST SWAP1 POP SWAP2 SWAP1 POP JUMP JUMPDEST PUSH32 0x4164647265737320697320616C726561647920616E2061646D696E0000000000 PUSH0 DUP3 ADD MSTORE POP JUMP JUMPDEST PUSH0 PUSH2 0x5348 PUSH1 0x1B DUP4 PUSH2 0x3BCC JUMP JUMPDEST SWAP2 POP PUSH2 0x5353 DUP3 PUSH2 0x5314 JUMP JUMPDEST PUSH1 0x20 DUP3 ADD SWAP1 POP SWAP2 SWAP1 POP JUMP JUMPDEST PUSH0 PUSH1 0x20 DUP3 ADD SWAP1 POP DUP2 DUP2 SUB PUSH0 DUP4 ADD MSTORE PUSH2 0x5375 DUP2 PUSH2 0x533C JUMP JUMPDEST SWAP1 POP SWAP2 SWAP1 POP JUMP JUMPDEST PUSH0 PUSH2 0x5386 DUP3 PUSH2 0x3C89 JUMP JUMPDEST SWAP1 POP SWAP2 SWAP1 POP JUMP JUMPDEST PUSH2 0x5396 DUP2 PUSH2 0x537C JUMP JUMPDEST DUP3 MSTORE POP POP JUMP JUMPDEST PUSH0 DUP2 MLOAD SWAP1 POP SWAP2 SWAP1 POP JUMP JUMPDEST PUSH0 DUP3 DUP3 MSTORE PUSH1 0x20 DUP3 ADD SWAP1 POP SWAP3 SWAP2 POP POP JUMP JUMPDEST PUSH0 PUSH2 0x53C0 DUP3 PUSH2 0x539C JUMP JUMPDEST PUSH2 0x53CA DUP2 DUP6 PUSH2 0x53A6 JUMP JUMPDEST SWAP4 POP PUSH2 0x53DA DUP2 DUP6 PUSH1 0x20 DUP7 ADD PUSH2 0x3987 JUMP JUMPDEST PUSH2 0x53E3 DUP2 PUSH2 0x39AF JUMP JUMPDEST DUP5 ADD SWAP2 POP POP SWAP3 SWAP2 POP POP JUMP JUMPDEST PUSH0 PUSH1 0x60 DUP4 ADD PUSH0 DUP4 ADD MLOAD DUP5 DUP3 SUB PUSH0 DUP7 ADD MSTORE PUSH2 0x5408 DUP3 DUP3 PUSH2 0x39BF JUMP JUMPDEST SWAP2 POP POP PUSH1 0x20 DUP4 ADD MLOAD PUSH2 0x541D PUSH1 0x20 DUP7 ADD DUP3 PUSH2 0x538D JUMP JUMPDEST POP PUSH1 0x40 DUP4 ADD MLOAD DUP5 DUP3 SUB PUSH1 0x40 DUP7 ADD MSTORE PUSH2 0x5435 DUP3 DUP3 PUSH2 0x53B6 JUMP JUMPDEST SWAP2 POP POP DUP1 SWAP2 POP POP SWAP3 SWAP2 POP POP JUMP JUMPDEST PUSH0 PUSH1 0x40 DUP3 ADD SWAP1 POP PUSH2 0x5455 PUSH0 DUP4 ADD DUP6 PUSH2 0x46EC JUMP JUMPDEST DUP2 DUP2 SUB PUSH1 0x20 DUP4 ADD MSTORE PUSH2 0x5467 DUP2 DUP5 PUSH2 0x53EE JUMP JUMPDEST SWAP1 POP SWAP4 SWAP3 POP POP POP JUMP JUMPDEST PUSH0 DUP1 REVERT JUMPDEST PUSH0 DUP1 REVERT JUMPDEST PUSH0 DUP1 REVERT JUMPDEST PUSH0 DUP1 DUP4 CALLDATALOAD PUSH1 0x1 PUSH1 0x20 SUB DUP5 CALLDATASIZE SUB SUB DUP2 SLT PUSH2 0x5498 JUMPI PUSH2 0x5497 PUSH2 0x5470 JUMP JUMPDEST JUMPDEST DUP1 DUP5 ADD SWAP3 POP DUP3 CALLDATALOAD SWAP2 POP PUSH8 0xFFFFFFFFFFFFFFFF DUP3 GT ISZERO PUSH2 0x54BA JUMPI PUSH2 0x54B9 PUSH2 0x5474 JUMP JUMPDEST JUMPDEST PUSH1 0x20 DUP4 ADD SWAP3 POP PUSH1 0x1 DUP3 MUL CALLDATASIZE SUB DUP4 SGT ISZERO PUSH2 0x54D6 JUMPI PUSH2 0x54D5 PUSH2 0x5478 JUMP JUMPDEST JUMPDEST POP SWAP3 POP SWAP3 SWAP1 POP JUMP JUMPDEST PUSH2 0x54E7 DUP3 PUSH2 0x396D JUMP JUMPDEST PUSH8 0xFFFFFFFFFFFFFFFF DUP2 GT ISZERO PUSH2 0x5500 JUMPI PUSH2 0x54FF PUSH2 0x3E2C JUMP JUMPDEST JUMPDEST PUSH2 0x550A DUP3 SLOAD PUSH2 0x488F JUMP JUMPDEST PUSH2 0x5515 DUP3 DUP3 DUP6 PUSH2 0x4EDB JUMP JUMPDEST PUSH0 PUSH1 0x20 SWAP1 POP PUSH1 0x1F DUP4 GT PUSH1 0x1 DUP2 EQ PUSH2 0x5546 JUMPI PUSH0 DUP5 ISZERO PUSH2 0x5534 JUMPI DUP3 DUP8 ADD MLOAD SWAP1 POP JUMPDEST PUSH2 0x553E DUP6 DUP3 PUSH2 0x4F49 JUMP JUMPDEST DUP7 SSTORE POP PUSH2 0x55A5 JUMP JUMPDEST PUSH1 0x1F NOT DUP5 AND PUSH2 0x5554 DUP7 PUSH2 0x4DD0 JUMP JUMPDEST PUSH0 JUMPDEST DUP3 DUP2 LT ISZERO PUSH2 0x557B JUMPI DUP5 DUP10 ADD MLOAD DUP3 SSTORE PUSH1 0x1 DUP3 ADD SWAP2 POP PUSH1 0x20 DUP6 ADD SWAP5 POP PUSH1 0x20 DUP2 ADD SWAP1 POP PUSH2 0x5556 JUMP JUMPDEST DUP7 DUP4 LT ISZERO PUSH2 0x5598 JUMPI DUP5 DUP10 ADD MLOAD PUSH2 0x5594 PUSH1 0x1F DUP10 AND DUP3 PUSH2 0x4F2D JUMP JUMPDEST DUP4 SSTORE POP JUMPDEST PUSH1 0x1 PUSH1 0x2 DUP9 MUL ADD DUP9 SSTORE POP POP POP JUMPDEST POP POP POP POP POP POP JUMP JUMPDEST PUSH32 0x50726F6F66207265717565737420616C72656164792065786973747300000000 PUSH0 DUP3 ADD MSTORE POP JUMP JUMPDEST PUSH0 PUSH2 0x55E1 PUSH1 0x1C DUP4 PUSH2 0x3BCC JUMP JUMPDEST SWAP2 POP PUSH2 0x55EC DUP3 PUSH2 0x55AD JUMP JUMPDEST PUSH1 0x20 DUP3 ADD SWAP1 POP SWAP2 SWAP1 POP JUMP JUMPDEST PUSH0 PUSH1 0x20 DUP3 ADD SWAP1 POP DUP2 DUP2 SUB PUSH0 DUP4 ADD MSTORE PUSH2 0x560E DUP2 PUSH2 0x55D5 JUMP JUMPDEST SWAP1 POP SWAP2 SWAP1 POP JUMP JUMPDEST PUSH32 0x526F6C65206D757374206265202773656E64657227206F722027726563656976 PUSH0 DUP3 ADD MSTORE PUSH32 0x6572270000000000000000000000000000000000000000000000000000000000 PUSH1 0x20 DUP3 ADD MSTORE POP JUMP JUMPDEST PUSH0 PUSH2 0x566F PUSH1 0x23 DUP4 PUSH2 0x3BCC JUMP JUMPDEST SWAP2 POP PUSH2 0x567A DUP3 PUSH2 0x5615 JUMP JUMPDEST PUSH1 0x40 DUP3 ADD SWAP1 POP SWAP2 SWAP1 POP JUMP JUMPDEST PUSH0 PUSH1 0x20 DUP3 ADD SWAP1 POP DUP2 DUP2 SUB PUSH0 DUP4 ADD MSTORE PUSH2 0x569C DUP2 PUSH2 0x5663 JUMP JUMPDEST SWAP1 POP SWAP2 SWAP1 POP JUMP JUMPDEST PUSH0 PUSH1 0x40 DUP3 ADD SWAP1 POP PUSH2 0x56B6 PUSH0 DUP4 ADD DUP6 PUSH2 0x45A1 JUMP JUMPDEST PUSH2 0x56C3 PUSH1 0x20 DUP4 ADD DUP5 PUSH2 0x46EC JUMP JUMPDEST SWAP4 SWAP3 POP POP POP JUMP JUMPDEST PUSH0 DUP1 REVERT JUMPDEST PUSH0 DUP1 REVERT JUMPDEST PUSH0 DUP2 MLOAD SWAP1 POP PUSH2 0x56E0 DUP2 PUSH2 0x4613 JUMP JUMPDEST SWAP3 SWAP2 POP POP JUMP JUMPDEST PUSH0 PUSH8 0xFFFFFFFFFFFFFFFF DUP3 GT ISZERO PUSH2 0x5700 JUMPI PUSH2 0x56FF PUSH2 0x3E2C JUMP JUMPDEST JUMPDEST PUSH2 0x5709 DUP3 PUSH2 0x39AF JUMP JUMPDEST SWAP1 POP PUSH1 0x20 DUP2 ADD SWAP1 POP SWAP2 SWAP1 POP JUMP JUMPDEST PUSH0 PUSH2 0x5728 PUSH2 0x5723 DUP5 PUSH2 0x56E6 JUMP JUMPDEST PUSH2 0x3E8A JUMP JUMPDEST SWAP1 POP DUP3 DUP2 MSTORE PUSH1 0x20 DUP2 ADD DUP5 DUP5 DUP5 ADD GT ISZERO PUSH2 0x5744 JUMPI PUSH2 0x5743 PUSH2 0x3F64 JUMP JUMPDEST JUMPDEST PUSH2 0x574F DUP5 DUP3 DUP6 PUSH2 0x3987 JUMP JUMPDEST POP SWAP4 SWAP3 POP POP POP JUMP JUMPDEST PUSH0 DUP3 PUSH1 0x1F DUP4 ADD SLT PUSH2 0x576B JUMPI PUSH2 0x576A PUSH2 0x3CD3 JUMP JUMPDEST JUMPDEST DUP2 MLOAD PUSH2 0x577B DUP5 DUP3 PUSH1 0x20 DUP7 ADD PUSH2 0x5716 JUMP JUMPDEST SWAP2 POP POP SWAP3 SWAP2 POP POP JUMP JUMPDEST PUSH0 DUP2 MLOAD SWAP1 POP PUSH2 0x5792 DUP2 PUSH2 0x37BF JUMP JUMPDEST SWAP3 SWAP2 POP POP JUMP JUMPDEST PUSH0 PUSH1 0x80 DUP3 DUP5 SUB SLT ISZERO PUSH2 0x57AD JUMPI PUSH2 0x57AC PUSH2 0x56CA JUMP JUMPDEST JUMPDEST PUSH2 0x57B7 PUSH1 0x80 PUSH2 0x3E8A JUMP JUMPDEST SWAP1 POP PUSH0 PUSH2 0x57C6 DUP5 DUP3 DUP6 ADD PUSH2 0x56D2 JUMP JUMPDEST PUSH0 DUP4 ADD MSTORE POP PUSH1 0x20 DUP3 ADD MLOAD PUSH8 0xFFFFFFFFFFFFFFFF DUP2 GT ISZERO PUSH2 0x57E9 JUMPI PUSH2 0x57E8 PUSH2 0x56CE JUMP JUMPDEST JUMPDEST PUSH2 0x57F5 DUP5 DUP3 DUP6 ADD PUSH2 0x5757 JUMP JUMPDEST PUSH1 0x20 DUP4 ADD MSTORE POP PUSH1 0x40 PUSH2 0x5809 DUP5 DUP3 DUP6 ADD PUSH2 0x5784 JUMP JUMPDEST PUSH1 0x40 DUP4 ADD MSTORE POP PUSH1 0x60 PUSH2 0x581D DUP5 DUP3 DUP6 ADD PUSH2 0x5784 JUMP JUMPDEST PUSH1 0x60 DUP4 ADD MSTORE POP SWAP3 SWAP2 POP POP JUMP JUMPDEST PUSH0 PUSH1 0x20 DUP3 DUP5 SUB SLT ISZERO PUSH2 0x583E JUMPI PUSH2 0x583D PUSH2 0x3754 JUMP JUMPDEST JUMPDEST PUSH0 DUP3 ADD MLOAD PUSH8 0xFFFFFFFFFFFFFFFF DUP2 GT ISZERO PUSH2 0x585B JUMPI PUSH2 0x585A PUSH2 0x3758 JUMP JUMPDEST JUMPDEST PUSH2 0x5867 DUP5 DUP3 DUP6 ADD PUSH2 0x5798 JUMP JUMPDEST SWAP2 POP POP SWAP3 SWAP2 POP POP JUMP JUMPDEST PUSH0 PUSH1 0x40 DUP3 ADD SWAP1 POP PUSH2 0x5883 PUSH0 DUP4 ADD DUP6 PUSH2 0x46EC JUMP JUMPDEST PUSH2 0x5890 PUSH1 0x20 DUP4 ADD DUP5 PUSH2 0x45A1 JUMP JUMPDEST SWAP4 SWAP3 POP POP POP JUMP JUMPDEST PUSH0 PUSH1 0x40 DUP3 ADD SWAP1 POP PUSH2 0x58AA PUSH0 DUP4 ADD DUP6 PUSH2 0x45A1 JUMP JUMPDEST PUSH2 0x58B7 PUSH1 0x20 DUP4 ADD DUP5 PUSH2 0x45A1 JUMP JUMPDEST SWAP4 SWAP3 POP POP POP JUMP JUMPDEST PUSH0 PUSH1 0x80 DUP3 ADD SWAP1 POP PUSH2 0x58D1 PUSH0 DUP4 ADD DUP8 PUSH2 0x45A1 JUMP JUMPDEST PUSH2 0x58DE PUSH1 0x20 DUP4 ADD DUP7 PUSH2 0x3827 JUMP JUMPDEST PUSH2 0x58EB PUSH1 0x40 DUP4 ADD DUP6 PUSH2 0x3827 JUMP JUMPDEST PUSH2 0x58F8 PUSH1 0x60 DUP4 ADD DUP5 PUSH2 0x3827 JUMP JUMPDEST SWAP6 SWAP5 POP POP POP POP POP JUMP JUMPDEST PUSH0 PUSH1 0x40 DUP3 ADD SWAP1 POP DUP2 DUP2 SUB PUSH0 DUP4 ADD MSTORE PUSH2 0x5919 DUP2 DUP6 PUSH2 0x43AF JUMP JUMPDEST SWAP1 POP DUP2 DUP2 SUB PUSH1 0x20 DUP4 ADD MSTORE PUSH2 0x592D DUP2 DUP5 PUSH2 0x43AF JUMP JUMPDEST SWAP1 POP SWAP4 SWAP3 POP POP POP JUMP JUMPDEST PUSH0 DUP3 DUP3 MSTORE PUSH1 0x20 DUP3 ADD SWAP1 POP SWAP3 SWAP2 POP POP JUMP JUMPDEST PUSH0 PUSH2 0x5950 DUP3 PUSH2 0x539C JUMP JUMPDEST PUSH2 0x595A DUP2 DUP6 PUSH2 0x5936 JUMP JUMPDEST SWAP4 POP PUSH2 0x596A DUP2 DUP6 PUSH1 0x20 DUP7 ADD PUSH2 0x3987 JUMP JUMPDEST PUSH2 0x5973 DUP2 PUSH2 0x39AF JUMP JUMPDEST DUP5 ADD SWAP2 POP POP SWAP3 SWAP2 POP POP JUMP JUMPDEST PUSH0 PUSH1 0xA0 DUP3 ADD SWAP1 POP PUSH2 0x5991 PUSH0 DUP4 ADD DUP9 PUSH2 0x45A1 JUMP JUMPDEST PUSH2 0x599E PUSH1 0x20 DUP4 ADD DUP8 PUSH2 0x45A1 JUMP JUMPDEST PUSH2 0x59AB PUSH1 0x40 DUP4 ADD DUP7 PUSH2 0x3827 JUMP JUMPDEST PUSH2 0x59B8 PUSH1 0x60 DUP4 ADD DUP6 PUSH2 0x3827 JUMP JUMPDEST DUP2 DUP2 SUB PUSH1 0x80 DUP4 ADD MSTORE PUSH2 0x59CA DUP2 DUP5 PUSH2 0x5946 JUMP JUMPDEST SWAP1 POP SWAP7 SWAP6 POP POP POP POP POP POP JUMP JUMPDEST PUSH0 DUP2 MLOAD SWAP1 POP PUSH2 0x59E4 DUP2 PUSH2 0x3B44 JUMP JUMPDEST SWAP3 SWAP2 POP POP JUMP JUMPDEST PUSH0 PUSH1 0x20 DUP3 DUP5 SUB SLT ISZERO PUSH2 0x59FF JUMPI PUSH2 0x59FE PUSH2 0x3754 JUMP JUMPDEST JUMPDEST PUSH0 PUSH2 0x5A0C DUP5 DUP3 DUP6 ADD PUSH2 0x59D6 JUMP JUMPDEST SWAP2 POP POP SWAP3 SWAP2 POP POP JUMP JUMPDEST PUSH0 PUSH1 0xA0 DUP3 ADD SWAP1 POP PUSH2 0x5A28 PUSH0 DUP4 ADD DUP9 PUSH2 0x45A1 JUMP JUMPDEST PUSH2 0x5A35 PUSH1 0x20 DUP4 ADD DUP8 PUSH2 0x45A1 JUMP JUMPDEST DUP2 DUP2 SUB PUSH1 0x40 DUP4 ADD MSTORE PUSH2 0x5A47 DUP2 DUP7 PUSH2 0x43AF JUMP JUMPDEST SWAP1 POP DUP2 DUP2 SUB PUSH1 0x60 DUP4 ADD MSTORE PUSH2 0x5A5B DUP2 DUP6 PUSH2 0x43AF JUMP JUMPDEST SWAP1 POP DUP2 DUP2 SUB PUSH1 0x80 DUP4 ADD MSTORE PUSH2 0x5A6F DUP2 DUP5 PUSH2 0x5946 JUMP JUMPDEST SWAP1 POP SWAP7 SWAP6 POP POP POP POP POP POP JUMP INVALID LOG2 PUSH5 0x6970667358 0x22 SLT KECCAK256 MSIZE 0xD7 BALANCE 0xE5 JUMP PUSH4 0x530D097B 0xF7 0x21 MSTORE8 PUSH10 0xBCB00619ADD82DFFD69E DUP5 0x4C SELFDESTRUCT 0xD1 PUSH6 0xB0E8C064736F PUSH13 0x63430008140033000000000000 "
	},
	"abi": [
		{
			"inputs": [
				{
					"internalType": "address",
					"name": "sender",
					"type": "address"
				},
				{
					"internalType": "uint256",
					"name": "balance",
					"type": "uint256"
				},
				{
					"internalType": "uint256",
					"name": "needed",
					"type": "uint256"
				},
				{
					"internalType": "uint256",
					"name": "tokenId",
					"type": "uint256"
				}
			],
			"name": "ERC1155InsufficientBalance",
			"type": "error"
		},
		{
			"inputs": [
				{
					"internalType": "address",
					"name": "approver",
					"type": "address"
				}
			],
			"name": "ERC1155InvalidApprover",
			"type": "error"
		},
		{
			"inputs": [
				{
					"internalType": "uint256",
					"name": "idsLength",
					"type": "uint256"
				},
				{
					"internalType": "uint256",
					"name": "valuesLength",
					"type": "uint256"
				}
			],
			"name": "ERC1155InvalidArrayLength",
			"type": "error"
		},
		{
			"inputs": [
				{
					"internalType": "address",
					"name": "operator",
					"type": "address"
				}
			],
			"name": "ERC1155InvalidOperator",
			"type": "error"
		},
		{
			"inputs": [
				{
					"internalType": "address",
					"name": "receiver",
					"type": "address"
				}
			],
			"name": "ERC1155InvalidReceiver",
			"type": "error"
		},
		{
			"inputs": [
				{
					"internalType": "address",
					"name": "sender",
					"type": "address"
				}
			],
			"name": "ERC1155InvalidSender",
			"type": "error"
		},
		{
			"inputs": [
				{
					"internalType": "address",
					"name": "operator",
					"type": "address"
				},
				{
					"internalType": "address",
					"name": "owner",
					"type": "address"
				}
			],
			"name": "ERC1155MissingApprovalForAll",
			"type": "error"
		},
		{
			"inputs": [
				{
					"internalType": "address",
					"name": "owner",
					"type": "address"
				}
			],
			"name": "OwnableInvalidOwner",
			"type": "error"
		},
		{
			"inputs": [
				{
					"internalType": "address",
					"name": "account",
					"type": "address"
				}
			],
			"name": "OwnableUnauthorizedAccount",
			"type": "error"
		},
		{
			"inputs": [
				{
					"internalType": "uint64",
					"name": "requestID",
					"type": "uint64"
				},
				{
					"internalType": "address",
					"name": "proverAddress",
					"type": "address"
				}
			],
			"name": "ProofNotVerified",
			"type": "error"
		},
		{
			"inputs": [
				{
					"internalType": "uint256",
					"name": "tokenID",
					"type": "uint256"
				}
			],
			"name": "TokenIDNotFound",
			"type": "error"
		},
		{
			"inputs": [
				{
					"internalType": "uint256",
					"name": "tokenID",
					"type": "uint256"
				}
			],
			"name": "TokenIDTaken",
			"type": "error"
		},
		{
			"anonymous": false,
			"inputs": [
				{
					"indexed": true,
					"internalType": "address",
					"name": "account",
					"type": "address"
				},
				{
					"indexed": true,
					"internalType": "address",
					"name": "operator",
					"type": "address"
				},
				{
					"indexed": false,
					"internalType": "bool",
					"name": "approved",
					"type": "bool"
				}
			],
			"name": "ApprovalForAll",
			"type": "event"
		},
		{
			"anonymous": false,
			"inputs": [
				{
					"indexed": true,
					"internalType": "address",
					"name": "previousOwner",
					"type": "address"
				},
				{
					"indexed": true,
					"internalType": "address",
					"name": "newOwner",
					"type": "address"
				}
			],
			"name": "OwnershipTransferred",
			"type": "event"
		},
		{
			"anonymous": false,
			"inputs": [
				{
					"indexed": true,
					"internalType": "address",
					"name": "operator",
					"type": "address"
				},
				{
					"indexed": true,
					"internalType": "address",
					"name": "from",
					"type": "address"
				},
				{
					"indexed": true,
					"internalType": "address",
					"name": "to",
					"type": "address"
				},
				{
					"indexed": false,
					"internalType": "uint256[]",
					"name": "ids",
					"type": "uint256[]"
				},
				{
					"indexed": false,
					"internalType": "uint256[]",
					"name": "values",
					"type": "uint256[]"
				}
			],
			"name": "TransferBatch",
			"type": "event"
		},
		{
			"anonymous": false,
			"inputs": [
				{
					"indexed": true,
					"internalType": "address",
					"name": "operator",
					"type": "address"
				},
				{
					"indexed": true,
					"internalType": "address",
					"name": "from",
					"type": "address"
				},
				{
					"indexed": true,
					"internalType": "address",
					"name": "to",
					"type": "address"
				},
				{
					"indexed": false,
					"internalType": "uint256",
					"name": "id",
					"type": "uint256"
				},
				{
					"indexed": false,
					"internalType": "uint256",
					"name": "value",
					"type": "uint256"
				}
			],
			"name": "TransferSingle",
			"type": "event"
		},
		{
			"anonymous": false,
			"inputs": [
				{
					"indexed": false,
					"internalType": "string",
					"name": "value",
					"type": "string"
				},
				{
					"indexed": true,
					"internalType": "uint256",
					"name": "id",
					"type": "uint256"
				}
			],
			"name": "URI",
			"type": "event"
		},
		{
			"inputs": [
				{
					"internalType": "address",
					"name": "_admin",
					"type": "address"
				}
			],
			"name": "addAdmin",
			"outputs": [],
			"stateMutability": "nonpayable",
			"type": "function"
		},
		{
			"inputs": [
				{
					"internalType": "uint64",
					"name": "requestId",
					"type": "uint64"
				},
				{
					"internalType": "string",
					"name": "metadata",
					"type": "string"
				},
				{
					"internalType": "contract ICircuitValidator",
					"name": "validator",
					"type": "address"
				},
				{
					"internalType": "bytes",
					"name": "data",
					"type": "bytes"
				},
				{
					"internalType": "uint256",
					"name": "tokenID",
					"type": "uint256"
				},
				{
					"internalType": "string",
					"name": "role",
					"type": "string"
				},
				{
					"components": [
						{
							"internalType": "string",
							"name": "attribute",
							"type": "string"
						},
						{
							"internalType": "string",
							"name": "operatorStr",
							"type": "string"
						},
						{
							"internalType": "string",
							"name": "value",
							"type": "string"
						}
					],
					"internalType": "struct PMUniversalVerifier.SpendingCondition",
					"name": "condition",
					"type": "tuple"
				}
			],
			"name": "addProofRequest_VerifierAndPM",
			"outputs": [],
			"stateMutability": "nonpayable",
			"type": "function"
		},
		{
			"inputs": [
				{
					"internalType": "uint256",
					"name": "tokenID",
					"type": "uint256"
				},
				{
					"internalType": "uint64",
					"name": "requestID",
					"type": "uint64"
				},
				{
					"internalType": "string",
					"name": "role",
					"type": "string"
				}
			],
			"name": "addProofRequestAndRole",
			"outputs": [],
			"stateMutability": "nonpayable",
			"type": "function"
		},
		{
			"inputs": [
				{
					"internalType": "address",
					"name": "account",
					"type": "address"
				},
				{
					"internalType": "uint256",
					"name": "ID",
					"type": "uint256"
				},
				{
					"internalType": "uint256",
					"name": "amount",
					"type": "uint256"
				}
			],
			"name": "burn",
			"outputs": [],
			"stateMutability": "nonpayable",
			"type": "function"
		},
		{
			"inputs": [
				{
					"internalType": "uint256",
					"name": "tokenID",
					"type": "uint256"
				},
				{
					"internalType": "uint64",
					"name": "requestID",
					"type": "uint64"
				}
			],
			"name": "deleteProofRequestAndRole",
			"outputs": [],
			"stateMutability": "nonpayable",
			"type": "function"
		},
		{
			"inputs": [
				{
					"internalType": "address",
					"name": "to",
					"type": "address"
				},
				{
					"internalType": "uint256",
					"name": "amount",
					"type": "uint256"
				},
				{
					"internalType": "bytes",
					"name": "data",
					"type": "bytes"
				},
				{
					"internalType": "string",
					"name": "name",
					"type": "string"
				}
			],
			"name": "mintToken",
			"outputs": [],
			"stateMutability": "nonpayable",
			"type": "function"
		},
		{
			"inputs": [
				{
					"internalType": "address",
					"name": "_admin",
					"type": "address"
				}
			],
			"name": "removeAdmin",
			"outputs": [],
			"stateMutability": "nonpayable",
			"type": "function"
		},
		{
			"inputs": [],
			"name": "renounceOwnership",
			"outputs": [],
			"stateMutability": "nonpayable",
			"type": "function"
		},
		{
			"inputs": [
				{
					"internalType": "address",
					"name": "from",
					"type": "address"
				},
				{
					"internalType": "address",
					"name": "to",
					"type": "address"
				},
				{
					"internalType": "uint256[]",
					"name": "tokenIDs",
					"type": "uint256[]"
				},
				{
					"internalType": "uint256[]",
					"name": "amounts",
					"type": "uint256[]"
				},
				{
					"internalType": "bytes",
					"name": "data",
					"type": "bytes"
				}
			],
			"name": "safeBatchTransferFrom",
			"outputs": [],
			"stateMutability": "nonpayable",
			"type": "function"
		},
		{
			"inputs": [
				{
					"internalType": "address",
					"name": "from",
					"type": "address"
				},
				{
					"internalType": "address",
					"name": "to",
					"type": "address"
				},
				{
					"internalType": "uint256",
					"name": "tokenID",
					"type": "uint256"
				},
				{
					"internalType": "uint256",
					"name": "amount",
					"type": "uint256"
				},
				{
					"internalType": "bytes",
					"name": "data",
					"type": "bytes"
				}
			],
			"name": "safeTransferFrom",
			"outputs": [],
			"stateMutability": "nonpayable",
			"type": "function"
		},
		{
			"inputs": [
				{
					"internalType": "address",
					"name": "operator",
					"type": "address"
				},
				{
					"internalType": "bool",
					"name": "approved",
					"type": "bool"
				}
			],
			"name": "setApprovalForAll",
			"outputs": [],
			"stateMutability": "nonpayable",
			"type": "function"
		},
		{
			"inputs": [
				{
					"internalType": "address",
					"name": "newOwner",
					"type": "address"
				}
			],
			"name": "transferOwnership",
			"outputs": [],
			"stateMutability": "nonpayable",
			"type": "function"
		},
		{
			"inputs": [
				{
					"internalType": "contract UniversalVerifier",
					"name": "verifier_",
					"type": "address"
				},
				{
					"internalType": "address",
					"name": "initialOwner",
					"type": "address"
				},
				{
					"internalType": "string",
					"name": "uri_",
					"type": "string"
				}
			],
			"stateMutability": "nonpayable",
			"type": "constructor"
		},
		{
			"inputs": [],
			"name": "allTokenIDs",
			"outputs": [
				{
					"internalType": "uint256[]",
					"name": "",
					"type": "uint256[]"
				}
			],
			"stateMutability": "view",
			"type": "function"
		},
		{
			"inputs": [
				{
					"internalType": "address",
					"name": "account",
					"type": "address"
				},
				{
					"internalType": "uint256",
					"name": "id",
					"type": "uint256"
				}
			],
			"name": "balanceOf",
			"outputs": [
				{
					"internalType": "uint256",
					"name": "",
					"type": "uint256"
				}
			],
			"stateMutability": "view",
			"type": "function"
		},
		{
			"inputs": [
				{
					"internalType": "address[]",
					"name": "accounts",
					"type": "address[]"
				},
				{
					"internalType": "uint256[]",
					"name": "ids",
					"type": "uint256[]"
				}
			],
			"name": "balanceOfBatch",
			"outputs": [
				{
					"internalType": "uint256[]",
					"name": "",
					"type": "uint256[]"
				}
			],
			"stateMutability": "view",
			"type": "function"
		},
		{
			"inputs": [],
			"name": "fungible_token",
			"outputs": [
				{
					"internalType": "uint256",
					"name": "",
					"type": "uint256"
				}
			],
			"stateMutability": "view",
			"type": "function"
		},
		{
			"inputs": [],
			"name": "getAdmins",
			"outputs": [
				{
					"internalType": "address[]",
					"name": "",
					"type": "address[]"
				}
			],
			"stateMutability": "view",
			"type": "function"
		},
		{
			"inputs": [
				{
					"internalType": "uint256",
					"name": "tokenID",
					"type": "uint256"
				}
			],
			"name": "getSpendingConditions",
			"outputs": [
				{
					"internalType": "uint64[]",
					"name": "",
					"type": "uint64[]"
				},
				{
					"components": [
						{
							"internalType": "string",
							"name": "attribute",
							"type": "string"
						},
						{
							"internalType": "string",
							"name": "operatorStr",
							"type": "string"
						},
						{
							"internalType": "string",
							"name": "value",
							"type": "string"
						}
					],
					"internalType": "struct PMUniversalVerifier.SpendingCondition[]",
					"name": "",
					"type": "tuple[]"
				}
			],
			"stateMutability": "view",
			"type": "function"
		},
		{
			"inputs": [
				{
					"internalType": "address",
					"name": "account",
					"type": "address"
				},
				{
					"internalType": "address",
					"name": "operator",
					"type": "address"
				}
			],
			"name": "isApprovedForAll",
			"outputs": [
				{
					"internalType": "bool",
					"name": "",
					"type": "bool"
				}
			],
			"stateMutability": "view",
			"type": "function"
		},
		{
			"inputs": [],
			"name": "non_fungible_token",
			"outputs": [
				{
					"internalType": "uint256",
					"name": "",
					"type": "uint256"
				}
			],
			"stateMutability": "view",
			"type": "function"
		},
		{
			"inputs": [],
			"name": "owner",
			"outputs": [
				{
					"internalType": "address",
					"name": "",
					"type": "address"
				}
			],
			"stateMutability": "view",
			"type": "function"
		},
		{
			"inputs": [
				{
					"internalType": "uint256",
					"name": "",
					"type": "uint256"
				}
			],
			"name": "proofRequestIDs",
			"outputs": [
				{
					"internalType": "uint64",
					"name": "",
					"type": "uint64"
				}
			],
			"stateMutability": "view",
			"type": "function"
		},
		{
			"inputs": [
				{
					"internalType": "uint256",
					"name": "",
					"type": "uint256"
				},
				{
					"internalType": "uint64",
					"name": "",
					"type": "uint64"
				}
			],
			"name": "spendingConditions",
			"outputs": [
				{
					"internalType": "string",
					"name": "attribute",
					"type": "string"
				},
				{
					"internalType": "string",
					"name": "operatorStr",
					"type": "string"
				},
				{
					"internalType": "string",
					"name": "value",
					"type": "string"
				}
			],
			"stateMutability": "view",
			"type": "function"
		},
		{
			"inputs": [
				{
					"internalType": "bytes4",
					"name": "interfaceId",
					"type": "bytes4"
				}
			],
			"name": "supportsInterface",
			"outputs": [
				{
					"internalType": "bool",
					"name": "",
					"type": "bool"
				}
			],
			"stateMutability": "view",
			"type": "function"
		},
		{
			"inputs": [
				{
					"internalType": "uint256",
					"name": "",
					"type": "uint256"
				},
				{
					"internalType": "uint64",
					"name": "",
					"type": "uint64"
				}
			],
			"name": "tokenID_proofRequest_role",
			"outputs": [
				{
					"internalType": "string",
					"name": "",
					"type": "string"
				}
			],
			"stateMutability": "view",
			"type": "function"
		},
		{
			"inputs": [
				{
					"internalType": "uint256",
					"name": "",
					"type": "uint256"
				}
			],
			"name": "tokenName",
			"outputs": [
				{
					"internalType": "string",
					"name": "",
					"type": "string"
				}
			],
			"stateMutability": "view",
			"type": "function"
		},
		{
			"inputs": [
				{
					"internalType": "uint256",
					"name": "",
					"type": "uint256"
				}
			],
			"name": "uri",
			"outputs": [
				{
					"internalType": "string",
					"name": "",
					"type": "string"
				}
			],
			"stateMutability": "view",
			"type": "function"
		},
		{
			"inputs": [],
			"name": "verifier",
			"outputs": [
				{
					"internalType": "contract UniversalVerifier",
					"name": "",
					"type": "address"
				}
			],
			"stateMutability": "view",
			"type": "function"
		}
	],
	"storageLayout": {
		"storage": [
			{
				"astId": 3430,
				"contract": "PMUniversalVerifier.sol:PMUniversalVerifier",
				"label": "_balances",
				"offset": 0,
				"slot": "0",
				"type": "t_mapping(t_uint256,t_mapping(t_address,t_uint256))"
			},
			{
				"astId": 3436,
				"contract": "PMUniversalVerifier.sol:PMUniversalVerifier",
				"label": "_operatorApprovals",
				"offset": 0,
				"slot": "1",
				"type": "t_mapping(t_address,t_mapping(t_address,t_bool))"
			},
			{
				"astId": 3438,
				"contract": "PMUniversalVerifier.sol:PMUniversalVerifier",
				"label": "_uri",
				"offset": 0,
				"slot": "2",
				"type": "t_string_storage"
			},
			{
				"astId": 3112,
				"contract": "PMUniversalVerifier.sol:PMUniversalVerifier",
				"label": "_owner",
				"offset": 0,
				"slot": "3",
				"type": "t_address"
			},
			{
				"astId": 10028,
				"contract": "PMUniversalVerifier.sol:PMUniversalVerifier",
				"label": "admins",
				"offset": 0,
				"slot": "4",
				"type": "t_array(t_address)dyn_storage"
			},
			{
				"astId": 10174,
				"contract": "PMUniversalVerifier.sol:PMUniversalVerifier",
				"label": "_allTokenIDs",
				"offset": 0,
				"slot": "5",
				"type": "t_struct(UintSet)9862_storage"
			},
			{
				"astId": 10190,
				"contract": "PMUniversalVerifier.sol:PMUniversalVerifier",
				"label": "tokenName",
				"offset": 0,
				"slot": "7",
				"type": "t_mapping(t_uint256,t_string_storage)"
			},
			{
				"astId": 10196,
				"contract": "PMUniversalVerifier.sol:PMUniversalVerifier",
				"label": "tokenID_proofRequest_role",
				"offset": 0,
				"slot": "8",
				"type": "t_mapping(t_uint256,t_mapping(t_uint64,t_string_storage))"
			},
			{
				"astId": 10210,
				"contract": "PMUniversalVerifier.sol:PMUniversalVerifier",
				"label": "spendingConditions",
				"offset": 0,
				"slot": "9",
				"type": "t_mapping(t_uint256,t_mapping(t_uint64,t_struct(SpendingCondition)10203_storage))"
			},
			{
				"astId": 10213,
				"contract": "PMUniversalVerifier.sol:PMUniversalVerifier",
				"label": "proofRequestIDs",
				"offset": 0,
				"slot": "10",
				"type": "t_array(t_uint64)dyn_storage"
			},
			{
				"astId": 10586,
				"contract": "PMUniversalVerifier.sol:PMUniversalVerifier",
				"label": "verifier",
				"offset": 0,
				"slot": "11",
				"type": "t_contract(UniversalVerifier)1554"
			}
		],
		"types": {
			"t_address": {
				"encoding": "inplace",
				"label": "address",
				"numberOfBytes": "20"
			},
			"t_array(t_address)dyn_storage": {
				"base": "t_address",
				"encoding": "dynamic_array",
				"label": "address[]",
				"numberOfBytes": "32"
			},
			"t_array(t_bytes32)dyn_storage": {
				"base": "t_bytes32",
				"encoding": "dynamic_array",
				"label": "bytes32[]",
				"numberOfBytes": "32"
			},
			"t_array(t_uint64)dyn_storage": {
				"base": "t_uint64",
				"encoding": "dynamic_array",
				"label": "uint64[]",
				"numberOfBytes": "32"
			},
			"t_bool": {
				"encoding": "inplace",
				"label": "bool",
				"numberOfBytes": "1"
			},
			"t_bytes32": {
				"encoding": "inplace",
				"label": "bytes32",
				"numberOfBytes": "32"
			},
			"t_contract(UniversalVerifier)1554": {
				"encoding": "inplace",
				"label": "contract UniversalVerifier",
				"numberOfBytes": "20"
			},
			"t_mapping(t_address,t_bool)": {
				"encoding": "mapping",
				"key": "t_address",
				"label": "mapping(address => bool)",
				"numberOfBytes": "32",
				"value": "t_bool"
			},
			"t_mapping(t_address,t_mapping(t_address,t_bool))": {
				"encoding": "mapping",
				"key": "t_address",
				"label": "mapping(address => mapping(address => bool))",
				"numberOfBytes": "32",
				"value": "t_mapping(t_address,t_bool)"
			},
			"t_mapping(t_address,t_uint256)": {
				"encoding": "mapping",
				"key": "t_address",
				"label": "mapping(address => uint256)",
				"numberOfBytes": "32",
				"value": "t_uint256"
			},
			"t_mapping(t_bytes32,t_uint256)": {
				"encoding": "mapping",
				"key": "t_bytes32",
				"label": "mapping(bytes32 => uint256)",
				"numberOfBytes": "32",
				"value": "t_uint256"
			},
			"t_mapping(t_uint256,t_mapping(t_address,t_uint256))": {
				"encoding": "mapping",
				"key": "t_uint256",
				"label": "mapping(uint256 => mapping(address => uint256))",
				"numberOfBytes": "32",
				"value": "t_mapping(t_address,t_uint256)"
			},
			"t_mapping(t_uint256,t_mapping(t_uint64,t_string_storage))": {
				"encoding": "mapping",
				"key": "t_uint256",
				"label": "mapping(uint256 => mapping(uint64 => string))",
				"numberOfBytes": "32",
				"value": "t_mapping(t_uint64,t_string_storage)"
			},
			"t_mapping(t_uint256,t_mapping(t_uint64,t_struct(SpendingCondition)10203_storage))": {
				"encoding": "mapping",
				"key": "t_uint256",
				"label": "mapping(uint256 => mapping(uint64 => struct PMUniversalVerifier.SpendingCondition))",
				"numberOfBytes": "32",
				"value": "t_mapping(t_uint64,t_struct(SpendingCondition)10203_storage)"
			},
			"t_mapping(t_uint256,t_string_storage)": {
				"encoding": "mapping",
				"key": "t_uint256",
				"label": "mapping(uint256 => string)",
				"numberOfBytes": "32",
				"value": "t_string_storage"
			},
			"t_mapping(t_uint64,t_string_storage)": {
				"encoding": "mapping",
				"key": "t_uint64",
				"label": "mapping(uint64 => string)",
				"numberOfBytes": "32",
				"value": "t_string_storage"
			},
			"t_mapping(t_uint64,t_struct(SpendingCondition)10203_storage)": {
				"encoding": "mapping",
				"key": "t_uint64",
				"label": "mapping(uint64 => struct PMUniversalVerifier.SpendingCondition)",
				"numberOfBytes": "32",
				"value": "t_struct(SpendingCondition)10203_storage"
			},
			"t_string_storage": {
				"encoding": "bytes",
				"label": "string",
				"numberOfBytes": "32"
			},
			"t_struct(Set)9321_storage": {
				"encoding": "inplace",
				"label": "struct EnumerableSet.Set",
				"members": [
					{
						"astId": 9316,
						"contract": "PMUniversalVerifier.sol:PMUniversalVerifier",
						"label": "_values",
						"offset": 0,
						"slot": "0",
						"type": "t_array(t_bytes32)dyn_storage"
					},
					{
						"astId": 9320,
						"contract": "PMUniversalVerifier.sol:PMUniversalVerifier",
						"label": "_positions",
						"offset": 0,
						"slot": "1",
						"type": "t_mapping(t_bytes32,t_uint256)"
					}
				],
				"numberOfBytes": "64"
			},
			"t_struct(SpendingCondition)10203_storage": {
				"encoding": "inplace",
				"label": "struct PMUniversalVerifier.SpendingCondition",
				"members": [
					{
						"astId": 10198,
						"contract": "PMUniversalVerifier.sol:PMUniversalVerifier",
						"label": "attribute",
						"offset": 0,
						"slot": "0",
						"type": "t_string_storage"
					},
					{
						"astId": 10200,
						"contract": "PMUniversalVerifier.sol:PMUniversalVerifier",
						"label": "operatorStr",
						"offset": 0,
						"slot": "1",
						"type": "t_string_storage"
					},
					{
						"astId": 10202,
						"contract": "PMUniversalVerifier.sol:PMUniversalVerifier",
						"label": "value",
						"offset": 0,
						"slot": "2",
						"type": "t_string_storage"
					}
				],
				"numberOfBytes": "96"
			},
			"t_struct(UintSet)9862_storage": {
				"encoding": "inplace",
				"label": "struct EnumerableSet.UintSet",
				"members": [
					{
						"astId": 9861,
						"contract": "PMUniversalVerifier.sol:PMUniversalVerifier",
						"label": "_inner",
						"offset": 0,
						"slot": "0",
						"type": "t_struct(Set)9321_storage"
					}
				],
				"numberOfBytes": "64"
			},
			"t_uint256": {
				"encoding": "inplace",
				"label": "uint256",
				"numberOfBytes": "32"
			},
			"t_uint64": {
				"encoding": "inplace",
				"label": "uint64",
				"numberOfBytes": "8"
			}
		}
	},
	"web3Deploy": "var verifier_ = /* var of type address here */ ;\nvar initialOwner = /* var of type address here */ ;\nvar uri_ = /* var of type string here */ ;\nvar pmuniversalverifierContract = new web3.eth.Contract([{\"inputs\":[{\"internalType\":\"contract UniversalVerifier\",\"name\":\"verifier_\",\"type\":\"address\"},{\"internalType\":\"address\",\"name\":\"initialOwner\",\"type\":\"address\"},{\"internalType\":\"string\",\"name\":\"uri_\",\"type\":\"string\"}],\"stateMutability\":\"nonpayable\",\"type\":\"constructor\"},{\"inputs\":[{\"internalType\":\"address\",\"name\":\"sender\",\"type\":\"address\"},{\"internalType\":\"uint256\",\"name\":\"balance\",\"type\":\"uint256\"},{\"internalType\":\"uint256\",\"name\":\"needed\",\"type\":\"uint256\"},{\"internalType\":\"uint256\",\"name\":\"tokenId\",\"type\":\"uint256\"}],\"name\":\"ERC1155InsufficientBalance\",\"type\":\"error\"},{\"inputs\":[{\"internalType\":\"address\",\"name\":\"approver\",\"type\":\"address\"}],\"name\":\"ERC1155InvalidApprover\",\"type\":\"error\"},{\"inputs\":[{\"internalType\":\"uint256\",\"name\":\"idsLength\",\"type\":\"uint256\"},{\"internalType\":\"uint256\",\"name\":\"valuesLength\",\"type\":\"uint256\"}],\"name\":\"ERC1155InvalidArrayLength\",\"type\":\"error\"},{\"inputs\":[{\"internalType\":\"address\",\"name\":\"operator\",\"type\":\"address\"}],\"name\":\"ERC1155InvalidOperator\",\"type\":\"error\"},{\"inputs\":[{\"internalType\":\"address\",\"name\":\"receiver\",\"type\":\"address\"}],\"name\":\"ERC1155InvalidReceiver\",\"type\":\"error\"},{\"inputs\":[{\"internalType\":\"address\",\"name\":\"sender\",\"type\":\"address\"}],\"name\":\"ERC1155InvalidSender\",\"type\":\"error\"},{\"inputs\":[{\"internalType\":\"address\",\"name\":\"operator\",\"type\":\"address\"},{\"internalType\":\"address\",\"name\":\"owner\",\"type\":\"address\"}],\"name\":\"ERC1155MissingApprovalForAll\",\"type\":\"error\"},{\"inputs\":[{\"internalType\":\"address\",\"name\":\"owner\",\"type\":\"address\"}],\"name\":\"OwnableInvalidOwner\",\"type\":\"error\"},{\"inputs\":[{\"internalType\":\"address\",\"name\":\"account\",\"type\":\"address\"}],\"name\":\"OwnableUnauthorizedAccount\",\"type\":\"error\"},{\"inputs\":[{\"internalType\":\"uint64\",\"name\":\"requestID\",\"type\":\"uint64\"},{\"internalType\":\"address\",\"name\":\"proverAddress\",\"type\":\"address\"}],\"name\":\"ProofNotVerified\",\"type\":\"error\"},{\"inputs\":[{\"internalType\":\"uint256\",\"name\":\"tokenID\",\"type\":\"uint256\"}],\"name\":\"TokenIDNotFound\",\"type\":\"error\"},{\"inputs\":[{\"internalType\":\"uint256\",\"name\":\"tokenID\",\"type\":\"uint256\"}],\"name\":\"TokenIDTaken\",\"type\":\"error\"},{\"anonymous\":false,\"inputs\":[{\"indexed\":true,\"internalType\":\"address\",\"name\":\"account\",\"type\":\"address\"},{\"indexed\":true,\"internalType\":\"address\",\"name\":\"operator\",\"type\":\"address\"},{\"indexed\":false,\"internalType\":\"bool\",\"name\":\"approved\",\"type\":\"bool\"}],\"name\":\"ApprovalForAll\",\"type\":\"event\"},{\"anonymous\":false,\"inputs\":[{\"indexed\":true,\"internalType\":\"address\",\"name\":\"previousOwner\",\"type\":\"address\"},{\"indexed\":true,\"internalType\":\"address\",\"name\":\"newOwner\",\"type\":\"address\"}],\"name\":\"OwnershipTransferred\",\"type\":\"event\"},{\"anonymous\":false,\"inputs\":[{\"indexed\":true,\"internalType\":\"address\",\"name\":\"operator\",\"type\":\"address\"},{\"indexed\":true,\"internalType\":\"address\",\"name\":\"from\",\"type\":\"address\"},{\"indexed\":true,\"internalType\":\"address\",\"name\":\"to\",\"type\":\"address\"},{\"indexed\":false,\"internalType\":\"uint256[]\",\"name\":\"ids\",\"type\":\"uint256[]\"},{\"indexed\":false,\"internalType\":\"uint256[]\",\"name\":\"values\",\"type\":\"uint256[]\"}],\"name\":\"TransferBatch\",\"type\":\"event\"},{\"anonymous\":false,\"inputs\":[{\"indexed\":true,\"internalType\":\"address\",\"name\":\"operator\",\"type\":\"address\"},{\"indexed\":true,\"internalType\":\"address\",\"name\":\"from\",\"type\":\"address\"},{\"indexed\":true,\"internalType\":\"address\",\"name\":\"to\",\"type\":\"address\"},{\"indexed\":false,\"internalType\":\"uint256\",\"name\":\"id\",\"type\":\"uint256\"},{\"indexed\":false,\"internalType\":\"uint256\",\"name\":\"value\",\"type\":\"uint256\"}],\"name\":\"TransferSingle\",\"type\":\"event\"},{\"anonymous\":false,\"inputs\":[{\"indexed\":false,\"internalType\":\"string\",\"name\":\"value\",\"type\":\"string\"},{\"indexed\":true,\"internalType\":\"uint256\",\"name\":\"id\",\"type\":\"uint256\"}],\"name\":\"URI\",\"type\":\"event\"},{\"inputs\":[{\"internalType\":\"address\",\"name\":\"_admin\",\"type\":\"address\"}],\"name\":\"addAdmin\",\"outputs\":[],\"stateMutability\":\"nonpayable\",\"type\":\"function\"},{\"inputs\":[{\"internalType\":\"uint256\",\"name\":\"tokenID\",\"type\":\"uint256\"},{\"internalType\":\"uint64\",\"name\":\"requestID\",\"type\":\"uint64\"},{\"internalType\":\"string\",\"name\":\"role\",\"type\":\"string\"}],\"name\":\"addProofRequestAndRole\",\"outputs\":[],\"stateMutability\":\"nonpayable\",\"type\":\"function\"},{\"inputs\":[{\"internalType\":\"uint64\",\"name\":\"requestId\",\"type\":\"uint64\"},{\"internalType\":\"string\",\"name\":\"metadata\",\"type\":\"string\"},{\"internalType\":\"contract ICircuitValidator\",\"name\":\"validator\",\"type\":\"address\"},{\"internalType\":\"bytes\",\"name\":\"data\",\"type\":\"bytes\"},{\"internalType\":\"uint256\",\"name\":\"tokenID\",\"type\":\"uint256\"},{\"internalType\":\"string\",\"name\":\"role\",\"type\":\"string\"},{\"components\":[{\"internalType\":\"string\",\"name\":\"attribute\",\"type\":\"string\"},{\"internalType\":\"string\",\"name\":\"operatorStr\",\"type\":\"string\"},{\"internalType\":\"string\",\"name\":\"value\",\"type\":\"string\"}],\"internalType\":\"struct PMUniversalVerifier.SpendingCondition\",\"name\":\"condition\",\"type\":\"tuple\"}],\"name\":\"addProofRequest_VerifierAndPM\",\"outputs\":[],\"stateMutability\":\"nonpayable\",\"type\":\"function\"},{\"inputs\":[],\"name\":\"allTokenIDs\",\"outputs\":[{\"internalType\":\"uint256[]\",\"name\":\"\",\"type\":\"uint256[]\"}],\"stateMutability\":\"view\",\"type\":\"function\"},{\"inputs\":[{\"internalType\":\"address\",\"name\":\"account\",\"type\":\"address\"},{\"internalType\":\"uint256\",\"name\":\"id\",\"type\":\"uint256\"}],\"name\":\"balanceOf\",\"outputs\":[{\"internalType\":\"uint256\",\"name\":\"\",\"type\":\"uint256\"}],\"stateMutability\":\"view\",\"type\":\"function\"},{\"inputs\":[{\"internalType\":\"address[]\",\"name\":\"accounts\",\"type\":\"address[]\"},{\"internalType\":\"uint256[]\",\"name\":\"ids\",\"type\":\"uint256[]\"}],\"name\":\"balanceOfBatch\",\"outputs\":[{\"internalType\":\"uint256[]\",\"name\":\"\",\"type\":\"uint256[]\"}],\"stateMutability\":\"view\",\"type\":\"function\"},{\"inputs\":[{\"internalType\":\"address\",\"name\":\"account\",\"type\":\"address\"},{\"internalType\":\"uint256\",\"name\":\"ID\",\"type\":\"uint256\"},{\"internalType\":\"uint256\",\"name\":\"amount\",\"type\":\"uint256\"}],\"name\":\"burn\",\"outputs\":[],\"stateMutability\":\"nonpayable\",\"type\":\"function\"},{\"inputs\":[{\"internalType\":\"uint256\",\"name\":\"tokenID\",\"type\":\"uint256\"},{\"internalType\":\"uint64\",\"name\":\"requestID\",\"type\":\"uint64\"}],\"name\":\"deleteProofRequestAndRole\",\"outputs\":[],\"stateMutability\":\"nonpayable\",\"type\":\"function\"},{\"inputs\":[],\"name\":\"fungible_token\",\"outputs\":[{\"internalType\":\"uint256\",\"name\":\"\",\"type\":\"uint256\"}],\"stateMutability\":\"view\",\"type\":\"function\"},{\"inputs\":[],\"name\":\"getAdmins\",\"outputs\":[{\"internalType\":\"address[]\",\"name\":\"\",\"type\":\"address[]\"}],\"stateMutability\":\"view\",\"type\":\"function\"},{\"inputs\":[{\"internalType\":\"uint256\",\"name\":\"tokenID\",\"type\":\"uint256\"}],\"name\":\"getSpendingConditions\",\"outputs\":[{\"internalType\":\"uint64[]\",\"name\":\"\",\"type\":\"uint64[]\"},{\"components\":[{\"internalType\":\"string\",\"name\":\"attribute\",\"type\":\"string\"},{\"internalType\":\"string\",\"name\":\"operatorStr\",\"type\":\"string\"},{\"internalType\":\"string\",\"name\":\"value\",\"type\":\"string\"}],\"internalType\":\"struct PMUniversalVerifier.SpendingCondition[]\",\"name\":\"\",\"type\":\"tuple[]\"}],\"stateMutability\":\"view\",\"type\":\"function\"},{\"inputs\":[{\"internalType\":\"address\",\"name\":\"account\",\"type\":\"address\"},{\"internalType\":\"address\",\"name\":\"operator\",\"type\":\"address\"}],\"name\":\"isApprovedForAll\",\"outputs\":[{\"internalType\":\"bool\",\"name\":\"\",\"type\":\"bool\"}],\"stateMutability\":\"view\",\"type\":\"function\"},{\"inputs\":[{\"internalType\":\"address\",\"name\":\"to\",\"type\":\"address\"},{\"internalType\":\"uint256\",\"name\":\"amount\",\"type\":\"uint256\"},{\"internalType\":\"bytes\",\"name\":\"data\",\"type\":\"bytes\"},{\"internalType\":\"string\",\"name\":\"name\",\"type\":\"string\"}],\"name\":\"mintToken\",\"outputs\":[],\"stateMutability\":\"nonpayable\",\"type\":\"function\"},{\"inputs\":[],\"name\":\"non_fungible_token\",\"outputs\":[{\"internalType\":\"uint256\",\"name\":\"\",\"type\":\"uint256\"}],\"stateMutability\":\"view\",\"type\":\"function\"},{\"inputs\":[],\"name\":\"owner\",\"outputs\":[{\"internalType\":\"address\",\"name\":\"\",\"type\":\"address\"}],\"stateMutability\":\"view\",\"type\":\"function\"},{\"inputs\":[{\"internalType\":\"uint256\",\"name\":\"\",\"type\":\"uint256\"}],\"name\":\"proofRequestIDs\",\"outputs\":[{\"internalType\":\"uint64\",\"name\":\"\",\"type\":\"uint64\"}],\"stateMutability\":\"view\",\"type\":\"function\"},{\"inputs\":[{\"internalType\":\"address\",\"name\":\"_admin\",\"type\":\"address\"}],\"name\":\"removeAdmin\",\"outputs\":[],\"stateMutability\":\"nonpayable\",\"type\":\"function\"},{\"inputs\":[],\"name\":\"renounceOwnership\",\"outputs\":[],\"stateMutability\":\"nonpayable\",\"type\":\"function\"},{\"inputs\":[{\"internalType\":\"address\",\"name\":\"from\",\"type\":\"address\"},{\"internalType\":\"address\",\"name\":\"to\",\"type\":\"address\"},{\"internalType\":\"uint256[]\",\"name\":\"tokenIDs\",\"type\":\"uint256[]\"},{\"internalType\":\"uint256[]\",\"name\":\"amounts\",\"type\":\"uint256[]\"},{\"internalType\":\"bytes\",\"name\":\"data\",\"type\":\"bytes\"}],\"name\":\"safeBatchTransferFrom\",\"outputs\":[],\"stateMutability\":\"nonpayable\",\"type\":\"function\"},{\"inputs\":[{\"internalType\":\"address\",\"name\":\"from\",\"type\":\"address\"},{\"internalType\":\"address\",\"name\":\"to\",\"type\":\"address\"},{\"internalType\":\"uint256\",\"name\":\"tokenID\",\"type\":\"uint256\"},{\"internalType\":\"uint256\",\"name\":\"amount\",\"type\":\"uint256\"},{\"internalType\":\"bytes\",\"name\":\"data\",\"type\":\"bytes\"}],\"name\":\"safeTransferFrom\",\"outputs\":[],\"stateMutability\":\"nonpayable\",\"type\":\"function\"},{\"inputs\":[{\"internalType\":\"address\",\"name\":\"operator\",\"type\":\"address\"},{\"internalType\":\"bool\",\"name\":\"approved\",\"type\":\"bool\"}],\"name\":\"setApprovalForAll\",\"outputs\":[],\"stateMutability\":\"nonpayable\",\"type\":\"function\"},{\"inputs\":[{\"internalType\":\"uint256\",\"name\":\"\",\"type\":\"uint256\"},{\"internalType\":\"uint64\",\"name\":\"\",\"type\":\"uint64\"}],\"name\":\"spendingConditions\",\"outputs\":[{\"internalType\":\"string\",\"name\":\"attribute\",\"type\":\"string\"},{\"internalType\":\"string\",\"name\":\"operatorStr\",\"type\":\"string\"},{\"internalType\":\"string\",\"name\":\"value\",\"type\":\"string\"}],\"stateMutability\":\"view\",\"type\":\"function\"},{\"inputs\":[{\"internalType\":\"bytes4\",\"name\":\"interfaceId\",\"type\":\"bytes4\"}],\"name\":\"supportsInterface\",\"outputs\":[{\"internalType\":\"bool\",\"name\":\"\",\"type\":\"bool\"}],\"stateMutability\":\"view\",\"type\":\"function\"},{\"inputs\":[{\"internalType\":\"uint256\",\"name\":\"\",\"type\":\"uint256\"},{\"internalType\":\"uint64\",\"name\":\"\",\"type\":\"uint64\"}],\"name\":\"tokenID_proofRequest_role\",\"outputs\":[{\"internalType\":\"string\",\"name\":\"\",\"type\":\"string\"}],\"stateMutability\":\"view\",\"type\":\"function\"},{\"inputs\":[{\"internalType\":\"uint256\",\"name\":\"\",\"type\":\"uint256\"}],\"name\":\"tokenName\",\"outputs\":[{\"internalType\":\"string\",\"name\":\"\",\"type\":\"string\"}],\"stateMutability\":\"view\",\"type\":\"function\"},{\"inputs\":[{\"internalType\":\"address\",\"name\":\"newOwner\",\"type\":\"address\"}],\"name\":\"transferOwnership\",\"outputs\":[],\"stateMutability\":\"nonpayable\",\"type\":\"function\"},{\"inputs\":[{\"internalType\":\"uint256\",\"name\":\"\",\"type\":\"uint256\"}],\"name\":\"uri\",\"outputs\":[{\"internalType\":\"string\",\"name\":\"\",\"type\":\"string\"}],\"stateMutability\":\"view\",\"type\":\"function\"},{\"inputs\":[],\"name\":\"verifier\",\"outputs\":[{\"internalType\":\"contract UniversalVerifier\",\"name\":\"\",\"type\":\"address\"}],\"stateMutability\":\"view\",\"type\":\"function\"}]);\nvar pmuniversalverifier = pmuniversalverifierContract.deploy({\n     data: '0x608060405234801562000010575f80fd5b506040516200629638038062006296833981810160405281019062000036919062000418565b818162000049816200011860201b60201c565b505f73ffffffffffffffffffffffffffffffffffffffff168173ffffffffffffffffffffffffffffffffffffffff1603620000bd575f6040517f1e4fbdf7000000000000000000000000000000000000000000000000000000008152600401620000b49190620004a1565b60405180910390fd5b620000ce816200012d60201b60201c565b5082600b5f6101000a81548173ffffffffffffffffffffffffffffffffffffffff021916908373ffffffffffffffffffffffffffffffffffffffff160217905550505050620007d7565b8060029081620001299190620006f3565b5050565b5f60035f9054906101000a900473ffffffffffffffffffffffffffffffffffffffff1690508160035f6101000a81548173ffffffffffffffffffffffffffffffffffffffff021916908373ffffffffffffffffffffffffffffffffffffffff1602179055508173ffffffffffffffffffffffffffffffffffffffff168173ffffffffffffffffffffffffffffffffffffffff167f8be0079c531659141344cd1fd0a4f28419497f9722a3daafe3b4186f6b6457e060405160405180910390a35050565b5f604051905090565b5f80fd5b5f80fd5b5f73ffffffffffffffffffffffffffffffffffffffff82169050919050565b5f6200022c8262000201565b9050919050565b5f6200023f8262000220565b9050919050565b620002518162000233565b81146200025c575f80fd5b50565b5f815190506200026f8162000246565b92915050565b620002808162000220565b81146200028b575f80fd5b50565b5f815190506200029e8162000275565b92915050565b5f80fd5b5f80fd5b5f601f19601f8301169050919050565b7f4e487b71000000000000000000000000000000000000000000000000000000005f52604160045260245ffd5b620002f482620002ac565b810181811067ffffffffffffffff82111715620003165762000315620002bc565b5b80604052505050565b5f6200032a620001f0565b9050620003388282620002e9565b919050565b5f67ffffffffffffffff8211156200035a5762000359620002bc565b5b6200036582620002ac565b9050602081019050919050565b5f5b838110156200039157808201518184015260208101905062000374565b5f8484015250505050565b5f620003b2620003ac846200033d565b6200031f565b905082815260208101848484011115620003d157620003d0620002a8565b5b620003de84828562000372565b509392505050565b5f82601f830112620003fd57620003fc620002a4565b5b81516200040f8482602086016200039c565b91505092915050565b5f805f60608486031215620004325762000431620001f9565b5b5f62000441868287016200025f565b935050602062000454868287016200028e565b925050604084015167ffffffffffffffff811115620004785762000477620001fd565b5b6200048686828701620003e6565b9150509250925092565b6200049b8162000220565b82525050565b5f602082019050620004b65f83018462000490565b92915050565b5f81519050919050565b7f4e487b71000000000000000000000000000000000000000000000000000000005f52602260045260245ffd5b5f60028204905060018216806200050b57607f821691505b602082108103620005215762000520620004c6565b5b50919050565b5f819050815f5260205f209050919050565b5f6020601f8301049050919050565b5f82821b905092915050565b5f60088302620005857fffffffffffffffffffffffffffffffffffffffffffffffffffffffffffffffff8262000548565b62000591868362000548565b95508019841693508086168417925050509392505050565b5f819050919050565b5f819050919050565b5f620005db620005d5620005cf84620005a9565b620005b2565b620005a9565b9050919050565b5f819050919050565b620005f683620005bb565b6200060e6200060582620005e2565b84845462000554565b825550505050565b5f90565b6200062462000616565b62000631818484620005eb565b505050565b5b8181101562000658576200064c5f826200061a565b60018101905062000637565b5050565b601f821115620006a757620006718162000527565b6200067c8462000539565b810160208510156200068c578190505b620006a46200069b8562000539565b83018262000636565b50505b505050565b5f82821c905092915050565b5f620006c95f1984600802620006ac565b1980831691505092915050565b5f620006e38383620006b8565b9150826002028217905092915050565b620006fe82620004bc565b67ffffffffffffffff8111156200071a5762000719620002bc565b5b620007268254620004f3565b620007338282856200065c565b5f60209050601f83116001811462000769575f841562000754578287015190505b620007608582620006d6565b865550620007cf565b601f198416620007798662000527565b5f5b82811015620007a2578489015182556001820191506020850194506020810190506200077b565b86831015620007c25784890151620007be601f891682620006b8565b8355505b6001600288020188555050505b505050505050565b615ab180620007e55f395ff3fe608060405234801561000f575f80fd5b50600436106101c1575f3560e01c80637330dd84116100f7578063cf5219ad11610095578063e985e9c51161006f578063e985e9c514610516578063f242432a14610546578063f2fde38b14610562578063f5298aca1461057e576101c1565b8063cf5219ad14610498578063d121cdc0146104b6578063e725f877146104e6576101c1565b80638da5cb5b116100d15780638da5cb5b146104105780638ed46cfd1461042e578063a22cb46514610460578063c1f959131461047c576101c1565b80637330dd84146103b85780637578b248146103d4578063784008ce146103f2576101c1565b80632eb2c2d6116101645780634e1273f41161013e5780634e1273f41461034657806350fbdb2d146103765780637048027514610392578063715018a6146103ae576101c1565b80632eb2c2d6146102dc5780632f4955f6146102f857806331ae450b14610328576101c1565b80630e89341c116101a05780630e89341c146102565780631785f53c146102865780632b7ac3f3146102a25780632dbff950146102c0576101c1565b8062fdd58e146101c557806301843a14146101f557806301ffc9a714610226575b5f80fd5b6101df60048036038101906101da91906137e9565b61059a565b6040516101ec9190613836565b60405180910390f35b61020f600480360381019061020a919061384f565b6105ef565b60405161021d929190613ae4565b60405180910390f35b610240600480360381019061023b9190613b6e565b610ac6565b60405161024d9190613bb3565b60405180910390f35b610270600480360381019061026b919061384f565b610ba7565b60405161027d9190613c14565b60405180910390f35b6102a0600480360381019061029b9190613c34565b610c39565b005b6102aa610e00565b6040516102b79190613cba565b60405180910390f35b6102da60048036038101906102d59190613d89565b610e25565b005b6102f660048036038101906102f19190614014565b611105565b005b610312600480360381019061030d9190614109565b611241565b60405161031f9190613c14565b60405180910390f35b6103306112e7565b60405161033d91906141fe565b60405180910390f35b610360600480360381019061035b91906142de565b61137a565b60405161036d919061440b565b60405180910390f35b610390600480360381019061038b9190614109565b611487565b005b6103ac60048036038101906103a79190613c34565b6117a6565b005b6103b66118c8565b005b6103d260048036038101906103cd9190614488565b6118db565b005b6103dc611bbb565b6040516103e9919061440b565b60405180910390f35b6103fa611bcc565b6040516104079190613836565b60405180910390f35b610418611bd1565b60405161042591906145b0565b60405180910390f35b61044860048036038101906104439190614109565b611bf9565b604051610457939291906145c9565b60405180910390f35b61047a6004803603810190610475919061463d565b611dbc565b005b6104966004803603810190610491919061467b565b611dd2565b005b6104a061207f565b6040516104ad9190613836565b60405180910390f35b6104d060048036038101906104cb919061384f565b612084565b6040516104dd91906146fb565b60405180910390f35b61050060048036038101906104fb919061384f565b6120bf565b60405161050d9190613c14565b60405180910390f35b610530600480360381019061052b9190614714565b61215a565b60405161053d9190613bb3565b60405180910390f35b610560600480360381019061055b9190614752565b6121e8565b005b61057c60048036038101906105779190613c34565b612207565b005b610598600480360381019061059391906147e5565b61228b565b005b5f805f8381526020019081526020015f205f8473ffffffffffffffffffffffffffffffffffffffff1673ffffffffffffffffffffffffffffffffffffffff1681526020019081526020015f2054905092915050565b6060805f600a80548060200260200160405190810160405280929190818152602001828054801561067057602002820191905f5260205f20905f905b82829054906101000a900467ffffffffffffffff1667ffffffffffffffff168152602001906008019060208260070104928301926001038202915080841161062b5790505b505050505090505f805b8251811015610709575f60095f8881526020019081526020015f205f8584815181106106a9576106a8614835565b5b602002602001015167ffffffffffffffff1667ffffffffffffffff1681526020019081526020015f205f0180546106df9061488f565b905011156106f65781806106f2906148ec565b9250505b8080610701906148ec565b91505061067a565b505f8167ffffffffffffffff81111561072557610724613e2c565b5b6040519080825280602002602001820160405280156107535781602001602082028036833780820191505090505b5090505f8267ffffffffffffffff81111561077157610770613e2c565b5b6040519080825280602002602001820160405280156107aa57816020015b6107976136d2565b81526020019060019003908161078f5790505b5090505f805b8551811015610ab5575f60095f8b81526020019081526020015f205f8884815181106107df576107de614835565b5b602002602001015167ffffffffffffffff1667ffffffffffffffff1681526020019081526020015f205f0180546108159061488f565b90501115610aa2578581815181106108305761082f614835565b5b602002602001015184838151811061084b5761084a614835565b5b602002602001019067ffffffffffffffff16908167ffffffffffffffff168152505060095f8a81526020019081526020015f205f87838151811061089257610891614835565b5b602002602001015167ffffffffffffffff1667ffffffffffffffff1681526020019081526020015f206040518060600160405290815f820180546108d59061488f565b80601f01602080910402602001604051908101604052809291908181526020018280546109019061488f565b801561094c5780601f106109235761010080835404028352916020019161094c565b820191905f5260205f20905b81548152906001019060200180831161092f57829003601f168201915b505050505081526020016001820180546109659061488f565b80601f01602080910402602001604051908101604052809291908181526020018280546109919061488f565b80156109dc5780601f106109b3576101008083540402835291602001916109dc565b820191905f5260205f20905b8154815290600101906020018083116109bf57829003601f168201915b505050505081526020016002820180546109f59061488f565b80601f0160208091040260200160405190810160405280929190818152602001828054610a219061488f565b8015610a6c5780601f10610a4357610100808354040283529160200191610a6c565b820191905f5260205f20905b815481529060010190602001808311610a4f57829003601f168201915b505050505081525050838381518110610a8857610a87614835565b5b60200260200101819052508180610a9e906148ec565b9250505b8080610aad906148ec565b9150506107b0565b508282965096505050505050915091565b5f7fd9b67a26000000000000000000000000000000000000000000000000000000007bffffffffffffffffffffffffffffffffffffffffffffffffffffffff1916827bffffffffffffffffffffffffffffffffffffffffffffffffffffffff19161480610b9057507f0e89341c000000000000000000000000000000000000000000000000000000007bffffffffffffffffffffffffffffffffffffffffffffffffffffffff1916827bffffffffffffffffffffffffffffffffffffffffffffffffffffffff1916145b80610ba05750610b9f826122a3565b5b9050919050565b606060028054610bb69061488f565b80601f0160208091040260200160405190810160405280929190818152602001828054610be29061488f565b8015610c2d5780601f10610c0457610100808354040283529160200191610c2d565b820191905f5260205f20905b815481529060010190602001808311610c1057829003601f168201915b50505050509050919050565b610c4161230c565b5f60048054905090505f5b81811015610dc1578273ffffffffffffffffffffffffffffffffffffffff1660048281548110610c7f57610c7e614835565b5b905f5260205f20015f9054906101000a900473ffffffffffffffffffffffffffffffffffffffff1673ffffffffffffffffffffffffffffffffffffffff1603610dae576004600183610cd19190614933565b81548110610ce257610ce1614835565b5b905f5260205f20015f9054906101000a900473ffffffffffffffffffffffffffffffffffffffff1660048281548110610d1e57610d1d614835565b5b905f5260205f20015f6101000a81548173ffffffffffffffffffffffffffffffffffffffff021916908373ffffffffffffffffffffffffffffffffffffffff1602179055506004805480610d7557610d74614966565b5b600190038181905f5260205f20015f6101000a81549073ffffffffffffffffffffffffffffffffffffffff021916905590555050610dfd565b8080610db9906148ec565b915050610c4c565b506040517f08c379a0000000000000000000000000000000000000000000000000000000008152600401610df4906149dd565b60405180910390fd5b50565b600b5f9054906101000a900473ffffffffffffffffffffffffffffffffffffffff1681565b5f8282905011610e6a576040517f08c379a0000000000000000000000000000000000000000000000000000000008152600401610e6190614a45565b60405180910390fd5b5f805f610e776005612393565b90505f5b8151811015610f1a578585604051610e94929190614a91565b604051809103902060075f848481518110610eb257610eb1614835565b5b602002602001015181526020019081526020015f20604051610ed49190614b3b565b604051809103902003610f0757818181518110610ef457610ef3614835565b5b6020026020010151935060019250610f1a565b8080610f12906148ec565b915050610e7b565b508115610f7557610f7089848a8a8a8080601f0160208091040260200160405190810160405280939291908181526020018383808284375f81840152601f19601f820116905080830192505050505050506123b2565b6110fa565b5f805f90505b62015f9042448d8a8a86604051602001610f9a96959493929190614be4565b604051602081830303815290604052805190602001205f1c610fbc9190614c6d565b6103e8610fc99190614c9d565b91508080610fd6906148ec565b9150506064811061101c576040517f08c379a000000000000000000000000000000000000000000000000000000000815260040161101390614d40565b60405180910390fd5b61103082600561244790919063ffffffff16565b610f7b5761104882600561245e90919063ffffffff16565b611087576040517f08c379a000000000000000000000000000000000000000000000000000000000815260040161107e90614da8565b60405180910390fd5b6110d68b838c8c8c8080601f0160208091040260200160405190810160405280939291908181526020018383808284375f81840152601f19601f820116905080830192505050505050506123b2565b868660075f8581526020019081526020015f2091826110f6929190614f64565b5050505b505050505050505050565b8151835114611149576040517f08c379a0000000000000000000000000000000000000000000000000000000008152600401611140906150a1565b60405180910390fd5b5f73ffffffffffffffffffffffffffffffffffffffff168473ffffffffffffffffffffffffffffffffffffffff16036111b7576040517f08c379a00000000000000000000000000000000000000000000000000000000081526004016111ae9061512f565b60405180910390fd5b5f5b8351811015611239576111e78482815181106111d8576111d7614835565b5b60200260200101518787612475565b61122886868684815181106111ff576111fe614835565b5b602002602001015186858151811061121a57611219614835565b5b6020026020010151866121e8565b80611232906148ec565b90506111b9565b505050505050565b6008602052815f5260405f20602052805f5260405f205f915091505080546112689061488f565b80601f01602080910402602001604051908101604052809291908181526020018280546112949061488f565b80156112df5780601f106112b6576101008083540402835291602001916112df565b820191905f5260205f20905b8154815290600101906020018083116112c257829003601f168201915b505050505081565b60606112f161230c565b600480548060200260200160405190810160405280929190818152602001828054801561137057602002820191905f5260205f20905b815f9054906101000a900473ffffffffffffffffffffffffffffffffffffffff1673ffffffffffffffffffffffffffffffffffffffff1681526020019060010190808311611327575b5050505050905090565b606081518351146113c657815183516040517f5b0599910000000000000000000000000000000000000000000000000000000081526004016113bd92919061514d565b60405180910390fd5b5f835167ffffffffffffffff8111156113e2576113e1613e2c565b5b6040519080825280602002602001820160405280156114105781602001602082028036833780820191505090505b5090505f5b845181101561147c5761144c61143482876128d290919063ffffffff16565b61144783876128e590919063ffffffff16565b61059a565b82828151811061145f5761145e614835565b5b60200260200101818152505080611475906148ec565b9050611415565b508091505092915050565b611490336128f8565b6114cf576040517f08c379a00000000000000000000000000000000000000000000000000000000081526004016114c6906151be565b60405180910390fd5b6114e382600561244790919063ffffffff16565b611522576040517f08c379a000000000000000000000000000000000000000000000000000000000815260040161151990615226565b60405180910390fd5b5f60085f8481526020019081526020015f205f8367ffffffffffffffff1667ffffffffffffffff1681526020019081526020015f2080546115629061488f565b9050036115a4576040517f08c379a000000000000000000000000000000000000000000000000000000000815260040161159b9061528e565b60405180910390fd5b60085f8381526020019081526020015f205f8267ffffffffffffffff1667ffffffffffffffff1681526020019081526020015f205f6115e391906136f3565b60095f8381526020019081526020015f205f8267ffffffffffffffff1667ffffffffffffffff1681526020019081526020015f205f8082015f61162691906136f3565b600182015f61163591906136f3565b600282015f61164491906136f3565b50505f5b600a805490508110156117a1578167ffffffffffffffff16600a828154811061167457611673614835565b5b905f5260205f2090600491828204019190066008029054906101000a900467ffffffffffffffff1667ffffffffffffffff160361178e57600a6001600a805490506116bf9190614933565b815481106116d0576116cf614835565b5b905f5260205f2090600491828204019190066008029054906101000a900467ffffffffffffffff16600a828154811061170c5761170b614835565b5b905f5260205f2090600491828204019190066008026101000a81548167ffffffffffffffff021916908367ffffffffffffffff160217905550600a80548061175757611756614966565b5b600190038181905f5260205f2090600491828204019190066008026101000a81549067ffffffffffffffff021916905590556117a1565b8080611799906148ec565b915050611648565b505050565b6117ae61230c565b5f73ffffffffffffffffffffffffffffffffffffffff168173ffffffffffffffffffffffffffffffffffffffff160361181c576040517f08c379a0000000000000000000000000000000000000000000000000000000008152600401611813906152f6565b60405180910390fd5b611825816128f8565b15611865576040517f08c379a000000000000000000000000000000000000000000000000000000000815260040161185c9061535e565b60405180910390fd5b600481908060018154018082558091505060019003905f5260205f20015f9091909190916101000a81548173ffffffffffffffffffffffffffffffffffffffff021916908373ffffffffffffffffffffffffffffffffffffffff16021790555050565b6118d061230c565b6118d95f6129a0565b565b5f60405180606001604052808b8b8080601f0160208091040260200160405190810160405280939291908181526020018383808284375f81840152601f19601f8201169050808301925050505050505081526020018973ffffffffffffffffffffffffffffffffffffffff16815260200188888080601f0160208091040260200160405190810160405280939291908181526020018383808284375f81840152601f19601f820116905080830192505050505050508152509050600b5f9054906101000a900473ffffffffffffffffffffffffffffffffffffffff1673ffffffffffffffffffffffffffffffffffffffff16639f5223e08c836040518363ffffffff1660e01b81526004016119f1929190615442565b5f604051808303815f87803b158015611a08575f80fd5b505af1158015611a1a573d5f803e3d5ffd5b50505050611a2a858c8686611dd2565b604051806060016040528083805f0190611a44919061547c565b8080601f0160208091040260200160405190810160405280939291908181526020018383808284375f81840152601f19601f820116905080830192505050505050508152602001838060200190611a9b919061547c565b8080601f0160208091040260200160405190810160405280939291908181526020018383808284375f81840152601f19601f820116905080830192505050505050508152602001838060400190611af2919061547c565b8080601f0160208091040260200160405190810160405280939291908181526020018383808284375f81840152601f19601f8201169050808301925050505050505081525060095f8781526020019081526020015f205f8d67ffffffffffffffff1667ffffffffffffffff1681526020019081526020015f205f820151815f019081611b7e91906154de565b506020820151816001019081611b9491906154de565b506040820151816002019081611baa91906154de565b509050505050505050505050505050565b6060611bc76005612393565b905090565b600181565b5f60035f9054906101000a900473ffffffffffffffffffffffffffffffffffffffff16905090565b6009602052815f5260405f20602052805f5260405f205f9150915050805f018054611c239061488f565b80601f0160208091040260200160405190810160405280929190818152602001828054611c4f9061488f565b8015611c9a5780601f10611c7157610100808354040283529160200191611c9a565b820191905f5260205f20905b815481529060010190602001808311611c7d57829003601f168201915b505050505090806001018054611caf9061488f565b80601f0160208091040260200160405190810160405280929190818152602001828054611cdb9061488f565b8015611d265780601f10611cfd57610100808354040283529160200191611d26565b820191905f5260205f20905b815481529060010190602001808311611d0957829003601f168201915b505050505090806002018054611d3b9061488f565b80601f0160208091040260200160405190810160405280929190818152602001828054611d679061488f565b8015611db25780601f10611d8957610100808354040283529160200191611db2565b820191905f5260205f20905b815481529060010190602001808311611d9557829003601f168201915b5050505050905083565b611dce611dc7612a63565b8383612a6a565b5050565b611ddb336128f8565b611e1a576040517f08c379a0000000000000000000000000000000000000000000000000000000008152600401611e11906151be565b60405180910390fd5b611e2e84600561244790919063ffffffff16565b611e6d576040517f08c379a0000000000000000000000000000000000000000000000000000000008152600401611e6490615226565b60405180910390fd5b5f60085f8681526020019081526020015f205f8567ffffffffffffffff1667ffffffffffffffff1681526020019081526020015f208054611ead9061488f565b905014611eef576040517f08c379a0000000000000000000000000000000000000000000000000000000008152600401611ee6906155f7565b60405180910390fd5b6040518060400160405280600681526020017f73656e6465720000000000000000000000000000000000000000000000000000815250805190602001208282604051611f3c929190614a91565b60405180910390201480611fa257506040518060400160405280600881526020017f7265636569766572000000000000000000000000000000000000000000000000815250805190602001208282604051611f98929190614a91565b6040518091039020145b611fe1576040517f08c379a0000000000000000000000000000000000000000000000000000000008152600401611fd890615685565b60405180910390fd5b818160085f8781526020019081526020015f205f8667ffffffffffffffff1667ffffffffffffffff1681526020019081526020015f209182612024929190614f64565b50600a83908060018154018082558091505060019003905f5260205f2090600491828204019190066008029091909190916101000a81548167ffffffffffffffff021916908367ffffffffffffffff16021790555050505050565b600281565b600a8181548110612093575f80fd5b905f5260205f209060049182820401919006600802915054906101000a900467ffffffffffffffff1681565b6007602052805f5260405f205f9150905080546120db9061488f565b80601f01602080910402602001604051908101604052809291908181526020018280546121079061488f565b80156121525780601f1061212957610100808354040283529160200191612152565b820191905f5260205f20905b81548152906001019060200180831161213557829003601f168201915b505050505081565b5f60015f8473ffffffffffffffffffffffffffffffffffffffff1673ffffffffffffffffffffffffffffffffffffffff1681526020019081526020015f205f8373ffffffffffffffffffffffffffffffffffffffff1673ffffffffffffffffffffffffffffffffffffffff1681526020019081526020015f205f9054906101000a900460ff16905092915050565b6121f3838686612475565b6122008585858585612bd3565b5050505050565b61220f61230c565b5f73ffffffffffffffffffffffffffffffffffffffff168173ffffffffffffffffffffffffffffffffffffffff160361227f575f6040517f1e4fbdf700000000000000000000000000000000000000000000000000000000815260040161227691906145b0565b60405180910390fd5b612288816129a0565b50565b61229361230c565b61229e838383612c7a565b505050565b5f7f01ffc9a7000000000000000000000000000000000000000000000000000000007bffffffffffffffffffffffffffffffffffffffffffffffffffffffff1916827bffffffffffffffffffffffffffffffffffffffffffffffffffffffff1916149050919050565b612314612a63565b73ffffffffffffffffffffffffffffffffffffffff16612332611bd1565b73ffffffffffffffffffffffffffffffffffffffff161461239157612355612a63565b6040517f118cdaa700000000000000000000000000000000000000000000000000000000815260040161238891906145b0565b60405180910390fd5b565b60605f6123a1835f01612d1c565b905060608190508092505050919050565b5f73ffffffffffffffffffffffffffffffffffffffff168473ffffffffffffffffffffffffffffffffffffffff1603612422575f6040517f57f447ce00000000000000000000000000000000000000000000000000000000815260040161241991906145b0565b60405180910390fd5b5f8061242e8585612d75565b9150915061243f5f87848487612da5565b505050505050565b5f612456835f01835f1b612e51565b905092915050565b5f61246d835f01835f1b612e71565b905092915050565b5f600a8054806020026020016040519081016040528092919081815260200182805480156124f357602002820191905f5260205f20905f905b82829054906101000a900467ffffffffffffffff1667ffffffffffffffff16815260200190600801906020826007010492830192600103820291508084116124ae5790505b505050505090505f5b81518110156128cb575f60085f8781526020019081526020015f205f84848151811061252b5761252a614835565b5b602002602001015167ffffffffffffffff1667ffffffffffffffff1681526020019081526020015f20805461255f9061488f565b80601f016020809104026020016040519081016040528092919081815260200182805461258b9061488f565b80156125d65780601f106125ad576101008083540402835291602001916125d6565b820191905f5260205f20905b8154815290600101906020018083116125b957829003601f168201915b505050505090505f8151036125eb57506128b8565b6040518060400160405280600681526020017f73656e64657200000000000000000000000000000000000000000000000000008152508051906020012081805190602001200361275257600b5f9054906101000a900473ffffffffffffffffffffffffffffffffffffffff1673ffffffffffffffffffffffffffffffffffffffff16638c1da2c98685858151811061268657612685614835565b5b60200260200101516040518363ffffffff1660e01b81526004016126ab9291906156a3565b5f60405180830381865afa1580156126c5573d5f803e3d5ffd5b505050506040513d5f823e3d601f19601f820116820180604052508101906126ed9190615829565b5f015161274d5782828151811061270757612706614835565b5b6020026020010151856040517fa5a4608e000000000000000000000000000000000000000000000000000000008152600401612744929190615870565b60405180910390fd5b6128b6565b6040518060400160405280600881526020017f7265636569766572000000000000000000000000000000000000000000000000815250805190602001208180519060200120036128b557600b5f9054906101000a900473ffffffffffffffffffffffffffffffffffffffff1673ffffffffffffffffffffffffffffffffffffffff16638c1da2c9858585815181106127ed576127ec614835565b5b60200260200101516040518363ffffffff1660e01b81526004016128129291906156a3565b5f60405180830381865afa15801561282c573d5f803e3d5ffd5b505050506040513d5f823e3d601f19601f820116820180604052508101906128549190615829565b5f01516128b45782828151811061286e5761286d614835565b5b6020026020010151846040517fa5a4608e0000000000000000000000000000000000000000000000000000000081526004016128ab929190615870565b60405180910390fd5b5b5b505b80806128c3906148ec565b9150506124fc565b5050505050565b5f60208202602084010151905092915050565b5f60208202602084010151905092915050565b5f805f90505b600480549050811015612996578273ffffffffffffffffffffffffffffffffffffffff166004828154811061293657612935614835565b5b905f5260205f20015f9054906101000a900473ffffffffffffffffffffffffffffffffffffffff1673ffffffffffffffffffffffffffffffffffffffff160361298357600191505061299b565b808061298e906148ec565b9150506128fe565b505f90505b919050565b5f60035f9054906101000a900473ffffffffffffffffffffffffffffffffffffffff1690508160035f6101000a81548173ffffffffffffffffffffffffffffffffffffffff021916908373ffffffffffffffffffffffffffffffffffffffff1602179055508173ffffffffffffffffffffffffffffffffffffffff168173ffffffffffffffffffffffffffffffffffffffff167f8be0079c531659141344cd1fd0a4f28419497f9722a3daafe3b4186f6b6457e060405160405180910390a35050565b5f33905090565b5f73ffffffffffffffffffffffffffffffffffffffff168273ffffffffffffffffffffffffffffffffffffffff1603612ada575f6040517fced3e100000000000000000000000000000000000000000000000000000000008152600401612ad191906145b0565b60405180910390fd5b8060015f8573ffffffffffffffffffffffffffffffffffffffff1673ffffffffffffffffffffffffffffffffffffffff1681526020019081526020015f205f8473ffffffffffffffffffffffffffffffffffffffff1673ffffffffffffffffffffffffffffffffffffffff1681526020019081526020015f205f6101000a81548160ff0219169083151502179055508173ffffffffffffffffffffffffffffffffffffffff168373ffffffffffffffffffffffffffffffffffffffff167f17307eab39ab6107e8899845ad3d59bd9653f200f220920489ca2b5937696c3183604051612bc69190613bb3565b60405180910390a3505050565b5f612bdc612a63565b90508073ffffffffffffffffffffffffffffffffffffffff168673ffffffffffffffffffffffffffffffffffffffff1614158015612c215750612c1f868261215a565b155b15612c655780866040517fe237d922000000000000000000000000000000000000000000000000000000008152600401612c5c929190615897565b60405180910390fd5b612c728686868686612ed8565b505050505050565b5f73ffffffffffffffffffffffffffffffffffffffff168373ffffffffffffffffffffffffffffffffffffffff1603612cea575f6040517f01a83514000000000000000000000000000000000000000000000000000000008152600401612ce191906145b0565b60405180910390fd5b5f80612cf68484612d75565b91509150612d15855f848460405180602001604052805f815250612da5565b5050505050565b6060815f01805480602002602001604051908101604052809291908181526020018280548015612d6957602002820191905f5260205f20905b815481526020019060010190808311612d55575b50505050509050919050565b60608060405191506001825283602083015260408201905060018152826020820152604081016040529250929050565b612db185858585612fde565b5f73ffffffffffffffffffffffffffffffffffffffff168473ffffffffffffffffffffffffffffffffffffffff1614612e4a575f612ded612a63565b90506001845103612e39575f612e0c5f866128e590919063ffffffff16565b90505f612e225f866128e590919063ffffffff16565b9050612e32838989858589613374565b5050612e48565b612e47818787878787613523565b5b505b5050505050565b5f80836001015f8481526020019081526020015f20541415905092915050565b5f612e7c8383612e51565b612ece57825f0182908060018154018082558091505060019003905f5260205f20015f9091909190915055825f0180549050836001015f8481526020019081526020015f208190555060019050612ed2565b5f90505b92915050565b5f73ffffffffffffffffffffffffffffffffffffffff168473ffffffffffffffffffffffffffffffffffffffff1603612f48575f6040517f57f447ce000000000000000000000000000000000000000000000000000000008152600401612f3f91906145b0565b60405180910390fd5b5f73ffffffffffffffffffffffffffffffffffffffff168573ffffffffffffffffffffffffffffffffffffffff1603612fb8575f6040517f01a83514000000000000000000000000000000000000000000000000000000008152600401612faf91906145b0565b60405180910390fd5b5f80612fc48585612d75565b91509150612fd58787848487612da5565b50505050505050565b805182511461302857815181516040517f5b05999100000000000000000000000000000000000000000000000000000000815260040161301f92919061514d565b60405180910390fd5b5f613031612a63565b90505f5b8351811015613233575f61305282866128e590919063ffffffff16565b90505f61306883866128e590919063ffffffff16565b90505f73ffffffffffffffffffffffffffffffffffffffff168873ffffffffffffffffffffffffffffffffffffffff161461318b575f805f8481526020019081526020015f205f8a73ffffffffffffffffffffffffffffffffffffffff1673ffffffffffffffffffffffffffffffffffffffff1681526020019081526020015f205490508181101561313757888183856040517f03dee4c500000000000000000000000000000000000000000000000000000000815260040161312e94939291906158be565b60405180910390fd5b8181035f808581526020019081526020015f205f8b73ffffffffffffffffffffffffffffffffffffffff1673ffffffffffffffffffffffffffffffffffffffff1681526020019081526020015f2081905550505b5f73ffffffffffffffffffffffffffffffffffffffff168773ffffffffffffffffffffffffffffffffffffffff161461322057805f808481526020019081526020015f205f8973ffffffffffffffffffffffffffffffffffffffff1673ffffffffffffffffffffffffffffffffffffffff1681526020019081526020015f205f8282546132189190614c9d565b925050819055505b50508061322c906148ec565b9050613035565b5060018351036132ee575f6132515f856128e590919063ffffffff16565b90505f6132675f856128e590919063ffffffff16565b90508573ffffffffffffffffffffffffffffffffffffffff168773ffffffffffffffffffffffffffffffffffffffff168473ffffffffffffffffffffffffffffffffffffffff167fc3d58168c5ae7397731d063d5bbf3d657854427343f4c083240f7aacaa2d0f6285856040516132df92919061514d565b60405180910390a4505061336d565b8373ffffffffffffffffffffffffffffffffffffffff168573ffffffffffffffffffffffffffffffffffffffff168273ffffffffffffffffffffffffffffffffffffffff167f4a39dc06d4c0dbc64b70af90fd698a233a518aa5d07e595d983b8c0526c8f7fb8686604051613364929190615901565b60405180910390a45b5050505050565b5f8473ffffffffffffffffffffffffffffffffffffffff163b111561351b578373ffffffffffffffffffffffffffffffffffffffff1663f23a6e6187878686866040518663ffffffff1660e01b81526004016133d495949392919061597e565b6020604051808303815f875af192505050801561340f57506040513d601f19601f8201168201806040525081019061340c91906159ea565b60015b613490573d805f811461343d576040519150601f19603f3d011682016040523d82523d5f602084013e613442565b606091505b505f81510361348857846040517f57f447ce00000000000000000000000000000000000000000000000000000000815260040161347f91906145b0565b60405180910390fd5b805181602001fd5b63f23a6e6160e01b7bffffffffffffffffffffffffffffffffffffffffffffffffffffffff1916817bffffffffffffffffffffffffffffffffffffffffffffffffffffffff19161461351957846040517f57f447ce00000000000000000000000000000000000000000000000000000000815260040161351091906145b0565b60405180910390fd5b505b505050505050565b5f8473ffffffffffffffffffffffffffffffffffffffff163b11156136ca578373ffffffffffffffffffffffffffffffffffffffff1663bc197c8187878686866040518663ffffffff1660e01b8152600401613583959493929190615a15565b6020604051808303815f875af19250505080156135be57506040513d601f19601f820116820180604052508101906135bb91906159ea565b60015b61363f573d805f81146135ec576040519150601f19603f3d011682016040523d82523d5f602084013e6135f1565b606091505b505f81510361363757846040517f57f447ce00000000000000000000000000000000000000000000000000000000815260040161362e91906145b0565b60405180910390fd5b805181602001fd5b63bc197c8160e01b7bffffffffffffffffffffffffffffffffffffffffffffffffffffffff1916817bffffffffffffffffffffffffffffffffffffffffffffffffffffffff1916146136c857846040517f57f447ce0000000000000000000000000000000000000000000000000000000081526004016136bf91906145b0565b60405180910390fd5b505b505050505050565b60405180606001604052806060815260200160608152602001606081525090565b5080546136ff9061488f565b5f825580601f10613710575061372d565b601f0160209004905f5260205f209081019061372c9190613730565b5b50565b5b80821115613747575f815f905550600101613731565b5090565b5f604051905090565b5f80fd5b5f80fd5b5f73ffffffffffffffffffffffffffffffffffffffff82169050919050565b5f6137858261375c565b9050919050565b6137958161377b565b811461379f575f80fd5b50565b5f813590506137b08161378c565b92915050565b5f819050919050565b6137c8816137b6565b81146137d2575f80fd5b50565b5f813590506137e3816137bf565b92915050565b5f80604083850312156137ff576137fe613754565b5b5f61380c858286016137a2565b925050602061381d858286016137d5565b9150509250929050565b613830816137b6565b82525050565b5f6020820190506138495f830184613827565b92915050565b5f6020828403121561386457613863613754565b5b5f613871848285016137d5565b91505092915050565b5f81519050919050565b5f82825260208201905092915050565b5f819050602082019050919050565b5f67ffffffffffffffff82169050919050565b6138bf816138a3565b82525050565b5f6138d083836138b6565b60208301905092915050565b5f602082019050919050565b5f6138f28261387a565b6138fc8185613884565b935061390783613894565b805f5b8381101561393757815161391e88826138c5565b9750613929836138dc565b92505060018101905061390a565b5085935050505092915050565b5f81519050919050565b5f82825260208201905092915050565b5f819050602082019050919050565b5f81519050919050565b5f82825260208201905092915050565b5f5b838110156139a4578082015181840152602081019050613989565b5f8484015250505050565b5f601f19601f8301169050919050565b5f6139c98261396d565b6139d38185613977565b93506139e3818560208601613987565b6139ec816139af565b840191505092915050565b5f606083015f8301518482035f860152613a1182826139bf565b91505060208301518482036020860152613a2b82826139bf565b91505060408301518482036040860152613a4582826139bf565b9150508091505092915050565b5f613a5d83836139f7565b905092915050565b5f602082019050919050565b5f613a7b82613944565b613a85818561394e565b935083602082028501613a978561395e565b805f5b85811015613ad25784840389528151613ab38582613a52565b9450613abe83613a65565b925060208a01995050600181019050613a9a565b50829750879550505050505092915050565b5f6040820190508181035f830152613afc81856138e8565b90508181036020830152613b108184613a71565b90509392505050565b5f7fffffffff0000000000000000000000000000000000000000000000000000000082169050919050565b613b4d81613b19565b8114613b57575f80fd5b50565b5f81359050613b6881613b44565b92915050565b5f60208284031215613b8357613b82613754565b5b5f613b9084828501613b5a565b91505092915050565b5f8115159050919050565b613bad81613b99565b82525050565b5f602082019050613bc65f830184613ba4565b92915050565b5f82825260208201905092915050565b5f613be68261396d565b613bf08185613bcc565b9350613c00818560208601613987565b613c09816139af565b840191505092915050565b5f6020820190508181035f830152613c2c8184613bdc565b905092915050565b5f60208284031215613c4957613c48613754565b5b5f613c56848285016137a2565b91505092915050565b5f819050919050565b5f613c82613c7d613c788461375c565b613c5f565b61375c565b9050919050565b5f613c9382613c68565b9050919050565b5f613ca482613c89565b9050919050565b613cb481613c9a565b82525050565b5f602082019050613ccd5f830184613cab565b92915050565b5f80fd5b5f80fd5b5f80fd5b5f8083601f840112613cf457613cf3613cd3565b5b8235905067ffffffffffffffff811115613d1157613d10613cd7565b5b602083019150836001820283011115613d2d57613d2c613cdb565b5b9250929050565b5f8083601f840112613d4957613d48613cd3565b5b8235905067ffffffffffffffff811115613d6657613d65613cd7565b5b602083019150836001820283011115613d8257613d81613cdb565b5b9250929050565b5f805f805f8060808789031215613da357613da2613754565b5b5f613db089828a016137a2565b9650506020613dc189828a016137d5565b955050604087013567ffffffffffffffff811115613de257613de1613758565b5b613dee89828a01613cdf565b9450945050606087013567ffffffffffffffff811115613e1157613e10613758565b5b613e1d89828a01613d34565b92509250509295509295509295565b7f4e487b71000000000000000000000000000000000000000000000000000000005f52604160045260245ffd5b613e62826139af565b810181811067ffffffffffffffff82111715613e8157613e80613e2c565b5b80604052505050565b5f613e9361374b565b9050613e9f8282613e59565b919050565b5f67ffffffffffffffff821115613ebe57613ebd613e2c565b5b602082029050602081019050919050565b5f613ee1613edc84613ea4565b613e8a565b90508083825260208201905060208402830185811115613f0457613f03613cdb565b5b835b81811015613f2d5780613f1988826137d5565b845260208401935050602081019050613f06565b5050509392505050565b5f82601f830112613f4b57613f4a613cd3565b5b8135613f5b848260208601613ecf565b91505092915050565b5f80fd5b5f67ffffffffffffffff821115613f8257613f81613e2c565b5b613f8b826139af565b9050602081019050919050565b828183375f83830152505050565b5f613fb8613fb384613f68565b613e8a565b905082815260208101848484011115613fd457613fd3613f64565b5b613fdf848285613f98565b509392505050565b5f82601f830112613ffb57613ffa613cd3565b5b813561400b848260208601613fa6565b91505092915050565b5f805f805f60a0868803121561402d5761402c613754565b5b5f61403a888289016137a2565b955050602061404b888289016137a2565b945050604086013567ffffffffffffffff81111561406c5761406b613758565b5b61407888828901613f37565b935050606086013567ffffffffffffffff81111561409957614098613758565b5b6140a588828901613f37565b925050608086013567ffffffffffffffff8111156140c6576140c5613758565b5b6140d288828901613fe7565b9150509295509295909350565b6140e8816138a3565b81146140f2575f80fd5b50565b5f81359050614103816140df565b92915050565b5f806040838503121561411f5761411e613754565b5b5f61412c858286016137d5565b925050602061413d858286016140f5565b9150509250929050565b5f81519050919050565b5f82825260208201905092915050565b5f819050602082019050919050565b6141798161377b565b82525050565b5f61418a8383614170565b60208301905092915050565b5f602082019050919050565b5f6141ac82614147565b6141b68185614151565b93506141c183614161565b805f5b838110156141f15781516141d8888261417f565b97506141e383614196565b9250506001810190506141c4565b5085935050505092915050565b5f6020820190508181035f83015261421681846141a2565b905092915050565b5f67ffffffffffffffff82111561423857614237613e2c565b5b602082029050602081019050919050565b5f61425b6142568461421e565b613e8a565b9050808382526020820190506020840283018581111561427e5761427d613cdb565b5b835b818110156142a7578061429388826137a2565b845260208401935050602081019050614280565b5050509392505050565b5f82601f8301126142c5576142c4613cd3565b5b81356142d5848260208601614249565b91505092915050565b5f80604083850312156142f4576142f3613754565b5b5f83013567ffffffffffffffff81111561431157614310613758565b5b61431d858286016142b1565b925050602083013567ffffffffffffffff81111561433e5761433d613758565b5b61434a85828601613f37565b9150509250929050565b5f81519050919050565b5f82825260208201905092915050565b5f819050602082019050919050565b614386816137b6565b82525050565b5f614397838361437d565b60208301905092915050565b5f602082019050919050565b5f6143b982614354565b6143c3818561435e565b93506143ce8361436e565b805f5b838110156143fe5781516143e5888261438c565b97506143f0836143a3565b9250506001810190506143d1565b5085935050505092915050565b5f6020820190508181035f83015261442381846143af565b905092915050565b5f6144358261377b565b9050919050565b6144458161442b565b811461444f575f80fd5b50565b5f813590506144608161443c565b92915050565b5f80fd5b5f6060828403121561447f5761447e614466565b5b81905092915050565b5f805f805f805f805f8060e08b8d0312156144a6576144a5613754565b5b5f6144b38d828e016140f5565b9a505060208b013567ffffffffffffffff8111156144d4576144d3613758565b5b6144e08d828e01613d34565b995099505060406144f38d828e01614452565b97505060608b013567ffffffffffffffff81111561451457614513613758565b5b6145208d828e01613cdf565b965096505060806145338d828e016137d5565b94505060a08b013567ffffffffffffffff81111561455457614553613758565b5b6145608d828e01613d34565b935093505060c08b013567ffffffffffffffff81111561458357614582613758565b5b61458f8d828e0161446a565b9150509295989b9194979a5092959850565b6145aa8161377b565b82525050565b5f6020820190506145c35f8301846145a1565b92915050565b5f6060820190508181035f8301526145e18186613bdc565b905081810360208301526145f58185613bdc565b905081810360408301526146098184613bdc565b9050949350505050565b61461c81613b99565b8114614626575f80fd5b50565b5f8135905061463781614613565b92915050565b5f806040838503121561465357614652613754565b5b5f614660858286016137a2565b925050602061467185828601614629565b9150509250929050565b5f805f806060858703121561469357614692613754565b5b5f6146a0878288016137d5565b94505060206146b1878288016140f5565b935050604085013567ffffffffffffffff8111156146d2576146d1613758565b5b6146de87828801613d34565b925092505092959194509250565b6146f5816138a3565b82525050565b5f60208201905061470e5f8301846146ec565b92915050565b5f806040838503121561472a57614729613754565b5b5f614737858286016137a2565b9250506020614748858286016137a2565b9150509250929050565b5f805f805f60a0868803121561476b5761476a613754565b5b5f614778888289016137a2565b9550506020614789888289016137a2565b945050604061479a888289016137d5565b93505060606147ab888289016137d5565b925050608086013567ffffffffffffffff8111156147cc576147cb613758565b5b6147d888828901613fe7565b9150509295509295909350565b5f805f606084860312156147fc576147fb613754565b5b5f614809868287016137a2565b935050602061481a868287016137d5565b925050604061482b868287016137d5565b9150509250925092565b7f4e487b71000000000000000000000000000000000000000000000000000000005f52603260045260245ffd5b7f4e487b71000000000000000000000000000000000000000000000000000000005f52602260045260245ffd5b5f60028204905060018216806148a657607f821691505b6020821081036148b9576148b8614862565b5b50919050565b7f4e487b71000000000000000000000000000000000000000000000000000000005f52601160045260245ffd5b5f6148f6826137b6565b91507fffffffffffffffffffffffffffffffffffffffffffffffffffffffffffffffff8203614928576149276148bf565b5b600182019050919050565b5f61493d826137b6565b9150614948836137b6565b92508282039050818111156149605761495f6148bf565b5b92915050565b7f4e487b71000000000000000000000000000000000000000000000000000000005f52603160045260245ffd5b7f41646d696e206e6f7420666f756e6400000000000000000000000000000000005f82015250565b5f6149c7600f83613bcc565b91506149d282614993565b602082019050919050565b5f6020820190508181035f8301526149f4816149bb565b9050919050565b7f4e616d65207265717569726564000000000000000000000000000000000000005f82015250565b5f614a2f600d83613bcc565b9150614a3a826149fb565b602082019050919050565b5f6020820190508181035f830152614a5c81614a23565b9050919050565b5f81905092915050565b5f614a788385614a63565b9350614a85838584613f98565b82840190509392505050565b5f614a9d828486614a6d565b91508190509392505050565b5f819050815f5260205f209050919050565b5f8154614ac78161488f565b614ad18186614a63565b9450600182165f8114614aeb5760018114614b0057614b32565b60ff1983168652811515820286019350614b32565b614b0985614aa9565b5f5b83811015614b2a57815481890152600182019150602081019050614b0b565b838801955050505b50505092915050565b5f614b468284614abb565b915081905092915050565b5f819050919050565b614b6b614b66826137b6565b614b51565b82525050565b5f8160601b9050919050565b5f614b8782614b71565b9050919050565b5f614b9882614b7d565b9050919050565b614bb0614bab8261377b565b614b8e565b82525050565b5f81905092915050565b5f614bcb8385614bb6565b9350614bd8838584613f98565b82840190509392505050565b5f614bef8289614b5a565b602082019150614bff8288614b5a565b602082019150614c0f8287614b9f565b601482019150614c20828587614bc0565b9150614c2c8284614b5a565b602082019150819050979650505050505050565b7f4e487b71000000000000000000000000000000000000000000000000000000005f52601260045260245ffd5b5f614c77826137b6565b9150614c82836137b6565b925082614c9257614c91614c40565b5b828206905092915050565b5f614ca7826137b6565b9150614cb2836137b6565b9250828201905080821115614cca57614cc96148bf565b5b92915050565b7f556e61626c6520746f2066696e6420756e697175652073686f727420746f6b655f8201527f6e20494400000000000000000000000000000000000000000000000000000000602082015250565b5f614d2a602483613bcc565b9150614d3582614cd0565b604082019050919050565b5f6020820190508181035f830152614d5781614d1e565b9050919050565b7f546f6b656e494454616b656e00000000000000000000000000000000000000005f82015250565b5f614d92600c83613bcc565b9150614d9d82614d5e565b602082019050919050565b5f6020820190508181035f830152614dbf81614d86565b9050919050565b5f82905092915050565b5f819050815f5260205f209050919050565b5f6020601f8301049050919050565b5f82821b905092915050565b5f60088302614e2c7fffffffffffffffffffffffffffffffffffffffffffffffffffffffffffffffff82614df1565b614e368683614df1565b95508019841693508086168417925050509392505050565b5f614e68614e63614e5e846137b6565b613c5f565b6137b6565b9050919050565b5f819050919050565b614e8183614e4e565b614e95614e8d82614e6f565b848454614dfd565b825550505050565b5f90565b614ea9614e9d565b614eb4818484614e78565b505050565b5b81811015614ed757614ecc5f82614ea1565b600181019050614eba565b5050565b601f821115614f1c57614eed81614dd0565b614ef684614de2565b81016020851015614f05578190505b614f19614f1185614de2565b830182614eb9565b50505b505050565b5f82821c905092915050565b5f614f3c5f1984600802614f21565b1980831691505092915050565b5f614f548383614f2d565b9150826002028217905092915050565b614f6e8383614dc6565b67ffffffffffffffff811115614f8757614f86613e2c565b5b614f91825461488f565b614f9c828285614edb565b5f601f831160018114614fc9575f8415614fb7578287013590505b614fc18582614f49565b865550615028565b601f198416614fd786614dd0565b5f5b82811015614ffe57848901358255600182019150602085019450602081019050614fd9565b8683101561501b5784890135615017601f891682614f2d565b8355505b6001600288020188555050505b50505050505050565b7f455243313135353a204d69736d617463686564206172726179206c656e6774685f8201527f7300000000000000000000000000000000000000000000000000000000000000602082015250565b5f61508b602183613bcc565b915061509682615031565b604082019050919050565b5f6020820190508181035f8301526150b88161507f565b9050919050565b7f455243313135353a207472616e7366657220746f20746865207a65726f2061645f8201527f6472657373000000000000000000000000000000000000000000000000000000602082015250565b5f615119602583613bcc565b9150615124826150bf565b604082019050919050565b5f6020820190508181035f8301526151468161510d565b9050919050565b5f6040820190506151605f830185613827565b61516d6020830184613827565b9392505050565b7f43616c6c6572206973206e6f7420616e2061646d696e000000000000000000005f82015250565b5f6151a8601683613bcc565b91506151b382615174565b602082019050919050565b5f6020820190508181035f8301526151d58161519c565b9050919050565b7f746f6b656e20696420646f6573206e6f742065786973740000000000000000005f82015250565b5f615210601783613bcc565b915061521b826151dc565b602082019050919050565b5f6020820190508181035f83015261523d81615204565b9050919050565b7f50726f6f66207265717565737420646f6573206e6f74206578697374000000005f82015250565b5f615278601c83613bcc565b915061528382615244565b602082019050919050565b5f6020820190508181035f8301526152a58161526c565b9050919050565b7f496e76616c6964206164647265737300000000000000000000000000000000005f82015250565b5f6152e0600f83613bcc565b91506152eb826152ac565b602082019050919050565b5f6020820190508181035f83015261530d816152d4565b9050919050565b7f4164647265737320697320616c726561647920616e2061646d696e00000000005f82015250565b5f615348601b83613bcc565b915061535382615314565b602082019050919050565b5f6020820190508181035f8301526153758161533c565b9050919050565b5f61538682613c89565b9050919050565b6153968161537c565b82525050565b5f81519050919050565b5f82825260208201905092915050565b5f6153c08261539c565b6153ca81856153a6565b93506153da818560208601613987565b6153e3816139af565b840191505092915050565b5f606083015f8301518482035f86015261540882826139bf565b915050602083015161541d602086018261538d565b506040830151848203604086015261543582826153b6565b9150508091505092915050565b5f6040820190506154555f8301856146ec565b818103602083015261546781846153ee565b90509392505050565b5f80fd5b5f80fd5b5f80fd5b5f808335600160200384360303811261549857615497615470565b5b80840192508235915067ffffffffffffffff8211156154ba576154b9615474565b5b6020830192506001820236038313156154d6576154d5615478565b5b509250929050565b6154e78261396d565b67ffffffffffffffff811115615500576154ff613e2c565b5b61550a825461488f565b615515828285614edb565b5f60209050601f831160018114615546575f8415615534578287015190505b61553e8582614f49565b8655506155a5565b601f19841661555486614dd0565b5f5b8281101561557b57848901518255600182019150602085019450602081019050615556565b868310156155985784890151615594601f891682614f2d565b8355505b6001600288020188555050505b505050505050565b7f50726f6f66207265717565737420616c726561647920657869737473000000005f82015250565b5f6155e1601c83613bcc565b91506155ec826155ad565b602082019050919050565b5f6020820190508181035f83015261560e816155d5565b9050919050565b7f526f6c65206d757374206265202773656e64657227206f7220277265636569765f8201527f6572270000000000000000000000000000000000000000000000000000000000602082015250565b5f61566f602383613bcc565b915061567a82615615565b604082019050919050565b5f6020820190508181035f83015261569c81615663565b9050919050565b5f6040820190506156b65f8301856145a1565b6156c360208301846146ec565b9392505050565b5f80fd5b5f80fd5b5f815190506156e081614613565b92915050565b5f67ffffffffffffffff821115615700576156ff613e2c565b5b615709826139af565b9050602081019050919050565b5f615728615723846156e6565b613e8a565b90508281526020810184848401111561574457615743613f64565b5b61574f848285613987565b509392505050565b5f82601f83011261576b5761576a613cd3565b5b815161577b848260208601615716565b91505092915050565b5f81519050615792816137bf565b92915050565b5f608082840312156157ad576157ac6156ca565b5b6157b76080613e8a565b90505f6157c6848285016156d2565b5f83015250602082015167ffffffffffffffff8111156157e9576157e86156ce565b5b6157f584828501615757565b602083015250604061580984828501615784565b604083015250606061581d84828501615784565b60608301525092915050565b5f6020828403121561583e5761583d613754565b5b5f82015167ffffffffffffffff81111561585b5761585a613758565b5b61586784828501615798565b91505092915050565b5f6040820190506158835f8301856146ec565b61589060208301846145a1565b9392505050565b5f6040820190506158aa5f8301856145a1565b6158b760208301846145a1565b9392505050565b5f6080820190506158d15f8301876145a1565b6158de6020830186613827565b6158eb6040830185613827565b6158f86060830184613827565b95945050505050565b5f6040820190508181035f83015261591981856143af565b9050818103602083015261592d81846143af565b90509392505050565b5f82825260208201905092915050565b5f6159508261539c565b61595a8185615936565b935061596a818560208601613987565b615973816139af565b840191505092915050565b5f60a0820190506159915f8301886145a1565b61599e60208301876145a1565b6159ab6040830186613827565b6159b86060830185613827565b81810360808301526159ca8184615946565b90509695505050505050565b5f815190506159e481613b44565b92915050565b5f602082840312156159ff576159fe613754565b5b5f615a0c848285016159d6565b91505092915050565b5f60a082019050615a285f8301886145a1565b615a3560208301876145a1565b8181036040830152615a4781866143af565b90508181036060830152615a5b81856143af565b90508181036080830152615a6f8184615946565b9050969550505050505056fea264697066735822122059d731e55663530d097bf7215369bcb00619add82dffd69e844cffd165b0e8c064736f6c63430008140033', \n     arguments: [\n          verifier_,\n          initialOwner,\n          uri_,\n     ]\n}).send({\n     from: web3.eth.accounts[0], \n     gas: '4700000'\n   }, function (e, contract){\n    console.log(e, contract);\n    if (typeof contract.address !== 'undefined') {\n         console.log('Contract mined! address: ' + contract.address + ' transactionHash: ' + contract.transactionHash);\n    }\n })",
	"functionHashes": {
		"70480275": "addAdmin(address)",
		"c1f95913": "addProofRequestAndRole(uint256,uint64,string)",
		"7330dd84": "addProofRequest_VerifierAndPM(uint64,string,address,bytes,uint256,string,(string,string,string))",
		"7578b248": "allTokenIDs()",
		"00fdd58e": "balanceOf(address,uint256)",
		"4e1273f4": "balanceOfBatch(address[],uint256[])",
		"f5298aca": "burn(address,uint256,uint256)",
		"50fbdb2d": "deleteProofRequestAndRole(uint256,uint64)",
		"784008ce": "fungible_token()",
		"31ae450b": "getAdmins()",
		"01843a14": "getSpendingConditions(uint256)",
		"e985e9c5": "isApprovedForAll(address,address)",
		"2dbff950": "mintToken(address,uint256,bytes,string)",
		"cf5219ad": "non_fungible_token()",
		"8da5cb5b": "owner()",
		"d121cdc0": "proofRequestIDs(uint256)",
		"1785f53c": "removeAdmin(address)",
		"715018a6": "renounceOwnership()",
		"2eb2c2d6": "safeBatchTransferFrom(address,address,uint256[],uint256[],bytes)",
		"f242432a": "safeTransferFrom(address,address,uint256,uint256,bytes)",
		"a22cb465": "setApprovalForAll(address,bool)",
		"8ed46cfd": "spendingConditions(uint256,uint64)",
		"01ffc9a7": "supportsInterface(bytes4)",
		"2f4955f6": "tokenID_proofRequest_role(uint256,uint64)",
		"e725f877": "tokenName(uint256)",
		"f2fde38b": "transferOwnership(address)",
		"0e89341c": "uri(uint256)",
		"2b7ac3f3": "verifier()"
	},
	"gasEstimates": {
		"Creation": {
			"codeDepositCost": "4643400",
			"executionCost": "infinite",
			"totalCost": "infinite"
		},
		"External": {
			"addAdmin(address)": "infinite",
			"addProofRequestAndRole(uint256,uint64,string)": "infinite",
			"addProofRequest_VerifierAndPM(uint64,string,address,bytes,uint256,string,(string,string,string))": "infinite",
			"allTokenIDs()": "infinite",
			"balanceOf(address,uint256)": "infinite",
			"balanceOfBatch(address[],uint256[])": "infinite",
			"burn(address,uint256,uint256)": "infinite",
			"deleteProofRequestAndRole(uint256,uint64)": "infinite",
			"fungible_token()": "415",
			"getAdmins()": "infinite",
			"getSpendingConditions(uint256)": "infinite",
			"isApprovedForAll(address,address)": "infinite",
			"mintToken(address,uint256,bytes,string)": "infinite",
			"non_fungible_token()": "370",
			"owner()": "2560",
			"proofRequestIDs(uint256)": "6606",
			"removeAdmin(address)": "infinite",
			"renounceOwnership()": "infinite",
			"safeBatchTransferFrom(address,address,uint256[],uint256[],bytes)": "infinite",
			"safeTransferFrom(address,address,uint256,uint256,bytes)": "infinite",
			"setApprovalForAll(address,bool)": "infinite",
			"spendingConditions(uint256,uint64)": "infinite",
			"supportsInterface(bytes4)": "854",
			"tokenID_proofRequest_role(uint256,uint64)": "infinite",
			"tokenName(uint256)": "infinite",
			"transferOwnership(address)": "infinite",
			"uri(uint256)": "infinite",
			"verifier()": "infinite"
		},
		"Internal": {
			"_checkAllProofsVerified(uint256,address,address)": "infinite",
			"_isAdmin(address)": "infinite"
		}
	},
	"devdoc": {
		"errors": {
			"ERC1155InsufficientBalance(address,uint256,uint256,uint256)": [
				{
					"details": "Indicates an error related to the current `balance` of a `sender`. Used in transfers.",
					"params": {
						"balance": "Current balance for the interacting account.",
						"needed": "Minimum amount required to perform a transfer.",
						"sender": "Address whose tokens are being transferred.",
						"tokenId": "Identifier number of a token."
					}
				}
			],
			"ERC1155InvalidApprover(address)": [
				{
					"details": "Indicates a failure with the `approver` of a token to be approved. Used in approvals.",
					"params": {
						"approver": "Address initiating an approval operation."
					}
				}
			],
			"ERC1155InvalidArrayLength(uint256,uint256)": [
				{
					"details": "Indicates an array length mismatch between ids and values in a safeBatchTransferFrom operation. Used in batch transfers.",
					"params": {
						"idsLength": "Length of the array of token identifiers",
						"valuesLength": "Length of the array of token amounts"
					}
				}
			],
			"ERC1155InvalidOperator(address)": [
				{
					"details": "Indicates a failure with the `operator` to be approved. Used in approvals.",
					"params": {
						"operator": "Address that may be allowed to operate on tokens without being their owner."
					}
				}
			],
			"ERC1155InvalidReceiver(address)": [
				{
					"details": "Indicates a failure with the token `receiver`. Used in transfers.",
					"params": {
						"receiver": "Address to which tokens are being transferred."
					}
				}
			],
			"ERC1155InvalidSender(address)": [
				{
					"details": "Indicates a failure with the token `sender`. Used in transfers.",
					"params": {
						"sender": "Address whose tokens are being transferred."
					}
				}
			],
			"ERC1155MissingApprovalForAll(address,address)": [
				{
					"details": "Indicates a failure with the `operator`’s approval. Used in transfers.",
					"params": {
						"operator": "Address that may be allowed to operate on tokens without being their owner.",
						"owner": "Address of the current owner of a token."
					}
				}
			],
			"OwnableInvalidOwner(address)": [
				{
					"details": "The owner is not a valid owner account. (eg. `address(0)`)"
				}
			],
			"OwnableUnauthorizedAccount(address)": [
				{
					"details": "The caller account is not authorized to perform an operation."
				}
			]
		},
		"events": {
			"ApprovalForAll(address,address,bool)": {
				"details": "Emitted when `account` grants or revokes permission to `operator` to transfer their tokens, according to `approved`."
			},
			"TransferBatch(address,address,address,uint256[],uint256[])": {
				"details": "Equivalent to multiple {TransferSingle} events, where `operator`, `from` and `to` are the same for all transfers."
			},
			"TransferSingle(address,address,address,uint256,uint256)": {
				"details": "Emitted when `value` amount of tokens of type `id` are transferred from `from` to `to` by `operator`."
			},
			"URI(string,uint256)": {
				"details": "Emitted when the URI for token type `id` changes to `value`, if it is a non-programmatic URI. If an {URI} event was emitted for `id`, the standard https://eips.ethereum.org/EIPS/eip-1155#metadata-extensions[guarantees] that `value` will equal the value returned by {IERC1155MetadataURI-uri}."
			}
		},
		"kind": "dev",
		"methods": {
			"balanceOf(address,uint256)": {
				"details": "See {IERC1155-balanceOf}."
			},
			"balanceOfBatch(address[],uint256[])": {
				"details": "See {IERC1155-balanceOfBatch}. Requirements: - `accounts` and `ids` must have the same length."
			},
			"isApprovedForAll(address,address)": {
				"details": "See {IERC1155-isApprovedForAll}."
			},
			"mintToken(address,uint256,bytes,string)": {
				"details": "The function no longer requires the ID argument. The name must be non-empty."
			},
			"owner()": {
				"details": "Returns the address of the current owner."
			},
			"renounceOwnership()": {
				"details": "Leaves the contract without owner. It will not be possible to call `onlyOwner` functions. Can only be called by the current owner. NOTE: Renouncing ownership will leave the contract without an owner, thereby disabling any functionality that is only available to the owner."
			},
			"setApprovalForAll(address,bool)": {
				"details": "See {IERC1155-setApprovalForAll}."
			},
			"supportsInterface(bytes4)": {
				"details": "See {IERC165-supportsInterface}."
			},
			"transferOwnership(address)": {
				"details": "Transfers ownership of the contract to a new account (`newOwner`). Can only be called by the current owner."
			},
			"uri(uint256)": {
				"details": "See {IERC1155MetadataURI-uri}. This implementation returns the same URI for *all* token types. It relies on the token type ID substitution mechanism https://eips.ethereum.org/EIPS/eip-1155#metadata[defined in the ERC]. Clients calling this function must replace the `\\{id\\}` substring with the actual token type ID."
			}
		},
		"version": 1
	},
	"userdoc": {
		"kind": "user",
		"methods": {
			"allTokenIDs()": {
				"notice": "Returns the full list of token IDs ever minted"
			},
			"getSpendingConditions(uint256)": {
				"notice": "Get all spending conditions for a given tokenID"
			},
			"mintToken(address,uint256,bytes,string)": {
				"notice": "Mint a token by name. If the name exists, mint the existing token.  If the name does not exist, mint a new token with a random unused ID and assign the name. Anyone can call this function to mint a token, for testing purposes. In production, this function should be restricted to the owner or a specific role."
			}
		},
		"version": 1
	},
	"Runtime Bytecode": {
		"immutableReferences": {},
		"linkReferences": {},
		"object": "608060405234801561000f575f80fd5b50600436106101c1575f3560e01c80637330dd84116100f7578063cf5219ad11610095578063e985e9c51161006f578063e985e9c514610516578063f242432a14610546578063f2fde38b14610562578063f5298aca1461057e576101c1565b8063cf5219ad14610498578063d121cdc0146104b6578063e725f877146104e6576101c1565b80638da5cb5b116100d15780638da5cb5b146104105780638ed46cfd1461042e578063a22cb46514610460578063c1f959131461047c576101c1565b80637330dd84146103b85780637578b248146103d4578063784008ce146103f2576101c1565b80632eb2c2d6116101645780634e1273f41161013e5780634e1273f41461034657806350fbdb2d146103765780637048027514610392578063715018a6146103ae576101c1565b80632eb2c2d6146102dc5780632f4955f6146102f857806331ae450b14610328576101c1565b80630e89341c116101a05780630e89341c146102565780631785f53c146102865780632b7ac3f3146102a25780632dbff950146102c0576101c1565b8062fdd58e146101c557806301843a14146101f557806301ffc9a714610226575b5f80fd5b6101df60048036038101906101da91906137e9565b61059a565b6040516101ec9190613836565b60405180910390f35b61020f600480360381019061020a919061384f565b6105ef565b60405161021d929190613ae4565b60405180910390f35b610240600480360381019061023b9190613b6e565b610ac6565b60405161024d9190613bb3565b60405180910390f35b610270600480360381019061026b919061384f565b610ba7565b60405161027d9190613c14565b60405180910390f35b6102a0600480360381019061029b9190613c34565b610c39565b005b6102aa610e00565b6040516102b79190613cba565b60405180910390f35b6102da60048036038101906102d59190613d89565b610e25565b005b6102f660048036038101906102f19190614014565b611105565b005b610312600480360381019061030d9190614109565b611241565b60405161031f9190613c14565b60405180910390f35b6103306112e7565b60405161033d91906141fe565b60405180910390f35b610360600480360381019061035b91906142de565b61137a565b60405161036d919061440b565b60405180910390f35b610390600480360381019061038b9190614109565b611487565b005b6103ac60048036038101906103a79190613c34565b6117a6565b005b6103b66118c8565b005b6103d260048036038101906103cd9190614488565b6118db565b005b6103dc611bbb565b6040516103e9919061440b565b60405180910390f35b6103fa611bcc565b6040516104079190613836565b60405180910390f35b610418611bd1565b60405161042591906145b0565b60405180910390f35b61044860048036038101906104439190614109565b611bf9565b604051610457939291906145c9565b60405180910390f35b61047a6004803603810190610475919061463d565b611dbc565b005b6104966004803603810190610491919061467b565b611dd2565b005b6104a061207f565b6040516104ad9190613836565b60405180910390f35b6104d060048036038101906104cb919061384f565b612084565b6040516104dd91906146fb565b60405180910390f35b61050060048036038101906104fb919061384f565b6120bf565b60405161050d9190613c14565b60405180910390f35b610530600480360381019061052b9190614714565b61215a565b60405161053d9190613bb3565b60405180910390f35b610560600480360381019061055b9190614752565b6121e8565b005b61057c60048036038101906105779190613c34565b612207565b005b610598600480360381019061059391906147e5565b61228b565b005b5f805f8381526020019081526020015f205f8473ffffffffffffffffffffffffffffffffffffffff1673ffffffffffffffffffffffffffffffffffffffff1681526020019081526020015f2054905092915050565b6060805f600a80548060200260200160405190810160405280929190818152602001828054801561067057602002820191905f5260205f20905f905b82829054906101000a900467ffffffffffffffff1667ffffffffffffffff168152602001906008019060208260070104928301926001038202915080841161062b5790505b505050505090505f805b8251811015610709575f60095f8881526020019081526020015f205f8584815181106106a9576106a8614835565b5b602002602001015167ffffffffffffffff1667ffffffffffffffff1681526020019081526020015f205f0180546106df9061488f565b905011156106f65781806106f2906148ec565b9250505b8080610701906148ec565b91505061067a565b505f8167ffffffffffffffff81111561072557610724613e2c565b5b6040519080825280602002602001820160405280156107535781602001602082028036833780820191505090505b5090505f8267ffffffffffffffff81111561077157610770613e2c565b5b6040519080825280602002602001820160405280156107aa57816020015b6107976136d2565b81526020019060019003908161078f5790505b5090505f805b8551811015610ab5575f60095f8b81526020019081526020015f205f8884815181106107df576107de614835565b5b602002602001015167ffffffffffffffff1667ffffffffffffffff1681526020019081526020015f205f0180546108159061488f565b90501115610aa2578581815181106108305761082f614835565b5b602002602001015184838151811061084b5761084a614835565b5b602002602001019067ffffffffffffffff16908167ffffffffffffffff168152505060095f8a81526020019081526020015f205f87838151811061089257610891614835565b5b602002602001015167ffffffffffffffff1667ffffffffffffffff1681526020019081526020015f206040518060600160405290815f820180546108d59061488f565b80601f01602080910402602001604051908101604052809291908181526020018280546109019061488f565b801561094c5780601f106109235761010080835404028352916020019161094c565b820191905f5260205f20905b81548152906001019060200180831161092f57829003601f168201915b505050505081526020016001820180546109659061488f565b80601f01602080910402602001604051908101604052809291908181526020018280546109919061488f565b80156109dc5780601f106109b3576101008083540402835291602001916109dc565b820191905f5260205f20905b8154815290600101906020018083116109bf57829003601f168201915b505050505081526020016002820180546109f59061488f565b80601f0160208091040260200160405190810160405280929190818152602001828054610a219061488f565b8015610a6c5780601f10610a4357610100808354040283529160200191610a6c565b820191905f5260205f20905b815481529060010190602001808311610a4f57829003601f168201915b505050505081525050838381518110610a8857610a87614835565b5b60200260200101819052508180610a9e906148ec565b9250505b8080610aad906148ec565b9150506107b0565b508282965096505050505050915091565b5f7fd9b67a26000000000000000000000000000000000000000000000000000000007bffffffffffffffffffffffffffffffffffffffffffffffffffffffff1916827bffffffffffffffffffffffffffffffffffffffffffffffffffffffff19161480610b9057507f0e89341c000000000000000000000000000000000000000000000000000000007bffffffffffffffffffffffffffffffffffffffffffffffffffffffff1916827bffffffffffffffffffffffffffffffffffffffffffffffffffffffff1916145b80610ba05750610b9f826122a3565b5b9050919050565b606060028054610bb69061488f565b80601f0160208091040260200160405190810160405280929190818152602001828054610be29061488f565b8015610c2d5780601f10610c0457610100808354040283529160200191610c2d565b820191905f5260205f20905b815481529060010190602001808311610c1057829003601f168201915b50505050509050919050565b610c4161230c565b5f60048054905090505f5b81811015610dc1578273ffffffffffffffffffffffffffffffffffffffff1660048281548110610c7f57610c7e614835565b5b905f5260205f20015f9054906101000a900473ffffffffffffffffffffffffffffffffffffffff1673ffffffffffffffffffffffffffffffffffffffff1603610dae576004600183610cd19190614933565b81548110610ce257610ce1614835565b5b905f5260205f20015f9054906101000a900473ffffffffffffffffffffffffffffffffffffffff1660048281548110610d1e57610d1d614835565b5b905f5260205f20015f6101000a81548173ffffffffffffffffffffffffffffffffffffffff021916908373ffffffffffffffffffffffffffffffffffffffff1602179055506004805480610d7557610d74614966565b5b600190038181905f5260205f20015f6101000a81549073ffffffffffffffffffffffffffffffffffffffff021916905590555050610dfd565b8080610db9906148ec565b915050610c4c565b506040517f08c379a0000000000000000000000000000000000000000000000000000000008152600401610df4906149dd565b60405180910390fd5b50565b600b5f9054906101000a900473ffffffffffffffffffffffffffffffffffffffff1681565b5f8282905011610e6a576040517f08c379a0000000000000000000000000000000000000000000000000000000008152600401610e6190614a45565b60405180910390fd5b5f805f610e776005612393565b90505f5b8151811015610f1a578585604051610e94929190614a91565b604051809103902060075f848481518110610eb257610eb1614835565b5b602002602001015181526020019081526020015f20604051610ed49190614b3b565b604051809103902003610f0757818181518110610ef457610ef3614835565b5b6020026020010151935060019250610f1a565b8080610f12906148ec565b915050610e7b565b508115610f7557610f7089848a8a8a8080601f0160208091040260200160405190810160405280939291908181526020018383808284375f81840152601f19601f820116905080830192505050505050506123b2565b6110fa565b5f805f90505b62015f9042448d8a8a86604051602001610f9a96959493929190614be4565b604051602081830303815290604052805190602001205f1c610fbc9190614c6d565b6103e8610fc99190614c9d565b91508080610fd6906148ec565b9150506064811061101c576040517f08c379a000000000000000000000000000000000000000000000000000000000815260040161101390614d40565b60405180910390fd5b61103082600561244790919063ffffffff16565b610f7b5761104882600561245e90919063ffffffff16565b611087576040517f08c379a000000000000000000000000000000000000000000000000000000000815260040161107e90614da8565b60405180910390fd5b6110d68b838c8c8c8080601f0160208091040260200160405190810160405280939291908181526020018383808284375f81840152601f19601f820116905080830192505050505050506123b2565b868660075f8581526020019081526020015f2091826110f6929190614f64565b5050505b505050505050505050565b8151835114611149576040517f08c379a0000000000000000000000000000000000000000000000000000000008152600401611140906150a1565b60405180910390fd5b5f73ffffffffffffffffffffffffffffffffffffffff168473ffffffffffffffffffffffffffffffffffffffff16036111b7576040517f08c379a00000000000000000000000000000000000000000000000000000000081526004016111ae9061512f565b60405180910390fd5b5f5b8351811015611239576111e78482815181106111d8576111d7614835565b5b60200260200101518787612475565b61122886868684815181106111ff576111fe614835565b5b602002602001015186858151811061121a57611219614835565b5b6020026020010151866121e8565b80611232906148ec565b90506111b9565b505050505050565b6008602052815f5260405f20602052805f5260405f205f915091505080546112689061488f565b80601f01602080910402602001604051908101604052809291908181526020018280546112949061488f565b80156112df5780601f106112b6576101008083540402835291602001916112df565b820191905f5260205f20905b8154815290600101906020018083116112c257829003601f168201915b505050505081565b60606112f161230c565b600480548060200260200160405190810160405280929190818152602001828054801561137057602002820191905f5260205f20905b815f9054906101000a900473ffffffffffffffffffffffffffffffffffffffff1673ffffffffffffffffffffffffffffffffffffffff1681526020019060010190808311611327575b5050505050905090565b606081518351146113c657815183516040517f5b0599910000000000000000000000000000000000000000000000000000000081526004016113bd92919061514d565b60405180910390fd5b5f835167ffffffffffffffff8111156113e2576113e1613e2c565b5b6040519080825280602002602001820160405280156114105781602001602082028036833780820191505090505b5090505f5b845181101561147c5761144c61143482876128d290919063ffffffff16565b61144783876128e590919063ffffffff16565b61059a565b82828151811061145f5761145e614835565b5b60200260200101818152505080611475906148ec565b9050611415565b508091505092915050565b611490336128f8565b6114cf576040517f08c379a00000000000000000000000000000000000000000000000000000000081526004016114c6906151be565b60405180910390fd5b6114e382600561244790919063ffffffff16565b611522576040517f08c379a000000000000000000000000000000000000000000000000000000000815260040161151990615226565b60405180910390fd5b5f60085f8481526020019081526020015f205f8367ffffffffffffffff1667ffffffffffffffff1681526020019081526020015f2080546115629061488f565b9050036115a4576040517f08c379a000000000000000000000000000000000000000000000000000000000815260040161159b9061528e565b60405180910390fd5b60085f8381526020019081526020015f205f8267ffffffffffffffff1667ffffffffffffffff1681526020019081526020015f205f6115e391906136f3565b60095f8381526020019081526020015f205f8267ffffffffffffffff1667ffffffffffffffff1681526020019081526020015f205f8082015f61162691906136f3565b600182015f61163591906136f3565b600282015f61164491906136f3565b50505f5b600a805490508110156117a1578167ffffffffffffffff16600a828154811061167457611673614835565b5b905f5260205f2090600491828204019190066008029054906101000a900467ffffffffffffffff1667ffffffffffffffff160361178e57600a6001600a805490506116bf9190614933565b815481106116d0576116cf614835565b5b905f5260205f2090600491828204019190066008029054906101000a900467ffffffffffffffff16600a828154811061170c5761170b614835565b5b905f5260205f2090600491828204019190066008026101000a81548167ffffffffffffffff021916908367ffffffffffffffff160217905550600a80548061175757611756614966565b5b600190038181905f5260205f2090600491828204019190066008026101000a81549067ffffffffffffffff021916905590556117a1565b8080611799906148ec565b915050611648565b505050565b6117ae61230c565b5f73ffffffffffffffffffffffffffffffffffffffff168173ffffffffffffffffffffffffffffffffffffffff160361181c576040517f08c379a0000000000000000000000000000000000000000000000000000000008152600401611813906152f6565b60405180910390fd5b611825816128f8565b15611865576040517f08c379a000000000000000000000000000000000000000000000000000000000815260040161185c9061535e565b60405180910390fd5b600481908060018154018082558091505060019003905f5260205f20015f9091909190916101000a81548173ffffffffffffffffffffffffffffffffffffffff021916908373ffffffffffffffffffffffffffffffffffffffff16021790555050565b6118d061230c565b6118d95f6129a0565b565b5f60405180606001604052808b8b8080601f0160208091040260200160405190810160405280939291908181526020018383808284375f81840152601f19601f8201169050808301925050505050505081526020018973ffffffffffffffffffffffffffffffffffffffff16815260200188888080601f0160208091040260200160405190810160405280939291908181526020018383808284375f81840152601f19601f820116905080830192505050505050508152509050600b5f9054906101000a900473ffffffffffffffffffffffffffffffffffffffff1673ffffffffffffffffffffffffffffffffffffffff16639f5223e08c836040518363ffffffff1660e01b81526004016119f1929190615442565b5f604051808303815f87803b158015611a08575f80fd5b505af1158015611a1a573d5f803e3d5ffd5b50505050611a2a858c8686611dd2565b604051806060016040528083805f0190611a44919061547c565b8080601f0160208091040260200160405190810160405280939291908181526020018383808284375f81840152601f19601f820116905080830192505050505050508152602001838060200190611a9b919061547c565b8080601f0160208091040260200160405190810160405280939291908181526020018383808284375f81840152601f19601f820116905080830192505050505050508152602001838060400190611af2919061547c565b8080601f0160208091040260200160405190810160405280939291908181526020018383808284375f81840152601f19601f8201169050808301925050505050505081525060095f8781526020019081526020015f205f8d67ffffffffffffffff1667ffffffffffffffff1681526020019081526020015f205f820151815f019081611b7e91906154de565b506020820151816001019081611b9491906154de565b506040820151816002019081611baa91906154de565b509050505050505050505050505050565b6060611bc76005612393565b905090565b600181565b5f60035f9054906101000a900473ffffffffffffffffffffffffffffffffffffffff16905090565b6009602052815f5260405f20602052805f5260405f205f9150915050805f018054611c239061488f565b80601f0160208091040260200160405190810160405280929190818152602001828054611c4f9061488f565b8015611c9a5780601f10611c7157610100808354040283529160200191611c9a565b820191905f5260205f20905b815481529060010190602001808311611c7d57829003601f168201915b505050505090806001018054611caf9061488f565b80601f0160208091040260200160405190810160405280929190818152602001828054611cdb9061488f565b8015611d265780601f10611cfd57610100808354040283529160200191611d26565b820191905f5260205f20905b815481529060010190602001808311611d0957829003601f168201915b505050505090806002018054611d3b9061488f565b80601f0160208091040260200160405190810160405280929190818152602001828054611d679061488f565b8015611db25780601f10611d8957610100808354040283529160200191611db2565b820191905f5260205f20905b815481529060010190602001808311611d9557829003601f168201915b5050505050905083565b611dce611dc7612a63565b8383612a6a565b5050565b611ddb336128f8565b611e1a576040517f08c379a0000000000000000000000000000000000000000000000000000000008152600401611e11906151be565b60405180910390fd5b611e2e84600561244790919063ffffffff16565b611e6d576040517f08c379a0000000000000000000000000000000000000000000000000000000008152600401611e6490615226565b60405180910390fd5b5f60085f8681526020019081526020015f205f8567ffffffffffffffff1667ffffffffffffffff1681526020019081526020015f208054611ead9061488f565b905014611eef576040517f08c379a0000000000000000000000000000000000000000000000000000000008152600401611ee6906155f7565b60405180910390fd5b6040518060400160405280600681526020017f73656e6465720000000000000000000000000000000000000000000000000000815250805190602001208282604051611f3c929190614a91565b60405180910390201480611fa257506040518060400160405280600881526020017f7265636569766572000000000000000000000000000000000000000000000000815250805190602001208282604051611f98929190614a91565b6040518091039020145b611fe1576040517f08c379a0000000000000000000000000000000000000000000000000000000008152600401611fd890615685565b60405180910390fd5b818160085f8781526020019081526020015f205f8667ffffffffffffffff1667ffffffffffffffff1681526020019081526020015f209182612024929190614f64565b50600a83908060018154018082558091505060019003905f5260205f2090600491828204019190066008029091909190916101000a81548167ffffffffffffffff021916908367ffffffffffffffff16021790555050505050565b600281565b600a8181548110612093575f80fd5b905f5260205f209060049182820401919006600802915054906101000a900467ffffffffffffffff1681565b6007602052805f5260405f205f9150905080546120db9061488f565b80601f01602080910402602001604051908101604052809291908181526020018280546121079061488f565b80156121525780601f1061212957610100808354040283529160200191612152565b820191905f5260205f20905b81548152906001019060200180831161213557829003601f168201915b505050505081565b5f60015f8473ffffffffffffffffffffffffffffffffffffffff1673ffffffffffffffffffffffffffffffffffffffff1681526020019081526020015f205f8373ffffffffffffffffffffffffffffffffffffffff1673ffffffffffffffffffffffffffffffffffffffff1681526020019081526020015f205f9054906101000a900460ff16905092915050565b6121f3838686612475565b6122008585858585612bd3565b5050505050565b61220f61230c565b5f73ffffffffffffffffffffffffffffffffffffffff168173ffffffffffffffffffffffffffffffffffffffff160361227f575f6040517f1e4fbdf700000000000000000000000000000000000000000000000000000000815260040161227691906145b0565b60405180910390fd5b612288816129a0565b50565b61229361230c565b61229e838383612c7a565b505050565b5f7f01ffc9a7000000000000000000000000000000000000000000000000000000007bffffffffffffffffffffffffffffffffffffffffffffffffffffffff1916827bffffffffffffffffffffffffffffffffffffffffffffffffffffffff1916149050919050565b612314612a63565b73ffffffffffffffffffffffffffffffffffffffff16612332611bd1565b73ffffffffffffffffffffffffffffffffffffffff161461239157612355612a63565b6040517f118cdaa700000000000000000000000000000000000000000000000000000000815260040161238891906145b0565b60405180910390fd5b565b60605f6123a1835f01612d1c565b905060608190508092505050919050565b5f73ffffffffffffffffffffffffffffffffffffffff168473ffffffffffffffffffffffffffffffffffffffff1603612422575f6040517f57f447ce00000000000000000000000000000000000000000000000000000000815260040161241991906145b0565b60405180910390fd5b5f8061242e8585612d75565b9150915061243f5f87848487612da5565b505050505050565b5f612456835f01835f1b612e51565b905092915050565b5f61246d835f01835f1b612e71565b905092915050565b5f600a8054806020026020016040519081016040528092919081815260200182805480156124f357602002820191905f5260205f20905f905b82829054906101000a900467ffffffffffffffff1667ffffffffffffffff16815260200190600801906020826007010492830192600103820291508084116124ae5790505b505050505090505f5b81518110156128cb575f60085f8781526020019081526020015f205f84848151811061252b5761252a614835565b5b602002602001015167ffffffffffffffff1667ffffffffffffffff1681526020019081526020015f20805461255f9061488f565b80601f016020809104026020016040519081016040528092919081815260200182805461258b9061488f565b80156125d65780601f106125ad576101008083540402835291602001916125d6565b820191905f5260205f20905b8154815290600101906020018083116125b957829003601f168201915b505050505090505f8151036125eb57506128b8565b6040518060400160405280600681526020017f73656e64657200000000000000000000000000000000000000000000000000008152508051906020012081805190602001200361275257600b5f9054906101000a900473ffffffffffffffffffffffffffffffffffffffff1673ffffffffffffffffffffffffffffffffffffffff16638c1da2c98685858151811061268657612685614835565b5b60200260200101516040518363ffffffff1660e01b81526004016126ab9291906156a3565b5f60405180830381865afa1580156126c5573d5f803e3d5ffd5b505050506040513d5f823e3d601f19601f820116820180604052508101906126ed9190615829565b5f015161274d5782828151811061270757612706614835565b5b6020026020010151856040517fa5a4608e000000000000000000000000000000000000000000000000000000008152600401612744929190615870565b60405180910390fd5b6128b6565b6040518060400160405280600881526020017f7265636569766572000000000000000000000000000000000000000000000000815250805190602001208180519060200120036128b557600b5f9054906101000a900473ffffffffffffffffffffffffffffffffffffffff1673ffffffffffffffffffffffffffffffffffffffff16638c1da2c9858585815181106127ed576127ec614835565b5b60200260200101516040518363ffffffff1660e01b81526004016128129291906156a3565b5f60405180830381865afa15801561282c573d5f803e3d5ffd5b505050506040513d5f823e3d601f19601f820116820180604052508101906128549190615829565b5f01516128b45782828151811061286e5761286d614835565b5b6020026020010151846040517fa5a4608e0000000000000000000000000000000000000000000000000000000081526004016128ab929190615870565b60405180910390fd5b5b5b505b80806128c3906148ec565b9150506124fc565b5050505050565b5f60208202602084010151905092915050565b5f60208202602084010151905092915050565b5f805f90505b600480549050811015612996578273ffffffffffffffffffffffffffffffffffffffff166004828154811061293657612935614835565b5b905f5260205f20015f9054906101000a900473ffffffffffffffffffffffffffffffffffffffff1673ffffffffffffffffffffffffffffffffffffffff160361298357600191505061299b565b808061298e906148ec565b9150506128fe565b505f90505b919050565b5f60035f9054906101000a900473ffffffffffffffffffffffffffffffffffffffff1690508160035f6101000a81548173ffffffffffffffffffffffffffffffffffffffff021916908373ffffffffffffffffffffffffffffffffffffffff1602179055508173ffffffffffffffffffffffffffffffffffffffff168173ffffffffffffffffffffffffffffffffffffffff167f8be0079c531659141344cd1fd0a4f28419497f9722a3daafe3b4186f6b6457e060405160405180910390a35050565b5f33905090565b5f73ffffffffffffffffffffffffffffffffffffffff168273ffffffffffffffffffffffffffffffffffffffff1603612ada575f6040517fced3e100000000000000000000000000000000000000000000000000000000008152600401612ad191906145b0565b60405180910390fd5b8060015f8573ffffffffffffffffffffffffffffffffffffffff1673ffffffffffffffffffffffffffffffffffffffff1681526020019081526020015f205f8473ffffffffffffffffffffffffffffffffffffffff1673ffffffffffffffffffffffffffffffffffffffff1681526020019081526020015f205f6101000a81548160ff0219169083151502179055508173ffffffffffffffffffffffffffffffffffffffff168373ffffffffffffffffffffffffffffffffffffffff167f17307eab39ab6107e8899845ad3d59bd9653f200f220920489ca2b5937696c3183604051612bc69190613bb3565b60405180910390a3505050565b5f612bdc612a63565b90508073ffffffffffffffffffffffffffffffffffffffff168673ffffffffffffffffffffffffffffffffffffffff1614158015612c215750612c1f868261215a565b155b15612c655780866040517fe237d922000000000000000000000000000000000000000000000000000000008152600401612c5c929190615897565b60405180910390fd5b612c728686868686612ed8565b505050505050565b5f73ffffffffffffffffffffffffffffffffffffffff168373ffffffffffffffffffffffffffffffffffffffff1603612cea575f6040517f01a83514000000000000000000000000000000000000000000000000000000008152600401612ce191906145b0565b60405180910390fd5b5f80612cf68484612d75565b91509150612d15855f848460405180602001604052805f815250612da5565b5050505050565b6060815f01805480602002602001604051908101604052809291908181526020018280548015612d6957602002820191905f5260205f20905b815481526020019060010190808311612d55575b50505050509050919050565b60608060405191506001825283602083015260408201905060018152826020820152604081016040529250929050565b612db185858585612fde565b5f73ffffffffffffffffffffffffffffffffffffffff168473ffffffffffffffffffffffffffffffffffffffff1614612e4a575f612ded612a63565b90506001845103612e39575f612e0c5f866128e590919063ffffffff16565b90505f612e225f866128e590919063ffffffff16565b9050612e32838989858589613374565b5050612e48565b612e47818787878787613523565b5b505b5050505050565b5f80836001015f8481526020019081526020015f20541415905092915050565b5f612e7c8383612e51565b612ece57825f0182908060018154018082558091505060019003905f5260205f20015f9091909190915055825f0180549050836001015f8481526020019081526020015f208190555060019050612ed2565b5f90505b92915050565b5f73ffffffffffffffffffffffffffffffffffffffff168473ffffffffffffffffffffffffffffffffffffffff1603612f48575f6040517f57f447ce000000000000000000000000000000000000000000000000000000008152600401612f3f91906145b0565b60405180910390fd5b5f73ffffffffffffffffffffffffffffffffffffffff168573ffffffffffffffffffffffffffffffffffffffff1603612fb8575f6040517f01a83514000000000000000000000000000000000000000000000000000000008152600401612faf91906145b0565b60405180910390fd5b5f80612fc48585612d75565b91509150612fd58787848487612da5565b50505050505050565b805182511461302857815181516040517f5b05999100000000000000000000000000000000000000000000000000000000815260040161301f92919061514d565b60405180910390fd5b5f613031612a63565b90505f5b8351811015613233575f61305282866128e590919063ffffffff16565b90505f61306883866128e590919063ffffffff16565b90505f73ffffffffffffffffffffffffffffffffffffffff168873ffffffffffffffffffffffffffffffffffffffff161461318b575f805f8481526020019081526020015f205f8a73ffffffffffffffffffffffffffffffffffffffff1673ffffffffffffffffffffffffffffffffffffffff1681526020019081526020015f205490508181101561313757888183856040517f03dee4c500000000000000000000000000000000000000000000000000000000815260040161312e94939291906158be565b60405180910390fd5b8181035f808581526020019081526020015f205f8b73ffffffffffffffffffffffffffffffffffffffff1673ffffffffffffffffffffffffffffffffffffffff1681526020019081526020015f2081905550505b5f73ffffffffffffffffffffffffffffffffffffffff168773ffffffffffffffffffffffffffffffffffffffff161461322057805f808481526020019081526020015f205f8973ffffffffffffffffffffffffffffffffffffffff1673ffffffffffffffffffffffffffffffffffffffff1681526020019081526020015f205f8282546132189190614c9d565b925050819055505b50508061322c906148ec565b9050613035565b5060018351036132ee575f6132515f856128e590919063ffffffff16565b90505f6132675f856128e590919063ffffffff16565b90508573ffffffffffffffffffffffffffffffffffffffff168773ffffffffffffffffffffffffffffffffffffffff168473ffffffffffffffffffffffffffffffffffffffff167fc3d58168c5ae7397731d063d5bbf3d657854427343f4c083240f7aacaa2d0f6285856040516132df92919061514d565b60405180910390a4505061336d565b8373ffffffffffffffffffffffffffffffffffffffff168573ffffffffffffffffffffffffffffffffffffffff168273ffffffffffffffffffffffffffffffffffffffff167f4a39dc06d4c0dbc64b70af90fd698a233a518aa5d07e595d983b8c0526c8f7fb8686604051613364929190615901565b60405180910390a45b5050505050565b5f8473ffffffffffffffffffffffffffffffffffffffff163b111561351b578373ffffffffffffffffffffffffffffffffffffffff1663f23a6e6187878686866040518663ffffffff1660e01b81526004016133d495949392919061597e565b6020604051808303815f875af192505050801561340f57506040513d601f19601f8201168201806040525081019061340c91906159ea565b60015b613490573d805f811461343d576040519150601f19603f3d011682016040523d82523d5f602084013e613442565b606091505b505f81510361348857846040517f57f447ce00000000000000000000000000000000000000000000000000000000815260040161347f91906145b0565b60405180910390fd5b805181602001fd5b63f23a6e6160e01b7bffffffffffffffffffffffffffffffffffffffffffffffffffffffff1916817bffffffffffffffffffffffffffffffffffffffffffffffffffffffff19161461351957846040517f57f447ce00000000000000000000000000000000000000000000000000000000815260040161351091906145b0565b60405180910390fd5b505b505050505050565b5f8473ffffffffffffffffffffffffffffffffffffffff163b11156136ca578373ffffffffffffffffffffffffffffffffffffffff1663bc197c8187878686866040518663ffffffff1660e01b8152600401613583959493929190615a15565b6020604051808303815f875af19250505080156135be57506040513d601f19601f820116820180604052508101906135bb91906159ea565b60015b61363f573d805f81146135ec576040519150601f19603f3d011682016040523d82523d5f602084013e6135f1565b606091505b505f81510361363757846040517f57f447ce00000000000000000000000000000000000000000000000000000000815260040161362e91906145b0565b60405180910390fd5b805181602001fd5b63bc197c8160e01b7bffffffffffffffffffffffffffffffffffffffffffffffffffffffff1916817bffffffffffffffffffffffffffffffffffffffffffffffffffffffff1916146136c857846040517f57f447ce0000000000000000000000000000000000000000000000000000000081526004016136bf91906145b0565b60405180910390fd5b505b505050505050565b60405180606001604052806060815260200160608152602001606081525090565b5080546136ff9061488f565b5f825580601f10613710575061372d565b601f0160209004905f5260205f209081019061372c9190613730565b5b50565b5b80821115613747575f815f905550600101613731565b5090565b5f604051905090565b5f80fd5b5f80fd5b5f73ffffffffffffffffffffffffffffffffffffffff82169050919050565b5f6137858261375c565b9050919050565b6137958161377b565b811461379f575f80fd5b50565b5f813590506137b08161378c565b92915050565b5f819050919050565b6137c8816137b6565b81146137d2575f80fd5b50565b5f813590506137e3816137bf565b92915050565b5f80604083850312156137ff576137fe613754565b5b5f61380c858286016137a2565b925050602061381d858286016137d5565b9150509250929050565b613830816137b6565b82525050565b5f6020820190506138495f830184613827565b92915050565b5f6020828403121561386457613863613754565b5b5f613871848285016137d5565b91505092915050565b5f81519050919050565b5f82825260208201905092915050565b5f819050602082019050919050565b5f67ffffffffffffffff82169050919050565b6138bf816138a3565b82525050565b5f6138d083836138b6565b60208301905092915050565b5f602082019050919050565b5f6138f28261387a565b6138fc8185613884565b935061390783613894565b805f5b8381101561393757815161391e88826138c5565b9750613929836138dc565b92505060018101905061390a565b5085935050505092915050565b5f81519050919050565b5f82825260208201905092915050565b5f819050602082019050919050565b5f81519050919050565b5f82825260208201905092915050565b5f5b838110156139a4578082015181840152602081019050613989565b5f8484015250505050565b5f601f19601f8301169050919050565b5f6139c98261396d565b6139d38185613977565b93506139e3818560208601613987565b6139ec816139af565b840191505092915050565b5f606083015f8301518482035f860152613a1182826139bf565b91505060208301518482036020860152613a2b82826139bf565b91505060408301518482036040860152613a4582826139bf565b9150508091505092915050565b5f613a5d83836139f7565b905092915050565b5f602082019050919050565b5f613a7b82613944565b613a85818561394e565b935083602082028501613a978561395e565b805f5b85811015613ad25784840389528151613ab38582613a52565b9450613abe83613a65565b925060208a01995050600181019050613a9a565b50829750879550505050505092915050565b5f6040820190508181035f830152613afc81856138e8565b90508181036020830152613b108184613a71565b90509392505050565b5f7fffffffff0000000000000000000000000000000000000000000000000000000082169050919050565b613b4d81613b19565b8114613b57575f80fd5b50565b5f81359050613b6881613b44565b92915050565b5f60208284031215613b8357613b82613754565b5b5f613b9084828501613b5a565b91505092915050565b5f8115159050919050565b613bad81613b99565b82525050565b5f602082019050613bc65f830184613ba4565b92915050565b5f82825260208201905092915050565b5f613be68261396d565b613bf08185613bcc565b9350613c00818560208601613987565b613c09816139af565b840191505092915050565b5f6020820190508181035f830152613c2c8184613bdc565b905092915050565b5f60208284031215613c4957613c48613754565b5b5f613c56848285016137a2565b91505092915050565b5f819050919050565b5f613c82613c7d613c788461375c565b613c5f565b61375c565b9050919050565b5f613c9382613c68565b9050919050565b5f613ca482613c89565b9050919050565b613cb481613c9a565b82525050565b5f602082019050613ccd5f830184613cab565b92915050565b5f80fd5b5f80fd5b5f80fd5b5f8083601f840112613cf457613cf3613cd3565b5b8235905067ffffffffffffffff811115613d1157613d10613cd7565b5b602083019150836001820283011115613d2d57613d2c613cdb565b5b9250929050565b5f8083601f840112613d4957613d48613cd3565b5b8235905067ffffffffffffffff811115613d6657613d65613cd7565b5b602083019150836001820283011115613d8257613d81613cdb565b5b9250929050565b5f805f805f8060808789031215613da357613da2613754565b5b5f613db089828a016137a2565b9650506020613dc189828a016137d5565b955050604087013567ffffffffffffffff811115613de257613de1613758565b5b613dee89828a01613cdf565b9450945050606087013567ffffffffffffffff811115613e1157613e10613758565b5b613e1d89828a01613d34565b92509250509295509295509295565b7f4e487b71000000000000000000000000000000000000000000000000000000005f52604160045260245ffd5b613e62826139af565b810181811067ffffffffffffffff82111715613e8157613e80613e2c565b5b80604052505050565b5f613e9361374b565b9050613e9f8282613e59565b919050565b5f67ffffffffffffffff821115613ebe57613ebd613e2c565b5b602082029050602081019050919050565b5f613ee1613edc84613ea4565b613e8a565b90508083825260208201905060208402830185811115613f0457613f03613cdb565b5b835b81811015613f2d5780613f1988826137d5565b845260208401935050602081019050613f06565b5050509392505050565b5f82601f830112613f4b57613f4a613cd3565b5b8135613f5b848260208601613ecf565b91505092915050565b5f80fd5b5f67ffffffffffffffff821115613f8257613f81613e2c565b5b613f8b826139af565b9050602081019050919050565b828183375f83830152505050565b5f613fb8613fb384613f68565b613e8a565b905082815260208101848484011115613fd457613fd3613f64565b5b613fdf848285613f98565b509392505050565b5f82601f830112613ffb57613ffa613cd3565b5b813561400b848260208601613fa6565b91505092915050565b5f805f805f60a0868803121561402d5761402c613754565b5b5f61403a888289016137a2565b955050602061404b888289016137a2565b945050604086013567ffffffffffffffff81111561406c5761406b613758565b5b61407888828901613f37565b935050606086013567ffffffffffffffff81111561409957614098613758565b5b6140a588828901613f37565b925050608086013567ffffffffffffffff8111156140c6576140c5613758565b5b6140d288828901613fe7565b9150509295509295909350565b6140e8816138a3565b81146140f2575f80fd5b50565b5f81359050614103816140df565b92915050565b5f806040838503121561411f5761411e613754565b5b5f61412c858286016137d5565b925050602061413d858286016140f5565b9150509250929050565b5f81519050919050565b5f82825260208201905092915050565b5f819050602082019050919050565b6141798161377b565b82525050565b5f61418a8383614170565b60208301905092915050565b5f602082019050919050565b5f6141ac82614147565b6141b68185614151565b93506141c183614161565b805f5b838110156141f15781516141d8888261417f565b97506141e383614196565b9250506001810190506141c4565b5085935050505092915050565b5f6020820190508181035f83015261421681846141a2565b905092915050565b5f67ffffffffffffffff82111561423857614237613e2c565b5b602082029050602081019050919050565b5f61425b6142568461421e565b613e8a565b9050808382526020820190506020840283018581111561427e5761427d613cdb565b5b835b818110156142a7578061429388826137a2565b845260208401935050602081019050614280565b5050509392505050565b5f82601f8301126142c5576142c4613cd3565b5b81356142d5848260208601614249565b91505092915050565b5f80604083850312156142f4576142f3613754565b5b5f83013567ffffffffffffffff81111561431157614310613758565b5b61431d858286016142b1565b925050602083013567ffffffffffffffff81111561433e5761433d613758565b5b61434a85828601613f37565b9150509250929050565b5f81519050919050565b5f82825260208201905092915050565b5f819050602082019050919050565b614386816137b6565b82525050565b5f614397838361437d565b60208301905092915050565b5f602082019050919050565b5f6143b982614354565b6143c3818561435e565b93506143ce8361436e565b805f5b838110156143fe5781516143e5888261438c565b97506143f0836143a3565b9250506001810190506143d1565b5085935050505092915050565b5f6020820190508181035f83015261442381846143af565b905092915050565b5f6144358261377b565b9050919050565b6144458161442b565b811461444f575f80fd5b50565b5f813590506144608161443c565b92915050565b5f80fd5b5f6060828403121561447f5761447e614466565b5b81905092915050565b5f805f805f805f805f8060e08b8d0312156144a6576144a5613754565b5b5f6144b38d828e016140f5565b9a505060208b013567ffffffffffffffff8111156144d4576144d3613758565b5b6144e08d828e01613d34565b995099505060406144f38d828e01614452565b97505060608b013567ffffffffffffffff81111561451457614513613758565b5b6145208d828e01613cdf565b965096505060806145338d828e016137d5565b94505060a08b013567ffffffffffffffff81111561455457614553613758565b5b6145608d828e01613d34565b935093505060c08b013567ffffffffffffffff81111561458357614582613758565b5b61458f8d828e0161446a565b9150509295989b9194979a5092959850565b6145aa8161377b565b82525050565b5f6020820190506145c35f8301846145a1565b92915050565b5f6060820190508181035f8301526145e18186613bdc565b905081810360208301526145f58185613bdc565b905081810360408301526146098184613bdc565b9050949350505050565b61461c81613b99565b8114614626575f80fd5b50565b5f8135905061463781614613565b92915050565b5f806040838503121561465357614652613754565b5b5f614660858286016137a2565b925050602061467185828601614629565b9150509250929050565b5f805f806060858703121561469357614692613754565b5b5f6146a0878288016137d5565b94505060206146b1878288016140f5565b935050604085013567ffffffffffffffff8111156146d2576146d1613758565b5b6146de87828801613d34565b925092505092959194509250565b6146f5816138a3565b82525050565b5f60208201905061470e5f8301846146ec565b92915050565b5f806040838503121561472a57614729613754565b5b5f614737858286016137a2565b9250506020614748858286016137a2565b9150509250929050565b5f805f805f60a0868803121561476b5761476a613754565b5b5f614778888289016137a2565b9550506020614789888289016137a2565b945050604061479a888289016137d5565b93505060606147ab888289016137d5565b925050608086013567ffffffffffffffff8111156147cc576147cb613758565b5b6147d888828901613fe7565b9150509295509295909350565b5f805f606084860312156147fc576147fb613754565b5b5f614809868287016137a2565b935050602061481a868287016137d5565b925050604061482b868287016137d5565b9150509250925092565b7f4e487b71000000000000000000000000000000000000000000000000000000005f52603260045260245ffd5b7f4e487b71000000000000000000000000000000000000000000000000000000005f52602260045260245ffd5b5f60028204905060018216806148a657607f821691505b6020821081036148b9576148b8614862565b5b50919050565b7f4e487b71000000000000000000000000000000000000000000000000000000005f52601160045260245ffd5b5f6148f6826137b6565b91507fffffffffffffffffffffffffffffffffffffffffffffffffffffffffffffffff8203614928576149276148bf565b5b600182019050919050565b5f61493d826137b6565b9150614948836137b6565b92508282039050818111156149605761495f6148bf565b5b92915050565b7f4e487b71000000000000000000000000000000000000000000000000000000005f52603160045260245ffd5b7f41646d696e206e6f7420666f756e6400000000000000000000000000000000005f82015250565b5f6149c7600f83613bcc565b91506149d282614993565b602082019050919050565b5f6020820190508181035f8301526149f4816149bb565b9050919050565b7f4e616d65207265717569726564000000000000000000000000000000000000005f82015250565b5f614a2f600d83613bcc565b9150614a3a826149fb565b602082019050919050565b5f6020820190508181035f830152614a5c81614a23565b9050919050565b5f81905092915050565b5f614a788385614a63565b9350614a85838584613f98565b82840190509392505050565b5f614a9d828486614a6d565b91508190509392505050565b5f819050815f5260205f209050919050565b5f8154614ac78161488f565b614ad18186614a63565b9450600182165f8114614aeb5760018114614b0057614b32565b60ff1983168652811515820286019350614b32565b614b0985614aa9565b5f5b83811015614b2a57815481890152600182019150602081019050614b0b565b838801955050505b50505092915050565b5f614b468284614abb565b915081905092915050565b5f819050919050565b614b6b614b66826137b6565b614b51565b82525050565b5f8160601b9050919050565b5f614b8782614b71565b9050919050565b5f614b9882614b7d565b9050919050565b614bb0614bab8261377b565b614b8e565b82525050565b5f81905092915050565b5f614bcb8385614bb6565b9350614bd8838584613f98565b82840190509392505050565b5f614bef8289614b5a565b602082019150614bff8288614b5a565b602082019150614c0f8287614b9f565b601482019150614c20828587614bc0565b9150614c2c8284614b5a565b602082019150819050979650505050505050565b7f4e487b71000000000000000000000000000000000000000000000000000000005f52601260045260245ffd5b5f614c77826137b6565b9150614c82836137b6565b925082614c9257614c91614c40565b5b828206905092915050565b5f614ca7826137b6565b9150614cb2836137b6565b9250828201905080821115614cca57614cc96148bf565b5b92915050565b7f556e61626c6520746f2066696e6420756e697175652073686f727420746f6b655f8201527f6e20494400000000000000000000000000000000000000000000000000000000602082015250565b5f614d2a602483613bcc565b9150614d3582614cd0565b604082019050919050565b5f6020820190508181035f830152614d5781614d1e565b9050919050565b7f546f6b656e494454616b656e00000000000000000000000000000000000000005f82015250565b5f614d92600c83613bcc565b9150614d9d82614d5e565b602082019050919050565b5f6020820190508181035f830152614dbf81614d86565b9050919050565b5f82905092915050565b5f819050815f5260205f209050919050565b5f6020601f8301049050919050565b5f82821b905092915050565b5f60088302614e2c7fffffffffffffffffffffffffffffffffffffffffffffffffffffffffffffffff82614df1565b614e368683614df1565b95508019841693508086168417925050509392505050565b5f614e68614e63614e5e846137b6565b613c5f565b6137b6565b9050919050565b5f819050919050565b614e8183614e4e565b614e95614e8d82614e6f565b848454614dfd565b825550505050565b5f90565b614ea9614e9d565b614eb4818484614e78565b505050565b5b81811015614ed757614ecc5f82614ea1565b600181019050614eba565b5050565b601f821115614f1c57614eed81614dd0565b614ef684614de2565b81016020851015614f05578190505b614f19614f1185614de2565b830182614eb9565b50505b505050565b5f82821c905092915050565b5f614f3c5f1984600802614f21565b1980831691505092915050565b5f614f548383614f2d565b9150826002028217905092915050565b614f6e8383614dc6565b67ffffffffffffffff811115614f8757614f86613e2c565b5b614f91825461488f565b614f9c828285614edb565b5f601f831160018114614fc9575f8415614fb7578287013590505b614fc18582614f49565b865550615028565b601f198416614fd786614dd0565b5f5b82811015614ffe57848901358255600182019150602085019450602081019050614fd9565b8683101561501b5784890135615017601f891682614f2d565b8355505b6001600288020188555050505b50505050505050565b7f455243313135353a204d69736d617463686564206172726179206c656e6774685f8201527f7300000000000000000000000000000000000000000000000000000000000000602082015250565b5f61508b602183613bcc565b915061509682615031565b604082019050919050565b5f6020820190508181035f8301526150b88161507f565b9050919050565b7f455243313135353a207472616e7366657220746f20746865207a65726f2061645f8201527f6472657373000000000000000000000000000000000000000000000000000000602082015250565b5f615119602583613bcc565b9150615124826150bf565b604082019050919050565b5f6020820190508181035f8301526151468161510d565b9050919050565b5f6040820190506151605f830185613827565b61516d6020830184613827565b9392505050565b7f43616c6c6572206973206e6f7420616e2061646d696e000000000000000000005f82015250565b5f6151a8601683613bcc565b91506151b382615174565b602082019050919050565b5f6020820190508181035f8301526151d58161519c565b9050919050565b7f746f6b656e20696420646f6573206e6f742065786973740000000000000000005f82015250565b5f615210601783613bcc565b915061521b826151dc565b602082019050919050565b5f6020820190508181035f83015261523d81615204565b9050919050565b7f50726f6f66207265717565737420646f6573206e6f74206578697374000000005f82015250565b5f615278601c83613bcc565b915061528382615244565b602082019050919050565b5f6020820190508181035f8301526152a58161526c565b9050919050565b7f496e76616c6964206164647265737300000000000000000000000000000000005f82015250565b5f6152e0600f83613bcc565b91506152eb826152ac565b602082019050919050565b5f6020820190508181035f83015261530d816152d4565b9050919050565b7f4164647265737320697320616c726561647920616e2061646d696e00000000005f82015250565b5f615348601b83613bcc565b915061535382615314565b602082019050919050565b5f6020820190508181035f8301526153758161533c565b9050919050565b5f61538682613c89565b9050919050565b6153968161537c565b82525050565b5f81519050919050565b5f82825260208201905092915050565b5f6153c08261539c565b6153ca81856153a6565b93506153da818560208601613987565b6153e3816139af565b840191505092915050565b5f606083015f8301518482035f86015261540882826139bf565b915050602083015161541d602086018261538d565b506040830151848203604086015261543582826153b6565b9150508091505092915050565b5f6040820190506154555f8301856146ec565b818103602083015261546781846153ee565b90509392505050565b5f80fd5b5f80fd5b5f80fd5b5f808335600160200384360303811261549857615497615470565b5b80840192508235915067ffffffffffffffff8211156154ba576154b9615474565b5b6020830192506001820236038313156154d6576154d5615478565b5b509250929050565b6154e78261396d565b67ffffffffffffffff811115615500576154ff613e2c565b5b61550a825461488f565b615515828285614edb565b5f60209050601f831160018114615546575f8415615534578287015190505b61553e8582614f49565b8655506155a5565b601f19841661555486614dd0565b5f5b8281101561557b57848901518255600182019150602085019450602081019050615556565b868310156155985784890151615594601f891682614f2d565b8355505b6001600288020188555050505b505050505050565b7f50726f6f66207265717565737420616c726561647920657869737473000000005f82015250565b5f6155e1601c83613bcc565b91506155ec826155ad565b602082019050919050565b5f6020820190508181035f83015261560e816155d5565b9050919050565b7f526f6c65206d757374206265202773656e64657227206f7220277265636569765f8201527f6572270000000000000000000000000000000000000000000000000000000000602082015250565b5f61566f602383613bcc565b915061567a82615615565b604082019050919050565b5f6020820190508181035f83015261569c81615663565b9050919050565b5f6040820190506156b65f8301856145a1565b6156c360208301846146ec565b9392505050565b5f80fd5b5f80fd5b5f815190506156e081614613565b92915050565b5f67ffffffffffffffff821115615700576156ff613e2c565b5b615709826139af565b9050602081019050919050565b5f615728615723846156e6565b613e8a565b90508281526020810184848401111561574457615743613f64565b5b61574f848285613987565b509392505050565b5f82601f83011261576b5761576a613cd3565b5b815161577b848260208601615716565b91505092915050565b5f81519050615792816137bf565b92915050565b5f608082840312156157ad576157ac6156ca565b5b6157b76080613e8a565b90505f6157c6848285016156d2565b5f83015250602082015167ffffffffffffffff8111156157e9576157e86156ce565b5b6157f584828501615757565b602083015250604061580984828501615784565b604083015250606061581d84828501615784565b60608301525092915050565b5f6020828403121561583e5761583d613754565b5b5f82015167ffffffffffffffff81111561585b5761585a613758565b5b61586784828501615798565b91505092915050565b5f6040820190506158835f8301856146ec565b61589060208301846145a1565b9392505050565b5f6040820190506158aa5f8301856145a1565b6158b760208301846145a1565b9392505050565b5f6080820190506158d15f8301876145a1565b6158de6020830186613827565b6158eb6040830185613827565b6158f86060830184613827565b95945050505050565b5f6040820190508181035f83015261591981856143af565b9050818103602083015261592d81846143af565b90509392505050565b5f82825260208201905092915050565b5f6159508261539c565b61595a8185615936565b935061596a818560208601613987565b615973816139af565b840191505092915050565b5f60a0820190506159915f8301886145a1565b61599e60208301876145a1565b6159ab6040830186613827565b6159b86060830185613827565b81810360808301526159ca8184615946565b90509695505050505050565b5f815190506159e481613b44565b92915050565b5f602082840312156159ff576159fe613754565b5b5f615a0c848285016159d6565b91505092915050565b5f60a082019050615a285f8301886145a1565b615a3560208301876145a1565b8181036040830152615a4781866143af565b90508181036060830152615a5b81856143af565b90508181036080830152615a6f8184615946565b9050969550505050505056fea264697066735822122059d731e55663530d097bf7215369bcb00619add82dffd69e844cffd165b0e8c064736f6c63430008140033",
		"opcodes": "PUSH1 0x80 PUSH1 0x40 MSTORE CALLVALUE DUP1 ISZERO PUSH2 0xF JUMPI PUSH0 DUP1 REVERT JUMPDEST POP PUSH1 0x4 CALLDATASIZE LT PUSH2 0x1C1 JUMPI PUSH0 CALLDATALOAD PUSH1 0xE0 SHR DUP1 PUSH4 0x7330DD84 GT PUSH2 0xF7 JUMPI DUP1 PUSH4 0xCF5219AD GT PUSH2 0x95 JUMPI DUP1 PUSH4 0xE985E9C5 GT PUSH2 0x6F JUMPI DUP1 PUSH4 0xE985E9C5 EQ PUSH2 0x516 JUMPI DUP1 PUSH4 0xF242432A EQ PUSH2 0x546 JUMPI DUP1 PUSH4 0xF2FDE38B EQ PUSH2 0x562 JUMPI DUP1 PUSH4 0xF5298ACA EQ PUSH2 0x57E JUMPI PUSH2 0x1C1 JUMP JUMPDEST DUP1 PUSH4 0xCF5219AD EQ PUSH2 0x498 JUMPI DUP1 PUSH4 0xD121CDC0 EQ PUSH2 0x4B6 JUMPI DUP1 PUSH4 0xE725F877 EQ PUSH2 0x4E6 JUMPI PUSH2 0x1C1 JUMP JUMPDEST DUP1 PUSH4 0x8DA5CB5B GT PUSH2 0xD1 JUMPI DUP1 PUSH4 0x8DA5CB5B EQ PUSH2 0x410 JUMPI DUP1 PUSH4 0x8ED46CFD EQ PUSH2 0x42E JUMPI DUP1 PUSH4 0xA22CB465 EQ PUSH2 0x460 JUMPI DUP1 PUSH4 0xC1F95913 EQ PUSH2 0x47C JUMPI PUSH2 0x1C1 JUMP JUMPDEST DUP1 PUSH4 0x7330DD84 EQ PUSH2 0x3B8 JUMPI DUP1 PUSH4 0x7578B248 EQ PUSH2 0x3D4 JUMPI DUP1 PUSH4 0x784008CE EQ PUSH2 0x3F2 JUMPI PUSH2 0x1C1 JUMP JUMPDEST DUP1 PUSH4 0x2EB2C2D6 GT PUSH2 0x164 JUMPI DUP1 PUSH4 0x4E1273F4 GT PUSH2 0x13E JUMPI DUP1 PUSH4 0x4E1273F4 EQ PUSH2 0x346 JUMPI DUP1 PUSH4 0x50FBDB2D EQ PUSH2 0x376 JUMPI DUP1 PUSH4 0x70480275 EQ PUSH2 0x392 JUMPI DUP1 PUSH4 0x715018A6 EQ PUSH2 0x3AE JUMPI PUSH2 0x1C1 JUMP JUMPDEST DUP1 PUSH4 0x2EB2C2D6 EQ PUSH2 0x2DC JUMPI DUP1 PUSH4 0x2F4955F6 EQ PUSH2 0x2F8 JUMPI DUP1 PUSH4 0x31AE450B EQ PUSH2 0x328 JUMPI PUSH2 0x1C1 JUMP JUMPDEST DUP1 PUSH4 0xE89341C GT PUSH2 0x1A0 JUMPI DUP1 PUSH4 0xE89341C EQ PUSH2 0x256 JUMPI DUP1 PUSH4 0x1785F53C EQ PUSH2 0x286 JUMPI DUP1 PUSH4 0x2B7AC3F3 EQ PUSH2 0x2A2 JUMPI DUP1 PUSH4 0x2DBFF950 EQ PUSH2 0x2C0 JUMPI PUSH2 0x1C1 JUMP JUMPDEST DUP1 PUSH3 0xFDD58E EQ PUSH2 0x1C5 JUMPI DUP1 PUSH4 0x1843A14 EQ PUSH2 0x1F5 JUMPI DUP1 PUSH4 0x1FFC9A7 EQ PUSH2 0x226 JUMPI JUMPDEST PUSH0 DUP1 REVERT JUMPDEST PUSH2 0x1DF PUSH1 0x4 DUP1 CALLDATASIZE SUB DUP2 ADD SWAP1 PUSH2 0x1DA SWAP2 SWAP1 PUSH2 0x37E9 JUMP JUMPDEST PUSH2 0x59A JUMP JUMPDEST PUSH1 0x40 MLOAD PUSH2 0x1EC SWAP2 SWAP1 PUSH2 0x3836 JUMP JUMPDEST PUSH1 0x40 MLOAD DUP1 SWAP2 SUB SWAP1 RETURN JUMPDEST PUSH2 0x20F PUSH1 0x4 DUP1 CALLDATASIZE SUB DUP2 ADD SWAP1 PUSH2 0x20A SWAP2 SWAP1 PUSH2 0x384F JUMP JUMPDEST PUSH2 0x5EF JUMP JUMPDEST PUSH1 0x40 MLOAD PUSH2 0x21D SWAP3 SWAP2 SWAP1 PUSH2 0x3AE4 JUMP JUMPDEST PUSH1 0x40 MLOAD DUP1 SWAP2 SUB SWAP1 RETURN JUMPDEST PUSH2 0x240 PUSH1 0x4 DUP1 CALLDATASIZE SUB DUP2 ADD SWAP1 PUSH2 0x23B SWAP2 SWAP1 PUSH2 0x3B6E JUMP JUMPDEST PUSH2 0xAC6 JUMP JUMPDEST PUSH1 0x40 MLOAD PUSH2 0x24D SWAP2 SWAP1 PUSH2 0x3BB3 JUMP JUMPDEST PUSH1 0x40 MLOAD DUP1 SWAP2 SUB SWAP1 RETURN JUMPDEST PUSH2 0x270 PUSH1 0x4 DUP1 CALLDATASIZE SUB DUP2 ADD SWAP1 PUSH2 0x26B SWAP2 SWAP1 PUSH2 0x384F JUMP JUMPDEST PUSH2 0xBA7 JUMP JUMPDEST PUSH1 0x40 MLOAD PUSH2 0x27D SWAP2 SWAP1 PUSH2 0x3C14 JUMP JUMPDEST PUSH1 0x40 MLOAD DUP1 SWAP2 SUB SWAP1 RETURN JUMPDEST PUSH2 0x2A0 PUSH1 0x4 DUP1 CALLDATASIZE SUB DUP2 ADD SWAP1 PUSH2 0x29B SWAP2 SWAP1 PUSH2 0x3C34 JUMP JUMPDEST PUSH2 0xC39 JUMP JUMPDEST STOP JUMPDEST PUSH2 0x2AA PUSH2 0xE00 JUMP JUMPDEST PUSH1 0x40 MLOAD PUSH2 0x2B7 SWAP2 SWAP1 PUSH2 0x3CBA JUMP JUMPDEST PUSH1 0x40 MLOAD DUP1 SWAP2 SUB SWAP1 RETURN JUMPDEST PUSH2 0x2DA PUSH1 0x4 DUP1 CALLDATASIZE SUB DUP2 ADD SWAP1 PUSH2 0x2D5 SWAP2 SWAP1 PUSH2 0x3D89 JUMP JUMPDEST PUSH2 0xE25 JUMP JUMPDEST STOP JUMPDEST PUSH2 0x2F6 PUSH1 0x4 DUP1 CALLDATASIZE SUB DUP2 ADD SWAP1 PUSH2 0x2F1 SWAP2 SWAP1 PUSH2 0x4014 JUMP JUMPDEST PUSH2 0x1105 JUMP JUMPDEST STOP JUMPDEST PUSH2 0x312 PUSH1 0x4 DUP1 CALLDATASIZE SUB DUP2 ADD SWAP1 PUSH2 0x30D SWAP2 SWAP1 PUSH2 0x4109 JUMP JUMPDEST PUSH2 0x1241 JUMP JUMPDEST PUSH1 0x40 MLOAD PUSH2 0x31F SWAP2 SWAP1 PUSH2 0x3C14 JUMP JUMPDEST PUSH1 0x40 MLOAD DUP1 SWAP2 SUB SWAP1 RETURN JUMPDEST PUSH2 0x330 PUSH2 0x12E7 JUMP JUMPDEST PUSH1 0x40 MLOAD PUSH2 0x33D SWAP2 SWAP1 PUSH2 0x41FE JUMP JUMPDEST PUSH1 0x40 MLOAD DUP1 SWAP2 SUB SWAP1 RETURN JUMPDEST PUSH2 0x360 PUSH1 0x4 DUP1 CALLDATASIZE SUB DUP2 ADD SWAP1 PUSH2 0x35B SWAP2 SWAP1 PUSH2 0x42DE JUMP JUMPDEST PUSH2 0x137A JUMP JUMPDEST PUSH1 0x40 MLOAD PUSH2 0x36D SWAP2 SWAP1 PUSH2 0x440B JUMP JUMPDEST PUSH1 0x40 MLOAD DUP1 SWAP2 SUB SWAP1 RETURN JUMPDEST PUSH2 0x390 PUSH1 0x4 DUP1 CALLDATASIZE SUB DUP2 ADD SWAP1 PUSH2 0x38B SWAP2 SWAP1 PUSH2 0x4109 JUMP JUMPDEST PUSH2 0x1487 JUMP JUMPDEST STOP JUMPDEST PUSH2 0x3AC PUSH1 0x4 DUP1 CALLDATASIZE SUB DUP2 ADD SWAP1 PUSH2 0x3A7 SWAP2 SWAP1 PUSH2 0x3C34 JUMP JUMPDEST PUSH2 0x17A6 JUMP JUMPDEST STOP JUMPDEST PUSH2 0x3B6 PUSH2 0x18C8 JUMP JUMPDEST STOP JUMPDEST PUSH2 0x3D2 PUSH1 0x4 DUP1 CALLDATASIZE SUB DUP2 ADD SWAP1 PUSH2 0x3CD SWAP2 SWAP1 PUSH2 0x4488 JUMP JUMPDEST PUSH2 0x18DB JUMP JUMPDEST STOP JUMPDEST PUSH2 0x3DC PUSH2 0x1BBB JUMP JUMPDEST PUSH1 0x40 MLOAD PUSH2 0x3E9 SWAP2 SWAP1 PUSH2 0x440B JUMP JUMPDEST PUSH1 0x40 MLOAD DUP1 SWAP2 SUB SWAP1 RETURN JUMPDEST PUSH2 0x3FA PUSH2 0x1BCC JUMP JUMPDEST PUSH1 0x40 MLOAD PUSH2 0x407 SWAP2 SWAP1 PUSH2 0x3836 JUMP JUMPDEST PUSH1 0x40 MLOAD DUP1 SWAP2 SUB SWAP1 RETURN JUMPDEST PUSH2 0x418 PUSH2 0x1BD1 JUMP JUMPDEST PUSH1 0x40 MLOAD PUSH2 0x425 SWAP2 SWAP1 PUSH2 0x45B0 JUMP JUMPDEST PUSH1 0x40 MLOAD DUP1 SWAP2 SUB SWAP1 RETURN JUMPDEST PUSH2 0x448 PUSH1 0x4 DUP1 CALLDATASIZE SUB DUP2 ADD SWAP1 PUSH2 0x443 SWAP2 SWAP1 PUSH2 0x4109 JUMP JUMPDEST PUSH2 0x1BF9 JUMP JUMPDEST PUSH1 0x40 MLOAD PUSH2 0x457 SWAP4 SWAP3 SWAP2 SWAP1 PUSH2 0x45C9 JUMP JUMPDEST PUSH1 0x40 MLOAD DUP1 SWAP2 SUB SWAP1 RETURN JUMPDEST PUSH2 0x47A PUSH1 0x4 DUP1 CALLDATASIZE SUB DUP2 ADD SWAP1 PUSH2 0x475 SWAP2 SWAP1 PUSH2 0x463D JUMP JUMPDEST PUSH2 0x1DBC JUMP JUMPDEST STOP JUMPDEST PUSH2 0x496 PUSH1 0x4 DUP1 CALLDATASIZE SUB DUP2 ADD SWAP1 PUSH2 0x491 SWAP2 SWAP1 PUSH2 0x467B JUMP JUMPDEST PUSH2 0x1DD2 JUMP JUMPDEST STOP JUMPDEST PUSH2 0x4A0 PUSH2 0x207F JUMP JUMPDEST PUSH1 0x40 MLOAD PUSH2 0x4AD SWAP2 SWAP1 PUSH2 0x3836 JUMP JUMPDEST PUSH1 0x40 MLOAD DUP1 SWAP2 SUB SWAP1 RETURN JUMPDEST PUSH2 0x4D0 PUSH1 0x4 DUP1 CALLDATASIZE SUB DUP2 ADD SWAP1 PUSH2 0x4CB SWAP2 SWAP1 PUSH2 0x384F JUMP JUMPDEST PUSH2 0x2084 JUMP JUMPDEST PUSH1 0x40 MLOAD PUSH2 0x4DD SWAP2 SWAP1 PUSH2 0x46FB JUMP JUMPDEST PUSH1 0x40 MLOAD DUP1 SWAP2 SUB SWAP1 RETURN JUMPDEST PUSH2 0x500 PUSH1 0x4 DUP1 CALLDATASIZE SUB DUP2 ADD SWAP1 PUSH2 0x4FB SWAP2 SWAP1 PUSH2 0x384F JUMP JUMPDEST PUSH2 0x20BF JUMP JUMPDEST PUSH1 0x40 MLOAD PUSH2 0x50D SWAP2 SWAP1 PUSH2 0x3C14 JUMP JUMPDEST PUSH1 0x40 MLOAD DUP1 SWAP2 SUB SWAP1 RETURN JUMPDEST PUSH2 0x530 PUSH1 0x4 DUP1 CALLDATASIZE SUB DUP2 ADD SWAP1 PUSH2 0x52B SWAP2 SWAP1 PUSH2 0x4714 JUMP JUMPDEST PUSH2 0x215A JUMP JUMPDEST PUSH1 0x40 MLOAD PUSH2 0x53D SWAP2 SWAP1 PUSH2 0x3BB3 JUMP JUMPDEST PUSH1 0x40 MLOAD DUP1 SWAP2 SUB SWAP1 RETURN JUMPDEST PUSH2 0x560 PUSH1 0x4 DUP1 CALLDATASIZE SUB DUP2 ADD SWAP1 PUSH2 0x55B SWAP2 SWAP1 PUSH2 0x4752 JUMP JUMPDEST PUSH2 0x21E8 JUMP JUMPDEST STOP JUMPDEST PUSH2 0x57C PUSH1 0x4 DUP1 CALLDATASIZE SUB DUP2 ADD SWAP1 PUSH2 0x577 SWAP2 SWAP1 PUSH2 0x3C34 JUMP JUMPDEST PUSH2 0x2207 JUMP JUMPDEST STOP JUMPDEST PUSH2 0x598 PUSH1 0x4 DUP1 CALLDATASIZE SUB DUP2 ADD SWAP1 PUSH2 0x593 SWAP2 SWAP1 PUSH2 0x47E5 JUMP JUMPDEST PUSH2 0x228B JUMP JUMPDEST STOP JUMPDEST PUSH0 DUP1 PUSH0 DUP4 DUP2 MSTORE PUSH1 0x20 ADD SWAP1 DUP2 MSTORE PUSH1 0x20 ADD PUSH0 KECCAK256 PUSH0 DUP5 PUSH20 0xFFFFFFFFFFFFFFFFFFFFFFFFFFFFFFFFFFFFFFFF AND PUSH20 0xFFFFFFFFFFFFFFFFFFFFFFFFFFFFFFFFFFFFFFFF AND DUP2 MSTORE PUSH1 0x20 ADD SWAP1 DUP2 MSTORE PUSH1 0x20 ADD PUSH0 KECCAK256 SLOAD SWAP1 POP SWAP3 SWAP2 POP POP JUMP JUMPDEST PUSH1 0x60 DUP1 PUSH0 PUSH1 0xA DUP1 SLOAD DUP1 PUSH1 0x20 MUL PUSH1 0x20 ADD PUSH1 0x40 MLOAD SWAP1 DUP2 ADD PUSH1 0x40 MSTORE DUP1 SWAP3 SWAP2 SWAP1 DUP2 DUP2 MSTORE PUSH1 0x20 ADD DUP3 DUP1 SLOAD DUP1 ISZERO PUSH2 0x670 JUMPI PUSH1 0x20 MUL DUP3 ADD SWAP2 SWAP1 PUSH0 MSTORE PUSH1 0x20 PUSH0 KECCAK256 SWAP1 PUSH0 SWAP1 JUMPDEST DUP3 DUP3 SWAP1 SLOAD SWAP1 PUSH2 0x100 EXP SWAP1 DIV PUSH8 0xFFFFFFFFFFFFFFFF AND PUSH8 0xFFFFFFFFFFFFFFFF AND DUP2 MSTORE PUSH1 0x20 ADD SWAP1 PUSH1 0x8 ADD SWAP1 PUSH1 0x20 DUP3 PUSH1 0x7 ADD DIV SWAP3 DUP4 ADD SWAP3 PUSH1 0x1 SUB DUP3 MUL SWAP2 POP DUP1 DUP5 GT PUSH2 0x62B JUMPI SWAP1 POP JUMPDEST POP POP POP POP POP SWAP1 POP PUSH0 DUP1 JUMPDEST DUP3 MLOAD DUP2 LT ISZERO PUSH2 0x709 JUMPI PUSH0 PUSH1 0x9 PUSH0 DUP9 DUP2 MSTORE PUSH1 0x20 ADD SWAP1 DUP2 MSTORE PUSH1 0x20 ADD PUSH0 KECCAK256 PUSH0 DUP6 DUP5 DUP2 MLOAD DUP2 LT PUSH2 0x6A9 JUMPI PUSH2 0x6A8 PUSH2 0x4835 JUMP JUMPDEST JUMPDEST PUSH1 0x20 MUL PUSH1 0x20 ADD ADD MLOAD PUSH8 0xFFFFFFFFFFFFFFFF AND PUSH8 0xFFFFFFFFFFFFFFFF AND DUP2 MSTORE PUSH1 0x20 ADD SWAP1 DUP2 MSTORE PUSH1 0x20 ADD PUSH0 KECCAK256 PUSH0 ADD DUP1 SLOAD PUSH2 0x6DF SWAP1 PUSH2 0x488F JUMP JUMPDEST SWAP1 POP GT ISZERO PUSH2 0x6F6 JUMPI DUP2 DUP1 PUSH2 0x6F2 SWAP1 PUSH2 0x48EC JUMP JUMPDEST SWAP3 POP POP JUMPDEST DUP1 DUP1 PUSH2 0x701 SWAP1 PUSH2 0x48EC JUMP JUMPDEST SWAP2 POP POP PUSH2 0x67A JUMP JUMPDEST POP PUSH0 DUP2 PUSH8 0xFFFFFFFFFFFFFFFF DUP2 GT ISZERO PUSH2 0x725 JUMPI PUSH2 0x724 PUSH2 0x3E2C JUMP JUMPDEST JUMPDEST PUSH1 0x40 MLOAD SWAP1 DUP1 DUP3 MSTORE DUP1 PUSH1 0x20 MUL PUSH1 0x20 ADD DUP3 ADD PUSH1 0x40 MSTORE DUP1 ISZERO PUSH2 0x753 JUMPI DUP2 PUSH1 0x20 ADD PUSH1 0x20 DUP3 MUL DUP1 CALLDATASIZE DUP4 CALLDATACOPY DUP1 DUP3 ADD SWAP2 POP POP SWAP1 POP JUMPDEST POP SWAP1 POP PUSH0 DUP3 PUSH8 0xFFFFFFFFFFFFFFFF DUP2 GT ISZERO PUSH2 0x771 JUMPI PUSH2 0x770 PUSH2 0x3E2C JUMP JUMPDEST JUMPDEST PUSH1 0x40 MLOAD SWAP1 DUP1 DUP3 MSTORE DUP1 PUSH1 0x20 MUL PUSH1 0x20 ADD DUP3 ADD PUSH1 0x40 MSTORE DUP1 ISZERO PUSH2 0x7AA JUMPI DUP2 PUSH1 0x20 ADD JUMPDEST PUSH2 0x797 PUSH2 0x36D2 JUMP JUMPDEST DUP2 MSTORE PUSH1 0x20 ADD SWAP1 PUSH1 0x1 SWAP1 SUB SWAP1 DUP2 PUSH2 0x78F JUMPI SWAP1 POP JUMPDEST POP SWAP1 POP PUSH0 DUP1 JUMPDEST DUP6 MLOAD DUP2 LT ISZERO PUSH2 0xAB5 JUMPI PUSH0 PUSH1 0x9 PUSH0 DUP12 DUP2 MSTORE PUSH1 0x20 ADD SWAP1 DUP2 MSTORE PUSH1 0x20 ADD PUSH0 KECCAK256 PUSH0 DUP9 DUP5 DUP2 MLOAD DUP2 LT PUSH2 0x7DF JUMPI PUSH2 0x7DE PUSH2 0x4835 JUMP JUMPDEST JUMPDEST PUSH1 0x20 MUL PUSH1 0x20 ADD ADD MLOAD PUSH8 0xFFFFFFFFFFFFFFFF AND PUSH8 0xFFFFFFFFFFFFFFFF AND DUP2 MSTORE PUSH1 0x20 ADD SWAP1 DUP2 MSTORE PUSH1 0x20 ADD PUSH0 KECCAK256 PUSH0 ADD DUP1 SLOAD PUSH2 0x815 SWAP1 PUSH2 0x488F JUMP JUMPDEST SWAP1 POP GT ISZERO PUSH2 0xAA2 JUMPI DUP6 DUP2 DUP2 MLOAD DUP2 LT PUSH2 0x830 JUMPI PUSH2 0x82F PUSH2 0x4835 JUMP JUMPDEST JUMPDEST PUSH1 0x20 MUL PUSH1 0x20 ADD ADD MLOAD DUP5 DUP4 DUP2 MLOAD DUP2 LT PUSH2 0x84B JUMPI PUSH2 0x84A PUSH2 0x4835 JUMP JUMPDEST JUMPDEST PUSH1 0x20 MUL PUSH1 0x20 ADD ADD SWAP1 PUSH8 0xFFFFFFFFFFFFFFFF AND SWAP1 DUP2 PUSH8 0xFFFFFFFFFFFFFFFF AND DUP2 MSTORE POP POP PUSH1 0x9 PUSH0 DUP11 DUP2 MSTORE PUSH1 0x20 ADD SWAP1 DUP2 MSTORE PUSH1 0x20 ADD PUSH0 KECCAK256 PUSH0 DUP8 DUP4 DUP2 MLOAD DUP2 LT PUSH2 0x892 JUMPI PUSH2 0x891 PUSH2 0x4835 JUMP JUMPDEST JUMPDEST PUSH1 0x20 MUL PUSH1 0x20 ADD ADD MLOAD PUSH8 0xFFFFFFFFFFFFFFFF AND PUSH8 0xFFFFFFFFFFFFFFFF AND DUP2 MSTORE PUSH1 0x20 ADD SWAP1 DUP2 MSTORE PUSH1 0x20 ADD PUSH0 KECCAK256 PUSH1 0x40 MLOAD DUP1 PUSH1 0x60 ADD PUSH1 0x40 MSTORE SWAP1 DUP2 PUSH0 DUP3 ADD DUP1 SLOAD PUSH2 0x8D5 SWAP1 PUSH2 0x488F JUMP JUMPDEST DUP1 PUSH1 0x1F ADD PUSH1 0x20 DUP1 SWAP2 DIV MUL PUSH1 0x20 ADD PUSH1 0x40 MLOAD SWAP1 DUP2 ADD PUSH1 0x40 MSTORE DUP1 SWAP3 SWAP2 SWAP1 DUP2 DUP2 MSTORE PUSH1 0x20 ADD DUP3 DUP1 SLOAD PUSH2 0x901 SWAP1 PUSH2 0x488F JUMP JUMPDEST DUP1 ISZERO PUSH2 0x94C JUMPI DUP1 PUSH1 0x1F LT PUSH2 0x923 JUMPI PUSH2 0x100 DUP1 DUP4 SLOAD DIV MUL DUP4 MSTORE SWAP2 PUSH1 0x20 ADD SWAP2 PUSH2 0x94C JUMP JUMPDEST DUP3 ADD SWAP2 SWAP1 PUSH0 MSTORE PUSH1 0x20 PUSH0 KECCAK256 SWAP1 JUMPDEST DUP2 SLOAD DUP2 MSTORE SWAP1 PUSH1 0x1 ADD SWAP1 PUSH1 0x20 ADD DUP1 DUP4 GT PUSH2 0x92F JUMPI DUP3 SWAP1 SUB PUSH1 0x1F AND DUP3 ADD SWAP2 JUMPDEST POP POP POP POP POP DUP2 MSTORE PUSH1 0x20 ADD PUSH1 0x1 DUP3 ADD DUP1 SLOAD PUSH2 0x965 SWAP1 PUSH2 0x488F JUMP JUMPDEST DUP1 PUSH1 0x1F ADD PUSH1 0x20 DUP1 SWAP2 DIV MUL PUSH1 0x20 ADD PUSH1 0x40 MLOAD SWAP1 DUP2 ADD PUSH1 0x40 MSTORE DUP1 SWAP3 SWAP2 SWAP1 DUP2 DUP2 MSTORE PUSH1 0x20 ADD DUP3 DUP1 SLOAD PUSH2 0x991 SWAP1 PUSH2 0x488F JUMP JUMPDEST DUP1 ISZERO PUSH2 0x9DC JUMPI DUP1 PUSH1 0x1F LT PUSH2 0x9B3 JUMPI PUSH2 0x100 DUP1 DUP4 SLOAD DIV MUL DUP4 MSTORE SWAP2 PUSH1 0x20 ADD SWAP2 PUSH2 0x9DC JUMP JUMPDEST DUP3 ADD SWAP2 SWAP1 PUSH0 MSTORE PUSH1 0x20 PUSH0 KECCAK256 SWAP1 JUMPDEST DUP2 SLOAD DUP2 MSTORE SWAP1 PUSH1 0x1 ADD SWAP1 PUSH1 0x20 ADD DUP1 DUP4 GT PUSH2 0x9BF JUMPI DUP3 SWAP1 SUB PUSH1 0x1F AND DUP3 ADD SWAP2 JUMPDEST POP POP POP POP POP DUP2 MSTORE PUSH1 0x20 ADD PUSH1 0x2 DUP3 ADD DUP1 SLOAD PUSH2 0x9F5 SWAP1 PUSH2 0x488F JUMP JUMPDEST DUP1 PUSH1 0x1F ADD PUSH1 0x20 DUP1 SWAP2 DIV MUL PUSH1 0x20 ADD PUSH1 0x40 MLOAD SWAP1 DUP2 ADD PUSH1 0x40 MSTORE DUP1 SWAP3 SWAP2 SWAP1 DUP2 DUP2 MSTORE PUSH1 0x20 ADD DUP3 DUP1 SLOAD PUSH2 0xA21 SWAP1 PUSH2 0x488F JUMP JUMPDEST DUP1 ISZERO PUSH2 0xA6C JUMPI DUP1 PUSH1 0x1F LT PUSH2 0xA43 JUMPI PUSH2 0x100 DUP1 DUP4 SLOAD DIV MUL DUP4 MSTORE SWAP2 PUSH1 0x20 ADD SWAP2 PUSH2 0xA6C JUMP JUMPDEST DUP3 ADD SWAP2 SWAP1 PUSH0 MSTORE PUSH1 0x20 PUSH0 KECCAK256 SWAP1 JUMPDEST DUP2 SLOAD DUP2 MSTORE SWAP1 PUSH1 0x1 ADD SWAP1 PUSH1 0x20 ADD DUP1 DUP4 GT PUSH2 0xA4F JUMPI DUP3 SWAP1 SUB PUSH1 0x1F AND DUP3 ADD SWAP2 JUMPDEST POP POP POP POP POP DUP2 MSTORE POP POP DUP4 DUP4 DUP2 MLOAD DUP2 LT PUSH2 0xA88 JUMPI PUSH2 0xA87 PUSH2 0x4835 JUMP JUMPDEST JUMPDEST PUSH1 0x20 MUL PUSH1 0x20 ADD ADD DUP2 SWAP1 MSTORE POP DUP2 DUP1 PUSH2 0xA9E SWAP1 PUSH2 0x48EC JUMP JUMPDEST SWAP3 POP POP JUMPDEST DUP1 DUP1 PUSH2 0xAAD SWAP1 PUSH2 0x48EC JUMP JUMPDEST SWAP2 POP POP PUSH2 0x7B0 JUMP JUMPDEST POP DUP3 DUP3 SWAP7 POP SWAP7 POP POP POP POP POP POP SWAP2 POP SWAP2 JUMP JUMPDEST PUSH0 PUSH32 0xD9B67A2600000000000000000000000000000000000000000000000000000000 PUSH28 0xFFFFFFFFFFFFFFFFFFFFFFFFFFFFFFFFFFFFFFFFFFFFFFFFFFFFFFFF NOT AND DUP3 PUSH28 0xFFFFFFFFFFFFFFFFFFFFFFFFFFFFFFFFFFFFFFFFFFFFFFFFFFFFFFFF NOT AND EQ DUP1 PUSH2 0xB90 JUMPI POP PUSH32 0xE89341C00000000000000000000000000000000000000000000000000000000 PUSH28 0xFFFFFFFFFFFFFFFFFFFFFFFFFFFFFFFFFFFFFFFFFFFFFFFFFFFFFFFF NOT AND DUP3 PUSH28 0xFFFFFFFFFFFFFFFFFFFFFFFFFFFFFFFFFFFFFFFFFFFFFFFFFFFFFFFF NOT AND EQ JUMPDEST DUP1 PUSH2 0xBA0 JUMPI POP PUSH2 0xB9F DUP3 PUSH2 0x22A3 JUMP JUMPDEST JUMPDEST SWAP1 POP SWAP2 SWAP1 POP JUMP JUMPDEST PUSH1 0x60 PUSH1 0x2 DUP1 SLOAD PUSH2 0xBB6 SWAP1 PUSH2 0x488F JUMP JUMPDEST DUP1 PUSH1 0x1F ADD PUSH1 0x20 DUP1 SWAP2 DIV MUL PUSH1 0x20 ADD PUSH1 0x40 MLOAD SWAP1 DUP2 ADD PUSH1 0x40 MSTORE DUP1 SWAP3 SWAP2 SWAP1 DUP2 DUP2 MSTORE PUSH1 0x20 ADD DUP3 DUP1 SLOAD PUSH2 0xBE2 SWAP1 PUSH2 0x488F JUMP JUMPDEST DUP1 ISZERO PUSH2 0xC2D JUMPI DUP1 PUSH1 0x1F LT PUSH2 0xC04 JUMPI PUSH2 0x100 DUP1 DUP4 SLOAD DIV MUL DUP4 MSTORE SWAP2 PUSH1 0x20 ADD SWAP2 PUSH2 0xC2D JUMP JUMPDEST DUP3 ADD SWAP2 SWAP1 PUSH0 MSTORE PUSH1 0x20 PUSH0 KECCAK256 SWAP1 JUMPDEST DUP2 SLOAD DUP2 MSTORE SWAP1 PUSH1 0x1 ADD SWAP1 PUSH1 0x20 ADD DUP1 DUP4 GT PUSH2 0xC10 JUMPI DUP3 SWAP1 SUB PUSH1 0x1F AND DUP3 ADD SWAP2 JUMPDEST POP POP POP POP POP SWAP1 POP SWAP2 SWAP1 POP JUMP JUMPDEST PUSH2 0xC41 PUSH2 0x230C JUMP JUMPDEST PUSH0 PUSH1 0x4 DUP1 SLOAD SWAP1 POP SWAP1 POP PUSH0 JUMPDEST DUP2 DUP2 LT ISZERO PUSH2 0xDC1 JUMPI DUP3 PUSH20 0xFFFFFFFFFFFFFFFFFFFFFFFFFFFFFFFFFFFFFFFF AND PUSH1 0x4 DUP3 DUP2 SLOAD DUP2 LT PUSH2 0xC7F JUMPI PUSH2 0xC7E PUSH2 0x4835 JUMP JUMPDEST JUMPDEST SWAP1 PUSH0 MSTORE PUSH1 0x20 PUSH0 KECCAK256 ADD PUSH0 SWAP1 SLOAD SWAP1 PUSH2 0x100 EXP SWAP1 DIV PUSH20 0xFFFFFFFFFFFFFFFFFFFFFFFFFFFFFFFFFFFFFFFF AND PUSH20 0xFFFFFFFFFFFFFFFFFFFFFFFFFFFFFFFFFFFFFFFF AND SUB PUSH2 0xDAE JUMPI PUSH1 0x4 PUSH1 0x1 DUP4 PUSH2 0xCD1 SWAP2 SWAP1 PUSH2 0x4933 JUMP JUMPDEST DUP2 SLOAD DUP2 LT PUSH2 0xCE2 JUMPI PUSH2 0xCE1 PUSH2 0x4835 JUMP JUMPDEST JUMPDEST SWAP1 PUSH0 MSTORE PUSH1 0x20 PUSH0 KECCAK256 ADD PUSH0 SWAP1 SLOAD SWAP1 PUSH2 0x100 EXP SWAP1 DIV PUSH20 0xFFFFFFFFFFFFFFFFFFFFFFFFFFFFFFFFFFFFFFFF AND PUSH1 0x4 DUP3 DUP2 SLOAD DUP2 LT PUSH2 0xD1E JUMPI PUSH2 0xD1D PUSH2 0x4835 JUMP JUMPDEST JUMPDEST SWAP1 PUSH0 MSTORE PUSH1 0x20 PUSH0 KECCAK256 ADD PUSH0 PUSH2 0x100 EXP DUP2 SLOAD DUP2 PUSH20 0xFFFFFFFFFFFFFFFFFFFFFFFFFFFFFFFFFFFFFFFF MUL NOT AND SWAP1 DUP4 PUSH20 0xFFFFFFFFFFFFFFFFFFFFFFFFFFFFFFFFFFFFFFFF AND MUL OR SWAP1 SSTORE POP PUSH1 0x4 DUP1 SLOAD DUP1 PUSH2 0xD75 JUMPI PUSH2 0xD74 PUSH2 0x4966 JUMP JUMPDEST JUMPDEST PUSH1 0x1 SWAP1 SUB DUP2 DUP2 SWAP1 PUSH0 MSTORE PUSH1 0x20 PUSH0 KECCAK256 ADD PUSH0 PUSH2 0x100 EXP DUP2 SLOAD SWAP1 PUSH20 0xFFFFFFFFFFFFFFFFFFFFFFFFFFFFFFFFFFFFFFFF MUL NOT AND SWAP1 SSTORE SWAP1 SSTORE POP POP PUSH2 0xDFD JUMP JUMPDEST DUP1 DUP1 PUSH2 0xDB9 SWAP1 PUSH2 0x48EC JUMP JUMPDEST SWAP2 POP POP PUSH2 0xC4C JUMP JUMPDEST POP PUSH1 0x40 MLOAD PUSH32 0x8C379A000000000000000000000000000000000000000000000000000000000 DUP2 MSTORE PUSH1 0x4 ADD PUSH2 0xDF4 SWAP1 PUSH2 0x49DD JUMP JUMPDEST PUSH1 0x40 MLOAD DUP1 SWAP2 SUB SWAP1 REVERT JUMPDEST POP JUMP JUMPDEST PUSH1 0xB PUSH0 SWAP1 SLOAD SWAP1 PUSH2 0x100 EXP SWAP1 DIV PUSH20 0xFFFFFFFFFFFFFFFFFFFFFFFFFFFFFFFFFFFFFFFF AND DUP2 JUMP JUMPDEST PUSH0 DUP3 DUP3 SWAP1 POP GT PUSH2 0xE6A JUMPI PUSH1 0x40 MLOAD PUSH32 0x8C379A000000000000000000000000000000000000000000000000000000000 DUP2 MSTORE PUSH1 0x4 ADD PUSH2 0xE61 SWAP1 PUSH2 0x4A45 JUMP JUMPDEST PUSH1 0x40 MLOAD DUP1 SWAP2 SUB SWAP1 REVERT JUMPDEST PUSH0 DUP1 PUSH0 PUSH2 0xE77 PUSH1 0x5 PUSH2 0x2393 JUMP JUMPDEST SWAP1 POP PUSH0 JUMPDEST DUP2 MLOAD DUP2 LT ISZERO PUSH2 0xF1A JUMPI DUP6 DUP6 PUSH1 0x40 MLOAD PUSH2 0xE94 SWAP3 SWAP2 SWAP1 PUSH2 0x4A91 JUMP JUMPDEST PUSH1 0x40 MLOAD DUP1 SWAP2 SUB SWAP1 KECCAK256 PUSH1 0x7 PUSH0 DUP5 DUP5 DUP2 MLOAD DUP2 LT PUSH2 0xEB2 JUMPI PUSH2 0xEB1 PUSH2 0x4835 JUMP JUMPDEST JUMPDEST PUSH1 0x20 MUL PUSH1 0x20 ADD ADD MLOAD DUP2 MSTORE PUSH1 0x20 ADD SWAP1 DUP2 MSTORE PUSH1 0x20 ADD PUSH0 KECCAK256 PUSH1 0x40 MLOAD PUSH2 0xED4 SWAP2 SWAP1 PUSH2 0x4B3B JUMP JUMPDEST PUSH1 0x40 MLOAD DUP1 SWAP2 SUB SWAP1 KECCAK256 SUB PUSH2 0xF07 JUMPI DUP2 DUP2 DUP2 MLOAD DUP2 LT PUSH2 0xEF4 JUMPI PUSH2 0xEF3 PUSH2 0x4835 JUMP JUMPDEST JUMPDEST PUSH1 0x20 MUL PUSH1 0x20 ADD ADD MLOAD SWAP4 POP PUSH1 0x1 SWAP3 POP PUSH2 0xF1A JUMP JUMPDEST DUP1 DUP1 PUSH2 0xF12 SWAP1 PUSH2 0x48EC JUMP JUMPDEST SWAP2 POP POP PUSH2 0xE7B JUMP JUMPDEST POP DUP2 ISZERO PUSH2 0xF75 JUMPI PUSH2 0xF70 DUP10 DUP5 DUP11 DUP11 DUP11 DUP1 DUP1 PUSH1 0x1F ADD PUSH1 0x20 DUP1 SWAP2 DIV MUL PUSH1 0x20 ADD PUSH1 0x40 MLOAD SWAP1 DUP2 ADD PUSH1 0x40 MSTORE DUP1 SWAP4 SWAP3 SWAP2 SWAP1 DUP2 DUP2 MSTORE PUSH1 0x20 ADD DUP4 DUP4 DUP1 DUP3 DUP5 CALLDATACOPY PUSH0 DUP2 DUP5 ADD MSTORE PUSH1 0x1F NOT PUSH1 0x1F DUP3 ADD AND SWAP1 POP DUP1 DUP4 ADD SWAP3 POP POP POP POP POP POP POP PUSH2 0x23B2 JUMP JUMPDEST PUSH2 0x10FA JUMP JUMPDEST PUSH0 DUP1 PUSH0 SWAP1 POP JUMPDEST PUSH3 0x15F90 TIMESTAMP PREVRANDAO DUP14 DUP11 DUP11 DUP7 PUSH1 0x40 MLOAD PUSH1 0x20 ADD PUSH2 0xF9A SWAP7 SWAP6 SWAP5 SWAP4 SWAP3 SWAP2 SWAP1 PUSH2 0x4BE4 JUMP JUMPDEST PUSH1 0x40 MLOAD PUSH1 0x20 DUP2 DUP4 SUB SUB DUP2 MSTORE SWAP1 PUSH1 0x40 MSTORE DUP1 MLOAD SWAP1 PUSH1 0x20 ADD KECCAK256 PUSH0 SHR PUSH2 0xFBC SWAP2 SWAP1 PUSH2 0x4C6D JUMP JUMPDEST PUSH2 0x3E8 PUSH2 0xFC9 SWAP2 SWAP1 PUSH2 0x4C9D JUMP JUMPDEST SWAP2 POP DUP1 DUP1 PUSH2 0xFD6 SWAP1 PUSH2 0x48EC JUMP JUMPDEST SWAP2 POP POP PUSH1 0x64 DUP2 LT PUSH2 0x101C JUMPI PUSH1 0x40 MLOAD PUSH32 0x8C379A000000000000000000000000000000000000000000000000000000000 DUP2 MSTORE PUSH1 0x4 ADD PUSH2 0x1013 SWAP1 PUSH2 0x4D40 JUMP JUMPDEST PUSH1 0x40 MLOAD DUP1 SWAP2 SUB SWAP1 REVERT JUMPDEST PUSH2 0x1030 DUP3 PUSH1 0x5 PUSH2 0x2447 SWAP1 SWAP2 SWAP1 PUSH4 0xFFFFFFFF AND JUMP JUMPDEST PUSH2 0xF7B JUMPI PUSH2 0x1048 DUP3 PUSH1 0x5 PUSH2 0x245E SWAP1 SWAP2 SWAP1 PUSH4 0xFFFFFFFF AND JUMP JUMPDEST PUSH2 0x1087 JUMPI PUSH1 0x40 MLOAD PUSH32 0x8C379A000000000000000000000000000000000000000000000000000000000 DUP2 MSTORE PUSH1 0x4 ADD PUSH2 0x107E SWAP1 PUSH2 0x4DA8 JUMP JUMPDEST PUSH1 0x40 MLOAD DUP1 SWAP2 SUB SWAP1 REVERT JUMPDEST PUSH2 0x10D6 DUP12 DUP4 DUP13 DUP13 DUP13 DUP1 DUP1 PUSH1 0x1F ADD PUSH1 0x20 DUP1 SWAP2 DIV MUL PUSH1 0x20 ADD PUSH1 0x40 MLOAD SWAP1 DUP2 ADD PUSH1 0x40 MSTORE DUP1 SWAP4 SWAP3 SWAP2 SWAP1 DUP2 DUP2 MSTORE PUSH1 0x20 ADD DUP4 DUP4 DUP1 DUP3 DUP5 CALLDATACOPY PUSH0 DUP2 DUP5 ADD MSTORE PUSH1 0x1F NOT PUSH1 0x1F DUP3 ADD AND SWAP1 POP DUP1 DUP4 ADD SWAP3 POP POP POP POP POP POP POP PUSH2 0x23B2 JUMP JUMPDEST DUP7 DUP7 PUSH1 0x7 PUSH0 DUP6 DUP2 MSTORE PUSH1 0x20 ADD SWAP1 DUP2 MSTORE PUSH1 0x20 ADD PUSH0 KECCAK256 SWAP2 DUP3 PUSH2 0x10F6 SWAP3 SWAP2 SWAP1 PUSH2 0x4F64 JUMP JUMPDEST POP POP POP JUMPDEST POP POP POP POP POP POP POP POP POP JUMP JUMPDEST DUP2 MLOAD DUP4 MLOAD EQ PUSH2 0x1149 JUMPI PUSH1 0x40 MLOAD PUSH32 0x8C379A000000000000000000000000000000000000000000000000000000000 DUP2 MSTORE PUSH1 0x4 ADD PUSH2 0x1140 SWAP1 PUSH2 0x50A1 JUMP JUMPDEST PUSH1 0x40 MLOAD DUP1 SWAP2 SUB SWAP1 REVERT JUMPDEST PUSH0 PUSH20 0xFFFFFFFFFFFFFFFFFFFFFFFFFFFFFFFFFFFFFFFF AND DUP5 PUSH20 0xFFFFFFFFFFFFFFFFFFFFFFFFFFFFFFFFFFFFFFFF AND SUB PUSH2 0x11B7 JUMPI PUSH1 0x40 MLOAD PUSH32 0x8C379A000000000000000000000000000000000000000000000000000000000 DUP2 MSTORE PUSH1 0x4 ADD PUSH2 0x11AE SWAP1 PUSH2 0x512F JUMP JUMPDEST PUSH1 0x40 MLOAD DUP1 SWAP2 SUB SWAP1 REVERT JUMPDEST PUSH0 JUMPDEST DUP4 MLOAD DUP2 LT ISZERO PUSH2 0x1239 JUMPI PUSH2 0x11E7 DUP5 DUP3 DUP2 MLOAD DUP2 LT PUSH2 0x11D8 JUMPI PUSH2 0x11D7 PUSH2 0x4835 JUMP JUMPDEST JUMPDEST PUSH1 0x20 MUL PUSH1 0x20 ADD ADD MLOAD DUP8 DUP8 PUSH2 0x2475 JUMP JUMPDEST PUSH2 0x1228 DUP7 DUP7 DUP7 DUP5 DUP2 MLOAD DUP2 LT PUSH2 0x11FF JUMPI PUSH2 0x11FE PUSH2 0x4835 JUMP JUMPDEST JUMPDEST PUSH1 0x20 MUL PUSH1 0x20 ADD ADD MLOAD DUP7 DUP6 DUP2 MLOAD DUP2 LT PUSH2 0x121A JUMPI PUSH2 0x1219 PUSH2 0x4835 JUMP JUMPDEST JUMPDEST PUSH1 0x20 MUL PUSH1 0x20 ADD ADD MLOAD DUP7 PUSH2 0x21E8 JUMP JUMPDEST DUP1 PUSH2 0x1232 SWAP1 PUSH2 0x48EC JUMP JUMPDEST SWAP1 POP PUSH2 0x11B9 JUMP JUMPDEST POP POP POP POP POP POP JUMP JUMPDEST PUSH1 0x8 PUSH1 0x20 MSTORE DUP2 PUSH0 MSTORE PUSH1 0x40 PUSH0 KECCAK256 PUSH1 0x20 MSTORE DUP1 PUSH0 MSTORE PUSH1 0x40 PUSH0 KECCAK256 PUSH0 SWAP2 POP SWAP2 POP POP DUP1 SLOAD PUSH2 0x1268 SWAP1 PUSH2 0x488F JUMP JUMPDEST DUP1 PUSH1 0x1F ADD PUSH1 0x20 DUP1 SWAP2 DIV MUL PUSH1 0x20 ADD PUSH1 0x40 MLOAD SWAP1 DUP2 ADD PUSH1 0x40 MSTORE DUP1 SWAP3 SWAP2 SWAP1 DUP2 DUP2 MSTORE PUSH1 0x20 ADD DUP3 DUP1 SLOAD PUSH2 0x1294 SWAP1 PUSH2 0x488F JUMP JUMPDEST DUP1 ISZERO PUSH2 0x12DF JUMPI DUP1 PUSH1 0x1F LT PUSH2 0x12B6 JUMPI PUSH2 0x100 DUP1 DUP4 SLOAD DIV MUL DUP4 MSTORE SWAP2 PUSH1 0x20 ADD SWAP2 PUSH2 0x12DF JUMP JUMPDEST DUP3 ADD SWAP2 SWAP1 PUSH0 MSTORE PUSH1 0x20 PUSH0 KECCAK256 SWAP1 JUMPDEST DUP2 SLOAD DUP2 MSTORE SWAP1 PUSH1 0x1 ADD SWAP1 PUSH1 0x20 ADD DUP1 DUP4 GT PUSH2 0x12C2 JUMPI DUP3 SWAP1 SUB PUSH1 0x1F AND DUP3 ADD SWAP2 JUMPDEST POP POP POP POP POP DUP2 JUMP JUMPDEST PUSH1 0x60 PUSH2 0x12F1 PUSH2 0x230C JUMP JUMPDEST PUSH1 0x4 DUP1 SLOAD DUP1 PUSH1 0x20 MUL PUSH1 0x20 ADD PUSH1 0x40 MLOAD SWAP1 DUP2 ADD PUSH1 0x40 MSTORE DUP1 SWAP3 SWAP2 SWAP1 DUP2 DUP2 MSTORE PUSH1 0x20 ADD DUP3 DUP1 SLOAD DUP1 ISZERO PUSH2 0x1370 JUMPI PUSH1 0x20 MUL DUP3 ADD SWAP2 SWAP1 PUSH0 MSTORE PUSH1 0x20 PUSH0 KECCAK256 SWAP1 JUMPDEST DUP2 PUSH0 SWAP1 SLOAD SWAP1 PUSH2 0x100 EXP SWAP1 DIV PUSH20 0xFFFFFFFFFFFFFFFFFFFFFFFFFFFFFFFFFFFFFFFF AND PUSH20 0xFFFFFFFFFFFFFFFFFFFFFFFFFFFFFFFFFFFFFFFF AND DUP2 MSTORE PUSH1 0x20 ADD SWAP1 PUSH1 0x1 ADD SWAP1 DUP1 DUP4 GT PUSH2 0x1327 JUMPI JUMPDEST POP POP POP POP POP SWAP1 POP SWAP1 JUMP JUMPDEST PUSH1 0x60 DUP2 MLOAD DUP4 MLOAD EQ PUSH2 0x13C6 JUMPI DUP2 MLOAD DUP4 MLOAD PUSH1 0x40 MLOAD PUSH32 0x5B05999100000000000000000000000000000000000000000000000000000000 DUP2 MSTORE PUSH1 0x4 ADD PUSH2 0x13BD SWAP3 SWAP2 SWAP1 PUSH2 0x514D JUMP JUMPDEST PUSH1 0x40 MLOAD DUP1 SWAP2 SUB SWAP1 REVERT JUMPDEST PUSH0 DUP4 MLOAD PUSH8 0xFFFFFFFFFFFFFFFF DUP2 GT ISZERO PUSH2 0x13E2 JUMPI PUSH2 0x13E1 PUSH2 0x3E2C JUMP JUMPDEST JUMPDEST PUSH1 0x40 MLOAD SWAP1 DUP1 DUP3 MSTORE DUP1 PUSH1 0x20 MUL PUSH1 0x20 ADD DUP3 ADD PUSH1 0x40 MSTORE DUP1 ISZERO PUSH2 0x1410 JUMPI DUP2 PUSH1 0x20 ADD PUSH1 0x20 DUP3 MUL DUP1 CALLDATASIZE DUP4 CALLDATACOPY DUP1 DUP3 ADD SWAP2 POP POP SWAP1 POP JUMPDEST POP SWAP1 POP PUSH0 JUMPDEST DUP5 MLOAD DUP2 LT ISZERO PUSH2 0x147C JUMPI PUSH2 0x144C PUSH2 0x1434 DUP3 DUP8 PUSH2 0x28D2 SWAP1 SWAP2 SWAP1 PUSH4 0xFFFFFFFF AND JUMP JUMPDEST PUSH2 0x1447 DUP4 DUP8 PUSH2 0x28E5 SWAP1 SWAP2 SWAP1 PUSH4 0xFFFFFFFF AND JUMP JUMPDEST PUSH2 0x59A JUMP JUMPDEST DUP3 DUP3 DUP2 MLOAD DUP2 LT PUSH2 0x145F JUMPI PUSH2 0x145E PUSH2 0x4835 JUMP JUMPDEST JUMPDEST PUSH1 0x20 MUL PUSH1 0x20 ADD ADD DUP2 DUP2 MSTORE POP POP DUP1 PUSH2 0x1475 SWAP1 PUSH2 0x48EC JUMP JUMPDEST SWAP1 POP PUSH2 0x1415 JUMP JUMPDEST POP DUP1 SWAP2 POP POP SWAP3 SWAP2 POP POP JUMP JUMPDEST PUSH2 0x1490 CALLER PUSH2 0x28F8 JUMP JUMPDEST PUSH2 0x14CF JUMPI PUSH1 0x40 MLOAD PUSH32 0x8C379A000000000000000000000000000000000000000000000000000000000 DUP2 MSTORE PUSH1 0x4 ADD PUSH2 0x14C6 SWAP1 PUSH2 0x51BE JUMP JUMPDEST PUSH1 0x40 MLOAD DUP1 SWAP2 SUB SWAP1 REVERT JUMPDEST PUSH2 0x14E3 DUP3 PUSH1 0x5 PUSH2 0x2447 SWAP1 SWAP2 SWAP1 PUSH4 0xFFFFFFFF AND JUMP JUMPDEST PUSH2 0x1522 JUMPI PUSH1 0x40 MLOAD PUSH32 0x8C379A000000000000000000000000000000000000000000000000000000000 DUP2 MSTORE PUSH1 0x4 ADD PUSH2 0x1519 SWAP1 PUSH2 0x5226 JUMP JUMPDEST PUSH1 0x40 MLOAD DUP1 SWAP2 SUB SWAP1 REVERT JUMPDEST PUSH0 PUSH1 0x8 PUSH0 DUP5 DUP2 MSTORE PUSH1 0x20 ADD SWAP1 DUP2 MSTORE PUSH1 0x20 ADD PUSH0 KECCAK256 PUSH0 DUP4 PUSH8 0xFFFFFFFFFFFFFFFF AND PUSH8 0xFFFFFFFFFFFFFFFF AND DUP2 MSTORE PUSH1 0x20 ADD SWAP1 DUP2 MSTORE PUSH1 0x20 ADD PUSH0 KECCAK256 DUP1 SLOAD PUSH2 0x1562 SWAP1 PUSH2 0x488F JUMP JUMPDEST SWAP1 POP SUB PUSH2 0x15A4 JUMPI PUSH1 0x40 MLOAD PUSH32 0x8C379A000000000000000000000000000000000000000000000000000000000 DUP2 MSTORE PUSH1 0x4 ADD PUSH2 0x159B SWAP1 PUSH2 0x528E JUMP JUMPDEST PUSH1 0x40 MLOAD DUP1 SWAP2 SUB SWAP1 REVERT JUMPDEST PUSH1 0x8 PUSH0 DUP4 DUP2 MSTORE PUSH1 0x20 ADD SWAP1 DUP2 MSTORE PUSH1 0x20 ADD PUSH0 KECCAK256 PUSH0 DUP3 PUSH8 0xFFFFFFFFFFFFFFFF AND PUSH8 0xFFFFFFFFFFFFFFFF AND DUP2 MSTORE PUSH1 0x20 ADD SWAP1 DUP2 MSTORE PUSH1 0x20 ADD PUSH0 KECCAK256 PUSH0 PUSH2 0x15E3 SWAP2 SWAP1 PUSH2 0x36F3 JUMP JUMPDEST PUSH1 0x9 PUSH0 DUP4 DUP2 MSTORE PUSH1 0x20 ADD SWAP1 DUP2 MSTORE PUSH1 0x20 ADD PUSH0 KECCAK256 PUSH0 DUP3 PUSH8 0xFFFFFFFFFFFFFFFF AND PUSH8 0xFFFFFFFFFFFFFFFF AND DUP2 MSTORE PUSH1 0x20 ADD SWAP1 DUP2 MSTORE PUSH1 0x20 ADD PUSH0 KECCAK256 PUSH0 DUP1 DUP3 ADD PUSH0 PUSH2 0x1626 SWAP2 SWAP1 PUSH2 0x36F3 JUMP JUMPDEST PUSH1 0x1 DUP3 ADD PUSH0 PUSH2 0x1635 SWAP2 SWAP1 PUSH2 0x36F3 JUMP JUMPDEST PUSH1 0x2 DUP3 ADD PUSH0 PUSH2 0x1644 SWAP2 SWAP1 PUSH2 0x36F3 JUMP JUMPDEST POP POP PUSH0 JUMPDEST PUSH1 0xA DUP1 SLOAD SWAP1 POP DUP2 LT ISZERO PUSH2 0x17A1 JUMPI DUP2 PUSH8 0xFFFFFFFFFFFFFFFF AND PUSH1 0xA DUP3 DUP2 SLOAD DUP2 LT PUSH2 0x1674 JUMPI PUSH2 0x1673 PUSH2 0x4835 JUMP JUMPDEST JUMPDEST SWAP1 PUSH0 MSTORE PUSH1 0x20 PUSH0 KECCAK256 SWAP1 PUSH1 0x4 SWAP2 DUP3 DUP3 DIV ADD SWAP2 SWAP1 MOD PUSH1 0x8 MUL SWAP1 SLOAD SWAP1 PUSH2 0x100 EXP SWAP1 DIV PUSH8 0xFFFFFFFFFFFFFFFF AND PUSH8 0xFFFFFFFFFFFFFFFF AND SUB PUSH2 0x178E JUMPI PUSH1 0xA PUSH1 0x1 PUSH1 0xA DUP1 SLOAD SWAP1 POP PUSH2 0x16BF SWAP2 SWAP1 PUSH2 0x4933 JUMP JUMPDEST DUP2 SLOAD DUP2 LT PUSH2 0x16D0 JUMPI PUSH2 0x16CF PUSH2 0x4835 JUMP JUMPDEST JUMPDEST SWAP1 PUSH0 MSTORE PUSH1 0x20 PUSH0 KECCAK256 SWAP1 PUSH1 0x4 SWAP2 DUP3 DUP3 DIV ADD SWAP2 SWAP1 MOD PUSH1 0x8 MUL SWAP1 SLOAD SWAP1 PUSH2 0x100 EXP SWAP1 DIV PUSH8 0xFFFFFFFFFFFFFFFF AND PUSH1 0xA DUP3 DUP2 SLOAD DUP2 LT PUSH2 0x170C JUMPI PUSH2 0x170B PUSH2 0x4835 JUMP JUMPDEST JUMPDEST SWAP1 PUSH0 MSTORE PUSH1 0x20 PUSH0 KECCAK256 SWAP1 PUSH1 0x4 SWAP2 DUP3 DUP3 DIV ADD SWAP2 SWAP1 MOD PUSH1 0x8 MUL PUSH2 0x100 EXP DUP2 SLOAD DUP2 PUSH8 0xFFFFFFFFFFFFFFFF MUL NOT AND SWAP1 DUP4 PUSH8 0xFFFFFFFFFFFFFFFF AND MUL OR SWAP1 SSTORE POP PUSH1 0xA DUP1 SLOAD DUP1 PUSH2 0x1757 JUMPI PUSH2 0x1756 PUSH2 0x4966 JUMP JUMPDEST JUMPDEST PUSH1 0x1 SWAP1 SUB DUP2 DUP2 SWAP1 PUSH0 MSTORE PUSH1 0x20 PUSH0 KECCAK256 SWAP1 PUSH1 0x4 SWAP2 DUP3 DUP3 DIV ADD SWAP2 SWAP1 MOD PUSH1 0x8 MUL PUSH2 0x100 EXP DUP2 SLOAD SWAP1 PUSH8 0xFFFFFFFFFFFFFFFF MUL NOT AND SWAP1 SSTORE SWAP1 SSTORE PUSH2 0x17A1 JUMP JUMPDEST DUP1 DUP1 PUSH2 0x1799 SWAP1 PUSH2 0x48EC JUMP JUMPDEST SWAP2 POP POP PUSH2 0x1648 JUMP JUMPDEST POP POP POP JUMP JUMPDEST PUSH2 0x17AE PUSH2 0x230C JUMP JUMPDEST PUSH0 PUSH20 0xFFFFFFFFFFFFFFFFFFFFFFFFFFFFFFFFFFFFFFFF AND DUP2 PUSH20 0xFFFFFFFFFFFFFFFFFFFFFFFFFFFFFFFFFFFFFFFF AND SUB PUSH2 0x181C JUMPI PUSH1 0x40 MLOAD PUSH32 0x8C379A000000000000000000000000000000000000000000000000000000000 DUP2 MSTORE PUSH1 0x4 ADD PUSH2 0x1813 SWAP1 PUSH2 0x52F6 JUMP JUMPDEST PUSH1 0x40 MLOAD DUP1 SWAP2 SUB SWAP1 REVERT JUMPDEST PUSH2 0x1825 DUP2 PUSH2 0x28F8 JUMP JUMPDEST ISZERO PUSH2 0x1865 JUMPI PUSH1 0x40 MLOAD PUSH32 0x8C379A000000000000000000000000000000000000000000000000000000000 DUP2 MSTORE PUSH1 0x4 ADD PUSH2 0x185C SWAP1 PUSH2 0x535E JUMP JUMPDEST PUSH1 0x40 MLOAD DUP1 SWAP2 SUB SWAP1 REVERT JUMPDEST PUSH1 0x4 DUP2 SWAP1 DUP1 PUSH1 0x1 DUP2 SLOAD ADD DUP1 DUP3 SSTORE DUP1 SWAP2 POP POP PUSH1 0x1 SWAP1 SUB SWAP1 PUSH0 MSTORE PUSH1 0x20 PUSH0 KECCAK256 ADD PUSH0 SWAP1 SWAP2 SWAP1 SWAP2 SWAP1 SWAP2 PUSH2 0x100 EXP DUP2 SLOAD DUP2 PUSH20 0xFFFFFFFFFFFFFFFFFFFFFFFFFFFFFFFFFFFFFFFF MUL NOT AND SWAP1 DUP4 PUSH20 0xFFFFFFFFFFFFFFFFFFFFFFFFFFFFFFFFFFFFFFFF AND MUL OR SWAP1 SSTORE POP POP JUMP JUMPDEST PUSH2 0x18D0 PUSH2 0x230C JUMP JUMPDEST PUSH2 0x18D9 PUSH0 PUSH2 0x29A0 JUMP JUMPDEST JUMP JUMPDEST PUSH0 PUSH1 0x40 MLOAD DUP1 PUSH1 0x60 ADD PUSH1 0x40 MSTORE DUP1 DUP12 DUP12 DUP1 DUP1 PUSH1 0x1F ADD PUSH1 0x20 DUP1 SWAP2 DIV MUL PUSH1 0x20 ADD PUSH1 0x40 MLOAD SWAP1 DUP2 ADD PUSH1 0x40 MSTORE DUP1 SWAP4 SWAP3 SWAP2 SWAP1 DUP2 DUP2 MSTORE PUSH1 0x20 ADD DUP4 DUP4 DUP1 DUP3 DUP5 CALLDATACOPY PUSH0 DUP2 DUP5 ADD MSTORE PUSH1 0x1F NOT PUSH1 0x1F DUP3 ADD AND SWAP1 POP DUP1 DUP4 ADD SWAP3 POP POP POP POP POP POP POP DUP2 MSTORE PUSH1 0x20 ADD DUP10 PUSH20 0xFFFFFFFFFFFFFFFFFFFFFFFFFFFFFFFFFFFFFFFF AND DUP2 MSTORE PUSH1 0x20 ADD DUP9 DUP9 DUP1 DUP1 PUSH1 0x1F ADD PUSH1 0x20 DUP1 SWAP2 DIV MUL PUSH1 0x20 ADD PUSH1 0x40 MLOAD SWAP1 DUP2 ADD PUSH1 0x40 MSTORE DUP1 SWAP4 SWAP3 SWAP2 SWAP1 DUP2 DUP2 MSTORE PUSH1 0x20 ADD DUP4 DUP4 DUP1 DUP3 DUP5 CALLDATACOPY PUSH0 DUP2 DUP5 ADD MSTORE PUSH1 0x1F NOT PUSH1 0x1F DUP3 ADD AND SWAP1 POP DUP1 DUP4 ADD SWAP3 POP POP POP POP POP POP POP DUP2 MSTORE POP SWAP1 POP PUSH1 0xB PUSH0 SWAP1 SLOAD SWAP1 PUSH2 0x100 EXP SWAP1 DIV PUSH20 0xFFFFFFFFFFFFFFFFFFFFFFFFFFFFFFFFFFFFFFFF AND PUSH20 0xFFFFFFFFFFFFFFFFFFFFFFFFFFFFFFFFFFFFFFFF AND PUSH4 0x9F5223E0 DUP13 DUP4 PUSH1 0x40 MLOAD DUP4 PUSH4 0xFFFFFFFF AND PUSH1 0xE0 SHL DUP2 MSTORE PUSH1 0x4 ADD PUSH2 0x19F1 SWAP3 SWAP2 SWAP1 PUSH2 0x5442 JUMP JUMPDEST PUSH0 PUSH1 0x40 MLOAD DUP1 DUP4 SUB DUP2 PUSH0 DUP8 DUP1 EXTCODESIZE ISZERO DUP1 ISZERO PUSH2 0x1A08 JUMPI PUSH0 DUP1 REVERT JUMPDEST POP GAS CALL ISZERO DUP1 ISZERO PUSH2 0x1A1A JUMPI RETURNDATASIZE PUSH0 DUP1 RETURNDATACOPY RETURNDATASIZE PUSH0 REVERT JUMPDEST POP POP POP POP PUSH2 0x1A2A DUP6 DUP13 DUP7 DUP7 PUSH2 0x1DD2 JUMP JUMPDEST PUSH1 0x40 MLOAD DUP1 PUSH1 0x60 ADD PUSH1 0x40 MSTORE DUP1 DUP4 DUP1 PUSH0 ADD SWAP1 PUSH2 0x1A44 SWAP2 SWAP1 PUSH2 0x547C JUMP JUMPDEST DUP1 DUP1 PUSH1 0x1F ADD PUSH1 0x20 DUP1 SWAP2 DIV MUL PUSH1 0x20 ADD PUSH1 0x40 MLOAD SWAP1 DUP2 ADD PUSH1 0x40 MSTORE DUP1 SWAP4 SWAP3 SWAP2 SWAP1 DUP2 DUP2 MSTORE PUSH1 0x20 ADD DUP4 DUP4 DUP1 DUP3 DUP5 CALLDATACOPY PUSH0 DUP2 DUP5 ADD MSTORE PUSH1 0x1F NOT PUSH1 0x1F DUP3 ADD AND SWAP1 POP DUP1 DUP4 ADD SWAP3 POP POP POP POP POP POP POP DUP2 MSTORE PUSH1 0x20 ADD DUP4 DUP1 PUSH1 0x20 ADD SWAP1 PUSH2 0x1A9B SWAP2 SWAP1 PUSH2 0x547C JUMP JUMPDEST DUP1 DUP1 PUSH1 0x1F ADD PUSH1 0x20 DUP1 SWAP2 DIV MUL PUSH1 0x20 ADD PUSH1 0x40 MLOAD SWAP1 DUP2 ADD PUSH1 0x40 MSTORE DUP1 SWAP4 SWAP3 SWAP2 SWAP1 DUP2 DUP2 MSTORE PUSH1 0x20 ADD DUP4 DUP4 DUP1 DUP3 DUP5 CALLDATACOPY PUSH0 DUP2 DUP5 ADD MSTORE PUSH1 0x1F NOT PUSH1 0x1F DUP3 ADD AND SWAP1 POP DUP1 DUP4 ADD SWAP3 POP POP POP POP POP POP POP DUP2 MSTORE PUSH1 0x20 ADD DUP4 DUP1 PUSH1 0x40 ADD SWAP1 PUSH2 0x1AF2 SWAP2 SWAP1 PUSH2 0x547C JUMP JUMPDEST DUP1 DUP1 PUSH1 0x1F ADD PUSH1 0x20 DUP1 SWAP2 DIV MUL PUSH1 0x20 ADD PUSH1 0x40 MLOAD SWAP1 DUP2 ADD PUSH1 0x40 MSTORE DUP1 SWAP4 SWAP3 SWAP2 SWAP1 DUP2 DUP2 MSTORE PUSH1 0x20 ADD DUP4 DUP4 DUP1 DUP3 DUP5 CALLDATACOPY PUSH0 DUP2 DUP5 ADD MSTORE PUSH1 0x1F NOT PUSH1 0x1F DUP3 ADD AND SWAP1 POP DUP1 DUP4 ADD SWAP3 POP POP POP POP POP POP POP DUP2 MSTORE POP PUSH1 0x9 PUSH0 DUP8 DUP2 MSTORE PUSH1 0x20 ADD SWAP1 DUP2 MSTORE PUSH1 0x20 ADD PUSH0 KECCAK256 PUSH0 DUP14 PUSH8 0xFFFFFFFFFFFFFFFF AND PUSH8 0xFFFFFFFFFFFFFFFF AND DUP2 MSTORE PUSH1 0x20 ADD SWAP1 DUP2 MSTORE PUSH1 0x20 ADD PUSH0 KECCAK256 PUSH0 DUP3 ADD MLOAD DUP2 PUSH0 ADD SWAP1 DUP2 PUSH2 0x1B7E SWAP2 SWAP1 PUSH2 0x54DE JUMP JUMPDEST POP PUSH1 0x20 DUP3 ADD MLOAD DUP2 PUSH1 0x1 ADD SWAP1 DUP2 PUSH2 0x1B94 SWAP2 SWAP1 PUSH2 0x54DE JUMP JUMPDEST POP PUSH1 0x40 DUP3 ADD MLOAD DUP2 PUSH1 0x2 ADD SWAP1 DUP2 PUSH2 0x1BAA SWAP2 SWAP1 PUSH2 0x54DE JUMP JUMPDEST POP SWAP1 POP POP POP POP POP POP POP POP POP POP POP POP POP JUMP JUMPDEST PUSH1 0x60 PUSH2 0x1BC7 PUSH1 0x5 PUSH2 0x2393 JUMP JUMPDEST SWAP1 POP SWAP1 JUMP JUMPDEST PUSH1 0x1 DUP2 JUMP JUMPDEST PUSH0 PUSH1 0x3 PUSH0 SWAP1 SLOAD SWAP1 PUSH2 0x100 EXP SWAP1 DIV PUSH20 0xFFFFFFFFFFFFFFFFFFFFFFFFFFFFFFFFFFFFFFFF AND SWAP1 POP SWAP1 JUMP JUMPDEST PUSH1 0x9 PUSH1 0x20 MSTORE DUP2 PUSH0 MSTORE PUSH1 0x40 PUSH0 KECCAK256 PUSH1 0x20 MSTORE DUP1 PUSH0 MSTORE PUSH1 0x40 PUSH0 KECCAK256 PUSH0 SWAP2 POP SWAP2 POP POP DUP1 PUSH0 ADD DUP1 SLOAD PUSH2 0x1C23 SWAP1 PUSH2 0x488F JUMP JUMPDEST DUP1 PUSH1 0x1F ADD PUSH1 0x20 DUP1 SWAP2 DIV MUL PUSH1 0x20 ADD PUSH1 0x40 MLOAD SWAP1 DUP2 ADD PUSH1 0x40 MSTORE DUP1 SWAP3 SWAP2 SWAP1 DUP2 DUP2 MSTORE PUSH1 0x20 ADD DUP3 DUP1 SLOAD PUSH2 0x1C4F SWAP1 PUSH2 0x488F JUMP JUMPDEST DUP1 ISZERO PUSH2 0x1C9A JUMPI DUP1 PUSH1 0x1F LT PUSH2 0x1C71 JUMPI PUSH2 0x100 DUP1 DUP4 SLOAD DIV MUL DUP4 MSTORE SWAP2 PUSH1 0x20 ADD SWAP2 PUSH2 0x1C9A JUMP JUMPDEST DUP3 ADD SWAP2 SWAP1 PUSH0 MSTORE PUSH1 0x20 PUSH0 KECCAK256 SWAP1 JUMPDEST DUP2 SLOAD DUP2 MSTORE SWAP1 PUSH1 0x1 ADD SWAP1 PUSH1 0x20 ADD DUP1 DUP4 GT PUSH2 0x1C7D JUMPI DUP3 SWAP1 SUB PUSH1 0x1F AND DUP3 ADD SWAP2 JUMPDEST POP POP POP POP POP SWAP1 DUP1 PUSH1 0x1 ADD DUP1 SLOAD PUSH2 0x1CAF SWAP1 PUSH2 0x488F JUMP JUMPDEST DUP1 PUSH1 0x1F ADD PUSH1 0x20 DUP1 SWAP2 DIV MUL PUSH1 0x20 ADD PUSH1 0x40 MLOAD SWAP1 DUP2 ADD PUSH1 0x40 MSTORE DUP1 SWAP3 SWAP2 SWAP1 DUP2 DUP2 MSTORE PUSH1 0x20 ADD DUP3 DUP1 SLOAD PUSH2 0x1CDB SWAP1 PUSH2 0x488F JUMP JUMPDEST DUP1 ISZERO PUSH2 0x1D26 JUMPI DUP1 PUSH1 0x1F LT PUSH2 0x1CFD JUMPI PUSH2 0x100 DUP1 DUP4 SLOAD DIV MUL DUP4 MSTORE SWAP2 PUSH1 0x20 ADD SWAP2 PUSH2 0x1D26 JUMP JUMPDEST DUP3 ADD SWAP2 SWAP1 PUSH0 MSTORE PUSH1 0x20 PUSH0 KECCAK256 SWAP1 JUMPDEST DUP2 SLOAD DUP2 MSTORE SWAP1 PUSH1 0x1 ADD SWAP1 PUSH1 0x20 ADD DUP1 DUP4 GT PUSH2 0x1D09 JUMPI DUP3 SWAP1 SUB PUSH1 0x1F AND DUP3 ADD SWAP2 JUMPDEST POP POP POP POP POP SWAP1 DUP1 PUSH1 0x2 ADD DUP1 SLOAD PUSH2 0x1D3B SWAP1 PUSH2 0x488F JUMP JUMPDEST DUP1 PUSH1 0x1F ADD PUSH1 0x20 DUP1 SWAP2 DIV MUL PUSH1 0x20 ADD PUSH1 0x40 MLOAD SWAP1 DUP2 ADD PUSH1 0x40 MSTORE DUP1 SWAP3 SWAP2 SWAP1 DUP2 DUP2 MSTORE PUSH1 0x20 ADD DUP3 DUP1 SLOAD PUSH2 0x1D67 SWAP1 PUSH2 0x488F JUMP JUMPDEST DUP1 ISZERO PUSH2 0x1DB2 JUMPI DUP1 PUSH1 0x1F LT PUSH2 0x1D89 JUMPI PUSH2 0x100 DUP1 DUP4 SLOAD DIV MUL DUP4 MSTORE SWAP2 PUSH1 0x20 ADD SWAP2 PUSH2 0x1DB2 JUMP JUMPDEST DUP3 ADD SWAP2 SWAP1 PUSH0 MSTORE PUSH1 0x20 PUSH0 KECCAK256 SWAP1 JUMPDEST DUP2 SLOAD DUP2 MSTORE SWAP1 PUSH1 0x1 ADD SWAP1 PUSH1 0x20 ADD DUP1 DUP4 GT PUSH2 0x1D95 JUMPI DUP3 SWAP1 SUB PUSH1 0x1F AND DUP3 ADD SWAP2 JUMPDEST POP POP POP POP POP SWAP1 POP DUP4 JUMP JUMPDEST PUSH2 0x1DCE PUSH2 0x1DC7 PUSH2 0x2A63 JUMP JUMPDEST DUP4 DUP4 PUSH2 0x2A6A JUMP JUMPDEST POP POP JUMP JUMPDEST PUSH2 0x1DDB CALLER PUSH2 0x28F8 JUMP JUMPDEST PUSH2 0x1E1A JUMPI PUSH1 0x40 MLOAD PUSH32 0x8C379A000000000000000000000000000000000000000000000000000000000 DUP2 MSTORE PUSH1 0x4 ADD PUSH2 0x1E11 SWAP1 PUSH2 0x51BE JUMP JUMPDEST PUSH1 0x40 MLOAD DUP1 SWAP2 SUB SWAP1 REVERT JUMPDEST PUSH2 0x1E2E DUP5 PUSH1 0x5 PUSH2 0x2447 SWAP1 SWAP2 SWAP1 PUSH4 0xFFFFFFFF AND JUMP JUMPDEST PUSH2 0x1E6D JUMPI PUSH1 0x40 MLOAD PUSH32 0x8C379A000000000000000000000000000000000000000000000000000000000 DUP2 MSTORE PUSH1 0x4 ADD PUSH2 0x1E64 SWAP1 PUSH2 0x5226 JUMP JUMPDEST PUSH1 0x40 MLOAD DUP1 SWAP2 SUB SWAP1 REVERT JUMPDEST PUSH0 PUSH1 0x8 PUSH0 DUP7 DUP2 MSTORE PUSH1 0x20 ADD SWAP1 DUP2 MSTORE PUSH1 0x20 ADD PUSH0 KECCAK256 PUSH0 DUP6 PUSH8 0xFFFFFFFFFFFFFFFF AND PUSH8 0xFFFFFFFFFFFFFFFF AND DUP2 MSTORE PUSH1 0x20 ADD SWAP1 DUP2 MSTORE PUSH1 0x20 ADD PUSH0 KECCAK256 DUP1 SLOAD PUSH2 0x1EAD SWAP1 PUSH2 0x488F JUMP JUMPDEST SWAP1 POP EQ PUSH2 0x1EEF JUMPI PUSH1 0x40 MLOAD PUSH32 0x8C379A000000000000000000000000000000000000000000000000000000000 DUP2 MSTORE PUSH1 0x4 ADD PUSH2 0x1EE6 SWAP1 PUSH2 0x55F7 JUMP JUMPDEST PUSH1 0x40 MLOAD DUP1 SWAP2 SUB SWAP1 REVERT JUMPDEST PUSH1 0x40 MLOAD DUP1 PUSH1 0x40 ADD PUSH1 0x40 MSTORE DUP1 PUSH1 0x6 DUP2 MSTORE PUSH1 0x20 ADD PUSH32 0x73656E6465720000000000000000000000000000000000000000000000000000 DUP2 MSTORE POP DUP1 MLOAD SWAP1 PUSH1 0x20 ADD KECCAK256 DUP3 DUP3 PUSH1 0x40 MLOAD PUSH2 0x1F3C SWAP3 SWAP2 SWAP1 PUSH2 0x4A91 JUMP JUMPDEST PUSH1 0x40 MLOAD DUP1 SWAP2 SUB SWAP1 KECCAK256 EQ DUP1 PUSH2 0x1FA2 JUMPI POP PUSH1 0x40 MLOAD DUP1 PUSH1 0x40 ADD PUSH1 0x40 MSTORE DUP1 PUSH1 0x8 DUP2 MSTORE PUSH1 0x20 ADD PUSH32 0x7265636569766572000000000000000000000000000000000000000000000000 DUP2 MSTORE POP DUP1 MLOAD SWAP1 PUSH1 0x20 ADD KECCAK256 DUP3 DUP3 PUSH1 0x40 MLOAD PUSH2 0x1F98 SWAP3 SWAP2 SWAP1 PUSH2 0x4A91 JUMP JUMPDEST PUSH1 0x40 MLOAD DUP1 SWAP2 SUB SWAP1 KECCAK256 EQ JUMPDEST PUSH2 0x1FE1 JUMPI PUSH1 0x40 MLOAD PUSH32 0x8C379A000000000000000000000000000000000000000000000000000000000 DUP2 MSTORE PUSH1 0x4 ADD PUSH2 0x1FD8 SWAP1 PUSH2 0x5685 JUMP JUMPDEST PUSH1 0x40 MLOAD DUP1 SWAP2 SUB SWAP1 REVERT JUMPDEST DUP2 DUP2 PUSH1 0x8 PUSH0 DUP8 DUP2 MSTORE PUSH1 0x20 ADD SWAP1 DUP2 MSTORE PUSH1 0x20 ADD PUSH0 KECCAK256 PUSH0 DUP7 PUSH8 0xFFFFFFFFFFFFFFFF AND PUSH8 0xFFFFFFFFFFFFFFFF AND DUP2 MSTORE PUSH1 0x20 ADD SWAP1 DUP2 MSTORE PUSH1 0x20 ADD PUSH0 KECCAK256 SWAP2 DUP3 PUSH2 0x2024 SWAP3 SWAP2 SWAP1 PUSH2 0x4F64 JUMP JUMPDEST POP PUSH1 0xA DUP4 SWAP1 DUP1 PUSH1 0x1 DUP2 SLOAD ADD DUP1 DUP3 SSTORE DUP1 SWAP2 POP POP PUSH1 0x1 SWAP1 SUB SWAP1 PUSH0 MSTORE PUSH1 0x20 PUSH0 KECCAK256 SWAP1 PUSH1 0x4 SWAP2 DUP3 DUP3 DIV ADD SWAP2 SWAP1 MOD PUSH1 0x8 MUL SWAP1 SWAP2 SWAP1 SWAP2 SWAP1 SWAP2 PUSH2 0x100 EXP DUP2 SLOAD DUP2 PUSH8 0xFFFFFFFFFFFFFFFF MUL NOT AND SWAP1 DUP4 PUSH8 0xFFFFFFFFFFFFFFFF AND MUL OR SWAP1 SSTORE POP POP POP POP POP JUMP JUMPDEST PUSH1 0x2 DUP2 JUMP JUMPDEST PUSH1 0xA DUP2 DUP2 SLOAD DUP2 LT PUSH2 0x2093 JUMPI PUSH0 DUP1 REVERT JUMPDEST SWAP1 PUSH0 MSTORE PUSH1 0x20 PUSH0 KECCAK256 SWAP1 PUSH1 0x4 SWAP2 DUP3 DUP3 DIV ADD SWAP2 SWAP1 MOD PUSH1 0x8 MUL SWAP2 POP SLOAD SWAP1 PUSH2 0x100 EXP SWAP1 DIV PUSH8 0xFFFFFFFFFFFFFFFF AND DUP2 JUMP JUMPDEST PUSH1 0x7 PUSH1 0x20 MSTORE DUP1 PUSH0 MSTORE PUSH1 0x40 PUSH0 KECCAK256 PUSH0 SWAP2 POP SWAP1 POP DUP1 SLOAD PUSH2 0x20DB SWAP1 PUSH2 0x488F JUMP JUMPDEST DUP1 PUSH1 0x1F ADD PUSH1 0x20 DUP1 SWAP2 DIV MUL PUSH1 0x20 ADD PUSH1 0x40 MLOAD SWAP1 DUP2 ADD PUSH1 0x40 MSTORE DUP1 SWAP3 SWAP2 SWAP1 DUP2 DUP2 MSTORE PUSH1 0x20 ADD DUP3 DUP1 SLOAD PUSH2 0x2107 SWAP1 PUSH2 0x488F JUMP JUMPDEST DUP1 ISZERO PUSH2 0x2152 JUMPI DUP1 PUSH1 0x1F LT PUSH2 0x2129 JUMPI PUSH2 0x100 DUP1 DUP4 SLOAD DIV MUL DUP4 MSTORE SWAP2 PUSH1 0x20 ADD SWAP2 PUSH2 0x2152 JUMP JUMPDEST DUP3 ADD SWAP2 SWAP1 PUSH0 MSTORE PUSH1 0x20 PUSH0 KECCAK256 SWAP1 JUMPDEST DUP2 SLOAD DUP2 MSTORE SWAP1 PUSH1 0x1 ADD SWAP1 PUSH1 0x20 ADD DUP1 DUP4 GT PUSH2 0x2135 JUMPI DUP3 SWAP1 SUB PUSH1 0x1F AND DUP3 ADD SWAP2 JUMPDEST POP POP POP POP POP DUP2 JUMP JUMPDEST PUSH0 PUSH1 0x1 PUSH0 DUP5 PUSH20 0xFFFFFFFFFFFFFFFFFFFFFFFFFFFFFFFFFFFFFFFF AND PUSH20 0xFFFFFFFFFFFFFFFFFFFFFFFFFFFFFFFFFFFFFFFF AND DUP2 MSTORE PUSH1 0x20 ADD SWAP1 DUP2 MSTORE PUSH1 0x20 ADD PUSH0 KECCAK256 PUSH0 DUP4 PUSH20 0xFFFFFFFFFFFFFFFFFFFFFFFFFFFFFFFFFFFFFFFF AND PUSH20 0xFFFFFFFFFFFFFFFFFFFFFFFFFFFFFFFFFFFFFFFF AND DUP2 MSTORE PUSH1 0x20 ADD SWAP1 DUP2 MSTORE PUSH1 0x20 ADD PUSH0 KECCAK256 PUSH0 SWAP1 SLOAD SWAP1 PUSH2 0x100 EXP SWAP1 DIV PUSH1 0xFF AND SWAP1 POP SWAP3 SWAP2 POP POP JUMP JUMPDEST PUSH2 0x21F3 DUP4 DUP7 DUP7 PUSH2 0x2475 JUMP JUMPDEST PUSH2 0x2200 DUP6 DUP6 DUP6 DUP6 DUP6 PUSH2 0x2BD3 JUMP JUMPDEST POP POP POP POP POP JUMP JUMPDEST PUSH2 0x220F PUSH2 0x230C JUMP JUMPDEST PUSH0 PUSH20 0xFFFFFFFFFFFFFFFFFFFFFFFFFFFFFFFFFFFFFFFF AND DUP2 PUSH20 0xFFFFFFFFFFFFFFFFFFFFFFFFFFFFFFFFFFFFFFFF AND SUB PUSH2 0x227F JUMPI PUSH0 PUSH1 0x40 MLOAD PUSH32 0x1E4FBDF700000000000000000000000000000000000000000000000000000000 DUP2 MSTORE PUSH1 0x4 ADD PUSH2 0x2276 SWAP2 SWAP1 PUSH2 0x45B0 JUMP JUMPDEST PUSH1 0x40 MLOAD DUP1 SWAP2 SUB SWAP1 REVERT JUMPDEST PUSH2 0x2288 DUP2 PUSH2 0x29A0 JUMP JUMPDEST POP JUMP JUMPDEST PUSH2 0x2293 PUSH2 0x230C JUMP JUMPDEST PUSH2 0x229E DUP4 DUP4 DUP4 PUSH2 0x2C7A JUMP JUMPDEST POP POP POP JUMP JUMPDEST PUSH0 PUSH32 0x1FFC9A700000000000000000000000000000000000000000000000000000000 PUSH28 0xFFFFFFFFFFFFFFFFFFFFFFFFFFFFFFFFFFFFFFFFFFFFFFFFFFFFFFFF NOT AND DUP3 PUSH28 0xFFFFFFFFFFFFFFFFFFFFFFFFFFFFFFFFFFFFFFFFFFFFFFFFFFFFFFFF NOT AND EQ SWAP1 POP SWAP2 SWAP1 POP JUMP JUMPDEST PUSH2 0x2314 PUSH2 0x2A63 JUMP JUMPDEST PUSH20 0xFFFFFFFFFFFFFFFFFFFFFFFFFFFFFFFFFFFFFFFF AND PUSH2 0x2332 PUSH2 0x1BD1 JUMP JUMPDEST PUSH20 0xFFFFFFFFFFFFFFFFFFFFFFFFFFFFFFFFFFFFFFFF AND EQ PUSH2 0x2391 JUMPI PUSH2 0x2355 PUSH2 0x2A63 JUMP JUMPDEST PUSH1 0x40 MLOAD PUSH32 0x118CDAA700000000000000000000000000000000000000000000000000000000 DUP2 MSTORE PUSH1 0x4 ADD PUSH2 0x2388 SWAP2 SWAP1 PUSH2 0x45B0 JUMP JUMPDEST PUSH1 0x40 MLOAD DUP1 SWAP2 SUB SWAP1 REVERT JUMPDEST JUMP JUMPDEST PUSH1 0x60 PUSH0 PUSH2 0x23A1 DUP4 PUSH0 ADD PUSH2 0x2D1C JUMP JUMPDEST SWAP1 POP PUSH1 0x60 DUP2 SWAP1 POP DUP1 SWAP3 POP POP POP SWAP2 SWAP1 POP JUMP JUMPDEST PUSH0 PUSH20 0xFFFFFFFFFFFFFFFFFFFFFFFFFFFFFFFFFFFFFFFF AND DUP5 PUSH20 0xFFFFFFFFFFFFFFFFFFFFFFFFFFFFFFFFFFFFFFFF AND SUB PUSH2 0x2422 JUMPI PUSH0 PUSH1 0x40 MLOAD PUSH32 0x57F447CE00000000000000000000000000000000000000000000000000000000 DUP2 MSTORE PUSH1 0x4 ADD PUSH2 0x2419 SWAP2 SWAP1 PUSH2 0x45B0 JUMP JUMPDEST PUSH1 0x40 MLOAD DUP1 SWAP2 SUB SWAP1 REVERT JUMPDEST PUSH0 DUP1 PUSH2 0x242E DUP6 DUP6 PUSH2 0x2D75 JUMP JUMPDEST SWAP2 POP SWAP2 POP PUSH2 0x243F PUSH0 DUP8 DUP5 DUP5 DUP8 PUSH2 0x2DA5 JUMP JUMPDEST POP POP POP POP POP POP JUMP JUMPDEST PUSH0 PUSH2 0x2456 DUP4 PUSH0 ADD DUP4 PUSH0 SHL PUSH2 0x2E51 JUMP JUMPDEST SWAP1 POP SWAP3 SWAP2 POP POP JUMP JUMPDEST PUSH0 PUSH2 0x246D DUP4 PUSH0 ADD DUP4 PUSH0 SHL PUSH2 0x2E71 JUMP JUMPDEST SWAP1 POP SWAP3 SWAP2 POP POP JUMP JUMPDEST PUSH0 PUSH1 0xA DUP1 SLOAD DUP1 PUSH1 0x20 MUL PUSH1 0x20 ADD PUSH1 0x40 MLOAD SWAP1 DUP2 ADD PUSH1 0x40 MSTORE DUP1 SWAP3 SWAP2 SWAP1 DUP2 DUP2 MSTORE PUSH1 0x20 ADD DUP3 DUP1 SLOAD DUP1 ISZERO PUSH2 0x24F3 JUMPI PUSH1 0x20 MUL DUP3 ADD SWAP2 SWAP1 PUSH0 MSTORE PUSH1 0x20 PUSH0 KECCAK256 SWAP1 PUSH0 SWAP1 JUMPDEST DUP3 DUP3 SWAP1 SLOAD SWAP1 PUSH2 0x100 EXP SWAP1 DIV PUSH8 0xFFFFFFFFFFFFFFFF AND PUSH8 0xFFFFFFFFFFFFFFFF AND DUP2 MSTORE PUSH1 0x20 ADD SWAP1 PUSH1 0x8 ADD SWAP1 PUSH1 0x20 DUP3 PUSH1 0x7 ADD DIV SWAP3 DUP4 ADD SWAP3 PUSH1 0x1 SUB DUP3 MUL SWAP2 POP DUP1 DUP5 GT PUSH2 0x24AE JUMPI SWAP1 POP JUMPDEST POP POP POP POP POP SWAP1 POP PUSH0 JUMPDEST DUP2 MLOAD DUP2 LT ISZERO PUSH2 0x28CB JUMPI PUSH0 PUSH1 0x8 PUSH0 DUP8 DUP2 MSTORE PUSH1 0x20 ADD SWAP1 DUP2 MSTORE PUSH1 0x20 ADD PUSH0 KECCAK256 PUSH0 DUP5 DUP5 DUP2 MLOAD DUP2 LT PUSH2 0x252B JUMPI PUSH2 0x252A PUSH2 0x4835 JUMP JUMPDEST JUMPDEST PUSH1 0x20 MUL PUSH1 0x20 ADD ADD MLOAD PUSH8 0xFFFFFFFFFFFFFFFF AND PUSH8 0xFFFFFFFFFFFFFFFF AND DUP2 MSTORE PUSH1 0x20 ADD SWAP1 DUP2 MSTORE PUSH1 0x20 ADD PUSH0 KECCAK256 DUP1 SLOAD PUSH2 0x255F SWAP1 PUSH2 0x488F JUMP JUMPDEST DUP1 PUSH1 0x1F ADD PUSH1 0x20 DUP1 SWAP2 DIV MUL PUSH1 0x20 ADD PUSH1 0x40 MLOAD SWAP1 DUP2 ADD PUSH1 0x40 MSTORE DUP1 SWAP3 SWAP2 SWAP1 DUP2 DUP2 MSTORE PUSH1 0x20 ADD DUP3 DUP1 SLOAD PUSH2 0x258B SWAP1 PUSH2 0x488F JUMP JUMPDEST DUP1 ISZERO PUSH2 0x25D6 JUMPI DUP1 PUSH1 0x1F LT PUSH2 0x25AD JUMPI PUSH2 0x100 DUP1 DUP4 SLOAD DIV MUL DUP4 MSTORE SWAP2 PUSH1 0x20 ADD SWAP2 PUSH2 0x25D6 JUMP JUMPDEST DUP3 ADD SWAP2 SWAP1 PUSH0 MSTORE PUSH1 0x20 PUSH0 KECCAK256 SWAP1 JUMPDEST DUP2 SLOAD DUP2 MSTORE SWAP1 PUSH1 0x1 ADD SWAP1 PUSH1 0x20 ADD DUP1 DUP4 GT PUSH2 0x25B9 JUMPI DUP3 SWAP1 SUB PUSH1 0x1F AND DUP3 ADD SWAP2 JUMPDEST POP POP POP POP POP SWAP1 POP PUSH0 DUP2 MLOAD SUB PUSH2 0x25EB JUMPI POP PUSH2 0x28B8 JUMP JUMPDEST PUSH1 0x40 MLOAD DUP1 PUSH1 0x40 ADD PUSH1 0x40 MSTORE DUP1 PUSH1 0x6 DUP2 MSTORE PUSH1 0x20 ADD PUSH32 0x73656E6465720000000000000000000000000000000000000000000000000000 DUP2 MSTORE POP DUP1 MLOAD SWAP1 PUSH1 0x20 ADD KECCAK256 DUP2 DUP1 MLOAD SWAP1 PUSH1 0x20 ADD KECCAK256 SUB PUSH2 0x2752 JUMPI PUSH1 0xB PUSH0 SWAP1 SLOAD SWAP1 PUSH2 0x100 EXP SWAP1 DIV PUSH20 0xFFFFFFFFFFFFFFFFFFFFFFFFFFFFFFFFFFFFFFFF AND PUSH20 0xFFFFFFFFFFFFFFFFFFFFFFFFFFFFFFFFFFFFFFFF AND PUSH4 0x8C1DA2C9 DUP7 DUP6 DUP6 DUP2 MLOAD DUP2 LT PUSH2 0x2686 JUMPI PUSH2 0x2685 PUSH2 0x4835 JUMP JUMPDEST JUMPDEST PUSH1 0x20 MUL PUSH1 0x20 ADD ADD MLOAD PUSH1 0x40 MLOAD DUP4 PUSH4 0xFFFFFFFF AND PUSH1 0xE0 SHL DUP2 MSTORE PUSH1 0x4 ADD PUSH2 0x26AB SWAP3 SWAP2 SWAP1 PUSH2 0x56A3 JUMP JUMPDEST PUSH0 PUSH1 0x40 MLOAD DUP1 DUP4 SUB DUP2 DUP7 GAS STATICCALL ISZERO DUP1 ISZERO PUSH2 0x26C5 JUMPI RETURNDATASIZE PUSH0 DUP1 RETURNDATACOPY RETURNDATASIZE PUSH0 REVERT JUMPDEST POP POP POP POP PUSH1 0x40 MLOAD RETURNDATASIZE PUSH0 DUP3 RETURNDATACOPY RETURNDATASIZE PUSH1 0x1F NOT PUSH1 0x1F DUP3 ADD AND DUP3 ADD DUP1 PUSH1 0x40 MSTORE POP DUP2 ADD SWAP1 PUSH2 0x26ED SWAP2 SWAP1 PUSH2 0x5829 JUMP JUMPDEST PUSH0 ADD MLOAD PUSH2 0x274D JUMPI DUP3 DUP3 DUP2 MLOAD DUP2 LT PUSH2 0x2707 JUMPI PUSH2 0x2706 PUSH2 0x4835 JUMP JUMPDEST JUMPDEST PUSH1 0x20 MUL PUSH1 0x20 ADD ADD MLOAD DUP6 PUSH1 0x40 MLOAD PUSH32 0xA5A4608E00000000000000000000000000000000000000000000000000000000 DUP2 MSTORE PUSH1 0x4 ADD PUSH2 0x2744 SWAP3 SWAP2 SWAP1 PUSH2 0x5870 JUMP JUMPDEST PUSH1 0x40 MLOAD DUP1 SWAP2 SUB SWAP1 REVERT JUMPDEST PUSH2 0x28B6 JUMP JUMPDEST PUSH1 0x40 MLOAD DUP1 PUSH1 0x40 ADD PUSH1 0x40 MSTORE DUP1 PUSH1 0x8 DUP2 MSTORE PUSH1 0x20 ADD PUSH32 0x7265636569766572000000000000000000000000000000000000000000000000 DUP2 MSTORE POP DUP1 MLOAD SWAP1 PUSH1 0x20 ADD KECCAK256 DUP2 DUP1 MLOAD SWAP1 PUSH1 0x20 ADD KECCAK256 SUB PUSH2 0x28B5 JUMPI PUSH1 0xB PUSH0 SWAP1 SLOAD SWAP1 PUSH2 0x100 EXP SWAP1 DIV PUSH20 0xFFFFFFFFFFFFFFFFFFFFFFFFFFFFFFFFFFFFFFFF AND PUSH20 0xFFFFFFFFFFFFFFFFFFFFFFFFFFFFFFFFFFFFFFFF AND PUSH4 0x8C1DA2C9 DUP6 DUP6 DUP6 DUP2 MLOAD DUP2 LT PUSH2 0x27ED JUMPI PUSH2 0x27EC PUSH2 0x4835 JUMP JUMPDEST JUMPDEST PUSH1 0x20 MUL PUSH1 0x20 ADD ADD MLOAD PUSH1 0x40 MLOAD DUP4 PUSH4 0xFFFFFFFF AND PUSH1 0xE0 SHL DUP2 MSTORE PUSH1 0x4 ADD PUSH2 0x2812 SWAP3 SWAP2 SWAP1 PUSH2 0x56A3 JUMP JUMPDEST PUSH0 PUSH1 0x40 MLOAD DUP1 DUP4 SUB DUP2 DUP7 GAS STATICCALL ISZERO DUP1 ISZERO PUSH2 0x282C JUMPI RETURNDATASIZE PUSH0 DUP1 RETURNDATACOPY RETURNDATASIZE PUSH0 REVERT JUMPDEST POP POP POP POP PUSH1 0x40 MLOAD RETURNDATASIZE PUSH0 DUP3 RETURNDATACOPY RETURNDATASIZE PUSH1 0x1F NOT PUSH1 0x1F DUP3 ADD AND DUP3 ADD DUP1 PUSH1 0x40 MSTORE POP DUP2 ADD SWAP1 PUSH2 0x2854 SWAP2 SWAP1 PUSH2 0x5829 JUMP JUMPDEST PUSH0 ADD MLOAD PUSH2 0x28B4 JUMPI DUP3 DUP3 DUP2 MLOAD DUP2 LT PUSH2 0x286E JUMPI PUSH2 0x286D PUSH2 0x4835 JUMP JUMPDEST JUMPDEST PUSH1 0x20 MUL PUSH1 0x20 ADD ADD MLOAD DUP5 PUSH1 0x40 MLOAD PUSH32 0xA5A4608E00000000000000000000000000000000000000000000000000000000 DUP2 MSTORE PUSH1 0x4 ADD PUSH2 0x28AB SWAP3 SWAP2 SWAP1 PUSH2 0x5870 JUMP JUMPDEST PUSH1 0x40 MLOAD DUP1 SWAP2 SUB SWAP1 REVERT JUMPDEST JUMPDEST JUMPDEST POP JUMPDEST DUP1 DUP1 PUSH2 0x28C3 SWAP1 PUSH2 0x48EC JUMP JUMPDEST SWAP2 POP POP PUSH2 0x24FC JUMP JUMPDEST POP POP POP POP POP JUMP JUMPDEST PUSH0 PUSH1 0x20 DUP3 MUL PUSH1 0x20 DUP5 ADD ADD MLOAD SWAP1 POP SWAP3 SWAP2 POP POP JUMP JUMPDEST PUSH0 PUSH1 0x20 DUP3 MUL PUSH1 0x20 DUP5 ADD ADD MLOAD SWAP1 POP SWAP3 SWAP2 POP POP JUMP JUMPDEST PUSH0 DUP1 PUSH0 SWAP1 POP JUMPDEST PUSH1 0x4 DUP1 SLOAD SWAP1 POP DUP2 LT ISZERO PUSH2 0x2996 JUMPI DUP3 PUSH20 0xFFFFFFFFFFFFFFFFFFFFFFFFFFFFFFFFFFFFFFFF AND PUSH1 0x4 DUP3 DUP2 SLOAD DUP2 LT PUSH2 0x2936 JUMPI PUSH2 0x2935 PUSH2 0x4835 JUMP JUMPDEST JUMPDEST SWAP1 PUSH0 MSTORE PUSH1 0x20 PUSH0 KECCAK256 ADD PUSH0 SWAP1 SLOAD SWAP1 PUSH2 0x100 EXP SWAP1 DIV PUSH20 0xFFFFFFFFFFFFFFFFFFFFFFFFFFFFFFFFFFFFFFFF AND PUSH20 0xFFFFFFFFFFFFFFFFFFFFFFFFFFFFFFFFFFFFFFFF AND SUB PUSH2 0x2983 JUMPI PUSH1 0x1 SWAP2 POP POP PUSH2 0x299B JUMP JUMPDEST DUP1 DUP1 PUSH2 0x298E SWAP1 PUSH2 0x48EC JUMP JUMPDEST SWAP2 POP POP PUSH2 0x28FE JUMP JUMPDEST POP PUSH0 SWAP1 POP JUMPDEST SWAP2 SWAP1 POP JUMP JUMPDEST PUSH0 PUSH1 0x3 PUSH0 SWAP1 SLOAD SWAP1 PUSH2 0x100 EXP SWAP1 DIV PUSH20 0xFFFFFFFFFFFFFFFFFFFFFFFFFFFFFFFFFFFFFFFF AND SWAP1 POP DUP2 PUSH1 0x3 PUSH0 PUSH2 0x100 EXP DUP2 SLOAD DUP2 PUSH20 0xFFFFFFFFFFFFFFFFFFFFFFFFFFFFFFFFFFFFFFFF MUL NOT AND SWAP1 DUP4 PUSH20 0xFFFFFFFFFFFFFFFFFFFFFFFFFFFFFFFFFFFFFFFF AND MUL OR SWAP1 SSTORE POP DUP2 PUSH20 0xFFFFFFFFFFFFFFFFFFFFFFFFFFFFFFFFFFFFFFFF AND DUP2 PUSH20 0xFFFFFFFFFFFFFFFFFFFFFFFFFFFFFFFFFFFFFFFF AND PUSH32 0x8BE0079C531659141344CD1FD0A4F28419497F9722A3DAAFE3B4186F6B6457E0 PUSH1 0x40 MLOAD PUSH1 0x40 MLOAD DUP1 SWAP2 SUB SWAP1 LOG3 POP POP JUMP JUMPDEST PUSH0 CALLER SWAP1 POP SWAP1 JUMP JUMPDEST PUSH0 PUSH20 0xFFFFFFFFFFFFFFFFFFFFFFFFFFFFFFFFFFFFFFFF AND DUP3 PUSH20 0xFFFFFFFFFFFFFFFFFFFFFFFFFFFFFFFFFFFFFFFF AND SUB PUSH2 0x2ADA JUMPI PUSH0 PUSH1 0x40 MLOAD PUSH32 0xCED3E10000000000000000000000000000000000000000000000000000000000 DUP2 MSTORE PUSH1 0x4 ADD PUSH2 0x2AD1 SWAP2 SWAP1 PUSH2 0x45B0 JUMP JUMPDEST PUSH1 0x40 MLOAD DUP1 SWAP2 SUB SWAP1 REVERT JUMPDEST DUP1 PUSH1 0x1 PUSH0 DUP6 PUSH20 0xFFFFFFFFFFFFFFFFFFFFFFFFFFFFFFFFFFFFFFFF AND PUSH20 0xFFFFFFFFFFFFFFFFFFFFFFFFFFFFFFFFFFFFFFFF AND DUP2 MSTORE PUSH1 0x20 ADD SWAP1 DUP2 MSTORE PUSH1 0x20 ADD PUSH0 KECCAK256 PUSH0 DUP5 PUSH20 0xFFFFFFFFFFFFFFFFFFFFFFFFFFFFFFFFFFFFFFFF AND PUSH20 0xFFFFFFFFFFFFFFFFFFFFFFFFFFFFFFFFFFFFFFFF AND DUP2 MSTORE PUSH1 0x20 ADD SWAP1 DUP2 MSTORE PUSH1 0x20 ADD PUSH0 KECCAK256 PUSH0 PUSH2 0x100 EXP DUP2 SLOAD DUP2 PUSH1 0xFF MUL NOT AND SWAP1 DUP4 ISZERO ISZERO MUL OR SWAP1 SSTORE POP DUP2 PUSH20 0xFFFFFFFFFFFFFFFFFFFFFFFFFFFFFFFFFFFFFFFF AND DUP4 PUSH20 0xFFFFFFFFFFFFFFFFFFFFFFFFFFFFFFFFFFFFFFFF AND PUSH32 0x17307EAB39AB6107E8899845AD3D59BD9653F200F220920489CA2B5937696C31 DUP4 PUSH1 0x40 MLOAD PUSH2 0x2BC6 SWAP2 SWAP1 PUSH2 0x3BB3 JUMP JUMPDEST PUSH1 0x40 MLOAD DUP1 SWAP2 SUB SWAP1 LOG3 POP POP POP JUMP JUMPDEST PUSH0 PUSH2 0x2BDC PUSH2 0x2A63 JUMP JUMPDEST SWAP1 POP DUP1 PUSH20 0xFFFFFFFFFFFFFFFFFFFFFFFFFFFFFFFFFFFFFFFF AND DUP7 PUSH20 0xFFFFFFFFFFFFFFFFFFFFFFFFFFFFFFFFFFFFFFFF AND EQ ISZERO DUP1 ISZERO PUSH2 0x2C21 JUMPI POP PUSH2 0x2C1F DUP7 DUP3 PUSH2 0x215A JUMP JUMPDEST ISZERO JUMPDEST ISZERO PUSH2 0x2C65 JUMPI DUP1 DUP7 PUSH1 0x40 MLOAD PUSH32 0xE237D92200000000000000000000000000000000000000000000000000000000 DUP2 MSTORE PUSH1 0x4 ADD PUSH2 0x2C5C SWAP3 SWAP2 SWAP1 PUSH2 0x5897 JUMP JUMPDEST PUSH1 0x40 MLOAD DUP1 SWAP2 SUB SWAP1 REVERT JUMPDEST PUSH2 0x2C72 DUP7 DUP7 DUP7 DUP7 DUP7 PUSH2 0x2ED8 JUMP JUMPDEST POP POP POP POP POP POP JUMP JUMPDEST PUSH0 PUSH20 0xFFFFFFFFFFFFFFFFFFFFFFFFFFFFFFFFFFFFFFFF AND DUP4 PUSH20 0xFFFFFFFFFFFFFFFFFFFFFFFFFFFFFFFFFFFFFFFF AND SUB PUSH2 0x2CEA JUMPI PUSH0 PUSH1 0x40 MLOAD PUSH32 0x1A8351400000000000000000000000000000000000000000000000000000000 DUP2 MSTORE PUSH1 0x4 ADD PUSH2 0x2CE1 SWAP2 SWAP1 PUSH2 0x45B0 JUMP JUMPDEST PUSH1 0x40 MLOAD DUP1 SWAP2 SUB SWAP1 REVERT JUMPDEST PUSH0 DUP1 PUSH2 0x2CF6 DUP5 DUP5 PUSH2 0x2D75 JUMP JUMPDEST SWAP2 POP SWAP2 POP PUSH2 0x2D15 DUP6 PUSH0 DUP5 DUP5 PUSH1 0x40 MLOAD DUP1 PUSH1 0x20 ADD PUSH1 0x40 MSTORE DUP1 PUSH0 DUP2 MSTORE POP PUSH2 0x2DA5 JUMP JUMPDEST POP POP POP POP POP JUMP JUMPDEST PUSH1 0x60 DUP2 PUSH0 ADD DUP1 SLOAD DUP1 PUSH1 0x20 MUL PUSH1 0x20 ADD PUSH1 0x40 MLOAD SWAP1 DUP2 ADD PUSH1 0x40 MSTORE DUP1 SWAP3 SWAP2 SWAP1 DUP2 DUP2 MSTORE PUSH1 0x20 ADD DUP3 DUP1 SLOAD DUP1 ISZERO PUSH2 0x2D69 JUMPI PUSH1 0x20 MUL DUP3 ADD SWAP2 SWAP1 PUSH0 MSTORE PUSH1 0x20 PUSH0 KECCAK256 SWAP1 JUMPDEST DUP2 SLOAD DUP2 MSTORE PUSH1 0x20 ADD SWAP1 PUSH1 0x1 ADD SWAP1 DUP1 DUP4 GT PUSH2 0x2D55 JUMPI JUMPDEST POP POP POP POP POP SWAP1 POP SWAP2 SWAP1 POP JUMP JUMPDEST PUSH1 0x60 DUP1 PUSH1 0x40 MLOAD SWAP2 POP PUSH1 0x1 DUP3 MSTORE DUP4 PUSH1 0x20 DUP4 ADD MSTORE PUSH1 0x40 DUP3 ADD SWAP1 POP PUSH1 0x1 DUP2 MSTORE DUP3 PUSH1 0x20 DUP3 ADD MSTORE PUSH1 0x40 DUP2 ADD PUSH1 0x40 MSTORE SWAP3 POP SWAP3 SWAP1 POP JUMP JUMPDEST PUSH2 0x2DB1 DUP6 DUP6 DUP6 DUP6 PUSH2 0x2FDE JUMP JUMPDEST PUSH0 PUSH20 0xFFFFFFFFFFFFFFFFFFFFFFFFFFFFFFFFFFFFFFFF AND DUP5 PUSH20 0xFFFFFFFFFFFFFFFFFFFFFFFFFFFFFFFFFFFFFFFF AND EQ PUSH2 0x2E4A JUMPI PUSH0 PUSH2 0x2DED PUSH2 0x2A63 JUMP JUMPDEST SWAP1 POP PUSH1 0x1 DUP5 MLOAD SUB PUSH2 0x2E39 JUMPI PUSH0 PUSH2 0x2E0C PUSH0 DUP7 PUSH2 0x28E5 SWAP1 SWAP2 SWAP1 PUSH4 0xFFFFFFFF AND JUMP JUMPDEST SWAP1 POP PUSH0 PUSH2 0x2E22 PUSH0 DUP7 PUSH2 0x28E5 SWAP1 SWAP2 SWAP1 PUSH4 0xFFFFFFFF AND JUMP JUMPDEST SWAP1 POP PUSH2 0x2E32 DUP4 DUP10 DUP10 DUP6 DUP6 DUP10 PUSH2 0x3374 JUMP JUMPDEST POP POP PUSH2 0x2E48 JUMP JUMPDEST PUSH2 0x2E47 DUP2 DUP8 DUP8 DUP8 DUP8 DUP8 PUSH2 0x3523 JUMP JUMPDEST JUMPDEST POP JUMPDEST POP POP POP POP POP JUMP JUMPDEST PUSH0 DUP1 DUP4 PUSH1 0x1 ADD PUSH0 DUP5 DUP2 MSTORE PUSH1 0x20 ADD SWAP1 DUP2 MSTORE PUSH1 0x20 ADD PUSH0 KECCAK256 SLOAD EQ ISZERO SWAP1 POP SWAP3 SWAP2 POP POP JUMP JUMPDEST PUSH0 PUSH2 0x2E7C DUP4 DUP4 PUSH2 0x2E51 JUMP JUMPDEST PUSH2 0x2ECE JUMPI DUP3 PUSH0 ADD DUP3 SWAP1 DUP1 PUSH1 0x1 DUP2 SLOAD ADD DUP1 DUP3 SSTORE DUP1 SWAP2 POP POP PUSH1 0x1 SWAP1 SUB SWAP1 PUSH0 MSTORE PUSH1 0x20 PUSH0 KECCAK256 ADD PUSH0 SWAP1 SWAP2 SWAP1 SWAP2 SWAP1 SWAP2 POP SSTORE DUP3 PUSH0 ADD DUP1 SLOAD SWAP1 POP DUP4 PUSH1 0x1 ADD PUSH0 DUP5 DUP2 MSTORE PUSH1 0x20 ADD SWAP1 DUP2 MSTORE PUSH1 0x20 ADD PUSH0 KECCAK256 DUP2 SWAP1 SSTORE POP PUSH1 0x1 SWAP1 POP PUSH2 0x2ED2 JUMP JUMPDEST PUSH0 SWAP1 POP JUMPDEST SWAP3 SWAP2 POP POP JUMP JUMPDEST PUSH0 PUSH20 0xFFFFFFFFFFFFFFFFFFFFFFFFFFFFFFFFFFFFFFFF AND DUP5 PUSH20 0xFFFFFFFFFFFFFFFFFFFFFFFFFFFFFFFFFFFFFFFF AND SUB PUSH2 0x2F48 JUMPI PUSH0 PUSH1 0x40 MLOAD PUSH32 0x57F447CE00000000000000000000000000000000000000000000000000000000 DUP2 MSTORE PUSH1 0x4 ADD PUSH2 0x2F3F SWAP2 SWAP1 PUSH2 0x45B0 JUMP JUMPDEST PUSH1 0x40 MLOAD DUP1 SWAP2 SUB SWAP1 REVERT JUMPDEST PUSH0 PUSH20 0xFFFFFFFFFFFFFFFFFFFFFFFFFFFFFFFFFFFFFFFF AND DUP6 PUSH20 0xFFFFFFFFFFFFFFFFFFFFFFFFFFFFFFFFFFFFFFFF AND SUB PUSH2 0x2FB8 JUMPI PUSH0 PUSH1 0x40 MLOAD PUSH32 0x1A8351400000000000000000000000000000000000000000000000000000000 DUP2 MSTORE PUSH1 0x4 ADD PUSH2 0x2FAF SWAP2 SWAP1 PUSH2 0x45B0 JUMP JUMPDEST PUSH1 0x40 MLOAD DUP1 SWAP2 SUB SWAP1 REVERT JUMPDEST PUSH0 DUP1 PUSH2 0x2FC4 DUP6 DUP6 PUSH2 0x2D75 JUMP JUMPDEST SWAP2 POP SWAP2 POP PUSH2 0x2FD5 DUP8 DUP8 DUP5 DUP5 DUP8 PUSH2 0x2DA5 JUMP JUMPDEST POP POP POP POP POP POP POP JUMP JUMPDEST DUP1 MLOAD DUP3 MLOAD EQ PUSH2 0x3028 JUMPI DUP2 MLOAD DUP2 MLOAD PUSH1 0x40 MLOAD PUSH32 0x5B05999100000000000000000000000000000000000000000000000000000000 DUP2 MSTORE PUSH1 0x4 ADD PUSH2 0x301F SWAP3 SWAP2 SWAP1 PUSH2 0x514D JUMP JUMPDEST PUSH1 0x40 MLOAD DUP1 SWAP2 SUB SWAP1 REVERT JUMPDEST PUSH0 PUSH2 0x3031 PUSH2 0x2A63 JUMP JUMPDEST SWAP1 POP PUSH0 JUMPDEST DUP4 MLOAD DUP2 LT ISZERO PUSH2 0x3233 JUMPI PUSH0 PUSH2 0x3052 DUP3 DUP7 PUSH2 0x28E5 SWAP1 SWAP2 SWAP1 PUSH4 0xFFFFFFFF AND JUMP JUMPDEST SWAP1 POP PUSH0 PUSH2 0x3068 DUP4 DUP7 PUSH2 0x28E5 SWAP1 SWAP2 SWAP1 PUSH4 0xFFFFFFFF AND JUMP JUMPDEST SWAP1 POP PUSH0 PUSH20 0xFFFFFFFFFFFFFFFFFFFFFFFFFFFFFFFFFFFFFFFF AND DUP9 PUSH20 0xFFFFFFFFFFFFFFFFFFFFFFFFFFFFFFFFFFFFFFFF AND EQ PUSH2 0x318B JUMPI PUSH0 DUP1 PUSH0 DUP5 DUP2 MSTORE PUSH1 0x20 ADD SWAP1 DUP2 MSTORE PUSH1 0x20 ADD PUSH0 KECCAK256 PUSH0 DUP11 PUSH20 0xFFFFFFFFFFFFFFFFFFFFFFFFFFFFFFFFFFFFFFFF AND PUSH20 0xFFFFFFFFFFFFFFFFFFFFFFFFFFFFFFFFFFFFFFFF AND DUP2 MSTORE PUSH1 0x20 ADD SWAP1 DUP2 MSTORE PUSH1 0x20 ADD PUSH0 KECCAK256 SLOAD SWAP1 POP DUP2 DUP2 LT ISZERO PUSH2 0x3137 JUMPI DUP9 DUP2 DUP4 DUP6 PUSH1 0x40 MLOAD PUSH32 0x3DEE4C500000000000000000000000000000000000000000000000000000000 DUP2 MSTORE PUSH1 0x4 ADD PUSH2 0x312E SWAP5 SWAP4 SWAP3 SWAP2 SWAP1 PUSH2 0x58BE JUMP JUMPDEST PUSH1 0x40 MLOAD DUP1 SWAP2 SUB SWAP1 REVERT JUMPDEST DUP2 DUP2 SUB PUSH0 DUP1 DUP6 DUP2 MSTORE PUSH1 0x20 ADD SWAP1 DUP2 MSTORE PUSH1 0x20 ADD PUSH0 KECCAK256 PUSH0 DUP12 PUSH20 0xFFFFFFFFFFFFFFFFFFFFFFFFFFFFFFFFFFFFFFFF AND PUSH20 0xFFFFFFFFFFFFFFFFFFFFFFFFFFFFFFFFFFFFFFFF AND DUP2 MSTORE PUSH1 0x20 ADD SWAP1 DUP2 MSTORE PUSH1 0x20 ADD PUSH0 KECCAK256 DUP2 SWAP1 SSTORE POP POP JUMPDEST PUSH0 PUSH20 0xFFFFFFFFFFFFFFFFFFFFFFFFFFFFFFFFFFFFFFFF AND DUP8 PUSH20 0xFFFFFFFFFFFFFFFFFFFFFFFFFFFFFFFFFFFFFFFF AND EQ PUSH2 0x3220 JUMPI DUP1 PUSH0 DUP1 DUP5 DUP2 MSTORE PUSH1 0x20 ADD SWAP1 DUP2 MSTORE PUSH1 0x20 ADD PUSH0 KECCAK256 PUSH0 DUP10 PUSH20 0xFFFFFFFFFFFFFFFFFFFFFFFFFFFFFFFFFFFFFFFF AND PUSH20 0xFFFFFFFFFFFFFFFFFFFFFFFFFFFFFFFFFFFFFFFF AND DUP2 MSTORE PUSH1 0x20 ADD SWAP1 DUP2 MSTORE PUSH1 0x20 ADD PUSH0 KECCAK256 PUSH0 DUP3 DUP3 SLOAD PUSH2 0x3218 SWAP2 SWAP1 PUSH2 0x4C9D JUMP JUMPDEST SWAP3 POP POP DUP2 SWAP1 SSTORE POP JUMPDEST POP POP DUP1 PUSH2 0x322C SWAP1 PUSH2 0x48EC JUMP JUMPDEST SWAP1 POP PUSH2 0x3035 JUMP JUMPDEST POP PUSH1 0x1 DUP4 MLOAD SUB PUSH2 0x32EE JUMPI PUSH0 PUSH2 0x3251 PUSH0 DUP6 PUSH2 0x28E5 SWAP1 SWAP2 SWAP1 PUSH4 0xFFFFFFFF AND JUMP JUMPDEST SWAP1 POP PUSH0 PUSH2 0x3267 PUSH0 DUP6 PUSH2 0x28E5 SWAP1 SWAP2 SWAP1 PUSH4 0xFFFFFFFF AND JUMP JUMPDEST SWAP1 POP DUP6 PUSH20 0xFFFFFFFFFFFFFFFFFFFFFFFFFFFFFFFFFFFFFFFF AND DUP8 PUSH20 0xFFFFFFFFFFFFFFFFFFFFFFFFFFFFFFFFFFFFFFFF AND DUP5 PUSH20 0xFFFFFFFFFFFFFFFFFFFFFFFFFFFFFFFFFFFFFFFF AND PUSH32 0xC3D58168C5AE7397731D063D5BBF3D657854427343F4C083240F7AACAA2D0F62 DUP6 DUP6 PUSH1 0x40 MLOAD PUSH2 0x32DF SWAP3 SWAP2 SWAP1 PUSH2 0x514D JUMP JUMPDEST PUSH1 0x40 MLOAD DUP1 SWAP2 SUB SWAP1 LOG4 POP POP PUSH2 0x336D JUMP JUMPDEST DUP4 PUSH20 0xFFFFFFFFFFFFFFFFFFFFFFFFFFFFFFFFFFFFFFFF AND DUP6 PUSH20 0xFFFFFFFFFFFFFFFFFFFFFFFFFFFFFFFFFFFFFFFF AND DUP3 PUSH20 0xFFFFFFFFFFFFFFFFFFFFFFFFFFFFFFFFFFFFFFFF AND PUSH32 0x4A39DC06D4C0DBC64B70AF90FD698A233A518AA5D07E595D983B8C0526C8F7FB DUP7 DUP7 PUSH1 0x40 MLOAD PUSH2 0x3364 SWAP3 SWAP2 SWAP1 PUSH2 0x5901 JUMP JUMPDEST PUSH1 0x40 MLOAD DUP1 SWAP2 SUB SWAP1 LOG4 JUMPDEST POP POP POP POP POP JUMP JUMPDEST PUSH0 DUP5 PUSH20 0xFFFFFFFFFFFFFFFFFFFFFFFFFFFFFFFFFFFFFFFF AND EXTCODESIZE GT ISZERO PUSH2 0x351B JUMPI DUP4 PUSH20 0xFFFFFFFFFFFFFFFFFFFFFFFFFFFFFFFFFFFFFFFF AND PUSH4 0xF23A6E61 DUP8 DUP8 DUP7 DUP7 DUP7 PUSH1 0x40 MLOAD DUP7 PUSH4 0xFFFFFFFF AND PUSH1 0xE0 SHL DUP2 MSTORE PUSH1 0x4 ADD PUSH2 0x33D4 SWAP6 SWAP5 SWAP4 SWAP3 SWAP2 SWAP1 PUSH2 0x597E JUMP JUMPDEST PUSH1 0x20 PUSH1 0x40 MLOAD DUP1 DUP4 SUB DUP2 PUSH0 DUP8 GAS CALL SWAP3 POP POP POP DUP1 ISZERO PUSH2 0x340F JUMPI POP PUSH1 0x40 MLOAD RETURNDATASIZE PUSH1 0x1F NOT PUSH1 0x1F DUP3 ADD AND DUP3 ADD DUP1 PUSH1 0x40 MSTORE POP DUP2 ADD SWAP1 PUSH2 0x340C SWAP2 SWAP1 PUSH2 0x59EA JUMP JUMPDEST PUSH1 0x1 JUMPDEST PUSH2 0x3490 JUMPI RETURNDATASIZE DUP1 PUSH0 DUP2 EQ PUSH2 0x343D JUMPI PUSH1 0x40 MLOAD SWAP2 POP PUSH1 0x1F NOT PUSH1 0x3F RETURNDATASIZE ADD AND DUP3 ADD PUSH1 0x40 MSTORE RETURNDATASIZE DUP3 MSTORE RETURNDATASIZE PUSH0 PUSH1 0x20 DUP5 ADD RETURNDATACOPY PUSH2 0x3442 JUMP JUMPDEST PUSH1 0x60 SWAP2 POP JUMPDEST POP PUSH0 DUP2 MLOAD SUB PUSH2 0x3488 JUMPI DUP5 PUSH1 0x40 MLOAD PUSH32 0x57F447CE00000000000000000000000000000000000000000000000000000000 DUP2 MSTORE PUSH1 0x4 ADD PUSH2 0x347F SWAP2 SWAP1 PUSH2 0x45B0 JUMP JUMPDEST PUSH1 0x40 MLOAD DUP1 SWAP2 SUB SWAP1 REVERT JUMPDEST DUP1 MLOAD DUP2 PUSH1 0x20 ADD REVERT JUMPDEST PUSH4 0xF23A6E61 PUSH1 0xE0 SHL PUSH28 0xFFFFFFFFFFFFFFFFFFFFFFFFFFFFFFFFFFFFFFFFFFFFFFFFFFFFFFFF NOT AND DUP2 PUSH28 0xFFFFFFFFFFFFFFFFFFFFFFFFFFFFFFFFFFFFFFFFFFFFFFFFFFFFFFFF NOT AND EQ PUSH2 0x3519 JUMPI DUP5 PUSH1 0x40 MLOAD PUSH32 0x57F447CE00000000000000000000000000000000000000000000000000000000 DUP2 MSTORE PUSH1 0x4 ADD PUSH2 0x3510 SWAP2 SWAP1 PUSH2 0x45B0 JUMP JUMPDEST PUSH1 0x40 MLOAD DUP1 SWAP2 SUB SWAP1 REVERT JUMPDEST POP JUMPDEST POP POP POP POP POP POP JUMP JUMPDEST PUSH0 DUP5 PUSH20 0xFFFFFFFFFFFFFFFFFFFFFFFFFFFFFFFFFFFFFFFF AND EXTCODESIZE GT ISZERO PUSH2 0x36CA JUMPI DUP4 PUSH20 0xFFFFFFFFFFFFFFFFFFFFFFFFFFFFFFFFFFFFFFFF AND PUSH4 0xBC197C81 DUP8 DUP8 DUP7 DUP7 DUP7 PUSH1 0x40 MLOAD DUP7 PUSH4 0xFFFFFFFF AND PUSH1 0xE0 SHL DUP2 MSTORE PUSH1 0x4 ADD PUSH2 0x3583 SWAP6 SWAP5 SWAP4 SWAP3 SWAP2 SWAP1 PUSH2 0x5A15 JUMP JUMPDEST PUSH1 0x20 PUSH1 0x40 MLOAD DUP1 DUP4 SUB DUP2 PUSH0 DUP8 GAS CALL SWAP3 POP POP POP DUP1 ISZERO PUSH2 0x35BE JUMPI POP PUSH1 0x40 MLOAD RETURNDATASIZE PUSH1 0x1F NOT PUSH1 0x1F DUP3 ADD AND DUP3 ADD DUP1 PUSH1 0x40 MSTORE POP DUP2 ADD SWAP1 PUSH2 0x35BB SWAP2 SWAP1 PUSH2 0x59EA JUMP JUMPDEST PUSH1 0x1 JUMPDEST PUSH2 0x363F JUMPI RETURNDATASIZE DUP1 PUSH0 DUP2 EQ PUSH2 0x35EC JUMPI PUSH1 0x40 MLOAD SWAP2 POP PUSH1 0x1F NOT PUSH1 0x3F RETURNDATASIZE ADD AND DUP3 ADD PUSH1 0x40 MSTORE RETURNDATASIZE DUP3 MSTORE RETURNDATASIZE PUSH0 PUSH1 0x20 DUP5 ADD RETURNDATACOPY PUSH2 0x35F1 JUMP JUMPDEST PUSH1 0x60 SWAP2 POP JUMPDEST POP PUSH0 DUP2 MLOAD SUB PUSH2 0x3637 JUMPI DUP5 PUSH1 0x40 MLOAD PUSH32 0x57F447CE00000000000000000000000000000000000000000000000000000000 DUP2 MSTORE PUSH1 0x4 ADD PUSH2 0x362E SWAP2 SWAP1 PUSH2 0x45B0 JUMP JUMPDEST PUSH1 0x40 MLOAD DUP1 SWAP2 SUB SWAP1 REVERT JUMPDEST DUP1 MLOAD DUP2 PUSH1 0x20 ADD REVERT JUMPDEST PUSH4 0xBC197C81 PUSH1 0xE0 SHL PUSH28 0xFFFFFFFFFFFFFFFFFFFFFFFFFFFFFFFFFFFFFFFFFFFFFFFFFFFFFFFF NOT AND DUP2 PUSH28 0xFFFFFFFFFFFFFFFFFFFFFFFFFFFFFFFFFFFFFFFFFFFFFFFFFFFFFFFF NOT AND EQ PUSH2 0x36C8 JUMPI DUP5 PUSH1 0x40 MLOAD PUSH32 0x57F447CE00000000000000000000000000000000000000000000000000000000 DUP2 MSTORE PUSH1 0x4 ADD PUSH2 0x36BF SWAP2 SWAP1 PUSH2 0x45B0 JUMP JUMPDEST PUSH1 0x40 MLOAD DUP1 SWAP2 SUB SWAP1 REVERT JUMPDEST POP JUMPDEST POP POP POP POP POP POP JUMP JUMPDEST PUSH1 0x40 MLOAD DUP1 PUSH1 0x60 ADD PUSH1 0x40 MSTORE DUP1 PUSH1 0x60 DUP2 MSTORE PUSH1 0x20 ADD PUSH1 0x60 DUP2 MSTORE PUSH1 0x20 ADD PUSH1 0x60 DUP2 MSTORE POP SWAP1 JUMP JUMPDEST POP DUP1 SLOAD PUSH2 0x36FF SWAP1 PUSH2 0x488F JUMP JUMPDEST PUSH0 DUP3 SSTORE DUP1 PUSH1 0x1F LT PUSH2 0x3710 JUMPI POP PUSH2 0x372D JUMP JUMPDEST PUSH1 0x1F ADD PUSH1 0x20 SWAP1 DIV SWAP1 PUSH0 MSTORE PUSH1 0x20 PUSH0 KECCAK256 SWAP1 DUP2 ADD SWAP1 PUSH2 0x372C SWAP2 SWAP1 PUSH2 0x3730 JUMP JUMPDEST JUMPDEST POP JUMP JUMPDEST JUMPDEST DUP1 DUP3 GT ISZERO PUSH2 0x3747 JUMPI PUSH0 DUP2 PUSH0 SWAP1 SSTORE POP PUSH1 0x1 ADD PUSH2 0x3731 JUMP JUMPDEST POP SWAP1 JUMP JUMPDEST PUSH0 PUSH1 0x40 MLOAD SWAP1 POP SWAP1 JUMP JUMPDEST PUSH0 DUP1 REVERT JUMPDEST PUSH0 DUP1 REVERT JUMPDEST PUSH0 PUSH20 0xFFFFFFFFFFFFFFFFFFFFFFFFFFFFFFFFFFFFFFFF DUP3 AND SWAP1 POP SWAP2 SWAP1 POP JUMP JUMPDEST PUSH0 PUSH2 0x3785 DUP3 PUSH2 0x375C JUMP JUMPDEST SWAP1 POP SWAP2 SWAP1 POP JUMP JUMPDEST PUSH2 0x3795 DUP2 PUSH2 0x377B JUMP JUMPDEST DUP2 EQ PUSH2 0x379F JUMPI PUSH0 DUP1 REVERT JUMPDEST POP JUMP JUMPDEST PUSH0 DUP2 CALLDATALOAD SWAP1 POP PUSH2 0x37B0 DUP2 PUSH2 0x378C JUMP JUMPDEST SWAP3 SWAP2 POP POP JUMP JUMPDEST PUSH0 DUP2 SWAP1 POP SWAP2 SWAP1 POP JUMP JUMPDEST PUSH2 0x37C8 DUP2 PUSH2 0x37B6 JUMP JUMPDEST DUP2 EQ PUSH2 0x37D2 JUMPI PUSH0 DUP1 REVERT JUMPDEST POP JUMP JUMPDEST PUSH0 DUP2 CALLDATALOAD SWAP1 POP PUSH2 0x37E3 DUP2 PUSH2 0x37BF JUMP JUMPDEST SWAP3 SWAP2 POP POP JUMP JUMPDEST PUSH0 DUP1 PUSH1 0x40 DUP4 DUP6 SUB SLT ISZERO PUSH2 0x37FF JUMPI PUSH2 0x37FE PUSH2 0x3754 JUMP JUMPDEST JUMPDEST PUSH0 PUSH2 0x380C DUP6 DUP3 DUP7 ADD PUSH2 0x37A2 JUMP JUMPDEST SWAP3 POP POP PUSH1 0x20 PUSH2 0x381D DUP6 DUP3 DUP7 ADD PUSH2 0x37D5 JUMP JUMPDEST SWAP2 POP POP SWAP3 POP SWAP3 SWAP1 POP JUMP JUMPDEST PUSH2 0x3830 DUP2 PUSH2 0x37B6 JUMP JUMPDEST DUP3 MSTORE POP POP JUMP JUMPDEST PUSH0 PUSH1 0x20 DUP3 ADD SWAP1 POP PUSH2 0x3849 PUSH0 DUP4 ADD DUP5 PUSH2 0x3827 JUMP JUMPDEST SWAP3 SWAP2 POP POP JUMP JUMPDEST PUSH0 PUSH1 0x20 DUP3 DUP5 SUB SLT ISZERO PUSH2 0x3864 JUMPI PUSH2 0x3863 PUSH2 0x3754 JUMP JUMPDEST JUMPDEST PUSH0 PUSH2 0x3871 DUP5 DUP3 DUP6 ADD PUSH2 0x37D5 JUMP JUMPDEST SWAP2 POP POP SWAP3 SWAP2 POP POP JUMP JUMPDEST PUSH0 DUP2 MLOAD SWAP1 POP SWAP2 SWAP1 POP JUMP JUMPDEST PUSH0 DUP3 DUP3 MSTORE PUSH1 0x20 DUP3 ADD SWAP1 POP SWAP3 SWAP2 POP POP JUMP JUMPDEST PUSH0 DUP2 SWAP1 POP PUSH1 0x20 DUP3 ADD SWAP1 POP SWAP2 SWAP1 POP JUMP JUMPDEST PUSH0 PUSH8 0xFFFFFFFFFFFFFFFF DUP3 AND SWAP1 POP SWAP2 SWAP1 POP JUMP JUMPDEST PUSH2 0x38BF DUP2 PUSH2 0x38A3 JUMP JUMPDEST DUP3 MSTORE POP POP JUMP JUMPDEST PUSH0 PUSH2 0x38D0 DUP4 DUP4 PUSH2 0x38B6 JUMP JUMPDEST PUSH1 0x20 DUP4 ADD SWAP1 POP SWAP3 SWAP2 POP POP JUMP JUMPDEST PUSH0 PUSH1 0x20 DUP3 ADD SWAP1 POP SWAP2 SWAP1 POP JUMP JUMPDEST PUSH0 PUSH2 0x38F2 DUP3 PUSH2 0x387A JUMP JUMPDEST PUSH2 0x38FC DUP2 DUP6 PUSH2 0x3884 JUMP JUMPDEST SWAP4 POP PUSH2 0x3907 DUP4 PUSH2 0x3894 JUMP JUMPDEST DUP1 PUSH0 JUMPDEST DUP4 DUP2 LT ISZERO PUSH2 0x3937 JUMPI DUP2 MLOAD PUSH2 0x391E DUP9 DUP3 PUSH2 0x38C5 JUMP JUMPDEST SWAP8 POP PUSH2 0x3929 DUP4 PUSH2 0x38DC JUMP JUMPDEST SWAP3 POP POP PUSH1 0x1 DUP2 ADD SWAP1 POP PUSH2 0x390A JUMP JUMPDEST POP DUP6 SWAP4 POP POP POP POP SWAP3 SWAP2 POP POP JUMP JUMPDEST PUSH0 DUP2 MLOAD SWAP1 POP SWAP2 SWAP1 POP JUMP JUMPDEST PUSH0 DUP3 DUP3 MSTORE PUSH1 0x20 DUP3 ADD SWAP1 POP SWAP3 SWAP2 POP POP JUMP JUMPDEST PUSH0 DUP2 SWAP1 POP PUSH1 0x20 DUP3 ADD SWAP1 POP SWAP2 SWAP1 POP JUMP JUMPDEST PUSH0 DUP2 MLOAD SWAP1 POP SWAP2 SWAP1 POP JUMP JUMPDEST PUSH0 DUP3 DUP3 MSTORE PUSH1 0x20 DUP3 ADD SWAP1 POP SWAP3 SWAP2 POP POP JUMP JUMPDEST PUSH0 JUMPDEST DUP4 DUP2 LT ISZERO PUSH2 0x39A4 JUMPI DUP1 DUP3 ADD MLOAD DUP2 DUP5 ADD MSTORE PUSH1 0x20 DUP2 ADD SWAP1 POP PUSH2 0x3989 JUMP JUMPDEST PUSH0 DUP5 DUP5 ADD MSTORE POP POP POP POP JUMP JUMPDEST PUSH0 PUSH1 0x1F NOT PUSH1 0x1F DUP4 ADD AND SWAP1 POP SWAP2 SWAP1 POP JUMP JUMPDEST PUSH0 PUSH2 0x39C9 DUP3 PUSH2 0x396D JUMP JUMPDEST PUSH2 0x39D3 DUP2 DUP6 PUSH2 0x3977 JUMP JUMPDEST SWAP4 POP PUSH2 0x39E3 DUP2 DUP6 PUSH1 0x20 DUP7 ADD PUSH2 0x3987 JUMP JUMPDEST PUSH2 0x39EC DUP2 PUSH2 0x39AF JUMP JUMPDEST DUP5 ADD SWAP2 POP POP SWAP3 SWAP2 POP POP JUMP JUMPDEST PUSH0 PUSH1 0x60 DUP4 ADD PUSH0 DUP4 ADD MLOAD DUP5 DUP3 SUB PUSH0 DUP7 ADD MSTORE PUSH2 0x3A11 DUP3 DUP3 PUSH2 0x39BF JUMP JUMPDEST SWAP2 POP POP PUSH1 0x20 DUP4 ADD MLOAD DUP5 DUP3 SUB PUSH1 0x20 DUP7 ADD MSTORE PUSH2 0x3A2B DUP3 DUP3 PUSH2 0x39BF JUMP JUMPDEST SWAP2 POP POP PUSH1 0x40 DUP4 ADD MLOAD DUP5 DUP3 SUB PUSH1 0x40 DUP7 ADD MSTORE PUSH2 0x3A45 DUP3 DUP3 PUSH2 0x39BF JUMP JUMPDEST SWAP2 POP POP DUP1 SWAP2 POP POP SWAP3 SWAP2 POP POP JUMP JUMPDEST PUSH0 PUSH2 0x3A5D DUP4 DUP4 PUSH2 0x39F7 JUMP JUMPDEST SWAP1 POP SWAP3 SWAP2 POP POP JUMP JUMPDEST PUSH0 PUSH1 0x20 DUP3 ADD SWAP1 POP SWAP2 SWAP1 POP JUMP JUMPDEST PUSH0 PUSH2 0x3A7B DUP3 PUSH2 0x3944 JUMP JUMPDEST PUSH2 0x3A85 DUP2 DUP6 PUSH2 0x394E JUMP JUMPDEST SWAP4 POP DUP4 PUSH1 0x20 DUP3 MUL DUP6 ADD PUSH2 0x3A97 DUP6 PUSH2 0x395E JUMP JUMPDEST DUP1 PUSH0 JUMPDEST DUP6 DUP2 LT ISZERO PUSH2 0x3AD2 JUMPI DUP5 DUP5 SUB DUP10 MSTORE DUP2 MLOAD PUSH2 0x3AB3 DUP6 DUP3 PUSH2 0x3A52 JUMP JUMPDEST SWAP5 POP PUSH2 0x3ABE DUP4 PUSH2 0x3A65 JUMP JUMPDEST SWAP3 POP PUSH1 0x20 DUP11 ADD SWAP10 POP POP PUSH1 0x1 DUP2 ADD SWAP1 POP PUSH2 0x3A9A JUMP JUMPDEST POP DUP3 SWAP8 POP DUP8 SWAP6 POP POP POP POP POP POP SWAP3 SWAP2 POP POP JUMP JUMPDEST PUSH0 PUSH1 0x40 DUP3 ADD SWAP1 POP DUP2 DUP2 SUB PUSH0 DUP4 ADD MSTORE PUSH2 0x3AFC DUP2 DUP6 PUSH2 0x38E8 JUMP JUMPDEST SWAP1 POP DUP2 DUP2 SUB PUSH1 0x20 DUP4 ADD MSTORE PUSH2 0x3B10 DUP2 DUP5 PUSH2 0x3A71 JUMP JUMPDEST SWAP1 POP SWAP4 SWAP3 POP POP POP JUMP JUMPDEST PUSH0 PUSH32 0xFFFFFFFF00000000000000000000000000000000000000000000000000000000 DUP3 AND SWAP1 POP SWAP2 SWAP1 POP JUMP JUMPDEST PUSH2 0x3B4D DUP2 PUSH2 0x3B19 JUMP JUMPDEST DUP2 EQ PUSH2 0x3B57 JUMPI PUSH0 DUP1 REVERT JUMPDEST POP JUMP JUMPDEST PUSH0 DUP2 CALLDATALOAD SWAP1 POP PUSH2 0x3B68 DUP2 PUSH2 0x3B44 JUMP JUMPDEST SWAP3 SWAP2 POP POP JUMP JUMPDEST PUSH0 PUSH1 0x20 DUP3 DUP5 SUB SLT ISZERO PUSH2 0x3B83 JUMPI PUSH2 0x3B82 PUSH2 0x3754 JUMP JUMPDEST JUMPDEST PUSH0 PUSH2 0x3B90 DUP5 DUP3 DUP6 ADD PUSH2 0x3B5A JUMP JUMPDEST SWAP2 POP POP SWAP3 SWAP2 POP POP JUMP JUMPDEST PUSH0 DUP2 ISZERO ISZERO SWAP1 POP SWAP2 SWAP1 POP JUMP JUMPDEST PUSH2 0x3BAD DUP2 PUSH2 0x3B99 JUMP JUMPDEST DUP3 MSTORE POP POP JUMP JUMPDEST PUSH0 PUSH1 0x20 DUP3 ADD SWAP1 POP PUSH2 0x3BC6 PUSH0 DUP4 ADD DUP5 PUSH2 0x3BA4 JUMP JUMPDEST SWAP3 SWAP2 POP POP JUMP JUMPDEST PUSH0 DUP3 DUP3 MSTORE PUSH1 0x20 DUP3 ADD SWAP1 POP SWAP3 SWAP2 POP POP JUMP JUMPDEST PUSH0 PUSH2 0x3BE6 DUP3 PUSH2 0x396D JUMP JUMPDEST PUSH2 0x3BF0 DUP2 DUP6 PUSH2 0x3BCC JUMP JUMPDEST SWAP4 POP PUSH2 0x3C00 DUP2 DUP6 PUSH1 0x20 DUP7 ADD PUSH2 0x3987 JUMP JUMPDEST PUSH2 0x3C09 DUP2 PUSH2 0x39AF JUMP JUMPDEST DUP5 ADD SWAP2 POP POP SWAP3 SWAP2 POP POP JUMP JUMPDEST PUSH0 PUSH1 0x20 DUP3 ADD SWAP1 POP DUP2 DUP2 SUB PUSH0 DUP4 ADD MSTORE PUSH2 0x3C2C DUP2 DUP5 PUSH2 0x3BDC JUMP JUMPDEST SWAP1 POP SWAP3 SWAP2 POP POP JUMP JUMPDEST PUSH0 PUSH1 0x20 DUP3 DUP5 SUB SLT ISZERO PUSH2 0x3C49 JUMPI PUSH2 0x3C48 PUSH2 0x3754 JUMP JUMPDEST JUMPDEST PUSH0 PUSH2 0x3C56 DUP5 DUP3 DUP6 ADD PUSH2 0x37A2 JUMP JUMPDEST SWAP2 POP POP SWAP3 SWAP2 POP POP JUMP JUMPDEST PUSH0 DUP2 SWAP1 POP SWAP2 SWAP1 POP JUMP JUMPDEST PUSH0 PUSH2 0x3C82 PUSH2 0x3C7D PUSH2 0x3C78 DUP5 PUSH2 0x375C JUMP JUMPDEST PUSH2 0x3C5F JUMP JUMPDEST PUSH2 0x375C JUMP JUMPDEST SWAP1 POP SWAP2 SWAP1 POP JUMP JUMPDEST PUSH0 PUSH2 0x3C93 DUP3 PUSH2 0x3C68 JUMP JUMPDEST SWAP1 POP SWAP2 SWAP1 POP JUMP JUMPDEST PUSH0 PUSH2 0x3CA4 DUP3 PUSH2 0x3C89 JUMP JUMPDEST SWAP1 POP SWAP2 SWAP1 POP JUMP JUMPDEST PUSH2 0x3CB4 DUP2 PUSH2 0x3C9A JUMP JUMPDEST DUP3 MSTORE POP POP JUMP JUMPDEST PUSH0 PUSH1 0x20 DUP3 ADD SWAP1 POP PUSH2 0x3CCD PUSH0 DUP4 ADD DUP5 PUSH2 0x3CAB JUMP JUMPDEST SWAP3 SWAP2 POP POP JUMP JUMPDEST PUSH0 DUP1 REVERT JUMPDEST PUSH0 DUP1 REVERT JUMPDEST PUSH0 DUP1 REVERT JUMPDEST PUSH0 DUP1 DUP4 PUSH1 0x1F DUP5 ADD SLT PUSH2 0x3CF4 JUMPI PUSH2 0x3CF3 PUSH2 0x3CD3 JUMP JUMPDEST JUMPDEST DUP3 CALLDATALOAD SWAP1 POP PUSH8 0xFFFFFFFFFFFFFFFF DUP2 GT ISZERO PUSH2 0x3D11 JUMPI PUSH2 0x3D10 PUSH2 0x3CD7 JUMP JUMPDEST JUMPDEST PUSH1 0x20 DUP4 ADD SWAP2 POP DUP4 PUSH1 0x1 DUP3 MUL DUP4 ADD GT ISZERO PUSH2 0x3D2D JUMPI PUSH2 0x3D2C PUSH2 0x3CDB JUMP JUMPDEST JUMPDEST SWAP3 POP SWAP3 SWAP1 POP JUMP JUMPDEST PUSH0 DUP1 DUP4 PUSH1 0x1F DUP5 ADD SLT PUSH2 0x3D49 JUMPI PUSH2 0x3D48 PUSH2 0x3CD3 JUMP JUMPDEST JUMPDEST DUP3 CALLDATALOAD SWAP1 POP PUSH8 0xFFFFFFFFFFFFFFFF DUP2 GT ISZERO PUSH2 0x3D66 JUMPI PUSH2 0x3D65 PUSH2 0x3CD7 JUMP JUMPDEST JUMPDEST PUSH1 0x20 DUP4 ADD SWAP2 POP DUP4 PUSH1 0x1 DUP3 MUL DUP4 ADD GT ISZERO PUSH2 0x3D82 JUMPI PUSH2 0x3D81 PUSH2 0x3CDB JUMP JUMPDEST JUMPDEST SWAP3 POP SWAP3 SWAP1 POP JUMP JUMPDEST PUSH0 DUP1 PUSH0 DUP1 PUSH0 DUP1 PUSH1 0x80 DUP8 DUP10 SUB SLT ISZERO PUSH2 0x3DA3 JUMPI PUSH2 0x3DA2 PUSH2 0x3754 JUMP JUMPDEST JUMPDEST PUSH0 PUSH2 0x3DB0 DUP10 DUP3 DUP11 ADD PUSH2 0x37A2 JUMP JUMPDEST SWAP7 POP POP PUSH1 0x20 PUSH2 0x3DC1 DUP10 DUP3 DUP11 ADD PUSH2 0x37D5 JUMP JUMPDEST SWAP6 POP POP PUSH1 0x40 DUP8 ADD CALLDATALOAD PUSH8 0xFFFFFFFFFFFFFFFF DUP2 GT ISZERO PUSH2 0x3DE2 JUMPI PUSH2 0x3DE1 PUSH2 0x3758 JUMP JUMPDEST JUMPDEST PUSH2 0x3DEE DUP10 DUP3 DUP11 ADD PUSH2 0x3CDF JUMP JUMPDEST SWAP5 POP SWAP5 POP POP PUSH1 0x60 DUP8 ADD CALLDATALOAD PUSH8 0xFFFFFFFFFFFFFFFF DUP2 GT ISZERO PUSH2 0x3E11 JUMPI PUSH2 0x3E10 PUSH2 0x3758 JUMP JUMPDEST JUMPDEST PUSH2 0x3E1D DUP10 DUP3 DUP11 ADD PUSH2 0x3D34 JUMP JUMPDEST SWAP3 POP SWAP3 POP POP SWAP3 SWAP6 POP SWAP3 SWAP6 POP SWAP3 SWAP6 JUMP JUMPDEST PUSH32 0x4E487B7100000000000000000000000000000000000000000000000000000000 PUSH0 MSTORE PUSH1 0x41 PUSH1 0x4 MSTORE PUSH1 0x24 PUSH0 REVERT JUMPDEST PUSH2 0x3E62 DUP3 PUSH2 0x39AF JUMP JUMPDEST DUP2 ADD DUP2 DUP2 LT PUSH8 0xFFFFFFFFFFFFFFFF DUP3 GT OR ISZERO PUSH2 0x3E81 JUMPI PUSH2 0x3E80 PUSH2 0x3E2C JUMP JUMPDEST JUMPDEST DUP1 PUSH1 0x40 MSTORE POP POP POP JUMP JUMPDEST PUSH0 PUSH2 0x3E93 PUSH2 0x374B JUMP JUMPDEST SWAP1 POP PUSH2 0x3E9F DUP3 DUP3 PUSH2 0x3E59 JUMP JUMPDEST SWAP2 SWAP1 POP JUMP JUMPDEST PUSH0 PUSH8 0xFFFFFFFFFFFFFFFF DUP3 GT ISZERO PUSH2 0x3EBE JUMPI PUSH2 0x3EBD PUSH2 0x3E2C JUMP JUMPDEST JUMPDEST PUSH1 0x20 DUP3 MUL SWAP1 POP PUSH1 0x20 DUP2 ADD SWAP1 POP SWAP2 SWAP1 POP JUMP JUMPDEST PUSH0 PUSH2 0x3EE1 PUSH2 0x3EDC DUP5 PUSH2 0x3EA4 JUMP JUMPDEST PUSH2 0x3E8A JUMP JUMPDEST SWAP1 POP DUP1 DUP4 DUP3 MSTORE PUSH1 0x20 DUP3 ADD SWAP1 POP PUSH1 0x20 DUP5 MUL DUP4 ADD DUP6 DUP2 GT ISZERO PUSH2 0x3F04 JUMPI PUSH2 0x3F03 PUSH2 0x3CDB JUMP JUMPDEST JUMPDEST DUP4 JUMPDEST DUP2 DUP2 LT ISZERO PUSH2 0x3F2D JUMPI DUP1 PUSH2 0x3F19 DUP9 DUP3 PUSH2 0x37D5 JUMP JUMPDEST DUP5 MSTORE PUSH1 0x20 DUP5 ADD SWAP4 POP POP PUSH1 0x20 DUP2 ADD SWAP1 POP PUSH2 0x3F06 JUMP JUMPDEST POP POP POP SWAP4 SWAP3 POP POP POP JUMP JUMPDEST PUSH0 DUP3 PUSH1 0x1F DUP4 ADD SLT PUSH2 0x3F4B JUMPI PUSH2 0x3F4A PUSH2 0x3CD3 JUMP JUMPDEST JUMPDEST DUP2 CALLDATALOAD PUSH2 0x3F5B DUP5 DUP3 PUSH1 0x20 DUP7 ADD PUSH2 0x3ECF JUMP JUMPDEST SWAP2 POP POP SWAP3 SWAP2 POP POP JUMP JUMPDEST PUSH0 DUP1 REVERT JUMPDEST PUSH0 PUSH8 0xFFFFFFFFFFFFFFFF DUP3 GT ISZERO PUSH2 0x3F82 JUMPI PUSH2 0x3F81 PUSH2 0x3E2C JUMP JUMPDEST JUMPDEST PUSH2 0x3F8B DUP3 PUSH2 0x39AF JUMP JUMPDEST SWAP1 POP PUSH1 0x20 DUP2 ADD SWAP1 POP SWAP2 SWAP1 POP JUMP JUMPDEST DUP3 DUP2 DUP4 CALLDATACOPY PUSH0 DUP4 DUP4 ADD MSTORE POP POP POP JUMP JUMPDEST PUSH0 PUSH2 0x3FB8 PUSH2 0x3FB3 DUP5 PUSH2 0x3F68 JUMP JUMPDEST PUSH2 0x3E8A JUMP JUMPDEST SWAP1 POP DUP3 DUP2 MSTORE PUSH1 0x20 DUP2 ADD DUP5 DUP5 DUP5 ADD GT ISZERO PUSH2 0x3FD4 JUMPI PUSH2 0x3FD3 PUSH2 0x3F64 JUMP JUMPDEST JUMPDEST PUSH2 0x3FDF DUP5 DUP3 DUP6 PUSH2 0x3F98 JUMP JUMPDEST POP SWAP4 SWAP3 POP POP POP JUMP JUMPDEST PUSH0 DUP3 PUSH1 0x1F DUP4 ADD SLT PUSH2 0x3FFB JUMPI PUSH2 0x3FFA PUSH2 0x3CD3 JUMP JUMPDEST JUMPDEST DUP2 CALLDATALOAD PUSH2 0x400B DUP5 DUP3 PUSH1 0x20 DUP7 ADD PUSH2 0x3FA6 JUMP JUMPDEST SWAP2 POP POP SWAP3 SWAP2 POP POP JUMP JUMPDEST PUSH0 DUP1 PUSH0 DUP1 PUSH0 PUSH1 0xA0 DUP7 DUP9 SUB SLT ISZERO PUSH2 0x402D JUMPI PUSH2 0x402C PUSH2 0x3754 JUMP JUMPDEST JUMPDEST PUSH0 PUSH2 0x403A DUP9 DUP3 DUP10 ADD PUSH2 0x37A2 JUMP JUMPDEST SWAP6 POP POP PUSH1 0x20 PUSH2 0x404B DUP9 DUP3 DUP10 ADD PUSH2 0x37A2 JUMP JUMPDEST SWAP5 POP POP PUSH1 0x40 DUP7 ADD CALLDATALOAD PUSH8 0xFFFFFFFFFFFFFFFF DUP2 GT ISZERO PUSH2 0x406C JUMPI PUSH2 0x406B PUSH2 0x3758 JUMP JUMPDEST JUMPDEST PUSH2 0x4078 DUP9 DUP3 DUP10 ADD PUSH2 0x3F37 JUMP JUMPDEST SWAP4 POP POP PUSH1 0x60 DUP7 ADD CALLDATALOAD PUSH8 0xFFFFFFFFFFFFFFFF DUP2 GT ISZERO PUSH2 0x4099 JUMPI PUSH2 0x4098 PUSH2 0x3758 JUMP JUMPDEST JUMPDEST PUSH2 0x40A5 DUP9 DUP3 DUP10 ADD PUSH2 0x3F37 JUMP JUMPDEST SWAP3 POP POP PUSH1 0x80 DUP7 ADD CALLDATALOAD PUSH8 0xFFFFFFFFFFFFFFFF DUP2 GT ISZERO PUSH2 0x40C6 JUMPI PUSH2 0x40C5 PUSH2 0x3758 JUMP JUMPDEST JUMPDEST PUSH2 0x40D2 DUP9 DUP3 DUP10 ADD PUSH2 0x3FE7 JUMP JUMPDEST SWAP2 POP POP SWAP3 SWAP6 POP SWAP3 SWAP6 SWAP1 SWAP4 POP JUMP JUMPDEST PUSH2 0x40E8 DUP2 PUSH2 0x38A3 JUMP JUMPDEST DUP2 EQ PUSH2 0x40F2 JUMPI PUSH0 DUP1 REVERT JUMPDEST POP JUMP JUMPDEST PUSH0 DUP2 CALLDATALOAD SWAP1 POP PUSH2 0x4103 DUP2 PUSH2 0x40DF JUMP JUMPDEST SWAP3 SWAP2 POP POP JUMP JUMPDEST PUSH0 DUP1 PUSH1 0x40 DUP4 DUP6 SUB SLT ISZERO PUSH2 0x411F JUMPI PUSH2 0x411E PUSH2 0x3754 JUMP JUMPDEST JUMPDEST PUSH0 PUSH2 0x412C DUP6 DUP3 DUP7 ADD PUSH2 0x37D5 JUMP JUMPDEST SWAP3 POP POP PUSH1 0x20 PUSH2 0x413D DUP6 DUP3 DUP7 ADD PUSH2 0x40F5 JUMP JUMPDEST SWAP2 POP POP SWAP3 POP SWAP3 SWAP1 POP JUMP JUMPDEST PUSH0 DUP2 MLOAD SWAP1 POP SWAP2 SWAP1 POP JUMP JUMPDEST PUSH0 DUP3 DUP3 MSTORE PUSH1 0x20 DUP3 ADD SWAP1 POP SWAP3 SWAP2 POP POP JUMP JUMPDEST PUSH0 DUP2 SWAP1 POP PUSH1 0x20 DUP3 ADD SWAP1 POP SWAP2 SWAP1 POP JUMP JUMPDEST PUSH2 0x4179 DUP2 PUSH2 0x377B JUMP JUMPDEST DUP3 MSTORE POP POP JUMP JUMPDEST PUSH0 PUSH2 0x418A DUP4 DUP4 PUSH2 0x4170 JUMP JUMPDEST PUSH1 0x20 DUP4 ADD SWAP1 POP SWAP3 SWAP2 POP POP JUMP JUMPDEST PUSH0 PUSH1 0x20 DUP3 ADD SWAP1 POP SWAP2 SWAP1 POP JUMP JUMPDEST PUSH0 PUSH2 0x41AC DUP3 PUSH2 0x4147 JUMP JUMPDEST PUSH2 0x41B6 DUP2 DUP6 PUSH2 0x4151 JUMP JUMPDEST SWAP4 POP PUSH2 0x41C1 DUP4 PUSH2 0x4161 JUMP JUMPDEST DUP1 PUSH0 JUMPDEST DUP4 DUP2 LT ISZERO PUSH2 0x41F1 JUMPI DUP2 MLOAD PUSH2 0x41D8 DUP9 DUP3 PUSH2 0x417F JUMP JUMPDEST SWAP8 POP PUSH2 0x41E3 DUP4 PUSH2 0x4196 JUMP JUMPDEST SWAP3 POP POP PUSH1 0x1 DUP2 ADD SWAP1 POP PUSH2 0x41C4 JUMP JUMPDEST POP DUP6 SWAP4 POP POP POP POP SWAP3 SWAP2 POP POP JUMP JUMPDEST PUSH0 PUSH1 0x20 DUP3 ADD SWAP1 POP DUP2 DUP2 SUB PUSH0 DUP4 ADD MSTORE PUSH2 0x4216 DUP2 DUP5 PUSH2 0x41A2 JUMP JUMPDEST SWAP1 POP SWAP3 SWAP2 POP POP JUMP JUMPDEST PUSH0 PUSH8 0xFFFFFFFFFFFFFFFF DUP3 GT ISZERO PUSH2 0x4238 JUMPI PUSH2 0x4237 PUSH2 0x3E2C JUMP JUMPDEST JUMPDEST PUSH1 0x20 DUP3 MUL SWAP1 POP PUSH1 0x20 DUP2 ADD SWAP1 POP SWAP2 SWAP1 POP JUMP JUMPDEST PUSH0 PUSH2 0x425B PUSH2 0x4256 DUP5 PUSH2 0x421E JUMP JUMPDEST PUSH2 0x3E8A JUMP JUMPDEST SWAP1 POP DUP1 DUP4 DUP3 MSTORE PUSH1 0x20 DUP3 ADD SWAP1 POP PUSH1 0x20 DUP5 MUL DUP4 ADD DUP6 DUP2 GT ISZERO PUSH2 0x427E JUMPI PUSH2 0x427D PUSH2 0x3CDB JUMP JUMPDEST JUMPDEST DUP4 JUMPDEST DUP2 DUP2 LT ISZERO PUSH2 0x42A7 JUMPI DUP1 PUSH2 0x4293 DUP9 DUP3 PUSH2 0x37A2 JUMP JUMPDEST DUP5 MSTORE PUSH1 0x20 DUP5 ADD SWAP4 POP POP PUSH1 0x20 DUP2 ADD SWAP1 POP PUSH2 0x4280 JUMP JUMPDEST POP POP POP SWAP4 SWAP3 POP POP POP JUMP JUMPDEST PUSH0 DUP3 PUSH1 0x1F DUP4 ADD SLT PUSH2 0x42C5 JUMPI PUSH2 0x42C4 PUSH2 0x3CD3 JUMP JUMPDEST JUMPDEST DUP2 CALLDATALOAD PUSH2 0x42D5 DUP5 DUP3 PUSH1 0x20 DUP7 ADD PUSH2 0x4249 JUMP JUMPDEST SWAP2 POP POP SWAP3 SWAP2 POP POP JUMP JUMPDEST PUSH0 DUP1 PUSH1 0x40 DUP4 DUP6 SUB SLT ISZERO PUSH2 0x42F4 JUMPI PUSH2 0x42F3 PUSH2 0x3754 JUMP JUMPDEST JUMPDEST PUSH0 DUP4 ADD CALLDATALOAD PUSH8 0xFFFFFFFFFFFFFFFF DUP2 GT ISZERO PUSH2 0x4311 JUMPI PUSH2 0x4310 PUSH2 0x3758 JUMP JUMPDEST JUMPDEST PUSH2 0x431D DUP6 DUP3 DUP7 ADD PUSH2 0x42B1 JUMP JUMPDEST SWAP3 POP POP PUSH1 0x20 DUP4 ADD CALLDATALOAD PUSH8 0xFFFFFFFFFFFFFFFF DUP2 GT ISZERO PUSH2 0x433E JUMPI PUSH2 0x433D PUSH2 0x3758 JUMP JUMPDEST JUMPDEST PUSH2 0x434A DUP6 DUP3 DUP7 ADD PUSH2 0x3F37 JUMP JUMPDEST SWAP2 POP POP SWAP3 POP SWAP3 SWAP1 POP JUMP JUMPDEST PUSH0 DUP2 MLOAD SWAP1 POP SWAP2 SWAP1 POP JUMP JUMPDEST PUSH0 DUP3 DUP3 MSTORE PUSH1 0x20 DUP3 ADD SWAP1 POP SWAP3 SWAP2 POP POP JUMP JUMPDEST PUSH0 DUP2 SWAP1 POP PUSH1 0x20 DUP3 ADD SWAP1 POP SWAP2 SWAP1 POP JUMP JUMPDEST PUSH2 0x4386 DUP2 PUSH2 0x37B6 JUMP JUMPDEST DUP3 MSTORE POP POP JUMP JUMPDEST PUSH0 PUSH2 0x4397 DUP4 DUP4 PUSH2 0x437D JUMP JUMPDEST PUSH1 0x20 DUP4 ADD SWAP1 POP SWAP3 SWAP2 POP POP JUMP JUMPDEST PUSH0 PUSH1 0x20 DUP3 ADD SWAP1 POP SWAP2 SWAP1 POP JUMP JUMPDEST PUSH0 PUSH2 0x43B9 DUP3 PUSH2 0x4354 JUMP JUMPDEST PUSH2 0x43C3 DUP2 DUP6 PUSH2 0x435E JUMP JUMPDEST SWAP4 POP PUSH2 0x43CE DUP4 PUSH2 0x436E JUMP JUMPDEST DUP1 PUSH0 JUMPDEST DUP4 DUP2 LT ISZERO PUSH2 0x43FE JUMPI DUP2 MLOAD PUSH2 0x43E5 DUP9 DUP3 PUSH2 0x438C JUMP JUMPDEST SWAP8 POP PUSH2 0x43F0 DUP4 PUSH2 0x43A3 JUMP JUMPDEST SWAP3 POP POP PUSH1 0x1 DUP2 ADD SWAP1 POP PUSH2 0x43D1 JUMP JUMPDEST POP DUP6 SWAP4 POP POP POP POP SWAP3 SWAP2 POP POP JUMP JUMPDEST PUSH0 PUSH1 0x20 DUP3 ADD SWAP1 POP DUP2 DUP2 SUB PUSH0 DUP4 ADD MSTORE PUSH2 0x4423 DUP2 DUP5 PUSH2 0x43AF JUMP JUMPDEST SWAP1 POP SWAP3 SWAP2 POP POP JUMP JUMPDEST PUSH0 PUSH2 0x4435 DUP3 PUSH2 0x377B JUMP JUMPDEST SWAP1 POP SWAP2 SWAP1 POP JUMP JUMPDEST PUSH2 0x4445 DUP2 PUSH2 0x442B JUMP JUMPDEST DUP2 EQ PUSH2 0x444F JUMPI PUSH0 DUP1 REVERT JUMPDEST POP JUMP JUMPDEST PUSH0 DUP2 CALLDATALOAD SWAP1 POP PUSH2 0x4460 DUP2 PUSH2 0x443C JUMP JUMPDEST SWAP3 SWAP2 POP POP JUMP JUMPDEST PUSH0 DUP1 REVERT JUMPDEST PUSH0 PUSH1 0x60 DUP3 DUP5 SUB SLT ISZERO PUSH2 0x447F JUMPI PUSH2 0x447E PUSH2 0x4466 JUMP JUMPDEST JUMPDEST DUP2 SWAP1 POP SWAP3 SWAP2 POP POP JUMP JUMPDEST PUSH0 DUP1 PUSH0 DUP1 PUSH0 DUP1 PUSH0 DUP1 PUSH0 DUP1 PUSH1 0xE0 DUP12 DUP14 SUB SLT ISZERO PUSH2 0x44A6 JUMPI PUSH2 0x44A5 PUSH2 0x3754 JUMP JUMPDEST JUMPDEST PUSH0 PUSH2 0x44B3 DUP14 DUP3 DUP15 ADD PUSH2 0x40F5 JUMP JUMPDEST SWAP11 POP POP PUSH1 0x20 DUP12 ADD CALLDATALOAD PUSH8 0xFFFFFFFFFFFFFFFF DUP2 GT ISZERO PUSH2 0x44D4 JUMPI PUSH2 0x44D3 PUSH2 0x3758 JUMP JUMPDEST JUMPDEST PUSH2 0x44E0 DUP14 DUP3 DUP15 ADD PUSH2 0x3D34 JUMP JUMPDEST SWAP10 POP SWAP10 POP POP PUSH1 0x40 PUSH2 0x44F3 DUP14 DUP3 DUP15 ADD PUSH2 0x4452 JUMP JUMPDEST SWAP8 POP POP PUSH1 0x60 DUP12 ADD CALLDATALOAD PUSH8 0xFFFFFFFFFFFFFFFF DUP2 GT ISZERO PUSH2 0x4514 JUMPI PUSH2 0x4513 PUSH2 0x3758 JUMP JUMPDEST JUMPDEST PUSH2 0x4520 DUP14 DUP3 DUP15 ADD PUSH2 0x3CDF JUMP JUMPDEST SWAP7 POP SWAP7 POP POP PUSH1 0x80 PUSH2 0x4533 DUP14 DUP3 DUP15 ADD PUSH2 0x37D5 JUMP JUMPDEST SWAP5 POP POP PUSH1 0xA0 DUP12 ADD CALLDATALOAD PUSH8 0xFFFFFFFFFFFFFFFF DUP2 GT ISZERO PUSH2 0x4554 JUMPI PUSH2 0x4553 PUSH2 0x3758 JUMP JUMPDEST JUMPDEST PUSH2 0x4560 DUP14 DUP3 DUP15 ADD PUSH2 0x3D34 JUMP JUMPDEST SWAP4 POP SWAP4 POP POP PUSH1 0xC0 DUP12 ADD CALLDATALOAD PUSH8 0xFFFFFFFFFFFFFFFF DUP2 GT ISZERO PUSH2 0x4583 JUMPI PUSH2 0x4582 PUSH2 0x3758 JUMP JUMPDEST JUMPDEST PUSH2 0x458F DUP14 DUP3 DUP15 ADD PUSH2 0x446A JUMP JUMPDEST SWAP2 POP POP SWAP3 SWAP6 SWAP9 SWAP12 SWAP2 SWAP5 SWAP8 SWAP11 POP SWAP3 SWAP6 SWAP9 POP JUMP JUMPDEST PUSH2 0x45AA DUP2 PUSH2 0x377B JUMP JUMPDEST DUP3 MSTORE POP POP JUMP JUMPDEST PUSH0 PUSH1 0x20 DUP3 ADD SWAP1 POP PUSH2 0x45C3 PUSH0 DUP4 ADD DUP5 PUSH2 0x45A1 JUMP JUMPDEST SWAP3 SWAP2 POP POP JUMP JUMPDEST PUSH0 PUSH1 0x60 DUP3 ADD SWAP1 POP DUP2 DUP2 SUB PUSH0 DUP4 ADD MSTORE PUSH2 0x45E1 DUP2 DUP7 PUSH2 0x3BDC JUMP JUMPDEST SWAP1 POP DUP2 DUP2 SUB PUSH1 0x20 DUP4 ADD MSTORE PUSH2 0x45F5 DUP2 DUP6 PUSH2 0x3BDC JUMP JUMPDEST SWAP1 POP DUP2 DUP2 SUB PUSH1 0x40 DUP4 ADD MSTORE PUSH2 0x4609 DUP2 DUP5 PUSH2 0x3BDC JUMP JUMPDEST SWAP1 POP SWAP5 SWAP4 POP POP POP POP JUMP JUMPDEST PUSH2 0x461C DUP2 PUSH2 0x3B99 JUMP JUMPDEST DUP2 EQ PUSH2 0x4626 JUMPI PUSH0 DUP1 REVERT JUMPDEST POP JUMP JUMPDEST PUSH0 DUP2 CALLDATALOAD SWAP1 POP PUSH2 0x4637 DUP2 PUSH2 0x4613 JUMP JUMPDEST SWAP3 SWAP2 POP POP JUMP JUMPDEST PUSH0 DUP1 PUSH1 0x40 DUP4 DUP6 SUB SLT ISZERO PUSH2 0x4653 JUMPI PUSH2 0x4652 PUSH2 0x3754 JUMP JUMPDEST JUMPDEST PUSH0 PUSH2 0x4660 DUP6 DUP3 DUP7 ADD PUSH2 0x37A2 JUMP JUMPDEST SWAP3 POP POP PUSH1 0x20 PUSH2 0x4671 DUP6 DUP3 DUP7 ADD PUSH2 0x4629 JUMP JUMPDEST SWAP2 POP POP SWAP3 POP SWAP3 SWAP1 POP JUMP JUMPDEST PUSH0 DUP1 PUSH0 DUP1 PUSH1 0x60 DUP6 DUP8 SUB SLT ISZERO PUSH2 0x4693 JUMPI PUSH2 0x4692 PUSH2 0x3754 JUMP JUMPDEST JUMPDEST PUSH0 PUSH2 0x46A0 DUP8 DUP3 DUP9 ADD PUSH2 0x37D5 JUMP JUMPDEST SWAP5 POP POP PUSH1 0x20 PUSH2 0x46B1 DUP8 DUP3 DUP9 ADD PUSH2 0x40F5 JUMP JUMPDEST SWAP4 POP POP PUSH1 0x40 DUP6 ADD CALLDATALOAD PUSH8 0xFFFFFFFFFFFFFFFF DUP2 GT ISZERO PUSH2 0x46D2 JUMPI PUSH2 0x46D1 PUSH2 0x3758 JUMP JUMPDEST JUMPDEST PUSH2 0x46DE DUP8 DUP3 DUP9 ADD PUSH2 0x3D34 JUMP JUMPDEST SWAP3 POP SWAP3 POP POP SWAP3 SWAP6 SWAP2 SWAP5 POP SWAP3 POP JUMP JUMPDEST PUSH2 0x46F5 DUP2 PUSH2 0x38A3 JUMP JUMPDEST DUP3 MSTORE POP POP JUMP JUMPDEST PUSH0 PUSH1 0x20 DUP3 ADD SWAP1 POP PUSH2 0x470E PUSH0 DUP4 ADD DUP5 PUSH2 0x46EC JUMP JUMPDEST SWAP3 SWAP2 POP POP JUMP JUMPDEST PUSH0 DUP1 PUSH1 0x40 DUP4 DUP6 SUB SLT ISZERO PUSH2 0x472A JUMPI PUSH2 0x4729 PUSH2 0x3754 JUMP JUMPDEST JUMPDEST PUSH0 PUSH2 0x4737 DUP6 DUP3 DUP7 ADD PUSH2 0x37A2 JUMP JUMPDEST SWAP3 POP POP PUSH1 0x20 PUSH2 0x4748 DUP6 DUP3 DUP7 ADD PUSH2 0x37A2 JUMP JUMPDEST SWAP2 POP POP SWAP3 POP SWAP3 SWAP1 POP JUMP JUMPDEST PUSH0 DUP1 PUSH0 DUP1 PUSH0 PUSH1 0xA0 DUP7 DUP9 SUB SLT ISZERO PUSH2 0x476B JUMPI PUSH2 0x476A PUSH2 0x3754 JUMP JUMPDEST JUMPDEST PUSH0 PUSH2 0x4778 DUP9 DUP3 DUP10 ADD PUSH2 0x37A2 JUMP JUMPDEST SWAP6 POP POP PUSH1 0x20 PUSH2 0x4789 DUP9 DUP3 DUP10 ADD PUSH2 0x37A2 JUMP JUMPDEST SWAP5 POP POP PUSH1 0x40 PUSH2 0x479A DUP9 DUP3 DUP10 ADD PUSH2 0x37D5 JUMP JUMPDEST SWAP4 POP POP PUSH1 0x60 PUSH2 0x47AB DUP9 DUP3 DUP10 ADD PUSH2 0x37D5 JUMP JUMPDEST SWAP3 POP POP PUSH1 0x80 DUP7 ADD CALLDATALOAD PUSH8 0xFFFFFFFFFFFFFFFF DUP2 GT ISZERO PUSH2 0x47CC JUMPI PUSH2 0x47CB PUSH2 0x3758 JUMP JUMPDEST JUMPDEST PUSH2 0x47D8 DUP9 DUP3 DUP10 ADD PUSH2 0x3FE7 JUMP JUMPDEST SWAP2 POP POP SWAP3 SWAP6 POP SWAP3 SWAP6 SWAP1 SWAP4 POP JUMP JUMPDEST PUSH0 DUP1 PUSH0 PUSH1 0x60 DUP5 DUP7 SUB SLT ISZERO PUSH2 0x47FC JUMPI PUSH2 0x47FB PUSH2 0x3754 JUMP JUMPDEST JUMPDEST PUSH0 PUSH2 0x4809 DUP7 DUP3 DUP8 ADD PUSH2 0x37A2 JUMP JUMPDEST SWAP4 POP POP PUSH1 0x20 PUSH2 0x481A DUP7 DUP3 DUP8 ADD PUSH2 0x37D5 JUMP JUMPDEST SWAP3 POP POP PUSH1 0x40 PUSH2 0x482B DUP7 DUP3 DUP8 ADD PUSH2 0x37D5 JUMP JUMPDEST SWAP2 POP POP SWAP3 POP SWAP3 POP SWAP3 JUMP JUMPDEST PUSH32 0x4E487B7100000000000000000000000000000000000000000000000000000000 PUSH0 MSTORE PUSH1 0x32 PUSH1 0x4 MSTORE PUSH1 0x24 PUSH0 REVERT JUMPDEST PUSH32 0x4E487B7100000000000000000000000000000000000000000000000000000000 PUSH0 MSTORE PUSH1 0x22 PUSH1 0x4 MSTORE PUSH1 0x24 PUSH0 REVERT JUMPDEST PUSH0 PUSH1 0x2 DUP3 DIV SWAP1 POP PUSH1 0x1 DUP3 AND DUP1 PUSH2 0x48A6 JUMPI PUSH1 0x7F DUP3 AND SWAP2 POP JUMPDEST PUSH1 0x20 DUP3 LT DUP2 SUB PUSH2 0x48B9 JUMPI PUSH2 0x48B8 PUSH2 0x4862 JUMP JUMPDEST JUMPDEST POP SWAP2 SWAP1 POP JUMP JUMPDEST PUSH32 0x4E487B7100000000000000000000000000000000000000000000000000000000 PUSH0 MSTORE PUSH1 0x11 PUSH1 0x4 MSTORE PUSH1 0x24 PUSH0 REVERT JUMPDEST PUSH0 PUSH2 0x48F6 DUP3 PUSH2 0x37B6 JUMP JUMPDEST SWAP2 POP PUSH32 0xFFFFFFFFFFFFFFFFFFFFFFFFFFFFFFFFFFFFFFFFFFFFFFFFFFFFFFFFFFFFFFFF DUP3 SUB PUSH2 0x4928 JUMPI PUSH2 0x4927 PUSH2 0x48BF JUMP JUMPDEST JUMPDEST PUSH1 0x1 DUP3 ADD SWAP1 POP SWAP2 SWAP1 POP JUMP JUMPDEST PUSH0 PUSH2 0x493D DUP3 PUSH2 0x37B6 JUMP JUMPDEST SWAP2 POP PUSH2 0x4948 DUP4 PUSH2 0x37B6 JUMP JUMPDEST SWAP3 POP DUP3 DUP3 SUB SWAP1 POP DUP2 DUP2 GT ISZERO PUSH2 0x4960 JUMPI PUSH2 0x495F PUSH2 0x48BF JUMP JUMPDEST JUMPDEST SWAP3 SWAP2 POP POP JUMP JUMPDEST PUSH32 0x4E487B7100000000000000000000000000000000000000000000000000000000 PUSH0 MSTORE PUSH1 0x31 PUSH1 0x4 MSTORE PUSH1 0x24 PUSH0 REVERT JUMPDEST PUSH32 0x41646D696E206E6F7420666F756E640000000000000000000000000000000000 PUSH0 DUP3 ADD MSTORE POP JUMP JUMPDEST PUSH0 PUSH2 0x49C7 PUSH1 0xF DUP4 PUSH2 0x3BCC JUMP JUMPDEST SWAP2 POP PUSH2 0x49D2 DUP3 PUSH2 0x4993 JUMP JUMPDEST PUSH1 0x20 DUP3 ADD SWAP1 POP SWAP2 SWAP1 POP JUMP JUMPDEST PUSH0 PUSH1 0x20 DUP3 ADD SWAP1 POP DUP2 DUP2 SUB PUSH0 DUP4 ADD MSTORE PUSH2 0x49F4 DUP2 PUSH2 0x49BB JUMP JUMPDEST SWAP1 POP SWAP2 SWAP1 POP JUMP JUMPDEST PUSH32 0x4E616D6520726571756972656400000000000000000000000000000000000000 PUSH0 DUP3 ADD MSTORE POP JUMP JUMPDEST PUSH0 PUSH2 0x4A2F PUSH1 0xD DUP4 PUSH2 0x3BCC JUMP JUMPDEST SWAP2 POP PUSH2 0x4A3A DUP3 PUSH2 0x49FB JUMP JUMPDEST PUSH1 0x20 DUP3 ADD SWAP1 POP SWAP2 SWAP1 POP JUMP JUMPDEST PUSH0 PUSH1 0x20 DUP3 ADD SWAP1 POP DUP2 DUP2 SUB PUSH0 DUP4 ADD MSTORE PUSH2 0x4A5C DUP2 PUSH2 0x4A23 JUMP JUMPDEST SWAP1 POP SWAP2 SWAP1 POP JUMP JUMPDEST PUSH0 DUP2 SWAP1 POP SWAP3 SWAP2 POP POP JUMP JUMPDEST PUSH0 PUSH2 0x4A78 DUP4 DUP6 PUSH2 0x4A63 JUMP JUMPDEST SWAP4 POP PUSH2 0x4A85 DUP4 DUP6 DUP5 PUSH2 0x3F98 JUMP JUMPDEST DUP3 DUP5 ADD SWAP1 POP SWAP4 SWAP3 POP POP POP JUMP JUMPDEST PUSH0 PUSH2 0x4A9D DUP3 DUP5 DUP7 PUSH2 0x4A6D JUMP JUMPDEST SWAP2 POP DUP2 SWAP1 POP SWAP4 SWAP3 POP POP POP JUMP JUMPDEST PUSH0 DUP2 SWAP1 POP DUP2 PUSH0 MSTORE PUSH1 0x20 PUSH0 KECCAK256 SWAP1 POP SWAP2 SWAP1 POP JUMP JUMPDEST PUSH0 DUP2 SLOAD PUSH2 0x4AC7 DUP2 PUSH2 0x488F JUMP JUMPDEST PUSH2 0x4AD1 DUP2 DUP7 PUSH2 0x4A63 JUMP JUMPDEST SWAP5 POP PUSH1 0x1 DUP3 AND PUSH0 DUP2 EQ PUSH2 0x4AEB JUMPI PUSH1 0x1 DUP2 EQ PUSH2 0x4B00 JUMPI PUSH2 0x4B32 JUMP JUMPDEST PUSH1 0xFF NOT DUP4 AND DUP7 MSTORE DUP2 ISZERO ISZERO DUP3 MUL DUP7 ADD SWAP4 POP PUSH2 0x4B32 JUMP JUMPDEST PUSH2 0x4B09 DUP6 PUSH2 0x4AA9 JUMP JUMPDEST PUSH0 JUMPDEST DUP4 DUP2 LT ISZERO PUSH2 0x4B2A JUMPI DUP2 SLOAD DUP2 DUP10 ADD MSTORE PUSH1 0x1 DUP3 ADD SWAP2 POP PUSH1 0x20 DUP2 ADD SWAP1 POP PUSH2 0x4B0B JUMP JUMPDEST DUP4 DUP9 ADD SWAP6 POP POP POP JUMPDEST POP POP POP SWAP3 SWAP2 POP POP JUMP JUMPDEST PUSH0 PUSH2 0x4B46 DUP3 DUP5 PUSH2 0x4ABB JUMP JUMPDEST SWAP2 POP DUP2 SWAP1 POP SWAP3 SWAP2 POP POP JUMP JUMPDEST PUSH0 DUP2 SWAP1 POP SWAP2 SWAP1 POP JUMP JUMPDEST PUSH2 0x4B6B PUSH2 0x4B66 DUP3 PUSH2 0x37B6 JUMP JUMPDEST PUSH2 0x4B51 JUMP JUMPDEST DUP3 MSTORE POP POP JUMP JUMPDEST PUSH0 DUP2 PUSH1 0x60 SHL SWAP1 POP SWAP2 SWAP1 POP JUMP JUMPDEST PUSH0 PUSH2 0x4B87 DUP3 PUSH2 0x4B71 JUMP JUMPDEST SWAP1 POP SWAP2 SWAP1 POP JUMP JUMPDEST PUSH0 PUSH2 0x4B98 DUP3 PUSH2 0x4B7D JUMP JUMPDEST SWAP1 POP SWAP2 SWAP1 POP JUMP JUMPDEST PUSH2 0x4BB0 PUSH2 0x4BAB DUP3 PUSH2 0x377B JUMP JUMPDEST PUSH2 0x4B8E JUMP JUMPDEST DUP3 MSTORE POP POP JUMP JUMPDEST PUSH0 DUP2 SWAP1 POP SWAP3 SWAP2 POP POP JUMP JUMPDEST PUSH0 PUSH2 0x4BCB DUP4 DUP6 PUSH2 0x4BB6 JUMP JUMPDEST SWAP4 POP PUSH2 0x4BD8 DUP4 DUP6 DUP5 PUSH2 0x3F98 JUMP JUMPDEST DUP3 DUP5 ADD SWAP1 POP SWAP4 SWAP3 POP POP POP JUMP JUMPDEST PUSH0 PUSH2 0x4BEF DUP3 DUP10 PUSH2 0x4B5A JUMP JUMPDEST PUSH1 0x20 DUP3 ADD SWAP2 POP PUSH2 0x4BFF DUP3 DUP9 PUSH2 0x4B5A JUMP JUMPDEST PUSH1 0x20 DUP3 ADD SWAP2 POP PUSH2 0x4C0F DUP3 DUP8 PUSH2 0x4B9F JUMP JUMPDEST PUSH1 0x14 DUP3 ADD SWAP2 POP PUSH2 0x4C20 DUP3 DUP6 DUP8 PUSH2 0x4BC0 JUMP JUMPDEST SWAP2 POP PUSH2 0x4C2C DUP3 DUP5 PUSH2 0x4B5A JUMP JUMPDEST PUSH1 0x20 DUP3 ADD SWAP2 POP DUP2 SWAP1 POP SWAP8 SWAP7 POP POP POP POP POP POP POP JUMP JUMPDEST PUSH32 0x4E487B7100000000000000000000000000000000000000000000000000000000 PUSH0 MSTORE PUSH1 0x12 PUSH1 0x4 MSTORE PUSH1 0x24 PUSH0 REVERT JUMPDEST PUSH0 PUSH2 0x4C77 DUP3 PUSH2 0x37B6 JUMP JUMPDEST SWAP2 POP PUSH2 0x4C82 DUP4 PUSH2 0x37B6 JUMP JUMPDEST SWAP3 POP DUP3 PUSH2 0x4C92 JUMPI PUSH2 0x4C91 PUSH2 0x4C40 JUMP JUMPDEST JUMPDEST DUP3 DUP3 MOD SWAP1 POP SWAP3 SWAP2 POP POP JUMP JUMPDEST PUSH0 PUSH2 0x4CA7 DUP3 PUSH2 0x37B6 JUMP JUMPDEST SWAP2 POP PUSH2 0x4CB2 DUP4 PUSH2 0x37B6 JUMP JUMPDEST SWAP3 POP DUP3 DUP3 ADD SWAP1 POP DUP1 DUP3 GT ISZERO PUSH2 0x4CCA JUMPI PUSH2 0x4CC9 PUSH2 0x48BF JUMP JUMPDEST JUMPDEST SWAP3 SWAP2 POP POP JUMP JUMPDEST PUSH32 0x556E61626C6520746F2066696E6420756E697175652073686F727420746F6B65 PUSH0 DUP3 ADD MSTORE PUSH32 0x6E20494400000000000000000000000000000000000000000000000000000000 PUSH1 0x20 DUP3 ADD MSTORE POP JUMP JUMPDEST PUSH0 PUSH2 0x4D2A PUSH1 0x24 DUP4 PUSH2 0x3BCC JUMP JUMPDEST SWAP2 POP PUSH2 0x4D35 DUP3 PUSH2 0x4CD0 JUMP JUMPDEST PUSH1 0x40 DUP3 ADD SWAP1 POP SWAP2 SWAP1 POP JUMP JUMPDEST PUSH0 PUSH1 0x20 DUP3 ADD SWAP1 POP DUP2 DUP2 SUB PUSH0 DUP4 ADD MSTORE PUSH2 0x4D57 DUP2 PUSH2 0x4D1E JUMP JUMPDEST SWAP1 POP SWAP2 SWAP1 POP JUMP JUMPDEST PUSH32 0x546F6B656E494454616B656E0000000000000000000000000000000000000000 PUSH0 DUP3 ADD MSTORE POP JUMP JUMPDEST PUSH0 PUSH2 0x4D92 PUSH1 0xC DUP4 PUSH2 0x3BCC JUMP JUMPDEST SWAP2 POP PUSH2 0x4D9D DUP3 PUSH2 0x4D5E JUMP JUMPDEST PUSH1 0x20 DUP3 ADD SWAP1 POP SWAP2 SWAP1 POP JUMP JUMPDEST PUSH0 PUSH1 0x20 DUP3 ADD SWAP1 POP DUP2 DUP2 SUB PUSH0 DUP4 ADD MSTORE PUSH2 0x4DBF DUP2 PUSH2 0x4D86 JUMP JUMPDEST SWAP1 POP SWAP2 SWAP1 POP JUMP JUMPDEST PUSH0 DUP3 SWAP1 POP SWAP3 SWAP2 POP POP JUMP JUMPDEST PUSH0 DUP2 SWAP1 POP DUP2 PUSH0 MSTORE PUSH1 0x20 PUSH0 KECCAK256 SWAP1 POP SWAP2 SWAP1 POP JUMP JUMPDEST PUSH0 PUSH1 0x20 PUSH1 0x1F DUP4 ADD DIV SWAP1 POP SWAP2 SWAP1 POP JUMP JUMPDEST PUSH0 DUP3 DUP3 SHL SWAP1 POP SWAP3 SWAP2 POP POP JUMP JUMPDEST PUSH0 PUSH1 0x8 DUP4 MUL PUSH2 0x4E2C PUSH32 0xFFFFFFFFFFFFFFFFFFFFFFFFFFFFFFFFFFFFFFFFFFFFFFFFFFFFFFFFFFFFFFFF DUP3 PUSH2 0x4DF1 JUMP JUMPDEST PUSH2 0x4E36 DUP7 DUP4 PUSH2 0x4DF1 JUMP JUMPDEST SWAP6 POP DUP1 NOT DUP5 AND SWAP4 POP DUP1 DUP7 AND DUP5 OR SWAP3 POP POP POP SWAP4 SWAP3 POP POP POP JUMP JUMPDEST PUSH0 PUSH2 0x4E68 PUSH2 0x4E63 PUSH2 0x4E5E DUP5 PUSH2 0x37B6 JUMP JUMPDEST PUSH2 0x3C5F JUMP JUMPDEST PUSH2 0x37B6 JUMP JUMPDEST SWAP1 POP SWAP2 SWAP1 POP JUMP JUMPDEST PUSH0 DUP2 SWAP1 POP SWAP2 SWAP1 POP JUMP JUMPDEST PUSH2 0x4E81 DUP4 PUSH2 0x4E4E JUMP JUMPDEST PUSH2 0x4E95 PUSH2 0x4E8D DUP3 PUSH2 0x4E6F JUMP JUMPDEST DUP5 DUP5 SLOAD PUSH2 0x4DFD JUMP JUMPDEST DUP3 SSTORE POP POP POP POP JUMP JUMPDEST PUSH0 SWAP1 JUMP JUMPDEST PUSH2 0x4EA9 PUSH2 0x4E9D JUMP JUMPDEST PUSH2 0x4EB4 DUP2 DUP5 DUP5 PUSH2 0x4E78 JUMP JUMPDEST POP POP POP JUMP JUMPDEST JUMPDEST DUP2 DUP2 LT ISZERO PUSH2 0x4ED7 JUMPI PUSH2 0x4ECC PUSH0 DUP3 PUSH2 0x4EA1 JUMP JUMPDEST PUSH1 0x1 DUP2 ADD SWAP1 POP PUSH2 0x4EBA JUMP JUMPDEST POP POP JUMP JUMPDEST PUSH1 0x1F DUP3 GT ISZERO PUSH2 0x4F1C JUMPI PUSH2 0x4EED DUP2 PUSH2 0x4DD0 JUMP JUMPDEST PUSH2 0x4EF6 DUP5 PUSH2 0x4DE2 JUMP JUMPDEST DUP2 ADD PUSH1 0x20 DUP6 LT ISZERO PUSH2 0x4F05 JUMPI DUP2 SWAP1 POP JUMPDEST PUSH2 0x4F19 PUSH2 0x4F11 DUP6 PUSH2 0x4DE2 JUMP JUMPDEST DUP4 ADD DUP3 PUSH2 0x4EB9 JUMP JUMPDEST POP POP JUMPDEST POP POP POP JUMP JUMPDEST PUSH0 DUP3 DUP3 SHR SWAP1 POP SWAP3 SWAP2 POP POP JUMP JUMPDEST PUSH0 PUSH2 0x4F3C PUSH0 NOT DUP5 PUSH1 0x8 MUL PUSH2 0x4F21 JUMP JUMPDEST NOT DUP1 DUP4 AND SWAP2 POP POP SWAP3 SWAP2 POP POP JUMP JUMPDEST PUSH0 PUSH2 0x4F54 DUP4 DUP4 PUSH2 0x4F2D JUMP JUMPDEST SWAP2 POP DUP3 PUSH1 0x2 MUL DUP3 OR SWAP1 POP SWAP3 SWAP2 POP POP JUMP JUMPDEST PUSH2 0x4F6E DUP4 DUP4 PUSH2 0x4DC6 JUMP JUMPDEST PUSH8 0xFFFFFFFFFFFFFFFF DUP2 GT ISZERO PUSH2 0x4F87 JUMPI PUSH2 0x4F86 PUSH2 0x3E2C JUMP JUMPDEST JUMPDEST PUSH2 0x4F91 DUP3 SLOAD PUSH2 0x488F JUMP JUMPDEST PUSH2 0x4F9C DUP3 DUP3 DUP6 PUSH2 0x4EDB JUMP JUMPDEST PUSH0 PUSH1 0x1F DUP4 GT PUSH1 0x1 DUP2 EQ PUSH2 0x4FC9 JUMPI PUSH0 DUP5 ISZERO PUSH2 0x4FB7 JUMPI DUP3 DUP8 ADD CALLDATALOAD SWAP1 POP JUMPDEST PUSH2 0x4FC1 DUP6 DUP3 PUSH2 0x4F49 JUMP JUMPDEST DUP7 SSTORE POP PUSH2 0x5028 JUMP JUMPDEST PUSH1 0x1F NOT DUP5 AND PUSH2 0x4FD7 DUP7 PUSH2 0x4DD0 JUMP JUMPDEST PUSH0 JUMPDEST DUP3 DUP2 LT ISZERO PUSH2 0x4FFE JUMPI DUP5 DUP10 ADD CALLDATALOAD DUP3 SSTORE PUSH1 0x1 DUP3 ADD SWAP2 POP PUSH1 0x20 DUP6 ADD SWAP5 POP PUSH1 0x20 DUP2 ADD SWAP1 POP PUSH2 0x4FD9 JUMP JUMPDEST DUP7 DUP4 LT ISZERO PUSH2 0x501B JUMPI DUP5 DUP10 ADD CALLDATALOAD PUSH2 0x5017 PUSH1 0x1F DUP10 AND DUP3 PUSH2 0x4F2D JUMP JUMPDEST DUP4 SSTORE POP JUMPDEST PUSH1 0x1 PUSH1 0x2 DUP9 MUL ADD DUP9 SSTORE POP POP POP JUMPDEST POP POP POP POP POP POP POP JUMP JUMPDEST PUSH32 0x455243313135353A204D69736D617463686564206172726179206C656E677468 PUSH0 DUP3 ADD MSTORE PUSH32 0x7300000000000000000000000000000000000000000000000000000000000000 PUSH1 0x20 DUP3 ADD MSTORE POP JUMP JUMPDEST PUSH0 PUSH2 0x508B PUSH1 0x21 DUP4 PUSH2 0x3BCC JUMP JUMPDEST SWAP2 POP PUSH2 0x5096 DUP3 PUSH2 0x5031 JUMP JUMPDEST PUSH1 0x40 DUP3 ADD SWAP1 POP SWAP2 SWAP1 POP JUMP JUMPDEST PUSH0 PUSH1 0x20 DUP3 ADD SWAP1 POP DUP2 DUP2 SUB PUSH0 DUP4 ADD MSTORE PUSH2 0x50B8 DUP2 PUSH2 0x507F JUMP JUMPDEST SWAP1 POP SWAP2 SWAP1 POP JUMP JUMPDEST PUSH32 0x455243313135353A207472616E7366657220746F20746865207A65726F206164 PUSH0 DUP3 ADD MSTORE PUSH32 0x6472657373000000000000000000000000000000000000000000000000000000 PUSH1 0x20 DUP3 ADD MSTORE POP JUMP JUMPDEST PUSH0 PUSH2 0x5119 PUSH1 0x25 DUP4 PUSH2 0x3BCC JUMP JUMPDEST SWAP2 POP PUSH2 0x5124 DUP3 PUSH2 0x50BF JUMP JUMPDEST PUSH1 0x40 DUP3 ADD SWAP1 POP SWAP2 SWAP1 POP JUMP JUMPDEST PUSH0 PUSH1 0x20 DUP3 ADD SWAP1 POP DUP2 DUP2 SUB PUSH0 DUP4 ADD MSTORE PUSH2 0x5146 DUP2 PUSH2 0x510D JUMP JUMPDEST SWAP1 POP SWAP2 SWAP1 POP JUMP JUMPDEST PUSH0 PUSH1 0x40 DUP3 ADD SWAP1 POP PUSH2 0x5160 PUSH0 DUP4 ADD DUP6 PUSH2 0x3827 JUMP JUMPDEST PUSH2 0x516D PUSH1 0x20 DUP4 ADD DUP5 PUSH2 0x3827 JUMP JUMPDEST SWAP4 SWAP3 POP POP POP JUMP JUMPDEST PUSH32 0x43616C6C6572206973206E6F7420616E2061646D696E00000000000000000000 PUSH0 DUP3 ADD MSTORE POP JUMP JUMPDEST PUSH0 PUSH2 0x51A8 PUSH1 0x16 DUP4 PUSH2 0x3BCC JUMP JUMPDEST SWAP2 POP PUSH2 0x51B3 DUP3 PUSH2 0x5174 JUMP JUMPDEST PUSH1 0x20 DUP3 ADD SWAP1 POP SWAP2 SWAP1 POP JUMP JUMPDEST PUSH0 PUSH1 0x20 DUP3 ADD SWAP1 POP DUP2 DUP2 SUB PUSH0 DUP4 ADD MSTORE PUSH2 0x51D5 DUP2 PUSH2 0x519C JUMP JUMPDEST SWAP1 POP SWAP2 SWAP1 POP JUMP JUMPDEST PUSH32 0x746F6B656E20696420646F6573206E6F74206578697374000000000000000000 PUSH0 DUP3 ADD MSTORE POP JUMP JUMPDEST PUSH0 PUSH2 0x5210 PUSH1 0x17 DUP4 PUSH2 0x3BCC JUMP JUMPDEST SWAP2 POP PUSH2 0x521B DUP3 PUSH2 0x51DC JUMP JUMPDEST PUSH1 0x20 DUP3 ADD SWAP1 POP SWAP2 SWAP1 POP JUMP JUMPDEST PUSH0 PUSH1 0x20 DUP3 ADD SWAP1 POP DUP2 DUP2 SUB PUSH0 DUP4 ADD MSTORE PUSH2 0x523D DUP2 PUSH2 0x5204 JUMP JUMPDEST SWAP1 POP SWAP2 SWAP1 POP JUMP JUMPDEST PUSH32 0x50726F6F66207265717565737420646F6573206E6F7420657869737400000000 PUSH0 DUP3 ADD MSTORE POP JUMP JUMPDEST PUSH0 PUSH2 0x5278 PUSH1 0x1C DUP4 PUSH2 0x3BCC JUMP JUMPDEST SWAP2 POP PUSH2 0x5283 DUP3 PUSH2 0x5244 JUMP JUMPDEST PUSH1 0x20 DUP3 ADD SWAP1 POP SWAP2 SWAP1 POP JUMP JUMPDEST PUSH0 PUSH1 0x20 DUP3 ADD SWAP1 POP DUP2 DUP2 SUB PUSH0 DUP4 ADD MSTORE PUSH2 0x52A5 DUP2 PUSH2 0x526C JUMP JUMPDEST SWAP1 POP SWAP2 SWAP1 POP JUMP JUMPDEST PUSH32 0x496E76616C696420616464726573730000000000000000000000000000000000 PUSH0 DUP3 ADD MSTORE POP JUMP JUMPDEST PUSH0 PUSH2 0x52E0 PUSH1 0xF DUP4 PUSH2 0x3BCC JUMP JUMPDEST SWAP2 POP PUSH2 0x52EB DUP3 PUSH2 0x52AC JUMP JUMPDEST PUSH1 0x20 DUP3 ADD SWAP1 POP SWAP2 SWAP1 POP JUMP JUMPDEST PUSH0 PUSH1 0x20 DUP3 ADD SWAP1 POP DUP2 DUP2 SUB PUSH0 DUP4 ADD MSTORE PUSH2 0x530D DUP2 PUSH2 0x52D4 JUMP JUMPDEST SWAP1 POP SWAP2 SWAP1 POP JUMP JUMPDEST PUSH32 0x4164647265737320697320616C726561647920616E2061646D696E0000000000 PUSH0 DUP3 ADD MSTORE POP JUMP JUMPDEST PUSH0 PUSH2 0x5348 PUSH1 0x1B DUP4 PUSH2 0x3BCC JUMP JUMPDEST SWAP2 POP PUSH2 0x5353 DUP3 PUSH2 0x5314 JUMP JUMPDEST PUSH1 0x20 DUP3 ADD SWAP1 POP SWAP2 SWAP1 POP JUMP JUMPDEST PUSH0 PUSH1 0x20 DUP3 ADD SWAP1 POP DUP2 DUP2 SUB PUSH0 DUP4 ADD MSTORE PUSH2 0x5375 DUP2 PUSH2 0x533C JUMP JUMPDEST SWAP1 POP SWAP2 SWAP1 POP JUMP JUMPDEST PUSH0 PUSH2 0x5386 DUP3 PUSH2 0x3C89 JUMP JUMPDEST SWAP1 POP SWAP2 SWAP1 POP JUMP JUMPDEST PUSH2 0x5396 DUP2 PUSH2 0x537C JUMP JUMPDEST DUP3 MSTORE POP POP JUMP JUMPDEST PUSH0 DUP2 MLOAD SWAP1 POP SWAP2 SWAP1 POP JUMP JUMPDEST PUSH0 DUP3 DUP3 MSTORE PUSH1 0x20 DUP3 ADD SWAP1 POP SWAP3 SWAP2 POP POP JUMP JUMPDEST PUSH0 PUSH2 0x53C0 DUP3 PUSH2 0x539C JUMP JUMPDEST PUSH2 0x53CA DUP2 DUP6 PUSH2 0x53A6 JUMP JUMPDEST SWAP4 POP PUSH2 0x53DA DUP2 DUP6 PUSH1 0x20 DUP7 ADD PUSH2 0x3987 JUMP JUMPDEST PUSH2 0x53E3 DUP2 PUSH2 0x39AF JUMP JUMPDEST DUP5 ADD SWAP2 POP POP SWAP3 SWAP2 POP POP JUMP JUMPDEST PUSH0 PUSH1 0x60 DUP4 ADD PUSH0 DUP4 ADD MLOAD DUP5 DUP3 SUB PUSH0 DUP7 ADD MSTORE PUSH2 0x5408 DUP3 DUP3 PUSH2 0x39BF JUMP JUMPDEST SWAP2 POP POP PUSH1 0x20 DUP4 ADD MLOAD PUSH2 0x541D PUSH1 0x20 DUP7 ADD DUP3 PUSH2 0x538D JUMP JUMPDEST POP PUSH1 0x40 DUP4 ADD MLOAD DUP5 DUP3 SUB PUSH1 0x40 DUP7 ADD MSTORE PUSH2 0x5435 DUP3 DUP3 PUSH2 0x53B6 JUMP JUMPDEST SWAP2 POP POP DUP1 SWAP2 POP POP SWAP3 SWAP2 POP POP JUMP JUMPDEST PUSH0 PUSH1 0x40 DUP3 ADD SWAP1 POP PUSH2 0x5455 PUSH0 DUP4 ADD DUP6 PUSH2 0x46EC JUMP JUMPDEST DUP2 DUP2 SUB PUSH1 0x20 DUP4 ADD MSTORE PUSH2 0x5467 DUP2 DUP5 PUSH2 0x53EE JUMP JUMPDEST SWAP1 POP SWAP4 SWAP3 POP POP POP JUMP JUMPDEST PUSH0 DUP1 REVERT JUMPDEST PUSH0 DUP1 REVERT JUMPDEST PUSH0 DUP1 REVERT JUMPDEST PUSH0 DUP1 DUP4 CALLDATALOAD PUSH1 0x1 PUSH1 0x20 SUB DUP5 CALLDATASIZE SUB SUB DUP2 SLT PUSH2 0x5498 JUMPI PUSH2 0x5497 PUSH2 0x5470 JUMP JUMPDEST JUMPDEST DUP1 DUP5 ADD SWAP3 POP DUP3 CALLDATALOAD SWAP2 POP PUSH8 0xFFFFFFFFFFFFFFFF DUP3 GT ISZERO PUSH2 0x54BA JUMPI PUSH2 0x54B9 PUSH2 0x5474 JUMP JUMPDEST JUMPDEST PUSH1 0x20 DUP4 ADD SWAP3 POP PUSH1 0x1 DUP3 MUL CALLDATASIZE SUB DUP4 SGT ISZERO PUSH2 0x54D6 JUMPI PUSH2 0x54D5 PUSH2 0x5478 JUMP JUMPDEST JUMPDEST POP SWAP3 POP SWAP3 SWAP1 POP JUMP JUMPDEST PUSH2 0x54E7 DUP3 PUSH2 0x396D JUMP JUMPDEST PUSH8 0xFFFFFFFFFFFFFFFF DUP2 GT ISZERO PUSH2 0x5500 JUMPI PUSH2 0x54FF PUSH2 0x3E2C JUMP JUMPDEST JUMPDEST PUSH2 0x550A DUP3 SLOAD PUSH2 0x488F JUMP JUMPDEST PUSH2 0x5515 DUP3 DUP3 DUP6 PUSH2 0x4EDB JUMP JUMPDEST PUSH0 PUSH1 0x20 SWAP1 POP PUSH1 0x1F DUP4 GT PUSH1 0x1 DUP2 EQ PUSH2 0x5546 JUMPI PUSH0 DUP5 ISZERO PUSH2 0x5534 JUMPI DUP3 DUP8 ADD MLOAD SWAP1 POP JUMPDEST PUSH2 0x553E DUP6 DUP3 PUSH2 0x4F49 JUMP JUMPDEST DUP7 SSTORE POP PUSH2 0x55A5 JUMP JUMPDEST PUSH1 0x1F NOT DUP5 AND PUSH2 0x5554 DUP7 PUSH2 0x4DD0 JUMP JUMPDEST PUSH0 JUMPDEST DUP3 DUP2 LT ISZERO PUSH2 0x557B JUMPI DUP5 DUP10 ADD MLOAD DUP3 SSTORE PUSH1 0x1 DUP3 ADD SWAP2 POP PUSH1 0x20 DUP6 ADD SWAP5 POP PUSH1 0x20 DUP2 ADD SWAP1 POP PUSH2 0x5556 JUMP JUMPDEST DUP7 DUP4 LT ISZERO PUSH2 0x5598 JUMPI DUP5 DUP10 ADD MLOAD PUSH2 0x5594 PUSH1 0x1F DUP10 AND DUP3 PUSH2 0x4F2D JUMP JUMPDEST DUP4 SSTORE POP JUMPDEST PUSH1 0x1 PUSH1 0x2 DUP9 MUL ADD DUP9 SSTORE POP POP POP JUMPDEST POP POP POP POP POP POP JUMP JUMPDEST PUSH32 0x50726F6F66207265717565737420616C72656164792065786973747300000000 PUSH0 DUP3 ADD MSTORE POP JUMP JUMPDEST PUSH0 PUSH2 0x55E1 PUSH1 0x1C DUP4 PUSH2 0x3BCC JUMP JUMPDEST SWAP2 POP PUSH2 0x55EC DUP3 PUSH2 0x55AD JUMP JUMPDEST PUSH1 0x20 DUP3 ADD SWAP1 POP SWAP2 SWAP1 POP JUMP JUMPDEST PUSH0 PUSH1 0x20 DUP3 ADD SWAP1 POP DUP2 DUP2 SUB PUSH0 DUP4 ADD MSTORE PUSH2 0x560E DUP2 PUSH2 0x55D5 JUMP JUMPDEST SWAP1 POP SWAP2 SWAP1 POP JUMP JUMPDEST PUSH32 0x526F6C65206D757374206265202773656E64657227206F722027726563656976 PUSH0 DUP3 ADD MSTORE PUSH32 0x6572270000000000000000000000000000000000000000000000000000000000 PUSH1 0x20 DUP3 ADD MSTORE POP JUMP JUMPDEST PUSH0 PUSH2 0x566F PUSH1 0x23 DUP4 PUSH2 0x3BCC JUMP JUMPDEST SWAP2 POP PUSH2 0x567A DUP3 PUSH2 0x5615 JUMP JUMPDEST PUSH1 0x40 DUP3 ADD SWAP1 POP SWAP2 SWAP1 POP JUMP JUMPDEST PUSH0 PUSH1 0x20 DUP3 ADD SWAP1 POP DUP2 DUP2 SUB PUSH0 DUP4 ADD MSTORE PUSH2 0x569C DUP2 PUSH2 0x5663 JUMP JUMPDEST SWAP1 POP SWAP2 SWAP1 POP JUMP JUMPDEST PUSH0 PUSH1 0x40 DUP3 ADD SWAP1 POP PUSH2 0x56B6 PUSH0 DUP4 ADD DUP6 PUSH2 0x45A1 JUMP JUMPDEST PUSH2 0x56C3 PUSH1 0x20 DUP4 ADD DUP5 PUSH2 0x46EC JUMP JUMPDEST SWAP4 SWAP3 POP POP POP JUMP JUMPDEST PUSH0 DUP1 REVERT JUMPDEST PUSH0 DUP1 REVERT JUMPDEST PUSH0 DUP2 MLOAD SWAP1 POP PUSH2 0x56E0 DUP2 PUSH2 0x4613 JUMP JUMPDEST SWAP3 SWAP2 POP POP JUMP JUMPDEST PUSH0 PUSH8 0xFFFFFFFFFFFFFFFF DUP3 GT ISZERO PUSH2 0x5700 JUMPI PUSH2 0x56FF PUSH2 0x3E2C JUMP JUMPDEST JUMPDEST PUSH2 0x5709 DUP3 PUSH2 0x39AF JUMP JUMPDEST SWAP1 POP PUSH1 0x20 DUP2 ADD SWAP1 POP SWAP2 SWAP1 POP JUMP JUMPDEST PUSH0 PUSH2 0x5728 PUSH2 0x5723 DUP5 PUSH2 0x56E6 JUMP JUMPDEST PUSH2 0x3E8A JUMP JUMPDEST SWAP1 POP DUP3 DUP2 MSTORE PUSH1 0x20 DUP2 ADD DUP5 DUP5 DUP5 ADD GT ISZERO PUSH2 0x5744 JUMPI PUSH2 0x5743 PUSH2 0x3F64 JUMP JUMPDEST JUMPDEST PUSH2 0x574F DUP5 DUP3 DUP6 PUSH2 0x3987 JUMP JUMPDEST POP SWAP4 SWAP3 POP POP POP JUMP JUMPDEST PUSH0 DUP3 PUSH1 0x1F DUP4 ADD SLT PUSH2 0x576B JUMPI PUSH2 0x576A PUSH2 0x3CD3 JUMP JUMPDEST JUMPDEST DUP2 MLOAD PUSH2 0x577B DUP5 DUP3 PUSH1 0x20 DUP7 ADD PUSH2 0x5716 JUMP JUMPDEST SWAP2 POP POP SWAP3 SWAP2 POP POP JUMP JUMPDEST PUSH0 DUP2 MLOAD SWAP1 POP PUSH2 0x5792 DUP2 PUSH2 0x37BF JUMP JUMPDEST SWAP3 SWAP2 POP POP JUMP JUMPDEST PUSH0 PUSH1 0x80 DUP3 DUP5 SUB SLT ISZERO PUSH2 0x57AD JUMPI PUSH2 0x57AC PUSH2 0x56CA JUMP JUMPDEST JUMPDEST PUSH2 0x57B7 PUSH1 0x80 PUSH2 0x3E8A JUMP JUMPDEST SWAP1 POP PUSH0 PUSH2 0x57C6 DUP5 DUP3 DUP6 ADD PUSH2 0x56D2 JUMP JUMPDEST PUSH0 DUP4 ADD MSTORE POP PUSH1 0x20 DUP3 ADD MLOAD PUSH8 0xFFFFFFFFFFFFFFFF DUP2 GT ISZERO PUSH2 0x57E9 JUMPI PUSH2 0x57E8 PUSH2 0x56CE JUMP JUMPDEST JUMPDEST PUSH2 0x57F5 DUP5 DUP3 DUP6 ADD PUSH2 0x5757 JUMP JUMPDEST PUSH1 0x20 DUP4 ADD MSTORE POP PUSH1 0x40 PUSH2 0x5809 DUP5 DUP3 DUP6 ADD PUSH2 0x5784 JUMP JUMPDEST PUSH1 0x40 DUP4 ADD MSTORE POP PUSH1 0x60 PUSH2 0x581D DUP5 DUP3 DUP6 ADD PUSH2 0x5784 JUMP JUMPDEST PUSH1 0x60 DUP4 ADD MSTORE POP SWAP3 SWAP2 POP POP JUMP JUMPDEST PUSH0 PUSH1 0x20 DUP3 DUP5 SUB SLT ISZERO PUSH2 0x583E JUMPI PUSH2 0x583D PUSH2 0x3754 JUMP JUMPDEST JUMPDEST PUSH0 DUP3 ADD MLOAD PUSH8 0xFFFFFFFFFFFFFFFF DUP2 GT ISZERO PUSH2 0x585B JUMPI PUSH2 0x585A PUSH2 0x3758 JUMP JUMPDEST JUMPDEST PUSH2 0x5867 DUP5 DUP3 DUP6 ADD PUSH2 0x5798 JUMP JUMPDEST SWAP2 POP POP SWAP3 SWAP2 POP POP JUMP JUMPDEST PUSH0 PUSH1 0x40 DUP3 ADD SWAP1 POP PUSH2 0x5883 PUSH0 DUP4 ADD DUP6 PUSH2 0x46EC JUMP JUMPDEST PUSH2 0x5890 PUSH1 0x20 DUP4 ADD DUP5 PUSH2 0x45A1 JUMP JUMPDEST SWAP4 SWAP3 POP POP POP JUMP JUMPDEST PUSH0 PUSH1 0x40 DUP3 ADD SWAP1 POP PUSH2 0x58AA PUSH0 DUP4 ADD DUP6 PUSH2 0x45A1 JUMP JUMPDEST PUSH2 0x58B7 PUSH1 0x20 DUP4 ADD DUP5 PUSH2 0x45A1 JUMP JUMPDEST SWAP4 SWAP3 POP POP POP JUMP JUMPDEST PUSH0 PUSH1 0x80 DUP3 ADD SWAP1 POP PUSH2 0x58D1 PUSH0 DUP4 ADD DUP8 PUSH2 0x45A1 JUMP JUMPDEST PUSH2 0x58DE PUSH1 0x20 DUP4 ADD DUP7 PUSH2 0x3827 JUMP JUMPDEST PUSH2 0x58EB PUSH1 0x40 DUP4 ADD DUP6 PUSH2 0x3827 JUMP JUMPDEST PUSH2 0x58F8 PUSH1 0x60 DUP4 ADD DUP5 PUSH2 0x3827 JUMP JUMPDEST SWAP6 SWAP5 POP POP POP POP POP JUMP JUMPDEST PUSH0 PUSH1 0x40 DUP3 ADD SWAP1 POP DUP2 DUP2 SUB PUSH0 DUP4 ADD MSTORE PUSH2 0x5919 DUP2 DUP6 PUSH2 0x43AF JUMP JUMPDEST SWAP1 POP DUP2 DUP2 SUB PUSH1 0x20 DUP4 ADD MSTORE PUSH2 0x592D DUP2 DUP5 PUSH2 0x43AF JUMP JUMPDEST SWAP1 POP SWAP4 SWAP3 POP POP POP JUMP JUMPDEST PUSH0 DUP3 DUP3 MSTORE PUSH1 0x20 DUP3 ADD SWAP1 POP SWAP3 SWAP2 POP POP JUMP JUMPDEST PUSH0 PUSH2 0x5950 DUP3 PUSH2 0x539C JUMP JUMPDEST PUSH2 0x595A DUP2 DUP6 PUSH2 0x5936 JUMP JUMPDEST SWAP4 POP PUSH2 0x596A DUP2 DUP6 PUSH1 0x20 DUP7 ADD PUSH2 0x3987 JUMP JUMPDEST PUSH2 0x5973 DUP2 PUSH2 0x39AF JUMP JUMPDEST DUP5 ADD SWAP2 POP POP SWAP3 SWAP2 POP POP JUMP JUMPDEST PUSH0 PUSH1 0xA0 DUP3 ADD SWAP1 POP PUSH2 0x5991 PUSH0 DUP4 ADD DUP9 PUSH2 0x45A1 JUMP JUMPDEST PUSH2 0x599E PUSH1 0x20 DUP4 ADD DUP8 PUSH2 0x45A1 JUMP JUMPDEST PUSH2 0x59AB PUSH1 0x40 DUP4 ADD DUP7 PUSH2 0x3827 JUMP JUMPDEST PUSH2 0x59B8 PUSH1 0x60 DUP4 ADD DUP6 PUSH2 0x3827 JUMP JUMPDEST DUP2 DUP2 SUB PUSH1 0x80 DUP4 ADD MSTORE PUSH2 0x59CA DUP2 DUP5 PUSH2 0x5946 JUMP JUMPDEST SWAP1 POP SWAP7 SWAP6 POP POP POP POP POP POP JUMP JUMPDEST PUSH0 DUP2 MLOAD SWAP1 POP PUSH2 0x59E4 DUP2 PUSH2 0x3B44 JUMP JUMPDEST SWAP3 SWAP2 POP POP JUMP JUMPDEST PUSH0 PUSH1 0x20 DUP3 DUP5 SUB SLT ISZERO PUSH2 0x59FF JUMPI PUSH2 0x59FE PUSH2 0x3754 JUMP JUMPDEST JUMPDEST PUSH0 PUSH2 0x5A0C DUP5 DUP3 DUP6 ADD PUSH2 0x59D6 JUMP JUMPDEST SWAP2 POP POP SWAP3 SWAP2 POP POP JUMP JUMPDEST PUSH0 PUSH1 0xA0 DUP3 ADD SWAP1 POP PUSH2 0x5A28 PUSH0 DUP4 ADD DUP9 PUSH2 0x45A1 JUMP JUMPDEST PUSH2 0x5A35 PUSH1 0x20 DUP4 ADD DUP8 PUSH2 0x45A1 JUMP JUMPDEST DUP2 DUP2 SUB PUSH1 0x40 DUP4 ADD MSTORE PUSH2 0x5A47 DUP2 DUP7 PUSH2 0x43AF JUMP JUMPDEST SWAP1 POP DUP2 DUP2 SUB PUSH1 0x60 DUP4 ADD MSTORE PUSH2 0x5A5B DUP2 DUP6 PUSH2 0x43AF JUMP JUMPDEST SWAP1 POP DUP2 DUP2 SUB PUSH1 0x80 DUP4 ADD MSTORE PUSH2 0x5A6F DUP2 DUP5 PUSH2 0x5946 JUMP JUMPDEST SWAP1 POP SWAP7 SWAP6 POP POP POP POP POP POP JUMP INVALID LOG2 PUSH5 0x6970667358 0x22 SLT KECCAK256 MSIZE 0xD7 BALANCE 0xE5 JUMP PUSH4 0x530D097B 0xF7 0x21 MSTORE8 PUSH10 0xBCB00619ADD82DFFD69E DUP5 0x4C SELFDESTRUCT 0xD1 PUSH6 0xB0E8C064736F PUSH13 0x63430008140033000000000000 "
	},
	"Assembly": ".code\n  PUSH 80\t\t\tcontract PMUniversalVerifier i...\n  PUSH 40\t\t\tcontract PMUniversalVerifier i...\n  MSTORE \t\t\tcontract PMUniversalVerifier i...\n  CALLVALUE \t\t\ttructor(UniversalVerifier veri...\n  DUP1 \t\t\ttructor(UniversalVerifier veri...\n  ISZERO \t\t\ttructor(UniversalVerifier veri...\n  PUSH [tag] 1\t\t\ttructor(UniversalVerifier veri...\n  JUMPI \t\t\ttructor(UniversalVerifier veri...\n  PUSH 0\t\t\ttructor(UniversalVerifier veri...\n  DUP1 \t\t\ttructor(UniversalVerifier veri...\n  REVERT \t\t\ttructor(UniversalVerifier veri...\ntag 1\t\t\ttructor(UniversalVerifier veri...\n  JUMPDEST \t\t\ttructor(UniversalVerifier veri...\n  POP \t\t\ttructor(UniversalVerifier veri...\n  PUSH 40\t\t\ttructor(UniversalVerifier veri...\n  MLOAD \t\t\ttructor(UniversalVerifier veri...\n  PUSHSIZE \t\t\ttructor(UniversalVerifier veri...\n  CODESIZE \t\t\ttructor(UniversalVerifier veri...\n  SUB \t\t\ttructor(UniversalVerifier veri...\n  DUP1 \t\t\ttructor(UniversalVerifier veri...\n  PUSHSIZE \t\t\ttructor(UniversalVerifier veri...\n  DUP4 \t\t\ttructor(UniversalVerifier veri...\n  CODECOPY \t\t\ttructor(UniversalVerifier veri...\n  DUP2 \t\t\ttructor(UniversalVerifier veri...\n  DUP2 \t\t\ttructor(UniversalVerifier veri...\n  ADD \t\t\ttructor(UniversalVerifier veri...\n  PUSH 40\t\t\ttructor(UniversalVerifier veri...\n  MSTORE \t\t\ttructor(UniversalVerifier veri...\n  DUP2 \t\t\ttructor(UniversalVerifier veri...\n  ADD \t\t\ttructor(UniversalVerifier veri...\n  SWAP1 \t\t\ttructor(UniversalVerifier veri...\n  PUSH [tag] 2\t\t\ttructor(UniversalVerifier veri...\n  SWAP2 \t\t\ttructor(UniversalVerifier veri...\n  SWAP1 \t\t\ttructor(UniversalVerifier veri...\n  PUSH [tag] 3\t\t\ttructor(UniversalVerifier veri...\n  JUMP \t\t\ttructor(UniversalVerifier veri...\ntag 2\t\t\ttructor(UniversalVerifier veri...\n  JUMPDEST \t\t\ttructor(UniversalVerifier veri...\n  DUP2 \t\t\tialOwner)\\r\\n \n  DUP2 \t\t\t)\\r\\n \n  PUSH [tag] 8\t\t\to add an admi\n  DUP2 \t\t\t adm\n  PUSH [tag] 9\t\t\to add a\n  PUSH 20\t\t\to add a\n  SHL \t\t\to add a\n  PUSH 20\t\t\to add an admi\n  SHR \t\t\to add an admi\n  JUMP \t\t\to add an admi\ntag 8\t\t\to add an admi\n  JUMPDEST \t\t\to add an admi\n  POP \t\t\t return false;\\r\\n    }\\r\\n\\r\\...\n  PUSH 0\t\t\ta\n  PUSH FFFFFFFFFFFFFFFFFFFFFFFFFFFFFFFFFFFFFFFF\t\t\t\\n    // Function to add an\n  AND \t\t\t\\n    // Function to add an\n  DUP2 \t\t\t\\n    // Func\n  PUSH FFFFFFFFFFFFFFFFFFFFFFFFFFFFFFFFFFFFFFFF\t\t\t\\n    // Function to add an\n  AND \t\t\t\\n    // Function to add an\n  SUB \t\t\t\\n    // Function to add an\n  PUSH [tag] 11\t\t\t}\\r\\n\\r\\n    // Function to ad...\n  JUMPI \t\t\t}\\r\\n\\r\\n    // Function to ad...\n  PUSH 0\t\t\to\n  PUSH 40\t\t\te owner can add.\\r\\n    functi...\n  MLOAD \t\t\te owner can add.\\r\\n    functi...\n  PUSH 1E4FBDF700000000000000000000000000000000000000000000000000000000\t\t\te owner can add.\\r\\n    functi...\n  DUP2 \t\t\te owner can add.\\r\\n    functi...\n  MSTORE \t\t\te owner can add.\\r\\n    functi...\n  PUSH 4\t\t\te owner can add.\\r\\n    functi...\n  ADD \t\t\te owner can add.\\r\\n    functi...\n  PUSH [tag] 12\t\t\te owner can add.\\r\\n    functi...\n  SWAP2 \t\t\te owner can add.\\r\\n    functi...\n  SWAP1 \t\t\te owner can add.\\r\\n    functi...\n  PUSH [tag] 13\t\t\te owner can add.\\r\\n    functi...\n  JUMP \t\t\te owner can add.\\r\\n    functi...\ntag 12\t\t\te owner can add.\\r\\n    functi...\n  JUMPDEST \t\t\te owner can add.\\r\\n    functi...\n  PUSH 40\t\t\te owner can add.\\r\\n    functi...\n  MLOAD \t\t\te owner can add.\\r\\n    functi...\n  DUP1 \t\t\te owner can add.\\r\\n    functi...\n  SWAP2 \t\t\te owner can add.\\r\\n    functi...\n  SUB \t\t\te owner can add.\\r\\n    functi...\n  SWAP1 \t\t\te owner can add.\\r\\n    functi...\n  REVERT \t\t\te owner can add.\\r\\n    functi...\ntag 11\t\t\t}\\r\\n\\r\\n    // Function to ad...\n  JUMPDEST \t\t\t}\\r\\n\\r\\n    // Function to ad...\n  PUSH [tag] 14\t\t\tmin) public onlyOwner {\\r\\n   ...\n  DUP2 \t\t\ter {\\r\\n      \n  PUSH [tag] 15\t\t\tmin) public onlyOw\n  PUSH 20\t\t\tmin) public onlyOw\n  SHL \t\t\tmin) public onlyOw\n  PUSH 20\t\t\tmin) public onlyOwner {\\r\\n   ...\n  SHR \t\t\tmin) public onlyOwner {\\r\\n   ...\n  JUMP \t\t\tmin) public onlyOwner {\\r\\n   ...\ntag 14\t\t\tmin) public onlyOwner {\\r\\n   ...\n  JUMPDEST \t\t\tmin) public onlyOwner {\\r\\n   ...\n  POP \t\t\t   }\\r\\n        }\\r\\n        r...\n  DUP3 \t\t\tfier_;\\r\\n \n  PUSH B\t\t\tfier = v\n  PUSH 0\t\t\tfier = v\n  PUSH 100\t\t\tfier = verifier_;\\r\\n \n  EXP \t\t\tfier = verifier_;\\r\\n \n  DUP2 \t\t\tfier = verifier_;\\r\\n \n  SLOAD \t\t\tfier = verifier_;\\r\\n \n  DUP2 \t\t\tfier = verifier_;\\r\\n \n  PUSH FFFFFFFFFFFFFFFFFFFFFFFFFFFFFFFFFFFFFFFF\t\t\tfier = verifier_;\\r\\n \n  MUL \t\t\tfier = verifier_;\\r\\n \n  NOT \t\t\tfier = verifier_;\\r\\n \n  AND \t\t\tfier = verifier_;\\r\\n \n  SWAP1 \t\t\tfier = verifier_;\\r\\n \n  DUP4 \t\t\tfier = verifier_;\\r\\n \n  PUSH FFFFFFFFFFFFFFFFFFFFFFFFFFFFFFFFFFFFFFFF\t\t\tfier = verifier_;\\r\\n \n  AND \t\t\tfier = verifier_;\\r\\n \n  MUL \t\t\tfier = verifier_;\\r\\n \n  OR \t\t\tfier = verifier_;\\r\\n \n  SWAP1 \t\t\tfier = verifier_;\\r\\n \n  SSTORE \t\t\tfier = verifier_;\\r\\n \n  POP \t\t\tfier = verifier_;\\r\\n \n  POP \t\t\ttructor(UniversalVerifier veri...\n  POP \t\t\ttructor(UniversalVerifier veri...\n  POP \t\t\ttructor(UniversalVerifier veri...\n  PUSH [tag] 17\t\t\tcontract PMUniversalVerifier i...\n  JUMP \t\t\tcontract PMUniversalVerifier i...\ntag 9\t\t\tccak256(bytes(role)) == keccak...\n  JUMPDEST \t\t\tccak256(bytes(role)) == keccak...\n  DUP1 \t\t\t (!ver\n  PUSH 2\t\t\t    \n  SWAP1 \t\t\t     if (!ver\n  DUP2 \t\t\t     if (!ver\n  PUSH [tag] 19\t\t\t     if (!ver\n  SWAP2 \t\t\t     if (!ver\n  SWAP1 \t\t\t     if (!ver\n  PUSH [tag] 20\t\t\t     if (!ver\n  JUMP \t\t\t     if (!ver\ntag 19\t\t\t     if (!ver\n  JUMPDEST \t\t\t     if (!ver\n  POP \t\t\t     if (!ver\n  POP \t\t\tccak256(bytes(role)) == keccak...\n  JUMP \t\t\tccak256(bytes(role)) == keccak...\ntag 15\t\t\tofRequest_role;\\r\\n\\r\\n    // ...\n  JUMPDEST \t\t\tofRequest_role;\\r\\n\\r\\n    // ...\n  PUSH 0\t\t\ttruct SpendingCo\n  PUSH 3\t\t\ttion {\n  PUSH 0\t\t\ttion {\n  SWAP1 \t\t\ttion {\n  SLOAD \t\t\ttion {\n  SWAP1 \t\t\ttion {\n  PUSH 100\t\t\ttion {\n  EXP \t\t\ttion {\n  SWAP1 \t\t\ttion {\n  DIV \t\t\ttion {\n  PUSH FFFFFFFFFFFFFFFFFFFFFFFFFFFFFFFFFFFFFFFF\t\t\ttion {\n  AND \t\t\ttion {\n  SWAP1 \t\t\ttruct SpendingCondition {\n  POP \t\t\ttruct SpendingCondition {\n  DUP2 \t\t\ttribute;\n  PUSH 3\t\t\tstring\n  PUSH 0\t\t\tstring\n  PUSH 100\t\t\tstring attribute;\n  EXP \t\t\tstring attribute;\n  DUP2 \t\t\tstring attribute;\n  SLOAD \t\t\tstring attribute;\n  DUP2 \t\t\tstring attribute;\n  PUSH FFFFFFFFFFFFFFFFFFFFFFFFFFFFFFFFFFFFFFFF\t\t\tstring attribute;\n  MUL \t\t\tstring attribute;\n  NOT \t\t\tstring attribute;\n  AND \t\t\tstring attribute;\n  SWAP1 \t\t\tstring attribute;\n  DUP4 \t\t\tstring attribute;\n  PUSH FFFFFFFFFFFFFFFFFFFFFFFFFFFFFFFFFFFFFFFF\t\t\tstring attribute;\n  AND \t\t\tstring attribute;\n  MUL \t\t\tstring attribute;\n  OR \t\t\tstring attribute;\n  SWAP1 \t\t\tstring attribute;\n  SSTORE \t\t\tstring attribute;\n  POP \t\t\tstring attribute;\n  DUP2 \t\t\tvalue;\\r\\n\n  PUSH FFFFFFFFFFFFFFFFFFFFFFFFFFFFFFFFFFFFFFFF\t\t\tg operatorStr;\\r\\n        stri...\n  AND \t\t\tg operatorStr;\\r\\n        stri...\n  DUP2 \t\t\t   strin\n  PUSH FFFFFFFFFFFFFFFFFFFFFFFFFFFFFFFFFFFFFFFF\t\t\tg operatorStr;\\r\\n        stri...\n  AND \t\t\tg operatorStr;\\r\\n        stri...\n  PUSH 8BE0079C531659141344CD1FD0A4F28419497F9722A3DAAFE3B4186F6B6457E0\t\t\tg operatorStr;\\r\\n        stri...\n  PUSH 40\t\t\tg operatorStr;\\r\\n        stri...\n  MLOAD \t\t\tg operatorStr;\\r\\n        stri...\n  PUSH 40\t\t\tg operatorStr;\\r\\n        stri...\n  MLOAD \t\t\tg operatorStr;\\r\\n        stri...\n  DUP1 \t\t\tg operatorStr;\\r\\n        stri...\n  SWAP2 \t\t\tg operatorStr;\\r\\n        stri...\n  SUB \t\t\tg operatorStr;\\r\\n        stri...\n  SWAP1 \t\t\tg operatorStr;\\r\\n        stri...\n  LOG3 \t\t\tg operatorStr;\\r\\n        stri...\n  POP \t\t\tion\\r\\n    struct SpendingCond...\n  POP \t\t\tofRequest_role;\\r\\n\\r\\n    // ...\n  JUMP \t\t\tofRequest_role;\\r\\n\\r\\n    // ...\ntag 22\t\t\t-License-IDentifier: MIT\\r\\npr...\n  JUMPDEST \t\t\t-License-IDentifier: MIT\\r\\npr...\n  PUSH 0\t\t\tsolidi\n  PUSH 40\t\t\tt \n  MLOAD \t\t\t\\nimport \"\n  SWAP1 \t\t\t<0.9.0;\\r\\n\\r\\nimport \"\n  POP \t\t\t<0.9.0;\\r\\n\\r\\nimport \"\n  SWAP1 \t\t\t-License-IDentifier: MIT\\r\\npr...\n  JUMP \t\t\t-License-IDentifier: MIT\\r\\npr...\ntag 23\t\t\tn/contracts/access/Ownable.sol...\n  JUMPDEST \t\t\tn/contracts/access/Ownable.sol...\n  PUSH 0\t\t\t\\n\n  DUP1 \t\t\t'\n  REVERT \t\t\t155.sol';\\r\\ni\ntag 24\t\t\ttiveTypeUtils} from '@iden3/co...\n  JUMPDEST \t\t\ttiveTypeUtils} from '@iden3/co...\n  PUSH 0\t\t\to\n  DUP1 \t\t\t3\n  REVERT \t\t\t '@iden3/con\ntag 25\t\t\tfaces/ICircuitValidator.sol';\\...\n  JUMPDEST \t\t\tfaces/ICircuitValidator.sol';\\...\n  PUSH 0\t\t\t {Embed\n  PUSH FFFFFFFFFFFFFFFFFFFFFFFFFFFFFFFFFFFFFFFF\t\t\tracts/verifiers/EmbeddedZKPVer...\n  DUP3 \t\t\tn3/co\n  AND \t\t\t@iden3/contracts/verifiers/Emb...\n  SWAP1 \t\t\tier} from '@iden3/contracts/ve...\n  POP \t\t\tier} from '@iden3/contracts/ve...\n  SWAP2 \t\t\tfaces/ICircuitValidator.sol';\\...\n  SWAP1 \t\t\tfaces/ICircuitValidator.sol';\\...\n  POP \t\t\tfaces/ICircuitValidator.sol';\\...\n  JUMP \t\t\tfaces/ICircuitValidator.sol';\\...\ntag 26\t\t\tersalVerifier} from '@iden3/co...\n  JUMPDEST \t\t\tersalVerifier} from '@iden3/co...\n  PUSH 0\t\t\t/verifi\n  PUSH [tag] 68\t\t\tsol';\\r\\nimport \"@openzepp\n  DUP3 \t\t\tenzep\n  PUSH [tag] 25\t\t\tsol';\\r\\nimport \"@openzepp\n  JUMP \t\t\tsol';\\r\\nimport \"@openzepp\ntag 68\t\t\tsol';\\r\\nimport \"@openzepp\n  JUMPDEST \t\t\tsol';\\r\\nimport \"@openzepp\n  SWAP1 \t\t\talVerifier.sol';\\r\\nimport \"@o...\n  POP \t\t\talVerifier.sol';\\r\\nimport \"@o...\n  SWAP2 \t\t\tersalVerifier} from '@iden3/co...\n  SWAP1 \t\t\tersalVerifier} from '@iden3/co...\n  POP \t\t\tersalVerifier} from '@iden3/co...\n  JUMP \t\t\tersalVerifier} from '@iden3/co...\ntag 27\t\t\tts/utils/structs/EnumerableSet...\n  JUMPDEST \t\t\tts/utils/structs/EnumerableSet...\n  PUSH 0\t\t\trom '@i\n  PUSH [tag] 70\t\t\tces/IZKPVerifier.sol';\\r\\n\n  DUP3 \t\t\tol';\\r\n  PUSH [tag] 26\t\t\tces/IZKPVerifier.sol';\\r\\n\n  JUMP \t\t\tces/IZKPVerifier.sol';\\r\\n\ntag 70\t\t\tces/IZKPVerifier.sol';\\r\\n\n  JUMPDEST \t\t\tces/IZKPVerifier.sol';\\r\\n\n  SWAP1 \t\t\tcts/interfaces/IZKPVerifier.so...\n  POP \t\t\tcts/interfaces/IZKPVerifier.so...\n  SWAP2 \t\t\tts/utils/structs/EnumerableSet...\n  SWAP1 \t\t\tts/utils/structs/EnumerableSet...\n  POP \t\t\tts/utils/structs/EnumerableSet...\n  JUMP \t\t\tts/utils/structs/EnumerableSet...\ntag 28\t\t\tMUniversalVerifier is ERC1155,...\n  JUMPDEST \t\t\tMUniversalVerifier is ERC1155,...\n  PUSH [tag] 72\t\t\tor the admins array, only call...\n  DUP2 \t\t\tner.\\r\n  PUSH [tag] 27\t\t\tor the admins array, only call...\n  JUMP \t\t\tor the admins array, only call...\ntag 72\t\t\tor the admins array, only call...\n  JUMPDEST \t\t\tor the admins array, only call...\n  DUP2 \t\t\tction\n  EQ \t\t\tfunction for the admins array,...\n  PUSH [tag] 73\t\t\t// Getter function for the adm...\n  JUMPI \t\t\t// Getter function for the adm...\n  PUSH 0\t\t\tt\n  DUP1 \t\t\t \n  REVERT \t\t\tunction getA\ntag 73\t\t\t// Getter function for the adm...\n  JUMPDEST \t\t\t// Getter function for the adm...\n  POP \t\t\tMUniversalVerifier is ERC1155,...\n  JUMP \t\t\tMUniversalVerifier is ERC1155,...\ntag 29\t\t\t view onlyOwner returns (addre...\n  JUMPDEST \t\t\t view onlyOwner returns (addre...\n  PUSH 0\t\t\t// In\n  DUP2 \t\t\tcheck \n  MLOAD \t\t\ton to check i\n  SWAP1 \t\t\ter function to check i\n  POP \t\t\ter function to check i\n  PUSH [tag] 75\t\t\tess is an admin.\\r\\n    functi...\n  DUP2 \t\t\tn) in\n  PUSH [tag] 28\t\t\tess is an admin.\\r\\n    functi...\n  JUMP \t\t\tess is an admin.\\r\\n    functi...\ntag 75\t\t\tess is an admin.\\r\\n    functi...\n  JUMPDEST \t\t\tess is an admin.\\r\\n    functi...\n  SWAP3 \t\t\t view onlyOwner returns (addre...\n  SWAP2 \t\t\t view onlyOwner returns (addre...\n  POP \t\t\t view onlyOwner returns (addre...\n  POP \t\t\t view onlyOwner returns (addre...\n  JUMP \t\t\t view onlyOwner returns (addre...\ntag 30\t\t\teturns (bool) {\\r\\n        for...\n  JUMPDEST \t\t\teturns (bool) {\\r\\n        for...\n  PUSH [tag] 77\t\t\t        if (admins[i] ==\n  DUP2 \t\t\t[i] =\n  PUSH [tag] 26\t\t\t        if (admins[i] ==\n  JUMP \t\t\t        if (admins[i] ==\ntag 77\t\t\t        if (admins[i] ==\n  JUMPDEST \t\t\t        if (admins[i] ==\n  DUP2 \t\t\t{\\r\\n  \n  EQ \t\t\t+) {\\r\\n            if (admins...\n  PUSH [tag] 78\t\t\tlength; i++) {\\r\\n            ...\n  JUMPI \t\t\tlength; i++) {\\r\\n            ...\n  PUSH 0\t\t\t \n  DUP1 \t\t\t \n  REVERT \t\t\tin) {\\r\\n     \ntag 78\t\t\tlength; i++) {\\r\\n            ...\n  JUMPDEST \t\t\tlength; i++) {\\r\\n            ...\n  POP \t\t\teturns (bool) {\\r\\n        for...\n  JUMP \t\t\teturns (bool) {\\r\\n        for...\ntag 31\t\t\turn true;\\r\\n            }\\r\\n...\n  JUMPDEST \t\t\turn true;\\r\\n            }\\r\\n...\n  PUSH 0\t\t\t;\\r\\n  \n  DUP2 \t\t\tadd an\n  MLOAD \t\t\ton to add an \n  SWAP1 \t\t\t// Function to add an \n  POP \t\t\t// Function to add an \n  PUSH [tag] 80\t\t\tress. Only the owner can add.\\...\n  DUP2 \t\t\td.\\r\\n \n  PUSH [tag] 30\t\t\tress. Only the owner can add.\\...\n  JUMP \t\t\tress. Only the owner can add.\\...\ntag 80\t\t\tress. Only the owner can add.\\...\n  JUMPDEST \t\t\tress. Only the owner can add.\\...\n  SWAP3 \t\t\turn true;\\r\\n            }\\r\\n...\n  SWAP2 \t\t\turn true;\\r\\n            }\\r\\n...\n  POP \t\t\turn true;\\r\\n            }\\r\\n...\n  POP \t\t\turn true;\\r\\n            }\\r\\n...\n  JUMP \t\t\turn true;\\r\\n            }\\r\\n...\ntag 32\t\t\tddAdmin(address _admin) public...\n  JUMPDEST \t\t\tddAdmin(address _admin) public...\n  PUSH 0\t\t\t \n  DUP1 \t\t\t \n  REVERT \t\t\t);\\r\\n        \ntag 33\t\t\tAdmin(_admin), \"Address is alr...\n  JUMPDEST \t\t\tAdmin(_admin), \"Address is alr...\n  PUSH 0\t\t\to\n  DUP1 \t\t\tr\n  REVERT \t\t\tion to remov\ntag 34\t\t\tddress. Only the owner can rem...\n  JUMPDEST \t\t\tddress. Only the owner can rem...\n  PUSH 0\t\t\tunctio\n  PUSH 1F\t\t\tr \n  NOT \t\t\tOwner {\n  PUSH 1F\t\t\t o\n  DUP4 \t\t\t publ\n  ADD \t\t\tmin) public on\n  AND \t\t\t _admin) public onlyOwner {\\r\n  SWAP1 \t\t\tin(address _admin) public only...\n  POP \t\t\tin(address _admin) public only...\n  SWAP2 \t\t\tddress. Only the owner can rem...\n  SWAP1 \t\t\tddress. Only the owner can rem...\n  POP \t\t\tddress. Only the owner can rem...\n  JUMP \t\t\tddress. Only the owner can rem...\ntag 35\t\t\tt len = admins.length;\\r\\n    ...\n  JUMPDEST \t\t\tt len = admins.length;\\r\\n    ...\n  PUSH 4E487B7100000000000000000000000000000000000000000000000000000000\t\t\t i < len; i++) {\\r\\n          ...\n  PUSH 0\t\t\t \n  MSTORE \t\t\tint i = 0; i < len; i++) {\\r\\n...\n  PUSH 41\t\t\t- 1]\n  PUSH 4\t\t\te\n  MSTORE \t\t\tdmins[len - 1];\n  PUSH 24\t\t\tdmin\n  PUSH 0\t\t\t \n  REVERT \t\t\t         admins\ntag 36\t\t\t             return;\\r\\n      ...\n  JUMPDEST \t\t\t             return;\\r\\n      ...\n  PUSH [tag] 86\t\t\t\\n    }\\r\\n\\r\\n    // Modifier...\n  DUP3 \t\t\tier \n  PUSH [tag] 34\t\t\t\\n    }\\r\\n\\r\\n    // Modifier...\n  JUMP \t\t\t\\n    }\\r\\n\\r\\n    // Modifier...\ntag 86\t\t\t\\n    }\\r\\n\\r\\n    // Modifier...\n  JUMPDEST \t\t\t\\n    }\\r\\n\\r\\n    // Modifier...\n  DUP2 \t\t\tound\")\n  ADD \t\t\tot found\");\\r\\n    }\\r\\n\\r\\n  ...\n  DUP2 \t\t\t_isAdm\n  DUP2 \t\t\t    requir\n  LT \t\t\t       require(_isAdmi\n  PUSH FFFFFFFFFFFFFFFF\t\t\tfier onlyAdmin() {\n  DUP3 \t\t\tt.\\r\\n    mo\n  GT \t\t\tlist.\\r\\n    modifier onlyAdmi...\n  OR \t\t\tin list.\\r\\n    modifier onlyA...\n  ISZERO \t\t\tadmin list.\\r\\n    modifier on...\n  PUSH [tag] 87\t\t\tadmin list.\\r\\n    modifier on...\n  JUMPI \t\t\tadmin list.\\r\\n    modifier on...\n  PUSH [tag] 88\t\t\tg.sender), \"Caller\n  PUSH [tag] 35\t\t\tg.sender), \"Caller\n  JUMP \t\t\tg.sender), \"Caller\ntag 88\t\t\tg.sender), \"Caller\n  JUMPDEST \t\t\tg.sender), \"Caller\ntag 87\t\t\tadmin list.\\r\\n    modifier on...\n  JUMPDEST \t\t\tadmin list.\\r\\n    modifier on...\n  DUP1 \t\t\t       _;\\r\n  PUSH 40\t\t\t;\\r\n  MSTORE \t\t\tadmin\");\\r\\n        _;\\r\\n\n  POP \t\t\t  }\\r\\n        revert(\"Admin n...\n  POP \t\t\t             return;\\r\\n      ...\n  POP \t\t\t             return;\\r\\n      ...\n  JUMP \t\t\t             return;\\r\\n      ...\ntag 37\t\t\t using EnumerableSet for Enume...\n  JUMPDEST \t\t\t using EnumerableSet for Enume...\n  PUSH 0\t\t\teSet.U\n  PUSH [tag] 90\t\t\tet of all token IDs \n  PUSH [tag] 22\t\t\tet of all token IDs \n  JUMP \t\t\tet of all token IDs \ntag 90\t\t\tet of all token IDs \n  JUMPDEST \t\t\tet of all token IDs \n  SWAP1 \t\t\t    // A set of all token IDs \n  POP \t\t\t    // A set of all token IDs \n  PUSH [tag] 91\t\t\t ever been minted\\r\\n    Enume...\n  DUP3 \t\t\trabl\n  DUP3 \t\t\t   Enu\n  PUSH [tag] 36\t\t\t ever been minted\\r\\n    Enume...\n  JUMP \t\t\t ever been minted\\r\\n    Enume...\ntag 91\t\t\t ever been minted\\r\\n    Enume...\n  JUMPDEST \t\t\t ever been minted\\r\\n    Enume...\n  SWAP2 \t\t\t using EnumerableSet for Enume...\n  SWAP1 \t\t\t using EnumerableSet for Enume...\n  POP \t\t\t using EnumerableSet for Enume...\n  JUMP \t\t\t using EnumerableSet for Enume...\ntag 38\t\t\tprivate _allTokenIDs;\\r\\n\\r\\n ...\n  JUMPDEST \t\t\tprivate _allTokenIDs;\\r\\n\\r\\n ...\n  PUSH 0\t\t\t of \n  PUSH FFFFFFFFFFFFFFFF\t\t\tory) {\\r\\n        re\n  DUP3 \t\t\t56[] m\n  GT \t\t\tnt256[] memory) {\\r\\n        r...\n  ISZERO \t\t\t(uint256[] memory) {\\r\\n      ...\n  PUSH [tag] 93\t\t\t(uint256[] memory) {\\r\\n      ...\n  JUMPI \t\t\t(uint256[] memory) {\\r\\n      ...\n  PUSH [tag] 94\t\t\t _allTokenIDs.valu\n  PUSH [tag] 35\t\t\t _allTokenIDs.valu\n  JUMP \t\t\t _allTokenIDs.valu\ntag 94\t\t\t _allTokenIDs.valu\n  JUMPDEST \t\t\t _allTokenIDs.valu\ntag 93\t\t\t(uint256[] memory) {\\r\\n      ...\n  JUMPDEST \t\t\t(uint256[] memory) {\\r\\n      ...\n  PUSH [tag] 95\t\t\t// Mapping from token ID to i\n  DUP3 \t\t\tID to \n  PUSH [tag] 34\t\t\t// Mapping from token ID to i\n  JUMP \t\t\t// Mapping from token ID to i\ntag 95\t\t\t// Mapping from token ID to i\n  JUMPDEST \t\t\t// Mapping from token ID to i\n  SWAP1 \t\t\t\\r\\n\\r\\n    // Mapping from to...\n  POP \t\t\t\\r\\n\\r\\n    // Mapping from to...\n  PUSH 20\t\t\t sto\n  DUP2 \t\t\tcan \n  ADD \t\t\ttes can be stor\n  SWAP1 \t\t\t attributes can be stor\n  POP \t\t\t attributes can be stor\n  SWAP2 \t\t\tprivate _allTokenIDs;\\r\\n\\r\\n ...\n  SWAP1 \t\t\tprivate _allTokenIDs;\\r\\n\\r\\n ...\n  POP \t\t\tprivate _allTokenIDs;\\r\\n\\r\\n ...\n  JUMP \t\t\tprivate _allTokenIDs;\\r\\n\\r\\n ...\ntag 39\t\t\t   mapping(uint256 => string) ...\n  JUMPDEST \t\t\t   mapping(uint256 => string) ...\n  PUSH 0\t\t\tt\ntag 97\t\t\tequest_id to prover's role (a ...\n  JUMPDEST \t\t\tequest_id to prover's role (a ...\n  DUP4 \t\t\trover'\n  DUP2 \t\t\to\n  LT \t\t\td to prover's\n  ISZERO \t\t\tequest_id to prover's role (a ...\n  PUSH [tag] 99\t\t\tequest_id to prover's role (a ...\n  JUMPI \t\t\tequest_id to prover's role (a ...\n  DUP1 \t\t\ts\n  DUP3 \t\t\tD →\n  ADD \t\t\testID → 'se\n  MLOAD \t\t\tofRequestID → 'sen\n  DUP2 \t\t\t(\n  DUP5 \t\t\tID \n  ADD \t\t\tokenID → (p\n  MSTORE \t\t\t   // tokenID → (proofRequestI...\n  PUSH 20\t\t\t '\n  DUP2 \t\t\ti\n  ADD \t\t\t string 's\n  SWAP1 \t\t\tle (a string 's\n  POP \t\t\tle (a string 's\n  PUSH [tag] 97\t\t\tequest_id to prover's role (a ...\n  JUMP \t\t\tequest_id to prover's role (a ...\ntag 99\t\t\tequest_id to prover's role (a ...\n  JUMPDEST \t\t\tequest_id to prover's role (a ...\n  PUSH 0\t\t\ta\n  DUP5 \t\t\tt256 =\n  DUP5 \t\t\tg(u\n  ADD \t\t\tpping(uint256 =>\n  MSTORE \t\t\t\\n    mapping(uint256 => map\n  POP \t\t\tpping from tokenID to proof_re...\n  POP \t\t\t   mapping(uint256 => string) ...\n  POP \t\t\t   mapping(uint256 => string) ...\n  POP \t\t\t   mapping(uint256 => string) ...\n  JUMP \t\t\t   mapping(uint256 => string) ...\ntag 40\t\t\t=> string)) public tokenID_pro...\n  JUMPDEST \t\t\t=> string)) public tokenID_pro...\n  PUSH 0\t\t\tnditi\n  PUSH [tag] 101\t\t\tingCondition {\\r\\n        stri...\n  PUSH [tag] 102\t\t\t        string attribute;\\r\\n ...\n  DUP5 \t\t\toperat\n  PUSH [tag] 38\t\t\t        string attribute;\\r\\n ...\n  JUMP \t\t\t        string attribute;\\r\\n ...\ntag 102\t\t\t        string attribute;\\r\\n ...\n  JUMPDEST \t\t\t        string attribute;\\r\\n ...\n  PUSH [tag] 37\t\t\tingCondition {\\r\\n        stri...\n  JUMP \t\t\tingCondition {\\r\\n        stri...\ntag 101\t\t\tingCondition {\\r\\n        stri...\n  JUMPDEST \t\t\tingCondition {\\r\\n        stri...\n  SWAP1 \t\t\tuct SpendingCondition {\\r\\n   ...\n  POP \t\t\tuct SpendingCondition {\\r\\n   ...\n  DUP3 \t\t\tlue;\\r\\n\n  DUP2 \t\t\tring \n  MSTORE \t\t\t     string value;\\r\\n \n  PUSH 20\t\t\tenID\n  DUP2 \t\t\trom t\n  ADD \t\t\tng from tokenID \n  DUP5 \t\t\tdit\n  DUP5 \t\t\tnding \n  DUP5 \t\t\to s\n  ADD \t\t\tID to spending c\n  GT \t\t\testID to spending conditi\n  ISZERO \t\t\tequestID to spending condition...\n  PUSH [tag] 103\t\t\tequestID to spending condition...\n  JUMPI \t\t\tequestID to spending condition...\n  PUSH [tag] 104\t\t\t\\n    // tokenID => (proofRequ...\n  PUSH [tag] 33\t\t\t\\n    // tokenID => (proofRequ...\n  JUMP \t\t\t\\n    // tokenID => (proofRequ...\ntag 104\t\t\t\\n    // tokenID => (proofRequ...\n  JUMPDEST \t\t\t\\n    // tokenID => (proofRequ...\ntag 103\t\t\tequestID to spending condition...\n  JUMPDEST \t\t\tequestID to spending condition...\n  PUSH [tag] 105\t\t\tint64 => SpendingCondition)) p...\n  DUP5 \t\t\tonditi\n  DUP3 \t\t\tdin\n  DUP6 \t\t\t sp\n  PUSH [tag] 39\t\t\tint64 => SpendingCondition)) p...\n  JUMP \t\t\tint64 => SpendingCondition)) p...\ntag 105\t\t\tint64 => SpendingCondition)) p...\n  JUMPDEST \t\t\tint64 => SpendingCondition)) p...\n  POP \t\t\tn\\r\\n    struct SpendingCondit...\n  SWAP4 \t\t\t=> string)) public tokenID_pro...\n  SWAP3 \t\t\t=> string)) public tokenID_pro...\n  POP \t\t\t=> string)) public tokenID_pro...\n  POP \t\t\t=> string)) public tokenID_pro...\n  POP \t\t\t=> string)) public tokenID_pro...\n  JUMP \t\t\t=> string)) public tokenID_pro...\ntag 41\t\t\tstore proof_request_ids only f...\n  JUMPDEST \t\t\tstore proof_request_ids only f...\n  PUSH 0\t\t\toofRe\n  DUP3 \t\t\tndi\n  PUSH 1F\t\t\tall \n  DUP4 \t\t\tice Ge\n  ADD \t\t\t@notice Get all s\n  SLT \t\t\t/// @notice Get all spendin\n  PUSH [tag] 107\t\t\t    \\r\\n    /// @notice Get al...\n  JUMPI \t\t\t    \\r\\n    /// @notice Get al...\n  PUSH [tag] 108\t\t\tnditions for a given tokenID\\r...\n  PUSH [tag] 32\t\t\tnditions for a given tokenID\\r...\n  JUMP \t\t\tnditions for a given tokenID\\r...\ntag 108\t\t\tnditions for a given tokenID\\r...\n  JUMPDEST \t\t\tnditions for a given tokenID\\r...\ntag 107\t\t\t    \\r\\n    /// @notice Get al...\n  JUMPDEST \t\t\t    \\r\\n    /// @notice Get al...\n  DUP2 \t\t\t4[] me\n  MLOAD \t\t\t(uint64[] mem\n  PUSH [tag] 109\t\t\ttion[] memory) {\\r\\n        ui...\n  DUP5 \t\t\tt =\n  DUP3 \t\t\t256 co\n  PUSH 20\t\t\t   u\n  DUP7 \t\t\t;\\r\\n   \n  ADD \t\t\ttIDs;\\r\\n        ui\n  PUSH [tag] 40\t\t\ttion[] memory) {\\r\\n        ui...\n  JUMP \t\t\ttion[] memory) {\\r\\n        ui...\ntag 109\t\t\ttion[] memory) {\\r\\n        ui...\n  JUMPDEST \t\t\ttion[] memory) {\\r\\n        ui...\n  SWAP2 \t\t\tdingCondition[] memory) {\\r\\n ...\n  POP \t\t\tdingCondition[] memory) {\\r\\n ...\n  POP \t\t\tuestIDs;\\r\\n    \\r\\n    /// @n...\n  SWAP3 \t\t\tstore proof_request_ids only f...\n  SWAP2 \t\t\tstore proof_request_ids only f...\n  POP \t\t\tstore proof_request_ids only f...\n  POP \t\t\tstore proof_request_ids only f...\n  JUMP \t\t\tstore proof_request_ids only f...\ntag 3\t\t\t// First, count how many proof...\n  JUMPDEST \t\t\t// First, count how many proof...\n  PUSH 0\t\t\t{\\r\\n   \n  DUP1 \t\t\t      \n  PUSH 0\t\t\tf (byt\n  PUSH 60\t\t\tib\n  DUP5 \t\t\tids[i]].a\n  DUP7 \t\t\ttokenID\n  SUB \t\t\tons[tokenID][ids[i]].at\n  SLT \t\t\tditions[tokenID][ids[i]].attri...\n  ISZERO \t\t\tConditions[tokenID][ids[i]].at...\n  PUSH [tag] 111\t\t\tConditions[tokenID][ids[i]].at...\n  JUMPI \t\t\tConditions[tokenID][ids[i]].at...\n  PUSH [tag] 112\t\t\t.length > 0) {\\r\\n            ...\n  PUSH [tag] 23\t\t\t.length > 0) {\\r\\n            ...\n  JUMP \t\t\t.length > 0) {\\r\\n            ...\ntag 112\t\t\t.length > 0) {\\r\\n            ...\n  JUMPDEST \t\t\t.length > 0) {\\r\\n            ...\ntag 111\t\t\tConditions[tokenID][ids[i]].at...\n  JUMPDEST \t\t\tConditions[tokenID][ids[i]].at...\n  PUSH 0\t\t\t[\n  PUSH [tag] 113\t\t\tew uint64[](count);\\r\\n       ...\n  DUP7 \t\t\tonditio\n  DUP3 \t\t\tSpendi\n  DUP8 \t\t\tions = ne\n  ADD \t\t\tnditions = new Spendin\n  PUSH [tag] 29\t\t\tew uint64[](count);\\r\\n       ...\n  JUMP \t\t\tew uint64[](count);\\r\\n       ...\ntag 113\t\t\tew uint64[](count);\\r\\n       ...\n  JUMPDEST \t\t\tew uint64[](count);\\r\\n       ...\n  SWAP4 \t\t\tredIDs = new uint64[](count);\\...\n  POP \t\t\tredIDs = new uint64[](count);\\...\n  POP \t\t\tys for output\\r\\n        uint6...\n  PUSH 20\t\t\t (\n  PUSH [tag] 114\t\t\tength; i++) {\\r\\n            i...\n  DUP7 \t\t\ttokenID\n  DUP3 \t\t\tnditio\n  DUP8 \t\t\t(spending\n  ADD \t\t\tytes(spendingCondition\n  PUSH [tag] 31\t\t\tength; i++) {\\r\\n            i...\n  JUMP \t\t\tength; i++) {\\r\\n            i...\ntag 114\t\t\tength; i++) {\\r\\n            i...\n  JUMPDEST \t\t\tength; i++) {\\r\\n            i...\n  SWAP3 \t\t\t i < ids.length; i++) {\\r\\n   ...\n  POP \t\t\t i < ids.length; i++) {\\r\\n   ...\n  POP \t\t\tuint256 idx = 0;\\r\\n        fo...\n  PUSH 40\t\t\tid\n  DUP5 \t\t\tIDs[idx] \n  ADD \t\t\teredIDs[idx] = ids\n  MLOAD \t\t\t  filteredIDs[idx] = ids[\n  PUSH FFFFFFFFFFFFFFFF\t\t\tions[idx] = spendi\n  DUP2 \t\t\t  cond\n  GT \t\t\t     conditions[idx] = spendin\n  ISZERO \t\t\t        conditions[idx] = spen...\n  PUSH [tag] 115\t\t\t        conditions[idx] = spen...\n  JUMPI \t\t\t        conditions[idx] = spen...\n  PUSH [tag] 116\t\t\tnditions[tokenID][ids[i]];\\r\\n...\n  PUSH [tag] 24\t\t\tnditions[tokenID][ids[i]];\\r\\n...\n  JUMP \t\t\tnditions[tokenID][ids[i]];\\r\\n...\ntag 116\t\t\tnditions[tokenID][ids[i]];\\r\\n...\n  JUMPDEST \t\t\tnditions[tokenID][ids[i]];\\r\\n...\ntag 115\t\t\t        conditions[idx] = spen...\n  JUMPDEST \t\t\t        conditions[idx] = spen...\n  PUSH [tag] 117\t\t\t, conditions);\\r\\n    }\\r\\n\\r\\...\n  DUP7 \t\t\trrespon\n  DUP3 \t\t\tnd the\n  DUP8 \t\t\tf request\n  ADD \t\t\tproof request and the \n  PUSH [tag] 41\t\t\t, conditions);\\r\\n    }\\r\\n\\r\\...\n  JUMP \t\t\t, conditions);\\r\\n    }\\r\\n\\r\\...\ntag 117\t\t\t, conditions);\\r\\n    }\\r\\n\\r\\...\n  JUMPDEST \t\t\t, conditions);\\r\\n    }\\r\\n\\r\\...\n  SWAP2 \t\t\tilteredIDs, conditions);\\r\\n  ...\n  POP \t\t\tilteredIDs, conditions);\\r\\n  ...\n  POP \t\t\tlength > 0) {\\r\\n             ...\n  SWAP3 \t\t\t// First, count how many proof...\n  POP \t\t\t// First, count how many proof...\n  SWAP3 \t\t\t// First, count how many proof...\n  POP \t\t\t// First, count how many proof...\n  SWAP3 \t\t\t// First, count how many proof...\n  JUMP \t\t\t// First, count how many proof...\ntag 42\t\t\t    // The array proofRequestI...\n  JUMPDEST \t\t\t    // The array proofRequestI...\n  PUSH [tag] 119\t\t\tt and the corresponding \n  DUP2 \t\t\tnding\n  PUSH [tag] 26\t\t\tt and the corresponding \n  JUMP \t\t\tt and the corresponding \ntag 119\t\t\tt and the corresponding \n  JUMPDEST \t\t\tt and the corresponding \n  DUP3 \t\t\tequ\n  MSTORE \t\t\tproof request and the correspo...\n  POP \t\t\t    // The array proofRequestI...\n  POP \t\t\t    // The array proofRequestI...\n  JUMP \t\t\t    // The array proofRequestI...\ntag 13\t\t\t' or 'receiver').\\r\\n    // Th...\n  JUMPDEST \t\t\t' or 'receiver').\\r\\n    // Th...\n  PUSH 0\t\t\tProo\n  PUSH 20\t\t\tin\n  DUP3 \t\t\t tokenID,\n  ADD \t\t\tt256 tokenID, uint\n  SWAP1 \t\t\tRole(uint256 tokenID, uint\n  POP \t\t\tRole(uint256 tokenID, uint\n  PUSH [tag] 121\t\t\tID, string calldata role) publ...\n  PUSH 0\t\t\tk\n  DUP4 \t\t\tuire(_all\n  ADD \t\t\t require(_allToke\n  DUP5 \t\t\t\\r\\n    \n  PUSH [tag] 42\t\t\tID, string calldata role) publ...\n  JUMP \t\t\tID, string calldata role) publ...\ntag 121\t\t\tID, string calldata role) publ...\n  JUMPDEST \t\t\tID, string calldata role) publ...\n  SWAP3 \t\t\t' or 'receiver').\\r\\n    // Th...\n  SWAP2 \t\t\t' or 'receiver').\\r\\n    // Th...\n  POP \t\t\t' or 'receiver').\\r\\n    // Th...\n  POP \t\t\t' or 'receiver').\\r\\n    // Th...\n  JUMP \t\t\t' or 'receiver').\\r\\n    // Th...\ntag 43\t\t\ttokenID), \"token id does not e...\n  JUMPDEST \t\t\ttokenID), \"token id does not e...\n  PUSH 0\t\t\tre(byt\n  DUP2 \t\t\t[toke\n  MLOAD \t\t\tt_role[token\n  SWAP1 \t\t\troofRequest_role[token\n  POP \t\t\troofRequest_role[token\n  SWAP2 \t\t\ttokenID), \"token id does not e...\n  SWAP1 \t\t\ttokenID), \"token id does not e...\n  POP \t\t\ttokenID), \"token id does not e...\n  JUMP \t\t\ttokenID), \"token id does not e...\ntag 44\t\t\t]).length == 0, \"Proof request...\n  JUMPDEST \t\t\t]).length == 0, \"Proof request...\n  PUSH 4E487B7100000000000000000000000000000000000000000000000000000000\t\t\t\\r\\n        require(\\r\\n      ...\n  PUSH 0\t\t\t\"\n  MSTORE \t\t\t exists\");\\r\\n        require(...\n  PUSH 22\t\t\t    \n  PUSH 4\t\t\t \n  MSTORE \t\t\t\\r\\n            k\n  PUSH 24\t\t\t)) =\n  PUSH 0\t\t\to\n  REVERT \t\t\tbytes(role)) ==\ntag 45\t\t\tytes(\"receiver\")),\\r\\n        ...\n  JUMPDEST \t\t\tytes(\"receiver\")),\\r\\n        ...\n  PUSH 0\t\t\te 'sen\n  PUSH 2\t\t\t\\r\n  DUP3 \t\t\t    \n  DIV \t\t\t        );\\r\\n\n  SWAP1 \t\t\tceiver'\"\\r\\n        );\\r\\n\n  POP \t\t\tceiver'\"\\r\\n        );\\r\\n\n  PUSH 1\t\t\tq\n  DUP3 \t\t\tID][\n  AND \t\t\tokenID][requ\n  DUP1 \t\t\t     proofRequestI\n  PUSH [tag] 125\t\t\trole;\\r\\n        proofRequestI...\n  JUMPI \t\t\trole;\\r\\n        proofRequestI...\n  PUSH 7F\t\t\tfunc\n  DUP3 \t\t\t  \\r\\n  \n  AND \t\t\t\\r\\n    \\r\\n    funct\n  SWAP2 \t\t\tD);\\r\\n    }\\r\\n    \\r\\n    fu...\n  POP \t\t\tD);\\r\\n    }\\r\\n    \\r\\n    fu...\ntag 125\t\t\trole;\\r\\n        proofRequestI...\n  JUMPDEST \t\t\trole;\\r\\n        proofRequestI...\n  PUSH 20\t\t\ttI\n  DUP3 \t\t\t4 requ\n  LT \t\t\tnt64 requestId\n  DUP2 \t\t\terAndPM(\\r\\n        \n  SUB \t\t\tifierAndPM(\\r\\n        uint64 ...\n  PUSH [tag] 126\t\t\tVerifierAndPM(\\r\\n        uint...\n  JUMPI \t\t\tVerifierAndPM(\\r\\n        uint...\n  PUSH [tag] 127\t\t\tg calldata metadat\n  PUSH [tag] 44\t\t\tg calldata metadat\n  JUMP \t\t\tg calldata metadat\ntag 127\t\t\tg calldata metadat\n  JUMPDEST \t\t\tg calldata metadat\ntag 126\t\t\tVerifierAndPM(\\r\\n        uint...\n  JUMPDEST \t\t\tVerifierAndPM(\\r\\n        uint...\n  POP \t\t\ter' or 'receiver'\"\\r\\n        ...\n  SWAP2 \t\t\tytes(\"receiver\")),\\r\\n        ...\n  SWAP1 \t\t\tytes(\"receiver\")),\\r\\n        ...\n  POP \t\t\tytes(\"receiver\")),\\r\\n        ...\n  JUMP \t\t\tytes(\"receiver\")),\\r\\n        ...\ntag 46\t\t\tlidator validator,\\r\\n        ...\n  JUMPDEST \t\t\tlidator validator,\\r\\n        ...\n  PUSH 0\t\t\t\\n   \n  DUP2 \t\t\tD,\\r\n  SWAP1 \t\t\t6 tokenID,\\r\n  POP \t\t\t6 tokenID,\\r\n  DUP2 \t\t\tdat\n  PUSH 0\t\t\ta\n  MSTORE \t\t\ttring calldata\n  PUSH 20\t\t\tion \n  PUSH 0\t\t\td\n  KECCAK256 \t\t\tpendingCondition c\n  SWAP1 \t\t\t       SpendingCondition c\n  POP \t\t\t       SpendingCondition c\n  SWAP2 \t\t\tlidator validator,\\r\\n        ...\n  SWAP1 \t\t\tlidator validator,\\r\\n        ...\n  POP \t\t\tlidator validator,\\r\\n        ...\n  JUMP \t\t\tlidator validator,\\r\\n        ...\ntag 47\t\t\ttion\\r\\n    ) public {\\r\\n    ...\n  JUMPDEST \t\t\ttion\\r\\n    ) public {\\r\\n    ...\n  PUSH 0\t\t\td the \n  PUSH 20\t\t\tZK\n  PUSH 1F\t\t\t  \n  DUP4 \t\t\tt\\r\\n  \n  ADD \t\t\ttruct\\r\\n       \n  DIV \t\t\tst struct\\r\\n        IZKP\n  SWAP1 \t\t\tr.ZKPRequest struct\\r\\n       ...\n  POP \t\t\tr.ZKPRequest struct\\r\\n       ...\n  SWAP2 \t\t\ttion\\r\\n    ) public {\\r\\n    ...\n  SWAP1 \t\t\ttion\\r\\n    ) public {\\r\\n    ...\n  POP \t\t\ttion\\r\\n    ) public {\\r\\n    ...\n  JUMP \t\t\ttion\\r\\n    ) public {\\r\\n    ...\ntag 48\t\t\tRequest memory req = IZKPVerif...\n  JUMPDEST \t\t\tRequest memory req = IZKPVerif...\n  PUSH 0\t\t\t({\\r\\n    \n  DUP3 \t\t\talida\n  DUP3 \t\t\t    \n  SHL \t\t\t         validat\n  SWAP1 \t\t\tadata: metadata,\\r\\n          ...\n  POP \t\t\tadata: metadata,\\r\\n          ...\n  SWAP3 \t\t\tRequest memory req = IZKPVerif...\n  SWAP2 \t\t\tRequest memory req = IZKPVerif...\n  POP \t\t\tRequest memory req = IZKPVerif...\n  POP \t\t\tRequest memory req = IZKPVerif...\n  JUMP \t\t\tRequest memory req = IZKPVerif...\ntag 49\t\t\t,\\r\\n            data: data\\r\\...\n  JUMPDEST \t\t\t,\\r\\n            data: data\\r\\...\n  PUSH 0\t\t\test(re\n  PUSH 8\t\t\tl\n  DUP4 \t\t\tRequestAnd\n  MUL \t\t\troofRequestAndRole\n  PUSH [tag] 132\t\t\trole);\\r\\n        // Add the s...\n  PUSH FFFFFFFFFFFFFFFFFFFFFFFFFFFFFFFFFFFFFFFFFFFFFFFFFFFFFFFFFFFFFFFF\t\t\tnding condition\\r\\n        spe...\n  DUP3 \t\t\tAdd the s\n  PUSH [tag] 48\t\t\trole);\\r\\n        // Add the s...\n  JUMP \t\t\trole);\\r\\n        // Add the s...\ntag 132\t\t\trole);\\r\\n        // Add the s...\n  JUMPDEST \t\t\trole);\\r\\n        // Add the s...\n  PUSH [tag] 133\t\t\t           attribute: conditio...\n  DUP7 \t\t\tn.attrib\n  DUP4 \t\t\te: condit\n  PUSH [tag] 48\t\t\t           attribute: conditio...\n  JUMP \t\t\t           attribute: conditio...\ntag 133\t\t\t           attribute: conditio...\n  JUMPDEST \t\t\t           attribute: conditio...\n  SWAP6 \t\t\tndition({\\r\\n            attri...\n  POP \t\t\tndition({\\r\\n            attri...\n  DUP1 \t\t\tditi\n  NOT \t\t\t conditio\n  DUP5 \t\t\ttorSt\n  AND \t\t\tperatorStr: condition\n  SWAP4 \t\t\t        operatorStr: condition\n  POP \t\t\t        operatorStr: condition\n  DUP1 \t\t\t.val\n  DUP7 \t\t\t conditi\n  AND \t\t\tlue: condition.valu\n  DUP5 \t\t\t     \n  OR \t\t\t        value: condition.value\n  SWAP3 \t\t\tStr,\\r\\n            value: con...\n  POP \t\t\tStr,\\r\\n            value: con...\n  POP \t\t\tuestId, req);\\r\\n        addPr...\n  POP \t\t\tuestId, req);\\r\\n        addPr...\n  SWAP4 \t\t\t,\\r\\n            data: data\\r\\...\n  SWAP3 \t\t\t,\\r\\n            data: data\\r\\...\n  POP \t\t\t,\\r\\n            data: data\\r\\...\n  POP \t\t\t,\\r\\n            data: data\\r\\...\n  POP \t\t\t,\\r\\n            data: data\\r\\...\n  JUMP \t\t\t,\\r\\n            data: data\\r\\...\ntag 50\t\t\t;\\r\\n    }\\r\\n    \\r\\n    // D...\n  JUMPDEST \t\t\t;\\r\\n    }\\r\\n    \\r\\n    // D...\n  PUSH 0\t\t\t reques\n  DUP2 \t\t\tD.\\r\\n \n  SWAP1 \t\t\tddress by ID.\\r\\n \n  POP \t\t\tddress by ID.\\r\\n \n  SWAP2 \t\t\t;\\r\\n    }\\r\\n    \\r\\n    // D...\n  SWAP1 \t\t\t;\\r\\n    }\\r\\n    \\r\\n    // D...\n  POP \t\t\t;\\r\\n    }\\r\\n    \\r\\n    // D...\n  JUMP \t\t\t;\\r\\n    }\\r\\n    \\r\\n    // D...\ntag 51\t\t\tray proofRequestIDs is updated...\n  JUMPDEST \t\t\tray proofRequestIDs is updated...\n  PUSH 0\t\t\ted \n  DUP2 \t\t\tfunct\n  SWAP1 \t\t\t.\\r\\n    funct\n  POP \t\t\t.\\r\\n    funct\n  SWAP2 \t\t\tray proofRequestIDs is updated...\n  SWAP1 \t\t\tray proofRequestIDs is updated...\n  POP \t\t\tray proofRequestIDs is updated...\n  JUMP \t\t\tray proofRequestIDs is updated...\ntag 52\t\t\toofRequestAndRole(uint256 toke...\n  JUMPDEST \t\t\toofRequestAndRole(uint256 toke...\n  PUSH 0\t\t\tD) public\n  PUSH [tag] 137\t\t\tquire(_allTokenIDs.contains(to...\n  PUSH [tag] 138\t\t\t.contains(tokenID), \"token id ...\n  PUSH [tag] 139\t\t\t(tokenID), \"token id doe\n  DUP5 \t\t\tid do\n  PUSH [tag] 50\t\t\t(tokenID), \"token id doe\n  JUMP \t\t\t(tokenID), \"token id doe\ntag 139\t\t\t(tokenID), \"token id doe\n  JUMPDEST \t\t\t(tokenID), \"token id doe\n  PUSH [tag] 51\t\t\t.contains(tokenID), \"token id ...\n  JUMP \t\t\t.contains(tokenID), \"token id ...\ntag 138\t\t\t.contains(tokenID), \"token id ...\n  JUMPDEST \t\t\t.contains(tokenID), \"token id ...\n  PUSH [tag] 50\t\t\tquire(_allTokenIDs.contains(to...\n  JUMP \t\t\tquire(_allTokenIDs.contains(to...\ntag 137\t\t\tquire(_allTokenIDs.contains(to...\n  JUMPDEST \t\t\tquire(_allTokenIDs.contains(to...\n  SWAP1 \t\t\t{\\r\\n        require(_allToken...\n  POP \t\t\t{\\r\\n        require(_allToken...\n  SWAP2 \t\t\toofRequestAndRole(uint256 toke...\n  SWAP1 \t\t\toofRequestAndRole(uint256 toke...\n  POP \t\t\toofRequestAndRole(uint256 toke...\n  JUMP \t\t\toofRequestAndRole(uint256 toke...\ntag 53\t\t\t\\r\\n        require(bytes(toke...\n  JUMPDEST \t\t\t\\r\\n        require(bytes(toke...\n  PUSH 0\t\t\tt_r\n  DUP2 \t\t\tstID]\n  SWAP1 \t\t\t][requestID]\n  POP \t\t\t][requestID]\n  SWAP2 \t\t\t\\r\\n        require(bytes(toke...\n  SWAP1 \t\t\t\\r\\n        require(bytes(toke...\n  POP \t\t\t\\r\\n        require(bytes(toke...\n  JUMP \t\t\t\\r\\n        require(bytes(toke...\ntag 54\t\t\t0, \"Proof request does not exi...\n  JUMPDEST \t\t\t0, \"Proof request does not exi...\n  PUSH [tag] 142\t\t\tlete spendingConditions[tokenI...\n  DUP4 \t\t\t][reque\n  PUSH [tag] 52\t\t\tlete spendingConditions[tokenI...\n  JUMP \t\t\tlete spendingConditions[tokenI...\ntag 142\t\t\tlete spendingConditions[tokenI...\n  JUMPDEST \t\t\tlete spendingConditions[tokenI...\n  PUSH [tag] 143\t\t\tve ID from the array (swap-and...\n  PUSH [tag] 144\t\t\t      for (uint256 i = 0; i < ...\n  DUP3 \t\t\t; i < proofReque\n  PUSH [tag] 53\t\t\t      for (uint256 i = 0; i < ...\n  JUMP \t\t\t      for (uint256 i = 0; i < ...\ntag 144\t\t\t      for (uint256 i = 0; i < ...\n  JUMPDEST \t\t\t      for (uint256 i = 0; i < ...\n  DUP5 \t\t\tque)\\r\\n\n  DUP5 \t\t\t tec\n  SLOAD \t\t\tnd-pop tech\n  PUSH [tag] 49\t\t\tve ID from the array (swap-and...\n  JUMP \t\t\tve ID from the array (swap-and...\ntag 143\t\t\tve ID from the array (swap-and...\n  JUMPDEST \t\t\tve ID from the array (swap-and...\n  DUP3 \t\t\t/ Re\n  SSTORE \t\t\t      // Remove ID from the ar...\n  POP \t\t\te[tokenID][requestID];\\r\\n    ...\n  POP \t\t\t0, \"Proof request does not exi...\n  POP \t\t\t0, \"Proof request does not exi...\n  POP \t\t\t0, \"Proof request does not exi...\n  JUMP \t\t\t0, \"Proof request does not exi...\ntag 55\t\t\t++) {\\r\\n            if (proof...\n  JUMPDEST \t\t\t++) {\\r\\n            if (proof...\n  PUSH 0\t\t\treq\n  SWAP1 \t\t\t++) {\\r\\n            if (proof...\n  JUMP \t\t\t++) {\\r\\n            if (proof...\ntag 56\t\t\tfRequestIDs[i] = proofRequestI...\n  JUMPDEST \t\t\tfRequestIDs[i] = proofRequestI...\n  PUSH [tag] 147\t\t\t  proofRequestIDs.pop();\\r\\n  ...\n  PUSH [tag] 55\t\t\t  proofRequestIDs.pop();\\r\\n  ...\n  JUMP \t\t\t  proofRequestIDs.pop();\\r\\n  ...\ntag 147\t\t\t  proofRequestIDs.pop();\\r\\n  ...\n  JUMPDEST \t\t\t  proofRequestIDs.pop();\\r\\n  ...\n  PUSH [tag] 148\t\t\t break;\\r\\n            }\\r\\n  ...\n  DUP2 \t\t\tblic c\n  DUP5 \t\t\tnt256 \n  DUP5 \t\t\t    \n  PUSH [tag] 54\t\t\t break;\\r\\n            }\\r\\n  ...\n  JUMP \t\t\t break;\\r\\n            }\\r\\n  ...\ntag 148\t\t\t break;\\r\\n            }\\r\\n  ...\n  JUMPDEST \t\t\t break;\\r\\n            }\\r\\n  ...\n  POP \t\t\tth - 1];\\r\\n                pr...\n  POP \t\t\tfRequestIDs[i] = proofRequestI...\n  POP \t\t\tfRequestIDs[i] = proofRequestI...\n  JUMP \t\t\tfRequestIDs[i] = proofRequestI...\ntag 57\t\t\tble_token = 1;\\r\\n    uint256 ...\n  JUMPDEST \t\t\tble_token = 1;\\r\\n    uint256 ...\ntag 150\t\t\ten = 2;\\r\\n\\r\\n    UniversalVe...\n  JUMPDEST \t\t\ten = 2;\\r\\n\\r\\n    UniversalVe...\n  DUP2 \t\t\tive\n  DUP2 \t\t\t\\n    \n  LT \t\t\t\\r\\n\\r\\n    Univer\n  ISZERO \t\t\ten = 2;\\r\\n\\r\\n    UniversalVe...\n  PUSH [tag] 152\t\t\ten = 2;\\r\\n\\r\\n    UniversalVe...\n  JUMPI \t\t\ten = 2;\\r\\n\\r\\n    UniversalVe...\n  PUSH [tag] 153\t\t\tiversalVerifier verifier_, add...\n  PUSH 0\t\t\ti\n  DUP3 \t\t\tress \n  PUSH [tag] 56\t\t\tiversalVerifier verifier_, add...\n  JUMP \t\t\tiversalVerifier verifier_, add...\ntag 153\t\t\tiversalVerifier verifier_, add...\n  JUMPDEST \t\t\tiversalVerifier verifier_, add...\n  PUSH 1\t\t\tf\n  DUP2 \t\t\tic ve\n  ADD \t\t\tpublic verifi\n  SWAP1 \t\t\tVerifier public verifi\n  POP \t\t\tVerifier public verifi\n  PUSH [tag] 150\t\t\ten = 2;\\r\\n\\r\\n    UniversalVe...\n  JUMP \t\t\ten = 2;\\r\\n\\r\\n    UniversalVe...\ntag 152\t\t\ten = 2;\\r\\n\\r\\n    UniversalVe...\n  JUMPDEST \t\t\ten = 2;\\r\\n\\r\\n    UniversalVe...\n  POP \t\t\tble_token = 1;\\r\\n    uint256 ...\n  POP \t\t\tble_token = 1;\\r\\n    uint256 ...\n  JUMP \t\t\tble_token = 1;\\r\\n    uint256 ...\ntag 58\t\t\ty uri_)\\r\\n    ERC1155(uri_)\\r...\n  JUMPDEST \t\t\ty uri_)\\r\\n    ERC1155(uri_)\\r...\n  PUSH 1F\t\t\t\\n \n  DUP3 \t\t\t }\\r\n  GT \t\t\t    }\\r\\n\\r\\n  \n  ISZERO \t\t\t;\\r\\n    }\\r\\n\\r\\n    // Custo...\n  PUSH [tag] 155\t\t\t;\\r\\n    }\\r\\n\\r\\n    // Custo...\n  JUMPI \t\t\t;\\r\\n    }\\r\\n\\r\\n    // Custo...\n  PUSH [tag] 156\t\t\tcheck if token id already take...\n  DUP2 \t\t\t when\n  PUSH [tag] 46\t\t\tcheck if token id already take...\n  JUMP \t\t\tcheck if token id already take...\ntag 156\t\t\tcheck if token id already take...\n  JUMPDEST \t\t\tcheck if token id already take...\n  PUSH [tag] 157\t\t\tt256 tokenID);\\r\\n\\r\\n\\r\\n    ...\n  DUP5 \t\t\t\\r\\n    // R\n  PUSH [tag] 47\t\t\tt256 tokenID);\\r\\n\\r\\n\\r\\n    ...\n  JUMP \t\t\tt256 tokenID);\\r\\n\\r\\n\\r\\n    ...\ntag 157\t\t\tt256 tokenID);\\r\\n\\r\\n\\r\\n    ...\n  JUMPDEST \t\t\tt256 tokenID);\\r\\n\\r\\n\\r\\n    ...\n  DUP2 \t\t\tDTaken(u\n  ADD \t\t\tkenIDTaken(uint256 tokenID);\\r...\n  PUSH 20\t\t\tth\n  DUP6 \t\t\tby name. I\n  LT \t\t\ten by name. If the\n  ISZERO \t\t\ttoken by name. If the name exi...\n  PUSH [tag] 158\t\t\ttoken by name. If the name exi...\n  JUMPI \t\t\ttoken by name. If the name exi...\n  DUP2 \t\t\t the exi\n  SWAP1 \t\t\tme exists, mint the exi\n  POP \t\t\tme exists, mint the exi\ntag 158\t\t\ttoken by name. If the name exi...\n  JUMPDEST \t\t\ttoken by name. If the name exi...\n  PUSH [tag] 159\t\t\t    /// If the name does not e...\n  PUSH [tag] 160\t\t\th a random unused ID a\n  DUP6 \t\t\tID \n  PUSH [tag] 47\t\t\th a random unused ID a\n  JUMP \t\t\th a random unused ID a\ntag 160\t\t\th a random unused ID a\n  JUMPDEST \t\t\th a random unused ID a\n  DUP4 \t\t\t token w\n  ADD \t\t\t new token with a random unuse...\n  DUP3 \t\t\texist, mint\n  PUSH [tag] 57\t\t\t    /// If the name does not e...\n  JUMP \t\t\t    /// If the name does not e...\ntag 159\t\t\t    /// If the name does not e...\n  JUMPDEST \t\t\t    /// If the name does not e...\n  POP \t\t\t // Custom error declaration (...\n  POP \t\t\t // Custom error declaration (...\ntag 155\t\t\t;\\r\\n    }\\r\\n\\r\\n    // Custo...\n  JUMPDEST \t\t\t;\\r\\n    }\\r\\n\\r\\n    // Custo...\n  POP \t\t\ty uri_)\\r\\n    ERC1155(uri_)\\r...\n  POP \t\t\ty uri_)\\r\\n    ERC1155(uri_)\\r...\n  POP \t\t\ty uri_)\\r\\n    ERC1155(uri_)\\r...\n  JUMP \t\t\ty uri_)\\r\\n    ERC1155(uri_)\\r...\ntag 59\t\t\t/// Anyone can call this funct...\n  JUMPDEST \t\t\t/// Anyone can call this funct...\n  PUSH 0\t\t\t testing\n  DUP3 \t\t\tnctio\n  DUP3 \t\t\this \n  SHR \t\t\tn, this function\n  SWAP1 \t\t\t\\n    /// In production, this ...\n  POP \t\t\t\\n    /// In production, this ...\n  SWAP3 \t\t\t/// Anyone can call this funct...\n  SWAP2 \t\t\t/// Anyone can call this funct...\n  POP \t\t\t/// Anyone can call this funct...\n  POP \t\t\t/// Anyone can call this funct...\n  JUMP \t\t\t/// Anyone can call this funct...\ntag 60\t\t\tstricted to the owner or a spe...\n  JUMPDEST \t\t\tstricted to the owner or a spe...\n  PUSH 0\t\t\t   ///\n  PUSH [tag] 163\t\t\tr requires the ID argument. Th...\n  PUSH 0\t\t\t-\n  NOT \t\t\t non-e\n  DUP5 \t\t\t must\n  PUSH 8\t\t\ta\n  MUL \t\t\the name must \n  PUSH [tag] 59\t\t\tr requires the ID argument. Th...\n  JUMP \t\t\tr requires the ID argument. Th...\ntag 163\t\t\tr requires the ID argument. Th...\n  JUMPDEST \t\t\tr requires the ID argument. Th...\n  NOT \t\t\tonger requires the ID argument...\n  DUP1 \t\t\tddre\n  DUP4 \t\t\token\n  AND \t\t\tintToken(addres\n  SWAP2 \t\t\tfunction mintToken(addres\n  POP \t\t\tfunction mintToken(addres\n  POP \t\t\t@dev The function no longer re...\n  SWAP3 \t\t\tstricted to the owner or a spe...\n  SWAP2 \t\t\tstricted to the owner or a spe...\n  POP \t\t\tstricted to the owner or a spe...\n  POP \t\t\tstricted to the owner or a spe...\n  JUMP \t\t\tstricted to the owner or a spe...\ntag 61\t\t\t56 amount, bytes calldata data...\n  JUMPDEST \t\t\t56 amount, bytes calldata data...\n  PUSH 0\t\t\tquir\n  PUSH [tag] 165\t\t\tenIDs.values();\\r\\n        for...\n  DUP4 \t\t\tfor\n  DUP4 \t\t\t    \n  PUSH [tag] 60\t\t\tenIDs.values();\\r\\n        for...\n  JUMP \t\t\tenIDs.values();\\r\\n        for...\ntag 165\t\t\tenIDs.values();\\r\\n        for...\n  JUMPDEST \t\t\tenIDs.values();\\r\\n        for...\n  SWAP2 \t\t\t _allTokenIDs.values();\\r\\n   ...\n  POP \t\t\t _allTokenIDs.values();\\r\\n   ...\n  DUP3 \t\t\t++)\n  PUSH 2\t\t\t;\n  MUL \t\t\tngth; i++) \n  DUP3 \t\t\tids.\n  OR \t\t\t < ids.length; i++) {\n  SWAP1 \t\t\ti = 0; i < ids.length; i++) {\n  POP \t\t\ti = 0; i < ids.length; i++) {\n  SWAP3 \t\t\t56 amount, bytes calldata data...\n  SWAP2 \t\t\t56 amount, bytes calldata data...\n  POP \t\t\t56 amount, bytes calldata data...\n  POP \t\t\t56 amount, bytes calldata data...\n  JUMP \t\t\t56 amount, bytes calldata data...\ntag 20\t\t\t   if (keccak256(bytes(tokenNa...\n  JUMPDEST \t\t\t   if (keccak256(bytes(tokenNa...\n  PUSH [tag] 167\t\t\t       found = true;\\r\\n      ...\n  DUP3 \t\t\t   \n  PUSH [tag] 43\t\t\t       found = true;\\r\\n      ...\n  JUMP \t\t\t       found = true;\\r\\n      ...\ntag 167\t\t\t       found = true;\\r\\n      ...\n  JUMPDEST \t\t\t       found = true;\\r\\n      ...\n  PUSH FFFFFFFFFFFFFFFF\t\t\t    _mint(to, toke\n  DUP2 \t\t\t      \n  GT \t\t\t{\\r\\n            _mint(to, tok...\n  ISZERO \t\t\td) {\\r\\n            _mint(to, ...\n  PUSH [tag] 168\t\t\td) {\\r\\n            _mint(to, ...\n  JUMPI \t\t\td) {\\r\\n            _mint(to, ...\n  PUSH [tag] 169\t\t\t amount, data);\\r\\n \n  PUSH [tag] 35\t\t\t amount, data);\\r\\n \n  JUMP \t\t\t amount, data);\\r\\n \ntag 169\t\t\t amount, data);\\r\\n \n  JUMPDEST \t\t\t amount, data);\\r\\n \ntag 168\t\t\td) {\\r\\n            _mint(to, ...\n  JUMPDEST \t\t\td) {\\r\\n            _mint(to, ...\n  PUSH [tag] 170\t\t\t   // Generate a random 4-5 di...\n  DUP3 \t\t\tt ID\n  SLOAD \t\t\t5 digit ID \n  PUSH [tag] 45\t\t\t   // Generate a random 4-5 di...\n  JUMP \t\t\t   // Generate a random 4-5 di...\ntag 170\t\t\t   // Generate a random 4-5 di...\n  JUMPDEST \t\t\t   // Generate a random 4-5 di...\n  PUSH [tag] 171\t\t\t      uint256 attempts = 0;\\r\\...\n  DUP3 \t\t\t   new\n  DUP3 \t\t\t      \n  DUP6 \t\t\t\\n   \n  PUSH [tag] 58\t\t\t      uint256 attempts = 0;\\r\\...\n  JUMP \t\t\t      uint256 attempts = 0;\\r\\...\ntag 171\t\t\t      uint256 attempts = 0;\\r\\...\n  JUMPDEST \t\t\t      uint256 attempts = 0;\\r\\...\n  PUSH 0\t\t\t5\n  PUSH 20\t\t\tk.ti\n  SWAP1 \t\t\tdePacked(block.ti\n  POP \t\t\tdePacked(block.ti\n  PUSH 1F\t\t\to,\n  DUP4 \t\t\tandao,\n  GT \t\t\tevrandao, to, \n  PUSH 1\t\t\t)\n  DUP2 \t\t\tempts))) % 90000);\\r\\n        ...\n  EQ \t\t\tempts))) % 90000);\\r\\n        ...\n  PUSH [tag] 173\t\t\tempts))) % 90000);\\r\\n        ...\n  JUMPI \t\t\tempts))) % 90000);\\r\\n        ...\n  PUSH 0\t\t\tf\n  DUP5 \t\t\t this \n  ISZERO \t\t\tUse this before token transfer...\n  PUSH [tag] 174\t\t\tUse this before token transfer...\n  JUMPI \t\t\tUse this before token transfer...\n  DUP3 \t\t\tr's and r\n  DUP8 \t\t\tsen\n  ADD \t\t\tcks sender's and re\n  MLOAD \t\t\t// Checks sender's and rec\n  SWAP1 \t\t\ter.\\r\\n    // Checks sender's ...\n  POP \t\t\ter.\\r\\n    // Checks sender's ...\ntag 174\t\t\tUse this before token transfer...\n  JUMPDEST \t\t\tUse this before token transfer...\n  PUSH [tag] 175\t\t\t's role.\\r\\n    function _chec...\n  DUP6 \t\t\tID, ad\n  DUP3 \t\t\t6 tok\n  PUSH [tag] 61\t\t\t's role.\\r\\n    function _chec...\n  JUMP \t\t\t's role.\\r\\n    function _chec...\ntag 175\t\t\t's role.\\r\\n    function _chec...\n  JUMPDEST \t\t\t's role.\\r\\n    function _chec...\n  DUP7 \t\t\tprov\n  SSTORE \t\t\tby the prover's role.\\r\\n    f...\n  POP \t\t\tfor tokenID is still unverifie...\n  PUSH [tag] 172\t\t\tlock.prevrandao, to, name, att...\n  JUMP \t\t\tlock.prevrandao, to, name, att...\ntag 173\t\t\tempts))) % 90000);\\r\\n        ...\n  JUMPDEST \t\t\tempts))) % 90000);\\r\\n        ...\n  PUSH 1F\t\t\t    \n  NOT \t\t\t\\n        \n  DUP5 \t\t\tmpts++\n  AND \t\t\tattempts++;\\r\\n         \n  PUSH [tag] 176\t\t\t0, \"Unable to find unique shor...\n  DUP7 \t\t\ttoke\n  PUSH [tag] 46\t\t\t0, \"Unable to find unique shor...\n  JUMP \t\t\t0, \"Unable to find unique shor...\ntag 176\t\t\t0, \"Unable to find unique shor...\n  JUMPDEST \t\t\t0, \"Unable to find unique shor...\n  PUSH 0\t\t\tw\ntag 177\t\t\tenIDs.contains(newID));\\r\\n   ...\n  JUMPDEST \t\t\tenIDs.contains(newID));\\r\\n   ...\n  DUP3 \t\t\t(newID)\n  DUP2 \t\t\ti\n  LT \t\t\tntains(newID))\n  ISZERO \t\t\tenIDs.contains(newID));\\r\\n   ...\n  PUSH [tag] 179\t\t\tenIDs.contains(newID));\\r\\n   ...\n  JUMPI \t\t\tenIDs.contains(newID));\\r\\n   ...\n  DUP5 \t\t\t       _m\n  DUP10 \t\t\t   \n  ADD \t\t\t);\\r\\n            _mi\n  MLOAD \t\t\tTaken\");\\r\\n            _min\n  DUP3 \t\t\t\"Token\n  SSTORE \t\t\tewID), \"TokenIDTaken\");\\r\\n   ...\n  PUSH 1\t\t\t \n  DUP3 \t\t\t      \n  ADD \t\t\t\\n            t\n  SWAP2 \t\t\tt, data);\\r\\n            t\n  POP \t\t\tt, data);\\r\\n            t\n  PUSH 20\t\t\t  \n  DUP6 \t\t\t\\r\\n    }\\r\\n\n  ADD \t\t\t   }\\r\\n    }\\r\\n\\r\\n   \n  SWAP5 \t\t\t name;\\r\\n        }\\r\\n    }\\r...\n  POP \t\t\t name;\\r\\n        }\\r\\n    }\\r...\n  PUSH 20\t\t\trequ\n  DUP2 \t\t\t \n  ADD \t\t\t       requi\n  SWAP1 \t\t\t            requi\n  POP \t\t\t            requi\n  PUSH [tag] 177\t\t\tenIDs.contains(newID));\\r\\n   ...\n  JUMP \t\t\tenIDs.contains(newID));\\r\\n   ...\ntag 179\t\t\tenIDs.contains(newID));\\r\\n   ...\n  JUMPDEST \t\t\tenIDs.contains(newID));\\r\\n   ...\n  DUP7 \t\t\t, uint\n  DUP4 \t\t\tint256 \n  LT \t\t\t, uint256 ID, uint2\n  ISZERO \t\t\tunt, uint256 ID, uint256 amoun...\n  PUSH [tag] 180\t\t\tunt, uint256 ID, uint256 amoun...\n  JUMPI \t\t\tunt, uint256 ID, uint256 amoun...\n  DUP5 \t\t\tunt, ID, \n  DUP10 \t\t\t(ac\n  ADD \t\t\tburn(account, ID, a\n  MLOAD \t\t\t     _burn(account, ID, am\n  PUSH [tag] 181\t\t\trror declaration\\r\\n    error ...\n  PUSH 1F\t\t\ted(u\n  DUP10 \t\t\totVeri\n  AND \t\t\toofNotVerified(ui\n  DUP3 \t\t\t   error \n  PUSH [tag] 60\t\t\trror declaration\\r\\n    error ...\n  JUMP \t\t\trror declaration\\r\\n    error ...\ntag 181\t\t\trror declaration\\r\\n    error ...\n  JUMPDEST \t\t\trror declaration\\r\\n    error ...\n  DUP4 \t\t\tCustom\n  SSTORE \t\t\t    // Custom error declaratio...\n  POP \t\t\t6 amount) external onlyOwner {...\ntag 180\t\t\tunt, uint256 ID, uint256 amoun...\n  JUMPDEST \t\t\tunt, uint256 ID, uint256 amoun...\n  PUSH 1\t\t\tl\n  PUSH 2\t\t\te\n  DUP9 \t\t\t@dev I\n  MUL \t\t\t // @dev Inter\n  ADD \t\t\t\\n    // @dev Internal \n  DUP9 \t\t\ts);\\r\n  SSTORE \t\t\trAddress);\\r\\n\\r\\n    // @dev ...\n  POP \t\t\t) % 90000);\\r\\n               ...\n  POP \t\t\t) % 90000);\\r\\n               ...\n  POP \t\t\t) % 90000);\\r\\n               ...\ntag 172\t\t\tlock.prevrandao, to, name, att...\n  JUMPDEST \t\t\tlock.prevrandao, to, name, att...\n  POP \t\t\tlock.prevrandao, to, name, att...\n  POP \t\t\tenID = ids[i];\\r\\n            ...\n  POP \t\t\tenID = ids[i];\\r\\n            ...\n  POP \t\t\tenID = ids[i];\\r\\n            ...\n  POP \t\t\t   if (keccak256(bytes(tokenNa...\n  POP \t\t\t   if (keccak256(bytes(tokenNa...\n  JUMP \t\t\t   if (keccak256(bytes(tokenNa...\ntag 17\t\t\tcontract PMUniversalVerifier i...\n  JUMPDEST \t\t\tcontract PMUniversalVerifier i...\n  PUSH #[$] 0000000000000000000000000000000000000000000000000000000000000000\t\t\tcontract PMUniversalVerifier i...\n  DUP1 \t\t\tcontract PMUniversalVerifier i...\n  PUSH [$] 0000000000000000000000000000000000000000000000000000000000000000\t\t\tcontract PMUniversalVerifier i...\n  PUSH 0\t\t\tcontract PMUniversalVerifier i...\n  CODECOPY \t\t\tcontract PMUniversalVerifier i...\n  PUSH 0\t\t\tcontract PMUniversalVerifier i...\n  RETURN \t\t\tcontract PMUniversalVerifier i...\n.data\n  0:\n    .code\n      PUSH 80\t\t\tcontract PMUniversalVerifier i...\n      PUSH 40\t\t\tcontract PMUniversalVerifier i...\n      MSTORE \t\t\tcontract PMUniversalVerifier i...\n      CALLVALUE \t\t\tcontract PMUniversalVerifier i...\n      DUP1 \t\t\tcontract PMUniversalVerifier i...\n      ISZERO \t\t\tcontract PMUniversalVerifier i...\n      PUSH [tag] 1\t\t\tcontract PMUniversalVerifier i...\n      JUMPI \t\t\tcontract PMUniversalVerifier i...\n      PUSH 0\t\t\tcontract PMUniversalVerifier i...\n      DUP1 \t\t\tcontract PMUniversalVerifier i...\n      REVERT \t\t\tcontract PMUniversalVerifier i...\n    tag 1\t\t\tcontract PMUniversalVerifier i...\n      JUMPDEST \t\t\tcontract PMUniversalVerifier i...\n      POP \t\t\tcontract PMUniversalVerifier i...\n      PUSH 4\t\t\tcontract PMUniversalVerifier i...\n      CALLDATASIZE \t\t\tcontract PMUniversalVerifier i...\n      LT \t\t\tcontract PMUniversalVerifier i...\n      PUSH [tag] 2\t\t\tcontract PMUniversalVerifier i...\n      JUMPI \t\t\tcontract PMUniversalVerifier i...\n      PUSH 0\t\t\tcontract PMUniversalVerifier i...\n      CALLDATALOAD \t\t\tcontract PMUniversalVerifier i...\n      PUSH E0\t\t\tcontract PMUniversalVerifier i...\n      SHR \t\t\tcontract PMUniversalVerifier i...\n      DUP1 \t\t\tcontract PMUniversalVerifier i...\n      PUSH 7330DD84\t\t\tcontract PMUniversalVerifier i...\n      GT \t\t\tcontract PMUniversalVerifier i...\n      PUSH [tag] 31\t\t\tcontract PMUniversalVerifier i...\n      JUMPI \t\t\tcontract PMUniversalVerifier i...\n      DUP1 \t\t\tcontract PMUniversalVerifier i...\n      PUSH CF5219AD\t\t\tcontract PMUniversalVerifier i...\n      GT \t\t\tcontract PMUniversalVerifier i...\n      PUSH [tag] 32\t\t\tcontract PMUniversalVerifier i...\n      JUMPI \t\t\tcontract PMUniversalVerifier i...\n      DUP1 \t\t\tcontract PMUniversalVerifier i...\n      PUSH E985E9C5\t\t\tcontract PMUniversalVerifier i...\n      GT \t\t\tcontract PMUniversalVerifier i...\n      PUSH [tag] 33\t\t\tcontract PMUniversalVerifier i...\n      JUMPI \t\t\tcontract PMUniversalVerifier i...\n      DUP1 \t\t\tcontract PMUniversalVerifier i...\n      PUSH E985E9C5\t\t\tcontract PMUniversalVerifier i...\n      EQ \t\t\tcontract PMUniversalVerifier i...\n      PUSH [tag] 27\t\t\tcontract PMUniversalVerifier i...\n      JUMPI \t\t\tcontract PMUniversalVerifier i...\n      DUP1 \t\t\tcontract PMUniversalVerifier i...\n      PUSH F242432A\t\t\tcontract PMUniversalVerifier i...\n      EQ \t\t\tcontract PMUniversalVerifier i...\n      PUSH [tag] 28\t\t\tcontract PMUniversalVerifier i...\n      JUMPI \t\t\tcontract PMUniversalVerifier i...\n      DUP1 \t\t\tcontract PMUniversalVerifier i...\n      PUSH F2FDE38B\t\t\tcontract PMUniversalVerifier i...\n      EQ \t\t\tcontract PMUniversalVerifier i...\n      PUSH [tag] 29\t\t\tcontract PMUniversalVerifier i...\n      JUMPI \t\t\tcontract PMUniversalVerifier i...\n      DUP1 \t\t\tcontract PMUniversalVerifier i...\n      PUSH F5298ACA\t\t\tcontract PMUniversalVerifier i...\n      EQ \t\t\tcontract PMUniversalVerifier i...\n      PUSH [tag] 30\t\t\tcontract PMUniversalVerifier i...\n      JUMPI \t\t\tcontract PMUniversalVerifier i...\n      PUSH [tag] 2\t\t\tcontract PMUniversalVerifier i...\n      JUMP \t\t\tcontract PMUniversalVerifier i...\n    tag 33\t\t\tcontract PMUniversalVerifier i...\n      JUMPDEST \t\t\tcontract PMUniversalVerifier i...\n      DUP1 \t\t\tcontract PMUniversalVerifier i...\n      PUSH CF5219AD\t\t\tcontract PMUniversalVerifier i...\n      EQ \t\t\tcontract PMUniversalVerifier i...\n      PUSH [tag] 24\t\t\tcontract PMUniversalVerifier i...\n      JUMPI \t\t\tcontract PMUniversalVerifier i...\n      DUP1 \t\t\tcontract PMUniversalVerifier i...\n      PUSH D121CDC0\t\t\tcontract PMUniversalVerifier i...\n      EQ \t\t\tcontract PMUniversalVerifier i...\n      PUSH [tag] 25\t\t\tcontract PMUniversalVerifier i...\n      JUMPI \t\t\tcontract PMUniversalVerifier i...\n      DUP1 \t\t\tcontract PMUniversalVerifier i...\n      PUSH E725F877\t\t\tcontract PMUniversalVerifier i...\n      EQ \t\t\tcontract PMUniversalVerifier i...\n      PUSH [tag] 26\t\t\tcontract PMUniversalVerifier i...\n      JUMPI \t\t\tcontract PMUniversalVerifier i...\n      PUSH [tag] 2\t\t\tcontract PMUniversalVerifier i...\n      JUMP \t\t\tcontract PMUniversalVerifier i...\n    tag 32\t\t\tcontract PMUniversalVerifier i...\n      JUMPDEST \t\t\tcontract PMUniversalVerifier i...\n      DUP1 \t\t\tcontract PMUniversalVerifier i...\n      PUSH 8DA5CB5B\t\t\tcontract PMUniversalVerifier i...\n      GT \t\t\tcontract PMUniversalVerifier i...\n      PUSH [tag] 34\t\t\tcontract PMUniversalVerifier i...\n      JUMPI \t\t\tcontract PMUniversalVerifier i...\n      DUP1 \t\t\tcontract PMUniversalVerifier i...\n      PUSH 8DA5CB5B\t\t\tcontract PMUniversalVerifier i...\n      EQ \t\t\tcontract PMUniversalVerifier i...\n      PUSH [tag] 20\t\t\tcontract PMUniversalVerifier i...\n      JUMPI \t\t\tcontract PMUniversalVerifier i...\n      DUP1 \t\t\tcontract PMUniversalVerifier i...\n      PUSH 8ED46CFD\t\t\tcontract PMUniversalVerifier i...\n      EQ \t\t\tcontract PMUniversalVerifier i...\n      PUSH [tag] 21\t\t\tcontract PMUniversalVerifier i...\n      JUMPI \t\t\tcontract PMUniversalVerifier i...\n      DUP1 \t\t\tcontract PMUniversalVerifier i...\n      PUSH A22CB465\t\t\tcontract PMUniversalVerifier i...\n      EQ \t\t\tcontract PMUniversalVerifier i...\n      PUSH [tag] 22\t\t\tcontract PMUniversalVerifier i...\n      JUMPI \t\t\tcontract PMUniversalVerifier i...\n      DUP1 \t\t\tcontract PMUniversalVerifier i...\n      PUSH C1F95913\t\t\tcontract PMUniversalVerifier i...\n      EQ \t\t\tcontract PMUniversalVerifier i...\n      PUSH [tag] 23\t\t\tcontract PMUniversalVerifier i...\n      JUMPI \t\t\tcontract PMUniversalVerifier i...\n      PUSH [tag] 2\t\t\tcontract PMUniversalVerifier i...\n      JUMP \t\t\tcontract PMUniversalVerifier i...\n    tag 34\t\t\tcontract PMUniversalVerifier i...\n      JUMPDEST \t\t\tcontract PMUniversalVerifier i...\n      DUP1 \t\t\tcontract PMUniversalVerifier i...\n      PUSH 7330DD84\t\t\tcontract PMUniversalVerifier i...\n      EQ \t\t\tcontract PMUniversalVerifier i...\n      PUSH [tag] 17\t\t\tcontract PMUniversalVerifier i...\n      JUMPI \t\t\tcontract PMUniversalVerifier i...\n      DUP1 \t\t\tcontract PMUniversalVerifier i...\n      PUSH 7578B248\t\t\tcontract PMUniversalVerifier i...\n      EQ \t\t\tcontract PMUniversalVerifier i...\n      PUSH [tag] 18\t\t\tcontract PMUniversalVerifier i...\n      JUMPI \t\t\tcontract PMUniversalVerifier i...\n      DUP1 \t\t\tcontract PMUniversalVerifier i...\n      PUSH 784008CE\t\t\tcontract PMUniversalVerifier i...\n      EQ \t\t\tcontract PMUniversalVerifier i...\n      PUSH [tag] 19\t\t\tcontract PMUniversalVerifier i...\n      JUMPI \t\t\tcontract PMUniversalVerifier i...\n      PUSH [tag] 2\t\t\tcontract PMUniversalVerifier i...\n      JUMP \t\t\tcontract PMUniversalVerifier i...\n    tag 31\t\t\tcontract PMUniversalVerifier i...\n      JUMPDEST \t\t\tcontract PMUniversalVerifier i...\n      DUP1 \t\t\tcontract PMUniversalVerifier i...\n      PUSH 2EB2C2D6\t\t\tcontract PMUniversalVerifier i...\n      GT \t\t\tcontract PMUniversalVerifier i...\n      PUSH [tag] 35\t\t\tcontract PMUniversalVerifier i...\n      JUMPI \t\t\tcontract PMUniversalVerifier i...\n      DUP1 \t\t\tcontract PMUniversalVerifier i...\n      PUSH 4E1273F4\t\t\tcontract PMUniversalVerifier i...\n      GT \t\t\tcontract PMUniversalVerifier i...\n      PUSH [tag] 36\t\t\tcontract PMUniversalVerifier i...\n      JUMPI \t\t\tcontract PMUniversalVerifier i...\n      DUP1 \t\t\tcontract PMUniversalVerifier i...\n      PUSH 4E1273F4\t\t\tcontract PMUniversalVerifier i...\n      EQ \t\t\tcontract PMUniversalVerifier i...\n      PUSH [tag] 13\t\t\tcontract PMUniversalVerifier i...\n      JUMPI \t\t\tcontract PMUniversalVerifier i...\n      DUP1 \t\t\tcontract PMUniversalVerifier i...\n      PUSH 50FBDB2D\t\t\tcontract PMUniversalVerifier i...\n      EQ \t\t\tcontract PMUniversalVerifier i...\n      PUSH [tag] 14\t\t\tcontract PMUniversalVerifier i...\n      JUMPI \t\t\tcontract PMUniversalVerifier i...\n      DUP1 \t\t\tcontract PMUniversalVerifier i...\n      PUSH 70480275\t\t\tcontract PMUniversalVerifier i...\n      EQ \t\t\tcontract PMUniversalVerifier i...\n      PUSH [tag] 15\t\t\tcontract PMUniversalVerifier i...\n      JUMPI \t\t\tcontract PMUniversalVerifier i...\n      DUP1 \t\t\tcontract PMUniversalVerifier i...\n      PUSH 715018A6\t\t\tcontract PMUniversalVerifier i...\n      EQ \t\t\tcontract PMUniversalVerifier i...\n      PUSH [tag] 16\t\t\tcontract PMUniversalVerifier i...\n      JUMPI \t\t\tcontract PMUniversalVerifier i...\n      PUSH [tag] 2\t\t\tcontract PMUniversalVerifier i...\n      JUMP \t\t\tcontract PMUniversalVerifier i...\n    tag 36\t\t\tcontract PMUniversalVerifier i...\n      JUMPDEST \t\t\tcontract PMUniversalVerifier i...\n      DUP1 \t\t\tcontract PMUniversalVerifier i...\n      PUSH 2EB2C2D6\t\t\tcontract PMUniversalVerifier i...\n      EQ \t\t\tcontract PMUniversalVerifier i...\n      PUSH [tag] 10\t\t\tcontract PMUniversalVerifier i...\n      JUMPI \t\t\tcontract PMUniversalVerifier i...\n      DUP1 \t\t\tcontract PMUniversalVerifier i...\n      PUSH 2F4955F6\t\t\tcontract PMUniversalVerifier i...\n      EQ \t\t\tcontract PMUniversalVerifier i...\n      PUSH [tag] 11\t\t\tcontract PMUniversalVerifier i...\n      JUMPI \t\t\tcontract PMUniversalVerifier i...\n      DUP1 \t\t\tcontract PMUniversalVerifier i...\n      PUSH 31AE450B\t\t\tcontract PMUniversalVerifier i...\n      EQ \t\t\tcontract PMUniversalVerifier i...\n      PUSH [tag] 12\t\t\tcontract PMUniversalVerifier i...\n      JUMPI \t\t\tcontract PMUniversalVerifier i...\n      PUSH [tag] 2\t\t\tcontract PMUniversalVerifier i...\n      JUMP \t\t\tcontract PMUniversalVerifier i...\n    tag 35\t\t\tcontract PMUniversalVerifier i...\n      JUMPDEST \t\t\tcontract PMUniversalVerifier i...\n      DUP1 \t\t\tcontract PMUniversalVerifier i...\n      PUSH E89341C\t\t\tcontract PMUniversalVerifier i...\n      GT \t\t\tcontract PMUniversalVerifier i...\n      PUSH [tag] 37\t\t\tcontract PMUniversalVerifier i...\n      JUMPI \t\t\tcontract PMUniversalVerifier i...\n      DUP1 \t\t\tcontract PMUniversalVerifier i...\n      PUSH E89341C\t\t\tcontract PMUniversalVerifier i...\n      EQ \t\t\tcontract PMUniversalVerifier i...\n      PUSH [tag] 6\t\t\tcontract PMUniversalVerifier i...\n      JUMPI \t\t\tcontract PMUniversalVerifier i...\n      DUP1 \t\t\tcontract PMUniversalVerifier i...\n      PUSH 1785F53C\t\t\tcontract PMUniversalVerifier i...\n      EQ \t\t\tcontract PMUniversalVerifier i...\n      PUSH [tag] 7\t\t\tcontract PMUniversalVerifier i...\n      JUMPI \t\t\tcontract PMUniversalVerifier i...\n      DUP1 \t\t\tcontract PMUniversalVerifier i...\n      PUSH 2B7AC3F3\t\t\tcontract PMUniversalVerifier i...\n      EQ \t\t\tcontract PMUniversalVerifier i...\n      PUSH [tag] 8\t\t\tcontract PMUniversalVerifier i...\n      JUMPI \t\t\tcontract PMUniversalVerifier i...\n      DUP1 \t\t\tcontract PMUniversalVerifier i...\n      PUSH 2DBFF950\t\t\tcontract PMUniversalVerifier i...\n      EQ \t\t\tcontract PMUniversalVerifier i...\n      PUSH [tag] 9\t\t\tcontract PMUniversalVerifier i...\n      JUMPI \t\t\tcontract PMUniversalVerifier i...\n      PUSH [tag] 2\t\t\tcontract PMUniversalVerifier i...\n      JUMP \t\t\tcontract PMUniversalVerifier i...\n    tag 37\t\t\tcontract PMUniversalVerifier i...\n      JUMPDEST \t\t\tcontract PMUniversalVerifier i...\n      DUP1 \t\t\tcontract PMUniversalVerifier i...\n      PUSH FDD58E\t\t\tcontract PMUniversalVerifier i...\n      EQ \t\t\tcontract PMUniversalVerifier i...\n      PUSH [tag] 3\t\t\tcontract PMUniversalVerifier i...\n      JUMPI \t\t\tcontract PMUniversalVerifier i...\n      DUP1 \t\t\tcontract PMUniversalVerifier i...\n      PUSH 1843A14\t\t\tcontract PMUniversalVerifier i...\n      EQ \t\t\tcontract PMUniversalVerifier i...\n      PUSH [tag] 4\t\t\tcontract PMUniversalVerifier i...\n      JUMPI \t\t\tcontract PMUniversalVerifier i...\n      DUP1 \t\t\tcontract PMUniversalVerifier i...\n      PUSH 1FFC9A7\t\t\tcontract PMUniversalVerifier i...\n      EQ \t\t\tcontract PMUniversalVerifier i...\n      PUSH [tag] 5\t\t\tcontract PMUniversalVerifier i...\n      JUMPI \t\t\tcontract PMUniversalVerifier i...\n    tag 2\t\t\tcontract PMUniversalVerifier i...\n      JUMPDEST \t\t\tcontract PMUniversalVerifier i...\n      PUSH 0\t\t\tcontract PMUniversalVerifier i...\n      DUP1 \t\t\tcontract PMUniversalVerifier i...\n      REVERT \t\t\tcontract PMUniversalVerifier i...\n    tag 3\t\t\tof all token IDs that have eve...\n      JUMPDEST \t\t\tof all token IDs that have eve...\n      PUSH [tag] 38\t\t\tof all token IDs that have eve...\n      PUSH 4\t\t\tof all token IDs that have eve...\n      DUP1 \t\t\tof all token IDs that have eve...\n      CALLDATASIZE \t\t\tof all token IDs that have eve...\n      SUB \t\t\tof all token IDs that have eve...\n      DUP2 \t\t\tof all token IDs that have eve...\n      ADD \t\t\tof all token IDs that have eve...\n      SWAP1 \t\t\tof all token IDs that have eve...\n      PUSH [tag] 39\t\t\tof all token IDs that have eve...\n      SWAP2 \t\t\tof all token IDs that have eve...\n      SWAP1 \t\t\tof all token IDs that have eve...\n      PUSH [tag] 40\t\t\tof all token IDs that have eve...\n      JUMP \t\t\tof all token IDs that have eve...\n    tag 39\t\t\tof all token IDs that have eve...\n      JUMPDEST \t\t\tof all token IDs that have eve...\n      PUSH [tag] 41\t\t\tof all token IDs that have eve...\n      JUMP \t\t\tof all token IDs that have eve...\n    tag 38\t\t\tof all token IDs that have eve...\n      JUMPDEST \t\t\tof all token IDs that have eve...\n      PUSH 40\t\t\tof all token IDs that have eve...\n      MLOAD \t\t\tof all token IDs that have eve...\n      PUSH [tag] 42\t\t\tof all token IDs that have eve...\n      SWAP2 \t\t\tof all token IDs that have eve...\n      SWAP1 \t\t\tof all token IDs that have eve...\n      PUSH [tag] 43\t\t\tof all token IDs that have eve...\n      JUMP \t\t\tof all token IDs that have eve...\n    tag 42\t\t\tof all token IDs that have eve...\n      JUMPDEST \t\t\tof all token IDs that have eve...\n      PUSH 40\t\t\tof all token IDs that have eve...\n      MLOAD \t\t\tof all token IDs that have eve...\n      DUP1 \t\t\tof all token IDs that have eve...\n      SWAP2 \t\t\tof all token IDs that have eve...\n      SUB \t\t\tof all token IDs that have eve...\n      SWAP1 \t\t\tof all token IDs that have eve...\n      RETURN \t\t\tof all token IDs that have eve...\n    tag 4\t\t\ttion getSpendingConditions(uin...\n      JUMPDEST \t\t\ttion getSpendingConditions(uin...\n      PUSH [tag] 44\t\t\ttion getSpendingConditions(uin...\n      PUSH 4\t\t\ttion getSpendingConditions(uin...\n      DUP1 \t\t\ttion getSpendingConditions(uin...\n      CALLDATASIZE \t\t\ttion getSpendingConditions(uin...\n      SUB \t\t\ttion getSpendingConditions(uin...\n      DUP2 \t\t\ttion getSpendingConditions(uin...\n      ADD \t\t\ttion getSpendingConditions(uin...\n      SWAP1 \t\t\ttion getSpendingConditions(uin...\n      PUSH [tag] 45\t\t\ttion getSpendingConditions(uin...\n      SWAP2 \t\t\ttion getSpendingConditions(uin...\n      SWAP1 \t\t\ttion getSpendingConditions(uin...\n      PUSH [tag] 46\t\t\ttion getSpendingConditions(uin...\n      JUMP \t\t\ttion getSpendingConditions(uin...\n    tag 45\t\t\ttion getSpendingConditions(uin...\n      JUMPDEST \t\t\ttion getSpendingConditions(uin...\n      PUSH [tag] 47\t\t\ttion getSpendingConditions(uin...\n      JUMP \t\t\ttion getSpendingConditions(uin...\n    tag 44\t\t\ttion getSpendingConditions(uin...\n      JUMPDEST \t\t\ttion getSpendingConditions(uin...\n      PUSH 40\t\t\ttion getSpendingConditions(uin...\n      MLOAD \t\t\ttion getSpendingConditions(uin...\n      PUSH [tag] 48\t\t\ttion getSpendingConditions(uin...\n      SWAP3 \t\t\ttion getSpendingConditions(uin...\n      SWAP2 \t\t\ttion getSpendingConditions(uin...\n      SWAP1 \t\t\ttion getSpendingConditions(uin...\n      PUSH [tag] 49\t\t\ttion getSpendingConditions(uin...\n      JUMP \t\t\ttion getSpendingConditions(uin...\n    tag 48\t\t\ttion getSpendingConditions(uin...\n      JUMPDEST \t\t\ttion getSpendingConditions(uin...\n      PUSH 40\t\t\ttion getSpendingConditions(uin...\n      MLOAD \t\t\ttion getSpendingConditions(uin...\n      DUP1 \t\t\ttion getSpendingConditions(uin...\n      SWAP2 \t\t\ttion getSpendingConditions(uin...\n      SUB \t\t\ttion getSpendingConditions(uin...\n      SWAP1 \t\t\ttion getSpendingConditions(uin...\n      RETURN \t\t\ttion getSpendingConditions(uin...\n    tag 5\t\t\tpublic onlyOwner {\\r\\n        ...\n      JUMPDEST \t\t\tpublic onlyOwner {\\r\\n        ...\n      PUSH [tag] 50\t\t\tpublic onlyOwner {\\r\\n        ...\n      PUSH 4\t\t\tpublic onlyOwner {\\r\\n        ...\n      DUP1 \t\t\tpublic onlyOwner {\\r\\n        ...\n      CALLDATASIZE \t\t\tpublic onlyOwner {\\r\\n        ...\n      SUB \t\t\tpublic onlyOwner {\\r\\n        ...\n      DUP2 \t\t\tpublic onlyOwner {\\r\\n        ...\n      ADD \t\t\tpublic onlyOwner {\\r\\n        ...\n      SWAP1 \t\t\tpublic onlyOwner {\\r\\n        ...\n      PUSH [tag] 51\t\t\tpublic onlyOwner {\\r\\n        ...\n      SWAP2 \t\t\tpublic onlyOwner {\\r\\n        ...\n      SWAP1 \t\t\tpublic onlyOwner {\\r\\n        ...\n      PUSH [tag] 52\t\t\tpublic onlyOwner {\\r\\n        ...\n      JUMP \t\t\tpublic onlyOwner {\\r\\n        ...\n    tag 51\t\t\tpublic onlyOwner {\\r\\n        ...\n      JUMPDEST \t\t\tpublic onlyOwner {\\r\\n        ...\n      PUSH [tag] 53\t\t\tpublic onlyOwner {\\r\\n        ...\n      JUMP \t\t\tpublic onlyOwner {\\r\\n        ...\n    tag 50\t\t\tpublic onlyOwner {\\r\\n        ...\n      JUMPDEST \t\t\tpublic onlyOwner {\\r\\n        ...\n      PUSH 40\t\t\tpublic onlyOwner {\\r\\n        ...\n      MLOAD \t\t\tpublic onlyOwner {\\r\\n        ...\n      PUSH [tag] 54\t\t\tpublic onlyOwner {\\r\\n        ...\n      SWAP2 \t\t\tpublic onlyOwner {\\r\\n        ...\n      SWAP1 \t\t\tpublic onlyOwner {\\r\\n        ...\n      PUSH [tag] 55\t\t\tpublic onlyOwner {\\r\\n        ...\n      JUMP \t\t\tpublic onlyOwner {\\r\\n        ...\n    tag 54\t\t\tpublic onlyOwner {\\r\\n        ...\n      JUMPDEST \t\t\tpublic onlyOwner {\\r\\n        ...\n      PUSH 40\t\t\tpublic onlyOwner {\\r\\n        ...\n      MLOAD \t\t\tpublic onlyOwner {\\r\\n        ...\n      DUP1 \t\t\tpublic onlyOwner {\\r\\n        ...\n      SWAP2 \t\t\tpublic onlyOwner {\\r\\n        ...\n      SUB \t\t\tpublic onlyOwner {\\r\\n        ...\n      SWAP1 \t\t\tpublic onlyOwner {\\r\\n        ...\n      RETURN \t\t\tpublic onlyOwner {\\r\\n        ...\n    tag 6\t\t\tmin() {\\r\\n        require(_is...\n      JUMPDEST \t\t\tmin() {\\r\\n        require(_is...\n      PUSH [tag] 56\t\t\tmin() {\\r\\n        require(_is...\n      PUSH 4\t\t\tmin() {\\r\\n        require(_is...\n      DUP1 \t\t\tmin() {\\r\\n        require(_is...\n      CALLDATASIZE \t\t\tmin() {\\r\\n        require(_is...\n      SUB \t\t\tmin() {\\r\\n        require(_is...\n      DUP2 \t\t\tmin() {\\r\\n        require(_is...\n      ADD \t\t\tmin() {\\r\\n        require(_is...\n      SWAP1 \t\t\tmin() {\\r\\n        require(_is...\n      PUSH [tag] 57\t\t\tmin() {\\r\\n        require(_is...\n      SWAP2 \t\t\tmin() {\\r\\n        require(_is...\n      SWAP1 \t\t\tmin() {\\r\\n        require(_is...\n      PUSH [tag] 46\t\t\tmin() {\\r\\n        require(_is...\n      JUMP \t\t\tmin() {\\r\\n        require(_is...\n    tag 57\t\t\tmin() {\\r\\n        require(_is...\n      JUMPDEST \t\t\tmin() {\\r\\n        require(_is...\n      PUSH [tag] 58\t\t\tmin() {\\r\\n        require(_is...\n      JUMP \t\t\tmin() {\\r\\n        require(_is...\n    tag 56\t\t\tmin() {\\r\\n        require(_is...\n      JUMPDEST \t\t\tmin() {\\r\\n        require(_is...\n      PUSH 40\t\t\tmin() {\\r\\n        require(_is...\n      MLOAD \t\t\tmin() {\\r\\n        require(_is...\n      PUSH [tag] 59\t\t\tmin() {\\r\\n        require(_is...\n      SWAP2 \t\t\tmin() {\\r\\n        require(_is...\n      SWAP1 \t\t\tmin() {\\r\\n        require(_is...\n      PUSH [tag] 60\t\t\tmin() {\\r\\n        require(_is...\n      JUMP \t\t\tmin() {\\r\\n        require(_is...\n    tag 59\t\t\tmin() {\\r\\n        require(_is...\n      JUMPDEST \t\t\tmin() {\\r\\n        require(_is...\n      PUSH 40\t\t\tmin() {\\r\\n        require(_is...\n      MLOAD \t\t\tmin() {\\r\\n        require(_is...\n      DUP1 \t\t\tmin() {\\r\\n        require(_is...\n      SWAP2 \t\t\tmin() {\\r\\n        require(_is...\n      SUB \t\t\tmin() {\\r\\n        require(_is...\n      SWAP1 \t\t\tmin() {\\r\\n        require(_is...\n      RETURN \t\t\tmin() {\\r\\n        require(_is...\n    tag 7\t\t\tfunction removeAdmin(address _...\n      JUMPDEST \t\t\tfunction removeAdmin(address _...\n      PUSH [tag] 61\t\t\tfunction removeAdmin(address _...\n      PUSH 4\t\t\tfunction removeAdmin(address _...\n      DUP1 \t\t\tfunction removeAdmin(address _...\n      CALLDATASIZE \t\t\tfunction removeAdmin(address _...\n      SUB \t\t\tfunction removeAdmin(address _...\n      DUP2 \t\t\tfunction removeAdmin(address _...\n      ADD \t\t\tfunction removeAdmin(address _...\n      SWAP1 \t\t\tfunction removeAdmin(address _...\n      PUSH [tag] 62\t\t\tfunction removeAdmin(address _...\n      SWAP2 \t\t\tfunction removeAdmin(address _...\n      SWAP1 \t\t\tfunction removeAdmin(address _...\n      PUSH [tag] 63\t\t\tfunction removeAdmin(address _...\n      JUMP \t\t\tfunction removeAdmin(address _...\n    tag 62\t\t\tfunction removeAdmin(address _...\n      JUMPDEST \t\t\tfunction removeAdmin(address _...\n      PUSH [tag] 64\t\t\tfunction removeAdmin(address _...\n      JUMP \t\t\tfunction removeAdmin(address _...\n    tag 61\t\t\tfunction removeAdmin(address _...\n      JUMPDEST \t\t\tfunction removeAdmin(address _...\n      STOP \t\t\tfunction removeAdmin(address _...\n    tag 8\t\t\tersalVerifier public verifier;...\n      JUMPDEST \t\t\tersalVerifier public verifier;...\n      PUSH [tag] 65\t\t\tersalVerifier public verifier;...\n      PUSH [tag] 66\t\t\tersalVerifier public verifier;...\n      JUMP \t\t\tersalVerifier public verifier;...\n    tag 65\t\t\tersalVerifier public verifier;...\n      JUMPDEST \t\t\tersalVerifier public verifier;...\n      PUSH 40\t\t\tersalVerifier public verifier;...\n      MLOAD \t\t\tersalVerifier public verifier;...\n      PUSH [tag] 67\t\t\tersalVerifier public verifier;...\n      SWAP2 \t\t\tersalVerifier public verifier;...\n      SWAP1 \t\t\tersalVerifier public verifier;...\n      PUSH [tag] 68\t\t\tersalVerifier public verifier;...\n      JUMP \t\t\tersalVerifier public verifier;...\n    tag 67\t\t\tersalVerifier public verifier;...\n      JUMPDEST \t\t\tersalVerifier public verifier;...\n      PUSH 40\t\t\tersalVerifier public verifier;...\n      MLOAD \t\t\tersalVerifier public verifier;...\n      DUP1 \t\t\tersalVerifier public verifier;...\n      SWAP2 \t\t\tersalVerifier public verifier;...\n      SUB \t\t\tersalVerifier public verifier;...\n      SWAP1 \t\t\tersalVerifier public verifier;...\n      RETURN \t\t\tersalVerifier public verifier;...\n    tag 9\t\t\ton mintToken(address to, uint2...\n      JUMPDEST \t\t\ton mintToken(address to, uint2...\n      PUSH [tag] 69\t\t\ton mintToken(address to, uint2...\n      PUSH 4\t\t\ton mintToken(address to, uint2...\n      DUP1 \t\t\ton mintToken(address to, uint2...\n      CALLDATASIZE \t\t\ton mintToken(address to, uint2...\n      SUB \t\t\ton mintToken(address to, uint2...\n      DUP2 \t\t\ton mintToken(address to, uint2...\n      ADD \t\t\ton mintToken(address to, uint2...\n      SWAP1 \t\t\ton mintToken(address to, uint2...\n      PUSH [tag] 70\t\t\ton mintToken(address to, uint2...\n      SWAP2 \t\t\ton mintToken(address to, uint2...\n      SWAP1 \t\t\ton mintToken(address to, uint2...\n      PUSH [tag] 71\t\t\ton mintToken(address to, uint2...\n      JUMP \t\t\ton mintToken(address to, uint2...\n    tag 70\t\t\ton mintToken(address to, uint2...\n      JUMPDEST \t\t\ton mintToken(address to, uint2...\n      PUSH [tag] 72\t\t\ton mintToken(address to, uint2...\n      JUMP \t\t\ton mintToken(address to, uint2...\n    tag 69\t\t\ton mintToken(address to, uint2...\n      JUMPDEST \t\t\ton mintToken(address to, uint2...\n      STOP \t\t\ton mintToken(address to, uint2...\n    tag 10\t\t\t safeBatchTransferFrom(\\r\\n   ...\n      JUMPDEST \t\t\t safeBatchTransferFrom(\\r\\n   ...\n      PUSH [tag] 73\t\t\t safeBatchTransferFrom(\\r\\n   ...\n      PUSH 4\t\t\t safeBatchTransferFrom(\\r\\n   ...\n      DUP1 \t\t\t safeBatchTransferFrom(\\r\\n   ...\n      CALLDATASIZE \t\t\t safeBatchTransferFrom(\\r\\n   ...\n      SUB \t\t\t safeBatchTransferFrom(\\r\\n   ...\n      DUP2 \t\t\t safeBatchTransferFrom(\\r\\n   ...\n      ADD \t\t\t safeBatchTransferFrom(\\r\\n   ...\n      SWAP1 \t\t\t safeBatchTransferFrom(\\r\\n   ...\n      PUSH [tag] 74\t\t\t safeBatchTransferFrom(\\r\\n   ...\n      SWAP2 \t\t\t safeBatchTransferFrom(\\r\\n   ...\n      SWAP1 \t\t\t safeBatchTransferFrom(\\r\\n   ...\n      PUSH [tag] 75\t\t\t safeBatchTransferFrom(\\r\\n   ...\n      JUMP \t\t\t safeBatchTransferFrom(\\r\\n   ...\n    tag 74\t\t\t safeBatchTransferFrom(\\r\\n   ...\n      JUMPDEST \t\t\t safeBatchTransferFrom(\\r\\n   ...\n      PUSH [tag] 76\t\t\t safeBatchTransferFrom(\\r\\n   ...\n      JUMP \t\t\t safeBatchTransferFrom(\\r\\n   ...\n    tag 73\t\t\t safeBatchTransferFrom(\\r\\n   ...\n      JUMPDEST \t\t\t safeBatchTransferFrom(\\r\\n   ...\n      STOP \t\t\t safeBatchTransferFrom(\\r\\n   ...\n    tag 11\t\t\ting(uint256 => mapping(uint64 ...\n      JUMPDEST \t\t\ting(uint256 => mapping(uint64 ...\n      PUSH [tag] 77\t\t\ting(uint256 => mapping(uint64 ...\n      PUSH 4\t\t\ting(uint256 => mapping(uint64 ...\n      DUP1 \t\t\ting(uint256 => mapping(uint64 ...\n      CALLDATASIZE \t\t\ting(uint256 => mapping(uint64 ...\n      SUB \t\t\ting(uint256 => mapping(uint64 ...\n      DUP2 \t\t\ting(uint256 => mapping(uint64 ...\n      ADD \t\t\ting(uint256 => mapping(uint64 ...\n      SWAP1 \t\t\ting(uint256 => mapping(uint64 ...\n      PUSH [tag] 78\t\t\ting(uint256 => mapping(uint64 ...\n      SWAP2 \t\t\ting(uint256 => mapping(uint64 ...\n      SWAP1 \t\t\ting(uint256 => mapping(uint64 ...\n      PUSH [tag] 79\t\t\ting(uint256 => mapping(uint64 ...\n      JUMP \t\t\ting(uint256 => mapping(uint64 ...\n    tag 78\t\t\ting(uint256 => mapping(uint64 ...\n      JUMPDEST \t\t\ting(uint256 => mapping(uint64 ...\n      PUSH [tag] 80\t\t\ting(uint256 => mapping(uint64 ...\n      JUMP \t\t\ting(uint256 => mapping(uint64 ...\n    tag 77\t\t\ting(uint256 => mapping(uint64 ...\n      JUMPDEST \t\t\ting(uint256 => mapping(uint64 ...\n      PUSH 40\t\t\ting(uint256 => mapping(uint64 ...\n      MLOAD \t\t\ting(uint256 => mapping(uint64 ...\n      PUSH [tag] 81\t\t\ting(uint256 => mapping(uint64 ...\n      SWAP2 \t\t\ting(uint256 => mapping(uint64 ...\n      SWAP1 \t\t\ting(uint256 => mapping(uint64 ...\n      PUSH [tag] 60\t\t\ting(uint256 => mapping(uint64 ...\n      JUMP \t\t\ting(uint256 => mapping(uint64 ...\n    tag 81\t\t\ting(uint256 => mapping(uint64 ...\n      JUMPDEST \t\t\ting(uint256 => mapping(uint64 ...\n      PUSH 40\t\t\ting(uint256 => mapping(uint64 ...\n      MLOAD \t\t\ting(uint256 => mapping(uint64 ...\n      DUP1 \t\t\ting(uint256 => mapping(uint64 ...\n      SWAP2 \t\t\ting(uint256 => mapping(uint64 ...\n      SUB \t\t\ting(uint256 => mapping(uint64 ...\n      SWAP1 \t\t\ting(uint256 => mapping(uint64 ...\n      RETURN \t\t\ting(uint256 => mapping(uint64 ...\n    tag 12\t\t\tfunction getAdmins() public vi...\n      JUMPDEST \t\t\tfunction getAdmins() public vi...\n      PUSH [tag] 82\t\t\tfunction getAdmins() public vi...\n      PUSH [tag] 83\t\t\tfunction getAdmins() public vi...\n      JUMP \t\t\tfunction getAdmins() public vi...\n    tag 82\t\t\tfunction getAdmins() public vi...\n      JUMPDEST \t\t\tfunction getAdmins() public vi...\n      PUSH 40\t\t\tfunction getAdmins() public vi...\n      MLOAD \t\t\tfunction getAdmins() public vi...\n      PUSH [tag] 84\t\t\tfunction getAdmins() public vi...\n      SWAP2 \t\t\tfunction getAdmins() public vi...\n      SWAP1 \t\t\tfunction getAdmins() public vi...\n      PUSH [tag] 85\t\t\tfunction getAdmins() public vi...\n      JUMP \t\t\tfunction getAdmins() public vi...\n    tag 84\t\t\tfunction getAdmins() public vi...\n      JUMPDEST \t\t\tfunction getAdmins() public vi...\n      PUSH 40\t\t\tfunction getAdmins() public vi...\n      MLOAD \t\t\tfunction getAdmins() public vi...\n      DUP1 \t\t\tfunction getAdmins() public vi...\n      SWAP2 \t\t\tfunction getAdmins() public vi...\n      SUB \t\t\tfunction getAdmins() public vi...\n      SWAP1 \t\t\tfunction getAdmins() public vi...\n      RETURN \t\t\tfunction getAdmins() public vi...\n    tag 13\t\t\tping from token ID to its name...\n      JUMPDEST \t\t\tping from token ID to its name...\n      PUSH [tag] 86\t\t\tping from token ID to its name...\n      PUSH 4\t\t\tping from token ID to its name...\n      DUP1 \t\t\tping from token ID to its name...\n      CALLDATASIZE \t\t\tping from token ID to its name...\n      SUB \t\t\tping from token ID to its name...\n      DUP2 \t\t\tping from token ID to its name...\n      ADD \t\t\tping from token ID to its name...\n      SWAP1 \t\t\tping from token ID to its name...\n      PUSH [tag] 87\t\t\tping from token ID to its name...\n      SWAP2 \t\t\tping from token ID to its name...\n      SWAP1 \t\t\tping from token ID to its name...\n      PUSH [tag] 88\t\t\tping from token ID to its name...\n      JUMP \t\t\tping from token ID to its name...\n    tag 87\t\t\tping from token ID to its name...\n      JUMPDEST \t\t\tping from token ID to its name...\n      PUSH [tag] 89\t\t\tping from token ID to its name...\n      JUMP \t\t\tping from token ID to its name...\n    tag 86\t\t\tping from token ID to its name...\n      JUMPDEST \t\t\tping from token ID to its name...\n      PUSH 40\t\t\tping from token ID to its name...\n      MLOAD \t\t\tping from token ID to its name...\n      PUSH [tag] 90\t\t\tping from token ID to its name...\n      SWAP2 \t\t\tping from token ID to its name...\n      SWAP1 \t\t\tping from token ID to its name...\n      PUSH [tag] 91\t\t\tping from token ID to its name...\n      JUMP \t\t\tping from token ID to its name...\n    tag 90\t\t\tping from token ID to its name...\n      JUMPDEST \t\t\tping from token ID to its name...\n      PUSH 40\t\t\tping from token ID to its name...\n      MLOAD \t\t\tping from token ID to its name...\n      DUP1 \t\t\tping from token ID to its name...\n      SWAP2 \t\t\tping from token ID to its name...\n      SUB \t\t\tping from token ID to its name...\n      SWAP1 \t\t\tping from token ID to its name...\n      RETURN \t\t\tping from token ID to its name...\n    tag 14\t\t\ttion deleteProofRequestAndRole...\n      JUMPDEST \t\t\ttion deleteProofRequestAndRole...\n      PUSH [tag] 92\t\t\ttion deleteProofRequestAndRole...\n      PUSH 4\t\t\ttion deleteProofRequestAndRole...\n      DUP1 \t\t\ttion deleteProofRequestAndRole...\n      CALLDATASIZE \t\t\ttion deleteProofRequestAndRole...\n      SUB \t\t\ttion deleteProofRequestAndRole...\n      DUP2 \t\t\ttion deleteProofRequestAndRole...\n      ADD \t\t\ttion deleteProofRequestAndRole...\n      SWAP1 \t\t\ttion deleteProofRequestAndRole...\n      PUSH [tag] 93\t\t\ttion deleteProofRequestAndRole...\n      SWAP2 \t\t\ttion deleteProofRequestAndRole...\n      SWAP1 \t\t\ttion deleteProofRequestAndRole...\n      PUSH [tag] 79\t\t\ttion deleteProofRequestAndRole...\n      JUMP \t\t\ttion deleteProofRequestAndRole...\n    tag 93\t\t\ttion deleteProofRequestAndRole...\n      JUMPDEST \t\t\ttion deleteProofRequestAndRole...\n      PUSH [tag] 94\t\t\ttion deleteProofRequestAndRole...\n      JUMP \t\t\ttion deleteProofRequestAndRole...\n    tag 92\t\t\ttion deleteProofRequestAndRole...\n      JUMPDEST \t\t\ttion deleteProofRequestAndRole...\n      STOP \t\t\ttion deleteProofRequestAndRole...\n    tag 15\t\t\tfunction addAdmin(address _adm...\n      JUMPDEST \t\t\tfunction addAdmin(address _adm...\n      PUSH [tag] 95\t\t\tfunction addAdmin(address _adm...\n      PUSH 4\t\t\tfunction addAdmin(address _adm...\n      DUP1 \t\t\tfunction addAdmin(address _adm...\n      CALLDATASIZE \t\t\tfunction addAdmin(address _adm...\n      SUB \t\t\tfunction addAdmin(address _adm...\n      DUP2 \t\t\tfunction addAdmin(address _adm...\n      ADD \t\t\tfunction addAdmin(address _adm...\n      SWAP1 \t\t\tfunction addAdmin(address _adm...\n      PUSH [tag] 96\t\t\tfunction addAdmin(address _adm...\n      SWAP2 \t\t\tfunction addAdmin(address _adm...\n      SWAP1 \t\t\tfunction addAdmin(address _adm...\n      PUSH [tag] 63\t\t\tfunction addAdmin(address _adm...\n      JUMP \t\t\tfunction addAdmin(address _adm...\n    tag 96\t\t\tfunction addAdmin(address _adm...\n      JUMPDEST \t\t\tfunction addAdmin(address _adm...\n      PUSH [tag] 97\t\t\tfunction addAdmin(address _adm...\n      JUMP \t\t\tfunction addAdmin(address _adm...\n    tag 95\t\t\tfunction addAdmin(address _adm...\n      JUMPDEST \t\t\tfunction addAdmin(address _adm...\n      STOP \t\t\tfunction addAdmin(address _adm...\n    tag 16\t\t\t EnumerableSet.UintSet private...\n      JUMPDEST \t\t\t EnumerableSet.UintSet private...\n      PUSH [tag] 98\t\t\t EnumerableSet.UintSet private...\n      PUSH [tag] 99\t\t\t EnumerableSet.UintSet private...\n      JUMP \t\t\t EnumerableSet.UintSet private...\n    tag 98\t\t\t EnumerableSet.UintSet private...\n      JUMPDEST \t\t\t EnumerableSet.UintSet private...\n      STOP \t\t\t EnumerableSet.UintSet private...\n    tag 17\t\t\ttion addProofRequest_VerifierA...\n      JUMPDEST \t\t\ttion addProofRequest_VerifierA...\n      PUSH [tag] 100\t\t\ttion addProofRequest_VerifierA...\n      PUSH 4\t\t\ttion addProofRequest_VerifierA...\n      DUP1 \t\t\ttion addProofRequest_VerifierA...\n      CALLDATASIZE \t\t\ttion addProofRequest_VerifierA...\n      SUB \t\t\ttion addProofRequest_VerifierA...\n      DUP2 \t\t\ttion addProofRequest_VerifierA...\n      ADD \t\t\ttion addProofRequest_VerifierA...\n      SWAP1 \t\t\ttion addProofRequest_VerifierA...\n      PUSH [tag] 101\t\t\ttion addProofRequest_VerifierA...\n      SWAP2 \t\t\ttion addProofRequest_VerifierA...\n      SWAP1 \t\t\ttion addProofRequest_VerifierA...\n      PUSH [tag] 102\t\t\ttion addProofRequest_VerifierA...\n      JUMP \t\t\ttion addProofRequest_VerifierA...\n    tag 101\t\t\ttion addProofRequest_VerifierA...\n      JUMPDEST \t\t\ttion addProofRequest_VerifierA...\n      PUSH [tag] 103\t\t\ttion addProofRequest_VerifierA...\n      JUMP \t\t\ttion addProofRequest_VerifierA...\n    tag 100\t\t\ttion addProofRequest_VerifierA...\n      JUMPDEST \t\t\ttion addProofRequest_VerifierA...\n      STOP \t\t\ttion addProofRequest_VerifierA...\n    tag 18\t\t\tfunction allTokenIDs() externa...\n      JUMPDEST \t\t\tfunction allTokenIDs() externa...\n      PUSH [tag] 104\t\t\tfunction allTokenIDs() externa...\n      PUSH [tag] 105\t\t\tfunction allTokenIDs() externa...\n      JUMP \t\t\tfunction allTokenIDs() externa...\n    tag 104\t\t\tfunction allTokenIDs() externa...\n      JUMPDEST \t\t\tfunction allTokenIDs() externa...\n      PUSH 40\t\t\tfunction allTokenIDs() externa...\n      MLOAD \t\t\tfunction allTokenIDs() externa...\n      PUSH [tag] 106\t\t\tfunction allTokenIDs() externa...\n      SWAP2 \t\t\tfunction allTokenIDs() externa...\n      SWAP1 \t\t\tfunction allTokenIDs() externa...\n      PUSH [tag] 91\t\t\tfunction allTokenIDs() externa...\n      JUMP \t\t\tfunction allTokenIDs() externa...\n    tag 106\t\t\tfunction allTokenIDs() externa...\n      JUMPDEST \t\t\tfunction allTokenIDs() externa...\n      PUSH 40\t\t\tfunction allTokenIDs() externa...\n      MLOAD \t\t\tfunction allTokenIDs() externa...\n      DUP1 \t\t\tfunction allTokenIDs() externa...\n      SWAP2 \t\t\tfunction allTokenIDs() externa...\n      SUB \t\t\tfunction allTokenIDs() externa...\n      SWAP1 \t\t\tfunction allTokenIDs() externa...\n      RETURN \t\t\tfunction allTokenIDs() externa...\n    tag 19\t\t\t256 public constant fungible_t...\n      JUMPDEST \t\t\t256 public constant fungible_t...\n      PUSH [tag] 107\t\t\t256 public constant fungible_t...\n      PUSH [tag] 108\t\t\t256 public constant fungible_t...\n      JUMP \t\t\t256 public constant fungible_t...\n    tag 107\t\t\t256 public constant fungible_t...\n      JUMPDEST \t\t\t256 public constant fungible_t...\n      PUSH 40\t\t\t256 public constant fungible_t...\n      MLOAD \t\t\t256 public constant fungible_t...\n      PUSH [tag] 109\t\t\t256 public constant fungible_t...\n      SWAP2 \t\t\t256 public constant fungible_t...\n      SWAP1 \t\t\t256 public constant fungible_t...\n      PUSH [tag] 43\t\t\t256 public constant fungible_t...\n      JUMP \t\t\t256 public constant fungible_t...\n    tag 109\t\t\t256 public constant fungible_t...\n      JUMPDEST \t\t\t256 public constant fungible_t...\n      PUSH 40\t\t\t256 public constant fungible_t...\n      MLOAD \t\t\t256 public constant fungible_t...\n      DUP1 \t\t\t256 public constant fungible_t...\n      SWAP2 \t\t\t256 public constant fungible_t...\n      SUB \t\t\t256 public constant fungible_t...\n      SWAP1 \t\t\t256 public constant fungible_t...\n      RETURN \t\t\t256 public constant fungible_t...\n    tag 20\t\t\t  function removeAdmin(address...\n      JUMPDEST \t\t\t  function removeAdmin(address...\n      PUSH [tag] 110\t\t\t  function removeAdmin(address...\n      PUSH [tag] 111\t\t\t  function removeAdmin(address...\n      JUMP \t\t\t  function removeAdmin(address...\n    tag 110\t\t\t  function removeAdmin(address...\n      JUMPDEST \t\t\t  function removeAdmin(address...\n      PUSH 40\t\t\t  function removeAdmin(address...\n      MLOAD \t\t\t  function removeAdmin(address...\n      PUSH [tag] 112\t\t\t  function removeAdmin(address...\n      SWAP2 \t\t\t  function removeAdmin(address...\n      SWAP1 \t\t\t  function removeAdmin(address...\n      PUSH [tag] 113\t\t\t  function removeAdmin(address...\n      JUMP \t\t\t  function removeAdmin(address...\n    tag 112\t\t\t  function removeAdmin(address...\n      JUMPDEST \t\t\t  function removeAdmin(address...\n      PUSH 40\t\t\t  function removeAdmin(address...\n      MLOAD \t\t\t  function removeAdmin(address...\n      DUP1 \t\t\t  function removeAdmin(address...\n      SWAP2 \t\t\t  function removeAdmin(address...\n      SUB \t\t\t  function removeAdmin(address...\n      SWAP1 \t\t\t  function removeAdmin(address...\n      RETURN \t\t\t  function removeAdmin(address...\n    tag 21\t\t\ting(uint256 => mapping(uint64 ...\n      JUMPDEST \t\t\ting(uint256 => mapping(uint64 ...\n      PUSH [tag] 114\t\t\ting(uint256 => mapping(uint64 ...\n      PUSH 4\t\t\ting(uint256 => mapping(uint64 ...\n      DUP1 \t\t\ting(uint256 => mapping(uint64 ...\n      CALLDATASIZE \t\t\ting(uint256 => mapping(uint64 ...\n      SUB \t\t\ting(uint256 => mapping(uint64 ...\n      DUP2 \t\t\ting(uint256 => mapping(uint64 ...\n      ADD \t\t\ting(uint256 => mapping(uint64 ...\n      SWAP1 \t\t\ting(uint256 => mapping(uint64 ...\n      PUSH [tag] 115\t\t\ting(uint256 => mapping(uint64 ...\n      SWAP2 \t\t\ting(uint256 => mapping(uint64 ...\n      SWAP1 \t\t\ting(uint256 => mapping(uint64 ...\n      PUSH [tag] 79\t\t\ting(uint256 => mapping(uint64 ...\n      JUMP \t\t\ting(uint256 => mapping(uint64 ...\n    tag 115\t\t\ting(uint256 => mapping(uint64 ...\n      JUMPDEST \t\t\ting(uint256 => mapping(uint64 ...\n      PUSH [tag] 116\t\t\ting(uint256 => mapping(uint64 ...\n      JUMP \t\t\ting(uint256 => mapping(uint64 ...\n    tag 114\t\t\ting(uint256 => mapping(uint64 ...\n      JUMPDEST \t\t\ting(uint256 => mapping(uint64 ...\n      PUSH 40\t\t\ting(uint256 => mapping(uint64 ...\n      MLOAD \t\t\ting(uint256 => mapping(uint64 ...\n      PUSH [tag] 117\t\t\ting(uint256 => mapping(uint64 ...\n      SWAP4 \t\t\ting(uint256 => mapping(uint64 ...\n      SWAP3 \t\t\ting(uint256 => mapping(uint64 ...\n      SWAP2 \t\t\ting(uint256 => mapping(uint64 ...\n      SWAP1 \t\t\ting(uint256 => mapping(uint64 ...\n      PUSH [tag] 118\t\t\ting(uint256 => mapping(uint64 ...\n      JUMP \t\t\ting(uint256 => mapping(uint64 ...\n    tag 117\t\t\ting(uint256 => mapping(uint64 ...\n      JUMPDEST \t\t\ting(uint256 => mapping(uint64 ...\n      PUSH 40\t\t\ting(uint256 => mapping(uint64 ...\n      MLOAD \t\t\ting(uint256 => mapping(uint64 ...\n      DUP1 \t\t\ting(uint256 => mapping(uint64 ...\n      SWAP2 \t\t\ting(uint256 => mapping(uint64 ...\n      SUB \t\t\ting(uint256 => mapping(uint64 ...\n      SWAP1 \t\t\ting(uint256 => mapping(uint64 ...\n      RETURN \t\t\ting(uint256 => mapping(uint64 ...\n    tag 22\t\t\ting condition\\r\\n    // tokenI...\n      JUMPDEST \t\t\ting condition\\r\\n    // tokenI...\n      PUSH [tag] 119\t\t\ting condition\\r\\n    // tokenI...\n      PUSH 4\t\t\ting condition\\r\\n    // tokenI...\n      DUP1 \t\t\ting condition\\r\\n    // tokenI...\n      CALLDATASIZE \t\t\ting condition\\r\\n    // tokenI...\n      SUB \t\t\ting condition\\r\\n    // tokenI...\n      DUP2 \t\t\ting condition\\r\\n    // tokenI...\n      ADD \t\t\ting condition\\r\\n    // tokenI...\n      SWAP1 \t\t\ting condition\\r\\n    // tokenI...\n      PUSH [tag] 120\t\t\ting condition\\r\\n    // tokenI...\n      SWAP2 \t\t\ting condition\\r\\n    // tokenI...\n      SWAP1 \t\t\ting condition\\r\\n    // tokenI...\n      PUSH [tag] 121\t\t\ting condition\\r\\n    // tokenI...\n      JUMP \t\t\ting condition\\r\\n    // tokenI...\n    tag 120\t\t\ting condition\\r\\n    // tokenI...\n      JUMPDEST \t\t\ting condition\\r\\n    // tokenI...\n      PUSH [tag] 122\t\t\ting condition\\r\\n    // tokenI...\n      JUMP \t\t\ting condition\\r\\n    // tokenI...\n    tag 119\t\t\ting condition\\r\\n    // tokenI...\n      JUMPDEST \t\t\ting condition\\r\\n    // tokenI...\n      STOP \t\t\ting condition\\r\\n    // tokenI...\n    tag 23\t\t\ttion addProofRequestAndRole(ui...\n      JUMPDEST \t\t\ttion addProofRequestAndRole(ui...\n      PUSH [tag] 123\t\t\ttion addProofRequestAndRole(ui...\n      PUSH 4\t\t\ttion addProofRequestAndRole(ui...\n      DUP1 \t\t\ttion addProofRequestAndRole(ui...\n      CALLDATASIZE \t\t\ttion addProofRequestAndRole(ui...\n      SUB \t\t\ttion addProofRequestAndRole(ui...\n      DUP2 \t\t\ttion addProofRequestAndRole(ui...\n      ADD \t\t\ttion addProofRequestAndRole(ui...\n      SWAP1 \t\t\ttion addProofRequestAndRole(ui...\n      PUSH [tag] 124\t\t\ttion addProofRequestAndRole(ui...\n      SWAP2 \t\t\ttion addProofRequestAndRole(ui...\n      SWAP1 \t\t\ttion addProofRequestAndRole(ui...\n      PUSH [tag] 125\t\t\ttion addProofRequestAndRole(ui...\n      JUMP \t\t\ttion addProofRequestAndRole(ui...\n    tag 124\t\t\ttion addProofRequestAndRole(ui...\n      JUMPDEST \t\t\ttion addProofRequestAndRole(ui...\n      PUSH [tag] 126\t\t\ttion addProofRequestAndRole(ui...\n      JUMP \t\t\ttion addProofRequestAndRole(ui...\n    tag 123\t\t\ttion addProofRequestAndRole(ui...\n      JUMPDEST \t\t\ttion addProofRequestAndRole(ui...\n      STOP \t\t\ttion addProofRequestAndRole(ui...\n    tag 24\t\t\t256 public constant non_fungib...\n      JUMPDEST \t\t\t256 public constant non_fungib...\n      PUSH [tag] 127\t\t\t256 public constant non_fungib...\n      PUSH [tag] 128\t\t\t256 public constant non_fungib...\n      JUMP \t\t\t256 public constant non_fungib...\n    tag 127\t\t\t256 public constant non_fungib...\n      JUMPDEST \t\t\t256 public constant non_fungib...\n      PUSH 40\t\t\t256 public constant non_fungib...\n      MLOAD \t\t\t256 public constant non_fungib...\n      PUSH [tag] 129\t\t\t256 public constant non_fungib...\n      SWAP2 \t\t\t256 public constant non_fungib...\n      SWAP1 \t\t\t256 public constant non_fungib...\n      PUSH [tag] 43\t\t\t256 public constant non_fungib...\n      JUMP \t\t\t256 public constant non_fungib...\n    tag 129\t\t\t256 public constant non_fungib...\n      JUMPDEST \t\t\t256 public constant non_fungib...\n      PUSH 40\t\t\t256 public constant non_fungib...\n      MLOAD \t\t\t256 public constant non_fungib...\n      DUP1 \t\t\t256 public constant non_fungib...\n      SWAP2 \t\t\t256 public constant non_fungib...\n      SUB \t\t\t256 public constant non_fungib...\n      SWAP1 \t\t\t256 public constant non_fungib...\n      RETURN \t\t\t256 public constant non_fungib...\n    tag 25\t\t\t64[] public proofRequestIDs;\\r...\n      JUMPDEST \t\t\t64[] public proofRequestIDs;\\r...\n      PUSH [tag] 130\t\t\t64[] public proofRequestIDs;\\r...\n      PUSH 4\t\t\t64[] public proofRequestIDs;\\r...\n      DUP1 \t\t\t64[] public proofRequestIDs;\\r...\n      CALLDATASIZE \t\t\t64[] public proofRequestIDs;\\r...\n      SUB \t\t\t64[] public proofRequestIDs;\\r...\n      DUP2 \t\t\t64[] public proofRequestIDs;\\r...\n      ADD \t\t\t64[] public proofRequestIDs;\\r...\n      SWAP1 \t\t\t64[] public proofRequestIDs;\\r...\n      PUSH [tag] 131\t\t\t64[] public proofRequestIDs;\\r...\n      SWAP2 \t\t\t64[] public proofRequestIDs;\\r...\n      SWAP1 \t\t\t64[] public proofRequestIDs;\\r...\n      PUSH [tag] 46\t\t\t64[] public proofRequestIDs;\\r...\n      JUMP \t\t\t64[] public proofRequestIDs;\\r...\n    tag 131\t\t\t64[] public proofRequestIDs;\\r...\n      JUMPDEST \t\t\t64[] public proofRequestIDs;\\r...\n      PUSH [tag] 132\t\t\t64[] public proofRequestIDs;\\r...\n      JUMP \t\t\t64[] public proofRequestIDs;\\r...\n    tag 130\t\t\t64[] public proofRequestIDs;\\r...\n      JUMPDEST \t\t\t64[] public proofRequestIDs;\\r...\n      PUSH 40\t\t\t64[] public proofRequestIDs;\\r...\n      MLOAD \t\t\t64[] public proofRequestIDs;\\r...\n      PUSH [tag] 133\t\t\t64[] public proofRequestIDs;\\r...\n      SWAP2 \t\t\t64[] public proofRequestIDs;\\r...\n      SWAP1 \t\t\t64[] public proofRequestIDs;\\r...\n      PUSH [tag] 134\t\t\t64[] public proofRequestIDs;\\r...\n      JUMP \t\t\t64[] public proofRequestIDs;\\r...\n    tag 133\t\t\t64[] public proofRequestIDs;\\r...\n      JUMPDEST \t\t\t64[] public proofRequestIDs;\\r...\n      PUSH 40\t\t\t64[] public proofRequestIDs;\\r...\n      MLOAD \t\t\t64[] public proofRequestIDs;\\r...\n      DUP1 \t\t\t64[] public proofRequestIDs;\\r...\n      SWAP2 \t\t\t64[] public proofRequestIDs;\\r...\n      SUB \t\t\t64[] public proofRequestIDs;\\r...\n      SWAP1 \t\t\t64[] public proofRequestIDs;\\r...\n      RETURN \t\t\t64[] public proofRequestIDs;\\r...\n    tag 26\t\t\tmapping(uint256 => string) pub...\n      JUMPDEST \t\t\tmapping(uint256 => string) pub...\n      PUSH [tag] 135\t\t\tmapping(uint256 => string) pub...\n      PUSH 4\t\t\tmapping(uint256 => string) pub...\n      DUP1 \t\t\tmapping(uint256 => string) pub...\n      CALLDATASIZE \t\t\tmapping(uint256 => string) pub...\n      SUB \t\t\tmapping(uint256 => string) pub...\n      DUP2 \t\t\tmapping(uint256 => string) pub...\n      ADD \t\t\tmapping(uint256 => string) pub...\n      SWAP1 \t\t\tmapping(uint256 => string) pub...\n      PUSH [tag] 136\t\t\tmapping(uint256 => string) pub...\n      SWAP2 \t\t\tmapping(uint256 => string) pub...\n      SWAP1 \t\t\tmapping(uint256 => string) pub...\n      PUSH [tag] 46\t\t\tmapping(uint256 => string) pub...\n      JUMP \t\t\tmapping(uint256 => string) pub...\n    tag 136\t\t\tmapping(uint256 => string) pub...\n      JUMPDEST \t\t\tmapping(uint256 => string) pub...\n      PUSH [tag] 137\t\t\tmapping(uint256 => string) pub...\n      JUMP \t\t\tmapping(uint256 => string) pub...\n    tag 135\t\t\tmapping(uint256 => string) pub...\n      JUMPDEST \t\t\tmapping(uint256 => string) pub...\n      PUSH 40\t\t\tmapping(uint256 => string) pub...\n      MLOAD \t\t\tmapping(uint256 => string) pub...\n      PUSH [tag] 138\t\t\tmapping(uint256 => string) pub...\n      SWAP2 \t\t\tmapping(uint256 => string) pub...\n      SWAP1 \t\t\tmapping(uint256 => string) pub...\n      PUSH [tag] 60\t\t\tmapping(uint256 => string) pub...\n      JUMP \t\t\tmapping(uint256 => string) pub...\n    tag 138\t\t\tmapping(uint256 => string) pub...\n      JUMPDEST \t\t\tmapping(uint256 => string) pub...\n      PUSH 40\t\t\tmapping(uint256 => string) pub...\n      MLOAD \t\t\tmapping(uint256 => string) pub...\n      DUP1 \t\t\tmapping(uint256 => string) pub...\n      SWAP2 \t\t\tmapping(uint256 => string) pub...\n      SUB \t\t\tmapping(uint256 => string) pub...\n      SWAP1 \t\t\tmapping(uint256 => string) pub...\n      RETURN \t\t\tmapping(uint256 => string) pub...\n    tag 27\t\t\tfor iteration.\\r\\n    uint64[]...\n      JUMPDEST \t\t\tfor iteration.\\r\\n    uint64[]...\n      PUSH [tag] 139\t\t\tfor iteration.\\r\\n    uint64[]...\n      PUSH 4\t\t\tfor iteration.\\r\\n    uint64[]...\n      DUP1 \t\t\tfor iteration.\\r\\n    uint64[]...\n      CALLDATASIZE \t\t\tfor iteration.\\r\\n    uint64[]...\n      SUB \t\t\tfor iteration.\\r\\n    uint64[]...\n      DUP2 \t\t\tfor iteration.\\r\\n    uint64[]...\n      ADD \t\t\tfor iteration.\\r\\n    uint64[]...\n      SWAP1 \t\t\tfor iteration.\\r\\n    uint64[]...\n      PUSH [tag] 140\t\t\tfor iteration.\\r\\n    uint64[]...\n      SWAP2 \t\t\tfor iteration.\\r\\n    uint64[]...\n      SWAP1 \t\t\tfor iteration.\\r\\n    uint64[]...\n      PUSH [tag] 141\t\t\tfor iteration.\\r\\n    uint64[]...\n      JUMP \t\t\tfor iteration.\\r\\n    uint64[]...\n    tag 140\t\t\tfor iteration.\\r\\n    uint64[]...\n      JUMPDEST \t\t\tfor iteration.\\r\\n    uint64[]...\n      PUSH [tag] 142\t\t\tfor iteration.\\r\\n    uint64[]...\n      JUMP \t\t\tfor iteration.\\r\\n    uint64[]...\n    tag 139\t\t\tfor iteration.\\r\\n    uint64[]...\n      JUMPDEST \t\t\tfor iteration.\\r\\n    uint64[]...\n      PUSH 40\t\t\tfor iteration.\\r\\n    uint64[]...\n      MLOAD \t\t\tfor iteration.\\r\\n    uint64[]...\n      PUSH [tag] 143\t\t\tfor iteration.\\r\\n    uint64[]...\n      SWAP2 \t\t\tfor iteration.\\r\\n    uint64[]...\n      SWAP1 \t\t\tfor iteration.\\r\\n    uint64[]...\n      PUSH [tag] 55\t\t\tfor iteration.\\r\\n    uint64[]...\n      JUMP \t\t\tfor iteration.\\r\\n    uint64[]...\n    tag 143\t\t\tfor iteration.\\r\\n    uint64[]...\n      JUMPDEST \t\t\tfor iteration.\\r\\n    uint64[]...\n      PUSH 40\t\t\tfor iteration.\\r\\n    uint64[]...\n      MLOAD \t\t\tfor iteration.\\r\\n    uint64[]...\n      DUP1 \t\t\tfor iteration.\\r\\n    uint64[]...\n      SWAP2 \t\t\tfor iteration.\\r\\n    uint64[]...\n      SUB \t\t\tfor iteration.\\r\\n    uint64[]...\n      SWAP1 \t\t\tfor iteration.\\r\\n    uint64[]...\n      RETURN \t\t\tfor iteration.\\r\\n    uint64[]...\n    tag 28\t\t\t safeTransferFrom(\\r\\n        ...\n      JUMPDEST \t\t\t safeTransferFrom(\\r\\n        ...\n      PUSH [tag] 144\t\t\t safeTransferFrom(\\r\\n        ...\n      PUSH 4\t\t\t safeTransferFrom(\\r\\n        ...\n      DUP1 \t\t\t safeTransferFrom(\\r\\n        ...\n      CALLDATASIZE \t\t\t safeTransferFrom(\\r\\n        ...\n      SUB \t\t\t safeTransferFrom(\\r\\n        ...\n      DUP2 \t\t\t safeTransferFrom(\\r\\n        ...\n      ADD \t\t\t safeTransferFrom(\\r\\n        ...\n      SWAP1 \t\t\t safeTransferFrom(\\r\\n        ...\n      PUSH [tag] 145\t\t\t safeTransferFrom(\\r\\n        ...\n      SWAP2 \t\t\t safeTransferFrom(\\r\\n        ...\n      SWAP1 \t\t\t safeTransferFrom(\\r\\n        ...\n      PUSH [tag] 146\t\t\t safeTransferFrom(\\r\\n        ...\n      JUMP \t\t\t safeTransferFrom(\\r\\n        ...\n    tag 145\t\t\t safeTransferFrom(\\r\\n        ...\n      JUMPDEST \t\t\t safeTransferFrom(\\r\\n        ...\n      PUSH [tag] 147\t\t\t safeTransferFrom(\\r\\n        ...\n      JUMP \t\t\t safeTransferFrom(\\r\\n        ...\n    tag 144\t\t\t safeTransferFrom(\\r\\n        ...\n      JUMPDEST \t\t\t safeTransferFrom(\\r\\n        ...\n      STOP \t\t\t safeTransferFrom(\\r\\n        ...\n    tag 29\t\t\t token ID to its name. But the...\n      JUMPDEST \t\t\t token ID to its name. But the...\n      PUSH [tag] 148\t\t\t token ID to its name. But the...\n      PUSH 4\t\t\t token ID to its name. But the...\n      DUP1 \t\t\t token ID to its name. But the...\n      CALLDATASIZE \t\t\t token ID to its name. But the...\n      SUB \t\t\t token ID to its name. But the...\n      DUP2 \t\t\t token ID to its name. But the...\n      ADD \t\t\t token ID to its name. But the...\n      SWAP1 \t\t\t token ID to its name. But the...\n      PUSH [tag] 149\t\t\t token ID to its name. But the...\n      SWAP2 \t\t\t token ID to its name. But the...\n      SWAP1 \t\t\t token ID to its name. But the...\n      PUSH [tag] 63\t\t\t token ID to its name. But the...\n      JUMP \t\t\t token ID to its name. But the...\n    tag 149\t\t\t token ID to its name. But the...\n      JUMPDEST \t\t\t token ID to its name. But the...\n      PUSH [tag] 150\t\t\t token ID to its name. But the...\n      JUMP \t\t\t token ID to its name. But the...\n    tag 148\t\t\t token ID to its name. But the...\n      JUMPDEST \t\t\t token ID to its name. But the...\n      STOP \t\t\t token ID to its name. But the...\n    tag 30\t\t\t burn(address account, uint256...\n      JUMPDEST \t\t\t burn(address account, uint256...\n      PUSH [tag] 151\t\t\t burn(address account, uint256...\n      PUSH 4\t\t\t burn(address account, uint256...\n      DUP1 \t\t\t burn(address account, uint256...\n      CALLDATASIZE \t\t\t burn(address account, uint256...\n      SUB \t\t\t burn(address account, uint256...\n      DUP2 \t\t\t burn(address account, uint256...\n      ADD \t\t\t burn(address account, uint256...\n      SWAP1 \t\t\t burn(address account, uint256...\n      PUSH [tag] 152\t\t\t burn(address account, uint256...\n      SWAP2 \t\t\t burn(address account, uint256...\n      SWAP1 \t\t\t burn(address account, uint256...\n      PUSH [tag] 153\t\t\t burn(address account, uint256...\n      JUMP \t\t\t burn(address account, uint256...\n    tag 152\t\t\t burn(address account, uint256...\n      JUMPDEST \t\t\t burn(address account, uint256...\n      PUSH [tag] 154\t\t\t burn(address account, uint256...\n      JUMP \t\t\t burn(address account, uint256...\n    tag 151\t\t\t burn(address account, uint256...\n      JUMPDEST \t\t\t burn(address account, uint256...\n      STOP \t\t\t burn(address account, uint256...\n    tag 41\t\t\tof all token IDs that have eve...\n      JUMPDEST \t\t\tof all token IDs that have eve...\n      PUSH 0\t\t\te _allT\n      DUP1 \t\t\t @notice \n      PUSH 0\t\t\t @notice Retu\n      DUP4 \t\t\tet\n      DUP2 \t\t\t @notice Retu\n      MSTORE \t\t\t @notice Retu\n      PUSH 20\t\t\t @notice Retu\n      ADD \t\t\t @notice Retu\n      SWAP1 \t\t\t @notice Retu\n      DUP2 \t\t\t @notice Retu\n      MSTORE \t\t\t @notice Retu\n      PUSH 20\t\t\t @notice Retu\n      ADD \t\t\t @notice Retu\n      PUSH 0\t\t\t @notice Retu\n      KECCAK256 \t\t\t @notice Retu\n      PUSH 0\t\t\t @notice Returns the f\n      DUP5 \t\t\tns the \n      PUSH FFFFFFFFFFFFFFFFFFFFFFFFFFFFFFFFFFFFFFFF\t\t\t @notice Returns the f\n      AND \t\t\t @notice Returns the f\n      PUSH FFFFFFFFFFFFFFFFFFFFFFFFFFFFFFFFFFFFFFFF\t\t\t @notice Returns the f\n      AND \t\t\t @notice Returns the f\n      DUP2 \t\t\t @notice Returns the f\n      MSTORE \t\t\t @notice Returns the f\n      PUSH 20\t\t\t @notice Returns the f\n      ADD \t\t\t @notice Returns the f\n      SWAP1 \t\t\t @notice Returns the f\n      DUP2 \t\t\t @notice Returns the f\n      MSTORE \t\t\t @notice Returns the f\n      PUSH 20\t\t\t @notice Returns the f\n      ADD \t\t\t @notice Returns the f\n      PUSH 0\t\t\t @notice Returns the f\n      KECCAK256 \t\t\t @notice Returns the f\n      SLOAD \t\t\t @notice Returns the f\n      SWAP1 \t\t\t    /// @notice Returns the f\n      POP \t\t\t    /// @notice Returns the f\n      SWAP3 \t\t\tof all token IDs that have eve...\n      SWAP2 \t\t\tof all token IDs that have eve...\n      POP \t\t\tof all token IDs that have eve...\n      POP \t\t\tof all token IDs that have eve...\n      JUMP \t\t\tof all token IDs that have eve...\n    tag 47\t\t\ttion getSpendingConditions(uin...\n      JUMPDEST \t\t\ttion getSpendingConditions(uin...\n      PUSH 60\t\t\t64[] memory, Sp\n      DUP1 \t\t\tdingCondition[] memory) {\\r\n      PUSH 0\t\t\t64[] memory ids = p\n      PUSH A\t\t\tfRequestIDs;\\r\\n \n      DUP1 \t\t\t64[] memory ids = proofRequest...\n      SLOAD \t\t\t64[] memory ids = proofRequest...\n      DUP1 \t\t\t64[] memory ids = proofRequest...\n      PUSH 20\t\t\t64[] memory ids = proofRequest...\n      MUL \t\t\t64[] memory ids = proofRequest...\n      PUSH 20\t\t\t64[] memory ids = proofRequest...\n      ADD \t\t\t64[] memory ids = proofRequest...\n      PUSH 40\t\t\t64[] memory ids = proofRequest...\n      MLOAD \t\t\t64[] memory ids = proofRequest...\n      SWAP1 \t\t\t64[] memory ids = proofRequest...\n      DUP2 \t\t\t64[] memory ids = proofRequest...\n      ADD \t\t\t64[] memory ids = proofRequest...\n      PUSH 40\t\t\t64[] memory ids = proofRequest...\n      MSTORE \t\t\t64[] memory ids = proofRequest...\n      DUP1 \t\t\t64[] memory ids = proofRequest...\n      SWAP3 \t\t\t64[] memory ids = proofRequest...\n      SWAP2 \t\t\t64[] memory ids = proofRequest...\n      SWAP1 \t\t\t64[] memory ids = proofRequest...\n      DUP2 \t\t\t64[] memory ids = proofRequest...\n      DUP2 \t\t\t64[] memory ids = proofRequest...\n      MSTORE \t\t\t64[] memory ids = proofRequest...\n      PUSH 20\t\t\t64[] memory ids = proofRequest...\n      ADD \t\t\t64[] memory ids = proofRequest...\n      DUP3 \t\t\t64[] memory ids = proofRequest...\n      DUP1 \t\t\t64[] memory ids = proofRequest...\n      SLOAD \t\t\t64[] memory ids = proofRequest...\n      DUP1 \t\t\t64[] memory ids = proofRequest...\n      ISZERO \t\t\t64[] memory ids = proofRequest...\n      PUSH [tag] 157\t\t\t64[] memory ids = proofRequest...\n      JUMPI \t\t\t64[] memory ids = proofRequest...\n      PUSH 20\t\t\t64[] memory ids = proofRequest...\n      MUL \t\t\t64[] memory ids = proofRequest...\n      DUP3 \t\t\t64[] memory ids = proofRequest...\n      ADD \t\t\t64[] memory ids = proofRequest...\n      SWAP2 \t\t\t64[] memory ids = proofRequest...\n      SWAP1 \t\t\t64[] memory ids = proofRequest...\n      PUSH 0\t\t\t64[] memory ids = proofRequest...\n      MSTORE \t\t\t64[] memory ids = proofRequest...\n      PUSH 20\t\t\t64[] memory ids = proofRequest...\n      PUSH 0\t\t\t64[] memory ids = proofRequest...\n      KECCAK256 \t\t\t64[] memory ids = proofRequest...\n      SWAP1 \t\t\t64[] memory ids = proofRequest...\n      PUSH 0\t\t\t64[] memory ids = proofRequest...\n      SWAP1 \t\t\t64[] memory ids = proofRequest...\n    tag 158\t\t\t64[] memory ids = proofRequest...\n      JUMPDEST \t\t\t64[] memory ids = proofRequest...\n      DUP3 \t\t\t64[] memory ids = proofRequest...\n      DUP3 \t\t\t64[] memory ids = proofRequest...\n      SWAP1 \t\t\t64[] memory ids = proofRequest...\n      SLOAD \t\t\t64[] memory ids = proofRequest...\n      SWAP1 \t\t\t64[] memory ids = proofRequest...\n      PUSH 100\t\t\t64[] memory ids = proofRequest...\n      EXP \t\t\t64[] memory ids = proofRequest...\n      SWAP1 \t\t\t64[] memory ids = proofRequest...\n      DIV \t\t\t64[] memory ids = proofRequest...\n      PUSH FFFFFFFFFFFFFFFF\t\t\t64[] memory ids = proofRequest...\n      AND \t\t\t64[] memory ids = proofRequest...\n      PUSH FFFFFFFFFFFFFFFF\t\t\t64[] memory ids = proofRequest...\n      AND \t\t\t64[] memory ids = proofRequest...\n      DUP2 \t\t\t64[] memory ids = proofRequest...\n      MSTORE \t\t\t64[] memory ids = proofRequest...\n      PUSH 20\t\t\t64[] memory ids = proofRequest...\n      ADD \t\t\t64[] memory ids = proofRequest...\n      SWAP1 \t\t\t64[] memory ids = proofRequest...\n      PUSH 8\t\t\t64[] memory ids = proofRequest...\n      ADD \t\t\t64[] memory ids = proofRequest...\n      SWAP1 \t\t\t64[] memory ids = proofRequest...\n      PUSH 20\t\t\t64[] memory ids = proofRequest...\n      DUP3 \t\t\t64[] memory ids = proofRequest...\n      PUSH 7\t\t\t64[] memory ids = proofRequest...\n      ADD \t\t\t64[] memory ids = proofRequest...\n      DIV \t\t\t64[] memory ids = proofRequest...\n      SWAP3 \t\t\t64[] memory ids = proofRequest...\n      DUP4 \t\t\t64[] memory ids = proofRequest...\n      ADD \t\t\t64[] memory ids = proofRequest...\n      SWAP3 \t\t\t64[] memory ids = proofRequest...\n      PUSH 1\t\t\t64[] memory ids = proofRequest...\n      SUB \t\t\t64[] memory ids = proofRequest...\n      DUP3 \t\t\t64[] memory ids = proofRequest...\n      MUL \t\t\t64[] memory ids = proofRequest...\n      SWAP2 \t\t\t64[] memory ids = proofRequest...\n      POP \t\t\t64[] memory ids = proofRequest...\n      DUP1 \t\t\t64[] memory ids = proofRequest...\n      DUP5 \t\t\t64[] memory ids = proofRequest...\n      GT \t\t\t64[] memory ids = proofRequest...\n      PUSH [tag] 158\t\t\t64[] memory ids = proofRequest...\n      JUMPI \t\t\t64[] memory ids = proofRequest...\n      SWAP1 \t\t\t64[] memory ids = proofRequest...\n      POP \t\t\t64[] memory ids = proofRequest...\n    tag 157\t\t\t64[] memory ids = proofRequest...\n      JUMPDEST \t\t\t64[] memory ids = proofRequest...\n      POP \t\t\t64[] memory ids = proofRequest...\n      POP \t\t\t64[] memory ids = proofRequest...\n      POP \t\t\t64[] memory ids = proofRequest...\n      POP \t\t\t64[] memory ids = proofRequest...\n      POP \t\t\t64[] memory ids = proofRequest...\n      SWAP1 \t\t\t64[] memory ids = proofRequest...\n      POP \t\t\t64[] memory ids = proofRequest...\n      PUSH 0\t\t\t256 count = 0\n      DUP1 \t\t\t256 i = 0\n    tag 159\t\t\t(uint256 i = 0; i < ids.length...\n      JUMPDEST \t\t\t(uint256 i = 0; i < ids.length...\n      DUP3 \t\t\tlen\n      MLOAD \t\t\tlength; i+\n      DUP2 \t\t\ti\n      LT \t\t\tids.length; i+\n      ISZERO \t\t\t(uint256 i = 0; i < ids.length...\n      PUSH [tag] 160\t\t\t(uint256 i = 0; i < ids.length...\n      JUMPI \t\t\t(uint256 i = 0; i < ids.length...\n      PUSH 0\t\t\t\\r\n      PUSH 9\t\t\tdingConditions[tok\n      PUSH 0\t\t\tdingConditions[tokenID][ids\n      DUP9 \t\t\tnID][id\n      DUP2 \t\t\tdingConditions[tokenID][ids\n      MSTORE \t\t\tdingConditions[tokenID][ids\n      PUSH 20\t\t\tdingConditions[tokenID][ids\n      ADD \t\t\tdingConditions[tokenID][ids\n      SWAP1 \t\t\tdingConditions[tokenID][ids\n      DUP2 \t\t\tdingConditions[tokenID][ids\n      MSTORE \t\t\tdingConditions[tokenID][ids\n      PUSH 20\t\t\tdingConditions[tokenID][ids\n      ADD \t\t\tdingConditions[tokenID][ids\n      PUSH 0\t\t\tdingConditions[tokenID][ids\n      KECCAK256 \t\t\tdingConditions[tokenID][ids\n      PUSH 0\t\t\tdingConditions[tokenID][ids[i]...\n      DUP6 \t\t\ti]]\n      DUP5 \t\t\ta\n      DUP2 \t\t\ti]].at\n      MLOAD \t\t\ti]].at\n      DUP2 \t\t\ti]].at\n      LT \t\t\ti]].at\n      PUSH [tag] 162\t\t\ti]].at\n      JUMPI \t\t\ti]].at\n      PUSH [tag] 163\t\t\ti]].at\n      PUSH [tag] 164\t\t\ti]].at\n      JUMP \t\t\ti]].at\n    tag 163\t\t\ti]].at\n      JUMPDEST \t\t\ti]].at\n    tag 162\t\t\ti]].at\n      JUMPDEST \t\t\ti]].at\n      PUSH 20\t\t\ti]].at\n      MUL \t\t\ti]].at\n      PUSH 20\t\t\ti]].at\n      ADD \t\t\ti]].at\n      ADD \t\t\ti]].at\n      MLOAD \t\t\ti]].at\n      PUSH FFFFFFFFFFFFFFFF\t\t\tdingConditions[tokenID][ids[i]...\n      AND \t\t\tdingConditions[tokenID][ids[i]...\n      PUSH FFFFFFFFFFFFFFFF\t\t\tdingConditions[tokenID][ids[i]...\n      AND \t\t\tdingConditions[tokenID][ids[i]...\n      DUP2 \t\t\tdingConditions[tokenID][ids[i]...\n      MSTORE \t\t\tdingConditions[tokenID][ids[i]...\n      PUSH 20\t\t\tdingConditions[tokenID][ids[i]...\n      ADD \t\t\tdingConditions[tokenID][ids[i]...\n      SWAP1 \t\t\tdingConditions[tokenID][ids[i]...\n      DUP2 \t\t\tdingConditions[tokenID][ids[i]...\n      MSTORE \t\t\tdingConditions[tokenID][ids[i]...\n      PUSH 20\t\t\tdingConditions[tokenID][ids[i]...\n      ADD \t\t\tdingConditions[tokenID][ids[i]...\n      PUSH 0\t\t\tdingConditions[tokenID][ids[i]...\n      KECCAK256 \t\t\tdingConditions[tokenID][ids[i]...\n      PUSH 0\t\t\tdingConditions[tokenID][ids[i]...\n      ADD \t\t\tdingConditions[tokenID][ids[i]...\n      DUP1 \t\t\ts(spendingConditions[tokenID][...\n      SLOAD \t\t\ts(spendingConditions[tokenID][...\n      PUSH [tag] 165\t\t\ts(spendingConditions[tokenID][...\n      SWAP1 \t\t\ts(spendingConditions[tokenID][...\n      PUSH [tag] 166\t\t\ts(spendingConditions[tokenID][...\n      JUMP \t\t\ts(spendingConditions[tokenID][...\n    tag 165\t\t\ts(spendingConditions[tokenID][...\n      JUMPDEST \t\t\ts(spendingConditions[tokenID][...\n      SWAP1 \t\t\ts(spendingConditions[tokenID][...\n      POP \t\t\ts(spendingConditions[tokenID][...\n      GT \t\t\ts(spendingConditions[tokenID][...\n      ISZERO \t\t\tbytes(spendingConditions[token...\n      PUSH [tag] 167\t\t\tbytes(spendingConditions[token...\n      JUMPI \t\t\tbytes(spendingConditions[token...\n      DUP2 \t\t\tt++;\\r\\n \n      DUP1 \t\t\tt++;\\r\\n \n      PUSH [tag] 168\t\t\tt++;\\r\\n \n      SWAP1 \t\t\tt++;\\r\\n \n      PUSH [tag] 169\t\t\tt++;\\r\\n \n      JUMP \t\t\tt++;\\r\\n \n    tag 168\t\t\tt++;\\r\\n \n      JUMPDEST \t\t\tt++;\\r\\n \n      SWAP3 \t\t\tt++;\\r\\n \n      POP \t\t\tt++;\\r\\n \n      POP \t\t\tt++;\\r\\n \n    tag 167\t\t\tbytes(spendingConditions[token...\n      JUMPDEST \t\t\tbytes(spendingConditions[token...\n      DUP1 \t\t\t {\\r\n      DUP1 \t\t\t {\\r\n      PUSH [tag] 170\t\t\t {\\r\n      SWAP1 \t\t\t {\\r\n      PUSH [tag] 169\t\t\t {\\r\n      JUMP \t\t\t {\\r\n    tag 170\t\t\t {\\r\n      JUMPDEST \t\t\t {\\r\n      SWAP2 \t\t\t {\\r\n      POP \t\t\t {\\r\n      POP \t\t\t {\\r\n      PUSH [tag] 159\t\t\t(uint256 i = 0; i < ids.length...\n      JUMP \t\t\t(uint256 i = 0; i < ids.length...\n    tag 160\t\t\t(uint256 i = 0; i < ids.length...\n      JUMPDEST \t\t\t(uint256 i = 0; i < ids.length...\n      POP \t\t\t(uint256 i = 0; i < ids.length...\n      PUSH 0\t\t\t64[] memory filteredIDs = n\n      DUP2 \t\t\tt);\\r\\n\n      PUSH FFFFFFFFFFFFFFFF\t\t\tuint64[](count);\\r\\n \n      DUP2 \t\t\tuint64[](count);\\r\\n \n      GT \t\t\tuint64[](count);\\r\\n \n      ISZERO \t\t\tuint64[](count);\\r\\n \n      PUSH [tag] 171\t\t\tuint64[](count);\\r\\n \n      JUMPI \t\t\tuint64[](count);\\r\\n \n      PUSH [tag] 172\t\t\tuint64[](count);\\r\\n \n      PUSH [tag] 173\t\t\tuint64[](count);\\r\\n \n      JUMP \t\t\tuint64[](count);\\r\\n \n    tag 172\t\t\tuint64[](count);\\r\\n \n      JUMPDEST \t\t\tuint64[](count);\\r\\n \n    tag 171\t\t\tuint64[](count);\\r\\n \n      JUMPDEST \t\t\tuint64[](count);\\r\\n \n      PUSH 40\t\t\tuint64[](count);\\r\\n \n      MLOAD \t\t\tuint64[](count);\\r\\n \n      SWAP1 \t\t\tuint64[](count);\\r\\n \n      DUP1 \t\t\tuint64[](count);\\r\\n \n      DUP3 \t\t\tuint64[](count);\\r\\n \n      MSTORE \t\t\tuint64[](count);\\r\\n \n      DUP1 \t\t\tuint64[](count);\\r\\n \n      PUSH 20\t\t\tuint64[](count);\\r\\n \n      MUL \t\t\tuint64[](count);\\r\\n \n      PUSH 20\t\t\tuint64[](count);\\r\\n \n      ADD \t\t\tuint64[](count);\\r\\n \n      DUP3 \t\t\tuint64[](count);\\r\\n \n      ADD \t\t\tuint64[](count);\\r\\n \n      PUSH 40\t\t\tuint64[](count);\\r\\n \n      MSTORE \t\t\tuint64[](count);\\r\\n \n      DUP1 \t\t\tuint64[](count);\\r\\n \n      ISZERO \t\t\tuint64[](count);\\r\\n \n      PUSH [tag] 174\t\t\tuint64[](count);\\r\\n \n      JUMPI \t\t\tuint64[](count);\\r\\n \n      DUP2 \t\t\tuint64[](count);\\r\\n \n      PUSH 20\t\t\tuint64[](count);\\r\\n \n      ADD \t\t\tuint64[](count);\\r\\n \n      PUSH 20\t\t\tuint64[](count);\\r\\n \n      DUP3 \t\t\tuint64[](count);\\r\\n \n      MUL \t\t\tuint64[](count);\\r\\n \n      DUP1 \t\t\tuint64[](count);\\r\\n \n      CALLDATASIZE \t\t\tuint64[](count);\\r\\n \n      DUP4 \t\t\tuint64[](count);\\r\\n \n      CALLDATACOPY \t\t\tuint64[](count);\\r\\n \n      DUP1 \t\t\tuint64[](count);\\r\\n \n      DUP3 \t\t\tuint64[](count);\\r\\n \n      ADD \t\t\tuint64[](count);\\r\\n \n      SWAP2 \t\t\tuint64[](count);\\r\\n \n      POP \t\t\tuint64[](count);\\r\\n \n      POP \t\t\tuint64[](count);\\r\\n \n      SWAP1 \t\t\tuint64[](count);\\r\\n \n      POP \t\t\tuint64[](count);\\r\\n \n    tag 174\t\t\tuint64[](count);\\r\\n \n      JUMPDEST \t\t\tuint64[](count);\\r\\n \n      POP \t\t\tuint64[](count);\\r\\n \n      SWAP1 \t\t\t64[] memory filteredIDs = new ...\n      POP \t\t\t64[] memory filteredIDs = new ...\n      PUSH 0\t\t\tdingCondition[] memory conditi...\n      DUP3 \t\t\tt);\\r\\n\n      PUSH FFFFFFFFFFFFFFFF\t\t\tSpendingCondition[](count);\\r\\...\n      DUP2 \t\t\tSpendingCondition[](count);\\r\\...\n      GT \t\t\tSpendingCondition[](count);\\r\\...\n      ISZERO \t\t\tSpendingCondition[](count);\\r\\...\n      PUSH [tag] 175\t\t\tSpendingCondition[](count);\\r\\...\n      JUMPI \t\t\tSpendingCondition[](count);\\r\\...\n      PUSH [tag] 176\t\t\tSpendingCondition[](count);\\r\\...\n      PUSH [tag] 173\t\t\tSpendingCondition[](count);\\r\\...\n      JUMP \t\t\tSpendingCondition[](count);\\r\\...\n    tag 176\t\t\tSpendingCondition[](count);\\r\\...\n      JUMPDEST \t\t\tSpendingCondition[](count);\\r\\...\n    tag 175\t\t\tSpendingCondition[](count);\\r\\...\n      JUMPDEST \t\t\tSpendingCondition[](count);\\r\\...\n      PUSH 40\t\t\tSpendingCondition[](count);\\r\\...\n      MLOAD \t\t\tSpendingCondition[](count);\\r\\...\n      SWAP1 \t\t\tSpendingCondition[](count);\\r\\...\n      DUP1 \t\t\tSpendingCondition[](count);\\r\\...\n      DUP3 \t\t\tSpendingCondition[](count);\\r\\...\n      MSTORE \t\t\tSpendingCondition[](count);\\r\\...\n      DUP1 \t\t\tSpendingCondition[](count);\\r\\...\n      PUSH 20\t\t\tSpendingCondition[](count);\\r\\...\n      MUL \t\t\tSpendingCondition[](count);\\r\\...\n      PUSH 20\t\t\tSpendingCondition[](count);\\r\\...\n      ADD \t\t\tSpendingCondition[](count);\\r\\...\n      DUP3 \t\t\tSpendingCondition[](count);\\r\\...\n      ADD \t\t\tSpendingCondition[](count);\\r\\...\n      PUSH 40\t\t\tSpendingCondition[](count);\\r\\...\n      MSTORE \t\t\tSpendingCondition[](count);\\r\\...\n      DUP1 \t\t\tSpendingCondition[](count);\\r\\...\n      ISZERO \t\t\tSpendingCondition[](count);\\r\\...\n      PUSH [tag] 177\t\t\tSpendingCondition[](count);\\r\\...\n      JUMPI \t\t\tSpendingCondition[](count);\\r\\...\n      DUP2 \t\t\tSpendingCondition[](count);\\r\\...\n      PUSH 20\t\t\tSpendingCondition[](count);\\r\\...\n      ADD \t\t\tSpendingCondition[](count);\\r\\...\n    tag 178\t\t\tSpendingCondition[](count);\\r\\...\n      JUMPDEST \t\t\tSpendingCondition[](count);\\r\\...\n      PUSH [tag] 179\t\t\tSpendingCondition[](count);\\r\\...\n      PUSH [tag] 180\t\t\tSpendingCondition[](count);\\r\\...\n      JUMP \t\t\tSpendingCondition[](count);\\r\\...\n    tag 179\t\t\tSpendingCondition[](count);\\r\\...\n      JUMPDEST \t\t\tSpendingCondition[](count);\\r\\...\n      DUP2 \t\t\tSpendingCondition[](count);\\r\\...\n      MSTORE \t\t\tSpendingCondition[](count);\\r\\...\n      PUSH 20\t\t\tSpendingCondition[](count);\\r\\...\n      ADD \t\t\tSpendingCondition[](count);\\r\\...\n      SWAP1 \t\t\tSpendingCondition[](count);\\r\\...\n      PUSH 1\t\t\tSpendingCondition[](count);\\r\\...\n      SWAP1 \t\t\tSpendingCondition[](count);\\r\\...\n      SUB \t\t\tSpendingCondition[](count);\\r\\...\n      SWAP1 \t\t\tSpendingCondition[](count);\\r\\...\n      DUP2 \t\t\tSpendingCondition[](count);\\r\\...\n      PUSH [tag] 178\t\t\tSpendingCondition[](count);\\r\\...\n      JUMPI \t\t\tSpendingCondition[](count);\\r\\...\n      SWAP1 \t\t\tSpendingCondition[](count);\\r\\...\n      POP \t\t\tSpendingCondition[](count);\\r\\...\n    tag 177\t\t\tSpendingCondition[](count);\\r\\...\n      JUMPDEST \t\t\tSpendingCondition[](count);\\r\\...\n      POP \t\t\tSpendingCondition[](count);\\r\\...\n      SWAP1 \t\t\tdingCondition[] memory conditi...\n      POP \t\t\tdingCondition[] memory conditi...\n      PUSH 0\t\t\t256 idx = 0\n      DUP1 \t\t\t256 i = 0\n    tag 181\t\t\t(uint256 i = 0; i < ids.length...\n      JUMPDEST \t\t\t(uint256 i = 0; i < ids.length...\n      DUP6 \t\t\tlen\n      MLOAD \t\t\tlength; i+\n      DUP2 \t\t\ti\n      LT \t\t\tids.length; i+\n      ISZERO \t\t\t(uint256 i = 0; i < ids.length...\n      PUSH [tag] 182\t\t\t(uint256 i = 0; i < ids.length...\n      JUMPI \t\t\t(uint256 i = 0; i < ids.length...\n      PUSH 0\t\t\t\\r\n      PUSH 9\t\t\tdingConditions[tok\n      PUSH 0\t\t\tdingConditions[tokenID][ids\n      DUP12 \t\t\tnID][id\n      DUP2 \t\t\tdingConditions[tokenID][ids\n      MSTORE \t\t\tdingConditions[tokenID][ids\n      PUSH 20\t\t\tdingConditions[tokenID][ids\n      ADD \t\t\tdingConditions[tokenID][ids\n      SWAP1 \t\t\tdingConditions[tokenID][ids\n      DUP2 \t\t\tdingConditions[tokenID][ids\n      MSTORE \t\t\tdingConditions[tokenID][ids\n      PUSH 20\t\t\tdingConditions[tokenID][ids\n      ADD \t\t\tdingConditions[tokenID][ids\n      PUSH 0\t\t\tdingConditions[tokenID][ids\n      KECCAK256 \t\t\tdingConditions[tokenID][ids\n      PUSH 0\t\t\tdingConditions[tokenID][ids[i]...\n      DUP9 \t\t\ti]]\n      DUP5 \t\t\ta\n      DUP2 \t\t\ti]].at\n      MLOAD \t\t\ti]].at\n      DUP2 \t\t\ti]].at\n      LT \t\t\ti]].at\n      PUSH [tag] 184\t\t\ti]].at\n      JUMPI \t\t\ti]].at\n      PUSH [tag] 185\t\t\ti]].at\n      PUSH [tag] 164\t\t\ti]].at\n      JUMP \t\t\ti]].at\n    tag 185\t\t\ti]].at\n      JUMPDEST \t\t\ti]].at\n    tag 184\t\t\ti]].at\n      JUMPDEST \t\t\ti]].at\n      PUSH 20\t\t\ti]].at\n      MUL \t\t\ti]].at\n      PUSH 20\t\t\ti]].at\n      ADD \t\t\ti]].at\n      ADD \t\t\ti]].at\n      MLOAD \t\t\ti]].at\n      PUSH FFFFFFFFFFFFFFFF\t\t\tdingConditions[tokenID][ids[i]...\n      AND \t\t\tdingConditions[tokenID][ids[i]...\n      PUSH FFFFFFFFFFFFFFFF\t\t\tdingConditions[tokenID][ids[i]...\n      AND \t\t\tdingConditions[tokenID][ids[i]...\n      DUP2 \t\t\tdingConditions[tokenID][ids[i]...\n      MSTORE \t\t\tdingConditions[tokenID][ids[i]...\n      PUSH 20\t\t\tdingConditions[tokenID][ids[i]...\n      ADD \t\t\tdingConditions[tokenID][ids[i]...\n      SWAP1 \t\t\tdingConditions[tokenID][ids[i]...\n      DUP2 \t\t\tdingConditions[tokenID][ids[i]...\n      MSTORE \t\t\tdingConditions[tokenID][ids[i]...\n      PUSH 20\t\t\tdingConditions[tokenID][ids[i]...\n      ADD \t\t\tdingConditions[tokenID][ids[i]...\n      PUSH 0\t\t\tdingConditions[tokenID][ids[i]...\n      KECCAK256 \t\t\tdingConditions[tokenID][ids[i]...\n      PUSH 0\t\t\tdingConditions[tokenID][ids[i]...\n      ADD \t\t\tdingConditions[tokenID][ids[i]...\n      DUP1 \t\t\ts(spendingConditions[tokenID][...\n      SLOAD \t\t\ts(spendingConditions[tokenID][...\n      PUSH [tag] 186\t\t\ts(spendingConditions[tokenID][...\n      SWAP1 \t\t\ts(spendingConditions[tokenID][...\n      PUSH [tag] 166\t\t\ts(spendingConditions[tokenID][...\n      JUMP \t\t\ts(spendingConditions[tokenID][...\n    tag 186\t\t\ts(spendingConditions[tokenID][...\n      JUMPDEST \t\t\ts(spendingConditions[tokenID][...\n      SWAP1 \t\t\ts(spendingConditions[tokenID][...\n      POP \t\t\ts(spendingConditions[tokenID][...\n      GT \t\t\ts(spendingConditions[tokenID][...\n      ISZERO \t\t\tbytes(spendingConditions[token...\n      PUSH [tag] 187\t\t\tbytes(spendingConditions[token...\n      JUMPI \t\t\tbytes(spendingConditions[token...\n      DUP6 \t\t\ti];\n      DUP2 \t\t\t\\n\n      DUP2 \t\t\ti];\\r\\n \n      MLOAD \t\t\ti];\\r\\n \n      DUP2 \t\t\ti];\\r\\n \n      LT \t\t\ti];\\r\\n \n      PUSH [tag] 188\t\t\ti];\\r\\n \n      JUMPI \t\t\ti];\\r\\n \n      PUSH [tag] 189\t\t\ti];\\r\\n \n      PUSH [tag] 164\t\t\ti];\\r\\n \n      JUMP \t\t\ti];\\r\\n \n    tag 189\t\t\ti];\\r\\n \n      JUMPDEST \t\t\ti];\\r\\n \n    tag 188\t\t\ti];\\r\\n \n      JUMPDEST \t\t\ti];\\r\\n \n      PUSH 20\t\t\ti];\\r\\n \n      MUL \t\t\ti];\\r\\n \n      PUSH 20\t\t\ti];\\r\\n \n      ADD \t\t\ti];\\r\\n \n      ADD \t\t\ti];\\r\\n \n      MLOAD \t\t\ti];\\r\\n \n      DUP5 \t\t\teredIDs[idx\n      DUP4 \t\t\t = \n      DUP2 \t\t\teredIDs[idx] = i\n      MLOAD \t\t\teredIDs[idx] = i\n      DUP2 \t\t\teredIDs[idx] = i\n      LT \t\t\teredIDs[idx] = i\n      PUSH [tag] 190\t\t\teredIDs[idx] = i\n      JUMPI \t\t\teredIDs[idx] = i\n      PUSH [tag] 191\t\t\teredIDs[idx] = i\n      PUSH [tag] 164\t\t\teredIDs[idx] = i\n      JUMP \t\t\teredIDs[idx] = i\n    tag 191\t\t\teredIDs[idx] = i\n      JUMPDEST \t\t\teredIDs[idx] = i\n    tag 190\t\t\teredIDs[idx] = i\n      JUMPDEST \t\t\teredIDs[idx] = i\n      PUSH 20\t\t\teredIDs[idx] = i\n      MUL \t\t\teredIDs[idx] = i\n      PUSH 20\t\t\teredIDs[idx] = i\n      ADD \t\t\teredIDs[idx] = i\n      ADD \t\t\teredIDs[idx] = i\n      SWAP1 \t\t\teredIDs[idx] = ids[i];\\r\\n \n      PUSH FFFFFFFFFFFFFFFF\t\t\teredIDs[idx] = ids[i];\\r\\n \n      AND \t\t\teredIDs[idx] = ids[i];\\r\\n \n      SWAP1 \t\t\teredIDs[idx] = ids[i];\\r\\n \n      DUP2 \t\t\teredIDs[idx] = ids[i];\\r\\n \n      PUSH FFFFFFFFFFFFFFFF\t\t\teredIDs[idx] = ids[i];\\r\\n \n      AND \t\t\teredIDs[idx] = ids[i];\\r\\n \n      DUP2 \t\t\teredIDs[idx] = ids[i];\\r\\n \n      MSTORE \t\t\teredIDs[idx] = ids[i];\\r\\n \n      POP \t\t\teredIDs[idx] = ids[i];\\r\\n \n      POP \t\t\teredIDs[idx] = ids[i];\\r\\n \n      PUSH 9\t\t\tdingConditions[tok\n      PUSH 0\t\t\tdingConditions[tokenID][ids\n      DUP11 \t\t\tnID][id\n      DUP2 \t\t\tdingConditions[tokenID][ids\n      MSTORE \t\t\tdingConditions[tokenID][ids\n      PUSH 20\t\t\tdingConditions[tokenID][ids\n      ADD \t\t\tdingConditions[tokenID][ids\n      SWAP1 \t\t\tdingConditions[tokenID][ids\n      DUP2 \t\t\tdingConditions[tokenID][ids\n      MSTORE \t\t\tdingConditions[tokenID][ids\n      PUSH 20\t\t\tdingConditions[tokenID][ids\n      ADD \t\t\tdingConditions[tokenID][ids\n      PUSH 0\t\t\tdingConditions[tokenID][ids\n      KECCAK256 \t\t\tdingConditions[tokenID][ids\n      PUSH 0\t\t\tdingConditions[tokenID][ids[i]...\n      DUP8 \t\t\ti]]\n      DUP4 \t\t\t\\r\n      DUP2 \t\t\ti]];\\r\\n\n      MLOAD \t\t\ti]];\\r\\n\n      DUP2 \t\t\ti]];\\r\\n\n      LT \t\t\ti]];\\r\\n\n      PUSH [tag] 192\t\t\ti]];\\r\\n\n      JUMPI \t\t\ti]];\\r\\n\n      PUSH [tag] 193\t\t\ti]];\\r\\n\n      PUSH [tag] 164\t\t\ti]];\\r\\n\n      JUMP \t\t\ti]];\\r\\n\n    tag 193\t\t\ti]];\\r\\n\n      JUMPDEST \t\t\ti]];\\r\\n\n    tag 192\t\t\ti]];\\r\\n\n      JUMPDEST \t\t\ti]];\\r\\n\n      PUSH 20\t\t\ti]];\\r\\n\n      MUL \t\t\ti]];\\r\\n\n      PUSH 20\t\t\ti]];\\r\\n\n      ADD \t\t\ti]];\\r\\n\n      ADD \t\t\ti]];\\r\\n\n      MLOAD \t\t\ti]];\\r\\n\n      PUSH FFFFFFFFFFFFFFFF\t\t\tdingConditions[tokenID][ids[i]...\n      AND \t\t\tdingConditions[tokenID][ids[i]...\n      PUSH FFFFFFFFFFFFFFFF\t\t\tdingConditions[tokenID][ids[i]...\n      AND \t\t\tdingConditions[tokenID][ids[i]...\n      DUP2 \t\t\tdingConditions[tokenID][ids[i]...\n      MSTORE \t\t\tdingConditions[tokenID][ids[i]...\n      PUSH 20\t\t\tdingConditions[tokenID][ids[i]...\n      ADD \t\t\tdingConditions[tokenID][ids[i]...\n      SWAP1 \t\t\tdingConditions[tokenID][ids[i]...\n      DUP2 \t\t\tdingConditions[tokenID][ids[i]...\n      MSTORE \t\t\tdingConditions[tokenID][ids[i]...\n      PUSH 20\t\t\tdingConditions[tokenID][ids[i]...\n      ADD \t\t\tdingConditions[tokenID][ids[i]...\n      PUSH 0\t\t\tdingConditions[tokenID][ids[i]...\n      KECCAK256 \t\t\tdingConditions[tokenID][ids[i]...\n      PUSH 40\t\t\titions[idx] = spendingConditio...\n      MLOAD \t\t\titions[idx] = spendingConditio...\n      DUP1 \t\t\titions[idx] = spendingConditio...\n      PUSH 60\t\t\titions[idx] = spendingConditio...\n      ADD \t\t\titions[idx] = spendingConditio...\n      PUSH 40\t\t\titions[idx] = spendingConditio...\n      MSTORE \t\t\titions[idx] = spendingConditio...\n      SWAP1 \t\t\titions[idx] = spendingConditio...\n      DUP2 \t\t\titions[idx] = spendingConditio...\n      PUSH 0\t\t\titions[idx] = spendingConditio...\n      DUP3 \t\t\titions[idx] = spendingConditio...\n      ADD \t\t\titions[idx] = spendingConditio...\n      DUP1 \t\t\titions[idx] = spendingConditio...\n      SLOAD \t\t\titions[idx] = spendingConditio...\n      PUSH [tag] 194\t\t\titions[idx] = spendingConditio...\n      SWAP1 \t\t\titions[idx] = spendingConditio...\n      PUSH [tag] 166\t\t\titions[idx] = spendingConditio...\n      JUMP \t\t\titions[idx] = spendingConditio...\n    tag 194\t\t\titions[idx] = spendingConditio...\n      JUMPDEST \t\t\titions[idx] = spendingConditio...\n      DUP1 \t\t\titions[idx] = spendingConditio...\n      PUSH 1F\t\t\titions[idx] = spendingConditio...\n      ADD \t\t\titions[idx] = spendingConditio...\n      PUSH 20\t\t\titions[idx] = spendingConditio...\n      DUP1 \t\t\titions[idx] = spendingConditio...\n      SWAP2 \t\t\titions[idx] = spendingConditio...\n      DIV \t\t\titions[idx] = spendingConditio...\n      MUL \t\t\titions[idx] = spendingConditio...\n      PUSH 20\t\t\titions[idx] = spendingConditio...\n      ADD \t\t\titions[idx] = spendingConditio...\n      PUSH 40\t\t\titions[idx] = spendingConditio...\n      MLOAD \t\t\titions[idx] = spendingConditio...\n      SWAP1 \t\t\titions[idx] = spendingConditio...\n      DUP2 \t\t\titions[idx] = spendingConditio...\n      ADD \t\t\titions[idx] = spendingConditio...\n      PUSH 40\t\t\titions[idx] = spendingConditio...\n      MSTORE \t\t\titions[idx] = spendingConditio...\n      DUP1 \t\t\titions[idx] = spendingConditio...\n      SWAP3 \t\t\titions[idx] = spendingConditio...\n      SWAP2 \t\t\titions[idx] = spendingConditio...\n      SWAP1 \t\t\titions[idx] = spendingConditio...\n      DUP2 \t\t\titions[idx] = spendingConditio...\n      DUP2 \t\t\titions[idx] = spendingConditio...\n      MSTORE \t\t\titions[idx] = spendingConditio...\n      PUSH 20\t\t\titions[idx] = spendingConditio...\n      ADD \t\t\titions[idx] = spendingConditio...\n      DUP3 \t\t\titions[idx] = spendingConditio...\n      DUP1 \t\t\titions[idx] = spendingConditio...\n      SLOAD \t\t\titions[idx] = spendingConditio...\n      PUSH [tag] 195\t\t\titions[idx] = spendingConditio...\n      SWAP1 \t\t\titions[idx] = spendingConditio...\n      PUSH [tag] 166\t\t\titions[idx] = spendingConditio...\n      JUMP \t\t\titions[idx] = spendingConditio...\n    tag 195\t\t\titions[idx] = spendingConditio...\n      JUMPDEST \t\t\titions[idx] = spendingConditio...\n      DUP1 \t\t\titions[idx] = spendingConditio...\n      ISZERO \t\t\titions[idx] = spendingConditio...\n      PUSH [tag] 196\t\t\titions[idx] = spendingConditio...\n      JUMPI \t\t\titions[idx] = spendingConditio...\n      DUP1 \t\t\titions[idx] = spendingConditio...\n      PUSH 1F\t\t\titions[idx] = spendingConditio...\n      LT \t\t\titions[idx] = spendingConditio...\n      PUSH [tag] 197\t\t\titions[idx] = spendingConditio...\n      JUMPI \t\t\titions[idx] = spendingConditio...\n      PUSH 100\t\t\titions[idx] = spendingConditio...\n      DUP1 \t\t\titions[idx] = spendingConditio...\n      DUP4 \t\t\titions[idx] = spendingConditio...\n      SLOAD \t\t\titions[idx] = spendingConditio...\n      DIV \t\t\titions[idx] = spendingConditio...\n      MUL \t\t\titions[idx] = spendingConditio...\n      DUP4 \t\t\titions[idx] = spendingConditio...\n      MSTORE \t\t\titions[idx] = spendingConditio...\n      SWAP2 \t\t\titions[idx] = spendingConditio...\n      PUSH 20\t\t\titions[idx] = spendingConditio...\n      ADD \t\t\titions[idx] = spendingConditio...\n      SWAP2 \t\t\titions[idx] = spendingConditio...\n      PUSH [tag] 196\t\t\titions[idx] = spendingConditio...\n      JUMP \t\t\titions[idx] = spendingConditio...\n    tag 197\t\t\titions[idx] = spendingConditio...\n      JUMPDEST \t\t\titions[idx] = spendingConditio...\n      DUP3 \t\t\titions[idx] = spendingConditio...\n      ADD \t\t\titions[idx] = spendingConditio...\n      SWAP2 \t\t\titions[idx] = spendingConditio...\n      SWAP1 \t\t\titions[idx] = spendingConditio...\n      PUSH 0\t\t\titions[idx] = spendingConditio...\n      MSTORE \t\t\titions[idx] = spendingConditio...\n      PUSH 20\t\t\titions[idx] = spendingConditio...\n      PUSH 0\t\t\titions[idx] = spendingConditio...\n      KECCAK256 \t\t\titions[idx] = spendingConditio...\n      SWAP1 \t\t\titions[idx] = spendingConditio...\n    tag 198\t\t\titions[idx] = spendingConditio...\n      JUMPDEST \t\t\titions[idx] = spendingConditio...\n      DUP2 \t\t\titions[idx] = spendingConditio...\n      SLOAD \t\t\titions[idx] = spendingConditio...\n      DUP2 \t\t\titions[idx] = spendingConditio...\n      MSTORE \t\t\titions[idx] = spendingConditio...\n      SWAP1 \t\t\titions[idx] = spendingConditio...\n      PUSH 1\t\t\titions[idx] = spendingConditio...\n      ADD \t\t\titions[idx] = spendingConditio...\n      SWAP1 \t\t\titions[idx] = spendingConditio...\n      PUSH 20\t\t\titions[idx] = spendingConditio...\n      ADD \t\t\titions[idx] = spendingConditio...\n      DUP1 \t\t\titions[idx] = spendingConditio...\n      DUP4 \t\t\titions[idx] = spendingConditio...\n      GT \t\t\titions[idx] = spendingConditio...\n      PUSH [tag] 198\t\t\titions[idx] = spendingConditio...\n      JUMPI \t\t\titions[idx] = spendingConditio...\n      DUP3 \t\t\titions[idx] = spendingConditio...\n      SWAP1 \t\t\titions[idx] = spendingConditio...\n      SUB \t\t\titions[idx] = spendingConditio...\n      PUSH 1F\t\t\titions[idx] = spendingConditio...\n      AND \t\t\titions[idx] = spendingConditio...\n      DUP3 \t\t\titions[idx] = spendingConditio...\n      ADD \t\t\titions[idx] = spendingConditio...\n      SWAP2 \t\t\titions[idx] = spendingConditio...\n    tag 196\t\t\titions[idx] = spendingConditio...\n      JUMPDEST \t\t\titions[idx] = spendingConditio...\n      POP \t\t\titions[idx] = spendingConditio...\n      POP \t\t\titions[idx] = spendingConditio...\n      POP \t\t\titions[idx] = spendingConditio...\n      POP \t\t\titions[idx] = spendingConditio...\n      POP \t\t\titions[idx] = spendingConditio...\n      DUP2 \t\t\titions[idx] = spendingConditio...\n      MSTORE \t\t\titions[idx] = spendingConditio...\n      PUSH 20\t\t\titions[idx] = spendingConditio...\n      ADD \t\t\titions[idx] = spendingConditio...\n      PUSH 1\t\t\titions[idx] = spendingConditio...\n      DUP3 \t\t\titions[idx] = spendingConditio...\n      ADD \t\t\titions[idx] = spendingConditio...\n      DUP1 \t\t\titions[idx] = spendingConditio...\n      SLOAD \t\t\titions[idx] = spendingConditio...\n      PUSH [tag] 199\t\t\titions[idx] = spendingConditio...\n      SWAP1 \t\t\titions[idx] = spendingConditio...\n      PUSH [tag] 166\t\t\titions[idx] = spendingConditio...\n      JUMP \t\t\titions[idx] = spendingConditio...\n    tag 199\t\t\titions[idx] = spendingConditio...\n      JUMPDEST \t\t\titions[idx] = spendingConditio...\n      DUP1 \t\t\titions[idx] = spendingConditio...\n      PUSH 1F\t\t\titions[idx] = spendingConditio...\n      ADD \t\t\titions[idx] = spendingConditio...\n      PUSH 20\t\t\titions[idx] = spendingConditio...\n      DUP1 \t\t\titions[idx] = spendingConditio...\n      SWAP2 \t\t\titions[idx] = spendingConditio...\n      DIV \t\t\titions[idx] = spendingConditio...\n      MUL \t\t\titions[idx] = spendingConditio...\n      PUSH 20\t\t\titions[idx] = spendingConditio...\n      ADD \t\t\titions[idx] = spendingConditio...\n      PUSH 40\t\t\titions[idx] = spendingConditio...\n      MLOAD \t\t\titions[idx] = spendingConditio...\n      SWAP1 \t\t\titions[idx] = spendingConditio...\n      DUP2 \t\t\titions[idx] = spendingConditio...\n      ADD \t\t\titions[idx] = spendingConditio...\n      PUSH 40\t\t\titions[idx] = spendingConditio...\n      MSTORE \t\t\titions[idx] = spendingConditio...\n      DUP1 \t\t\titions[idx] = spendingConditio...\n      SWAP3 \t\t\titions[idx] = spendingConditio...\n      SWAP2 \t\t\titions[idx] = spendingConditio...\n      SWAP1 \t\t\titions[idx] = spendingConditio...\n      DUP2 \t\t\titions[idx] = spendingConditio...\n      DUP2 \t\t\titions[idx] = spendingConditio...\n      MSTORE \t\t\titions[idx] = spendingConditio...\n      PUSH 20\t\t\titions[idx] = spendingConditio...\n      ADD \t\t\titions[idx] = spendingConditio...\n      DUP3 \t\t\titions[idx] = spendingConditio...\n      DUP1 \t\t\titions[idx] = spendingConditio...\n      SLOAD \t\t\titions[idx] = spendingConditio...\n      PUSH [tag] 200\t\t\titions[idx] = spendingConditio...\n      SWAP1 \t\t\titions[idx] = spendingConditio...\n      PUSH [tag] 166\t\t\titions[idx] = spendingConditio...\n      JUMP \t\t\titions[idx] = spendingConditio...\n    tag 200\t\t\titions[idx] = spendingConditio...\n      JUMPDEST \t\t\titions[idx] = spendingConditio...\n      DUP1 \t\t\titions[idx] = spendingConditio...\n      ISZERO \t\t\titions[idx] = spendingConditio...\n      PUSH [tag] 201\t\t\titions[idx] = spendingConditio...\n      JUMPI \t\t\titions[idx] = spendingConditio...\n      DUP1 \t\t\titions[idx] = spendingConditio...\n      PUSH 1F\t\t\titions[idx] = spendingConditio...\n      LT \t\t\titions[idx] = spendingConditio...\n      PUSH [tag] 202\t\t\titions[idx] = spendingConditio...\n      JUMPI \t\t\titions[idx] = spendingConditio...\n      PUSH 100\t\t\titions[idx] = spendingConditio...\n      DUP1 \t\t\titions[idx] = spendingConditio...\n      DUP4 \t\t\titions[idx] = spendingConditio...\n      SLOAD \t\t\titions[idx] = spendingConditio...\n      DIV \t\t\titions[idx] = spendingConditio...\n      MUL \t\t\titions[idx] = spendingConditio...\n      DUP4 \t\t\titions[idx] = spendingConditio...\n      MSTORE \t\t\titions[idx] = spendingConditio...\n      SWAP2 \t\t\titions[idx] = spendingConditio...\n      PUSH 20\t\t\titions[idx] = spendingConditio...\n      ADD \t\t\titions[idx] = spendingConditio...\n      SWAP2 \t\t\titions[idx] = spendingConditio...\n      PUSH [tag] 201\t\t\titions[idx] = spendingConditio...\n      JUMP \t\t\titions[idx] = spendingConditio...\n    tag 202\t\t\titions[idx] = spendingConditio...\n      JUMPDEST \t\t\titions[idx] = spendingConditio...\n      DUP3 \t\t\titions[idx] = spendingConditio...\n      ADD \t\t\titions[idx] = spendingConditio...\n      SWAP2 \t\t\titions[idx] = spendingConditio...\n      SWAP1 \t\t\titions[idx] = spendingConditio...\n      PUSH 0\t\t\titions[idx] = spendingConditio...\n      MSTORE \t\t\titions[idx] = spendingConditio...\n      PUSH 20\t\t\titions[idx] = spendingConditio...\n      PUSH 0\t\t\titions[idx] = spendingConditio...\n      KECCAK256 \t\t\titions[idx] = spendingConditio...\n      SWAP1 \t\t\titions[idx] = spendingConditio...\n    tag 203\t\t\titions[idx] = spendingConditio...\n      JUMPDEST \t\t\titions[idx] = spendingConditio...\n      DUP2 \t\t\titions[idx] = spendingConditio...\n      SLOAD \t\t\titions[idx] = spendingConditio...\n      DUP2 \t\t\titions[idx] = spendingConditio...\n      MSTORE \t\t\titions[idx] = spendingConditio...\n      SWAP1 \t\t\titions[idx] = spendingConditio...\n      PUSH 1\t\t\titions[idx] = spendingConditio...\n      ADD \t\t\titions[idx] = spendingConditio...\n      SWAP1 \t\t\titions[idx] = spendingConditio...\n      PUSH 20\t\t\titions[idx] = spendingConditio...\n      ADD \t\t\titions[idx] = spendingConditio...\n      DUP1 \t\t\titions[idx] = spendingConditio...\n      DUP4 \t\t\titions[idx] = spendingConditio...\n      GT \t\t\titions[idx] = spendingConditio...\n      PUSH [tag] 203\t\t\titions[idx] = spendingConditio...\n      JUMPI \t\t\titions[idx] = spendingConditio...\n      DUP3 \t\t\titions[idx] = spendingConditio...\n      SWAP1 \t\t\titions[idx] = spendingConditio...\n      SUB \t\t\titions[idx] = spendingConditio...\n      PUSH 1F\t\t\titions[idx] = spendingConditio...\n      AND \t\t\titions[idx] = spendingConditio...\n      DUP3 \t\t\titions[idx] = spendingConditio...\n      ADD \t\t\titions[idx] = spendingConditio...\n      SWAP2 \t\t\titions[idx] = spendingConditio...\n    tag 201\t\t\titions[idx] = spendingConditio...\n      JUMPDEST \t\t\titions[idx] = spendingConditio...\n      POP \t\t\titions[idx] = spendingConditio...\n      POP \t\t\titions[idx] = spendingConditio...\n      POP \t\t\titions[idx] = spendingConditio...\n      POP \t\t\titions[idx] = spendingConditio...\n      POP \t\t\titions[idx] = spendingConditio...\n      DUP2 \t\t\titions[idx] = spendingConditio...\n      MSTORE \t\t\titions[idx] = spendingConditio...\n      PUSH 20\t\t\titions[idx] = spendingConditio...\n      ADD \t\t\titions[idx] = spendingConditio...\n      PUSH 2\t\t\titions[idx] = spendingConditio...\n      DUP3 \t\t\titions[idx] = spendingConditio...\n      ADD \t\t\titions[idx] = spendingConditio...\n      DUP1 \t\t\titions[idx] = spendingConditio...\n      SLOAD \t\t\titions[idx] = spendingConditio...\n      PUSH [tag] 204\t\t\titions[idx] = spendingConditio...\n      SWAP1 \t\t\titions[idx] = spendingConditio...\n      PUSH [tag] 166\t\t\titions[idx] = spendingConditio...\n      JUMP \t\t\titions[idx] = spendingConditio...\n    tag 204\t\t\titions[idx] = spendingConditio...\n      JUMPDEST \t\t\titions[idx] = spendingConditio...\n      DUP1 \t\t\titions[idx] = spendingConditio...\n      PUSH 1F\t\t\titions[idx] = spendingConditio...\n      ADD \t\t\titions[idx] = spendingConditio...\n      PUSH 20\t\t\titions[idx] = spendingConditio...\n      DUP1 \t\t\titions[idx] = spendingConditio...\n      SWAP2 \t\t\titions[idx] = spendingConditio...\n      DIV \t\t\titions[idx] = spendingConditio...\n      MUL \t\t\titions[idx] = spendingConditio...\n      PUSH 20\t\t\titions[idx] = spendingConditio...\n      ADD \t\t\titions[idx] = spendingConditio...\n      PUSH 40\t\t\titions[idx] = spendingConditio...\n      MLOAD \t\t\titions[idx] = spendingConditio...\n      SWAP1 \t\t\titions[idx] = spendingConditio...\n      DUP2 \t\t\titions[idx] = spendingConditio...\n      ADD \t\t\titions[idx] = spendingConditio...\n      PUSH 40\t\t\titions[idx] = spendingConditio...\n      MSTORE \t\t\titions[idx] = spendingConditio...\n      DUP1 \t\t\titions[idx] = spendingConditio...\n      SWAP3 \t\t\titions[idx] = spendingConditio...\n      SWAP2 \t\t\titions[idx] = spendingConditio...\n      SWAP1 \t\t\titions[idx] = spendingConditio...\n      DUP2 \t\t\titions[idx] = spendingConditio...\n      DUP2 \t\t\titions[idx] = spendingConditio...\n      MSTORE \t\t\titions[idx] = spendingConditio...\n      PUSH 20\t\t\titions[idx] = spendingConditio...\n      ADD \t\t\titions[idx] = spendingConditio...\n      DUP3 \t\t\titions[idx] = spendingConditio...\n      DUP1 \t\t\titions[idx] = spendingConditio...\n      SLOAD \t\t\titions[idx] = spendingConditio...\n      PUSH [tag] 205\t\t\titions[idx] = spendingConditio...\n      SWAP1 \t\t\titions[idx] = spendingConditio...\n      PUSH [tag] 166\t\t\titions[idx] = spendingConditio...\n      JUMP \t\t\titions[idx] = spendingConditio...\n    tag 205\t\t\titions[idx] = spendingConditio...\n      JUMPDEST \t\t\titions[idx] = spendingConditio...\n      DUP1 \t\t\titions[idx] = spendingConditio...\n      ISZERO \t\t\titions[idx] = spendingConditio...\n      PUSH [tag] 206\t\t\titions[idx] = spendingConditio...\n      JUMPI \t\t\titions[idx] = spendingConditio...\n      DUP1 \t\t\titions[idx] = spendingConditio...\n      PUSH 1F\t\t\titions[idx] = spendingConditio...\n      LT \t\t\titions[idx] = spendingConditio...\n      PUSH [tag] 207\t\t\titions[idx] = spendingConditio...\n      JUMPI \t\t\titions[idx] = spendingConditio...\n      PUSH 100\t\t\titions[idx] = spendingConditio...\n      DUP1 \t\t\titions[idx] = spendingConditio...\n      DUP4 \t\t\titions[idx] = spendingConditio...\n      SLOAD \t\t\titions[idx] = spendingConditio...\n      DIV \t\t\titions[idx] = spendingConditio...\n      MUL \t\t\titions[idx] = spendingConditio...\n      DUP4 \t\t\titions[idx] = spendingConditio...\n      MSTORE \t\t\titions[idx] = spendingConditio...\n      SWAP2 \t\t\titions[idx] = spendingConditio...\n      PUSH 20\t\t\titions[idx] = spendingConditio...\n      ADD \t\t\titions[idx] = spendingConditio...\n      SWAP2 \t\t\titions[idx] = spendingConditio...\n      PUSH [tag] 206\t\t\titions[idx] = spendingConditio...\n      JUMP \t\t\titions[idx] = spendingConditio...\n    tag 207\t\t\titions[idx] = spendingConditio...\n      JUMPDEST \t\t\titions[idx] = spendingConditio...\n      DUP3 \t\t\titions[idx] = spendingConditio...\n      ADD \t\t\titions[idx] = spendingConditio...\n      SWAP2 \t\t\titions[idx] = spendingConditio...\n      SWAP1 \t\t\titions[idx] = spendingConditio...\n      PUSH 0\t\t\titions[idx] = spendingConditio...\n      MSTORE \t\t\titions[idx] = spendingConditio...\n      PUSH 20\t\t\titions[idx] = spendingConditio...\n      PUSH 0\t\t\titions[idx] = spendingConditio...\n      KECCAK256 \t\t\titions[idx] = spendingConditio...\n      SWAP1 \t\t\titions[idx] = spendingConditio...\n    tag 208\t\t\titions[idx] = spendingConditio...\n      JUMPDEST \t\t\titions[idx] = spendingConditio...\n      DUP2 \t\t\titions[idx] = spendingConditio...\n      SLOAD \t\t\titions[idx] = spendingConditio...\n      DUP2 \t\t\titions[idx] = spendingConditio...\n      MSTORE \t\t\titions[idx] = spendingConditio...\n      SWAP1 \t\t\titions[idx] = spendingConditio...\n      PUSH 1\t\t\titions[idx] = spendingConditio...\n      ADD \t\t\titions[idx] = spendingConditio...\n      SWAP1 \t\t\titions[idx] = spendingConditio...\n      PUSH 20\t\t\titions[idx] = spendingConditio...\n      ADD \t\t\titions[idx] = spendingConditio...\n      DUP1 \t\t\titions[idx] = spendingConditio...\n      DUP4 \t\t\titions[idx] = spendingConditio...\n      GT \t\t\titions[idx] = spendingConditio...\n      PUSH [tag] 208\t\t\titions[idx] = spendingConditio...\n      JUMPI \t\t\titions[idx] = spendingConditio...\n      DUP3 \t\t\titions[idx] = spendingConditio...\n      SWAP1 \t\t\titions[idx] = spendingConditio...\n      SUB \t\t\titions[idx] = spendingConditio...\n      PUSH 1F\t\t\titions[idx] = spendingConditio...\n      AND \t\t\titions[idx] = spendingConditio...\n      DUP3 \t\t\titions[idx] = spendingConditio...\n      ADD \t\t\titions[idx] = spendingConditio...\n      SWAP2 \t\t\titions[idx] = spendingConditio...\n    tag 206\t\t\titions[idx] = spendingConditio...\n      JUMPDEST \t\t\titions[idx] = spendingConditio...\n      POP \t\t\titions[idx] = spendingConditio...\n      POP \t\t\titions[idx] = spendingConditio...\n      POP \t\t\titions[idx] = spendingConditio...\n      POP \t\t\titions[idx] = spendingConditio...\n      POP \t\t\titions[idx] = spendingConditio...\n      DUP2 \t\t\titions[idx] = spendingConditio...\n      MSTORE \t\t\titions[idx] = spendingConditio...\n      POP \t\t\titions[idx] = spendingConditio...\n      POP \t\t\titions[idx] = spendingConditio...\n      DUP4 \t\t\titions[idx\n      DUP4 \t\t\t = \n      DUP2 \t\t\titions[idx] = s\n      MLOAD \t\t\titions[idx] = s\n      DUP2 \t\t\titions[idx] = s\n      LT \t\t\titions[idx] = s\n      PUSH [tag] 209\t\t\titions[idx] = s\n      JUMPI \t\t\titions[idx] = s\n      PUSH [tag] 210\t\t\titions[idx] = s\n      PUSH [tag] 164\t\t\titions[idx] = s\n      JUMP \t\t\titions[idx] = s\n    tag 210\t\t\titions[idx] = s\n      JUMPDEST \t\t\titions[idx] = s\n    tag 209\t\t\titions[idx] = s\n      JUMPDEST \t\t\titions[idx] = s\n      PUSH 20\t\t\titions[idx] = s\n      MUL \t\t\titions[idx] = s\n      PUSH 20\t\t\titions[idx] = s\n      ADD \t\t\titions[idx] = s\n      ADD \t\t\titions[idx] = s\n      DUP2 \t\t\titions[idx] = spendingConditio...\n      SWAP1 \t\t\titions[idx] = spendingConditio...\n      MSTORE \t\t\titions[idx] = spendingConditio...\n      POP \t\t\titions[idx] = spendingConditio...\n      DUP2 \t\t\t+;\\r\\n \n      DUP1 \t\t\t+;\\r\\n \n      PUSH [tag] 211\t\t\t+;\\r\\n \n      SWAP1 \t\t\t+;\\r\\n \n      PUSH [tag] 169\t\t\t+;\\r\\n \n      JUMP \t\t\t+;\\r\\n \n    tag 211\t\t\t+;\\r\\n \n      JUMPDEST \t\t\t+;\\r\\n \n      SWAP3 \t\t\t+;\\r\\n \n      POP \t\t\t+;\\r\\n \n      POP \t\t\t+;\\r\\n \n    tag 187\t\t\tbytes(spendingConditions[token...\n      JUMPDEST \t\t\tbytes(spendingConditions[token...\n      DUP1 \t\t\t {\\r\n      DUP1 \t\t\t {\\r\n      PUSH [tag] 212\t\t\t {\\r\n      SWAP1 \t\t\t {\\r\n      PUSH [tag] 169\t\t\t {\\r\n      JUMP \t\t\t {\\r\n    tag 212\t\t\t {\\r\n      JUMPDEST \t\t\t {\\r\n      SWAP2 \t\t\t {\\r\n      POP \t\t\t {\\r\n      POP \t\t\t {\\r\n      PUSH [tag] 181\t\t\t(uint256 i = 0; i < ids.length...\n      JUMP \t\t\t(uint256 i = 0; i < ids.length...\n    tag 182\t\t\t(uint256 i = 0; i < ids.length...\n      JUMPDEST \t\t\t(uint256 i = 0; i < ids.length...\n      POP \t\t\t(uint256 i = 0; i < ids.length...\n      DUP3 \t\t\teredIDs, co\n      DUP3 \t\t\titions);\\r\\n\n      SWAP7 \t\t\trn (filteredIDs, conditions);\\...\n      POP \t\t\trn (filteredIDs, conditions);\\...\n      SWAP7 \t\t\trn (filteredIDs, conditions);\\...\n      POP \t\t\trn (filteredIDs, conditions);\\...\n      POP \t\t\trn (filteredIDs, conditions);\\...\n      POP \t\t\trn (filteredIDs, conditions);\\...\n      POP \t\t\trn (filteredIDs, conditions);\\...\n      POP \t\t\trn (filteredIDs, conditions);\\...\n      POP \t\t\trn (filteredIDs, conditions);\\...\n      SWAP2 \t\t\ttion getSpendingConditions(uin...\n      POP \t\t\ttion getSpendingConditions(uin...\n      SWAP2 \t\t\ttion getSpendingConditions(uin...\n      JUMP \t\t\ttion getSpendingConditions(uin...\n    tag 53\t\t\tpublic onlyOwner {\\r\\n        ...\n      JUMPDEST \t\t\tpublic onlyOwner {\\r\\n        ...\n      PUSH 0\t\t\tin(_\n      PUSH D9B67A2600000000000000000000000000000000000000000000000000000000\t\t\t   admins.push(_admin);\\r\\n \n      PUSH FFFFFFFFFFFFFFFFFFFFFFFFFFFFFFFFFFFFFFFFFFFFFFFFFFFFFFFF\t\t\tadmin\");\\r\\n        admins.pus...\n      NOT \t\t\tadmin\");\\r\\n        admins.pus...\n      AND \t\t\tadmin\");\\r\\n        admins.pus...\n      DUP3 \t\t\tadmin\");\\r\\n \n      PUSH FFFFFFFFFFFFFFFFFFFFFFFFFFFFFFFFFFFFFFFFFFFFFFFFFFFFFFFF\t\t\tadmin\");\\r\\n        admins.pus...\n      NOT \t\t\tadmin\");\\r\\n        admins.pus...\n      AND \t\t\tadmin\");\\r\\n        admins.pus...\n      EQ \t\t\tadmin\");\\r\\n        admins.pus...\n      DUP1 \t\t\tadmin\");\\r\\n        admins.pus...\n      PUSH [tag] 214\t\t\tadmin\");\\r\\n        admins.pus...\n      JUMPI \t\t\tadmin\");\\r\\n        admins.pus...\n      POP \t\t\tadmin\");\\r\\n        admins.pus...\n      PUSH E89341C00000000000000000000000000000000000000000000000000000000\t\t\tve an admin address. Only the ...\n      PUSH FFFFFFFFFFFFFFFFFFFFFFFFFFFFFFFFFFFFFFFFFFFFFFFFFFFFFFFF\t\t\tunction to remove an admin add...\n      NOT \t\t\tunction to remove an admin add...\n      AND \t\t\tunction to remove an admin add...\n      DUP3 \t\t\tunction to \n      PUSH FFFFFFFFFFFFFFFFFFFFFFFFFFFFFFFFFFFFFFFFFFFFFFFFFFFFFFFF\t\t\tunction to remove an admin add...\n      NOT \t\t\tunction to remove an admin add...\n      AND \t\t\tunction to remove an admin add...\n      EQ \t\t\tunction to remove an admin add...\n    tag 214\t\t\tadmin\");\\r\\n        admins.pus...\n      JUMPDEST \t\t\tadmin\");\\r\\n        admins.pus...\n      DUP1 \t\t\tadmin\");\\r\\n        admins.pus...\n      PUSH [tag] 215\t\t\tadmin\");\\r\\n        admins.pus...\n      JUMPI \t\t\tadmin\");\\r\\n        admins.pus...\n      POP \t\t\tadmin\");\\r\\n        admins.pus...\n      PUSH [tag] 216\t\t\tfunction removeAdmin(address _...\n      DUP3 \t\t\tress _admin\n      PUSH [tag] 217\t\t\tfunction removeAdmin(ad\n      JUMP \t\t\tfunction removeAdmin(address _...\n    tag 216\t\t\tfunction removeAdmin(address _...\n      JUMPDEST \t\t\tfunction removeAdmin(address _...\n    tag 215\t\t\tadmin\");\\r\\n        admins.pus...\n      JUMPDEST \t\t\tadmin\");\\r\\n        admins.pus...\n      SWAP1 \t\t\tress is already an admin\");\\r\\...\n      POP \t\t\tress is already an admin\");\\r\\...\n      SWAP2 \t\t\tpublic onlyOwner {\\r\\n        ...\n      SWAP1 \t\t\tpublic onlyOwner {\\r\\n        ...\n      POP \t\t\tpublic onlyOwner {\\r\\n        ...\n      JUMP \t\t\tpublic onlyOwner {\\r\\n        ...\n    tag 58\t\t\tmin() {\\r\\n        require(_is...\n      JUMPDEST \t\t\tmin() {\\r\\n        require(_is...\n      PUSH 60\t\t\tt an admin\");\n      PUSH 2\t\t\t\\r\\n\\r\\n\n      DUP1 \t\t\t\\r\\n    }\\r\\n\\r\\n\n      SLOAD \t\t\t\\r\\n    }\\r\\n\\r\\n\n      PUSH [tag] 219\t\t\t\\r\\n    }\\r\\n\\r\\n\n      SWAP1 \t\t\t\\r\\n    }\\r\\n\\r\\n\n      PUSH [tag] 166\t\t\t\\r\\n    }\\r\\n\\r\\n\n      JUMP \t\t\t\\r\\n    }\\r\\n\\r\\n\n    tag 219\t\t\t\\r\\n    }\\r\\n\\r\\n\n      JUMPDEST \t\t\t\\r\\n    }\\r\\n\\r\\n\n      DUP1 \t\t\t\\r\\n    }\\r\\n\\r\\n\n      PUSH 1F\t\t\t\\r\\n    }\\r\\n\\r\\n\n      ADD \t\t\t\\r\\n    }\\r\\n\\r\\n\n      PUSH 20\t\t\t\\r\\n    }\\r\\n\\r\\n\n      DUP1 \t\t\t\\r\\n    }\\r\\n\\r\\n\n      SWAP2 \t\t\t\\r\\n    }\\r\\n\\r\\n\n      DIV \t\t\t\\r\\n    }\\r\\n\\r\\n\n      MUL \t\t\t\\r\\n    }\\r\\n\\r\\n\n      PUSH 20\t\t\t\\r\\n    }\\r\\n\\r\\n\n      ADD \t\t\t\\r\\n    }\\r\\n\\r\\n\n      PUSH 40\t\t\t\\r\\n    }\\r\\n\\r\\n\n      MLOAD \t\t\t\\r\\n    }\\r\\n\\r\\n\n      SWAP1 \t\t\t\\r\\n    }\\r\\n\\r\\n\n      DUP2 \t\t\t\\r\\n    }\\r\\n\\r\\n\n      ADD \t\t\t\\r\\n    }\\r\\n\\r\\n\n      PUSH 40\t\t\t\\r\\n    }\\r\\n\\r\\n\n      MSTORE \t\t\t\\r\\n    }\\r\\n\\r\\n\n      DUP1 \t\t\t\\r\\n    }\\r\\n\\r\\n\n      SWAP3 \t\t\t\\r\\n    }\\r\\n\\r\\n\n      SWAP2 \t\t\t\\r\\n    }\\r\\n\\r\\n\n      SWAP1 \t\t\t\\r\\n    }\\r\\n\\r\\n\n      DUP2 \t\t\t\\r\\n    }\\r\\n\\r\\n\n      DUP2 \t\t\t\\r\\n    }\\r\\n\\r\\n\n      MSTORE \t\t\t\\r\\n    }\\r\\n\\r\\n\n      PUSH 20\t\t\t\\r\\n    }\\r\\n\\r\\n\n      ADD \t\t\t\\r\\n    }\\r\\n\\r\\n\n      DUP3 \t\t\t\\r\\n    }\\r\\n\\r\\n\n      DUP1 \t\t\t\\r\\n    }\\r\\n\\r\\n\n      SLOAD \t\t\t\\r\\n    }\\r\\n\\r\\n\n      PUSH [tag] 220\t\t\t\\r\\n    }\\r\\n\\r\\n\n      SWAP1 \t\t\t\\r\\n    }\\r\\n\\r\\n\n      PUSH [tag] 166\t\t\t\\r\\n    }\\r\\n\\r\\n\n      JUMP \t\t\t\\r\\n    }\\r\\n\\r\\n\n    tag 220\t\t\t\\r\\n    }\\r\\n\\r\\n\n      JUMPDEST \t\t\t\\r\\n    }\\r\\n\\r\\n\n      DUP1 \t\t\t\\r\\n    }\\r\\n\\r\\n\n      ISZERO \t\t\t\\r\\n    }\\r\\n\\r\\n\n      PUSH [tag] 221\t\t\t\\r\\n    }\\r\\n\\r\\n\n      JUMPI \t\t\t\\r\\n    }\\r\\n\\r\\n\n      DUP1 \t\t\t\\r\\n    }\\r\\n\\r\\n\n      PUSH 1F\t\t\t\\r\\n    }\\r\\n\\r\\n\n      LT \t\t\t\\r\\n    }\\r\\n\\r\\n\n      PUSH [tag] 222\t\t\t\\r\\n    }\\r\\n\\r\\n\n      JUMPI \t\t\t\\r\\n    }\\r\\n\\r\\n\n      PUSH 100\t\t\t\\r\\n    }\\r\\n\\r\\n\n      DUP1 \t\t\t\\r\\n    }\\r\\n\\r\\n\n      DUP4 \t\t\t\\r\\n    }\\r\\n\\r\\n\n      SLOAD \t\t\t\\r\\n    }\\r\\n\\r\\n\n      DIV \t\t\t\\r\\n    }\\r\\n\\r\\n\n      MUL \t\t\t\\r\\n    }\\r\\n\\r\\n\n      DUP4 \t\t\t\\r\\n    }\\r\\n\\r\\n\n      MSTORE \t\t\t\\r\\n    }\\r\\n\\r\\n\n      SWAP2 \t\t\t\\r\\n    }\\r\\n\\r\\n\n      PUSH 20\t\t\t\\r\\n    }\\r\\n\\r\\n\n      ADD \t\t\t\\r\\n    }\\r\\n\\r\\n\n      SWAP2 \t\t\t\\r\\n    }\\r\\n\\r\\n\n      PUSH [tag] 221\t\t\t\\r\\n    }\\r\\n\\r\\n\n      JUMP \t\t\t\\r\\n    }\\r\\n\\r\\n\n    tag 222\t\t\t\\r\\n    }\\r\\n\\r\\n\n      JUMPDEST \t\t\t\\r\\n    }\\r\\n\\r\\n\n      DUP3 \t\t\t\\r\\n    }\\r\\n\\r\\n\n      ADD \t\t\t\\r\\n    }\\r\\n\\r\\n\n      SWAP2 \t\t\t\\r\\n    }\\r\\n\\r\\n\n      SWAP1 \t\t\t\\r\\n    }\\r\\n\\r\\n\n      PUSH 0\t\t\t\\r\\n    }\\r\\n\\r\\n\n      MSTORE \t\t\t\\r\\n    }\\r\\n\\r\\n\n      PUSH 20\t\t\t\\r\\n    }\\r\\n\\r\\n\n      PUSH 0\t\t\t\\r\\n    }\\r\\n\\r\\n\n      KECCAK256 \t\t\t\\r\\n    }\\r\\n\\r\\n\n      SWAP1 \t\t\t\\r\\n    }\\r\\n\\r\\n\n    tag 223\t\t\t\\r\\n    }\\r\\n\\r\\n\n      JUMPDEST \t\t\t\\r\\n    }\\r\\n\\r\\n\n      DUP2 \t\t\t\\r\\n    }\\r\\n\\r\\n\n      SLOAD \t\t\t\\r\\n    }\\r\\n\\r\\n\n      DUP2 \t\t\t\\r\\n    }\\r\\n\\r\\n\n      MSTORE \t\t\t\\r\\n    }\\r\\n\\r\\n\n      SWAP1 \t\t\t\\r\\n    }\\r\\n\\r\\n\n      PUSH 1\t\t\t\\r\\n    }\\r\\n\\r\\n\n      ADD \t\t\t\\r\\n    }\\r\\n\\r\\n\n      SWAP1 \t\t\t\\r\\n    }\\r\\n\\r\\n\n      PUSH 20\t\t\t\\r\\n    }\\r\\n\\r\\n\n      ADD \t\t\t\\r\\n    }\\r\\n\\r\\n\n      DUP1 \t\t\t\\r\\n    }\\r\\n\\r\\n\n      DUP4 \t\t\t\\r\\n    }\\r\\n\\r\\n\n      GT \t\t\t\\r\\n    }\\r\\n\\r\\n\n      PUSH [tag] 223\t\t\t\\r\\n    }\\r\\n\\r\\n\n      JUMPI \t\t\t\\r\\n    }\\r\\n\\r\\n\n      DUP3 \t\t\t\\r\\n    }\\r\\n\\r\\n\n      SWAP1 \t\t\t\\r\\n    }\\r\\n\\r\\n\n      SUB \t\t\t\\r\\n    }\\r\\n\\r\\n\n      PUSH 1F\t\t\t\\r\\n    }\\r\\n\\r\\n\n      AND \t\t\t\\r\\n    }\\r\\n\\r\\n\n      DUP3 \t\t\t\\r\\n    }\\r\\n\\r\\n\n      ADD \t\t\t\\r\\n    }\\r\\n\\r\\n\n      SWAP2 \t\t\t\\r\\n    }\\r\\n\\r\\n\n    tag 221\t\t\t\\r\\n    }\\r\\n\\r\\n\n      JUMPDEST \t\t\t\\r\\n    }\\r\\n\\r\\n\n      POP \t\t\t\\r\\n    }\\r\\n\\r\\n\n      POP \t\t\t\\r\\n    }\\r\\n\\r\\n\n      POP \t\t\t\\r\\n    }\\r\\n\\r\\n\n      POP \t\t\t\\r\\n    }\\r\\n\\r\\n\n      POP \t\t\t\\r\\n    }\\r\\n\\r\\n\n      SWAP1 \t\t\t\\r\\n    }\\r\\n\\r\\n\n      POP \t\t\t\\r\\n    }\\r\\n\\r\\n\n      SWAP2 \t\t\tmin() {\\r\\n        require(_is...\n      SWAP1 \t\t\tmin() {\\r\\n        require(_is...\n      POP \t\t\tmin() {\\r\\n        require(_is...\n      JUMP \t\t\tmin() {\\r\\n        require(_is...\n    tag 64\t\t\tfunction removeAdmin(address _...\n      JUMPDEST \t\t\tfunction removeAdmin(address _...\n      PUSH [tag] 225\t\t\t  admins.push\n      PUSH [tag] 226\t\t\t  admins.pu\n      JUMP \t\t\t  admins.push\n    tag 225\t\t\t  admins.push\n      JUMPDEST \t\t\t  admins.push\n      PUSH 0\t\t\tuint len\n      PUSH 4\t\t\tadmins\n      DUP1 \t\t\tadmins.length\n      SLOAD \t\t\tadmins.length\n      SWAP1 \t\t\tadmins.length\n      POP \t\t\tadmins.length\n      SWAP1 \t\t\tuint len = admins.length\n      POP \t\t\tuint len = admins.length\n      PUSH 0\t\t\tuint i\n    tag 228\t\t\tfor (uint i = 0; i < len; i++)...\n      JUMPDEST \t\t\tfor (uint i = 0; i < len; i++)...\n      DUP2 \t\t\tlen\n      DUP2 \t\t\ti\n      LT \t\t\ti < len\n      ISZERO \t\t\tfor (uint i = 0; i < len; i++)...\n      PUSH [tag] 229\t\t\tfor (uint i = 0; i < len; i++)...\n      JUMPI \t\t\tfor (uint i = 0; i < len; i++)...\n      DUP3 \t\t\t_admin\n      PUSH FFFFFFFFFFFFFFFFFFFFFFFFFFFFFFFFFFFFFFFF\t\t\tadmins[i] == _admin\n      AND \t\t\tadmins[i] == _admin\n      PUSH 4\t\t\tadmins\n      DUP3 \t\t\ti\n      DUP2 \t\t\tadmins[i]\n      SLOAD \t\t\tadmins[i]\n      DUP2 \t\t\tadmins[i]\n      LT \t\t\tadmins[i]\n      PUSH [tag] 231\t\t\tadmins[i]\n      JUMPI \t\t\tadmins[i]\n      PUSH [tag] 232\t\t\tadmins[i]\n      PUSH [tag] 164\t\t\tadmins[i]\n      JUMP \t\t\tadmins[i]\n    tag 232\t\t\tadmins[i]\n      JUMPDEST \t\t\tadmins[i]\n    tag 231\t\t\tadmins[i]\n      JUMPDEST \t\t\tadmins[i]\n      SWAP1 \t\t\tadmins[i]\n      PUSH 0\t\t\tadmins[i]\n      MSTORE \t\t\tadmins[i]\n      PUSH 20\t\t\tadmins[i]\n      PUSH 0\t\t\tadmins[i]\n      KECCAK256 \t\t\tadmins[i]\n      ADD \t\t\tadmins[i]\n      PUSH 0\t\t\tadmins[i]\n      SWAP1 \t\t\tadmins[i]\n      SLOAD \t\t\tadmins[i]\n      SWAP1 \t\t\tadmins[i]\n      PUSH 100\t\t\tadmins[i]\n      EXP \t\t\tadmins[i]\n      SWAP1 \t\t\tadmins[i]\n      DIV \t\t\tadmins[i]\n      PUSH FFFFFFFFFFFFFFFFFFFFFFFFFFFFFFFFFFFFFFFF\t\t\tadmins[i]\n      AND \t\t\tadmins[i]\n      PUSH FFFFFFFFFFFFFFFFFFFFFFFFFFFFFFFFFFFFFFFF\t\t\tadmins[i] == _admin\n      AND \t\t\tadmins[i] == _admin\n      SUB \t\t\tadmins[i] == _admin\n      PUSH [tag] 234\t\t\tif (admins[i] == _admin) {\\r\\n...\n      JUMPI \t\t\tif (admins[i] == _admin) {\\r\\n...\n      PUSH 4\t\t\tadmins\n      PUSH 1\t\t\t1\n      DUP4 \t\t\tlen\n      PUSH [tag] 235\t\t\tlen - 1\n      SWAP2 \t\t\tlen - 1\n      SWAP1 \t\t\tlen - 1\n      PUSH [tag] 236\t\t\tlen - 1\n      JUMP \t\t\tlen - 1\n    tag 235\t\t\tlen - 1\n      JUMPDEST \t\t\tlen - 1\n      DUP2 \t\t\tadmins[len - 1]\n      SLOAD \t\t\tadmins[len - 1]\n      DUP2 \t\t\tadmins[len - 1]\n      LT \t\t\tadmins[len - 1]\n      PUSH [tag] 237\t\t\tadmins[len - 1]\n      JUMPI \t\t\tadmins[len - 1]\n      PUSH [tag] 238\t\t\tadmins[len - 1]\n      PUSH [tag] 164\t\t\tadmins[len - 1]\n      JUMP \t\t\tadmins[len - 1]\n    tag 238\t\t\tadmins[len - 1]\n      JUMPDEST \t\t\tadmins[len - 1]\n    tag 237\t\t\tadmins[len - 1]\n      JUMPDEST \t\t\tadmins[len - 1]\n      SWAP1 \t\t\tadmins[len - 1]\n      PUSH 0\t\t\tadmins[len - 1]\n      MSTORE \t\t\tadmins[len - 1]\n      PUSH 20\t\t\tadmins[len - 1]\n      PUSH 0\t\t\tadmins[len - 1]\n      KECCAK256 \t\t\tadmins[len - 1]\n      ADD \t\t\tadmins[len - 1]\n      PUSH 0\t\t\tadmins[len - 1]\n      SWAP1 \t\t\tadmins[len - 1]\n      SLOAD \t\t\tadmins[len - 1]\n      SWAP1 \t\t\tadmins[len - 1]\n      PUSH 100\t\t\tadmins[len - 1]\n      EXP \t\t\tadmins[len - 1]\n      SWAP1 \t\t\tadmins[len - 1]\n      DIV \t\t\tadmins[len - 1]\n      PUSH FFFFFFFFFFFFFFFFFFFFFFFFFFFFFFFFFFFFFFFF\t\t\tadmins[len - 1]\n      AND \t\t\tadmins[len - 1]\n      PUSH 4\t\t\tadmins\n      DUP3 \t\t\ti\n      DUP2 \t\t\tadmins[i]\n      SLOAD \t\t\tadmins[i]\n      DUP2 \t\t\tadmins[i]\n      LT \t\t\tadmins[i]\n      PUSH [tag] 240\t\t\tadmins[i]\n      JUMPI \t\t\tadmins[i]\n      PUSH [tag] 241\t\t\tadmins[i]\n      PUSH [tag] 164\t\t\tadmins[i]\n      JUMP \t\t\tadmins[i]\n    tag 241\t\t\tadmins[i]\n      JUMPDEST \t\t\tadmins[i]\n    tag 240\t\t\tadmins[i]\n      JUMPDEST \t\t\tadmins[i]\n      SWAP1 \t\t\tadmins[i]\n      PUSH 0\t\t\tadmins[i]\n      MSTORE \t\t\tadmins[i]\n      PUSH 20\t\t\tadmins[i]\n      PUSH 0\t\t\tadmins[i]\n      KECCAK256 \t\t\tadmins[i]\n      ADD \t\t\tadmins[i]\n      PUSH 0\t\t\tadmins[i]\n      PUSH 100\t\t\tadmins[i] = admins[len - 1]\n      EXP \t\t\tadmins[i] = admins[len - 1]\n      DUP2 \t\t\tadmins[i] = admins[len - 1]\n      SLOAD \t\t\tadmins[i] = admins[len - 1]\n      DUP2 \t\t\tadmins[i] = admins[len - 1]\n      PUSH FFFFFFFFFFFFFFFFFFFFFFFFFFFFFFFFFFFFFFFF\t\t\tadmins[i] = admins[len - 1]\n      MUL \t\t\tadmins[i] = admins[len - 1]\n      NOT \t\t\tadmins[i] = admins[len - 1]\n      AND \t\t\tadmins[i] = admins[len - 1]\n      SWAP1 \t\t\tadmins[i] = admins[len - 1]\n      DUP4 \t\t\tadmins[i] = admins[len - 1]\n      PUSH FFFFFFFFFFFFFFFFFFFFFFFFFFFFFFFFFFFFFFFF\t\t\tadmins[i] = admins[len - 1]\n      AND \t\t\tadmins[i] = admins[len - 1]\n      MUL \t\t\tadmins[i] = admins[len - 1]\n      OR \t\t\tadmins[i] = admins[len - 1]\n      SWAP1 \t\t\tadmins[i] = admins[len - 1]\n      SSTORE \t\t\tadmins[i] = admins[len - 1]\n      POP \t\t\tadmins[i] = admins[len - 1]\n      PUSH 4\t\t\tadmins\n      DUP1 \t\t\tadmins.pop()\n      SLOAD \t\t\tadmins.pop()\n      DUP1 \t\t\tadmins.pop()\n      PUSH [tag] 243\t\t\tadmins.pop()\n      JUMPI \t\t\tadmins.pop()\n      PUSH [tag] 244\t\t\tadmins.pop()\n      PUSH [tag] 245\t\t\tadmins.pop()\n      JUMP \t\t\tadmins.pop()\n    tag 244\t\t\tadmins.pop()\n      JUMPDEST \t\t\tadmins.pop()\n    tag 243\t\t\tadmins.pop()\n      JUMPDEST \t\t\tadmins.pop()\n      PUSH 1\t\t\tadmins.pop()\n      SWAP1 \t\t\tadmins.pop()\n      SUB \t\t\tadmins.pop()\n      DUP2 \t\t\tadmins.pop()\n      DUP2 \t\t\tadmins.pop()\n      SWAP1 \t\t\tadmins.pop()\n      PUSH 0\t\t\tadmins.pop()\n      MSTORE \t\t\tadmins.pop()\n      PUSH 20\t\t\tadmins.pop()\n      PUSH 0\t\t\tadmins.pop()\n      KECCAK256 \t\t\tadmins.pop()\n      ADD \t\t\tadmins.pop()\n      PUSH 0\t\t\tadmins.pop()\n      PUSH 100\t\t\tadmins.pop()\n      EXP \t\t\tadmins.pop()\n      DUP2 \t\t\tadmins.pop()\n      SLOAD \t\t\tadmins.pop()\n      SWAP1 \t\t\tadmins.pop()\n      PUSH FFFFFFFFFFFFFFFFFFFFFFFFFFFFFFFFFFFFFFFF\t\t\tadmins.pop()\n      MUL \t\t\tadmins.pop()\n      NOT \t\t\tadmins.pop()\n      AND \t\t\tadmins.pop()\n      SWAP1 \t\t\tadmins.pop()\n      SSTORE \t\t\tadmins.pop()\n      SWAP1 \t\t\tadmins.pop()\n      SSTORE \t\t\tadmins.pop()\n      POP \t\t\treturn;\n      POP \t\t\treturn;\n      PUSH [tag] 227\t\t\treturn;\n      JUMP \t\t\treturn;\n    tag 234\t\t\tif (admins[i] == _admin) {\\r\\n...\n      JUMPDEST \t\t\tif (admins[i] == _admin) {\\r\\n...\n      DUP1 \t\t\ti++\n      DUP1 \t\t\ti++\n      PUSH [tag] 247\t\t\ti++\n      SWAP1 \t\t\ti++\n      PUSH [tag] 169\t\t\ti++\n      JUMP \t\t\ti++\n    tag 247\t\t\ti++\n      JUMPDEST \t\t\ti++\n      SWAP2 \t\t\ti++\n      POP \t\t\ti++\n      POP \t\t\ti++\n      PUSH [tag] 228\t\t\tfor (uint i = 0; i < len; i++)...\n      JUMP \t\t\tfor (uint i = 0; i < len; i++)...\n    tag 229\t\t\tfor (uint i = 0; i < len; i++)...\n      JUMPDEST \t\t\tfor (uint i = 0; i < len; i++)...\n      POP \t\t\tfor (uint i = 0; i < len; i++)...\n      PUSH 40\t\t\trevert(\"Admin not found\")\n      MLOAD \t\t\trevert(\"Admin not found\")\n      PUSH 8C379A000000000000000000000000000000000000000000000000000000000\t\t\trevert(\"Admin not found\")\n      DUP2 \t\t\trevert(\"Admin not found\")\n      MSTORE \t\t\trevert(\"Admin not found\")\n      PUSH 4\t\t\trevert(\"Admin not found\")\n      ADD \t\t\trevert(\"Admin not found\")\n      PUSH [tag] 248\t\t\trevert(\"Admin not found\")\n      SWAP1 \t\t\trevert(\"Admin not found\")\n      PUSH [tag] 249\t\t\trevert(\"Admin not found\")\n      JUMP \t\t\trevert(\"Admin not found\")\n    tag 248\t\t\trevert(\"Admin not found\")\n      JUMPDEST \t\t\trevert(\"Admin not found\")\n      PUSH 40\t\t\trevert(\"Admin not found\")\n      MLOAD \t\t\trevert(\"Admin not found\")\n      DUP1 \t\t\trevert(\"Admin not found\")\n      SWAP2 \t\t\trevert(\"Admin not found\")\n      SUB \t\t\trevert(\"Admin not found\")\n      SWAP1 \t\t\trevert(\"Admin not found\")\n      REVERT \t\t\trevert(\"Admin not found\")\n    tag 227\t\t\t\\n\n      JUMPDEST \t\t\t\\n\n      POP \t\t\tfunction removeAdmin(address _...\n      JUMP \t\t\tfunction removeAdmin(address _...\n    tag 66\t\t\tersalVerifier public verifier;...\n      JUMPDEST \t\t\tersalVerifier public verifier;...\n      PUSH B\t\t\tersalVerifier public verifier;...\n      PUSH 0\t\t\tersalVerifier public verifier;...\n      SWAP1 \t\t\tersalVerifier public verifier;...\n      SLOAD \t\t\tersalVerifier public verifier;...\n      SWAP1 \t\t\tersalVerifier public verifier;...\n      PUSH 100\t\t\tersalVerifier public verifier;...\n      EXP \t\t\tersalVerifier public verifier;...\n      SWAP1 \t\t\tersalVerifier public verifier;...\n      DIV \t\t\tersalVerifier public verifier;...\n      PUSH FFFFFFFFFFFFFFFFFFFFFFFFFFFFFFFFFFFFFFFF\t\t\tersalVerifier public verifier;...\n      AND \t\t\tersalVerifier public verifier;...\n      DUP2 \t\t\tersalVerifier public verifier;...\n      JUMP \t\t\tersalVerifier public verifier;...\n    tag 72\t\t\ton mintToken(address to, uint2...\n      JUMPDEST \t\t\ton mintToken(address to, uint2...\n      PUSH 0\t\t\tm\n      DUP3 \t\t\tleng\n      DUP3 \t\t\tleng\n      SWAP1 \t\t\tname).length > 0, \n      POP \t\t\tname).length > 0, \n      GT \t\t\tname).length > 0, \"Nam\n      PUSH [tag] 251\t\t\te(bytes(name).length > 0, \"Nam...\n      JUMPI \t\t\te(bytes(name).length > 0, \"Nam...\n      PUSH 40\t\t\te(bytes(name).length > 0, \"Nam...\n      MLOAD \t\t\te(bytes(name).length > 0, \"Nam...\n      PUSH 8C379A000000000000000000000000000000000000000000000000000000000\t\t\te(bytes(name).length > 0, \"Nam...\n      DUP2 \t\t\te(bytes(name).length > 0, \"Nam...\n      MSTORE \t\t\te(bytes(name).length > 0, \"Nam...\n      PUSH 4\t\t\te(bytes(name).length > 0, \"Nam...\n      ADD \t\t\te(bytes(name).length > 0, \"Nam...\n      PUSH [tag] 252\t\t\te(bytes(name).length > 0, \"Nam...\n      SWAP1 \t\t\te(bytes(name).length > 0, \"Nam...\n      PUSH [tag] 253\t\t\te(bytes(name).length > 0, \"Nam...\n      JUMP \t\t\te(bytes(name).length > 0, \"Nam...\n    tag 252\t\t\te(bytes(name).length > 0, \"Nam...\n      JUMPDEST \t\t\te(bytes(name).length > 0, \"Nam...\n      PUSH 40\t\t\te(bytes(name).length > 0, \"Nam...\n      MLOAD \t\t\te(bytes(name).length > 0, \"Nam...\n      DUP1 \t\t\te(bytes(name).length > 0, \"Nam...\n      SWAP2 \t\t\te(bytes(name).length > 0, \"Nam...\n      SUB \t\t\te(bytes(name).length > 0, \"Nam...\n      SWAP1 \t\t\te(bytes(name).length > 0, \"Nam...\n      REVERT \t\t\te(bytes(name).length > 0, \"Nam...\n    tag 251\t\t\te(bytes(name).length > 0, \"Nam...\n      JUMPDEST \t\t\te(bytes(name).length > 0, \"Nam...\n      PUSH 0\t\t\t6 tokenID = 0;\\r\n      DUP1 \t\t\tound = fal\n      PUSH 0\t\t\t6[] memory ids = _al\n      PUSH [tag] 254\t\t\tkenIDs.values();\\r\\n   \n      PUSH 5\t\t\tkenIDs.value\n      PUSH [tag] 255\t\t\tkenIDs.values();\\r\\n \n      JUMP \t\t\tkenIDs.values();\\r\\n   \n    tag 254\t\t\tkenIDs.values();\\r\\n   \n      JUMPDEST \t\t\tkenIDs.values();\\r\\n   \n      SWAP1 \t\t\t6[] memory ids = _allTokenIDs....\n      POP \t\t\t6[] memory ids = _allTokenIDs....\n      PUSH 0\t\t\t6 i = 0; \n    tag 256\t\t\tint256 i = 0; i < ids.length; ...\n      JUMPDEST \t\t\tint256 i = 0; i < ids.length; ...\n      DUP2 \t\t\tngt\n      MLOAD \t\t\tngth; i++)\n      DUP2 \t\t\ts\n      LT \t\t\ts.length; i++)\n      ISZERO \t\t\tint256 i = 0; i < ids.length; ...\n      PUSH [tag] 257\t\t\tint256 i = 0; i < ids.length; ...\n      JUMPI \t\t\tint256 i = 0; i < ids.length; ...\n      DUP6 \t\t\t) {\\r\n      DUP6 \t\t\t) {\\r\n      PUSH 40\t\t\t256(bytes(name))) {\\r\\n \n      MLOAD \t\t\t256(bytes(name))) {\\r\\n \n      PUSH [tag] 259\t\t\t256(bytes(name))) {\\r\\n \n      SWAP3 \t\t\t256(bytes(name))) {\\r\\n \n      SWAP2 \t\t\t256(bytes(name))) {\\r\\n \n      SWAP1 \t\t\t256(bytes(name))) {\\r\\n \n      PUSH [tag] 260\t\t\t256(bytes(name))) {\\r\\n \n      JUMP \t\t\t256(bytes(name))) {\\r\\n \n    tag 259\t\t\t256(bytes(name))) {\\r\\n \n      JUMPDEST \t\t\t256(bytes(name))) {\\r\\n \n      PUSH 40\t\t\t256(bytes(name))) {\\r\\n \n      MLOAD \t\t\t256(bytes(name))) {\\r\\n \n      DUP1 \t\t\t256(bytes(name))) {\\r\\n \n      SWAP2 \t\t\t256(bytes(name))) {\\r\\n \n      SUB \t\t\t256(bytes(name))) {\\r\\n \n      SWAP1 \t\t\t256(bytes(name))) {\\r\\n \n      KECCAK256 \t\t\t256(bytes(name))) {\\r\\n \n      PUSH 7\t\t\tame[ids[i\n      PUSH 0\t\t\tame[ids[i]])) == \n      DUP5 \t\t\t]))\n      DUP5 \t\t\t=\n      DUP2 \t\t\t])) ==\n      MLOAD \t\t\t])) ==\n      DUP2 \t\t\t])) ==\n      LT \t\t\t])) ==\n      PUSH [tag] 261\t\t\t])) ==\n      JUMPI \t\t\t])) ==\n      PUSH [tag] 262\t\t\t])) ==\n      PUSH [tag] 164\t\t\t])) ==\n      JUMP \t\t\t])) ==\n    tag 262\t\t\t])) ==\n      JUMPDEST \t\t\t])) ==\n    tag 261\t\t\t])) ==\n      JUMPDEST \t\t\t])) ==\n      PUSH 20\t\t\t])) ==\n      MUL \t\t\t])) ==\n      PUSH 20\t\t\t])) ==\n      ADD \t\t\t])) ==\n      ADD \t\t\t])) ==\n      MLOAD \t\t\t])) ==\n      DUP2 \t\t\tame[ids[i]])) == \n      MSTORE \t\t\tame[ids[i]])) == \n      PUSH 20\t\t\tame[ids[i]])) == \n      ADD \t\t\tame[ids[i]])) == \n      SWAP1 \t\t\tame[ids[i]])) == \n      DUP2 \t\t\tame[ids[i]])) == \n      MSTORE \t\t\tame[ids[i]])) == \n      PUSH 20\t\t\tame[ids[i]])) == \n      ADD \t\t\tame[ids[i]])) == \n      PUSH 0\t\t\tame[ids[i]])) == \n      KECCAK256 \t\t\tame[ids[i]])) == \n      PUSH 40\t\t\t256(bytes(tokenName[ids[i]])) ...\n      MLOAD \t\t\t256(bytes(tokenName[ids[i]])) ...\n      PUSH [tag] 263\t\t\t256(bytes(tokenName[ids[i]])) ...\n      SWAP2 \t\t\t256(bytes(tokenName[ids[i]])) ...\n      SWAP1 \t\t\t256(bytes(tokenName[ids[i]])) ...\n      PUSH [tag] 264\t\t\t256(bytes(tokenName[ids[i]])) ...\n      JUMP \t\t\t256(bytes(tokenName[ids[i]])) ...\n    tag 263\t\t\t256(bytes(tokenName[ids[i]])) ...\n      JUMPDEST \t\t\t256(bytes(tokenName[ids[i]])) ...\n      PUSH 40\t\t\t256(bytes(tokenName[ids[i]])) ...\n      MLOAD \t\t\t256(bytes(tokenName[ids[i]])) ...\n      DUP1 \t\t\t256(bytes(tokenName[ids[i]])) ...\n      SWAP2 \t\t\t256(bytes(tokenName[ids[i]])) ...\n      SUB \t\t\t256(bytes(tokenName[ids[i]])) ...\n      SWAP1 \t\t\t256(bytes(tokenName[ids[i]])) ...\n      KECCAK256 \t\t\t256(bytes(tokenName[ids[i]])) ...\n      SUB \t\t\t256(bytes(tokenName[ids[i]])) ...\n      PUSH [tag] 265\t\t\tccak256(bytes(tokenName[ids[i]...\n      JUMPI \t\t\tccak256(bytes(tokenName[ids[i]...\n      DUP2 \t\t\t;\\r\\n\n      DUP2 \t\t\t \n      DUP2 \t\t\t;\\r\\n   \n      MLOAD \t\t\t;\\r\\n   \n      DUP2 \t\t\t;\\r\\n   \n      LT \t\t\t;\\r\\n   \n      PUSH [tag] 266\t\t\t;\\r\\n   \n      JUMPI \t\t\t;\\r\\n   \n      PUSH [tag] 267\t\t\t;\\r\\n   \n      PUSH [tag] 164\t\t\t;\\r\\n   \n      JUMP \t\t\t;\\r\\n   \n    tag 267\t\t\t;\\r\\n   \n      JUMPDEST \t\t\t;\\r\\n   \n    tag 266\t\t\t;\\r\\n   \n      JUMPDEST \t\t\t;\\r\\n   \n      PUSH 20\t\t\t;\\r\\n   \n      MUL \t\t\t;\\r\\n   \n      PUSH 20\t\t\t;\\r\\n   \n      ADD \t\t\t;\\r\\n   \n      ADD \t\t\t;\\r\\n   \n      MLOAD \t\t\t;\\r\\n   \n      SWAP4 \t\t\tD = ids[i];\\r\\n   \n      POP \t\t\tD = ids[i];\\r\\n   \n      PUSH 1\t\t\t\\n   \n      SWAP3 \t\t\t= true;\\r\\n   \n      POP \t\t\t= true;\\r\\n   \n      PUSH [tag] 257\t\t\t\\r\\n   \n      JUMP \t\t\t\\r\\n   \n    tag 265\t\t\tccak256(bytes(tokenName[ids[i]...\n      JUMPDEST \t\t\tccak256(bytes(tokenName[ids[i]...\n      DUP1 \t\t\t\\r\\n \n      DUP1 \t\t\t\\r\\n \n      PUSH [tag] 268\t\t\t\\r\\n \n      SWAP1 \t\t\t\\r\\n \n      PUSH [tag] 169\t\t\t\\r\\n \n      JUMP \t\t\t\\r\\n \n    tag 268\t\t\t\\r\\n \n      JUMPDEST \t\t\t\\r\\n \n      SWAP2 \t\t\t\\r\\n \n      POP \t\t\t\\r\\n \n      POP \t\t\t\\r\\n \n      PUSH [tag] 256\t\t\tint256 i = 0; i < ids.length; ...\n      JUMP \t\t\tint256 i = 0; i < ids.length; ...\n    tag 257\t\t\tint256 i = 0; i < ids.length; ...\n      JUMPDEST \t\t\tint256 i = 0; i < ids.length; ...\n      POP \t\t\tint256 i = 0; i < ids.length; ...\n      DUP2 \t\t\t {\\r\\n \n      ISZERO \t\t\tund) {\\r\\n            _mint(to...\n      PUSH [tag] 269\t\t\tund) {\\r\\n            _mint(to...\n      JUMPI \t\t\tund) {\\r\\n            _mint(to...\n      PUSH [tag] 270\t\t\tto, tokenID, amount, data);\\r\\...\n      DUP10 \t\t\tke\n      DUP5 \t\t\tD, amou\n      DUP11 \t\t\t, data\n      DUP11 \t\t\t\\r\\n  \n      DUP11 \t\t\t\\r\\n  \n      DUP1 \t\t\tto, tokenID, amount, data);\\r\\...\n      DUP1 \t\t\tto, tokenID, amount, data);\\r\\...\n      PUSH 1F\t\t\tto, tokenID, amount, data);\\r\\...\n      ADD \t\t\tto, tokenID, amount, data);\\r\\...\n      PUSH 20\t\t\tto, tokenID, amount, data);\\r\\...\n      DUP1 \t\t\tto, tokenID, amount, data);\\r\\...\n      SWAP2 \t\t\tto, tokenID, amount, data);\\r\\...\n      DIV \t\t\tto, tokenID, amount, data);\\r\\...\n      MUL \t\t\tto, tokenID, amount, data);\\r\\...\n      PUSH 20\t\t\tto, tokenID, amount, data);\\r\\...\n      ADD \t\t\tto, tokenID, amount, data);\\r\\...\n      PUSH 40\t\t\tto, tokenID, amount, data);\\r\\...\n      MLOAD \t\t\tto, tokenID, amount, data);\\r\\...\n      SWAP1 \t\t\tto, tokenID, amount, data);\\r\\...\n      DUP2 \t\t\tto, tokenID, amount, data);\\r\\...\n      ADD \t\t\tto, tokenID, amount, data);\\r\\...\n      PUSH 40\t\t\tto, tokenID, amount, data);\\r\\...\n      MSTORE \t\t\tto, tokenID, amount, data);\\r\\...\n      DUP1 \t\t\tto, tokenID, amount, data);\\r\\...\n      SWAP4 \t\t\tto, tokenID, amount, data);\\r\\...\n      SWAP3 \t\t\tto, tokenID, amount, data);\\r\\...\n      SWAP2 \t\t\tto, tokenID, amount, data);\\r\\...\n      SWAP1 \t\t\tto, tokenID, amount, data);\\r\\...\n      DUP2 \t\t\tto, tokenID, amount, data);\\r\\...\n      DUP2 \t\t\tto, tokenID, amount, data);\\r\\...\n      MSTORE \t\t\tto, tokenID, amount, data);\\r\\...\n      PUSH 20\t\t\tto, tokenID, amount, data);\\r\\...\n      ADD \t\t\tto, tokenID, amount, data);\\r\\...\n      DUP4 \t\t\tto, tokenID, amount, data);\\r\\...\n      DUP4 \t\t\tto, tokenID, amount, data);\\r\\...\n      DUP1 \t\t\tto, tokenID, amount, data);\\r\\...\n      DUP3 \t\t\tto, tokenID, amount, data);\\r\\...\n      DUP5 \t\t\tto, tokenID, amount, data);\\r\\...\n      CALLDATACOPY \t\t\tto, tokenID, amount, data);\\r\\...\n      PUSH 0\t\t\tto, tokenID, amount, data);\\r\\...\n      DUP2 \t\t\tto, tokenID, amount, data);\\r\\...\n      DUP5 \t\t\tto, tokenID, amount, data);\\r\\...\n      ADD \t\t\tto, tokenID, amount, data);\\r\\...\n      MSTORE \t\t\tto, tokenID, amount, data);\\r\\...\n      PUSH 1F\t\t\tto, tokenID, amount, data);\\r\\...\n      NOT \t\t\tto, tokenID, amount, data);\\r\\...\n      PUSH 1F\t\t\tto, tokenID, amount, data);\\r\\...\n      DUP3 \t\t\tto, tokenID, amount, data);\\r\\...\n      ADD \t\t\tto, tokenID, amount, data);\\r\\...\n      AND \t\t\tto, tokenID, amount, data);\\r\\...\n      SWAP1 \t\t\tto, tokenID, amount, data);\\r\\...\n      POP \t\t\tto, tokenID, amount, data);\\r\\...\n      DUP1 \t\t\tto, tokenID, amount, data);\\r\\...\n      DUP4 \t\t\tto, tokenID, amount, data);\\r\\...\n      ADD \t\t\tto, tokenID, amount, data);\\r\\...\n      SWAP3 \t\t\tto, tokenID, amount, data);\\r\\...\n      POP \t\t\tto, tokenID, amount, data);\\r\\...\n      POP \t\t\tto, tokenID, amount, data);\\r\\...\n      POP \t\t\tto, tokenID, amount, data);\\r\\...\n      POP \t\t\tto, tokenID, amount, data);\\r\\...\n      POP \t\t\tto, tokenID, amount, data);\\r\\...\n      POP \t\t\tto, tokenID, amount, data);\\r\\...\n      POP \t\t\tto, tokenID, amount, data);\\r\\...\n      PUSH [tag] 271\t\t\tto, t\n      JUMP \t\t\tto, tokenID, amount, data);\\r\\...\n    tag 270\t\t\tto, tokenID, amount, data);\\r\\...\n      JUMPDEST \t\t\tto, tokenID, amount, data);\\r\\...\n      PUSH [tag] 272\t\t\tund) {\\r\\n            _mint(to...\n      JUMP \t\t\tund) {\\r\\n            _mint(to...\n    tag 269\t\t\tund) {\\r\\n            _mint(to...\n      JUMPDEST \t\t\tund) {\\r\\n            _mint(to...\n      PUSH 0\t\t\tnewID;\\r\\n     \n      DUP1 \t\t\tattempts = 0;\\r\\n \n      PUSH 0\t\t\t \n      SWAP1 \t\t\tattempts = 0;\\r\\n     \n      POP \t\t\tattempts = 0;\\r\\n     \n    tag 273\t\t\t              newID = 1000 + (...\n      JUMPDEST \t\t\t              newID = 1000 + (...\n      PUSH 15F90\t\t\t\\n    \n      TIMESTAMP \t\t\tmestamp, block.\n      PREVRANDAO \t\t\tevrandao, to, na\n      DUP14 \t\t\t, \n      DUP11 \t\t\ttemp\n      DUP11 \t\t\ttemp\n      DUP7 \t\t\t))) % 90\n      PUSH 40\t\t\tdePacked(block.timestamp, bloc...\n      MLOAD \t\t\tdePacked(block.timestamp, bloc...\n      PUSH 20\t\t\tdePacked(block.timestamp, bloc...\n      ADD \t\t\tdePacked(block.timestamp, bloc...\n      PUSH [tag] 276\t\t\tdePacked(block.timestamp, bloc...\n      SWAP7 \t\t\tdePacked(block.timestamp, bloc...\n      SWAP6 \t\t\tdePacked(block.timestamp, bloc...\n      SWAP5 \t\t\tdePacked(block.timestamp, bloc...\n      SWAP4 \t\t\tdePacked(block.timestamp, bloc...\n      SWAP3 \t\t\tdePacked(block.timestamp, bloc...\n      SWAP2 \t\t\tdePacked(block.timestamp, bloc...\n      SWAP1 \t\t\tdePacked(block.timestamp, bloc...\n      PUSH [tag] 277\t\t\tdePacked(block.timestamp, bloc...\n      JUMP \t\t\tdePacked(block.timestamp, bloc...\n    tag 276\t\t\tdePacked(block.timestamp, bloc...\n      JUMPDEST \t\t\tdePacked(block.timestamp, bloc...\n      PUSH 40\t\t\tdePacked(block.timestamp, bloc...\n      MLOAD \t\t\tdePacked(block.timestamp, bloc...\n      PUSH 20\t\t\tdePacked(block.timestamp, bloc...\n      DUP2 \t\t\tdePacked(block.timestamp, bloc...\n      DUP4 \t\t\tdePacked(block.timestamp, bloc...\n      SUB \t\t\tdePacked(block.timestamp, bloc...\n      SUB \t\t\tdePacked(block.timestamp, bloc...\n      DUP2 \t\t\tdePacked(block.timestamp, bloc...\n      MSTORE \t\t\tdePacked(block.timestamp, bloc...\n      SWAP1 \t\t\tdePacked(block.timestamp, bloc...\n      PUSH 40\t\t\tdePacked(block.timestamp, bloc...\n      MSTORE \t\t\tdePacked(block.timestamp, bloc...\n      DUP1 \t\t\t6(abi.encodePacked(block.times...\n      MLOAD \t\t\t6(abi.encodePacked(block.times...\n      SWAP1 \t\t\t6(abi.encodePacked(block.times...\n      PUSH 20\t\t\t6(abi.encodePacked(block.times...\n      ADD \t\t\t6(abi.encodePacked(block.times...\n      KECCAK256 \t\t\t6(abi.encodePacked(block.times...\n      PUSH 0\t\t\tkeccak256(abi.encodePacked(blo...\n      SHR \t\t\tkeccak256(abi.encodePacked(blo...\n      PUSH [tag] 278\t\t\tkeccak256(abi.encodePacked(blo...\n      SWAP2 \t\t\tkeccak256(abi.encodePacked(blo...\n      SWAP1 \t\t\tkeccak256(abi.encodePacked(blo...\n      PUSH [tag] 279\t\t\tkeccak256(abi.encodePacked(blo...\n      JUMP \t\t\tkeccak256(abi.encodePacked(blo...\n    tag 278\t\t\tkeccak256(abi.encodePacked(blo...\n      JUMPDEST \t\t\tkeccak256(abi.encodePacked(blo...\n      PUSH 3E8\t\t\tuint\n      PUSH [tag] 280\t\t\tuint256(keccak256(abi.encodePa...\n      SWAP2 \t\t\tuint256(keccak256(abi.encodePa...\n      SWAP1 \t\t\tuint256(keccak256(abi.encodePa...\n      PUSH [tag] 281\t\t\tuint256(keccak256(abi.encodePa...\n      JUMP \t\t\tuint256(keccak256(abi.encodePa...\n    tag 280\t\t\tuint256(keccak256(abi.encodePa...\n      JUMPDEST \t\t\tuint256(keccak256(abi.encodePa...\n      SWAP2 \t\t\t1000 + (uint256(keccak256(abi....\n      POP \t\t\t1000 + (uint256(keccak256(abi....\n      DUP1 \t\t\t++;\\r\\n     \n      DUP1 \t\t\t++;\\r\\n     \n      PUSH [tag] 282\t\t\t++;\\r\\n     \n      SWAP1 \t\t\t++;\\r\\n     \n      PUSH [tag] 169\t\t\t++;\\r\\n     \n      JUMP \t\t\t++;\\r\\n     \n    tag 282\t\t\t++;\\r\\n     \n      JUMPDEST \t\t\t++;\\r\\n     \n      SWAP2 \t\t\t++;\\r\\n     \n      POP \t\t\t++;\\r\\n     \n      POP \t\t\t++;\\r\\n     \n      PUSH 64\t\t\tabl\n      DUP2 \t\t\t < 100, \n      LT \t\t\t < 100, \"Unabl\n      PUSH [tag] 283\t\t\tattempts < 100, \"Unable to fin...\n      JUMPI \t\t\tattempts < 100, \"Unable to fin...\n      PUSH 40\t\t\tattempts < 100, \"Unable to fin...\n      MLOAD \t\t\tattempts < 100, \"Unable to fin...\n      PUSH 8C379A000000000000000000000000000000000000000000000000000000000\t\t\tattempts < 100, \"Unable to fin...\n      DUP2 \t\t\tattempts < 100, \"Unable to fin...\n      MSTORE \t\t\tattempts < 100, \"Unable to fin...\n      PUSH 4\t\t\tattempts < 100, \"Unable to fin...\n      ADD \t\t\tattempts < 100, \"Unable to fin...\n      PUSH [tag] 284\t\t\tattempts < 100, \"Unable to fin...\n      SWAP1 \t\t\tattempts < 100, \"Unable to fin...\n      PUSH [tag] 285\t\t\tattempts < 100, \"Unable to fin...\n      JUMP \t\t\tattempts < 100, \"Unable to fin...\n    tag 284\t\t\tattempts < 100, \"Unable to fin...\n      JUMPDEST \t\t\tattempts < 100, \"Unable to fin...\n      PUSH 40\t\t\tattempts < 100, \"Unable to fin...\n      MLOAD \t\t\tattempts < 100, \"Unable to fin...\n      DUP1 \t\t\tattempts < 100, \"Unable to fin...\n      SWAP2 \t\t\tattempts < 100, \"Unable to fin...\n      SUB \t\t\tattempts < 100, \"Unable to fin...\n      SWAP1 \t\t\tattempts < 100, \"Unable to fin...\n      REVERT \t\t\tattempts < 100, \"Unable to fin...\n    tag 283\t\t\tattempts < 100, \"Unable to fin...\n      JUMPDEST \t\t\tattempts < 100, \"Unable to fin...\n      PUSH [tag] 286\t\t\tnIDs.contains(newID));\\r\\n    \n      DUP3 \t\t\t\\r\\n   \n      PUSH 5\t\t\tnIDs.contain\n      PUSH [tag] 287\t\t\tnIDs.contains(newID))\n      SWAP1 \t\t\tnIDs.contains(newID))\n      SWAP2 \t\t\tnIDs.contains(newID));\\r\\n    \n      SWAP1 \t\t\tnIDs.contains(newID));\\r\\n    \n      PUSH FFFFFFFF\t\t\tnIDs.contains(newID));\\r\\n    \n      AND \t\t\tnIDs.contains(newID));\\r\\n    \n      JUMP \t\t\tnIDs.contains(newID));\\r\\n    \n    tag 286\t\t\tnIDs.contains(newID));\\r\\n    \n      JUMPDEST \t\t\tnIDs.contains(newID));\\r\\n    \n      PUSH [tag] 273\t\t\t              newID = 1000 + (...\n      JUMPI \t\t\t              newID = 1000 + (...\n      PUSH [tag] 288\t\t\tnIDs.add(newID), \"Token\n      DUP3 \t\t\t\"Toke\n      PUSH 5\t\t\tnIDs.add(new\n      PUSH [tag] 289\t\t\tnIDs.add(newID),\n      SWAP1 \t\t\tnIDs.add(newID),\n      SWAP2 \t\t\tnIDs.add(newID), \"Token\n      SWAP1 \t\t\tnIDs.add(newID), \"Token\n      PUSH FFFFFFFF\t\t\tnIDs.add(newID), \"Token\n      AND \t\t\tnIDs.add(newID), \"Token\n      JUMP \t\t\tnIDs.add(newID), \"Token\n    tag 288\t\t\tnIDs.add(newID), \"Token\n      JUMPDEST \t\t\tnIDs.add(newID), \"Token\n      PUSH [tag] 290\t\t\t_allTokenIDs.add(newID), \"Toke...\n      JUMPI \t\t\t_allTokenIDs.add(newID), \"Toke...\n      PUSH 40\t\t\t_allTokenIDs.add(newID), \"Toke...\n      MLOAD \t\t\t_allTokenIDs.add(newID), \"Toke...\n      PUSH 8C379A000000000000000000000000000000000000000000000000000000000\t\t\t_allTokenIDs.add(newID), \"Toke...\n      DUP2 \t\t\t_allTokenIDs.add(newID), \"Toke...\n      MSTORE \t\t\t_allTokenIDs.add(newID), \"Toke...\n      PUSH 4\t\t\t_allTokenIDs.add(newID), \"Toke...\n      ADD \t\t\t_allTokenIDs.add(newID), \"Toke...\n      PUSH [tag] 291\t\t\t_allTokenIDs.add(newID), \"Toke...\n      SWAP1 \t\t\t_allTokenIDs.add(newID), \"Toke...\n      PUSH [tag] 292\t\t\t_allTokenIDs.add(newID), \"Toke...\n      JUMP \t\t\t_allTokenIDs.add(newID), \"Toke...\n    tag 291\t\t\t_allTokenIDs.add(newID), \"Toke...\n      JUMPDEST \t\t\t_allTokenIDs.add(newID), \"Toke...\n      PUSH 40\t\t\t_allTokenIDs.add(newID), \"Toke...\n      MLOAD \t\t\t_allTokenIDs.add(newID), \"Toke...\n      DUP1 \t\t\t_allTokenIDs.add(newID), \"Toke...\n      SWAP2 \t\t\t_allTokenIDs.add(newID), \"Toke...\n      SUB \t\t\t_allTokenIDs.add(newID), \"Toke...\n      SWAP1 \t\t\t_allTokenIDs.add(newID), \"Toke...\n      REVERT \t\t\t_allTokenIDs.add(newID), \"Toke...\n    tag 290\t\t\t_allTokenIDs.add(newID), \"Toke...\n      JUMPDEST \t\t\t_allTokenIDs.add(newID), \"Toke...\n      PUSH [tag] 293\t\t\t, newID, amount, data);\\r\\n   ...\n      DUP12 \t\t\tD,\n      DUP4 \t\t\tmount\n      DUP13 \t\t\tdata);\n      DUP13 \t\t\t    \n      DUP13 \t\t\t    \n      DUP1 \t\t\t, newID, amount, data);\\r\\n   ...\n      DUP1 \t\t\t, newID, amount, data);\\r\\n   ...\n      PUSH 1F\t\t\t, newID, amount, data);\\r\\n   ...\n      ADD \t\t\t, newID, amount, data);\\r\\n   ...\n      PUSH 20\t\t\t, newID, amount, data);\\r\\n   ...\n      DUP1 \t\t\t, newID, amount, data);\\r\\n   ...\n      SWAP2 \t\t\t, newID, amount, data);\\r\\n   ...\n      DIV \t\t\t, newID, amount, data);\\r\\n   ...\n      MUL \t\t\t, newID, amount, data);\\r\\n   ...\n      PUSH 20\t\t\t, newID, amount, data);\\r\\n   ...\n      ADD \t\t\t, newID, amount, data);\\r\\n   ...\n      PUSH 40\t\t\t, newID, amount, data);\\r\\n   ...\n      MLOAD \t\t\t, newID, amount, data);\\r\\n   ...\n      SWAP1 \t\t\t, newID, amount, data);\\r\\n   ...\n      DUP2 \t\t\t, newID, amount, data);\\r\\n   ...\n      ADD \t\t\t, newID, amount, data);\\r\\n   ...\n      PUSH 40\t\t\t, newID, amount, data);\\r\\n   ...\n      MSTORE \t\t\t, newID, amount, data);\\r\\n   ...\n      DUP1 \t\t\t, newID, amount, data);\\r\\n   ...\n      SWAP4 \t\t\t, newID, amount, data);\\r\\n   ...\n      SWAP3 \t\t\t, newID, amount, data);\\r\\n   ...\n      SWAP2 \t\t\t, newID, amount, data);\\r\\n   ...\n      SWAP1 \t\t\t, newID, amount, data);\\r\\n   ...\n      DUP2 \t\t\t, newID, amount, data);\\r\\n   ...\n      DUP2 \t\t\t, newID, amount, data);\\r\\n   ...\n      MSTORE \t\t\t, newID, amount, data);\\r\\n   ...\n      PUSH 20\t\t\t, newID, amount, data);\\r\\n   ...\n      ADD \t\t\t, newID, amount, data);\\r\\n   ...\n      DUP4 \t\t\t, newID, amount, data);\\r\\n   ...\n      DUP4 \t\t\t, newID, amount, data);\\r\\n   ...\n      DUP1 \t\t\t, newID, amount, data);\\r\\n   ...\n      DUP3 \t\t\t, newID, amount, data);\\r\\n   ...\n      DUP5 \t\t\t, newID, amount, data);\\r\\n   ...\n      CALLDATACOPY \t\t\t, newID, amount, data);\\r\\n   ...\n      PUSH 0\t\t\t, newID, amount, data);\\r\\n   ...\n      DUP2 \t\t\t, newID, amount, data);\\r\\n   ...\n      DUP5 \t\t\t, newID, amount, data);\\r\\n   ...\n      ADD \t\t\t, newID, amount, data);\\r\\n   ...\n      MSTORE \t\t\t, newID, amount, data);\\r\\n   ...\n      PUSH 1F\t\t\t, newID, amount, data);\\r\\n   ...\n      NOT \t\t\t, newID, amount, data);\\r\\n   ...\n      PUSH 1F\t\t\t, newID, amount, data);\\r\\n   ...\n      DUP3 \t\t\t, newID, amount, data);\\r\\n   ...\n      ADD \t\t\t, newID, amount, data);\\r\\n   ...\n      AND \t\t\t, newID, amount, data);\\r\\n   ...\n      SWAP1 \t\t\t, newID, amount, data);\\r\\n   ...\n      POP \t\t\t, newID, amount, data);\\r\\n   ...\n      DUP1 \t\t\t, newID, amount, data);\\r\\n   ...\n      DUP4 \t\t\t, newID, amount, data);\\r\\n   ...\n      ADD \t\t\t, newID, amount, data);\\r\\n   ...\n      SWAP3 \t\t\t, newID, amount, data);\\r\\n   ...\n      POP \t\t\t, newID, amount, data);\\r\\n   ...\n      POP \t\t\t, newID, amount, data);\\r\\n   ...\n      POP \t\t\t, newID, amount, data);\\r\\n   ...\n      POP \t\t\t, newID, amount, data);\\r\\n   ...\n      POP \t\t\t, newID, amount, data);\\r\\n   ...\n      POP \t\t\t, newID, amount, data);\\r\\n   ...\n      POP \t\t\t, newID, amount, data);\\r\\n   ...\n      PUSH [tag] 271\t\t\t, new\n      JUMP \t\t\t, newID, amount, data);\\r\\n   ...\n    tag 293\t\t\t, newID, amount, data);\\r\\n   ...\n      JUMPDEST \t\t\t, newID, amount, data);\\r\\n   ...\n      DUP7 \t\t\t    \n      DUP7 \t\t\t    \n      PUSH 7\t\t\te[newID] \n      PUSH 0\t\t\te[newID] = name;\n      DUP6 \t\t\t name\n      DUP2 \t\t\te[newID] = name;\n      MSTORE \t\t\te[newID] = name;\n      PUSH 20\t\t\te[newID] = name;\n      ADD \t\t\te[newID] = name;\n      SWAP1 \t\t\te[newID] = name;\n      DUP2 \t\t\te[newID] = name;\n      MSTORE \t\t\te[newID] = name;\n      PUSH 20\t\t\te[newID] = name;\n      ADD \t\t\te[newID] = name;\n      PUSH 0\t\t\te[newID] = name;\n      KECCAK256 \t\t\te[newID] = name;\n      SWAP2 \t\t\te[newID] = name;\\r\\n     \n      DUP3 \t\t\te[newID] = name;\\r\\n     \n      PUSH [tag] 294\t\t\te[newID] = name;\\r\\n     \n      SWAP3 \t\t\te[newID] = name;\\r\\n     \n      SWAP2 \t\t\te[newID] = name;\\r\\n     \n      SWAP1 \t\t\te[newID] = name;\\r\\n     \n      PUSH [tag] 295\t\t\te[newID] = name;\\r\\n     \n      JUMP \t\t\te[newID] = name;\\r\\n     \n    tag 294\t\t\te[newID] = name;\\r\\n     \n      JUMPDEST \t\t\te[newID] = name;\\r\\n     \n      POP \t\t\te[newID] = name;\\r\\n     \n      POP \t\t\t         // Generate a random ...\n      POP \t\t\t         // Generate a random ...\n    tag 272\t\t\tund) {\\r\\n            _mint(to...\n      JUMPDEST \t\t\tund) {\\r\\n            _mint(to...\n      POP \t\t\t     require(bytes(name).lengt...\n      POP \t\t\t     require(bytes(name).lengt...\n      POP \t\t\t     require(bytes(name).lengt...\n      POP \t\t\ton mintToken(address to, uint2...\n      POP \t\t\ton mintToken(address to, uint2...\n      POP \t\t\ton mintToken(address to, uint2...\n      POP \t\t\ton mintToken(address to, uint2...\n      POP \t\t\ton mintToken(address to, uint2...\n      POP \t\t\ton mintToken(address to, uint2...\n      JUMP \t\t\ton mintToken(address to, uint2...\n    tag 76\t\t\t safeBatchTransferFrom(\\r\\n   ...\n      JUMPDEST \t\t\t safeBatchTransferFrom(\\r\\n   ...\n      DUP2 \t\t\tlength,\n      MLOAD \t\t\tlength, \"ERC11\n      DUP4 \t\t\t.length \n      MLOAD \t\t\t.length == amou\n      EQ \t\t\t.length == amounts.length, \"ER...\n      PUSH [tag] 297\t\t\ttokenIDs.length == amounts.len...\n      JUMPI \t\t\ttokenIDs.length == amounts.len...\n      PUSH 40\t\t\ttokenIDs.length == amounts.len...\n      MLOAD \t\t\ttokenIDs.length == amounts.len...\n      PUSH 8C379A000000000000000000000000000000000000000000000000000000000\t\t\ttokenIDs.length == amounts.len...\n      DUP2 \t\t\ttokenIDs.length == amounts.len...\n      MSTORE \t\t\ttokenIDs.length == amounts.len...\n      PUSH 4\t\t\ttokenIDs.length == amounts.len...\n      ADD \t\t\ttokenIDs.length == amounts.len...\n      PUSH [tag] 298\t\t\ttokenIDs.length == amounts.len...\n      SWAP1 \t\t\ttokenIDs.length == amounts.len...\n      PUSH [tag] 299\t\t\ttokenIDs.length == amounts.len...\n      JUMP \t\t\ttokenIDs.length == amounts.len...\n    tag 298\t\t\ttokenIDs.length == amounts.len...\n      JUMPDEST \t\t\ttokenIDs.length == amounts.len...\n      PUSH 40\t\t\ttokenIDs.length == amounts.len...\n      MLOAD \t\t\ttokenIDs.length == amounts.len...\n      DUP1 \t\t\ttokenIDs.length == amounts.len...\n      SWAP2 \t\t\ttokenIDs.length == amounts.len...\n      SUB \t\t\ttokenIDs.length == amounts.len...\n      SWAP1 \t\t\ttokenIDs.length == amounts.len...\n      REVERT \t\t\ttokenIDs.length == amounts.len...\n    tag 297\t\t\ttokenIDs.length == amounts.len...\n      JUMPDEST \t\t\ttokenIDs.length == amounts.len...\n      PUSH 0\t\t\t1\n      PUSH FFFFFFFFFFFFFFFFFFFFFFFFFFFFFFFFFFFFFFFF\t\t\tdress(0), \"ERC11\n      AND \t\t\tdress(0), \"ERC11\n      DUP5 \t\t\tdr\n      PUSH FFFFFFFFFFFFFFFFFFFFFFFFFFFFFFFFFFFFFFFF\t\t\tdress(0), \"ERC11\n      AND \t\t\tdress(0), \"ERC11\n      SUB \t\t\tdress(0), \"ERC11\n      PUSH [tag] 300\t\t\tto != address(0), \"ERC1155: tr...\n      JUMPI \t\t\tto != address(0), \"ERC1155: tr...\n      PUSH 40\t\t\tto != address(0), \"ERC1155: tr...\n      MLOAD \t\t\tto != address(0), \"ERC1155: tr...\n      PUSH 8C379A000000000000000000000000000000000000000000000000000000000\t\t\tto != address(0), \"ERC1155: tr...\n      DUP2 \t\t\tto != address(0), \"ERC1155: tr...\n      MSTORE \t\t\tto != address(0), \"ERC1155: tr...\n      PUSH 4\t\t\tto != address(0), \"ERC1155: tr...\n      ADD \t\t\tto != address(0), \"ERC1155: tr...\n      PUSH [tag] 301\t\t\tto != address(0), \"ERC1155: tr...\n      SWAP1 \t\t\tto != address(0), \"ERC1155: tr...\n      PUSH [tag] 302\t\t\tto != address(0), \"ERC1155: tr...\n      JUMP \t\t\tto != address(0), \"ERC1155: tr...\n    tag 301\t\t\tto != address(0), \"ERC1155: tr...\n      JUMPDEST \t\t\tto != address(0), \"ERC1155: tr...\n      PUSH 40\t\t\tto != address(0), \"ERC1155: tr...\n      MLOAD \t\t\tto != address(0), \"ERC1155: tr...\n      DUP1 \t\t\tto != address(0), \"ERC1155: tr...\n      SWAP2 \t\t\tto != address(0), \"ERC1155: tr...\n      SUB \t\t\tto != address(0), \"ERC1155: tr...\n      SWAP1 \t\t\tto != address(0), \"ERC1155: tr...\n      REVERT \t\t\tto != address(0), \"ERC1155: tr...\n    tag 300\t\t\tto != address(0), \"ERC1155: tr...\n      JUMPDEST \t\t\tto != address(0), \"ERC1155: tr...\n      PUSH 0\t\t\ti = 0; i \n    tag 303\t\t\tt256 i = 0; i < tokenIDs.lengt...\n      JUMPDEST \t\t\tt256 i = 0; i < tokenIDs.lengt...\n      DUP4 \t\t\t.length;\n      MLOAD \t\t\t.length; ++i) {\n      DUP2 \t\t\tn\n      LT \t\t\tnIDs.length; ++i) {\n      ISZERO \t\t\tt256 i = 0; i < tokenIDs.lengt...\n      PUSH [tag] 304\t\t\tt256 i = 0; i < tokenIDs.lengt...\n      JUMPI \t\t\tt256 i = 0; i < tokenIDs.lengt...\n      PUSH [tag] 306\t\t\tlProofsVerified(tokenIDs[i], f...\n      DUP5 \t\t\t[i], fro\n      DUP3 \t\t\t,\n      DUP2 \t\t\t[i], from, \n      MLOAD \t\t\t[i], from, \n      DUP2 \t\t\t[i], from, \n      LT \t\t\t[i], from, \n      PUSH [tag] 307\t\t\t[i], from, \n      JUMPI \t\t\t[i], from, \n      PUSH [tag] 308\t\t\t[i], from, \n      PUSH [tag] 164\t\t\t[i], from, \n      JUMP \t\t\t[i], from, \n    tag 308\t\t\t[i], from, \n      JUMPDEST \t\t\t[i], from, \n    tag 307\t\t\t[i], from, \n      JUMPDEST \t\t\t[i], from, \n      PUSH 20\t\t\t[i], from, \n      MUL \t\t\t[i], from, \n      PUSH 20\t\t\t[i], from, \n      ADD \t\t\t[i], from, \n      ADD \t\t\t[i], from, \n      MLOAD \t\t\t[i], from, \n      DUP8 \t\t\t);\\r\\n\n      DUP8 \t\t\t  \n      PUSH [tag] 309\t\t\tlProofsVerified(tokenID\n      JUMP \t\t\tlProofsVerified(tokenIDs[i], f...\n    tag 306\t\t\tlProofsVerified(tokenIDs[i], f...\n      JUMPDEST \t\t\tlProofsVerified(tokenIDs[i], f...\n      PUSH [tag] 310\t\t\tsferFrom(from, to, tokenIDs[i]...\n      DUP7 \t\t\t, to\n      DUP7 \t\t\tnI\n      DUP7 \t\t\t[i], amo\n      DUP5 \t\t\tn\n      DUP2 \t\t\t[i], amount\n      MLOAD \t\t\t[i], amount\n      DUP2 \t\t\t[i], amount\n      LT \t\t\t[i], amount\n      PUSH [tag] 311\t\t\t[i], amount\n      JUMPI \t\t\t[i], amount\n      PUSH [tag] 312\t\t\t[i], amount\n      PUSH [tag] 164\t\t\t[i], amount\n      JUMP \t\t\t[i], amount\n    tag 312\t\t\t[i], amount\n      JUMPDEST \t\t\t[i], amount\n    tag 311\t\t\t[i], amount\n      JUMPDEST \t\t\t[i], amount\n      PUSH 20\t\t\t[i], amount\n      MUL \t\t\t[i], amount\n      PUSH 20\t\t\t[i], amount\n      ADD \t\t\t[i], amount\n      ADD \t\t\t[i], amount\n      MLOAD \t\t\t[i], amount\n      DUP7 \t\t\ti], dat\n      DUP6 \t\t\t)\n      DUP2 \t\t\ti], data);\n      MLOAD \t\t\ti], data);\n      DUP2 \t\t\ti], data);\n      LT \t\t\ti], data);\n      PUSH [tag] 313\t\t\ti], data);\n      JUMPI \t\t\ti], data);\n      PUSH [tag] 314\t\t\ti], data);\n      PUSH [tag] 164\t\t\ti], data);\n      JUMP \t\t\ti], data);\n    tag 314\t\t\ti], data);\n      JUMPDEST \t\t\ti], data);\n    tag 313\t\t\ti], data);\n      JUMPDEST \t\t\ti], data);\n      PUSH 20\t\t\ti], data);\n      MUL \t\t\ti], data);\n      PUSH 20\t\t\ti], data);\n      ADD \t\t\ti], data);\n      ADD \t\t\ti], data);\n      MLOAD \t\t\ti], data);\n      DUP7 \t\t\t    \n      PUSH [tag] 147\t\t\tsferFrom(from, t\n      JUMP \t\t\tsferFrom(from, to, tokenIDs[i]...\n    tag 310\t\t\tsferFrom(from, to, tokenIDs[i]...\n      JUMPDEST \t\t\tsferFrom(from, to, tokenIDs[i]...\n      DUP1 \t\t\t   \n      PUSH [tag] 315\t\t\t   \n      SWAP1 \t\t\t   \n      PUSH [tag] 169\t\t\t   \n      JUMP \t\t\t   \n    tag 315\t\t\t   \n      JUMPDEST \t\t\t   \n      SWAP1 \t\t\t   \n      POP \t\t\t   \n      PUSH [tag] 303\t\t\tt256 i = 0; i < tokenIDs.lengt...\n      JUMP \t\t\tt256 i = 0; i < tokenIDs.lengt...\n    tag 304\t\t\tt256 i = 0; i < tokenIDs.lengt...\n      JUMPDEST \t\t\tt256 i = 0; i < tokenIDs.lengt...\n      POP \t\t\tt256 i = 0; i < tokenIDs.lengt...\n      POP \t\t\t safeBatchTransferFrom(\\r\\n   ...\n      POP \t\t\t safeBatchTransferFrom(\\r\\n   ...\n      POP \t\t\t safeBatchTransferFrom(\\r\\n   ...\n      POP \t\t\t safeBatchTransferFrom(\\r\\n   ...\n      POP \t\t\t safeBatchTransferFrom(\\r\\n   ...\n      JUMP \t\t\t safeBatchTransferFrom(\\r\\n   ...\n    tag 80\t\t\ting(uint256 => mapping(uint64 ...\n      JUMPDEST \t\t\ting(uint256 => mapping(uint64 ...\n      PUSH 8\t\t\ting(uint256 => mapping(uint64 ...\n      PUSH 20\t\t\ting(uint256 => mapping(uint64 ...\n      MSTORE \t\t\ting(uint256 => mapping(uint64 ...\n      DUP2 \t\t\ting(uint256 => mapping(uint64 ...\n      PUSH 0\t\t\ting(uint256 => mapping(uint64 ...\n      MSTORE \t\t\ting(uint256 => mapping(uint64 ...\n      PUSH 40\t\t\ting(uint256 => mapping(uint64 ...\n      PUSH 0\t\t\ting(uint256 => mapping(uint64 ...\n      KECCAK256 \t\t\ting(uint256 => mapping(uint64 ...\n      PUSH 20\t\t\ting(uint256 => mapping(uint64 ...\n      MSTORE \t\t\ting(uint256 => mapping(uint64 ...\n      DUP1 \t\t\ting(uint256 => mapping(uint64 ...\n      PUSH 0\t\t\ting(uint256 => mapping(uint64 ...\n      MSTORE \t\t\ting(uint256 => mapping(uint64 ...\n      PUSH 40\t\t\ting(uint256 => mapping(uint64 ...\n      PUSH 0\t\t\ting(uint256 => mapping(uint64 ...\n      KECCAK256 \t\t\ting(uint256 => mapping(uint64 ...\n      PUSH 0\t\t\ting(uint256 => mapping(uint64 ...\n      SWAP2 \t\t\ting(uint256 => mapping(uint64 ...\n      POP \t\t\ting(uint256 => mapping(uint64 ...\n      SWAP2 \t\t\ting(uint256 => mapping(uint64 ...\n      POP \t\t\ting(uint256 => mapping(uint64 ...\n      POP \t\t\ting(uint256 => mapping(uint64 ...\n      DUP1 \t\t\ting(uint256 => mapping(uint64 ...\n      SLOAD \t\t\ting(uint256 => mapping(uint64 ...\n      PUSH [tag] 316\t\t\ting(uint256 => mapping(uint64 ...\n      SWAP1 \t\t\ting(uint256 => mapping(uint64 ...\n      PUSH [tag] 166\t\t\ting(uint256 => mapping(uint64 ...\n      JUMP \t\t\ting(uint256 => mapping(uint64 ...\n    tag 316\t\t\ting(uint256 => mapping(uint64 ...\n      JUMPDEST \t\t\ting(uint256 => mapping(uint64 ...\n      DUP1 \t\t\ting(uint256 => mapping(uint64 ...\n      PUSH 1F\t\t\ting(uint256 => mapping(uint64 ...\n      ADD \t\t\ting(uint256 => mapping(uint64 ...\n      PUSH 20\t\t\ting(uint256 => mapping(uint64 ...\n      DUP1 \t\t\ting(uint256 => mapping(uint64 ...\n      SWAP2 \t\t\ting(uint256 => mapping(uint64 ...\n      DIV \t\t\ting(uint256 => mapping(uint64 ...\n      MUL \t\t\ting(uint256 => mapping(uint64 ...\n      PUSH 20\t\t\ting(uint256 => mapping(uint64 ...\n      ADD \t\t\ting(uint256 => mapping(uint64 ...\n      PUSH 40\t\t\ting(uint256 => mapping(uint64 ...\n      MLOAD \t\t\ting(uint256 => mapping(uint64 ...\n      SWAP1 \t\t\ting(uint256 => mapping(uint64 ...\n      DUP2 \t\t\ting(uint256 => mapping(uint64 ...\n      ADD \t\t\ting(uint256 => mapping(uint64 ...\n      PUSH 40\t\t\ting(uint256 => mapping(uint64 ...\n      MSTORE \t\t\ting(uint256 => mapping(uint64 ...\n      DUP1 \t\t\ting(uint256 => mapping(uint64 ...\n      SWAP3 \t\t\ting(uint256 => mapping(uint64 ...\n      SWAP2 \t\t\ting(uint256 => mapping(uint64 ...\n      SWAP1 \t\t\ting(uint256 => mapping(uint64 ...\n      DUP2 \t\t\ting(uint256 => mapping(uint64 ...\n      DUP2 \t\t\ting(uint256 => mapping(uint64 ...\n      MSTORE \t\t\ting(uint256 => mapping(uint64 ...\n      PUSH 20\t\t\ting(uint256 => mapping(uint64 ...\n      ADD \t\t\ting(uint256 => mapping(uint64 ...\n      DUP3 \t\t\ting(uint256 => mapping(uint64 ...\n      DUP1 \t\t\ting(uint256 => mapping(uint64 ...\n      SLOAD \t\t\ting(uint256 => mapping(uint64 ...\n      PUSH [tag] 317\t\t\ting(uint256 => mapping(uint64 ...\n      SWAP1 \t\t\ting(uint256 => mapping(uint64 ...\n      PUSH [tag] 166\t\t\ting(uint256 => mapping(uint64 ...\n      JUMP \t\t\ting(uint256 => mapping(uint64 ...\n    tag 317\t\t\ting(uint256 => mapping(uint64 ...\n      JUMPDEST \t\t\ting(uint256 => mapping(uint64 ...\n      DUP1 \t\t\ting(uint256 => mapping(uint64 ...\n      ISZERO \t\t\ting(uint256 => mapping(uint64 ...\n      PUSH [tag] 318\t\t\ting(uint256 => mapping(uint64 ...\n      JUMPI \t\t\ting(uint256 => mapping(uint64 ...\n      DUP1 \t\t\ting(uint256 => mapping(uint64 ...\n      PUSH 1F\t\t\ting(uint256 => mapping(uint64 ...\n      LT \t\t\ting(uint256 => mapping(uint64 ...\n      PUSH [tag] 319\t\t\ting(uint256 => mapping(uint64 ...\n      JUMPI \t\t\ting(uint256 => mapping(uint64 ...\n      PUSH 100\t\t\ting(uint256 => mapping(uint64 ...\n      DUP1 \t\t\ting(uint256 => mapping(uint64 ...\n      DUP4 \t\t\ting(uint256 => mapping(uint64 ...\n      SLOAD \t\t\ting(uint256 => mapping(uint64 ...\n      DIV \t\t\ting(uint256 => mapping(uint64 ...\n      MUL \t\t\ting(uint256 => mapping(uint64 ...\n      DUP4 \t\t\ting(uint256 => mapping(uint64 ...\n      MSTORE \t\t\ting(uint256 => mapping(uint64 ...\n      SWAP2 \t\t\ting(uint256 => mapping(uint64 ...\n      PUSH 20\t\t\ting(uint256 => mapping(uint64 ...\n      ADD \t\t\ting(uint256 => mapping(uint64 ...\n      SWAP2 \t\t\ting(uint256 => mapping(uint64 ...\n      PUSH [tag] 318\t\t\ting(uint256 => mapping(uint64 ...\n      JUMP \t\t\ting(uint256 => mapping(uint64 ...\n    tag 319\t\t\ting(uint256 => mapping(uint64 ...\n      JUMPDEST \t\t\ting(uint256 => mapping(uint64 ...\n      DUP3 \t\t\ting(uint256 => mapping(uint64 ...\n      ADD \t\t\ting(uint256 => mapping(uint64 ...\n      SWAP2 \t\t\ting(uint256 => mapping(uint64 ...\n      SWAP1 \t\t\ting(uint256 => mapping(uint64 ...\n      PUSH 0\t\t\ting(uint256 => mapping(uint64 ...\n      MSTORE \t\t\ting(uint256 => mapping(uint64 ...\n      PUSH 20\t\t\ting(uint256 => mapping(uint64 ...\n      PUSH 0\t\t\ting(uint256 => mapping(uint64 ...\n      KECCAK256 \t\t\ting(uint256 => mapping(uint64 ...\n      SWAP1 \t\t\ting(uint256 => mapping(uint64 ...\n    tag 320\t\t\ting(uint256 => mapping(uint64 ...\n      JUMPDEST \t\t\ting(uint256 => mapping(uint64 ...\n      DUP2 \t\t\ting(uint256 => mapping(uint64 ...\n      SLOAD \t\t\ting(uint256 => mapping(uint64 ...\n      DUP2 \t\t\ting(uint256 => mapping(uint64 ...\n      MSTORE \t\t\ting(uint256 => mapping(uint64 ...\n      SWAP1 \t\t\ting(uint256 => mapping(uint64 ...\n      PUSH 1\t\t\ting(uint256 => mapping(uint64 ...\n      ADD \t\t\ting(uint256 => mapping(uint64 ...\n      SWAP1 \t\t\ting(uint256 => mapping(uint64 ...\n      PUSH 20\t\t\ting(uint256 => mapping(uint64 ...\n      ADD \t\t\ting(uint256 => mapping(uint64 ...\n      DUP1 \t\t\ting(uint256 => mapping(uint64 ...\n      DUP4 \t\t\ting(uint256 => mapping(uint64 ...\n      GT \t\t\ting(uint256 => mapping(uint64 ...\n      PUSH [tag] 320\t\t\ting(uint256 => mapping(uint64 ...\n      JUMPI \t\t\ting(uint256 => mapping(uint64 ...\n      DUP3 \t\t\ting(uint256 => mapping(uint64 ...\n      SWAP1 \t\t\ting(uint256 => mapping(uint64 ...\n      SUB \t\t\ting(uint256 => mapping(uint64 ...\n      PUSH 1F\t\t\ting(uint256 => mapping(uint64 ...\n      AND \t\t\ting(uint256 => mapping(uint64 ...\n      DUP3 \t\t\ting(uint256 => mapping(uint64 ...\n      ADD \t\t\ting(uint256 => mapping(uint64 ...\n      SWAP2 \t\t\ting(uint256 => mapping(uint64 ...\n    tag 318\t\t\ting(uint256 => mapping(uint64 ...\n      JUMPDEST \t\t\ting(uint256 => mapping(uint64 ...\n      POP \t\t\ting(uint256 => mapping(uint64 ...\n      POP \t\t\ting(uint256 => mapping(uint64 ...\n      POP \t\t\ting(uint256 => mapping(uint64 ...\n      POP \t\t\ting(uint256 => mapping(uint64 ...\n      POP \t\t\ting(uint256 => mapping(uint64 ...\n      DUP2 \t\t\ting(uint256 => mapping(uint64 ...\n      JUMP \t\t\ting(uint256 => mapping(uint64 ...\n    tag 83\t\t\tfunction getAdmins() public vi...\n      JUMPDEST \t\t\tfunction getAdmins() public vi...\n      PUSH 60\t\t\taddress[] memory\n      PUSH [tag] 322\t\t\t  admins.push\n      PUSH [tag] 226\t\t\t  admins.pu\n      JUMP \t\t\t  admins.push\n    tag 322\t\t\t  admins.push\n      JUMPDEST \t\t\t  admins.push\n      PUSH 4\t\t\tadmins\n      DUP1 \t\t\treturn admins\n      SLOAD \t\t\treturn admins\n      DUP1 \t\t\treturn admins\n      PUSH 20\t\t\treturn admins\n      MUL \t\t\treturn admins\n      PUSH 20\t\t\treturn admins\n      ADD \t\t\treturn admins\n      PUSH 40\t\t\treturn admins\n      MLOAD \t\t\treturn admins\n      SWAP1 \t\t\treturn admins\n      DUP2 \t\t\treturn admins\n      ADD \t\t\treturn admins\n      PUSH 40\t\t\treturn admins\n      MSTORE \t\t\treturn admins\n      DUP1 \t\t\treturn admins\n      SWAP3 \t\t\treturn admins\n      SWAP2 \t\t\treturn admins\n      SWAP1 \t\t\treturn admins\n      DUP2 \t\t\treturn admins\n      DUP2 \t\t\treturn admins\n      MSTORE \t\t\treturn admins\n      PUSH 20\t\t\treturn admins\n      ADD \t\t\treturn admins\n      DUP3 \t\t\treturn admins\n      DUP1 \t\t\treturn admins\n      SLOAD \t\t\treturn admins\n      DUP1 \t\t\treturn admins\n      ISZERO \t\t\treturn admins\n      PUSH [tag] 324\t\t\treturn admins\n      JUMPI \t\t\treturn admins\n      PUSH 20\t\t\treturn admins\n      MUL \t\t\treturn admins\n      DUP3 \t\t\treturn admins\n      ADD \t\t\treturn admins\n      SWAP2 \t\t\treturn admins\n      SWAP1 \t\t\treturn admins\n      PUSH 0\t\t\treturn admins\n      MSTORE \t\t\treturn admins\n      PUSH 20\t\t\treturn admins\n      PUSH 0\t\t\treturn admins\n      KECCAK256 \t\t\treturn admins\n      SWAP1 \t\t\treturn admins\n    tag 325\t\t\treturn admins\n      JUMPDEST \t\t\treturn admins\n      DUP2 \t\t\treturn admins\n      PUSH 0\t\t\treturn admins\n      SWAP1 \t\t\treturn admins\n      SLOAD \t\t\treturn admins\n      SWAP1 \t\t\treturn admins\n      PUSH 100\t\t\treturn admins\n      EXP \t\t\treturn admins\n      SWAP1 \t\t\treturn admins\n      DIV \t\t\treturn admins\n      PUSH FFFFFFFFFFFFFFFFFFFFFFFFFFFFFFFFFFFFFFFF\t\t\treturn admins\n      AND \t\t\treturn admins\n      PUSH FFFFFFFFFFFFFFFFFFFFFFFFFFFFFFFFFFFFFFFF\t\t\treturn admins\n      AND \t\t\treturn admins\n      DUP2 \t\t\treturn admins\n      MSTORE \t\t\treturn admins\n      PUSH 20\t\t\treturn admins\n      ADD \t\t\treturn admins\n      SWAP1 \t\t\treturn admins\n      PUSH 1\t\t\treturn admins\n      ADD \t\t\treturn admins\n      SWAP1 \t\t\treturn admins\n      DUP1 \t\t\treturn admins\n      DUP4 \t\t\treturn admins\n      GT \t\t\treturn admins\n      PUSH [tag] 325\t\t\treturn admins\n      JUMPI \t\t\treturn admins\n    tag 324\t\t\treturn admins\n      JUMPDEST \t\t\treturn admins\n      POP \t\t\treturn admins\n      POP \t\t\treturn admins\n      POP \t\t\treturn admins\n      POP \t\t\treturn admins\n      POP \t\t\treturn admins\n      SWAP1 \t\t\treturn admins\n      POP \t\t\treturn admins\n      SWAP1 \t\t\tfunction getAdmins() public vi...\n      JUMP \t\t\tfunction getAdmins() public vi...\n    tag 89\t\t\tping from token ID to its name...\n      JUMPDEST \t\t\tping from token ID to its name...\n      PUSH 60\t\t\t) public tokenNa\n      DUP2 \t\t\tD t\n      MLOAD \t\t\tD to proof\n      DUP4 \t\t\tMapping \n      MLOAD \t\t\tMapping from to\n      EQ \t\t\tMapping from tokenID to proof\n      PUSH [tag] 327\t\t\t // Mapping from tokenID to pr...\n      JUMPI \t\t\t // Mapping from tokenID to pr...\n      DUP2 \t\t\tr '\n      MLOAD \t\t\tr 'receive\n      DUP4 \t\t\t).\\r\\n    \n      MLOAD \t\t\t).\\r\\n    // toke\n      PUSH 40\t\t\t role (a string 'sender' or 'r...\n      MLOAD \t\t\t role (a string 'sender' or 'r...\n      PUSH 5B05999100000000000000000000000000000000000000000000000000000000\t\t\t role (a string 'sender' or 'r...\n      DUP2 \t\t\t role (a string 'sender' or 'r...\n      MSTORE \t\t\t role (a string 'sender' or 'r...\n      PUSH 4\t\t\t role (a string 'sender' or 'r...\n      ADD \t\t\t role (a string 'sender' or 'r...\n      PUSH [tag] 328\t\t\t role (a string 'sender' or 'r...\n      SWAP3 \t\t\t role (a string 'sender' or 'r...\n      SWAP2 \t\t\t role (a string 'sender' or 'r...\n      SWAP1 \t\t\t role (a string 'sender' or 'r...\n      PUSH [tag] 329\t\t\t role (a string 'sender' or 'r...\n      JUMP \t\t\t role (a string 'sender' or 'r...\n    tag 328\t\t\t role (a string 'sender' or 'r...\n      JUMPDEST \t\t\t role (a string 'sender' or 'r...\n      PUSH 40\t\t\t role (a string 'sender' or 'r...\n      MLOAD \t\t\t role (a string 'sender' or 'r...\n      DUP1 \t\t\t role (a string 'sender' or 'r...\n      SWAP2 \t\t\t role (a string 'sender' or 'r...\n      SUB \t\t\t role (a string 'sender' or 'r...\n      SWAP1 \t\t\t role (a string 'sender' or 'r...\n      REVERT \t\t\t role (a string 'sender' or 'r...\n    tag 327\t\t\t // Mapping from tokenID to pr...\n      JUMPDEST \t\t\t // Mapping from tokenID to pr...\n      PUSH 0\t\t\t→ 'sender' or 'receiver')\\r\\n ...\n      DUP4 \t\t\t=> mappi\n      MLOAD \t\t\t=> mapping(uint\n      PUSH FFFFFFFFFFFFFFFF\t\t\tpping(uint256 => mapping(uint6\n      DUP2 \t\t\tpping(uint256 => mapping(uint6\n      GT \t\t\tpping(uint256 => mapping(uint6\n      ISZERO \t\t\tpping(uint256 => mapping(uint6\n      PUSH [tag] 330\t\t\tpping(uint256 => mapping(uint6\n      JUMPI \t\t\tpping(uint256 => mapping(uint6\n      PUSH [tag] 331\t\t\tpping(uint256 => mapping(uint6\n      PUSH [tag] 173\t\t\tpping(uint256 => mapping(uint6\n      JUMP \t\t\tpping(uint256 => mapping(uint6\n    tag 331\t\t\tpping(uint256 => mapping(uint6\n      JUMPDEST \t\t\tpping(uint256 => mapping(uint6\n    tag 330\t\t\tpping(uint256 => mapping(uint6\n      JUMPDEST \t\t\tpping(uint256 => mapping(uint6\n      PUSH 40\t\t\tpping(uint256 => mapping(uint6\n      MLOAD \t\t\tpping(uint256 => mapping(uint6\n      SWAP1 \t\t\tpping(uint256 => mapping(uint6\n      DUP1 \t\t\tpping(uint256 => mapping(uint6\n      DUP3 \t\t\tpping(uint256 => mapping(uint6\n      MSTORE \t\t\tpping(uint256 => mapping(uint6\n      DUP1 \t\t\tpping(uint256 => mapping(uint6\n      PUSH 20\t\t\tpping(uint256 => mapping(uint6\n      MUL \t\t\tpping(uint256 => mapping(uint6\n      PUSH 20\t\t\tpping(uint256 => mapping(uint6\n      ADD \t\t\tpping(uint256 => mapping(uint6\n      DUP3 \t\t\tpping(uint256 => mapping(uint6\n      ADD \t\t\tpping(uint256 => mapping(uint6\n      PUSH 40\t\t\tpping(uint256 => mapping(uint6\n      MSTORE \t\t\tpping(uint256 => mapping(uint6\n      DUP1 \t\t\tpping(uint256 => mapping(uint6\n      ISZERO \t\t\tpping(uint256 => mapping(uint6\n      PUSH [tag] 332\t\t\tpping(uint256 => mapping(uint6\n      JUMPI \t\t\tpping(uint256 => mapping(uint6\n      DUP2 \t\t\tpping(uint256 => mapping(uint6\n      PUSH 20\t\t\tpping(uint256 => mapping(uint6\n      ADD \t\t\tpping(uint256 => mapping(uint6\n      PUSH 20\t\t\tpping(uint256 => mapping(uint6\n      DUP3 \t\t\tpping(uint256 => mapping(uint6\n      MUL \t\t\tpping(uint256 => mapping(uint6\n      DUP1 \t\t\tpping(uint256 => mapping(uint6\n      CALLDATASIZE \t\t\tpping(uint256 => mapping(uint6\n      DUP4 \t\t\tpping(uint256 => mapping(uint6\n      CALLDATACOPY \t\t\tpping(uint256 => mapping(uint6\n      DUP1 \t\t\tpping(uint256 => mapping(uint6\n      DUP3 \t\t\tpping(uint256 => mapping(uint6\n      ADD \t\t\tpping(uint256 => mapping(uint6\n      SWAP2 \t\t\tpping(uint256 => mapping(uint6\n      POP \t\t\tpping(uint256 => mapping(uint6\n      POP \t\t\tpping(uint256 => mapping(uint6\n      SWAP1 \t\t\tpping(uint256 => mapping(uint6\n      POP \t\t\tpping(uint256 => mapping(uint6\n    tag 332\t\t\tpping(uint256 => mapping(uint6\n      JUMPDEST \t\t\tpping(uint256 => mapping(uint6\n      POP \t\t\tpping(uint256 => mapping(uint6\n      SWAP1 \t\t\t→ 'sender' or 'receiver')\\r\\n ...\n      POP \t\t\t→ 'sender' or 'receiver')\\r\\n ...\n      PUSH 0\t\t\tblic toke\n    tag 333\t\t\t)) public tokenID_proofRequest...\n      JUMPDEST \t\t\t)) public tokenID_proofRequest...\n      DUP5 \t\t\tequest_r\n      MLOAD \t\t\tequest_role;\\r\\n\\r\n      DUP2 \t\t\to\n      LT \t\t\toofRequest_role;\\r\\n\\r\n      ISZERO \t\t\t)) public tokenID_proofRequest...\n      PUSH [tag] 334\t\t\t)) public tokenID_proofRequest...\n      JUMPI \t\t\t)) public tokenID_proofRequest...\n      PUSH [tag] 336\t\t\tondition\\r\\n    struct Spendin...\n      PUSH [tag] 337\t\t\t    struct SpendingCondition {\n      DUP3 \t\t\t \n      DUP8 \t\t\t    stru\n      PUSH [tag] 338\t\t\t    struct SpendingConditio\n      SWAP1 \t\t\t    struct SpendingConditio\n      SWAP2 \t\t\t    struct SpendingCondition {\n      SWAP1 \t\t\t    struct SpendingCondition {\n      PUSH FFFFFFFF\t\t\t    struct SpendingCondition {\n      AND \t\t\t    struct SpendingCondition {\n      JUMP \t\t\t    struct SpendingCondition {\n    tag 337\t\t\t    struct SpendingCondition {\n      JUMPDEST \t\t\t    struct SpendingCondition {\n      PUSH [tag] 339\t\t\t        string attribute;\n      DUP4 \t\t\te\n      DUP8 \t\t\t   \n      PUSH [tag] 340\t\t\t        string attribu\n      SWAP1 \t\t\t        string attribu\n      SWAP2 \t\t\t        string attribute;\n      SWAP1 \t\t\t        string attribute;\n      PUSH FFFFFFFF\t\t\t        string attribute;\n      AND \t\t\t        string attribute;\n      JUMP \t\t\t        string attribute;\n    tag 339\t\t\t        string attribute;\n      JUMPDEST \t\t\t        string attribute;\n      PUSH [tag] 41\t\t\tondition\\r\n      JUMP \t\t\tondition\\r\\n    struct Spendin...\n    tag 336\t\t\tondition\\r\\n    struct Spendin...\n      JUMPDEST \t\t\tondition\\r\\n    struct Spendin...\n      DUP3 \t\t\tresent a spen\n      DUP3 \t\t\ti\n      DUP2 \t\t\tresent a spendin\n      MLOAD \t\t\tresent a spendin\n      DUP2 \t\t\tresent a spendin\n      LT \t\t\tresent a spendin\n      PUSH [tag] 341\t\t\tresent a spendin\n      JUMPI \t\t\tresent a spendin\n      PUSH [tag] 342\t\t\tresent a spendin\n      PUSH [tag] 164\t\t\tresent a spendin\n      JUMP \t\t\tresent a spendin\n    tag 342\t\t\tresent a spendin\n      JUMPDEST \t\t\tresent a spendin\n    tag 341\t\t\tresent a spendin\n      JUMPDEST \t\t\tresent a spendin\n      PUSH 20\t\t\tresent a spendin\n      MUL \t\t\tresent a spendin\n      PUSH 20\t\t\tresent a spendin\n      ADD \t\t\tresent a spendin\n      ADD \t\t\tresent a spendin\n      DUP2 \t\t\tresent a spending condition\\r\\...\n      DUP2 \t\t\tresent a spending condition\\r\\...\n      MSTORE \t\t\tresent a spending condition\\r\\...\n      POP \t\t\tresent a spending condition\\r\\...\n      POP \t\t\tresent a spending condition\\r\\...\n      DUP1 \t\t\t   \n      PUSH [tag] 343\t\t\t   \n      SWAP1 \t\t\t   \n      PUSH [tag] 169\t\t\t   \n      JUMP \t\t\t   \n    tag 343\t\t\t   \n      JUMPDEST \t\t\t   \n      SWAP1 \t\t\t   \n      POP \t\t\t   \n      PUSH [tag] 333\t\t\t)) public tokenID_proofRequest...\n      JUMP \t\t\t)) public tokenID_proofRequest...\n    tag 334\t\t\t)) public tokenID_proofRequest...\n      JUMPDEST \t\t\t)) public tokenID_proofRequest...\n      POP \t\t\t)) public tokenID_proofRequest...\n      DUP1 \t\t\t\\r\\n        str\n      SWAP2 \t\t\ttorStr;\\r\\n        str\n      POP \t\t\ttorStr;\\r\\n        str\n      POP \t\t\ttorStr;\\r\\n        str\n      SWAP3 \t\t\tping from token ID to its name...\n      SWAP2 \t\t\tping from token ID to its name...\n      POP \t\t\tping from token ID to its name...\n      POP \t\t\tping from token ID to its name...\n      JUMP \t\t\tping from token ID to its name...\n    tag 94\t\t\ttion deleteProofRequestAndRole...\n      JUMPDEST \t\t\ttion deleteProofRequestAndRole...\n      PUSH [tag] 345\t\t\t_isAdmin(msg.sender)\n      CALLER \t\t\tmsg.sender\n      PUSH [tag] 346\t\t\t_isAdmin\n      JUMP \t\t\t_isAdmin(msg.sender)\n    tag 345\t\t\t_isAdmin(msg.sender)\n      JUMPDEST \t\t\t_isAdmin(msg.sender)\n      PUSH [tag] 347\t\t\trequire(_isAdmin(msg.sender), ...\n      JUMPI \t\t\trequire(_isAdmin(msg.sender), ...\n      PUSH 40\t\t\trequire(_isAdmin(msg.sender), ...\n      MLOAD \t\t\trequire(_isAdmin(msg.sender), ...\n      PUSH 8C379A000000000000000000000000000000000000000000000000000000000\t\t\trequire(_isAdmin(msg.sender), ...\n      DUP2 \t\t\trequire(_isAdmin(msg.sender), ...\n      MSTORE \t\t\trequire(_isAdmin(msg.sender), ...\n      PUSH 4\t\t\trequire(_isAdmin(msg.sender), ...\n      ADD \t\t\trequire(_isAdmin(msg.sender), ...\n      PUSH [tag] 348\t\t\trequire(_isAdmin(msg.sender), ...\n      SWAP1 \t\t\trequire(_isAdmin(msg.sender), ...\n      PUSH [tag] 349\t\t\trequire(_isAdmin(msg.sender), ...\n      JUMP \t\t\trequire(_isAdmin(msg.sender), ...\n    tag 348\t\t\trequire(_isAdmin(msg.sender), ...\n      JUMPDEST \t\t\trequire(_isAdmin(msg.sender), ...\n      PUSH 40\t\t\trequire(_isAdmin(msg.sender), ...\n      MLOAD \t\t\trequire(_isAdmin(msg.sender), ...\n      DUP1 \t\t\trequire(_isAdmin(msg.sender), ...\n      SWAP2 \t\t\trequire(_isAdmin(msg.sender), ...\n      SUB \t\t\trequire(_isAdmin(msg.sender), ...\n      SWAP1 \t\t\trequire(_isAdmin(msg.sender), ...\n      REVERT \t\t\trequire(_isAdmin(msg.sender), ...\n    tag 347\t\t\trequire(_isAdmin(msg.sender), ...\n      JUMPDEST \t\t\trequire(_isAdmin(msg.sender), ...\n      PUSH [tag] 351\t\t\tTokenIDs.contains(tokenID), \"t\n      DUP3 \t\t\tnID), \"\n      PUSH 5\t\t\tTokenIDs.con\n      PUSH [tag] 287\t\t\tTokenIDs.contains(tok\n      SWAP1 \t\t\tTokenIDs.contains(tok\n      SWAP2 \t\t\tTokenIDs.contains(tokenID), \"t\n      SWAP1 \t\t\tTokenIDs.contains(tokenID), \"t\n      PUSH FFFFFFFF\t\t\tTokenIDs.contains(tokenID), \"t\n      AND \t\t\tTokenIDs.contains(tokenID), \"t\n      JUMP \t\t\tTokenIDs.contains(tokenID), \"t\n    tag 351\t\t\tTokenIDs.contains(tokenID), \"t\n      JUMPDEST \t\t\tTokenIDs.contains(tokenID), \"t\n      PUSH [tag] 352\t\t\tire(_allTokenIDs.contains(toke...\n      JUMPI \t\t\tire(_allTokenIDs.contains(toke...\n      PUSH 40\t\t\tire(_allTokenIDs.contains(toke...\n      MLOAD \t\t\tire(_allTokenIDs.contains(toke...\n      PUSH 8C379A000000000000000000000000000000000000000000000000000000000\t\t\tire(_allTokenIDs.contains(toke...\n      DUP2 \t\t\tire(_allTokenIDs.contains(toke...\n      MSTORE \t\t\tire(_allTokenIDs.contains(toke...\n      PUSH 4\t\t\tire(_allTokenIDs.contains(toke...\n      ADD \t\t\tire(_allTokenIDs.contains(toke...\n      PUSH [tag] 353\t\t\tire(_allTokenIDs.contains(toke...\n      SWAP1 \t\t\tire(_allTokenIDs.contains(toke...\n      PUSH [tag] 354\t\t\tire(_allTokenIDs.contains(toke...\n      JUMP \t\t\tire(_allTokenIDs.contains(toke...\n    tag 353\t\t\tire(_allTokenIDs.contains(toke...\n      JUMPDEST \t\t\tire(_allTokenIDs.contains(toke...\n      PUSH 40\t\t\tire(_allTokenIDs.contains(toke...\n      MLOAD \t\t\tire(_allTokenIDs.contains(toke...\n      DUP1 \t\t\tire(_allTokenIDs.contains(toke...\n      SWAP2 \t\t\tire(_allTokenIDs.contains(toke...\n      SUB \t\t\tire(_allTokenIDs.contains(toke...\n      SWAP1 \t\t\tire(_allTokenIDs.contains(toke...\n      REVERT \t\t\tire(_allTokenIDs.contains(toke...\n    tag 352\t\t\tire(_allTokenIDs.contains(toke...\n      JUMPDEST \t\t\tire(_allTokenIDs.contains(toke...\n      PUSH 0\t\t\tP\n      PUSH 8\t\t\tnID_proofRequest_role[tok\n      PUSH 0\t\t\tnID_proofRequest_role[tokenID]...\n      DUP5 \t\t\tnID][re\n      DUP2 \t\t\tnID_proofRequest_role[tokenID]...\n      MSTORE \t\t\tnID_proofRequest_role[tokenID]...\n      PUSH 20\t\t\tnID_proofRequest_role[tokenID]...\n      ADD \t\t\tnID_proofRequest_role[tokenID]...\n      SWAP1 \t\t\tnID_proofRequest_role[tokenID]...\n      DUP2 \t\t\tnID_proofRequest_role[tokenID]...\n      MSTORE \t\t\tnID_proofRequest_role[tokenID]...\n      PUSH 20\t\t\tnID_proofRequest_role[tokenID]...\n      ADD \t\t\tnID_proofRequest_role[tokenID]...\n      PUSH 0\t\t\tnID_proofRequest_role[tokenID]...\n      KECCAK256 \t\t\tnID_proofRequest_role[tokenID]...\n      PUSH 0\t\t\tnID_proofRequest_role[tokenID]...\n      DUP4 \t\t\testID]).l\n      PUSH FFFFFFFFFFFFFFFF\t\t\tnID_proofRequest_role[tokenID]...\n      AND \t\t\tnID_proofRequest_role[tokenID]...\n      PUSH FFFFFFFFFFFFFFFF\t\t\tnID_proofRequest_role[tokenID]...\n      AND \t\t\tnID_proofRequest_role[tokenID]...\n      DUP2 \t\t\tnID_proofRequest_role[tokenID]...\n      MSTORE \t\t\tnID_proofRequest_role[tokenID]...\n      PUSH 20\t\t\tnID_proofRequest_role[tokenID]...\n      ADD \t\t\tnID_proofRequest_role[tokenID]...\n      SWAP1 \t\t\tnID_proofRequest_role[tokenID]...\n      DUP2 \t\t\tnID_proofRequest_role[tokenID]...\n      MSTORE \t\t\tnID_proofRequest_role[tokenID]...\n      PUSH 20\t\t\tnID_proofRequest_role[tokenID]...\n      ADD \t\t\tnID_proofRequest_role[tokenID]...\n      PUSH 0\t\t\tnID_proofRequest_role[tokenID]...\n      KECCAK256 \t\t\tnID_proofRequest_role[tokenID]...\n      DUP1 \t\t\ts(tokenID_proofRequest_role[to...\n      SLOAD \t\t\ts(tokenID_proofRequest_role[to...\n      PUSH [tag] 355\t\t\ts(tokenID_proofRequest_role[to...\n      SWAP1 \t\t\ts(tokenID_proofRequest_role[to...\n      PUSH [tag] 166\t\t\ts(tokenID_proofRequest_role[to...\n      JUMP \t\t\ts(tokenID_proofRequest_role[to...\n    tag 355\t\t\ts(tokenID_proofRequest_role[to...\n      JUMPDEST \t\t\ts(tokenID_proofRequest_role[to...\n      SWAP1 \t\t\ts(tokenID_proofRequest_role[to...\n      POP \t\t\ts(tokenID_proofRequest_role[to...\n      SUB \t\t\ts(tokenID_proofRequest_role[to...\n      PUSH [tag] 356\t\t\tire(bytes(tokenID_proofRequest...\n      JUMPI \t\t\tire(bytes(tokenID_proofRequest...\n      PUSH 40\t\t\tire(bytes(tokenID_proofRequest...\n      MLOAD \t\t\tire(bytes(tokenID_proofRequest...\n      PUSH 8C379A000000000000000000000000000000000000000000000000000000000\t\t\tire(bytes(tokenID_proofRequest...\n      DUP2 \t\t\tire(bytes(tokenID_proofRequest...\n      MSTORE \t\t\tire(bytes(tokenID_proofRequest...\n      PUSH 4\t\t\tire(bytes(tokenID_proofRequest...\n      ADD \t\t\tire(bytes(tokenID_proofRequest...\n      PUSH [tag] 357\t\t\tire(bytes(tokenID_proofRequest...\n      SWAP1 \t\t\tire(bytes(tokenID_proofRequest...\n      PUSH [tag] 358\t\t\tire(bytes(tokenID_proofRequest...\n      JUMP \t\t\tire(bytes(tokenID_proofRequest...\n    tag 357\t\t\tire(bytes(tokenID_proofRequest...\n      JUMPDEST \t\t\tire(bytes(tokenID_proofRequest...\n      PUSH 40\t\t\tire(bytes(tokenID_proofRequest...\n      MLOAD \t\t\tire(bytes(tokenID_proofRequest...\n      DUP1 \t\t\tire(bytes(tokenID_proofRequest...\n      SWAP2 \t\t\tire(bytes(tokenID_proofRequest...\n      SUB \t\t\tire(bytes(tokenID_proofRequest...\n      SWAP1 \t\t\tire(bytes(tokenID_proofRequest...\n      REVERT \t\t\tire(bytes(tokenID_proofRequest...\n    tag 356\t\t\tire(bytes(tokenID_proofRequest...\n      JUMPDEST \t\t\tire(bytes(tokenID_proofRequest...\n      PUSH 8\t\t\tnID_proofRequest_role[tok\n      PUSH 0\t\t\tnID_proofRequest_role[tokenID]...\n      DUP4 \t\t\tnID][re\n      DUP2 \t\t\tnID_proofRequest_role[tokenID]...\n      MSTORE \t\t\tnID_proofRequest_role[tokenID]...\n      PUSH 20\t\t\tnID_proofRequest_role[tokenID]...\n      ADD \t\t\tnID_proofRequest_role[tokenID]...\n      SWAP1 \t\t\tnID_proofRequest_role[tokenID]...\n      DUP2 \t\t\tnID_proofRequest_role[tokenID]...\n      MSTORE \t\t\tnID_proofRequest_role[tokenID]...\n      PUSH 20\t\t\tnID_proofRequest_role[tokenID]...\n      ADD \t\t\tnID_proofRequest_role[tokenID]...\n      PUSH 0\t\t\tnID_proofRequest_role[tokenID]...\n      KECCAK256 \t\t\tnID_proofRequest_role[tokenID]...\n      PUSH 0\t\t\tnID_proofRequest_role[tokenID]...\n      DUP3 \t\t\testID];\\r\\n\n      PUSH FFFFFFFFFFFFFFFF\t\t\tnID_proofRequest_role[tokenID]...\n      AND \t\t\tnID_proofRequest_role[tokenID]...\n      PUSH FFFFFFFFFFFFFFFF\t\t\tnID_proofRequest_role[tokenID]...\n      AND \t\t\tnID_proofRequest_role[tokenID]...\n      DUP2 \t\t\tnID_proofRequest_role[tokenID]...\n      MSTORE \t\t\tnID_proofRequest_role[tokenID]...\n      PUSH 20\t\t\tnID_proofRequest_role[tokenID]...\n      ADD \t\t\tnID_proofRequest_role[tokenID]...\n      SWAP1 \t\t\tnID_proofRequest_role[tokenID]...\n      DUP2 \t\t\tnID_proofRequest_role[tokenID]...\n      MSTORE \t\t\tnID_proofRequest_role[tokenID]...\n      PUSH 20\t\t\tnID_proofRequest_role[tokenID]...\n      ADD \t\t\tnID_proofRequest_role[tokenID]...\n      PUSH 0\t\t\tnID_proofRequest_role[tokenID]...\n      KECCAK256 \t\t\tnID_proofRequest_role[tokenID]...\n      PUSH 0\t\t\tnID_proofRequest_role[tokenID]...\n      PUSH [tag] 359\t\t\tte tokenID_proofRequest_role[t...\n      SWAP2 \t\t\tte tokenID_proofRequest_role[t...\n      SWAP1 \t\t\tte tokenID_proofRequest_role[t...\n      PUSH [tag] 360\t\t\tte tokenID_proofRequest_role[t...\n      JUMP \t\t\tte tokenID_proofRequest_role[t...\n    tag 359\t\t\tte tokenID_proofRequest_role[t...\n      JUMPDEST \t\t\tte tokenID_proofRequest_role[t...\n      PUSH 9\t\t\tdingConditions[tok\n      PUSH 0\t\t\tdingConditions[tokenID][req\n      DUP4 \t\t\tnID][re\n      DUP2 \t\t\tdingConditions[tokenID][req\n      MSTORE \t\t\tdingConditions[tokenID][req\n      PUSH 20\t\t\tdingConditions[tokenID][req\n      ADD \t\t\tdingConditions[tokenID][req\n      SWAP1 \t\t\tdingConditions[tokenID][req\n      DUP2 \t\t\tdingConditions[tokenID][req\n      MSTORE \t\t\tdingConditions[tokenID][req\n      PUSH 20\t\t\tdingConditions[tokenID][req\n      ADD \t\t\tdingConditions[tokenID][req\n      PUSH 0\t\t\tdingConditions[tokenID][req\n      KECCAK256 \t\t\tdingConditions[tokenID][req\n      PUSH 0\t\t\tdingConditions[tokenID][reques...\n      DUP3 \t\t\testID];\\r\\n\n      PUSH FFFFFFFFFFFFFFFF\t\t\tdingConditions[tokenID][reques...\n      AND \t\t\tdingConditions[tokenID][reques...\n      PUSH FFFFFFFFFFFFFFFF\t\t\tdingConditions[tokenID][reques...\n      AND \t\t\tdingConditions[tokenID][reques...\n      DUP2 \t\t\tdingConditions[tokenID][reques...\n      MSTORE \t\t\tdingConditions[tokenID][reques...\n      PUSH 20\t\t\tdingConditions[tokenID][reques...\n      ADD \t\t\tdingConditions[tokenID][reques...\n      SWAP1 \t\t\tdingConditions[tokenID][reques...\n      DUP2 \t\t\tdingConditions[tokenID][reques...\n      MSTORE \t\t\tdingConditions[tokenID][reques...\n      PUSH 20\t\t\tdingConditions[tokenID][reques...\n      ADD \t\t\tdingConditions[tokenID][reques...\n      PUSH 0\t\t\tdingConditions[tokenID][reques...\n      KECCAK256 \t\t\tdingConditions[tokenID][reques...\n      PUSH 0\t\t\tdingConditions[tokenID][reques...\n      DUP1 \t\t\tte spendingConditions[tokenID]...\n      DUP3 \t\t\tte spendingConditions[tokenID]...\n      ADD \t\t\tte spendingConditions[tokenID]...\n      PUSH 0\t\t\tte spendingConditions[tokenID]...\n      PUSH [tag] 361\t\t\tte spendingConditions[tokenID]...\n      SWAP2 \t\t\tte spendingConditions[tokenID]...\n      SWAP1 \t\t\tte spendingConditions[tokenID]...\n      PUSH [tag] 360\t\t\tte spendingConditions[tokenID]...\n      JUMP \t\t\tte spendingConditions[tokenID]...\n    tag 361\t\t\tte spendingConditions[tokenID]...\n      JUMPDEST \t\t\tte spendingConditions[tokenID]...\n      PUSH 1\t\t\tte spendingConditions[tokenID]...\n      DUP3 \t\t\tte spendingConditions[tokenID]...\n      ADD \t\t\tte spendingConditions[tokenID]...\n      PUSH 0\t\t\tte spendingConditions[tokenID]...\n      PUSH [tag] 362\t\t\tte spendingConditions[tokenID]...\n      SWAP2 \t\t\tte spendingConditions[tokenID]...\n      SWAP1 \t\t\tte spendingConditions[tokenID]...\n      PUSH [tag] 360\t\t\tte spendingConditions[tokenID]...\n      JUMP \t\t\tte spendingConditions[tokenID]...\n    tag 362\t\t\tte spendingConditions[tokenID]...\n      JUMPDEST \t\t\tte spendingConditions[tokenID]...\n      PUSH 2\t\t\tte spendingConditions[tokenID]...\n      DUP3 \t\t\tte spendingConditions[tokenID]...\n      ADD \t\t\tte spendingConditions[tokenID]...\n      PUSH 0\t\t\tte spendingConditions[tokenID]...\n      PUSH [tag] 363\t\t\tte spendingConditions[tokenID]...\n      SWAP2 \t\t\tte spendingConditions[tokenID]...\n      SWAP1 \t\t\tte spendingConditions[tokenID]...\n      PUSH [tag] 360\t\t\tte spendingConditions[tokenID]...\n      JUMP \t\t\tte spendingConditions[tokenID]...\n    tag 363\t\t\tte spendingConditions[tokenID]...\n      JUMPDEST \t\t\tte spendingConditions[tokenID]...\n      POP \t\t\tte spendingConditions[tokenID]...\n      POP \t\t\tte spendingConditions[tokenID]...\n      PUSH 0\t\t\t256 i = 0\n    tag 364\t\t\t(uint256 i = 0; i < proofReque...\n      JUMPDEST \t\t\t(uint256 i = 0; i < proofReque...\n      PUSH A\t\t\tfRequestIDs.len\n      DUP1 \t\t\tfRequestIDs.length; i+\n      SLOAD \t\t\tfRequestIDs.length; i+\n      SWAP1 \t\t\tfRequestIDs.length; i+\n      POP \t\t\tfRequestIDs.length; i+\n      DUP2 \t\t\tp\n      LT \t\t\tproofRequestIDs.length; i+\n      ISZERO \t\t\t(uint256 i = 0; i < proofReque...\n      PUSH [tag] 365\t\t\t(uint256 i = 0; i < proofReque...\n      JUMPI \t\t\t(uint256 i = 0; i < proofReque...\n      DUP2 \t\t\testID) {\\r\n      PUSH FFFFFFFFFFFFFFFF\t\t\tfRequestIDs[i] == requestID) {...\n      AND \t\t\tfRequestIDs[i] == requestID) {...\n      PUSH A\t\t\tfRequestIDs[i] \n      DUP3 \t\t\t=\n      DUP2 \t\t\tfRequestIDs[i] == \n      SLOAD \t\t\tfRequestIDs[i] == \n      DUP2 \t\t\tfRequestIDs[i] == \n      LT \t\t\tfRequestIDs[i] == \n      PUSH [tag] 367\t\t\tfRequestIDs[i] == \n      JUMPI \t\t\tfRequestIDs[i] == \n      PUSH [tag] 368\t\t\tfRequestIDs[i] == \n      PUSH [tag] 164\t\t\tfRequestIDs[i] == \n      JUMP \t\t\tfRequestIDs[i] == \n    tag 368\t\t\tfRequestIDs[i] == \n      JUMPDEST \t\t\tfRequestIDs[i] == \n    tag 367\t\t\tfRequestIDs[i] == \n      JUMPDEST \t\t\tfRequestIDs[i] == \n      SWAP1 \t\t\tfRequestIDs[i] == \n      PUSH 0\t\t\tfRequestIDs[i] == \n      MSTORE \t\t\tfRequestIDs[i] == \n      PUSH 20\t\t\tfRequestIDs[i] == \n      PUSH 0\t\t\tfRequestIDs[i] == \n      KECCAK256 \t\t\tfRequestIDs[i] == \n      SWAP1 \t\t\tfRequestIDs[i] == \n      PUSH 4\t\t\tfRequestIDs[i] == \n      SWAP2 \t\t\tfRequestIDs[i] == \n      DUP3 \t\t\tfRequestIDs[i] == \n      DUP3 \t\t\tfRequestIDs[i] == \n      DIV \t\t\tfRequestIDs[i] == \n      ADD \t\t\tfRequestIDs[i] == \n      SWAP2 \t\t\tfRequestIDs[i] == \n      SWAP1 \t\t\tfRequestIDs[i] == \n      MOD \t\t\tfRequestIDs[i] == \n      PUSH 8\t\t\tfRequestIDs[i] == \n      MUL \t\t\tfRequestIDs[i] == \n      SWAP1 \t\t\tfRequestIDs[i] == \n      SLOAD \t\t\tfRequestIDs[i] == \n      SWAP1 \t\t\tfRequestIDs[i] == \n      PUSH 100\t\t\tfRequestIDs[i] == \n      EXP \t\t\tfRequestIDs[i] == \n      SWAP1 \t\t\tfRequestIDs[i] == \n      DIV \t\t\tfRequestIDs[i] == \n      PUSH FFFFFFFFFFFFFFFF\t\t\tfRequestIDs[i] == \n      AND \t\t\tfRequestIDs[i] == \n      PUSH FFFFFFFFFFFFFFFF\t\t\tfRequestIDs[i] == requestID) {...\n      AND \t\t\tfRequestIDs[i] == requestID) {...\n      SUB \t\t\tfRequestIDs[i] == requestID) {...\n      PUSH [tag] 370\t\t\tproofRequestIDs[i] == requestI...\n      JUMPI \t\t\tproofRequestIDs[i] == requestI...\n      PUSH A\t\t\tfRequestIDs[pro\n      PUSH 1\t\t\t\\n\n      PUSH A\t\t\tfRequestIDs.len\n      DUP1 \t\t\tfRequestIDs.length - 1\n      SLOAD \t\t\tfRequestIDs.length - 1\n      SWAP1 \t\t\tfRequestIDs.length - 1\n      POP \t\t\tfRequestIDs.length - 1\n      PUSH [tag] 371\t\t\tfRequestIDs.length - 1];\\r\\n\n      SWAP2 \t\t\tfRequestIDs.length - 1];\\r\\n\n      SWAP1 \t\t\tfRequestIDs.length - 1];\\r\\n\n      PUSH [tag] 236\t\t\tfRequestIDs.length - 1];\\r\\n\n      JUMP \t\t\tfRequestIDs.length - 1];\\r\\n\n    tag 371\t\t\tfRequestIDs.length - 1];\\r\\n\n      JUMPDEST \t\t\tfRequestIDs.length - 1];\\r\\n\n      DUP2 \t\t\tfRequestIDs[proofRequestIDs.le...\n      SLOAD \t\t\tfRequestIDs[proofRequestIDs.le...\n      DUP2 \t\t\tfRequestIDs[proofRequestIDs.le...\n      LT \t\t\tfRequestIDs[proofRequestIDs.le...\n      PUSH [tag] 372\t\t\tfRequestIDs[proofRequestIDs.le...\n      JUMPI \t\t\tfRequestIDs[proofRequestIDs.le...\n      PUSH [tag] 373\t\t\tfRequestIDs[proofRequestIDs.le...\n      PUSH [tag] 164\t\t\tfRequestIDs[proofRequestIDs.le...\n      JUMP \t\t\tfRequestIDs[proofRequestIDs.le...\n    tag 373\t\t\tfRequestIDs[proofRequestIDs.le...\n      JUMPDEST \t\t\tfRequestIDs[proofRequestIDs.le...\n    tag 372\t\t\tfRequestIDs[proofRequestIDs.le...\n      JUMPDEST \t\t\tfRequestIDs[proofRequestIDs.le...\n      SWAP1 \t\t\tfRequestIDs[proofRequestIDs.le...\n      PUSH 0\t\t\tfRequestIDs[proofRequestIDs.le...\n      MSTORE \t\t\tfRequestIDs[proofRequestIDs.le...\n      PUSH 20\t\t\tfRequestIDs[proofRequestIDs.le...\n      PUSH 0\t\t\tfRequestIDs[proofRequestIDs.le...\n      KECCAK256 \t\t\tfRequestIDs[proofRequestIDs.le...\n      SWAP1 \t\t\tfRequestIDs[proofRequestIDs.le...\n      PUSH 4\t\t\tfRequestIDs[proofRequestIDs.le...\n      SWAP2 \t\t\tfRequestIDs[proofRequestIDs.le...\n      DUP3 \t\t\tfRequestIDs[proofRequestIDs.le...\n      DUP3 \t\t\tfRequestIDs[proofRequestIDs.le...\n      DIV \t\t\tfRequestIDs[proofRequestIDs.le...\n      ADD \t\t\tfRequestIDs[proofRequestIDs.le...\n      SWAP2 \t\t\tfRequestIDs[proofRequestIDs.le...\n      SWAP1 \t\t\tfRequestIDs[proofRequestIDs.le...\n      MOD \t\t\tfRequestIDs[proofRequestIDs.le...\n      PUSH 8\t\t\tfRequestIDs[proofRequestIDs.le...\n      MUL \t\t\tfRequestIDs[proofRequestIDs.le...\n      SWAP1 \t\t\tfRequestIDs[proofRequestIDs.le...\n      SLOAD \t\t\tfRequestIDs[proofRequestIDs.le...\n      SWAP1 \t\t\tfRequestIDs[proofRequestIDs.le...\n      PUSH 100\t\t\tfRequestIDs[proofRequestIDs.le...\n      EXP \t\t\tfRequestIDs[proofRequestIDs.le...\n      SWAP1 \t\t\tfRequestIDs[proofRequestIDs.le...\n      DIV \t\t\tfRequestIDs[proofRequestIDs.le...\n      PUSH FFFFFFFFFFFFFFFF\t\t\tfRequestIDs[proofRequestIDs.le...\n      AND \t\t\tfRequestIDs[proofRequestIDs.le...\n      PUSH A\t\t\tfRequestIDs[i] \n      DUP3 \t\t\t \n      DUP2 \t\t\tfRequestIDs[i] = p\n      SLOAD \t\t\tfRequestIDs[i] = p\n      DUP2 \t\t\tfRequestIDs[i] = p\n      LT \t\t\tfRequestIDs[i] = p\n      PUSH [tag] 375\t\t\tfRequestIDs[i] = p\n      JUMPI \t\t\tfRequestIDs[i] = p\n      PUSH [tag] 376\t\t\tfRequestIDs[i] = p\n      PUSH [tag] 164\t\t\tfRequestIDs[i] = p\n      JUMP \t\t\tfRequestIDs[i] = p\n    tag 376\t\t\tfRequestIDs[i] = p\n      JUMPDEST \t\t\tfRequestIDs[i] = p\n    tag 375\t\t\tfRequestIDs[i] = p\n      JUMPDEST \t\t\tfRequestIDs[i] = p\n      SWAP1 \t\t\tfRequestIDs[i] = p\n      PUSH 0\t\t\tfRequestIDs[i] = p\n      MSTORE \t\t\tfRequestIDs[i] = p\n      PUSH 20\t\t\tfRequestIDs[i] = p\n      PUSH 0\t\t\tfRequestIDs[i] = p\n      KECCAK256 \t\t\tfRequestIDs[i] = p\n      SWAP1 \t\t\tfRequestIDs[i] = p\n      PUSH 4\t\t\tfRequestIDs[i] = p\n      SWAP2 \t\t\tfRequestIDs[i] = p\n      DUP3 \t\t\tfRequestIDs[i] = p\n      DUP3 \t\t\tfRequestIDs[i] = p\n      DIV \t\t\tfRequestIDs[i] = p\n      ADD \t\t\tfRequestIDs[i] = p\n      SWAP2 \t\t\tfRequestIDs[i] = p\n      SWAP1 \t\t\tfRequestIDs[i] = p\n      MOD \t\t\tfRequestIDs[i] = p\n      PUSH 8\t\t\tfRequestIDs[i] = p\n      MUL \t\t\tfRequestIDs[i] = p\n      PUSH 100\t\t\tfRequestIDs[i] = proofRequestI...\n      EXP \t\t\tfRequestIDs[i] = proofRequestI...\n      DUP2 \t\t\tfRequestIDs[i] = proofRequestI...\n      SLOAD \t\t\tfRequestIDs[i] = proofRequestI...\n      DUP2 \t\t\tfRequestIDs[i] = proofRequestI...\n      PUSH FFFFFFFFFFFFFFFF\t\t\tfRequestIDs[i] = proofRequestI...\n      MUL \t\t\tfRequestIDs[i] = proofRequestI...\n      NOT \t\t\tfRequestIDs[i] = proofRequestI...\n      AND \t\t\tfRequestIDs[i] = proofRequestI...\n      SWAP1 \t\t\tfRequestIDs[i] = proofRequestI...\n      DUP4 \t\t\tfRequestIDs[i] = proofRequestI...\n      PUSH FFFFFFFFFFFFFFFF\t\t\tfRequestIDs[i] = proofRequestI...\n      AND \t\t\tfRequestIDs[i] = proofRequestI...\n      MUL \t\t\tfRequestIDs[i] = proofRequestI...\n      OR \t\t\tfRequestIDs[i] = proofRequestI...\n      SWAP1 \t\t\tfRequestIDs[i] = proofRequestI...\n      SSTORE \t\t\tfRequestIDs[i] = proofRequestI...\n      POP \t\t\tfRequestIDs[i] = proofRequestI...\n      PUSH A\t\t\tfRequestIDs.pop\n      DUP1 \t\t\tfRequestIDs.pop();\\r\\n \n      SLOAD \t\t\tfRequestIDs.pop();\\r\\n \n      DUP1 \t\t\tfRequestIDs.pop();\\r\\n \n      PUSH [tag] 378\t\t\tfRequestIDs.pop();\\r\\n \n      JUMPI \t\t\tfRequestIDs.pop();\\r\\n \n      PUSH [tag] 379\t\t\tfRequestIDs.pop();\\r\\n \n      PUSH [tag] 245\t\t\tfRequestIDs.pop();\\r\\n \n      JUMP \t\t\tfRequestIDs.pop();\\r\\n \n    tag 379\t\t\tfRequestIDs.pop();\\r\\n \n      JUMPDEST \t\t\tfRequestIDs.pop();\\r\\n \n    tag 378\t\t\tfRequestIDs.pop();\\r\\n \n      JUMPDEST \t\t\tfRequestIDs.pop();\\r\\n \n      PUSH 1\t\t\tfRequestIDs.pop();\\r\\n \n      SWAP1 \t\t\tfRequestIDs.pop();\\r\\n \n      SUB \t\t\tfRequestIDs.pop();\\r\\n \n      DUP2 \t\t\tfRequestIDs.pop();\\r\\n \n      DUP2 \t\t\tfRequestIDs.pop();\\r\\n \n      SWAP1 \t\t\tfRequestIDs.pop();\\r\\n \n      PUSH 0\t\t\tfRequestIDs.pop();\\r\\n \n      MSTORE \t\t\tfRequestIDs.pop();\\r\\n \n      PUSH 20\t\t\tfRequestIDs.pop();\\r\\n \n      PUSH 0\t\t\tfRequestIDs.pop();\\r\\n \n      KECCAK256 \t\t\tfRequestIDs.pop();\\r\\n \n      SWAP1 \t\t\tfRequestIDs.pop();\\r\\n \n      PUSH 4\t\t\tfRequestIDs.pop();\\r\\n \n      SWAP2 \t\t\tfRequestIDs.pop();\\r\\n \n      DUP3 \t\t\tfRequestIDs.pop();\\r\\n \n      DUP3 \t\t\tfRequestIDs.pop();\\r\\n \n      DIV \t\t\tfRequestIDs.pop();\\r\\n \n      ADD \t\t\tfRequestIDs.pop();\\r\\n \n      SWAP2 \t\t\tfRequestIDs.pop();\\r\\n \n      SWAP1 \t\t\tfRequestIDs.pop();\\r\\n \n      MOD \t\t\tfRequestIDs.pop();\\r\\n \n      PUSH 8\t\t\tfRequestIDs.pop();\\r\\n \n      MUL \t\t\tfRequestIDs.pop();\\r\\n \n      PUSH 100\t\t\tfRequestIDs.pop();\\r\\n \n      EXP \t\t\tfRequestIDs.pop();\\r\\n \n      DUP2 \t\t\tfRequestIDs.pop();\\r\\n \n      SLOAD \t\t\tfRequestIDs.pop();\\r\\n \n      SWAP1 \t\t\tfRequestIDs.pop();\\r\\n \n      PUSH FFFFFFFFFFFFFFFF\t\t\tfRequestIDs.pop();\\r\\n \n      MUL \t\t\tfRequestIDs.pop();\\r\\n \n      NOT \t\t\tfRequestIDs.pop();\\r\\n \n      AND \t\t\tfRequestIDs.pop();\\r\\n \n      SWAP1 \t\t\tfRequestIDs.pop();\\r\\n \n      SSTORE \t\t\tfRequestIDs.pop();\\r\\n \n      SWAP1 \t\t\tfRequestIDs.pop();\\r\\n \n      SSTORE \t\t\tfRequestIDs.pop();\\r\\n \n      PUSH [tag] 365\t\t\tk;\\r\\n \n      JUMP \t\t\tk;\\r\\n \n    tag 370\t\t\tproofRequestIDs[i] == requestI...\n      JUMPDEST \t\t\tproofRequestIDs[i] == requestI...\n      DUP1 \t\t\t {\\r\n      DUP1 \t\t\t {\\r\n      PUSH [tag] 381\t\t\t {\\r\n      SWAP1 \t\t\t {\\r\n      PUSH [tag] 169\t\t\t {\\r\n      JUMP \t\t\t {\\r\n    tag 381\t\t\t {\\r\n      JUMPDEST \t\t\t {\\r\n      SWAP2 \t\t\t {\\r\n      POP \t\t\t {\\r\n      POP \t\t\t {\\r\n      PUSH [tag] 364\t\t\t(uint256 i = 0; i < proofReque...\n      JUMP \t\t\t(uint256 i = 0; i < proofReque...\n    tag 365\t\t\t(uint256 i = 0; i < proofReque...\n      JUMPDEST \t\t\t(uint256 i = 0; i < proofReque...\n      POP \t\t\t(uint256 i = 0; i < proofReque...\n      POP \t\t\ttion deleteProofRequestAndRole...\n      POP \t\t\ttion deleteProofRequestAndRole...\n      JUMP \t\t\ttion deleteProofRequestAndRole...\n    tag 97\t\t\tfunction addAdmin(address _adm...\n      JUMPDEST \t\t\tfunction addAdmin(address _adm...\n      PUSH [tag] 383\t\t\t  admins.push\n      PUSH [tag] 226\t\t\t  admins.pu\n      JUMP \t\t\t  admins.push\n    tag 383\t\t\t  admins.push\n      JUMPDEST \t\t\t  admins.push\n      PUSH 0\t\t\t0\n      PUSH FFFFFFFFFFFFFFFFFFFFFFFFFFFFFFFFFFFFFFFF\t\t\t_admin != address(0)\n      AND \t\t\t_admin != address(0)\n      DUP2 \t\t\t_admin\n      PUSH FFFFFFFFFFFFFFFFFFFFFFFFFFFFFFFFFFFFFFFF\t\t\t_admin != address(0)\n      AND \t\t\t_admin != address(0)\n      SUB \t\t\t_admin != address(0)\n      PUSH [tag] 385\t\t\trequire(_admin != address(0), ...\n      JUMPI \t\t\trequire(_admin != address(0), ...\n      PUSH 40\t\t\trequire(_admin != address(0), ...\n      MLOAD \t\t\trequire(_admin != address(0), ...\n      PUSH 8C379A000000000000000000000000000000000000000000000000000000000\t\t\trequire(_admin != address(0), ...\n      DUP2 \t\t\trequire(_admin != address(0), ...\n      MSTORE \t\t\trequire(_admin != address(0), ...\n      PUSH 4\t\t\trequire(_admin != address(0), ...\n      ADD \t\t\trequire(_admin != address(0), ...\n      PUSH [tag] 386\t\t\trequire(_admin != address(0), ...\n      SWAP1 \t\t\trequire(_admin != address(0), ...\n      PUSH [tag] 387\t\t\trequire(_admin != address(0), ...\n      JUMP \t\t\trequire(_admin != address(0), ...\n    tag 386\t\t\trequire(_admin != address(0), ...\n      JUMPDEST \t\t\trequire(_admin != address(0), ...\n      PUSH 40\t\t\trequire(_admin != address(0), ...\n      MLOAD \t\t\trequire(_admin != address(0), ...\n      DUP1 \t\t\trequire(_admin != address(0), ...\n      SWAP2 \t\t\trequire(_admin != address(0), ...\n      SUB \t\t\trequire(_admin != address(0), ...\n      SWAP1 \t\t\trequire(_admin != address(0), ...\n      REVERT \t\t\trequire(_admin != address(0), ...\n    tag 385\t\t\trequire(_admin != address(0), ...\n      JUMPDEST \t\t\trequire(_admin != address(0), ...\n      PUSH [tag] 388\t\t\t_isAdmin(_admin)\n      DUP2 \t\t\t_admin\n      PUSH [tag] 346\t\t\t_isAdmin\n      JUMP \t\t\t_isAdmin(_admin)\n    tag 388\t\t\t_isAdmin(_admin)\n      JUMPDEST \t\t\t_isAdmin(_admin)\n      ISZERO \t\t\t!_isAdmin(_admin)\n      PUSH [tag] 389\t\t\trequire(!_isAdmin(_admin), \"Ad...\n      JUMPI \t\t\trequire(!_isAdmin(_admin), \"Ad...\n      PUSH 40\t\t\trequire(!_isAdmin(_admin), \"Ad...\n      MLOAD \t\t\trequire(!_isAdmin(_admin), \"Ad...\n      PUSH 8C379A000000000000000000000000000000000000000000000000000000000\t\t\trequire(!_isAdmin(_admin), \"Ad...\n      DUP2 \t\t\trequire(!_isAdmin(_admin), \"Ad...\n      MSTORE \t\t\trequire(!_isAdmin(_admin), \"Ad...\n      PUSH 4\t\t\trequire(!_isAdmin(_admin), \"Ad...\n      ADD \t\t\trequire(!_isAdmin(_admin), \"Ad...\n      PUSH [tag] 390\t\t\trequire(!_isAdmin(_admin), \"Ad...\n      SWAP1 \t\t\trequire(!_isAdmin(_admin), \"Ad...\n      PUSH [tag] 391\t\t\trequire(!_isAdmin(_admin), \"Ad...\n      JUMP \t\t\trequire(!_isAdmin(_admin), \"Ad...\n    tag 390\t\t\trequire(!_isAdmin(_admin), \"Ad...\n      JUMPDEST \t\t\trequire(!_isAdmin(_admin), \"Ad...\n      PUSH 40\t\t\trequire(!_isAdmin(_admin), \"Ad...\n      MLOAD \t\t\trequire(!_isAdmin(_admin), \"Ad...\n      DUP1 \t\t\trequire(!_isAdmin(_admin), \"Ad...\n      SWAP2 \t\t\trequire(!_isAdmin(_admin), \"Ad...\n      SUB \t\t\trequire(!_isAdmin(_admin), \"Ad...\n      SWAP1 \t\t\trequire(!_isAdmin(_admin), \"Ad...\n      REVERT \t\t\trequire(!_isAdmin(_admin), \"Ad...\n    tag 389\t\t\trequire(!_isAdmin(_admin), \"Ad...\n      JUMPDEST \t\t\trequire(!_isAdmin(_admin), \"Ad...\n      PUSH 4\t\t\tadmins\n      DUP2 \t\t\t_admin\n      SWAP1 \t\t\tadmins.push(_admin)\n      DUP1 \t\t\tadmins.push(_admin)\n      PUSH 1\t\t\tadmins.push(_admin)\n      DUP2 \t\t\tadmins.push(_admin)\n      SLOAD \t\t\tadmins.push(_admin)\n      ADD \t\t\tadmins.push(_admin)\n      DUP1 \t\t\tadmins.push(_admin)\n      DUP3 \t\t\tadmins.push(_admin)\n      SSTORE \t\t\tadmins.push(_admin)\n      DUP1 \t\t\tadmins.push(_admin)\n      SWAP2 \t\t\tadmins.push(_admin)\n      POP \t\t\tadmins.push(_admin)\n      POP \t\t\tadmins.push(_admin)\n      PUSH 1\t\t\tadmins.push(_admin)\n      SWAP1 \t\t\tadmins.push(_admin)\n      SUB \t\t\tadmins.push(_admin)\n      SWAP1 \t\t\tadmins.push(_admin)\n      PUSH 0\t\t\tadmins.push(_admin)\n      MSTORE \t\t\tadmins.push(_admin)\n      PUSH 20\t\t\tadmins.push(_admin)\n      PUSH 0\t\t\tadmins.push(_admin)\n      KECCAK256 \t\t\tadmins.push(_admin)\n      ADD \t\t\tadmins.push(_admin)\n      PUSH 0\t\t\tadmins.push(_admin)\n      SWAP1 \t\t\tadmins.push(_admin)\n      SWAP2 \t\t\tadmins.push(_admin)\n      SWAP1 \t\t\tadmins.push(_admin)\n      SWAP2 \t\t\tadmins.push(_admin)\n      SWAP1 \t\t\tadmins.push(_admin)\n      SWAP2 \t\t\tadmins.push(_admin)\n      PUSH 100\t\t\tadmins.push(_admin)\n      EXP \t\t\tadmins.push(_admin)\n      DUP2 \t\t\tadmins.push(_admin)\n      SLOAD \t\t\tadmins.push(_admin)\n      DUP2 \t\t\tadmins.push(_admin)\n      PUSH FFFFFFFFFFFFFFFFFFFFFFFFFFFFFFFFFFFFFFFF\t\t\tadmins.push(_admin)\n      MUL \t\t\tadmins.push(_admin)\n      NOT \t\t\tadmins.push(_admin)\n      AND \t\t\tadmins.push(_admin)\n      SWAP1 \t\t\tadmins.push(_admin)\n      DUP4 \t\t\tadmins.push(_admin)\n      PUSH FFFFFFFFFFFFFFFFFFFFFFFFFFFFFFFFFFFFFFFF\t\t\tadmins.push(_admin)\n      AND \t\t\tadmins.push(_admin)\n      MUL \t\t\tadmins.push(_admin)\n      OR \t\t\tadmins.push(_admin)\n      SWAP1 \t\t\tadmins.push(_admin)\n      SSTORE \t\t\tadmins.push(_admin)\n      POP \t\t\tadmins.push(_admin)\n      POP \t\t\tfunction addAdmin(address _adm...\n      JUMP \t\t\tfunction addAdmin(address _adm...\n    tag 99\t\t\t EnumerableSet.UintSet private...\n      JUMPDEST \t\t\t EnumerableSet.UintSet private...\n      PUSH [tag] 394\t\t\t  admins.push\n      PUSH [tag] 226\t\t\t  admins.pu\n      JUMP \t\t\t  admins.push\n    tag 394\t\t\t  admins.push\n      JUMPDEST \t\t\t  admins.push\n      PUSH [tag] 396\t\t\tReturns the full list of token\n      PUSH 0\t\t\tk\n      PUSH [tag] 397\t\t\tReturns the full l\n      JUMP \t\t\tReturns the full list of token\n    tag 396\t\t\tReturns the full list of token\n      JUMPDEST \t\t\tReturns the full list of token\n      JUMP \t\t\t EnumerableSet.UintSet private...\n    tag 103\t\t\ttion addProofRequest_VerifierA...\n      JUMPDEST \t\t\ttion addProofRequest_VerifierA...\n      PUSH 0\t\t\tVerifier.ZKPRequest memory req...\n      PUSH 40\t\t\tVerifier.ZKPRequest({\\r\\n     ...\n      MLOAD \t\t\tVerifier.ZKPRequest({\\r\\n     ...\n      DUP1 \t\t\tVerifier.ZKPRequest({\\r\\n     ...\n      PUSH 60\t\t\tVerifier.ZKPRequest({\\r\\n     ...\n      ADD \t\t\tVerifier.ZKPRequest({\\r\\n     ...\n      PUSH 40\t\t\tVerifier.ZKPRequest({\\r\\n     ...\n      MSTORE \t\t\tVerifier.ZKPRequest({\\r\\n     ...\n      DUP1 \t\t\tVerifier.ZKPRequest({\\r\\n     ...\n      DUP12 \t\t\tdata,\\r\\n \n      DUP12 \t\t\tdata,\\r\\n \n      DUP1 \t\t\tVerifier.ZKPRequest({\\r\\n     ...\n      DUP1 \t\t\tVerifier.ZKPRequest({\\r\\n     ...\n      PUSH 1F\t\t\tVerifier.ZKPRequest({\\r\\n     ...\n      ADD \t\t\tVerifier.ZKPRequest({\\r\\n     ...\n      PUSH 20\t\t\tVerifier.ZKPRequest({\\r\\n     ...\n      DUP1 \t\t\tVerifier.ZKPRequest({\\r\\n     ...\n      SWAP2 \t\t\tVerifier.ZKPRequest({\\r\\n     ...\n      DIV \t\t\tVerifier.ZKPRequest({\\r\\n     ...\n      MUL \t\t\tVerifier.ZKPRequest({\\r\\n     ...\n      PUSH 20\t\t\tVerifier.ZKPRequest({\\r\\n     ...\n      ADD \t\t\tVerifier.ZKPRequest({\\r\\n     ...\n      PUSH 40\t\t\tVerifier.ZKPRequest({\\r\\n     ...\n      MLOAD \t\t\tVerifier.ZKPRequest({\\r\\n     ...\n      SWAP1 \t\t\tVerifier.ZKPRequest({\\r\\n     ...\n      DUP2 \t\t\tVerifier.ZKPRequest({\\r\\n     ...\n      ADD \t\t\tVerifier.ZKPRequest({\\r\\n     ...\n      PUSH 40\t\t\tVerifier.ZKPRequest({\\r\\n     ...\n      MSTORE \t\t\tVerifier.ZKPRequest({\\r\\n     ...\n      DUP1 \t\t\tVerifier.ZKPRequest({\\r\\n     ...\n      SWAP4 \t\t\tVerifier.ZKPRequest({\\r\\n     ...\n      SWAP3 \t\t\tVerifier.ZKPRequest({\\r\\n     ...\n      SWAP2 \t\t\tVerifier.ZKPRequest({\\r\\n     ...\n      SWAP1 \t\t\tVerifier.ZKPRequest({\\r\\n     ...\n      DUP2 \t\t\tVerifier.ZKPRequest({\\r\\n     ...\n      DUP2 \t\t\tVerifier.ZKPRequest({\\r\\n     ...\n      MSTORE \t\t\tVerifier.ZKPRequest({\\r\\n     ...\n      PUSH 20\t\t\tVerifier.ZKPRequest({\\r\\n     ...\n      ADD \t\t\tVerifier.ZKPRequest({\\r\\n     ...\n      DUP4 \t\t\tVerifier.ZKPRequest({\\r\\n     ...\n      DUP4 \t\t\tVerifier.ZKPRequest({\\r\\n     ...\n      DUP1 \t\t\tVerifier.ZKPRequest({\\r\\n     ...\n      DUP3 \t\t\tVerifier.ZKPRequest({\\r\\n     ...\n      DUP5 \t\t\tVerifier.ZKPRequest({\\r\\n     ...\n      CALLDATACOPY \t\t\tVerifier.ZKPRequest({\\r\\n     ...\n      PUSH 0\t\t\tVerifier.ZKPRequest({\\r\\n     ...\n      DUP2 \t\t\tVerifier.ZKPRequest({\\r\\n     ...\n      DUP5 \t\t\tVerifier.ZKPRequest({\\r\\n     ...\n      ADD \t\t\tVerifier.ZKPRequest({\\r\\n     ...\n      MSTORE \t\t\tVerifier.ZKPRequest({\\r\\n     ...\n      PUSH 1F\t\t\tVerifier.ZKPRequest({\\r\\n     ...\n      NOT \t\t\tVerifier.ZKPRequest({\\r\\n     ...\n      PUSH 1F\t\t\tVerifier.ZKPRequest({\\r\\n     ...\n      DUP3 \t\t\tVerifier.ZKPRequest({\\r\\n     ...\n      ADD \t\t\tVerifier.ZKPRequest({\\r\\n     ...\n      AND \t\t\tVerifier.ZKPRequest({\\r\\n     ...\n      SWAP1 \t\t\tVerifier.ZKPRequest({\\r\\n     ...\n      POP \t\t\tVerifier.ZKPRequest({\\r\\n     ...\n      DUP1 \t\t\tVerifier.ZKPRequest({\\r\\n     ...\n      DUP4 \t\t\tVerifier.ZKPRequest({\\r\\n     ...\n      ADD \t\t\tVerifier.ZKPRequest({\\r\\n     ...\n      SWAP3 \t\t\tVerifier.ZKPRequest({\\r\\n     ...\n      POP \t\t\tVerifier.ZKPRequest({\\r\\n     ...\n      POP \t\t\tVerifier.ZKPRequest({\\r\\n     ...\n      POP \t\t\tVerifier.ZKPRequest({\\r\\n     ...\n      POP \t\t\tVerifier.ZKPRequest({\\r\\n     ...\n      POP \t\t\tVerifier.ZKPRequest({\\r\\n     ...\n      POP \t\t\tVerifier.ZKPRequest({\\r\\n     ...\n      POP \t\t\tVerifier.ZKPRequest({\\r\\n     ...\n      DUP2 \t\t\tVerifier.ZKPRequest({\\r\\n     ...\n      MSTORE \t\t\tVerifier.ZKPRequest({\\r\\n     ...\n      PUSH 20\t\t\tVerifier.ZKPRequest({\\r\\n     ...\n      ADD \t\t\tVerifier.ZKPRequest({\\r\\n     ...\n      DUP10 \t\t\tdator,\\r\\n \n      PUSH FFFFFFFFFFFFFFFFFFFFFFFFFFFFFFFFFFFFFFFF\t\t\tVerifier.ZKPRequest({\\r\\n     ...\n      AND \t\t\tVerifier.ZKPRequest({\\r\\n     ...\n      DUP2 \t\t\tVerifier.ZKPRequest({\\r\\n     ...\n      MSTORE \t\t\tVerifier.ZKPRequest({\\r\\n     ...\n      PUSH 20\t\t\tVerifier.ZKPRequest({\\r\\n     ...\n      ADD \t\t\tVerifier.ZKPRequest({\\r\\n     ...\n      DUP9 \t\t\t\\r\\n  \n      DUP9 \t\t\t\\r\\n  \n      DUP1 \t\t\tVerifier.ZKPRequest({\\r\\n     ...\n      DUP1 \t\t\tVerifier.ZKPRequest({\\r\\n     ...\n      PUSH 1F\t\t\tVerifier.ZKPRequest({\\r\\n     ...\n      ADD \t\t\tVerifier.ZKPRequest({\\r\\n     ...\n      PUSH 20\t\t\tVerifier.ZKPRequest({\\r\\n     ...\n      DUP1 \t\t\tVerifier.ZKPRequest({\\r\\n     ...\n      SWAP2 \t\t\tVerifier.ZKPRequest({\\r\\n     ...\n      DIV \t\t\tVerifier.ZKPRequest({\\r\\n     ...\n      MUL \t\t\tVerifier.ZKPRequest({\\r\\n     ...\n      PUSH 20\t\t\tVerifier.ZKPRequest({\\r\\n     ...\n      ADD \t\t\tVerifier.ZKPRequest({\\r\\n     ...\n      PUSH 40\t\t\tVerifier.ZKPRequest({\\r\\n     ...\n      MLOAD \t\t\tVerifier.ZKPRequest({\\r\\n     ...\n      SWAP1 \t\t\tVerifier.ZKPRequest({\\r\\n     ...\n      DUP2 \t\t\tVerifier.ZKPRequest({\\r\\n     ...\n      ADD \t\t\tVerifier.ZKPRequest({\\r\\n     ...\n      PUSH 40\t\t\tVerifier.ZKPRequest({\\r\\n     ...\n      MSTORE \t\t\tVerifier.ZKPRequest({\\r\\n     ...\n      DUP1 \t\t\tVerifier.ZKPRequest({\\r\\n     ...\n      SWAP4 \t\t\tVerifier.ZKPRequest({\\r\\n     ...\n      SWAP3 \t\t\tVerifier.ZKPRequest({\\r\\n     ...\n      SWAP2 \t\t\tVerifier.ZKPRequest({\\r\\n     ...\n      SWAP1 \t\t\tVerifier.ZKPRequest({\\r\\n     ...\n      DUP2 \t\t\tVerifier.ZKPRequest({\\r\\n     ...\n      DUP2 \t\t\tVerifier.ZKPRequest({\\r\\n     ...\n      MSTORE \t\t\tVerifier.ZKPRequest({\\r\\n     ...\n      PUSH 20\t\t\tVerifier.ZKPRequest({\\r\\n     ...\n      ADD \t\t\tVerifier.ZKPRequest({\\r\\n     ...\n      DUP4 \t\t\tVerifier.ZKPRequest({\\r\\n     ...\n      DUP4 \t\t\tVerifier.ZKPRequest({\\r\\n     ...\n      DUP1 \t\t\tVerifier.ZKPRequest({\\r\\n     ...\n      DUP3 \t\t\tVerifier.ZKPRequest({\\r\\n     ...\n      DUP5 \t\t\tVerifier.ZKPRequest({\\r\\n     ...\n      CALLDATACOPY \t\t\tVerifier.ZKPRequest({\\r\\n     ...\n      PUSH 0\t\t\tVerifier.ZKPRequest({\\r\\n     ...\n      DUP2 \t\t\tVerifier.ZKPRequest({\\r\\n     ...\n      DUP5 \t\t\tVerifier.ZKPRequest({\\r\\n     ...\n      ADD \t\t\tVerifier.ZKPRequest({\\r\\n     ...\n      MSTORE \t\t\tVerifier.ZKPRequest({\\r\\n     ...\n      PUSH 1F\t\t\tVerifier.ZKPRequest({\\r\\n     ...\n      NOT \t\t\tVerifier.ZKPRequest({\\r\\n     ...\n      PUSH 1F\t\t\tVerifier.ZKPRequest({\\r\\n     ...\n      DUP3 \t\t\tVerifier.ZKPRequest({\\r\\n     ...\n      ADD \t\t\tVerifier.ZKPRequest({\\r\\n     ...\n      AND \t\t\tVerifier.ZKPRequest({\\r\\n     ...\n      SWAP1 \t\t\tVerifier.ZKPRequest({\\r\\n     ...\n      POP \t\t\tVerifier.ZKPRequest({\\r\\n     ...\n      DUP1 \t\t\tVerifier.ZKPRequest({\\r\\n     ...\n      DUP4 \t\t\tVerifier.ZKPRequest({\\r\\n     ...\n      ADD \t\t\tVerifier.ZKPRequest({\\r\\n     ...\n      SWAP3 \t\t\tVerifier.ZKPRequest({\\r\\n     ...\n      POP \t\t\tVerifier.ZKPRequest({\\r\\n     ...\n      POP \t\t\tVerifier.ZKPRequest({\\r\\n     ...\n      POP \t\t\tVerifier.ZKPRequest({\\r\\n     ...\n      POP \t\t\tVerifier.ZKPRequest({\\r\\n     ...\n      POP \t\t\tVerifier.ZKPRequest({\\r\\n     ...\n      POP \t\t\tVerifier.ZKPRequest({\\r\\n     ...\n      POP \t\t\tVerifier.ZKPRequest({\\r\\n     ...\n      DUP2 \t\t\tVerifier.ZKPRequest({\\r\\n     ...\n      MSTORE \t\t\tVerifier.ZKPRequest({\\r\\n     ...\n      POP \t\t\tVerifier.ZKPRequest({\\r\\n     ...\n      SWAP1 \t\t\tVerifier.ZKPRequest memory req...\n      POP \t\t\tVerifier.ZKPRequest memory req...\n      PUSH B\t\t\tfier.set\n      PUSH 0\t\t\tfier.set\n      SWAP1 \t\t\tfier.set\n      SLOAD \t\t\tfier.set\n      SWAP1 \t\t\tfier.set\n      PUSH 100\t\t\tfier.set\n      EXP \t\t\tfier.set\n      SWAP1 \t\t\tfier.set\n      DIV \t\t\tfier.set\n      PUSH FFFFFFFFFFFFFFFFFFFFFFFFFFFFFFFFFFFFFFFF\t\t\tfier.set\n      AND \t\t\tfier.set\n      PUSH FFFFFFFFFFFFFFFFFFFFFFFFFFFFFFFFFFFFFFFF\t\t\tfier.setZKPRequest(req\n      AND \t\t\tfier.setZKPRequest(req\n      PUSH 9F5223E0\t\t\tfier.setZKPRequest(req\n      DUP13 \t\t\testId, re\n      DUP4 \t\t\t;\\r\\n\n      PUSH 40\t\t\tfier.setZKPRequest(requestId, ...\n      MLOAD \t\t\tfier.setZKPRequest(requestId, ...\n      DUP4 \t\t\tfier.setZKPRequest(requestId, ...\n      PUSH FFFFFFFF\t\t\tfier.setZKPRequest(requestId, ...\n      AND \t\t\tfier.setZKPRequest(requestId, ...\n      PUSH E0\t\t\tfier.setZKPRequest(requestId, ...\n      SHL \t\t\tfier.setZKPRequest(requestId, ...\n      DUP2 \t\t\tfier.setZKPRequest(requestId, ...\n      MSTORE \t\t\tfier.setZKPRequest(requestId, ...\n      PUSH 4\t\t\tfier.setZKPRequest(requestId, ...\n      ADD \t\t\tfier.setZKPRequest(requestId, ...\n      PUSH [tag] 399\t\t\tfier.setZKPRequest(requestId, ...\n      SWAP3 \t\t\tfier.setZKPRequest(requestId, ...\n      SWAP2 \t\t\tfier.setZKPRequest(requestId, ...\n      SWAP1 \t\t\tfier.setZKPRequest(requestId, ...\n      PUSH [tag] 400\t\t\tfier.setZKPRequest(requestId, ...\n      JUMP \t\t\tfier.setZKPRequest(requestId, ...\n    tag 399\t\t\tfier.setZKPRequest(requestId, ...\n      JUMPDEST \t\t\tfier.setZKPRequest(requestId, ...\n      PUSH 0\t\t\tfier.setZKPRequest(requestId, ...\n      PUSH 40\t\t\tfier.setZKPRequest(requestId, ...\n      MLOAD \t\t\tfier.setZKPRequest(requestId, ...\n      DUP1 \t\t\tfier.setZKPRequest(requestId, ...\n      DUP4 \t\t\tfier.setZKPRequest(requestId, ...\n      SUB \t\t\tfier.setZKPRequest(requestId, ...\n      DUP2 \t\t\tfier.setZKPRequest(requestId, ...\n      PUSH 0\t\t\tfier.setZKPRequest(requestId, ...\n      DUP8 \t\t\tfier.setZKPRequest(requestId, ...\n      DUP1 \t\t\tfier.setZKPRequest(requestId, ...\n      EXTCODESIZE \t\t\tfier.setZKPRequest(requestId, ...\n      ISZERO \t\t\tfier.setZKPRequest(requestId, ...\n      DUP1 \t\t\tfier.setZKPRequest(requestId, ...\n      ISZERO \t\t\tfier.setZKPRequest(requestId, ...\n      PUSH [tag] 401\t\t\tfier.setZKPRequest(requestId, ...\n      JUMPI \t\t\tfier.setZKPRequest(requestId, ...\n      PUSH 0\t\t\tfier.setZKPRequest(requestId, ...\n      DUP1 \t\t\tfier.setZKPRequest(requestId, ...\n      REVERT \t\t\tfier.setZKPRequest(requestId, ...\n    tag 401\t\t\tfier.setZKPRequest(requestId, ...\n      JUMPDEST \t\t\tfier.setZKPRequest(requestId, ...\n      POP \t\t\tfier.setZKPRequest(requestId, ...\n      GAS \t\t\tfier.setZKPRequest(requestId, ...\n      CALL \t\t\tfier.setZKPRequest(requestId, ...\n      ISZERO \t\t\tfier.setZKPRequest(requestId, ...\n      DUP1 \t\t\tfier.setZKPRequest(requestId, ...\n      ISZERO \t\t\tfier.setZKPRequest(requestId, ...\n      PUSH [tag] 403\t\t\tfier.setZKPRequest(requestId, ...\n      JUMPI \t\t\tfier.setZKPRequest(requestId, ...\n      RETURNDATASIZE \t\t\tfier.setZKPRequest(requestId, ...\n      PUSH 0\t\t\tfier.setZKPRequest(requestId, ...\n      DUP1 \t\t\tfier.setZKPRequest(requestId, ...\n      RETURNDATACOPY \t\t\tfier.setZKPRequest(requestId, ...\n      RETURNDATASIZE \t\t\tfier.setZKPRequest(requestId, ...\n      PUSH 0\t\t\tfier.setZKPRequest(requestId, ...\n      REVERT \t\t\tfier.setZKPRequest(requestId, ...\n    tag 403\t\t\tfier.setZKPRequest(requestId, ...\n      JUMPDEST \t\t\tfier.setZKPRequest(requestId, ...\n      POP \t\t\tfier.setZKPRequest(requestId, ...\n      POP \t\t\tfier.setZKPRequest(requestId, ...\n      POP \t\t\tfier.setZKPRequest(requestId, ...\n      POP \t\t\tfier.setZKPRequest(requestId, ...\n      PUSH [tag] 404\t\t\troofRequestAndRole(tokenID, re...\n      DUP6 \t\t\tnID, re\n      DUP13 \t\t\testId, ro\n      DUP7 \t\t\t);\\r\\n\n      DUP7 \t\t\t);\\r\\n\n      PUSH [tag] 126\t\t\troofRequestAndRole(tok\n      JUMP \t\t\troofRequestAndRole(tokenID, re...\n    tag 404\t\t\troofRequestAndRole(tokenID, re...\n      JUMPDEST \t\t\troofRequestAndRole(tokenID, re...\n      PUSH 40\t\t\tdingCondition({\\r\\n           ...\n      MLOAD \t\t\tdingCondition({\\r\\n           ...\n      DUP1 \t\t\tdingCondition({\\r\\n           ...\n      PUSH 60\t\t\tdingCondition({\\r\\n           ...\n      ADD \t\t\tdingCondition({\\r\\n           ...\n      PUSH 40\t\t\tdingCondition({\\r\\n           ...\n      MSTORE \t\t\tdingCondition({\\r\\n           ...\n      DUP1 \t\t\tdingCondition({\\r\\n           ...\n      DUP4 \t\t\tition.att\n      DUP1 \t\t\tition.attribute,\\r\\n \n      PUSH 0\t\t\tition.attribute,\\r\\n \n      ADD \t\t\tition.attribute,\\r\\n \n      SWAP1 \t\t\tition.attribute,\\r\\n \n      PUSH [tag] 405\t\t\tition.attribute,\\r\\n \n      SWAP2 \t\t\tition.attribute,\\r\\n \n      SWAP1 \t\t\tition.attribute,\\r\\n \n      PUSH [tag] 406\t\t\tition.attribute,\\r\\n \n      JUMP \t\t\tition.attribute,\\r\\n \n    tag 405\t\t\tition.attribute,\\r\\n \n      JUMPDEST \t\t\tition.attribute,\\r\\n \n      DUP1 \t\t\tdingCondition({\\r\\n           ...\n      DUP1 \t\t\tdingCondition({\\r\\n           ...\n      PUSH 1F\t\t\tdingCondition({\\r\\n           ...\n      ADD \t\t\tdingCondition({\\r\\n           ...\n      PUSH 20\t\t\tdingCondition({\\r\\n           ...\n      DUP1 \t\t\tdingCondition({\\r\\n           ...\n      SWAP2 \t\t\tdingCondition({\\r\\n           ...\n      DIV \t\t\tdingCondition({\\r\\n           ...\n      MUL \t\t\tdingCondition({\\r\\n           ...\n      PUSH 20\t\t\tdingCondition({\\r\\n           ...\n      ADD \t\t\tdingCondition({\\r\\n           ...\n      PUSH 40\t\t\tdingCondition({\\r\\n           ...\n      MLOAD \t\t\tdingCondition({\\r\\n           ...\n      SWAP1 \t\t\tdingCondition({\\r\\n           ...\n      DUP2 \t\t\tdingCondition({\\r\\n           ...\n      ADD \t\t\tdingCondition({\\r\\n           ...\n      PUSH 40\t\t\tdingCondition({\\r\\n           ...\n      MSTORE \t\t\tdingCondition({\\r\\n           ...\n      DUP1 \t\t\tdingCondition({\\r\\n           ...\n      SWAP4 \t\t\tdingCondition({\\r\\n           ...\n      SWAP3 \t\t\tdingCondition({\\r\\n           ...\n      SWAP2 \t\t\tdingCondition({\\r\\n           ...\n      SWAP1 \t\t\tdingCondition({\\r\\n           ...\n      DUP2 \t\t\tdingCondition({\\r\\n           ...\n      DUP2 \t\t\tdingCondition({\\r\\n           ...\n      MSTORE \t\t\tdingCondition({\\r\\n           ...\n      PUSH 20\t\t\tdingCondition({\\r\\n           ...\n      ADD \t\t\tdingCondition({\\r\\n           ...\n      DUP4 \t\t\tdingCondition({\\r\\n           ...\n      DUP4 \t\t\tdingCondition({\\r\\n           ...\n      DUP1 \t\t\tdingCondition({\\r\\n           ...\n      DUP3 \t\t\tdingCondition({\\r\\n           ...\n      DUP5 \t\t\tdingCondition({\\r\\n           ...\n      CALLDATACOPY \t\t\tdingCondition({\\r\\n           ...\n      PUSH 0\t\t\tdingCondition({\\r\\n           ...\n      DUP2 \t\t\tdingCondition({\\r\\n           ...\n      DUP5 \t\t\tdingCondition({\\r\\n           ...\n      ADD \t\t\tdingCondition({\\r\\n           ...\n      MSTORE \t\t\tdingCondition({\\r\\n           ...\n      PUSH 1F\t\t\tdingCondition({\\r\\n           ...\n      NOT \t\t\tdingCondition({\\r\\n           ...\n      PUSH 1F\t\t\tdingCondition({\\r\\n           ...\n      DUP3 \t\t\tdingCondition({\\r\\n           ...\n      ADD \t\t\tdingCondition({\\r\\n           ...\n      AND \t\t\tdingCondition({\\r\\n           ...\n      SWAP1 \t\t\tdingCondition({\\r\\n           ...\n      POP \t\t\tdingCondition({\\r\\n           ...\n      DUP1 \t\t\tdingCondition({\\r\\n           ...\n      DUP4 \t\t\tdingCondition({\\r\\n           ...\n      ADD \t\t\tdingCondition({\\r\\n           ...\n      SWAP3 \t\t\tdingCondition({\\r\\n           ...\n      POP \t\t\tdingCondition({\\r\\n           ...\n      POP \t\t\tdingCondition({\\r\\n           ...\n      POP \t\t\tdingCondition({\\r\\n           ...\n      POP \t\t\tdingCondition({\\r\\n           ...\n      POP \t\t\tdingCondition({\\r\\n           ...\n      POP \t\t\tdingCondition({\\r\\n           ...\n      POP \t\t\tdingCondition({\\r\\n           ...\n      DUP2 \t\t\tdingCondition({\\r\\n           ...\n      MSTORE \t\t\tdingCondition({\\r\\n           ...\n      PUSH 20\t\t\tdingCondition({\\r\\n           ...\n      ADD \t\t\tdingCondition({\\r\\n           ...\n      DUP4 \t\t\tition.ope\n      DUP1 \t\t\tition.operatorStr,\\r\\n \n      PUSH 20\t\t\tition.operatorStr,\\r\\n \n      ADD \t\t\tition.operatorStr,\\r\\n \n      SWAP1 \t\t\tition.operatorStr,\\r\\n \n      PUSH [tag] 407\t\t\tition.operatorStr,\\r\\n \n      SWAP2 \t\t\tition.operatorStr,\\r\\n \n      SWAP1 \t\t\tition.operatorStr,\\r\\n \n      PUSH [tag] 406\t\t\tition.operatorStr,\\r\\n \n      JUMP \t\t\tition.operatorStr,\\r\\n \n    tag 407\t\t\tition.operatorStr,\\r\\n \n      JUMPDEST \t\t\tition.operatorStr,\\r\\n \n      DUP1 \t\t\tdingCondition({\\r\\n           ...\n      DUP1 \t\t\tdingCondition({\\r\\n           ...\n      PUSH 1F\t\t\tdingCondition({\\r\\n           ...\n      ADD \t\t\tdingCondition({\\r\\n           ...\n      PUSH 20\t\t\tdingCondition({\\r\\n           ...\n      DUP1 \t\t\tdingCondition({\\r\\n           ...\n      SWAP2 \t\t\tdingCondition({\\r\\n           ...\n      DIV \t\t\tdingCondition({\\r\\n           ...\n      MUL \t\t\tdingCondition({\\r\\n           ...\n      PUSH 20\t\t\tdingCondition({\\r\\n           ...\n      ADD \t\t\tdingCondition({\\r\\n           ...\n      PUSH 40\t\t\tdingCondition({\\r\\n           ...\n      MLOAD \t\t\tdingCondition({\\r\\n           ...\n      SWAP1 \t\t\tdingCondition({\\r\\n           ...\n      DUP2 \t\t\tdingCondition({\\r\\n           ...\n      ADD \t\t\tdingCondition({\\r\\n           ...\n      PUSH 40\t\t\tdingCondition({\\r\\n           ...\n      MSTORE \t\t\tdingCondition({\\r\\n           ...\n      DUP1 \t\t\tdingCondition({\\r\\n           ...\n      SWAP4 \t\t\tdingCondition({\\r\\n           ...\n      SWAP3 \t\t\tdingCondition({\\r\\n           ...\n      SWAP2 \t\t\tdingCondition({\\r\\n           ...\n      SWAP1 \t\t\tdingCondition({\\r\\n           ...\n      DUP2 \t\t\tdingCondition({\\r\\n           ...\n      DUP2 \t\t\tdingCondition({\\r\\n           ...\n      MSTORE \t\t\tdingCondition({\\r\\n           ...\n      PUSH 20\t\t\tdingCondition({\\r\\n           ...\n      ADD \t\t\tdingCondition({\\r\\n           ...\n      DUP4 \t\t\tdingCondition({\\r\\n           ...\n      DUP4 \t\t\tdingCondition({\\r\\n           ...\n      DUP1 \t\t\tdingCondition({\\r\\n           ...\n      DUP3 \t\t\tdingCondition({\\r\\n           ...\n      DUP5 \t\t\tdingCondition({\\r\\n           ...\n      CALLDATACOPY \t\t\tdingCondition({\\r\\n           ...\n      PUSH 0\t\t\tdingCondition({\\r\\n           ...\n      DUP2 \t\t\tdingCondition({\\r\\n           ...\n      DUP5 \t\t\tdingCondition({\\r\\n           ...\n      ADD \t\t\tdingCondition({\\r\\n           ...\n      MSTORE \t\t\tdingCondition({\\r\\n           ...\n      PUSH 1F\t\t\tdingCondition({\\r\\n           ...\n      NOT \t\t\tdingCondition({\\r\\n           ...\n      PUSH 1F\t\t\tdingCondition({\\r\\n           ...\n      DUP3 \t\t\tdingCondition({\\r\\n           ...\n      ADD \t\t\tdingCondition({\\r\\n           ...\n      AND \t\t\tdingCondition({\\r\\n           ...\n      SWAP1 \t\t\tdingCondition({\\r\\n           ...\n      POP \t\t\tdingCondition({\\r\\n           ...\n      DUP1 \t\t\tdingCondition({\\r\\n           ...\n      DUP4 \t\t\tdingCondition({\\r\\n           ...\n      ADD \t\t\tdingCondition({\\r\\n           ...\n      SWAP3 \t\t\tdingCondition({\\r\\n           ...\n      POP \t\t\tdingCondition({\\r\\n           ...\n      POP \t\t\tdingCondition({\\r\\n           ...\n      POP \t\t\tdingCondition({\\r\\n           ...\n      POP \t\t\tdingCondition({\\r\\n           ...\n      POP \t\t\tdingCondition({\\r\\n           ...\n      POP \t\t\tdingCondition({\\r\\n           ...\n      POP \t\t\tdingCondition({\\r\\n           ...\n      DUP2 \t\t\tdingCondition({\\r\\n           ...\n      MSTORE \t\t\tdingCondition({\\r\\n           ...\n      PUSH 20\t\t\tdingCondition({\\r\\n           ...\n      ADD \t\t\tdingCondition({\\r\\n           ...\n      DUP4 \t\t\tition.val\n      DUP1 \t\t\tition.value\\r\\n  \n      PUSH 40\t\t\tition.value\\r\\n  \n      ADD \t\t\tition.value\\r\\n  \n      SWAP1 \t\t\tition.value\\r\\n  \n      PUSH [tag] 408\t\t\tition.value\\r\\n  \n      SWAP2 \t\t\tition.value\\r\\n  \n      SWAP1 \t\t\tition.value\\r\\n  \n      PUSH [tag] 406\t\t\tition.value\\r\\n  \n      JUMP \t\t\tition.value\\r\\n  \n    tag 408\t\t\tition.value\\r\\n  \n      JUMPDEST \t\t\tition.value\\r\\n  \n      DUP1 \t\t\tdingCondition({\\r\\n           ...\n      DUP1 \t\t\tdingCondition({\\r\\n           ...\n      PUSH 1F\t\t\tdingCondition({\\r\\n           ...\n      ADD \t\t\tdingCondition({\\r\\n           ...\n      PUSH 20\t\t\tdingCondition({\\r\\n           ...\n      DUP1 \t\t\tdingCondition({\\r\\n           ...\n      SWAP2 \t\t\tdingCondition({\\r\\n           ...\n      DIV \t\t\tdingCondition({\\r\\n           ...\n      MUL \t\t\tdingCondition({\\r\\n           ...\n      PUSH 20\t\t\tdingCondition({\\r\\n           ...\n      ADD \t\t\tdingCondition({\\r\\n           ...\n      PUSH 40\t\t\tdingCondition({\\r\\n           ...\n      MLOAD \t\t\tdingCondition({\\r\\n           ...\n      SWAP1 \t\t\tdingCondition({\\r\\n           ...\n      DUP2 \t\t\tdingCondition({\\r\\n           ...\n      ADD \t\t\tdingCondition({\\r\\n           ...\n      PUSH 40\t\t\tdingCondition({\\r\\n           ...\n      MSTORE \t\t\tdingCondition({\\r\\n           ...\n      DUP1 \t\t\tdingCondition({\\r\\n           ...\n      SWAP4 \t\t\tdingCondition({\\r\\n           ...\n      SWAP3 \t\t\tdingCondition({\\r\\n           ...\n      SWAP2 \t\t\tdingCondition({\\r\\n           ...\n      SWAP1 \t\t\tdingCondition({\\r\\n           ...\n      DUP2 \t\t\tdingCondition({\\r\\n           ...\n      DUP2 \t\t\tdingCondition({\\r\\n           ...\n      MSTORE \t\t\tdingCondition({\\r\\n           ...\n      PUSH 20\t\t\tdingCondition({\\r\\n           ...\n      ADD \t\t\tdingCondition({\\r\\n           ...\n      DUP4 \t\t\tdingCondition({\\r\\n           ...\n      DUP4 \t\t\tdingCondition({\\r\\n           ...\n      DUP1 \t\t\tdingCondition({\\r\\n           ...\n      DUP3 \t\t\tdingCondition({\\r\\n           ...\n      DUP5 \t\t\tdingCondition({\\r\\n           ...\n      CALLDATACOPY \t\t\tdingCondition({\\r\\n           ...\n      PUSH 0\t\t\tdingCondition({\\r\\n           ...\n      DUP2 \t\t\tdingCondition({\\r\\n           ...\n      DUP5 \t\t\tdingCondition({\\r\\n           ...\n      ADD \t\t\tdingCondition({\\r\\n           ...\n      MSTORE \t\t\tdingCondition({\\r\\n           ...\n      PUSH 1F\t\t\tdingCondition({\\r\\n           ...\n      NOT \t\t\tdingCondition({\\r\\n           ...\n      PUSH 1F\t\t\tdingCondition({\\r\\n           ...\n      DUP3 \t\t\tdingCondition({\\r\\n           ...\n      ADD \t\t\tdingCondition({\\r\\n           ...\n      AND \t\t\tdingCondition({\\r\\n           ...\n      SWAP1 \t\t\tdingCondition({\\r\\n           ...\n      POP \t\t\tdingCondition({\\r\\n           ...\n      DUP1 \t\t\tdingCondition({\\r\\n           ...\n      DUP4 \t\t\tdingCondition({\\r\\n           ...\n      ADD \t\t\tdingCondition({\\r\\n           ...\n      SWAP3 \t\t\tdingCondition({\\r\\n           ...\n      POP \t\t\tdingCondition({\\r\\n           ...\n      POP \t\t\tdingCondition({\\r\\n           ...\n      POP \t\t\tdingCondition({\\r\\n           ...\n      POP \t\t\tdingCondition({\\r\\n           ...\n      POP \t\t\tdingCondition({\\r\\n           ...\n      POP \t\t\tdingCondition({\\r\\n           ...\n      POP \t\t\tdingCondition({\\r\\n           ...\n      DUP2 \t\t\tdingCondition({\\r\\n           ...\n      MSTORE \t\t\tdingCondition({\\r\\n           ...\n      POP \t\t\tdingCondition({\\r\\n           ...\n      PUSH 9\t\t\tdingConditions[tok\n      PUSH 0\t\t\tdingConditions[tokenID][req\n      DUP8 \t\t\tnID][re\n      DUP2 \t\t\tdingConditions[tokenID][req\n      MSTORE \t\t\tdingConditions[tokenID][req\n      PUSH 20\t\t\tdingConditions[tokenID][req\n      ADD \t\t\tdingConditions[tokenID][req\n      SWAP1 \t\t\tdingConditions[tokenID][req\n      DUP2 \t\t\tdingConditions[tokenID][req\n      MSTORE \t\t\tdingConditions[tokenID][req\n      PUSH 20\t\t\tdingConditions[tokenID][req\n      ADD \t\t\tdingConditions[tokenID][req\n      PUSH 0\t\t\tdingConditions[tokenID][req\n      KECCAK256 \t\t\tdingConditions[tokenID][req\n      PUSH 0\t\t\tdingConditions[tokenID][reques...\n      DUP14 \t\t\testId] = \n      PUSH FFFFFFFFFFFFFFFF\t\t\tdingConditions[tokenID][reques...\n      AND \t\t\tdingConditions[tokenID][reques...\n      PUSH FFFFFFFFFFFFFFFF\t\t\tdingConditions[tokenID][reques...\n      AND \t\t\tdingConditions[tokenID][reques...\n      DUP2 \t\t\tdingConditions[tokenID][reques...\n      MSTORE \t\t\tdingConditions[tokenID][reques...\n      PUSH 20\t\t\tdingConditions[tokenID][reques...\n      ADD \t\t\tdingConditions[tokenID][reques...\n      SWAP1 \t\t\tdingConditions[tokenID][reques...\n      DUP2 \t\t\tdingConditions[tokenID][reques...\n      MSTORE \t\t\tdingConditions[tokenID][reques...\n      PUSH 20\t\t\tdingConditions[tokenID][reques...\n      ADD \t\t\tdingConditions[tokenID][reques...\n      PUSH 0\t\t\tdingConditions[tokenID][reques...\n      KECCAK256 \t\t\tdingConditions[tokenID][reques...\n      PUSH 0\t\t\tdingConditions[tokenID][reques...\n      DUP3 \t\t\tdingConditions[tokenID][reques...\n      ADD \t\t\tdingConditions[tokenID][reques...\n      MLOAD \t\t\tdingConditions[tokenID][reques...\n      DUP2 \t\t\tdingConditions[tokenID][reques...\n      PUSH 0\t\t\tdingConditions[tokenID][reques...\n      ADD \t\t\tdingConditions[tokenID][reques...\n      SWAP1 \t\t\tdingConditions[tokenID][reques...\n      DUP2 \t\t\tdingConditions[tokenID][reques...\n      PUSH [tag] 409\t\t\tdingConditions[tokenID][reques...\n      SWAP2 \t\t\tdingConditions[tokenID][reques...\n      SWAP1 \t\t\tdingConditions[tokenID][reques...\n      PUSH [tag] 410\t\t\tdingConditions[tokenID][reques...\n      JUMP \t\t\tdingConditions[tokenID][reques...\n    tag 409\t\t\tdingConditions[tokenID][reques...\n      JUMPDEST \t\t\tdingConditions[tokenID][reques...\n      POP \t\t\tdingConditions[tokenID][reques...\n      PUSH 20\t\t\tdingConditions[tokenID][reques...\n      DUP3 \t\t\tdingConditions[tokenID][reques...\n      ADD \t\t\tdingConditions[tokenID][reques...\n      MLOAD \t\t\tdingConditions[tokenID][reques...\n      DUP2 \t\t\tdingConditions[tokenID][reques...\n      PUSH 1\t\t\tdingConditions[tokenID][reques...\n      ADD \t\t\tdingConditions[tokenID][reques...\n      SWAP1 \t\t\tdingConditions[tokenID][reques...\n      DUP2 \t\t\tdingConditions[tokenID][reques...\n      PUSH [tag] 411\t\t\tdingConditions[tokenID][reques...\n      SWAP2 \t\t\tdingConditions[tokenID][reques...\n      SWAP1 \t\t\tdingConditions[tokenID][reques...\n      PUSH [tag] 410\t\t\tdingConditions[tokenID][reques...\n      JUMP \t\t\tdingConditions[tokenID][reques...\n    tag 411\t\t\tdingConditions[tokenID][reques...\n      JUMPDEST \t\t\tdingConditions[tokenID][reques...\n      POP \t\t\tdingConditions[tokenID][reques...\n      PUSH 40\t\t\tdingConditions[tokenID][reques...\n      DUP3 \t\t\tdingConditions[tokenID][reques...\n      ADD \t\t\tdingConditions[tokenID][reques...\n      MLOAD \t\t\tdingConditions[tokenID][reques...\n      DUP2 \t\t\tdingConditions[tokenID][reques...\n      PUSH 2\t\t\tdingConditions[tokenID][reques...\n      ADD \t\t\tdingConditions[tokenID][reques...\n      SWAP1 \t\t\tdingConditions[tokenID][reques...\n      DUP2 \t\t\tdingConditions[tokenID][reques...\n      PUSH [tag] 412\t\t\tdingConditions[tokenID][reques...\n      SWAP2 \t\t\tdingConditions[tokenID][reques...\n      SWAP1 \t\t\tdingConditions[tokenID][reques...\n      PUSH [tag] 410\t\t\tdingConditions[tokenID][reques...\n      JUMP \t\t\tdingConditions[tokenID][reques...\n    tag 412\t\t\tdingConditions[tokenID][reques...\n      JUMPDEST \t\t\tdingConditions[tokenID][reques...\n      POP \t\t\tdingConditions[tokenID][reques...\n      SWAP1 \t\t\tdingConditions[tokenID][reques...\n      POP \t\t\tdingConditions[tokenID][reques...\n      POP \t\t\tdingConditions[tokenID][reques...\n      POP \t\t\t       // Build the IZKPVerifi...\n      POP \t\t\ttion addProofRequest_VerifierA...\n      POP \t\t\ttion addProofRequest_VerifierA...\n      POP \t\t\ttion addProofRequest_VerifierA...\n      POP \t\t\ttion addProofRequest_VerifierA...\n      POP \t\t\ttion addProofRequest_VerifierA...\n      POP \t\t\ttion addProofRequest_VerifierA...\n      POP \t\t\ttion addProofRequest_VerifierA...\n      POP \t\t\ttion addProofRequest_VerifierA...\n      POP \t\t\ttion addProofRequest_VerifierA...\n      POP \t\t\ttion addProofRequest_VerifierA...\n      JUMP \t\t\ttion addProofRequest_VerifierA...\n    tag 105\t\t\tfunction allTokenIDs() externa...\n      JUMPDEST \t\t\tfunction allTokenIDs() externa...\n      PUSH 60\t\t\tuint256[] memory\n      PUSH [tag] 414\t\t\t_allTokenIDs.values()\n      PUSH 5\t\t\t_allTokenIDs\n      PUSH [tag] 255\t\t\t_allTokenIDs.values\n      JUMP \t\t\t_allTokenIDs.values()\n    tag 414\t\t\t_allTokenIDs.values()\n      JUMPDEST \t\t\t_allTokenIDs.values()\n      SWAP1 \t\t\treturn _allTokenIDs.values()\n      POP \t\t\treturn _allTokenIDs.values()\n      SWAP1 \t\t\tfunction allTokenIDs() externa...\n      JUMP \t\t\tfunction allTokenIDs() externa...\n    tag 108\t\t\t256 public constant fungible_t...\n      JUMPDEST \t\t\t256 public constant fungible_t...\n      PUSH 1\t\t\t \n      DUP2 \t\t\t256 public constant fungible_t...\n      JUMP \t\t\t256 public constant fungible_t...\n    tag 111\t\t\t  function removeAdmin(address...\n      JUMPDEST \t\t\t  function removeAdmin(address...\n      PUSH 0\t\t\tonlyOwn\n      PUSH 3\t\t\tlen = \n      PUSH 0\t\t\tlen = \n      SWAP1 \t\t\tlen = \n      SLOAD \t\t\tlen = \n      SWAP1 \t\t\tlen = \n      PUSH 100\t\t\tlen = \n      EXP \t\t\tlen = \n      SWAP1 \t\t\tlen = \n      DIV \t\t\tlen = \n      PUSH FFFFFFFFFFFFFFFFFFFFFFFFFFFFFFFFFFFFFFFF\t\t\tlen = \n      AND \t\t\tlen = \n      SWAP1 \t\t\t  uint len = \n      POP \t\t\t  uint len = \n      SWAP1 \t\t\t  function removeAdmin(address...\n      JUMP \t\t\t  function removeAdmin(address...\n    tag 116\t\t\ting(uint256 => mapping(uint64 ...\n      JUMPDEST \t\t\ting(uint256 => mapping(uint64 ...\n      PUSH 9\t\t\ting(uint256 => mapping(uint64 ...\n      PUSH 20\t\t\ting(uint256 => mapping(uint64 ...\n      MSTORE \t\t\ting(uint256 => mapping(uint64 ...\n      DUP2 \t\t\ting(uint256 => mapping(uint64 ...\n      PUSH 0\t\t\ting(uint256 => mapping(uint64 ...\n      MSTORE \t\t\ting(uint256 => mapping(uint64 ...\n      PUSH 40\t\t\ting(uint256 => mapping(uint64 ...\n      PUSH 0\t\t\ting(uint256 => mapping(uint64 ...\n      KECCAK256 \t\t\ting(uint256 => mapping(uint64 ...\n      PUSH 20\t\t\ting(uint256 => mapping(uint64 ...\n      MSTORE \t\t\ting(uint256 => mapping(uint64 ...\n      DUP1 \t\t\ting(uint256 => mapping(uint64 ...\n      PUSH 0\t\t\ting(uint256 => mapping(uint64 ...\n      MSTORE \t\t\ting(uint256 => mapping(uint64 ...\n      PUSH 40\t\t\ting(uint256 => mapping(uint64 ...\n      PUSH 0\t\t\ting(uint256 => mapping(uint64 ...\n      KECCAK256 \t\t\ting(uint256 => mapping(uint64 ...\n      PUSH 0\t\t\ting(uint256 => mapping(uint64 ...\n      SWAP2 \t\t\ting(uint256 => mapping(uint64 ...\n      POP \t\t\ting(uint256 => mapping(uint64 ...\n      SWAP2 \t\t\ting(uint256 => mapping(uint64 ...\n      POP \t\t\ting(uint256 => mapping(uint64 ...\n      POP \t\t\ting(uint256 => mapping(uint64 ...\n      DUP1 \t\t\ting(uint256 => mapping(uint64 ...\n      PUSH 0\t\t\ting(uint256 => mapping(uint64 ...\n      ADD \t\t\ting(uint256 => mapping(uint64 ...\n      DUP1 \t\t\ting(uint256 => mapping(uint64 ...\n      SLOAD \t\t\ting(uint256 => mapping(uint64 ...\n      PUSH [tag] 416\t\t\ting(uint256 => mapping(uint64 ...\n      SWAP1 \t\t\ting(uint256 => mapping(uint64 ...\n      PUSH [tag] 166\t\t\ting(uint256 => mapping(uint64 ...\n      JUMP \t\t\ting(uint256 => mapping(uint64 ...\n    tag 416\t\t\ting(uint256 => mapping(uint64 ...\n      JUMPDEST \t\t\ting(uint256 => mapping(uint64 ...\n      DUP1 \t\t\ting(uint256 => mapping(uint64 ...\n      PUSH 1F\t\t\ting(uint256 => mapping(uint64 ...\n      ADD \t\t\ting(uint256 => mapping(uint64 ...\n      PUSH 20\t\t\ting(uint256 => mapping(uint64 ...\n      DUP1 \t\t\ting(uint256 => mapping(uint64 ...\n      SWAP2 \t\t\ting(uint256 => mapping(uint64 ...\n      DIV \t\t\ting(uint256 => mapping(uint64 ...\n      MUL \t\t\ting(uint256 => mapping(uint64 ...\n      PUSH 20\t\t\ting(uint256 => mapping(uint64 ...\n      ADD \t\t\ting(uint256 => mapping(uint64 ...\n      PUSH 40\t\t\ting(uint256 => mapping(uint64 ...\n      MLOAD \t\t\ting(uint256 => mapping(uint64 ...\n      SWAP1 \t\t\ting(uint256 => mapping(uint64 ...\n      DUP2 \t\t\ting(uint256 => mapping(uint64 ...\n      ADD \t\t\ting(uint256 => mapping(uint64 ...\n      PUSH 40\t\t\ting(uint256 => mapping(uint64 ...\n      MSTORE \t\t\ting(uint256 => mapping(uint64 ...\n      DUP1 \t\t\ting(uint256 => mapping(uint64 ...\n      SWAP3 \t\t\ting(uint256 => mapping(uint64 ...\n      SWAP2 \t\t\ting(uint256 => mapping(uint64 ...\n      SWAP1 \t\t\ting(uint256 => mapping(uint64 ...\n      DUP2 \t\t\ting(uint256 => mapping(uint64 ...\n      DUP2 \t\t\ting(uint256 => mapping(uint64 ...\n      MSTORE \t\t\ting(uint256 => mapping(uint64 ...\n      PUSH 20\t\t\ting(uint256 => mapping(uint64 ...\n      ADD \t\t\ting(uint256 => mapping(uint64 ...\n      DUP3 \t\t\ting(uint256 => mapping(uint64 ...\n      DUP1 \t\t\ting(uint256 => mapping(uint64 ...\n      SLOAD \t\t\ting(uint256 => mapping(uint64 ...\n      PUSH [tag] 417\t\t\ting(uint256 => mapping(uint64 ...\n      SWAP1 \t\t\ting(uint256 => mapping(uint64 ...\n      PUSH [tag] 166\t\t\ting(uint256 => mapping(uint64 ...\n      JUMP \t\t\ting(uint256 => mapping(uint64 ...\n    tag 417\t\t\ting(uint256 => mapping(uint64 ...\n      JUMPDEST \t\t\ting(uint256 => mapping(uint64 ...\n      DUP1 \t\t\ting(uint256 => mapping(uint64 ...\n      ISZERO \t\t\ting(uint256 => mapping(uint64 ...\n      PUSH [tag] 418\t\t\ting(uint256 => mapping(uint64 ...\n      JUMPI \t\t\ting(uint256 => mapping(uint64 ...\n      DUP1 \t\t\ting(uint256 => mapping(uint64 ...\n      PUSH 1F\t\t\ting(uint256 => mapping(uint64 ...\n      LT \t\t\ting(uint256 => mapping(uint64 ...\n      PUSH [tag] 419\t\t\ting(uint256 => mapping(uint64 ...\n      JUMPI \t\t\ting(uint256 => mapping(uint64 ...\n      PUSH 100\t\t\ting(uint256 => mapping(uint64 ...\n      DUP1 \t\t\ting(uint256 => mapping(uint64 ...\n      DUP4 \t\t\ting(uint256 => mapping(uint64 ...\n      SLOAD \t\t\ting(uint256 => mapping(uint64 ...\n      DIV \t\t\ting(uint256 => mapping(uint64 ...\n      MUL \t\t\ting(uint256 => mapping(uint64 ...\n      DUP4 \t\t\ting(uint256 => mapping(uint64 ...\n      MSTORE \t\t\ting(uint256 => mapping(uint64 ...\n      SWAP2 \t\t\ting(uint256 => mapping(uint64 ...\n      PUSH 20\t\t\ting(uint256 => mapping(uint64 ...\n      ADD \t\t\ting(uint256 => mapping(uint64 ...\n      SWAP2 \t\t\ting(uint256 => mapping(uint64 ...\n      PUSH [tag] 418\t\t\ting(uint256 => mapping(uint64 ...\n      JUMP \t\t\ting(uint256 => mapping(uint64 ...\n    tag 419\t\t\ting(uint256 => mapping(uint64 ...\n      JUMPDEST \t\t\ting(uint256 => mapping(uint64 ...\n      DUP3 \t\t\ting(uint256 => mapping(uint64 ...\n      ADD \t\t\ting(uint256 => mapping(uint64 ...\n      SWAP2 \t\t\ting(uint256 => mapping(uint64 ...\n      SWAP1 \t\t\ting(uint256 => mapping(uint64 ...\n      PUSH 0\t\t\ting(uint256 => mapping(uint64 ...\n      MSTORE \t\t\ting(uint256 => mapping(uint64 ...\n      PUSH 20\t\t\ting(uint256 => mapping(uint64 ...\n      PUSH 0\t\t\ting(uint256 => mapping(uint64 ...\n      KECCAK256 \t\t\ting(uint256 => mapping(uint64 ...\n      SWAP1 \t\t\ting(uint256 => mapping(uint64 ...\n    tag 420\t\t\ting(uint256 => mapping(uint64 ...\n      JUMPDEST \t\t\ting(uint256 => mapping(uint64 ...\n      DUP2 \t\t\ting(uint256 => mapping(uint64 ...\n      SLOAD \t\t\ting(uint256 => mapping(uint64 ...\n      DUP2 \t\t\ting(uint256 => mapping(uint64 ...\n      MSTORE \t\t\ting(uint256 => mapping(uint64 ...\n      SWAP1 \t\t\ting(uint256 => mapping(uint64 ...\n      PUSH 1\t\t\ting(uint256 => mapping(uint64 ...\n      ADD \t\t\ting(uint256 => mapping(uint64 ...\n      SWAP1 \t\t\ting(uint256 => mapping(uint64 ...\n      PUSH 20\t\t\ting(uint256 => mapping(uint64 ...\n      ADD \t\t\ting(uint256 => mapping(uint64 ...\n      DUP1 \t\t\ting(uint256 => mapping(uint64 ...\n      DUP4 \t\t\ting(uint256 => mapping(uint64 ...\n      GT \t\t\ting(uint256 => mapping(uint64 ...\n      PUSH [tag] 420\t\t\ting(uint256 => mapping(uint64 ...\n      JUMPI \t\t\ting(uint256 => mapping(uint64 ...\n      DUP3 \t\t\ting(uint256 => mapping(uint64 ...\n      SWAP1 \t\t\ting(uint256 => mapping(uint64 ...\n      SUB \t\t\ting(uint256 => mapping(uint64 ...\n      PUSH 1F\t\t\ting(uint256 => mapping(uint64 ...\n      AND \t\t\ting(uint256 => mapping(uint64 ...\n      DUP3 \t\t\ting(uint256 => mapping(uint64 ...\n      ADD \t\t\ting(uint256 => mapping(uint64 ...\n      SWAP2 \t\t\ting(uint256 => mapping(uint64 ...\n    tag 418\t\t\ting(uint256 => mapping(uint64 ...\n      JUMPDEST \t\t\ting(uint256 => mapping(uint64 ...\n      POP \t\t\ting(uint256 => mapping(uint64 ...\n      POP \t\t\ting(uint256 => mapping(uint64 ...\n      POP \t\t\ting(uint256 => mapping(uint64 ...\n      POP \t\t\ting(uint256 => mapping(uint64 ...\n      POP \t\t\ting(uint256 => mapping(uint64 ...\n      SWAP1 \t\t\ting(uint256 => mapping(uint64 ...\n      DUP1 \t\t\ting(uint256 => mapping(uint64 ...\n      PUSH 1\t\t\ting(uint256 => mapping(uint64 ...\n      ADD \t\t\ting(uint256 => mapping(uint64 ...\n      DUP1 \t\t\ting(uint256 => mapping(uint64 ...\n      SLOAD \t\t\ting(uint256 => mapping(uint64 ...\n      PUSH [tag] 421\t\t\ting(uint256 => mapping(uint64 ...\n      SWAP1 \t\t\ting(uint256 => mapping(uint64 ...\n      PUSH [tag] 166\t\t\ting(uint256 => mapping(uint64 ...\n      JUMP \t\t\ting(uint256 => mapping(uint64 ...\n    tag 421\t\t\ting(uint256 => mapping(uint64 ...\n      JUMPDEST \t\t\ting(uint256 => mapping(uint64 ...\n      DUP1 \t\t\ting(uint256 => mapping(uint64 ...\n      PUSH 1F\t\t\ting(uint256 => mapping(uint64 ...\n      ADD \t\t\ting(uint256 => mapping(uint64 ...\n      PUSH 20\t\t\ting(uint256 => mapping(uint64 ...\n      DUP1 \t\t\ting(uint256 => mapping(uint64 ...\n      SWAP2 \t\t\ting(uint256 => mapping(uint64 ...\n      DIV \t\t\ting(uint256 => mapping(uint64 ...\n      MUL \t\t\ting(uint256 => mapping(uint64 ...\n      PUSH 20\t\t\ting(uint256 => mapping(uint64 ...\n      ADD \t\t\ting(uint256 => mapping(uint64 ...\n      PUSH 40\t\t\ting(uint256 => mapping(uint64 ...\n      MLOAD \t\t\ting(uint256 => mapping(uint64 ...\n      SWAP1 \t\t\ting(uint256 => mapping(uint64 ...\n      DUP2 \t\t\ting(uint256 => mapping(uint64 ...\n      ADD \t\t\ting(uint256 => mapping(uint64 ...\n      PUSH 40\t\t\ting(uint256 => mapping(uint64 ...\n      MSTORE \t\t\ting(uint256 => mapping(uint64 ...\n      DUP1 \t\t\ting(uint256 => mapping(uint64 ...\n      SWAP3 \t\t\ting(uint256 => mapping(uint64 ...\n      SWAP2 \t\t\ting(uint256 => mapping(uint64 ...\n      SWAP1 \t\t\ting(uint256 => mapping(uint64 ...\n      DUP2 \t\t\ting(uint256 => mapping(uint64 ...\n      DUP2 \t\t\ting(uint256 => mapping(uint64 ...\n      MSTORE \t\t\ting(uint256 => mapping(uint64 ...\n      PUSH 20\t\t\ting(uint256 => mapping(uint64 ...\n      ADD \t\t\ting(uint256 => mapping(uint64 ...\n      DUP3 \t\t\ting(uint256 => mapping(uint64 ...\n      DUP1 \t\t\ting(uint256 => mapping(uint64 ...\n      SLOAD \t\t\ting(uint256 => mapping(uint64 ...\n      PUSH [tag] 422\t\t\ting(uint256 => mapping(uint64 ...\n      SWAP1 \t\t\ting(uint256 => mapping(uint64 ...\n      PUSH [tag] 166\t\t\ting(uint256 => mapping(uint64 ...\n      JUMP \t\t\ting(uint256 => mapping(uint64 ...\n    tag 422\t\t\ting(uint256 => mapping(uint64 ...\n      JUMPDEST \t\t\ting(uint256 => mapping(uint64 ...\n      DUP1 \t\t\ting(uint256 => mapping(uint64 ...\n      ISZERO \t\t\ting(uint256 => mapping(uint64 ...\n      PUSH [tag] 423\t\t\ting(uint256 => mapping(uint64 ...\n      JUMPI \t\t\ting(uint256 => mapping(uint64 ...\n      DUP1 \t\t\ting(uint256 => mapping(uint64 ...\n      PUSH 1F\t\t\ting(uint256 => mapping(uint64 ...\n      LT \t\t\ting(uint256 => mapping(uint64 ...\n      PUSH [tag] 424\t\t\ting(uint256 => mapping(uint64 ...\n      JUMPI \t\t\ting(uint256 => mapping(uint64 ...\n      PUSH 100\t\t\ting(uint256 => mapping(uint64 ...\n      DUP1 \t\t\ting(uint256 => mapping(uint64 ...\n      DUP4 \t\t\ting(uint256 => mapping(uint64 ...\n      SLOAD \t\t\ting(uint256 => mapping(uint64 ...\n      DIV \t\t\ting(uint256 => mapping(uint64 ...\n      MUL \t\t\ting(uint256 => mapping(uint64 ...\n      DUP4 \t\t\ting(uint256 => mapping(uint64 ...\n      MSTORE \t\t\ting(uint256 => mapping(uint64 ...\n      SWAP2 \t\t\ting(uint256 => mapping(uint64 ...\n      PUSH 20\t\t\ting(uint256 => mapping(uint64 ...\n      ADD \t\t\ting(uint256 => mapping(uint64 ...\n      SWAP2 \t\t\ting(uint256 => mapping(uint64 ...\n      PUSH [tag] 423\t\t\ting(uint256 => mapping(uint64 ...\n      JUMP \t\t\ting(uint256 => mapping(uint64 ...\n    tag 424\t\t\ting(uint256 => mapping(uint64 ...\n      JUMPDEST \t\t\ting(uint256 => mapping(uint64 ...\n      DUP3 \t\t\ting(uint256 => mapping(uint64 ...\n      ADD \t\t\ting(uint256 => mapping(uint64 ...\n      SWAP2 \t\t\ting(uint256 => mapping(uint64 ...\n      SWAP1 \t\t\ting(uint256 => mapping(uint64 ...\n      PUSH 0\t\t\ting(uint256 => mapping(uint64 ...\n      MSTORE \t\t\ting(uint256 => mapping(uint64 ...\n      PUSH 20\t\t\ting(uint256 => mapping(uint64 ...\n      PUSH 0\t\t\ting(uint256 => mapping(uint64 ...\n      KECCAK256 \t\t\ting(uint256 => mapping(uint64 ...\n      SWAP1 \t\t\ting(uint256 => mapping(uint64 ...\n    tag 425\t\t\ting(uint256 => mapping(uint64 ...\n      JUMPDEST \t\t\ting(uint256 => mapping(uint64 ...\n      DUP2 \t\t\ting(uint256 => mapping(uint64 ...\n      SLOAD \t\t\ting(uint256 => mapping(uint64 ...\n      DUP2 \t\t\ting(uint256 => mapping(uint64 ...\n      MSTORE \t\t\ting(uint256 => mapping(uint64 ...\n      SWAP1 \t\t\ting(uint256 => mapping(uint64 ...\n      PUSH 1\t\t\ting(uint256 => mapping(uint64 ...\n      ADD \t\t\ting(uint256 => mapping(uint64 ...\n      SWAP1 \t\t\ting(uint256 => mapping(uint64 ...\n      PUSH 20\t\t\ting(uint256 => mapping(uint64 ...\n      ADD \t\t\ting(uint256 => mapping(uint64 ...\n      DUP1 \t\t\ting(uint256 => mapping(uint64 ...\n      DUP4 \t\t\ting(uint256 => mapping(uint64 ...\n      GT \t\t\ting(uint256 => mapping(uint64 ...\n      PUSH [tag] 425\t\t\ting(uint256 => mapping(uint64 ...\n      JUMPI \t\t\ting(uint256 => mapping(uint64 ...\n      DUP3 \t\t\ting(uint256 => mapping(uint64 ...\n      SWAP1 \t\t\ting(uint256 => mapping(uint64 ...\n      SUB \t\t\ting(uint256 => mapping(uint64 ...\n      PUSH 1F\t\t\ting(uint256 => mapping(uint64 ...\n      AND \t\t\ting(uint256 => mapping(uint64 ...\n      DUP3 \t\t\ting(uint256 => mapping(uint64 ...\n      ADD \t\t\ting(uint256 => mapping(uint64 ...\n      SWAP2 \t\t\ting(uint256 => mapping(uint64 ...\n    tag 423\t\t\ting(uint256 => mapping(uint64 ...\n      JUMPDEST \t\t\ting(uint256 => mapping(uint64 ...\n      POP \t\t\ting(uint256 => mapping(uint64 ...\n      POP \t\t\ting(uint256 => mapping(uint64 ...\n      POP \t\t\ting(uint256 => mapping(uint64 ...\n      POP \t\t\ting(uint256 => mapping(uint64 ...\n      POP \t\t\ting(uint256 => mapping(uint64 ...\n      SWAP1 \t\t\ting(uint256 => mapping(uint64 ...\n      DUP1 \t\t\ting(uint256 => mapping(uint64 ...\n      PUSH 2\t\t\ting(uint256 => mapping(uint64 ...\n      ADD \t\t\ting(uint256 => mapping(uint64 ...\n      DUP1 \t\t\ting(uint256 => mapping(uint64 ...\n      SLOAD \t\t\ting(uint256 => mapping(uint64 ...\n      PUSH [tag] 426\t\t\ting(uint256 => mapping(uint64 ...\n      SWAP1 \t\t\ting(uint256 => mapping(uint64 ...\n      PUSH [tag] 166\t\t\ting(uint256 => mapping(uint64 ...\n      JUMP \t\t\ting(uint256 => mapping(uint64 ...\n    tag 426\t\t\ting(uint256 => mapping(uint64 ...\n      JUMPDEST \t\t\ting(uint256 => mapping(uint64 ...\n      DUP1 \t\t\ting(uint256 => mapping(uint64 ...\n      PUSH 1F\t\t\ting(uint256 => mapping(uint64 ...\n      ADD \t\t\ting(uint256 => mapping(uint64 ...\n      PUSH 20\t\t\ting(uint256 => mapping(uint64 ...\n      DUP1 \t\t\ting(uint256 => mapping(uint64 ...\n      SWAP2 \t\t\ting(uint256 => mapping(uint64 ...\n      DIV \t\t\ting(uint256 => mapping(uint64 ...\n      MUL \t\t\ting(uint256 => mapping(uint64 ...\n      PUSH 20\t\t\ting(uint256 => mapping(uint64 ...\n      ADD \t\t\ting(uint256 => mapping(uint64 ...\n      PUSH 40\t\t\ting(uint256 => mapping(uint64 ...\n      MLOAD \t\t\ting(uint256 => mapping(uint64 ...\n      SWAP1 \t\t\ting(uint256 => mapping(uint64 ...\n      DUP2 \t\t\ting(uint256 => mapping(uint64 ...\n      ADD \t\t\ting(uint256 => mapping(uint64 ...\n      PUSH 40\t\t\ting(uint256 => mapping(uint64 ...\n      MSTORE \t\t\ting(uint256 => mapping(uint64 ...\n      DUP1 \t\t\ting(uint256 => mapping(uint64 ...\n      SWAP3 \t\t\ting(uint256 => mapping(uint64 ...\n      SWAP2 \t\t\ting(uint256 => mapping(uint64 ...\n      SWAP1 \t\t\ting(uint256 => mapping(uint64 ...\n      DUP2 \t\t\ting(uint256 => mapping(uint64 ...\n      DUP2 \t\t\ting(uint256 => mapping(uint64 ...\n      MSTORE \t\t\ting(uint256 => mapping(uint64 ...\n      PUSH 20\t\t\ting(uint256 => mapping(uint64 ...\n      ADD \t\t\ting(uint256 => mapping(uint64 ...\n      DUP3 \t\t\ting(uint256 => mapping(uint64 ...\n      DUP1 \t\t\ting(uint256 => mapping(uint64 ...\n      SLOAD \t\t\ting(uint256 => mapping(uint64 ...\n      PUSH [tag] 427\t\t\ting(uint256 => mapping(uint64 ...\n      SWAP1 \t\t\ting(uint256 => mapping(uint64 ...\n      PUSH [tag] 166\t\t\ting(uint256 => mapping(uint64 ...\n      JUMP \t\t\ting(uint256 => mapping(uint64 ...\n    tag 427\t\t\ting(uint256 => mapping(uint64 ...\n      JUMPDEST \t\t\ting(uint256 => mapping(uint64 ...\n      DUP1 \t\t\ting(uint256 => mapping(uint64 ...\n      ISZERO \t\t\ting(uint256 => mapping(uint64 ...\n      PUSH [tag] 428\t\t\ting(uint256 => mapping(uint64 ...\n      JUMPI \t\t\ting(uint256 => mapping(uint64 ...\n      DUP1 \t\t\ting(uint256 => mapping(uint64 ...\n      PUSH 1F\t\t\ting(uint256 => mapping(uint64 ...\n      LT \t\t\ting(uint256 => mapping(uint64 ...\n      PUSH [tag] 429\t\t\ting(uint256 => mapping(uint64 ...\n      JUMPI \t\t\ting(uint256 => mapping(uint64 ...\n      PUSH 100\t\t\ting(uint256 => mapping(uint64 ...\n      DUP1 \t\t\ting(uint256 => mapping(uint64 ...\n      DUP4 \t\t\ting(uint256 => mapping(uint64 ...\n      SLOAD \t\t\ting(uint256 => mapping(uint64 ...\n      DIV \t\t\ting(uint256 => mapping(uint64 ...\n      MUL \t\t\ting(uint256 => mapping(uint64 ...\n      DUP4 \t\t\ting(uint256 => mapping(uint64 ...\n      MSTORE \t\t\ting(uint256 => mapping(uint64 ...\n      SWAP2 \t\t\ting(uint256 => mapping(uint64 ...\n      PUSH 20\t\t\ting(uint256 => mapping(uint64 ...\n      ADD \t\t\ting(uint256 => mapping(uint64 ...\n      SWAP2 \t\t\ting(uint256 => mapping(uint64 ...\n      PUSH [tag] 428\t\t\ting(uint256 => mapping(uint64 ...\n      JUMP \t\t\ting(uint256 => mapping(uint64 ...\n    tag 429\t\t\ting(uint256 => mapping(uint64 ...\n      JUMPDEST \t\t\ting(uint256 => mapping(uint64 ...\n      DUP3 \t\t\ting(uint256 => mapping(uint64 ...\n      ADD \t\t\ting(uint256 => mapping(uint64 ...\n      SWAP2 \t\t\ting(uint256 => mapping(uint64 ...\n      SWAP1 \t\t\ting(uint256 => mapping(uint64 ...\n      PUSH 0\t\t\ting(uint256 => mapping(uint64 ...\n      MSTORE \t\t\ting(uint256 => mapping(uint64 ...\n      PUSH 20\t\t\ting(uint256 => mapping(uint64 ...\n      PUSH 0\t\t\ting(uint256 => mapping(uint64 ...\n      KECCAK256 \t\t\ting(uint256 => mapping(uint64 ...\n      SWAP1 \t\t\ting(uint256 => mapping(uint64 ...\n    tag 430\t\t\ting(uint256 => mapping(uint64 ...\n      JUMPDEST \t\t\ting(uint256 => mapping(uint64 ...\n      DUP2 \t\t\ting(uint256 => mapping(uint64 ...\n      SLOAD \t\t\ting(uint256 => mapping(uint64 ...\n      DUP2 \t\t\ting(uint256 => mapping(uint64 ...\n      MSTORE \t\t\ting(uint256 => mapping(uint64 ...\n      SWAP1 \t\t\ting(uint256 => mapping(uint64 ...\n      PUSH 1\t\t\ting(uint256 => mapping(uint64 ...\n      ADD \t\t\ting(uint256 => mapping(uint64 ...\n      SWAP1 \t\t\ting(uint256 => mapping(uint64 ...\n      PUSH 20\t\t\ting(uint256 => mapping(uint64 ...\n      ADD \t\t\ting(uint256 => mapping(uint64 ...\n      DUP1 \t\t\ting(uint256 => mapping(uint64 ...\n      DUP4 \t\t\ting(uint256 => mapping(uint64 ...\n      GT \t\t\ting(uint256 => mapping(uint64 ...\n      PUSH [tag] 430\t\t\ting(uint256 => mapping(uint64 ...\n      JUMPI \t\t\ting(uint256 => mapping(uint64 ...\n      DUP3 \t\t\ting(uint256 => mapping(uint64 ...\n      SWAP1 \t\t\ting(uint256 => mapping(uint64 ...\n      SUB \t\t\ting(uint256 => mapping(uint64 ...\n      PUSH 1F\t\t\ting(uint256 => mapping(uint64 ...\n      AND \t\t\ting(uint256 => mapping(uint64 ...\n      DUP3 \t\t\ting(uint256 => mapping(uint64 ...\n      ADD \t\t\ting(uint256 => mapping(uint64 ...\n      SWAP2 \t\t\ting(uint256 => mapping(uint64 ...\n    tag 428\t\t\ting(uint256 => mapping(uint64 ...\n      JUMPDEST \t\t\ting(uint256 => mapping(uint64 ...\n      POP \t\t\ting(uint256 => mapping(uint64 ...\n      POP \t\t\ting(uint256 => mapping(uint64 ...\n      POP \t\t\ting(uint256 => mapping(uint64 ...\n      POP \t\t\ting(uint256 => mapping(uint64 ...\n      POP \t\t\ting(uint256 => mapping(uint64 ...\n      SWAP1 \t\t\ting(uint256 => mapping(uint64 ...\n      POP \t\t\ting(uint256 => mapping(uint64 ...\n      DUP4 \t\t\ting(uint256 => mapping(uint64 ...\n      JUMP \t\t\ting(uint256 => mapping(uint64 ...\n    tag 122\t\t\ting condition\\r\\n    // tokenI...\n      JUMPDEST \t\t\ting condition\\r\\n    // tokenI...\n      PUSH [tag] 432\t\t\tint256 => mapping(uint64 => Sp...\n      PUSH [tag] 433\t\t\tint64 => Spe\n      PUSH [tag] 434\t\t\tint64 => S\n      JUMP \t\t\tint64 => Spe\n    tag 433\t\t\tint64 => Spe\n      JUMPDEST \t\t\tint64 => Spe\n      DUP4 \t\t\tingCondi\n      DUP4 \t\t\ton)) pub\n      PUSH [tag] 435\t\t\tint256 => mapping(\n      JUMP \t\t\tint256 => mapping(uint64 => Sp...\n    tag 432\t\t\tint256 => mapping(uint64 => Sp...\n      JUMPDEST \t\t\tint256 => mapping(uint64 => Sp...\n      POP \t\t\ting condition\\r\\n    // tokenI...\n      POP \t\t\ting condition\\r\\n    // tokenI...\n      JUMP \t\t\ting condition\\r\\n    // tokenI...\n    tag 126\t\t\ttion addProofRequestAndRole(ui...\n      JUMPDEST \t\t\ttion addProofRequestAndRole(ui...\n      PUSH [tag] 437\t\t\t_isAdmin(msg.sender)\n      CALLER \t\t\tmsg.sender\n      PUSH [tag] 346\t\t\t_isAdmin\n      JUMP \t\t\t_isAdmin(msg.sender)\n    tag 437\t\t\t_isAdmin(msg.sender)\n      JUMPDEST \t\t\t_isAdmin(msg.sender)\n      PUSH [tag] 438\t\t\trequire(_isAdmin(msg.sender), ...\n      JUMPI \t\t\trequire(_isAdmin(msg.sender), ...\n      PUSH 40\t\t\trequire(_isAdmin(msg.sender), ...\n      MLOAD \t\t\trequire(_isAdmin(msg.sender), ...\n      PUSH 8C379A000000000000000000000000000000000000000000000000000000000\t\t\trequire(_isAdmin(msg.sender), ...\n      DUP2 \t\t\trequire(_isAdmin(msg.sender), ...\n      MSTORE \t\t\trequire(_isAdmin(msg.sender), ...\n      PUSH 4\t\t\trequire(_isAdmin(msg.sender), ...\n      ADD \t\t\trequire(_isAdmin(msg.sender), ...\n      PUSH [tag] 439\t\t\trequire(_isAdmin(msg.sender), ...\n      SWAP1 \t\t\trequire(_isAdmin(msg.sender), ...\n      PUSH [tag] 349\t\t\trequire(_isAdmin(msg.sender), ...\n      JUMP \t\t\trequire(_isAdmin(msg.sender), ...\n    tag 439\t\t\trequire(_isAdmin(msg.sender), ...\n      JUMPDEST \t\t\trequire(_isAdmin(msg.sender), ...\n      PUSH 40\t\t\trequire(_isAdmin(msg.sender), ...\n      MLOAD \t\t\trequire(_isAdmin(msg.sender), ...\n      DUP1 \t\t\trequire(_isAdmin(msg.sender), ...\n      SWAP2 \t\t\trequire(_isAdmin(msg.sender), ...\n      SUB \t\t\trequire(_isAdmin(msg.sender), ...\n      SWAP1 \t\t\trequire(_isAdmin(msg.sender), ...\n      REVERT \t\t\trequire(_isAdmin(msg.sender), ...\n    tag 438\t\t\trequire(_isAdmin(msg.sender), ...\n      JUMPDEST \t\t\trequire(_isAdmin(msg.sender), ...\n      PUSH [tag] 441\t\t\tTokenIDs.contains(tokenID), \"t\n      DUP5 \t\t\tnID), \"\n      PUSH 5\t\t\tTokenIDs.con\n      PUSH [tag] 287\t\t\tTokenIDs.contains(tok\n      SWAP1 \t\t\tTokenIDs.contains(tok\n      SWAP2 \t\t\tTokenIDs.contains(tokenID), \"t\n      SWAP1 \t\t\tTokenIDs.contains(tokenID), \"t\n      PUSH FFFFFFFF\t\t\tTokenIDs.contains(tokenID), \"t\n      AND \t\t\tTokenIDs.contains(tokenID), \"t\n      JUMP \t\t\tTokenIDs.contains(tokenID), \"t\n    tag 441\t\t\tTokenIDs.contains(tokenID), \"t\n      JUMPDEST \t\t\tTokenIDs.contains(tokenID), \"t\n      PUSH [tag] 442\t\t\tire(_allTokenIDs.contains(toke...\n      JUMPI \t\t\tire(_allTokenIDs.contains(toke...\n      PUSH 40\t\t\tire(_allTokenIDs.contains(toke...\n      MLOAD \t\t\tire(_allTokenIDs.contains(toke...\n      PUSH 8C379A000000000000000000000000000000000000000000000000000000000\t\t\tire(_allTokenIDs.contains(toke...\n      DUP2 \t\t\tire(_allTokenIDs.contains(toke...\n      MSTORE \t\t\tire(_allTokenIDs.contains(toke...\n      PUSH 4\t\t\tire(_allTokenIDs.contains(toke...\n      ADD \t\t\tire(_allTokenIDs.contains(toke...\n      PUSH [tag] 443\t\t\tire(_allTokenIDs.contains(toke...\n      SWAP1 \t\t\tire(_allTokenIDs.contains(toke...\n      PUSH [tag] 354\t\t\tire(_allTokenIDs.contains(toke...\n      JUMP \t\t\tire(_allTokenIDs.contains(toke...\n    tag 443\t\t\tire(_allTokenIDs.contains(toke...\n      JUMPDEST \t\t\tire(_allTokenIDs.contains(toke...\n      PUSH 40\t\t\tire(_allTokenIDs.contains(toke...\n      MLOAD \t\t\tire(_allTokenIDs.contains(toke...\n      DUP1 \t\t\tire(_allTokenIDs.contains(toke...\n      SWAP2 \t\t\tire(_allTokenIDs.contains(toke...\n      SUB \t\t\tire(_allTokenIDs.contains(toke...\n      SWAP1 \t\t\tire(_allTokenIDs.contains(toke...\n      REVERT \t\t\tire(_allTokenIDs.contains(toke...\n    tag 442\t\t\tire(_allTokenIDs.contains(toke...\n      JUMPDEST \t\t\tire(_allTokenIDs.contains(toke...\n      PUSH 0\t\t\tP\n      PUSH 8\t\t\tnID_proofRequest_role[tok\n      PUSH 0\t\t\tnID_proofRequest_role[tokenID]...\n      DUP7 \t\t\tnID][re\n      DUP2 \t\t\tnID_proofRequest_role[tokenID]...\n      MSTORE \t\t\tnID_proofRequest_role[tokenID]...\n      PUSH 20\t\t\tnID_proofRequest_role[tokenID]...\n      ADD \t\t\tnID_proofRequest_role[tokenID]...\n      SWAP1 \t\t\tnID_proofRequest_role[tokenID]...\n      DUP2 \t\t\tnID_proofRequest_role[tokenID]...\n      MSTORE \t\t\tnID_proofRequest_role[tokenID]...\n      PUSH 20\t\t\tnID_proofRequest_role[tokenID]...\n      ADD \t\t\tnID_proofRequest_role[tokenID]...\n      PUSH 0\t\t\tnID_proofRequest_role[tokenID]...\n      KECCAK256 \t\t\tnID_proofRequest_role[tokenID]...\n      PUSH 0\t\t\tnID_proofRequest_role[tokenID]...\n      DUP6 \t\t\testID]).l\n      PUSH FFFFFFFFFFFFFFFF\t\t\tnID_proofRequest_role[tokenID]...\n      AND \t\t\tnID_proofRequest_role[tokenID]...\n      PUSH FFFFFFFFFFFFFFFF\t\t\tnID_proofRequest_role[tokenID]...\n      AND \t\t\tnID_proofRequest_role[tokenID]...\n      DUP2 \t\t\tnID_proofRequest_role[tokenID]...\n      MSTORE \t\t\tnID_proofRequest_role[tokenID]...\n      PUSH 20\t\t\tnID_proofRequest_role[tokenID]...\n      ADD \t\t\tnID_proofRequest_role[tokenID]...\n      SWAP1 \t\t\tnID_proofRequest_role[tokenID]...\n      DUP2 \t\t\tnID_proofRequest_role[tokenID]...\n      MSTORE \t\t\tnID_proofRequest_role[tokenID]...\n      PUSH 20\t\t\tnID_proofRequest_role[tokenID]...\n      ADD \t\t\tnID_proofRequest_role[tokenID]...\n      PUSH 0\t\t\tnID_proofRequest_role[tokenID]...\n      KECCAK256 \t\t\tnID_proofRequest_role[tokenID]...\n      DUP1 \t\t\ts(tokenID_proofRequest_role[to...\n      SLOAD \t\t\ts(tokenID_proofRequest_role[to...\n      PUSH [tag] 444\t\t\ts(tokenID_proofRequest_role[to...\n      SWAP1 \t\t\ts(tokenID_proofRequest_role[to...\n      PUSH [tag] 166\t\t\ts(tokenID_proofRequest_role[to...\n      JUMP \t\t\ts(tokenID_proofRequest_role[to...\n    tag 444\t\t\ts(tokenID_proofRequest_role[to...\n      JUMPDEST \t\t\ts(tokenID_proofRequest_role[to...\n      SWAP1 \t\t\ts(tokenID_proofRequest_role[to...\n      POP \t\t\ts(tokenID_proofRequest_role[to...\n      EQ \t\t\ts(tokenID_proofRequest_role[to...\n      PUSH [tag] 445\t\t\tire(bytes(tokenID_proofRequest...\n      JUMPI \t\t\tire(bytes(tokenID_proofRequest...\n      PUSH 40\t\t\tire(bytes(tokenID_proofRequest...\n      MLOAD \t\t\tire(bytes(tokenID_proofRequest...\n      PUSH 8C379A000000000000000000000000000000000000000000000000000000000\t\t\tire(bytes(tokenID_proofRequest...\n      DUP2 \t\t\tire(bytes(tokenID_proofRequest...\n      MSTORE \t\t\tire(bytes(tokenID_proofRequest...\n      PUSH 4\t\t\tire(bytes(tokenID_proofRequest...\n      ADD \t\t\tire(bytes(tokenID_proofRequest...\n      PUSH [tag] 446\t\t\tire(bytes(tokenID_proofRequest...\n      SWAP1 \t\t\tire(bytes(tokenID_proofRequest...\n      PUSH [tag] 447\t\t\tire(bytes(tokenID_proofRequest...\n      JUMP \t\t\tire(bytes(tokenID_proofRequest...\n    tag 446\t\t\tire(bytes(tokenID_proofRequest...\n      JUMPDEST \t\t\tire(bytes(tokenID_proofRequest...\n      PUSH 40\t\t\tire(bytes(tokenID_proofRequest...\n      MLOAD \t\t\tire(bytes(tokenID_proofRequest...\n      DUP1 \t\t\tire(bytes(tokenID_proofRequest...\n      SWAP2 \t\t\tire(bytes(tokenID_proofRequest...\n      SUB \t\t\tire(bytes(tokenID_proofRequest...\n      SWAP1 \t\t\tire(bytes(tokenID_proofRequest...\n      REVERT \t\t\tire(bytes(tokenID_proofRequest...\n    tag 445\t\t\tire(bytes(tokenID_proofRequest...\n      JUMPDEST \t\t\tire(bytes(tokenID_proofRequest...\n      PUSH 40\t\t\ts(\"sender\")) ||\n      MLOAD \t\t\ts(\"sender\")) ||\n      DUP1 \t\t\ts(\"sender\")) ||\n      PUSH 40\t\t\ts(\"sender\")) ||\n      ADD \t\t\ts(\"sender\")) ||\n      PUSH 40\t\t\ts(\"sender\")) ||\n      MSTORE \t\t\ts(\"sender\")) ||\n      DUP1 \t\t\ts(\"sender\")) ||\n      PUSH 6\t\t\ts(\"sender\")) ||\n      DUP2 \t\t\ts(\"sender\")) ||\n      MSTORE \t\t\ts(\"sender\")) ||\n      PUSH 20\t\t\ts(\"sender\")) ||\n      ADD \t\t\ts(\"sender\")) ||\n      PUSH 73656E6465720000000000000000000000000000000000000000000000000000\t\t\ts(\"sender\")) ||\n      DUP2 \t\t\ts(\"sender\")) ||\n      MSTORE \t\t\ts(\"sender\")) ||\n      POP \t\t\ts(\"sender\")) ||\n      DUP1 \t\t\tak256(bytes(\"sender\")) ||\\r\n      MLOAD \t\t\tak256(bytes(\"sender\")) ||\\r\n      SWAP1 \t\t\tak256(bytes(\"sender\")) ||\\r\n      PUSH 20\t\t\tak256(bytes(\"sender\")) ||\\r\n      ADD \t\t\tak256(bytes(\"sender\")) ||\\r\n      KECCAK256 \t\t\tak256(bytes(\"sender\")) ||\\r\n      DUP3 \t\t\t)) =\n      DUP3 \t\t\t)) =\n      PUSH 40\t\t\tak256(bytes(role)) == \n      MLOAD \t\t\tak256(bytes(role)) == \n      PUSH [tag] 448\t\t\tak256(bytes(role)) == \n      SWAP3 \t\t\tak256(bytes(role)) == \n      SWAP2 \t\t\tak256(bytes(role)) == \n      SWAP1 \t\t\tak256(bytes(role)) == \n      PUSH [tag] 260\t\t\tak256(bytes(role)) == \n      JUMP \t\t\tak256(bytes(role)) == \n    tag 448\t\t\tak256(bytes(role)) == \n      JUMPDEST \t\t\tak256(bytes(role)) == \n      PUSH 40\t\t\tak256(bytes(role)) == \n      MLOAD \t\t\tak256(bytes(role)) == \n      DUP1 \t\t\tak256(bytes(role)) == \n      SWAP2 \t\t\tak256(bytes(role)) == \n      SUB \t\t\tak256(bytes(role)) == \n      SWAP1 \t\t\tak256(bytes(role)) == \n      KECCAK256 \t\t\tak256(bytes(role)) == \n      EQ \t\t\tak256(bytes(role)) == keccak25...\n      DUP1 \t\t\tak256(bytes(role)) == keccak25...\n      PUSH [tag] 449\t\t\tak256(bytes(role)) == keccak25...\n      JUMPI \t\t\tak256(bytes(role)) == keccak25...\n      POP \t\t\tak256(bytes(role)) == keccak25...\n      PUSH 40\t\t\ts(\"receiver\")),\\r\\n\n      MLOAD \t\t\ts(\"receiver\")),\\r\\n\n      DUP1 \t\t\ts(\"receiver\")),\\r\\n\n      PUSH 40\t\t\ts(\"receiver\")),\\r\\n\n      ADD \t\t\ts(\"receiver\")),\\r\\n\n      PUSH 40\t\t\ts(\"receiver\")),\\r\\n\n      MSTORE \t\t\ts(\"receiver\")),\\r\\n\n      DUP1 \t\t\ts(\"receiver\")),\\r\\n\n      PUSH 8\t\t\ts(\"receiver\")),\\r\\n\n      DUP2 \t\t\ts(\"receiver\")),\\r\\n\n      MSTORE \t\t\ts(\"receiver\")),\\r\\n\n      PUSH 20\t\t\ts(\"receiver\")),\\r\\n\n      ADD \t\t\ts(\"receiver\")),\\r\\n\n      PUSH 7265636569766572000000000000000000000000000000000000000000000000\t\t\ts(\"receiver\")),\\r\\n\n      DUP2 \t\t\ts(\"receiver\")),\\r\\n\n      MSTORE \t\t\ts(\"receiver\")),\\r\\n\n      POP \t\t\ts(\"receiver\")),\\r\\n\n      DUP1 \t\t\tak256(bytes(\"receiver\")),\\r\\n \n      MLOAD \t\t\tak256(bytes(\"receiver\")),\\r\\n \n      SWAP1 \t\t\tak256(bytes(\"receiver\")),\\r\\n \n      PUSH 20\t\t\tak256(bytes(\"receiver\")),\\r\\n \n      ADD \t\t\tak256(bytes(\"receiver\")),\\r\\n \n      KECCAK256 \t\t\tak256(bytes(\"receiver\")),\\r\\n \n      DUP3 \t\t\t)) =\n      DUP3 \t\t\t)) =\n      PUSH 40\t\t\tak256(bytes(role)) == \n      MLOAD \t\t\tak256(bytes(role)) == \n      PUSH [tag] 450\t\t\tak256(bytes(role)) == \n      SWAP3 \t\t\tak256(bytes(role)) == \n      SWAP2 \t\t\tak256(bytes(role)) == \n      SWAP1 \t\t\tak256(bytes(role)) == \n      PUSH [tag] 260\t\t\tak256(bytes(role)) == \n      JUMP \t\t\tak256(bytes(role)) == \n    tag 450\t\t\tak256(bytes(role)) == \n      JUMPDEST \t\t\tak256(bytes(role)) == \n      PUSH 40\t\t\tak256(bytes(role)) == \n      MLOAD \t\t\tak256(bytes(role)) == \n      DUP1 \t\t\tak256(bytes(role)) == \n      SWAP2 \t\t\tak256(bytes(role)) == \n      SUB \t\t\tak256(bytes(role)) == \n      SWAP1 \t\t\tak256(bytes(role)) == \n      KECCAK256 \t\t\tak256(bytes(role)) == \n      EQ \t\t\tak256(bytes(role)) == keccak25...\n    tag 449\t\t\tak256(bytes(role)) == keccak25...\n      JUMPDEST \t\t\tak256(bytes(role)) == keccak25...\n      PUSH [tag] 451\t\t\tire(\\r\\n            keccak256(...\n      JUMPI \t\t\tire(\\r\\n            keccak256(...\n      PUSH 40\t\t\tire(\\r\\n            keccak256(...\n      MLOAD \t\t\tire(\\r\\n            keccak256(...\n      PUSH 8C379A000000000000000000000000000000000000000000000000000000000\t\t\tire(\\r\\n            keccak256(...\n      DUP2 \t\t\tire(\\r\\n            keccak256(...\n      MSTORE \t\t\tire(\\r\\n            keccak256(...\n      PUSH 4\t\t\tire(\\r\\n            keccak256(...\n      ADD \t\t\tire(\\r\\n            keccak256(...\n      PUSH [tag] 452\t\t\tire(\\r\\n            keccak256(...\n      SWAP1 \t\t\tire(\\r\\n            keccak256(...\n      PUSH [tag] 453\t\t\tire(\\r\\n            keccak256(...\n      JUMP \t\t\tire(\\r\\n            keccak256(...\n    tag 452\t\t\tire(\\r\\n            keccak256(...\n      JUMPDEST \t\t\tire(\\r\\n            keccak256(...\n      PUSH 40\t\t\tire(\\r\\n            keccak256(...\n      MLOAD \t\t\tire(\\r\\n            keccak256(...\n      DUP1 \t\t\tire(\\r\\n            keccak256(...\n      SWAP2 \t\t\tire(\\r\\n            keccak256(...\n      SUB \t\t\tire(\\r\\n            keccak256(...\n      SWAP1 \t\t\tire(\\r\\n            keccak256(...\n      REVERT \t\t\tire(\\r\\n            keccak256(...\n    tag 451\t\t\tire(\\r\\n            keccak256(...\n      JUMPDEST \t\t\tire(\\r\\n            keccak256(...\n      DUP2 \t\t\t;\\r\\n \n      DUP2 \t\t\t;\\r\\n \n      PUSH 8\t\t\tnID_proofRequest_role[tok\n      PUSH 0\t\t\tnID_proofRequest_role[tokenID]...\n      DUP8 \t\t\tnID][re\n      DUP2 \t\t\tnID_proofRequest_role[tokenID]...\n      MSTORE \t\t\tnID_proofRequest_role[tokenID]...\n      PUSH 20\t\t\tnID_proofRequest_role[tokenID]...\n      ADD \t\t\tnID_proofRequest_role[tokenID]...\n      SWAP1 \t\t\tnID_proofRequest_role[tokenID]...\n      DUP2 \t\t\tnID_proofRequest_role[tokenID]...\n      MSTORE \t\t\tnID_proofRequest_role[tokenID]...\n      PUSH 20\t\t\tnID_proofRequest_role[tokenID]...\n      ADD \t\t\tnID_proofRequest_role[tokenID]...\n      PUSH 0\t\t\tnID_proofRequest_role[tokenID]...\n      KECCAK256 \t\t\tnID_proofRequest_role[tokenID]...\n      PUSH 0\t\t\tnID_proofRequest_role[tokenID]...\n      DUP7 \t\t\testID] = \n      PUSH FFFFFFFFFFFFFFFF\t\t\tnID_proofRequest_role[tokenID]...\n      AND \t\t\tnID_proofRequest_role[tokenID]...\n      PUSH FFFFFFFFFFFFFFFF\t\t\tnID_proofRequest_role[tokenID]...\n      AND \t\t\tnID_proofRequest_role[tokenID]...\n      DUP2 \t\t\tnID_proofRequest_role[tokenID]...\n      MSTORE \t\t\tnID_proofRequest_role[tokenID]...\n      PUSH 20\t\t\tnID_proofRequest_role[tokenID]...\n      ADD \t\t\tnID_proofRequest_role[tokenID]...\n      SWAP1 \t\t\tnID_proofRequest_role[tokenID]...\n      DUP2 \t\t\tnID_proofRequest_role[tokenID]...\n      MSTORE \t\t\tnID_proofRequest_role[tokenID]...\n      PUSH 20\t\t\tnID_proofRequest_role[tokenID]...\n      ADD \t\t\tnID_proofRequest_role[tokenID]...\n      PUSH 0\t\t\tnID_proofRequest_role[tokenID]...\n      KECCAK256 \t\t\tnID_proofRequest_role[tokenID]...\n      SWAP2 \t\t\tnID_proofRequest_role[tokenID]...\n      DUP3 \t\t\tnID_proofRequest_role[tokenID]...\n      PUSH [tag] 454\t\t\tnID_proofRequest_role[tokenID]...\n      SWAP3 \t\t\tnID_proofRequest_role[tokenID]...\n      SWAP2 \t\t\tnID_proofRequest_role[tokenID]...\n      SWAP1 \t\t\tnID_proofRequest_role[tokenID]...\n      PUSH [tag] 295\t\t\tnID_proofRequest_role[tokenID]...\n      JUMP \t\t\tnID_proofRequest_role[tokenID]...\n    tag 454\t\t\tnID_proofRequest_role[tokenID]...\n      JUMPDEST \t\t\tnID_proofRequest_role[tokenID]...\n      POP \t\t\tnID_proofRequest_role[tokenID]...\n      PUSH A\t\t\tfRequestIDs.pus\n      DUP4 \t\t\testID);\\r\\n\n      SWAP1 \t\t\tfRequestIDs.push(requestID);\\r...\n      DUP1 \t\t\tfRequestIDs.push(requestID);\\r...\n      PUSH 1\t\t\tfRequestIDs.push(requestID);\\r...\n      DUP2 \t\t\tfRequestIDs.push(requestID);\\r...\n      SLOAD \t\t\tfRequestIDs.push(requestID);\\r...\n      ADD \t\t\tfRequestIDs.push(requestID);\\r...\n      DUP1 \t\t\tfRequestIDs.push(requestID);\\r...\n      DUP3 \t\t\tfRequestIDs.push(requestID);\\r...\n      SSTORE \t\t\tfRequestIDs.push(requestID);\\r...\n      DUP1 \t\t\tfRequestIDs.push(requestID);\\r...\n      SWAP2 \t\t\tfRequestIDs.push(requestID);\\r...\n      POP \t\t\tfRequestIDs.push(requestID);\\r...\n      POP \t\t\tfRequestIDs.push(requestID);\\r...\n      PUSH 1\t\t\tfRequestIDs.push(requestID);\\r...\n      SWAP1 \t\t\tfRequestIDs.push(requestID);\\r...\n      SUB \t\t\tfRequestIDs.push(requestID);\\r...\n      SWAP1 \t\t\tfRequestIDs.push(requestID);\\r...\n      PUSH 0\t\t\tfRequestIDs.push(requestID);\\r...\n      MSTORE \t\t\tfRequestIDs.push(requestID);\\r...\n      PUSH 20\t\t\tfRequestIDs.push(requestID);\\r...\n      PUSH 0\t\t\tfRequestIDs.push(requestID);\\r...\n      KECCAK256 \t\t\tfRequestIDs.push(requestID);\\r...\n      SWAP1 \t\t\tfRequestIDs.push(requestID);\\r...\n      PUSH 4\t\t\tfRequestIDs.push(requestID);\\r...\n      SWAP2 \t\t\tfRequestIDs.push(requestID);\\r...\n      DUP3 \t\t\tfRequestIDs.push(requestID);\\r...\n      DUP3 \t\t\tfRequestIDs.push(requestID);\\r...\n      DIV \t\t\tfRequestIDs.push(requestID);\\r...\n      ADD \t\t\tfRequestIDs.push(requestID);\\r...\n      SWAP2 \t\t\tfRequestIDs.push(requestID);\\r...\n      SWAP1 \t\t\tfRequestIDs.push(requestID);\\r...\n      MOD \t\t\tfRequestIDs.push(requestID);\\r...\n      PUSH 8\t\t\tfRequestIDs.push(requestID);\\r...\n      MUL \t\t\tfRequestIDs.push(requestID);\\r...\n      SWAP1 \t\t\tfRequestIDs.push(requestID);\\r...\n      SWAP2 \t\t\tfRequestIDs.push(requestID);\\r...\n      SWAP1 \t\t\tfRequestIDs.push(requestID);\\r...\n      SWAP2 \t\t\tfRequestIDs.push(requestID);\\r...\n      SWAP1 \t\t\tfRequestIDs.push(requestID);\\r...\n      SWAP2 \t\t\tfRequestIDs.push(requestID);\\r...\n      PUSH 100\t\t\tfRequestIDs.push(requestID);\\r...\n      EXP \t\t\tfRequestIDs.push(requestID);\\r...\n      DUP2 \t\t\tfRequestIDs.push(requestID);\\r...\n      SLOAD \t\t\tfRequestIDs.push(requestID);\\r...\n      DUP2 \t\t\tfRequestIDs.push(requestID);\\r...\n      PUSH FFFFFFFFFFFFFFFF\t\t\tfRequestIDs.push(requestID);\\r...\n      MUL \t\t\tfRequestIDs.push(requestID);\\r...\n      NOT \t\t\tfRequestIDs.push(requestID);\\r...\n      AND \t\t\tfRequestIDs.push(requestID);\\r...\n      SWAP1 \t\t\tfRequestIDs.push(requestID);\\r...\n      DUP4 \t\t\tfRequestIDs.push(requestID);\\r...\n      PUSH FFFFFFFFFFFFFFFF\t\t\tfRequestIDs.push(requestID);\\r...\n      AND \t\t\tfRequestIDs.push(requestID);\\r...\n      MUL \t\t\tfRequestIDs.push(requestID);\\r...\n      OR \t\t\tfRequestIDs.push(requestID);\\r...\n      SWAP1 \t\t\tfRequestIDs.push(requestID);\\r...\n      SSTORE \t\t\tfRequestIDs.push(requestID);\\r...\n      POP \t\t\tfRequestIDs.push(requestID);\\r...\n      POP \t\t\ttion addProofRequestAndRole(ui...\n      POP \t\t\ttion addProofRequestAndRole(ui...\n      POP \t\t\ttion addProofRequestAndRole(ui...\n      POP \t\t\ttion addProofRequestAndRole(ui...\n      JUMP \t\t\ttion addProofRequestAndRole(ui...\n    tag 128\t\t\t256 public constant non_fungib...\n      JUMPDEST \t\t\t256 public constant non_fungib...\n      PUSH 2\t\t\t\\r\n      DUP2 \t\t\t256 public constant non_fungib...\n      JUMP \t\t\t256 public constant non_fungib...\n    tag 132\t\t\t64[] public proofRequestIDs;\\r...\n      JUMPDEST \t\t\t64[] public proofRequestIDs;\\r...\n      PUSH A\t\t\t64[] public proofRequestIDs;\\r...\n      DUP2 \t\t\t64[] public proofRequestIDs;\\r...\n      DUP2 \t\t\t64[] public proofRequestIDs;\\r...\n      SLOAD \t\t\t64[] public proofRequestIDs;\\r...\n      DUP2 \t\t\t64[] public proofRequestIDs;\\r...\n      LT \t\t\t64[] public proofRequestIDs;\\r...\n      PUSH [tag] 456\t\t\t64[] public proofRequestIDs;\\r...\n      JUMPI \t\t\t64[] public proofRequestIDs;\\r...\n      PUSH 0\t\t\t64[] public proofRequestIDs;\\r...\n      DUP1 \t\t\t64[] public proofRequestIDs;\\r...\n      REVERT \t\t\t64[] public proofRequestIDs;\\r...\n    tag 456\t\t\t64[] public proofRequestIDs;\\r...\n      JUMPDEST \t\t\t64[] public proofRequestIDs;\\r...\n      SWAP1 \t\t\t64[] public proofRequestIDs;\\r...\n      PUSH 0\t\t\t64[] public proofRequestIDs;\\r...\n      MSTORE \t\t\t64[] public proofRequestIDs;\\r...\n      PUSH 20\t\t\t64[] public proofRequestIDs;\\r...\n      PUSH 0\t\t\t64[] public proofRequestIDs;\\r...\n      KECCAK256 \t\t\t64[] public proofRequestIDs;\\r...\n      SWAP1 \t\t\t64[] public proofRequestIDs;\\r...\n      PUSH 4\t\t\t64[] public proofRequestIDs;\\r...\n      SWAP2 \t\t\t64[] public proofRequestIDs;\\r...\n      DUP3 \t\t\t64[] public proofRequestIDs;\\r...\n      DUP3 \t\t\t64[] public proofRequestIDs;\\r...\n      DIV \t\t\t64[] public proofRequestIDs;\\r...\n      ADD \t\t\t64[] public proofRequestIDs;\\r...\n      SWAP2 \t\t\t64[] public proofRequestIDs;\\r...\n      SWAP1 \t\t\t64[] public proofRequestIDs;\\r...\n      MOD \t\t\t64[] public proofRequestIDs;\\r...\n      PUSH 8\t\t\t64[] public proofRequestIDs;\\r...\n      MUL \t\t\t64[] public proofRequestIDs;\\r...\n      SWAP2 \t\t\t64[] public proofRequestIDs;\\r...\n      POP \t\t\t64[] public proofRequestIDs;\\r...\n      SLOAD \t\t\t64[] public proofRequestIDs;\\r...\n      SWAP1 \t\t\t64[] public proofRequestIDs;\\r...\n      PUSH 100\t\t\t64[] public proofRequestIDs;\\r...\n      EXP \t\t\t64[] public proofRequestIDs;\\r...\n      SWAP1 \t\t\t64[] public proofRequestIDs;\\r...\n      DIV \t\t\t64[] public proofRequestIDs;\\r...\n      PUSH FFFFFFFFFFFFFFFF\t\t\t64[] public proofRequestIDs;\\r...\n      AND \t\t\t64[] public proofRequestIDs;\\r...\n      DUP2 \t\t\t64[] public proofRequestIDs;\\r...\n      JUMP \t\t\t64[] public proofRequestIDs;\\r...\n    tag 137\t\t\tmapping(uint256 => string) pub...\n      JUMPDEST \t\t\tmapping(uint256 => string) pub...\n      PUSH 7\t\t\tmapping(uint256 => string) pub...\n      PUSH 20\t\t\tmapping(uint256 => string) pub...\n      MSTORE \t\t\tmapping(uint256 => string) pub...\n      DUP1 \t\t\tmapping(uint256 => string) pub...\n      PUSH 0\t\t\tmapping(uint256 => string) pub...\n      MSTORE \t\t\tmapping(uint256 => string) pub...\n      PUSH 40\t\t\tmapping(uint256 => string) pub...\n      PUSH 0\t\t\tmapping(uint256 => string) pub...\n      KECCAK256 \t\t\tmapping(uint256 => string) pub...\n      PUSH 0\t\t\tmapping(uint256 => string) pub...\n      SWAP2 \t\t\tmapping(uint256 => string) pub...\n      POP \t\t\tmapping(uint256 => string) pub...\n      SWAP1 \t\t\tmapping(uint256 => string) pub...\n      POP \t\t\tmapping(uint256 => string) pub...\n      DUP1 \t\t\tmapping(uint256 => string) pub...\n      SLOAD \t\t\tmapping(uint256 => string) pub...\n      PUSH [tag] 458\t\t\tmapping(uint256 => string) pub...\n      SWAP1 \t\t\tmapping(uint256 => string) pub...\n      PUSH [tag] 166\t\t\tmapping(uint256 => string) pub...\n      JUMP \t\t\tmapping(uint256 => string) pub...\n    tag 458\t\t\tmapping(uint256 => string) pub...\n      JUMPDEST \t\t\tmapping(uint256 => string) pub...\n      DUP1 \t\t\tmapping(uint256 => string) pub...\n      PUSH 1F\t\t\tmapping(uint256 => string) pub...\n      ADD \t\t\tmapping(uint256 => string) pub...\n      PUSH 20\t\t\tmapping(uint256 => string) pub...\n      DUP1 \t\t\tmapping(uint256 => string) pub...\n      SWAP2 \t\t\tmapping(uint256 => string) pub...\n      DIV \t\t\tmapping(uint256 => string) pub...\n      MUL \t\t\tmapping(uint256 => string) pub...\n      PUSH 20\t\t\tmapping(uint256 => string) pub...\n      ADD \t\t\tmapping(uint256 => string) pub...\n      PUSH 40\t\t\tmapping(uint256 => string) pub...\n      MLOAD \t\t\tmapping(uint256 => string) pub...\n      SWAP1 \t\t\tmapping(uint256 => string) pub...\n      DUP2 \t\t\tmapping(uint256 => string) pub...\n      ADD \t\t\tmapping(uint256 => string) pub...\n      PUSH 40\t\t\tmapping(uint256 => string) pub...\n      MSTORE \t\t\tmapping(uint256 => string) pub...\n      DUP1 \t\t\tmapping(uint256 => string) pub...\n      SWAP3 \t\t\tmapping(uint256 => string) pub...\n      SWAP2 \t\t\tmapping(uint256 => string) pub...\n      SWAP1 \t\t\tmapping(uint256 => string) pub...\n      DUP2 \t\t\tmapping(uint256 => string) pub...\n      DUP2 \t\t\tmapping(uint256 => string) pub...\n      MSTORE \t\t\tmapping(uint256 => string) pub...\n      PUSH 20\t\t\tmapping(uint256 => string) pub...\n      ADD \t\t\tmapping(uint256 => string) pub...\n      DUP3 \t\t\tmapping(uint256 => string) pub...\n      DUP1 \t\t\tmapping(uint256 => string) pub...\n      SLOAD \t\t\tmapping(uint256 => string) pub...\n      PUSH [tag] 459\t\t\tmapping(uint256 => string) pub...\n      SWAP1 \t\t\tmapping(uint256 => string) pub...\n      PUSH [tag] 166\t\t\tmapping(uint256 => string) pub...\n      JUMP \t\t\tmapping(uint256 => string) pub...\n    tag 459\t\t\tmapping(uint256 => string) pub...\n      JUMPDEST \t\t\tmapping(uint256 => string) pub...\n      DUP1 \t\t\tmapping(uint256 => string) pub...\n      ISZERO \t\t\tmapping(uint256 => string) pub...\n      PUSH [tag] 460\t\t\tmapping(uint256 => string) pub...\n      JUMPI \t\t\tmapping(uint256 => string) pub...\n      DUP1 \t\t\tmapping(uint256 => string) pub...\n      PUSH 1F\t\t\tmapping(uint256 => string) pub...\n      LT \t\t\tmapping(uint256 => string) pub...\n      PUSH [tag] 461\t\t\tmapping(uint256 => string) pub...\n      JUMPI \t\t\tmapping(uint256 => string) pub...\n      PUSH 100\t\t\tmapping(uint256 => string) pub...\n      DUP1 \t\t\tmapping(uint256 => string) pub...\n      DUP4 \t\t\tmapping(uint256 => string) pub...\n      SLOAD \t\t\tmapping(uint256 => string) pub...\n      DIV \t\t\tmapping(uint256 => string) pub...\n      MUL \t\t\tmapping(uint256 => string) pub...\n      DUP4 \t\t\tmapping(uint256 => string) pub...\n      MSTORE \t\t\tmapping(uint256 => string) pub...\n      SWAP2 \t\t\tmapping(uint256 => string) pub...\n      PUSH 20\t\t\tmapping(uint256 => string) pub...\n      ADD \t\t\tmapping(uint256 => string) pub...\n      SWAP2 \t\t\tmapping(uint256 => string) pub...\n      PUSH [tag] 460\t\t\tmapping(uint256 => string) pub...\n      JUMP \t\t\tmapping(uint256 => string) pub...\n    tag 461\t\t\tmapping(uint256 => string) pub...\n      JUMPDEST \t\t\tmapping(uint256 => string) pub...\n      DUP3 \t\t\tmapping(uint256 => string) pub...\n      ADD \t\t\tmapping(uint256 => string) pub...\n      SWAP2 \t\t\tmapping(uint256 => string) pub...\n      SWAP1 \t\t\tmapping(uint256 => string) pub...\n      PUSH 0\t\t\tmapping(uint256 => string) pub...\n      MSTORE \t\t\tmapping(uint256 => string) pub...\n      PUSH 20\t\t\tmapping(uint256 => string) pub...\n      PUSH 0\t\t\tmapping(uint256 => string) pub...\n      KECCAK256 \t\t\tmapping(uint256 => string) pub...\n      SWAP1 \t\t\tmapping(uint256 => string) pub...\n    tag 462\t\t\tmapping(uint256 => string) pub...\n      JUMPDEST \t\t\tmapping(uint256 => string) pub...\n      DUP2 \t\t\tmapping(uint256 => string) pub...\n      SLOAD \t\t\tmapping(uint256 => string) pub...\n      DUP2 \t\t\tmapping(uint256 => string) pub...\n      MSTORE \t\t\tmapping(uint256 => string) pub...\n      SWAP1 \t\t\tmapping(uint256 => string) pub...\n      PUSH 1\t\t\tmapping(uint256 => string) pub...\n      ADD \t\t\tmapping(uint256 => string) pub...\n      SWAP1 \t\t\tmapping(uint256 => string) pub...\n      PUSH 20\t\t\tmapping(uint256 => string) pub...\n      ADD \t\t\tmapping(uint256 => string) pub...\n      DUP1 \t\t\tmapping(uint256 => string) pub...\n      DUP4 \t\t\tmapping(uint256 => string) pub...\n      GT \t\t\tmapping(uint256 => string) pub...\n      PUSH [tag] 462\t\t\tmapping(uint256 => string) pub...\n      JUMPI \t\t\tmapping(uint256 => string) pub...\n      DUP3 \t\t\tmapping(uint256 => string) pub...\n      SWAP1 \t\t\tmapping(uint256 => string) pub...\n      SUB \t\t\tmapping(uint256 => string) pub...\n      PUSH 1F\t\t\tmapping(uint256 => string) pub...\n      AND \t\t\tmapping(uint256 => string) pub...\n      DUP3 \t\t\tmapping(uint256 => string) pub...\n      ADD \t\t\tmapping(uint256 => string) pub...\n      SWAP2 \t\t\tmapping(uint256 => string) pub...\n    tag 460\t\t\tmapping(uint256 => string) pub...\n      JUMPDEST \t\t\tmapping(uint256 => string) pub...\n      POP \t\t\tmapping(uint256 => string) pub...\n      POP \t\t\tmapping(uint256 => string) pub...\n      POP \t\t\tmapping(uint256 => string) pub...\n      POP \t\t\tmapping(uint256 => string) pub...\n      POP \t\t\tmapping(uint256 => string) pub...\n      DUP2 \t\t\tmapping(uint256 => string) pub...\n      JUMP \t\t\tmapping(uint256 => string) pub...\n    tag 142\t\t\tfor iteration.\\r\\n    uint64[]...\n      JUMPDEST \t\t\tfor iteration.\\r\\n    uint64[]...\n      PUSH 0\t\t\tng c\n      PUSH 1\t\t\ten tokenID\\r\\n    fu\n      PUSH 0\t\t\ten tokenID\\r\\n    function ge\n      DUP5 \t\t\tction g\n      PUSH FFFFFFFFFFFFFFFFFFFFFFFFFFFFFFFFFFFFFFFF\t\t\ten tokenID\\r\\n    function ge\n      AND \t\t\ten tokenID\\r\\n    function ge\n      PUSH FFFFFFFFFFFFFFFFFFFFFFFFFFFFFFFFFFFFFFFF\t\t\ten tokenID\\r\\n    function ge\n      AND \t\t\ten tokenID\\r\\n    function ge\n      DUP2 \t\t\ten tokenID\\r\\n    function ge\n      MSTORE \t\t\ten tokenID\\r\\n    function ge\n      PUSH 20\t\t\ten tokenID\\r\\n    function ge\n      ADD \t\t\ten tokenID\\r\\n    function ge\n      SWAP1 \t\t\ten tokenID\\r\\n    function ge\n      DUP2 \t\t\ten tokenID\\r\\n    function ge\n      MSTORE \t\t\ten tokenID\\r\\n    function ge\n      PUSH 20\t\t\ten tokenID\\r\\n    function ge\n      ADD \t\t\ten tokenID\\r\\n    function ge\n      PUSH 0\t\t\ten tokenID\\r\\n    function ge\n      KECCAK256 \t\t\ten tokenID\\r\\n    function ge\n      PUSH 0\t\t\ten tokenID\\r\\n    function get...\n      DUP4 \t\t\tSpending\n      PUSH FFFFFFFFFFFFFFFFFFFFFFFFFFFFFFFFFFFFFFFF\t\t\ten tokenID\\r\\n    function get...\n      AND \t\t\ten tokenID\\r\\n    function get...\n      PUSH FFFFFFFFFFFFFFFFFFFFFFFFFFFFFFFFFFFFFFFF\t\t\ten tokenID\\r\\n    function get...\n      AND \t\t\ten tokenID\\r\\n    function get...\n      DUP2 \t\t\ten tokenID\\r\\n    function get...\n      MSTORE \t\t\ten tokenID\\r\\n    function get...\n      PUSH 20\t\t\ten tokenID\\r\\n    function get...\n      ADD \t\t\ten tokenID\\r\\n    function get...\n      SWAP1 \t\t\ten tokenID\\r\\n    function get...\n      DUP2 \t\t\ten tokenID\\r\\n    function get...\n      MSTORE \t\t\ten tokenID\\r\\n    function get...\n      PUSH 20\t\t\ten tokenID\\r\\n    function get...\n      ADD \t\t\ten tokenID\\r\\n    function get...\n      PUSH 0\t\t\ten tokenID\\r\\n    function get...\n      KECCAK256 \t\t\ten tokenID\\r\\n    function get...\n      PUSH 0\t\t\ten tokenID\\r\\n    function get...\n      SWAP1 \t\t\ten tokenID\\r\\n    function get...\n      SLOAD \t\t\ten tokenID\\r\\n    function get...\n      SWAP1 \t\t\ten tokenID\\r\\n    function get...\n      PUSH 100\t\t\ten tokenID\\r\\n    function get...\n      EXP \t\t\ten tokenID\\r\\n    function get...\n      SWAP1 \t\t\ten tokenID\\r\\n    function get...\n      DIV \t\t\ten tokenID\\r\\n    function get...\n      PUSH FF\t\t\ten tokenID\\r\\n    function get...\n      AND \t\t\ten tokenID\\r\\n    function get...\n      SWAP1 \t\t\tr a given tokenID\\r\\n    funct...\n      POP \t\t\tr a given tokenID\\r\\n    funct...\n      SWAP3 \t\t\tfor iteration.\\r\\n    uint64[]...\n      SWAP2 \t\t\tfor iteration.\\r\\n    uint64[]...\n      POP \t\t\tfor iteration.\\r\\n    uint64[]...\n      POP \t\t\tfor iteration.\\r\\n    uint64[]...\n      JUMP \t\t\tfor iteration.\\r\\n    uint64[]...\n    tag 147\t\t\t safeTransferFrom(\\r\\n        ...\n      JUMPDEST \t\t\t safeTransferFrom(\\r\\n        ...\n      PUSH [tag] 465\t\t\tlProofsVerified(tokenID, from,...\n      DUP4 \t\t\t from, \n      DUP7 \t\t\t);\\r\\n\n      DUP7 \t\t\t  \n      PUSH [tag] 309\t\t\tlProofsVerified(tokenID\n      JUMP \t\t\tlProofsVerified(tokenID, from,...\n    tag 465\t\t\tlProofsVerified(tokenID, from,...\n      JUMPDEST \t\t\tlProofsVerified(tokenID, from,...\n      PUSH [tag] 466\t\t\tfeTransferFrom(from, to, token...\n      DUP6 \t\t\t, to\n      DUP6 \t\t\tnI\n      DUP6 \t\t\t amount\n      DUP6 \t\t\tdata);\n      DUP6 \t\t\t    \n      PUSH [tag] 467\t\t\tfeTransferFrom(from, t\n      JUMP \t\t\tfeTransferFrom(from, to, token...\n    tag 466\t\t\tfeTransferFrom(from, to, token...\n      JUMPDEST \t\t\tfeTransferFrom(from, to, token...\n      POP \t\t\t safeTransferFrom(\\r\\n        ...\n      POP \t\t\t safeTransferFrom(\\r\\n        ...\n      POP \t\t\t safeTransferFrom(\\r\\n        ...\n      POP \t\t\t safeTransferFrom(\\r\\n        ...\n      POP \t\t\t safeTransferFrom(\\r\\n        ...\n      JUMP \t\t\t safeTransferFrom(\\r\\n        ...\n    tag 150\t\t\t token ID to its name. But the...\n      JUMPDEST \t\t\t token ID to its name. But the...\n      PUSH [tag] 469\t\t\t  admins.push\n      PUSH [tag] 226\t\t\t  admins.pu\n      JUMP \t\t\t  admins.push\n    tag 469\t\t\t  admins.push\n      JUMPDEST \t\t\t  admins.push\n      PUSH 0\t\t\t6\n      PUSH FFFFFFFFFFFFFFFFFFFFFFFFFFFFFFFFFFFFFFFF\t\t\t\\r\\n    mapping(uint256 \n      AND \t\t\t\\r\\n    mapping(uint256 \n      DUP2 \t\t\t\\r\\n    ma\n      PUSH FFFFFFFFFFFFFFFFFFFFFFFFFFFFFFFFFFFFFFFF\t\t\t\\r\\n    mapping(uint256 \n      AND \t\t\t\\r\\n    mapping(uint256 \n      SUB \t\t\t\\r\\n    mapping(uint256 \n      PUSH [tag] 471\t\t\turi \\r\\n    mapping(uint256 =>...\n      JUMPI \t\t\turi \\r\\n    mapping(uint256 =>...\n      PUSH 0\t\t\to\n      PUSH 40\t\t\tName;\\r\\n\\r\\n\\r\\n    // Mappin...\n      MLOAD \t\t\tName;\\r\\n\\r\\n\\r\\n    // Mappin...\n      PUSH 1E4FBDF700000000000000000000000000000000000000000000000000000000\t\t\tName;\\r\\n\\r\\n\\r\\n    // Mappin...\n      DUP2 \t\t\tName;\\r\\n\\r\\n\\r\\n    // Mappin...\n      MSTORE \t\t\tName;\\r\\n\\r\\n\\r\\n    // Mappin...\n      PUSH 4\t\t\tName;\\r\\n\\r\\n\\r\\n    // Mappin...\n      ADD \t\t\tName;\\r\\n\\r\\n\\r\\n    // Mappin...\n      PUSH [tag] 472\t\t\tName;\\r\\n\\r\\n\\r\\n    // Mappin...\n      SWAP2 \t\t\tName;\\r\\n\\r\\n\\r\\n    // Mappin...\n      SWAP1 \t\t\tName;\\r\\n\\r\\n\\r\\n    // Mappin...\n      PUSH [tag] 113\t\t\tName;\\r\\n\\r\\n\\r\\n    // Mappin...\n      JUMP \t\t\tName;\\r\\n\\r\\n\\r\\n    // Mappin...\n    tag 472\t\t\tName;\\r\\n\\r\\n\\r\\n    // Mappin...\n      JUMPDEST \t\t\tName;\\r\\n\\r\\n\\r\\n    // Mappin...\n      PUSH 40\t\t\tName;\\r\\n\\r\\n\\r\\n    // Mappin...\n      MLOAD \t\t\tName;\\r\\n\\r\\n\\r\\n    // Mappin...\n      DUP1 \t\t\tName;\\r\\n\\r\\n\\r\\n    // Mappin...\n      SWAP2 \t\t\tName;\\r\\n\\r\\n\\r\\n    // Mappin...\n      SUB \t\t\tName;\\r\\n\\r\\n\\r\\n    // Mappin...\n      SWAP1 \t\t\tName;\\r\\n\\r\\n\\r\\n    // Mappin...\n      REVERT \t\t\tName;\\r\\n\\r\\n\\r\\n    // Mappin...\n    tag 471\t\t\turi \\r\\n    mapping(uint256 =>...\n      JUMPDEST \t\t\turi \\r\\n    mapping(uint256 =>...\n      PUSH [tag] 473\t\t\tuest_id to prover's role (a \n      DUP2 \t\t\t role (a\n      PUSH [tag] 397\t\t\tuest_id to prover'\n      JUMP \t\t\tuest_id to prover's role (a \n    tag 473\t\t\tuest_id to prover's role (a \n      JUMPDEST \t\t\tuest_id to prover's role (a \n      POP \t\t\t token ID to its name. But the...\n      JUMP \t\t\t token ID to its name. But the...\n    tag 154\t\t\t burn(address account, uint256...\n      JUMPDEST \t\t\t burn(address account, uint256...\n      PUSH [tag] 475\t\t\t  admins.push\n      PUSH [tag] 226\t\t\t  admins.pu\n      JUMP \t\t\t  admins.push\n    tag 475\t\t\t  admins.push\n      JUMPDEST \t\t\t  admins.push\n      PUSH [tag] 477\t\t\tcount, ID, amount);\\r\\n    }\n      DUP4 \t\t\t ID, am\n      DUP4 \t\t\tnt\n      DUP4 \t\t\t\\r\\n    \n      PUSH [tag] 478\t\t\tcount\n      JUMP \t\t\tcount, ID, amount);\\r\\n    }\n    tag 477\t\t\tcount, ID, amount);\\r\\n    }\n      JUMPDEST \t\t\tcount, ID, amount);\\r\\n    }\n      POP \t\t\t burn(address account, uint256...\n      POP \t\t\t burn(address account, uint256...\n      POP \t\t\t burn(address account, uint256...\n      JUMP \t\t\t burn(address account, uint256...\n    tag 217\t\t\tins;\\r\\n\\r\\n    // Getter func...\n      JUMPDEST \t\t\tins;\\r\\n\\r\\n    // Getter func...\n      PUSH 0\t\t\tner.\n      PUSH 1FFC9A700000000000000000000000000000000000000000000000000000000\t\t\tview onlyOwner returns (a\n      PUSH FFFFFFFFFFFFFFFFFFFFFFFFFFFFFFFFFFFFFFFFFFFFFFFFFFFFFFFF\t\t\tdmins() public view onlyOwner ...\n      NOT \t\t\tdmins() public view onlyOwner ...\n      AND \t\t\tdmins() public view onlyOwner ...\n      DUP3 \t\t\tdmins() pub\n      PUSH FFFFFFFFFFFFFFFFFFFFFFFFFFFFFFFFFFFFFFFFFFFFFFFFFFFFFFFF\t\t\tdmins() public view onlyOwner ...\n      NOT \t\t\tdmins() public view onlyOwner ...\n      AND \t\t\tdmins() public view onlyOwner ...\n      EQ \t\t\tdmins() public view onlyOwner ...\n      SWAP1 \t\t\ton getAdmins() public view onl...\n      POP \t\t\ton getAdmins() public view onl...\n      SWAP2 \t\t\tins;\\r\\n\\r\\n    // Getter func...\n      SWAP1 \t\t\tins;\\r\\n\\r\\n    // Getter func...\n      POP \t\t\tins;\\r\\n\\r\\n    // Getter func...\n      JUMP \t\t\tins;\\r\\n\\r\\n    // Getter func...\n    tag 226\t\t\t[i] == _admin) {\\r\\n          ...\n      JUMPDEST \t\t\t[i] == _admin) {\\r\\n          ...\n      PUSH [tag] 481\t\t\t          ad\n      PUSH [tag] 434\t\t\t          \n      JUMP \t\t\t          ad\n    tag 481\t\t\t          ad\n      JUMPDEST \t\t\t          ad\n      PUSH FFFFFFFFFFFFFFFFFFFFFFFFFFFFFFFFFFFFFFFF\t\t\t1];\\r\\n                ad\n      AND \t\t\t1];\\r\\n                ad\n      PUSH [tag] 482\t\t\t1];\\r\\n  \n      PUSH [tag] 111\t\t\t1];\\r\\n\n      JUMP \t\t\t1];\\r\\n  \n    tag 482\t\t\t1];\\r\\n  \n      JUMPDEST \t\t\t1];\\r\\n  \n      PUSH FFFFFFFFFFFFFFFFFFFFFFFFFFFFFFFFFFFFFFFF\t\t\t1];\\r\\n                ad\n      AND \t\t\t1];\\r\\n                ad\n      EQ \t\t\t1];\\r\\n                ad\n      PUSH [tag] 483\t\t\tn - 1];\\r\\n                adm...\n      JUMPI \t\t\tn - 1];\\r\\n                adm...\n      PUSH [tag] 484\t\t\t}\\r\\n        }\n      PUSH [tag] 434\t\t\t}\\r\\n       \n      JUMP \t\t\t}\\r\\n        }\n    tag 484\t\t\t}\\r\\n        }\n      JUMPDEST \t\t\t}\\r\\n        }\n      PUSH 40\t\t\t      return;\\r\\n            }...\n      MLOAD \t\t\t      return;\\r\\n            }...\n      PUSH 118CDAA700000000000000000000000000000000000000000000000000000000\t\t\t      return;\\r\\n            }...\n      DUP2 \t\t\t      return;\\r\\n            }...\n      MSTORE \t\t\t      return;\\r\\n            }...\n      PUSH 4\t\t\t      return;\\r\\n            }...\n      ADD \t\t\t      return;\\r\\n            }...\n      PUSH [tag] 485\t\t\t      return;\\r\\n            }...\n      SWAP2 \t\t\t      return;\\r\\n            }...\n      SWAP1 \t\t\t      return;\\r\\n            }...\n      PUSH [tag] 113\t\t\t      return;\\r\\n            }...\n      JUMP \t\t\t      return;\\r\\n            }...\n    tag 485\t\t\t      return;\\r\\n            }...\n      JUMPDEST \t\t\t      return;\\r\\n            }...\n      PUSH 40\t\t\t      return;\\r\\n            }...\n      MLOAD \t\t\t      return;\\r\\n            }...\n      DUP1 \t\t\t      return;\\r\\n            }...\n      SWAP2 \t\t\t      return;\\r\\n            }...\n      SUB \t\t\t      return;\\r\\n            }...\n      SWAP1 \t\t\t      return;\\r\\n            }...\n      REVERT \t\t\t      return;\\r\\n            }...\n    tag 483\t\t\tn - 1];\\r\\n                adm...\n      JUMPDEST \t\t\tn - 1];\\r\\n                adm...\n      JUMP \t\t\t[i] == _admin) {\\r\\n          ...\n    tag 255\t\t\t\n      JUMPDEST \t\t\t\n      PUSH 60\t\t\t\n      PUSH 0\t\t\t\n      PUSH [tag] 487\t\t\t\n      DUP4 \t\t\t\n      PUSH 0\t\t\t\n      ADD \t\t\t\n      PUSH [tag] 488\t\t\t\n      JUMP \t\t\t\n    tag 487\t\t\t\n      JUMPDEST \t\t\t\n      SWAP1 \t\t\t\n      POP \t\t\t\n      PUSH 60\t\t\t\n      DUP2 \t\t\t\n      SWAP1 \t\t\t\n      POP \t\t\t\n      DUP1 \t\t\t\n      SWAP3 \t\t\t\n      POP \t\t\t\n      POP \t\t\t\n      POP \t\t\t\n      SWAP2 \t\t\t\n      SWAP1 \t\t\t\n      POP \t\t\t\n      JUMP \t\t\t\n    tag 271\t\t\ti], receiver);\\r\\n            ...\n      JUMPDEST \t\t\ti], receiver);\\r\\n            ...\n      PUSH 0\t\t\tl\n      PUSH FFFFFFFFFFFFFFFFFFFFFFFFFFFFFFFFFFFFFFFF\t\t\terFrom and inclu\n      AND \t\t\terFrom and inclu\n      DUP5 \t\t\ter\n      PUSH FFFFFFFFFFFFFFFFFFFFFFFFFFFFFFFFFFFFFFFF\t\t\terFrom and inclu\n      AND \t\t\terFrom and inclu\n      SUB \t\t\terFrom and inclu\n      PUSH [tag] 490\t\t\tansferFrom and include the onl...\n      JUMPI \t\t\tansferFrom and include the onl...\n      PUSH 0\t\t\ts\n      PUSH 40\t\t\tmodifier\\r\\n    function safeT...\n      MLOAD \t\t\tmodifier\\r\\n    function safeT...\n      PUSH 57F447CE00000000000000000000000000000000000000000000000000000000\t\t\tmodifier\\r\\n    function safeT...\n      DUP2 \t\t\tmodifier\\r\\n    function safeT...\n      MSTORE \t\t\tmodifier\\r\\n    function safeT...\n      PUSH 4\t\t\tmodifier\\r\\n    function safeT...\n      ADD \t\t\tmodifier\\r\\n    function safeT...\n      PUSH [tag] 491\t\t\tmodifier\\r\\n    function safeT...\n      SWAP2 \t\t\tmodifier\\r\\n    function safeT...\n      SWAP1 \t\t\tmodifier\\r\\n    function safeT...\n      PUSH [tag] 113\t\t\tmodifier\\r\\n    function safeT...\n      JUMP \t\t\tmodifier\\r\\n    function safeT...\n    tag 491\t\t\tmodifier\\r\\n    function safeT...\n      JUMPDEST \t\t\tmodifier\\r\\n    function safeT...\n      PUSH 40\t\t\tmodifier\\r\\n    function safeT...\n      MLOAD \t\t\tmodifier\\r\\n    function safeT...\n      DUP1 \t\t\tmodifier\\r\\n    function safeT...\n      SWAP2 \t\t\tmodifier\\r\\n    function safeT...\n      SUB \t\t\tmodifier\\r\\n    function safeT...\n      SWAP1 \t\t\tmodifier\\r\\n    function safeT...\n      REVERT \t\t\tmodifier\\r\\n    function safeT...\n    tag 490\t\t\tansferFrom and include the onl...\n      JUMPDEST \t\t\tansferFrom and include the onl...\n      PUSH 0\t\t\tss from,\\r\\n        ad\n      DUP1 \t\t\tess to,\\r\\n        uint25\n      PUSH [tag] 492\t\t\tkenID,\\r\\n        uint256 amou...\n      DUP6 \t\t\tt2\n      DUP6 \t\t\t amou\n      PUSH [tag] 493\t\t\tkenID,\\r\\n        ui\n      JUMP \t\t\tkenID,\\r\\n        uint256 amou...\n    tag 492\t\t\tkenID,\\r\\n        uint256 amou...\n      JUMPDEST \t\t\tkenID,\\r\\n        uint256 amou...\n      SWAP2 \t\t\tess from,\\r\\n        address t...\n      POP \t\t\tess from,\\r\\n        address t...\n      SWAP2 \t\t\tess from,\\r\\n        address t...\n      POP \t\t\tess from,\\r\\n        address t...\n      PUSH [tag] 494\t\t\t  bytes memory data\\r\\n    ) p...\n      PUSH 0\t\t\ti\n      DUP8 \t\t\tal\n      DUP5 \t\t\tver\n      DUP5 \t\t\tde {\\r\\n\n      DUP8 \t\t\t    \n      PUSH [tag] 495\t\t\t  bytes memory data\\r\\n    )\n      JUMP \t\t\t  bytes memory data\\r\\n    ) p...\n    tag 494\t\t\t  bytes memory data\\r\\n    ) p...\n      JUMPDEST \t\t\t  bytes memory data\\r\\n    ) p...\n      POP \t\t\tide safeTransferFrom and inclu...\n      POP \t\t\tide safeTransferFrom and inclu...\n      POP \t\t\ti], receiver);\\r\\n            ...\n      POP \t\t\ti], receiver);\\r\\n            ...\n      POP \t\t\ti], receiver);\\r\\n            ...\n      POP \t\t\ti], receiver);\\r\\n            ...\n      JUMP \t\t\ti], receiver);\\r\\n            ...\n    tag 287\t\t\t\n      JUMPDEST \t\t\t\n      PUSH 0\t\t\t\n      PUSH [tag] 497\t\t\t\n      DUP4 \t\t\t\n      PUSH 0\t\t\t\n      ADD \t\t\t\n      DUP4 \t\t\t\n      PUSH 0\t\t\t\n      SHL \t\t\t\n      PUSH [tag] 498\t\t\t\n      JUMP \t\t\t\n    tag 497\t\t\t\n      JUMPDEST \t\t\t\n      SWAP1 \t\t\t\n      POP \t\t\t\n      SWAP3 \t\t\t\n      SWAP2 \t\t\t\n      POP \t\t\t\n      POP \t\t\t\n      JUMP \t\t\t\n    tag 289\t\t\t\n      JUMPDEST \t\t\t\n      PUSH 0\t\t\t\n      PUSH [tag] 500\t\t\t\n      DUP4 \t\t\t\n      PUSH 0\t\t\t\n      ADD \t\t\t\n      DUP4 \t\t\t\n      PUSH 0\t\t\t\n      SHL \t\t\t\n      PUSH [tag] 501\t\t\t\n      JUMP \t\t\t\n    tag 500\t\t\t\n      JUMPDEST \t\t\t\n      SWAP1 \t\t\t\n      POP \t\t\t\n      SWAP3 \t\t\t\n      SWAP2 \t\t\t\n      POP \t\t\t\n      POP \t\t\t\n      JUMP \t\t\t\n    tag 309\t\t\t _checkAllProofsVerified(uint2...\n      JUMPDEST \t\t\t _checkAllProofsVerified(uint2...\n      PUSH 0\t\t\t memory tempRequestIDs = proof\n      PUSH A\t\t\tuestIDs;\\r\\n     \n      DUP1 \t\t\t memory tempRequestIDs = proof...\n      SLOAD \t\t\t memory tempRequestIDs = proof...\n      DUP1 \t\t\t memory tempRequestIDs = proof...\n      PUSH 20\t\t\t memory tempRequestIDs = proof...\n      MUL \t\t\t memory tempRequestIDs = proof...\n      PUSH 20\t\t\t memory tempRequestIDs = proof...\n      ADD \t\t\t memory tempRequestIDs = proof...\n      PUSH 40\t\t\t memory tempRequestIDs = proof...\n      MLOAD \t\t\t memory tempRequestIDs = proof...\n      SWAP1 \t\t\t memory tempRequestIDs = proof...\n      DUP2 \t\t\t memory tempRequestIDs = proof...\n      ADD \t\t\t memory tempRequestIDs = proof...\n      PUSH 40\t\t\t memory tempRequestIDs = proof...\n      MSTORE \t\t\t memory tempRequestIDs = proof...\n      DUP1 \t\t\t memory tempRequestIDs = proof...\n      SWAP3 \t\t\t memory tempRequestIDs = proof...\n      SWAP2 \t\t\t memory tempRequestIDs = proof...\n      SWAP1 \t\t\t memory tempRequestIDs = proof...\n      DUP2 \t\t\t memory tempRequestIDs = proof...\n      DUP2 \t\t\t memory tempRequestIDs = proof...\n      MSTORE \t\t\t memory tempRequestIDs = proof...\n      PUSH 20\t\t\t memory tempRequestIDs = proof...\n      ADD \t\t\t memory tempRequestIDs = proof...\n      DUP3 \t\t\t memory tempRequestIDs = proof...\n      DUP1 \t\t\t memory tempRequestIDs = proof...\n      SLOAD \t\t\t memory tempRequestIDs = proof...\n      DUP1 \t\t\t memory tempRequestIDs = proof...\n      ISZERO \t\t\t memory tempRequestIDs = proof...\n      PUSH [tag] 503\t\t\t memory tempRequestIDs = proof...\n      JUMPI \t\t\t memory tempRequestIDs = proof...\n      PUSH 20\t\t\t memory tempRequestIDs = proof...\n      MUL \t\t\t memory tempRequestIDs = proof...\n      DUP3 \t\t\t memory tempRequestIDs = proof...\n      ADD \t\t\t memory tempRequestIDs = proof...\n      SWAP2 \t\t\t memory tempRequestIDs = proof...\n      SWAP1 \t\t\t memory tempRequestIDs = proof...\n      PUSH 0\t\t\t memory tempRequestIDs = proof...\n      MSTORE \t\t\t memory tempRequestIDs = proof...\n      PUSH 20\t\t\t memory tempRequestIDs = proof...\n      PUSH 0\t\t\t memory tempRequestIDs = proof...\n      KECCAK256 \t\t\t memory tempRequestIDs = proof...\n      SWAP1 \t\t\t memory tempRequestIDs = proof...\n      PUSH 0\t\t\t memory tempRequestIDs = proof...\n      SWAP1 \t\t\t memory tempRequestIDs = proof...\n    tag 504\t\t\t memory tempRequestIDs = proof...\n      JUMPDEST \t\t\t memory tempRequestIDs = proof...\n      DUP3 \t\t\t memory tempRequestIDs = proof...\n      DUP3 \t\t\t memory tempRequestIDs = proof...\n      SWAP1 \t\t\t memory tempRequestIDs = proof...\n      SLOAD \t\t\t memory tempRequestIDs = proof...\n      SWAP1 \t\t\t memory tempRequestIDs = proof...\n      PUSH 100\t\t\t memory tempRequestIDs = proof...\n      EXP \t\t\t memory tempRequestIDs = proof...\n      SWAP1 \t\t\t memory tempRequestIDs = proof...\n      DIV \t\t\t memory tempRequestIDs = proof...\n      PUSH FFFFFFFFFFFFFFFF\t\t\t memory tempRequestIDs = proof...\n      AND \t\t\t memory tempRequestIDs = proof...\n      PUSH FFFFFFFFFFFFFFFF\t\t\t memory tempRequestIDs = proof...\n      AND \t\t\t memory tempRequestIDs = proof...\n      DUP2 \t\t\t memory tempRequestIDs = proof...\n      MSTORE \t\t\t memory tempRequestIDs = proof...\n      PUSH 20\t\t\t memory tempRequestIDs = proof...\n      ADD \t\t\t memory tempRequestIDs = proof...\n      SWAP1 \t\t\t memory tempRequestIDs = proof...\n      PUSH 8\t\t\t memory tempRequestIDs = proof...\n      ADD \t\t\t memory tempRequestIDs = proof...\n      SWAP1 \t\t\t memory tempRequestIDs = proof...\n      PUSH 20\t\t\t memory tempRequestIDs = proof...\n      DUP3 \t\t\t memory tempRequestIDs = proof...\n      PUSH 7\t\t\t memory tempRequestIDs = proof...\n      ADD \t\t\t memory tempRequestIDs = proof...\n      DIV \t\t\t memory tempRequestIDs = proof...\n      SWAP3 \t\t\t memory tempRequestIDs = proof...\n      DUP4 \t\t\t memory tempRequestIDs = proof...\n      ADD \t\t\t memory tempRequestIDs = proof...\n      SWAP3 \t\t\t memory tempRequestIDs = proof...\n      PUSH 1\t\t\t memory tempRequestIDs = proof...\n      SUB \t\t\t memory tempRequestIDs = proof...\n      DUP3 \t\t\t memory tempRequestIDs = proof...\n      MUL \t\t\t memory tempRequestIDs = proof...\n      SWAP2 \t\t\t memory tempRequestIDs = proof...\n      POP \t\t\t memory tempRequestIDs = proof...\n      DUP1 \t\t\t memory tempRequestIDs = proof...\n      DUP5 \t\t\t memory tempRequestIDs = proof...\n      GT \t\t\t memory tempRequestIDs = proof...\n      PUSH [tag] 504\t\t\t memory tempRequestIDs = proof...\n      JUMPI \t\t\t memory tempRequestIDs = proof...\n      SWAP1 \t\t\t memory tempRequestIDs = proof...\n      POP \t\t\t memory tempRequestIDs = proof...\n    tag 503\t\t\t memory tempRequestIDs = proof...\n      JUMPDEST \t\t\t memory tempRequestIDs = proof...\n      POP \t\t\t memory tempRequestIDs = proof...\n      POP \t\t\t memory tempRequestIDs = proof...\n      POP \t\t\t memory tempRequestIDs = proof...\n      POP \t\t\t memory tempRequestIDs = proof...\n      POP \t\t\t memory tempRequestIDs = proof...\n      SWAP1 \t\t\t memory tempRequestIDs = proof...\n      POP \t\t\t memory tempRequestIDs = proof...\n      PUSH 0\t\t\ti = 0; i \n    tag 505\t\t\tt256 i = 0; i < tempRequestIDs...\n      JUMPDEST \t\t\tt256 i = 0; i < tempRequestIDs...\n      DUP2 \t\t\testIDs.length;\n      MLOAD \t\t\testIDs.length; i++) {\n      DUP2 \t\t\tR\n      LT \t\t\tRequestIDs.length; i++) {\n      ISZERO \t\t\tt256 i = 0; i < tempRequestIDs...\n      PUSH [tag] 506\t\t\tt256 i = 0; i < tempRequestIDs...\n      JUMPI \t\t\tt256 i = 0; i < tempRequestIDs...\n      PUSH 0\t\t\temory role = token\n      PUSH 8\t\t\tproofRequest_role[tokenID\n      PUSH 0\t\t\tproofRequest_role[tokenID][tem...\n      DUP8 \t\t\t[tempRe\n      DUP2 \t\t\tproofRequest_role[tokenID][tem...\n      MSTORE \t\t\tproofRequest_role[tokenID][tem...\n      PUSH 20\t\t\tproofRequest_role[tokenID][tem...\n      ADD \t\t\tproofRequest_role[tokenID][tem...\n      SWAP1 \t\t\tproofRequest_role[tokenID][tem...\n      DUP2 \t\t\tproofRequest_role[tokenID][tem...\n      MSTORE \t\t\tproofRequest_role[tokenID][tem...\n      PUSH 20\t\t\tproofRequest_role[tokenID][tem...\n      ADD \t\t\tproofRequest_role[tokenID][tem...\n      PUSH 0\t\t\tproofRequest_role[tokenID][tem...\n      KECCAK256 \t\t\tproofRequest_role[tokenID][tem...\n      PUSH 0\t\t\tproofRequest_role[tokenID][tem...\n      DUP5 \t\t\testIDs[i]];\\r\\n \n      DUP5 \t\t\t \n      DUP2 \t\t\testIDs[i]];\\r\\n    \n      MLOAD \t\t\testIDs[i]];\\r\\n    \n      DUP2 \t\t\testIDs[i]];\\r\\n    \n      LT \t\t\testIDs[i]];\\r\\n    \n      PUSH [tag] 508\t\t\testIDs[i]];\\r\\n    \n      JUMPI \t\t\testIDs[i]];\\r\\n    \n      PUSH [tag] 509\t\t\testIDs[i]];\\r\\n    \n      PUSH [tag] 164\t\t\testIDs[i]];\\r\\n    \n      JUMP \t\t\testIDs[i]];\\r\\n    \n    tag 509\t\t\testIDs[i]];\\r\\n    \n      JUMPDEST \t\t\testIDs[i]];\\r\\n    \n    tag 508\t\t\testIDs[i]];\\r\\n    \n      JUMPDEST \t\t\testIDs[i]];\\r\\n    \n      PUSH 20\t\t\testIDs[i]];\\r\\n    \n      MUL \t\t\testIDs[i]];\\r\\n    \n      PUSH 20\t\t\testIDs[i]];\\r\\n    \n      ADD \t\t\testIDs[i]];\\r\\n    \n      ADD \t\t\testIDs[i]];\\r\\n    \n      MLOAD \t\t\testIDs[i]];\\r\\n    \n      PUSH FFFFFFFFFFFFFFFF\t\t\tproofRequest_role[tokenID][tem...\n      AND \t\t\tproofRequest_role[tokenID][tem...\n      PUSH FFFFFFFFFFFFFFFF\t\t\tproofRequest_role[tokenID][tem...\n      AND \t\t\tproofRequest_role[tokenID][tem...\n      DUP2 \t\t\tproofRequest_role[tokenID][tem...\n      MSTORE \t\t\tproofRequest_role[tokenID][tem...\n      PUSH 20\t\t\tproofRequest_role[tokenID][tem...\n      ADD \t\t\tproofRequest_role[tokenID][tem...\n      SWAP1 \t\t\tproofRequest_role[tokenID][tem...\n      DUP2 \t\t\tproofRequest_role[tokenID][tem...\n      MSTORE \t\t\tproofRequest_role[tokenID][tem...\n      PUSH 20\t\t\tproofRequest_role[tokenID][tem...\n      ADD \t\t\tproofRequest_role[tokenID][tem...\n      PUSH 0\t\t\tproofRequest_role[tokenID][tem...\n      KECCAK256 \t\t\tproofRequest_role[tokenID][tem...\n      DUP1 \t\t\temory role = tokenID_proofRequ...\n      SLOAD \t\t\temory role = tokenID_proofRequ...\n      PUSH [tag] 510\t\t\temory role = tokenID_proofRequ...\n      SWAP1 \t\t\temory role = tokenID_proofRequ...\n      PUSH [tag] 166\t\t\temory role = tokenID_proofRequ...\n      JUMP \t\t\temory role = tokenID_proofRequ...\n    tag 510\t\t\temory role = tokenID_proofRequ...\n      JUMPDEST \t\t\temory role = tokenID_proofRequ...\n      DUP1 \t\t\temory role = tokenID_proofRequ...\n      PUSH 1F\t\t\temory role = tokenID_proofRequ...\n      ADD \t\t\temory role = tokenID_proofRequ...\n      PUSH 20\t\t\temory role = tokenID_proofRequ...\n      DUP1 \t\t\temory role = tokenID_proofRequ...\n      SWAP2 \t\t\temory role = tokenID_proofRequ...\n      DIV \t\t\temory role = tokenID_proofRequ...\n      MUL \t\t\temory role = tokenID_proofRequ...\n      PUSH 20\t\t\temory role = tokenID_proofRequ...\n      ADD \t\t\temory role = tokenID_proofRequ...\n      PUSH 40\t\t\temory role = tokenID_proofRequ...\n      MLOAD \t\t\temory role = tokenID_proofRequ...\n      SWAP1 \t\t\temory role = tokenID_proofRequ...\n      DUP2 \t\t\temory role = tokenID_proofRequ...\n      ADD \t\t\temory role = tokenID_proofRequ...\n      PUSH 40\t\t\temory role = tokenID_proofRequ...\n      MSTORE \t\t\temory role = tokenID_proofRequ...\n      DUP1 \t\t\temory role = tokenID_proofRequ...\n      SWAP3 \t\t\temory role = tokenID_proofRequ...\n      SWAP2 \t\t\temory role = tokenID_proofRequ...\n      SWAP1 \t\t\temory role = tokenID_proofRequ...\n      DUP2 \t\t\temory role = tokenID_proofRequ...\n      DUP2 \t\t\temory role = tokenID_proofRequ...\n      MSTORE \t\t\temory role = tokenID_proofRequ...\n      PUSH 20\t\t\temory role = tokenID_proofRequ...\n      ADD \t\t\temory role = tokenID_proofRequ...\n      DUP3 \t\t\temory role = tokenID_proofRequ...\n      DUP1 \t\t\temory role = tokenID_proofRequ...\n      SLOAD \t\t\temory role = tokenID_proofRequ...\n      PUSH [tag] 511\t\t\temory role = tokenID_proofRequ...\n      SWAP1 \t\t\temory role = tokenID_proofRequ...\n      PUSH [tag] 166\t\t\temory role = tokenID_proofRequ...\n      JUMP \t\t\temory role = tokenID_proofRequ...\n    tag 511\t\t\temory role = tokenID_proofRequ...\n      JUMPDEST \t\t\temory role = tokenID_proofRequ...\n      DUP1 \t\t\temory role = tokenID_proofRequ...\n      ISZERO \t\t\temory role = tokenID_proofRequ...\n      PUSH [tag] 512\t\t\temory role = tokenID_proofRequ...\n      JUMPI \t\t\temory role = tokenID_proofRequ...\n      DUP1 \t\t\temory role = tokenID_proofRequ...\n      PUSH 1F\t\t\temory role = tokenID_proofRequ...\n      LT \t\t\temory role = tokenID_proofRequ...\n      PUSH [tag] 513\t\t\temory role = tokenID_proofRequ...\n      JUMPI \t\t\temory role = tokenID_proofRequ...\n      PUSH 100\t\t\temory role = tokenID_proofRequ...\n      DUP1 \t\t\temory role = tokenID_proofRequ...\n      DUP4 \t\t\temory role = tokenID_proofRequ...\n      SLOAD \t\t\temory role = tokenID_proofRequ...\n      DIV \t\t\temory role = tokenID_proofRequ...\n      MUL \t\t\temory role = tokenID_proofRequ...\n      DUP4 \t\t\temory role = tokenID_proofRequ...\n      MSTORE \t\t\temory role = tokenID_proofRequ...\n      SWAP2 \t\t\temory role = tokenID_proofRequ...\n      PUSH 20\t\t\temory role = tokenID_proofRequ...\n      ADD \t\t\temory role = tokenID_proofRequ...\n      SWAP2 \t\t\temory role = tokenID_proofRequ...\n      PUSH [tag] 512\t\t\temory role = tokenID_proofRequ...\n      JUMP \t\t\temory role = tokenID_proofRequ...\n    tag 513\t\t\temory role = tokenID_proofRequ...\n      JUMPDEST \t\t\temory role = tokenID_proofRequ...\n      DUP3 \t\t\temory role = tokenID_proofRequ...\n      ADD \t\t\temory role = tokenID_proofRequ...\n      SWAP2 \t\t\temory role = tokenID_proofRequ...\n      SWAP1 \t\t\temory role = tokenID_proofRequ...\n      PUSH 0\t\t\temory role = tokenID_proofRequ...\n      MSTORE \t\t\temory role = tokenID_proofRequ...\n      PUSH 20\t\t\temory role = tokenID_proofRequ...\n      PUSH 0\t\t\temory role = tokenID_proofRequ...\n      KECCAK256 \t\t\temory role = tokenID_proofRequ...\n      SWAP1 \t\t\temory role = tokenID_proofRequ...\n    tag 514\t\t\temory role = tokenID_proofRequ...\n      JUMPDEST \t\t\temory role = tokenID_proofRequ...\n      DUP2 \t\t\temory role = tokenID_proofRequ...\n      SLOAD \t\t\temory role = tokenID_proofRequ...\n      DUP2 \t\t\temory role = tokenID_proofRequ...\n      MSTORE \t\t\temory role = tokenID_proofRequ...\n      SWAP1 \t\t\temory role = tokenID_proofRequ...\n      PUSH 1\t\t\temory role = tokenID_proofRequ...\n      ADD \t\t\temory role = tokenID_proofRequ...\n      SWAP1 \t\t\temory role = tokenID_proofRequ...\n      PUSH 20\t\t\temory role = tokenID_proofRequ...\n      ADD \t\t\temory role = tokenID_proofRequ...\n      DUP1 \t\t\temory role = tokenID_proofRequ...\n      DUP4 \t\t\temory role = tokenID_proofRequ...\n      GT \t\t\temory role = tokenID_proofRequ...\n      PUSH [tag] 514\t\t\temory role = tokenID_proofRequ...\n      JUMPI \t\t\temory role = tokenID_proofRequ...\n      DUP3 \t\t\temory role = tokenID_proofRequ...\n      SWAP1 \t\t\temory role = tokenID_proofRequ...\n      SUB \t\t\temory role = tokenID_proofRequ...\n      PUSH 1F\t\t\temory role = tokenID_proofRequ...\n      AND \t\t\temory role = tokenID_proofRequ...\n      DUP3 \t\t\temory role = tokenID_proofRequ...\n      ADD \t\t\temory role = tokenID_proofRequ...\n      SWAP2 \t\t\temory role = tokenID_proofRequ...\n    tag 512\t\t\temory role = tokenID_proofRequ...\n      JUMPDEST \t\t\temory role = tokenID_proofRequ...\n      POP \t\t\temory role = tokenID_proofRequ...\n      POP \t\t\temory role = tokenID_proofRequ...\n      POP \t\t\temory role = tokenID_proofRequ...\n      POP \t\t\temory role = tokenID_proofRequ...\n      POP \t\t\temory role = tokenID_proofRequ...\n      SWAP1 \t\t\temory role = tokenID_proofRequ...\n      POP \t\t\temory role = tokenID_proofRequ...\n      PUSH 0\t\t\tn\n      DUP2 \t\t\tngth\n      MLOAD \t\t\tle).length == 0) c\n      SUB \t\t\tle).length == 0) contin\n      PUSH [tag] 515\t\t\ts(role).length == 0) continue;...\n      JUMPI \t\t\ts(role).length == 0) continue;...\n      POP \t\t\t;\\r\\n     \n      PUSH [tag] 507\t\t\t;\\r\\n     \n      JUMP \t\t\t;\\r\\n     \n    tag 515\t\t\ts(role).length == 0) continue;...\n      JUMPDEST \t\t\ts(role).length == 0) continue;...\n      PUSH 40\t\t\tender\"))) {\\r\\n  \n      MLOAD \t\t\tender\"))) {\\r\\n  \n      DUP1 \t\t\tender\"))) {\\r\\n  \n      PUSH 40\t\t\tender\"))) {\\r\\n  \n      ADD \t\t\tender\"))) {\\r\\n  \n      PUSH 40\t\t\tender\"))) {\\r\\n  \n      MSTORE \t\t\tender\"))) {\\r\\n  \n      DUP1 \t\t\tender\"))) {\\r\\n  \n      PUSH 6\t\t\tender\"))) {\\r\\n  \n      DUP2 \t\t\tender\"))) {\\r\\n  \n      MSTORE \t\t\tender\"))) {\\r\\n  \n      PUSH 20\t\t\tender\"))) {\\r\\n  \n      ADD \t\t\tender\"))) {\\r\\n  \n      PUSH 73656E6465720000000000000000000000000000000000000000000000000000\t\t\tender\"))) {\\r\\n  \n      DUP2 \t\t\tender\"))) {\\r\\n  \n      MSTORE \t\t\tender\"))) {\\r\\n  \n      POP \t\t\tender\"))) {\\r\\n  \n      DUP1 \t\t\t6(bytes(\"sender\"))) {\\r\\n   \n      MLOAD \t\t\t6(bytes(\"sender\"))) {\\r\\n   \n      SWAP1 \t\t\t6(bytes(\"sender\"))) {\\r\\n   \n      PUSH 20\t\t\t6(bytes(\"sender\"))) {\\r\\n   \n      ADD \t\t\t6(bytes(\"sender\"))) {\\r\\n   \n      KECCAK256 \t\t\t6(bytes(\"sender\"))) {\\r\\n   \n      DUP2 \t\t\t= ke\n      DUP1 \t\t\t6(bytes(role)) == kecc\n      MLOAD \t\t\t6(bytes(role)) == kecc\n      SWAP1 \t\t\t6(bytes(role)) == kecc\n      PUSH 20\t\t\t6(bytes(role)) == kecc\n      ADD \t\t\t6(bytes(role)) == kecc\n      KECCAK256 \t\t\t6(bytes(role)) == kecc\n      SUB \t\t\t6(bytes(role)) == keccak256(by...\n      PUSH [tag] 516\t\t\tak256(bytes(role)) == keccak25...\n      JUMPI \t\t\tak256(bytes(role)) == keccak25...\n      PUSH B\t\t\t.getProo\n      PUSH 0\t\t\t.getProo\n      SWAP1 \t\t\t.getProo\n      SLOAD \t\t\t.getProo\n      SWAP1 \t\t\t.getProo\n      PUSH 100\t\t\t.getProo\n      EXP \t\t\t.getProo\n      SWAP1 \t\t\t.getProo\n      DIV \t\t\t.getProo\n      PUSH FFFFFFFFFFFFFFFFFFFFFFFFFFFFFFFFFFFFFFFF\t\t\t.getProo\n      AND \t\t\t.getProo\n      PUSH FFFFFFFFFFFFFFFFFFFFFFFFFFFFFFFFFFFFFFFF\t\t\t.getProofStatus(sender,\n      AND \t\t\t.getProofStatus(sender,\n      PUSH 8C1DA2C9\t\t\t.getProofStatus(sender,\n      DUP7 \t\t\ttempRe\n      DUP6 \t\t\testIDs[i]).isV\n      DUP6 \t\t\tr\n      DUP2 \t\t\testIDs[i]).isVeri\n      MLOAD \t\t\testIDs[i]).isVeri\n      DUP2 \t\t\testIDs[i]).isVeri\n      LT \t\t\testIDs[i]).isVeri\n      PUSH [tag] 517\t\t\testIDs[i]).isVeri\n      JUMPI \t\t\testIDs[i]).isVeri\n      PUSH [tag] 518\t\t\testIDs[i]).isVeri\n      PUSH [tag] 164\t\t\testIDs[i]).isVeri\n      JUMP \t\t\testIDs[i]).isVeri\n    tag 518\t\t\testIDs[i]).isVeri\n      JUMPDEST \t\t\testIDs[i]).isVeri\n    tag 517\t\t\testIDs[i]).isVeri\n      JUMPDEST \t\t\testIDs[i]).isVeri\n      PUSH 20\t\t\testIDs[i]).isVeri\n      MUL \t\t\testIDs[i]).isVeri\n      PUSH 20\t\t\testIDs[i]).isVeri\n      ADD \t\t\testIDs[i]).isVeri\n      ADD \t\t\testIDs[i]).isVeri\n      MLOAD \t\t\testIDs[i]).isVeri\n      PUSH 40\t\t\t.getProofStatus(sender, tempRe...\n      MLOAD \t\t\t.getProofStatus(sender, tempRe...\n      DUP4 \t\t\t.getProofStatus(sender, tempRe...\n      PUSH FFFFFFFF\t\t\t.getProofStatus(sender, tempRe...\n      AND \t\t\t.getProofStatus(sender, tempRe...\n      PUSH E0\t\t\t.getProofStatus(sender, tempRe...\n      SHL \t\t\t.getProofStatus(sender, tempRe...\n      DUP2 \t\t\t.getProofStatus(sender, tempRe...\n      MSTORE \t\t\t.getProofStatus(sender, tempRe...\n      PUSH 4\t\t\t.getProofStatus(sender, tempRe...\n      ADD \t\t\t.getProofStatus(sender, tempRe...\n      PUSH [tag] 519\t\t\t.getProofStatus(sender, tempRe...\n      SWAP3 \t\t\t.getProofStatus(sender, tempRe...\n      SWAP2 \t\t\t.getProofStatus(sender, tempRe...\n      SWAP1 \t\t\t.getProofStatus(sender, tempRe...\n      PUSH [tag] 520\t\t\t.getProofStatus(sender, tempRe...\n      JUMP \t\t\t.getProofStatus(sender, tempRe...\n    tag 519\t\t\t.getProofStatus(sender, tempRe...\n      JUMPDEST \t\t\t.getProofStatus(sender, tempRe...\n      PUSH 0\t\t\t.getProofStatus(sender, tempRe...\n      PUSH 40\t\t\t.getProofStatus(sender, tempRe...\n      MLOAD \t\t\t.getProofStatus(sender, tempRe...\n      DUP1 \t\t\t.getProofStatus(sender, tempRe...\n      DUP4 \t\t\t.getProofStatus(sender, tempRe...\n      SUB \t\t\t.getProofStatus(sender, tempRe...\n      DUP2 \t\t\t.getProofStatus(sender, tempRe...\n      DUP7 \t\t\t.getProofStatus(sender, tempRe...\n      GAS \t\t\t.getProofStatus(sender, tempRe...\n      STATICCALL \t\t\t.getProofStatus(sender, tempRe...\n      ISZERO \t\t\t.getProofStatus(sender, tempRe...\n      DUP1 \t\t\t.getProofStatus(sender, tempRe...\n      ISZERO \t\t\t.getProofStatus(sender, tempRe...\n      PUSH [tag] 522\t\t\t.getProofStatus(sender, tempRe...\n      JUMPI \t\t\t.getProofStatus(sender, tempRe...\n      RETURNDATASIZE \t\t\t.getProofStatus(sender, tempRe...\n      PUSH 0\t\t\t.getProofStatus(sender, tempRe...\n      DUP1 \t\t\t.getProofStatus(sender, tempRe...\n      RETURNDATACOPY \t\t\t.getProofStatus(sender, tempRe...\n      RETURNDATASIZE \t\t\t.getProofStatus(sender, tempRe...\n      PUSH 0\t\t\t.getProofStatus(sender, tempRe...\n      REVERT \t\t\t.getProofStatus(sender, tempRe...\n    tag 522\t\t\t.getProofStatus(sender, tempRe...\n      JUMPDEST \t\t\t.getProofStatus(sender, tempRe...\n      POP \t\t\t.getProofStatus(sender, tempRe...\n      POP \t\t\t.getProofStatus(sender, tempRe...\n      POP \t\t\t.getProofStatus(sender, tempRe...\n      POP \t\t\t.getProofStatus(sender, tempRe...\n      PUSH 40\t\t\t.getProofStatus(sender, tempRe...\n      MLOAD \t\t\t.getProofStatus(sender, tempRe...\n      RETURNDATASIZE \t\t\t.getProofStatus(sender, tempRe...\n      PUSH 0\t\t\t.getProofStatus(sender, tempRe...\n      DUP3 \t\t\t.getProofStatus(sender, tempRe...\n      RETURNDATACOPY \t\t\t.getProofStatus(sender, tempRe...\n      RETURNDATASIZE \t\t\t.getProofStatus(sender, tempRe...\n      PUSH 1F\t\t\t.getProofStatus(sender, tempRe...\n      NOT \t\t\t.getProofStatus(sender, tempRe...\n      PUSH 1F\t\t\t.getProofStatus(sender, tempRe...\n      DUP3 \t\t\t.getProofStatus(sender, tempRe...\n      ADD \t\t\t.getProofStatus(sender, tempRe...\n      AND \t\t\t.getProofStatus(sender, tempRe...\n      DUP3 \t\t\t.getProofStatus(sender, tempRe...\n      ADD \t\t\t.getProofStatus(sender, tempRe...\n      DUP1 \t\t\t.getProofStatus(sender, tempRe...\n      PUSH 40\t\t\t.getProofStatus(sender, tempRe...\n      MSTORE \t\t\t.getProofStatus(sender, tempRe...\n      POP \t\t\t.getProofStatus(sender, tempRe...\n      DUP2 \t\t\t.getProofStatus(sender, tempRe...\n      ADD \t\t\t.getProofStatus(sender, tempRe...\n      SWAP1 \t\t\t.getProofStatus(sender, tempRe...\n      PUSH [tag] 523\t\t\t.getProofStatus(sender, tempRe...\n      SWAP2 \t\t\t.getProofStatus(sender, tempRe...\n      SWAP1 \t\t\t.getProofStatus(sender, tempRe...\n      PUSH [tag] 524\t\t\t.getProofStatus(sender, tempRe...\n      JUMP \t\t\t.getProofStatus(sender, tempRe...\n    tag 523\t\t\t.getProofStatus(sender, tempRe...\n      JUMPDEST \t\t\t.getProofStatus(sender, tempRe...\n      PUSH 0\t\t\t.getProofStatus(sender, tempRe...\n      ADD \t\t\t.getProofStatus(sender, tempRe...\n      MLOAD \t\t\t.getProofStatus(sender, tempRe...\n      PUSH [tag] 525\t\t\tifier.getProofStatus(sender, t...\n      JUMPI \t\t\tifier.getProofStatus(sender, t...\n      DUP3 \t\t\testIDs[i], sen\n      DUP3 \t\t\te\n      DUP2 \t\t\testIDs[i], sender\n      MLOAD \t\t\testIDs[i], sender\n      DUP2 \t\t\testIDs[i], sender\n      LT \t\t\testIDs[i], sender\n      PUSH [tag] 526\t\t\testIDs[i], sender\n      JUMPI \t\t\testIDs[i], sender\n      PUSH [tag] 527\t\t\testIDs[i], sender\n      PUSH [tag] 164\t\t\testIDs[i], sender\n      JUMP \t\t\testIDs[i], sender\n    tag 527\t\t\testIDs[i], sender\n      JUMPDEST \t\t\testIDs[i], sender\n    tag 526\t\t\testIDs[i], sender\n      JUMPDEST \t\t\testIDs[i], sender\n      PUSH 20\t\t\testIDs[i], sender\n      MUL \t\t\testIDs[i], sender\n      PUSH 20\t\t\testIDs[i], sender\n      ADD \t\t\testIDs[i], sender\n      ADD \t\t\testIDs[i], sender\n      MLOAD \t\t\testIDs[i], sender\n      DUP6 \t\t\t\\r\\n    \n      PUSH 40\t\t\tVerified(tempRequestIDs[i], se...\n      MLOAD \t\t\tVerified(tempRequestIDs[i], se...\n      PUSH A5A4608E00000000000000000000000000000000000000000000000000000000\t\t\tVerified(tempRequestIDs[i], se...\n      DUP2 \t\t\tVerified(tempRequestIDs[i], se...\n      MSTORE \t\t\tVerified(tempRequestIDs[i], se...\n      PUSH 4\t\t\tVerified(tempRequestIDs[i], se...\n      ADD \t\t\tVerified(tempRequestIDs[i], se...\n      PUSH [tag] 528\t\t\tVerified(tempRequestIDs[i], se...\n      SWAP3 \t\t\tVerified(tempRequestIDs[i], se...\n      SWAP2 \t\t\tVerified(tempRequestIDs[i], se...\n      SWAP1 \t\t\tVerified(tempRequestIDs[i], se...\n      PUSH [tag] 529\t\t\tVerified(tempRequestIDs[i], se...\n      JUMP \t\t\tVerified(tempRequestIDs[i], se...\n    tag 528\t\t\tVerified(tempRequestIDs[i], se...\n      JUMPDEST \t\t\tVerified(tempRequestIDs[i], se...\n      PUSH 40\t\t\tVerified(tempRequestIDs[i], se...\n      MLOAD \t\t\tVerified(tempRequestIDs[i], se...\n      DUP1 \t\t\tVerified(tempRequestIDs[i], se...\n      SWAP2 \t\t\tVerified(tempRequestIDs[i], se...\n      SUB \t\t\tVerified(tempRequestIDs[i], se...\n      SWAP1 \t\t\tVerified(tempRequestIDs[i], se...\n      REVERT \t\t\tVerified(tempRequestIDs[i], se...\n    tag 525\t\t\tifier.getProofStatus(sender, t...\n      JUMPDEST \t\t\tifier.getProofStatus(sender, t...\n      PUSH [tag] 530\t\t\tak256(bytes(role)) == keccak25...\n      JUMP \t\t\tak256(bytes(role)) == keccak25...\n    tag 516\t\t\tak256(bytes(role)) == keccak25...\n      JUMPDEST \t\t\tak256(bytes(role)) == keccak25...\n      PUSH 40\t\t\teceiver\"))) {\\r\\n  \n      MLOAD \t\t\teceiver\"))) {\\r\\n  \n      DUP1 \t\t\teceiver\"))) {\\r\\n  \n      PUSH 40\t\t\teceiver\"))) {\\r\\n  \n      ADD \t\t\teceiver\"))) {\\r\\n  \n      PUSH 40\t\t\teceiver\"))) {\\r\\n  \n      MSTORE \t\t\teceiver\"))) {\\r\\n  \n      DUP1 \t\t\teceiver\"))) {\\r\\n  \n      PUSH 8\t\t\teceiver\"))) {\\r\\n  \n      DUP2 \t\t\teceiver\"))) {\\r\\n  \n      MSTORE \t\t\teceiver\"))) {\\r\\n  \n      PUSH 20\t\t\teceiver\"))) {\\r\\n  \n      ADD \t\t\teceiver\"))) {\\r\\n  \n      PUSH 7265636569766572000000000000000000000000000000000000000000000000\t\t\teceiver\"))) {\\r\\n  \n      DUP2 \t\t\teceiver\"))) {\\r\\n  \n      MSTORE \t\t\teceiver\"))) {\\r\\n  \n      POP \t\t\teceiver\"))) {\\r\\n  \n      DUP1 \t\t\t6(bytes(\"receiver\"))) {\\r\\n   \n      MLOAD \t\t\t6(bytes(\"receiver\"))) {\\r\\n   \n      SWAP1 \t\t\t6(bytes(\"receiver\"))) {\\r\\n   \n      PUSH 20\t\t\t6(bytes(\"receiver\"))) {\\r\\n   \n      ADD \t\t\t6(bytes(\"receiver\"))) {\\r\\n   \n      KECCAK256 \t\t\t6(bytes(\"receiver\"))) {\\r\\n   \n      DUP2 \t\t\t= ke\n      DUP1 \t\t\t6(bytes(role)) == kecc\n      MLOAD \t\t\t6(bytes(role)) == kecc\n      SWAP1 \t\t\t6(bytes(role)) == kecc\n      PUSH 20\t\t\t6(bytes(role)) == kecc\n      ADD \t\t\t6(bytes(role)) == kecc\n      KECCAK256 \t\t\t6(bytes(role)) == kecc\n      SUB \t\t\t6(bytes(role)) == keccak256(by...\n      PUSH [tag] 531\t\t\tak256(bytes(role)) == keccak25...\n      JUMPI \t\t\tak256(bytes(role)) == keccak25...\n      PUSH B\t\t\t.getProo\n      PUSH 0\t\t\t.getProo\n      SWAP1 \t\t\t.getProo\n      SLOAD \t\t\t.getProo\n      SWAP1 \t\t\t.getProo\n      PUSH 100\t\t\t.getProo\n      EXP \t\t\t.getProo\n      SWAP1 \t\t\t.getProo\n      DIV \t\t\t.getProo\n      PUSH FFFFFFFFFFFFFFFFFFFFFFFFFFFFFFFFFFFFFFFF\t\t\t.getProo\n      AND \t\t\t.getProo\n      PUSH FFFFFFFFFFFFFFFFFFFFFFFFFFFFFFFFFFFFFFFF\t\t\t.getProofStatus(receive\n      AND \t\t\t.getProofStatus(receive\n      PUSH 8C1DA2C9\t\t\t.getProofStatus(receive\n      DUP6 \t\t\t, tempRe\n      DUP6 \t\t\testIDs[i]).isV\n      DUP6 \t\t\tr\n      DUP2 \t\t\testIDs[i]).isVeri\n      MLOAD \t\t\testIDs[i]).isVeri\n      DUP2 \t\t\testIDs[i]).isVeri\n      LT \t\t\testIDs[i]).isVeri\n      PUSH [tag] 532\t\t\testIDs[i]).isVeri\n      JUMPI \t\t\testIDs[i]).isVeri\n      PUSH [tag] 533\t\t\testIDs[i]).isVeri\n      PUSH [tag] 164\t\t\testIDs[i]).isVeri\n      JUMP \t\t\testIDs[i]).isVeri\n    tag 533\t\t\testIDs[i]).isVeri\n      JUMPDEST \t\t\testIDs[i]).isVeri\n    tag 532\t\t\testIDs[i]).isVeri\n      JUMPDEST \t\t\testIDs[i]).isVeri\n      PUSH 20\t\t\testIDs[i]).isVeri\n      MUL \t\t\testIDs[i]).isVeri\n      PUSH 20\t\t\testIDs[i]).isVeri\n      ADD \t\t\testIDs[i]).isVeri\n      ADD \t\t\testIDs[i]).isVeri\n      MLOAD \t\t\testIDs[i]).isVeri\n      PUSH 40\t\t\t.getProofStatus(receiver, temp...\n      MLOAD \t\t\t.getProofStatus(receiver, temp...\n      DUP4 \t\t\t.getProofStatus(receiver, temp...\n      PUSH FFFFFFFF\t\t\t.getProofStatus(receiver, temp...\n      AND \t\t\t.getProofStatus(receiver, temp...\n      PUSH E0\t\t\t.getProofStatus(receiver, temp...\n      SHL \t\t\t.getProofStatus(receiver, temp...\n      DUP2 \t\t\t.getProofStatus(receiver, temp...\n      MSTORE \t\t\t.getProofStatus(receiver, temp...\n      PUSH 4\t\t\t.getProofStatus(receiver, temp...\n      ADD \t\t\t.getProofStatus(receiver, temp...\n      PUSH [tag] 534\t\t\t.getProofStatus(receiver, temp...\n      SWAP3 \t\t\t.getProofStatus(receiver, temp...\n      SWAP2 \t\t\t.getProofStatus(receiver, temp...\n      SWAP1 \t\t\t.getProofStatus(receiver, temp...\n      PUSH [tag] 520\t\t\t.getProofStatus(receiver, temp...\n      JUMP \t\t\t.getProofStatus(receiver, temp...\n    tag 534\t\t\t.getProofStatus(receiver, temp...\n      JUMPDEST \t\t\t.getProofStatus(receiver, temp...\n      PUSH 0\t\t\t.getProofStatus(receiver, temp...\n      PUSH 40\t\t\t.getProofStatus(receiver, temp...\n      MLOAD \t\t\t.getProofStatus(receiver, temp...\n      DUP1 \t\t\t.getProofStatus(receiver, temp...\n      DUP4 \t\t\t.getProofStatus(receiver, temp...\n      SUB \t\t\t.getProofStatus(receiver, temp...\n      DUP2 \t\t\t.getProofStatus(receiver, temp...\n      DUP7 \t\t\t.getProofStatus(receiver, temp...\n      GAS \t\t\t.getProofStatus(receiver, temp...\n      STATICCALL \t\t\t.getProofStatus(receiver, temp...\n      ISZERO \t\t\t.getProofStatus(receiver, temp...\n      DUP1 \t\t\t.getProofStatus(receiver, temp...\n      ISZERO \t\t\t.getProofStatus(receiver, temp...\n      PUSH [tag] 536\t\t\t.getProofStatus(receiver, temp...\n      JUMPI \t\t\t.getProofStatus(receiver, temp...\n      RETURNDATASIZE \t\t\t.getProofStatus(receiver, temp...\n      PUSH 0\t\t\t.getProofStatus(receiver, temp...\n      DUP1 \t\t\t.getProofStatus(receiver, temp...\n      RETURNDATACOPY \t\t\t.getProofStatus(receiver, temp...\n      RETURNDATASIZE \t\t\t.getProofStatus(receiver, temp...\n      PUSH 0\t\t\t.getProofStatus(receiver, temp...\n      REVERT \t\t\t.getProofStatus(receiver, temp...\n    tag 536\t\t\t.getProofStatus(receiver, temp...\n      JUMPDEST \t\t\t.getProofStatus(receiver, temp...\n      POP \t\t\t.getProofStatus(receiver, temp...\n      POP \t\t\t.getProofStatus(receiver, temp...\n      POP \t\t\t.getProofStatus(receiver, temp...\n      POP \t\t\t.getProofStatus(receiver, temp...\n      PUSH 40\t\t\t.getProofStatus(receiver, temp...\n      MLOAD \t\t\t.getProofStatus(receiver, temp...\n      RETURNDATASIZE \t\t\t.getProofStatus(receiver, temp...\n      PUSH 0\t\t\t.getProofStatus(receiver, temp...\n      DUP3 \t\t\t.getProofStatus(receiver, temp...\n      RETURNDATACOPY \t\t\t.getProofStatus(receiver, temp...\n      RETURNDATASIZE \t\t\t.getProofStatus(receiver, temp...\n      PUSH 1F\t\t\t.getProofStatus(receiver, temp...\n      NOT \t\t\t.getProofStatus(receiver, temp...\n      PUSH 1F\t\t\t.getProofStatus(receiver, temp...\n      DUP3 \t\t\t.getProofStatus(receiver, temp...\n      ADD \t\t\t.getProofStatus(receiver, temp...\n      AND \t\t\t.getProofStatus(receiver, temp...\n      DUP3 \t\t\t.getProofStatus(receiver, temp...\n      ADD \t\t\t.getProofStatus(receiver, temp...\n      DUP1 \t\t\t.getProofStatus(receiver, temp...\n      PUSH 40\t\t\t.getProofStatus(receiver, temp...\n      MSTORE \t\t\t.getProofStatus(receiver, temp...\n      POP \t\t\t.getProofStatus(receiver, temp...\n      DUP2 \t\t\t.getProofStatus(receiver, temp...\n      ADD \t\t\t.getProofStatus(receiver, temp...\n      SWAP1 \t\t\t.getProofStatus(receiver, temp...\n      PUSH [tag] 537\t\t\t.getProofStatus(receiver, temp...\n      SWAP2 \t\t\t.getProofStatus(receiver, temp...\n      SWAP1 \t\t\t.getProofStatus(receiver, temp...\n      PUSH [tag] 524\t\t\t.getProofStatus(receiver, temp...\n      JUMP \t\t\t.getProofStatus(receiver, temp...\n    tag 537\t\t\t.getProofStatus(receiver, temp...\n      JUMPDEST \t\t\t.getProofStatus(receiver, temp...\n      PUSH 0\t\t\t.getProofStatus(receiver, temp...\n      ADD \t\t\t.getProofStatus(receiver, temp...\n      MLOAD \t\t\t.getProofStatus(receiver, temp...\n      PUSH [tag] 538\t\t\tifier.getProofStatus(receiver,...\n      JUMPI \t\t\tifier.getProofStatus(receiver,...\n      DUP3 \t\t\testIDs[i], rec\n      DUP3 \t\t\ti\n      DUP2 \t\t\testIDs[i], receiv\n      MLOAD \t\t\testIDs[i], receiv\n      DUP2 \t\t\testIDs[i], receiv\n      LT \t\t\testIDs[i], receiv\n      PUSH [tag] 539\t\t\testIDs[i], receiv\n      JUMPI \t\t\testIDs[i], receiv\n      PUSH [tag] 540\t\t\testIDs[i], receiv\n      PUSH [tag] 164\t\t\testIDs[i], receiv\n      JUMP \t\t\testIDs[i], receiv\n    tag 540\t\t\testIDs[i], receiv\n      JUMPDEST \t\t\testIDs[i], receiv\n    tag 539\t\t\testIDs[i], receiv\n      JUMPDEST \t\t\testIDs[i], receiv\n      PUSH 20\t\t\testIDs[i], receiv\n      MUL \t\t\testIDs[i], receiv\n      PUSH 20\t\t\testIDs[i], receiv\n      ADD \t\t\testIDs[i], receiv\n      ADD \t\t\testIDs[i], receiv\n      MLOAD \t\t\testIDs[i], receiv\n      DUP5 \t\t\t);\\r\\n    \n      PUSH 40\t\t\tVerified(tempRequestIDs[i], re...\n      MLOAD \t\t\tVerified(tempRequestIDs[i], re...\n      PUSH A5A4608E00000000000000000000000000000000000000000000000000000000\t\t\tVerified(tempRequestIDs[i], re...\n      DUP2 \t\t\tVerified(tempRequestIDs[i], re...\n      MSTORE \t\t\tVerified(tempRequestIDs[i], re...\n      PUSH 4\t\t\tVerified(tempRequestIDs[i], re...\n      ADD \t\t\tVerified(tempRequestIDs[i], re...\n      PUSH [tag] 541\t\t\tVerified(tempRequestIDs[i], re...\n      SWAP3 \t\t\tVerified(tempRequestIDs[i], re...\n      SWAP2 \t\t\tVerified(tempRequestIDs[i], re...\n      SWAP1 \t\t\tVerified(tempRequestIDs[i], re...\n      PUSH [tag] 529\t\t\tVerified(tempRequestIDs[i], re...\n      JUMP \t\t\tVerified(tempRequestIDs[i], re...\n    tag 541\t\t\tVerified(tempRequestIDs[i], re...\n      JUMPDEST \t\t\tVerified(tempRequestIDs[i], re...\n      PUSH 40\t\t\tVerified(tempRequestIDs[i], re...\n      MLOAD \t\t\tVerified(tempRequestIDs[i], re...\n      DUP1 \t\t\tVerified(tempRequestIDs[i], re...\n      SWAP2 \t\t\tVerified(tempRequestIDs[i], re...\n      SUB \t\t\tVerified(tempRequestIDs[i], re...\n      SWAP1 \t\t\tVerified(tempRequestIDs[i], re...\n      REVERT \t\t\tVerified(tempRequestIDs[i], re...\n    tag 538\t\t\tifier.getProofStatus(receiver,...\n      JUMPDEST \t\t\tifier.getProofStatus(receiver,...\n    tag 531\t\t\tak256(bytes(role)) == keccak25...\n      JUMPDEST \t\t\tak256(bytes(role)) == keccak25...\n    tag 530\t\t\tak256(bytes(role)) == keccak25...\n      JUMPDEST \t\t\tak256(bytes(role)) == keccak25...\n      POP \t\t\t       string memory role = to...\n    tag 507\t\t\tt256 i = 0; i < tempRequestIDs...\n      JUMPDEST \t\t\tt256 i = 0; i < tempRequestIDs...\n      DUP1 \t\t\t   \n      DUP1 \t\t\t   \n      PUSH [tag] 542\t\t\t   \n      SWAP1 \t\t\t   \n      PUSH [tag] 169\t\t\t   \n      JUMP \t\t\t   \n    tag 542\t\t\t   \n      JUMPDEST \t\t\t   \n      SWAP2 \t\t\t   \n      POP \t\t\t   \n      POP \t\t\t   \n      PUSH [tag] 505\t\t\tt256 i = 0; i < tempRequestIDs...\n      JUMP \t\t\tt256 i = 0; i < tempRequestIDs...\n    tag 506\t\t\tt256 i = 0; i < tempRequestIDs...\n      JUMPDEST \t\t\tt256 i = 0; i < tempRequestIDs...\n      POP \t\t\tt256 i = 0; i < tempRequestIDs...\n      POP \t\t\t   uint64[] memory tempRequest...\n      POP \t\t\t _checkAllProofsVerified(uint2...\n      POP \t\t\t _checkAllProofsVerified(uint2...\n      POP \t\t\t _checkAllProofsVerified(uint2...\n      JUMP \t\t\t _checkAllProofsVerified(uint2...\n    tag 338\t\t\t\n      JUMPDEST \t\t\t\n      PUSH 0\t\t\t\n      PUSH 20\t\t\t\n      DUP3 \t\t\t\n      MUL \t\t\t\n      PUSH 20\t\t\t\n      DUP5 \t\t\t\n      ADD \t\t\t\n      ADD \t\t\t\n      MLOAD \t\t\t\n      SWAP1 \t\t\t\n      POP \t\t\t\n      SWAP3 \t\t\t\n      SWAP2 \t\t\t\n      POP \t\t\t\n      POP \t\t\t\n      JUMP \t\t\t\n    tag 340\t\t\t\n      JUMPDEST \t\t\t\n      PUSH 0\t\t\t\n      PUSH 20\t\t\t\n      DUP3 \t\t\t\n      MUL \t\t\t\n      PUSH 20\t\t\t\n      DUP5 \t\t\t\n      ADD \t\t\t\n      ADD \t\t\t\n      MLOAD \t\t\t\n      SWAP1 \t\t\t\n      POP \t\t\t\n      SWAP3 \t\t\t\n      SWAP2 \t\t\t\n      POP \t\t\t\n      POP \t\t\t\n      JUMP \t\t\t\n    tag 346\t\t\tfunction _isAdmin(address _adm...\n      JUMPDEST \t\t\tfunction _isAdmin(address _adm...\n      PUSH 0\t\t\tbool\n      DUP1 \t\t\tuint i\n      PUSH 0\t\t\t0\n      SWAP1 \t\t\tuint i = 0\n      POP \t\t\tuint i = 0\n    tag 546\t\t\tfor (uint i = 0; i < admins.le...\n      JUMPDEST \t\t\tfor (uint i = 0; i < admins.le...\n      PUSH 4\t\t\tadmins\n      DUP1 \t\t\tadmins.length\n      SLOAD \t\t\tadmins.length\n      SWAP1 \t\t\tadmins.length\n      POP \t\t\tadmins.length\n      DUP2 \t\t\ti\n      LT \t\t\ti < admins.length\n      ISZERO \t\t\tfor (uint i = 0; i < admins.le...\n      PUSH [tag] 547\t\t\tfor (uint i = 0; i < admins.le...\n      JUMPI \t\t\tfor (uint i = 0; i < admins.le...\n      DUP3 \t\t\t_admin\n      PUSH FFFFFFFFFFFFFFFFFFFFFFFFFFFFFFFFFFFFFFFF\t\t\tadmins[i] == _admin\n      AND \t\t\tadmins[i] == _admin\n      PUSH 4\t\t\tadmins\n      DUP3 \t\t\ti\n      DUP2 \t\t\tadmins[i]\n      SLOAD \t\t\tadmins[i]\n      DUP2 \t\t\tadmins[i]\n      LT \t\t\tadmins[i]\n      PUSH [tag] 549\t\t\tadmins[i]\n      JUMPI \t\t\tadmins[i]\n      PUSH [tag] 550\t\t\tadmins[i]\n      PUSH [tag] 164\t\t\tadmins[i]\n      JUMP \t\t\tadmins[i]\n    tag 550\t\t\tadmins[i]\n      JUMPDEST \t\t\tadmins[i]\n    tag 549\t\t\tadmins[i]\n      JUMPDEST \t\t\tadmins[i]\n      SWAP1 \t\t\tadmins[i]\n      PUSH 0\t\t\tadmins[i]\n      MSTORE \t\t\tadmins[i]\n      PUSH 20\t\t\tadmins[i]\n      PUSH 0\t\t\tadmins[i]\n      KECCAK256 \t\t\tadmins[i]\n      ADD \t\t\tadmins[i]\n      PUSH 0\t\t\tadmins[i]\n      SWAP1 \t\t\tadmins[i]\n      SLOAD \t\t\tadmins[i]\n      SWAP1 \t\t\tadmins[i]\n      PUSH 100\t\t\tadmins[i]\n      EXP \t\t\tadmins[i]\n      SWAP1 \t\t\tadmins[i]\n      DIV \t\t\tadmins[i]\n      PUSH FFFFFFFFFFFFFFFFFFFFFFFFFFFFFFFFFFFFFFFF\t\t\tadmins[i]\n      AND \t\t\tadmins[i]\n      PUSH FFFFFFFFFFFFFFFFFFFFFFFFFFFFFFFFFFFFFFFF\t\t\tadmins[i] == _admin\n      AND \t\t\tadmins[i] == _admin\n      SUB \t\t\tadmins[i] == _admin\n      PUSH [tag] 552\t\t\tif (admins[i] == _admin) {\\r\\n...\n      JUMPI \t\t\tif (admins[i] == _admin) {\\r\\n...\n      PUSH 1\t\t\ttrue\n      SWAP2 \t\t\treturn true\n      POP \t\t\treturn true\n      POP \t\t\treturn true\n      PUSH [tag] 545\t\t\treturn true\n      JUMP \t\t\treturn true\n    tag 552\t\t\tif (admins[i] == _admin) {\\r\\n...\n      JUMPDEST \t\t\tif (admins[i] == _admin) {\\r\\n...\n      DUP1 \t\t\ti++\n      DUP1 \t\t\ti++\n      PUSH [tag] 553\t\t\ti++\n      SWAP1 \t\t\ti++\n      PUSH [tag] 169\t\t\ti++\n      JUMP \t\t\ti++\n    tag 553\t\t\ti++\n      JUMPDEST \t\t\ti++\n      SWAP2 \t\t\ti++\n      POP \t\t\ti++\n      POP \t\t\ti++\n      PUSH [tag] 546\t\t\tfor (uint i = 0; i < admins.le...\n      JUMP \t\t\tfor (uint i = 0; i < admins.le...\n    tag 547\t\t\tfor (uint i = 0; i < admins.le...\n      JUMPDEST \t\t\tfor (uint i = 0; i < admins.le...\n      POP \t\t\tfor (uint i = 0; i < admins.le...\n      PUSH 0\t\t\tfalse\n      SWAP1 \t\t\treturn false\n      POP \t\t\treturn false\n    tag 545\t\t\tfunction _isAdmin(address _adm...\n      JUMPDEST \t\t\tfunction _isAdmin(address _adm...\n      SWAP2 \t\t\tfunction _isAdmin(address _adm...\n      SWAP1 \t\t\tfunction _isAdmin(address _adm...\n      POP \t\t\tfunction _isAdmin(address _adm...\n      JUMP \t\t\tfunction _isAdmin(address _adm...\n    tag 397\t\t\tofRequest_role;\\r\\n\\r\\n    // ...\n      JUMPDEST \t\t\tofRequest_role;\\r\\n\\r\\n    // ...\n      PUSH 0\t\t\ttruct SpendingCo\n      PUSH 3\t\t\ttion {\n      PUSH 0\t\t\ttion {\n      SWAP1 \t\t\ttion {\n      SLOAD \t\t\ttion {\n      SWAP1 \t\t\ttion {\n      PUSH 100\t\t\ttion {\n      EXP \t\t\ttion {\n      SWAP1 \t\t\ttion {\n      DIV \t\t\ttion {\n      PUSH FFFFFFFFFFFFFFFFFFFFFFFFFFFFFFFFFFFFFFFF\t\t\ttion {\n      AND \t\t\ttion {\n      SWAP1 \t\t\ttruct SpendingCondition {\n      POP \t\t\ttruct SpendingCondition {\n      DUP2 \t\t\ttribute;\n      PUSH 3\t\t\tstring\n      PUSH 0\t\t\tstring\n      PUSH 100\t\t\tstring attribute;\n      EXP \t\t\tstring attribute;\n      DUP2 \t\t\tstring attribute;\n      SLOAD \t\t\tstring attribute;\n      DUP2 \t\t\tstring attribute;\n      PUSH FFFFFFFFFFFFFFFFFFFFFFFFFFFFFFFFFFFFFFFF\t\t\tstring attribute;\n      MUL \t\t\tstring attribute;\n      NOT \t\t\tstring attribute;\n      AND \t\t\tstring attribute;\n      SWAP1 \t\t\tstring attribute;\n      DUP4 \t\t\tstring attribute;\n      PUSH FFFFFFFFFFFFFFFFFFFFFFFFFFFFFFFFFFFFFFFF\t\t\tstring attribute;\n      AND \t\t\tstring attribute;\n      MUL \t\t\tstring attribute;\n      OR \t\t\tstring attribute;\n      SWAP1 \t\t\tstring attribute;\n      SSTORE \t\t\tstring attribute;\n      POP \t\t\tstring attribute;\n      DUP2 \t\t\tvalue;\\r\\n\n      PUSH FFFFFFFFFFFFFFFFFFFFFFFFFFFFFFFFFFFFFFFF\t\t\tg operatorStr;\\r\\n        stri...\n      AND \t\t\tg operatorStr;\\r\\n        stri...\n      DUP2 \t\t\t   strin\n      PUSH FFFFFFFFFFFFFFFFFFFFFFFFFFFFFFFFFFFFFFFF\t\t\tg operatorStr;\\r\\n        stri...\n      AND \t\t\tg operatorStr;\\r\\n        stri...\n      PUSH 8BE0079C531659141344CD1FD0A4F28419497F9722A3DAAFE3B4186F6B6457E0\t\t\tg operatorStr;\\r\\n        stri...\n      PUSH 40\t\t\tg operatorStr;\\r\\n        stri...\n      MLOAD \t\t\tg operatorStr;\\r\\n        stri...\n      PUSH 40\t\t\tg operatorStr;\\r\\n        stri...\n      MLOAD \t\t\tg operatorStr;\\r\\n        stri...\n      DUP1 \t\t\tg operatorStr;\\r\\n        stri...\n      SWAP2 \t\t\tg operatorStr;\\r\\n        stri...\n      SUB \t\t\tg operatorStr;\\r\\n        stri...\n      SWAP1 \t\t\tg operatorStr;\\r\\n        stri...\n      LOG3 \t\t\tg operatorStr;\\r\\n        stri...\n      POP \t\t\tion\\r\\n    struct SpendingCond...\n      POP \t\t\tofRequest_role;\\r\\n\\r\\n    // ...\n      JUMP \t\t\tofRequest_role;\\r\\n\\r\\n    // ...\n    tag 434\t\t\terfaces/IZKPVerifier.sol';\\r\\n...\n      JUMPDEST \t\t\terfaces/IZKPVerifier.sol';\\r\\n...\n      PUSH 0\t\t\tifier i\n      CALLER \t\t\t{\\r\\n    add\n      SWAP1 \t\t\twnable {\\r\\n    add\n      POP \t\t\twnable {\\r\\n    add\n      SWAP1 \t\t\terfaces/IZKPVerifier.sol';\\r\\n...\n      JUMP \t\t\terfaces/IZKPVerifier.sol';\\r\\n...\n    tag 435\t\t\t\n      JUMPDEST \t\t\t\n      PUSH 0\t\t\t\n      PUSH FFFFFFFFFFFFFFFFFFFFFFFFFFFFFFFFFFFFFFFF\t\t\t\n      AND \t\t\t\n      DUP3 \t\t\t\n      PUSH FFFFFFFFFFFFFFFFFFFFFFFFFFFFFFFFFFFFFFFF\t\t\t\n      AND \t\t\t\n      SUB \t\t\t\n      PUSH [tag] 557\t\t\t\n      JUMPI \t\t\t\n      PUSH 0\t\t\t\n      PUSH 40\t\t\t\n      MLOAD \t\t\t\n      PUSH CED3E10000000000000000000000000000000000000000000000000000000000\t\t\t\n      DUP2 \t\t\t\n      MSTORE \t\t\t\n      PUSH 4\t\t\t\n      ADD \t\t\t\n      PUSH [tag] 558\t\t\t\n      SWAP2 \t\t\t\n      SWAP1 \t\t\t\n      PUSH [tag] 113\t\t\t\n      JUMP \t\t\t\n    tag 558\t\t\t\n      JUMPDEST \t\t\t\n      PUSH 40\t\t\t\n      MLOAD \t\t\t\n      DUP1 \t\t\t\n      SWAP2 \t\t\t\n      SUB \t\t\t\n      SWAP1 \t\t\t\n      REVERT \t\t\t\n    tag 557\t\t\t\n      JUMPDEST \t\t\t\n      DUP1 \t\t\t\n      PUSH 1\t\t\t\n      PUSH 0\t\t\t\n      DUP6 \t\t\t\n      PUSH FFFFFFFFFFFFFFFFFFFFFFFFFFFFFFFFFFFFFFFF\t\t\t\n      AND \t\t\t\n      PUSH FFFFFFFFFFFFFFFFFFFFFFFFFFFFFFFFFFFFFFFF\t\t\t\n      AND \t\t\t\n      DUP2 \t\t\t\n      MSTORE \t\t\t\n      PUSH 20\t\t\t\n      ADD \t\t\t\n      SWAP1 \t\t\t\n      DUP2 \t\t\t\n      MSTORE \t\t\t\n      PUSH 20\t\t\t\n      ADD \t\t\t\n      PUSH 0\t\t\t\n      KECCAK256 \t\t\t\n      PUSH 0\t\t\t\n      DUP5 \t\t\t\n      PUSH FFFFFFFFFFFFFFFFFFFFFFFFFFFFFFFFFFFFFFFF\t\t\t\n      AND \t\t\t\n      PUSH FFFFFFFFFFFFFFFFFFFFFFFFFFFFFFFFFFFFFFFF\t\t\t\n      AND \t\t\t\n      DUP2 \t\t\t\n      MSTORE \t\t\t\n      PUSH 20\t\t\t\n      ADD \t\t\t\n      SWAP1 \t\t\t\n      DUP2 \t\t\t\n      MSTORE \t\t\t\n      PUSH 20\t\t\t\n      ADD \t\t\t\n      PUSH 0\t\t\t\n      KECCAK256 \t\t\t\n      PUSH 0\t\t\t\n      PUSH 100\t\t\t\n      EXP \t\t\t\n      DUP2 \t\t\t\n      SLOAD \t\t\t\n      DUP2 \t\t\t\n      PUSH FF\t\t\t\n      MUL \t\t\t\n      NOT \t\t\t\n      AND \t\t\t\n      SWAP1 \t\t\t\n      DUP4 \t\t\t\n      ISZERO \t\t\t\n      ISZERO \t\t\t\n      MUL \t\t\t\n      OR \t\t\t\n      SWAP1 \t\t\t\n      SSTORE \t\t\t\n      POP \t\t\t\n      DUP2 \t\t\t\n      PUSH FFFFFFFFFFFFFFFFFFFFFFFFFFFFFFFFFFFFFFFF\t\t\t\n      AND \t\t\t\n      DUP4 \t\t\t\n      PUSH FFFFFFFFFFFFFFFFFFFFFFFFFFFFFFFFFFFFFFFF\t\t\t\n      AND \t\t\t\n      PUSH 17307EAB39AB6107E8899845AD3D59BD9653F200F220920489CA2B5937696C31\t\t\t\n      DUP4 \t\t\t\n      PUSH 40\t\t\t\n      MLOAD \t\t\t\n      PUSH [tag] 559\t\t\t\n      SWAP2 \t\t\t\n      SWAP1 \t\t\t\n      PUSH [tag] 55\t\t\t\n      JUMP \t\t\t\n    tag 559\t\t\t\n      JUMPDEST \t\t\t\n      PUSH 40\t\t\t\n      MLOAD \t\t\t\n      DUP1 \t\t\t\n      SWAP2 \t\t\t\n      SUB \t\t\t\n      SWAP1 \t\t\t\n      LOG3 \t\t\t\n      POP \t\t\t\n      POP \t\t\t\n      POP \t\t\t\n      JUMP \t\t\t\n    tag 467\t\t\tgCondition[] memory) {\\r\\n    ...\n      JUMPDEST \t\t\tgCondition[] memory) {\\r\\n    ...\n      PUSH 0\t\t\t how many proo\n      PUSH [tag] 561\t\t\tquestIDs are\n      PUSH [tag] 434\t\t\tquestIDs a\n      JUMP \t\t\tquestIDs are\n    tag 561\t\t\tquestIDs are\n      JUMPDEST \t\t\tquestIDs are\n      SWAP1 \t\t\t how many proofRequestIDs are\n      POP \t\t\t how many proofRequestIDs are\n      DUP1 \t\t\ttokenI\n      PUSH FFFFFFFFFFFFFFFFFFFFFFFFFFFFFFFFFFFFFFFF\t\t\tth this tokenI\n      AND \t\t\tth this tokenI\n      DUP7 \t\t\tth t\n      PUSH FFFFFFFFFFFFFFFFFFFFFFFFFFFFFFFFFFFFFFFF\t\t\tth this tokenI\n      AND \t\t\tth this tokenI\n      EQ \t\t\tth this tokenI\n      ISZERO \t\t\tth this tokenI\n      DUP1 \t\t\tth this tokenID\\r\\n        for...\n      ISZERO \t\t\tth this tokenID\\r\\n        for...\n      PUSH [tag] 562\t\t\tth this tokenID\\r\\n        for...\n      JUMPI \t\t\tth this tokenID\\r\\n        for...\n      POP \t\t\tth this tokenID\\r\\n        for...\n      PUSH [tag] 563\t\t\t      for (uint256 i = 0; i < \n      DUP7 \t\t\t6 i \n      DUP3 \t\t\t0; i <\n      PUSH [tag] 142\t\t\t      for (uint2\n      JUMP \t\t\t      for (uint256 i = 0; i < \n    tag 563\t\t\t      for (uint256 i = 0; i < \n      JUMPDEST \t\t\t      for (uint256 i = 0; i < \n      ISZERO \t\t\t       for (uint256 i = 0; i <...\n    tag 562\t\t\tth this tokenID\\r\\n        for...\n      JUMPDEST \t\t\tth this tokenID\\r\\n        for...\n      ISZERO \t\t\td with this tokenID\\r\\n       ...\n      PUSH [tag] 564\t\t\td with this tokenID\\r\\n       ...\n      JUMPI \t\t\td with this tokenID\\r\\n       ...\n      DUP1 \t\t\tnditio\n      DUP7 \t\t\t[tok\n      PUSH 40\t\t\t         if (bytes(spendingCon...\n      MLOAD \t\t\t         if (bytes(spendingCon...\n      PUSH E237D92200000000000000000000000000000000000000000000000000000000\t\t\t         if (bytes(spendingCon...\n      DUP2 \t\t\t         if (bytes(spendingCon...\n      MSTORE \t\t\t         if (bytes(spendingCon...\n      PUSH 4\t\t\t         if (bytes(spendingCon...\n      ADD \t\t\t         if (bytes(spendingCon...\n      PUSH [tag] 565\t\t\t         if (bytes(spendingCon...\n      SWAP3 \t\t\t         if (bytes(spendingCon...\n      SWAP2 \t\t\t         if (bytes(spendingCon...\n      SWAP1 \t\t\t         if (bytes(spendingCon...\n      PUSH [tag] 566\t\t\t         if (bytes(spendingCon...\n      JUMP \t\t\t         if (bytes(spendingCon...\n    tag 565\t\t\t         if (bytes(spendingCon...\n      JUMPDEST \t\t\t         if (bytes(spendingCon...\n      PUSH 40\t\t\t         if (bytes(spendingCon...\n      MLOAD \t\t\t         if (bytes(spendingCon...\n      DUP1 \t\t\t         if (bytes(spendingCon...\n      SWAP2 \t\t\t         if (bytes(spendingCon...\n      SUB \t\t\t         if (bytes(spendingCon...\n      SWAP1 \t\t\t         if (bytes(spendingCon...\n      REVERT \t\t\t         if (bytes(spendingCon...\n    tag 564\t\t\td with this tokenID\\r\\n       ...\n      JUMPDEST \t\t\td with this tokenID\\r\\n       ...\n      PUSH [tag] 567\t\t\tte).length > 0) {\\r\\n         ...\n      DUP7 \t\t\t\\n   \n      DUP7 \t\t\t  \n      DUP7 \t\t\t  \n      DUP7 \t\t\t   co\n      DUP7 \t\t\tt++;\n      PUSH [tag] 568\t\t\tte).length > 0) {\n      JUMP \t\t\tte).length > 0) {\\r\\n         ...\n    tag 567\t\t\tte).length > 0) {\\r\\n         ...\n      JUMPDEST \t\t\tte).length > 0) {\\r\\n         ...\n      POP \t\t\trst, count how many proofReque...\n      POP \t\t\tgCondition[] memory) {\\r\\n    ...\n      POP \t\t\tgCondition[] memory) {\\r\\n    ...\n      POP \t\t\tgCondition[] memory) {\\r\\n    ...\n      POP \t\t\tgCondition[] memory) {\\r\\n    ...\n      POP \t\t\tgCondition[] memory) {\\r\\n    ...\n      JUMP \t\t\tgCondition[] memory) {\\r\\n    ...\n    tag 478\t\t\t\n      JUMPDEST \t\t\t\n      PUSH 0\t\t\t\n      PUSH FFFFFFFFFFFFFFFFFFFFFFFFFFFFFFFFFFFFFFFF\t\t\t\n      AND \t\t\t\n      DUP4 \t\t\t\n      PUSH FFFFFFFFFFFFFFFFFFFFFFFFFFFFFFFFFFFFFFFF\t\t\t\n      AND \t\t\t\n      SUB \t\t\t\n      PUSH [tag] 570\t\t\t\n      JUMPI \t\t\t\n      PUSH 0\t\t\t\n      PUSH 40\t\t\t\n      MLOAD \t\t\t\n      PUSH 1A8351400000000000000000000000000000000000000000000000000000000\t\t\t\n      DUP2 \t\t\t\n      MSTORE \t\t\t\n      PUSH 4\t\t\t\n      ADD \t\t\t\n      PUSH [tag] 571\t\t\t\n      SWAP2 \t\t\t\n      SWAP1 \t\t\t\n      PUSH [tag] 113\t\t\t\n      JUMP \t\t\t\n    tag 571\t\t\t\n      JUMPDEST \t\t\t\n      PUSH 40\t\t\t\n      MLOAD \t\t\t\n      DUP1 \t\t\t\n      SWAP2 \t\t\t\n      SUB \t\t\t\n      SWAP1 \t\t\t\n      REVERT \t\t\t\n    tag 570\t\t\t\n      JUMPDEST \t\t\t\n      PUSH 0\t\t\t\n      DUP1 \t\t\t\n      PUSH [tag] 572\t\t\t\n      DUP5 \t\t\t\n      DUP5 \t\t\t\n      PUSH [tag] 493\t\t\t\n      JUMP \t\t\t\n    tag 572\t\t\t\n      JUMPDEST \t\t\t\n      SWAP2 \t\t\t\n      POP \t\t\t\n      SWAP2 \t\t\t\n      POP \t\t\t\n      PUSH [tag] 573\t\t\t\n      DUP6 \t\t\t\n      PUSH 0\t\t\t\n      DUP5 \t\t\t\n      DUP5 \t\t\t\n      PUSH 40\t\t\t\n      MLOAD \t\t\t\n      DUP1 \t\t\t\n      PUSH 20\t\t\t\n      ADD \t\t\t\n      PUSH 40\t\t\t\n      MSTORE \t\t\t\n      DUP1 \t\t\t\n      PUSH 0\t\t\t\n      DUP2 \t\t\t\n      MSTORE \t\t\t\n      POP \t\t\t\n      PUSH [tag] 495\t\t\t\n      JUMP \t\t\t\n    tag 573\t\t\t\n      JUMPDEST \t\t\t\n      POP \t\t\t\n      POP \t\t\t\n      POP \t\t\t\n      POP \t\t\t\n      POP \t\t\t\n      JUMP \t\t\t\n    tag 488\t\t\t        operatorStr: condition...\n      JUMPDEST \t\t\t        operatorStr: condition...\n      PUSH 60\t\t\t value: conditio\n      DUP2 \t\t\t;\\r\\n\n      PUSH 0\t\t\t;\\r\\n    }\\r\\n \n      ADD \t\t\t;\\r\\n    }\\r\\n \n      DUP1 \t\t\t     });\\r\\n    }\\r\\n \n      SLOAD \t\t\t     });\\r\\n    }\\r\\n \n      DUP1 \t\t\t     });\\r\\n    }\\r\\n \n      PUSH 20\t\t\t     });\\r\\n    }\\r\\n \n      MUL \t\t\t     });\\r\\n    }\\r\\n \n      PUSH 20\t\t\t     });\\r\\n    }\\r\\n \n      ADD \t\t\t     });\\r\\n    }\\r\\n \n      PUSH 40\t\t\t     });\\r\\n    }\\r\\n \n      MLOAD \t\t\t     });\\r\\n    }\\r\\n \n      SWAP1 \t\t\t     });\\r\\n    }\\r\\n \n      DUP2 \t\t\t     });\\r\\n    }\\r\\n \n      ADD \t\t\t     });\\r\\n    }\\r\\n \n      PUSH 40\t\t\t     });\\r\\n    }\\r\\n \n      MSTORE \t\t\t     });\\r\\n    }\\r\\n \n      DUP1 \t\t\t     });\\r\\n    }\\r\\n \n      SWAP3 \t\t\t     });\\r\\n    }\\r\\n \n      SWAP2 \t\t\t     });\\r\\n    }\\r\\n \n      SWAP1 \t\t\t     });\\r\\n    }\\r\\n \n      DUP2 \t\t\t     });\\r\\n    }\\r\\n \n      DUP2 \t\t\t     });\\r\\n    }\\r\\n \n      MSTORE \t\t\t     });\\r\\n    }\\r\\n \n      PUSH 20\t\t\t     });\\r\\n    }\\r\\n \n      ADD \t\t\t     });\\r\\n    }\\r\\n \n      DUP3 \t\t\t     });\\r\\n    }\\r\\n \n      DUP1 \t\t\t     });\\r\\n    }\\r\\n \n      SLOAD \t\t\t     });\\r\\n    }\\r\\n \n      DUP1 \t\t\t     });\\r\\n    }\\r\\n \n      ISZERO \t\t\t     });\\r\\n    }\\r\\n \n      PUSH [tag] 575\t\t\t     });\\r\\n    }\\r\\n \n      JUMPI \t\t\t     });\\r\\n    }\\r\\n \n      PUSH 20\t\t\t     });\\r\\n    }\\r\\n \n      MUL \t\t\t     });\\r\\n    }\\r\\n \n      DUP3 \t\t\t     });\\r\\n    }\\r\\n \n      ADD \t\t\t     });\\r\\n    }\\r\\n \n      SWAP2 \t\t\t     });\\r\\n    }\\r\\n \n      SWAP1 \t\t\t     });\\r\\n    }\\r\\n \n      PUSH 0\t\t\t     });\\r\\n    }\\r\\n \n      MSTORE \t\t\t     });\\r\\n    }\\r\\n \n      PUSH 20\t\t\t     });\\r\\n    }\\r\\n \n      PUSH 0\t\t\t     });\\r\\n    }\\r\\n \n      KECCAK256 \t\t\t     });\\r\\n    }\\r\\n \n      SWAP1 \t\t\t     });\\r\\n    }\\r\\n \n    tag 576\t\t\t     });\\r\\n    }\\r\\n \n      JUMPDEST \t\t\t     });\\r\\n    }\\r\\n \n      DUP2 \t\t\t     });\\r\\n    }\\r\\n \n      SLOAD \t\t\t     });\\r\\n    }\\r\\n \n      DUP2 \t\t\t     });\\r\\n    }\\r\\n \n      MSTORE \t\t\t     });\\r\\n    }\\r\\n \n      PUSH 20\t\t\t     });\\r\\n    }\\r\\n \n      ADD \t\t\t     });\\r\\n    }\\r\\n \n      SWAP1 \t\t\t     });\\r\\n    }\\r\\n \n      PUSH 1\t\t\t     });\\r\\n    }\\r\\n \n      ADD \t\t\t     });\\r\\n    }\\r\\n \n      SWAP1 \t\t\t     });\\r\\n    }\\r\\n \n      DUP1 \t\t\t     });\\r\\n    }\\r\\n \n      DUP4 \t\t\t     });\\r\\n    }\\r\\n \n      GT \t\t\t     });\\r\\n    }\\r\\n \n      PUSH [tag] 576\t\t\t     });\\r\\n    }\\r\\n \n      JUMPI \t\t\t     });\\r\\n    }\\r\\n \n    tag 575\t\t\t     });\\r\\n    }\\r\\n \n      JUMPDEST \t\t\t     });\\r\\n    }\\r\\n \n      POP \t\t\t     });\\r\\n    }\\r\\n \n      POP \t\t\t     });\\r\\n    }\\r\\n \n      POP \t\t\t     });\\r\\n    }\\r\\n \n      POP \t\t\t     });\\r\\n    }\\r\\n \n      POP \t\t\t     });\\r\\n    }\\r\\n \n      SWAP1 \t\t\t     });\\r\\n    }\\r\\n \n      POP \t\t\t     });\\r\\n    }\\r\\n \n      SWAP2 \t\t\t        operatorStr: condition...\n      SWAP1 \t\t\t        operatorStr: condition...\n      POP \t\t\t        operatorStr: condition...\n      JUMP \t\t\t        operatorStr: condition...\n    tag 493\t\t\t\n      JUMPDEST \t\t\t\n      PUSH 60\t\t\t\n      DUP1 \t\t\t\n      PUSH 40\t\t\t\n      MLOAD \t\t\t\n      SWAP2 \t\t\t\n      POP \t\t\t\n      PUSH 1\t\t\t\n      DUP3 \t\t\t\n      MSTORE \t\t\t\n      DUP4 \t\t\t\n      PUSH 20\t\t\t\n      DUP4 \t\t\t\n      ADD \t\t\t\n      MSTORE \t\t\t\n      PUSH 40\t\t\t\n      DUP3 \t\t\t\n      ADD \t\t\t\n      SWAP1 \t\t\t\n      POP \t\t\t\n      PUSH 1\t\t\t\n      DUP2 \t\t\t\n      MSTORE \t\t\t\n      DUP3 \t\t\t\n      PUSH 20\t\t\t\n      DUP3 \t\t\t\n      ADD \t\t\t\n      MSTORE \t\t\t\n      PUSH 40\t\t\t\n      DUP2 \t\t\t\n      ADD \t\t\t\n      PUSH 40\t\t\t\n      MSTORE \t\t\t\n      SWAP3 \t\t\t\n      POP \t\t\t\n      SWAP3 \t\t\t\n      SWAP1 \t\t\t\n      POP \t\t\t\n      JUMP \t\t\t\n    tag 495\t\t\tuestIDs[i] == requestID) {\\r\\n...\n      JUMPDEST \t\t\tuestIDs[i] == requestID) {\\r\\n...\n      PUSH [tag] 579\t\t\t    }\\r\\n\\r\\n    uint256 publi...\n      DUP6 \t\t\t\\n   \n      DUP6 \t\t\tin\n      DUP6 \t\t\t56 \n      DUP6 \t\t\tblic c\n      PUSH [tag] 580\t\t\t    }\\r\\n\n      JUMP \t\t\t    }\\r\\n\\r\\n    uint256 publi...\n    tag 579\t\t\t    }\\r\\n\\r\\n    uint256 publi...\n      JUMPDEST \t\t\t    }\\r\\n\\r\\n    uint256 publi...\n      PUSH 0\t\t\t \n      PUSH FFFFFFFFFFFFFFFFFFFFFFFFFFFFFFFFFFFFFFFF\t\t\te_token = 1;\\r\\n  \n      AND \t\t\te_token = 1;\\r\\n  \n      DUP5 \t\t\te_\n      PUSH FFFFFFFFFFFFFFFFFFFFFFFFFFFFFFFFFFFFFFFF\t\t\te_token = 1;\\r\\n  \n      AND \t\t\te_token = 1;\\r\\n  \n      EQ \t\t\te_token = 1;\\r\\n  \n      PUSH [tag] 581\t\t\tgible_token = 1;\\r\\n    uint25...\n      JUMPI \t\t\tgible_token = 1;\\r\\n    uint25...\n      PUSH 0\t\t\t constant non_fu\n      PUSH [tag] 582\t\t\tble_token = \n      PUSH [tag] 434\t\t\tble_token \n      JUMP \t\t\tble_token = \n    tag 582\t\t\tble_token = \n      JUMPDEST \t\t\tble_token = \n      SWAP1 \t\t\t constant non_fungible_token =...\n      POP \t\t\t constant non_fungible_token =...\n      PUSH 1\t\t\ti\n      DUP5 \t\t\tlVe\n      MLOAD \t\t\tlVerifier \n      SUB \t\t\tlVerifier publi\n      PUSH [tag] 583\t\t\tersalVerifier public verifier;...\n      JUMPI \t\t\tersalVerifier public verifier;...\n      PUSH 0\t\t\tonstructor\n      PUSH [tag] 584\t\t\tiversalVerifier verifier_\n      PUSH 0\t\t\tr\n      DUP7 \t\t\tive\n      PUSH [tag] 340\t\t\tiversalVerifier verifi\n      SWAP1 \t\t\tiversalVerifier verifi\n      SWAP2 \t\t\tiversalVerifier verifier_\n      SWAP1 \t\t\tiversalVerifier verifier_\n      PUSH FFFFFFFF\t\t\tiversalVerifier verifier_\n      AND \t\t\tiversalVerifier verifier_\n      JUMP \t\t\tiversalVerifier verifier_\n    tag 584\t\t\tiversalVerifier verifier_\n      JUMPDEST \t\t\tiversalVerifier verifier_\n      SWAP1 \t\t\tonstructor(UniversalVerifier v...\n      POP \t\t\tonstructor(UniversalVerifier v...\n      PUSH 0\t\t\twner, string \n      PUSH [tag] 585\t\t\tory uri_)\\r\\n    ERC1155(uri_)\n      PUSH 0\t\t\t_\n      DUP7 \t\t\tory ur\n      PUSH [tag] 340\t\t\tory uri_)\\r\\n    ERC1155(ur\n      SWAP1 \t\t\tory uri_)\\r\\n    ERC1155(ur\n      SWAP2 \t\t\tory uri_)\\r\\n    ERC1155(uri_)\n      SWAP1 \t\t\tory uri_)\\r\\n    ERC1155(uri_)\n      PUSH FFFFFFFF\t\t\tory uri_)\\r\\n    ERC1155(uri_)\n      AND \t\t\tory uri_)\\r\\n    ERC1155(uri_)\n      JUMP \t\t\tory uri_)\\r\\n    ERC1155(uri_)\n    tag 585\t\t\tory uri_)\\r\\n    ERC1155(uri_)\n      JUMPDEST \t\t\tory uri_)\\r\\n    ERC1155(uri_)\n      SWAP1 \t\t\twner, string memory uri_)\\r\\n ...\n      POP \t\t\twner, string memory uri_)\\r\\n ...\n      PUSH [tag] 586\t\t\tialOwner)\\r\\n    {\\r\\n        ...\n      DUP4 \t\t\t verifie\n      DUP10 \t\t\t;\\r\\n \n      DUP10 \t\t\t }\n      DUP6 \t\t\t\\r\\n\n      DUP6 \t\t\t  // \n      DUP10 \t\t\tstom\n      PUSH [tag] 587\t\t\tialOwner)\\r\\n    {\\r\\n        ...\n      JUMP \t\t\tialOwner)\\r\\n    {\\r\\n        ...\n    tag 586\t\t\tialOwner)\\r\\n    {\\r\\n        ...\n      JUMPDEST \t\t\tialOwner)\\r\\n    {\\r\\n        ...\n      POP \t\t\tverifier;\\r\\n\\r\\n    construct...\n      POP \t\t\tverifier;\\r\\n\\r\\n    construct...\n      PUSH [tag] 588\t\t\tersalVerifier public verifier;...\n      JUMP \t\t\tersalVerifier public verifier;...\n    tag 583\t\t\tersalVerifier public verifier;...\n      JUMPDEST \t\t\tersalVerifier public verifier;...\n      PUSH [tag] 589\t\t\tready taken, when minting new ...\n      DUP2 \t\t\t error T\n      DUP8 \t\t\tenID\n      DUP8 \t\t\tke\n      DUP8 \t\t\tuin\n      DUP8 \t\t\t56 tok\n      DUP8 \t\t\tID);\n      PUSH [tag] 590\t\t\tready taken, when minting new ...\n      JUMP \t\t\tready taken, when minting new ...\n    tag 589\t\t\tready taken, when minting new ...\n      JUMPDEST \t\t\tready taken, when minting new ...\n    tag 588\t\t\tersalVerifier public verifier;...\n      JUMPDEST \t\t\tersalVerifier public verifier;...\n      POP \t\t\tuint256 public constant non_fu...\n    tag 581\t\t\tgible_token = 1;\\r\\n    uint25...\n      JUMPDEST \t\t\tgible_token = 1;\\r\\n    uint25...\n      POP \t\t\tuestIDs[i] == requestID) {\\r\\n...\n      POP \t\t\tuestIDs[i] == requestID) {\\r\\n...\n      POP \t\t\tuestIDs[i] == requestID) {\\r\\n...\n      POP \t\t\tuestIDs[i] == requestID) {\\r\\n...\n      POP \t\t\tuestIDs[i] == requestID) {\\r\\n...\n      JUMP \t\t\tuestIDs[i] == requestID) {\\r\\n...\n    tag 498\t\t\t   require(_allTokenIDs.contai...\n      JUMPDEST \t\t\t   require(_allTokenIDs.contai...\n      PUSH 0\t\t\t    \n      DUP1 \t\t\to\n      DUP4 \t\t\tken\n      PUSH 1\t\t\tkenID_proofReq\n      ADD \t\t\tkenID_proofReq\n      PUSH 0\t\t\tkenID_proofRequest_ro\n      DUP5 \t\t\test_r\n      DUP2 \t\t\tkenID_proofRequest_ro\n      MSTORE \t\t\tkenID_proofRequest_ro\n      PUSH 20\t\t\tkenID_proofRequest_ro\n      ADD \t\t\tkenID_proofRequest_ro\n      SWAP1 \t\t\tkenID_proofRequest_ro\n      DUP2 \t\t\tkenID_proofRequest_ro\n      MSTORE \t\t\tkenID_proofRequest_ro\n      PUSH 20\t\t\tkenID_proofRequest_ro\n      ADD \t\t\tkenID_proofRequest_ro\n      PUSH 0\t\t\tkenID_proofRequest_ro\n      KECCAK256 \t\t\tkenID_proofRequest_ro\n      SLOAD \t\t\tkenID_proofRequest_ro\n      EQ \t\t\tkenID_proofRequest_role[to\n      ISZERO \t\t\tkenID_proofRequest_role[to\n      SWAP1 \t\t\tytes(tokenID_proofRequest_role...\n      POP \t\t\tytes(tokenID_proofRequest_role...\n      SWAP3 \t\t\t   require(_allTokenIDs.contai...\n      SWAP2 \t\t\t   require(_allTokenIDs.contai...\n      POP \t\t\t   require(_allTokenIDs.contai...\n      POP \t\t\t   require(_allTokenIDs.contai...\n      JUMP \t\t\t   require(_allTokenIDs.contai...\n    tag 501\t\t\t;\\r\\n\\r\\n    /// @notice Retur...\n      JUMPDEST \t\t\t;\\r\\n\\r\\n    /// @notice Retur...\n      PUSH 0\t\t\tnted\n      PUSH [tag] 593\t\t\tlTokenIDs() external \n      DUP4 \t\t\t) e\n      DUP4 \t\t\ternal\n      PUSH [tag] 498\t\t\tlTokenIDs\n      JUMP \t\t\tlTokenIDs() external \n    tag 593\t\t\tlTokenIDs() external \n      JUMPDEST \t\t\tlTokenIDs() external \n      PUSH [tag] 594\t\t\ton allTokenIDs() external view...\n      JUMPI \t\t\ton allTokenIDs() external view...\n      DUP3 \t\t\tnt2\n      PUSH 0\t\t\tnt256[] mem\n      ADD \t\t\tnt256[] mem\n      DUP3 \t\t\t\\r\\n   \n      SWAP1 \t\t\tnt256[] memory) {\\r\\n    \n      DUP1 \t\t\tnt256[] memory) {\\r\\n    \n      PUSH 1\t\t\tnt256[] memory) {\\r\\n    \n      DUP2 \t\t\tnt256[] memory) {\\r\\n    \n      SLOAD \t\t\tnt256[] memory) {\\r\\n    \n      ADD \t\t\tnt256[] memory) {\\r\\n    \n      DUP1 \t\t\tnt256[] memory) {\\r\\n    \n      DUP3 \t\t\tnt256[] memory) {\\r\\n    \n      SSTORE \t\t\tnt256[] memory) {\\r\\n    \n      DUP1 \t\t\tnt256[] memory) {\\r\\n    \n      SWAP2 \t\t\tnt256[] memory) {\\r\\n    \n      POP \t\t\tnt256[] memory) {\\r\\n    \n      POP \t\t\tnt256[] memory) {\\r\\n    \n      PUSH 1\t\t\tnt256[] memory) {\\r\\n    \n      SWAP1 \t\t\tnt256[] memory) {\\r\\n    \n      SUB \t\t\tnt256[] memory) {\\r\\n    \n      SWAP1 \t\t\tnt256[] memory) {\\r\\n    \n      PUSH 0\t\t\tnt256[] memory) {\\r\\n    \n      MSTORE \t\t\tnt256[] memory) {\\r\\n    \n      PUSH 20\t\t\tnt256[] memory) {\\r\\n    \n      PUSH 0\t\t\tnt256[] memory) {\\r\\n    \n      KECCAK256 \t\t\tnt256[] memory) {\\r\\n    \n      ADD \t\t\tnt256[] memory) {\\r\\n    \n      PUSH 0\t\t\tnt256[] memory) {\\r\\n    \n      SWAP1 \t\t\tnt256[] memory) {\\r\\n    \n      SWAP2 \t\t\tnt256[] memory) {\\r\\n    \n      SWAP1 \t\t\tnt256[] memory) {\\r\\n    \n      SWAP2 \t\t\tnt256[] memory) {\\r\\n    \n      SWAP1 \t\t\tnt256[] memory) {\\r\\n    \n      SWAP2 \t\t\tnt256[] memory) {\\r\\n    \n      POP \t\t\tnt256[] memory) {\\r\\n    \n      SSTORE \t\t\tnt256[] memory) {\\r\\n    \n      DUP3 \t\t\tg(u\n      PUSH 0\t\t\tg(uint256 =\n      ADD \t\t\tg(uint256 =\n      DUP1 \t\t\tg(uint256 => strin\n      SLOAD \t\t\tg(uint256 => strin\n      SWAP1 \t\t\tg(uint256 => strin\n      POP \t\t\tg(uint256 => strin\n      DUP4 \t\t\tore\n      PUSH 1\t\t\tored as uri \\r\\n\n      ADD \t\t\tored as uri \\r\\n\n      PUSH 0\t\t\tored as uri \\r\\n    map\n      DUP5 \t\t\t   ma\n      DUP2 \t\t\tored as uri \\r\\n    map\n      MSTORE \t\t\tored as uri \\r\\n    map\n      PUSH 20\t\t\tored as uri \\r\\n    map\n      ADD \t\t\tored as uri \\r\\n    map\n      SWAP1 \t\t\tored as uri \\r\\n    map\n      DUP2 \t\t\tored as uri \\r\\n    map\n      MSTORE \t\t\tored as uri \\r\\n    map\n      PUSH 20\t\t\tored as uri \\r\\n    map\n      ADD \t\t\tored as uri \\r\\n    map\n      PUSH 0\t\t\tored as uri \\r\\n    map\n      KECCAK256 \t\t\tored as uri \\r\\n    map\n      DUP2 \t\t\tored as uri \\r\\n    mapping(ui...\n      SWAP1 \t\t\tored as uri \\r\\n    mapping(ui...\n      SSTORE \t\t\tored as uri \\r\\n    mapping(ui...\n      POP \t\t\tored as uri \\r\\n    mapping(ui...\n      PUSH 1\t\t\t\\n\\r\\n\\r\n      SWAP1 \t\t\tnName;\\r\\n\\r\\n\\r\n      POP \t\t\tnName;\\r\\n\\r\\n\\r\n      PUSH [tag] 592\t\t\tnName;\\r\\n\\r\\n\\r\n      JUMP \t\t\tnName;\\r\\n\\r\\n\\r\n    tag 594\t\t\ton allTokenIDs() external view...\n      JUMPDEST \t\t\ton allTokenIDs() external view...\n      PUSH 0\t\t\treque\n      SWAP1 \t\t\t proof_reque\n      POP \t\t\t proof_reque\n    tag 592\t\t\t;\\r\\n\\r\\n    /// @notice Retur...\n      JUMPDEST \t\t\t;\\r\\n\\r\\n    /// @notice Retur...\n      SWAP3 \t\t\t;\\r\\n\\r\\n    /// @notice Retur...\n      SWAP2 \t\t\t;\\r\\n\\r\\n    /// @notice Retur...\n      POP \t\t\t;\\r\\n\\r\\n    /// @notice Retur...\n      POP \t\t\t;\\r\\n\\r\\n    /// @notice Retur...\n      JUMP \t\t\t;\\r\\n\\r\\n    /// @notice Retur...\n    tag 568\t\t\t @dev The function no longer r...\n      JUMPDEST \t\t\t @dev The function no longer r...\n      PUSH 0\t\t\ty\n      PUSH FFFFFFFFFFFFFFFFFFFFFFFFFFFFFFFFFFFFFFFF\t\t\tt256 amount, byt\n      AND \t\t\tt256 amount, byt\n      DUP5 \t\t\tt2\n      PUSH FFFFFFFFFFFFFFFFFFFFFFFFFFFFFFFFFFFFFFFF\t\t\tt256 amount, byt\n      AND \t\t\tt256 amount, byt\n      SUB \t\t\tt256 amount, byt\n      PUSH [tag] 598\t\t\t uint256 amount, bytes calldat...\n      JUMPI \t\t\t uint256 amount, bytes calldat...\n      PUSH 0\t\t\t \n      PUSH 40\t\t\tg calldata name) external {\\r\\...\n      MLOAD \t\t\tg calldata name) external {\\r\\...\n      PUSH 57F447CE00000000000000000000000000000000000000000000000000000000\t\t\tg calldata name) external {\\r\\...\n      DUP2 \t\t\tg calldata name) external {\\r\\...\n      MSTORE \t\t\tg calldata name) external {\\r\\...\n      PUSH 4\t\t\tg calldata name) external {\\r\\...\n      ADD \t\t\tg calldata name) external {\\r\\...\n      PUSH [tag] 599\t\t\tg calldata name) external {\\r\\...\n      SWAP2 \t\t\tg calldata name) external {\\r\\...\n      SWAP1 \t\t\tg calldata name) external {\\r\\...\n      PUSH [tag] 113\t\t\tg calldata name) external {\\r\\...\n      JUMP \t\t\tg calldata name) external {\\r\\...\n    tag 599\t\t\tg calldata name) external {\\r\\...\n      JUMPDEST \t\t\tg calldata name) external {\\r\\...\n      PUSH 40\t\t\tg calldata name) external {\\r\\...\n      MLOAD \t\t\tg calldata name) external {\\r\\...\n      DUP1 \t\t\tg calldata name) external {\\r\\...\n      SWAP2 \t\t\tg calldata name) external {\\r\\...\n      SUB \t\t\tg calldata name) external {\\r\\...\n      SWAP1 \t\t\tg calldata name) external {\\r\\...\n      REVERT \t\t\tg calldata name) external {\\r\\...\n    tag 598\t\t\t uint256 amount, bytes calldat...\n      JUMPDEST \t\t\t uint256 amount, bytes calldat...\n      PUSH 0\t\t\t \n      PUSH FFFFFFFFFFFFFFFFFFFFFFFFFFFFFFFFFFFFFFFF\t\t\tength > 0, \"Name r\n      AND \t\t\tength > 0, \"Name r\n      DUP6 \t\t\tengt\n      PUSH FFFFFFFFFFFFFFFFFFFFFFFFFFFFFFFFFFFFFFFF\t\t\tength > 0, \"Name r\n      AND \t\t\tength > 0, \"Name r\n      SUB \t\t\tength > 0, \"Name r\n      PUSH [tag] 600\t\t\te).length > 0, \"Name required\"...\n      JUMPI \t\t\te).length > 0, \"Name required\"...\n      PUSH 0\t\t\to\n      PUSH 40\t\t\tt256 tokenID = 0;\\r\\n        b...\n      MLOAD \t\t\tt256 tokenID = 0;\\r\\n        b...\n      PUSH 1A8351400000000000000000000000000000000000000000000000000000000\t\t\tt256 tokenID = 0;\\r\\n        b...\n      DUP2 \t\t\tt256 tokenID = 0;\\r\\n        b...\n      MSTORE \t\t\tt256 tokenID = 0;\\r\\n        b...\n      PUSH 4\t\t\tt256 tokenID = 0;\\r\\n        b...\n      ADD \t\t\tt256 tokenID = 0;\\r\\n        b...\n      PUSH [tag] 601\t\t\tt256 tokenID = 0;\\r\\n        b...\n      SWAP2 \t\t\tt256 tokenID = 0;\\r\\n        b...\n      SWAP1 \t\t\tt256 tokenID = 0;\\r\\n        b...\n      PUSH [tag] 113\t\t\tt256 tokenID = 0;\\r\\n        b...\n      JUMP \t\t\tt256 tokenID = 0;\\r\\n        b...\n    tag 601\t\t\tt256 tokenID = 0;\\r\\n        b...\n      JUMPDEST \t\t\tt256 tokenID = 0;\\r\\n        b...\n      PUSH 40\t\t\tt256 tokenID = 0;\\r\\n        b...\n      MLOAD \t\t\tt256 tokenID = 0;\\r\\n        b...\n      DUP1 \t\t\tt256 tokenID = 0;\\r\\n        b...\n      SWAP2 \t\t\tt256 tokenID = 0;\\r\\n        b...\n      SUB \t\t\tt256 tokenID = 0;\\r\\n        b...\n      SWAP1 \t\t\tt256 tokenID = 0;\\r\\n        b...\n      REVERT \t\t\tt256 tokenID = 0;\\r\\n        b...\n    tag 600\t\t\te).length > 0, \"Name required\"...\n      JUMPDEST \t\t\te).length > 0, \"Name required\"...\n      PUSH 0\t\t\t   uint256[] memory \n      DUP1 \t\t\ts = _allTokenIDs.values\n      PUSH [tag] 602\t\t\t\\n        for (uint256 i = 0; \n      DUP6 \t\t\t56\n      DUP6 \t\t\t = 0;\n      PUSH [tag] 493\t\t\t\\n        for (uint\n      JUMP \t\t\t\\n        for (uint256 i = 0; \n    tag 602\t\t\t\\n        for (uint256 i = 0; \n      JUMPDEST \t\t\t\\n        for (uint256 i = 0; \n      SWAP2 \t\t\t    uint256[] memory ids = _al...\n      POP \t\t\t    uint256[] memory ids = _al...\n      SWAP2 \t\t\t    uint256[] memory ids = _al...\n      POP \t\t\t    uint256[] memory ids = _al...\n      PUSH [tag] 603\t\t\tngth; i++) {\\r\\n            if...\n      DUP8 \t\t\tf (k\n      DUP8 \t\t\tca\n      DUP5 \t\t\t56(\n      DUP5 \t\t\ttes(to\n      DUP8 \t\t\tnNam\n      PUSH [tag] 495\t\t\tngth; i++) {\\r\\n            \n      JUMP \t\t\tngth; i++) {\\r\\n            if...\n    tag 603\t\t\tngth; i++) {\\r\\n            if...\n      JUMPDEST \t\t\tngth; i++) {\\r\\n            if...\n      POP \t\t\tddress to, uint256 amount, byt...\n      POP \t\t\tddress to, uint256 amount, byt...\n      POP \t\t\t @dev The function no longer r...\n      POP \t\t\t @dev The function no longer r...\n      POP \t\t\t @dev The function no longer r...\n      POP \t\t\t @dev The function no longer r...\n      POP \t\t\t @dev The function no longer r...\n      JUMP \t\t\t @dev The function no longer r...\n    tag 580\t\t\ts(role)) == keccak256(bytes(\"s...\n      JUMPDEST \t\t\ts(role)) == keccak256(bytes(\"s...\n      DUP1 \t\t\tbe 'se\n      MLOAD \t\t\tbe 'sender' o\n      DUP3 \t\t\t   \n      MLOAD \t\t\t   \"Role m\n      EQ \t\t\t   \"Role must be 'sender' o\n      PUSH [tag] 605\t\t\t       \"Role must be 'sender' ...\n      JUMPI \t\t\t       \"Role must be 'sender' ...\n      DUP2 \t\t\tequ\n      MLOAD \t\t\tequest_rol\n      DUP2 \t\t\ttokenI\n      MLOAD \t\t\ttokenID][requ\n      PUSH 40\t\t\t);\\r\\n        tokenID_proofReq...\n      MLOAD \t\t\t);\\r\\n        tokenID_proofReq...\n      PUSH 5B05999100000000000000000000000000000000000000000000000000000000\t\t\t);\\r\\n        tokenID_proofReq...\n      DUP2 \t\t\t);\\r\\n        tokenID_proofReq...\n      MSTORE \t\t\t);\\r\\n        tokenID_proofReq...\n      PUSH 4\t\t\t);\\r\\n        tokenID_proofReq...\n      ADD \t\t\t);\\r\\n        tokenID_proofReq...\n      PUSH [tag] 606\t\t\t);\\r\\n        tokenID_proofReq...\n      SWAP3 \t\t\t);\\r\\n        tokenID_proofReq...\n      SWAP2 \t\t\t);\\r\\n        tokenID_proofReq...\n      SWAP1 \t\t\t);\\r\\n        tokenID_proofReq...\n      PUSH [tag] 329\t\t\t);\\r\\n        tokenID_proofReq...\n      JUMP \t\t\t);\\r\\n        tokenID_proofReq...\n    tag 606\t\t\t);\\r\\n        tokenID_proofReq...\n      JUMPDEST \t\t\t);\\r\\n        tokenID_proofReq...\n      PUSH 40\t\t\t);\\r\\n        tokenID_proofReq...\n      MLOAD \t\t\t);\\r\\n        tokenID_proofReq...\n      DUP1 \t\t\t);\\r\\n        tokenID_proofReq...\n      SWAP2 \t\t\t);\\r\\n        tokenID_proofReq...\n      SUB \t\t\t);\\r\\n        tokenID_proofReq...\n      SWAP1 \t\t\t);\\r\\n        tokenID_proofReq...\n      REVERT \t\t\t);\\r\\n        tokenID_proofReq...\n    tag 605\t\t\t       \"Role must be 'sender' ...\n      JUMPDEST \t\t\t       \"Role must be 'sender' ...\n      PUSH 0\t\t\t  proofRequestID\n      PUSH [tag] 607\t\t\tush(requestI\n      PUSH [tag] 434\t\t\tush(reques\n      JUMP \t\t\tush(requestI\n    tag 607\t\t\tush(requestI\n      JUMPDEST \t\t\tush(requestI\n      SWAP1 \t\t\t  proofRequestIDs.push(request...\n      POP \t\t\t  proofRequestIDs.push(request...\n      PUSH 0\t\t\t\\r\\n    fun\n    tag 608\t\t\t\\n    \\r\\n    function addProo...\n      JUMPDEST \t\t\t\\n    \\r\\n    function addProo...\n      DUP4 \t\t\troo\n      MLOAD \t\t\troofReques\n      DUP2 \t\t\ta\n      LT \t\t\taddProofReques\n      ISZERO \t\t\t\\n    \\r\\n    function addProo...\n      PUSH [tag] 609\t\t\t\\n    \\r\\n    function addProo...\n      JUMPI \t\t\t\\n    \\r\\n    function addProo...\n      PUSH 0\t\t\t     uint6\n      PUSH [tag] 611\t\t\tequestId,\\r\\n        string\n      DUP3 \t\t\tn\n      DUP7 \t\t\tequ\n      PUSH [tag] 340\t\t\tequestId,\\r\\n        str\n      SWAP1 \t\t\tequestId,\\r\\n        str\n      SWAP2 \t\t\tequestId,\\r\\n        string\n      SWAP1 \t\t\tequestId,\\r\\n        string\n      PUSH FFFFFFFF\t\t\tequestId,\\r\\n        string\n      AND \t\t\tequestId,\\r\\n        string\n      JUMP \t\t\tequestId,\\r\\n        string\n    tag 611\t\t\tequestId,\\r\\n        string\n      JUMPDEST \t\t\tequestId,\\r\\n        string\n      SWAP1 \t\t\t     uint64 requestId,\\r\\n    ...\n      POP \t\t\t     uint64 requestId,\\r\\n    ...\n      PUSH 0\t\t\tdata,\\r\\n      \n      PUSH [tag] 612\t\t\tCircuitValidator validator,\\r\n      DUP4 \t\t\t,\n      DUP7 \t\t\tCircui\n      PUSH [tag] 340\t\t\tCircuitValidator validato\n      SWAP1 \t\t\tCircuitValidator validato\n      SWAP2 \t\t\tCircuitValidator validator,\\r\n      SWAP1 \t\t\tCircuitValidator validator,\\r\n      PUSH FFFFFFFF\t\t\tCircuitValidator validator,\\r\n      AND \t\t\tCircuitValidator validator,\\r\n      JUMP \t\t\tCircuitValidator validator,\\r\n    tag 612\t\t\tCircuitValidator validator,\\r\n      JUMPDEST \t\t\tCircuitValidator validator,\\r\n      SWAP1 \t\t\tdata,\\r\\n        ICircuitValid...\n      POP \t\t\tdata,\\r\\n        ICircuitValid...\n      PUSH 0\t\t\t \n      PUSH FFFFFFFFFFFFFFFFFFFFFFFFFFFFFFFFFFFFFFFF\t\t\tdata data,\\r\\n      \n      AND \t\t\tdata data,\\r\\n      \n      DUP9 \t\t\tdata\n      PUSH FFFFFFFFFFFFFFFFFFFFFFFFFFFFFFFFFFFFFFFF\t\t\tdata data,\\r\\n      \n      AND \t\t\tdata data,\\r\\n      \n      EQ \t\t\tdata data,\\r\\n      \n      PUSH [tag] 613\t\t\tcalldata data,\\r\\n        uint...\n      JUMPI \t\t\tcalldata data,\\r\\n        uint...\n      PUSH 0\t\t\t        string call\n      DUP1 \t\t\ta role,\\r\\n\n      PUSH 0\t\t\ta role,\\r\\n    \n      DUP5 \t\t\t  \n      DUP2 \t\t\ta role,\\r\\n    \n      MSTORE \t\t\ta role,\\r\\n    \n      PUSH 20\t\t\ta role,\\r\\n    \n      ADD \t\t\ta role,\\r\\n    \n      SWAP1 \t\t\ta role,\\r\\n    \n      DUP2 \t\t\ta role,\\r\\n    \n      MSTORE \t\t\ta role,\\r\\n    \n      PUSH 20\t\t\ta role,\\r\\n    \n      ADD \t\t\ta role,\\r\\n    \n      PUSH 0\t\t\ta role,\\r\\n    \n      KECCAK256 \t\t\ta role,\\r\\n    \n      PUSH 0\t\t\ta role,\\r\\n        Sp\n      DUP11 \t\t\t   S\n      PUSH FFFFFFFFFFFFFFFFFFFFFFFFFFFFFFFFFFFFFFFF\t\t\ta role,\\r\\n        Sp\n      AND \t\t\ta role,\\r\\n        Sp\n      PUSH FFFFFFFFFFFFFFFFFFFFFFFFFFFFFFFFFFFFFFFF\t\t\ta role,\\r\\n        Sp\n      AND \t\t\ta role,\\r\\n        Sp\n      DUP2 \t\t\ta role,\\r\\n        Sp\n      MSTORE \t\t\ta role,\\r\\n        Sp\n      PUSH 20\t\t\ta role,\\r\\n        Sp\n      ADD \t\t\ta role,\\r\\n        Sp\n      SWAP1 \t\t\ta role,\\r\\n        Sp\n      DUP2 \t\t\ta role,\\r\\n        Sp\n      MSTORE \t\t\ta role,\\r\\n        Sp\n      PUSH 20\t\t\ta role,\\r\\n        Sp\n      ADD \t\t\ta role,\\r\\n        Sp\n      PUSH 0\t\t\ta role,\\r\\n        Sp\n      KECCAK256 \t\t\ta role,\\r\\n        Sp\n      SLOAD \t\t\ta role,\\r\\n        Sp\n      SWAP1 \t\t\t        string calldata role,\\...\n      POP \t\t\t        string calldata role,\\...\n      DUP2 \t\t\t    )\n      DUP2 \t\t\tta conditio\n      LT \t\t\tta condition\\r\\n    )\n      ISZERO \t\t\tlldata condition\\r\\n    ) publ...\n      PUSH [tag] 614\t\t\tlldata condition\\r\\n    ) publ...\n      JUMPI \t\t\tlldata condition\\r\\n    ) publ...\n      DUP9 \t\t\truct\n      DUP2 \t\t\t        IZK\n      DUP4 \t\t\terifi\n      DUP6 \t\t\t.Z\n      PUSH 40\t\t\t IZKPVerifier.ZKPRequest struc...\n      MLOAD \t\t\t IZKPVerifier.ZKPRequest struc...\n      PUSH 3DEE4C500000000000000000000000000000000000000000000000000000000\t\t\t IZKPVerifier.ZKPRequest struc...\n      DUP2 \t\t\t IZKPVerifier.ZKPRequest struc...\n      MSTORE \t\t\t IZKPVerifier.ZKPRequest struc...\n      PUSH 4\t\t\t IZKPVerifier.ZKPRequest struc...\n      ADD \t\t\t IZKPVerifier.ZKPRequest struc...\n      PUSH [tag] 615\t\t\t IZKPVerifier.ZKPRequest struc...\n      SWAP5 \t\t\t IZKPVerifier.ZKPRequest struc...\n      SWAP4 \t\t\t IZKPVerifier.ZKPRequest struc...\n      SWAP3 \t\t\t IZKPVerifier.ZKPRequest struc...\n      SWAP2 \t\t\t IZKPVerifier.ZKPRequest struc...\n      SWAP1 \t\t\t IZKPVerifier.ZKPRequest struc...\n      PUSH [tag] 616\t\t\t IZKPVerifier.ZKPRequest struc...\n      JUMP \t\t\t IZKPVerifier.ZKPRequest struc...\n    tag 615\t\t\t IZKPVerifier.ZKPRequest struc...\n      JUMPDEST \t\t\t IZKPVerifier.ZKPRequest struc...\n      PUSH 40\t\t\t IZKPVerifier.ZKPRequest struc...\n      MLOAD \t\t\t IZKPVerifier.ZKPRequest struc...\n      DUP1 \t\t\t IZKPVerifier.ZKPRequest struc...\n      SWAP2 \t\t\t IZKPVerifier.ZKPRequest struc...\n      SUB \t\t\t IZKPVerifier.ZKPRequest struc...\n      SWAP1 \t\t\t IZKPVerifier.ZKPRequest struc...\n      REVERT \t\t\t IZKPVerifier.ZKPRequest struc...\n    tag 614\t\t\tlldata condition\\r\\n    ) publ...\n      JUMPDEST \t\t\tlldata condition\\r\\n    ) publ...\n      DUP2 \t\t\tr.set\n      DUP2 \t\t\t       veri\n      SUB \t\t\t       verifier.set\n      PUSH 0\t\t\tdata\\r\\n   \n      DUP1 \t\t\tdata\\r\\n       \n      DUP6 \t\t\t  \n      DUP2 \t\t\tdata\\r\\n       \n      MSTORE \t\t\tdata\\r\\n       \n      PUSH 20\t\t\tdata\\r\\n       \n      ADD \t\t\tdata\\r\\n       \n      SWAP1 \t\t\tdata\\r\\n       \n      DUP2 \t\t\tdata\\r\\n       \n      MSTORE \t\t\tdata\\r\\n       \n      PUSH 20\t\t\tdata\\r\\n       \n      ADD \t\t\tdata\\r\\n       \n      PUSH 0\t\t\tdata\\r\\n       \n      KECCAK256 \t\t\tdata\\r\\n       \n      PUSH 0\t\t\tdata\\r\\n        });\\r\\n\n      DUP12 \t\t\t});\\r\n      PUSH FFFFFFFFFFFFFFFFFFFFFFFFFFFFFFFFFFFFFFFF\t\t\tdata\\r\\n        });\\r\\n\n      AND \t\t\tdata\\r\\n        });\\r\\n\n      PUSH FFFFFFFFFFFFFFFFFFFFFFFFFFFFFFFFFFFFFFFF\t\t\tdata\\r\\n        });\\r\\n\n      AND \t\t\tdata\\r\\n        });\\r\\n\n      DUP2 \t\t\tdata\\r\\n        });\\r\\n\n      MSTORE \t\t\tdata\\r\\n        });\\r\\n\n      PUSH 20\t\t\tdata\\r\\n        });\\r\\n\n      ADD \t\t\tdata\\r\\n        });\\r\\n\n      SWAP1 \t\t\tdata\\r\\n        });\\r\\n\n      DUP2 \t\t\tdata\\r\\n        });\\r\\n\n      MSTORE \t\t\tdata\\r\\n        });\\r\\n\n      PUSH 20\t\t\tdata\\r\\n        });\\r\\n\n      ADD \t\t\tdata\\r\\n        });\\r\\n\n      PUSH 0\t\t\tdata\\r\\n        });\\r\\n\n      KECCAK256 \t\t\tdata\\r\\n        });\\r\\n\n      DUP2 \t\t\tdata\\r\\n        });\\r\\n\\r\\n   ...\n      SWAP1 \t\t\tdata\\r\\n        });\\r\\n\\r\\n   ...\n      SSTORE \t\t\tdata\\r\\n        });\\r\\n\\r\\n   ...\n      POP \t\t\tdata\\r\\n        });\\r\\n\\r\\n   ...\n      POP \t\t\tuint256 tokenID,\\r\\n        st...\n    tag 613\t\t\tcalldata data,\\r\\n        uint...\n      JUMPDEST \t\t\tcalldata data,\\r\\n        uint...\n      PUSH 0\t\t\tI\n      PUSH FFFFFFFFFFFFFFFFFFFFFFFFFFFFFFFFFFFFFFFF\t\t\ttAndRole(tokenID\n      AND \t\t\ttAndRole(tokenID\n      DUP8 \t\t\ttA\n      PUSH FFFFFFFFFFFFFFFFFFFFFFFFFFFFFFFFFFFFFFFF\t\t\ttAndRole(tokenID\n      AND \t\t\ttAndRole(tokenID\n      EQ \t\t\ttAndRole(tokenID\n      PUSH [tag] 617\t\t\tquestAndRole(tokenID, requestI...\n      JUMPI \t\t\tquestAndRole(tokenID, requestI...\n      DUP1 \t\t\tpendi\n      PUSH 0\t\t\t\\n        \n      DUP1 \t\t\t\\n        // A\n      DUP5 \t\t\t/ \n      DUP2 \t\t\t\\n        // A\n      MSTORE \t\t\t\\n        // A\n      PUSH 20\t\t\t\\n        // A\n      ADD \t\t\t\\n        // A\n      SWAP1 \t\t\t\\n        // A\n      DUP2 \t\t\t\\n        // A\n      MSTORE \t\t\t\\n        // A\n      PUSH 20\t\t\t\\n        // A\n      ADD \t\t\t\\n        // A\n      PUSH 0\t\t\t\\n        // A\n      KECCAK256 \t\t\t\\n        // A\n      PUSH 0\t\t\t\\n        // Add t\n      DUP10 \t\t\td \n      PUSH FFFFFFFFFFFFFFFFFFFFFFFFFFFFFFFFFFFFFFFF\t\t\t\\n        // Add t\n      AND \t\t\t\\n        // Add t\n      PUSH FFFFFFFFFFFFFFFFFFFFFFFFFFFFFFFFFFFFFFFF\t\t\t\\n        // Add t\n      AND \t\t\t\\n        // Add t\n      DUP2 \t\t\t\\n        // Add t\n      MSTORE \t\t\t\\n        // Add t\n      PUSH 20\t\t\t\\n        // Add t\n      ADD \t\t\t\\n        // Add t\n      SWAP1 \t\t\t\\n        // Add t\n      DUP2 \t\t\t\\n        // Add t\n      MSTORE \t\t\t\\n        // Add t\n      PUSH 20\t\t\t\\n        // Add t\n      ADD \t\t\t\\n        // Add t\n      PUSH 0\t\t\t\\n        // Add t\n      KECCAK256 \t\t\t\\n        // Add t\n      PUSH 0\t\t\t\\n        // Add t\n      DUP3 \t\t\t\\n        // Add the spendi\n      DUP3 \t\t\t\\n        // Add the spendi\n      SLOAD \t\t\t\\n        // Add the spendi\n      PUSH [tag] 618\t\t\t\\n        // Add the spendi\n      SWAP2 \t\t\t\\n        // Add the spendi\n      SWAP1 \t\t\t\\n        // Add the spendi\n      PUSH [tag] 281\t\t\t\\n        // Add the spendi\n      JUMP \t\t\t\\n        // Add the spendi\n    tag 618\t\t\t\\n        // Add the spendi\n      JUMPDEST \t\t\t\\n        // Add the spendi\n      SWAP3 \t\t\t\\n        // Add the spendi\n      POP \t\t\t\\n        // Add the spendi\n      POP \t\t\t\\n        // Add the spendi\n      DUP2 \t\t\t\\n        // Add the spendi\n      SWAP1 \t\t\t\\n        // Add the spendi\n      SSTORE \t\t\t\\n        // Add the spendi\n      POP \t\t\t\\n        // Add the spendi\n    tag 617\t\t\tquestAndRole(tokenID, requestI...\n      JUMPDEST \t\t\tquestAndRole(tokenID, requestI...\n      POP \t\t\tierAndPM(\\r\\n        uint64 re...\n      POP \t\t\tierAndPM(\\r\\n        uint64 re...\n      DUP1 \t\t\tVer\n      PUSH [tag] 619\t\t\tVer\n      SWAP1 \t\t\tVer\n      PUSH [tag] 169\t\t\tVer\n      JUMP \t\t\tVer\n    tag 619\t\t\tVer\n      JUMPDEST \t\t\tVer\n      SWAP1 \t\t\tVer\n      POP \t\t\tVer\n      PUSH [tag] 608\t\t\t\\n    \\r\\n    function addProo...\n      JUMP \t\t\t\\n    \\r\\n    function addProo...\n    tag 609\t\t\t\\n    \\r\\n    function addProo...\n      JUMPDEST \t\t\t\\n    \\r\\n    function addProo...\n      POP \t\t\t\\n    \\r\\n    function addProo...\n      PUSH 1\t\t\tu\n      DUP4 \t\t\ts[t\n      MLOAD \t\t\ts[tokenID]\n      SUB \t\t\ts[tokenID][requ\n      PUSH [tag] 620\t\t\ttions[tokenID][requestId] = Sp...\n      JUMPI \t\t\ttions[tokenID][requestId] = Sp...\n      PUSH 0\t\t\tgCondition\n      PUSH [tag] 621\t\t\t\\n            attribute: c\n      PUSH 0\t\t\t \n      DUP6 \t\t\t\\n  \n      PUSH [tag] 340\t\t\t\\n            attribute\n      SWAP1 \t\t\t\\n            attribute\n      SWAP2 \t\t\t\\n            attribute: c\n      SWAP1 \t\t\t\\n            attribute: c\n      PUSH FFFFFFFF\t\t\t\\n            attribute: c\n      AND \t\t\t\\n            attribute: c\n      JUMP \t\t\t\\n            attribute: c\n    tag 621\t\t\t\\n            attribute: c\n      JUMPDEST \t\t\t\\n            attribute: c\n      SWAP1 \t\t\tgCondition({\\r\\n            at...\n      POP \t\t\tgCondition({\\r\\n            at...\n      PUSH 0\t\t\tbute,\\r\\n      \n      PUSH [tag] 622\t\t\t   operatorStr: condition.op\n      PUSH 0\t\t\to\n      DUP6 \t\t\t   ope\n      PUSH [tag] 340\t\t\t   operatorStr: condition\n      SWAP1 \t\t\t   operatorStr: condition\n      SWAP2 \t\t\t   operatorStr: condition.op\n      SWAP1 \t\t\t   operatorStr: condition.op\n      PUSH FFFFFFFF\t\t\t   operatorStr: condition.op\n      AND \t\t\t   operatorStr: condition.op\n      JUMP \t\t\t   operatorStr: condition.op\n    tag 622\t\t\t   operatorStr: condition.op\n      JUMPDEST \t\t\t   operatorStr: condition.op\n      SWAP1 \t\t\tbute,\\r\\n            operatorS...\n      POP \t\t\tbute,\\r\\n            operatorS...\n      DUP6 \t\t\t  \n      PUSH FFFFFFFFFFFFFFFFFFFFFFFFFFFFFFFFFFFFFFFF\t\t\t     value: condition.value\\r\\...\n      AND \t\t\t     value: condition.value\\r\\...\n      DUP8 \t\t\tue\\r\\n\n      PUSH FFFFFFFFFFFFFFFFFFFFFFFFFFFFFFFFFFFFFFFF\t\t\t     value: condition.value\\r\\...\n      AND \t\t\t     value: condition.value\\r\\...\n      DUP5 \t\t\tdition.v\n      PUSH FFFFFFFFFFFFFFFFFFFFFFFFFFFFFFFFFFFFFFFF\t\t\t     value: condition.value\\r\\...\n      AND \t\t\t     value: condition.value\\r\\...\n      PUSH C3D58168C5AE7397731D063D5BBF3D657854427343F4C083240F7AACAA2D0F62\t\t\t     value: condition.value\\r\\...\n      DUP6 \t\t\t  \n      DUP6 \t\t\t;\\r\\n  \n      PUSH 40\t\t\t     value: condition.value\\r\\...\n      MLOAD \t\t\t     value: condition.value\\r\\...\n      PUSH [tag] 623\t\t\t     value: condition.value\\r\\...\n      SWAP3 \t\t\t     value: condition.value\\r\\...\n      SWAP2 \t\t\t     value: condition.value\\r\\...\n      SWAP1 \t\t\t     value: condition.value\\r\\...\n      PUSH [tag] 329\t\t\t     value: condition.value\\r\\...\n      JUMP \t\t\t     value: condition.value\\r\\...\n    tag 623\t\t\t     value: condition.value\\r\\...\n      JUMPDEST \t\t\t     value: condition.value\\r\\...\n      PUSH 40\t\t\t     value: condition.value\\r\\...\n      MLOAD \t\t\t     value: condition.value\\r\\...\n      DUP1 \t\t\t     value: condition.value\\r\\...\n      SWAP2 \t\t\t     value: condition.value\\r\\...\n      SUB \t\t\t     value: condition.value\\r\\...\n      SWAP1 \t\t\t     value: condition.value\\r\\...\n      LOG4 \t\t\t     value: condition.value\\r\\...\n      POP \t\t\ttId] = SpendingCondition({\\r\\n...\n      POP \t\t\ttId] = SpendingCondition({\\r\\n...\n      PUSH [tag] 624\t\t\ttions[tokenID][requestId] = Sp...\n      JUMP \t\t\ttions[tokenID][requestId] = Sp...\n    tag 620\t\t\ttions[tokenID][requestId] = Sp...\n      JUMPDEST \t\t\ttions[tokenID][requestId] = Sp...\n      DUP4 \t\t\t  \n      PUSH FFFFFFFFFFFFFFFFFFFFFFFFFFFFFFFFFFFFFFFF\t\t\test and the address by ID.\\r\\n...\n      AND \t\t\test and the address by ID.\\r\\n...\n      DUP6 \t\t\tD.\\r\\n\n      PUSH FFFFFFFFFFFFFFFFFFFFFFFFFFFFFFFFFFFFFFFF\t\t\test and the address by ID.\\r\\n...\n      AND \t\t\test and the address by ID.\\r\\n...\n      DUP3 \t\t\tdress by\n      PUSH FFFFFFFFFFFFFFFFFFFFFFFFFFFFFFFFFFFFFFFF\t\t\test and the address by ID.\\r\\n...\n      AND \t\t\test and the address by ID.\\r\\n...\n      PUSH 4A39DC06D4C0DBC64B70AF90FD698A233A518AA5D07E595D983B8C0526C8F7FB\t\t\test and the address by ID.\\r\\n...\n      DUP7 \t\t\t Th\n      DUP7 \t\t\tarray \n      PUSH 40\t\t\test and the address by ID.\\r\\n...\n      MLOAD \t\t\test and the address by ID.\\r\\n...\n      PUSH [tag] 625\t\t\test and the address by ID.\\r\\n...\n      SWAP3 \t\t\test and the address by ID.\\r\\n...\n      SWAP2 \t\t\test and the address by ID.\\r\\n...\n      SWAP1 \t\t\test and the address by ID.\\r\\n...\n      PUSH [tag] 626\t\t\test and the address by ID.\\r\\n...\n      JUMP \t\t\test and the address by ID.\\r\\n...\n    tag 625\t\t\test and the address by ID.\\r\\n...\n      JUMPDEST \t\t\test and the address by ID.\\r\\n...\n      PUSH 40\t\t\test and the address by ID.\\r\\n...\n      MLOAD \t\t\test and the address by ID.\\r\\n...\n      DUP1 \t\t\test and the address by ID.\\r\\n...\n      SWAP2 \t\t\test and the address by ID.\\r\\n...\n      SUB \t\t\test and the address by ID.\\r\\n...\n      SWAP1 \t\t\test and the address by ID.\\r\\n...\n      LOG4 \t\t\test and the address by ID.\\r\\n...\n    tag 624\t\t\ttions[tokenID][requestId] = Sp...\n      JUMPDEST \t\t\ttions[tokenID][requestId] = Sp...\n      POP \t\t\t)),\\r\\n            \"Role must ...\n      POP \t\t\ts(role)) == keccak256(bytes(\"s...\n      POP \t\t\ts(role)) == keccak256(bytes(\"s...\n      POP \t\t\ts(role)) == keccak256(bytes(\"s...\n      POP \t\t\ts(role)) == keccak256(bytes(\"s...\n      JUMP \t\t\ts(role)) == keccak256(bytes(\"s...\n    tag 587\t\t\tess is an admin.\\r\\n    functi...\n      JUMPDEST \t\t\tess is an admin.\\r\\n    functi...\n      PUSH 0\t\t\t \n      DUP5 \t\t\tur\n      PUSH FFFFFFFFFFFFFFFFFFFFFFFFFFFFFFFFFFFFFFFF\t\t\turn true;\\r\\n   \n      AND \t\t\turn true;\\r\\n   \n      EXTCODESIZE \t\t\turn true;\\r\\n   \n      GT \t\t\turn true;\\r\\n       \n      ISZERO \t\t\t return true;\\r\\n            }...\n      PUSH [tag] 628\t\t\t return true;\\r\\n            }...\n      JUMPI \t\t\t return true;\\r\\n            }...\n      DUP4 \t\t\tse\n      PUSH FFFFFFFFFFFFFFFFFFFFFFFFFFFFFFFFFFFFFFFF\t\t\t       return false;\\r\\n    }\\...\n      AND \t\t\t       return false;\\r\\n    }\\...\n      PUSH F23A6E61\t\t\t       return false;\\r\\n    }\\...\n      DUP8 \t\t\tunction \n      DUP8 \t\t\t add\n      DUP7 \t\t\tn \n      DUP7 \t\t\tmin a\n      DUP7 \t\t\tress\n      PUSH 40\t\t\t       return false;\\r\\n    }\\...\n      MLOAD \t\t\t       return false;\\r\\n    }\\...\n      DUP7 \t\t\t       return false;\\r\\n    }\\...\n      PUSH FFFFFFFF\t\t\t       return false;\\r\\n    }\\...\n      AND \t\t\t       return false;\\r\\n    }\\...\n      PUSH E0\t\t\t       return false;\\r\\n    }\\...\n      SHL \t\t\t       return false;\\r\\n    }\\...\n      DUP2 \t\t\t       return false;\\r\\n    }\\...\n      MSTORE \t\t\t       return false;\\r\\n    }\\...\n      PUSH 4\t\t\t       return false;\\r\\n    }\\...\n      ADD \t\t\t       return false;\\r\\n    }\\...\n      PUSH [tag] 629\t\t\t       return false;\\r\\n    }\\...\n      SWAP6 \t\t\t       return false;\\r\\n    }\\...\n      SWAP5 \t\t\t       return false;\\r\\n    }\\...\n      SWAP4 \t\t\t       return false;\\r\\n    }\\...\n      SWAP3 \t\t\t       return false;\\r\\n    }\\...\n      SWAP2 \t\t\t       return false;\\r\\n    }\\...\n      SWAP1 \t\t\t       return false;\\r\\n    }\\...\n      PUSH [tag] 630\t\t\t       return false;\\r\\n    }\\...\n      JUMP \t\t\t       return false;\\r\\n    }\\...\n    tag 629\t\t\t       return false;\\r\\n    }\\...\n      JUMPDEST \t\t\t       return false;\\r\\n    }\\...\n      PUSH 20\t\t\t       return false;\\r\\n    }\\...\n      PUSH 40\t\t\t       return false;\\r\\n    }\\...\n      MLOAD \t\t\t       return false;\\r\\n    }\\...\n      DUP1 \t\t\t       return false;\\r\\n    }\\...\n      DUP4 \t\t\t       return false;\\r\\n    }\\...\n      SUB \t\t\t       return false;\\r\\n    }\\...\n      DUP2 \t\t\t       return false;\\r\\n    }\\...\n      PUSH 0\t\t\t       return false;\\r\\n    }\\...\n      DUP8 \t\t\t       return false;\\r\\n    }\\...\n      GAS \t\t\t       return false;\\r\\n    }\\...\n      CALL \t\t\t       return false;\\r\\n    }\\...\n      SWAP3 \t\t\t       return false;\\r\\n    }\\...\n      POP \t\t\t       return false;\\r\\n    }\\...\n      POP \t\t\t       return false;\\r\\n    }\\...\n      POP \t\t\t       return false;\\r\\n    }\\...\n      DUP1 \t\t\t       return false;\\r\\n    }\\...\n      ISZERO \t\t\t       return false;\\r\\n    }\\...\n      PUSH [tag] 631\t\t\t       return false;\\r\\n    }\\...\n      JUMPI \t\t\t       return false;\\r\\n    }\\...\n      POP \t\t\t       return false;\\r\\n    }\\...\n      PUSH 40\t\t\t       return false;\\r\\n    }\\...\n      MLOAD \t\t\t       return false;\\r\\n    }\\...\n      RETURNDATASIZE \t\t\t       return false;\\r\\n    }\\...\n      PUSH 1F\t\t\t       return false;\\r\\n    }\\...\n      NOT \t\t\t       return false;\\r\\n    }\\...\n      PUSH 1F\t\t\t       return false;\\r\\n    }\\...\n      DUP3 \t\t\t       return false;\\r\\n    }\\...\n      ADD \t\t\t       return false;\\r\\n    }\\...\n      AND \t\t\t       return false;\\r\\n    }\\...\n      DUP3 \t\t\t       return false;\\r\\n    }\\...\n      ADD \t\t\t       return false;\\r\\n    }\\...\n      DUP1 \t\t\t       return false;\\r\\n    }\\...\n      PUSH 40\t\t\t       return false;\\r\\n    }\\...\n      MSTORE \t\t\t       return false;\\r\\n    }\\...\n      POP \t\t\t       return false;\\r\\n    }\\...\n      DUP2 \t\t\t       return false;\\r\\n    }\\...\n      ADD \t\t\t       return false;\\r\\n    }\\...\n      SWAP1 \t\t\t       return false;\\r\\n    }\\...\n      PUSH [tag] 632\t\t\t       return false;\\r\\n    }\\...\n      SWAP2 \t\t\t       return false;\\r\\n    }\\...\n      SWAP1 \t\t\t       return false;\\r\\n    }\\...\n      PUSH [tag] 633\t\t\t       return false;\\r\\n    }\\...\n      JUMP \t\t\t       return false;\\r\\n    }\\...\n    tag 632\t\t\t       return false;\\r\\n    }\\...\n      JUMPDEST \t\t\t       return false;\\r\\n    }\\...\n      PUSH 1\t\t\t       return false;\\r\\n    }\\...\n    tag 631\t\t\t       return false;\\r\\n    }\\...\n      JUMPDEST \t\t\t       return false;\\r\\n    }\\...\n      PUSH [tag] 634\t\t\t}\\r\\n        return false;\\r\\n...\n      JUMPI \t\t\t}\\r\\n        return false;\\r\\n...\n      RETURNDATASIZE \t\t\t}\\r\\n        return false;\\r\\n...\n      DUP1 \t\t\t}\\r\\n        return false;\\r\\n...\n      PUSH 0\t\t\t}\\r\\n        return false;\\r\\n...\n      DUP2 \t\t\t}\\r\\n        return false;\\r\\n...\n      EQ \t\t\t}\\r\\n        return false;\\r\\n...\n      PUSH [tag] 639\t\t\t}\\r\\n        return false;\\r\\n...\n      JUMPI \t\t\t}\\r\\n        return false;\\r\\n...\n      PUSH 40\t\t\t}\\r\\n        return false;\\r\\n...\n      MLOAD \t\t\t}\\r\\n        return false;\\r\\n...\n      SWAP2 \t\t\t}\\r\\n        return false;\\r\\n...\n      POP \t\t\t}\\r\\n        return false;\\r\\n...\n      PUSH 1F\t\t\t}\\r\\n        return false;\\r\\n...\n      NOT \t\t\t}\\r\\n        return false;\\r\\n...\n      PUSH 3F\t\t\t}\\r\\n        return false;\\r\\n...\n      RETURNDATASIZE \t\t\t}\\r\\n        return false;\\r\\n...\n      ADD \t\t\t}\\r\\n        return false;\\r\\n...\n      AND \t\t\t}\\r\\n        return false;\\r\\n...\n      DUP3 \t\t\t}\\r\\n        return false;\\r\\n...\n      ADD \t\t\t}\\r\\n        return false;\\r\\n...\n      PUSH 40\t\t\t}\\r\\n        return false;\\r\\n...\n      MSTORE \t\t\t}\\r\\n        return false;\\r\\n...\n      RETURNDATASIZE \t\t\t}\\r\\n        return false;\\r\\n...\n      DUP3 \t\t\t}\\r\\n        return false;\\r\\n...\n      MSTORE \t\t\t}\\r\\n        return false;\\r\\n...\n      RETURNDATASIZE \t\t\t}\\r\\n        return false;\\r\\n...\n      PUSH 0\t\t\t}\\r\\n        return false;\\r\\n...\n      PUSH 20\t\t\t}\\r\\n        return false;\\r\\n...\n      DUP5 \t\t\t}\\r\\n        return false;\\r\\n...\n      ADD \t\t\t}\\r\\n        return false;\\r\\n...\n      RETURNDATACOPY \t\t\t}\\r\\n        return false;\\r\\n...\n      PUSH [tag] 638\t\t\t}\\r\\n        return false;\\r\\n...\n      JUMP \t\t\t}\\r\\n        return false;\\r\\n...\n    tag 639\t\t\t}\\r\\n        return false;\\r\\n...\n      JUMPDEST \t\t\t}\\r\\n        return false;\\r\\n...\n      PUSH 60\t\t\t}\\r\\n        return false;\\r\\n...\n      SWAP2 \t\t\t}\\r\\n        return false;\\r\\n...\n      POP \t\t\t}\\r\\n        return false;\\r\\n...\n    tag 638\t\t\t}\\r\\n        return false;\\r\\n...\n      JUMPDEST \t\t\t}\\r\\n        return false;\\r\\n...\n      POP \t\t\t}\\r\\n        return false;\\r\\n...\n      PUSH 0\t\t\to\n      DUP2 \t\t\tthe ow\n      MLOAD \t\t\tthe owner can\n      SUB \t\t\tthe owner can remo\n      PUSH [tag] 640\t\t\tnly the owner can remove.\\r\\n ...\n      JUMPI \t\t\tnly the owner can remove.\\r\\n ...\n      DUP5 \t\t\t i\n      PUSH 40\t\t\tmins.length;\\r\\n        for (u...\n      MLOAD \t\t\tmins.length;\\r\\n        for (u...\n      PUSH 57F447CE00000000000000000000000000000000000000000000000000000000\t\t\tmins.length;\\r\\n        for (u...\n      DUP2 \t\t\tmins.length;\\r\\n        for (u...\n      MSTORE \t\t\tmins.length;\\r\\n        for (u...\n      PUSH 4\t\t\tmins.length;\\r\\n        for (u...\n      ADD \t\t\tmins.length;\\r\\n        for (u...\n      PUSH [tag] 641\t\t\tmins.length;\\r\\n        for (u...\n      SWAP2 \t\t\tmins.length;\\r\\n        for (u...\n      SWAP1 \t\t\tmins.length;\\r\\n        for (u...\n      PUSH [tag] 113\t\t\tmins.length;\\r\\n        for (u...\n      JUMP \t\t\tmins.length;\\r\\n        for (u...\n    tag 641\t\t\tmins.length;\\r\\n        for (u...\n      JUMPDEST \t\t\tmins.length;\\r\\n        for (u...\n      PUSH 40\t\t\tmins.length;\\r\\n        for (u...\n      MLOAD \t\t\tmins.length;\\r\\n        for (u...\n      DUP1 \t\t\tmins.length;\\r\\n        for (u...\n      SWAP2 \t\t\tmins.length;\\r\\n        for (u...\n      SUB \t\t\tmins.length;\\r\\n        for (u...\n      SWAP1 \t\t\tmins.length;\\r\\n        for (u...\n      REVERT \t\t\tmins.length;\\r\\n        for (u...\n    tag 640\t\t\tnly the owner can remove.\\r\\n ...\n      JUMPDEST \t\t\tnly the owner can remove.\\r\\n ...\n      DUP1 \t\t\t);\\r\\n  \n      MLOAD \t\t\ts.pop();\\r\\n   \n      DUP2 \t\t\t    ad\n      PUSH 20\t\t\t  \n      ADD \t\t\t            adm\n      REVERT \t\t\t;\\r\\n                admins.po...\n    tag 634\t\t\t}\\r\\n        return false;\\r\\n...\n      JUMPDEST \t\t\t}\\r\\n        return false;\\r\\n...\n      PUSH F23A6E61\t\t\tn) public onlyOwner {\\r\\n     ...\n      PUSH E0\t\t\tn) public onlyOwner {\\r\\n     ...\n      SHL \t\t\tn) public onlyOwner {\\r\\n     ...\n      PUSH FFFFFFFFFFFFFFFFFFFFFFFFFFFFFFFFFFFFFFFFFFFFFFFFFFFFFFFF\t\t\tddress _admin) public onlyOwne...\n      NOT \t\t\tddress _admin) public onlyOwne...\n      AND \t\t\tddress _admin) public onlyOwne...\n      DUP2 \t\t\tddress _\n      PUSH FFFFFFFFFFFFFFFFFFFFFFFFFFFFFFFFFFFFFFFFFFFFFFFFFFFFFFFF\t\t\tddress _admin) public onlyOwne...\n      NOT \t\t\tddress _admin) public onlyOwne...\n      AND \t\t\tddress _admin) public onlyOwne...\n      EQ \t\t\tddress _admin) public onlyOwne...\n      PUSH [tag] 644\t\t\tin(address _admin) public only...\n      JUMPI \t\t\tin(address _admin) public only...\n      DUP5 \t\t\t  \n      PUSH 40\t\t\tn), \"Address is already an adm...\n      MLOAD \t\t\tn), \"Address is already an adm...\n      PUSH 57F447CE00000000000000000000000000000000000000000000000000000000\t\t\tn), \"Address is already an adm...\n      DUP2 \t\t\tn), \"Address is already an adm...\n      MSTORE \t\t\tn), \"Address is already an adm...\n      PUSH 4\t\t\tn), \"Address is already an adm...\n      ADD \t\t\tn), \"Address is already an adm...\n      PUSH [tag] 645\t\t\tn), \"Address is already an adm...\n      SWAP2 \t\t\tn), \"Address is already an adm...\n      SWAP1 \t\t\tn), \"Address is already an adm...\n      PUSH [tag] 113\t\t\tn), \"Address is already an adm...\n      JUMP \t\t\tn), \"Address is already an adm...\n    tag 645\t\t\tn), \"Address is already an adm...\n      JUMPDEST \t\t\tn), \"Address is already an adm...\n      PUSH 40\t\t\tn), \"Address is already an adm...\n      MLOAD \t\t\tn), \"Address is already an adm...\n      DUP1 \t\t\tn), \"Address is already an adm...\n      SWAP2 \t\t\tn), \"Address is already an adm...\n      SUB \t\t\tn), \"Address is already an adm...\n      SWAP1 \t\t\tn), \"Address is already an adm...\n      REVERT \t\t\tn), \"Address is already an adm...\n    tag 644\t\t\tin(address _admin) public only...\n      JUMPDEST \t\t\tin(address _admin) public only...\n      POP \t\t\tOnly the owner can add.\\r\\n   ...\n    tag 628\t\t\t return true;\\r\\n            }...\n      JUMPDEST \t\t\t return true;\\r\\n            }...\n      POP \t\t\tess is an admin.\\r\\n    functi...\n      POP \t\t\tess is an admin.\\r\\n    functi...\n      POP \t\t\tess is an admin.\\r\\n    functi...\n      POP \t\t\tess is an admin.\\r\\n    functi...\n      POP \t\t\tess is an admin.\\r\\n    functi...\n      POP \t\t\tess is an admin.\\r\\n    functi...\n      JUMP \t\t\tess is an admin.\\r\\n    functi...\n    tag 590\t\t\t\\n\\r\\n    // Mapping from toke...\n      JUMPDEST \t\t\t\\n\\r\\n    // Mapping from toke...\n      PUSH 0\t\t\td\n      DUP5 \t\t\tle\n      PUSH FFFFFFFFFFFFFFFFFFFFFFFFFFFFFFFFFFFFFFFF\t\t\tle (a string '\n      AND \t\t\tle (a string '\n      EXTCODESIZE \t\t\tle (a string '\n      GT \t\t\tle (a string 'send\n      ISZERO \t\t\ts role (a string 'sender' or '...\n      PUSH [tag] 647\t\t\ts role (a string 'sender' or '...\n      JUMPI \t\t\ts role (a string 'sender' or '...\n      DUP4 \t\t\t (\n      PUSH FFFFFFFFFFFFFFFFFFFFFFFFFFFFFFFFFFFFFFFF\t\t\t\\n    // tokenID → (proofReque...\n      AND \t\t\t\\n    // tokenID → (proofReque...\n      PUSH BC197C81\t\t\t\\n    // tokenID → (proofReque...\n      DUP8 \t\t\t or 'rec\n      DUP8 \t\t\tver'\n      DUP7 \t\t\t\\n  \n      DUP7 \t\t\tmappin\n      DUP7 \t\t\tuint\n      PUSH 40\t\t\t\\n    // tokenID → (proofReque...\n      MLOAD \t\t\t\\n    // tokenID → (proofReque...\n      DUP7 \t\t\t\\n    // tokenID → (proofReque...\n      PUSH FFFFFFFF\t\t\t\\n    // tokenID → (proofReque...\n      AND \t\t\t\\n    // tokenID → (proofReque...\n      PUSH E0\t\t\t\\n    // tokenID → (proofReque...\n      SHL \t\t\t\\n    // tokenID → (proofReque...\n      DUP2 \t\t\t\\n    // tokenID → (proofReque...\n      MSTORE \t\t\t\\n    // tokenID → (proofReque...\n      PUSH 4\t\t\t\\n    // tokenID → (proofReque...\n      ADD \t\t\t\\n    // tokenID → (proofReque...\n      PUSH [tag] 648\t\t\t\\n    // tokenID → (proofReque...\n      SWAP6 \t\t\t\\n    // tokenID → (proofReque...\n      SWAP5 \t\t\t\\n    // tokenID → (proofReque...\n      SWAP4 \t\t\t\\n    // tokenID → (proofReque...\n      SWAP3 \t\t\t\\n    // tokenID → (proofReque...\n      SWAP2 \t\t\t\\n    // tokenID → (proofReque...\n      SWAP1 \t\t\t\\n    // tokenID → (proofReque...\n      PUSH [tag] 649\t\t\t\\n    // tokenID → (proofReque...\n      JUMP \t\t\t\\n    // tokenID → (proofReque...\n    tag 648\t\t\t\\n    // tokenID → (proofReque...\n      JUMPDEST \t\t\t\\n    // tokenID → (proofReque...\n      PUSH 20\t\t\t\\n    // tokenID → (proofReque...\n      PUSH 40\t\t\t\\n    // tokenID → (proofReque...\n      MLOAD \t\t\t\\n    // tokenID → (proofReque...\n      DUP1 \t\t\t\\n    // tokenID → (proofReque...\n      DUP4 \t\t\t\\n    // tokenID → (proofReque...\n      SUB \t\t\t\\n    // tokenID → (proofReque...\n      DUP2 \t\t\t\\n    // tokenID → (proofReque...\n      PUSH 0\t\t\t\\n    // tokenID → (proofReque...\n      DUP8 \t\t\t\\n    // tokenID → (proofReque...\n      GAS \t\t\t\\n    // tokenID → (proofReque...\n      CALL \t\t\t\\n    // tokenID → (proofReque...\n      SWAP3 \t\t\t\\n    // tokenID → (proofReque...\n      POP \t\t\t\\n    // tokenID → (proofReque...\n      POP \t\t\t\\n    // tokenID → (proofReque...\n      POP \t\t\t\\n    // tokenID → (proofReque...\n      DUP1 \t\t\t\\n    // tokenID → (proofReque...\n      ISZERO \t\t\t\\n    // tokenID → (proofReque...\n      PUSH [tag] 650\t\t\t\\n    // tokenID → (proofReque...\n      JUMPI \t\t\t\\n    // tokenID → (proofReque...\n      POP \t\t\t\\n    // tokenID → (proofReque...\n      PUSH 40\t\t\t\\n    // tokenID → (proofReque...\n      MLOAD \t\t\t\\n    // tokenID → (proofReque...\n      RETURNDATASIZE \t\t\t\\n    // tokenID → (proofReque...\n      PUSH 1F\t\t\t\\n    // tokenID → (proofReque...\n      NOT \t\t\t\\n    // tokenID → (proofReque...\n      PUSH 1F\t\t\t\\n    // tokenID → (proofReque...\n      DUP3 \t\t\t\\n    // tokenID → (proofReque...\n      ADD \t\t\t\\n    // tokenID → (proofReque...\n      AND \t\t\t\\n    // tokenID → (proofReque...\n      DUP3 \t\t\t\\n    // tokenID → (proofReque...\n      ADD \t\t\t\\n    // tokenID → (proofReque...\n      DUP1 \t\t\t\\n    // tokenID → (proofReque...\n      PUSH 40\t\t\t\\n    // tokenID → (proofReque...\n      MSTORE \t\t\t\\n    // tokenID → (proofReque...\n      POP \t\t\t\\n    // tokenID → (proofReque...\n      DUP2 \t\t\t\\n    // tokenID → (proofReque...\n      ADD \t\t\t\\n    // tokenID → (proofReque...\n      SWAP1 \t\t\t\\n    // tokenID → (proofReque...\n      PUSH [tag] 651\t\t\t\\n    // tokenID → (proofReque...\n      SWAP2 \t\t\t\\n    // tokenID → (proofReque...\n      SWAP1 \t\t\t\\n    // tokenID → (proofReque...\n      PUSH [tag] 633\t\t\t\\n    // tokenID → (proofReque...\n      JUMP \t\t\t\\n    // tokenID → (proofReque...\n    tag 651\t\t\t\\n    // tokenID → (proofReque...\n      JUMPDEST \t\t\t\\n    // tokenID → (proofReque...\n      PUSH 1\t\t\t\\n    // tokenID → (proofReque...\n    tag 650\t\t\t\\n    // tokenID → (proofReque...\n      JUMPDEST \t\t\t\\n    // tokenID → (proofReque...\n      PUSH [tag] 652\t\t\t').\\r\\n    // tokenID → (proof...\n      JUMPI \t\t\t').\\r\\n    // tokenID → (proof...\n      RETURNDATASIZE \t\t\t').\\r\\n    // tokenID → (proof...\n      DUP1 \t\t\t').\\r\\n    // tokenID → (proof...\n      PUSH 0\t\t\t').\\r\\n    // tokenID → (proof...\n      DUP2 \t\t\t').\\r\\n    // tokenID → (proof...\n      EQ \t\t\t').\\r\\n    // tokenID → (proof...\n      PUSH [tag] 657\t\t\t').\\r\\n    // tokenID → (proof...\n      JUMPI \t\t\t').\\r\\n    // tokenID → (proof...\n      PUSH 40\t\t\t').\\r\\n    // tokenID → (proof...\n      MLOAD \t\t\t').\\r\\n    // tokenID → (proof...\n      SWAP2 \t\t\t').\\r\\n    // tokenID → (proof...\n      POP \t\t\t').\\r\\n    // tokenID → (proof...\n      PUSH 1F\t\t\t').\\r\\n    // tokenID → (proof...\n      NOT \t\t\t').\\r\\n    // tokenID → (proof...\n      PUSH 3F\t\t\t').\\r\\n    // tokenID → (proof...\n      RETURNDATASIZE \t\t\t').\\r\\n    // tokenID → (proof...\n      ADD \t\t\t').\\r\\n    // tokenID → (proof...\n      AND \t\t\t').\\r\\n    // tokenID → (proof...\n      DUP3 \t\t\t').\\r\\n    // tokenID → (proof...\n      ADD \t\t\t').\\r\\n    // tokenID → (proof...\n      PUSH 40\t\t\t').\\r\\n    // tokenID → (proof...\n      MSTORE \t\t\t').\\r\\n    // tokenID → (proof...\n      RETURNDATASIZE \t\t\t').\\r\\n    // tokenID → (proof...\n      DUP3 \t\t\t').\\r\\n    // tokenID → (proof...\n      MSTORE \t\t\t').\\r\\n    // tokenID → (proof...\n      RETURNDATASIZE \t\t\t').\\r\\n    // tokenID → (proof...\n      PUSH 0\t\t\t').\\r\\n    // tokenID → (proof...\n      PUSH 20\t\t\t').\\r\\n    // tokenID → (proof...\n      DUP5 \t\t\t').\\r\\n    // tokenID → (proof...\n      ADD \t\t\t').\\r\\n    // tokenID → (proof...\n      RETURNDATACOPY \t\t\t').\\r\\n    // tokenID → (proof...\n      PUSH [tag] 656\t\t\t').\\r\\n    // tokenID → (proof...\n      JUMP \t\t\t').\\r\\n    // tokenID → (proof...\n    tag 657\t\t\t').\\r\\n    // tokenID → (proof...\n      JUMPDEST \t\t\t').\\r\\n    // tokenID → (proof...\n      PUSH 60\t\t\t').\\r\\n    // tokenID → (proof...\n      SWAP2 \t\t\t').\\r\\n    // tokenID → (proof...\n      POP \t\t\t').\\r\\n    // tokenID → (proof...\n    tag 656\t\t\t').\\r\\n    // tokenID → (proof...\n      JUMPDEST \t\t\t').\\r\\n    // tokenID → (proof...\n      POP \t\t\t').\\r\\n    // tokenID → (proof...\n      PUSH 0\t\t\tn\n      DUP2 \t\t\tquestI\n      MLOAD \t\t\tquestID => Sp\n      SUB \t\t\tquestID => Spendin\n      PUSH [tag] 658\t\t\tofRequestID => SpendingConditi...\n      JUMPI \t\t\tofRequestID => SpendingConditi...\n      DUP5 \t\t\tor\n      PUSH 40\t\t\tngConditions;\\r\\n\\r\\n    // An...\n      MLOAD \t\t\tngConditions;\\r\\n\\r\\n    // An...\n      PUSH 57F447CE00000000000000000000000000000000000000000000000000000000\t\t\tngConditions;\\r\\n\\r\\n    // An...\n      DUP2 \t\t\tngConditions;\\r\\n\\r\\n    // An...\n      MSTORE \t\t\tngConditions;\\r\\n\\r\\n    // An...\n      PUSH 4\t\t\tngConditions;\\r\\n\\r\\n    // An...\n      ADD \t\t\tngConditions;\\r\\n\\r\\n    // An...\n      PUSH [tag] 659\t\t\tngConditions;\\r\\n\\r\\n    // An...\n      SWAP2 \t\t\tngConditions;\\r\\n\\r\\n    // An...\n      SWAP1 \t\t\tngConditions;\\r\\n\\r\\n    // An...\n      PUSH [tag] 113\t\t\tngConditions;\\r\\n\\r\\n    // An...\n      JUMP \t\t\tngConditions;\\r\\n\\r\\n    // An...\n    tag 659\t\t\tngConditions;\\r\\n\\r\\n    // An...\n      JUMPDEST \t\t\tngConditions;\\r\\n\\r\\n    // An...\n      PUSH 40\t\t\tngConditions;\\r\\n\\r\\n    // An...\n      MLOAD \t\t\tngConditions;\\r\\n\\r\\n    // An...\n      DUP1 \t\t\tngConditions;\\r\\n\\r\\n    // An...\n      SWAP2 \t\t\tngConditions;\\r\\n\\r\\n    // An...\n      SUB \t\t\tngConditions;\\r\\n\\r\\n    // An...\n      SWAP1 \t\t\tngConditions;\\r\\n\\r\\n    // An...\n      REVERT \t\t\tngConditions;\\r\\n\\r\\n    // An...\n    tag 658\t\t\tofRequestID => SpendingConditi...\n      JUMPDEST \t\t\tofRequestID => SpendingConditi...\n      DUP1 \t\t\tfor a \n      MLOAD \t\t\ttions for a g\n      DUP2 \t\t\ting co\n      PUSH 20\t\t\tpe\n      ADD \t\t\tll spending con\n      REVERT \t\t\te Get all spending conditions ...\n    tag 652\t\t\t').\\r\\n    // tokenID → (proof...\n      JUMPDEST \t\t\t').\\r\\n    // tokenID → (proof...\n      PUSH BC197C81\t\t\tesent a spending condition\\r\\n...\n      PUSH E0\t\t\tesent a spending condition\\r\\n...\n      SHL \t\t\tesent a spending condition\\r\\n...\n      PUSH FFFFFFFFFFFFFFFFFFFFFFFFFFFFFFFFFFFFFFFFFFFFFFFFFFFFFFFF\t\t\truct to represent a spending c...\n      NOT \t\t\truct to represent a spending c...\n      AND \t\t\truct to represent a spending c...\n      DUP2 \t\t\truct to \n      PUSH FFFFFFFFFFFFFFFFFFFFFFFFFFFFFFFFFFFFFFFFFFFFFFFFFFFFFFFF\t\t\truct to represent a spending c...\n      NOT \t\t\truct to represent a spending c...\n      AND \t\t\truct to represent a spending c...\n      EQ \t\t\truct to represent a spending c...\n      PUSH [tag] 662\t\t\t/ Struct to represent a spendi...\n      JUMPI \t\t\t/ Struct to represent a spendi...\n      DUP5 \t\t\tap\n      PUSH 40\t\t\t      string value;\\r\\n    }\\r...\n      MLOAD \t\t\t      string value;\\r\\n    }\\r...\n      PUSH 57F447CE00000000000000000000000000000000000000000000000000000000\t\t\t      string value;\\r\\n    }\\r...\n      DUP2 \t\t\t      string value;\\r\\n    }\\r...\n      MSTORE \t\t\t      string value;\\r\\n    }\\r...\n      PUSH 4\t\t\t      string value;\\r\\n    }\\r...\n      ADD \t\t\t      string value;\\r\\n    }\\r...\n      PUSH [tag] 663\t\t\t      string value;\\r\\n    }\\r...\n      SWAP2 \t\t\t      string value;\\r\\n    }\\r...\n      SWAP1 \t\t\t      string value;\\r\\n    }\\r...\n      PUSH [tag] 113\t\t\t      string value;\\r\\n    }\\r...\n      JUMP \t\t\t      string value;\\r\\n    }\\r...\n    tag 663\t\t\t      string value;\\r\\n    }\\r...\n      JUMPDEST \t\t\t      string value;\\r\\n    }\\r...\n      PUSH 40\t\t\t      string value;\\r\\n    }\\r...\n      MLOAD \t\t\t      string value;\\r\\n    }\\r...\n      DUP1 \t\t\t      string value;\\r\\n    }\\r...\n      SWAP2 \t\t\t      string value;\\r\\n    }\\r...\n      SUB \t\t\t      string value;\\r\\n    }\\r...\n      SWAP1 \t\t\t      string value;\\r\\n    }\\r...\n      REVERT \t\t\t      string value;\\r\\n    }\\r...\n    tag 662\t\t\t/ Struct to represent a spendi...\n      JUMPDEST \t\t\t/ Struct to represent a spendi...\n      POP \t\t\t6 => mapping(uint64 => string)...\n    tag 647\t\t\ts role (a string 'sender' or '...\n      JUMPDEST \t\t\ts role (a string 'sender' or '...\n      POP \t\t\t\\n\\r\\n    // Mapping from toke...\n      POP \t\t\t\\n\\r\\n    // Mapping from toke...\n      POP \t\t\t\\n\\r\\n    // Mapping from toke...\n      POP \t\t\t\\n\\r\\n    // Mapping from toke...\n      POP \t\t\t\\n\\r\\n    // Mapping from toke...\n      POP \t\t\t\\n\\r\\n    // Mapping from toke...\n      JUMP \t\t\t\\n\\r\\n    // Mapping from toke...\n    tag 180\t\t\t\n      JUMPDEST \t\t\t\n      PUSH 40\t\t\t\n      MLOAD \t\t\t\n      DUP1 \t\t\t\n      PUSH 60\t\t\t\n      ADD \t\t\t\n      PUSH 40\t\t\t\n      MSTORE \t\t\t\n      DUP1 \t\t\t\n      PUSH 60\t\t\t\n      DUP2 \t\t\t\n      MSTORE \t\t\t\n      PUSH 20\t\t\t\n      ADD \t\t\t\n      PUSH 60\t\t\t\n      DUP2 \t\t\t\n      MSTORE \t\t\t\n      PUSH 20\t\t\t\n      ADD \t\t\t\n      PUSH 60\t\t\t\n      DUP2 \t\t\t\n      MSTORE \t\t\t\n      POP \t\t\t\n      SWAP1 \t\t\t\n      JUMP \t\t\t\n    tag 360\t\t\t\n      JUMPDEST \t\t\t\n      POP \t\t\t\n      DUP1 \t\t\t\n      SLOAD \t\t\t\n      PUSH [tag] 664\t\t\t\n      SWAP1 \t\t\t\n      PUSH [tag] 166\t\t\t\n      JUMP \t\t\t\n    tag 664\t\t\t\n      JUMPDEST \t\t\t\n      PUSH 0\t\t\t\n      DUP3 \t\t\t\n      SSTORE \t\t\t\n      DUP1 \t\t\t\n      PUSH 1F\t\t\t\n      LT \t\t\t\n      PUSH [tag] 666\t\t\t\n      JUMPI \t\t\t\n      POP \t\t\t\n      PUSH [tag] 665\t\t\t\n      JUMP \t\t\t\n    tag 666\t\t\t\n      JUMPDEST \t\t\t\n      PUSH 1F\t\t\t\n      ADD \t\t\t\n      PUSH 20\t\t\t\n      SWAP1 \t\t\t\n      DIV \t\t\t\n      SWAP1 \t\t\t\n      PUSH 0\t\t\t\n      MSTORE \t\t\t\n      PUSH 20\t\t\t\n      PUSH 0\t\t\t\n      KECCAK256 \t\t\t\n      SWAP1 \t\t\t\n      DUP2 \t\t\t\n      ADD \t\t\t\n      SWAP1 \t\t\t\n      PUSH [tag] 667\t\t\t\n      SWAP2 \t\t\t\n      SWAP1 \t\t\t\n      PUSH [tag] 668\t\t\t\n      JUMP \t\t\t\n    tag 667\t\t\t\n      JUMPDEST \t\t\t\n    tag 665\t\t\t\n      JUMPDEST \t\t\t\n      POP \t\t\t\n      JUMP \t\t\t\n    tag 668\t\t\t\n      JUMPDEST \t\t\t\n    tag 669\t\t\t\n      JUMPDEST \t\t\t\n      DUP1 \t\t\t\n      DUP3 \t\t\t\n      GT \t\t\t\n      ISZERO \t\t\t\n      PUSH [tag] 670\t\t\t\n      JUMPI \t\t\t\n      PUSH 0\t\t\t\n      DUP2 \t\t\t\n      PUSH 0\t\t\t\n      SWAP1 \t\t\t\n      SSTORE \t\t\t\n      POP \t\t\t\n      PUSH 1\t\t\t\n      ADD \t\t\t\n      PUSH [tag] 669\t\t\t\n      JUMP \t\t\t\n    tag 670\t\t\t\n      JUMPDEST \t\t\t\n      POP \t\t\t\n      SWAP1 \t\t\t\n      JUMP \t\t\t\n    tag 671\t\t\t-License-IDentifier: MIT\\r\\npr...\n      JUMPDEST \t\t\t-License-IDentifier: MIT\\r\\npr...\n      PUSH 0\t\t\tsolidi\n      PUSH 40\t\t\tt \n      MLOAD \t\t\t\\nimport \"\n      SWAP1 \t\t\t<0.9.0;\\r\\n\\r\\nimport \"\n      POP \t\t\t<0.9.0;\\r\\n\\r\\nimport \"\n      SWAP1 \t\t\t-License-IDentifier: MIT\\r\\npr...\n      JUMP \t\t\t-License-IDentifier: MIT\\r\\npr...\n    tag 672\t\t\tn/contracts/access/Ownable.sol...\n      JUMPDEST \t\t\tn/contracts/access/Ownable.sol...\n      PUSH 0\t\t\t\\n\n      DUP1 \t\t\t'\n      REVERT \t\t\t155.sol';\\r\\ni\n    tag 673\t\t\ttiveTypeUtils} from '@iden3/co...\n      JUMPDEST \t\t\ttiveTypeUtils} from '@iden3/co...\n      PUSH 0\t\t\to\n      DUP1 \t\t\t3\n      REVERT \t\t\t '@iden3/con\n    tag 674\t\t\tfaces/ICircuitValidator.sol';\\...\n      JUMPDEST \t\t\tfaces/ICircuitValidator.sol';\\...\n      PUSH 0\t\t\t {Embed\n      PUSH FFFFFFFFFFFFFFFFFFFFFFFFFFFFFFFFFFFFFFFF\t\t\tracts/verifiers/EmbeddedZKPVer...\n      DUP3 \t\t\tn3/co\n      AND \t\t\t@iden3/contracts/verifiers/Emb...\n      SWAP1 \t\t\tier} from '@iden3/contracts/ve...\n      POP \t\t\tier} from '@iden3/contracts/ve...\n      SWAP2 \t\t\tfaces/ICircuitValidator.sol';\\...\n      SWAP1 \t\t\tfaces/ICircuitValidator.sol';\\...\n      POP \t\t\tfaces/ICircuitValidator.sol';\\...\n      JUMP \t\t\tfaces/ICircuitValidator.sol';\\...\n    tag 675\t\t\tersalVerifier} from '@iden3/co...\n      JUMPDEST \t\t\tersalVerifier} from '@iden3/co...\n      PUSH 0\t\t\t/verifi\n      PUSH [tag] 839\t\t\tsol';\\r\\nimport \"@openzepp\n      DUP3 \t\t\tenzep\n      PUSH [tag] 674\t\t\tsol';\\r\\nimport \"@openzepp\n      JUMP \t\t\tsol';\\r\\nimport \"@openzepp\n    tag 839\t\t\tsol';\\r\\nimport \"@openzepp\n      JUMPDEST \t\t\tsol';\\r\\nimport \"@openzepp\n      SWAP1 \t\t\talVerifier.sol';\\r\\nimport \"@o...\n      POP \t\t\talVerifier.sol';\\r\\nimport \"@o...\n      SWAP2 \t\t\tersalVerifier} from '@iden3/co...\n      SWAP1 \t\t\tersalVerifier} from '@iden3/co...\n      POP \t\t\tersalVerifier} from '@iden3/co...\n      JUMP \t\t\tersalVerifier} from '@iden3/co...\n    tag 676\t\t\tts/utils/structs/EnumerableSet...\n      JUMPDEST \t\t\tts/utils/structs/EnumerableSet...\n      PUSH [tag] 841\t\t\t3/contracts/interfaces/I\n      DUP2 \t\t\taces/\n      PUSH [tag] 675\t\t\t3/contracts/interfaces/I\n      JUMP \t\t\t3/contracts/interfaces/I\n    tag 841\t\t\t3/contracts/interfaces/I\n      JUMPDEST \t\t\t3/contracts/interfaces/I\n      DUP2 \t\t\t '@id\n      EQ \t\t\trom '@iden3/contracts/interfac...\n      PUSH [tag] 842\t\t\trifier } from '@iden3/contract...\n      JUMPI \t\t\trifier } from '@iden3/contract...\n      PUSH 0\t\t\t'\n      DUP1 \t\t\ts\n      REVERT \t\t\trifier.sol';\n    tag 842\t\t\trifier } from '@iden3/contract...\n      JUMPDEST \t\t\trifier } from '@iden3/contract...\n      POP \t\t\tts/utils/structs/EnumerableSet...\n      JUMP \t\t\tts/utils/structs/EnumerableSet...\n    tag 677\t\t\tMUniversalVerifier is ERC1155,...\n      JUMPDEST \t\t\tMUniversalVerifier is ERC1155,...\n      PUSH 0\t\t\taddre\n      DUP2 \t\t\ttter f\n      CALLDATALOAD \t\t\t\\r\\n\\r\\n    // Getter fu\n      SWAP1 \t\t\te admins;\\r\\n\\r\\n    // Getter...\n      POP \t\t\te admins;\\r\\n\\r\\n    // Getter...\n      PUSH [tag] 844\t\t\tr the admins array, only calla...\n      DUP2 \t\t\tllabl\n      PUSH [tag] 676\t\t\tr the admins array, only calla...\n      JUMP \t\t\tr the admins array, only calla...\n    tag 844\t\t\tr the admins array, only calla...\n      JUMPDEST \t\t\tr the admins array, only calla...\n      SWAP3 \t\t\tMUniversalVerifier is ERC1155,...\n      SWAP2 \t\t\tMUniversalVerifier is ERC1155,...\n      POP \t\t\tMUniversalVerifier is ERC1155,...\n      POP \t\t\tMUniversalVerifier is ERC1155,...\n      JUMP \t\t\tMUniversalVerifier is ERC1155,...\n    tag 678\t\t\tr.\\r\\n    function getAdmins()...\n      JUMPDEST \t\t\tr.\\r\\n    function getAdmins()...\n      PUSH 0\t\t\tiew onl\n      DUP2 \t\t\ts[] m\n      SWAP1 \t\t\trns (address[] m\n      POP \t\t\trns (address[] m\n      SWAP2 \t\t\tr.\\r\\n    function getAdmins()...\n      SWAP1 \t\t\tr.\\r\\n    function getAdmins()...\n      POP \t\t\tr.\\r\\n    function getAdmins()...\n      JUMP \t\t\tr.\\r\\n    function getAdmins()...\n    tag 679\t\t\t      return admins;\\r\\n    }\\...\n      JUMPDEST \t\t\t      return admins;\\r\\n    }\\...\n      PUSH [tag] 847\t\t\tf an address is an admin\n      DUP2 \t\t\t admi\n      PUSH [tag] 678\t\t\tf an address is an admin\n      JUMP \t\t\tf an address is an admin\n    tag 847\t\t\tf an address is an admin\n      JUMPDEST \t\t\tf an address is an admin\n      DUP2 \t\t\tcheck\n      EQ \t\t\tto check if an address is an a...\n      PUSH [tag] 848\t\t\t function to check if an addre...\n      JUMPI \t\t\t function to check if an addre...\n      PUSH 0\t\t\t \n      DUP1 \t\t\ti\n      REVERT \t\t\t  function _\n    tag 848\t\t\t function to check if an addre...\n      JUMPDEST \t\t\t function to check if an addre...\n      POP \t\t\t      return admins;\\r\\n    }\\...\n      JUMP \t\t\t      return admins;\\r\\n    }\\...\n    tag 680\t\t\ts _admin) internal view return...\n      JUMPDEST \t\t\ts _admin) internal view return...\n      PUSH 0\t\t\t    f\n      DUP2 \t\t\t; i++)\n      CALLDATALOAD \t\t\tadmins.length; i++) \n      SWAP1 \t\t\t= 0; i < admins.length; i++) \n      POP \t\t\t= 0; i < admins.length; i++) \n      PUSH [tag] 850\t\t\t      if (admins[i] == _admin)...\n      DUP2 \t\t\tin) {\n      PUSH [tag] 679\t\t\t      if (admins[i] == _admin)...\n      JUMP \t\t\t      if (admins[i] == _admin)...\n    tag 850\t\t\t      if (admins[i] == _admin)...\n      JUMPDEST \t\t\t      if (admins[i] == _admin)...\n      SWAP3 \t\t\ts _admin) internal view return...\n      SWAP2 \t\t\ts _admin) internal view return...\n      POP \t\t\ts _admin) internal view return...\n      POP \t\t\ts _admin) internal view return...\n      JUMP \t\t\ts _admin) internal view return...\n    tag 40\t\t\t     return true;\\r\\n         ...\n      JUMPDEST \t\t\t     return true;\\r\\n         ...\n      PUSH 0\t\t\t    }\\r\n      DUP1 \t\t\t\\n    /\n      PUSH 40\t\t\te \n      DUP4 \t\t\tess. Only\n      DUP6 \t\t\tdmin ad\n      SUB \t\t\tan admin address. Only \n      SLT \t\t\tadd an admin address. Only the...\n      ISZERO \t\t\tto add an admin address. Only ...\n      PUSH [tag] 852\t\t\tto add an admin address. Only ...\n      JUMPI \t\t\tto add an admin address. Only ...\n      PUSH [tag] 853\t\t\tr can add.\\r\\n    function add...\n      PUSH [tag] 672\t\t\tr can add.\\r\\n    function add...\n      JUMP \t\t\tr can add.\\r\\n    function add...\n    tag 853\t\t\tr can add.\\r\\n    function add...\n      JUMPDEST \t\t\tr can add.\\r\\n    function add...\n    tag 852\t\t\tto add an admin address. Only ...\n      JUMPDEST \t\t\tto add an admin address. Only ...\n      PUSH 0\t\t\tr\n      PUSH [tag] 854\t\t\t!_isAdmin(_admin), \"Address is...\n      DUP6 \t\t\tin\");\\r\\n\n      DUP3 \t\t\tdy an \n      DUP7 \t\t\tss is alr\n      ADD \t\t\tddress is already an a\n      PUSH [tag] 677\t\t\t!_isAdmin(_admin), \"Address is...\n      JUMP \t\t\t!_isAdmin(_admin), \"Address is...\n    tag 854\t\t\t!_isAdmin(_admin), \"Address is...\n      JUMPDEST \t\t\t!_isAdmin(_admin), \"Address is...\n      SWAP3 \t\t\t  require(!_isAdmin(_admin), \"...\n      POP \t\t\t  require(!_isAdmin(_admin), \"...\n      POP \t\t\tn != address(0), \"Invalid addr...\n      PUSH 20\t\t\tti\n      PUSH [tag] 855\t\t\tdress. Only the owner can remo...\n      DUP6 \t\t\ton remo\n      DUP3 \t\t\t   fun\n      DUP7 \t\t\t remove.\\r\n      ADD \t\t\t can remove.\\r\\n    func\n      PUSH [tag] 680\t\t\tdress. Only the owner can remo...\n      JUMP \t\t\tdress. Only the owner can remo...\n    tag 855\t\t\tdress. Only the owner can remo...\n      JUMPDEST \t\t\tdress. Only the owner can remo...\n      SWAP2 \t\t\tn admin address. Only the owne...\n      POP \t\t\tn admin address. Only the owne...\n      POP \t\t\tadmin);\\r\\n    }\\r\\n\\r\\n    //...\n      SWAP3 \t\t\t     return true;\\r\\n         ...\n      POP \t\t\t     return true;\\r\\n         ...\n      SWAP3 \t\t\t     return true;\\r\\n         ...\n      SWAP1 \t\t\t     return true;\\r\\n         ...\n      POP \t\t\t     return true;\\r\\n         ...\n      JUMP \t\t\t     return true;\\r\\n         ...\n    tag 681\t\t\tpublic onlyOwner {\\r\\n        ...\n      JUMPDEST \t\t\tpublic onlyOwner {\\r\\n        ...\n      PUSH [tag] 857\t\t\t; i++) {\\r\\n            if\n      DUP2 \t\t\t    i\n      PUSH [tag] 678\t\t\t; i++) {\\r\\n            if\n      JUMP \t\t\t; i++) {\\r\\n            if\n    tag 857\t\t\t; i++) {\\r\\n            if\n      JUMPDEST \t\t\t; i++) {\\r\\n            if\n      DUP3 \t\t\t< l\n      MSTORE \t\t\t= 0; i < len; i++) {\\r\\n      ...\n      POP \t\t\tpublic onlyOwner {\\r\\n        ...\n      POP \t\t\tpublic onlyOwner {\\r\\n        ...\n      JUMP \t\t\tpublic onlyOwner {\\r\\n        ...\n    tag 43\t\t\t= _admin) {\\r\\n               ...\n      JUMPDEST \t\t\t= _admin) {\\r\\n               ...\n      PUSH 0\t\t\t    \n      PUSH 20\t\t\t  \n      DUP3 \t\t\t       }\\r\n      ADD \t\t\t           }\\r\\n    \n      SWAP1 \t\t\tturn;\\r\\n            }\\r\\n    \n      POP \t\t\tturn;\\r\\n            }\\r\\n    \n      PUSH [tag] 859\t\t\t     revert(\"Admin not found\")...\n      PUSH 0\t\t\tt\n      DUP4 \t\t\t to restr\n      ADD \t\t\tfier to restrict \n      DUP5 \t\t\t  // M\n      PUSH [tag] 681\t\t\t     revert(\"Admin not found\")...\n      JUMP \t\t\t     revert(\"Admin not found\")...\n    tag 859\t\t\t     revert(\"Admin not found\")...\n      JUMPDEST \t\t\t     revert(\"Admin not found\")...\n      SWAP3 \t\t\t= _admin) {\\r\\n               ...\n      SWAP2 \t\t\t= _admin) {\\r\\n               ...\n      POP \t\t\t= _admin) {\\r\\n               ...\n      POP \t\t\t= _admin) {\\r\\n               ...\n      JUMP \t\t\t= _admin) {\\r\\n               ...\n    tag 46\t\t\tnly addresses in the admin lis...\n      JUMPDEST \t\t\tnly addresses in the admin lis...\n      PUSH 0\t\t\t{\\r\\n   \n      PUSH 20\t\t\tis\n      DUP3 \t\t\tr), \"Call\n      DUP5 \t\t\tmsg.sen\n      SUB \t\t\tmin(msg.sender), \"Calle\n      SLT \t\t\tisAdmin(msg.sender), \"Caller i...\n      ISZERO \t\t\te(_isAdmin(msg.sender), \"Calle...\n      PUSH [tag] 861\t\t\te(_isAdmin(msg.sender), \"Calle...\n      JUMPI \t\t\te(_isAdmin(msg.sender), \"Calle...\n      PUSH [tag] 862\t\t\t an admin\");\\r\\n        _;\\r\\n...\n      PUSH [tag] 672\t\t\t an admin\");\\r\\n        _;\\r\\n...\n      JUMP \t\t\t an admin\");\\r\\n        _;\\r\\n...\n    tag 862\t\t\t an admin\");\\r\\n        _;\\r\\n...\n      JUMPDEST \t\t\t an admin\");\\r\\n        _;\\r\\n...\n    tag 861\t\t\te(_isAdmin(msg.sender), \"Calle...\n      JUMPDEST \t\t\te(_isAdmin(msg.sender), \"Calle...\n      PUSH 0\t\t\th\n      PUSH [tag] 863\t\t\t\\r\\n    EnumerableSet.UintSet ...\n      DUP5 \t\t\tIDs;\\r\\n\\r\n      DUP3 \t\t\t_allTo\n      DUP6 \t\t\tet privat\n      ADD \t\t\tintSet private _allTok\n      PUSH [tag] 680\t\t\t\\r\\n    EnumerableSet.UintSet ...\n      JUMP \t\t\t\\r\\n    EnumerableSet.UintSet ...\n    tag 863\t\t\t\\r\\n    EnumerableSet.UintSet ...\n      JUMPDEST \t\t\t\\r\\n    EnumerableSet.UintSet ...\n      SWAP2 \t\t\teen minted\\r\\n    EnumerableSe...\n      POP \t\t\teen minted\\r\\n    EnumerableSe...\n      POP \t\t\t  // A set of all token IDs th...\n      SWAP3 \t\t\tnly addresses in the admin lis...\n      SWAP2 \t\t\tnly addresses in the admin lis...\n      POP \t\t\tnly addresses in the admin lis...\n      POP \t\t\tnly addresses in the admin lis...\n      JUMP \t\t\tnly addresses in the admin lis...\n    tag 682\t\t\t the full list of token IDs ev...\n      JUMPDEST \t\t\t the full list of token IDs ev...\n      PUSH 0\t\t\t) exte\n      DUP2 \t\t\t memo\n      MLOAD \t\t\tt256[] memor\n      SWAP1 \t\t\tturns (uint256[] memor\n      POP \t\t\tturns (uint256[] memor\n      SWAP2 \t\t\t the full list of token IDs ev...\n      SWAP1 \t\t\t the full list of token IDs ev...\n      POP \t\t\t the full list of token IDs ev...\n      JUMP \t\t\t the full list of token IDs ev...\n    tag 683\t\t\t return _allTokenIDs.values();...\n      JUMPDEST \t\t\t return _allTokenIDs.values();...\n      PUSH 0\t\t\tame and oth\n      DUP3 \t\t\tored a\n      DUP3 \t\t\tbe \n      MSTORE \t\t\tes can be stored as\n      PUSH 20\t\t\ting)\n      DUP3 \t\t\t> s\n      ADD \t\t\t56 => string) \n      SWAP1 \t\t\t  mapping(uint256 => string) \n      POP \t\t\t  mapping(uint256 => string) \n      SWAP3 \t\t\t return _allTokenIDs.values();...\n      SWAP2 \t\t\t return _allTokenIDs.values();...\n      POP \t\t\t return _allTokenIDs.values();...\n      POP \t\t\t return _allTokenIDs.values();...\n      JUMP \t\t\t return _allTokenIDs.values();...\n    tag 684\t\t\tName;\\r\\n\\r\\n\\r\\n    // Mappin...\n      JUMPDEST \t\t\tName;\\r\\n\\r\\n\\r\\n    // Mappin...\n      PUSH 0\t\t\ter's\n      DUP2 \t\t\tnde\n      SWAP1 \t\t\tring 'sende\n      POP \t\t\tring 'sende\n      PUSH 20\t\t\ttoke\n      DUP3 \t\t\t  /\n      ADD \t\t\t\\r\\n    // token\n      SWAP1 \t\t\teiver').\\r\\n    // token\n      POP \t\t\teiver').\\r\\n    // token\n      SWAP2 \t\t\tName;\\r\\n\\r\\n\\r\\n    // Mappin...\n      SWAP1 \t\t\tName;\\r\\n\\r\\n\\r\\n    // Mappin...\n      POP \t\t\tName;\\r\\n\\r\\n\\r\\n    // Mappin...\n      JUMP \t\t\tName;\\r\\n\\r\\n\\r\\n    // Mappin...\n    tag 685\t\t\tquestID → 'sender' or 'receive...\n      JUMPDEST \t\t\tquestID → 'sender' or 'receive...\n      PUSH 0\t\t\t   mapp\n      PUSH FFFFFFFFFFFFFFFF\t\t\tstring)) public to\n      DUP3 \t\t\tt64 =\n      AND \t\t\t(uint64 => string)) public tok\n      SWAP1 \t\t\t => mapping(uint64 => string))...\n      POP \t\t\t => mapping(uint64 => string))...\n      SWAP2 \t\t\tquestID → 'sender' or 'receive...\n      SWAP1 \t\t\tquestID → 'sender' or 'receive...\n      POP \t\t\tquestID → 'sender' or 'receive...\n      JUMP \t\t\tquestID → 'sender' or 'receive...\n    tag 686\t\t\tquest_role;\\r\\n\\r\\n    // Stru...\n      JUMPDEST \t\t\tquest_role;\\r\\n\\r\\n    // Stru...\n      PUSH [tag] 869\t\t\tSpendingCondition {\\r\\n  \n      DUP2 \t\t\t {\\r\\n \n      PUSH [tag] 685\t\t\tSpendingCondition {\\r\\n  \n      JUMP \t\t\tSpendingCondition {\\r\\n  \n    tag 869\t\t\tSpendingCondition {\\r\\n  \n      JUMPDEST \t\t\tSpendingCondition {\\r\\n  \n      DUP3 \t\t\truc\n      MSTORE \t\t\t\\n    struct SpendingCondition...\n      POP \t\t\tquest_role;\\r\\n\\r\\n    // Stru...\n      POP \t\t\tquest_role;\\r\\n\\r\\n    // Stru...\n      JUMP \t\t\tquest_role;\\r\\n\\r\\n    // Stru...\n    tag 687\t\t\tattribute;\\r\\n        string o...\n      JUMPDEST \t\t\tattribute;\\r\\n        string o...\n      PUSH 0\t\t\t }\\r\\n\\r\\n    \n      PUSH [tag] 871\t\t\tfrom tokenID to proofRequestID...\n      DUP4 \t\t\tng \n      DUP4 \t\t\to spen\n      PUSH [tag] 686\t\t\tfrom tokenID to proofRequestID...\n      JUMP \t\t\tfrom tokenID to proofRequestID...\n    tag 871\t\t\tfrom tokenID to proofRequestID...\n      JUMPDEST \t\t\tfrom tokenID to proofRequestID...\n      PUSH 20\t\t\tofRe\n      DUP4 \t\t\t (p\n      ADD \t\t\tD => (proofReq\n      SWAP1 \t\t\t\\n    // tokenID => (proofReq\n      POP \t\t\t\\n    // tokenID => (proofReq\n      SWAP3 \t\t\tattribute;\\r\\n        string o...\n      SWAP2 \t\t\tattribute;\\r\\n        string o...\n      POP \t\t\tattribute;\\r\\n        string o...\n      POP \t\t\tattribute;\\r\\n        string o...\n      JUMP \t\t\tattribute;\\r\\n        string o...\n    tag 688\t\t\tendingCondition)\\r\\n    mappin...\n      JUMPDEST \t\t\tendingCondition)\\r\\n    mappin...\n      PUSH 0\t\t\tndit\n      PUSH 20\t\t\tons;\n      DUP3 \t\t\tndi\n      ADD \t\t\tngConditions;\\r\n      SWAP1 \t\t\tc spendingConditions;\\r\n      POP \t\t\tc spendingConditions;\\r\n      SWAP2 \t\t\tendingCondition)\\r\\n    mappin...\n      SWAP1 \t\t\tendingCondition)\\r\\n    mappin...\n      POP \t\t\tendingCondition)\\r\\n    mappin...\n      JUMP \t\t\tendingCondition)\\r\\n    mappin...\n    tag 689\t\t\tt_ids only for iteration.\\r\\n ...\n      JUMPDEST \t\t\tt_ids only for iteration.\\r\\n ...\n      PUSH 0\t\t\tr a\n      PUSH [tag] 874\t\t\ton getSpendingConditions(uint2...\n      DUP3 \t\t\tnal v\n      PUSH [tag] 682\t\t\ton getSpendingConditions(uint2...\n      JUMP \t\t\ton getSpendingConditions(uint2...\n    tag 874\t\t\ton getSpendingConditions(uint2...\n      JUMPDEST \t\t\ton getSpendingConditions(uint2...\n      PUSH [tag] 875\t\t\t64[] memory, SpendingCondition...\n      DUP2 \t\t\tfReque\n      DUP6 \t\t\t pr\n      PUSH [tag] 683\t\t\t64[] memory, SpendingCondition...\n      JUMP \t\t\t64[] memory, SpendingCondition...\n    tag 875\t\t\t64[] memory, SpendingCondition...\n      JUMPDEST \t\t\t64[] memory, SpendingCondition...\n      SWAP4 \t\t\ts (uint64[] memory, SpendingCo...\n      POP \t\t\ts (uint64[] memory, SpendingCo...\n      PUSH [tag] 876\t\t\tount = 0;\\r\\n        // First,...\n      DUP4 \t\t\tReque\n      PUSH [tag] 684\t\t\tount = 0;\\r\\n        // First,...\n      JUMP \t\t\tount = 0;\\r\\n        // First,...\n    tag 876\t\t\tount = 0;\\r\\n        // First,...\n      JUMPDEST \t\t\tount = 0;\\r\\n        // First,...\n      DUP1 \t\t\th this \n      PUSH 0\t\t\tn\n    tag 877\t\t\t        for (uint256 i = 0; i ...\n      JUMPDEST \t\t\t        for (uint256 i = 0; i ...\n      DUP4 \t\t\t0; i <\n      DUP2 \t\t\t \n      LT \t\t\t6 i = 0; i < \n      ISZERO \t\t\t        for (uint256 i = 0; i ...\n      PUSH [tag] 879\t\t\t        for (uint256 i = 0; i ...\n      JUMPI \t\t\t        for (uint256 i = 0; i ...\n      DUP2 \t\t\t[ids[i\n      MLOAD \t\t\tkenID][ids[i]\n      PUSH [tag] 880\t\t\t> 0) {\\r\\n                coun...\n      DUP9 \t\t\t}\\r\\n\n      DUP3 \t\t\t    }\\r\\n      \n      PUSH [tag] 687\t\t\t> 0) {\\r\\n                coun...\n      JUMP \t\t\t> 0) {\\r\\n                coun...\n    tag 880\t\t\t> 0) {\\r\\n                coun...\n      JUMPDEST \t\t\t> 0) {\\r\\n                coun...\n      SWAP8 \t\t\tlength > 0) {\\r\\n             ...\n      POP \t\t\tlength > 0) {\\r\\n             ...\n      PUSH [tag] 881\t\t\ts for output\\r\\n        uint64...\n      DUP4 \t\t\tnew ui\n      PUSH [tag] 688\t\t\ts for output\\r\\n        uint64...\n      JUMP \t\t\ts for output\\r\\n        uint64...\n    tag 881\t\t\ts for output\\r\\n        uint64...\n      JUMPDEST \t\t\ts for output\\r\\n        uint64...\n      SWAP3 \t\t\tpare arrays for output\\r\\n    ...\n      POP \t\t\tpare arrays for output\\r\\n    ...\n      POP \t\t\t    if (bytes(spendingConditio...\n      PUSH 1\t\t\t)\n      DUP2 \t\t\ti\n      ADD \t\t\tth; i++) \n      SWAP1 \t\t\t.length; i++) \n      POP \t\t\t.length; i++) \n      PUSH [tag] 877\t\t\t        for (uint256 i = 0; i ...\n      JUMP \t\t\t        for (uint256 i = 0; i ...\n    tag 879\t\t\t        for (uint256 i = 0; i ...\n      JUMPDEST \t\t\t        for (uint256 i = 0; i ...\n      POP \t\t\t    for (uint2\n      DUP6 \t\t\tndi\n      SWAP4 \t\t\t    Spendi\n      POP \t\t\t    Spendi\n      POP \t\t\tiven tokenID\\r\\n    function g...\n      POP \t\t\tiven tokenID\\r\\n    function g...\n      POP \t\t\tiven tokenID\\r\\n    function g...\n      SWAP3 \t\t\tt_ids only for iteration.\\r\\n ...\n      SWAP2 \t\t\tt_ids only for iteration.\\r\\n ...\n      POP \t\t\tt_ids only for iteration.\\r\\n ...\n      POP \t\t\tt_ids only for iteration.\\r\\n ...\n      JUMP \t\t\tt_ids only for iteration.\\r\\n ...\n    tag 690\t\t\t] memory conditions = new Spen...\n      JUMPDEST \t\t\t] memory conditions = new Spen...\n      PUSH 0\t\t\t = 0; \n      DUP2 \t\t\t     \n      MLOAD \t\t\t\\r\\n          \n      SWAP1 \t\t\tth; i++) {\\r\\n          \n      POP \t\t\tth; i++) {\\r\\n          \n      SWAP2 \t\t\t] memory conditions = new Spen...\n      SWAP1 \t\t\t] memory conditions = new Spen...\n      POP \t\t\t] memory conditions = new Spen...\n      JUMP \t\t\t] memory conditions = new Spen...\n    tag 691\t\t\tpendingConditions[tokenID][ids...\n      JUMPDEST \t\t\tpendingConditions[tokenID][ids...\n      PUSH 0\t\t\t] = spendin\n      DUP3 \t\t\ts[i]];\n      DUP3 \t\t\tD][\n      MSTORE \t\t\t[tokenID][ids[i]];\\r\n      PUSH 20\t\t\t    \n      DUP3 \t\t\t   \n      ADD \t\t\t\\n            }\n      SWAP1 \t\t\t        idx++;\\r\\n            ...\n      POP \t\t\t        idx++;\\r\\n            ...\n      SWAP3 \t\t\tpendingConditions[tokenID][ids...\n      SWAP2 \t\t\tpendingConditions[tokenID][ids...\n      POP \t\t\tpendingConditions[tokenID][ids...\n      POP \t\t\tpendingConditions[tokenID][ids...\n      JUMP \t\t\tpendingConditions[tokenID][ids...\n    tag 692\t\t\t\\n        return (filteredIDs,...\n      JUMPDEST \t\t\t\\n        return (filteredIDs,...\n      PUSH 0\t\t\tng p\n      DUP2 \t\t\t   \n      SWAP1 \t\t\tress.\\r\\n    \n      POP \t\t\tress.\\r\\n    \n      PUSH 20\t\t\ts is\n      DUP3 \t\t\test\n      ADD \t\t\tRequestIDs is \n      SWAP1 \t\t\tay proofRequestIDs is \n      POP \t\t\tay proofRequestIDs is \n      SWAP2 \t\t\t\\n        return (filteredIDs,...\n      SWAP1 \t\t\t\\n        return (filteredIDs,...\n      POP \t\t\t\\n        return (filteredIDs,...\n      JUMP \t\t\t\\n        return (filteredIDs,...\n    tag 693\t\t\tdingly.\\r\\n    // Add a new pr...\n      JUMPDEST \t\t\tdingly.\\r\\n    // Add a new pr...\n      PUSH 0\t\t\tespond\n      DUP2 \t\t\tver')\n      MLOAD \t\t\t'receiver').\n      SWAP1 \t\t\tender' or 'receiver').\n      POP \t\t\tender' or 'receiver').\n      SWAP2 \t\t\tdingly.\\r\\n    // Add a new pr...\n      SWAP1 \t\t\tdingly.\\r\\n    // Add a new pr...\n      POP \t\t\tdingly.\\r\\n    // Add a new pr...\n      JUMP \t\t\tdingly.\\r\\n    // Add a new pr...\n    tag 694\t\t\tarray proofRequestIDs is updat...\n      JUMPDEST \t\t\tarray proofRequestIDs is updat...\n      PUSH 0\t\t\ttAndRole(ui\n      DUP3 \t\t\tequest\n      DUP3 \t\t\tt64\n      MSTORE \t\t\tID, uint64 requestI\n      PUSH 20\t\t\tnlyA\n      DUP3 \t\t\tlic\n      ADD \t\t\t public onlyAd\n      SWAP1 \t\t\t calldata role) public onlyAd\n      POP \t\t\t calldata role) public onlyAd\n      SWAP3 \t\t\tarray proofRequestIDs is updat...\n      SWAP2 \t\t\tarray proofRequestIDs is updat...\n      POP \t\t\tarray proofRequestIDs is updat...\n      POP \t\t\tarray proofRequestIDs is updat...\n      JUMP \t\t\tarray proofRequestIDs is updat...\n    tag 695\t\t\t   require(_allTokenIDs.contai...\n      JUMPDEST \t\t\t   require(_allTokenIDs.contai...\n      PUSH 0\t\t\te\n    tag 888\t\t\tes(tokenID_proofRequest_role[t...\n      JUMPDEST \t\t\tes(tokenID_proofRequest_role[t...\n      DUP4 \t\t\tofRequ\n      DUP2 \t\t\tp\n      LT \t\t\tID_proofReque\n      ISZERO \t\t\tes(tokenID_proofRequest_role[t...\n      PUSH [tag] 890\t\t\tes(tokenID_proofRequest_role[t...\n      JUMPI \t\t\tes(tokenID_proofRequest_role[t...\n      DUP1 \t\t\t \n      DUP3 \t\t\t;\\r\\n\n      ADD \t\t\tts\");\\r\\n    \n      MLOAD \t\t\ty exists\");\\r\\n     \n      DUP2 \t\t\tr\n      DUP5 \t\t\tst \n      ADD \t\t\tequest alre\n      MSTORE \t\t\tProof request already exists\")...\n      PUSH 20\t\t\t][\n      DUP2 \t\t\tn\n      ADD \t\t\ttokenID][r\n      SWAP1 \t\t\trole[tokenID][r\n      POP \t\t\trole[tokenID][r\n      PUSH [tag] 888\t\t\tes(tokenID_proofRequest_role[t...\n      JUMP \t\t\tes(tokenID_proofRequest_role[t...\n    tag 890\t\t\tes(tokenID_proofRequest_role[t...\n      JUMPDEST \t\t\tes(tokenID_proofRequest_role[t...\n      PUSH 0\t\t\t)\n      DUP5 \t\t\tytes(r\n      DUP5 \t\t\t256\n      ADD \t\t\tccak256(bytes(ro\n      MSTORE \t\t\t     keccak256(bytes(role))\n      POP \t\t\texist\");\\r\\n        require(by...\n      POP \t\t\t   require(_allTokenIDs.contai...\n      POP \t\t\t   require(_allTokenIDs.contai...\n      POP \t\t\t   require(_allTokenIDs.contai...\n      JUMP \t\t\t   require(_allTokenIDs.contai...\n    tag 696\t\t\t6(bytes(\"sender\")) ||\\r\\n     ...\n      JUMPDEST \t\t\t6(bytes(\"sender\")) ||\\r\\n     ...\n      PUSH 0\t\t\t256(by\n      PUSH 1F\t\t\t  \n      NOT \t\t\t),\\r\\n   \n      PUSH 1F\t\t\tve\n      DUP4 \t\t\t(\"rec\n      ADD \t\t\tytes(\"receiver\n      AND \t\t\t56(bytes(\"receiver\")),\\r\\n    \n      SWAP1 \t\t\t== keccak256(bytes(\"receiver\")...\n      POP \t\t\t== keccak256(bytes(\"receiver\")...\n      SWAP2 \t\t\t6(bytes(\"sender\")) ||\\r\\n     ...\n      SWAP1 \t\t\t6(bytes(\"sender\")) ||\\r\\n     ...\n      POP \t\t\t6(bytes(\"sender\")) ||\\r\\n     ...\n      JUMP \t\t\t6(bytes(\"sender\")) ||\\r\\n     ...\n    tag 697\t\t\te must be 'sender' or 'receive...\n      JUMPDEST \t\t\te must be 'sender' or 'receive...\n      PUSH 0\t\t\tle[\n      PUSH [tag] 893\t\t\te;\\r\\n        proofRequestIDs....\n      DUP3 \t\t\treque\n      PUSH [tag] 693\t\t\te;\\r\\n        proofRequestIDs....\n      JUMP \t\t\te;\\r\\n        proofRequestIDs....\n    tag 893\t\t\te;\\r\\n        proofRequestIDs....\n      JUMPDEST \t\t\te;\\r\\n        proofRequestIDs....\n      PUSH [tag] 894\t\t\t  \\r\\n    function addProofReq...\n      DUP2 \t\t\t   uin\n      DUP6 \t\t\t   \n      PUSH [tag] 694\t\t\t  \\r\\n    function addProofReq...\n      JUMP \t\t\t  \\r\\n    function addProofReq...\n    tag 894\t\t\t  \\r\\n    function addProofReq...\n      JUMPDEST \t\t\t  \\r\\n    function addProofReq...\n      SWAP4 \t\t\t  }\\r\\n    \\r\\n    function ad...\n      POP \t\t\t  }\\r\\n    \\r\\n    function ad...\n      PUSH [tag] 895\t\t\ttId,\\r\\n        string calldat...\n      DUP2 \t\t\talidat\n      DUP6 \t\t\tcui\n      PUSH 20\t\t\t   I\n      DUP7 \t\t\t\\r\\n   \n      ADD \t\t\tata,\\r\\n        IC\n      PUSH [tag] 695\t\t\ttId,\\r\\n        string calldat...\n      JUMP \t\t\ttId,\\r\\n        string calldat...\n    tag 895\t\t\ttId,\\r\\n        string calldat...\n      JUMPDEST \t\t\ttId,\\r\\n        string calldat...\n      PUSH [tag] 896\t\t\tes calldata data,\\r\\n        u...\n      DUP2 \t\t\t     u\n      PUSH [tag] 696\t\t\tes calldata data,\\r\\n        u...\n      JUMP \t\t\tes calldata data,\\r\\n        u...\n    tag 896\t\t\tes calldata data,\\r\\n        u...\n      JUMPDEST \t\t\tes calldata data,\\r\\n        u...\n      DUP5 \t\t\t  b\n      ADD \t\t\t      bytes calldata data,\\r\\n...\n      SWAP2 \t\t\tor,\\r\\n        bytes calldata ...\n      POP \t\t\tor,\\r\\n        bytes calldata ...\n      POP \t\t\tokenID][requestID] = role;\\r\\n...\n      SWAP3 \t\t\te must be 'sender' or 'receive...\n      SWAP2 \t\t\te must be 'sender' or 'receive...\n      POP \t\t\te must be 'sender' or 'receive...\n      POP \t\t\te must be 'sender' or 'receive...\n      JUMP \t\t\te must be 'sender' or 'receive...\n    tag 698\t\t\t    // Build the IZKPVerifier....\n      JUMPDEST \t\t\t    // Build the IZKPVerifier....\n      PUSH 0\t\t\t  m\n      PUSH 60\t\t\talid\n      DUP4 \t\t\t   \n      ADD \t\t\t        valida\n      PUSH 0\t\t\trequ\n      DUP4 \t\t\teques\n      ADD \t\t\tZKPRequest(reque\n      MLOAD \t\t\ter.setZKPRequest(reques\n      DUP5 \t\t\tnID\n      DUP3 \t\t\te(to\n      SUB \t\t\tdRole(tokenID,\n      PUSH 0\t\t\tques\n      DUP7 \t\t\toof\n      ADD \t\t\tddProofRequest\n      MSTORE \t\t\t      addProofRequestAndRole(t...\n      PUSH [tag] 898\t\t\t      // Add the spending cond...\n      DUP3 \t\t\tnID]\n      DUP3 \t\t\tonditions[to\n      PUSH [tag] 697\t\t\t      // Add the spending cond...\n      JUMP \t\t\t      // Add the spending cond...\n    tag 898\t\t\t      // Add the spending cond...\n      JUMPDEST \t\t\t      // Add the spending cond...\n      SWAP2 \t\t\tle);\\r\\n        // Add the spe...\n      POP \t\t\tle);\\r\\n        // Add the spe...\n      POP \t\t\tator,\\r\\n            data: dat...\n      PUSH 20\t\t\ttr: \n      DUP4 \t\t\terato\n      ADD \t\t\t  operatorStr: c\n      MLOAD \t\t\t        operatorStr: co\n      DUP5 \t\t\tion\n      DUP3 \t\t\tcond\n      SUB \t\t\tue: condition.\n      PUSH 20\t\t\t    \n      DUP7 \t\t\t   \n      ADD \t\t\t\\n            v\n      MSTORE \t\t\torStr,\\r\\n            value: c...\n      PUSH [tag] 899\t\t\t  }\\r\\n    \\r\\n    // Delete a...\n      DUP3 \t\t\t // \n      DUP3 \t\t\tss by ID.\\r\\n \n      PUSH [tag] 697\t\t\t  }\\r\\n    \\r\\n    // Delete a...\n      JUMP \t\t\t  }\\r\\n    \\r\\n    // Delete a...\n    tag 899\t\t\t  }\\r\\n    \\r\\n    // Delete a...\n      JUMPDEST \t\t\t  }\\r\\n    \\r\\n    // Delete a...\n      SWAP2 \t\t\t });\\r\\n    }\\r\\n    \\r\\n    /...\n      POP \t\t\t });\\r\\n    }\\r\\n    \\r\\n    /...\n      POP \t\t\tCondition({\\r\\n            att...\n      PUSH 40\t\t\t56 t\n      DUP4 \t\t\te(uin\n      ADD \t\t\tdRole(uint256 to\n      MLOAD \t\t\tuestAndRole(uint256 tok\n      DUP5 \t\t\t   \n      DUP3 \t\t\t{\\r\\n \n      SUB \t\t\tmin {\\r\\n       \n      PUSH 40\t\t\t onl\n      DUP7 \t\t\tubl\n      ADD \t\t\tD) public only\n      MSTORE \t\t\tequestID) public onlyAdmin {\\r...\n      PUSH [tag] 900\t\t\tcontains(tokenID), \"token id d...\n      DUP3 \t\t\ts(to\n      DUP3 \t\t\t  require(by\n      PUSH [tag] 697\t\t\tcontains(tokenID), \"token id d...\n      JUMP \t\t\tcontains(tokenID), \"token id d...\n    tag 900\t\t\tcontains(tokenID), \"token id d...\n      JUMPDEST \t\t\tcontains(tokenID), \"token id d...\n      SWAP2 \t\t\tokenIDs.contains(tokenID), \"to...\n      POP \t\t\tokenIDs.contains(tokenID), \"to...\n      POP \t\t\tIDs is updated accordingly.\\r\\...\n      DUP1 \t\t\tID][\n      SWAP2 \t\t\te[tokenID][\n      POP \t\t\te[tokenID][\n      POP \t\t\tadata: metadata,\\r\\n          ...\n      SWAP3 \t\t\t    // Build the IZKPVerifier....\n      SWAP2 \t\t\t    // Build the IZKPVerifier....\n      POP \t\t\t    // Build the IZKPVerifier....\n      POP \t\t\t    // Build the IZKPVerifier....\n      JUMP \t\t\t    // Build the IZKPVerifier....\n    tag 699\t\t\tlength != 0, \"Proof request do...\n      JUMPDEST \t\t\tlength != 0, \"Proof request do...\n      PUSH 0\t\t\tns[tokenID\n      PUSH [tag] 902\t\t\t Remove ID from the array (swa...\n      DUP4 \t\t\t\\r\\n \n      DUP4 \t\t\t; i++)\n      PUSH [tag] 698\t\t\t Remove ID from the array (swa...\n      JUMP \t\t\t Remove ID from the array (swa...\n    tag 902\t\t\t Remove ID from the array (swa...\n      JUMPDEST \t\t\t Remove ID from the array (swa...\n      SWAP1 \t\t\t];\\r\\n        // Remove ID fro...\n      POP \t\t\t];\\r\\n        // Remove ID fro...\n      SWAP3 \t\t\tlength != 0, \"Proof request do...\n      SWAP2 \t\t\tlength != 0, \"Proof request do...\n      POP \t\t\tlength != 0, \"Proof request do...\n      POP \t\t\tlength != 0, \"Proof request do...\n      JUMP \t\t\tlength != 0, \"Proof request do...\n    tag 700\t\t\t (proofRequestIDs[i] == reques...\n      JUMPDEST \t\t\t (proofRequestIDs[i] == reques...\n      PUSH 0\t\t\t.len\n      PUSH 20\t\t\troof\n      DUP3 \t\t\t   \n      ADD \t\t\t        proofR\n      SWAP1 \t\t\t                proofR\n      POP \t\t\t                proofR\n      SWAP2 \t\t\t (proofRequestIDs[i] == reques...\n      SWAP1 \t\t\t (proofRequestIDs[i] == reques...\n      POP \t\t\t (proofRequestIDs[i] == reques...\n      JUMP \t\t\t (proofRequestIDs[i] == reques...\n    tag 701\t\t\tken = 1;\\r\\n    uint256 public...\n      JUMPDEST \t\t\tken = 1;\\r\\n    uint256 public...\n      PUSH 0\t\t\t_)\\r\n      PUSH [tag] 905\t\t\tnable(initialOwner)\\r\\n    {\\r...\n      DUP3 \t\t\tror d\n      PUSH [tag] 690\t\t\tnable(initialOwner)\\r\\n    {\\r...\n      JUMP \t\t\tnable(initialOwner)\\r\\n    {\\r...\n    tag 905\t\t\tnable(initialOwner)\\r\\n    {\\r...\n      JUMPDEST \t\t\tnable(initialOwner)\\r\\n    {\\r...\n      PUSH [tag] 906\t\t\t if token id already taken, wh...\n      DUP2 \t\t\tith To\n      DUP6 \t\t\trts\n      PUSH [tag] 691\t\t\t if token id already taken, wh...\n      JUMP \t\t\t if token id already taken, wh...\n    tag 906\t\t\t if token id already taken, wh...\n      JUMPDEST \t\t\t if token id already taken, wh...\n      SWAP4 \t\t\t (check if token id already ta...\n      POP \t\t\t (check if token id already ta...\n      DUP4 \t\t\tn’t\n      PUSH 20\t\t\ttFou\n      DUP3 \t\t\tokenID\n      MUL \t\t\tor TokenIDNotFoun\n      DUP6 \t\t\t  e\n      ADD \t\t\t\\r\\n    error TokenIDNotFound\n      PUSH [tag] 907\t\t\t  /// @notice Mint a token by ...\n      DUP6 \t\t\t /// \n      PUSH [tag] 692\t\t\t  /// @notice Mint a token by ...\n      JUMP \t\t\t  /// @notice Mint a token by ...\n    tag 907\t\t\t  /// @notice Mint a token by ...\n      JUMPDEST \t\t\t  /// @notice Mint a token by ...\n      DUP1 \t\t\tst, min\n      PUSH 0\t\t\td\n    tag 908\t\t\token with a random unused ID a...\n      JUMPDEST \t\t\token with a random unused ID a...\n      DUP6 \t\t\t ID an\n      DUP2 \t\t\ts\n      LT \t\t\tunused ID and\n      ISZERO \t\t\token with a random unused ID a...\n      PUSH [tag] 910\t\t\token with a random unused ID a...\n      JUMPI \t\t\token with a random unused ID a...\n      DUP5 \t\t\t a token,\n      DUP5 \t\t\to mi\n      SUB \t\t\ton to mint a token, \n      DUP10 \t\t\tunc\n      MSTORE \t\t\t this function to mint a token...\n      DUP2 \t\t\tion, t\n      MLOAD \t\t\troduction, th\n      PUSH [tag] 911\t\t\t restricted to the owner or a ...\n      DUP6 \t\t\tpty.\n      DUP3 \t\t\t must be non-\n      PUSH [tag] 699\t\t\t restricted to the owner or a ...\n      JUMP \t\t\t restricted to the owner or a ...\n    tag 911\t\t\t restricted to the owner or a ...\n      JUMPDEST \t\t\t restricted to the owner or a ...\n      SWAP5 \t\t\thould be restricted to the own...\n      POP \t\t\thould be restricted to the own...\n      PUSH [tag] 912\t\t\t(address to, uint256 amount, b...\n      DUP4 \t\t\t   req\n      PUSH [tag] 700\t\t\t(address to, uint256 amount, b...\n      JUMP \t\t\t(address to, uint256 amount, b...\n    tag 912\t\t\t(address to, uint256 amount, b...\n      JUMPDEST \t\t\t(address to, uint256 amount, b...\n      SWAP3 \t\t\t mintToken(address to, uint256...\n      POP \t\t\t mintToken(address to, uint256...\n      PUSH 20\t\t\tName\n      DUP11 \t\t\t 0,\n      ADD \t\t\tth > 0, \"Name \n      SWAP10 \t\t\te).length > 0, \"Name \n      POP \t\t\te).length > 0, \"Name \n      POP \t\t\tnyone can call this function t...\n      PUSH 1\t\t\te\n      DUP2 \t\t\tn\n      ADD \t\t\tthe name.\n      SWAP1 \t\t\tsign the name.\n      POP \t\t\tsign the name.\n      PUSH [tag] 908\t\t\token with a random unused ID a...\n      JUMP \t\t\token with a random unused ID a...\n    tag 910\t\t\token with a random unused ID a...\n      JUMPDEST \t\t\token with a random unused ID a...\n      POP \t\t\t with a random\n      DUP3 \t\t\t56 t\n      SWAP8 \t\t\t  uint256 t\n      POP \t\t\t  uint256 t\n      DUP8 \t\t\t   \n      SWAP6 \t\t\t0;\\r\\n      \n      POP \t\t\t0;\\r\\n      \n      POP \t\t\t   ERC1155(uri_)\\r\\n    Ownabl...\n      POP \t\t\t   ERC1155(uri_)\\r\\n    Ownabl...\n      POP \t\t\t   ERC1155(uri_)\\r\\n    Ownabl...\n      POP \t\t\t   ERC1155(uri_)\\r\\n    Ownabl...\n      POP \t\t\t   ERC1155(uri_)\\r\\n    Ownabl...\n      SWAP3 \t\t\tken = 1;\\r\\n    uint256 public...\n      SWAP2 \t\t\tken = 1;\\r\\n    uint256 public...\n      POP \t\t\tken = 1;\\r\\n    uint256 public...\n      POP \t\t\tken = 1;\\r\\n    uint256 public...\n      JUMP \t\t\tken = 1;\\r\\n    uint256 public...\n    tag 49\t\t\t = false;\\r\\n        uint256[]...\n      JUMPDEST \t\t\t = false;\\r\\n        uint256[]...\n      PUSH 0\t\t\t    \n      PUSH 40\t\t\tou\n      DUP3 \t\t\t      if \n      ADD \t\t\t\\r\\n        if (foun\n      SWAP1 \t\t\t       }\\r\\n        if (foun\n      POP \t\t\t       }\\r\\n        if (foun\n      DUP2 \t\t\tata);\\r\\n  \n      DUP2 \t\t\tunt,\n      SUB \t\t\t amount, data);\\r\\n   \n      PUSH 0\t\t\tn\n      DUP4 \t\t\tnt(to, to\n      ADD \t\t\t _mint(to, tokenI\n      MSTORE \t\t\t        _mint(to, tokenID, amo...\n      PUSH [tag] 914\t\t\t         // Generate a random ...\n      DUP2 \t\t\t256 \n      DUP6 \t\t\t     u\n      PUSH [tag] 689\t\t\t         // Generate a random ...\n      JUMP \t\t\t         // Generate a random ...\n    tag 914\t\t\t         // Generate a random ...\n      JUMPDEST \t\t\t         // Generate a random ...\n      SWAP1 \t\t\te {\\r\\n            // Generate...\n      POP \t\t\te {\\r\\n            // Generate...\n      DUP2 \t\t\t newID = \n      DUP2 \t\t\t    \n      SUB \t\t\t           newID = 1\n      PUSH 20\t\t\t  \n      DUP4 \t\t\t     do {\n      ADD \t\t\t         do {\\r\\n   \n      MSTORE \t\t\t0;\\r\\n            do {\\r\\n    ...\n      PUSH [tag] 915\t\t\tcak256(abi.encodePacked(block....\n      DUP2 \t\t\td un\n      DUP5 \t\t\tle to \n      PUSH [tag] 701\t\t\tcak256(abi.encodePacked(block....\n      JUMP \t\t\tcak256(abi.encodePacked(block....\n    tag 915\t\t\tcak256(abi.encodePacked(block....\n      JUMPDEST \t\t\tcak256(abi.encodePacked(block....\n      SWAP1 \t\t\tt256(keccak256(abi.encodePacke...\n      POP \t\t\tt256(keccak256(abi.encodePacke...\n      SWAP4 \t\t\t = false;\\r\\n        uint256[]...\n      SWAP3 \t\t\t = false;\\r\\n        uint256[]...\n      POP \t\t\t = false;\\r\\n        uint256[]...\n      POP \t\t\t = false;\\r\\n        uint256[]...\n      POP \t\t\t = false;\\r\\n        uint256[]...\n      JUMP \t\t\t = false;\\r\\n        uint256[]...\n    tag 702\t\t\ten ID\");\\r\\n            } whil...\n      JUMPDEST \t\t\ten ID\");\\r\\n            } whil...\n      PUSH 0\t\t\tokenIDs\n      PUSH FFFFFFFF00000000000000000000000000000000000000000000000000000000\t\t\tequire(_allTokenIDs.add(newID)...\n      DUP3 \t\t\t     \n      AND \t\t\t          require(_allTokenIDs...\n      SWAP1 \t\t\tewID));\\r\\n            require...\n      POP \t\t\tewID));\\r\\n            require...\n      SWAP2 \t\t\ten ID\");\\r\\n            } whil...\n      SWAP1 \t\t\ten ID\");\\r\\n            } whil...\n      POP \t\t\ten ID\");\\r\\n            } whil...\n      JUMP \t\t\ten ID\");\\r\\n            } whil...\n    tag 703\t\t\tamount, data);\\r\\n            ...\n      JUMPDEST \t\t\tamount, data);\\r\\n            ...\n      PUSH [tag] 918\t\t\t\\r\\n    function burn(add\n      DUP2 \t\t\trn(ad\n      PUSH [tag] 702\t\t\t\\r\\n    function burn(add\n      JUMP \t\t\t\\r\\n    function burn(add\n    tag 918\t\t\t\\r\\n    function burn(add\n      JUMPDEST \t\t\t\\r\\n    function burn(add\n      DUP2 \t\t\t    }\n      EQ \t\t\t}\\r\\n    }\\r\\n\\r\\n    function...\n      PUSH [tag] 919\t\t\t\\r\\n        }\\r\\n    }\\r\\n\\r\\n...\n      JUMPI \t\t\t\\r\\n        }\\r\\n    }\\r\\n\\r\\n...\n      PUSH 0\t\t\ti\n      DUP1 \t\t\t,\n      REVERT \t\t\taccount, uin\n    tag 919\t\t\t\\r\\n        }\\r\\n    }\\r\\n\\r\\n...\n      JUMPDEST \t\t\t\\r\\n        }\\r\\n    }\\r\\n\\r\\n...\n      POP \t\t\tamount, data);\\r\\n            ...\n      JUMP \t\t\tamount, data);\\r\\n            ...\n    tag 704\t\t\t56 amount) external onlyOwner ...\n      JUMPDEST \t\t\t56 amount) external onlyOwner ...\n      PUSH 0\t\t\tn(acc\n      DUP2 \t\t\t// Cus\n      CALLDATALOAD \t\t\t    }\\r\\n\\r\\n    // Cust\n      SWAP1 \t\t\tmount);\\r\\n    }\\r\\n\\r\\n    //...\n      POP \t\t\tmount);\\r\\n    }\\r\\n\\r\\n    //...\n      PUSH [tag] 921\t\t\tdeclaration\\r\\n    error Proof...\n      DUP2 \t\t\tofNot\n      PUSH [tag] 703\t\t\tdeclaration\\r\\n    error Proof...\n      JUMP \t\t\tdeclaration\\r\\n    error Proof...\n    tag 921\t\t\tdeclaration\\r\\n    error Proof...\n      JUMPDEST \t\t\tdeclaration\\r\\n    error Proof...\n      SWAP3 \t\t\t56 amount) external onlyOwner ...\n      SWAP2 \t\t\t56 amount) external onlyOwner ...\n      POP \t\t\t56 amount) external onlyOwner ...\n      POP \t\t\t56 amount) external onlyOwner ...\n      JUMP \t\t\t56 amount) external onlyOwner ...\n    tag 52\t\t\t64 requestID, address proverAd...\n      JUMPDEST \t\t\t64 requestID, address proverAd...\n      PUSH 0\t\t\tnal he\n      PUSH 20\t\t\til\n      DUP3 \t\t\tokenID is\n      DUP5 \t\t\toof for\n      SUB \t\t\ty proof for tokenID is \n      SLT \t\t\tf any proof for tokenID is sti...\n      ISZERO \t\t\tt if any proof for tokenID is ...\n      PUSH [tag] 923\t\t\tt if any proof for tokenID is ...\n      JUMPI \t\t\tt if any proof for tokenID is ...\n      PUSH [tag] 924\t\t\tverified.\\r\\n    // Use this b...\n      PUSH [tag] 672\t\t\tverified.\\r\\n    // Use this b...\n      JUMP \t\t\tverified.\\r\\n    // Use this b...\n    tag 924\t\t\tverified.\\r\\n    // Use this b...\n      JUMPDEST \t\t\tverified.\\r\\n    // Use this b...\n    tag 923\t\t\tt if any proof for tokenID is ...\n      JUMPDEST \t\t\tt if any proof for tokenID is ...\n      PUSH 0\t\t\tr\n      PUSH [tag] 925\t\t\tcheckAllProofsVerified(uint256...\n      DUP5 \t\t\tess sen\n      DUP3 \t\t\tnID, a\n      DUP6 \t\t\tint256 to\n      ADD \t\t\ted(uint256 tokenID, ad\n      PUSH [tag] 704\t\t\tcheckAllProofsVerified(uint256...\n      JUMP \t\t\tcheckAllProofsVerified(uint256...\n    tag 925\t\t\tcheckAllProofsVerified(uint256...\n      JUMPDEST \t\t\tcheckAllProofsVerified(uint256...\n      SWAP2 \t\t\tfunction _checkAllProofsVerifi...\n      POP \t\t\tfunction _checkAllProofsVerifi...\n      POP \t\t\toofs as required by the prover...\n      SWAP3 \t\t\t64 requestID, address proverAd...\n      SWAP2 \t\t\t64 requestID, address proverAd...\n      POP \t\t\t64 requestID, address proverAd...\n      POP \t\t\t64 requestID, address proverAd...\n      JUMP \t\t\t64 requestID, address proverAd...\n    tag 705\t\t\tnternal view {\\r\\n        uint...\n      JUMPDEST \t\t\tnternal view {\\r\\n        uint...\n      PUSH 0\t\t\temory t\n      DUP2 \t\t\t     \n      ISZERO \t\t\tDs;\\r\\n        \n      ISZERO \t\t\tequestIDs;\\r\\n        f\n      SWAP1 \t\t\tDs = proofRequestIDs;\\r\\n     ...\n      POP \t\t\tDs = proofRequestIDs;\\r\\n     ...\n      SWAP2 \t\t\tnternal view {\\r\\n        uint...\n      SWAP1 \t\t\tnternal view {\\r\\n        uint...\n      POP \t\t\tnternal view {\\r\\n        uint...\n      JUMP \t\t\tnternal view {\\r\\n        uint...\n    tag 706\t\t\ti = 0; i < tempRequestIDs.leng...\n      JUMPDEST \t\t\ti = 0; i < tempRequestIDs.leng...\n      PUSH [tag] 928\t\t\tD_proofRequest_role[t\n      DUP2 \t\t\trole[\n      PUSH [tag] 705\t\t\tD_proofRequest_role[t\n      JUMP \t\t\tD_proofRequest_role[t\n    tag 928\t\t\tD_proofRequest_role[t\n      JUMPDEST \t\t\tD_proofRequest_role[t\n      DUP3 \t\t\toke\n      MSTORE \t\t\tole = tokenID_proofRequest_rol...\n      POP \t\t\ti = 0; i < tempRequestIDs.leng...\n      POP \t\t\ti = 0; i < tempRequestIDs.leng...\n      JUMP \t\t\ti = 0; i < tempRequestIDs.leng...\n    tag 55\t\t\tequestIDs[i]];\\r\\n            ...\n      JUMPDEST \t\t\tequestIDs[i]];\\r\\n            ...\n      PUSH 0\t\t\tcak2\n      PUSH 20\t\t\t(\"\n      DUP3 \t\t\tak256(byt\n      ADD \t\t\tkeccak256(bytes(\"s\n      SWAP1 \t\t\tle)) == keccak256(bytes(\"s\n      POP \t\t\tle)) == keccak256(bytes(\"s\n      PUSH [tag] 930\t\t\t{\\r\\n                if (!veri...\n      PUSH 0\t\t\tq\n      DUP4 \t\t\tder, temp\n      ADD \t\t\t(sender, tempRequ\n      DUP5 \t\t\toofSta\n      PUSH [tag] 706\t\t\t{\\r\\n                if (!veri...\n      JUMP \t\t\t{\\r\\n                if (!veri...\n    tag 930\t\t\t{\\r\\n                if (!veri...\n      JUMPDEST \t\t\t{\\r\\n                if (!veri...\n      SWAP3 \t\t\tequestIDs[i]];\\r\\n            ...\n      SWAP2 \t\t\tequestIDs[i]];\\r\\n            ...\n      POP \t\t\tequestIDs[i]];\\r\\n            ...\n      POP \t\t\tequestIDs[i]];\\r\\n            ...\n      JUMP \t\t\tequestIDs[i]];\\r\\n            ...\n    tag 707\t\t\terified) {\\r\\n                ...\n      JUMPDEST \t\t\terified) {\\r\\n                ...\n      PUSH 0\t\t\t\\n          \n      DUP3 \t\t\telse i\n      DUP3 \t\t\t   \n      MSTORE \t\t\t          } else if\n      PUSH 20\t\t\tk256\n      DUP3 \t\t\tkec\n      ADD \t\t\t == keccak256(\n      SWAP1 \t\t\t56(bytes(role)) == keccak256(\n      POP \t\t\t56(bytes(role)) == keccak256(\n      SWAP3 \t\t\terified) {\\r\\n                ...\n      SWAP2 \t\t\terified) {\\r\\n                ...\n      POP \t\t\terified) {\\r\\n                ...\n      POP \t\t\terified) {\\r\\n                ...\n      JUMP \t\t\terified) {\\r\\n                ...\n    tag 708\t\t\tver\"))) {\\r\\n                i...\n      JUMPDEST \t\t\tver\"))) {\\r\\n                i...\n      PUSH 0\t\t\teri\n      PUSH [tag] 933\t\t\t    revert ProofNotVerified(te...\n      DUP3 \t\t\teques\n      PUSH [tag] 693\t\t\t    revert ProofNotVerified(te...\n      JUMP \t\t\t    revert ProofNotVerified(te...\n    tag 933\t\t\t    revert ProofNotVerified(te...\n      JUMPDEST \t\t\t    revert ProofNotVerified(te...\n      PUSH [tag] 934\t\t\t);\\r\\n                }\\r\\n   ...\n      DUP2 \t\t\t Overr\n      DUP6 \t\t\t   \n      PUSH [tag] 707\t\t\t);\\r\\n                }\\r\\n   ...\n      JUMP \t\t\t);\\r\\n                }\\r\\n   ...\n    tag 934\t\t\t);\\r\\n                }\\r\\n   ...\n      JUMPDEST \t\t\t);\\r\\n                }\\r\\n   ...\n      SWAP4 \t\t\teceiver);\\r\\n                }...\n      POP \t\t\teceiver);\\r\\n                }...\n      PUSH [tag] 935\t\t\tansferFrom and include the onl...\n      DUP2 \t\t\tunctio\n      DUP6 \t\t\t   \n      PUSH 20\t\t\tifie\n      DUP7 \t\t\tofs m\n      ADD \t\t\tdProofs modifier\n      PUSH [tag] 695\t\t\tansferFrom and include the onl...\n      JUMP \t\t\tansferFrom and include the onl...\n    tag 935\t\t\tansferFrom and include the onl...\n      JUMPDEST \t\t\tansferFrom and include the onl...\n      PUSH [tag] 936\t\t\t   address from,\\r\\n        ad...\n      DUP2 \t\t\t    ad\n      PUSH [tag] 696\t\t\t   address from,\\r\\n        ad...\n      JUMP \t\t\t   address from,\\r\\n        ad...\n    tag 936\t\t\t   address from,\\r\\n        ad...\n      JUMPDEST \t\t\t   address from,\\r\\n        ad...\n      DUP5 \t\t\t   \n      ADD \t\t\tm(\\r\\n        address from,\\r\\...\n      SWAP2 \t\t\tsferFrom(\\r\\n        address f...\n      POP \t\t\tsferFrom(\\r\\n        address f...\n      POP \t\t\tied) {\\r\\n                    ...\n      SWAP3 \t\t\tver\"))) {\\r\\n                i...\n      SWAP2 \t\t\tver\"))) {\\r\\n                i...\n      POP \t\t\tver\"))) {\\r\\n                i...\n      POP \t\t\tver\"))) {\\r\\n                i...\n      JUMP \t\t\tver\"))) {\\r\\n                i...\n    tag 60\t\t\t     uint256 tokenID,\\r\\n     ...\n      JUMPDEST \t\t\t     uint256 tokenID,\\r\\n     ...\n      PUSH 0\t\t\t   /\n      PUSH 20\t\t\t  \n      DUP3 \t\t\tof checks\n      ADD \t\t\t proof checks\\r\\n   \n      SWAP1 \t\t\ter-token proof checks\\r\\n   \n      POP \t\t\ter-token proof checks\\r\\n   \n      DUP2 \t\t\t);\\r\\n\\r\\n   \n      DUP2 \t\t\tom, \n      SUB \t\t\t, from, to);\\r\\n\\r\\n    \n      PUSH 0\t\t\te\n      DUP4 \t\t\terified(t\n      ADD \t\t\tofsVerified(token\n      MSTORE \t\t\tkAllProofsVerified(tokenID, fr...\n      PUSH [tag] 938\t\t\tadd any additional custom logi...\n      DUP2 \t\t\t, to\n      DUP5 \t\t\tFrom(f\n      PUSH [tag] 708\t\t\tadd any additional custom logi...\n      JUMP \t\t\tadd any additional custom logi...\n    tag 938\t\t\tadd any additional custom logi...\n      JUMPDEST \t\t\tadd any additional custom logi...\n      SWAP1 \t\t\tionally add any additional cus...\n      POP \t\t\tionally add any additional cus...\n      SWAP3 \t\t\t     uint256 tokenID,\\r\\n     ...\n      SWAP2 \t\t\t     uint256 tokenID,\\r\\n     ...\n      POP \t\t\t     uint256 tokenID,\\r\\n     ...\n      POP \t\t\t     uint256 tokenID,\\r\\n     ...\n      JUMP \t\t\t     uint256 tokenID,\\r\\n     ...\n    tag 63\t\t\tunt, data);\\r\\n    }\\r\\n\\r\\n  ...\n      JUMPDEST \t\t\tunt, data);\\r\\n    }\\r\\n\\r\\n  ...\n      PUSH 0\t\t\t      \n      PUSH 20\t\t\t  \n      DUP3 \t\t\ts to,\\r\\n  \n      DUP5 \t\t\t   addr\n      SUB \t\t\t       address to,\\r\\n   \n      SLT \t\t\t,\\r\\n        address to,\\r\\n  ...\n      ISZERO \t\t\trom,\\r\\n        address to,\\r\\...\n      PUSH [tag] 940\t\t\trom,\\r\\n        address to,\\r\\...\n      JUMPI \t\t\trom,\\r\\n        address to,\\r\\...\n      PUSH [tag] 941\t\t\tt256[] memory tokenIDs,\\r\\n   ...\n      PUSH [tag] 672\t\t\tt256[] memory tokenIDs,\\r\\n   ...\n      JUMP \t\t\tt256[] memory tokenIDs,\\r\\n   ...\n    tag 941\t\t\tt256[] memory tokenIDs,\\r\\n   ...\n      JUMPDEST \t\t\tt256[] memory tokenIDs,\\r\\n   ...\n    tag 940\t\t\trom,\\r\\n        address to,\\r\\...\n      JUMPDEST \t\t\trom,\\r\\n        address to,\\r\\...\n      PUSH 0\t\t\t \n      PUSH [tag] 942\t\t\tlength == amounts.length, \"ERC...\n      DUP5 \t\t\td array\n      DUP3 \t\t\tMismat\n      DUP6 \t\t\t \"ERC1155\n      ADD \t\t\tgth, \"ERC1155: Mismatc\n      PUSH [tag] 677\t\t\tlength == amounts.length, \"ERC...\n      JUMP \t\t\tlength == amounts.length, \"ERC...\n    tag 942\t\t\tlength == amounts.length, \"ERC...\n      JUMPDEST \t\t\tlength == amounts.length, \"ERC...\n      SWAP2 \t\t\t(tokenIDs.length == amounts.le...\n      POP \t\t\t(tokenIDs.length == amounts.le...\n      POP \t\t\t) public virtual override {\\r\\...\n      SWAP3 \t\t\tunt, data);\\r\\n    }\\r\\n\\r\\n  ...\n      SWAP2 \t\t\tunt, data);\\r\\n    }\\r\\n\\r\\n  ...\n      POP \t\t\tunt, data);\\r\\n    }\\r\\n\\r\\n  ...\n      POP \t\t\tunt, data);\\r\\n    }\\r\\n\\r\\n  ...\n      JUMP \t\t\tunt, data);\\r\\n    }\\r\\n\\r\\n  ...\n    tag 709\t\t\tuire(to != address(0), \"ERC115...\n      JUMPDEST \t\t\tuire(to != address(0), \"ERC115...\n      PUSH 0\t\t\t155\n      DUP2 \t\t\tzero \n      SWAP1 \t\t\tto the zero \n      POP \t\t\tto the zero \n      SWAP2 \t\t\tuire(to != address(0), \"ERC115...\n      SWAP1 \t\t\tuire(to != address(0), \"ERC115...\n      POP \t\t\tuire(to != address(0), \"ERC115...\n      JUMP \t\t\tuire(to != address(0), \"ERC115...\n    tag 710\t\t\t        for (uint256 i = 0; i ...\n      JUMPDEST \t\t\t        for (uint256 i = 0; i ...\n      PUSH 0\t\t\t+i) {\\r\\n  \n      PUSH [tag] 945\t\t\t-token proof checks\\r\\n       ...\n      PUSH [tag] 946\t\t\ts\\r\\n            _checkAllProo...\n      PUSH [tag] 947\t\t\t      _checkAllProofsVer\n      DUP5 \t\t\tofsVe\n      PUSH [tag] 674\t\t\t      _checkAllProofsVer\n      JUMP \t\t\t      _checkAllProofsVer\n    tag 947\t\t\t      _checkAllProofsVer\n      JUMPDEST \t\t\t      _checkAllProofsVer\n      PUSH [tag] 709\t\t\ts\\r\\n            _checkAllProo...\n      JUMP \t\t\ts\\r\\n            _checkAllProo...\n    tag 946\t\t\ts\\r\\n            _checkAllProo...\n      JUMPDEST \t\t\ts\\r\\n            _checkAllProo...\n      PUSH [tag] 674\t\t\t-token proof checks\\r\\n       ...\n      JUMP \t\t\t-token proof checks\\r\\n       ...\n    tag 945\t\t\t-token proof checks\\r\\n       ...\n      JUMPDEST \t\t\t-token proof checks\\r\\n       ...\n      SWAP1 \t\t\t/ Enforce per-token proof chec...\n      POP \t\t\t/ Enforce per-token proof chec...\n      SWAP2 \t\t\t        for (uint256 i = 0; i ...\n      SWAP1 \t\t\t        for (uint256 i = 0; i ...\n      POP \t\t\t        for (uint256 i = 0; i ...\n      JUMP \t\t\t        for (uint256 i = 0; i ...\n    tag 711\t\t\t[i], from, to);\\r\\n           ...\n      JUMPDEST \t\t\t[i], from, to);\\r\\n           ...\n      PUSH 0\t\t\t, to, tok\n      PUSH [tag] 949\t\t\tta);\\r\\n        }\\r\\n    }\\r\\n...\n      DUP3 \t\t\t\n      PUSH [tag] 710\t\t\tta);\\r\\n        }\\r\\n    }\\r\\n...\n      JUMP \t\t\tta);\\r\\n        }\\r\\n    }\\r\\n...\n    tag 949\t\t\tta);\\r\\n        }\\r\\n    }\\r\\n...\n      JUMPDEST \t\t\tta);\\r\\n        }\\r\\n    }\\r\\n...\n      SWAP1 \t\t\tmounts[i], data);\\r\\n        }...\n      POP \t\t\tmounts[i], data);\\r\\n        }...\n      SWAP2 \t\t\t[i], from, to);\\r\\n           ...\n      SWAP1 \t\t\t[i], from, to);\\r\\n           ...\n      POP \t\t\t[i], from, to);\\r\\n           ...\n      JUMP \t\t\t[i], from, to);\\r\\n           ...\n    tag 712\t\t\t\n      JUMPDEST \t\t\t\n      PUSH 0\t\t\t\n      PUSH [tag] 951\t\t\t\n      DUP3 \t\t\t\n      PUSH [tag] 711\t\t\t\n      JUMP \t\t\t\n    tag 951\t\t\t\n      JUMPDEST \t\t\t\n      SWAP1 \t\t\t\n      POP \t\t\t\n      SWAP2 \t\t\t\n      SWAP1 \t\t\t\n      POP \t\t\t\n      JUMP \t\t\t\n    tag 713\t\t\t\n      JUMPDEST \t\t\t\n      PUSH [tag] 953\t\t\t\n      DUP2 \t\t\t\n      PUSH [tag] 712\t\t\t\n      JUMP \t\t\t\n    tag 953\t\t\t\n      JUMPDEST \t\t\t\n      DUP3 \t\t\t\n      MSTORE \t\t\t\n      POP \t\t\t\n      POP \t\t\t\n      JUMP \t\t\t\n    tag 68\t\t\t\n      JUMPDEST \t\t\t\n      PUSH 0\t\t\t\n      PUSH 20\t\t\t\n      DUP3 \t\t\t\n      ADD \t\t\t\n      SWAP1 \t\t\t\n      POP \t\t\t\n      PUSH [tag] 955\t\t\t\n      PUSH 0\t\t\t\n      DUP4 \t\t\t\n      ADD \t\t\t\n      DUP5 \t\t\t\n      PUSH [tag] 713\t\t\t\n      JUMP \t\t\t\n    tag 955\t\t\t\n      JUMPDEST \t\t\t\n      SWAP3 \t\t\t\n      SWAP2 \t\t\t\n      POP \t\t\t\n      POP \t\t\t\n      JUMP \t\t\t\n    tag 714\t\t\t\n      JUMPDEST \t\t\t\n      PUSH 0\t\t\t\n      DUP1 \t\t\t\n      REVERT \t\t\t\n    tag 715\t\t\t\n      JUMPDEST \t\t\t\n      PUSH 0\t\t\t\n      DUP1 \t\t\t\n      REVERT \t\t\t\n    tag 716\t\t\t\n      JUMPDEST \t\t\t\n      PUSH 0\t\t\t\n      DUP1 \t\t\t\n      REVERT \t\t\t\n    tag 717\t\t\t\n      JUMPDEST \t\t\t\n      PUSH 0\t\t\t\n      DUP1 \t\t\t\n      DUP4 \t\t\t\n      PUSH 1F\t\t\t\n      DUP5 \t\t\t\n      ADD \t\t\t\n      SLT \t\t\t\n      PUSH [tag] 960\t\t\t\n      JUMPI \t\t\t\n      PUSH [tag] 961\t\t\t\n      PUSH [tag] 714\t\t\t\n      JUMP \t\t\t\n    tag 961\t\t\t\n      JUMPDEST \t\t\t\n    tag 960\t\t\t\n      JUMPDEST \t\t\t\n      DUP3 \t\t\t\n      CALLDATALOAD \t\t\t\n      SWAP1 \t\t\t\n      POP \t\t\t\n      PUSH FFFFFFFFFFFFFFFF\t\t\t\n      DUP2 \t\t\t\n      GT \t\t\t\n      ISZERO \t\t\t\n      PUSH [tag] 962\t\t\t\n      JUMPI \t\t\t\n      PUSH [tag] 963\t\t\t\n      PUSH [tag] 715\t\t\t\n      JUMP \t\t\t\n    tag 963\t\t\t\n      JUMPDEST \t\t\t\n    tag 962\t\t\t\n      JUMPDEST \t\t\t\n      PUSH 20\t\t\t\n      DUP4 \t\t\t\n      ADD \t\t\t\n      SWAP2 \t\t\t\n      POP \t\t\t\n      DUP4 \t\t\t\n      PUSH 1\t\t\t\n      DUP3 \t\t\t\n      MUL \t\t\t\n      DUP4 \t\t\t\n      ADD \t\t\t\n      GT \t\t\t\n      ISZERO \t\t\t\n      PUSH [tag] 964\t\t\t\n      JUMPI \t\t\t\n      PUSH [tag] 965\t\t\t\n      PUSH [tag] 716\t\t\t\n      JUMP \t\t\t\n    tag 965\t\t\t\n      JUMPDEST \t\t\t\n    tag 964\t\t\t\n      JUMPDEST \t\t\t\n      SWAP3 \t\t\t\n      POP \t\t\t\n      SWAP3 \t\t\t\n      SWAP1 \t\t\t\n      POP \t\t\t\n      JUMP \t\t\t\n    tag 718\t\t\t\n      JUMPDEST \t\t\t\n      PUSH 0\t\t\t\n      DUP1 \t\t\t\n      DUP4 \t\t\t\n      PUSH 1F\t\t\t\n      DUP5 \t\t\t\n      ADD \t\t\t\n      SLT \t\t\t\n      PUSH [tag] 967\t\t\t\n      JUMPI \t\t\t\n      PUSH [tag] 968\t\t\t\n      PUSH [tag] 714\t\t\t\n      JUMP \t\t\t\n    tag 968\t\t\t\n      JUMPDEST \t\t\t\n    tag 967\t\t\t\n      JUMPDEST \t\t\t\n      DUP3 \t\t\t\n      CALLDATALOAD \t\t\t\n      SWAP1 \t\t\t\n      POP \t\t\t\n      PUSH FFFFFFFFFFFFFFFF\t\t\t\n      DUP2 \t\t\t\n      GT \t\t\t\n      ISZERO \t\t\t\n      PUSH [tag] 969\t\t\t\n      JUMPI \t\t\t\n      PUSH [tag] 970\t\t\t\n      PUSH [tag] 715\t\t\t\n      JUMP \t\t\t\n    tag 970\t\t\t\n      JUMPDEST \t\t\t\n    tag 969\t\t\t\n      JUMPDEST \t\t\t\n      PUSH 20\t\t\t\n      DUP4 \t\t\t\n      ADD \t\t\t\n      SWAP2 \t\t\t\n      POP \t\t\t\n      DUP4 \t\t\t\n      PUSH 1\t\t\t\n      DUP3 \t\t\t\n      MUL \t\t\t\n      DUP4 \t\t\t\n      ADD \t\t\t\n      GT \t\t\t\n      ISZERO \t\t\t\n      PUSH [tag] 971\t\t\t\n      JUMPI \t\t\t\n      PUSH [tag] 972\t\t\t\n      PUSH [tag] 716\t\t\t\n      JUMP \t\t\t\n    tag 972\t\t\t\n      JUMPDEST \t\t\t\n    tag 971\t\t\t\n      JUMPDEST \t\t\t\n      SWAP3 \t\t\t\n      POP \t\t\t\n      SWAP3 \t\t\t\n      SWAP1 \t\t\t\n      POP \t\t\t\n      JUMP \t\t\t\n    tag 71\t\t\t\n      JUMPDEST \t\t\t\n      PUSH 0\t\t\t\n      DUP1 \t\t\t\n      PUSH 0\t\t\t\n      DUP1 \t\t\t\n      PUSH 0\t\t\t\n      DUP1 \t\t\t\n      PUSH 80\t\t\t\n      DUP8 \t\t\t\n      DUP10 \t\t\t\n      SUB \t\t\t\n      SLT \t\t\t\n      ISZERO \t\t\t\n      PUSH [tag] 974\t\t\t\n      JUMPI \t\t\t\n      PUSH [tag] 975\t\t\t\n      PUSH [tag] 672\t\t\t\n      JUMP \t\t\t\n    tag 975\t\t\t\n      JUMPDEST \t\t\t\n    tag 974\t\t\t\n      JUMPDEST \t\t\t\n      PUSH 0\t\t\t\n      PUSH [tag] 976\t\t\t\n      DUP10 \t\t\t\n      DUP3 \t\t\t\n      DUP11 \t\t\t\n      ADD \t\t\t\n      PUSH [tag] 677\t\t\t\n      JUMP \t\t\t\n    tag 976\t\t\t\n      JUMPDEST \t\t\t\n      SWAP7 \t\t\t\n      POP \t\t\t\n      POP \t\t\t\n      PUSH 20\t\t\t\n      PUSH [tag] 977\t\t\t\n      DUP10 \t\t\t\n      DUP3 \t\t\t\n      DUP11 \t\t\t\n      ADD \t\t\t\n      PUSH [tag] 680\t\t\t\n      JUMP \t\t\t\n    tag 977\t\t\t\n      JUMPDEST \t\t\t\n      SWAP6 \t\t\t\n      POP \t\t\t\n      POP \t\t\t\n      PUSH 40\t\t\t\n      DUP8 \t\t\t\n      ADD \t\t\t\n      CALLDATALOAD \t\t\t\n      PUSH FFFFFFFFFFFFFFFF\t\t\t\n      DUP2 \t\t\t\n      GT \t\t\t\n      ISZERO \t\t\t\n      PUSH [tag] 978\t\t\t\n      JUMPI \t\t\t\n      PUSH [tag] 979\t\t\t\n      PUSH [tag] 673\t\t\t\n      JUMP \t\t\t\n    tag 979\t\t\t\n      JUMPDEST \t\t\t\n    tag 978\t\t\t\n      JUMPDEST \t\t\t\n      PUSH [tag] 980\t\t\t\n      DUP10 \t\t\t\n      DUP3 \t\t\t\n      DUP11 \t\t\t\n      ADD \t\t\t\n      PUSH [tag] 717\t\t\t\n      JUMP \t\t\t\n    tag 980\t\t\t\n      JUMPDEST \t\t\t\n      SWAP5 \t\t\t\n      POP \t\t\t\n      SWAP5 \t\t\t\n      POP \t\t\t\n      POP \t\t\t\n      PUSH 60\t\t\t\n      DUP8 \t\t\t\n      ADD \t\t\t\n      CALLDATALOAD \t\t\t\n      PUSH FFFFFFFFFFFFFFFF\t\t\t\n      DUP2 \t\t\t\n      GT \t\t\t\n      ISZERO \t\t\t\n      PUSH [tag] 981\t\t\t\n      JUMPI \t\t\t\n      PUSH [tag] 982\t\t\t\n      PUSH [tag] 673\t\t\t\n      JUMP \t\t\t\n    tag 982\t\t\t\n      JUMPDEST \t\t\t\n    tag 981\t\t\t\n      JUMPDEST \t\t\t\n      PUSH [tag] 983\t\t\t\n      DUP10 \t\t\t\n      DUP3 \t\t\t\n      DUP11 \t\t\t\n      ADD \t\t\t\n      PUSH [tag] 718\t\t\t\n      JUMP \t\t\t\n    tag 983\t\t\t\n      JUMPDEST \t\t\t\n      SWAP3 \t\t\t\n      POP \t\t\t\n      SWAP3 \t\t\t\n      POP \t\t\t\n      POP \t\t\t\n      SWAP3 \t\t\t\n      SWAP6 \t\t\t\n      POP \t\t\t\n      SWAP3 \t\t\t\n      SWAP6 \t\t\t\n      POP \t\t\t\n      SWAP3 \t\t\t\n      SWAP6 \t\t\t\n      JUMP \t\t\t\n    tag 173\t\t\t\n      JUMPDEST \t\t\t\n      PUSH 4E487B7100000000000000000000000000000000000000000000000000000000\t\t\t\n      PUSH 0\t\t\t\n      MSTORE \t\t\t\n      PUSH 41\t\t\t\n      PUSH 4\t\t\t\n      MSTORE \t\t\t\n      PUSH 24\t\t\t\n      PUSH 0\t\t\t\n      REVERT \t\t\t\n    tag 719\t\t\t\n      JUMPDEST \t\t\t\n      PUSH [tag] 986\t\t\t\n      DUP3 \t\t\t\n      PUSH [tag] 696\t\t\t\n      JUMP \t\t\t\n    tag 986\t\t\t\n      JUMPDEST \t\t\t\n      DUP2 \t\t\t\n      ADD \t\t\t\n      DUP2 \t\t\t\n      DUP2 \t\t\t\n      LT \t\t\t\n      PUSH FFFFFFFFFFFFFFFF\t\t\t\n      DUP3 \t\t\t\n      GT \t\t\t\n      OR \t\t\t\n      ISZERO \t\t\t\n      PUSH [tag] 987\t\t\t\n      JUMPI \t\t\t\n      PUSH [tag] 988\t\t\t\n      PUSH [tag] 173\t\t\t\n      JUMP \t\t\t\n    tag 988\t\t\t\n      JUMPDEST \t\t\t\n    tag 987\t\t\t\n      JUMPDEST \t\t\t\n      DUP1 \t\t\t\n      PUSH 40\t\t\t\n      MSTORE \t\t\t\n      POP \t\t\t\n      POP \t\t\t\n      POP \t\t\t\n      JUMP \t\t\t\n    tag 720\t\t\t\n      JUMPDEST \t\t\t\n      PUSH 0\t\t\t\n      PUSH [tag] 990\t\t\t\n      PUSH [tag] 671\t\t\t\n      JUMP \t\t\t\n    tag 990\t\t\t\n      JUMPDEST \t\t\t\n      SWAP1 \t\t\t\n      POP \t\t\t\n      PUSH [tag] 991\t\t\t\n      DUP3 \t\t\t\n      DUP3 \t\t\t\n      PUSH [tag] 719\t\t\t\n      JUMP \t\t\t\n    tag 991\t\t\t\n      JUMPDEST \t\t\t\n      SWAP2 \t\t\t\n      SWAP1 \t\t\t\n      POP \t\t\t\n      JUMP \t\t\t\n    tag 721\t\t\t\n      JUMPDEST \t\t\t\n      PUSH 0\t\t\t\n      PUSH FFFFFFFFFFFFFFFF\t\t\t\n      DUP3 \t\t\t\n      GT \t\t\t\n      ISZERO \t\t\t\n      PUSH [tag] 993\t\t\t\n      JUMPI \t\t\t\n      PUSH [tag] 994\t\t\t\n      PUSH [tag] 173\t\t\t\n      JUMP \t\t\t\n    tag 994\t\t\t\n      JUMPDEST \t\t\t\n    tag 993\t\t\t\n      JUMPDEST \t\t\t\n      PUSH 20\t\t\t\n      DUP3 \t\t\t\n      MUL \t\t\t\n      SWAP1 \t\t\t\n      POP \t\t\t\n      PUSH 20\t\t\t\n      DUP2 \t\t\t\n      ADD \t\t\t\n      SWAP1 \t\t\t\n      POP \t\t\t\n      SWAP2 \t\t\t\n      SWAP1 \t\t\t\n      POP \t\t\t\n      JUMP \t\t\t\n    tag 722\t\t\t\n      JUMPDEST \t\t\t\n      PUSH 0\t\t\t\n      PUSH [tag] 996\t\t\t\n      PUSH [tag] 997\t\t\t\n      DUP5 \t\t\t\n      PUSH [tag] 721\t\t\t\n      JUMP \t\t\t\n    tag 997\t\t\t\n      JUMPDEST \t\t\t\n      PUSH [tag] 720\t\t\t\n      JUMP \t\t\t\n    tag 996\t\t\t\n      JUMPDEST \t\t\t\n      SWAP1 \t\t\t\n      POP \t\t\t\n      DUP1 \t\t\t\n      DUP4 \t\t\t\n      DUP3 \t\t\t\n      MSTORE \t\t\t\n      PUSH 20\t\t\t\n      DUP3 \t\t\t\n      ADD \t\t\t\n      SWAP1 \t\t\t\n      POP \t\t\t\n      PUSH 20\t\t\t\n      DUP5 \t\t\t\n      MUL \t\t\t\n      DUP4 \t\t\t\n      ADD \t\t\t\n      DUP6 \t\t\t\n      DUP2 \t\t\t\n      GT \t\t\t\n      ISZERO \t\t\t\n      PUSH [tag] 998\t\t\t\n      JUMPI \t\t\t\n      PUSH [tag] 999\t\t\t\n      PUSH [tag] 716\t\t\t\n      JUMP \t\t\t\n    tag 999\t\t\t\n      JUMPDEST \t\t\t\n    tag 998\t\t\t\n      JUMPDEST \t\t\t\n      DUP4 \t\t\t\n    tag 1000\t\t\t\n      JUMPDEST \t\t\t\n      DUP2 \t\t\t\n      DUP2 \t\t\t\n      LT \t\t\t\n      ISZERO \t\t\t\n      PUSH [tag] 1002\t\t\t\n      JUMPI \t\t\t\n      DUP1 \t\t\t\n      PUSH [tag] 1003\t\t\t\n      DUP9 \t\t\t\n      DUP3 \t\t\t\n      PUSH [tag] 680\t\t\t\n      JUMP \t\t\t\n    tag 1003\t\t\t\n      JUMPDEST \t\t\t\n      DUP5 \t\t\t\n      MSTORE \t\t\t\n      PUSH 20\t\t\t\n      DUP5 \t\t\t\n      ADD \t\t\t\n      SWAP4 \t\t\t\n      POP \t\t\t\n      POP \t\t\t\n      PUSH 20\t\t\t\n      DUP2 \t\t\t\n      ADD \t\t\t\n      SWAP1 \t\t\t\n      POP \t\t\t\n      PUSH [tag] 1000\t\t\t\n      JUMP \t\t\t\n    tag 1002\t\t\t\n      JUMPDEST \t\t\t\n      POP \t\t\t\n      POP \t\t\t\n      POP \t\t\t\n      SWAP4 \t\t\t\n      SWAP3 \t\t\t\n      POP \t\t\t\n      POP \t\t\t\n      POP \t\t\t\n      JUMP \t\t\t\n    tag 723\t\t\t\n      JUMPDEST \t\t\t\n      PUSH 0\t\t\t\n      DUP3 \t\t\t\n      PUSH 1F\t\t\t\n      DUP4 \t\t\t\n      ADD \t\t\t\n      SLT \t\t\t\n      PUSH [tag] 1005\t\t\t\n      JUMPI \t\t\t\n      PUSH [tag] 1006\t\t\t\n      PUSH [tag] 714\t\t\t\n      JUMP \t\t\t\n    tag 1006\t\t\t\n      JUMPDEST \t\t\t\n    tag 1005\t\t\t\n      JUMPDEST \t\t\t\n      DUP2 \t\t\t\n      CALLDATALOAD \t\t\t\n      PUSH [tag] 1007\t\t\t\n      DUP5 \t\t\t\n      DUP3 \t\t\t\n      PUSH 20\t\t\t\n      DUP7 \t\t\t\n      ADD \t\t\t\n      PUSH [tag] 722\t\t\t\n      JUMP \t\t\t\n    tag 1007\t\t\t\n      JUMPDEST \t\t\t\n      SWAP2 \t\t\t\n      POP \t\t\t\n      POP \t\t\t\n      SWAP3 \t\t\t\n      SWAP2 \t\t\t\n      POP \t\t\t\n      POP \t\t\t\n      JUMP \t\t\t\n    tag 724\t\t\t\n      JUMPDEST \t\t\t\n      PUSH 0\t\t\t\n      DUP1 \t\t\t\n      REVERT \t\t\t\n    tag 725\t\t\t\n      JUMPDEST \t\t\t\n      PUSH 0\t\t\t\n      PUSH FFFFFFFFFFFFFFFF\t\t\t\n      DUP3 \t\t\t\n      GT \t\t\t\n      ISZERO \t\t\t\n      PUSH [tag] 1010\t\t\t\n      JUMPI \t\t\t\n      PUSH [tag] 1011\t\t\t\n      PUSH [tag] 173\t\t\t\n      JUMP \t\t\t\n    tag 1011\t\t\t\n      JUMPDEST \t\t\t\n    tag 1010\t\t\t\n      JUMPDEST \t\t\t\n      PUSH [tag] 1012\t\t\t\n      DUP3 \t\t\t\n      PUSH [tag] 696\t\t\t\n      JUMP \t\t\t\n    tag 1012\t\t\t\n      JUMPDEST \t\t\t\n      SWAP1 \t\t\t\n      POP \t\t\t\n      PUSH 20\t\t\t\n      DUP2 \t\t\t\n      ADD \t\t\t\n      SWAP1 \t\t\t\n      POP \t\t\t\n      SWAP2 \t\t\t\n      SWAP1 \t\t\t\n      POP \t\t\t\n      JUMP \t\t\t\n    tag 726\t\t\t\n      JUMPDEST \t\t\t\n      DUP3 \t\t\t\n      DUP2 \t\t\t\n      DUP4 \t\t\t\n      CALLDATACOPY \t\t\t\n      PUSH 0\t\t\t\n      DUP4 \t\t\t\n      DUP4 \t\t\t\n      ADD \t\t\t\n      MSTORE \t\t\t\n      POP \t\t\t\n      POP \t\t\t\n      POP \t\t\t\n      JUMP \t\t\t\n    tag 727\t\t\t\n      JUMPDEST \t\t\t\n      PUSH 0\t\t\t\n      PUSH [tag] 1015\t\t\t\n      PUSH [tag] 1016\t\t\t\n      DUP5 \t\t\t\n      PUSH [tag] 725\t\t\t\n      JUMP \t\t\t\n    tag 1016\t\t\t\n      JUMPDEST \t\t\t\n      PUSH [tag] 720\t\t\t\n      JUMP \t\t\t\n    tag 1015\t\t\t\n      JUMPDEST \t\t\t\n      SWAP1 \t\t\t\n      POP \t\t\t\n      DUP3 \t\t\t\n      DUP2 \t\t\t\n      MSTORE \t\t\t\n      PUSH 20\t\t\t\n      DUP2 \t\t\t\n      ADD \t\t\t\n      DUP5 \t\t\t\n      DUP5 \t\t\t\n      DUP5 \t\t\t\n      ADD \t\t\t\n      GT \t\t\t\n      ISZERO \t\t\t\n      PUSH [tag] 1017\t\t\t\n      JUMPI \t\t\t\n      PUSH [tag] 1018\t\t\t\n      PUSH [tag] 724\t\t\t\n      JUMP \t\t\t\n    tag 1018\t\t\t\n      JUMPDEST \t\t\t\n    tag 1017\t\t\t\n      JUMPDEST \t\t\t\n      PUSH [tag] 1019\t\t\t\n      DUP5 \t\t\t\n      DUP3 \t\t\t\n      DUP6 \t\t\t\n      PUSH [tag] 726\t\t\t\n      JUMP \t\t\t\n    tag 1019\t\t\t\n      JUMPDEST \t\t\t\n      POP \t\t\t\n      SWAP4 \t\t\t\n      SWAP3 \t\t\t\n      POP \t\t\t\n      POP \t\t\t\n      POP \t\t\t\n      JUMP \t\t\t\n    tag 728\t\t\t\n      JUMPDEST \t\t\t\n      PUSH 0\t\t\t\n      DUP3 \t\t\t\n      PUSH 1F\t\t\t\n      DUP4 \t\t\t\n      ADD \t\t\t\n      SLT \t\t\t\n      PUSH [tag] 1021\t\t\t\n      JUMPI \t\t\t\n      PUSH [tag] 1022\t\t\t\n      PUSH [tag] 714\t\t\t\n      JUMP \t\t\t\n    tag 1022\t\t\t\n      JUMPDEST \t\t\t\n    tag 1021\t\t\t\n      JUMPDEST \t\t\t\n      DUP2 \t\t\t\n      CALLDATALOAD \t\t\t\n      PUSH [tag] 1023\t\t\t\n      DUP5 \t\t\t\n      DUP3 \t\t\t\n      PUSH 20\t\t\t\n      DUP7 \t\t\t\n      ADD \t\t\t\n      PUSH [tag] 727\t\t\t\n      JUMP \t\t\t\n    tag 1023\t\t\t\n      JUMPDEST \t\t\t\n      SWAP2 \t\t\t\n      POP \t\t\t\n      POP \t\t\t\n      SWAP3 \t\t\t\n      SWAP2 \t\t\t\n      POP \t\t\t\n      POP \t\t\t\n      JUMP \t\t\t\n    tag 75\t\t\t\n      JUMPDEST \t\t\t\n      PUSH 0\t\t\t\n      DUP1 \t\t\t\n      PUSH 0\t\t\t\n      DUP1 \t\t\t\n      PUSH 0\t\t\t\n      PUSH A0\t\t\t\n      DUP7 \t\t\t\n      DUP9 \t\t\t\n      SUB \t\t\t\n      SLT \t\t\t\n      ISZERO \t\t\t\n      PUSH [tag] 1025\t\t\t\n      JUMPI \t\t\t\n      PUSH [tag] 1026\t\t\t\n      PUSH [tag] 672\t\t\t\n      JUMP \t\t\t\n    tag 1026\t\t\t\n      JUMPDEST \t\t\t\n    tag 1025\t\t\t\n      JUMPDEST \t\t\t\n      PUSH 0\t\t\t\n      PUSH [tag] 1027\t\t\t\n      DUP9 \t\t\t\n      DUP3 \t\t\t\n      DUP10 \t\t\t\n      ADD \t\t\t\n      PUSH [tag] 677\t\t\t\n      JUMP \t\t\t\n    tag 1027\t\t\t\n      JUMPDEST \t\t\t\n      SWAP6 \t\t\t\n      POP \t\t\t\n      POP \t\t\t\n      PUSH 20\t\t\t\n      PUSH [tag] 1028\t\t\t\n      DUP9 \t\t\t\n      DUP3 \t\t\t\n      DUP10 \t\t\t\n      ADD \t\t\t\n      PUSH [tag] 677\t\t\t\n      JUMP \t\t\t\n    tag 1028\t\t\t\n      JUMPDEST \t\t\t\n      SWAP5 \t\t\t\n      POP \t\t\t\n      POP \t\t\t\n      PUSH 40\t\t\t\n      DUP7 \t\t\t\n      ADD \t\t\t\n      CALLDATALOAD \t\t\t\n      PUSH FFFFFFFFFFFFFFFF\t\t\t\n      DUP2 \t\t\t\n      GT \t\t\t\n      ISZERO \t\t\t\n      PUSH [tag] 1029\t\t\t\n      JUMPI \t\t\t\n      PUSH [tag] 1030\t\t\t\n      PUSH [tag] 673\t\t\t\n      JUMP \t\t\t\n    tag 1030\t\t\t\n      JUMPDEST \t\t\t\n    tag 1029\t\t\t\n      JUMPDEST \t\t\t\n      PUSH [tag] 1031\t\t\t\n      DUP9 \t\t\t\n      DUP3 \t\t\t\n      DUP10 \t\t\t\n      ADD \t\t\t\n      PUSH [tag] 723\t\t\t\n      JUMP \t\t\t\n    tag 1031\t\t\t\n      JUMPDEST \t\t\t\n      SWAP4 \t\t\t\n      POP \t\t\t\n      POP \t\t\t\n      PUSH 60\t\t\t\n      DUP7 \t\t\t\n      ADD \t\t\t\n      CALLDATALOAD \t\t\t\n      PUSH FFFFFFFFFFFFFFFF\t\t\t\n      DUP2 \t\t\t\n      GT \t\t\t\n      ISZERO \t\t\t\n      PUSH [tag] 1032\t\t\t\n      JUMPI \t\t\t\n      PUSH [tag] 1033\t\t\t\n      PUSH [tag] 673\t\t\t\n      JUMP \t\t\t\n    tag 1033\t\t\t\n      JUMPDEST \t\t\t\n    tag 1032\t\t\t\n      JUMPDEST \t\t\t\n      PUSH [tag] 1034\t\t\t\n      DUP9 \t\t\t\n      DUP3 \t\t\t\n      DUP10 \t\t\t\n      ADD \t\t\t\n      PUSH [tag] 723\t\t\t\n      JUMP \t\t\t\n    tag 1034\t\t\t\n      JUMPDEST \t\t\t\n      SWAP3 \t\t\t\n      POP \t\t\t\n      POP \t\t\t\n      PUSH 80\t\t\t\n      DUP7 \t\t\t\n      ADD \t\t\t\n      CALLDATALOAD \t\t\t\n      PUSH FFFFFFFFFFFFFFFF\t\t\t\n      DUP2 \t\t\t\n      GT \t\t\t\n      ISZERO \t\t\t\n      PUSH [tag] 1035\t\t\t\n      JUMPI \t\t\t\n      PUSH [tag] 1036\t\t\t\n      PUSH [tag] 673\t\t\t\n      JUMP \t\t\t\n    tag 1036\t\t\t\n      JUMPDEST \t\t\t\n    tag 1035\t\t\t\n      JUMPDEST \t\t\t\n      PUSH [tag] 1037\t\t\t\n      DUP9 \t\t\t\n      DUP3 \t\t\t\n      DUP10 \t\t\t\n      ADD \t\t\t\n      PUSH [tag] 728\t\t\t\n      JUMP \t\t\t\n    tag 1037\t\t\t\n      JUMPDEST \t\t\t\n      SWAP2 \t\t\t\n      POP \t\t\t\n      POP \t\t\t\n      SWAP3 \t\t\t\n      SWAP6 \t\t\t\n      POP \t\t\t\n      SWAP3 \t\t\t\n      SWAP6 \t\t\t\n      SWAP1 \t\t\t\n      SWAP4 \t\t\t\n      POP \t\t\t\n      JUMP \t\t\t\n    tag 729\t\t\t\n      JUMPDEST \t\t\t\n      PUSH [tag] 1039\t\t\t\n      DUP2 \t\t\t\n      PUSH [tag] 685\t\t\t\n      JUMP \t\t\t\n    tag 1039\t\t\t\n      JUMPDEST \t\t\t\n      DUP2 \t\t\t\n      EQ \t\t\t\n      PUSH [tag] 1040\t\t\t\n      JUMPI \t\t\t\n      PUSH 0\t\t\t\n      DUP1 \t\t\t\n      REVERT \t\t\t\n    tag 1040\t\t\t\n      JUMPDEST \t\t\t\n      POP \t\t\t\n      JUMP \t\t\t\n    tag 730\t\t\t\n      JUMPDEST \t\t\t\n      PUSH 0\t\t\t\n      DUP2 \t\t\t\n      CALLDATALOAD \t\t\t\n      SWAP1 \t\t\t\n      POP \t\t\t\n      PUSH [tag] 1042\t\t\t\n      DUP2 \t\t\t\n      PUSH [tag] 729\t\t\t\n      JUMP \t\t\t\n    tag 1042\t\t\t\n      JUMPDEST \t\t\t\n      SWAP3 \t\t\t\n      SWAP2 \t\t\t\n      POP \t\t\t\n      POP \t\t\t\n      JUMP \t\t\t\n    tag 79\t\t\t\n      JUMPDEST \t\t\t\n      PUSH 0\t\t\t\n      DUP1 \t\t\t\n      PUSH 40\t\t\t\n      DUP4 \t\t\t\n      DUP6 \t\t\t\n      SUB \t\t\t\n      SLT \t\t\t\n      ISZERO \t\t\t\n      PUSH [tag] 1044\t\t\t\n      JUMPI \t\t\t\n      PUSH [tag] 1045\t\t\t\n      PUSH [tag] 672\t\t\t\n      JUMP \t\t\t\n    tag 1045\t\t\t\n      JUMPDEST \t\t\t\n    tag 1044\t\t\t\n      JUMPDEST \t\t\t\n      PUSH 0\t\t\t\n      PUSH [tag] 1046\t\t\t\n      DUP6 \t\t\t\n      DUP3 \t\t\t\n      DUP7 \t\t\t\n      ADD \t\t\t\n      PUSH [tag] 680\t\t\t\n      JUMP \t\t\t\n    tag 1046\t\t\t\n      JUMPDEST \t\t\t\n      SWAP3 \t\t\t\n      POP \t\t\t\n      POP \t\t\t\n      PUSH 20\t\t\t\n      PUSH [tag] 1047\t\t\t\n      DUP6 \t\t\t\n      DUP3 \t\t\t\n      DUP7 \t\t\t\n      ADD \t\t\t\n      PUSH [tag] 730\t\t\t\n      JUMP \t\t\t\n    tag 1047\t\t\t\n      JUMPDEST \t\t\t\n      SWAP2 \t\t\t\n      POP \t\t\t\n      POP \t\t\t\n      SWAP3 \t\t\t\n      POP \t\t\t\n      SWAP3 \t\t\t\n      SWAP1 \t\t\t\n      POP \t\t\t\n      JUMP \t\t\t\n    tag 731\t\t\t\n      JUMPDEST \t\t\t\n      PUSH 0\t\t\t\n      DUP2 \t\t\t\n      MLOAD \t\t\t\n      SWAP1 \t\t\t\n      POP \t\t\t\n      SWAP2 \t\t\t\n      SWAP1 \t\t\t\n      POP \t\t\t\n      JUMP \t\t\t\n    tag 732\t\t\t\n      JUMPDEST \t\t\t\n      PUSH 0\t\t\t\n      DUP3 \t\t\t\n      DUP3 \t\t\t\n      MSTORE \t\t\t\n      PUSH 20\t\t\t\n      DUP3 \t\t\t\n      ADD \t\t\t\n      SWAP1 \t\t\t\n      POP \t\t\t\n      SWAP3 \t\t\t\n      SWAP2 \t\t\t\n      POP \t\t\t\n      POP \t\t\t\n      JUMP \t\t\t\n    tag 733\t\t\t\n      JUMPDEST \t\t\t\n      PUSH 0\t\t\t\n      DUP2 \t\t\t\n      SWAP1 \t\t\t\n      POP \t\t\t\n      PUSH 20\t\t\t\n      DUP3 \t\t\t\n      ADD \t\t\t\n      SWAP1 \t\t\t\n      POP \t\t\t\n      SWAP2 \t\t\t\n      SWAP1 \t\t\t\n      POP \t\t\t\n      JUMP \t\t\t\n    tag 734\t\t\t\n      JUMPDEST \t\t\t\n      PUSH [tag] 1052\t\t\t\n      DUP2 \t\t\t\n      PUSH [tag] 675\t\t\t\n      JUMP \t\t\t\n    tag 1052\t\t\t\n      JUMPDEST \t\t\t\n      DUP3 \t\t\t\n      MSTORE \t\t\t\n      POP \t\t\t\n      POP \t\t\t\n      JUMP \t\t\t\n    tag 735\t\t\t\n      JUMPDEST \t\t\t\n      PUSH 0\t\t\t\n      PUSH [tag] 1054\t\t\t\n      DUP4 \t\t\t\n      DUP4 \t\t\t\n      PUSH [tag] 734\t\t\t\n      JUMP \t\t\t\n    tag 1054\t\t\t\n      JUMPDEST \t\t\t\n      PUSH 20\t\t\t\n      DUP4 \t\t\t\n      ADD \t\t\t\n      SWAP1 \t\t\t\n      POP \t\t\t\n      SWAP3 \t\t\t\n      SWAP2 \t\t\t\n      POP \t\t\t\n      POP \t\t\t\n      JUMP \t\t\t\n    tag 736\t\t\t\n      JUMPDEST \t\t\t\n      PUSH 0\t\t\t\n      PUSH 20\t\t\t\n      DUP3 \t\t\t\n      ADD \t\t\t\n      SWAP1 \t\t\t\n      POP \t\t\t\n      SWAP2 \t\t\t\n      SWAP1 \t\t\t\n      POP \t\t\t\n      JUMP \t\t\t\n    tag 737\t\t\t\n      JUMPDEST \t\t\t\n      PUSH 0\t\t\t\n      PUSH [tag] 1057\t\t\t\n      DUP3 \t\t\t\n      PUSH [tag] 731\t\t\t\n      JUMP \t\t\t\n    tag 1057\t\t\t\n      JUMPDEST \t\t\t\n      PUSH [tag] 1058\t\t\t\n      DUP2 \t\t\t\n      DUP6 \t\t\t\n      PUSH [tag] 732\t\t\t\n      JUMP \t\t\t\n    tag 1058\t\t\t\n      JUMPDEST \t\t\t\n      SWAP4 \t\t\t\n      POP \t\t\t\n      PUSH [tag] 1059\t\t\t\n      DUP4 \t\t\t\n      PUSH [tag] 733\t\t\t\n      JUMP \t\t\t\n    tag 1059\t\t\t\n      JUMPDEST \t\t\t\n      DUP1 \t\t\t\n      PUSH 0\t\t\t\n    tag 1060\t\t\t\n      JUMPDEST \t\t\t\n      DUP4 \t\t\t\n      DUP2 \t\t\t\n      LT \t\t\t\n      ISZERO \t\t\t\n      PUSH [tag] 1062\t\t\t\n      JUMPI \t\t\t\n      DUP2 \t\t\t\n      MLOAD \t\t\t\n      PUSH [tag] 1063\t\t\t\n      DUP9 \t\t\t\n      DUP3 \t\t\t\n      PUSH [tag] 735\t\t\t\n      JUMP \t\t\t\n    tag 1063\t\t\t\n      JUMPDEST \t\t\t\n      SWAP8 \t\t\t\n      POP \t\t\t\n      PUSH [tag] 1064\t\t\t\n      DUP4 \t\t\t\n      PUSH [tag] 736\t\t\t\n      JUMP \t\t\t\n    tag 1064\t\t\t\n      JUMPDEST \t\t\t\n      SWAP3 \t\t\t\n      POP \t\t\t\n      POP \t\t\t\n      PUSH 1\t\t\t\n      DUP2 \t\t\t\n      ADD \t\t\t\n      SWAP1 \t\t\t\n      POP \t\t\t\n      PUSH [tag] 1060\t\t\t\n      JUMP \t\t\t\n    tag 1062\t\t\t\n      JUMPDEST \t\t\t\n      POP \t\t\t\n      DUP6 \t\t\t\n      SWAP4 \t\t\t\n      POP \t\t\t\n      POP \t\t\t\n      POP \t\t\t\n      POP \t\t\t\n      SWAP3 \t\t\t\n      SWAP2 \t\t\t\n      POP \t\t\t\n      POP \t\t\t\n      JUMP \t\t\t\n    tag 85\t\t\t\n      JUMPDEST \t\t\t\n      PUSH 0\t\t\t\n      PUSH 20\t\t\t\n      DUP3 \t\t\t\n      ADD \t\t\t\n      SWAP1 \t\t\t\n      POP \t\t\t\n      DUP2 \t\t\t\n      DUP2 \t\t\t\n      SUB \t\t\t\n      PUSH 0\t\t\t\n      DUP4 \t\t\t\n      ADD \t\t\t\n      MSTORE \t\t\t\n      PUSH [tag] 1066\t\t\t\n      DUP2 \t\t\t\n      DUP5 \t\t\t\n      PUSH [tag] 737\t\t\t\n      JUMP \t\t\t\n    tag 1066\t\t\t\n      JUMPDEST \t\t\t\n      SWAP1 \t\t\t\n      POP \t\t\t\n      SWAP3 \t\t\t\n      SWAP2 \t\t\t\n      POP \t\t\t\n      POP \t\t\t\n      JUMP \t\t\t\n    tag 738\t\t\t\n      JUMPDEST \t\t\t\n      PUSH 0\t\t\t\n      PUSH FFFFFFFFFFFFFFFF\t\t\t\n      DUP3 \t\t\t\n      GT \t\t\t\n      ISZERO \t\t\t\n      PUSH [tag] 1068\t\t\t\n      JUMPI \t\t\t\n      PUSH [tag] 1069\t\t\t\n      PUSH [tag] 173\t\t\t\n      JUMP \t\t\t\n    tag 1069\t\t\t\n      JUMPDEST \t\t\t\n    tag 1068\t\t\t\n      JUMPDEST \t\t\t\n      PUSH 20\t\t\t\n      DUP3 \t\t\t\n      MUL \t\t\t\n      SWAP1 \t\t\t\n      POP \t\t\t\n      PUSH 20\t\t\t\n      DUP2 \t\t\t\n      ADD \t\t\t\n      SWAP1 \t\t\t\n      POP \t\t\t\n      SWAP2 \t\t\t\n      SWAP1 \t\t\t\n      POP \t\t\t\n      JUMP \t\t\t\n    tag 739\t\t\t\n      JUMPDEST \t\t\t\n      PUSH 0\t\t\t\n      PUSH [tag] 1071\t\t\t\n      PUSH [tag] 1072\t\t\t\n      DUP5 \t\t\t\n      PUSH [tag] 738\t\t\t\n      JUMP \t\t\t\n    tag 1072\t\t\t\n      JUMPDEST \t\t\t\n      PUSH [tag] 720\t\t\t\n      JUMP \t\t\t\n    tag 1071\t\t\t\n      JUMPDEST \t\t\t\n      SWAP1 \t\t\t\n      POP \t\t\t\n      DUP1 \t\t\t\n      DUP4 \t\t\t\n      DUP3 \t\t\t\n      MSTORE \t\t\t\n      PUSH 20\t\t\t\n      DUP3 \t\t\t\n      ADD \t\t\t\n      SWAP1 \t\t\t\n      POP \t\t\t\n      PUSH 20\t\t\t\n      DUP5 \t\t\t\n      MUL \t\t\t\n      DUP4 \t\t\t\n      ADD \t\t\t\n      DUP6 \t\t\t\n      DUP2 \t\t\t\n      GT \t\t\t\n      ISZERO \t\t\t\n      PUSH [tag] 1073\t\t\t\n      JUMPI \t\t\t\n      PUSH [tag] 1074\t\t\t\n      PUSH [tag] 716\t\t\t\n      JUMP \t\t\t\n    tag 1074\t\t\t\n      JUMPDEST \t\t\t\n    tag 1073\t\t\t\n      JUMPDEST \t\t\t\n      DUP4 \t\t\t\n    tag 1075\t\t\t\n      JUMPDEST \t\t\t\n      DUP2 \t\t\t\n      DUP2 \t\t\t\n      LT \t\t\t\n      ISZERO \t\t\t\n      PUSH [tag] 1077\t\t\t\n      JUMPI \t\t\t\n      DUP1 \t\t\t\n      PUSH [tag] 1078\t\t\t\n      DUP9 \t\t\t\n      DUP3 \t\t\t\n      PUSH [tag] 677\t\t\t\n      JUMP \t\t\t\n    tag 1078\t\t\t\n      JUMPDEST \t\t\t\n      DUP5 \t\t\t\n      MSTORE \t\t\t\n      PUSH 20\t\t\t\n      DUP5 \t\t\t\n      ADD \t\t\t\n      SWAP4 \t\t\t\n      POP \t\t\t\n      POP \t\t\t\n      PUSH 20\t\t\t\n      DUP2 \t\t\t\n      ADD \t\t\t\n      SWAP1 \t\t\t\n      POP \t\t\t\n      PUSH [tag] 1075\t\t\t\n      JUMP \t\t\t\n    tag 1077\t\t\t\n      JUMPDEST \t\t\t\n      POP \t\t\t\n      POP \t\t\t\n      POP \t\t\t\n      SWAP4 \t\t\t\n      SWAP3 \t\t\t\n      POP \t\t\t\n      POP \t\t\t\n      POP \t\t\t\n      JUMP \t\t\t\n    tag 740\t\t\t\n      JUMPDEST \t\t\t\n      PUSH 0\t\t\t\n      DUP3 \t\t\t\n      PUSH 1F\t\t\t\n      DUP4 \t\t\t\n      ADD \t\t\t\n      SLT \t\t\t\n      PUSH [tag] 1080\t\t\t\n      JUMPI \t\t\t\n      PUSH [tag] 1081\t\t\t\n      PUSH [tag] 714\t\t\t\n      JUMP \t\t\t\n    tag 1081\t\t\t\n      JUMPDEST \t\t\t\n    tag 1080\t\t\t\n      JUMPDEST \t\t\t\n      DUP2 \t\t\t\n      CALLDATALOAD \t\t\t\n      PUSH [tag] 1082\t\t\t\n      DUP5 \t\t\t\n      DUP3 \t\t\t\n      PUSH 20\t\t\t\n      DUP7 \t\t\t\n      ADD \t\t\t\n      PUSH [tag] 739\t\t\t\n      JUMP \t\t\t\n    tag 1082\t\t\t\n      JUMPDEST \t\t\t\n      SWAP2 \t\t\t\n      POP \t\t\t\n      POP \t\t\t\n      SWAP3 \t\t\t\n      SWAP2 \t\t\t\n      POP \t\t\t\n      POP \t\t\t\n      JUMP \t\t\t\n    tag 88\t\t\t\n      JUMPDEST \t\t\t\n      PUSH 0\t\t\t\n      DUP1 \t\t\t\n      PUSH 40\t\t\t\n      DUP4 \t\t\t\n      DUP6 \t\t\t\n      SUB \t\t\t\n      SLT \t\t\t\n      ISZERO \t\t\t\n      PUSH [tag] 1084\t\t\t\n      JUMPI \t\t\t\n      PUSH [tag] 1085\t\t\t\n      PUSH [tag] 672\t\t\t\n      JUMP \t\t\t\n    tag 1085\t\t\t\n      JUMPDEST \t\t\t\n    tag 1084\t\t\t\n      JUMPDEST \t\t\t\n      PUSH 0\t\t\t\n      DUP4 \t\t\t\n      ADD \t\t\t\n      CALLDATALOAD \t\t\t\n      PUSH FFFFFFFFFFFFFFFF\t\t\t\n      DUP2 \t\t\t\n      GT \t\t\t\n      ISZERO \t\t\t\n      PUSH [tag] 1086\t\t\t\n      JUMPI \t\t\t\n      PUSH [tag] 1087\t\t\t\n      PUSH [tag] 673\t\t\t\n      JUMP \t\t\t\n    tag 1087\t\t\t\n      JUMPDEST \t\t\t\n    tag 1086\t\t\t\n      JUMPDEST \t\t\t\n      PUSH [tag] 1088\t\t\t\n      DUP6 \t\t\t\n      DUP3 \t\t\t\n      DUP7 \t\t\t\n      ADD \t\t\t\n      PUSH [tag] 740\t\t\t\n      JUMP \t\t\t\n    tag 1088\t\t\t\n      JUMPDEST \t\t\t\n      SWAP3 \t\t\t\n      POP \t\t\t\n      POP \t\t\t\n      PUSH 20\t\t\t\n      DUP4 \t\t\t\n      ADD \t\t\t\n      CALLDATALOAD \t\t\t\n      PUSH FFFFFFFFFFFFFFFF\t\t\t\n      DUP2 \t\t\t\n      GT \t\t\t\n      ISZERO \t\t\t\n      PUSH [tag] 1089\t\t\t\n      JUMPI \t\t\t\n      PUSH [tag] 1090\t\t\t\n      PUSH [tag] 673\t\t\t\n      JUMP \t\t\t\n    tag 1090\t\t\t\n      JUMPDEST \t\t\t\n    tag 1089\t\t\t\n      JUMPDEST \t\t\t\n      PUSH [tag] 1091\t\t\t\n      DUP6 \t\t\t\n      DUP3 \t\t\t\n      DUP7 \t\t\t\n      ADD \t\t\t\n      PUSH [tag] 723\t\t\t\n      JUMP \t\t\t\n    tag 1091\t\t\t\n      JUMPDEST \t\t\t\n      SWAP2 \t\t\t\n      POP \t\t\t\n      POP \t\t\t\n      SWAP3 \t\t\t\n      POP \t\t\t\n      SWAP3 \t\t\t\n      SWAP1 \t\t\t\n      POP \t\t\t\n      JUMP \t\t\t\n    tag 741\t\t\t\n      JUMPDEST \t\t\t\n      PUSH 0\t\t\t\n      DUP2 \t\t\t\n      MLOAD \t\t\t\n      SWAP1 \t\t\t\n      POP \t\t\t\n      SWAP2 \t\t\t\n      SWAP1 \t\t\t\n      POP \t\t\t\n      JUMP \t\t\t\n    tag 742\t\t\t\n      JUMPDEST \t\t\t\n      PUSH 0\t\t\t\n      DUP3 \t\t\t\n      DUP3 \t\t\t\n      MSTORE \t\t\t\n      PUSH 20\t\t\t\n      DUP3 \t\t\t\n      ADD \t\t\t\n      SWAP1 \t\t\t\n      POP \t\t\t\n      SWAP3 \t\t\t\n      SWAP2 \t\t\t\n      POP \t\t\t\n      POP \t\t\t\n      JUMP \t\t\t\n    tag 743\t\t\t\n      JUMPDEST \t\t\t\n      PUSH 0\t\t\t\n      DUP2 \t\t\t\n      SWAP1 \t\t\t\n      POP \t\t\t\n      PUSH 20\t\t\t\n      DUP3 \t\t\t\n      ADD \t\t\t\n      SWAP1 \t\t\t\n      POP \t\t\t\n      SWAP2 \t\t\t\n      SWAP1 \t\t\t\n      POP \t\t\t\n      JUMP \t\t\t\n    tag 744\t\t\t\n      JUMPDEST \t\t\t\n      PUSH [tag] 1096\t\t\t\n      DUP2 \t\t\t\n      PUSH [tag] 678\t\t\t\n      JUMP \t\t\t\n    tag 1096\t\t\t\n      JUMPDEST \t\t\t\n      DUP3 \t\t\t\n      MSTORE \t\t\t\n      POP \t\t\t\n      POP \t\t\t\n      JUMP \t\t\t\n    tag 745\t\t\t\n      JUMPDEST \t\t\t\n      PUSH 0\t\t\t\n      PUSH [tag] 1098\t\t\t\n      DUP4 \t\t\t\n      DUP4 \t\t\t\n      PUSH [tag] 744\t\t\t\n      JUMP \t\t\t\n    tag 1098\t\t\t\n      JUMPDEST \t\t\t\n      PUSH 20\t\t\t\n      DUP4 \t\t\t\n      ADD \t\t\t\n      SWAP1 \t\t\t\n      POP \t\t\t\n      SWAP3 \t\t\t\n      SWAP2 \t\t\t\n      POP \t\t\t\n      POP \t\t\t\n      JUMP \t\t\t\n    tag 746\t\t\t\n      JUMPDEST \t\t\t\n      PUSH 0\t\t\t\n      PUSH 20\t\t\t\n      DUP3 \t\t\t\n      ADD \t\t\t\n      SWAP1 \t\t\t\n      POP \t\t\t\n      SWAP2 \t\t\t\n      SWAP1 \t\t\t\n      POP \t\t\t\n      JUMP \t\t\t\n    tag 747\t\t\t\n      JUMPDEST \t\t\t\n      PUSH 0\t\t\t\n      PUSH [tag] 1101\t\t\t\n      DUP3 \t\t\t\n      PUSH [tag] 741\t\t\t\n      JUMP \t\t\t\n    tag 1101\t\t\t\n      JUMPDEST \t\t\t\n      PUSH [tag] 1102\t\t\t\n      DUP2 \t\t\t\n      DUP6 \t\t\t\n      PUSH [tag] 742\t\t\t\n      JUMP \t\t\t\n    tag 1102\t\t\t\n      JUMPDEST \t\t\t\n      SWAP4 \t\t\t\n      POP \t\t\t\n      PUSH [tag] 1103\t\t\t\n      DUP4 \t\t\t\n      PUSH [tag] 743\t\t\t\n      JUMP \t\t\t\n    tag 1103\t\t\t\n      JUMPDEST \t\t\t\n      DUP1 \t\t\t\n      PUSH 0\t\t\t\n    tag 1104\t\t\t\n      JUMPDEST \t\t\t\n      DUP4 \t\t\t\n      DUP2 \t\t\t\n      LT \t\t\t\n      ISZERO \t\t\t\n      PUSH [tag] 1106\t\t\t\n      JUMPI \t\t\t\n      DUP2 \t\t\t\n      MLOAD \t\t\t\n      PUSH [tag] 1107\t\t\t\n      DUP9 \t\t\t\n      DUP3 \t\t\t\n      PUSH [tag] 745\t\t\t\n      JUMP \t\t\t\n    tag 1107\t\t\t\n      JUMPDEST \t\t\t\n      SWAP8 \t\t\t\n      POP \t\t\t\n      PUSH [tag] 1108\t\t\t\n      DUP4 \t\t\t\n      PUSH [tag] 746\t\t\t\n      JUMP \t\t\t\n    tag 1108\t\t\t\n      JUMPDEST \t\t\t\n      SWAP3 \t\t\t\n      POP \t\t\t\n      POP \t\t\t\n      PUSH 1\t\t\t\n      DUP2 \t\t\t\n      ADD \t\t\t\n      SWAP1 \t\t\t\n      POP \t\t\t\n      PUSH [tag] 1104\t\t\t\n      JUMP \t\t\t\n    tag 1106\t\t\t\n      JUMPDEST \t\t\t\n      POP \t\t\t\n      DUP6 \t\t\t\n      SWAP4 \t\t\t\n      POP \t\t\t\n      POP \t\t\t\n      POP \t\t\t\n      POP \t\t\t\n      SWAP3 \t\t\t\n      SWAP2 \t\t\t\n      POP \t\t\t\n      POP \t\t\t\n      JUMP \t\t\t\n    tag 91\t\t\t\n      JUMPDEST \t\t\t\n      PUSH 0\t\t\t\n      PUSH 20\t\t\t\n      DUP3 \t\t\t\n      ADD \t\t\t\n      SWAP1 \t\t\t\n      POP \t\t\t\n      DUP2 \t\t\t\n      DUP2 \t\t\t\n      SUB \t\t\t\n      PUSH 0\t\t\t\n      DUP4 \t\t\t\n      ADD \t\t\t\n      MSTORE \t\t\t\n      PUSH [tag] 1110\t\t\t\n      DUP2 \t\t\t\n      DUP5 \t\t\t\n      PUSH [tag] 747\t\t\t\n      JUMP \t\t\t\n    tag 1110\t\t\t\n      JUMPDEST \t\t\t\n      SWAP1 \t\t\t\n      POP \t\t\t\n      SWAP3 \t\t\t\n      SWAP2 \t\t\t\n      POP \t\t\t\n      POP \t\t\t\n      JUMP \t\t\t\n    tag 748\t\t\t\n      JUMPDEST \t\t\t\n      PUSH 0\t\t\t\n      PUSH [tag] 1112\t\t\t\n      DUP3 \t\t\t\n      PUSH [tag] 675\t\t\t\n      JUMP \t\t\t\n    tag 1112\t\t\t\n      JUMPDEST \t\t\t\n      SWAP1 \t\t\t\n      POP \t\t\t\n      SWAP2 \t\t\t\n      SWAP1 \t\t\t\n      POP \t\t\t\n      JUMP \t\t\t\n    tag 749\t\t\t\n      JUMPDEST \t\t\t\n      PUSH [tag] 1114\t\t\t\n      DUP2 \t\t\t\n      PUSH [tag] 748\t\t\t\n      JUMP \t\t\t\n    tag 1114\t\t\t\n      JUMPDEST \t\t\t\n      DUP2 \t\t\t\n      EQ \t\t\t\n      PUSH [tag] 1115\t\t\t\n      JUMPI \t\t\t\n      PUSH 0\t\t\t\n      DUP1 \t\t\t\n      REVERT \t\t\t\n    tag 1115\t\t\t\n      JUMPDEST \t\t\t\n      POP \t\t\t\n      JUMP \t\t\t\n    tag 750\t\t\t\n      JUMPDEST \t\t\t\n      PUSH 0\t\t\t\n      DUP2 \t\t\t\n      CALLDATALOAD \t\t\t\n      SWAP1 \t\t\t\n      POP \t\t\t\n      PUSH [tag] 1117\t\t\t\n      DUP2 \t\t\t\n      PUSH [tag] 749\t\t\t\n      JUMP \t\t\t\n    tag 1117\t\t\t\n      JUMPDEST \t\t\t\n      SWAP3 \t\t\t\n      SWAP2 \t\t\t\n      POP \t\t\t\n      POP \t\t\t\n      JUMP \t\t\t\n    tag 751\t\t\t\n      JUMPDEST \t\t\t\n      PUSH 0\t\t\t\n      DUP1 \t\t\t\n      REVERT \t\t\t\n    tag 752\t\t\t\n      JUMPDEST \t\t\t\n      PUSH 0\t\t\t\n      PUSH 60\t\t\t\n      DUP3 \t\t\t\n      DUP5 \t\t\t\n      SUB \t\t\t\n      SLT \t\t\t\n      ISZERO \t\t\t\n      PUSH [tag] 1120\t\t\t\n      JUMPI \t\t\t\n      PUSH [tag] 1121\t\t\t\n      PUSH [tag] 751\t\t\t\n      JUMP \t\t\t\n    tag 1121\t\t\t\n      JUMPDEST \t\t\t\n    tag 1120\t\t\t\n      JUMPDEST \t\t\t\n      DUP2 \t\t\t\n      SWAP1 \t\t\t\n      POP \t\t\t\n      SWAP3 \t\t\t\n      SWAP2 \t\t\t\n      POP \t\t\t\n      POP \t\t\t\n      JUMP \t\t\t\n    tag 102\t\t\t\n      JUMPDEST \t\t\t\n      PUSH 0\t\t\t\n      DUP1 \t\t\t\n      PUSH 0\t\t\t\n      DUP1 \t\t\t\n      PUSH 0\t\t\t\n      DUP1 \t\t\t\n      PUSH 0\t\t\t\n      DUP1 \t\t\t\n      PUSH 0\t\t\t\n      DUP1 \t\t\t\n      PUSH E0\t\t\t\n      DUP12 \t\t\t\n      DUP14 \t\t\t\n      SUB \t\t\t\n      SLT \t\t\t\n      ISZERO \t\t\t\n      PUSH [tag] 1123\t\t\t\n      JUMPI \t\t\t\n      PUSH [tag] 1124\t\t\t\n      PUSH [tag] 672\t\t\t\n      JUMP \t\t\t\n    tag 1124\t\t\t\n      JUMPDEST \t\t\t\n    tag 1123\t\t\t\n      JUMPDEST \t\t\t\n      PUSH 0\t\t\t\n      PUSH [tag] 1125\t\t\t\n      DUP14 \t\t\t\n      DUP3 \t\t\t\n      DUP15 \t\t\t\n      ADD \t\t\t\n      PUSH [tag] 730\t\t\t\n      JUMP \t\t\t\n    tag 1125\t\t\t\n      JUMPDEST \t\t\t\n      SWAP11 \t\t\t\n      POP \t\t\t\n      POP \t\t\t\n      PUSH 20\t\t\t\n      DUP12 \t\t\t\n      ADD \t\t\t\n      CALLDATALOAD \t\t\t\n      PUSH FFFFFFFFFFFFFFFF\t\t\t\n      DUP2 \t\t\t\n      GT \t\t\t\n      ISZERO \t\t\t\n      PUSH [tag] 1126\t\t\t\n      JUMPI \t\t\t\n      PUSH [tag] 1127\t\t\t\n      PUSH [tag] 673\t\t\t\n      JUMP \t\t\t\n    tag 1127\t\t\t\n      JUMPDEST \t\t\t\n    tag 1126\t\t\t\n      JUMPDEST \t\t\t\n      PUSH [tag] 1128\t\t\t\n      DUP14 \t\t\t\n      DUP3 \t\t\t\n      DUP15 \t\t\t\n      ADD \t\t\t\n      PUSH [tag] 718\t\t\t\n      JUMP \t\t\t\n    tag 1128\t\t\t\n      JUMPDEST \t\t\t\n      SWAP10 \t\t\t\n      POP \t\t\t\n      SWAP10 \t\t\t\n      POP \t\t\t\n      POP \t\t\t\n      PUSH 40\t\t\t\n      PUSH [tag] 1129\t\t\t\n      DUP14 \t\t\t\n      DUP3 \t\t\t\n      DUP15 \t\t\t\n      ADD \t\t\t\n      PUSH [tag] 750\t\t\t\n      JUMP \t\t\t\n    tag 1129\t\t\t\n      JUMPDEST \t\t\t\n      SWAP8 \t\t\t\n      POP \t\t\t\n      POP \t\t\t\n      PUSH 60\t\t\t\n      DUP12 \t\t\t\n      ADD \t\t\t\n      CALLDATALOAD \t\t\t\n      PUSH FFFFFFFFFFFFFFFF\t\t\t\n      DUP2 \t\t\t\n      GT \t\t\t\n      ISZERO \t\t\t\n      PUSH [tag] 1130\t\t\t\n      JUMPI \t\t\t\n      PUSH [tag] 1131\t\t\t\n      PUSH [tag] 673\t\t\t\n      JUMP \t\t\t\n    tag 1131\t\t\t\n      JUMPDEST \t\t\t\n    tag 1130\t\t\t\n      JUMPDEST \t\t\t\n      PUSH [tag] 1132\t\t\t\n      DUP14 \t\t\t\n      DUP3 \t\t\t\n      DUP15 \t\t\t\n      ADD \t\t\t\n      PUSH [tag] 717\t\t\t\n      JUMP \t\t\t\n    tag 1132\t\t\t\n      JUMPDEST \t\t\t\n      SWAP7 \t\t\t\n      POP \t\t\t\n      SWAP7 \t\t\t\n      POP \t\t\t\n      POP \t\t\t\n      PUSH 80\t\t\t\n      PUSH [tag] 1133\t\t\t\n      DUP14 \t\t\t\n      DUP3 \t\t\t\n      DUP15 \t\t\t\n      ADD \t\t\t\n      PUSH [tag] 680\t\t\t\n      JUMP \t\t\t\n    tag 1133\t\t\t\n      JUMPDEST \t\t\t\n      SWAP5 \t\t\t\n      POP \t\t\t\n      POP \t\t\t\n      PUSH A0\t\t\t\n      DUP12 \t\t\t\n      ADD \t\t\t\n      CALLDATALOAD \t\t\t\n      PUSH FFFFFFFFFFFFFFFF\t\t\t\n      DUP2 \t\t\t\n      GT \t\t\t\n      ISZERO \t\t\t\n      PUSH [tag] 1134\t\t\t\n      JUMPI \t\t\t\n      PUSH [tag] 1135\t\t\t\n      PUSH [tag] 673\t\t\t\n      JUMP \t\t\t\n    tag 1135\t\t\t\n      JUMPDEST \t\t\t\n    tag 1134\t\t\t\n      JUMPDEST \t\t\t\n      PUSH [tag] 1136\t\t\t\n      DUP14 \t\t\t\n      DUP3 \t\t\t\n      DUP15 \t\t\t\n      ADD \t\t\t\n      PUSH [tag] 718\t\t\t\n      JUMP \t\t\t\n    tag 1136\t\t\t\n      JUMPDEST \t\t\t\n      SWAP4 \t\t\t\n      POP \t\t\t\n      SWAP4 \t\t\t\n      POP \t\t\t\n      POP \t\t\t\n      PUSH C0\t\t\t\n      DUP12 \t\t\t\n      ADD \t\t\t\n      CALLDATALOAD \t\t\t\n      PUSH FFFFFFFFFFFFFFFF\t\t\t\n      DUP2 \t\t\t\n      GT \t\t\t\n      ISZERO \t\t\t\n      PUSH [tag] 1137\t\t\t\n      JUMPI \t\t\t\n      PUSH [tag] 1138\t\t\t\n      PUSH [tag] 673\t\t\t\n      JUMP \t\t\t\n    tag 1138\t\t\t\n      JUMPDEST \t\t\t\n    tag 1137\t\t\t\n      JUMPDEST \t\t\t\n      PUSH [tag] 1139\t\t\t\n      DUP14 \t\t\t\n      DUP3 \t\t\t\n      DUP15 \t\t\t\n      ADD \t\t\t\n      PUSH [tag] 752\t\t\t\n      JUMP \t\t\t\n    tag 1139\t\t\t\n      JUMPDEST \t\t\t\n      SWAP2 \t\t\t\n      POP \t\t\t\n      POP \t\t\t\n      SWAP3 \t\t\t\n      SWAP6 \t\t\t\n      SWAP9 \t\t\t\n      SWAP12 \t\t\t\n      SWAP2 \t\t\t\n      SWAP5 \t\t\t\n      SWAP8 \t\t\t\n      SWAP11 \t\t\t\n      POP \t\t\t\n      SWAP3 \t\t\t\n      SWAP6 \t\t\t\n      SWAP9 \t\t\t\n      POP \t\t\t\n      JUMP \t\t\t\n    tag 753\t\t\t\n      JUMPDEST \t\t\t\n      PUSH [tag] 1141\t\t\t\n      DUP2 \t\t\t\n      PUSH [tag] 675\t\t\t\n      JUMP \t\t\t\n    tag 1141\t\t\t\n      JUMPDEST \t\t\t\n      DUP3 \t\t\t\n      MSTORE \t\t\t\n      POP \t\t\t\n      POP \t\t\t\n      JUMP \t\t\t\n    tag 113\t\t\t\n      JUMPDEST \t\t\t\n      PUSH 0\t\t\t\n      PUSH 20\t\t\t\n      DUP3 \t\t\t\n      ADD \t\t\t\n      SWAP1 \t\t\t\n      POP \t\t\t\n      PUSH [tag] 1143\t\t\t\n      PUSH 0\t\t\t\n      DUP4 \t\t\t\n      ADD \t\t\t\n      DUP5 \t\t\t\n      PUSH [tag] 753\t\t\t\n      JUMP \t\t\t\n    tag 1143\t\t\t\n      JUMPDEST \t\t\t\n      SWAP3 \t\t\t\n      SWAP2 \t\t\t\n      POP \t\t\t\n      POP \t\t\t\n      JUMP \t\t\t\n    tag 118\t\t\t\n      JUMPDEST \t\t\t\n      PUSH 0\t\t\t\n      PUSH 60\t\t\t\n      DUP3 \t\t\t\n      ADD \t\t\t\n      SWAP1 \t\t\t\n      POP \t\t\t\n      DUP2 \t\t\t\n      DUP2 \t\t\t\n      SUB \t\t\t\n      PUSH 0\t\t\t\n      DUP4 \t\t\t\n      ADD \t\t\t\n      MSTORE \t\t\t\n      PUSH [tag] 1145\t\t\t\n      DUP2 \t\t\t\n      DUP7 \t\t\t\n      PUSH [tag] 708\t\t\t\n      JUMP \t\t\t\n    tag 1145\t\t\t\n      JUMPDEST \t\t\t\n      SWAP1 \t\t\t\n      POP \t\t\t\n      DUP2 \t\t\t\n      DUP2 \t\t\t\n      SUB \t\t\t\n      PUSH 20\t\t\t\n      DUP4 \t\t\t\n      ADD \t\t\t\n      MSTORE \t\t\t\n      PUSH [tag] 1146\t\t\t\n      DUP2 \t\t\t\n      DUP6 \t\t\t\n      PUSH [tag] 708\t\t\t\n      JUMP \t\t\t\n    tag 1146\t\t\t\n      JUMPDEST \t\t\t\n      SWAP1 \t\t\t\n      POP \t\t\t\n      DUP2 \t\t\t\n      DUP2 \t\t\t\n      SUB \t\t\t\n      PUSH 40\t\t\t\n      DUP4 \t\t\t\n      ADD \t\t\t\n      MSTORE \t\t\t\n      PUSH [tag] 1147\t\t\t\n      DUP2 \t\t\t\n      DUP5 \t\t\t\n      PUSH [tag] 708\t\t\t\n      JUMP \t\t\t\n    tag 1147\t\t\t\n      JUMPDEST \t\t\t\n      SWAP1 \t\t\t\n      POP \t\t\t\n      SWAP5 \t\t\t\n      SWAP4 \t\t\t\n      POP \t\t\t\n      POP \t\t\t\n      POP \t\t\t\n      POP \t\t\t\n      JUMP \t\t\t\n    tag 754\t\t\t\n      JUMPDEST \t\t\t\n      PUSH [tag] 1149\t\t\t\n      DUP2 \t\t\t\n      PUSH [tag] 705\t\t\t\n      JUMP \t\t\t\n    tag 1149\t\t\t\n      JUMPDEST \t\t\t\n      DUP2 \t\t\t\n      EQ \t\t\t\n      PUSH [tag] 1150\t\t\t\n      JUMPI \t\t\t\n      PUSH 0\t\t\t\n      DUP1 \t\t\t\n      REVERT \t\t\t\n    tag 1150\t\t\t\n      JUMPDEST \t\t\t\n      POP \t\t\t\n      JUMP \t\t\t\n    tag 755\t\t\t\n      JUMPDEST \t\t\t\n      PUSH 0\t\t\t\n      DUP2 \t\t\t\n      CALLDATALOAD \t\t\t\n      SWAP1 \t\t\t\n      POP \t\t\t\n      PUSH [tag] 1152\t\t\t\n      DUP2 \t\t\t\n      PUSH [tag] 754\t\t\t\n      JUMP \t\t\t\n    tag 1152\t\t\t\n      JUMPDEST \t\t\t\n      SWAP3 \t\t\t\n      SWAP2 \t\t\t\n      POP \t\t\t\n      POP \t\t\t\n      JUMP \t\t\t\n    tag 121\t\t\t\n      JUMPDEST \t\t\t\n      PUSH 0\t\t\t\n      DUP1 \t\t\t\n      PUSH 40\t\t\t\n      DUP4 \t\t\t\n      DUP6 \t\t\t\n      SUB \t\t\t\n      SLT \t\t\t\n      ISZERO \t\t\t\n      PUSH [tag] 1154\t\t\t\n      JUMPI \t\t\t\n      PUSH [tag] 1155\t\t\t\n      PUSH [tag] 672\t\t\t\n      JUMP \t\t\t\n    tag 1155\t\t\t\n      JUMPDEST \t\t\t\n    tag 1154\t\t\t\n      JUMPDEST \t\t\t\n      PUSH 0\t\t\t\n      PUSH [tag] 1156\t\t\t\n      DUP6 \t\t\t\n      DUP3 \t\t\t\n      DUP7 \t\t\t\n      ADD \t\t\t\n      PUSH [tag] 677\t\t\t\n      JUMP \t\t\t\n    tag 1156\t\t\t\n      JUMPDEST \t\t\t\n      SWAP3 \t\t\t\n      POP \t\t\t\n      POP \t\t\t\n      PUSH 20\t\t\t\n      PUSH [tag] 1157\t\t\t\n      DUP6 \t\t\t\n      DUP3 \t\t\t\n      DUP7 \t\t\t\n      ADD \t\t\t\n      PUSH [tag] 755\t\t\t\n      JUMP \t\t\t\n    tag 1157\t\t\t\n      JUMPDEST \t\t\t\n      SWAP2 \t\t\t\n      POP \t\t\t\n      POP \t\t\t\n      SWAP3 \t\t\t\n      POP \t\t\t\n      SWAP3 \t\t\t\n      SWAP1 \t\t\t\n      POP \t\t\t\n      JUMP \t\t\t\n    tag 125\t\t\t\n      JUMPDEST \t\t\t\n      PUSH 0\t\t\t\n      DUP1 \t\t\t\n      PUSH 0\t\t\t\n      DUP1 \t\t\t\n      PUSH 60\t\t\t\n      DUP6 \t\t\t\n      DUP8 \t\t\t\n      SUB \t\t\t\n      SLT \t\t\t\n      ISZERO \t\t\t\n      PUSH [tag] 1159\t\t\t\n      JUMPI \t\t\t\n      PUSH [tag] 1160\t\t\t\n      PUSH [tag] 672\t\t\t\n      JUMP \t\t\t\n    tag 1160\t\t\t\n      JUMPDEST \t\t\t\n    tag 1159\t\t\t\n      JUMPDEST \t\t\t\n      PUSH 0\t\t\t\n      PUSH [tag] 1161\t\t\t\n      DUP8 \t\t\t\n      DUP3 \t\t\t\n      DUP9 \t\t\t\n      ADD \t\t\t\n      PUSH [tag] 680\t\t\t\n      JUMP \t\t\t\n    tag 1161\t\t\t\n      JUMPDEST \t\t\t\n      SWAP5 \t\t\t\n      POP \t\t\t\n      POP \t\t\t\n      PUSH 20\t\t\t\n      PUSH [tag] 1162\t\t\t\n      DUP8 \t\t\t\n      DUP3 \t\t\t\n      DUP9 \t\t\t\n      ADD \t\t\t\n      PUSH [tag] 730\t\t\t\n      JUMP \t\t\t\n    tag 1162\t\t\t\n      JUMPDEST \t\t\t\n      SWAP4 \t\t\t\n      POP \t\t\t\n      POP \t\t\t\n      PUSH 40\t\t\t\n      DUP6 \t\t\t\n      ADD \t\t\t\n      CALLDATALOAD \t\t\t\n      PUSH FFFFFFFFFFFFFFFF\t\t\t\n      DUP2 \t\t\t\n      GT \t\t\t\n      ISZERO \t\t\t\n      PUSH [tag] 1163\t\t\t\n      JUMPI \t\t\t\n      PUSH [tag] 1164\t\t\t\n      PUSH [tag] 673\t\t\t\n      JUMP \t\t\t\n    tag 1164\t\t\t\n      JUMPDEST \t\t\t\n    tag 1163\t\t\t\n      JUMPDEST \t\t\t\n      PUSH [tag] 1165\t\t\t\n      DUP8 \t\t\t\n      DUP3 \t\t\t\n      DUP9 \t\t\t\n      ADD \t\t\t\n      PUSH [tag] 718\t\t\t\n      JUMP \t\t\t\n    tag 1165\t\t\t\n      JUMPDEST \t\t\t\n      SWAP3 \t\t\t\n      POP \t\t\t\n      SWAP3 \t\t\t\n      POP \t\t\t\n      POP \t\t\t\n      SWAP3 \t\t\t\n      SWAP6 \t\t\t\n      SWAP2 \t\t\t\n      SWAP5 \t\t\t\n      POP \t\t\t\n      SWAP3 \t\t\t\n      POP \t\t\t\n      JUMP \t\t\t\n    tag 756\t\t\t\n      JUMPDEST \t\t\t\n      PUSH [tag] 1167\t\t\t\n      DUP2 \t\t\t\n      PUSH [tag] 685\t\t\t\n      JUMP \t\t\t\n    tag 1167\t\t\t\n      JUMPDEST \t\t\t\n      DUP3 \t\t\t\n      MSTORE \t\t\t\n      POP \t\t\t\n      POP \t\t\t\n      JUMP \t\t\t\n    tag 134\t\t\t\n      JUMPDEST \t\t\t\n      PUSH 0\t\t\t\n      PUSH 20\t\t\t\n      DUP3 \t\t\t\n      ADD \t\t\t\n      SWAP1 \t\t\t\n      POP \t\t\t\n      PUSH [tag] 1169\t\t\t\n      PUSH 0\t\t\t\n      DUP4 \t\t\t\n      ADD \t\t\t\n      DUP5 \t\t\t\n      PUSH [tag] 756\t\t\t\n      JUMP \t\t\t\n    tag 1169\t\t\t\n      JUMPDEST \t\t\t\n      SWAP3 \t\t\t\n      SWAP2 \t\t\t\n      POP \t\t\t\n      POP \t\t\t\n      JUMP \t\t\t\n    tag 141\t\t\t\n      JUMPDEST \t\t\t\n      PUSH 0\t\t\t\n      DUP1 \t\t\t\n      PUSH 40\t\t\t\n      DUP4 \t\t\t\n      DUP6 \t\t\t\n      SUB \t\t\t\n      SLT \t\t\t\n      ISZERO \t\t\t\n      PUSH [tag] 1171\t\t\t\n      JUMPI \t\t\t\n      PUSH [tag] 1172\t\t\t\n      PUSH [tag] 672\t\t\t\n      JUMP \t\t\t\n    tag 1172\t\t\t\n      JUMPDEST \t\t\t\n    tag 1171\t\t\t\n      JUMPDEST \t\t\t\n      PUSH 0\t\t\t\n      PUSH [tag] 1173\t\t\t\n      DUP6 \t\t\t\n      DUP3 \t\t\t\n      DUP7 \t\t\t\n      ADD \t\t\t\n      PUSH [tag] 677\t\t\t\n      JUMP \t\t\t\n    tag 1173\t\t\t\n      JUMPDEST \t\t\t\n      SWAP3 \t\t\t\n      POP \t\t\t\n      POP \t\t\t\n      PUSH 20\t\t\t\n      PUSH [tag] 1174\t\t\t\n      DUP6 \t\t\t\n      DUP3 \t\t\t\n      DUP7 \t\t\t\n      ADD \t\t\t\n      PUSH [tag] 677\t\t\t\n      JUMP \t\t\t\n    tag 1174\t\t\t\n      JUMPDEST \t\t\t\n      SWAP2 \t\t\t\n      POP \t\t\t\n      POP \t\t\t\n      SWAP3 \t\t\t\n      POP \t\t\t\n      SWAP3 \t\t\t\n      SWAP1 \t\t\t\n      POP \t\t\t\n      JUMP \t\t\t\n    tag 146\t\t\t\n      JUMPDEST \t\t\t\n      PUSH 0\t\t\t\n      DUP1 \t\t\t\n      PUSH 0\t\t\t\n      DUP1 \t\t\t\n      PUSH 0\t\t\t\n      PUSH A0\t\t\t\n      DUP7 \t\t\t\n      DUP9 \t\t\t\n      SUB \t\t\t\n      SLT \t\t\t\n      ISZERO \t\t\t\n      PUSH [tag] 1176\t\t\t\n      JUMPI \t\t\t\n      PUSH [tag] 1177\t\t\t\n      PUSH [tag] 672\t\t\t\n      JUMP \t\t\t\n    tag 1177\t\t\t\n      JUMPDEST \t\t\t\n    tag 1176\t\t\t\n      JUMPDEST \t\t\t\n      PUSH 0\t\t\t\n      PUSH [tag] 1178\t\t\t\n      DUP9 \t\t\t\n      DUP3 \t\t\t\n      DUP10 \t\t\t\n      ADD \t\t\t\n      PUSH [tag] 677\t\t\t\n      JUMP \t\t\t\n    tag 1178\t\t\t\n      JUMPDEST \t\t\t\n      SWAP6 \t\t\t\n      POP \t\t\t\n      POP \t\t\t\n      PUSH 20\t\t\t\n      PUSH [tag] 1179\t\t\t\n      DUP9 \t\t\t\n      DUP3 \t\t\t\n      DUP10 \t\t\t\n      ADD \t\t\t\n      PUSH [tag] 677\t\t\t\n      JUMP \t\t\t\n    tag 1179\t\t\t\n      JUMPDEST \t\t\t\n      SWAP5 \t\t\t\n      POP \t\t\t\n      POP \t\t\t\n      PUSH 40\t\t\t\n      PUSH [tag] 1180\t\t\t\n      DUP9 \t\t\t\n      DUP3 \t\t\t\n      DUP10 \t\t\t\n      ADD \t\t\t\n      PUSH [tag] 680\t\t\t\n      JUMP \t\t\t\n    tag 1180\t\t\t\n      JUMPDEST \t\t\t\n      SWAP4 \t\t\t\n      POP \t\t\t\n      POP \t\t\t\n      PUSH 60\t\t\t\n      PUSH [tag] 1181\t\t\t\n      DUP9 \t\t\t\n      DUP3 \t\t\t\n      DUP10 \t\t\t\n      ADD \t\t\t\n      PUSH [tag] 680\t\t\t\n      JUMP \t\t\t\n    tag 1181\t\t\t\n      JUMPDEST \t\t\t\n      SWAP3 \t\t\t\n      POP \t\t\t\n      POP \t\t\t\n      PUSH 80\t\t\t\n      DUP7 \t\t\t\n      ADD \t\t\t\n      CALLDATALOAD \t\t\t\n      PUSH FFFFFFFFFFFFFFFF\t\t\t\n      DUP2 \t\t\t\n      GT \t\t\t\n      ISZERO \t\t\t\n      PUSH [tag] 1182\t\t\t\n      JUMPI \t\t\t\n      PUSH [tag] 1183\t\t\t\n      PUSH [tag] 673\t\t\t\n      JUMP \t\t\t\n    tag 1183\t\t\t\n      JUMPDEST \t\t\t\n    tag 1182\t\t\t\n      JUMPDEST \t\t\t\n      PUSH [tag] 1184\t\t\t\n      DUP9 \t\t\t\n      DUP3 \t\t\t\n      DUP10 \t\t\t\n      ADD \t\t\t\n      PUSH [tag] 728\t\t\t\n      JUMP \t\t\t\n    tag 1184\t\t\t\n      JUMPDEST \t\t\t\n      SWAP2 \t\t\t\n      POP \t\t\t\n      POP \t\t\t\n      SWAP3 \t\t\t\n      SWAP6 \t\t\t\n      POP \t\t\t\n      SWAP3 \t\t\t\n      SWAP6 \t\t\t\n      SWAP1 \t\t\t\n      SWAP4 \t\t\t\n      POP \t\t\t\n      JUMP \t\t\t\n    tag 153\t\t\t\n      JUMPDEST \t\t\t\n      PUSH 0\t\t\t\n      DUP1 \t\t\t\n      PUSH 0\t\t\t\n      PUSH 60\t\t\t\n      DUP5 \t\t\t\n      DUP7 \t\t\t\n      SUB \t\t\t\n      SLT \t\t\t\n      ISZERO \t\t\t\n      PUSH [tag] 1186\t\t\t\n      JUMPI \t\t\t\n      PUSH [tag] 1187\t\t\t\n      PUSH [tag] 672\t\t\t\n      JUMP \t\t\t\n    tag 1187\t\t\t\n      JUMPDEST \t\t\t\n    tag 1186\t\t\t\n      JUMPDEST \t\t\t\n      PUSH 0\t\t\t\n      PUSH [tag] 1188\t\t\t\n      DUP7 \t\t\t\n      DUP3 \t\t\t\n      DUP8 \t\t\t\n      ADD \t\t\t\n      PUSH [tag] 677\t\t\t\n      JUMP \t\t\t\n    tag 1188\t\t\t\n      JUMPDEST \t\t\t\n      SWAP4 \t\t\t\n      POP \t\t\t\n      POP \t\t\t\n      PUSH 20\t\t\t\n      PUSH [tag] 1189\t\t\t\n      DUP7 \t\t\t\n      DUP3 \t\t\t\n      DUP8 \t\t\t\n      ADD \t\t\t\n      PUSH [tag] 680\t\t\t\n      JUMP \t\t\t\n    tag 1189\t\t\t\n      JUMPDEST \t\t\t\n      SWAP3 \t\t\t\n      POP \t\t\t\n      POP \t\t\t\n      PUSH 40\t\t\t\n      PUSH [tag] 1190\t\t\t\n      DUP7 \t\t\t\n      DUP3 \t\t\t\n      DUP8 \t\t\t\n      ADD \t\t\t\n      PUSH [tag] 680\t\t\t\n      JUMP \t\t\t\n    tag 1190\t\t\t\n      JUMPDEST \t\t\t\n      SWAP2 \t\t\t\n      POP \t\t\t\n      POP \t\t\t\n      SWAP3 \t\t\t\n      POP \t\t\t\n      SWAP3 \t\t\t\n      POP \t\t\t\n      SWAP3 \t\t\t\n      JUMP \t\t\t\n    tag 164\t\t\t\n      JUMPDEST \t\t\t\n      PUSH 4E487B7100000000000000000000000000000000000000000000000000000000\t\t\t\n      PUSH 0\t\t\t\n      MSTORE \t\t\t\n      PUSH 32\t\t\t\n      PUSH 4\t\t\t\n      MSTORE \t\t\t\n      PUSH 24\t\t\t\n      PUSH 0\t\t\t\n      REVERT \t\t\t\n    tag 757\t\t\t\n      JUMPDEST \t\t\t\n      PUSH 4E487B7100000000000000000000000000000000000000000000000000000000\t\t\t\n      PUSH 0\t\t\t\n      MSTORE \t\t\t\n      PUSH 22\t\t\t\n      PUSH 4\t\t\t\n      MSTORE \t\t\t\n      PUSH 24\t\t\t\n      PUSH 0\t\t\t\n      REVERT \t\t\t\n    tag 166\t\t\t\n      JUMPDEST \t\t\t\n      PUSH 0\t\t\t\n      PUSH 2\t\t\t\n      DUP3 \t\t\t\n      DIV \t\t\t\n      SWAP1 \t\t\t\n      POP \t\t\t\n      PUSH 1\t\t\t\n      DUP3 \t\t\t\n      AND \t\t\t\n      DUP1 \t\t\t\n      PUSH [tag] 1194\t\t\t\n      JUMPI \t\t\t\n      PUSH 7F\t\t\t\n      DUP3 \t\t\t\n      AND \t\t\t\n      SWAP2 \t\t\t\n      POP \t\t\t\n    tag 1194\t\t\t\n      JUMPDEST \t\t\t\n      PUSH 20\t\t\t\n      DUP3 \t\t\t\n      LT \t\t\t\n      DUP2 \t\t\t\n      SUB \t\t\t\n      PUSH [tag] 1195\t\t\t\n      JUMPI \t\t\t\n      PUSH [tag] 1196\t\t\t\n      PUSH [tag] 757\t\t\t\n      JUMP \t\t\t\n    tag 1196\t\t\t\n      JUMPDEST \t\t\t\n    tag 1195\t\t\t\n      JUMPDEST \t\t\t\n      POP \t\t\t\n      SWAP2 \t\t\t\n      SWAP1 \t\t\t\n      POP \t\t\t\n      JUMP \t\t\t\n    tag 758\t\t\t\n      JUMPDEST \t\t\t\n      PUSH 4E487B7100000000000000000000000000000000000000000000000000000000\t\t\t\n      PUSH 0\t\t\t\n      MSTORE \t\t\t\n      PUSH 11\t\t\t\n      PUSH 4\t\t\t\n      MSTORE \t\t\t\n      PUSH 24\t\t\t\n      PUSH 0\t\t\t\n      REVERT \t\t\t\n    tag 169\t\t\t\n      JUMPDEST \t\t\t\n      PUSH 0\t\t\t\n      PUSH [tag] 1199\t\t\t\n      DUP3 \t\t\t\n      PUSH [tag] 678\t\t\t\n      JUMP \t\t\t\n    tag 1199\t\t\t\n      JUMPDEST \t\t\t\n      SWAP2 \t\t\t\n      POP \t\t\t\n      PUSH FFFFFFFFFFFFFFFFFFFFFFFFFFFFFFFFFFFFFFFFFFFFFFFFFFFFFFFFFFFFFFFF\t\t\t\n      DUP3 \t\t\t\n      SUB \t\t\t\n      PUSH [tag] 1200\t\t\t\n      JUMPI \t\t\t\n      PUSH [tag] 1201\t\t\t\n      PUSH [tag] 758\t\t\t\n      JUMP \t\t\t\n    tag 1201\t\t\t\n      JUMPDEST \t\t\t\n    tag 1200\t\t\t\n      JUMPDEST \t\t\t\n      PUSH 1\t\t\t\n      DUP3 \t\t\t\n      ADD \t\t\t\n      SWAP1 \t\t\t\n      POP \t\t\t\n      SWAP2 \t\t\t\n      SWAP1 \t\t\t\n      POP \t\t\t\n      JUMP \t\t\t\n    tag 236\t\t\t\n      JUMPDEST \t\t\t\n      PUSH 0\t\t\t\n      PUSH [tag] 1203\t\t\t\n      DUP3 \t\t\t\n      PUSH [tag] 678\t\t\t\n      JUMP \t\t\t\n    tag 1203\t\t\t\n      JUMPDEST \t\t\t\n      SWAP2 \t\t\t\n      POP \t\t\t\n      PUSH [tag] 1204\t\t\t\n      DUP4 \t\t\t\n      PUSH [tag] 678\t\t\t\n      JUMP \t\t\t\n    tag 1204\t\t\t\n      JUMPDEST \t\t\t\n      SWAP3 \t\t\t\n      POP \t\t\t\n      DUP3 \t\t\t\n      DUP3 \t\t\t\n      SUB \t\t\t\n      SWAP1 \t\t\t\n      POP \t\t\t\n      DUP2 \t\t\t\n      DUP2 \t\t\t\n      GT \t\t\t\n      ISZERO \t\t\t\n      PUSH [tag] 1205\t\t\t\n      JUMPI \t\t\t\n      PUSH [tag] 1206\t\t\t\n      PUSH [tag] 758\t\t\t\n      JUMP \t\t\t\n    tag 1206\t\t\t\n      JUMPDEST \t\t\t\n    tag 1205\t\t\t\n      JUMPDEST \t\t\t\n      SWAP3 \t\t\t\n      SWAP2 \t\t\t\n      POP \t\t\t\n      POP \t\t\t\n      JUMP \t\t\t\n    tag 245\t\t\t\n      JUMPDEST \t\t\t\n      PUSH 4E487B7100000000000000000000000000000000000000000000000000000000\t\t\t\n      PUSH 0\t\t\t\n      MSTORE \t\t\t\n      PUSH 31\t\t\t\n      PUSH 4\t\t\t\n      MSTORE \t\t\t\n      PUSH 24\t\t\t\n      PUSH 0\t\t\t\n      REVERT \t\t\t\n    tag 759\t\t\t\n      JUMPDEST \t\t\t\n      PUSH 41646D696E206E6F7420666F756E640000000000000000000000000000000000\t\t\t\n      PUSH 0\t\t\t\n      DUP3 \t\t\t\n      ADD \t\t\t\n      MSTORE \t\t\t\n      POP \t\t\t\n      JUMP \t\t\t\n    tag 760\t\t\t\n      JUMPDEST \t\t\t\n      PUSH 0\t\t\t\n      PUSH [tag] 1210\t\t\t\n      PUSH F\t\t\t\n      DUP4 \t\t\t\n      PUSH [tag] 707\t\t\t\n      JUMP \t\t\t\n    tag 1210\t\t\t\n      JUMPDEST \t\t\t\n      SWAP2 \t\t\t\n      POP \t\t\t\n      PUSH [tag] 1211\t\t\t\n      DUP3 \t\t\t\n      PUSH [tag] 759\t\t\t\n      JUMP \t\t\t\n    tag 1211\t\t\t\n      JUMPDEST \t\t\t\n      PUSH 20\t\t\t\n      DUP3 \t\t\t\n      ADD \t\t\t\n      SWAP1 \t\t\t\n      POP \t\t\t\n      SWAP2 \t\t\t\n      SWAP1 \t\t\t\n      POP \t\t\t\n      JUMP \t\t\t\n    tag 249\t\t\t\n      JUMPDEST \t\t\t\n      PUSH 0\t\t\t\n      PUSH 20\t\t\t\n      DUP3 \t\t\t\n      ADD \t\t\t\n      SWAP1 \t\t\t\n      POP \t\t\t\n      DUP2 \t\t\t\n      DUP2 \t\t\t\n      SUB \t\t\t\n      PUSH 0\t\t\t\n      DUP4 \t\t\t\n      ADD \t\t\t\n      MSTORE \t\t\t\n      PUSH [tag] 1213\t\t\t\n      DUP2 \t\t\t\n      PUSH [tag] 760\t\t\t\n      JUMP \t\t\t\n    tag 1213\t\t\t\n      JUMPDEST \t\t\t\n      SWAP1 \t\t\t\n      POP \t\t\t\n      SWAP2 \t\t\t\n      SWAP1 \t\t\t\n      POP \t\t\t\n      JUMP \t\t\t\n    tag 761\t\t\t\n      JUMPDEST \t\t\t\n      PUSH 4E616D6520726571756972656400000000000000000000000000000000000000\t\t\t\n      PUSH 0\t\t\t\n      DUP3 \t\t\t\n      ADD \t\t\t\n      MSTORE \t\t\t\n      POP \t\t\t\n      JUMP \t\t\t\n    tag 762\t\t\t\n      JUMPDEST \t\t\t\n      PUSH 0\t\t\t\n      PUSH [tag] 1216\t\t\t\n      PUSH D\t\t\t\n      DUP4 \t\t\t\n      PUSH [tag] 707\t\t\t\n      JUMP \t\t\t\n    tag 1216\t\t\t\n      JUMPDEST \t\t\t\n      SWAP2 \t\t\t\n      POP \t\t\t\n      PUSH [tag] 1217\t\t\t\n      DUP3 \t\t\t\n      PUSH [tag] 761\t\t\t\n      JUMP \t\t\t\n    tag 1217\t\t\t\n      JUMPDEST \t\t\t\n      PUSH 20\t\t\t\n      DUP3 \t\t\t\n      ADD \t\t\t\n      SWAP1 \t\t\t\n      POP \t\t\t\n      SWAP2 \t\t\t\n      SWAP1 \t\t\t\n      POP \t\t\t\n      JUMP \t\t\t\n    tag 253\t\t\t\n      JUMPDEST \t\t\t\n      PUSH 0\t\t\t\n      PUSH 20\t\t\t\n      DUP3 \t\t\t\n      ADD \t\t\t\n      SWAP1 \t\t\t\n      POP \t\t\t\n      DUP2 \t\t\t\n      DUP2 \t\t\t\n      SUB \t\t\t\n      PUSH 0\t\t\t\n      DUP4 \t\t\t\n      ADD \t\t\t\n      MSTORE \t\t\t\n      PUSH [tag] 1219\t\t\t\n      DUP2 \t\t\t\n      PUSH [tag] 762\t\t\t\n      JUMP \t\t\t\n    tag 1219\t\t\t\n      JUMPDEST \t\t\t\n      SWAP1 \t\t\t\n      POP \t\t\t\n      SWAP2 \t\t\t\n      SWAP1 \t\t\t\n      POP \t\t\t\n      JUMP \t\t\t\n    tag 763\t\t\t\n      JUMPDEST \t\t\t\n      PUSH 0\t\t\t\n      DUP2 \t\t\t\n      SWAP1 \t\t\t\n      POP \t\t\t\n      SWAP3 \t\t\t\n      SWAP2 \t\t\t\n      POP \t\t\t\n      POP \t\t\t\n      JUMP \t\t\t\n    tag 764\t\t\t\n      JUMPDEST \t\t\t\n      PUSH 0\t\t\t\n      PUSH [tag] 1222\t\t\t\n      DUP4 \t\t\t\n      DUP6 \t\t\t\n      PUSH [tag] 763\t\t\t\n      JUMP \t\t\t\n    tag 1222\t\t\t\n      JUMPDEST \t\t\t\n      SWAP4 \t\t\t\n      POP \t\t\t\n      PUSH [tag] 1223\t\t\t\n      DUP4 \t\t\t\n      DUP6 \t\t\t\n      DUP5 \t\t\t\n      PUSH [tag] 726\t\t\t\n      JUMP \t\t\t\n    tag 1223\t\t\t\n      JUMPDEST \t\t\t\n      DUP3 \t\t\t\n      DUP5 \t\t\t\n      ADD \t\t\t\n      SWAP1 \t\t\t\n      POP \t\t\t\n      SWAP4 \t\t\t\n      SWAP3 \t\t\t\n      POP \t\t\t\n      POP \t\t\t\n      POP \t\t\t\n      JUMP \t\t\t\n    tag 260\t\t\t\n      JUMPDEST \t\t\t\n      PUSH 0\t\t\t\n      PUSH [tag] 1225\t\t\t\n      DUP3 \t\t\t\n      DUP5 \t\t\t\n      DUP7 \t\t\t\n      PUSH [tag] 764\t\t\t\n      JUMP \t\t\t\n    tag 1225\t\t\t\n      JUMPDEST \t\t\t\n      SWAP2 \t\t\t\n      POP \t\t\t\n      DUP2 \t\t\t\n      SWAP1 \t\t\t\n      POP \t\t\t\n      SWAP4 \t\t\t\n      SWAP3 \t\t\t\n      POP \t\t\t\n      POP \t\t\t\n      POP \t\t\t\n      JUMP \t\t\t\n    tag 765\t\t\t\n      JUMPDEST \t\t\t\n      PUSH 0\t\t\t\n      DUP2 \t\t\t\n      SWAP1 \t\t\t\n      POP \t\t\t\n      DUP2 \t\t\t\n      PUSH 0\t\t\t\n      MSTORE \t\t\t\n      PUSH 20\t\t\t\n      PUSH 0\t\t\t\n      KECCAK256 \t\t\t\n      SWAP1 \t\t\t\n      POP \t\t\t\n      SWAP2 \t\t\t\n      SWAP1 \t\t\t\n      POP \t\t\t\n      JUMP \t\t\t\n    tag 766\t\t\t\n      JUMPDEST \t\t\t\n      PUSH 0\t\t\t\n      DUP2 \t\t\t\n      SLOAD \t\t\t\n      PUSH [tag] 1228\t\t\t\n      DUP2 \t\t\t\n      PUSH [tag] 166\t\t\t\n      JUMP \t\t\t\n    tag 1228\t\t\t\n      JUMPDEST \t\t\t\n      PUSH [tag] 1229\t\t\t\n      DUP2 \t\t\t\n      DUP7 \t\t\t\n      PUSH [tag] 763\t\t\t\n      JUMP \t\t\t\n    tag 1229\t\t\t\n      JUMPDEST \t\t\t\n      SWAP5 \t\t\t\n      POP \t\t\t\n      PUSH 1\t\t\t\n      DUP3 \t\t\t\n      AND \t\t\t\n      PUSH 0\t\t\t\n      DUP2 \t\t\t\n      EQ \t\t\t\n      PUSH [tag] 1231\t\t\t\n      JUMPI \t\t\t\n      PUSH 1\t\t\t\n      DUP2 \t\t\t\n      EQ \t\t\t\n      PUSH [tag] 1232\t\t\t\n      JUMPI \t\t\t\n      PUSH [tag] 1230\t\t\t\n      JUMP \t\t\t\n    tag 1231\t\t\t\n      JUMPDEST \t\t\t\n      PUSH FF\t\t\t\n      NOT \t\t\t\n      DUP4 \t\t\t\n      AND \t\t\t\n      DUP7 \t\t\t\n      MSTORE \t\t\t\n      DUP2 \t\t\t\n      ISZERO \t\t\t\n      ISZERO \t\t\t\n      DUP3 \t\t\t\n      MUL \t\t\t\n      DUP7 \t\t\t\n      ADD \t\t\t\n      SWAP4 \t\t\t\n      POP \t\t\t\n      PUSH [tag] 1230\t\t\t\n      JUMP \t\t\t\n    tag 1232\t\t\t\n      JUMPDEST \t\t\t\n      PUSH [tag] 1233\t\t\t\n      DUP6 \t\t\t\n      PUSH [tag] 765\t\t\t\n      JUMP \t\t\t\n    tag 1233\t\t\t\n      JUMPDEST \t\t\t\n      PUSH 0\t\t\t\n    tag 1234\t\t\t\n      JUMPDEST \t\t\t\n      DUP4 \t\t\t\n      DUP2 \t\t\t\n      LT \t\t\t\n      ISZERO \t\t\t\n      PUSH [tag] 1236\t\t\t\n      JUMPI \t\t\t\n      DUP2 \t\t\t\n      SLOAD \t\t\t\n      DUP2 \t\t\t\n      DUP10 \t\t\t\n      ADD \t\t\t\n      MSTORE \t\t\t\n      PUSH 1\t\t\t\n      DUP3 \t\t\t\n      ADD \t\t\t\n      SWAP2 \t\t\t\n      POP \t\t\t\n      PUSH 20\t\t\t\n      DUP2 \t\t\t\n      ADD \t\t\t\n      SWAP1 \t\t\t\n      POP \t\t\t\n      PUSH [tag] 1234\t\t\t\n      JUMP \t\t\t\n    tag 1236\t\t\t\n      JUMPDEST \t\t\t\n      DUP4 \t\t\t\n      DUP9 \t\t\t\n      ADD \t\t\t\n      SWAP6 \t\t\t\n      POP \t\t\t\n      POP \t\t\t\n      POP \t\t\t\n    tag 1230\t\t\t\n      JUMPDEST \t\t\t\n      POP \t\t\t\n      POP \t\t\t\n      POP \t\t\t\n      SWAP3 \t\t\t\n      SWAP2 \t\t\t\n      POP \t\t\t\n      POP \t\t\t\n      JUMP \t\t\t\n    tag 264\t\t\t\n      JUMPDEST \t\t\t\n      PUSH 0\t\t\t\n      PUSH [tag] 1238\t\t\t\n      DUP3 \t\t\t\n      DUP5 \t\t\t\n      PUSH [tag] 766\t\t\t\n      JUMP \t\t\t\n    tag 1238\t\t\t\n      JUMPDEST \t\t\t\n      SWAP2 \t\t\t\n      POP \t\t\t\n      DUP2 \t\t\t\n      SWAP1 \t\t\t\n      POP \t\t\t\n      SWAP3 \t\t\t\n      SWAP2 \t\t\t\n      POP \t\t\t\n      POP \t\t\t\n      JUMP \t\t\t\n    tag 767\t\t\t\n      JUMPDEST \t\t\t\n      PUSH 0\t\t\t\n      DUP2 \t\t\t\n      SWAP1 \t\t\t\n      POP \t\t\t\n      SWAP2 \t\t\t\n      SWAP1 \t\t\t\n      POP \t\t\t\n      JUMP \t\t\t\n    tag 768\t\t\t\n      JUMPDEST \t\t\t\n      PUSH [tag] 1241\t\t\t\n      PUSH [tag] 1242\t\t\t\n      DUP3 \t\t\t\n      PUSH [tag] 678\t\t\t\n      JUMP \t\t\t\n    tag 1242\t\t\t\n      JUMPDEST \t\t\t\n      PUSH [tag] 767\t\t\t\n      JUMP \t\t\t\n    tag 1241\t\t\t\n      JUMPDEST \t\t\t\n      DUP3 \t\t\t\n      MSTORE \t\t\t\n      POP \t\t\t\n      POP \t\t\t\n      JUMP \t\t\t\n    tag 769\t\t\t\n      JUMPDEST \t\t\t\n      PUSH 0\t\t\t\n      DUP2 \t\t\t\n      PUSH 60\t\t\t\n      SHL \t\t\t\n      SWAP1 \t\t\t\n      POP \t\t\t\n      SWAP2 \t\t\t\n      SWAP1 \t\t\t\n      POP \t\t\t\n      JUMP \t\t\t\n    tag 770\t\t\t\n      JUMPDEST \t\t\t\n      PUSH 0\t\t\t\n      PUSH [tag] 1245\t\t\t\n      DUP3 \t\t\t\n      PUSH [tag] 769\t\t\t\n      JUMP \t\t\t\n    tag 1245\t\t\t\n      JUMPDEST \t\t\t\n      SWAP1 \t\t\t\n      POP \t\t\t\n      SWAP2 \t\t\t\n      SWAP1 \t\t\t\n      POP \t\t\t\n      JUMP \t\t\t\n    tag 771\t\t\t\n      JUMPDEST \t\t\t\n      PUSH 0\t\t\t\n      PUSH [tag] 1247\t\t\t\n      DUP3 \t\t\t\n      PUSH [tag] 770\t\t\t\n      JUMP \t\t\t\n    tag 1247\t\t\t\n      JUMPDEST \t\t\t\n      SWAP1 \t\t\t\n      POP \t\t\t\n      SWAP2 \t\t\t\n      SWAP1 \t\t\t\n      POP \t\t\t\n      JUMP \t\t\t\n    tag 772\t\t\t\n      JUMPDEST \t\t\t\n      PUSH [tag] 1249\t\t\t\n      PUSH [tag] 1250\t\t\t\n      DUP3 \t\t\t\n      PUSH [tag] 675\t\t\t\n      JUMP \t\t\t\n    tag 1250\t\t\t\n      JUMPDEST \t\t\t\n      PUSH [tag] 771\t\t\t\n      JUMP \t\t\t\n    tag 1249\t\t\t\n      JUMPDEST \t\t\t\n      DUP3 \t\t\t\n      MSTORE \t\t\t\n      POP \t\t\t\n      POP \t\t\t\n      JUMP \t\t\t\n    tag 773\t\t\t\n      JUMPDEST \t\t\t\n      PUSH 0\t\t\t\n      DUP2 \t\t\t\n      SWAP1 \t\t\t\n      POP \t\t\t\n      SWAP3 \t\t\t\n      SWAP2 \t\t\t\n      POP \t\t\t\n      POP \t\t\t\n      JUMP \t\t\t\n    tag 774\t\t\t\n      JUMPDEST \t\t\t\n      PUSH 0\t\t\t\n      PUSH [tag] 1253\t\t\t\n      DUP4 \t\t\t\n      DUP6 \t\t\t\n      PUSH [tag] 773\t\t\t\n      JUMP \t\t\t\n    tag 1253\t\t\t\n      JUMPDEST \t\t\t\n      SWAP4 \t\t\t\n      POP \t\t\t\n      PUSH [tag] 1254\t\t\t\n      DUP4 \t\t\t\n      DUP6 \t\t\t\n      DUP5 \t\t\t\n      PUSH [tag] 726\t\t\t\n      JUMP \t\t\t\n    tag 1254\t\t\t\n      JUMPDEST \t\t\t\n      DUP3 \t\t\t\n      DUP5 \t\t\t\n      ADD \t\t\t\n      SWAP1 \t\t\t\n      POP \t\t\t\n      SWAP4 \t\t\t\n      SWAP3 \t\t\t\n      POP \t\t\t\n      POP \t\t\t\n      POP \t\t\t\n      JUMP \t\t\t\n    tag 277\t\t\t\n      JUMPDEST \t\t\t\n      PUSH 0\t\t\t\n      PUSH [tag] 1256\t\t\t\n      DUP3 \t\t\t\n      DUP10 \t\t\t\n      PUSH [tag] 768\t\t\t\n      JUMP \t\t\t\n    tag 1256\t\t\t\n      JUMPDEST \t\t\t\n      PUSH 20\t\t\t\n      DUP3 \t\t\t\n      ADD \t\t\t\n      SWAP2 \t\t\t\n      POP \t\t\t\n      PUSH [tag] 1257\t\t\t\n      DUP3 \t\t\t\n      DUP9 \t\t\t\n      PUSH [tag] 768\t\t\t\n      JUMP \t\t\t\n    tag 1257\t\t\t\n      JUMPDEST \t\t\t\n      PUSH 20\t\t\t\n      DUP3 \t\t\t\n      ADD \t\t\t\n      SWAP2 \t\t\t\n      POP \t\t\t\n      PUSH [tag] 1258\t\t\t\n      DUP3 \t\t\t\n      DUP8 \t\t\t\n      PUSH [tag] 772\t\t\t\n      JUMP \t\t\t\n    tag 1258\t\t\t\n      JUMPDEST \t\t\t\n      PUSH 14\t\t\t\n      DUP3 \t\t\t\n      ADD \t\t\t\n      SWAP2 \t\t\t\n      POP \t\t\t\n      PUSH [tag] 1259\t\t\t\n      DUP3 \t\t\t\n      DUP6 \t\t\t\n      DUP8 \t\t\t\n      PUSH [tag] 774\t\t\t\n      JUMP \t\t\t\n    tag 1259\t\t\t\n      JUMPDEST \t\t\t\n      SWAP2 \t\t\t\n      POP \t\t\t\n      PUSH [tag] 1260\t\t\t\n      DUP3 \t\t\t\n      DUP5 \t\t\t\n      PUSH [tag] 768\t\t\t\n      JUMP \t\t\t\n    tag 1260\t\t\t\n      JUMPDEST \t\t\t\n      PUSH 20\t\t\t\n      DUP3 \t\t\t\n      ADD \t\t\t\n      SWAP2 \t\t\t\n      POP \t\t\t\n      DUP2 \t\t\t\n      SWAP1 \t\t\t\n      POP \t\t\t\n      SWAP8 \t\t\t\n      SWAP7 \t\t\t\n      POP \t\t\t\n      POP \t\t\t\n      POP \t\t\t\n      POP \t\t\t\n      POP \t\t\t\n      POP \t\t\t\n      POP \t\t\t\n      JUMP \t\t\t\n    tag 775\t\t\t\n      JUMPDEST \t\t\t\n      PUSH 4E487B7100000000000000000000000000000000000000000000000000000000\t\t\t\n      PUSH 0\t\t\t\n      MSTORE \t\t\t\n      PUSH 12\t\t\t\n      PUSH 4\t\t\t\n      MSTORE \t\t\t\n      PUSH 24\t\t\t\n      PUSH 0\t\t\t\n      REVERT \t\t\t\n    tag 279\t\t\t\n      JUMPDEST \t\t\t\n      PUSH 0\t\t\t\n      PUSH [tag] 1263\t\t\t\n      DUP3 \t\t\t\n      PUSH [tag] 678\t\t\t\n      JUMP \t\t\t\n    tag 1263\t\t\t\n      JUMPDEST \t\t\t\n      SWAP2 \t\t\t\n      POP \t\t\t\n      PUSH [tag] 1264\t\t\t\n      DUP4 \t\t\t\n      PUSH [tag] 678\t\t\t\n      JUMP \t\t\t\n    tag 1264\t\t\t\n      JUMPDEST \t\t\t\n      SWAP3 \t\t\t\n      POP \t\t\t\n      DUP3 \t\t\t\n      PUSH [tag] 1265\t\t\t\n      JUMPI \t\t\t\n      PUSH [tag] 1266\t\t\t\n      PUSH [tag] 775\t\t\t\n      JUMP \t\t\t\n    tag 1266\t\t\t\n      JUMPDEST \t\t\t\n    tag 1265\t\t\t\n      JUMPDEST \t\t\t\n      DUP3 \t\t\t\n      DUP3 \t\t\t\n      MOD \t\t\t\n      SWAP1 \t\t\t\n      POP \t\t\t\n      SWAP3 \t\t\t\n      SWAP2 \t\t\t\n      POP \t\t\t\n      POP \t\t\t\n      JUMP \t\t\t\n    tag 281\t\t\t\n      JUMPDEST \t\t\t\n      PUSH 0\t\t\t\n      PUSH [tag] 1268\t\t\t\n      DUP3 \t\t\t\n      PUSH [tag] 678\t\t\t\n      JUMP \t\t\t\n    tag 1268\t\t\t\n      JUMPDEST \t\t\t\n      SWAP2 \t\t\t\n      POP \t\t\t\n      PUSH [tag] 1269\t\t\t\n      DUP4 \t\t\t\n      PUSH [tag] 678\t\t\t\n      JUMP \t\t\t\n    tag 1269\t\t\t\n      JUMPDEST \t\t\t\n      SWAP3 \t\t\t\n      POP \t\t\t\n      DUP3 \t\t\t\n      DUP3 \t\t\t\n      ADD \t\t\t\n      SWAP1 \t\t\t\n      POP \t\t\t\n      DUP1 \t\t\t\n      DUP3 \t\t\t\n      GT \t\t\t\n      ISZERO \t\t\t\n      PUSH [tag] 1270\t\t\t\n      JUMPI \t\t\t\n      PUSH [tag] 1271\t\t\t\n      PUSH [tag] 758\t\t\t\n      JUMP \t\t\t\n    tag 1271\t\t\t\n      JUMPDEST \t\t\t\n    tag 1270\t\t\t\n      JUMPDEST \t\t\t\n      SWAP3 \t\t\t\n      SWAP2 \t\t\t\n      POP \t\t\t\n      POP \t\t\t\n      JUMP \t\t\t\n    tag 776\t\t\t\n      JUMPDEST \t\t\t\n      PUSH 556E61626C6520746F2066696E6420756E697175652073686F727420746F6B65\t\t\t\n      PUSH 0\t\t\t\n      DUP3 \t\t\t\n      ADD \t\t\t\n      MSTORE \t\t\t\n      PUSH 6E20494400000000000000000000000000000000000000000000000000000000\t\t\t\n      PUSH 20\t\t\t\n      DUP3 \t\t\t\n      ADD \t\t\t\n      MSTORE \t\t\t\n      POP \t\t\t\n      JUMP \t\t\t\n    tag 777\t\t\t\n      JUMPDEST \t\t\t\n      PUSH 0\t\t\t\n      PUSH [tag] 1274\t\t\t\n      PUSH 24\t\t\t\n      DUP4 \t\t\t\n      PUSH [tag] 707\t\t\t\n      JUMP \t\t\t\n    tag 1274\t\t\t\n      JUMPDEST \t\t\t\n      SWAP2 \t\t\t\n      POP \t\t\t\n      PUSH [tag] 1275\t\t\t\n      DUP3 \t\t\t\n      PUSH [tag] 776\t\t\t\n      JUMP \t\t\t\n    tag 1275\t\t\t\n      JUMPDEST \t\t\t\n      PUSH 40\t\t\t\n      DUP3 \t\t\t\n      ADD \t\t\t\n      SWAP1 \t\t\t\n      POP \t\t\t\n      SWAP2 \t\t\t\n      SWAP1 \t\t\t\n      POP \t\t\t\n      JUMP \t\t\t\n    tag 285\t\t\t\n      JUMPDEST \t\t\t\n      PUSH 0\t\t\t\n      PUSH 20\t\t\t\n      DUP3 \t\t\t\n      ADD \t\t\t\n      SWAP1 \t\t\t\n      POP \t\t\t\n      DUP2 \t\t\t\n      DUP2 \t\t\t\n      SUB \t\t\t\n      PUSH 0\t\t\t\n      DUP4 \t\t\t\n      ADD \t\t\t\n      MSTORE \t\t\t\n      PUSH [tag] 1277\t\t\t\n      DUP2 \t\t\t\n      PUSH [tag] 777\t\t\t\n      JUMP \t\t\t\n    tag 1277\t\t\t\n      JUMPDEST \t\t\t\n      SWAP1 \t\t\t\n      POP \t\t\t\n      SWAP2 \t\t\t\n      SWAP1 \t\t\t\n      POP \t\t\t\n      JUMP \t\t\t\n    tag 778\t\t\t\n      JUMPDEST \t\t\t\n      PUSH 546F6B656E494454616B656E0000000000000000000000000000000000000000\t\t\t\n      PUSH 0\t\t\t\n      DUP3 \t\t\t\n      ADD \t\t\t\n      MSTORE \t\t\t\n      POP \t\t\t\n      JUMP \t\t\t\n    tag 779\t\t\t\n      JUMPDEST \t\t\t\n      PUSH 0\t\t\t\n      PUSH [tag] 1280\t\t\t\n      PUSH C\t\t\t\n      DUP4 \t\t\t\n      PUSH [tag] 707\t\t\t\n      JUMP \t\t\t\n    tag 1280\t\t\t\n      JUMPDEST \t\t\t\n      SWAP2 \t\t\t\n      POP \t\t\t\n      PUSH [tag] 1281\t\t\t\n      DUP3 \t\t\t\n      PUSH [tag] 778\t\t\t\n      JUMP \t\t\t\n    tag 1281\t\t\t\n      JUMPDEST \t\t\t\n      PUSH 20\t\t\t\n      DUP3 \t\t\t\n      ADD \t\t\t\n      SWAP1 \t\t\t\n      POP \t\t\t\n      SWAP2 \t\t\t\n      SWAP1 \t\t\t\n      POP \t\t\t\n      JUMP \t\t\t\n    tag 292\t\t\t\n      JUMPDEST \t\t\t\n      PUSH 0\t\t\t\n      PUSH 20\t\t\t\n      DUP3 \t\t\t\n      ADD \t\t\t\n      SWAP1 \t\t\t\n      POP \t\t\t\n      DUP2 \t\t\t\n      DUP2 \t\t\t\n      SUB \t\t\t\n      PUSH 0\t\t\t\n      DUP4 \t\t\t\n      ADD \t\t\t\n      MSTORE \t\t\t\n      PUSH [tag] 1283\t\t\t\n      DUP2 \t\t\t\n      PUSH [tag] 779\t\t\t\n      JUMP \t\t\t\n    tag 1283\t\t\t\n      JUMPDEST \t\t\t\n      SWAP1 \t\t\t\n      POP \t\t\t\n      SWAP2 \t\t\t\n      SWAP1 \t\t\t\n      POP \t\t\t\n      JUMP \t\t\t\n    tag 780\t\t\t\n      JUMPDEST \t\t\t\n      PUSH 0\t\t\t\n      DUP3 \t\t\t\n      SWAP1 \t\t\t\n      POP \t\t\t\n      SWAP3 \t\t\t\n      SWAP2 \t\t\t\n      POP \t\t\t\n      POP \t\t\t\n      JUMP \t\t\t\n    tag 781\t\t\t\n      JUMPDEST \t\t\t\n      PUSH 0\t\t\t\n      DUP2 \t\t\t\n      SWAP1 \t\t\t\n      POP \t\t\t\n      DUP2 \t\t\t\n      PUSH 0\t\t\t\n      MSTORE \t\t\t\n      PUSH 20\t\t\t\n      PUSH 0\t\t\t\n      KECCAK256 \t\t\t\n      SWAP1 \t\t\t\n      POP \t\t\t\n      SWAP2 \t\t\t\n      SWAP1 \t\t\t\n      POP \t\t\t\n      JUMP \t\t\t\n    tag 782\t\t\t\n      JUMPDEST \t\t\t\n      PUSH 0\t\t\t\n      PUSH 20\t\t\t\n      PUSH 1F\t\t\t\n      DUP4 \t\t\t\n      ADD \t\t\t\n      DIV \t\t\t\n      SWAP1 \t\t\t\n      POP \t\t\t\n      SWAP2 \t\t\t\n      SWAP1 \t\t\t\n      POP \t\t\t\n      JUMP \t\t\t\n    tag 783\t\t\t\n      JUMPDEST \t\t\t\n      PUSH 0\t\t\t\n      DUP3 \t\t\t\n      DUP3 \t\t\t\n      SHL \t\t\t\n      SWAP1 \t\t\t\n      POP \t\t\t\n      SWAP3 \t\t\t\n      SWAP2 \t\t\t\n      POP \t\t\t\n      POP \t\t\t\n      JUMP \t\t\t\n    tag 784\t\t\t\n      JUMPDEST \t\t\t\n      PUSH 0\t\t\t\n      PUSH 8\t\t\t\n      DUP4 \t\t\t\n      MUL \t\t\t\n      PUSH [tag] 1289\t\t\t\n      PUSH FFFFFFFFFFFFFFFFFFFFFFFFFFFFFFFFFFFFFFFFFFFFFFFFFFFFFFFFFFFFFFFF\t\t\t\n      DUP3 \t\t\t\n      PUSH [tag] 783\t\t\t\n      JUMP \t\t\t\n    tag 1289\t\t\t\n      JUMPDEST \t\t\t\n      PUSH [tag] 1290\t\t\t\n      DUP7 \t\t\t\n      DUP4 \t\t\t\n      PUSH [tag] 783\t\t\t\n      JUMP \t\t\t\n    tag 1290\t\t\t\n      JUMPDEST \t\t\t\n      SWAP6 \t\t\t\n      POP \t\t\t\n      DUP1 \t\t\t\n      NOT \t\t\t\n      DUP5 \t\t\t\n      AND \t\t\t\n      SWAP4 \t\t\t\n      POP \t\t\t\n      DUP1 \t\t\t\n      DUP7 \t\t\t\n      AND \t\t\t\n      DUP5 \t\t\t\n      OR \t\t\t\n      SWAP3 \t\t\t\n      POP \t\t\t\n      POP \t\t\t\n      POP \t\t\t\n      SWAP4 \t\t\t\n      SWAP3 \t\t\t\n      POP \t\t\t\n      POP \t\t\t\n      POP \t\t\t\n      JUMP \t\t\t\n    tag 785\t\t\t\n      JUMPDEST \t\t\t\n      PUSH 0\t\t\t\n      PUSH [tag] 1292\t\t\t\n      PUSH [tag] 1293\t\t\t\n      PUSH [tag] 1294\t\t\t\n      DUP5 \t\t\t\n      PUSH [tag] 678\t\t\t\n      JUMP \t\t\t\n    tag 1294\t\t\t\n      JUMPDEST \t\t\t\n      PUSH [tag] 709\t\t\t\n      JUMP \t\t\t\n    tag 1293\t\t\t\n      JUMPDEST \t\t\t\n      PUSH [tag] 678\t\t\t\n      JUMP \t\t\t\n    tag 1292\t\t\t\n      JUMPDEST \t\t\t\n      SWAP1 \t\t\t\n      POP \t\t\t\n      SWAP2 \t\t\t\n      SWAP1 \t\t\t\n      POP \t\t\t\n      JUMP \t\t\t\n    tag 786\t\t\t\n      JUMPDEST \t\t\t\n      PUSH 0\t\t\t\n      DUP2 \t\t\t\n      SWAP1 \t\t\t\n      POP \t\t\t\n      SWAP2 \t\t\t\n      SWAP1 \t\t\t\n      POP \t\t\t\n      JUMP \t\t\t\n    tag 787\t\t\t\n      JUMPDEST \t\t\t\n      PUSH [tag] 1297\t\t\t\n      DUP4 \t\t\t\n      PUSH [tag] 785\t\t\t\n      JUMP \t\t\t\n    tag 1297\t\t\t\n      JUMPDEST \t\t\t\n      PUSH [tag] 1298\t\t\t\n      PUSH [tag] 1299\t\t\t\n      DUP3 \t\t\t\n      PUSH [tag] 786\t\t\t\n      JUMP \t\t\t\n    tag 1299\t\t\t\n      JUMPDEST \t\t\t\n      DUP5 \t\t\t\n      DUP5 \t\t\t\n      SLOAD \t\t\t\n      PUSH [tag] 784\t\t\t\n      JUMP \t\t\t\n    tag 1298\t\t\t\n      JUMPDEST \t\t\t\n      DUP3 \t\t\t\n      SSTORE \t\t\t\n      POP \t\t\t\n      POP \t\t\t\n      POP \t\t\t\n      POP \t\t\t\n      JUMP \t\t\t\n    tag 788\t\t\t\n      JUMPDEST \t\t\t\n      PUSH 0\t\t\t\n      SWAP1 \t\t\t\n      JUMP \t\t\t\n    tag 789\t\t\t\n      JUMPDEST \t\t\t\n      PUSH [tag] 1302\t\t\t\n      PUSH [tag] 788\t\t\t\n      JUMP \t\t\t\n    tag 1302\t\t\t\n      JUMPDEST \t\t\t\n      PUSH [tag] 1303\t\t\t\n      DUP2 \t\t\t\n      DUP5 \t\t\t\n      DUP5 \t\t\t\n      PUSH [tag] 787\t\t\t\n      JUMP \t\t\t\n    tag 1303\t\t\t\n      JUMPDEST \t\t\t\n      POP \t\t\t\n      POP \t\t\t\n      POP \t\t\t\n      JUMP \t\t\t\n    tag 790\t\t\t\n      JUMPDEST \t\t\t\n    tag 1305\t\t\t\n      JUMPDEST \t\t\t\n      DUP2 \t\t\t\n      DUP2 \t\t\t\n      LT \t\t\t\n      ISZERO \t\t\t\n      PUSH [tag] 1307\t\t\t\n      JUMPI \t\t\t\n      PUSH [tag] 1308\t\t\t\n      PUSH 0\t\t\t\n      DUP3 \t\t\t\n      PUSH [tag] 789\t\t\t\n      JUMP \t\t\t\n    tag 1308\t\t\t\n      JUMPDEST \t\t\t\n      PUSH 1\t\t\t\n      DUP2 \t\t\t\n      ADD \t\t\t\n      SWAP1 \t\t\t\n      POP \t\t\t\n      PUSH [tag] 1305\t\t\t\n      JUMP \t\t\t\n    tag 1307\t\t\t\n      JUMPDEST \t\t\t\n      POP \t\t\t\n      POP \t\t\t\n      JUMP \t\t\t\n    tag 791\t\t\t\n      JUMPDEST \t\t\t\n      PUSH 1F\t\t\t\n      DUP3 \t\t\t\n      GT \t\t\t\n      ISZERO \t\t\t\n      PUSH [tag] 1310\t\t\t\n      JUMPI \t\t\t\n      PUSH [tag] 1311\t\t\t\n      DUP2 \t\t\t\n      PUSH [tag] 781\t\t\t\n      JUMP \t\t\t\n    tag 1311\t\t\t\n      JUMPDEST \t\t\t\n      PUSH [tag] 1312\t\t\t\n      DUP5 \t\t\t\n      PUSH [tag] 782\t\t\t\n      JUMP \t\t\t\n    tag 1312\t\t\t\n      JUMPDEST \t\t\t\n      DUP2 \t\t\t\n      ADD \t\t\t\n      PUSH 20\t\t\t\n      DUP6 \t\t\t\n      LT \t\t\t\n      ISZERO \t\t\t\n      PUSH [tag] 1313\t\t\t\n      JUMPI \t\t\t\n      DUP2 \t\t\t\n      SWAP1 \t\t\t\n      POP \t\t\t\n    tag 1313\t\t\t\n      JUMPDEST \t\t\t\n      PUSH [tag] 1314\t\t\t\n      PUSH [tag] 1315\t\t\t\n      DUP6 \t\t\t\n      PUSH [tag] 782\t\t\t\n      JUMP \t\t\t\n    tag 1315\t\t\t\n      JUMPDEST \t\t\t\n      DUP4 \t\t\t\n      ADD \t\t\t\n      DUP3 \t\t\t\n      PUSH [tag] 790\t\t\t\n      JUMP \t\t\t\n    tag 1314\t\t\t\n      JUMPDEST \t\t\t\n      POP \t\t\t\n      POP \t\t\t\n    tag 1310\t\t\t\n      JUMPDEST \t\t\t\n      POP \t\t\t\n      POP \t\t\t\n      POP \t\t\t\n      JUMP \t\t\t\n    tag 792\t\t\t\n      JUMPDEST \t\t\t\n      PUSH 0\t\t\t\n      DUP3 \t\t\t\n      DUP3 \t\t\t\n      SHR \t\t\t\n      SWAP1 \t\t\t\n      POP \t\t\t\n      SWAP3 \t\t\t\n      SWAP2 \t\t\t\n      POP \t\t\t\n      POP \t\t\t\n      JUMP \t\t\t\n    tag 793\t\t\t\n      JUMPDEST \t\t\t\n      PUSH 0\t\t\t\n      PUSH [tag] 1318\t\t\t\n      PUSH 0\t\t\t\n      NOT \t\t\t\n      DUP5 \t\t\t\n      PUSH 8\t\t\t\n      MUL \t\t\t\n      PUSH [tag] 792\t\t\t\n      JUMP \t\t\t\n    tag 1318\t\t\t\n      JUMPDEST \t\t\t\n      NOT \t\t\t\n      DUP1 \t\t\t\n      DUP4 \t\t\t\n      AND \t\t\t\n      SWAP2 \t\t\t\n      POP \t\t\t\n      POP \t\t\t\n      SWAP3 \t\t\t\n      SWAP2 \t\t\t\n      POP \t\t\t\n      POP \t\t\t\n      JUMP \t\t\t\n    tag 794\t\t\t\n      JUMPDEST \t\t\t\n      PUSH 0\t\t\t\n      PUSH [tag] 1320\t\t\t\n      DUP4 \t\t\t\n      DUP4 \t\t\t\n      PUSH [tag] 793\t\t\t\n      JUMP \t\t\t\n    tag 1320\t\t\t\n      JUMPDEST \t\t\t\n      SWAP2 \t\t\t\n      POP \t\t\t\n      DUP3 \t\t\t\n      PUSH 2\t\t\t\n      MUL \t\t\t\n      DUP3 \t\t\t\n      OR \t\t\t\n      SWAP1 \t\t\t\n      POP \t\t\t\n      SWAP3 \t\t\t\n      SWAP2 \t\t\t\n      POP \t\t\t\n      POP \t\t\t\n      JUMP \t\t\t\n    tag 295\t\t\t\n      JUMPDEST \t\t\t\n      PUSH [tag] 1322\t\t\t\n      DUP4 \t\t\t\n      DUP4 \t\t\t\n      PUSH [tag] 780\t\t\t\n      JUMP \t\t\t\n    tag 1322\t\t\t\n      JUMPDEST \t\t\t\n      PUSH FFFFFFFFFFFFFFFF\t\t\t\n      DUP2 \t\t\t\n      GT \t\t\t\n      ISZERO \t\t\t\n      PUSH [tag] 1323\t\t\t\n      JUMPI \t\t\t\n      PUSH [tag] 1324\t\t\t\n      PUSH [tag] 173\t\t\t\n      JUMP \t\t\t\n    tag 1324\t\t\t\n      JUMPDEST \t\t\t\n    tag 1323\t\t\t\n      JUMPDEST \t\t\t\n      PUSH [tag] 1325\t\t\t\n      DUP3 \t\t\t\n      SLOAD \t\t\t\n      PUSH [tag] 166\t\t\t\n      JUMP \t\t\t\n    tag 1325\t\t\t\n      JUMPDEST \t\t\t\n      PUSH [tag] 1326\t\t\t\n      DUP3 \t\t\t\n      DUP3 \t\t\t\n      DUP6 \t\t\t\n      PUSH [tag] 791\t\t\t\n      JUMP \t\t\t\n    tag 1326\t\t\t\n      JUMPDEST \t\t\t\n      PUSH 0\t\t\t\n      PUSH 1F\t\t\t\n      DUP4 \t\t\t\n      GT \t\t\t\n      PUSH 1\t\t\t\n      DUP2 \t\t\t\n      EQ \t\t\t\n      PUSH [tag] 1328\t\t\t\n      JUMPI \t\t\t\n      PUSH 0\t\t\t\n      DUP5 \t\t\t\n      ISZERO \t\t\t\n      PUSH [tag] 1329\t\t\t\n      JUMPI \t\t\t\n      DUP3 \t\t\t\n      DUP8 \t\t\t\n      ADD \t\t\t\n      CALLDATALOAD \t\t\t\n      SWAP1 \t\t\t\n      POP \t\t\t\n    tag 1329\t\t\t\n      JUMPDEST \t\t\t\n      PUSH [tag] 1330\t\t\t\n      DUP6 \t\t\t\n      DUP3 \t\t\t\n      PUSH [tag] 794\t\t\t\n      JUMP \t\t\t\n    tag 1330\t\t\t\n      JUMPDEST \t\t\t\n      DUP7 \t\t\t\n      SSTORE \t\t\t\n      POP \t\t\t\n      PUSH [tag] 1327\t\t\t\n      JUMP \t\t\t\n    tag 1328\t\t\t\n      JUMPDEST \t\t\t\n      PUSH 1F\t\t\t\n      NOT \t\t\t\n      DUP5 \t\t\t\n      AND \t\t\t\n      PUSH [tag] 1331\t\t\t\n      DUP7 \t\t\t\n      PUSH [tag] 781\t\t\t\n      JUMP \t\t\t\n    tag 1331\t\t\t\n      JUMPDEST \t\t\t\n      PUSH 0\t\t\t\n    tag 1332\t\t\t\n      JUMPDEST \t\t\t\n      DUP3 \t\t\t\n      DUP2 \t\t\t\n      LT \t\t\t\n      ISZERO \t\t\t\n      PUSH [tag] 1334\t\t\t\n      JUMPI \t\t\t\n      DUP5 \t\t\t\n      DUP10 \t\t\t\n      ADD \t\t\t\n      CALLDATALOAD \t\t\t\n      DUP3 \t\t\t\n      SSTORE \t\t\t\n      PUSH 1\t\t\t\n      DUP3 \t\t\t\n      ADD \t\t\t\n      SWAP2 \t\t\t\n      POP \t\t\t\n      PUSH 20\t\t\t\n      DUP6 \t\t\t\n      ADD \t\t\t\n      SWAP5 \t\t\t\n      POP \t\t\t\n      PUSH 20\t\t\t\n      DUP2 \t\t\t\n      ADD \t\t\t\n      SWAP1 \t\t\t\n      POP \t\t\t\n      PUSH [tag] 1332\t\t\t\n      JUMP \t\t\t\n    tag 1334\t\t\t\n      JUMPDEST \t\t\t\n      DUP7 \t\t\t\n      DUP4 \t\t\t\n      LT \t\t\t\n      ISZERO \t\t\t\n      PUSH [tag] 1335\t\t\t\n      JUMPI \t\t\t\n      DUP5 \t\t\t\n      DUP10 \t\t\t\n      ADD \t\t\t\n      CALLDATALOAD \t\t\t\n      PUSH [tag] 1336\t\t\t\n      PUSH 1F\t\t\t\n      DUP10 \t\t\t\n      AND \t\t\t\n      DUP3 \t\t\t\n      PUSH [tag] 793\t\t\t\n      JUMP \t\t\t\n    tag 1336\t\t\t\n      JUMPDEST \t\t\t\n      DUP4 \t\t\t\n      SSTORE \t\t\t\n      POP \t\t\t\n    tag 1335\t\t\t\n      JUMPDEST \t\t\t\n      PUSH 1\t\t\t\n      PUSH 2\t\t\t\n      DUP9 \t\t\t\n      MUL \t\t\t\n      ADD \t\t\t\n      DUP9 \t\t\t\n      SSTORE \t\t\t\n      POP \t\t\t\n      POP \t\t\t\n      POP \t\t\t\n    tag 1327\t\t\t\n      JUMPDEST \t\t\t\n      POP \t\t\t\n      POP \t\t\t\n      POP \t\t\t\n      POP \t\t\t\n      POP \t\t\t\n      POP \t\t\t\n      POP \t\t\t\n      JUMP \t\t\t\n    tag 795\t\t\t\n      JUMPDEST \t\t\t\n      PUSH 455243313135353A204D69736D617463686564206172726179206C656E677468\t\t\t\n      PUSH 0\t\t\t\n      DUP3 \t\t\t\n      ADD \t\t\t\n      MSTORE \t\t\t\n      PUSH 7300000000000000000000000000000000000000000000000000000000000000\t\t\t\n      PUSH 20\t\t\t\n      DUP3 \t\t\t\n      ADD \t\t\t\n      MSTORE \t\t\t\n      POP \t\t\t\n      JUMP \t\t\t\n    tag 796\t\t\t\n      JUMPDEST \t\t\t\n      PUSH 0\t\t\t\n      PUSH [tag] 1339\t\t\t\n      PUSH 21\t\t\t\n      DUP4 \t\t\t\n      PUSH [tag] 707\t\t\t\n      JUMP \t\t\t\n    tag 1339\t\t\t\n      JUMPDEST \t\t\t\n      SWAP2 \t\t\t\n      POP \t\t\t\n      PUSH [tag] 1340\t\t\t\n      DUP3 \t\t\t\n      PUSH [tag] 795\t\t\t\n      JUMP \t\t\t\n    tag 1340\t\t\t\n      JUMPDEST \t\t\t\n      PUSH 40\t\t\t\n      DUP3 \t\t\t\n      ADD \t\t\t\n      SWAP1 \t\t\t\n      POP \t\t\t\n      SWAP2 \t\t\t\n      SWAP1 \t\t\t\n      POP \t\t\t\n      JUMP \t\t\t\n    tag 299\t\t\t\n      JUMPDEST \t\t\t\n      PUSH 0\t\t\t\n      PUSH 20\t\t\t\n      DUP3 \t\t\t\n      ADD \t\t\t\n      SWAP1 \t\t\t\n      POP \t\t\t\n      DUP2 \t\t\t\n      DUP2 \t\t\t\n      SUB \t\t\t\n      PUSH 0\t\t\t\n      DUP4 \t\t\t\n      ADD \t\t\t\n      MSTORE \t\t\t\n      PUSH [tag] 1342\t\t\t\n      DUP2 \t\t\t\n      PUSH [tag] 796\t\t\t\n      JUMP \t\t\t\n    tag 1342\t\t\t\n      JUMPDEST \t\t\t\n      SWAP1 \t\t\t\n      POP \t\t\t\n      SWAP2 \t\t\t\n      SWAP1 \t\t\t\n      POP \t\t\t\n      JUMP \t\t\t\n    tag 797\t\t\t\n      JUMPDEST \t\t\t\n      PUSH 455243313135353A207472616E7366657220746F20746865207A65726F206164\t\t\t\n      PUSH 0\t\t\t\n      DUP3 \t\t\t\n      ADD \t\t\t\n      MSTORE \t\t\t\n      PUSH 6472657373000000000000000000000000000000000000000000000000000000\t\t\t\n      PUSH 20\t\t\t\n      DUP3 \t\t\t\n      ADD \t\t\t\n      MSTORE \t\t\t\n      POP \t\t\t\n      JUMP \t\t\t\n    tag 798\t\t\t\n      JUMPDEST \t\t\t\n      PUSH 0\t\t\t\n      PUSH [tag] 1345\t\t\t\n      PUSH 25\t\t\t\n      DUP4 \t\t\t\n      PUSH [tag] 707\t\t\t\n      JUMP \t\t\t\n    tag 1345\t\t\t\n      JUMPDEST \t\t\t\n      SWAP2 \t\t\t\n      POP \t\t\t\n      PUSH [tag] 1346\t\t\t\n      DUP3 \t\t\t\n      PUSH [tag] 797\t\t\t\n      JUMP \t\t\t\n    tag 1346\t\t\t\n      JUMPDEST \t\t\t\n      PUSH 40\t\t\t\n      DUP3 \t\t\t\n      ADD \t\t\t\n      SWAP1 \t\t\t\n      POP \t\t\t\n      SWAP2 \t\t\t\n      SWAP1 \t\t\t\n      POP \t\t\t\n      JUMP \t\t\t\n    tag 302\t\t\t\n      JUMPDEST \t\t\t\n      PUSH 0\t\t\t\n      PUSH 20\t\t\t\n      DUP3 \t\t\t\n      ADD \t\t\t\n      SWAP1 \t\t\t\n      POP \t\t\t\n      DUP2 \t\t\t\n      DUP2 \t\t\t\n      SUB \t\t\t\n      PUSH 0\t\t\t\n      DUP4 \t\t\t\n      ADD \t\t\t\n      MSTORE \t\t\t\n      PUSH [tag] 1348\t\t\t\n      DUP2 \t\t\t\n      PUSH [tag] 798\t\t\t\n      JUMP \t\t\t\n    tag 1348\t\t\t\n      JUMPDEST \t\t\t\n      SWAP1 \t\t\t\n      POP \t\t\t\n      SWAP2 \t\t\t\n      SWAP1 \t\t\t\n      POP \t\t\t\n      JUMP \t\t\t\n    tag 329\t\t\t\n      JUMPDEST \t\t\t\n      PUSH 0\t\t\t\n      PUSH 40\t\t\t\n      DUP3 \t\t\t\n      ADD \t\t\t\n      SWAP1 \t\t\t\n      POP \t\t\t\n      PUSH [tag] 1350\t\t\t\n      PUSH 0\t\t\t\n      DUP4 \t\t\t\n      ADD \t\t\t\n      DUP6 \t\t\t\n      PUSH [tag] 681\t\t\t\n      JUMP \t\t\t\n    tag 1350\t\t\t\n      JUMPDEST \t\t\t\n      PUSH [tag] 1351\t\t\t\n      PUSH 20\t\t\t\n      DUP4 \t\t\t\n      ADD \t\t\t\n      DUP5 \t\t\t\n      PUSH [tag] 681\t\t\t\n      JUMP \t\t\t\n    tag 1351\t\t\t\n      JUMPDEST \t\t\t\n      SWAP4 \t\t\t\n      SWAP3 \t\t\t\n      POP \t\t\t\n      POP \t\t\t\n      POP \t\t\t\n      JUMP \t\t\t\n    tag 799\t\t\t\n      JUMPDEST \t\t\t\n      PUSH 43616C6C6572206973206E6F7420616E2061646D696E00000000000000000000\t\t\t\n      PUSH 0\t\t\t\n      DUP3 \t\t\t\n      ADD \t\t\t\n      MSTORE \t\t\t\n      POP \t\t\t\n      JUMP \t\t\t\n    tag 800\t\t\t\n      JUMPDEST \t\t\t\n      PUSH 0\t\t\t\n      PUSH [tag] 1354\t\t\t\n      PUSH 16\t\t\t\n      DUP4 \t\t\t\n      PUSH [tag] 707\t\t\t\n      JUMP \t\t\t\n    tag 1354\t\t\t\n      JUMPDEST \t\t\t\n      SWAP2 \t\t\t\n      POP \t\t\t\n      PUSH [tag] 1355\t\t\t\n      DUP3 \t\t\t\n      PUSH [tag] 799\t\t\t\n      JUMP \t\t\t\n    tag 1355\t\t\t\n      JUMPDEST \t\t\t\n      PUSH 20\t\t\t\n      DUP3 \t\t\t\n      ADD \t\t\t\n      SWAP1 \t\t\t\n      POP \t\t\t\n      SWAP2 \t\t\t\n      SWAP1 \t\t\t\n      POP \t\t\t\n      JUMP \t\t\t\n    tag 349\t\t\t\n      JUMPDEST \t\t\t\n      PUSH 0\t\t\t\n      PUSH 20\t\t\t\n      DUP3 \t\t\t\n      ADD \t\t\t\n      SWAP1 \t\t\t\n      POP \t\t\t\n      DUP2 \t\t\t\n      DUP2 \t\t\t\n      SUB \t\t\t\n      PUSH 0\t\t\t\n      DUP4 \t\t\t\n      ADD \t\t\t\n      MSTORE \t\t\t\n      PUSH [tag] 1357\t\t\t\n      DUP2 \t\t\t\n      PUSH [tag] 800\t\t\t\n      JUMP \t\t\t\n    tag 1357\t\t\t\n      JUMPDEST \t\t\t\n      SWAP1 \t\t\t\n      POP \t\t\t\n      SWAP2 \t\t\t\n      SWAP1 \t\t\t\n      POP \t\t\t\n      JUMP \t\t\t\n    tag 801\t\t\t\n      JUMPDEST \t\t\t\n      PUSH 746F6B656E20696420646F6573206E6F74206578697374000000000000000000\t\t\t\n      PUSH 0\t\t\t\n      DUP3 \t\t\t\n      ADD \t\t\t\n      MSTORE \t\t\t\n      POP \t\t\t\n      JUMP \t\t\t\n    tag 802\t\t\t\n      JUMPDEST \t\t\t\n      PUSH 0\t\t\t\n      PUSH [tag] 1360\t\t\t\n      PUSH 17\t\t\t\n      DUP4 \t\t\t\n      PUSH [tag] 707\t\t\t\n      JUMP \t\t\t\n    tag 1360\t\t\t\n      JUMPDEST \t\t\t\n      SWAP2 \t\t\t\n      POP \t\t\t\n      PUSH [tag] 1361\t\t\t\n      DUP3 \t\t\t\n      PUSH [tag] 801\t\t\t\n      JUMP \t\t\t\n    tag 1361\t\t\t\n      JUMPDEST \t\t\t\n      PUSH 20\t\t\t\n      DUP3 \t\t\t\n      ADD \t\t\t\n      SWAP1 \t\t\t\n      POP \t\t\t\n      SWAP2 \t\t\t\n      SWAP1 \t\t\t\n      POP \t\t\t\n      JUMP \t\t\t\n    tag 354\t\t\t\n      JUMPDEST \t\t\t\n      PUSH 0\t\t\t\n      PUSH 20\t\t\t\n      DUP3 \t\t\t\n      ADD \t\t\t\n      SWAP1 \t\t\t\n      POP \t\t\t\n      DUP2 \t\t\t\n      DUP2 \t\t\t\n      SUB \t\t\t\n      PUSH 0\t\t\t\n      DUP4 \t\t\t\n      ADD \t\t\t\n      MSTORE \t\t\t\n      PUSH [tag] 1363\t\t\t\n      DUP2 \t\t\t\n      PUSH [tag] 802\t\t\t\n      JUMP \t\t\t\n    tag 1363\t\t\t\n      JUMPDEST \t\t\t\n      SWAP1 \t\t\t\n      POP \t\t\t\n      SWAP2 \t\t\t\n      SWAP1 \t\t\t\n      POP \t\t\t\n      JUMP \t\t\t\n    tag 803\t\t\t\n      JUMPDEST \t\t\t\n      PUSH 50726F6F66207265717565737420646F6573206E6F7420657869737400000000\t\t\t\n      PUSH 0\t\t\t\n      DUP3 \t\t\t\n      ADD \t\t\t\n      MSTORE \t\t\t\n      POP \t\t\t\n      JUMP \t\t\t\n    tag 804\t\t\t\n      JUMPDEST \t\t\t\n      PUSH 0\t\t\t\n      PUSH [tag] 1366\t\t\t\n      PUSH 1C\t\t\t\n      DUP4 \t\t\t\n      PUSH [tag] 707\t\t\t\n      JUMP \t\t\t\n    tag 1366\t\t\t\n      JUMPDEST \t\t\t\n      SWAP2 \t\t\t\n      POP \t\t\t\n      PUSH [tag] 1367\t\t\t\n      DUP3 \t\t\t\n      PUSH [tag] 803\t\t\t\n      JUMP \t\t\t\n    tag 1367\t\t\t\n      JUMPDEST \t\t\t\n      PUSH 20\t\t\t\n      DUP3 \t\t\t\n      ADD \t\t\t\n      SWAP1 \t\t\t\n      POP \t\t\t\n      SWAP2 \t\t\t\n      SWAP1 \t\t\t\n      POP \t\t\t\n      JUMP \t\t\t\n    tag 358\t\t\t\n      JUMPDEST \t\t\t\n      PUSH 0\t\t\t\n      PUSH 20\t\t\t\n      DUP3 \t\t\t\n      ADD \t\t\t\n      SWAP1 \t\t\t\n      POP \t\t\t\n      DUP2 \t\t\t\n      DUP2 \t\t\t\n      SUB \t\t\t\n      PUSH 0\t\t\t\n      DUP4 \t\t\t\n      ADD \t\t\t\n      MSTORE \t\t\t\n      PUSH [tag] 1369\t\t\t\n      DUP2 \t\t\t\n      PUSH [tag] 804\t\t\t\n      JUMP \t\t\t\n    tag 1369\t\t\t\n      JUMPDEST \t\t\t\n      SWAP1 \t\t\t\n      POP \t\t\t\n      SWAP2 \t\t\t\n      SWAP1 \t\t\t\n      POP \t\t\t\n      JUMP \t\t\t\n    tag 805\t\t\t\n      JUMPDEST \t\t\t\n      PUSH 496E76616C696420616464726573730000000000000000000000000000000000\t\t\t\n      PUSH 0\t\t\t\n      DUP3 \t\t\t\n      ADD \t\t\t\n      MSTORE \t\t\t\n      POP \t\t\t\n      JUMP \t\t\t\n    tag 806\t\t\t\n      JUMPDEST \t\t\t\n      PUSH 0\t\t\t\n      PUSH [tag] 1372\t\t\t\n      PUSH F\t\t\t\n      DUP4 \t\t\t\n      PUSH [tag] 707\t\t\t\n      JUMP \t\t\t\n    tag 1372\t\t\t\n      JUMPDEST \t\t\t\n      SWAP2 \t\t\t\n      POP \t\t\t\n      PUSH [tag] 1373\t\t\t\n      DUP3 \t\t\t\n      PUSH [tag] 805\t\t\t\n      JUMP \t\t\t\n    tag 1373\t\t\t\n      JUMPDEST \t\t\t\n      PUSH 20\t\t\t\n      DUP3 \t\t\t\n      ADD \t\t\t\n      SWAP1 \t\t\t\n      POP \t\t\t\n      SWAP2 \t\t\t\n      SWAP1 \t\t\t\n      POP \t\t\t\n      JUMP \t\t\t\n    tag 387\t\t\t\n      JUMPDEST \t\t\t\n      PUSH 0\t\t\t\n      PUSH 20\t\t\t\n      DUP3 \t\t\t\n      ADD \t\t\t\n      SWAP1 \t\t\t\n      POP \t\t\t\n      DUP2 \t\t\t\n      DUP2 \t\t\t\n      SUB \t\t\t\n      PUSH 0\t\t\t\n      DUP4 \t\t\t\n      ADD \t\t\t\n      MSTORE \t\t\t\n      PUSH [tag] 1375\t\t\t\n      DUP2 \t\t\t\n      PUSH [tag] 806\t\t\t\n      JUMP \t\t\t\n    tag 1375\t\t\t\n      JUMPDEST \t\t\t\n      SWAP1 \t\t\t\n      POP \t\t\t\n      SWAP2 \t\t\t\n      SWAP1 \t\t\t\n      POP \t\t\t\n      JUMP \t\t\t\n    tag 807\t\t\t\n      JUMPDEST \t\t\t\n      PUSH 4164647265737320697320616C726561647920616E2061646D696E0000000000\t\t\t\n      PUSH 0\t\t\t\n      DUP3 \t\t\t\n      ADD \t\t\t\n      MSTORE \t\t\t\n      POP \t\t\t\n      JUMP \t\t\t\n    tag 808\t\t\t\n      JUMPDEST \t\t\t\n      PUSH 0\t\t\t\n      PUSH [tag] 1378\t\t\t\n      PUSH 1B\t\t\t\n      DUP4 \t\t\t\n      PUSH [tag] 707\t\t\t\n      JUMP \t\t\t\n    tag 1378\t\t\t\n      JUMPDEST \t\t\t\n      SWAP2 \t\t\t\n      POP \t\t\t\n      PUSH [tag] 1379\t\t\t\n      DUP3 \t\t\t\n      PUSH [tag] 807\t\t\t\n      JUMP \t\t\t\n    tag 1379\t\t\t\n      JUMPDEST \t\t\t\n      PUSH 20\t\t\t\n      DUP3 \t\t\t\n      ADD \t\t\t\n      SWAP1 \t\t\t\n      POP \t\t\t\n      SWAP2 \t\t\t\n      SWAP1 \t\t\t\n      POP \t\t\t\n      JUMP \t\t\t\n    tag 391\t\t\t\n      JUMPDEST \t\t\t\n      PUSH 0\t\t\t\n      PUSH 20\t\t\t\n      DUP3 \t\t\t\n      ADD \t\t\t\n      SWAP1 \t\t\t\n      POP \t\t\t\n      DUP2 \t\t\t\n      DUP2 \t\t\t\n      SUB \t\t\t\n      PUSH 0\t\t\t\n      DUP4 \t\t\t\n      ADD \t\t\t\n      MSTORE \t\t\t\n      PUSH [tag] 1381\t\t\t\n      DUP2 \t\t\t\n      PUSH [tag] 808\t\t\t\n      JUMP \t\t\t\n    tag 1381\t\t\t\n      JUMPDEST \t\t\t\n      SWAP1 \t\t\t\n      POP \t\t\t\n      SWAP2 \t\t\t\n      SWAP1 \t\t\t\n      POP \t\t\t\n      JUMP \t\t\t\n    tag 809\t\t\t\n      JUMPDEST \t\t\t\n      PUSH 0\t\t\t\n      PUSH [tag] 1383\t\t\t\n      DUP3 \t\t\t\n      PUSH [tag] 711\t\t\t\n      JUMP \t\t\t\n    tag 1383\t\t\t\n      JUMPDEST \t\t\t\n      SWAP1 \t\t\t\n      POP \t\t\t\n      SWAP2 \t\t\t\n      SWAP1 \t\t\t\n      POP \t\t\t\n      JUMP \t\t\t\n    tag 810\t\t\t\n      JUMPDEST \t\t\t\n      PUSH [tag] 1385\t\t\t\n      DUP2 \t\t\t\n      PUSH [tag] 809\t\t\t\n      JUMP \t\t\t\n    tag 1385\t\t\t\n      JUMPDEST \t\t\t\n      DUP3 \t\t\t\n      MSTORE \t\t\t\n      POP \t\t\t\n      POP \t\t\t\n      JUMP \t\t\t\n    tag 811\t\t\t\n      JUMPDEST \t\t\t\n      PUSH 0\t\t\t\n      DUP2 \t\t\t\n      MLOAD \t\t\t\n      SWAP1 \t\t\t\n      POP \t\t\t\n      SWAP2 \t\t\t\n      SWAP1 \t\t\t\n      POP \t\t\t\n      JUMP \t\t\t\n    tag 812\t\t\t\n      JUMPDEST \t\t\t\n      PUSH 0\t\t\t\n      DUP3 \t\t\t\n      DUP3 \t\t\t\n      MSTORE \t\t\t\n      PUSH 20\t\t\t\n      DUP3 \t\t\t\n      ADD \t\t\t\n      SWAP1 \t\t\t\n      POP \t\t\t\n      SWAP3 \t\t\t\n      SWAP2 \t\t\t\n      POP \t\t\t\n      POP \t\t\t\n      JUMP \t\t\t\n    tag 813\t\t\t\n      JUMPDEST \t\t\t\n      PUSH 0\t\t\t\n      PUSH [tag] 1389\t\t\t\n      DUP3 \t\t\t\n      PUSH [tag] 811\t\t\t\n      JUMP \t\t\t\n    tag 1389\t\t\t\n      JUMPDEST \t\t\t\n      PUSH [tag] 1390\t\t\t\n      DUP2 \t\t\t\n      DUP6 \t\t\t\n      PUSH [tag] 812\t\t\t\n      JUMP \t\t\t\n    tag 1390\t\t\t\n      JUMPDEST \t\t\t\n      SWAP4 \t\t\t\n      POP \t\t\t\n      PUSH [tag] 1391\t\t\t\n      DUP2 \t\t\t\n      DUP6 \t\t\t\n      PUSH 20\t\t\t\n      DUP7 \t\t\t\n      ADD \t\t\t\n      PUSH [tag] 695\t\t\t\n      JUMP \t\t\t\n    tag 1391\t\t\t\n      JUMPDEST \t\t\t\n      PUSH [tag] 1392\t\t\t\n      DUP2 \t\t\t\n      PUSH [tag] 696\t\t\t\n      JUMP \t\t\t\n    tag 1392\t\t\t\n      JUMPDEST \t\t\t\n      DUP5 \t\t\t\n      ADD \t\t\t\n      SWAP2 \t\t\t\n      POP \t\t\t\n      POP \t\t\t\n      SWAP3 \t\t\t\n      SWAP2 \t\t\t\n      POP \t\t\t\n      POP \t\t\t\n      JUMP \t\t\t\n    tag 814\t\t\t\n      JUMPDEST \t\t\t\n      PUSH 0\t\t\t\n      PUSH 60\t\t\t\n      DUP4 \t\t\t\n      ADD \t\t\t\n      PUSH 0\t\t\t\n      DUP4 \t\t\t\n      ADD \t\t\t\n      MLOAD \t\t\t\n      DUP5 \t\t\t\n      DUP3 \t\t\t\n      SUB \t\t\t\n      PUSH 0\t\t\t\n      DUP7 \t\t\t\n      ADD \t\t\t\n      MSTORE \t\t\t\n      PUSH [tag] 1394\t\t\t\n      DUP3 \t\t\t\n      DUP3 \t\t\t\n      PUSH [tag] 697\t\t\t\n      JUMP \t\t\t\n    tag 1394\t\t\t\n      JUMPDEST \t\t\t\n      SWAP2 \t\t\t\n      POP \t\t\t\n      POP \t\t\t\n      PUSH 20\t\t\t\n      DUP4 \t\t\t\n      ADD \t\t\t\n      MLOAD \t\t\t\n      PUSH [tag] 1395\t\t\t\n      PUSH 20\t\t\t\n      DUP7 \t\t\t\n      ADD \t\t\t\n      DUP3 \t\t\t\n      PUSH [tag] 810\t\t\t\n      JUMP \t\t\t\n    tag 1395\t\t\t\n      JUMPDEST \t\t\t\n      POP \t\t\t\n      PUSH 40\t\t\t\n      DUP4 \t\t\t\n      ADD \t\t\t\n      MLOAD \t\t\t\n      DUP5 \t\t\t\n      DUP3 \t\t\t\n      SUB \t\t\t\n      PUSH 40\t\t\t\n      DUP7 \t\t\t\n      ADD \t\t\t\n      MSTORE \t\t\t\n      PUSH [tag] 1396\t\t\t\n      DUP3 \t\t\t\n      DUP3 \t\t\t\n      PUSH [tag] 813\t\t\t\n      JUMP \t\t\t\n    tag 1396\t\t\t\n      JUMPDEST \t\t\t\n      SWAP2 \t\t\t\n      POP \t\t\t\n      POP \t\t\t\n      DUP1 \t\t\t\n      SWAP2 \t\t\t\n      POP \t\t\t\n      POP \t\t\t\n      SWAP3 \t\t\t\n      SWAP2 \t\t\t\n      POP \t\t\t\n      POP \t\t\t\n      JUMP \t\t\t\n    tag 400\t\t\t\n      JUMPDEST \t\t\t\n      PUSH 0\t\t\t\n      PUSH 40\t\t\t\n      DUP3 \t\t\t\n      ADD \t\t\t\n      SWAP1 \t\t\t\n      POP \t\t\t\n      PUSH [tag] 1398\t\t\t\n      PUSH 0\t\t\t\n      DUP4 \t\t\t\n      ADD \t\t\t\n      DUP6 \t\t\t\n      PUSH [tag] 756\t\t\t\n      JUMP \t\t\t\n    tag 1398\t\t\t\n      JUMPDEST \t\t\t\n      DUP2 \t\t\t\n      DUP2 \t\t\t\n      SUB \t\t\t\n      PUSH 20\t\t\t\n      DUP4 \t\t\t\n      ADD \t\t\t\n      MSTORE \t\t\t\n      PUSH [tag] 1399\t\t\t\n      DUP2 \t\t\t\n      DUP5 \t\t\t\n      PUSH [tag] 814\t\t\t\n      JUMP \t\t\t\n    tag 1399\t\t\t\n      JUMPDEST \t\t\t\n      SWAP1 \t\t\t\n      POP \t\t\t\n      SWAP4 \t\t\t\n      SWAP3 \t\t\t\n      POP \t\t\t\n      POP \t\t\t\n      POP \t\t\t\n      JUMP \t\t\t\n    tag 815\t\t\t\n      JUMPDEST \t\t\t\n      PUSH 0\t\t\t\n      DUP1 \t\t\t\n      REVERT \t\t\t\n    tag 816\t\t\t\n      JUMPDEST \t\t\t\n      PUSH 0\t\t\t\n      DUP1 \t\t\t\n      REVERT \t\t\t\n    tag 817\t\t\t\n      JUMPDEST \t\t\t\n      PUSH 0\t\t\t\n      DUP1 \t\t\t\n      REVERT \t\t\t\n    tag 406\t\t\t\n      JUMPDEST \t\t\t\n      PUSH 0\t\t\t\n      DUP1 \t\t\t\n      DUP4 \t\t\t\n      CALLDATALOAD \t\t\t\n      PUSH 1\t\t\t\n      PUSH 20\t\t\t\n      SUB \t\t\t\n      DUP5 \t\t\t\n      CALLDATASIZE \t\t\t\n      SUB \t\t\t\n      SUB \t\t\t\n      DUP2 \t\t\t\n      SLT \t\t\t\n      PUSH [tag] 1404\t\t\t\n      JUMPI \t\t\t\n      PUSH [tag] 1405\t\t\t\n      PUSH [tag] 815\t\t\t\n      JUMP \t\t\t\n    tag 1405\t\t\t\n      JUMPDEST \t\t\t\n    tag 1404\t\t\t\n      JUMPDEST \t\t\t\n      DUP1 \t\t\t\n      DUP5 \t\t\t\n      ADD \t\t\t\n      SWAP3 \t\t\t\n      POP \t\t\t\n      DUP3 \t\t\t\n      CALLDATALOAD \t\t\t\n      SWAP2 \t\t\t\n      POP \t\t\t\n      PUSH FFFFFFFFFFFFFFFF\t\t\t\n      DUP3 \t\t\t\n      GT \t\t\t\n      ISZERO \t\t\t\n      PUSH [tag] 1406\t\t\t\n      JUMPI \t\t\t\n      PUSH [tag] 1407\t\t\t\n      PUSH [tag] 816\t\t\t\n      JUMP \t\t\t\n    tag 1407\t\t\t\n      JUMPDEST \t\t\t\n    tag 1406\t\t\t\n      JUMPDEST \t\t\t\n      PUSH 20\t\t\t\n      DUP4 \t\t\t\n      ADD \t\t\t\n      SWAP3 \t\t\t\n      POP \t\t\t\n      PUSH 1\t\t\t\n      DUP3 \t\t\t\n      MUL \t\t\t\n      CALLDATASIZE \t\t\t\n      SUB \t\t\t\n      DUP4 \t\t\t\n      SGT \t\t\t\n      ISZERO \t\t\t\n      PUSH [tag] 1408\t\t\t\n      JUMPI \t\t\t\n      PUSH [tag] 1409\t\t\t\n      PUSH [tag] 817\t\t\t\n      JUMP \t\t\t\n    tag 1409\t\t\t\n      JUMPDEST \t\t\t\n    tag 1408\t\t\t\n      JUMPDEST \t\t\t\n      POP \t\t\t\n      SWAP3 \t\t\t\n      POP \t\t\t\n      SWAP3 \t\t\t\n      SWAP1 \t\t\t\n      POP \t\t\t\n      JUMP \t\t\t\n    tag 410\t\t\t\n      JUMPDEST \t\t\t\n      PUSH [tag] 1411\t\t\t\n      DUP3 \t\t\t\n      PUSH [tag] 693\t\t\t\n      JUMP \t\t\t\n    tag 1411\t\t\t\n      JUMPDEST \t\t\t\n      PUSH FFFFFFFFFFFFFFFF\t\t\t\n      DUP2 \t\t\t\n      GT \t\t\t\n      ISZERO \t\t\t\n      PUSH [tag] 1412\t\t\t\n      JUMPI \t\t\t\n      PUSH [tag] 1413\t\t\t\n      PUSH [tag] 173\t\t\t\n      JUMP \t\t\t\n    tag 1413\t\t\t\n      JUMPDEST \t\t\t\n    tag 1412\t\t\t\n      JUMPDEST \t\t\t\n      PUSH [tag] 1414\t\t\t\n      DUP3 \t\t\t\n      SLOAD \t\t\t\n      PUSH [tag] 166\t\t\t\n      JUMP \t\t\t\n    tag 1414\t\t\t\n      JUMPDEST \t\t\t\n      PUSH [tag] 1415\t\t\t\n      DUP3 \t\t\t\n      DUP3 \t\t\t\n      DUP6 \t\t\t\n      PUSH [tag] 791\t\t\t\n      JUMP \t\t\t\n    tag 1415\t\t\t\n      JUMPDEST \t\t\t\n      PUSH 0\t\t\t\n      PUSH 20\t\t\t\n      SWAP1 \t\t\t\n      POP \t\t\t\n      PUSH 1F\t\t\t\n      DUP4 \t\t\t\n      GT \t\t\t\n      PUSH 1\t\t\t\n      DUP2 \t\t\t\n      EQ \t\t\t\n      PUSH [tag] 1417\t\t\t\n      JUMPI \t\t\t\n      PUSH 0\t\t\t\n      DUP5 \t\t\t\n      ISZERO \t\t\t\n      PUSH [tag] 1418\t\t\t\n      JUMPI \t\t\t\n      DUP3 \t\t\t\n      DUP8 \t\t\t\n      ADD \t\t\t\n      MLOAD \t\t\t\n      SWAP1 \t\t\t\n      POP \t\t\t\n    tag 1418\t\t\t\n      JUMPDEST \t\t\t\n      PUSH [tag] 1419\t\t\t\n      DUP6 \t\t\t\n      DUP3 \t\t\t\n      PUSH [tag] 794\t\t\t\n      JUMP \t\t\t\n    tag 1419\t\t\t\n      JUMPDEST \t\t\t\n      DUP7 \t\t\t\n      SSTORE \t\t\t\n      POP \t\t\t\n      PUSH [tag] 1416\t\t\t\n      JUMP \t\t\t\n    tag 1417\t\t\t\n      JUMPDEST \t\t\t\n      PUSH 1F\t\t\t\n      NOT \t\t\t\n      DUP5 \t\t\t\n      AND \t\t\t\n      PUSH [tag] 1420\t\t\t\n      DUP7 \t\t\t\n      PUSH [tag] 781\t\t\t\n      JUMP \t\t\t\n    tag 1420\t\t\t\n      JUMPDEST \t\t\t\n      PUSH 0\t\t\t\n    tag 1421\t\t\t\n      JUMPDEST \t\t\t\n      DUP3 \t\t\t\n      DUP2 \t\t\t\n      LT \t\t\t\n      ISZERO \t\t\t\n      PUSH [tag] 1423\t\t\t\n      JUMPI \t\t\t\n      DUP5 \t\t\t\n      DUP10 \t\t\t\n      ADD \t\t\t\n      MLOAD \t\t\t\n      DUP3 \t\t\t\n      SSTORE \t\t\t\n      PUSH 1\t\t\t\n      DUP3 \t\t\t\n      ADD \t\t\t\n      SWAP2 \t\t\t\n      POP \t\t\t\n      PUSH 20\t\t\t\n      DUP6 \t\t\t\n      ADD \t\t\t\n      SWAP5 \t\t\t\n      POP \t\t\t\n      PUSH 20\t\t\t\n      DUP2 \t\t\t\n      ADD \t\t\t\n      SWAP1 \t\t\t\n      POP \t\t\t\n      PUSH [tag] 1421\t\t\t\n      JUMP \t\t\t\n    tag 1423\t\t\t\n      JUMPDEST \t\t\t\n      DUP7 \t\t\t\n      DUP4 \t\t\t\n      LT \t\t\t\n      ISZERO \t\t\t\n      PUSH [tag] 1424\t\t\t\n      JUMPI \t\t\t\n      DUP5 \t\t\t\n      DUP10 \t\t\t\n      ADD \t\t\t\n      MLOAD \t\t\t\n      PUSH [tag] 1425\t\t\t\n      PUSH 1F\t\t\t\n      DUP10 \t\t\t\n      AND \t\t\t\n      DUP3 \t\t\t\n      PUSH [tag] 793\t\t\t\n      JUMP \t\t\t\n    tag 1425\t\t\t\n      JUMPDEST \t\t\t\n      DUP4 \t\t\t\n      SSTORE \t\t\t\n      POP \t\t\t\n    tag 1424\t\t\t\n      JUMPDEST \t\t\t\n      PUSH 1\t\t\t\n      PUSH 2\t\t\t\n      DUP9 \t\t\t\n      MUL \t\t\t\n      ADD \t\t\t\n      DUP9 \t\t\t\n      SSTORE \t\t\t\n      POP \t\t\t\n      POP \t\t\t\n      POP \t\t\t\n    tag 1416\t\t\t\n      JUMPDEST \t\t\t\n      POP \t\t\t\n      POP \t\t\t\n      POP \t\t\t\n      POP \t\t\t\n      POP \t\t\t\n      POP \t\t\t\n      JUMP \t\t\t\n    tag 818\t\t\t\n      JUMPDEST \t\t\t\n      PUSH 50726F6F66207265717565737420616C72656164792065786973747300000000\t\t\t\n      PUSH 0\t\t\t\n      DUP3 \t\t\t\n      ADD \t\t\t\n      MSTORE \t\t\t\n      POP \t\t\t\n      JUMP \t\t\t\n    tag 819\t\t\t\n      JUMPDEST \t\t\t\n      PUSH 0\t\t\t\n      PUSH [tag] 1428\t\t\t\n      PUSH 1C\t\t\t\n      DUP4 \t\t\t\n      PUSH [tag] 707\t\t\t\n      JUMP \t\t\t\n    tag 1428\t\t\t\n      JUMPDEST \t\t\t\n      SWAP2 \t\t\t\n      POP \t\t\t\n      PUSH [tag] 1429\t\t\t\n      DUP3 \t\t\t\n      PUSH [tag] 818\t\t\t\n      JUMP \t\t\t\n    tag 1429\t\t\t\n      JUMPDEST \t\t\t\n      PUSH 20\t\t\t\n      DUP3 \t\t\t\n      ADD \t\t\t\n      SWAP1 \t\t\t\n      POP \t\t\t\n      SWAP2 \t\t\t\n      SWAP1 \t\t\t\n      POP \t\t\t\n      JUMP \t\t\t\n    tag 447\t\t\t\n      JUMPDEST \t\t\t\n      PUSH 0\t\t\t\n      PUSH 20\t\t\t\n      DUP3 \t\t\t\n      ADD \t\t\t\n      SWAP1 \t\t\t\n      POP \t\t\t\n      DUP2 \t\t\t\n      DUP2 \t\t\t\n      SUB \t\t\t\n      PUSH 0\t\t\t\n      DUP4 \t\t\t\n      ADD \t\t\t\n      MSTORE \t\t\t\n      PUSH [tag] 1431\t\t\t\n      DUP2 \t\t\t\n      PUSH [tag] 819\t\t\t\n      JUMP \t\t\t\n    tag 1431\t\t\t\n      JUMPDEST \t\t\t\n      SWAP1 \t\t\t\n      POP \t\t\t\n      SWAP2 \t\t\t\n      SWAP1 \t\t\t\n      POP \t\t\t\n      JUMP \t\t\t\n    tag 820\t\t\t\n      JUMPDEST \t\t\t\n      PUSH 526F6C65206D757374206265202773656E64657227206F722027726563656976\t\t\t\n      PUSH 0\t\t\t\n      DUP3 \t\t\t\n      ADD \t\t\t\n      MSTORE \t\t\t\n      PUSH 6572270000000000000000000000000000000000000000000000000000000000\t\t\t\n      PUSH 20\t\t\t\n      DUP3 \t\t\t\n      ADD \t\t\t\n      MSTORE \t\t\t\n      POP \t\t\t\n      JUMP \t\t\t\n    tag 821\t\t\t\n      JUMPDEST \t\t\t\n      PUSH 0\t\t\t\n      PUSH [tag] 1434\t\t\t\n      PUSH 23\t\t\t\n      DUP4 \t\t\t\n      PUSH [tag] 707\t\t\t\n      JUMP \t\t\t\n    tag 1434\t\t\t\n      JUMPDEST \t\t\t\n      SWAP2 \t\t\t\n      POP \t\t\t\n      PUSH [tag] 1435\t\t\t\n      DUP3 \t\t\t\n      PUSH [tag] 820\t\t\t\n      JUMP \t\t\t\n    tag 1435\t\t\t\n      JUMPDEST \t\t\t\n      PUSH 40\t\t\t\n      DUP3 \t\t\t\n      ADD \t\t\t\n      SWAP1 \t\t\t\n      POP \t\t\t\n      SWAP2 \t\t\t\n      SWAP1 \t\t\t\n      POP \t\t\t\n      JUMP \t\t\t\n    tag 453\t\t\t\n      JUMPDEST \t\t\t\n      PUSH 0\t\t\t\n      PUSH 20\t\t\t\n      DUP3 \t\t\t\n      ADD \t\t\t\n      SWAP1 \t\t\t\n      POP \t\t\t\n      DUP2 \t\t\t\n      DUP2 \t\t\t\n      SUB \t\t\t\n      PUSH 0\t\t\t\n      DUP4 \t\t\t\n      ADD \t\t\t\n      MSTORE \t\t\t\n      PUSH [tag] 1437\t\t\t\n      DUP2 \t\t\t\n      PUSH [tag] 821\t\t\t\n      JUMP \t\t\t\n    tag 1437\t\t\t\n      JUMPDEST \t\t\t\n      SWAP1 \t\t\t\n      POP \t\t\t\n      SWAP2 \t\t\t\n      SWAP1 \t\t\t\n      POP \t\t\t\n      JUMP \t\t\t\n    tag 520\t\t\t\n      JUMPDEST \t\t\t\n      PUSH 0\t\t\t\n      PUSH 40\t\t\t\n      DUP3 \t\t\t\n      ADD \t\t\t\n      SWAP1 \t\t\t\n      POP \t\t\t\n      PUSH [tag] 1439\t\t\t\n      PUSH 0\t\t\t\n      DUP4 \t\t\t\n      ADD \t\t\t\n      DUP6 \t\t\t\n      PUSH [tag] 753\t\t\t\n      JUMP \t\t\t\n    tag 1439\t\t\t\n      JUMPDEST \t\t\t\n      PUSH [tag] 1440\t\t\t\n      PUSH 20\t\t\t\n      DUP4 \t\t\t\n      ADD \t\t\t\n      DUP5 \t\t\t\n      PUSH [tag] 756\t\t\t\n      JUMP \t\t\t\n    tag 1440\t\t\t\n      JUMPDEST \t\t\t\n      SWAP4 \t\t\t\n      SWAP3 \t\t\t\n      POP \t\t\t\n      POP \t\t\t\n      POP \t\t\t\n      JUMP \t\t\t\n    tag 822\t\t\t\n      JUMPDEST \t\t\t\n      PUSH 0\t\t\t\n      DUP1 \t\t\t\n      REVERT \t\t\t\n    tag 823\t\t\t\n      JUMPDEST \t\t\t\n      PUSH 0\t\t\t\n      DUP1 \t\t\t\n      REVERT \t\t\t\n    tag 824\t\t\t\n      JUMPDEST \t\t\t\n      PUSH 0\t\t\t\n      DUP2 \t\t\t\n      MLOAD \t\t\t\n      SWAP1 \t\t\t\n      POP \t\t\t\n      PUSH [tag] 1444\t\t\t\n      DUP2 \t\t\t\n      PUSH [tag] 754\t\t\t\n      JUMP \t\t\t\n    tag 1444\t\t\t\n      JUMPDEST \t\t\t\n      SWAP3 \t\t\t\n      SWAP2 \t\t\t\n      POP \t\t\t\n      POP \t\t\t\n      JUMP \t\t\t\n    tag 825\t\t\t\n      JUMPDEST \t\t\t\n      PUSH 0\t\t\t\n      PUSH FFFFFFFFFFFFFFFF\t\t\t\n      DUP3 \t\t\t\n      GT \t\t\t\n      ISZERO \t\t\t\n      PUSH [tag] 1446\t\t\t\n      JUMPI \t\t\t\n      PUSH [tag] 1447\t\t\t\n      PUSH [tag] 173\t\t\t\n      JUMP \t\t\t\n    tag 1447\t\t\t\n      JUMPDEST \t\t\t\n    tag 1446\t\t\t\n      JUMPDEST \t\t\t\n      PUSH [tag] 1448\t\t\t\n      DUP3 \t\t\t\n      PUSH [tag] 696\t\t\t\n      JUMP \t\t\t\n    tag 1448\t\t\t\n      JUMPDEST \t\t\t\n      SWAP1 \t\t\t\n      POP \t\t\t\n      PUSH 20\t\t\t\n      DUP2 \t\t\t\n      ADD \t\t\t\n      SWAP1 \t\t\t\n      POP \t\t\t\n      SWAP2 \t\t\t\n      SWAP1 \t\t\t\n      POP \t\t\t\n      JUMP \t\t\t\n    tag 826\t\t\t\n      JUMPDEST \t\t\t\n      PUSH 0\t\t\t\n      PUSH [tag] 1450\t\t\t\n      PUSH [tag] 1451\t\t\t\n      DUP5 \t\t\t\n      PUSH [tag] 825\t\t\t\n      JUMP \t\t\t\n    tag 1451\t\t\t\n      JUMPDEST \t\t\t\n      PUSH [tag] 720\t\t\t\n      JUMP \t\t\t\n    tag 1450\t\t\t\n      JUMPDEST \t\t\t\n      SWAP1 \t\t\t\n      POP \t\t\t\n      DUP3 \t\t\t\n      DUP2 \t\t\t\n      MSTORE \t\t\t\n      PUSH 20\t\t\t\n      DUP2 \t\t\t\n      ADD \t\t\t\n      DUP5 \t\t\t\n      DUP5 \t\t\t\n      DUP5 \t\t\t\n      ADD \t\t\t\n      GT \t\t\t\n      ISZERO \t\t\t\n      PUSH [tag] 1452\t\t\t\n      JUMPI \t\t\t\n      PUSH [tag] 1453\t\t\t\n      PUSH [tag] 724\t\t\t\n      JUMP \t\t\t\n    tag 1453\t\t\t\n      JUMPDEST \t\t\t\n    tag 1452\t\t\t\n      JUMPDEST \t\t\t\n      PUSH [tag] 1454\t\t\t\n      DUP5 \t\t\t\n      DUP3 \t\t\t\n      DUP6 \t\t\t\n      PUSH [tag] 695\t\t\t\n      JUMP \t\t\t\n    tag 1454\t\t\t\n      JUMPDEST \t\t\t\n      POP \t\t\t\n      SWAP4 \t\t\t\n      SWAP3 \t\t\t\n      POP \t\t\t\n      POP \t\t\t\n      POP \t\t\t\n      JUMP \t\t\t\n    tag 827\t\t\t\n      JUMPDEST \t\t\t\n      PUSH 0\t\t\t\n      DUP3 \t\t\t\n      PUSH 1F\t\t\t\n      DUP4 \t\t\t\n      ADD \t\t\t\n      SLT \t\t\t\n      PUSH [tag] 1456\t\t\t\n      JUMPI \t\t\t\n      PUSH [tag] 1457\t\t\t\n      PUSH [tag] 714\t\t\t\n      JUMP \t\t\t\n    tag 1457\t\t\t\n      JUMPDEST \t\t\t\n    tag 1456\t\t\t\n      JUMPDEST \t\t\t\n      DUP2 \t\t\t\n      MLOAD \t\t\t\n      PUSH [tag] 1458\t\t\t\n      DUP5 \t\t\t\n      DUP3 \t\t\t\n      PUSH 20\t\t\t\n      DUP7 \t\t\t\n      ADD \t\t\t\n      PUSH [tag] 826\t\t\t\n      JUMP \t\t\t\n    tag 1458\t\t\t\n      JUMPDEST \t\t\t\n      SWAP2 \t\t\t\n      POP \t\t\t\n      POP \t\t\t\n      SWAP3 \t\t\t\n      SWAP2 \t\t\t\n      POP \t\t\t\n      POP \t\t\t\n      JUMP \t\t\t\n    tag 828\t\t\t\n      JUMPDEST \t\t\t\n      PUSH 0\t\t\t\n      DUP2 \t\t\t\n      MLOAD \t\t\t\n      SWAP1 \t\t\t\n      POP \t\t\t\n      PUSH [tag] 1460\t\t\t\n      DUP2 \t\t\t\n      PUSH [tag] 679\t\t\t\n      JUMP \t\t\t\n    tag 1460\t\t\t\n      JUMPDEST \t\t\t\n      SWAP3 \t\t\t\n      SWAP2 \t\t\t\n      POP \t\t\t\n      POP \t\t\t\n      JUMP \t\t\t\n    tag 829\t\t\t\n      JUMPDEST \t\t\t\n      PUSH 0\t\t\t\n      PUSH 80\t\t\t\n      DUP3 \t\t\t\n      DUP5 \t\t\t\n      SUB \t\t\t\n      SLT \t\t\t\n      ISZERO \t\t\t\n      PUSH [tag] 1462\t\t\t\n      JUMPI \t\t\t\n      PUSH [tag] 1463\t\t\t\n      PUSH [tag] 822\t\t\t\n      JUMP \t\t\t\n    tag 1463\t\t\t\n      JUMPDEST \t\t\t\n    tag 1462\t\t\t\n      JUMPDEST \t\t\t\n      PUSH [tag] 1464\t\t\t\n      PUSH 80\t\t\t\n      PUSH [tag] 720\t\t\t\n      JUMP \t\t\t\n    tag 1464\t\t\t\n      JUMPDEST \t\t\t\n      SWAP1 \t\t\t\n      POP \t\t\t\n      PUSH 0\t\t\t\n      PUSH [tag] 1465\t\t\t\n      DUP5 \t\t\t\n      DUP3 \t\t\t\n      DUP6 \t\t\t\n      ADD \t\t\t\n      PUSH [tag] 824\t\t\t\n      JUMP \t\t\t\n    tag 1465\t\t\t\n      JUMPDEST \t\t\t\n      PUSH 0\t\t\t\n      DUP4 \t\t\t\n      ADD \t\t\t\n      MSTORE \t\t\t\n      POP \t\t\t\n      PUSH 20\t\t\t\n      DUP3 \t\t\t\n      ADD \t\t\t\n      MLOAD \t\t\t\n      PUSH FFFFFFFFFFFFFFFF\t\t\t\n      DUP2 \t\t\t\n      GT \t\t\t\n      ISZERO \t\t\t\n      PUSH [tag] 1466\t\t\t\n      JUMPI \t\t\t\n      PUSH [tag] 1467\t\t\t\n      PUSH [tag] 823\t\t\t\n      JUMP \t\t\t\n    tag 1467\t\t\t\n      JUMPDEST \t\t\t\n    tag 1466\t\t\t\n      JUMPDEST \t\t\t\n      PUSH [tag] 1468\t\t\t\n      DUP5 \t\t\t\n      DUP3 \t\t\t\n      DUP6 \t\t\t\n      ADD \t\t\t\n      PUSH [tag] 827\t\t\t\n      JUMP \t\t\t\n    tag 1468\t\t\t\n      JUMPDEST \t\t\t\n      PUSH 20\t\t\t\n      DUP4 \t\t\t\n      ADD \t\t\t\n      MSTORE \t\t\t\n      POP \t\t\t\n      PUSH 40\t\t\t\n      PUSH [tag] 1469\t\t\t\n      DUP5 \t\t\t\n      DUP3 \t\t\t\n      DUP6 \t\t\t\n      ADD \t\t\t\n      PUSH [tag] 828\t\t\t\n      JUMP \t\t\t\n    tag 1469\t\t\t\n      JUMPDEST \t\t\t\n      PUSH 40\t\t\t\n      DUP4 \t\t\t\n      ADD \t\t\t\n      MSTORE \t\t\t\n      POP \t\t\t\n      PUSH 60\t\t\t\n      PUSH [tag] 1470\t\t\t\n      DUP5 \t\t\t\n      DUP3 \t\t\t\n      DUP6 \t\t\t\n      ADD \t\t\t\n      PUSH [tag] 828\t\t\t\n      JUMP \t\t\t\n    tag 1470\t\t\t\n      JUMPDEST \t\t\t\n      PUSH 60\t\t\t\n      DUP4 \t\t\t\n      ADD \t\t\t\n      MSTORE \t\t\t\n      POP \t\t\t\n      SWAP3 \t\t\t\n      SWAP2 \t\t\t\n      POP \t\t\t\n      POP \t\t\t\n      JUMP \t\t\t\n    tag 524\t\t\t\n      JUMPDEST \t\t\t\n      PUSH 0\t\t\t\n      PUSH 20\t\t\t\n      DUP3 \t\t\t\n      DUP5 \t\t\t\n      SUB \t\t\t\n      SLT \t\t\t\n      ISZERO \t\t\t\n      PUSH [tag] 1472\t\t\t\n      JUMPI \t\t\t\n      PUSH [tag] 1473\t\t\t\n      PUSH [tag] 672\t\t\t\n      JUMP \t\t\t\n    tag 1473\t\t\t\n      JUMPDEST \t\t\t\n    tag 1472\t\t\t\n      JUMPDEST \t\t\t\n      PUSH 0\t\t\t\n      DUP3 \t\t\t\n      ADD \t\t\t\n      MLOAD \t\t\t\n      PUSH FFFFFFFFFFFFFFFF\t\t\t\n      DUP2 \t\t\t\n      GT \t\t\t\n      ISZERO \t\t\t\n      PUSH [tag] 1474\t\t\t\n      JUMPI \t\t\t\n      PUSH [tag] 1475\t\t\t\n      PUSH [tag] 673\t\t\t\n      JUMP \t\t\t\n    tag 1475\t\t\t\n      JUMPDEST \t\t\t\n    tag 1474\t\t\t\n      JUMPDEST \t\t\t\n      PUSH [tag] 1476\t\t\t\n      DUP5 \t\t\t\n      DUP3 \t\t\t\n      DUP6 \t\t\t\n      ADD \t\t\t\n      PUSH [tag] 829\t\t\t\n      JUMP \t\t\t\n    tag 1476\t\t\t\n      JUMPDEST \t\t\t\n      SWAP2 \t\t\t\n      POP \t\t\t\n      POP \t\t\t\n      SWAP3 \t\t\t\n      SWAP2 \t\t\t\n      POP \t\t\t\n      POP \t\t\t\n      JUMP \t\t\t\n    tag 529\t\t\t\n      JUMPDEST \t\t\t\n      PUSH 0\t\t\t\n      PUSH 40\t\t\t\n      DUP3 \t\t\t\n      ADD \t\t\t\n      SWAP1 \t\t\t\n      POP \t\t\t\n      PUSH [tag] 1478\t\t\t\n      PUSH 0\t\t\t\n      DUP4 \t\t\t\n      ADD \t\t\t\n      DUP6 \t\t\t\n      PUSH [tag] 756\t\t\t\n      JUMP \t\t\t\n    tag 1478\t\t\t\n      JUMPDEST \t\t\t\n      PUSH [tag] 1479\t\t\t\n      PUSH 20\t\t\t\n      DUP4 \t\t\t\n      ADD \t\t\t\n      DUP5 \t\t\t\n      PUSH [tag] 753\t\t\t\n      JUMP \t\t\t\n    tag 1479\t\t\t\n      JUMPDEST \t\t\t\n      SWAP4 \t\t\t\n      SWAP3 \t\t\t\n      POP \t\t\t\n      POP \t\t\t\n      POP \t\t\t\n      JUMP \t\t\t\n    tag 566\t\t\t\n      JUMPDEST \t\t\t\n      PUSH 0\t\t\t\n      PUSH 40\t\t\t\n      DUP3 \t\t\t\n      ADD \t\t\t\n      SWAP1 \t\t\t\n      POP \t\t\t\n      PUSH [tag] 1481\t\t\t\n      PUSH 0\t\t\t\n      DUP4 \t\t\t\n      ADD \t\t\t\n      DUP6 \t\t\t\n      PUSH [tag] 753\t\t\t\n      JUMP \t\t\t\n    tag 1481\t\t\t\n      JUMPDEST \t\t\t\n      PUSH [tag] 1482\t\t\t\n      PUSH 20\t\t\t\n      DUP4 \t\t\t\n      ADD \t\t\t\n      DUP5 \t\t\t\n      PUSH [tag] 753\t\t\t\n      JUMP \t\t\t\n    tag 1482\t\t\t\n      JUMPDEST \t\t\t\n      SWAP4 \t\t\t\n      SWAP3 \t\t\t\n      POP \t\t\t\n      POP \t\t\t\n      POP \t\t\t\n      JUMP \t\t\t\n    tag 616\t\t\t\n      JUMPDEST \t\t\t\n      PUSH 0\t\t\t\n      PUSH 80\t\t\t\n      DUP3 \t\t\t\n      ADD \t\t\t\n      SWAP1 \t\t\t\n      POP \t\t\t\n      PUSH [tag] 1484\t\t\t\n      PUSH 0\t\t\t\n      DUP4 \t\t\t\n      ADD \t\t\t\n      DUP8 \t\t\t\n      PUSH [tag] 753\t\t\t\n      JUMP \t\t\t\n    tag 1484\t\t\t\n      JUMPDEST \t\t\t\n      PUSH [tag] 1485\t\t\t\n      PUSH 20\t\t\t\n      DUP4 \t\t\t\n      ADD \t\t\t\n      DUP7 \t\t\t\n      PUSH [tag] 681\t\t\t\n      JUMP \t\t\t\n    tag 1485\t\t\t\n      JUMPDEST \t\t\t\n      PUSH [tag] 1486\t\t\t\n      PUSH 40\t\t\t\n      DUP4 \t\t\t\n      ADD \t\t\t\n      DUP6 \t\t\t\n      PUSH [tag] 681\t\t\t\n      JUMP \t\t\t\n    tag 1486\t\t\t\n      JUMPDEST \t\t\t\n      PUSH [tag] 1487\t\t\t\n      PUSH 60\t\t\t\n      DUP4 \t\t\t\n      ADD \t\t\t\n      DUP5 \t\t\t\n      PUSH [tag] 681\t\t\t\n      JUMP \t\t\t\n    tag 1487\t\t\t\n      JUMPDEST \t\t\t\n      SWAP6 \t\t\t\n      SWAP5 \t\t\t\n      POP \t\t\t\n      POP \t\t\t\n      POP \t\t\t\n      POP \t\t\t\n      POP \t\t\t\n      JUMP \t\t\t\n    tag 626\t\t\t\n      JUMPDEST \t\t\t\n      PUSH 0\t\t\t\n      PUSH 40\t\t\t\n      DUP3 \t\t\t\n      ADD \t\t\t\n      SWAP1 \t\t\t\n      POP \t\t\t\n      DUP2 \t\t\t\n      DUP2 \t\t\t\n      SUB \t\t\t\n      PUSH 0\t\t\t\n      DUP4 \t\t\t\n      ADD \t\t\t\n      MSTORE \t\t\t\n      PUSH [tag] 1489\t\t\t\n      DUP2 \t\t\t\n      DUP6 \t\t\t\n      PUSH [tag] 747\t\t\t\n      JUMP \t\t\t\n    tag 1489\t\t\t\n      JUMPDEST \t\t\t\n      SWAP1 \t\t\t\n      POP \t\t\t\n      DUP2 \t\t\t\n      DUP2 \t\t\t\n      SUB \t\t\t\n      PUSH 20\t\t\t\n      DUP4 \t\t\t\n      ADD \t\t\t\n      MSTORE \t\t\t\n      PUSH [tag] 1490\t\t\t\n      DUP2 \t\t\t\n      DUP5 \t\t\t\n      PUSH [tag] 747\t\t\t\n      JUMP \t\t\t\n    tag 1490\t\t\t\n      JUMPDEST \t\t\t\n      SWAP1 \t\t\t\n      POP \t\t\t\n      SWAP4 \t\t\t\n      SWAP3 \t\t\t\n      POP \t\t\t\n      POP \t\t\t\n      POP \t\t\t\n      JUMP \t\t\t\n    tag 830\t\t\t\n      JUMPDEST \t\t\t\n      PUSH 0\t\t\t\n      DUP3 \t\t\t\n      DUP3 \t\t\t\n      MSTORE \t\t\t\n      PUSH 20\t\t\t\n      DUP3 \t\t\t\n      ADD \t\t\t\n      SWAP1 \t\t\t\n      POP \t\t\t\n      SWAP3 \t\t\t\n      SWAP2 \t\t\t\n      POP \t\t\t\n      POP \t\t\t\n      JUMP \t\t\t\n    tag 831\t\t\t\n      JUMPDEST \t\t\t\n      PUSH 0\t\t\t\n      PUSH [tag] 1493\t\t\t\n      DUP3 \t\t\t\n      PUSH [tag] 811\t\t\t\n      JUMP \t\t\t\n    tag 1493\t\t\t\n      JUMPDEST \t\t\t\n      PUSH [tag] 1494\t\t\t\n      DUP2 \t\t\t\n      DUP6 \t\t\t\n      PUSH [tag] 830\t\t\t\n      JUMP \t\t\t\n    tag 1494\t\t\t\n      JUMPDEST \t\t\t\n      SWAP4 \t\t\t\n      POP \t\t\t\n      PUSH [tag] 1495\t\t\t\n      DUP2 \t\t\t\n      DUP6 \t\t\t\n      PUSH 20\t\t\t\n      DUP7 \t\t\t\n      ADD \t\t\t\n      PUSH [tag] 695\t\t\t\n      JUMP \t\t\t\n    tag 1495\t\t\t\n      JUMPDEST \t\t\t\n      PUSH [tag] 1496\t\t\t\n      DUP2 \t\t\t\n      PUSH [tag] 696\t\t\t\n      JUMP \t\t\t\n    tag 1496\t\t\t\n      JUMPDEST \t\t\t\n      DUP5 \t\t\t\n      ADD \t\t\t\n      SWAP2 \t\t\t\n      POP \t\t\t\n      POP \t\t\t\n      SWAP3 \t\t\t\n      SWAP2 \t\t\t\n      POP \t\t\t\n      POP \t\t\t\n      JUMP \t\t\t\n    tag 630\t\t\t\n      JUMPDEST \t\t\t\n      PUSH 0\t\t\t\n      PUSH A0\t\t\t\n      DUP3 \t\t\t\n      ADD \t\t\t\n      SWAP1 \t\t\t\n      POP \t\t\t\n      PUSH [tag] 1498\t\t\t\n      PUSH 0\t\t\t\n      DUP4 \t\t\t\n      ADD \t\t\t\n      DUP9 \t\t\t\n      PUSH [tag] 753\t\t\t\n      JUMP \t\t\t\n    tag 1498\t\t\t\n      JUMPDEST \t\t\t\n      PUSH [tag] 1499\t\t\t\n      PUSH 20\t\t\t\n      DUP4 \t\t\t\n      ADD \t\t\t\n      DUP8 \t\t\t\n      PUSH [tag] 753\t\t\t\n      JUMP \t\t\t\n    tag 1499\t\t\t\n      JUMPDEST \t\t\t\n      PUSH [tag] 1500\t\t\t\n      PUSH 40\t\t\t\n      DUP4 \t\t\t\n      ADD \t\t\t\n      DUP7 \t\t\t\n      PUSH [tag] 681\t\t\t\n      JUMP \t\t\t\n    tag 1500\t\t\t\n      JUMPDEST \t\t\t\n      PUSH [tag] 1501\t\t\t\n      PUSH 60\t\t\t\n      DUP4 \t\t\t\n      ADD \t\t\t\n      DUP6 \t\t\t\n      PUSH [tag] 681\t\t\t\n      JUMP \t\t\t\n    tag 1501\t\t\t\n      JUMPDEST \t\t\t\n      DUP2 \t\t\t\n      DUP2 \t\t\t\n      SUB \t\t\t\n      PUSH 80\t\t\t\n      DUP4 \t\t\t\n      ADD \t\t\t\n      MSTORE \t\t\t\n      PUSH [tag] 1502\t\t\t\n      DUP2 \t\t\t\n      DUP5 \t\t\t\n      PUSH [tag] 831\t\t\t\n      JUMP \t\t\t\n    tag 1502\t\t\t\n      JUMPDEST \t\t\t\n      SWAP1 \t\t\t\n      POP \t\t\t\n      SWAP7 \t\t\t\n      SWAP6 \t\t\t\n      POP \t\t\t\n      POP \t\t\t\n      POP \t\t\t\n      POP \t\t\t\n      POP \t\t\t\n      POP \t\t\t\n      JUMP \t\t\t\n    tag 832\t\t\t\n      JUMPDEST \t\t\t\n      PUSH 0\t\t\t\n      DUP2 \t\t\t\n      MLOAD \t\t\t\n      SWAP1 \t\t\t\n      POP \t\t\t\n      PUSH [tag] 1504\t\t\t\n      DUP2 \t\t\t\n      PUSH [tag] 703\t\t\t\n      JUMP \t\t\t\n    tag 1504\t\t\t\n      JUMPDEST \t\t\t\n      SWAP3 \t\t\t\n      SWAP2 \t\t\t\n      POP \t\t\t\n      POP \t\t\t\n      JUMP \t\t\t\n    tag 633\t\t\t\n      JUMPDEST \t\t\t\n      PUSH 0\t\t\t\n      PUSH 20\t\t\t\n      DUP3 \t\t\t\n      DUP5 \t\t\t\n      SUB \t\t\t\n      SLT \t\t\t\n      ISZERO \t\t\t\n      PUSH [tag] 1506\t\t\t\n      JUMPI \t\t\t\n      PUSH [tag] 1507\t\t\t\n      PUSH [tag] 672\t\t\t\n      JUMP \t\t\t\n    tag 1507\t\t\t\n      JUMPDEST \t\t\t\n    tag 1506\t\t\t\n      JUMPDEST \t\t\t\n      PUSH 0\t\t\t\n      PUSH [tag] 1508\t\t\t\n      DUP5 \t\t\t\n      DUP3 \t\t\t\n      DUP6 \t\t\t\n      ADD \t\t\t\n      PUSH [tag] 832\t\t\t\n      JUMP \t\t\t\n    tag 1508\t\t\t\n      JUMPDEST \t\t\t\n      SWAP2 \t\t\t\n      POP \t\t\t\n      POP \t\t\t\n      SWAP3 \t\t\t\n      SWAP2 \t\t\t\n      POP \t\t\t\n      POP \t\t\t\n      JUMP \t\t\t\n    tag 649\t\t\t\n      JUMPDEST \t\t\t\n      PUSH 0\t\t\t\n      PUSH A0\t\t\t\n      DUP3 \t\t\t\n      ADD \t\t\t\n      SWAP1 \t\t\t\n      POP \t\t\t\n      PUSH [tag] 1510\t\t\t\n      PUSH 0\t\t\t\n      DUP4 \t\t\t\n      ADD \t\t\t\n      DUP9 \t\t\t\n      PUSH [tag] 753\t\t\t\n      JUMP \t\t\t\n    tag 1510\t\t\t\n      JUMPDEST \t\t\t\n      PUSH [tag] 1511\t\t\t\n      PUSH 20\t\t\t\n      DUP4 \t\t\t\n      ADD \t\t\t\n      DUP8 \t\t\t\n      PUSH [tag] 753\t\t\t\n      JUMP \t\t\t\n    tag 1511\t\t\t\n      JUMPDEST \t\t\t\n      DUP2 \t\t\t\n      DUP2 \t\t\t\n      SUB \t\t\t\n      PUSH 40\t\t\t\n      DUP4 \t\t\t\n      ADD \t\t\t\n      MSTORE \t\t\t\n      PUSH [tag] 1512\t\t\t\n      DUP2 \t\t\t\n      DUP7 \t\t\t\n      PUSH [tag] 747\t\t\t\n      JUMP \t\t\t\n    tag 1512\t\t\t\n      JUMPDEST \t\t\t\n      SWAP1 \t\t\t\n      POP \t\t\t\n      DUP2 \t\t\t\n      DUP2 \t\t\t\n      SUB \t\t\t\n      PUSH 60\t\t\t\n      DUP4 \t\t\t\n      ADD \t\t\t\n      MSTORE \t\t\t\n      PUSH [tag] 1513\t\t\t\n      DUP2 \t\t\t\n      DUP6 \t\t\t\n      PUSH [tag] 747\t\t\t\n      JUMP \t\t\t\n    tag 1513\t\t\t\n      JUMPDEST \t\t\t\n      SWAP1 \t\t\t\n      POP \t\t\t\n      DUP2 \t\t\t\n      DUP2 \t\t\t\n      SUB \t\t\t\n      PUSH 80\t\t\t\n      DUP4 \t\t\t\n      ADD \t\t\t\n      MSTORE \t\t\t\n      PUSH [tag] 1514\t\t\t\n      DUP2 \t\t\t\n      DUP5 \t\t\t\n      PUSH [tag] 831\t\t\t\n      JUMP \t\t\t\n    tag 1514\t\t\t\n      JUMPDEST \t\t\t\n      SWAP1 \t\t\t\n      POP \t\t\t\n      SWAP7 \t\t\t\n      SWAP6 \t\t\t\n      POP \t\t\t\n      POP \t\t\t\n      POP \t\t\t\n      POP \t\t\t\n      POP \t\t\t\n      POP \t\t\t\n      JUMP \t\t\t\n    .data\n"
}