{
	"compilerInput": "{\"language\":\"Solidity\",\"sources\":{\".deps/npm/@iden3/contracts/verifiers/UniversalVerifier.sol\":{\"content\":\"// SPDX-License-Identifier: GPL-3.0\\npragma solidity 0.8.27;\\n\\nimport {Ownable2StepUpgradeable} from \\\"@openzeppelin/contracts-upgradeable/access/Ownable2StepUpgradeable.sol\\\";\\nimport {ICircuitValidator} from \\\"../interfaces/ICircuitValidator.sol\\\";\\nimport {IZKPVerifier} from \\\"../interfaces/IZKPVerifier.sol\\\";\\nimport {RequestOwnership} from \\\"./RequestOwnership.sol\\\";\\nimport {RequestDisableable} from \\\"./RequestDisableable.sol\\\";\\nimport {ValidatorWhitelist} from \\\"./ValidatorWhitelist.sol\\\";\\nimport {ZKPVerifierBase} from \\\"./ZKPVerifierBase.sol\\\";\\nimport {IState} from \\\"../interfaces/IState.sol\\\";\\n\\n/// @title Universal Verifier Contract\\n/// @notice A contract to manage ZKP (Zero-Knowledge Proof) requests and proofs.\\ncontract UniversalVerifier is\\n    Ownable2StepUpgradeable,\\n    RequestOwnership,\\n    RequestDisableable,\\n    ValidatorWhitelist\\n{\\n    /**\\n     * @dev Version of contract\\n     */\\n    string public constant VERSION = \\\"1.1.1\\\";\\n\\n    /// @dev Event emitted upon submitting a ZKP request\\n    event ZKPResponseSubmitted(uint64 indexed requestId, address indexed caller);\\n\\n    /// @dev Event emitted upon adding a ZKP request\\n    event ZKPRequestSet(\\n        uint64 indexed requestId,\\n        address indexed requestOwner,\\n        string metadata,\\n        address validator,\\n        bytes data\\n    );\\n\\n    /// @dev Modifier to check if the caller is the contract Owner or ZKP Request Owner\\n    modifier onlyOwnerOrRequestOwner(uint64 requestId) {\\n        address sender = _msgSender();\\n        require(\\n            sender == getRequestOwner(requestId) || sender == owner(),\\n            \\\"Not an owner or request owner\\\"\\n        );\\n        _;\\n    }\\n\\n    /// @dev Initializes the contract\\n    function initialize(IState state, address owner) public initializer {\\n        __Ownable_init(owner);\\n        __ZKPVerifierBase_init(state);\\n    }\\n\\n    /// @dev Version of contract getter\\n    function version() public pure returns (string memory) {\\n        return VERSION;\\n    }\\n\\n    /// @dev Sets a ZKP request\\n    /// @param requestId The ID of the ZKP request\\n    /// @param request The ZKP request data\\n    function setZKPRequest(\\n        uint64 requestId,\\n        IZKPVerifier.ZKPRequest calldata request\\n    ) public override(RequestOwnership, ValidatorWhitelist, ZKPVerifierBase) {\\n        super.setZKPRequest(requestId, request);\\n\\n        emit ZKPRequestSet(\\n            requestId,\\n            _msgSender(),\\n            request.metadata,\\n            address(request.validator),\\n            request.data\\n        );\\n    }\\n\\n    /// @dev Submits a ZKP response and updates proof status\\n    /// @param requestId The ID of the ZKP request\\n    /// @param inputs The input data for the proof\\n    /// @param a The first component of the proof\\n    /// @param b The second component of the proof\\n    /// @param c The third component of the proof\\n    function submitZKPResponse(\\n        uint64 requestId,\\n        uint256[] memory inputs,\\n        uint256[2] memory a,\\n        uint256[2][2] memory b,\\n        uint256[2] memory c\\n    ) public override(RequestDisableable, ValidatorWhitelist, ZKPVerifierBase) {\\n        super.submitZKPResponse(requestId, inputs, a, b, c);\\n        emit ZKPResponseSubmitted(requestId, _msgSender());\\n    }\\n\\n    /**\\n     * @dev Submits an array of ZKP responses and updates proofs status\\n     * @param responses The list of responses including ZKP request ID, ZK proof and metadata\\n     * @param crossChainProof The list of cross chain proofs from universal resolver (oracle). This\\n     * includes identities and global states.\\n     */\\n    function submitZKPResponseV2(\\n        IZKPVerifier.ZKPResponse[] memory responses,\\n        bytes memory crossChainProof\\n    ) public override {\\n        super.submitZKPResponseV2(responses, crossChainProof);\\n        for (uint256 i = 0; i < responses.length; i++) {\\n            emit ZKPResponseSubmitted(responses[i].requestId, _msgSender());\\n        }\\n    }\\n\\n    /// @dev Verifies a ZKP response without updating any proof status\\n    /// @param requestId The ID of the ZKP request\\n    /// @param inputs The public inputs for the proof\\n    /// @param a The first component of the proof\\n    /// @param b The second component of the proof\\n    /// @param c The third component of the proof\\n    /// @param sender The sender on behalf of which the proof is done\\n    function verifyZKPResponse(\\n        uint64 requestId,\\n        uint256[] memory inputs,\\n        uint256[2] memory a,\\n        uint256[2][2] memory b,\\n        uint256[2] memory c,\\n        address sender\\n    )\\n        public\\n        override(RequestDisableable, ValidatorWhitelist, ZKPVerifierBase)\\n        returns (ICircuitValidator.KeyToInputIndex[] memory)\\n    {\\n        return super.verifyZKPResponse(requestId, inputs, a, b, c, sender);\\n    }\\n\\n    /**\\n     * @dev Sets the state contract address\\n     */\\n    function setState(IState state) public onlyOwner {\\n        _setState(state);\\n    }\\n\\n    /// @dev Sets ZKP Request Owner address\\n    /// @param requestId The ID of the ZKP request\\n    /// @param requestOwner ZKP Request Owner address\\n    function setRequestOwner(\\n        uint64 requestId,\\n        address requestOwner\\n    ) public onlyOwnerOrRequestOwner(requestId) {\\n        _setRequestOwner(requestId, requestOwner);\\n    }\\n\\n    /// @dev Disables ZKP Request\\n    /// @param requestId The ID of the ZKP request\\n    function disableZKPRequest(uint64 requestId) public onlyOwnerOrRequestOwner(requestId) {\\n        _disableZKPRequest(requestId);\\n    }\\n\\n    /// @dev Enables ZKP Request\\n    /// @param requestId The ID of the ZKP request\\n    function enableZKPRequest(uint64 requestId) public onlyOwnerOrRequestOwner(requestId) {\\n        _enableZKPRequest(requestId);\\n    }\\n\\n    /// @dev Add new validator to the whitelist\\n    /// @param validator Validator address\\n    function addValidatorToWhitelist(ICircuitValidator validator) public onlyOwner {\\n        _addValidatorToWhitelist(validator);\\n    }\\n\\n    /// @dev Remove validator from the whitelist\\n    /// @param validator Validator address\\n    function removeValidatorFromWhitelist(ICircuitValidator validator) public onlyOwner {\\n        _removeValidatorFromWhitelist(validator);\\n    }\\n}\\n\"},\".deps/npm/@iden3/contracts/interfaces/IState.sol\":{\"content\":\"// SPDX-License-Identifier: GPL-3.0\\npragma solidity 0.8.27;\\n\\n// TODO changing this value don't forget to change GistProof.siblings array size\\n// figure out how to reuse the constant in the array size\\n// without compiler error\\nuint256 constant MAX_SMT_DEPTH = 64;\\n\\ninterface IState {\\n    /**\\n     * @dev Struct for public interfaces to represent a state information.\\n     * @param id An identity.\\n     * @param state A state.\\n     * @param replacedByState A state, which replaced this state for the identity.\\n     * @param createdAtTimestamp A time when the state was created.\\n     * @param replacedAtTimestamp A time when the state was replaced by the next identity state.\\n     * @param createdAtBlock A block number when the state was created.\\n     * @param replacedAtBlock A block number when the state was replaced by the next identity state.\\n     */\\n    struct StateInfo {\\n        uint256 id;\\n        uint256 state;\\n        uint256 replacedByState;\\n        uint256 createdAtTimestamp;\\n        uint256 replacedAtTimestamp;\\n        uint256 createdAtBlock;\\n        uint256 replacedAtBlock;\\n    }\\n\\n    /**\\n     * @dev Struct for public interfaces to represent GIST root information.\\n     * @param root This GIST root.\\n     * @param replacedByRoot A root, which replaced this root.\\n     * @param createdAtTimestamp A time, when the root was saved to blockchain.\\n     * @param replacedAtTimestamp A time, when the root was replaced by the next root in blockchain.\\n     * @param createdAtBlock A number of block, when the root was saved to blockchain.\\n     * @param replacedAtBlock A number of block, when the root was replaced by the next root in blockchain.\\n     */\\n    struct GistRootInfo {\\n        uint256 root;\\n        uint256 replacedByRoot;\\n        uint256 createdAtTimestamp;\\n        uint256 replacedAtTimestamp;\\n        uint256 createdAtBlock;\\n        uint256 replacedAtBlock;\\n    }\\n\\n    /**\\n     * @dev Struct for public interfaces to represent GIST proof information.\\n     * @param root This GIST root.\\n     * @param existence A flag, which shows if the leaf index exists in the GIST.\\n     * @param siblings An array of GIST sibling node hashes.\\n     * @param index An index of the leaf in the GIST.\\n     * @param value A value of the leaf in the GIST.\\n     * @param auxExistence A flag, which shows if the auxiliary leaf exists in the GIST.\\n     * @param auxIndex An index of the auxiliary leaf in the GIST.\\n     * @param auxValue An value of the auxiliary leaf in the GIST.\\n     */\\n    struct GistProof {\\n        uint256 root;\\n        bool existence;\\n        uint256[64] siblings; // TODO figure out the way how to use the MAX_SMT_DEPTH constant\\n        uint256 index;\\n        uint256 value;\\n        bool auxExistence;\\n        uint256 auxIndex;\\n        uint256 auxValue;\\n    }\\n    /**\\n     * @dev Struct for signed identity states.\\n     * @param idStateMsg Message of the identity state.\\n     * @param signature Signature of the message.\\n     */\\n    struct IdentityStateUpdate {\\n        IdentityStateMessage idStateMsg;\\n        bytes signature;\\n    }\\n    /**\\n     * @dev Struct for signed global states.\\n     * @param globalStateMsg Message of the global state.\\n     * @param signature Signature of the message.\\n     */\\n    struct GlobalStateUpdate {\\n        GlobalStateMessage globalStateMsg;\\n        bytes signature;\\n    }\\n    /**\\n     * @dev Struct for identity state message.\\n     * @param timestamp Timestamp when the message was signed.\\n     * @param id Id of the identity.\\n     * @param state State of the identity.\\n     * @param replacedAtTimestamp Timestamp when the state was replaced by next identity state.\\n     */\\n    struct IdentityStateMessage {\\n        uint256 timestamp;\\n        uint256 id;\\n        uint256 state;\\n        uint256 replacedAtTimestamp;\\n    }\\n\\n    /**\\n     * @dev Struct for global state message.\\n     * @param timestamp Timestamp when the message was signed.\\n     * @param idType Id type of the chain.\\n     * @param root Root of the global state.\\n     * @param replacedAtTimestamp Timestamp when the global state was replaced by next global state.\\n     */\\n    struct GlobalStateMessage {\\n        uint256 timestamp;\\n        bytes2 idType;\\n        uint256 root;\\n        uint256 replacedAtTimestamp;\\n    }\\n    /**\\n     * @dev Struct for cross chain proof.\\n     * @param proofType Proof type for the proof provided (\\\"stateProof\\\", \\\"globalStateProof\\\").\\n     * @param proof Cross chain proof.\\n     */\\n    struct CrossChainProof {\\n        string proofType;\\n        bytes proof;\\n    }\\n\\n    /**\\n     * @dev Struct for global state process result.\\n     * @param idType Id type of the chain.\\n     * @param root Root of the global state.\\n     * @param replacedAtTimestamp Timestamp when the global state was replaced by next global state.\\n     */\\n    struct GlobalStateProcessResult {\\n        bytes2 idType;\\n        uint256 root;\\n        uint256 replacedAtTimestamp;\\n    }\\n    /**\\n     * @dev Struct for identity state process result.\\n     * @param id Id of the identity.\\n     * @param state State of the identity.\\n     * @param replacedAtTimestamp Timestamp when the identity state was replaced by next identity state.\\n     */\\n    struct IdentityStateProcessResult {\\n        uint256 id;\\n        uint256 state;\\n        uint256 replacedAtTimestamp;\\n    }\\n\\n    /**\\n     * @dev Retrieve last state information of specific id.\\n     * @param id An identity.\\n     * @return The state info.\\n     */\\n    function getStateInfoById(uint256 id) external view returns (StateInfo memory);\\n\\n    /**\\n     * @dev Retrieve state information by id and state.\\n     * @param id An identity.\\n     * @param state A state.\\n     * @return The state info.\\n     */\\n    function getStateInfoByIdAndState(\\n        uint256 id,\\n        uint256 state\\n    ) external view returns (StateInfo memory);\\n\\n    /**\\n     * @dev Retrieve the specific GIST root information.\\n     * @param root GIST root.\\n     * @return The GIST root info.\\n     */\\n    function getGISTRootInfo(uint256 root) external view returns (GistRootInfo memory);\\n\\n    /**\\n     * @dev Check if the id type supported.\\n     * @param idType id type.\\n     * @return True if the id type supported.\\n     */\\n    function isIdTypeSupported(bytes2 idType) external view returns (bool);\\n\\n    /**\\n     * @dev Get id if the id type supported for the id, otherwise revert.\\n     * @param id An identity.\\n     * @return The id type.\\n     */\\n    function getIdTypeIfSupported(uint256 id) external view returns (bytes2);\\n\\n    /**\\n     * @dev Get defaultIdType\\n     * @return defaultIdType\\n     */\\n    function getDefaultIdType() external view returns (bytes2);\\n\\n    /**\\n     * @dev Performs state transition\\n     * @param id Identifier of the identity\\n     * @param oldState Previous state of the identity\\n     * @param newState New state of the identity\\n     * @param isOldStateGenesis Flag if previous identity state is genesis\\n     * @param a Proof.A\\n     * @param b Proof.B\\n     * @param c Proof.C\\n     */\\n    function transitState(\\n        uint256 id,\\n        uint256 oldState,\\n        uint256 newState,\\n        bool isOldStateGenesis,\\n        uint256[2] memory a,\\n        uint256[2][2] memory b,\\n        uint256[2] memory c\\n    ) external;\\n\\n    /**\\n     * @dev Performs state transition\\n     * @param id Identity\\n     * @param oldState Previous identity state\\n     * @param newState New identity state\\n     * @param isOldStateGenesis Is the previous state genesis?\\n     * @param methodId State transition method id\\n     * @param methodParams State transition method-specific params\\n     */\\n    function transitStateGeneric(\\n        uint256 id,\\n        uint256 oldState,\\n        uint256 newState,\\n        bool isOldStateGenesis,\\n        uint256 methodId,\\n        bytes calldata methodParams\\n    ) external;\\n\\n    /**\\n     * @dev Check if identity exists.\\n     * @param id Identity\\n     * @return True if the identity exists\\n     */\\n    function idExists(uint256 id) external view returns (bool);\\n\\n    /**\\n     * @dev Check if state exists.\\n     * @param id Identity\\n     * @param state State\\n     * @return True if the state exists\\n     */\\n    function stateExists(uint256 id, uint256 state) external view returns (bool);\\n\\n    /**\\n     * @dev Get timestamp when the identity state was replaced.\\n     * @param id Identity\\n     * @param state State of the identity\\n     * @return replacedAtTimestamp Timestamp when the identity state was replaced by new identity state\\n     */\\n    function getStateReplacedAt(\\n        uint256 id,\\n        uint256 state\\n    ) external view returns (uint256 replacedAtTimestamp);\\n\\n    /**\\n     * @dev Get timestamp when the global state was replaced.\\n     * @param idType Id type of the chain\\n     * @param root Root of the global state\\n     * @return replacedAtTimestamp Timestamp when the global state was replaced by new global state\\n     */\\n    function getGistRootReplacedAt(\\n        bytes2 idType,\\n        uint256 root\\n    ) external view returns (uint256 replacedAtTimestamp);\\n\\n    /**\\n     * @dev Process the cross chain proofs with the identities and global states.\\n     * @param proofs Proofs with the identities and global states\\n     */\\n    function processCrossChainProofs(bytes calldata proofs) external;\\n}\\n\"},\".deps/npm/@iden3/contracts/verifiers/ZKPVerifierBase.sol\":{\"content\":\"// SPDX-License-Identifier: GPL-3.0\\npragma solidity 0.8.27;\\n\\nimport {IZKPVerifier} from \\\"../interfaces/IZKPVerifier.sol\\\";\\nimport {ICircuitValidator} from \\\"../interfaces/ICircuitValidator.sol\\\";\\nimport {ArrayUtils} from \\\"../lib/ArrayUtils.sol\\\";\\nimport {ContextUpgradeable} from \\\"@openzeppelin/contracts-upgradeable/utils/ContextUpgradeable.sol\\\";\\nimport {IState} from \\\"../interfaces/IState.sol\\\";\\nimport {VerifierLib} from \\\"../lib/VerifierLib.sol\\\";\\n\\nabstract contract ZKPVerifierBase is IZKPVerifier, ContextUpgradeable {\\n    struct Metadata {\\n        string key;\\n        bytes value;\\n    }\\n\\n    /// @custom:storage-location erc7201:iden3.storage.ZKPVerifier\\n    struct ZKPVerifierStorage {\\n        mapping(address user => mapping(uint64 requestId => VerifierLib.Proof)) _proofs;\\n        mapping(uint64 requestId => IZKPVerifier.ZKPRequest) _requests;\\n        uint64[] _requestIds;\\n        IState _state;\\n    }\\n\\n    // keccak256(abi.encode(uint256(keccak256(\\\"iden3.storage.ZKPVerifier\\\")) - 1)) & ~bytes32(uint256(0xff));\\n    bytes32 internal constant ZKPVerifierStorageLocation =\\n        0x512d18c55869273fec77e70d8a8586e3fb133e90f1db24c6bcf4ff3506ef6a00;\\n\\n    /// @dev Get the main storage using assembly to ensure specific storage location\\n    function _getZKPVerifierStorage() private pure returns (ZKPVerifierStorage storage $) {\\n        assembly {\\n            $.slot := ZKPVerifierStorageLocation\\n        }\\n    }\\n\\n    function _setState(IState state) internal {\\n        _getZKPVerifierStorage()._state = state;\\n    }\\n\\n    using VerifierLib for ZKPVerifierStorage;\\n\\n    function __ZKPVerifierBase_init(IState state) internal onlyInitializing {\\n        __ZKPVerifierBase_init_unchained(state);\\n    }\\n\\n    function __ZKPVerifierBase_init_unchained(IState state) internal onlyInitializing {\\n        _setState(state);\\n    }\\n\\n    /**\\n     * @dev Max return array length for request queries\\n     */\\n    uint256 public constant REQUESTS_RETURN_LIMIT = 1000;\\n\\n    /// @dev Key to retrieve the linkID from the proof storage\\n    string constant LINKED_PROOF_KEY = \\\"linkID\\\";\\n\\n    /// @dev Linked proof custom error\\n    error LinkedProofError(\\n        string message,\\n        uint64 requestId,\\n        uint256 linkID,\\n        uint64 requestIdToCompare,\\n        uint256 linkIdToCompare\\n    );\\n\\n    /// @dev Modifier to check if the validator is set for the request\\n    modifier checkRequestExistence(uint64 requestId, bool existence) {\\n        if (existence) {\\n            require(requestIdExists(requestId), \\\"request id doesn't exist\\\");\\n        } else {\\n            require(!requestIdExists(requestId), \\\"request id already exists\\\");\\n        }\\n        _;\\n    }\\n\\n    /// @dev Sets a ZKP request\\n    /// @param requestId The ID of the ZKP request\\n    /// @param request The ZKP request data\\n    function setZKPRequest(\\n        uint64 requestId,\\n        IZKPVerifier.ZKPRequest calldata request\\n    ) public virtual checkRequestExistence(requestId, false) {\\n        ZKPVerifierStorage storage s = _getZKPVerifierStorage();\\n        s._requests[requestId] = request;\\n        s._requestIds.push(requestId);\\n    }\\n\\n    /// @notice Submits a ZKP response and updates proof status\\n    /// @param requestId The ID of the ZKP request\\n    /// @param inputs The input data for the proof\\n    /// @param a The first component of the proof\\n    /// @param b The second component of the proof\\n    /// @param c The third component of the proof\\n    function submitZKPResponse(\\n        uint64 requestId,\\n        uint256[] memory inputs,\\n        uint256[2] memory a,\\n        uint256[2][2] memory b,\\n        uint256[2] memory c\\n    ) public virtual checkRequestExistence(requestId, true) {\\n        address sender = _msgSender();\\n        ZKPVerifierStorage storage $ = _getZKPVerifierStorage();\\n\\n        IZKPVerifier.ZKPRequest memory request = $._requests[requestId];\\n        ICircuitValidator.KeyToInputIndex[] memory keyToInpIdxs = request.validator.verify(\\n            inputs,\\n            a,\\n            b,\\n            c,\\n            request.data,\\n            sender\\n        );\\n\\n        $.writeProofResults(sender, requestId, keyToInpIdxs, inputs);\\n    }\\n\\n    /// @notice Submits a ZKP response V2 and updates proof status\\n    /// @param responses The list of responses including ZKP request ID, ZK proof and metadata\\n    /// @param crossChainProofs The list of cross chain proofs from universal resolver (oracle)\\n    function submitZKPResponseV2(\\n        IZKPVerifier.ZKPResponse[] memory responses,\\n        bytes memory crossChainProofs\\n    ) public virtual {\\n        ZKPVerifierStorage storage $ = _getZKPVerifierStorage();\\n\\n        $._state.processCrossChainProofs(crossChainProofs);\\n\\n        for (uint256 i = 0; i < responses.length; i++) {\\n            IZKPVerifier.ZKPResponse memory response = responses[i];\\n\\n            address sender = _msgSender();\\n\\n            // TODO some internal method and storage location to save gas?\\n            IZKPVerifier.ZKPRequest memory request = getZKPRequest(response.requestId);\\n            ICircuitValidator.Signal[] memory signals = request.validator.verifyV2(\\n                response.zkProof,\\n                request.data,\\n                sender,\\n                $._state\\n            );\\n\\n            $.writeProofResultsV2(sender, response.requestId, signals);\\n\\n            if (response.data.length > 0) {\\n                revert(\\\"Metadata not supported yet\\\");\\n            }\\n        }\\n    }\\n\\n    /// @dev Verifies a ZKP response without updating any proof status\\n    /// @param requestId The ID of the ZKP request\\n    /// @param inputs The public inputs for the proof\\n    /// @param a The first component of the proof\\n    /// @param b The second component of the proof\\n    /// @param c The third component of the proof\\n    /// @param sender The sender on behalf of which the proof is done\\n    function verifyZKPResponse(\\n        uint64 requestId,\\n        uint256[] memory inputs,\\n        uint256[2] memory a,\\n        uint256[2][2] memory b,\\n        uint256[2] memory c,\\n        address sender\\n    )\\n        public\\n        virtual\\n        checkRequestExistence(requestId, true)\\n        returns (ICircuitValidator.KeyToInputIndex[] memory)\\n    {\\n        IZKPVerifier.ZKPRequest storage request = _getZKPVerifierStorage()._requests[requestId];\\n        return request.validator.verify(inputs, a, b, c, request.data, sender);\\n    }\\n\\n    /// @dev Gets the list of request IDs and verifies the proofs are linked\\n    /// @param sender the user's address\\n    /// @param requestIds the list of request IDs\\n    /// Throws if the proofs are not linked\\n    function verifyLinkedProofs(address sender, uint64[] calldata requestIds) public view virtual {\\n        require(requestIds.length > 1, \\\"Linked proof verification needs more than 1 request\\\");\\n\\n        uint256 expectedLinkID = getProofStorageField(sender, requestIds[0], LINKED_PROOF_KEY);\\n\\n        if (expectedLinkID == 0) {\\n            revert(\\\"Can't find linkID for given request Ids and user address\\\");\\n        }\\n\\n        for (uint256 i = 1; i < requestIds.length; i++) {\\n            uint256 actualLinkID = getProofStorageField(sender, requestIds[i], LINKED_PROOF_KEY);\\n\\n            if (expectedLinkID != actualLinkID) {\\n                revert LinkedProofError(\\n                    \\\"Proofs are not linked\\\",\\n                    requestIds[0],\\n                    expectedLinkID,\\n                    requestIds[i],\\n                    actualLinkID\\n                );\\n            }\\n        }\\n    }\\n\\n    /// @dev Gets a specific ZKP request by ID\\n    /// @param requestId The ID of the ZKP request\\n    /// @return zkpRequest The ZKP request data\\n    function getZKPRequest(\\n        uint64 requestId\\n    )\\n        public\\n        view\\n        checkRequestExistence(requestId, true)\\n        returns (IZKPVerifier.ZKPRequest memory zkpRequest)\\n    {\\n        return _getZKPVerifierStorage()._requests[requestId];\\n    }\\n\\n    /// @dev Gets the count of ZKP requests\\n    /// @return The count of ZKP requests\\n    function getZKPRequestsCount() public view returns (uint256) {\\n        return _getZKPVerifierStorage()._requestIds.length;\\n    }\\n\\n    /// @dev Checks if a ZKP request ID exists\\n    /// @param requestId The ID of the ZKP request\\n    /// @return Whether the request ID exists\\n    function requestIdExists(uint64 requestId) public view override returns (bool) {\\n        return\\n            _getZKPVerifierStorage()._requests[requestId].validator !=\\n            ICircuitValidator(address(0));\\n    }\\n\\n    /// @dev Gets multiple ZKP requests within a range\\n    /// @param startIndex The starting index of the range\\n    /// @param length The length of the range\\n    /// @return An array of ZKP requests within the specified range\\n    function getZKPRequests(\\n        uint256 startIndex,\\n        uint256 length\\n    ) public view returns (IZKPVerifier.ZKPRequest[] memory) {\\n        ZKPVerifierStorage storage s = _getZKPVerifierStorage();\\n        (uint256 start, uint256 end) = ArrayUtils.calculateBounds(\\n            s._requestIds.length,\\n            startIndex,\\n            length,\\n            REQUESTS_RETURN_LIMIT\\n        );\\n\\n        IZKPVerifier.ZKPRequest[] memory result = new IZKPVerifier.ZKPRequest[](end - start);\\n\\n        for (uint256 i = start; i < end; i++) {\\n            result[i - start] = s._requests[s._requestIds[i]];\\n        }\\n\\n        return result;\\n    }\\n\\n    /// @dev Checks if proof submitted for a given sender and request ID\\n    /// @param sender The sender's address\\n    /// @param requestId The ID of the ZKP request\\n    /// @return true if proof submitted\\n    function isProofVerified(\\n        address sender,\\n        uint64 requestId\\n    ) public view checkRequestExistence(requestId, true) returns (bool) {\\n        return _getZKPVerifierStorage()._proofs[sender][requestId].isVerified;\\n    }\\n\\n    /// @dev Checks the proof status for a given user and request ID\\n    /// @param sender The sender's address\\n    /// @param requestId The ID of the ZKP request\\n    /// @return The proof status structure\\n    function getProofStatus(\\n        address sender,\\n        uint64 requestId\\n    ) public view checkRequestExistence(requestId, true) returns (IZKPVerifier.ProofStatus memory) {\\n        VerifierLib.Proof storage proof = _getZKPVerifierStorage()._proofs[sender][requestId];\\n\\n        return\\n            IZKPVerifier.ProofStatus(\\n                proof.isVerified,\\n                proof.validatorVersion,\\n                proof.blockNumber,\\n                proof.blockTimestamp\\n            );\\n    }\\n\\n    /// @dev Gets the proof storage item for a given user, request ID and key\\n    /// @param user The user's address\\n    /// @param requestId The ID of the ZKP request\\n    /// @return The proof\\n    function getProofStorageField(\\n        address user,\\n        uint64 requestId,\\n        string memory key\\n    ) public view checkRequestExistence(requestId, true) returns (uint256) {\\n        return _getZKPVerifierStorage()._proofs[user][requestId].storageFields[key];\\n    }\\n\\n    /// @dev Gets the address of the state contract linked to the verifier\\n    /// @return address of the state contract\\n    function getStateAddress() public view virtual returns (address) {\\n        return address(_getZKPVerifierStorage()._state);\\n    }\\n}\\n\"},\".deps/npm/@iden3/contracts/verifiers/ValidatorWhitelist.sol\":{\"content\":\"// SPDX-License-Identifier: GPL-3.0\\npragma solidity 0.8.27;\\n\\nimport {IERC165} from \\\"@openzeppelin/contracts/utils/introspection/IERC165.sol\\\";\\nimport {ICircuitValidator} from \\\"../interfaces/ICircuitValidator.sol\\\";\\nimport {ZKPVerifierBase} from \\\"./ZKPVerifierBase.sol\\\";\\nimport {IZKPVerifier} from \\\"../interfaces/IZKPVerifier.sol\\\";\\n\\ncontract ValidatorWhitelist is ZKPVerifierBase {\\n    /// @custom:storage-location erc7201:iden3.storage.ValidatorWhitelist\\n    struct ValidatorWhitelistStorage {\\n        mapping(ICircuitValidator => bool isApproved) _validatorWhitelist;\\n    }\\n\\n    // keccak256(abi.encode(uint256(keccak256(\\\"iden3.storage.ValidatorWhitelist\\\")) - 1)) & ~bytes32(uint256(0xff));\\n    bytes32 private constant ValidatorWhitelistStorageLocation =\\n        0x76aa24e3538905838cc74060b2aa4c054b1e474aacf44741879e1850715e9300;\\n\\n    function _getValidatorWhitelistStorage()\\n        private\\n        pure\\n        returns (ValidatorWhitelistStorage storage $)\\n    {\\n        assembly {\\n            $.slot := ValidatorWhitelistStorageLocation\\n        }\\n    }\\n\\n    /// @dev Modifier to check if the validator is whitelisted\\n    modifier onlyWhitelistedValidator(ICircuitValidator validator) {\\n        require(isWhitelistedValidator(validator), \\\"Validator is not whitelisted\\\");\\n        _;\\n    }\\n\\n    /// @dev Sets a ZKP request\\n    /// @param requestId The ID of the ZKP request\\n    /// @param request The ZKP request data\\n    function setZKPRequest(\\n        uint64 requestId,\\n        IZKPVerifier.ZKPRequest calldata request\\n    ) public virtual override onlyWhitelistedValidator(request.validator) {\\n        super.setZKPRequest(requestId, request);\\n    }\\n\\n    /// @dev Submits a ZKP response and updates proof status\\n    /// @param requestId The ID of the ZKP request\\n    /// @param inputs The input data for the proof\\n    /// @param a The first component of the proof\\n    /// @param b The second component of the proof\\n    /// @param c The third component of the proof\\n    function submitZKPResponse(\\n        uint64 requestId,\\n        uint256[] memory inputs,\\n        uint256[2] memory a,\\n        uint256[2][2] memory b,\\n        uint256[2] memory c\\n    ) public virtual override {\\n        ICircuitValidator validator = getZKPRequest(requestId).validator;\\n        require(isWhitelistedValidator(validator), \\\"Validator is not whitelisted\\\");\\n        super.submitZKPResponse(requestId, inputs, a, b, c);\\n    }\\n\\n    /// @dev Verifies a ZKP response without updating any proof status\\n    /// @param requestId The ID of the ZKP request\\n    /// @param inputs The public inputs for the proof\\n    /// @param a The first component of the proof\\n    /// @param b The second component of the proof\\n    /// @param c The third component of the proof\\n    /// @param sender The sender on behalf of which the proof is done\\n    function verifyZKPResponse(\\n        uint64 requestId,\\n        uint256[] memory inputs,\\n        uint256[2] memory a,\\n        uint256[2][2] memory b,\\n        uint256[2] memory c,\\n        address sender\\n    ) public virtual override returns (ICircuitValidator.KeyToInputIndex[] memory) {\\n        ICircuitValidator validator = getZKPRequest(requestId).validator;\\n        require(isWhitelistedValidator(validator), \\\"Validator is not whitelisted\\\");\\n        return super.verifyZKPResponse(requestId, inputs, a, b, c, sender);\\n    }\\n\\n    /// @dev Checks if validator is whitelisted\\n    /// @param validator The validator address\\n    /// @return True if validator is whitelisted, otherwise returns false\\n    function isWhitelistedValidator(\\n        ICircuitValidator validator\\n    ) public view virtual returns (bool) {\\n        return _getValidatorWhitelistStorage()._validatorWhitelist[validator];\\n    }\\n\\n    function _addValidatorToWhitelist(ICircuitValidator validator) internal {\\n        require(\\n            IERC165(address(validator)).supportsInterface(type(ICircuitValidator).interfaceId),\\n            \\\"Validator doesn't support relevant interface\\\"\\n        );\\n\\n        _getValidatorWhitelistStorage()._validatorWhitelist[validator] = true;\\n    }\\n\\n    function _removeValidatorFromWhitelist(ICircuitValidator validator) internal {\\n        _getValidatorWhitelistStorage()._validatorWhitelist[validator] = false;\\n    }\\n}\\n\"},\".deps/npm/@iden3/contracts/verifiers/RequestDisableable.sol\":{\"content\":\"// SPDX-License-Identifier: GPL-3.0\\npragma solidity 0.8.27;\\n\\nimport {ZKPVerifierBase} from \\\"./ZKPVerifierBase.sol\\\";\\nimport {ICircuitValidator} from \\\"../interfaces/ICircuitValidator.sol\\\";\\n\\ncontract RequestDisableable is ZKPVerifierBase {\\n    /// @custom:storage-location erc7201:iden3.storage.RequestDisableable\\n    struct RequestDisableStorage {\\n        mapping(uint64 requestId => bool isDisabled) _requestDisabling;\\n    }\\n\\n    // keccak256(abi.encode(uint256(keccak256(\\\"iden3.storage.RequestDisableable\\\")) - 1)) & ~bytes32(uint256(0xff));\\n    bytes32 private constant RequestDisableStorageLocation =\\n        0x70325635d67d74932012fa921ccb2f335d3b1d69e3a487f50d001cc65f531600;\\n\\n    function _getRequestDisableStorage() private pure returns (RequestDisableStorage storage $) {\\n        assembly {\\n            $.slot := RequestDisableStorageLocation\\n        }\\n    }\\n\\n    /// @dev Modifier to check if the ZKP request is enabled\\n    modifier onlyEnabledRequest(uint64 requestId) {\\n        require(isZKPRequestEnabled(requestId), \\\"Request is disabled\\\");\\n        _;\\n    }\\n\\n    /// @dev Submits a ZKP response and updates proof status\\n    /// @param requestId The ID of the ZKP request\\n    /// @param inputs The input data for the proof\\n    /// @param a The first component of the proof\\n    /// @param b The second component of the proof\\n    /// @param c The third component of the proof\\n    function submitZKPResponse(\\n        uint64 requestId,\\n        uint256[] memory inputs,\\n        uint256[2] memory a,\\n        uint256[2][2] memory b,\\n        uint256[2] memory c\\n    ) public virtual override onlyEnabledRequest(requestId) {\\n        super.submitZKPResponse(requestId, inputs, a, b, c);\\n    }\\n\\n    /// @dev Verifies a ZKP response without updating any proof status\\n    /// @param requestId The ID of the ZKP request\\n    /// @param inputs The public inputs for the proof\\n    /// @param a The first component of the proof\\n    /// @param b The second component of the proof\\n    /// @param c The third component of the proof\\n    /// @param sender The sender on behalf of which the proof is done\\n    function verifyZKPResponse(\\n        uint64 requestId,\\n        uint256[] memory inputs,\\n        uint256[2] memory a,\\n        uint256[2][2] memory b,\\n        uint256[2] memory c,\\n        address sender\\n    )\\n        public\\n        virtual\\n        override\\n        onlyEnabledRequest(requestId)\\n        returns (ICircuitValidator.KeyToInputIndex[] memory)\\n    {\\n        return super.verifyZKPResponse(requestId, inputs, a, b, c, sender);\\n    }\\n\\n    /// @dev Checks if ZKP Request is enabled\\n    /// @param requestId The ID of the ZKP request\\n    /// @return True if ZKP Request enabled, otherwise returns false\\n    function isZKPRequestEnabled(\\n        uint64 requestId\\n    ) public view virtual checkRequestExistence(requestId, true) returns (bool) {\\n        return !_getRequestDisableStorage()._requestDisabling[requestId];\\n    }\\n\\n    function _disableZKPRequest(uint64 requestId) internal checkRequestExistence(requestId, true) {\\n        _getRequestDisableStorage()._requestDisabling[requestId] = true;\\n    }\\n\\n    function _enableZKPRequest(uint64 requestId) internal checkRequestExistence(requestId, true) {\\n        _getRequestDisableStorage()._requestDisabling[requestId] = false;\\n    }\\n}\\n\"},\".deps/npm/@iden3/contracts/verifiers/RequestOwnership.sol\":{\"content\":\"// SPDX-License-Identifier: GPL-3.0\\npragma solidity 0.8.27;\\n\\nimport {ZKPVerifierBase} from \\\"./ZKPVerifierBase.sol\\\";\\nimport {IZKPVerifier} from \\\"../interfaces/IZKPVerifier.sol\\\";\\n\\nabstract contract RequestOwnership is ZKPVerifierBase {\\n    /// @custom:storage-location erc7201:iden3.storage.RequestOwnership\\n    struct RequestOwnershipStorage {\\n        mapping(uint64 requestId => address requestOwner) _requestOwners;\\n    }\\n\\n    // keccak256(abi.encode(uint256(keccak256(\\\"iden3.storage.RequestOwnership\\\")) - 1)) & ~bytes32(uint256(0xff));\\n    bytes32 private constant RequestOwnershipStorageLocation =\\n        0x6209bdc3799f5201408f7a7d4d471bb2a0100353e618451674b93f730b006a00;\\n\\n    function _getRequestOwnershipStorage()\\n        private\\n        pure\\n        returns (RequestOwnershipStorage storage $)\\n    {\\n        assembly {\\n            $.slot := RequestOwnershipStorageLocation\\n        }\\n    }\\n\\n    /// @dev Modifier to check if the caller is ZKP Request owner\\n    modifier onlyRequestOwner(uint64 requestId) virtual {\\n        require(getRequestOwner(requestId) == _msgSender(), \\\"Not a request owner\\\");\\n        _;\\n    }\\n\\n    /// @dev Sets a ZKP request\\n    /// @param requestId The ID of the ZKP request\\n    /// @param request The ZKP request data\\n    function setZKPRequest(\\n        uint64 requestId,\\n        IZKPVerifier.ZKPRequest calldata request\\n    ) public virtual override {\\n        super.setZKPRequest(requestId, request);\\n        _setRequestOwner(requestId, _msgSender());\\n    }\\n\\n    /// @dev Get a ZKP Request Owner address\\n    /// @param requestId The ID of a ZKP Request\\n    /// @return The ZKP Request Owner address\\n    function getRequestOwner(\\n        uint64 requestId\\n    ) public view virtual checkRequestExistence(requestId, true) returns (address) {\\n        return _getRequestOwnershipStorage()._requestOwners[requestId];\\n    }\\n\\n    function _setRequestOwner(\\n        uint64 requestId,\\n        address requestOwner\\n    ) internal checkRequestExistence(requestId, true) {\\n        RequestOwnershipStorage storage $ = _getRequestOwnershipStorage();\\n        $._requestOwners[requestId] = requestOwner;\\n    }\\n}\\n\"},\".deps/npm/@iden3/contracts/interfaces/IZKPVerifier.sol\":{\"content\":\"// SPDX-License-Identifier: GPL-3.0\\n\\npragma solidity 0.8.27;\\n\\nimport {ICircuitValidator} from \\\"./ICircuitValidator.sol\\\";\\n\\n/**\\n * @dev IZKPVerifier. Interface for verification of groth16 proofs for validators circuits.\\n */\\ninterface IZKPVerifier {\\n    /**\\n     * @dev ZKPRequest. Structure for ZKP request.\\n     * @param metadata Metadata of the request.\\n     * @param validator Validator circuit.\\n     * @param data Data of the request.\\n     */\\n    struct ZKPRequest {\\n        string metadata;\\n        ICircuitValidator validator;\\n        bytes data;\\n    }\\n    /**\\n     * @dev ProofStatus. Structure for proof status.\\n     * @param isVerified True if the proof is verified.\\n     * @param validatorVersion Version of the validator.\\n     * @param blockNumber Block number of the proof.\\n     * @param blockTimestamp Block timestamp of the proof.\\n     */\\n    struct ProofStatus {\\n        bool isVerified;\\n        string validatorVersion;\\n        uint256 blockNumber;\\n        uint256 blockTimestamp;\\n    }\\n\\n    /**\\n     * @dev ZKPResponse. Structure for ZKP response.\\n     * @param requestId Request id of the ZKP request.\\n     * @param zkProof ZKP proof to verify.\\n     * @param data Metadata of the request.\\n     */\\n    struct ZKPResponse {\\n        uint64 requestId;\\n        bytes zkProof;\\n        bytes data;\\n    }\\n\\n    /**\\n     * @dev Submit the groth16 proof π=([πa]1,[πb]2,[πc]1) for the ZKP request requestId.\\n     * @param requestId Request id of the ZKP request.\\n     * @param inputs Public inputs of the circuit.\\n     * @param a πa element of the groth16 proof.\\n     * @param b πb element of the groth16 proof.\\n     * @param c πc element of the groth16 proof.\\n     */\\n    function submitZKPResponse(\\n        uint64 requestId,\\n        uint256[] memory inputs,\\n        uint256[2] memory a,\\n        uint256[2][2] memory b,\\n        uint256[2] memory c\\n    ) external;\\n\\n    /**\\n     * @dev Submit the groth16 proof π=([πa]1,[πb]2,[πc]1) for the ZKP request requestId.\\n     * @param responses The list of responses including ZKP request ID, ZK proof and metadata.\\n     * @param crossChainProofs The list of cross chain proofs from universal resolver (oracle).\\n     */\\n    function submitZKPResponseV2(\\n        ZKPResponse[] memory responses,\\n        bytes memory crossChainProofs\\n    ) external;\\n\\n    /**\\n     * @dev Set the ZKP request for the requestId.\\n     * @param requestId Request id of the ZKP request.\\n     * @param request ZKP request to set.\\n     */\\n    function setZKPRequest(uint64 requestId, ZKPRequest calldata request) external;\\n\\n    /**\\n     * @dev Get the ZKP request for the requestId.\\n     * @param requestId Request id of the ZKP request.\\n     * @return ZKP request.\\n     */\\n    function getZKPRequest(uint64 requestId) external view returns (ZKPRequest memory);\\n\\n    /**\\n     * @dev Get the ZKP request count.\\n     * @return ZKP request count.\\n     */\\n    function getZKPRequestsCount() external view returns (uint256);\\n\\n    /**\\n     * @dev Check if the requestId exists.\\n     * @param requestId Request id of the ZKP request.\\n     * @return True if the requestId exists.\\n     */\\n    function requestIdExists(uint64 requestId) external view returns (bool);\\n\\n    /**\\n     * @dev Get the ZKP requests.\\n     * @param startIndex Start index of the ZKP requests.\\n     * @param length Length of the ZKP requests.\\n     * @return Array of the ZKP requests.\\n     */\\n    function getZKPRequests(\\n        uint256 startIndex,\\n        uint256 length\\n    ) external view returns (ZKPRequest[] memory);\\n\\n    /**\\n     * @dev Get if proof is verified for the sender and ZKP request with requestId.\\n     * @param sender Sender of the proof.\\n     * @param requestId Request id of the ZKP Request to verify.\\n     * @return True if proof is verified for the sender and request id.\\n     */\\n    function isProofVerified(address sender, uint64 requestId) external view returns (bool);\\n\\n    /**\\n     * @dev Get the proof status for the sender and ZKP request with requestId.\\n     * @param sender Sender of the proof.\\n     * @param requestId Request id of the proof.\\n     * @return Proof status.\\n     */\\n    function getProofStatus(\\n        address sender,\\n        uint64 requestId\\n    ) external view returns (ProofStatus memory);\\n\\n    /**\\n     * @dev Get the proof storage field for the user, requestId and key.\\n     * @param user User address.\\n     * @param requestId Request id of the proof.\\n     * @param key Key of the proof storage field.\\n     * @return Proof storage field.\\n     */\\n    function getProofStorageField(\\n        address user,\\n        uint64 requestId,\\n        string memory key\\n    ) external view returns (uint256);\\n}\\n\"},\".deps/npm/@iden3/contracts/interfaces/ICircuitValidator.sol\":{\"content\":\"// SPDX-License-Identifier: GPL-3.0\\npragma solidity 0.8.27;\\n\\nimport {IState} from \\\"./IState.sol\\\";\\n\\n/**\\n * @dev ICircuitValidator. Interface for circuit verification.\\n */\\ninterface ICircuitValidator {\\n    /**\\n     * @dev KeyToInputIndex. Information about public inputs of the circuit verification. Used in verify function.\\n     * @param key Name of the public input\\n     * @param inputIndex Index of the public input\\n     *\\n     * Note: Kept for backward compatibility. Now it's replaced by Signal struct for verifyV2 function.\\n     */\\n    struct KeyToInputIndex {\\n        string key;\\n        uint256 inputIndex;\\n    }\\n\\n    /**\\n     * @dev Signal. Information about public signals of the circuit verification. Used in verifyV2 function.\\n     * @param name Name of the public signal\\n     * @param value Value of the public signal\\n     */\\n    struct Signal {\\n        string name;\\n        uint256 value;\\n    }\\n\\n    /**\\n     * @dev Get version of the contract\\n     */\\n    function version() external view returns (string memory);\\n\\n    /**\\n     * @dev Verify with the supported circuit informed in the request query data the groth16 proof\\n     * π=([πa]1,[πb]2,[πc]1) and that the proof was generated by the sender.\\n     * @param inputs Public inputs of the circuit.\\n     * @param a πa element of the groth16 proof.\\n     * @param b πb element of the groth16 proof.\\n     * @param c πc element of the groth16 proof.\\n     * @param data Request query data of the credential to verify.\\n     * @param sender Sender of the proof.\\n     * @return Array of key to public input index as result.\\n     */\\n    function verify(\\n        uint256[] memory inputs,\\n        uint256[2] memory a,\\n        uint256[2][2] memory b,\\n        uint256[2] memory c,\\n        bytes calldata data,\\n        address sender\\n    ) external returns (ICircuitValidator.KeyToInputIndex[] memory);\\n\\n    /**\\n     * @dev Verify with the supported circuit informed in the request query data the groth16 proof\\n     * packed as bytes and that the proof was generated by the sender.\\n     * @param zkProof Proof packed as bytes to verify.\\n     * @param data Request query data of the credential to verify.\\n     * @param sender Sender of the proof.\\n     * @param state State contract to get identities and gist states to check.\\n     * @return Array of public signals as result.\\n     */\\n    function verifyV2(\\n        bytes calldata zkProof,\\n        bytes calldata data,\\n        address sender,\\n        IState state\\n    ) external returns (ICircuitValidator.Signal[] memory);\\n\\n    /**\\n     * @dev Get supported circuit ids.\\n     * @return ids Array of circuit ids supported.\\n     */\\n    function getSupportedCircuitIds() external view returns (string[] memory ids);\\n\\n    /**\\n     * @dev Get the index of the public input of the circuit by name.\\n     * @param name Name of the public input.\\n     * @return Index of the public input.\\n     */\\n    function inputIndexOf(string memory name) external view returns (uint256);\\n}\\n\"},\"@openzeppelin/contracts-upgradeable/access/Ownable2StepUpgradeable.sol\":{\"content\":\"// SPDX-License-Identifier: MIT\\n// OpenZeppelin Contracts (last updated v5.1.0) (access/Ownable2Step.sol)\\n\\npragma solidity ^0.8.20;\\n\\nimport {OwnableUpgradeable} from \\\"./OwnableUpgradeable.sol\\\";\\nimport {Initializable} from \\\"../proxy/utils/Initializable.sol\\\";\\n\\n/**\\n * @dev Contract module which provides access control mechanism, where\\n * there is an account (an owner) that can be granted exclusive access to\\n * specific functions.\\n *\\n * This extension of the {Ownable} contract includes a two-step mechanism to transfer\\n * ownership, where the new owner must call {acceptOwnership} in order to replace the\\n * old one. This can help prevent common mistakes, such as transfers of ownership to\\n * incorrect accounts, or to contracts that are unable to interact with the\\n * permission system.\\n *\\n * The initial owner is specified at deployment time in the constructor for `Ownable`. This\\n * can later be changed with {transferOwnership} and {acceptOwnership}.\\n *\\n * This module is used through inheritance. It will make available all functions\\n * from parent (Ownable).\\n */\\nabstract contract Ownable2StepUpgradeable is Initializable, OwnableUpgradeable {\\n    /// @custom:storage-location erc7201:openzeppelin.storage.Ownable2Step\\n    struct Ownable2StepStorage {\\n        address _pendingOwner;\\n    }\\n\\n    // keccak256(abi.encode(uint256(keccak256(\\\"openzeppelin.storage.Ownable2Step\\\")) - 1)) & ~bytes32(uint256(0xff))\\n    bytes32 private constant Ownable2StepStorageLocation = 0x237e158222e3e6968b72b9db0d8043aacf074ad9f650f0d1606b4d82ee432c00;\\n\\n    function _getOwnable2StepStorage() private pure returns (Ownable2StepStorage storage $) {\\n        assembly {\\n            $.slot := Ownable2StepStorageLocation\\n        }\\n    }\\n\\n    event OwnershipTransferStarted(address indexed previousOwner, address indexed newOwner);\\n\\n    function __Ownable2Step_init() internal onlyInitializing {\\n    }\\n\\n    function __Ownable2Step_init_unchained() internal onlyInitializing {\\n    }\\n    /**\\n     * @dev Returns the address of the pending owner.\\n     */\\n    function pendingOwner() public view virtual returns (address) {\\n        Ownable2StepStorage storage $ = _getOwnable2StepStorage();\\n        return $._pendingOwner;\\n    }\\n\\n    /**\\n     * @dev Starts the ownership transfer of the contract to a new account. Replaces the pending transfer if there is one.\\n     * Can only be called by the current owner.\\n     *\\n     * Setting `newOwner` to the zero address is allowed; this can be used to cancel an initiated ownership transfer.\\n     */\\n    function transferOwnership(address newOwner) public virtual override onlyOwner {\\n        Ownable2StepStorage storage $ = _getOwnable2StepStorage();\\n        $._pendingOwner = newOwner;\\n        emit OwnershipTransferStarted(owner(), newOwner);\\n    }\\n\\n    /**\\n     * @dev Transfers ownership of the contract to a new account (`newOwner`) and deletes any pending owner.\\n     * Internal function without access restriction.\\n     */\\n    function _transferOwnership(address newOwner) internal virtual override {\\n        Ownable2StepStorage storage $ = _getOwnable2StepStorage();\\n        delete $._pendingOwner;\\n        super._transferOwnership(newOwner);\\n    }\\n\\n    /**\\n     * @dev The new owner accepts the ownership transfer.\\n     */\\n    function acceptOwnership() public virtual {\\n        address sender = _msgSender();\\n        if (pendingOwner() != sender) {\\n            revert OwnableUnauthorizedAccount(sender);\\n        }\\n        _transferOwnership(sender);\\n    }\\n}\\n\"},\"@openzeppelin/contracts-upgradeable/proxy/utils/Initializable.sol\":{\"content\":\"// SPDX-License-Identifier: MIT\\n// OpenZeppelin Contracts (last updated v5.0.0) (proxy/utils/Initializable.sol)\\n\\npragma solidity ^0.8.20;\\n\\n/**\\n * @dev This is a base contract to aid in writing upgradeable contracts, or any kind of contract that will be deployed\\n * behind a proxy. Since proxied contracts do not make use of a constructor, it's common to move constructor logic to an\\n * external initializer function, usually called `initialize`. It then becomes necessary to protect this initializer\\n * function so it can only be called once. The {initializer} modifier provided by this contract will have this effect.\\n *\\n * The initialization functions use a version number. Once a version number is used, it is consumed and cannot be\\n * reused. This mechanism prevents re-execution of each \\\"step\\\" but allows the creation of new initialization steps in\\n * case an upgrade adds a module that needs to be initialized.\\n *\\n * For example:\\n *\\n * [.hljs-theme-light.nopadding]\\n * ```solidity\\n * contract MyToken is ERC20Upgradeable {\\n *     function initialize() initializer public {\\n *         __ERC20_init(\\\"MyToken\\\", \\\"MTK\\\");\\n *     }\\n * }\\n *\\n * contract MyTokenV2 is MyToken, ERC20PermitUpgradeable {\\n *     function initializeV2() reinitializer(2) public {\\n *         __ERC20Permit_init(\\\"MyToken\\\");\\n *     }\\n * }\\n * ```\\n *\\n * TIP: To avoid leaving the proxy in an uninitialized state, the initializer function should be called as early as\\n * possible by providing the encoded function call as the `_data` argument to {ERC1967Proxy-constructor}.\\n *\\n * CAUTION: When used with inheritance, manual care must be taken to not invoke a parent initializer twice, or to ensure\\n * that all initializers are idempotent. This is not verified automatically as constructors are by Solidity.\\n *\\n * [CAUTION]\\n * ====\\n * Avoid leaving a contract uninitialized.\\n *\\n * An uninitialized contract can be taken over by an attacker. This applies to both a proxy and its implementation\\n * contract, which may impact the proxy. To prevent the implementation contract from being used, you should invoke\\n * the {_disableInitializers} function in the constructor to automatically lock it when it is deployed:\\n *\\n * [.hljs-theme-light.nopadding]\\n * ```\\n * /// @custom:oz-upgrades-unsafe-allow constructor\\n * constructor() {\\n *     _disableInitializers();\\n * }\\n * ```\\n * ====\\n */\\nabstract contract Initializable {\\n    /**\\n     * @dev Storage of the initializable contract.\\n     *\\n     * It's implemented on a custom ERC-7201 namespace to reduce the risk of storage collisions\\n     * when using with upgradeable contracts.\\n     *\\n     * @custom:storage-location erc7201:openzeppelin.storage.Initializable\\n     */\\n    struct InitializableStorage {\\n        /**\\n         * @dev Indicates that the contract has been initialized.\\n         */\\n        uint64 _initialized;\\n        /**\\n         * @dev Indicates that the contract is in the process of being initialized.\\n         */\\n        bool _initializing;\\n    }\\n\\n    // keccak256(abi.encode(uint256(keccak256(\\\"openzeppelin.storage.Initializable\\\")) - 1)) & ~bytes32(uint256(0xff))\\n    bytes32 private constant INITIALIZABLE_STORAGE = 0xf0c57e16840df040f15088dc2f81fe391c3923bec73e23a9662efc9c229c6a00;\\n\\n    /**\\n     * @dev The contract is already initialized.\\n     */\\n    error InvalidInitialization();\\n\\n    /**\\n     * @dev The contract is not initializing.\\n     */\\n    error NotInitializing();\\n\\n    /**\\n     * @dev Triggered when the contract has been initialized or reinitialized.\\n     */\\n    event Initialized(uint64 version);\\n\\n    /**\\n     * @dev A modifier that defines a protected initializer function that can be invoked at most once. In its scope,\\n     * `onlyInitializing` functions can be used to initialize parent contracts.\\n     *\\n     * Similar to `reinitializer(1)`, except that in the context of a constructor an `initializer` may be invoked any\\n     * number of times. This behavior in the constructor can be useful during testing and is not expected to be used in\\n     * production.\\n     *\\n     * Emits an {Initialized} event.\\n     */\\n    modifier initializer() {\\n        // solhint-disable-next-line var-name-mixedcase\\n        InitializableStorage storage $ = _getInitializableStorage();\\n\\n        // Cache values to avoid duplicated sloads\\n        bool isTopLevelCall = !$._initializing;\\n        uint64 initialized = $._initialized;\\n\\n        // Allowed calls:\\n        // - initialSetup: the contract is not in the initializing state and no previous version was\\n        //                 initialized\\n        // - construction: the contract is initialized at version 1 (no reininitialization) and the\\n        //                 current contract is just being deployed\\n        bool initialSetup = initialized == 0 && isTopLevelCall;\\n        bool construction = initialized == 1 && address(this).code.length == 0;\\n\\n        if (!initialSetup && !construction) {\\n            revert InvalidInitialization();\\n        }\\n        $._initialized = 1;\\n        if (isTopLevelCall) {\\n            $._initializing = true;\\n        }\\n        _;\\n        if (isTopLevelCall) {\\n            $._initializing = false;\\n            emit Initialized(1);\\n        }\\n    }\\n\\n    /**\\n     * @dev A modifier that defines a protected reinitializer function that can be invoked at most once, and only if the\\n     * contract hasn't been initialized to a greater version before. In its scope, `onlyInitializing` functions can be\\n     * used to initialize parent contracts.\\n     *\\n     * A reinitializer may be used after the original initialization step. This is essential to configure modules that\\n     * are added through upgrades and that require initialization.\\n     *\\n     * When `version` is 1, this modifier is similar to `initializer`, except that functions marked with `reinitializer`\\n     * cannot be nested. If one is invoked in the context of another, execution will revert.\\n     *\\n     * Note that versions can jump in increments greater than 1; this implies that if multiple reinitializers coexist in\\n     * a contract, executing them in the right order is up to the developer or operator.\\n     *\\n     * WARNING: Setting the version to 2**64 - 1 will prevent any future reinitialization.\\n     *\\n     * Emits an {Initialized} event.\\n     */\\n    modifier reinitializer(uint64 version) {\\n        // solhint-disable-next-line var-name-mixedcase\\n        InitializableStorage storage $ = _getInitializableStorage();\\n\\n        if ($._initializing || $._initialized >= version) {\\n            revert InvalidInitialization();\\n        }\\n        $._initialized = version;\\n        $._initializing = true;\\n        _;\\n        $._initializing = false;\\n        emit Initialized(version);\\n    }\\n\\n    /**\\n     * @dev Modifier to protect an initialization function so that it can only be invoked by functions with the\\n     * {initializer} and {reinitializer} modifiers, directly or indirectly.\\n     */\\n    modifier onlyInitializing() {\\n        _checkInitializing();\\n        _;\\n    }\\n\\n    /**\\n     * @dev Reverts if the contract is not in an initializing state. See {onlyInitializing}.\\n     */\\n    function _checkInitializing() internal view virtual {\\n        if (!_isInitializing()) {\\n            revert NotInitializing();\\n        }\\n    }\\n\\n    /**\\n     * @dev Locks the contract, preventing any future reinitialization. This cannot be part of an initializer call.\\n     * Calling this in the constructor of a contract will prevent that contract from being initialized or reinitialized\\n     * to any version. It is recommended to use this to lock implementation contracts that are designed to be called\\n     * through proxies.\\n     *\\n     * Emits an {Initialized} event the first time it is successfully executed.\\n     */\\n    function _disableInitializers() internal virtual {\\n        // solhint-disable-next-line var-name-mixedcase\\n        InitializableStorage storage $ = _getInitializableStorage();\\n\\n        if ($._initializing) {\\n            revert InvalidInitialization();\\n        }\\n        if ($._initialized != type(uint64).max) {\\n            $._initialized = type(uint64).max;\\n            emit Initialized(type(uint64).max);\\n        }\\n    }\\n\\n    /**\\n     * @dev Returns the highest version that has been initialized. See {reinitializer}.\\n     */\\n    function _getInitializedVersion() internal view returns (uint64) {\\n        return _getInitializableStorage()._initialized;\\n    }\\n\\n    /**\\n     * @dev Returns `true` if the contract is currently initializing. See {onlyInitializing}.\\n     */\\n    function _isInitializing() internal view returns (bool) {\\n        return _getInitializableStorage()._initializing;\\n    }\\n\\n    /**\\n     * @dev Returns a pointer to the storage namespace.\\n     */\\n    // solhint-disable-next-line var-name-mixedcase\\n    function _getInitializableStorage() private pure returns (InitializableStorage storage $) {\\n        assembly {\\n            $.slot := INITIALIZABLE_STORAGE\\n        }\\n    }\\n}\\n\"},\"@openzeppelin/contracts-upgradeable/access/OwnableUpgradeable.sol\":{\"content\":\"// SPDX-License-Identifier: MIT\\n// OpenZeppelin Contracts (last updated v5.0.0) (access/Ownable.sol)\\n\\npragma solidity ^0.8.20;\\n\\nimport {ContextUpgradeable} from \\\"../utils/ContextUpgradeable.sol\\\";\\nimport {Initializable} from \\\"../proxy/utils/Initializable.sol\\\";\\n\\n/**\\n * @dev Contract module which provides a basic access control mechanism, where\\n * there is an account (an owner) that can be granted exclusive access to\\n * specific functions.\\n *\\n * The initial owner is set to the address provided by the deployer. This can\\n * later be changed with {transferOwnership}.\\n *\\n * This module is used through inheritance. It will make available the modifier\\n * `onlyOwner`, which can be applied to your functions to restrict their use to\\n * the owner.\\n */\\nabstract contract OwnableUpgradeable is Initializable, ContextUpgradeable {\\n    /// @custom:storage-location erc7201:openzeppelin.storage.Ownable\\n    struct OwnableStorage {\\n        address _owner;\\n    }\\n\\n    // keccak256(abi.encode(uint256(keccak256(\\\"openzeppelin.storage.Ownable\\\")) - 1)) & ~bytes32(uint256(0xff))\\n    bytes32 private constant OwnableStorageLocation = 0x9016d09d72d40fdae2fd8ceac6b6234c7706214fd39c1cd1e609a0528c199300;\\n\\n    function _getOwnableStorage() private pure returns (OwnableStorage storage $) {\\n        assembly {\\n            $.slot := OwnableStorageLocation\\n        }\\n    }\\n\\n    /**\\n     * @dev The caller account is not authorized to perform an operation.\\n     */\\n    error OwnableUnauthorizedAccount(address account);\\n\\n    /**\\n     * @dev The owner is not a valid owner account. (eg. `address(0)`)\\n     */\\n    error OwnableInvalidOwner(address owner);\\n\\n    event OwnershipTransferred(address indexed previousOwner, address indexed newOwner);\\n\\n    /**\\n     * @dev Initializes the contract setting the address provided by the deployer as the initial owner.\\n     */\\n    function __Ownable_init(address initialOwner) internal onlyInitializing {\\n        __Ownable_init_unchained(initialOwner);\\n    }\\n\\n    function __Ownable_init_unchained(address initialOwner) internal onlyInitializing {\\n        if (initialOwner == address(0)) {\\n            revert OwnableInvalidOwner(address(0));\\n        }\\n        _transferOwnership(initialOwner);\\n    }\\n\\n    /**\\n     * @dev Throws if called by any account other than the owner.\\n     */\\n    modifier onlyOwner() {\\n        _checkOwner();\\n        _;\\n    }\\n\\n    /**\\n     * @dev Returns the address of the current owner.\\n     */\\n    function owner() public view virtual returns (address) {\\n        OwnableStorage storage $ = _getOwnableStorage();\\n        return $._owner;\\n    }\\n\\n    /**\\n     * @dev Throws if the sender is not the owner.\\n     */\\n    function _checkOwner() internal view virtual {\\n        if (owner() != _msgSender()) {\\n            revert OwnableUnauthorizedAccount(_msgSender());\\n        }\\n    }\\n\\n    /**\\n     * @dev Leaves the contract without owner. It will not be possible to call\\n     * `onlyOwner` functions. Can only be called by the current owner.\\n     *\\n     * NOTE: Renouncing ownership will leave the contract without an owner,\\n     * thereby disabling any functionality that is only available to the owner.\\n     */\\n    function renounceOwnership() public virtual onlyOwner {\\n        _transferOwnership(address(0));\\n    }\\n\\n    /**\\n     * @dev Transfers ownership of the contract to a new account (`newOwner`).\\n     * Can only be called by the current owner.\\n     */\\n    function transferOwnership(address newOwner) public virtual onlyOwner {\\n        if (newOwner == address(0)) {\\n            revert OwnableInvalidOwner(address(0));\\n        }\\n        _transferOwnership(newOwner);\\n    }\\n\\n    /**\\n     * @dev Transfers ownership of the contract to a new account (`newOwner`).\\n     * Internal function without access restriction.\\n     */\\n    function _transferOwnership(address newOwner) internal virtual {\\n        OwnableStorage storage $ = _getOwnableStorage();\\n        address oldOwner = $._owner;\\n        $._owner = newOwner;\\n        emit OwnershipTransferred(oldOwner, newOwner);\\n    }\\n}\\n\"},\".deps/npm/@iden3/contracts/lib/VerifierLib.sol\":{\"content\":\"// SPDX-License-Identifier: GPL-3.0\\npragma solidity 0.8.27;\\n\\nimport {ZKPVerifierBase} from \\\"../verifiers/ZKPVerifierBase.sol\\\";\\nimport {ICircuitValidator} from \\\"../interfaces/ICircuitValidator.sol\\\";\\n\\n/**\\n * @title VerifierLib\\n * @dev A library for writing proof results.\\n */\\nlibrary VerifierLib {\\n    /// @dev Struct to store ZKP proof and associated data\\n    struct Proof {\\n        bool isVerified;\\n        mapping(string key => uint256 inputValue) storageFields;\\n        string validatorVersion;\\n        uint256 blockNumber;\\n        uint256 blockTimestamp;\\n        mapping(string key => bytes) metadata;\\n    }\\n\\n    /**\\n     * @dev Writes proof results.\\n     * @param self The ZKPVerifierStorage storage pointer\\n     * @param sender The sender of the proof\\n     * @param requestId The request ID\\n     * @param keyToInpIdxs The array of key to public inputs index mapping\\n     * @param inputs The array of public inputs\\n     */\\n    function writeProofResults(\\n        ZKPVerifierBase.ZKPVerifierStorage storage self,\\n        address sender,\\n        uint64 requestId,\\n        ICircuitValidator.KeyToInputIndex[] memory keyToInpIdxs,\\n        uint256[] memory inputs\\n    ) public {\\n        Proof storage proof = self._proofs[sender][requestId];\\n        for (uint256 i = 0; i < keyToInpIdxs.length; i++) {\\n            proof.storageFields[keyToInpIdxs[i].key] = inputs[keyToInpIdxs[i].inputIndex];\\n        }\\n\\n        proof.isVerified = true;\\n        proof.validatorVersion = self._requests[requestId].validator.version();\\n        proof.blockNumber = block.number;\\n        proof.blockTimestamp = block.timestamp;\\n    }\\n\\n    /**\\n     * @dev Writes proof results.\\n     * @param self The ZKPVerifierStorage storage pointer\\n     * @param sender The sender of the proof\\n     * @param requestId The request ID of the proof\\n     * @param signals The array of public signals of the proof\\n     */\\n    function writeProofResultsV2(\\n        ZKPVerifierBase.ZKPVerifierStorage storage self,\\n        address sender,\\n        uint64 requestId,\\n        ICircuitValidator.Signal[] memory signals\\n    ) public {\\n        Proof storage proof = self._proofs[sender][requestId];\\n        for (uint256 i = 0; i < signals.length; i++) {\\n            proof.storageFields[signals[i].name] = signals[i].value;\\n        }\\n\\n        proof.isVerified = true;\\n        proof.validatorVersion = self._requests[requestId].validator.version();\\n        proof.blockNumber = block.number;\\n        proof.blockTimestamp = block.timestamp;\\n    }\\n}\\n\"},\"@openzeppelin/contracts-upgradeable/utils/ContextUpgradeable.sol\":{\"content\":\"// SPDX-License-Identifier: MIT\\n// OpenZeppelin Contracts (last updated v5.0.1) (utils/Context.sol)\\n\\npragma solidity ^0.8.20;\\nimport {Initializable} from \\\"../proxy/utils/Initializable.sol\\\";\\n\\n/**\\n * @dev Provides information about the current execution context, including the\\n * sender of the transaction and its data. While these are generally available\\n * via msg.sender and msg.data, they should not be accessed in such a direct\\n * manner, since when dealing with meta-transactions the account sending and\\n * paying for execution may not be the actual sender (as far as an application\\n * is concerned).\\n *\\n * This contract is only required for intermediate, library-like contracts.\\n */\\nabstract contract ContextUpgradeable is Initializable {\\n    function __Context_init() internal onlyInitializing {\\n    }\\n\\n    function __Context_init_unchained() internal onlyInitializing {\\n    }\\n    function _msgSender() internal view virtual returns (address) {\\n        return msg.sender;\\n    }\\n\\n    function _msgData() internal view virtual returns (bytes calldata) {\\n        return msg.data;\\n    }\\n\\n    function _contextSuffixLength() internal view virtual returns (uint256) {\\n        return 0;\\n    }\\n}\\n\"},\".deps/npm/@iden3/contracts/lib/ArrayUtils.sol\":{\"content\":\"// SPDX-License-Identifier: GPL-3.0\\npragma solidity 0.8.27;\\n\\n/// @title A common functions for arrays.\\nlibrary ArrayUtils {\\n    /**\\n     * @dev Calculates bounds for the slice of the array.\\n     * @param arrLength An array length.\\n     * @param start A start index.\\n     * @param length A length of the slice.\\n     * @param limit A limit for the length.\\n     * @return The bounds for the slice of the array.\\n     */\\n    function calculateBounds(\\n        uint256 arrLength,\\n        uint256 start,\\n        uint256 length,\\n        uint256 limit\\n    ) internal pure returns (uint256, uint256) {\\n        require(length > 0, \\\"Length should be greater than 0\\\");\\n        require(length <= limit, \\\"Length limit exceeded\\\");\\n        require(start < arrLength, \\\"Start index out of bounds\\\");\\n\\n        uint256 end = start + length;\\n        if (end > arrLength) {\\n            end = arrLength;\\n        }\\n\\n        return (start, end);\\n    }\\n}\\n\"},\"@openzeppelin/contracts/utils/introspection/IERC165.sol\":{\"content\":\"// SPDX-License-Identifier: MIT\\n// OpenZeppelin Contracts (last updated v5.1.0) (utils/introspection/IERC165.sol)\\n\\npragma solidity ^0.8.20;\\n\\n/**\\n * @dev Interface of the ERC-165 standard, as defined in the\\n * https://eips.ethereum.org/EIPS/eip-165[ERC].\\n *\\n * Implementers can declare support of contract interfaces, which can then be\\n * queried by others ({ERC165Checker}).\\n *\\n * For an implementation, see {ERC165}.\\n */\\ninterface IERC165 {\\n    /**\\n     * @dev Returns true if this contract implements the interface defined by\\n     * `interfaceId`. See the corresponding\\n     * https://eips.ethereum.org/EIPS/eip-165#how-interfaces-are-identified[ERC section]\\n     * to learn more about how these ids are created.\\n     *\\n     * This function call must use less than 30 000 gas.\\n     */\\n    function supportsInterface(bytes4 interfaceId) external view returns (bool);\\n}\\n\"}},\"settings\":{\"optimizer\":{\"enabled\":false,\"runs\":200},\"outputSelection\":{\"*\":{\"\":[\"ast\"],\"*\":[\"abi\",\"metadata\",\"devdoc\",\"userdoc\",\"storageLayout\",\"evm.legacyAssembly\",\"evm.bytecode\",\"evm.deployedBytecode\",\"evm.methodIdentifiers\",\"evm.gasEstimates\",\"evm.assembly\"]}},\"remappings\":[]}}",
	"name": "UniversalVerifier",
	"bytecode": {
		"linkReferences": {
			".deps/npm/@iden3/contracts/lib/VerifierLib.sol": {
				"VerifierLib": [
					{
						"length": 20,
						"start": 9653
					},
					{
						"length": 20,
						"start": 12434
					}
				]
			}
		},
		"object": "6080604052348015600e575f5ffd5b50615c998061001c5f395ff3fe608060405234801561000f575f5ffd5b50600436106101e3575f3560e01c8063715018a61161010d578063ade09fcd116100a0578063d48580511161006f578063d485805114610575578063e30c3978146105a5578063f2fde38b146105c3578063ffa1ad74146105df576101e3565b8063ade09fcd146104f1578063b68967e21461050d578063c76d084514610529578063c9c23ea514610559576101e3565b80638da5cb5b116100dc5780638da5cb5b146104575780639b36d036146104755780639f5223e0146104a5578063ab7bcfb7146104c1576101e3565b8063715018a6146103f757806379ba50971461040157806382aff29f1461040b5780638c1da2c914610427576101e3565b806349555fb1116101855780635f9e60d7116101545780635f9e60d71461035d578063617879fe1461038d5780636508e1b4146103a95780636f2477ad146103c7576101e3565b806349555fb1146102c35780635176983b146102f357806354fd4d501461032357806359f871a114610341576101e3565b806330def4ac116101c157806330def4ac1461025157806331969e571461026d57806334c901af1461028b578063485cc955146102a7576101e3565b80630106a959146101e7578063130a73ac146102035780631905e7b114610233575b5f5ffd5b61020160048036038101906101fc9190613216565b6105fd565b005b61021d600480360381019061021891906132b0565b610817565b60405161022a91906132f5565b60405180910390f35b61023b6108fc565b6040516102489190613326565b60405180910390f35b61026b600480360381019061026691906132b0565b610902565b005b6102756109cf565b604051610282919061334e565b60405180910390f35b6102a560048036038101906102a091906133a2565b610a00565b005b6102c160048036038101906102bc91906133cd565b610a14565b005b6102dd60048036038101906102d8919061340b565b610b9f565b6040516102ea91906132f5565b60405180910390f35b61030d60048036038101906103089190613717565b610cc1565b60405161031a9190613923565b60405180910390f35b61032b610cdd565b604051610338919061398b565b60405180910390f35b61035b600480360381019061035691906139e6565b610d1a565b005b61037760048036038101906103729190613a11565b610d2e565b6040516103849190613c0b565b60405180910390f35b6103a760048036038101906103a291906139e6565b610fec565b005b6103b1611000565b6040516103be9190613326565b60405180910390f35b6103e160048036038101906103dc91906132b0565b611015565b6040516103ee919061334e565b60405180910390f35b6103ff61110c565b005b61040961111f565b005b610425600480360381019061042091906132b0565b6111ad565b005b610441600480360381019061043c919061340b565b61127a565b60405161044e9190613c9a565b60405180910390f35b61045f61145c565b60405161046c919061334e565b60405180910390f35b61048f600480360381019061048a91906139e6565b611491565b60405161049c91906132f5565b60405180910390f35b6104bf60048036038101906104ba9190613cdc565b6114eb565b005b6104db60048036038101906104d691906132b0565b61158e565b6040516104e891906132f5565b60405180910390f35b61050b60048036038101906105069190613f65565b611616565b005b61052760048036038101906105229190613fdb565b6116b2565b005b610543600480360381019061053e91906132b0565b61171b565b60405161055091906140c4565b60405180910390f35b610573600480360381019061056e91906140e4565b611979565b005b61058f600480360381019061058a91906141c0565b611a48565b60405161059c9190613326565b60405180910390f35b6105ad611b7c565b6040516105ba919061334e565b60405180910390f35b6105dd60048036038101906105d8919061422c565b611bb1565b005b6105e7611c6a565b6040516105f4919061398b565b60405180910390f35b60018282905011610643576040517f08c379a000000000000000000000000000000000000000000000000000000000815260040161063a906142c7565b60405180910390fd5b5f6106ab8484845f81811061065b5761065a6142e5565b5b905060200201602081019061067091906132b0565b6040518060400160405280600681526020017f6c696e6b49440000000000000000000000000000000000000000000000000000815250611a48565b90505f81036106ef576040517f08c379a00000000000000000000000000000000000000000000000000000000081526004016106e690614382565b60405180910390fd5b5f600190505b83839050811015610810575f61076886868685818110610718576107176142e5565b5b905060200201602081019061072d91906132b0565b6040518060400160405280600681526020017f6c696e6b49440000000000000000000000000000000000000000000000000000815250611a48565b90508083146108025784845f818110610784576107836142e5565b5b905060200201602081019061079991906132b0565b838686858181106107ad576107ac6142e5565b5b90506020020160208101906107c291906132b0565b836040517f0cb82c030000000000000000000000000000000000000000000000000000000081526004016107f994939291906143f9565b60405180910390fd5b5080806001019150506106f5565b5050505050565b5f816001801561086e5761082a8261158e565b610869576040517f08c379a000000000000000000000000000000000000000000000000000000000815260040161086090614499565b60405180910390fd5b6108b8565b6108778261158e565b156108b7576040517f08c379a00000000000000000000000000000000000000000000000000000000081526004016108ae90614501565b60405180910390fd5b5b6108c0611ca3565b5f015f8567ffffffffffffffff1667ffffffffffffffff1681526020019081526020015f205f9054906101000a900460ff161592505050919050565b6103e881565b805f61090c611cca565b905061091782611015565b73ffffffffffffffffffffffffffffffffffffffff168173ffffffffffffffffffffffffffffffffffffffff161480610982575061095361145c565b73ffffffffffffffffffffffffffffffffffffffff168173ffffffffffffffffffffffffffffffffffffffff16145b6109c1576040517f08c379a00000000000000000000000000000000000000000000000000000000081526004016109b890614569565b60405180910390fd5b6109ca83611cd1565b505050565b5f6109d8611dba565b6003015f9054906101000a900473ffffffffffffffffffffffffffffffffffffffff16905090565b610a08611de1565b610a1181611e68565b50565b5f610a1d611eb4565b90505f815f0160089054906101000a900460ff161590505f825f015f9054906101000a900467ffffffffffffffff1690505f5f8267ffffffffffffffff16148015610a655750825b90505f60018367ffffffffffffffff16148015610a9857505f3073ffffffffffffffffffffffffffffffffffffffff163b145b905081158015610aa6575080155b15610add576040517ff92ee8a900000000000000000000000000000000000000000000000000000000815260040160405180910390fd5b6001855f015f6101000a81548167ffffffffffffffff021916908367ffffffffffffffff1602179055508315610b2a576001855f0160086101000a81548160ff0219169083151502179055505b610b3386611edb565b610b3c87611eef565b8315610b96575f855f0160086101000a81548160ff0219169083151502179055507fc7f505b2f371ae2175ee4913f4499e1f2633a7b5936321eed1cdaeb6115181d26001604051610b8d91906145c0565b60405180910390a15b50505050505050565b5f8160018015610bf657610bb28261158e565b610bf1576040517f08c379a0000000000000000000000000000000000000000000000000000000008152600401610be890614499565b60405180910390fd5b610c40565b610bff8261158e565b15610c3f576040517f08c379a0000000000000000000000000000000000000000000000000000000008152600401610c3690614501565b60405180910390fd5b5b610c48611dba565b5f015f8673ffffffffffffffffffffffffffffffffffffffff1673ffffffffffffffffffffffffffffffffffffffff1681526020019081526020015f205f8567ffffffffffffffff1667ffffffffffffffff1681526020019081526020015f205f015f9054906101000a900460ff169250505092915050565b6060610cd1878787878787611f03565b90509695505050505050565b60606040518060400160405280600581526020017f312e312e31000000000000000000000000000000000000000000000000000000815250905090565b610d22611de1565b610d2b81611f78565b50565b60605f610d39611dba565b90505f5f610d52836002018054905087876103e86120af565b915091505f8282610d639190614606565b67ffffffffffffffff811115610d7c57610d7b613459565b5b604051908082528060200260200182016040528015610db557816020015b610da26130ed565b815260200190600190039081610d9a5790505b5090505f8390505b82811015610fde57846001015f866002018381548110610de057610ddf6142e5565b5b905f5260205f2090600491828204019190066008029054906101000a900467ffffffffffffffff1667ffffffffffffffff1667ffffffffffffffff1681526020019081526020015f206040518060600160405290815f82018054610e4390614666565b80601f0160208091040260200160405190810160405280929190818152602001828054610e6f90614666565b8015610eba5780601f10610e9157610100808354040283529160200191610eba565b820191905f5260205f20905b815481529060010190602001808311610e9d57829003601f168201915b50505050508152602001600182015f9054906101000a900473ffffffffffffffffffffffffffffffffffffffff1673ffffffffffffffffffffffffffffffffffffffff1673ffffffffffffffffffffffffffffffffffffffff168152602001600282018054610f2890614666565b80601f0160208091040260200160405190810160405280929190818152602001828054610f5490614666565b8015610f9f5780601f10610f7657610100808354040283529160200191610f9f565b820191905f5260205f20905b815481529060010190602001808311610f8257829003601f168201915b505050505081525050828583610fb59190614606565b81518110610fc657610fc56142e5565b5b60200260200101819052508080600101915050610dbd565b508094505050505092915050565b610ff4611de1565b610ffd816121a3565b50565b5f611009611dba565b60020180549050905090565b5f816001801561106c576110288261158e565b611067576040517f08c379a000000000000000000000000000000000000000000000000000000000815260040161105e90614499565b60405180910390fd5b6110b6565b6110758261158e565b156110b5576040517f08c379a00000000000000000000000000000000000000000000000000000000081526004016110ac90614501565b60405180910390fd5b5b6110be612202565b5f015f8567ffffffffffffffff1667ffffffffffffffff1681526020019081526020015f205f9054906101000a900473ffffffffffffffffffffffffffffffffffffffff1692505050919050565b611114611de1565b61111d5f612229565b565b5f611128611cca565b90508073ffffffffffffffffffffffffffffffffffffffff16611149611b7c565b73ffffffffffffffffffffffffffffffffffffffff16146111a157806040517f118cdaa7000000000000000000000000000000000000000000000000000000008152600401611198919061334e565b60405180910390fd5b6111aa81612229565b50565b805f6111b7611cca565b90506111c282611015565b73ffffffffffffffffffffffffffffffffffffffff168173ffffffffffffffffffffffffffffffffffffffff16148061122d57506111fe61145c565b73ffffffffffffffffffffffffffffffffffffffff168173ffffffffffffffffffffffffffffffffffffffff16145b61126c576040517f08c379a000000000000000000000000000000000000000000000000000000000815260040161126390614569565b60405180910390fd5b61127583612266565b505050565b611282613123565b81600180156112d8576112948261158e565b6112d3576040517f08c379a00000000000000000000000000000000000000000000000000000000081526004016112ca90614499565b60405180910390fd5b611322565b6112e18261158e565b15611321576040517f08c379a000000000000000000000000000000000000000000000000000000000815260040161131890614501565b60405180910390fd5b5b5f61132b611dba565b5f015f8773ffffffffffffffffffffffffffffffffffffffff1673ffffffffffffffffffffffffffffffffffffffff1681526020019081526020015f205f8667ffffffffffffffff1667ffffffffffffffff1681526020019081526020015f2090506040518060800160405280825f015f9054906101000a900460ff16151581526020018260020180546113be90614666565b80601f01602080910402602001604051908101604052809291908181526020018280546113ea90614666565b80156114355780601f1061140c57610100808354040283529160200191611435565b820191905f5260205f20905b81548152906001019060200180831161141857829003601f168201915b50505050508152602001826003015481526020018260040154815250935050505092915050565b5f5f611466612350565b9050805f015f9054906101000a900473ffffffffffffffffffffffffffffffffffffffff1691505090565b5f61149a612377565b5f015f8373ffffffffffffffffffffffffffffffffffffffff1673ffffffffffffffffffffffffffffffffffffffff1681526020019081526020015f205f9054906101000a900460ff169050919050565b6114f5828261239e565b6114fd611cca565b73ffffffffffffffffffffffffffffffffffffffff168267ffffffffffffffff167f26db2c5d21d517fa8c11af3ae555af7f4a560b9f70a5a32e73e6cd94d0cae3e883805f019061154e91906146a2565b85602001602081019061156191906139e6565b8680604001906115719190614704565b6040516115829594939291906147ce565b60405180910390a35050565b5f5f73ffffffffffffffffffffffffffffffffffffffff166115ae611dba565b6001015f8467ffffffffffffffff1667ffffffffffffffff1681526020019081526020015f206001015f9054906101000a900473ffffffffffffffffffffffffffffffffffffffff1673ffffffffffffffffffffffffffffffffffffffff1614159050919050565b6116208282612408565b5f5f90505b82518110156116ad57611636611cca565b73ffffffffffffffffffffffffffffffffffffffff1683828151811061165f5761165e6142e5565b5b60200260200101515f015167ffffffffffffffff167f6979bc9c3e552c05dd9859285f1ed7a172e52ef39e1dce9c720e5bf8d82c9f4c60405160405180910390a38080600101915050611625565b505050565b6116bf8585858585612663565b6116c7611cca565b73ffffffffffffffffffffffffffffffffffffffff168567ffffffffffffffff167f6979bc9c3e552c05dd9859285f1ed7a172e52ef39e1dce9c720e5bf8d82c9f4c60405160405180910390a35050505050565b6117236130ed565b8160018015611779576117358261158e565b611774576040517f08c379a000000000000000000000000000000000000000000000000000000000815260040161176b90614499565b60405180910390fd5b6117c3565b6117828261158e565b156117c2576040517f08c379a00000000000000000000000000000000000000000000000000000000081526004016117b990614501565b60405180910390fd5b5b6117cb611dba565b6001015f8567ffffffffffffffff1667ffffffffffffffff1681526020019081526020015f206040518060600160405290815f8201805461180b90614666565b80601f016020809104026020016040519081016040528092919081815260200182805461183790614666565b80156118825780601f1061185957610100808354040283529160200191611882565b820191905f5260205f20905b81548152906001019060200180831161186557829003601f168201915b50505050508152602001600182015f9054906101000a900473ffffffffffffffffffffffffffffffffffffffff1673ffffffffffffffffffffffffffffffffffffffff1673ffffffffffffffffffffffffffffffffffffffff1681526020016002820180546118f090614666565b80601f016020809104026020016040519081016040528092919081815260200182805461191c90614666565b80156119675780601f1061193e57610100808354040283529160200191611967565b820191905f5260205f20905b81548152906001019060200180831161194a57829003601f168201915b50505050508152505092505050919050565b815f611983611cca565b905061198e82611015565b73ffffffffffffffffffffffffffffffffffffffff168173ffffffffffffffffffffffffffffffffffffffff1614806119f957506119ca61145c565b73ffffffffffffffffffffffffffffffffffffffff168173ffffffffffffffffffffffffffffffffffffffff16145b611a38576040517f08c379a0000000000000000000000000000000000000000000000000000000008152600401611a2f90614569565b60405180910390fd5b611a4284846126d0565b50505050565b5f8260018015611a9f57611a5b8261158e565b611a9a576040517f08c379a0000000000000000000000000000000000000000000000000000000008152600401611a9190614499565b60405180910390fd5b611ae9565b611aa88261158e565b15611ae8576040517f08c379a0000000000000000000000000000000000000000000000000000000008152600401611adf90614501565b60405180910390fd5b5b611af1611dba565b5f015f8773ffffffffffffffffffffffffffffffffffffffff1673ffffffffffffffffffffffffffffffffffffffff1681526020019081526020015f205f8667ffffffffffffffff1667ffffffffffffffff1681526020019081526020015f2060010184604051611b62919061484f565b908152602001604051809103902054925050509392505050565b5f5f611b866127e6565b9050805f015f9054906101000a900473ffffffffffffffffffffffffffffffffffffffff1691505090565b611bb9611de1565b5f611bc26127e6565b905081815f015f6101000a81548173ffffffffffffffffffffffffffffffffffffffff021916908373ffffffffffffffffffffffffffffffffffffffff1602179055508173ffffffffffffffffffffffffffffffffffffffff16611c2461145c565b73ffffffffffffffffffffffffffffffffffffffff167f38d16b8cac22d99fc7c124b9cd0de2d3fa1faef420bfe791d8c362d765e2270060405160405180910390a35050565b6040518060400160405280600581526020017f312e312e3100000000000000000000000000000000000000000000000000000081525081565b5f7f70325635d67d74932012fa921ccb2f335d3b1d69e3a487f50d001cc65f531600905090565b5f33905090565b8060018015611d2757611ce38261158e565b611d22576040517f08c379a0000000000000000000000000000000000000000000000000000000008152600401611d1990614499565b60405180910390fd5b611d71565b611d308261158e565b15611d70576040517f08c379a0000000000000000000000000000000000000000000000000000000008152600401611d6790614501565b60405180910390fd5b5b5f611d7a611ca3565b5f015f8567ffffffffffffffff1667ffffffffffffffff1681526020019081526020015f205f6101000a81548160ff021916908315150217905550505050565b5f7f512d18c55869273fec77e70d8a8586e3fb133e90f1db24c6bcf4ff3506ef6a00905090565b611de9611cca565b73ffffffffffffffffffffffffffffffffffffffff16611e0761145c565b73ffffffffffffffffffffffffffffffffffffffff1614611e6657611e2a611cca565b6040517f118cdaa7000000000000000000000000000000000000000000000000000000008152600401611e5d919061334e565b60405180910390fd5b565b80611e71611dba565b6003015f6101000a81548173ffffffffffffffffffffffffffffffffffffffff021916908373ffffffffffffffffffffffffffffffffffffffff16021790555050565b5f7ff0c57e16840df040f15088dc2f81fe391c3923bec73e23a9662efc9c229c6a00905090565b611ee361280d565b611eec8161284d565b50565b611ef761280d565b611f00816128d1565b50565b60605f611f0f8861171b565b602001519050611f1e81611491565b611f5d576040517f08c379a0000000000000000000000000000000000000000000000000000000008152600401611f54906148af565b60405180910390fd5b611f6b8888888888886128e5565b9150509695505050505050565b8073ffffffffffffffffffffffffffffffffffffffff166301ffc9a77f39db6a48000000000000000000000000000000000000000000000000000000006040518263ffffffff1660e01b8152600401611fd19190614907565b602060405180830381865afa158015611fec573d5f5f3e3d5ffd5b505050506040513d601f19601f82011682018060405250810190612010919061494a565b61204f576040517f08c379a0000000000000000000000000000000000000000000000000000000008152600401612046906149e5565b60405180910390fd5b6001612059612377565b5f015f8373ffffffffffffffffffffffffffffffffffffffff1673ffffffffffffffffffffffffffffffffffffffff1681526020019081526020015f205f6101000a81548160ff02191690831515021790555050565b5f5f5f84116120f3576040517f08c379a00000000000000000000000000000000000000000000000000000000081526004016120ea90614a4d565b60405180910390fd5b82841115612136576040517f08c379a000000000000000000000000000000000000000000000000000000000815260040161212d90614ab5565b60405180910390fd5b858510612178576040517f08c379a000000000000000000000000000000000000000000000000000000000815260040161216f90614b1d565b60405180910390fd5b5f84866121859190614b3b565b905086811115612193578690505b8581925092505094509492505050565b5f6121ac612377565b5f015f8373ffffffffffffffffffffffffffffffffffffffff1673ffffffffffffffffffffffffffffffffffffffff1681526020019081526020015f205f6101000a81548160ff02191690831515021790555050565b5f7f6209bdc3799f5201408f7a7d4d471bb2a0100353e618451674b93f730b006a00905090565b5f6122326127e6565b9050805f015f6101000a81549073ffffffffffffffffffffffffffffffffffffffff02191690556122628261294b565b5050565b80600180156122bc576122788261158e565b6122b7576040517f08c379a00000000000000000000000000000000000000000000000000000000081526004016122ae90614499565b60405180910390fd5b612306565b6122c58261158e565b15612305576040517f08c379a00000000000000000000000000000000000000000000000000000000081526004016122fc90614501565b60405180910390fd5b5b6001612310611ca3565b5f015f8567ffffffffffffffff1667ffffffffffffffff1681526020019081526020015f205f6101000a81548160ff021916908315150217905550505050565b5f7f9016d09d72d40fdae2fd8ceac6b6234c7706214fd39c1cd1e609a0528c199300905090565b5f7f76aa24e3538905838cc74060b2aa4c054b1e474aacf44741879e1850715e9300905090565b8060200160208101906123b191906139e6565b6123ba81611491565b6123f9576040517f08c379a00000000000000000000000000000000000000000000000000000000081526004016123f0906148af565b60405180910390fd5b6124038383612a1c565b505050565b5f612411611dba565b9050806003015f9054906101000a900473ffffffffffffffffffffffffffffffffffffffff1673ffffffffffffffffffffffffffffffffffffffff1663e28d24b0836040518263ffffffff1660e01b815260040161246f9190614ba6565b5f604051808303815f87803b158015612486575f5ffd5b505af1158015612498573d5f5f3e3d5ffd5b505050505f5f90505b835181101561265d575f8482815181106124be576124bd6142e5565b5b602002602001015190505f6124d1611cca565b90505f6124e0835f015161171b565b90505f816020015173ffffffffffffffffffffffffffffffffffffffff1663d6614a6b85602001518460400151868a6003015f9054906101000a900473ffffffffffffffffffffffffffffffffffffffff166040518563ffffffff1660e01b81526004016125519493929190614be6565b5f604051808303815f875af115801561256c573d5f5f3e3d5ffd5b505050506040513d5f823e3d601f19601f820116820180604052508101906125949190614e00565b90508573__$dbf1feab564eff82403e197ef29e496d33$__63b2394c60909185875f0151856040518563ffffffff1660e01b81526004016125d89493929190614fb8565b5f6040518083038186803b1580156125ee575f5ffd5b505af4158015612600573d5f5f3e3d5ffd5b505050505f846040015151111561264c576040517f08c379a00000000000000000000000000000000000000000000000000000000081526004016126439061504c565b60405180910390fd5b5050505080806001019150506124a1565b50505050565b5f61266d8661171b565b60200151905061267c81611491565b6126bb576040517f08c379a00000000000000000000000000000000000000000000000000000000081526004016126b2906148af565b60405180910390fd5b6126c88686868686612a3b565b505050505050565b8160018015612726576126e28261158e565b612721576040517f08c379a000000000000000000000000000000000000000000000000000000000815260040161271890614499565b60405180910390fd5b612770565b61272f8261158e565b1561276f576040517f08c379a000000000000000000000000000000000000000000000000000000000815260040161276690614501565b60405180910390fd5b5b5f612779612202565b905083815f015f8767ffffffffffffffff1667ffffffffffffffff1681526020019081526020015f205f6101000a81548173ffffffffffffffffffffffffffffffffffffffff021916908373ffffffffffffffffffffffffffffffffffffffff1602179055505050505050565b5f7f237e158222e3e6968b72b9db0d8043aacf074ad9f650f0d1606b4d82ee432c00905090565b612815612a99565b61284b576040517fd7e6bcf800000000000000000000000000000000000000000000000000000000815260040160405180910390fd5b565b61285561280d565b5f73ffffffffffffffffffffffffffffffffffffffff168173ffffffffffffffffffffffffffffffffffffffff16036128c5575f6040517f1e4fbdf70000000000000000000000000000000000000000000000000000000081526004016128bc919061334e565b60405180910390fd5b6128ce81612229565b50565b6128d961280d565b6128e281611e68565b50565b6060866128f181610817565b612930576040517f08c379a0000000000000000000000000000000000000000000000000000000008152600401612927906150b4565b60405180910390fd5b61293e888888888888612ab7565b9150509695505050505050565b5f612954612350565b90505f815f015f9054906101000a900473ffffffffffffffffffffffffffffffffffffffff16905082825f015f6101000a81548173ffffffffffffffffffffffffffffffffffffffff021916908373ffffffffffffffffffffffffffffffffffffffff1602179055508273ffffffffffffffffffffffffffffffffffffffff168173ffffffffffffffffffffffffffffffffffffffff167f8be0079c531659141344cd1fd0a4f28419497f9722a3daafe3b4186f6b6457e060405160405180910390a3505050565b612a268282612c45565b612a3782612a32611cca565b6126d0565b5050565b84612a4581610817565b612a84576040517f08c379a0000000000000000000000000000000000000000000000000000000008152600401612a7b906150b4565b60405180910390fd5b612a918686868686612d83565b505050505050565b5f612aa2611eb4565b5f0160089054906101000a900460ff16905090565b60608660018015612b0f57612acb8261158e565b612b0a576040517f08c379a0000000000000000000000000000000000000000000000000000000008152600401612b0190614499565b60405180910390fd5b612b59565b612b188261158e565b15612b58576040517f08c379a0000000000000000000000000000000000000000000000000000000008152600401612b4f90614501565b60405180910390fd5b5b5f612b62611dba565b6001015f8b67ffffffffffffffff1667ffffffffffffffff1681526020019081526020015f209050806001015f9054906101000a900473ffffffffffffffffffffffffffffffffffffffff1673ffffffffffffffffffffffffffffffffffffffff1663f177a69e8a8a8a8a866002018b6040518763ffffffff1660e01b8152600401612bf396959493929190615382565b5f604051808303815f875af1158015612c0e573d5f5f3e3d5ffd5b505050506040513d5f823e3d601f19601f82011682018060405250810190612c369190615539565b93505050509695505050505050565b815f8015612c9a57612c568261158e565b612c95576040517f08c379a0000000000000000000000000000000000000000000000000000000008152600401612c8c90614499565b60405180910390fd5b612ce4565b612ca38261158e565b15612ce3576040517f08c379a0000000000000000000000000000000000000000000000000000000008152600401612cda90614501565b60405180910390fd5b5b5f612ced611dba565b905083816001015f8767ffffffffffffffff1667ffffffffffffffff1681526020019081526020015f208181612d239190615a33565b9050508060020185908060018154018082558091505060019003905f5260205f2090600491828204019190066008029091909190916101000a81548167ffffffffffffffff021916908367ffffffffffffffff1602179055505050505050565b8460018015612dd957612d958261158e565b612dd4576040517f08c379a0000000000000000000000000000000000000000000000000000000008152600401612dcb90614499565b60405180910390fd5b612e23565b612de28261158e565b15612e22576040517f08c379a0000000000000000000000000000000000000000000000000000000008152600401612e1990614501565b60405180910390fd5b5b5f612e2c611cca565b90505f612e37611dba565b90505f816001015f8b67ffffffffffffffff1667ffffffffffffffff1681526020019081526020015f206040518060600160405290815f82018054612e7b90614666565b80601f0160208091040260200160405190810160405280929190818152602001828054612ea790614666565b8015612ef25780601f10612ec957610100808354040283529160200191612ef2565b820191905f5260205f20905b815481529060010190602001808311612ed557829003601f168201915b50505050508152602001600182015f9054906101000a900473ffffffffffffffffffffffffffffffffffffffff1673ffffffffffffffffffffffffffffffffffffffff1673ffffffffffffffffffffffffffffffffffffffff168152602001600282018054612f6090614666565b80601f0160208091040260200160405190810160405280929190818152602001828054612f8c90614666565b8015612fd75780601f10612fae57610100808354040283529160200191612fd7565b820191905f5260205f20905b815481529060010190602001808311612fba57829003601f168201915b50505050508152505090505f816020015173ffffffffffffffffffffffffffffffffffffffff1663f177a69e8b8b8b8b87604001518a6040518763ffffffff1660e01b815260040161302e96959493929190615a41565b5f604051808303815f875af1158015613049573d5f5f3e3d5ffd5b505050506040513d5f823e3d601f19601f820116820180604052508101906130719190615539565b90508273__$dbf1feab564eff82403e197ef29e496d33$__63e48754ab9091868e858f6040518663ffffffff1660e01b81526004016130b4959493929190615c04565b5f6040518083038186803b1580156130ca575f5ffd5b505af41580156130dc573d5f5f3e3d5ffd5b505050505050505050505050505050565b6040518060600160405280606081526020015f73ffffffffffffffffffffffffffffffffffffffff168152602001606081525090565b60405180608001604052805f15158152602001606081526020015f81526020015f81525090565b5f604051905090565b5f5ffd5b5f5ffd5b5f73ffffffffffffffffffffffffffffffffffffffff82169050919050565b5f6131848261315b565b9050919050565b6131948161317a565b811461319e575f5ffd5b50565b5f813590506131af8161318b565b92915050565b5f5ffd5b5f5ffd5b5f5ffd5b5f5f83601f8401126131d6576131d56131b5565b5b8235905067ffffffffffffffff8111156131f3576131f26131b9565b5b60208301915083602082028301111561320f5761320e6131bd565b5b9250929050565b5f5f5f6040848603121561322d5761322c613153565b5b5f61323a868287016131a1565b935050602084013567ffffffffffffffff81111561325b5761325a613157565b5b613267868287016131c1565b92509250509250925092565b5f67ffffffffffffffff82169050919050565b61328f81613273565b8114613299575f5ffd5b50565b5f813590506132aa81613286565b92915050565b5f602082840312156132c5576132c4613153565b5b5f6132d28482850161329c565b91505092915050565b5f8115159050919050565b6132ef816132db565b82525050565b5f6020820190506133085f8301846132e6565b92915050565b5f819050919050565b6133208161330e565b82525050565b5f6020820190506133395f830184613317565b92915050565b6133488161317a565b82525050565b5f6020820190506133615f83018461333f565b92915050565b5f6133718261317a565b9050919050565b61338181613367565b811461338b575f5ffd5b50565b5f8135905061339c81613378565b92915050565b5f602082840312156133b7576133b6613153565b5b5f6133c48482850161338e565b91505092915050565b5f5f604083850312156133e3576133e2613153565b5b5f6133f08582860161338e565b9250506020613401858286016131a1565b9150509250929050565b5f5f6040838503121561342157613420613153565b5b5f61342e858286016131a1565b925050602061343f8582860161329c565b9150509250929050565b5f601f19601f8301169050919050565b7f4e487b71000000000000000000000000000000000000000000000000000000005f52604160045260245ffd5b61348f82613449565b810181811067ffffffffffffffff821117156134ae576134ad613459565b5b80604052505050565b5f6134c061314a565b90506134cc8282613486565b919050565b5f67ffffffffffffffff8211156134eb576134ea613459565b5b602082029050602081019050919050565b6135058161330e565b811461350f575f5ffd5b50565b5f81359050613520816134fc565b92915050565b5f613538613533846134d1565b6134b7565b9050808382526020820190506020840283018581111561355b5761355a6131bd565b5b835b8181101561358457806135708882613512565b84526020840193505060208101905061355d565b5050509392505050565b5f82601f8301126135a2576135a16131b5565b5b81356135b2848260208601613526565b91505092915050565b5f67ffffffffffffffff8211156135d5576135d4613459565b5b602082029050919050565b5f6135f26135ed846135bb565b6134b7565b9050806020840283018581111561360c5761360b6131bd565b5b835b8181101561363557806136218882613512565b84526020840193505060208101905061360e565b5050509392505050565b5f82601f830112613653576136526131b5565b5b60026136608482856135e0565b91505092915050565b5f67ffffffffffffffff82111561368357613682613459565b5b602082029050919050565b5f6136a061369b84613669565b6134b7565b905080604084028301858111156136ba576136b96131bd565b5b835b818110156136e357806136cf888261363f565b8452602084019350506040810190506136bc565b5050509392505050565b5f82601f830112613701576137006131b5565b5b600261370e84828561368e565b91505092915050565b5f5f5f5f5f5f610160878903121561373257613731613153565b5b5f61373f89828a0161329c565b965050602087013567ffffffffffffffff8111156137605761375f613157565b5b61376c89828a0161358e565b955050604061377d89828a0161363f565b945050608061378e89828a016136ed565b9350506101006137a089828a0161363f565b9250506101406137b289828a016131a1565b9150509295509295509295565b5f81519050919050565b5f82825260208201905092915050565b5f819050602082019050919050565b5f81519050919050565b5f82825260208201905092915050565b8281835e5f83830152505050565b5f61381a826137e8565b61382481856137f2565b9350613834818560208601613802565b61383d81613449565b840191505092915050565b6138518161330e565b82525050565b5f604083015f8301518482035f8601526138718282613810565b91505060208301516138866020860182613848565b508091505092915050565b5f61389c8383613857565b905092915050565b5f602082019050919050565b5f6138ba826137bf565b6138c481856137c9565b9350836020820285016138d6856137d9565b805f5b8581101561391157848403895281516138f28582613891565b94506138fd836138a4565b925060208a019950506001810190506138d9565b50829750879550505050505092915050565b5f6020820190508181035f83015261393b81846138b0565b905092915050565b5f82825260208201905092915050565b5f61395d826137e8565b6139678185613943565b9350613977818560208601613802565b61398081613449565b840191505092915050565b5f6020820190508181035f8301526139a38184613953565b905092915050565b5f6139b58261317a565b9050919050565b6139c5816139ab565b81146139cf575f5ffd5b50565b5f813590506139e0816139bc565b92915050565b5f602082840312156139fb576139fa613153565b5b5f613a08848285016139d2565b91505092915050565b5f5f60408385031215613a2757613a26613153565b5b5f613a3485828601613512565b9250506020613a4585828601613512565b9150509250929050565b5f81519050919050565b5f82825260208201905092915050565b5f819050602082019050919050565b5f819050919050565b5f613a9b613a96613a918461315b565b613a78565b61315b565b9050919050565b5f613aac82613a81565b9050919050565b5f613abd82613aa2565b9050919050565b613acd81613ab3565b82525050565b5f81519050919050565b5f82825260208201905092915050565b5f613af782613ad3565b613b018185613add565b9350613b11818560208601613802565b613b1a81613449565b840191505092915050565b5f606083015f8301518482035f860152613b3f8282613810565b9150506020830151613b546020860182613ac4565b5060408301518482036040860152613b6c8282613aed565b9150508091505092915050565b5f613b848383613b25565b905092915050565b5f602082019050919050565b5f613ba282613a4f565b613bac8185613a59565b935083602082028501613bbe85613a69565b805f5b85811015613bf95784840389528151613bda8582613b79565b9450613be583613b8c565b925060208a01995050600181019050613bc1565b50829750879550505050505092915050565b5f6020820190508181035f830152613c238184613b98565b905092915050565b613c34816132db565b82525050565b5f608083015f830151613c4f5f860182613c2b565b5060208301518482036020860152613c678282613810565b9150506040830151613c7c6040860182613848565b506060830151613c8f6060860182613848565b508091505092915050565b5f6020820190508181035f830152613cb28184613c3a565b905092915050565b5f5ffd5b5f60608284031215613cd357613cd2613cba565b5b81905092915050565b5f5f60408385031215613cf257613cf1613153565b5b5f613cff8582860161329c565b925050602083013567ffffffffffffffff811115613d2057613d1f613157565b5b613d2c85828601613cbe565b9150509250929050565b5f67ffffffffffffffff821115613d5057613d4f613459565b5b602082029050602081019050919050565b5f5ffd5b5f5ffd5b5f5ffd5b5f67ffffffffffffffff821115613d8757613d86613459565b5b613d9082613449565b9050602081019050919050565b828183375f83830152505050565b5f613dbd613db884613d6d565b6134b7565b905082815260208101848484011115613dd957613dd8613d69565b5b613de4848285613d9d565b509392505050565b5f82601f830112613e0057613dff6131b5565b5b8135613e10848260208601613dab565b91505092915050565b5f60608284031215613e2e57613e2d613d61565b5b613e3860606134b7565b90505f613e478482850161329c565b5f83015250602082013567ffffffffffffffff811115613e6a57613e69613d65565b5b613e7684828501613dec565b602083015250604082013567ffffffffffffffff811115613e9a57613e99613d65565b5b613ea684828501613dec565b60408301525092915050565b5f613ec4613ebf84613d36565b6134b7565b90508083825260208201905060208402830185811115613ee757613ee66131bd565b5b835b81811015613f2e57803567ffffffffffffffff811115613f0c57613f0b6131b5565b5b808601613f198982613e19565b85526020850194505050602081019050613ee9565b5050509392505050565b5f82601f830112613f4c57613f4b6131b5565b5b8135613f5c848260208601613eb2565b91505092915050565b5f5f60408385031215613f7b57613f7a613153565b5b5f83013567ffffffffffffffff811115613f9857613f97613157565b5b613fa485828601613f38565b925050602083013567ffffffffffffffff811115613fc557613fc4613157565b5b613fd185828601613dec565b9150509250929050565b5f5f5f5f5f6101408688031215613ff557613ff4613153565b5b5f6140028882890161329c565b955050602086013567ffffffffffffffff81111561402357614022613157565b5b61402f8882890161358e565b94505060406140408882890161363f565b9350506080614051888289016136ed565b9250506101006140638882890161363f565b9150509295509295909350565b5f606083015f8301518482035f86015261408a8282613810565b915050602083015161409f6020860182613ac4565b50604083015184820360408601526140b78282613aed565b9150508091505092915050565b5f6020820190508181035f8301526140dc8184614070565b905092915050565b5f5f604083850312156140fa576140f9613153565b5b5f6141078582860161329c565b9250506020614118858286016131a1565b9150509250929050565b5f67ffffffffffffffff82111561413c5761413b613459565b5b61414582613449565b9050602081019050919050565b5f61416461415f84614122565b6134b7565b9050828152602081018484840111156141805761417f613d69565b5b61418b848285613d9d565b509392505050565b5f82601f8301126141a7576141a66131b5565b5b81356141b7848260208601614152565b91505092915050565b5f5f5f606084860312156141d7576141d6613153565b5b5f6141e4868287016131a1565b93505060206141f58682870161329c565b925050604084013567ffffffffffffffff81111561421657614215613157565b5b61422286828701614193565b9150509250925092565b5f6020828403121561424157614240613153565b5b5f61424e848285016131a1565b91505092915050565b7f4c696e6b65642070726f6f6620766572696669636174696f6e206e65656473205f8201527f6d6f7265207468616e2031207265717565737400000000000000000000000000602082015250565b5f6142b1603383613943565b91506142bc82614257565b604082019050919050565b5f6020820190508181035f8301526142de816142a5565b9050919050565b7f4e487b71000000000000000000000000000000000000000000000000000000005f52603260045260245ffd5b7f43616e27742066696e64206c696e6b494420666f7220676976656e20726571755f8201527f6573742049647320616e64207573657220616464726573730000000000000000602082015250565b5f61436c603883613943565b915061437782614312565b604082019050919050565b5f6020820190508181035f83015261439981614360565b9050919050565b7f50726f6f667320617265206e6f74206c696e6b656400000000000000000000005f82015250565b5f6143d4601583613943565b91506143df826143a0565b602082019050919050565b6143f381613273565b82525050565b5f60a0820190508181035f830152614410816143c8565b905061441f60208301876143ea565b61442c6040830186613317565b61443960608301856143ea565b6144466080830184613317565b95945050505050565b7f7265717565737420696420646f65736e277420657869737400000000000000005f82015250565b5f614483601883613943565b915061448e8261444f565b602082019050919050565b5f6020820190508181035f8301526144b081614477565b9050919050565b7f7265717565737420696420616c726561647920657869737473000000000000005f82015250565b5f6144eb601983613943565b91506144f6826144b7565b602082019050919050565b5f6020820190508181035f830152614518816144df565b9050919050565b7f4e6f7420616e206f776e6572206f722072657175657374206f776e65720000005f82015250565b5f614553601d83613943565b915061455e8261451f565b602082019050919050565b5f6020820190508181035f83015261458081614547565b9050919050565b5f819050919050565b5f6145aa6145a56145a084614587565b613a78565b613273565b9050919050565b6145ba81614590565b82525050565b5f6020820190506145d35f8301846145b1565b92915050565b7f4e487b71000000000000000000000000000000000000000000000000000000005f52601160045260245ffd5b5f6146108261330e565b915061461b8361330e565b9250828203905081811115614633576146326145d9565b5b92915050565b7f4e487b71000000000000000000000000000000000000000000000000000000005f52602260045260245ffd5b5f600282049050600182168061467d57607f821691505b6020821081036146905761468f614639565b5b50919050565b5f5ffd5b5f5ffd5b5f5ffd5b5f5f833560016020038436030381126146be576146bd614696565b5b80840192508235915067ffffffffffffffff8211156146e0576146df61469a565b5b6020830192506001820236038313156146fc576146fb61469e565b5b509250929050565b5f5f833560016020038436030381126147205761471f614696565b5b80840192508235915067ffffffffffffffff8211156147425761474161469a565b5b60208301925060018202360383131561475e5761475d61469e565b5b509250929050565b5f6147718385613943565b935061477e838584613d9d565b61478783613449565b840190509392505050565b5f82825260208201905092915050565b5f6147ad8385614792565b93506147ba838584613d9d565b6147c383613449565b840190509392505050565b5f6060820190508181035f8301526147e7818789614766565b90506147f6602083018661333f565b81810360408301526148098184866147a2565b90509695505050505050565b5f81905092915050565b5f614829826137e8565b6148338185614815565b9350614843818560208601613802565b80840191505092915050565b5f61485a828461481f565b915081905092915050565b7f56616c696461746f72206973206e6f742077686974656c6973746564000000005f82015250565b5f614899601c83613943565b91506148a482614865565b602082019050919050565b5f6020820190508181035f8301526148c68161488d565b9050919050565b5f7fffffffff0000000000000000000000000000000000000000000000000000000082169050919050565b614901816148cd565b82525050565b5f60208201905061491a5f8301846148f8565b92915050565b614929816132db565b8114614933575f5ffd5b50565b5f8151905061494481614920565b92915050565b5f6020828403121561495f5761495e613153565b5b5f61496c84828501614936565b91505092915050565b7f56616c696461746f7220646f65736e277420737570706f72742072656c6576615f8201527f6e7420696e746572666163650000000000000000000000000000000000000000602082015250565b5f6149cf602c83613943565b91506149da82614975565b604082019050919050565b5f6020820190508181035f8301526149fc816149c3565b9050919050565b7f4c656e6774682073686f756c642062652067726561746572207468616e2030005f82015250565b5f614a37601f83613943565b9150614a4282614a03565b602082019050919050565b5f6020820190508181035f830152614a6481614a2b565b9050919050565b7f4c656e677468206c696d697420657863656564656400000000000000000000005f82015250565b5f614a9f601583613943565b9150614aaa82614a6b565b602082019050919050565b5f6020820190508181035f830152614acc81614a93565b9050919050565b7f537461727420696e646578206f7574206f6620626f756e6473000000000000005f82015250565b5f614b07601983613943565b9150614b1282614ad3565b602082019050919050565b5f6020820190508181035f830152614b3481614afb565b9050919050565b5f614b458261330e565b9150614b508361330e565b9250828201905080821115614b6857614b676145d9565b5b92915050565b5f614b7882613ad3565b614b828185614792565b9350614b92818560208601613802565b614b9b81613449565b840191505092915050565b5f6020820190508181035f830152614bbe8184614b6e565b905092915050565b5f614bd082613aa2565b9050919050565b614be081614bc6565b82525050565b5f6080820190508181035f830152614bfe8187614b6e565b90508181036020830152614c128186614b6e565b9050614c21604083018561333f565b614c2e6060830184614bd7565b95945050505050565b5f67ffffffffffffffff821115614c5157614c50613459565b5b602082029050602081019050919050565b5f614c74614c6f84614122565b6134b7565b905082815260208101848484011115614c9057614c8f613d69565b5b614c9b848285613802565b509392505050565b5f82601f830112614cb757614cb66131b5565b5b8151614cc7848260208601614c62565b91505092915050565b5f81519050614cde816134fc565b92915050565b5f60408284031215614cf957614cf8613d61565b5b614d0360406134b7565b90505f82015167ffffffffffffffff811115614d2257614d21613d65565b5b614d2e84828501614ca3565b5f830152506020614d4184828501614cd0565b60208301525092915050565b5f614d5f614d5a84614c37565b6134b7565b90508083825260208201905060208402830185811115614d8257614d816131bd565b5b835b81811015614dc957805167ffffffffffffffff811115614da757614da66131b5565b5b808601614db48982614ce4565b85526020850194505050602081019050614d84565b5050509392505050565b5f82601f830112614de757614de66131b5565b5b8151614df7848260208601614d4d565b91505092915050565b5f60208284031215614e1557614e14613153565b5b5f82015167ffffffffffffffff811115614e3257614e31613157565b5b614e3e84828501614dd3565b91505092915050565b8082525050565b614e578161317a565b82525050565b614e6681613273565b82525050565b5f81519050919050565b5f82825260208201905092915050565b5f819050602082019050919050565b5f82825260208201905092915050565b5f614eaf826137e8565b614eb98185614e95565b9350614ec9818560208601613802565b614ed281613449565b840191505092915050565b614ee68161330e565b82525050565b5f604083015f8301518482035f860152614f068282614ea5565b9150506020830151614f1b6020860182614edd565b508091505092915050565b5f614f318383614eec565b905092915050565b5f602082019050919050565b5f614f4f82614e6c565b614f598185614e76565b935083602082028501614f6b85614e86565b805f5b85811015614fa65784840389528151614f878582614f26565b9450614f9283614f39565b925060208a01995050600181019050614f6e565b50829750879550505050505092915050565b5f608082019050614fcb5f830187614e47565b614fd86020830186614e4e565b614fe56040830185614e5d565b8181036060830152614ff78184614f45565b905095945050505050565b7f4d65746164617461206e6f7420737570706f72746564207965740000000000005f82015250565b5f615036601a83613943565b915061504182615002565b602082019050919050565b5f6020820190508181035f8301526150638161502a565b9050919050565b7f526571756573742069732064697361626c6564000000000000000000000000005f82015250565b5f61509e601383613943565b91506150a98261506a565b602082019050919050565b5f6020820190508181035f8301526150cb81615092565b9050919050565b5f81519050919050565b5f82825260208201905092915050565b5f819050602082019050919050565b5f6151068383613848565b60208301905092915050565b5f602082019050919050565b5f615128826150d2565b61513281856150dc565b935061513d836150ec565b805f5b8381101561516d57815161515488826150fb565b975061515f83615112565b925050600181019050615140565b5085935050505092915050565b5f60029050919050565b5f81905092915050565b5f819050919050565b5f602082019050919050565b6151ac8161517a565b6151b68184615184565b92506151c18261518e565b805f5b838110156151f15781516151d887826150fb565b96506151e383615197565b9250506001810190506151c4565b505050505050565b5f60029050919050565b5f81905092915050565b5f819050919050565b5f81905092915050565b6152298161517a565b6152338184615216565b925061523e8261518e565b805f5b8381101561526e57815161525587826150fb565b965061526083615197565b925050600181019050615241565b505050505050565b5f6152818383615220565b60408301905092915050565b5f602082019050919050565b6152a2816151f9565b6152ac8184615203565b92506152b78261520d565b805f5b838110156152e75781516152ce8782615276565b96506152d98361528d565b9250506001810190506152ba565b505050505050565b5f819050815f5260205f209050919050565b5f815461530d81614666565b6153178186614792565b9450600182165f8114615331576001811461534757615379565b60ff198316865281151560200286019350615379565b615350856152ef565b5f5b8381101561537157815481890152600182019150602081019050615352565b808801955050505b50505092915050565b5f610160820190508181035f83015261539b818961511e565b90506153aa60208301886151a3565b6153b76060830187615299565b6153c460e08301866151a3565b8181036101208301526153d78185615301565b90506153e761014083018461333f565b979650505050505050565b5f67ffffffffffffffff82111561540c5761540b613459565b5b602082029050602081019050919050565b5f6040828403121561543257615431613d61565b5b61543c60406134b7565b90505f82015167ffffffffffffffff81111561545b5761545a613d65565b5b61546784828501614ca3565b5f83015250602061547a84828501614cd0565b60208301525092915050565b5f615498615493846153f2565b6134b7565b905080838252602082019050602084028301858111156154bb576154ba6131bd565b5b835b8181101561550257805167ffffffffffffffff8111156154e0576154df6131b5565b5b8086016154ed898261541d565b855260208501945050506020810190506154bd565b5050509392505050565b5f82601f8301126155205761551f6131b5565b5b8151615530848260208601615486565b91505092915050565b5f6020828403121561554e5761554d613153565b5b5f82015167ffffffffffffffff81111561556b5761556a613157565b5b6155778482850161550c565b91505092915050565b5f82905092915050565b5f819050815f5260205f209050919050565b5f6020601f8301049050919050565b5f82821b905092915050565b5f600883026155e67fffffffffffffffffffffffffffffffffffffffffffffffffffffffffffffffff826155ab565b6155f086836155ab565b95508019841693508086168417925050509392505050565b5f61562261561d6156188461330e565b613a78565b61330e565b9050919050565b5f819050919050565b61563b83615608565b61564f61564782615629565b8484546155b7565b825550505050565b5f5f905090565b615666615657565b615671818484615632565b505050565b5b81811015615694576156895f8261565e565b600181019050615677565b5050565b601f8211156156d9576156aa8161558a565b6156b38461559c565b810160208510156156c2578190505b6156d66156ce8561559c565b830182615676565b50505b505050565b5f82821c905092915050565b5f6156f95f19846008026156de565b1980831691505092915050565b5f61571183836156ea565b9150826002028217905092915050565b61572b8383615580565b67ffffffffffffffff81111561574457615743613459565b5b61574e8254614666565b615759828285615698565b5f601f831160018114615786575f8415615774578287013590505b61577e8582615706565b8655506157e5565b601f1984166157948661558a565b5f5b828110156157bb57848901358255600182019150602085019450602081019050615796565b868310156157d857848901356157d4601f8916826156ea565b8355505b6001600288020188555050505b50505050505050565b6157f9838383615721565b505050565b5f813561580a816139bc565b80915050919050565b5f815f1b9050919050565b5f73ffffffffffffffffffffffffffffffffffffffff61583d84615813565b9350801983169250808416831791505092915050565b5f61585d82613a81565b9050919050565b5f61586e82615853565b9050919050565b5f819050919050565b61588782615864565b61589a61589382615875565b835461581e565b8255505050565b5f82905092915050565b601f8211156158ec576158bd816152ef565b6158c68461559c565b810160208510156158d5578190505b6158e96158e18561559c565b830182615676565b50505b505050565b6158fb83836158a1565b67ffffffffffffffff81111561591457615913613459565b5b61591e8254614666565b6159298282856158ab565b5f601f831160018114615956575f8415615944578287013590505b61594e8582615706565b8655506159b5565b601f198416615964866152ef565b5f5b8281101561598b57848901358255600182019150602085019450602081019050615966565b868310156159a857848901356159a4601f8916826156ea565b8355505b6001600288020188555050505b50505050505050565b6159c98383836158f1565b505050565b5f81015f83016159de81856146a2565b6159e98183866157ee565b505050506001810160208301806159ff816157fe565b9050615a0b818461587e565b5050506002810160408301615a208185614704565b615a2b8183866159be565b505050505050565b615a3d82826159ce565b5050565b5f610160820190508181035f830152615a5a818961511e565b9050615a6960208301886151a3565b615a766060830187615299565b615a8360e08301866151a3565b818103610120830152615a968185614b6e565b9050615aa661014083018461333f565b979650505050505050565b5f82825260208201905092915050565b5f604083015f8301518482035f860152615adb8282614ea5565b9150506020830151615af06020860182614edd565b508091505092915050565b5f615b068383615ac1565b905092915050565b5f615b18826137bf565b615b228185615ab1565b935083602082028501615b34856137d9565b805f5b85811015615b6f5784840389528151615b508582615afb565b9450615b5b836138a4565b925060208a01995050600181019050615b37565b50829750879550505050505092915050565b5f82825260208201905092915050565b5f615b9c8383614edd565b60208301905092915050565b5f615bb2826150d2565b615bbc8185615b81565b9350615bc7836150ec565b805f5b83811015615bf7578151615bde8882615b91565b9750615be983615112565b925050600181019050615bca565b5085935050505092915050565b5f60a082019050615c175f830188614e47565b615c246020830187614e4e565b615c316040830186614e5d565b8181036060830152615c438185615b0e565b90508181036080830152615c578184615ba8565b9050969550505050505056fea2646970667358221220068be7e29bfc4de5f6557ef79dcf5c1dac858e5670f5a8203c183f6ee7e41c7364736f6c634300081b0033",
		"opcodes": "PUSH1 0x80 PUSH1 0x40 MSTORE CALLVALUE DUP1 ISZERO PUSH1 0xE JUMPI PUSH0 PUSH0 REVERT JUMPDEST POP PUSH2 0x5C99 DUP1 PUSH2 0x1C PUSH0 CODECOPY PUSH0 RETURN INVALID PUSH1 0x80 PUSH1 0x40 MSTORE CALLVALUE DUP1 ISZERO PUSH2 0xF JUMPI PUSH0 PUSH0 REVERT JUMPDEST POP PUSH1 0x4 CALLDATASIZE LT PUSH2 0x1E3 JUMPI PUSH0 CALLDATALOAD PUSH1 0xE0 SHR DUP1 PUSH4 0x715018A6 GT PUSH2 0x10D JUMPI DUP1 PUSH4 0xADE09FCD GT PUSH2 0xA0 JUMPI DUP1 PUSH4 0xD4858051 GT PUSH2 0x6F JUMPI DUP1 PUSH4 0xD4858051 EQ PUSH2 0x575 JUMPI DUP1 PUSH4 0xE30C3978 EQ PUSH2 0x5A5 JUMPI DUP1 PUSH4 0xF2FDE38B EQ PUSH2 0x5C3 JUMPI DUP1 PUSH4 0xFFA1AD74 EQ PUSH2 0x5DF JUMPI PUSH2 0x1E3 JUMP JUMPDEST DUP1 PUSH4 0xADE09FCD EQ PUSH2 0x4F1 JUMPI DUP1 PUSH4 0xB68967E2 EQ PUSH2 0x50D JUMPI DUP1 PUSH4 0xC76D0845 EQ PUSH2 0x529 JUMPI DUP1 PUSH4 0xC9C23EA5 EQ PUSH2 0x559 JUMPI PUSH2 0x1E3 JUMP JUMPDEST DUP1 PUSH4 0x8DA5CB5B GT PUSH2 0xDC JUMPI DUP1 PUSH4 0x8DA5CB5B EQ PUSH2 0x457 JUMPI DUP1 PUSH4 0x9B36D036 EQ PUSH2 0x475 JUMPI DUP1 PUSH4 0x9F5223E0 EQ PUSH2 0x4A5 JUMPI DUP1 PUSH4 0xAB7BCFB7 EQ PUSH2 0x4C1 JUMPI PUSH2 0x1E3 JUMP JUMPDEST DUP1 PUSH4 0x715018A6 EQ PUSH2 0x3F7 JUMPI DUP1 PUSH4 0x79BA5097 EQ PUSH2 0x401 JUMPI DUP1 PUSH4 0x82AFF29F EQ PUSH2 0x40B JUMPI DUP1 PUSH4 0x8C1DA2C9 EQ PUSH2 0x427 JUMPI PUSH2 0x1E3 JUMP JUMPDEST DUP1 PUSH4 0x49555FB1 GT PUSH2 0x185 JUMPI DUP1 PUSH4 0x5F9E60D7 GT PUSH2 0x154 JUMPI DUP1 PUSH4 0x5F9E60D7 EQ PUSH2 0x35D JUMPI DUP1 PUSH4 0x617879FE EQ PUSH2 0x38D JUMPI DUP1 PUSH4 0x6508E1B4 EQ PUSH2 0x3A9 JUMPI DUP1 PUSH4 0x6F2477AD EQ PUSH2 0x3C7 JUMPI PUSH2 0x1E3 JUMP JUMPDEST DUP1 PUSH4 0x49555FB1 EQ PUSH2 0x2C3 JUMPI DUP1 PUSH4 0x5176983B EQ PUSH2 0x2F3 JUMPI DUP1 PUSH4 0x54FD4D50 EQ PUSH2 0x323 JUMPI DUP1 PUSH4 0x59F871A1 EQ PUSH2 0x341 JUMPI PUSH2 0x1E3 JUMP JUMPDEST DUP1 PUSH4 0x30DEF4AC GT PUSH2 0x1C1 JUMPI DUP1 PUSH4 0x30DEF4AC EQ PUSH2 0x251 JUMPI DUP1 PUSH4 0x31969E57 EQ PUSH2 0x26D JUMPI DUP1 PUSH4 0x34C901AF EQ PUSH2 0x28B JUMPI DUP1 PUSH4 0x485CC955 EQ PUSH2 0x2A7 JUMPI PUSH2 0x1E3 JUMP JUMPDEST DUP1 PUSH4 0x106A959 EQ PUSH2 0x1E7 JUMPI DUP1 PUSH4 0x130A73AC EQ PUSH2 0x203 JUMPI DUP1 PUSH4 0x1905E7B1 EQ PUSH2 0x233 JUMPI JUMPDEST PUSH0 PUSH0 REVERT JUMPDEST PUSH2 0x201 PUSH1 0x4 DUP1 CALLDATASIZE SUB DUP2 ADD SWAP1 PUSH2 0x1FC SWAP2 SWAP1 PUSH2 0x3216 JUMP JUMPDEST PUSH2 0x5FD JUMP JUMPDEST STOP JUMPDEST PUSH2 0x21D PUSH1 0x4 DUP1 CALLDATASIZE SUB DUP2 ADD SWAP1 PUSH2 0x218 SWAP2 SWAP1 PUSH2 0x32B0 JUMP JUMPDEST PUSH2 0x817 JUMP JUMPDEST PUSH1 0x40 MLOAD PUSH2 0x22A SWAP2 SWAP1 PUSH2 0x32F5 JUMP JUMPDEST PUSH1 0x40 MLOAD DUP1 SWAP2 SUB SWAP1 RETURN JUMPDEST PUSH2 0x23B PUSH2 0x8FC JUMP JUMPDEST PUSH1 0x40 MLOAD PUSH2 0x248 SWAP2 SWAP1 PUSH2 0x3326 JUMP JUMPDEST PUSH1 0x40 MLOAD DUP1 SWAP2 SUB SWAP1 RETURN JUMPDEST PUSH2 0x26B PUSH1 0x4 DUP1 CALLDATASIZE SUB DUP2 ADD SWAP1 PUSH2 0x266 SWAP2 SWAP1 PUSH2 0x32B0 JUMP JUMPDEST PUSH2 0x902 JUMP JUMPDEST STOP JUMPDEST PUSH2 0x275 PUSH2 0x9CF JUMP JUMPDEST PUSH1 0x40 MLOAD PUSH2 0x282 SWAP2 SWAP1 PUSH2 0x334E JUMP JUMPDEST PUSH1 0x40 MLOAD DUP1 SWAP2 SUB SWAP1 RETURN JUMPDEST PUSH2 0x2A5 PUSH1 0x4 DUP1 CALLDATASIZE SUB DUP2 ADD SWAP1 PUSH2 0x2A0 SWAP2 SWAP1 PUSH2 0x33A2 JUMP JUMPDEST PUSH2 0xA00 JUMP JUMPDEST STOP JUMPDEST PUSH2 0x2C1 PUSH1 0x4 DUP1 CALLDATASIZE SUB DUP2 ADD SWAP1 PUSH2 0x2BC SWAP2 SWAP1 PUSH2 0x33CD JUMP JUMPDEST PUSH2 0xA14 JUMP JUMPDEST STOP JUMPDEST PUSH2 0x2DD PUSH1 0x4 DUP1 CALLDATASIZE SUB DUP2 ADD SWAP1 PUSH2 0x2D8 SWAP2 SWAP1 PUSH2 0x340B JUMP JUMPDEST PUSH2 0xB9F JUMP JUMPDEST PUSH1 0x40 MLOAD PUSH2 0x2EA SWAP2 SWAP1 PUSH2 0x32F5 JUMP JUMPDEST PUSH1 0x40 MLOAD DUP1 SWAP2 SUB SWAP1 RETURN JUMPDEST PUSH2 0x30D PUSH1 0x4 DUP1 CALLDATASIZE SUB DUP2 ADD SWAP1 PUSH2 0x308 SWAP2 SWAP1 PUSH2 0x3717 JUMP JUMPDEST PUSH2 0xCC1 JUMP JUMPDEST PUSH1 0x40 MLOAD PUSH2 0x31A SWAP2 SWAP1 PUSH2 0x3923 JUMP JUMPDEST PUSH1 0x40 MLOAD DUP1 SWAP2 SUB SWAP1 RETURN JUMPDEST PUSH2 0x32B PUSH2 0xCDD JUMP JUMPDEST PUSH1 0x40 MLOAD PUSH2 0x338 SWAP2 SWAP1 PUSH2 0x398B JUMP JUMPDEST PUSH1 0x40 MLOAD DUP1 SWAP2 SUB SWAP1 RETURN JUMPDEST PUSH2 0x35B PUSH1 0x4 DUP1 CALLDATASIZE SUB DUP2 ADD SWAP1 PUSH2 0x356 SWAP2 SWAP1 PUSH2 0x39E6 JUMP JUMPDEST PUSH2 0xD1A JUMP JUMPDEST STOP JUMPDEST PUSH2 0x377 PUSH1 0x4 DUP1 CALLDATASIZE SUB DUP2 ADD SWAP1 PUSH2 0x372 SWAP2 SWAP1 PUSH2 0x3A11 JUMP JUMPDEST PUSH2 0xD2E JUMP JUMPDEST PUSH1 0x40 MLOAD PUSH2 0x384 SWAP2 SWAP1 PUSH2 0x3C0B JUMP JUMPDEST PUSH1 0x40 MLOAD DUP1 SWAP2 SUB SWAP1 RETURN JUMPDEST PUSH2 0x3A7 PUSH1 0x4 DUP1 CALLDATASIZE SUB DUP2 ADD SWAP1 PUSH2 0x3A2 SWAP2 SWAP1 PUSH2 0x39E6 JUMP JUMPDEST PUSH2 0xFEC JUMP JUMPDEST STOP JUMPDEST PUSH2 0x3B1 PUSH2 0x1000 JUMP JUMPDEST PUSH1 0x40 MLOAD PUSH2 0x3BE SWAP2 SWAP1 PUSH2 0x3326 JUMP JUMPDEST PUSH1 0x40 MLOAD DUP1 SWAP2 SUB SWAP1 RETURN JUMPDEST PUSH2 0x3E1 PUSH1 0x4 DUP1 CALLDATASIZE SUB DUP2 ADD SWAP1 PUSH2 0x3DC SWAP2 SWAP1 PUSH2 0x32B0 JUMP JUMPDEST PUSH2 0x1015 JUMP JUMPDEST PUSH1 0x40 MLOAD PUSH2 0x3EE SWAP2 SWAP1 PUSH2 0x334E JUMP JUMPDEST PUSH1 0x40 MLOAD DUP1 SWAP2 SUB SWAP1 RETURN JUMPDEST PUSH2 0x3FF PUSH2 0x110C JUMP JUMPDEST STOP JUMPDEST PUSH2 0x409 PUSH2 0x111F JUMP JUMPDEST STOP JUMPDEST PUSH2 0x425 PUSH1 0x4 DUP1 CALLDATASIZE SUB DUP2 ADD SWAP1 PUSH2 0x420 SWAP2 SWAP1 PUSH2 0x32B0 JUMP JUMPDEST PUSH2 0x11AD JUMP JUMPDEST STOP JUMPDEST PUSH2 0x441 PUSH1 0x4 DUP1 CALLDATASIZE SUB DUP2 ADD SWAP1 PUSH2 0x43C SWAP2 SWAP1 PUSH2 0x340B JUMP JUMPDEST PUSH2 0x127A JUMP JUMPDEST PUSH1 0x40 MLOAD PUSH2 0x44E SWAP2 SWAP1 PUSH2 0x3C9A JUMP JUMPDEST PUSH1 0x40 MLOAD DUP1 SWAP2 SUB SWAP1 RETURN JUMPDEST PUSH2 0x45F PUSH2 0x145C JUMP JUMPDEST PUSH1 0x40 MLOAD PUSH2 0x46C SWAP2 SWAP1 PUSH2 0x334E JUMP JUMPDEST PUSH1 0x40 MLOAD DUP1 SWAP2 SUB SWAP1 RETURN JUMPDEST PUSH2 0x48F PUSH1 0x4 DUP1 CALLDATASIZE SUB DUP2 ADD SWAP1 PUSH2 0x48A SWAP2 SWAP1 PUSH2 0x39E6 JUMP JUMPDEST PUSH2 0x1491 JUMP JUMPDEST PUSH1 0x40 MLOAD PUSH2 0x49C SWAP2 SWAP1 PUSH2 0x32F5 JUMP JUMPDEST PUSH1 0x40 MLOAD DUP1 SWAP2 SUB SWAP1 RETURN JUMPDEST PUSH2 0x4BF PUSH1 0x4 DUP1 CALLDATASIZE SUB DUP2 ADD SWAP1 PUSH2 0x4BA SWAP2 SWAP1 PUSH2 0x3CDC JUMP JUMPDEST PUSH2 0x14EB JUMP JUMPDEST STOP JUMPDEST PUSH2 0x4DB PUSH1 0x4 DUP1 CALLDATASIZE SUB DUP2 ADD SWAP1 PUSH2 0x4D6 SWAP2 SWAP1 PUSH2 0x32B0 JUMP JUMPDEST PUSH2 0x158E JUMP JUMPDEST PUSH1 0x40 MLOAD PUSH2 0x4E8 SWAP2 SWAP1 PUSH2 0x32F5 JUMP JUMPDEST PUSH1 0x40 MLOAD DUP1 SWAP2 SUB SWAP1 RETURN JUMPDEST PUSH2 0x50B PUSH1 0x4 DUP1 CALLDATASIZE SUB DUP2 ADD SWAP1 PUSH2 0x506 SWAP2 SWAP1 PUSH2 0x3F65 JUMP JUMPDEST PUSH2 0x1616 JUMP JUMPDEST STOP JUMPDEST PUSH2 0x527 PUSH1 0x4 DUP1 CALLDATASIZE SUB DUP2 ADD SWAP1 PUSH2 0x522 SWAP2 SWAP1 PUSH2 0x3FDB JUMP JUMPDEST PUSH2 0x16B2 JUMP JUMPDEST STOP JUMPDEST PUSH2 0x543 PUSH1 0x4 DUP1 CALLDATASIZE SUB DUP2 ADD SWAP1 PUSH2 0x53E SWAP2 SWAP1 PUSH2 0x32B0 JUMP JUMPDEST PUSH2 0x171B JUMP JUMPDEST PUSH1 0x40 MLOAD PUSH2 0x550 SWAP2 SWAP1 PUSH2 0x40C4 JUMP JUMPDEST PUSH1 0x40 MLOAD DUP1 SWAP2 SUB SWAP1 RETURN JUMPDEST PUSH2 0x573 PUSH1 0x4 DUP1 CALLDATASIZE SUB DUP2 ADD SWAP1 PUSH2 0x56E SWAP2 SWAP1 PUSH2 0x40E4 JUMP JUMPDEST PUSH2 0x1979 JUMP JUMPDEST STOP JUMPDEST PUSH2 0x58F PUSH1 0x4 DUP1 CALLDATASIZE SUB DUP2 ADD SWAP1 PUSH2 0x58A SWAP2 SWAP1 PUSH2 0x41C0 JUMP JUMPDEST PUSH2 0x1A48 JUMP JUMPDEST PUSH1 0x40 MLOAD PUSH2 0x59C SWAP2 SWAP1 PUSH2 0x3326 JUMP JUMPDEST PUSH1 0x40 MLOAD DUP1 SWAP2 SUB SWAP1 RETURN JUMPDEST PUSH2 0x5AD PUSH2 0x1B7C JUMP JUMPDEST PUSH1 0x40 MLOAD PUSH2 0x5BA SWAP2 SWAP1 PUSH2 0x334E JUMP JUMPDEST PUSH1 0x40 MLOAD DUP1 SWAP2 SUB SWAP1 RETURN JUMPDEST PUSH2 0x5DD PUSH1 0x4 DUP1 CALLDATASIZE SUB DUP2 ADD SWAP1 PUSH2 0x5D8 SWAP2 SWAP1 PUSH2 0x422C JUMP JUMPDEST PUSH2 0x1BB1 JUMP JUMPDEST STOP JUMPDEST PUSH2 0x5E7 PUSH2 0x1C6A JUMP JUMPDEST PUSH1 0x40 MLOAD PUSH2 0x5F4 SWAP2 SWAP1 PUSH2 0x398B JUMP JUMPDEST PUSH1 0x40 MLOAD DUP1 SWAP2 SUB SWAP1 RETURN JUMPDEST PUSH1 0x1 DUP3 DUP3 SWAP1 POP GT PUSH2 0x643 JUMPI PUSH1 0x40 MLOAD PUSH32 0x8C379A000000000000000000000000000000000000000000000000000000000 DUP2 MSTORE PUSH1 0x4 ADD PUSH2 0x63A SWAP1 PUSH2 0x42C7 JUMP JUMPDEST PUSH1 0x40 MLOAD DUP1 SWAP2 SUB SWAP1 REVERT JUMPDEST PUSH0 PUSH2 0x6AB DUP5 DUP5 DUP5 PUSH0 DUP2 DUP2 LT PUSH2 0x65B JUMPI PUSH2 0x65A PUSH2 0x42E5 JUMP JUMPDEST JUMPDEST SWAP1 POP PUSH1 0x20 MUL ADD PUSH1 0x20 DUP2 ADD SWAP1 PUSH2 0x670 SWAP2 SWAP1 PUSH2 0x32B0 JUMP JUMPDEST PUSH1 0x40 MLOAD DUP1 PUSH1 0x40 ADD PUSH1 0x40 MSTORE DUP1 PUSH1 0x6 DUP2 MSTORE PUSH1 0x20 ADD PUSH32 0x6C696E6B49440000000000000000000000000000000000000000000000000000 DUP2 MSTORE POP PUSH2 0x1A48 JUMP JUMPDEST SWAP1 POP PUSH0 DUP2 SUB PUSH2 0x6EF JUMPI PUSH1 0x40 MLOAD PUSH32 0x8C379A000000000000000000000000000000000000000000000000000000000 DUP2 MSTORE PUSH1 0x4 ADD PUSH2 0x6E6 SWAP1 PUSH2 0x4382 JUMP JUMPDEST PUSH1 0x40 MLOAD DUP1 SWAP2 SUB SWAP1 REVERT JUMPDEST PUSH0 PUSH1 0x1 SWAP1 POP JUMPDEST DUP4 DUP4 SWAP1 POP DUP2 LT ISZERO PUSH2 0x810 JUMPI PUSH0 PUSH2 0x768 DUP7 DUP7 DUP7 DUP6 DUP2 DUP2 LT PUSH2 0x718 JUMPI PUSH2 0x717 PUSH2 0x42E5 JUMP JUMPDEST JUMPDEST SWAP1 POP PUSH1 0x20 MUL ADD PUSH1 0x20 DUP2 ADD SWAP1 PUSH2 0x72D SWAP2 SWAP1 PUSH2 0x32B0 JUMP JUMPDEST PUSH1 0x40 MLOAD DUP1 PUSH1 0x40 ADD PUSH1 0x40 MSTORE DUP1 PUSH1 0x6 DUP2 MSTORE PUSH1 0x20 ADD PUSH32 0x6C696E6B49440000000000000000000000000000000000000000000000000000 DUP2 MSTORE POP PUSH2 0x1A48 JUMP JUMPDEST SWAP1 POP DUP1 DUP4 EQ PUSH2 0x802 JUMPI DUP5 DUP5 PUSH0 DUP2 DUP2 LT PUSH2 0x784 JUMPI PUSH2 0x783 PUSH2 0x42E5 JUMP JUMPDEST JUMPDEST SWAP1 POP PUSH1 0x20 MUL ADD PUSH1 0x20 DUP2 ADD SWAP1 PUSH2 0x799 SWAP2 SWAP1 PUSH2 0x32B0 JUMP JUMPDEST DUP4 DUP7 DUP7 DUP6 DUP2 DUP2 LT PUSH2 0x7AD JUMPI PUSH2 0x7AC PUSH2 0x42E5 JUMP JUMPDEST JUMPDEST SWAP1 POP PUSH1 0x20 MUL ADD PUSH1 0x20 DUP2 ADD SWAP1 PUSH2 0x7C2 SWAP2 SWAP1 PUSH2 0x32B0 JUMP JUMPDEST DUP4 PUSH1 0x40 MLOAD PUSH32 0xCB82C0300000000000000000000000000000000000000000000000000000000 DUP2 MSTORE PUSH1 0x4 ADD PUSH2 0x7F9 SWAP5 SWAP4 SWAP3 SWAP2 SWAP1 PUSH2 0x43F9 JUMP JUMPDEST PUSH1 0x40 MLOAD DUP1 SWAP2 SUB SWAP1 REVERT JUMPDEST POP DUP1 DUP1 PUSH1 0x1 ADD SWAP2 POP POP PUSH2 0x6F5 JUMP JUMPDEST POP POP POP POP POP JUMP JUMPDEST PUSH0 DUP2 PUSH1 0x1 DUP1 ISZERO PUSH2 0x86E JUMPI PUSH2 0x82A DUP3 PUSH2 0x158E JUMP JUMPDEST PUSH2 0x869 JUMPI PUSH1 0x40 MLOAD PUSH32 0x8C379A000000000000000000000000000000000000000000000000000000000 DUP2 MSTORE PUSH1 0x4 ADD PUSH2 0x860 SWAP1 PUSH2 0x4499 JUMP JUMPDEST PUSH1 0x40 MLOAD DUP1 SWAP2 SUB SWAP1 REVERT JUMPDEST PUSH2 0x8B8 JUMP JUMPDEST PUSH2 0x877 DUP3 PUSH2 0x158E JUMP JUMPDEST ISZERO PUSH2 0x8B7 JUMPI PUSH1 0x40 MLOAD PUSH32 0x8C379A000000000000000000000000000000000000000000000000000000000 DUP2 MSTORE PUSH1 0x4 ADD PUSH2 0x8AE SWAP1 PUSH2 0x4501 JUMP JUMPDEST PUSH1 0x40 MLOAD DUP1 SWAP2 SUB SWAP1 REVERT JUMPDEST JUMPDEST PUSH2 0x8C0 PUSH2 0x1CA3 JUMP JUMPDEST PUSH0 ADD PUSH0 DUP6 PUSH8 0xFFFFFFFFFFFFFFFF AND PUSH8 0xFFFFFFFFFFFFFFFF AND DUP2 MSTORE PUSH1 0x20 ADD SWAP1 DUP2 MSTORE PUSH1 0x20 ADD PUSH0 KECCAK256 PUSH0 SWAP1 SLOAD SWAP1 PUSH2 0x100 EXP SWAP1 DIV PUSH1 0xFF AND ISZERO SWAP3 POP POP POP SWAP2 SWAP1 POP JUMP JUMPDEST PUSH2 0x3E8 DUP2 JUMP JUMPDEST DUP1 PUSH0 PUSH2 0x90C PUSH2 0x1CCA JUMP JUMPDEST SWAP1 POP PUSH2 0x917 DUP3 PUSH2 0x1015 JUMP JUMPDEST PUSH20 0xFFFFFFFFFFFFFFFFFFFFFFFFFFFFFFFFFFFFFFFF AND DUP2 PUSH20 0xFFFFFFFFFFFFFFFFFFFFFFFFFFFFFFFFFFFFFFFF AND EQ DUP1 PUSH2 0x982 JUMPI POP PUSH2 0x953 PUSH2 0x145C JUMP JUMPDEST PUSH20 0xFFFFFFFFFFFFFFFFFFFFFFFFFFFFFFFFFFFFFFFF AND DUP2 PUSH20 0xFFFFFFFFFFFFFFFFFFFFFFFFFFFFFFFFFFFFFFFF AND EQ JUMPDEST PUSH2 0x9C1 JUMPI PUSH1 0x40 MLOAD PUSH32 0x8C379A000000000000000000000000000000000000000000000000000000000 DUP2 MSTORE PUSH1 0x4 ADD PUSH2 0x9B8 SWAP1 PUSH2 0x4569 JUMP JUMPDEST PUSH1 0x40 MLOAD DUP1 SWAP2 SUB SWAP1 REVERT JUMPDEST PUSH2 0x9CA DUP4 PUSH2 0x1CD1 JUMP JUMPDEST POP POP POP JUMP JUMPDEST PUSH0 PUSH2 0x9D8 PUSH2 0x1DBA JUMP JUMPDEST PUSH1 0x3 ADD PUSH0 SWAP1 SLOAD SWAP1 PUSH2 0x100 EXP SWAP1 DIV PUSH20 0xFFFFFFFFFFFFFFFFFFFFFFFFFFFFFFFFFFFFFFFF AND SWAP1 POP SWAP1 JUMP JUMPDEST PUSH2 0xA08 PUSH2 0x1DE1 JUMP JUMPDEST PUSH2 0xA11 DUP2 PUSH2 0x1E68 JUMP JUMPDEST POP JUMP JUMPDEST PUSH0 PUSH2 0xA1D PUSH2 0x1EB4 JUMP JUMPDEST SWAP1 POP PUSH0 DUP2 PUSH0 ADD PUSH1 0x8 SWAP1 SLOAD SWAP1 PUSH2 0x100 EXP SWAP1 DIV PUSH1 0xFF AND ISZERO SWAP1 POP PUSH0 DUP3 PUSH0 ADD PUSH0 SWAP1 SLOAD SWAP1 PUSH2 0x100 EXP SWAP1 DIV PUSH8 0xFFFFFFFFFFFFFFFF AND SWAP1 POP PUSH0 PUSH0 DUP3 PUSH8 0xFFFFFFFFFFFFFFFF AND EQ DUP1 ISZERO PUSH2 0xA65 JUMPI POP DUP3 JUMPDEST SWAP1 POP PUSH0 PUSH1 0x1 DUP4 PUSH8 0xFFFFFFFFFFFFFFFF AND EQ DUP1 ISZERO PUSH2 0xA98 JUMPI POP PUSH0 ADDRESS PUSH20 0xFFFFFFFFFFFFFFFFFFFFFFFFFFFFFFFFFFFFFFFF AND EXTCODESIZE EQ JUMPDEST SWAP1 POP DUP2 ISZERO DUP1 ISZERO PUSH2 0xAA6 JUMPI POP DUP1 ISZERO JUMPDEST ISZERO PUSH2 0xADD JUMPI PUSH1 0x40 MLOAD PUSH32 0xF92EE8A900000000000000000000000000000000000000000000000000000000 DUP2 MSTORE PUSH1 0x4 ADD PUSH1 0x40 MLOAD DUP1 SWAP2 SUB SWAP1 REVERT JUMPDEST PUSH1 0x1 DUP6 PUSH0 ADD PUSH0 PUSH2 0x100 EXP DUP2 SLOAD DUP2 PUSH8 0xFFFFFFFFFFFFFFFF MUL NOT AND SWAP1 DUP4 PUSH8 0xFFFFFFFFFFFFFFFF AND MUL OR SWAP1 SSTORE POP DUP4 ISZERO PUSH2 0xB2A JUMPI PUSH1 0x1 DUP6 PUSH0 ADD PUSH1 0x8 PUSH2 0x100 EXP DUP2 SLOAD DUP2 PUSH1 0xFF MUL NOT AND SWAP1 DUP4 ISZERO ISZERO MUL OR SWAP1 SSTORE POP JUMPDEST PUSH2 0xB33 DUP7 PUSH2 0x1EDB JUMP JUMPDEST PUSH2 0xB3C DUP8 PUSH2 0x1EEF JUMP JUMPDEST DUP4 ISZERO PUSH2 0xB96 JUMPI PUSH0 DUP6 PUSH0 ADD PUSH1 0x8 PUSH2 0x100 EXP DUP2 SLOAD DUP2 PUSH1 0xFF MUL NOT AND SWAP1 DUP4 ISZERO ISZERO MUL OR SWAP1 SSTORE POP PUSH32 0xC7F505B2F371AE2175EE4913F4499E1F2633A7B5936321EED1CDAEB6115181D2 PUSH1 0x1 PUSH1 0x40 MLOAD PUSH2 0xB8D SWAP2 SWAP1 PUSH2 0x45C0 JUMP JUMPDEST PUSH1 0x40 MLOAD DUP1 SWAP2 SUB SWAP1 LOG1 JUMPDEST POP POP POP POP POP POP POP JUMP JUMPDEST PUSH0 DUP2 PUSH1 0x1 DUP1 ISZERO PUSH2 0xBF6 JUMPI PUSH2 0xBB2 DUP3 PUSH2 0x158E JUMP JUMPDEST PUSH2 0xBF1 JUMPI PUSH1 0x40 MLOAD PUSH32 0x8C379A000000000000000000000000000000000000000000000000000000000 DUP2 MSTORE PUSH1 0x4 ADD PUSH2 0xBE8 SWAP1 PUSH2 0x4499 JUMP JUMPDEST PUSH1 0x40 MLOAD DUP1 SWAP2 SUB SWAP1 REVERT JUMPDEST PUSH2 0xC40 JUMP JUMPDEST PUSH2 0xBFF DUP3 PUSH2 0x158E JUMP JUMPDEST ISZERO PUSH2 0xC3F JUMPI PUSH1 0x40 MLOAD PUSH32 0x8C379A000000000000000000000000000000000000000000000000000000000 DUP2 MSTORE PUSH1 0x4 ADD PUSH2 0xC36 SWAP1 PUSH2 0x4501 JUMP JUMPDEST PUSH1 0x40 MLOAD DUP1 SWAP2 SUB SWAP1 REVERT JUMPDEST JUMPDEST PUSH2 0xC48 PUSH2 0x1DBA JUMP JUMPDEST PUSH0 ADD PUSH0 DUP7 PUSH20 0xFFFFFFFFFFFFFFFFFFFFFFFFFFFFFFFFFFFFFFFF AND PUSH20 0xFFFFFFFFFFFFFFFFFFFFFFFFFFFFFFFFFFFFFFFF AND DUP2 MSTORE PUSH1 0x20 ADD SWAP1 DUP2 MSTORE PUSH1 0x20 ADD PUSH0 KECCAK256 PUSH0 DUP6 PUSH8 0xFFFFFFFFFFFFFFFF AND PUSH8 0xFFFFFFFFFFFFFFFF AND DUP2 MSTORE PUSH1 0x20 ADD SWAP1 DUP2 MSTORE PUSH1 0x20 ADD PUSH0 KECCAK256 PUSH0 ADD PUSH0 SWAP1 SLOAD SWAP1 PUSH2 0x100 EXP SWAP1 DIV PUSH1 0xFF AND SWAP3 POP POP POP SWAP3 SWAP2 POP POP JUMP JUMPDEST PUSH1 0x60 PUSH2 0xCD1 DUP8 DUP8 DUP8 DUP8 DUP8 DUP8 PUSH2 0x1F03 JUMP JUMPDEST SWAP1 POP SWAP7 SWAP6 POP POP POP POP POP POP JUMP JUMPDEST PUSH1 0x60 PUSH1 0x40 MLOAD DUP1 PUSH1 0x40 ADD PUSH1 0x40 MSTORE DUP1 PUSH1 0x5 DUP2 MSTORE PUSH1 0x20 ADD PUSH32 0x312E312E31000000000000000000000000000000000000000000000000000000 DUP2 MSTORE POP SWAP1 POP SWAP1 JUMP JUMPDEST PUSH2 0xD22 PUSH2 0x1DE1 JUMP JUMPDEST PUSH2 0xD2B DUP2 PUSH2 0x1F78 JUMP JUMPDEST POP JUMP JUMPDEST PUSH1 0x60 PUSH0 PUSH2 0xD39 PUSH2 0x1DBA JUMP JUMPDEST SWAP1 POP PUSH0 PUSH0 PUSH2 0xD52 DUP4 PUSH1 0x2 ADD DUP1 SLOAD SWAP1 POP DUP8 DUP8 PUSH2 0x3E8 PUSH2 0x20AF JUMP JUMPDEST SWAP2 POP SWAP2 POP PUSH0 DUP3 DUP3 PUSH2 0xD63 SWAP2 SWAP1 PUSH2 0x4606 JUMP JUMPDEST PUSH8 0xFFFFFFFFFFFFFFFF DUP2 GT ISZERO PUSH2 0xD7C JUMPI PUSH2 0xD7B PUSH2 0x3459 JUMP JUMPDEST JUMPDEST PUSH1 0x40 MLOAD SWAP1 DUP1 DUP3 MSTORE DUP1 PUSH1 0x20 MUL PUSH1 0x20 ADD DUP3 ADD PUSH1 0x40 MSTORE DUP1 ISZERO PUSH2 0xDB5 JUMPI DUP2 PUSH1 0x20 ADD JUMPDEST PUSH2 0xDA2 PUSH2 0x30ED JUMP JUMPDEST DUP2 MSTORE PUSH1 0x20 ADD SWAP1 PUSH1 0x1 SWAP1 SUB SWAP1 DUP2 PUSH2 0xD9A JUMPI SWAP1 POP JUMPDEST POP SWAP1 POP PUSH0 DUP4 SWAP1 POP JUMPDEST DUP3 DUP2 LT ISZERO PUSH2 0xFDE JUMPI DUP5 PUSH1 0x1 ADD PUSH0 DUP7 PUSH1 0x2 ADD DUP4 DUP2 SLOAD DUP2 LT PUSH2 0xDE0 JUMPI PUSH2 0xDDF PUSH2 0x42E5 JUMP JUMPDEST JUMPDEST SWAP1 PUSH0 MSTORE PUSH1 0x20 PUSH0 KECCAK256 SWAP1 PUSH1 0x4 SWAP2 DUP3 DUP3 DIV ADD SWAP2 SWAP1 MOD PUSH1 0x8 MUL SWAP1 SLOAD SWAP1 PUSH2 0x100 EXP SWAP1 DIV PUSH8 0xFFFFFFFFFFFFFFFF AND PUSH8 0xFFFFFFFFFFFFFFFF AND PUSH8 0xFFFFFFFFFFFFFFFF AND DUP2 MSTORE PUSH1 0x20 ADD SWAP1 DUP2 MSTORE PUSH1 0x20 ADD PUSH0 KECCAK256 PUSH1 0x40 MLOAD DUP1 PUSH1 0x60 ADD PUSH1 0x40 MSTORE SWAP1 DUP2 PUSH0 DUP3 ADD DUP1 SLOAD PUSH2 0xE43 SWAP1 PUSH2 0x4666 JUMP JUMPDEST DUP1 PUSH1 0x1F ADD PUSH1 0x20 DUP1 SWAP2 DIV MUL PUSH1 0x20 ADD PUSH1 0x40 MLOAD SWAP1 DUP2 ADD PUSH1 0x40 MSTORE DUP1 SWAP3 SWAP2 SWAP1 DUP2 DUP2 MSTORE PUSH1 0x20 ADD DUP3 DUP1 SLOAD PUSH2 0xE6F SWAP1 PUSH2 0x4666 JUMP JUMPDEST DUP1 ISZERO PUSH2 0xEBA JUMPI DUP1 PUSH1 0x1F LT PUSH2 0xE91 JUMPI PUSH2 0x100 DUP1 DUP4 SLOAD DIV MUL DUP4 MSTORE SWAP2 PUSH1 0x20 ADD SWAP2 PUSH2 0xEBA JUMP JUMPDEST DUP3 ADD SWAP2 SWAP1 PUSH0 MSTORE PUSH1 0x20 PUSH0 KECCAK256 SWAP1 JUMPDEST DUP2 SLOAD DUP2 MSTORE SWAP1 PUSH1 0x1 ADD SWAP1 PUSH1 0x20 ADD DUP1 DUP4 GT PUSH2 0xE9D JUMPI DUP3 SWAP1 SUB PUSH1 0x1F AND DUP3 ADD SWAP2 JUMPDEST POP POP POP POP POP DUP2 MSTORE PUSH1 0x20 ADD PUSH1 0x1 DUP3 ADD PUSH0 SWAP1 SLOAD SWAP1 PUSH2 0x100 EXP SWAP1 DIV PUSH20 0xFFFFFFFFFFFFFFFFFFFFFFFFFFFFFFFFFFFFFFFF AND PUSH20 0xFFFFFFFFFFFFFFFFFFFFFFFFFFFFFFFFFFFFFFFF AND PUSH20 0xFFFFFFFFFFFFFFFFFFFFFFFFFFFFFFFFFFFFFFFF AND DUP2 MSTORE PUSH1 0x20 ADD PUSH1 0x2 DUP3 ADD DUP1 SLOAD PUSH2 0xF28 SWAP1 PUSH2 0x4666 JUMP JUMPDEST DUP1 PUSH1 0x1F ADD PUSH1 0x20 DUP1 SWAP2 DIV MUL PUSH1 0x20 ADD PUSH1 0x40 MLOAD SWAP1 DUP2 ADD PUSH1 0x40 MSTORE DUP1 SWAP3 SWAP2 SWAP1 DUP2 DUP2 MSTORE PUSH1 0x20 ADD DUP3 DUP1 SLOAD PUSH2 0xF54 SWAP1 PUSH2 0x4666 JUMP JUMPDEST DUP1 ISZERO PUSH2 0xF9F JUMPI DUP1 PUSH1 0x1F LT PUSH2 0xF76 JUMPI PUSH2 0x100 DUP1 DUP4 SLOAD DIV MUL DUP4 MSTORE SWAP2 PUSH1 0x20 ADD SWAP2 PUSH2 0xF9F JUMP JUMPDEST DUP3 ADD SWAP2 SWAP1 PUSH0 MSTORE PUSH1 0x20 PUSH0 KECCAK256 SWAP1 JUMPDEST DUP2 SLOAD DUP2 MSTORE SWAP1 PUSH1 0x1 ADD SWAP1 PUSH1 0x20 ADD DUP1 DUP4 GT PUSH2 0xF82 JUMPI DUP3 SWAP1 SUB PUSH1 0x1F AND DUP3 ADD SWAP2 JUMPDEST POP POP POP POP POP DUP2 MSTORE POP POP DUP3 DUP6 DUP4 PUSH2 0xFB5 SWAP2 SWAP1 PUSH2 0x4606 JUMP JUMPDEST DUP2 MLOAD DUP2 LT PUSH2 0xFC6 JUMPI PUSH2 0xFC5 PUSH2 0x42E5 JUMP JUMPDEST JUMPDEST PUSH1 0x20 MUL PUSH1 0x20 ADD ADD DUP2 SWAP1 MSTORE POP DUP1 DUP1 PUSH1 0x1 ADD SWAP2 POP POP PUSH2 0xDBD JUMP JUMPDEST POP DUP1 SWAP5 POP POP POP POP POP SWAP3 SWAP2 POP POP JUMP JUMPDEST PUSH2 0xFF4 PUSH2 0x1DE1 JUMP JUMPDEST PUSH2 0xFFD DUP2 PUSH2 0x21A3 JUMP JUMPDEST POP JUMP JUMPDEST PUSH0 PUSH2 0x1009 PUSH2 0x1DBA JUMP JUMPDEST PUSH1 0x2 ADD DUP1 SLOAD SWAP1 POP SWAP1 POP SWAP1 JUMP JUMPDEST PUSH0 DUP2 PUSH1 0x1 DUP1 ISZERO PUSH2 0x106C JUMPI PUSH2 0x1028 DUP3 PUSH2 0x158E JUMP JUMPDEST PUSH2 0x1067 JUMPI PUSH1 0x40 MLOAD PUSH32 0x8C379A000000000000000000000000000000000000000000000000000000000 DUP2 MSTORE PUSH1 0x4 ADD PUSH2 0x105E SWAP1 PUSH2 0x4499 JUMP JUMPDEST PUSH1 0x40 MLOAD DUP1 SWAP2 SUB SWAP1 REVERT JUMPDEST PUSH2 0x10B6 JUMP JUMPDEST PUSH2 0x1075 DUP3 PUSH2 0x158E JUMP JUMPDEST ISZERO PUSH2 0x10B5 JUMPI PUSH1 0x40 MLOAD PUSH32 0x8C379A000000000000000000000000000000000000000000000000000000000 DUP2 MSTORE PUSH1 0x4 ADD PUSH2 0x10AC SWAP1 PUSH2 0x4501 JUMP JUMPDEST PUSH1 0x40 MLOAD DUP1 SWAP2 SUB SWAP1 REVERT JUMPDEST JUMPDEST PUSH2 0x10BE PUSH2 0x2202 JUMP JUMPDEST PUSH0 ADD PUSH0 DUP6 PUSH8 0xFFFFFFFFFFFFFFFF AND PUSH8 0xFFFFFFFFFFFFFFFF AND DUP2 MSTORE PUSH1 0x20 ADD SWAP1 DUP2 MSTORE PUSH1 0x20 ADD PUSH0 KECCAK256 PUSH0 SWAP1 SLOAD SWAP1 PUSH2 0x100 EXP SWAP1 DIV PUSH20 0xFFFFFFFFFFFFFFFFFFFFFFFFFFFFFFFFFFFFFFFF AND SWAP3 POP POP POP SWAP2 SWAP1 POP JUMP JUMPDEST PUSH2 0x1114 PUSH2 0x1DE1 JUMP JUMPDEST PUSH2 0x111D PUSH0 PUSH2 0x2229 JUMP JUMPDEST JUMP JUMPDEST PUSH0 PUSH2 0x1128 PUSH2 0x1CCA JUMP JUMPDEST SWAP1 POP DUP1 PUSH20 0xFFFFFFFFFFFFFFFFFFFFFFFFFFFFFFFFFFFFFFFF AND PUSH2 0x1149 PUSH2 0x1B7C JUMP JUMPDEST PUSH20 0xFFFFFFFFFFFFFFFFFFFFFFFFFFFFFFFFFFFFFFFF AND EQ PUSH2 0x11A1 JUMPI DUP1 PUSH1 0x40 MLOAD PUSH32 0x118CDAA700000000000000000000000000000000000000000000000000000000 DUP2 MSTORE PUSH1 0x4 ADD PUSH2 0x1198 SWAP2 SWAP1 PUSH2 0x334E JUMP JUMPDEST PUSH1 0x40 MLOAD DUP1 SWAP2 SUB SWAP1 REVERT JUMPDEST PUSH2 0x11AA DUP2 PUSH2 0x2229 JUMP JUMPDEST POP JUMP JUMPDEST DUP1 PUSH0 PUSH2 0x11B7 PUSH2 0x1CCA JUMP JUMPDEST SWAP1 POP PUSH2 0x11C2 DUP3 PUSH2 0x1015 JUMP JUMPDEST PUSH20 0xFFFFFFFFFFFFFFFFFFFFFFFFFFFFFFFFFFFFFFFF AND DUP2 PUSH20 0xFFFFFFFFFFFFFFFFFFFFFFFFFFFFFFFFFFFFFFFF AND EQ DUP1 PUSH2 0x122D JUMPI POP PUSH2 0x11FE PUSH2 0x145C JUMP JUMPDEST PUSH20 0xFFFFFFFFFFFFFFFFFFFFFFFFFFFFFFFFFFFFFFFF AND DUP2 PUSH20 0xFFFFFFFFFFFFFFFFFFFFFFFFFFFFFFFFFFFFFFFF AND EQ JUMPDEST PUSH2 0x126C JUMPI PUSH1 0x40 MLOAD PUSH32 0x8C379A000000000000000000000000000000000000000000000000000000000 DUP2 MSTORE PUSH1 0x4 ADD PUSH2 0x1263 SWAP1 PUSH2 0x4569 JUMP JUMPDEST PUSH1 0x40 MLOAD DUP1 SWAP2 SUB SWAP1 REVERT JUMPDEST PUSH2 0x1275 DUP4 PUSH2 0x2266 JUMP JUMPDEST POP POP POP JUMP JUMPDEST PUSH2 0x1282 PUSH2 0x3123 JUMP JUMPDEST DUP2 PUSH1 0x1 DUP1 ISZERO PUSH2 0x12D8 JUMPI PUSH2 0x1294 DUP3 PUSH2 0x158E JUMP JUMPDEST PUSH2 0x12D3 JUMPI PUSH1 0x40 MLOAD PUSH32 0x8C379A000000000000000000000000000000000000000000000000000000000 DUP2 MSTORE PUSH1 0x4 ADD PUSH2 0x12CA SWAP1 PUSH2 0x4499 JUMP JUMPDEST PUSH1 0x40 MLOAD DUP1 SWAP2 SUB SWAP1 REVERT JUMPDEST PUSH2 0x1322 JUMP JUMPDEST PUSH2 0x12E1 DUP3 PUSH2 0x158E JUMP JUMPDEST ISZERO PUSH2 0x1321 JUMPI PUSH1 0x40 MLOAD PUSH32 0x8C379A000000000000000000000000000000000000000000000000000000000 DUP2 MSTORE PUSH1 0x4 ADD PUSH2 0x1318 SWAP1 PUSH2 0x4501 JUMP JUMPDEST PUSH1 0x40 MLOAD DUP1 SWAP2 SUB SWAP1 REVERT JUMPDEST JUMPDEST PUSH0 PUSH2 0x132B PUSH2 0x1DBA JUMP JUMPDEST PUSH0 ADD PUSH0 DUP8 PUSH20 0xFFFFFFFFFFFFFFFFFFFFFFFFFFFFFFFFFFFFFFFF AND PUSH20 0xFFFFFFFFFFFFFFFFFFFFFFFFFFFFFFFFFFFFFFFF AND DUP2 MSTORE PUSH1 0x20 ADD SWAP1 DUP2 MSTORE PUSH1 0x20 ADD PUSH0 KECCAK256 PUSH0 DUP7 PUSH8 0xFFFFFFFFFFFFFFFF AND PUSH8 0xFFFFFFFFFFFFFFFF AND DUP2 MSTORE PUSH1 0x20 ADD SWAP1 DUP2 MSTORE PUSH1 0x20 ADD PUSH0 KECCAK256 SWAP1 POP PUSH1 0x40 MLOAD DUP1 PUSH1 0x80 ADD PUSH1 0x40 MSTORE DUP1 DUP3 PUSH0 ADD PUSH0 SWAP1 SLOAD SWAP1 PUSH2 0x100 EXP SWAP1 DIV PUSH1 0xFF AND ISZERO ISZERO DUP2 MSTORE PUSH1 0x20 ADD DUP3 PUSH1 0x2 ADD DUP1 SLOAD PUSH2 0x13BE SWAP1 PUSH2 0x4666 JUMP JUMPDEST DUP1 PUSH1 0x1F ADD PUSH1 0x20 DUP1 SWAP2 DIV MUL PUSH1 0x20 ADD PUSH1 0x40 MLOAD SWAP1 DUP2 ADD PUSH1 0x40 MSTORE DUP1 SWAP3 SWAP2 SWAP1 DUP2 DUP2 MSTORE PUSH1 0x20 ADD DUP3 DUP1 SLOAD PUSH2 0x13EA SWAP1 PUSH2 0x4666 JUMP JUMPDEST DUP1 ISZERO PUSH2 0x1435 JUMPI DUP1 PUSH1 0x1F LT PUSH2 0x140C JUMPI PUSH2 0x100 DUP1 DUP4 SLOAD DIV MUL DUP4 MSTORE SWAP2 PUSH1 0x20 ADD SWAP2 PUSH2 0x1435 JUMP JUMPDEST DUP3 ADD SWAP2 SWAP1 PUSH0 MSTORE PUSH1 0x20 PUSH0 KECCAK256 SWAP1 JUMPDEST DUP2 SLOAD DUP2 MSTORE SWAP1 PUSH1 0x1 ADD SWAP1 PUSH1 0x20 ADD DUP1 DUP4 GT PUSH2 0x1418 JUMPI DUP3 SWAP1 SUB PUSH1 0x1F AND DUP3 ADD SWAP2 JUMPDEST POP POP POP POP POP DUP2 MSTORE PUSH1 0x20 ADD DUP3 PUSH1 0x3 ADD SLOAD DUP2 MSTORE PUSH1 0x20 ADD DUP3 PUSH1 0x4 ADD SLOAD DUP2 MSTORE POP SWAP4 POP POP POP POP SWAP3 SWAP2 POP POP JUMP JUMPDEST PUSH0 PUSH0 PUSH2 0x1466 PUSH2 0x2350 JUMP JUMPDEST SWAP1 POP DUP1 PUSH0 ADD PUSH0 SWAP1 SLOAD SWAP1 PUSH2 0x100 EXP SWAP1 DIV PUSH20 0xFFFFFFFFFFFFFFFFFFFFFFFFFFFFFFFFFFFFFFFF AND SWAP2 POP POP SWAP1 JUMP JUMPDEST PUSH0 PUSH2 0x149A PUSH2 0x2377 JUMP JUMPDEST PUSH0 ADD PUSH0 DUP4 PUSH20 0xFFFFFFFFFFFFFFFFFFFFFFFFFFFFFFFFFFFFFFFF AND PUSH20 0xFFFFFFFFFFFFFFFFFFFFFFFFFFFFFFFFFFFFFFFF AND DUP2 MSTORE PUSH1 0x20 ADD SWAP1 DUP2 MSTORE PUSH1 0x20 ADD PUSH0 KECCAK256 PUSH0 SWAP1 SLOAD SWAP1 PUSH2 0x100 EXP SWAP1 DIV PUSH1 0xFF AND SWAP1 POP SWAP2 SWAP1 POP JUMP JUMPDEST PUSH2 0x14F5 DUP3 DUP3 PUSH2 0x239E JUMP JUMPDEST PUSH2 0x14FD PUSH2 0x1CCA JUMP JUMPDEST PUSH20 0xFFFFFFFFFFFFFFFFFFFFFFFFFFFFFFFFFFFFFFFF AND DUP3 PUSH8 0xFFFFFFFFFFFFFFFF AND PUSH32 0x26DB2C5D21D517FA8C11AF3AE555AF7F4A560B9F70A5A32E73E6CD94D0CAE3E8 DUP4 DUP1 PUSH0 ADD SWAP1 PUSH2 0x154E SWAP2 SWAP1 PUSH2 0x46A2 JUMP JUMPDEST DUP6 PUSH1 0x20 ADD PUSH1 0x20 DUP2 ADD SWAP1 PUSH2 0x1561 SWAP2 SWAP1 PUSH2 0x39E6 JUMP JUMPDEST DUP7 DUP1 PUSH1 0x40 ADD SWAP1 PUSH2 0x1571 SWAP2 SWAP1 PUSH2 0x4704 JUMP JUMPDEST PUSH1 0x40 MLOAD PUSH2 0x1582 SWAP6 SWAP5 SWAP4 SWAP3 SWAP2 SWAP1 PUSH2 0x47CE JUMP JUMPDEST PUSH1 0x40 MLOAD DUP1 SWAP2 SUB SWAP1 LOG3 POP POP JUMP JUMPDEST PUSH0 PUSH0 PUSH20 0xFFFFFFFFFFFFFFFFFFFFFFFFFFFFFFFFFFFFFFFF AND PUSH2 0x15AE PUSH2 0x1DBA JUMP JUMPDEST PUSH1 0x1 ADD PUSH0 DUP5 PUSH8 0xFFFFFFFFFFFFFFFF AND PUSH8 0xFFFFFFFFFFFFFFFF AND DUP2 MSTORE PUSH1 0x20 ADD SWAP1 DUP2 MSTORE PUSH1 0x20 ADD PUSH0 KECCAK256 PUSH1 0x1 ADD PUSH0 SWAP1 SLOAD SWAP1 PUSH2 0x100 EXP SWAP1 DIV PUSH20 0xFFFFFFFFFFFFFFFFFFFFFFFFFFFFFFFFFFFFFFFF AND PUSH20 0xFFFFFFFFFFFFFFFFFFFFFFFFFFFFFFFFFFFFFFFF AND EQ ISZERO SWAP1 POP SWAP2 SWAP1 POP JUMP JUMPDEST PUSH2 0x1620 DUP3 DUP3 PUSH2 0x2408 JUMP JUMPDEST PUSH0 PUSH0 SWAP1 POP JUMPDEST DUP3 MLOAD DUP2 LT ISZERO PUSH2 0x16AD JUMPI PUSH2 0x1636 PUSH2 0x1CCA JUMP JUMPDEST PUSH20 0xFFFFFFFFFFFFFFFFFFFFFFFFFFFFFFFFFFFFFFFF AND DUP4 DUP3 DUP2 MLOAD DUP2 LT PUSH2 0x165F JUMPI PUSH2 0x165E PUSH2 0x42E5 JUMP JUMPDEST JUMPDEST PUSH1 0x20 MUL PUSH1 0x20 ADD ADD MLOAD PUSH0 ADD MLOAD PUSH8 0xFFFFFFFFFFFFFFFF AND PUSH32 0x6979BC9C3E552C05DD9859285F1ED7A172E52EF39E1DCE9C720E5BF8D82C9F4C PUSH1 0x40 MLOAD PUSH1 0x40 MLOAD DUP1 SWAP2 SUB SWAP1 LOG3 DUP1 DUP1 PUSH1 0x1 ADD SWAP2 POP POP PUSH2 0x1625 JUMP JUMPDEST POP POP POP JUMP JUMPDEST PUSH2 0x16BF DUP6 DUP6 DUP6 DUP6 DUP6 PUSH2 0x2663 JUMP JUMPDEST PUSH2 0x16C7 PUSH2 0x1CCA JUMP JUMPDEST PUSH20 0xFFFFFFFFFFFFFFFFFFFFFFFFFFFFFFFFFFFFFFFF AND DUP6 PUSH8 0xFFFFFFFFFFFFFFFF AND PUSH32 0x6979BC9C3E552C05DD9859285F1ED7A172E52EF39E1DCE9C720E5BF8D82C9F4C PUSH1 0x40 MLOAD PUSH1 0x40 MLOAD DUP1 SWAP2 SUB SWAP1 LOG3 POP POP POP POP POP JUMP JUMPDEST PUSH2 0x1723 PUSH2 0x30ED JUMP JUMPDEST DUP2 PUSH1 0x1 DUP1 ISZERO PUSH2 0x1779 JUMPI PUSH2 0x1735 DUP3 PUSH2 0x158E JUMP JUMPDEST PUSH2 0x1774 JUMPI PUSH1 0x40 MLOAD PUSH32 0x8C379A000000000000000000000000000000000000000000000000000000000 DUP2 MSTORE PUSH1 0x4 ADD PUSH2 0x176B SWAP1 PUSH2 0x4499 JUMP JUMPDEST PUSH1 0x40 MLOAD DUP1 SWAP2 SUB SWAP1 REVERT JUMPDEST PUSH2 0x17C3 JUMP JUMPDEST PUSH2 0x1782 DUP3 PUSH2 0x158E JUMP JUMPDEST ISZERO PUSH2 0x17C2 JUMPI PUSH1 0x40 MLOAD PUSH32 0x8C379A000000000000000000000000000000000000000000000000000000000 DUP2 MSTORE PUSH1 0x4 ADD PUSH2 0x17B9 SWAP1 PUSH2 0x4501 JUMP JUMPDEST PUSH1 0x40 MLOAD DUP1 SWAP2 SUB SWAP1 REVERT JUMPDEST JUMPDEST PUSH2 0x17CB PUSH2 0x1DBA JUMP JUMPDEST PUSH1 0x1 ADD PUSH0 DUP6 PUSH8 0xFFFFFFFFFFFFFFFF AND PUSH8 0xFFFFFFFFFFFFFFFF AND DUP2 MSTORE PUSH1 0x20 ADD SWAP1 DUP2 MSTORE PUSH1 0x20 ADD PUSH0 KECCAK256 PUSH1 0x40 MLOAD DUP1 PUSH1 0x60 ADD PUSH1 0x40 MSTORE SWAP1 DUP2 PUSH0 DUP3 ADD DUP1 SLOAD PUSH2 0x180B SWAP1 PUSH2 0x4666 JUMP JUMPDEST DUP1 PUSH1 0x1F ADD PUSH1 0x20 DUP1 SWAP2 DIV MUL PUSH1 0x20 ADD PUSH1 0x40 MLOAD SWAP1 DUP2 ADD PUSH1 0x40 MSTORE DUP1 SWAP3 SWAP2 SWAP1 DUP2 DUP2 MSTORE PUSH1 0x20 ADD DUP3 DUP1 SLOAD PUSH2 0x1837 SWAP1 PUSH2 0x4666 JUMP JUMPDEST DUP1 ISZERO PUSH2 0x1882 JUMPI DUP1 PUSH1 0x1F LT PUSH2 0x1859 JUMPI PUSH2 0x100 DUP1 DUP4 SLOAD DIV MUL DUP4 MSTORE SWAP2 PUSH1 0x20 ADD SWAP2 PUSH2 0x1882 JUMP JUMPDEST DUP3 ADD SWAP2 SWAP1 PUSH0 MSTORE PUSH1 0x20 PUSH0 KECCAK256 SWAP1 JUMPDEST DUP2 SLOAD DUP2 MSTORE SWAP1 PUSH1 0x1 ADD SWAP1 PUSH1 0x20 ADD DUP1 DUP4 GT PUSH2 0x1865 JUMPI DUP3 SWAP1 SUB PUSH1 0x1F AND DUP3 ADD SWAP2 JUMPDEST POP POP POP POP POP DUP2 MSTORE PUSH1 0x20 ADD PUSH1 0x1 DUP3 ADD PUSH0 SWAP1 SLOAD SWAP1 PUSH2 0x100 EXP SWAP1 DIV PUSH20 0xFFFFFFFFFFFFFFFFFFFFFFFFFFFFFFFFFFFFFFFF AND PUSH20 0xFFFFFFFFFFFFFFFFFFFFFFFFFFFFFFFFFFFFFFFF AND PUSH20 0xFFFFFFFFFFFFFFFFFFFFFFFFFFFFFFFFFFFFFFFF AND DUP2 MSTORE PUSH1 0x20 ADD PUSH1 0x2 DUP3 ADD DUP1 SLOAD PUSH2 0x18F0 SWAP1 PUSH2 0x4666 JUMP JUMPDEST DUP1 PUSH1 0x1F ADD PUSH1 0x20 DUP1 SWAP2 DIV MUL PUSH1 0x20 ADD PUSH1 0x40 MLOAD SWAP1 DUP2 ADD PUSH1 0x40 MSTORE DUP1 SWAP3 SWAP2 SWAP1 DUP2 DUP2 MSTORE PUSH1 0x20 ADD DUP3 DUP1 SLOAD PUSH2 0x191C SWAP1 PUSH2 0x4666 JUMP JUMPDEST DUP1 ISZERO PUSH2 0x1967 JUMPI DUP1 PUSH1 0x1F LT PUSH2 0x193E JUMPI PUSH2 0x100 DUP1 DUP4 SLOAD DIV MUL DUP4 MSTORE SWAP2 PUSH1 0x20 ADD SWAP2 PUSH2 0x1967 JUMP JUMPDEST DUP3 ADD SWAP2 SWAP1 PUSH0 MSTORE PUSH1 0x20 PUSH0 KECCAK256 SWAP1 JUMPDEST DUP2 SLOAD DUP2 MSTORE SWAP1 PUSH1 0x1 ADD SWAP1 PUSH1 0x20 ADD DUP1 DUP4 GT PUSH2 0x194A JUMPI DUP3 SWAP1 SUB PUSH1 0x1F AND DUP3 ADD SWAP2 JUMPDEST POP POP POP POP POP DUP2 MSTORE POP POP SWAP3 POP POP POP SWAP2 SWAP1 POP JUMP JUMPDEST DUP2 PUSH0 PUSH2 0x1983 PUSH2 0x1CCA JUMP JUMPDEST SWAP1 POP PUSH2 0x198E DUP3 PUSH2 0x1015 JUMP JUMPDEST PUSH20 0xFFFFFFFFFFFFFFFFFFFFFFFFFFFFFFFFFFFFFFFF AND DUP2 PUSH20 0xFFFFFFFFFFFFFFFFFFFFFFFFFFFFFFFFFFFFFFFF AND EQ DUP1 PUSH2 0x19F9 JUMPI POP PUSH2 0x19CA PUSH2 0x145C JUMP JUMPDEST PUSH20 0xFFFFFFFFFFFFFFFFFFFFFFFFFFFFFFFFFFFFFFFF AND DUP2 PUSH20 0xFFFFFFFFFFFFFFFFFFFFFFFFFFFFFFFFFFFFFFFF AND EQ JUMPDEST PUSH2 0x1A38 JUMPI PUSH1 0x40 MLOAD PUSH32 0x8C379A000000000000000000000000000000000000000000000000000000000 DUP2 MSTORE PUSH1 0x4 ADD PUSH2 0x1A2F SWAP1 PUSH2 0x4569 JUMP JUMPDEST PUSH1 0x40 MLOAD DUP1 SWAP2 SUB SWAP1 REVERT JUMPDEST PUSH2 0x1A42 DUP5 DUP5 PUSH2 0x26D0 JUMP JUMPDEST POP POP POP POP JUMP JUMPDEST PUSH0 DUP3 PUSH1 0x1 DUP1 ISZERO PUSH2 0x1A9F JUMPI PUSH2 0x1A5B DUP3 PUSH2 0x158E JUMP JUMPDEST PUSH2 0x1A9A JUMPI PUSH1 0x40 MLOAD PUSH32 0x8C379A000000000000000000000000000000000000000000000000000000000 DUP2 MSTORE PUSH1 0x4 ADD PUSH2 0x1A91 SWAP1 PUSH2 0x4499 JUMP JUMPDEST PUSH1 0x40 MLOAD DUP1 SWAP2 SUB SWAP1 REVERT JUMPDEST PUSH2 0x1AE9 JUMP JUMPDEST PUSH2 0x1AA8 DUP3 PUSH2 0x158E JUMP JUMPDEST ISZERO PUSH2 0x1AE8 JUMPI PUSH1 0x40 MLOAD PUSH32 0x8C379A000000000000000000000000000000000000000000000000000000000 DUP2 MSTORE PUSH1 0x4 ADD PUSH2 0x1ADF SWAP1 PUSH2 0x4501 JUMP JUMPDEST PUSH1 0x40 MLOAD DUP1 SWAP2 SUB SWAP1 REVERT JUMPDEST JUMPDEST PUSH2 0x1AF1 PUSH2 0x1DBA JUMP JUMPDEST PUSH0 ADD PUSH0 DUP8 PUSH20 0xFFFFFFFFFFFFFFFFFFFFFFFFFFFFFFFFFFFFFFFF AND PUSH20 0xFFFFFFFFFFFFFFFFFFFFFFFFFFFFFFFFFFFFFFFF AND DUP2 MSTORE PUSH1 0x20 ADD SWAP1 DUP2 MSTORE PUSH1 0x20 ADD PUSH0 KECCAK256 PUSH0 DUP7 PUSH8 0xFFFFFFFFFFFFFFFF AND PUSH8 0xFFFFFFFFFFFFFFFF AND DUP2 MSTORE PUSH1 0x20 ADD SWAP1 DUP2 MSTORE PUSH1 0x20 ADD PUSH0 KECCAK256 PUSH1 0x1 ADD DUP5 PUSH1 0x40 MLOAD PUSH2 0x1B62 SWAP2 SWAP1 PUSH2 0x484F JUMP JUMPDEST SWAP1 DUP2 MSTORE PUSH1 0x20 ADD PUSH1 0x40 MLOAD DUP1 SWAP2 SUB SWAP1 KECCAK256 SLOAD SWAP3 POP POP POP SWAP4 SWAP3 POP POP POP JUMP JUMPDEST PUSH0 PUSH0 PUSH2 0x1B86 PUSH2 0x27E6 JUMP JUMPDEST SWAP1 POP DUP1 PUSH0 ADD PUSH0 SWAP1 SLOAD SWAP1 PUSH2 0x100 EXP SWAP1 DIV PUSH20 0xFFFFFFFFFFFFFFFFFFFFFFFFFFFFFFFFFFFFFFFF AND SWAP2 POP POP SWAP1 JUMP JUMPDEST PUSH2 0x1BB9 PUSH2 0x1DE1 JUMP JUMPDEST PUSH0 PUSH2 0x1BC2 PUSH2 0x27E6 JUMP JUMPDEST SWAP1 POP DUP2 DUP2 PUSH0 ADD PUSH0 PUSH2 0x100 EXP DUP2 SLOAD DUP2 PUSH20 0xFFFFFFFFFFFFFFFFFFFFFFFFFFFFFFFFFFFFFFFF MUL NOT AND SWAP1 DUP4 PUSH20 0xFFFFFFFFFFFFFFFFFFFFFFFFFFFFFFFFFFFFFFFF AND MUL OR SWAP1 SSTORE POP DUP2 PUSH20 0xFFFFFFFFFFFFFFFFFFFFFFFFFFFFFFFFFFFFFFFF AND PUSH2 0x1C24 PUSH2 0x145C JUMP JUMPDEST PUSH20 0xFFFFFFFFFFFFFFFFFFFFFFFFFFFFFFFFFFFFFFFF AND PUSH32 0x38D16B8CAC22D99FC7C124B9CD0DE2D3FA1FAEF420BFE791D8C362D765E22700 PUSH1 0x40 MLOAD PUSH1 0x40 MLOAD DUP1 SWAP2 SUB SWAP1 LOG3 POP POP JUMP JUMPDEST PUSH1 0x40 MLOAD DUP1 PUSH1 0x40 ADD PUSH1 0x40 MSTORE DUP1 PUSH1 0x5 DUP2 MSTORE PUSH1 0x20 ADD PUSH32 0x312E312E31000000000000000000000000000000000000000000000000000000 DUP2 MSTORE POP DUP2 JUMP JUMPDEST PUSH0 PUSH32 0x70325635D67D74932012FA921CCB2F335D3B1D69E3A487F50D001CC65F531600 SWAP1 POP SWAP1 JUMP JUMPDEST PUSH0 CALLER SWAP1 POP SWAP1 JUMP JUMPDEST DUP1 PUSH1 0x1 DUP1 ISZERO PUSH2 0x1D27 JUMPI PUSH2 0x1CE3 DUP3 PUSH2 0x158E JUMP JUMPDEST PUSH2 0x1D22 JUMPI PUSH1 0x40 MLOAD PUSH32 0x8C379A000000000000000000000000000000000000000000000000000000000 DUP2 MSTORE PUSH1 0x4 ADD PUSH2 0x1D19 SWAP1 PUSH2 0x4499 JUMP JUMPDEST PUSH1 0x40 MLOAD DUP1 SWAP2 SUB SWAP1 REVERT JUMPDEST PUSH2 0x1D71 JUMP JUMPDEST PUSH2 0x1D30 DUP3 PUSH2 0x158E JUMP JUMPDEST ISZERO PUSH2 0x1D70 JUMPI PUSH1 0x40 MLOAD PUSH32 0x8C379A000000000000000000000000000000000000000000000000000000000 DUP2 MSTORE PUSH1 0x4 ADD PUSH2 0x1D67 SWAP1 PUSH2 0x4501 JUMP JUMPDEST PUSH1 0x40 MLOAD DUP1 SWAP2 SUB SWAP1 REVERT JUMPDEST JUMPDEST PUSH0 PUSH2 0x1D7A PUSH2 0x1CA3 JUMP JUMPDEST PUSH0 ADD PUSH0 DUP6 PUSH8 0xFFFFFFFFFFFFFFFF AND PUSH8 0xFFFFFFFFFFFFFFFF AND DUP2 MSTORE PUSH1 0x20 ADD SWAP1 DUP2 MSTORE PUSH1 0x20 ADD PUSH0 KECCAK256 PUSH0 PUSH2 0x100 EXP DUP2 SLOAD DUP2 PUSH1 0xFF MUL NOT AND SWAP1 DUP4 ISZERO ISZERO MUL OR SWAP1 SSTORE POP POP POP POP JUMP JUMPDEST PUSH0 PUSH32 0x512D18C55869273FEC77E70D8A8586E3FB133E90F1DB24C6BCF4FF3506EF6A00 SWAP1 POP SWAP1 JUMP JUMPDEST PUSH2 0x1DE9 PUSH2 0x1CCA JUMP JUMPDEST PUSH20 0xFFFFFFFFFFFFFFFFFFFFFFFFFFFFFFFFFFFFFFFF AND PUSH2 0x1E07 PUSH2 0x145C JUMP JUMPDEST PUSH20 0xFFFFFFFFFFFFFFFFFFFFFFFFFFFFFFFFFFFFFFFF AND EQ PUSH2 0x1E66 JUMPI PUSH2 0x1E2A PUSH2 0x1CCA JUMP JUMPDEST PUSH1 0x40 MLOAD PUSH32 0x118CDAA700000000000000000000000000000000000000000000000000000000 DUP2 MSTORE PUSH1 0x4 ADD PUSH2 0x1E5D SWAP2 SWAP1 PUSH2 0x334E JUMP JUMPDEST PUSH1 0x40 MLOAD DUP1 SWAP2 SUB SWAP1 REVERT JUMPDEST JUMP JUMPDEST DUP1 PUSH2 0x1E71 PUSH2 0x1DBA JUMP JUMPDEST PUSH1 0x3 ADD PUSH0 PUSH2 0x100 EXP DUP2 SLOAD DUP2 PUSH20 0xFFFFFFFFFFFFFFFFFFFFFFFFFFFFFFFFFFFFFFFF MUL NOT AND SWAP1 DUP4 PUSH20 0xFFFFFFFFFFFFFFFFFFFFFFFFFFFFFFFFFFFFFFFF AND MUL OR SWAP1 SSTORE POP POP JUMP JUMPDEST PUSH0 PUSH32 0xF0C57E16840DF040F15088DC2F81FE391C3923BEC73E23A9662EFC9C229C6A00 SWAP1 POP SWAP1 JUMP JUMPDEST PUSH2 0x1EE3 PUSH2 0x280D JUMP JUMPDEST PUSH2 0x1EEC DUP2 PUSH2 0x284D JUMP JUMPDEST POP JUMP JUMPDEST PUSH2 0x1EF7 PUSH2 0x280D JUMP JUMPDEST PUSH2 0x1F00 DUP2 PUSH2 0x28D1 JUMP JUMPDEST POP JUMP JUMPDEST PUSH1 0x60 PUSH0 PUSH2 0x1F0F DUP9 PUSH2 0x171B JUMP JUMPDEST PUSH1 0x20 ADD MLOAD SWAP1 POP PUSH2 0x1F1E DUP2 PUSH2 0x1491 JUMP JUMPDEST PUSH2 0x1F5D JUMPI PUSH1 0x40 MLOAD PUSH32 0x8C379A000000000000000000000000000000000000000000000000000000000 DUP2 MSTORE PUSH1 0x4 ADD PUSH2 0x1F54 SWAP1 PUSH2 0x48AF JUMP JUMPDEST PUSH1 0x40 MLOAD DUP1 SWAP2 SUB SWAP1 REVERT JUMPDEST PUSH2 0x1F6B DUP9 DUP9 DUP9 DUP9 DUP9 DUP9 PUSH2 0x28E5 JUMP JUMPDEST SWAP2 POP POP SWAP7 SWAP6 POP POP POP POP POP POP JUMP JUMPDEST DUP1 PUSH20 0xFFFFFFFFFFFFFFFFFFFFFFFFFFFFFFFFFFFFFFFF AND PUSH4 0x1FFC9A7 PUSH32 0x39DB6A4800000000000000000000000000000000000000000000000000000000 PUSH1 0x40 MLOAD DUP3 PUSH4 0xFFFFFFFF AND PUSH1 0xE0 SHL DUP2 MSTORE PUSH1 0x4 ADD PUSH2 0x1FD1 SWAP2 SWAP1 PUSH2 0x4907 JUMP JUMPDEST PUSH1 0x20 PUSH1 0x40 MLOAD DUP1 DUP4 SUB DUP2 DUP7 GAS STATICCALL ISZERO DUP1 ISZERO PUSH2 0x1FEC JUMPI RETURNDATASIZE PUSH0 PUSH0 RETURNDATACOPY RETURNDATASIZE PUSH0 REVERT JUMPDEST POP POP POP POP PUSH1 0x40 MLOAD RETURNDATASIZE PUSH1 0x1F NOT PUSH1 0x1F DUP3 ADD AND DUP3 ADD DUP1 PUSH1 0x40 MSTORE POP DUP2 ADD SWAP1 PUSH2 0x2010 SWAP2 SWAP1 PUSH2 0x494A JUMP JUMPDEST PUSH2 0x204F JUMPI PUSH1 0x40 MLOAD PUSH32 0x8C379A000000000000000000000000000000000000000000000000000000000 DUP2 MSTORE PUSH1 0x4 ADD PUSH2 0x2046 SWAP1 PUSH2 0x49E5 JUMP JUMPDEST PUSH1 0x40 MLOAD DUP1 SWAP2 SUB SWAP1 REVERT JUMPDEST PUSH1 0x1 PUSH2 0x2059 PUSH2 0x2377 JUMP JUMPDEST PUSH0 ADD PUSH0 DUP4 PUSH20 0xFFFFFFFFFFFFFFFFFFFFFFFFFFFFFFFFFFFFFFFF AND PUSH20 0xFFFFFFFFFFFFFFFFFFFFFFFFFFFFFFFFFFFFFFFF AND DUP2 MSTORE PUSH1 0x20 ADD SWAP1 DUP2 MSTORE PUSH1 0x20 ADD PUSH0 KECCAK256 PUSH0 PUSH2 0x100 EXP DUP2 SLOAD DUP2 PUSH1 0xFF MUL NOT AND SWAP1 DUP4 ISZERO ISZERO MUL OR SWAP1 SSTORE POP POP JUMP JUMPDEST PUSH0 PUSH0 PUSH0 DUP5 GT PUSH2 0x20F3 JUMPI PUSH1 0x40 MLOAD PUSH32 0x8C379A000000000000000000000000000000000000000000000000000000000 DUP2 MSTORE PUSH1 0x4 ADD PUSH2 0x20EA SWAP1 PUSH2 0x4A4D JUMP JUMPDEST PUSH1 0x40 MLOAD DUP1 SWAP2 SUB SWAP1 REVERT JUMPDEST DUP3 DUP5 GT ISZERO PUSH2 0x2136 JUMPI PUSH1 0x40 MLOAD PUSH32 0x8C379A000000000000000000000000000000000000000000000000000000000 DUP2 MSTORE PUSH1 0x4 ADD PUSH2 0x212D SWAP1 PUSH2 0x4AB5 JUMP JUMPDEST PUSH1 0x40 MLOAD DUP1 SWAP2 SUB SWAP1 REVERT JUMPDEST DUP6 DUP6 LT PUSH2 0x2178 JUMPI PUSH1 0x40 MLOAD PUSH32 0x8C379A000000000000000000000000000000000000000000000000000000000 DUP2 MSTORE PUSH1 0x4 ADD PUSH2 0x216F SWAP1 PUSH2 0x4B1D JUMP JUMPDEST PUSH1 0x40 MLOAD DUP1 SWAP2 SUB SWAP1 REVERT JUMPDEST PUSH0 DUP5 DUP7 PUSH2 0x2185 SWAP2 SWAP1 PUSH2 0x4B3B JUMP JUMPDEST SWAP1 POP DUP7 DUP2 GT ISZERO PUSH2 0x2193 JUMPI DUP7 SWAP1 POP JUMPDEST DUP6 DUP2 SWAP3 POP SWAP3 POP POP SWAP5 POP SWAP5 SWAP3 POP POP POP JUMP JUMPDEST PUSH0 PUSH2 0x21AC PUSH2 0x2377 JUMP JUMPDEST PUSH0 ADD PUSH0 DUP4 PUSH20 0xFFFFFFFFFFFFFFFFFFFFFFFFFFFFFFFFFFFFFFFF AND PUSH20 0xFFFFFFFFFFFFFFFFFFFFFFFFFFFFFFFFFFFFFFFF AND DUP2 MSTORE PUSH1 0x20 ADD SWAP1 DUP2 MSTORE PUSH1 0x20 ADD PUSH0 KECCAK256 PUSH0 PUSH2 0x100 EXP DUP2 SLOAD DUP2 PUSH1 0xFF MUL NOT AND SWAP1 DUP4 ISZERO ISZERO MUL OR SWAP1 SSTORE POP POP JUMP JUMPDEST PUSH0 PUSH32 0x6209BDC3799F5201408F7A7D4D471BB2A0100353E618451674B93F730B006A00 SWAP1 POP SWAP1 JUMP JUMPDEST PUSH0 PUSH2 0x2232 PUSH2 0x27E6 JUMP JUMPDEST SWAP1 POP DUP1 PUSH0 ADD PUSH0 PUSH2 0x100 EXP DUP2 SLOAD SWAP1 PUSH20 0xFFFFFFFFFFFFFFFFFFFFFFFFFFFFFFFFFFFFFFFF MUL NOT AND SWAP1 SSTORE PUSH2 0x2262 DUP3 PUSH2 0x294B JUMP JUMPDEST POP POP JUMP JUMPDEST DUP1 PUSH1 0x1 DUP1 ISZERO PUSH2 0x22BC JUMPI PUSH2 0x2278 DUP3 PUSH2 0x158E JUMP JUMPDEST PUSH2 0x22B7 JUMPI PUSH1 0x40 MLOAD PUSH32 0x8C379A000000000000000000000000000000000000000000000000000000000 DUP2 MSTORE PUSH1 0x4 ADD PUSH2 0x22AE SWAP1 PUSH2 0x4499 JUMP JUMPDEST PUSH1 0x40 MLOAD DUP1 SWAP2 SUB SWAP1 REVERT JUMPDEST PUSH2 0x2306 JUMP JUMPDEST PUSH2 0x22C5 DUP3 PUSH2 0x158E JUMP JUMPDEST ISZERO PUSH2 0x2305 JUMPI PUSH1 0x40 MLOAD PUSH32 0x8C379A000000000000000000000000000000000000000000000000000000000 DUP2 MSTORE PUSH1 0x4 ADD PUSH2 0x22FC SWAP1 PUSH2 0x4501 JUMP JUMPDEST PUSH1 0x40 MLOAD DUP1 SWAP2 SUB SWAP1 REVERT JUMPDEST JUMPDEST PUSH1 0x1 PUSH2 0x2310 PUSH2 0x1CA3 JUMP JUMPDEST PUSH0 ADD PUSH0 DUP6 PUSH8 0xFFFFFFFFFFFFFFFF AND PUSH8 0xFFFFFFFFFFFFFFFF AND DUP2 MSTORE PUSH1 0x20 ADD SWAP1 DUP2 MSTORE PUSH1 0x20 ADD PUSH0 KECCAK256 PUSH0 PUSH2 0x100 EXP DUP2 SLOAD DUP2 PUSH1 0xFF MUL NOT AND SWAP1 DUP4 ISZERO ISZERO MUL OR SWAP1 SSTORE POP POP POP POP JUMP JUMPDEST PUSH0 PUSH32 0x9016D09D72D40FDAE2FD8CEAC6B6234C7706214FD39C1CD1E609A0528C199300 SWAP1 POP SWAP1 JUMP JUMPDEST PUSH0 PUSH32 0x76AA24E3538905838CC74060B2AA4C054B1E474AACF44741879E1850715E9300 SWAP1 POP SWAP1 JUMP JUMPDEST DUP1 PUSH1 0x20 ADD PUSH1 0x20 DUP2 ADD SWAP1 PUSH2 0x23B1 SWAP2 SWAP1 PUSH2 0x39E6 JUMP JUMPDEST PUSH2 0x23BA DUP2 PUSH2 0x1491 JUMP JUMPDEST PUSH2 0x23F9 JUMPI PUSH1 0x40 MLOAD PUSH32 0x8C379A000000000000000000000000000000000000000000000000000000000 DUP2 MSTORE PUSH1 0x4 ADD PUSH2 0x23F0 SWAP1 PUSH2 0x48AF JUMP JUMPDEST PUSH1 0x40 MLOAD DUP1 SWAP2 SUB SWAP1 REVERT JUMPDEST PUSH2 0x2403 DUP4 DUP4 PUSH2 0x2A1C JUMP JUMPDEST POP POP POP JUMP JUMPDEST PUSH0 PUSH2 0x2411 PUSH2 0x1DBA JUMP JUMPDEST SWAP1 POP DUP1 PUSH1 0x3 ADD PUSH0 SWAP1 SLOAD SWAP1 PUSH2 0x100 EXP SWAP1 DIV PUSH20 0xFFFFFFFFFFFFFFFFFFFFFFFFFFFFFFFFFFFFFFFF AND PUSH20 0xFFFFFFFFFFFFFFFFFFFFFFFFFFFFFFFFFFFFFFFF AND PUSH4 0xE28D24B0 DUP4 PUSH1 0x40 MLOAD DUP3 PUSH4 0xFFFFFFFF AND PUSH1 0xE0 SHL DUP2 MSTORE PUSH1 0x4 ADD PUSH2 0x246F SWAP2 SWAP1 PUSH2 0x4BA6 JUMP JUMPDEST PUSH0 PUSH1 0x40 MLOAD DUP1 DUP4 SUB DUP2 PUSH0 DUP8 DUP1 EXTCODESIZE ISZERO DUP1 ISZERO PUSH2 0x2486 JUMPI PUSH0 PUSH0 REVERT JUMPDEST POP GAS CALL ISZERO DUP1 ISZERO PUSH2 0x2498 JUMPI RETURNDATASIZE PUSH0 PUSH0 RETURNDATACOPY RETURNDATASIZE PUSH0 REVERT JUMPDEST POP POP POP POP PUSH0 PUSH0 SWAP1 POP JUMPDEST DUP4 MLOAD DUP2 LT ISZERO PUSH2 0x265D JUMPI PUSH0 DUP5 DUP3 DUP2 MLOAD DUP2 LT PUSH2 0x24BE JUMPI PUSH2 0x24BD PUSH2 0x42E5 JUMP JUMPDEST JUMPDEST PUSH1 0x20 MUL PUSH1 0x20 ADD ADD MLOAD SWAP1 POP PUSH0 PUSH2 0x24D1 PUSH2 0x1CCA JUMP JUMPDEST SWAP1 POP PUSH0 PUSH2 0x24E0 DUP4 PUSH0 ADD MLOAD PUSH2 0x171B JUMP JUMPDEST SWAP1 POP PUSH0 DUP2 PUSH1 0x20 ADD MLOAD PUSH20 0xFFFFFFFFFFFFFFFFFFFFFFFFFFFFFFFFFFFFFFFF AND PUSH4 0xD6614A6B DUP6 PUSH1 0x20 ADD MLOAD DUP5 PUSH1 0x40 ADD MLOAD DUP7 DUP11 PUSH1 0x3 ADD PUSH0 SWAP1 SLOAD SWAP1 PUSH2 0x100 EXP SWAP1 DIV PUSH20 0xFFFFFFFFFFFFFFFFFFFFFFFFFFFFFFFFFFFFFFFF AND PUSH1 0x40 MLOAD DUP6 PUSH4 0xFFFFFFFF AND PUSH1 0xE0 SHL DUP2 MSTORE PUSH1 0x4 ADD PUSH2 0x2551 SWAP5 SWAP4 SWAP3 SWAP2 SWAP1 PUSH2 0x4BE6 JUMP JUMPDEST PUSH0 PUSH1 0x40 MLOAD DUP1 DUP4 SUB DUP2 PUSH0 DUP8 GAS CALL ISZERO DUP1 ISZERO PUSH2 0x256C JUMPI RETURNDATASIZE PUSH0 PUSH0 RETURNDATACOPY RETURNDATASIZE PUSH0 REVERT JUMPDEST POP POP POP POP PUSH1 0x40 MLOAD RETURNDATASIZE PUSH0 DUP3 RETURNDATACOPY RETURNDATASIZE PUSH1 0x1F NOT PUSH1 0x1F DUP3 ADD AND DUP3 ADD DUP1 PUSH1 0x40 MSTORE POP DUP2 ADD SWAP1 PUSH2 0x2594 SWAP2 SWAP1 PUSH2 0x4E00 JUMP JUMPDEST SWAP1 POP DUP6 PUSH20 0x0 PUSH4 0xB2394C60 SWAP1 SWAP2 DUP6 DUP8 PUSH0 ADD MLOAD DUP6 PUSH1 0x40 MLOAD DUP6 PUSH4 0xFFFFFFFF AND PUSH1 0xE0 SHL DUP2 MSTORE PUSH1 0x4 ADD PUSH2 0x25D8 SWAP5 SWAP4 SWAP3 SWAP2 SWAP1 PUSH2 0x4FB8 JUMP JUMPDEST PUSH0 PUSH1 0x40 MLOAD DUP1 DUP4 SUB DUP2 DUP7 DUP1 EXTCODESIZE ISZERO DUP1 ISZERO PUSH2 0x25EE JUMPI PUSH0 PUSH0 REVERT JUMPDEST POP GAS DELEGATECALL ISZERO DUP1 ISZERO PUSH2 0x2600 JUMPI RETURNDATASIZE PUSH0 PUSH0 RETURNDATACOPY RETURNDATASIZE PUSH0 REVERT JUMPDEST POP POP POP POP PUSH0 DUP5 PUSH1 0x40 ADD MLOAD MLOAD GT ISZERO PUSH2 0x264C JUMPI PUSH1 0x40 MLOAD PUSH32 0x8C379A000000000000000000000000000000000000000000000000000000000 DUP2 MSTORE PUSH1 0x4 ADD PUSH2 0x2643 SWAP1 PUSH2 0x504C JUMP JUMPDEST PUSH1 0x40 MLOAD DUP1 SWAP2 SUB SWAP1 REVERT JUMPDEST POP POP POP POP DUP1 DUP1 PUSH1 0x1 ADD SWAP2 POP POP PUSH2 0x24A1 JUMP JUMPDEST POP POP POP POP JUMP JUMPDEST PUSH0 PUSH2 0x266D DUP7 PUSH2 0x171B JUMP JUMPDEST PUSH1 0x20 ADD MLOAD SWAP1 POP PUSH2 0x267C DUP2 PUSH2 0x1491 JUMP JUMPDEST PUSH2 0x26BB JUMPI PUSH1 0x40 MLOAD PUSH32 0x8C379A000000000000000000000000000000000000000000000000000000000 DUP2 MSTORE PUSH1 0x4 ADD PUSH2 0x26B2 SWAP1 PUSH2 0x48AF JUMP JUMPDEST PUSH1 0x40 MLOAD DUP1 SWAP2 SUB SWAP1 REVERT JUMPDEST PUSH2 0x26C8 DUP7 DUP7 DUP7 DUP7 DUP7 PUSH2 0x2A3B JUMP JUMPDEST POP POP POP POP POP POP JUMP JUMPDEST DUP2 PUSH1 0x1 DUP1 ISZERO PUSH2 0x2726 JUMPI PUSH2 0x26E2 DUP3 PUSH2 0x158E JUMP JUMPDEST PUSH2 0x2721 JUMPI PUSH1 0x40 MLOAD PUSH32 0x8C379A000000000000000000000000000000000000000000000000000000000 DUP2 MSTORE PUSH1 0x4 ADD PUSH2 0x2718 SWAP1 PUSH2 0x4499 JUMP JUMPDEST PUSH1 0x40 MLOAD DUP1 SWAP2 SUB SWAP1 REVERT JUMPDEST PUSH2 0x2770 JUMP JUMPDEST PUSH2 0x272F DUP3 PUSH2 0x158E JUMP JUMPDEST ISZERO PUSH2 0x276F JUMPI PUSH1 0x40 MLOAD PUSH32 0x8C379A000000000000000000000000000000000000000000000000000000000 DUP2 MSTORE PUSH1 0x4 ADD PUSH2 0x2766 SWAP1 PUSH2 0x4501 JUMP JUMPDEST PUSH1 0x40 MLOAD DUP1 SWAP2 SUB SWAP1 REVERT JUMPDEST JUMPDEST PUSH0 PUSH2 0x2779 PUSH2 0x2202 JUMP JUMPDEST SWAP1 POP DUP4 DUP2 PUSH0 ADD PUSH0 DUP8 PUSH8 0xFFFFFFFFFFFFFFFF AND PUSH8 0xFFFFFFFFFFFFFFFF AND DUP2 MSTORE PUSH1 0x20 ADD SWAP1 DUP2 MSTORE PUSH1 0x20 ADD PUSH0 KECCAK256 PUSH0 PUSH2 0x100 EXP DUP2 SLOAD DUP2 PUSH20 0xFFFFFFFFFFFFFFFFFFFFFFFFFFFFFFFFFFFFFFFF MUL NOT AND SWAP1 DUP4 PUSH20 0xFFFFFFFFFFFFFFFFFFFFFFFFFFFFFFFFFFFFFFFF AND MUL OR SWAP1 SSTORE POP POP POP POP POP POP JUMP JUMPDEST PUSH0 PUSH32 0x237E158222E3E6968B72B9DB0D8043AACF074AD9F650F0D1606B4D82EE432C00 SWAP1 POP SWAP1 JUMP JUMPDEST PUSH2 0x2815 PUSH2 0x2A99 JUMP JUMPDEST PUSH2 0x284B JUMPI PUSH1 0x40 MLOAD PUSH32 0xD7E6BCF800000000000000000000000000000000000000000000000000000000 DUP2 MSTORE PUSH1 0x4 ADD PUSH1 0x40 MLOAD DUP1 SWAP2 SUB SWAP1 REVERT JUMPDEST JUMP JUMPDEST PUSH2 0x2855 PUSH2 0x280D JUMP JUMPDEST PUSH0 PUSH20 0xFFFFFFFFFFFFFFFFFFFFFFFFFFFFFFFFFFFFFFFF AND DUP2 PUSH20 0xFFFFFFFFFFFFFFFFFFFFFFFFFFFFFFFFFFFFFFFF AND SUB PUSH2 0x28C5 JUMPI PUSH0 PUSH1 0x40 MLOAD PUSH32 0x1E4FBDF700000000000000000000000000000000000000000000000000000000 DUP2 MSTORE PUSH1 0x4 ADD PUSH2 0x28BC SWAP2 SWAP1 PUSH2 0x334E JUMP JUMPDEST PUSH1 0x40 MLOAD DUP1 SWAP2 SUB SWAP1 REVERT JUMPDEST PUSH2 0x28CE DUP2 PUSH2 0x2229 JUMP JUMPDEST POP JUMP JUMPDEST PUSH2 0x28D9 PUSH2 0x280D JUMP JUMPDEST PUSH2 0x28E2 DUP2 PUSH2 0x1E68 JUMP JUMPDEST POP JUMP JUMPDEST PUSH1 0x60 DUP7 PUSH2 0x28F1 DUP2 PUSH2 0x817 JUMP JUMPDEST PUSH2 0x2930 JUMPI PUSH1 0x40 MLOAD PUSH32 0x8C379A000000000000000000000000000000000000000000000000000000000 DUP2 MSTORE PUSH1 0x4 ADD PUSH2 0x2927 SWAP1 PUSH2 0x50B4 JUMP JUMPDEST PUSH1 0x40 MLOAD DUP1 SWAP2 SUB SWAP1 REVERT JUMPDEST PUSH2 0x293E DUP9 DUP9 DUP9 DUP9 DUP9 DUP9 PUSH2 0x2AB7 JUMP JUMPDEST SWAP2 POP POP SWAP7 SWAP6 POP POP POP POP POP POP JUMP JUMPDEST PUSH0 PUSH2 0x2954 PUSH2 0x2350 JUMP JUMPDEST SWAP1 POP PUSH0 DUP2 PUSH0 ADD PUSH0 SWAP1 SLOAD SWAP1 PUSH2 0x100 EXP SWAP1 DIV PUSH20 0xFFFFFFFFFFFFFFFFFFFFFFFFFFFFFFFFFFFFFFFF AND SWAP1 POP DUP3 DUP3 PUSH0 ADD PUSH0 PUSH2 0x100 EXP DUP2 SLOAD DUP2 PUSH20 0xFFFFFFFFFFFFFFFFFFFFFFFFFFFFFFFFFFFFFFFF MUL NOT AND SWAP1 DUP4 PUSH20 0xFFFFFFFFFFFFFFFFFFFFFFFFFFFFFFFFFFFFFFFF AND MUL OR SWAP1 SSTORE POP DUP3 PUSH20 0xFFFFFFFFFFFFFFFFFFFFFFFFFFFFFFFFFFFFFFFF AND DUP2 PUSH20 0xFFFFFFFFFFFFFFFFFFFFFFFFFFFFFFFFFFFFFFFF AND PUSH32 0x8BE0079C531659141344CD1FD0A4F28419497F9722A3DAAFE3B4186F6B6457E0 PUSH1 0x40 MLOAD PUSH1 0x40 MLOAD DUP1 SWAP2 SUB SWAP1 LOG3 POP POP POP JUMP JUMPDEST PUSH2 0x2A26 DUP3 DUP3 PUSH2 0x2C45 JUMP JUMPDEST PUSH2 0x2A37 DUP3 PUSH2 0x2A32 PUSH2 0x1CCA JUMP JUMPDEST PUSH2 0x26D0 JUMP JUMPDEST POP POP JUMP JUMPDEST DUP5 PUSH2 0x2A45 DUP2 PUSH2 0x817 JUMP JUMPDEST PUSH2 0x2A84 JUMPI PUSH1 0x40 MLOAD PUSH32 0x8C379A000000000000000000000000000000000000000000000000000000000 DUP2 MSTORE PUSH1 0x4 ADD PUSH2 0x2A7B SWAP1 PUSH2 0x50B4 JUMP JUMPDEST PUSH1 0x40 MLOAD DUP1 SWAP2 SUB SWAP1 REVERT JUMPDEST PUSH2 0x2A91 DUP7 DUP7 DUP7 DUP7 DUP7 PUSH2 0x2D83 JUMP JUMPDEST POP POP POP POP POP POP JUMP JUMPDEST PUSH0 PUSH2 0x2AA2 PUSH2 0x1EB4 JUMP JUMPDEST PUSH0 ADD PUSH1 0x8 SWAP1 SLOAD SWAP1 PUSH2 0x100 EXP SWAP1 DIV PUSH1 0xFF AND SWAP1 POP SWAP1 JUMP JUMPDEST PUSH1 0x60 DUP7 PUSH1 0x1 DUP1 ISZERO PUSH2 0x2B0F JUMPI PUSH2 0x2ACB DUP3 PUSH2 0x158E JUMP JUMPDEST PUSH2 0x2B0A JUMPI PUSH1 0x40 MLOAD PUSH32 0x8C379A000000000000000000000000000000000000000000000000000000000 DUP2 MSTORE PUSH1 0x4 ADD PUSH2 0x2B01 SWAP1 PUSH2 0x4499 JUMP JUMPDEST PUSH1 0x40 MLOAD DUP1 SWAP2 SUB SWAP1 REVERT JUMPDEST PUSH2 0x2B59 JUMP JUMPDEST PUSH2 0x2B18 DUP3 PUSH2 0x158E JUMP JUMPDEST ISZERO PUSH2 0x2B58 JUMPI PUSH1 0x40 MLOAD PUSH32 0x8C379A000000000000000000000000000000000000000000000000000000000 DUP2 MSTORE PUSH1 0x4 ADD PUSH2 0x2B4F SWAP1 PUSH2 0x4501 JUMP JUMPDEST PUSH1 0x40 MLOAD DUP1 SWAP2 SUB SWAP1 REVERT JUMPDEST JUMPDEST PUSH0 PUSH2 0x2B62 PUSH2 0x1DBA JUMP JUMPDEST PUSH1 0x1 ADD PUSH0 DUP12 PUSH8 0xFFFFFFFFFFFFFFFF AND PUSH8 0xFFFFFFFFFFFFFFFF AND DUP2 MSTORE PUSH1 0x20 ADD SWAP1 DUP2 MSTORE PUSH1 0x20 ADD PUSH0 KECCAK256 SWAP1 POP DUP1 PUSH1 0x1 ADD PUSH0 SWAP1 SLOAD SWAP1 PUSH2 0x100 EXP SWAP1 DIV PUSH20 0xFFFFFFFFFFFFFFFFFFFFFFFFFFFFFFFFFFFFFFFF AND PUSH20 0xFFFFFFFFFFFFFFFFFFFFFFFFFFFFFFFFFFFFFFFF AND PUSH4 0xF177A69E DUP11 DUP11 DUP11 DUP11 DUP7 PUSH1 0x2 ADD DUP12 PUSH1 0x40 MLOAD DUP8 PUSH4 0xFFFFFFFF AND PUSH1 0xE0 SHL DUP2 MSTORE PUSH1 0x4 ADD PUSH2 0x2BF3 SWAP7 SWAP6 SWAP5 SWAP4 SWAP3 SWAP2 SWAP1 PUSH2 0x5382 JUMP JUMPDEST PUSH0 PUSH1 0x40 MLOAD DUP1 DUP4 SUB DUP2 PUSH0 DUP8 GAS CALL ISZERO DUP1 ISZERO PUSH2 0x2C0E JUMPI RETURNDATASIZE PUSH0 PUSH0 RETURNDATACOPY RETURNDATASIZE PUSH0 REVERT JUMPDEST POP POP POP POP PUSH1 0x40 MLOAD RETURNDATASIZE PUSH0 DUP3 RETURNDATACOPY RETURNDATASIZE PUSH1 0x1F NOT PUSH1 0x1F DUP3 ADD AND DUP3 ADD DUP1 PUSH1 0x40 MSTORE POP DUP2 ADD SWAP1 PUSH2 0x2C36 SWAP2 SWAP1 PUSH2 0x5539 JUMP JUMPDEST SWAP4 POP POP POP POP SWAP7 SWAP6 POP POP POP POP POP POP JUMP JUMPDEST DUP2 PUSH0 DUP1 ISZERO PUSH2 0x2C9A JUMPI PUSH2 0x2C56 DUP3 PUSH2 0x158E JUMP JUMPDEST PUSH2 0x2C95 JUMPI PUSH1 0x40 MLOAD PUSH32 0x8C379A000000000000000000000000000000000000000000000000000000000 DUP2 MSTORE PUSH1 0x4 ADD PUSH2 0x2C8C SWAP1 PUSH2 0x4499 JUMP JUMPDEST PUSH1 0x40 MLOAD DUP1 SWAP2 SUB SWAP1 REVERT JUMPDEST PUSH2 0x2CE4 JUMP JUMPDEST PUSH2 0x2CA3 DUP3 PUSH2 0x158E JUMP JUMPDEST ISZERO PUSH2 0x2CE3 JUMPI PUSH1 0x40 MLOAD PUSH32 0x8C379A000000000000000000000000000000000000000000000000000000000 DUP2 MSTORE PUSH1 0x4 ADD PUSH2 0x2CDA SWAP1 PUSH2 0x4501 JUMP JUMPDEST PUSH1 0x40 MLOAD DUP1 SWAP2 SUB SWAP1 REVERT JUMPDEST JUMPDEST PUSH0 PUSH2 0x2CED PUSH2 0x1DBA JUMP JUMPDEST SWAP1 POP DUP4 DUP2 PUSH1 0x1 ADD PUSH0 DUP8 PUSH8 0xFFFFFFFFFFFFFFFF AND PUSH8 0xFFFFFFFFFFFFFFFF AND DUP2 MSTORE PUSH1 0x20 ADD SWAP1 DUP2 MSTORE PUSH1 0x20 ADD PUSH0 KECCAK256 DUP2 DUP2 PUSH2 0x2D23 SWAP2 SWAP1 PUSH2 0x5A33 JUMP JUMPDEST SWAP1 POP POP DUP1 PUSH1 0x2 ADD DUP6 SWAP1 DUP1 PUSH1 0x1 DUP2 SLOAD ADD DUP1 DUP3 SSTORE DUP1 SWAP2 POP POP PUSH1 0x1 SWAP1 SUB SWAP1 PUSH0 MSTORE PUSH1 0x20 PUSH0 KECCAK256 SWAP1 PUSH1 0x4 SWAP2 DUP3 DUP3 DIV ADD SWAP2 SWAP1 MOD PUSH1 0x8 MUL SWAP1 SWAP2 SWAP1 SWAP2 SWAP1 SWAP2 PUSH2 0x100 EXP DUP2 SLOAD DUP2 PUSH8 0xFFFFFFFFFFFFFFFF MUL NOT AND SWAP1 DUP4 PUSH8 0xFFFFFFFFFFFFFFFF AND MUL OR SWAP1 SSTORE POP POP POP POP POP POP JUMP JUMPDEST DUP5 PUSH1 0x1 DUP1 ISZERO PUSH2 0x2DD9 JUMPI PUSH2 0x2D95 DUP3 PUSH2 0x158E JUMP JUMPDEST PUSH2 0x2DD4 JUMPI PUSH1 0x40 MLOAD PUSH32 0x8C379A000000000000000000000000000000000000000000000000000000000 DUP2 MSTORE PUSH1 0x4 ADD PUSH2 0x2DCB SWAP1 PUSH2 0x4499 JUMP JUMPDEST PUSH1 0x40 MLOAD DUP1 SWAP2 SUB SWAP1 REVERT JUMPDEST PUSH2 0x2E23 JUMP JUMPDEST PUSH2 0x2DE2 DUP3 PUSH2 0x158E JUMP JUMPDEST ISZERO PUSH2 0x2E22 JUMPI PUSH1 0x40 MLOAD PUSH32 0x8C379A000000000000000000000000000000000000000000000000000000000 DUP2 MSTORE PUSH1 0x4 ADD PUSH2 0x2E19 SWAP1 PUSH2 0x4501 JUMP JUMPDEST PUSH1 0x40 MLOAD DUP1 SWAP2 SUB SWAP1 REVERT JUMPDEST JUMPDEST PUSH0 PUSH2 0x2E2C PUSH2 0x1CCA JUMP JUMPDEST SWAP1 POP PUSH0 PUSH2 0x2E37 PUSH2 0x1DBA JUMP JUMPDEST SWAP1 POP PUSH0 DUP2 PUSH1 0x1 ADD PUSH0 DUP12 PUSH8 0xFFFFFFFFFFFFFFFF AND PUSH8 0xFFFFFFFFFFFFFFFF AND DUP2 MSTORE PUSH1 0x20 ADD SWAP1 DUP2 MSTORE PUSH1 0x20 ADD PUSH0 KECCAK256 PUSH1 0x40 MLOAD DUP1 PUSH1 0x60 ADD PUSH1 0x40 MSTORE SWAP1 DUP2 PUSH0 DUP3 ADD DUP1 SLOAD PUSH2 0x2E7B SWAP1 PUSH2 0x4666 JUMP JUMPDEST DUP1 PUSH1 0x1F ADD PUSH1 0x20 DUP1 SWAP2 DIV MUL PUSH1 0x20 ADD PUSH1 0x40 MLOAD SWAP1 DUP2 ADD PUSH1 0x40 MSTORE DUP1 SWAP3 SWAP2 SWAP1 DUP2 DUP2 MSTORE PUSH1 0x20 ADD DUP3 DUP1 SLOAD PUSH2 0x2EA7 SWAP1 PUSH2 0x4666 JUMP JUMPDEST DUP1 ISZERO PUSH2 0x2EF2 JUMPI DUP1 PUSH1 0x1F LT PUSH2 0x2EC9 JUMPI PUSH2 0x100 DUP1 DUP4 SLOAD DIV MUL DUP4 MSTORE SWAP2 PUSH1 0x20 ADD SWAP2 PUSH2 0x2EF2 JUMP JUMPDEST DUP3 ADD SWAP2 SWAP1 PUSH0 MSTORE PUSH1 0x20 PUSH0 KECCAK256 SWAP1 JUMPDEST DUP2 SLOAD DUP2 MSTORE SWAP1 PUSH1 0x1 ADD SWAP1 PUSH1 0x20 ADD DUP1 DUP4 GT PUSH2 0x2ED5 JUMPI DUP3 SWAP1 SUB PUSH1 0x1F AND DUP3 ADD SWAP2 JUMPDEST POP POP POP POP POP DUP2 MSTORE PUSH1 0x20 ADD PUSH1 0x1 DUP3 ADD PUSH0 SWAP1 SLOAD SWAP1 PUSH2 0x100 EXP SWAP1 DIV PUSH20 0xFFFFFFFFFFFFFFFFFFFFFFFFFFFFFFFFFFFFFFFF AND PUSH20 0xFFFFFFFFFFFFFFFFFFFFFFFFFFFFFFFFFFFFFFFF AND PUSH20 0xFFFFFFFFFFFFFFFFFFFFFFFFFFFFFFFFFFFFFFFF AND DUP2 MSTORE PUSH1 0x20 ADD PUSH1 0x2 DUP3 ADD DUP1 SLOAD PUSH2 0x2F60 SWAP1 PUSH2 0x4666 JUMP JUMPDEST DUP1 PUSH1 0x1F ADD PUSH1 0x20 DUP1 SWAP2 DIV MUL PUSH1 0x20 ADD PUSH1 0x40 MLOAD SWAP1 DUP2 ADD PUSH1 0x40 MSTORE DUP1 SWAP3 SWAP2 SWAP1 DUP2 DUP2 MSTORE PUSH1 0x20 ADD DUP3 DUP1 SLOAD PUSH2 0x2F8C SWAP1 PUSH2 0x4666 JUMP JUMPDEST DUP1 ISZERO PUSH2 0x2FD7 JUMPI DUP1 PUSH1 0x1F LT PUSH2 0x2FAE JUMPI PUSH2 0x100 DUP1 DUP4 SLOAD DIV MUL DUP4 MSTORE SWAP2 PUSH1 0x20 ADD SWAP2 PUSH2 0x2FD7 JUMP JUMPDEST DUP3 ADD SWAP2 SWAP1 PUSH0 MSTORE PUSH1 0x20 PUSH0 KECCAK256 SWAP1 JUMPDEST DUP2 SLOAD DUP2 MSTORE SWAP1 PUSH1 0x1 ADD SWAP1 PUSH1 0x20 ADD DUP1 DUP4 GT PUSH2 0x2FBA JUMPI DUP3 SWAP1 SUB PUSH1 0x1F AND DUP3 ADD SWAP2 JUMPDEST POP POP POP POP POP DUP2 MSTORE POP POP SWAP1 POP PUSH0 DUP2 PUSH1 0x20 ADD MLOAD PUSH20 0xFFFFFFFFFFFFFFFFFFFFFFFFFFFFFFFFFFFFFFFF AND PUSH4 0xF177A69E DUP12 DUP12 DUP12 DUP12 DUP8 PUSH1 0x40 ADD MLOAD DUP11 PUSH1 0x40 MLOAD DUP8 PUSH4 0xFFFFFFFF AND PUSH1 0xE0 SHL DUP2 MSTORE PUSH1 0x4 ADD PUSH2 0x302E SWAP7 SWAP6 SWAP5 SWAP4 SWAP3 SWAP2 SWAP1 PUSH2 0x5A41 JUMP JUMPDEST PUSH0 PUSH1 0x40 MLOAD DUP1 DUP4 SUB DUP2 PUSH0 DUP8 GAS CALL ISZERO DUP1 ISZERO PUSH2 0x3049 JUMPI RETURNDATASIZE PUSH0 PUSH0 RETURNDATACOPY RETURNDATASIZE PUSH0 REVERT JUMPDEST POP POP POP POP PUSH1 0x40 MLOAD RETURNDATASIZE PUSH0 DUP3 RETURNDATACOPY RETURNDATASIZE PUSH1 0x1F NOT PUSH1 0x1F DUP3 ADD AND DUP3 ADD DUP1 PUSH1 0x40 MSTORE POP DUP2 ADD SWAP1 PUSH2 0x3071 SWAP2 SWAP1 PUSH2 0x5539 JUMP JUMPDEST SWAP1 POP DUP3 PUSH20 0x0 PUSH4 0xE48754AB SWAP1 SWAP2 DUP7 DUP15 DUP6 DUP16 PUSH1 0x40 MLOAD DUP7 PUSH4 0xFFFFFFFF AND PUSH1 0xE0 SHL DUP2 MSTORE PUSH1 0x4 ADD PUSH2 0x30B4 SWAP6 SWAP5 SWAP4 SWAP3 SWAP2 SWAP1 PUSH2 0x5C04 JUMP JUMPDEST PUSH0 PUSH1 0x40 MLOAD DUP1 DUP4 SUB DUP2 DUP7 DUP1 EXTCODESIZE ISZERO DUP1 ISZERO PUSH2 0x30CA JUMPI PUSH0 PUSH0 REVERT JUMPDEST POP GAS DELEGATECALL ISZERO DUP1 ISZERO PUSH2 0x30DC JUMPI RETURNDATASIZE PUSH0 PUSH0 RETURNDATACOPY RETURNDATASIZE PUSH0 REVERT JUMPDEST POP POP POP POP POP POP POP POP POP POP POP POP POP POP POP JUMP JUMPDEST PUSH1 0x40 MLOAD DUP1 PUSH1 0x60 ADD PUSH1 0x40 MSTORE DUP1 PUSH1 0x60 DUP2 MSTORE PUSH1 0x20 ADD PUSH0 PUSH20 0xFFFFFFFFFFFFFFFFFFFFFFFFFFFFFFFFFFFFFFFF AND DUP2 MSTORE PUSH1 0x20 ADD PUSH1 0x60 DUP2 MSTORE POP SWAP1 JUMP JUMPDEST PUSH1 0x40 MLOAD DUP1 PUSH1 0x80 ADD PUSH1 0x40 MSTORE DUP1 PUSH0 ISZERO ISZERO DUP2 MSTORE PUSH1 0x20 ADD PUSH1 0x60 DUP2 MSTORE PUSH1 0x20 ADD PUSH0 DUP2 MSTORE PUSH1 0x20 ADD PUSH0 DUP2 MSTORE POP SWAP1 JUMP JUMPDEST PUSH0 PUSH1 0x40 MLOAD SWAP1 POP SWAP1 JUMP JUMPDEST PUSH0 PUSH0 REVERT JUMPDEST PUSH0 PUSH0 REVERT JUMPDEST PUSH0 PUSH20 0xFFFFFFFFFFFFFFFFFFFFFFFFFFFFFFFFFFFFFFFF DUP3 AND SWAP1 POP SWAP2 SWAP1 POP JUMP JUMPDEST PUSH0 PUSH2 0x3184 DUP3 PUSH2 0x315B JUMP JUMPDEST SWAP1 POP SWAP2 SWAP1 POP JUMP JUMPDEST PUSH2 0x3194 DUP2 PUSH2 0x317A JUMP JUMPDEST DUP2 EQ PUSH2 0x319E JUMPI PUSH0 PUSH0 REVERT JUMPDEST POP JUMP JUMPDEST PUSH0 DUP2 CALLDATALOAD SWAP1 POP PUSH2 0x31AF DUP2 PUSH2 0x318B JUMP JUMPDEST SWAP3 SWAP2 POP POP JUMP JUMPDEST PUSH0 PUSH0 REVERT JUMPDEST PUSH0 PUSH0 REVERT JUMPDEST PUSH0 PUSH0 REVERT JUMPDEST PUSH0 PUSH0 DUP4 PUSH1 0x1F DUP5 ADD SLT PUSH2 0x31D6 JUMPI PUSH2 0x31D5 PUSH2 0x31B5 JUMP JUMPDEST JUMPDEST DUP3 CALLDATALOAD SWAP1 POP PUSH8 0xFFFFFFFFFFFFFFFF DUP2 GT ISZERO PUSH2 0x31F3 JUMPI PUSH2 0x31F2 PUSH2 0x31B9 JUMP JUMPDEST JUMPDEST PUSH1 0x20 DUP4 ADD SWAP2 POP DUP4 PUSH1 0x20 DUP3 MUL DUP4 ADD GT ISZERO PUSH2 0x320F JUMPI PUSH2 0x320E PUSH2 0x31BD JUMP JUMPDEST JUMPDEST SWAP3 POP SWAP3 SWAP1 POP JUMP JUMPDEST PUSH0 PUSH0 PUSH0 PUSH1 0x40 DUP5 DUP7 SUB SLT ISZERO PUSH2 0x322D JUMPI PUSH2 0x322C PUSH2 0x3153 JUMP JUMPDEST JUMPDEST PUSH0 PUSH2 0x323A DUP7 DUP3 DUP8 ADD PUSH2 0x31A1 JUMP JUMPDEST SWAP4 POP POP PUSH1 0x20 DUP5 ADD CALLDATALOAD PUSH8 0xFFFFFFFFFFFFFFFF DUP2 GT ISZERO PUSH2 0x325B JUMPI PUSH2 0x325A PUSH2 0x3157 JUMP JUMPDEST JUMPDEST PUSH2 0x3267 DUP7 DUP3 DUP8 ADD PUSH2 0x31C1 JUMP JUMPDEST SWAP3 POP SWAP3 POP POP SWAP3 POP SWAP3 POP SWAP3 JUMP JUMPDEST PUSH0 PUSH8 0xFFFFFFFFFFFFFFFF DUP3 AND SWAP1 POP SWAP2 SWAP1 POP JUMP JUMPDEST PUSH2 0x328F DUP2 PUSH2 0x3273 JUMP JUMPDEST DUP2 EQ PUSH2 0x3299 JUMPI PUSH0 PUSH0 REVERT JUMPDEST POP JUMP JUMPDEST PUSH0 DUP2 CALLDATALOAD SWAP1 POP PUSH2 0x32AA DUP2 PUSH2 0x3286 JUMP JUMPDEST SWAP3 SWAP2 POP POP JUMP JUMPDEST PUSH0 PUSH1 0x20 DUP3 DUP5 SUB SLT ISZERO PUSH2 0x32C5 JUMPI PUSH2 0x32C4 PUSH2 0x3153 JUMP JUMPDEST JUMPDEST PUSH0 PUSH2 0x32D2 DUP5 DUP3 DUP6 ADD PUSH2 0x329C JUMP JUMPDEST SWAP2 POP POP SWAP3 SWAP2 POP POP JUMP JUMPDEST PUSH0 DUP2 ISZERO ISZERO SWAP1 POP SWAP2 SWAP1 POP JUMP JUMPDEST PUSH2 0x32EF DUP2 PUSH2 0x32DB JUMP JUMPDEST DUP3 MSTORE POP POP JUMP JUMPDEST PUSH0 PUSH1 0x20 DUP3 ADD SWAP1 POP PUSH2 0x3308 PUSH0 DUP4 ADD DUP5 PUSH2 0x32E6 JUMP JUMPDEST SWAP3 SWAP2 POP POP JUMP JUMPDEST PUSH0 DUP2 SWAP1 POP SWAP2 SWAP1 POP JUMP JUMPDEST PUSH2 0x3320 DUP2 PUSH2 0x330E JUMP JUMPDEST DUP3 MSTORE POP POP JUMP JUMPDEST PUSH0 PUSH1 0x20 DUP3 ADD SWAP1 POP PUSH2 0x3339 PUSH0 DUP4 ADD DUP5 PUSH2 0x3317 JUMP JUMPDEST SWAP3 SWAP2 POP POP JUMP JUMPDEST PUSH2 0x3348 DUP2 PUSH2 0x317A JUMP JUMPDEST DUP3 MSTORE POP POP JUMP JUMPDEST PUSH0 PUSH1 0x20 DUP3 ADD SWAP1 POP PUSH2 0x3361 PUSH0 DUP4 ADD DUP5 PUSH2 0x333F JUMP JUMPDEST SWAP3 SWAP2 POP POP JUMP JUMPDEST PUSH0 PUSH2 0x3371 DUP3 PUSH2 0x317A JUMP JUMPDEST SWAP1 POP SWAP2 SWAP1 POP JUMP JUMPDEST PUSH2 0x3381 DUP2 PUSH2 0x3367 JUMP JUMPDEST DUP2 EQ PUSH2 0x338B JUMPI PUSH0 PUSH0 REVERT JUMPDEST POP JUMP JUMPDEST PUSH0 DUP2 CALLDATALOAD SWAP1 POP PUSH2 0x339C DUP2 PUSH2 0x3378 JUMP JUMPDEST SWAP3 SWAP2 POP POP JUMP JUMPDEST PUSH0 PUSH1 0x20 DUP3 DUP5 SUB SLT ISZERO PUSH2 0x33B7 JUMPI PUSH2 0x33B6 PUSH2 0x3153 JUMP JUMPDEST JUMPDEST PUSH0 PUSH2 0x33C4 DUP5 DUP3 DUP6 ADD PUSH2 0x338E JUMP JUMPDEST SWAP2 POP POP SWAP3 SWAP2 POP POP JUMP JUMPDEST PUSH0 PUSH0 PUSH1 0x40 DUP4 DUP6 SUB SLT ISZERO PUSH2 0x33E3 JUMPI PUSH2 0x33E2 PUSH2 0x3153 JUMP JUMPDEST JUMPDEST PUSH0 PUSH2 0x33F0 DUP6 DUP3 DUP7 ADD PUSH2 0x338E JUMP JUMPDEST SWAP3 POP POP PUSH1 0x20 PUSH2 0x3401 DUP6 DUP3 DUP7 ADD PUSH2 0x31A1 JUMP JUMPDEST SWAP2 POP POP SWAP3 POP SWAP3 SWAP1 POP JUMP JUMPDEST PUSH0 PUSH0 PUSH1 0x40 DUP4 DUP6 SUB SLT ISZERO PUSH2 0x3421 JUMPI PUSH2 0x3420 PUSH2 0x3153 JUMP JUMPDEST JUMPDEST PUSH0 PUSH2 0x342E DUP6 DUP3 DUP7 ADD PUSH2 0x31A1 JUMP JUMPDEST SWAP3 POP POP PUSH1 0x20 PUSH2 0x343F DUP6 DUP3 DUP7 ADD PUSH2 0x329C JUMP JUMPDEST SWAP2 POP POP SWAP3 POP SWAP3 SWAP1 POP JUMP JUMPDEST PUSH0 PUSH1 0x1F NOT PUSH1 0x1F DUP4 ADD AND SWAP1 POP SWAP2 SWAP1 POP JUMP JUMPDEST PUSH32 0x4E487B7100000000000000000000000000000000000000000000000000000000 PUSH0 MSTORE PUSH1 0x41 PUSH1 0x4 MSTORE PUSH1 0x24 PUSH0 REVERT JUMPDEST PUSH2 0x348F DUP3 PUSH2 0x3449 JUMP JUMPDEST DUP2 ADD DUP2 DUP2 LT PUSH8 0xFFFFFFFFFFFFFFFF DUP3 GT OR ISZERO PUSH2 0x34AE JUMPI PUSH2 0x34AD PUSH2 0x3459 JUMP JUMPDEST JUMPDEST DUP1 PUSH1 0x40 MSTORE POP POP POP JUMP JUMPDEST PUSH0 PUSH2 0x34C0 PUSH2 0x314A JUMP JUMPDEST SWAP1 POP PUSH2 0x34CC DUP3 DUP3 PUSH2 0x3486 JUMP JUMPDEST SWAP2 SWAP1 POP JUMP JUMPDEST PUSH0 PUSH8 0xFFFFFFFFFFFFFFFF DUP3 GT ISZERO PUSH2 0x34EB JUMPI PUSH2 0x34EA PUSH2 0x3459 JUMP JUMPDEST JUMPDEST PUSH1 0x20 DUP3 MUL SWAP1 POP PUSH1 0x20 DUP2 ADD SWAP1 POP SWAP2 SWAP1 POP JUMP JUMPDEST PUSH2 0x3505 DUP2 PUSH2 0x330E JUMP JUMPDEST DUP2 EQ PUSH2 0x350F JUMPI PUSH0 PUSH0 REVERT JUMPDEST POP JUMP JUMPDEST PUSH0 DUP2 CALLDATALOAD SWAP1 POP PUSH2 0x3520 DUP2 PUSH2 0x34FC JUMP JUMPDEST SWAP3 SWAP2 POP POP JUMP JUMPDEST PUSH0 PUSH2 0x3538 PUSH2 0x3533 DUP5 PUSH2 0x34D1 JUMP JUMPDEST PUSH2 0x34B7 JUMP JUMPDEST SWAP1 POP DUP1 DUP4 DUP3 MSTORE PUSH1 0x20 DUP3 ADD SWAP1 POP PUSH1 0x20 DUP5 MUL DUP4 ADD DUP6 DUP2 GT ISZERO PUSH2 0x355B JUMPI PUSH2 0x355A PUSH2 0x31BD JUMP JUMPDEST JUMPDEST DUP4 JUMPDEST DUP2 DUP2 LT ISZERO PUSH2 0x3584 JUMPI DUP1 PUSH2 0x3570 DUP9 DUP3 PUSH2 0x3512 JUMP JUMPDEST DUP5 MSTORE PUSH1 0x20 DUP5 ADD SWAP4 POP POP PUSH1 0x20 DUP2 ADD SWAP1 POP PUSH2 0x355D JUMP JUMPDEST POP POP POP SWAP4 SWAP3 POP POP POP JUMP JUMPDEST PUSH0 DUP3 PUSH1 0x1F DUP4 ADD SLT PUSH2 0x35A2 JUMPI PUSH2 0x35A1 PUSH2 0x31B5 JUMP JUMPDEST JUMPDEST DUP2 CALLDATALOAD PUSH2 0x35B2 DUP5 DUP3 PUSH1 0x20 DUP7 ADD PUSH2 0x3526 JUMP JUMPDEST SWAP2 POP POP SWAP3 SWAP2 POP POP JUMP JUMPDEST PUSH0 PUSH8 0xFFFFFFFFFFFFFFFF DUP3 GT ISZERO PUSH2 0x35D5 JUMPI PUSH2 0x35D4 PUSH2 0x3459 JUMP JUMPDEST JUMPDEST PUSH1 0x20 DUP3 MUL SWAP1 POP SWAP2 SWAP1 POP JUMP JUMPDEST PUSH0 PUSH2 0x35F2 PUSH2 0x35ED DUP5 PUSH2 0x35BB JUMP JUMPDEST PUSH2 0x34B7 JUMP JUMPDEST SWAP1 POP DUP1 PUSH1 0x20 DUP5 MUL DUP4 ADD DUP6 DUP2 GT ISZERO PUSH2 0x360C JUMPI PUSH2 0x360B PUSH2 0x31BD JUMP JUMPDEST JUMPDEST DUP4 JUMPDEST DUP2 DUP2 LT ISZERO PUSH2 0x3635 JUMPI DUP1 PUSH2 0x3621 DUP9 DUP3 PUSH2 0x3512 JUMP JUMPDEST DUP5 MSTORE PUSH1 0x20 DUP5 ADD SWAP4 POP POP PUSH1 0x20 DUP2 ADD SWAP1 POP PUSH2 0x360E JUMP JUMPDEST POP POP POP SWAP4 SWAP3 POP POP POP JUMP JUMPDEST PUSH0 DUP3 PUSH1 0x1F DUP4 ADD SLT PUSH2 0x3653 JUMPI PUSH2 0x3652 PUSH2 0x31B5 JUMP JUMPDEST JUMPDEST PUSH1 0x2 PUSH2 0x3660 DUP5 DUP3 DUP6 PUSH2 0x35E0 JUMP JUMPDEST SWAP2 POP POP SWAP3 SWAP2 POP POP JUMP JUMPDEST PUSH0 PUSH8 0xFFFFFFFFFFFFFFFF DUP3 GT ISZERO PUSH2 0x3683 JUMPI PUSH2 0x3682 PUSH2 0x3459 JUMP JUMPDEST JUMPDEST PUSH1 0x20 DUP3 MUL SWAP1 POP SWAP2 SWAP1 POP JUMP JUMPDEST PUSH0 PUSH2 0x36A0 PUSH2 0x369B DUP5 PUSH2 0x3669 JUMP JUMPDEST PUSH2 0x34B7 JUMP JUMPDEST SWAP1 POP DUP1 PUSH1 0x40 DUP5 MUL DUP4 ADD DUP6 DUP2 GT ISZERO PUSH2 0x36BA JUMPI PUSH2 0x36B9 PUSH2 0x31BD JUMP JUMPDEST JUMPDEST DUP4 JUMPDEST DUP2 DUP2 LT ISZERO PUSH2 0x36E3 JUMPI DUP1 PUSH2 0x36CF DUP9 DUP3 PUSH2 0x363F JUMP JUMPDEST DUP5 MSTORE PUSH1 0x20 DUP5 ADD SWAP4 POP POP PUSH1 0x40 DUP2 ADD SWAP1 POP PUSH2 0x36BC JUMP JUMPDEST POP POP POP SWAP4 SWAP3 POP POP POP JUMP JUMPDEST PUSH0 DUP3 PUSH1 0x1F DUP4 ADD SLT PUSH2 0x3701 JUMPI PUSH2 0x3700 PUSH2 0x31B5 JUMP JUMPDEST JUMPDEST PUSH1 0x2 PUSH2 0x370E DUP5 DUP3 DUP6 PUSH2 0x368E JUMP JUMPDEST SWAP2 POP POP SWAP3 SWAP2 POP POP JUMP JUMPDEST PUSH0 PUSH0 PUSH0 PUSH0 PUSH0 PUSH0 PUSH2 0x160 DUP8 DUP10 SUB SLT ISZERO PUSH2 0x3732 JUMPI PUSH2 0x3731 PUSH2 0x3153 JUMP JUMPDEST JUMPDEST PUSH0 PUSH2 0x373F DUP10 DUP3 DUP11 ADD PUSH2 0x329C JUMP JUMPDEST SWAP7 POP POP PUSH1 0x20 DUP8 ADD CALLDATALOAD PUSH8 0xFFFFFFFFFFFFFFFF DUP2 GT ISZERO PUSH2 0x3760 JUMPI PUSH2 0x375F PUSH2 0x3157 JUMP JUMPDEST JUMPDEST PUSH2 0x376C DUP10 DUP3 DUP11 ADD PUSH2 0x358E JUMP JUMPDEST SWAP6 POP POP PUSH1 0x40 PUSH2 0x377D DUP10 DUP3 DUP11 ADD PUSH2 0x363F JUMP JUMPDEST SWAP5 POP POP PUSH1 0x80 PUSH2 0x378E DUP10 DUP3 DUP11 ADD PUSH2 0x36ED JUMP JUMPDEST SWAP4 POP POP PUSH2 0x100 PUSH2 0x37A0 DUP10 DUP3 DUP11 ADD PUSH2 0x363F JUMP JUMPDEST SWAP3 POP POP PUSH2 0x140 PUSH2 0x37B2 DUP10 DUP3 DUP11 ADD PUSH2 0x31A1 JUMP JUMPDEST SWAP2 POP POP SWAP3 SWAP6 POP SWAP3 SWAP6 POP SWAP3 SWAP6 JUMP JUMPDEST PUSH0 DUP2 MLOAD SWAP1 POP SWAP2 SWAP1 POP JUMP JUMPDEST PUSH0 DUP3 DUP3 MSTORE PUSH1 0x20 DUP3 ADD SWAP1 POP SWAP3 SWAP2 POP POP JUMP JUMPDEST PUSH0 DUP2 SWAP1 POP PUSH1 0x20 DUP3 ADD SWAP1 POP SWAP2 SWAP1 POP JUMP JUMPDEST PUSH0 DUP2 MLOAD SWAP1 POP SWAP2 SWAP1 POP JUMP JUMPDEST PUSH0 DUP3 DUP3 MSTORE PUSH1 0x20 DUP3 ADD SWAP1 POP SWAP3 SWAP2 POP POP JUMP JUMPDEST DUP3 DUP2 DUP4 MCOPY PUSH0 DUP4 DUP4 ADD MSTORE POP POP POP JUMP JUMPDEST PUSH0 PUSH2 0x381A DUP3 PUSH2 0x37E8 JUMP JUMPDEST PUSH2 0x3824 DUP2 DUP6 PUSH2 0x37F2 JUMP JUMPDEST SWAP4 POP PUSH2 0x3834 DUP2 DUP6 PUSH1 0x20 DUP7 ADD PUSH2 0x3802 JUMP JUMPDEST PUSH2 0x383D DUP2 PUSH2 0x3449 JUMP JUMPDEST DUP5 ADD SWAP2 POP POP SWAP3 SWAP2 POP POP JUMP JUMPDEST PUSH2 0x3851 DUP2 PUSH2 0x330E JUMP JUMPDEST DUP3 MSTORE POP POP JUMP JUMPDEST PUSH0 PUSH1 0x40 DUP4 ADD PUSH0 DUP4 ADD MLOAD DUP5 DUP3 SUB PUSH0 DUP7 ADD MSTORE PUSH2 0x3871 DUP3 DUP3 PUSH2 0x3810 JUMP JUMPDEST SWAP2 POP POP PUSH1 0x20 DUP4 ADD MLOAD PUSH2 0x3886 PUSH1 0x20 DUP7 ADD DUP3 PUSH2 0x3848 JUMP JUMPDEST POP DUP1 SWAP2 POP POP SWAP3 SWAP2 POP POP JUMP JUMPDEST PUSH0 PUSH2 0x389C DUP4 DUP4 PUSH2 0x3857 JUMP JUMPDEST SWAP1 POP SWAP3 SWAP2 POP POP JUMP JUMPDEST PUSH0 PUSH1 0x20 DUP3 ADD SWAP1 POP SWAP2 SWAP1 POP JUMP JUMPDEST PUSH0 PUSH2 0x38BA DUP3 PUSH2 0x37BF JUMP JUMPDEST PUSH2 0x38C4 DUP2 DUP6 PUSH2 0x37C9 JUMP JUMPDEST SWAP4 POP DUP4 PUSH1 0x20 DUP3 MUL DUP6 ADD PUSH2 0x38D6 DUP6 PUSH2 0x37D9 JUMP JUMPDEST DUP1 PUSH0 JUMPDEST DUP6 DUP2 LT ISZERO PUSH2 0x3911 JUMPI DUP5 DUP5 SUB DUP10 MSTORE DUP2 MLOAD PUSH2 0x38F2 DUP6 DUP3 PUSH2 0x3891 JUMP JUMPDEST SWAP5 POP PUSH2 0x38FD DUP4 PUSH2 0x38A4 JUMP JUMPDEST SWAP3 POP PUSH1 0x20 DUP11 ADD SWAP10 POP POP PUSH1 0x1 DUP2 ADD SWAP1 POP PUSH2 0x38D9 JUMP JUMPDEST POP DUP3 SWAP8 POP DUP8 SWAP6 POP POP POP POP POP POP SWAP3 SWAP2 POP POP JUMP JUMPDEST PUSH0 PUSH1 0x20 DUP3 ADD SWAP1 POP DUP2 DUP2 SUB PUSH0 DUP4 ADD MSTORE PUSH2 0x393B DUP2 DUP5 PUSH2 0x38B0 JUMP JUMPDEST SWAP1 POP SWAP3 SWAP2 POP POP JUMP JUMPDEST PUSH0 DUP3 DUP3 MSTORE PUSH1 0x20 DUP3 ADD SWAP1 POP SWAP3 SWAP2 POP POP JUMP JUMPDEST PUSH0 PUSH2 0x395D DUP3 PUSH2 0x37E8 JUMP JUMPDEST PUSH2 0x3967 DUP2 DUP6 PUSH2 0x3943 JUMP JUMPDEST SWAP4 POP PUSH2 0x3977 DUP2 DUP6 PUSH1 0x20 DUP7 ADD PUSH2 0x3802 JUMP JUMPDEST PUSH2 0x3980 DUP2 PUSH2 0x3449 JUMP JUMPDEST DUP5 ADD SWAP2 POP POP SWAP3 SWAP2 POP POP JUMP JUMPDEST PUSH0 PUSH1 0x20 DUP3 ADD SWAP1 POP DUP2 DUP2 SUB PUSH0 DUP4 ADD MSTORE PUSH2 0x39A3 DUP2 DUP5 PUSH2 0x3953 JUMP JUMPDEST SWAP1 POP SWAP3 SWAP2 POP POP JUMP JUMPDEST PUSH0 PUSH2 0x39B5 DUP3 PUSH2 0x317A JUMP JUMPDEST SWAP1 POP SWAP2 SWAP1 POP JUMP JUMPDEST PUSH2 0x39C5 DUP2 PUSH2 0x39AB JUMP JUMPDEST DUP2 EQ PUSH2 0x39CF JUMPI PUSH0 PUSH0 REVERT JUMPDEST POP JUMP JUMPDEST PUSH0 DUP2 CALLDATALOAD SWAP1 POP PUSH2 0x39E0 DUP2 PUSH2 0x39BC JUMP JUMPDEST SWAP3 SWAP2 POP POP JUMP JUMPDEST PUSH0 PUSH1 0x20 DUP3 DUP5 SUB SLT ISZERO PUSH2 0x39FB JUMPI PUSH2 0x39FA PUSH2 0x3153 JUMP JUMPDEST JUMPDEST PUSH0 PUSH2 0x3A08 DUP5 DUP3 DUP6 ADD PUSH2 0x39D2 JUMP JUMPDEST SWAP2 POP POP SWAP3 SWAP2 POP POP JUMP JUMPDEST PUSH0 PUSH0 PUSH1 0x40 DUP4 DUP6 SUB SLT ISZERO PUSH2 0x3A27 JUMPI PUSH2 0x3A26 PUSH2 0x3153 JUMP JUMPDEST JUMPDEST PUSH0 PUSH2 0x3A34 DUP6 DUP3 DUP7 ADD PUSH2 0x3512 JUMP JUMPDEST SWAP3 POP POP PUSH1 0x20 PUSH2 0x3A45 DUP6 DUP3 DUP7 ADD PUSH2 0x3512 JUMP JUMPDEST SWAP2 POP POP SWAP3 POP SWAP3 SWAP1 POP JUMP JUMPDEST PUSH0 DUP2 MLOAD SWAP1 POP SWAP2 SWAP1 POP JUMP JUMPDEST PUSH0 DUP3 DUP3 MSTORE PUSH1 0x20 DUP3 ADD SWAP1 POP SWAP3 SWAP2 POP POP JUMP JUMPDEST PUSH0 DUP2 SWAP1 POP PUSH1 0x20 DUP3 ADD SWAP1 POP SWAP2 SWAP1 POP JUMP JUMPDEST PUSH0 DUP2 SWAP1 POP SWAP2 SWAP1 POP JUMP JUMPDEST PUSH0 PUSH2 0x3A9B PUSH2 0x3A96 PUSH2 0x3A91 DUP5 PUSH2 0x315B JUMP JUMPDEST PUSH2 0x3A78 JUMP JUMPDEST PUSH2 0x315B JUMP JUMPDEST SWAP1 POP SWAP2 SWAP1 POP JUMP JUMPDEST PUSH0 PUSH2 0x3AAC DUP3 PUSH2 0x3A81 JUMP JUMPDEST SWAP1 POP SWAP2 SWAP1 POP JUMP JUMPDEST PUSH0 PUSH2 0x3ABD DUP3 PUSH2 0x3AA2 JUMP JUMPDEST SWAP1 POP SWAP2 SWAP1 POP JUMP JUMPDEST PUSH2 0x3ACD DUP2 PUSH2 0x3AB3 JUMP JUMPDEST DUP3 MSTORE POP POP JUMP JUMPDEST PUSH0 DUP2 MLOAD SWAP1 POP SWAP2 SWAP1 POP JUMP JUMPDEST PUSH0 DUP3 DUP3 MSTORE PUSH1 0x20 DUP3 ADD SWAP1 POP SWAP3 SWAP2 POP POP JUMP JUMPDEST PUSH0 PUSH2 0x3AF7 DUP3 PUSH2 0x3AD3 JUMP JUMPDEST PUSH2 0x3B01 DUP2 DUP6 PUSH2 0x3ADD JUMP JUMPDEST SWAP4 POP PUSH2 0x3B11 DUP2 DUP6 PUSH1 0x20 DUP7 ADD PUSH2 0x3802 JUMP JUMPDEST PUSH2 0x3B1A DUP2 PUSH2 0x3449 JUMP JUMPDEST DUP5 ADD SWAP2 POP POP SWAP3 SWAP2 POP POP JUMP JUMPDEST PUSH0 PUSH1 0x60 DUP4 ADD PUSH0 DUP4 ADD MLOAD DUP5 DUP3 SUB PUSH0 DUP7 ADD MSTORE PUSH2 0x3B3F DUP3 DUP3 PUSH2 0x3810 JUMP JUMPDEST SWAP2 POP POP PUSH1 0x20 DUP4 ADD MLOAD PUSH2 0x3B54 PUSH1 0x20 DUP7 ADD DUP3 PUSH2 0x3AC4 JUMP JUMPDEST POP PUSH1 0x40 DUP4 ADD MLOAD DUP5 DUP3 SUB PUSH1 0x40 DUP7 ADD MSTORE PUSH2 0x3B6C DUP3 DUP3 PUSH2 0x3AED JUMP JUMPDEST SWAP2 POP POP DUP1 SWAP2 POP POP SWAP3 SWAP2 POP POP JUMP JUMPDEST PUSH0 PUSH2 0x3B84 DUP4 DUP4 PUSH2 0x3B25 JUMP JUMPDEST SWAP1 POP SWAP3 SWAP2 POP POP JUMP JUMPDEST PUSH0 PUSH1 0x20 DUP3 ADD SWAP1 POP SWAP2 SWAP1 POP JUMP JUMPDEST PUSH0 PUSH2 0x3BA2 DUP3 PUSH2 0x3A4F JUMP JUMPDEST PUSH2 0x3BAC DUP2 DUP6 PUSH2 0x3A59 JUMP JUMPDEST SWAP4 POP DUP4 PUSH1 0x20 DUP3 MUL DUP6 ADD PUSH2 0x3BBE DUP6 PUSH2 0x3A69 JUMP JUMPDEST DUP1 PUSH0 JUMPDEST DUP6 DUP2 LT ISZERO PUSH2 0x3BF9 JUMPI DUP5 DUP5 SUB DUP10 MSTORE DUP2 MLOAD PUSH2 0x3BDA DUP6 DUP3 PUSH2 0x3B79 JUMP JUMPDEST SWAP5 POP PUSH2 0x3BE5 DUP4 PUSH2 0x3B8C JUMP JUMPDEST SWAP3 POP PUSH1 0x20 DUP11 ADD SWAP10 POP POP PUSH1 0x1 DUP2 ADD SWAP1 POP PUSH2 0x3BC1 JUMP JUMPDEST POP DUP3 SWAP8 POP DUP8 SWAP6 POP POP POP POP POP POP SWAP3 SWAP2 POP POP JUMP JUMPDEST PUSH0 PUSH1 0x20 DUP3 ADD SWAP1 POP DUP2 DUP2 SUB PUSH0 DUP4 ADD MSTORE PUSH2 0x3C23 DUP2 DUP5 PUSH2 0x3B98 JUMP JUMPDEST SWAP1 POP SWAP3 SWAP2 POP POP JUMP JUMPDEST PUSH2 0x3C34 DUP2 PUSH2 0x32DB JUMP JUMPDEST DUP3 MSTORE POP POP JUMP JUMPDEST PUSH0 PUSH1 0x80 DUP4 ADD PUSH0 DUP4 ADD MLOAD PUSH2 0x3C4F PUSH0 DUP7 ADD DUP3 PUSH2 0x3C2B JUMP JUMPDEST POP PUSH1 0x20 DUP4 ADD MLOAD DUP5 DUP3 SUB PUSH1 0x20 DUP7 ADD MSTORE PUSH2 0x3C67 DUP3 DUP3 PUSH2 0x3810 JUMP JUMPDEST SWAP2 POP POP PUSH1 0x40 DUP4 ADD MLOAD PUSH2 0x3C7C PUSH1 0x40 DUP7 ADD DUP3 PUSH2 0x3848 JUMP JUMPDEST POP PUSH1 0x60 DUP4 ADD MLOAD PUSH2 0x3C8F PUSH1 0x60 DUP7 ADD DUP3 PUSH2 0x3848 JUMP JUMPDEST POP DUP1 SWAP2 POP POP SWAP3 SWAP2 POP POP JUMP JUMPDEST PUSH0 PUSH1 0x20 DUP3 ADD SWAP1 POP DUP2 DUP2 SUB PUSH0 DUP4 ADD MSTORE PUSH2 0x3CB2 DUP2 DUP5 PUSH2 0x3C3A JUMP JUMPDEST SWAP1 POP SWAP3 SWAP2 POP POP JUMP JUMPDEST PUSH0 PUSH0 REVERT JUMPDEST PUSH0 PUSH1 0x60 DUP3 DUP5 SUB SLT ISZERO PUSH2 0x3CD3 JUMPI PUSH2 0x3CD2 PUSH2 0x3CBA JUMP JUMPDEST JUMPDEST DUP2 SWAP1 POP SWAP3 SWAP2 POP POP JUMP JUMPDEST PUSH0 PUSH0 PUSH1 0x40 DUP4 DUP6 SUB SLT ISZERO PUSH2 0x3CF2 JUMPI PUSH2 0x3CF1 PUSH2 0x3153 JUMP JUMPDEST JUMPDEST PUSH0 PUSH2 0x3CFF DUP6 DUP3 DUP7 ADD PUSH2 0x329C JUMP JUMPDEST SWAP3 POP POP PUSH1 0x20 DUP4 ADD CALLDATALOAD PUSH8 0xFFFFFFFFFFFFFFFF DUP2 GT ISZERO PUSH2 0x3D20 JUMPI PUSH2 0x3D1F PUSH2 0x3157 JUMP JUMPDEST JUMPDEST PUSH2 0x3D2C DUP6 DUP3 DUP7 ADD PUSH2 0x3CBE JUMP JUMPDEST SWAP2 POP POP SWAP3 POP SWAP3 SWAP1 POP JUMP JUMPDEST PUSH0 PUSH8 0xFFFFFFFFFFFFFFFF DUP3 GT ISZERO PUSH2 0x3D50 JUMPI PUSH2 0x3D4F PUSH2 0x3459 JUMP JUMPDEST JUMPDEST PUSH1 0x20 DUP3 MUL SWAP1 POP PUSH1 0x20 DUP2 ADD SWAP1 POP SWAP2 SWAP1 POP JUMP JUMPDEST PUSH0 PUSH0 REVERT JUMPDEST PUSH0 PUSH0 REVERT JUMPDEST PUSH0 PUSH0 REVERT JUMPDEST PUSH0 PUSH8 0xFFFFFFFFFFFFFFFF DUP3 GT ISZERO PUSH2 0x3D87 JUMPI PUSH2 0x3D86 PUSH2 0x3459 JUMP JUMPDEST JUMPDEST PUSH2 0x3D90 DUP3 PUSH2 0x3449 JUMP JUMPDEST SWAP1 POP PUSH1 0x20 DUP2 ADD SWAP1 POP SWAP2 SWAP1 POP JUMP JUMPDEST DUP3 DUP2 DUP4 CALLDATACOPY PUSH0 DUP4 DUP4 ADD MSTORE POP POP POP JUMP JUMPDEST PUSH0 PUSH2 0x3DBD PUSH2 0x3DB8 DUP5 PUSH2 0x3D6D JUMP JUMPDEST PUSH2 0x34B7 JUMP JUMPDEST SWAP1 POP DUP3 DUP2 MSTORE PUSH1 0x20 DUP2 ADD DUP5 DUP5 DUP5 ADD GT ISZERO PUSH2 0x3DD9 JUMPI PUSH2 0x3DD8 PUSH2 0x3D69 JUMP JUMPDEST JUMPDEST PUSH2 0x3DE4 DUP5 DUP3 DUP6 PUSH2 0x3D9D JUMP JUMPDEST POP SWAP4 SWAP3 POP POP POP JUMP JUMPDEST PUSH0 DUP3 PUSH1 0x1F DUP4 ADD SLT PUSH2 0x3E00 JUMPI PUSH2 0x3DFF PUSH2 0x31B5 JUMP JUMPDEST JUMPDEST DUP2 CALLDATALOAD PUSH2 0x3E10 DUP5 DUP3 PUSH1 0x20 DUP7 ADD PUSH2 0x3DAB JUMP JUMPDEST SWAP2 POP POP SWAP3 SWAP2 POP POP JUMP JUMPDEST PUSH0 PUSH1 0x60 DUP3 DUP5 SUB SLT ISZERO PUSH2 0x3E2E JUMPI PUSH2 0x3E2D PUSH2 0x3D61 JUMP JUMPDEST JUMPDEST PUSH2 0x3E38 PUSH1 0x60 PUSH2 0x34B7 JUMP JUMPDEST SWAP1 POP PUSH0 PUSH2 0x3E47 DUP5 DUP3 DUP6 ADD PUSH2 0x329C JUMP JUMPDEST PUSH0 DUP4 ADD MSTORE POP PUSH1 0x20 DUP3 ADD CALLDATALOAD PUSH8 0xFFFFFFFFFFFFFFFF DUP2 GT ISZERO PUSH2 0x3E6A JUMPI PUSH2 0x3E69 PUSH2 0x3D65 JUMP JUMPDEST JUMPDEST PUSH2 0x3E76 DUP5 DUP3 DUP6 ADD PUSH2 0x3DEC JUMP JUMPDEST PUSH1 0x20 DUP4 ADD MSTORE POP PUSH1 0x40 DUP3 ADD CALLDATALOAD PUSH8 0xFFFFFFFFFFFFFFFF DUP2 GT ISZERO PUSH2 0x3E9A JUMPI PUSH2 0x3E99 PUSH2 0x3D65 JUMP JUMPDEST JUMPDEST PUSH2 0x3EA6 DUP5 DUP3 DUP6 ADD PUSH2 0x3DEC JUMP JUMPDEST PUSH1 0x40 DUP4 ADD MSTORE POP SWAP3 SWAP2 POP POP JUMP JUMPDEST PUSH0 PUSH2 0x3EC4 PUSH2 0x3EBF DUP5 PUSH2 0x3D36 JUMP JUMPDEST PUSH2 0x34B7 JUMP JUMPDEST SWAP1 POP DUP1 DUP4 DUP3 MSTORE PUSH1 0x20 DUP3 ADD SWAP1 POP PUSH1 0x20 DUP5 MUL DUP4 ADD DUP6 DUP2 GT ISZERO PUSH2 0x3EE7 JUMPI PUSH2 0x3EE6 PUSH2 0x31BD JUMP JUMPDEST JUMPDEST DUP4 JUMPDEST DUP2 DUP2 LT ISZERO PUSH2 0x3F2E JUMPI DUP1 CALLDATALOAD PUSH8 0xFFFFFFFFFFFFFFFF DUP2 GT ISZERO PUSH2 0x3F0C JUMPI PUSH2 0x3F0B PUSH2 0x31B5 JUMP JUMPDEST JUMPDEST DUP1 DUP7 ADD PUSH2 0x3F19 DUP10 DUP3 PUSH2 0x3E19 JUMP JUMPDEST DUP6 MSTORE PUSH1 0x20 DUP6 ADD SWAP5 POP POP POP PUSH1 0x20 DUP2 ADD SWAP1 POP PUSH2 0x3EE9 JUMP JUMPDEST POP POP POP SWAP4 SWAP3 POP POP POP JUMP JUMPDEST PUSH0 DUP3 PUSH1 0x1F DUP4 ADD SLT PUSH2 0x3F4C JUMPI PUSH2 0x3F4B PUSH2 0x31B5 JUMP JUMPDEST JUMPDEST DUP2 CALLDATALOAD PUSH2 0x3F5C DUP5 DUP3 PUSH1 0x20 DUP7 ADD PUSH2 0x3EB2 JUMP JUMPDEST SWAP2 POP POP SWAP3 SWAP2 POP POP JUMP JUMPDEST PUSH0 PUSH0 PUSH1 0x40 DUP4 DUP6 SUB SLT ISZERO PUSH2 0x3F7B JUMPI PUSH2 0x3F7A PUSH2 0x3153 JUMP JUMPDEST JUMPDEST PUSH0 DUP4 ADD CALLDATALOAD PUSH8 0xFFFFFFFFFFFFFFFF DUP2 GT ISZERO PUSH2 0x3F98 JUMPI PUSH2 0x3F97 PUSH2 0x3157 JUMP JUMPDEST JUMPDEST PUSH2 0x3FA4 DUP6 DUP3 DUP7 ADD PUSH2 0x3F38 JUMP JUMPDEST SWAP3 POP POP PUSH1 0x20 DUP4 ADD CALLDATALOAD PUSH8 0xFFFFFFFFFFFFFFFF DUP2 GT ISZERO PUSH2 0x3FC5 JUMPI PUSH2 0x3FC4 PUSH2 0x3157 JUMP JUMPDEST JUMPDEST PUSH2 0x3FD1 DUP6 DUP3 DUP7 ADD PUSH2 0x3DEC JUMP JUMPDEST SWAP2 POP POP SWAP3 POP SWAP3 SWAP1 POP JUMP JUMPDEST PUSH0 PUSH0 PUSH0 PUSH0 PUSH0 PUSH2 0x140 DUP7 DUP9 SUB SLT ISZERO PUSH2 0x3FF5 JUMPI PUSH2 0x3FF4 PUSH2 0x3153 JUMP JUMPDEST JUMPDEST PUSH0 PUSH2 0x4002 DUP9 DUP3 DUP10 ADD PUSH2 0x329C JUMP JUMPDEST SWAP6 POP POP PUSH1 0x20 DUP7 ADD CALLDATALOAD PUSH8 0xFFFFFFFFFFFFFFFF DUP2 GT ISZERO PUSH2 0x4023 JUMPI PUSH2 0x4022 PUSH2 0x3157 JUMP JUMPDEST JUMPDEST PUSH2 0x402F DUP9 DUP3 DUP10 ADD PUSH2 0x358E JUMP JUMPDEST SWAP5 POP POP PUSH1 0x40 PUSH2 0x4040 DUP9 DUP3 DUP10 ADD PUSH2 0x363F JUMP JUMPDEST SWAP4 POP POP PUSH1 0x80 PUSH2 0x4051 DUP9 DUP3 DUP10 ADD PUSH2 0x36ED JUMP JUMPDEST SWAP3 POP POP PUSH2 0x100 PUSH2 0x4063 DUP9 DUP3 DUP10 ADD PUSH2 0x363F JUMP JUMPDEST SWAP2 POP POP SWAP3 SWAP6 POP SWAP3 SWAP6 SWAP1 SWAP4 POP JUMP JUMPDEST PUSH0 PUSH1 0x60 DUP4 ADD PUSH0 DUP4 ADD MLOAD DUP5 DUP3 SUB PUSH0 DUP7 ADD MSTORE PUSH2 0x408A DUP3 DUP3 PUSH2 0x3810 JUMP JUMPDEST SWAP2 POP POP PUSH1 0x20 DUP4 ADD MLOAD PUSH2 0x409F PUSH1 0x20 DUP7 ADD DUP3 PUSH2 0x3AC4 JUMP JUMPDEST POP PUSH1 0x40 DUP4 ADD MLOAD DUP5 DUP3 SUB PUSH1 0x40 DUP7 ADD MSTORE PUSH2 0x40B7 DUP3 DUP3 PUSH2 0x3AED JUMP JUMPDEST SWAP2 POP POP DUP1 SWAP2 POP POP SWAP3 SWAP2 POP POP JUMP JUMPDEST PUSH0 PUSH1 0x20 DUP3 ADD SWAP1 POP DUP2 DUP2 SUB PUSH0 DUP4 ADD MSTORE PUSH2 0x40DC DUP2 DUP5 PUSH2 0x4070 JUMP JUMPDEST SWAP1 POP SWAP3 SWAP2 POP POP JUMP JUMPDEST PUSH0 PUSH0 PUSH1 0x40 DUP4 DUP6 SUB SLT ISZERO PUSH2 0x40FA JUMPI PUSH2 0x40F9 PUSH2 0x3153 JUMP JUMPDEST JUMPDEST PUSH0 PUSH2 0x4107 DUP6 DUP3 DUP7 ADD PUSH2 0x329C JUMP JUMPDEST SWAP3 POP POP PUSH1 0x20 PUSH2 0x4118 DUP6 DUP3 DUP7 ADD PUSH2 0x31A1 JUMP JUMPDEST SWAP2 POP POP SWAP3 POP SWAP3 SWAP1 POP JUMP JUMPDEST PUSH0 PUSH8 0xFFFFFFFFFFFFFFFF DUP3 GT ISZERO PUSH2 0x413C JUMPI PUSH2 0x413B PUSH2 0x3459 JUMP JUMPDEST JUMPDEST PUSH2 0x4145 DUP3 PUSH2 0x3449 JUMP JUMPDEST SWAP1 POP PUSH1 0x20 DUP2 ADD SWAP1 POP SWAP2 SWAP1 POP JUMP JUMPDEST PUSH0 PUSH2 0x4164 PUSH2 0x415F DUP5 PUSH2 0x4122 JUMP JUMPDEST PUSH2 0x34B7 JUMP JUMPDEST SWAP1 POP DUP3 DUP2 MSTORE PUSH1 0x20 DUP2 ADD DUP5 DUP5 DUP5 ADD GT ISZERO PUSH2 0x4180 JUMPI PUSH2 0x417F PUSH2 0x3D69 JUMP JUMPDEST JUMPDEST PUSH2 0x418B DUP5 DUP3 DUP6 PUSH2 0x3D9D JUMP JUMPDEST POP SWAP4 SWAP3 POP POP POP JUMP JUMPDEST PUSH0 DUP3 PUSH1 0x1F DUP4 ADD SLT PUSH2 0x41A7 JUMPI PUSH2 0x41A6 PUSH2 0x31B5 JUMP JUMPDEST JUMPDEST DUP2 CALLDATALOAD PUSH2 0x41B7 DUP5 DUP3 PUSH1 0x20 DUP7 ADD PUSH2 0x4152 JUMP JUMPDEST SWAP2 POP POP SWAP3 SWAP2 POP POP JUMP JUMPDEST PUSH0 PUSH0 PUSH0 PUSH1 0x60 DUP5 DUP7 SUB SLT ISZERO PUSH2 0x41D7 JUMPI PUSH2 0x41D6 PUSH2 0x3153 JUMP JUMPDEST JUMPDEST PUSH0 PUSH2 0x41E4 DUP7 DUP3 DUP8 ADD PUSH2 0x31A1 JUMP JUMPDEST SWAP4 POP POP PUSH1 0x20 PUSH2 0x41F5 DUP7 DUP3 DUP8 ADD PUSH2 0x329C JUMP JUMPDEST SWAP3 POP POP PUSH1 0x40 DUP5 ADD CALLDATALOAD PUSH8 0xFFFFFFFFFFFFFFFF DUP2 GT ISZERO PUSH2 0x4216 JUMPI PUSH2 0x4215 PUSH2 0x3157 JUMP JUMPDEST JUMPDEST PUSH2 0x4222 DUP7 DUP3 DUP8 ADD PUSH2 0x4193 JUMP JUMPDEST SWAP2 POP POP SWAP3 POP SWAP3 POP SWAP3 JUMP JUMPDEST PUSH0 PUSH1 0x20 DUP3 DUP5 SUB SLT ISZERO PUSH2 0x4241 JUMPI PUSH2 0x4240 PUSH2 0x3153 JUMP JUMPDEST JUMPDEST PUSH0 PUSH2 0x424E DUP5 DUP3 DUP6 ADD PUSH2 0x31A1 JUMP JUMPDEST SWAP2 POP POP SWAP3 SWAP2 POP POP JUMP JUMPDEST PUSH32 0x4C696E6B65642070726F6F6620766572696669636174696F6E206E6565647320 PUSH0 DUP3 ADD MSTORE PUSH32 0x6D6F7265207468616E2031207265717565737400000000000000000000000000 PUSH1 0x20 DUP3 ADD MSTORE POP JUMP JUMPDEST PUSH0 PUSH2 0x42B1 PUSH1 0x33 DUP4 PUSH2 0x3943 JUMP JUMPDEST SWAP2 POP PUSH2 0x42BC DUP3 PUSH2 0x4257 JUMP JUMPDEST PUSH1 0x40 DUP3 ADD SWAP1 POP SWAP2 SWAP1 POP JUMP JUMPDEST PUSH0 PUSH1 0x20 DUP3 ADD SWAP1 POP DUP2 DUP2 SUB PUSH0 DUP4 ADD MSTORE PUSH2 0x42DE DUP2 PUSH2 0x42A5 JUMP JUMPDEST SWAP1 POP SWAP2 SWAP1 POP JUMP JUMPDEST PUSH32 0x4E487B7100000000000000000000000000000000000000000000000000000000 PUSH0 MSTORE PUSH1 0x32 PUSH1 0x4 MSTORE PUSH1 0x24 PUSH0 REVERT JUMPDEST PUSH32 0x43616E27742066696E64206C696E6B494420666F7220676976656E2072657175 PUSH0 DUP3 ADD MSTORE PUSH32 0x6573742049647320616E64207573657220616464726573730000000000000000 PUSH1 0x20 DUP3 ADD MSTORE POP JUMP JUMPDEST PUSH0 PUSH2 0x436C PUSH1 0x38 DUP4 PUSH2 0x3943 JUMP JUMPDEST SWAP2 POP PUSH2 0x4377 DUP3 PUSH2 0x4312 JUMP JUMPDEST PUSH1 0x40 DUP3 ADD SWAP1 POP SWAP2 SWAP1 POP JUMP JUMPDEST PUSH0 PUSH1 0x20 DUP3 ADD SWAP1 POP DUP2 DUP2 SUB PUSH0 DUP4 ADD MSTORE PUSH2 0x4399 DUP2 PUSH2 0x4360 JUMP JUMPDEST SWAP1 POP SWAP2 SWAP1 POP JUMP JUMPDEST PUSH32 0x50726F6F667320617265206E6F74206C696E6B65640000000000000000000000 PUSH0 DUP3 ADD MSTORE POP JUMP JUMPDEST PUSH0 PUSH2 0x43D4 PUSH1 0x15 DUP4 PUSH2 0x3943 JUMP JUMPDEST SWAP2 POP PUSH2 0x43DF DUP3 PUSH2 0x43A0 JUMP JUMPDEST PUSH1 0x20 DUP3 ADD SWAP1 POP SWAP2 SWAP1 POP JUMP JUMPDEST PUSH2 0x43F3 DUP2 PUSH2 0x3273 JUMP JUMPDEST DUP3 MSTORE POP POP JUMP JUMPDEST PUSH0 PUSH1 0xA0 DUP3 ADD SWAP1 POP DUP2 DUP2 SUB PUSH0 DUP4 ADD MSTORE PUSH2 0x4410 DUP2 PUSH2 0x43C8 JUMP JUMPDEST SWAP1 POP PUSH2 0x441F PUSH1 0x20 DUP4 ADD DUP8 PUSH2 0x43EA JUMP JUMPDEST PUSH2 0x442C PUSH1 0x40 DUP4 ADD DUP7 PUSH2 0x3317 JUMP JUMPDEST PUSH2 0x4439 PUSH1 0x60 DUP4 ADD DUP6 PUSH2 0x43EA JUMP JUMPDEST PUSH2 0x4446 PUSH1 0x80 DUP4 ADD DUP5 PUSH2 0x3317 JUMP JUMPDEST SWAP6 SWAP5 POP POP POP POP POP JUMP JUMPDEST PUSH32 0x7265717565737420696420646F65736E27742065786973740000000000000000 PUSH0 DUP3 ADD MSTORE POP JUMP JUMPDEST PUSH0 PUSH2 0x4483 PUSH1 0x18 DUP4 PUSH2 0x3943 JUMP JUMPDEST SWAP2 POP PUSH2 0x448E DUP3 PUSH2 0x444F JUMP JUMPDEST PUSH1 0x20 DUP3 ADD SWAP1 POP SWAP2 SWAP1 POP JUMP JUMPDEST PUSH0 PUSH1 0x20 DUP3 ADD SWAP1 POP DUP2 DUP2 SUB PUSH0 DUP4 ADD MSTORE PUSH2 0x44B0 DUP2 PUSH2 0x4477 JUMP JUMPDEST SWAP1 POP SWAP2 SWAP1 POP JUMP JUMPDEST PUSH32 0x7265717565737420696420616C72656164792065786973747300000000000000 PUSH0 DUP3 ADD MSTORE POP JUMP JUMPDEST PUSH0 PUSH2 0x44EB PUSH1 0x19 DUP4 PUSH2 0x3943 JUMP JUMPDEST SWAP2 POP PUSH2 0x44F6 DUP3 PUSH2 0x44B7 JUMP JUMPDEST PUSH1 0x20 DUP3 ADD SWAP1 POP SWAP2 SWAP1 POP JUMP JUMPDEST PUSH0 PUSH1 0x20 DUP3 ADD SWAP1 POP DUP2 DUP2 SUB PUSH0 DUP4 ADD MSTORE PUSH2 0x4518 DUP2 PUSH2 0x44DF JUMP JUMPDEST SWAP1 POP SWAP2 SWAP1 POP JUMP JUMPDEST PUSH32 0x4E6F7420616E206F776E6572206F722072657175657374206F776E6572000000 PUSH0 DUP3 ADD MSTORE POP JUMP JUMPDEST PUSH0 PUSH2 0x4553 PUSH1 0x1D DUP4 PUSH2 0x3943 JUMP JUMPDEST SWAP2 POP PUSH2 0x455E DUP3 PUSH2 0x451F JUMP JUMPDEST PUSH1 0x20 DUP3 ADD SWAP1 POP SWAP2 SWAP1 POP JUMP JUMPDEST PUSH0 PUSH1 0x20 DUP3 ADD SWAP1 POP DUP2 DUP2 SUB PUSH0 DUP4 ADD MSTORE PUSH2 0x4580 DUP2 PUSH2 0x4547 JUMP JUMPDEST SWAP1 POP SWAP2 SWAP1 POP JUMP JUMPDEST PUSH0 DUP2 SWAP1 POP SWAP2 SWAP1 POP JUMP JUMPDEST PUSH0 PUSH2 0x45AA PUSH2 0x45A5 PUSH2 0x45A0 DUP5 PUSH2 0x4587 JUMP JUMPDEST PUSH2 0x3A78 JUMP JUMPDEST PUSH2 0x3273 JUMP JUMPDEST SWAP1 POP SWAP2 SWAP1 POP JUMP JUMPDEST PUSH2 0x45BA DUP2 PUSH2 0x4590 JUMP JUMPDEST DUP3 MSTORE POP POP JUMP JUMPDEST PUSH0 PUSH1 0x20 DUP3 ADD SWAP1 POP PUSH2 0x45D3 PUSH0 DUP4 ADD DUP5 PUSH2 0x45B1 JUMP JUMPDEST SWAP3 SWAP2 POP POP JUMP JUMPDEST PUSH32 0x4E487B7100000000000000000000000000000000000000000000000000000000 PUSH0 MSTORE PUSH1 0x11 PUSH1 0x4 MSTORE PUSH1 0x24 PUSH0 REVERT JUMPDEST PUSH0 PUSH2 0x4610 DUP3 PUSH2 0x330E JUMP JUMPDEST SWAP2 POP PUSH2 0x461B DUP4 PUSH2 0x330E JUMP JUMPDEST SWAP3 POP DUP3 DUP3 SUB SWAP1 POP DUP2 DUP2 GT ISZERO PUSH2 0x4633 JUMPI PUSH2 0x4632 PUSH2 0x45D9 JUMP JUMPDEST JUMPDEST SWAP3 SWAP2 POP POP JUMP JUMPDEST PUSH32 0x4E487B7100000000000000000000000000000000000000000000000000000000 PUSH0 MSTORE PUSH1 0x22 PUSH1 0x4 MSTORE PUSH1 0x24 PUSH0 REVERT JUMPDEST PUSH0 PUSH1 0x2 DUP3 DIV SWAP1 POP PUSH1 0x1 DUP3 AND DUP1 PUSH2 0x467D JUMPI PUSH1 0x7F DUP3 AND SWAP2 POP JUMPDEST PUSH1 0x20 DUP3 LT DUP2 SUB PUSH2 0x4690 JUMPI PUSH2 0x468F PUSH2 0x4639 JUMP JUMPDEST JUMPDEST POP SWAP2 SWAP1 POP JUMP JUMPDEST PUSH0 PUSH0 REVERT JUMPDEST PUSH0 PUSH0 REVERT JUMPDEST PUSH0 PUSH0 REVERT JUMPDEST PUSH0 PUSH0 DUP4 CALLDATALOAD PUSH1 0x1 PUSH1 0x20 SUB DUP5 CALLDATASIZE SUB SUB DUP2 SLT PUSH2 0x46BE JUMPI PUSH2 0x46BD PUSH2 0x4696 JUMP JUMPDEST JUMPDEST DUP1 DUP5 ADD SWAP3 POP DUP3 CALLDATALOAD SWAP2 POP PUSH8 0xFFFFFFFFFFFFFFFF DUP3 GT ISZERO PUSH2 0x46E0 JUMPI PUSH2 0x46DF PUSH2 0x469A JUMP JUMPDEST JUMPDEST PUSH1 0x20 DUP4 ADD SWAP3 POP PUSH1 0x1 DUP3 MUL CALLDATASIZE SUB DUP4 SGT ISZERO PUSH2 0x46FC JUMPI PUSH2 0x46FB PUSH2 0x469E JUMP JUMPDEST JUMPDEST POP SWAP3 POP SWAP3 SWAP1 POP JUMP JUMPDEST PUSH0 PUSH0 DUP4 CALLDATALOAD PUSH1 0x1 PUSH1 0x20 SUB DUP5 CALLDATASIZE SUB SUB DUP2 SLT PUSH2 0x4720 JUMPI PUSH2 0x471F PUSH2 0x4696 JUMP JUMPDEST JUMPDEST DUP1 DUP5 ADD SWAP3 POP DUP3 CALLDATALOAD SWAP2 POP PUSH8 0xFFFFFFFFFFFFFFFF DUP3 GT ISZERO PUSH2 0x4742 JUMPI PUSH2 0x4741 PUSH2 0x469A JUMP JUMPDEST JUMPDEST PUSH1 0x20 DUP4 ADD SWAP3 POP PUSH1 0x1 DUP3 MUL CALLDATASIZE SUB DUP4 SGT ISZERO PUSH2 0x475E JUMPI PUSH2 0x475D PUSH2 0x469E JUMP JUMPDEST JUMPDEST POP SWAP3 POP SWAP3 SWAP1 POP JUMP JUMPDEST PUSH0 PUSH2 0x4771 DUP4 DUP6 PUSH2 0x3943 JUMP JUMPDEST SWAP4 POP PUSH2 0x477E DUP4 DUP6 DUP5 PUSH2 0x3D9D JUMP JUMPDEST PUSH2 0x4787 DUP4 PUSH2 0x3449 JUMP JUMPDEST DUP5 ADD SWAP1 POP SWAP4 SWAP3 POP POP POP JUMP JUMPDEST PUSH0 DUP3 DUP3 MSTORE PUSH1 0x20 DUP3 ADD SWAP1 POP SWAP3 SWAP2 POP POP JUMP JUMPDEST PUSH0 PUSH2 0x47AD DUP4 DUP6 PUSH2 0x4792 JUMP JUMPDEST SWAP4 POP PUSH2 0x47BA DUP4 DUP6 DUP5 PUSH2 0x3D9D JUMP JUMPDEST PUSH2 0x47C3 DUP4 PUSH2 0x3449 JUMP JUMPDEST DUP5 ADD SWAP1 POP SWAP4 SWAP3 POP POP POP JUMP JUMPDEST PUSH0 PUSH1 0x60 DUP3 ADD SWAP1 POP DUP2 DUP2 SUB PUSH0 DUP4 ADD MSTORE PUSH2 0x47E7 DUP2 DUP8 DUP10 PUSH2 0x4766 JUMP JUMPDEST SWAP1 POP PUSH2 0x47F6 PUSH1 0x20 DUP4 ADD DUP7 PUSH2 0x333F JUMP JUMPDEST DUP2 DUP2 SUB PUSH1 0x40 DUP4 ADD MSTORE PUSH2 0x4809 DUP2 DUP5 DUP7 PUSH2 0x47A2 JUMP JUMPDEST SWAP1 POP SWAP7 SWAP6 POP POP POP POP POP POP JUMP JUMPDEST PUSH0 DUP2 SWAP1 POP SWAP3 SWAP2 POP POP JUMP JUMPDEST PUSH0 PUSH2 0x4829 DUP3 PUSH2 0x37E8 JUMP JUMPDEST PUSH2 0x4833 DUP2 DUP6 PUSH2 0x4815 JUMP JUMPDEST SWAP4 POP PUSH2 0x4843 DUP2 DUP6 PUSH1 0x20 DUP7 ADD PUSH2 0x3802 JUMP JUMPDEST DUP1 DUP5 ADD SWAP2 POP POP SWAP3 SWAP2 POP POP JUMP JUMPDEST PUSH0 PUSH2 0x485A DUP3 DUP5 PUSH2 0x481F JUMP JUMPDEST SWAP2 POP DUP2 SWAP1 POP SWAP3 SWAP2 POP POP JUMP JUMPDEST PUSH32 0x56616C696461746F72206973206E6F742077686974656C697374656400000000 PUSH0 DUP3 ADD MSTORE POP JUMP JUMPDEST PUSH0 PUSH2 0x4899 PUSH1 0x1C DUP4 PUSH2 0x3943 JUMP JUMPDEST SWAP2 POP PUSH2 0x48A4 DUP3 PUSH2 0x4865 JUMP JUMPDEST PUSH1 0x20 DUP3 ADD SWAP1 POP SWAP2 SWAP1 POP JUMP JUMPDEST PUSH0 PUSH1 0x20 DUP3 ADD SWAP1 POP DUP2 DUP2 SUB PUSH0 DUP4 ADD MSTORE PUSH2 0x48C6 DUP2 PUSH2 0x488D JUMP JUMPDEST SWAP1 POP SWAP2 SWAP1 POP JUMP JUMPDEST PUSH0 PUSH32 0xFFFFFFFF00000000000000000000000000000000000000000000000000000000 DUP3 AND SWAP1 POP SWAP2 SWAP1 POP JUMP JUMPDEST PUSH2 0x4901 DUP2 PUSH2 0x48CD JUMP JUMPDEST DUP3 MSTORE POP POP JUMP JUMPDEST PUSH0 PUSH1 0x20 DUP3 ADD SWAP1 POP PUSH2 0x491A PUSH0 DUP4 ADD DUP5 PUSH2 0x48F8 JUMP JUMPDEST SWAP3 SWAP2 POP POP JUMP JUMPDEST PUSH2 0x4929 DUP2 PUSH2 0x32DB JUMP JUMPDEST DUP2 EQ PUSH2 0x4933 JUMPI PUSH0 PUSH0 REVERT JUMPDEST POP JUMP JUMPDEST PUSH0 DUP2 MLOAD SWAP1 POP PUSH2 0x4944 DUP2 PUSH2 0x4920 JUMP JUMPDEST SWAP3 SWAP2 POP POP JUMP JUMPDEST PUSH0 PUSH1 0x20 DUP3 DUP5 SUB SLT ISZERO PUSH2 0x495F JUMPI PUSH2 0x495E PUSH2 0x3153 JUMP JUMPDEST JUMPDEST PUSH0 PUSH2 0x496C DUP5 DUP3 DUP6 ADD PUSH2 0x4936 JUMP JUMPDEST SWAP2 POP POP SWAP3 SWAP2 POP POP JUMP JUMPDEST PUSH32 0x56616C696461746F7220646F65736E277420737570706F72742072656C657661 PUSH0 DUP3 ADD MSTORE PUSH32 0x6E7420696E746572666163650000000000000000000000000000000000000000 PUSH1 0x20 DUP3 ADD MSTORE POP JUMP JUMPDEST PUSH0 PUSH2 0x49CF PUSH1 0x2C DUP4 PUSH2 0x3943 JUMP JUMPDEST SWAP2 POP PUSH2 0x49DA DUP3 PUSH2 0x4975 JUMP JUMPDEST PUSH1 0x40 DUP3 ADD SWAP1 POP SWAP2 SWAP1 POP JUMP JUMPDEST PUSH0 PUSH1 0x20 DUP3 ADD SWAP1 POP DUP2 DUP2 SUB PUSH0 DUP4 ADD MSTORE PUSH2 0x49FC DUP2 PUSH2 0x49C3 JUMP JUMPDEST SWAP1 POP SWAP2 SWAP1 POP JUMP JUMPDEST PUSH32 0x4C656E6774682073686F756C642062652067726561746572207468616E203000 PUSH0 DUP3 ADD MSTORE POP JUMP JUMPDEST PUSH0 PUSH2 0x4A37 PUSH1 0x1F DUP4 PUSH2 0x3943 JUMP JUMPDEST SWAP2 POP PUSH2 0x4A42 DUP3 PUSH2 0x4A03 JUMP JUMPDEST PUSH1 0x20 DUP3 ADD SWAP1 POP SWAP2 SWAP1 POP JUMP JUMPDEST PUSH0 PUSH1 0x20 DUP3 ADD SWAP1 POP DUP2 DUP2 SUB PUSH0 DUP4 ADD MSTORE PUSH2 0x4A64 DUP2 PUSH2 0x4A2B JUMP JUMPDEST SWAP1 POP SWAP2 SWAP1 POP JUMP JUMPDEST PUSH32 0x4C656E677468206C696D69742065786365656465640000000000000000000000 PUSH0 DUP3 ADD MSTORE POP JUMP JUMPDEST PUSH0 PUSH2 0x4A9F PUSH1 0x15 DUP4 PUSH2 0x3943 JUMP JUMPDEST SWAP2 POP PUSH2 0x4AAA DUP3 PUSH2 0x4A6B JUMP JUMPDEST PUSH1 0x20 DUP3 ADD SWAP1 POP SWAP2 SWAP1 POP JUMP JUMPDEST PUSH0 PUSH1 0x20 DUP3 ADD SWAP1 POP DUP2 DUP2 SUB PUSH0 DUP4 ADD MSTORE PUSH2 0x4ACC DUP2 PUSH2 0x4A93 JUMP JUMPDEST SWAP1 POP SWAP2 SWAP1 POP JUMP JUMPDEST PUSH32 0x537461727420696E646578206F7574206F6620626F756E647300000000000000 PUSH0 DUP3 ADD MSTORE POP JUMP JUMPDEST PUSH0 PUSH2 0x4B07 PUSH1 0x19 DUP4 PUSH2 0x3943 JUMP JUMPDEST SWAP2 POP PUSH2 0x4B12 DUP3 PUSH2 0x4AD3 JUMP JUMPDEST PUSH1 0x20 DUP3 ADD SWAP1 POP SWAP2 SWAP1 POP JUMP JUMPDEST PUSH0 PUSH1 0x20 DUP3 ADD SWAP1 POP DUP2 DUP2 SUB PUSH0 DUP4 ADD MSTORE PUSH2 0x4B34 DUP2 PUSH2 0x4AFB JUMP JUMPDEST SWAP1 POP SWAP2 SWAP1 POP JUMP JUMPDEST PUSH0 PUSH2 0x4B45 DUP3 PUSH2 0x330E JUMP JUMPDEST SWAP2 POP PUSH2 0x4B50 DUP4 PUSH2 0x330E JUMP JUMPDEST SWAP3 POP DUP3 DUP3 ADD SWAP1 POP DUP1 DUP3 GT ISZERO PUSH2 0x4B68 JUMPI PUSH2 0x4B67 PUSH2 0x45D9 JUMP JUMPDEST JUMPDEST SWAP3 SWAP2 POP POP JUMP JUMPDEST PUSH0 PUSH2 0x4B78 DUP3 PUSH2 0x3AD3 JUMP JUMPDEST PUSH2 0x4B82 DUP2 DUP6 PUSH2 0x4792 JUMP JUMPDEST SWAP4 POP PUSH2 0x4B92 DUP2 DUP6 PUSH1 0x20 DUP7 ADD PUSH2 0x3802 JUMP JUMPDEST PUSH2 0x4B9B DUP2 PUSH2 0x3449 JUMP JUMPDEST DUP5 ADD SWAP2 POP POP SWAP3 SWAP2 POP POP JUMP JUMPDEST PUSH0 PUSH1 0x20 DUP3 ADD SWAP1 POP DUP2 DUP2 SUB PUSH0 DUP4 ADD MSTORE PUSH2 0x4BBE DUP2 DUP5 PUSH2 0x4B6E JUMP JUMPDEST SWAP1 POP SWAP3 SWAP2 POP POP JUMP JUMPDEST PUSH0 PUSH2 0x4BD0 DUP3 PUSH2 0x3AA2 JUMP JUMPDEST SWAP1 POP SWAP2 SWAP1 POP JUMP JUMPDEST PUSH2 0x4BE0 DUP2 PUSH2 0x4BC6 JUMP JUMPDEST DUP3 MSTORE POP POP JUMP JUMPDEST PUSH0 PUSH1 0x80 DUP3 ADD SWAP1 POP DUP2 DUP2 SUB PUSH0 DUP4 ADD MSTORE PUSH2 0x4BFE DUP2 DUP8 PUSH2 0x4B6E JUMP JUMPDEST SWAP1 POP DUP2 DUP2 SUB PUSH1 0x20 DUP4 ADD MSTORE PUSH2 0x4C12 DUP2 DUP7 PUSH2 0x4B6E JUMP JUMPDEST SWAP1 POP PUSH2 0x4C21 PUSH1 0x40 DUP4 ADD DUP6 PUSH2 0x333F JUMP JUMPDEST PUSH2 0x4C2E PUSH1 0x60 DUP4 ADD DUP5 PUSH2 0x4BD7 JUMP JUMPDEST SWAP6 SWAP5 POP POP POP POP POP JUMP JUMPDEST PUSH0 PUSH8 0xFFFFFFFFFFFFFFFF DUP3 GT ISZERO PUSH2 0x4C51 JUMPI PUSH2 0x4C50 PUSH2 0x3459 JUMP JUMPDEST JUMPDEST PUSH1 0x20 DUP3 MUL SWAP1 POP PUSH1 0x20 DUP2 ADD SWAP1 POP SWAP2 SWAP1 POP JUMP JUMPDEST PUSH0 PUSH2 0x4C74 PUSH2 0x4C6F DUP5 PUSH2 0x4122 JUMP JUMPDEST PUSH2 0x34B7 JUMP JUMPDEST SWAP1 POP DUP3 DUP2 MSTORE PUSH1 0x20 DUP2 ADD DUP5 DUP5 DUP5 ADD GT ISZERO PUSH2 0x4C90 JUMPI PUSH2 0x4C8F PUSH2 0x3D69 JUMP JUMPDEST JUMPDEST PUSH2 0x4C9B DUP5 DUP3 DUP6 PUSH2 0x3802 JUMP JUMPDEST POP SWAP4 SWAP3 POP POP POP JUMP JUMPDEST PUSH0 DUP3 PUSH1 0x1F DUP4 ADD SLT PUSH2 0x4CB7 JUMPI PUSH2 0x4CB6 PUSH2 0x31B5 JUMP JUMPDEST JUMPDEST DUP2 MLOAD PUSH2 0x4CC7 DUP5 DUP3 PUSH1 0x20 DUP7 ADD PUSH2 0x4C62 JUMP JUMPDEST SWAP2 POP POP SWAP3 SWAP2 POP POP JUMP JUMPDEST PUSH0 DUP2 MLOAD SWAP1 POP PUSH2 0x4CDE DUP2 PUSH2 0x34FC JUMP JUMPDEST SWAP3 SWAP2 POP POP JUMP JUMPDEST PUSH0 PUSH1 0x40 DUP3 DUP5 SUB SLT ISZERO PUSH2 0x4CF9 JUMPI PUSH2 0x4CF8 PUSH2 0x3D61 JUMP JUMPDEST JUMPDEST PUSH2 0x4D03 PUSH1 0x40 PUSH2 0x34B7 JUMP JUMPDEST SWAP1 POP PUSH0 DUP3 ADD MLOAD PUSH8 0xFFFFFFFFFFFFFFFF DUP2 GT ISZERO PUSH2 0x4D22 JUMPI PUSH2 0x4D21 PUSH2 0x3D65 JUMP JUMPDEST JUMPDEST PUSH2 0x4D2E DUP5 DUP3 DUP6 ADD PUSH2 0x4CA3 JUMP JUMPDEST PUSH0 DUP4 ADD MSTORE POP PUSH1 0x20 PUSH2 0x4D41 DUP5 DUP3 DUP6 ADD PUSH2 0x4CD0 JUMP JUMPDEST PUSH1 0x20 DUP4 ADD MSTORE POP SWAP3 SWAP2 POP POP JUMP JUMPDEST PUSH0 PUSH2 0x4D5F PUSH2 0x4D5A DUP5 PUSH2 0x4C37 JUMP JUMPDEST PUSH2 0x34B7 JUMP JUMPDEST SWAP1 POP DUP1 DUP4 DUP3 MSTORE PUSH1 0x20 DUP3 ADD SWAP1 POP PUSH1 0x20 DUP5 MUL DUP4 ADD DUP6 DUP2 GT ISZERO PUSH2 0x4D82 JUMPI PUSH2 0x4D81 PUSH2 0x31BD JUMP JUMPDEST JUMPDEST DUP4 JUMPDEST DUP2 DUP2 LT ISZERO PUSH2 0x4DC9 JUMPI DUP1 MLOAD PUSH8 0xFFFFFFFFFFFFFFFF DUP2 GT ISZERO PUSH2 0x4DA7 JUMPI PUSH2 0x4DA6 PUSH2 0x31B5 JUMP JUMPDEST JUMPDEST DUP1 DUP7 ADD PUSH2 0x4DB4 DUP10 DUP3 PUSH2 0x4CE4 JUMP JUMPDEST DUP6 MSTORE PUSH1 0x20 DUP6 ADD SWAP5 POP POP POP PUSH1 0x20 DUP2 ADD SWAP1 POP PUSH2 0x4D84 JUMP JUMPDEST POP POP POP SWAP4 SWAP3 POP POP POP JUMP JUMPDEST PUSH0 DUP3 PUSH1 0x1F DUP4 ADD SLT PUSH2 0x4DE7 JUMPI PUSH2 0x4DE6 PUSH2 0x31B5 JUMP JUMPDEST JUMPDEST DUP2 MLOAD PUSH2 0x4DF7 DUP5 DUP3 PUSH1 0x20 DUP7 ADD PUSH2 0x4D4D JUMP JUMPDEST SWAP2 POP POP SWAP3 SWAP2 POP POP JUMP JUMPDEST PUSH0 PUSH1 0x20 DUP3 DUP5 SUB SLT ISZERO PUSH2 0x4E15 JUMPI PUSH2 0x4E14 PUSH2 0x3153 JUMP JUMPDEST JUMPDEST PUSH0 DUP3 ADD MLOAD PUSH8 0xFFFFFFFFFFFFFFFF DUP2 GT ISZERO PUSH2 0x4E32 JUMPI PUSH2 0x4E31 PUSH2 0x3157 JUMP JUMPDEST JUMPDEST PUSH2 0x4E3E DUP5 DUP3 DUP6 ADD PUSH2 0x4DD3 JUMP JUMPDEST SWAP2 POP POP SWAP3 SWAP2 POP POP JUMP JUMPDEST DUP1 DUP3 MSTORE POP POP JUMP JUMPDEST PUSH2 0x4E57 DUP2 PUSH2 0x317A JUMP JUMPDEST DUP3 MSTORE POP POP JUMP JUMPDEST PUSH2 0x4E66 DUP2 PUSH2 0x3273 JUMP JUMPDEST DUP3 MSTORE POP POP JUMP JUMPDEST PUSH0 DUP2 MLOAD SWAP1 POP SWAP2 SWAP1 POP JUMP JUMPDEST PUSH0 DUP3 DUP3 MSTORE PUSH1 0x20 DUP3 ADD SWAP1 POP SWAP3 SWAP2 POP POP JUMP JUMPDEST PUSH0 DUP2 SWAP1 POP PUSH1 0x20 DUP3 ADD SWAP1 POP SWAP2 SWAP1 POP JUMP JUMPDEST PUSH0 DUP3 DUP3 MSTORE PUSH1 0x20 DUP3 ADD SWAP1 POP SWAP3 SWAP2 POP POP JUMP JUMPDEST PUSH0 PUSH2 0x4EAF DUP3 PUSH2 0x37E8 JUMP JUMPDEST PUSH2 0x4EB9 DUP2 DUP6 PUSH2 0x4E95 JUMP JUMPDEST SWAP4 POP PUSH2 0x4EC9 DUP2 DUP6 PUSH1 0x20 DUP7 ADD PUSH2 0x3802 JUMP JUMPDEST PUSH2 0x4ED2 DUP2 PUSH2 0x3449 JUMP JUMPDEST DUP5 ADD SWAP2 POP POP SWAP3 SWAP2 POP POP JUMP JUMPDEST PUSH2 0x4EE6 DUP2 PUSH2 0x330E JUMP JUMPDEST DUP3 MSTORE POP POP JUMP JUMPDEST PUSH0 PUSH1 0x40 DUP4 ADD PUSH0 DUP4 ADD MLOAD DUP5 DUP3 SUB PUSH0 DUP7 ADD MSTORE PUSH2 0x4F06 DUP3 DUP3 PUSH2 0x4EA5 JUMP JUMPDEST SWAP2 POP POP PUSH1 0x20 DUP4 ADD MLOAD PUSH2 0x4F1B PUSH1 0x20 DUP7 ADD DUP3 PUSH2 0x4EDD JUMP JUMPDEST POP DUP1 SWAP2 POP POP SWAP3 SWAP2 POP POP JUMP JUMPDEST PUSH0 PUSH2 0x4F31 DUP4 DUP4 PUSH2 0x4EEC JUMP JUMPDEST SWAP1 POP SWAP3 SWAP2 POP POP JUMP JUMPDEST PUSH0 PUSH1 0x20 DUP3 ADD SWAP1 POP SWAP2 SWAP1 POP JUMP JUMPDEST PUSH0 PUSH2 0x4F4F DUP3 PUSH2 0x4E6C JUMP JUMPDEST PUSH2 0x4F59 DUP2 DUP6 PUSH2 0x4E76 JUMP JUMPDEST SWAP4 POP DUP4 PUSH1 0x20 DUP3 MUL DUP6 ADD PUSH2 0x4F6B DUP6 PUSH2 0x4E86 JUMP JUMPDEST DUP1 PUSH0 JUMPDEST DUP6 DUP2 LT ISZERO PUSH2 0x4FA6 JUMPI DUP5 DUP5 SUB DUP10 MSTORE DUP2 MLOAD PUSH2 0x4F87 DUP6 DUP3 PUSH2 0x4F26 JUMP JUMPDEST SWAP5 POP PUSH2 0x4F92 DUP4 PUSH2 0x4F39 JUMP JUMPDEST SWAP3 POP PUSH1 0x20 DUP11 ADD SWAP10 POP POP PUSH1 0x1 DUP2 ADD SWAP1 POP PUSH2 0x4F6E JUMP JUMPDEST POP DUP3 SWAP8 POP DUP8 SWAP6 POP POP POP POP POP POP SWAP3 SWAP2 POP POP JUMP JUMPDEST PUSH0 PUSH1 0x80 DUP3 ADD SWAP1 POP PUSH2 0x4FCB PUSH0 DUP4 ADD DUP8 PUSH2 0x4E47 JUMP JUMPDEST PUSH2 0x4FD8 PUSH1 0x20 DUP4 ADD DUP7 PUSH2 0x4E4E JUMP JUMPDEST PUSH2 0x4FE5 PUSH1 0x40 DUP4 ADD DUP6 PUSH2 0x4E5D JUMP JUMPDEST DUP2 DUP2 SUB PUSH1 0x60 DUP4 ADD MSTORE PUSH2 0x4FF7 DUP2 DUP5 PUSH2 0x4F45 JUMP JUMPDEST SWAP1 POP SWAP6 SWAP5 POP POP POP POP POP JUMP JUMPDEST PUSH32 0x4D65746164617461206E6F7420737570706F7274656420796574000000000000 PUSH0 DUP3 ADD MSTORE POP JUMP JUMPDEST PUSH0 PUSH2 0x5036 PUSH1 0x1A DUP4 PUSH2 0x3943 JUMP JUMPDEST SWAP2 POP PUSH2 0x5041 DUP3 PUSH2 0x5002 JUMP JUMPDEST PUSH1 0x20 DUP3 ADD SWAP1 POP SWAP2 SWAP1 POP JUMP JUMPDEST PUSH0 PUSH1 0x20 DUP3 ADD SWAP1 POP DUP2 DUP2 SUB PUSH0 DUP4 ADD MSTORE PUSH2 0x5063 DUP2 PUSH2 0x502A JUMP JUMPDEST SWAP1 POP SWAP2 SWAP1 POP JUMP JUMPDEST PUSH32 0x526571756573742069732064697361626C656400000000000000000000000000 PUSH0 DUP3 ADD MSTORE POP JUMP JUMPDEST PUSH0 PUSH2 0x509E PUSH1 0x13 DUP4 PUSH2 0x3943 JUMP JUMPDEST SWAP2 POP PUSH2 0x50A9 DUP3 PUSH2 0x506A JUMP JUMPDEST PUSH1 0x20 DUP3 ADD SWAP1 POP SWAP2 SWAP1 POP JUMP JUMPDEST PUSH0 PUSH1 0x20 DUP3 ADD SWAP1 POP DUP2 DUP2 SUB PUSH0 DUP4 ADD MSTORE PUSH2 0x50CB DUP2 PUSH2 0x5092 JUMP JUMPDEST SWAP1 POP SWAP2 SWAP1 POP JUMP JUMPDEST PUSH0 DUP2 MLOAD SWAP1 POP SWAP2 SWAP1 POP JUMP JUMPDEST PUSH0 DUP3 DUP3 MSTORE PUSH1 0x20 DUP3 ADD SWAP1 POP SWAP3 SWAP2 POP POP JUMP JUMPDEST PUSH0 DUP2 SWAP1 POP PUSH1 0x20 DUP3 ADD SWAP1 POP SWAP2 SWAP1 POP JUMP JUMPDEST PUSH0 PUSH2 0x5106 DUP4 DUP4 PUSH2 0x3848 JUMP JUMPDEST PUSH1 0x20 DUP4 ADD SWAP1 POP SWAP3 SWAP2 POP POP JUMP JUMPDEST PUSH0 PUSH1 0x20 DUP3 ADD SWAP1 POP SWAP2 SWAP1 POP JUMP JUMPDEST PUSH0 PUSH2 0x5128 DUP3 PUSH2 0x50D2 JUMP JUMPDEST PUSH2 0x5132 DUP2 DUP6 PUSH2 0x50DC JUMP JUMPDEST SWAP4 POP PUSH2 0x513D DUP4 PUSH2 0x50EC JUMP JUMPDEST DUP1 PUSH0 JUMPDEST DUP4 DUP2 LT ISZERO PUSH2 0x516D JUMPI DUP2 MLOAD PUSH2 0x5154 DUP9 DUP3 PUSH2 0x50FB JUMP JUMPDEST SWAP8 POP PUSH2 0x515F DUP4 PUSH2 0x5112 JUMP JUMPDEST SWAP3 POP POP PUSH1 0x1 DUP2 ADD SWAP1 POP PUSH2 0x5140 JUMP JUMPDEST POP DUP6 SWAP4 POP POP POP POP SWAP3 SWAP2 POP POP JUMP JUMPDEST PUSH0 PUSH1 0x2 SWAP1 POP SWAP2 SWAP1 POP JUMP JUMPDEST PUSH0 DUP2 SWAP1 POP SWAP3 SWAP2 POP POP JUMP JUMPDEST PUSH0 DUP2 SWAP1 POP SWAP2 SWAP1 POP JUMP JUMPDEST PUSH0 PUSH1 0x20 DUP3 ADD SWAP1 POP SWAP2 SWAP1 POP JUMP JUMPDEST PUSH2 0x51AC DUP2 PUSH2 0x517A JUMP JUMPDEST PUSH2 0x51B6 DUP2 DUP5 PUSH2 0x5184 JUMP JUMPDEST SWAP3 POP PUSH2 0x51C1 DUP3 PUSH2 0x518E JUMP JUMPDEST DUP1 PUSH0 JUMPDEST DUP4 DUP2 LT ISZERO PUSH2 0x51F1 JUMPI DUP2 MLOAD PUSH2 0x51D8 DUP8 DUP3 PUSH2 0x50FB JUMP JUMPDEST SWAP7 POP PUSH2 0x51E3 DUP4 PUSH2 0x5197 JUMP JUMPDEST SWAP3 POP POP PUSH1 0x1 DUP2 ADD SWAP1 POP PUSH2 0x51C4 JUMP JUMPDEST POP POP POP POP POP POP JUMP JUMPDEST PUSH0 PUSH1 0x2 SWAP1 POP SWAP2 SWAP1 POP JUMP JUMPDEST PUSH0 DUP2 SWAP1 POP SWAP3 SWAP2 POP POP JUMP JUMPDEST PUSH0 DUP2 SWAP1 POP SWAP2 SWAP1 POP JUMP JUMPDEST PUSH0 DUP2 SWAP1 POP SWAP3 SWAP2 POP POP JUMP JUMPDEST PUSH2 0x5229 DUP2 PUSH2 0x517A JUMP JUMPDEST PUSH2 0x5233 DUP2 DUP5 PUSH2 0x5216 JUMP JUMPDEST SWAP3 POP PUSH2 0x523E DUP3 PUSH2 0x518E JUMP JUMPDEST DUP1 PUSH0 JUMPDEST DUP4 DUP2 LT ISZERO PUSH2 0x526E JUMPI DUP2 MLOAD PUSH2 0x5255 DUP8 DUP3 PUSH2 0x50FB JUMP JUMPDEST SWAP7 POP PUSH2 0x5260 DUP4 PUSH2 0x5197 JUMP JUMPDEST SWAP3 POP POP PUSH1 0x1 DUP2 ADD SWAP1 POP PUSH2 0x5241 JUMP JUMPDEST POP POP POP POP POP POP JUMP JUMPDEST PUSH0 PUSH2 0x5281 DUP4 DUP4 PUSH2 0x5220 JUMP JUMPDEST PUSH1 0x40 DUP4 ADD SWAP1 POP SWAP3 SWAP2 POP POP JUMP JUMPDEST PUSH0 PUSH1 0x20 DUP3 ADD SWAP1 POP SWAP2 SWAP1 POP JUMP JUMPDEST PUSH2 0x52A2 DUP2 PUSH2 0x51F9 JUMP JUMPDEST PUSH2 0x52AC DUP2 DUP5 PUSH2 0x5203 JUMP JUMPDEST SWAP3 POP PUSH2 0x52B7 DUP3 PUSH2 0x520D JUMP JUMPDEST DUP1 PUSH0 JUMPDEST DUP4 DUP2 LT ISZERO PUSH2 0x52E7 JUMPI DUP2 MLOAD PUSH2 0x52CE DUP8 DUP3 PUSH2 0x5276 JUMP JUMPDEST SWAP7 POP PUSH2 0x52D9 DUP4 PUSH2 0x528D JUMP JUMPDEST SWAP3 POP POP PUSH1 0x1 DUP2 ADD SWAP1 POP PUSH2 0x52BA JUMP JUMPDEST POP POP POP POP POP POP JUMP JUMPDEST PUSH0 DUP2 SWAP1 POP DUP2 PUSH0 MSTORE PUSH1 0x20 PUSH0 KECCAK256 SWAP1 POP SWAP2 SWAP1 POP JUMP JUMPDEST PUSH0 DUP2 SLOAD PUSH2 0x530D DUP2 PUSH2 0x4666 JUMP JUMPDEST PUSH2 0x5317 DUP2 DUP7 PUSH2 0x4792 JUMP JUMPDEST SWAP5 POP PUSH1 0x1 DUP3 AND PUSH0 DUP2 EQ PUSH2 0x5331 JUMPI PUSH1 0x1 DUP2 EQ PUSH2 0x5347 JUMPI PUSH2 0x5379 JUMP JUMPDEST PUSH1 0xFF NOT DUP4 AND DUP7 MSTORE DUP2 ISZERO ISZERO PUSH1 0x20 MUL DUP7 ADD SWAP4 POP PUSH2 0x5379 JUMP JUMPDEST PUSH2 0x5350 DUP6 PUSH2 0x52EF JUMP JUMPDEST PUSH0 JUMPDEST DUP4 DUP2 LT ISZERO PUSH2 0x5371 JUMPI DUP2 SLOAD DUP2 DUP10 ADD MSTORE PUSH1 0x1 DUP3 ADD SWAP2 POP PUSH1 0x20 DUP2 ADD SWAP1 POP PUSH2 0x5352 JUMP JUMPDEST DUP1 DUP9 ADD SWAP6 POP POP POP JUMPDEST POP POP POP SWAP3 SWAP2 POP POP JUMP JUMPDEST PUSH0 PUSH2 0x160 DUP3 ADD SWAP1 POP DUP2 DUP2 SUB PUSH0 DUP4 ADD MSTORE PUSH2 0x539B DUP2 DUP10 PUSH2 0x511E JUMP JUMPDEST SWAP1 POP PUSH2 0x53AA PUSH1 0x20 DUP4 ADD DUP9 PUSH2 0x51A3 JUMP JUMPDEST PUSH2 0x53B7 PUSH1 0x60 DUP4 ADD DUP8 PUSH2 0x5299 JUMP JUMPDEST PUSH2 0x53C4 PUSH1 0xE0 DUP4 ADD DUP7 PUSH2 0x51A3 JUMP JUMPDEST DUP2 DUP2 SUB PUSH2 0x120 DUP4 ADD MSTORE PUSH2 0x53D7 DUP2 DUP6 PUSH2 0x5301 JUMP JUMPDEST SWAP1 POP PUSH2 0x53E7 PUSH2 0x140 DUP4 ADD DUP5 PUSH2 0x333F JUMP JUMPDEST SWAP8 SWAP7 POP POP POP POP POP POP POP JUMP JUMPDEST PUSH0 PUSH8 0xFFFFFFFFFFFFFFFF DUP3 GT ISZERO PUSH2 0x540C JUMPI PUSH2 0x540B PUSH2 0x3459 JUMP JUMPDEST JUMPDEST PUSH1 0x20 DUP3 MUL SWAP1 POP PUSH1 0x20 DUP2 ADD SWAP1 POP SWAP2 SWAP1 POP JUMP JUMPDEST PUSH0 PUSH1 0x40 DUP3 DUP5 SUB SLT ISZERO PUSH2 0x5432 JUMPI PUSH2 0x5431 PUSH2 0x3D61 JUMP JUMPDEST JUMPDEST PUSH2 0x543C PUSH1 0x40 PUSH2 0x34B7 JUMP JUMPDEST SWAP1 POP PUSH0 DUP3 ADD MLOAD PUSH8 0xFFFFFFFFFFFFFFFF DUP2 GT ISZERO PUSH2 0x545B JUMPI PUSH2 0x545A PUSH2 0x3D65 JUMP JUMPDEST JUMPDEST PUSH2 0x5467 DUP5 DUP3 DUP6 ADD PUSH2 0x4CA3 JUMP JUMPDEST PUSH0 DUP4 ADD MSTORE POP PUSH1 0x20 PUSH2 0x547A DUP5 DUP3 DUP6 ADD PUSH2 0x4CD0 JUMP JUMPDEST PUSH1 0x20 DUP4 ADD MSTORE POP SWAP3 SWAP2 POP POP JUMP JUMPDEST PUSH0 PUSH2 0x5498 PUSH2 0x5493 DUP5 PUSH2 0x53F2 JUMP JUMPDEST PUSH2 0x34B7 JUMP JUMPDEST SWAP1 POP DUP1 DUP4 DUP3 MSTORE PUSH1 0x20 DUP3 ADD SWAP1 POP PUSH1 0x20 DUP5 MUL DUP4 ADD DUP6 DUP2 GT ISZERO PUSH2 0x54BB JUMPI PUSH2 0x54BA PUSH2 0x31BD JUMP JUMPDEST JUMPDEST DUP4 JUMPDEST DUP2 DUP2 LT ISZERO PUSH2 0x5502 JUMPI DUP1 MLOAD PUSH8 0xFFFFFFFFFFFFFFFF DUP2 GT ISZERO PUSH2 0x54E0 JUMPI PUSH2 0x54DF PUSH2 0x31B5 JUMP JUMPDEST JUMPDEST DUP1 DUP7 ADD PUSH2 0x54ED DUP10 DUP3 PUSH2 0x541D JUMP JUMPDEST DUP6 MSTORE PUSH1 0x20 DUP6 ADD SWAP5 POP POP POP PUSH1 0x20 DUP2 ADD SWAP1 POP PUSH2 0x54BD JUMP JUMPDEST POP POP POP SWAP4 SWAP3 POP POP POP JUMP JUMPDEST PUSH0 DUP3 PUSH1 0x1F DUP4 ADD SLT PUSH2 0x5520 JUMPI PUSH2 0x551F PUSH2 0x31B5 JUMP JUMPDEST JUMPDEST DUP2 MLOAD PUSH2 0x5530 DUP5 DUP3 PUSH1 0x20 DUP7 ADD PUSH2 0x5486 JUMP JUMPDEST SWAP2 POP POP SWAP3 SWAP2 POP POP JUMP JUMPDEST PUSH0 PUSH1 0x20 DUP3 DUP5 SUB SLT ISZERO PUSH2 0x554E JUMPI PUSH2 0x554D PUSH2 0x3153 JUMP JUMPDEST JUMPDEST PUSH0 DUP3 ADD MLOAD PUSH8 0xFFFFFFFFFFFFFFFF DUP2 GT ISZERO PUSH2 0x556B JUMPI PUSH2 0x556A PUSH2 0x3157 JUMP JUMPDEST JUMPDEST PUSH2 0x5577 DUP5 DUP3 DUP6 ADD PUSH2 0x550C JUMP JUMPDEST SWAP2 POP POP SWAP3 SWAP2 POP POP JUMP JUMPDEST PUSH0 DUP3 SWAP1 POP SWAP3 SWAP2 POP POP JUMP JUMPDEST PUSH0 DUP2 SWAP1 POP DUP2 PUSH0 MSTORE PUSH1 0x20 PUSH0 KECCAK256 SWAP1 POP SWAP2 SWAP1 POP JUMP JUMPDEST PUSH0 PUSH1 0x20 PUSH1 0x1F DUP4 ADD DIV SWAP1 POP SWAP2 SWAP1 POP JUMP JUMPDEST PUSH0 DUP3 DUP3 SHL SWAP1 POP SWAP3 SWAP2 POP POP JUMP JUMPDEST PUSH0 PUSH1 0x8 DUP4 MUL PUSH2 0x55E6 PUSH32 0xFFFFFFFFFFFFFFFFFFFFFFFFFFFFFFFFFFFFFFFFFFFFFFFFFFFFFFFFFFFFFFFF DUP3 PUSH2 0x55AB JUMP JUMPDEST PUSH2 0x55F0 DUP7 DUP4 PUSH2 0x55AB JUMP JUMPDEST SWAP6 POP DUP1 NOT DUP5 AND SWAP4 POP DUP1 DUP7 AND DUP5 OR SWAP3 POP POP POP SWAP4 SWAP3 POP POP POP JUMP JUMPDEST PUSH0 PUSH2 0x5622 PUSH2 0x561D PUSH2 0x5618 DUP5 PUSH2 0x330E JUMP JUMPDEST PUSH2 0x3A78 JUMP JUMPDEST PUSH2 0x330E JUMP JUMPDEST SWAP1 POP SWAP2 SWAP1 POP JUMP JUMPDEST PUSH0 DUP2 SWAP1 POP SWAP2 SWAP1 POP JUMP JUMPDEST PUSH2 0x563B DUP4 PUSH2 0x5608 JUMP JUMPDEST PUSH2 0x564F PUSH2 0x5647 DUP3 PUSH2 0x5629 JUMP JUMPDEST DUP5 DUP5 SLOAD PUSH2 0x55B7 JUMP JUMPDEST DUP3 SSTORE POP POP POP POP JUMP JUMPDEST PUSH0 PUSH0 SWAP1 POP SWAP1 JUMP JUMPDEST PUSH2 0x5666 PUSH2 0x5657 JUMP JUMPDEST PUSH2 0x5671 DUP2 DUP5 DUP5 PUSH2 0x5632 JUMP JUMPDEST POP POP POP JUMP JUMPDEST JUMPDEST DUP2 DUP2 LT ISZERO PUSH2 0x5694 JUMPI PUSH2 0x5689 PUSH0 DUP3 PUSH2 0x565E JUMP JUMPDEST PUSH1 0x1 DUP2 ADD SWAP1 POP PUSH2 0x5677 JUMP JUMPDEST POP POP JUMP JUMPDEST PUSH1 0x1F DUP3 GT ISZERO PUSH2 0x56D9 JUMPI PUSH2 0x56AA DUP2 PUSH2 0x558A JUMP JUMPDEST PUSH2 0x56B3 DUP5 PUSH2 0x559C JUMP JUMPDEST DUP2 ADD PUSH1 0x20 DUP6 LT ISZERO PUSH2 0x56C2 JUMPI DUP2 SWAP1 POP JUMPDEST PUSH2 0x56D6 PUSH2 0x56CE DUP6 PUSH2 0x559C JUMP JUMPDEST DUP4 ADD DUP3 PUSH2 0x5676 JUMP JUMPDEST POP POP JUMPDEST POP POP POP JUMP JUMPDEST PUSH0 DUP3 DUP3 SHR SWAP1 POP SWAP3 SWAP2 POP POP JUMP JUMPDEST PUSH0 PUSH2 0x56F9 PUSH0 NOT DUP5 PUSH1 0x8 MUL PUSH2 0x56DE JUMP JUMPDEST NOT DUP1 DUP4 AND SWAP2 POP POP SWAP3 SWAP2 POP POP JUMP JUMPDEST PUSH0 PUSH2 0x5711 DUP4 DUP4 PUSH2 0x56EA JUMP JUMPDEST SWAP2 POP DUP3 PUSH1 0x2 MUL DUP3 OR SWAP1 POP SWAP3 SWAP2 POP POP JUMP JUMPDEST PUSH2 0x572B DUP4 DUP4 PUSH2 0x5580 JUMP JUMPDEST PUSH8 0xFFFFFFFFFFFFFFFF DUP2 GT ISZERO PUSH2 0x5744 JUMPI PUSH2 0x5743 PUSH2 0x3459 JUMP JUMPDEST JUMPDEST PUSH2 0x574E DUP3 SLOAD PUSH2 0x4666 JUMP JUMPDEST PUSH2 0x5759 DUP3 DUP3 DUP6 PUSH2 0x5698 JUMP JUMPDEST PUSH0 PUSH1 0x1F DUP4 GT PUSH1 0x1 DUP2 EQ PUSH2 0x5786 JUMPI PUSH0 DUP5 ISZERO PUSH2 0x5774 JUMPI DUP3 DUP8 ADD CALLDATALOAD SWAP1 POP JUMPDEST PUSH2 0x577E DUP6 DUP3 PUSH2 0x5706 JUMP JUMPDEST DUP7 SSTORE POP PUSH2 0x57E5 JUMP JUMPDEST PUSH1 0x1F NOT DUP5 AND PUSH2 0x5794 DUP7 PUSH2 0x558A JUMP JUMPDEST PUSH0 JUMPDEST DUP3 DUP2 LT ISZERO PUSH2 0x57BB JUMPI DUP5 DUP10 ADD CALLDATALOAD DUP3 SSTORE PUSH1 0x1 DUP3 ADD SWAP2 POP PUSH1 0x20 DUP6 ADD SWAP5 POP PUSH1 0x20 DUP2 ADD SWAP1 POP PUSH2 0x5796 JUMP JUMPDEST DUP7 DUP4 LT ISZERO PUSH2 0x57D8 JUMPI DUP5 DUP10 ADD CALLDATALOAD PUSH2 0x57D4 PUSH1 0x1F DUP10 AND DUP3 PUSH2 0x56EA JUMP JUMPDEST DUP4 SSTORE POP JUMPDEST PUSH1 0x1 PUSH1 0x2 DUP9 MUL ADD DUP9 SSTORE POP POP POP JUMPDEST POP POP POP POP POP POP POP JUMP JUMPDEST PUSH2 0x57F9 DUP4 DUP4 DUP4 PUSH2 0x5721 JUMP JUMPDEST POP POP POP JUMP JUMPDEST PUSH0 DUP2 CALLDATALOAD PUSH2 0x580A DUP2 PUSH2 0x39BC JUMP JUMPDEST DUP1 SWAP2 POP POP SWAP2 SWAP1 POP JUMP JUMPDEST PUSH0 DUP2 PUSH0 SHL SWAP1 POP SWAP2 SWAP1 POP JUMP JUMPDEST PUSH0 PUSH20 0xFFFFFFFFFFFFFFFFFFFFFFFFFFFFFFFFFFFFFFFF PUSH2 0x583D DUP5 PUSH2 0x5813 JUMP JUMPDEST SWAP4 POP DUP1 NOT DUP4 AND SWAP3 POP DUP1 DUP5 AND DUP4 OR SWAP2 POP POP SWAP3 SWAP2 POP POP JUMP JUMPDEST PUSH0 PUSH2 0x585D DUP3 PUSH2 0x3A81 JUMP JUMPDEST SWAP1 POP SWAP2 SWAP1 POP JUMP JUMPDEST PUSH0 PUSH2 0x586E DUP3 PUSH2 0x5853 JUMP JUMPDEST SWAP1 POP SWAP2 SWAP1 POP JUMP JUMPDEST PUSH0 DUP2 SWAP1 POP SWAP2 SWAP1 POP JUMP JUMPDEST PUSH2 0x5887 DUP3 PUSH2 0x5864 JUMP JUMPDEST PUSH2 0x589A PUSH2 0x5893 DUP3 PUSH2 0x5875 JUMP JUMPDEST DUP4 SLOAD PUSH2 0x581E JUMP JUMPDEST DUP3 SSTORE POP POP POP JUMP JUMPDEST PUSH0 DUP3 SWAP1 POP SWAP3 SWAP2 POP POP JUMP JUMPDEST PUSH1 0x1F DUP3 GT ISZERO PUSH2 0x58EC JUMPI PUSH2 0x58BD DUP2 PUSH2 0x52EF JUMP JUMPDEST PUSH2 0x58C6 DUP5 PUSH2 0x559C JUMP JUMPDEST DUP2 ADD PUSH1 0x20 DUP6 LT ISZERO PUSH2 0x58D5 JUMPI DUP2 SWAP1 POP JUMPDEST PUSH2 0x58E9 PUSH2 0x58E1 DUP6 PUSH2 0x559C JUMP JUMPDEST DUP4 ADD DUP3 PUSH2 0x5676 JUMP JUMPDEST POP POP JUMPDEST POP POP POP JUMP JUMPDEST PUSH2 0x58FB DUP4 DUP4 PUSH2 0x58A1 JUMP JUMPDEST PUSH8 0xFFFFFFFFFFFFFFFF DUP2 GT ISZERO PUSH2 0x5914 JUMPI PUSH2 0x5913 PUSH2 0x3459 JUMP JUMPDEST JUMPDEST PUSH2 0x591E DUP3 SLOAD PUSH2 0x4666 JUMP JUMPDEST PUSH2 0x5929 DUP3 DUP3 DUP6 PUSH2 0x58AB JUMP JUMPDEST PUSH0 PUSH1 0x1F DUP4 GT PUSH1 0x1 DUP2 EQ PUSH2 0x5956 JUMPI PUSH0 DUP5 ISZERO PUSH2 0x5944 JUMPI DUP3 DUP8 ADD CALLDATALOAD SWAP1 POP JUMPDEST PUSH2 0x594E DUP6 DUP3 PUSH2 0x5706 JUMP JUMPDEST DUP7 SSTORE POP PUSH2 0x59B5 JUMP JUMPDEST PUSH1 0x1F NOT DUP5 AND PUSH2 0x5964 DUP7 PUSH2 0x52EF JUMP JUMPDEST PUSH0 JUMPDEST DUP3 DUP2 LT ISZERO PUSH2 0x598B JUMPI DUP5 DUP10 ADD CALLDATALOAD DUP3 SSTORE PUSH1 0x1 DUP3 ADD SWAP2 POP PUSH1 0x20 DUP6 ADD SWAP5 POP PUSH1 0x20 DUP2 ADD SWAP1 POP PUSH2 0x5966 JUMP JUMPDEST DUP7 DUP4 LT ISZERO PUSH2 0x59A8 JUMPI DUP5 DUP10 ADD CALLDATALOAD PUSH2 0x59A4 PUSH1 0x1F DUP10 AND DUP3 PUSH2 0x56EA JUMP JUMPDEST DUP4 SSTORE POP JUMPDEST PUSH1 0x1 PUSH1 0x2 DUP9 MUL ADD DUP9 SSTORE POP POP POP JUMPDEST POP POP POP POP POP POP POP JUMP JUMPDEST PUSH2 0x59C9 DUP4 DUP4 DUP4 PUSH2 0x58F1 JUMP JUMPDEST POP POP POP JUMP JUMPDEST PUSH0 DUP2 ADD PUSH0 DUP4 ADD PUSH2 0x59DE DUP2 DUP6 PUSH2 0x46A2 JUMP JUMPDEST PUSH2 0x59E9 DUP2 DUP4 DUP7 PUSH2 0x57EE JUMP JUMPDEST POP POP POP POP PUSH1 0x1 DUP2 ADD PUSH1 0x20 DUP4 ADD DUP1 PUSH2 0x59FF DUP2 PUSH2 0x57FE JUMP JUMPDEST SWAP1 POP PUSH2 0x5A0B DUP2 DUP5 PUSH2 0x587E JUMP JUMPDEST POP POP POP PUSH1 0x2 DUP2 ADD PUSH1 0x40 DUP4 ADD PUSH2 0x5A20 DUP2 DUP6 PUSH2 0x4704 JUMP JUMPDEST PUSH2 0x5A2B DUP2 DUP4 DUP7 PUSH2 0x59BE JUMP JUMPDEST POP POP POP POP POP POP JUMP JUMPDEST PUSH2 0x5A3D DUP3 DUP3 PUSH2 0x59CE JUMP JUMPDEST POP POP JUMP JUMPDEST PUSH0 PUSH2 0x160 DUP3 ADD SWAP1 POP DUP2 DUP2 SUB PUSH0 DUP4 ADD MSTORE PUSH2 0x5A5A DUP2 DUP10 PUSH2 0x511E JUMP JUMPDEST SWAP1 POP PUSH2 0x5A69 PUSH1 0x20 DUP4 ADD DUP9 PUSH2 0x51A3 JUMP JUMPDEST PUSH2 0x5A76 PUSH1 0x60 DUP4 ADD DUP8 PUSH2 0x5299 JUMP JUMPDEST PUSH2 0x5A83 PUSH1 0xE0 DUP4 ADD DUP7 PUSH2 0x51A3 JUMP JUMPDEST DUP2 DUP2 SUB PUSH2 0x120 DUP4 ADD MSTORE PUSH2 0x5A96 DUP2 DUP6 PUSH2 0x4B6E JUMP JUMPDEST SWAP1 POP PUSH2 0x5AA6 PUSH2 0x140 DUP4 ADD DUP5 PUSH2 0x333F JUMP JUMPDEST SWAP8 SWAP7 POP POP POP POP POP POP POP JUMP JUMPDEST PUSH0 DUP3 DUP3 MSTORE PUSH1 0x20 DUP3 ADD SWAP1 POP SWAP3 SWAP2 POP POP JUMP JUMPDEST PUSH0 PUSH1 0x40 DUP4 ADD PUSH0 DUP4 ADD MLOAD DUP5 DUP3 SUB PUSH0 DUP7 ADD MSTORE PUSH2 0x5ADB DUP3 DUP3 PUSH2 0x4EA5 JUMP JUMPDEST SWAP2 POP POP PUSH1 0x20 DUP4 ADD MLOAD PUSH2 0x5AF0 PUSH1 0x20 DUP7 ADD DUP3 PUSH2 0x4EDD JUMP JUMPDEST POP DUP1 SWAP2 POP POP SWAP3 SWAP2 POP POP JUMP JUMPDEST PUSH0 PUSH2 0x5B06 DUP4 DUP4 PUSH2 0x5AC1 JUMP JUMPDEST SWAP1 POP SWAP3 SWAP2 POP POP JUMP JUMPDEST PUSH0 PUSH2 0x5B18 DUP3 PUSH2 0x37BF JUMP JUMPDEST PUSH2 0x5B22 DUP2 DUP6 PUSH2 0x5AB1 JUMP JUMPDEST SWAP4 POP DUP4 PUSH1 0x20 DUP3 MUL DUP6 ADD PUSH2 0x5B34 DUP6 PUSH2 0x37D9 JUMP JUMPDEST DUP1 PUSH0 JUMPDEST DUP6 DUP2 LT ISZERO PUSH2 0x5B6F JUMPI DUP5 DUP5 SUB DUP10 MSTORE DUP2 MLOAD PUSH2 0x5B50 DUP6 DUP3 PUSH2 0x5AFB JUMP JUMPDEST SWAP5 POP PUSH2 0x5B5B DUP4 PUSH2 0x38A4 JUMP JUMPDEST SWAP3 POP PUSH1 0x20 DUP11 ADD SWAP10 POP POP PUSH1 0x1 DUP2 ADD SWAP1 POP PUSH2 0x5B37 JUMP JUMPDEST POP DUP3 SWAP8 POP DUP8 SWAP6 POP POP POP POP POP POP SWAP3 SWAP2 POP POP JUMP JUMPDEST PUSH0 DUP3 DUP3 MSTORE PUSH1 0x20 DUP3 ADD SWAP1 POP SWAP3 SWAP2 POP POP JUMP JUMPDEST PUSH0 PUSH2 0x5B9C DUP4 DUP4 PUSH2 0x4EDD JUMP JUMPDEST PUSH1 0x20 DUP4 ADD SWAP1 POP SWAP3 SWAP2 POP POP JUMP JUMPDEST PUSH0 PUSH2 0x5BB2 DUP3 PUSH2 0x50D2 JUMP JUMPDEST PUSH2 0x5BBC DUP2 DUP6 PUSH2 0x5B81 JUMP JUMPDEST SWAP4 POP PUSH2 0x5BC7 DUP4 PUSH2 0x50EC JUMP JUMPDEST DUP1 PUSH0 JUMPDEST DUP4 DUP2 LT ISZERO PUSH2 0x5BF7 JUMPI DUP2 MLOAD PUSH2 0x5BDE DUP9 DUP3 PUSH2 0x5B91 JUMP JUMPDEST SWAP8 POP PUSH2 0x5BE9 DUP4 PUSH2 0x5112 JUMP JUMPDEST SWAP3 POP POP PUSH1 0x1 DUP2 ADD SWAP1 POP PUSH2 0x5BCA JUMP JUMPDEST POP DUP6 SWAP4 POP POP POP POP SWAP3 SWAP2 POP POP JUMP JUMPDEST PUSH0 PUSH1 0xA0 DUP3 ADD SWAP1 POP PUSH2 0x5C17 PUSH0 DUP4 ADD DUP9 PUSH2 0x4E47 JUMP JUMPDEST PUSH2 0x5C24 PUSH1 0x20 DUP4 ADD DUP8 PUSH2 0x4E4E JUMP JUMPDEST PUSH2 0x5C31 PUSH1 0x40 DUP4 ADD DUP7 PUSH2 0x4E5D JUMP JUMPDEST DUP2 DUP2 SUB PUSH1 0x60 DUP4 ADD MSTORE PUSH2 0x5C43 DUP2 DUP6 PUSH2 0x5B0E JUMP JUMPDEST SWAP1 POP DUP2 DUP2 SUB PUSH1 0x80 DUP4 ADD MSTORE PUSH2 0x5C57 DUP2 DUP5 PUSH2 0x5BA8 JUMP JUMPDEST SWAP1 POP SWAP7 SWAP6 POP POP POP POP POP POP JUMP INVALID LOG2 PUSH5 0x6970667358 0x22 SLT KECCAK256 MOD DUP12 0xE7 0xE2 SWAP12 0xFC 0x4D 0xE5 0xF6 SSTORE PUSH31 0xF79DCF5C1DAC858E5670F5A8203C183F6EE7E41C7364736F6C634300081B00 CALLER "
	},
	"abi": [
		{
			"inputs": [],
			"name": "InvalidInitialization",
			"type": "error"
		},
		{
			"inputs": [
				{
					"internalType": "string",
					"name": "message",
					"type": "string"
				},
				{
					"internalType": "uint64",
					"name": "requestId",
					"type": "uint64"
				},
				{
					"internalType": "uint256",
					"name": "linkID",
					"type": "uint256"
				},
				{
					"internalType": "uint64",
					"name": "requestIdToCompare",
					"type": "uint64"
				},
				{
					"internalType": "uint256",
					"name": "linkIdToCompare",
					"type": "uint256"
				}
			],
			"name": "LinkedProofError",
			"type": "error"
		},
		{
			"inputs": [],
			"name": "NotInitializing",
			"type": "error"
		},
		{
			"inputs": [
				{
					"internalType": "address",
					"name": "owner",
					"type": "address"
				}
			],
			"name": "OwnableInvalidOwner",
			"type": "error"
		},
		{
			"inputs": [
				{
					"internalType": "address",
					"name": "account",
					"type": "address"
				}
			],
			"name": "OwnableUnauthorizedAccount",
			"type": "error"
		},
		{
			"anonymous": false,
			"inputs": [
				{
					"indexed": false,
					"internalType": "uint64",
					"name": "version",
					"type": "uint64"
				}
			],
			"name": "Initialized",
			"type": "event"
		},
		{
			"anonymous": false,
			"inputs": [
				{
					"indexed": true,
					"internalType": "address",
					"name": "previousOwner",
					"type": "address"
				},
				{
					"indexed": true,
					"internalType": "address",
					"name": "newOwner",
					"type": "address"
				}
			],
			"name": "OwnershipTransferStarted",
			"type": "event"
		},
		{
			"anonymous": false,
			"inputs": [
				{
					"indexed": true,
					"internalType": "address",
					"name": "previousOwner",
					"type": "address"
				},
				{
					"indexed": true,
					"internalType": "address",
					"name": "newOwner",
					"type": "address"
				}
			],
			"name": "OwnershipTransferred",
			"type": "event"
		},
		{
			"anonymous": false,
			"inputs": [
				{
					"indexed": true,
					"internalType": "uint64",
					"name": "requestId",
					"type": "uint64"
				},
				{
					"indexed": true,
					"internalType": "address",
					"name": "requestOwner",
					"type": "address"
				},
				{
					"indexed": false,
					"internalType": "string",
					"name": "metadata",
					"type": "string"
				},
				{
					"indexed": false,
					"internalType": "address",
					"name": "validator",
					"type": "address"
				},
				{
					"indexed": false,
					"internalType": "bytes",
					"name": "data",
					"type": "bytes"
				}
			],
			"name": "ZKPRequestSet",
			"type": "event"
		},
		{
			"anonymous": false,
			"inputs": [
				{
					"indexed": true,
					"internalType": "uint64",
					"name": "requestId",
					"type": "uint64"
				},
				{
					"indexed": true,
					"internalType": "address",
					"name": "caller",
					"type": "address"
				}
			],
			"name": "ZKPResponseSubmitted",
			"type": "event"
		},
		{
			"inputs": [],
			"name": "REQUESTS_RETURN_LIMIT",
			"outputs": [
				{
					"internalType": "uint256",
					"name": "",
					"type": "uint256"
				}
			],
			"stateMutability": "view",
			"type": "function"
		},
		{
			"inputs": [],
			"name": "VERSION",
			"outputs": [
				{
					"internalType": "string",
					"name": "",
					"type": "string"
				}
			],
			"stateMutability": "view",
			"type": "function"
		},
		{
			"inputs": [],
			"name": "acceptOwnership",
			"outputs": [],
			"stateMutability": "nonpayable",
			"type": "function"
		},
		{
			"inputs": [
				{
					"internalType": "contract ICircuitValidator",
					"name": "validator",
					"type": "address"
				}
			],
			"name": "addValidatorToWhitelist",
			"outputs": [],
			"stateMutability": "nonpayable",
			"type": "function"
		},
		{
			"inputs": [
				{
					"internalType": "uint64",
					"name": "requestId",
					"type": "uint64"
				}
			],
			"name": "disableZKPRequest",
			"outputs": [],
			"stateMutability": "nonpayable",
			"type": "function"
		},
		{
			"inputs": [
				{
					"internalType": "uint64",
					"name": "requestId",
					"type": "uint64"
				}
			],
			"name": "enableZKPRequest",
			"outputs": [],
			"stateMutability": "nonpayable",
			"type": "function"
		},
		{
			"inputs": [
				{
					"internalType": "address",
					"name": "sender",
					"type": "address"
				},
				{
					"internalType": "uint64",
					"name": "requestId",
					"type": "uint64"
				}
			],
			"name": "getProofStatus",
			"outputs": [
				{
					"components": [
						{
							"internalType": "bool",
							"name": "isVerified",
							"type": "bool"
						},
						{
							"internalType": "string",
							"name": "validatorVersion",
							"type": "string"
						},
						{
							"internalType": "uint256",
							"name": "blockNumber",
							"type": "uint256"
						},
						{
							"internalType": "uint256",
							"name": "blockTimestamp",
							"type": "uint256"
						}
					],
					"internalType": "struct IZKPVerifier.ProofStatus",
					"name": "",
					"type": "tuple"
				}
			],
			"stateMutability": "view",
			"type": "function"
		},
		{
			"inputs": [
				{
					"internalType": "address",
					"name": "user",
					"type": "address"
				},
				{
					"internalType": "uint64",
					"name": "requestId",
					"type": "uint64"
				},
				{
					"internalType": "string",
					"name": "key",
					"type": "string"
				}
			],
			"name": "getProofStorageField",
			"outputs": [
				{
					"internalType": "uint256",
					"name": "",
					"type": "uint256"
				}
			],
			"stateMutability": "view",
			"type": "function"
		},
		{
			"inputs": [
				{
					"internalType": "uint64",
					"name": "requestId",
					"type": "uint64"
				}
			],
			"name": "getRequestOwner",
			"outputs": [
				{
					"internalType": "address",
					"name": "",
					"type": "address"
				}
			],
			"stateMutability": "view",
			"type": "function"
		},
		{
			"inputs": [],
			"name": "getStateAddress",
			"outputs": [
				{
					"internalType": "address",
					"name": "",
					"type": "address"
				}
			],
			"stateMutability": "view",
			"type": "function"
		},
		{
			"inputs": [
				{
					"internalType": "uint64",
					"name": "requestId",
					"type": "uint64"
				}
			],
			"name": "getZKPRequest",
			"outputs": [
				{
					"components": [
						{
							"internalType": "string",
							"name": "metadata",
							"type": "string"
						},
						{
							"internalType": "contract ICircuitValidator",
							"name": "validator",
							"type": "address"
						},
						{
							"internalType": "bytes",
							"name": "data",
							"type": "bytes"
						}
					],
					"internalType": "struct IZKPVerifier.ZKPRequest",
					"name": "zkpRequest",
					"type": "tuple"
				}
			],
			"stateMutability": "view",
			"type": "function"
		},
		{
			"inputs": [
				{
					"internalType": "uint256",
					"name": "startIndex",
					"type": "uint256"
				},
				{
					"internalType": "uint256",
					"name": "length",
					"type": "uint256"
				}
			],
			"name": "getZKPRequests",
			"outputs": [
				{
					"components": [
						{
							"internalType": "string",
							"name": "metadata",
							"type": "string"
						},
						{
							"internalType": "contract ICircuitValidator",
							"name": "validator",
							"type": "address"
						},
						{
							"internalType": "bytes",
							"name": "data",
							"type": "bytes"
						}
					],
					"internalType": "struct IZKPVerifier.ZKPRequest[]",
					"name": "",
					"type": "tuple[]"
				}
			],
			"stateMutability": "view",
			"type": "function"
		},
		{
			"inputs": [],
			"name": "getZKPRequestsCount",
			"outputs": [
				{
					"internalType": "uint256",
					"name": "",
					"type": "uint256"
				}
			],
			"stateMutability": "view",
			"type": "function"
		},
		{
			"inputs": [
				{
					"internalType": "contract IState",
					"name": "state",
					"type": "address"
				},
				{
					"internalType": "address",
					"name": "owner",
					"type": "address"
				}
			],
			"name": "initialize",
			"outputs": [],
			"stateMutability": "nonpayable",
			"type": "function"
		},
		{
			"inputs": [
				{
					"internalType": "address",
					"name": "sender",
					"type": "address"
				},
				{
					"internalType": "uint64",
					"name": "requestId",
					"type": "uint64"
				}
			],
			"name": "isProofVerified",
			"outputs": [
				{
					"internalType": "bool",
					"name": "",
					"type": "bool"
				}
			],
			"stateMutability": "view",
			"type": "function"
		},
		{
			"inputs": [
				{
					"internalType": "contract ICircuitValidator",
					"name": "validator",
					"type": "address"
				}
			],
			"name": "isWhitelistedValidator",
			"outputs": [
				{
					"internalType": "bool",
					"name": "",
					"type": "bool"
				}
			],
			"stateMutability": "view",
			"type": "function"
		},
		{
			"inputs": [
				{
					"internalType": "uint64",
					"name": "requestId",
					"type": "uint64"
				}
			],
			"name": "isZKPRequestEnabled",
			"outputs": [
				{
					"internalType": "bool",
					"name": "",
					"type": "bool"
				}
			],
			"stateMutability": "view",
			"type": "function"
		},
		{
			"inputs": [],
			"name": "owner",
			"outputs": [
				{
					"internalType": "address",
					"name": "",
					"type": "address"
				}
			],
			"stateMutability": "view",
			"type": "function"
		},
		{
			"inputs": [],
			"name": "pendingOwner",
			"outputs": [
				{
					"internalType": "address",
					"name": "",
					"type": "address"
				}
			],
			"stateMutability": "view",
			"type": "function"
		},
		{
			"inputs": [
				{
					"internalType": "contract ICircuitValidator",
					"name": "validator",
					"type": "address"
				}
			],
			"name": "removeValidatorFromWhitelist",
			"outputs": [],
			"stateMutability": "nonpayable",
			"type": "function"
		},
		{
			"inputs": [],
			"name": "renounceOwnership",
			"outputs": [],
			"stateMutability": "nonpayable",
			"type": "function"
		},
		{
			"inputs": [
				{
					"internalType": "uint64",
					"name": "requestId",
					"type": "uint64"
				}
			],
			"name": "requestIdExists",
			"outputs": [
				{
					"internalType": "bool",
					"name": "",
					"type": "bool"
				}
			],
			"stateMutability": "view",
			"type": "function"
		},
		{
			"inputs": [
				{
					"internalType": "uint64",
					"name": "requestId",
					"type": "uint64"
				},
				{
					"internalType": "address",
					"name": "requestOwner",
					"type": "address"
				}
			],
			"name": "setRequestOwner",
			"outputs": [],
			"stateMutability": "nonpayable",
			"type": "function"
		},
		{
			"inputs": [
				{
					"internalType": "contract IState",
					"name": "state",
					"type": "address"
				}
			],
			"name": "setState",
			"outputs": [],
			"stateMutability": "nonpayable",
			"type": "function"
		},
		{
			"inputs": [
				{
					"internalType": "uint64",
					"name": "requestId",
					"type": "uint64"
				},
				{
					"components": [
						{
							"internalType": "string",
							"name": "metadata",
							"type": "string"
						},
						{
							"internalType": "contract ICircuitValidator",
							"name": "validator",
							"type": "address"
						},
						{
							"internalType": "bytes",
							"name": "data",
							"type": "bytes"
						}
					],
					"internalType": "struct IZKPVerifier.ZKPRequest",
					"name": "request",
					"type": "tuple"
				}
			],
			"name": "setZKPRequest",
			"outputs": [],
			"stateMutability": "nonpayable",
			"type": "function"
		},
		{
			"inputs": [
				{
					"internalType": "uint64",
					"name": "requestId",
					"type": "uint64"
				},
				{
					"internalType": "uint256[]",
					"name": "inputs",
					"type": "uint256[]"
				},
				{
					"internalType": "uint256[2]",
					"name": "a",
					"type": "uint256[2]"
				},
				{
					"internalType": "uint256[2][2]",
					"name": "b",
					"type": "uint256[2][2]"
				},
				{
					"internalType": "uint256[2]",
					"name": "c",
					"type": "uint256[2]"
				}
			],
			"name": "submitZKPResponse",
			"outputs": [],
			"stateMutability": "nonpayable",
			"type": "function"
		},
		{
			"inputs": [
				{
					"components": [
						{
							"internalType": "uint64",
							"name": "requestId",
							"type": "uint64"
						},
						{
							"internalType": "bytes",
							"name": "zkProof",
							"type": "bytes"
						},
						{
							"internalType": "bytes",
							"name": "data",
							"type": "bytes"
						}
					],
					"internalType": "struct IZKPVerifier.ZKPResponse[]",
					"name": "responses",
					"type": "tuple[]"
				},
				{
					"internalType": "bytes",
					"name": "crossChainProof",
					"type": "bytes"
				}
			],
			"name": "submitZKPResponseV2",
			"outputs": [],
			"stateMutability": "nonpayable",
			"type": "function"
		},
		{
			"inputs": [
				{
					"internalType": "address",
					"name": "newOwner",
					"type": "address"
				}
			],
			"name": "transferOwnership",
			"outputs": [],
			"stateMutability": "nonpayable",
			"type": "function"
		},
		{
			"inputs": [
				{
					"internalType": "address",
					"name": "sender",
					"type": "address"
				},
				{
					"internalType": "uint64[]",
					"name": "requestIds",
					"type": "uint64[]"
				}
			],
			"name": "verifyLinkedProofs",
			"outputs": [],
			"stateMutability": "view",
			"type": "function"
		},
		{
			"inputs": [
				{
					"internalType": "uint64",
					"name": "requestId",
					"type": "uint64"
				},
				{
					"internalType": "uint256[]",
					"name": "inputs",
					"type": "uint256[]"
				},
				{
					"internalType": "uint256[2]",
					"name": "a",
					"type": "uint256[2]"
				},
				{
					"internalType": "uint256[2][2]",
					"name": "b",
					"type": "uint256[2][2]"
				},
				{
					"internalType": "uint256[2]",
					"name": "c",
					"type": "uint256[2]"
				},
				{
					"internalType": "address",
					"name": "sender",
					"type": "address"
				}
			],
			"name": "verifyZKPResponse",
			"outputs": [
				{
					"components": [
						{
							"internalType": "string",
							"name": "key",
							"type": "string"
						},
						{
							"internalType": "uint256",
							"name": "inputIndex",
							"type": "uint256"
						}
					],
					"internalType": "struct ICircuitValidator.KeyToInputIndex[]",
					"name": "",
					"type": "tuple[]"
				}
			],
			"stateMutability": "nonpayable",
			"type": "function"
		},
		{
			"inputs": [],
			"name": "version",
			"outputs": [
				{
					"internalType": "string",
					"name": "",
					"type": "string"
				}
			],
			"stateMutability": "pure",
			"type": "function"
		}
	],
	"storageLayout": {
		"storage": [],
		"types": null
	},
	"web3Deploy": "var universalverifierContract = new web3.eth.Contract([{\"inputs\":[],\"name\":\"InvalidInitialization\",\"type\":\"error\"},{\"inputs\":[{\"internalType\":\"string\",\"name\":\"message\",\"type\":\"string\"},{\"internalType\":\"uint64\",\"name\":\"requestId\",\"type\":\"uint64\"},{\"internalType\":\"uint256\",\"name\":\"linkID\",\"type\":\"uint256\"},{\"internalType\":\"uint64\",\"name\":\"requestIdToCompare\",\"type\":\"uint64\"},{\"internalType\":\"uint256\",\"name\":\"linkIdToCompare\",\"type\":\"uint256\"}],\"name\":\"LinkedProofError\",\"type\":\"error\"},{\"inputs\":[],\"name\":\"NotInitializing\",\"type\":\"error\"},{\"inputs\":[{\"internalType\":\"address\",\"name\":\"owner\",\"type\":\"address\"}],\"name\":\"OwnableInvalidOwner\",\"type\":\"error\"},{\"inputs\":[{\"internalType\":\"address\",\"name\":\"account\",\"type\":\"address\"}],\"name\":\"OwnableUnauthorizedAccount\",\"type\":\"error\"},{\"anonymous\":false,\"inputs\":[{\"indexed\":false,\"internalType\":\"uint64\",\"name\":\"version\",\"type\":\"uint64\"}],\"name\":\"Initialized\",\"type\":\"event\"},{\"anonymous\":false,\"inputs\":[{\"indexed\":true,\"internalType\":\"address\",\"name\":\"previousOwner\",\"type\":\"address\"},{\"indexed\":true,\"internalType\":\"address\",\"name\":\"newOwner\",\"type\":\"address\"}],\"name\":\"OwnershipTransferStarted\",\"type\":\"event\"},{\"anonymous\":false,\"inputs\":[{\"indexed\":true,\"internalType\":\"address\",\"name\":\"previousOwner\",\"type\":\"address\"},{\"indexed\":true,\"internalType\":\"address\",\"name\":\"newOwner\",\"type\":\"address\"}],\"name\":\"OwnershipTransferred\",\"type\":\"event\"},{\"anonymous\":false,\"inputs\":[{\"indexed\":true,\"internalType\":\"uint64\",\"name\":\"requestId\",\"type\":\"uint64\"},{\"indexed\":true,\"internalType\":\"address\",\"name\":\"requestOwner\",\"type\":\"address\"},{\"indexed\":false,\"internalType\":\"string\",\"name\":\"metadata\",\"type\":\"string\"},{\"indexed\":false,\"internalType\":\"address\",\"name\":\"validator\",\"type\":\"address\"},{\"indexed\":false,\"internalType\":\"bytes\",\"name\":\"data\",\"type\":\"bytes\"}],\"name\":\"ZKPRequestSet\",\"type\":\"event\"},{\"anonymous\":false,\"inputs\":[{\"indexed\":true,\"internalType\":\"uint64\",\"name\":\"requestId\",\"type\":\"uint64\"},{\"indexed\":true,\"internalType\":\"address\",\"name\":\"caller\",\"type\":\"address\"}],\"name\":\"ZKPResponseSubmitted\",\"type\":\"event\"},{\"inputs\":[],\"name\":\"REQUESTS_RETURN_LIMIT\",\"outputs\":[{\"internalType\":\"uint256\",\"name\":\"\",\"type\":\"uint256\"}],\"stateMutability\":\"view\",\"type\":\"function\"},{\"inputs\":[],\"name\":\"VERSION\",\"outputs\":[{\"internalType\":\"string\",\"name\":\"\",\"type\":\"string\"}],\"stateMutability\":\"view\",\"type\":\"function\"},{\"inputs\":[],\"name\":\"acceptOwnership\",\"outputs\":[],\"stateMutability\":\"nonpayable\",\"type\":\"function\"},{\"inputs\":[{\"internalType\":\"contract ICircuitValidator\",\"name\":\"validator\",\"type\":\"address\"}],\"name\":\"addValidatorToWhitelist\",\"outputs\":[],\"stateMutability\":\"nonpayable\",\"type\":\"function\"},{\"inputs\":[{\"internalType\":\"uint64\",\"name\":\"requestId\",\"type\":\"uint64\"}],\"name\":\"disableZKPRequest\",\"outputs\":[],\"stateMutability\":\"nonpayable\",\"type\":\"function\"},{\"inputs\":[{\"internalType\":\"uint64\",\"name\":\"requestId\",\"type\":\"uint64\"}],\"name\":\"enableZKPRequest\",\"outputs\":[],\"stateMutability\":\"nonpayable\",\"type\":\"function\"},{\"inputs\":[{\"internalType\":\"address\",\"name\":\"sender\",\"type\":\"address\"},{\"internalType\":\"uint64\",\"name\":\"requestId\",\"type\":\"uint64\"}],\"name\":\"getProofStatus\",\"outputs\":[{\"components\":[{\"internalType\":\"bool\",\"name\":\"isVerified\",\"type\":\"bool\"},{\"internalType\":\"string\",\"name\":\"validatorVersion\",\"type\":\"string\"},{\"internalType\":\"uint256\",\"name\":\"blockNumber\",\"type\":\"uint256\"},{\"internalType\":\"uint256\",\"name\":\"blockTimestamp\",\"type\":\"uint256\"}],\"internalType\":\"struct IZKPVerifier.ProofStatus\",\"name\":\"\",\"type\":\"tuple\"}],\"stateMutability\":\"view\",\"type\":\"function\"},{\"inputs\":[{\"internalType\":\"address\",\"name\":\"user\",\"type\":\"address\"},{\"internalType\":\"uint64\",\"name\":\"requestId\",\"type\":\"uint64\"},{\"internalType\":\"string\",\"name\":\"key\",\"type\":\"string\"}],\"name\":\"getProofStorageField\",\"outputs\":[{\"internalType\":\"uint256\",\"name\":\"\",\"type\":\"uint256\"}],\"stateMutability\":\"view\",\"type\":\"function\"},{\"inputs\":[{\"internalType\":\"uint64\",\"name\":\"requestId\",\"type\":\"uint64\"}],\"name\":\"getRequestOwner\",\"outputs\":[{\"internalType\":\"address\",\"name\":\"\",\"type\":\"address\"}],\"stateMutability\":\"view\",\"type\":\"function\"},{\"inputs\":[],\"name\":\"getStateAddress\",\"outputs\":[{\"internalType\":\"address\",\"name\":\"\",\"type\":\"address\"}],\"stateMutability\":\"view\",\"type\":\"function\"},{\"inputs\":[{\"internalType\":\"uint64\",\"name\":\"requestId\",\"type\":\"uint64\"}],\"name\":\"getZKPRequest\",\"outputs\":[{\"components\":[{\"internalType\":\"string\",\"name\":\"metadata\",\"type\":\"string\"},{\"internalType\":\"contract ICircuitValidator\",\"name\":\"validator\",\"type\":\"address\"},{\"internalType\":\"bytes\",\"name\":\"data\",\"type\":\"bytes\"}],\"internalType\":\"struct IZKPVerifier.ZKPRequest\",\"name\":\"zkpRequest\",\"type\":\"tuple\"}],\"stateMutability\":\"view\",\"type\":\"function\"},{\"inputs\":[{\"internalType\":\"uint256\",\"name\":\"startIndex\",\"type\":\"uint256\"},{\"internalType\":\"uint256\",\"name\":\"length\",\"type\":\"uint256\"}],\"name\":\"getZKPRequests\",\"outputs\":[{\"components\":[{\"internalType\":\"string\",\"name\":\"metadata\",\"type\":\"string\"},{\"internalType\":\"contract ICircuitValidator\",\"name\":\"validator\",\"type\":\"address\"},{\"internalType\":\"bytes\",\"name\":\"data\",\"type\":\"bytes\"}],\"internalType\":\"struct IZKPVerifier.ZKPRequest[]\",\"name\":\"\",\"type\":\"tuple[]\"}],\"stateMutability\":\"view\",\"type\":\"function\"},{\"inputs\":[],\"name\":\"getZKPRequestsCount\",\"outputs\":[{\"internalType\":\"uint256\",\"name\":\"\",\"type\":\"uint256\"}],\"stateMutability\":\"view\",\"type\":\"function\"},{\"inputs\":[{\"internalType\":\"contract IState\",\"name\":\"state\",\"type\":\"address\"},{\"internalType\":\"address\",\"name\":\"owner\",\"type\":\"address\"}],\"name\":\"initialize\",\"outputs\":[],\"stateMutability\":\"nonpayable\",\"type\":\"function\"},{\"inputs\":[{\"internalType\":\"address\",\"name\":\"sender\",\"type\":\"address\"},{\"internalType\":\"uint64\",\"name\":\"requestId\",\"type\":\"uint64\"}],\"name\":\"isProofVerified\",\"outputs\":[{\"internalType\":\"bool\",\"name\":\"\",\"type\":\"bool\"}],\"stateMutability\":\"view\",\"type\":\"function\"},{\"inputs\":[{\"internalType\":\"contract ICircuitValidator\",\"name\":\"validator\",\"type\":\"address\"}],\"name\":\"isWhitelistedValidator\",\"outputs\":[{\"internalType\":\"bool\",\"name\":\"\",\"type\":\"bool\"}],\"stateMutability\":\"view\",\"type\":\"function\"},{\"inputs\":[{\"internalType\":\"uint64\",\"name\":\"requestId\",\"type\":\"uint64\"}],\"name\":\"isZKPRequestEnabled\",\"outputs\":[{\"internalType\":\"bool\",\"name\":\"\",\"type\":\"bool\"}],\"stateMutability\":\"view\",\"type\":\"function\"},{\"inputs\":[],\"name\":\"owner\",\"outputs\":[{\"internalType\":\"address\",\"name\":\"\",\"type\":\"address\"}],\"stateMutability\":\"view\",\"type\":\"function\"},{\"inputs\":[],\"name\":\"pendingOwner\",\"outputs\":[{\"internalType\":\"address\",\"name\":\"\",\"type\":\"address\"}],\"stateMutability\":\"view\",\"type\":\"function\"},{\"inputs\":[{\"internalType\":\"contract ICircuitValidator\",\"name\":\"validator\",\"type\":\"address\"}],\"name\":\"removeValidatorFromWhitelist\",\"outputs\":[],\"stateMutability\":\"nonpayable\",\"type\":\"function\"},{\"inputs\":[],\"name\":\"renounceOwnership\",\"outputs\":[],\"stateMutability\":\"nonpayable\",\"type\":\"function\"},{\"inputs\":[{\"internalType\":\"uint64\",\"name\":\"requestId\",\"type\":\"uint64\"}],\"name\":\"requestIdExists\",\"outputs\":[{\"internalType\":\"bool\",\"name\":\"\",\"type\":\"bool\"}],\"stateMutability\":\"view\",\"type\":\"function\"},{\"inputs\":[{\"internalType\":\"uint64\",\"name\":\"requestId\",\"type\":\"uint64\"},{\"internalType\":\"address\",\"name\":\"requestOwner\",\"type\":\"address\"}],\"name\":\"setRequestOwner\",\"outputs\":[],\"stateMutability\":\"nonpayable\",\"type\":\"function\"},{\"inputs\":[{\"internalType\":\"contract IState\",\"name\":\"state\",\"type\":\"address\"}],\"name\":\"setState\",\"outputs\":[],\"stateMutability\":\"nonpayable\",\"type\":\"function\"},{\"inputs\":[{\"internalType\":\"uint64\",\"name\":\"requestId\",\"type\":\"uint64\"},{\"components\":[{\"internalType\":\"string\",\"name\":\"metadata\",\"type\":\"string\"},{\"internalType\":\"contract ICircuitValidator\",\"name\":\"validator\",\"type\":\"address\"},{\"internalType\":\"bytes\",\"name\":\"data\",\"type\":\"bytes\"}],\"internalType\":\"struct IZKPVerifier.ZKPRequest\",\"name\":\"request\",\"type\":\"tuple\"}],\"name\":\"setZKPRequest\",\"outputs\":[],\"stateMutability\":\"nonpayable\",\"type\":\"function\"},{\"inputs\":[{\"internalType\":\"uint64\",\"name\":\"requestId\",\"type\":\"uint64\"},{\"internalType\":\"uint256[]\",\"name\":\"inputs\",\"type\":\"uint256[]\"},{\"internalType\":\"uint256[2]\",\"name\":\"a\",\"type\":\"uint256[2]\"},{\"internalType\":\"uint256[2][2]\",\"name\":\"b\",\"type\":\"uint256[2][2]\"},{\"internalType\":\"uint256[2]\",\"name\":\"c\",\"type\":\"uint256[2]\"}],\"name\":\"submitZKPResponse\",\"outputs\":[],\"stateMutability\":\"nonpayable\",\"type\":\"function\"},{\"inputs\":[{\"components\":[{\"internalType\":\"uint64\",\"name\":\"requestId\",\"type\":\"uint64\"},{\"internalType\":\"bytes\",\"name\":\"zkProof\",\"type\":\"bytes\"},{\"internalType\":\"bytes\",\"name\":\"data\",\"type\":\"bytes\"}],\"internalType\":\"struct IZKPVerifier.ZKPResponse[]\",\"name\":\"responses\",\"type\":\"tuple[]\"},{\"internalType\":\"bytes\",\"name\":\"crossChainProof\",\"type\":\"bytes\"}],\"name\":\"submitZKPResponseV2\",\"outputs\":[],\"stateMutability\":\"nonpayable\",\"type\":\"function\"},{\"inputs\":[{\"internalType\":\"address\",\"name\":\"newOwner\",\"type\":\"address\"}],\"name\":\"transferOwnership\",\"outputs\":[],\"stateMutability\":\"nonpayable\",\"type\":\"function\"},{\"inputs\":[{\"internalType\":\"address\",\"name\":\"sender\",\"type\":\"address\"},{\"internalType\":\"uint64[]\",\"name\":\"requestIds\",\"type\":\"uint64[]\"}],\"name\":\"verifyLinkedProofs\",\"outputs\":[],\"stateMutability\":\"view\",\"type\":\"function\"},{\"inputs\":[{\"internalType\":\"uint64\",\"name\":\"requestId\",\"type\":\"uint64\"},{\"internalType\":\"uint256[]\",\"name\":\"inputs\",\"type\":\"uint256[]\"},{\"internalType\":\"uint256[2]\",\"name\":\"a\",\"type\":\"uint256[2]\"},{\"internalType\":\"uint256[2][2]\",\"name\":\"b\",\"type\":\"uint256[2][2]\"},{\"internalType\":\"uint256[2]\",\"name\":\"c\",\"type\":\"uint256[2]\"},{\"internalType\":\"address\",\"name\":\"sender\",\"type\":\"address\"}],\"name\":\"verifyZKPResponse\",\"outputs\":[{\"components\":[{\"internalType\":\"string\",\"name\":\"key\",\"type\":\"string\"},{\"internalType\":\"uint256\",\"name\":\"inputIndex\",\"type\":\"uint256\"}],\"internalType\":\"struct ICircuitValidator.KeyToInputIndex[]\",\"name\":\"\",\"type\":\"tuple[]\"}],\"stateMutability\":\"nonpayable\",\"type\":\"function\"},{\"inputs\":[],\"name\":\"version\",\"outputs\":[{\"internalType\":\"string\",\"name\":\"\",\"type\":\"string\"}],\"stateMutability\":\"pure\",\"type\":\"function\"}]);\nvar universalverifier = universalverifierContract.deploy({\n     data: '0x6080604052348015600e575f5ffd5b50615c998061001c5f395ff3fe608060405234801561000f575f5ffd5b50600436106101e3575f3560e01c8063715018a61161010d578063ade09fcd116100a0578063d48580511161006f578063d485805114610575578063e30c3978146105a5578063f2fde38b146105c3578063ffa1ad74146105df576101e3565b8063ade09fcd146104f1578063b68967e21461050d578063c76d084514610529578063c9c23ea514610559576101e3565b80638da5cb5b116100dc5780638da5cb5b146104575780639b36d036146104755780639f5223e0146104a5578063ab7bcfb7146104c1576101e3565b8063715018a6146103f757806379ba50971461040157806382aff29f1461040b5780638c1da2c914610427576101e3565b806349555fb1116101855780635f9e60d7116101545780635f9e60d71461035d578063617879fe1461038d5780636508e1b4146103a95780636f2477ad146103c7576101e3565b806349555fb1146102c35780635176983b146102f357806354fd4d501461032357806359f871a114610341576101e3565b806330def4ac116101c157806330def4ac1461025157806331969e571461026d57806334c901af1461028b578063485cc955146102a7576101e3565b80630106a959146101e7578063130a73ac146102035780631905e7b114610233575b5f5ffd5b61020160048036038101906101fc9190613216565b6105fd565b005b61021d600480360381019061021891906132b0565b610817565b60405161022a91906132f5565b60405180910390f35b61023b6108fc565b6040516102489190613326565b60405180910390f35b61026b600480360381019061026691906132b0565b610902565b005b6102756109cf565b604051610282919061334e565b60405180910390f35b6102a560048036038101906102a091906133a2565b610a00565b005b6102c160048036038101906102bc91906133cd565b610a14565b005b6102dd60048036038101906102d8919061340b565b610b9f565b6040516102ea91906132f5565b60405180910390f35b61030d60048036038101906103089190613717565b610cc1565b60405161031a9190613923565b60405180910390f35b61032b610cdd565b604051610338919061398b565b60405180910390f35b61035b600480360381019061035691906139e6565b610d1a565b005b61037760048036038101906103729190613a11565b610d2e565b6040516103849190613c0b565b60405180910390f35b6103a760048036038101906103a291906139e6565b610fec565b005b6103b1611000565b6040516103be9190613326565b60405180910390f35b6103e160048036038101906103dc91906132b0565b611015565b6040516103ee919061334e565b60405180910390f35b6103ff61110c565b005b61040961111f565b005b610425600480360381019061042091906132b0565b6111ad565b005b610441600480360381019061043c919061340b565b61127a565b60405161044e9190613c9a565b60405180910390f35b61045f61145c565b60405161046c919061334e565b60405180910390f35b61048f600480360381019061048a91906139e6565b611491565b60405161049c91906132f5565b60405180910390f35b6104bf60048036038101906104ba9190613cdc565b6114eb565b005b6104db60048036038101906104d691906132b0565b61158e565b6040516104e891906132f5565b60405180910390f35b61050b60048036038101906105069190613f65565b611616565b005b61052760048036038101906105229190613fdb565b6116b2565b005b610543600480360381019061053e91906132b0565b61171b565b60405161055091906140c4565b60405180910390f35b610573600480360381019061056e91906140e4565b611979565b005b61058f600480360381019061058a91906141c0565b611a48565b60405161059c9190613326565b60405180910390f35b6105ad611b7c565b6040516105ba919061334e565b60405180910390f35b6105dd60048036038101906105d8919061422c565b611bb1565b005b6105e7611c6a565b6040516105f4919061398b565b60405180910390f35b60018282905011610643576040517f08c379a000000000000000000000000000000000000000000000000000000000815260040161063a906142c7565b60405180910390fd5b5f6106ab8484845f81811061065b5761065a6142e5565b5b905060200201602081019061067091906132b0565b6040518060400160405280600681526020017f6c696e6b49440000000000000000000000000000000000000000000000000000815250611a48565b90505f81036106ef576040517f08c379a00000000000000000000000000000000000000000000000000000000081526004016106e690614382565b60405180910390fd5b5f600190505b83839050811015610810575f61076886868685818110610718576107176142e5565b5b905060200201602081019061072d91906132b0565b6040518060400160405280600681526020017f6c696e6b49440000000000000000000000000000000000000000000000000000815250611a48565b90508083146108025784845f818110610784576107836142e5565b5b905060200201602081019061079991906132b0565b838686858181106107ad576107ac6142e5565b5b90506020020160208101906107c291906132b0565b836040517f0cb82c030000000000000000000000000000000000000000000000000000000081526004016107f994939291906143f9565b60405180910390fd5b5080806001019150506106f5565b5050505050565b5f816001801561086e5761082a8261158e565b610869576040517f08c379a000000000000000000000000000000000000000000000000000000000815260040161086090614499565b60405180910390fd5b6108b8565b6108778261158e565b156108b7576040517f08c379a00000000000000000000000000000000000000000000000000000000081526004016108ae90614501565b60405180910390fd5b5b6108c0611ca3565b5f015f8567ffffffffffffffff1667ffffffffffffffff1681526020019081526020015f205f9054906101000a900460ff161592505050919050565b6103e881565b805f61090c611cca565b905061091782611015565b73ffffffffffffffffffffffffffffffffffffffff168173ffffffffffffffffffffffffffffffffffffffff161480610982575061095361145c565b73ffffffffffffffffffffffffffffffffffffffff168173ffffffffffffffffffffffffffffffffffffffff16145b6109c1576040517f08c379a00000000000000000000000000000000000000000000000000000000081526004016109b890614569565b60405180910390fd5b6109ca83611cd1565b505050565b5f6109d8611dba565b6003015f9054906101000a900473ffffffffffffffffffffffffffffffffffffffff16905090565b610a08611de1565b610a1181611e68565b50565b5f610a1d611eb4565b90505f815f0160089054906101000a900460ff161590505f825f015f9054906101000a900467ffffffffffffffff1690505f5f8267ffffffffffffffff16148015610a655750825b90505f60018367ffffffffffffffff16148015610a9857505f3073ffffffffffffffffffffffffffffffffffffffff163b145b905081158015610aa6575080155b15610add576040517ff92ee8a900000000000000000000000000000000000000000000000000000000815260040160405180910390fd5b6001855f015f6101000a81548167ffffffffffffffff021916908367ffffffffffffffff1602179055508315610b2a576001855f0160086101000a81548160ff0219169083151502179055505b610b3386611edb565b610b3c87611eef565b8315610b96575f855f0160086101000a81548160ff0219169083151502179055507fc7f505b2f371ae2175ee4913f4499e1f2633a7b5936321eed1cdaeb6115181d26001604051610b8d91906145c0565b60405180910390a15b50505050505050565b5f8160018015610bf657610bb28261158e565b610bf1576040517f08c379a0000000000000000000000000000000000000000000000000000000008152600401610be890614499565b60405180910390fd5b610c40565b610bff8261158e565b15610c3f576040517f08c379a0000000000000000000000000000000000000000000000000000000008152600401610c3690614501565b60405180910390fd5b5b610c48611dba565b5f015f8673ffffffffffffffffffffffffffffffffffffffff1673ffffffffffffffffffffffffffffffffffffffff1681526020019081526020015f205f8567ffffffffffffffff1667ffffffffffffffff1681526020019081526020015f205f015f9054906101000a900460ff169250505092915050565b6060610cd1878787878787611f03565b90509695505050505050565b60606040518060400160405280600581526020017f312e312e31000000000000000000000000000000000000000000000000000000815250905090565b610d22611de1565b610d2b81611f78565b50565b60605f610d39611dba565b90505f5f610d52836002018054905087876103e86120af565b915091505f8282610d639190614606565b67ffffffffffffffff811115610d7c57610d7b613459565b5b604051908082528060200260200182016040528015610db557816020015b610da26130ed565b815260200190600190039081610d9a5790505b5090505f8390505b82811015610fde57846001015f866002018381548110610de057610ddf6142e5565b5b905f5260205f2090600491828204019190066008029054906101000a900467ffffffffffffffff1667ffffffffffffffff1667ffffffffffffffff1681526020019081526020015f206040518060600160405290815f82018054610e4390614666565b80601f0160208091040260200160405190810160405280929190818152602001828054610e6f90614666565b8015610eba5780601f10610e9157610100808354040283529160200191610eba565b820191905f5260205f20905b815481529060010190602001808311610e9d57829003601f168201915b50505050508152602001600182015f9054906101000a900473ffffffffffffffffffffffffffffffffffffffff1673ffffffffffffffffffffffffffffffffffffffff1673ffffffffffffffffffffffffffffffffffffffff168152602001600282018054610f2890614666565b80601f0160208091040260200160405190810160405280929190818152602001828054610f5490614666565b8015610f9f5780601f10610f7657610100808354040283529160200191610f9f565b820191905f5260205f20905b815481529060010190602001808311610f8257829003601f168201915b505050505081525050828583610fb59190614606565b81518110610fc657610fc56142e5565b5b60200260200101819052508080600101915050610dbd565b508094505050505092915050565b610ff4611de1565b610ffd816121a3565b50565b5f611009611dba565b60020180549050905090565b5f816001801561106c576110288261158e565b611067576040517f08c379a000000000000000000000000000000000000000000000000000000000815260040161105e90614499565b60405180910390fd5b6110b6565b6110758261158e565b156110b5576040517f08c379a00000000000000000000000000000000000000000000000000000000081526004016110ac90614501565b60405180910390fd5b5b6110be612202565b5f015f8567ffffffffffffffff1667ffffffffffffffff1681526020019081526020015f205f9054906101000a900473ffffffffffffffffffffffffffffffffffffffff1692505050919050565b611114611de1565b61111d5f612229565b565b5f611128611cca565b90508073ffffffffffffffffffffffffffffffffffffffff16611149611b7c565b73ffffffffffffffffffffffffffffffffffffffff16146111a157806040517f118cdaa7000000000000000000000000000000000000000000000000000000008152600401611198919061334e565b60405180910390fd5b6111aa81612229565b50565b805f6111b7611cca565b90506111c282611015565b73ffffffffffffffffffffffffffffffffffffffff168173ffffffffffffffffffffffffffffffffffffffff16148061122d57506111fe61145c565b73ffffffffffffffffffffffffffffffffffffffff168173ffffffffffffffffffffffffffffffffffffffff16145b61126c576040517f08c379a000000000000000000000000000000000000000000000000000000000815260040161126390614569565b60405180910390fd5b61127583612266565b505050565b611282613123565b81600180156112d8576112948261158e565b6112d3576040517f08c379a00000000000000000000000000000000000000000000000000000000081526004016112ca90614499565b60405180910390fd5b611322565b6112e18261158e565b15611321576040517f08c379a000000000000000000000000000000000000000000000000000000000815260040161131890614501565b60405180910390fd5b5b5f61132b611dba565b5f015f8773ffffffffffffffffffffffffffffffffffffffff1673ffffffffffffffffffffffffffffffffffffffff1681526020019081526020015f205f8667ffffffffffffffff1667ffffffffffffffff1681526020019081526020015f2090506040518060800160405280825f015f9054906101000a900460ff16151581526020018260020180546113be90614666565b80601f01602080910402602001604051908101604052809291908181526020018280546113ea90614666565b80156114355780601f1061140c57610100808354040283529160200191611435565b820191905f5260205f20905b81548152906001019060200180831161141857829003601f168201915b50505050508152602001826003015481526020018260040154815250935050505092915050565b5f5f611466612350565b9050805f015f9054906101000a900473ffffffffffffffffffffffffffffffffffffffff1691505090565b5f61149a612377565b5f015f8373ffffffffffffffffffffffffffffffffffffffff1673ffffffffffffffffffffffffffffffffffffffff1681526020019081526020015f205f9054906101000a900460ff169050919050565b6114f5828261239e565b6114fd611cca565b73ffffffffffffffffffffffffffffffffffffffff168267ffffffffffffffff167f26db2c5d21d517fa8c11af3ae555af7f4a560b9f70a5a32e73e6cd94d0cae3e883805f019061154e91906146a2565b85602001602081019061156191906139e6565b8680604001906115719190614704565b6040516115829594939291906147ce565b60405180910390a35050565b5f5f73ffffffffffffffffffffffffffffffffffffffff166115ae611dba565b6001015f8467ffffffffffffffff1667ffffffffffffffff1681526020019081526020015f206001015f9054906101000a900473ffffffffffffffffffffffffffffffffffffffff1673ffffffffffffffffffffffffffffffffffffffff1614159050919050565b6116208282612408565b5f5f90505b82518110156116ad57611636611cca565b73ffffffffffffffffffffffffffffffffffffffff1683828151811061165f5761165e6142e5565b5b60200260200101515f015167ffffffffffffffff167f6979bc9c3e552c05dd9859285f1ed7a172e52ef39e1dce9c720e5bf8d82c9f4c60405160405180910390a38080600101915050611625565b505050565b6116bf8585858585612663565b6116c7611cca565b73ffffffffffffffffffffffffffffffffffffffff168567ffffffffffffffff167f6979bc9c3e552c05dd9859285f1ed7a172e52ef39e1dce9c720e5bf8d82c9f4c60405160405180910390a35050505050565b6117236130ed565b8160018015611779576117358261158e565b611774576040517f08c379a000000000000000000000000000000000000000000000000000000000815260040161176b90614499565b60405180910390fd5b6117c3565b6117828261158e565b156117c2576040517f08c379a00000000000000000000000000000000000000000000000000000000081526004016117b990614501565b60405180910390fd5b5b6117cb611dba565b6001015f8567ffffffffffffffff1667ffffffffffffffff1681526020019081526020015f206040518060600160405290815f8201805461180b90614666565b80601f016020809104026020016040519081016040528092919081815260200182805461183790614666565b80156118825780601f1061185957610100808354040283529160200191611882565b820191905f5260205f20905b81548152906001019060200180831161186557829003601f168201915b50505050508152602001600182015f9054906101000a900473ffffffffffffffffffffffffffffffffffffffff1673ffffffffffffffffffffffffffffffffffffffff1673ffffffffffffffffffffffffffffffffffffffff1681526020016002820180546118f090614666565b80601f016020809104026020016040519081016040528092919081815260200182805461191c90614666565b80156119675780601f1061193e57610100808354040283529160200191611967565b820191905f5260205f20905b81548152906001019060200180831161194a57829003601f168201915b50505050508152505092505050919050565b815f611983611cca565b905061198e82611015565b73ffffffffffffffffffffffffffffffffffffffff168173ffffffffffffffffffffffffffffffffffffffff1614806119f957506119ca61145c565b73ffffffffffffffffffffffffffffffffffffffff168173ffffffffffffffffffffffffffffffffffffffff16145b611a38576040517f08c379a0000000000000000000000000000000000000000000000000000000008152600401611a2f90614569565b60405180910390fd5b611a4284846126d0565b50505050565b5f8260018015611a9f57611a5b8261158e565b611a9a576040517f08c379a0000000000000000000000000000000000000000000000000000000008152600401611a9190614499565b60405180910390fd5b611ae9565b611aa88261158e565b15611ae8576040517f08c379a0000000000000000000000000000000000000000000000000000000008152600401611adf90614501565b60405180910390fd5b5b611af1611dba565b5f015f8773ffffffffffffffffffffffffffffffffffffffff1673ffffffffffffffffffffffffffffffffffffffff1681526020019081526020015f205f8667ffffffffffffffff1667ffffffffffffffff1681526020019081526020015f2060010184604051611b62919061484f565b908152602001604051809103902054925050509392505050565b5f5f611b866127e6565b9050805f015f9054906101000a900473ffffffffffffffffffffffffffffffffffffffff1691505090565b611bb9611de1565b5f611bc26127e6565b905081815f015f6101000a81548173ffffffffffffffffffffffffffffffffffffffff021916908373ffffffffffffffffffffffffffffffffffffffff1602179055508173ffffffffffffffffffffffffffffffffffffffff16611c2461145c565b73ffffffffffffffffffffffffffffffffffffffff167f38d16b8cac22d99fc7c124b9cd0de2d3fa1faef420bfe791d8c362d765e2270060405160405180910390a35050565b6040518060400160405280600581526020017f312e312e3100000000000000000000000000000000000000000000000000000081525081565b5f7f70325635d67d74932012fa921ccb2f335d3b1d69e3a487f50d001cc65f531600905090565b5f33905090565b8060018015611d2757611ce38261158e565b611d22576040517f08c379a0000000000000000000000000000000000000000000000000000000008152600401611d1990614499565b60405180910390fd5b611d71565b611d308261158e565b15611d70576040517f08c379a0000000000000000000000000000000000000000000000000000000008152600401611d6790614501565b60405180910390fd5b5b5f611d7a611ca3565b5f015f8567ffffffffffffffff1667ffffffffffffffff1681526020019081526020015f205f6101000a81548160ff021916908315150217905550505050565b5f7f512d18c55869273fec77e70d8a8586e3fb133e90f1db24c6bcf4ff3506ef6a00905090565b611de9611cca565b73ffffffffffffffffffffffffffffffffffffffff16611e0761145c565b73ffffffffffffffffffffffffffffffffffffffff1614611e6657611e2a611cca565b6040517f118cdaa7000000000000000000000000000000000000000000000000000000008152600401611e5d919061334e565b60405180910390fd5b565b80611e71611dba565b6003015f6101000a81548173ffffffffffffffffffffffffffffffffffffffff021916908373ffffffffffffffffffffffffffffffffffffffff16021790555050565b5f7ff0c57e16840df040f15088dc2f81fe391c3923bec73e23a9662efc9c229c6a00905090565b611ee361280d565b611eec8161284d565b50565b611ef761280d565b611f00816128d1565b50565b60605f611f0f8861171b565b602001519050611f1e81611491565b611f5d576040517f08c379a0000000000000000000000000000000000000000000000000000000008152600401611f54906148af565b60405180910390fd5b611f6b8888888888886128e5565b9150509695505050505050565b8073ffffffffffffffffffffffffffffffffffffffff166301ffc9a77f39db6a48000000000000000000000000000000000000000000000000000000006040518263ffffffff1660e01b8152600401611fd19190614907565b602060405180830381865afa158015611fec573d5f5f3e3d5ffd5b505050506040513d601f19601f82011682018060405250810190612010919061494a565b61204f576040517f08c379a0000000000000000000000000000000000000000000000000000000008152600401612046906149e5565b60405180910390fd5b6001612059612377565b5f015f8373ffffffffffffffffffffffffffffffffffffffff1673ffffffffffffffffffffffffffffffffffffffff1681526020019081526020015f205f6101000a81548160ff02191690831515021790555050565b5f5f5f84116120f3576040517f08c379a00000000000000000000000000000000000000000000000000000000081526004016120ea90614a4d565b60405180910390fd5b82841115612136576040517f08c379a000000000000000000000000000000000000000000000000000000000815260040161212d90614ab5565b60405180910390fd5b858510612178576040517f08c379a000000000000000000000000000000000000000000000000000000000815260040161216f90614b1d565b60405180910390fd5b5f84866121859190614b3b565b905086811115612193578690505b8581925092505094509492505050565b5f6121ac612377565b5f015f8373ffffffffffffffffffffffffffffffffffffffff1673ffffffffffffffffffffffffffffffffffffffff1681526020019081526020015f205f6101000a81548160ff02191690831515021790555050565b5f7f6209bdc3799f5201408f7a7d4d471bb2a0100353e618451674b93f730b006a00905090565b5f6122326127e6565b9050805f015f6101000a81549073ffffffffffffffffffffffffffffffffffffffff02191690556122628261294b565b5050565b80600180156122bc576122788261158e565b6122b7576040517f08c379a00000000000000000000000000000000000000000000000000000000081526004016122ae90614499565b60405180910390fd5b612306565b6122c58261158e565b15612305576040517f08c379a00000000000000000000000000000000000000000000000000000000081526004016122fc90614501565b60405180910390fd5b5b6001612310611ca3565b5f015f8567ffffffffffffffff1667ffffffffffffffff1681526020019081526020015f205f6101000a81548160ff021916908315150217905550505050565b5f7f9016d09d72d40fdae2fd8ceac6b6234c7706214fd39c1cd1e609a0528c199300905090565b5f7f76aa24e3538905838cc74060b2aa4c054b1e474aacf44741879e1850715e9300905090565b8060200160208101906123b191906139e6565b6123ba81611491565b6123f9576040517f08c379a00000000000000000000000000000000000000000000000000000000081526004016123f0906148af565b60405180910390fd5b6124038383612a1c565b505050565b5f612411611dba565b9050806003015f9054906101000a900473ffffffffffffffffffffffffffffffffffffffff1673ffffffffffffffffffffffffffffffffffffffff1663e28d24b0836040518263ffffffff1660e01b815260040161246f9190614ba6565b5f604051808303815f87803b158015612486575f5ffd5b505af1158015612498573d5f5f3e3d5ffd5b505050505f5f90505b835181101561265d575f8482815181106124be576124bd6142e5565b5b602002602001015190505f6124d1611cca565b90505f6124e0835f015161171b565b90505f816020015173ffffffffffffffffffffffffffffffffffffffff1663d6614a6b85602001518460400151868a6003015f9054906101000a900473ffffffffffffffffffffffffffffffffffffffff166040518563ffffffff1660e01b81526004016125519493929190614be6565b5f604051808303815f875af115801561256c573d5f5f3e3d5ffd5b505050506040513d5f823e3d601f19601f820116820180604052508101906125949190614e00565b90508573__$dbf1feab564eff82403e197ef29e496d33$__63b2394c60909185875f0151856040518563ffffffff1660e01b81526004016125d89493929190614fb8565b5f6040518083038186803b1580156125ee575f5ffd5b505af4158015612600573d5f5f3e3d5ffd5b505050505f846040015151111561264c576040517f08c379a00000000000000000000000000000000000000000000000000000000081526004016126439061504c565b60405180910390fd5b5050505080806001019150506124a1565b50505050565b5f61266d8661171b565b60200151905061267c81611491565b6126bb576040517f08c379a00000000000000000000000000000000000000000000000000000000081526004016126b2906148af565b60405180910390fd5b6126c88686868686612a3b565b505050505050565b8160018015612726576126e28261158e565b612721576040517f08c379a000000000000000000000000000000000000000000000000000000000815260040161271890614499565b60405180910390fd5b612770565b61272f8261158e565b1561276f576040517f08c379a000000000000000000000000000000000000000000000000000000000815260040161276690614501565b60405180910390fd5b5b5f612779612202565b905083815f015f8767ffffffffffffffff1667ffffffffffffffff1681526020019081526020015f205f6101000a81548173ffffffffffffffffffffffffffffffffffffffff021916908373ffffffffffffffffffffffffffffffffffffffff1602179055505050505050565b5f7f237e158222e3e6968b72b9db0d8043aacf074ad9f650f0d1606b4d82ee432c00905090565b612815612a99565b61284b576040517fd7e6bcf800000000000000000000000000000000000000000000000000000000815260040160405180910390fd5b565b61285561280d565b5f73ffffffffffffffffffffffffffffffffffffffff168173ffffffffffffffffffffffffffffffffffffffff16036128c5575f6040517f1e4fbdf70000000000000000000000000000000000000000000000000000000081526004016128bc919061334e565b60405180910390fd5b6128ce81612229565b50565b6128d961280d565b6128e281611e68565b50565b6060866128f181610817565b612930576040517f08c379a0000000000000000000000000000000000000000000000000000000008152600401612927906150b4565b60405180910390fd5b61293e888888888888612ab7565b9150509695505050505050565b5f612954612350565b90505f815f015f9054906101000a900473ffffffffffffffffffffffffffffffffffffffff16905082825f015f6101000a81548173ffffffffffffffffffffffffffffffffffffffff021916908373ffffffffffffffffffffffffffffffffffffffff1602179055508273ffffffffffffffffffffffffffffffffffffffff168173ffffffffffffffffffffffffffffffffffffffff167f8be0079c531659141344cd1fd0a4f28419497f9722a3daafe3b4186f6b6457e060405160405180910390a3505050565b612a268282612c45565b612a3782612a32611cca565b6126d0565b5050565b84612a4581610817565b612a84576040517f08c379a0000000000000000000000000000000000000000000000000000000008152600401612a7b906150b4565b60405180910390fd5b612a918686868686612d83565b505050505050565b5f612aa2611eb4565b5f0160089054906101000a900460ff16905090565b60608660018015612b0f57612acb8261158e565b612b0a576040517f08c379a0000000000000000000000000000000000000000000000000000000008152600401612b0190614499565b60405180910390fd5b612b59565b612b188261158e565b15612b58576040517f08c379a0000000000000000000000000000000000000000000000000000000008152600401612b4f90614501565b60405180910390fd5b5b5f612b62611dba565b6001015f8b67ffffffffffffffff1667ffffffffffffffff1681526020019081526020015f209050806001015f9054906101000a900473ffffffffffffffffffffffffffffffffffffffff1673ffffffffffffffffffffffffffffffffffffffff1663f177a69e8a8a8a8a866002018b6040518763ffffffff1660e01b8152600401612bf396959493929190615382565b5f604051808303815f875af1158015612c0e573d5f5f3e3d5ffd5b505050506040513d5f823e3d601f19601f82011682018060405250810190612c369190615539565b93505050509695505050505050565b815f8015612c9a57612c568261158e565b612c95576040517f08c379a0000000000000000000000000000000000000000000000000000000008152600401612c8c90614499565b60405180910390fd5b612ce4565b612ca38261158e565b15612ce3576040517f08c379a0000000000000000000000000000000000000000000000000000000008152600401612cda90614501565b60405180910390fd5b5b5f612ced611dba565b905083816001015f8767ffffffffffffffff1667ffffffffffffffff1681526020019081526020015f208181612d239190615a33565b9050508060020185908060018154018082558091505060019003905f5260205f2090600491828204019190066008029091909190916101000a81548167ffffffffffffffff021916908367ffffffffffffffff1602179055505050505050565b8460018015612dd957612d958261158e565b612dd4576040517f08c379a0000000000000000000000000000000000000000000000000000000008152600401612dcb90614499565b60405180910390fd5b612e23565b612de28261158e565b15612e22576040517f08c379a0000000000000000000000000000000000000000000000000000000008152600401612e1990614501565b60405180910390fd5b5b5f612e2c611cca565b90505f612e37611dba565b90505f816001015f8b67ffffffffffffffff1667ffffffffffffffff1681526020019081526020015f206040518060600160405290815f82018054612e7b90614666565b80601f0160208091040260200160405190810160405280929190818152602001828054612ea790614666565b8015612ef25780601f10612ec957610100808354040283529160200191612ef2565b820191905f5260205f20905b815481529060010190602001808311612ed557829003601f168201915b50505050508152602001600182015f9054906101000a900473ffffffffffffffffffffffffffffffffffffffff1673ffffffffffffffffffffffffffffffffffffffff1673ffffffffffffffffffffffffffffffffffffffff168152602001600282018054612f6090614666565b80601f0160208091040260200160405190810160405280929190818152602001828054612f8c90614666565b8015612fd75780601f10612fae57610100808354040283529160200191612fd7565b820191905f5260205f20905b815481529060010190602001808311612fba57829003601f168201915b50505050508152505090505f816020015173ffffffffffffffffffffffffffffffffffffffff1663f177a69e8b8b8b8b87604001518a6040518763ffffffff1660e01b815260040161302e96959493929190615a41565b5f604051808303815f875af1158015613049573d5f5f3e3d5ffd5b505050506040513d5f823e3d601f19601f820116820180604052508101906130719190615539565b90508273__$dbf1feab564eff82403e197ef29e496d33$__63e48754ab9091868e858f6040518663ffffffff1660e01b81526004016130b4959493929190615c04565b5f6040518083038186803b1580156130ca575f5ffd5b505af41580156130dc573d5f5f3e3d5ffd5b505050505050505050505050505050565b6040518060600160405280606081526020015f73ffffffffffffffffffffffffffffffffffffffff168152602001606081525090565b60405180608001604052805f15158152602001606081526020015f81526020015f81525090565b5f604051905090565b5f5ffd5b5f5ffd5b5f73ffffffffffffffffffffffffffffffffffffffff82169050919050565b5f6131848261315b565b9050919050565b6131948161317a565b811461319e575f5ffd5b50565b5f813590506131af8161318b565b92915050565b5f5ffd5b5f5ffd5b5f5ffd5b5f5f83601f8401126131d6576131d56131b5565b5b8235905067ffffffffffffffff8111156131f3576131f26131b9565b5b60208301915083602082028301111561320f5761320e6131bd565b5b9250929050565b5f5f5f6040848603121561322d5761322c613153565b5b5f61323a868287016131a1565b935050602084013567ffffffffffffffff81111561325b5761325a613157565b5b613267868287016131c1565b92509250509250925092565b5f67ffffffffffffffff82169050919050565b61328f81613273565b8114613299575f5ffd5b50565b5f813590506132aa81613286565b92915050565b5f602082840312156132c5576132c4613153565b5b5f6132d28482850161329c565b91505092915050565b5f8115159050919050565b6132ef816132db565b82525050565b5f6020820190506133085f8301846132e6565b92915050565b5f819050919050565b6133208161330e565b82525050565b5f6020820190506133395f830184613317565b92915050565b6133488161317a565b82525050565b5f6020820190506133615f83018461333f565b92915050565b5f6133718261317a565b9050919050565b61338181613367565b811461338b575f5ffd5b50565b5f8135905061339c81613378565b92915050565b5f602082840312156133b7576133b6613153565b5b5f6133c48482850161338e565b91505092915050565b5f5f604083850312156133e3576133e2613153565b5b5f6133f08582860161338e565b9250506020613401858286016131a1565b9150509250929050565b5f5f6040838503121561342157613420613153565b5b5f61342e858286016131a1565b925050602061343f8582860161329c565b9150509250929050565b5f601f19601f8301169050919050565b7f4e487b71000000000000000000000000000000000000000000000000000000005f52604160045260245ffd5b61348f82613449565b810181811067ffffffffffffffff821117156134ae576134ad613459565b5b80604052505050565b5f6134c061314a565b90506134cc8282613486565b919050565b5f67ffffffffffffffff8211156134eb576134ea613459565b5b602082029050602081019050919050565b6135058161330e565b811461350f575f5ffd5b50565b5f81359050613520816134fc565b92915050565b5f613538613533846134d1565b6134b7565b9050808382526020820190506020840283018581111561355b5761355a6131bd565b5b835b8181101561358457806135708882613512565b84526020840193505060208101905061355d565b5050509392505050565b5f82601f8301126135a2576135a16131b5565b5b81356135b2848260208601613526565b91505092915050565b5f67ffffffffffffffff8211156135d5576135d4613459565b5b602082029050919050565b5f6135f26135ed846135bb565b6134b7565b9050806020840283018581111561360c5761360b6131bd565b5b835b8181101561363557806136218882613512565b84526020840193505060208101905061360e565b5050509392505050565b5f82601f830112613653576136526131b5565b5b60026136608482856135e0565b91505092915050565b5f67ffffffffffffffff82111561368357613682613459565b5b602082029050919050565b5f6136a061369b84613669565b6134b7565b905080604084028301858111156136ba576136b96131bd565b5b835b818110156136e357806136cf888261363f565b8452602084019350506040810190506136bc565b5050509392505050565b5f82601f830112613701576137006131b5565b5b600261370e84828561368e565b91505092915050565b5f5f5f5f5f5f610160878903121561373257613731613153565b5b5f61373f89828a0161329c565b965050602087013567ffffffffffffffff8111156137605761375f613157565b5b61376c89828a0161358e565b955050604061377d89828a0161363f565b945050608061378e89828a016136ed565b9350506101006137a089828a0161363f565b9250506101406137b289828a016131a1565b9150509295509295509295565b5f81519050919050565b5f82825260208201905092915050565b5f819050602082019050919050565b5f81519050919050565b5f82825260208201905092915050565b8281835e5f83830152505050565b5f61381a826137e8565b61382481856137f2565b9350613834818560208601613802565b61383d81613449565b840191505092915050565b6138518161330e565b82525050565b5f604083015f8301518482035f8601526138718282613810565b91505060208301516138866020860182613848565b508091505092915050565b5f61389c8383613857565b905092915050565b5f602082019050919050565b5f6138ba826137bf565b6138c481856137c9565b9350836020820285016138d6856137d9565b805f5b8581101561391157848403895281516138f28582613891565b94506138fd836138a4565b925060208a019950506001810190506138d9565b50829750879550505050505092915050565b5f6020820190508181035f83015261393b81846138b0565b905092915050565b5f82825260208201905092915050565b5f61395d826137e8565b6139678185613943565b9350613977818560208601613802565b61398081613449565b840191505092915050565b5f6020820190508181035f8301526139a38184613953565b905092915050565b5f6139b58261317a565b9050919050565b6139c5816139ab565b81146139cf575f5ffd5b50565b5f813590506139e0816139bc565b92915050565b5f602082840312156139fb576139fa613153565b5b5f613a08848285016139d2565b91505092915050565b5f5f60408385031215613a2757613a26613153565b5b5f613a3485828601613512565b9250506020613a4585828601613512565b9150509250929050565b5f81519050919050565b5f82825260208201905092915050565b5f819050602082019050919050565b5f819050919050565b5f613a9b613a96613a918461315b565b613a78565b61315b565b9050919050565b5f613aac82613a81565b9050919050565b5f613abd82613aa2565b9050919050565b613acd81613ab3565b82525050565b5f81519050919050565b5f82825260208201905092915050565b5f613af782613ad3565b613b018185613add565b9350613b11818560208601613802565b613b1a81613449565b840191505092915050565b5f606083015f8301518482035f860152613b3f8282613810565b9150506020830151613b546020860182613ac4565b5060408301518482036040860152613b6c8282613aed565b9150508091505092915050565b5f613b848383613b25565b905092915050565b5f602082019050919050565b5f613ba282613a4f565b613bac8185613a59565b935083602082028501613bbe85613a69565b805f5b85811015613bf95784840389528151613bda8582613b79565b9450613be583613b8c565b925060208a01995050600181019050613bc1565b50829750879550505050505092915050565b5f6020820190508181035f830152613c238184613b98565b905092915050565b613c34816132db565b82525050565b5f608083015f830151613c4f5f860182613c2b565b5060208301518482036020860152613c678282613810565b9150506040830151613c7c6040860182613848565b506060830151613c8f6060860182613848565b508091505092915050565b5f6020820190508181035f830152613cb28184613c3a565b905092915050565b5f5ffd5b5f60608284031215613cd357613cd2613cba565b5b81905092915050565b5f5f60408385031215613cf257613cf1613153565b5b5f613cff8582860161329c565b925050602083013567ffffffffffffffff811115613d2057613d1f613157565b5b613d2c85828601613cbe565b9150509250929050565b5f67ffffffffffffffff821115613d5057613d4f613459565b5b602082029050602081019050919050565b5f5ffd5b5f5ffd5b5f5ffd5b5f67ffffffffffffffff821115613d8757613d86613459565b5b613d9082613449565b9050602081019050919050565b828183375f83830152505050565b5f613dbd613db884613d6d565b6134b7565b905082815260208101848484011115613dd957613dd8613d69565b5b613de4848285613d9d565b509392505050565b5f82601f830112613e0057613dff6131b5565b5b8135613e10848260208601613dab565b91505092915050565b5f60608284031215613e2e57613e2d613d61565b5b613e3860606134b7565b90505f613e478482850161329c565b5f83015250602082013567ffffffffffffffff811115613e6a57613e69613d65565b5b613e7684828501613dec565b602083015250604082013567ffffffffffffffff811115613e9a57613e99613d65565b5b613ea684828501613dec565b60408301525092915050565b5f613ec4613ebf84613d36565b6134b7565b90508083825260208201905060208402830185811115613ee757613ee66131bd565b5b835b81811015613f2e57803567ffffffffffffffff811115613f0c57613f0b6131b5565b5b808601613f198982613e19565b85526020850194505050602081019050613ee9565b5050509392505050565b5f82601f830112613f4c57613f4b6131b5565b5b8135613f5c848260208601613eb2565b91505092915050565b5f5f60408385031215613f7b57613f7a613153565b5b5f83013567ffffffffffffffff811115613f9857613f97613157565b5b613fa485828601613f38565b925050602083013567ffffffffffffffff811115613fc557613fc4613157565b5b613fd185828601613dec565b9150509250929050565b5f5f5f5f5f6101408688031215613ff557613ff4613153565b5b5f6140028882890161329c565b955050602086013567ffffffffffffffff81111561402357614022613157565b5b61402f8882890161358e565b94505060406140408882890161363f565b9350506080614051888289016136ed565b9250506101006140638882890161363f565b9150509295509295909350565b5f606083015f8301518482035f86015261408a8282613810565b915050602083015161409f6020860182613ac4565b50604083015184820360408601526140b78282613aed565b9150508091505092915050565b5f6020820190508181035f8301526140dc8184614070565b905092915050565b5f5f604083850312156140fa576140f9613153565b5b5f6141078582860161329c565b9250506020614118858286016131a1565b9150509250929050565b5f67ffffffffffffffff82111561413c5761413b613459565b5b61414582613449565b9050602081019050919050565b5f61416461415f84614122565b6134b7565b9050828152602081018484840111156141805761417f613d69565b5b61418b848285613d9d565b509392505050565b5f82601f8301126141a7576141a66131b5565b5b81356141b7848260208601614152565b91505092915050565b5f5f5f606084860312156141d7576141d6613153565b5b5f6141e4868287016131a1565b93505060206141f58682870161329c565b925050604084013567ffffffffffffffff81111561421657614215613157565b5b61422286828701614193565b9150509250925092565b5f6020828403121561424157614240613153565b5b5f61424e848285016131a1565b91505092915050565b7f4c696e6b65642070726f6f6620766572696669636174696f6e206e65656473205f8201527f6d6f7265207468616e2031207265717565737400000000000000000000000000602082015250565b5f6142b1603383613943565b91506142bc82614257565b604082019050919050565b5f6020820190508181035f8301526142de816142a5565b9050919050565b7f4e487b71000000000000000000000000000000000000000000000000000000005f52603260045260245ffd5b7f43616e27742066696e64206c696e6b494420666f7220676976656e20726571755f8201527f6573742049647320616e64207573657220616464726573730000000000000000602082015250565b5f61436c603883613943565b915061437782614312565b604082019050919050565b5f6020820190508181035f83015261439981614360565b9050919050565b7f50726f6f667320617265206e6f74206c696e6b656400000000000000000000005f82015250565b5f6143d4601583613943565b91506143df826143a0565b602082019050919050565b6143f381613273565b82525050565b5f60a0820190508181035f830152614410816143c8565b905061441f60208301876143ea565b61442c6040830186613317565b61443960608301856143ea565b6144466080830184613317565b95945050505050565b7f7265717565737420696420646f65736e277420657869737400000000000000005f82015250565b5f614483601883613943565b915061448e8261444f565b602082019050919050565b5f6020820190508181035f8301526144b081614477565b9050919050565b7f7265717565737420696420616c726561647920657869737473000000000000005f82015250565b5f6144eb601983613943565b91506144f6826144b7565b602082019050919050565b5f6020820190508181035f830152614518816144df565b9050919050565b7f4e6f7420616e206f776e6572206f722072657175657374206f776e65720000005f82015250565b5f614553601d83613943565b915061455e8261451f565b602082019050919050565b5f6020820190508181035f83015261458081614547565b9050919050565b5f819050919050565b5f6145aa6145a56145a084614587565b613a78565b613273565b9050919050565b6145ba81614590565b82525050565b5f6020820190506145d35f8301846145b1565b92915050565b7f4e487b71000000000000000000000000000000000000000000000000000000005f52601160045260245ffd5b5f6146108261330e565b915061461b8361330e565b9250828203905081811115614633576146326145d9565b5b92915050565b7f4e487b71000000000000000000000000000000000000000000000000000000005f52602260045260245ffd5b5f600282049050600182168061467d57607f821691505b6020821081036146905761468f614639565b5b50919050565b5f5ffd5b5f5ffd5b5f5ffd5b5f5f833560016020038436030381126146be576146bd614696565b5b80840192508235915067ffffffffffffffff8211156146e0576146df61469a565b5b6020830192506001820236038313156146fc576146fb61469e565b5b509250929050565b5f5f833560016020038436030381126147205761471f614696565b5b80840192508235915067ffffffffffffffff8211156147425761474161469a565b5b60208301925060018202360383131561475e5761475d61469e565b5b509250929050565b5f6147718385613943565b935061477e838584613d9d565b61478783613449565b840190509392505050565b5f82825260208201905092915050565b5f6147ad8385614792565b93506147ba838584613d9d565b6147c383613449565b840190509392505050565b5f6060820190508181035f8301526147e7818789614766565b90506147f6602083018661333f565b81810360408301526148098184866147a2565b90509695505050505050565b5f81905092915050565b5f614829826137e8565b6148338185614815565b9350614843818560208601613802565b80840191505092915050565b5f61485a828461481f565b915081905092915050565b7f56616c696461746f72206973206e6f742077686974656c6973746564000000005f82015250565b5f614899601c83613943565b91506148a482614865565b602082019050919050565b5f6020820190508181035f8301526148c68161488d565b9050919050565b5f7fffffffff0000000000000000000000000000000000000000000000000000000082169050919050565b614901816148cd565b82525050565b5f60208201905061491a5f8301846148f8565b92915050565b614929816132db565b8114614933575f5ffd5b50565b5f8151905061494481614920565b92915050565b5f6020828403121561495f5761495e613153565b5b5f61496c84828501614936565b91505092915050565b7f56616c696461746f7220646f65736e277420737570706f72742072656c6576615f8201527f6e7420696e746572666163650000000000000000000000000000000000000000602082015250565b5f6149cf602c83613943565b91506149da82614975565b604082019050919050565b5f6020820190508181035f8301526149fc816149c3565b9050919050565b7f4c656e6774682073686f756c642062652067726561746572207468616e2030005f82015250565b5f614a37601f83613943565b9150614a4282614a03565b602082019050919050565b5f6020820190508181035f830152614a6481614a2b565b9050919050565b7f4c656e677468206c696d697420657863656564656400000000000000000000005f82015250565b5f614a9f601583613943565b9150614aaa82614a6b565b602082019050919050565b5f6020820190508181035f830152614acc81614a93565b9050919050565b7f537461727420696e646578206f7574206f6620626f756e6473000000000000005f82015250565b5f614b07601983613943565b9150614b1282614ad3565b602082019050919050565b5f6020820190508181035f830152614b3481614afb565b9050919050565b5f614b458261330e565b9150614b508361330e565b9250828201905080821115614b6857614b676145d9565b5b92915050565b5f614b7882613ad3565b614b828185614792565b9350614b92818560208601613802565b614b9b81613449565b840191505092915050565b5f6020820190508181035f830152614bbe8184614b6e565b905092915050565b5f614bd082613aa2565b9050919050565b614be081614bc6565b82525050565b5f6080820190508181035f830152614bfe8187614b6e565b90508181036020830152614c128186614b6e565b9050614c21604083018561333f565b614c2e6060830184614bd7565b95945050505050565b5f67ffffffffffffffff821115614c5157614c50613459565b5b602082029050602081019050919050565b5f614c74614c6f84614122565b6134b7565b905082815260208101848484011115614c9057614c8f613d69565b5b614c9b848285613802565b509392505050565b5f82601f830112614cb757614cb66131b5565b5b8151614cc7848260208601614c62565b91505092915050565b5f81519050614cde816134fc565b92915050565b5f60408284031215614cf957614cf8613d61565b5b614d0360406134b7565b90505f82015167ffffffffffffffff811115614d2257614d21613d65565b5b614d2e84828501614ca3565b5f830152506020614d4184828501614cd0565b60208301525092915050565b5f614d5f614d5a84614c37565b6134b7565b90508083825260208201905060208402830185811115614d8257614d816131bd565b5b835b81811015614dc957805167ffffffffffffffff811115614da757614da66131b5565b5b808601614db48982614ce4565b85526020850194505050602081019050614d84565b5050509392505050565b5f82601f830112614de757614de66131b5565b5b8151614df7848260208601614d4d565b91505092915050565b5f60208284031215614e1557614e14613153565b5b5f82015167ffffffffffffffff811115614e3257614e31613157565b5b614e3e84828501614dd3565b91505092915050565b8082525050565b614e578161317a565b82525050565b614e6681613273565b82525050565b5f81519050919050565b5f82825260208201905092915050565b5f819050602082019050919050565b5f82825260208201905092915050565b5f614eaf826137e8565b614eb98185614e95565b9350614ec9818560208601613802565b614ed281613449565b840191505092915050565b614ee68161330e565b82525050565b5f604083015f8301518482035f860152614f068282614ea5565b9150506020830151614f1b6020860182614edd565b508091505092915050565b5f614f318383614eec565b905092915050565b5f602082019050919050565b5f614f4f82614e6c565b614f598185614e76565b935083602082028501614f6b85614e86565b805f5b85811015614fa65784840389528151614f878582614f26565b9450614f9283614f39565b925060208a01995050600181019050614f6e565b50829750879550505050505092915050565b5f608082019050614fcb5f830187614e47565b614fd86020830186614e4e565b614fe56040830185614e5d565b8181036060830152614ff78184614f45565b905095945050505050565b7f4d65746164617461206e6f7420737570706f72746564207965740000000000005f82015250565b5f615036601a83613943565b915061504182615002565b602082019050919050565b5f6020820190508181035f8301526150638161502a565b9050919050565b7f526571756573742069732064697361626c6564000000000000000000000000005f82015250565b5f61509e601383613943565b91506150a98261506a565b602082019050919050565b5f6020820190508181035f8301526150cb81615092565b9050919050565b5f81519050919050565b5f82825260208201905092915050565b5f819050602082019050919050565b5f6151068383613848565b60208301905092915050565b5f602082019050919050565b5f615128826150d2565b61513281856150dc565b935061513d836150ec565b805f5b8381101561516d57815161515488826150fb565b975061515f83615112565b925050600181019050615140565b5085935050505092915050565b5f60029050919050565b5f81905092915050565b5f819050919050565b5f602082019050919050565b6151ac8161517a565b6151b68184615184565b92506151c18261518e565b805f5b838110156151f15781516151d887826150fb565b96506151e383615197565b9250506001810190506151c4565b505050505050565b5f60029050919050565b5f81905092915050565b5f819050919050565b5f81905092915050565b6152298161517a565b6152338184615216565b925061523e8261518e565b805f5b8381101561526e57815161525587826150fb565b965061526083615197565b925050600181019050615241565b505050505050565b5f6152818383615220565b60408301905092915050565b5f602082019050919050565b6152a2816151f9565b6152ac8184615203565b92506152b78261520d565b805f5b838110156152e75781516152ce8782615276565b96506152d98361528d565b9250506001810190506152ba565b505050505050565b5f819050815f5260205f209050919050565b5f815461530d81614666565b6153178186614792565b9450600182165f8114615331576001811461534757615379565b60ff198316865281151560200286019350615379565b615350856152ef565b5f5b8381101561537157815481890152600182019150602081019050615352565b808801955050505b50505092915050565b5f610160820190508181035f83015261539b818961511e565b90506153aa60208301886151a3565b6153b76060830187615299565b6153c460e08301866151a3565b8181036101208301526153d78185615301565b90506153e761014083018461333f565b979650505050505050565b5f67ffffffffffffffff82111561540c5761540b613459565b5b602082029050602081019050919050565b5f6040828403121561543257615431613d61565b5b61543c60406134b7565b90505f82015167ffffffffffffffff81111561545b5761545a613d65565b5b61546784828501614ca3565b5f83015250602061547a84828501614cd0565b60208301525092915050565b5f615498615493846153f2565b6134b7565b905080838252602082019050602084028301858111156154bb576154ba6131bd565b5b835b8181101561550257805167ffffffffffffffff8111156154e0576154df6131b5565b5b8086016154ed898261541d565b855260208501945050506020810190506154bd565b5050509392505050565b5f82601f8301126155205761551f6131b5565b5b8151615530848260208601615486565b91505092915050565b5f6020828403121561554e5761554d613153565b5b5f82015167ffffffffffffffff81111561556b5761556a613157565b5b6155778482850161550c565b91505092915050565b5f82905092915050565b5f819050815f5260205f209050919050565b5f6020601f8301049050919050565b5f82821b905092915050565b5f600883026155e67fffffffffffffffffffffffffffffffffffffffffffffffffffffffffffffffff826155ab565b6155f086836155ab565b95508019841693508086168417925050509392505050565b5f61562261561d6156188461330e565b613a78565b61330e565b9050919050565b5f819050919050565b61563b83615608565b61564f61564782615629565b8484546155b7565b825550505050565b5f5f905090565b615666615657565b615671818484615632565b505050565b5b81811015615694576156895f8261565e565b600181019050615677565b5050565b601f8211156156d9576156aa8161558a565b6156b38461559c565b810160208510156156c2578190505b6156d66156ce8561559c565b830182615676565b50505b505050565b5f82821c905092915050565b5f6156f95f19846008026156de565b1980831691505092915050565b5f61571183836156ea565b9150826002028217905092915050565b61572b8383615580565b67ffffffffffffffff81111561574457615743613459565b5b61574e8254614666565b615759828285615698565b5f601f831160018114615786575f8415615774578287013590505b61577e8582615706565b8655506157e5565b601f1984166157948661558a565b5f5b828110156157bb57848901358255600182019150602085019450602081019050615796565b868310156157d857848901356157d4601f8916826156ea565b8355505b6001600288020188555050505b50505050505050565b6157f9838383615721565b505050565b5f813561580a816139bc565b80915050919050565b5f815f1b9050919050565b5f73ffffffffffffffffffffffffffffffffffffffff61583d84615813565b9350801983169250808416831791505092915050565b5f61585d82613a81565b9050919050565b5f61586e82615853565b9050919050565b5f819050919050565b61588782615864565b61589a61589382615875565b835461581e565b8255505050565b5f82905092915050565b601f8211156158ec576158bd816152ef565b6158c68461559c565b810160208510156158d5578190505b6158e96158e18561559c565b830182615676565b50505b505050565b6158fb83836158a1565b67ffffffffffffffff81111561591457615913613459565b5b61591e8254614666565b6159298282856158ab565b5f601f831160018114615956575f8415615944578287013590505b61594e8582615706565b8655506159b5565b601f198416615964866152ef565b5f5b8281101561598b57848901358255600182019150602085019450602081019050615966565b868310156159a857848901356159a4601f8916826156ea565b8355505b6001600288020188555050505b50505050505050565b6159c98383836158f1565b505050565b5f81015f83016159de81856146a2565b6159e98183866157ee565b505050506001810160208301806159ff816157fe565b9050615a0b818461587e565b5050506002810160408301615a208185614704565b615a2b8183866159be565b505050505050565b615a3d82826159ce565b5050565b5f610160820190508181035f830152615a5a818961511e565b9050615a6960208301886151a3565b615a766060830187615299565b615a8360e08301866151a3565b818103610120830152615a968185614b6e565b9050615aa661014083018461333f565b979650505050505050565b5f82825260208201905092915050565b5f604083015f8301518482035f860152615adb8282614ea5565b9150506020830151615af06020860182614edd565b508091505092915050565b5f615b068383615ac1565b905092915050565b5f615b18826137bf565b615b228185615ab1565b935083602082028501615b34856137d9565b805f5b85811015615b6f5784840389528151615b508582615afb565b9450615b5b836138a4565b925060208a01995050600181019050615b37565b50829750879550505050505092915050565b5f82825260208201905092915050565b5f615b9c8383614edd565b60208301905092915050565b5f615bb2826150d2565b615bbc8185615b81565b9350615bc7836150ec565b805f5b83811015615bf7578151615bde8882615b91565b9750615be983615112565b925050600181019050615bca565b5085935050505092915050565b5f60a082019050615c175f830188614e47565b615c246020830187614e4e565b615c316040830186614e5d565b8181036060830152615c438185615b0e565b90508181036080830152615c578184615ba8565b9050969550505050505056fea2646970667358221220068be7e29bfc4de5f6557ef79dcf5c1dac858e5670f5a8203c183f6ee7e41c7364736f6c634300081b0033', \n     arguments: [\n     ]\n}).send({\n     from: web3.eth.accounts[0], \n     gas: '4700000'\n   }, function (e, contract){\n    console.log(e, contract);\n    if (typeof contract.address !== 'undefined') {\n         console.log('Contract mined! address: ' + contract.address + ' transactionHash: ' + contract.transactionHash);\n    }\n })",
	"functionHashes": {
		"1905e7b1": "REQUESTS_RETURN_LIMIT()",
		"ffa1ad74": "VERSION()",
		"79ba5097": "acceptOwnership()",
		"59f871a1": "addValidatorToWhitelist(address)",
		"82aff29f": "disableZKPRequest(uint64)",
		"30def4ac": "enableZKPRequest(uint64)",
		"8c1da2c9": "getProofStatus(address,uint64)",
		"d4858051": "getProofStorageField(address,uint64,string)",
		"6f2477ad": "getRequestOwner(uint64)",
		"31969e57": "getStateAddress()",
		"c76d0845": "getZKPRequest(uint64)",
		"5f9e60d7": "getZKPRequests(uint256,uint256)",
		"6508e1b4": "getZKPRequestsCount()",
		"485cc955": "initialize(address,address)",
		"49555fb1": "isProofVerified(address,uint64)",
		"9b36d036": "isWhitelistedValidator(address)",
		"130a73ac": "isZKPRequestEnabled(uint64)",
		"8da5cb5b": "owner()",
		"e30c3978": "pendingOwner()",
		"617879fe": "removeValidatorFromWhitelist(address)",
		"715018a6": "renounceOwnership()",
		"ab7bcfb7": "requestIdExists(uint64)",
		"c9c23ea5": "setRequestOwner(uint64,address)",
		"34c901af": "setState(address)",
		"9f5223e0": "setZKPRequest(uint64,(string,address,bytes))",
		"b68967e2": "submitZKPResponse(uint64,uint256[],uint256[2],uint256[2][2],uint256[2])",
		"ade09fcd": "submitZKPResponseV2((uint64,bytes,bytes)[],bytes)",
		"f2fde38b": "transferOwnership(address)",
		"0106a959": "verifyLinkedProofs(address,uint64[])",
		"5176983b": "verifyZKPResponse(uint64,uint256[],uint256[2],uint256[2][2],uint256[2],address)",
		"54fd4d50": "version()"
	},
	"gasEstimates": {
		"Creation": {
			"codeDepositCost": "4741000",
			"executionCost": "5567",
			"totalCost": "4746567"
		},
		"External": {
			"REQUESTS_RETURN_LIMIT()": "416",
			"VERSION()": "infinite",
			"acceptOwnership()": "infinite",
			"addValidatorToWhitelist(address)": "infinite",
			"disableZKPRequest(uint64)": "infinite",
			"enableZKPRequest(uint64)": "infinite",
			"getProofStatus(address,uint64)": "infinite",
			"getProofStorageField(address,uint64,string)": "infinite",
			"getRequestOwner(uint64)": "5409",
			"getStateAddress()": "2623",
			"getZKPRequest(uint64)": "infinite",
			"getZKPRequests(uint256,uint256)": "infinite",
			"getZKPRequestsCount()": "2569",
			"initialize(address,address)": "infinite",
			"isProofVerified(address,uint64)": "infinite",
			"isWhitelistedValidator(address)": "3018",
			"isZKPRequestEnabled(uint64)": "5328",
			"owner()": "2611",
			"pendingOwner()": "2632",
			"removeValidatorFromWhitelist(address)": "infinite",
			"renounceOwnership()": "infinite",
			"requestIdExists(uint64)": "3005",
			"setRequestOwner(uint64,address)": "infinite",
			"setState(address)": "infinite",
			"setZKPRequest(uint64,(string,address,bytes))": "infinite",
			"submitZKPResponse(uint64,uint256[],uint256[2],uint256[2][2],uint256[2])": "infinite",
			"submitZKPResponseV2((uint64,bytes,bytes)[],bytes)": "infinite",
			"transferOwnership(address)": "infinite",
			"verifyLinkedProofs(address,uint64[])": "infinite",
			"verifyZKPResponse(uint64,uint256[],uint256[2],uint256[2][2],uint256[2],address)": "infinite",
			"version()": "infinite"
		}
	},
	"devdoc": {
		"errors": {
			"InvalidInitialization()": [
				{
					"details": "The contract is already initialized."
				}
			],
			"LinkedProofError(string,uint64,uint256,uint64,uint256)": [
				{
					"details": "Linked proof custom error"
				}
			],
			"NotInitializing()": [
				{
					"details": "The contract is not initializing."
				}
			],
			"OwnableInvalidOwner(address)": [
				{
					"details": "The owner is not a valid owner account. (eg. `address(0)`)"
				}
			],
			"OwnableUnauthorizedAccount(address)": [
				{
					"details": "The caller account is not authorized to perform an operation."
				}
			]
		},
		"events": {
			"Initialized(uint64)": {
				"details": "Triggered when the contract has been initialized or reinitialized."
			},
			"ZKPRequestSet(uint64,address,string,address,bytes)": {
				"details": "Event emitted upon adding a ZKP request"
			},
			"ZKPResponseSubmitted(uint64,address)": {
				"details": "Event emitted upon submitting a ZKP request"
			}
		},
		"kind": "dev",
		"methods": {
			"acceptOwnership()": {
				"details": "The new owner accepts the ownership transfer."
			},
			"addValidatorToWhitelist(address)": {
				"details": "Add new validator to the whitelist",
				"params": {
					"validator": "Validator address"
				}
			},
			"disableZKPRequest(uint64)": {
				"details": "Disables ZKP Request",
				"params": {
					"requestId": "The ID of the ZKP request"
				}
			},
			"enableZKPRequest(uint64)": {
				"details": "Enables ZKP Request",
				"params": {
					"requestId": "The ID of the ZKP request"
				}
			},
			"getProofStatus(address,uint64)": {
				"details": "Checks the proof status for a given user and request ID",
				"params": {
					"requestId": "The ID of the ZKP request",
					"sender": "The sender's address"
				},
				"returns": {
					"_0": "The proof status structure"
				}
			},
			"getProofStorageField(address,uint64,string)": {
				"details": "Gets the proof storage item for a given user, request ID and key",
				"params": {
					"requestId": "The ID of the ZKP request",
					"user": "The user's address"
				},
				"returns": {
					"_0": "The proof"
				}
			},
			"getRequestOwner(uint64)": {
				"details": "Get a ZKP Request Owner address",
				"params": {
					"requestId": "The ID of a ZKP Request"
				},
				"returns": {
					"_0": "The ZKP Request Owner address"
				}
			},
			"getStateAddress()": {
				"details": "Gets the address of the state contract linked to the verifier",
				"returns": {
					"_0": "address of the state contract"
				}
			},
			"getZKPRequest(uint64)": {
				"details": "Gets a specific ZKP request by ID",
				"params": {
					"requestId": "The ID of the ZKP request"
				},
				"returns": {
					"zkpRequest": "The ZKP request data"
				}
			},
			"getZKPRequests(uint256,uint256)": {
				"details": "Gets multiple ZKP requests within a range",
				"params": {
					"length": "The length of the range",
					"startIndex": "The starting index of the range"
				},
				"returns": {
					"_0": "An array of ZKP requests within the specified range"
				}
			},
			"getZKPRequestsCount()": {
				"details": "Gets the count of ZKP requests",
				"returns": {
					"_0": "The count of ZKP requests"
				}
			},
			"initialize(address,address)": {
				"details": "Initializes the contract"
			},
			"isProofVerified(address,uint64)": {
				"details": "Checks if proof submitted for a given sender and request ID",
				"params": {
					"requestId": "The ID of the ZKP request",
					"sender": "The sender's address"
				},
				"returns": {
					"_0": "true if proof submitted"
				}
			},
			"isWhitelistedValidator(address)": {
				"details": "Checks if validator is whitelisted",
				"params": {
					"validator": "The validator address"
				},
				"returns": {
					"_0": "True if validator is whitelisted, otherwise returns false"
				}
			},
			"isZKPRequestEnabled(uint64)": {
				"details": "Checks if ZKP Request is enabled",
				"params": {
					"requestId": "The ID of the ZKP request"
				},
				"returns": {
					"_0": "True if ZKP Request enabled, otherwise returns false"
				}
			},
			"owner()": {
				"details": "Returns the address of the current owner."
			},
			"pendingOwner()": {
				"details": "Returns the address of the pending owner."
			},
			"removeValidatorFromWhitelist(address)": {
				"details": "Remove validator from the whitelist",
				"params": {
					"validator": "Validator address"
				}
			},
			"renounceOwnership()": {
				"details": "Leaves the contract without owner. It will not be possible to call `onlyOwner` functions. Can only be called by the current owner. NOTE: Renouncing ownership will leave the contract without an owner, thereby disabling any functionality that is only available to the owner."
			},
			"requestIdExists(uint64)": {
				"details": "Checks if a ZKP request ID exists",
				"params": {
					"requestId": "The ID of the ZKP request"
				},
				"returns": {
					"_0": "Whether the request ID exists"
				}
			},
			"setRequestOwner(uint64,address)": {
				"details": "Sets ZKP Request Owner address",
				"params": {
					"requestId": "The ID of the ZKP request",
					"requestOwner": "ZKP Request Owner address"
				}
			},
			"setState(address)": {
				"details": "Sets the state contract address"
			},
			"setZKPRequest(uint64,(string,address,bytes))": {
				"details": "Sets a ZKP request",
				"params": {
					"request": "The ZKP request data",
					"requestId": "The ID of the ZKP request"
				}
			},
			"submitZKPResponse(uint64,uint256[],uint256[2],uint256[2][2],uint256[2])": {
				"details": "Submits a ZKP response and updates proof status",
				"params": {
					"a": "The first component of the proof",
					"b": "The second component of the proof",
					"c": "The third component of the proof",
					"inputs": "The input data for the proof",
					"requestId": "The ID of the ZKP request"
				}
			},
			"submitZKPResponseV2((uint64,bytes,bytes)[],bytes)": {
				"details": "Submits an array of ZKP responses and updates proofs status",
				"params": {
					"crossChainProof": "The list of cross chain proofs from universal resolver (oracle). This includes identities and global states.",
					"responses": "The list of responses including ZKP request ID, ZK proof and metadata"
				}
			},
			"transferOwnership(address)": {
				"details": "Starts the ownership transfer of the contract to a new account. Replaces the pending transfer if there is one. Can only be called by the current owner. Setting `newOwner` to the zero address is allowed; this can be used to cancel an initiated ownership transfer."
			},
			"verifyLinkedProofs(address,uint64[])": {
				"details": "Gets the list of request IDs and verifies the proofs are linked",
				"params": {
					"requestIds": "the list of request IDs Throws if the proofs are not linked",
					"sender": "the user's address"
				}
			},
			"verifyZKPResponse(uint64,uint256[],uint256[2],uint256[2][2],uint256[2],address)": {
				"details": "Verifies a ZKP response without updating any proof status",
				"params": {
					"a": "The first component of the proof",
					"b": "The second component of the proof",
					"c": "The third component of the proof",
					"inputs": "The public inputs for the proof",
					"requestId": "The ID of the ZKP request",
					"sender": "The sender on behalf of which the proof is done"
				}
			},
			"version()": {
				"details": "Version of contract getter"
			}
		},
		"stateVariables": {
			"VERSION": {
				"details": "Version of contract"
			}
		},
		"title": "Universal Verifier Contract",
		"version": 1
	},
	"userdoc": {
		"kind": "user",
		"methods": {},
		"notice": "A contract to manage ZKP (Zero-Knowledge Proof) requests and proofs.",
		"version": 1
	},
	"Runtime Bytecode": {
		"immutableReferences": {},
		"linkReferences": {
			".deps/npm/@iden3/contracts/lib/VerifierLib.sol": {
				"VerifierLib": [
					{
						"length": 20,
						"start": 9625
					},
					{
						"length": 20,
						"start": 12406
					}
				]
			}
		},
		"object": "608060405234801561000f575f5ffd5b50600436106101e3575f3560e01c8063715018a61161010d578063ade09fcd116100a0578063d48580511161006f578063d485805114610575578063e30c3978146105a5578063f2fde38b146105c3578063ffa1ad74146105df576101e3565b8063ade09fcd146104f1578063b68967e21461050d578063c76d084514610529578063c9c23ea514610559576101e3565b80638da5cb5b116100dc5780638da5cb5b146104575780639b36d036146104755780639f5223e0146104a5578063ab7bcfb7146104c1576101e3565b8063715018a6146103f757806379ba50971461040157806382aff29f1461040b5780638c1da2c914610427576101e3565b806349555fb1116101855780635f9e60d7116101545780635f9e60d71461035d578063617879fe1461038d5780636508e1b4146103a95780636f2477ad146103c7576101e3565b806349555fb1146102c35780635176983b146102f357806354fd4d501461032357806359f871a114610341576101e3565b806330def4ac116101c157806330def4ac1461025157806331969e571461026d57806334c901af1461028b578063485cc955146102a7576101e3565b80630106a959146101e7578063130a73ac146102035780631905e7b114610233575b5f5ffd5b61020160048036038101906101fc9190613216565b6105fd565b005b61021d600480360381019061021891906132b0565b610817565b60405161022a91906132f5565b60405180910390f35b61023b6108fc565b6040516102489190613326565b60405180910390f35b61026b600480360381019061026691906132b0565b610902565b005b6102756109cf565b604051610282919061334e565b60405180910390f35b6102a560048036038101906102a091906133a2565b610a00565b005b6102c160048036038101906102bc91906133cd565b610a14565b005b6102dd60048036038101906102d8919061340b565b610b9f565b6040516102ea91906132f5565b60405180910390f35b61030d60048036038101906103089190613717565b610cc1565b60405161031a9190613923565b60405180910390f35b61032b610cdd565b604051610338919061398b565b60405180910390f35b61035b600480360381019061035691906139e6565b610d1a565b005b61037760048036038101906103729190613a11565b610d2e565b6040516103849190613c0b565b60405180910390f35b6103a760048036038101906103a291906139e6565b610fec565b005b6103b1611000565b6040516103be9190613326565b60405180910390f35b6103e160048036038101906103dc91906132b0565b611015565b6040516103ee919061334e565b60405180910390f35b6103ff61110c565b005b61040961111f565b005b610425600480360381019061042091906132b0565b6111ad565b005b610441600480360381019061043c919061340b565b61127a565b60405161044e9190613c9a565b60405180910390f35b61045f61145c565b60405161046c919061334e565b60405180910390f35b61048f600480360381019061048a91906139e6565b611491565b60405161049c91906132f5565b60405180910390f35b6104bf60048036038101906104ba9190613cdc565b6114eb565b005b6104db60048036038101906104d691906132b0565b61158e565b6040516104e891906132f5565b60405180910390f35b61050b60048036038101906105069190613f65565b611616565b005b61052760048036038101906105229190613fdb565b6116b2565b005b610543600480360381019061053e91906132b0565b61171b565b60405161055091906140c4565b60405180910390f35b610573600480360381019061056e91906140e4565b611979565b005b61058f600480360381019061058a91906141c0565b611a48565b60405161059c9190613326565b60405180910390f35b6105ad611b7c565b6040516105ba919061334e565b60405180910390f35b6105dd60048036038101906105d8919061422c565b611bb1565b005b6105e7611c6a565b6040516105f4919061398b565b60405180910390f35b60018282905011610643576040517f08c379a000000000000000000000000000000000000000000000000000000000815260040161063a906142c7565b60405180910390fd5b5f6106ab8484845f81811061065b5761065a6142e5565b5b905060200201602081019061067091906132b0565b6040518060400160405280600681526020017f6c696e6b49440000000000000000000000000000000000000000000000000000815250611a48565b90505f81036106ef576040517f08c379a00000000000000000000000000000000000000000000000000000000081526004016106e690614382565b60405180910390fd5b5f600190505b83839050811015610810575f61076886868685818110610718576107176142e5565b5b905060200201602081019061072d91906132b0565b6040518060400160405280600681526020017f6c696e6b49440000000000000000000000000000000000000000000000000000815250611a48565b90508083146108025784845f818110610784576107836142e5565b5b905060200201602081019061079991906132b0565b838686858181106107ad576107ac6142e5565b5b90506020020160208101906107c291906132b0565b836040517f0cb82c030000000000000000000000000000000000000000000000000000000081526004016107f994939291906143f9565b60405180910390fd5b5080806001019150506106f5565b5050505050565b5f816001801561086e5761082a8261158e565b610869576040517f08c379a000000000000000000000000000000000000000000000000000000000815260040161086090614499565b60405180910390fd5b6108b8565b6108778261158e565b156108b7576040517f08c379a00000000000000000000000000000000000000000000000000000000081526004016108ae90614501565b60405180910390fd5b5b6108c0611ca3565b5f015f8567ffffffffffffffff1667ffffffffffffffff1681526020019081526020015f205f9054906101000a900460ff161592505050919050565b6103e881565b805f61090c611cca565b905061091782611015565b73ffffffffffffffffffffffffffffffffffffffff168173ffffffffffffffffffffffffffffffffffffffff161480610982575061095361145c565b73ffffffffffffffffffffffffffffffffffffffff168173ffffffffffffffffffffffffffffffffffffffff16145b6109c1576040517f08c379a00000000000000000000000000000000000000000000000000000000081526004016109b890614569565b60405180910390fd5b6109ca83611cd1565b505050565b5f6109d8611dba565b6003015f9054906101000a900473ffffffffffffffffffffffffffffffffffffffff16905090565b610a08611de1565b610a1181611e68565b50565b5f610a1d611eb4565b90505f815f0160089054906101000a900460ff161590505f825f015f9054906101000a900467ffffffffffffffff1690505f5f8267ffffffffffffffff16148015610a655750825b90505f60018367ffffffffffffffff16148015610a9857505f3073ffffffffffffffffffffffffffffffffffffffff163b145b905081158015610aa6575080155b15610add576040517ff92ee8a900000000000000000000000000000000000000000000000000000000815260040160405180910390fd5b6001855f015f6101000a81548167ffffffffffffffff021916908367ffffffffffffffff1602179055508315610b2a576001855f0160086101000a81548160ff0219169083151502179055505b610b3386611edb565b610b3c87611eef565b8315610b96575f855f0160086101000a81548160ff0219169083151502179055507fc7f505b2f371ae2175ee4913f4499e1f2633a7b5936321eed1cdaeb6115181d26001604051610b8d91906145c0565b60405180910390a15b50505050505050565b5f8160018015610bf657610bb28261158e565b610bf1576040517f08c379a0000000000000000000000000000000000000000000000000000000008152600401610be890614499565b60405180910390fd5b610c40565b610bff8261158e565b15610c3f576040517f08c379a0000000000000000000000000000000000000000000000000000000008152600401610c3690614501565b60405180910390fd5b5b610c48611dba565b5f015f8673ffffffffffffffffffffffffffffffffffffffff1673ffffffffffffffffffffffffffffffffffffffff1681526020019081526020015f205f8567ffffffffffffffff1667ffffffffffffffff1681526020019081526020015f205f015f9054906101000a900460ff169250505092915050565b6060610cd1878787878787611f03565b90509695505050505050565b60606040518060400160405280600581526020017f312e312e31000000000000000000000000000000000000000000000000000000815250905090565b610d22611de1565b610d2b81611f78565b50565b60605f610d39611dba565b90505f5f610d52836002018054905087876103e86120af565b915091505f8282610d639190614606565b67ffffffffffffffff811115610d7c57610d7b613459565b5b604051908082528060200260200182016040528015610db557816020015b610da26130ed565b815260200190600190039081610d9a5790505b5090505f8390505b82811015610fde57846001015f866002018381548110610de057610ddf6142e5565b5b905f5260205f2090600491828204019190066008029054906101000a900467ffffffffffffffff1667ffffffffffffffff1667ffffffffffffffff1681526020019081526020015f206040518060600160405290815f82018054610e4390614666565b80601f0160208091040260200160405190810160405280929190818152602001828054610e6f90614666565b8015610eba5780601f10610e9157610100808354040283529160200191610eba565b820191905f5260205f20905b815481529060010190602001808311610e9d57829003601f168201915b50505050508152602001600182015f9054906101000a900473ffffffffffffffffffffffffffffffffffffffff1673ffffffffffffffffffffffffffffffffffffffff1673ffffffffffffffffffffffffffffffffffffffff168152602001600282018054610f2890614666565b80601f0160208091040260200160405190810160405280929190818152602001828054610f5490614666565b8015610f9f5780601f10610f7657610100808354040283529160200191610f9f565b820191905f5260205f20905b815481529060010190602001808311610f8257829003601f168201915b505050505081525050828583610fb59190614606565b81518110610fc657610fc56142e5565b5b60200260200101819052508080600101915050610dbd565b508094505050505092915050565b610ff4611de1565b610ffd816121a3565b50565b5f611009611dba565b60020180549050905090565b5f816001801561106c576110288261158e565b611067576040517f08c379a000000000000000000000000000000000000000000000000000000000815260040161105e90614499565b60405180910390fd5b6110b6565b6110758261158e565b156110b5576040517f08c379a00000000000000000000000000000000000000000000000000000000081526004016110ac90614501565b60405180910390fd5b5b6110be612202565b5f015f8567ffffffffffffffff1667ffffffffffffffff1681526020019081526020015f205f9054906101000a900473ffffffffffffffffffffffffffffffffffffffff1692505050919050565b611114611de1565b61111d5f612229565b565b5f611128611cca565b90508073ffffffffffffffffffffffffffffffffffffffff16611149611b7c565b73ffffffffffffffffffffffffffffffffffffffff16146111a157806040517f118cdaa7000000000000000000000000000000000000000000000000000000008152600401611198919061334e565b60405180910390fd5b6111aa81612229565b50565b805f6111b7611cca565b90506111c282611015565b73ffffffffffffffffffffffffffffffffffffffff168173ffffffffffffffffffffffffffffffffffffffff16148061122d57506111fe61145c565b73ffffffffffffffffffffffffffffffffffffffff168173ffffffffffffffffffffffffffffffffffffffff16145b61126c576040517f08c379a000000000000000000000000000000000000000000000000000000000815260040161126390614569565b60405180910390fd5b61127583612266565b505050565b611282613123565b81600180156112d8576112948261158e565b6112d3576040517f08c379a00000000000000000000000000000000000000000000000000000000081526004016112ca90614499565b60405180910390fd5b611322565b6112e18261158e565b15611321576040517f08c379a000000000000000000000000000000000000000000000000000000000815260040161131890614501565b60405180910390fd5b5b5f61132b611dba565b5f015f8773ffffffffffffffffffffffffffffffffffffffff1673ffffffffffffffffffffffffffffffffffffffff1681526020019081526020015f205f8667ffffffffffffffff1667ffffffffffffffff1681526020019081526020015f2090506040518060800160405280825f015f9054906101000a900460ff16151581526020018260020180546113be90614666565b80601f01602080910402602001604051908101604052809291908181526020018280546113ea90614666565b80156114355780601f1061140c57610100808354040283529160200191611435565b820191905f5260205f20905b81548152906001019060200180831161141857829003601f168201915b50505050508152602001826003015481526020018260040154815250935050505092915050565b5f5f611466612350565b9050805f015f9054906101000a900473ffffffffffffffffffffffffffffffffffffffff1691505090565b5f61149a612377565b5f015f8373ffffffffffffffffffffffffffffffffffffffff1673ffffffffffffffffffffffffffffffffffffffff1681526020019081526020015f205f9054906101000a900460ff169050919050565b6114f5828261239e565b6114fd611cca565b73ffffffffffffffffffffffffffffffffffffffff168267ffffffffffffffff167f26db2c5d21d517fa8c11af3ae555af7f4a560b9f70a5a32e73e6cd94d0cae3e883805f019061154e91906146a2565b85602001602081019061156191906139e6565b8680604001906115719190614704565b6040516115829594939291906147ce565b60405180910390a35050565b5f5f73ffffffffffffffffffffffffffffffffffffffff166115ae611dba565b6001015f8467ffffffffffffffff1667ffffffffffffffff1681526020019081526020015f206001015f9054906101000a900473ffffffffffffffffffffffffffffffffffffffff1673ffffffffffffffffffffffffffffffffffffffff1614159050919050565b6116208282612408565b5f5f90505b82518110156116ad57611636611cca565b73ffffffffffffffffffffffffffffffffffffffff1683828151811061165f5761165e6142e5565b5b60200260200101515f015167ffffffffffffffff167f6979bc9c3e552c05dd9859285f1ed7a172e52ef39e1dce9c720e5bf8d82c9f4c60405160405180910390a38080600101915050611625565b505050565b6116bf8585858585612663565b6116c7611cca565b73ffffffffffffffffffffffffffffffffffffffff168567ffffffffffffffff167f6979bc9c3e552c05dd9859285f1ed7a172e52ef39e1dce9c720e5bf8d82c9f4c60405160405180910390a35050505050565b6117236130ed565b8160018015611779576117358261158e565b611774576040517f08c379a000000000000000000000000000000000000000000000000000000000815260040161176b90614499565b60405180910390fd5b6117c3565b6117828261158e565b156117c2576040517f08c379a00000000000000000000000000000000000000000000000000000000081526004016117b990614501565b60405180910390fd5b5b6117cb611dba565b6001015f8567ffffffffffffffff1667ffffffffffffffff1681526020019081526020015f206040518060600160405290815f8201805461180b90614666565b80601f016020809104026020016040519081016040528092919081815260200182805461183790614666565b80156118825780601f1061185957610100808354040283529160200191611882565b820191905f5260205f20905b81548152906001019060200180831161186557829003601f168201915b50505050508152602001600182015f9054906101000a900473ffffffffffffffffffffffffffffffffffffffff1673ffffffffffffffffffffffffffffffffffffffff1673ffffffffffffffffffffffffffffffffffffffff1681526020016002820180546118f090614666565b80601f016020809104026020016040519081016040528092919081815260200182805461191c90614666565b80156119675780601f1061193e57610100808354040283529160200191611967565b820191905f5260205f20905b81548152906001019060200180831161194a57829003601f168201915b50505050508152505092505050919050565b815f611983611cca565b905061198e82611015565b73ffffffffffffffffffffffffffffffffffffffff168173ffffffffffffffffffffffffffffffffffffffff1614806119f957506119ca61145c565b73ffffffffffffffffffffffffffffffffffffffff168173ffffffffffffffffffffffffffffffffffffffff16145b611a38576040517f08c379a0000000000000000000000000000000000000000000000000000000008152600401611a2f90614569565b60405180910390fd5b611a4284846126d0565b50505050565b5f8260018015611a9f57611a5b8261158e565b611a9a576040517f08c379a0000000000000000000000000000000000000000000000000000000008152600401611a9190614499565b60405180910390fd5b611ae9565b611aa88261158e565b15611ae8576040517f08c379a0000000000000000000000000000000000000000000000000000000008152600401611adf90614501565b60405180910390fd5b5b611af1611dba565b5f015f8773ffffffffffffffffffffffffffffffffffffffff1673ffffffffffffffffffffffffffffffffffffffff1681526020019081526020015f205f8667ffffffffffffffff1667ffffffffffffffff1681526020019081526020015f2060010184604051611b62919061484f565b908152602001604051809103902054925050509392505050565b5f5f611b866127e6565b9050805f015f9054906101000a900473ffffffffffffffffffffffffffffffffffffffff1691505090565b611bb9611de1565b5f611bc26127e6565b905081815f015f6101000a81548173ffffffffffffffffffffffffffffffffffffffff021916908373ffffffffffffffffffffffffffffffffffffffff1602179055508173ffffffffffffffffffffffffffffffffffffffff16611c2461145c565b73ffffffffffffffffffffffffffffffffffffffff167f38d16b8cac22d99fc7c124b9cd0de2d3fa1faef420bfe791d8c362d765e2270060405160405180910390a35050565b6040518060400160405280600581526020017f312e312e3100000000000000000000000000000000000000000000000000000081525081565b5f7f70325635d67d74932012fa921ccb2f335d3b1d69e3a487f50d001cc65f531600905090565b5f33905090565b8060018015611d2757611ce38261158e565b611d22576040517f08c379a0000000000000000000000000000000000000000000000000000000008152600401611d1990614499565b60405180910390fd5b611d71565b611d308261158e565b15611d70576040517f08c379a0000000000000000000000000000000000000000000000000000000008152600401611d6790614501565b60405180910390fd5b5b5f611d7a611ca3565b5f015f8567ffffffffffffffff1667ffffffffffffffff1681526020019081526020015f205f6101000a81548160ff021916908315150217905550505050565b5f7f512d18c55869273fec77e70d8a8586e3fb133e90f1db24c6bcf4ff3506ef6a00905090565b611de9611cca565b73ffffffffffffffffffffffffffffffffffffffff16611e0761145c565b73ffffffffffffffffffffffffffffffffffffffff1614611e6657611e2a611cca565b6040517f118cdaa7000000000000000000000000000000000000000000000000000000008152600401611e5d919061334e565b60405180910390fd5b565b80611e71611dba565b6003015f6101000a81548173ffffffffffffffffffffffffffffffffffffffff021916908373ffffffffffffffffffffffffffffffffffffffff16021790555050565b5f7ff0c57e16840df040f15088dc2f81fe391c3923bec73e23a9662efc9c229c6a00905090565b611ee361280d565b611eec8161284d565b50565b611ef761280d565b611f00816128d1565b50565b60605f611f0f8861171b565b602001519050611f1e81611491565b611f5d576040517f08c379a0000000000000000000000000000000000000000000000000000000008152600401611f54906148af565b60405180910390fd5b611f6b8888888888886128e5565b9150509695505050505050565b8073ffffffffffffffffffffffffffffffffffffffff166301ffc9a77f39db6a48000000000000000000000000000000000000000000000000000000006040518263ffffffff1660e01b8152600401611fd19190614907565b602060405180830381865afa158015611fec573d5f5f3e3d5ffd5b505050506040513d601f19601f82011682018060405250810190612010919061494a565b61204f576040517f08c379a0000000000000000000000000000000000000000000000000000000008152600401612046906149e5565b60405180910390fd5b6001612059612377565b5f015f8373ffffffffffffffffffffffffffffffffffffffff1673ffffffffffffffffffffffffffffffffffffffff1681526020019081526020015f205f6101000a81548160ff02191690831515021790555050565b5f5f5f84116120f3576040517f08c379a00000000000000000000000000000000000000000000000000000000081526004016120ea90614a4d565b60405180910390fd5b82841115612136576040517f08c379a000000000000000000000000000000000000000000000000000000000815260040161212d90614ab5565b60405180910390fd5b858510612178576040517f08c379a000000000000000000000000000000000000000000000000000000000815260040161216f90614b1d565b60405180910390fd5b5f84866121859190614b3b565b905086811115612193578690505b8581925092505094509492505050565b5f6121ac612377565b5f015f8373ffffffffffffffffffffffffffffffffffffffff1673ffffffffffffffffffffffffffffffffffffffff1681526020019081526020015f205f6101000a81548160ff02191690831515021790555050565b5f7f6209bdc3799f5201408f7a7d4d471bb2a0100353e618451674b93f730b006a00905090565b5f6122326127e6565b9050805f015f6101000a81549073ffffffffffffffffffffffffffffffffffffffff02191690556122628261294b565b5050565b80600180156122bc576122788261158e565b6122b7576040517f08c379a00000000000000000000000000000000000000000000000000000000081526004016122ae90614499565b60405180910390fd5b612306565b6122c58261158e565b15612305576040517f08c379a00000000000000000000000000000000000000000000000000000000081526004016122fc90614501565b60405180910390fd5b5b6001612310611ca3565b5f015f8567ffffffffffffffff1667ffffffffffffffff1681526020019081526020015f205f6101000a81548160ff021916908315150217905550505050565b5f7f9016d09d72d40fdae2fd8ceac6b6234c7706214fd39c1cd1e609a0528c199300905090565b5f7f76aa24e3538905838cc74060b2aa4c054b1e474aacf44741879e1850715e9300905090565b8060200160208101906123b191906139e6565b6123ba81611491565b6123f9576040517f08c379a00000000000000000000000000000000000000000000000000000000081526004016123f0906148af565b60405180910390fd5b6124038383612a1c565b505050565b5f612411611dba565b9050806003015f9054906101000a900473ffffffffffffffffffffffffffffffffffffffff1673ffffffffffffffffffffffffffffffffffffffff1663e28d24b0836040518263ffffffff1660e01b815260040161246f9190614ba6565b5f604051808303815f87803b158015612486575f5ffd5b505af1158015612498573d5f5f3e3d5ffd5b505050505f5f90505b835181101561265d575f8482815181106124be576124bd6142e5565b5b602002602001015190505f6124d1611cca565b90505f6124e0835f015161171b565b90505f816020015173ffffffffffffffffffffffffffffffffffffffff1663d6614a6b85602001518460400151868a6003015f9054906101000a900473ffffffffffffffffffffffffffffffffffffffff166040518563ffffffff1660e01b81526004016125519493929190614be6565b5f604051808303815f875af115801561256c573d5f5f3e3d5ffd5b505050506040513d5f823e3d601f19601f820116820180604052508101906125949190614e00565b90508573__$dbf1feab564eff82403e197ef29e496d33$__63b2394c60909185875f0151856040518563ffffffff1660e01b81526004016125d89493929190614fb8565b5f6040518083038186803b1580156125ee575f5ffd5b505af4158015612600573d5f5f3e3d5ffd5b505050505f846040015151111561264c576040517f08c379a00000000000000000000000000000000000000000000000000000000081526004016126439061504c565b60405180910390fd5b5050505080806001019150506124a1565b50505050565b5f61266d8661171b565b60200151905061267c81611491565b6126bb576040517f08c379a00000000000000000000000000000000000000000000000000000000081526004016126b2906148af565b60405180910390fd5b6126c88686868686612a3b565b505050505050565b8160018015612726576126e28261158e565b612721576040517f08c379a000000000000000000000000000000000000000000000000000000000815260040161271890614499565b60405180910390fd5b612770565b61272f8261158e565b1561276f576040517f08c379a000000000000000000000000000000000000000000000000000000000815260040161276690614501565b60405180910390fd5b5b5f612779612202565b905083815f015f8767ffffffffffffffff1667ffffffffffffffff1681526020019081526020015f205f6101000a81548173ffffffffffffffffffffffffffffffffffffffff021916908373ffffffffffffffffffffffffffffffffffffffff1602179055505050505050565b5f7f237e158222e3e6968b72b9db0d8043aacf074ad9f650f0d1606b4d82ee432c00905090565b612815612a99565b61284b576040517fd7e6bcf800000000000000000000000000000000000000000000000000000000815260040160405180910390fd5b565b61285561280d565b5f73ffffffffffffffffffffffffffffffffffffffff168173ffffffffffffffffffffffffffffffffffffffff16036128c5575f6040517f1e4fbdf70000000000000000000000000000000000000000000000000000000081526004016128bc919061334e565b60405180910390fd5b6128ce81612229565b50565b6128d961280d565b6128e281611e68565b50565b6060866128f181610817565b612930576040517f08c379a0000000000000000000000000000000000000000000000000000000008152600401612927906150b4565b60405180910390fd5b61293e888888888888612ab7565b9150509695505050505050565b5f612954612350565b90505f815f015f9054906101000a900473ffffffffffffffffffffffffffffffffffffffff16905082825f015f6101000a81548173ffffffffffffffffffffffffffffffffffffffff021916908373ffffffffffffffffffffffffffffffffffffffff1602179055508273ffffffffffffffffffffffffffffffffffffffff168173ffffffffffffffffffffffffffffffffffffffff167f8be0079c531659141344cd1fd0a4f28419497f9722a3daafe3b4186f6b6457e060405160405180910390a3505050565b612a268282612c45565b612a3782612a32611cca565b6126d0565b5050565b84612a4581610817565b612a84576040517f08c379a0000000000000000000000000000000000000000000000000000000008152600401612a7b906150b4565b60405180910390fd5b612a918686868686612d83565b505050505050565b5f612aa2611eb4565b5f0160089054906101000a900460ff16905090565b60608660018015612b0f57612acb8261158e565b612b0a576040517f08c379a0000000000000000000000000000000000000000000000000000000008152600401612b0190614499565b60405180910390fd5b612b59565b612b188261158e565b15612b58576040517f08c379a0000000000000000000000000000000000000000000000000000000008152600401612b4f90614501565b60405180910390fd5b5b5f612b62611dba565b6001015f8b67ffffffffffffffff1667ffffffffffffffff1681526020019081526020015f209050806001015f9054906101000a900473ffffffffffffffffffffffffffffffffffffffff1673ffffffffffffffffffffffffffffffffffffffff1663f177a69e8a8a8a8a866002018b6040518763ffffffff1660e01b8152600401612bf396959493929190615382565b5f604051808303815f875af1158015612c0e573d5f5f3e3d5ffd5b505050506040513d5f823e3d601f19601f82011682018060405250810190612c369190615539565b93505050509695505050505050565b815f8015612c9a57612c568261158e565b612c95576040517f08c379a0000000000000000000000000000000000000000000000000000000008152600401612c8c90614499565b60405180910390fd5b612ce4565b612ca38261158e565b15612ce3576040517f08c379a0000000000000000000000000000000000000000000000000000000008152600401612cda90614501565b60405180910390fd5b5b5f612ced611dba565b905083816001015f8767ffffffffffffffff1667ffffffffffffffff1681526020019081526020015f208181612d239190615a33565b9050508060020185908060018154018082558091505060019003905f5260205f2090600491828204019190066008029091909190916101000a81548167ffffffffffffffff021916908367ffffffffffffffff1602179055505050505050565b8460018015612dd957612d958261158e565b612dd4576040517f08c379a0000000000000000000000000000000000000000000000000000000008152600401612dcb90614499565b60405180910390fd5b612e23565b612de28261158e565b15612e22576040517f08c379a0000000000000000000000000000000000000000000000000000000008152600401612e1990614501565b60405180910390fd5b5b5f612e2c611cca565b90505f612e37611dba565b90505f816001015f8b67ffffffffffffffff1667ffffffffffffffff1681526020019081526020015f206040518060600160405290815f82018054612e7b90614666565b80601f0160208091040260200160405190810160405280929190818152602001828054612ea790614666565b8015612ef25780601f10612ec957610100808354040283529160200191612ef2565b820191905f5260205f20905b815481529060010190602001808311612ed557829003601f168201915b50505050508152602001600182015f9054906101000a900473ffffffffffffffffffffffffffffffffffffffff1673ffffffffffffffffffffffffffffffffffffffff1673ffffffffffffffffffffffffffffffffffffffff168152602001600282018054612f6090614666565b80601f0160208091040260200160405190810160405280929190818152602001828054612f8c90614666565b8015612fd75780601f10612fae57610100808354040283529160200191612fd7565b820191905f5260205f20905b815481529060010190602001808311612fba57829003601f168201915b50505050508152505090505f816020015173ffffffffffffffffffffffffffffffffffffffff1663f177a69e8b8b8b8b87604001518a6040518763ffffffff1660e01b815260040161302e96959493929190615a41565b5f604051808303815f875af1158015613049573d5f5f3e3d5ffd5b505050506040513d5f823e3d601f19601f820116820180604052508101906130719190615539565b90508273__$dbf1feab564eff82403e197ef29e496d33$__63e48754ab9091868e858f6040518663ffffffff1660e01b81526004016130b4959493929190615c04565b5f6040518083038186803b1580156130ca575f5ffd5b505af41580156130dc573d5f5f3e3d5ffd5b505050505050505050505050505050565b6040518060600160405280606081526020015f73ffffffffffffffffffffffffffffffffffffffff168152602001606081525090565b60405180608001604052805f15158152602001606081526020015f81526020015f81525090565b5f604051905090565b5f5ffd5b5f5ffd5b5f73ffffffffffffffffffffffffffffffffffffffff82169050919050565b5f6131848261315b565b9050919050565b6131948161317a565b811461319e575f5ffd5b50565b5f813590506131af8161318b565b92915050565b5f5ffd5b5f5ffd5b5f5ffd5b5f5f83601f8401126131d6576131d56131b5565b5b8235905067ffffffffffffffff8111156131f3576131f26131b9565b5b60208301915083602082028301111561320f5761320e6131bd565b5b9250929050565b5f5f5f6040848603121561322d5761322c613153565b5b5f61323a868287016131a1565b935050602084013567ffffffffffffffff81111561325b5761325a613157565b5b613267868287016131c1565b92509250509250925092565b5f67ffffffffffffffff82169050919050565b61328f81613273565b8114613299575f5ffd5b50565b5f813590506132aa81613286565b92915050565b5f602082840312156132c5576132c4613153565b5b5f6132d28482850161329c565b91505092915050565b5f8115159050919050565b6132ef816132db565b82525050565b5f6020820190506133085f8301846132e6565b92915050565b5f819050919050565b6133208161330e565b82525050565b5f6020820190506133395f830184613317565b92915050565b6133488161317a565b82525050565b5f6020820190506133615f83018461333f565b92915050565b5f6133718261317a565b9050919050565b61338181613367565b811461338b575f5ffd5b50565b5f8135905061339c81613378565b92915050565b5f602082840312156133b7576133b6613153565b5b5f6133c48482850161338e565b91505092915050565b5f5f604083850312156133e3576133e2613153565b5b5f6133f08582860161338e565b9250506020613401858286016131a1565b9150509250929050565b5f5f6040838503121561342157613420613153565b5b5f61342e858286016131a1565b925050602061343f8582860161329c565b9150509250929050565b5f601f19601f8301169050919050565b7f4e487b71000000000000000000000000000000000000000000000000000000005f52604160045260245ffd5b61348f82613449565b810181811067ffffffffffffffff821117156134ae576134ad613459565b5b80604052505050565b5f6134c061314a565b90506134cc8282613486565b919050565b5f67ffffffffffffffff8211156134eb576134ea613459565b5b602082029050602081019050919050565b6135058161330e565b811461350f575f5ffd5b50565b5f81359050613520816134fc565b92915050565b5f613538613533846134d1565b6134b7565b9050808382526020820190506020840283018581111561355b5761355a6131bd565b5b835b8181101561358457806135708882613512565b84526020840193505060208101905061355d565b5050509392505050565b5f82601f8301126135a2576135a16131b5565b5b81356135b2848260208601613526565b91505092915050565b5f67ffffffffffffffff8211156135d5576135d4613459565b5b602082029050919050565b5f6135f26135ed846135bb565b6134b7565b9050806020840283018581111561360c5761360b6131bd565b5b835b8181101561363557806136218882613512565b84526020840193505060208101905061360e565b5050509392505050565b5f82601f830112613653576136526131b5565b5b60026136608482856135e0565b91505092915050565b5f67ffffffffffffffff82111561368357613682613459565b5b602082029050919050565b5f6136a061369b84613669565b6134b7565b905080604084028301858111156136ba576136b96131bd565b5b835b818110156136e357806136cf888261363f565b8452602084019350506040810190506136bc565b5050509392505050565b5f82601f830112613701576137006131b5565b5b600261370e84828561368e565b91505092915050565b5f5f5f5f5f5f610160878903121561373257613731613153565b5b5f61373f89828a0161329c565b965050602087013567ffffffffffffffff8111156137605761375f613157565b5b61376c89828a0161358e565b955050604061377d89828a0161363f565b945050608061378e89828a016136ed565b9350506101006137a089828a0161363f565b9250506101406137b289828a016131a1565b9150509295509295509295565b5f81519050919050565b5f82825260208201905092915050565b5f819050602082019050919050565b5f81519050919050565b5f82825260208201905092915050565b8281835e5f83830152505050565b5f61381a826137e8565b61382481856137f2565b9350613834818560208601613802565b61383d81613449565b840191505092915050565b6138518161330e565b82525050565b5f604083015f8301518482035f8601526138718282613810565b91505060208301516138866020860182613848565b508091505092915050565b5f61389c8383613857565b905092915050565b5f602082019050919050565b5f6138ba826137bf565b6138c481856137c9565b9350836020820285016138d6856137d9565b805f5b8581101561391157848403895281516138f28582613891565b94506138fd836138a4565b925060208a019950506001810190506138d9565b50829750879550505050505092915050565b5f6020820190508181035f83015261393b81846138b0565b905092915050565b5f82825260208201905092915050565b5f61395d826137e8565b6139678185613943565b9350613977818560208601613802565b61398081613449565b840191505092915050565b5f6020820190508181035f8301526139a38184613953565b905092915050565b5f6139b58261317a565b9050919050565b6139c5816139ab565b81146139cf575f5ffd5b50565b5f813590506139e0816139bc565b92915050565b5f602082840312156139fb576139fa613153565b5b5f613a08848285016139d2565b91505092915050565b5f5f60408385031215613a2757613a26613153565b5b5f613a3485828601613512565b9250506020613a4585828601613512565b9150509250929050565b5f81519050919050565b5f82825260208201905092915050565b5f819050602082019050919050565b5f819050919050565b5f613a9b613a96613a918461315b565b613a78565b61315b565b9050919050565b5f613aac82613a81565b9050919050565b5f613abd82613aa2565b9050919050565b613acd81613ab3565b82525050565b5f81519050919050565b5f82825260208201905092915050565b5f613af782613ad3565b613b018185613add565b9350613b11818560208601613802565b613b1a81613449565b840191505092915050565b5f606083015f8301518482035f860152613b3f8282613810565b9150506020830151613b546020860182613ac4565b5060408301518482036040860152613b6c8282613aed565b9150508091505092915050565b5f613b848383613b25565b905092915050565b5f602082019050919050565b5f613ba282613a4f565b613bac8185613a59565b935083602082028501613bbe85613a69565b805f5b85811015613bf95784840389528151613bda8582613b79565b9450613be583613b8c565b925060208a01995050600181019050613bc1565b50829750879550505050505092915050565b5f6020820190508181035f830152613c238184613b98565b905092915050565b613c34816132db565b82525050565b5f608083015f830151613c4f5f860182613c2b565b5060208301518482036020860152613c678282613810565b9150506040830151613c7c6040860182613848565b506060830151613c8f6060860182613848565b508091505092915050565b5f6020820190508181035f830152613cb28184613c3a565b905092915050565b5f5ffd5b5f60608284031215613cd357613cd2613cba565b5b81905092915050565b5f5f60408385031215613cf257613cf1613153565b5b5f613cff8582860161329c565b925050602083013567ffffffffffffffff811115613d2057613d1f613157565b5b613d2c85828601613cbe565b9150509250929050565b5f67ffffffffffffffff821115613d5057613d4f613459565b5b602082029050602081019050919050565b5f5ffd5b5f5ffd5b5f5ffd5b5f67ffffffffffffffff821115613d8757613d86613459565b5b613d9082613449565b9050602081019050919050565b828183375f83830152505050565b5f613dbd613db884613d6d565b6134b7565b905082815260208101848484011115613dd957613dd8613d69565b5b613de4848285613d9d565b509392505050565b5f82601f830112613e0057613dff6131b5565b5b8135613e10848260208601613dab565b91505092915050565b5f60608284031215613e2e57613e2d613d61565b5b613e3860606134b7565b90505f613e478482850161329c565b5f83015250602082013567ffffffffffffffff811115613e6a57613e69613d65565b5b613e7684828501613dec565b602083015250604082013567ffffffffffffffff811115613e9a57613e99613d65565b5b613ea684828501613dec565b60408301525092915050565b5f613ec4613ebf84613d36565b6134b7565b90508083825260208201905060208402830185811115613ee757613ee66131bd565b5b835b81811015613f2e57803567ffffffffffffffff811115613f0c57613f0b6131b5565b5b808601613f198982613e19565b85526020850194505050602081019050613ee9565b5050509392505050565b5f82601f830112613f4c57613f4b6131b5565b5b8135613f5c848260208601613eb2565b91505092915050565b5f5f60408385031215613f7b57613f7a613153565b5b5f83013567ffffffffffffffff811115613f9857613f97613157565b5b613fa485828601613f38565b925050602083013567ffffffffffffffff811115613fc557613fc4613157565b5b613fd185828601613dec565b9150509250929050565b5f5f5f5f5f6101408688031215613ff557613ff4613153565b5b5f6140028882890161329c565b955050602086013567ffffffffffffffff81111561402357614022613157565b5b61402f8882890161358e565b94505060406140408882890161363f565b9350506080614051888289016136ed565b9250506101006140638882890161363f565b9150509295509295909350565b5f606083015f8301518482035f86015261408a8282613810565b915050602083015161409f6020860182613ac4565b50604083015184820360408601526140b78282613aed565b9150508091505092915050565b5f6020820190508181035f8301526140dc8184614070565b905092915050565b5f5f604083850312156140fa576140f9613153565b5b5f6141078582860161329c565b9250506020614118858286016131a1565b9150509250929050565b5f67ffffffffffffffff82111561413c5761413b613459565b5b61414582613449565b9050602081019050919050565b5f61416461415f84614122565b6134b7565b9050828152602081018484840111156141805761417f613d69565b5b61418b848285613d9d565b509392505050565b5f82601f8301126141a7576141a66131b5565b5b81356141b7848260208601614152565b91505092915050565b5f5f5f606084860312156141d7576141d6613153565b5b5f6141e4868287016131a1565b93505060206141f58682870161329c565b925050604084013567ffffffffffffffff81111561421657614215613157565b5b61422286828701614193565b9150509250925092565b5f6020828403121561424157614240613153565b5b5f61424e848285016131a1565b91505092915050565b7f4c696e6b65642070726f6f6620766572696669636174696f6e206e65656473205f8201527f6d6f7265207468616e2031207265717565737400000000000000000000000000602082015250565b5f6142b1603383613943565b91506142bc82614257565b604082019050919050565b5f6020820190508181035f8301526142de816142a5565b9050919050565b7f4e487b71000000000000000000000000000000000000000000000000000000005f52603260045260245ffd5b7f43616e27742066696e64206c696e6b494420666f7220676976656e20726571755f8201527f6573742049647320616e64207573657220616464726573730000000000000000602082015250565b5f61436c603883613943565b915061437782614312565b604082019050919050565b5f6020820190508181035f83015261439981614360565b9050919050565b7f50726f6f667320617265206e6f74206c696e6b656400000000000000000000005f82015250565b5f6143d4601583613943565b91506143df826143a0565b602082019050919050565b6143f381613273565b82525050565b5f60a0820190508181035f830152614410816143c8565b905061441f60208301876143ea565b61442c6040830186613317565b61443960608301856143ea565b6144466080830184613317565b95945050505050565b7f7265717565737420696420646f65736e277420657869737400000000000000005f82015250565b5f614483601883613943565b915061448e8261444f565b602082019050919050565b5f6020820190508181035f8301526144b081614477565b9050919050565b7f7265717565737420696420616c726561647920657869737473000000000000005f82015250565b5f6144eb601983613943565b91506144f6826144b7565b602082019050919050565b5f6020820190508181035f830152614518816144df565b9050919050565b7f4e6f7420616e206f776e6572206f722072657175657374206f776e65720000005f82015250565b5f614553601d83613943565b915061455e8261451f565b602082019050919050565b5f6020820190508181035f83015261458081614547565b9050919050565b5f819050919050565b5f6145aa6145a56145a084614587565b613a78565b613273565b9050919050565b6145ba81614590565b82525050565b5f6020820190506145d35f8301846145b1565b92915050565b7f4e487b71000000000000000000000000000000000000000000000000000000005f52601160045260245ffd5b5f6146108261330e565b915061461b8361330e565b9250828203905081811115614633576146326145d9565b5b92915050565b7f4e487b71000000000000000000000000000000000000000000000000000000005f52602260045260245ffd5b5f600282049050600182168061467d57607f821691505b6020821081036146905761468f614639565b5b50919050565b5f5ffd5b5f5ffd5b5f5ffd5b5f5f833560016020038436030381126146be576146bd614696565b5b80840192508235915067ffffffffffffffff8211156146e0576146df61469a565b5b6020830192506001820236038313156146fc576146fb61469e565b5b509250929050565b5f5f833560016020038436030381126147205761471f614696565b5b80840192508235915067ffffffffffffffff8211156147425761474161469a565b5b60208301925060018202360383131561475e5761475d61469e565b5b509250929050565b5f6147718385613943565b935061477e838584613d9d565b61478783613449565b840190509392505050565b5f82825260208201905092915050565b5f6147ad8385614792565b93506147ba838584613d9d565b6147c383613449565b840190509392505050565b5f6060820190508181035f8301526147e7818789614766565b90506147f6602083018661333f565b81810360408301526148098184866147a2565b90509695505050505050565b5f81905092915050565b5f614829826137e8565b6148338185614815565b9350614843818560208601613802565b80840191505092915050565b5f61485a828461481f565b915081905092915050565b7f56616c696461746f72206973206e6f742077686974656c6973746564000000005f82015250565b5f614899601c83613943565b91506148a482614865565b602082019050919050565b5f6020820190508181035f8301526148c68161488d565b9050919050565b5f7fffffffff0000000000000000000000000000000000000000000000000000000082169050919050565b614901816148cd565b82525050565b5f60208201905061491a5f8301846148f8565b92915050565b614929816132db565b8114614933575f5ffd5b50565b5f8151905061494481614920565b92915050565b5f6020828403121561495f5761495e613153565b5b5f61496c84828501614936565b91505092915050565b7f56616c696461746f7220646f65736e277420737570706f72742072656c6576615f8201527f6e7420696e746572666163650000000000000000000000000000000000000000602082015250565b5f6149cf602c83613943565b91506149da82614975565b604082019050919050565b5f6020820190508181035f8301526149fc816149c3565b9050919050565b7f4c656e6774682073686f756c642062652067726561746572207468616e2030005f82015250565b5f614a37601f83613943565b9150614a4282614a03565b602082019050919050565b5f6020820190508181035f830152614a6481614a2b565b9050919050565b7f4c656e677468206c696d697420657863656564656400000000000000000000005f82015250565b5f614a9f601583613943565b9150614aaa82614a6b565b602082019050919050565b5f6020820190508181035f830152614acc81614a93565b9050919050565b7f537461727420696e646578206f7574206f6620626f756e6473000000000000005f82015250565b5f614b07601983613943565b9150614b1282614ad3565b602082019050919050565b5f6020820190508181035f830152614b3481614afb565b9050919050565b5f614b458261330e565b9150614b508361330e565b9250828201905080821115614b6857614b676145d9565b5b92915050565b5f614b7882613ad3565b614b828185614792565b9350614b92818560208601613802565b614b9b81613449565b840191505092915050565b5f6020820190508181035f830152614bbe8184614b6e565b905092915050565b5f614bd082613aa2565b9050919050565b614be081614bc6565b82525050565b5f6080820190508181035f830152614bfe8187614b6e565b90508181036020830152614c128186614b6e565b9050614c21604083018561333f565b614c2e6060830184614bd7565b95945050505050565b5f67ffffffffffffffff821115614c5157614c50613459565b5b602082029050602081019050919050565b5f614c74614c6f84614122565b6134b7565b905082815260208101848484011115614c9057614c8f613d69565b5b614c9b848285613802565b509392505050565b5f82601f830112614cb757614cb66131b5565b5b8151614cc7848260208601614c62565b91505092915050565b5f81519050614cde816134fc565b92915050565b5f60408284031215614cf957614cf8613d61565b5b614d0360406134b7565b90505f82015167ffffffffffffffff811115614d2257614d21613d65565b5b614d2e84828501614ca3565b5f830152506020614d4184828501614cd0565b60208301525092915050565b5f614d5f614d5a84614c37565b6134b7565b90508083825260208201905060208402830185811115614d8257614d816131bd565b5b835b81811015614dc957805167ffffffffffffffff811115614da757614da66131b5565b5b808601614db48982614ce4565b85526020850194505050602081019050614d84565b5050509392505050565b5f82601f830112614de757614de66131b5565b5b8151614df7848260208601614d4d565b91505092915050565b5f60208284031215614e1557614e14613153565b5b5f82015167ffffffffffffffff811115614e3257614e31613157565b5b614e3e84828501614dd3565b91505092915050565b8082525050565b614e578161317a565b82525050565b614e6681613273565b82525050565b5f81519050919050565b5f82825260208201905092915050565b5f819050602082019050919050565b5f82825260208201905092915050565b5f614eaf826137e8565b614eb98185614e95565b9350614ec9818560208601613802565b614ed281613449565b840191505092915050565b614ee68161330e565b82525050565b5f604083015f8301518482035f860152614f068282614ea5565b9150506020830151614f1b6020860182614edd565b508091505092915050565b5f614f318383614eec565b905092915050565b5f602082019050919050565b5f614f4f82614e6c565b614f598185614e76565b935083602082028501614f6b85614e86565b805f5b85811015614fa65784840389528151614f878582614f26565b9450614f9283614f39565b925060208a01995050600181019050614f6e565b50829750879550505050505092915050565b5f608082019050614fcb5f830187614e47565b614fd86020830186614e4e565b614fe56040830185614e5d565b8181036060830152614ff78184614f45565b905095945050505050565b7f4d65746164617461206e6f7420737570706f72746564207965740000000000005f82015250565b5f615036601a83613943565b915061504182615002565b602082019050919050565b5f6020820190508181035f8301526150638161502a565b9050919050565b7f526571756573742069732064697361626c6564000000000000000000000000005f82015250565b5f61509e601383613943565b91506150a98261506a565b602082019050919050565b5f6020820190508181035f8301526150cb81615092565b9050919050565b5f81519050919050565b5f82825260208201905092915050565b5f819050602082019050919050565b5f6151068383613848565b60208301905092915050565b5f602082019050919050565b5f615128826150d2565b61513281856150dc565b935061513d836150ec565b805f5b8381101561516d57815161515488826150fb565b975061515f83615112565b925050600181019050615140565b5085935050505092915050565b5f60029050919050565b5f81905092915050565b5f819050919050565b5f602082019050919050565b6151ac8161517a565b6151b68184615184565b92506151c18261518e565b805f5b838110156151f15781516151d887826150fb565b96506151e383615197565b9250506001810190506151c4565b505050505050565b5f60029050919050565b5f81905092915050565b5f819050919050565b5f81905092915050565b6152298161517a565b6152338184615216565b925061523e8261518e565b805f5b8381101561526e57815161525587826150fb565b965061526083615197565b925050600181019050615241565b505050505050565b5f6152818383615220565b60408301905092915050565b5f602082019050919050565b6152a2816151f9565b6152ac8184615203565b92506152b78261520d565b805f5b838110156152e75781516152ce8782615276565b96506152d98361528d565b9250506001810190506152ba565b505050505050565b5f819050815f5260205f209050919050565b5f815461530d81614666565b6153178186614792565b9450600182165f8114615331576001811461534757615379565b60ff198316865281151560200286019350615379565b615350856152ef565b5f5b8381101561537157815481890152600182019150602081019050615352565b808801955050505b50505092915050565b5f610160820190508181035f83015261539b818961511e565b90506153aa60208301886151a3565b6153b76060830187615299565b6153c460e08301866151a3565b8181036101208301526153d78185615301565b90506153e761014083018461333f565b979650505050505050565b5f67ffffffffffffffff82111561540c5761540b613459565b5b602082029050602081019050919050565b5f6040828403121561543257615431613d61565b5b61543c60406134b7565b90505f82015167ffffffffffffffff81111561545b5761545a613d65565b5b61546784828501614ca3565b5f83015250602061547a84828501614cd0565b60208301525092915050565b5f615498615493846153f2565b6134b7565b905080838252602082019050602084028301858111156154bb576154ba6131bd565b5b835b8181101561550257805167ffffffffffffffff8111156154e0576154df6131b5565b5b8086016154ed898261541d565b855260208501945050506020810190506154bd565b5050509392505050565b5f82601f8301126155205761551f6131b5565b5b8151615530848260208601615486565b91505092915050565b5f6020828403121561554e5761554d613153565b5b5f82015167ffffffffffffffff81111561556b5761556a613157565b5b6155778482850161550c565b91505092915050565b5f82905092915050565b5f819050815f5260205f209050919050565b5f6020601f8301049050919050565b5f82821b905092915050565b5f600883026155e67fffffffffffffffffffffffffffffffffffffffffffffffffffffffffffffffff826155ab565b6155f086836155ab565b95508019841693508086168417925050509392505050565b5f61562261561d6156188461330e565b613a78565b61330e565b9050919050565b5f819050919050565b61563b83615608565b61564f61564782615629565b8484546155b7565b825550505050565b5f5f905090565b615666615657565b615671818484615632565b505050565b5b81811015615694576156895f8261565e565b600181019050615677565b5050565b601f8211156156d9576156aa8161558a565b6156b38461559c565b810160208510156156c2578190505b6156d66156ce8561559c565b830182615676565b50505b505050565b5f82821c905092915050565b5f6156f95f19846008026156de565b1980831691505092915050565b5f61571183836156ea565b9150826002028217905092915050565b61572b8383615580565b67ffffffffffffffff81111561574457615743613459565b5b61574e8254614666565b615759828285615698565b5f601f831160018114615786575f8415615774578287013590505b61577e8582615706565b8655506157e5565b601f1984166157948661558a565b5f5b828110156157bb57848901358255600182019150602085019450602081019050615796565b868310156157d857848901356157d4601f8916826156ea565b8355505b6001600288020188555050505b50505050505050565b6157f9838383615721565b505050565b5f813561580a816139bc565b80915050919050565b5f815f1b9050919050565b5f73ffffffffffffffffffffffffffffffffffffffff61583d84615813565b9350801983169250808416831791505092915050565b5f61585d82613a81565b9050919050565b5f61586e82615853565b9050919050565b5f819050919050565b61588782615864565b61589a61589382615875565b835461581e565b8255505050565b5f82905092915050565b601f8211156158ec576158bd816152ef565b6158c68461559c565b810160208510156158d5578190505b6158e96158e18561559c565b830182615676565b50505b505050565b6158fb83836158a1565b67ffffffffffffffff81111561591457615913613459565b5b61591e8254614666565b6159298282856158ab565b5f601f831160018114615956575f8415615944578287013590505b61594e8582615706565b8655506159b5565b601f198416615964866152ef565b5f5b8281101561598b57848901358255600182019150602085019450602081019050615966565b868310156159a857848901356159a4601f8916826156ea565b8355505b6001600288020188555050505b50505050505050565b6159c98383836158f1565b505050565b5f81015f83016159de81856146a2565b6159e98183866157ee565b505050506001810160208301806159ff816157fe565b9050615a0b818461587e565b5050506002810160408301615a208185614704565b615a2b8183866159be565b505050505050565b615a3d82826159ce565b5050565b5f610160820190508181035f830152615a5a818961511e565b9050615a6960208301886151a3565b615a766060830187615299565b615a8360e08301866151a3565b818103610120830152615a968185614b6e565b9050615aa661014083018461333f565b979650505050505050565b5f82825260208201905092915050565b5f604083015f8301518482035f860152615adb8282614ea5565b9150506020830151615af06020860182614edd565b508091505092915050565b5f615b068383615ac1565b905092915050565b5f615b18826137bf565b615b228185615ab1565b935083602082028501615b34856137d9565b805f5b85811015615b6f5784840389528151615b508582615afb565b9450615b5b836138a4565b925060208a01995050600181019050615b37565b50829750879550505050505092915050565b5f82825260208201905092915050565b5f615b9c8383614edd565b60208301905092915050565b5f615bb2826150d2565b615bbc8185615b81565b9350615bc7836150ec565b805f5b83811015615bf7578151615bde8882615b91565b9750615be983615112565b925050600181019050615bca565b5085935050505092915050565b5f60a082019050615c175f830188614e47565b615c246020830187614e4e565b615c316040830186614e5d565b8181036060830152615c438185615b0e565b90508181036080830152615c578184615ba8565b9050969550505050505056fea2646970667358221220068be7e29bfc4de5f6557ef79dcf5c1dac858e5670f5a8203c183f6ee7e41c7364736f6c634300081b0033",
		"opcodes": "PUSH1 0x80 PUSH1 0x40 MSTORE CALLVALUE DUP1 ISZERO PUSH2 0xF JUMPI PUSH0 PUSH0 REVERT JUMPDEST POP PUSH1 0x4 CALLDATASIZE LT PUSH2 0x1E3 JUMPI PUSH0 CALLDATALOAD PUSH1 0xE0 SHR DUP1 PUSH4 0x715018A6 GT PUSH2 0x10D JUMPI DUP1 PUSH4 0xADE09FCD GT PUSH2 0xA0 JUMPI DUP1 PUSH4 0xD4858051 GT PUSH2 0x6F JUMPI DUP1 PUSH4 0xD4858051 EQ PUSH2 0x575 JUMPI DUP1 PUSH4 0xE30C3978 EQ PUSH2 0x5A5 JUMPI DUP1 PUSH4 0xF2FDE38B EQ PUSH2 0x5C3 JUMPI DUP1 PUSH4 0xFFA1AD74 EQ PUSH2 0x5DF JUMPI PUSH2 0x1E3 JUMP JUMPDEST DUP1 PUSH4 0xADE09FCD EQ PUSH2 0x4F1 JUMPI DUP1 PUSH4 0xB68967E2 EQ PUSH2 0x50D JUMPI DUP1 PUSH4 0xC76D0845 EQ PUSH2 0x529 JUMPI DUP1 PUSH4 0xC9C23EA5 EQ PUSH2 0x559 JUMPI PUSH2 0x1E3 JUMP JUMPDEST DUP1 PUSH4 0x8DA5CB5B GT PUSH2 0xDC JUMPI DUP1 PUSH4 0x8DA5CB5B EQ PUSH2 0x457 JUMPI DUP1 PUSH4 0x9B36D036 EQ PUSH2 0x475 JUMPI DUP1 PUSH4 0x9F5223E0 EQ PUSH2 0x4A5 JUMPI DUP1 PUSH4 0xAB7BCFB7 EQ PUSH2 0x4C1 JUMPI PUSH2 0x1E3 JUMP JUMPDEST DUP1 PUSH4 0x715018A6 EQ PUSH2 0x3F7 JUMPI DUP1 PUSH4 0x79BA5097 EQ PUSH2 0x401 JUMPI DUP1 PUSH4 0x82AFF29F EQ PUSH2 0x40B JUMPI DUP1 PUSH4 0x8C1DA2C9 EQ PUSH2 0x427 JUMPI PUSH2 0x1E3 JUMP JUMPDEST DUP1 PUSH4 0x49555FB1 GT PUSH2 0x185 JUMPI DUP1 PUSH4 0x5F9E60D7 GT PUSH2 0x154 JUMPI DUP1 PUSH4 0x5F9E60D7 EQ PUSH2 0x35D JUMPI DUP1 PUSH4 0x617879FE EQ PUSH2 0x38D JUMPI DUP1 PUSH4 0x6508E1B4 EQ PUSH2 0x3A9 JUMPI DUP1 PUSH4 0x6F2477AD EQ PUSH2 0x3C7 JUMPI PUSH2 0x1E3 JUMP JUMPDEST DUP1 PUSH4 0x49555FB1 EQ PUSH2 0x2C3 JUMPI DUP1 PUSH4 0x5176983B EQ PUSH2 0x2F3 JUMPI DUP1 PUSH4 0x54FD4D50 EQ PUSH2 0x323 JUMPI DUP1 PUSH4 0x59F871A1 EQ PUSH2 0x341 JUMPI PUSH2 0x1E3 JUMP JUMPDEST DUP1 PUSH4 0x30DEF4AC GT PUSH2 0x1C1 JUMPI DUP1 PUSH4 0x30DEF4AC EQ PUSH2 0x251 JUMPI DUP1 PUSH4 0x31969E57 EQ PUSH2 0x26D JUMPI DUP1 PUSH4 0x34C901AF EQ PUSH2 0x28B JUMPI DUP1 PUSH4 0x485CC955 EQ PUSH2 0x2A7 JUMPI PUSH2 0x1E3 JUMP JUMPDEST DUP1 PUSH4 0x106A959 EQ PUSH2 0x1E7 JUMPI DUP1 PUSH4 0x130A73AC EQ PUSH2 0x203 JUMPI DUP1 PUSH4 0x1905E7B1 EQ PUSH2 0x233 JUMPI JUMPDEST PUSH0 PUSH0 REVERT JUMPDEST PUSH2 0x201 PUSH1 0x4 DUP1 CALLDATASIZE SUB DUP2 ADD SWAP1 PUSH2 0x1FC SWAP2 SWAP1 PUSH2 0x3216 JUMP JUMPDEST PUSH2 0x5FD JUMP JUMPDEST STOP JUMPDEST PUSH2 0x21D PUSH1 0x4 DUP1 CALLDATASIZE SUB DUP2 ADD SWAP1 PUSH2 0x218 SWAP2 SWAP1 PUSH2 0x32B0 JUMP JUMPDEST PUSH2 0x817 JUMP JUMPDEST PUSH1 0x40 MLOAD PUSH2 0x22A SWAP2 SWAP1 PUSH2 0x32F5 JUMP JUMPDEST PUSH1 0x40 MLOAD DUP1 SWAP2 SUB SWAP1 RETURN JUMPDEST PUSH2 0x23B PUSH2 0x8FC JUMP JUMPDEST PUSH1 0x40 MLOAD PUSH2 0x248 SWAP2 SWAP1 PUSH2 0x3326 JUMP JUMPDEST PUSH1 0x40 MLOAD DUP1 SWAP2 SUB SWAP1 RETURN JUMPDEST PUSH2 0x26B PUSH1 0x4 DUP1 CALLDATASIZE SUB DUP2 ADD SWAP1 PUSH2 0x266 SWAP2 SWAP1 PUSH2 0x32B0 JUMP JUMPDEST PUSH2 0x902 JUMP JUMPDEST STOP JUMPDEST PUSH2 0x275 PUSH2 0x9CF JUMP JUMPDEST PUSH1 0x40 MLOAD PUSH2 0x282 SWAP2 SWAP1 PUSH2 0x334E JUMP JUMPDEST PUSH1 0x40 MLOAD DUP1 SWAP2 SUB SWAP1 RETURN JUMPDEST PUSH2 0x2A5 PUSH1 0x4 DUP1 CALLDATASIZE SUB DUP2 ADD SWAP1 PUSH2 0x2A0 SWAP2 SWAP1 PUSH2 0x33A2 JUMP JUMPDEST PUSH2 0xA00 JUMP JUMPDEST STOP JUMPDEST PUSH2 0x2C1 PUSH1 0x4 DUP1 CALLDATASIZE SUB DUP2 ADD SWAP1 PUSH2 0x2BC SWAP2 SWAP1 PUSH2 0x33CD JUMP JUMPDEST PUSH2 0xA14 JUMP JUMPDEST STOP JUMPDEST PUSH2 0x2DD PUSH1 0x4 DUP1 CALLDATASIZE SUB DUP2 ADD SWAP1 PUSH2 0x2D8 SWAP2 SWAP1 PUSH2 0x340B JUMP JUMPDEST PUSH2 0xB9F JUMP JUMPDEST PUSH1 0x40 MLOAD PUSH2 0x2EA SWAP2 SWAP1 PUSH2 0x32F5 JUMP JUMPDEST PUSH1 0x40 MLOAD DUP1 SWAP2 SUB SWAP1 RETURN JUMPDEST PUSH2 0x30D PUSH1 0x4 DUP1 CALLDATASIZE SUB DUP2 ADD SWAP1 PUSH2 0x308 SWAP2 SWAP1 PUSH2 0x3717 JUMP JUMPDEST PUSH2 0xCC1 JUMP JUMPDEST PUSH1 0x40 MLOAD PUSH2 0x31A SWAP2 SWAP1 PUSH2 0x3923 JUMP JUMPDEST PUSH1 0x40 MLOAD DUP1 SWAP2 SUB SWAP1 RETURN JUMPDEST PUSH2 0x32B PUSH2 0xCDD JUMP JUMPDEST PUSH1 0x40 MLOAD PUSH2 0x338 SWAP2 SWAP1 PUSH2 0x398B JUMP JUMPDEST PUSH1 0x40 MLOAD DUP1 SWAP2 SUB SWAP1 RETURN JUMPDEST PUSH2 0x35B PUSH1 0x4 DUP1 CALLDATASIZE SUB DUP2 ADD SWAP1 PUSH2 0x356 SWAP2 SWAP1 PUSH2 0x39E6 JUMP JUMPDEST PUSH2 0xD1A JUMP JUMPDEST STOP JUMPDEST PUSH2 0x377 PUSH1 0x4 DUP1 CALLDATASIZE SUB DUP2 ADD SWAP1 PUSH2 0x372 SWAP2 SWAP1 PUSH2 0x3A11 JUMP JUMPDEST PUSH2 0xD2E JUMP JUMPDEST PUSH1 0x40 MLOAD PUSH2 0x384 SWAP2 SWAP1 PUSH2 0x3C0B JUMP JUMPDEST PUSH1 0x40 MLOAD DUP1 SWAP2 SUB SWAP1 RETURN JUMPDEST PUSH2 0x3A7 PUSH1 0x4 DUP1 CALLDATASIZE SUB DUP2 ADD SWAP1 PUSH2 0x3A2 SWAP2 SWAP1 PUSH2 0x39E6 JUMP JUMPDEST PUSH2 0xFEC JUMP JUMPDEST STOP JUMPDEST PUSH2 0x3B1 PUSH2 0x1000 JUMP JUMPDEST PUSH1 0x40 MLOAD PUSH2 0x3BE SWAP2 SWAP1 PUSH2 0x3326 JUMP JUMPDEST PUSH1 0x40 MLOAD DUP1 SWAP2 SUB SWAP1 RETURN JUMPDEST PUSH2 0x3E1 PUSH1 0x4 DUP1 CALLDATASIZE SUB DUP2 ADD SWAP1 PUSH2 0x3DC SWAP2 SWAP1 PUSH2 0x32B0 JUMP JUMPDEST PUSH2 0x1015 JUMP JUMPDEST PUSH1 0x40 MLOAD PUSH2 0x3EE SWAP2 SWAP1 PUSH2 0x334E JUMP JUMPDEST PUSH1 0x40 MLOAD DUP1 SWAP2 SUB SWAP1 RETURN JUMPDEST PUSH2 0x3FF PUSH2 0x110C JUMP JUMPDEST STOP JUMPDEST PUSH2 0x409 PUSH2 0x111F JUMP JUMPDEST STOP JUMPDEST PUSH2 0x425 PUSH1 0x4 DUP1 CALLDATASIZE SUB DUP2 ADD SWAP1 PUSH2 0x420 SWAP2 SWAP1 PUSH2 0x32B0 JUMP JUMPDEST PUSH2 0x11AD JUMP JUMPDEST STOP JUMPDEST PUSH2 0x441 PUSH1 0x4 DUP1 CALLDATASIZE SUB DUP2 ADD SWAP1 PUSH2 0x43C SWAP2 SWAP1 PUSH2 0x340B JUMP JUMPDEST PUSH2 0x127A JUMP JUMPDEST PUSH1 0x40 MLOAD PUSH2 0x44E SWAP2 SWAP1 PUSH2 0x3C9A JUMP JUMPDEST PUSH1 0x40 MLOAD DUP1 SWAP2 SUB SWAP1 RETURN JUMPDEST PUSH2 0x45F PUSH2 0x145C JUMP JUMPDEST PUSH1 0x40 MLOAD PUSH2 0x46C SWAP2 SWAP1 PUSH2 0x334E JUMP JUMPDEST PUSH1 0x40 MLOAD DUP1 SWAP2 SUB SWAP1 RETURN JUMPDEST PUSH2 0x48F PUSH1 0x4 DUP1 CALLDATASIZE SUB DUP2 ADD SWAP1 PUSH2 0x48A SWAP2 SWAP1 PUSH2 0x39E6 JUMP JUMPDEST PUSH2 0x1491 JUMP JUMPDEST PUSH1 0x40 MLOAD PUSH2 0x49C SWAP2 SWAP1 PUSH2 0x32F5 JUMP JUMPDEST PUSH1 0x40 MLOAD DUP1 SWAP2 SUB SWAP1 RETURN JUMPDEST PUSH2 0x4BF PUSH1 0x4 DUP1 CALLDATASIZE SUB DUP2 ADD SWAP1 PUSH2 0x4BA SWAP2 SWAP1 PUSH2 0x3CDC JUMP JUMPDEST PUSH2 0x14EB JUMP JUMPDEST STOP JUMPDEST PUSH2 0x4DB PUSH1 0x4 DUP1 CALLDATASIZE SUB DUP2 ADD SWAP1 PUSH2 0x4D6 SWAP2 SWAP1 PUSH2 0x32B0 JUMP JUMPDEST PUSH2 0x158E JUMP JUMPDEST PUSH1 0x40 MLOAD PUSH2 0x4E8 SWAP2 SWAP1 PUSH2 0x32F5 JUMP JUMPDEST PUSH1 0x40 MLOAD DUP1 SWAP2 SUB SWAP1 RETURN JUMPDEST PUSH2 0x50B PUSH1 0x4 DUP1 CALLDATASIZE SUB DUP2 ADD SWAP1 PUSH2 0x506 SWAP2 SWAP1 PUSH2 0x3F65 JUMP JUMPDEST PUSH2 0x1616 JUMP JUMPDEST STOP JUMPDEST PUSH2 0x527 PUSH1 0x4 DUP1 CALLDATASIZE SUB DUP2 ADD SWAP1 PUSH2 0x522 SWAP2 SWAP1 PUSH2 0x3FDB JUMP JUMPDEST PUSH2 0x16B2 JUMP JUMPDEST STOP JUMPDEST PUSH2 0x543 PUSH1 0x4 DUP1 CALLDATASIZE SUB DUP2 ADD SWAP1 PUSH2 0x53E SWAP2 SWAP1 PUSH2 0x32B0 JUMP JUMPDEST PUSH2 0x171B JUMP JUMPDEST PUSH1 0x40 MLOAD PUSH2 0x550 SWAP2 SWAP1 PUSH2 0x40C4 JUMP JUMPDEST PUSH1 0x40 MLOAD DUP1 SWAP2 SUB SWAP1 RETURN JUMPDEST PUSH2 0x573 PUSH1 0x4 DUP1 CALLDATASIZE SUB DUP2 ADD SWAP1 PUSH2 0x56E SWAP2 SWAP1 PUSH2 0x40E4 JUMP JUMPDEST PUSH2 0x1979 JUMP JUMPDEST STOP JUMPDEST PUSH2 0x58F PUSH1 0x4 DUP1 CALLDATASIZE SUB DUP2 ADD SWAP1 PUSH2 0x58A SWAP2 SWAP1 PUSH2 0x41C0 JUMP JUMPDEST PUSH2 0x1A48 JUMP JUMPDEST PUSH1 0x40 MLOAD PUSH2 0x59C SWAP2 SWAP1 PUSH2 0x3326 JUMP JUMPDEST PUSH1 0x40 MLOAD DUP1 SWAP2 SUB SWAP1 RETURN JUMPDEST PUSH2 0x5AD PUSH2 0x1B7C JUMP JUMPDEST PUSH1 0x40 MLOAD PUSH2 0x5BA SWAP2 SWAP1 PUSH2 0x334E JUMP JUMPDEST PUSH1 0x40 MLOAD DUP1 SWAP2 SUB SWAP1 RETURN JUMPDEST PUSH2 0x5DD PUSH1 0x4 DUP1 CALLDATASIZE SUB DUP2 ADD SWAP1 PUSH2 0x5D8 SWAP2 SWAP1 PUSH2 0x422C JUMP JUMPDEST PUSH2 0x1BB1 JUMP JUMPDEST STOP JUMPDEST PUSH2 0x5E7 PUSH2 0x1C6A JUMP JUMPDEST PUSH1 0x40 MLOAD PUSH2 0x5F4 SWAP2 SWAP1 PUSH2 0x398B JUMP JUMPDEST PUSH1 0x40 MLOAD DUP1 SWAP2 SUB SWAP1 RETURN JUMPDEST PUSH1 0x1 DUP3 DUP3 SWAP1 POP GT PUSH2 0x643 JUMPI PUSH1 0x40 MLOAD PUSH32 0x8C379A000000000000000000000000000000000000000000000000000000000 DUP2 MSTORE PUSH1 0x4 ADD PUSH2 0x63A SWAP1 PUSH2 0x42C7 JUMP JUMPDEST PUSH1 0x40 MLOAD DUP1 SWAP2 SUB SWAP1 REVERT JUMPDEST PUSH0 PUSH2 0x6AB DUP5 DUP5 DUP5 PUSH0 DUP2 DUP2 LT PUSH2 0x65B JUMPI PUSH2 0x65A PUSH2 0x42E5 JUMP JUMPDEST JUMPDEST SWAP1 POP PUSH1 0x20 MUL ADD PUSH1 0x20 DUP2 ADD SWAP1 PUSH2 0x670 SWAP2 SWAP1 PUSH2 0x32B0 JUMP JUMPDEST PUSH1 0x40 MLOAD DUP1 PUSH1 0x40 ADD PUSH1 0x40 MSTORE DUP1 PUSH1 0x6 DUP2 MSTORE PUSH1 0x20 ADD PUSH32 0x6C696E6B49440000000000000000000000000000000000000000000000000000 DUP2 MSTORE POP PUSH2 0x1A48 JUMP JUMPDEST SWAP1 POP PUSH0 DUP2 SUB PUSH2 0x6EF JUMPI PUSH1 0x40 MLOAD PUSH32 0x8C379A000000000000000000000000000000000000000000000000000000000 DUP2 MSTORE PUSH1 0x4 ADD PUSH2 0x6E6 SWAP1 PUSH2 0x4382 JUMP JUMPDEST PUSH1 0x40 MLOAD DUP1 SWAP2 SUB SWAP1 REVERT JUMPDEST PUSH0 PUSH1 0x1 SWAP1 POP JUMPDEST DUP4 DUP4 SWAP1 POP DUP2 LT ISZERO PUSH2 0x810 JUMPI PUSH0 PUSH2 0x768 DUP7 DUP7 DUP7 DUP6 DUP2 DUP2 LT PUSH2 0x718 JUMPI PUSH2 0x717 PUSH2 0x42E5 JUMP JUMPDEST JUMPDEST SWAP1 POP PUSH1 0x20 MUL ADD PUSH1 0x20 DUP2 ADD SWAP1 PUSH2 0x72D SWAP2 SWAP1 PUSH2 0x32B0 JUMP JUMPDEST PUSH1 0x40 MLOAD DUP1 PUSH1 0x40 ADD PUSH1 0x40 MSTORE DUP1 PUSH1 0x6 DUP2 MSTORE PUSH1 0x20 ADD PUSH32 0x6C696E6B49440000000000000000000000000000000000000000000000000000 DUP2 MSTORE POP PUSH2 0x1A48 JUMP JUMPDEST SWAP1 POP DUP1 DUP4 EQ PUSH2 0x802 JUMPI DUP5 DUP5 PUSH0 DUP2 DUP2 LT PUSH2 0x784 JUMPI PUSH2 0x783 PUSH2 0x42E5 JUMP JUMPDEST JUMPDEST SWAP1 POP PUSH1 0x20 MUL ADD PUSH1 0x20 DUP2 ADD SWAP1 PUSH2 0x799 SWAP2 SWAP1 PUSH2 0x32B0 JUMP JUMPDEST DUP4 DUP7 DUP7 DUP6 DUP2 DUP2 LT PUSH2 0x7AD JUMPI PUSH2 0x7AC PUSH2 0x42E5 JUMP JUMPDEST JUMPDEST SWAP1 POP PUSH1 0x20 MUL ADD PUSH1 0x20 DUP2 ADD SWAP1 PUSH2 0x7C2 SWAP2 SWAP1 PUSH2 0x32B0 JUMP JUMPDEST DUP4 PUSH1 0x40 MLOAD PUSH32 0xCB82C0300000000000000000000000000000000000000000000000000000000 DUP2 MSTORE PUSH1 0x4 ADD PUSH2 0x7F9 SWAP5 SWAP4 SWAP3 SWAP2 SWAP1 PUSH2 0x43F9 JUMP JUMPDEST PUSH1 0x40 MLOAD DUP1 SWAP2 SUB SWAP1 REVERT JUMPDEST POP DUP1 DUP1 PUSH1 0x1 ADD SWAP2 POP POP PUSH2 0x6F5 JUMP JUMPDEST POP POP POP POP POP JUMP JUMPDEST PUSH0 DUP2 PUSH1 0x1 DUP1 ISZERO PUSH2 0x86E JUMPI PUSH2 0x82A DUP3 PUSH2 0x158E JUMP JUMPDEST PUSH2 0x869 JUMPI PUSH1 0x40 MLOAD PUSH32 0x8C379A000000000000000000000000000000000000000000000000000000000 DUP2 MSTORE PUSH1 0x4 ADD PUSH2 0x860 SWAP1 PUSH2 0x4499 JUMP JUMPDEST PUSH1 0x40 MLOAD DUP1 SWAP2 SUB SWAP1 REVERT JUMPDEST PUSH2 0x8B8 JUMP JUMPDEST PUSH2 0x877 DUP3 PUSH2 0x158E JUMP JUMPDEST ISZERO PUSH2 0x8B7 JUMPI PUSH1 0x40 MLOAD PUSH32 0x8C379A000000000000000000000000000000000000000000000000000000000 DUP2 MSTORE PUSH1 0x4 ADD PUSH2 0x8AE SWAP1 PUSH2 0x4501 JUMP JUMPDEST PUSH1 0x40 MLOAD DUP1 SWAP2 SUB SWAP1 REVERT JUMPDEST JUMPDEST PUSH2 0x8C0 PUSH2 0x1CA3 JUMP JUMPDEST PUSH0 ADD PUSH0 DUP6 PUSH8 0xFFFFFFFFFFFFFFFF AND PUSH8 0xFFFFFFFFFFFFFFFF AND DUP2 MSTORE PUSH1 0x20 ADD SWAP1 DUP2 MSTORE PUSH1 0x20 ADD PUSH0 KECCAK256 PUSH0 SWAP1 SLOAD SWAP1 PUSH2 0x100 EXP SWAP1 DIV PUSH1 0xFF AND ISZERO SWAP3 POP POP POP SWAP2 SWAP1 POP JUMP JUMPDEST PUSH2 0x3E8 DUP2 JUMP JUMPDEST DUP1 PUSH0 PUSH2 0x90C PUSH2 0x1CCA JUMP JUMPDEST SWAP1 POP PUSH2 0x917 DUP3 PUSH2 0x1015 JUMP JUMPDEST PUSH20 0xFFFFFFFFFFFFFFFFFFFFFFFFFFFFFFFFFFFFFFFF AND DUP2 PUSH20 0xFFFFFFFFFFFFFFFFFFFFFFFFFFFFFFFFFFFFFFFF AND EQ DUP1 PUSH2 0x982 JUMPI POP PUSH2 0x953 PUSH2 0x145C JUMP JUMPDEST PUSH20 0xFFFFFFFFFFFFFFFFFFFFFFFFFFFFFFFFFFFFFFFF AND DUP2 PUSH20 0xFFFFFFFFFFFFFFFFFFFFFFFFFFFFFFFFFFFFFFFF AND EQ JUMPDEST PUSH2 0x9C1 JUMPI PUSH1 0x40 MLOAD PUSH32 0x8C379A000000000000000000000000000000000000000000000000000000000 DUP2 MSTORE PUSH1 0x4 ADD PUSH2 0x9B8 SWAP1 PUSH2 0x4569 JUMP JUMPDEST PUSH1 0x40 MLOAD DUP1 SWAP2 SUB SWAP1 REVERT JUMPDEST PUSH2 0x9CA DUP4 PUSH2 0x1CD1 JUMP JUMPDEST POP POP POP JUMP JUMPDEST PUSH0 PUSH2 0x9D8 PUSH2 0x1DBA JUMP JUMPDEST PUSH1 0x3 ADD PUSH0 SWAP1 SLOAD SWAP1 PUSH2 0x100 EXP SWAP1 DIV PUSH20 0xFFFFFFFFFFFFFFFFFFFFFFFFFFFFFFFFFFFFFFFF AND SWAP1 POP SWAP1 JUMP JUMPDEST PUSH2 0xA08 PUSH2 0x1DE1 JUMP JUMPDEST PUSH2 0xA11 DUP2 PUSH2 0x1E68 JUMP JUMPDEST POP JUMP JUMPDEST PUSH0 PUSH2 0xA1D PUSH2 0x1EB4 JUMP JUMPDEST SWAP1 POP PUSH0 DUP2 PUSH0 ADD PUSH1 0x8 SWAP1 SLOAD SWAP1 PUSH2 0x100 EXP SWAP1 DIV PUSH1 0xFF AND ISZERO SWAP1 POP PUSH0 DUP3 PUSH0 ADD PUSH0 SWAP1 SLOAD SWAP1 PUSH2 0x100 EXP SWAP1 DIV PUSH8 0xFFFFFFFFFFFFFFFF AND SWAP1 POP PUSH0 PUSH0 DUP3 PUSH8 0xFFFFFFFFFFFFFFFF AND EQ DUP1 ISZERO PUSH2 0xA65 JUMPI POP DUP3 JUMPDEST SWAP1 POP PUSH0 PUSH1 0x1 DUP4 PUSH8 0xFFFFFFFFFFFFFFFF AND EQ DUP1 ISZERO PUSH2 0xA98 JUMPI POP PUSH0 ADDRESS PUSH20 0xFFFFFFFFFFFFFFFFFFFFFFFFFFFFFFFFFFFFFFFF AND EXTCODESIZE EQ JUMPDEST SWAP1 POP DUP2 ISZERO DUP1 ISZERO PUSH2 0xAA6 JUMPI POP DUP1 ISZERO JUMPDEST ISZERO PUSH2 0xADD JUMPI PUSH1 0x40 MLOAD PUSH32 0xF92EE8A900000000000000000000000000000000000000000000000000000000 DUP2 MSTORE PUSH1 0x4 ADD PUSH1 0x40 MLOAD DUP1 SWAP2 SUB SWAP1 REVERT JUMPDEST PUSH1 0x1 DUP6 PUSH0 ADD PUSH0 PUSH2 0x100 EXP DUP2 SLOAD DUP2 PUSH8 0xFFFFFFFFFFFFFFFF MUL NOT AND SWAP1 DUP4 PUSH8 0xFFFFFFFFFFFFFFFF AND MUL OR SWAP1 SSTORE POP DUP4 ISZERO PUSH2 0xB2A JUMPI PUSH1 0x1 DUP6 PUSH0 ADD PUSH1 0x8 PUSH2 0x100 EXP DUP2 SLOAD DUP2 PUSH1 0xFF MUL NOT AND SWAP1 DUP4 ISZERO ISZERO MUL OR SWAP1 SSTORE POP JUMPDEST PUSH2 0xB33 DUP7 PUSH2 0x1EDB JUMP JUMPDEST PUSH2 0xB3C DUP8 PUSH2 0x1EEF JUMP JUMPDEST DUP4 ISZERO PUSH2 0xB96 JUMPI PUSH0 DUP6 PUSH0 ADD PUSH1 0x8 PUSH2 0x100 EXP DUP2 SLOAD DUP2 PUSH1 0xFF MUL NOT AND SWAP1 DUP4 ISZERO ISZERO MUL OR SWAP1 SSTORE POP PUSH32 0xC7F505B2F371AE2175EE4913F4499E1F2633A7B5936321EED1CDAEB6115181D2 PUSH1 0x1 PUSH1 0x40 MLOAD PUSH2 0xB8D SWAP2 SWAP1 PUSH2 0x45C0 JUMP JUMPDEST PUSH1 0x40 MLOAD DUP1 SWAP2 SUB SWAP1 LOG1 JUMPDEST POP POP POP POP POP POP POP JUMP JUMPDEST PUSH0 DUP2 PUSH1 0x1 DUP1 ISZERO PUSH2 0xBF6 JUMPI PUSH2 0xBB2 DUP3 PUSH2 0x158E JUMP JUMPDEST PUSH2 0xBF1 JUMPI PUSH1 0x40 MLOAD PUSH32 0x8C379A000000000000000000000000000000000000000000000000000000000 DUP2 MSTORE PUSH1 0x4 ADD PUSH2 0xBE8 SWAP1 PUSH2 0x4499 JUMP JUMPDEST PUSH1 0x40 MLOAD DUP1 SWAP2 SUB SWAP1 REVERT JUMPDEST PUSH2 0xC40 JUMP JUMPDEST PUSH2 0xBFF DUP3 PUSH2 0x158E JUMP JUMPDEST ISZERO PUSH2 0xC3F JUMPI PUSH1 0x40 MLOAD PUSH32 0x8C379A000000000000000000000000000000000000000000000000000000000 DUP2 MSTORE PUSH1 0x4 ADD PUSH2 0xC36 SWAP1 PUSH2 0x4501 JUMP JUMPDEST PUSH1 0x40 MLOAD DUP1 SWAP2 SUB SWAP1 REVERT JUMPDEST JUMPDEST PUSH2 0xC48 PUSH2 0x1DBA JUMP JUMPDEST PUSH0 ADD PUSH0 DUP7 PUSH20 0xFFFFFFFFFFFFFFFFFFFFFFFFFFFFFFFFFFFFFFFF AND PUSH20 0xFFFFFFFFFFFFFFFFFFFFFFFFFFFFFFFFFFFFFFFF AND DUP2 MSTORE PUSH1 0x20 ADD SWAP1 DUP2 MSTORE PUSH1 0x20 ADD PUSH0 KECCAK256 PUSH0 DUP6 PUSH8 0xFFFFFFFFFFFFFFFF AND PUSH8 0xFFFFFFFFFFFFFFFF AND DUP2 MSTORE PUSH1 0x20 ADD SWAP1 DUP2 MSTORE PUSH1 0x20 ADD PUSH0 KECCAK256 PUSH0 ADD PUSH0 SWAP1 SLOAD SWAP1 PUSH2 0x100 EXP SWAP1 DIV PUSH1 0xFF AND SWAP3 POP POP POP SWAP3 SWAP2 POP POP JUMP JUMPDEST PUSH1 0x60 PUSH2 0xCD1 DUP8 DUP8 DUP8 DUP8 DUP8 DUP8 PUSH2 0x1F03 JUMP JUMPDEST SWAP1 POP SWAP7 SWAP6 POP POP POP POP POP POP JUMP JUMPDEST PUSH1 0x60 PUSH1 0x40 MLOAD DUP1 PUSH1 0x40 ADD PUSH1 0x40 MSTORE DUP1 PUSH1 0x5 DUP2 MSTORE PUSH1 0x20 ADD PUSH32 0x312E312E31000000000000000000000000000000000000000000000000000000 DUP2 MSTORE POP SWAP1 POP SWAP1 JUMP JUMPDEST PUSH2 0xD22 PUSH2 0x1DE1 JUMP JUMPDEST PUSH2 0xD2B DUP2 PUSH2 0x1F78 JUMP JUMPDEST POP JUMP JUMPDEST PUSH1 0x60 PUSH0 PUSH2 0xD39 PUSH2 0x1DBA JUMP JUMPDEST SWAP1 POP PUSH0 PUSH0 PUSH2 0xD52 DUP4 PUSH1 0x2 ADD DUP1 SLOAD SWAP1 POP DUP8 DUP8 PUSH2 0x3E8 PUSH2 0x20AF JUMP JUMPDEST SWAP2 POP SWAP2 POP PUSH0 DUP3 DUP3 PUSH2 0xD63 SWAP2 SWAP1 PUSH2 0x4606 JUMP JUMPDEST PUSH8 0xFFFFFFFFFFFFFFFF DUP2 GT ISZERO PUSH2 0xD7C JUMPI PUSH2 0xD7B PUSH2 0x3459 JUMP JUMPDEST JUMPDEST PUSH1 0x40 MLOAD SWAP1 DUP1 DUP3 MSTORE DUP1 PUSH1 0x20 MUL PUSH1 0x20 ADD DUP3 ADD PUSH1 0x40 MSTORE DUP1 ISZERO PUSH2 0xDB5 JUMPI DUP2 PUSH1 0x20 ADD JUMPDEST PUSH2 0xDA2 PUSH2 0x30ED JUMP JUMPDEST DUP2 MSTORE PUSH1 0x20 ADD SWAP1 PUSH1 0x1 SWAP1 SUB SWAP1 DUP2 PUSH2 0xD9A JUMPI SWAP1 POP JUMPDEST POP SWAP1 POP PUSH0 DUP4 SWAP1 POP JUMPDEST DUP3 DUP2 LT ISZERO PUSH2 0xFDE JUMPI DUP5 PUSH1 0x1 ADD PUSH0 DUP7 PUSH1 0x2 ADD DUP4 DUP2 SLOAD DUP2 LT PUSH2 0xDE0 JUMPI PUSH2 0xDDF PUSH2 0x42E5 JUMP JUMPDEST JUMPDEST SWAP1 PUSH0 MSTORE PUSH1 0x20 PUSH0 KECCAK256 SWAP1 PUSH1 0x4 SWAP2 DUP3 DUP3 DIV ADD SWAP2 SWAP1 MOD PUSH1 0x8 MUL SWAP1 SLOAD SWAP1 PUSH2 0x100 EXP SWAP1 DIV PUSH8 0xFFFFFFFFFFFFFFFF AND PUSH8 0xFFFFFFFFFFFFFFFF AND PUSH8 0xFFFFFFFFFFFFFFFF AND DUP2 MSTORE PUSH1 0x20 ADD SWAP1 DUP2 MSTORE PUSH1 0x20 ADD PUSH0 KECCAK256 PUSH1 0x40 MLOAD DUP1 PUSH1 0x60 ADD PUSH1 0x40 MSTORE SWAP1 DUP2 PUSH0 DUP3 ADD DUP1 SLOAD PUSH2 0xE43 SWAP1 PUSH2 0x4666 JUMP JUMPDEST DUP1 PUSH1 0x1F ADD PUSH1 0x20 DUP1 SWAP2 DIV MUL PUSH1 0x20 ADD PUSH1 0x40 MLOAD SWAP1 DUP2 ADD PUSH1 0x40 MSTORE DUP1 SWAP3 SWAP2 SWAP1 DUP2 DUP2 MSTORE PUSH1 0x20 ADD DUP3 DUP1 SLOAD PUSH2 0xE6F SWAP1 PUSH2 0x4666 JUMP JUMPDEST DUP1 ISZERO PUSH2 0xEBA JUMPI DUP1 PUSH1 0x1F LT PUSH2 0xE91 JUMPI PUSH2 0x100 DUP1 DUP4 SLOAD DIV MUL DUP4 MSTORE SWAP2 PUSH1 0x20 ADD SWAP2 PUSH2 0xEBA JUMP JUMPDEST DUP3 ADD SWAP2 SWAP1 PUSH0 MSTORE PUSH1 0x20 PUSH0 KECCAK256 SWAP1 JUMPDEST DUP2 SLOAD DUP2 MSTORE SWAP1 PUSH1 0x1 ADD SWAP1 PUSH1 0x20 ADD DUP1 DUP4 GT PUSH2 0xE9D JUMPI DUP3 SWAP1 SUB PUSH1 0x1F AND DUP3 ADD SWAP2 JUMPDEST POP POP POP POP POP DUP2 MSTORE PUSH1 0x20 ADD PUSH1 0x1 DUP3 ADD PUSH0 SWAP1 SLOAD SWAP1 PUSH2 0x100 EXP SWAP1 DIV PUSH20 0xFFFFFFFFFFFFFFFFFFFFFFFFFFFFFFFFFFFFFFFF AND PUSH20 0xFFFFFFFFFFFFFFFFFFFFFFFFFFFFFFFFFFFFFFFF AND PUSH20 0xFFFFFFFFFFFFFFFFFFFFFFFFFFFFFFFFFFFFFFFF AND DUP2 MSTORE PUSH1 0x20 ADD PUSH1 0x2 DUP3 ADD DUP1 SLOAD PUSH2 0xF28 SWAP1 PUSH2 0x4666 JUMP JUMPDEST DUP1 PUSH1 0x1F ADD PUSH1 0x20 DUP1 SWAP2 DIV MUL PUSH1 0x20 ADD PUSH1 0x40 MLOAD SWAP1 DUP2 ADD PUSH1 0x40 MSTORE DUP1 SWAP3 SWAP2 SWAP1 DUP2 DUP2 MSTORE PUSH1 0x20 ADD DUP3 DUP1 SLOAD PUSH2 0xF54 SWAP1 PUSH2 0x4666 JUMP JUMPDEST DUP1 ISZERO PUSH2 0xF9F JUMPI DUP1 PUSH1 0x1F LT PUSH2 0xF76 JUMPI PUSH2 0x100 DUP1 DUP4 SLOAD DIV MUL DUP4 MSTORE SWAP2 PUSH1 0x20 ADD SWAP2 PUSH2 0xF9F JUMP JUMPDEST DUP3 ADD SWAP2 SWAP1 PUSH0 MSTORE PUSH1 0x20 PUSH0 KECCAK256 SWAP1 JUMPDEST DUP2 SLOAD DUP2 MSTORE SWAP1 PUSH1 0x1 ADD SWAP1 PUSH1 0x20 ADD DUP1 DUP4 GT PUSH2 0xF82 JUMPI DUP3 SWAP1 SUB PUSH1 0x1F AND DUP3 ADD SWAP2 JUMPDEST POP POP POP POP POP DUP2 MSTORE POP POP DUP3 DUP6 DUP4 PUSH2 0xFB5 SWAP2 SWAP1 PUSH2 0x4606 JUMP JUMPDEST DUP2 MLOAD DUP2 LT PUSH2 0xFC6 JUMPI PUSH2 0xFC5 PUSH2 0x42E5 JUMP JUMPDEST JUMPDEST PUSH1 0x20 MUL PUSH1 0x20 ADD ADD DUP2 SWAP1 MSTORE POP DUP1 DUP1 PUSH1 0x1 ADD SWAP2 POP POP PUSH2 0xDBD JUMP JUMPDEST POP DUP1 SWAP5 POP POP POP POP POP SWAP3 SWAP2 POP POP JUMP JUMPDEST PUSH2 0xFF4 PUSH2 0x1DE1 JUMP JUMPDEST PUSH2 0xFFD DUP2 PUSH2 0x21A3 JUMP JUMPDEST POP JUMP JUMPDEST PUSH0 PUSH2 0x1009 PUSH2 0x1DBA JUMP JUMPDEST PUSH1 0x2 ADD DUP1 SLOAD SWAP1 POP SWAP1 POP SWAP1 JUMP JUMPDEST PUSH0 DUP2 PUSH1 0x1 DUP1 ISZERO PUSH2 0x106C JUMPI PUSH2 0x1028 DUP3 PUSH2 0x158E JUMP JUMPDEST PUSH2 0x1067 JUMPI PUSH1 0x40 MLOAD PUSH32 0x8C379A000000000000000000000000000000000000000000000000000000000 DUP2 MSTORE PUSH1 0x4 ADD PUSH2 0x105E SWAP1 PUSH2 0x4499 JUMP JUMPDEST PUSH1 0x40 MLOAD DUP1 SWAP2 SUB SWAP1 REVERT JUMPDEST PUSH2 0x10B6 JUMP JUMPDEST PUSH2 0x1075 DUP3 PUSH2 0x158E JUMP JUMPDEST ISZERO PUSH2 0x10B5 JUMPI PUSH1 0x40 MLOAD PUSH32 0x8C379A000000000000000000000000000000000000000000000000000000000 DUP2 MSTORE PUSH1 0x4 ADD PUSH2 0x10AC SWAP1 PUSH2 0x4501 JUMP JUMPDEST PUSH1 0x40 MLOAD DUP1 SWAP2 SUB SWAP1 REVERT JUMPDEST JUMPDEST PUSH2 0x10BE PUSH2 0x2202 JUMP JUMPDEST PUSH0 ADD PUSH0 DUP6 PUSH8 0xFFFFFFFFFFFFFFFF AND PUSH8 0xFFFFFFFFFFFFFFFF AND DUP2 MSTORE PUSH1 0x20 ADD SWAP1 DUP2 MSTORE PUSH1 0x20 ADD PUSH0 KECCAK256 PUSH0 SWAP1 SLOAD SWAP1 PUSH2 0x100 EXP SWAP1 DIV PUSH20 0xFFFFFFFFFFFFFFFFFFFFFFFFFFFFFFFFFFFFFFFF AND SWAP3 POP POP POP SWAP2 SWAP1 POP JUMP JUMPDEST PUSH2 0x1114 PUSH2 0x1DE1 JUMP JUMPDEST PUSH2 0x111D PUSH0 PUSH2 0x2229 JUMP JUMPDEST JUMP JUMPDEST PUSH0 PUSH2 0x1128 PUSH2 0x1CCA JUMP JUMPDEST SWAP1 POP DUP1 PUSH20 0xFFFFFFFFFFFFFFFFFFFFFFFFFFFFFFFFFFFFFFFF AND PUSH2 0x1149 PUSH2 0x1B7C JUMP JUMPDEST PUSH20 0xFFFFFFFFFFFFFFFFFFFFFFFFFFFFFFFFFFFFFFFF AND EQ PUSH2 0x11A1 JUMPI DUP1 PUSH1 0x40 MLOAD PUSH32 0x118CDAA700000000000000000000000000000000000000000000000000000000 DUP2 MSTORE PUSH1 0x4 ADD PUSH2 0x1198 SWAP2 SWAP1 PUSH2 0x334E JUMP JUMPDEST PUSH1 0x40 MLOAD DUP1 SWAP2 SUB SWAP1 REVERT JUMPDEST PUSH2 0x11AA DUP2 PUSH2 0x2229 JUMP JUMPDEST POP JUMP JUMPDEST DUP1 PUSH0 PUSH2 0x11B7 PUSH2 0x1CCA JUMP JUMPDEST SWAP1 POP PUSH2 0x11C2 DUP3 PUSH2 0x1015 JUMP JUMPDEST PUSH20 0xFFFFFFFFFFFFFFFFFFFFFFFFFFFFFFFFFFFFFFFF AND DUP2 PUSH20 0xFFFFFFFFFFFFFFFFFFFFFFFFFFFFFFFFFFFFFFFF AND EQ DUP1 PUSH2 0x122D JUMPI POP PUSH2 0x11FE PUSH2 0x145C JUMP JUMPDEST PUSH20 0xFFFFFFFFFFFFFFFFFFFFFFFFFFFFFFFFFFFFFFFF AND DUP2 PUSH20 0xFFFFFFFFFFFFFFFFFFFFFFFFFFFFFFFFFFFFFFFF AND EQ JUMPDEST PUSH2 0x126C JUMPI PUSH1 0x40 MLOAD PUSH32 0x8C379A000000000000000000000000000000000000000000000000000000000 DUP2 MSTORE PUSH1 0x4 ADD PUSH2 0x1263 SWAP1 PUSH2 0x4569 JUMP JUMPDEST PUSH1 0x40 MLOAD DUP1 SWAP2 SUB SWAP1 REVERT JUMPDEST PUSH2 0x1275 DUP4 PUSH2 0x2266 JUMP JUMPDEST POP POP POP JUMP JUMPDEST PUSH2 0x1282 PUSH2 0x3123 JUMP JUMPDEST DUP2 PUSH1 0x1 DUP1 ISZERO PUSH2 0x12D8 JUMPI PUSH2 0x1294 DUP3 PUSH2 0x158E JUMP JUMPDEST PUSH2 0x12D3 JUMPI PUSH1 0x40 MLOAD PUSH32 0x8C379A000000000000000000000000000000000000000000000000000000000 DUP2 MSTORE PUSH1 0x4 ADD PUSH2 0x12CA SWAP1 PUSH2 0x4499 JUMP JUMPDEST PUSH1 0x40 MLOAD DUP1 SWAP2 SUB SWAP1 REVERT JUMPDEST PUSH2 0x1322 JUMP JUMPDEST PUSH2 0x12E1 DUP3 PUSH2 0x158E JUMP JUMPDEST ISZERO PUSH2 0x1321 JUMPI PUSH1 0x40 MLOAD PUSH32 0x8C379A000000000000000000000000000000000000000000000000000000000 DUP2 MSTORE PUSH1 0x4 ADD PUSH2 0x1318 SWAP1 PUSH2 0x4501 JUMP JUMPDEST PUSH1 0x40 MLOAD DUP1 SWAP2 SUB SWAP1 REVERT JUMPDEST JUMPDEST PUSH0 PUSH2 0x132B PUSH2 0x1DBA JUMP JUMPDEST PUSH0 ADD PUSH0 DUP8 PUSH20 0xFFFFFFFFFFFFFFFFFFFFFFFFFFFFFFFFFFFFFFFF AND PUSH20 0xFFFFFFFFFFFFFFFFFFFFFFFFFFFFFFFFFFFFFFFF AND DUP2 MSTORE PUSH1 0x20 ADD SWAP1 DUP2 MSTORE PUSH1 0x20 ADD PUSH0 KECCAK256 PUSH0 DUP7 PUSH8 0xFFFFFFFFFFFFFFFF AND PUSH8 0xFFFFFFFFFFFFFFFF AND DUP2 MSTORE PUSH1 0x20 ADD SWAP1 DUP2 MSTORE PUSH1 0x20 ADD PUSH0 KECCAK256 SWAP1 POP PUSH1 0x40 MLOAD DUP1 PUSH1 0x80 ADD PUSH1 0x40 MSTORE DUP1 DUP3 PUSH0 ADD PUSH0 SWAP1 SLOAD SWAP1 PUSH2 0x100 EXP SWAP1 DIV PUSH1 0xFF AND ISZERO ISZERO DUP2 MSTORE PUSH1 0x20 ADD DUP3 PUSH1 0x2 ADD DUP1 SLOAD PUSH2 0x13BE SWAP1 PUSH2 0x4666 JUMP JUMPDEST DUP1 PUSH1 0x1F ADD PUSH1 0x20 DUP1 SWAP2 DIV MUL PUSH1 0x20 ADD PUSH1 0x40 MLOAD SWAP1 DUP2 ADD PUSH1 0x40 MSTORE DUP1 SWAP3 SWAP2 SWAP1 DUP2 DUP2 MSTORE PUSH1 0x20 ADD DUP3 DUP1 SLOAD PUSH2 0x13EA SWAP1 PUSH2 0x4666 JUMP JUMPDEST DUP1 ISZERO PUSH2 0x1435 JUMPI DUP1 PUSH1 0x1F LT PUSH2 0x140C JUMPI PUSH2 0x100 DUP1 DUP4 SLOAD DIV MUL DUP4 MSTORE SWAP2 PUSH1 0x20 ADD SWAP2 PUSH2 0x1435 JUMP JUMPDEST DUP3 ADD SWAP2 SWAP1 PUSH0 MSTORE PUSH1 0x20 PUSH0 KECCAK256 SWAP1 JUMPDEST DUP2 SLOAD DUP2 MSTORE SWAP1 PUSH1 0x1 ADD SWAP1 PUSH1 0x20 ADD DUP1 DUP4 GT PUSH2 0x1418 JUMPI DUP3 SWAP1 SUB PUSH1 0x1F AND DUP3 ADD SWAP2 JUMPDEST POP POP POP POP POP DUP2 MSTORE PUSH1 0x20 ADD DUP3 PUSH1 0x3 ADD SLOAD DUP2 MSTORE PUSH1 0x20 ADD DUP3 PUSH1 0x4 ADD SLOAD DUP2 MSTORE POP SWAP4 POP POP POP POP SWAP3 SWAP2 POP POP JUMP JUMPDEST PUSH0 PUSH0 PUSH2 0x1466 PUSH2 0x2350 JUMP JUMPDEST SWAP1 POP DUP1 PUSH0 ADD PUSH0 SWAP1 SLOAD SWAP1 PUSH2 0x100 EXP SWAP1 DIV PUSH20 0xFFFFFFFFFFFFFFFFFFFFFFFFFFFFFFFFFFFFFFFF AND SWAP2 POP POP SWAP1 JUMP JUMPDEST PUSH0 PUSH2 0x149A PUSH2 0x2377 JUMP JUMPDEST PUSH0 ADD PUSH0 DUP4 PUSH20 0xFFFFFFFFFFFFFFFFFFFFFFFFFFFFFFFFFFFFFFFF AND PUSH20 0xFFFFFFFFFFFFFFFFFFFFFFFFFFFFFFFFFFFFFFFF AND DUP2 MSTORE PUSH1 0x20 ADD SWAP1 DUP2 MSTORE PUSH1 0x20 ADD PUSH0 KECCAK256 PUSH0 SWAP1 SLOAD SWAP1 PUSH2 0x100 EXP SWAP1 DIV PUSH1 0xFF AND SWAP1 POP SWAP2 SWAP1 POP JUMP JUMPDEST PUSH2 0x14F5 DUP3 DUP3 PUSH2 0x239E JUMP JUMPDEST PUSH2 0x14FD PUSH2 0x1CCA JUMP JUMPDEST PUSH20 0xFFFFFFFFFFFFFFFFFFFFFFFFFFFFFFFFFFFFFFFF AND DUP3 PUSH8 0xFFFFFFFFFFFFFFFF AND PUSH32 0x26DB2C5D21D517FA8C11AF3AE555AF7F4A560B9F70A5A32E73E6CD94D0CAE3E8 DUP4 DUP1 PUSH0 ADD SWAP1 PUSH2 0x154E SWAP2 SWAP1 PUSH2 0x46A2 JUMP JUMPDEST DUP6 PUSH1 0x20 ADD PUSH1 0x20 DUP2 ADD SWAP1 PUSH2 0x1561 SWAP2 SWAP1 PUSH2 0x39E6 JUMP JUMPDEST DUP7 DUP1 PUSH1 0x40 ADD SWAP1 PUSH2 0x1571 SWAP2 SWAP1 PUSH2 0x4704 JUMP JUMPDEST PUSH1 0x40 MLOAD PUSH2 0x1582 SWAP6 SWAP5 SWAP4 SWAP3 SWAP2 SWAP1 PUSH2 0x47CE JUMP JUMPDEST PUSH1 0x40 MLOAD DUP1 SWAP2 SUB SWAP1 LOG3 POP POP JUMP JUMPDEST PUSH0 PUSH0 PUSH20 0xFFFFFFFFFFFFFFFFFFFFFFFFFFFFFFFFFFFFFFFF AND PUSH2 0x15AE PUSH2 0x1DBA JUMP JUMPDEST PUSH1 0x1 ADD PUSH0 DUP5 PUSH8 0xFFFFFFFFFFFFFFFF AND PUSH8 0xFFFFFFFFFFFFFFFF AND DUP2 MSTORE PUSH1 0x20 ADD SWAP1 DUP2 MSTORE PUSH1 0x20 ADD PUSH0 KECCAK256 PUSH1 0x1 ADD PUSH0 SWAP1 SLOAD SWAP1 PUSH2 0x100 EXP SWAP1 DIV PUSH20 0xFFFFFFFFFFFFFFFFFFFFFFFFFFFFFFFFFFFFFFFF AND PUSH20 0xFFFFFFFFFFFFFFFFFFFFFFFFFFFFFFFFFFFFFFFF AND EQ ISZERO SWAP1 POP SWAP2 SWAP1 POP JUMP JUMPDEST PUSH2 0x1620 DUP3 DUP3 PUSH2 0x2408 JUMP JUMPDEST PUSH0 PUSH0 SWAP1 POP JUMPDEST DUP3 MLOAD DUP2 LT ISZERO PUSH2 0x16AD JUMPI PUSH2 0x1636 PUSH2 0x1CCA JUMP JUMPDEST PUSH20 0xFFFFFFFFFFFFFFFFFFFFFFFFFFFFFFFFFFFFFFFF AND DUP4 DUP3 DUP2 MLOAD DUP2 LT PUSH2 0x165F JUMPI PUSH2 0x165E PUSH2 0x42E5 JUMP JUMPDEST JUMPDEST PUSH1 0x20 MUL PUSH1 0x20 ADD ADD MLOAD PUSH0 ADD MLOAD PUSH8 0xFFFFFFFFFFFFFFFF AND PUSH32 0x6979BC9C3E552C05DD9859285F1ED7A172E52EF39E1DCE9C720E5BF8D82C9F4C PUSH1 0x40 MLOAD PUSH1 0x40 MLOAD DUP1 SWAP2 SUB SWAP1 LOG3 DUP1 DUP1 PUSH1 0x1 ADD SWAP2 POP POP PUSH2 0x1625 JUMP JUMPDEST POP POP POP JUMP JUMPDEST PUSH2 0x16BF DUP6 DUP6 DUP6 DUP6 DUP6 PUSH2 0x2663 JUMP JUMPDEST PUSH2 0x16C7 PUSH2 0x1CCA JUMP JUMPDEST PUSH20 0xFFFFFFFFFFFFFFFFFFFFFFFFFFFFFFFFFFFFFFFF AND DUP6 PUSH8 0xFFFFFFFFFFFFFFFF AND PUSH32 0x6979BC9C3E552C05DD9859285F1ED7A172E52EF39E1DCE9C720E5BF8D82C9F4C PUSH1 0x40 MLOAD PUSH1 0x40 MLOAD DUP1 SWAP2 SUB SWAP1 LOG3 POP POP POP POP POP JUMP JUMPDEST PUSH2 0x1723 PUSH2 0x30ED JUMP JUMPDEST DUP2 PUSH1 0x1 DUP1 ISZERO PUSH2 0x1779 JUMPI PUSH2 0x1735 DUP3 PUSH2 0x158E JUMP JUMPDEST PUSH2 0x1774 JUMPI PUSH1 0x40 MLOAD PUSH32 0x8C379A000000000000000000000000000000000000000000000000000000000 DUP2 MSTORE PUSH1 0x4 ADD PUSH2 0x176B SWAP1 PUSH2 0x4499 JUMP JUMPDEST PUSH1 0x40 MLOAD DUP1 SWAP2 SUB SWAP1 REVERT JUMPDEST PUSH2 0x17C3 JUMP JUMPDEST PUSH2 0x1782 DUP3 PUSH2 0x158E JUMP JUMPDEST ISZERO PUSH2 0x17C2 JUMPI PUSH1 0x40 MLOAD PUSH32 0x8C379A000000000000000000000000000000000000000000000000000000000 DUP2 MSTORE PUSH1 0x4 ADD PUSH2 0x17B9 SWAP1 PUSH2 0x4501 JUMP JUMPDEST PUSH1 0x40 MLOAD DUP1 SWAP2 SUB SWAP1 REVERT JUMPDEST JUMPDEST PUSH2 0x17CB PUSH2 0x1DBA JUMP JUMPDEST PUSH1 0x1 ADD PUSH0 DUP6 PUSH8 0xFFFFFFFFFFFFFFFF AND PUSH8 0xFFFFFFFFFFFFFFFF AND DUP2 MSTORE PUSH1 0x20 ADD SWAP1 DUP2 MSTORE PUSH1 0x20 ADD PUSH0 KECCAK256 PUSH1 0x40 MLOAD DUP1 PUSH1 0x60 ADD PUSH1 0x40 MSTORE SWAP1 DUP2 PUSH0 DUP3 ADD DUP1 SLOAD PUSH2 0x180B SWAP1 PUSH2 0x4666 JUMP JUMPDEST DUP1 PUSH1 0x1F ADD PUSH1 0x20 DUP1 SWAP2 DIV MUL PUSH1 0x20 ADD PUSH1 0x40 MLOAD SWAP1 DUP2 ADD PUSH1 0x40 MSTORE DUP1 SWAP3 SWAP2 SWAP1 DUP2 DUP2 MSTORE PUSH1 0x20 ADD DUP3 DUP1 SLOAD PUSH2 0x1837 SWAP1 PUSH2 0x4666 JUMP JUMPDEST DUP1 ISZERO PUSH2 0x1882 JUMPI DUP1 PUSH1 0x1F LT PUSH2 0x1859 JUMPI PUSH2 0x100 DUP1 DUP4 SLOAD DIV MUL DUP4 MSTORE SWAP2 PUSH1 0x20 ADD SWAP2 PUSH2 0x1882 JUMP JUMPDEST DUP3 ADD SWAP2 SWAP1 PUSH0 MSTORE PUSH1 0x20 PUSH0 KECCAK256 SWAP1 JUMPDEST DUP2 SLOAD DUP2 MSTORE SWAP1 PUSH1 0x1 ADD SWAP1 PUSH1 0x20 ADD DUP1 DUP4 GT PUSH2 0x1865 JUMPI DUP3 SWAP1 SUB PUSH1 0x1F AND DUP3 ADD SWAP2 JUMPDEST POP POP POP POP POP DUP2 MSTORE PUSH1 0x20 ADD PUSH1 0x1 DUP3 ADD PUSH0 SWAP1 SLOAD SWAP1 PUSH2 0x100 EXP SWAP1 DIV PUSH20 0xFFFFFFFFFFFFFFFFFFFFFFFFFFFFFFFFFFFFFFFF AND PUSH20 0xFFFFFFFFFFFFFFFFFFFFFFFFFFFFFFFFFFFFFFFF AND PUSH20 0xFFFFFFFFFFFFFFFFFFFFFFFFFFFFFFFFFFFFFFFF AND DUP2 MSTORE PUSH1 0x20 ADD PUSH1 0x2 DUP3 ADD DUP1 SLOAD PUSH2 0x18F0 SWAP1 PUSH2 0x4666 JUMP JUMPDEST DUP1 PUSH1 0x1F ADD PUSH1 0x20 DUP1 SWAP2 DIV MUL PUSH1 0x20 ADD PUSH1 0x40 MLOAD SWAP1 DUP2 ADD PUSH1 0x40 MSTORE DUP1 SWAP3 SWAP2 SWAP1 DUP2 DUP2 MSTORE PUSH1 0x20 ADD DUP3 DUP1 SLOAD PUSH2 0x191C SWAP1 PUSH2 0x4666 JUMP JUMPDEST DUP1 ISZERO PUSH2 0x1967 JUMPI DUP1 PUSH1 0x1F LT PUSH2 0x193E JUMPI PUSH2 0x100 DUP1 DUP4 SLOAD DIV MUL DUP4 MSTORE SWAP2 PUSH1 0x20 ADD SWAP2 PUSH2 0x1967 JUMP JUMPDEST DUP3 ADD SWAP2 SWAP1 PUSH0 MSTORE PUSH1 0x20 PUSH0 KECCAK256 SWAP1 JUMPDEST DUP2 SLOAD DUP2 MSTORE SWAP1 PUSH1 0x1 ADD SWAP1 PUSH1 0x20 ADD DUP1 DUP4 GT PUSH2 0x194A JUMPI DUP3 SWAP1 SUB PUSH1 0x1F AND DUP3 ADD SWAP2 JUMPDEST POP POP POP POP POP DUP2 MSTORE POP POP SWAP3 POP POP POP SWAP2 SWAP1 POP JUMP JUMPDEST DUP2 PUSH0 PUSH2 0x1983 PUSH2 0x1CCA JUMP JUMPDEST SWAP1 POP PUSH2 0x198E DUP3 PUSH2 0x1015 JUMP JUMPDEST PUSH20 0xFFFFFFFFFFFFFFFFFFFFFFFFFFFFFFFFFFFFFFFF AND DUP2 PUSH20 0xFFFFFFFFFFFFFFFFFFFFFFFFFFFFFFFFFFFFFFFF AND EQ DUP1 PUSH2 0x19F9 JUMPI POP PUSH2 0x19CA PUSH2 0x145C JUMP JUMPDEST PUSH20 0xFFFFFFFFFFFFFFFFFFFFFFFFFFFFFFFFFFFFFFFF AND DUP2 PUSH20 0xFFFFFFFFFFFFFFFFFFFFFFFFFFFFFFFFFFFFFFFF AND EQ JUMPDEST PUSH2 0x1A38 JUMPI PUSH1 0x40 MLOAD PUSH32 0x8C379A000000000000000000000000000000000000000000000000000000000 DUP2 MSTORE PUSH1 0x4 ADD PUSH2 0x1A2F SWAP1 PUSH2 0x4569 JUMP JUMPDEST PUSH1 0x40 MLOAD DUP1 SWAP2 SUB SWAP1 REVERT JUMPDEST PUSH2 0x1A42 DUP5 DUP5 PUSH2 0x26D0 JUMP JUMPDEST POP POP POP POP JUMP JUMPDEST PUSH0 DUP3 PUSH1 0x1 DUP1 ISZERO PUSH2 0x1A9F JUMPI PUSH2 0x1A5B DUP3 PUSH2 0x158E JUMP JUMPDEST PUSH2 0x1A9A JUMPI PUSH1 0x40 MLOAD PUSH32 0x8C379A000000000000000000000000000000000000000000000000000000000 DUP2 MSTORE PUSH1 0x4 ADD PUSH2 0x1A91 SWAP1 PUSH2 0x4499 JUMP JUMPDEST PUSH1 0x40 MLOAD DUP1 SWAP2 SUB SWAP1 REVERT JUMPDEST PUSH2 0x1AE9 JUMP JUMPDEST PUSH2 0x1AA8 DUP3 PUSH2 0x158E JUMP JUMPDEST ISZERO PUSH2 0x1AE8 JUMPI PUSH1 0x40 MLOAD PUSH32 0x8C379A000000000000000000000000000000000000000000000000000000000 DUP2 MSTORE PUSH1 0x4 ADD PUSH2 0x1ADF SWAP1 PUSH2 0x4501 JUMP JUMPDEST PUSH1 0x40 MLOAD DUP1 SWAP2 SUB SWAP1 REVERT JUMPDEST JUMPDEST PUSH2 0x1AF1 PUSH2 0x1DBA JUMP JUMPDEST PUSH0 ADD PUSH0 DUP8 PUSH20 0xFFFFFFFFFFFFFFFFFFFFFFFFFFFFFFFFFFFFFFFF AND PUSH20 0xFFFFFFFFFFFFFFFFFFFFFFFFFFFFFFFFFFFFFFFF AND DUP2 MSTORE PUSH1 0x20 ADD SWAP1 DUP2 MSTORE PUSH1 0x20 ADD PUSH0 KECCAK256 PUSH0 DUP7 PUSH8 0xFFFFFFFFFFFFFFFF AND PUSH8 0xFFFFFFFFFFFFFFFF AND DUP2 MSTORE PUSH1 0x20 ADD SWAP1 DUP2 MSTORE PUSH1 0x20 ADD PUSH0 KECCAK256 PUSH1 0x1 ADD DUP5 PUSH1 0x40 MLOAD PUSH2 0x1B62 SWAP2 SWAP1 PUSH2 0x484F JUMP JUMPDEST SWAP1 DUP2 MSTORE PUSH1 0x20 ADD PUSH1 0x40 MLOAD DUP1 SWAP2 SUB SWAP1 KECCAK256 SLOAD SWAP3 POP POP POP SWAP4 SWAP3 POP POP POP JUMP JUMPDEST PUSH0 PUSH0 PUSH2 0x1B86 PUSH2 0x27E6 JUMP JUMPDEST SWAP1 POP DUP1 PUSH0 ADD PUSH0 SWAP1 SLOAD SWAP1 PUSH2 0x100 EXP SWAP1 DIV PUSH20 0xFFFFFFFFFFFFFFFFFFFFFFFFFFFFFFFFFFFFFFFF AND SWAP2 POP POP SWAP1 JUMP JUMPDEST PUSH2 0x1BB9 PUSH2 0x1DE1 JUMP JUMPDEST PUSH0 PUSH2 0x1BC2 PUSH2 0x27E6 JUMP JUMPDEST SWAP1 POP DUP2 DUP2 PUSH0 ADD PUSH0 PUSH2 0x100 EXP DUP2 SLOAD DUP2 PUSH20 0xFFFFFFFFFFFFFFFFFFFFFFFFFFFFFFFFFFFFFFFF MUL NOT AND SWAP1 DUP4 PUSH20 0xFFFFFFFFFFFFFFFFFFFFFFFFFFFFFFFFFFFFFFFF AND MUL OR SWAP1 SSTORE POP DUP2 PUSH20 0xFFFFFFFFFFFFFFFFFFFFFFFFFFFFFFFFFFFFFFFF AND PUSH2 0x1C24 PUSH2 0x145C JUMP JUMPDEST PUSH20 0xFFFFFFFFFFFFFFFFFFFFFFFFFFFFFFFFFFFFFFFF AND PUSH32 0x38D16B8CAC22D99FC7C124B9CD0DE2D3FA1FAEF420BFE791D8C362D765E22700 PUSH1 0x40 MLOAD PUSH1 0x40 MLOAD DUP1 SWAP2 SUB SWAP1 LOG3 POP POP JUMP JUMPDEST PUSH1 0x40 MLOAD DUP1 PUSH1 0x40 ADD PUSH1 0x40 MSTORE DUP1 PUSH1 0x5 DUP2 MSTORE PUSH1 0x20 ADD PUSH32 0x312E312E31000000000000000000000000000000000000000000000000000000 DUP2 MSTORE POP DUP2 JUMP JUMPDEST PUSH0 PUSH32 0x70325635D67D74932012FA921CCB2F335D3B1D69E3A487F50D001CC65F531600 SWAP1 POP SWAP1 JUMP JUMPDEST PUSH0 CALLER SWAP1 POP SWAP1 JUMP JUMPDEST DUP1 PUSH1 0x1 DUP1 ISZERO PUSH2 0x1D27 JUMPI PUSH2 0x1CE3 DUP3 PUSH2 0x158E JUMP JUMPDEST PUSH2 0x1D22 JUMPI PUSH1 0x40 MLOAD PUSH32 0x8C379A000000000000000000000000000000000000000000000000000000000 DUP2 MSTORE PUSH1 0x4 ADD PUSH2 0x1D19 SWAP1 PUSH2 0x4499 JUMP JUMPDEST PUSH1 0x40 MLOAD DUP1 SWAP2 SUB SWAP1 REVERT JUMPDEST PUSH2 0x1D71 JUMP JUMPDEST PUSH2 0x1D30 DUP3 PUSH2 0x158E JUMP JUMPDEST ISZERO PUSH2 0x1D70 JUMPI PUSH1 0x40 MLOAD PUSH32 0x8C379A000000000000000000000000000000000000000000000000000000000 DUP2 MSTORE PUSH1 0x4 ADD PUSH2 0x1D67 SWAP1 PUSH2 0x4501 JUMP JUMPDEST PUSH1 0x40 MLOAD DUP1 SWAP2 SUB SWAP1 REVERT JUMPDEST JUMPDEST PUSH0 PUSH2 0x1D7A PUSH2 0x1CA3 JUMP JUMPDEST PUSH0 ADD PUSH0 DUP6 PUSH8 0xFFFFFFFFFFFFFFFF AND PUSH8 0xFFFFFFFFFFFFFFFF AND DUP2 MSTORE PUSH1 0x20 ADD SWAP1 DUP2 MSTORE PUSH1 0x20 ADD PUSH0 KECCAK256 PUSH0 PUSH2 0x100 EXP DUP2 SLOAD DUP2 PUSH1 0xFF MUL NOT AND SWAP1 DUP4 ISZERO ISZERO MUL OR SWAP1 SSTORE POP POP POP POP JUMP JUMPDEST PUSH0 PUSH32 0x512D18C55869273FEC77E70D8A8586E3FB133E90F1DB24C6BCF4FF3506EF6A00 SWAP1 POP SWAP1 JUMP JUMPDEST PUSH2 0x1DE9 PUSH2 0x1CCA JUMP JUMPDEST PUSH20 0xFFFFFFFFFFFFFFFFFFFFFFFFFFFFFFFFFFFFFFFF AND PUSH2 0x1E07 PUSH2 0x145C JUMP JUMPDEST PUSH20 0xFFFFFFFFFFFFFFFFFFFFFFFFFFFFFFFFFFFFFFFF AND EQ PUSH2 0x1E66 JUMPI PUSH2 0x1E2A PUSH2 0x1CCA JUMP JUMPDEST PUSH1 0x40 MLOAD PUSH32 0x118CDAA700000000000000000000000000000000000000000000000000000000 DUP2 MSTORE PUSH1 0x4 ADD PUSH2 0x1E5D SWAP2 SWAP1 PUSH2 0x334E JUMP JUMPDEST PUSH1 0x40 MLOAD DUP1 SWAP2 SUB SWAP1 REVERT JUMPDEST JUMP JUMPDEST DUP1 PUSH2 0x1E71 PUSH2 0x1DBA JUMP JUMPDEST PUSH1 0x3 ADD PUSH0 PUSH2 0x100 EXP DUP2 SLOAD DUP2 PUSH20 0xFFFFFFFFFFFFFFFFFFFFFFFFFFFFFFFFFFFFFFFF MUL NOT AND SWAP1 DUP4 PUSH20 0xFFFFFFFFFFFFFFFFFFFFFFFFFFFFFFFFFFFFFFFF AND MUL OR SWAP1 SSTORE POP POP JUMP JUMPDEST PUSH0 PUSH32 0xF0C57E16840DF040F15088DC2F81FE391C3923BEC73E23A9662EFC9C229C6A00 SWAP1 POP SWAP1 JUMP JUMPDEST PUSH2 0x1EE3 PUSH2 0x280D JUMP JUMPDEST PUSH2 0x1EEC DUP2 PUSH2 0x284D JUMP JUMPDEST POP JUMP JUMPDEST PUSH2 0x1EF7 PUSH2 0x280D JUMP JUMPDEST PUSH2 0x1F00 DUP2 PUSH2 0x28D1 JUMP JUMPDEST POP JUMP JUMPDEST PUSH1 0x60 PUSH0 PUSH2 0x1F0F DUP9 PUSH2 0x171B JUMP JUMPDEST PUSH1 0x20 ADD MLOAD SWAP1 POP PUSH2 0x1F1E DUP2 PUSH2 0x1491 JUMP JUMPDEST PUSH2 0x1F5D JUMPI PUSH1 0x40 MLOAD PUSH32 0x8C379A000000000000000000000000000000000000000000000000000000000 DUP2 MSTORE PUSH1 0x4 ADD PUSH2 0x1F54 SWAP1 PUSH2 0x48AF JUMP JUMPDEST PUSH1 0x40 MLOAD DUP1 SWAP2 SUB SWAP1 REVERT JUMPDEST PUSH2 0x1F6B DUP9 DUP9 DUP9 DUP9 DUP9 DUP9 PUSH2 0x28E5 JUMP JUMPDEST SWAP2 POP POP SWAP7 SWAP6 POP POP POP POP POP POP JUMP JUMPDEST DUP1 PUSH20 0xFFFFFFFFFFFFFFFFFFFFFFFFFFFFFFFFFFFFFFFF AND PUSH4 0x1FFC9A7 PUSH32 0x39DB6A4800000000000000000000000000000000000000000000000000000000 PUSH1 0x40 MLOAD DUP3 PUSH4 0xFFFFFFFF AND PUSH1 0xE0 SHL DUP2 MSTORE PUSH1 0x4 ADD PUSH2 0x1FD1 SWAP2 SWAP1 PUSH2 0x4907 JUMP JUMPDEST PUSH1 0x20 PUSH1 0x40 MLOAD DUP1 DUP4 SUB DUP2 DUP7 GAS STATICCALL ISZERO DUP1 ISZERO PUSH2 0x1FEC JUMPI RETURNDATASIZE PUSH0 PUSH0 RETURNDATACOPY RETURNDATASIZE PUSH0 REVERT JUMPDEST POP POP POP POP PUSH1 0x40 MLOAD RETURNDATASIZE PUSH1 0x1F NOT PUSH1 0x1F DUP3 ADD AND DUP3 ADD DUP1 PUSH1 0x40 MSTORE POP DUP2 ADD SWAP1 PUSH2 0x2010 SWAP2 SWAP1 PUSH2 0x494A JUMP JUMPDEST PUSH2 0x204F JUMPI PUSH1 0x40 MLOAD PUSH32 0x8C379A000000000000000000000000000000000000000000000000000000000 DUP2 MSTORE PUSH1 0x4 ADD PUSH2 0x2046 SWAP1 PUSH2 0x49E5 JUMP JUMPDEST PUSH1 0x40 MLOAD DUP1 SWAP2 SUB SWAP1 REVERT JUMPDEST PUSH1 0x1 PUSH2 0x2059 PUSH2 0x2377 JUMP JUMPDEST PUSH0 ADD PUSH0 DUP4 PUSH20 0xFFFFFFFFFFFFFFFFFFFFFFFFFFFFFFFFFFFFFFFF AND PUSH20 0xFFFFFFFFFFFFFFFFFFFFFFFFFFFFFFFFFFFFFFFF AND DUP2 MSTORE PUSH1 0x20 ADD SWAP1 DUP2 MSTORE PUSH1 0x20 ADD PUSH0 KECCAK256 PUSH0 PUSH2 0x100 EXP DUP2 SLOAD DUP2 PUSH1 0xFF MUL NOT AND SWAP1 DUP4 ISZERO ISZERO MUL OR SWAP1 SSTORE POP POP JUMP JUMPDEST PUSH0 PUSH0 PUSH0 DUP5 GT PUSH2 0x20F3 JUMPI PUSH1 0x40 MLOAD PUSH32 0x8C379A000000000000000000000000000000000000000000000000000000000 DUP2 MSTORE PUSH1 0x4 ADD PUSH2 0x20EA SWAP1 PUSH2 0x4A4D JUMP JUMPDEST PUSH1 0x40 MLOAD DUP1 SWAP2 SUB SWAP1 REVERT JUMPDEST DUP3 DUP5 GT ISZERO PUSH2 0x2136 JUMPI PUSH1 0x40 MLOAD PUSH32 0x8C379A000000000000000000000000000000000000000000000000000000000 DUP2 MSTORE PUSH1 0x4 ADD PUSH2 0x212D SWAP1 PUSH2 0x4AB5 JUMP JUMPDEST PUSH1 0x40 MLOAD DUP1 SWAP2 SUB SWAP1 REVERT JUMPDEST DUP6 DUP6 LT PUSH2 0x2178 JUMPI PUSH1 0x40 MLOAD PUSH32 0x8C379A000000000000000000000000000000000000000000000000000000000 DUP2 MSTORE PUSH1 0x4 ADD PUSH2 0x216F SWAP1 PUSH2 0x4B1D JUMP JUMPDEST PUSH1 0x40 MLOAD DUP1 SWAP2 SUB SWAP1 REVERT JUMPDEST PUSH0 DUP5 DUP7 PUSH2 0x2185 SWAP2 SWAP1 PUSH2 0x4B3B JUMP JUMPDEST SWAP1 POP DUP7 DUP2 GT ISZERO PUSH2 0x2193 JUMPI DUP7 SWAP1 POP JUMPDEST DUP6 DUP2 SWAP3 POP SWAP3 POP POP SWAP5 POP SWAP5 SWAP3 POP POP POP JUMP JUMPDEST PUSH0 PUSH2 0x21AC PUSH2 0x2377 JUMP JUMPDEST PUSH0 ADD PUSH0 DUP4 PUSH20 0xFFFFFFFFFFFFFFFFFFFFFFFFFFFFFFFFFFFFFFFF AND PUSH20 0xFFFFFFFFFFFFFFFFFFFFFFFFFFFFFFFFFFFFFFFF AND DUP2 MSTORE PUSH1 0x20 ADD SWAP1 DUP2 MSTORE PUSH1 0x20 ADD PUSH0 KECCAK256 PUSH0 PUSH2 0x100 EXP DUP2 SLOAD DUP2 PUSH1 0xFF MUL NOT AND SWAP1 DUP4 ISZERO ISZERO MUL OR SWAP1 SSTORE POP POP JUMP JUMPDEST PUSH0 PUSH32 0x6209BDC3799F5201408F7A7D4D471BB2A0100353E618451674B93F730B006A00 SWAP1 POP SWAP1 JUMP JUMPDEST PUSH0 PUSH2 0x2232 PUSH2 0x27E6 JUMP JUMPDEST SWAP1 POP DUP1 PUSH0 ADD PUSH0 PUSH2 0x100 EXP DUP2 SLOAD SWAP1 PUSH20 0xFFFFFFFFFFFFFFFFFFFFFFFFFFFFFFFFFFFFFFFF MUL NOT AND SWAP1 SSTORE PUSH2 0x2262 DUP3 PUSH2 0x294B JUMP JUMPDEST POP POP JUMP JUMPDEST DUP1 PUSH1 0x1 DUP1 ISZERO PUSH2 0x22BC JUMPI PUSH2 0x2278 DUP3 PUSH2 0x158E JUMP JUMPDEST PUSH2 0x22B7 JUMPI PUSH1 0x40 MLOAD PUSH32 0x8C379A000000000000000000000000000000000000000000000000000000000 DUP2 MSTORE PUSH1 0x4 ADD PUSH2 0x22AE SWAP1 PUSH2 0x4499 JUMP JUMPDEST PUSH1 0x40 MLOAD DUP1 SWAP2 SUB SWAP1 REVERT JUMPDEST PUSH2 0x2306 JUMP JUMPDEST PUSH2 0x22C5 DUP3 PUSH2 0x158E JUMP JUMPDEST ISZERO PUSH2 0x2305 JUMPI PUSH1 0x40 MLOAD PUSH32 0x8C379A000000000000000000000000000000000000000000000000000000000 DUP2 MSTORE PUSH1 0x4 ADD PUSH2 0x22FC SWAP1 PUSH2 0x4501 JUMP JUMPDEST PUSH1 0x40 MLOAD DUP1 SWAP2 SUB SWAP1 REVERT JUMPDEST JUMPDEST PUSH1 0x1 PUSH2 0x2310 PUSH2 0x1CA3 JUMP JUMPDEST PUSH0 ADD PUSH0 DUP6 PUSH8 0xFFFFFFFFFFFFFFFF AND PUSH8 0xFFFFFFFFFFFFFFFF AND DUP2 MSTORE PUSH1 0x20 ADD SWAP1 DUP2 MSTORE PUSH1 0x20 ADD PUSH0 KECCAK256 PUSH0 PUSH2 0x100 EXP DUP2 SLOAD DUP2 PUSH1 0xFF MUL NOT AND SWAP1 DUP4 ISZERO ISZERO MUL OR SWAP1 SSTORE POP POP POP POP JUMP JUMPDEST PUSH0 PUSH32 0x9016D09D72D40FDAE2FD8CEAC6B6234C7706214FD39C1CD1E609A0528C199300 SWAP1 POP SWAP1 JUMP JUMPDEST PUSH0 PUSH32 0x76AA24E3538905838CC74060B2AA4C054B1E474AACF44741879E1850715E9300 SWAP1 POP SWAP1 JUMP JUMPDEST DUP1 PUSH1 0x20 ADD PUSH1 0x20 DUP2 ADD SWAP1 PUSH2 0x23B1 SWAP2 SWAP1 PUSH2 0x39E6 JUMP JUMPDEST PUSH2 0x23BA DUP2 PUSH2 0x1491 JUMP JUMPDEST PUSH2 0x23F9 JUMPI PUSH1 0x40 MLOAD PUSH32 0x8C379A000000000000000000000000000000000000000000000000000000000 DUP2 MSTORE PUSH1 0x4 ADD PUSH2 0x23F0 SWAP1 PUSH2 0x48AF JUMP JUMPDEST PUSH1 0x40 MLOAD DUP1 SWAP2 SUB SWAP1 REVERT JUMPDEST PUSH2 0x2403 DUP4 DUP4 PUSH2 0x2A1C JUMP JUMPDEST POP POP POP JUMP JUMPDEST PUSH0 PUSH2 0x2411 PUSH2 0x1DBA JUMP JUMPDEST SWAP1 POP DUP1 PUSH1 0x3 ADD PUSH0 SWAP1 SLOAD SWAP1 PUSH2 0x100 EXP SWAP1 DIV PUSH20 0xFFFFFFFFFFFFFFFFFFFFFFFFFFFFFFFFFFFFFFFF AND PUSH20 0xFFFFFFFFFFFFFFFFFFFFFFFFFFFFFFFFFFFFFFFF AND PUSH4 0xE28D24B0 DUP4 PUSH1 0x40 MLOAD DUP3 PUSH4 0xFFFFFFFF AND PUSH1 0xE0 SHL DUP2 MSTORE PUSH1 0x4 ADD PUSH2 0x246F SWAP2 SWAP1 PUSH2 0x4BA6 JUMP JUMPDEST PUSH0 PUSH1 0x40 MLOAD DUP1 DUP4 SUB DUP2 PUSH0 DUP8 DUP1 EXTCODESIZE ISZERO DUP1 ISZERO PUSH2 0x2486 JUMPI PUSH0 PUSH0 REVERT JUMPDEST POP GAS CALL ISZERO DUP1 ISZERO PUSH2 0x2498 JUMPI RETURNDATASIZE PUSH0 PUSH0 RETURNDATACOPY RETURNDATASIZE PUSH0 REVERT JUMPDEST POP POP POP POP PUSH0 PUSH0 SWAP1 POP JUMPDEST DUP4 MLOAD DUP2 LT ISZERO PUSH2 0x265D JUMPI PUSH0 DUP5 DUP3 DUP2 MLOAD DUP2 LT PUSH2 0x24BE JUMPI PUSH2 0x24BD PUSH2 0x42E5 JUMP JUMPDEST JUMPDEST PUSH1 0x20 MUL PUSH1 0x20 ADD ADD MLOAD SWAP1 POP PUSH0 PUSH2 0x24D1 PUSH2 0x1CCA JUMP JUMPDEST SWAP1 POP PUSH0 PUSH2 0x24E0 DUP4 PUSH0 ADD MLOAD PUSH2 0x171B JUMP JUMPDEST SWAP1 POP PUSH0 DUP2 PUSH1 0x20 ADD MLOAD PUSH20 0xFFFFFFFFFFFFFFFFFFFFFFFFFFFFFFFFFFFFFFFF AND PUSH4 0xD6614A6B DUP6 PUSH1 0x20 ADD MLOAD DUP5 PUSH1 0x40 ADD MLOAD DUP7 DUP11 PUSH1 0x3 ADD PUSH0 SWAP1 SLOAD SWAP1 PUSH2 0x100 EXP SWAP1 DIV PUSH20 0xFFFFFFFFFFFFFFFFFFFFFFFFFFFFFFFFFFFFFFFF AND PUSH1 0x40 MLOAD DUP6 PUSH4 0xFFFFFFFF AND PUSH1 0xE0 SHL DUP2 MSTORE PUSH1 0x4 ADD PUSH2 0x2551 SWAP5 SWAP4 SWAP3 SWAP2 SWAP1 PUSH2 0x4BE6 JUMP JUMPDEST PUSH0 PUSH1 0x40 MLOAD DUP1 DUP4 SUB DUP2 PUSH0 DUP8 GAS CALL ISZERO DUP1 ISZERO PUSH2 0x256C JUMPI RETURNDATASIZE PUSH0 PUSH0 RETURNDATACOPY RETURNDATASIZE PUSH0 REVERT JUMPDEST POP POP POP POP PUSH1 0x40 MLOAD RETURNDATASIZE PUSH0 DUP3 RETURNDATACOPY RETURNDATASIZE PUSH1 0x1F NOT PUSH1 0x1F DUP3 ADD AND DUP3 ADD DUP1 PUSH1 0x40 MSTORE POP DUP2 ADD SWAP1 PUSH2 0x2594 SWAP2 SWAP1 PUSH2 0x4E00 JUMP JUMPDEST SWAP1 POP DUP6 PUSH20 0x0 PUSH4 0xB2394C60 SWAP1 SWAP2 DUP6 DUP8 PUSH0 ADD MLOAD DUP6 PUSH1 0x40 MLOAD DUP6 PUSH4 0xFFFFFFFF AND PUSH1 0xE0 SHL DUP2 MSTORE PUSH1 0x4 ADD PUSH2 0x25D8 SWAP5 SWAP4 SWAP3 SWAP2 SWAP1 PUSH2 0x4FB8 JUMP JUMPDEST PUSH0 PUSH1 0x40 MLOAD DUP1 DUP4 SUB DUP2 DUP7 DUP1 EXTCODESIZE ISZERO DUP1 ISZERO PUSH2 0x25EE JUMPI PUSH0 PUSH0 REVERT JUMPDEST POP GAS DELEGATECALL ISZERO DUP1 ISZERO PUSH2 0x2600 JUMPI RETURNDATASIZE PUSH0 PUSH0 RETURNDATACOPY RETURNDATASIZE PUSH0 REVERT JUMPDEST POP POP POP POP PUSH0 DUP5 PUSH1 0x40 ADD MLOAD MLOAD GT ISZERO PUSH2 0x264C JUMPI PUSH1 0x40 MLOAD PUSH32 0x8C379A000000000000000000000000000000000000000000000000000000000 DUP2 MSTORE PUSH1 0x4 ADD PUSH2 0x2643 SWAP1 PUSH2 0x504C JUMP JUMPDEST PUSH1 0x40 MLOAD DUP1 SWAP2 SUB SWAP1 REVERT JUMPDEST POP POP POP POP DUP1 DUP1 PUSH1 0x1 ADD SWAP2 POP POP PUSH2 0x24A1 JUMP JUMPDEST POP POP POP POP JUMP JUMPDEST PUSH0 PUSH2 0x266D DUP7 PUSH2 0x171B JUMP JUMPDEST PUSH1 0x20 ADD MLOAD SWAP1 POP PUSH2 0x267C DUP2 PUSH2 0x1491 JUMP JUMPDEST PUSH2 0x26BB JUMPI PUSH1 0x40 MLOAD PUSH32 0x8C379A000000000000000000000000000000000000000000000000000000000 DUP2 MSTORE PUSH1 0x4 ADD PUSH2 0x26B2 SWAP1 PUSH2 0x48AF JUMP JUMPDEST PUSH1 0x40 MLOAD DUP1 SWAP2 SUB SWAP1 REVERT JUMPDEST PUSH2 0x26C8 DUP7 DUP7 DUP7 DUP7 DUP7 PUSH2 0x2A3B JUMP JUMPDEST POP POP POP POP POP POP JUMP JUMPDEST DUP2 PUSH1 0x1 DUP1 ISZERO PUSH2 0x2726 JUMPI PUSH2 0x26E2 DUP3 PUSH2 0x158E JUMP JUMPDEST PUSH2 0x2721 JUMPI PUSH1 0x40 MLOAD PUSH32 0x8C379A000000000000000000000000000000000000000000000000000000000 DUP2 MSTORE PUSH1 0x4 ADD PUSH2 0x2718 SWAP1 PUSH2 0x4499 JUMP JUMPDEST PUSH1 0x40 MLOAD DUP1 SWAP2 SUB SWAP1 REVERT JUMPDEST PUSH2 0x2770 JUMP JUMPDEST PUSH2 0x272F DUP3 PUSH2 0x158E JUMP JUMPDEST ISZERO PUSH2 0x276F JUMPI PUSH1 0x40 MLOAD PUSH32 0x8C379A000000000000000000000000000000000000000000000000000000000 DUP2 MSTORE PUSH1 0x4 ADD PUSH2 0x2766 SWAP1 PUSH2 0x4501 JUMP JUMPDEST PUSH1 0x40 MLOAD DUP1 SWAP2 SUB SWAP1 REVERT JUMPDEST JUMPDEST PUSH0 PUSH2 0x2779 PUSH2 0x2202 JUMP JUMPDEST SWAP1 POP DUP4 DUP2 PUSH0 ADD PUSH0 DUP8 PUSH8 0xFFFFFFFFFFFFFFFF AND PUSH8 0xFFFFFFFFFFFFFFFF AND DUP2 MSTORE PUSH1 0x20 ADD SWAP1 DUP2 MSTORE PUSH1 0x20 ADD PUSH0 KECCAK256 PUSH0 PUSH2 0x100 EXP DUP2 SLOAD DUP2 PUSH20 0xFFFFFFFFFFFFFFFFFFFFFFFFFFFFFFFFFFFFFFFF MUL NOT AND SWAP1 DUP4 PUSH20 0xFFFFFFFFFFFFFFFFFFFFFFFFFFFFFFFFFFFFFFFF AND MUL OR SWAP1 SSTORE POP POP POP POP POP POP JUMP JUMPDEST PUSH0 PUSH32 0x237E158222E3E6968B72B9DB0D8043AACF074AD9F650F0D1606B4D82EE432C00 SWAP1 POP SWAP1 JUMP JUMPDEST PUSH2 0x2815 PUSH2 0x2A99 JUMP JUMPDEST PUSH2 0x284B JUMPI PUSH1 0x40 MLOAD PUSH32 0xD7E6BCF800000000000000000000000000000000000000000000000000000000 DUP2 MSTORE PUSH1 0x4 ADD PUSH1 0x40 MLOAD DUP1 SWAP2 SUB SWAP1 REVERT JUMPDEST JUMP JUMPDEST PUSH2 0x2855 PUSH2 0x280D JUMP JUMPDEST PUSH0 PUSH20 0xFFFFFFFFFFFFFFFFFFFFFFFFFFFFFFFFFFFFFFFF AND DUP2 PUSH20 0xFFFFFFFFFFFFFFFFFFFFFFFFFFFFFFFFFFFFFFFF AND SUB PUSH2 0x28C5 JUMPI PUSH0 PUSH1 0x40 MLOAD PUSH32 0x1E4FBDF700000000000000000000000000000000000000000000000000000000 DUP2 MSTORE PUSH1 0x4 ADD PUSH2 0x28BC SWAP2 SWAP1 PUSH2 0x334E JUMP JUMPDEST PUSH1 0x40 MLOAD DUP1 SWAP2 SUB SWAP1 REVERT JUMPDEST PUSH2 0x28CE DUP2 PUSH2 0x2229 JUMP JUMPDEST POP JUMP JUMPDEST PUSH2 0x28D9 PUSH2 0x280D JUMP JUMPDEST PUSH2 0x28E2 DUP2 PUSH2 0x1E68 JUMP JUMPDEST POP JUMP JUMPDEST PUSH1 0x60 DUP7 PUSH2 0x28F1 DUP2 PUSH2 0x817 JUMP JUMPDEST PUSH2 0x2930 JUMPI PUSH1 0x40 MLOAD PUSH32 0x8C379A000000000000000000000000000000000000000000000000000000000 DUP2 MSTORE PUSH1 0x4 ADD PUSH2 0x2927 SWAP1 PUSH2 0x50B4 JUMP JUMPDEST PUSH1 0x40 MLOAD DUP1 SWAP2 SUB SWAP1 REVERT JUMPDEST PUSH2 0x293E DUP9 DUP9 DUP9 DUP9 DUP9 DUP9 PUSH2 0x2AB7 JUMP JUMPDEST SWAP2 POP POP SWAP7 SWAP6 POP POP POP POP POP POP JUMP JUMPDEST PUSH0 PUSH2 0x2954 PUSH2 0x2350 JUMP JUMPDEST SWAP1 POP PUSH0 DUP2 PUSH0 ADD PUSH0 SWAP1 SLOAD SWAP1 PUSH2 0x100 EXP SWAP1 DIV PUSH20 0xFFFFFFFFFFFFFFFFFFFFFFFFFFFFFFFFFFFFFFFF AND SWAP1 POP DUP3 DUP3 PUSH0 ADD PUSH0 PUSH2 0x100 EXP DUP2 SLOAD DUP2 PUSH20 0xFFFFFFFFFFFFFFFFFFFFFFFFFFFFFFFFFFFFFFFF MUL NOT AND SWAP1 DUP4 PUSH20 0xFFFFFFFFFFFFFFFFFFFFFFFFFFFFFFFFFFFFFFFF AND MUL OR SWAP1 SSTORE POP DUP3 PUSH20 0xFFFFFFFFFFFFFFFFFFFFFFFFFFFFFFFFFFFFFFFF AND DUP2 PUSH20 0xFFFFFFFFFFFFFFFFFFFFFFFFFFFFFFFFFFFFFFFF AND PUSH32 0x8BE0079C531659141344CD1FD0A4F28419497F9722A3DAAFE3B4186F6B6457E0 PUSH1 0x40 MLOAD PUSH1 0x40 MLOAD DUP1 SWAP2 SUB SWAP1 LOG3 POP POP POP JUMP JUMPDEST PUSH2 0x2A26 DUP3 DUP3 PUSH2 0x2C45 JUMP JUMPDEST PUSH2 0x2A37 DUP3 PUSH2 0x2A32 PUSH2 0x1CCA JUMP JUMPDEST PUSH2 0x26D0 JUMP JUMPDEST POP POP JUMP JUMPDEST DUP5 PUSH2 0x2A45 DUP2 PUSH2 0x817 JUMP JUMPDEST PUSH2 0x2A84 JUMPI PUSH1 0x40 MLOAD PUSH32 0x8C379A000000000000000000000000000000000000000000000000000000000 DUP2 MSTORE PUSH1 0x4 ADD PUSH2 0x2A7B SWAP1 PUSH2 0x50B4 JUMP JUMPDEST PUSH1 0x40 MLOAD DUP1 SWAP2 SUB SWAP1 REVERT JUMPDEST PUSH2 0x2A91 DUP7 DUP7 DUP7 DUP7 DUP7 PUSH2 0x2D83 JUMP JUMPDEST POP POP POP POP POP POP JUMP JUMPDEST PUSH0 PUSH2 0x2AA2 PUSH2 0x1EB4 JUMP JUMPDEST PUSH0 ADD PUSH1 0x8 SWAP1 SLOAD SWAP1 PUSH2 0x100 EXP SWAP1 DIV PUSH1 0xFF AND SWAP1 POP SWAP1 JUMP JUMPDEST PUSH1 0x60 DUP7 PUSH1 0x1 DUP1 ISZERO PUSH2 0x2B0F JUMPI PUSH2 0x2ACB DUP3 PUSH2 0x158E JUMP JUMPDEST PUSH2 0x2B0A JUMPI PUSH1 0x40 MLOAD PUSH32 0x8C379A000000000000000000000000000000000000000000000000000000000 DUP2 MSTORE PUSH1 0x4 ADD PUSH2 0x2B01 SWAP1 PUSH2 0x4499 JUMP JUMPDEST PUSH1 0x40 MLOAD DUP1 SWAP2 SUB SWAP1 REVERT JUMPDEST PUSH2 0x2B59 JUMP JUMPDEST PUSH2 0x2B18 DUP3 PUSH2 0x158E JUMP JUMPDEST ISZERO PUSH2 0x2B58 JUMPI PUSH1 0x40 MLOAD PUSH32 0x8C379A000000000000000000000000000000000000000000000000000000000 DUP2 MSTORE PUSH1 0x4 ADD PUSH2 0x2B4F SWAP1 PUSH2 0x4501 JUMP JUMPDEST PUSH1 0x40 MLOAD DUP1 SWAP2 SUB SWAP1 REVERT JUMPDEST JUMPDEST PUSH0 PUSH2 0x2B62 PUSH2 0x1DBA JUMP JUMPDEST PUSH1 0x1 ADD PUSH0 DUP12 PUSH8 0xFFFFFFFFFFFFFFFF AND PUSH8 0xFFFFFFFFFFFFFFFF AND DUP2 MSTORE PUSH1 0x20 ADD SWAP1 DUP2 MSTORE PUSH1 0x20 ADD PUSH0 KECCAK256 SWAP1 POP DUP1 PUSH1 0x1 ADD PUSH0 SWAP1 SLOAD SWAP1 PUSH2 0x100 EXP SWAP1 DIV PUSH20 0xFFFFFFFFFFFFFFFFFFFFFFFFFFFFFFFFFFFFFFFF AND PUSH20 0xFFFFFFFFFFFFFFFFFFFFFFFFFFFFFFFFFFFFFFFF AND PUSH4 0xF177A69E DUP11 DUP11 DUP11 DUP11 DUP7 PUSH1 0x2 ADD DUP12 PUSH1 0x40 MLOAD DUP8 PUSH4 0xFFFFFFFF AND PUSH1 0xE0 SHL DUP2 MSTORE PUSH1 0x4 ADD PUSH2 0x2BF3 SWAP7 SWAP6 SWAP5 SWAP4 SWAP3 SWAP2 SWAP1 PUSH2 0x5382 JUMP JUMPDEST PUSH0 PUSH1 0x40 MLOAD DUP1 DUP4 SUB DUP2 PUSH0 DUP8 GAS CALL ISZERO DUP1 ISZERO PUSH2 0x2C0E JUMPI RETURNDATASIZE PUSH0 PUSH0 RETURNDATACOPY RETURNDATASIZE PUSH0 REVERT JUMPDEST POP POP POP POP PUSH1 0x40 MLOAD RETURNDATASIZE PUSH0 DUP3 RETURNDATACOPY RETURNDATASIZE PUSH1 0x1F NOT PUSH1 0x1F DUP3 ADD AND DUP3 ADD DUP1 PUSH1 0x40 MSTORE POP DUP2 ADD SWAP1 PUSH2 0x2C36 SWAP2 SWAP1 PUSH2 0x5539 JUMP JUMPDEST SWAP4 POP POP POP POP SWAP7 SWAP6 POP POP POP POP POP POP JUMP JUMPDEST DUP2 PUSH0 DUP1 ISZERO PUSH2 0x2C9A JUMPI PUSH2 0x2C56 DUP3 PUSH2 0x158E JUMP JUMPDEST PUSH2 0x2C95 JUMPI PUSH1 0x40 MLOAD PUSH32 0x8C379A000000000000000000000000000000000000000000000000000000000 DUP2 MSTORE PUSH1 0x4 ADD PUSH2 0x2C8C SWAP1 PUSH2 0x4499 JUMP JUMPDEST PUSH1 0x40 MLOAD DUP1 SWAP2 SUB SWAP1 REVERT JUMPDEST PUSH2 0x2CE4 JUMP JUMPDEST PUSH2 0x2CA3 DUP3 PUSH2 0x158E JUMP JUMPDEST ISZERO PUSH2 0x2CE3 JUMPI PUSH1 0x40 MLOAD PUSH32 0x8C379A000000000000000000000000000000000000000000000000000000000 DUP2 MSTORE PUSH1 0x4 ADD PUSH2 0x2CDA SWAP1 PUSH2 0x4501 JUMP JUMPDEST PUSH1 0x40 MLOAD DUP1 SWAP2 SUB SWAP1 REVERT JUMPDEST JUMPDEST PUSH0 PUSH2 0x2CED PUSH2 0x1DBA JUMP JUMPDEST SWAP1 POP DUP4 DUP2 PUSH1 0x1 ADD PUSH0 DUP8 PUSH8 0xFFFFFFFFFFFFFFFF AND PUSH8 0xFFFFFFFFFFFFFFFF AND DUP2 MSTORE PUSH1 0x20 ADD SWAP1 DUP2 MSTORE PUSH1 0x20 ADD PUSH0 KECCAK256 DUP2 DUP2 PUSH2 0x2D23 SWAP2 SWAP1 PUSH2 0x5A33 JUMP JUMPDEST SWAP1 POP POP DUP1 PUSH1 0x2 ADD DUP6 SWAP1 DUP1 PUSH1 0x1 DUP2 SLOAD ADD DUP1 DUP3 SSTORE DUP1 SWAP2 POP POP PUSH1 0x1 SWAP1 SUB SWAP1 PUSH0 MSTORE PUSH1 0x20 PUSH0 KECCAK256 SWAP1 PUSH1 0x4 SWAP2 DUP3 DUP3 DIV ADD SWAP2 SWAP1 MOD PUSH1 0x8 MUL SWAP1 SWAP2 SWAP1 SWAP2 SWAP1 SWAP2 PUSH2 0x100 EXP DUP2 SLOAD DUP2 PUSH8 0xFFFFFFFFFFFFFFFF MUL NOT AND SWAP1 DUP4 PUSH8 0xFFFFFFFFFFFFFFFF AND MUL OR SWAP1 SSTORE POP POP POP POP POP POP JUMP JUMPDEST DUP5 PUSH1 0x1 DUP1 ISZERO PUSH2 0x2DD9 JUMPI PUSH2 0x2D95 DUP3 PUSH2 0x158E JUMP JUMPDEST PUSH2 0x2DD4 JUMPI PUSH1 0x40 MLOAD PUSH32 0x8C379A000000000000000000000000000000000000000000000000000000000 DUP2 MSTORE PUSH1 0x4 ADD PUSH2 0x2DCB SWAP1 PUSH2 0x4499 JUMP JUMPDEST PUSH1 0x40 MLOAD DUP1 SWAP2 SUB SWAP1 REVERT JUMPDEST PUSH2 0x2E23 JUMP JUMPDEST PUSH2 0x2DE2 DUP3 PUSH2 0x158E JUMP JUMPDEST ISZERO PUSH2 0x2E22 JUMPI PUSH1 0x40 MLOAD PUSH32 0x8C379A000000000000000000000000000000000000000000000000000000000 DUP2 MSTORE PUSH1 0x4 ADD PUSH2 0x2E19 SWAP1 PUSH2 0x4501 JUMP JUMPDEST PUSH1 0x40 MLOAD DUP1 SWAP2 SUB SWAP1 REVERT JUMPDEST JUMPDEST PUSH0 PUSH2 0x2E2C PUSH2 0x1CCA JUMP JUMPDEST SWAP1 POP PUSH0 PUSH2 0x2E37 PUSH2 0x1DBA JUMP JUMPDEST SWAP1 POP PUSH0 DUP2 PUSH1 0x1 ADD PUSH0 DUP12 PUSH8 0xFFFFFFFFFFFFFFFF AND PUSH8 0xFFFFFFFFFFFFFFFF AND DUP2 MSTORE PUSH1 0x20 ADD SWAP1 DUP2 MSTORE PUSH1 0x20 ADD PUSH0 KECCAK256 PUSH1 0x40 MLOAD DUP1 PUSH1 0x60 ADD PUSH1 0x40 MSTORE SWAP1 DUP2 PUSH0 DUP3 ADD DUP1 SLOAD PUSH2 0x2E7B SWAP1 PUSH2 0x4666 JUMP JUMPDEST DUP1 PUSH1 0x1F ADD PUSH1 0x20 DUP1 SWAP2 DIV MUL PUSH1 0x20 ADD PUSH1 0x40 MLOAD SWAP1 DUP2 ADD PUSH1 0x40 MSTORE DUP1 SWAP3 SWAP2 SWAP1 DUP2 DUP2 MSTORE PUSH1 0x20 ADD DUP3 DUP1 SLOAD PUSH2 0x2EA7 SWAP1 PUSH2 0x4666 JUMP JUMPDEST DUP1 ISZERO PUSH2 0x2EF2 JUMPI DUP1 PUSH1 0x1F LT PUSH2 0x2EC9 JUMPI PUSH2 0x100 DUP1 DUP4 SLOAD DIV MUL DUP4 MSTORE SWAP2 PUSH1 0x20 ADD SWAP2 PUSH2 0x2EF2 JUMP JUMPDEST DUP3 ADD SWAP2 SWAP1 PUSH0 MSTORE PUSH1 0x20 PUSH0 KECCAK256 SWAP1 JUMPDEST DUP2 SLOAD DUP2 MSTORE SWAP1 PUSH1 0x1 ADD SWAP1 PUSH1 0x20 ADD DUP1 DUP4 GT PUSH2 0x2ED5 JUMPI DUP3 SWAP1 SUB PUSH1 0x1F AND DUP3 ADD SWAP2 JUMPDEST POP POP POP POP POP DUP2 MSTORE PUSH1 0x20 ADD PUSH1 0x1 DUP3 ADD PUSH0 SWAP1 SLOAD SWAP1 PUSH2 0x100 EXP SWAP1 DIV PUSH20 0xFFFFFFFFFFFFFFFFFFFFFFFFFFFFFFFFFFFFFFFF AND PUSH20 0xFFFFFFFFFFFFFFFFFFFFFFFFFFFFFFFFFFFFFFFF AND PUSH20 0xFFFFFFFFFFFFFFFFFFFFFFFFFFFFFFFFFFFFFFFF AND DUP2 MSTORE PUSH1 0x20 ADD PUSH1 0x2 DUP3 ADD DUP1 SLOAD PUSH2 0x2F60 SWAP1 PUSH2 0x4666 JUMP JUMPDEST DUP1 PUSH1 0x1F ADD PUSH1 0x20 DUP1 SWAP2 DIV MUL PUSH1 0x20 ADD PUSH1 0x40 MLOAD SWAP1 DUP2 ADD PUSH1 0x40 MSTORE DUP1 SWAP3 SWAP2 SWAP1 DUP2 DUP2 MSTORE PUSH1 0x20 ADD DUP3 DUP1 SLOAD PUSH2 0x2F8C SWAP1 PUSH2 0x4666 JUMP JUMPDEST DUP1 ISZERO PUSH2 0x2FD7 JUMPI DUP1 PUSH1 0x1F LT PUSH2 0x2FAE JUMPI PUSH2 0x100 DUP1 DUP4 SLOAD DIV MUL DUP4 MSTORE SWAP2 PUSH1 0x20 ADD SWAP2 PUSH2 0x2FD7 JUMP JUMPDEST DUP3 ADD SWAP2 SWAP1 PUSH0 MSTORE PUSH1 0x20 PUSH0 KECCAK256 SWAP1 JUMPDEST DUP2 SLOAD DUP2 MSTORE SWAP1 PUSH1 0x1 ADD SWAP1 PUSH1 0x20 ADD DUP1 DUP4 GT PUSH2 0x2FBA JUMPI DUP3 SWAP1 SUB PUSH1 0x1F AND DUP3 ADD SWAP2 JUMPDEST POP POP POP POP POP DUP2 MSTORE POP POP SWAP1 POP PUSH0 DUP2 PUSH1 0x20 ADD MLOAD PUSH20 0xFFFFFFFFFFFFFFFFFFFFFFFFFFFFFFFFFFFFFFFF AND PUSH4 0xF177A69E DUP12 DUP12 DUP12 DUP12 DUP8 PUSH1 0x40 ADD MLOAD DUP11 PUSH1 0x40 MLOAD DUP8 PUSH4 0xFFFFFFFF AND PUSH1 0xE0 SHL DUP2 MSTORE PUSH1 0x4 ADD PUSH2 0x302E SWAP7 SWAP6 SWAP5 SWAP4 SWAP3 SWAP2 SWAP1 PUSH2 0x5A41 JUMP JUMPDEST PUSH0 PUSH1 0x40 MLOAD DUP1 DUP4 SUB DUP2 PUSH0 DUP8 GAS CALL ISZERO DUP1 ISZERO PUSH2 0x3049 JUMPI RETURNDATASIZE PUSH0 PUSH0 RETURNDATACOPY RETURNDATASIZE PUSH0 REVERT JUMPDEST POP POP POP POP PUSH1 0x40 MLOAD RETURNDATASIZE PUSH0 DUP3 RETURNDATACOPY RETURNDATASIZE PUSH1 0x1F NOT PUSH1 0x1F DUP3 ADD AND DUP3 ADD DUP1 PUSH1 0x40 MSTORE POP DUP2 ADD SWAP1 PUSH2 0x3071 SWAP2 SWAP1 PUSH2 0x5539 JUMP JUMPDEST SWAP1 POP DUP3 PUSH20 0x0 PUSH4 0xE48754AB SWAP1 SWAP2 DUP7 DUP15 DUP6 DUP16 PUSH1 0x40 MLOAD DUP7 PUSH4 0xFFFFFFFF AND PUSH1 0xE0 SHL DUP2 MSTORE PUSH1 0x4 ADD PUSH2 0x30B4 SWAP6 SWAP5 SWAP4 SWAP3 SWAP2 SWAP1 PUSH2 0x5C04 JUMP JUMPDEST PUSH0 PUSH1 0x40 MLOAD DUP1 DUP4 SUB DUP2 DUP7 DUP1 EXTCODESIZE ISZERO DUP1 ISZERO PUSH2 0x30CA JUMPI PUSH0 PUSH0 REVERT JUMPDEST POP GAS DELEGATECALL ISZERO DUP1 ISZERO PUSH2 0x30DC JUMPI RETURNDATASIZE PUSH0 PUSH0 RETURNDATACOPY RETURNDATASIZE PUSH0 REVERT JUMPDEST POP POP POP POP POP POP POP POP POP POP POP POP POP POP POP JUMP JUMPDEST PUSH1 0x40 MLOAD DUP1 PUSH1 0x60 ADD PUSH1 0x40 MSTORE DUP1 PUSH1 0x60 DUP2 MSTORE PUSH1 0x20 ADD PUSH0 PUSH20 0xFFFFFFFFFFFFFFFFFFFFFFFFFFFFFFFFFFFFFFFF AND DUP2 MSTORE PUSH1 0x20 ADD PUSH1 0x60 DUP2 MSTORE POP SWAP1 JUMP JUMPDEST PUSH1 0x40 MLOAD DUP1 PUSH1 0x80 ADD PUSH1 0x40 MSTORE DUP1 PUSH0 ISZERO ISZERO DUP2 MSTORE PUSH1 0x20 ADD PUSH1 0x60 DUP2 MSTORE PUSH1 0x20 ADD PUSH0 DUP2 MSTORE PUSH1 0x20 ADD PUSH0 DUP2 MSTORE POP SWAP1 JUMP JUMPDEST PUSH0 PUSH1 0x40 MLOAD SWAP1 POP SWAP1 JUMP JUMPDEST PUSH0 PUSH0 REVERT JUMPDEST PUSH0 PUSH0 REVERT JUMPDEST PUSH0 PUSH20 0xFFFFFFFFFFFFFFFFFFFFFFFFFFFFFFFFFFFFFFFF DUP3 AND SWAP1 POP SWAP2 SWAP1 POP JUMP JUMPDEST PUSH0 PUSH2 0x3184 DUP3 PUSH2 0x315B JUMP JUMPDEST SWAP1 POP SWAP2 SWAP1 POP JUMP JUMPDEST PUSH2 0x3194 DUP2 PUSH2 0x317A JUMP JUMPDEST DUP2 EQ PUSH2 0x319E JUMPI PUSH0 PUSH0 REVERT JUMPDEST POP JUMP JUMPDEST PUSH0 DUP2 CALLDATALOAD SWAP1 POP PUSH2 0x31AF DUP2 PUSH2 0x318B JUMP JUMPDEST SWAP3 SWAP2 POP POP JUMP JUMPDEST PUSH0 PUSH0 REVERT JUMPDEST PUSH0 PUSH0 REVERT JUMPDEST PUSH0 PUSH0 REVERT JUMPDEST PUSH0 PUSH0 DUP4 PUSH1 0x1F DUP5 ADD SLT PUSH2 0x31D6 JUMPI PUSH2 0x31D5 PUSH2 0x31B5 JUMP JUMPDEST JUMPDEST DUP3 CALLDATALOAD SWAP1 POP PUSH8 0xFFFFFFFFFFFFFFFF DUP2 GT ISZERO PUSH2 0x31F3 JUMPI PUSH2 0x31F2 PUSH2 0x31B9 JUMP JUMPDEST JUMPDEST PUSH1 0x20 DUP4 ADD SWAP2 POP DUP4 PUSH1 0x20 DUP3 MUL DUP4 ADD GT ISZERO PUSH2 0x320F JUMPI PUSH2 0x320E PUSH2 0x31BD JUMP JUMPDEST JUMPDEST SWAP3 POP SWAP3 SWAP1 POP JUMP JUMPDEST PUSH0 PUSH0 PUSH0 PUSH1 0x40 DUP5 DUP7 SUB SLT ISZERO PUSH2 0x322D JUMPI PUSH2 0x322C PUSH2 0x3153 JUMP JUMPDEST JUMPDEST PUSH0 PUSH2 0x323A DUP7 DUP3 DUP8 ADD PUSH2 0x31A1 JUMP JUMPDEST SWAP4 POP POP PUSH1 0x20 DUP5 ADD CALLDATALOAD PUSH8 0xFFFFFFFFFFFFFFFF DUP2 GT ISZERO PUSH2 0x325B JUMPI PUSH2 0x325A PUSH2 0x3157 JUMP JUMPDEST JUMPDEST PUSH2 0x3267 DUP7 DUP3 DUP8 ADD PUSH2 0x31C1 JUMP JUMPDEST SWAP3 POP SWAP3 POP POP SWAP3 POP SWAP3 POP SWAP3 JUMP JUMPDEST PUSH0 PUSH8 0xFFFFFFFFFFFFFFFF DUP3 AND SWAP1 POP SWAP2 SWAP1 POP JUMP JUMPDEST PUSH2 0x328F DUP2 PUSH2 0x3273 JUMP JUMPDEST DUP2 EQ PUSH2 0x3299 JUMPI PUSH0 PUSH0 REVERT JUMPDEST POP JUMP JUMPDEST PUSH0 DUP2 CALLDATALOAD SWAP1 POP PUSH2 0x32AA DUP2 PUSH2 0x3286 JUMP JUMPDEST SWAP3 SWAP2 POP POP JUMP JUMPDEST PUSH0 PUSH1 0x20 DUP3 DUP5 SUB SLT ISZERO PUSH2 0x32C5 JUMPI PUSH2 0x32C4 PUSH2 0x3153 JUMP JUMPDEST JUMPDEST PUSH0 PUSH2 0x32D2 DUP5 DUP3 DUP6 ADD PUSH2 0x329C JUMP JUMPDEST SWAP2 POP POP SWAP3 SWAP2 POP POP JUMP JUMPDEST PUSH0 DUP2 ISZERO ISZERO SWAP1 POP SWAP2 SWAP1 POP JUMP JUMPDEST PUSH2 0x32EF DUP2 PUSH2 0x32DB JUMP JUMPDEST DUP3 MSTORE POP POP JUMP JUMPDEST PUSH0 PUSH1 0x20 DUP3 ADD SWAP1 POP PUSH2 0x3308 PUSH0 DUP4 ADD DUP5 PUSH2 0x32E6 JUMP JUMPDEST SWAP3 SWAP2 POP POP JUMP JUMPDEST PUSH0 DUP2 SWAP1 POP SWAP2 SWAP1 POP JUMP JUMPDEST PUSH2 0x3320 DUP2 PUSH2 0x330E JUMP JUMPDEST DUP3 MSTORE POP POP JUMP JUMPDEST PUSH0 PUSH1 0x20 DUP3 ADD SWAP1 POP PUSH2 0x3339 PUSH0 DUP4 ADD DUP5 PUSH2 0x3317 JUMP JUMPDEST SWAP3 SWAP2 POP POP JUMP JUMPDEST PUSH2 0x3348 DUP2 PUSH2 0x317A JUMP JUMPDEST DUP3 MSTORE POP POP JUMP JUMPDEST PUSH0 PUSH1 0x20 DUP3 ADD SWAP1 POP PUSH2 0x3361 PUSH0 DUP4 ADD DUP5 PUSH2 0x333F JUMP JUMPDEST SWAP3 SWAP2 POP POP JUMP JUMPDEST PUSH0 PUSH2 0x3371 DUP3 PUSH2 0x317A JUMP JUMPDEST SWAP1 POP SWAP2 SWAP1 POP JUMP JUMPDEST PUSH2 0x3381 DUP2 PUSH2 0x3367 JUMP JUMPDEST DUP2 EQ PUSH2 0x338B JUMPI PUSH0 PUSH0 REVERT JUMPDEST POP JUMP JUMPDEST PUSH0 DUP2 CALLDATALOAD SWAP1 POP PUSH2 0x339C DUP2 PUSH2 0x3378 JUMP JUMPDEST SWAP3 SWAP2 POP POP JUMP JUMPDEST PUSH0 PUSH1 0x20 DUP3 DUP5 SUB SLT ISZERO PUSH2 0x33B7 JUMPI PUSH2 0x33B6 PUSH2 0x3153 JUMP JUMPDEST JUMPDEST PUSH0 PUSH2 0x33C4 DUP5 DUP3 DUP6 ADD PUSH2 0x338E JUMP JUMPDEST SWAP2 POP POP SWAP3 SWAP2 POP POP JUMP JUMPDEST PUSH0 PUSH0 PUSH1 0x40 DUP4 DUP6 SUB SLT ISZERO PUSH2 0x33E3 JUMPI PUSH2 0x33E2 PUSH2 0x3153 JUMP JUMPDEST JUMPDEST PUSH0 PUSH2 0x33F0 DUP6 DUP3 DUP7 ADD PUSH2 0x338E JUMP JUMPDEST SWAP3 POP POP PUSH1 0x20 PUSH2 0x3401 DUP6 DUP3 DUP7 ADD PUSH2 0x31A1 JUMP JUMPDEST SWAP2 POP POP SWAP3 POP SWAP3 SWAP1 POP JUMP JUMPDEST PUSH0 PUSH0 PUSH1 0x40 DUP4 DUP6 SUB SLT ISZERO PUSH2 0x3421 JUMPI PUSH2 0x3420 PUSH2 0x3153 JUMP JUMPDEST JUMPDEST PUSH0 PUSH2 0x342E DUP6 DUP3 DUP7 ADD PUSH2 0x31A1 JUMP JUMPDEST SWAP3 POP POP PUSH1 0x20 PUSH2 0x343F DUP6 DUP3 DUP7 ADD PUSH2 0x329C JUMP JUMPDEST SWAP2 POP POP SWAP3 POP SWAP3 SWAP1 POP JUMP JUMPDEST PUSH0 PUSH1 0x1F NOT PUSH1 0x1F DUP4 ADD AND SWAP1 POP SWAP2 SWAP1 POP JUMP JUMPDEST PUSH32 0x4E487B7100000000000000000000000000000000000000000000000000000000 PUSH0 MSTORE PUSH1 0x41 PUSH1 0x4 MSTORE PUSH1 0x24 PUSH0 REVERT JUMPDEST PUSH2 0x348F DUP3 PUSH2 0x3449 JUMP JUMPDEST DUP2 ADD DUP2 DUP2 LT PUSH8 0xFFFFFFFFFFFFFFFF DUP3 GT OR ISZERO PUSH2 0x34AE JUMPI PUSH2 0x34AD PUSH2 0x3459 JUMP JUMPDEST JUMPDEST DUP1 PUSH1 0x40 MSTORE POP POP POP JUMP JUMPDEST PUSH0 PUSH2 0x34C0 PUSH2 0x314A JUMP JUMPDEST SWAP1 POP PUSH2 0x34CC DUP3 DUP3 PUSH2 0x3486 JUMP JUMPDEST SWAP2 SWAP1 POP JUMP JUMPDEST PUSH0 PUSH8 0xFFFFFFFFFFFFFFFF DUP3 GT ISZERO PUSH2 0x34EB JUMPI PUSH2 0x34EA PUSH2 0x3459 JUMP JUMPDEST JUMPDEST PUSH1 0x20 DUP3 MUL SWAP1 POP PUSH1 0x20 DUP2 ADD SWAP1 POP SWAP2 SWAP1 POP JUMP JUMPDEST PUSH2 0x3505 DUP2 PUSH2 0x330E JUMP JUMPDEST DUP2 EQ PUSH2 0x350F JUMPI PUSH0 PUSH0 REVERT JUMPDEST POP JUMP JUMPDEST PUSH0 DUP2 CALLDATALOAD SWAP1 POP PUSH2 0x3520 DUP2 PUSH2 0x34FC JUMP JUMPDEST SWAP3 SWAP2 POP POP JUMP JUMPDEST PUSH0 PUSH2 0x3538 PUSH2 0x3533 DUP5 PUSH2 0x34D1 JUMP JUMPDEST PUSH2 0x34B7 JUMP JUMPDEST SWAP1 POP DUP1 DUP4 DUP3 MSTORE PUSH1 0x20 DUP3 ADD SWAP1 POP PUSH1 0x20 DUP5 MUL DUP4 ADD DUP6 DUP2 GT ISZERO PUSH2 0x355B JUMPI PUSH2 0x355A PUSH2 0x31BD JUMP JUMPDEST JUMPDEST DUP4 JUMPDEST DUP2 DUP2 LT ISZERO PUSH2 0x3584 JUMPI DUP1 PUSH2 0x3570 DUP9 DUP3 PUSH2 0x3512 JUMP JUMPDEST DUP5 MSTORE PUSH1 0x20 DUP5 ADD SWAP4 POP POP PUSH1 0x20 DUP2 ADD SWAP1 POP PUSH2 0x355D JUMP JUMPDEST POP POP POP SWAP4 SWAP3 POP POP POP JUMP JUMPDEST PUSH0 DUP3 PUSH1 0x1F DUP4 ADD SLT PUSH2 0x35A2 JUMPI PUSH2 0x35A1 PUSH2 0x31B5 JUMP JUMPDEST JUMPDEST DUP2 CALLDATALOAD PUSH2 0x35B2 DUP5 DUP3 PUSH1 0x20 DUP7 ADD PUSH2 0x3526 JUMP JUMPDEST SWAP2 POP POP SWAP3 SWAP2 POP POP JUMP JUMPDEST PUSH0 PUSH8 0xFFFFFFFFFFFFFFFF DUP3 GT ISZERO PUSH2 0x35D5 JUMPI PUSH2 0x35D4 PUSH2 0x3459 JUMP JUMPDEST JUMPDEST PUSH1 0x20 DUP3 MUL SWAP1 POP SWAP2 SWAP1 POP JUMP JUMPDEST PUSH0 PUSH2 0x35F2 PUSH2 0x35ED DUP5 PUSH2 0x35BB JUMP JUMPDEST PUSH2 0x34B7 JUMP JUMPDEST SWAP1 POP DUP1 PUSH1 0x20 DUP5 MUL DUP4 ADD DUP6 DUP2 GT ISZERO PUSH2 0x360C JUMPI PUSH2 0x360B PUSH2 0x31BD JUMP JUMPDEST JUMPDEST DUP4 JUMPDEST DUP2 DUP2 LT ISZERO PUSH2 0x3635 JUMPI DUP1 PUSH2 0x3621 DUP9 DUP3 PUSH2 0x3512 JUMP JUMPDEST DUP5 MSTORE PUSH1 0x20 DUP5 ADD SWAP4 POP POP PUSH1 0x20 DUP2 ADD SWAP1 POP PUSH2 0x360E JUMP JUMPDEST POP POP POP SWAP4 SWAP3 POP POP POP JUMP JUMPDEST PUSH0 DUP3 PUSH1 0x1F DUP4 ADD SLT PUSH2 0x3653 JUMPI PUSH2 0x3652 PUSH2 0x31B5 JUMP JUMPDEST JUMPDEST PUSH1 0x2 PUSH2 0x3660 DUP5 DUP3 DUP6 PUSH2 0x35E0 JUMP JUMPDEST SWAP2 POP POP SWAP3 SWAP2 POP POP JUMP JUMPDEST PUSH0 PUSH8 0xFFFFFFFFFFFFFFFF DUP3 GT ISZERO PUSH2 0x3683 JUMPI PUSH2 0x3682 PUSH2 0x3459 JUMP JUMPDEST JUMPDEST PUSH1 0x20 DUP3 MUL SWAP1 POP SWAP2 SWAP1 POP JUMP JUMPDEST PUSH0 PUSH2 0x36A0 PUSH2 0x369B DUP5 PUSH2 0x3669 JUMP JUMPDEST PUSH2 0x34B7 JUMP JUMPDEST SWAP1 POP DUP1 PUSH1 0x40 DUP5 MUL DUP4 ADD DUP6 DUP2 GT ISZERO PUSH2 0x36BA JUMPI PUSH2 0x36B9 PUSH2 0x31BD JUMP JUMPDEST JUMPDEST DUP4 JUMPDEST DUP2 DUP2 LT ISZERO PUSH2 0x36E3 JUMPI DUP1 PUSH2 0x36CF DUP9 DUP3 PUSH2 0x363F JUMP JUMPDEST DUP5 MSTORE PUSH1 0x20 DUP5 ADD SWAP4 POP POP PUSH1 0x40 DUP2 ADD SWAP1 POP PUSH2 0x36BC JUMP JUMPDEST POP POP POP SWAP4 SWAP3 POP POP POP JUMP JUMPDEST PUSH0 DUP3 PUSH1 0x1F DUP4 ADD SLT PUSH2 0x3701 JUMPI PUSH2 0x3700 PUSH2 0x31B5 JUMP JUMPDEST JUMPDEST PUSH1 0x2 PUSH2 0x370E DUP5 DUP3 DUP6 PUSH2 0x368E JUMP JUMPDEST SWAP2 POP POP SWAP3 SWAP2 POP POP JUMP JUMPDEST PUSH0 PUSH0 PUSH0 PUSH0 PUSH0 PUSH0 PUSH2 0x160 DUP8 DUP10 SUB SLT ISZERO PUSH2 0x3732 JUMPI PUSH2 0x3731 PUSH2 0x3153 JUMP JUMPDEST JUMPDEST PUSH0 PUSH2 0x373F DUP10 DUP3 DUP11 ADD PUSH2 0x329C JUMP JUMPDEST SWAP7 POP POP PUSH1 0x20 DUP8 ADD CALLDATALOAD PUSH8 0xFFFFFFFFFFFFFFFF DUP2 GT ISZERO PUSH2 0x3760 JUMPI PUSH2 0x375F PUSH2 0x3157 JUMP JUMPDEST JUMPDEST PUSH2 0x376C DUP10 DUP3 DUP11 ADD PUSH2 0x358E JUMP JUMPDEST SWAP6 POP POP PUSH1 0x40 PUSH2 0x377D DUP10 DUP3 DUP11 ADD PUSH2 0x363F JUMP JUMPDEST SWAP5 POP POP PUSH1 0x80 PUSH2 0x378E DUP10 DUP3 DUP11 ADD PUSH2 0x36ED JUMP JUMPDEST SWAP4 POP POP PUSH2 0x100 PUSH2 0x37A0 DUP10 DUP3 DUP11 ADD PUSH2 0x363F JUMP JUMPDEST SWAP3 POP POP PUSH2 0x140 PUSH2 0x37B2 DUP10 DUP3 DUP11 ADD PUSH2 0x31A1 JUMP JUMPDEST SWAP2 POP POP SWAP3 SWAP6 POP SWAP3 SWAP6 POP SWAP3 SWAP6 JUMP JUMPDEST PUSH0 DUP2 MLOAD SWAP1 POP SWAP2 SWAP1 POP JUMP JUMPDEST PUSH0 DUP3 DUP3 MSTORE PUSH1 0x20 DUP3 ADD SWAP1 POP SWAP3 SWAP2 POP POP JUMP JUMPDEST PUSH0 DUP2 SWAP1 POP PUSH1 0x20 DUP3 ADD SWAP1 POP SWAP2 SWAP1 POP JUMP JUMPDEST PUSH0 DUP2 MLOAD SWAP1 POP SWAP2 SWAP1 POP JUMP JUMPDEST PUSH0 DUP3 DUP3 MSTORE PUSH1 0x20 DUP3 ADD SWAP1 POP SWAP3 SWAP2 POP POP JUMP JUMPDEST DUP3 DUP2 DUP4 MCOPY PUSH0 DUP4 DUP4 ADD MSTORE POP POP POP JUMP JUMPDEST PUSH0 PUSH2 0x381A DUP3 PUSH2 0x37E8 JUMP JUMPDEST PUSH2 0x3824 DUP2 DUP6 PUSH2 0x37F2 JUMP JUMPDEST SWAP4 POP PUSH2 0x3834 DUP2 DUP6 PUSH1 0x20 DUP7 ADD PUSH2 0x3802 JUMP JUMPDEST PUSH2 0x383D DUP2 PUSH2 0x3449 JUMP JUMPDEST DUP5 ADD SWAP2 POP POP SWAP3 SWAP2 POP POP JUMP JUMPDEST PUSH2 0x3851 DUP2 PUSH2 0x330E JUMP JUMPDEST DUP3 MSTORE POP POP JUMP JUMPDEST PUSH0 PUSH1 0x40 DUP4 ADD PUSH0 DUP4 ADD MLOAD DUP5 DUP3 SUB PUSH0 DUP7 ADD MSTORE PUSH2 0x3871 DUP3 DUP3 PUSH2 0x3810 JUMP JUMPDEST SWAP2 POP POP PUSH1 0x20 DUP4 ADD MLOAD PUSH2 0x3886 PUSH1 0x20 DUP7 ADD DUP3 PUSH2 0x3848 JUMP JUMPDEST POP DUP1 SWAP2 POP POP SWAP3 SWAP2 POP POP JUMP JUMPDEST PUSH0 PUSH2 0x389C DUP4 DUP4 PUSH2 0x3857 JUMP JUMPDEST SWAP1 POP SWAP3 SWAP2 POP POP JUMP JUMPDEST PUSH0 PUSH1 0x20 DUP3 ADD SWAP1 POP SWAP2 SWAP1 POP JUMP JUMPDEST PUSH0 PUSH2 0x38BA DUP3 PUSH2 0x37BF JUMP JUMPDEST PUSH2 0x38C4 DUP2 DUP6 PUSH2 0x37C9 JUMP JUMPDEST SWAP4 POP DUP4 PUSH1 0x20 DUP3 MUL DUP6 ADD PUSH2 0x38D6 DUP6 PUSH2 0x37D9 JUMP JUMPDEST DUP1 PUSH0 JUMPDEST DUP6 DUP2 LT ISZERO PUSH2 0x3911 JUMPI DUP5 DUP5 SUB DUP10 MSTORE DUP2 MLOAD PUSH2 0x38F2 DUP6 DUP3 PUSH2 0x3891 JUMP JUMPDEST SWAP5 POP PUSH2 0x38FD DUP4 PUSH2 0x38A4 JUMP JUMPDEST SWAP3 POP PUSH1 0x20 DUP11 ADD SWAP10 POP POP PUSH1 0x1 DUP2 ADD SWAP1 POP PUSH2 0x38D9 JUMP JUMPDEST POP DUP3 SWAP8 POP DUP8 SWAP6 POP POP POP POP POP POP SWAP3 SWAP2 POP POP JUMP JUMPDEST PUSH0 PUSH1 0x20 DUP3 ADD SWAP1 POP DUP2 DUP2 SUB PUSH0 DUP4 ADD MSTORE PUSH2 0x393B DUP2 DUP5 PUSH2 0x38B0 JUMP JUMPDEST SWAP1 POP SWAP3 SWAP2 POP POP JUMP JUMPDEST PUSH0 DUP3 DUP3 MSTORE PUSH1 0x20 DUP3 ADD SWAP1 POP SWAP3 SWAP2 POP POP JUMP JUMPDEST PUSH0 PUSH2 0x395D DUP3 PUSH2 0x37E8 JUMP JUMPDEST PUSH2 0x3967 DUP2 DUP6 PUSH2 0x3943 JUMP JUMPDEST SWAP4 POP PUSH2 0x3977 DUP2 DUP6 PUSH1 0x20 DUP7 ADD PUSH2 0x3802 JUMP JUMPDEST PUSH2 0x3980 DUP2 PUSH2 0x3449 JUMP JUMPDEST DUP5 ADD SWAP2 POP POP SWAP3 SWAP2 POP POP JUMP JUMPDEST PUSH0 PUSH1 0x20 DUP3 ADD SWAP1 POP DUP2 DUP2 SUB PUSH0 DUP4 ADD MSTORE PUSH2 0x39A3 DUP2 DUP5 PUSH2 0x3953 JUMP JUMPDEST SWAP1 POP SWAP3 SWAP2 POP POP JUMP JUMPDEST PUSH0 PUSH2 0x39B5 DUP3 PUSH2 0x317A JUMP JUMPDEST SWAP1 POP SWAP2 SWAP1 POP JUMP JUMPDEST PUSH2 0x39C5 DUP2 PUSH2 0x39AB JUMP JUMPDEST DUP2 EQ PUSH2 0x39CF JUMPI PUSH0 PUSH0 REVERT JUMPDEST POP JUMP JUMPDEST PUSH0 DUP2 CALLDATALOAD SWAP1 POP PUSH2 0x39E0 DUP2 PUSH2 0x39BC JUMP JUMPDEST SWAP3 SWAP2 POP POP JUMP JUMPDEST PUSH0 PUSH1 0x20 DUP3 DUP5 SUB SLT ISZERO PUSH2 0x39FB JUMPI PUSH2 0x39FA PUSH2 0x3153 JUMP JUMPDEST JUMPDEST PUSH0 PUSH2 0x3A08 DUP5 DUP3 DUP6 ADD PUSH2 0x39D2 JUMP JUMPDEST SWAP2 POP POP SWAP3 SWAP2 POP POP JUMP JUMPDEST PUSH0 PUSH0 PUSH1 0x40 DUP4 DUP6 SUB SLT ISZERO PUSH2 0x3A27 JUMPI PUSH2 0x3A26 PUSH2 0x3153 JUMP JUMPDEST JUMPDEST PUSH0 PUSH2 0x3A34 DUP6 DUP3 DUP7 ADD PUSH2 0x3512 JUMP JUMPDEST SWAP3 POP POP PUSH1 0x20 PUSH2 0x3A45 DUP6 DUP3 DUP7 ADD PUSH2 0x3512 JUMP JUMPDEST SWAP2 POP POP SWAP3 POP SWAP3 SWAP1 POP JUMP JUMPDEST PUSH0 DUP2 MLOAD SWAP1 POP SWAP2 SWAP1 POP JUMP JUMPDEST PUSH0 DUP3 DUP3 MSTORE PUSH1 0x20 DUP3 ADD SWAP1 POP SWAP3 SWAP2 POP POP JUMP JUMPDEST PUSH0 DUP2 SWAP1 POP PUSH1 0x20 DUP3 ADD SWAP1 POP SWAP2 SWAP1 POP JUMP JUMPDEST PUSH0 DUP2 SWAP1 POP SWAP2 SWAP1 POP JUMP JUMPDEST PUSH0 PUSH2 0x3A9B PUSH2 0x3A96 PUSH2 0x3A91 DUP5 PUSH2 0x315B JUMP JUMPDEST PUSH2 0x3A78 JUMP JUMPDEST PUSH2 0x315B JUMP JUMPDEST SWAP1 POP SWAP2 SWAP1 POP JUMP JUMPDEST PUSH0 PUSH2 0x3AAC DUP3 PUSH2 0x3A81 JUMP JUMPDEST SWAP1 POP SWAP2 SWAP1 POP JUMP JUMPDEST PUSH0 PUSH2 0x3ABD DUP3 PUSH2 0x3AA2 JUMP JUMPDEST SWAP1 POP SWAP2 SWAP1 POP JUMP JUMPDEST PUSH2 0x3ACD DUP2 PUSH2 0x3AB3 JUMP JUMPDEST DUP3 MSTORE POP POP JUMP JUMPDEST PUSH0 DUP2 MLOAD SWAP1 POP SWAP2 SWAP1 POP JUMP JUMPDEST PUSH0 DUP3 DUP3 MSTORE PUSH1 0x20 DUP3 ADD SWAP1 POP SWAP3 SWAP2 POP POP JUMP JUMPDEST PUSH0 PUSH2 0x3AF7 DUP3 PUSH2 0x3AD3 JUMP JUMPDEST PUSH2 0x3B01 DUP2 DUP6 PUSH2 0x3ADD JUMP JUMPDEST SWAP4 POP PUSH2 0x3B11 DUP2 DUP6 PUSH1 0x20 DUP7 ADD PUSH2 0x3802 JUMP JUMPDEST PUSH2 0x3B1A DUP2 PUSH2 0x3449 JUMP JUMPDEST DUP5 ADD SWAP2 POP POP SWAP3 SWAP2 POP POP JUMP JUMPDEST PUSH0 PUSH1 0x60 DUP4 ADD PUSH0 DUP4 ADD MLOAD DUP5 DUP3 SUB PUSH0 DUP7 ADD MSTORE PUSH2 0x3B3F DUP3 DUP3 PUSH2 0x3810 JUMP JUMPDEST SWAP2 POP POP PUSH1 0x20 DUP4 ADD MLOAD PUSH2 0x3B54 PUSH1 0x20 DUP7 ADD DUP3 PUSH2 0x3AC4 JUMP JUMPDEST POP PUSH1 0x40 DUP4 ADD MLOAD DUP5 DUP3 SUB PUSH1 0x40 DUP7 ADD MSTORE PUSH2 0x3B6C DUP3 DUP3 PUSH2 0x3AED JUMP JUMPDEST SWAP2 POP POP DUP1 SWAP2 POP POP SWAP3 SWAP2 POP POP JUMP JUMPDEST PUSH0 PUSH2 0x3B84 DUP4 DUP4 PUSH2 0x3B25 JUMP JUMPDEST SWAP1 POP SWAP3 SWAP2 POP POP JUMP JUMPDEST PUSH0 PUSH1 0x20 DUP3 ADD SWAP1 POP SWAP2 SWAP1 POP JUMP JUMPDEST PUSH0 PUSH2 0x3BA2 DUP3 PUSH2 0x3A4F JUMP JUMPDEST PUSH2 0x3BAC DUP2 DUP6 PUSH2 0x3A59 JUMP JUMPDEST SWAP4 POP DUP4 PUSH1 0x20 DUP3 MUL DUP6 ADD PUSH2 0x3BBE DUP6 PUSH2 0x3A69 JUMP JUMPDEST DUP1 PUSH0 JUMPDEST DUP6 DUP2 LT ISZERO PUSH2 0x3BF9 JUMPI DUP5 DUP5 SUB DUP10 MSTORE DUP2 MLOAD PUSH2 0x3BDA DUP6 DUP3 PUSH2 0x3B79 JUMP JUMPDEST SWAP5 POP PUSH2 0x3BE5 DUP4 PUSH2 0x3B8C JUMP JUMPDEST SWAP3 POP PUSH1 0x20 DUP11 ADD SWAP10 POP POP PUSH1 0x1 DUP2 ADD SWAP1 POP PUSH2 0x3BC1 JUMP JUMPDEST POP DUP3 SWAP8 POP DUP8 SWAP6 POP POP POP POP POP POP SWAP3 SWAP2 POP POP JUMP JUMPDEST PUSH0 PUSH1 0x20 DUP3 ADD SWAP1 POP DUP2 DUP2 SUB PUSH0 DUP4 ADD MSTORE PUSH2 0x3C23 DUP2 DUP5 PUSH2 0x3B98 JUMP JUMPDEST SWAP1 POP SWAP3 SWAP2 POP POP JUMP JUMPDEST PUSH2 0x3C34 DUP2 PUSH2 0x32DB JUMP JUMPDEST DUP3 MSTORE POP POP JUMP JUMPDEST PUSH0 PUSH1 0x80 DUP4 ADD PUSH0 DUP4 ADD MLOAD PUSH2 0x3C4F PUSH0 DUP7 ADD DUP3 PUSH2 0x3C2B JUMP JUMPDEST POP PUSH1 0x20 DUP4 ADD MLOAD DUP5 DUP3 SUB PUSH1 0x20 DUP7 ADD MSTORE PUSH2 0x3C67 DUP3 DUP3 PUSH2 0x3810 JUMP JUMPDEST SWAP2 POP POP PUSH1 0x40 DUP4 ADD MLOAD PUSH2 0x3C7C PUSH1 0x40 DUP7 ADD DUP3 PUSH2 0x3848 JUMP JUMPDEST POP PUSH1 0x60 DUP4 ADD MLOAD PUSH2 0x3C8F PUSH1 0x60 DUP7 ADD DUP3 PUSH2 0x3848 JUMP JUMPDEST POP DUP1 SWAP2 POP POP SWAP3 SWAP2 POP POP JUMP JUMPDEST PUSH0 PUSH1 0x20 DUP3 ADD SWAP1 POP DUP2 DUP2 SUB PUSH0 DUP4 ADD MSTORE PUSH2 0x3CB2 DUP2 DUP5 PUSH2 0x3C3A JUMP JUMPDEST SWAP1 POP SWAP3 SWAP2 POP POP JUMP JUMPDEST PUSH0 PUSH0 REVERT JUMPDEST PUSH0 PUSH1 0x60 DUP3 DUP5 SUB SLT ISZERO PUSH2 0x3CD3 JUMPI PUSH2 0x3CD2 PUSH2 0x3CBA JUMP JUMPDEST JUMPDEST DUP2 SWAP1 POP SWAP3 SWAP2 POP POP JUMP JUMPDEST PUSH0 PUSH0 PUSH1 0x40 DUP4 DUP6 SUB SLT ISZERO PUSH2 0x3CF2 JUMPI PUSH2 0x3CF1 PUSH2 0x3153 JUMP JUMPDEST JUMPDEST PUSH0 PUSH2 0x3CFF DUP6 DUP3 DUP7 ADD PUSH2 0x329C JUMP JUMPDEST SWAP3 POP POP PUSH1 0x20 DUP4 ADD CALLDATALOAD PUSH8 0xFFFFFFFFFFFFFFFF DUP2 GT ISZERO PUSH2 0x3D20 JUMPI PUSH2 0x3D1F PUSH2 0x3157 JUMP JUMPDEST JUMPDEST PUSH2 0x3D2C DUP6 DUP3 DUP7 ADD PUSH2 0x3CBE JUMP JUMPDEST SWAP2 POP POP SWAP3 POP SWAP3 SWAP1 POP JUMP JUMPDEST PUSH0 PUSH8 0xFFFFFFFFFFFFFFFF DUP3 GT ISZERO PUSH2 0x3D50 JUMPI PUSH2 0x3D4F PUSH2 0x3459 JUMP JUMPDEST JUMPDEST PUSH1 0x20 DUP3 MUL SWAP1 POP PUSH1 0x20 DUP2 ADD SWAP1 POP SWAP2 SWAP1 POP JUMP JUMPDEST PUSH0 PUSH0 REVERT JUMPDEST PUSH0 PUSH0 REVERT JUMPDEST PUSH0 PUSH0 REVERT JUMPDEST PUSH0 PUSH8 0xFFFFFFFFFFFFFFFF DUP3 GT ISZERO PUSH2 0x3D87 JUMPI PUSH2 0x3D86 PUSH2 0x3459 JUMP JUMPDEST JUMPDEST PUSH2 0x3D90 DUP3 PUSH2 0x3449 JUMP JUMPDEST SWAP1 POP PUSH1 0x20 DUP2 ADD SWAP1 POP SWAP2 SWAP1 POP JUMP JUMPDEST DUP3 DUP2 DUP4 CALLDATACOPY PUSH0 DUP4 DUP4 ADD MSTORE POP POP POP JUMP JUMPDEST PUSH0 PUSH2 0x3DBD PUSH2 0x3DB8 DUP5 PUSH2 0x3D6D JUMP JUMPDEST PUSH2 0x34B7 JUMP JUMPDEST SWAP1 POP DUP3 DUP2 MSTORE PUSH1 0x20 DUP2 ADD DUP5 DUP5 DUP5 ADD GT ISZERO PUSH2 0x3DD9 JUMPI PUSH2 0x3DD8 PUSH2 0x3D69 JUMP JUMPDEST JUMPDEST PUSH2 0x3DE4 DUP5 DUP3 DUP6 PUSH2 0x3D9D JUMP JUMPDEST POP SWAP4 SWAP3 POP POP POP JUMP JUMPDEST PUSH0 DUP3 PUSH1 0x1F DUP4 ADD SLT PUSH2 0x3E00 JUMPI PUSH2 0x3DFF PUSH2 0x31B5 JUMP JUMPDEST JUMPDEST DUP2 CALLDATALOAD PUSH2 0x3E10 DUP5 DUP3 PUSH1 0x20 DUP7 ADD PUSH2 0x3DAB JUMP JUMPDEST SWAP2 POP POP SWAP3 SWAP2 POP POP JUMP JUMPDEST PUSH0 PUSH1 0x60 DUP3 DUP5 SUB SLT ISZERO PUSH2 0x3E2E JUMPI PUSH2 0x3E2D PUSH2 0x3D61 JUMP JUMPDEST JUMPDEST PUSH2 0x3E38 PUSH1 0x60 PUSH2 0x34B7 JUMP JUMPDEST SWAP1 POP PUSH0 PUSH2 0x3E47 DUP5 DUP3 DUP6 ADD PUSH2 0x329C JUMP JUMPDEST PUSH0 DUP4 ADD MSTORE POP PUSH1 0x20 DUP3 ADD CALLDATALOAD PUSH8 0xFFFFFFFFFFFFFFFF DUP2 GT ISZERO PUSH2 0x3E6A JUMPI PUSH2 0x3E69 PUSH2 0x3D65 JUMP JUMPDEST JUMPDEST PUSH2 0x3E76 DUP5 DUP3 DUP6 ADD PUSH2 0x3DEC JUMP JUMPDEST PUSH1 0x20 DUP4 ADD MSTORE POP PUSH1 0x40 DUP3 ADD CALLDATALOAD PUSH8 0xFFFFFFFFFFFFFFFF DUP2 GT ISZERO PUSH2 0x3E9A JUMPI PUSH2 0x3E99 PUSH2 0x3D65 JUMP JUMPDEST JUMPDEST PUSH2 0x3EA6 DUP5 DUP3 DUP6 ADD PUSH2 0x3DEC JUMP JUMPDEST PUSH1 0x40 DUP4 ADD MSTORE POP SWAP3 SWAP2 POP POP JUMP JUMPDEST PUSH0 PUSH2 0x3EC4 PUSH2 0x3EBF DUP5 PUSH2 0x3D36 JUMP JUMPDEST PUSH2 0x34B7 JUMP JUMPDEST SWAP1 POP DUP1 DUP4 DUP3 MSTORE PUSH1 0x20 DUP3 ADD SWAP1 POP PUSH1 0x20 DUP5 MUL DUP4 ADD DUP6 DUP2 GT ISZERO PUSH2 0x3EE7 JUMPI PUSH2 0x3EE6 PUSH2 0x31BD JUMP JUMPDEST JUMPDEST DUP4 JUMPDEST DUP2 DUP2 LT ISZERO PUSH2 0x3F2E JUMPI DUP1 CALLDATALOAD PUSH8 0xFFFFFFFFFFFFFFFF DUP2 GT ISZERO PUSH2 0x3F0C JUMPI PUSH2 0x3F0B PUSH2 0x31B5 JUMP JUMPDEST JUMPDEST DUP1 DUP7 ADD PUSH2 0x3F19 DUP10 DUP3 PUSH2 0x3E19 JUMP JUMPDEST DUP6 MSTORE PUSH1 0x20 DUP6 ADD SWAP5 POP POP POP PUSH1 0x20 DUP2 ADD SWAP1 POP PUSH2 0x3EE9 JUMP JUMPDEST POP POP POP SWAP4 SWAP3 POP POP POP JUMP JUMPDEST PUSH0 DUP3 PUSH1 0x1F DUP4 ADD SLT PUSH2 0x3F4C JUMPI PUSH2 0x3F4B PUSH2 0x31B5 JUMP JUMPDEST JUMPDEST DUP2 CALLDATALOAD PUSH2 0x3F5C DUP5 DUP3 PUSH1 0x20 DUP7 ADD PUSH2 0x3EB2 JUMP JUMPDEST SWAP2 POP POP SWAP3 SWAP2 POP POP JUMP JUMPDEST PUSH0 PUSH0 PUSH1 0x40 DUP4 DUP6 SUB SLT ISZERO PUSH2 0x3F7B JUMPI PUSH2 0x3F7A PUSH2 0x3153 JUMP JUMPDEST JUMPDEST PUSH0 DUP4 ADD CALLDATALOAD PUSH8 0xFFFFFFFFFFFFFFFF DUP2 GT ISZERO PUSH2 0x3F98 JUMPI PUSH2 0x3F97 PUSH2 0x3157 JUMP JUMPDEST JUMPDEST PUSH2 0x3FA4 DUP6 DUP3 DUP7 ADD PUSH2 0x3F38 JUMP JUMPDEST SWAP3 POP POP PUSH1 0x20 DUP4 ADD CALLDATALOAD PUSH8 0xFFFFFFFFFFFFFFFF DUP2 GT ISZERO PUSH2 0x3FC5 JUMPI PUSH2 0x3FC4 PUSH2 0x3157 JUMP JUMPDEST JUMPDEST PUSH2 0x3FD1 DUP6 DUP3 DUP7 ADD PUSH2 0x3DEC JUMP JUMPDEST SWAP2 POP POP SWAP3 POP SWAP3 SWAP1 POP JUMP JUMPDEST PUSH0 PUSH0 PUSH0 PUSH0 PUSH0 PUSH2 0x140 DUP7 DUP9 SUB SLT ISZERO PUSH2 0x3FF5 JUMPI PUSH2 0x3FF4 PUSH2 0x3153 JUMP JUMPDEST JUMPDEST PUSH0 PUSH2 0x4002 DUP9 DUP3 DUP10 ADD PUSH2 0x329C JUMP JUMPDEST SWAP6 POP POP PUSH1 0x20 DUP7 ADD CALLDATALOAD PUSH8 0xFFFFFFFFFFFFFFFF DUP2 GT ISZERO PUSH2 0x4023 JUMPI PUSH2 0x4022 PUSH2 0x3157 JUMP JUMPDEST JUMPDEST PUSH2 0x402F DUP9 DUP3 DUP10 ADD PUSH2 0x358E JUMP JUMPDEST SWAP5 POP POP PUSH1 0x40 PUSH2 0x4040 DUP9 DUP3 DUP10 ADD PUSH2 0x363F JUMP JUMPDEST SWAP4 POP POP PUSH1 0x80 PUSH2 0x4051 DUP9 DUP3 DUP10 ADD PUSH2 0x36ED JUMP JUMPDEST SWAP3 POP POP PUSH2 0x100 PUSH2 0x4063 DUP9 DUP3 DUP10 ADD PUSH2 0x363F JUMP JUMPDEST SWAP2 POP POP SWAP3 SWAP6 POP SWAP3 SWAP6 SWAP1 SWAP4 POP JUMP JUMPDEST PUSH0 PUSH1 0x60 DUP4 ADD PUSH0 DUP4 ADD MLOAD DUP5 DUP3 SUB PUSH0 DUP7 ADD MSTORE PUSH2 0x408A DUP3 DUP3 PUSH2 0x3810 JUMP JUMPDEST SWAP2 POP POP PUSH1 0x20 DUP4 ADD MLOAD PUSH2 0x409F PUSH1 0x20 DUP7 ADD DUP3 PUSH2 0x3AC4 JUMP JUMPDEST POP PUSH1 0x40 DUP4 ADD MLOAD DUP5 DUP3 SUB PUSH1 0x40 DUP7 ADD MSTORE PUSH2 0x40B7 DUP3 DUP3 PUSH2 0x3AED JUMP JUMPDEST SWAP2 POP POP DUP1 SWAP2 POP POP SWAP3 SWAP2 POP POP JUMP JUMPDEST PUSH0 PUSH1 0x20 DUP3 ADD SWAP1 POP DUP2 DUP2 SUB PUSH0 DUP4 ADD MSTORE PUSH2 0x40DC DUP2 DUP5 PUSH2 0x4070 JUMP JUMPDEST SWAP1 POP SWAP3 SWAP2 POP POP JUMP JUMPDEST PUSH0 PUSH0 PUSH1 0x40 DUP4 DUP6 SUB SLT ISZERO PUSH2 0x40FA JUMPI PUSH2 0x40F9 PUSH2 0x3153 JUMP JUMPDEST JUMPDEST PUSH0 PUSH2 0x4107 DUP6 DUP3 DUP7 ADD PUSH2 0x329C JUMP JUMPDEST SWAP3 POP POP PUSH1 0x20 PUSH2 0x4118 DUP6 DUP3 DUP7 ADD PUSH2 0x31A1 JUMP JUMPDEST SWAP2 POP POP SWAP3 POP SWAP3 SWAP1 POP JUMP JUMPDEST PUSH0 PUSH8 0xFFFFFFFFFFFFFFFF DUP3 GT ISZERO PUSH2 0x413C JUMPI PUSH2 0x413B PUSH2 0x3459 JUMP JUMPDEST JUMPDEST PUSH2 0x4145 DUP3 PUSH2 0x3449 JUMP JUMPDEST SWAP1 POP PUSH1 0x20 DUP2 ADD SWAP1 POP SWAP2 SWAP1 POP JUMP JUMPDEST PUSH0 PUSH2 0x4164 PUSH2 0x415F DUP5 PUSH2 0x4122 JUMP JUMPDEST PUSH2 0x34B7 JUMP JUMPDEST SWAP1 POP DUP3 DUP2 MSTORE PUSH1 0x20 DUP2 ADD DUP5 DUP5 DUP5 ADD GT ISZERO PUSH2 0x4180 JUMPI PUSH2 0x417F PUSH2 0x3D69 JUMP JUMPDEST JUMPDEST PUSH2 0x418B DUP5 DUP3 DUP6 PUSH2 0x3D9D JUMP JUMPDEST POP SWAP4 SWAP3 POP POP POP JUMP JUMPDEST PUSH0 DUP3 PUSH1 0x1F DUP4 ADD SLT PUSH2 0x41A7 JUMPI PUSH2 0x41A6 PUSH2 0x31B5 JUMP JUMPDEST JUMPDEST DUP2 CALLDATALOAD PUSH2 0x41B7 DUP5 DUP3 PUSH1 0x20 DUP7 ADD PUSH2 0x4152 JUMP JUMPDEST SWAP2 POP POP SWAP3 SWAP2 POP POP JUMP JUMPDEST PUSH0 PUSH0 PUSH0 PUSH1 0x60 DUP5 DUP7 SUB SLT ISZERO PUSH2 0x41D7 JUMPI PUSH2 0x41D6 PUSH2 0x3153 JUMP JUMPDEST JUMPDEST PUSH0 PUSH2 0x41E4 DUP7 DUP3 DUP8 ADD PUSH2 0x31A1 JUMP JUMPDEST SWAP4 POP POP PUSH1 0x20 PUSH2 0x41F5 DUP7 DUP3 DUP8 ADD PUSH2 0x329C JUMP JUMPDEST SWAP3 POP POP PUSH1 0x40 DUP5 ADD CALLDATALOAD PUSH8 0xFFFFFFFFFFFFFFFF DUP2 GT ISZERO PUSH2 0x4216 JUMPI PUSH2 0x4215 PUSH2 0x3157 JUMP JUMPDEST JUMPDEST PUSH2 0x4222 DUP7 DUP3 DUP8 ADD PUSH2 0x4193 JUMP JUMPDEST SWAP2 POP POP SWAP3 POP SWAP3 POP SWAP3 JUMP JUMPDEST PUSH0 PUSH1 0x20 DUP3 DUP5 SUB SLT ISZERO PUSH2 0x4241 JUMPI PUSH2 0x4240 PUSH2 0x3153 JUMP JUMPDEST JUMPDEST PUSH0 PUSH2 0x424E DUP5 DUP3 DUP6 ADD PUSH2 0x31A1 JUMP JUMPDEST SWAP2 POP POP SWAP3 SWAP2 POP POP JUMP JUMPDEST PUSH32 0x4C696E6B65642070726F6F6620766572696669636174696F6E206E6565647320 PUSH0 DUP3 ADD MSTORE PUSH32 0x6D6F7265207468616E2031207265717565737400000000000000000000000000 PUSH1 0x20 DUP3 ADD MSTORE POP JUMP JUMPDEST PUSH0 PUSH2 0x42B1 PUSH1 0x33 DUP4 PUSH2 0x3943 JUMP JUMPDEST SWAP2 POP PUSH2 0x42BC DUP3 PUSH2 0x4257 JUMP JUMPDEST PUSH1 0x40 DUP3 ADD SWAP1 POP SWAP2 SWAP1 POP JUMP JUMPDEST PUSH0 PUSH1 0x20 DUP3 ADD SWAP1 POP DUP2 DUP2 SUB PUSH0 DUP4 ADD MSTORE PUSH2 0x42DE DUP2 PUSH2 0x42A5 JUMP JUMPDEST SWAP1 POP SWAP2 SWAP1 POP JUMP JUMPDEST PUSH32 0x4E487B7100000000000000000000000000000000000000000000000000000000 PUSH0 MSTORE PUSH1 0x32 PUSH1 0x4 MSTORE PUSH1 0x24 PUSH0 REVERT JUMPDEST PUSH32 0x43616E27742066696E64206C696E6B494420666F7220676976656E2072657175 PUSH0 DUP3 ADD MSTORE PUSH32 0x6573742049647320616E64207573657220616464726573730000000000000000 PUSH1 0x20 DUP3 ADD MSTORE POP JUMP JUMPDEST PUSH0 PUSH2 0x436C PUSH1 0x38 DUP4 PUSH2 0x3943 JUMP JUMPDEST SWAP2 POP PUSH2 0x4377 DUP3 PUSH2 0x4312 JUMP JUMPDEST PUSH1 0x40 DUP3 ADD SWAP1 POP SWAP2 SWAP1 POP JUMP JUMPDEST PUSH0 PUSH1 0x20 DUP3 ADD SWAP1 POP DUP2 DUP2 SUB PUSH0 DUP4 ADD MSTORE PUSH2 0x4399 DUP2 PUSH2 0x4360 JUMP JUMPDEST SWAP1 POP SWAP2 SWAP1 POP JUMP JUMPDEST PUSH32 0x50726F6F667320617265206E6F74206C696E6B65640000000000000000000000 PUSH0 DUP3 ADD MSTORE POP JUMP JUMPDEST PUSH0 PUSH2 0x43D4 PUSH1 0x15 DUP4 PUSH2 0x3943 JUMP JUMPDEST SWAP2 POP PUSH2 0x43DF DUP3 PUSH2 0x43A0 JUMP JUMPDEST PUSH1 0x20 DUP3 ADD SWAP1 POP SWAP2 SWAP1 POP JUMP JUMPDEST PUSH2 0x43F3 DUP2 PUSH2 0x3273 JUMP JUMPDEST DUP3 MSTORE POP POP JUMP JUMPDEST PUSH0 PUSH1 0xA0 DUP3 ADD SWAP1 POP DUP2 DUP2 SUB PUSH0 DUP4 ADD MSTORE PUSH2 0x4410 DUP2 PUSH2 0x43C8 JUMP JUMPDEST SWAP1 POP PUSH2 0x441F PUSH1 0x20 DUP4 ADD DUP8 PUSH2 0x43EA JUMP JUMPDEST PUSH2 0x442C PUSH1 0x40 DUP4 ADD DUP7 PUSH2 0x3317 JUMP JUMPDEST PUSH2 0x4439 PUSH1 0x60 DUP4 ADD DUP6 PUSH2 0x43EA JUMP JUMPDEST PUSH2 0x4446 PUSH1 0x80 DUP4 ADD DUP5 PUSH2 0x3317 JUMP JUMPDEST SWAP6 SWAP5 POP POP POP POP POP JUMP JUMPDEST PUSH32 0x7265717565737420696420646F65736E27742065786973740000000000000000 PUSH0 DUP3 ADD MSTORE POP JUMP JUMPDEST PUSH0 PUSH2 0x4483 PUSH1 0x18 DUP4 PUSH2 0x3943 JUMP JUMPDEST SWAP2 POP PUSH2 0x448E DUP3 PUSH2 0x444F JUMP JUMPDEST PUSH1 0x20 DUP3 ADD SWAP1 POP SWAP2 SWAP1 POP JUMP JUMPDEST PUSH0 PUSH1 0x20 DUP3 ADD SWAP1 POP DUP2 DUP2 SUB PUSH0 DUP4 ADD MSTORE PUSH2 0x44B0 DUP2 PUSH2 0x4477 JUMP JUMPDEST SWAP1 POP SWAP2 SWAP1 POP JUMP JUMPDEST PUSH32 0x7265717565737420696420616C72656164792065786973747300000000000000 PUSH0 DUP3 ADD MSTORE POP JUMP JUMPDEST PUSH0 PUSH2 0x44EB PUSH1 0x19 DUP4 PUSH2 0x3943 JUMP JUMPDEST SWAP2 POP PUSH2 0x44F6 DUP3 PUSH2 0x44B7 JUMP JUMPDEST PUSH1 0x20 DUP3 ADD SWAP1 POP SWAP2 SWAP1 POP JUMP JUMPDEST PUSH0 PUSH1 0x20 DUP3 ADD SWAP1 POP DUP2 DUP2 SUB PUSH0 DUP4 ADD MSTORE PUSH2 0x4518 DUP2 PUSH2 0x44DF JUMP JUMPDEST SWAP1 POP SWAP2 SWAP1 POP JUMP JUMPDEST PUSH32 0x4E6F7420616E206F776E6572206F722072657175657374206F776E6572000000 PUSH0 DUP3 ADD MSTORE POP JUMP JUMPDEST PUSH0 PUSH2 0x4553 PUSH1 0x1D DUP4 PUSH2 0x3943 JUMP JUMPDEST SWAP2 POP PUSH2 0x455E DUP3 PUSH2 0x451F JUMP JUMPDEST PUSH1 0x20 DUP3 ADD SWAP1 POP SWAP2 SWAP1 POP JUMP JUMPDEST PUSH0 PUSH1 0x20 DUP3 ADD SWAP1 POP DUP2 DUP2 SUB PUSH0 DUP4 ADD MSTORE PUSH2 0x4580 DUP2 PUSH2 0x4547 JUMP JUMPDEST SWAP1 POP SWAP2 SWAP1 POP JUMP JUMPDEST PUSH0 DUP2 SWAP1 POP SWAP2 SWAP1 POP JUMP JUMPDEST PUSH0 PUSH2 0x45AA PUSH2 0x45A5 PUSH2 0x45A0 DUP5 PUSH2 0x4587 JUMP JUMPDEST PUSH2 0x3A78 JUMP JUMPDEST PUSH2 0x3273 JUMP JUMPDEST SWAP1 POP SWAP2 SWAP1 POP JUMP JUMPDEST PUSH2 0x45BA DUP2 PUSH2 0x4590 JUMP JUMPDEST DUP3 MSTORE POP POP JUMP JUMPDEST PUSH0 PUSH1 0x20 DUP3 ADD SWAP1 POP PUSH2 0x45D3 PUSH0 DUP4 ADD DUP5 PUSH2 0x45B1 JUMP JUMPDEST SWAP3 SWAP2 POP POP JUMP JUMPDEST PUSH32 0x4E487B7100000000000000000000000000000000000000000000000000000000 PUSH0 MSTORE PUSH1 0x11 PUSH1 0x4 MSTORE PUSH1 0x24 PUSH0 REVERT JUMPDEST PUSH0 PUSH2 0x4610 DUP3 PUSH2 0x330E JUMP JUMPDEST SWAP2 POP PUSH2 0x461B DUP4 PUSH2 0x330E JUMP JUMPDEST SWAP3 POP DUP3 DUP3 SUB SWAP1 POP DUP2 DUP2 GT ISZERO PUSH2 0x4633 JUMPI PUSH2 0x4632 PUSH2 0x45D9 JUMP JUMPDEST JUMPDEST SWAP3 SWAP2 POP POP JUMP JUMPDEST PUSH32 0x4E487B7100000000000000000000000000000000000000000000000000000000 PUSH0 MSTORE PUSH1 0x22 PUSH1 0x4 MSTORE PUSH1 0x24 PUSH0 REVERT JUMPDEST PUSH0 PUSH1 0x2 DUP3 DIV SWAP1 POP PUSH1 0x1 DUP3 AND DUP1 PUSH2 0x467D JUMPI PUSH1 0x7F DUP3 AND SWAP2 POP JUMPDEST PUSH1 0x20 DUP3 LT DUP2 SUB PUSH2 0x4690 JUMPI PUSH2 0x468F PUSH2 0x4639 JUMP JUMPDEST JUMPDEST POP SWAP2 SWAP1 POP JUMP JUMPDEST PUSH0 PUSH0 REVERT JUMPDEST PUSH0 PUSH0 REVERT JUMPDEST PUSH0 PUSH0 REVERT JUMPDEST PUSH0 PUSH0 DUP4 CALLDATALOAD PUSH1 0x1 PUSH1 0x20 SUB DUP5 CALLDATASIZE SUB SUB DUP2 SLT PUSH2 0x46BE JUMPI PUSH2 0x46BD PUSH2 0x4696 JUMP JUMPDEST JUMPDEST DUP1 DUP5 ADD SWAP3 POP DUP3 CALLDATALOAD SWAP2 POP PUSH8 0xFFFFFFFFFFFFFFFF DUP3 GT ISZERO PUSH2 0x46E0 JUMPI PUSH2 0x46DF PUSH2 0x469A JUMP JUMPDEST JUMPDEST PUSH1 0x20 DUP4 ADD SWAP3 POP PUSH1 0x1 DUP3 MUL CALLDATASIZE SUB DUP4 SGT ISZERO PUSH2 0x46FC JUMPI PUSH2 0x46FB PUSH2 0x469E JUMP JUMPDEST JUMPDEST POP SWAP3 POP SWAP3 SWAP1 POP JUMP JUMPDEST PUSH0 PUSH0 DUP4 CALLDATALOAD PUSH1 0x1 PUSH1 0x20 SUB DUP5 CALLDATASIZE SUB SUB DUP2 SLT PUSH2 0x4720 JUMPI PUSH2 0x471F PUSH2 0x4696 JUMP JUMPDEST JUMPDEST DUP1 DUP5 ADD SWAP3 POP DUP3 CALLDATALOAD SWAP2 POP PUSH8 0xFFFFFFFFFFFFFFFF DUP3 GT ISZERO PUSH2 0x4742 JUMPI PUSH2 0x4741 PUSH2 0x469A JUMP JUMPDEST JUMPDEST PUSH1 0x20 DUP4 ADD SWAP3 POP PUSH1 0x1 DUP3 MUL CALLDATASIZE SUB DUP4 SGT ISZERO PUSH2 0x475E JUMPI PUSH2 0x475D PUSH2 0x469E JUMP JUMPDEST JUMPDEST POP SWAP3 POP SWAP3 SWAP1 POP JUMP JUMPDEST PUSH0 PUSH2 0x4771 DUP4 DUP6 PUSH2 0x3943 JUMP JUMPDEST SWAP4 POP PUSH2 0x477E DUP4 DUP6 DUP5 PUSH2 0x3D9D JUMP JUMPDEST PUSH2 0x4787 DUP4 PUSH2 0x3449 JUMP JUMPDEST DUP5 ADD SWAP1 POP SWAP4 SWAP3 POP POP POP JUMP JUMPDEST PUSH0 DUP3 DUP3 MSTORE PUSH1 0x20 DUP3 ADD SWAP1 POP SWAP3 SWAP2 POP POP JUMP JUMPDEST PUSH0 PUSH2 0x47AD DUP4 DUP6 PUSH2 0x4792 JUMP JUMPDEST SWAP4 POP PUSH2 0x47BA DUP4 DUP6 DUP5 PUSH2 0x3D9D JUMP JUMPDEST PUSH2 0x47C3 DUP4 PUSH2 0x3449 JUMP JUMPDEST DUP5 ADD SWAP1 POP SWAP4 SWAP3 POP POP POP JUMP JUMPDEST PUSH0 PUSH1 0x60 DUP3 ADD SWAP1 POP DUP2 DUP2 SUB PUSH0 DUP4 ADD MSTORE PUSH2 0x47E7 DUP2 DUP8 DUP10 PUSH2 0x4766 JUMP JUMPDEST SWAP1 POP PUSH2 0x47F6 PUSH1 0x20 DUP4 ADD DUP7 PUSH2 0x333F JUMP JUMPDEST DUP2 DUP2 SUB PUSH1 0x40 DUP4 ADD MSTORE PUSH2 0x4809 DUP2 DUP5 DUP7 PUSH2 0x47A2 JUMP JUMPDEST SWAP1 POP SWAP7 SWAP6 POP POP POP POP POP POP JUMP JUMPDEST PUSH0 DUP2 SWAP1 POP SWAP3 SWAP2 POP POP JUMP JUMPDEST PUSH0 PUSH2 0x4829 DUP3 PUSH2 0x37E8 JUMP JUMPDEST PUSH2 0x4833 DUP2 DUP6 PUSH2 0x4815 JUMP JUMPDEST SWAP4 POP PUSH2 0x4843 DUP2 DUP6 PUSH1 0x20 DUP7 ADD PUSH2 0x3802 JUMP JUMPDEST DUP1 DUP5 ADD SWAP2 POP POP SWAP3 SWAP2 POP POP JUMP JUMPDEST PUSH0 PUSH2 0x485A DUP3 DUP5 PUSH2 0x481F JUMP JUMPDEST SWAP2 POP DUP2 SWAP1 POP SWAP3 SWAP2 POP POP JUMP JUMPDEST PUSH32 0x56616C696461746F72206973206E6F742077686974656C697374656400000000 PUSH0 DUP3 ADD MSTORE POP JUMP JUMPDEST PUSH0 PUSH2 0x4899 PUSH1 0x1C DUP4 PUSH2 0x3943 JUMP JUMPDEST SWAP2 POP PUSH2 0x48A4 DUP3 PUSH2 0x4865 JUMP JUMPDEST PUSH1 0x20 DUP3 ADD SWAP1 POP SWAP2 SWAP1 POP JUMP JUMPDEST PUSH0 PUSH1 0x20 DUP3 ADD SWAP1 POP DUP2 DUP2 SUB PUSH0 DUP4 ADD MSTORE PUSH2 0x48C6 DUP2 PUSH2 0x488D JUMP JUMPDEST SWAP1 POP SWAP2 SWAP1 POP JUMP JUMPDEST PUSH0 PUSH32 0xFFFFFFFF00000000000000000000000000000000000000000000000000000000 DUP3 AND SWAP1 POP SWAP2 SWAP1 POP JUMP JUMPDEST PUSH2 0x4901 DUP2 PUSH2 0x48CD JUMP JUMPDEST DUP3 MSTORE POP POP JUMP JUMPDEST PUSH0 PUSH1 0x20 DUP3 ADD SWAP1 POP PUSH2 0x491A PUSH0 DUP4 ADD DUP5 PUSH2 0x48F8 JUMP JUMPDEST SWAP3 SWAP2 POP POP JUMP JUMPDEST PUSH2 0x4929 DUP2 PUSH2 0x32DB JUMP JUMPDEST DUP2 EQ PUSH2 0x4933 JUMPI PUSH0 PUSH0 REVERT JUMPDEST POP JUMP JUMPDEST PUSH0 DUP2 MLOAD SWAP1 POP PUSH2 0x4944 DUP2 PUSH2 0x4920 JUMP JUMPDEST SWAP3 SWAP2 POP POP JUMP JUMPDEST PUSH0 PUSH1 0x20 DUP3 DUP5 SUB SLT ISZERO PUSH2 0x495F JUMPI PUSH2 0x495E PUSH2 0x3153 JUMP JUMPDEST JUMPDEST PUSH0 PUSH2 0x496C DUP5 DUP3 DUP6 ADD PUSH2 0x4936 JUMP JUMPDEST SWAP2 POP POP SWAP3 SWAP2 POP POP JUMP JUMPDEST PUSH32 0x56616C696461746F7220646F65736E277420737570706F72742072656C657661 PUSH0 DUP3 ADD MSTORE PUSH32 0x6E7420696E746572666163650000000000000000000000000000000000000000 PUSH1 0x20 DUP3 ADD MSTORE POP JUMP JUMPDEST PUSH0 PUSH2 0x49CF PUSH1 0x2C DUP4 PUSH2 0x3943 JUMP JUMPDEST SWAP2 POP PUSH2 0x49DA DUP3 PUSH2 0x4975 JUMP JUMPDEST PUSH1 0x40 DUP3 ADD SWAP1 POP SWAP2 SWAP1 POP JUMP JUMPDEST PUSH0 PUSH1 0x20 DUP3 ADD SWAP1 POP DUP2 DUP2 SUB PUSH0 DUP4 ADD MSTORE PUSH2 0x49FC DUP2 PUSH2 0x49C3 JUMP JUMPDEST SWAP1 POP SWAP2 SWAP1 POP JUMP JUMPDEST PUSH32 0x4C656E6774682073686F756C642062652067726561746572207468616E203000 PUSH0 DUP3 ADD MSTORE POP JUMP JUMPDEST PUSH0 PUSH2 0x4A37 PUSH1 0x1F DUP4 PUSH2 0x3943 JUMP JUMPDEST SWAP2 POP PUSH2 0x4A42 DUP3 PUSH2 0x4A03 JUMP JUMPDEST PUSH1 0x20 DUP3 ADD SWAP1 POP SWAP2 SWAP1 POP JUMP JUMPDEST PUSH0 PUSH1 0x20 DUP3 ADD SWAP1 POP DUP2 DUP2 SUB PUSH0 DUP4 ADD MSTORE PUSH2 0x4A64 DUP2 PUSH2 0x4A2B JUMP JUMPDEST SWAP1 POP SWAP2 SWAP1 POP JUMP JUMPDEST PUSH32 0x4C656E677468206C696D69742065786365656465640000000000000000000000 PUSH0 DUP3 ADD MSTORE POP JUMP JUMPDEST PUSH0 PUSH2 0x4A9F PUSH1 0x15 DUP4 PUSH2 0x3943 JUMP JUMPDEST SWAP2 POP PUSH2 0x4AAA DUP3 PUSH2 0x4A6B JUMP JUMPDEST PUSH1 0x20 DUP3 ADD SWAP1 POP SWAP2 SWAP1 POP JUMP JUMPDEST PUSH0 PUSH1 0x20 DUP3 ADD SWAP1 POP DUP2 DUP2 SUB PUSH0 DUP4 ADD MSTORE PUSH2 0x4ACC DUP2 PUSH2 0x4A93 JUMP JUMPDEST SWAP1 POP SWAP2 SWAP1 POP JUMP JUMPDEST PUSH32 0x537461727420696E646578206F7574206F6620626F756E647300000000000000 PUSH0 DUP3 ADD MSTORE POP JUMP JUMPDEST PUSH0 PUSH2 0x4B07 PUSH1 0x19 DUP4 PUSH2 0x3943 JUMP JUMPDEST SWAP2 POP PUSH2 0x4B12 DUP3 PUSH2 0x4AD3 JUMP JUMPDEST PUSH1 0x20 DUP3 ADD SWAP1 POP SWAP2 SWAP1 POP JUMP JUMPDEST PUSH0 PUSH1 0x20 DUP3 ADD SWAP1 POP DUP2 DUP2 SUB PUSH0 DUP4 ADD MSTORE PUSH2 0x4B34 DUP2 PUSH2 0x4AFB JUMP JUMPDEST SWAP1 POP SWAP2 SWAP1 POP JUMP JUMPDEST PUSH0 PUSH2 0x4B45 DUP3 PUSH2 0x330E JUMP JUMPDEST SWAP2 POP PUSH2 0x4B50 DUP4 PUSH2 0x330E JUMP JUMPDEST SWAP3 POP DUP3 DUP3 ADD SWAP1 POP DUP1 DUP3 GT ISZERO PUSH2 0x4B68 JUMPI PUSH2 0x4B67 PUSH2 0x45D9 JUMP JUMPDEST JUMPDEST SWAP3 SWAP2 POP POP JUMP JUMPDEST PUSH0 PUSH2 0x4B78 DUP3 PUSH2 0x3AD3 JUMP JUMPDEST PUSH2 0x4B82 DUP2 DUP6 PUSH2 0x4792 JUMP JUMPDEST SWAP4 POP PUSH2 0x4B92 DUP2 DUP6 PUSH1 0x20 DUP7 ADD PUSH2 0x3802 JUMP JUMPDEST PUSH2 0x4B9B DUP2 PUSH2 0x3449 JUMP JUMPDEST DUP5 ADD SWAP2 POP POP SWAP3 SWAP2 POP POP JUMP JUMPDEST PUSH0 PUSH1 0x20 DUP3 ADD SWAP1 POP DUP2 DUP2 SUB PUSH0 DUP4 ADD MSTORE PUSH2 0x4BBE DUP2 DUP5 PUSH2 0x4B6E JUMP JUMPDEST SWAP1 POP SWAP3 SWAP2 POP POP JUMP JUMPDEST PUSH0 PUSH2 0x4BD0 DUP3 PUSH2 0x3AA2 JUMP JUMPDEST SWAP1 POP SWAP2 SWAP1 POP JUMP JUMPDEST PUSH2 0x4BE0 DUP2 PUSH2 0x4BC6 JUMP JUMPDEST DUP3 MSTORE POP POP JUMP JUMPDEST PUSH0 PUSH1 0x80 DUP3 ADD SWAP1 POP DUP2 DUP2 SUB PUSH0 DUP4 ADD MSTORE PUSH2 0x4BFE DUP2 DUP8 PUSH2 0x4B6E JUMP JUMPDEST SWAP1 POP DUP2 DUP2 SUB PUSH1 0x20 DUP4 ADD MSTORE PUSH2 0x4C12 DUP2 DUP7 PUSH2 0x4B6E JUMP JUMPDEST SWAP1 POP PUSH2 0x4C21 PUSH1 0x40 DUP4 ADD DUP6 PUSH2 0x333F JUMP JUMPDEST PUSH2 0x4C2E PUSH1 0x60 DUP4 ADD DUP5 PUSH2 0x4BD7 JUMP JUMPDEST SWAP6 SWAP5 POP POP POP POP POP JUMP JUMPDEST PUSH0 PUSH8 0xFFFFFFFFFFFFFFFF DUP3 GT ISZERO PUSH2 0x4C51 JUMPI PUSH2 0x4C50 PUSH2 0x3459 JUMP JUMPDEST JUMPDEST PUSH1 0x20 DUP3 MUL SWAP1 POP PUSH1 0x20 DUP2 ADD SWAP1 POP SWAP2 SWAP1 POP JUMP JUMPDEST PUSH0 PUSH2 0x4C74 PUSH2 0x4C6F DUP5 PUSH2 0x4122 JUMP JUMPDEST PUSH2 0x34B7 JUMP JUMPDEST SWAP1 POP DUP3 DUP2 MSTORE PUSH1 0x20 DUP2 ADD DUP5 DUP5 DUP5 ADD GT ISZERO PUSH2 0x4C90 JUMPI PUSH2 0x4C8F PUSH2 0x3D69 JUMP JUMPDEST JUMPDEST PUSH2 0x4C9B DUP5 DUP3 DUP6 PUSH2 0x3802 JUMP JUMPDEST POP SWAP4 SWAP3 POP POP POP JUMP JUMPDEST PUSH0 DUP3 PUSH1 0x1F DUP4 ADD SLT PUSH2 0x4CB7 JUMPI PUSH2 0x4CB6 PUSH2 0x31B5 JUMP JUMPDEST JUMPDEST DUP2 MLOAD PUSH2 0x4CC7 DUP5 DUP3 PUSH1 0x20 DUP7 ADD PUSH2 0x4C62 JUMP JUMPDEST SWAP2 POP POP SWAP3 SWAP2 POP POP JUMP JUMPDEST PUSH0 DUP2 MLOAD SWAP1 POP PUSH2 0x4CDE DUP2 PUSH2 0x34FC JUMP JUMPDEST SWAP3 SWAP2 POP POP JUMP JUMPDEST PUSH0 PUSH1 0x40 DUP3 DUP5 SUB SLT ISZERO PUSH2 0x4CF9 JUMPI PUSH2 0x4CF8 PUSH2 0x3D61 JUMP JUMPDEST JUMPDEST PUSH2 0x4D03 PUSH1 0x40 PUSH2 0x34B7 JUMP JUMPDEST SWAP1 POP PUSH0 DUP3 ADD MLOAD PUSH8 0xFFFFFFFFFFFFFFFF DUP2 GT ISZERO PUSH2 0x4D22 JUMPI PUSH2 0x4D21 PUSH2 0x3D65 JUMP JUMPDEST JUMPDEST PUSH2 0x4D2E DUP5 DUP3 DUP6 ADD PUSH2 0x4CA3 JUMP JUMPDEST PUSH0 DUP4 ADD MSTORE POP PUSH1 0x20 PUSH2 0x4D41 DUP5 DUP3 DUP6 ADD PUSH2 0x4CD0 JUMP JUMPDEST PUSH1 0x20 DUP4 ADD MSTORE POP SWAP3 SWAP2 POP POP JUMP JUMPDEST PUSH0 PUSH2 0x4D5F PUSH2 0x4D5A DUP5 PUSH2 0x4C37 JUMP JUMPDEST PUSH2 0x34B7 JUMP JUMPDEST SWAP1 POP DUP1 DUP4 DUP3 MSTORE PUSH1 0x20 DUP3 ADD SWAP1 POP PUSH1 0x20 DUP5 MUL DUP4 ADD DUP6 DUP2 GT ISZERO PUSH2 0x4D82 JUMPI PUSH2 0x4D81 PUSH2 0x31BD JUMP JUMPDEST JUMPDEST DUP4 JUMPDEST DUP2 DUP2 LT ISZERO PUSH2 0x4DC9 JUMPI DUP1 MLOAD PUSH8 0xFFFFFFFFFFFFFFFF DUP2 GT ISZERO PUSH2 0x4DA7 JUMPI PUSH2 0x4DA6 PUSH2 0x31B5 JUMP JUMPDEST JUMPDEST DUP1 DUP7 ADD PUSH2 0x4DB4 DUP10 DUP3 PUSH2 0x4CE4 JUMP JUMPDEST DUP6 MSTORE PUSH1 0x20 DUP6 ADD SWAP5 POP POP POP PUSH1 0x20 DUP2 ADD SWAP1 POP PUSH2 0x4D84 JUMP JUMPDEST POP POP POP SWAP4 SWAP3 POP POP POP JUMP JUMPDEST PUSH0 DUP3 PUSH1 0x1F DUP4 ADD SLT PUSH2 0x4DE7 JUMPI PUSH2 0x4DE6 PUSH2 0x31B5 JUMP JUMPDEST JUMPDEST DUP2 MLOAD PUSH2 0x4DF7 DUP5 DUP3 PUSH1 0x20 DUP7 ADD PUSH2 0x4D4D JUMP JUMPDEST SWAP2 POP POP SWAP3 SWAP2 POP POP JUMP JUMPDEST PUSH0 PUSH1 0x20 DUP3 DUP5 SUB SLT ISZERO PUSH2 0x4E15 JUMPI PUSH2 0x4E14 PUSH2 0x3153 JUMP JUMPDEST JUMPDEST PUSH0 DUP3 ADD MLOAD PUSH8 0xFFFFFFFFFFFFFFFF DUP2 GT ISZERO PUSH2 0x4E32 JUMPI PUSH2 0x4E31 PUSH2 0x3157 JUMP JUMPDEST JUMPDEST PUSH2 0x4E3E DUP5 DUP3 DUP6 ADD PUSH2 0x4DD3 JUMP JUMPDEST SWAP2 POP POP SWAP3 SWAP2 POP POP JUMP JUMPDEST DUP1 DUP3 MSTORE POP POP JUMP JUMPDEST PUSH2 0x4E57 DUP2 PUSH2 0x317A JUMP JUMPDEST DUP3 MSTORE POP POP JUMP JUMPDEST PUSH2 0x4E66 DUP2 PUSH2 0x3273 JUMP JUMPDEST DUP3 MSTORE POP POP JUMP JUMPDEST PUSH0 DUP2 MLOAD SWAP1 POP SWAP2 SWAP1 POP JUMP JUMPDEST PUSH0 DUP3 DUP3 MSTORE PUSH1 0x20 DUP3 ADD SWAP1 POP SWAP3 SWAP2 POP POP JUMP JUMPDEST PUSH0 DUP2 SWAP1 POP PUSH1 0x20 DUP3 ADD SWAP1 POP SWAP2 SWAP1 POP JUMP JUMPDEST PUSH0 DUP3 DUP3 MSTORE PUSH1 0x20 DUP3 ADD SWAP1 POP SWAP3 SWAP2 POP POP JUMP JUMPDEST PUSH0 PUSH2 0x4EAF DUP3 PUSH2 0x37E8 JUMP JUMPDEST PUSH2 0x4EB9 DUP2 DUP6 PUSH2 0x4E95 JUMP JUMPDEST SWAP4 POP PUSH2 0x4EC9 DUP2 DUP6 PUSH1 0x20 DUP7 ADD PUSH2 0x3802 JUMP JUMPDEST PUSH2 0x4ED2 DUP2 PUSH2 0x3449 JUMP JUMPDEST DUP5 ADD SWAP2 POP POP SWAP3 SWAP2 POP POP JUMP JUMPDEST PUSH2 0x4EE6 DUP2 PUSH2 0x330E JUMP JUMPDEST DUP3 MSTORE POP POP JUMP JUMPDEST PUSH0 PUSH1 0x40 DUP4 ADD PUSH0 DUP4 ADD MLOAD DUP5 DUP3 SUB PUSH0 DUP7 ADD MSTORE PUSH2 0x4F06 DUP3 DUP3 PUSH2 0x4EA5 JUMP JUMPDEST SWAP2 POP POP PUSH1 0x20 DUP4 ADD MLOAD PUSH2 0x4F1B PUSH1 0x20 DUP7 ADD DUP3 PUSH2 0x4EDD JUMP JUMPDEST POP DUP1 SWAP2 POP POP SWAP3 SWAP2 POP POP JUMP JUMPDEST PUSH0 PUSH2 0x4F31 DUP4 DUP4 PUSH2 0x4EEC JUMP JUMPDEST SWAP1 POP SWAP3 SWAP2 POP POP JUMP JUMPDEST PUSH0 PUSH1 0x20 DUP3 ADD SWAP1 POP SWAP2 SWAP1 POP JUMP JUMPDEST PUSH0 PUSH2 0x4F4F DUP3 PUSH2 0x4E6C JUMP JUMPDEST PUSH2 0x4F59 DUP2 DUP6 PUSH2 0x4E76 JUMP JUMPDEST SWAP4 POP DUP4 PUSH1 0x20 DUP3 MUL DUP6 ADD PUSH2 0x4F6B DUP6 PUSH2 0x4E86 JUMP JUMPDEST DUP1 PUSH0 JUMPDEST DUP6 DUP2 LT ISZERO PUSH2 0x4FA6 JUMPI DUP5 DUP5 SUB DUP10 MSTORE DUP2 MLOAD PUSH2 0x4F87 DUP6 DUP3 PUSH2 0x4F26 JUMP JUMPDEST SWAP5 POP PUSH2 0x4F92 DUP4 PUSH2 0x4F39 JUMP JUMPDEST SWAP3 POP PUSH1 0x20 DUP11 ADD SWAP10 POP POP PUSH1 0x1 DUP2 ADD SWAP1 POP PUSH2 0x4F6E JUMP JUMPDEST POP DUP3 SWAP8 POP DUP8 SWAP6 POP POP POP POP POP POP SWAP3 SWAP2 POP POP JUMP JUMPDEST PUSH0 PUSH1 0x80 DUP3 ADD SWAP1 POP PUSH2 0x4FCB PUSH0 DUP4 ADD DUP8 PUSH2 0x4E47 JUMP JUMPDEST PUSH2 0x4FD8 PUSH1 0x20 DUP4 ADD DUP7 PUSH2 0x4E4E JUMP JUMPDEST PUSH2 0x4FE5 PUSH1 0x40 DUP4 ADD DUP6 PUSH2 0x4E5D JUMP JUMPDEST DUP2 DUP2 SUB PUSH1 0x60 DUP4 ADD MSTORE PUSH2 0x4FF7 DUP2 DUP5 PUSH2 0x4F45 JUMP JUMPDEST SWAP1 POP SWAP6 SWAP5 POP POP POP POP POP JUMP JUMPDEST PUSH32 0x4D65746164617461206E6F7420737570706F7274656420796574000000000000 PUSH0 DUP3 ADD MSTORE POP JUMP JUMPDEST PUSH0 PUSH2 0x5036 PUSH1 0x1A DUP4 PUSH2 0x3943 JUMP JUMPDEST SWAP2 POP PUSH2 0x5041 DUP3 PUSH2 0x5002 JUMP JUMPDEST PUSH1 0x20 DUP3 ADD SWAP1 POP SWAP2 SWAP1 POP JUMP JUMPDEST PUSH0 PUSH1 0x20 DUP3 ADD SWAP1 POP DUP2 DUP2 SUB PUSH0 DUP4 ADD MSTORE PUSH2 0x5063 DUP2 PUSH2 0x502A JUMP JUMPDEST SWAP1 POP SWAP2 SWAP1 POP JUMP JUMPDEST PUSH32 0x526571756573742069732064697361626C656400000000000000000000000000 PUSH0 DUP3 ADD MSTORE POP JUMP JUMPDEST PUSH0 PUSH2 0x509E PUSH1 0x13 DUP4 PUSH2 0x3943 JUMP JUMPDEST SWAP2 POP PUSH2 0x50A9 DUP3 PUSH2 0x506A JUMP JUMPDEST PUSH1 0x20 DUP3 ADD SWAP1 POP SWAP2 SWAP1 POP JUMP JUMPDEST PUSH0 PUSH1 0x20 DUP3 ADD SWAP1 POP DUP2 DUP2 SUB PUSH0 DUP4 ADD MSTORE PUSH2 0x50CB DUP2 PUSH2 0x5092 JUMP JUMPDEST SWAP1 POP SWAP2 SWAP1 POP JUMP JUMPDEST PUSH0 DUP2 MLOAD SWAP1 POP SWAP2 SWAP1 POP JUMP JUMPDEST PUSH0 DUP3 DUP3 MSTORE PUSH1 0x20 DUP3 ADD SWAP1 POP SWAP3 SWAP2 POP POP JUMP JUMPDEST PUSH0 DUP2 SWAP1 POP PUSH1 0x20 DUP3 ADD SWAP1 POP SWAP2 SWAP1 POP JUMP JUMPDEST PUSH0 PUSH2 0x5106 DUP4 DUP4 PUSH2 0x3848 JUMP JUMPDEST PUSH1 0x20 DUP4 ADD SWAP1 POP SWAP3 SWAP2 POP POP JUMP JUMPDEST PUSH0 PUSH1 0x20 DUP3 ADD SWAP1 POP SWAP2 SWAP1 POP JUMP JUMPDEST PUSH0 PUSH2 0x5128 DUP3 PUSH2 0x50D2 JUMP JUMPDEST PUSH2 0x5132 DUP2 DUP6 PUSH2 0x50DC JUMP JUMPDEST SWAP4 POP PUSH2 0x513D DUP4 PUSH2 0x50EC JUMP JUMPDEST DUP1 PUSH0 JUMPDEST DUP4 DUP2 LT ISZERO PUSH2 0x516D JUMPI DUP2 MLOAD PUSH2 0x5154 DUP9 DUP3 PUSH2 0x50FB JUMP JUMPDEST SWAP8 POP PUSH2 0x515F DUP4 PUSH2 0x5112 JUMP JUMPDEST SWAP3 POP POP PUSH1 0x1 DUP2 ADD SWAP1 POP PUSH2 0x5140 JUMP JUMPDEST POP DUP6 SWAP4 POP POP POP POP SWAP3 SWAP2 POP POP JUMP JUMPDEST PUSH0 PUSH1 0x2 SWAP1 POP SWAP2 SWAP1 POP JUMP JUMPDEST PUSH0 DUP2 SWAP1 POP SWAP3 SWAP2 POP POP JUMP JUMPDEST PUSH0 DUP2 SWAP1 POP SWAP2 SWAP1 POP JUMP JUMPDEST PUSH0 PUSH1 0x20 DUP3 ADD SWAP1 POP SWAP2 SWAP1 POP JUMP JUMPDEST PUSH2 0x51AC DUP2 PUSH2 0x517A JUMP JUMPDEST PUSH2 0x51B6 DUP2 DUP5 PUSH2 0x5184 JUMP JUMPDEST SWAP3 POP PUSH2 0x51C1 DUP3 PUSH2 0x518E JUMP JUMPDEST DUP1 PUSH0 JUMPDEST DUP4 DUP2 LT ISZERO PUSH2 0x51F1 JUMPI DUP2 MLOAD PUSH2 0x51D8 DUP8 DUP3 PUSH2 0x50FB JUMP JUMPDEST SWAP7 POP PUSH2 0x51E3 DUP4 PUSH2 0x5197 JUMP JUMPDEST SWAP3 POP POP PUSH1 0x1 DUP2 ADD SWAP1 POP PUSH2 0x51C4 JUMP JUMPDEST POP POP POP POP POP POP JUMP JUMPDEST PUSH0 PUSH1 0x2 SWAP1 POP SWAP2 SWAP1 POP JUMP JUMPDEST PUSH0 DUP2 SWAP1 POP SWAP3 SWAP2 POP POP JUMP JUMPDEST PUSH0 DUP2 SWAP1 POP SWAP2 SWAP1 POP JUMP JUMPDEST PUSH0 DUP2 SWAP1 POP SWAP3 SWAP2 POP POP JUMP JUMPDEST PUSH2 0x5229 DUP2 PUSH2 0x517A JUMP JUMPDEST PUSH2 0x5233 DUP2 DUP5 PUSH2 0x5216 JUMP JUMPDEST SWAP3 POP PUSH2 0x523E DUP3 PUSH2 0x518E JUMP JUMPDEST DUP1 PUSH0 JUMPDEST DUP4 DUP2 LT ISZERO PUSH2 0x526E JUMPI DUP2 MLOAD PUSH2 0x5255 DUP8 DUP3 PUSH2 0x50FB JUMP JUMPDEST SWAP7 POP PUSH2 0x5260 DUP4 PUSH2 0x5197 JUMP JUMPDEST SWAP3 POP POP PUSH1 0x1 DUP2 ADD SWAP1 POP PUSH2 0x5241 JUMP JUMPDEST POP POP POP POP POP POP JUMP JUMPDEST PUSH0 PUSH2 0x5281 DUP4 DUP4 PUSH2 0x5220 JUMP JUMPDEST PUSH1 0x40 DUP4 ADD SWAP1 POP SWAP3 SWAP2 POP POP JUMP JUMPDEST PUSH0 PUSH1 0x20 DUP3 ADD SWAP1 POP SWAP2 SWAP1 POP JUMP JUMPDEST PUSH2 0x52A2 DUP2 PUSH2 0x51F9 JUMP JUMPDEST PUSH2 0x52AC DUP2 DUP5 PUSH2 0x5203 JUMP JUMPDEST SWAP3 POP PUSH2 0x52B7 DUP3 PUSH2 0x520D JUMP JUMPDEST DUP1 PUSH0 JUMPDEST DUP4 DUP2 LT ISZERO PUSH2 0x52E7 JUMPI DUP2 MLOAD PUSH2 0x52CE DUP8 DUP3 PUSH2 0x5276 JUMP JUMPDEST SWAP7 POP PUSH2 0x52D9 DUP4 PUSH2 0x528D JUMP JUMPDEST SWAP3 POP POP PUSH1 0x1 DUP2 ADD SWAP1 POP PUSH2 0x52BA JUMP JUMPDEST POP POP POP POP POP POP JUMP JUMPDEST PUSH0 DUP2 SWAP1 POP DUP2 PUSH0 MSTORE PUSH1 0x20 PUSH0 KECCAK256 SWAP1 POP SWAP2 SWAP1 POP JUMP JUMPDEST PUSH0 DUP2 SLOAD PUSH2 0x530D DUP2 PUSH2 0x4666 JUMP JUMPDEST PUSH2 0x5317 DUP2 DUP7 PUSH2 0x4792 JUMP JUMPDEST SWAP5 POP PUSH1 0x1 DUP3 AND PUSH0 DUP2 EQ PUSH2 0x5331 JUMPI PUSH1 0x1 DUP2 EQ PUSH2 0x5347 JUMPI PUSH2 0x5379 JUMP JUMPDEST PUSH1 0xFF NOT DUP4 AND DUP7 MSTORE DUP2 ISZERO ISZERO PUSH1 0x20 MUL DUP7 ADD SWAP4 POP PUSH2 0x5379 JUMP JUMPDEST PUSH2 0x5350 DUP6 PUSH2 0x52EF JUMP JUMPDEST PUSH0 JUMPDEST DUP4 DUP2 LT ISZERO PUSH2 0x5371 JUMPI DUP2 SLOAD DUP2 DUP10 ADD MSTORE PUSH1 0x1 DUP3 ADD SWAP2 POP PUSH1 0x20 DUP2 ADD SWAP1 POP PUSH2 0x5352 JUMP JUMPDEST DUP1 DUP9 ADD SWAP6 POP POP POP JUMPDEST POP POP POP SWAP3 SWAP2 POP POP JUMP JUMPDEST PUSH0 PUSH2 0x160 DUP3 ADD SWAP1 POP DUP2 DUP2 SUB PUSH0 DUP4 ADD MSTORE PUSH2 0x539B DUP2 DUP10 PUSH2 0x511E JUMP JUMPDEST SWAP1 POP PUSH2 0x53AA PUSH1 0x20 DUP4 ADD DUP9 PUSH2 0x51A3 JUMP JUMPDEST PUSH2 0x53B7 PUSH1 0x60 DUP4 ADD DUP8 PUSH2 0x5299 JUMP JUMPDEST PUSH2 0x53C4 PUSH1 0xE0 DUP4 ADD DUP7 PUSH2 0x51A3 JUMP JUMPDEST DUP2 DUP2 SUB PUSH2 0x120 DUP4 ADD MSTORE PUSH2 0x53D7 DUP2 DUP6 PUSH2 0x5301 JUMP JUMPDEST SWAP1 POP PUSH2 0x53E7 PUSH2 0x140 DUP4 ADD DUP5 PUSH2 0x333F JUMP JUMPDEST SWAP8 SWAP7 POP POP POP POP POP POP POP JUMP JUMPDEST PUSH0 PUSH8 0xFFFFFFFFFFFFFFFF DUP3 GT ISZERO PUSH2 0x540C JUMPI PUSH2 0x540B PUSH2 0x3459 JUMP JUMPDEST JUMPDEST PUSH1 0x20 DUP3 MUL SWAP1 POP PUSH1 0x20 DUP2 ADD SWAP1 POP SWAP2 SWAP1 POP JUMP JUMPDEST PUSH0 PUSH1 0x40 DUP3 DUP5 SUB SLT ISZERO PUSH2 0x5432 JUMPI PUSH2 0x5431 PUSH2 0x3D61 JUMP JUMPDEST JUMPDEST PUSH2 0x543C PUSH1 0x40 PUSH2 0x34B7 JUMP JUMPDEST SWAP1 POP PUSH0 DUP3 ADD MLOAD PUSH8 0xFFFFFFFFFFFFFFFF DUP2 GT ISZERO PUSH2 0x545B JUMPI PUSH2 0x545A PUSH2 0x3D65 JUMP JUMPDEST JUMPDEST PUSH2 0x5467 DUP5 DUP3 DUP6 ADD PUSH2 0x4CA3 JUMP JUMPDEST PUSH0 DUP4 ADD MSTORE POP PUSH1 0x20 PUSH2 0x547A DUP5 DUP3 DUP6 ADD PUSH2 0x4CD0 JUMP JUMPDEST PUSH1 0x20 DUP4 ADD MSTORE POP SWAP3 SWAP2 POP POP JUMP JUMPDEST PUSH0 PUSH2 0x5498 PUSH2 0x5493 DUP5 PUSH2 0x53F2 JUMP JUMPDEST PUSH2 0x34B7 JUMP JUMPDEST SWAP1 POP DUP1 DUP4 DUP3 MSTORE PUSH1 0x20 DUP3 ADD SWAP1 POP PUSH1 0x20 DUP5 MUL DUP4 ADD DUP6 DUP2 GT ISZERO PUSH2 0x54BB JUMPI PUSH2 0x54BA PUSH2 0x31BD JUMP JUMPDEST JUMPDEST DUP4 JUMPDEST DUP2 DUP2 LT ISZERO PUSH2 0x5502 JUMPI DUP1 MLOAD PUSH8 0xFFFFFFFFFFFFFFFF DUP2 GT ISZERO PUSH2 0x54E0 JUMPI PUSH2 0x54DF PUSH2 0x31B5 JUMP JUMPDEST JUMPDEST DUP1 DUP7 ADD PUSH2 0x54ED DUP10 DUP3 PUSH2 0x541D JUMP JUMPDEST DUP6 MSTORE PUSH1 0x20 DUP6 ADD SWAP5 POP POP POP PUSH1 0x20 DUP2 ADD SWAP1 POP PUSH2 0x54BD JUMP JUMPDEST POP POP POP SWAP4 SWAP3 POP POP POP JUMP JUMPDEST PUSH0 DUP3 PUSH1 0x1F DUP4 ADD SLT PUSH2 0x5520 JUMPI PUSH2 0x551F PUSH2 0x31B5 JUMP JUMPDEST JUMPDEST DUP2 MLOAD PUSH2 0x5530 DUP5 DUP3 PUSH1 0x20 DUP7 ADD PUSH2 0x5486 JUMP JUMPDEST SWAP2 POP POP SWAP3 SWAP2 POP POP JUMP JUMPDEST PUSH0 PUSH1 0x20 DUP3 DUP5 SUB SLT ISZERO PUSH2 0x554E JUMPI PUSH2 0x554D PUSH2 0x3153 JUMP JUMPDEST JUMPDEST PUSH0 DUP3 ADD MLOAD PUSH8 0xFFFFFFFFFFFFFFFF DUP2 GT ISZERO PUSH2 0x556B JUMPI PUSH2 0x556A PUSH2 0x3157 JUMP JUMPDEST JUMPDEST PUSH2 0x5577 DUP5 DUP3 DUP6 ADD PUSH2 0x550C JUMP JUMPDEST SWAP2 POP POP SWAP3 SWAP2 POP POP JUMP JUMPDEST PUSH0 DUP3 SWAP1 POP SWAP3 SWAP2 POP POP JUMP JUMPDEST PUSH0 DUP2 SWAP1 POP DUP2 PUSH0 MSTORE PUSH1 0x20 PUSH0 KECCAK256 SWAP1 POP SWAP2 SWAP1 POP JUMP JUMPDEST PUSH0 PUSH1 0x20 PUSH1 0x1F DUP4 ADD DIV SWAP1 POP SWAP2 SWAP1 POP JUMP JUMPDEST PUSH0 DUP3 DUP3 SHL SWAP1 POP SWAP3 SWAP2 POP POP JUMP JUMPDEST PUSH0 PUSH1 0x8 DUP4 MUL PUSH2 0x55E6 PUSH32 0xFFFFFFFFFFFFFFFFFFFFFFFFFFFFFFFFFFFFFFFFFFFFFFFFFFFFFFFFFFFFFFFF DUP3 PUSH2 0x55AB JUMP JUMPDEST PUSH2 0x55F0 DUP7 DUP4 PUSH2 0x55AB JUMP JUMPDEST SWAP6 POP DUP1 NOT DUP5 AND SWAP4 POP DUP1 DUP7 AND DUP5 OR SWAP3 POP POP POP SWAP4 SWAP3 POP POP POP JUMP JUMPDEST PUSH0 PUSH2 0x5622 PUSH2 0x561D PUSH2 0x5618 DUP5 PUSH2 0x330E JUMP JUMPDEST PUSH2 0x3A78 JUMP JUMPDEST PUSH2 0x330E JUMP JUMPDEST SWAP1 POP SWAP2 SWAP1 POP JUMP JUMPDEST PUSH0 DUP2 SWAP1 POP SWAP2 SWAP1 POP JUMP JUMPDEST PUSH2 0x563B DUP4 PUSH2 0x5608 JUMP JUMPDEST PUSH2 0x564F PUSH2 0x5647 DUP3 PUSH2 0x5629 JUMP JUMPDEST DUP5 DUP5 SLOAD PUSH2 0x55B7 JUMP JUMPDEST DUP3 SSTORE POP POP POP POP JUMP JUMPDEST PUSH0 PUSH0 SWAP1 POP SWAP1 JUMP JUMPDEST PUSH2 0x5666 PUSH2 0x5657 JUMP JUMPDEST PUSH2 0x5671 DUP2 DUP5 DUP5 PUSH2 0x5632 JUMP JUMPDEST POP POP POP JUMP JUMPDEST JUMPDEST DUP2 DUP2 LT ISZERO PUSH2 0x5694 JUMPI PUSH2 0x5689 PUSH0 DUP3 PUSH2 0x565E JUMP JUMPDEST PUSH1 0x1 DUP2 ADD SWAP1 POP PUSH2 0x5677 JUMP JUMPDEST POP POP JUMP JUMPDEST PUSH1 0x1F DUP3 GT ISZERO PUSH2 0x56D9 JUMPI PUSH2 0x56AA DUP2 PUSH2 0x558A JUMP JUMPDEST PUSH2 0x56B3 DUP5 PUSH2 0x559C JUMP JUMPDEST DUP2 ADD PUSH1 0x20 DUP6 LT ISZERO PUSH2 0x56C2 JUMPI DUP2 SWAP1 POP JUMPDEST PUSH2 0x56D6 PUSH2 0x56CE DUP6 PUSH2 0x559C JUMP JUMPDEST DUP4 ADD DUP3 PUSH2 0x5676 JUMP JUMPDEST POP POP JUMPDEST POP POP POP JUMP JUMPDEST PUSH0 DUP3 DUP3 SHR SWAP1 POP SWAP3 SWAP2 POP POP JUMP JUMPDEST PUSH0 PUSH2 0x56F9 PUSH0 NOT DUP5 PUSH1 0x8 MUL PUSH2 0x56DE JUMP JUMPDEST NOT DUP1 DUP4 AND SWAP2 POP POP SWAP3 SWAP2 POP POP JUMP JUMPDEST PUSH0 PUSH2 0x5711 DUP4 DUP4 PUSH2 0x56EA JUMP JUMPDEST SWAP2 POP DUP3 PUSH1 0x2 MUL DUP3 OR SWAP1 POP SWAP3 SWAP2 POP POP JUMP JUMPDEST PUSH2 0x572B DUP4 DUP4 PUSH2 0x5580 JUMP JUMPDEST PUSH8 0xFFFFFFFFFFFFFFFF DUP2 GT ISZERO PUSH2 0x5744 JUMPI PUSH2 0x5743 PUSH2 0x3459 JUMP JUMPDEST JUMPDEST PUSH2 0x574E DUP3 SLOAD PUSH2 0x4666 JUMP JUMPDEST PUSH2 0x5759 DUP3 DUP3 DUP6 PUSH2 0x5698 JUMP JUMPDEST PUSH0 PUSH1 0x1F DUP4 GT PUSH1 0x1 DUP2 EQ PUSH2 0x5786 JUMPI PUSH0 DUP5 ISZERO PUSH2 0x5774 JUMPI DUP3 DUP8 ADD CALLDATALOAD SWAP1 POP JUMPDEST PUSH2 0x577E DUP6 DUP3 PUSH2 0x5706 JUMP JUMPDEST DUP7 SSTORE POP PUSH2 0x57E5 JUMP JUMPDEST PUSH1 0x1F NOT DUP5 AND PUSH2 0x5794 DUP7 PUSH2 0x558A JUMP JUMPDEST PUSH0 JUMPDEST DUP3 DUP2 LT ISZERO PUSH2 0x57BB JUMPI DUP5 DUP10 ADD CALLDATALOAD DUP3 SSTORE PUSH1 0x1 DUP3 ADD SWAP2 POP PUSH1 0x20 DUP6 ADD SWAP5 POP PUSH1 0x20 DUP2 ADD SWAP1 POP PUSH2 0x5796 JUMP JUMPDEST DUP7 DUP4 LT ISZERO PUSH2 0x57D8 JUMPI DUP5 DUP10 ADD CALLDATALOAD PUSH2 0x57D4 PUSH1 0x1F DUP10 AND DUP3 PUSH2 0x56EA JUMP JUMPDEST DUP4 SSTORE POP JUMPDEST PUSH1 0x1 PUSH1 0x2 DUP9 MUL ADD DUP9 SSTORE POP POP POP JUMPDEST POP POP POP POP POP POP POP JUMP JUMPDEST PUSH2 0x57F9 DUP4 DUP4 DUP4 PUSH2 0x5721 JUMP JUMPDEST POP POP POP JUMP JUMPDEST PUSH0 DUP2 CALLDATALOAD PUSH2 0x580A DUP2 PUSH2 0x39BC JUMP JUMPDEST DUP1 SWAP2 POP POP SWAP2 SWAP1 POP JUMP JUMPDEST PUSH0 DUP2 PUSH0 SHL SWAP1 POP SWAP2 SWAP1 POP JUMP JUMPDEST PUSH0 PUSH20 0xFFFFFFFFFFFFFFFFFFFFFFFFFFFFFFFFFFFFFFFF PUSH2 0x583D DUP5 PUSH2 0x5813 JUMP JUMPDEST SWAP4 POP DUP1 NOT DUP4 AND SWAP3 POP DUP1 DUP5 AND DUP4 OR SWAP2 POP POP SWAP3 SWAP2 POP POP JUMP JUMPDEST PUSH0 PUSH2 0x585D DUP3 PUSH2 0x3A81 JUMP JUMPDEST SWAP1 POP SWAP2 SWAP1 POP JUMP JUMPDEST PUSH0 PUSH2 0x586E DUP3 PUSH2 0x5853 JUMP JUMPDEST SWAP1 POP SWAP2 SWAP1 POP JUMP JUMPDEST PUSH0 DUP2 SWAP1 POP SWAP2 SWAP1 POP JUMP JUMPDEST PUSH2 0x5887 DUP3 PUSH2 0x5864 JUMP JUMPDEST PUSH2 0x589A PUSH2 0x5893 DUP3 PUSH2 0x5875 JUMP JUMPDEST DUP4 SLOAD PUSH2 0x581E JUMP JUMPDEST DUP3 SSTORE POP POP POP JUMP JUMPDEST PUSH0 DUP3 SWAP1 POP SWAP3 SWAP2 POP POP JUMP JUMPDEST PUSH1 0x1F DUP3 GT ISZERO PUSH2 0x58EC JUMPI PUSH2 0x58BD DUP2 PUSH2 0x52EF JUMP JUMPDEST PUSH2 0x58C6 DUP5 PUSH2 0x559C JUMP JUMPDEST DUP2 ADD PUSH1 0x20 DUP6 LT ISZERO PUSH2 0x58D5 JUMPI DUP2 SWAP1 POP JUMPDEST PUSH2 0x58E9 PUSH2 0x58E1 DUP6 PUSH2 0x559C JUMP JUMPDEST DUP4 ADD DUP3 PUSH2 0x5676 JUMP JUMPDEST POP POP JUMPDEST POP POP POP JUMP JUMPDEST PUSH2 0x58FB DUP4 DUP4 PUSH2 0x58A1 JUMP JUMPDEST PUSH8 0xFFFFFFFFFFFFFFFF DUP2 GT ISZERO PUSH2 0x5914 JUMPI PUSH2 0x5913 PUSH2 0x3459 JUMP JUMPDEST JUMPDEST PUSH2 0x591E DUP3 SLOAD PUSH2 0x4666 JUMP JUMPDEST PUSH2 0x5929 DUP3 DUP3 DUP6 PUSH2 0x58AB JUMP JUMPDEST PUSH0 PUSH1 0x1F DUP4 GT PUSH1 0x1 DUP2 EQ PUSH2 0x5956 JUMPI PUSH0 DUP5 ISZERO PUSH2 0x5944 JUMPI DUP3 DUP8 ADD CALLDATALOAD SWAP1 POP JUMPDEST PUSH2 0x594E DUP6 DUP3 PUSH2 0x5706 JUMP JUMPDEST DUP7 SSTORE POP PUSH2 0x59B5 JUMP JUMPDEST PUSH1 0x1F NOT DUP5 AND PUSH2 0x5964 DUP7 PUSH2 0x52EF JUMP JUMPDEST PUSH0 JUMPDEST DUP3 DUP2 LT ISZERO PUSH2 0x598B JUMPI DUP5 DUP10 ADD CALLDATALOAD DUP3 SSTORE PUSH1 0x1 DUP3 ADD SWAP2 POP PUSH1 0x20 DUP6 ADD SWAP5 POP PUSH1 0x20 DUP2 ADD SWAP1 POP PUSH2 0x5966 JUMP JUMPDEST DUP7 DUP4 LT ISZERO PUSH2 0x59A8 JUMPI DUP5 DUP10 ADD CALLDATALOAD PUSH2 0x59A4 PUSH1 0x1F DUP10 AND DUP3 PUSH2 0x56EA JUMP JUMPDEST DUP4 SSTORE POP JUMPDEST PUSH1 0x1 PUSH1 0x2 DUP9 MUL ADD DUP9 SSTORE POP POP POP JUMPDEST POP POP POP POP POP POP POP JUMP JUMPDEST PUSH2 0x59C9 DUP4 DUP4 DUP4 PUSH2 0x58F1 JUMP JUMPDEST POP POP POP JUMP JUMPDEST PUSH0 DUP2 ADD PUSH0 DUP4 ADD PUSH2 0x59DE DUP2 DUP6 PUSH2 0x46A2 JUMP JUMPDEST PUSH2 0x59E9 DUP2 DUP4 DUP7 PUSH2 0x57EE JUMP JUMPDEST POP POP POP POP PUSH1 0x1 DUP2 ADD PUSH1 0x20 DUP4 ADD DUP1 PUSH2 0x59FF DUP2 PUSH2 0x57FE JUMP JUMPDEST SWAP1 POP PUSH2 0x5A0B DUP2 DUP5 PUSH2 0x587E JUMP JUMPDEST POP POP POP PUSH1 0x2 DUP2 ADD PUSH1 0x40 DUP4 ADD PUSH2 0x5A20 DUP2 DUP6 PUSH2 0x4704 JUMP JUMPDEST PUSH2 0x5A2B DUP2 DUP4 DUP7 PUSH2 0x59BE JUMP JUMPDEST POP POP POP POP POP POP JUMP JUMPDEST PUSH2 0x5A3D DUP3 DUP3 PUSH2 0x59CE JUMP JUMPDEST POP POP JUMP JUMPDEST PUSH0 PUSH2 0x160 DUP3 ADD SWAP1 POP DUP2 DUP2 SUB PUSH0 DUP4 ADD MSTORE PUSH2 0x5A5A DUP2 DUP10 PUSH2 0x511E JUMP JUMPDEST SWAP1 POP PUSH2 0x5A69 PUSH1 0x20 DUP4 ADD DUP9 PUSH2 0x51A3 JUMP JUMPDEST PUSH2 0x5A76 PUSH1 0x60 DUP4 ADD DUP8 PUSH2 0x5299 JUMP JUMPDEST PUSH2 0x5A83 PUSH1 0xE0 DUP4 ADD DUP7 PUSH2 0x51A3 JUMP JUMPDEST DUP2 DUP2 SUB PUSH2 0x120 DUP4 ADD MSTORE PUSH2 0x5A96 DUP2 DUP6 PUSH2 0x4B6E JUMP JUMPDEST SWAP1 POP PUSH2 0x5AA6 PUSH2 0x140 DUP4 ADD DUP5 PUSH2 0x333F JUMP JUMPDEST SWAP8 SWAP7 POP POP POP POP POP POP POP JUMP JUMPDEST PUSH0 DUP3 DUP3 MSTORE PUSH1 0x20 DUP3 ADD SWAP1 POP SWAP3 SWAP2 POP POP JUMP JUMPDEST PUSH0 PUSH1 0x40 DUP4 ADD PUSH0 DUP4 ADD MLOAD DUP5 DUP3 SUB PUSH0 DUP7 ADD MSTORE PUSH2 0x5ADB DUP3 DUP3 PUSH2 0x4EA5 JUMP JUMPDEST SWAP2 POP POP PUSH1 0x20 DUP4 ADD MLOAD PUSH2 0x5AF0 PUSH1 0x20 DUP7 ADD DUP3 PUSH2 0x4EDD JUMP JUMPDEST POP DUP1 SWAP2 POP POP SWAP3 SWAP2 POP POP JUMP JUMPDEST PUSH0 PUSH2 0x5B06 DUP4 DUP4 PUSH2 0x5AC1 JUMP JUMPDEST SWAP1 POP SWAP3 SWAP2 POP POP JUMP JUMPDEST PUSH0 PUSH2 0x5B18 DUP3 PUSH2 0x37BF JUMP JUMPDEST PUSH2 0x5B22 DUP2 DUP6 PUSH2 0x5AB1 JUMP JUMPDEST SWAP4 POP DUP4 PUSH1 0x20 DUP3 MUL DUP6 ADD PUSH2 0x5B34 DUP6 PUSH2 0x37D9 JUMP JUMPDEST DUP1 PUSH0 JUMPDEST DUP6 DUP2 LT ISZERO PUSH2 0x5B6F JUMPI DUP5 DUP5 SUB DUP10 MSTORE DUP2 MLOAD PUSH2 0x5B50 DUP6 DUP3 PUSH2 0x5AFB JUMP JUMPDEST SWAP5 POP PUSH2 0x5B5B DUP4 PUSH2 0x38A4 JUMP JUMPDEST SWAP3 POP PUSH1 0x20 DUP11 ADD SWAP10 POP POP PUSH1 0x1 DUP2 ADD SWAP1 POP PUSH2 0x5B37 JUMP JUMPDEST POP DUP3 SWAP8 POP DUP8 SWAP6 POP POP POP POP POP POP SWAP3 SWAP2 POP POP JUMP JUMPDEST PUSH0 DUP3 DUP3 MSTORE PUSH1 0x20 DUP3 ADD SWAP1 POP SWAP3 SWAP2 POP POP JUMP JUMPDEST PUSH0 PUSH2 0x5B9C DUP4 DUP4 PUSH2 0x4EDD JUMP JUMPDEST PUSH1 0x20 DUP4 ADD SWAP1 POP SWAP3 SWAP2 POP POP JUMP JUMPDEST PUSH0 PUSH2 0x5BB2 DUP3 PUSH2 0x50D2 JUMP JUMPDEST PUSH2 0x5BBC DUP2 DUP6 PUSH2 0x5B81 JUMP JUMPDEST SWAP4 POP PUSH2 0x5BC7 DUP4 PUSH2 0x50EC JUMP JUMPDEST DUP1 PUSH0 JUMPDEST DUP4 DUP2 LT ISZERO PUSH2 0x5BF7 JUMPI DUP2 MLOAD PUSH2 0x5BDE DUP9 DUP3 PUSH2 0x5B91 JUMP JUMPDEST SWAP8 POP PUSH2 0x5BE9 DUP4 PUSH2 0x5112 JUMP JUMPDEST SWAP3 POP POP PUSH1 0x1 DUP2 ADD SWAP1 POP PUSH2 0x5BCA JUMP JUMPDEST POP DUP6 SWAP4 POP POP POP POP SWAP3 SWAP2 POP POP JUMP JUMPDEST PUSH0 PUSH1 0xA0 DUP3 ADD SWAP1 POP PUSH2 0x5C17 PUSH0 DUP4 ADD DUP9 PUSH2 0x4E47 JUMP JUMPDEST PUSH2 0x5C24 PUSH1 0x20 DUP4 ADD DUP8 PUSH2 0x4E4E JUMP JUMPDEST PUSH2 0x5C31 PUSH1 0x40 DUP4 ADD DUP7 PUSH2 0x4E5D JUMP JUMPDEST DUP2 DUP2 SUB PUSH1 0x60 DUP4 ADD MSTORE PUSH2 0x5C43 DUP2 DUP6 PUSH2 0x5B0E JUMP JUMPDEST SWAP1 POP DUP2 DUP2 SUB PUSH1 0x80 DUP4 ADD MSTORE PUSH2 0x5C57 DUP2 DUP5 PUSH2 0x5BA8 JUMP JUMPDEST SWAP1 POP SWAP7 SWAP6 POP POP POP POP POP POP JUMP INVALID LOG2 PUSH5 0x6970667358 0x22 SLT KECCAK256 MOD DUP12 0xE7 0xE2 SWAP12 0xFC 0x4D 0xE5 0xF6 SSTORE PUSH31 0xF79DCF5C1DAC858E5670F5A8203C183F6EE7E41C7364736F6C634300081B00 CALLER "
	},
	"Assembly": ".code\n  PUSH 80\t\t\tcontract UniversalVerifier is\\...\n  PUSH 40\t\t\tcontract UniversalVerifier is\\...\n  MSTORE \t\t\tcontract UniversalVerifier is\\...\n  CALLVALUE \t\t\tcontract UniversalVerifier is\\...\n  DUP1 \t\t\tcontract UniversalVerifier is\\...\n  ISZERO \t\t\tcontract UniversalVerifier is\\...\n  PUSH [tag] 1\t\t\tcontract UniversalVerifier is\\...\n  JUMPI \t\t\tcontract UniversalVerifier is\\...\n  PUSH 0\t\t\tcontract UniversalVerifier is\\...\n  PUSH 0\t\t\tcontract UniversalVerifier is\\...\n  REVERT \t\t\tcontract UniversalVerifier is\\...\ntag 1\t\t\tcontract UniversalVerifier is\\...\n  JUMPDEST \t\t\tcontract UniversalVerifier is\\...\n  POP \t\t\tcontract UniversalVerifier is\\...\n  PUSH #[$] 0000000000000000000000000000000000000000000000000000000000000000\t\t\tcontract UniversalVerifier is\\...\n  DUP1 \t\t\tcontract UniversalVerifier is\\...\n  PUSH [$] 0000000000000000000000000000000000000000000000000000000000000000\t\t\tcontract UniversalVerifier is\\...\n  PUSH 0\t\t\tcontract UniversalVerifier is\\...\n  CODECOPY \t\t\tcontract UniversalVerifier is\\...\n  PUSH 0\t\t\tcontract UniversalVerifier is\\...\n  RETURN \t\t\tcontract UniversalVerifier is\\...\n.data\n  0:\n    .code\n      PUSH 80\t\t\tcontract UniversalVerifier is\\...\n      PUSH 40\t\t\tcontract UniversalVerifier is\\...\n      MSTORE \t\t\tcontract UniversalVerifier is\\...\n      CALLVALUE \t\t\tcontract UniversalVerifier is\\...\n      DUP1 \t\t\tcontract UniversalVerifier is\\...\n      ISZERO \t\t\tcontract UniversalVerifier is\\...\n      PUSH [tag] 1\t\t\tcontract UniversalVerifier is\\...\n      JUMPI \t\t\tcontract UniversalVerifier is\\...\n      PUSH 0\t\t\tcontract UniversalVerifier is\\...\n      PUSH 0\t\t\tcontract UniversalVerifier is\\...\n      REVERT \t\t\tcontract UniversalVerifier is\\...\n    tag 1\t\t\tcontract UniversalVerifier is\\...\n      JUMPDEST \t\t\tcontract UniversalVerifier is\\...\n      POP \t\t\tcontract UniversalVerifier is\\...\n      PUSH 4\t\t\tcontract UniversalVerifier is\\...\n      CALLDATASIZE \t\t\tcontract UniversalVerifier is\\...\n      LT \t\t\tcontract UniversalVerifier is\\...\n      PUSH [tag] 2\t\t\tcontract UniversalVerifier is\\...\n      JUMPI \t\t\tcontract UniversalVerifier is\\...\n      PUSH 0\t\t\tcontract UniversalVerifier is\\...\n      CALLDATALOAD \t\t\tcontract UniversalVerifier is\\...\n      PUSH E0\t\t\tcontract UniversalVerifier is\\...\n      SHR \t\t\tcontract UniversalVerifier is\\...\n      DUP1 \t\t\tcontract UniversalVerifier is\\...\n      PUSH 715018A6\t\t\tcontract UniversalVerifier is\\...\n      GT \t\t\tcontract UniversalVerifier is\\...\n      PUSH [tag] 34\t\t\tcontract UniversalVerifier is\\...\n      JUMPI \t\t\tcontract UniversalVerifier is\\...\n      DUP1 \t\t\tcontract UniversalVerifier is\\...\n      PUSH ADE09FCD\t\t\tcontract UniversalVerifier is\\...\n      GT \t\t\tcontract UniversalVerifier is\\...\n      PUSH [tag] 35\t\t\tcontract UniversalVerifier is\\...\n      JUMPI \t\t\tcontract UniversalVerifier is\\...\n      DUP1 \t\t\tcontract UniversalVerifier is\\...\n      PUSH D4858051\t\t\tcontract UniversalVerifier is\\...\n      GT \t\t\tcontract UniversalVerifier is\\...\n      PUSH [tag] 36\t\t\tcontract UniversalVerifier is\\...\n      JUMPI \t\t\tcontract UniversalVerifier is\\...\n      DUP1 \t\t\tcontract UniversalVerifier is\\...\n      PUSH D4858051\t\t\tcontract UniversalVerifier is\\...\n      EQ \t\t\tcontract UniversalVerifier is\\...\n      PUSH [tag] 30\t\t\tcontract UniversalVerifier is\\...\n      JUMPI \t\t\tcontract UniversalVerifier is\\...\n      DUP1 \t\t\tcontract UniversalVerifier is\\...\n      PUSH E30C3978\t\t\tcontract UniversalVerifier is\\...\n      EQ \t\t\tcontract UniversalVerifier is\\...\n      PUSH [tag] 31\t\t\tcontract UniversalVerifier is\\...\n      JUMPI \t\t\tcontract UniversalVerifier is\\...\n      DUP1 \t\t\tcontract UniversalVerifier is\\...\n      PUSH F2FDE38B\t\t\tcontract UniversalVerifier is\\...\n      EQ \t\t\tcontract UniversalVerifier is\\...\n      PUSH [tag] 32\t\t\tcontract UniversalVerifier is\\...\n      JUMPI \t\t\tcontract UniversalVerifier is\\...\n      DUP1 \t\t\tcontract UniversalVerifier is\\...\n      PUSH FFA1AD74\t\t\tcontract UniversalVerifier is\\...\n      EQ \t\t\tcontract UniversalVerifier is\\...\n      PUSH [tag] 33\t\t\tcontract UniversalVerifier is\\...\n      JUMPI \t\t\tcontract UniversalVerifier is\\...\n      PUSH [tag] 2\t\t\tcontract UniversalVerifier is\\...\n      JUMP \t\t\tcontract UniversalVerifier is\\...\n    tag 36\t\t\tcontract UniversalVerifier is\\...\n      JUMPDEST \t\t\tcontract UniversalVerifier is\\...\n      DUP1 \t\t\tcontract UniversalVerifier is\\...\n      PUSH ADE09FCD\t\t\tcontract UniversalVerifier is\\...\n      EQ \t\t\tcontract UniversalVerifier is\\...\n      PUSH [tag] 26\t\t\tcontract UniversalVerifier is\\...\n      JUMPI \t\t\tcontract UniversalVerifier is\\...\n      DUP1 \t\t\tcontract UniversalVerifier is\\...\n      PUSH B68967E2\t\t\tcontract UniversalVerifier is\\...\n      EQ \t\t\tcontract UniversalVerifier is\\...\n      PUSH [tag] 27\t\t\tcontract UniversalVerifier is\\...\n      JUMPI \t\t\tcontract UniversalVerifier is\\...\n      DUP1 \t\t\tcontract UniversalVerifier is\\...\n      PUSH C76D0845\t\t\tcontract UniversalVerifier is\\...\n      EQ \t\t\tcontract UniversalVerifier is\\...\n      PUSH [tag] 28\t\t\tcontract UniversalVerifier is\\...\n      JUMPI \t\t\tcontract UniversalVerifier is\\...\n      DUP1 \t\t\tcontract UniversalVerifier is\\...\n      PUSH C9C23EA5\t\t\tcontract UniversalVerifier is\\...\n      EQ \t\t\tcontract UniversalVerifier is\\...\n      PUSH [tag] 29\t\t\tcontract UniversalVerifier is\\...\n      JUMPI \t\t\tcontract UniversalVerifier is\\...\n      PUSH [tag] 2\t\t\tcontract UniversalVerifier is\\...\n      JUMP \t\t\tcontract UniversalVerifier is\\...\n    tag 35\t\t\tcontract UniversalVerifier is\\...\n      JUMPDEST \t\t\tcontract UniversalVerifier is\\...\n      DUP1 \t\t\tcontract UniversalVerifier is\\...\n      PUSH 8DA5CB5B\t\t\tcontract UniversalVerifier is\\...\n      GT \t\t\tcontract UniversalVerifier is\\...\n      PUSH [tag] 37\t\t\tcontract UniversalVerifier is\\...\n      JUMPI \t\t\tcontract UniversalVerifier is\\...\n      DUP1 \t\t\tcontract UniversalVerifier is\\...\n      PUSH 8DA5CB5B\t\t\tcontract UniversalVerifier is\\...\n      EQ \t\t\tcontract UniversalVerifier is\\...\n      PUSH [tag] 22\t\t\tcontract UniversalVerifier is\\...\n      JUMPI \t\t\tcontract UniversalVerifier is\\...\n      DUP1 \t\t\tcontract UniversalVerifier is\\...\n      PUSH 9B36D036\t\t\tcontract UniversalVerifier is\\...\n      EQ \t\t\tcontract UniversalVerifier is\\...\n      PUSH [tag] 23\t\t\tcontract UniversalVerifier is\\...\n      JUMPI \t\t\tcontract UniversalVerifier is\\...\n      DUP1 \t\t\tcontract UniversalVerifier is\\...\n      PUSH 9F5223E0\t\t\tcontract UniversalVerifier is\\...\n      EQ \t\t\tcontract UniversalVerifier is\\...\n      PUSH [tag] 24\t\t\tcontract UniversalVerifier is\\...\n      JUMPI \t\t\tcontract UniversalVerifier is\\...\n      DUP1 \t\t\tcontract UniversalVerifier is\\...\n      PUSH AB7BCFB7\t\t\tcontract UniversalVerifier is\\...\n      EQ \t\t\tcontract UniversalVerifier is\\...\n      PUSH [tag] 25\t\t\tcontract UniversalVerifier is\\...\n      JUMPI \t\t\tcontract UniversalVerifier is\\...\n      PUSH [tag] 2\t\t\tcontract UniversalVerifier is\\...\n      JUMP \t\t\tcontract UniversalVerifier is\\...\n    tag 37\t\t\tcontract UniversalVerifier is\\...\n      JUMPDEST \t\t\tcontract UniversalVerifier is\\...\n      DUP1 \t\t\tcontract UniversalVerifier is\\...\n      PUSH 715018A6\t\t\tcontract UniversalVerifier is\\...\n      EQ \t\t\tcontract UniversalVerifier is\\...\n      PUSH [tag] 18\t\t\tcontract UniversalVerifier is\\...\n      JUMPI \t\t\tcontract UniversalVerifier is\\...\n      DUP1 \t\t\tcontract UniversalVerifier is\\...\n      PUSH 79BA5097\t\t\tcontract UniversalVerifier is\\...\n      EQ \t\t\tcontract UniversalVerifier is\\...\n      PUSH [tag] 19\t\t\tcontract UniversalVerifier is\\...\n      JUMPI \t\t\tcontract UniversalVerifier is\\...\n      DUP1 \t\t\tcontract UniversalVerifier is\\...\n      PUSH 82AFF29F\t\t\tcontract UniversalVerifier is\\...\n      EQ \t\t\tcontract UniversalVerifier is\\...\n      PUSH [tag] 20\t\t\tcontract UniversalVerifier is\\...\n      JUMPI \t\t\tcontract UniversalVerifier is\\...\n      DUP1 \t\t\tcontract UniversalVerifier is\\...\n      PUSH 8C1DA2C9\t\t\tcontract UniversalVerifier is\\...\n      EQ \t\t\tcontract UniversalVerifier is\\...\n      PUSH [tag] 21\t\t\tcontract UniversalVerifier is\\...\n      JUMPI \t\t\tcontract UniversalVerifier is\\...\n      PUSH [tag] 2\t\t\tcontract UniversalVerifier is\\...\n      JUMP \t\t\tcontract UniversalVerifier is\\...\n    tag 34\t\t\tcontract UniversalVerifier is\\...\n      JUMPDEST \t\t\tcontract UniversalVerifier is\\...\n      DUP1 \t\t\tcontract UniversalVerifier is\\...\n      PUSH 49555FB1\t\t\tcontract UniversalVerifier is\\...\n      GT \t\t\tcontract UniversalVerifier is\\...\n      PUSH [tag] 38\t\t\tcontract UniversalVerifier is\\...\n      JUMPI \t\t\tcontract UniversalVerifier is\\...\n      DUP1 \t\t\tcontract UniversalVerifier is\\...\n      PUSH 5F9E60D7\t\t\tcontract UniversalVerifier is\\...\n      GT \t\t\tcontract UniversalVerifier is\\...\n      PUSH [tag] 39\t\t\tcontract UniversalVerifier is\\...\n      JUMPI \t\t\tcontract UniversalVerifier is\\...\n      DUP1 \t\t\tcontract UniversalVerifier is\\...\n      PUSH 5F9E60D7\t\t\tcontract UniversalVerifier is\\...\n      EQ \t\t\tcontract UniversalVerifier is\\...\n      PUSH [tag] 14\t\t\tcontract UniversalVerifier is\\...\n      JUMPI \t\t\tcontract UniversalVerifier is\\...\n      DUP1 \t\t\tcontract UniversalVerifier is\\...\n      PUSH 617879FE\t\t\tcontract UniversalVerifier is\\...\n      EQ \t\t\tcontract UniversalVerifier is\\...\n      PUSH [tag] 15\t\t\tcontract UniversalVerifier is\\...\n      JUMPI \t\t\tcontract UniversalVerifier is\\...\n      DUP1 \t\t\tcontract UniversalVerifier is\\...\n      PUSH 6508E1B4\t\t\tcontract UniversalVerifier is\\...\n      EQ \t\t\tcontract UniversalVerifier is\\...\n      PUSH [tag] 16\t\t\tcontract UniversalVerifier is\\...\n      JUMPI \t\t\tcontract UniversalVerifier is\\...\n      DUP1 \t\t\tcontract UniversalVerifier is\\...\n      PUSH 6F2477AD\t\t\tcontract UniversalVerifier is\\...\n      EQ \t\t\tcontract UniversalVerifier is\\...\n      PUSH [tag] 17\t\t\tcontract UniversalVerifier is\\...\n      JUMPI \t\t\tcontract UniversalVerifier is\\...\n      PUSH [tag] 2\t\t\tcontract UniversalVerifier is\\...\n      JUMP \t\t\tcontract UniversalVerifier is\\...\n    tag 39\t\t\tcontract UniversalVerifier is\\...\n      JUMPDEST \t\t\tcontract UniversalVerifier is\\...\n      DUP1 \t\t\tcontract UniversalVerifier is\\...\n      PUSH 49555FB1\t\t\tcontract UniversalVerifier is\\...\n      EQ \t\t\tcontract UniversalVerifier is\\...\n      PUSH [tag] 10\t\t\tcontract UniversalVerifier is\\...\n      JUMPI \t\t\tcontract UniversalVerifier is\\...\n      DUP1 \t\t\tcontract UniversalVerifier is\\...\n      PUSH 5176983B\t\t\tcontract UniversalVerifier is\\...\n      EQ \t\t\tcontract UniversalVerifier is\\...\n      PUSH [tag] 11\t\t\tcontract UniversalVerifier is\\...\n      JUMPI \t\t\tcontract UniversalVerifier is\\...\n      DUP1 \t\t\tcontract UniversalVerifier is\\...\n      PUSH 54FD4D50\t\t\tcontract UniversalVerifier is\\...\n      EQ \t\t\tcontract UniversalVerifier is\\...\n      PUSH [tag] 12\t\t\tcontract UniversalVerifier is\\...\n      JUMPI \t\t\tcontract UniversalVerifier is\\...\n      DUP1 \t\t\tcontract UniversalVerifier is\\...\n      PUSH 59F871A1\t\t\tcontract UniversalVerifier is\\...\n      EQ \t\t\tcontract UniversalVerifier is\\...\n      PUSH [tag] 13\t\t\tcontract UniversalVerifier is\\...\n      JUMPI \t\t\tcontract UniversalVerifier is\\...\n      PUSH [tag] 2\t\t\tcontract UniversalVerifier is\\...\n      JUMP \t\t\tcontract UniversalVerifier is\\...\n    tag 38\t\t\tcontract UniversalVerifier is\\...\n      JUMPDEST \t\t\tcontract UniversalVerifier is\\...\n      DUP1 \t\t\tcontract UniversalVerifier is\\...\n      PUSH 30DEF4AC\t\t\tcontract UniversalVerifier is\\...\n      GT \t\t\tcontract UniversalVerifier is\\...\n      PUSH [tag] 40\t\t\tcontract UniversalVerifier is\\...\n      JUMPI \t\t\tcontract UniversalVerifier is\\...\n      DUP1 \t\t\tcontract UniversalVerifier is\\...\n      PUSH 30DEF4AC\t\t\tcontract UniversalVerifier is\\...\n      EQ \t\t\tcontract UniversalVerifier is\\...\n      PUSH [tag] 6\t\t\tcontract UniversalVerifier is\\...\n      JUMPI \t\t\tcontract UniversalVerifier is\\...\n      DUP1 \t\t\tcontract UniversalVerifier is\\...\n      PUSH 31969E57\t\t\tcontract UniversalVerifier is\\...\n      EQ \t\t\tcontract UniversalVerifier is\\...\n      PUSH [tag] 7\t\t\tcontract UniversalVerifier is\\...\n      JUMPI \t\t\tcontract UniversalVerifier is\\...\n      DUP1 \t\t\tcontract UniversalVerifier is\\...\n      PUSH 34C901AF\t\t\tcontract UniversalVerifier is\\...\n      EQ \t\t\tcontract UniversalVerifier is\\...\n      PUSH [tag] 8\t\t\tcontract UniversalVerifier is\\...\n      JUMPI \t\t\tcontract UniversalVerifier is\\...\n      DUP1 \t\t\tcontract UniversalVerifier is\\...\n      PUSH 485CC955\t\t\tcontract UniversalVerifier is\\...\n      EQ \t\t\tcontract UniversalVerifier is\\...\n      PUSH [tag] 9\t\t\tcontract UniversalVerifier is\\...\n      JUMPI \t\t\tcontract UniversalVerifier is\\...\n      PUSH [tag] 2\t\t\tcontract UniversalVerifier is\\...\n      JUMP \t\t\tcontract UniversalVerifier is\\...\n    tag 40\t\t\tcontract UniversalVerifier is\\...\n      JUMPDEST \t\t\tcontract UniversalVerifier is\\...\n      DUP1 \t\t\tcontract UniversalVerifier is\\...\n      PUSH 106A959\t\t\tcontract UniversalVerifier is\\...\n      EQ \t\t\tcontract UniversalVerifier is\\...\n      PUSH [tag] 3\t\t\tcontract UniversalVerifier is\\...\n      JUMPI \t\t\tcontract UniversalVerifier is\\...\n      DUP1 \t\t\tcontract UniversalVerifier is\\...\n      PUSH 130A73AC\t\t\tcontract UniversalVerifier is\\...\n      EQ \t\t\tcontract UniversalVerifier is\\...\n      PUSH [tag] 4\t\t\tcontract UniversalVerifier is\\...\n      JUMPI \t\t\tcontract UniversalVerifier is\\...\n      DUP1 \t\t\tcontract UniversalVerifier is\\...\n      PUSH 1905E7B1\t\t\tcontract UniversalVerifier is\\...\n      EQ \t\t\tcontract UniversalVerifier is\\...\n      PUSH [tag] 5\t\t\tcontract UniversalVerifier is\\...\n      JUMPI \t\t\tcontract UniversalVerifier is\\...\n    tag 2\t\t\tcontract UniversalVerifier is\\...\n      JUMPDEST \t\t\tcontract UniversalVerifier is\\...\n      PUSH 0\t\t\tcontract UniversalVerifier is\\...\n      PUSH 0\t\t\tcontract UniversalVerifier is\\...\n      REVERT \t\t\tcontract UniversalVerifier is\\...\n    tag 3\t\t\t\n      JUMPDEST \t\t\t\n      PUSH [tag] 41\t\t\t\n      PUSH 4\t\t\t\n      DUP1 \t\t\t\n      CALLDATASIZE \t\t\t\n      SUB \t\t\t\n      DUP2 \t\t\t\n      ADD \t\t\t\n      SWAP1 \t\t\t\n      PUSH [tag] 42\t\t\t\n      SWAP2 \t\t\t\n      SWAP1 \t\t\t\n      PUSH [tag] 43\t\t\t\n      JUMP \t\t\t\n    tag 42\t\t\t\n      JUMPDEST \t\t\t\n      PUSH [tag] 44\t\t\t\n      JUMP \t\t\t\n    tag 41\t\t\t\n      JUMPDEST \t\t\t\n      STOP \t\t\t\n    tag 4\t\t\tst component of the proof\\n   ...\n      JUMPDEST \t\t\tst component of the proof\\n   ...\n      PUSH [tag] 45\t\t\tst component of the proof\\n   ...\n      PUSH 4\t\t\tst component of the proof\\n   ...\n      DUP1 \t\t\tst component of the proof\\n   ...\n      CALLDATASIZE \t\t\tst component of the proof\\n   ...\n      SUB \t\t\tst component of the proof\\n   ...\n      DUP2 \t\t\tst component of the proof\\n   ...\n      ADD \t\t\tst component of the proof\\n   ...\n      SWAP1 \t\t\tst component of the proof\\n   ...\n      PUSH [tag] 46\t\t\tst component of the proof\\n   ...\n      SWAP2 \t\t\tst component of the proof\\n   ...\n      SWAP1 \t\t\tst component of the proof\\n   ...\n      PUSH [tag] 47\t\t\tst component of the proof\\n   ...\n      JUMP \t\t\tst component of the proof\\n   ...\n    tag 46\t\t\tst component of the proof\\n   ...\n      JUMPDEST \t\t\tst component of the proof\\n   ...\n      PUSH [tag] 48\t\t\tst component of the proof\\n   ...\n      JUMP \t\t\tst component of the proof\\n   ...\n    tag 45\t\t\tst component of the proof\\n   ...\n      JUMPDEST \t\t\tst component of the proof\\n   ...\n      PUSH 40\t\t\tst component of the proof\\n   ...\n      MLOAD \t\t\tst component of the proof\\n   ...\n      PUSH [tag] 49\t\t\tst component of the proof\\n   ...\n      SWAP2 \t\t\tst component of the proof\\n   ...\n      SWAP1 \t\t\tst component of the proof\\n   ...\n      PUSH [tag] 50\t\t\tst component of the proof\\n   ...\n      JUMP \t\t\tst component of the proof\\n   ...\n    tag 49\t\t\tst component of the proof\\n   ...\n      JUMPDEST \t\t\tst component of the proof\\n   ...\n      PUSH 40\t\t\tst component of the proof\\n   ...\n      MLOAD \t\t\tst component of the proof\\n   ...\n      DUP1 \t\t\tst component of the proof\\n   ...\n      SWAP2 \t\t\tst component of the proof\\n   ...\n      SUB \t\t\tst component of the proof\\n   ...\n      SWAP1 \t\t\tst component of the proof\\n   ...\n      RETURN \t\t\tst component of the proof\\n   ...\n    tag 5\t\t\t() public pure returns (string...\n      JUMPDEST \t\t\t() public pure returns (string...\n      PUSH [tag] 51\t\t\t() public pure returns (string...\n      PUSH [tag] 52\t\t\t() public pure returns (string...\n      JUMP \t\t\t() public pure returns (string...\n    tag 51\t\t\t() public pure returns (string...\n      JUMPDEST \t\t\t() public pure returns (string...\n      PUSH 40\t\t\t() public pure returns (string...\n      MLOAD \t\t\t() public pure returns (string...\n      PUSH [tag] 53\t\t\t() public pure returns (string...\n      SWAP2 \t\t\t() public pure returns (string...\n      SWAP1 \t\t\t() public pure returns (string...\n      PUSH [tag] 54\t\t\t() public pure returns (string...\n      JUMP \t\t\t() public pure returns (string...\n    tag 53\t\t\t() public pure returns (string...\n      JUMPDEST \t\t\t() public pure returns (string...\n      PUSH 40\t\t\t() public pure returns (string...\n      MLOAD \t\t\t() public pure returns (string...\n      DUP1 \t\t\t() public pure returns (string...\n      SWAP2 \t\t\t() public pure returns (string...\n      SUB \t\t\t() public pure returns (string...\n      SWAP1 \t\t\t() public pure returns (string...\n      RETURN \t\t\t() public pure returns (string...\n    tag 6\t\t\tfunction enableZKPRequest(uint...\n      JUMPDEST \t\t\tfunction enableZKPRequest(uint...\n      PUSH [tag] 55\t\t\tfunction enableZKPRequest(uint...\n      PUSH 4\t\t\tfunction enableZKPRequest(uint...\n      DUP1 \t\t\tfunction enableZKPRequest(uint...\n      CALLDATASIZE \t\t\tfunction enableZKPRequest(uint...\n      SUB \t\t\tfunction enableZKPRequest(uint...\n      DUP2 \t\t\tfunction enableZKPRequest(uint...\n      ADD \t\t\tfunction enableZKPRequest(uint...\n      SWAP1 \t\t\tfunction enableZKPRequest(uint...\n      PUSH [tag] 56\t\t\tfunction enableZKPRequest(uint...\n      SWAP2 \t\t\tfunction enableZKPRequest(uint...\n      SWAP1 \t\t\tfunction enableZKPRequest(uint...\n      PUSH [tag] 47\t\t\tfunction enableZKPRequest(uint...\n      JUMP \t\t\tfunction enableZKPRequest(uint...\n    tag 56\t\t\tfunction enableZKPRequest(uint...\n      JUMPDEST \t\t\tfunction enableZKPRequest(uint...\n      PUSH [tag] 57\t\t\tfunction enableZKPRequest(uint...\n      JUMP \t\t\tfunction enableZKPRequest(uint...\n    tag 55\t\t\tfunction enableZKPRequest(uint...\n      JUMPDEST \t\t\tfunction enableZKPRequest(uint...\n      STOP \t\t\tfunction enableZKPRequest(uint...\n    tag 7\t\t\t\n      JUMPDEST \t\t\t\n      PUSH [tag] 58\t\t\t\n      PUSH [tag] 59\t\t\t\n      JUMP \t\t\t\n    tag 58\t\t\t\n      JUMPDEST \t\t\t\n      PUSH 40\t\t\t\n      MLOAD \t\t\t\n      PUSH [tag] 60\t\t\t\n      SWAP2 \t\t\t\n      SWAP1 \t\t\t\n      PUSH [tag] 61\t\t\t\n      JUMP \t\t\t\n    tag 60\t\t\t\n      JUMPDEST \t\t\t\n      PUSH 40\t\t\t\n      MLOAD \t\t\t\n      DUP1 \t\t\t\n      SWAP2 \t\t\t\n      SUB \t\t\t\n      SWAP1 \t\t\t\n      RETURN \t\t\t\n    tag 8\t\t\tfunction setState(IState state...\n      JUMPDEST \t\t\tfunction setState(IState state...\n      PUSH [tag] 62\t\t\tfunction setState(IState state...\n      PUSH 4\t\t\tfunction setState(IState state...\n      DUP1 \t\t\tfunction setState(IState state...\n      CALLDATASIZE \t\t\tfunction setState(IState state...\n      SUB \t\t\tfunction setState(IState state...\n      DUP2 \t\t\tfunction setState(IState state...\n      ADD \t\t\tfunction setState(IState state...\n      SWAP1 \t\t\tfunction setState(IState state...\n      PUSH [tag] 63\t\t\tfunction setState(IState state...\n      SWAP2 \t\t\tfunction setState(IState state...\n      SWAP1 \t\t\tfunction setState(IState state...\n      PUSH [tag] 64\t\t\tfunction setState(IState state...\n      JUMP \t\t\tfunction setState(IState state...\n    tag 63\t\t\tfunction setState(IState state...\n      JUMPDEST \t\t\tfunction setState(IState state...\n      PUSH [tag] 65\t\t\tfunction setState(IState state...\n      JUMP \t\t\tfunction setState(IState state...\n    tag 62\t\t\tfunction setState(IState state...\n      JUMPDEST \t\t\tfunction setState(IState state...\n      STOP \t\t\tfunction setState(IState state...\n    tag 9\t\t\tfunction initialize(IState sta...\n      JUMPDEST \t\t\tfunction initialize(IState sta...\n      PUSH [tag] 66\t\t\tfunction initialize(IState sta...\n      PUSH 4\t\t\tfunction initialize(IState sta...\n      DUP1 \t\t\tfunction initialize(IState sta...\n      CALLDATASIZE \t\t\tfunction initialize(IState sta...\n      SUB \t\t\tfunction initialize(IState sta...\n      DUP2 \t\t\tfunction initialize(IState sta...\n      ADD \t\t\tfunction initialize(IState sta...\n      SWAP1 \t\t\tfunction initialize(IState sta...\n      PUSH [tag] 67\t\t\tfunction initialize(IState sta...\n      SWAP2 \t\t\tfunction initialize(IState sta...\n      SWAP1 \t\t\tfunction initialize(IState sta...\n      PUSH [tag] 68\t\t\tfunction initialize(IState sta...\n      JUMP \t\t\tfunction initialize(IState sta...\n    tag 67\t\t\tfunction initialize(IState sta...\n      JUMPDEST \t\t\tfunction initialize(IState sta...\n      PUSH [tag] 69\t\t\tfunction initialize(IState sta...\n      JUMP \t\t\tfunction initialize(IState sta...\n    tag 66\t\t\tfunction initialize(IState sta...\n      JUMPDEST \t\t\tfunction initialize(IState sta...\n      STOP \t\t\tfunction initialize(IState sta...\n    tag 10\t\t\t\n      JUMPDEST \t\t\t\n      PUSH [tag] 70\t\t\t\n      PUSH 4\t\t\t\n      DUP1 \t\t\t\n      CALLDATASIZE \t\t\t\n      SUB \t\t\t\n      DUP2 \t\t\t\n      ADD \t\t\t\n      SWAP1 \t\t\t\n      PUSH [tag] 71\t\t\t\n      SWAP2 \t\t\t\n      SWAP1 \t\t\t\n      PUSH [tag] 72\t\t\t\n      JUMP \t\t\t\n    tag 71\t\t\t\n      JUMPDEST \t\t\t\n      PUSH [tag] 73\t\t\t\n      JUMP \t\t\t\n    tag 70\t\t\t\n      JUMPDEST \t\t\t\n      PUSH 40\t\t\t\n      MLOAD \t\t\t\n      PUSH [tag] 74\t\t\t\n      SWAP2 \t\t\t\n      SWAP1 \t\t\t\n      PUSH [tag] 50\t\t\t\n      JUMP \t\t\t\n    tag 74\t\t\t\n      JUMPDEST \t\t\t\n      PUSH 40\t\t\t\n      MLOAD \t\t\t\n      DUP1 \t\t\t\n      SWAP2 \t\t\t\n      SUB \t\t\t\n      SWAP1 \t\t\t\n      RETURN \t\t\t\n    tag 11\t\t\tfunction verifyZKPResponse(\\n ...\n      JUMPDEST \t\t\tfunction verifyZKPResponse(\\n ...\n      PUSH [tag] 75\t\t\tfunction verifyZKPResponse(\\n ...\n      PUSH 4\t\t\tfunction verifyZKPResponse(\\n ...\n      DUP1 \t\t\tfunction verifyZKPResponse(\\n ...\n      CALLDATASIZE \t\t\tfunction verifyZKPResponse(\\n ...\n      SUB \t\t\tfunction verifyZKPResponse(\\n ...\n      DUP2 \t\t\tfunction verifyZKPResponse(\\n ...\n      ADD \t\t\tfunction verifyZKPResponse(\\n ...\n      SWAP1 \t\t\tfunction verifyZKPResponse(\\n ...\n      PUSH [tag] 76\t\t\tfunction verifyZKPResponse(\\n ...\n      SWAP2 \t\t\tfunction verifyZKPResponse(\\n ...\n      SWAP1 \t\t\tfunction verifyZKPResponse(\\n ...\n      PUSH [tag] 77\t\t\tfunction verifyZKPResponse(\\n ...\n      JUMP \t\t\tfunction verifyZKPResponse(\\n ...\n    tag 76\t\t\tfunction verifyZKPResponse(\\n ...\n      JUMPDEST \t\t\tfunction verifyZKPResponse(\\n ...\n      PUSH [tag] 78\t\t\tfunction verifyZKPResponse(\\n ...\n      JUMP \t\t\tfunction verifyZKPResponse(\\n ...\n    tag 75\t\t\tfunction verifyZKPResponse(\\n ...\n      JUMPDEST \t\t\tfunction verifyZKPResponse(\\n ...\n      PUSH 40\t\t\tfunction verifyZKPResponse(\\n ...\n      MLOAD \t\t\tfunction verifyZKPResponse(\\n ...\n      PUSH [tag] 79\t\t\tfunction verifyZKPResponse(\\n ...\n      SWAP2 \t\t\tfunction verifyZKPResponse(\\n ...\n      SWAP1 \t\t\tfunction verifyZKPResponse(\\n ...\n      PUSH [tag] 80\t\t\tfunction verifyZKPResponse(\\n ...\n      JUMP \t\t\tfunction verifyZKPResponse(\\n ...\n    tag 79\t\t\tfunction verifyZKPResponse(\\n ...\n      JUMPDEST \t\t\tfunction verifyZKPResponse(\\n ...\n      PUSH 40\t\t\tfunction verifyZKPResponse(\\n ...\n      MLOAD \t\t\tfunction verifyZKPResponse(\\n ...\n      DUP1 \t\t\tfunction verifyZKPResponse(\\n ...\n      SWAP2 \t\t\tfunction verifyZKPResponse(\\n ...\n      SUB \t\t\tfunction verifyZKPResponse(\\n ...\n      SWAP1 \t\t\tfunction verifyZKPResponse(\\n ...\n      RETURN \t\t\tfunction verifyZKPResponse(\\n ...\n    tag 12\t\t\tfunction version() public pure...\n      JUMPDEST \t\t\tfunction version() public pure...\n      PUSH [tag] 81\t\t\tfunction version() public pure...\n      PUSH [tag] 82\t\t\tfunction version() public pure...\n      JUMP \t\t\tfunction version() public pure...\n    tag 81\t\t\tfunction version() public pure...\n      JUMPDEST \t\t\tfunction version() public pure...\n      PUSH 40\t\t\tfunction version() public pure...\n      MLOAD \t\t\tfunction version() public pure...\n      PUSH [tag] 83\t\t\tfunction version() public pure...\n      SWAP2 \t\t\tfunction version() public pure...\n      SWAP1 \t\t\tfunction version() public pure...\n      PUSH [tag] 84\t\t\tfunction version() public pure...\n      JUMP \t\t\tfunction version() public pure...\n    tag 83\t\t\tfunction version() public pure...\n      JUMPDEST \t\t\tfunction version() public pure...\n      PUSH 40\t\t\tfunction version() public pure...\n      MLOAD \t\t\tfunction version() public pure...\n      DUP1 \t\t\tfunction version() public pure...\n      SWAP2 \t\t\tfunction version() public pure...\n      SUB \t\t\tfunction version() public pure...\n      SWAP1 \t\t\tfunction version() public pure...\n      RETURN \t\t\tfunction version() public pure...\n    tag 13\t\t\tfunction addValidatorToWhiteli...\n      JUMPDEST \t\t\tfunction addValidatorToWhiteli...\n      PUSH [tag] 85\t\t\tfunction addValidatorToWhiteli...\n      PUSH 4\t\t\tfunction addValidatorToWhiteli...\n      DUP1 \t\t\tfunction addValidatorToWhiteli...\n      CALLDATASIZE \t\t\tfunction addValidatorToWhiteli...\n      SUB \t\t\tfunction addValidatorToWhiteli...\n      DUP2 \t\t\tfunction addValidatorToWhiteli...\n      ADD \t\t\tfunction addValidatorToWhiteli...\n      SWAP1 \t\t\tfunction addValidatorToWhiteli...\n      PUSH [tag] 86\t\t\tfunction addValidatorToWhiteli...\n      SWAP2 \t\t\tfunction addValidatorToWhiteli...\n      SWAP1 \t\t\tfunction addValidatorToWhiteli...\n      PUSH [tag] 87\t\t\tfunction addValidatorToWhiteli...\n      JUMP \t\t\tfunction addValidatorToWhiteli...\n    tag 86\t\t\tfunction addValidatorToWhiteli...\n      JUMPDEST \t\t\tfunction addValidatorToWhiteli...\n      PUSH [tag] 88\t\t\tfunction addValidatorToWhiteli...\n      JUMP \t\t\tfunction addValidatorToWhiteli...\n    tag 85\t\t\tfunction addValidatorToWhiteli...\n      JUMPDEST \t\t\tfunction addValidatorToWhiteli...\n      STOP \t\t\tfunction addValidatorToWhiteli...\n    tag 14\t\t\t\n      JUMPDEST \t\t\t\n      PUSH [tag] 89\t\t\t\n      PUSH 4\t\t\t\n      DUP1 \t\t\t\n      CALLDATASIZE \t\t\t\n      SUB \t\t\t\n      DUP2 \t\t\t\n      ADD \t\t\t\n      SWAP1 \t\t\t\n      PUSH [tag] 90\t\t\t\n      SWAP2 \t\t\t\n      SWAP1 \t\t\t\n      PUSH [tag] 91\t\t\t\n      JUMP \t\t\t\n    tag 90\t\t\t\n      JUMPDEST \t\t\t\n      PUSH [tag] 92\t\t\t\n      JUMP \t\t\t\n    tag 89\t\t\t\n      JUMPDEST \t\t\t\n      PUSH 40\t\t\t\n      MLOAD \t\t\t\n      PUSH [tag] 93\t\t\t\n      SWAP2 \t\t\t\n      SWAP1 \t\t\t\n      PUSH [tag] 94\t\t\t\n      JUMP \t\t\t\n    tag 93\t\t\t\n      JUMPDEST \t\t\t\n      PUSH 40\t\t\t\n      MLOAD \t\t\t\n      DUP1 \t\t\t\n      SWAP2 \t\t\t\n      SUB \t\t\t\n      SWAP1 \t\t\t\n      RETURN \t\t\t\n    tag 15\t\t\tfunction removeValidatorFromWh...\n      JUMPDEST \t\t\tfunction removeValidatorFromWh...\n      PUSH [tag] 95\t\t\tfunction removeValidatorFromWh...\n      PUSH 4\t\t\tfunction removeValidatorFromWh...\n      DUP1 \t\t\tfunction removeValidatorFromWh...\n      CALLDATASIZE \t\t\tfunction removeValidatorFromWh...\n      SUB \t\t\tfunction removeValidatorFromWh...\n      DUP2 \t\t\tfunction removeValidatorFromWh...\n      ADD \t\t\tfunction removeValidatorFromWh...\n      SWAP1 \t\t\tfunction removeValidatorFromWh...\n      PUSH [tag] 96\t\t\tfunction removeValidatorFromWh...\n      SWAP2 \t\t\tfunction removeValidatorFromWh...\n      SWAP1 \t\t\tfunction removeValidatorFromWh...\n      PUSH [tag] 87\t\t\tfunction removeValidatorFromWh...\n      JUMP \t\t\tfunction removeValidatorFromWh...\n    tag 96\t\t\tfunction removeValidatorFromWh...\n      JUMPDEST \t\t\tfunction removeValidatorFromWh...\n      PUSH [tag] 97\t\t\tfunction removeValidatorFromWh...\n      JUMP \t\t\tfunction removeValidatorFromWh...\n    tag 95\t\t\tfunction removeValidatorFromWh...\n      JUMPDEST \t\t\tfunction removeValidatorFromWh...\n      STOP \t\t\tfunction removeValidatorFromWh...\n    tag 16\t\t\t\n      JUMPDEST \t\t\t\n      PUSH [tag] 98\t\t\t\n      PUSH [tag] 99\t\t\t\n      JUMP \t\t\t\n    tag 98\t\t\t\n      JUMPDEST \t\t\t\n      PUSH 40\t\t\t\n      MLOAD \t\t\t\n      PUSH [tag] 100\t\t\t\n      SWAP2 \t\t\t\n      SWAP1 \t\t\t\n      PUSH [tag] 54\t\t\t\n      JUMP \t\t\t\n    tag 100\t\t\t\n      JUMPDEST \t\t\t\n      PUSH 40\t\t\t\n      MLOAD \t\t\t\n      DUP1 \t\t\t\n      SWAP2 \t\t\t\n      SUB \t\t\t\n      SWAP1 \t\t\t\n      RETURN \t\t\t\n    tag 17\t\t\t _;\\n    }\\n\\n    /// @dev Ini...\n      JUMPDEST \t\t\t _;\\n    }\\n\\n    /// @dev Ini...\n      PUSH [tag] 101\t\t\t _;\\n    }\\n\\n    /// @dev Ini...\n      PUSH 4\t\t\t _;\\n    }\\n\\n    /// @dev Ini...\n      DUP1 \t\t\t _;\\n    }\\n\\n    /// @dev Ini...\n      CALLDATASIZE \t\t\t _;\\n    }\\n\\n    /// @dev Ini...\n      SUB \t\t\t _;\\n    }\\n\\n    /// @dev Ini...\n      DUP2 \t\t\t _;\\n    }\\n\\n    /// @dev Ini...\n      ADD \t\t\t _;\\n    }\\n\\n    /// @dev Ini...\n      SWAP1 \t\t\t _;\\n    }\\n\\n    /// @dev Ini...\n      PUSH [tag] 102\t\t\t _;\\n    }\\n\\n    /// @dev Ini...\n      SWAP2 \t\t\t _;\\n    }\\n\\n    /// @dev Ini...\n      SWAP1 \t\t\t _;\\n    }\\n\\n    /// @dev Ini...\n      PUSH [tag] 47\t\t\t _;\\n    }\\n\\n    /// @dev Ini...\n      JUMP \t\t\t _;\\n    }\\n\\n    /// @dev Ini...\n    tag 102\t\t\t _;\\n    }\\n\\n    /// @dev Ini...\n      JUMPDEST \t\t\t _;\\n    }\\n\\n    /// @dev Ini...\n      PUSH [tag] 103\t\t\t _;\\n    }\\n\\n    /// @dev Ini...\n      JUMP \t\t\t _;\\n    }\\n\\n    /// @dev Ini...\n    tag 101\t\t\t _;\\n    }\\n\\n    /// @dev Ini...\n      JUMPDEST \t\t\t _;\\n    }\\n\\n    /// @dev Ini...\n      PUSH 40\t\t\t _;\\n    }\\n\\n    /// @dev Ini...\n      MLOAD \t\t\t _;\\n    }\\n\\n    /// @dev Ini...\n      PUSH [tag] 104\t\t\t _;\\n    }\\n\\n    /// @dev Ini...\n      SWAP2 \t\t\t _;\\n    }\\n\\n    /// @dev Ini...\n      SWAP1 \t\t\t _;\\n    }\\n\\n    /// @dev Ini...\n      PUSH [tag] 61\t\t\t _;\\n    }\\n\\n    /// @dev Ini...\n      JUMP \t\t\t _;\\n    }\\n\\n    /// @dev Ini...\n    tag 104\t\t\t _;\\n    }\\n\\n    /// @dev Ini...\n      JUMPDEST \t\t\t _;\\n    }\\n\\n    /// @dev Ini...\n      PUSH 40\t\t\t _;\\n    }\\n\\n    /// @dev Ini...\n      MLOAD \t\t\t _;\\n    }\\n\\n    /// @dev Ini...\n      DUP1 \t\t\t _;\\n    }\\n\\n    /// @dev Ini...\n      SWAP2 \t\t\t _;\\n    }\\n\\n    /// @dev Ini...\n      SUB \t\t\t _;\\n    }\\n\\n    /// @dev Ini...\n      SWAP1 \t\t\t _;\\n    }\\n\\n    /// @dev Ini...\n      RETURN \t\t\t _;\\n    }\\n\\n    /// @dev Ini...\n    tag 18\t\t\t       emit ZKPResponseSubmitt...\n      JUMPDEST \t\t\t       emit ZKPResponseSubmitt...\n      PUSH [tag] 105\t\t\t       emit ZKPResponseSubmitt...\n      PUSH [tag] 106\t\t\t       emit ZKPResponseSubmitt...\n      JUMP \t\t\t       emit ZKPResponseSubmitt...\n    tag 105\t\t\t       emit ZKPResponseSubmitt...\n      JUMPDEST \t\t\t       emit ZKPResponseSubmitt...\n      STOP \t\t\t       emit ZKPResponseSubmitt...\n    tag 19\t\t\t of ZKP responses and updates ...\n      JUMPDEST \t\t\t of ZKP responses and updates ...\n      PUSH [tag] 107\t\t\t of ZKP responses and updates ...\n      PUSH [tag] 108\t\t\t of ZKP responses and updates ...\n      JUMP \t\t\t of ZKP responses and updates ...\n    tag 107\t\t\t of ZKP responses and updates ...\n      JUMPDEST \t\t\t of ZKP responses and updates ...\n      STOP \t\t\t of ZKP responses and updates ...\n    tag 20\t\t\tfunction disableZKPRequest(uin...\n      JUMPDEST \t\t\tfunction disableZKPRequest(uin...\n      PUSH [tag] 109\t\t\tfunction disableZKPRequest(uin...\n      PUSH 4\t\t\tfunction disableZKPRequest(uin...\n      DUP1 \t\t\tfunction disableZKPRequest(uin...\n      CALLDATASIZE \t\t\tfunction disableZKPRequest(uin...\n      SUB \t\t\tfunction disableZKPRequest(uin...\n      DUP2 \t\t\tfunction disableZKPRequest(uin...\n      ADD \t\t\tfunction disableZKPRequest(uin...\n      SWAP1 \t\t\tfunction disableZKPRequest(uin...\n      PUSH [tag] 110\t\t\tfunction disableZKPRequest(uin...\n      SWAP2 \t\t\tfunction disableZKPRequest(uin...\n      SWAP1 \t\t\tfunction disableZKPRequest(uin...\n      PUSH [tag] 47\t\t\tfunction disableZKPRequest(uin...\n      JUMP \t\t\tfunction disableZKPRequest(uin...\n    tag 110\t\t\tfunction disableZKPRequest(uin...\n      JUMPDEST \t\t\tfunction disableZKPRequest(uin...\n      PUSH [tag] 111\t\t\tfunction disableZKPRequest(uin...\n      JUMP \t\t\tfunction disableZKPRequest(uin...\n    tag 109\t\t\tfunction disableZKPRequest(uin...\n      JUMPDEST \t\t\tfunction disableZKPRequest(uin...\n      STOP \t\t\tfunction disableZKPRequest(uin...\n    tag 21\t\t\t\n      JUMPDEST \t\t\t\n      PUSH [tag] 112\t\t\t\n      PUSH 4\t\t\t\n      DUP1 \t\t\t\n      CALLDATASIZE \t\t\t\n      SUB \t\t\t\n      DUP2 \t\t\t\n      ADD \t\t\t\n      SWAP1 \t\t\t\n      PUSH [tag] 113\t\t\t\n      SWAP2 \t\t\t\n      SWAP1 \t\t\t\n      PUSH [tag] 72\t\t\t\n      JUMP \t\t\t\n    tag 113\t\t\t\n      JUMPDEST \t\t\t\n      PUSH [tag] 114\t\t\t\n      JUMP \t\t\t\n    tag 112\t\t\t\n      JUMPDEST \t\t\t\n      PUSH 40\t\t\t\n      MLOAD \t\t\t\n      PUSH [tag] 115\t\t\t\n      SWAP2 \t\t\t\n      SWAP1 \t\t\t\n      PUSH [tag] 116\t\t\t\n      JUMP \t\t\t\n    tag 115\t\t\t\n      JUMPDEST \t\t\t\n      PUSH 40\t\t\t\n      MLOAD \t\t\t\n      DUP1 \t\t\t\n      SWAP2 \t\t\t\n      SUB \t\t\t\n      SWAP1 \t\t\t\n      RETURN \t\t\t\n    tag 22\t\t\t      address(request.validato...\n      JUMPDEST \t\t\t      address(request.validato...\n      PUSH [tag] 117\t\t\t      address(request.validato...\n      PUSH [tag] 118\t\t\t      address(request.validato...\n      JUMP \t\t\t      address(request.validato...\n    tag 117\t\t\t      address(request.validato...\n      JUMPDEST \t\t\t      address(request.validato...\n      PUSH 40\t\t\t      address(request.validato...\n      MLOAD \t\t\t      address(request.validato...\n      PUSH [tag] 119\t\t\t      address(request.validato...\n      SWAP2 \t\t\t      address(request.validato...\n      SWAP1 \t\t\t      address(request.validato...\n      PUSH [tag] 61\t\t\t      address(request.validato...\n      JUMP \t\t\t      address(request.validato...\n    tag 119\t\t\t      address(request.validato...\n      JUMPDEST \t\t\t      address(request.validato...\n      PUSH 40\t\t\t      address(request.validato...\n      MLOAD \t\t\t      address(request.validato...\n      DUP1 \t\t\t      address(request.validato...\n      SWAP2 \t\t\t      address(request.validato...\n      SUB \t\t\t      address(request.validato...\n      SWAP1 \t\t\t      address(request.validato...\n      RETURN \t\t\t      address(request.validato...\n    tag 23\t\t\tudes identities and global sta...\n      JUMPDEST \t\t\tudes identities and global sta...\n      PUSH [tag] 120\t\t\tudes identities and global sta...\n      PUSH 4\t\t\tudes identities and global sta...\n      DUP1 \t\t\tudes identities and global sta...\n      CALLDATASIZE \t\t\tudes identities and global sta...\n      SUB \t\t\tudes identities and global sta...\n      DUP2 \t\t\tudes identities and global sta...\n      ADD \t\t\tudes identities and global sta...\n      SWAP1 \t\t\tudes identities and global sta...\n      PUSH [tag] 121\t\t\tudes identities and global sta...\n      SWAP2 \t\t\tudes identities and global sta...\n      SWAP1 \t\t\tudes identities and global sta...\n      PUSH [tag] 87\t\t\tudes identities and global sta...\n      JUMP \t\t\tudes identities and global sta...\n    tag 121\t\t\tudes identities and global sta...\n      JUMPDEST \t\t\tudes identities and global sta...\n      PUSH [tag] 122\t\t\tudes identities and global sta...\n      JUMP \t\t\tudes identities and global sta...\n    tag 120\t\t\tudes identities and global sta...\n      JUMPDEST \t\t\tudes identities and global sta...\n      PUSH 40\t\t\tudes identities and global sta...\n      MLOAD \t\t\tudes identities and global sta...\n      PUSH [tag] 123\t\t\tudes identities and global sta...\n      SWAP2 \t\t\tudes identities and global sta...\n      SWAP1 \t\t\tudes identities and global sta...\n      PUSH [tag] 50\t\t\tudes identities and global sta...\n      JUMP \t\t\tudes identities and global sta...\n    tag 123\t\t\tudes identities and global sta...\n      JUMPDEST \t\t\tudes identities and global sta...\n      PUSH 40\t\t\tudes identities and global sta...\n      MLOAD \t\t\tudes identities and global sta...\n      DUP1 \t\t\tudes identities and global sta...\n      SWAP2 \t\t\tudes identities and global sta...\n      SUB \t\t\tudes identities and global sta...\n      SWAP1 \t\t\tudes identities and global sta...\n      RETURN \t\t\tudes identities and global sta...\n    tag 24\t\t\tfunction setZKPRequest(\\n     ...\n      JUMPDEST \t\t\tfunction setZKPRequest(\\n     ...\n      PUSH [tag] 124\t\t\tfunction setZKPRequest(\\n     ...\n      PUSH 4\t\t\tfunction setZKPRequest(\\n     ...\n      DUP1 \t\t\tfunction setZKPRequest(\\n     ...\n      CALLDATASIZE \t\t\tfunction setZKPRequest(\\n     ...\n      SUB \t\t\tfunction setZKPRequest(\\n     ...\n      DUP2 \t\t\tfunction setZKPRequest(\\n     ...\n      ADD \t\t\tfunction setZKPRequest(\\n     ...\n      SWAP1 \t\t\tfunction setZKPRequest(\\n     ...\n      PUSH [tag] 125\t\t\tfunction setZKPRequest(\\n     ...\n      SWAP2 \t\t\tfunction setZKPRequest(\\n     ...\n      SWAP1 \t\t\tfunction setZKPRequest(\\n     ...\n      PUSH [tag] 126\t\t\tfunction setZKPRequest(\\n     ...\n      JUMP \t\t\tfunction setZKPRequest(\\n     ...\n    tag 125\t\t\tfunction setZKPRequest(\\n     ...\n      JUMPDEST \t\t\tfunction setZKPRequest(\\n     ...\n      PUSH [tag] 127\t\t\tfunction setZKPRequest(\\n     ...\n      JUMP \t\t\tfunction setZKPRequest(\\n     ...\n    tag 124\t\t\tfunction setZKPRequest(\\n     ...\n      JUMPDEST \t\t\tfunction setZKPRequest(\\n     ...\n      STOP \t\t\tfunction setZKPRequest(\\n     ...\n    tag 25\t\t\t\n      JUMPDEST \t\t\t\n      PUSH [tag] 128\t\t\t\n      PUSH 4\t\t\t\n      DUP1 \t\t\t\n      CALLDATASIZE \t\t\t\n      SUB \t\t\t\n      DUP2 \t\t\t\n      ADD \t\t\t\n      SWAP1 \t\t\t\n      PUSH [tag] 129\t\t\t\n      SWAP2 \t\t\t\n      SWAP1 \t\t\t\n      PUSH [tag] 47\t\t\t\n      JUMP \t\t\t\n    tag 129\t\t\t\n      JUMPDEST \t\t\t\n      PUSH [tag] 130\t\t\t\n      JUMP \t\t\t\n    tag 128\t\t\t\n      JUMPDEST \t\t\t\n      PUSH 40\t\t\t\n      MLOAD \t\t\t\n      PUSH [tag] 131\t\t\t\n      SWAP2 \t\t\t\n      SWAP1 \t\t\t\n      PUSH [tag] 50\t\t\t\n      JUMP \t\t\t\n    tag 131\t\t\t\n      JUMPDEST \t\t\t\n      PUSH 40\t\t\t\n      MLOAD \t\t\t\n      DUP1 \t\t\t\n      SWAP2 \t\t\t\n      SUB \t\t\t\n      SWAP1 \t\t\t\n      RETURN \t\t\t\n    tag 26\t\t\tfunction submitZKPResponseV2(\\...\n      JUMPDEST \t\t\tfunction submitZKPResponseV2(\\...\n      PUSH [tag] 132\t\t\tfunction submitZKPResponseV2(\\...\n      PUSH 4\t\t\tfunction submitZKPResponseV2(\\...\n      DUP1 \t\t\tfunction submitZKPResponseV2(\\...\n      CALLDATASIZE \t\t\tfunction submitZKPResponseV2(\\...\n      SUB \t\t\tfunction submitZKPResponseV2(\\...\n      DUP2 \t\t\tfunction submitZKPResponseV2(\\...\n      ADD \t\t\tfunction submitZKPResponseV2(\\...\n      SWAP1 \t\t\tfunction submitZKPResponseV2(\\...\n      PUSH [tag] 133\t\t\tfunction submitZKPResponseV2(\\...\n      SWAP2 \t\t\tfunction submitZKPResponseV2(\\...\n      SWAP1 \t\t\tfunction submitZKPResponseV2(\\...\n      PUSH [tag] 134\t\t\tfunction submitZKPResponseV2(\\...\n      JUMP \t\t\tfunction submitZKPResponseV2(\\...\n    tag 133\t\t\tfunction submitZKPResponseV2(\\...\n      JUMPDEST \t\t\tfunction submitZKPResponseV2(\\...\n      PUSH [tag] 135\t\t\tfunction submitZKPResponseV2(\\...\n      JUMP \t\t\tfunction submitZKPResponseV2(\\...\n    tag 132\t\t\tfunction submitZKPResponseV2(\\...\n      JUMPDEST \t\t\tfunction submitZKPResponseV2(\\...\n      STOP \t\t\tfunction submitZKPResponseV2(\\...\n    tag 27\t\t\tfunction submitZKPResponse(\\n ...\n      JUMPDEST \t\t\tfunction submitZKPResponse(\\n ...\n      PUSH [tag] 136\t\t\tfunction submitZKPResponse(\\n ...\n      PUSH 4\t\t\tfunction submitZKPResponse(\\n ...\n      DUP1 \t\t\tfunction submitZKPResponse(\\n ...\n      CALLDATASIZE \t\t\tfunction submitZKPResponse(\\n ...\n      SUB \t\t\tfunction submitZKPResponse(\\n ...\n      DUP2 \t\t\tfunction submitZKPResponse(\\n ...\n      ADD \t\t\tfunction submitZKPResponse(\\n ...\n      SWAP1 \t\t\tfunction submitZKPResponse(\\n ...\n      PUSH [tag] 137\t\t\tfunction submitZKPResponse(\\n ...\n      SWAP2 \t\t\tfunction submitZKPResponse(\\n ...\n      SWAP1 \t\t\tfunction submitZKPResponse(\\n ...\n      PUSH [tag] 138\t\t\tfunction submitZKPResponse(\\n ...\n      JUMP \t\t\tfunction submitZKPResponse(\\n ...\n    tag 137\t\t\tfunction submitZKPResponse(\\n ...\n      JUMPDEST \t\t\tfunction submitZKPResponse(\\n ...\n      PUSH [tag] 139\t\t\tfunction submitZKPResponse(\\n ...\n      JUMP \t\t\tfunction submitZKPResponse(\\n ...\n    tag 136\t\t\tfunction submitZKPResponse(\\n ...\n      JUMPDEST \t\t\tfunction submitZKPResponse(\\n ...\n      STOP \t\t\tfunction submitZKPResponse(\\n ...\n    tag 28\t\t\t\n      JUMPDEST \t\t\t\n      PUSH [tag] 140\t\t\t\n      PUSH 4\t\t\t\n      DUP1 \t\t\t\n      CALLDATASIZE \t\t\t\n      SUB \t\t\t\n      DUP2 \t\t\t\n      ADD \t\t\t\n      SWAP1 \t\t\t\n      PUSH [tag] 141\t\t\t\n      SWAP2 \t\t\t\n      SWAP1 \t\t\t\n      PUSH [tag] 47\t\t\t\n      JUMP \t\t\t\n    tag 141\t\t\t\n      JUMPDEST \t\t\t\n      PUSH [tag] 142\t\t\t\n      JUMP \t\t\t\n    tag 140\t\t\t\n      JUMPDEST \t\t\t\n      PUSH 40\t\t\t\n      MLOAD \t\t\t\n      PUSH [tag] 143\t\t\t\n      SWAP2 \t\t\t\n      SWAP1 \t\t\t\n      PUSH [tag] 144\t\t\t\n      JUMP \t\t\t\n    tag 143\t\t\t\n      JUMPDEST \t\t\t\n      PUSH 40\t\t\t\n      MLOAD \t\t\t\n      DUP1 \t\t\t\n      SWAP2 \t\t\t\n      SUB \t\t\t\n      SWAP1 \t\t\t\n      RETURN \t\t\t\n    tag 29\t\t\tfunction setRequestOwner(\\n   ...\n      JUMPDEST \t\t\tfunction setRequestOwner(\\n   ...\n      PUSH [tag] 145\t\t\tfunction setRequestOwner(\\n   ...\n      PUSH 4\t\t\tfunction setRequestOwner(\\n   ...\n      DUP1 \t\t\tfunction setRequestOwner(\\n   ...\n      CALLDATASIZE \t\t\tfunction setRequestOwner(\\n   ...\n      SUB \t\t\tfunction setRequestOwner(\\n   ...\n      DUP2 \t\t\tfunction setRequestOwner(\\n   ...\n      ADD \t\t\tfunction setRequestOwner(\\n   ...\n      SWAP1 \t\t\tfunction setRequestOwner(\\n   ...\n      PUSH [tag] 146\t\t\tfunction setRequestOwner(\\n   ...\n      SWAP2 \t\t\tfunction setRequestOwner(\\n   ...\n      SWAP1 \t\t\tfunction setRequestOwner(\\n   ...\n      PUSH [tag] 147\t\t\tfunction setRequestOwner(\\n   ...\n      JUMP \t\t\tfunction setRequestOwner(\\n   ...\n    tag 146\t\t\tfunction setRequestOwner(\\n   ...\n      JUMPDEST \t\t\tfunction setRequestOwner(\\n   ...\n      PUSH [tag] 148\t\t\tfunction setRequestOwner(\\n   ...\n      JUMP \t\t\tfunction setRequestOwner(\\n   ...\n    tag 145\t\t\tfunction setRequestOwner(\\n   ...\n      JUMPDEST \t\t\tfunction setRequestOwner(\\n   ...\n      STOP \t\t\tfunction setRequestOwner(\\n   ...\n    tag 30\t\t\t\n      JUMPDEST \t\t\t\n      PUSH [tag] 149\t\t\t\n      PUSH 4\t\t\t\n      DUP1 \t\t\t\n      CALLDATASIZE \t\t\t\n      SUB \t\t\t\n      DUP2 \t\t\t\n      ADD \t\t\t\n      SWAP1 \t\t\t\n      PUSH [tag] 150\t\t\t\n      SWAP2 \t\t\t\n      SWAP1 \t\t\t\n      PUSH [tag] 151\t\t\t\n      JUMP \t\t\t\n    tag 150\t\t\t\n      JUMPDEST \t\t\t\n      PUSH [tag] 152\t\t\t\n      JUMP \t\t\t\n    tag 149\t\t\t\n      JUMPDEST \t\t\t\n      PUSH 40\t\t\t\n      MLOAD \t\t\t\n      PUSH [tag] 153\t\t\t\n      SWAP2 \t\t\t\n      SWAP1 \t\t\t\n      PUSH [tag] 54\t\t\t\n      JUMP \t\t\t\n    tag 153\t\t\t\n      JUMPDEST \t\t\t\n      PUSH 40\t\t\t\n      MLOAD \t\t\t\n      DUP1 \t\t\t\n      SWAP2 \t\t\t\n      SUB \t\t\t\n      SWAP1 \t\t\t\n      RETURN \t\t\t\n    tag 31\t\t\te ZKP request\\n    /// @param ...\n      JUMPDEST \t\t\te ZKP request\\n    /// @param ...\n      PUSH [tag] 154\t\t\te ZKP request\\n    /// @param ...\n      PUSH [tag] 155\t\t\te ZKP request\\n    /// @param ...\n      JUMP \t\t\te ZKP request\\n    /// @param ...\n    tag 154\t\t\te ZKP request\\n    /// @param ...\n      JUMPDEST \t\t\te ZKP request\\n    /// @param ...\n      PUSH 40\t\t\te ZKP request\\n    /// @param ...\n      MLOAD \t\t\te ZKP request\\n    /// @param ...\n      PUSH [tag] 156\t\t\te ZKP request\\n    /// @param ...\n      SWAP2 \t\t\te ZKP request\\n    /// @param ...\n      SWAP1 \t\t\te ZKP request\\n    /// @param ...\n      PUSH [tag] 61\t\t\te ZKP request\\n    /// @param ...\n      JUMP \t\t\te ZKP request\\n    /// @param ...\n    tag 156\t\t\te ZKP request\\n    /// @param ...\n      JUMPDEST \t\t\te ZKP request\\n    /// @param ...\n      PUSH 40\t\t\te ZKP request\\n    /// @param ...\n      MLOAD \t\t\te ZKP request\\n    /// @param ...\n      DUP1 \t\t\te ZKP request\\n    /// @param ...\n      SWAP2 \t\t\te ZKP request\\n    /// @param ...\n      SUB \t\t\te ZKP request\\n    /// @param ...\n      SWAP1 \t\t\te ZKP request\\n    /// @param ...\n      RETURN \t\t\te ZKP request\\n    /// @param ...\n    tag 32\t\t\t/ @dev Submits a ZKP response ...\n      JUMPDEST \t\t\t/ @dev Submits a ZKP response ...\n      PUSH [tag] 157\t\t\t/ @dev Submits a ZKP response ...\n      PUSH 4\t\t\t/ @dev Submits a ZKP response ...\n      DUP1 \t\t\t/ @dev Submits a ZKP response ...\n      CALLDATASIZE \t\t\t/ @dev Submits a ZKP response ...\n      SUB \t\t\t/ @dev Submits a ZKP response ...\n      DUP2 \t\t\t/ @dev Submits a ZKP response ...\n      ADD \t\t\t/ @dev Submits a ZKP response ...\n      SWAP1 \t\t\t/ @dev Submits a ZKP response ...\n      PUSH [tag] 158\t\t\t/ @dev Submits a ZKP response ...\n      SWAP2 \t\t\t/ @dev Submits a ZKP response ...\n      SWAP1 \t\t\t/ @dev Submits a ZKP response ...\n      PUSH [tag] 159\t\t\t/ @dev Submits a ZKP response ...\n      JUMP \t\t\t/ @dev Submits a ZKP response ...\n    tag 158\t\t\t/ @dev Submits a ZKP response ...\n      JUMPDEST \t\t\t/ @dev Submits a ZKP response ...\n      PUSH [tag] 160\t\t\t/ @dev Submits a ZKP response ...\n      JUMP \t\t\t/ @dev Submits a ZKP response ...\n    tag 157\t\t\t/ @dev Submits a ZKP response ...\n      JUMPDEST \t\t\t/ @dev Submits a ZKP response ...\n      STOP \t\t\t/ @dev Submits a ZKP response ...\n    tag 33\t\t\tstring public constant VERSION...\n      JUMPDEST \t\t\tstring public constant VERSION...\n      PUSH [tag] 161\t\t\tstring public constant VERSION...\n      PUSH [tag] 162\t\t\tstring public constant VERSION...\n      JUMP \t\t\tstring public constant VERSION...\n    tag 161\t\t\tstring public constant VERSION...\n      JUMPDEST \t\t\tstring public constant VERSION...\n      PUSH 40\t\t\tstring public constant VERSION...\n      MLOAD \t\t\tstring public constant VERSION...\n      PUSH [tag] 163\t\t\tstring public constant VERSION...\n      SWAP2 \t\t\tstring public constant VERSION...\n      SWAP1 \t\t\tstring public constant VERSION...\n      PUSH [tag] 84\t\t\tstring public constant VERSION...\n      JUMP \t\t\tstring public constant VERSION...\n    tag 163\t\t\tstring public constant VERSION...\n      JUMPDEST \t\t\tstring public constant VERSION...\n      PUSH 40\t\t\tstring public constant VERSION...\n      MLOAD \t\t\tstring public constant VERSION...\n      DUP1 \t\t\tstring public constant VERSION...\n      SWAP2 \t\t\tstring public constant VERSION...\n      SUB \t\t\tstring public constant VERSION...\n      SWAP1 \t\t\tstring public constant VERSION...\n      RETURN \t\t\tstring public constant VERSION...\n    tag 44\t\t\t\n      JUMPDEST \t\t\t\n      PUSH 1\t\t\t\n      DUP3 \t\t\t\n      DUP3 \t\t\t\n      SWAP1 \t\t\t\n      POP \t\t\t\n      GT \t\t\t\n      PUSH [tag] 165\t\t\t\n      JUMPI \t\t\t\n      PUSH 40\t\t\t\n      MLOAD \t\t\t\n      PUSH 8C379A000000000000000000000000000000000000000000000000000000000\t\t\t\n      DUP2 \t\t\t\n      MSTORE \t\t\t\n      PUSH 4\t\t\t\n      ADD \t\t\t\n      PUSH [tag] 166\t\t\t\n      SWAP1 \t\t\t\n      PUSH [tag] 167\t\t\t\n      JUMP \t\t\t\n    tag 166\t\t\t\n      JUMPDEST \t\t\t\n      PUSH 40\t\t\t\n      MLOAD \t\t\t\n      DUP1 \t\t\t\n      SWAP2 \t\t\t\n      SUB \t\t\t\n      SWAP1 \t\t\t\n      REVERT \t\t\t\n    tag 165\t\t\t\n      JUMPDEST \t\t\t\n      PUSH 0\t\t\t\n      PUSH [tag] 168\t\t\t\n      DUP5 \t\t\t\n      DUP5 \t\t\t\n      DUP5 \t\t\t\n      PUSH 0\t\t\t\n      DUP2 \t\t\t\n      DUP2 \t\t\t\n      LT \t\t\t\n      PUSH [tag] 169\t\t\t\n      JUMPI \t\t\t\n      PUSH [tag] 170\t\t\t\n      PUSH [tag] 171\t\t\t\n      JUMP \t\t\t\n    tag 170\t\t\t\n      JUMPDEST \t\t\t\n    tag 169\t\t\t\n      JUMPDEST \t\t\t\n      SWAP1 \t\t\t\n      POP \t\t\t\n      PUSH 20\t\t\t\n      MUL \t\t\t\n      ADD \t\t\t\n      PUSH 20\t\t\t\n      DUP2 \t\t\t\n      ADD \t\t\t\n      SWAP1 \t\t\t\n      PUSH [tag] 172\t\t\t\n      SWAP2 \t\t\t\n      SWAP1 \t\t\t\n      PUSH [tag] 47\t\t\t\n      JUMP \t\t\t\n    tag 172\t\t\t\n      JUMPDEST \t\t\t\n      PUSH 40\t\t\t\n      MLOAD \t\t\t\n      DUP1 \t\t\t\n      PUSH 40\t\t\t\n      ADD \t\t\t\n      PUSH 40\t\t\t\n      MSTORE \t\t\t\n      DUP1 \t\t\t\n      PUSH 6\t\t\t\n      DUP2 \t\t\t\n      MSTORE \t\t\t\n      PUSH 20\t\t\t\n      ADD \t\t\t\n      PUSH 6C696E6B49440000000000000000000000000000000000000000000000000000\t\t\t\n      DUP2 \t\t\t\n      MSTORE \t\t\t\n      POP \t\t\t\n      PUSH [tag] 152\t\t\t\n      JUMP \t\t\t\n    tag 168\t\t\t\n      JUMPDEST \t\t\t\n      SWAP1 \t\t\t\n      POP \t\t\t\n      PUSH 0\t\t\t\n      DUP2 \t\t\t\n      SUB \t\t\t\n      PUSH [tag] 173\t\t\t\n      JUMPI \t\t\t\n      PUSH 40\t\t\t\n      MLOAD \t\t\t\n      PUSH 8C379A000000000000000000000000000000000000000000000000000000000\t\t\t\n      DUP2 \t\t\t\n      MSTORE \t\t\t\n      PUSH 4\t\t\t\n      ADD \t\t\t\n      PUSH [tag] 174\t\t\t\n      SWAP1 \t\t\t\n      PUSH [tag] 175\t\t\t\n      JUMP \t\t\t\n    tag 174\t\t\t\n      JUMPDEST \t\t\t\n      PUSH 40\t\t\t\n      MLOAD \t\t\t\n      DUP1 \t\t\t\n      SWAP2 \t\t\t\n      SUB \t\t\t\n      SWAP1 \t\t\t\n      REVERT \t\t\t\n    tag 173\t\t\t\n      JUMPDEST \t\t\t\n      PUSH 0\t\t\t\n      PUSH 1\t\t\t\n      SWAP1 \t\t\t\n      POP \t\t\t\n    tag 176\t\t\t\n      JUMPDEST \t\t\t\n      DUP4 \t\t\t\n      DUP4 \t\t\t\n      SWAP1 \t\t\t\n      POP \t\t\t\n      DUP2 \t\t\t\n      LT \t\t\t\n      ISZERO \t\t\t\n      PUSH [tag] 177\t\t\t\n      JUMPI \t\t\t\n      PUSH 0\t\t\t\n      PUSH [tag] 179\t\t\t\n      DUP7 \t\t\t\n      DUP7 \t\t\t\n      DUP7 \t\t\t\n      DUP6 \t\t\t\n      DUP2 \t\t\t\n      DUP2 \t\t\t\n      LT \t\t\t\n      PUSH [tag] 180\t\t\t\n      JUMPI \t\t\t\n      PUSH [tag] 181\t\t\t\n      PUSH [tag] 171\t\t\t\n      JUMP \t\t\t\n    tag 181\t\t\t\n      JUMPDEST \t\t\t\n    tag 180\t\t\t\n      JUMPDEST \t\t\t\n      SWAP1 \t\t\t\n      POP \t\t\t\n      PUSH 20\t\t\t\n      MUL \t\t\t\n      ADD \t\t\t\n      PUSH 20\t\t\t\n      DUP2 \t\t\t\n      ADD \t\t\t\n      SWAP1 \t\t\t\n      PUSH [tag] 182\t\t\t\n      SWAP2 \t\t\t\n      SWAP1 \t\t\t\n      PUSH [tag] 47\t\t\t\n      JUMP \t\t\t\n    tag 182\t\t\t\n      JUMPDEST \t\t\t\n      PUSH 40\t\t\t\n      MLOAD \t\t\t\n      DUP1 \t\t\t\n      PUSH 40\t\t\t\n      ADD \t\t\t\n      PUSH 40\t\t\t\n      MSTORE \t\t\t\n      DUP1 \t\t\t\n      PUSH 6\t\t\t\n      DUP2 \t\t\t\n      MSTORE \t\t\t\n      PUSH 20\t\t\t\n      ADD \t\t\t\n      PUSH 6C696E6B49440000000000000000000000000000000000000000000000000000\t\t\t\n      DUP2 \t\t\t\n      MSTORE \t\t\t\n      POP \t\t\t\n      PUSH [tag] 152\t\t\t\n      JUMP \t\t\t\n    tag 179\t\t\t\n      JUMPDEST \t\t\t\n      SWAP1 \t\t\t\n      POP \t\t\t\n      DUP1 \t\t\t\n      DUP4 \t\t\t\n      EQ \t\t\t\n      PUSH [tag] 183\t\t\t\n      JUMPI \t\t\t\n      DUP5 \t\t\t\n      DUP5 \t\t\t\n      PUSH 0\t\t\t\n      DUP2 \t\t\t\n      DUP2 \t\t\t\n      LT \t\t\t\n      PUSH [tag] 184\t\t\t\n      JUMPI \t\t\t\n      PUSH [tag] 185\t\t\t\n      PUSH [tag] 171\t\t\t\n      JUMP \t\t\t\n    tag 185\t\t\t\n      JUMPDEST \t\t\t\n    tag 184\t\t\t\n      JUMPDEST \t\t\t\n      SWAP1 \t\t\t\n      POP \t\t\t\n      PUSH 20\t\t\t\n      MUL \t\t\t\n      ADD \t\t\t\n      PUSH 20\t\t\t\n      DUP2 \t\t\t\n      ADD \t\t\t\n      SWAP1 \t\t\t\n      PUSH [tag] 186\t\t\t\n      SWAP2 \t\t\t\n      SWAP1 \t\t\t\n      PUSH [tag] 47\t\t\t\n      JUMP \t\t\t\n    tag 186\t\t\t\n      JUMPDEST \t\t\t\n      DUP4 \t\t\t\n      DUP7 \t\t\t\n      DUP7 \t\t\t\n      DUP6 \t\t\t\n      DUP2 \t\t\t\n      DUP2 \t\t\t\n      LT \t\t\t\n      PUSH [tag] 187\t\t\t\n      JUMPI \t\t\t\n      PUSH [tag] 188\t\t\t\n      PUSH [tag] 171\t\t\t\n      JUMP \t\t\t\n    tag 188\t\t\t\n      JUMPDEST \t\t\t\n    tag 187\t\t\t\n      JUMPDEST \t\t\t\n      SWAP1 \t\t\t\n      POP \t\t\t\n      PUSH 20\t\t\t\n      MUL \t\t\t\n      ADD \t\t\t\n      PUSH 20\t\t\t\n      DUP2 \t\t\t\n      ADD \t\t\t\n      SWAP1 \t\t\t\n      PUSH [tag] 189\t\t\t\n      SWAP2 \t\t\t\n      SWAP1 \t\t\t\n      PUSH [tag] 47\t\t\t\n      JUMP \t\t\t\n    tag 189\t\t\t\n      JUMPDEST \t\t\t\n      DUP4 \t\t\t\n      PUSH 40\t\t\t\n      MLOAD \t\t\t\n      PUSH CB82C0300000000000000000000000000000000000000000000000000000000\t\t\t\n      DUP2 \t\t\t\n      MSTORE \t\t\t\n      PUSH 4\t\t\t\n      ADD \t\t\t\n      PUSH [tag] 190\t\t\t\n      SWAP5 \t\t\t\n      SWAP4 \t\t\t\n      SWAP3 \t\t\t\n      SWAP2 \t\t\t\n      SWAP1 \t\t\t\n      PUSH [tag] 191\t\t\t\n      JUMP \t\t\t\n    tag 190\t\t\t\n      JUMPDEST \t\t\t\n      PUSH 40\t\t\t\n      MLOAD \t\t\t\n      DUP1 \t\t\t\n      SWAP2 \t\t\t\n      SUB \t\t\t\n      SWAP1 \t\t\t\n      REVERT \t\t\t\n    tag 183\t\t\t\n      JUMPDEST \t\t\t\n      POP \t\t\t\n      DUP1 \t\t\t\n      DUP1 \t\t\t\n      PUSH 1\t\t\t\n      ADD \t\t\t\n      SWAP2 \t\t\t\n      POP \t\t\t\n      POP \t\t\t\n      PUSH [tag] 176\t\t\t\n      JUMP \t\t\t\n    tag 177\t\t\t\n      JUMPDEST \t\t\t\n      POP \t\t\t\n      POP \t\t\t\n      POP \t\t\t\n      POP \t\t\t\n      POP \t\t\t\n      JUMP \t\t\t\n    tag 48\t\t\tst component of the proof\\n   ...\n      JUMPDEST \t\t\tst component of the proof\\n   ...\n      PUSH 0\t\t\t  fu\n      DUP2 \t\t\t componen\n      PUSH 1\t\t\tof t\n      DUP1 \t\t\t         \n      ISZERO \t\t\tta,\\n            address(reque...\n      PUSH [tag] 193\t\t\tta,\\n            address(reque...\n      JUMPI \t\t\tta,\\n            address(reque...\n      PUSH [tag] 194\t\t\tator),\\n            request\n      DUP3 \t\t\t   reques\n      PUSH [tag] 130\t\t\tator),\\n        \n      JUMP \t\t\tator),\\n            request\n    tag 194\t\t\tator),\\n            request\n      JUMPDEST \t\t\tator),\\n            request\n      PUSH [tag] 195\t\t\tst.validator),\\n            re...\n      JUMPI \t\t\tst.validator),\\n            re...\n      PUSH 40\t\t\tst.validator),\\n            re...\n      MLOAD \t\t\tst.validator),\\n            re...\n      PUSH 8C379A000000000000000000000000000000000000000000000000000000000\t\t\tst.validator),\\n            re...\n      DUP2 \t\t\tst.validator),\\n            re...\n      MSTORE \t\t\tst.validator),\\n            re...\n      PUSH 4\t\t\tst.validator),\\n            re...\n      ADD \t\t\tst.validator),\\n            re...\n      PUSH [tag] 196\t\t\tst.validator),\\n            re...\n      SWAP1 \t\t\tst.validator),\\n            re...\n      PUSH [tag] 197\t\t\tst.validator),\\n            re...\n      JUMP \t\t\tst.validator),\\n            re...\n    tag 196\t\t\tst.validator),\\n            re...\n      JUMPDEST \t\t\tst.validator),\\n            re...\n      PUSH 40\t\t\tst.validator),\\n            re...\n      MLOAD \t\t\tst.validator),\\n            re...\n      DUP1 \t\t\tst.validator),\\n            re...\n      SWAP2 \t\t\tst.validator),\\n            re...\n      SUB \t\t\tst.validator),\\n            re...\n      SWAP1 \t\t\tst.validator),\\n            re...\n      REVERT \t\t\tst.validator),\\n            re...\n    tag 195\t\t\tst.validator),\\n            re...\n      JUMPDEST \t\t\tst.validator),\\n            re...\n      PUSH [tag] 198\t\t\tta,\\n            address(reque...\n      JUMP \t\t\tta,\\n            address(reque...\n    tag 193\t\t\tta,\\n            address(reque...\n      JUMPDEST \t\t\tta,\\n            address(reque...\n      PUSH [tag] 199\t\t\tes proof status\\n    /// @p\n      DUP3 \t\t\t    /// @\n      PUSH [tag] 130\t\t\tes proof status\n      JUMP \t\t\tes proof status\\n    /// @p\n    tag 199\t\t\tes proof status\\n    /// @p\n      JUMPDEST \t\t\tes proof status\\n    /// @p\n      ISZERO \t\t\ttes proof status\\n    /// @p\n      PUSH [tag] 200\t\t\tand updates proof status\\n    ...\n      JUMPI \t\t\tand updates proof status\\n    ...\n      PUSH 40\t\t\tand updates proof status\\n    ...\n      MLOAD \t\t\tand updates proof status\\n    ...\n      PUSH 8C379A000000000000000000000000000000000000000000000000000000000\t\t\tand updates proof status\\n    ...\n      DUP2 \t\t\tand updates proof status\\n    ...\n      MSTORE \t\t\tand updates proof status\\n    ...\n      PUSH 4\t\t\tand updates proof status\\n    ...\n      ADD \t\t\tand updates proof status\\n    ...\n      PUSH [tag] 201\t\t\tand updates proof status\\n    ...\n      SWAP1 \t\t\tand updates proof status\\n    ...\n      PUSH [tag] 202\t\t\tand updates proof status\\n    ...\n      JUMP \t\t\tand updates proof status\\n    ...\n    tag 201\t\t\tand updates proof status\\n    ...\n      JUMPDEST \t\t\tand updates proof status\\n    ...\n      PUSH 40\t\t\tand updates proof status\\n    ...\n      MLOAD \t\t\tand updates proof status\\n    ...\n      DUP1 \t\t\tand updates proof status\\n    ...\n      SWAP2 \t\t\tand updates proof status\\n    ...\n      SUB \t\t\tand updates proof status\\n    ...\n      SWAP1 \t\t\tand updates proof status\\n    ...\n      REVERT \t\t\tand updates proof status\\n    ...\n    tag 200\t\t\tand updates proof status\\n    ...\n      JUMPDEST \t\t\tand updates proof status\\n    ...\n    tag 198\t\t\tta,\\n            address(reque...\n      JUMPDEST \t\t\tta,\\n            address(reque...\n      PUSH [tag] 204\t\t\tonse(\\n        uint64 reques\n      PUSH [tag] 205\t\t\tonse(\\n        uint64 requ\n      JUMP \t\t\tonse(\\n        uint64 reques\n    tag 204\t\t\tonse(\\n        uint64 reques\n      JUMPDEST \t\t\tonse(\\n        uint64 reques\n      PUSH 0\t\t\tonse(\\n        uint64 requestI...\n      ADD \t\t\tonse(\\n        uint64 requestI...\n      PUSH 0\t\t\tonse(\\n        uint64 requestI...\n      DUP6 \t\t\t6[] memor\n      PUSH FFFFFFFFFFFFFFFF\t\t\tonse(\\n        uint64 requestI...\n      AND \t\t\tonse(\\n        uint64 requestI...\n      PUSH FFFFFFFFFFFFFFFF\t\t\tonse(\\n        uint64 requestI...\n      AND \t\t\tonse(\\n        uint64 requestI...\n      DUP2 \t\t\tonse(\\n        uint64 requestI...\n      MSTORE \t\t\tonse(\\n        uint64 requestI...\n      PUSH 20\t\t\tonse(\\n        uint64 requestI...\n      ADD \t\t\tonse(\\n        uint64 requestI...\n      SWAP1 \t\t\tonse(\\n        uint64 requestI...\n      DUP2 \t\t\tonse(\\n        uint64 requestI...\n      MSTORE \t\t\tonse(\\n        uint64 requestI...\n      PUSH 20\t\t\tonse(\\n        uint64 requestI...\n      ADD \t\t\tonse(\\n        uint64 requestI...\n      PUSH 0\t\t\tonse(\\n        uint64 requestI...\n      KECCAK256 \t\t\tonse(\\n        uint64 requestI...\n      PUSH 0\t\t\tonse(\\n        uint64 requestI...\n      SWAP1 \t\t\tonse(\\n        uint64 requestI...\n      SLOAD \t\t\tonse(\\n        uint64 requestI...\n      SWAP1 \t\t\tonse(\\n        uint64 requestI...\n      PUSH 100\t\t\tonse(\\n        uint64 requestI...\n      EXP \t\t\tonse(\\n        uint64 requestI...\n      SWAP1 \t\t\tonse(\\n        uint64 requestI...\n      DIV \t\t\tonse(\\n        uint64 requestI...\n      PUSH FF\t\t\tonse(\\n        uint64 requestI...\n      AND \t\t\tonse(\\n        uint64 requestI...\n      ISZERO \t\t\tponse(\\n        uint64 request...\n      SWAP3 \t\t\ttZKPResponse(\\n        uint64 ...\n      POP \t\t\ttZKPResponse(\\n        uint64 ...\n      POP \t\t\tst component of the proof\\n   ...\n      POP \t\t\tst component of the proof\\n   ...\n      SWAP2 \t\t\tst component of the proof\\n   ...\n      SWAP1 \t\t\tst component of the proof\\n   ...\n      POP \t\t\tst component of the proof\\n   ...\n      JUMP \t\t\tst component of the proof\\n   ...\n    tag 52\t\t\t() public pure returns (string...\n      JUMPDEST \t\t\t() public pure returns (string...\n      PUSH 3E8\t\t\t ret\n      DUP2 \t\t\t() public pure returns (string...\n      JUMP \t\t\t() public pure returns (string...\n    tag 57\t\t\tfunction enableZKPRequest(uint...\n      JUMPDEST \t\t\tfunction enableZKPRequest(uint...\n      DUP1 \t\t\trequestId\n      PUSH 0\t\t\taddress sender\n      PUSH [tag] 207\t\t\t_msgSender()\n      PUSH [tag] 208\t\t\t_msgSender\n      JUMP \t\t\t_msgSender()\n    tag 207\t\t\t_msgSender()\n      JUMPDEST \t\t\t_msgSender()\n      SWAP1 \t\t\taddress sender = _msgSender()\n      POP \t\t\taddress sender = _msgSender()\n      PUSH [tag] 209\t\t\tgetRequestOwner(requestId)\n      DUP3 \t\t\trequestId\n      PUSH [tag] 103\t\t\tgetRequestOwner\n      JUMP \t\t\tgetRequestOwner(requestId)\n    tag 209\t\t\tgetRequestOwner(requestId)\n      JUMPDEST \t\t\tgetRequestOwner(requestId)\n      PUSH FFFFFFFFFFFFFFFFFFFFFFFFFFFFFFFFFFFFFFFF\t\t\tsender == getRequestOwner(requ...\n      AND \t\t\tsender == getRequestOwner(requ...\n      DUP2 \t\t\tsender\n      PUSH FFFFFFFFFFFFFFFFFFFFFFFFFFFFFFFFFFFFFFFF\t\t\tsender == getRequestOwner(requ...\n      AND \t\t\tsender == getRequestOwner(requ...\n      EQ \t\t\tsender == getRequestOwner(requ...\n      DUP1 \t\t\tsender == getRequestOwner(requ...\n      PUSH [tag] 210\t\t\tsender == getRequestOwner(requ...\n      JUMPI \t\t\tsender == getRequestOwner(requ...\n      POP \t\t\tsender == getRequestOwner(requ...\n      PUSH [tag] 211\t\t\towner()\n      PUSH [tag] 118\t\t\towner\n      JUMP \t\t\towner()\n    tag 211\t\t\towner()\n      JUMPDEST \t\t\towner()\n      PUSH FFFFFFFFFFFFFFFFFFFFFFFFFFFFFFFFFFFFFFFF\t\t\tsender == owner()\n      AND \t\t\tsender == owner()\n      DUP2 \t\t\tsender\n      PUSH FFFFFFFFFFFFFFFFFFFFFFFFFFFFFFFFFFFFFFFF\t\t\tsender == owner()\n      AND \t\t\tsender == owner()\n      EQ \t\t\tsender == owner()\n    tag 210\t\t\tsender == getRequestOwner(requ...\n      JUMPDEST \t\t\tsender == getRequestOwner(requ...\n      PUSH [tag] 212\t\t\trequire(\\n            sender =...\n      JUMPI \t\t\trequire(\\n            sender =...\n      PUSH 40\t\t\trequire(\\n            sender =...\n      MLOAD \t\t\trequire(\\n            sender =...\n      PUSH 8C379A000000000000000000000000000000000000000000000000000000000\t\t\trequire(\\n            sender =...\n      DUP2 \t\t\trequire(\\n            sender =...\n      MSTORE \t\t\trequire(\\n            sender =...\n      PUSH 4\t\t\trequire(\\n            sender =...\n      ADD \t\t\trequire(\\n            sender =...\n      PUSH [tag] 213\t\t\trequire(\\n            sender =...\n      SWAP1 \t\t\trequire(\\n            sender =...\n      PUSH [tag] 214\t\t\trequire(\\n            sender =...\n      JUMP \t\t\trequire(\\n            sender =...\n    tag 213\t\t\trequire(\\n            sender =...\n      JUMPDEST \t\t\trequire(\\n            sender =...\n      PUSH 40\t\t\trequire(\\n            sender =...\n      MLOAD \t\t\trequire(\\n            sender =...\n      DUP1 \t\t\trequire(\\n            sender =...\n      SWAP2 \t\t\trequire(\\n            sender =...\n      SUB \t\t\trequire(\\n            sender =...\n      SWAP1 \t\t\trequire(\\n            sender =...\n      REVERT \t\t\trequire(\\n            sender =...\n    tag 212\t\t\trequire(\\n            sender =...\n      JUMPDEST \t\t\trequire(\\n            sender =...\n      PUSH [tag] 216\t\t\t_enableZKPRequest(requestId)\n      DUP4 \t\t\trequestId\n      PUSH [tag] 217\t\t\t_enableZKPRequest\n      JUMP \t\t\t_enableZKPRequest(requestId)\n    tag 216\t\t\t_enableZKPRequest(requestId)\n      JUMPDEST \t\t\t_enableZKPRequest(requestId)\n      POP \t\t\t{\\n        address sender = _m...\n      POP \t\t\tfunction enableZKPRequest(uint...\n      POP \t\t\tfunction enableZKPRequest(uint...\n      JUMP \t\t\tfunction enableZKPRequest(uint...\n    tag 59\t\t\t\n      JUMPDEST \t\t\t\n      PUSH 0\t\t\t\n      PUSH [tag] 219\t\t\t\n      PUSH [tag] 220\t\t\t\n      JUMP \t\t\t\n    tag 219\t\t\t\n      JUMPDEST \t\t\t\n      PUSH 3\t\t\t\n      ADD \t\t\t\n      PUSH 0\t\t\t\n      SWAP1 \t\t\t\n      SLOAD \t\t\t\n      SWAP1 \t\t\t\n      PUSH 100\t\t\t\n      EXP \t\t\t\n      SWAP1 \t\t\t\n      DIV \t\t\t\n      PUSH FFFFFFFFFFFFFFFFFFFFFFFFFFFFFFFFFFFFFFFF\t\t\t\n      AND \t\t\t\n      SWAP1 \t\t\t\n      POP \t\t\t\n      SWAP1 \t\t\t\n      JUMP \t\t\t\n    tag 65\t\t\tfunction setState(IState state...\n      JUMPDEST \t\t\tfunction setState(IState state...\n      PUSH [tag] 222\t\t\t  emit ZKPReq\n      PUSH [tag] 223\t\t\t  emit ZKPR\n      JUMP \t\t\t  emit ZKPReq\n    tag 222\t\t\t  emit ZKPReq\n      JUMPDEST \t\t\t  emit ZKPReq\n      PUSH [tag] 225\t\t\t_setState(state)\n      DUP2 \t\t\tstate\n      PUSH [tag] 226\t\t\t_setState\n      JUMP \t\t\t_setState(state)\n    tag 225\t\t\t_setState(state)\n      JUMPDEST \t\t\t_setState(state)\n      POP \t\t\tfunction setState(IState state...\n      JUMP \t\t\tfunction setState(IState state...\n    tag 69\t\t\tfunction initialize(IState sta...\n      JUMPDEST \t\t\tfunction initialize(IState sta...\n      PUSH 0\t\t\tsecond component of the proof\\...\n      PUSH [tag] 228\t\t\t /// @param c The third co\n      PUSH [tag] 229\t\t\t /// @param c The third \n      JUMP \t\t\t /// @param c The third co\n    tag 228\t\t\t /// @param c The third co\n      JUMPDEST \t\t\t /// @param c The third co\n      SWAP1 \t\t\tsecond component of the proof\\...\n      POP \t\t\tsecond component of the proof\\...\n      PUSH 0\t\t\tf of which the proo\n      DUP2 \t\t\t \n      PUSH 0\t\t\t done\\n    funct\n      ADD \t\t\t done\\n    funct\n      PUSH 8\t\t\t done\\n    funct\n      SWAP1 \t\t\t done\\n    funct\n      SLOAD \t\t\t done\\n    funct\n      SWAP1 \t\t\t done\\n    funct\n      PUSH 100\t\t\t done\\n    funct\n      EXP \t\t\t done\\n    funct\n      SWAP1 \t\t\t done\\n    funct\n      DIV \t\t\t done\\n    funct\n      PUSH FF\t\t\t done\\n    funct\n      AND \t\t\t done\\n    funct\n      ISZERO \t\t\ts done\\n    funct\n      SWAP1 \t\t\tf of which the proof is done\\n...\n      POP \t\t\tf of which the proof is done\\n...\n      PUSH 0\t\t\tZKPResponse(\\n     \n      DUP3 \t\t\tu\n      PUSH 0\t\t\tuint64 request\n      ADD \t\t\tuint64 request\n      PUSH 0\t\t\tuint64 request\n      SWAP1 \t\t\tuint64 request\n      SLOAD \t\t\tuint64 request\n      SWAP1 \t\t\tuint64 request\n      PUSH 100\t\t\tuint64 request\n      EXP \t\t\tuint64 request\n      SWAP1 \t\t\tuint64 request\n      DIV \t\t\tuint64 request\n      PUSH FFFFFFFFFFFFFFFF\t\t\tuint64 request\n      AND \t\t\tuint64 request\n      SWAP1 \t\t\tZKPResponse(\\n        uint64 r...\n      POP \t\t\tZKPResponse(\\n        uint64 r...\n      PUSH 0\t\t\tsponse(requestId,\n      PUSH 0\t\t\ts\n      DUP3 \t\t\tputs, a, b,\n      PUSH FFFFFFFFFFFFFFFF\t\t\tputs, a, b, c, s\n      AND \t\t\tputs, a, b, c, s\n      EQ \t\t\tputs, a, b, c, s\n      DUP1 \t\t\tputs, a, b, c, sender);\\n    }...\n      ISZERO \t\t\tputs, a, b, c, sender);\\n    }...\n      PUSH [tag] 230\t\t\tputs, a, b, c, sender);\\n    }...\n      JUMPI \t\t\tputs, a, b, c, sender);\\n    }...\n      POP \t\t\tputs, a, b, c, sender);\\n    }...\n      DUP3 \t\t\tr);\\n    }\\n\\n   \n    tag 230\t\t\tputs, a, b, c, sender);\\n    }...\n      JUMPDEST \t\t\tputs, a, b, c, sender);\\n    }...\n      SWAP1 \t\t\tsponse(requestId, inputs, a, b...\n      POP \t\t\tsponse(requestId, inputs, a, b...\n      PUSH 0\t\t\t* @dev Sets the s\n      PUSH 1\t\t\te\n      DUP4 \t\t\te contract \n      PUSH FFFFFFFFFFFFFFFF\t\t\te contract addre\n      AND \t\t\te contract addre\n      EQ \t\t\te contract addre\n      DUP1 \t\t\te contract address\\n     */\\n ...\n      ISZERO \t\t\te contract address\\n     */\\n ...\n      PUSH [tag] 231\t\t\te contract address\\n     */\\n ...\n      JUMPI \t\t\te contract address\\n     */\\n ...\n      POP \t\t\te contract address\\n     */\\n ...\n      PUSH 0\t\t\tI\n      ADDRESS \t\t\t   f\n      PUSH FFFFFFFFFFFFFFFFFFFFFFFFFFFFFFFFFFFFFFFF\t\t\t    */\\n    function setSt\n      AND \t\t\t    */\\n    function setSt\n      EXTCODESIZE \t\t\t    */\\n    function setSt\n      EQ \t\t\t    */\\n    function setState(...\n    tag 231\t\t\te contract address\\n     */\\n ...\n      JUMPDEST \t\t\te contract address\\n     */\\n ...\n      SWAP1 \t\t\t* @dev Sets the state contract...\n      POP \t\t\t* @dev Sets the state contract...\n      DUP2 \t\t\tlic onlyOwne\n      ISZERO \t\t\tblic onlyOwne\n      DUP1 \t\t\tblic onlyOwner {\\n        _set...\n      ISZERO \t\t\tblic onlyOwner {\\n        _set...\n      PUSH [tag] 232\t\t\tblic onlyOwner {\\n        _set...\n      JUMPI \t\t\tblic onlyOwner {\\n        _set...\n      POP \t\t\tblic onlyOwner {\\n        _set...\n      DUP1 \t\t\t       _setS\n      ISZERO \t\t\t        _setS\n    tag 232\t\t\tblic onlyOwner {\\n        _set...\n      JUMPDEST \t\t\tblic onlyOwner {\\n        _set...\n      ISZERO \t\t\t) public onlyOwner {\\n        ...\n      PUSH [tag] 233\t\t\t) public onlyOwner {\\n        ...\n      JUMPI \t\t\t) public onlyOwner {\\n        ...\n      PUSH 40\t\t\t /// @dev Sets ZKP Requ\n      MLOAD \t\t\t /// @dev Sets ZKP Requ\n      PUSH F92EE8A900000000000000000000000000000000000000000000000000000000\t\t\t /// @dev Sets ZKP Requ\n      DUP2 \t\t\t /// @dev Sets ZKP Requ\n      MSTORE \t\t\t /// @dev Sets ZKP Requ\n      PUSH 4\t\t\t /// @dev Sets ZKP Requ\n      ADD \t\t\t /// @dev Sets ZKP Requ\n      PUSH 40\t\t\t /// @dev Sets ZKP Requ\n      MLOAD \t\t\t /// @dev Sets ZKP Requ\n      DUP1 \t\t\t /// @dev Sets ZKP Requ\n      SWAP2 \t\t\t /// @dev Sets ZKP Requ\n      SUB \t\t\t /// @dev Sets ZKP Requ\n      SWAP1 \t\t\t /// @dev Sets ZKP Requ\n      REVERT \t\t\t /// @dev Sets ZKP Requ\n    tag 233\t\t\t) public onlyOwner {\\n        ...\n      JUMPDEST \t\t\t) public onlyOwner {\\n        ...\n      PUSH 1\t\t\te\n      DUP6 \t\t\t \n      PUSH 0\t\t\t  /// @param r\n      ADD \t\t\t  /// @param r\n      PUSH 0\t\t\t  /// @param r\n      PUSH 100\t\t\t  /// @param reque\n      EXP \t\t\t  /// @param reque\n      DUP2 \t\t\t  /// @param reque\n      SLOAD \t\t\t  /// @param reque\n      DUP2 \t\t\t  /// @param reque\n      PUSH FFFFFFFFFFFFFFFF\t\t\t  /// @param reque\n      MUL \t\t\t  /// @param reque\n      NOT \t\t\t  /// @param reque\n      AND \t\t\t  /// @param reque\n      SWAP1 \t\t\t  /// @param reque\n      DUP4 \t\t\t  /// @param reque\n      PUSH FFFFFFFFFFFFFFFF\t\t\t  /// @param reque\n      AND \t\t\t  /// @param reque\n      MUL \t\t\t  /// @param reque\n      OR \t\t\t  /// @param reque\n      SWAP1 \t\t\t  /// @param reque\n      SSTORE \t\t\t  /// @param reque\n      POP \t\t\t  /// @param reque\n      DUP4 \t\t\t the ZKP reque\n      ISZERO \t\t\tD of the ZKP request\\n    /// ...\n      PUSH [tag] 234\t\t\tD of the ZKP request\\n    /// ...\n      JUMPI \t\t\tD of the ZKP request\\n    /// ...\n      PUSH 1\t\t\t Req\n      DUP6 \t\t\tm\n      PUSH 0\t\t\tm requestOwner \n      ADD \t\t\tm requestOwner \n      PUSH 8\t\t\tm requestOwner \n      PUSH 100\t\t\tm requestOwner ZKP Req\n      EXP \t\t\tm requestOwner ZKP Req\n      DUP2 \t\t\tm requestOwner ZKP Req\n      SLOAD \t\t\tm requestOwner ZKP Req\n      DUP2 \t\t\tm requestOwner ZKP Req\n      PUSH FF\t\t\tm requestOwner ZKP Req\n      MUL \t\t\tm requestOwner ZKP Req\n      NOT \t\t\tm requestOwner ZKP Req\n      AND \t\t\tm requestOwner ZKP Req\n      SWAP1 \t\t\tm requestOwner ZKP Req\n      DUP4 \t\t\tm requestOwner ZKP Req\n      ISZERO \t\t\tm requestOwner ZKP Req\n      ISZERO \t\t\tm requestOwner ZKP Req\n      MUL \t\t\tm requestOwner ZKP Req\n      OR \t\t\tm requestOwner ZKP Req\n      SWAP1 \t\t\tm requestOwner ZKP Req\n      SSTORE \t\t\tm requestOwner ZKP Req\n      POP \t\t\tm requestOwner ZKP Req\n    tag 234\t\t\tD of the ZKP request\\n    /// ...\n      JUMPDEST \t\t\tD of the ZKP request\\n    /// ...\n      PUSH [tag] 236\t\t\t__Ownable_init(owner)\n      DUP7 \t\t\towner\n      PUSH [tag] 237\t\t\t__Ownable_init\n      JUMP \t\t\t__Ownable_init(owner)\n    tag 236\t\t\t__Ownable_init(owner)\n      JUMPDEST \t\t\t__Ownable_init(owner)\n      PUSH [tag] 238\t\t\t__ZKPVerifierBase_init(state)\n      DUP8 \t\t\tstate\n      PUSH [tag] 239\t\t\t__ZKPVerifierBase_init\n      JUMP \t\t\t__ZKPVerifierBase_init(state)\n    tag 238\t\t\t__ZKPVerifierBase_init(state)\n      JUMPDEST \t\t\t__ZKPVerifierBase_init(state)\n      DUP4 \t\t\tRequestOwner(\\n\n      ISZERO \t\t\t setRequestOwner(\\n        uin...\n      PUSH [tag] 240\t\t\t setRequestOwner(\\n        uin...\n      JUMPI \t\t\t setRequestOwner(\\n        uin...\n      PUSH 0\t\t\taddre\n      DUP6 \t\t\te\n      PUSH 0\t\t\tequestId,\\n     \n      ADD \t\t\tequestId,\\n     \n      PUSH 8\t\t\tequestId,\\n     \n      PUSH 100\t\t\tequestId,\\n        addre\n      EXP \t\t\tequestId,\\n        addre\n      DUP2 \t\t\tequestId,\\n        addre\n      SLOAD \t\t\tequestId,\\n        addre\n      DUP2 \t\t\tequestId,\\n        addre\n      PUSH FF\t\t\tequestId,\\n        addre\n      MUL \t\t\tequestId,\\n        addre\n      NOT \t\t\tequestId,\\n        addre\n      AND \t\t\tequestId,\\n        addre\n      SWAP1 \t\t\tequestId,\\n        addre\n      DUP4 \t\t\tequestId,\\n        addre\n      ISZERO \t\t\tequestId,\\n        addre\n      ISZERO \t\t\tequestId,\\n        addre\n      MUL \t\t\tequestId,\\n        addre\n      OR \t\t\tequestId,\\n        addre\n      SWAP1 \t\t\tequestId,\\n        addre\n      SSTORE \t\t\tequestId,\\n        addre\n      POP \t\t\tequestId,\\n        addre\n      PUSH C7F505B2F371AE2175EE4913F4499E1F2633A7B5936321EED1CDAEB6115181D2\t\t\t ) public only\n      PUSH 1\t\t\tl\n      PUSH 40\t\t\t ) public only\n      MLOAD \t\t\t ) public only\n      PUSH [tag] 241\t\t\t ) public only\n      SWAP2 \t\t\t ) public only\n      SWAP1 \t\t\t ) public only\n      PUSH [tag] 242\t\t\t ) public only\n      JUMP \t\t\t ) public only\n    tag 241\t\t\t ) public only\n      JUMPDEST \t\t\t ) public only\n      PUSH 40\t\t\t ) public only\n      MLOAD \t\t\t ) public only\n      DUP1 \t\t\t ) public only\n      SWAP2 \t\t\t ) public only\n      SUB \t\t\t ) public only\n      SWAP1 \t\t\t ) public only\n      LOG1 \t\t\t ) public only\n    tag 240\t\t\t setRequestOwner(\\n        uin...\n      JUMPDEST \t\t\t setRequestOwner(\\n        uin...\n      POP \t\t\t// @param a The first componen...\n      POP \t\t\t// @param a The first componen...\n      POP \t\t\t// @param a The first componen...\n      POP \t\t\t// @param a The first componen...\n      POP \t\t\t// @param a The first componen...\n      POP \t\t\tfunction initialize(IState sta...\n      POP \t\t\tfunction initialize(IState sta...\n      JUMP \t\t\tfunction initialize(IState sta...\n    tag 73\t\t\t\n      JUMPDEST \t\t\t\n      PUSH 0\t\t\t\n      DUP2 \t\t\t\n      PUSH 1\t\t\t\n      DUP1 \t\t\t         \n      ISZERO \t\t\tta,\\n            address(reque...\n      PUSH [tag] 244\t\t\tta,\\n            address(reque...\n      JUMPI \t\t\tta,\\n            address(reque...\n      PUSH [tag] 245\t\t\tator),\\n            request\n      DUP3 \t\t\t   reques\n      PUSH [tag] 130\t\t\tator),\\n        \n      JUMP \t\t\tator),\\n            request\n    tag 245\t\t\tator),\\n            request\n      JUMPDEST \t\t\tator),\\n            request\n      PUSH [tag] 246\t\t\tst.validator),\\n            re...\n      JUMPI \t\t\tst.validator),\\n            re...\n      PUSH 40\t\t\tst.validator),\\n            re...\n      MLOAD \t\t\tst.validator),\\n            re...\n      PUSH 8C379A000000000000000000000000000000000000000000000000000000000\t\t\tst.validator),\\n            re...\n      DUP2 \t\t\tst.validator),\\n            re...\n      MSTORE \t\t\tst.validator),\\n            re...\n      PUSH 4\t\t\tst.validator),\\n            re...\n      ADD \t\t\tst.validator),\\n            re...\n      PUSH [tag] 247\t\t\tst.validator),\\n            re...\n      SWAP1 \t\t\tst.validator),\\n            re...\n      PUSH [tag] 197\t\t\tst.validator),\\n            re...\n      JUMP \t\t\tst.validator),\\n            re...\n    tag 247\t\t\tst.validator),\\n            re...\n      JUMPDEST \t\t\tst.validator),\\n            re...\n      PUSH 40\t\t\tst.validator),\\n            re...\n      MLOAD \t\t\tst.validator),\\n            re...\n      DUP1 \t\t\tst.validator),\\n            re...\n      SWAP2 \t\t\tst.validator),\\n            re...\n      SUB \t\t\tst.validator),\\n            re...\n      SWAP1 \t\t\tst.validator),\\n            re...\n      REVERT \t\t\tst.validator),\\n            re...\n    tag 246\t\t\tst.validator),\\n            re...\n      JUMPDEST \t\t\tst.validator),\\n            re...\n      PUSH [tag] 248\t\t\tta,\\n            address(reque...\n      JUMP \t\t\tta,\\n            address(reque...\n    tag 244\t\t\tta,\\n            address(reque...\n      JUMPDEST \t\t\tta,\\n            address(reque...\n      PUSH [tag] 249\t\t\tes proof status\\n    /// @p\n      DUP3 \t\t\t    /// @\n      PUSH [tag] 130\t\t\tes proof status\n      JUMP \t\t\tes proof status\\n    /// @p\n    tag 249\t\t\tes proof status\\n    /// @p\n      JUMPDEST \t\t\tes proof status\\n    /// @p\n      ISZERO \t\t\ttes proof status\\n    /// @p\n      PUSH [tag] 250\t\t\tand updates proof status\\n    ...\n      JUMPI \t\t\tand updates proof status\\n    ...\n      PUSH 40\t\t\tand updates proof status\\n    ...\n      MLOAD \t\t\tand updates proof status\\n    ...\n      PUSH 8C379A000000000000000000000000000000000000000000000000000000000\t\t\tand updates proof status\\n    ...\n      DUP2 \t\t\tand updates proof status\\n    ...\n      MSTORE \t\t\tand updates proof status\\n    ...\n      PUSH 4\t\t\tand updates proof status\\n    ...\n      ADD \t\t\tand updates proof status\\n    ...\n      PUSH [tag] 251\t\t\tand updates proof status\\n    ...\n      SWAP1 \t\t\tand updates proof status\\n    ...\n      PUSH [tag] 202\t\t\tand updates proof status\\n    ...\n      JUMP \t\t\tand updates proof status\\n    ...\n    tag 251\t\t\tand updates proof status\\n    ...\n      JUMPDEST \t\t\tand updates proof status\\n    ...\n      PUSH 40\t\t\tand updates proof status\\n    ...\n      MLOAD \t\t\tand updates proof status\\n    ...\n      DUP1 \t\t\tand updates proof status\\n    ...\n      SWAP2 \t\t\tand updates proof status\\n    ...\n      SUB \t\t\tand updates proof status\\n    ...\n      SWAP1 \t\t\tand updates proof status\\n    ...\n      REVERT \t\t\tand updates proof status\\n    ...\n    tag 250\t\t\tand updates proof status\\n    ...\n      JUMPDEST \t\t\tand updates proof status\\n    ...\n    tag 248\t\t\tta,\\n            address(reque...\n      JUMPDEST \t\t\tta,\\n            address(reque...\n      PUSH [tag] 253\t\t\t\n      PUSH [tag] 220\t\t\t\n      JUMP \t\t\t\n    tag 253\t\t\t\n      JUMPDEST \t\t\t\n      PUSH 0\t\t\t\n      ADD \t\t\t\n      PUSH 0\t\t\t\n      DUP7 \t\t\t\n      PUSH FFFFFFFFFFFFFFFFFFFFFFFFFFFFFFFFFFFFFFFF\t\t\t\n      AND \t\t\t\n      PUSH FFFFFFFFFFFFFFFFFFFFFFFFFFFFFFFFFFFFFFFF\t\t\t\n      AND \t\t\t\n      DUP2 \t\t\t\n      MSTORE \t\t\t\n      PUSH 20\t\t\t\n      ADD \t\t\t\n      SWAP1 \t\t\t\n      DUP2 \t\t\t\n      MSTORE \t\t\t\n      PUSH 20\t\t\t\n      ADD \t\t\t\n      PUSH 0\t\t\t\n      KECCAK256 \t\t\t\n      PUSH 0\t\t\t\n      DUP6 \t\t\t\n      PUSH FFFFFFFFFFFFFFFF\t\t\t\n      AND \t\t\t\n      PUSH FFFFFFFFFFFFFFFF\t\t\t\n      AND \t\t\t\n      DUP2 \t\t\t\n      MSTORE \t\t\t\n      PUSH 20\t\t\t\n      ADD \t\t\t\n      SWAP1 \t\t\t\n      DUP2 \t\t\t\n      MSTORE \t\t\t\n      PUSH 20\t\t\t\n      ADD \t\t\t\n      PUSH 0\t\t\t\n      KECCAK256 \t\t\t\n      PUSH 0\t\t\t\n      ADD \t\t\t\n      PUSH 0\t\t\t\n      SWAP1 \t\t\t\n      SLOAD \t\t\t\n      SWAP1 \t\t\t\n      PUSH 100\t\t\t\n      EXP \t\t\t\n      SWAP1 \t\t\t\n      DIV \t\t\t\n      PUSH FF\t\t\t\n      AND \t\t\t\n      SWAP3 \t\t\t\n      POP \t\t\t\n      POP \t\t\t\n      POP \t\t\t\n      SWAP3 \t\t\t\n      SWAP2 \t\t\t\n      POP \t\t\t\n      POP \t\t\t\n      JUMP \t\t\t\n    tag 78\t\t\tfunction verifyZKPResponse(\\n ...\n      JUMPDEST \t\t\tfunction verifyZKPResponse(\\n ...\n      PUSH 60\t\t\tICircuitValidator.KeyToInputIn...\n      PUSH [tag] 255\t\t\tsuper.verifyZKPResponse(reques...\n      DUP8 \t\t\trequestId\n      DUP8 \t\t\tinputs\n      DUP8 \t\t\ta\n      DUP8 \t\t\tb\n      DUP8 \t\t\tc\n      DUP8 \t\t\tsender\n      PUSH [tag] 256\t\t\tsuper.verifyZKPResponse\n      JUMP \t\t\tsuper.verifyZKPResponse(reques...\n    tag 255\t\t\tsuper.verifyZKPResponse(reques...\n      JUMPDEST \t\t\tsuper.verifyZKPResponse(reques...\n      SWAP1 \t\t\treturn super.verifyZKPResponse...\n      POP \t\t\treturn super.verifyZKPResponse...\n      SWAP7 \t\t\tfunction verifyZKPResponse(\\n ...\n      SWAP6 \t\t\tfunction verifyZKPResponse(\\n ...\n      POP \t\t\tfunction verifyZKPResponse(\\n ...\n      POP \t\t\tfunction verifyZKPResponse(\\n ...\n      POP \t\t\tfunction verifyZKPResponse(\\n ...\n      POP \t\t\tfunction verifyZKPResponse(\\n ...\n      POP \t\t\tfunction verifyZKPResponse(\\n ...\n      POP \t\t\tfunction verifyZKPResponse(\\n ...\n      JUMP \t\t\tfunction verifyZKPResponse(\\n ...\n    tag 82\t\t\tfunction version() public pure...\n      JUMPDEST \t\t\tfunction version() public pure...\n      PUSH 60\t\t\tstring memory\n      PUSH 40\t\t\tVERSION\n      MLOAD \t\t\tVERSION\n      DUP1 \t\t\tVERSION\n      PUSH 40\t\t\tVERSION\n      ADD \t\t\tVERSION\n      PUSH 40\t\t\tVERSION\n      MSTORE \t\t\tVERSION\n      DUP1 \t\t\tVERSION\n      PUSH 5\t\t\tVERSION\n      DUP2 \t\t\tVERSION\n      MSTORE \t\t\tVERSION\n      PUSH 20\t\t\tVERSION\n      ADD \t\t\tVERSION\n      PUSH 312E312E31000000000000000000000000000000000000000000000000000000\t\t\tVERSION\n      DUP2 \t\t\tVERSION\n      MSTORE \t\t\tVERSION\n      POP \t\t\tVERSION\n      SWAP1 \t\t\treturn VERSION\n      POP \t\t\treturn VERSION\n      SWAP1 \t\t\tfunction version() public pure...\n      JUMP \t\t\tfunction version() public pure...\n    tag 88\t\t\tfunction addValidatorToWhiteli...\n      JUMPDEST \t\t\tfunction addValidatorToWhiteli...\n      PUSH [tag] 259\t\t\t  emit ZKPReq\n      PUSH [tag] 223\t\t\t  emit ZKPR\n      JUMP \t\t\t  emit ZKPReq\n    tag 259\t\t\t  emit ZKPReq\n      JUMPDEST \t\t\t  emit ZKPReq\n      PUSH [tag] 261\t\t\t_addValidatorToWhitelist(valid...\n      DUP2 \t\t\tvalidator\n      PUSH [tag] 262\t\t\t_addValidatorToWhitelist\n      JUMP \t\t\t_addValidatorToWhitelist(valid...\n    tag 261\t\t\t_addValidatorToWhitelist(valid...\n      JUMPDEST \t\t\t_addValidatorToWhitelist(valid...\n      POP \t\t\tfunction addValidatorToWhiteli...\n      JUMP \t\t\tfunction addValidatorToWhiteli...\n    tag 92\t\t\t\n      JUMPDEST \t\t\t\n      PUSH 60\t\t\t\n      PUSH 0\t\t\t\n      PUSH [tag] 264\t\t\t\n      PUSH [tag] 220\t\t\t\n      JUMP \t\t\t\n    tag 264\t\t\t\n      JUMPDEST \t\t\t\n      SWAP1 \t\t\t\n      POP \t\t\t\n      PUSH 0\t\t\t\n      PUSH 0\t\t\t\n      PUSH [tag] 265\t\t\t\n      DUP4 \t\t\t\n      PUSH 2\t\t\t\n      ADD \t\t\t\n      DUP1 \t\t\t\n      SLOAD \t\t\t\n      SWAP1 \t\t\t\n      POP \t\t\t\n      DUP8 \t\t\t\n      DUP8 \t\t\t\n      PUSH 3E8\t\t\t ret\n      PUSH [tag] 266\t\t\t\n      JUMP \t\t\t\n    tag 265\t\t\t\n      JUMPDEST \t\t\t\n      SWAP2 \t\t\t\n      POP \t\t\t\n      SWAP2 \t\t\t\n      POP \t\t\t\n      PUSH 0\t\t\t\n      DUP3 \t\t\t\n      DUP3 \t\t\t\n      PUSH [tag] 267\t\t\t\n      SWAP2 \t\t\t\n      SWAP1 \t\t\t\n      PUSH [tag] 268\t\t\t\n      JUMP \t\t\t\n    tag 267\t\t\t\n      JUMPDEST \t\t\t\n      PUSH FFFFFFFFFFFFFFFF\t\t\t\n      DUP2 \t\t\t\n      GT \t\t\t\n      ISZERO \t\t\t\n      PUSH [tag] 269\t\t\t\n      JUMPI \t\t\t\n      PUSH [tag] 270\t\t\t\n      PUSH [tag] 271\t\t\t\n      JUMP \t\t\t\n    tag 270\t\t\t\n      JUMPDEST \t\t\t\n    tag 269\t\t\t\n      JUMPDEST \t\t\t\n      PUSH 40\t\t\t\n      MLOAD \t\t\t\n      SWAP1 \t\t\t\n      DUP1 \t\t\t\n      DUP3 \t\t\t\n      MSTORE \t\t\t\n      DUP1 \t\t\t\n      PUSH 20\t\t\t\n      MUL \t\t\t\n      PUSH 20\t\t\t\n      ADD \t\t\t\n      DUP3 \t\t\t\n      ADD \t\t\t\n      PUSH 40\t\t\t\n      MSTORE \t\t\t\n      DUP1 \t\t\t\n      ISZERO \t\t\t\n      PUSH [tag] 272\t\t\t\n      JUMPI \t\t\t\n      DUP2 \t\t\t\n      PUSH 20\t\t\t\n      ADD \t\t\t\n    tag 273\t\t\t\n      JUMPDEST \t\t\t\n      PUSH [tag] 274\t\t\t\n      PUSH [tag] 275\t\t\t\n      JUMP \t\t\t\n    tag 274\t\t\t\n      JUMPDEST \t\t\t\n      DUP2 \t\t\t\n      MSTORE \t\t\t\n      PUSH 20\t\t\t\n      ADD \t\t\t\n      SWAP1 \t\t\t\n      PUSH 1\t\t\t\n      SWAP1 \t\t\t\n      SUB \t\t\t\n      SWAP1 \t\t\t\n      DUP2 \t\t\t\n      PUSH [tag] 273\t\t\t\n      JUMPI \t\t\t\n      SWAP1 \t\t\t\n      POP \t\t\t\n    tag 272\t\t\t\n      JUMPDEST \t\t\t\n      POP \t\t\t\n      SWAP1 \t\t\t\n      POP \t\t\t\n      PUSH 0\t\t\t\n      DUP4 \t\t\t\n      SWAP1 \t\t\t\n      POP \t\t\t\n    tag 276\t\t\t\n      JUMPDEST \t\t\t\n      DUP3 \t\t\t\n      DUP2 \t\t\t\n      LT \t\t\t\n      ISZERO \t\t\t\n      PUSH [tag] 277\t\t\t\n      JUMPI \t\t\t\n      DUP5 \t\t\t\n      PUSH 1\t\t\t\n      ADD \t\t\t\n      PUSH 0\t\t\t\n      DUP7 \t\t\t\n      PUSH 2\t\t\t\n      ADD \t\t\t\n      DUP4 \t\t\t\n      DUP2 \t\t\t\n      SLOAD \t\t\t\n      DUP2 \t\t\t\n      LT \t\t\t\n      PUSH [tag] 279\t\t\t\n      JUMPI \t\t\t\n      PUSH [tag] 280\t\t\t\n      PUSH [tag] 171\t\t\t\n      JUMP \t\t\t\n    tag 280\t\t\t\n      JUMPDEST \t\t\t\n    tag 279\t\t\t\n      JUMPDEST \t\t\t\n      SWAP1 \t\t\t\n      PUSH 0\t\t\t\n      MSTORE \t\t\t\n      PUSH 20\t\t\t\n      PUSH 0\t\t\t\n      KECCAK256 \t\t\t\n      SWAP1 \t\t\t\n      PUSH 4\t\t\t\n      SWAP2 \t\t\t\n      DUP3 \t\t\t\n      DUP3 \t\t\t\n      DIV \t\t\t\n      ADD \t\t\t\n      SWAP2 \t\t\t\n      SWAP1 \t\t\t\n      MOD \t\t\t\n      PUSH 8\t\t\t\n      MUL \t\t\t\n      SWAP1 \t\t\t\n      SLOAD \t\t\t\n      SWAP1 \t\t\t\n      PUSH 100\t\t\t\n      EXP \t\t\t\n      SWAP1 \t\t\t\n      DIV \t\t\t\n      PUSH FFFFFFFFFFFFFFFF\t\t\t\n      AND \t\t\t\n      PUSH FFFFFFFFFFFFFFFF\t\t\t\n      AND \t\t\t\n      PUSH FFFFFFFFFFFFFFFF\t\t\t\n      AND \t\t\t\n      DUP2 \t\t\t\n      MSTORE \t\t\t\n      PUSH 20\t\t\t\n      ADD \t\t\t\n      SWAP1 \t\t\t\n      DUP2 \t\t\t\n      MSTORE \t\t\t\n      PUSH 20\t\t\t\n      ADD \t\t\t\n      PUSH 0\t\t\t\n      KECCAK256 \t\t\t\n      PUSH 40\t\t\t\n      MLOAD \t\t\t\n      DUP1 \t\t\t\n      PUSH 60\t\t\t\n      ADD \t\t\t\n      PUSH 40\t\t\t\n      MSTORE \t\t\t\n      SWAP1 \t\t\t\n      DUP2 \t\t\t\n      PUSH 0\t\t\t\n      DUP3 \t\t\t\n      ADD \t\t\t\n      DUP1 \t\t\t\n      SLOAD \t\t\t\n      PUSH [tag] 282\t\t\t\n      SWAP1 \t\t\t\n      PUSH [tag] 283\t\t\t\n      JUMP \t\t\t\n    tag 282\t\t\t\n      JUMPDEST \t\t\t\n      DUP1 \t\t\t\n      PUSH 1F\t\t\t\n      ADD \t\t\t\n      PUSH 20\t\t\t\n      DUP1 \t\t\t\n      SWAP2 \t\t\t\n      DIV \t\t\t\n      MUL \t\t\t\n      PUSH 20\t\t\t\n      ADD \t\t\t\n      PUSH 40\t\t\t\n      MLOAD \t\t\t\n      SWAP1 \t\t\t\n      DUP2 \t\t\t\n      ADD \t\t\t\n      PUSH 40\t\t\t\n      MSTORE \t\t\t\n      DUP1 \t\t\t\n      SWAP3 \t\t\t\n      SWAP2 \t\t\t\n      SWAP1 \t\t\t\n      DUP2 \t\t\t\n      DUP2 \t\t\t\n      MSTORE \t\t\t\n      PUSH 20\t\t\t\n      ADD \t\t\t\n      DUP3 \t\t\t\n      DUP1 \t\t\t\n      SLOAD \t\t\t\n      PUSH [tag] 284\t\t\t\n      SWAP1 \t\t\t\n      PUSH [tag] 283\t\t\t\n      JUMP \t\t\t\n    tag 284\t\t\t\n      JUMPDEST \t\t\t\n      DUP1 \t\t\t\n      ISZERO \t\t\t\n      PUSH [tag] 285\t\t\t\n      JUMPI \t\t\t\n      DUP1 \t\t\t\n      PUSH 1F\t\t\t\n      LT \t\t\t\n      PUSH [tag] 286\t\t\t\n      JUMPI \t\t\t\n      PUSH 100\t\t\t\n      DUP1 \t\t\t\n      DUP4 \t\t\t\n      SLOAD \t\t\t\n      DIV \t\t\t\n      MUL \t\t\t\n      DUP4 \t\t\t\n      MSTORE \t\t\t\n      SWAP2 \t\t\t\n      PUSH 20\t\t\t\n      ADD \t\t\t\n      SWAP2 \t\t\t\n      PUSH [tag] 285\t\t\t\n      JUMP \t\t\t\n    tag 286\t\t\t\n      JUMPDEST \t\t\t\n      DUP3 \t\t\t\n      ADD \t\t\t\n      SWAP2 \t\t\t\n      SWAP1 \t\t\t\n      PUSH 0\t\t\t\n      MSTORE \t\t\t\n      PUSH 20\t\t\t\n      PUSH 0\t\t\t\n      KECCAK256 \t\t\t\n      SWAP1 \t\t\t\n    tag 287\t\t\t\n      JUMPDEST \t\t\t\n      DUP2 \t\t\t\n      SLOAD \t\t\t\n      DUP2 \t\t\t\n      MSTORE \t\t\t\n      SWAP1 \t\t\t\n      PUSH 1\t\t\t\n      ADD \t\t\t\n      SWAP1 \t\t\t\n      PUSH 20\t\t\t\n      ADD \t\t\t\n      DUP1 \t\t\t\n      DUP4 \t\t\t\n      GT \t\t\t\n      PUSH [tag] 287\t\t\t\n      JUMPI \t\t\t\n      DUP3 \t\t\t\n      SWAP1 \t\t\t\n      SUB \t\t\t\n      PUSH 1F\t\t\t\n      AND \t\t\t\n      DUP3 \t\t\t\n      ADD \t\t\t\n      SWAP2 \t\t\t\n    tag 285\t\t\t\n      JUMPDEST \t\t\t\n      POP \t\t\t\n      POP \t\t\t\n      POP \t\t\t\n      POP \t\t\t\n      POP \t\t\t\n      DUP2 \t\t\t\n      MSTORE \t\t\t\n      PUSH 20\t\t\t\n      ADD \t\t\t\n      PUSH 1\t\t\t\n      DUP3 \t\t\t\n      ADD \t\t\t\n      PUSH 0\t\t\t\n      SWAP1 \t\t\t\n      SLOAD \t\t\t\n      SWAP1 \t\t\t\n      PUSH 100\t\t\t\n      EXP \t\t\t\n      SWAP1 \t\t\t\n      DIV \t\t\t\n      PUSH FFFFFFFFFFFFFFFFFFFFFFFFFFFFFFFFFFFFFFFF\t\t\t\n      AND \t\t\t\n      PUSH FFFFFFFFFFFFFFFFFFFFFFFFFFFFFFFFFFFFFFFF\t\t\t\n      AND \t\t\t\n      PUSH FFFFFFFFFFFFFFFFFFFFFFFFFFFFFFFFFFFFFFFF\t\t\t\n      AND \t\t\t\n      DUP2 \t\t\t\n      MSTORE \t\t\t\n      PUSH 20\t\t\t\n      ADD \t\t\t\n      PUSH 2\t\t\t\n      DUP3 \t\t\t\n      ADD \t\t\t\n      DUP1 \t\t\t\n      SLOAD \t\t\t\n      PUSH [tag] 288\t\t\t\n      SWAP1 \t\t\t\n      PUSH [tag] 283\t\t\t\n      JUMP \t\t\t\n    tag 288\t\t\t\n      JUMPDEST \t\t\t\n      DUP1 \t\t\t\n      PUSH 1F\t\t\t\n      ADD \t\t\t\n      PUSH 20\t\t\t\n      DUP1 \t\t\t\n      SWAP2 \t\t\t\n      DIV \t\t\t\n      MUL \t\t\t\n      PUSH 20\t\t\t\n      ADD \t\t\t\n      PUSH 40\t\t\t\n      MLOAD \t\t\t\n      SWAP1 \t\t\t\n      DUP2 \t\t\t\n      ADD \t\t\t\n      PUSH 40\t\t\t\n      MSTORE \t\t\t\n      DUP1 \t\t\t\n      SWAP3 \t\t\t\n      SWAP2 \t\t\t\n      SWAP1 \t\t\t\n      DUP2 \t\t\t\n      DUP2 \t\t\t\n      MSTORE \t\t\t\n      PUSH 20\t\t\t\n      ADD \t\t\t\n      DUP3 \t\t\t\n      DUP1 \t\t\t\n      SLOAD \t\t\t\n      PUSH [tag] 289\t\t\t\n      SWAP1 \t\t\t\n      PUSH [tag] 283\t\t\t\n      JUMP \t\t\t\n    tag 289\t\t\t\n      JUMPDEST \t\t\t\n      DUP1 \t\t\t\n      ISZERO \t\t\t\n      PUSH [tag] 290\t\t\t\n      JUMPI \t\t\t\n      DUP1 \t\t\t\n      PUSH 1F\t\t\t\n      LT \t\t\t\n      PUSH [tag] 291\t\t\t\n      JUMPI \t\t\t\n      PUSH 100\t\t\t\n      DUP1 \t\t\t\n      DUP4 \t\t\t\n      SLOAD \t\t\t\n      DIV \t\t\t\n      MUL \t\t\t\n      DUP4 \t\t\t\n      MSTORE \t\t\t\n      SWAP2 \t\t\t\n      PUSH 20\t\t\t\n      ADD \t\t\t\n      SWAP2 \t\t\t\n      PUSH [tag] 290\t\t\t\n      JUMP \t\t\t\n    tag 291\t\t\t\n      JUMPDEST \t\t\t\n      DUP3 \t\t\t\n      ADD \t\t\t\n      SWAP2 \t\t\t\n      SWAP1 \t\t\t\n      PUSH 0\t\t\t\n      MSTORE \t\t\t\n      PUSH 20\t\t\t\n      PUSH 0\t\t\t\n      KECCAK256 \t\t\t\n      SWAP1 \t\t\t\n    tag 292\t\t\t\n      JUMPDEST \t\t\t\n      DUP2 \t\t\t\n      SLOAD \t\t\t\n      DUP2 \t\t\t\n      MSTORE \t\t\t\n      SWAP1 \t\t\t\n      PUSH 1\t\t\t\n      ADD \t\t\t\n      SWAP1 \t\t\t\n      PUSH 20\t\t\t\n      ADD \t\t\t\n      DUP1 \t\t\t\n      DUP4 \t\t\t\n      GT \t\t\t\n      PUSH [tag] 292\t\t\t\n      JUMPI \t\t\t\n      DUP3 \t\t\t\n      SWAP1 \t\t\t\n      SUB \t\t\t\n      PUSH 1F\t\t\t\n      AND \t\t\t\n      DUP3 \t\t\t\n      ADD \t\t\t\n      SWAP2 \t\t\t\n    tag 290\t\t\t\n      JUMPDEST \t\t\t\n      POP \t\t\t\n      POP \t\t\t\n      POP \t\t\t\n      POP \t\t\t\n      POP \t\t\t\n      DUP2 \t\t\t\n      MSTORE \t\t\t\n      POP \t\t\t\n      POP \t\t\t\n      DUP3 \t\t\t\n      DUP6 \t\t\t\n      DUP4 \t\t\t\n      PUSH [tag] 293\t\t\t\n      SWAP2 \t\t\t\n      SWAP1 \t\t\t\n      PUSH [tag] 268\t\t\t\n      JUMP \t\t\t\n    tag 293\t\t\t\n      JUMPDEST \t\t\t\n      DUP2 \t\t\t\n      MLOAD \t\t\t\n      DUP2 \t\t\t\n      LT \t\t\t\n      PUSH [tag] 294\t\t\t\n      JUMPI \t\t\t\n      PUSH [tag] 295\t\t\t\n      PUSH [tag] 171\t\t\t\n      JUMP \t\t\t\n    tag 295\t\t\t\n      JUMPDEST \t\t\t\n    tag 294\t\t\t\n      JUMPDEST \t\t\t\n      PUSH 20\t\t\t\n      MUL \t\t\t\n      PUSH 20\t\t\t\n      ADD \t\t\t\n      ADD \t\t\t\n      DUP2 \t\t\t\n      SWAP1 \t\t\t\n      MSTORE \t\t\t\n      POP \t\t\t\n      DUP1 \t\t\t\n      DUP1 \t\t\t\n      PUSH 1\t\t\t\n      ADD \t\t\t\n      SWAP2 \t\t\t\n      POP \t\t\t\n      POP \t\t\t\n      PUSH [tag] 276\t\t\t\n      JUMP \t\t\t\n    tag 277\t\t\t\n      JUMPDEST \t\t\t\n      POP \t\t\t\n      DUP1 \t\t\t\n      SWAP5 \t\t\t\n      POP \t\t\t\n      POP \t\t\t\n      POP \t\t\t\n      POP \t\t\t\n      POP \t\t\t\n      SWAP3 \t\t\t\n      SWAP2 \t\t\t\n      POP \t\t\t\n      POP \t\t\t\n      JUMP \t\t\t\n    tag 97\t\t\tfunction removeValidatorFromWh...\n      JUMPDEST \t\t\tfunction removeValidatorFromWh...\n      PUSH [tag] 297\t\t\t  emit ZKPReq\n      PUSH [tag] 223\t\t\t  emit ZKPR\n      JUMP \t\t\t  emit ZKPReq\n    tag 297\t\t\t  emit ZKPReq\n      JUMPDEST \t\t\t  emit ZKPReq\n      PUSH [tag] 299\t\t\t_removeValidatorFromWhitelist(...\n      DUP2 \t\t\tvalidator\n      PUSH [tag] 300\t\t\t_removeValidatorFromWhitelist\n      JUMP \t\t\t_removeValidatorFromWhitelist(...\n    tag 299\t\t\t_removeValidatorFromWhitelist(...\n      JUMPDEST \t\t\t_removeValidatorFromWhitelist(...\n      POP \t\t\tfunction removeValidatorFromWh...\n      JUMP \t\t\tfunction removeValidatorFromWh...\n    tag 99\t\t\t\n      JUMPDEST \t\t\t\n      PUSH 0\t\t\t\n      PUSH [tag] 302\t\t\t\n      PUSH [tag] 220\t\t\t\n      JUMP \t\t\t\n    tag 302\t\t\t\n      JUMPDEST \t\t\t\n      PUSH 2\t\t\t\n      ADD \t\t\t\n      DUP1 \t\t\t\n      SLOAD \t\t\t\n      SWAP1 \t\t\t\n      POP \t\t\t\n      SWAP1 \t\t\t\n      POP \t\t\t\n      SWAP1 \t\t\t\n      JUMP \t\t\t\n    tag 103\t\t\t _;\\n    }\\n\\n    /// @dev Ini...\n      JUMPDEST \t\t\t _;\\n    }\\n\\n    /// @dev Ini...\n      PUSH 0\t\t\t      _\n      DUP2 \t\t\tr) public\n      PUSH 1\t\t\tniti\n      DUP1 \t\t\t         \n      ISZERO \t\t\tta,\\n            address(reque...\n      PUSH [tag] 304\t\t\tta,\\n            address(reque...\n      JUMPI \t\t\tta,\\n            address(reque...\n      PUSH [tag] 305\t\t\tator),\\n            request\n      DUP3 \t\t\t   reques\n      PUSH [tag] 130\t\t\tator),\\n        \n      JUMP \t\t\tator),\\n            request\n    tag 305\t\t\tator),\\n            request\n      JUMPDEST \t\t\tator),\\n            request\n      PUSH [tag] 306\t\t\tst.validator),\\n            re...\n      JUMPI \t\t\tst.validator),\\n            re...\n      PUSH 40\t\t\tst.validator),\\n            re...\n      MLOAD \t\t\tst.validator),\\n            re...\n      PUSH 8C379A000000000000000000000000000000000000000000000000000000000\t\t\tst.validator),\\n            re...\n      DUP2 \t\t\tst.validator),\\n            re...\n      MSTORE \t\t\tst.validator),\\n            re...\n      PUSH 4\t\t\tst.validator),\\n            re...\n      ADD \t\t\tst.validator),\\n            re...\n      PUSH [tag] 307\t\t\tst.validator),\\n            re...\n      SWAP1 \t\t\tst.validator),\\n            re...\n      PUSH [tag] 197\t\t\tst.validator),\\n            re...\n      JUMP \t\t\tst.validator),\\n            re...\n    tag 307\t\t\tst.validator),\\n            re...\n      JUMPDEST \t\t\tst.validator),\\n            re...\n      PUSH 40\t\t\tst.validator),\\n            re...\n      MLOAD \t\t\tst.validator),\\n            re...\n      DUP1 \t\t\tst.validator),\\n            re...\n      SWAP2 \t\t\tst.validator),\\n            re...\n      SUB \t\t\tst.validator),\\n            re...\n      SWAP1 \t\t\tst.validator),\\n            re...\n      REVERT \t\t\tst.validator),\\n            re...\n    tag 306\t\t\tst.validator),\\n            re...\n      JUMPDEST \t\t\tst.validator),\\n            re...\n      PUSH [tag] 308\t\t\tta,\\n            address(reque...\n      JUMP \t\t\tta,\\n            address(reque...\n    tag 304\t\t\tta,\\n            address(reque...\n      JUMPDEST \t\t\tta,\\n            address(reque...\n      PUSH [tag] 309\t\t\tes proof status\\n    /// @p\n      DUP3 \t\t\t    /// @\n      PUSH [tag] 130\t\t\tes proof status\n      JUMP \t\t\tes proof status\\n    /// @p\n    tag 309\t\t\tes proof status\\n    /// @p\n      JUMPDEST \t\t\tes proof status\\n    /// @p\n      ISZERO \t\t\ttes proof status\\n    /// @p\n      PUSH [tag] 310\t\t\tand updates proof status\\n    ...\n      JUMPI \t\t\tand updates proof status\\n    ...\n      PUSH 40\t\t\tand updates proof status\\n    ...\n      MLOAD \t\t\tand updates proof status\\n    ...\n      PUSH 8C379A000000000000000000000000000000000000000000000000000000000\t\t\tand updates proof status\\n    ...\n      DUP2 \t\t\tand updates proof status\\n    ...\n      MSTORE \t\t\tand updates proof status\\n    ...\n      PUSH 4\t\t\tand updates proof status\\n    ...\n      ADD \t\t\tand updates proof status\\n    ...\n      PUSH [tag] 311\t\t\tand updates proof status\\n    ...\n      SWAP1 \t\t\tand updates proof status\\n    ...\n      PUSH [tag] 202\t\t\tand updates proof status\\n    ...\n      JUMP \t\t\tand updates proof status\\n    ...\n    tag 311\t\t\tand updates proof status\\n    ...\n      JUMPDEST \t\t\tand updates proof status\\n    ...\n      PUSH 40\t\t\tand updates proof status\\n    ...\n      MLOAD \t\t\tand updates proof status\\n    ...\n      DUP1 \t\t\tand updates proof status\\n    ...\n      SWAP2 \t\t\tand updates proof status\\n    ...\n      SUB \t\t\tand updates proof status\\n    ...\n      SWAP1 \t\t\tand updates proof status\\n    ...\n      REVERT \t\t\tand updates proof status\\n    ...\n    tag 310\t\t\tand updates proof status\\n    ...\n      JUMPDEST \t\t\tand updates proof status\\n    ...\n    tag 308\t\t\tta,\\n            address(reque...\n      JUMPDEST \t\t\tta,\\n            address(reque...\n      PUSH [tag] 313\t\t\t);\\n        __ZKPVerifierBase_\n      PUSH [tag] 314\t\t\t);\\n        __ZKPVerifierBas\n      JUMP \t\t\t);\\n        __ZKPVerifierBase_\n    tag 313\t\t\t);\\n        __ZKPVerifierBase_\n      JUMPDEST \t\t\t);\\n        __ZKPVerifierBase_\n      PUSH 0\t\t\t);\\n        __ZKPVerifierBase_...\n      ADD \t\t\t);\\n        __ZKPVerifierBase_...\n      PUSH 0\t\t\t);\\n        __ZKPVerifierBase_...\n      DUP6 \t\t\t }\\n\\n    /\n      PUSH FFFFFFFFFFFFFFFF\t\t\t);\\n        __ZKPVerifierBase_...\n      AND \t\t\t);\\n        __ZKPVerifierBase_...\n      PUSH FFFFFFFFFFFFFFFF\t\t\t);\\n        __ZKPVerifierBase_...\n      AND \t\t\t);\\n        __ZKPVerifierBase_...\n      DUP2 \t\t\t);\\n        __ZKPVerifierBase_...\n      MSTORE \t\t\t);\\n        __ZKPVerifierBase_...\n      PUSH 20\t\t\t);\\n        __ZKPVerifierBase_...\n      ADD \t\t\t);\\n        __ZKPVerifierBase_...\n      SWAP1 \t\t\t);\\n        __ZKPVerifierBase_...\n      DUP2 \t\t\t);\\n        __ZKPVerifierBase_...\n      MSTORE \t\t\t);\\n        __ZKPVerifierBase_...\n      PUSH 20\t\t\t);\\n        __ZKPVerifierBase_...\n      ADD \t\t\t);\\n        __ZKPVerifierBase_...\n      PUSH 0\t\t\t);\\n        __ZKPVerifierBase_...\n      KECCAK256 \t\t\t);\\n        __ZKPVerifierBase_...\n      PUSH 0\t\t\t);\\n        __ZKPVerifierBase_...\n      SWAP1 \t\t\t);\\n        __ZKPVerifierBase_...\n      SLOAD \t\t\t);\\n        __ZKPVerifierBase_...\n      SWAP1 \t\t\t);\\n        __ZKPVerifierBase_...\n      PUSH 100\t\t\t);\\n        __ZKPVerifierBase_...\n      EXP \t\t\t);\\n        __ZKPVerifierBase_...\n      SWAP1 \t\t\t);\\n        __ZKPVerifierBase_...\n      DIV \t\t\t);\\n        __ZKPVerifierBase_...\n      PUSH FFFFFFFFFFFFFFFFFFFFFFFFFFFFFFFFFFFFFFFF\t\t\t);\\n        __ZKPVerifierBase_...\n      AND \t\t\t);\\n        __ZKPVerifierBase_...\n      SWAP3 \t\t\tt(owner);\\n        __ZKPVerifi...\n      POP \t\t\tt(owner);\\n        __ZKPVerifi...\n      POP \t\t\t _;\\n    }\\n\\n    /// @dev Ini...\n      POP \t\t\t _;\\n    }\\n\\n    /// @dev Ini...\n      SWAP2 \t\t\t _;\\n    }\\n\\n    /// @dev Ini...\n      SWAP1 \t\t\t _;\\n    }\\n\\n    /// @dev Ini...\n      POP \t\t\t _;\\n    }\\n\\n    /// @dev Ini...\n      JUMP \t\t\t _;\\n    }\\n\\n    /// @dev Ini...\n    tag 106\t\t\t       emit ZKPResponseSubmitt...\n      JUMPDEST \t\t\t       emit ZKPResponseSubmitt...\n      PUSH [tag] 316\t\t\t  emit ZKPReq\n      PUSH [tag] 223\t\t\t  emit ZKPR\n      JUMP \t\t\t  emit ZKPReq\n    tag 316\t\t\t  emit ZKPReq\n      JUMPDEST \t\t\t  emit ZKPReq\n      PUSH [tag] 318\t\t\t\\n\\n    /**\\n     * @dev Submi...\n      PUSH 0\t\t\tt\n      PUSH [tag] 319\t\t\t\\n\\n    /**\\n     * @\n      JUMP \t\t\t\\n\\n    /**\\n     * @dev Submi...\n    tag 318\t\t\t\\n\\n    /**\\n     * @dev Submi...\n      JUMPDEST \t\t\t\\n\\n    /**\\n     * @dev Submi...\n      JUMP \t\t\t       emit ZKPResponseSubmitt...\n    tag 108\t\t\t of ZKP responses and updates ...\n      JUMPDEST \t\t\t of ZKP responses and updates ...\n      PUSH 0\t\t\tparam response\n      PUSH [tag] 321\t\t\the list of r\n      PUSH [tag] 208\t\t\the list of\n      JUMP \t\t\the list of r\n    tag 321\t\t\the list of r\n      JUMPDEST \t\t\the list of r\n      SWAP1 \t\t\tparam responses The list of r\n      POP \t\t\tparam responses The list of r\n      DUP1 \t\t\tD, ZK \n      PUSH FFFFFFFFFFFFFFFFFFFFFFFFFFFFFFFFFFFFFFFF\t\t\tding ZKP request ID, ZK \n      AND \t\t\tding ZKP request ID, ZK \n      PUSH [tag] 322\t\t\tding ZKP reque\n      PUSH [tag] 155\t\t\tding ZKP req\n      JUMP \t\t\tding ZKP reque\n    tag 322\t\t\tding ZKP reque\n      JUMPDEST \t\t\tding ZKP reque\n      PUSH FFFFFFFFFFFFFFFFFFFFFFFFFFFFFFFFFFFFFFFF\t\t\tding ZKP request ID, ZK \n      AND \t\t\tding ZKP request ID, ZK \n      EQ \t\t\tding ZKP request ID, ZK \n      PUSH [tag] 323\t\t\tncluding ZKP request ID, ZK pr...\n      JUMPI \t\t\tncluding ZKP request ID, ZK pr...\n      DUP1 \t\t\the lis\n      PUSH 40\t\t\t * @param crossChainProof The ...\n      MLOAD \t\t\t * @param crossChainProof The ...\n      PUSH 118CDAA700000000000000000000000000000000000000000000000000000000\t\t\t * @param crossChainProof The ...\n      DUP2 \t\t\t * @param crossChainProof The ...\n      MSTORE \t\t\t * @param crossChainProof The ...\n      PUSH 4\t\t\t * @param crossChainProof The ...\n      ADD \t\t\t * @param crossChainProof The ...\n      PUSH [tag] 324\t\t\t * @param crossChainProof The ...\n      SWAP2 \t\t\t * @param crossChainProof The ...\n      SWAP1 \t\t\t * @param crossChainProof The ...\n      PUSH [tag] 61\t\t\t * @param crossChainProof The ...\n      JUMP \t\t\t * @param crossChainProof The ...\n    tag 324\t\t\t * @param crossChainProof The ...\n      JUMPDEST \t\t\t * @param crossChainProof The ...\n      PUSH 40\t\t\t * @param crossChainProof The ...\n      MLOAD \t\t\t * @param crossChainProof The ...\n      DUP1 \t\t\t * @param crossChainProof The ...\n      SWAP2 \t\t\t * @param crossChainProof The ...\n      SUB \t\t\t * @param crossChainProof The ...\n      SWAP1 \t\t\t * @param crossChainProof The ...\n      REVERT \t\t\t * @param crossChainProof The ...\n    tag 323\t\t\tncluding ZKP request ID, ZK pr...\n      JUMPDEST \t\t\tncluding ZKP request ID, ZK pr...\n      PUSH [tag] 325\t\t\tfs from universal resolver\n      DUP2 \t\t\tesolve\n      PUSH [tag] 319\t\t\tfs from universal \n      JUMP \t\t\tfs from universal resolver\n    tag 325\t\t\tfs from universal resolver\n      JUMPDEST \t\t\tfs from universal resolver\n      POP \t\t\ts\\n     * @param responses The...\n      JUMP \t\t\t of ZKP responses and updates ...\n    tag 111\t\t\tfunction disableZKPRequest(uin...\n      JUMPDEST \t\t\tfunction disableZKPRequest(uin...\n      DUP1 \t\t\trequestId\n      PUSH 0\t\t\taddress sender\n      PUSH [tag] 327\t\t\t_msgSender()\n      PUSH [tag] 208\t\t\t_msgSender\n      JUMP \t\t\t_msgSender()\n    tag 327\t\t\t_msgSender()\n      JUMPDEST \t\t\t_msgSender()\n      SWAP1 \t\t\taddress sender = _msgSender()\n      POP \t\t\taddress sender = _msgSender()\n      PUSH [tag] 328\t\t\tgetRequestOwner(requestId)\n      DUP3 \t\t\trequestId\n      PUSH [tag] 103\t\t\tgetRequestOwner\n      JUMP \t\t\tgetRequestOwner(requestId)\n    tag 328\t\t\tgetRequestOwner(requestId)\n      JUMPDEST \t\t\tgetRequestOwner(requestId)\n      PUSH FFFFFFFFFFFFFFFFFFFFFFFFFFFFFFFFFFFFFFFF\t\t\tsender == getRequestOwner(requ...\n      AND \t\t\tsender == getRequestOwner(requ...\n      DUP2 \t\t\tsender\n      PUSH FFFFFFFFFFFFFFFFFFFFFFFFFFFFFFFFFFFFFFFF\t\t\tsender == getRequestOwner(requ...\n      AND \t\t\tsender == getRequestOwner(requ...\n      EQ \t\t\tsender == getRequestOwner(requ...\n      DUP1 \t\t\tsender == getRequestOwner(requ...\n      PUSH [tag] 329\t\t\tsender == getRequestOwner(requ...\n      JUMPI \t\t\tsender == getRequestOwner(requ...\n      POP \t\t\tsender == getRequestOwner(requ...\n      PUSH [tag] 330\t\t\towner()\n      PUSH [tag] 118\t\t\towner\n      JUMP \t\t\towner()\n    tag 330\t\t\towner()\n      JUMPDEST \t\t\towner()\n      PUSH FFFFFFFFFFFFFFFFFFFFFFFFFFFFFFFFFFFFFFFF\t\t\tsender == owner()\n      AND \t\t\tsender == owner()\n      DUP2 \t\t\tsender\n      PUSH FFFFFFFFFFFFFFFFFFFFFFFFFFFFFFFFFFFFFFFF\t\t\tsender == owner()\n      AND \t\t\tsender == owner()\n      EQ \t\t\tsender == owner()\n    tag 329\t\t\tsender == getRequestOwner(requ...\n      JUMPDEST \t\t\tsender == getRequestOwner(requ...\n      PUSH [tag] 331\t\t\trequire(\\n            sender =...\n      JUMPI \t\t\trequire(\\n            sender =...\n      PUSH 40\t\t\trequire(\\n            sender =...\n      MLOAD \t\t\trequire(\\n            sender =...\n      PUSH 8C379A000000000000000000000000000000000000000000000000000000000\t\t\trequire(\\n            sender =...\n      DUP2 \t\t\trequire(\\n            sender =...\n      MSTORE \t\t\trequire(\\n            sender =...\n      PUSH 4\t\t\trequire(\\n            sender =...\n      ADD \t\t\trequire(\\n            sender =...\n      PUSH [tag] 332\t\t\trequire(\\n            sender =...\n      SWAP1 \t\t\trequire(\\n            sender =...\n      PUSH [tag] 214\t\t\trequire(\\n            sender =...\n      JUMP \t\t\trequire(\\n            sender =...\n    tag 332\t\t\trequire(\\n            sender =...\n      JUMPDEST \t\t\trequire(\\n            sender =...\n      PUSH 40\t\t\trequire(\\n            sender =...\n      MLOAD \t\t\trequire(\\n            sender =...\n      DUP1 \t\t\trequire(\\n            sender =...\n      SWAP2 \t\t\trequire(\\n            sender =...\n      SUB \t\t\trequire(\\n            sender =...\n      SWAP1 \t\t\trequire(\\n            sender =...\n      REVERT \t\t\trequire(\\n            sender =...\n    tag 331\t\t\trequire(\\n            sender =...\n      JUMPDEST \t\t\trequire(\\n            sender =...\n      PUSH [tag] 334\t\t\t_disableZKPRequest(requestId)\n      DUP4 \t\t\trequestId\n      PUSH [tag] 335\t\t\t_disableZKPRequest\n      JUMP \t\t\t_disableZKPRequest(requestId)\n    tag 334\t\t\t_disableZKPRequest(requestId)\n      JUMPDEST \t\t\t_disableZKPRequest(requestId)\n      POP \t\t\t{\\n        address sender = _m...\n      POP \t\t\tfunction disableZKPRequest(uin...\n      POP \t\t\tfunction disableZKPRequest(uin...\n      JUMP \t\t\tfunction disableZKPRequest(uin...\n    tag 114\t\t\t\n      JUMPDEST \t\t\t\n      PUSH [tag] 336\t\t\t\n      PUSH [tag] 337\t\t\t\n      JUMP \t\t\t\n    tag 336\t\t\t\n      JUMPDEST \t\t\t\n      DUP2 \t\t\t\n      PUSH 1\t\t\t\n      DUP1 \t\t\t         \n      ISZERO \t\t\tta,\\n            address(reque...\n      PUSH [tag] 339\t\t\tta,\\n            address(reque...\n      JUMPI \t\t\tta,\\n            address(reque...\n      PUSH [tag] 340\t\t\tator),\\n            request\n      DUP3 \t\t\t   reques\n      PUSH [tag] 130\t\t\tator),\\n        \n      JUMP \t\t\tator),\\n            request\n    tag 340\t\t\tator),\\n            request\n      JUMPDEST \t\t\tator),\\n            request\n      PUSH [tag] 341\t\t\tst.validator),\\n            re...\n      JUMPI \t\t\tst.validator),\\n            re...\n      PUSH 40\t\t\tst.validator),\\n            re...\n      MLOAD \t\t\tst.validator),\\n            re...\n      PUSH 8C379A000000000000000000000000000000000000000000000000000000000\t\t\tst.validator),\\n            re...\n      DUP2 \t\t\tst.validator),\\n            re...\n      MSTORE \t\t\tst.validator),\\n            re...\n      PUSH 4\t\t\tst.validator),\\n            re...\n      ADD \t\t\tst.validator),\\n            re...\n      PUSH [tag] 342\t\t\tst.validator),\\n            re...\n      SWAP1 \t\t\tst.validator),\\n            re...\n      PUSH [tag] 197\t\t\tst.validator),\\n            re...\n      JUMP \t\t\tst.validator),\\n            re...\n    tag 342\t\t\tst.validator),\\n            re...\n      JUMPDEST \t\t\tst.validator),\\n            re...\n      PUSH 40\t\t\tst.validator),\\n            re...\n      MLOAD \t\t\tst.validator),\\n            re...\n      DUP1 \t\t\tst.validator),\\n            re...\n      SWAP2 \t\t\tst.validator),\\n            re...\n      SUB \t\t\tst.validator),\\n            re...\n      SWAP1 \t\t\tst.validator),\\n            re...\n      REVERT \t\t\tst.validator),\\n            re...\n    tag 341\t\t\tst.validator),\\n            re...\n      JUMPDEST \t\t\tst.validator),\\n            re...\n      PUSH [tag] 343\t\t\tta,\\n            address(reque...\n      JUMP \t\t\tta,\\n            address(reque...\n    tag 339\t\t\tta,\\n            address(reque...\n      JUMPDEST \t\t\tta,\\n            address(reque...\n      PUSH [tag] 344\t\t\tes proof status\\n    /// @p\n      DUP3 \t\t\t    /// @\n      PUSH [tag] 130\t\t\tes proof status\n      JUMP \t\t\tes proof status\\n    /// @p\n    tag 344\t\t\tes proof status\\n    /// @p\n      JUMPDEST \t\t\tes proof status\\n    /// @p\n      ISZERO \t\t\ttes proof status\\n    /// @p\n      PUSH [tag] 345\t\t\tand updates proof status\\n    ...\n      JUMPI \t\t\tand updates proof status\\n    ...\n      PUSH 40\t\t\tand updates proof status\\n    ...\n      MLOAD \t\t\tand updates proof status\\n    ...\n      PUSH 8C379A000000000000000000000000000000000000000000000000000000000\t\t\tand updates proof status\\n    ...\n      DUP2 \t\t\tand updates proof status\\n    ...\n      MSTORE \t\t\tand updates proof status\\n    ...\n      PUSH 4\t\t\tand updates proof status\\n    ...\n      ADD \t\t\tand updates proof status\\n    ...\n      PUSH [tag] 346\t\t\tand updates proof status\\n    ...\n      SWAP1 \t\t\tand updates proof status\\n    ...\n      PUSH [tag] 202\t\t\tand updates proof status\\n    ...\n      JUMP \t\t\tand updates proof status\\n    ...\n    tag 346\t\t\tand updates proof status\\n    ...\n      JUMPDEST \t\t\tand updates proof status\\n    ...\n      PUSH 40\t\t\tand updates proof status\\n    ...\n      MLOAD \t\t\tand updates proof status\\n    ...\n      DUP1 \t\t\tand updates proof status\\n    ...\n      SWAP2 \t\t\tand updates proof status\\n    ...\n      SUB \t\t\tand updates proof status\\n    ...\n      SWAP1 \t\t\tand updates proof status\\n    ...\n      REVERT \t\t\tand updates proof status\\n    ...\n    tag 345\t\t\tand updates proof status\\n    ...\n      JUMPDEST \t\t\tand updates proof status\\n    ...\n    tag 343\t\t\tta,\\n            address(reque...\n      JUMPDEST \t\t\tta,\\n            address(reque...\n      PUSH 0\t\t\t\n      PUSH [tag] 348\t\t\t\n      PUSH [tag] 220\t\t\t\n      JUMP \t\t\t\n    tag 348\t\t\t\n      JUMPDEST \t\t\t\n      PUSH 0\t\t\t\n      ADD \t\t\t\n      PUSH 0\t\t\t\n      DUP8 \t\t\t\n      PUSH FFFFFFFFFFFFFFFFFFFFFFFFFFFFFFFFFFFFFFFF\t\t\t\n      AND \t\t\t\n      PUSH FFFFFFFFFFFFFFFFFFFFFFFFFFFFFFFFFFFFFFFF\t\t\t\n      AND \t\t\t\n      DUP2 \t\t\t\n      MSTORE \t\t\t\n      PUSH 20\t\t\t\n      ADD \t\t\t\n      SWAP1 \t\t\t\n      DUP2 \t\t\t\n      MSTORE \t\t\t\n      PUSH 20\t\t\t\n      ADD \t\t\t\n      PUSH 0\t\t\t\n      KECCAK256 \t\t\t\n      PUSH 0\t\t\t\n      DUP7 \t\t\t\n      PUSH FFFFFFFFFFFFFFFF\t\t\t\n      AND \t\t\t\n      PUSH FFFFFFFFFFFFFFFF\t\t\t\n      AND \t\t\t\n      DUP2 \t\t\t\n      MSTORE \t\t\t\n      PUSH 20\t\t\t\n      ADD \t\t\t\n      SWAP1 \t\t\t\n      DUP2 \t\t\t\n      MSTORE \t\t\t\n      PUSH 20\t\t\t\n      ADD \t\t\t\n      PUSH 0\t\t\t\n      KECCAK256 \t\t\t\n      SWAP1 \t\t\t\n      POP \t\t\t\n      PUSH 40\t\t\t\n      MLOAD \t\t\t\n      DUP1 \t\t\t\n      PUSH 80\t\t\t\n      ADD \t\t\t\n      PUSH 40\t\t\t\n      MSTORE \t\t\t\n      DUP1 \t\t\t\n      DUP3 \t\t\t\n      PUSH 0\t\t\t\n      ADD \t\t\t\n      PUSH 0\t\t\t\n      SWAP1 \t\t\t\n      SLOAD \t\t\t\n      SWAP1 \t\t\t\n      PUSH 100\t\t\t\n      EXP \t\t\t\n      SWAP1 \t\t\t\n      DIV \t\t\t\n      PUSH FF\t\t\t\n      AND \t\t\t\n      ISZERO \t\t\t\n      ISZERO \t\t\t\n      DUP2 \t\t\t\n      MSTORE \t\t\t\n      PUSH 20\t\t\t\n      ADD \t\t\t\n      DUP3 \t\t\t\n      PUSH 2\t\t\t\n      ADD \t\t\t\n      DUP1 \t\t\t\n      SLOAD \t\t\t\n      PUSH [tag] 349\t\t\t\n      SWAP1 \t\t\t\n      PUSH [tag] 283\t\t\t\n      JUMP \t\t\t\n    tag 349\t\t\t\n      JUMPDEST \t\t\t\n      DUP1 \t\t\t\n      PUSH 1F\t\t\t\n      ADD \t\t\t\n      PUSH 20\t\t\t\n      DUP1 \t\t\t\n      SWAP2 \t\t\t\n      DIV \t\t\t\n      MUL \t\t\t\n      PUSH 20\t\t\t\n      ADD \t\t\t\n      PUSH 40\t\t\t\n      MLOAD \t\t\t\n      SWAP1 \t\t\t\n      DUP2 \t\t\t\n      ADD \t\t\t\n      PUSH 40\t\t\t\n      MSTORE \t\t\t\n      DUP1 \t\t\t\n      SWAP3 \t\t\t\n      SWAP2 \t\t\t\n      SWAP1 \t\t\t\n      DUP2 \t\t\t\n      DUP2 \t\t\t\n      MSTORE \t\t\t\n      PUSH 20\t\t\t\n      ADD \t\t\t\n      DUP3 \t\t\t\n      DUP1 \t\t\t\n      SLOAD \t\t\t\n      PUSH [tag] 350\t\t\t\n      SWAP1 \t\t\t\n      PUSH [tag] 283\t\t\t\n      JUMP \t\t\t\n    tag 350\t\t\t\n      JUMPDEST \t\t\t\n      DUP1 \t\t\t\n      ISZERO \t\t\t\n      PUSH [tag] 351\t\t\t\n      JUMPI \t\t\t\n      DUP1 \t\t\t\n      PUSH 1F\t\t\t\n      LT \t\t\t\n      PUSH [tag] 352\t\t\t\n      JUMPI \t\t\t\n      PUSH 100\t\t\t\n      DUP1 \t\t\t\n      DUP4 \t\t\t\n      SLOAD \t\t\t\n      DIV \t\t\t\n      MUL \t\t\t\n      DUP4 \t\t\t\n      MSTORE \t\t\t\n      SWAP2 \t\t\t\n      PUSH 20\t\t\t\n      ADD \t\t\t\n      SWAP2 \t\t\t\n      PUSH [tag] 351\t\t\t\n      JUMP \t\t\t\n    tag 352\t\t\t\n      JUMPDEST \t\t\t\n      DUP3 \t\t\t\n      ADD \t\t\t\n      SWAP2 \t\t\t\n      SWAP1 \t\t\t\n      PUSH 0\t\t\t\n      MSTORE \t\t\t\n      PUSH 20\t\t\t\n      PUSH 0\t\t\t\n      KECCAK256 \t\t\t\n      SWAP1 \t\t\t\n    tag 353\t\t\t\n      JUMPDEST \t\t\t\n      DUP2 \t\t\t\n      SLOAD \t\t\t\n      DUP2 \t\t\t\n      MSTORE \t\t\t\n      SWAP1 \t\t\t\n      PUSH 1\t\t\t\n      ADD \t\t\t\n      SWAP1 \t\t\t\n      PUSH 20\t\t\t\n      ADD \t\t\t\n      DUP1 \t\t\t\n      DUP4 \t\t\t\n      GT \t\t\t\n      PUSH [tag] 353\t\t\t\n      JUMPI \t\t\t\n      DUP3 \t\t\t\n      SWAP1 \t\t\t\n      SUB \t\t\t\n      PUSH 1F\t\t\t\n      AND \t\t\t\n      DUP3 \t\t\t\n      ADD \t\t\t\n      SWAP2 \t\t\t\n    tag 351\t\t\t\n      JUMPDEST \t\t\t\n      POP \t\t\t\n      POP \t\t\t\n      POP \t\t\t\n      POP \t\t\t\n      POP \t\t\t\n      DUP2 \t\t\t\n      MSTORE \t\t\t\n      PUSH 20\t\t\t\n      ADD \t\t\t\n      DUP3 \t\t\t\n      PUSH 3\t\t\t\n      ADD \t\t\t\n      SLOAD \t\t\t\n      DUP2 \t\t\t\n      MSTORE \t\t\t\n      PUSH 20\t\t\t\n      ADD \t\t\t\n      DUP3 \t\t\t\n      PUSH 4\t\t\t\n      ADD \t\t\t\n      SLOAD \t\t\t\n      DUP2 \t\t\t\n      MSTORE \t\t\t\n      POP \t\t\t\n      SWAP4 \t\t\t\n      POP \t\t\t\n      POP \t\t\t\n      POP \t\t\t\n      POP \t\t\t\n      SWAP3 \t\t\t\n      SWAP2 \t\t\t\n      POP \t\t\t\n      POP \t\t\t\n      JUMP \t\t\t\n    tag 118\t\t\t      address(request.validato...\n      JUMPDEST \t\t\t      address(request.validato...\n      PUSH 0\t\t\trequest\n      PUSH 0\t\t\t  );\\n    }\\n\\n    /// @dev\n      PUSH [tag] 355\t\t\tbmits a ZKP response\n      PUSH [tag] 356\t\t\tbmits a ZKP respon\n      JUMP \t\t\tbmits a ZKP response\n    tag 355\t\t\tbmits a ZKP response\n      JUMPDEST \t\t\tbmits a ZKP response\n      SWAP1 \t\t\t  );\\n    }\\n\\n    /// @dev Su...\n      POP \t\t\t  );\\n    }\\n\\n    /// @dev Su...\n      DUP1 \t\t\tf\n      PUSH 0\t\t\tf status\n      ADD \t\t\tf status\n      PUSH 0\t\t\tf status\n      SWAP1 \t\t\tf status\n      SLOAD \t\t\tf status\n      SWAP1 \t\t\tf status\n      PUSH 100\t\t\tf status\n      EXP \t\t\tf status\n      SWAP1 \t\t\tf status\n      DIV \t\t\tf status\n      PUSH FFFFFFFFFFFFFFFFFFFFFFFFFFFFFFFFFFFFFFFF\t\t\tf status\n      AND \t\t\tf status\n      SWAP2 \t\t\tes proof status\n      POP \t\t\tes proof status\n      POP \t\t\tes proof status\n      SWAP1 \t\t\t      address(request.validato...\n      JUMP \t\t\t      address(request.validato...\n    tag 122\t\t\tudes identities and global sta...\n      JUMPDEST \t\t\tudes identities and global sta...\n      PUSH 0\t\t\tpons\n      PUSH [tag] 358\t\t\ts,\\n        bytes memory cross...\n      PUSH [tag] 359\t\t\ts,\\n        bytes memory cross\n      JUMP \t\t\ts,\\n        bytes memory cross...\n    tag 358\t\t\ts,\\n        bytes memory cross...\n      JUMPDEST \t\t\ts,\\n        bytes memory cross...\n      PUSH 0\t\t\ts,\\n        bytes memory cross...\n      ADD \t\t\ts,\\n        bytes memory cross...\n      PUSH 0\t\t\ts,\\n        bytes memory cross...\n      DUP4 \t\t\t override\n      PUSH FFFFFFFFFFFFFFFFFFFFFFFFFFFFFFFFFFFFFFFF\t\t\ts,\\n        bytes memory cross...\n      AND \t\t\ts,\\n        bytes memory cross...\n      PUSH FFFFFFFFFFFFFFFFFFFFFFFFFFFFFFFFFFFFFFFF\t\t\ts,\\n        bytes memory cross...\n      AND \t\t\ts,\\n        bytes memory cross...\n      DUP2 \t\t\ts,\\n        bytes memory cross...\n      MSTORE \t\t\ts,\\n        bytes memory cross...\n      PUSH 20\t\t\ts,\\n        bytes memory cross...\n      ADD \t\t\ts,\\n        bytes memory cross...\n      SWAP1 \t\t\ts,\\n        bytes memory cross...\n      DUP2 \t\t\ts,\\n        bytes memory cross...\n      MSTORE \t\t\ts,\\n        bytes memory cross...\n      PUSH 20\t\t\ts,\\n        bytes memory cross...\n      ADD \t\t\ts,\\n        bytes memory cross...\n      PUSH 0\t\t\ts,\\n        bytes memory cross...\n      KECCAK256 \t\t\ts,\\n        bytes memory cross...\n      PUSH 0\t\t\ts,\\n        bytes memory cross...\n      SWAP1 \t\t\ts,\\n        bytes memory cross...\n      SLOAD \t\t\ts,\\n        bytes memory cross...\n      SWAP1 \t\t\ts,\\n        bytes memory cross...\n      PUSH 100\t\t\ts,\\n        bytes memory cross...\n      EXP \t\t\ts,\\n        bytes memory cross...\n      SWAP1 \t\t\ts,\\n        bytes memory cross...\n      DIV \t\t\ts,\\n        bytes memory cross...\n      PUSH FF\t\t\ts,\\n        bytes memory cross...\n      AND \t\t\ts,\\n        bytes memory cross...\n      SWAP1 \t\t\tesponses,\\n        bytes memor...\n      POP \t\t\tesponses,\\n        bytes memor...\n      SWAP2 \t\t\tudes identities and global sta...\n      SWAP1 \t\t\tudes identities and global sta...\n      POP \t\t\tudes identities and global sta...\n      JUMP \t\t\tudes identities and global sta...\n    tag 127\t\t\tfunction setZKPRequest(\\n     ...\n      JUMPDEST \t\t\tfunction setZKPRequest(\\n     ...\n      PUSH [tag] 361\t\t\tsuper.setZKPRequest(requestId,...\n      DUP3 \t\t\trequestId\n      DUP3 \t\t\trequest\n      PUSH [tag] 362\t\t\tsuper.setZKPRequest\n      JUMP \t\t\tsuper.setZKPRequest(requestId,...\n    tag 361\t\t\tsuper.setZKPRequest(requestId,...\n      JUMPDEST \t\t\tsuper.setZKPRequest(requestId,...\n      PUSH [tag] 363\t\t\t_msgSender()\n      PUSH [tag] 208\t\t\t_msgSender\n      JUMP \t\t\t_msgSender()\n    tag 363\t\t\t_msgSender()\n      JUMPDEST \t\t\t_msgSender()\n      PUSH FFFFFFFFFFFFFFFFFFFFFFFFFFFFFFFFFFFFFFFF\t\t\tZKPRequestSet(\\n            re...\n      AND \t\t\tZKPRequestSet(\\n            re...\n      DUP3 \t\t\trequestId\n      PUSH FFFFFFFFFFFFFFFF\t\t\tZKPRequestSet(\\n            re...\n      AND \t\t\tZKPRequestSet(\\n            re...\n      PUSH 26DB2C5D21D517FA8C11AF3AE555AF7F4A560B9F70A5A32E73E6CD94D0CAE3E8\t\t\tZKPRequestSet(\\n            re...\n      DUP4 \t\t\trequest\n      DUP1 \t\t\trequest.metadata\n      PUSH 0\t\t\trequest.metadata\n      ADD \t\t\trequest.metadata\n      SWAP1 \t\t\trequest.metadata\n      PUSH [tag] 364\t\t\trequest.metadata\n      SWAP2 \t\t\trequest.metadata\n      SWAP1 \t\t\trequest.metadata\n      PUSH [tag] 365\t\t\trequest.metadata\n      JUMP \t\t\trequest.metadata\n    tag 364\t\t\trequest.metadata\n      JUMPDEST \t\t\trequest.metadata\n      DUP6 \t\t\trequest\n      PUSH 20\t\t\trequest.validator\n      ADD \t\t\trequest.validator\n      PUSH 20\t\t\trequest.validator\n      DUP2 \t\t\trequest.validator\n      ADD \t\t\trequest.validator\n      SWAP1 \t\t\trequest.validator\n      PUSH [tag] 366\t\t\trequest.validator\n      SWAP2 \t\t\trequest.validator\n      SWAP1 \t\t\trequest.validator\n      PUSH [tag] 87\t\t\trequest.validator\n      JUMP \t\t\trequest.validator\n    tag 366\t\t\trequest.validator\n      JUMPDEST \t\t\trequest.validator\n      DUP7 \t\t\trequest\n      DUP1 \t\t\trequest.data\n      PUSH 40\t\t\trequest.data\n      ADD \t\t\trequest.data\n      SWAP1 \t\t\trequest.data\n      PUSH [tag] 367\t\t\trequest.data\n      SWAP2 \t\t\trequest.data\n      SWAP1 \t\t\trequest.data\n      PUSH [tag] 368\t\t\trequest.data\n      JUMP \t\t\trequest.data\n    tag 367\t\t\trequest.data\n      JUMPDEST \t\t\trequest.data\n      PUSH 40\t\t\tZKPRequestSet(\\n            re...\n      MLOAD \t\t\tZKPRequestSet(\\n            re...\n      PUSH [tag] 369\t\t\tZKPRequestSet(\\n            re...\n      SWAP6 \t\t\tZKPRequestSet(\\n            re...\n      SWAP5 \t\t\tZKPRequestSet(\\n            re...\n      SWAP4 \t\t\tZKPRequestSet(\\n            re...\n      SWAP3 \t\t\tZKPRequestSet(\\n            re...\n      SWAP2 \t\t\tZKPRequestSet(\\n            re...\n      SWAP1 \t\t\tZKPRequestSet(\\n            re...\n      PUSH [tag] 370\t\t\tZKPRequestSet(\\n            re...\n      JUMP \t\t\tZKPRequestSet(\\n            re...\n    tag 369\t\t\tZKPRequestSet(\\n            re...\n      JUMPDEST \t\t\tZKPRequestSet(\\n            re...\n      PUSH 40\t\t\tZKPRequestSet(\\n            re...\n      MLOAD \t\t\tZKPRequestSet(\\n            re...\n      DUP1 \t\t\tZKPRequestSet(\\n            re...\n      SWAP2 \t\t\tZKPRequestSet(\\n            re...\n      SUB \t\t\tZKPRequestSet(\\n            re...\n      SWAP1 \t\t\tZKPRequestSet(\\n            re...\n      LOG3 \t\t\tZKPRequestSet(\\n            re...\n      POP \t\t\tfunction setZKPRequest(\\n     ...\n      POP \t\t\tfunction setZKPRequest(\\n     ...\n      JUMP \t\t\tfunction setZKPRequest(\\n     ...\n    tag 130\t\t\t\n      JUMPDEST \t\t\t\n      PUSH 0\t\t\t\n      PUSH 0\t\t\t\n      PUSH FFFFFFFFFFFFFFFFFFFFFFFFFFFFFFFFFFFFFFFF\t\t\t\n      AND \t\t\t\n      PUSH [tag] 372\t\t\t\n      PUSH [tag] 220\t\t\t\n      JUMP \t\t\t\n    tag 372\t\t\t\n      JUMPDEST \t\t\t\n      PUSH 1\t\t\t\n      ADD \t\t\t\n      PUSH 0\t\t\t\n      DUP5 \t\t\t\n      PUSH FFFFFFFFFFFFFFFF\t\t\t\n      AND \t\t\t\n      PUSH FFFFFFFFFFFFFFFF\t\t\t\n      AND \t\t\t\n      DUP2 \t\t\t\n      MSTORE \t\t\t\n      PUSH 20\t\t\t\n      ADD \t\t\t\n      SWAP1 \t\t\t\n      DUP2 \t\t\t\n      MSTORE \t\t\t\n      PUSH 20\t\t\t\n      ADD \t\t\t\n      PUSH 0\t\t\t\n      KECCAK256 \t\t\t\n      PUSH 1\t\t\t\n      ADD \t\t\t\n      PUSH 0\t\t\t\n      SWAP1 \t\t\t\n      SLOAD \t\t\t\n      SWAP1 \t\t\t\n      PUSH 100\t\t\t\n      EXP \t\t\t\n      SWAP1 \t\t\t\n      DIV \t\t\t\n      PUSH FFFFFFFFFFFFFFFFFFFFFFFFFFFFFFFFFFFFFFFF\t\t\t\n      AND \t\t\t\n      PUSH FFFFFFFFFFFFFFFFFFFFFFFFFFFFFFFFFFFFFFFF\t\t\t\n      AND \t\t\t\n      EQ \t\t\t\n      ISZERO \t\t\t\n      SWAP1 \t\t\t\n      POP \t\t\t\n      SWAP2 \t\t\t\n      SWAP1 \t\t\t\n      POP \t\t\t\n      JUMP \t\t\t\n    tag 135\t\t\tfunction submitZKPResponseV2(\\...\n      JUMPDEST \t\t\tfunction submitZKPResponseV2(\\...\n      PUSH [tag] 374\t\t\tsuper.submitZKPResponseV2(resp...\n      DUP3 \t\t\tresponses\n      DUP3 \t\t\tcrossChainProof\n      PUSH [tag] 375\t\t\tsuper.submitZKPResponseV2\n      JUMP \t\t\tsuper.submitZKPResponseV2(resp...\n    tag 374\t\t\tsuper.submitZKPResponseV2(resp...\n      JUMPDEST \t\t\tsuper.submitZKPResponseV2(resp...\n      PUSH 0\t\t\tuint256 i\n      PUSH 0\t\t\t0\n      SWAP1 \t\t\tuint256 i = 0\n      POP \t\t\tuint256 i = 0\n    tag 376\t\t\tfor (uint256 i = 0; i < respon...\n      JUMPDEST \t\t\tfor (uint256 i = 0; i < respon...\n      DUP3 \t\t\tresponses\n      MLOAD \t\t\tresponses.length\n      DUP2 \t\t\ti\n      LT \t\t\ti < responses.length\n      ISZERO \t\t\tfor (uint256 i = 0; i < respon...\n      PUSH [tag] 377\t\t\tfor (uint256 i = 0; i < respon...\n      JUMPI \t\t\tfor (uint256 i = 0; i < respon...\n      PUSH [tag] 379\t\t\t_msgSender()\n      PUSH [tag] 208\t\t\t_msgSender\n      JUMP \t\t\t_msgSender()\n    tag 379\t\t\t_msgSender()\n      JUMPDEST \t\t\t_msgSender()\n      PUSH FFFFFFFFFFFFFFFFFFFFFFFFFFFFFFFFFFFFFFFF\t\t\tZKPResponseSubmitted(responses...\n      AND \t\t\tZKPResponseSubmitted(responses...\n      DUP4 \t\t\tresponses\n      DUP3 \t\t\ti\n      DUP2 \t\t\tresponses[i]\n      MLOAD \t\t\tresponses[i]\n      DUP2 \t\t\tresponses[i]\n      LT \t\t\tresponses[i]\n      PUSH [tag] 380\t\t\tresponses[i]\n      JUMPI \t\t\tresponses[i]\n      PUSH [tag] 381\t\t\tresponses[i]\n      PUSH [tag] 171\t\t\tresponses[i]\n      JUMP \t\t\tresponses[i]\n    tag 381\t\t\tresponses[i]\n      JUMPDEST \t\t\tresponses[i]\n    tag 380\t\t\tresponses[i]\n      JUMPDEST \t\t\tresponses[i]\n      PUSH 20\t\t\tresponses[i]\n      MUL \t\t\tresponses[i]\n      PUSH 20\t\t\tresponses[i]\n      ADD \t\t\tresponses[i]\n      ADD \t\t\tresponses[i]\n      MLOAD \t\t\tresponses[i]\n      PUSH 0\t\t\tresponses[i].requestId\n      ADD \t\t\tresponses[i].requestId\n      MLOAD \t\t\tresponses[i].requestId\n      PUSH FFFFFFFFFFFFFFFF\t\t\tZKPResponseSubmitted(responses...\n      AND \t\t\tZKPResponseSubmitted(responses...\n      PUSH 6979BC9C3E552C05DD9859285F1ED7A172E52EF39E1DCE9C720E5BF8D82C9F4C\t\t\tZKPResponseSubmitted(responses...\n      PUSH 40\t\t\tZKPResponseSubmitted(responses...\n      MLOAD \t\t\tZKPResponseSubmitted(responses...\n      PUSH 40\t\t\tZKPResponseSubmitted(responses...\n      MLOAD \t\t\tZKPResponseSubmitted(responses...\n      DUP1 \t\t\tZKPResponseSubmitted(responses...\n      SWAP2 \t\t\tZKPResponseSubmitted(responses...\n      SUB \t\t\tZKPResponseSubmitted(responses...\n      SWAP1 \t\t\tZKPResponseSubmitted(responses...\n      LOG3 \t\t\tZKPResponseSubmitted(responses...\n      DUP1 \t\t\ti++\n      DUP1 \t\t\ti++\n      PUSH 1\t\t\ti++\n      ADD \t\t\ti++\n      SWAP2 \t\t\ti++\n      POP \t\t\ti++\n      POP \t\t\ti++\n      PUSH [tag] 376\t\t\tfor (uint256 i = 0; i < respon...\n      JUMP \t\t\tfor (uint256 i = 0; i < respon...\n    tag 377\t\t\tfor (uint256 i = 0; i < respon...\n      JUMPDEST \t\t\tfor (uint256 i = 0; i < respon...\n      POP \t\t\tfor (uint256 i = 0; i < respon...\n      POP \t\t\tfunction submitZKPResponseV2(\\...\n      POP \t\t\tfunction submitZKPResponseV2(\\...\n      JUMP \t\t\tfunction submitZKPResponseV2(\\...\n    tag 139\t\t\tfunction submitZKPResponse(\\n ...\n      JUMPDEST \t\t\tfunction submitZKPResponse(\\n ...\n      PUSH [tag] 383\t\t\tsuper.submitZKPResponse(reques...\n      DUP6 \t\t\trequestId\n      DUP6 \t\t\tinputs\n      DUP6 \t\t\ta\n      DUP6 \t\t\tb\n      DUP6 \t\t\tc\n      PUSH [tag] 384\t\t\tsuper.submitZKPResponse\n      JUMP \t\t\tsuper.submitZKPResponse(reques...\n    tag 383\t\t\tsuper.submitZKPResponse(reques...\n      JUMPDEST \t\t\tsuper.submitZKPResponse(reques...\n      PUSH [tag] 385\t\t\t_msgSender()\n      PUSH [tag] 208\t\t\t_msgSender\n      JUMP \t\t\t_msgSender()\n    tag 385\t\t\t_msgSender()\n      JUMPDEST \t\t\t_msgSender()\n      PUSH FFFFFFFFFFFFFFFFFFFFFFFFFFFFFFFFFFFFFFFF\t\t\tZKPResponseSubmitted(requestId...\n      AND \t\t\tZKPResponseSubmitted(requestId...\n      DUP6 \t\t\trequestId\n      PUSH FFFFFFFFFFFFFFFF\t\t\tZKPResponseSubmitted(requestId...\n      AND \t\t\tZKPResponseSubmitted(requestId...\n      PUSH 6979BC9C3E552C05DD9859285F1ED7A172E52EF39E1DCE9C720E5BF8D82C9F4C\t\t\tZKPResponseSubmitted(requestId...\n      PUSH 40\t\t\tZKPResponseSubmitted(requestId...\n      MLOAD \t\t\tZKPResponseSubmitted(requestId...\n      PUSH 40\t\t\tZKPResponseSubmitted(requestId...\n      MLOAD \t\t\tZKPResponseSubmitted(requestId...\n      DUP1 \t\t\tZKPResponseSubmitted(requestId...\n      SWAP2 \t\t\tZKPResponseSubmitted(requestId...\n      SUB \t\t\tZKPResponseSubmitted(requestId...\n      SWAP1 \t\t\tZKPResponseSubmitted(requestId...\n      LOG3 \t\t\tZKPResponseSubmitted(requestId...\n      POP \t\t\tfunction submitZKPResponse(\\n ...\n      POP \t\t\tfunction submitZKPResponse(\\n ...\n      POP \t\t\tfunction submitZKPResponse(\\n ...\n      POP \t\t\tfunction submitZKPResponse(\\n ...\n      POP \t\t\tfunction submitZKPResponse(\\n ...\n      JUMP \t\t\tfunction submitZKPResponse(\\n ...\n    tag 142\t\t\t\n      JUMPDEST \t\t\t\n      PUSH [tag] 386\t\t\t\n      PUSH [tag] 275\t\t\t\n      JUMP \t\t\t\n    tag 386\t\t\t\n      JUMPDEST \t\t\t\n      DUP2 \t\t\t\n      PUSH 1\t\t\t\n      DUP1 \t\t\t         \n      ISZERO \t\t\tta,\\n            address(reque...\n      PUSH [tag] 388\t\t\tta,\\n            address(reque...\n      JUMPI \t\t\tta,\\n            address(reque...\n      PUSH [tag] 389\t\t\tator),\\n            request\n      DUP3 \t\t\t   reques\n      PUSH [tag] 130\t\t\tator),\\n        \n      JUMP \t\t\tator),\\n            request\n    tag 389\t\t\tator),\\n            request\n      JUMPDEST \t\t\tator),\\n            request\n      PUSH [tag] 390\t\t\tst.validator),\\n            re...\n      JUMPI \t\t\tst.validator),\\n            re...\n      PUSH 40\t\t\tst.validator),\\n            re...\n      MLOAD \t\t\tst.validator),\\n            re...\n      PUSH 8C379A000000000000000000000000000000000000000000000000000000000\t\t\tst.validator),\\n            re...\n      DUP2 \t\t\tst.validator),\\n            re...\n      MSTORE \t\t\tst.validator),\\n            re...\n      PUSH 4\t\t\tst.validator),\\n            re...\n      ADD \t\t\tst.validator),\\n            re...\n      PUSH [tag] 391\t\t\tst.validator),\\n            re...\n      SWAP1 \t\t\tst.validator),\\n            re...\n      PUSH [tag] 197\t\t\tst.validator),\\n            re...\n      JUMP \t\t\tst.validator),\\n            re...\n    tag 391\t\t\tst.validator),\\n            re...\n      JUMPDEST \t\t\tst.validator),\\n            re...\n      PUSH 40\t\t\tst.validator),\\n            re...\n      MLOAD \t\t\tst.validator),\\n            re...\n      DUP1 \t\t\tst.validator),\\n            re...\n      SWAP2 \t\t\tst.validator),\\n            re...\n      SUB \t\t\tst.validator),\\n            re...\n      SWAP1 \t\t\tst.validator),\\n            re...\n      REVERT \t\t\tst.validator),\\n            re...\n    tag 390\t\t\tst.validator),\\n            re...\n      JUMPDEST \t\t\tst.validator),\\n            re...\n      PUSH [tag] 392\t\t\tta,\\n            address(reque...\n      JUMP \t\t\tta,\\n            address(reque...\n    tag 388\t\t\tta,\\n            address(reque...\n      JUMPDEST \t\t\tta,\\n            address(reque...\n      PUSH [tag] 393\t\t\tes proof status\\n    /// @p\n      DUP3 \t\t\t    /// @\n      PUSH [tag] 130\t\t\tes proof status\n      JUMP \t\t\tes proof status\\n    /// @p\n    tag 393\t\t\tes proof status\\n    /// @p\n      JUMPDEST \t\t\tes proof status\\n    /// @p\n      ISZERO \t\t\ttes proof status\\n    /// @p\n      PUSH [tag] 394\t\t\tand updates proof status\\n    ...\n      JUMPI \t\t\tand updates proof status\\n    ...\n      PUSH 40\t\t\tand updates proof status\\n    ...\n      MLOAD \t\t\tand updates proof status\\n    ...\n      PUSH 8C379A000000000000000000000000000000000000000000000000000000000\t\t\tand updates proof status\\n    ...\n      DUP2 \t\t\tand updates proof status\\n    ...\n      MSTORE \t\t\tand updates proof status\\n    ...\n      PUSH 4\t\t\tand updates proof status\\n    ...\n      ADD \t\t\tand updates proof status\\n    ...\n      PUSH [tag] 395\t\t\tand updates proof status\\n    ...\n      SWAP1 \t\t\tand updates proof status\\n    ...\n      PUSH [tag] 202\t\t\tand updates proof status\\n    ...\n      JUMP \t\t\tand updates proof status\\n    ...\n    tag 395\t\t\tand updates proof status\\n    ...\n      JUMPDEST \t\t\tand updates proof status\\n    ...\n      PUSH 40\t\t\tand updates proof status\\n    ...\n      MLOAD \t\t\tand updates proof status\\n    ...\n      DUP1 \t\t\tand updates proof status\\n    ...\n      SWAP2 \t\t\tand updates proof status\\n    ...\n      SUB \t\t\tand updates proof status\\n    ...\n      SWAP1 \t\t\tand updates proof status\\n    ...\n      REVERT \t\t\tand updates proof status\\n    ...\n    tag 394\t\t\tand updates proof status\\n    ...\n      JUMPDEST \t\t\tand updates proof status\\n    ...\n    tag 392\t\t\tta,\\n            address(reque...\n      JUMPDEST \t\t\tta,\\n            address(reque...\n      PUSH [tag] 397\t\t\t\n      PUSH [tag] 220\t\t\t\n      JUMP \t\t\t\n    tag 397\t\t\t\n      JUMPDEST \t\t\t\n      PUSH 1\t\t\t\n      ADD \t\t\t\n      PUSH 0\t\t\t\n      DUP6 \t\t\t\n      PUSH FFFFFFFFFFFFFFFF\t\t\t\n      AND \t\t\t\n      PUSH FFFFFFFFFFFFFFFF\t\t\t\n      AND \t\t\t\n      DUP2 \t\t\t\n      MSTORE \t\t\t\n      PUSH 20\t\t\t\n      ADD \t\t\t\n      SWAP1 \t\t\t\n      DUP2 \t\t\t\n      MSTORE \t\t\t\n      PUSH 20\t\t\t\n      ADD \t\t\t\n      PUSH 0\t\t\t\n      KECCAK256 \t\t\t\n      PUSH 40\t\t\t\n      MLOAD \t\t\t\n      DUP1 \t\t\t\n      PUSH 60\t\t\t\n      ADD \t\t\t\n      PUSH 40\t\t\t\n      MSTORE \t\t\t\n      SWAP1 \t\t\t\n      DUP2 \t\t\t\n      PUSH 0\t\t\t\n      DUP3 \t\t\t\n      ADD \t\t\t\n      DUP1 \t\t\t\n      SLOAD \t\t\t\n      PUSH [tag] 398\t\t\t\n      SWAP1 \t\t\t\n      PUSH [tag] 283\t\t\t\n      JUMP \t\t\t\n    tag 398\t\t\t\n      JUMPDEST \t\t\t\n      DUP1 \t\t\t\n      PUSH 1F\t\t\t\n      ADD \t\t\t\n      PUSH 20\t\t\t\n      DUP1 \t\t\t\n      SWAP2 \t\t\t\n      DIV \t\t\t\n      MUL \t\t\t\n      PUSH 20\t\t\t\n      ADD \t\t\t\n      PUSH 40\t\t\t\n      MLOAD \t\t\t\n      SWAP1 \t\t\t\n      DUP2 \t\t\t\n      ADD \t\t\t\n      PUSH 40\t\t\t\n      MSTORE \t\t\t\n      DUP1 \t\t\t\n      SWAP3 \t\t\t\n      SWAP2 \t\t\t\n      SWAP1 \t\t\t\n      DUP2 \t\t\t\n      DUP2 \t\t\t\n      MSTORE \t\t\t\n      PUSH 20\t\t\t\n      ADD \t\t\t\n      DUP3 \t\t\t\n      DUP1 \t\t\t\n      SLOAD \t\t\t\n      PUSH [tag] 399\t\t\t\n      SWAP1 \t\t\t\n      PUSH [tag] 283\t\t\t\n      JUMP \t\t\t\n    tag 399\t\t\t\n      JUMPDEST \t\t\t\n      DUP1 \t\t\t\n      ISZERO \t\t\t\n      PUSH [tag] 400\t\t\t\n      JUMPI \t\t\t\n      DUP1 \t\t\t\n      PUSH 1F\t\t\t\n      LT \t\t\t\n      PUSH [tag] 401\t\t\t\n      JUMPI \t\t\t\n      PUSH 100\t\t\t\n      DUP1 \t\t\t\n      DUP4 \t\t\t\n      SLOAD \t\t\t\n      DIV \t\t\t\n      MUL \t\t\t\n      DUP4 \t\t\t\n      MSTORE \t\t\t\n      SWAP2 \t\t\t\n      PUSH 20\t\t\t\n      ADD \t\t\t\n      SWAP2 \t\t\t\n      PUSH [tag] 400\t\t\t\n      JUMP \t\t\t\n    tag 401\t\t\t\n      JUMPDEST \t\t\t\n      DUP3 \t\t\t\n      ADD \t\t\t\n      SWAP2 \t\t\t\n      SWAP1 \t\t\t\n      PUSH 0\t\t\t\n      MSTORE \t\t\t\n      PUSH 20\t\t\t\n      PUSH 0\t\t\t\n      KECCAK256 \t\t\t\n      SWAP1 \t\t\t\n    tag 402\t\t\t\n      JUMPDEST \t\t\t\n      DUP2 \t\t\t\n      SLOAD \t\t\t\n      DUP2 \t\t\t\n      MSTORE \t\t\t\n      SWAP1 \t\t\t\n      PUSH 1\t\t\t\n      ADD \t\t\t\n      SWAP1 \t\t\t\n      PUSH 20\t\t\t\n      ADD \t\t\t\n      DUP1 \t\t\t\n      DUP4 \t\t\t\n      GT \t\t\t\n      PUSH [tag] 402\t\t\t\n      JUMPI \t\t\t\n      DUP3 \t\t\t\n      SWAP1 \t\t\t\n      SUB \t\t\t\n      PUSH 1F\t\t\t\n      AND \t\t\t\n      DUP3 \t\t\t\n      ADD \t\t\t\n      SWAP2 \t\t\t\n    tag 400\t\t\t\n      JUMPDEST \t\t\t\n      POP \t\t\t\n      POP \t\t\t\n      POP \t\t\t\n      POP \t\t\t\n      POP \t\t\t\n      DUP2 \t\t\t\n      MSTORE \t\t\t\n      PUSH 20\t\t\t\n      ADD \t\t\t\n      PUSH 1\t\t\t\n      DUP3 \t\t\t\n      ADD \t\t\t\n      PUSH 0\t\t\t\n      SWAP1 \t\t\t\n      SLOAD \t\t\t\n      SWAP1 \t\t\t\n      PUSH 100\t\t\t\n      EXP \t\t\t\n      SWAP1 \t\t\t\n      DIV \t\t\t\n      PUSH FFFFFFFFFFFFFFFFFFFFFFFFFFFFFFFFFFFFFFFF\t\t\t\n      AND \t\t\t\n      PUSH FFFFFFFFFFFFFFFFFFFFFFFFFFFFFFFFFFFFFFFF\t\t\t\n      AND \t\t\t\n      PUSH FFFFFFFFFFFFFFFFFFFFFFFFFFFFFFFFFFFFFFFF\t\t\t\n      AND \t\t\t\n      DUP2 \t\t\t\n      MSTORE \t\t\t\n      PUSH 20\t\t\t\n      ADD \t\t\t\n      PUSH 2\t\t\t\n      DUP3 \t\t\t\n      ADD \t\t\t\n      DUP1 \t\t\t\n      SLOAD \t\t\t\n      PUSH [tag] 403\t\t\t\n      SWAP1 \t\t\t\n      PUSH [tag] 283\t\t\t\n      JUMP \t\t\t\n    tag 403\t\t\t\n      JUMPDEST \t\t\t\n      DUP1 \t\t\t\n      PUSH 1F\t\t\t\n      ADD \t\t\t\n      PUSH 20\t\t\t\n      DUP1 \t\t\t\n      SWAP2 \t\t\t\n      DIV \t\t\t\n      MUL \t\t\t\n      PUSH 20\t\t\t\n      ADD \t\t\t\n      PUSH 40\t\t\t\n      MLOAD \t\t\t\n      SWAP1 \t\t\t\n      DUP2 \t\t\t\n      ADD \t\t\t\n      PUSH 40\t\t\t\n      MSTORE \t\t\t\n      DUP1 \t\t\t\n      SWAP3 \t\t\t\n      SWAP2 \t\t\t\n      SWAP1 \t\t\t\n      DUP2 \t\t\t\n      DUP2 \t\t\t\n      MSTORE \t\t\t\n      PUSH 20\t\t\t\n      ADD \t\t\t\n      DUP3 \t\t\t\n      DUP1 \t\t\t\n      SLOAD \t\t\t\n      PUSH [tag] 404\t\t\t\n      SWAP1 \t\t\t\n      PUSH [tag] 283\t\t\t\n      JUMP \t\t\t\n    tag 404\t\t\t\n      JUMPDEST \t\t\t\n      DUP1 \t\t\t\n      ISZERO \t\t\t\n      PUSH [tag] 405\t\t\t\n      JUMPI \t\t\t\n      DUP1 \t\t\t\n      PUSH 1F\t\t\t\n      LT \t\t\t\n      PUSH [tag] 406\t\t\t\n      JUMPI \t\t\t\n      PUSH 100\t\t\t\n      DUP1 \t\t\t\n      DUP4 \t\t\t\n      SLOAD \t\t\t\n      DIV \t\t\t\n      MUL \t\t\t\n      DUP4 \t\t\t\n      MSTORE \t\t\t\n      SWAP2 \t\t\t\n      PUSH 20\t\t\t\n      ADD \t\t\t\n      SWAP2 \t\t\t\n      PUSH [tag] 405\t\t\t\n      JUMP \t\t\t\n    tag 406\t\t\t\n      JUMPDEST \t\t\t\n      DUP3 \t\t\t\n      ADD \t\t\t\n      SWAP2 \t\t\t\n      SWAP1 \t\t\t\n      PUSH 0\t\t\t\n      MSTORE \t\t\t\n      PUSH 20\t\t\t\n      PUSH 0\t\t\t\n      KECCAK256 \t\t\t\n      SWAP1 \t\t\t\n    tag 407\t\t\t\n      JUMPDEST \t\t\t\n      DUP2 \t\t\t\n      SLOAD \t\t\t\n      DUP2 \t\t\t\n      MSTORE \t\t\t\n      SWAP1 \t\t\t\n      PUSH 1\t\t\t\n      ADD \t\t\t\n      SWAP1 \t\t\t\n      PUSH 20\t\t\t\n      ADD \t\t\t\n      DUP1 \t\t\t\n      DUP4 \t\t\t\n      GT \t\t\t\n      PUSH [tag] 407\t\t\t\n      JUMPI \t\t\t\n      DUP3 \t\t\t\n      SWAP1 \t\t\t\n      SUB \t\t\t\n      PUSH 1F\t\t\t\n      AND \t\t\t\n      DUP3 \t\t\t\n      ADD \t\t\t\n      SWAP2 \t\t\t\n    tag 405\t\t\t\n      JUMPDEST \t\t\t\n      POP \t\t\t\n      POP \t\t\t\n      POP \t\t\t\n      POP \t\t\t\n      POP \t\t\t\n      DUP2 \t\t\t\n      MSTORE \t\t\t\n      POP \t\t\t\n      POP \t\t\t\n      SWAP3 \t\t\t\n      POP \t\t\t\n      POP \t\t\t\n      POP \t\t\t\n      SWAP2 \t\t\t\n      SWAP1 \t\t\t\n      POP \t\t\t\n      JUMP \t\t\t\n    tag 148\t\t\tfunction setRequestOwner(\\n   ...\n      JUMPDEST \t\t\tfunction setRequestOwner(\\n   ...\n      DUP2 \t\t\trequestId\n      PUSH 0\t\t\taddress sender\n      PUSH [tag] 409\t\t\t_msgSender()\n      PUSH [tag] 208\t\t\t_msgSender\n      JUMP \t\t\t_msgSender()\n    tag 409\t\t\t_msgSender()\n      JUMPDEST \t\t\t_msgSender()\n      SWAP1 \t\t\taddress sender = _msgSender()\n      POP \t\t\taddress sender = _msgSender()\n      PUSH [tag] 410\t\t\tgetRequestOwner(requestId)\n      DUP3 \t\t\trequestId\n      PUSH [tag] 103\t\t\tgetRequestOwner\n      JUMP \t\t\tgetRequestOwner(requestId)\n    tag 410\t\t\tgetRequestOwner(requestId)\n      JUMPDEST \t\t\tgetRequestOwner(requestId)\n      PUSH FFFFFFFFFFFFFFFFFFFFFFFFFFFFFFFFFFFFFFFF\t\t\tsender == getRequestOwner(requ...\n      AND \t\t\tsender == getRequestOwner(requ...\n      DUP2 \t\t\tsender\n      PUSH FFFFFFFFFFFFFFFFFFFFFFFFFFFFFFFFFFFFFFFF\t\t\tsender == getRequestOwner(requ...\n      AND \t\t\tsender == getRequestOwner(requ...\n      EQ \t\t\tsender == getRequestOwner(requ...\n      DUP1 \t\t\tsender == getRequestOwner(requ...\n      PUSH [tag] 411\t\t\tsender == getRequestOwner(requ...\n      JUMPI \t\t\tsender == getRequestOwner(requ...\n      POP \t\t\tsender == getRequestOwner(requ...\n      PUSH [tag] 412\t\t\towner()\n      PUSH [tag] 118\t\t\towner\n      JUMP \t\t\towner()\n    tag 412\t\t\towner()\n      JUMPDEST \t\t\towner()\n      PUSH FFFFFFFFFFFFFFFFFFFFFFFFFFFFFFFFFFFFFFFF\t\t\tsender == owner()\n      AND \t\t\tsender == owner()\n      DUP2 \t\t\tsender\n      PUSH FFFFFFFFFFFFFFFFFFFFFFFFFFFFFFFFFFFFFFFF\t\t\tsender == owner()\n      AND \t\t\tsender == owner()\n      EQ \t\t\tsender == owner()\n    tag 411\t\t\tsender == getRequestOwner(requ...\n      JUMPDEST \t\t\tsender == getRequestOwner(requ...\n      PUSH [tag] 413\t\t\trequire(\\n            sender =...\n      JUMPI \t\t\trequire(\\n            sender =...\n      PUSH 40\t\t\trequire(\\n            sender =...\n      MLOAD \t\t\trequire(\\n            sender =...\n      PUSH 8C379A000000000000000000000000000000000000000000000000000000000\t\t\trequire(\\n            sender =...\n      DUP2 \t\t\trequire(\\n            sender =...\n      MSTORE \t\t\trequire(\\n            sender =...\n      PUSH 4\t\t\trequire(\\n            sender =...\n      ADD \t\t\trequire(\\n            sender =...\n      PUSH [tag] 414\t\t\trequire(\\n            sender =...\n      SWAP1 \t\t\trequire(\\n            sender =...\n      PUSH [tag] 214\t\t\trequire(\\n            sender =...\n      JUMP \t\t\trequire(\\n            sender =...\n    tag 414\t\t\trequire(\\n            sender =...\n      JUMPDEST \t\t\trequire(\\n            sender =...\n      PUSH 40\t\t\trequire(\\n            sender =...\n      MLOAD \t\t\trequire(\\n            sender =...\n      DUP1 \t\t\trequire(\\n            sender =...\n      SWAP2 \t\t\trequire(\\n            sender =...\n      SUB \t\t\trequire(\\n            sender =...\n      SWAP1 \t\t\trequire(\\n            sender =...\n      REVERT \t\t\trequire(\\n            sender =...\n    tag 413\t\t\trequire(\\n            sender =...\n      JUMPDEST \t\t\trequire(\\n            sender =...\n      PUSH [tag] 416\t\t\t_setRequestOwner(requestId, re...\n      DUP5 \t\t\trequestId\n      DUP5 \t\t\trequestOwner\n      PUSH [tag] 417\t\t\t_setRequestOwner\n      JUMP \t\t\t_setRequestOwner(requestId, re...\n    tag 416\t\t\t_setRequestOwner(requestId, re...\n      JUMPDEST \t\t\t_setRequestOwner(requestId, re...\n      POP \t\t\t{\\n        address sender = _m...\n      POP \t\t\tfunction setRequestOwner(\\n   ...\n      POP \t\t\tfunction setRequestOwner(\\n   ...\n      POP \t\t\tfunction setRequestOwner(\\n   ...\n      JUMP \t\t\tfunction setRequestOwner(\\n   ...\n    tag 152\t\t\t\n      JUMPDEST \t\t\t\n      PUSH 0\t\t\t\n      DUP3 \t\t\t\n      PUSH 1\t\t\t\n      DUP1 \t\t\t         \n      ISZERO \t\t\tta,\\n            address(reque...\n      PUSH [tag] 419\t\t\tta,\\n            address(reque...\n      JUMPI \t\t\tta,\\n            address(reque...\n      PUSH [tag] 420\t\t\tator),\\n            request\n      DUP3 \t\t\t   reques\n      PUSH [tag] 130\t\t\tator),\\n        \n      JUMP \t\t\tator),\\n            request\n    tag 420\t\t\tator),\\n            request\n      JUMPDEST \t\t\tator),\\n            request\n      PUSH [tag] 421\t\t\tst.validator),\\n            re...\n      JUMPI \t\t\tst.validator),\\n            re...\n      PUSH 40\t\t\tst.validator),\\n            re...\n      MLOAD \t\t\tst.validator),\\n            re...\n      PUSH 8C379A000000000000000000000000000000000000000000000000000000000\t\t\tst.validator),\\n            re...\n      DUP2 \t\t\tst.validator),\\n            re...\n      MSTORE \t\t\tst.validator),\\n            re...\n      PUSH 4\t\t\tst.validator),\\n            re...\n      ADD \t\t\tst.validator),\\n            re...\n      PUSH [tag] 422\t\t\tst.validator),\\n            re...\n      SWAP1 \t\t\tst.validator),\\n            re...\n      PUSH [tag] 197\t\t\tst.validator),\\n            re...\n      JUMP \t\t\tst.validator),\\n            re...\n    tag 422\t\t\tst.validator),\\n            re...\n      JUMPDEST \t\t\tst.validator),\\n            re...\n      PUSH 40\t\t\tst.validator),\\n            re...\n      MLOAD \t\t\tst.validator),\\n            re...\n      DUP1 \t\t\tst.validator),\\n            re...\n      SWAP2 \t\t\tst.validator),\\n            re...\n      SUB \t\t\tst.validator),\\n            re...\n      SWAP1 \t\t\tst.validator),\\n            re...\n      REVERT \t\t\tst.validator),\\n            re...\n    tag 421\t\t\tst.validator),\\n            re...\n      JUMPDEST \t\t\tst.validator),\\n            re...\n      PUSH [tag] 423\t\t\tta,\\n            address(reque...\n      JUMP \t\t\tta,\\n            address(reque...\n    tag 419\t\t\tta,\\n            address(reque...\n      JUMPDEST \t\t\tta,\\n            address(reque...\n      PUSH [tag] 424\t\t\tes proof status\\n    /// @p\n      DUP3 \t\t\t    /// @\n      PUSH [tag] 130\t\t\tes proof status\n      JUMP \t\t\tes proof status\\n    /// @p\n    tag 424\t\t\tes proof status\\n    /// @p\n      JUMPDEST \t\t\tes proof status\\n    /// @p\n      ISZERO \t\t\ttes proof status\\n    /// @p\n      PUSH [tag] 425\t\t\tand updates proof status\\n    ...\n      JUMPI \t\t\tand updates proof status\\n    ...\n      PUSH 40\t\t\tand updates proof status\\n    ...\n      MLOAD \t\t\tand updates proof status\\n    ...\n      PUSH 8C379A000000000000000000000000000000000000000000000000000000000\t\t\tand updates proof status\\n    ...\n      DUP2 \t\t\tand updates proof status\\n    ...\n      MSTORE \t\t\tand updates proof status\\n    ...\n      PUSH 4\t\t\tand updates proof status\\n    ...\n      ADD \t\t\tand updates proof status\\n    ...\n      PUSH [tag] 426\t\t\tand updates proof status\\n    ...\n      SWAP1 \t\t\tand updates proof status\\n    ...\n      PUSH [tag] 202\t\t\tand updates proof status\\n    ...\n      JUMP \t\t\tand updates proof status\\n    ...\n    tag 426\t\t\tand updates proof status\\n    ...\n      JUMPDEST \t\t\tand updates proof status\\n    ...\n      PUSH 40\t\t\tand updates proof status\\n    ...\n      MLOAD \t\t\tand updates proof status\\n    ...\n      DUP1 \t\t\tand updates proof status\\n    ...\n      SWAP2 \t\t\tand updates proof status\\n    ...\n      SUB \t\t\tand updates proof status\\n    ...\n      SWAP1 \t\t\tand updates proof status\\n    ...\n      REVERT \t\t\tand updates proof status\\n    ...\n    tag 425\t\t\tand updates proof status\\n    ...\n      JUMPDEST \t\t\tand updates proof status\\n    ...\n    tag 423\t\t\tta,\\n            address(reque...\n      JUMPDEST \t\t\tta,\\n            address(reque...\n      PUSH [tag] 428\t\t\t\n      PUSH [tag] 220\t\t\t\n      JUMP \t\t\t\n    tag 428\t\t\t\n      JUMPDEST \t\t\t\n      PUSH 0\t\t\t\n      ADD \t\t\t\n      PUSH 0\t\t\t\n      DUP8 \t\t\t\n      PUSH FFFFFFFFFFFFFFFFFFFFFFFFFFFFFFFFFFFFFFFF\t\t\t\n      AND \t\t\t\n      PUSH FFFFFFFFFFFFFFFFFFFFFFFFFFFFFFFFFFFFFFFF\t\t\t\n      AND \t\t\t\n      DUP2 \t\t\t\n      MSTORE \t\t\t\n      PUSH 20\t\t\t\n      ADD \t\t\t\n      SWAP1 \t\t\t\n      DUP2 \t\t\t\n      MSTORE \t\t\t\n      PUSH 20\t\t\t\n      ADD \t\t\t\n      PUSH 0\t\t\t\n      KECCAK256 \t\t\t\n      PUSH 0\t\t\t\n      DUP7 \t\t\t\n      PUSH FFFFFFFFFFFFFFFF\t\t\t\n      AND \t\t\t\n      PUSH FFFFFFFFFFFFFFFF\t\t\t\n      AND \t\t\t\n      DUP2 \t\t\t\n      MSTORE \t\t\t\n      PUSH 20\t\t\t\n      ADD \t\t\t\n      SWAP1 \t\t\t\n      DUP2 \t\t\t\n      MSTORE \t\t\t\n      PUSH 20\t\t\t\n      ADD \t\t\t\n      PUSH 0\t\t\t\n      KECCAK256 \t\t\t\n      PUSH 1\t\t\t\n      ADD \t\t\t\n      DUP5 \t\t\t\n      PUSH 40\t\t\t\n      MLOAD \t\t\t\n      PUSH [tag] 429\t\t\t\n      SWAP2 \t\t\t\n      SWAP1 \t\t\t\n      PUSH [tag] 430\t\t\t\n      JUMP \t\t\t\n    tag 429\t\t\t\n      JUMPDEST \t\t\t\n      SWAP1 \t\t\t\n      DUP2 \t\t\t\n      MSTORE \t\t\t\n      PUSH 20\t\t\t\n      ADD \t\t\t\n      PUSH 40\t\t\t\n      MLOAD \t\t\t\n      DUP1 \t\t\t\n      SWAP2 \t\t\t\n      SUB \t\t\t\n      SWAP1 \t\t\t\n      KECCAK256 \t\t\t\n      SLOAD \t\t\t\n      SWAP3 \t\t\t\n      POP \t\t\t\n      POP \t\t\t\n      POP \t\t\t\n      SWAP4 \t\t\t\n      SWAP3 \t\t\t\n      POP \t\t\t\n      POP \t\t\t\n      POP \t\t\t\n      JUMP \t\t\t\n    tag 155\t\t\te ZKP request\\n    /// @param ...\n      JUMPDEST \t\t\te ZKP request\\n    /// @param ...\n      PUSH 0\t\t\tdata\\n  \n      PUSH 0\t\t\tetZKPRequest(\\n        uint64 \n      PUSH [tag] 432\t\t\tuestId,\\n        IZKPVerif\n      PUSH [tag] 433\t\t\tuestId,\\n        IZKPVer\n      JUMP \t\t\tuestId,\\n        IZKPVerif\n    tag 432\t\t\tuestId,\\n        IZKPVerif\n      JUMPDEST \t\t\tuestId,\\n        IZKPVerif\n      SWAP1 \t\t\tetZKPRequest(\\n        uint64 ...\n      POP \t\t\tetZKPRequest(\\n        uint64 ...\n      DUP1 \t\t\tl\n      PUSH 0\t\t\tlldata request\\n\n      ADD \t\t\tlldata request\\n\n      PUSH 0\t\t\tlldata request\\n\n      SWAP1 \t\t\tlldata request\\n\n      SLOAD \t\t\tlldata request\\n\n      SWAP1 \t\t\tlldata request\\n\n      PUSH 100\t\t\tlldata request\\n\n      EXP \t\t\tlldata request\\n\n      SWAP1 \t\t\tlldata request\\n\n      DIV \t\t\tlldata request\\n\n      PUSH FFFFFFFFFFFFFFFFFFFFFFFFFFFFFFFFFFFFFFFF\t\t\tlldata request\\n\n      AND \t\t\tlldata request\\n\n      SWAP2 \t\t\tuest calldata request\\n\n      POP \t\t\tuest calldata request\\n\n      POP \t\t\tuest calldata request\\n\n      SWAP1 \t\t\te ZKP request\\n    /// @param ...\n      JUMP \t\t\te ZKP request\\n    /// @param ...\n    tag 160\t\t\t/ @dev Submits a ZKP response ...\n      JUMPDEST \t\t\t/ @dev Submits a ZKP response ...\n      PUSH [tag] 435\t\t\t  emit ZKPReq\n      PUSH [tag] 223\t\t\t  emit ZKPR\n      JUMP \t\t\t  emit ZKPReq\n    tag 435\t\t\t  emit ZKPReq\n      JUMPDEST \t\t\t  emit ZKPReq\n      PUSH 0\t\t\t the ZKP request\\n    /// @par\n      PUSH [tag] 437\t\t\tinputs The input data for\n      PUSH [tag] 433\t\t\tinputs The input data f\n      JUMP \t\t\tinputs The input data for\n    tag 437\t\t\tinputs The input data for\n      JUMPDEST \t\t\tinputs The input data for\n      SWAP1 \t\t\t the ZKP request\\n    /// @par...\n      POP \t\t\t the ZKP request\\n    /// @par...\n      DUP2 \t\t\tThe firs\n      DUP2 \t\t\t\\n\n      PUSH 0\t\t\t\\n    /// @param\n      ADD \t\t\t\\n    /// @param\n      PUSH 0\t\t\t\\n    /// @param\n      PUSH 100\t\t\t\\n    /// @param a The firs\n      EXP \t\t\t\\n    /// @param a The firs\n      DUP2 \t\t\t\\n    /// @param a The firs\n      SLOAD \t\t\t\\n    /// @param a The firs\n      DUP2 \t\t\t\\n    /// @param a The firs\n      PUSH FFFFFFFFFFFFFFFFFFFFFFFFFFFFFFFFFFFFFFFF\t\t\t\\n    /// @param a The firs\n      MUL \t\t\t\\n    /// @param a The firs\n      NOT \t\t\t\\n    /// @param a The firs\n      AND \t\t\t\\n    /// @param a The firs\n      SWAP1 \t\t\t\\n    /// @param a The firs\n      DUP4 \t\t\t\\n    /// @param a The firs\n      PUSH FFFFFFFFFFFFFFFFFFFFFFFFFFFFFFFFFFFFFFFF\t\t\t\\n    /// @param a The firs\n      AND \t\t\t\\n    /// @param a The firs\n      MUL \t\t\t\\n    /// @param a The firs\n      OR \t\t\t\\n    /// @param a The firs\n      SWAP1 \t\t\t\\n    /// @param a The firs\n      SSTORE \t\t\t\\n    /// @param a The firs\n      POP \t\t\t\\n    /// @param a The firs\n      DUP2 \t\t\tond comp\n      PUSH FFFFFFFFFFFFFFFFFFFFFFFFFFFFFFFFFFFFFFFF\t\t\tthe proof\\n    /// @param b Th...\n      AND \t\t\tthe proof\\n    /// @param b Th...\n      PUSH [tag] 438\t\t\tb The s\n      PUSH [tag] 118\t\t\tb The\n      JUMP \t\t\tb The s\n    tag 438\t\t\tb The s\n      JUMPDEST \t\t\tb The s\n      PUSH FFFFFFFFFFFFFFFFFFFFFFFFFFFFFFFFFFFFFFFF\t\t\tthe proof\\n    /// @param b Th...\n      AND \t\t\tthe proof\\n    /// @param b Th...\n      PUSH 38D16B8CAC22D99FC7C124B9CD0DE2D3FA1FAEF420BFE791D8C362D765E22700\t\t\tthe proof\\n    /// @param b Th...\n      PUSH 40\t\t\tthe proof\\n    /// @param b Th...\n      MLOAD \t\t\tthe proof\\n    /// @param b Th...\n      PUSH 40\t\t\tthe proof\\n    /// @param b Th...\n      MLOAD \t\t\tthe proof\\n    /// @param b Th...\n      DUP1 \t\t\tthe proof\\n    /// @param b Th...\n      SWAP2 \t\t\tthe proof\\n    /// @param b Th...\n      SUB \t\t\tthe proof\\n    /// @param b Th...\n      SWAP1 \t\t\tthe proof\\n    /// @param b Th...\n      LOG3 \t\t\tthe proof\\n    /// @param b Th...\n      POP \t\t\t The ID of the ZKP request\\n  ...\n      POP \t\t\t/ @dev Submits a ZKP response ...\n      JUMP \t\t\t/ @dev Submits a ZKP response ...\n    tag 162\t\t\tstring public constant VERSION...\n      JUMPDEST \t\t\tstring public constant VERSION...\n      PUSH 40\t\t\tstring public constant VERSION...\n      MLOAD \t\t\tstring public constant VERSION...\n      DUP1 \t\t\tstring public constant VERSION...\n      PUSH 40\t\t\tstring public constant VERSION...\n      ADD \t\t\tstring public constant VERSION...\n      PUSH 40\t\t\tstring public constant VERSION...\n      MSTORE \t\t\tstring public constant VERSION...\n      DUP1 \t\t\tstring public constant VERSION...\n      PUSH 5\t\t\tstring public constant VERSION...\n      DUP2 \t\t\tstring public constant VERSION...\n      MSTORE \t\t\tstring public constant VERSION...\n      PUSH 20\t\t\tstring public constant VERSION...\n      ADD \t\t\tstring public constant VERSION...\n      PUSH 312E312E31000000000000000000000000000000000000000000000000000000\t\t\tstring public constant VERSION...\n      DUP2 \t\t\tstring public constant VERSION...\n      MSTORE \t\t\tstring public constant VERSION...\n      POP \t\t\tstring public constant VERSION...\n      DUP2 \t\t\tstring public constant VERSION...\n      JUMP \t\t\tstring public constant VERSION...\n    tag 205\t\t\toof) requests and proofs.\\ncon...\n      JUMPDEST \t\t\toof) requests and proofs.\\ncon...\n      PUSH 0\t\t\t Ownable2StepUpgradeable,\\n   ...\n      PUSH 70325635D67D74932012FA921CCB2F335D3B1D69E3A487F50D001CC65F531600\t\t\tValidatorWhitelist\\n{\\n    /**...\n      SWAP1 \t\t\table,\\n    ValidatorWhitelist\\...\n      POP \t\t\table,\\n    ValidatorWhitelist\\...\n      SWAP1 \t\t\toof) requests and proofs.\\ncon...\n      JUMP \t\t\toof) requests and proofs.\\ncon...\n    tag 208\t\t\t    string public constant VER...\n      JUMPDEST \t\t\t    string public constant VER...\n      PUSH 0\t\t\t/ @dev \n      CALLER \t\t\tsubmitting\n      SWAP1 \t\t\td upon submitting\n      POP \t\t\td upon submitting\n      SWAP1 \t\t\t    string public constant VER...\n      JUMP \t\t\t    string public constant VER...\n    tag 217\t\t\tsubmitZKPResponse(requestId, i...\n      JUMPDEST \t\t\tsubmitZKPResponse(requestId, i...\n      DUP1 \t\t\ttted(requ\n      PUSH 1\t\t\ttId,\n      DUP1 \t\t\t         \n      ISZERO \t\t\tta,\\n            address(reque...\n      PUSH [tag] 442\t\t\tta,\\n            address(reque...\n      JUMPI \t\t\tta,\\n            address(reque...\n      PUSH [tag] 443\t\t\tator),\\n            request\n      DUP3 \t\t\t   reques\n      PUSH [tag] 130\t\t\tator),\\n        \n      JUMP \t\t\tator),\\n            request\n    tag 443\t\t\tator),\\n            request\n      JUMPDEST \t\t\tator),\\n            request\n      PUSH [tag] 444\t\t\tst.validator),\\n            re...\n      JUMPI \t\t\tst.validator),\\n            re...\n      PUSH 40\t\t\tst.validator),\\n            re...\n      MLOAD \t\t\tst.validator),\\n            re...\n      PUSH 8C379A000000000000000000000000000000000000000000000000000000000\t\t\tst.validator),\\n            re...\n      DUP2 \t\t\tst.validator),\\n            re...\n      MSTORE \t\t\tst.validator),\\n            re...\n      PUSH 4\t\t\tst.validator),\\n            re...\n      ADD \t\t\tst.validator),\\n            re...\n      PUSH [tag] 445\t\t\tst.validator),\\n            re...\n      SWAP1 \t\t\tst.validator),\\n            re...\n      PUSH [tag] 197\t\t\tst.validator),\\n            re...\n      JUMP \t\t\tst.validator),\\n            re...\n    tag 445\t\t\tst.validator),\\n            re...\n      JUMPDEST \t\t\tst.validator),\\n            re...\n      PUSH 40\t\t\tst.validator),\\n            re...\n      MLOAD \t\t\tst.validator),\\n            re...\n      DUP1 \t\t\tst.validator),\\n            re...\n      SWAP2 \t\t\tst.validator),\\n            re...\n      SUB \t\t\tst.validator),\\n            re...\n      SWAP1 \t\t\tst.validator),\\n            re...\n      REVERT \t\t\tst.validator),\\n            re...\n    tag 444\t\t\tst.validator),\\n            re...\n      JUMPDEST \t\t\tst.validator),\\n            re...\n      PUSH [tag] 446\t\t\tta,\\n            address(reque...\n      JUMP \t\t\tta,\\n            address(reque...\n    tag 442\t\t\tta,\\n            address(reque...\n      JUMPDEST \t\t\tta,\\n            address(reque...\n      PUSH [tag] 447\t\t\tes proof status\\n    /// @p\n      DUP3 \t\t\t    /// @\n      PUSH [tag] 130\t\t\tes proof status\n      JUMP \t\t\tes proof status\\n    /// @p\n    tag 447\t\t\tes proof status\\n    /// @p\n      JUMPDEST \t\t\tes proof status\\n    /// @p\n      ISZERO \t\t\ttes proof status\\n    /// @p\n      PUSH [tag] 448\t\t\tand updates proof status\\n    ...\n      JUMPI \t\t\tand updates proof status\\n    ...\n      PUSH 40\t\t\tand updates proof status\\n    ...\n      MLOAD \t\t\tand updates proof status\\n    ...\n      PUSH 8C379A000000000000000000000000000000000000000000000000000000000\t\t\tand updates proof status\\n    ...\n      DUP2 \t\t\tand updates proof status\\n    ...\n      MSTORE \t\t\tand updates proof status\\n    ...\n      PUSH 4\t\t\tand updates proof status\\n    ...\n      ADD \t\t\tand updates proof status\\n    ...\n      PUSH [tag] 449\t\t\tand updates proof status\\n    ...\n      SWAP1 \t\t\tand updates proof status\\n    ...\n      PUSH [tag] 202\t\t\tand updates proof status\\n    ...\n      JUMP \t\t\tand updates proof status\\n    ...\n    tag 449\t\t\tand updates proof status\\n    ...\n      JUMPDEST \t\t\tand updates proof status\\n    ...\n      PUSH 40\t\t\tand updates proof status\\n    ...\n      MLOAD \t\t\tand updates proof status\\n    ...\n      DUP1 \t\t\tand updates proof status\\n    ...\n      SWAP2 \t\t\tand updates proof status\\n    ...\n      SUB \t\t\tand updates proof status\\n    ...\n      SWAP1 \t\t\tand updates proof status\\n    ...\n      REVERT \t\t\tand updates proof status\\n    ...\n    tag 448\t\t\tand updates proof status\\n    ...\n      JUMPDEST \t\t\tand updates proof status\\n    ...\n    tag 446\t\t\tta,\\n            address(reque...\n      JUMPDEST \t\t\tta,\\n            address(reque...\n      PUSH 0\t\t\tonses\n      PUSH [tag] 451\t\t\t));\\n    }\\n\\n    /**\\n     * ...\n      PUSH [tag] 205\t\t\t));\\n    }\\n\\n    /**\\n     *\n      JUMP \t\t\t));\\n    }\\n\\n    /**\\n     * ...\n    tag 451\t\t\t));\\n    }\\n\\n    /**\\n     * ...\n      JUMPDEST \t\t\t));\\n    }\\n\\n    /**\\n     * ...\n      PUSH 0\t\t\t));\\n    }\\n\\n    /**\\n     * ...\n      ADD \t\t\t));\\n    }\\n\\n    /**\\n     * ...\n      PUSH 0\t\t\t));\\n    }\\n\\n    /**\\n     * ...\n      DUP6 \t\t\ty of ZKP \n      PUSH FFFFFFFFFFFFFFFF\t\t\t));\\n    }\\n\\n    /**\\n     * ...\n      AND \t\t\t));\\n    }\\n\\n    /**\\n     * ...\n      PUSH FFFFFFFFFFFFFFFF\t\t\t));\\n    }\\n\\n    /**\\n     * ...\n      AND \t\t\t));\\n    }\\n\\n    /**\\n     * ...\n      DUP2 \t\t\t));\\n    }\\n\\n    /**\\n     * ...\n      MSTORE \t\t\t));\\n    }\\n\\n    /**\\n     * ...\n      PUSH 20\t\t\t));\\n    }\\n\\n    /**\\n     * ...\n      ADD \t\t\t));\\n    }\\n\\n    /**\\n     * ...\n      SWAP1 \t\t\t));\\n    }\\n\\n    /**\\n     * ...\n      DUP2 \t\t\t));\\n    }\\n\\n    /**\\n     * ...\n      MSTORE \t\t\t));\\n    }\\n\\n    /**\\n     * ...\n      PUSH 20\t\t\t));\\n    }\\n\\n    /**\\n     * ...\n      ADD \t\t\t));\\n    }\\n\\n    /**\\n     * ...\n      PUSH 0\t\t\t));\\n    }\\n\\n    /**\\n     * ...\n      KECCAK256 \t\t\t));\\n    }\\n\\n    /**\\n     * ...\n      PUSH 0\t\t\t));\\n    }\\n\\n    /**\\n     * ...\n      PUSH 100\t\t\t));\\n    }\\n\\n    /**\\n     * ...\n      EXP \t\t\t));\\n    }\\n\\n    /**\\n     * ...\n      DUP2 \t\t\t));\\n    }\\n\\n    /**\\n     * ...\n      SLOAD \t\t\t));\\n    }\\n\\n    /**\\n     * ...\n      DUP2 \t\t\t));\\n    }\\n\\n    /**\\n     * ...\n      PUSH FF\t\t\t));\\n    }\\n\\n    /**\\n     * ...\n      MUL \t\t\t));\\n    }\\n\\n    /**\\n     * ...\n      NOT \t\t\t));\\n    }\\n\\n    /**\\n     * ...\n      AND \t\t\t));\\n    }\\n\\n    /**\\n     * ...\n      SWAP1 \t\t\t));\\n    }\\n\\n    /**\\n     * ...\n      DUP4 \t\t\t));\\n    }\\n\\n    /**\\n     * ...\n      ISZERO \t\t\t));\\n    }\\n\\n    /**\\n     * ...\n      ISZERO \t\t\t));\\n    }\\n\\n    /**\\n     * ...\n      MUL \t\t\t));\\n    }\\n\\n    /**\\n     * ...\n      OR \t\t\t));\\n    }\\n\\n    /**\\n     * ...\n      SWAP1 \t\t\t));\\n    }\\n\\n    /**\\n     * ...\n      SSTORE \t\t\t));\\n    }\\n\\n    /**\\n     * ...\n      POP \t\t\t));\\n    }\\n\\n    /**\\n     * ...\n      POP \t\t\tsubmitZKPResponse(requestId, i...\n      POP \t\t\tsubmitZKPResponse(requestId, i...\n      POP \t\t\tsubmitZKPResponse(requestId, i...\n      JUMP \t\t\tsubmitZKPResponse(requestId, i...\n    tag 220\t\t\tadata,\\n        address valida...\n      JUMPDEST \t\t\tadata,\\n        address valida...\n      PUSH 0\t\t\t );\\n\\n    /// @dev Modifier t\n      PUSH 512D18C55869273FEC77E70D8A8586E3FB133E90F1DB24C6BCF4FF3506EF6A00\t\t\tr ZKP Request Owner\\n    mo\n      SWAP1 \t\t\tct Owner or ZKP Request Owner\\...\n      POP \t\t\tct Owner or ZKP Request Owner\\...\n      SWAP1 \t\t\tadata,\\n        address valida...\n      JUMP \t\t\tadata,\\n        address valida...\n    tag 223\t\t\tput data for the proof\\n    //...\n      JUMPDEST \t\t\tput data for the proof\\n    //...\n      PUSH [tag] 454\t\t\tof\\n    /// @\n      PUSH [tag] 208\t\t\tof\\n    ///\n      JUMP \t\t\tof\\n    /// @\n    tag 454\t\t\tof\\n    /// @\n      JUMPDEST \t\t\tof\\n    /// @\n      PUSH FFFFFFFFFFFFFFFFFFFFFFFFFFFFFFFFFFFFFFFF\t\t\t of the proof\\n    /// @\n      AND \t\t\t of the proof\\n    /// @\n      PUSH [tag] 455\t\t\t of the\n      PUSH [tag] 118\t\t\t of t\n      JUMP \t\t\t of the\n    tag 455\t\t\t of the\n      JUMPDEST \t\t\t of the\n      PUSH FFFFFFFFFFFFFFFFFFFFFFFFFFFFFFFFFFFFFFFF\t\t\t of the proof\\n    /// @\n      AND \t\t\t of the proof\\n    /// @\n      EQ \t\t\t of the proof\\n    /// @\n      PUSH [tag] 456\t\t\tnent of the proof\\n    /// @pa...\n      JUMPI \t\t\tnent of the proof\\n    /// @pa...\n      PUSH [tag] 457\t\t\t@param c The\n      PUSH [tag] 208\t\t\t@param c T\n      JUMP \t\t\t@param c The\n    tag 457\t\t\t@param c The\n      JUMPDEST \t\t\t@param c The\n      PUSH 40\t\t\tonent of the proof\\n    /// @p...\n      MLOAD \t\t\tonent of the proof\\n    /// @p...\n      PUSH 118CDAA700000000000000000000000000000000000000000000000000000000\t\t\tonent of the proof\\n    /// @p...\n      DUP2 \t\t\tonent of the proof\\n    /// @p...\n      MSTORE \t\t\tonent of the proof\\n    /// @p...\n      PUSH 4\t\t\tonent of the proof\\n    /// @p...\n      ADD \t\t\tonent of the proof\\n    /// @p...\n      PUSH [tag] 458\t\t\tonent of the proof\\n    /// @p...\n      SWAP2 \t\t\tonent of the proof\\n    /// @p...\n      SWAP1 \t\t\tonent of the proof\\n    /// @p...\n      PUSH [tag] 61\t\t\tonent of the proof\\n    /// @p...\n      JUMP \t\t\tonent of the proof\\n    /// @p...\n    tag 458\t\t\tonent of the proof\\n    /// @p...\n      JUMPDEST \t\t\tonent of the proof\\n    /// @p...\n      PUSH 40\t\t\tonent of the proof\\n    /// @p...\n      MLOAD \t\t\tonent of the proof\\n    /// @p...\n      DUP1 \t\t\tonent of the proof\\n    /// @p...\n      SWAP2 \t\t\tonent of the proof\\n    /// @p...\n      SUB \t\t\tonent of the proof\\n    /// @p...\n      SWAP1 \t\t\tonent of the proof\\n    /// @p...\n      REVERT \t\t\tonent of the proof\\n    /// @p...\n    tag 456\t\t\tnent of the proof\\n    /// @pa...\n      JUMPDEST \t\t\tnent of the proof\\n    /// @pa...\n      JUMP \t\t\tput data for the proof\\n    //...\n    tag 226\t\t\testOwner(uint64 requestId) {\\n...\n      JUMPDEST \t\t\testOwner(uint64 requestId) {\\n...\n      DUP1 \t\t\t     \n      PUSH [tag] 460\t\t\t= _msgSender();\\n        \n      PUSH [tag] 220\t\t\t= _msgSender();\\n      \n      JUMP \t\t\t= _msgSender();\\n        \n    tag 460\t\t\t= _msgSender();\\n        \n      JUMPDEST \t\t\t= _msgSender();\\n        \n      PUSH 3\t\t\t= _msgSender();\\n        requi...\n      ADD \t\t\t= _msgSender();\\n        requi...\n      PUSH 0\t\t\t= _msgSender();\\n        requi...\n      PUSH 100\t\t\t= _msgSender();\\n        requi...\n      EXP \t\t\t= _msgSender();\\n        requi...\n      DUP2 \t\t\t= _msgSender();\\n        requi...\n      SLOAD \t\t\t= _msgSender();\\n        requi...\n      DUP2 \t\t\t= _msgSender();\\n        requi...\n      PUSH FFFFFFFFFFFFFFFFFFFFFFFFFFFFFFFFFFFFFFFF\t\t\t= _msgSender();\\n        requi...\n      MUL \t\t\t= _msgSender();\\n        requi...\n      NOT \t\t\t= _msgSender();\\n        requi...\n      AND \t\t\t= _msgSender();\\n        requi...\n      SWAP1 \t\t\t= _msgSender();\\n        requi...\n      DUP4 \t\t\t= _msgSender();\\n        requi...\n      PUSH FFFFFFFFFFFFFFFFFFFFFFFFFFFFFFFFFFFFFFFF\t\t\t= _msgSender();\\n        requi...\n      AND \t\t\t= _msgSender();\\n        requi...\n      MUL \t\t\t= _msgSender();\\n        requi...\n      OR \t\t\t= _msgSender();\\n        requi...\n      SWAP1 \t\t\t= _msgSender();\\n        requi...\n      SSTORE \t\t\t= _msgSender();\\n        requi...\n      POP \t\t\t= _msgSender();\\n        requi...\n      POP \t\t\testOwner(uint64 requestId) {\\n...\n      JUMP \t\t\testOwner(uint64 requestId) {\\n...\n    tag 229\t\t\t\n      JUMPDEST \t\t\t\n      PUSH 0\t\t\t\n      PUSH F0C57E16840DF040F15088DC2F81FE391C3923BEC73E23A9662EFC9C229C6A00\t\t\t\n      SWAP1 \t\t\t\n      POP \t\t\t\n      SWAP1 \t\t\t\n      JUMP \t\t\t\n    tag 237\t\t\tev Version of contract getter\\...\n      JUMPDEST \t\t\tev Version of contract getter\\...\n      PUSH [tag] 463\t\t\t\n      PUSH [tag] 464\t\t\t\n      JUMP \t\t\t\n    tag 463\t\t\t\n      JUMPDEST \t\t\t\n      PUSH [tag] 466\t\t\temory) {\\n        return VERSI...\n      DUP2 \t\t\tERSION;\\n    \n      PUSH [tag] 467\t\t\temory) {\\n        return \n      JUMP \t\t\temory) {\\n        return VERSI...\n    tag 466\t\t\temory) {\\n        return VERSI...\n      JUMPDEST \t\t\temory) {\\n        return VERSI...\n      POP \t\t\tev Version of contract getter\\...\n      JUMP \t\t\tev Version of contract getter\\...\n    tag 239\t\t\tr(),\\n            \"Not an owne...\n      JUMPDEST \t\t\tr(),\\n            \"Not an owne...\n      PUSH [tag] 469\t\t\t\n      PUSH [tag] 464\t\t\t\n      JUMP \t\t\t\n    tag 469\t\t\t\n      JUMPDEST \t\t\t\n      PUSH [tag] 471\t\t\t/// @dev Initializes the contr...\n      DUP2 \t\t\t\\n    \n      PUSH [tag] 472\t\t\t/// @dev Initializes the contr...\n      JUMP \t\t\t/// @dev Initializes the contr...\n    tag 471\t\t\t/// @dev Initializes the contr...\n      JUMPDEST \t\t\t/// @dev Initializes the contr...\n      POP \t\t\tr(),\\n            \"Not an owne...\n      JUMP \t\t\tr(),\\n            \"Not an owne...\n    tag 256\t\t\td component of the proof\\n    ...\n      JUMPDEST \t\t\td component of the proof\\n    ...\n      PUSH 60\t\t\tleable, ValidatorWhitelist, ZK...\n      PUSH 0\t\t\t super.submitZKPResponse(re\n      PUSH [tag] 474\t\t\tstId, inputs, a, b, c);\\n\n      DUP9 \t\t\ta, b, c);\n      PUSH [tag] 142\t\t\tstId, inputs,\n      JUMP \t\t\tstId, inputs, a, b, c);\\n\n    tag 474\t\t\tstId, inputs, a, b, c);\\n\n      JUMPDEST \t\t\tstId, inputs, a, b, c);\\n\n      PUSH 20\t\t\tstId, inputs, a, b, c);\\n     ...\n      ADD \t\t\tstId, inputs, a, b, c);\\n     ...\n      MLOAD \t\t\tstId, inputs, a, b, c);\\n     ...\n      SWAP1 \t\t\t super.submitZKPResponse(reque...\n      POP \t\t\t super.submitZKPResponse(reque...\n      PUSH [tag] 475\t\t\titted(requestId, _msgSender())...\n      DUP2 \t\t\tnder());\\n\n      PUSH [tag] 122\t\t\titted(requestId, _msgS\n      JUMP \t\t\titted(requestId, _msgSender())...\n    tag 475\t\t\titted(requestId, _msgSender())...\n      JUMPDEST \t\t\titted(requestId, _msgSender())...\n      PUSH [tag] 476\t\t\tonseSubmitted(requestId, _msgS...\n      JUMPI \t\t\tonseSubmitted(requestId, _msgS...\n      PUSH 40\t\t\tonseSubmitted(requestId, _msgS...\n      MLOAD \t\t\tonseSubmitted(requestId, _msgS...\n      PUSH 8C379A000000000000000000000000000000000000000000000000000000000\t\t\tonseSubmitted(requestId, _msgS...\n      DUP2 \t\t\tonseSubmitted(requestId, _msgS...\n      MSTORE \t\t\tonseSubmitted(requestId, _msgS...\n      PUSH 4\t\t\tonseSubmitted(requestId, _msgS...\n      ADD \t\t\tonseSubmitted(requestId, _msgS...\n      PUSH [tag] 477\t\t\tonseSubmitted(requestId, _msgS...\n      SWAP1 \t\t\tonseSubmitted(requestId, _msgS...\n      PUSH [tag] 478\t\t\tonseSubmitted(requestId, _msgS...\n      JUMP \t\t\tonseSubmitted(requestId, _msgS...\n    tag 477\t\t\tonseSubmitted(requestId, _msgS...\n      JUMPDEST \t\t\tonseSubmitted(requestId, _msgS...\n      PUSH 40\t\t\tonseSubmitted(requestId, _msgS...\n      MLOAD \t\t\tonseSubmitted(requestId, _msgS...\n      DUP1 \t\t\tonseSubmitted(requestId, _msgS...\n      SWAP2 \t\t\tonseSubmitted(requestId, _msgS...\n      SUB \t\t\tonseSubmitted(requestId, _msgS...\n      SWAP1 \t\t\tonseSubmitted(requestId, _msgS...\n      REVERT \t\t\tonseSubmitted(requestId, _msgS...\n    tag 476\t\t\tonseSubmitted(requestId, _msgS...\n      JUMPDEST \t\t\tonseSubmitted(requestId, _msgS...\n      PUSH [tag] 479\t\t\tresponses and updates proofs s...\n      DUP9 \t\t\toofs stat\n      DUP9 \t\t\t\\n     \n      DUP9 \t\t\t@\n      DUP9 \t\t\tr\n      DUP9 \t\t\t \n      DUP9 \t\t\tsponse\n      PUSH [tag] 480\t\t\tresponses and updates p\n      JUMP \t\t\tresponses and updates proofs s...\n    tag 479\t\t\tresponses and updates proofs s...\n      JUMPDEST \t\t\tresponses and updates proofs s...\n      SWAP2 \t\t\tof ZKP responses and updates p...\n      POP \t\t\tof ZKP responses and updates p...\n      POP \t\t\tof ZKP responses and updates p...\n      SWAP7 \t\t\td component of the proof\\n    ...\n      SWAP6 \t\t\td component of the proof\\n    ...\n      POP \t\t\td component of the proof\\n    ...\n      POP \t\t\td component of the proof\\n    ...\n      POP \t\t\td component of the proof\\n    ...\n      POP \t\t\td component of the proof\\n    ...\n      POP \t\t\td component of the proof\\n    ...\n      POP \t\t\td component of the proof\\n    ...\n      JUMP \t\t\td component of the proof\\n    ...\n    tag 262\t\t\ter.submitZKPResponseV2(respons...\n      JUMPDEST \t\t\ter.submitZKPResponseV2(respons...\n      DUP1 \t\t\t  emit ZK\n      PUSH FFFFFFFFFFFFFFFFFFFFFFFFFFFFFFFFFFFFFFFF\t\t\t++) {\\n            emit ZKPRes...\n      AND \t\t\t++) {\\n            emit ZKPRes...\n      PUSH 1FFC9A7\t\t\t++) {\\n            emit ZKPRes...\n      PUSH 39DB6A4800000000000000000000000000000000000000000000000000000000\t\t\tsponses[i].requestId, _msgSend...\n      PUSH 40\t\t\t++) {\\n            emit ZKPRes...\n      MLOAD \t\t\t++) {\\n            emit ZKPRes...\n      DUP3 \t\t\t++) {\\n            emit ZKPRes...\n      PUSH FFFFFFFF\t\t\t++) {\\n            emit ZKPRes...\n      AND \t\t\t++) {\\n            emit ZKPRes...\n      PUSH E0\t\t\t++) {\\n            emit ZKPRes...\n      SHL \t\t\t++) {\\n            emit ZKPRes...\n      DUP2 \t\t\t++) {\\n            emit ZKPRes...\n      MSTORE \t\t\t++) {\\n            emit ZKPRes...\n      PUSH 4\t\t\t++) {\\n            emit ZKPRes...\n      ADD \t\t\t++) {\\n            emit ZKPRes...\n      PUSH [tag] 482\t\t\t++) {\\n            emit ZKPRes...\n      SWAP2 \t\t\t++) {\\n            emit ZKPRes...\n      SWAP1 \t\t\t++) {\\n            emit ZKPRes...\n      PUSH [tag] 483\t\t\t++) {\\n            emit ZKPRes...\n      JUMP \t\t\t++) {\\n            emit ZKPRes...\n    tag 482\t\t\t++) {\\n            emit ZKPRes...\n      JUMPDEST \t\t\t++) {\\n            emit ZKPRes...\n      PUSH 20\t\t\t++) {\\n            emit ZKPRes...\n      PUSH 40\t\t\t++) {\\n            emit ZKPRes...\n      MLOAD \t\t\t++) {\\n            emit ZKPRes...\n      DUP1 \t\t\t++) {\\n            emit ZKPRes...\n      DUP4 \t\t\t++) {\\n            emit ZKPRes...\n      SUB \t\t\t++) {\\n            emit ZKPRes...\n      DUP2 \t\t\t++) {\\n            emit ZKPRes...\n      DUP7 \t\t\t++) {\\n            emit ZKPRes...\n      GAS \t\t\t++) {\\n            emit ZKPRes...\n      STATICCALL \t\t\t++) {\\n            emit ZKPRes...\n      ISZERO \t\t\t++) {\\n            emit ZKPRes...\n      DUP1 \t\t\t++) {\\n            emit ZKPRes...\n      ISZERO \t\t\t++) {\\n            emit ZKPRes...\n      PUSH [tag] 485\t\t\t++) {\\n            emit ZKPRes...\n      JUMPI \t\t\t++) {\\n            emit ZKPRes...\n      RETURNDATASIZE \t\t\t++) {\\n            emit ZKPRes...\n      PUSH 0\t\t\t++) {\\n            emit ZKPRes...\n      PUSH 0\t\t\t++) {\\n            emit ZKPRes...\n      RETURNDATACOPY \t\t\t++) {\\n            emit ZKPRes...\n      RETURNDATASIZE \t\t\t++) {\\n            emit ZKPRes...\n      PUSH 0\t\t\t++) {\\n            emit ZKPRes...\n      REVERT \t\t\t++) {\\n            emit ZKPRes...\n    tag 485\t\t\t++) {\\n            emit ZKPRes...\n      JUMPDEST \t\t\t++) {\\n            emit ZKPRes...\n      POP \t\t\t++) {\\n            emit ZKPRes...\n      POP \t\t\t++) {\\n            emit ZKPRes...\n      POP \t\t\t++) {\\n            emit ZKPRes...\n      POP \t\t\t++) {\\n            emit ZKPRes...\n      PUSH 40\t\t\t++) {\\n            emit ZKPRes...\n      MLOAD \t\t\t++) {\\n            emit ZKPRes...\n      RETURNDATASIZE \t\t\t++) {\\n            emit ZKPRes...\n      PUSH 1F\t\t\t++) {\\n            emit ZKPRes...\n      NOT \t\t\t++) {\\n            emit ZKPRes...\n      PUSH 1F\t\t\t++) {\\n            emit ZKPRes...\n      DUP3 \t\t\t++) {\\n            emit ZKPRes...\n      ADD \t\t\t++) {\\n            emit ZKPRes...\n      AND \t\t\t++) {\\n            emit ZKPRes...\n      DUP3 \t\t\t++) {\\n            emit ZKPRes...\n      ADD \t\t\t++) {\\n            emit ZKPRes...\n      DUP1 \t\t\t++) {\\n            emit ZKPRes...\n      PUSH 40\t\t\t++) {\\n            emit ZKPRes...\n      MSTORE \t\t\t++) {\\n            emit ZKPRes...\n      POP \t\t\t++) {\\n            emit ZKPRes...\n      DUP2 \t\t\t++) {\\n            emit ZKPRes...\n      ADD \t\t\t++) {\\n            emit ZKPRes...\n      SWAP1 \t\t\t++) {\\n            emit ZKPRes...\n      PUSH [tag] 486\t\t\t++) {\\n            emit ZKPRes...\n      SWAP2 \t\t\t++) {\\n            emit ZKPRes...\n      SWAP1 \t\t\t++) {\\n            emit ZKPRes...\n      PUSH [tag] 487\t\t\t++) {\\n            emit ZKPRes...\n      JUMP \t\t\t++) {\\n            emit ZKPRes...\n    tag 486\t\t\t++) {\\n            emit ZKPRes...\n      JUMPDEST \t\t\t++) {\\n            emit ZKPRes...\n      PUSH [tag] 488\t\t\t< responses.length; i++) {\\n  ...\n      JUMPI \t\t\t< responses.length; i++) {\\n  ...\n      PUSH 40\t\t\t< responses.length; i++) {\\n  ...\n      MLOAD \t\t\t< responses.length; i++) {\\n  ...\n      PUSH 8C379A000000000000000000000000000000000000000000000000000000000\t\t\t< responses.length; i++) {\\n  ...\n      DUP2 \t\t\t< responses.length; i++) {\\n  ...\n      MSTORE \t\t\t< responses.length; i++) {\\n  ...\n      PUSH 4\t\t\t< responses.length; i++) {\\n  ...\n      ADD \t\t\t< responses.length; i++) {\\n  ...\n      PUSH [tag] 489\t\t\t< responses.length; i++) {\\n  ...\n      SWAP1 \t\t\t< responses.length; i++) {\\n  ...\n      PUSH [tag] 490\t\t\t< responses.length; i++) {\\n  ...\n      JUMP \t\t\t< responses.length; i++) {\\n  ...\n    tag 489\t\t\t< responses.length; i++) {\\n  ...\n      JUMPDEST \t\t\t< responses.length; i++) {\\n  ...\n      PUSH 40\t\t\t< responses.length; i++) {\\n  ...\n      MLOAD \t\t\t< responses.length; i++) {\\n  ...\n      DUP1 \t\t\t< responses.length; i++) {\\n  ...\n      SWAP2 \t\t\t< responses.length; i++) {\\n  ...\n      SUB \t\t\t< responses.length; i++) {\\n  ...\n      SWAP1 \t\t\t< responses.length; i++) {\\n  ...\n      REVERT \t\t\t< responses.length; i++) {\\n  ...\n    tag 488\t\t\t< responses.length; i++) {\\n  ...\n      JUMPDEST \t\t\t< responses.length; i++) {\\n  ...\n      PUSH 1\t\t\t/ @p\n      PUSH [tag] 491\t\t\t status\\n    /// @param reques...\n      PUSH [tag] 359\t\t\t status\\n    /// @param reques\n      JUMP \t\t\t status\\n    /// @param reques...\n    tag 491\t\t\t status\\n    /// @param reques...\n      JUMPDEST \t\t\t status\\n    /// @param reques...\n      PUSH 0\t\t\t status\\n    /// @param reques...\n      ADD \t\t\t status\\n    /// @param reques...\n      PUSH 0\t\t\t status\\n    /// @param reques...\n      DUP4 \t\t\tequest\\n  \n      PUSH FFFFFFFFFFFFFFFFFFFFFFFFFFFFFFFFFFFFFFFF\t\t\t status\\n    /// @param reques...\n      AND \t\t\t status\\n    /// @param reques...\n      PUSH FFFFFFFFFFFFFFFFFFFFFFFFFFFFFFFFFFFFFFFF\t\t\t status\\n    /// @param reques...\n      AND \t\t\t status\\n    /// @param reques...\n      DUP2 \t\t\t status\\n    /// @param reques...\n      MSTORE \t\t\t status\\n    /// @param reques...\n      PUSH 20\t\t\t status\\n    /// @param reques...\n      ADD \t\t\t status\\n    /// @param reques...\n      SWAP1 \t\t\t status\\n    /// @param reques...\n      DUP2 \t\t\t status\\n    /// @param reques...\n      MSTORE \t\t\t status\\n    /// @param reques...\n      PUSH 20\t\t\t status\\n    /// @param reques...\n      ADD \t\t\t status\\n    /// @param reques...\n      PUSH 0\t\t\t status\\n    /// @param reques...\n      KECCAK256 \t\t\t status\\n    /// @param reques...\n      PUSH 0\t\t\t status\\n    /// @param reques...\n      PUSH 100\t\t\t status\\n    /// @param reques...\n      EXP \t\t\t status\\n    /// @param reques...\n      DUP2 \t\t\t status\\n    /// @param reques...\n      SLOAD \t\t\t status\\n    /// @param reques...\n      DUP2 \t\t\t status\\n    /// @param reques...\n      PUSH FF\t\t\t status\\n    /// @param reques...\n      MUL \t\t\t status\\n    /// @param reques...\n      NOT \t\t\t status\\n    /// @param reques...\n      AND \t\t\t status\\n    /// @param reques...\n      SWAP1 \t\t\t status\\n    /// @param reques...\n      DUP4 \t\t\t status\\n    /// @param reques...\n      ISZERO \t\t\t status\\n    /// @param reques...\n      ISZERO \t\t\t status\\n    /// @param reques...\n      MUL \t\t\t status\\n    /// @param reques...\n      OR \t\t\t status\\n    /// @param reques...\n      SWAP1 \t\t\t status\\n    /// @param reques...\n      SSTORE \t\t\t status\\n    /// @param reques...\n      POP \t\t\t status\\n    /// @param reques...\n      POP \t\t\ter.submitZKPResponseV2(respons...\n      JUMP \t\t\ter.submitZKPResponseV2(respons...\n    tag 266\t\t\t\";\\nimport {ValidatorWhitelist...\n      JUMPDEST \t\t\t\";\\nimport {ValidatorWhitelist...\n      PUSH 0\t\t\tces/ISt\n      PUSH 0\t\t\te.sol\";\n      PUSH 0\t\t\te\n      DUP5 \t\t\tal Ver\n      GT \t\t\tal Verifie\n      PUSH [tag] 493\t\t\t Universal Verifier Contract\\n...\n      JUMPI \t\t\t Universal Verifier Contract\\n...\n      PUSH 40\t\t\t Universal Verifier Contract\\n...\n      MLOAD \t\t\t Universal Verifier Contract\\n...\n      PUSH 8C379A000000000000000000000000000000000000000000000000000000000\t\t\t Universal Verifier Contract\\n...\n      DUP2 \t\t\t Universal Verifier Contract\\n...\n      MSTORE \t\t\t Universal Verifier Contract\\n...\n      PUSH 4\t\t\t Universal Verifier Contract\\n...\n      ADD \t\t\t Universal Verifier Contract\\n...\n      PUSH [tag] 494\t\t\t Universal Verifier Contract\\n...\n      SWAP1 \t\t\t Universal Verifier Contract\\n...\n      PUSH [tag] 495\t\t\t Universal Verifier Contract\\n...\n      JUMP \t\t\t Universal Verifier Contract\\n...\n    tag 494\t\t\t Universal Verifier Contract\\n...\n      JUMPDEST \t\t\t Universal Verifier Contract\\n...\n      PUSH 40\t\t\t Universal Verifier Contract\\n...\n      MLOAD \t\t\t Universal Verifier Contract\\n...\n      DUP1 \t\t\t Universal Verifier Contract\\n...\n      SWAP2 \t\t\t Universal Verifier Contract\\n...\n      SUB \t\t\t Universal Verifier Contract\\n...\n      SWAP1 \t\t\t Universal Verifier Contract\\n...\n      REVERT \t\t\t Universal Verifier Contract\\n...\n    tag 493\t\t\t Universal Verifier Contract\\n...\n      JUMPDEST \t\t\t Universal Verifier Contract\\n...\n      DUP3 \t\t\tProof\n      DUP5 \t\t\tKnowle\n      GT \t\t\tKnowledge Proof\n      ISZERO \t\t\tKnowledge Proof\n      PUSH [tag] 496\t\t\tP (Zero-Knowledge Proof) reque...\n      JUMPI \t\t\tP (Zero-Knowledge Proof) reque...\n      PUSH 40\t\t\tP (Zero-Knowledge Proof) reque...\n      MLOAD \t\t\tP (Zero-Knowledge Proof) reque...\n      PUSH 8C379A000000000000000000000000000000000000000000000000000000000\t\t\tP (Zero-Knowledge Proof) reque...\n      DUP2 \t\t\tP (Zero-Knowledge Proof) reque...\n      MSTORE \t\t\tP (Zero-Knowledge Proof) reque...\n      PUSH 4\t\t\tP (Zero-Knowledge Proof) reque...\n      ADD \t\t\tP (Zero-Knowledge Proof) reque...\n      PUSH [tag] 497\t\t\tP (Zero-Knowledge Proof) reque...\n      SWAP1 \t\t\tP (Zero-Knowledge Proof) reque...\n      PUSH [tag] 498\t\t\tP (Zero-Knowledge Proof) reque...\n      JUMP \t\t\tP (Zero-Knowledge Proof) reque...\n    tag 497\t\t\tP (Zero-Knowledge Proof) reque...\n      JUMPDEST \t\t\tP (Zero-Knowledge Proof) reque...\n      PUSH 40\t\t\tP (Zero-Knowledge Proof) reque...\n      MLOAD \t\t\tP (Zero-Knowledge Proof) reque...\n      DUP1 \t\t\tP (Zero-Knowledge Proof) reque...\n      SWAP2 \t\t\tP (Zero-Knowledge Proof) reque...\n      SUB \t\t\tP (Zero-Knowledge Proof) reque...\n      SWAP1 \t\t\tP (Zero-Knowledge Proof) reque...\n      REVERT \t\t\tP (Zero-Knowledge Proof) reque...\n    tag 496\t\t\tP (Zero-Knowledge Proof) reque...\n      JUMPDEST \t\t\tP (Zero-Knowledge Proof) reque...\n      DUP6 \t\t\t\\n    Owna\n      DUP6 \t\t\tifier\n      LT \t\t\tifier is\\n    Owna\n      PUSH [tag] 499\t\t\tersalVerifier is\\n    Ownable2...\n      JUMPI \t\t\tersalVerifier is\\n    Ownable2...\n      PUSH 40\t\t\tersalVerifier is\\n    Ownable2...\n      MLOAD \t\t\tersalVerifier is\\n    Ownable2...\n      PUSH 8C379A000000000000000000000000000000000000000000000000000000000\t\t\tersalVerifier is\\n    Ownable2...\n      DUP2 \t\t\tersalVerifier is\\n    Ownable2...\n      MSTORE \t\t\tersalVerifier is\\n    Ownable2...\n      PUSH 4\t\t\tersalVerifier is\\n    Ownable2...\n      ADD \t\t\tersalVerifier is\\n    Ownable2...\n      PUSH [tag] 500\t\t\tersalVerifier is\\n    Ownable2...\n      SWAP1 \t\t\tersalVerifier is\\n    Ownable2...\n      PUSH [tag] 501\t\t\tersalVerifier is\\n    Ownable2...\n      JUMP \t\t\tersalVerifier is\\n    Ownable2...\n    tag 500\t\t\tersalVerifier is\\n    Ownable2...\n      JUMPDEST \t\t\tersalVerifier is\\n    Ownable2...\n      PUSH 40\t\t\tersalVerifier is\\n    Ownable2...\n      MLOAD \t\t\tersalVerifier is\\n    Ownable2...\n      DUP1 \t\t\tersalVerifier is\\n    Ownable2...\n      SWAP2 \t\t\tersalVerifier is\\n    Ownable2...\n      SUB \t\t\tersalVerifier is\\n    Ownable2...\n      SWAP1 \t\t\tersalVerifier is\\n    Ownable2...\n      REVERT \t\t\tersalVerifier is\\n    Ownable2...\n    tag 499\t\t\tersalVerifier is\\n    Ownable2...\n      JUMPDEST \t\t\tersalVerifier is\\n    Ownable2...\n      PUSH 0\t\t\t,\\n    Reque\n      DUP5 \t\t\tle,\\n  \n      DUP7 \t\t\tisabl\n      PUSH [tag] 502\t\t\tisableable,\\n  \n      SWAP2 \t\t\tisableable,\\n  \n      SWAP1 \t\t\tisableable,\\n  \n      PUSH [tag] 503\t\t\tisableable,\\n  \n      JUMP \t\t\tisableable,\\n  \n    tag 502\t\t\tisableable,\\n  \n      JUMPDEST \t\t\tisableable,\\n  \n      SWAP1 \t\t\t,\\n    RequestDisableable,\\n  \n      POP \t\t\t,\\n    RequestDisableable,\\n  \n      DUP7 \t\t\t\\n{\\n    /*\n      DUP2 \t\t\ttel\n      GT \t\t\ttelist\\n{\\n    /*\n      ISZERO \t\t\trWhitelist\\n{\\n    /**\\n     *...\n      PUSH [tag] 504\t\t\trWhitelist\\n{\\n    /**\\n     *...\n      JUMPI \t\t\trWhitelist\\n{\\n    /**\\n     *...\n      DUP7 \t\t\tof contra\n      SWAP1 \t\t\trsion of contra\n      POP \t\t\trsion of contra\n    tag 504\t\t\trWhitelist\\n{\\n    /**\\n     *...\n      JUMPDEST \t\t\trWhitelist\\n{\\n    /**\\n     *...\n      DUP6 \t\t\tconst\n      DUP2 \t\t\tt V\n      SWAP3 \t\t\t public constant VE\n      POP \t\t\t public constant VE\n      SWAP3 \t\t\t public constant VE\n      POP \t\t\t public constant VE\n      POP \t\t\t public constant VE\n      SWAP5 \t\t\t\";\\nimport {ValidatorWhitelist...\n      POP \t\t\t\";\\nimport {ValidatorWhitelist...\n      SWAP5 \t\t\t\";\\nimport {ValidatorWhitelist...\n      SWAP3 \t\t\t\";\\nimport {ValidatorWhitelist...\n      POP \t\t\t\";\\nimport {ValidatorWhitelist...\n      POP \t\t\t\";\\nimport {ValidatorWhitelist...\n      POP \t\t\t\";\\nimport {ValidatorWhitelist...\n      JUMP \t\t\t\";\\nimport {ValidatorWhitelist...\n    tag 300\t\t\the public inputs for the proof...\n      JUMPDEST \t\t\the public inputs for the proof...\n      PUSH 0\t\t\t thir\n      PUSH [tag] 506\t\t\t/ @param b The second componen...\n      PUSH [tag] 359\t\t\t/ @param b The second compone\n      JUMP \t\t\t/ @param b The second componen...\n    tag 506\t\t\t/ @param b The second componen...\n      JUMPDEST \t\t\t/ @param b The second componen...\n      PUSH 0\t\t\t/ @param b The second componen...\n      ADD \t\t\t/ @param b The second componen...\n      PUSH 0\t\t\t/ @param b The second componen...\n      DUP4 \t\t\t @param c\n      PUSH FFFFFFFFFFFFFFFFFFFFFFFFFFFFFFFFFFFFFFFF\t\t\t/ @param b The second componen...\n      AND \t\t\t/ @param b The second componen...\n      PUSH FFFFFFFFFFFFFFFFFFFFFFFFFFFFFFFFFFFFFFFF\t\t\t/ @param b The second componen...\n      AND \t\t\t/ @param b The second componen...\n      DUP2 \t\t\t/ @param b The second componen...\n      MSTORE \t\t\t/ @param b The second componen...\n      PUSH 20\t\t\t/ @param b The second componen...\n      ADD \t\t\t/ @param b The second componen...\n      SWAP1 \t\t\t/ @param b The second componen...\n      DUP2 \t\t\t/ @param b The second componen...\n      MSTORE \t\t\t/ @param b The second componen...\n      PUSH 20\t\t\t/ @param b The second componen...\n      ADD \t\t\t/ @param b The second componen...\n      PUSH 0\t\t\t/ @param b The second componen...\n      KECCAK256 \t\t\t/ @param b The second componen...\n      PUSH 0\t\t\t/ @param b The second componen...\n      PUSH 100\t\t\t/ @param b The second componen...\n      EXP \t\t\t/ @param b The second componen...\n      DUP2 \t\t\t/ @param b The second componen...\n      SLOAD \t\t\t/ @param b The second componen...\n      DUP2 \t\t\t/ @param b The second componen...\n      PUSH FF\t\t\t/ @param b The second componen...\n      MUL \t\t\t/ @param b The second componen...\n      NOT \t\t\t/ @param b The second componen...\n      AND \t\t\t/ @param b The second componen...\n      SWAP1 \t\t\t/ @param b The second componen...\n      DUP4 \t\t\t/ @param b The second componen...\n      ISZERO \t\t\t/ @param b The second componen...\n      ISZERO \t\t\t/ @param b The second componen...\n      MUL \t\t\t/ @param b The second componen...\n      OR \t\t\t/ @param b The second componen...\n      SWAP1 \t\t\t/ @param b The second componen...\n      SSTORE \t\t\t/ @param b The second componen...\n      POP \t\t\t/ @param b The second componen...\n      POP \t\t\the public inputs for the proof...\n      JUMP \t\t\the public inputs for the proof...\n    tag 314\t\t\troof) requests and proofs.\\nco...\n      JUMPDEST \t\t\troof) requests and proofs.\\nco...\n      PUSH 0\t\t\t\\n    RequestOwnership,\\n    R...\n      PUSH 6209BDC3799F5201408F7A7D4D471BB2A0100353E618451674B93F730B006A00\t\t\t   * @dev Version of contract\\...\n      SWAP1 \t\t\t    /**\\n     * @dev Version o...\n      POP \t\t\t    /**\\n     * @dev Version o...\n      SWAP1 \t\t\troof) requests and proofs.\\nco...\n      JUMP \t\t\troof) requests and proofs.\\nco...\n    tag 319\t\t\t     uint256[2][2] memory b,\\n...\n      JUMPDEST \t\t\t     uint256[2][2] memory b,\\n...\n      PUSH 0\t\t\tuestDisableable, ValidatorWhi\n      PUSH [tag] 509\t\t\tist, ZKPVerifierBase) {\\n \n      PUSH [tag] 433\t\t\tist, ZKPVerifierBase) {\n      JUMP \t\t\tist, ZKPVerifierBase) {\\n \n    tag 509\t\t\tist, ZKPVerifierBase) {\\n \n      JUMPDEST \t\t\tist, ZKPVerifierBase) {\\n \n      SWAP1 \t\t\tuestDisableable, ValidatorWhit...\n      POP \t\t\tuestDisableable, ValidatorWhit...\n      DUP1 \t\t\ti\n      PUSH 0\t\t\titZKPResponse(r\n      ADD \t\t\titZKPResponse(r\n      PUSH 0\t\t\titZKPResponse(r\n      PUSH 100\t\t\ter.submitZKPResponse(r\n      EXP \t\t\ter.submitZKPResponse(r\n      DUP2 \t\t\ter.submitZKPResponse(r\n      SLOAD \t\t\ter.submitZKPResponse(r\n      SWAP1 \t\t\ter.submitZKPResponse(r\n      PUSH FFFFFFFFFFFFFFFFFFFFFFFFFFFFFFFFFFFFFFFF\t\t\ter.submitZKPResponse(r\n      MUL \t\t\ter.submitZKPResponse(r\n      NOT \t\t\ter.submitZKPResponse(r\n      AND \t\t\ter.submitZKPResponse(r\n      SWAP1 \t\t\ter.submitZKPResponse(r\n      SSTORE \t\t\ter.submitZKPResponse(r\n      PUSH [tag] 510\t\t\tinputs, a, b, c);\\n        emi...\n      DUP3 \t\t\t emit ZK\n      PUSH [tag] 511\t\t\tinputs, a, b, c);\\n      \n      JUMP \t\t\tinputs, a, b, c);\\n        emi...\n    tag 510\t\t\tinputs, a, b, c);\\n        emi...\n      JUMPDEST \t\t\tinputs, a, b, c);\\n        emi...\n      POP \t\t\terride(RequestDisableable, Val...\n      POP \t\t\t     uint256[2][2] memory b,\\n...\n      JUMP \t\t\t     uint256[2][2] memory b,\\n...\n    tag 335\t\t\t    uint256[2] memory a,\\n    ...\n      JUMPDEST \t\t\t    uint256[2] memory a,\\n    ...\n      DUP1 \t\t\temory c\\n \n      PUSH 1\t\t\t ) p\n      DUP1 \t\t\t         \n      ISZERO \t\t\tta,\\n            address(reque...\n      PUSH [tag] 513\t\t\tta,\\n            address(reque...\n      JUMPI \t\t\tta,\\n            address(reque...\n      PUSH [tag] 514\t\t\tator),\\n            request\n      DUP3 \t\t\t   reques\n      PUSH [tag] 130\t\t\tator),\\n        \n      JUMP \t\t\tator),\\n            request\n    tag 514\t\t\tator),\\n            request\n      JUMPDEST \t\t\tator),\\n            request\n      PUSH [tag] 515\t\t\tst.validator),\\n            re...\n      JUMPI \t\t\tst.validator),\\n            re...\n      PUSH 40\t\t\tst.validator),\\n            re...\n      MLOAD \t\t\tst.validator),\\n            re...\n      PUSH 8C379A000000000000000000000000000000000000000000000000000000000\t\t\tst.validator),\\n            re...\n      DUP2 \t\t\tst.validator),\\n            re...\n      MSTORE \t\t\tst.validator),\\n            re...\n      PUSH 4\t\t\tst.validator),\\n            re...\n      ADD \t\t\tst.validator),\\n            re...\n      PUSH [tag] 516\t\t\tst.validator),\\n            re...\n      SWAP1 \t\t\tst.validator),\\n            re...\n      PUSH [tag] 197\t\t\tst.validator),\\n            re...\n      JUMP \t\t\tst.validator),\\n            re...\n    tag 516\t\t\tst.validator),\\n            re...\n      JUMPDEST \t\t\tst.validator),\\n            re...\n      PUSH 40\t\t\tst.validator),\\n            re...\n      MLOAD \t\t\tst.validator),\\n            re...\n      DUP1 \t\t\tst.validator),\\n            re...\n      SWAP2 \t\t\tst.validator),\\n            re...\n      SUB \t\t\tst.validator),\\n            re...\n      SWAP1 \t\t\tst.validator),\\n            re...\n      REVERT \t\t\tst.validator),\\n            re...\n    tag 515\t\t\tst.validator),\\n            re...\n      JUMPDEST \t\t\tst.validator),\\n            re...\n      PUSH [tag] 517\t\t\tta,\\n            address(reque...\n      JUMP \t\t\tta,\\n            address(reque...\n    tag 513\t\t\tta,\\n            address(reque...\n      JUMPDEST \t\t\tta,\\n            address(reque...\n      PUSH [tag] 518\t\t\tes proof status\\n    /// @p\n      DUP3 \t\t\t    /// @\n      PUSH [tag] 130\t\t\tes proof status\n      JUMP \t\t\tes proof status\\n    /// @p\n    tag 518\t\t\tes proof status\\n    /// @p\n      JUMPDEST \t\t\tes proof status\\n    /// @p\n      ISZERO \t\t\ttes proof status\\n    /// @p\n      PUSH [tag] 519\t\t\tand updates proof status\\n    ...\n      JUMPI \t\t\tand updates proof status\\n    ...\n      PUSH 40\t\t\tand updates proof status\\n    ...\n      MLOAD \t\t\tand updates proof status\\n    ...\n      PUSH 8C379A000000000000000000000000000000000000000000000000000000000\t\t\tand updates proof status\\n    ...\n      DUP2 \t\t\tand updates proof status\\n    ...\n      MSTORE \t\t\tand updates proof status\\n    ...\n      PUSH 4\t\t\tand updates proof status\\n    ...\n      ADD \t\t\tand updates proof status\\n    ...\n      PUSH [tag] 520\t\t\tand updates proof status\\n    ...\n      SWAP1 \t\t\tand updates proof status\\n    ...\n      PUSH [tag] 202\t\t\tand updates proof status\\n    ...\n      JUMP \t\t\tand updates proof status\\n    ...\n    tag 520\t\t\tand updates proof status\\n    ...\n      JUMPDEST \t\t\tand updates proof status\\n    ...\n      PUSH 40\t\t\tand updates proof status\\n    ...\n      MLOAD \t\t\tand updates proof status\\n    ...\n      DUP1 \t\t\tand updates proof status\\n    ...\n      SWAP2 \t\t\tand updates proof status\\n    ...\n      SUB \t\t\tand updates proof status\\n    ...\n      SWAP1 \t\t\tand updates proof status\\n    ...\n      REVERT \t\t\tand updates proof status\\n    ...\n    tag 519\t\t\tand updates proof status\\n    ...\n      JUMPDEST \t\t\tand updates proof status\\n    ...\n    tag 517\t\t\tta,\\n            address(reque...\n      JUMPDEST \t\t\tta,\\n            address(reque...\n      PUSH 1\t\t\t {\\n \n      PUSH [tag] 522\t\t\tde(RequestDisableable, Vali\n      PUSH [tag] 205\t\t\tde(RequestDisableable, Va\n      JUMP \t\t\tde(RequestDisableable, Vali\n    tag 522\t\t\tde(RequestDisableable, Vali\n      JUMPDEST \t\t\tde(RequestDisableable, Vali\n      PUSH 0\t\t\tde(RequestDisableable, Validat...\n      ADD \t\t\tde(RequestDisableable, Validat...\n      PUSH 0\t\t\tde(RequestDisableable, Validat...\n      DUP6 \t\t\tVerifierB\n      PUSH FFFFFFFFFFFFFFFF\t\t\tde(RequestDisableable, Validat...\n      AND \t\t\tde(RequestDisableable, Validat...\n      PUSH FFFFFFFFFFFFFFFF\t\t\tde(RequestDisableable, Validat...\n      AND \t\t\tde(RequestDisableable, Validat...\n      DUP2 \t\t\tde(RequestDisableable, Validat...\n      MSTORE \t\t\tde(RequestDisableable, Validat...\n      PUSH 20\t\t\tde(RequestDisableable, Validat...\n      ADD \t\t\tde(RequestDisableable, Validat...\n      SWAP1 \t\t\tde(RequestDisableable, Validat...\n      DUP2 \t\t\tde(RequestDisableable, Validat...\n      MSTORE \t\t\tde(RequestDisableable, Validat...\n      PUSH 20\t\t\tde(RequestDisableable, Validat...\n      ADD \t\t\tde(RequestDisableable, Validat...\n      PUSH 0\t\t\tde(RequestDisableable, Validat...\n      KECCAK256 \t\t\tde(RequestDisableable, Validat...\n      PUSH 0\t\t\tde(RequestDisableable, Validat...\n      PUSH 100\t\t\tde(RequestDisableable, Validat...\n      EXP \t\t\tde(RequestDisableable, Validat...\n      DUP2 \t\t\tde(RequestDisableable, Validat...\n      SLOAD \t\t\tde(RequestDisableable, Validat...\n      DUP2 \t\t\tde(RequestDisableable, Validat...\n      PUSH FF\t\t\tde(RequestDisableable, Validat...\n      MUL \t\t\tde(RequestDisableable, Validat...\n      NOT \t\t\tde(RequestDisableable, Validat...\n      AND \t\t\tde(RequestDisableable, Validat...\n      SWAP1 \t\t\tde(RequestDisableable, Validat...\n      DUP4 \t\t\tde(RequestDisableable, Validat...\n      ISZERO \t\t\tde(RequestDisableable, Validat...\n      ISZERO \t\t\tde(RequestDisableable, Validat...\n      MUL \t\t\tde(RequestDisableable, Validat...\n      OR \t\t\tde(RequestDisableable, Validat...\n      SWAP1 \t\t\tde(RequestDisableable, Validat...\n      SSTORE \t\t\tde(RequestDisableable, Validat...\n      POP \t\t\tde(RequestDisableable, Validat...\n      POP \t\t\t    uint256[2] memory a,\\n    ...\n      POP \t\t\t    uint256[2] memory a,\\n    ...\n      POP \t\t\t    uint256[2] memory a,\\n    ...\n      JUMP \t\t\t    uint256[2] memory a,\\n    ...\n    tag 356\t\t\t  address indexed requestOwner...\n      JUMPDEST \t\t\t  address indexed requestOwner...\n      PUSH 0\t\t\tata,\\n        address val\n      PUSH 9016D09D72D40FDAE2FD8CEAC6B6234C7706214FD39C1CD1E609A0528C199300\t\t\tev Modifier to check i\n      SWAP1 \t\t\t    /// @dev Modifier to check...\n      POP \t\t\t    /// @dev Modifier to check...\n      SWAP1 \t\t\t  address indexed requestOwner...\n      JUMP \t\t\t  address indexed requestOwner...\n    tag 359\t\t\t\\n{\\n    /**\\n     * @dev Vers...\n      JUMPDEST \t\t\t\\n{\\n    /**\\n     * @dev Vers...\n      PUSH 0\t\t\t \"1.1.1\";\\n\\n    /// @dev Even...\n      PUSH 76AA24E3538905838CC74060B2AA4C054B1E474AACF44741879E1850715E9300\t\t\tponseSubmitted(uint64 indexed ...\n      SWAP1 \t\t\tent ZKPResponseSubmitted(uint6...\n      POP \t\t\tent ZKPResponseSubmitted(uint6...\n      SWAP1 \t\t\t\\n{\\n    /**\\n     * @dev Vers...\n      JUMP \t\t\t\\n{\\n    /**\\n     * @dev Vers...\n    tag 362\t\t\twner(uint64 requestId) {\\n    ...\n      JUMPDEST \t\t\twner(uint64 requestId) {\\n    ...\n      DUP1 \t\t\t       \n      PUSH 20\t\t\t          \"Not an\n      ADD \t\t\t          \"Not an\n      PUSH 20\t\t\t          \"Not an\n      DUP2 \t\t\t          \"Not an\n      ADD \t\t\t          \"Not an\n      SWAP1 \t\t\t          \"Not an\n      PUSH [tag] 525\t\t\t          \"Not an\n      SWAP2 \t\t\t          \"Not an\n      SWAP1 \t\t\t          \"Not an\n      PUSH [tag] 87\t\t\t          \"Not an\n      JUMP \t\t\t          \"Not an\n    tag 525\t\t\t          \"Not an\n      JUMPDEST \t\t\t          \"Not an\n      PUSH [tag] 527\t\t\txed requestOwner,\\n        str...\n      DUP2 \t\t\t   string\n      PUSH [tag] 122\t\t\txed requestOwner,\\n    \n      JUMP \t\t\txed requestOwner,\\n        str...\n    tag 527\t\t\txed requestOwner,\\n        str...\n      JUMPDEST \t\t\txed requestOwner,\\n        str...\n      PUSH [tag] 528\t\t\tess indexed requestOwner,\\n   ...\n      JUMPI \t\t\tess indexed requestOwner,\\n   ...\n      PUSH 40\t\t\tess indexed requestOwner,\\n   ...\n      MLOAD \t\t\tess indexed requestOwner,\\n   ...\n      PUSH 8C379A000000000000000000000000000000000000000000000000000000000\t\t\tess indexed requestOwner,\\n   ...\n      DUP2 \t\t\tess indexed requestOwner,\\n   ...\n      MSTORE \t\t\tess indexed requestOwner,\\n   ...\n      PUSH 4\t\t\tess indexed requestOwner,\\n   ...\n      ADD \t\t\tess indexed requestOwner,\\n   ...\n      PUSH [tag] 529\t\t\tess indexed requestOwner,\\n   ...\n      SWAP1 \t\t\tess indexed requestOwner,\\n   ...\n      PUSH [tag] 478\t\t\tess indexed requestOwner,\\n   ...\n      JUMP \t\t\tess indexed requestOwner,\\n   ...\n    tag 529\t\t\tess indexed requestOwner,\\n   ...\n      JUMPDEST \t\t\tess indexed requestOwner,\\n   ...\n      PUSH 40\t\t\tess indexed requestOwner,\\n   ...\n      MLOAD \t\t\tess indexed requestOwner,\\n   ...\n      DUP1 \t\t\tess indexed requestOwner,\\n   ...\n      SWAP2 \t\t\tess indexed requestOwner,\\n   ...\n      SUB \t\t\tess indexed requestOwner,\\n   ...\n      SWAP1 \t\t\tess indexed requestOwner,\\n   ...\n      REVERT \t\t\tess indexed requestOwner,\\n   ...\n    tag 528\t\t\tess indexed requestOwner,\\n   ...\n      JUMPDEST \t\t\tess indexed requestOwner,\\n   ...\n      PUSH [tag] 531\t\t\tquest owner\"\\n        );\\n    ...\n      DUP4 \t\t\t );\\n     \n      DUP4 \t\t\t _;\\n   \n      PUSH [tag] 532\t\t\tquest owner\"\\n      \n      JUMP \t\t\tquest owner\"\\n        );\\n    ...\n    tag 531\t\t\tquest owner\"\\n        );\\n    ...\n      JUMPDEST \t\t\tquest owner\"\\n        );\\n    ...\n      POP \t\t\twner(uint64 requestId) {\\n    ...\n      POP \t\t\twner(uint64 requestId) {\\n    ...\n      POP \t\t\twner(uint64 requestId) {\\n    ...\n      JUMP \t\t\twner(uint64 requestId) {\\n    ...\n    tag 375\t\t\temory inputs,\\n        uint256...\n      JUMPDEST \t\t\temory inputs,\\n        uint256...\n      PUSH 0\t\t\t    override(RequestDisablea\n      PUSH [tag] 534\t\t\t, ValidatorWhitelist, ZK\n      PUSH [tag] 220\t\t\t, ValidatorWhitelist, \n      JUMP \t\t\t, ValidatorWhitelist, ZK\n    tag 534\t\t\t, ValidatorWhitelist, ZK\n      JUMPDEST \t\t\t, ValidatorWhitelist, ZK\n      SWAP1 \t\t\t    override(RequestDisableabl...\n      POP \t\t\t    override(RequestDisableabl...\n      DUP1 \t\t\ts\n      PUSH 3\t\t\tse)\\n    \n      ADD \t\t\tse)\\n    \n      PUSH 0\t\t\tse)\\n    \n      SWAP1 \t\t\tse)\\n    \n      SLOAD \t\t\tse)\\n    \n      SWAP1 \t\t\tse)\\n    \n      PUSH 100\t\t\tse)\\n    \n      EXP \t\t\tse)\\n    \n      SWAP1 \t\t\tse)\\n    \n      DIV \t\t\tse)\\n    \n      PUSH FFFFFFFFFFFFFFFFFFFFFFFFFFFFFFFFFFFFFFFF\t\t\tse)\\n    \n      AND \t\t\tse)\\n    \n      PUSH FFFFFFFFFFFFFFFFFFFFFFFFFFFFFFFFFFFFFFFF\t\t\tse)\\n        returns (ICircuit...\n      AND \t\t\tse)\\n        returns (ICircuit...\n      PUSH E28D24B0\t\t\tse)\\n        returns (ICircuit...\n      DUP4 \t\t\tdator.KeyToInput\n      PUSH 40\t\t\tse)\\n        returns (ICircuit...\n      MLOAD \t\t\tse)\\n        returns (ICircuit...\n      DUP3 \t\t\tse)\\n        returns (ICircuit...\n      PUSH FFFFFFFF\t\t\tse)\\n        returns (ICircuit...\n      AND \t\t\tse)\\n        returns (ICircuit...\n      PUSH E0\t\t\tse)\\n        returns (ICircuit...\n      SHL \t\t\tse)\\n        returns (ICircuit...\n      DUP2 \t\t\tse)\\n        returns (ICircuit...\n      MSTORE \t\t\tse)\\n        returns (ICircuit...\n      PUSH 4\t\t\tse)\\n        returns (ICircuit...\n      ADD \t\t\tse)\\n        returns (ICircuit...\n      PUSH [tag] 535\t\t\tse)\\n        returns (ICircuit...\n      SWAP2 \t\t\tse)\\n        returns (ICircuit...\n      SWAP1 \t\t\tse)\\n        returns (ICircuit...\n      PUSH [tag] 536\t\t\tse)\\n        returns (ICircuit...\n      JUMP \t\t\tse)\\n        returns (ICircuit...\n    tag 535\t\t\tse)\\n        returns (ICircuit...\n      JUMPDEST \t\t\tse)\\n        returns (ICircuit...\n      PUSH 0\t\t\tse)\\n        returns (ICircuit...\n      PUSH 40\t\t\tse)\\n        returns (ICircuit...\n      MLOAD \t\t\tse)\\n        returns (ICircuit...\n      DUP1 \t\t\tse)\\n        returns (ICircuit...\n      DUP4 \t\t\tse)\\n        returns (ICircuit...\n      SUB \t\t\tse)\\n        returns (ICircuit...\n      DUP2 \t\t\tse)\\n        returns (ICircuit...\n      PUSH 0\t\t\tse)\\n        returns (ICircuit...\n      DUP8 \t\t\tse)\\n        returns (ICircuit...\n      DUP1 \t\t\tse)\\n        returns (ICircuit...\n      EXTCODESIZE \t\t\tse)\\n        returns (ICircuit...\n      ISZERO \t\t\tse)\\n        returns (ICircuit...\n      DUP1 \t\t\tse)\\n        returns (ICircuit...\n      ISZERO \t\t\tse)\\n        returns (ICircuit...\n      PUSH [tag] 537\t\t\tse)\\n        returns (ICircuit...\n      JUMPI \t\t\tse)\\n        returns (ICircuit...\n      PUSH 0\t\t\tse)\\n        returns (ICircuit...\n      PUSH 0\t\t\tse)\\n        returns (ICircuit...\n      REVERT \t\t\tse)\\n        returns (ICircuit...\n    tag 537\t\t\tse)\\n        returns (ICircuit...\n      JUMPDEST \t\t\tse)\\n        returns (ICircuit...\n      POP \t\t\tse)\\n        returns (ICircuit...\n      GAS \t\t\tse)\\n        returns (ICircuit...\n      CALL \t\t\tse)\\n        returns (ICircuit...\n      ISZERO \t\t\tse)\\n        returns (ICircuit...\n      DUP1 \t\t\tse)\\n        returns (ICircuit...\n      ISZERO \t\t\tse)\\n        returns (ICircuit...\n      PUSH [tag] 539\t\t\tse)\\n        returns (ICircuit...\n      JUMPI \t\t\tse)\\n        returns (ICircuit...\n      RETURNDATASIZE \t\t\tse)\\n        returns (ICircuit...\n      PUSH 0\t\t\tse)\\n        returns (ICircuit...\n      PUSH 0\t\t\tse)\\n        returns (ICircuit...\n      RETURNDATACOPY \t\t\tse)\\n        returns (ICircuit...\n      RETURNDATASIZE \t\t\tse)\\n        returns (ICircuit...\n      PUSH 0\t\t\tse)\\n        returns (ICircuit...\n      REVERT \t\t\tse)\\n        returns (ICircuit...\n    tag 539\t\t\tse)\\n        returns (ICircuit...\n      JUMPDEST \t\t\tse)\\n        returns (ICircuit...\n      POP \t\t\tse)\\n        returns (ICircuit...\n      POP \t\t\tse)\\n        returns (ICircuit...\n      POP \t\t\tse)\\n        returns (ICircuit...\n      POP \t\t\tse)\\n        returns (ICircuit...\n      PUSH 0\t\t\t   {\\n    \n      PUSH 0\t\t\t \n      SWAP1 \t\t\t   {\\n        \n      POP \t\t\t   {\\n        \n    tag 540\t\t\try)\\n    {\\n        return sup...\n      JUMPDEST \t\t\try)\\n    {\\n        return sup...\n      DUP4 \t\t\t super.ve\n      MLOAD \t\t\t super.verifyZKP\n      DUP2 \t\t\tt\n      LT \t\t\tturn super.verifyZKP\n      ISZERO \t\t\try)\\n    {\\n        return sup...\n      PUSH [tag] 541\t\t\try)\\n    {\\n        return sup...\n      JUMPI \t\t\try)\\n    {\\n        return sup...\n      PUSH 0\t\t\tnputs, a, b, c, sender);\\n    ...\n      DUP5 \t\t\t  * @dev \n      DUP3 \t\t\te\n      DUP2 \t\t\t  * @dev Set\n      MLOAD \t\t\t  * @dev Set\n      DUP2 \t\t\t  * @dev Set\n      LT \t\t\t  * @dev Set\n      PUSH [tag] 543\t\t\t  * @dev Set\n      JUMPI \t\t\t  * @dev Set\n      PUSH [tag] 544\t\t\t  * @dev Set\n      PUSH [tag] 171\t\t\t  * @dev Set\n      JUMP \t\t\t  * @dev Set\n    tag 544\t\t\t  * @dev Set\n      JUMPDEST \t\t\t  * @dev Set\n    tag 543\t\t\t  * @dev Set\n      JUMPDEST \t\t\t  * @dev Set\n      PUSH 20\t\t\t  * @dev Set\n      MUL \t\t\t  * @dev Set\n      PUSH 20\t\t\t  * @dev Set\n      ADD \t\t\t  * @dev Set\n      ADD \t\t\t  * @dev Set\n      MLOAD \t\t\t  * @dev Set\n      SWAP1 \t\t\tnputs, a, b, c, sender);\\n    ...\n      POP \t\t\tnputs, a, b, c, sender);\\n    ...\n      PUSH 0\t\t\ttract address\\n\n      PUSH [tag] 545\t\t\t  */\\n    fun\n      PUSH [tag] 208\t\t\t  */\\n    f\n      JUMP \t\t\t  */\\n    fun\n    tag 545\t\t\t  */\\n    fun\n      JUMPDEST \t\t\t  */\\n    fun\n      SWAP1 \t\t\ttract address\\n     */\\n    fu...\n      POP \t\t\ttract address\\n     */\\n    fu...\n      PUSH 0\t\t\tdev Sets ZKP Request Owner add...\n      PUSH [tag] 546\t\t\t/ @param requestId The ID of t...\n      DUP4 \t\t\tstId The\n      PUSH 0\t\t\tstId The ID of the\n      ADD \t\t\tstId The ID of the\n      MLOAD \t\t\tstId The ID of the\n      PUSH [tag] 142\t\t\t/ @param requ\n      JUMP \t\t\t/ @param requestId The ID of t...\n    tag 546\t\t\t/ @param requestId The ID of t...\n      JUMPDEST \t\t\t/ @param requestId The ID of t...\n      SWAP1 \t\t\tdev Sets ZKP Request Owner add...\n      POP \t\t\tdev Sets ZKP Request Owner add...\n      PUSH 0\t\t\t  /// @param requestOwner ZKP ...\n      DUP2 \t\t\taddress\n      PUSH 20\t\t\taddress\\n    funct\n      ADD \t\t\taddress\\n    funct\n      MLOAD \t\t\taddress\\n    funct\n      PUSH FFFFFFFFFFFFFFFFFFFFFFFFFFFFFFFFFFFFFFFF\t\t\taddress\\n    function setRe\n      AND \t\t\taddress\\n    function setRe\n      PUSH D6614A6B\t\t\taddress\\n    function setRe\n      DUP6 \t\t\t  uint64\n      PUSH 20\t\t\t  uint64 request\n      ADD \t\t\t  uint64 request\n      MLOAD \t\t\t  uint64 request\n      DUP5 \t\t\ts reque\n      PUSH 40\t\t\ts requestOwn\n      ADD \t\t\ts requestOwn\n      MLOAD \t\t\ts requestOwn\n      DUP7 \t\t\tlyOwne\n      DUP11 \t\t\tq\n      PUSH 3\t\t\tquestId)\n      ADD \t\t\tquestId)\n      PUSH 0\t\t\tquestId)\n      SWAP1 \t\t\tquestId)\n      SLOAD \t\t\tquestId)\n      SWAP1 \t\t\tquestId)\n      PUSH 100\t\t\tquestId)\n      EXP \t\t\tquestId)\n      SWAP1 \t\t\tquestId)\n      DIV \t\t\tquestId)\n      PUSH FFFFFFFFFFFFFFFFFFFFFFFFFFFFFFFFFFFFFFFF\t\t\tquestId)\n      AND \t\t\tquestId)\n      PUSH 40\t\t\taddress\\n    function setReque...\n      MLOAD \t\t\taddress\\n    function setReque...\n      DUP6 \t\t\taddress\\n    function setReque...\n      PUSH FFFFFFFF\t\t\taddress\\n    function setReque...\n      AND \t\t\taddress\\n    function setReque...\n      PUSH E0\t\t\taddress\\n    function setReque...\n      SHL \t\t\taddress\\n    function setReque...\n      DUP2 \t\t\taddress\\n    function setReque...\n      MSTORE \t\t\taddress\\n    function setReque...\n      PUSH 4\t\t\taddress\\n    function setReque...\n      ADD \t\t\taddress\\n    function setReque...\n      PUSH [tag] 547\t\t\taddress\\n    function setReque...\n      SWAP5 \t\t\taddress\\n    function setReque...\n      SWAP4 \t\t\taddress\\n    function setReque...\n      SWAP3 \t\t\taddress\\n    function setReque...\n      SWAP2 \t\t\taddress\\n    function setReque...\n      SWAP1 \t\t\taddress\\n    function setReque...\n      PUSH [tag] 548\t\t\taddress\\n    function setReque...\n      JUMP \t\t\taddress\\n    function setReque...\n    tag 547\t\t\taddress\\n    function setReque...\n      JUMPDEST \t\t\taddress\\n    function setReque...\n      PUSH 0\t\t\taddress\\n    function setReque...\n      PUSH 40\t\t\taddress\\n    function setReque...\n      MLOAD \t\t\taddress\\n    function setReque...\n      DUP1 \t\t\taddress\\n    function setReque...\n      DUP4 \t\t\taddress\\n    function setReque...\n      SUB \t\t\taddress\\n    function setReque...\n      DUP2 \t\t\taddress\\n    function setReque...\n      PUSH 0\t\t\taddress\\n    function setReque...\n      DUP8 \t\t\taddress\\n    function setReque...\n      GAS \t\t\taddress\\n    function setReque...\n      CALL \t\t\taddress\\n    function setReque...\n      ISZERO \t\t\taddress\\n    function setReque...\n      DUP1 \t\t\taddress\\n    function setReque...\n      ISZERO \t\t\taddress\\n    function setReque...\n      PUSH [tag] 550\t\t\taddress\\n    function setReque...\n      JUMPI \t\t\taddress\\n    function setReque...\n      RETURNDATASIZE \t\t\taddress\\n    function setReque...\n      PUSH 0\t\t\taddress\\n    function setReque...\n      PUSH 0\t\t\taddress\\n    function setReque...\n      RETURNDATACOPY \t\t\taddress\\n    function setReque...\n      RETURNDATASIZE \t\t\taddress\\n    function setReque...\n      PUSH 0\t\t\taddress\\n    function setReque...\n      REVERT \t\t\taddress\\n    function setReque...\n    tag 550\t\t\taddress\\n    function setReque...\n      JUMPDEST \t\t\taddress\\n    function setReque...\n      POP \t\t\taddress\\n    function setReque...\n      POP \t\t\taddress\\n    function setReque...\n      POP \t\t\taddress\\n    function setReque...\n      POP \t\t\taddress\\n    function setReque...\n      PUSH 40\t\t\taddress\\n    function setReque...\n      MLOAD \t\t\taddress\\n    function setReque...\n      RETURNDATASIZE \t\t\taddress\\n    function setReque...\n      PUSH 0\t\t\taddress\\n    function setReque...\n      DUP3 \t\t\taddress\\n    function setReque...\n      RETURNDATACOPY \t\t\taddress\\n    function setReque...\n      RETURNDATASIZE \t\t\taddress\\n    function setReque...\n      PUSH 1F\t\t\taddress\\n    function setReque...\n      NOT \t\t\taddress\\n    function setReque...\n      PUSH 1F\t\t\taddress\\n    function setReque...\n      DUP3 \t\t\taddress\\n    function setReque...\n      ADD \t\t\taddress\\n    function setReque...\n      AND \t\t\taddress\\n    function setReque...\n      DUP3 \t\t\taddress\\n    function setReque...\n      ADD \t\t\taddress\\n    function setReque...\n      DUP1 \t\t\taddress\\n    function setReque...\n      PUSH 40\t\t\taddress\\n    function setReque...\n      MSTORE \t\t\taddress\\n    function setReque...\n      POP \t\t\taddress\\n    function setReque...\n      DUP2 \t\t\taddress\\n    function setReque...\n      ADD \t\t\taddress\\n    function setReque...\n      SWAP1 \t\t\taddress\\n    function setReque...\n      PUSH [tag] 551\t\t\taddress\\n    function setReque...\n      SWAP2 \t\t\taddress\\n    function setReque...\n      SWAP1 \t\t\taddress\\n    function setReque...\n      PUSH [tag] 552\t\t\taddress\\n    function setReque...\n      JUMP \t\t\taddress\\n    function setReque...\n    tag 551\t\t\taddress\\n    function setReque...\n      JUMPDEST \t\t\taddress\\n    function setReque...\n      SWAP1 \t\t\t  /// @param requestOwner ZKP ...\n      POP \t\t\t  /// @param requestOwner ZKP ...\n      DUP6 \t\t\te\n      PUSHLIB .deps/npm/@iden3/contracts/lib/VerifierLib.sol:VerifierLib\t\t\tequestId, requestOwne\n      PUSH B2394C60\t\t\tequestId, requestOwne\n      SWAP1 \t\t\tequestId, requestOwne\n      SWAP2 \t\t\tequestId, requestOwne\n      DUP6 \t\t\t);\\n   \n      DUP8 \t\t\t\\n\\n    //\n      PUSH 0\t\t\t\\n\\n    /// @dev Dis\n      ADD \t\t\t\\n\\n    /// @dev Dis\n      MLOAD \t\t\t\\n\\n    /// @dev Dis\n      DUP6 \t\t\tles ZKP\n      PUSH 40\t\t\tequestId, requestOwner);\\n    ...\n      MLOAD \t\t\tequestId, requestOwner);\\n    ...\n      DUP6 \t\t\tequestId, requestOwner);\\n    ...\n      PUSH FFFFFFFF\t\t\tequestId, requestOwner);\\n    ...\n      AND \t\t\tequestId, requestOwner);\\n    ...\n      PUSH E0\t\t\tequestId, requestOwner);\\n    ...\n      SHL \t\t\tequestId, requestOwner);\\n    ...\n      DUP2 \t\t\tequestId, requestOwner);\\n    ...\n      MSTORE \t\t\tequestId, requestOwner);\\n    ...\n      PUSH 4\t\t\tequestId, requestOwner);\\n    ...\n      ADD \t\t\tequestId, requestOwner);\\n    ...\n      PUSH [tag] 553\t\t\tequestId, requestOwner);\\n    ...\n      SWAP5 \t\t\tequestId, requestOwner);\\n    ...\n      SWAP4 \t\t\tequestId, requestOwner);\\n    ...\n      SWAP3 \t\t\tequestId, requestOwner);\\n    ...\n      SWAP2 \t\t\tequestId, requestOwner);\\n    ...\n      SWAP1 \t\t\tequestId, requestOwner);\\n    ...\n      PUSH [tag] 554\t\t\tequestId, requestOwner);\\n    ...\n      JUMP \t\t\tequestId, requestOwner);\\n    ...\n    tag 553\t\t\tequestId, requestOwner);\\n    ...\n      JUMPDEST \t\t\tequestId, requestOwner);\\n    ...\n      PUSH 0\t\t\tequestId, requestOwner);\\n    ...\n      PUSH 40\t\t\tequestId, requestOwner);\\n    ...\n      MLOAD \t\t\tequestId, requestOwner);\\n    ...\n      DUP1 \t\t\tequestId, requestOwner);\\n    ...\n      DUP4 \t\t\tequestId, requestOwner);\\n    ...\n      SUB \t\t\tequestId, requestOwner);\\n    ...\n      DUP2 \t\t\tequestId, requestOwner);\\n    ...\n      DUP7 \t\t\tequestId, requestOwner);\\n    ...\n      DUP1 \t\t\tequestId, requestOwner);\\n    ...\n      EXTCODESIZE \t\t\tequestId, requestOwner);\\n    ...\n      ISZERO \t\t\tequestId, requestOwner);\\n    ...\n      DUP1 \t\t\tequestId, requestOwner);\\n    ...\n      ISZERO \t\t\tequestId, requestOwner);\\n    ...\n      PUSH [tag] 555\t\t\tequestId, requestOwner);\\n    ...\n      JUMPI \t\t\tequestId, requestOwner);\\n    ...\n      PUSH 0\t\t\tequestId, requestOwner);\\n    ...\n      PUSH 0\t\t\tequestId, requestOwner);\\n    ...\n      REVERT \t\t\tequestId, requestOwner);\\n    ...\n    tag 555\t\t\tequestId, requestOwner);\\n    ...\n      JUMPDEST \t\t\tequestId, requestOwner);\\n    ...\n      POP \t\t\tequestId, requestOwner);\\n    ...\n      GAS \t\t\tequestId, requestOwner);\\n    ...\n      DELEGATECALL \t\t\tequestId, requestOwner);\\n    ...\n      ISZERO \t\t\tequestId, requestOwner);\\n    ...\n      DUP1 \t\t\tequestId, requestOwner);\\n    ...\n      ISZERO \t\t\tequestId, requestOwner);\\n    ...\n      PUSH [tag] 557\t\t\tequestId, requestOwner);\\n    ...\n      JUMPI \t\t\tequestId, requestOwner);\\n    ...\n      RETURNDATASIZE \t\t\tequestId, requestOwner);\\n    ...\n      PUSH 0\t\t\tequestId, requestOwner);\\n    ...\n      PUSH 0\t\t\tequestId, requestOwner);\\n    ...\n      RETURNDATACOPY \t\t\tequestId, requestOwner);\\n    ...\n      RETURNDATASIZE \t\t\tequestId, requestOwner);\\n    ...\n      PUSH 0\t\t\tequestId, requestOwner);\\n    ...\n      REVERT \t\t\tequestId, requestOwner);\\n    ...\n    tag 557\t\t\tequestId, requestOwner);\\n    ...\n      JUMPDEST \t\t\tequestId, requestOwner);\\n    ...\n      POP \t\t\tequestId, requestOwner);\\n    ...\n      POP \t\t\tequestId, requestOwner);\\n    ...\n      POP \t\t\tequestId, requestOwner);\\n    ...\n      POP \t\t\tequestId, requestOwner);\\n    ...\n      PUSH 0\t\t\t \n      DUP5 \t\t\tram requ\n      PUSH 40\t\t\tram requestId\n      ADD \t\t\tram requestId\n      MLOAD \t\t\tram requestId\n      MLOAD \t\t\tram requestId The ID\n      GT \t\t\tram requestId The ID of \n      ISZERO \t\t\t @param requestId The ID of th...\n      PUSH [tag] 558\t\t\t @param requestId The ID of th...\n      JUMPI \t\t\t @param requestId The ID of th...\n      PUSH 40\t\t\tfunction disableZKPRequest(uin...\n      MLOAD \t\t\tfunction disableZKPRequest(uin...\n      PUSH 8C379A000000000000000000000000000000000000000000000000000000000\t\t\tfunction disableZKPRequest(uin...\n      DUP2 \t\t\tfunction disableZKPRequest(uin...\n      MSTORE \t\t\tfunction disableZKPRequest(uin...\n      PUSH 4\t\t\tfunction disableZKPRequest(uin...\n      ADD \t\t\tfunction disableZKPRequest(uin...\n      PUSH [tag] 559\t\t\tfunction disableZKPRequest(uin...\n      SWAP1 \t\t\tfunction disableZKPRequest(uin...\n      PUSH [tag] 560\t\t\tfunction disableZKPRequest(uin...\n      JUMP \t\t\tfunction disableZKPRequest(uin...\n    tag 559\t\t\tfunction disableZKPRequest(uin...\n      JUMPDEST \t\t\tfunction disableZKPRequest(uin...\n      PUSH 40\t\t\tfunction disableZKPRequest(uin...\n      MLOAD \t\t\tfunction disableZKPRequest(uin...\n      DUP1 \t\t\tfunction disableZKPRequest(uin...\n      SWAP2 \t\t\tfunction disableZKPRequest(uin...\n      SUB \t\t\tfunction disableZKPRequest(uin...\n      SWAP1 \t\t\tfunction disableZKPRequest(uin...\n      REVERT \t\t\tfunction disableZKPRequest(uin...\n    tag 558\t\t\t @param requestId The ID of th...\n      JUMPDEST \t\t\t @param requestId The ID of th...\n      POP \t\t\te(requestId, inputs, a, b, c, ...\n      POP \t\t\te(requestId, inputs, a, b, c, ...\n      POP \t\t\te(requestId, inputs, a, b, c, ...\n      POP \t\t\te(requestId, inputs, a, b, c, ...\n      DUP1 \t\t\tspo\n      DUP1 \t\t\tspo\n      PUSH 1\t\t\tspo\n      ADD \t\t\tspo\n      SWAP2 \t\t\tspo\n      POP \t\t\tspo\n      POP \t\t\tspo\n      PUSH [tag] 540\t\t\try)\\n    {\\n        return sup...\n      JUMP \t\t\try)\\n    {\\n        return sup...\n    tag 541\t\t\try)\\n    {\\n        return sup...\n      JUMPDEST \t\t\try)\\n    {\\n        return sup...\n      POP \t\t\try)\\n    {\\n        return sup...\n      POP \t\t\tublic\\n        override(Reques...\n      POP \t\t\temory inputs,\\n        uint256...\n      POP \t\t\temory inputs,\\n        uint256...\n      JUMP \t\t\temory inputs,\\n        uint256...\n    tag 384\t\t\t /// @dev Sets a ZKP request\\n...\n      JUMPDEST \t\t\t /// @dev Sets a ZKP request\\n...\n      PUSH 0\t\t\tta request\\n    ) public ove\n      PUSH [tag] 562\t\t\tde(RequestOwnership, Val\n      DUP7 \t\t\trship, Va\n      PUSH [tag] 142\t\t\tde(RequestOwn\n      JUMP \t\t\tde(RequestOwnership, Val\n    tag 562\t\t\tde(RequestOwnership, Val\n      JUMPDEST \t\t\tde(RequestOwnership, Val\n      PUSH 20\t\t\tde(RequestOwnership, Validator...\n      ADD \t\t\tde(RequestOwnership, Validator...\n      MLOAD \t\t\tde(RequestOwnership, Validator...\n      SWAP1 \t\t\tta request\\n    ) public overr...\n      POP \t\t\tta request\\n    ) public overr...\n      PUSH [tag] 563\t\t\tBase) {\\n        super.setZKPR...\n      DUP2 \t\t\tetZKPRequ\n      PUSH [tag] 122\t\t\tBase) {\\n        super.\n      JUMP \t\t\tBase) {\\n        super.setZKPR...\n    tag 563\t\t\tBase) {\\n        super.setZKPR...\n      JUMPDEST \t\t\tBase) {\\n        super.setZKPR...\n      PUSH [tag] 564\t\t\tVerifierBase) {\\n        super...\n      JUMPI \t\t\tVerifierBase) {\\n        super...\n      PUSH 40\t\t\tVerifierBase) {\\n        super...\n      MLOAD \t\t\tVerifierBase) {\\n        super...\n      PUSH 8C379A000000000000000000000000000000000000000000000000000000000\t\t\tVerifierBase) {\\n        super...\n      DUP2 \t\t\tVerifierBase) {\\n        super...\n      MSTORE \t\t\tVerifierBase) {\\n        super...\n      PUSH 4\t\t\tVerifierBase) {\\n        super...\n      ADD \t\t\tVerifierBase) {\\n        super...\n      PUSH [tag] 565\t\t\tVerifierBase) {\\n        super...\n      SWAP1 \t\t\tVerifierBase) {\\n        super...\n      PUSH [tag] 478\t\t\tVerifierBase) {\\n        super...\n      JUMP \t\t\tVerifierBase) {\\n        super...\n    tag 565\t\t\tVerifierBase) {\\n        super...\n      JUMPDEST \t\t\tVerifierBase) {\\n        super...\n      PUSH 40\t\t\tVerifierBase) {\\n        super...\n      MLOAD \t\t\tVerifierBase) {\\n        super...\n      DUP1 \t\t\tVerifierBase) {\\n        super...\n      SWAP2 \t\t\tVerifierBase) {\\n        super...\n      SUB \t\t\tVerifierBase) {\\n        super...\n      SWAP1 \t\t\tVerifierBase) {\\n        super...\n      REVERT \t\t\tVerifierBase) {\\n        super...\n    tag 564\t\t\tVerifierBase) {\\n        super...\n      JUMPDEST \t\t\tVerifierBase) {\\n        super...\n      PUSH [tag] 566\t\t\tquestSet(\\n            request...\n      DUP7 \t\t\tquestId,\\n\n      DUP7 \t\t\t      \n      DUP7 \t\t\t \n      DUP7 \t\t\tm\n      DUP7 \t\t\tS\n      PUSH [tag] 567\t\t\tquestSet(\\n            r\n      JUMP \t\t\tquestSet(\\n            request...\n    tag 566\t\t\tquestSet(\\n            request...\n      JUMPDEST \t\t\tquestSet(\\n            request...\n      POP \t\t\test calldata request\\n    ) pu...\n      POP \t\t\t /// @dev Sets a ZKP request\\n...\n      POP \t\t\t /// @dev Sets a ZKP request\\n...\n      POP \t\t\t /// @dev Sets a ZKP request\\n...\n      POP \t\t\t /// @dev Sets a ZKP request\\n...\n      POP \t\t\t /// @dev Sets a ZKP request\\n...\n      JUMP \t\t\t /// @dev Sets a ZKP request\\n...\n    tag 417\t\t\tn of contract getter\\n    func...\n      JUMPDEST \t\t\tn of contract getter\\n    func...\n      DUP2 \t\t\t/ @dev Se\n      PUSH 1\t\t\t a Z\n      DUP1 \t\t\t         \n      ISZERO \t\t\tta,\\n            address(reque...\n      PUSH [tag] 569\t\t\tta,\\n            address(reque...\n      JUMPI \t\t\tta,\\n            address(reque...\n      PUSH [tag] 570\t\t\tator),\\n            request\n      DUP3 \t\t\t   reques\n      PUSH [tag] 130\t\t\tator),\\n        \n      JUMP \t\t\tator),\\n            request\n    tag 570\t\t\tator),\\n            request\n      JUMPDEST \t\t\tator),\\n            request\n      PUSH [tag] 571\t\t\tst.validator),\\n            re...\n      JUMPI \t\t\tst.validator),\\n            re...\n      PUSH 40\t\t\tst.validator),\\n            re...\n      MLOAD \t\t\tst.validator),\\n            re...\n      PUSH 8C379A000000000000000000000000000000000000000000000000000000000\t\t\tst.validator),\\n            re...\n      DUP2 \t\t\tst.validator),\\n            re...\n      MSTORE \t\t\tst.validator),\\n            re...\n      PUSH 4\t\t\tst.validator),\\n            re...\n      ADD \t\t\tst.validator),\\n            re...\n      PUSH [tag] 572\t\t\tst.validator),\\n            re...\n      SWAP1 \t\t\tst.validator),\\n            re...\n      PUSH [tag] 197\t\t\tst.validator),\\n            re...\n      JUMP \t\t\tst.validator),\\n            re...\n    tag 572\t\t\tst.validator),\\n            re...\n      JUMPDEST \t\t\tst.validator),\\n            re...\n      PUSH 40\t\t\tst.validator),\\n            re...\n      MLOAD \t\t\tst.validator),\\n            re...\n      DUP1 \t\t\tst.validator),\\n            re...\n      SWAP2 \t\t\tst.validator),\\n            re...\n      SUB \t\t\tst.validator),\\n            re...\n      SWAP1 \t\t\tst.validator),\\n            re...\n      REVERT \t\t\tst.validator),\\n            re...\n    tag 571\t\t\tst.validator),\\n            re...\n      JUMPDEST \t\t\tst.validator),\\n            re...\n      PUSH [tag] 573\t\t\tta,\\n            address(reque...\n      JUMP \t\t\tta,\\n            address(reque...\n    tag 569\t\t\tta,\\n            address(reque...\n      JUMPDEST \t\t\tta,\\n            address(reque...\n      PUSH [tag] 574\t\t\tes proof status\\n    /// @p\n      DUP3 \t\t\t    /// @\n      PUSH [tag] 130\t\t\tes proof status\n      JUMP \t\t\tes proof status\\n    /// @p\n    tag 574\t\t\tes proof status\\n    /// @p\n      JUMPDEST \t\t\tes proof status\\n    /// @p\n      ISZERO \t\t\ttes proof status\\n    /// @p\n      PUSH [tag] 575\t\t\tand updates proof status\\n    ...\n      JUMPI \t\t\tand updates proof status\\n    ...\n      PUSH 40\t\t\tand updates proof status\\n    ...\n      MLOAD \t\t\tand updates proof status\\n    ...\n      PUSH 8C379A000000000000000000000000000000000000000000000000000000000\t\t\tand updates proof status\\n    ...\n      DUP2 \t\t\tand updates proof status\\n    ...\n      MSTORE \t\t\tand updates proof status\\n    ...\n      PUSH 4\t\t\tand updates proof status\\n    ...\n      ADD \t\t\tand updates proof status\\n    ...\n      PUSH [tag] 576\t\t\tand updates proof status\\n    ...\n      SWAP1 \t\t\tand updates proof status\\n    ...\n      PUSH [tag] 202\t\t\tand updates proof status\\n    ...\n      JUMP \t\t\tand updates proof status\\n    ...\n    tag 576\t\t\tand updates proof status\\n    ...\n      JUMPDEST \t\t\tand updates proof status\\n    ...\n      PUSH 40\t\t\tand updates proof status\\n    ...\n      MLOAD \t\t\tand updates proof status\\n    ...\n      DUP1 \t\t\tand updates proof status\\n    ...\n      SWAP2 \t\t\tand updates proof status\\n    ...\n      SUB \t\t\tand updates proof status\\n    ...\n      SWAP1 \t\t\tand updates proof status\\n    ...\n      REVERT \t\t\tand updates proof status\\n    ...\n    tag 575\t\t\tand updates proof status\\n    ...\n      JUMPDEST \t\t\tand updates proof status\\n    ...\n    tag 573\t\t\tta,\\n            address(reque...\n      JUMPDEST \t\t\tta,\\n            address(reque...\n      PUSH 0\t\t\t   /// @param requestId The ID...\n      PUSH [tag] 578\t\t\te ZKP request\\n    /// @param \n      PUSH [tag] 314\t\t\te ZKP request\\n    /// @para\n      JUMP \t\t\te ZKP request\\n    /// @param \n    tag 578\t\t\te ZKP request\\n    /// @param \n      JUMPDEST \t\t\te ZKP request\\n    /// @param \n      SWAP1 \t\t\t   /// @param requestId The ID...\n      POP \t\t\t   /// @param requestId The ID...\n      DUP4 \t\t\tn setZKPRequ\n      DUP2 \t\t\te\n      PUSH 0\t\t\te ZKP request da\n      ADD \t\t\te ZKP request da\n      PUSH 0\t\t\te ZKP request data\\n    func\n      DUP8 \t\t\ta\\n    fun\n      PUSH FFFFFFFFFFFFFFFF\t\t\te ZKP request data\\n    func\n      AND \t\t\te ZKP request data\\n    func\n      PUSH FFFFFFFFFFFFFFFF\t\t\te ZKP request data\\n    func\n      AND \t\t\te ZKP request data\\n    func\n      DUP2 \t\t\te ZKP request data\\n    func\n      MSTORE \t\t\te ZKP request data\\n    func\n      PUSH 20\t\t\te ZKP request data\\n    func\n      ADD \t\t\te ZKP request data\\n    func\n      SWAP1 \t\t\te ZKP request data\\n    func\n      DUP2 \t\t\te ZKP request data\\n    func\n      MSTORE \t\t\te ZKP request data\\n    func\n      PUSH 20\t\t\te ZKP request data\\n    func\n      ADD \t\t\te ZKP request data\\n    func\n      PUSH 0\t\t\te ZKP request data\\n    func\n      KECCAK256 \t\t\te ZKP request data\\n    func\n      PUSH 0\t\t\te ZKP request data\\n    func\n      PUSH 100\t\t\te ZKP request data\\n    functi...\n      EXP \t\t\te ZKP request data\\n    functi...\n      DUP2 \t\t\te ZKP request data\\n    functi...\n      SLOAD \t\t\te ZKP request data\\n    functi...\n      DUP2 \t\t\te ZKP request data\\n    functi...\n      PUSH FFFFFFFFFFFFFFFFFFFFFFFFFFFFFFFFFFFFFFFF\t\t\te ZKP request data\\n    functi...\n      MUL \t\t\te ZKP request data\\n    functi...\n      NOT \t\t\te ZKP request data\\n    functi...\n      AND \t\t\te ZKP request data\\n    functi...\n      SWAP1 \t\t\te ZKP request data\\n    functi...\n      DUP4 \t\t\te ZKP request data\\n    functi...\n      PUSH FFFFFFFFFFFFFFFFFFFFFFFFFFFFFFFFFFFFFFFF\t\t\te ZKP request data\\n    functi...\n      AND \t\t\te ZKP request data\\n    functi...\n      MUL \t\t\te ZKP request data\\n    functi...\n      OR \t\t\te ZKP request data\\n    functi...\n      SWAP1 \t\t\te ZKP request data\\n    functi...\n      SSTORE \t\t\te ZKP request data\\n    functi...\n      POP \t\t\te ZKP request data\\n    functi...\n      POP \t\t\t request\\n    /// @param reque...\n      POP \t\t\tn of contract getter\\n    func...\n      POP \t\t\tn of contract getter\\n    func...\n      POP \t\t\tn of contract getter\\n    func...\n      POP \t\t\tn of contract getter\\n    func...\n      JUMP \t\t\tn of contract getter\\n    func...\n    tag 433\t\t\tuestId) || sender == owner(),\\...\n      JUMPDEST \t\t\tuestId) || sender == owner(),\\...\n      PUSH 0\t\t\tr request owner\"\\n        );\\n...\n      PUSH 237E158222E3E6968B72B9DB0D8043AACF074AD9F650F0D1606B4D82EE432C00\t\t\t contract\\n    function init\n      SWAP1 \t\t\talizes the contract\\n    funct...\n      POP \t\t\talizes the contract\\n    funct...\n      SWAP1 \t\t\tuestId) || sender == owner(),\\...\n      JUMP \t\t\tuestId) || sender == owner(),\\...\n    tag 464\t\t\t\n      JUMPDEST \t\t\t\n      PUSH [tag] 581\t\t\t\n      PUSH [tag] 582\t\t\t\n      JUMP \t\t\t\n    tag 581\t\t\t\n      JUMPDEST \t\t\t\n      PUSH [tag] 583\t\t\t\n      JUMPI \t\t\t\n      PUSH 40\t\t\t\n      MLOAD \t\t\t\n      PUSH D7E6BCF800000000000000000000000000000000000000000000000000000000\t\t\t\n      DUP2 \t\t\t\n      MSTORE \t\t\t\n      PUSH 4\t\t\t\n      ADD \t\t\t\n      PUSH 40\t\t\t\n      MLOAD \t\t\t\n      DUP1 \t\t\t\n      SWAP2 \t\t\t\n      SUB \t\t\t\n      SWAP1 \t\t\t\n      REVERT \t\t\t\n    tag 583\t\t\t\n      JUMPDEST \t\t\t\n      JUMP \t\t\t\n    tag 467\t\t\tv Sets a ZKP request\\n    /// ...\n      JUMPDEST \t\t\tv Sets a ZKP request\\n    /// ...\n      PUSH [tag] 585\t\t\t\n      PUSH [tag] 464\t\t\t\n      JUMP \t\t\t\n    tag 585\t\t\t\n      JUMPDEST \t\t\t\n      PUSH 0\t\t\tf\n      PUSH FFFFFFFFFFFFFFFFFFFFFFFFFFFFFFFFFFFFFFFF\t\t\the ZKP request data\\n    fu\n      AND \t\t\the ZKP request data\\n    fu\n      DUP2 \t\t\the ZKP reque\n      PUSH FFFFFFFFFFFFFFFFFFFFFFFFFFFFFFFFFFFFFFFF\t\t\the ZKP request data\\n    fu\n      AND \t\t\the ZKP request data\\n    fu\n      SUB \t\t\the ZKP request data\\n    fu\n      PUSH [tag] 587\t\t\tst The ZKP request data\\n    f...\n      JUMPI \t\t\tst The ZKP request data\\n    f...\n      PUSH 0\t\t\t \n      PUSH 40\t\t\t       uint64 requestId,\\n    ...\n      MLOAD \t\t\t       uint64 requestId,\\n    ...\n      PUSH 1E4FBDF700000000000000000000000000000000000000000000000000000000\t\t\t       uint64 requestId,\\n    ...\n      DUP2 \t\t\t       uint64 requestId,\\n    ...\n      MSTORE \t\t\t       uint64 requestId,\\n    ...\n      PUSH 4\t\t\t       uint64 requestId,\\n    ...\n      ADD \t\t\t       uint64 requestId,\\n    ...\n      PUSH [tag] 588\t\t\t       uint64 requestId,\\n    ...\n      SWAP2 \t\t\t       uint64 requestId,\\n    ...\n      SWAP1 \t\t\t       uint64 requestId,\\n    ...\n      PUSH [tag] 61\t\t\t       uint64 requestId,\\n    ...\n      JUMP \t\t\t       uint64 requestId,\\n    ...\n    tag 588\t\t\t       uint64 requestId,\\n    ...\n      JUMPDEST \t\t\t       uint64 requestId,\\n    ...\n      PUSH 40\t\t\t       uint64 requestId,\\n    ...\n      MLOAD \t\t\t       uint64 requestId,\\n    ...\n      DUP1 \t\t\t       uint64 requestId,\\n    ...\n      SWAP2 \t\t\t       uint64 requestId,\\n    ...\n      SUB \t\t\t       uint64 requestId,\\n    ...\n      SWAP1 \t\t\t       uint64 requestId,\\n    ...\n      REVERT \t\t\t       uint64 requestId,\\n    ...\n    tag 587\t\t\tst The ZKP request data\\n    f...\n      JUMPDEST \t\t\tst The ZKP request data\\n    f...\n      PUSH [tag] 589\t\t\tquest calldata request\\n    ) ...\n      DUP2 \t\t\test\\n    ) pu\n      PUSH [tag] 319\t\t\tquest calldata req\n      JUMP \t\t\tquest calldata request\\n    ) ...\n    tag 589\t\t\tquest calldata request\\n    ) ...\n      JUMPDEST \t\t\tquest calldata request\\n    ) ...\n      POP \t\t\tv Sets a ZKP request\\n    /// ...\n      JUMP \t\t\tv Sets a ZKP request\\n    /// ...\n    tag 472\t\t\talize(IState state, address ow...\n      JUMPDEST \t\t\talize(IState state, address ow...\n      PUSH [tag] 591\t\t\t\n      PUSH [tag] 464\t\t\t\n      JUMP \t\t\t\n    tag 591\t\t\t\n      JUMPDEST \t\t\t\n      PUSH [tag] 593\t\t\t   __ZKPVerifier\n      DUP2 \t\t\trifie\n      PUSH [tag] 226\t\t\t   __ZKPV\n      JUMP \t\t\t   __ZKPVerifier\n    tag 593\t\t\t   __ZKPVerifier\n      JUMPDEST \t\t\t   __ZKPVerifier\n      POP \t\t\talize(IState state, address ow...\n      JUMP \t\t\talize(IState state, address ow...\n    tag 480\t\t\tta\\n    function setZKPRequest...\n      JUMPDEST \t\t\tta\\n    function setZKPRequest...\n      PUSH 60\t\t\t),\\n            request.metada...\n      DUP7 \t\t\ttId,\\n    \n      PUSH [tag] 595\t\t\t event ZKPResponseSubmitted(ui\n      DUP2 \t\t\tbmitted(u\n      PUSH [tag] 48\t\t\t event ZKPResponseS\n      JUMP \t\t\t event ZKPResponseSubmitted(ui\n    tag 595\t\t\t event ZKPResponseSubmitted(ui\n      JUMPDEST \t\t\t event ZKPResponseSubmitted(ui\n      PUSH [tag] 596\t\t\tuest\\n    event ZKPResponseSub...\n      JUMPI \t\t\tuest\\n    event ZKPResponseSub...\n      PUSH 40\t\t\tuest\\n    event ZKPResponseSub...\n      MLOAD \t\t\tuest\\n    event ZKPResponseSub...\n      PUSH 8C379A000000000000000000000000000000000000000000000000000000000\t\t\tuest\\n    event ZKPResponseSub...\n      DUP2 \t\t\tuest\\n    event ZKPResponseSub...\n      MSTORE \t\t\tuest\\n    event ZKPResponseSub...\n      PUSH 4\t\t\tuest\\n    event ZKPResponseSub...\n      ADD \t\t\tuest\\n    event ZKPResponseSub...\n      PUSH [tag] 597\t\t\tuest\\n    event ZKPResponseSub...\n      SWAP1 \t\t\tuest\\n    event ZKPResponseSub...\n      PUSH [tag] 598\t\t\tuest\\n    event ZKPResponseSub...\n      JUMP \t\t\tuest\\n    event ZKPResponseSub...\n    tag 597\t\t\tuest\\n    event ZKPResponseSub...\n      JUMPDEST \t\t\tuest\\n    event ZKPResponseSub...\n      PUSH 40\t\t\tuest\\n    event ZKPResponseSub...\n      MLOAD \t\t\tuest\\n    event ZKPResponseSub...\n      DUP1 \t\t\tuest\\n    event ZKPResponseSub...\n      SWAP2 \t\t\tuest\\n    event ZKPResponseSub...\n      SUB \t\t\tuest\\n    event ZKPResponseSub...\n      SWAP1 \t\t\tuest\\n    event ZKPResponseSub...\n      REVERT \t\t\tuest\\n    event ZKPResponseSub...\n    tag 596\t\t\tuest\\n    event ZKPResponseSub...\n      JUMPDEST \t\t\tuest\\n    event ZKPResponseSub...\n      PUSH [tag] 600\t\t\tdator),\\n            request.d...\n      DUP9 \t\t\test.data\\n\n      DUP9 \t\t\t      \n      DUP9 \t\t\t\\n\n      DUP9 \t\t\t \n      DUP9 \t\t\t\\n\n      DUP9 \t\t\t   ///\n      PUSH [tag] 601\t\t\tdator),\\n            req\n      JUMP \t\t\tdator),\\n            request.d...\n    tag 600\t\t\tdator),\\n            request.d...\n      JUMPDEST \t\t\tdator),\\n            request.d...\n      SWAP2 \t\t\tst.validator),\\n            re...\n      POP \t\t\tst.validator),\\n            re...\n      POP \t\t\tta\\n    function setZKPRequest...\n      SWAP7 \t\t\tta\\n    function setZKPRequest...\n      SWAP6 \t\t\tta\\n    function setZKPRequest...\n      POP \t\t\tta\\n    function setZKPRequest...\n      POP \t\t\tta\\n    function setZKPRequest...\n      POP \t\t\tta\\n    function setZKPRequest...\n      POP \t\t\tta\\n    function setZKPRequest...\n      POP \t\t\tta\\n    function setZKPRequest...\n      POP \t\t\tta\\n    function setZKPRequest...\n      JUMP \t\t\tta\\n    function setZKPRequest...\n    tag 511\t\t\tint256 i = 0; i < responses.le...\n      JUMPDEST \t\t\tint256 i = 0; i < responses.le...\n      PUSH 0\t\t\tbmitted(responses[i].req\n      PUSH [tag] 603\t\t\ttId, _msgSender());\\n\n      PUSH [tag] 356\t\t\ttId, _msgSender())\n      JUMP \t\t\ttId, _msgSender());\\n\n    tag 603\t\t\ttId, _msgSender());\\n\n      JUMPDEST \t\t\ttId, _msgSender());\\n\n      SWAP1 \t\t\tbmitted(responses[i].requestId...\n      POP \t\t\tbmitted(responses[i].requestId...\n      PUSH 0\t\t\t    }\\n\\n    /// @\n      DUP2 \t\t\t \n      PUSH 0\t\t\t Verifie\n      ADD \t\t\t Verifie\n      PUSH 0\t\t\t Verifie\n      SWAP1 \t\t\t Verifie\n      SLOAD \t\t\t Verifie\n      SWAP1 \t\t\t Verifie\n      PUSH 100\t\t\t Verifie\n      EXP \t\t\t Verifie\n      SWAP1 \t\t\t Verifie\n      DIV \t\t\t Verifie\n      PUSH FFFFFFFFFFFFFFFFFFFFFFFFFFFFFFFFFFFFFFFF\t\t\t Verifie\n      AND \t\t\t Verifie\n      SWAP1 \t\t\t    }\\n\\n    /// @dev Verifie\n      POP \t\t\t    }\\n\\n    /// @dev Verifie\n      DUP3 \t\t\tout upda\n      DUP3 \t\t\ts\n      PUSH 0\t\t\tsponse w\n      ADD \t\t\tsponse w\n      PUSH 0\t\t\tsponse w\n      PUSH 100\t\t\tsponse without upda\n      EXP \t\t\tsponse without upda\n      DUP2 \t\t\tsponse without upda\n      SLOAD \t\t\tsponse without upda\n      DUP2 \t\t\tsponse without upda\n      PUSH FFFFFFFFFFFFFFFFFFFFFFFFFFFFFFFFFFFFFFFF\t\t\tsponse without upda\n      MUL \t\t\tsponse without upda\n      NOT \t\t\tsponse without upda\n      AND \t\t\tsponse without upda\n      SWAP1 \t\t\tsponse without upda\n      DUP4 \t\t\tsponse without upda\n      PUSH FFFFFFFFFFFFFFFFFFFFFFFFFFFFFFFFFFFFFFFF\t\t\tsponse without upda\n      AND \t\t\tsponse without upda\n      MUL \t\t\tsponse without upda\n      OR \t\t\tsponse without upda\n      SWAP1 \t\t\tsponse without upda\n      SSTORE \t\t\tsponse without upda\n      POP \t\t\tsponse without upda\n      DUP3 \t\t\t The ID \n      PUSH FFFFFFFFFFFFFFFFFFFFFFFFFFFFFFFFFFFFFFFF\t\t\tstatus\\n    /// @param request...\n      AND \t\t\tstatus\\n    /// @param request...\n      DUP2 \t\t\t request\n      PUSH FFFFFFFFFFFFFFFFFFFFFFFFFFFFFFFFFFFFFFFF\t\t\tstatus\\n    /// @param request...\n      AND \t\t\tstatus\\n    /// @param request...\n      PUSH 8BE0079C531659141344CD1FD0A4F28419497F9722A3DAAFE3B4186F6B6457E0\t\t\tstatus\\n    /// @param request...\n      PUSH 40\t\t\tstatus\\n    /// @param request...\n      MLOAD \t\t\tstatus\\n    /// @param request...\n      PUSH 40\t\t\tstatus\\n    /// @param request...\n      MLOAD \t\t\tstatus\\n    /// @param request...\n      DUP1 \t\t\tstatus\\n    /// @param request...\n      SWAP2 \t\t\tstatus\\n    /// @param request...\n      SUB \t\t\tstatus\\n    /// @param request...\n      SWAP1 \t\t\tstatus\\n    /// @param request...\n      LOG3 \t\t\tstatus\\n    /// @param request...\n      POP \t\t\tResponseSubmitted(responses[i]...\n      POP \t\t\tResponseSubmitted(responses[i]...\n      POP \t\t\tint256 i = 0; i < responses.le...\n      JUMP \t\t\tint256 i = 0; i < responses.le...\n    tag 532\t\t\t  address validator,\\n        ...\n      JUMPDEST \t\t\t  address validator,\\n        ...\n      PUSH [tag] 605\t\t\t modifier onlyOwnerOrRequestOw...\n      DUP3 \t\t\trRequestO\n      DUP3 \t\t\ter(uint\n      PUSH [tag] 606\t\t\t modifier onlyOwner\n      JUMP \t\t\t modifier onlyOwnerOrRequestOw...\n    tag 605\t\t\t modifier onlyOwnerOrRequestOw...\n      JUMPDEST \t\t\t modifier onlyOwnerOrRequestOw...\n      PUSH [tag] 607\t\t\td) {\\n        address sender =...\n      DUP3 \t\t\tess sende\n      PUSH [tag] 608\t\t\t= _msgSender\n      PUSH [tag] 208\t\t\t= _msgSend\n      JUMP \t\t\t= _msgSender\n    tag 608\t\t\t= _msgSender\n      JUMPDEST \t\t\t= _msgSender\n      PUSH [tag] 417\t\t\td) {\\n        add\n      JUMP \t\t\td) {\\n        address sender =...\n    tag 607\t\t\td) {\\n        address sender =...\n      JUMPDEST \t\t\td) {\\n        address sender =...\n      POP \t\t\t  address validator,\\n        ...\n      POP \t\t\t  address validator,\\n        ...\n      JUMP \t\t\t  address validator,\\n        ...\n    tag 567\t\t\twner\\n    modifier onlyOwnerOr...\n      JUMPDEST \t\t\twner\\n    modifier onlyOwnerOr...\n      DUP5 \t\t\t owner\"\\n \n      PUSH [tag] 610\t\t\t event ZKPResponseSubmitted(ui\n      DUP2 \t\t\tbmitted(u\n      PUSH [tag] 48\t\t\t event ZKPResponseS\n      JUMP \t\t\t event ZKPResponseSubmitted(ui\n    tag 610\t\t\t event ZKPResponseSubmitted(ui\n      JUMPDEST \t\t\t event ZKPResponseSubmitted(ui\n      PUSH [tag] 611\t\t\tuest\\n    event ZKPResponseSub...\n      JUMPI \t\t\tuest\\n    event ZKPResponseSub...\n      PUSH 40\t\t\tuest\\n    event ZKPResponseSub...\n      MLOAD \t\t\tuest\\n    event ZKPResponseSub...\n      PUSH 8C379A000000000000000000000000000000000000000000000000000000000\t\t\tuest\\n    event ZKPResponseSub...\n      DUP2 \t\t\tuest\\n    event ZKPResponseSub...\n      MSTORE \t\t\tuest\\n    event ZKPResponseSub...\n      PUSH 4\t\t\tuest\\n    event ZKPResponseSub...\n      ADD \t\t\tuest\\n    event ZKPResponseSub...\n      PUSH [tag] 612\t\t\tuest\\n    event ZKPResponseSub...\n      SWAP1 \t\t\tuest\\n    event ZKPResponseSub...\n      PUSH [tag] 598\t\t\tuest\\n    event ZKPResponseSub...\n      JUMP \t\t\tuest\\n    event ZKPResponseSub...\n    tag 612\t\t\tuest\\n    event ZKPResponseSub...\n      JUMPDEST \t\t\tuest\\n    event ZKPResponseSub...\n      PUSH 40\t\t\tuest\\n    event ZKPResponseSub...\n      MLOAD \t\t\tuest\\n    event ZKPResponseSub...\n      DUP1 \t\t\tuest\\n    event ZKPResponseSub...\n      SWAP2 \t\t\tuest\\n    event ZKPResponseSub...\n      SUB \t\t\tuest\\n    event ZKPResponseSub...\n      SWAP1 \t\t\tuest\\n    event ZKPResponseSub...\n      REVERT \t\t\tuest\\n    event ZKPResponseSub...\n    tag 611\t\t\tuest\\n    event ZKPResponseSub...\n      JUMPDEST \t\t\tuest\\n    event ZKPResponseSub...\n      PUSH [tag] 614\t\t\t      _;\\n    }\\n\\n    /// @de...\n      DUP7 \t\t\t@dev Init\n      DUP7 \t\t\tlizes \n      DUP7 \t\t\te\n      DUP7 \t\t\to\n      DUP7 \t\t\tr\n      PUSH [tag] 615\t\t\t      _;\\n    }\\n\\n    ///\n      JUMP \t\t\t      _;\\n    }\\n\\n    /// @de...\n    tag 614\t\t\t      _;\\n    }\\n\\n    /// @de...\n      JUMPDEST \t\t\t      _;\\n    }\\n\\n    /// @de...\n      POP \t\t\twner\\n    modifier onlyOwnerOr...\n      POP \t\t\twner\\n    modifier onlyOwnerOr...\n      POP \t\t\twner\\n    modifier onlyOwnerOr...\n      POP \t\t\twner\\n    modifier onlyOwnerOr...\n      POP \t\t\twner\\n    modifier onlyOwnerOr...\n      POP \t\t\twner\\n    modifier onlyOwnerOr...\n      JUMP \t\t\twner\\n    modifier onlyOwnerOr...\n    tag 582\t\t\t\n      JUMPDEST \t\t\t\n      PUSH 0\t\t\t\n      PUSH [tag] 617\t\t\t\n      PUSH [tag] 229\t\t\t\n      JUMP \t\t\t\n    tag 617\t\t\t\n      JUMPDEST \t\t\t\n      PUSH 0\t\t\t\n      ADD \t\t\t\n      PUSH 8\t\t\t\n      SWAP1 \t\t\t\n      SLOAD \t\t\t\n      SWAP1 \t\t\t\n      PUSH 100\t\t\t\n      EXP \t\t\t\n      SWAP1 \t\t\t\n      DIV \t\t\t\n      PUSH FF\t\t\t\n      AND \t\t\t\n      SWAP1 \t\t\t\n      POP \t\t\t\n      SWAP1 \t\t\t\n      JUMP \t\t\t\n    tag 601\t\t\torToWhitelist(ICircuitValidato...\n      JUMPDEST \t\t\torToWhitelist(ICircuitValidato...\n      PUSH 60\t\t\t   _removeValidatorFromWhiteli...\n      DUP7 \t\t\talidator)\n      PUSH 1\t\t\tubli\n      DUP1 \t\t\t         \n      ISZERO \t\t\tta,\\n            address(reque...\n      PUSH [tag] 619\t\t\tta,\\n            address(reque...\n      JUMPI \t\t\tta,\\n            address(reque...\n      PUSH [tag] 620\t\t\tator),\\n            request\n      DUP3 \t\t\t   reques\n      PUSH [tag] 130\t\t\tator),\\n        \n      JUMP \t\t\tator),\\n            request\n    tag 620\t\t\tator),\\n            request\n      JUMPDEST \t\t\tator),\\n            request\n      PUSH [tag] 621\t\t\tst.validator),\\n            re...\n      JUMPI \t\t\tst.validator),\\n            re...\n      PUSH 40\t\t\tst.validator),\\n            re...\n      MLOAD \t\t\tst.validator),\\n            re...\n      PUSH 8C379A000000000000000000000000000000000000000000000000000000000\t\t\tst.validator),\\n            re...\n      DUP2 \t\t\tst.validator),\\n            re...\n      MSTORE \t\t\tst.validator),\\n            re...\n      PUSH 4\t\t\tst.validator),\\n            re...\n      ADD \t\t\tst.validator),\\n            re...\n      PUSH [tag] 622\t\t\tst.validator),\\n            re...\n      SWAP1 \t\t\tst.validator),\\n            re...\n      PUSH [tag] 197\t\t\tst.validator),\\n            re...\n      JUMP \t\t\tst.validator),\\n            re...\n    tag 622\t\t\tst.validator),\\n            re...\n      JUMPDEST \t\t\tst.validator),\\n            re...\n      PUSH 40\t\t\tst.validator),\\n            re...\n      MLOAD \t\t\tst.validator),\\n            re...\n      DUP1 \t\t\tst.validator),\\n            re...\n      SWAP2 \t\t\tst.validator),\\n            re...\n      SUB \t\t\tst.validator),\\n            re...\n      SWAP1 \t\t\tst.validator),\\n            re...\n      REVERT \t\t\tst.validator),\\n            re...\n    tag 621\t\t\tst.validator),\\n            re...\n      JUMPDEST \t\t\tst.validator),\\n            re...\n      PUSH [tag] 623\t\t\tta,\\n            address(reque...\n      JUMP \t\t\tta,\\n            address(reque...\n    tag 619\t\t\tta,\\n            address(reque...\n      JUMPDEST \t\t\tta,\\n            address(reque...\n      PUSH [tag] 624\t\t\tes proof status\\n    /// @p\n      DUP3 \t\t\t    /// @\n      PUSH [tag] 130\t\t\tes proof status\n      JUMP \t\t\tes proof status\\n    /// @p\n    tag 624\t\t\tes proof status\\n    /// @p\n      JUMPDEST \t\t\tes proof status\\n    /// @p\n      ISZERO \t\t\ttes proof status\\n    /// @p\n      PUSH [tag] 625\t\t\tand updates proof status\\n    ...\n      JUMPI \t\t\tand updates proof status\\n    ...\n      PUSH 40\t\t\tand updates proof status\\n    ...\n      MLOAD \t\t\tand updates proof status\\n    ...\n      PUSH 8C379A000000000000000000000000000000000000000000000000000000000\t\t\tand updates proof status\\n    ...\n      DUP2 \t\t\tand updates proof status\\n    ...\n      MSTORE \t\t\tand updates proof status\\n    ...\n      PUSH 4\t\t\tand updates proof status\\n    ...\n      ADD \t\t\tand updates proof status\\n    ...\n      PUSH [tag] 626\t\t\tand updates proof status\\n    ...\n      SWAP1 \t\t\tand updates proof status\\n    ...\n      PUSH [tag] 202\t\t\tand updates proof status\\n    ...\n      JUMP \t\t\tand updates proof status\\n    ...\n    tag 626\t\t\tand updates proof status\\n    ...\n      JUMPDEST \t\t\tand updates proof status\\n    ...\n      PUSH 40\t\t\tand updates proof status\\n    ...\n      MLOAD \t\t\tand updates proof status\\n    ...\n      DUP1 \t\t\tand updates proof status\\n    ...\n      SWAP2 \t\t\tand updates proof status\\n    ...\n      SUB \t\t\tand updates proof status\\n    ...\n      SWAP1 \t\t\tand updates proof status\\n    ...\n      REVERT \t\t\tand updates proof status\\n    ...\n    tag 625\t\t\tand updates proof status\\n    ...\n      JUMPDEST \t\t\tand updates proof status\\n    ...\n    tag 623\t\t\tta,\\n            address(reque...\n      JUMPDEST \t\t\tta,\\n            address(reque...\n      PUSH 0\t\t\t\n      PUSH [tag] 628\t\t\t\n      PUSH [tag] 220\t\t\t\n      JUMP \t\t\t\n    tag 628\t\t\t\n      JUMPDEST \t\t\t\n      PUSH 1\t\t\t\n      ADD \t\t\t\n      PUSH 0\t\t\t\n      DUP12 \t\t\t\n      PUSH FFFFFFFFFFFFFFFF\t\t\t\n      AND \t\t\t\n      PUSH FFFFFFFFFFFFFFFF\t\t\t\n      AND \t\t\t\n      DUP2 \t\t\t\n      MSTORE \t\t\t\n      PUSH 20\t\t\t\n      ADD \t\t\t\n      SWAP1 \t\t\t\n      DUP2 \t\t\t\n      MSTORE \t\t\t\n      PUSH 20\t\t\t\n      ADD \t\t\t\n      PUSH 0\t\t\t\n      KECCAK256 \t\t\t\n      SWAP1 \t\t\t\n      POP \t\t\t\n      DUP1 \t\t\t\n      PUSH 1\t\t\t\n      ADD \t\t\t\n      PUSH 0\t\t\t\n      SWAP1 \t\t\t\n      SLOAD \t\t\t\n      SWAP1 \t\t\t\n      PUSH 100\t\t\t\n      EXP \t\t\t\n      SWAP1 \t\t\t\n      DIV \t\t\t\n      PUSH FFFFFFFFFFFFFFFFFFFFFFFFFFFFFFFFFFFFFFFF\t\t\t\n      AND \t\t\t\n      PUSH FFFFFFFFFFFFFFFFFFFFFFFFFFFFFFFFFFFFFFFF\t\t\t\n      AND \t\t\t\n      PUSH F177A69E\t\t\t\n      DUP11 \t\t\t\n      DUP11 \t\t\t\n      DUP11 \t\t\t\n      DUP11 \t\t\t\n      DUP7 \t\t\t\n      PUSH 2\t\t\t\n      ADD \t\t\t\n      DUP12 \t\t\t\n      PUSH 40\t\t\t\n      MLOAD \t\t\t\n      DUP8 \t\t\t\n      PUSH FFFFFFFF\t\t\t\n      AND \t\t\t\n      PUSH E0\t\t\t\n      SHL \t\t\t\n      DUP2 \t\t\t\n      MSTORE \t\t\t\n      PUSH 4\t\t\t\n      ADD \t\t\t\n      PUSH [tag] 629\t\t\t\n      SWAP7 \t\t\t\n      SWAP6 \t\t\t\n      SWAP5 \t\t\t\n      SWAP4 \t\t\t\n      SWAP3 \t\t\t\n      SWAP2 \t\t\t\n      SWAP1 \t\t\t\n      PUSH [tag] 630\t\t\t\n      JUMP \t\t\t\n    tag 629\t\t\t\n      JUMPDEST \t\t\t\n      PUSH 0\t\t\t\n      PUSH 40\t\t\t\n      MLOAD \t\t\t\n      DUP1 \t\t\t\n      DUP4 \t\t\t\n      SUB \t\t\t\n      DUP2 \t\t\t\n      PUSH 0\t\t\t\n      DUP8 \t\t\t\n      GAS \t\t\t\n      CALL \t\t\t\n      ISZERO \t\t\t\n      DUP1 \t\t\t\n      ISZERO \t\t\t\n      PUSH [tag] 632\t\t\t\n      JUMPI \t\t\t\n      RETURNDATASIZE \t\t\t\n      PUSH 0\t\t\t\n      PUSH 0\t\t\t\n      RETURNDATACOPY \t\t\t\n      RETURNDATASIZE \t\t\t\n      PUSH 0\t\t\t\n      REVERT \t\t\t\n    tag 632\t\t\t\n      JUMPDEST \t\t\t\n      POP \t\t\t\n      POP \t\t\t\n      POP \t\t\t\n      POP \t\t\t\n      PUSH 40\t\t\t\n      MLOAD \t\t\t\n      RETURNDATASIZE \t\t\t\n      PUSH 0\t\t\t\n      DUP3 \t\t\t\n      RETURNDATACOPY \t\t\t\n      RETURNDATASIZE \t\t\t\n      PUSH 1F\t\t\t\n      NOT \t\t\t\n      PUSH 1F\t\t\t\n      DUP3 \t\t\t\n      ADD \t\t\t\n      AND \t\t\t\n      DUP3 \t\t\t\n      ADD \t\t\t\n      DUP1 \t\t\t\n      PUSH 40\t\t\t\n      MSTORE \t\t\t\n      POP \t\t\t\n      DUP2 \t\t\t\n      ADD \t\t\t\n      SWAP1 \t\t\t\n      PUSH [tag] 633\t\t\t\n      SWAP2 \t\t\t\n      SWAP1 \t\t\t\n      PUSH [tag] 634\t\t\t\n      JUMP \t\t\t\n    tag 633\t\t\t\n      JUMPDEST \t\t\t\n      SWAP4 \t\t\t\n      POP \t\t\t\n      POP \t\t\t\n      POP \t\t\torToWhitelist(ICircuitValidato...\n      POP \t\t\torToWhitelist(ICircuitValidato...\n      SWAP7 \t\t\torToWhitelist(ICircuitValidato...\n      SWAP6 \t\t\torToWhitelist(ICircuitValidato...\n      POP \t\t\torToWhitelist(ICircuitValidato...\n      POP \t\t\torToWhitelist(ICircuitValidato...\n      POP \t\t\torToWhitelist(ICircuitValidato...\n      POP \t\t\torToWhitelist(ICircuitValidato...\n      POP \t\t\torToWhitelist(ICircuitValidato...\n      POP \t\t\torToWhitelist(ICircuitValidato...\n      JUMP \t\t\torToWhitelist(ICircuitValidato...\n    tag 606\t\t\tf\\n    /// @param c The third ...\n      JUMPDEST \t\t\tf\\n    /// @param c The third ...\n      DUP2 \t\t\t\\n        \n      PUSH 0\t\t\tnt256\n      DUP1 \t\t\t         \n      ISZERO \t\t\tta,\\n            address(reque...\n      PUSH [tag] 636\t\t\tta,\\n            address(reque...\n      JUMPI \t\t\tta,\\n            address(reque...\n      PUSH [tag] 637\t\t\tator),\\n            request\n      DUP3 \t\t\t   reques\n      PUSH [tag] 130\t\t\tator),\\n        \n      JUMP \t\t\tator),\\n            request\n    tag 637\t\t\tator),\\n            request\n      JUMPDEST \t\t\tator),\\n            request\n      PUSH [tag] 638\t\t\tst.validator),\\n            re...\n      JUMPI \t\t\tst.validator),\\n            re...\n      PUSH 40\t\t\tst.validator),\\n            re...\n      MLOAD \t\t\tst.validator),\\n            re...\n      PUSH 8C379A000000000000000000000000000000000000000000000000000000000\t\t\tst.validator),\\n            re...\n      DUP2 \t\t\tst.validator),\\n            re...\n      MSTORE \t\t\tst.validator),\\n            re...\n      PUSH 4\t\t\tst.validator),\\n            re...\n      ADD \t\t\tst.validator),\\n            re...\n      PUSH [tag] 639\t\t\tst.validator),\\n            re...\n      SWAP1 \t\t\tst.validator),\\n            re...\n      PUSH [tag] 197\t\t\tst.validator),\\n            re...\n      JUMP \t\t\tst.validator),\\n            re...\n    tag 639\t\t\tst.validator),\\n            re...\n      JUMPDEST \t\t\tst.validator),\\n            re...\n      PUSH 40\t\t\tst.validator),\\n            re...\n      MLOAD \t\t\tst.validator),\\n            re...\n      DUP1 \t\t\tst.validator),\\n            re...\n      SWAP2 \t\t\tst.validator),\\n            re...\n      SUB \t\t\tst.validator),\\n            re...\n      SWAP1 \t\t\tst.validator),\\n            re...\n      REVERT \t\t\tst.validator),\\n            re...\n    tag 638\t\t\tst.validator),\\n            re...\n      JUMPDEST \t\t\tst.validator),\\n            re...\n      PUSH [tag] 640\t\t\tta,\\n            address(reque...\n      JUMP \t\t\tta,\\n            address(reque...\n    tag 636\t\t\tta,\\n            address(reque...\n      JUMPDEST \t\t\tta,\\n            address(reque...\n      PUSH [tag] 641\t\t\tes proof status\\n    /// @p\n      DUP3 \t\t\t    /// @\n      PUSH [tag] 130\t\t\tes proof status\n      JUMP \t\t\tes proof status\\n    /// @p\n    tag 641\t\t\tes proof status\\n    /// @p\n      JUMPDEST \t\t\tes proof status\\n    /// @p\n      ISZERO \t\t\ttes proof status\\n    /// @p\n      PUSH [tag] 642\t\t\tand updates proof status\\n    ...\n      JUMPI \t\t\tand updates proof status\\n    ...\n      PUSH 40\t\t\tand updates proof status\\n    ...\n      MLOAD \t\t\tand updates proof status\\n    ...\n      PUSH 8C379A000000000000000000000000000000000000000000000000000000000\t\t\tand updates proof status\\n    ...\n      DUP2 \t\t\tand updates proof status\\n    ...\n      MSTORE \t\t\tand updates proof status\\n    ...\n      PUSH 4\t\t\tand updates proof status\\n    ...\n      ADD \t\t\tand updates proof status\\n    ...\n      PUSH [tag] 643\t\t\tand updates proof status\\n    ...\n      SWAP1 \t\t\tand updates proof status\\n    ...\n      PUSH [tag] 202\t\t\tand updates proof status\\n    ...\n      JUMP \t\t\tand updates proof status\\n    ...\n    tag 643\t\t\tand updates proof status\\n    ...\n      JUMPDEST \t\t\tand updates proof status\\n    ...\n      PUSH 40\t\t\tand updates proof status\\n    ...\n      MLOAD \t\t\tand updates proof status\\n    ...\n      DUP1 \t\t\tand updates proof status\\n    ...\n      SWAP2 \t\t\tand updates proof status\\n    ...\n      SUB \t\t\tand updates proof status\\n    ...\n      SWAP1 \t\t\tand updates proof status\\n    ...\n      REVERT \t\t\tand updates proof status\\n    ...\n    tag 642\t\t\tand updates proof status\\n    ...\n      JUMPDEST \t\t\tand updates proof status\\n    ...\n    tag 640\t\t\tta,\\n            address(reque...\n      JUMPDEST \t\t\tta,\\n            address(reque...\n      PUSH 0\t\t\t,\\n        uint256[2][2] memo\n      PUSH [tag] 645\t\t\tb,\\n        uint256[2] me\n      PUSH [tag] 220\t\t\tb,\\n        uint256[2] \n      JUMP \t\t\tb,\\n        uint256[2] me\n    tag 645\t\t\tb,\\n        uint256[2] me\n      JUMPDEST \t\t\tb,\\n        uint256[2] me\n      SWAP1 \t\t\t,\\n        uint256[2][2] memor...\n      POP \t\t\t,\\n        uint256[2][2] memor...\n      DUP4 \t\t\ttDisabl\n      DUP2 \t\t\t \n      PUSH 1\t\t\t ) public o\n      ADD \t\t\t ) public o\n      PUSH 0\t\t\t ) public override(Req\n      DUP8 \t\t\terride(Re\n      PUSH FFFFFFFFFFFFFFFF\t\t\t ) public override(Req\n      AND \t\t\t ) public override(Req\n      PUSH FFFFFFFFFFFFFFFF\t\t\t ) public override(Req\n      AND \t\t\t ) public override(Req\n      DUP2 \t\t\t ) public override(Req\n      MSTORE \t\t\t ) public override(Req\n      PUSH 20\t\t\t ) public override(Req\n      ADD \t\t\t ) public override(Req\n      SWAP1 \t\t\t ) public override(Req\n      DUP2 \t\t\t ) public override(Req\n      MSTORE \t\t\t ) public override(Req\n      PUSH 20\t\t\t ) public override(Req\n      ADD \t\t\t ) public override(Req\n      PUSH 0\t\t\t ) public override(Req\n      KECCAK256 \t\t\t ) public override(Req\n      DUP2 \t\t\t ) public override(RequestDisa...\n      DUP2 \t\t\t ) public override(RequestDisa...\n      PUSH [tag] 646\t\t\t ) public override(RequestDisa...\n      SWAP2 \t\t\t ) public override(RequestDisa...\n      SWAP1 \t\t\t ) public override(RequestDisa...\n      PUSH [tag] 647\t\t\t ) public override(RequestDisa...\n      JUMP \t\t\t ) public override(RequestDisa...\n    tag 646\t\t\t ) public override(RequestDisa...\n      JUMPDEST \t\t\t ) public override(RequestDisa...\n      SWAP1 \t\t\t ) public override(RequestDisa...\n      POP \t\t\t ) public override(RequestDisa...\n      POP \t\t\t ) public override(RequestDisa...\n      DUP1 \t\t\ti\n      PUSH 2\t\t\tidatorWhiteli\n      ADD \t\t\tidatorWhiteli\n      DUP6 \t\t\tPVerifier\n      SWAP1 \t\t\tidatorWhitelist, ZKPVerifierB\n      DUP1 \t\t\tidatorWhitelist, ZKPVerifierB\n      PUSH 1\t\t\tidatorWhitelist, ZKPVerifierB\n      DUP2 \t\t\tidatorWhitelist, ZKPVerifierB\n      SLOAD \t\t\tidatorWhitelist, ZKPVerifierB\n      ADD \t\t\tidatorWhitelist, ZKPVerifierB\n      DUP1 \t\t\tidatorWhitelist, ZKPVerifierB\n      DUP3 \t\t\tidatorWhitelist, ZKPVerifierB\n      SSTORE \t\t\tidatorWhitelist, ZKPVerifierB\n      DUP1 \t\t\tidatorWhitelist, ZKPVerifierB\n      SWAP2 \t\t\tidatorWhitelist, ZKPVerifierB\n      POP \t\t\tidatorWhitelist, ZKPVerifierB\n      POP \t\t\tidatorWhitelist, ZKPVerifierB\n      PUSH 1\t\t\tidatorWhitelist, ZKPVerifierB\n      SWAP1 \t\t\tidatorWhitelist, ZKPVerifierB\n      SUB \t\t\tidatorWhitelist, ZKPVerifierB\n      SWAP1 \t\t\tidatorWhitelist, ZKPVerifierB\n      PUSH 0\t\t\tidatorWhitelist, ZKPVerifierB\n      MSTORE \t\t\tidatorWhitelist, ZKPVerifierB\n      PUSH 20\t\t\tidatorWhitelist, ZKPVerifierB\n      PUSH 0\t\t\tidatorWhitelist, ZKPVerifierB\n      KECCAK256 \t\t\tidatorWhitelist, ZKPVerifierB\n      SWAP1 \t\t\tidatorWhitelist, ZKPVerifierB\n      PUSH 4\t\t\tidatorWhitelist, ZKPVerifierB\n      SWAP2 \t\t\tidatorWhitelist, ZKPVerifierB\n      DUP3 \t\t\tidatorWhitelist, ZKPVerifierB\n      DUP3 \t\t\tidatorWhitelist, ZKPVerifierB\n      DIV \t\t\tidatorWhitelist, ZKPVerifierB\n      ADD \t\t\tidatorWhitelist, ZKPVerifierB\n      SWAP2 \t\t\tidatorWhitelist, ZKPVerifierB\n      SWAP1 \t\t\tidatorWhitelist, ZKPVerifierB\n      MOD \t\t\tidatorWhitelist, ZKPVerifierB\n      PUSH 8\t\t\tidatorWhitelist, ZKPVerifierB\n      MUL \t\t\tidatorWhitelist, ZKPVerifierB\n      SWAP1 \t\t\tidatorWhitelist, ZKPVerifierB\n      SWAP2 \t\t\tidatorWhitelist, ZKPVerifierB\n      SWAP1 \t\t\tidatorWhitelist, ZKPVerifierB\n      SWAP2 \t\t\tidatorWhitelist, ZKPVerifierB\n      SWAP1 \t\t\tidatorWhitelist, ZKPVerifierB\n      SWAP2 \t\t\tidatorWhitelist, ZKPVerifierB\n      PUSH 100\t\t\tidatorWhitelist, ZKPVerifierB\n      EXP \t\t\tidatorWhitelist, ZKPVerifierB\n      DUP2 \t\t\tidatorWhitelist, ZKPVerifierB\n      SLOAD \t\t\tidatorWhitelist, ZKPVerifierB\n      DUP2 \t\t\tidatorWhitelist, ZKPVerifierB\n      PUSH FFFFFFFFFFFFFFFF\t\t\tidatorWhitelist, ZKPVerifierB\n      MUL \t\t\tidatorWhitelist, ZKPVerifierB\n      NOT \t\t\tidatorWhitelist, ZKPVerifierB\n      AND \t\t\tidatorWhitelist, ZKPVerifierB\n      SWAP1 \t\t\tidatorWhitelist, ZKPVerifierB\n      DUP4 \t\t\tidatorWhitelist, ZKPVerifierB\n      PUSH FFFFFFFFFFFFFFFF\t\t\tidatorWhitelist, ZKPVerifierB\n      AND \t\t\tidatorWhitelist, ZKPVerifierB\n      MUL \t\t\tidatorWhitelist, ZKPVerifierB\n      OR \t\t\tidatorWhitelist, ZKPVerifierB\n      SWAP1 \t\t\tidatorWhitelist, ZKPVerifierB\n      SSTORE \t\t\tidatorWhitelist, ZKPVerifierB\n      POP \t\t\tidatorWhitelist, ZKPVerifierB\n      POP \t\t\t] memory a,\\n        uint256[2...\n      POP \t\t\tf\\n    /// @param c The third ...\n      POP \t\t\tf\\n    /// @param c The third ...\n      POP \t\t\tf\\n    /// @param c The third ...\n      POP \t\t\tf\\n    /// @param c The third ...\n      JUMP \t\t\tf\\n    /// @param c The third ...\n    tag 615\t\t\tainProof The list of cross cha...\n      JUMPDEST \t\t\tainProof The list of cross cha...\n      DUP5 \t\t\t\\n        \n      PUSH 1\t\t\ttes \n      DUP1 \t\t\t         \n      ISZERO \t\t\tta,\\n            address(reque...\n      PUSH [tag] 650\t\t\tta,\\n            address(reque...\n      JUMPI \t\t\tta,\\n            address(reque...\n      PUSH [tag] 651\t\t\tator),\\n            request\n      DUP3 \t\t\t   reques\n      PUSH [tag] 130\t\t\tator),\\n        \n      JUMP \t\t\tator),\\n            request\n    tag 651\t\t\tator),\\n            request\n      JUMPDEST \t\t\tator),\\n            request\n      PUSH [tag] 652\t\t\tst.validator),\\n            re...\n      JUMPI \t\t\tst.validator),\\n            re...\n      PUSH 40\t\t\tst.validator),\\n            re...\n      MLOAD \t\t\tst.validator),\\n            re...\n      PUSH 8C379A000000000000000000000000000000000000000000000000000000000\t\t\tst.validator),\\n            re...\n      DUP2 \t\t\tst.validator),\\n            re...\n      MSTORE \t\t\tst.validator),\\n            re...\n      PUSH 4\t\t\tst.validator),\\n            re...\n      ADD \t\t\tst.validator),\\n            re...\n      PUSH [tag] 653\t\t\tst.validator),\\n            re...\n      SWAP1 \t\t\tst.validator),\\n            re...\n      PUSH [tag] 197\t\t\tst.validator),\\n            re...\n      JUMP \t\t\tst.validator),\\n            re...\n    tag 653\t\t\tst.validator),\\n            re...\n      JUMPDEST \t\t\tst.validator),\\n            re...\n      PUSH 40\t\t\tst.validator),\\n            re...\n      MLOAD \t\t\tst.validator),\\n            re...\n      DUP1 \t\t\tst.validator),\\n            re...\n      SWAP2 \t\t\tst.validator),\\n            re...\n      SUB \t\t\tst.validator),\\n            re...\n      SWAP1 \t\t\tst.validator),\\n            re...\n      REVERT \t\t\tst.validator),\\n            re...\n    tag 652\t\t\tst.validator),\\n            re...\n      JUMPDEST \t\t\tst.validator),\\n            re...\n      PUSH [tag] 654\t\t\tta,\\n            address(reque...\n      JUMP \t\t\tta,\\n            address(reque...\n    tag 650\t\t\tta,\\n            address(reque...\n      JUMPDEST \t\t\tta,\\n            address(reque...\n      PUSH [tag] 655\t\t\tes proof status\\n    /// @p\n      DUP3 \t\t\t    /// @\n      PUSH [tag] 130\t\t\tes proof status\n      JUMP \t\t\tes proof status\\n    /// @p\n    tag 655\t\t\tes proof status\\n    /// @p\n      JUMPDEST \t\t\tes proof status\\n    /// @p\n      ISZERO \t\t\ttes proof status\\n    /// @p\n      PUSH [tag] 656\t\t\tand updates proof status\\n    ...\n      JUMPI \t\t\tand updates proof status\\n    ...\n      PUSH 40\t\t\tand updates proof status\\n    ...\n      MLOAD \t\t\tand updates proof status\\n    ...\n      PUSH 8C379A000000000000000000000000000000000000000000000000000000000\t\t\tand updates proof status\\n    ...\n      DUP2 \t\t\tand updates proof status\\n    ...\n      MSTORE \t\t\tand updates proof status\\n    ...\n      PUSH 4\t\t\tand updates proof status\\n    ...\n      ADD \t\t\tand updates proof status\\n    ...\n      PUSH [tag] 657\t\t\tand updates proof status\\n    ...\n      SWAP1 \t\t\tand updates proof status\\n    ...\n      PUSH [tag] 202\t\t\tand updates proof status\\n    ...\n      JUMP \t\t\tand updates proof status\\n    ...\n    tag 657\t\t\tand updates proof status\\n    ...\n      JUMPDEST \t\t\tand updates proof status\\n    ...\n      PUSH 40\t\t\tand updates proof status\\n    ...\n      MLOAD \t\t\tand updates proof status\\n    ...\n      DUP1 \t\t\tand updates proof status\\n    ...\n      SWAP2 \t\t\tand updates proof status\\n    ...\n      SUB \t\t\tand updates proof status\\n    ...\n      SWAP1 \t\t\tand updates proof status\\n    ...\n      REVERT \t\t\tand updates proof status\\n    ...\n    tag 656\t\t\tand updates proof status\\n    ...\n      JUMPDEST \t\t\tand updates proof status\\n    ...\n    tag 654\t\t\tta,\\n            address(reque...\n      JUMPDEST \t\t\tta,\\n            address(reque...\n      PUSH 0\t\t\tChainProof\\n   \n      PUSH [tag] 659\t\t\tpublic overr\n      PUSH [tag] 208\t\t\tpublic ove\n      JUMP \t\t\tpublic overr\n    tag 659\t\t\tpublic overr\n      JUMPDEST \t\t\tpublic overr\n      SWAP1 \t\t\tChainProof\\n    ) public overr\n      POP \t\t\tChainProof\\n    ) public overr\n      PUSH 0\t\t\t    super.submitZKPResponseV\n      PUSH [tag] 660\t\t\tesponses, crossChainProo\n      PUSH [tag] 220\t\t\tesponses, crossChainPr\n      JUMP \t\t\tesponses, crossChainProo\n    tag 660\t\t\tesponses, crossChainProo\n      JUMPDEST \t\t\tesponses, crossChainProo\n      SWAP1 \t\t\t    super.submitZKPResponseV2(...\n      POP \t\t\t    super.submitZKPResponseV2(...\n      PUSH 0\t\t\t for (uint256 i = 0; i < respo...\n      DUP2 \t\t\t;\n      PUSH 1\t\t\t; i++) {\\n  \n      ADD \t\t\t; i++) {\\n  \n      PUSH 0\t\t\t; i++) {\\n            e\n      DUP12 \t\t\t         \n      PUSH FFFFFFFFFFFFFFFF\t\t\t; i++) {\\n            e\n      AND \t\t\t; i++) {\\n            e\n      PUSH FFFFFFFFFFFFFFFF\t\t\t; i++) {\\n            e\n      AND \t\t\t; i++) {\\n            e\n      DUP2 \t\t\t; i++) {\\n            e\n      MSTORE \t\t\t; i++) {\\n            e\n      PUSH 20\t\t\t; i++) {\\n            e\n      ADD \t\t\t; i++) {\\n            e\n      SWAP1 \t\t\t; i++) {\\n            e\n      DUP2 \t\t\t; i++) {\\n            e\n      MSTORE \t\t\t; i++) {\\n            e\n      PUSH 20\t\t\t; i++) {\\n            e\n      ADD \t\t\t; i++) {\\n            e\n      PUSH 0\t\t\t; i++) {\\n            e\n      KECCAK256 \t\t\t; i++) {\\n            e\n      PUSH 40\t\t\t for (uint256 i = 0; i < respo...\n      MLOAD \t\t\t for (uint256 i = 0; i < respo...\n      DUP1 \t\t\t for (uint256 i = 0; i < respo...\n      PUSH 60\t\t\t for (uint256 i = 0; i < respo...\n      ADD \t\t\t for (uint256 i = 0; i < respo...\n      PUSH 40\t\t\t for (uint256 i = 0; i < respo...\n      MSTORE \t\t\t for (uint256 i = 0; i < respo...\n      SWAP1 \t\t\t for (uint256 i = 0; i < respo...\n      DUP2 \t\t\t for (uint256 i = 0; i < respo...\n      PUSH 0\t\t\t for (uint256 i = 0; i < respo...\n      DUP3 \t\t\t for (uint256 i = 0; i < respo...\n      ADD \t\t\t for (uint256 i = 0; i < respo...\n      DUP1 \t\t\t for (uint256 i = 0; i < respo...\n      SLOAD \t\t\t for (uint256 i = 0; i < respo...\n      PUSH [tag] 661\t\t\t for (uint256 i = 0; i < respo...\n      SWAP1 \t\t\t for (uint256 i = 0; i < respo...\n      PUSH [tag] 283\t\t\t for (uint256 i = 0; i < respo...\n      JUMP \t\t\t for (uint256 i = 0; i < respo...\n    tag 661\t\t\t for (uint256 i = 0; i < respo...\n      JUMPDEST \t\t\t for (uint256 i = 0; i < respo...\n      DUP1 \t\t\t for (uint256 i = 0; i < respo...\n      PUSH 1F\t\t\t for (uint256 i = 0; i < respo...\n      ADD \t\t\t for (uint256 i = 0; i < respo...\n      PUSH 20\t\t\t for (uint256 i = 0; i < respo...\n      DUP1 \t\t\t for (uint256 i = 0; i < respo...\n      SWAP2 \t\t\t for (uint256 i = 0; i < respo...\n      DIV \t\t\t for (uint256 i = 0; i < respo...\n      MUL \t\t\t for (uint256 i = 0; i < respo...\n      PUSH 20\t\t\t for (uint256 i = 0; i < respo...\n      ADD \t\t\t for (uint256 i = 0; i < respo...\n      PUSH 40\t\t\t for (uint256 i = 0; i < respo...\n      MLOAD \t\t\t for (uint256 i = 0; i < respo...\n      SWAP1 \t\t\t for (uint256 i = 0; i < respo...\n      DUP2 \t\t\t for (uint256 i = 0; i < respo...\n      ADD \t\t\t for (uint256 i = 0; i < respo...\n      PUSH 40\t\t\t for (uint256 i = 0; i < respo...\n      MSTORE \t\t\t for (uint256 i = 0; i < respo...\n      DUP1 \t\t\t for (uint256 i = 0; i < respo...\n      SWAP3 \t\t\t for (uint256 i = 0; i < respo...\n      SWAP2 \t\t\t for (uint256 i = 0; i < respo...\n      SWAP1 \t\t\t for (uint256 i = 0; i < respo...\n      DUP2 \t\t\t for (uint256 i = 0; i < respo...\n      DUP2 \t\t\t for (uint256 i = 0; i < respo...\n      MSTORE \t\t\t for (uint256 i = 0; i < respo...\n      PUSH 20\t\t\t for (uint256 i = 0; i < respo...\n      ADD \t\t\t for (uint256 i = 0; i < respo...\n      DUP3 \t\t\t for (uint256 i = 0; i < respo...\n      DUP1 \t\t\t for (uint256 i = 0; i < respo...\n      SLOAD \t\t\t for (uint256 i = 0; i < respo...\n      PUSH [tag] 662\t\t\t for (uint256 i = 0; i < respo...\n      SWAP1 \t\t\t for (uint256 i = 0; i < respo...\n      PUSH [tag] 283\t\t\t for (uint256 i = 0; i < respo...\n      JUMP \t\t\t for (uint256 i = 0; i < respo...\n    tag 662\t\t\t for (uint256 i = 0; i < respo...\n      JUMPDEST \t\t\t for (uint256 i = 0; i < respo...\n      DUP1 \t\t\t for (uint256 i = 0; i < respo...\n      ISZERO \t\t\t for (uint256 i = 0; i < respo...\n      PUSH [tag] 663\t\t\t for (uint256 i = 0; i < respo...\n      JUMPI \t\t\t for (uint256 i = 0; i < respo...\n      DUP1 \t\t\t for (uint256 i = 0; i < respo...\n      PUSH 1F\t\t\t for (uint256 i = 0; i < respo...\n      LT \t\t\t for (uint256 i = 0; i < respo...\n      PUSH [tag] 664\t\t\t for (uint256 i = 0; i < respo...\n      JUMPI \t\t\t for (uint256 i = 0; i < respo...\n      PUSH 100\t\t\t for (uint256 i = 0; i < respo...\n      DUP1 \t\t\t for (uint256 i = 0; i < respo...\n      DUP4 \t\t\t for (uint256 i = 0; i < respo...\n      SLOAD \t\t\t for (uint256 i = 0; i < respo...\n      DIV \t\t\t for (uint256 i = 0; i < respo...\n      MUL \t\t\t for (uint256 i = 0; i < respo...\n      DUP4 \t\t\t for (uint256 i = 0; i < respo...\n      MSTORE \t\t\t for (uint256 i = 0; i < respo...\n      SWAP2 \t\t\t for (uint256 i = 0; i < respo...\n      PUSH 20\t\t\t for (uint256 i = 0; i < respo...\n      ADD \t\t\t for (uint256 i = 0; i < respo...\n      SWAP2 \t\t\t for (uint256 i = 0; i < respo...\n      PUSH [tag] 663\t\t\t for (uint256 i = 0; i < respo...\n      JUMP \t\t\t for (uint256 i = 0; i < respo...\n    tag 664\t\t\t for (uint256 i = 0; i < respo...\n      JUMPDEST \t\t\t for (uint256 i = 0; i < respo...\n      DUP3 \t\t\t for (uint256 i = 0; i < respo...\n      ADD \t\t\t for (uint256 i = 0; i < respo...\n      SWAP2 \t\t\t for (uint256 i = 0; i < respo...\n      SWAP1 \t\t\t for (uint256 i = 0; i < respo...\n      PUSH 0\t\t\t for (uint256 i = 0; i < respo...\n      MSTORE \t\t\t for (uint256 i = 0; i < respo...\n      PUSH 20\t\t\t for (uint256 i = 0; i < respo...\n      PUSH 0\t\t\t for (uint256 i = 0; i < respo...\n      KECCAK256 \t\t\t for (uint256 i = 0; i < respo...\n      SWAP1 \t\t\t for (uint256 i = 0; i < respo...\n    tag 665\t\t\t for (uint256 i = 0; i < respo...\n      JUMPDEST \t\t\t for (uint256 i = 0; i < respo...\n      DUP2 \t\t\t for (uint256 i = 0; i < respo...\n      SLOAD \t\t\t for (uint256 i = 0; i < respo...\n      DUP2 \t\t\t for (uint256 i = 0; i < respo...\n      MSTORE \t\t\t for (uint256 i = 0; i < respo...\n      SWAP1 \t\t\t for (uint256 i = 0; i < respo...\n      PUSH 1\t\t\t for (uint256 i = 0; i < respo...\n      ADD \t\t\t for (uint256 i = 0; i < respo...\n      SWAP1 \t\t\t for (uint256 i = 0; i < respo...\n      PUSH 20\t\t\t for (uint256 i = 0; i < respo...\n      ADD \t\t\t for (uint256 i = 0; i < respo...\n      DUP1 \t\t\t for (uint256 i = 0; i < respo...\n      DUP4 \t\t\t for (uint256 i = 0; i < respo...\n      GT \t\t\t for (uint256 i = 0; i < respo...\n      PUSH [tag] 665\t\t\t for (uint256 i = 0; i < respo...\n      JUMPI \t\t\t for (uint256 i = 0; i < respo...\n      DUP3 \t\t\t for (uint256 i = 0; i < respo...\n      SWAP1 \t\t\t for (uint256 i = 0; i < respo...\n      SUB \t\t\t for (uint256 i = 0; i < respo...\n      PUSH 1F\t\t\t for (uint256 i = 0; i < respo...\n      AND \t\t\t for (uint256 i = 0; i < respo...\n      DUP3 \t\t\t for (uint256 i = 0; i < respo...\n      ADD \t\t\t for (uint256 i = 0; i < respo...\n      SWAP2 \t\t\t for (uint256 i = 0; i < respo...\n    tag 663\t\t\t for (uint256 i = 0; i < respo...\n      JUMPDEST \t\t\t for (uint256 i = 0; i < respo...\n      POP \t\t\t for (uint256 i = 0; i < respo...\n      POP \t\t\t for (uint256 i = 0; i < respo...\n      POP \t\t\t for (uint256 i = 0; i < respo...\n      POP \t\t\t for (uint256 i = 0; i < respo...\n      POP \t\t\t for (uint256 i = 0; i < respo...\n      DUP2 \t\t\t for (uint256 i = 0; i < respo...\n      MSTORE \t\t\t for (uint256 i = 0; i < respo...\n      PUSH 20\t\t\t for (uint256 i = 0; i < respo...\n      ADD \t\t\t for (uint256 i = 0; i < respo...\n      PUSH 1\t\t\t for (uint256 i = 0; i < respo...\n      DUP3 \t\t\t for (uint256 i = 0; i < respo...\n      ADD \t\t\t for (uint256 i = 0; i < respo...\n      PUSH 0\t\t\t for (uint256 i = 0; i < respo...\n      SWAP1 \t\t\t for (uint256 i = 0; i < respo...\n      SLOAD \t\t\t for (uint256 i = 0; i < respo...\n      SWAP1 \t\t\t for (uint256 i = 0; i < respo...\n      PUSH 100\t\t\t for (uint256 i = 0; i < respo...\n      EXP \t\t\t for (uint256 i = 0; i < respo...\n      SWAP1 \t\t\t for (uint256 i = 0; i < respo...\n      DIV \t\t\t for (uint256 i = 0; i < respo...\n      PUSH FFFFFFFFFFFFFFFFFFFFFFFFFFFFFFFFFFFFFFFF\t\t\t for (uint256 i = 0; i < respo...\n      AND \t\t\t for (uint256 i = 0; i < respo...\n      PUSH FFFFFFFFFFFFFFFFFFFFFFFFFFFFFFFFFFFFFFFF\t\t\t for (uint256 i = 0; i < respo...\n      AND \t\t\t for (uint256 i = 0; i < respo...\n      PUSH FFFFFFFFFFFFFFFFFFFFFFFFFFFFFFFFFFFFFFFF\t\t\t for (uint256 i = 0; i < respo...\n      AND \t\t\t for (uint256 i = 0; i < respo...\n      DUP2 \t\t\t for (uint256 i = 0; i < respo...\n      MSTORE \t\t\t for (uint256 i = 0; i < respo...\n      PUSH 20\t\t\t for (uint256 i = 0; i < respo...\n      ADD \t\t\t for (uint256 i = 0; i < respo...\n      PUSH 2\t\t\t for (uint256 i = 0; i < respo...\n      DUP3 \t\t\t for (uint256 i = 0; i < respo...\n      ADD \t\t\t for (uint256 i = 0; i < respo...\n      DUP1 \t\t\t for (uint256 i = 0; i < respo...\n      SLOAD \t\t\t for (uint256 i = 0; i < respo...\n      PUSH [tag] 666\t\t\t for (uint256 i = 0; i < respo...\n      SWAP1 \t\t\t for (uint256 i = 0; i < respo...\n      PUSH [tag] 283\t\t\t for (uint256 i = 0; i < respo...\n      JUMP \t\t\t for (uint256 i = 0; i < respo...\n    tag 666\t\t\t for (uint256 i = 0; i < respo...\n      JUMPDEST \t\t\t for (uint256 i = 0; i < respo...\n      DUP1 \t\t\t for (uint256 i = 0; i < respo...\n      PUSH 1F\t\t\t for (uint256 i = 0; i < respo...\n      ADD \t\t\t for (uint256 i = 0; i < respo...\n      PUSH 20\t\t\t for (uint256 i = 0; i < respo...\n      DUP1 \t\t\t for (uint256 i = 0; i < respo...\n      SWAP2 \t\t\t for (uint256 i = 0; i < respo...\n      DIV \t\t\t for (uint256 i = 0; i < respo...\n      MUL \t\t\t for (uint256 i = 0; i < respo...\n      PUSH 20\t\t\t for (uint256 i = 0; i < respo...\n      ADD \t\t\t for (uint256 i = 0; i < respo...\n      PUSH 40\t\t\t for (uint256 i = 0; i < respo...\n      MLOAD \t\t\t for (uint256 i = 0; i < respo...\n      SWAP1 \t\t\t for (uint256 i = 0; i < respo...\n      DUP2 \t\t\t for (uint256 i = 0; i < respo...\n      ADD \t\t\t for (uint256 i = 0; i < respo...\n      PUSH 40\t\t\t for (uint256 i = 0; i < respo...\n      MSTORE \t\t\t for (uint256 i = 0; i < respo...\n      DUP1 \t\t\t for (uint256 i = 0; i < respo...\n      SWAP3 \t\t\t for (uint256 i = 0; i < respo...\n      SWAP2 \t\t\t for (uint256 i = 0; i < respo...\n      SWAP1 \t\t\t for (uint256 i = 0; i < respo...\n      DUP2 \t\t\t for (uint256 i = 0; i < respo...\n      DUP2 \t\t\t for (uint256 i = 0; i < respo...\n      MSTORE \t\t\t for (uint256 i = 0; i < respo...\n      PUSH 20\t\t\t for (uint256 i = 0; i < respo...\n      ADD \t\t\t for (uint256 i = 0; i < respo...\n      DUP3 \t\t\t for (uint256 i = 0; i < respo...\n      DUP1 \t\t\t for (uint256 i = 0; i < respo...\n      SLOAD \t\t\t for (uint256 i = 0; i < respo...\n      PUSH [tag] 667\t\t\t for (uint256 i = 0; i < respo...\n      SWAP1 \t\t\t for (uint256 i = 0; i < respo...\n      PUSH [tag] 283\t\t\t for (uint256 i = 0; i < respo...\n      JUMP \t\t\t for (uint256 i = 0; i < respo...\n    tag 667\t\t\t for (uint256 i = 0; i < respo...\n      JUMPDEST \t\t\t for (uint256 i = 0; i < respo...\n      DUP1 \t\t\t for (uint256 i = 0; i < respo...\n      ISZERO \t\t\t for (uint256 i = 0; i < respo...\n      PUSH [tag] 668\t\t\t for (uint256 i = 0; i < respo...\n      JUMPI \t\t\t for (uint256 i = 0; i < respo...\n      DUP1 \t\t\t for (uint256 i = 0; i < respo...\n      PUSH 1F\t\t\t for (uint256 i = 0; i < respo...\n      LT \t\t\t for (uint256 i = 0; i < respo...\n      PUSH [tag] 669\t\t\t for (uint256 i = 0; i < respo...\n      JUMPI \t\t\t for (uint256 i = 0; i < respo...\n      PUSH 100\t\t\t for (uint256 i = 0; i < respo...\n      DUP1 \t\t\t for (uint256 i = 0; i < respo...\n      DUP4 \t\t\t for (uint256 i = 0; i < respo...\n      SLOAD \t\t\t for (uint256 i = 0; i < respo...\n      DIV \t\t\t for (uint256 i = 0; i < respo...\n      MUL \t\t\t for (uint256 i = 0; i < respo...\n      DUP4 \t\t\t for (uint256 i = 0; i < respo...\n      MSTORE \t\t\t for (uint256 i = 0; i < respo...\n      SWAP2 \t\t\t for (uint256 i = 0; i < respo...\n      PUSH 20\t\t\t for (uint256 i = 0; i < respo...\n      ADD \t\t\t for (uint256 i = 0; i < respo...\n      SWAP2 \t\t\t for (uint256 i = 0; i < respo...\n      PUSH [tag] 668\t\t\t for (uint256 i = 0; i < respo...\n      JUMP \t\t\t for (uint256 i = 0; i < respo...\n    tag 669\t\t\t for (uint256 i = 0; i < respo...\n      JUMPDEST \t\t\t for (uint256 i = 0; i < respo...\n      DUP3 \t\t\t for (uint256 i = 0; i < respo...\n      ADD \t\t\t for (uint256 i = 0; i < respo...\n      SWAP2 \t\t\t for (uint256 i = 0; i < respo...\n      SWAP1 \t\t\t for (uint256 i = 0; i < respo...\n      PUSH 0\t\t\t for (uint256 i = 0; i < respo...\n      MSTORE \t\t\t for (uint256 i = 0; i < respo...\n      PUSH 20\t\t\t for (uint256 i = 0; i < respo...\n      PUSH 0\t\t\t for (uint256 i = 0; i < respo...\n      KECCAK256 \t\t\t for (uint256 i = 0; i < respo...\n      SWAP1 \t\t\t for (uint256 i = 0; i < respo...\n    tag 670\t\t\t for (uint256 i = 0; i < respo...\n      JUMPDEST \t\t\t for (uint256 i = 0; i < respo...\n      DUP2 \t\t\t for (uint256 i = 0; i < respo...\n      SLOAD \t\t\t for (uint256 i = 0; i < respo...\n      DUP2 \t\t\t for (uint256 i = 0; i < respo...\n      MSTORE \t\t\t for (uint256 i = 0; i < respo...\n      SWAP1 \t\t\t for (uint256 i = 0; i < respo...\n      PUSH 1\t\t\t for (uint256 i = 0; i < respo...\n      ADD \t\t\t for (uint256 i = 0; i < respo...\n      SWAP1 \t\t\t for (uint256 i = 0; i < respo...\n      PUSH 20\t\t\t for (uint256 i = 0; i < respo...\n      ADD \t\t\t for (uint256 i = 0; i < respo...\n      DUP1 \t\t\t for (uint256 i = 0; i < respo...\n      DUP4 \t\t\t for (uint256 i = 0; i < respo...\n      GT \t\t\t for (uint256 i = 0; i < respo...\n      PUSH [tag] 670\t\t\t for (uint256 i = 0; i < respo...\n      JUMPI \t\t\t for (uint256 i = 0; i < respo...\n      DUP3 \t\t\t for (uint256 i = 0; i < respo...\n      SWAP1 \t\t\t for (uint256 i = 0; i < respo...\n      SUB \t\t\t for (uint256 i = 0; i < respo...\n      PUSH 1F\t\t\t for (uint256 i = 0; i < respo...\n      AND \t\t\t for (uint256 i = 0; i < respo...\n      DUP3 \t\t\t for (uint256 i = 0; i < respo...\n      ADD \t\t\t for (uint256 i = 0; i < respo...\n      SWAP2 \t\t\t for (uint256 i = 0; i < respo...\n    tag 668\t\t\t for (uint256 i = 0; i < respo...\n      JUMPDEST \t\t\t for (uint256 i = 0; i < respo...\n      POP \t\t\t for (uint256 i = 0; i < respo...\n      POP \t\t\t for (uint256 i = 0; i < respo...\n      POP \t\t\t for (uint256 i = 0; i < respo...\n      POP \t\t\t for (uint256 i = 0; i < respo...\n      POP \t\t\t for (uint256 i = 0; i < respo...\n      DUP2 \t\t\t for (uint256 i = 0; i < respo...\n      MSTORE \t\t\t for (uint256 i = 0; i < respo...\n      POP \t\t\t for (uint256 i = 0; i < respo...\n      POP \t\t\t for (uint256 i = 0; i < respo...\n      SWAP1 \t\t\t for (uint256 i = 0; i < respo...\n      POP \t\t\t for (uint256 i = 0; i < respo...\n      PUSH 0\t\t\tponseSubmitted(responses[i].re...\n      DUP2 \t\t\t    }\\n \n      PUSH 20\t\t\t    }\\n    }\\n\\n    \n      ADD \t\t\t    }\\n    }\\n\\n    \n      MLOAD \t\t\t    }\\n    }\\n\\n    \n      PUSH FFFFFFFFFFFFFFFFFFFFFFFFFFFFFFFFFFFFFFFF\t\t\t    }\\n    }\\n\\n    /// @de\n      AND \t\t\t    }\\n    }\\n\\n    /// @de\n      PUSH F177A69E\t\t\t    }\\n    }\\n\\n    /// @de\n      DUP12 \t\t\tKP res\n      DUP12 \t\t\tu\n      DUP12 \t\t\to\n      DUP12 \t\t\t/\n      DUP8 \t\t\testId T\n      PUSH 40\t\t\testId The ID\n      ADD \t\t\testId The ID\n      MLOAD \t\t\testId The ID\n      DUP11 \t\t\tquest\\n\n      PUSH 40\t\t\t    }\\n    }\\n\\n    /// @dev V...\n      MLOAD \t\t\t    }\\n    }\\n\\n    /// @dev V...\n      DUP8 \t\t\t    }\\n    }\\n\\n    /// @dev V...\n      PUSH FFFFFFFF\t\t\t    }\\n    }\\n\\n    /// @dev V...\n      AND \t\t\t    }\\n    }\\n\\n    /// @dev V...\n      PUSH E0\t\t\t    }\\n    }\\n\\n    /// @dev V...\n      SHL \t\t\t    }\\n    }\\n\\n    /// @dev V...\n      DUP2 \t\t\t    }\\n    }\\n\\n    /// @dev V...\n      MSTORE \t\t\t    }\\n    }\\n\\n    /// @dev V...\n      PUSH 4\t\t\t    }\\n    }\\n\\n    /// @dev V...\n      ADD \t\t\t    }\\n    }\\n\\n    /// @dev V...\n      PUSH [tag] 671\t\t\t    }\\n    }\\n\\n    /// @dev V...\n      SWAP7 \t\t\t    }\\n    }\\n\\n    /// @dev V...\n      SWAP6 \t\t\t    }\\n    }\\n\\n    /// @dev V...\n      SWAP5 \t\t\t    }\\n    }\\n\\n    /// @dev V...\n      SWAP4 \t\t\t    }\\n    }\\n\\n    /// @dev V...\n      SWAP3 \t\t\t    }\\n    }\\n\\n    /// @dev V...\n      SWAP2 \t\t\t    }\\n    }\\n\\n    /// @dev V...\n      SWAP1 \t\t\t    }\\n    }\\n\\n    /// @dev V...\n      PUSH [tag] 672\t\t\t    }\\n    }\\n\\n    /// @dev V...\n      JUMP \t\t\t    }\\n    }\\n\\n    /// @dev V...\n    tag 671\t\t\t    }\\n    }\\n\\n    /// @dev V...\n      JUMPDEST \t\t\t    }\\n    }\\n\\n    /// @dev V...\n      PUSH 0\t\t\t    }\\n    }\\n\\n    /// @dev V...\n      PUSH 40\t\t\t    }\\n    }\\n\\n    /// @dev V...\n      MLOAD \t\t\t    }\\n    }\\n\\n    /// @dev V...\n      DUP1 \t\t\t    }\\n    }\\n\\n    /// @dev V...\n      DUP4 \t\t\t    }\\n    }\\n\\n    /// @dev V...\n      SUB \t\t\t    }\\n    }\\n\\n    /// @dev V...\n      DUP2 \t\t\t    }\\n    }\\n\\n    /// @dev V...\n      PUSH 0\t\t\t    }\\n    }\\n\\n    /// @dev V...\n      DUP8 \t\t\t    }\\n    }\\n\\n    /// @dev V...\n      GAS \t\t\t    }\\n    }\\n\\n    /// @dev V...\n      CALL \t\t\t    }\\n    }\\n\\n    /// @dev V...\n      ISZERO \t\t\t    }\\n    }\\n\\n    /// @dev V...\n      DUP1 \t\t\t    }\\n    }\\n\\n    /// @dev V...\n      ISZERO \t\t\t    }\\n    }\\n\\n    /// @dev V...\n      PUSH [tag] 674\t\t\t    }\\n    }\\n\\n    /// @dev V...\n      JUMPI \t\t\t    }\\n    }\\n\\n    /// @dev V...\n      RETURNDATASIZE \t\t\t    }\\n    }\\n\\n    /// @dev V...\n      PUSH 0\t\t\t    }\\n    }\\n\\n    /// @dev V...\n      PUSH 0\t\t\t    }\\n    }\\n\\n    /// @dev V...\n      RETURNDATACOPY \t\t\t    }\\n    }\\n\\n    /// @dev V...\n      RETURNDATASIZE \t\t\t    }\\n    }\\n\\n    /// @dev V...\n      PUSH 0\t\t\t    }\\n    }\\n\\n    /// @dev V...\n      REVERT \t\t\t    }\\n    }\\n\\n    /// @dev V...\n    tag 674\t\t\t    }\\n    }\\n\\n    /// @dev V...\n      JUMPDEST \t\t\t    }\\n    }\\n\\n    /// @dev V...\n      POP \t\t\t    }\\n    }\\n\\n    /// @dev V...\n      POP \t\t\t    }\\n    }\\n\\n    /// @dev V...\n      POP \t\t\t    }\\n    }\\n\\n    /// @dev V...\n      POP \t\t\t    }\\n    }\\n\\n    /// @dev V...\n      PUSH 40\t\t\t    }\\n    }\\n\\n    /// @dev V...\n      MLOAD \t\t\t    }\\n    }\\n\\n    /// @dev V...\n      RETURNDATASIZE \t\t\t    }\\n    }\\n\\n    /// @dev V...\n      PUSH 0\t\t\t    }\\n    }\\n\\n    /// @dev V...\n      DUP3 \t\t\t    }\\n    }\\n\\n    /// @dev V...\n      RETURNDATACOPY \t\t\t    }\\n    }\\n\\n    /// @dev V...\n      RETURNDATASIZE \t\t\t    }\\n    }\\n\\n    /// @dev V...\n      PUSH 1F\t\t\t    }\\n    }\\n\\n    /// @dev V...\n      NOT \t\t\t    }\\n    }\\n\\n    /// @dev V...\n      PUSH 1F\t\t\t    }\\n    }\\n\\n    /// @dev V...\n      DUP3 \t\t\t    }\\n    }\\n\\n    /// @dev V...\n      ADD \t\t\t    }\\n    }\\n\\n    /// @dev V...\n      AND \t\t\t    }\\n    }\\n\\n    /// @dev V...\n      DUP3 \t\t\t    }\\n    }\\n\\n    /// @dev V...\n      ADD \t\t\t    }\\n    }\\n\\n    /// @dev V...\n      DUP1 \t\t\t    }\\n    }\\n\\n    /// @dev V...\n      PUSH 40\t\t\t    }\\n    }\\n\\n    /// @dev V...\n      MSTORE \t\t\t    }\\n    }\\n\\n    /// @dev V...\n      POP \t\t\t    }\\n    }\\n\\n    /// @dev V...\n      DUP2 \t\t\t    }\\n    }\\n\\n    /// @dev V...\n      ADD \t\t\t    }\\n    }\\n\\n    /// @dev V...\n      SWAP1 \t\t\t    }\\n    }\\n\\n    /// @dev V...\n      PUSH [tag] 675\t\t\t    }\\n    }\\n\\n    /// @dev V...\n      SWAP2 \t\t\t    }\\n    }\\n\\n    /// @dev V...\n      SWAP1 \t\t\t    }\\n    }\\n\\n    /// @dev V...\n      PUSH [tag] 634\t\t\t    }\\n    }\\n\\n    /// @dev V...\n      JUMP \t\t\t    }\\n    }\\n\\n    /// @dev V...\n    tag 675\t\t\t    }\\n    }\\n\\n    /// @dev V...\n      JUMPDEST \t\t\t    }\\n    }\\n\\n    /// @dev V...\n      SWAP1 \t\t\tponseSubmitted(responses[i].re...\n      POP \t\t\tponseSubmitted(responses[i].re...\n      DUP3 \t\t\t \n      PUSHLIB .deps/npm/@iden3/contracts/lib/VerifierLib.sol:VerifierLib\t\t\t The public inputs \n      PUSH E48754AB\t\t\t The public inputs \n      SWAP1 \t\t\t The public inputs \n      SWAP2 \t\t\t The public inputs \n      DUP7 \t\t\tor the\n      DUP15 \t\t\troof\\n    \n      DUP6 \t\t\t/ @param a T\n      DUP16 \t\t\t first\n      PUSH 40\t\t\t The public inputs for the pro...\n      MLOAD \t\t\t The public inputs for the pro...\n      DUP7 \t\t\t The public inputs for the pro...\n      PUSH FFFFFFFF\t\t\t The public inputs for the pro...\n      AND \t\t\t The public inputs for the pro...\n      PUSH E0\t\t\t The public inputs for the pro...\n      SHL \t\t\t The public inputs for the pro...\n      DUP2 \t\t\t The public inputs for the pro...\n      MSTORE \t\t\t The public inputs for the pro...\n      PUSH 4\t\t\t The public inputs for the pro...\n      ADD \t\t\t The public inputs for the pro...\n      PUSH [tag] 676\t\t\t The public inputs for the pro...\n      SWAP6 \t\t\t The public inputs for the pro...\n      SWAP5 \t\t\t The public inputs for the pro...\n      SWAP4 \t\t\t The public inputs for the pro...\n      SWAP3 \t\t\t The public inputs for the pro...\n      SWAP2 \t\t\t The public inputs for the pro...\n      SWAP1 \t\t\t The public inputs for the pro...\n      PUSH [tag] 677\t\t\t The public inputs for the pro...\n      JUMP \t\t\t The public inputs for the pro...\n    tag 676\t\t\t The public inputs for the pro...\n      JUMPDEST \t\t\t The public inputs for the pro...\n      PUSH 0\t\t\t The public inputs for the pro...\n      PUSH 40\t\t\t The public inputs for the pro...\n      MLOAD \t\t\t The public inputs for the pro...\n      DUP1 \t\t\t The public inputs for the pro...\n      DUP4 \t\t\t The public inputs for the pro...\n      SUB \t\t\t The public inputs for the pro...\n      DUP2 \t\t\t The public inputs for the pro...\n      DUP7 \t\t\t The public inputs for the pro...\n      DUP1 \t\t\t The public inputs for the pro...\n      EXTCODESIZE \t\t\t The public inputs for the pro...\n      ISZERO \t\t\t The public inputs for the pro...\n      DUP1 \t\t\t The public inputs for the pro...\n      ISZERO \t\t\t The public inputs for the pro...\n      PUSH [tag] 678\t\t\t The public inputs for the pro...\n      JUMPI \t\t\t The public inputs for the pro...\n      PUSH 0\t\t\t The public inputs for the pro...\n      PUSH 0\t\t\t The public inputs for the pro...\n      REVERT \t\t\t The public inputs for the pro...\n    tag 678\t\t\t The public inputs for the pro...\n      JUMPDEST \t\t\t The public inputs for the pro...\n      POP \t\t\t The public inputs for the pro...\n      GAS \t\t\t The public inputs for the pro...\n      DELEGATECALL \t\t\t The public inputs for the pro...\n      ISZERO \t\t\t The public inputs for the pro...\n      DUP1 \t\t\t The public inputs for the pro...\n      ISZERO \t\t\t The public inputs for the pro...\n      PUSH [tag] 680\t\t\t The public inputs for the pro...\n      JUMPI \t\t\t The public inputs for the pro...\n      RETURNDATASIZE \t\t\t The public inputs for the pro...\n      PUSH 0\t\t\t The public inputs for the pro...\n      PUSH 0\t\t\t The public inputs for the pro...\n      RETURNDATACOPY \t\t\t The public inputs for the pro...\n      RETURNDATASIZE \t\t\t The public inputs for the pro...\n      PUSH 0\t\t\t The public inputs for the pro...\n      REVERT \t\t\t The public inputs for the pro...\n    tag 680\t\t\t The public inputs for the pro...\n      JUMPDEST \t\t\t The public inputs for the pro...\n      POP \t\t\t The public inputs for the pro...\n      POP \t\t\t The public inputs for the pro...\n      POP \t\t\t The public inputs for the pro...\n      POP \t\t\t The public inputs for the pro...\n      POP \t\t\tmory crossChainProof\\n    ) pu...\n      POP \t\t\tmory crossChainProof\\n    ) pu...\n      POP \t\t\tmory crossChainProof\\n    ) pu...\n      POP \t\t\tmory crossChainProof\\n    ) pu...\n      POP \t\t\tainProof The list of cross cha...\n      POP \t\t\tainProof The list of cross cha...\n      POP \t\t\tainProof The list of cross cha...\n      POP \t\t\tainProof The list of cross cha...\n      POP \t\t\tainProof The list of cross cha...\n      POP \t\t\tainProof The list of cross cha...\n      POP \t\t\tainProof The list of cross cha...\n      JUMP \t\t\tainProof The list of cross cha...\n    tag 275\t\t\t\n      JUMPDEST \t\t\t\n      PUSH 40\t\t\t\n      MLOAD \t\t\t\n      DUP1 \t\t\t\n      PUSH 60\t\t\t\n      ADD \t\t\t\n      PUSH 40\t\t\t\n      MSTORE \t\t\t\n      DUP1 \t\t\t\n      PUSH 60\t\t\t\n      DUP2 \t\t\t\n      MSTORE \t\t\t\n      PUSH 20\t\t\t\n      ADD \t\t\t\n      PUSH 0\t\t\t\n      PUSH FFFFFFFFFFFFFFFFFFFFFFFFFFFFFFFFFFFFFFFF\t\t\t\n      AND \t\t\t\n      DUP2 \t\t\t\n      MSTORE \t\t\t\n      PUSH 20\t\t\t\n      ADD \t\t\t\n      PUSH 60\t\t\t\n      DUP2 \t\t\t\n      MSTORE \t\t\t\n      POP \t\t\t\n      SWAP1 \t\t\t\n      JUMP \t\t\t\n    tag 337\t\t\t\n      JUMPDEST \t\t\t\n      PUSH 40\t\t\t\n      MLOAD \t\t\t\n      DUP1 \t\t\t\n      PUSH 80\t\t\t\n      ADD \t\t\t\n      PUSH 40\t\t\t\n      MSTORE \t\t\t\n      DUP1 \t\t\t\n      PUSH 0\t\t\t\n      ISZERO \t\t\t\n      ISZERO \t\t\t\n      DUP2 \t\t\t\n      MSTORE \t\t\t\n      PUSH 20\t\t\t\n      ADD \t\t\t\n      PUSH 60\t\t\t\n      DUP2 \t\t\t\n      MSTORE \t\t\t\n      PUSH 20\t\t\t\n      ADD \t\t\t\n      PUSH 0\t\t\t\n      DUP2 \t\t\t\n      MSTORE \t\t\t\n      PUSH 20\t\t\t\n      ADD \t\t\t\n      PUSH 0\t\t\t\n      DUP2 \t\t\t\n      MSTORE \t\t\t\n      POP \t\t\t\n      SWAP1 \t\t\t\n      JUMP \t\t\t\n    tag 681\t\t\t-License-Identifier: GPL-3.0\\n...\n      JUMPDEST \t\t\t-License-Identifier: GPL-3.0\\n...\n      PUSH 0\t\t\tma sol\n      PUSH 40\t\t\tbl\n      MLOAD \t\t\t {Ownable\n      SWAP1 \t\t\t7;\\n\\nimport {Ownable\n      POP \t\t\t7;\\n\\nimport {Ownable\n      SWAP1 \t\t\t-License-Identifier: GPL-3.0\\n...\n      JUMP \t\t\t-License-Identifier: GPL-3.0\\n...\n    tag 682\t\t\table} from \"@openzeppelin/cont...\n      JUMPDEST \t\t\table} from \"@openzeppelin/cont...\n      PUSH 0\t\t\tr\n      PUSH 0\t\t\ta\n      REVERT \t\t\titValidator}\n    tag 683\t\t\tterfaces/ICircuitValidator.sol...\n      JUMPDEST \t\t\tterfaces/ICircuitValidator.sol...\n      PUSH 0\t\t\tO\n      PUSH 0\t\t\te\n      REVERT \t\t\tt {RequestOw\n    tag 684\t\t\tm \"./RequestOwnership.sol\";\\ni...\n      JUMPDEST \t\t\tm \"./RequestOwnership.sol\";\\ni...\n      PUSH 0\t\t\tequestD\n      PUSH FFFFFFFFFFFFFFFFFFFFFFFFFFFFFFFFFFFFFFFF\t\t\teable.sol\";\\nimport {Validator...\n      DUP3 \t\t\ttDisa\n      AND \t\t\tquestDisableable.sol\";\\nimport...\n      SWAP1 \t\t\t from \"./RequestDisableable.so...\n      POP \t\t\t from \"./RequestDisableable.so...\n      SWAP2 \t\t\tm \"./RequestOwnership.sol\";\\ni...\n      SWAP1 \t\t\tm \"./RequestOwnership.sol\";\\ni...\n      POP \t\t\tm \"./RequestOwnership.sol\";\\ni...\n      JUMP \t\t\tm \"./RequestOwnership.sol\";\\ni...\n    tag 685\t\t\torWhitelist.sol\";\\nimport {ZKP...\n      JUMPDEST \t\t\torWhitelist.sol\";\\nimport {ZKP...\n      PUSH 0\t\t\tBase} f\n      PUSH [tag] 903\t\t\t.sol\";\\nimport {IState} f\n      DUP3 \t\t\tate} \n      PUSH [tag] 684\t\t\t.sol\";\\nimport {IState} f\n      JUMP \t\t\t.sol\";\\nimport {IState} f\n    tag 903\t\t\t.sol\";\\nimport {IState} f\n      JUMPDEST \t\t\t.sol\";\\nimport {IState} f\n      SWAP1 \t\t\terifierBase.sol\";\\nimport {ISt...\n      POP \t\t\terifierBase.sol\";\\nimport {ISt...\n      SWAP2 \t\t\torWhitelist.sol\";\\nimport {ZKP...\n      SWAP1 \t\t\torWhitelist.sol\";\\nimport {ZKP...\n      POP \t\t\torWhitelist.sol\";\\nimport {ZKP...\n      JUMP \t\t\torWhitelist.sol\";\\nimport {ZKP...\n    tag 686\t\t\trfaces/IState.sol\";\\n\\n/// @ti...\n      JUMPDEST \t\t\trfaces/IState.sol\";\\n\\n/// @ti...\n      PUSH [tag] 905\t\t\t contract to manage ZKP \n      DUP2 \t\t\te ZKP\n      PUSH [tag] 685\t\t\t contract to manage ZKP \n      JUMP \t\t\t contract to manage ZKP \n    tag 905\t\t\t contract to manage ZKP \n      JUMPDEST \t\t\t contract to manage ZKP \n      DUP2 \t\t\totice\n      EQ \t\t\t @notice A contract to manage ...\n      PUSH [tag] 906\t\t\tntract\\n/// @notice A contract...\n      JUMPI \t\t\tntract\\n/// @notice A contract...\n      PUSH 0\t\t\t \n      PUSH 0\t\t\td\n      REVERT \t\t\t-Knowledge P\n    tag 906\t\t\tntract\\n/// @notice A contract...\n      JUMPDEST \t\t\tntract\\n/// @notice A contract...\n      POP \t\t\trfaces/IState.sol\";\\n\\n/// @ti...\n      JUMP \t\t\trfaces/IState.sol\";\\n\\n/// @ti...\n    tag 687\t\t\t and proofs.\\ncontract Univers...\n      JUMPDEST \t\t\t and proofs.\\ncontract Univers...\n      PUSH 0\t\t\t Owna\n      DUP2 \t\t\twnersh\n      CALLDATALOAD \t\t\t\\n    RequestOwnershi\n      SWAP1 \t\t\tradeable,\\n    RequestOwnershi\n      POP \t\t\tradeable,\\n    RequestOwnershi\n      PUSH [tag] 908\t\t\tquestDisableable,\\n    Validat...\n      DUP2 \t\t\tatorW\n      PUSH [tag] 686\t\t\tquestDisableable,\\n    Validat...\n      JUMP \t\t\tquestDisableable,\\n    Validat...\n    tag 908\t\t\tquestDisableable,\\n    Validat...\n      JUMPDEST \t\t\tquestDisableable,\\n    Validat...\n      SWAP3 \t\t\t and proofs.\\ncontract Univers...\n      SWAP2 \t\t\t and proofs.\\ncontract Univers...\n      POP \t\t\t and proofs.\\ncontract Univers...\n      POP \t\t\t and proofs.\\ncontract Univers...\n      JUMP \t\t\t and proofs.\\ncontract Univers...\n    tag 688\t\t\t  /**\\n     * @dev Version of ...\n      JUMPDEST \t\t\t  /**\\n     * @dev Version of ...\n      PUSH 0\t\t\tn\n      PUSH 0\t\t\tE\n      REVERT \t\t\t/ @dev Event\n    tag 689\t\t\tn submitting a ZKP request\\n  ...\n      JUMPDEST \t\t\tn submitting a ZKP request\\n  ...\n      PUSH 0\t\t\t\\n\n      PUSH 0\t\t\t)\n      REVERT \t\t\t caller);\\n\\n \n    tag 690\t\t\tEvent emitted upon adding a ZK...\n      JUMPDEST \t\t\tEvent emitted upon adding a ZK...\n      PUSH 0\t\t\td\n      PUSH 0\t\t\t \n      REVERT \t\t\t        addr\n    tag 691\t\t\t      string metadata,\\n      ...\n      JUMPDEST \t\t\t      string metadata,\\n      ...\n      PUSH 0\t\t\t );\\n\\n   \n      PUSH 0\t\t\t// @de\n      DUP4 \t\t\ttra\n      PUSH 1F\t\t\tthe \n      DUP5 \t\t\tller i\n      ADD \t\t\te caller is the c\n      SLT \t\t\tf the caller is the contrac\n      PUSH [tag] 913\t\t\tto check if the caller is the ...\n      JUMPI \t\t\tto check if the caller is the ...\n      PUSH [tag] 914\t\t\tner or ZKP Request Owner\\n    ...\n      PUSH [tag] 688\t\t\tner or ZKP Request Owner\\n    ...\n      JUMP \t\t\tner or ZKP Request Owner\\n    ...\n    tag 914\t\t\tner or ZKP Request Owner\\n    ...\n      JUMPDEST \t\t\tner or ZKP Request Owner\\n    ...\n    tag 913\t\t\tto check if the caller is the ...\n      JUMPDEST \t\t\tto check if the caller is the ...\n      DUP3 \t\t\tnder()\n      CALLDATALOAD \t\t\tnder = _msgSender();\n      SWAP1 \t\t\taddress sender = _msgSender();\n      POP \t\t\taddress sender = _msgSender();\n      PUSH FFFFFFFFFFFFFFFF\t\t\t       sender == g\n      DUP2 \t\t\te(\\n   \n      GT \t\t\tuire(\\n            sender == g...\n      ISZERO \t\t\trequire(\\n            sender =...\n      PUSH [tag] 915\t\t\trequire(\\n            sender =...\n      JUMPI \t\t\trequire(\\n            sender =...\n      PUSH [tag] 916\t\t\tquestOwner(requestId) || sende...\n      PUSH [tag] 689\t\t\tquestOwner(requestId) || sende...\n      JUMP \t\t\tquestOwner(requestId) || sende...\n    tag 916\t\t\tquestOwner(requestId) || sende...\n      JUMPDEST \t\t\tquestOwner(requestId) || sende...\n    tag 915\t\t\trequire(\\n            sender =...\n      JUMPDEST \t\t\trequire(\\n            sender =...\n      PUSH 20\t\t\t}\\n\\n \n      DUP4 \t\t\t _;\\n  \n      ADD \t\t\t     _;\\n    }\\n\\n  \n      SWAP2 \t\t\t      );\\n        _;\\n    }\\n\\...\n      POP \t\t\t      );\\n        _;\\n    }\\n\\...\n      DUP4 \t\t\tini\n      PUSH 20\t\t\tunct\n      DUP3 \t\t\tct\\n   \n      MUL \t\t\tntract\\n    functi\n      DUP4 \t\t\tzes the \n      ADD \t\t\tializes the contract\\n    func...\n      GT \t\t\tnitializes the contract\\n    f...\n      ISZERO \t\t\tv Initializes the contract\\n  ...\n      PUSH [tag] 917\t\t\tv Initializes the contract\\n  ...\n      JUMPI \t\t\tv Initializes the contract\\n  ...\n      PUSH [tag] 918\t\t\tize(IState state, address owne...\n      PUSH [tag] 690\t\t\tize(IState state, address owne...\n      JUMP \t\t\tize(IState state, address owne...\n    tag 918\t\t\tize(IState state, address owne...\n      JUMPDEST \t\t\tize(IState state, address owne...\n    tag 917\t\t\tv Initializes the contract\\n  ...\n      JUMPDEST \t\t\tv Initializes the contract\\n  ...\n      SWAP3 \t\t\t      string metadata,\\n      ...\n      POP \t\t\t      string metadata,\\n      ...\n      SWAP3 \t\t\t      string metadata,\\n      ...\n      SWAP1 \t\t\t      string metadata,\\n      ...\n      POP \t\t\t      string metadata,\\n      ...\n      JUMP \t\t\t      string metadata,\\n      ...\n    tag 43\t\t\t__ZKPVerifierBase_init(state);...\n      JUMPDEST \t\t\t__ZKPVerifierBase_init(state);...\n      PUSH 0\t\t\tsion()\n      PUSH 0\t\t\tublic \n      PUSH 0\t\t\tre ret\n      PUSH 40\t\t\tON\n      DUP5 \t\t\treturn VE\n      DUP7 \t\t\t\\n      \n      SUB \t\t\ty) {\\n        return VER\n      SLT \t\t\temory) {\\n        return VERSI...\n      ISZERO \t\t\tg memory) {\\n        return VE...\n      PUSH [tag] 920\t\t\tg memory) {\\n        return VE...\n      JUMPI \t\t\tg memory) {\\n        return VE...\n      PUSH [tag] 921\t\t\t  }\\n\\n    /// @dev Sets a ZKP...\n      PUSH [tag] 682\t\t\t  }\\n\\n    /// @dev Sets a ZKP...\n      JUMP \t\t\t  }\\n\\n    /// @dev Sets a ZKP...\n    tag 921\t\t\t  }\\n\\n    /// @dev Sets a ZKP...\n      JUMPDEST \t\t\t  }\\n\\n    /// @dev Sets a ZKP...\n    tag 920\t\t\tg memory) {\\n        return VE...\n      JUMPDEST \t\t\tg memory) {\\n        return VE...\n      PUSH 0\t\t\te\n      PUSH [tag] 922\t\t\tsetZKPRequest(\\n        uint64...\n      DUP7 \t\t\t    IZK\n      DUP3 \t\t\ttId,\\n \n      DUP8 \t\t\tnt64 requ\n      ADD \t\t\t  uint64 requestId,\\n  \n      PUSH [tag] 687\t\t\tsetZKPRequest(\\n        uint64...\n      JUMP \t\t\tsetZKPRequest(\\n        uint64...\n    tag 922\t\t\tsetZKPRequest(\\n        uint64...\n      JUMPDEST \t\t\tsetZKPRequest(\\n        uint64...\n      SWAP4 \t\t\t function setZKPRequest(\\n    ...\n      POP \t\t\t function setZKPRequest(\\n    ...\n      POP \t\t\t /// @param request The ZKP re...\n      PUSH 20\t\t\tVa\n      DUP5 \t\t\tOwnership\n      ADD \t\t\tuestOwnership, Val\n      CALLDATALOAD \t\t\t override(RequestOwnership, Va...\n      PUSH FFFFFFFFFFFFFFFF\t\t\tBase) {\\n        su\n      DUP2 \t\t\tVerifi\n      GT \t\t\tZKPVerifierBase) {\\n        su...\n      ISZERO \t\t\tt, ZKPVerifierBase) {\\n       ...\n      PUSH [tag] 923\t\t\tt, ZKPVerifierBase) {\\n       ...\n      JUMPI \t\t\tt, ZKPVerifierBase) {\\n       ...\n      PUSH [tag] 924\t\t\tsetZKPRequest(requestId, reque...\n      PUSH [tag] 683\t\t\tsetZKPRequest(requestId, reque...\n      JUMP \t\t\tsetZKPRequest(requestId, reque...\n    tag 924\t\t\tsetZKPRequest(requestId, reque...\n      JUMPDEST \t\t\tsetZKPRequest(requestId, reque...\n    tag 923\t\t\tt, ZKPVerifierBase) {\\n       ...\n      JUMPDEST \t\t\tt, ZKPVerifierBase) {\\n       ...\n      PUSH [tag] 925\t\t\t            request.metadata,\\...\n      DUP7 \t\t\t       \n      DUP3 \t\t\tdator)\n      DUP8 \t\t\tequest.va\n      ADD \t\t\tss(request.validator),\n      PUSH [tag] 691\t\t\t            request.metadata,\\...\n      JUMP \t\t\t            request.metadata,\\...\n    tag 925\t\t\t            request.metadata,\\...\n      JUMPDEST \t\t\t            request.metadata,\\...\n      SWAP3 \t\t\t    _msgSender(),\\n           ...\n      POP \t\t\t    _msgSender(),\\n           ...\n      SWAP3 \t\t\t    _msgSender(),\\n           ...\n      POP \t\t\t    _msgSender(),\\n           ...\n      POP \t\t\tcalldata request\\n    ) public...\n      SWAP3 \t\t\t__ZKPVerifierBase_init(state);...\n      POP \t\t\t__ZKPVerifierBase_init(state);...\n      SWAP3 \t\t\t__ZKPVerifierBase_init(state);...\n      POP \t\t\t__ZKPVerifierBase_init(state);...\n      SWAP3 \t\t\t__ZKPVerifierBase_init(state);...\n      JUMP \t\t\t__ZKPVerifierBase_init(state);...\n    tag 692\t\t\t );\\n    }\\n\\n    /// @dev Sub...\n      JUMPDEST \t\t\t );\\n    }\\n\\n    /// @dev Sub...\n      PUSH 0\t\t\tP respo\n      PUSH FFFFFFFFFFFFFFFF\t\t\t/// @param request\n      DUP3 \t\t\tus\\n  \n      AND \t\t\tstatus\\n    /// @param request...\n      SWAP1 \t\t\tates proof status\\n    /// @pa...\n      POP \t\t\tates proof status\\n    /// @pa...\n      SWAP2 \t\t\t );\\n    }\\n\\n    /// @dev Sub...\n      SWAP1 \t\t\t );\\n    }\\n\\n    /// @dev Sub...\n      POP \t\t\t );\\n    }\\n\\n    /// @dev Sub...\n      JUMP \t\t\t );\\n    }\\n\\n    /// @dev Sub...\n    tag 693\t\t\tthe ZKP request\\n    /// @para...\n      JUMPDEST \t\t\tthe ZKP request\\n    /// @para...\n      PUSH [tag] 928\t\t\t// @param a The first c\n      DUP2 \t\t\tirst \n      PUSH [tag] 692\t\t\t// @param a The first c\n      JUMP \t\t\t// @param a The first c\n    tag 928\t\t\t// @param a The first c\n      JUMPDEST \t\t\t// @param a The first c\n      DUP2 \t\t\tf\\n   \n      EQ \t\t\troof\\n    /// @param a The fir...\n      PUSH [tag] 929\t\t\t for the proof\\n    /// @param...\n      JUMPI \t\t\t for the proof\\n    /// @param...\n      PUSH 0\t\t\t \n      PUSH 0\t\t\tt\n      REVERT \t\t\tent of the p\n    tag 929\t\t\t for the proof\\n    /// @param...\n      JUMPDEST \t\t\t for the proof\\n    /// @param...\n      POP \t\t\tthe ZKP request\\n    /// @para...\n      JUMP \t\t\tthe ZKP request\\n    /// @para...\n    tag 694\t\t\tparam b The second component o...\n      JUMPDEST \t\t\tparam b The second component o...\n      PUSH 0\t\t\t /// \n      DUP2 \t\t\the pro\n      CALLDATALOAD \t\t\tomponent of the proo\n      SWAP1 \t\t\te third component of the proo\n      POP \t\t\te third component of the proo\n      PUSH [tag] 931\t\t\tction submitZKPResponse(\\n    ...\n      DUP2 \t\t\t     \n      PUSH [tag] 693\t\t\tction submitZKPResponse(\\n    ...\n      JUMP \t\t\tction submitZKPResponse(\\n    ...\n    tag 931\t\t\tction submitZKPResponse(\\n    ...\n      JUMPDEST \t\t\tction submitZKPResponse(\\n    ...\n      SWAP3 \t\t\tparam b The second component o...\n      SWAP2 \t\t\tparam b The second component o...\n      POP \t\t\tparam b The second component o...\n      POP \t\t\tparam b The second component o...\n      JUMP \t\t\tparam b The second component o...\n    tag 47\t\t\testId,\\n        uint256[] memo...\n      JUMPDEST \t\t\testId,\\n        uint256[] memo...\n      PUSH 0\t\t\t memor\n      PUSH 20\t\t\t  \n      DUP3 \t\t\try b,\\n   \n      DUP5 \t\t\t][2] me\n      SUB \t\t\t56[2][2] memory b,\\n    \n      SLT \t\t\tint256[2][2] memory b,\\n      ...\n      ISZERO \t\t\t  uint256[2][2] memory b,\\n   ...\n      PUSH [tag] 933\t\t\t  uint256[2][2] memory b,\\n   ...\n      JUMPI \t\t\t  uint256[2][2] memory b,\\n   ...\n      PUSH [tag] 934\t\t\t256[2] memory c\\n    ) public ...\n      PUSH [tag] 682\t\t\t256[2] memory c\\n    ) public ...\n      JUMP \t\t\t256[2] memory c\\n    ) public ...\n    tag 934\t\t\t256[2] memory c\\n    ) public ...\n      JUMPDEST \t\t\t256[2] memory c\\n    ) public ...\n    tag 933\t\t\t  uint256[2][2] memory b,\\n   ...\n      JUMPDEST \t\t\t  uint256[2][2] memory b,\\n   ...\n      PUSH 0\t\t\tR\n      PUSH [tag] 935\t\t\ts, a, b, c);\\n        emit ZKP...\n      DUP5 \t\t\ted(requ\n      DUP3 \t\t\tseSubm\n      DUP6 \t\t\tt ZKPResp\n      ADD \t\t\t emit ZKPResponseSubmi\n      PUSH [tag] 694\t\t\ts, a, b, c);\\n        emit ZKP...\n      JUMP \t\t\ts, a, b, c);\\n        emit ZKP...\n    tag 935\t\t\ts, a, b, c);\\n        emit ZKP...\n      JUMPDEST \t\t\ts, a, b, c);\\n        emit ZKP...\n      SWAP2 \t\t\ttId, inputs, a, b, c);\\n      ...\n      POP \t\t\ttId, inputs, a, b, c);\\n      ...\n      POP \t\t\tse) {\\n        super.submitZKP...\n      SWAP3 \t\t\testId,\\n        uint256[] memo...\n      SWAP2 \t\t\testId,\\n        uint256[] memo...\n      POP \t\t\testId,\\n        uint256[] memo...\n      POP \t\t\testId,\\n        uint256[] memo...\n      JUMP \t\t\testId,\\n        uint256[] memo...\n    tag 695\t\t\t  }\\n\\n    /**\\n     * @dev Su...\n      JUMPDEST \t\t\t  }\\n\\n    /**\\n     * @dev Su...\n      PUSH 0\t\t\tn array\n      DUP2 \t\t\t stat\n      ISZERO \t\t\t proofs statu\n      ISZERO \t\t\tupdates proofs status\n      SWAP1 \t\t\tponses and updates proofs stat...\n      POP \t\t\tponses and updates proofs stat...\n      SWAP2 \t\t\t  }\\n\\n    /**\\n     * @dev Su...\n      SWAP1 \t\t\t  }\\n\\n    /**\\n     * @dev Su...\n      POP \t\t\t  }\\n\\n    /**\\n     * @dev Su...\n      JUMP \t\t\t  }\\n\\n    /**\\n     * @dev Su...\n    tag 696\t\t\tam responses The list of respo...\n      JUMPDEST \t\t\tam responses The list of respo...\n      PUSH [tag] 938\t\t\ta\\n     * @param cross\n      DUP2 \t\t\t cros\n      PUSH [tag] 695\t\t\ta\\n     * @param cross\n      JUMP \t\t\ta\\n     * @param cross\n    tag 938\t\t\ta\\n     * @param cross\n      JUMPDEST \t\t\ta\\n     * @param cross\n      DUP3 \t\t\ttad\n      MSTORE \t\t\t and metadata\\n     * @param c...\n      POP \t\t\tam responses The list of respo...\n      POP \t\t\tam responses The list of respo...\n      JUMP \t\t\tam responses The list of respo...\n    tag 50\t\t\te list of cross chain proofs f...\n      JUMPDEST \t\t\te list of cross chain proofs f...\n      PUSH 0\t\t\tntit\n      PUSH 20\t\t\t f\n      DUP3 \t\t\t     */\\n \n      ADD \t\t\tes.\\n     */\\n    fu\n      SWAP1 \t\t\tbal states.\\n     */\\n    fu\n      POP \t\t\tbal states.\\n     */\\n    fu\n      PUSH [tag] 940\t\t\tmitZKPResponseV2(\\n        IZK...\n      PUSH 0\t\t\ts\n      DUP4 \t\t\t] memory \n      ADD \t\t\tnse[] memory resp\n      DUP5 \t\t\t.ZKPRe\n      PUSH [tag] 696\t\t\tmitZKPResponseV2(\\n        IZK...\n      JUMP \t\t\tmitZKPResponseV2(\\n        IZK...\n    tag 940\t\t\tmitZKPResponseV2(\\n        IZK...\n      JUMPDEST \t\t\tmitZKPResponseV2(\\n        IZK...\n      SWAP3 \t\t\te list of cross chain proofs f...\n      SWAP2 \t\t\te list of cross chain proofs f...\n      POP \t\t\te list of cross chain proofs f...\n      POP \t\t\te list of cross chain proofs f...\n      JUMP \t\t\te list of cross chain proofs f...\n    tag 697\t\t\t bytes memory crossChainProof\\...\n      JUMPDEST \t\t\t bytes memory crossChainProof\\...\n      PUSH 0\t\t\tublic o\n      DUP2 \t\t\tr.sub\n      SWAP1 \t\t\t       super.sub\n      POP \t\t\t       super.sub\n      SWAP2 \t\t\t bytes memory crossChainProof\\...\n      SWAP1 \t\t\t bytes memory crossChainProof\\...\n      POP \t\t\t bytes memory crossChainProof\\...\n      JUMP \t\t\t bytes memory crossChainProof\\...\n    tag 698\t\t\tseV2(responses, crossChainProo...\n      JUMPDEST \t\t\tseV2(responses, crossChainProo...\n      PUSH [tag] 943\t\t\t) {\\n            emit ZKP\n      DUP2 \t\t\tit ZK\n      PUSH [tag] 697\t\t\t) {\\n            emit ZKP\n      JUMP \t\t\t) {\\n            emit ZKP\n    tag 943\t\t\t) {\\n            emit ZKP\n      JUMPDEST \t\t\t) {\\n            emit ZKP\n      DUP3 \t\t\t; i\n      MSTORE \t\t\t.length; i++) {\\n            e...\n      POP \t\t\tseV2(responses, crossChainProo...\n      POP \t\t\tseV2(responses, crossChainProo...\n      JUMP \t\t\tseV2(responses, crossChainProo...\n    tag 54\t\t\ttted(responses[i].requestId, _...\n      JUMPDEST \t\t\ttted(responses[i].requestId, _...\n      PUSH 0\t\t\tonse\n      PUSH 20\t\t\t\\n \n      DUP3 \t\t\troof stat\n      ADD \t\t\tny proof status\\n  \n      SWAP1 \t\t\tdating any proof status\\n  \n      POP \t\t\tdating any proof status\\n  \n      PUSH [tag] 945\t\t\tam requestId The ID of the ZKP...\n      PUSH 0\t\t\tl\n      DUP4 \t\t\tuts The p\n      ADD \t\t\t inputs The publi\n      DUP5 \t\t\t// @pa\n      PUSH [tag] 698\t\t\tam requestId The ID of the ZKP...\n      JUMP \t\t\tam requestId The ID of the ZKP...\n    tag 945\t\t\tam requestId The ID of the ZKP...\n      JUMPDEST \t\t\tam requestId The ID of the ZKP...\n      SWAP3 \t\t\ttted(responses[i].requestId, _...\n      SWAP2 \t\t\ttted(responses[i].requestId, _...\n      POP \t\t\ttted(responses[i].requestId, _...\n      POP \t\t\ttted(responses[i].requestId, _...\n      JUMP \t\t\ttted(responses[i].requestId, _...\n    tag 699\t\t\the proof\\n    /// @param a The...\n      JUMPDEST \t\t\the proof\\n    /// @param a The...\n      PUSH [tag] 947\t\t\tcomponent of the proof\\n \n      DUP2 \t\t\troof\\n\n      PUSH [tag] 685\t\t\tcomponent of the proof\\n \n      JUMP \t\t\tcomponent of the proof\\n \n    tag 947\t\t\tcomponent of the proof\\n \n      JUMPDEST \t\t\tcomponent of the proof\\n \n      DUP3 \t\t\tcon\n      MSTORE \t\t\t The second component of the p...\n      POP \t\t\the proof\\n    /// @param a The...\n      POP \t\t\the proof\\n    /// @param a The...\n      JUMP \t\t\the proof\\n    /// @param a The...\n    tag 61\t\t\t c The third component of the ...\n      JUMPDEST \t\t\t c The third component of the ...\n      PUSH 0\t\t\troof\n      PUSH 20\t\t\tpo\n      DUP3 \t\t\terifyZKPR\n      ADD \t\t\ton verifyZKPRespon\n      SWAP1 \t\t\t  function verifyZKPRespon\n      POP \t\t\t  function verifyZKPRespon\n      PUSH [tag] 949\t\t\t  uint64 requestId,\\n        u...\n      PUSH 0\t\t\t[\n      DUP4 \t\t\t    uint2\n      ADD \t\t\t        uint256[2\n      DUP5 \t\t\t input\n      PUSH [tag] 699\t\t\t  uint64 requestId,\\n        u...\n      JUMP \t\t\t  uint64 requestId,\\n        u...\n    tag 949\t\t\t  uint64 requestId,\\n        u...\n      JUMPDEST \t\t\t  uint64 requestId,\\n        u...\n      SWAP3 \t\t\t c The third component of the ...\n      SWAP2 \t\t\t c The third component of the ...\n      POP \t\t\t c The third component of the ...\n      POP \t\t\t c The third component of the ...\n      JUMP \t\t\t c The third component of the ...\n    tag 700\t\t\t      uint256[2][2] memory b,\\...\n      JUMPDEST \t\t\t      uint256[2][2] memory b,\\...\n      PUSH 0\t\t\tmory c,\n      PUSH [tag] 951\t\t\tr\\n    )\\n        public\\n \n      DUP3 \t\t\tblic\\n\n      PUSH [tag] 685\t\t\tr\\n    )\\n        public\\n \n      JUMP \t\t\tr\\n    )\\n        public\\n \n    tag 951\t\t\tr\\n    )\\n        public\\n \n      JUMPDEST \t\t\tr\\n    )\\n        public\\n \n      SWAP1 \t\t\tdress sender\\n    )\\n        p...\n      POP \t\t\tdress sender\\n    )\\n        p...\n      SWAP2 \t\t\t      uint256[2][2] memory b,\\...\n      SWAP1 \t\t\t      uint256[2][2] memory b,\\...\n      POP \t\t\t      uint256[2][2] memory b,\\...\n      JUMP \t\t\t      uint256[2][2] memory b,\\...\n    tag 701\t\t\tide(RequestDisableable, Valida...\n      JUMPDEST \t\t\tide(RequestDisableable, Valida...\n      PUSH [tag] 953\t\t\talidator.KeyToInputIndex[] mem...\n      DUP2 \t\t\ty)\\n  \n      PUSH [tag] 700\t\t\talidator.KeyToInputIndex[] mem...\n      JUMP \t\t\talidator.KeyToInputIndex[] mem...\n    tag 953\t\t\talidator.KeyToInputIndex[] mem...\n      JUMPDEST \t\t\talidator.KeyToInputIndex[] mem...\n      DUP2 \t\t\tircui\n      EQ \t\t\t(ICircuitValidator.KeyToInputI...\n      PUSH [tag] 954\t\t\t  returns (ICircuitValidator.K...\n      JUMPI \t\t\t  returns (ICircuitValidator.K...\n      PUSH 0\t\t\tr\n      PUSH 0\t\t\te\n      REVERT \t\t\t      return\n    tag 954\t\t\t  returns (ICircuitValidator.K...\n      JUMPDEST \t\t\t  returns (ICircuitValidator.K...\n      POP \t\t\tide(RequestDisableable, Valida...\n      JUMP \t\t\tide(RequestDisableable, Valida...\n    tag 702\t\t\tKPResponse(requestId, inputs, ...\n      JUMPDEST \t\t\tKPResponse(requestId, inputs, ...\n      PUSH 0\t\t\t**\\n  \n      DUP2 \t\t\t addre\n      CALLDATALOAD \t\t\ttate contract addres\n      SWAP1 \t\t\tets the state contract addres\n      POP \t\t\tets the state contract addres\n      PUSH [tag] 956\t\t\t\\n    function setState(IState...\n      DUP2 \t\t\tic on\n      PUSH [tag] 701\t\t\t\\n    function setState(IState...\n      JUMP \t\t\t\\n    function setState(IState...\n    tag 956\t\t\t\\n    function setState(IState...\n      JUMPDEST \t\t\t\\n    function setState(IState...\n      SWAP3 \t\t\tKPResponse(requestId, inputs, ...\n      SWAP2 \t\t\tKPResponse(requestId, inputs, ...\n      POP \t\t\tKPResponse(requestId, inputs, ...\n      POP \t\t\tKPResponse(requestId, inputs, ...\n      JUMP \t\t\tKPResponse(requestId, inputs, ...\n    tag 64\t\t\t     _setState(state);\\n    }\\...\n      JUMPDEST \t\t\t     _setState(state);\\n    }\\...\n      PUSH 0\t\t\t\\n    /\n      PUSH 20\t\t\tst\n      DUP3 \t\t\the ZKP re\n      DUP5 \t\t\te ID of\n      SUB \t\t\td The ID of the ZKP req\n      SLT \t\t\testId The ID of the ZKP reques...\n      ISZERO \t\t\tequestId The ID of the ZKP req...\n      PUSH [tag] 958\t\t\tequestId The ID of the ZKP req...\n      JUMPI \t\t\tequestId The ID of the ZKP req...\n      PUSH [tag] 959\t\t\t /// @param requestOwner ZKP R...\n      PUSH [tag] 682\t\t\t /// @param requestOwner ZKP R...\n      JUMP \t\t\t /// @param requestOwner ZKP R...\n    tag 959\t\t\t /// @param requestOwner ZKP R...\n      JUMPDEST \t\t\t /// @param requestOwner ZKP R...\n    tag 958\t\t\tequestId The ID of the ZKP req...\n      JUMPDEST \t\t\tequestId The ID of the ZKP req...\n      PUSH 0\t\t\ts\n      PUSH [tag] 960\t\t\tlic onlyOwnerOrRequestOwner(re...\n      DUP5 \t\t\ttOwner(\n      DUP3 \t\t\tsetReq\n      DUP6 \t\t\t{\\n       \n      ADD \t\t\tId) {\\n        _setRequ\n      PUSH [tag] 702\t\t\tlic onlyOwnerOrRequestOwner(re...\n      JUMP \t\t\tlic onlyOwnerOrRequestOwner(re...\n    tag 960\t\t\tlic onlyOwnerOrRequestOwner(re...\n      JUMPDEST \t\t\tlic onlyOwnerOrRequestOwner(re...\n      SWAP2 \t\t\t\\n    ) public onlyOwnerOrRequ...\n      POP \t\t\t\\n    ) public onlyOwnerOrRequ...\n      POP \t\t\tnt64 requestId,\\n        addre...\n      SWAP3 \t\t\t     _setState(state);\\n    }\\...\n      SWAP2 \t\t\t     _setState(state);\\n    }\\...\n      POP \t\t\t     _setState(state);\\n    }\\...\n      POP \t\t\t     _setState(state);\\n    }\\...\n      JUMP \t\t\t     _setState(state);\\n    }\\...\n    tag 68\t\t\t;\\n    }\\n\\n    /// @dev Disab...\n      JUMPDEST \t\t\t;\\n    }\\n\\n    /// @dev Disab...\n      PUSH 0\t\t\tZKP re\n      PUSH 0\t\t\test\\n  \n      PUSH 40\t\t\tId\n      DUP4 \t\t\tnt64 requ\n      DUP6 \t\t\tequest(\n      SUB \t\t\tZKPRequest(uint64 reque\n      SLT \t\t\tableZKPRequest(uint64 requestI...\n      ISZERO \t\t\tdisableZKPRequest(uint64 reque...\n      PUSH [tag] 962\t\t\tdisableZKPRequest(uint64 reque...\n      JUMPI \t\t\tdisableZKPRequest(uint64 reque...\n      PUSH [tag] 963\t\t\tblic onlyOwnerOrRequestOwner(r...\n      PUSH [tag] 682\t\t\tblic onlyOwnerOrRequestOwner(r...\n      JUMP \t\t\tblic onlyOwnerOrRequestOwner(r...\n    tag 963\t\t\tblic onlyOwnerOrRequestOwner(r...\n      JUMPDEST \t\t\tblic onlyOwnerOrRequestOwner(r...\n    tag 962\t\t\tdisableZKPRequest(uint64 reque...\n      JUMPDEST \t\t\tdisableZKPRequest(uint64 reque...\n      PUSH 0\t\t\t\\n\n      PUSH [tag] 964\t\t\t The ID of the ZKP request\\n  ...\n      DUP6 \t\t\tnt64 re\n      DUP3 \t\t\tequest\n      DUP7 \t\t\t enableZK\n      ADD \t\t\ttion enableZKPRequest(\n      PUSH [tag] 702\t\t\t The ID of the ZKP request\\n  ...\n      JUMP \t\t\t The ID of the ZKP request\\n  ...\n    tag 964\t\t\t The ID of the ZKP request\\n  ...\n      JUMPDEST \t\t\t The ID of the ZKP request\\n  ...\n      SWAP3 \t\t\t requestId The ID of the ZKP r...\n      POP \t\t\t requestId The ID of the ZKP r...\n      POP \t\t\t /// @dev Enables ZKP Request\\...\n      PUSH 20\t\t\t {\n      PUSH [tag] 965\t\t\tst(requestId);\\n    }\\n\\n    /...\n      DUP6 \t\t\tlidator\n      DUP3 \t\t\tdd new\n      DUP7 \t\t\t /// @dev\n      ADD \t\t\t\\n    /// @dev Add new \n      PUSH [tag] 687\t\t\tst(requestId);\\n    }\\n\\n    /...\n      JUMP \t\t\tst(requestId);\\n    }\\n\\n    /...\n    tag 965\t\t\tst(requestId);\\n    }\\n\\n    /...\n      JUMPDEST \t\t\tst(requestId);\\n    }\\n\\n    /...\n      SWAP2 \t\t\tleZKPRequest(requestId);\\n    ...\n      POP \t\t\tleZKPRequest(requestId);\\n    ...\n      POP \t\t\twnerOrRequestOwner(requestId) ...\n      SWAP3 \t\t\t;\\n    }\\n\\n    /// @dev Disab...\n      POP \t\t\t;\\n    }\\n\\n    /// @dev Disab...\n      SWAP3 \t\t\t;\\n    }\\n\\n    /// @dev Disab...\n      SWAP1 \t\t\t;\\n    }\\n\\n    /// @dev Disab...\n      POP \t\t\t;\\n    }\\n\\n    /// @dev Disab...\n      JUMP \t\t\t;\\n    }\\n\\n    /// @dev Disab...\n    tag 72\t\t\t/ @param validator Validator a...\n      JUMPDEST \t\t\t/ @param validator Validator a...\n      PUSH 0\t\t\ttelist\n      PUSH 0\t\t\tCircui\n      PUSH 40\t\t\t  \n      DUP4 \t\t\tlyOwner {\n      DUP6 \t\t\tpublic \n      SUB \t\t\tor) public onlyOwner {\\n\n      SLT \t\t\tidator) public onlyOwner {\\n  ...\n      ISZERO \t\t\tvalidator) public onlyOwner {\\...\n      PUSH [tag] 967\t\t\tvalidator) public onlyOwner {\\...\n      JUMPI \t\t\tvalidator) public onlyOwner {\\...\n      PUSH [tag] 968\t\t\t_addValidatorToWhitelist(valid...\n      PUSH [tag] 682\t\t\t_addValidatorToWhitelist(valid...\n      JUMP \t\t\t_addValidatorToWhitelist(valid...\n    tag 968\t\t\t_addValidatorToWhitelist(valid...\n      JUMPDEST \t\t\t_addValidatorToWhitelist(valid...\n    tag 967\t\t\tvalidator) public onlyOwner {\\...\n      JUMPDEST \t\t\tvalidator) public onlyOwner {\\...\n      PUSH 0\t\t\tl\n      PUSH [tag] 969\t\t\tion removeValidatorFromWhiteli...\n      DUP6 \t\t\tdator v\n      DUP3 \t\t\trcuitV\n      DUP7 \t\t\titelist(I\n      ADD \t\t\tomWhitelist(ICircuitVa\n      PUSH [tag] 687\t\t\tion removeValidatorFromWhiteli...\n      JUMP \t\t\tion removeValidatorFromWhiteli...\n    tag 969\t\t\tion removeValidatorFromWhiteli...\n      JUMPDEST \t\t\tion removeValidatorFromWhiteli...\n      SWAP3 \t\t\t\\n    function removeValidator...\n      POP \t\t\t\\n    function removeValidator...\n      POP \t\t\tt\\n    /// @param validator Va...\n      PUSH 20\t\t\tto\n      PUSH [tag] 970\t\t\t);\\n    }\\n}\\n\n      DUP6 \t\t\t\n      DUP3 \t\t\t\n      DUP7 \t\t\t\n      ADD \t\t\t\n      PUSH [tag] 694\t\t\t);\\n    }\\n}\\n\n      JUMP \t\t\t);\\n    }\\n}\\n\n    tag 970\t\t\t);\\n    }\\n}\\n\n      JUMPDEST \t\t\t);\\n    }\\n}\\n\n      SWAP2 \t\t\t(validator);\\n    }\\n}\\n\n      POP \t\t\t(validator);\\n    }\\n}\\n\n      POP \t\t\tOwner {\\n        _removeValida...\n      SWAP3 \t\t\t/ @param validator Validator a...\n      POP \t\t\t/ @param validator Validator a...\n      SWAP3 \t\t\t/ @param validator Validator a...\n      SWAP1 \t\t\t/ @param validator Validator a...\n      POP \t\t\t/ @param validator Validator a...\n      JUMP \t\t\t/ @param validator Validator a...\n    tag 703\t\t\t\n      JUMPDEST \t\t\t\n      PUSH 0\t\t\t\n      PUSH 1F\t\t\t\n      NOT \t\t\t\n      PUSH 1F\t\t\t\n      DUP4 \t\t\t\n      ADD \t\t\t\n      AND \t\t\t\n      SWAP1 \t\t\t\n      POP \t\t\t\n      SWAP2 \t\t\t\n      SWAP1 \t\t\t\n      POP \t\t\t\n      JUMP \t\t\t\n    tag 271\t\t\t\n      JUMPDEST \t\t\t\n      PUSH 4E487B7100000000000000000000000000000000000000000000000000000000\t\t\t\n      PUSH 0\t\t\t\n      MSTORE \t\t\t\n      PUSH 41\t\t\t\n      PUSH 4\t\t\t\n      MSTORE \t\t\t\n      PUSH 24\t\t\t\n      PUSH 0\t\t\t\n      REVERT \t\t\t\n    tag 704\t\t\t\n      JUMPDEST \t\t\t\n      PUSH [tag] 974\t\t\t\n      DUP3 \t\t\t\n      PUSH [tag] 703\t\t\t\n      JUMP \t\t\t\n    tag 974\t\t\t\n      JUMPDEST \t\t\t\n      DUP2 \t\t\t\n      ADD \t\t\t\n      DUP2 \t\t\t\n      DUP2 \t\t\t\n      LT \t\t\t\n      PUSH FFFFFFFFFFFFFFFF\t\t\t\n      DUP3 \t\t\t\n      GT \t\t\t\n      OR \t\t\t\n      ISZERO \t\t\t\n      PUSH [tag] 975\t\t\t\n      JUMPI \t\t\t\n      PUSH [tag] 976\t\t\t\n      PUSH [tag] 271\t\t\t\n      JUMP \t\t\t\n    tag 976\t\t\t\n      JUMPDEST \t\t\t\n    tag 975\t\t\t\n      JUMPDEST \t\t\t\n      DUP1 \t\t\t\n      PUSH 40\t\t\t\n      MSTORE \t\t\t\n      POP \t\t\t\n      POP \t\t\t\n      POP \t\t\t\n      JUMP \t\t\t\n    tag 705\t\t\t\n      JUMPDEST \t\t\t\n      PUSH 0\t\t\t\n      PUSH [tag] 978\t\t\t\n      PUSH [tag] 681\t\t\t\n      JUMP \t\t\t\n    tag 978\t\t\t\n      JUMPDEST \t\t\t\n      SWAP1 \t\t\t\n      POP \t\t\t\n      PUSH [tag] 979\t\t\t\n      DUP3 \t\t\t\n      DUP3 \t\t\t\n      PUSH [tag] 704\t\t\t\n      JUMP \t\t\t\n    tag 979\t\t\t\n      JUMPDEST \t\t\t\n      SWAP2 \t\t\t\n      SWAP1 \t\t\t\n      POP \t\t\t\n      JUMP \t\t\t\n    tag 706\t\t\t\n      JUMPDEST \t\t\t\n      PUSH 0\t\t\t\n      PUSH FFFFFFFFFFFFFFFF\t\t\t\n      DUP3 \t\t\t\n      GT \t\t\t\n      ISZERO \t\t\t\n      PUSH [tag] 981\t\t\t\n      JUMPI \t\t\t\n      PUSH [tag] 982\t\t\t\n      PUSH [tag] 271\t\t\t\n      JUMP \t\t\t\n    tag 982\t\t\t\n      JUMPDEST \t\t\t\n    tag 981\t\t\t\n      JUMPDEST \t\t\t\n      PUSH 20\t\t\t\n      DUP3 \t\t\t\n      MUL \t\t\t\n      SWAP1 \t\t\t\n      POP \t\t\t\n      PUSH 20\t\t\t\n      DUP2 \t\t\t\n      ADD \t\t\t\n      SWAP1 \t\t\t\n      POP \t\t\t\n      SWAP2 \t\t\t\n      SWAP1 \t\t\t\n      POP \t\t\t\n      JUMP \t\t\t\n    tag 707\t\t\t\n      JUMPDEST \t\t\t\n      PUSH [tag] 984\t\t\t\n      DUP2 \t\t\t\n      PUSH [tag] 697\t\t\t\n      JUMP \t\t\t\n    tag 984\t\t\t\n      JUMPDEST \t\t\t\n      DUP2 \t\t\t\n      EQ \t\t\t\n      PUSH [tag] 985\t\t\t\n      JUMPI \t\t\t\n      PUSH 0\t\t\t\n      PUSH 0\t\t\t\n      REVERT \t\t\t\n    tag 985\t\t\t\n      JUMPDEST \t\t\t\n      POP \t\t\t\n      JUMP \t\t\t\n    tag 708\t\t\t\n      JUMPDEST \t\t\t\n      PUSH 0\t\t\t\n      DUP2 \t\t\t\n      CALLDATALOAD \t\t\t\n      SWAP1 \t\t\t\n      POP \t\t\t\n      PUSH [tag] 987\t\t\t\n      DUP2 \t\t\t\n      PUSH [tag] 707\t\t\t\n      JUMP \t\t\t\n    tag 987\t\t\t\n      JUMPDEST \t\t\t\n      SWAP3 \t\t\t\n      SWAP2 \t\t\t\n      POP \t\t\t\n      POP \t\t\t\n      JUMP \t\t\t\n    tag 709\t\t\t\n      JUMPDEST \t\t\t\n      PUSH 0\t\t\t\n      PUSH [tag] 989\t\t\t\n      PUSH [tag] 990\t\t\t\n      DUP5 \t\t\t\n      PUSH [tag] 706\t\t\t\n      JUMP \t\t\t\n    tag 990\t\t\t\n      JUMPDEST \t\t\t\n      PUSH [tag] 705\t\t\t\n      JUMP \t\t\t\n    tag 989\t\t\t\n      JUMPDEST \t\t\t\n      SWAP1 \t\t\t\n      POP \t\t\t\n      DUP1 \t\t\t\n      DUP4 \t\t\t\n      DUP3 \t\t\t\n      MSTORE \t\t\t\n      PUSH 20\t\t\t\n      DUP3 \t\t\t\n      ADD \t\t\t\n      SWAP1 \t\t\t\n      POP \t\t\t\n      PUSH 20\t\t\t\n      DUP5 \t\t\t\n      MUL \t\t\t\n      DUP4 \t\t\t\n      ADD \t\t\t\n      DUP6 \t\t\t\n      DUP2 \t\t\t\n      GT \t\t\t\n      ISZERO \t\t\t\n      PUSH [tag] 991\t\t\t\n      JUMPI \t\t\t\n      PUSH [tag] 992\t\t\t\n      PUSH [tag] 690\t\t\t\n      JUMP \t\t\t\n    tag 992\t\t\t\n      JUMPDEST \t\t\t\n    tag 991\t\t\t\n      JUMPDEST \t\t\t\n      DUP4 \t\t\t\n    tag 993\t\t\t\n      JUMPDEST \t\t\t\n      DUP2 \t\t\t\n      DUP2 \t\t\t\n      LT \t\t\t\n      ISZERO \t\t\t\n      PUSH [tag] 995\t\t\t\n      JUMPI \t\t\t\n      DUP1 \t\t\t\n      PUSH [tag] 996\t\t\t\n      DUP9 \t\t\t\n      DUP3 \t\t\t\n      PUSH [tag] 708\t\t\t\n      JUMP \t\t\t\n    tag 996\t\t\t\n      JUMPDEST \t\t\t\n      DUP5 \t\t\t\n      MSTORE \t\t\t\n      PUSH 20\t\t\t\n      DUP5 \t\t\t\n      ADD \t\t\t\n      SWAP4 \t\t\t\n      POP \t\t\t\n      POP \t\t\t\n      PUSH 20\t\t\t\n      DUP2 \t\t\t\n      ADD \t\t\t\n      SWAP1 \t\t\t\n      POP \t\t\t\n      PUSH [tag] 993\t\t\t\n      JUMP \t\t\t\n    tag 995\t\t\t\n      JUMPDEST \t\t\t\n      POP \t\t\t\n      POP \t\t\t\n      POP \t\t\t\n      SWAP4 \t\t\t\n      SWAP3 \t\t\t\n      POP \t\t\t\n      POP \t\t\t\n      POP \t\t\t\n      JUMP \t\t\t\n    tag 710\t\t\t\n      JUMPDEST \t\t\t\n      PUSH 0\t\t\t\n      DUP3 \t\t\t\n      PUSH 1F\t\t\t\n      DUP4 \t\t\t\n      ADD \t\t\t\n      SLT \t\t\t\n      PUSH [tag] 998\t\t\t\n      JUMPI \t\t\t\n      PUSH [tag] 999\t\t\t\n      PUSH [tag] 688\t\t\t\n      JUMP \t\t\t\n    tag 999\t\t\t\n      JUMPDEST \t\t\t\n    tag 998\t\t\t\n      JUMPDEST \t\t\t\n      DUP2 \t\t\t\n      CALLDATALOAD \t\t\t\n      PUSH [tag] 1000\t\t\t\n      DUP5 \t\t\t\n      DUP3 \t\t\t\n      PUSH 20\t\t\t\n      DUP7 \t\t\t\n      ADD \t\t\t\n      PUSH [tag] 709\t\t\t\n      JUMP \t\t\t\n    tag 1000\t\t\t\n      JUMPDEST \t\t\t\n      SWAP2 \t\t\t\n      POP \t\t\t\n      POP \t\t\t\n      SWAP3 \t\t\t\n      SWAP2 \t\t\t\n      POP \t\t\t\n      POP \t\t\t\n      JUMP \t\t\t\n    tag 711\t\t\t\n      JUMPDEST \t\t\t\n      PUSH 0\t\t\t\n      PUSH FFFFFFFFFFFFFFFF\t\t\t\n      DUP3 \t\t\t\n      GT \t\t\t\n      ISZERO \t\t\t\n      PUSH [tag] 1002\t\t\t\n      JUMPI \t\t\t\n      PUSH [tag] 1003\t\t\t\n      PUSH [tag] 271\t\t\t\n      JUMP \t\t\t\n    tag 1003\t\t\t\n      JUMPDEST \t\t\t\n    tag 1002\t\t\t\n      JUMPDEST \t\t\t\n      PUSH 20\t\t\t\n      DUP3 \t\t\t\n      MUL \t\t\t\n      SWAP1 \t\t\t\n      POP \t\t\t\n      SWAP2 \t\t\t\n      SWAP1 \t\t\t\n      POP \t\t\t\n      JUMP \t\t\t\n    tag 712\t\t\t\n      JUMPDEST \t\t\t\n      PUSH 0\t\t\t\n      PUSH [tag] 1005\t\t\t\n      PUSH [tag] 1006\t\t\t\n      DUP5 \t\t\t\n      PUSH [tag] 711\t\t\t\n      JUMP \t\t\t\n    tag 1006\t\t\t\n      JUMPDEST \t\t\t\n      PUSH [tag] 705\t\t\t\n      JUMP \t\t\t\n    tag 1005\t\t\t\n      JUMPDEST \t\t\t\n      SWAP1 \t\t\t\n      POP \t\t\t\n      DUP1 \t\t\t\n      PUSH 20\t\t\t\n      DUP5 \t\t\t\n      MUL \t\t\t\n      DUP4 \t\t\t\n      ADD \t\t\t\n      DUP6 \t\t\t\n      DUP2 \t\t\t\n      GT \t\t\t\n      ISZERO \t\t\t\n      PUSH [tag] 1007\t\t\t\n      JUMPI \t\t\t\n      PUSH [tag] 1008\t\t\t\n      PUSH [tag] 690\t\t\t\n      JUMP \t\t\t\n    tag 1008\t\t\t\n      JUMPDEST \t\t\t\n    tag 1007\t\t\t\n      JUMPDEST \t\t\t\n      DUP4 \t\t\t\n    tag 1009\t\t\t\n      JUMPDEST \t\t\t\n      DUP2 \t\t\t\n      DUP2 \t\t\t\n      LT \t\t\t\n      ISZERO \t\t\t\n      PUSH [tag] 1011\t\t\t\n      JUMPI \t\t\t\n      DUP1 \t\t\t\n      PUSH [tag] 1012\t\t\t\n      DUP9 \t\t\t\n      DUP3 \t\t\t\n      PUSH [tag] 708\t\t\t\n      JUMP \t\t\t\n    tag 1012\t\t\t\n      JUMPDEST \t\t\t\n      DUP5 \t\t\t\n      MSTORE \t\t\t\n      PUSH 20\t\t\t\n      DUP5 \t\t\t\n      ADD \t\t\t\n      SWAP4 \t\t\t\n      POP \t\t\t\n      POP \t\t\t\n      PUSH 20\t\t\t\n      DUP2 \t\t\t\n      ADD \t\t\t\n      SWAP1 \t\t\t\n      POP \t\t\t\n      PUSH [tag] 1009\t\t\t\n      JUMP \t\t\t\n    tag 1011\t\t\t\n      JUMPDEST \t\t\t\n      POP \t\t\t\n      POP \t\t\t\n      POP \t\t\t\n      SWAP4 \t\t\t\n      SWAP3 \t\t\t\n      POP \t\t\t\n      POP \t\t\t\n      POP \t\t\t\n      JUMP \t\t\t\n    tag 713\t\t\t\n      JUMPDEST \t\t\t\n      PUSH 0\t\t\t\n      DUP3 \t\t\t\n      PUSH 1F\t\t\t\n      DUP4 \t\t\t\n      ADD \t\t\t\n      SLT \t\t\t\n      PUSH [tag] 1014\t\t\t\n      JUMPI \t\t\t\n      PUSH [tag] 1015\t\t\t\n      PUSH [tag] 688\t\t\t\n      JUMP \t\t\t\n    tag 1015\t\t\t\n      JUMPDEST \t\t\t\n    tag 1014\t\t\t\n      JUMPDEST \t\t\t\n      PUSH 2\t\t\t\n      PUSH [tag] 1016\t\t\t\n      DUP5 \t\t\t\n      DUP3 \t\t\t\n      DUP6 \t\t\t\n      PUSH [tag] 712\t\t\t\n      JUMP \t\t\t\n    tag 1016\t\t\t\n      JUMPDEST \t\t\t\n      SWAP2 \t\t\t\n      POP \t\t\t\n      POP \t\t\t\n      SWAP3 \t\t\t\n      SWAP2 \t\t\t\n      POP \t\t\t\n      POP \t\t\t\n      JUMP \t\t\t\n    tag 714\t\t\t\n      JUMPDEST \t\t\t\n      PUSH 0\t\t\t\n      PUSH FFFFFFFFFFFFFFFF\t\t\t\n      DUP3 \t\t\t\n      GT \t\t\t\n      ISZERO \t\t\t\n      PUSH [tag] 1018\t\t\t\n      JUMPI \t\t\t\n      PUSH [tag] 1019\t\t\t\n      PUSH [tag] 271\t\t\t\n      JUMP \t\t\t\n    tag 1019\t\t\t\n      JUMPDEST \t\t\t\n    tag 1018\t\t\t\n      JUMPDEST \t\t\t\n      PUSH 20\t\t\t\n      DUP3 \t\t\t\n      MUL \t\t\t\n      SWAP1 \t\t\t\n      POP \t\t\t\n      SWAP2 \t\t\t\n      SWAP1 \t\t\t\n      POP \t\t\t\n      JUMP \t\t\t\n    tag 715\t\t\t\n      JUMPDEST \t\t\t\n      PUSH 0\t\t\t\n      PUSH [tag] 1021\t\t\t\n      PUSH [tag] 1022\t\t\t\n      DUP5 \t\t\t\n      PUSH [tag] 714\t\t\t\n      JUMP \t\t\t\n    tag 1022\t\t\t\n      JUMPDEST \t\t\t\n      PUSH [tag] 705\t\t\t\n      JUMP \t\t\t\n    tag 1021\t\t\t\n      JUMPDEST \t\t\t\n      SWAP1 \t\t\t\n      POP \t\t\t\n      DUP1 \t\t\t\n      PUSH 40\t\t\t\n      DUP5 \t\t\t\n      MUL \t\t\t\n      DUP4 \t\t\t\n      ADD \t\t\t\n      DUP6 \t\t\t\n      DUP2 \t\t\t\n      GT \t\t\t\n      ISZERO \t\t\t\n      PUSH [tag] 1023\t\t\t\n      JUMPI \t\t\t\n      PUSH [tag] 1024\t\t\t\n      PUSH [tag] 690\t\t\t\n      JUMP \t\t\t\n    tag 1024\t\t\t\n      JUMPDEST \t\t\t\n    tag 1023\t\t\t\n      JUMPDEST \t\t\t\n      DUP4 \t\t\t\n    tag 1025\t\t\t\n      JUMPDEST \t\t\t\n      DUP2 \t\t\t\n      DUP2 \t\t\t\n      LT \t\t\t\n      ISZERO \t\t\t\n      PUSH [tag] 1027\t\t\t\n      JUMPI \t\t\t\n      DUP1 \t\t\t\n      PUSH [tag] 1028\t\t\t\n      DUP9 \t\t\t\n      DUP3 \t\t\t\n      PUSH [tag] 713\t\t\t\n      JUMP \t\t\t\n    tag 1028\t\t\t\n      JUMPDEST \t\t\t\n      DUP5 \t\t\t\n      MSTORE \t\t\t\n      PUSH 20\t\t\t\n      DUP5 \t\t\t\n      ADD \t\t\t\n      SWAP4 \t\t\t\n      POP \t\t\t\n      POP \t\t\t\n      PUSH 40\t\t\t\n      DUP2 \t\t\t\n      ADD \t\t\t\n      SWAP1 \t\t\t\n      POP \t\t\t\n      PUSH [tag] 1025\t\t\t\n      JUMP \t\t\t\n    tag 1027\t\t\t\n      JUMPDEST \t\t\t\n      POP \t\t\t\n      POP \t\t\t\n      POP \t\t\t\n      SWAP4 \t\t\t\n      SWAP3 \t\t\t\n      POP \t\t\t\n      POP \t\t\t\n      POP \t\t\t\n      JUMP \t\t\t\n    tag 716\t\t\t\n      JUMPDEST \t\t\t\n      PUSH 0\t\t\t\n      DUP3 \t\t\t\n      PUSH 1F\t\t\t\n      DUP4 \t\t\t\n      ADD \t\t\t\n      SLT \t\t\t\n      PUSH [tag] 1030\t\t\t\n      JUMPI \t\t\t\n      PUSH [tag] 1031\t\t\t\n      PUSH [tag] 688\t\t\t\n      JUMP \t\t\t\n    tag 1031\t\t\t\n      JUMPDEST \t\t\t\n    tag 1030\t\t\t\n      JUMPDEST \t\t\t\n      PUSH 2\t\t\t\n      PUSH [tag] 1032\t\t\t\n      DUP5 \t\t\t\n      DUP3 \t\t\t\n      DUP6 \t\t\t\n      PUSH [tag] 715\t\t\t\n      JUMP \t\t\t\n    tag 1032\t\t\t\n      JUMPDEST \t\t\t\n      SWAP2 \t\t\t\n      POP \t\t\t\n      POP \t\t\t\n      SWAP3 \t\t\t\n      SWAP2 \t\t\t\n      POP \t\t\t\n      POP \t\t\t\n      JUMP \t\t\t\n    tag 77\t\t\t\n      JUMPDEST \t\t\t\n      PUSH 0\t\t\t\n      PUSH 0\t\t\t\n      PUSH 0\t\t\t\n      PUSH 0\t\t\t\n      PUSH 0\t\t\t\n      PUSH 0\t\t\t\n      PUSH 160\t\t\t\n      DUP8 \t\t\t\n      DUP10 \t\t\t\n      SUB \t\t\t\n      SLT \t\t\t\n      ISZERO \t\t\t\n      PUSH [tag] 1034\t\t\t\n      JUMPI \t\t\t\n      PUSH [tag] 1035\t\t\t\n      PUSH [tag] 682\t\t\t\n      JUMP \t\t\t\n    tag 1035\t\t\t\n      JUMPDEST \t\t\t\n    tag 1034\t\t\t\n      JUMPDEST \t\t\t\n      PUSH 0\t\t\t\n      PUSH [tag] 1036\t\t\t\n      DUP10 \t\t\t\n      DUP3 \t\t\t\n      DUP11 \t\t\t\n      ADD \t\t\t\n      PUSH [tag] 694\t\t\t\n      JUMP \t\t\t\n    tag 1036\t\t\t\n      JUMPDEST \t\t\t\n      SWAP7 \t\t\t\n      POP \t\t\t\n      POP \t\t\t\n      PUSH 20\t\t\t\n      DUP8 \t\t\t\n      ADD \t\t\t\n      CALLDATALOAD \t\t\t\n      PUSH FFFFFFFFFFFFFFFF\t\t\t\n      DUP2 \t\t\t\n      GT \t\t\t\n      ISZERO \t\t\t\n      PUSH [tag] 1037\t\t\t\n      JUMPI \t\t\t\n      PUSH [tag] 1038\t\t\t\n      PUSH [tag] 683\t\t\t\n      JUMP \t\t\t\n    tag 1038\t\t\t\n      JUMPDEST \t\t\t\n    tag 1037\t\t\t\n      JUMPDEST \t\t\t\n      PUSH [tag] 1039\t\t\t\n      DUP10 \t\t\t\n      DUP3 \t\t\t\n      DUP11 \t\t\t\n      ADD \t\t\t\n      PUSH [tag] 710\t\t\t\n      JUMP \t\t\t\n    tag 1039\t\t\t\n      JUMPDEST \t\t\t\n      SWAP6 \t\t\t\n      POP \t\t\t\n      POP \t\t\t\n      PUSH 40\t\t\t\n      PUSH [tag] 1040\t\t\t\n      DUP10 \t\t\t\n      DUP3 \t\t\t\n      DUP11 \t\t\t\n      ADD \t\t\t\n      PUSH [tag] 713\t\t\t\n      JUMP \t\t\t\n    tag 1040\t\t\t\n      JUMPDEST \t\t\t\n      SWAP5 \t\t\t\n      POP \t\t\t\n      POP \t\t\t\n      PUSH 80\t\t\t\n      PUSH [tag] 1041\t\t\t\n      DUP10 \t\t\t\n      DUP3 \t\t\t\n      DUP11 \t\t\t\n      ADD \t\t\t\n      PUSH [tag] 716\t\t\t\n      JUMP \t\t\t\n    tag 1041\t\t\t\n      JUMPDEST \t\t\t\n      SWAP4 \t\t\t\n      POP \t\t\t\n      POP \t\t\t\n      PUSH 100\t\t\t\n      PUSH [tag] 1042\t\t\t\n      DUP10 \t\t\t\n      DUP3 \t\t\t\n      DUP11 \t\t\t\n      ADD \t\t\t\n      PUSH [tag] 713\t\t\t\n      JUMP \t\t\t\n    tag 1042\t\t\t\n      JUMPDEST \t\t\t\n      SWAP3 \t\t\t\n      POP \t\t\t\n      POP \t\t\t\n      PUSH 140\t\t\t\n      PUSH [tag] 1043\t\t\t\n      DUP10 \t\t\t\n      DUP3 \t\t\t\n      DUP11 \t\t\t\n      ADD \t\t\t\n      PUSH [tag] 687\t\t\t\n      JUMP \t\t\t\n    tag 1043\t\t\t\n      JUMPDEST \t\t\t\n      SWAP2 \t\t\t\n      POP \t\t\t\n      POP \t\t\t\n      SWAP3 \t\t\t\n      SWAP6 \t\t\t\n      POP \t\t\t\n      SWAP3 \t\t\t\n      SWAP6 \t\t\t\n      POP \t\t\t\n      SWAP3 \t\t\t\n      SWAP6 \t\t\t\n      JUMP \t\t\t\n    tag 717\t\t\t\n      JUMPDEST \t\t\t\n      PUSH 0\t\t\t\n      DUP2 \t\t\t\n      MLOAD \t\t\t\n      SWAP1 \t\t\t\n      POP \t\t\t\n      SWAP2 \t\t\t\n      SWAP1 \t\t\t\n      POP \t\t\t\n      JUMP \t\t\t\n    tag 718\t\t\t\n      JUMPDEST \t\t\t\n      PUSH 0\t\t\t\n      DUP3 \t\t\t\n      DUP3 \t\t\t\n      MSTORE \t\t\t\n      PUSH 20\t\t\t\n      DUP3 \t\t\t\n      ADD \t\t\t\n      SWAP1 \t\t\t\n      POP \t\t\t\n      SWAP3 \t\t\t\n      SWAP2 \t\t\t\n      POP \t\t\t\n      POP \t\t\t\n      JUMP \t\t\t\n    tag 719\t\t\t\n      JUMPDEST \t\t\t\n      PUSH 0\t\t\t\n      DUP2 \t\t\t\n      SWAP1 \t\t\t\n      POP \t\t\t\n      PUSH 20\t\t\t\n      DUP3 \t\t\t\n      ADD \t\t\t\n      SWAP1 \t\t\t\n      POP \t\t\t\n      SWAP2 \t\t\t\n      SWAP1 \t\t\t\n      POP \t\t\t\n      JUMP \t\t\t\n    tag 720\t\t\t\n      JUMPDEST \t\t\t\n      PUSH 0\t\t\t\n      DUP2 \t\t\t\n      MLOAD \t\t\t\n      SWAP1 \t\t\t\n      POP \t\t\t\n      SWAP2 \t\t\t\n      SWAP1 \t\t\t\n      POP \t\t\t\n      JUMP \t\t\t\n    tag 721\t\t\t\n      JUMPDEST \t\t\t\n      PUSH 0\t\t\t\n      DUP3 \t\t\t\n      DUP3 \t\t\t\n      MSTORE \t\t\t\n      PUSH 20\t\t\t\n      DUP3 \t\t\t\n      ADD \t\t\t\n      SWAP1 \t\t\t\n      POP \t\t\t\n      SWAP3 \t\t\t\n      SWAP2 \t\t\t\n      POP \t\t\t\n      POP \t\t\t\n      JUMP \t\t\t\n    tag 722\t\t\t\n      JUMPDEST \t\t\t\n      DUP3 \t\t\t\n      DUP2 \t\t\t\n      DUP4 \t\t\t\n      MCOPY \t\t\t\n      PUSH 0\t\t\t\n      DUP4 \t\t\t\n      DUP4 \t\t\t\n      ADD \t\t\t\n      MSTORE \t\t\t\n      POP \t\t\t\n      POP \t\t\t\n      POP \t\t\t\n      JUMP \t\t\t\n    tag 723\t\t\t\n      JUMPDEST \t\t\t\n      PUSH 0\t\t\t\n      PUSH [tag] 1051\t\t\t\n      DUP3 \t\t\t\n      PUSH [tag] 720\t\t\t\n      JUMP \t\t\t\n    tag 1051\t\t\t\n      JUMPDEST \t\t\t\n      PUSH [tag] 1052\t\t\t\n      DUP2 \t\t\t\n      DUP6 \t\t\t\n      PUSH [tag] 721\t\t\t\n      JUMP \t\t\t\n    tag 1052\t\t\t\n      JUMPDEST \t\t\t\n      SWAP4 \t\t\t\n      POP \t\t\t\n      PUSH [tag] 1053\t\t\t\n      DUP2 \t\t\t\n      DUP6 \t\t\t\n      PUSH 20\t\t\t\n      DUP7 \t\t\t\n      ADD \t\t\t\n      PUSH [tag] 722\t\t\t\n      JUMP \t\t\t\n    tag 1053\t\t\t\n      JUMPDEST \t\t\t\n      PUSH [tag] 1054\t\t\t\n      DUP2 \t\t\t\n      PUSH [tag] 703\t\t\t\n      JUMP \t\t\t\n    tag 1054\t\t\t\n      JUMPDEST \t\t\t\n      DUP5 \t\t\t\n      ADD \t\t\t\n      SWAP2 \t\t\t\n      POP \t\t\t\n      POP \t\t\t\n      SWAP3 \t\t\t\n      SWAP2 \t\t\t\n      POP \t\t\t\n      POP \t\t\t\n      JUMP \t\t\t\n    tag 724\t\t\t\n      JUMPDEST \t\t\t\n      PUSH [tag] 1056\t\t\t\n      DUP2 \t\t\t\n      PUSH [tag] 697\t\t\t\n      JUMP \t\t\t\n    tag 1056\t\t\t\n      JUMPDEST \t\t\t\n      DUP3 \t\t\t\n      MSTORE \t\t\t\n      POP \t\t\t\n      POP \t\t\t\n      JUMP \t\t\t\n    tag 725\t\t\t\n      JUMPDEST \t\t\t\n      PUSH 0\t\t\t\n      PUSH 40\t\t\t\n      DUP4 \t\t\t\n      ADD \t\t\t\n      PUSH 0\t\t\t\n      DUP4 \t\t\t\n      ADD \t\t\t\n      MLOAD \t\t\t\n      DUP5 \t\t\t\n      DUP3 \t\t\t\n      SUB \t\t\t\n      PUSH 0\t\t\t\n      DUP7 \t\t\t\n      ADD \t\t\t\n      MSTORE \t\t\t\n      PUSH [tag] 1058\t\t\t\n      DUP3 \t\t\t\n      DUP3 \t\t\t\n      PUSH [tag] 723\t\t\t\n      JUMP \t\t\t\n    tag 1058\t\t\t\n      JUMPDEST \t\t\t\n      SWAP2 \t\t\t\n      POP \t\t\t\n      POP \t\t\t\n      PUSH 20\t\t\t\n      DUP4 \t\t\t\n      ADD \t\t\t\n      MLOAD \t\t\t\n      PUSH [tag] 1059\t\t\t\n      PUSH 20\t\t\t\n      DUP7 \t\t\t\n      ADD \t\t\t\n      DUP3 \t\t\t\n      PUSH [tag] 724\t\t\t\n      JUMP \t\t\t\n    tag 1059\t\t\t\n      JUMPDEST \t\t\t\n      POP \t\t\t\n      DUP1 \t\t\t\n      SWAP2 \t\t\t\n      POP \t\t\t\n      POP \t\t\t\n      SWAP3 \t\t\t\n      SWAP2 \t\t\t\n      POP \t\t\t\n      POP \t\t\t\n      JUMP \t\t\t\n    tag 726\t\t\t\n      JUMPDEST \t\t\t\n      PUSH 0\t\t\t\n      PUSH [tag] 1061\t\t\t\n      DUP4 \t\t\t\n      DUP4 \t\t\t\n      PUSH [tag] 725\t\t\t\n      JUMP \t\t\t\n    tag 1061\t\t\t\n      JUMPDEST \t\t\t\n      SWAP1 \t\t\t\n      POP \t\t\t\n      SWAP3 \t\t\t\n      SWAP2 \t\t\t\n      POP \t\t\t\n      POP \t\t\t\n      JUMP \t\t\t\n    tag 727\t\t\t\n      JUMPDEST \t\t\t\n      PUSH 0\t\t\t\n      PUSH 20\t\t\t\n      DUP3 \t\t\t\n      ADD \t\t\t\n      SWAP1 \t\t\t\n      POP \t\t\t\n      SWAP2 \t\t\t\n      SWAP1 \t\t\t\n      POP \t\t\t\n      JUMP \t\t\t\n    tag 728\t\t\t\n      JUMPDEST \t\t\t\n      PUSH 0\t\t\t\n      PUSH [tag] 1064\t\t\t\n      DUP3 \t\t\t\n      PUSH [tag] 717\t\t\t\n      JUMP \t\t\t\n    tag 1064\t\t\t\n      JUMPDEST \t\t\t\n      PUSH [tag] 1065\t\t\t\n      DUP2 \t\t\t\n      DUP6 \t\t\t\n      PUSH [tag] 718\t\t\t\n      JUMP \t\t\t\n    tag 1065\t\t\t\n      JUMPDEST \t\t\t\n      SWAP4 \t\t\t\n      POP \t\t\t\n      DUP4 \t\t\t\n      PUSH 20\t\t\t\n      DUP3 \t\t\t\n      MUL \t\t\t\n      DUP6 \t\t\t\n      ADD \t\t\t\n      PUSH [tag] 1066\t\t\t\n      DUP6 \t\t\t\n      PUSH [tag] 719\t\t\t\n      JUMP \t\t\t\n    tag 1066\t\t\t\n      JUMPDEST \t\t\t\n      DUP1 \t\t\t\n      PUSH 0\t\t\t\n    tag 1067\t\t\t\n      JUMPDEST \t\t\t\n      DUP6 \t\t\t\n      DUP2 \t\t\t\n      LT \t\t\t\n      ISZERO \t\t\t\n      PUSH [tag] 1069\t\t\t\n      JUMPI \t\t\t\n      DUP5 \t\t\t\n      DUP5 \t\t\t\n      SUB \t\t\t\n      DUP10 \t\t\t\n      MSTORE \t\t\t\n      DUP2 \t\t\t\n      MLOAD \t\t\t\n      PUSH [tag] 1070\t\t\t\n      DUP6 \t\t\t\n      DUP3 \t\t\t\n      PUSH [tag] 726\t\t\t\n      JUMP \t\t\t\n    tag 1070\t\t\t\n      JUMPDEST \t\t\t\n      SWAP5 \t\t\t\n      POP \t\t\t\n      PUSH [tag] 1071\t\t\t\n      DUP4 \t\t\t\n      PUSH [tag] 727\t\t\t\n      JUMP \t\t\t\n    tag 1071\t\t\t\n      JUMPDEST \t\t\t\n      SWAP3 \t\t\t\n      POP \t\t\t\n      PUSH 20\t\t\t\n      DUP11 \t\t\t\n      ADD \t\t\t\n      SWAP10 \t\t\t\n      POP \t\t\t\n      POP \t\t\t\n      PUSH 1\t\t\t\n      DUP2 \t\t\t\n      ADD \t\t\t\n      SWAP1 \t\t\t\n      POP \t\t\t\n      PUSH [tag] 1067\t\t\t\n      JUMP \t\t\t\n    tag 1069\t\t\t\n      JUMPDEST \t\t\t\n      POP \t\t\t\n      DUP3 \t\t\t\n      SWAP8 \t\t\t\n      POP \t\t\t\n      DUP8 \t\t\t\n      SWAP6 \t\t\t\n      POP \t\t\t\n      POP \t\t\t\n      POP \t\t\t\n      POP \t\t\t\n      POP \t\t\t\n      POP \t\t\t\n      SWAP3 \t\t\t\n      SWAP2 \t\t\t\n      POP \t\t\t\n      POP \t\t\t\n      JUMP \t\t\t\n    tag 80\t\t\t\n      JUMPDEST \t\t\t\n      PUSH 0\t\t\t\n      PUSH 20\t\t\t\n      DUP3 \t\t\t\n      ADD \t\t\t\n      SWAP1 \t\t\t\n      POP \t\t\t\n      DUP2 \t\t\t\n      DUP2 \t\t\t\n      SUB \t\t\t\n      PUSH 0\t\t\t\n      DUP4 \t\t\t\n      ADD \t\t\t\n      MSTORE \t\t\t\n      PUSH [tag] 1073\t\t\t\n      DUP2 \t\t\t\n      DUP5 \t\t\t\n      PUSH [tag] 728\t\t\t\n      JUMP \t\t\t\n    tag 1073\t\t\t\n      JUMPDEST \t\t\t\n      SWAP1 \t\t\t\n      POP \t\t\t\n      SWAP3 \t\t\t\n      SWAP2 \t\t\t\n      POP \t\t\t\n      POP \t\t\t\n      JUMP \t\t\t\n    tag 729\t\t\t\n      JUMPDEST \t\t\t\n      PUSH 0\t\t\t\n      DUP3 \t\t\t\n      DUP3 \t\t\t\n      MSTORE \t\t\t\n      PUSH 20\t\t\t\n      DUP3 \t\t\t\n      ADD \t\t\t\n      SWAP1 \t\t\t\n      POP \t\t\t\n      SWAP3 \t\t\t\n      SWAP2 \t\t\t\n      POP \t\t\t\n      POP \t\t\t\n      JUMP \t\t\t\n    tag 730\t\t\t\n      JUMPDEST \t\t\t\n      PUSH 0\t\t\t\n      PUSH [tag] 1076\t\t\t\n      DUP3 \t\t\t\n      PUSH [tag] 720\t\t\t\n      JUMP \t\t\t\n    tag 1076\t\t\t\n      JUMPDEST \t\t\t\n      PUSH [tag] 1077\t\t\t\n      DUP2 \t\t\t\n      DUP6 \t\t\t\n      PUSH [tag] 729\t\t\t\n      JUMP \t\t\t\n    tag 1077\t\t\t\n      JUMPDEST \t\t\t\n      SWAP4 \t\t\t\n      POP \t\t\t\n      PUSH [tag] 1078\t\t\t\n      DUP2 \t\t\t\n      DUP6 \t\t\t\n      PUSH 20\t\t\t\n      DUP7 \t\t\t\n      ADD \t\t\t\n      PUSH [tag] 722\t\t\t\n      JUMP \t\t\t\n    tag 1078\t\t\t\n      JUMPDEST \t\t\t\n      PUSH [tag] 1079\t\t\t\n      DUP2 \t\t\t\n      PUSH [tag] 703\t\t\t\n      JUMP \t\t\t\n    tag 1079\t\t\t\n      JUMPDEST \t\t\t\n      DUP5 \t\t\t\n      ADD \t\t\t\n      SWAP2 \t\t\t\n      POP \t\t\t\n      POP \t\t\t\n      SWAP3 \t\t\t\n      SWAP2 \t\t\t\n      POP \t\t\t\n      POP \t\t\t\n      JUMP \t\t\t\n    tag 84\t\t\t\n      JUMPDEST \t\t\t\n      PUSH 0\t\t\t\n      PUSH 20\t\t\t\n      DUP3 \t\t\t\n      ADD \t\t\t\n      SWAP1 \t\t\t\n      POP \t\t\t\n      DUP2 \t\t\t\n      DUP2 \t\t\t\n      SUB \t\t\t\n      PUSH 0\t\t\t\n      DUP4 \t\t\t\n      ADD \t\t\t\n      MSTORE \t\t\t\n      PUSH [tag] 1081\t\t\t\n      DUP2 \t\t\t\n      DUP5 \t\t\t\n      PUSH [tag] 730\t\t\t\n      JUMP \t\t\t\n    tag 1081\t\t\t\n      JUMPDEST \t\t\t\n      SWAP1 \t\t\t\n      POP \t\t\t\n      SWAP3 \t\t\t\n      SWAP2 \t\t\t\n      POP \t\t\t\n      POP \t\t\t\n      JUMP \t\t\t\n    tag 731\t\t\t\n      JUMPDEST \t\t\t\n      PUSH 0\t\t\t\n      PUSH [tag] 1083\t\t\t\n      DUP3 \t\t\t\n      PUSH [tag] 685\t\t\t\n      JUMP \t\t\t\n    tag 1083\t\t\t\n      JUMPDEST \t\t\t\n      SWAP1 \t\t\t\n      POP \t\t\t\n      SWAP2 \t\t\t\n      SWAP1 \t\t\t\n      POP \t\t\t\n      JUMP \t\t\t\n    tag 732\t\t\t\n      JUMPDEST \t\t\t\n      PUSH [tag] 1085\t\t\t\n      DUP2 \t\t\t\n      PUSH [tag] 731\t\t\t\n      JUMP \t\t\t\n    tag 1085\t\t\t\n      JUMPDEST \t\t\t\n      DUP2 \t\t\t\n      EQ \t\t\t\n      PUSH [tag] 1086\t\t\t\n      JUMPI \t\t\t\n      PUSH 0\t\t\t\n      PUSH 0\t\t\t\n      REVERT \t\t\t\n    tag 1086\t\t\t\n      JUMPDEST \t\t\t\n      POP \t\t\t\n      JUMP \t\t\t\n    tag 733\t\t\t\n      JUMPDEST \t\t\t\n      PUSH 0\t\t\t\n      DUP2 \t\t\t\n      CALLDATALOAD \t\t\t\n      SWAP1 \t\t\t\n      POP \t\t\t\n      PUSH [tag] 1088\t\t\t\n      DUP2 \t\t\t\n      PUSH [tag] 732\t\t\t\n      JUMP \t\t\t\n    tag 1088\t\t\t\n      JUMPDEST \t\t\t\n      SWAP3 \t\t\t\n      SWAP2 \t\t\t\n      POP \t\t\t\n      POP \t\t\t\n      JUMP \t\t\t\n    tag 87\t\t\t\n      JUMPDEST \t\t\t\n      PUSH 0\t\t\t\n      PUSH 20\t\t\t\n      DUP3 \t\t\t\n      DUP5 \t\t\t\n      SUB \t\t\t\n      SLT \t\t\t\n      ISZERO \t\t\t\n      PUSH [tag] 1090\t\t\t\n      JUMPI \t\t\t\n      PUSH [tag] 1091\t\t\t\n      PUSH [tag] 682\t\t\t\n      JUMP \t\t\t\n    tag 1091\t\t\t\n      JUMPDEST \t\t\t\n    tag 1090\t\t\t\n      JUMPDEST \t\t\t\n      PUSH 0\t\t\t\n      PUSH [tag] 1092\t\t\t\n      DUP5 \t\t\t\n      DUP3 \t\t\t\n      DUP6 \t\t\t\n      ADD \t\t\t\n      PUSH [tag] 733\t\t\t\n      JUMP \t\t\t\n    tag 1092\t\t\t\n      JUMPDEST \t\t\t\n      SWAP2 \t\t\t\n      POP \t\t\t\n      POP \t\t\t\n      SWAP3 \t\t\t\n      SWAP2 \t\t\t\n      POP \t\t\t\n      POP \t\t\t\n      JUMP \t\t\t\n    tag 91\t\t\t\n      JUMPDEST \t\t\t\n      PUSH 0\t\t\t\n      PUSH 0\t\t\t\n      PUSH 40\t\t\t\n      DUP4 \t\t\t\n      DUP6 \t\t\t\n      SUB \t\t\t\n      SLT \t\t\t\n      ISZERO \t\t\t\n      PUSH [tag] 1094\t\t\t\n      JUMPI \t\t\t\n      PUSH [tag] 1095\t\t\t\n      PUSH [tag] 682\t\t\t\n      JUMP \t\t\t\n    tag 1095\t\t\t\n      JUMPDEST \t\t\t\n    tag 1094\t\t\t\n      JUMPDEST \t\t\t\n      PUSH 0\t\t\t\n      PUSH [tag] 1096\t\t\t\n      DUP6 \t\t\t\n      DUP3 \t\t\t\n      DUP7 \t\t\t\n      ADD \t\t\t\n      PUSH [tag] 708\t\t\t\n      JUMP \t\t\t\n    tag 1096\t\t\t\n      JUMPDEST \t\t\t\n      SWAP3 \t\t\t\n      POP \t\t\t\n      POP \t\t\t\n      PUSH 20\t\t\t\n      PUSH [tag] 1097\t\t\t\n      DUP6 \t\t\t\n      DUP3 \t\t\t\n      DUP7 \t\t\t\n      ADD \t\t\t\n      PUSH [tag] 708\t\t\t\n      JUMP \t\t\t\n    tag 1097\t\t\t\n      JUMPDEST \t\t\t\n      SWAP2 \t\t\t\n      POP \t\t\t\n      POP \t\t\t\n      SWAP3 \t\t\t\n      POP \t\t\t\n      SWAP3 \t\t\t\n      SWAP1 \t\t\t\n      POP \t\t\t\n      JUMP \t\t\t\n    tag 734\t\t\t\n      JUMPDEST \t\t\t\n      PUSH 0\t\t\t\n      DUP2 \t\t\t\n      MLOAD \t\t\t\n      SWAP1 \t\t\t\n      POP \t\t\t\n      SWAP2 \t\t\t\n      SWAP1 \t\t\t\n      POP \t\t\t\n      JUMP \t\t\t\n    tag 735\t\t\t\n      JUMPDEST \t\t\t\n      PUSH 0\t\t\t\n      DUP3 \t\t\t\n      DUP3 \t\t\t\n      MSTORE \t\t\t\n      PUSH 20\t\t\t\n      DUP3 \t\t\t\n      ADD \t\t\t\n      SWAP1 \t\t\t\n      POP \t\t\t\n      SWAP3 \t\t\t\n      SWAP2 \t\t\t\n      POP \t\t\t\n      POP \t\t\t\n      JUMP \t\t\t\n    tag 736\t\t\t\n      JUMPDEST \t\t\t\n      PUSH 0\t\t\t\n      DUP2 \t\t\t\n      SWAP1 \t\t\t\n      POP \t\t\t\n      PUSH 20\t\t\t\n      DUP3 \t\t\t\n      ADD \t\t\t\n      SWAP1 \t\t\t\n      POP \t\t\t\n      SWAP2 \t\t\t\n      SWAP1 \t\t\t\n      POP \t\t\t\n      JUMP \t\t\t\n    tag 737\t\t\t\n      JUMPDEST \t\t\t\n      PUSH 0\t\t\t\n      DUP2 \t\t\t\n      SWAP1 \t\t\t\n      POP \t\t\t\n      SWAP2 \t\t\t\n      SWAP1 \t\t\t\n      POP \t\t\t\n      JUMP \t\t\t\n    tag 738\t\t\t\n      JUMPDEST \t\t\t\n      PUSH 0\t\t\t\n      PUSH [tag] 1103\t\t\t\n      PUSH [tag] 1104\t\t\t\n      PUSH [tag] 1105\t\t\t\n      DUP5 \t\t\t\n      PUSH [tag] 684\t\t\t\n      JUMP \t\t\t\n    tag 1105\t\t\t\n      JUMPDEST \t\t\t\n      PUSH [tag] 737\t\t\t\n      JUMP \t\t\t\n    tag 1104\t\t\t\n      JUMPDEST \t\t\t\n      PUSH [tag] 684\t\t\t\n      JUMP \t\t\t\n    tag 1103\t\t\t\n      JUMPDEST \t\t\t\n      SWAP1 \t\t\t\n      POP \t\t\t\n      SWAP2 \t\t\t\n      SWAP1 \t\t\t\n      POP \t\t\t\n      JUMP \t\t\t\n    tag 739\t\t\t\n      JUMPDEST \t\t\t\n      PUSH 0\t\t\t\n      PUSH [tag] 1107\t\t\t\n      DUP3 \t\t\t\n      PUSH [tag] 738\t\t\t\n      JUMP \t\t\t\n    tag 1107\t\t\t\n      JUMPDEST \t\t\t\n      SWAP1 \t\t\t\n      POP \t\t\t\n      SWAP2 \t\t\t\n      SWAP1 \t\t\t\n      POP \t\t\t\n      JUMP \t\t\t\n    tag 740\t\t\t\n      JUMPDEST \t\t\t\n      PUSH 0\t\t\t\n      PUSH [tag] 1109\t\t\t\n      DUP3 \t\t\t\n      PUSH [tag] 739\t\t\t\n      JUMP \t\t\t\n    tag 1109\t\t\t\n      JUMPDEST \t\t\t\n      SWAP1 \t\t\t\n      POP \t\t\t\n      SWAP2 \t\t\t\n      SWAP1 \t\t\t\n      POP \t\t\t\n      JUMP \t\t\t\n    tag 741\t\t\t\n      JUMPDEST \t\t\t\n      PUSH [tag] 1111\t\t\t\n      DUP2 \t\t\t\n      PUSH [tag] 740\t\t\t\n      JUMP \t\t\t\n    tag 1111\t\t\t\n      JUMPDEST \t\t\t\n      DUP3 \t\t\t\n      MSTORE \t\t\t\n      POP \t\t\t\n      POP \t\t\t\n      JUMP \t\t\t\n    tag 742\t\t\t\n      JUMPDEST \t\t\t\n      PUSH 0\t\t\t\n      DUP2 \t\t\t\n      MLOAD \t\t\t\n      SWAP1 \t\t\t\n      POP \t\t\t\n      SWAP2 \t\t\t\n      SWAP1 \t\t\t\n      POP \t\t\t\n      JUMP \t\t\t\n    tag 743\t\t\t\n      JUMPDEST \t\t\t\n      PUSH 0\t\t\t\n      DUP3 \t\t\t\n      DUP3 \t\t\t\n      MSTORE \t\t\t\n      PUSH 20\t\t\t\n      DUP3 \t\t\t\n      ADD \t\t\t\n      SWAP1 \t\t\t\n      POP \t\t\t\n      SWAP3 \t\t\t\n      SWAP2 \t\t\t\n      POP \t\t\t\n      POP \t\t\t\n      JUMP \t\t\t\n    tag 744\t\t\t\n      JUMPDEST \t\t\t\n      PUSH 0\t\t\t\n      PUSH [tag] 1115\t\t\t\n      DUP3 \t\t\t\n      PUSH [tag] 742\t\t\t\n      JUMP \t\t\t\n    tag 1115\t\t\t\n      JUMPDEST \t\t\t\n      PUSH [tag] 1116\t\t\t\n      DUP2 \t\t\t\n      DUP6 \t\t\t\n      PUSH [tag] 743\t\t\t\n      JUMP \t\t\t\n    tag 1116\t\t\t\n      JUMPDEST \t\t\t\n      SWAP4 \t\t\t\n      POP \t\t\t\n      PUSH [tag] 1117\t\t\t\n      DUP2 \t\t\t\n      DUP6 \t\t\t\n      PUSH 20\t\t\t\n      DUP7 \t\t\t\n      ADD \t\t\t\n      PUSH [tag] 722\t\t\t\n      JUMP \t\t\t\n    tag 1117\t\t\t\n      JUMPDEST \t\t\t\n      PUSH [tag] 1118\t\t\t\n      DUP2 \t\t\t\n      PUSH [tag] 703\t\t\t\n      JUMP \t\t\t\n    tag 1118\t\t\t\n      JUMPDEST \t\t\t\n      DUP5 \t\t\t\n      ADD \t\t\t\n      SWAP2 \t\t\t\n      POP \t\t\t\n      POP \t\t\t\n      SWAP3 \t\t\t\n      SWAP2 \t\t\t\n      POP \t\t\t\n      POP \t\t\t\n      JUMP \t\t\t\n    tag 745\t\t\t\n      JUMPDEST \t\t\t\n      PUSH 0\t\t\t\n      PUSH 60\t\t\t\n      DUP4 \t\t\t\n      ADD \t\t\t\n      PUSH 0\t\t\t\n      DUP4 \t\t\t\n      ADD \t\t\t\n      MLOAD \t\t\t\n      DUP5 \t\t\t\n      DUP3 \t\t\t\n      SUB \t\t\t\n      PUSH 0\t\t\t\n      DUP7 \t\t\t\n      ADD \t\t\t\n      MSTORE \t\t\t\n      PUSH [tag] 1120\t\t\t\n      DUP3 \t\t\t\n      DUP3 \t\t\t\n      PUSH [tag] 723\t\t\t\n      JUMP \t\t\t\n    tag 1120\t\t\t\n      JUMPDEST \t\t\t\n      SWAP2 \t\t\t\n      POP \t\t\t\n      POP \t\t\t\n      PUSH 20\t\t\t\n      DUP4 \t\t\t\n      ADD \t\t\t\n      MLOAD \t\t\t\n      PUSH [tag] 1121\t\t\t\n      PUSH 20\t\t\t\n      DUP7 \t\t\t\n      ADD \t\t\t\n      DUP3 \t\t\t\n      PUSH [tag] 741\t\t\t\n      JUMP \t\t\t\n    tag 1121\t\t\t\n      JUMPDEST \t\t\t\n      POP \t\t\t\n      PUSH 40\t\t\t\n      DUP4 \t\t\t\n      ADD \t\t\t\n      MLOAD \t\t\t\n      DUP5 \t\t\t\n      DUP3 \t\t\t\n      SUB \t\t\t\n      PUSH 40\t\t\t\n      DUP7 \t\t\t\n      ADD \t\t\t\n      MSTORE \t\t\t\n      PUSH [tag] 1122\t\t\t\n      DUP3 \t\t\t\n      DUP3 \t\t\t\n      PUSH [tag] 744\t\t\t\n      JUMP \t\t\t\n    tag 1122\t\t\t\n      JUMPDEST \t\t\t\n      SWAP2 \t\t\t\n      POP \t\t\t\n      POP \t\t\t\n      DUP1 \t\t\t\n      SWAP2 \t\t\t\n      POP \t\t\t\n      POP \t\t\t\n      SWAP3 \t\t\t\n      SWAP2 \t\t\t\n      POP \t\t\t\n      POP \t\t\t\n      JUMP \t\t\t\n    tag 746\t\t\t\n      JUMPDEST \t\t\t\n      PUSH 0\t\t\t\n      PUSH [tag] 1124\t\t\t\n      DUP4 \t\t\t\n      DUP4 \t\t\t\n      PUSH [tag] 745\t\t\t\n      JUMP \t\t\t\n    tag 1124\t\t\t\n      JUMPDEST \t\t\t\n      SWAP1 \t\t\t\n      POP \t\t\t\n      SWAP3 \t\t\t\n      SWAP2 \t\t\t\n      POP \t\t\t\n      POP \t\t\t\n      JUMP \t\t\t\n    tag 747\t\t\t\n      JUMPDEST \t\t\t\n      PUSH 0\t\t\t\n      PUSH 20\t\t\t\n      DUP3 \t\t\t\n      ADD \t\t\t\n      SWAP1 \t\t\t\n      POP \t\t\t\n      SWAP2 \t\t\t\n      SWAP1 \t\t\t\n      POP \t\t\t\n      JUMP \t\t\t\n    tag 748\t\t\t\n      JUMPDEST \t\t\t\n      PUSH 0\t\t\t\n      PUSH [tag] 1127\t\t\t\n      DUP3 \t\t\t\n      PUSH [tag] 734\t\t\t\n      JUMP \t\t\t\n    tag 1127\t\t\t\n      JUMPDEST \t\t\t\n      PUSH [tag] 1128\t\t\t\n      DUP2 \t\t\t\n      DUP6 \t\t\t\n      PUSH [tag] 735\t\t\t\n      JUMP \t\t\t\n    tag 1128\t\t\t\n      JUMPDEST \t\t\t\n      SWAP4 \t\t\t\n      POP \t\t\t\n      DUP4 \t\t\t\n      PUSH 20\t\t\t\n      DUP3 \t\t\t\n      MUL \t\t\t\n      DUP6 \t\t\t\n      ADD \t\t\t\n      PUSH [tag] 1129\t\t\t\n      DUP6 \t\t\t\n      PUSH [tag] 736\t\t\t\n      JUMP \t\t\t\n    tag 1129\t\t\t\n      JUMPDEST \t\t\t\n      DUP1 \t\t\t\n      PUSH 0\t\t\t\n    tag 1130\t\t\t\n      JUMPDEST \t\t\t\n      DUP6 \t\t\t\n      DUP2 \t\t\t\n      LT \t\t\t\n      ISZERO \t\t\t\n      PUSH [tag] 1132\t\t\t\n      JUMPI \t\t\t\n      DUP5 \t\t\t\n      DUP5 \t\t\t\n      SUB \t\t\t\n      DUP10 \t\t\t\n      MSTORE \t\t\t\n      DUP2 \t\t\t\n      MLOAD \t\t\t\n      PUSH [tag] 1133\t\t\t\n      DUP6 \t\t\t\n      DUP3 \t\t\t\n      PUSH [tag] 746\t\t\t\n      JUMP \t\t\t\n    tag 1133\t\t\t\n      JUMPDEST \t\t\t\n      SWAP5 \t\t\t\n      POP \t\t\t\n      PUSH [tag] 1134\t\t\t\n      DUP4 \t\t\t\n      PUSH [tag] 747\t\t\t\n      JUMP \t\t\t\n    tag 1134\t\t\t\n      JUMPDEST \t\t\t\n      SWAP3 \t\t\t\n      POP \t\t\t\n      PUSH 20\t\t\t\n      DUP11 \t\t\t\n      ADD \t\t\t\n      SWAP10 \t\t\t\n      POP \t\t\t\n      POP \t\t\t\n      PUSH 1\t\t\t\n      DUP2 \t\t\t\n      ADD \t\t\t\n      SWAP1 \t\t\t\n      POP \t\t\t\n      PUSH [tag] 1130\t\t\t\n      JUMP \t\t\t\n    tag 1132\t\t\t\n      JUMPDEST \t\t\t\n      POP \t\t\t\n      DUP3 \t\t\t\n      SWAP8 \t\t\t\n      POP \t\t\t\n      DUP8 \t\t\t\n      SWAP6 \t\t\t\n      POP \t\t\t\n      POP \t\t\t\n      POP \t\t\t\n      POP \t\t\t\n      POP \t\t\t\n      POP \t\t\t\n      SWAP3 \t\t\t\n      SWAP2 \t\t\t\n      POP \t\t\t\n      POP \t\t\t\n      JUMP \t\t\t\n    tag 94\t\t\t\n      JUMPDEST \t\t\t\n      PUSH 0\t\t\t\n      PUSH 20\t\t\t\n      DUP3 \t\t\t\n      ADD \t\t\t\n      SWAP1 \t\t\t\n      POP \t\t\t\n      DUP2 \t\t\t\n      DUP2 \t\t\t\n      SUB \t\t\t\n      PUSH 0\t\t\t\n      DUP4 \t\t\t\n      ADD \t\t\t\n      MSTORE \t\t\t\n      PUSH [tag] 1136\t\t\t\n      DUP2 \t\t\t\n      DUP5 \t\t\t\n      PUSH [tag] 748\t\t\t\n      JUMP \t\t\t\n    tag 1136\t\t\t\n      JUMPDEST \t\t\t\n      SWAP1 \t\t\t\n      POP \t\t\t\n      SWAP3 \t\t\t\n      SWAP2 \t\t\t\n      POP \t\t\t\n      POP \t\t\t\n      JUMP \t\t\t\n    tag 749\t\t\t\n      JUMPDEST \t\t\t\n      PUSH [tag] 1138\t\t\t\n      DUP2 \t\t\t\n      PUSH [tag] 695\t\t\t\n      JUMP \t\t\t\n    tag 1138\t\t\t\n      JUMPDEST \t\t\t\n      DUP3 \t\t\t\n      MSTORE \t\t\t\n      POP \t\t\t\n      POP \t\t\t\n      JUMP \t\t\t\n    tag 750\t\t\t\n      JUMPDEST \t\t\t\n      PUSH 0\t\t\t\n      PUSH 80\t\t\t\n      DUP4 \t\t\t\n      ADD \t\t\t\n      PUSH 0\t\t\t\n      DUP4 \t\t\t\n      ADD \t\t\t\n      MLOAD \t\t\t\n      PUSH [tag] 1140\t\t\t\n      PUSH 0\t\t\t\n      DUP7 \t\t\t\n      ADD \t\t\t\n      DUP3 \t\t\t\n      PUSH [tag] 749\t\t\t\n      JUMP \t\t\t\n    tag 1140\t\t\t\n      JUMPDEST \t\t\t\n      POP \t\t\t\n      PUSH 20\t\t\t\n      DUP4 \t\t\t\n      ADD \t\t\t\n      MLOAD \t\t\t\n      DUP5 \t\t\t\n      DUP3 \t\t\t\n      SUB \t\t\t\n      PUSH 20\t\t\t\n      DUP7 \t\t\t\n      ADD \t\t\t\n      MSTORE \t\t\t\n      PUSH [tag] 1141\t\t\t\n      DUP3 \t\t\t\n      DUP3 \t\t\t\n      PUSH [tag] 723\t\t\t\n      JUMP \t\t\t\n    tag 1141\t\t\t\n      JUMPDEST \t\t\t\n      SWAP2 \t\t\t\n      POP \t\t\t\n      POP \t\t\t\n      PUSH 40\t\t\t\n      DUP4 \t\t\t\n      ADD \t\t\t\n      MLOAD \t\t\t\n      PUSH [tag] 1142\t\t\t\n      PUSH 40\t\t\t\n      DUP7 \t\t\t\n      ADD \t\t\t\n      DUP3 \t\t\t\n      PUSH [tag] 724\t\t\t\n      JUMP \t\t\t\n    tag 1142\t\t\t\n      JUMPDEST \t\t\t\n      POP \t\t\t\n      PUSH 60\t\t\t\n      DUP4 \t\t\t\n      ADD \t\t\t\n      MLOAD \t\t\t\n      PUSH [tag] 1143\t\t\t\n      PUSH 60\t\t\t\n      DUP7 \t\t\t\n      ADD \t\t\t\n      DUP3 \t\t\t\n      PUSH [tag] 724\t\t\t\n      JUMP \t\t\t\n    tag 1143\t\t\t\n      JUMPDEST \t\t\t\n      POP \t\t\t\n      DUP1 \t\t\t\n      SWAP2 \t\t\t\n      POP \t\t\t\n      POP \t\t\t\n      SWAP3 \t\t\t\n      SWAP2 \t\t\t\n      POP \t\t\t\n      POP \t\t\t\n      JUMP \t\t\t\n    tag 116\t\t\t\n      JUMPDEST \t\t\t\n      PUSH 0\t\t\t\n      PUSH 20\t\t\t\n      DUP3 \t\t\t\n      ADD \t\t\t\n      SWAP1 \t\t\t\n      POP \t\t\t\n      DUP2 \t\t\t\n      DUP2 \t\t\t\n      SUB \t\t\t\n      PUSH 0\t\t\t\n      DUP4 \t\t\t\n      ADD \t\t\t\n      MSTORE \t\t\t\n      PUSH [tag] 1145\t\t\t\n      DUP2 \t\t\t\n      DUP5 \t\t\t\n      PUSH [tag] 750\t\t\t\n      JUMP \t\t\t\n    tag 1145\t\t\t\n      JUMPDEST \t\t\t\n      SWAP1 \t\t\t\n      POP \t\t\t\n      SWAP3 \t\t\t\n      SWAP2 \t\t\t\n      POP \t\t\t\n      POP \t\t\t\n      JUMP \t\t\t\n    tag 751\t\t\t\n      JUMPDEST \t\t\t\n      PUSH 0\t\t\t\n      PUSH 0\t\t\t\n      REVERT \t\t\t\n    tag 752\t\t\t\n      JUMPDEST \t\t\t\n      PUSH 0\t\t\t\n      PUSH 60\t\t\t\n      DUP3 \t\t\t\n      DUP5 \t\t\t\n      SUB \t\t\t\n      SLT \t\t\t\n      ISZERO \t\t\t\n      PUSH [tag] 1148\t\t\t\n      JUMPI \t\t\t\n      PUSH [tag] 1149\t\t\t\n      PUSH [tag] 751\t\t\t\n      JUMP \t\t\t\n    tag 1149\t\t\t\n      JUMPDEST \t\t\t\n    tag 1148\t\t\t\n      JUMPDEST \t\t\t\n      DUP2 \t\t\t\n      SWAP1 \t\t\t\n      POP \t\t\t\n      SWAP3 \t\t\t\n      SWAP2 \t\t\t\n      POP \t\t\t\n      POP \t\t\t\n      JUMP \t\t\t\n    tag 126\t\t\t\n      JUMPDEST \t\t\t\n      PUSH 0\t\t\t\n      PUSH 0\t\t\t\n      PUSH 40\t\t\t\n      DUP4 \t\t\t\n      DUP6 \t\t\t\n      SUB \t\t\t\n      SLT \t\t\t\n      ISZERO \t\t\t\n      PUSH [tag] 1151\t\t\t\n      JUMPI \t\t\t\n      PUSH [tag] 1152\t\t\t\n      PUSH [tag] 682\t\t\t\n      JUMP \t\t\t\n    tag 1152\t\t\t\n      JUMPDEST \t\t\t\n    tag 1151\t\t\t\n      JUMPDEST \t\t\t\n      PUSH 0\t\t\t\n      PUSH [tag] 1153\t\t\t\n      DUP6 \t\t\t\n      DUP3 \t\t\t\n      DUP7 \t\t\t\n      ADD \t\t\t\n      PUSH [tag] 694\t\t\t\n      JUMP \t\t\t\n    tag 1153\t\t\t\n      JUMPDEST \t\t\t\n      SWAP3 \t\t\t\n      POP \t\t\t\n      POP \t\t\t\n      PUSH 20\t\t\t\n      DUP4 \t\t\t\n      ADD \t\t\t\n      CALLDATALOAD \t\t\t\n      PUSH FFFFFFFFFFFFFFFF\t\t\t\n      DUP2 \t\t\t\n      GT \t\t\t\n      ISZERO \t\t\t\n      PUSH [tag] 1154\t\t\t\n      JUMPI \t\t\t\n      PUSH [tag] 1155\t\t\t\n      PUSH [tag] 683\t\t\t\n      JUMP \t\t\t\n    tag 1155\t\t\t\n      JUMPDEST \t\t\t\n    tag 1154\t\t\t\n      JUMPDEST \t\t\t\n      PUSH [tag] 1156\t\t\t\n      DUP6 \t\t\t\n      DUP3 \t\t\t\n      DUP7 \t\t\t\n      ADD \t\t\t\n      PUSH [tag] 752\t\t\t\n      JUMP \t\t\t\n    tag 1156\t\t\t\n      JUMPDEST \t\t\t\n      SWAP2 \t\t\t\n      POP \t\t\t\n      POP \t\t\t\n      SWAP3 \t\t\t\n      POP \t\t\t\n      SWAP3 \t\t\t\n      SWAP1 \t\t\t\n      POP \t\t\t\n      JUMP \t\t\t\n    tag 753\t\t\t\n      JUMPDEST \t\t\t\n      PUSH 0\t\t\t\n      PUSH FFFFFFFFFFFFFFFF\t\t\t\n      DUP3 \t\t\t\n      GT \t\t\t\n      ISZERO \t\t\t\n      PUSH [tag] 1158\t\t\t\n      JUMPI \t\t\t\n      PUSH [tag] 1159\t\t\t\n      PUSH [tag] 271\t\t\t\n      JUMP \t\t\t\n    tag 1159\t\t\t\n      JUMPDEST \t\t\t\n    tag 1158\t\t\t\n      JUMPDEST \t\t\t\n      PUSH 20\t\t\t\n      DUP3 \t\t\t\n      MUL \t\t\t\n      SWAP1 \t\t\t\n      POP \t\t\t\n      PUSH 20\t\t\t\n      DUP2 \t\t\t\n      ADD \t\t\t\n      SWAP1 \t\t\t\n      POP \t\t\t\n      SWAP2 \t\t\t\n      SWAP1 \t\t\t\n      POP \t\t\t\n      JUMP \t\t\t\n    tag 754\t\t\t\n      JUMPDEST \t\t\t\n      PUSH 0\t\t\t\n      PUSH 0\t\t\t\n      REVERT \t\t\t\n    tag 755\t\t\t\n      JUMPDEST \t\t\t\n      PUSH 0\t\t\t\n      PUSH 0\t\t\t\n      REVERT \t\t\t\n    tag 756\t\t\t\n      JUMPDEST \t\t\t\n      PUSH 0\t\t\t\n      PUSH 0\t\t\t\n      REVERT \t\t\t\n    tag 757\t\t\t\n      JUMPDEST \t\t\t\n      PUSH 0\t\t\t\n      PUSH FFFFFFFFFFFFFFFF\t\t\t\n      DUP3 \t\t\t\n      GT \t\t\t\n      ISZERO \t\t\t\n      PUSH [tag] 1164\t\t\t\n      JUMPI \t\t\t\n      PUSH [tag] 1165\t\t\t\n      PUSH [tag] 271\t\t\t\n      JUMP \t\t\t\n    tag 1165\t\t\t\n      JUMPDEST \t\t\t\n    tag 1164\t\t\t\n      JUMPDEST \t\t\t\n      PUSH [tag] 1166\t\t\t\n      DUP3 \t\t\t\n      PUSH [tag] 703\t\t\t\n      JUMP \t\t\t\n    tag 1166\t\t\t\n      JUMPDEST \t\t\t\n      SWAP1 \t\t\t\n      POP \t\t\t\n      PUSH 20\t\t\t\n      DUP2 \t\t\t\n      ADD \t\t\t\n      SWAP1 \t\t\t\n      POP \t\t\t\n      SWAP2 \t\t\t\n      SWAP1 \t\t\t\n      POP \t\t\t\n      JUMP \t\t\t\n    tag 758\t\t\t\n      JUMPDEST \t\t\t\n      DUP3 \t\t\t\n      DUP2 \t\t\t\n      DUP4 \t\t\t\n      CALLDATACOPY \t\t\t\n      PUSH 0\t\t\t\n      DUP4 \t\t\t\n      DUP4 \t\t\t\n      ADD \t\t\t\n      MSTORE \t\t\t\n      POP \t\t\t\n      POP \t\t\t\n      POP \t\t\t\n      JUMP \t\t\t\n    tag 759\t\t\t\n      JUMPDEST \t\t\t\n      PUSH 0\t\t\t\n      PUSH [tag] 1169\t\t\t\n      PUSH [tag] 1170\t\t\t\n      DUP5 \t\t\t\n      PUSH [tag] 757\t\t\t\n      JUMP \t\t\t\n    tag 1170\t\t\t\n      JUMPDEST \t\t\t\n      PUSH [tag] 705\t\t\t\n      JUMP \t\t\t\n    tag 1169\t\t\t\n      JUMPDEST \t\t\t\n      SWAP1 \t\t\t\n      POP \t\t\t\n      DUP3 \t\t\t\n      DUP2 \t\t\t\n      MSTORE \t\t\t\n      PUSH 20\t\t\t\n      DUP2 \t\t\t\n      ADD \t\t\t\n      DUP5 \t\t\t\n      DUP5 \t\t\t\n      DUP5 \t\t\t\n      ADD \t\t\t\n      GT \t\t\t\n      ISZERO \t\t\t\n      PUSH [tag] 1171\t\t\t\n      JUMPI \t\t\t\n      PUSH [tag] 1172\t\t\t\n      PUSH [tag] 756\t\t\t\n      JUMP \t\t\t\n    tag 1172\t\t\t\n      JUMPDEST \t\t\t\n    tag 1171\t\t\t\n      JUMPDEST \t\t\t\n      PUSH [tag] 1173\t\t\t\n      DUP5 \t\t\t\n      DUP3 \t\t\t\n      DUP6 \t\t\t\n      PUSH [tag] 758\t\t\t\n      JUMP \t\t\t\n    tag 1173\t\t\t\n      JUMPDEST \t\t\t\n      POP \t\t\t\n      SWAP4 \t\t\t\n      SWAP3 \t\t\t\n      POP \t\t\t\n      POP \t\t\t\n      POP \t\t\t\n      JUMP \t\t\t\n    tag 760\t\t\t\n      JUMPDEST \t\t\t\n      PUSH 0\t\t\t\n      DUP3 \t\t\t\n      PUSH 1F\t\t\t\n      DUP4 \t\t\t\n      ADD \t\t\t\n      SLT \t\t\t\n      PUSH [tag] 1175\t\t\t\n      JUMPI \t\t\t\n      PUSH [tag] 1176\t\t\t\n      PUSH [tag] 688\t\t\t\n      JUMP \t\t\t\n    tag 1176\t\t\t\n      JUMPDEST \t\t\t\n    tag 1175\t\t\t\n      JUMPDEST \t\t\t\n      DUP2 \t\t\t\n      CALLDATALOAD \t\t\t\n      PUSH [tag] 1177\t\t\t\n      DUP5 \t\t\t\n      DUP3 \t\t\t\n      PUSH 20\t\t\t\n      DUP7 \t\t\t\n      ADD \t\t\t\n      PUSH [tag] 759\t\t\t\n      JUMP \t\t\t\n    tag 1177\t\t\t\n      JUMPDEST \t\t\t\n      SWAP2 \t\t\t\n      POP \t\t\t\n      POP \t\t\t\n      SWAP3 \t\t\t\n      SWAP2 \t\t\t\n      POP \t\t\t\n      POP \t\t\t\n      JUMP \t\t\t\n    tag 761\t\t\t\n      JUMPDEST \t\t\t\n      PUSH 0\t\t\t\n      PUSH 60\t\t\t\n      DUP3 \t\t\t\n      DUP5 \t\t\t\n      SUB \t\t\t\n      SLT \t\t\t\n      ISZERO \t\t\t\n      PUSH [tag] 1179\t\t\t\n      JUMPI \t\t\t\n      PUSH [tag] 1180\t\t\t\n      PUSH [tag] 754\t\t\t\n      JUMP \t\t\t\n    tag 1180\t\t\t\n      JUMPDEST \t\t\t\n    tag 1179\t\t\t\n      JUMPDEST \t\t\t\n      PUSH [tag] 1181\t\t\t\n      PUSH 60\t\t\t\n      PUSH [tag] 705\t\t\t\n      JUMP \t\t\t\n    tag 1181\t\t\t\n      JUMPDEST \t\t\t\n      SWAP1 \t\t\t\n      POP \t\t\t\n      PUSH 0\t\t\t\n      PUSH [tag] 1182\t\t\t\n      DUP5 \t\t\t\n      DUP3 \t\t\t\n      DUP6 \t\t\t\n      ADD \t\t\t\n      PUSH [tag] 694\t\t\t\n      JUMP \t\t\t\n    tag 1182\t\t\t\n      JUMPDEST \t\t\t\n      PUSH 0\t\t\t\n      DUP4 \t\t\t\n      ADD \t\t\t\n      MSTORE \t\t\t\n      POP \t\t\t\n      PUSH 20\t\t\t\n      DUP3 \t\t\t\n      ADD \t\t\t\n      CALLDATALOAD \t\t\t\n      PUSH FFFFFFFFFFFFFFFF\t\t\t\n      DUP2 \t\t\t\n      GT \t\t\t\n      ISZERO \t\t\t\n      PUSH [tag] 1183\t\t\t\n      JUMPI \t\t\t\n      PUSH [tag] 1184\t\t\t\n      PUSH [tag] 755\t\t\t\n      JUMP \t\t\t\n    tag 1184\t\t\t\n      JUMPDEST \t\t\t\n    tag 1183\t\t\t\n      JUMPDEST \t\t\t\n      PUSH [tag] 1185\t\t\t\n      DUP5 \t\t\t\n      DUP3 \t\t\t\n      DUP6 \t\t\t\n      ADD \t\t\t\n      PUSH [tag] 760\t\t\t\n      JUMP \t\t\t\n    tag 1185\t\t\t\n      JUMPDEST \t\t\t\n      PUSH 20\t\t\t\n      DUP4 \t\t\t\n      ADD \t\t\t\n      MSTORE \t\t\t\n      POP \t\t\t\n      PUSH 40\t\t\t\n      DUP3 \t\t\t\n      ADD \t\t\t\n      CALLDATALOAD \t\t\t\n      PUSH FFFFFFFFFFFFFFFF\t\t\t\n      DUP2 \t\t\t\n      GT \t\t\t\n      ISZERO \t\t\t\n      PUSH [tag] 1186\t\t\t\n      JUMPI \t\t\t\n      PUSH [tag] 1187\t\t\t\n      PUSH [tag] 755\t\t\t\n      JUMP \t\t\t\n    tag 1187\t\t\t\n      JUMPDEST \t\t\t\n    tag 1186\t\t\t\n      JUMPDEST \t\t\t\n      PUSH [tag] 1188\t\t\t\n      DUP5 \t\t\t\n      DUP3 \t\t\t\n      DUP6 \t\t\t\n      ADD \t\t\t\n      PUSH [tag] 760\t\t\t\n      JUMP \t\t\t\n    tag 1188\t\t\t\n      JUMPDEST \t\t\t\n      PUSH 40\t\t\t\n      DUP4 \t\t\t\n      ADD \t\t\t\n      MSTORE \t\t\t\n      POP \t\t\t\n      SWAP3 \t\t\t\n      SWAP2 \t\t\t\n      POP \t\t\t\n      POP \t\t\t\n      JUMP \t\t\t\n    tag 762\t\t\t\n      JUMPDEST \t\t\t\n      PUSH 0\t\t\t\n      PUSH [tag] 1190\t\t\t\n      PUSH [tag] 1191\t\t\t\n      DUP5 \t\t\t\n      PUSH [tag] 753\t\t\t\n      JUMP \t\t\t\n    tag 1191\t\t\t\n      JUMPDEST \t\t\t\n      PUSH [tag] 705\t\t\t\n      JUMP \t\t\t\n    tag 1190\t\t\t\n      JUMPDEST \t\t\t\n      SWAP1 \t\t\t\n      POP \t\t\t\n      DUP1 \t\t\t\n      DUP4 \t\t\t\n      DUP3 \t\t\t\n      MSTORE \t\t\t\n      PUSH 20\t\t\t\n      DUP3 \t\t\t\n      ADD \t\t\t\n      SWAP1 \t\t\t\n      POP \t\t\t\n      PUSH 20\t\t\t\n      DUP5 \t\t\t\n      MUL \t\t\t\n      DUP4 \t\t\t\n      ADD \t\t\t\n      DUP6 \t\t\t\n      DUP2 \t\t\t\n      GT \t\t\t\n      ISZERO \t\t\t\n      PUSH [tag] 1192\t\t\t\n      JUMPI \t\t\t\n      PUSH [tag] 1193\t\t\t\n      PUSH [tag] 690\t\t\t\n      JUMP \t\t\t\n    tag 1193\t\t\t\n      JUMPDEST \t\t\t\n    tag 1192\t\t\t\n      JUMPDEST \t\t\t\n      DUP4 \t\t\t\n    tag 1194\t\t\t\n      JUMPDEST \t\t\t\n      DUP2 \t\t\t\n      DUP2 \t\t\t\n      LT \t\t\t\n      ISZERO \t\t\t\n      PUSH [tag] 1196\t\t\t\n      JUMPI \t\t\t\n      DUP1 \t\t\t\n      CALLDATALOAD \t\t\t\n      PUSH FFFFFFFFFFFFFFFF\t\t\t\n      DUP2 \t\t\t\n      GT \t\t\t\n      ISZERO \t\t\t\n      PUSH [tag] 1197\t\t\t\n      JUMPI \t\t\t\n      PUSH [tag] 1198\t\t\t\n      PUSH [tag] 688\t\t\t\n      JUMP \t\t\t\n    tag 1198\t\t\t\n      JUMPDEST \t\t\t\n    tag 1197\t\t\t\n      JUMPDEST \t\t\t\n      DUP1 \t\t\t\n      DUP7 \t\t\t\n      ADD \t\t\t\n      PUSH [tag] 1199\t\t\t\n      DUP10 \t\t\t\n      DUP3 \t\t\t\n      PUSH [tag] 761\t\t\t\n      JUMP \t\t\t\n    tag 1199\t\t\t\n      JUMPDEST \t\t\t\n      DUP6 \t\t\t\n      MSTORE \t\t\t\n      PUSH 20\t\t\t\n      DUP6 \t\t\t\n      ADD \t\t\t\n      SWAP5 \t\t\t\n      POP \t\t\t\n      POP \t\t\t\n      POP \t\t\t\n      PUSH 20\t\t\t\n      DUP2 \t\t\t\n      ADD \t\t\t\n      SWAP1 \t\t\t\n      POP \t\t\t\n      PUSH [tag] 1194\t\t\t\n      JUMP \t\t\t\n    tag 1196\t\t\t\n      JUMPDEST \t\t\t\n      POP \t\t\t\n      POP \t\t\t\n      POP \t\t\t\n      SWAP4 \t\t\t\n      SWAP3 \t\t\t\n      POP \t\t\t\n      POP \t\t\t\n      POP \t\t\t\n      JUMP \t\t\t\n    tag 763\t\t\t\n      JUMPDEST \t\t\t\n      PUSH 0\t\t\t\n      DUP3 \t\t\t\n      PUSH 1F\t\t\t\n      DUP4 \t\t\t\n      ADD \t\t\t\n      SLT \t\t\t\n      PUSH [tag] 1201\t\t\t\n      JUMPI \t\t\t\n      PUSH [tag] 1202\t\t\t\n      PUSH [tag] 688\t\t\t\n      JUMP \t\t\t\n    tag 1202\t\t\t\n      JUMPDEST \t\t\t\n    tag 1201\t\t\t\n      JUMPDEST \t\t\t\n      DUP2 \t\t\t\n      CALLDATALOAD \t\t\t\n      PUSH [tag] 1203\t\t\t\n      DUP5 \t\t\t\n      DUP3 \t\t\t\n      PUSH 20\t\t\t\n      DUP7 \t\t\t\n      ADD \t\t\t\n      PUSH [tag] 762\t\t\t\n      JUMP \t\t\t\n    tag 1203\t\t\t\n      JUMPDEST \t\t\t\n      SWAP2 \t\t\t\n      POP \t\t\t\n      POP \t\t\t\n      SWAP3 \t\t\t\n      SWAP2 \t\t\t\n      POP \t\t\t\n      POP \t\t\t\n      JUMP \t\t\t\n    tag 134\t\t\t\n      JUMPDEST \t\t\t\n      PUSH 0\t\t\t\n      PUSH 0\t\t\t\n      PUSH 40\t\t\t\n      DUP4 \t\t\t\n      DUP6 \t\t\t\n      SUB \t\t\t\n      SLT \t\t\t\n      ISZERO \t\t\t\n      PUSH [tag] 1205\t\t\t\n      JUMPI \t\t\t\n      PUSH [tag] 1206\t\t\t\n      PUSH [tag] 682\t\t\t\n      JUMP \t\t\t\n    tag 1206\t\t\t\n      JUMPDEST \t\t\t\n    tag 1205\t\t\t\n      JUMPDEST \t\t\t\n      PUSH 0\t\t\t\n      DUP4 \t\t\t\n      ADD \t\t\t\n      CALLDATALOAD \t\t\t\n      PUSH FFFFFFFFFFFFFFFF\t\t\t\n      DUP2 \t\t\t\n      GT \t\t\t\n      ISZERO \t\t\t\n      PUSH [tag] 1207\t\t\t\n      JUMPI \t\t\t\n      PUSH [tag] 1208\t\t\t\n      PUSH [tag] 683\t\t\t\n      JUMP \t\t\t\n    tag 1208\t\t\t\n      JUMPDEST \t\t\t\n    tag 1207\t\t\t\n      JUMPDEST \t\t\t\n      PUSH [tag] 1209\t\t\t\n      DUP6 \t\t\t\n      DUP3 \t\t\t\n      DUP7 \t\t\t\n      ADD \t\t\t\n      PUSH [tag] 763\t\t\t\n      JUMP \t\t\t\n    tag 1209\t\t\t\n      JUMPDEST \t\t\t\n      SWAP3 \t\t\t\n      POP \t\t\t\n      POP \t\t\t\n      PUSH 20\t\t\t\n      DUP4 \t\t\t\n      ADD \t\t\t\n      CALLDATALOAD \t\t\t\n      PUSH FFFFFFFFFFFFFFFF\t\t\t\n      DUP2 \t\t\t\n      GT \t\t\t\n      ISZERO \t\t\t\n      PUSH [tag] 1210\t\t\t\n      JUMPI \t\t\t\n      PUSH [tag] 1211\t\t\t\n      PUSH [tag] 683\t\t\t\n      JUMP \t\t\t\n    tag 1211\t\t\t\n      JUMPDEST \t\t\t\n    tag 1210\t\t\t\n      JUMPDEST \t\t\t\n      PUSH [tag] 1212\t\t\t\n      DUP6 \t\t\t\n      DUP3 \t\t\t\n      DUP7 \t\t\t\n      ADD \t\t\t\n      PUSH [tag] 760\t\t\t\n      JUMP \t\t\t\n    tag 1212\t\t\t\n      JUMPDEST \t\t\t\n      SWAP2 \t\t\t\n      POP \t\t\t\n      POP \t\t\t\n      SWAP3 \t\t\t\n      POP \t\t\t\n      SWAP3 \t\t\t\n      SWAP1 \t\t\t\n      POP \t\t\t\n      JUMP \t\t\t\n    tag 138\t\t\t\n      JUMPDEST \t\t\t\n      PUSH 0\t\t\t\n      PUSH 0\t\t\t\n      PUSH 0\t\t\t\n      PUSH 0\t\t\t\n      PUSH 0\t\t\t\n      PUSH 140\t\t\t\n      DUP7 \t\t\t\n      DUP9 \t\t\t\n      SUB \t\t\t\n      SLT \t\t\t\n      ISZERO \t\t\t\n      PUSH [tag] 1214\t\t\t\n      JUMPI \t\t\t\n      PUSH [tag] 1215\t\t\t\n      PUSH [tag] 682\t\t\t\n      JUMP \t\t\t\n    tag 1215\t\t\t\n      JUMPDEST \t\t\t\n    tag 1214\t\t\t\n      JUMPDEST \t\t\t\n      PUSH 0\t\t\t\n      PUSH [tag] 1216\t\t\t\n      DUP9 \t\t\t\n      DUP3 \t\t\t\n      DUP10 \t\t\t\n      ADD \t\t\t\n      PUSH [tag] 694\t\t\t\n      JUMP \t\t\t\n    tag 1216\t\t\t\n      JUMPDEST \t\t\t\n      SWAP6 \t\t\t\n      POP \t\t\t\n      POP \t\t\t\n      PUSH 20\t\t\t\n      DUP7 \t\t\t\n      ADD \t\t\t\n      CALLDATALOAD \t\t\t\n      PUSH FFFFFFFFFFFFFFFF\t\t\t\n      DUP2 \t\t\t\n      GT \t\t\t\n      ISZERO \t\t\t\n      PUSH [tag] 1217\t\t\t\n      JUMPI \t\t\t\n      PUSH [tag] 1218\t\t\t\n      PUSH [tag] 683\t\t\t\n      JUMP \t\t\t\n    tag 1218\t\t\t\n      JUMPDEST \t\t\t\n    tag 1217\t\t\t\n      JUMPDEST \t\t\t\n      PUSH [tag] 1219\t\t\t\n      DUP9 \t\t\t\n      DUP3 \t\t\t\n      DUP10 \t\t\t\n      ADD \t\t\t\n      PUSH [tag] 710\t\t\t\n      JUMP \t\t\t\n    tag 1219\t\t\t\n      JUMPDEST \t\t\t\n      SWAP5 \t\t\t\n      POP \t\t\t\n      POP \t\t\t\n      PUSH 40\t\t\t\n      PUSH [tag] 1220\t\t\t\n      DUP9 \t\t\t\n      DUP3 \t\t\t\n      DUP10 \t\t\t\n      ADD \t\t\t\n      PUSH [tag] 713\t\t\t\n      JUMP \t\t\t\n    tag 1220\t\t\t\n      JUMPDEST \t\t\t\n      SWAP4 \t\t\t\n      POP \t\t\t\n      POP \t\t\t\n      PUSH 80\t\t\t\n      PUSH [tag] 1221\t\t\t\n      DUP9 \t\t\t\n      DUP3 \t\t\t\n      DUP10 \t\t\t\n      ADD \t\t\t\n      PUSH [tag] 716\t\t\t\n      JUMP \t\t\t\n    tag 1221\t\t\t\n      JUMPDEST \t\t\t\n      SWAP3 \t\t\t\n      POP \t\t\t\n      POP \t\t\t\n      PUSH 100\t\t\t\n      PUSH [tag] 1222\t\t\t\n      DUP9 \t\t\t\n      DUP3 \t\t\t\n      DUP10 \t\t\t\n      ADD \t\t\t\n      PUSH [tag] 713\t\t\t\n      JUMP \t\t\t\n    tag 1222\t\t\t\n      JUMPDEST \t\t\t\n      SWAP2 \t\t\t\n      POP \t\t\t\n      POP \t\t\t\n      SWAP3 \t\t\t\n      SWAP6 \t\t\t\n      POP \t\t\t\n      SWAP3 \t\t\t\n      SWAP6 \t\t\t\n      SWAP1 \t\t\t\n      SWAP4 \t\t\t\n      POP \t\t\t\n      JUMP \t\t\t\n    tag 764\t\t\t\n      JUMPDEST \t\t\t\n      PUSH 0\t\t\t\n      PUSH 60\t\t\t\n      DUP4 \t\t\t\n      ADD \t\t\t\n      PUSH 0\t\t\t\n      DUP4 \t\t\t\n      ADD \t\t\t\n      MLOAD \t\t\t\n      DUP5 \t\t\t\n      DUP3 \t\t\t\n      SUB \t\t\t\n      PUSH 0\t\t\t\n      DUP7 \t\t\t\n      ADD \t\t\t\n      MSTORE \t\t\t\n      PUSH [tag] 1224\t\t\t\n      DUP3 \t\t\t\n      DUP3 \t\t\t\n      PUSH [tag] 723\t\t\t\n      JUMP \t\t\t\n    tag 1224\t\t\t\n      JUMPDEST \t\t\t\n      SWAP2 \t\t\t\n      POP \t\t\t\n      POP \t\t\t\n      PUSH 20\t\t\t\n      DUP4 \t\t\t\n      ADD \t\t\t\n      MLOAD \t\t\t\n      PUSH [tag] 1225\t\t\t\n      PUSH 20\t\t\t\n      DUP7 \t\t\t\n      ADD \t\t\t\n      DUP3 \t\t\t\n      PUSH [tag] 741\t\t\t\n      JUMP \t\t\t\n    tag 1225\t\t\t\n      JUMPDEST \t\t\t\n      POP \t\t\t\n      PUSH 40\t\t\t\n      DUP4 \t\t\t\n      ADD \t\t\t\n      MLOAD \t\t\t\n      DUP5 \t\t\t\n      DUP3 \t\t\t\n      SUB \t\t\t\n      PUSH 40\t\t\t\n      DUP7 \t\t\t\n      ADD \t\t\t\n      MSTORE \t\t\t\n      PUSH [tag] 1226\t\t\t\n      DUP3 \t\t\t\n      DUP3 \t\t\t\n      PUSH [tag] 744\t\t\t\n      JUMP \t\t\t\n    tag 1226\t\t\t\n      JUMPDEST \t\t\t\n      SWAP2 \t\t\t\n      POP \t\t\t\n      POP \t\t\t\n      DUP1 \t\t\t\n      SWAP2 \t\t\t\n      POP \t\t\t\n      POP \t\t\t\n      SWAP3 \t\t\t\n      SWAP2 \t\t\t\n      POP \t\t\t\n      POP \t\t\t\n      JUMP \t\t\t\n    tag 144\t\t\t\n      JUMPDEST \t\t\t\n      PUSH 0\t\t\t\n      PUSH 20\t\t\t\n      DUP3 \t\t\t\n      ADD \t\t\t\n      SWAP1 \t\t\t\n      POP \t\t\t\n      DUP2 \t\t\t\n      DUP2 \t\t\t\n      SUB \t\t\t\n      PUSH 0\t\t\t\n      DUP4 \t\t\t\n      ADD \t\t\t\n      MSTORE \t\t\t\n      PUSH [tag] 1228\t\t\t\n      DUP2 \t\t\t\n      DUP5 \t\t\t\n      PUSH [tag] 764\t\t\t\n      JUMP \t\t\t\n    tag 1228\t\t\t\n      JUMPDEST \t\t\t\n      SWAP1 \t\t\t\n      POP \t\t\t\n      SWAP3 \t\t\t\n      SWAP2 \t\t\t\n      POP \t\t\t\n      POP \t\t\t\n      JUMP \t\t\t\n    tag 147\t\t\t\n      JUMPDEST \t\t\t\n      PUSH 0\t\t\t\n      PUSH 0\t\t\t\n      PUSH 40\t\t\t\n      DUP4 \t\t\t\n      DUP6 \t\t\t\n      SUB \t\t\t\n      SLT \t\t\t\n      ISZERO \t\t\t\n      PUSH [tag] 1230\t\t\t\n      JUMPI \t\t\t\n      PUSH [tag] 1231\t\t\t\n      PUSH [tag] 682\t\t\t\n      JUMP \t\t\t\n    tag 1231\t\t\t\n      JUMPDEST \t\t\t\n    tag 1230\t\t\t\n      JUMPDEST \t\t\t\n      PUSH 0\t\t\t\n      PUSH [tag] 1232\t\t\t\n      DUP6 \t\t\t\n      DUP3 \t\t\t\n      DUP7 \t\t\t\n      ADD \t\t\t\n      PUSH [tag] 694\t\t\t\n      JUMP \t\t\t\n    tag 1232\t\t\t\n      JUMPDEST \t\t\t\n      SWAP3 \t\t\t\n      POP \t\t\t\n      POP \t\t\t\n      PUSH 20\t\t\t\n      PUSH [tag] 1233\t\t\t\n      DUP6 \t\t\t\n      DUP3 \t\t\t\n      DUP7 \t\t\t\n      ADD \t\t\t\n      PUSH [tag] 687\t\t\t\n      JUMP \t\t\t\n    tag 1233\t\t\t\n      JUMPDEST \t\t\t\n      SWAP2 \t\t\t\n      POP \t\t\t\n      POP \t\t\t\n      SWAP3 \t\t\t\n      POP \t\t\t\n      SWAP3 \t\t\t\n      SWAP1 \t\t\t\n      POP \t\t\t\n      JUMP \t\t\t\n    tag 765\t\t\t\n      JUMPDEST \t\t\t\n      PUSH 0\t\t\t\n      PUSH FFFFFFFFFFFFFFFF\t\t\t\n      DUP3 \t\t\t\n      GT \t\t\t\n      ISZERO \t\t\t\n      PUSH [tag] 1235\t\t\t\n      JUMPI \t\t\t\n      PUSH [tag] 1236\t\t\t\n      PUSH [tag] 271\t\t\t\n      JUMP \t\t\t\n    tag 1236\t\t\t\n      JUMPDEST \t\t\t\n    tag 1235\t\t\t\n      JUMPDEST \t\t\t\n      PUSH [tag] 1237\t\t\t\n      DUP3 \t\t\t\n      PUSH [tag] 703\t\t\t\n      JUMP \t\t\t\n    tag 1237\t\t\t\n      JUMPDEST \t\t\t\n      SWAP1 \t\t\t\n      POP \t\t\t\n      PUSH 20\t\t\t\n      DUP2 \t\t\t\n      ADD \t\t\t\n      SWAP1 \t\t\t\n      POP \t\t\t\n      SWAP2 \t\t\t\n      SWAP1 \t\t\t\n      POP \t\t\t\n      JUMP \t\t\t\n    tag 766\t\t\t\n      JUMPDEST \t\t\t\n      PUSH 0\t\t\t\n      PUSH [tag] 1239\t\t\t\n      PUSH [tag] 1240\t\t\t\n      DUP5 \t\t\t\n      PUSH [tag] 765\t\t\t\n      JUMP \t\t\t\n    tag 1240\t\t\t\n      JUMPDEST \t\t\t\n      PUSH [tag] 705\t\t\t\n      JUMP \t\t\t\n    tag 1239\t\t\t\n      JUMPDEST \t\t\t\n      SWAP1 \t\t\t\n      POP \t\t\t\n      DUP3 \t\t\t\n      DUP2 \t\t\t\n      MSTORE \t\t\t\n      PUSH 20\t\t\t\n      DUP2 \t\t\t\n      ADD \t\t\t\n      DUP5 \t\t\t\n      DUP5 \t\t\t\n      DUP5 \t\t\t\n      ADD \t\t\t\n      GT \t\t\t\n      ISZERO \t\t\t\n      PUSH [tag] 1241\t\t\t\n      JUMPI \t\t\t\n      PUSH [tag] 1242\t\t\t\n      PUSH [tag] 756\t\t\t\n      JUMP \t\t\t\n    tag 1242\t\t\t\n      JUMPDEST \t\t\t\n    tag 1241\t\t\t\n      JUMPDEST \t\t\t\n      PUSH [tag] 1243\t\t\t\n      DUP5 \t\t\t\n      DUP3 \t\t\t\n      DUP6 \t\t\t\n      PUSH [tag] 758\t\t\t\n      JUMP \t\t\t\n    tag 1243\t\t\t\n      JUMPDEST \t\t\t\n      POP \t\t\t\n      SWAP4 \t\t\t\n      SWAP3 \t\t\t\n      POP \t\t\t\n      POP \t\t\t\n      POP \t\t\t\n      JUMP \t\t\t\n    tag 767\t\t\t\n      JUMPDEST \t\t\t\n      PUSH 0\t\t\t\n      DUP3 \t\t\t\n      PUSH 1F\t\t\t\n      DUP4 \t\t\t\n      ADD \t\t\t\n      SLT \t\t\t\n      PUSH [tag] 1245\t\t\t\n      JUMPI \t\t\t\n      PUSH [tag] 1246\t\t\t\n      PUSH [tag] 688\t\t\t\n      JUMP \t\t\t\n    tag 1246\t\t\t\n      JUMPDEST \t\t\t\n    tag 1245\t\t\t\n      JUMPDEST \t\t\t\n      DUP2 \t\t\t\n      CALLDATALOAD \t\t\t\n      PUSH [tag] 1247\t\t\t\n      DUP5 \t\t\t\n      DUP3 \t\t\t\n      PUSH 20\t\t\t\n      DUP7 \t\t\t\n      ADD \t\t\t\n      PUSH [tag] 766\t\t\t\n      JUMP \t\t\t\n    tag 1247\t\t\t\n      JUMPDEST \t\t\t\n      SWAP2 \t\t\t\n      POP \t\t\t\n      POP \t\t\t\n      SWAP3 \t\t\t\n      SWAP2 \t\t\t\n      POP \t\t\t\n      POP \t\t\t\n      JUMP \t\t\t\n    tag 151\t\t\t\n      JUMPDEST \t\t\t\n      PUSH 0\t\t\t\n      PUSH 0\t\t\t\n      PUSH 0\t\t\t\n      PUSH 60\t\t\t\n      DUP5 \t\t\t\n      DUP7 \t\t\t\n      SUB \t\t\t\n      SLT \t\t\t\n      ISZERO \t\t\t\n      PUSH [tag] 1249\t\t\t\n      JUMPI \t\t\t\n      PUSH [tag] 1250\t\t\t\n      PUSH [tag] 682\t\t\t\n      JUMP \t\t\t\n    tag 1250\t\t\t\n      JUMPDEST \t\t\t\n    tag 1249\t\t\t\n      JUMPDEST \t\t\t\n      PUSH 0\t\t\t\n      PUSH [tag] 1251\t\t\t\n      DUP7 \t\t\t\n      DUP3 \t\t\t\n      DUP8 \t\t\t\n      ADD \t\t\t\n      PUSH [tag] 687\t\t\t\n      JUMP \t\t\t\n    tag 1251\t\t\t\n      JUMPDEST \t\t\t\n      SWAP4 \t\t\t\n      POP \t\t\t\n      POP \t\t\t\n      PUSH 20\t\t\t\n      PUSH [tag] 1252\t\t\t\n      DUP7 \t\t\t\n      DUP3 \t\t\t\n      DUP8 \t\t\t\n      ADD \t\t\t\n      PUSH [tag] 694\t\t\t\n      JUMP \t\t\t\n    tag 1252\t\t\t\n      JUMPDEST \t\t\t\n      SWAP3 \t\t\t\n      POP \t\t\t\n      POP \t\t\t\n      PUSH 40\t\t\t\n      DUP5 \t\t\t\n      ADD \t\t\t\n      CALLDATALOAD \t\t\t\n      PUSH FFFFFFFFFFFFFFFF\t\t\t\n      DUP2 \t\t\t\n      GT \t\t\t\n      ISZERO \t\t\t\n      PUSH [tag] 1253\t\t\t\n      JUMPI \t\t\t\n      PUSH [tag] 1254\t\t\t\n      PUSH [tag] 683\t\t\t\n      JUMP \t\t\t\n    tag 1254\t\t\t\n      JUMPDEST \t\t\t\n    tag 1253\t\t\t\n      JUMPDEST \t\t\t\n      PUSH [tag] 1255\t\t\t\n      DUP7 \t\t\t\n      DUP3 \t\t\t\n      DUP8 \t\t\t\n      ADD \t\t\t\n      PUSH [tag] 767\t\t\t\n      JUMP \t\t\t\n    tag 1255\t\t\t\n      JUMPDEST \t\t\t\n      SWAP2 \t\t\t\n      POP \t\t\t\n      POP \t\t\t\n      SWAP3 \t\t\t\n      POP \t\t\t\n      SWAP3 \t\t\t\n      POP \t\t\t\n      SWAP3 \t\t\t\n      JUMP \t\t\t\n    tag 159\t\t\t\n      JUMPDEST \t\t\t\n      PUSH 0\t\t\t\n      PUSH 20\t\t\t\n      DUP3 \t\t\t\n      DUP5 \t\t\t\n      SUB \t\t\t\n      SLT \t\t\t\n      ISZERO \t\t\t\n      PUSH [tag] 1257\t\t\t\n      JUMPI \t\t\t\n      PUSH [tag] 1258\t\t\t\n      PUSH [tag] 682\t\t\t\n      JUMP \t\t\t\n    tag 1258\t\t\t\n      JUMPDEST \t\t\t\n    tag 1257\t\t\t\n      JUMPDEST \t\t\t\n      PUSH 0\t\t\t\n      PUSH [tag] 1259\t\t\t\n      DUP5 \t\t\t\n      DUP3 \t\t\t\n      DUP6 \t\t\t\n      ADD \t\t\t\n      PUSH [tag] 687\t\t\t\n      JUMP \t\t\t\n    tag 1259\t\t\t\n      JUMPDEST \t\t\t\n      SWAP2 \t\t\t\n      POP \t\t\t\n      POP \t\t\t\n      SWAP3 \t\t\t\n      SWAP2 \t\t\t\n      POP \t\t\t\n      POP \t\t\t\n      JUMP \t\t\t\n    tag 768\t\t\t\n      JUMPDEST \t\t\t\n      PUSH 4C696E6B65642070726F6F6620766572696669636174696F6E206E6565647320\t\t\t\n      PUSH 0\t\t\t\n      DUP3 \t\t\t\n      ADD \t\t\t\n      MSTORE \t\t\t\n      PUSH 6D6F7265207468616E2031207265717565737400000000000000000000000000\t\t\t\n      PUSH 20\t\t\t\n      DUP3 \t\t\t\n      ADD \t\t\t\n      MSTORE \t\t\t\n      POP \t\t\t\n      JUMP \t\t\t\n    tag 769\t\t\t\n      JUMPDEST \t\t\t\n      PUSH 0\t\t\t\n      PUSH [tag] 1262\t\t\t\n      PUSH 33\t\t\t\n      DUP4 \t\t\t\n      PUSH [tag] 729\t\t\t\n      JUMP \t\t\t\n    tag 1262\t\t\t\n      JUMPDEST \t\t\t\n      SWAP2 \t\t\t\n      POP \t\t\t\n      PUSH [tag] 1263\t\t\t\n      DUP3 \t\t\t\n      PUSH [tag] 768\t\t\t\n      JUMP \t\t\t\n    tag 1263\t\t\t\n      JUMPDEST \t\t\t\n      PUSH 40\t\t\t\n      DUP3 \t\t\t\n      ADD \t\t\t\n      SWAP1 \t\t\t\n      POP \t\t\t\n      SWAP2 \t\t\t\n      SWAP1 \t\t\t\n      POP \t\t\t\n      JUMP \t\t\t\n    tag 167\t\t\t\n      JUMPDEST \t\t\t\n      PUSH 0\t\t\t\n      PUSH 20\t\t\t\n      DUP3 \t\t\t\n      ADD \t\t\t\n      SWAP1 \t\t\t\n      POP \t\t\t\n      DUP2 \t\t\t\n      DUP2 \t\t\t\n      SUB \t\t\t\n      PUSH 0\t\t\t\n      DUP4 \t\t\t\n      ADD \t\t\t\n      MSTORE \t\t\t\n      PUSH [tag] 1265\t\t\t\n      DUP2 \t\t\t\n      PUSH [tag] 769\t\t\t\n      JUMP \t\t\t\n    tag 1265\t\t\t\n      JUMPDEST \t\t\t\n      SWAP1 \t\t\t\n      POP \t\t\t\n      SWAP2 \t\t\t\n      SWAP1 \t\t\t\n      POP \t\t\t\n      JUMP \t\t\t\n    tag 171\t\t\t\n      JUMPDEST \t\t\t\n      PUSH 4E487B7100000000000000000000000000000000000000000000000000000000\t\t\t\n      PUSH 0\t\t\t\n      MSTORE \t\t\t\n      PUSH 32\t\t\t\n      PUSH 4\t\t\t\n      MSTORE \t\t\t\n      PUSH 24\t\t\t\n      PUSH 0\t\t\t\n      REVERT \t\t\t\n    tag 770\t\t\t\n      JUMPDEST \t\t\t\n      PUSH 43616E27742066696E64206C696E6B494420666F7220676976656E2072657175\t\t\t\n      PUSH 0\t\t\t\n      DUP3 \t\t\t\n      ADD \t\t\t\n      MSTORE \t\t\t\n      PUSH 6573742049647320616E64207573657220616464726573730000000000000000\t\t\t\n      PUSH 20\t\t\t\n      DUP3 \t\t\t\n      ADD \t\t\t\n      MSTORE \t\t\t\n      POP \t\t\t\n      JUMP \t\t\t\n    tag 771\t\t\t\n      JUMPDEST \t\t\t\n      PUSH 0\t\t\t\n      PUSH [tag] 1269\t\t\t\n      PUSH 38\t\t\t\n      DUP4 \t\t\t\n      PUSH [tag] 729\t\t\t\n      JUMP \t\t\t\n    tag 1269\t\t\t\n      JUMPDEST \t\t\t\n      SWAP2 \t\t\t\n      POP \t\t\t\n      PUSH [tag] 1270\t\t\t\n      DUP3 \t\t\t\n      PUSH [tag] 770\t\t\t\n      JUMP \t\t\t\n    tag 1270\t\t\t\n      JUMPDEST \t\t\t\n      PUSH 40\t\t\t\n      DUP3 \t\t\t\n      ADD \t\t\t\n      SWAP1 \t\t\t\n      POP \t\t\t\n      SWAP2 \t\t\t\n      SWAP1 \t\t\t\n      POP \t\t\t\n      JUMP \t\t\t\n    tag 175\t\t\t\n      JUMPDEST \t\t\t\n      PUSH 0\t\t\t\n      PUSH 20\t\t\t\n      DUP3 \t\t\t\n      ADD \t\t\t\n      SWAP1 \t\t\t\n      POP \t\t\t\n      DUP2 \t\t\t\n      DUP2 \t\t\t\n      SUB \t\t\t\n      PUSH 0\t\t\t\n      DUP4 \t\t\t\n      ADD \t\t\t\n      MSTORE \t\t\t\n      PUSH [tag] 1272\t\t\t\n      DUP2 \t\t\t\n      PUSH [tag] 771\t\t\t\n      JUMP \t\t\t\n    tag 1272\t\t\t\n      JUMPDEST \t\t\t\n      SWAP1 \t\t\t\n      POP \t\t\t\n      SWAP2 \t\t\t\n      SWAP1 \t\t\t\n      POP \t\t\t\n      JUMP \t\t\t\n    tag 772\t\t\t\n      JUMPDEST \t\t\t\n      PUSH 50726F6F667320617265206E6F74206C696E6B65640000000000000000000000\t\t\t\n      PUSH 0\t\t\t\n      DUP3 \t\t\t\n      ADD \t\t\t\n      MSTORE \t\t\t\n      POP \t\t\t\n      JUMP \t\t\t\n    tag 773\t\t\t\n      JUMPDEST \t\t\t\n      PUSH 0\t\t\t\n      PUSH [tag] 1275\t\t\t\n      PUSH 15\t\t\t\n      DUP4 \t\t\t\n      PUSH [tag] 729\t\t\t\n      JUMP \t\t\t\n    tag 1275\t\t\t\n      JUMPDEST \t\t\t\n      SWAP2 \t\t\t\n      POP \t\t\t\n      PUSH [tag] 1276\t\t\t\n      DUP3 \t\t\t\n      PUSH [tag] 772\t\t\t\n      JUMP \t\t\t\n    tag 1276\t\t\t\n      JUMPDEST \t\t\t\n      PUSH 20\t\t\t\n      DUP3 \t\t\t\n      ADD \t\t\t\n      SWAP1 \t\t\t\n      POP \t\t\t\n      SWAP2 \t\t\t\n      SWAP1 \t\t\t\n      POP \t\t\t\n      JUMP \t\t\t\n    tag 774\t\t\t\n      JUMPDEST \t\t\t\n      PUSH [tag] 1278\t\t\t\n      DUP2 \t\t\t\n      PUSH [tag] 692\t\t\t\n      JUMP \t\t\t\n    tag 1278\t\t\t\n      JUMPDEST \t\t\t\n      DUP3 \t\t\t\n      MSTORE \t\t\t\n      POP \t\t\t\n      POP \t\t\t\n      JUMP \t\t\t\n    tag 191\t\t\t\n      JUMPDEST \t\t\t\n      PUSH 0\t\t\t\n      PUSH A0\t\t\t\n      DUP3 \t\t\t\n      ADD \t\t\t\n      SWAP1 \t\t\t\n      POP \t\t\t\n      DUP2 \t\t\t\n      DUP2 \t\t\t\n      SUB \t\t\t\n      PUSH 0\t\t\t\n      DUP4 \t\t\t\n      ADD \t\t\t\n      MSTORE \t\t\t\n      PUSH [tag] 1280\t\t\t\n      DUP2 \t\t\t\n      PUSH [tag] 773\t\t\t\n      JUMP \t\t\t\n    tag 1280\t\t\t\n      JUMPDEST \t\t\t\n      SWAP1 \t\t\t\n      POP \t\t\t\n      PUSH [tag] 1281\t\t\t\n      PUSH 20\t\t\t\n      DUP4 \t\t\t\n      ADD \t\t\t\n      DUP8 \t\t\t\n      PUSH [tag] 774\t\t\t\n      JUMP \t\t\t\n    tag 1281\t\t\t\n      JUMPDEST \t\t\t\n      PUSH [tag] 1282\t\t\t\n      PUSH 40\t\t\t\n      DUP4 \t\t\t\n      ADD \t\t\t\n      DUP7 \t\t\t\n      PUSH [tag] 698\t\t\t\n      JUMP \t\t\t\n    tag 1282\t\t\t\n      JUMPDEST \t\t\t\n      PUSH [tag] 1283\t\t\t\n      PUSH 60\t\t\t\n      DUP4 \t\t\t\n      ADD \t\t\t\n      DUP6 \t\t\t\n      PUSH [tag] 774\t\t\t\n      JUMP \t\t\t\n    tag 1283\t\t\t\n      JUMPDEST \t\t\t\n      PUSH [tag] 1284\t\t\t\n      PUSH 80\t\t\t\n      DUP4 \t\t\t\n      ADD \t\t\t\n      DUP5 \t\t\t\n      PUSH [tag] 698\t\t\t\n      JUMP \t\t\t\n    tag 1284\t\t\t\n      JUMPDEST \t\t\t\n      SWAP6 \t\t\t\n      SWAP5 \t\t\t\n      POP \t\t\t\n      POP \t\t\t\n      POP \t\t\t\n      POP \t\t\t\n      POP \t\t\t\n      JUMP \t\t\t\n    tag 775\t\t\t\n      JUMPDEST \t\t\t\n      PUSH 7265717565737420696420646F65736E27742065786973740000000000000000\t\t\t\n      PUSH 0\t\t\t\n      DUP3 \t\t\t\n      ADD \t\t\t\n      MSTORE \t\t\t\n      POP \t\t\t\n      JUMP \t\t\t\n    tag 776\t\t\t\n      JUMPDEST \t\t\t\n      PUSH 0\t\t\t\n      PUSH [tag] 1287\t\t\t\n      PUSH 18\t\t\t\n      DUP4 \t\t\t\n      PUSH [tag] 729\t\t\t\n      JUMP \t\t\t\n    tag 1287\t\t\t\n      JUMPDEST \t\t\t\n      SWAP2 \t\t\t\n      POP \t\t\t\n      PUSH [tag] 1288\t\t\t\n      DUP3 \t\t\t\n      PUSH [tag] 775\t\t\t\n      JUMP \t\t\t\n    tag 1288\t\t\t\n      JUMPDEST \t\t\t\n      PUSH 20\t\t\t\n      DUP3 \t\t\t\n      ADD \t\t\t\n      SWAP1 \t\t\t\n      POP \t\t\t\n      SWAP2 \t\t\t\n      SWAP1 \t\t\t\n      POP \t\t\t\n      JUMP \t\t\t\n    tag 197\t\t\t\n      JUMPDEST \t\t\t\n      PUSH 0\t\t\t\n      PUSH 20\t\t\t\n      DUP3 \t\t\t\n      ADD \t\t\t\n      SWAP1 \t\t\t\n      POP \t\t\t\n      DUP2 \t\t\t\n      DUP2 \t\t\t\n      SUB \t\t\t\n      PUSH 0\t\t\t\n      DUP4 \t\t\t\n      ADD \t\t\t\n      MSTORE \t\t\t\n      PUSH [tag] 1290\t\t\t\n      DUP2 \t\t\t\n      PUSH [tag] 776\t\t\t\n      JUMP \t\t\t\n    tag 1290\t\t\t\n      JUMPDEST \t\t\t\n      SWAP1 \t\t\t\n      POP \t\t\t\n      SWAP2 \t\t\t\n      SWAP1 \t\t\t\n      POP \t\t\t\n      JUMP \t\t\t\n    tag 777\t\t\t\n      JUMPDEST \t\t\t\n      PUSH 7265717565737420696420616C72656164792065786973747300000000000000\t\t\t\n      PUSH 0\t\t\t\n      DUP3 \t\t\t\n      ADD \t\t\t\n      MSTORE \t\t\t\n      POP \t\t\t\n      JUMP \t\t\t\n    tag 778\t\t\t\n      JUMPDEST \t\t\t\n      PUSH 0\t\t\t\n      PUSH [tag] 1293\t\t\t\n      PUSH 19\t\t\t\n      DUP4 \t\t\t\n      PUSH [tag] 729\t\t\t\n      JUMP \t\t\t\n    tag 1293\t\t\t\n      JUMPDEST \t\t\t\n      SWAP2 \t\t\t\n      POP \t\t\t\n      PUSH [tag] 1294\t\t\t\n      DUP3 \t\t\t\n      PUSH [tag] 777\t\t\t\n      JUMP \t\t\t\n    tag 1294\t\t\t\n      JUMPDEST \t\t\t\n      PUSH 20\t\t\t\n      DUP3 \t\t\t\n      ADD \t\t\t\n      SWAP1 \t\t\t\n      POP \t\t\t\n      SWAP2 \t\t\t\n      SWAP1 \t\t\t\n      POP \t\t\t\n      JUMP \t\t\t\n    tag 202\t\t\t\n      JUMPDEST \t\t\t\n      PUSH 0\t\t\t\n      PUSH 20\t\t\t\n      DUP3 \t\t\t\n      ADD \t\t\t\n      SWAP1 \t\t\t\n      POP \t\t\t\n      DUP2 \t\t\t\n      DUP2 \t\t\t\n      SUB \t\t\t\n      PUSH 0\t\t\t\n      DUP4 \t\t\t\n      ADD \t\t\t\n      MSTORE \t\t\t\n      PUSH [tag] 1296\t\t\t\n      DUP2 \t\t\t\n      PUSH [tag] 778\t\t\t\n      JUMP \t\t\t\n    tag 1296\t\t\t\n      JUMPDEST \t\t\t\n      SWAP1 \t\t\t\n      POP \t\t\t\n      SWAP2 \t\t\t\n      SWAP1 \t\t\t\n      POP \t\t\t\n      JUMP \t\t\t\n    tag 779\t\t\t\n      JUMPDEST \t\t\t\n      PUSH 4E6F7420616E206F776E6572206F722072657175657374206F776E6572000000\t\t\t\n      PUSH 0\t\t\t\n      DUP3 \t\t\t\n      ADD \t\t\t\n      MSTORE \t\t\t\n      POP \t\t\t\n      JUMP \t\t\t\n    tag 780\t\t\t\n      JUMPDEST \t\t\t\n      PUSH 0\t\t\t\n      PUSH [tag] 1299\t\t\t\n      PUSH 1D\t\t\t\n      DUP4 \t\t\t\n      PUSH [tag] 729\t\t\t\n      JUMP \t\t\t\n    tag 1299\t\t\t\n      JUMPDEST \t\t\t\n      SWAP2 \t\t\t\n      POP \t\t\t\n      PUSH [tag] 1300\t\t\t\n      DUP3 \t\t\t\n      PUSH [tag] 779\t\t\t\n      JUMP \t\t\t\n    tag 1300\t\t\t\n      JUMPDEST \t\t\t\n      PUSH 20\t\t\t\n      DUP3 \t\t\t\n      ADD \t\t\t\n      SWAP1 \t\t\t\n      POP \t\t\t\n      SWAP2 \t\t\t\n      SWAP1 \t\t\t\n      POP \t\t\t\n      JUMP \t\t\t\n    tag 214\t\t\t\n      JUMPDEST \t\t\t\n      PUSH 0\t\t\t\n      PUSH 20\t\t\t\n      DUP3 \t\t\t\n      ADD \t\t\t\n      SWAP1 \t\t\t\n      POP \t\t\t\n      DUP2 \t\t\t\n      DUP2 \t\t\t\n      SUB \t\t\t\n      PUSH 0\t\t\t\n      DUP4 \t\t\t\n      ADD \t\t\t\n      MSTORE \t\t\t\n      PUSH [tag] 1302\t\t\t\n      DUP2 \t\t\t\n      PUSH [tag] 780\t\t\t\n      JUMP \t\t\t\n    tag 1302\t\t\t\n      JUMPDEST \t\t\t\n      SWAP1 \t\t\t\n      POP \t\t\t\n      SWAP2 \t\t\t\n      SWAP1 \t\t\t\n      POP \t\t\t\n      JUMP \t\t\t\n    tag 781\t\t\t\n      JUMPDEST \t\t\t\n      PUSH 0\t\t\t\n      DUP2 \t\t\t\n      SWAP1 \t\t\t\n      POP \t\t\t\n      SWAP2 \t\t\t\n      SWAP1 \t\t\t\n      POP \t\t\t\n      JUMP \t\t\t\n    tag 782\t\t\t\n      JUMPDEST \t\t\t\n      PUSH 0\t\t\t\n      PUSH [tag] 1305\t\t\t\n      PUSH [tag] 1306\t\t\t\n      PUSH [tag] 1307\t\t\t\n      DUP5 \t\t\t\n      PUSH [tag] 781\t\t\t\n      JUMP \t\t\t\n    tag 1307\t\t\t\n      JUMPDEST \t\t\t\n      PUSH [tag] 737\t\t\t\n      JUMP \t\t\t\n    tag 1306\t\t\t\n      JUMPDEST \t\t\t\n      PUSH [tag] 692\t\t\t\n      JUMP \t\t\t\n    tag 1305\t\t\t\n      JUMPDEST \t\t\t\n      SWAP1 \t\t\t\n      POP \t\t\t\n      SWAP2 \t\t\t\n      SWAP1 \t\t\t\n      POP \t\t\t\n      JUMP \t\t\t\n    tag 783\t\t\t\n      JUMPDEST \t\t\t\n      PUSH [tag] 1309\t\t\t\n      DUP2 \t\t\t\n      PUSH [tag] 782\t\t\t\n      JUMP \t\t\t\n    tag 1309\t\t\t\n      JUMPDEST \t\t\t\n      DUP3 \t\t\t\n      MSTORE \t\t\t\n      POP \t\t\t\n      POP \t\t\t\n      JUMP \t\t\t\n    tag 242\t\t\t\n      JUMPDEST \t\t\t\n      PUSH 0\t\t\t\n      PUSH 20\t\t\t\n      DUP3 \t\t\t\n      ADD \t\t\t\n      SWAP1 \t\t\t\n      POP \t\t\t\n      PUSH [tag] 1311\t\t\t\n      PUSH 0\t\t\t\n      DUP4 \t\t\t\n      ADD \t\t\t\n      DUP5 \t\t\t\n      PUSH [tag] 783\t\t\t\n      JUMP \t\t\t\n    tag 1311\t\t\t\n      JUMPDEST \t\t\t\n      SWAP3 \t\t\t\n      SWAP2 \t\t\t\n      POP \t\t\t\n      POP \t\t\t\n      JUMP \t\t\t\n    tag 784\t\t\t\n      JUMPDEST \t\t\t\n      PUSH 4E487B7100000000000000000000000000000000000000000000000000000000\t\t\t\n      PUSH 0\t\t\t\n      MSTORE \t\t\t\n      PUSH 11\t\t\t\n      PUSH 4\t\t\t\n      MSTORE \t\t\t\n      PUSH 24\t\t\t\n      PUSH 0\t\t\t\n      REVERT \t\t\t\n    tag 268\t\t\t\n      JUMPDEST \t\t\t\n      PUSH 0\t\t\t\n      PUSH [tag] 1314\t\t\t\n      DUP3 \t\t\t\n      PUSH [tag] 697\t\t\t\n      JUMP \t\t\t\n    tag 1314\t\t\t\n      JUMPDEST \t\t\t\n      SWAP2 \t\t\t\n      POP \t\t\t\n      PUSH [tag] 1315\t\t\t\n      DUP4 \t\t\t\n      PUSH [tag] 697\t\t\t\n      JUMP \t\t\t\n    tag 1315\t\t\t\n      JUMPDEST \t\t\t\n      SWAP3 \t\t\t\n      POP \t\t\t\n      DUP3 \t\t\t\n      DUP3 \t\t\t\n      SUB \t\t\t\n      SWAP1 \t\t\t\n      POP \t\t\t\n      DUP2 \t\t\t\n      DUP2 \t\t\t\n      GT \t\t\t\n      ISZERO \t\t\t\n      PUSH [tag] 1316\t\t\t\n      JUMPI \t\t\t\n      PUSH [tag] 1317\t\t\t\n      PUSH [tag] 784\t\t\t\n      JUMP \t\t\t\n    tag 1317\t\t\t\n      JUMPDEST \t\t\t\n    tag 1316\t\t\t\n      JUMPDEST \t\t\t\n      SWAP3 \t\t\t\n      SWAP2 \t\t\t\n      POP \t\t\t\n      POP \t\t\t\n      JUMP \t\t\t\n    tag 785\t\t\t\n      JUMPDEST \t\t\t\n      PUSH 4E487B7100000000000000000000000000000000000000000000000000000000\t\t\t\n      PUSH 0\t\t\t\n      MSTORE \t\t\t\n      PUSH 22\t\t\t\n      PUSH 4\t\t\t\n      MSTORE \t\t\t\n      PUSH 24\t\t\t\n      PUSH 0\t\t\t\n      REVERT \t\t\t\n    tag 283\t\t\t\n      JUMPDEST \t\t\t\n      PUSH 0\t\t\t\n      PUSH 2\t\t\t\n      DUP3 \t\t\t\n      DIV \t\t\t\n      SWAP1 \t\t\t\n      POP \t\t\t\n      PUSH 1\t\t\t\n      DUP3 \t\t\t\n      AND \t\t\t\n      DUP1 \t\t\t\n      PUSH [tag] 1320\t\t\t\n      JUMPI \t\t\t\n      PUSH 7F\t\t\t\n      DUP3 \t\t\t\n      AND \t\t\t\n      SWAP2 \t\t\t\n      POP \t\t\t\n    tag 1320\t\t\t\n      JUMPDEST \t\t\t\n      PUSH 20\t\t\t\n      DUP3 \t\t\t\n      LT \t\t\t\n      DUP2 \t\t\t\n      SUB \t\t\t\n      PUSH [tag] 1321\t\t\t\n      JUMPI \t\t\t\n      PUSH [tag] 1322\t\t\t\n      PUSH [tag] 785\t\t\t\n      JUMP \t\t\t\n    tag 1322\t\t\t\n      JUMPDEST \t\t\t\n    tag 1321\t\t\t\n      JUMPDEST \t\t\t\n      POP \t\t\t\n      SWAP2 \t\t\t\n      SWAP1 \t\t\t\n      POP \t\t\t\n      JUMP \t\t\t\n    tag 786\t\t\t\n      JUMPDEST \t\t\t\n      PUSH 0\t\t\t\n      PUSH 0\t\t\t\n      REVERT \t\t\t\n    tag 787\t\t\t\n      JUMPDEST \t\t\t\n      PUSH 0\t\t\t\n      PUSH 0\t\t\t\n      REVERT \t\t\t\n    tag 788\t\t\t\n      JUMPDEST \t\t\t\n      PUSH 0\t\t\t\n      PUSH 0\t\t\t\n      REVERT \t\t\t\n    tag 365\t\t\t\n      JUMPDEST \t\t\t\n      PUSH 0\t\t\t\n      PUSH 0\t\t\t\n      DUP4 \t\t\t\n      CALLDATALOAD \t\t\t\n      PUSH 1\t\t\t\n      PUSH 20\t\t\t\n      SUB \t\t\t\n      DUP5 \t\t\t\n      CALLDATASIZE \t\t\t\n      SUB \t\t\t\n      SUB \t\t\t\n      DUP2 \t\t\t\n      SLT \t\t\t\n      PUSH [tag] 1327\t\t\t\n      JUMPI \t\t\t\n      PUSH [tag] 1328\t\t\t\n      PUSH [tag] 786\t\t\t\n      JUMP \t\t\t\n    tag 1328\t\t\t\n      JUMPDEST \t\t\t\n    tag 1327\t\t\t\n      JUMPDEST \t\t\t\n      DUP1 \t\t\t\n      DUP5 \t\t\t\n      ADD \t\t\t\n      SWAP3 \t\t\t\n      POP \t\t\t\n      DUP3 \t\t\t\n      CALLDATALOAD \t\t\t\n      SWAP2 \t\t\t\n      POP \t\t\t\n      PUSH FFFFFFFFFFFFFFFF\t\t\t\n      DUP3 \t\t\t\n      GT \t\t\t\n      ISZERO \t\t\t\n      PUSH [tag] 1329\t\t\t\n      JUMPI \t\t\t\n      PUSH [tag] 1330\t\t\t\n      PUSH [tag] 787\t\t\t\n      JUMP \t\t\t\n    tag 1330\t\t\t\n      JUMPDEST \t\t\t\n    tag 1329\t\t\t\n      JUMPDEST \t\t\t\n      PUSH 20\t\t\t\n      DUP4 \t\t\t\n      ADD \t\t\t\n      SWAP3 \t\t\t\n      POP \t\t\t\n      PUSH 1\t\t\t\n      DUP3 \t\t\t\n      MUL \t\t\t\n      CALLDATASIZE \t\t\t\n      SUB \t\t\t\n      DUP4 \t\t\t\n      SGT \t\t\t\n      ISZERO \t\t\t\n      PUSH [tag] 1331\t\t\t\n      JUMPI \t\t\t\n      PUSH [tag] 1332\t\t\t\n      PUSH [tag] 788\t\t\t\n      JUMP \t\t\t\n    tag 1332\t\t\t\n      JUMPDEST \t\t\t\n    tag 1331\t\t\t\n      JUMPDEST \t\t\t\n      POP \t\t\t\n      SWAP3 \t\t\t\n      POP \t\t\t\n      SWAP3 \t\t\t\n      SWAP1 \t\t\t\n      POP \t\t\t\n      JUMP \t\t\t\n    tag 368\t\t\t\n      JUMPDEST \t\t\t\n      PUSH 0\t\t\t\n      PUSH 0\t\t\t\n      DUP4 \t\t\t\n      CALLDATALOAD \t\t\t\n      PUSH 1\t\t\t\n      PUSH 20\t\t\t\n      SUB \t\t\t\n      DUP5 \t\t\t\n      CALLDATASIZE \t\t\t\n      SUB \t\t\t\n      SUB \t\t\t\n      DUP2 \t\t\t\n      SLT \t\t\t\n      PUSH [tag] 1334\t\t\t\n      JUMPI \t\t\t\n      PUSH [tag] 1335\t\t\t\n      PUSH [tag] 786\t\t\t\n      JUMP \t\t\t\n    tag 1335\t\t\t\n      JUMPDEST \t\t\t\n    tag 1334\t\t\t\n      JUMPDEST \t\t\t\n      DUP1 \t\t\t\n      DUP5 \t\t\t\n      ADD \t\t\t\n      SWAP3 \t\t\t\n      POP \t\t\t\n      DUP3 \t\t\t\n      CALLDATALOAD \t\t\t\n      SWAP2 \t\t\t\n      POP \t\t\t\n      PUSH FFFFFFFFFFFFFFFF\t\t\t\n      DUP3 \t\t\t\n      GT \t\t\t\n      ISZERO \t\t\t\n      PUSH [tag] 1336\t\t\t\n      JUMPI \t\t\t\n      PUSH [tag] 1337\t\t\t\n      PUSH [tag] 787\t\t\t\n      JUMP \t\t\t\n    tag 1337\t\t\t\n      JUMPDEST \t\t\t\n    tag 1336\t\t\t\n      JUMPDEST \t\t\t\n      PUSH 20\t\t\t\n      DUP4 \t\t\t\n      ADD \t\t\t\n      SWAP3 \t\t\t\n      POP \t\t\t\n      PUSH 1\t\t\t\n      DUP3 \t\t\t\n      MUL \t\t\t\n      CALLDATASIZE \t\t\t\n      SUB \t\t\t\n      DUP4 \t\t\t\n      SGT \t\t\t\n      ISZERO \t\t\t\n      PUSH [tag] 1338\t\t\t\n      JUMPI \t\t\t\n      PUSH [tag] 1339\t\t\t\n      PUSH [tag] 788\t\t\t\n      JUMP \t\t\t\n    tag 1339\t\t\t\n      JUMPDEST \t\t\t\n    tag 1338\t\t\t\n      JUMPDEST \t\t\t\n      POP \t\t\t\n      SWAP3 \t\t\t\n      POP \t\t\t\n      SWAP3 \t\t\t\n      SWAP1 \t\t\t\n      POP \t\t\t\n      JUMP \t\t\t\n    tag 789\t\t\t\n      JUMPDEST \t\t\t\n      PUSH 0\t\t\t\n      PUSH [tag] 1341\t\t\t\n      DUP4 \t\t\t\n      DUP6 \t\t\t\n      PUSH [tag] 729\t\t\t\n      JUMP \t\t\t\n    tag 1341\t\t\t\n      JUMPDEST \t\t\t\n      SWAP4 \t\t\t\n      POP \t\t\t\n      PUSH [tag] 1342\t\t\t\n      DUP4 \t\t\t\n      DUP6 \t\t\t\n      DUP5 \t\t\t\n      PUSH [tag] 758\t\t\t\n      JUMP \t\t\t\n    tag 1342\t\t\t\n      JUMPDEST \t\t\t\n      PUSH [tag] 1343\t\t\t\n      DUP4 \t\t\t\n      PUSH [tag] 703\t\t\t\n      JUMP \t\t\t\n    tag 1343\t\t\t\n      JUMPDEST \t\t\t\n      DUP5 \t\t\t\n      ADD \t\t\t\n      SWAP1 \t\t\t\n      POP \t\t\t\n      SWAP4 \t\t\t\n      SWAP3 \t\t\t\n      POP \t\t\t\n      POP \t\t\t\n      POP \t\t\t\n      JUMP \t\t\t\n    tag 790\t\t\t\n      JUMPDEST \t\t\t\n      PUSH 0\t\t\t\n      DUP3 \t\t\t\n      DUP3 \t\t\t\n      MSTORE \t\t\t\n      PUSH 20\t\t\t\n      DUP3 \t\t\t\n      ADD \t\t\t\n      SWAP1 \t\t\t\n      POP \t\t\t\n      SWAP3 \t\t\t\n      SWAP2 \t\t\t\n      POP \t\t\t\n      POP \t\t\t\n      JUMP \t\t\t\n    tag 791\t\t\t\n      JUMPDEST \t\t\t\n      PUSH 0\t\t\t\n      PUSH [tag] 1346\t\t\t\n      DUP4 \t\t\t\n      DUP6 \t\t\t\n      PUSH [tag] 790\t\t\t\n      JUMP \t\t\t\n    tag 1346\t\t\t\n      JUMPDEST \t\t\t\n      SWAP4 \t\t\t\n      POP \t\t\t\n      PUSH [tag] 1347\t\t\t\n      DUP4 \t\t\t\n      DUP6 \t\t\t\n      DUP5 \t\t\t\n      PUSH [tag] 758\t\t\t\n      JUMP \t\t\t\n    tag 1347\t\t\t\n      JUMPDEST \t\t\t\n      PUSH [tag] 1348\t\t\t\n      DUP4 \t\t\t\n      PUSH [tag] 703\t\t\t\n      JUMP \t\t\t\n    tag 1348\t\t\t\n      JUMPDEST \t\t\t\n      DUP5 \t\t\t\n      ADD \t\t\t\n      SWAP1 \t\t\t\n      POP \t\t\t\n      SWAP4 \t\t\t\n      SWAP3 \t\t\t\n      POP \t\t\t\n      POP \t\t\t\n      POP \t\t\t\n      JUMP \t\t\t\n    tag 370\t\t\t\n      JUMPDEST \t\t\t\n      PUSH 0\t\t\t\n      PUSH 60\t\t\t\n      DUP3 \t\t\t\n      ADD \t\t\t\n      SWAP1 \t\t\t\n      POP \t\t\t\n      DUP2 \t\t\t\n      DUP2 \t\t\t\n      SUB \t\t\t\n      PUSH 0\t\t\t\n      DUP4 \t\t\t\n      ADD \t\t\t\n      MSTORE \t\t\t\n      PUSH [tag] 1350\t\t\t\n      DUP2 \t\t\t\n      DUP8 \t\t\t\n      DUP10 \t\t\t\n      PUSH [tag] 789\t\t\t\n      JUMP \t\t\t\n    tag 1350\t\t\t\n      JUMPDEST \t\t\t\n      SWAP1 \t\t\t\n      POP \t\t\t\n      PUSH [tag] 1351\t\t\t\n      PUSH 20\t\t\t\n      DUP4 \t\t\t\n      ADD \t\t\t\n      DUP7 \t\t\t\n      PUSH [tag] 699\t\t\t\n      JUMP \t\t\t\n    tag 1351\t\t\t\n      JUMPDEST \t\t\t\n      DUP2 \t\t\t\n      DUP2 \t\t\t\n      SUB \t\t\t\n      PUSH 40\t\t\t\n      DUP4 \t\t\t\n      ADD \t\t\t\n      MSTORE \t\t\t\n      PUSH [tag] 1352\t\t\t\n      DUP2 \t\t\t\n      DUP5 \t\t\t\n      DUP7 \t\t\t\n      PUSH [tag] 791\t\t\t\n      JUMP \t\t\t\n    tag 1352\t\t\t\n      JUMPDEST \t\t\t\n      SWAP1 \t\t\t\n      POP \t\t\t\n      SWAP7 \t\t\t\n      SWAP6 \t\t\t\n      POP \t\t\t\n      POP \t\t\t\n      POP \t\t\t\n      POP \t\t\t\n      POP \t\t\t\n      POP \t\t\t\n      JUMP \t\t\t\n    tag 792\t\t\t\n      JUMPDEST \t\t\t\n      PUSH 0\t\t\t\n      DUP2 \t\t\t\n      SWAP1 \t\t\t\n      POP \t\t\t\n      SWAP3 \t\t\t\n      SWAP2 \t\t\t\n      POP \t\t\t\n      POP \t\t\t\n      JUMP \t\t\t\n    tag 793\t\t\t\n      JUMPDEST \t\t\t\n      PUSH 0\t\t\t\n      PUSH [tag] 1355\t\t\t\n      DUP3 \t\t\t\n      PUSH [tag] 720\t\t\t\n      JUMP \t\t\t\n    tag 1355\t\t\t\n      JUMPDEST \t\t\t\n      PUSH [tag] 1356\t\t\t\n      DUP2 \t\t\t\n      DUP6 \t\t\t\n      PUSH [tag] 792\t\t\t\n      JUMP \t\t\t\n    tag 1356\t\t\t\n      JUMPDEST \t\t\t\n      SWAP4 \t\t\t\n      POP \t\t\t\n      PUSH [tag] 1357\t\t\t\n      DUP2 \t\t\t\n      DUP6 \t\t\t\n      PUSH 20\t\t\t\n      DUP7 \t\t\t\n      ADD \t\t\t\n      PUSH [tag] 722\t\t\t\n      JUMP \t\t\t\n    tag 1357\t\t\t\n      JUMPDEST \t\t\t\n      DUP1 \t\t\t\n      DUP5 \t\t\t\n      ADD \t\t\t\n      SWAP2 \t\t\t\n      POP \t\t\t\n      POP \t\t\t\n      SWAP3 \t\t\t\n      SWAP2 \t\t\t\n      POP \t\t\t\n      POP \t\t\t\n      JUMP \t\t\t\n    tag 430\t\t\t\n      JUMPDEST \t\t\t\n      PUSH 0\t\t\t\n      PUSH [tag] 1359\t\t\t\n      DUP3 \t\t\t\n      DUP5 \t\t\t\n      PUSH [tag] 793\t\t\t\n      JUMP \t\t\t\n    tag 1359\t\t\t\n      JUMPDEST \t\t\t\n      SWAP2 \t\t\t\n      POP \t\t\t\n      DUP2 \t\t\t\n      SWAP1 \t\t\t\n      POP \t\t\t\n      SWAP3 \t\t\t\n      SWAP2 \t\t\t\n      POP \t\t\t\n      POP \t\t\t\n      JUMP \t\t\t\n    tag 794\t\t\t\n      JUMPDEST \t\t\t\n      PUSH 56616C696461746F72206973206E6F742077686974656C697374656400000000\t\t\t\n      PUSH 0\t\t\t\n      DUP3 \t\t\t\n      ADD \t\t\t\n      MSTORE \t\t\t\n      POP \t\t\t\n      JUMP \t\t\t\n    tag 795\t\t\t\n      JUMPDEST \t\t\t\n      PUSH 0\t\t\t\n      PUSH [tag] 1362\t\t\t\n      PUSH 1C\t\t\t\n      DUP4 \t\t\t\n      PUSH [tag] 729\t\t\t\n      JUMP \t\t\t\n    tag 1362\t\t\t\n      JUMPDEST \t\t\t\n      SWAP2 \t\t\t\n      POP \t\t\t\n      PUSH [tag] 1363\t\t\t\n      DUP3 \t\t\t\n      PUSH [tag] 794\t\t\t\n      JUMP \t\t\t\n    tag 1363\t\t\t\n      JUMPDEST \t\t\t\n      PUSH 20\t\t\t\n      DUP3 \t\t\t\n      ADD \t\t\t\n      SWAP1 \t\t\t\n      POP \t\t\t\n      SWAP2 \t\t\t\n      SWAP1 \t\t\t\n      POP \t\t\t\n      JUMP \t\t\t\n    tag 478\t\t\t\n      JUMPDEST \t\t\t\n      PUSH 0\t\t\t\n      PUSH 20\t\t\t\n      DUP3 \t\t\t\n      ADD \t\t\t\n      SWAP1 \t\t\t\n      POP \t\t\t\n      DUP2 \t\t\t\n      DUP2 \t\t\t\n      SUB \t\t\t\n      PUSH 0\t\t\t\n      DUP4 \t\t\t\n      ADD \t\t\t\n      MSTORE \t\t\t\n      PUSH [tag] 1365\t\t\t\n      DUP2 \t\t\t\n      PUSH [tag] 795\t\t\t\n      JUMP \t\t\t\n    tag 1365\t\t\t\n      JUMPDEST \t\t\t\n      SWAP1 \t\t\t\n      POP \t\t\t\n      SWAP2 \t\t\t\n      SWAP1 \t\t\t\n      POP \t\t\t\n      JUMP \t\t\t\n    tag 796\t\t\t\n      JUMPDEST \t\t\t\n      PUSH 0\t\t\t\n      PUSH FFFFFFFF00000000000000000000000000000000000000000000000000000000\t\t\t\n      DUP3 \t\t\t\n      AND \t\t\t\n      SWAP1 \t\t\t\n      POP \t\t\t\n      SWAP2 \t\t\t\n      SWAP1 \t\t\t\n      POP \t\t\t\n      JUMP \t\t\t\n    tag 797\t\t\t\n      JUMPDEST \t\t\t\n      PUSH [tag] 1368\t\t\t\n      DUP2 \t\t\t\n      PUSH [tag] 796\t\t\t\n      JUMP \t\t\t\n    tag 1368\t\t\t\n      JUMPDEST \t\t\t\n      DUP3 \t\t\t\n      MSTORE \t\t\t\n      POP \t\t\t\n      POP \t\t\t\n      JUMP \t\t\t\n    tag 483\t\t\t\n      JUMPDEST \t\t\t\n      PUSH 0\t\t\t\n      PUSH 20\t\t\t\n      DUP3 \t\t\t\n      ADD \t\t\t\n      SWAP1 \t\t\t\n      POP \t\t\t\n      PUSH [tag] 1370\t\t\t\n      PUSH 0\t\t\t\n      DUP4 \t\t\t\n      ADD \t\t\t\n      DUP5 \t\t\t\n      PUSH [tag] 797\t\t\t\n      JUMP \t\t\t\n    tag 1370\t\t\t\n      JUMPDEST \t\t\t\n      SWAP3 \t\t\t\n      SWAP2 \t\t\t\n      POP \t\t\t\n      POP \t\t\t\n      JUMP \t\t\t\n    tag 798\t\t\t\n      JUMPDEST \t\t\t\n      PUSH [tag] 1372\t\t\t\n      DUP2 \t\t\t\n      PUSH [tag] 695\t\t\t\n      JUMP \t\t\t\n    tag 1372\t\t\t\n      JUMPDEST \t\t\t\n      DUP2 \t\t\t\n      EQ \t\t\t\n      PUSH [tag] 1373\t\t\t\n      JUMPI \t\t\t\n      PUSH 0\t\t\t\n      PUSH 0\t\t\t\n      REVERT \t\t\t\n    tag 1373\t\t\t\n      JUMPDEST \t\t\t\n      POP \t\t\t\n      JUMP \t\t\t\n    tag 799\t\t\t\n      JUMPDEST \t\t\t\n      PUSH 0\t\t\t\n      DUP2 \t\t\t\n      MLOAD \t\t\t\n      SWAP1 \t\t\t\n      POP \t\t\t\n      PUSH [tag] 1375\t\t\t\n      DUP2 \t\t\t\n      PUSH [tag] 798\t\t\t\n      JUMP \t\t\t\n    tag 1375\t\t\t\n      JUMPDEST \t\t\t\n      SWAP3 \t\t\t\n      SWAP2 \t\t\t\n      POP \t\t\t\n      POP \t\t\t\n      JUMP \t\t\t\n    tag 487\t\t\t\n      JUMPDEST \t\t\t\n      PUSH 0\t\t\t\n      PUSH 20\t\t\t\n      DUP3 \t\t\t\n      DUP5 \t\t\t\n      SUB \t\t\t\n      SLT \t\t\t\n      ISZERO \t\t\t\n      PUSH [tag] 1377\t\t\t\n      JUMPI \t\t\t\n      PUSH [tag] 1378\t\t\t\n      PUSH [tag] 682\t\t\t\n      JUMP \t\t\t\n    tag 1378\t\t\t\n      JUMPDEST \t\t\t\n    tag 1377\t\t\t\n      JUMPDEST \t\t\t\n      PUSH 0\t\t\t\n      PUSH [tag] 1379\t\t\t\n      DUP5 \t\t\t\n      DUP3 \t\t\t\n      DUP6 \t\t\t\n      ADD \t\t\t\n      PUSH [tag] 799\t\t\t\n      JUMP \t\t\t\n    tag 1379\t\t\t\n      JUMPDEST \t\t\t\n      SWAP2 \t\t\t\n      POP \t\t\t\n      POP \t\t\t\n      SWAP3 \t\t\t\n      SWAP2 \t\t\t\n      POP \t\t\t\n      POP \t\t\t\n      JUMP \t\t\t\n    tag 800\t\t\t\n      JUMPDEST \t\t\t\n      PUSH 56616C696461746F7220646F65736E277420737570706F72742072656C657661\t\t\t\n      PUSH 0\t\t\t\n      DUP3 \t\t\t\n      ADD \t\t\t\n      MSTORE \t\t\t\n      PUSH 6E7420696E746572666163650000000000000000000000000000000000000000\t\t\t\n      PUSH 20\t\t\t\n      DUP3 \t\t\t\n      ADD \t\t\t\n      MSTORE \t\t\t\n      POP \t\t\t\n      JUMP \t\t\t\n    tag 801\t\t\t\n      JUMPDEST \t\t\t\n      PUSH 0\t\t\t\n      PUSH [tag] 1382\t\t\t\n      PUSH 2C\t\t\t\n      DUP4 \t\t\t\n      PUSH [tag] 729\t\t\t\n      JUMP \t\t\t\n    tag 1382\t\t\t\n      JUMPDEST \t\t\t\n      SWAP2 \t\t\t\n      POP \t\t\t\n      PUSH [tag] 1383\t\t\t\n      DUP3 \t\t\t\n      PUSH [tag] 800\t\t\t\n      JUMP \t\t\t\n    tag 1383\t\t\t\n      JUMPDEST \t\t\t\n      PUSH 40\t\t\t\n      DUP3 \t\t\t\n      ADD \t\t\t\n      SWAP1 \t\t\t\n      POP \t\t\t\n      SWAP2 \t\t\t\n      SWAP1 \t\t\t\n      POP \t\t\t\n      JUMP \t\t\t\n    tag 490\t\t\t\n      JUMPDEST \t\t\t\n      PUSH 0\t\t\t\n      PUSH 20\t\t\t\n      DUP3 \t\t\t\n      ADD \t\t\t\n      SWAP1 \t\t\t\n      POP \t\t\t\n      DUP2 \t\t\t\n      DUP2 \t\t\t\n      SUB \t\t\t\n      PUSH 0\t\t\t\n      DUP4 \t\t\t\n      ADD \t\t\t\n      MSTORE \t\t\t\n      PUSH [tag] 1385\t\t\t\n      DUP2 \t\t\t\n      PUSH [tag] 801\t\t\t\n      JUMP \t\t\t\n    tag 1385\t\t\t\n      JUMPDEST \t\t\t\n      SWAP1 \t\t\t\n      POP \t\t\t\n      SWAP2 \t\t\t\n      SWAP1 \t\t\t\n      POP \t\t\t\n      JUMP \t\t\t\n    tag 802\t\t\t\n      JUMPDEST \t\t\t\n      PUSH 4C656E6774682073686F756C642062652067726561746572207468616E203000\t\t\t\n      PUSH 0\t\t\t\n      DUP3 \t\t\t\n      ADD \t\t\t\n      MSTORE \t\t\t\n      POP \t\t\t\n      JUMP \t\t\t\n    tag 803\t\t\t\n      JUMPDEST \t\t\t\n      PUSH 0\t\t\t\n      PUSH [tag] 1388\t\t\t\n      PUSH 1F\t\t\t\n      DUP4 \t\t\t\n      PUSH [tag] 729\t\t\t\n      JUMP \t\t\t\n    tag 1388\t\t\t\n      JUMPDEST \t\t\t\n      SWAP2 \t\t\t\n      POP \t\t\t\n      PUSH [tag] 1389\t\t\t\n      DUP3 \t\t\t\n      PUSH [tag] 802\t\t\t\n      JUMP \t\t\t\n    tag 1389\t\t\t\n      JUMPDEST \t\t\t\n      PUSH 20\t\t\t\n      DUP3 \t\t\t\n      ADD \t\t\t\n      SWAP1 \t\t\t\n      POP \t\t\t\n      SWAP2 \t\t\t\n      SWAP1 \t\t\t\n      POP \t\t\t\n      JUMP \t\t\t\n    tag 495\t\t\t\n      JUMPDEST \t\t\t\n      PUSH 0\t\t\t\n      PUSH 20\t\t\t\n      DUP3 \t\t\t\n      ADD \t\t\t\n      SWAP1 \t\t\t\n      POP \t\t\t\n      DUP2 \t\t\t\n      DUP2 \t\t\t\n      SUB \t\t\t\n      PUSH 0\t\t\t\n      DUP4 \t\t\t\n      ADD \t\t\t\n      MSTORE \t\t\t\n      PUSH [tag] 1391\t\t\t\n      DUP2 \t\t\t\n      PUSH [tag] 803\t\t\t\n      JUMP \t\t\t\n    tag 1391\t\t\t\n      JUMPDEST \t\t\t\n      SWAP1 \t\t\t\n      POP \t\t\t\n      SWAP2 \t\t\t\n      SWAP1 \t\t\t\n      POP \t\t\t\n      JUMP \t\t\t\n    tag 804\t\t\t\n      JUMPDEST \t\t\t\n      PUSH 4C656E677468206C696D69742065786365656465640000000000000000000000\t\t\t\n      PUSH 0\t\t\t\n      DUP3 \t\t\t\n      ADD \t\t\t\n      MSTORE \t\t\t\n      POP \t\t\t\n      JUMP \t\t\t\n    tag 805\t\t\t\n      JUMPDEST \t\t\t\n      PUSH 0\t\t\t\n      PUSH [tag] 1394\t\t\t\n      PUSH 15\t\t\t\n      DUP4 \t\t\t\n      PUSH [tag] 729\t\t\t\n      JUMP \t\t\t\n    tag 1394\t\t\t\n      JUMPDEST \t\t\t\n      SWAP2 \t\t\t\n      POP \t\t\t\n      PUSH [tag] 1395\t\t\t\n      DUP3 \t\t\t\n      PUSH [tag] 804\t\t\t\n      JUMP \t\t\t\n    tag 1395\t\t\t\n      JUMPDEST \t\t\t\n      PUSH 20\t\t\t\n      DUP3 \t\t\t\n      ADD \t\t\t\n      SWAP1 \t\t\t\n      POP \t\t\t\n      SWAP2 \t\t\t\n      SWAP1 \t\t\t\n      POP \t\t\t\n      JUMP \t\t\t\n    tag 498\t\t\t\n      JUMPDEST \t\t\t\n      PUSH 0\t\t\t\n      PUSH 20\t\t\t\n      DUP3 \t\t\t\n      ADD \t\t\t\n      SWAP1 \t\t\t\n      POP \t\t\t\n      DUP2 \t\t\t\n      DUP2 \t\t\t\n      SUB \t\t\t\n      PUSH 0\t\t\t\n      DUP4 \t\t\t\n      ADD \t\t\t\n      MSTORE \t\t\t\n      PUSH [tag] 1397\t\t\t\n      DUP2 \t\t\t\n      PUSH [tag] 805\t\t\t\n      JUMP \t\t\t\n    tag 1397\t\t\t\n      JUMPDEST \t\t\t\n      SWAP1 \t\t\t\n      POP \t\t\t\n      SWAP2 \t\t\t\n      SWAP1 \t\t\t\n      POP \t\t\t\n      JUMP \t\t\t\n    tag 806\t\t\t\n      JUMPDEST \t\t\t\n      PUSH 537461727420696E646578206F7574206F6620626F756E647300000000000000\t\t\t\n      PUSH 0\t\t\t\n      DUP3 \t\t\t\n      ADD \t\t\t\n      MSTORE \t\t\t\n      POP \t\t\t\n      JUMP \t\t\t\n    tag 807\t\t\t\n      JUMPDEST \t\t\t\n      PUSH 0\t\t\t\n      PUSH [tag] 1400\t\t\t\n      PUSH 19\t\t\t\n      DUP4 \t\t\t\n      PUSH [tag] 729\t\t\t\n      JUMP \t\t\t\n    tag 1400\t\t\t\n      JUMPDEST \t\t\t\n      SWAP2 \t\t\t\n      POP \t\t\t\n      PUSH [tag] 1401\t\t\t\n      DUP3 \t\t\t\n      PUSH [tag] 806\t\t\t\n      JUMP \t\t\t\n    tag 1401\t\t\t\n      JUMPDEST \t\t\t\n      PUSH 20\t\t\t\n      DUP3 \t\t\t\n      ADD \t\t\t\n      SWAP1 \t\t\t\n      POP \t\t\t\n      SWAP2 \t\t\t\n      SWAP1 \t\t\t\n      POP \t\t\t\n      JUMP \t\t\t\n    tag 501\t\t\t\n      JUMPDEST \t\t\t\n      PUSH 0\t\t\t\n      PUSH 20\t\t\t\n      DUP3 \t\t\t\n      ADD \t\t\t\n      SWAP1 \t\t\t\n      POP \t\t\t\n      DUP2 \t\t\t\n      DUP2 \t\t\t\n      SUB \t\t\t\n      PUSH 0\t\t\t\n      DUP4 \t\t\t\n      ADD \t\t\t\n      MSTORE \t\t\t\n      PUSH [tag] 1403\t\t\t\n      DUP2 \t\t\t\n      PUSH [tag] 807\t\t\t\n      JUMP \t\t\t\n    tag 1403\t\t\t\n      JUMPDEST \t\t\t\n      SWAP1 \t\t\t\n      POP \t\t\t\n      SWAP2 \t\t\t\n      SWAP1 \t\t\t\n      POP \t\t\t\n      JUMP \t\t\t\n    tag 503\t\t\t\n      JUMPDEST \t\t\t\n      PUSH 0\t\t\t\n      PUSH [tag] 1405\t\t\t\n      DUP3 \t\t\t\n      PUSH [tag] 697\t\t\t\n      JUMP \t\t\t\n    tag 1405\t\t\t\n      JUMPDEST \t\t\t\n      SWAP2 \t\t\t\n      POP \t\t\t\n      PUSH [tag] 1406\t\t\t\n      DUP4 \t\t\t\n      PUSH [tag] 697\t\t\t\n      JUMP \t\t\t\n    tag 1406\t\t\t\n      JUMPDEST \t\t\t\n      SWAP3 \t\t\t\n      POP \t\t\t\n      DUP3 \t\t\t\n      DUP3 \t\t\t\n      ADD \t\t\t\n      SWAP1 \t\t\t\n      POP \t\t\t\n      DUP1 \t\t\t\n      DUP3 \t\t\t\n      GT \t\t\t\n      ISZERO \t\t\t\n      PUSH [tag] 1407\t\t\t\n      JUMPI \t\t\t\n      PUSH [tag] 1408\t\t\t\n      PUSH [tag] 784\t\t\t\n      JUMP \t\t\t\n    tag 1408\t\t\t\n      JUMPDEST \t\t\t\n    tag 1407\t\t\t\n      JUMPDEST \t\t\t\n      SWAP3 \t\t\t\n      SWAP2 \t\t\t\n      POP \t\t\t\n      POP \t\t\t\n      JUMP \t\t\t\n    tag 808\t\t\t\n      JUMPDEST \t\t\t\n      PUSH 0\t\t\t\n      PUSH [tag] 1410\t\t\t\n      DUP3 \t\t\t\n      PUSH [tag] 742\t\t\t\n      JUMP \t\t\t\n    tag 1410\t\t\t\n      JUMPDEST \t\t\t\n      PUSH [tag] 1411\t\t\t\n      DUP2 \t\t\t\n      DUP6 \t\t\t\n      PUSH [tag] 790\t\t\t\n      JUMP \t\t\t\n    tag 1411\t\t\t\n      JUMPDEST \t\t\t\n      SWAP4 \t\t\t\n      POP \t\t\t\n      PUSH [tag] 1412\t\t\t\n      DUP2 \t\t\t\n      DUP6 \t\t\t\n      PUSH 20\t\t\t\n      DUP7 \t\t\t\n      ADD \t\t\t\n      PUSH [tag] 722\t\t\t\n      JUMP \t\t\t\n    tag 1412\t\t\t\n      JUMPDEST \t\t\t\n      PUSH [tag] 1413\t\t\t\n      DUP2 \t\t\t\n      PUSH [tag] 703\t\t\t\n      JUMP \t\t\t\n    tag 1413\t\t\t\n      JUMPDEST \t\t\t\n      DUP5 \t\t\t\n      ADD \t\t\t\n      SWAP2 \t\t\t\n      POP \t\t\t\n      POP \t\t\t\n      SWAP3 \t\t\t\n      SWAP2 \t\t\t\n      POP \t\t\t\n      POP \t\t\t\n      JUMP \t\t\t\n    tag 536\t\t\t\n      JUMPDEST \t\t\t\n      PUSH 0\t\t\t\n      PUSH 20\t\t\t\n      DUP3 \t\t\t\n      ADD \t\t\t\n      SWAP1 \t\t\t\n      POP \t\t\t\n      DUP2 \t\t\t\n      DUP2 \t\t\t\n      SUB \t\t\t\n      PUSH 0\t\t\t\n      DUP4 \t\t\t\n      ADD \t\t\t\n      MSTORE \t\t\t\n      PUSH [tag] 1415\t\t\t\n      DUP2 \t\t\t\n      DUP5 \t\t\t\n      PUSH [tag] 808\t\t\t\n      JUMP \t\t\t\n    tag 1415\t\t\t\n      JUMPDEST \t\t\t\n      SWAP1 \t\t\t\n      POP \t\t\t\n      SWAP3 \t\t\t\n      SWAP2 \t\t\t\n      POP \t\t\t\n      POP \t\t\t\n      JUMP \t\t\t\n    tag 809\t\t\t\n      JUMPDEST \t\t\t\n      PUSH 0\t\t\t\n      PUSH [tag] 1417\t\t\t\n      DUP3 \t\t\t\n      PUSH [tag] 739\t\t\t\n      JUMP \t\t\t\n    tag 1417\t\t\t\n      JUMPDEST \t\t\t\n      SWAP1 \t\t\t\n      POP \t\t\t\n      SWAP2 \t\t\t\n      SWAP1 \t\t\t\n      POP \t\t\t\n      JUMP \t\t\t\n    tag 810\t\t\t\n      JUMPDEST \t\t\t\n      PUSH [tag] 1419\t\t\t\n      DUP2 \t\t\t\n      PUSH [tag] 809\t\t\t\n      JUMP \t\t\t\n    tag 1419\t\t\t\n      JUMPDEST \t\t\t\n      DUP3 \t\t\t\n      MSTORE \t\t\t\n      POP \t\t\t\n      POP \t\t\t\n      JUMP \t\t\t\n    tag 548\t\t\t\n      JUMPDEST \t\t\t\n      PUSH 0\t\t\t\n      PUSH 80\t\t\t\n      DUP3 \t\t\t\n      ADD \t\t\t\n      SWAP1 \t\t\t\n      POP \t\t\t\n      DUP2 \t\t\t\n      DUP2 \t\t\t\n      SUB \t\t\t\n      PUSH 0\t\t\t\n      DUP4 \t\t\t\n      ADD \t\t\t\n      MSTORE \t\t\t\n      PUSH [tag] 1421\t\t\t\n      DUP2 \t\t\t\n      DUP8 \t\t\t\n      PUSH [tag] 808\t\t\t\n      JUMP \t\t\t\n    tag 1421\t\t\t\n      JUMPDEST \t\t\t\n      SWAP1 \t\t\t\n      POP \t\t\t\n      DUP2 \t\t\t\n      DUP2 \t\t\t\n      SUB \t\t\t\n      PUSH 20\t\t\t\n      DUP4 \t\t\t\n      ADD \t\t\t\n      MSTORE \t\t\t\n      PUSH [tag] 1422\t\t\t\n      DUP2 \t\t\t\n      DUP7 \t\t\t\n      PUSH [tag] 808\t\t\t\n      JUMP \t\t\t\n    tag 1422\t\t\t\n      JUMPDEST \t\t\t\n      SWAP1 \t\t\t\n      POP \t\t\t\n      PUSH [tag] 1423\t\t\t\n      PUSH 40\t\t\t\n      DUP4 \t\t\t\n      ADD \t\t\t\n      DUP6 \t\t\t\n      PUSH [tag] 699\t\t\t\n      JUMP \t\t\t\n    tag 1423\t\t\t\n      JUMPDEST \t\t\t\n      PUSH [tag] 1424\t\t\t\n      PUSH 60\t\t\t\n      DUP4 \t\t\t\n      ADD \t\t\t\n      DUP5 \t\t\t\n      PUSH [tag] 810\t\t\t\n      JUMP \t\t\t\n    tag 1424\t\t\t\n      JUMPDEST \t\t\t\n      SWAP6 \t\t\t\n      SWAP5 \t\t\t\n      POP \t\t\t\n      POP \t\t\t\n      POP \t\t\t\n      POP \t\t\t\n      POP \t\t\t\n      JUMP \t\t\t\n    tag 811\t\t\t\n      JUMPDEST \t\t\t\n      PUSH 0\t\t\t\n      PUSH FFFFFFFFFFFFFFFF\t\t\t\n      DUP3 \t\t\t\n      GT \t\t\t\n      ISZERO \t\t\t\n      PUSH [tag] 1426\t\t\t\n      JUMPI \t\t\t\n      PUSH [tag] 1427\t\t\t\n      PUSH [tag] 271\t\t\t\n      JUMP \t\t\t\n    tag 1427\t\t\t\n      JUMPDEST \t\t\t\n    tag 1426\t\t\t\n      JUMPDEST \t\t\t\n      PUSH 20\t\t\t\n      DUP3 \t\t\t\n      MUL \t\t\t\n      SWAP1 \t\t\t\n      POP \t\t\t\n      PUSH 20\t\t\t\n      DUP2 \t\t\t\n      ADD \t\t\t\n      SWAP1 \t\t\t\n      POP \t\t\t\n      SWAP2 \t\t\t\n      SWAP1 \t\t\t\n      POP \t\t\t\n      JUMP \t\t\t\n    tag 812\t\t\t\n      JUMPDEST \t\t\t\n      PUSH 0\t\t\t\n      PUSH [tag] 1429\t\t\t\n      PUSH [tag] 1430\t\t\t\n      DUP5 \t\t\t\n      PUSH [tag] 765\t\t\t\n      JUMP \t\t\t\n    tag 1430\t\t\t\n      JUMPDEST \t\t\t\n      PUSH [tag] 705\t\t\t\n      JUMP \t\t\t\n    tag 1429\t\t\t\n      JUMPDEST \t\t\t\n      SWAP1 \t\t\t\n      POP \t\t\t\n      DUP3 \t\t\t\n      DUP2 \t\t\t\n      MSTORE \t\t\t\n      PUSH 20\t\t\t\n      DUP2 \t\t\t\n      ADD \t\t\t\n      DUP5 \t\t\t\n      DUP5 \t\t\t\n      DUP5 \t\t\t\n      ADD \t\t\t\n      GT \t\t\t\n      ISZERO \t\t\t\n      PUSH [tag] 1431\t\t\t\n      JUMPI \t\t\t\n      PUSH [tag] 1432\t\t\t\n      PUSH [tag] 756\t\t\t\n      JUMP \t\t\t\n    tag 1432\t\t\t\n      JUMPDEST \t\t\t\n    tag 1431\t\t\t\n      JUMPDEST \t\t\t\n      PUSH [tag] 1433\t\t\t\n      DUP5 \t\t\t\n      DUP3 \t\t\t\n      DUP6 \t\t\t\n      PUSH [tag] 722\t\t\t\n      JUMP \t\t\t\n    tag 1433\t\t\t\n      JUMPDEST \t\t\t\n      POP \t\t\t\n      SWAP4 \t\t\t\n      SWAP3 \t\t\t\n      POP \t\t\t\n      POP \t\t\t\n      POP \t\t\t\n      JUMP \t\t\t\n    tag 813\t\t\t\n      JUMPDEST \t\t\t\n      PUSH 0\t\t\t\n      DUP3 \t\t\t\n      PUSH 1F\t\t\t\n      DUP4 \t\t\t\n      ADD \t\t\t\n      SLT \t\t\t\n      PUSH [tag] 1435\t\t\t\n      JUMPI \t\t\t\n      PUSH [tag] 1436\t\t\t\n      PUSH [tag] 688\t\t\t\n      JUMP \t\t\t\n    tag 1436\t\t\t\n      JUMPDEST \t\t\t\n    tag 1435\t\t\t\n      JUMPDEST \t\t\t\n      DUP2 \t\t\t\n      MLOAD \t\t\t\n      PUSH [tag] 1437\t\t\t\n      DUP5 \t\t\t\n      DUP3 \t\t\t\n      PUSH 20\t\t\t\n      DUP7 \t\t\t\n      ADD \t\t\t\n      PUSH [tag] 812\t\t\t\n      JUMP \t\t\t\n    tag 1437\t\t\t\n      JUMPDEST \t\t\t\n      SWAP2 \t\t\t\n      POP \t\t\t\n      POP \t\t\t\n      SWAP3 \t\t\t\n      SWAP2 \t\t\t\n      POP \t\t\t\n      POP \t\t\t\n      JUMP \t\t\t\n    tag 814\t\t\t\n      JUMPDEST \t\t\t\n      PUSH 0\t\t\t\n      DUP2 \t\t\t\n      MLOAD \t\t\t\n      SWAP1 \t\t\t\n      POP \t\t\t\n      PUSH [tag] 1439\t\t\t\n      DUP2 \t\t\t\n      PUSH [tag] 707\t\t\t\n      JUMP \t\t\t\n    tag 1439\t\t\t\n      JUMPDEST \t\t\t\n      SWAP3 \t\t\t\n      SWAP2 \t\t\t\n      POP \t\t\t\n      POP \t\t\t\n      JUMP \t\t\t\n    tag 815\t\t\t\n      JUMPDEST \t\t\t\n      PUSH 0\t\t\t\n      PUSH 40\t\t\t\n      DUP3 \t\t\t\n      DUP5 \t\t\t\n      SUB \t\t\t\n      SLT \t\t\t\n      ISZERO \t\t\t\n      PUSH [tag] 1441\t\t\t\n      JUMPI \t\t\t\n      PUSH [tag] 1442\t\t\t\n      PUSH [tag] 754\t\t\t\n      JUMP \t\t\t\n    tag 1442\t\t\t\n      JUMPDEST \t\t\t\n    tag 1441\t\t\t\n      JUMPDEST \t\t\t\n      PUSH [tag] 1443\t\t\t\n      PUSH 40\t\t\t\n      PUSH [tag] 705\t\t\t\n      JUMP \t\t\t\n    tag 1443\t\t\t\n      JUMPDEST \t\t\t\n      SWAP1 \t\t\t\n      POP \t\t\t\n      PUSH 0\t\t\t\n      DUP3 \t\t\t\n      ADD \t\t\t\n      MLOAD \t\t\t\n      PUSH FFFFFFFFFFFFFFFF\t\t\t\n      DUP2 \t\t\t\n      GT \t\t\t\n      ISZERO \t\t\t\n      PUSH [tag] 1444\t\t\t\n      JUMPI \t\t\t\n      PUSH [tag] 1445\t\t\t\n      PUSH [tag] 755\t\t\t\n      JUMP \t\t\t\n    tag 1445\t\t\t\n      JUMPDEST \t\t\t\n    tag 1444\t\t\t\n      JUMPDEST \t\t\t\n      PUSH [tag] 1446\t\t\t\n      DUP5 \t\t\t\n      DUP3 \t\t\t\n      DUP6 \t\t\t\n      ADD \t\t\t\n      PUSH [tag] 813\t\t\t\n      JUMP \t\t\t\n    tag 1446\t\t\t\n      JUMPDEST \t\t\t\n      PUSH 0\t\t\t\n      DUP4 \t\t\t\n      ADD \t\t\t\n      MSTORE \t\t\t\n      POP \t\t\t\n      PUSH 20\t\t\t\n      PUSH [tag] 1447\t\t\t\n      DUP5 \t\t\t\n      DUP3 \t\t\t\n      DUP6 \t\t\t\n      ADD \t\t\t\n      PUSH [tag] 814\t\t\t\n      JUMP \t\t\t\n    tag 1447\t\t\t\n      JUMPDEST \t\t\t\n      PUSH 20\t\t\t\n      DUP4 \t\t\t\n      ADD \t\t\t\n      MSTORE \t\t\t\n      POP \t\t\t\n      SWAP3 \t\t\t\n      SWAP2 \t\t\t\n      POP \t\t\t\n      POP \t\t\t\n      JUMP \t\t\t\n    tag 816\t\t\t\n      JUMPDEST \t\t\t\n      PUSH 0\t\t\t\n      PUSH [tag] 1449\t\t\t\n      PUSH [tag] 1450\t\t\t\n      DUP5 \t\t\t\n      PUSH [tag] 811\t\t\t\n      JUMP \t\t\t\n    tag 1450\t\t\t\n      JUMPDEST \t\t\t\n      PUSH [tag] 705\t\t\t\n      JUMP \t\t\t\n    tag 1449\t\t\t\n      JUMPDEST \t\t\t\n      SWAP1 \t\t\t\n      POP \t\t\t\n      DUP1 \t\t\t\n      DUP4 \t\t\t\n      DUP3 \t\t\t\n      MSTORE \t\t\t\n      PUSH 20\t\t\t\n      DUP3 \t\t\t\n      ADD \t\t\t\n      SWAP1 \t\t\t\n      POP \t\t\t\n      PUSH 20\t\t\t\n      DUP5 \t\t\t\n      MUL \t\t\t\n      DUP4 \t\t\t\n      ADD \t\t\t\n      DUP6 \t\t\t\n      DUP2 \t\t\t\n      GT \t\t\t\n      ISZERO \t\t\t\n      PUSH [tag] 1451\t\t\t\n      JUMPI \t\t\t\n      PUSH [tag] 1452\t\t\t\n      PUSH [tag] 690\t\t\t\n      JUMP \t\t\t\n    tag 1452\t\t\t\n      JUMPDEST \t\t\t\n    tag 1451\t\t\t\n      JUMPDEST \t\t\t\n      DUP4 \t\t\t\n    tag 1453\t\t\t\n      JUMPDEST \t\t\t\n      DUP2 \t\t\t\n      DUP2 \t\t\t\n      LT \t\t\t\n      ISZERO \t\t\t\n      PUSH [tag] 1455\t\t\t\n      JUMPI \t\t\t\n      DUP1 \t\t\t\n      MLOAD \t\t\t\n      PUSH FFFFFFFFFFFFFFFF\t\t\t\n      DUP2 \t\t\t\n      GT \t\t\t\n      ISZERO \t\t\t\n      PUSH [tag] 1456\t\t\t\n      JUMPI \t\t\t\n      PUSH [tag] 1457\t\t\t\n      PUSH [tag] 688\t\t\t\n      JUMP \t\t\t\n    tag 1457\t\t\t\n      JUMPDEST \t\t\t\n    tag 1456\t\t\t\n      JUMPDEST \t\t\t\n      DUP1 \t\t\t\n      DUP7 \t\t\t\n      ADD \t\t\t\n      PUSH [tag] 1458\t\t\t\n      DUP10 \t\t\t\n      DUP3 \t\t\t\n      PUSH [tag] 815\t\t\t\n      JUMP \t\t\t\n    tag 1458\t\t\t\n      JUMPDEST \t\t\t\n      DUP6 \t\t\t\n      MSTORE \t\t\t\n      PUSH 20\t\t\t\n      DUP6 \t\t\t\n      ADD \t\t\t\n      SWAP5 \t\t\t\n      POP \t\t\t\n      POP \t\t\t\n      POP \t\t\t\n      PUSH 20\t\t\t\n      DUP2 \t\t\t\n      ADD \t\t\t\n      SWAP1 \t\t\t\n      POP \t\t\t\n      PUSH [tag] 1453\t\t\t\n      JUMP \t\t\t\n    tag 1455\t\t\t\n      JUMPDEST \t\t\t\n      POP \t\t\t\n      POP \t\t\t\n      POP \t\t\t\n      SWAP4 \t\t\t\n      SWAP3 \t\t\t\n      POP \t\t\t\n      POP \t\t\t\n      POP \t\t\t\n      JUMP \t\t\t\n    tag 817\t\t\t\n      JUMPDEST \t\t\t\n      PUSH 0\t\t\t\n      DUP3 \t\t\t\n      PUSH 1F\t\t\t\n      DUP4 \t\t\t\n      ADD \t\t\t\n      SLT \t\t\t\n      PUSH [tag] 1460\t\t\t\n      JUMPI \t\t\t\n      PUSH [tag] 1461\t\t\t\n      PUSH [tag] 688\t\t\t\n      JUMP \t\t\t\n    tag 1461\t\t\t\n      JUMPDEST \t\t\t\n    tag 1460\t\t\t\n      JUMPDEST \t\t\t\n      DUP2 \t\t\t\n      MLOAD \t\t\t\n      PUSH [tag] 1462\t\t\t\n      DUP5 \t\t\t\n      DUP3 \t\t\t\n      PUSH 20\t\t\t\n      DUP7 \t\t\t\n      ADD \t\t\t\n      PUSH [tag] 816\t\t\t\n      JUMP \t\t\t\n    tag 1462\t\t\t\n      JUMPDEST \t\t\t\n      SWAP2 \t\t\t\n      POP \t\t\t\n      POP \t\t\t\n      SWAP3 \t\t\t\n      SWAP2 \t\t\t\n      POP \t\t\t\n      POP \t\t\t\n      JUMP \t\t\t\n    tag 552\t\t\t\n      JUMPDEST \t\t\t\n      PUSH 0\t\t\t\n      PUSH 20\t\t\t\n      DUP3 \t\t\t\n      DUP5 \t\t\t\n      SUB \t\t\t\n      SLT \t\t\t\n      ISZERO \t\t\t\n      PUSH [tag] 1464\t\t\t\n      JUMPI \t\t\t\n      PUSH [tag] 1465\t\t\t\n      PUSH [tag] 682\t\t\t\n      JUMP \t\t\t\n    tag 1465\t\t\t\n      JUMPDEST \t\t\t\n    tag 1464\t\t\t\n      JUMPDEST \t\t\t\n      PUSH 0\t\t\t\n      DUP3 \t\t\t\n      ADD \t\t\t\n      MLOAD \t\t\t\n      PUSH FFFFFFFFFFFFFFFF\t\t\t\n      DUP2 \t\t\t\n      GT \t\t\t\n      ISZERO \t\t\t\n      PUSH [tag] 1466\t\t\t\n      JUMPI \t\t\t\n      PUSH [tag] 1467\t\t\t\n      PUSH [tag] 683\t\t\t\n      JUMP \t\t\t\n    tag 1467\t\t\t\n      JUMPDEST \t\t\t\n    tag 1466\t\t\t\n      JUMPDEST \t\t\t\n      PUSH [tag] 1468\t\t\t\n      DUP5 \t\t\t\n      DUP3 \t\t\t\n      DUP6 \t\t\t\n      ADD \t\t\t\n      PUSH [tag] 817\t\t\t\n      JUMP \t\t\t\n    tag 1468\t\t\t\n      JUMPDEST \t\t\t\n      SWAP2 \t\t\t\n      POP \t\t\t\n      POP \t\t\t\n      SWAP3 \t\t\t\n      SWAP2 \t\t\t\n      POP \t\t\t\n      POP \t\t\t\n      JUMP \t\t\t\n    tag 818\t\t\t\n      JUMPDEST \t\t\t\n      DUP1 \t\t\t\n      DUP3 \t\t\t\n      MSTORE \t\t\t\n      POP \t\t\t\n      POP \t\t\t\n      JUMP \t\t\t\n    tag 819\t\t\t\n      JUMPDEST \t\t\t\n      PUSH [tag] 1471\t\t\t\n      DUP2 \t\t\t\n      PUSH [tag] 685\t\t\t\n      JUMP \t\t\t\n    tag 1471\t\t\t\n      JUMPDEST \t\t\t\n      DUP3 \t\t\t\n      MSTORE \t\t\t\n      POP \t\t\t\n      POP \t\t\t\n      JUMP \t\t\t\n    tag 820\t\t\t\n      JUMPDEST \t\t\t\n      PUSH [tag] 1473\t\t\t\n      DUP2 \t\t\t\n      PUSH [tag] 692\t\t\t\n      JUMP \t\t\t\n    tag 1473\t\t\t\n      JUMPDEST \t\t\t\n      DUP3 \t\t\t\n      MSTORE \t\t\t\n      POP \t\t\t\n      POP \t\t\t\n      JUMP \t\t\t\n    tag 821\t\t\t\n      JUMPDEST \t\t\t\n      PUSH 0\t\t\t\n      DUP2 \t\t\t\n      MLOAD \t\t\t\n      SWAP1 \t\t\t\n      POP \t\t\t\n      SWAP2 \t\t\t\n      SWAP1 \t\t\t\n      POP \t\t\t\n      JUMP \t\t\t\n    tag 822\t\t\t\n      JUMPDEST \t\t\t\n      PUSH 0\t\t\t\n      DUP3 \t\t\t\n      DUP3 \t\t\t\n      MSTORE \t\t\t\n      PUSH 20\t\t\t\n      DUP3 \t\t\t\n      ADD \t\t\t\n      SWAP1 \t\t\t\n      POP \t\t\t\n      SWAP3 \t\t\t\n      SWAP2 \t\t\t\n      POP \t\t\t\n      POP \t\t\t\n      JUMP \t\t\t\n    tag 823\t\t\t\n      JUMPDEST \t\t\t\n      PUSH 0\t\t\t\n      DUP2 \t\t\t\n      SWAP1 \t\t\t\n      POP \t\t\t\n      PUSH 20\t\t\t\n      DUP3 \t\t\t\n      ADD \t\t\t\n      SWAP1 \t\t\t\n      POP \t\t\t\n      SWAP2 \t\t\t\n      SWAP1 \t\t\t\n      POP \t\t\t\n      JUMP \t\t\t\n    tag 824\t\t\t\n      JUMPDEST \t\t\t\n      PUSH 0\t\t\t\n      DUP3 \t\t\t\n      DUP3 \t\t\t\n      MSTORE \t\t\t\n      PUSH 20\t\t\t\n      DUP3 \t\t\t\n      ADD \t\t\t\n      SWAP1 \t\t\t\n      POP \t\t\t\n      SWAP3 \t\t\t\n      SWAP2 \t\t\t\n      POP \t\t\t\n      POP \t\t\t\n      JUMP \t\t\t\n    tag 825\t\t\t\n      JUMPDEST \t\t\t\n      PUSH 0\t\t\t\n      PUSH [tag] 1479\t\t\t\n      DUP3 \t\t\t\n      PUSH [tag] 720\t\t\t\n      JUMP \t\t\t\n    tag 1479\t\t\t\n      JUMPDEST \t\t\t\n      PUSH [tag] 1480\t\t\t\n      DUP2 \t\t\t\n      DUP6 \t\t\t\n      PUSH [tag] 824\t\t\t\n      JUMP \t\t\t\n    tag 1480\t\t\t\n      JUMPDEST \t\t\t\n      SWAP4 \t\t\t\n      POP \t\t\t\n      PUSH [tag] 1481\t\t\t\n      DUP2 \t\t\t\n      DUP6 \t\t\t\n      PUSH 20\t\t\t\n      DUP7 \t\t\t\n      ADD \t\t\t\n      PUSH [tag] 722\t\t\t\n      JUMP \t\t\t\n    tag 1481\t\t\t\n      JUMPDEST \t\t\t\n      PUSH [tag] 1482\t\t\t\n      DUP2 \t\t\t\n      PUSH [tag] 703\t\t\t\n      JUMP \t\t\t\n    tag 1482\t\t\t\n      JUMPDEST \t\t\t\n      DUP5 \t\t\t\n      ADD \t\t\t\n      SWAP2 \t\t\t\n      POP \t\t\t\n      POP \t\t\t\n      SWAP3 \t\t\t\n      SWAP2 \t\t\t\n      POP \t\t\t\n      POP \t\t\t\n      JUMP \t\t\t\n    tag 826\t\t\t\n      JUMPDEST \t\t\t\n      PUSH [tag] 1484\t\t\t\n      DUP2 \t\t\t\n      PUSH [tag] 697\t\t\t\n      JUMP \t\t\t\n    tag 1484\t\t\t\n      JUMPDEST \t\t\t\n      DUP3 \t\t\t\n      MSTORE \t\t\t\n      POP \t\t\t\n      POP \t\t\t\n      JUMP \t\t\t\n    tag 827\t\t\t\n      JUMPDEST \t\t\t\n      PUSH 0\t\t\t\n      PUSH 40\t\t\t\n      DUP4 \t\t\t\n      ADD \t\t\t\n      PUSH 0\t\t\t\n      DUP4 \t\t\t\n      ADD \t\t\t\n      MLOAD \t\t\t\n      DUP5 \t\t\t\n      DUP3 \t\t\t\n      SUB \t\t\t\n      PUSH 0\t\t\t\n      DUP7 \t\t\t\n      ADD \t\t\t\n      MSTORE \t\t\t\n      PUSH [tag] 1486\t\t\t\n      DUP3 \t\t\t\n      DUP3 \t\t\t\n      PUSH [tag] 825\t\t\t\n      JUMP \t\t\t\n    tag 1486\t\t\t\n      JUMPDEST \t\t\t\n      SWAP2 \t\t\t\n      POP \t\t\t\n      POP \t\t\t\n      PUSH 20\t\t\t\n      DUP4 \t\t\t\n      ADD \t\t\t\n      MLOAD \t\t\t\n      PUSH [tag] 1487\t\t\t\n      PUSH 20\t\t\t\n      DUP7 \t\t\t\n      ADD \t\t\t\n      DUP3 \t\t\t\n      PUSH [tag] 826\t\t\t\n      JUMP \t\t\t\n    tag 1487\t\t\t\n      JUMPDEST \t\t\t\n      POP \t\t\t\n      DUP1 \t\t\t\n      SWAP2 \t\t\t\n      POP \t\t\t\n      POP \t\t\t\n      SWAP3 \t\t\t\n      SWAP2 \t\t\t\n      POP \t\t\t\n      POP \t\t\t\n      JUMP \t\t\t\n    tag 828\t\t\t\n      JUMPDEST \t\t\t\n      PUSH 0\t\t\t\n      PUSH [tag] 1489\t\t\t\n      DUP4 \t\t\t\n      DUP4 \t\t\t\n      PUSH [tag] 827\t\t\t\n      JUMP \t\t\t\n    tag 1489\t\t\t\n      JUMPDEST \t\t\t\n      SWAP1 \t\t\t\n      POP \t\t\t\n      SWAP3 \t\t\t\n      SWAP2 \t\t\t\n      POP \t\t\t\n      POP \t\t\t\n      JUMP \t\t\t\n    tag 829\t\t\t\n      JUMPDEST \t\t\t\n      PUSH 0\t\t\t\n      PUSH 20\t\t\t\n      DUP3 \t\t\t\n      ADD \t\t\t\n      SWAP1 \t\t\t\n      POP \t\t\t\n      SWAP2 \t\t\t\n      SWAP1 \t\t\t\n      POP \t\t\t\n      JUMP \t\t\t\n    tag 830\t\t\t\n      JUMPDEST \t\t\t\n      PUSH 0\t\t\t\n      PUSH [tag] 1492\t\t\t\n      DUP3 \t\t\t\n      PUSH [tag] 821\t\t\t\n      JUMP \t\t\t\n    tag 1492\t\t\t\n      JUMPDEST \t\t\t\n      PUSH [tag] 1493\t\t\t\n      DUP2 \t\t\t\n      DUP6 \t\t\t\n      PUSH [tag] 822\t\t\t\n      JUMP \t\t\t\n    tag 1493\t\t\t\n      JUMPDEST \t\t\t\n      SWAP4 \t\t\t\n      POP \t\t\t\n      DUP4 \t\t\t\n      PUSH 20\t\t\t\n      DUP3 \t\t\t\n      MUL \t\t\t\n      DUP6 \t\t\t\n      ADD \t\t\t\n      PUSH [tag] 1494\t\t\t\n      DUP6 \t\t\t\n      PUSH [tag] 823\t\t\t\n      JUMP \t\t\t\n    tag 1494\t\t\t\n      JUMPDEST \t\t\t\n      DUP1 \t\t\t\n      PUSH 0\t\t\t\n    tag 1495\t\t\t\n      JUMPDEST \t\t\t\n      DUP6 \t\t\t\n      DUP2 \t\t\t\n      LT \t\t\t\n      ISZERO \t\t\t\n      PUSH [tag] 1497\t\t\t\n      JUMPI \t\t\t\n      DUP5 \t\t\t\n      DUP5 \t\t\t\n      SUB \t\t\t\n      DUP10 \t\t\t\n      MSTORE \t\t\t\n      DUP2 \t\t\t\n      MLOAD \t\t\t\n      PUSH [tag] 1498\t\t\t\n      DUP6 \t\t\t\n      DUP3 \t\t\t\n      PUSH [tag] 828\t\t\t\n      JUMP \t\t\t\n    tag 1498\t\t\t\n      JUMPDEST \t\t\t\n      SWAP5 \t\t\t\n      POP \t\t\t\n      PUSH [tag] 1499\t\t\t\n      DUP4 \t\t\t\n      PUSH [tag] 829\t\t\t\n      JUMP \t\t\t\n    tag 1499\t\t\t\n      JUMPDEST \t\t\t\n      SWAP3 \t\t\t\n      POP \t\t\t\n      PUSH 20\t\t\t\n      DUP11 \t\t\t\n      ADD \t\t\t\n      SWAP10 \t\t\t\n      POP \t\t\t\n      POP \t\t\t\n      PUSH 1\t\t\t\n      DUP2 \t\t\t\n      ADD \t\t\t\n      SWAP1 \t\t\t\n      POP \t\t\t\n      PUSH [tag] 1495\t\t\t\n      JUMP \t\t\t\n    tag 1497\t\t\t\n      JUMPDEST \t\t\t\n      POP \t\t\t\n      DUP3 \t\t\t\n      SWAP8 \t\t\t\n      POP \t\t\t\n      DUP8 \t\t\t\n      SWAP6 \t\t\t\n      POP \t\t\t\n      POP \t\t\t\n      POP \t\t\t\n      POP \t\t\t\n      POP \t\t\t\n      POP \t\t\t\n      SWAP3 \t\t\t\n      SWAP2 \t\t\t\n      POP \t\t\t\n      POP \t\t\t\n      JUMP \t\t\t\n    tag 554\t\t\t\n      JUMPDEST \t\t\t\n      PUSH 0\t\t\t\n      PUSH 80\t\t\t\n      DUP3 \t\t\t\n      ADD \t\t\t\n      SWAP1 \t\t\t\n      POP \t\t\t\n      PUSH [tag] 1501\t\t\t\n      PUSH 0\t\t\t\n      DUP4 \t\t\t\n      ADD \t\t\t\n      DUP8 \t\t\t\n      PUSH [tag] 818\t\t\t\n      JUMP \t\t\t\n    tag 1501\t\t\t\n      JUMPDEST \t\t\t\n      PUSH [tag] 1502\t\t\t\n      PUSH 20\t\t\t\n      DUP4 \t\t\t\n      ADD \t\t\t\n      DUP7 \t\t\t\n      PUSH [tag] 819\t\t\t\n      JUMP \t\t\t\n    tag 1502\t\t\t\n      JUMPDEST \t\t\t\n      PUSH [tag] 1503\t\t\t\n      PUSH 40\t\t\t\n      DUP4 \t\t\t\n      ADD \t\t\t\n      DUP6 \t\t\t\n      PUSH [tag] 820\t\t\t\n      JUMP \t\t\t\n    tag 1503\t\t\t\n      JUMPDEST \t\t\t\n      DUP2 \t\t\t\n      DUP2 \t\t\t\n      SUB \t\t\t\n      PUSH 60\t\t\t\n      DUP4 \t\t\t\n      ADD \t\t\t\n      MSTORE \t\t\t\n      PUSH [tag] 1504\t\t\t\n      DUP2 \t\t\t\n      DUP5 \t\t\t\n      PUSH [tag] 830\t\t\t\n      JUMP \t\t\t\n    tag 1504\t\t\t\n      JUMPDEST \t\t\t\n      SWAP1 \t\t\t\n      POP \t\t\t\n      SWAP6 \t\t\t\n      SWAP5 \t\t\t\n      POP \t\t\t\n      POP \t\t\t\n      POP \t\t\t\n      POP \t\t\t\n      POP \t\t\t\n      JUMP \t\t\t\n    tag 831\t\t\t\n      JUMPDEST \t\t\t\n      PUSH 4D65746164617461206E6F7420737570706F7274656420796574000000000000\t\t\t\n      PUSH 0\t\t\t\n      DUP3 \t\t\t\n      ADD \t\t\t\n      MSTORE \t\t\t\n      POP \t\t\t\n      JUMP \t\t\t\n    tag 832\t\t\t\n      JUMPDEST \t\t\t\n      PUSH 0\t\t\t\n      PUSH [tag] 1507\t\t\t\n      PUSH 1A\t\t\t\n      DUP4 \t\t\t\n      PUSH [tag] 729\t\t\t\n      JUMP \t\t\t\n    tag 1507\t\t\t\n      JUMPDEST \t\t\t\n      SWAP2 \t\t\t\n      POP \t\t\t\n      PUSH [tag] 1508\t\t\t\n      DUP3 \t\t\t\n      PUSH [tag] 831\t\t\t\n      JUMP \t\t\t\n    tag 1508\t\t\t\n      JUMPDEST \t\t\t\n      PUSH 20\t\t\t\n      DUP3 \t\t\t\n      ADD \t\t\t\n      SWAP1 \t\t\t\n      POP \t\t\t\n      SWAP2 \t\t\t\n      SWAP1 \t\t\t\n      POP \t\t\t\n      JUMP \t\t\t\n    tag 560\t\t\t\n      JUMPDEST \t\t\t\n      PUSH 0\t\t\t\n      PUSH 20\t\t\t\n      DUP3 \t\t\t\n      ADD \t\t\t\n      SWAP1 \t\t\t\n      POP \t\t\t\n      DUP2 \t\t\t\n      DUP2 \t\t\t\n      SUB \t\t\t\n      PUSH 0\t\t\t\n      DUP4 \t\t\t\n      ADD \t\t\t\n      MSTORE \t\t\t\n      PUSH [tag] 1510\t\t\t\n      DUP2 \t\t\t\n      PUSH [tag] 832\t\t\t\n      JUMP \t\t\t\n    tag 1510\t\t\t\n      JUMPDEST \t\t\t\n      SWAP1 \t\t\t\n      POP \t\t\t\n      SWAP2 \t\t\t\n      SWAP1 \t\t\t\n      POP \t\t\t\n      JUMP \t\t\t\n    tag 833\t\t\t\n      JUMPDEST \t\t\t\n      PUSH 526571756573742069732064697361626C656400000000000000000000000000\t\t\t\n      PUSH 0\t\t\t\n      DUP3 \t\t\t\n      ADD \t\t\t\n      MSTORE \t\t\t\n      POP \t\t\t\n      JUMP \t\t\t\n    tag 834\t\t\t\n      JUMPDEST \t\t\t\n      PUSH 0\t\t\t\n      PUSH [tag] 1513\t\t\t\n      PUSH 13\t\t\t\n      DUP4 \t\t\t\n      PUSH [tag] 729\t\t\t\n      JUMP \t\t\t\n    tag 1513\t\t\t\n      JUMPDEST \t\t\t\n      SWAP2 \t\t\t\n      POP \t\t\t\n      PUSH [tag] 1514\t\t\t\n      DUP3 \t\t\t\n      PUSH [tag] 833\t\t\t\n      JUMP \t\t\t\n    tag 1514\t\t\t\n      JUMPDEST \t\t\t\n      PUSH 20\t\t\t\n      DUP3 \t\t\t\n      ADD \t\t\t\n      SWAP1 \t\t\t\n      POP \t\t\t\n      SWAP2 \t\t\t\n      SWAP1 \t\t\t\n      POP \t\t\t\n      JUMP \t\t\t\n    tag 598\t\t\t\n      JUMPDEST \t\t\t\n      PUSH 0\t\t\t\n      PUSH 20\t\t\t\n      DUP3 \t\t\t\n      ADD \t\t\t\n      SWAP1 \t\t\t\n      POP \t\t\t\n      DUP2 \t\t\t\n      DUP2 \t\t\t\n      SUB \t\t\t\n      PUSH 0\t\t\t\n      DUP4 \t\t\t\n      ADD \t\t\t\n      MSTORE \t\t\t\n      PUSH [tag] 1516\t\t\t\n      DUP2 \t\t\t\n      PUSH [tag] 834\t\t\t\n      JUMP \t\t\t\n    tag 1516\t\t\t\n      JUMPDEST \t\t\t\n      SWAP1 \t\t\t\n      POP \t\t\t\n      SWAP2 \t\t\t\n      SWAP1 \t\t\t\n      POP \t\t\t\n      JUMP \t\t\t\n    tag 835\t\t\t\n      JUMPDEST \t\t\t\n      PUSH 0\t\t\t\n      DUP2 \t\t\t\n      MLOAD \t\t\t\n      SWAP1 \t\t\t\n      POP \t\t\t\n      SWAP2 \t\t\t\n      SWAP1 \t\t\t\n      POP \t\t\t\n      JUMP \t\t\t\n    tag 836\t\t\t\n      JUMPDEST \t\t\t\n      PUSH 0\t\t\t\n      DUP3 \t\t\t\n      DUP3 \t\t\t\n      MSTORE \t\t\t\n      PUSH 20\t\t\t\n      DUP3 \t\t\t\n      ADD \t\t\t\n      SWAP1 \t\t\t\n      POP \t\t\t\n      SWAP3 \t\t\t\n      SWAP2 \t\t\t\n      POP \t\t\t\n      POP \t\t\t\n      JUMP \t\t\t\n    tag 837\t\t\t\n      JUMPDEST \t\t\t\n      PUSH 0\t\t\t\n      DUP2 \t\t\t\n      SWAP1 \t\t\t\n      POP \t\t\t\n      PUSH 20\t\t\t\n      DUP3 \t\t\t\n      ADD \t\t\t\n      SWAP1 \t\t\t\n      POP \t\t\t\n      SWAP2 \t\t\t\n      SWAP1 \t\t\t\n      POP \t\t\t\n      JUMP \t\t\t\n    tag 838\t\t\t\n      JUMPDEST \t\t\t\n      PUSH 0\t\t\t\n      PUSH [tag] 1521\t\t\t\n      DUP4 \t\t\t\n      DUP4 \t\t\t\n      PUSH [tag] 724\t\t\t\n      JUMP \t\t\t\n    tag 1521\t\t\t\n      JUMPDEST \t\t\t\n      PUSH 20\t\t\t\n      DUP4 \t\t\t\n      ADD \t\t\t\n      SWAP1 \t\t\t\n      POP \t\t\t\n      SWAP3 \t\t\t\n      SWAP2 \t\t\t\n      POP \t\t\t\n      POP \t\t\t\n      JUMP \t\t\t\n    tag 839\t\t\t\n      JUMPDEST \t\t\t\n      PUSH 0\t\t\t\n      PUSH 20\t\t\t\n      DUP3 \t\t\t\n      ADD \t\t\t\n      SWAP1 \t\t\t\n      POP \t\t\t\n      SWAP2 \t\t\t\n      SWAP1 \t\t\t\n      POP \t\t\t\n      JUMP \t\t\t\n    tag 840\t\t\t\n      JUMPDEST \t\t\t\n      PUSH 0\t\t\t\n      PUSH [tag] 1524\t\t\t\n      DUP3 \t\t\t\n      PUSH [tag] 835\t\t\t\n      JUMP \t\t\t\n    tag 1524\t\t\t\n      JUMPDEST \t\t\t\n      PUSH [tag] 1525\t\t\t\n      DUP2 \t\t\t\n      DUP6 \t\t\t\n      PUSH [tag] 836\t\t\t\n      JUMP \t\t\t\n    tag 1525\t\t\t\n      JUMPDEST \t\t\t\n      SWAP4 \t\t\t\n      POP \t\t\t\n      PUSH [tag] 1526\t\t\t\n      DUP4 \t\t\t\n      PUSH [tag] 837\t\t\t\n      JUMP \t\t\t\n    tag 1526\t\t\t\n      JUMPDEST \t\t\t\n      DUP1 \t\t\t\n      PUSH 0\t\t\t\n    tag 1527\t\t\t\n      JUMPDEST \t\t\t\n      DUP4 \t\t\t\n      DUP2 \t\t\t\n      LT \t\t\t\n      ISZERO \t\t\t\n      PUSH [tag] 1529\t\t\t\n      JUMPI \t\t\t\n      DUP2 \t\t\t\n      MLOAD \t\t\t\n      PUSH [tag] 1530\t\t\t\n      DUP9 \t\t\t\n      DUP3 \t\t\t\n      PUSH [tag] 838\t\t\t\n      JUMP \t\t\t\n    tag 1530\t\t\t\n      JUMPDEST \t\t\t\n      SWAP8 \t\t\t\n      POP \t\t\t\n      PUSH [tag] 1531\t\t\t\n      DUP4 \t\t\t\n      PUSH [tag] 839\t\t\t\n      JUMP \t\t\t\n    tag 1531\t\t\t\n      JUMPDEST \t\t\t\n      SWAP3 \t\t\t\n      POP \t\t\t\n      POP \t\t\t\n      PUSH 1\t\t\t\n      DUP2 \t\t\t\n      ADD \t\t\t\n      SWAP1 \t\t\t\n      POP \t\t\t\n      PUSH [tag] 1527\t\t\t\n      JUMP \t\t\t\n    tag 1529\t\t\t\n      JUMPDEST \t\t\t\n      POP \t\t\t\n      DUP6 \t\t\t\n      SWAP4 \t\t\t\n      POP \t\t\t\n      POP \t\t\t\n      POP \t\t\t\n      POP \t\t\t\n      SWAP3 \t\t\t\n      SWAP2 \t\t\t\n      POP \t\t\t\n      POP \t\t\t\n      JUMP \t\t\t\n    tag 841\t\t\t\n      JUMPDEST \t\t\t\n      PUSH 0\t\t\t\n      PUSH 2\t\t\t\n      SWAP1 \t\t\t\n      POP \t\t\t\n      SWAP2 \t\t\t\n      SWAP1 \t\t\t\n      POP \t\t\t\n      JUMP \t\t\t\n    tag 842\t\t\t\n      JUMPDEST \t\t\t\n      PUSH 0\t\t\t\n      DUP2 \t\t\t\n      SWAP1 \t\t\t\n      POP \t\t\t\n      SWAP3 \t\t\t\n      SWAP2 \t\t\t\n      POP \t\t\t\n      POP \t\t\t\n      JUMP \t\t\t\n    tag 843\t\t\t\n      JUMPDEST \t\t\t\n      PUSH 0\t\t\t\n      DUP2 \t\t\t\n      SWAP1 \t\t\t\n      POP \t\t\t\n      SWAP2 \t\t\t\n      SWAP1 \t\t\t\n      POP \t\t\t\n      JUMP \t\t\t\n    tag 844\t\t\t\n      JUMPDEST \t\t\t\n      PUSH 0\t\t\t\n      PUSH 20\t\t\t\n      DUP3 \t\t\t\n      ADD \t\t\t\n      SWAP1 \t\t\t\n      POP \t\t\t\n      SWAP2 \t\t\t\n      SWAP1 \t\t\t\n      POP \t\t\t\n      JUMP \t\t\t\n    tag 845\t\t\t\n      JUMPDEST \t\t\t\n      PUSH [tag] 1537\t\t\t\n      DUP2 \t\t\t\n      PUSH [tag] 841\t\t\t\n      JUMP \t\t\t\n    tag 1537\t\t\t\n      JUMPDEST \t\t\t\n      PUSH [tag] 1538\t\t\t\n      DUP2 \t\t\t\n      DUP5 \t\t\t\n      PUSH [tag] 842\t\t\t\n      JUMP \t\t\t\n    tag 1538\t\t\t\n      JUMPDEST \t\t\t\n      SWAP3 \t\t\t\n      POP \t\t\t\n      PUSH [tag] 1539\t\t\t\n      DUP3 \t\t\t\n      PUSH [tag] 843\t\t\t\n      JUMP \t\t\t\n    tag 1539\t\t\t\n      JUMPDEST \t\t\t\n      DUP1 \t\t\t\n      PUSH 0\t\t\t\n    tag 1540\t\t\t\n      JUMPDEST \t\t\t\n      DUP4 \t\t\t\n      DUP2 \t\t\t\n      LT \t\t\t\n      ISZERO \t\t\t\n      PUSH [tag] 1542\t\t\t\n      JUMPI \t\t\t\n      DUP2 \t\t\t\n      MLOAD \t\t\t\n      PUSH [tag] 1543\t\t\t\n      DUP8 \t\t\t\n      DUP3 \t\t\t\n      PUSH [tag] 838\t\t\t\n      JUMP \t\t\t\n    tag 1543\t\t\t\n      JUMPDEST \t\t\t\n      SWAP7 \t\t\t\n      POP \t\t\t\n      PUSH [tag] 1544\t\t\t\n      DUP4 \t\t\t\n      PUSH [tag] 844\t\t\t\n      JUMP \t\t\t\n    tag 1544\t\t\t\n      JUMPDEST \t\t\t\n      SWAP3 \t\t\t\n      POP \t\t\t\n      POP \t\t\t\n      PUSH 1\t\t\t\n      DUP2 \t\t\t\n      ADD \t\t\t\n      SWAP1 \t\t\t\n      POP \t\t\t\n      PUSH [tag] 1540\t\t\t\n      JUMP \t\t\t\n    tag 1542\t\t\t\n      JUMPDEST \t\t\t\n      POP \t\t\t\n      POP \t\t\t\n      POP \t\t\t\n      POP \t\t\t\n      POP \t\t\t\n      POP \t\t\t\n      JUMP \t\t\t\n    tag 846\t\t\t\n      JUMPDEST \t\t\t\n      PUSH 0\t\t\t\n      PUSH 2\t\t\t\n      SWAP1 \t\t\t\n      POP \t\t\t\n      SWAP2 \t\t\t\n      SWAP1 \t\t\t\n      POP \t\t\t\n      JUMP \t\t\t\n    tag 847\t\t\t\n      JUMPDEST \t\t\t\n      PUSH 0\t\t\t\n      DUP2 \t\t\t\n      SWAP1 \t\t\t\n      POP \t\t\t\n      SWAP3 \t\t\t\n      SWAP2 \t\t\t\n      POP \t\t\t\n      POP \t\t\t\n      JUMP \t\t\t\n    tag 848\t\t\t\n      JUMPDEST \t\t\t\n      PUSH 0\t\t\t\n      DUP2 \t\t\t\n      SWAP1 \t\t\t\n      POP \t\t\t\n      SWAP2 \t\t\t\n      SWAP1 \t\t\t\n      POP \t\t\t\n      JUMP \t\t\t\n    tag 849\t\t\t\n      JUMPDEST \t\t\t\n      PUSH 0\t\t\t\n      DUP2 \t\t\t\n      SWAP1 \t\t\t\n      POP \t\t\t\n      SWAP3 \t\t\t\n      SWAP2 \t\t\t\n      POP \t\t\t\n      POP \t\t\t\n      JUMP \t\t\t\n    tag 850\t\t\t\n      JUMPDEST \t\t\t\n      PUSH [tag] 1550\t\t\t\n      DUP2 \t\t\t\n      PUSH [tag] 841\t\t\t\n      JUMP \t\t\t\n    tag 1550\t\t\t\n      JUMPDEST \t\t\t\n      PUSH [tag] 1551\t\t\t\n      DUP2 \t\t\t\n      DUP5 \t\t\t\n      PUSH [tag] 849\t\t\t\n      JUMP \t\t\t\n    tag 1551\t\t\t\n      JUMPDEST \t\t\t\n      SWAP3 \t\t\t\n      POP \t\t\t\n      PUSH [tag] 1552\t\t\t\n      DUP3 \t\t\t\n      PUSH [tag] 843\t\t\t\n      JUMP \t\t\t\n    tag 1552\t\t\t\n      JUMPDEST \t\t\t\n      DUP1 \t\t\t\n      PUSH 0\t\t\t\n    tag 1553\t\t\t\n      JUMPDEST \t\t\t\n      DUP4 \t\t\t\n      DUP2 \t\t\t\n      LT \t\t\t\n      ISZERO \t\t\t\n      PUSH [tag] 1555\t\t\t\n      JUMPI \t\t\t\n      DUP2 \t\t\t\n      MLOAD \t\t\t\n      PUSH [tag] 1556\t\t\t\n      DUP8 \t\t\t\n      DUP3 \t\t\t\n      PUSH [tag] 838\t\t\t\n      JUMP \t\t\t\n    tag 1556\t\t\t\n      JUMPDEST \t\t\t\n      SWAP7 \t\t\t\n      POP \t\t\t\n      PUSH [tag] 1557\t\t\t\n      DUP4 \t\t\t\n      PUSH [tag] 844\t\t\t\n      JUMP \t\t\t\n    tag 1557\t\t\t\n      JUMPDEST \t\t\t\n      SWAP3 \t\t\t\n      POP \t\t\t\n      POP \t\t\t\n      PUSH 1\t\t\t\n      DUP2 \t\t\t\n      ADD \t\t\t\n      SWAP1 \t\t\t\n      POP \t\t\t\n      PUSH [tag] 1553\t\t\t\n      JUMP \t\t\t\n    tag 1555\t\t\t\n      JUMPDEST \t\t\t\n      POP \t\t\t\n      POP \t\t\t\n      POP \t\t\t\n      POP \t\t\t\n      POP \t\t\t\n      POP \t\t\t\n      JUMP \t\t\t\n    tag 851\t\t\t\n      JUMPDEST \t\t\t\n      PUSH 0\t\t\t\n      PUSH [tag] 1559\t\t\t\n      DUP4 \t\t\t\n      DUP4 \t\t\t\n      PUSH [tag] 850\t\t\t\n      JUMP \t\t\t\n    tag 1559\t\t\t\n      JUMPDEST \t\t\t\n      PUSH 40\t\t\t\n      DUP4 \t\t\t\n      ADD \t\t\t\n      SWAP1 \t\t\t\n      POP \t\t\t\n      SWAP3 \t\t\t\n      SWAP2 \t\t\t\n      POP \t\t\t\n      POP \t\t\t\n      JUMP \t\t\t\n    tag 852\t\t\t\n      JUMPDEST \t\t\t\n      PUSH 0\t\t\t\n      PUSH 20\t\t\t\n      DUP3 \t\t\t\n      ADD \t\t\t\n      SWAP1 \t\t\t\n      POP \t\t\t\n      SWAP2 \t\t\t\n      SWAP1 \t\t\t\n      POP \t\t\t\n      JUMP \t\t\t\n    tag 853\t\t\t\n      JUMPDEST \t\t\t\n      PUSH [tag] 1562\t\t\t\n      DUP2 \t\t\t\n      PUSH [tag] 846\t\t\t\n      JUMP \t\t\t\n    tag 1562\t\t\t\n      JUMPDEST \t\t\t\n      PUSH [tag] 1563\t\t\t\n      DUP2 \t\t\t\n      DUP5 \t\t\t\n      PUSH [tag] 847\t\t\t\n      JUMP \t\t\t\n    tag 1563\t\t\t\n      JUMPDEST \t\t\t\n      SWAP3 \t\t\t\n      POP \t\t\t\n      PUSH [tag] 1564\t\t\t\n      DUP3 \t\t\t\n      PUSH [tag] 848\t\t\t\n      JUMP \t\t\t\n    tag 1564\t\t\t\n      JUMPDEST \t\t\t\n      DUP1 \t\t\t\n      PUSH 0\t\t\t\n    tag 1565\t\t\t\n      JUMPDEST \t\t\t\n      DUP4 \t\t\t\n      DUP2 \t\t\t\n      LT \t\t\t\n      ISZERO \t\t\t\n      PUSH [tag] 1567\t\t\t\n      JUMPI \t\t\t\n      DUP2 \t\t\t\n      MLOAD \t\t\t\n      PUSH [tag] 1568\t\t\t\n      DUP8 \t\t\t\n      DUP3 \t\t\t\n      PUSH [tag] 851\t\t\t\n      JUMP \t\t\t\n    tag 1568\t\t\t\n      JUMPDEST \t\t\t\n      SWAP7 \t\t\t\n      POP \t\t\t\n      PUSH [tag] 1569\t\t\t\n      DUP4 \t\t\t\n      PUSH [tag] 852\t\t\t\n      JUMP \t\t\t\n    tag 1569\t\t\t\n      JUMPDEST \t\t\t\n      SWAP3 \t\t\t\n      POP \t\t\t\n      POP \t\t\t\n      PUSH 1\t\t\t\n      DUP2 \t\t\t\n      ADD \t\t\t\n      SWAP1 \t\t\t\n      POP \t\t\t\n      PUSH [tag] 1565\t\t\t\n      JUMP \t\t\t\n    tag 1567\t\t\t\n      JUMPDEST \t\t\t\n      POP \t\t\t\n      POP \t\t\t\n      POP \t\t\t\n      POP \t\t\t\n      POP \t\t\t\n      POP \t\t\t\n      JUMP \t\t\t\n    tag 854\t\t\t\n      JUMPDEST \t\t\t\n      PUSH 0\t\t\t\n      DUP2 \t\t\t\n      SWAP1 \t\t\t\n      POP \t\t\t\n      DUP2 \t\t\t\n      PUSH 0\t\t\t\n      MSTORE \t\t\t\n      PUSH 20\t\t\t\n      PUSH 0\t\t\t\n      KECCAK256 \t\t\t\n      SWAP1 \t\t\t\n      POP \t\t\t\n      SWAP2 \t\t\t\n      SWAP1 \t\t\t\n      POP \t\t\t\n      JUMP \t\t\t\n    tag 855\t\t\t\n      JUMPDEST \t\t\t\n      PUSH 0\t\t\t\n      DUP2 \t\t\t\n      SLOAD \t\t\t\n      PUSH [tag] 1572\t\t\t\n      DUP2 \t\t\t\n      PUSH [tag] 283\t\t\t\n      JUMP \t\t\t\n    tag 1572\t\t\t\n      JUMPDEST \t\t\t\n      PUSH [tag] 1573\t\t\t\n      DUP2 \t\t\t\n      DUP7 \t\t\t\n      PUSH [tag] 790\t\t\t\n      JUMP \t\t\t\n    tag 1573\t\t\t\n      JUMPDEST \t\t\t\n      SWAP5 \t\t\t\n      POP \t\t\t\n      PUSH 1\t\t\t\n      DUP3 \t\t\t\n      AND \t\t\t\n      PUSH 0\t\t\t\n      DUP2 \t\t\t\n      EQ \t\t\t\n      PUSH [tag] 1575\t\t\t\n      JUMPI \t\t\t\n      PUSH 1\t\t\t\n      DUP2 \t\t\t\n      EQ \t\t\t\n      PUSH [tag] 1576\t\t\t\n      JUMPI \t\t\t\n      PUSH [tag] 1574\t\t\t\n      JUMP \t\t\t\n    tag 1575\t\t\t\n      JUMPDEST \t\t\t\n      PUSH FF\t\t\t\n      NOT \t\t\t\n      DUP4 \t\t\t\n      AND \t\t\t\n      DUP7 \t\t\t\n      MSTORE \t\t\t\n      DUP2 \t\t\t\n      ISZERO \t\t\t\n      ISZERO \t\t\t\n      PUSH 20\t\t\t\n      MUL \t\t\t\n      DUP7 \t\t\t\n      ADD \t\t\t\n      SWAP4 \t\t\t\n      POP \t\t\t\n      PUSH [tag] 1574\t\t\t\n      JUMP \t\t\t\n    tag 1576\t\t\t\n      JUMPDEST \t\t\t\n      PUSH [tag] 1577\t\t\t\n      DUP6 \t\t\t\n      PUSH [tag] 854\t\t\t\n      JUMP \t\t\t\n    tag 1577\t\t\t\n      JUMPDEST \t\t\t\n      PUSH 0\t\t\t\n    tag 1578\t\t\t\n      JUMPDEST \t\t\t\n      DUP4 \t\t\t\n      DUP2 \t\t\t\n      LT \t\t\t\n      ISZERO \t\t\t\n      PUSH [tag] 1580\t\t\t\n      JUMPI \t\t\t\n      DUP2 \t\t\t\n      SLOAD \t\t\t\n      DUP2 \t\t\t\n      DUP10 \t\t\t\n      ADD \t\t\t\n      MSTORE \t\t\t\n      PUSH 1\t\t\t\n      DUP3 \t\t\t\n      ADD \t\t\t\n      SWAP2 \t\t\t\n      POP \t\t\t\n      PUSH 20\t\t\t\n      DUP2 \t\t\t\n      ADD \t\t\t\n      SWAP1 \t\t\t\n      POP \t\t\t\n      PUSH [tag] 1578\t\t\t\n      JUMP \t\t\t\n    tag 1580\t\t\t\n      JUMPDEST \t\t\t\n      DUP1 \t\t\t\n      DUP9 \t\t\t\n      ADD \t\t\t\n      SWAP6 \t\t\t\n      POP \t\t\t\n      POP \t\t\t\n      POP \t\t\t\n    tag 1574\t\t\t\n      JUMPDEST \t\t\t\n      POP \t\t\t\n      POP \t\t\t\n      POP \t\t\t\n      SWAP3 \t\t\t\n      SWAP2 \t\t\t\n      POP \t\t\t\n      POP \t\t\t\n      JUMP \t\t\t\n    tag 630\t\t\t\n      JUMPDEST \t\t\t\n      PUSH 0\t\t\t\n      PUSH 160\t\t\t\n      DUP3 \t\t\t\n      ADD \t\t\t\n      SWAP1 \t\t\t\n      POP \t\t\t\n      DUP2 \t\t\t\n      DUP2 \t\t\t\n      SUB \t\t\t\n      PUSH 0\t\t\t\n      DUP4 \t\t\t\n      ADD \t\t\t\n      MSTORE \t\t\t\n      PUSH [tag] 1582\t\t\t\n      DUP2 \t\t\t\n      DUP10 \t\t\t\n      PUSH [tag] 840\t\t\t\n      JUMP \t\t\t\n    tag 1582\t\t\t\n      JUMPDEST \t\t\t\n      SWAP1 \t\t\t\n      POP \t\t\t\n      PUSH [tag] 1583\t\t\t\n      PUSH 20\t\t\t\n      DUP4 \t\t\t\n      ADD \t\t\t\n      DUP9 \t\t\t\n      PUSH [tag] 845\t\t\t\n      JUMP \t\t\t\n    tag 1583\t\t\t\n      JUMPDEST \t\t\t\n      PUSH [tag] 1584\t\t\t\n      PUSH 60\t\t\t\n      DUP4 \t\t\t\n      ADD \t\t\t\n      DUP8 \t\t\t\n      PUSH [tag] 853\t\t\t\n      JUMP \t\t\t\n    tag 1584\t\t\t\n      JUMPDEST \t\t\t\n      PUSH [tag] 1585\t\t\t\n      PUSH E0\t\t\t\n      DUP4 \t\t\t\n      ADD \t\t\t\n      DUP7 \t\t\t\n      PUSH [tag] 845\t\t\t\n      JUMP \t\t\t\n    tag 1585\t\t\t\n      JUMPDEST \t\t\t\n      DUP2 \t\t\t\n      DUP2 \t\t\t\n      SUB \t\t\t\n      PUSH 120\t\t\t\n      DUP4 \t\t\t\n      ADD \t\t\t\n      MSTORE \t\t\t\n      PUSH [tag] 1586\t\t\t\n      DUP2 \t\t\t\n      DUP6 \t\t\t\n      PUSH [tag] 855\t\t\t\n      JUMP \t\t\t\n    tag 1586\t\t\t\n      JUMPDEST \t\t\t\n      SWAP1 \t\t\t\n      POP \t\t\t\n      PUSH [tag] 1587\t\t\t\n      PUSH 140\t\t\t\n      DUP4 \t\t\t\n      ADD \t\t\t\n      DUP5 \t\t\t\n      PUSH [tag] 699\t\t\t\n      JUMP \t\t\t\n    tag 1587\t\t\t\n      JUMPDEST \t\t\t\n      SWAP8 \t\t\t\n      SWAP7 \t\t\t\n      POP \t\t\t\n      POP \t\t\t\n      POP \t\t\t\n      POP \t\t\t\n      POP \t\t\t\n      POP \t\t\t\n      POP \t\t\t\n      JUMP \t\t\t\n    tag 856\t\t\t\n      JUMPDEST \t\t\t\n      PUSH 0\t\t\t\n      PUSH FFFFFFFFFFFFFFFF\t\t\t\n      DUP3 \t\t\t\n      GT \t\t\t\n      ISZERO \t\t\t\n      PUSH [tag] 1589\t\t\t\n      JUMPI \t\t\t\n      PUSH [tag] 1590\t\t\t\n      PUSH [tag] 271\t\t\t\n      JUMP \t\t\t\n    tag 1590\t\t\t\n      JUMPDEST \t\t\t\n    tag 1589\t\t\t\n      JUMPDEST \t\t\t\n      PUSH 20\t\t\t\n      DUP3 \t\t\t\n      MUL \t\t\t\n      SWAP1 \t\t\t\n      POP \t\t\t\n      PUSH 20\t\t\t\n      DUP2 \t\t\t\n      ADD \t\t\t\n      SWAP1 \t\t\t\n      POP \t\t\t\n      SWAP2 \t\t\t\n      SWAP1 \t\t\t\n      POP \t\t\t\n      JUMP \t\t\t\n    tag 857\t\t\t\n      JUMPDEST \t\t\t\n      PUSH 0\t\t\t\n      PUSH 40\t\t\t\n      DUP3 \t\t\t\n      DUP5 \t\t\t\n      SUB \t\t\t\n      SLT \t\t\t\n      ISZERO \t\t\t\n      PUSH [tag] 1592\t\t\t\n      JUMPI \t\t\t\n      PUSH [tag] 1593\t\t\t\n      PUSH [tag] 754\t\t\t\n      JUMP \t\t\t\n    tag 1593\t\t\t\n      JUMPDEST \t\t\t\n    tag 1592\t\t\t\n      JUMPDEST \t\t\t\n      PUSH [tag] 1594\t\t\t\n      PUSH 40\t\t\t\n      PUSH [tag] 705\t\t\t\n      JUMP \t\t\t\n    tag 1594\t\t\t\n      JUMPDEST \t\t\t\n      SWAP1 \t\t\t\n      POP \t\t\t\n      PUSH 0\t\t\t\n      DUP3 \t\t\t\n      ADD \t\t\t\n      MLOAD \t\t\t\n      PUSH FFFFFFFFFFFFFFFF\t\t\t\n      DUP2 \t\t\t\n      GT \t\t\t\n      ISZERO \t\t\t\n      PUSH [tag] 1595\t\t\t\n      JUMPI \t\t\t\n      PUSH [tag] 1596\t\t\t\n      PUSH [tag] 755\t\t\t\n      JUMP \t\t\t\n    tag 1596\t\t\t\n      JUMPDEST \t\t\t\n    tag 1595\t\t\t\n      JUMPDEST \t\t\t\n      PUSH [tag] 1597\t\t\t\n      DUP5 \t\t\t\n      DUP3 \t\t\t\n      DUP6 \t\t\t\n      ADD \t\t\t\n      PUSH [tag] 813\t\t\t\n      JUMP \t\t\t\n    tag 1597\t\t\t\n      JUMPDEST \t\t\t\n      PUSH 0\t\t\t\n      DUP4 \t\t\t\n      ADD \t\t\t\n      MSTORE \t\t\t\n      POP \t\t\t\n      PUSH 20\t\t\t\n      PUSH [tag] 1598\t\t\t\n      DUP5 \t\t\t\n      DUP3 \t\t\t\n      DUP6 \t\t\t\n      ADD \t\t\t\n      PUSH [tag] 814\t\t\t\n      JUMP \t\t\t\n    tag 1598\t\t\t\n      JUMPDEST \t\t\t\n      PUSH 20\t\t\t\n      DUP4 \t\t\t\n      ADD \t\t\t\n      MSTORE \t\t\t\n      POP \t\t\t\n      SWAP3 \t\t\t\n      SWAP2 \t\t\t\n      POP \t\t\t\n      POP \t\t\t\n      JUMP \t\t\t\n    tag 858\t\t\t\n      JUMPDEST \t\t\t\n      PUSH 0\t\t\t\n      PUSH [tag] 1600\t\t\t\n      PUSH [tag] 1601\t\t\t\n      DUP5 \t\t\t\n      PUSH [tag] 856\t\t\t\n      JUMP \t\t\t\n    tag 1601\t\t\t\n      JUMPDEST \t\t\t\n      PUSH [tag] 705\t\t\t\n      JUMP \t\t\t\n    tag 1600\t\t\t\n      JUMPDEST \t\t\t\n      SWAP1 \t\t\t\n      POP \t\t\t\n      DUP1 \t\t\t\n      DUP4 \t\t\t\n      DUP3 \t\t\t\n      MSTORE \t\t\t\n      PUSH 20\t\t\t\n      DUP3 \t\t\t\n      ADD \t\t\t\n      SWAP1 \t\t\t\n      POP \t\t\t\n      PUSH 20\t\t\t\n      DUP5 \t\t\t\n      MUL \t\t\t\n      DUP4 \t\t\t\n      ADD \t\t\t\n      DUP6 \t\t\t\n      DUP2 \t\t\t\n      GT \t\t\t\n      ISZERO \t\t\t\n      PUSH [tag] 1602\t\t\t\n      JUMPI \t\t\t\n      PUSH [tag] 1603\t\t\t\n      PUSH [tag] 690\t\t\t\n      JUMP \t\t\t\n    tag 1603\t\t\t\n      JUMPDEST \t\t\t\n    tag 1602\t\t\t\n      JUMPDEST \t\t\t\n      DUP4 \t\t\t\n    tag 1604\t\t\t\n      JUMPDEST \t\t\t\n      DUP2 \t\t\t\n      DUP2 \t\t\t\n      LT \t\t\t\n      ISZERO \t\t\t\n      PUSH [tag] 1606\t\t\t\n      JUMPI \t\t\t\n      DUP1 \t\t\t\n      MLOAD \t\t\t\n      PUSH FFFFFFFFFFFFFFFF\t\t\t\n      DUP2 \t\t\t\n      GT \t\t\t\n      ISZERO \t\t\t\n      PUSH [tag] 1607\t\t\t\n      JUMPI \t\t\t\n      PUSH [tag] 1608\t\t\t\n      PUSH [tag] 688\t\t\t\n      JUMP \t\t\t\n    tag 1608\t\t\t\n      JUMPDEST \t\t\t\n    tag 1607\t\t\t\n      JUMPDEST \t\t\t\n      DUP1 \t\t\t\n      DUP7 \t\t\t\n      ADD \t\t\t\n      PUSH [tag] 1609\t\t\t\n      DUP10 \t\t\t\n      DUP3 \t\t\t\n      PUSH [tag] 857\t\t\t\n      JUMP \t\t\t\n    tag 1609\t\t\t\n      JUMPDEST \t\t\t\n      DUP6 \t\t\t\n      MSTORE \t\t\t\n      PUSH 20\t\t\t\n      DUP6 \t\t\t\n      ADD \t\t\t\n      SWAP5 \t\t\t\n      POP \t\t\t\n      POP \t\t\t\n      POP \t\t\t\n      PUSH 20\t\t\t\n      DUP2 \t\t\t\n      ADD \t\t\t\n      SWAP1 \t\t\t\n      POP \t\t\t\n      PUSH [tag] 1604\t\t\t\n      JUMP \t\t\t\n    tag 1606\t\t\t\n      JUMPDEST \t\t\t\n      POP \t\t\t\n      POP \t\t\t\n      POP \t\t\t\n      SWAP4 \t\t\t\n      SWAP3 \t\t\t\n      POP \t\t\t\n      POP \t\t\t\n      POP \t\t\t\n      JUMP \t\t\t\n    tag 859\t\t\t\n      JUMPDEST \t\t\t\n      PUSH 0\t\t\t\n      DUP3 \t\t\t\n      PUSH 1F\t\t\t\n      DUP4 \t\t\t\n      ADD \t\t\t\n      SLT \t\t\t\n      PUSH [tag] 1611\t\t\t\n      JUMPI \t\t\t\n      PUSH [tag] 1612\t\t\t\n      PUSH [tag] 688\t\t\t\n      JUMP \t\t\t\n    tag 1612\t\t\t\n      JUMPDEST \t\t\t\n    tag 1611\t\t\t\n      JUMPDEST \t\t\t\n      DUP2 \t\t\t\n      MLOAD \t\t\t\n      PUSH [tag] 1613\t\t\t\n      DUP5 \t\t\t\n      DUP3 \t\t\t\n      PUSH 20\t\t\t\n      DUP7 \t\t\t\n      ADD \t\t\t\n      PUSH [tag] 858\t\t\t\n      JUMP \t\t\t\n    tag 1613\t\t\t\n      JUMPDEST \t\t\t\n      SWAP2 \t\t\t\n      POP \t\t\t\n      POP \t\t\t\n      SWAP3 \t\t\t\n      SWAP2 \t\t\t\n      POP \t\t\t\n      POP \t\t\t\n      JUMP \t\t\t\n    tag 634\t\t\t\n      JUMPDEST \t\t\t\n      PUSH 0\t\t\t\n      PUSH 20\t\t\t\n      DUP3 \t\t\t\n      DUP5 \t\t\t\n      SUB \t\t\t\n      SLT \t\t\t\n      ISZERO \t\t\t\n      PUSH [tag] 1615\t\t\t\n      JUMPI \t\t\t\n      PUSH [tag] 1616\t\t\t\n      PUSH [tag] 682\t\t\t\n      JUMP \t\t\t\n    tag 1616\t\t\t\n      JUMPDEST \t\t\t\n    tag 1615\t\t\t\n      JUMPDEST \t\t\t\n      PUSH 0\t\t\t\n      DUP3 \t\t\t\n      ADD \t\t\t\n      MLOAD \t\t\t\n      PUSH FFFFFFFFFFFFFFFF\t\t\t\n      DUP2 \t\t\t\n      GT \t\t\t\n      ISZERO \t\t\t\n      PUSH [tag] 1617\t\t\t\n      JUMPI \t\t\t\n      PUSH [tag] 1618\t\t\t\n      PUSH [tag] 683\t\t\t\n      JUMP \t\t\t\n    tag 1618\t\t\t\n      JUMPDEST \t\t\t\n    tag 1617\t\t\t\n      JUMPDEST \t\t\t\n      PUSH [tag] 1619\t\t\t\n      DUP5 \t\t\t\n      DUP3 \t\t\t\n      DUP6 \t\t\t\n      ADD \t\t\t\n      PUSH [tag] 859\t\t\t\n      JUMP \t\t\t\n    tag 1619\t\t\t\n      JUMPDEST \t\t\t\n      SWAP2 \t\t\t\n      POP \t\t\t\n      POP \t\t\t\n      SWAP3 \t\t\t\n      SWAP2 \t\t\t\n      POP \t\t\t\n      POP \t\t\t\n      JUMP \t\t\t\n    tag 861\t\t\t\n      JUMPDEST \t\t\t\n      PUSH 0\t\t\t\n      DUP3 \t\t\t\n      SWAP1 \t\t\t\n      POP \t\t\t\n      SWAP3 \t\t\t\n      SWAP2 \t\t\t\n      POP \t\t\t\n      POP \t\t\t\n      JUMP \t\t\t\n    tag 862\t\t\t\n      JUMPDEST \t\t\t\n      PUSH 0\t\t\t\n      DUP2 \t\t\t\n      SWAP1 \t\t\t\n      POP \t\t\t\n      DUP2 \t\t\t\n      PUSH 0\t\t\t\n      MSTORE \t\t\t\n      PUSH 20\t\t\t\n      PUSH 0\t\t\t\n      KECCAK256 \t\t\t\n      SWAP1 \t\t\t\n      POP \t\t\t\n      SWAP2 \t\t\t\n      SWAP1 \t\t\t\n      POP \t\t\t\n      JUMP \t\t\t\n    tag 863\t\t\t\n      JUMPDEST \t\t\t\n      PUSH 0\t\t\t\n      PUSH 20\t\t\t\n      PUSH 1F\t\t\t\n      DUP4 \t\t\t\n      ADD \t\t\t\n      DIV \t\t\t\n      SWAP1 \t\t\t\n      POP \t\t\t\n      SWAP2 \t\t\t\n      SWAP1 \t\t\t\n      POP \t\t\t\n      JUMP \t\t\t\n    tag 864\t\t\t\n      JUMPDEST \t\t\t\n      PUSH 0\t\t\t\n      DUP3 \t\t\t\n      DUP3 \t\t\t\n      SHL \t\t\t\n      SWAP1 \t\t\t\n      POP \t\t\t\n      SWAP3 \t\t\t\n      SWAP2 \t\t\t\n      POP \t\t\t\n      POP \t\t\t\n      JUMP \t\t\t\n    tag 865\t\t\t\n      JUMPDEST \t\t\t\n      PUSH 0\t\t\t\n      PUSH 8\t\t\t\n      DUP4 \t\t\t\n      MUL \t\t\t\n      PUSH [tag] 1626\t\t\t\n      PUSH FFFFFFFFFFFFFFFFFFFFFFFFFFFFFFFFFFFFFFFFFFFFFFFFFFFFFFFFFFFFFFFF\t\t\t\n      DUP3 \t\t\t\n      PUSH [tag] 864\t\t\t\n      JUMP \t\t\t\n    tag 1626\t\t\t\n      JUMPDEST \t\t\t\n      PUSH [tag] 1627\t\t\t\n      DUP7 \t\t\t\n      DUP4 \t\t\t\n      PUSH [tag] 864\t\t\t\n      JUMP \t\t\t\n    tag 1627\t\t\t\n      JUMPDEST \t\t\t\n      SWAP6 \t\t\t\n      POP \t\t\t\n      DUP1 \t\t\t\n      NOT \t\t\t\n      DUP5 \t\t\t\n      AND \t\t\t\n      SWAP4 \t\t\t\n      POP \t\t\t\n      DUP1 \t\t\t\n      DUP7 \t\t\t\n      AND \t\t\t\n      DUP5 \t\t\t\n      OR \t\t\t\n      SWAP3 \t\t\t\n      POP \t\t\t\n      POP \t\t\t\n      POP \t\t\t\n      SWAP4 \t\t\t\n      SWAP3 \t\t\t\n      POP \t\t\t\n      POP \t\t\t\n      POP \t\t\t\n      JUMP \t\t\t\n    tag 866\t\t\t\n      JUMPDEST \t\t\t\n      PUSH 0\t\t\t\n      PUSH [tag] 1629\t\t\t\n      PUSH [tag] 1630\t\t\t\n      PUSH [tag] 1631\t\t\t\n      DUP5 \t\t\t\n      PUSH [tag] 697\t\t\t\n      JUMP \t\t\t\n    tag 1631\t\t\t\n      JUMPDEST \t\t\t\n      PUSH [tag] 737\t\t\t\n      JUMP \t\t\t\n    tag 1630\t\t\t\n      JUMPDEST \t\t\t\n      PUSH [tag] 697\t\t\t\n      JUMP \t\t\t\n    tag 1629\t\t\t\n      JUMPDEST \t\t\t\n      SWAP1 \t\t\t\n      POP \t\t\t\n      SWAP2 \t\t\t\n      SWAP1 \t\t\t\n      POP \t\t\t\n      JUMP \t\t\t\n    tag 867\t\t\t\n      JUMPDEST \t\t\t\n      PUSH 0\t\t\t\n      DUP2 \t\t\t\n      SWAP1 \t\t\t\n      POP \t\t\t\n      SWAP2 \t\t\t\n      SWAP1 \t\t\t\n      POP \t\t\t\n      JUMP \t\t\t\n    tag 868\t\t\t\n      JUMPDEST \t\t\t\n      PUSH [tag] 1634\t\t\t\n      DUP4 \t\t\t\n      PUSH [tag] 866\t\t\t\n      JUMP \t\t\t\n    tag 1634\t\t\t\n      JUMPDEST \t\t\t\n      PUSH [tag] 1635\t\t\t\n      PUSH [tag] 1636\t\t\t\n      DUP3 \t\t\t\n      PUSH [tag] 867\t\t\t\n      JUMP \t\t\t\n    tag 1636\t\t\t\n      JUMPDEST \t\t\t\n      DUP5 \t\t\t\n      DUP5 \t\t\t\n      SLOAD \t\t\t\n      PUSH [tag] 865\t\t\t\n      JUMP \t\t\t\n    tag 1635\t\t\t\n      JUMPDEST \t\t\t\n      DUP3 \t\t\t\n      SSTORE \t\t\t\n      POP \t\t\t\n      POP \t\t\t\n      POP \t\t\t\n      POP \t\t\t\n      JUMP \t\t\t\n    tag 869\t\t\t\n      JUMPDEST \t\t\t\n      PUSH 0\t\t\t\n      PUSH 0\t\t\t\n      SWAP1 \t\t\t\n      POP \t\t\t\n      SWAP1 \t\t\t\n      JUMP \t\t\t\n    tag 870\t\t\t\n      JUMPDEST \t\t\t\n      PUSH [tag] 1639\t\t\t\n      PUSH [tag] 869\t\t\t\n      JUMP \t\t\t\n    tag 1639\t\t\t\n      JUMPDEST \t\t\t\n      PUSH [tag] 1640\t\t\t\n      DUP2 \t\t\t\n      DUP5 \t\t\t\n      DUP5 \t\t\t\n      PUSH [tag] 868\t\t\t\n      JUMP \t\t\t\n    tag 1640\t\t\t\n      JUMPDEST \t\t\t\n      POP \t\t\t\n      POP \t\t\t\n      POP \t\t\t\n      JUMP \t\t\t\n    tag 871\t\t\t\n      JUMPDEST \t\t\t\n    tag 1642\t\t\t\n      JUMPDEST \t\t\t\n      DUP2 \t\t\t\n      DUP2 \t\t\t\n      LT \t\t\t\n      ISZERO \t\t\t\n      PUSH [tag] 1644\t\t\t\n      JUMPI \t\t\t\n      PUSH [tag] 1645\t\t\t\n      PUSH 0\t\t\t\n      DUP3 \t\t\t\n      PUSH [tag] 870\t\t\t\n      JUMP \t\t\t\n    tag 1645\t\t\t\n      JUMPDEST \t\t\t\n      PUSH 1\t\t\t\n      DUP2 \t\t\t\n      ADD \t\t\t\n      SWAP1 \t\t\t\n      POP \t\t\t\n      PUSH [tag] 1642\t\t\t\n      JUMP \t\t\t\n    tag 1644\t\t\t\n      JUMPDEST \t\t\t\n      POP \t\t\t\n      POP \t\t\t\n      JUMP \t\t\t\n    tag 872\t\t\t\n      JUMPDEST \t\t\t\n      PUSH 1F\t\t\t\n      DUP3 \t\t\t\n      GT \t\t\t\n      ISZERO \t\t\t\n      PUSH [tag] 1647\t\t\t\n      JUMPI \t\t\t\n      PUSH [tag] 1648\t\t\t\n      DUP2 \t\t\t\n      PUSH [tag] 862\t\t\t\n      JUMP \t\t\t\n    tag 1648\t\t\t\n      JUMPDEST \t\t\t\n      PUSH [tag] 1649\t\t\t\n      DUP5 \t\t\t\n      PUSH [tag] 863\t\t\t\n      JUMP \t\t\t\n    tag 1649\t\t\t\n      JUMPDEST \t\t\t\n      DUP2 \t\t\t\n      ADD \t\t\t\n      PUSH 20\t\t\t\n      DUP6 \t\t\t\n      LT \t\t\t\n      ISZERO \t\t\t\n      PUSH [tag] 1650\t\t\t\n      JUMPI \t\t\t\n      DUP2 \t\t\t\n      SWAP1 \t\t\t\n      POP \t\t\t\n    tag 1650\t\t\t\n      JUMPDEST \t\t\t\n      PUSH [tag] 1651\t\t\t\n      PUSH [tag] 1652\t\t\t\n      DUP6 \t\t\t\n      PUSH [tag] 863\t\t\t\n      JUMP \t\t\t\n    tag 1652\t\t\t\n      JUMPDEST \t\t\t\n      DUP4 \t\t\t\n      ADD \t\t\t\n      DUP3 \t\t\t\n      PUSH [tag] 871\t\t\t\n      JUMP \t\t\t\n    tag 1651\t\t\t\n      JUMPDEST \t\t\t\n      POP \t\t\t\n      POP \t\t\t\n    tag 1647\t\t\t\n      JUMPDEST \t\t\t\n      POP \t\t\t\n      POP \t\t\t\n      POP \t\t\t\n      JUMP \t\t\t\n    tag 873\t\t\t\n      JUMPDEST \t\t\t\n      PUSH 0\t\t\t\n      DUP3 \t\t\t\n      DUP3 \t\t\t\n      SHR \t\t\t\n      SWAP1 \t\t\t\n      POP \t\t\t\n      SWAP3 \t\t\t\n      SWAP2 \t\t\t\n      POP \t\t\t\n      POP \t\t\t\n      JUMP \t\t\t\n    tag 874\t\t\t\n      JUMPDEST \t\t\t\n      PUSH 0\t\t\t\n      PUSH [tag] 1655\t\t\t\n      PUSH 0\t\t\t\n      NOT \t\t\t\n      DUP5 \t\t\t\n      PUSH 8\t\t\t\n      MUL \t\t\t\n      PUSH [tag] 873\t\t\t\n      JUMP \t\t\t\n    tag 1655\t\t\t\n      JUMPDEST \t\t\t\n      NOT \t\t\t\n      DUP1 \t\t\t\n      DUP4 \t\t\t\n      AND \t\t\t\n      SWAP2 \t\t\t\n      POP \t\t\t\n      POP \t\t\t\n      SWAP3 \t\t\t\n      SWAP2 \t\t\t\n      POP \t\t\t\n      POP \t\t\t\n      JUMP \t\t\t\n    tag 875\t\t\t\n      JUMPDEST \t\t\t\n      PUSH 0\t\t\t\n      PUSH [tag] 1657\t\t\t\n      DUP4 \t\t\t\n      DUP4 \t\t\t\n      PUSH [tag] 874\t\t\t\n      JUMP \t\t\t\n    tag 1657\t\t\t\n      JUMPDEST \t\t\t\n      SWAP2 \t\t\t\n      POP \t\t\t\n      DUP3 \t\t\t\n      PUSH 2\t\t\t\n      MUL \t\t\t\n      DUP3 \t\t\t\n      OR \t\t\t\n      SWAP1 \t\t\t\n      POP \t\t\t\n      SWAP3 \t\t\t\n      SWAP2 \t\t\t\n      POP \t\t\t\n      POP \t\t\t\n      JUMP \t\t\t\n    tag 876\t\t\t\n      JUMPDEST \t\t\t\n      PUSH [tag] 1659\t\t\t\n      DUP4 \t\t\t\n      DUP4 \t\t\t\n      PUSH [tag] 861\t\t\t\n      JUMP \t\t\t\n    tag 1659\t\t\t\n      JUMPDEST \t\t\t\n      PUSH FFFFFFFFFFFFFFFF\t\t\t\n      DUP2 \t\t\t\n      GT \t\t\t\n      ISZERO \t\t\t\n      PUSH [tag] 1660\t\t\t\n      JUMPI \t\t\t\n      PUSH [tag] 1661\t\t\t\n      PUSH [tag] 271\t\t\t\n      JUMP \t\t\t\n    tag 1661\t\t\t\n      JUMPDEST \t\t\t\n    tag 1660\t\t\t\n      JUMPDEST \t\t\t\n      PUSH [tag] 1662\t\t\t\n      DUP3 \t\t\t\n      SLOAD \t\t\t\n      PUSH [tag] 283\t\t\t\n      JUMP \t\t\t\n    tag 1662\t\t\t\n      JUMPDEST \t\t\t\n      PUSH [tag] 1663\t\t\t\n      DUP3 \t\t\t\n      DUP3 \t\t\t\n      DUP6 \t\t\t\n      PUSH [tag] 872\t\t\t\n      JUMP \t\t\t\n    tag 1663\t\t\t\n      JUMPDEST \t\t\t\n      PUSH 0\t\t\t\n      PUSH 1F\t\t\t\n      DUP4 \t\t\t\n      GT \t\t\t\n      PUSH 1\t\t\t\n      DUP2 \t\t\t\n      EQ \t\t\t\n      PUSH [tag] 1665\t\t\t\n      JUMPI \t\t\t\n      PUSH 0\t\t\t\n      DUP5 \t\t\t\n      ISZERO \t\t\t\n      PUSH [tag] 1666\t\t\t\n      JUMPI \t\t\t\n      DUP3 \t\t\t\n      DUP8 \t\t\t\n      ADD \t\t\t\n      CALLDATALOAD \t\t\t\n      SWAP1 \t\t\t\n      POP \t\t\t\n    tag 1666\t\t\t\n      JUMPDEST \t\t\t\n      PUSH [tag] 1667\t\t\t\n      DUP6 \t\t\t\n      DUP3 \t\t\t\n      PUSH [tag] 875\t\t\t\n      JUMP \t\t\t\n    tag 1667\t\t\t\n      JUMPDEST \t\t\t\n      DUP7 \t\t\t\n      SSTORE \t\t\t\n      POP \t\t\t\n      PUSH [tag] 1664\t\t\t\n      JUMP \t\t\t\n    tag 1665\t\t\t\n      JUMPDEST \t\t\t\n      PUSH 1F\t\t\t\n      NOT \t\t\t\n      DUP5 \t\t\t\n      AND \t\t\t\n      PUSH [tag] 1668\t\t\t\n      DUP7 \t\t\t\n      PUSH [tag] 862\t\t\t\n      JUMP \t\t\t\n    tag 1668\t\t\t\n      JUMPDEST \t\t\t\n      PUSH 0\t\t\t\n    tag 1669\t\t\t\n      JUMPDEST \t\t\t\n      DUP3 \t\t\t\n      DUP2 \t\t\t\n      LT \t\t\t\n      ISZERO \t\t\t\n      PUSH [tag] 1671\t\t\t\n      JUMPI \t\t\t\n      DUP5 \t\t\t\n      DUP10 \t\t\t\n      ADD \t\t\t\n      CALLDATALOAD \t\t\t\n      DUP3 \t\t\t\n      SSTORE \t\t\t\n      PUSH 1\t\t\t\n      DUP3 \t\t\t\n      ADD \t\t\t\n      SWAP2 \t\t\t\n      POP \t\t\t\n      PUSH 20\t\t\t\n      DUP6 \t\t\t\n      ADD \t\t\t\n      SWAP5 \t\t\t\n      POP \t\t\t\n      PUSH 20\t\t\t\n      DUP2 \t\t\t\n      ADD \t\t\t\n      SWAP1 \t\t\t\n      POP \t\t\t\n      PUSH [tag] 1669\t\t\t\n      JUMP \t\t\t\n    tag 1671\t\t\t\n      JUMPDEST \t\t\t\n      DUP7 \t\t\t\n      DUP4 \t\t\t\n      LT \t\t\t\n      ISZERO \t\t\t\n      PUSH [tag] 1672\t\t\t\n      JUMPI \t\t\t\n      DUP5 \t\t\t\n      DUP10 \t\t\t\n      ADD \t\t\t\n      CALLDATALOAD \t\t\t\n      PUSH [tag] 1673\t\t\t\n      PUSH 1F\t\t\t\n      DUP10 \t\t\t\n      AND \t\t\t\n      DUP3 \t\t\t\n      PUSH [tag] 874\t\t\t\n      JUMP \t\t\t\n    tag 1673\t\t\t\n      JUMPDEST \t\t\t\n      DUP4 \t\t\t\n      SSTORE \t\t\t\n      POP \t\t\t\n    tag 1672\t\t\t\n      JUMPDEST \t\t\t\n      PUSH 1\t\t\t\n      PUSH 2\t\t\t\n      DUP9 \t\t\t\n      MUL \t\t\t\n      ADD \t\t\t\n      DUP9 \t\t\t\n      SSTORE \t\t\t\n      POP \t\t\t\n      POP \t\t\t\n      POP \t\t\t\n    tag 1664\t\t\t\n      JUMPDEST \t\t\t\n      POP \t\t\t\n      POP \t\t\t\n      POP \t\t\t\n      POP \t\t\t\n      POP \t\t\t\n      POP \t\t\t\n      POP \t\t\t\n      JUMP \t\t\t\n    tag 877\t\t\t\n      JUMPDEST \t\t\t\n      PUSH [tag] 1675\t\t\t\n      DUP4 \t\t\t\n      DUP4 \t\t\t\n      DUP4 \t\t\t\n      PUSH [tag] 876\t\t\t\n      JUMP \t\t\t\n    tag 1675\t\t\t\n      JUMPDEST \t\t\t\n      POP \t\t\t\n      POP \t\t\t\n      POP \t\t\t\n      JUMP \t\t\t\n    tag 878\t\t\t\n      JUMPDEST \t\t\t\n      PUSH 0\t\t\t\n      DUP2 \t\t\t\n      CALLDATALOAD \t\t\t\n      PUSH [tag] 1677\t\t\t\n      DUP2 \t\t\t\n      PUSH [tag] 732\t\t\t\n      JUMP \t\t\t\n    tag 1677\t\t\t\n      JUMPDEST \t\t\t\n      DUP1 \t\t\t\n      SWAP2 \t\t\t\n      POP \t\t\t\n      POP \t\t\t\n      SWAP2 \t\t\t\n      SWAP1 \t\t\t\n      POP \t\t\t\n      JUMP \t\t\t\n    tag 879\t\t\t\n      JUMPDEST \t\t\t\n      PUSH 0\t\t\t\n      DUP2 \t\t\t\n      PUSH 0\t\t\t\n      SHL \t\t\t\n      SWAP1 \t\t\t\n      POP \t\t\t\n      SWAP2 \t\t\t\n      SWAP1 \t\t\t\n      POP \t\t\t\n      JUMP \t\t\t\n    tag 880\t\t\t\n      JUMPDEST \t\t\t\n      PUSH 0\t\t\t\n      PUSH FFFFFFFFFFFFFFFFFFFFFFFFFFFFFFFFFFFFFFFF\t\t\t\n      PUSH [tag] 1680\t\t\t\n      DUP5 \t\t\t\n      PUSH [tag] 879\t\t\t\n      JUMP \t\t\t\n    tag 1680\t\t\t\n      JUMPDEST \t\t\t\n      SWAP4 \t\t\t\n      POP \t\t\t\n      DUP1 \t\t\t\n      NOT \t\t\t\n      DUP4 \t\t\t\n      AND \t\t\t\n      SWAP3 \t\t\t\n      POP \t\t\t\n      DUP1 \t\t\t\n      DUP5 \t\t\t\n      AND \t\t\t\n      DUP4 \t\t\t\n      OR \t\t\t\n      SWAP2 \t\t\t\n      POP \t\t\t\n      POP \t\t\t\n      SWAP3 \t\t\t\n      SWAP2 \t\t\t\n      POP \t\t\t\n      POP \t\t\t\n      JUMP \t\t\t\n    tag 881\t\t\t\n      JUMPDEST \t\t\t\n      PUSH 0\t\t\t\n      PUSH [tag] 1682\t\t\t\n      DUP3 \t\t\t\n      PUSH [tag] 738\t\t\t\n      JUMP \t\t\t\n    tag 1682\t\t\t\n      JUMPDEST \t\t\t\n      SWAP1 \t\t\t\n      POP \t\t\t\n      SWAP2 \t\t\t\n      SWAP1 \t\t\t\n      POP \t\t\t\n      JUMP \t\t\t\n    tag 882\t\t\t\n      JUMPDEST \t\t\t\n      PUSH 0\t\t\t\n      PUSH [tag] 1684\t\t\t\n      DUP3 \t\t\t\n      PUSH [tag] 881\t\t\t\n      JUMP \t\t\t\n    tag 1684\t\t\t\n      JUMPDEST \t\t\t\n      SWAP1 \t\t\t\n      POP \t\t\t\n      SWAP2 \t\t\t\n      SWAP1 \t\t\t\n      POP \t\t\t\n      JUMP \t\t\t\n    tag 883\t\t\t\n      JUMPDEST \t\t\t\n      PUSH 0\t\t\t\n      DUP2 \t\t\t\n      SWAP1 \t\t\t\n      POP \t\t\t\n      SWAP2 \t\t\t\n      SWAP1 \t\t\t\n      POP \t\t\t\n      JUMP \t\t\t\n    tag 884\t\t\t\n      JUMPDEST \t\t\t\n      PUSH [tag] 1687\t\t\t\n      DUP3 \t\t\t\n      PUSH [tag] 882\t\t\t\n      JUMP \t\t\t\n    tag 1687\t\t\t\n      JUMPDEST \t\t\t\n      PUSH [tag] 1688\t\t\t\n      PUSH [tag] 1689\t\t\t\n      DUP3 \t\t\t\n      PUSH [tag] 883\t\t\t\n      JUMP \t\t\t\n    tag 1689\t\t\t\n      JUMPDEST \t\t\t\n      DUP4 \t\t\t\n      SLOAD \t\t\t\n      PUSH [tag] 880\t\t\t\n      JUMP \t\t\t\n    tag 1688\t\t\t\n      JUMPDEST \t\t\t\n      DUP3 \t\t\t\n      SSTORE \t\t\t\n      POP \t\t\t\n      POP \t\t\t\n      POP \t\t\t\n      JUMP \t\t\t\n    tag 885\t\t\t\n      JUMPDEST \t\t\t\n      PUSH 0\t\t\t\n      DUP3 \t\t\t\n      SWAP1 \t\t\t\n      POP \t\t\t\n      SWAP3 \t\t\t\n      SWAP2 \t\t\t\n      POP \t\t\t\n      POP \t\t\t\n      JUMP \t\t\t\n    tag 886\t\t\t\n      JUMPDEST \t\t\t\n      PUSH 1F\t\t\t\n      DUP3 \t\t\t\n      GT \t\t\t\n      ISZERO \t\t\t\n      PUSH [tag] 1692\t\t\t\n      JUMPI \t\t\t\n      PUSH [tag] 1693\t\t\t\n      DUP2 \t\t\t\n      PUSH [tag] 854\t\t\t\n      JUMP \t\t\t\n    tag 1693\t\t\t\n      JUMPDEST \t\t\t\n      PUSH [tag] 1694\t\t\t\n      DUP5 \t\t\t\n      PUSH [tag] 863\t\t\t\n      JUMP \t\t\t\n    tag 1694\t\t\t\n      JUMPDEST \t\t\t\n      DUP2 \t\t\t\n      ADD \t\t\t\n      PUSH 20\t\t\t\n      DUP6 \t\t\t\n      LT \t\t\t\n      ISZERO \t\t\t\n      PUSH [tag] 1695\t\t\t\n      JUMPI \t\t\t\n      DUP2 \t\t\t\n      SWAP1 \t\t\t\n      POP \t\t\t\n    tag 1695\t\t\t\n      JUMPDEST \t\t\t\n      PUSH [tag] 1696\t\t\t\n      PUSH [tag] 1697\t\t\t\n      DUP6 \t\t\t\n      PUSH [tag] 863\t\t\t\n      JUMP \t\t\t\n    tag 1697\t\t\t\n      JUMPDEST \t\t\t\n      DUP4 \t\t\t\n      ADD \t\t\t\n      DUP3 \t\t\t\n      PUSH [tag] 871\t\t\t\n      JUMP \t\t\t\n    tag 1696\t\t\t\n      JUMPDEST \t\t\t\n      POP \t\t\t\n      POP \t\t\t\n    tag 1692\t\t\t\n      JUMPDEST \t\t\t\n      POP \t\t\t\n      POP \t\t\t\n      POP \t\t\t\n      JUMP \t\t\t\n    tag 887\t\t\t\n      JUMPDEST \t\t\t\n      PUSH [tag] 1699\t\t\t\n      DUP4 \t\t\t\n      DUP4 \t\t\t\n      PUSH [tag] 885\t\t\t\n      JUMP \t\t\t\n    tag 1699\t\t\t\n      JUMPDEST \t\t\t\n      PUSH FFFFFFFFFFFFFFFF\t\t\t\n      DUP2 \t\t\t\n      GT \t\t\t\n      ISZERO \t\t\t\n      PUSH [tag] 1700\t\t\t\n      JUMPI \t\t\t\n      PUSH [tag] 1701\t\t\t\n      PUSH [tag] 271\t\t\t\n      JUMP \t\t\t\n    tag 1701\t\t\t\n      JUMPDEST \t\t\t\n    tag 1700\t\t\t\n      JUMPDEST \t\t\t\n      PUSH [tag] 1702\t\t\t\n      DUP3 \t\t\t\n      SLOAD \t\t\t\n      PUSH [tag] 283\t\t\t\n      JUMP \t\t\t\n    tag 1702\t\t\t\n      JUMPDEST \t\t\t\n      PUSH [tag] 1703\t\t\t\n      DUP3 \t\t\t\n      DUP3 \t\t\t\n      DUP6 \t\t\t\n      PUSH [tag] 886\t\t\t\n      JUMP \t\t\t\n    tag 1703\t\t\t\n      JUMPDEST \t\t\t\n      PUSH 0\t\t\t\n      PUSH 1F\t\t\t\n      DUP4 \t\t\t\n      GT \t\t\t\n      PUSH 1\t\t\t\n      DUP2 \t\t\t\n      EQ \t\t\t\n      PUSH [tag] 1705\t\t\t\n      JUMPI \t\t\t\n      PUSH 0\t\t\t\n      DUP5 \t\t\t\n      ISZERO \t\t\t\n      PUSH [tag] 1706\t\t\t\n      JUMPI \t\t\t\n      DUP3 \t\t\t\n      DUP8 \t\t\t\n      ADD \t\t\t\n      CALLDATALOAD \t\t\t\n      SWAP1 \t\t\t\n      POP \t\t\t\n    tag 1706\t\t\t\n      JUMPDEST \t\t\t\n      PUSH [tag] 1707\t\t\t\n      DUP6 \t\t\t\n      DUP3 \t\t\t\n      PUSH [tag] 875\t\t\t\n      JUMP \t\t\t\n    tag 1707\t\t\t\n      JUMPDEST \t\t\t\n      DUP7 \t\t\t\n      SSTORE \t\t\t\n      POP \t\t\t\n      PUSH [tag] 1704\t\t\t\n      JUMP \t\t\t\n    tag 1705\t\t\t\n      JUMPDEST \t\t\t\n      PUSH 1F\t\t\t\n      NOT \t\t\t\n      DUP5 \t\t\t\n      AND \t\t\t\n      PUSH [tag] 1708\t\t\t\n      DUP7 \t\t\t\n      PUSH [tag] 854\t\t\t\n      JUMP \t\t\t\n    tag 1708\t\t\t\n      JUMPDEST \t\t\t\n      PUSH 0\t\t\t\n    tag 1709\t\t\t\n      JUMPDEST \t\t\t\n      DUP3 \t\t\t\n      DUP2 \t\t\t\n      LT \t\t\t\n      ISZERO \t\t\t\n      PUSH [tag] 1711\t\t\t\n      JUMPI \t\t\t\n      DUP5 \t\t\t\n      DUP10 \t\t\t\n      ADD \t\t\t\n      CALLDATALOAD \t\t\t\n      DUP3 \t\t\t\n      SSTORE \t\t\t\n      PUSH 1\t\t\t\n      DUP3 \t\t\t\n      ADD \t\t\t\n      SWAP2 \t\t\t\n      POP \t\t\t\n      PUSH 20\t\t\t\n      DUP6 \t\t\t\n      ADD \t\t\t\n      SWAP5 \t\t\t\n      POP \t\t\t\n      PUSH 20\t\t\t\n      DUP2 \t\t\t\n      ADD \t\t\t\n      SWAP1 \t\t\t\n      POP \t\t\t\n      PUSH [tag] 1709\t\t\t\n      JUMP \t\t\t\n    tag 1711\t\t\t\n      JUMPDEST \t\t\t\n      DUP7 \t\t\t\n      DUP4 \t\t\t\n      LT \t\t\t\n      ISZERO \t\t\t\n      PUSH [tag] 1712\t\t\t\n      JUMPI \t\t\t\n      DUP5 \t\t\t\n      DUP10 \t\t\t\n      ADD \t\t\t\n      CALLDATALOAD \t\t\t\n      PUSH [tag] 1713\t\t\t\n      PUSH 1F\t\t\t\n      DUP10 \t\t\t\n      AND \t\t\t\n      DUP3 \t\t\t\n      PUSH [tag] 874\t\t\t\n      JUMP \t\t\t\n    tag 1713\t\t\t\n      JUMPDEST \t\t\t\n      DUP4 \t\t\t\n      SSTORE \t\t\t\n      POP \t\t\t\n    tag 1712\t\t\t\n      JUMPDEST \t\t\t\n      PUSH 1\t\t\t\n      PUSH 2\t\t\t\n      DUP9 \t\t\t\n      MUL \t\t\t\n      ADD \t\t\t\n      DUP9 \t\t\t\n      SSTORE \t\t\t\n      POP \t\t\t\n      POP \t\t\t\n      POP \t\t\t\n    tag 1704\t\t\t\n      JUMPDEST \t\t\t\n      POP \t\t\t\n      POP \t\t\t\n      POP \t\t\t\n      POP \t\t\t\n      POP \t\t\t\n      POP \t\t\t\n      POP \t\t\t\n      JUMP \t\t\t\n    tag 888\t\t\t\n      JUMPDEST \t\t\t\n      PUSH [tag] 1715\t\t\t\n      DUP4 \t\t\t\n      DUP4 \t\t\t\n      DUP4 \t\t\t\n      PUSH [tag] 887\t\t\t\n      JUMP \t\t\t\n    tag 1715\t\t\t\n      JUMPDEST \t\t\t\n      POP \t\t\t\n      POP \t\t\t\n      POP \t\t\t\n      JUMP \t\t\t\n    tag 889\t\t\t\n      JUMPDEST \t\t\t\n      PUSH 0\t\t\t\n      DUP2 \t\t\t\n      ADD \t\t\t\n      PUSH 0\t\t\t\n      DUP4 \t\t\t\n      ADD \t\t\t\n      PUSH [tag] 1717\t\t\t\n      DUP2 \t\t\t\n      DUP6 \t\t\t\n      PUSH [tag] 365\t\t\t\n      JUMP \t\t\t\n    tag 1717\t\t\t\n      JUMPDEST \t\t\t\n      PUSH [tag] 1718\t\t\t\n      DUP2 \t\t\t\n      DUP4 \t\t\t\n      DUP7 \t\t\t\n      PUSH [tag] 877\t\t\t\n      JUMP \t\t\t\n    tag 1718\t\t\t\n      JUMPDEST \t\t\t\n      POP \t\t\t\n      POP \t\t\t\n      POP \t\t\t\n      POP \t\t\t\n      PUSH 1\t\t\t\n      DUP2 \t\t\t\n      ADD \t\t\t\n      PUSH 20\t\t\t\n      DUP4 \t\t\t\n      ADD \t\t\t\n      DUP1 \t\t\t\n      PUSH [tag] 1719\t\t\t\n      DUP2 \t\t\t\n      PUSH [tag] 878\t\t\t\n      JUMP \t\t\t\n    tag 1719\t\t\t\n      JUMPDEST \t\t\t\n      SWAP1 \t\t\t\n      POP \t\t\t\n      PUSH [tag] 1720\t\t\t\n      DUP2 \t\t\t\n      DUP5 \t\t\t\n      PUSH [tag] 884\t\t\t\n      JUMP \t\t\t\n    tag 1720\t\t\t\n      JUMPDEST \t\t\t\n      POP \t\t\t\n      POP \t\t\t\n      POP \t\t\t\n      PUSH 2\t\t\t\n      DUP2 \t\t\t\n      ADD \t\t\t\n      PUSH 40\t\t\t\n      DUP4 \t\t\t\n      ADD \t\t\t\n      PUSH [tag] 1721\t\t\t\n      DUP2 \t\t\t\n      DUP6 \t\t\t\n      PUSH [tag] 368\t\t\t\n      JUMP \t\t\t\n    tag 1721\t\t\t\n      JUMPDEST \t\t\t\n      PUSH [tag] 1722\t\t\t\n      DUP2 \t\t\t\n      DUP4 \t\t\t\n      DUP7 \t\t\t\n      PUSH [tag] 888\t\t\t\n      JUMP \t\t\t\n    tag 1722\t\t\t\n      JUMPDEST \t\t\t\n      POP \t\t\t\n      POP \t\t\t\n      POP \t\t\t\n      POP \t\t\t\n      POP \t\t\t\n      POP \t\t\t\n      JUMP \t\t\t\n    tag 647\t\t\t\n      JUMPDEST \t\t\t\n      PUSH [tag] 1724\t\t\t\n      DUP3 \t\t\t\n      DUP3 \t\t\t\n      PUSH [tag] 889\t\t\t\n      JUMP \t\t\t\n    tag 1724\t\t\t\n      JUMPDEST \t\t\t\n      POP \t\t\t\n      POP \t\t\t\n      JUMP \t\t\t\n    tag 672\t\t\t\n      JUMPDEST \t\t\t\n      PUSH 0\t\t\t\n      PUSH 160\t\t\t\n      DUP3 \t\t\t\n      ADD \t\t\t\n      SWAP1 \t\t\t\n      POP \t\t\t\n      DUP2 \t\t\t\n      DUP2 \t\t\t\n      SUB \t\t\t\n      PUSH 0\t\t\t\n      DUP4 \t\t\t\n      ADD \t\t\t\n      MSTORE \t\t\t\n      PUSH [tag] 1726\t\t\t\n      DUP2 \t\t\t\n      DUP10 \t\t\t\n      PUSH [tag] 840\t\t\t\n      JUMP \t\t\t\n    tag 1726\t\t\t\n      JUMPDEST \t\t\t\n      SWAP1 \t\t\t\n      POP \t\t\t\n      PUSH [tag] 1727\t\t\t\n      PUSH 20\t\t\t\n      DUP4 \t\t\t\n      ADD \t\t\t\n      DUP9 \t\t\t\n      PUSH [tag] 845\t\t\t\n      JUMP \t\t\t\n    tag 1727\t\t\t\n      JUMPDEST \t\t\t\n      PUSH [tag] 1728\t\t\t\n      PUSH 60\t\t\t\n      DUP4 \t\t\t\n      ADD \t\t\t\n      DUP8 \t\t\t\n      PUSH [tag] 853\t\t\t\n      JUMP \t\t\t\n    tag 1728\t\t\t\n      JUMPDEST \t\t\t\n      PUSH [tag] 1729\t\t\t\n      PUSH E0\t\t\t\n      DUP4 \t\t\t\n      ADD \t\t\t\n      DUP7 \t\t\t\n      PUSH [tag] 845\t\t\t\n      JUMP \t\t\t\n    tag 1729\t\t\t\n      JUMPDEST \t\t\t\n      DUP2 \t\t\t\n      DUP2 \t\t\t\n      SUB \t\t\t\n      PUSH 120\t\t\t\n      DUP4 \t\t\t\n      ADD \t\t\t\n      MSTORE \t\t\t\n      PUSH [tag] 1730\t\t\t\n      DUP2 \t\t\t\n      DUP6 \t\t\t\n      PUSH [tag] 808\t\t\t\n      JUMP \t\t\t\n    tag 1730\t\t\t\n      JUMPDEST \t\t\t\n      SWAP1 \t\t\t\n      POP \t\t\t\n      PUSH [tag] 1731\t\t\t\n      PUSH 140\t\t\t\n      DUP4 \t\t\t\n      ADD \t\t\t\n      DUP5 \t\t\t\n      PUSH [tag] 699\t\t\t\n      JUMP \t\t\t\n    tag 1731\t\t\t\n      JUMPDEST \t\t\t\n      SWAP8 \t\t\t\n      SWAP7 \t\t\t\n      POP \t\t\t\n      POP \t\t\t\n      POP \t\t\t\n      POP \t\t\t\n      POP \t\t\t\n      POP \t\t\t\n      POP \t\t\t\n      JUMP \t\t\t\n    tag 890\t\t\t\n      JUMPDEST \t\t\t\n      PUSH 0\t\t\t\n      DUP3 \t\t\t\n      DUP3 \t\t\t\n      MSTORE \t\t\t\n      PUSH 20\t\t\t\n      DUP3 \t\t\t\n      ADD \t\t\t\n      SWAP1 \t\t\t\n      POP \t\t\t\n      SWAP3 \t\t\t\n      SWAP2 \t\t\t\n      POP \t\t\t\n      POP \t\t\t\n      JUMP \t\t\t\n    tag 891\t\t\t\n      JUMPDEST \t\t\t\n      PUSH 0\t\t\t\n      PUSH 40\t\t\t\n      DUP4 \t\t\t\n      ADD \t\t\t\n      PUSH 0\t\t\t\n      DUP4 \t\t\t\n      ADD \t\t\t\n      MLOAD \t\t\t\n      DUP5 \t\t\t\n      DUP3 \t\t\t\n      SUB \t\t\t\n      PUSH 0\t\t\t\n      DUP7 \t\t\t\n      ADD \t\t\t\n      MSTORE \t\t\t\n      PUSH [tag] 1734\t\t\t\n      DUP3 \t\t\t\n      DUP3 \t\t\t\n      PUSH [tag] 825\t\t\t\n      JUMP \t\t\t\n    tag 1734\t\t\t\n      JUMPDEST \t\t\t\n      SWAP2 \t\t\t\n      POP \t\t\t\n      POP \t\t\t\n      PUSH 20\t\t\t\n      DUP4 \t\t\t\n      ADD \t\t\t\n      MLOAD \t\t\t\n      PUSH [tag] 1735\t\t\t\n      PUSH 20\t\t\t\n      DUP7 \t\t\t\n      ADD \t\t\t\n      DUP3 \t\t\t\n      PUSH [tag] 826\t\t\t\n      JUMP \t\t\t\n    tag 1735\t\t\t\n      JUMPDEST \t\t\t\n      POP \t\t\t\n      DUP1 \t\t\t\n      SWAP2 \t\t\t\n      POP \t\t\t\n      POP \t\t\t\n      SWAP3 \t\t\t\n      SWAP2 \t\t\t\n      POP \t\t\t\n      POP \t\t\t\n      JUMP \t\t\t\n    tag 892\t\t\t\n      JUMPDEST \t\t\t\n      PUSH 0\t\t\t\n      PUSH [tag] 1737\t\t\t\n      DUP4 \t\t\t\n      DUP4 \t\t\t\n      PUSH [tag] 891\t\t\t\n      JUMP \t\t\t\n    tag 1737\t\t\t\n      JUMPDEST \t\t\t\n      SWAP1 \t\t\t\n      POP \t\t\t\n      SWAP3 \t\t\t\n      SWAP2 \t\t\t\n      POP \t\t\t\n      POP \t\t\t\n      JUMP \t\t\t\n    tag 893\t\t\t\n      JUMPDEST \t\t\t\n      PUSH 0\t\t\t\n      PUSH [tag] 1739\t\t\t\n      DUP3 \t\t\t\n      PUSH [tag] 717\t\t\t\n      JUMP \t\t\t\n    tag 1739\t\t\t\n      JUMPDEST \t\t\t\n      PUSH [tag] 1740\t\t\t\n      DUP2 \t\t\t\n      DUP6 \t\t\t\n      PUSH [tag] 890\t\t\t\n      JUMP \t\t\t\n    tag 1740\t\t\t\n      JUMPDEST \t\t\t\n      SWAP4 \t\t\t\n      POP \t\t\t\n      DUP4 \t\t\t\n      PUSH 20\t\t\t\n      DUP3 \t\t\t\n      MUL \t\t\t\n      DUP6 \t\t\t\n      ADD \t\t\t\n      PUSH [tag] 1741\t\t\t\n      DUP6 \t\t\t\n      PUSH [tag] 719\t\t\t\n      JUMP \t\t\t\n    tag 1741\t\t\t\n      JUMPDEST \t\t\t\n      DUP1 \t\t\t\n      PUSH 0\t\t\t\n    tag 1742\t\t\t\n      JUMPDEST \t\t\t\n      DUP6 \t\t\t\n      DUP2 \t\t\t\n      LT \t\t\t\n      ISZERO \t\t\t\n      PUSH [tag] 1744\t\t\t\n      JUMPI \t\t\t\n      DUP5 \t\t\t\n      DUP5 \t\t\t\n      SUB \t\t\t\n      DUP10 \t\t\t\n      MSTORE \t\t\t\n      DUP2 \t\t\t\n      MLOAD \t\t\t\n      PUSH [tag] 1745\t\t\t\n      DUP6 \t\t\t\n      DUP3 \t\t\t\n      PUSH [tag] 892\t\t\t\n      JUMP \t\t\t\n    tag 1745\t\t\t\n      JUMPDEST \t\t\t\n      SWAP5 \t\t\t\n      POP \t\t\t\n      PUSH [tag] 1746\t\t\t\n      DUP4 \t\t\t\n      PUSH [tag] 727\t\t\t\n      JUMP \t\t\t\n    tag 1746\t\t\t\n      JUMPDEST \t\t\t\n      SWAP3 \t\t\t\n      POP \t\t\t\n      PUSH 20\t\t\t\n      DUP11 \t\t\t\n      ADD \t\t\t\n      SWAP10 \t\t\t\n      POP \t\t\t\n      POP \t\t\t\n      PUSH 1\t\t\t\n      DUP2 \t\t\t\n      ADD \t\t\t\n      SWAP1 \t\t\t\n      POP \t\t\t\n      PUSH [tag] 1742\t\t\t\n      JUMP \t\t\t\n    tag 1744\t\t\t\n      JUMPDEST \t\t\t\n      POP \t\t\t\n      DUP3 \t\t\t\n      SWAP8 \t\t\t\n      POP \t\t\t\n      DUP8 \t\t\t\n      SWAP6 \t\t\t\n      POP \t\t\t\n      POP \t\t\t\n      POP \t\t\t\n      POP \t\t\t\n      POP \t\t\t\n      POP \t\t\t\n      SWAP3 \t\t\t\n      SWAP2 \t\t\t\n      POP \t\t\t\n      POP \t\t\t\n      JUMP \t\t\t\n    tag 894\t\t\t\n      JUMPDEST \t\t\t\n      PUSH 0\t\t\t\n      DUP3 \t\t\t\n      DUP3 \t\t\t\n      MSTORE \t\t\t\n      PUSH 20\t\t\t\n      DUP3 \t\t\t\n      ADD \t\t\t\n      SWAP1 \t\t\t\n      POP \t\t\t\n      SWAP3 \t\t\t\n      SWAP2 \t\t\t\n      POP \t\t\t\n      POP \t\t\t\n      JUMP \t\t\t\n    tag 895\t\t\t\n      JUMPDEST \t\t\t\n      PUSH 0\t\t\t\n      PUSH [tag] 1749\t\t\t\n      DUP4 \t\t\t\n      DUP4 \t\t\t\n      PUSH [tag] 826\t\t\t\n      JUMP \t\t\t\n    tag 1749\t\t\t\n      JUMPDEST \t\t\t\n      PUSH 20\t\t\t\n      DUP4 \t\t\t\n      ADD \t\t\t\n      SWAP1 \t\t\t\n      POP \t\t\t\n      SWAP3 \t\t\t\n      SWAP2 \t\t\t\n      POP \t\t\t\n      POP \t\t\t\n      JUMP \t\t\t\n    tag 896\t\t\t\n      JUMPDEST \t\t\t\n      PUSH 0\t\t\t\n      PUSH [tag] 1751\t\t\t\n      DUP3 \t\t\t\n      PUSH [tag] 835\t\t\t\n      JUMP \t\t\t\n    tag 1751\t\t\t\n      JUMPDEST \t\t\t\n      PUSH [tag] 1752\t\t\t\n      DUP2 \t\t\t\n      DUP6 \t\t\t\n      PUSH [tag] 894\t\t\t\n      JUMP \t\t\t\n    tag 1752\t\t\t\n      JUMPDEST \t\t\t\n      SWAP4 \t\t\t\n      POP \t\t\t\n      PUSH [tag] 1753\t\t\t\n      DUP4 \t\t\t\n      PUSH [tag] 837\t\t\t\n      JUMP \t\t\t\n    tag 1753\t\t\t\n      JUMPDEST \t\t\t\n      DUP1 \t\t\t\n      PUSH 0\t\t\t\n    tag 1754\t\t\t\n      JUMPDEST \t\t\t\n      DUP4 \t\t\t\n      DUP2 \t\t\t\n      LT \t\t\t\n      ISZERO \t\t\t\n      PUSH [tag] 1756\t\t\t\n      JUMPI \t\t\t\n      DUP2 \t\t\t\n      MLOAD \t\t\t\n      PUSH [tag] 1757\t\t\t\n      DUP9 \t\t\t\n      DUP3 \t\t\t\n      PUSH [tag] 895\t\t\t\n      JUMP \t\t\t\n    tag 1757\t\t\t\n      JUMPDEST \t\t\t\n      SWAP8 \t\t\t\n      POP \t\t\t\n      PUSH [tag] 1758\t\t\t\n      DUP4 \t\t\t\n      PUSH [tag] 839\t\t\t\n      JUMP \t\t\t\n    tag 1758\t\t\t\n      JUMPDEST \t\t\t\n      SWAP3 \t\t\t\n      POP \t\t\t\n      POP \t\t\t\n      PUSH 1\t\t\t\n      DUP2 \t\t\t\n      ADD \t\t\t\n      SWAP1 \t\t\t\n      POP \t\t\t\n      PUSH [tag] 1754\t\t\t\n      JUMP \t\t\t\n    tag 1756\t\t\t\n      JUMPDEST \t\t\t\n      POP \t\t\t\n      DUP6 \t\t\t\n      SWAP4 \t\t\t\n      POP \t\t\t\n      POP \t\t\t\n      POP \t\t\t\n      POP \t\t\t\n      SWAP3 \t\t\t\n      SWAP2 \t\t\t\n      POP \t\t\t\n      POP \t\t\t\n      JUMP \t\t\t\n    tag 677\t\t\t\n      JUMPDEST \t\t\t\n      PUSH 0\t\t\t\n      PUSH A0\t\t\t\n      DUP3 \t\t\t\n      ADD \t\t\t\n      SWAP1 \t\t\t\n      POP \t\t\t\n      PUSH [tag] 1760\t\t\t\n      PUSH 0\t\t\t\n      DUP4 \t\t\t\n      ADD \t\t\t\n      DUP9 \t\t\t\n      PUSH [tag] 818\t\t\t\n      JUMP \t\t\t\n    tag 1760\t\t\t\n      JUMPDEST \t\t\t\n      PUSH [tag] 1761\t\t\t\n      PUSH 20\t\t\t\n      DUP4 \t\t\t\n      ADD \t\t\t\n      DUP8 \t\t\t\n      PUSH [tag] 819\t\t\t\n      JUMP \t\t\t\n    tag 1761\t\t\t\n      JUMPDEST \t\t\t\n      PUSH [tag] 1762\t\t\t\n      PUSH 40\t\t\t\n      DUP4 \t\t\t\n      ADD \t\t\t\n      DUP7 \t\t\t\n      PUSH [tag] 820\t\t\t\n      JUMP \t\t\t\n    tag 1762\t\t\t\n      JUMPDEST \t\t\t\n      DUP2 \t\t\t\n      DUP2 \t\t\t\n      SUB \t\t\t\n      PUSH 60\t\t\t\n      DUP4 \t\t\t\n      ADD \t\t\t\n      MSTORE \t\t\t\n      PUSH [tag] 1763\t\t\t\n      DUP2 \t\t\t\n      DUP6 \t\t\t\n      PUSH [tag] 893\t\t\t\n      JUMP \t\t\t\n    tag 1763\t\t\t\n      JUMPDEST \t\t\t\n      SWAP1 \t\t\t\n      POP \t\t\t\n      DUP2 \t\t\t\n      DUP2 \t\t\t\n      SUB \t\t\t\n      PUSH 80\t\t\t\n      DUP4 \t\t\t\n      ADD \t\t\t\n      MSTORE \t\t\t\n      PUSH [tag] 1764\t\t\t\n      DUP2 \t\t\t\n      DUP5 \t\t\t\n      PUSH [tag] 896\t\t\t\n      JUMP \t\t\t\n    tag 1764\t\t\t\n      JUMPDEST \t\t\t\n      SWAP1 \t\t\t\n      POP \t\t\t\n      SWAP7 \t\t\t\n      SWAP6 \t\t\t\n      POP \t\t\t\n      POP \t\t\t\n      POP \t\t\t\n      POP \t\t\t\n      POP \t\t\t\n      POP \t\t\t\n      JUMP \t\t\t\n    .data\n"
}